{
  "_format": "hh-sol-artifact-1",
  "contractName": "TokenFactory_v3",
  "sourceName": "src/contracts/TokenFactory_v3.sol",
  "abi": [
    {
      "anonymous": false,
      "inputs": [
        {
          "indexed": false,
          "internalType": "address",
          "name": "previousAdmin",
          "type": "address"
        },
        {
          "indexed": false,
          "internalType": "address",
          "name": "newAdmin",
          "type": "address"
        }
      ],
      "name": "AdminChanged",
      "type": "event"
    },
    {
      "anonymous": false,
      "inputs": [
        {
          "indexed": true,
          "internalType": "address",
          "name": "beacon",
          "type": "address"
        }
      ],
      "name": "BeaconUpgraded",
      "type": "event"
    },
    {
      "anonymous": false,
      "inputs": [
        {
          "indexed": false,
          "internalType": "uint256",
          "name": "newFee",
          "type": "uint256"
        }
      ],
      "name": "DeploymentFeeUpdated",
      "type": "event"
    },
    {
      "anonymous": false,
      "inputs": [
        {
          "indexed": false,
          "internalType": "uint8",
          "name": "version",
          "type": "uint8"
        }
      ],
      "name": "Initialized",
      "type": "event"
    },
    {
      "anonymous": false,
      "inputs": [
        {
          "indexed": true,
          "internalType": "address",
          "name": "previousOwner",
          "type": "address"
        },
        {
          "indexed": true,
          "internalType": "address",
          "name": "newOwner",
          "type": "address"
        }
      ],
      "name": "OwnershipTransferred",
      "type": "event"
    },
    {
      "anonymous": false,
      "inputs": [
        {
          "indexed": true,
          "internalType": "address",
          "name": "tokenAddress",
          "type": "address"
        },
        {
          "indexed": false,
          "internalType": "string",
          "name": "name",
          "type": "string"
        },
        {
          "indexed": false,
          "internalType": "string",
          "name": "symbol",
          "type": "string"
        }
      ],
      "name": "TokenCreated",
      "type": "event"
    },
    {
      "anonymous": false,
      "inputs": [
        {
          "indexed": true,
          "internalType": "address",
          "name": "implementation",
          "type": "address"
        }
      ],
      "name": "Upgraded",
      "type": "event"
    },
    {
      "inputs": [
        {
          "components": [
            {
              "internalType": "string",
              "name": "name",
              "type": "string"
            },
            {
              "internalType": "string",
              "name": "symbol",
              "type": "string"
            },
            {
              "internalType": "uint256",
              "name": "initialSupply",
              "type": "uint256"
            },
            {
              "internalType": "uint256",
              "name": "maxSupply",
              "type": "uint256"
            },
            {
              "internalType": "address",
              "name": "owner",
              "type": "address"
            },
            {
              "internalType": "bool",
              "name": "enableBlacklist",
              "type": "bool"
            },
            {
              "internalType": "bool",
              "name": "enableTimeLock",
              "type": "bool"
            },
            {
              "internalType": "uint256",
              "name": "presaleRate",
              "type": "uint256"
            },
            {
              "internalType": "uint256",
              "name": "minContribution",
              "type": "uint256"
            },
            {
              "internalType": "uint256",
              "name": "maxContribution",
              "type": "uint256"
            },
            {
              "internalType": "uint256",
              "name": "presaleCap",
              "type": "uint256"
            },
            {
              "internalType": "uint256",
              "name": "startTime",
              "type": "uint256"
            },
            {
              "internalType": "uint256",
              "name": "endTime",
              "type": "uint256"
            },
            {
              "internalType": "address",
              "name": "platformFeeRecipient",
              "type": "address"
            },
            {
              "internalType": "uint256",
              "name": "platformFeeTokens",
              "type": "uint256"
            },
            {
              "internalType": "bool",
              "name": "platformFeeVestingEnabled",
              "type": "bool"
            },
            {
              "internalType": "uint256",
              "name": "platformFeeVestingDuration",
              "type": "uint256"
            },
            {
              "internalType": "uint256",
              "name": "platformFeeCliffDuration",
              "type": "uint256"
            }
          ],
          "internalType": "struct TokenTemplate_v3.InitParams",
          "name": "params",
          "type": "tuple"
        }
      ],
      "name": "createToken",
      "outputs": [
        {
          "internalType": "address",
          "name": "",
          "type": "address"
        }
      ],
      "stateMutability": "payable",
      "type": "function"
    },
    {
      "inputs": [],
      "name": "deploymentFee",
      "outputs": [
        {
          "internalType": "uint256",
          "name": "",
          "type": "uint256"
        }
      ],
      "stateMutability": "view",
      "type": "function"
    },
    {
      "inputs": [],
      "name": "implementation",
      "outputs": [
        {
          "internalType": "address",
          "name": "",
          "type": "address"
        }
      ],
      "stateMutability": "view",
      "type": "function"
    },
    {
      "inputs": [
        {
          "internalType": "address",
          "name": "_implementation",
          "type": "address"
        }
      ],
      "name": "initialize",
      "outputs": [],
      "stateMutability": "nonpayable",
      "type": "function"
    },
    {
      "inputs": [],
      "name": "owner",
      "outputs": [
        {
          "internalType": "address",
          "name": "",
          "type": "address"
        }
      ],
      "stateMutability": "view",
      "type": "function"
    },
    {
      "inputs": [],
      "name": "proxiableUUID",
      "outputs": [
        {
          "internalType": "bytes32",
          "name": "",
          "type": "bytes32"
        }
      ],
      "stateMutability": "view",
      "type": "function"
    },
    {
      "inputs": [],
      "name": "renounceOwnership",
      "outputs": [],
      "stateMutability": "nonpayable",
      "type": "function"
    },
    {
      "inputs": [
        {
          "internalType": "uint256",
          "name": "_fee",
          "type": "uint256"
        }
      ],
      "name": "setDeploymentFee",
      "outputs": [],
      "stateMutability": "nonpayable",
      "type": "function"
    },
    {
      "inputs": [
        {
          "internalType": "address",
          "name": "newOwner",
          "type": "address"
        }
      ],
      "name": "transferOwnership",
      "outputs": [],
      "stateMutability": "nonpayable",
      "type": "function"
    },
    {
      "inputs": [
        {
          "internalType": "address",
          "name": "newImplementation",
          "type": "address"
        }
      ],
      "name": "upgradeTo",
      "outputs": [],
      "stateMutability": "nonpayable",
      "type": "function"
    },
    {
      "inputs": [
        {
          "internalType": "address",
          "name": "newImplementation",
          "type": "address"
        },
        {
          "internalType": "bytes",
          "name": "data",
          "type": "bytes"
        }
      ],
      "name": "upgradeToAndCall",
      "outputs": [],
      "stateMutability": "payable",
      "type": "function"
    },
    {
      "inputs": [],
      "name": "withdrawFees",
      "outputs": [],
      "stateMutability": "nonpayable",
      "type": "function"
    }
  ],
  "bytecode": "0x60a0604052346200003657620000146200003b565b604051611ee1620000a182396080518181816105b101526108330152611ee190f35b600080fd5b6200004562000047565b565b620000456200004562000090565b6200006b906200006e906001600160a01b031682565b90565b6001600160a01b031690565b6200006b9062000055565b6200006b906200007a565b6200009b3062000085565b60805256fe608060405260043610156200001357600080fd5b60003560e01c80633659cfe614620000ea578063476343ee14620000e45780634f1ef28614620000de57806352d1902d14620000d85780635c60da1b14620000d25780635c989eb714620000cc578063715018a614620000c65780638da5cb5b14620000c0578063c4d66de814620000ba578063d002462b14620000b4578063f2cff57f14620000ae5763f2fde38b03620000f057620004a8565b62000487565b62000443565b620003f9565b620003d8565b620003bb565b620003a0565b62000339565b620002bb565b6200029f565b62000171565b6200013f565b600080fd5b6001600160a01b031690565b90565b6200010f81620000f5565b03620000f057565b90503590620001268262000104565b565b90602082820312620000f057620001019162000117565b34620000f0576200015c6200015636600462000128565b62000696565b604051005b0390f35b6000910312620000f057565b34620000f0576200018436600462000165565b6200015c62000763565b634e487b7160e01b600052604160045260246000fd5b90601f01601f191681019081106001600160401b03821117620001c657604052565b6200018e565b9062000126620001db60405190565b9283620001a4565b6001600160401b038111620001c657602090601f01601f19160190565b0190565b90826000939282370152565b90929192620002296200022382620001e3565b620001cc565b9381855281830111620000f0576200012691602085019062000204565b9080601f83011215620000f057816020620001019335910162000210565b919091604081840312620000f0576200027e838262000117565b9260208201356001600160401b038111620000f05762000101920162000246565b6200015c620002b036600462000264565b906200079b565b9052565b34620000f057620002ce36600462000165565b62000161620002dc6200089b565b6040519182918290815260200190565b62000101916008021c6001600160a01b031690565b90620001019154620002ec565b62000101600060c962000301565b620002b790620000f5565b6020810192916200012691906200031c565b34620000f0576200034c36600462000165565b620001616200035a6200030e565b6040519182918262000327565b9081610240910312620000f05790565b90602082820312620000f05781356001600160401b038111620000f05762000101920162000367565b620001616200035a620003b536600462000377565b62000cd2565b34620000f057620003ce36600462000165565b6200015c62000e31565b34620000f057620003eb36600462000165565b620001616200035a62000e3b565b34620000f0576200015c6200041036600462000128565b6200113c565b806200010f565b90503590620001268262000416565b90602082820312620000f05762000101916200041d565b34620000f0576200015c6200045a3660046200042c565b62001189565b62000101916008021c81565b9062000101915462000460565b62000101600060ca6200046c565b34620000f0576200049a36600462000165565b62000161620002dc62000479565b34620000f0576200015c620004bf36600462000128565b62001237565b6200010190620000f5906001600160a01b031682565b6200010190620004c5565b6200010190620004db565b15620004f957565b60405162461bcd60e51b815260206004820152602c602482015260008051602062001e8c83398151915260448201526b19195b1959d85d1958d85b1b60a21b6064820152608490fd5b0390fd5b156200054e57565b60405162461bcd60e51b815260206004820152602c602482015260008051602062001e8c83398151915260448201526b6163746976652070726f787960a01b6064820152608490fd5b62000126906200060f620005ab30620004e6565b620005ef7f000000000000000000000000000000000000000000000000000000000000000091620005e7620005e084620000f5565b91620000f5565b1415620004f1565b62000608620005e06200060162001242565b92620000f5565b1462000546565b62000668565b6200010162000101620001019290565b90620006356200022383620001e3565b918252565b369037565b90620001266200065a620006538462000625565b93620001e3565b601f1901602084016200063a565b600062000126916200067a8162001268565b6200068f620006898362000615565b6200063f565b9062001323565b620001269062000597565b620006ab620014a5565b6200012662000716565b3d15620006d257620006c73d62000625565b903d6000602084013e565b606090565b15620006df57565b60405162461bcd60e51b815260206004820152600f60248201526e151c985b9cd9995c8819985a5b1959608a1b6044820152606490fd5b62000126600080620007356200072f6200072f62000e3b565b620004e6565b6200074030620004e6565b316200074b60405190565b90818003925af16200075c620006b5565b50620006d7565b62000126620006a1565b90620001269162000782620005ab30620004e6565b6200012691600191620007958162001268565b62001323565b9062000126916200076d565b15620007af57565b60405162461bcd60e51b815260206004820152603860248201527f555550535570677261646561626c653a206d757374206e6f742062652063616c6044820152771b1959081d1a1c9bdd59da0819195b1959d85d1958d85b1b60421b6064820152608490fd5b62000101906200085f6200082930620004e6565b62000858620005e07f0000000000000000000000000000000000000000000000000000000000000000620000f5565b14620007a7565b62000890565b620001017f360894a13ba1a3210667c828492db98dca3e2076cc3735a920a3ca505d382bbc62000615565b506200010162000865565b62000101600062000815565b620001019081565b620001019054620008a7565b15620008c357565b60405162461bcd60e51b815260206004820152601b60248201527a496e73756666696369656e74206465706c6f796d656e742066656560281b6044820152606490fd5b9035601e193683900301811215620000f0570160208101919035906001600160401b038211620000f057368290038313620000f057565b91906200095f816200095781620002009560209181520190565b809562000204565b601f01601f191690565b50620001019060208101906200041d565b506200010190602081019062000117565b8015156200010f565b9050359062000126826200098b565b506200010190602081019062000994565b90620001019061022062000bb562000a04620009e66102408501620009da888062000906565b8783038852906200093d565b620009f5602088018862000906565b9086830360208801526200093d565b9462000a1f62000a18604083018362000969565b6040860152565b62000a3962000a32606083018362000969565b6060860152565b62000a5762000a4c60808301836200097a565b60808601906200031c565b62000a7362000a6a60a0830183620009a3565b151560a0860152565b62000a8f62000a8660c0830183620009a3565b151560c0860152565b62000aa962000aa260e083018362000969565b60e0860152565b62000ac562000abd61010083018362000969565b610100860152565b62000ae162000ad961012083018362000969565b610120860152565b62000afd62000af561014083018362000969565b610140860152565b62000b1962000b1161016083018362000969565b610160860152565b62000b3562000b2d61018083018362000969565b610180860152565b62000b5562000b496101a08301836200097a565b6101a08601906200031c565b62000b7162000b696101c083018362000969565b6101c0860152565b62000b8f62000b856101e0830183620009a3565b15156101e0860152565b62000bab62000ba361020083018362000969565b610200860152565b8281019062000969565b910152565b60208082526200010192910190620009b4565b6200010190620000f5565b62000101905462000bcd565b60005b83811062000bf85750506000910152565b818101518382015260200162000be7565b62000c2e6200095f602093620002009362000c22815190565b80835293849260200190565b9586910162000be4565b91620001019262000c52604082019360008301906200031c565b602081840391015262000c09565b6040513d6000823e3d90fd5b903590601e193682900301821215620000f057018035906001600160401b038211620000f05760200191368290038313620000f057565b929062000cc390620001019593604086019186830360008801526200093d565b9260208185039101526200093d565b62000cef62000ce66200010160ca620008af565b341015620008bb565b6040516394cf687360e01b602082015262000d238162000d13846024830162000bba565b60208201810382520382620001a4565b62000d2f60c962000bd8565b604051916105e98301906001600160401b03821184831017620001c657839262000d62926105e9620018a3863962000c38565b03906000f0801562000de6577fffc04f682c7b287e4b552dacd4b833d7c33dc0549cd6da84388408e4830c056262000dbd62000da262000de093620004e6565b9362000daf818062000c6c565b929091602081019062000c6c565b62000dcb87969296620004e6565b9562000dd660405190565b9485948562000ca3565b0390a290565b62000c60565b62000df6620014a5565b6200012662000e1b565b620000f562000101620001019290565b620001019062000e00565b6200012662000e2b600062000e10565b620014c9565b6200012662000dec565b62000101609762000bd8565b620001019060081c5b60ff1690565b62000101905462000e47565b620001019062000e50565b62000101905462000e62565b62000e5062000101620001019290565b1562000e9157565b60405162461bcd60e51b815260206004820152602e60248201527f496e697469616c697a61626c653a20636f6e747261637420697320616c72656160448201526d191e481a5b9a5d1a585b1a5e995960921b6064820152608490fd5b9060ff905b9181191691161790565b62000e5062000101620001019260ff1690565b9062000f236200010162000f2b9262000efc565b825462000eed565b9055565b9061ff009060081b62000ef2565b9062000f506200010162000f2b92151590565b825462000f2f565b620002b79062000e79565b60208101929162000126919062000f58565b62000fcd62000f8d62000f89600062000e56565b1590565b91828062001085575b801562001033575b62000fa99062000e89565b8262000fc262000fba600162000e79565b600062000f0f565b6200101f57620010fc565b62000fd457565b62000fe160008062000f3d565b7f7f26b83ff96e1f2b6a682f133852f6798a09c465da95921460cefb38474024986200100c60405190565b806200101a60018262000f63565b0390a1565b6200102d6001600062000f3d565b620010fc565b506200104d62000f896200104730620004e6565b62001523565b801562000f9e575062000fa962001065600062000e6d565b6200107c62001075600162000e79565b9160ff1690565b14905062000f9e565b5062001092600062000e6d565b620010a262001075600162000e79565b1062000f96565b906001600160a01b039062000ef2565b90620010cd6200010162000f2b92620004e6565b8254620010a9565b906000199062000ef2565b90620010f46200010162000f2b9262000615565b8254620010d5565b6200111d906200110b620015bd565b62001115620015d7565b60c9620010b9565b620001266200113467016345785d8a000062000615565b60ca620010e0565b620001269062000f75565b620001269062001156620014a5565b6200101a7f40bd824d588484917db8fa4fc894c1e0feae5a75885290ba7b97521cebf82a8091620002dc8160ca620010e0565b620001269062001147565b6200012690620011a3620014a5565b62001205565b15620011b157565b60405162461bcd60e51b815260206004820152602660248201527f4f776e61626c653a206e6577206f776e657220697320746865207a65726f206160448201526564647265737360d01b6064820152608490fd5b620001269062000e2b620012246200121e600062000e10565b620000f5565b6200122f83620000f5565b1415620011a9565b620001269062001194565b620001016000620012566200010162000865565b0162000bd8565b5062000126620014a5565b62000126906200125d565b620001017f4910fdfa16fed3260ed0e7147f7cc6da11a60208b5b9406d12a635614ffd914362000615565b90505190620001268262000416565b90602082820312620000f05762000101916200129e565b15620012cc57565b60405162461bcd60e51b815260206004820152602960248201527f45524331393637557067726164653a20756e737570706f727465642070726f786044820152681a58589b195555525160ba1b6064820152608490fd5b9190620013406000620013396200010162001273565b0162000e6d565b156200135357505062000126906200168d565b620013626200072f84620004e6565b9260206200136f60405190565b6352d1902d60e01b815294859060049082905afa600094816200141b575b50620013ef5760405162461bcd60e51b815260206004820152602e60248201527f45524331393637557067726164653a206e657720696d706c656d656e7461746960448201526d6f6e206973206e6f74205555505360901b6064820152608490fd5b6200141562000126946200140e6200140a6200010162000865565b9190565b14620012c4565b620015e1565b6200144391955060203d6020116200144b575b6200143a8183620001a4565b810190620012ad565b93386200138d565b503d6200142e565b156200145b57565b60405162461bcd60e51b81528062000542600482016020808252818101527f4f776e61626c653a2063616c6c6572206973206e6f7420746865206f776e6572604082015260600190565b62000126620014b362000e3b565b620014c2620005e033620000f5565b1462001453565b620014f1620014ea620014dd609762000bd8565b6200072f846097620010b9565b91620004e6565b907f8be0079c531659141344cd1fd0a4f28419497f9722a3daafe3b4186f6b6457e06200151d60405190565b600090a3565b3b620015346200140a600062000615565b1190565b156200154057565b60405162461bcd60e51b815260206004820152602b60248201527f496e697469616c697a61626c653a20636f6e7472616374206973206e6f74206960448201526a6e697469616c697a696e6760a81b6064820152608490fd5b620015af620015a9600062000e56565b62001538565b6200012662000126620016da565b6200012662001599565b62000126620015a9600062000e56565b62000126620015c7565b91620015ed83620016e4565b8151620015ff6200140a600062000615565b1190811562001621575b5062001613575050565b6200161e9162001774565b50565b90503862001609565b156200163257565b60405162461bcd60e51b815260206004820152602d60248201527f455243313936373a206e657720696d706c656d656e746174696f6e206973206e60448201526c1bdd08184818dbdb9d1c9858dd609a1b6064820152608490fd5b6200012690620016a7620016a18262001523565b6200162a565b6000620016b76200010162000865565b01620010b9565b620016ce620015a9600062000e56565b620001268033620014c9565b62000126620016be565b620016f4906200072f816200168d565b7fbc7cd75a20ee27fd9adebab32041f755214dbc6bffa90cc0225b39da2e5c2d3b6200171f60405190565b600090a2565b62001731602762000625565b7f416464726573733a206c6f772d6c6576656c2064656c65676174652063616c6c6020820152660819985a5b195960ca1b604082015290565b6200010162001725565b6200010191620017836200176a565b9160008062000101949362001796606090565b50602081519101845af4620017aa620006b5565b91620017fe565b15620017b957565b60405162461bcd60e51b815260206004820152601d60248201527f416464726573733a2063616c6c20746f206e6f6e2d636f6e74726163740000006044820152606490fd5b9192901562001839575081516200181a6200140a600062000615565b1462001824575090565b62001833620001019162001523565b620017b1565b8262001853565b6020808252620001019291019062000c09565b906200185d825190565b6200186d6200140a600062000615565b11156200187d5750805190602001fd5b62000542906200188c60405190565b62461bcd60e51b8152918291600483016200184056fe608060405261001561000f61016a565b9061018c565b60405160c3610526823960c390f35b634e487b7160e01b600052604160045260246000fd5b90601f01601f191681019081106001600160401b0382111761005b57604052565b610024565b9061007461006d60405190565b928361003a565b565b6001600160a01b031690565b90565b61008e81610076565b0361009557565b600080fd5b9050519061007482610085565b6001600160401b03811161005b57602090601f01601f19160190565b0190565b60005b8381106100da5750506000910152565b81810151838201526020016100ca565b909291926100ff6100fa826100a7565b610060565b9381855281830111610095576100749160208501906100c7565b9080601f83011215610095578151610082926020016100ea565b9190916040818403126100955761014a838261009a565b60208201519093906001600160401b038111610095576100829201610119565b6101886105e98038038061017d81610060565b928339810190610133565b9091565b610074916000916101a5565b6100826100826100829290565b916101af8361020e565b81516101c26101be6000610198565b9190565b119081156101e0575b506101d4575050565b6101dd916102ad565b50565b9050386101cb565b61008290610076906001600160a01b031682565b610082906101e8565b610082906101fc565b6102209061021b81610389565b610205565b7fbc7cd75a20ee27fd9adebab32041f755214dbc6bffa90cc0225b39da2e5c2d3b61024a60405190565b600090a2565b9061025d6100fa836100a7565b918252565b61026c6027610250565b7f416464726573733a206c6f772d6c6576656c2064656c65676174652063616c6c6020820152660819985a5b195960ca1b604082015290565b610082610262565b610082916102b96102a5565b916103d0565b6020808252602d908201527f455243313936373a206e657720696d706c656d656e746174696f6e206973206e60408201526c1bdd08184818dbdb9d1c9858dd609a1b606082015260800190565b1561031357565b60405162461bcd60e51b81528061032c600482016102bf565b0390fd5b6100827f360894a13ba1a3210667c828492db98dca3e2076cc3735a920a3ca505d382bbc610198565b9061036961008261038592610205565b82546001600160a01b0319166001600160a01b03919091161790565b9055565b6100749061039e610399826103f8565b61030c565b60006103ab610082610330565b01610359565b3d156103cb576103c03d610250565b903d6000602084013e565b606090565b60008061008294936103e0606090565b50602081519101845af46103f26103b1565b91610461565b3b6104066101be6000610198565b1190565b6020808252601d908201527f416464726573733a2063616c6c20746f206e6f6e2d636f6e7472616374000000604082015260600190565b1561044857565b60405162461bcd60e51b81528061032c6004820161040a565b91929015610493575081516104796101be6000610198565b14610482575090565b61048e610082916103f8565b610441565b826104de565b6104ba6104c36020936100c3936104ae815190565b80835293849260200190565b958691016100c7565b601f01601f191690565b602080825261008292910190610499565b906104e7825190565b6104f46101be6000610198565b11156105035750805190602001fd5b61032c9061051060405190565b62461bcd60e51b8152918291600483016104cd56fe6080604052600a600e565b6017565b6014607c565b90565b60008091368280378136915af43d6000803e156032573d6000f35b3d6000fd5b6014601460149290565b60147f360894a13ba1a3210667c828492db98dca3e2076cc3735a920a3ca505d382bbc6037565b6001600160a01b031690565b601490546068565b60146000608860146041565b01607456fea26469706673582212200ad4ac51629ce32ff36896c3191fd47fcb9b0a0892e6281467f168c50548841064736f6c6343000816003346756e6374696f6e206d7573742062652063616c6c6564207468726f75676820a26469706673582212207beb90e778d313b95eef743ec9d5780cf9271c6564d624b36eb2f5cea342e53564736f6c63430008160033",
  "linkReferences": {},
  "deployedLinkReferences": {}
}