{
  "_format": "hh-sol-artifact-1",
  "contractName": "TokenFactory_v3",
  "sourceName": "src/contracts/TokenFactory_v3.sol",
  "abi": [
    {
      "anonymous": false,
      "inputs": [
        {
          "indexed": false,
          "internalType": "address",
          "name": "previousAdmin",
          "type": "address"
        },
        {
          "indexed": false,
          "internalType": "address",
          "name": "newAdmin",
          "type": "address"
        }
      ],
      "name": "AdminChanged",
      "type": "event"
    },
    {
      "anonymous": false,
      "inputs": [
        {
          "indexed": true,
          "internalType": "address",
          "name": "beacon",
          "type": "address"
        }
      ],
      "name": "BeaconUpgraded",
      "type": "event"
    },
    {
      "anonymous": false,
      "inputs": [
        {
          "indexed": false,
          "internalType": "uint256",
          "name": "newFee",
          "type": "uint256"
        }
      ],
      "name": "DeploymentFeeUpdated",
      "type": "event"
    },
    {
      "anonymous": false,
      "inputs": [
        {
          "indexed": false,
          "internalType": "uint8",
          "name": "version",
          "type": "uint8"
        }
      ],
      "name": "Initialized",
      "type": "event"
    },
    {
      "anonymous": false,
      "inputs": [
        {
          "indexed": true,
          "internalType": "address",
          "name": "previousOwner",
          "type": "address"
        },
        {
          "indexed": true,
          "internalType": "address",
          "name": "newOwner",
          "type": "address"
        }
      ],
      "name": "OwnershipTransferred",
      "type": "event"
    },
    {
      "anonymous": false,
      "inputs": [
        {
          "indexed": true,
          "internalType": "address",
          "name": "tokenAddress",
          "type": "address"
        },
        {
          "indexed": false,
          "internalType": "string",
          "name": "name",
          "type": "string"
        },
        {
          "indexed": false,
          "internalType": "string",
          "name": "symbol",
          "type": "string"
        }
      ],
      "name": "TokenCreated",
      "type": "event"
    },
    {
      "anonymous": false,
      "inputs": [
        {
          "indexed": true,
          "internalType": "address",
          "name": "implementation",
          "type": "address"
        }
      ],
      "name": "Upgraded",
      "type": "event"
    },
    {
      "inputs": [
        {
          "components": [
            {
              "internalType": "string",
              "name": "name",
              "type": "string"
            },
            {
              "internalType": "string",
              "name": "symbol",
              "type": "string"
            },
            {
              "internalType": "uint256",
              "name": "initialSupply",
              "type": "uint256"
            },
            {
              "internalType": "uint256",
              "name": "maxSupply",
              "type": "uint256"
            },
            {
              "internalType": "address",
              "name": "owner",
              "type": "address"
            },
            {
              "internalType": "bool",
              "name": "enableBlacklist",
              "type": "bool"
            },
            {
              "internalType": "bool",
              "name": "enableTimeLock",
              "type": "bool"
            },
            {
              "internalType": "uint256",
              "name": "presaleRate",
              "type": "uint256"
            },
            {
              "internalType": "uint256",
              "name": "minContribution",
              "type": "uint256"
            },
            {
              "internalType": "uint256",
              "name": "maxContribution",
              "type": "uint256"
            },
            {
              "internalType": "uint256",
              "name": "presaleCap",
              "type": "uint256"
            },
            {
              "internalType": "uint256",
              "name": "startTime",
              "type": "uint256"
            },
            {
              "internalType": "uint256",
              "name": "endTime",
              "type": "uint256"
            },
            {
              "internalType": "uint256",
              "name": "presalePercentage",
              "type": "uint256"
            },
            {
              "internalType": "uint256",
              "name": "liquidityPercentage",
              "type": "uint256"
            },
            {
              "internalType": "uint256",
              "name": "liquidityLockDuration",
              "type": "uint256"
            },
            {
              "internalType": "address",
              "name": "marketingWallet",
              "type": "address"
            },
            {
              "internalType": "uint256",
              "name": "marketingPercentage",
              "type": "uint256"
            },
            {
              "internalType": "address",
              "name": "teamWallet",
              "type": "address"
            },
            {
              "internalType": "uint256",
              "name": "teamPercentage",
              "type": "uint256"
            }
          ],
          "internalType": "struct TokenTemplate_v3.InitParams",
          "name": "params",
          "type": "tuple"
        }
      ],
      "name": "createToken",
      "outputs": [
        {
          "internalType": "address",
          "name": "",
          "type": "address"
        }
      ],
      "stateMutability": "payable",
      "type": "function"
    },
    {
      "inputs": [
        {
          "internalType": "uint256",
          "name": "",
          "type": "uint256"
        }
      ],
      "name": "deployedTokens",
      "outputs": [
        {
          "internalType": "address",
          "name": "",
          "type": "address"
        }
      ],
      "stateMutability": "view",
      "type": "function"
    },
    {
      "inputs": [],
      "name": "deploymentFee",
      "outputs": [
        {
          "internalType": "uint256",
          "name": "",
          "type": "uint256"
        }
      ],
      "stateMutability": "view",
      "type": "function"
    },
    {
      "inputs": [],
      "name": "getDeployedTokens",
      "outputs": [
        {
          "internalType": "address[]",
          "name": "",
          "type": "address[]"
        }
      ],
      "stateMutability": "view",
      "type": "function"
    },
    {
      "inputs": [],
      "name": "implementation",
      "outputs": [
        {
          "internalType": "address",
          "name": "",
          "type": "address"
        }
      ],
      "stateMutability": "view",
      "type": "function"
    },
    {
      "inputs": [
        {
          "internalType": "address",
          "name": "_implementation",
          "type": "address"
        }
      ],
      "name": "initialize",
      "outputs": [],
      "stateMutability": "nonpayable",
      "type": "function"
    },
    {
      "inputs": [],
      "name": "owner",
      "outputs": [
        {
          "internalType": "address",
          "name": "",
          "type": "address"
        }
      ],
      "stateMutability": "view",
      "type": "function"
    },
    {
      "inputs": [],
      "name": "proxiableUUID",
      "outputs": [
        {
          "internalType": "bytes32",
          "name": "",
          "type": "bytes32"
        }
      ],
      "stateMutability": "view",
      "type": "function"
    },
    {
      "inputs": [],
      "name": "renounceOwnership",
      "outputs": [],
      "stateMutability": "nonpayable",
      "type": "function"
    },
    {
      "inputs": [
        {
          "internalType": "uint256",
          "name": "_fee",
          "type": "uint256"
        }
      ],
      "name": "setDeploymentFee",
      "outputs": [],
      "stateMutability": "nonpayable",
      "type": "function"
    },
    {
      "inputs": [
        {
          "internalType": "address",
          "name": "newOwner",
          "type": "address"
        }
      ],
      "name": "transferOwnership",
      "outputs": [],
      "stateMutability": "nonpayable",
      "type": "function"
    },
    {
      "inputs": [
        {
          "internalType": "address",
          "name": "newImplementation",
          "type": "address"
        }
      ],
      "name": "upgradeTo",
      "outputs": [],
      "stateMutability": "nonpayable",
      "type": "function"
    },
    {
      "inputs": [
        {
          "internalType": "address",
          "name": "newImplementation",
          "type": "address"
        },
        {
          "internalType": "bytes",
          "name": "data",
          "type": "bytes"
        }
      ],
      "name": "upgradeToAndCall",
      "outputs": [],
      "stateMutability": "payable",
      "type": "function"
    },
    {
      "inputs": [],
      "name": "withdrawFees",
      "outputs": [],
      "stateMutability": "nonpayable",
      "type": "function"
    }
  ],
  "bytecode": "0x60a0806040523461003157306080526118289081610037823960805181818161087f015281816109b30152610cd80152f35b600080fdfe604060808152600490813610156200001657600080fd5b600091823560e01c80633659cfe61462000cad578063476343ee1462000c325780634f1ef286146200092e57806352d1902d14620008685780635c60da1b146200083d578063622ae7aa1462000770578063715018a6146200070f5780638da5cb5b14620006e4578063b978f21414620003b5578063c4d66de81462000225578063d002462b14620001d4578063ec81aadb146200018c578063f2cff57f14620001675763f2fde38b14620000ca57600080fd5b34620001635760203660031901126200016357620000e762000ebd565b91620000f262001184565b6001600160a01b038316156200011157836200010e84620011dd565b80f35b906020608492519162461bcd60e51b8352820152602660248201527f4f776e61626c653a206e6577206f776e657220697320746865207a65726f206160448201526564647265737360d01b6064820152fd5b8280fd5b505034620001885781600319360112620001885760209060ca549051908152f35b5080fd5b5034620001635760203660031901126200016357359160cb54831015620001d15750620001bb60209262000f61565b905491519160018060a01b039160031b1c168152f35b80fd5b50346200016357602036600319011262000163577f40bd824d588484917db8fa4fc894c1e0feae5a75885290ba7b97521cebf82a809160209135906200021962001184565b8160ca5551908152a180f35b50346200016357602036600319011262000163576200024362000ebd565b90835460ff8160081c161591828093620003a7575b80156200038e575b1562000334575060ff19811660011785558162000322575b506200029660ff855460081c16620002908162001226565b62001226565b620002a133620011dd565b835491620002b560ff8460081c1662001226565b60018060a01b03166bffffffffffffffffffffffff60a01b60c954161760c95567016345785d8a000060ca55620002ea578280f35b61ff001916825551600181527f7f26b83ff96e1f2b6a682f133852f6798a09c465da95921460cefb384740249890602090a138808280f35b61ffff19166101011784553862000278565b608490602086519162461bcd60e51b8352820152602e60248201527f496e697469616c697a61626c653a20636f6e747261637420697320616c72656160448201526d191e481a5b9a5d1a585b1a5e995960921b6064820152fd5b50303b158015620002605750600160ff83161462000260565b50600160ff83161062000258565b5091906020926003198481360112620006e057813567ffffffffffffffff92838211620006dc578181019361028080948436030112620006d85760ca54341062000695576200043186519463229f92a160e01b8a8701528960248701526200041e8780620010a8565b909160448801526102c4870191620010dd565b9362000571816200045f60248701976200044c898b620010a8565b84830360431901606486015290620010dd565b60448701356084830152606487013560a4830152620004816084880162000ed9565b6001600160a01b0390811660c484015296620004a060a48201620010fe565b151560e4840152620004b560c48201620010fe565b90610104911515828501528862000553620005366101249460e4850135868901526101449085013581890152610164958501358689015261018490850135818901526101a495850135868901526101c490850135818901526101e4958501358689015261020490850135818901526102249585013586890152840162000ed9565b826102449116818801526102649484013585880152830162000ed9565b1661028485015201356102a483015203601f19810183528262000f21565b60c954875192610416808501928716918311858410176200068257620005ab928594928b92620013bd87398152818d82015201906200110c565b039087f08015620006785782169560cb5491680100000000000000008310156200066557505091859391620006088460017fffc04f682c7b287e4b552dacd4b833d7c33dc0549cd6da84388408e4830c0562960160cb5562000f61565b819291549060031b9187831b921b19161790556200065c620006386200062f84806200114e565b9390946200114e565b6200064e88519586958a87528a870191620010dd565b918483038b860152620010dd565b0390a251908152f35b634e487b7160e01b825260419052602490fd5b85513d88823e3d90fd5b634e487b7160e01b8b526041865260248bfd5b855162461bcd60e51b8152808301899052601b60248201527f496e73756666696369656e74206465706c6f796d656e742066656500000000006044820152606490fd5b8680fd5b8580fd5b8380fd5b505034620001885781600319360112620001885760975490516001600160a01b039091168152602090f35b8334620001d15780600319360112620001d1576200072c62001184565b609780546001600160a01b0319811690915581906001600160a01b03167f8be0079c531659141344cd1fd0a4f28419497f9722a3daafe3b4186f6b6457e08280a380f35b828434620001d15780600319360112620001d15790805191829060cb54918285526020809501809360cb84527fa7ce836d032b2bf62b7e2097a8e0a6d8aeb35405ad15271e96d3b0188a1d06fb90845b8181106200081f5750505081620007d991038262000f21565b83519485948186019282875251809352850193925b828110620007fe57505050500390f35b83516001600160a01b031685528695509381019392810192600101620007ee565b82546001600160a01b031684529288019260019283019201620007c0565b505034620001885781600319360112620001885760c95490516001600160a01b039091168152602090f35b508234620001d15780600319360112620001d157507f00000000000000000000000000000000000000000000000000000000000000006001600160a01b03163003620008c65760208251600080516020620017d38339815191528152f35b6020608492519162461bcd60e51b8352820152603860248201527f555550535570677261646561626c653a206d757374206e6f742062652063616c60448201527f6c6564207468726f7567682064656c656761746563616c6c00000000000000006064820152fd5b50908060031936011262000163576200094662000ebd565b906024359067ffffffffffffffff821162000c2e573660238301121562000c2e5781840135620009768162000f44565b90620009858351928362000f21565b8082528660209485840192366024828401011162000163578060248893018537840101526001600160a01b037f0000000000000000000000000000000000000000000000000000000000000000811690620009e33083141562000faf565b62000a03600080516020620017d383398151915292828454161462001011565b62000a0d62001184565b7f4910fdfa16fed3260ed0e7147f7cc6da11a60208b5b9406d12a635614ffd91435460ff161562000a4a575050505050506200010e915062001287565b8693949596169085516352d1902d60e01b815287818a81865afa8a918162000bf5575b5062000acd57865162461bcd60e51b8152808a01899052602e60248201527f45524331393637557067726164653a206e657720696d706c656d656e7461746960448201526d6f6e206973206e6f74205555505360901b6064820152608490fd5b979192939594970362000ba057509086929162000aea8562001287565b7fbc7cd75a20ee27fd9adebab32041f755214dbc6bffa90cc0225b39da2e5c2d3b8480a285511580159062000b97575b62000b29575b50505050505080f35b62000b8a95660819985a5b195960ca1b837f416464726573733a206c6f772d6c6576656c2064656c65676174652063616c6c8695519862000b6a8a62000eee565b60278a528901528701525190845af462000b8362001073565b9162001319565b5038808083818062000b20565b50600162000b1a565b835162461bcd60e51b8152908101869052602960248201527f45524331393637557067726164653a20756e737570706f727465642070726f786044820152681a58589b195555525160ba1b6064820152608490fd5b9091508881813d831162000c26575b62000c10818362000f21565b8101031262000c225751903862000a6d565b8a80fd5b503d62000c04565b8480fd5b509034620001635782600319360112620001635762000c5062001184565b8280808060018060a01b036097541647905af162000c6d62001073565b501562000c78578280f35b906020606492519162461bcd60e51b8352820152600f60248201526e151c985b9cd9995c8819985a5b1959608a1b6044820152fd5b5090346200016357602080600319360112620006e05762000ccd62000ebd565b916001600160a01b037f000000000000000000000000000000000000000000000000000000000000000081169062000d083083141562000faf565b62000d28600080516020620017d383398151915292828454161462001011565b62000d3262001184565b8251918483019183831067ffffffffffffffff84111762000eaa578285528884527f4910fdfa16fed3260ed0e7147f7cc6da11a60208b5b9406d12a635614ffd91435460ff161562000d90575050505050506200010e915062001287565b8693949596169085516352d1902d60e01b815287818a81865afa8a918162000e75575b5062000e1357865162461bcd60e51b8152808a01899052602e60248201527f45524331393637557067726164653a206e657720696d706c656d656e7461746960448201526d6f6e206973206e6f74205555505360901b6064820152608490fd5b979192939594970362000ba057509086929162000e308562001287565b7fbc7cd75a20ee27fd9adebab32041f755214dbc6bffa90cc0225b39da2e5c2d3b8480a285511580159062000e6d5762000b295750505050505080f35b508262000b1a565b9091508881813d831162000ea2575b62000e90818362000f21565b8101031262000c225751903862000db3565b503d62000e84565b634e487b7160e01b895260418852602489fd5b600435906001600160a01b038216820362000ed457565b600080fd5b35906001600160a01b038216820362000ed457565b6060810190811067ffffffffffffffff82111762000f0b57604052565b634e487b7160e01b600052604160045260246000fd5b90601f8019910116810190811067ffffffffffffffff82111762000f0b57604052565b67ffffffffffffffff811162000f0b57601f01601f191660200190565b60cb5481101562000f995760cb6000527fa7ce836d032b2bf62b7e2097a8e0a6d8aeb35405ad15271e96d3b0188a1d06fb0190600090565b634e487b7160e01b600052603260045260246000fd5b1562000fb757565b60405162461bcd60e51b815260206004820152602c60248201527f46756e6374696f6e206d7573742062652063616c6c6564207468726f7567682060448201526b19195b1959d85d1958d85b1b60a21b6064820152608490fd5b156200101957565b60405162461bcd60e51b815260206004820152602c60248201527f46756e6374696f6e206d7573742062652063616c6c6564207468726f7567682060448201526b6163746976652070726f787960a01b6064820152608490fd5b3d15620010a3573d90620010878262000f44565b9162001097604051938462000f21565b82523d6000602084013e565b606090565b9035601e198236030181121562000ed457016020813591019167ffffffffffffffff821162000ed457813603831362000ed457565b908060209392818452848401376000828201840152601f01601f1916010190565b3590811515820362000ed457565b919082519283825260005b84811062001139575050826000602080949584010152601f8019910116010190565b60208183018101518483018201520162001117565b903590601e198136030182121562000ed4570180359067ffffffffffffffff821162000ed45760200191813603831362000ed457565b6097546001600160a01b031633036200119957565b606460405162461bcd60e51b815260206004820152602060248201527f4f776e61626c653a2063616c6c6572206973206e6f7420746865206f776e65726044820152fd5b609780546001600160a01b039283166001600160a01b0319821681179092559091167f8be0079c531659141344cd1fd0a4f28419497f9722a3daafe3b4186f6b6457e0600080a3565b156200122e57565b60405162461bcd60e51b815260206004820152602b60248201527f496e697469616c697a61626c653a20636f6e7472616374206973206e6f74206960448201526a6e697469616c697a696e6760a81b6064820152608490fd5b803b15620012be57600080516020620017d383398151915280546001600160a01b0319166001600160a01b03909216919091179055565b60405162461bcd60e51b815260206004820152602d60248201527f455243313936373a206e657720696d706c656d656e746174696f6e206973206e60448201526c1bdd08184818dbdb9d1c9858dd609a1b6064820152608490fd5b919290156200137e57508151156200132f575090565b3b15620013395790565b60405162461bcd60e51b815260206004820152601d60248201527f416464726573733a2063616c6c20746f206e6f6e2d636f6e74726163740000006044820152606490fd5b825190915015620013925750805190602001fd5b60405162461bcd60e51b815260206004820152908190620013b89060248301906200110c565b0390fdfe604060808152610416908138038061001681610218565b93843982019181818403126102135780516001600160a01b038116808203610213576020838101516001600160401b0394919391858211610213570186601f820112156102135780519061007161006c83610253565b610218565b918083528583019886828401011161021357888661008f930161026e565b813b156101b9577f360894a13ba1a3210667c828492db98dca3e2076cc3735a920a3ca505d382bbc80546001600160a01b031916841790556000927fbc7cd75a20ee27fd9adebab32041f755214dbc6bffa90cc0225b39da2e5c2d3b8480a28051158015906101b2575b61010b575b855160d190816103458239f35b855194606086019081118682101761019e578697849283926101889952602788527f416464726573733a206c6f772d6c6576656c2064656c65676174652063616c6c87890152660819985a5b195960ca1b8a8901525190845af4913d15610194573d9061017a61006c83610253565b91825281943d92013e610291565b508038808080806100fe565b5060609250610291565b634e487b7160e01b84526041600452602484fd5b50826100f9565b855162461bcd60e51b815260048101859052602d60248201527f455243313936373a206e657720696d706c656d656e746174696f6e206973206e60448201526c1bdd08184818dbdb9d1c9858dd609a1b6064820152608490fd5b600080fd5b6040519190601f01601f191682016001600160401b0381118382101761023d57604052565b634e487b7160e01b600052604160045260246000fd5b6001600160401b03811161023d57601f01601f191660200190565b60005b8381106102815750506000910152565b8181015183820152602001610271565b919290156102f357508151156102a5575090565b3b156102ae5790565b60405162461bcd60e51b815260206004820152601d60248201527f416464726573733a2063616c6c20746f206e6f6e2d636f6e74726163740000006044820152606490fd5b8251909150156103065750805190602001fd5b6044604051809262461bcd60e51b825260206004830152610336815180928160248601526020868601910161026e565b601f01601f19168101030190fdfe608060405236156054577f360894a13ba1a3210667c828492db98dca3e2076cc3735a920a3ca505d382bbc54600090819081906001600160a01b0316368280378136915af43d82803e156050573d90f35b3d90fd5b7f360894a13ba1a3210667c828492db98dca3e2076cc3735a920a3ca505d382bbc54600090819081906001600160a01b0316368280378136915af43d82803e156050573d90f3fea264697066735822122030ade24792416a57d4529afbb56817b4411c22cc00ef8c3e8e9dd6ea015f4e2564736f6c63430008160033360894a13ba1a3210667c828492db98dca3e2076cc3735a920a3ca505d382bbca2646970667358221220264a2d47d198bcd2ee5e56b0a18eda483b5be511a0de08d508b7d4a09fe3185d64736f6c63430008160033",
  "linkReferences": {},
  "deployedLinkReferences": {}
}