{
  "_format": "hh-sol-artifact-1",
  "contractName": "TokenFactory_v3",
  "sourceName": "src/contracts/TokenFactory_v3.sol",
  "abi": [
    {
      "inputs": [],
      "stateMutability": "nonpayable",
      "type": "constructor"
    },
    {
      "anonymous": false,
      "inputs": [
        {
          "indexed": true,
          "internalType": "address",
          "name": "user",
          "type": "address"
        },
        {
          "indexed": false,
          "internalType": "uint256",
          "name": "fee",
          "type": "uint256"
        }
      ],
      "name": "CustomDeploymentFeeSet",
      "type": "event"
    },
    {
      "anonymous": false,
      "inputs": [
        {
          "indexed": false,
          "internalType": "uint256",
          "name": "newFee",
          "type": "uint256"
        }
      ],
      "name": "DeploymentFeeUpdated",
      "type": "event"
    },
    {
      "anonymous": false,
      "inputs": [
        {
          "indexed": true,
          "internalType": "address",
          "name": "previousOwner",
          "type": "address"
        },
        {
          "indexed": true,
          "internalType": "address",
          "name": "newOwner",
          "type": "address"
        }
      ],
      "name": "OwnershipTransferred",
      "type": "event"
    },
    {
      "anonymous": false,
      "inputs": [
        {
          "indexed": true,
          "internalType": "address",
          "name": "tokenAddress",
          "type": "address"
        },
        {
          "indexed": true,
          "internalType": "address",
          "name": "creator",
          "type": "address"
        },
        {
          "indexed": false,
          "internalType": "string",
          "name": "name",
          "type": "string"
        },
        {
          "indexed": false,
          "internalType": "string",
          "name": "symbol",
          "type": "string"
        }
      ],
      "name": "TokenCreated",
      "type": "event"
    },
    {
      "inputs": [],
      "name": "VERSION",
      "outputs": [
        {
          "internalType": "string",
          "name": "",
          "type": "string"
        }
      ],
      "stateMutability": "view",
      "type": "function"
    },
    {
      "inputs": [
        {
          "components": [
            {
              "internalType": "string",
              "name": "name",
              "type": "string"
            },
            {
              "internalType": "string",
              "name": "symbol",
              "type": "string"
            },
            {
              "internalType": "uint256",
              "name": "initialSupply",
              "type": "uint256"
            },
            {
              "internalType": "uint256",
              "name": "maxSupply",
              "type": "uint256"
            },
            {
              "internalType": "address",
              "name": "owner",
              "type": "address"
            },
            {
              "internalType": "bool",
              "name": "enableBlacklist",
              "type": "bool"
            },
            {
              "internalType": "bool",
              "name": "enableTimeLock",
              "type": "bool"
            },
            {
              "internalType": "uint256",
              "name": "presaleRate",
              "type": "uint256"
            },
            {
              "internalType": "uint256",
              "name": "softCap",
              "type": "uint256"
            },
            {
              "internalType": "uint256",
              "name": "hardCap",
              "type": "uint256"
            },
            {
              "internalType": "uint256",
              "name": "minContribution",
              "type": "uint256"
            },
            {
              "internalType": "uint256",
              "name": "maxContribution",
              "type": "uint256"
            },
            {
              "internalType": "uint256",
              "name": "startTime",
              "type": "uint256"
            },
            {
              "internalType": "uint256",
              "name": "endTime",
              "type": "uint256"
            },
            {
              "internalType": "uint256",
              "name": "presalePercentage",
              "type": "uint256"
            },
            {
              "internalType": "uint256",
              "name": "liquidityPercentage",
              "type": "uint256"
            },
            {
              "internalType": "uint256",
              "name": "liquidityLockDuration",
              "type": "uint256"
            },
            {
              "components": [
                {
                  "internalType": "address",
                  "name": "wallet",
                  "type": "address"
                },
                {
                  "internalType": "uint256",
                  "name": "percentage",
                  "type": "uint256"
                },
                {
                  "internalType": "bool",
                  "name": "vestingEnabled",
                  "type": "bool"
                },
                {
                  "internalType": "uint256",
                  "name": "vestingDuration",
                  "type": "uint256"
                },
                {
                  "internalType": "uint256",
                  "name": "cliffDuration",
                  "type": "uint256"
                },
                {
                  "internalType": "uint256",
                  "name": "vestingStartTime",
                  "type": "uint256"
                }
              ],
              "internalType": "struct TokenTemplate_v3.WalletAllocation[]",
              "name": "walletAllocations",
              "type": "tuple[]"
            },
            {
              "internalType": "uint256",
              "name": "maxActivePresales",
              "type": "uint256"
            },
            {
              "internalType": "bool",
              "name": "presaleEnabled",
              "type": "bool"
            }
          ],
          "internalType": "struct TokenTemplate_v3.InitParams",
          "name": "params",
          "type": "tuple"
        }
      ],
      "name": "createToken",
      "outputs": [
        {
          "internalType": "address",
          "name": "",
          "type": "address"
        }
      ],
      "stateMutability": "payable",
      "type": "function"
    },
    {
      "inputs": [
        {
          "internalType": "address",
          "name": "",
          "type": "address"
        }
      ],
      "name": "customDeploymentFees",
      "outputs": [
        {
          "internalType": "uint256",
          "name": "",
          "type": "uint256"
        }
      ],
      "stateMutability": "view",
      "type": "function"
    },
    {
      "inputs": [
        {
          "internalType": "uint256",
          "name": "",
          "type": "uint256"
        }
      ],
      "name": "deployedTokens",
      "outputs": [
        {
          "internalType": "address",
          "name": "",
          "type": "address"
        }
      ],
      "stateMutability": "view",
      "type": "function"
    },
    {
      "inputs": [],
      "name": "deploymentFee",
      "outputs": [
        {
          "internalType": "uint256",
          "name": "",
          "type": "uint256"
        }
      ],
      "stateMutability": "view",
      "type": "function"
    },
    {
      "inputs": [
        {
          "internalType": "address",
          "name": "user",
          "type": "address"
        }
      ],
      "name": "getDeploymentFee",
      "outputs": [
        {
          "internalType": "uint256",
          "name": "",
          "type": "uint256"
        }
      ],
      "stateMutability": "view",
      "type": "function"
    },
    {
      "inputs": [
        {
          "internalType": "address",
          "name": "token",
          "type": "address"
        }
      ],
      "name": "getTokenCreator",
      "outputs": [
        {
          "internalType": "address",
          "name": "",
          "type": "address"
        }
      ],
      "stateMutability": "view",
      "type": "function"
    },
    {
      "inputs": [
        {
          "internalType": "address",
          "name": "user",
          "type": "address"
        }
      ],
      "name": "getUserCreatedTokens",
      "outputs": [
        {
          "internalType": "address[]",
          "name": "",
          "type": "address[]"
        }
      ],
      "stateMutability": "view",
      "type": "function"
    },
    {
      "inputs": [
        {
          "internalType": "address",
          "name": "user",
          "type": "address"
        }
      ],
      "name": "getUserTokenCount",
      "outputs": [
        {
          "internalType": "uint256",
          "name": "",
          "type": "uint256"
        }
      ],
      "stateMutability": "view",
      "type": "function"
    },
    {
      "inputs": [
        {
          "internalType": "address",
          "name": "user",
          "type": "address"
        },
        {
          "internalType": "address",
          "name": "token",
          "type": "address"
        }
      ],
      "name": "isTokenCreator",
      "outputs": [
        {
          "internalType": "bool",
          "name": "",
          "type": "bool"
        }
      ],
      "stateMutability": "view",
      "type": "function"
    },
    {
      "inputs": [],
      "name": "owner",
      "outputs": [
        {
          "internalType": "address",
          "name": "",
          "type": "address"
        }
      ],
      "stateMutability": "view",
      "type": "function"
    },
    {
      "inputs": [],
      "name": "renounceOwnership",
      "outputs": [],
      "stateMutability": "nonpayable",
      "type": "function"
    },
    {
      "inputs": [
        {
          "internalType": "address",
          "name": "user",
          "type": "address"
        },
        {
          "internalType": "uint256",
          "name": "fee",
          "type": "uint256"
        }
      ],
      "name": "setCustomDeploymentFee",
      "outputs": [],
      "stateMutability": "nonpayable",
      "type": "function"
    },
    {
      "inputs": [
        {
          "internalType": "uint256",
          "name": "_fee",
          "type": "uint256"
        }
      ],
      "name": "setDeploymentFee",
      "outputs": [],
      "stateMutability": "nonpayable",
      "type": "function"
    },
    {
      "inputs": [
        {
          "internalType": "address",
          "name": "newOwner",
          "type": "address"
        }
      ],
      "name": "transferOwnership",
      "outputs": [],
      "stateMutability": "nonpayable",
      "type": "function"
    },
    {
      "inputs": [],
      "name": "withdrawFees",
      "outputs": [],
      "stateMutability": "nonpayable",
      "type": "function"
    }
  ],
  "bytecode": "0x60808060405234610037576100133361003c565b6001805566038d7ea4c6800060025561002b3361003c565b6143b390816100848239f35b600080fd5b600080546001600160a01b039283166001600160a01b03198216811783559216907f8be0079c531659141344cd1fd0a4f28419497f9722a3daafe3b4186f6b6457e09080a356fe608060405260043610156200001357600080fd5b6000803560e01c80631652da4214620011b9578063476343ee14620010f457806362acbf4b14620005ff578063715018a614620005a15780638da5cb5b1462000578578063ae6862ff1462000515578063b8a6f40214620004d8578063c00be1a0146200041f578063c05ddda814620003e2578063c78418b914620003a2578063cbf1208f1462000332578063d002462b14620002e0578063ec81aadb146200027d578063f2cff57f146200025d578063f2fde38b146200018b5763ffa1ad7414620000de57600080fd5b3462000188578060031936011262000188576040516040810181811067ffffffffffffffff821117620001725760405260058152602091640332e302e360dc1b602083015260405192839160208352835191826020850152815b8381106200015a57505060408094508284010152601f80199101168101030190f35b80860182015187820160400152869450810162000138565b634e487b7160e01b600052604160045260246000fd5b80fd5b5034620001885760203660031901126200018857620001a9620011eb565b620001b36200139d565b6001600160a01b039081169081156200020957600054826bffffffffffffffffffffffff60a01b821617600055167f8be0079c531659141344cd1fd0a4f28419497f9722a3daafe3b4186f6b6457e0600080a380f35b60405162461bcd60e51b815260206004820152602660248201527f4f776e61626c653a206e6577206f776e657220697320746865207a65726f206160448201526564647265737360d01b6064820152608490fd5b503462000188578060031936011262000188576020600254604051908152f35b5034620001885760203660031901126200018857600435600354811015620002dc5760036000527fc2575a0e9e593c00f959f8c92f12db2869c3395a3b0502d05e2516446f71f85b01546040516001600160a01b039091168152602090f35b5080fd5b50346200018857602036600319011262000188577f40bd824d588484917db8fa4fc894c1e0feae5a75885290ba7b97521cebf82a806020600435620003246200139d565b80600255604051908152a180f35b503462000188576040366003190112620001885762000350620011eb565b7f035250ff587e06567c2fa9d4b3191805958a937530b0e88cfce4c9c4dcdef1b3602060243592620003816200139d565b6001600160a01b03168085526007825260408086208590555193845292a280f35b50346200018857602036600319011262000188576020906001600160a01b039060409082620003d0620011eb565b16815260068452205416604051908152f35b50346200018857602036600319011262000188576020906040906001600160a01b036200040e620011eb565b168152600783522054604051908152f35b503462000188576020908160031936011262000188576001600160a01b039190826200044a620011eb565b168152600482526040812090604051808484549182815201908194845285842090845b818110620004c157505050816200048691038262001217565b6040519380850191818652518092526040850193925b828110620004aa5785850386f35b83518716855293810193928101926001016200049c565b82548916845292870192600192830192016200046d565b50346200018857602036600319011262000188576020906040906001600160a01b0362000504620011eb565b168152600483522054604051908152f35b503462000188576040366003190112620001885762000533620011eb565b6024356001600160a01b038181169391849003620005735760409216815260056020522090600052602052602060ff604060002054166040519015158152f35b600080fd5b50346200018857806003193601126200018857546040516001600160a01b039091168152602090f35b50346200018857806003193601126200018857620005be6200139d565b600080546001600160a01b0319811682556001600160a01b03167f8be0079c531659141344cd1fd0a4f28419497f9722a3daafe3b4186f6b6457e08280a380f35b50600319602036820112620002dc5767ffffffffffffffff60043511620002dc5761028090600435360301126200018857600260015414620010af5760026001556200064b336200123a565b8034106200106a57348134031162001056576200066e6102646004350162001287565b62000fb1575b6101e460043501351562000f6d57620006936102646004350162001287565b1562000f6257620006b56101c460043501355b6101e460043501359062001295565b91620006cd61022460043501600435600401620012b9565b15905062000ee45780925b620006ef61022460043501600435600401620012b9565b9050841015620009c7576200071c846200071561022460043501600435600401620012b9565b90620012f2565b356001600160a01b03811690819003620009c357156200097e57602062000754856200071561022460043501600435600401620012b9565b01351562000939576200078560406200077e866200071561022460043501600435600401620012b9565b0162001287565b620007c2575b620007b96001916020620007b0876200071561022460043501600435600401620012b9565b01359062001295565b930192620006d8565b620007d961022460043501600435600401620012b9565b90620007ea866060938493620012f2565b013515620008f45760a062000810866200071561022460043501600435600401620012b9565b013515620008af57608062000836866200071561022460043501600435600401620012b9565b01359062000855866200071561022460043501600435600401620012b9565b013510156200078b5760405162461bcd60e51b815260206004820152602360248201527f436c6966662063616e6e6f74206265206c6f6e676572207468616e2076657374604482015262696e6760e81b6064820152608490fd5b60405162461bcd60e51b815260206004820152601e60248201527f56657374696e672073746172742074696d65206d757374206265203e203000006044820152606490fd5b60405162461bcd60e51b815260206004820152601c60248201527f56657374696e67206475726174696f6e206d757374206265203e2030000000006044820152606490fd5b60405162461bcd60e51b815260206004820152601d60248201527f57616c6c65742070657263656e74616765206d757374206265203e20300000006044820152606490fd5b60405162461bcd60e51b815260206004820152601d60248201527f57616c6c657420616464726573732063616e6e6f74206265207a65726f0000006044820152606490fd5b8280fd5b6064919293505b0362000e9f57604051612f878082019082821067ffffffffffffffff83111762000e8b57908291620013f78339039082f091821562000e7e576001600160a01b0383163b15620002dc5760405190633192cbe360e21b82526020600483015262000a8862000a5f62000a4b60043560040160043560040162001303565b61028060248701526102a486019162001338565b62000a7560246004350160043560040162001303565b8583036023190160448701529062001338565b60446004350135606484015260646004350135608484015260018060a01b0362000ab760846004350162001202565b1660a484015262000acd60a46004350162001359565b151560c484015262000ae460c46004350162001359565b151560e484015261010460e4600435013581850152610124906004350135818501526101449060043501358185015261016490600435013581850152610184906004350135818501526101a4906004350135818501526101c49060043501358185015260043501356101e48401526102046101e46004350135818501526004350135610224840152610224600435013560221960043536030181121562000e7a57600435019067ffffffffffffffff60048301351162000e7a5760c06004830135023603602483011362000e7a5791839160208694602319858203016102448601526004830135815201906024810190855b6004820135811062000e0057505050828091610244600435013561026483015262000c076102646004350162001359565b1515610284830152039134036001600160a01b0388165af1801562000df55762000dc7575b5090600354916801000000000000000092838110156200017257600181018060035581101562000db15760036000527fc2575a0e9e593c00f959f8c92f12db2869c3395a3b0502d05e2516446f71f85b0180546001600160a01b03199081166001600160a01b038516179091553382526004602052604082208054949192909185101562000172576001850180835585101562000db15760009182526020808320909501805484166001600160a01b03861690811790915533808352600587526040808420838652885293849020805460ff1916600117905590825260068652919020805490921617905562000d2760048035018062001367565b7fd5d05a8421149c74fd223cfc823befb883babf9bf0b0e4d6bf9c8fdb70e59bb462000d5e60246004350160043560040162001367565b93909262000d9862000d7e60405193849360408552604085019162001338565b8281038984015233966001600160a01b0389169662001338565b0390a3600180556040516001600160a01b039091168152f35b634e487b7160e01b600052603260045260246000fd5b67ffffffffffffffff811162000de1576040523862000c2c565b634e487b7160e01b82526041600452602482fd5b6040513d84823e3d90fd5b939550909350919060049060019060c09081906001600160a01b0362000e268962001202565b1681526020880135602082015262000e416040890162001359565b15156040820152606080890135908201526080808901359082015260a08089013590820152019501920186949291509287959362000bd6565b8480fd5b50604051903d90823e3d90fd5b634e487b7160e01b84526041600452602484fd5b60405162461bcd60e51b815260206004820152601c60248201527f546f74616c2070657263656e74616765206d75737420626520313030000000006044820152606490fd5b90916064810362000ef857606490620009ce565b608460405162461bcd60e51b815260206004820152604060248201527f50726573616c6520616e64206c6971756964697479206d75737420746f74616c60448201527f2031303025207768656e206e6f206164646974696f6e616c2077616c6c6574736064820152fd5b620006b582620006a6565b606460405162461bcd60e51b815260206004820152602060248201527f4c69717569646974792070657263656e74616765206d757374206265203e20306044820152fd5b6101c460043501351562001011576102446004350135620006745760405162461bcd60e51b815260206004820152601f60248201527f4d6178206163746976652070726573616c6573206d757374206265203e2030006044820152606490fd5b60405162461bcd60e51b815260206004820152601e60248201527f50726573616c652070657263656e74616765206d757374206265203e203000006044820152606490fd5b634e487b7160e01b82526011600452602482fd5b60405162461bcd60e51b815260206004820152601b60248201527f496e73756666696369656e74206465706c6f796d656e742066656500000000006044820152606490fd5b60405162461bcd60e51b815260206004820152601f60248201527f5265656e7472616e637947756172643a207265656e7472616e742063616c6c006044820152606490fd5b50346200018857806003193601126200018857620011116200139d565b8080808060018060a01b0381541647905af13d15620011b3573d67ffffffffffffffff81116200119f576040519062001155601f8201601f19166020018362001217565b81528260203d92013e5b15620011685780f35b60405162461bcd60e51b815260206004820152600f60248201526e151c985b9cd9995c8819985a5b1959608a1b6044820152606490fd5b634e487b7160e01b83526041600452602483fd5b6200115f565b50346200018857602036600319011262000188576020620011e3620011dd620011eb565b6200123a565b604051908152f35b600435906001600160a01b03821682036200057357565b35906001600160a01b03821682036200057357565b90601f8019910116810190811067ffffffffffffffff8211176200017257604052565b6001600160a01b03166000908152600760205260409020548015801590806200126e575b506200126b575060025490565b90565b90816200127e575b50386200125e565b90503862001276565b358015158103620005735790565b91908201809211620012a357565b634e487b7160e01b600052601160045260246000fd5b903590601e198136030182121562000573570180359067ffffffffffffffff821162000573576020019160c08202360383136200057357565b919081101562000db15760c0020190565b9035601e19823603018112156200057357016020813591019167ffffffffffffffff8211620005735781360383136200057357565b908060209392818452848401376000828201840152601f01601f1916010190565b359081151582036200057357565b903590601e198136030182121562000573570180359067ffffffffffffffff821162000573576020019181360383136200057357565b6000546001600160a01b03163303620013b257565b606460405162461bcd60e51b815260206004820152602060248201527f4f776e61626c653a2063616c6c6572206973206e6f7420746865206f776e65726044820152fdfe60c060409080825234620004b9576200001881620004be565b6000908181528251906200002c82620004be565b8282528051916001600160401b03808411620004a557600380546001958682811c92169586156200049a575b6020968784101462000486578190601f9384811162000433575b508790848311600114620003d0578a92620003c4575b505060001982851b1c191690871b1782555b8351928311620003b05760049384548781811c91168015620003a5575b87821014620003925790818386959493116200033b575b5086918411600114620002d4578893620002c8575b505082861b92600019911b1c19161781555b600580546001600160a81b0319811633600881811b610100600160a81b03169290921790935587516001600160a01b03969093909290911c86167f8be0079c531659141344cd1fd0a4f28419497f9722a3daafe3b4186f6b6457e08880a360065573d99d1c33f9fc3444f8101754abc46c52416550d1608081905263c45a015560e01b82529183828281865afa9182156200029a5784908793620002a4575b5087516315ab88c960e31b815292938390839082905afa9182156200029a5790868686959493829462000275575b50604493948a5198899687956364e329cb60e11b87523090870152166024850152165af19283156200026a579262000236575b505060a05251612a519081620005368239608051818181610dbc0152818161185101528181611b3f0152611ec4015260a0518181816119160152611be30152f35b6200025a9250803d1062000262575b620002518183620004f0565b81019062000514565b3880620001f5565b503d62000245565b8451903d90823e3d90fd5b604494506200029390873d89116200026257620002518183620004f0565b93620001c2565b87513d88823e3d90fd5b829350620002c190823d84116200026257620002518183620004f0565b9262000194565b015191503880620000e3565b858952868920889550929190601f1985168a5b8982821062000324575050851162000309575b50505050811b018155620000f5565b01519060f884600019921b161c1916905538808080620002fa565b8385015187558b98909601959384019301620002e7565b90919293508589528689208380870160051c82019289881062000388575b918a918897969594930160051c01915b82811062000379575050620000ce565b8b81558796508a910162000369565b9250819262000359565b634e487b7160e01b895260228652602489fd5b90607f1690620000b7565b634e487b7160e01b87526041600452602487fd5b01519050388062000088565b858b52888b208a94509190601f1984168c5b8b8282106200041c575050841162000403575b505050811b0182556200009a565b015160001983871b60f8161c19169055388080620003f5565b8385015186558d97909501949384019301620003e2565b909150848a52878a208480850160051c8201928a86106200047c575b918b91869594930160051c01915b8281106200046d57505062000072565b8c81558594508b91016200045d565b925081926200044f565b634e487b7160e01b89526022600452602489fd5b91607f169162000058565b634e487b7160e01b85526041600452602485fd5b600080fd5b602081019081106001600160401b03821117620004da57604052565b634e487b7160e01b600052604160045260246000fd5b601f909101601f19168101906001600160401b03821190821017620004da57604052565b90816020910312620004b957516001600160a01b0381168103620004b9579056fe608080604052600436101561001357600080fd5b60003560e01c908163048b87ba146120bc5750806304e86903146114d357806306fdde0314612014578063095ea7b314611fee578063143b237f14611fcb578063153b0d1e14611ef35780631694505e14611eae57806318160ddd14611e9057806323b872dd14611e58578063313ce56714611e3c5780633197cbb614611e1e57806332b47fac14611cc657806337ed2be614611adc578063384711cc146107695780633950935114611a8b5780633f4ba83a146119f75780633fd50eb81461198057806342966c681461196357806342f393811461194557806349bd5a5e146119005780634ae01d52146118e257806351c6590a1461181f5780635c975abb146117fc578063644fab74146116f25780636e1d1e571461155857806370a08231146116b8578063715018a61461165757806378e979251461163957806379cc6790146116095780638456cb59146115765780638bb1cde9146115585780638d3d65761461153a5780638da5cb5b1461150d5780638df40be8146114d3578063906a26e0146114b557806395d89b41146113d2578063a457c2d71461132b578063a9059cbb146112fa578063aaffadf3146112dc578063abd653d7146112be578063b8caa4aa146112a0578063bffb691d1461127d578063c64b2f8c146107c9578063cba4cbd3146107a3578063d5a73fdd14610769578063d5abeb011461074b578063dbed1e88146106f7578063dd62ed3e146106a6578063de8af79114610688578063e74f3fbb146103b0578063ea63fb2614610376578063f2fde38b146102e7578063fb86a404146102c95763fe575a871461027157600080fd5b346102c45760203660031901126102c45761028a6120d7565b60ff60085416806102a3575b6020906040519015158152f35b5060018060a01b03166000526019602052602060ff60406000205416610296565b600080fd5b346102c45760003660031901126102c4576020600b54604051908152f35b346102c45760203660031901126102c4576103006120d7565b61030861248f565b6001600160a01b0381161561032257610320906129bf565b005b60405162461bcd60e51b815260206004820152602660248201527f4f776e61626c653a206e6577206f776e657220697320746865207a65726f206160448201526564647265737360d01b6064820152608490fd5b346102c45760203660031901126102c4576001600160a01b036103976120d7565b1660005260186020526020604060002054604051908152f35b346102c45760003660031901126102c4576002806006541461064357600260065533600052601690602090601682526040600020541561060957600092600091601554925b8381106104a2575b50505050811561045e577f896e034966eaaf1adc54acc0f257056febbd300c9e47182cf761982cf1f5e4309033600052601781526040600020610441848254612284565b905561044e833330612582565b6040519283523392a26001600655005b6064906040519062461bcd60e51b82526004820152601c60248201527f4e6f20746f6b656e7320617661696c61626c6520746f20636c61696d000000006044820152fd5b6104ab8161214c565b50546001600160a01b03163314806105f3575b6104ca576001016103f5565b9250509192503360005260188084526104f660406000205460046104ed8561214c565b50015490612284565b42106105b75733600052835261051160406000205442612277565b61051a8261214c565b5060039081015490919081106105575750505033600052815261054c6040600020546017835260406000205490612277565b905b828080806103fd565b61057290610578929394336000528652604060002054612320565b9261214c565b5001549081156105a15761059b9133600052601784526040600020549104612277565b9061054e565b634e487b7160e01b600052601260045260246000fd5b606484846040519162461bcd60e51b8352600483015260248201527510db1a5999881c195c9a5bd9081b9bdd08195b99195960521b6044820152fd5b5060ff826106008361214c565b500154166104be565b60405162461bcd60e51b81526004810183905260126024820152714e6f20746f6b656e7320746f20636c61696d60701b6044820152606490fd5b60405162461bcd60e51b815260206004820152601f60248201527f5265656e7472616e637947756172643a207265656e7472616e742063616c6c006044820152606490fd5b346102c45760003660031901126102c4576020601054604051908152f35b346102c45760403660031901126102c4576106bf6120d7565b6106c76120ed565b9060018060a01b038091166000526001602052604060002091166000526020526020604060002054604051908152f35b346102c45760203660031901126102c4576107106120d7565b60ff60085460081c166000146107415760018060a01b0316600052601a60205260206040600020545b604051908152f35b5060206000610739565b346102c45760003660031901126102c4576020600754604051908152f35b346102c45760203660031901126102c4576001600160a01b0361078a6120d7565b1660005260166020526020604060002054604051908152f35b346102c45760003660031901126102c457602060ff60085460081c166040519015158152f35b6003196020368201126102c45767ffffffffffffffff9081600435116102c45761028090600435360301126102c4576002546112425761080d6004803501806122e0565b828193929311610d9557610822601b5461219d565b90601f918281116111e0575b50600082821160011461115c5781929394600092611151575b50508160011b916000199060031b1c191617601b555b6108716024600435016004356004016122e0565b90928111610d9557610884601c5461219d565b8281116110ef575b50600082821160011461106c57819293600092611061575b50508160011b916000199060031b1c191617601c555b606460043501356007556108d260a460043501612313565b151560ff6008549116908161ff006108ee60c460043501612313565b151560081b169161ffff19161717918260085560e460043501356009556101046004350135600a556101246004350135600b556101446004350135600c556101646004350135600d556101846004350135600e556101a46004350135600f556101c460043501356010556101e460043501356011556102046004350135601255610244600435013560135561098861026460043501612313565b151560ff801960145416911617601455301561101d575060ff60055416610fc557610f3a575b60081c60ff16610eca575b6109cb60446004350135600254612284565b600255306000526000602052604060002060446004350135815401905560405160446004350135815260007fddf252ad1be2c89b69c2b068fc378daa952ba7f163c4a11628f55a4df523b3ef60203093a360446004350135600060ff60145416610e8f575b610a68610a62916064610a506101e4600435013560446004350135612320565b049283809281601d5581601e55612284565b93612277565b5034151580610e86575b610db2575b50610a8d61022460043501600435600401612333565b9050610b0e575b6044600435013503610ab657610320610ab1608460043501612379565b6129bf565b60405162461bcd60e51b815260206004820152602a60248201527f546f74616c20616c6c6f636174696f6e206d75737420657175616c20696e697460448201526969616c20737570706c7960b01b6064820152608490fd5b6000905b610b2761022460043501600435600401612333565b9050821015610dab57610b4f82610b4961022460043501600435600401612333565b90612369565b6015805468010000000000000000811015610d9557610b739160018201905561214c565b919091610d7f5760059060a0906001600160a01b03610b9182612379565b166bffffffffffffffffffffffff831b85541617845560208101356001850155610bd5610bc060408301612313565b600286019060ff801983541691151516179055565b60608101356003850155608081013560048501550135910155610c276064610c1f6020610c1186610b4961022460043501600435600401612333565b013560446004350135612320565b048092612284565b91604460043501358311610d2a57600191610c5c6040610c5684610b4961022460043501600435600401612333565b01612313565b15610cff5760a0610c7c83610b4961022460043501600435600401612333565b013582610cae610ca9610c9a61022460043501600435600401612333565b888060a09693961b0394612369565b612379565b16600052601860205260406000205581610ce8610ca9610cd961022460043501600435600401612333565b878060a09693961b0394612369565b1660005260166020526040600020555b0190610b12565b610d2590610d1f610ca984610b4961022460043501600435600401612333565b30612582565b610cf8565b60405162461bcd60e51b815260206004820152602760248201527f546f74616c20616c6c6f636174696f6e206578636565647320696e697469616c60448201526620737570706c7960c81b6064820152608490fd5b634e487b7160e01b600052600060045260246000fd5b634e487b7160e01b600052604160045260246000fd5b9050610a94565b6001600160a01b037f000000000000000000000000000000000000000000000000000000000000000081169190610dea82843061238d565b60055460081c169161012c420190814211610e7057610e24936060936040519586948593849363f305d71960e01b855230600486016122ac565b039134905af18015610e645715610a7757610e569060603d606011610e5d575b610e4e81836121d7565b810190612291565b5050610a77565b503d610e44565b6040513d6000823e3d90fd5b634e487b7160e01b600052601160045260246000fd5b50801515610a72565b50506064610eaa6101c4600435013560446004350135612320565b04610a62610a68610ec18360446004350135612277565b92915050610a30565b60008052601a6020527fb75ecc04ed35f89790e98640e901bda41eceff0cb896cf2765fb697680253750544210156109b95760405162461bcd60e51b8152602060048201526016602482015275151bdad95b9cc8185c99481d1a5b594b5b1bd8dad95960521b6044820152606490fd5b6000805260196020527fd2ac945fcc0096878c763e37d6929b78378c1a2defabde8ba7ee5ed1d6e7a5b25460ff161580610fb1575b6109ae5760405162461bcd60e51b81526020600482015260166024820152751059191c995cdcc81a5cc8189b1858dadb1a5cdd195960521b6044820152606490fd5b503060005260ff6040600020541615610f6f565b60405162461bcd60e51b815260206004820152602a60248201527f45524332305061757361626c653a20746f6b656e207472616e736665722077686044820152691a5b19481c185d5cd95960b21b6064820152608490fd5b6064906040519062461bcd60e51b82526020600483015260248201527f45524332303a206d696e7420746f20746865207a65726f2061646472657373006044820152fd5b0135905083806108a4565b601f19821693601c6000527f0e4562a10381dec21b205ed72637e6b1b523bdd0e4d4d50af5cd23dd4500a2119160005b8681106110d757508360019596106110bd575b505050811b01601c556108ba565b0135600019600384901b60f8161c191690558380806110af565b9092602060018192868601358155019401910161109c565b601c6000527f0e4562a10381dec21b205ed72637e6b1b523bdd0e4d4d50af5cd23dd4500a2118380840160051c82019260208510611148575b0160051c01905b81811061113c575061088c565b6000815560010161112f565b92508192611128565b013590508480610847565b601f19821694601b6000527f3ad8aa4f87544323a9d1e5dd902f40c356527a7955687113db5f9a85ad579dc19160005b8781106111c85750836001959697106111ae575b505050811b01601b5561085d565b0135600019600384901b60f8161c191690558480806111a0565b9092602060018192868601358155019401910161118c565b601b6000527f3ad8aa4f87544323a9d1e5dd902f40c356527a7955687113db5f9a85ad579dc18380840160051c82019260208510611239575b0160051c01905b81811061122d575061082e565b60008155600101611220565b92508192611219565b60405162461bcd60e51b8152602060048201526013602482015272105b1c9958591e481a5b9a5d1a585b1a5e9959606a1b6044820152606490fd5b346102c45760003660031901126102c457602060ff600854166040519015158152f35b346102c45760003660031901126102c4576020601354604051908152f35b346102c45760003660031901126102c4576020601d54604051908152f35b346102c45760003660031901126102c4576020600c54604051908152f35b346102c45760403660031901126102c4576113206113166120d7565b6024359033612582565b602060405160018152f35b346102c45760403660031901126102c4576113446120d7565b60243590336000526001602052604060002060018060a01b0382166000526020526040600020549180831061137f576113209203903361238d565b60405162461bcd60e51b815260206004820152602560248201527f45524332303a2064656372656173656420616c6c6f77616e63652062656c6f77604482015264207a65726f60d81b6064820152608490fd5b346102c45760003660031901126102c4576040516000601c546113f48161219d565b8084529060209060019081811690811561148b5750600114611431575b61142d85611421818703826121d7565b60405191829182612103565b0390f35b601c600090815293507f0e4562a10381dec21b205ed72637e6b1b523bdd0e4d4d50af5cd23dd4500a2115b838510611478575050505081016020016114218261142d611411565b805486860184015293820193810161145c565b86955061142d9693506020925061142194915060ff191682840152151560051b8201019293611411565b346102c45760003660031901126102c4576020600a54604051908152f35b346102c45760203660031901126102c4576001600160a01b036114f46120d7565b1660005260176020526020604060002054604051908152f35b346102c45760003660031901126102c45760055460405160089190911c6001600160a01b03168152602090f35b346102c45760003660031901126102c4576020600d54604051908152f35b346102c45760003660031901126102c4576020601e54604051908152f35b346102c45760003660031901126102c45761158f61248f565b60055460ff81166115d15760019060ff1916176005557f62e78cea01bee320cd4e420270b5ea74000d11b0c9f74754ebdbfc544b05a2586020604051338152a1005b60405162461bcd60e51b815260206004820152601060248201526f14185d5cd8589b194e881c185d5cd95960821b6044820152606490fd5b346102c45760403660031901126102c4576103206116256120d7565b602435906116348233836124ea565b6127d4565b346102c45760003660031901126102c4576020600e54604051908152f35b346102c45760003660031901126102c45761167061248f565b60058054610100600160a81b0319811690915560009060081c6001600160a01b03167f8be0079c531659141344cd1fd0a4f28419497f9722a3daafe3b4186f6b6457e08280a3005b346102c45760203660031901126102c4576001600160a01b036116d96120d7565b1660005260006020526020604060002054604051908152f35b346102c45760403660031901126102c45761170b6120d7565b6024359061171761248f565b60ff60085460081c16156117b757428211156117725760207fa9353e70f07f31e7f4e16464f45e189cbd22826780a5abe4da8303652a86960a9160018060a01b03169283600052601a825280604060002055604051908152a2005b60405162461bcd60e51b815260206004820152601d60248201527f556e6c6f636b2074696d65206d75737420626520696e206675747572650000006044820152606490fd5b60405162461bcd60e51b815260206004820152601860248201527f54696d65206c6f636b206973206e6f7420656e61626c656400000000000000006044820152606490fd5b346102c45760003660031901126102c457602060ff600554166040519015158152f35b60203660031901126102c4576004356118393415156121f9565b611844811515612235565b61184f813033612582565b7f00000000000000000000000000000000000000000000000000000000000000006001600160a01b03169061188581833061238d565b61012c4201804211610e705760405163f305d71960e01b8152926060928492839182916118b891339030600486016122ac565b039134905af18015610e64576118ca57005b6103209060603d606011610e5d57610e4e81836121d7565b346102c45760003660031901126102c4576020601254604051908152f35b346102c45760003660031901126102c4576040517f00000000000000000000000000000000000000000000000000000000000000006001600160a01b03168152602090f35b346102c45760003660031901126102c4576020600954604051908152f35b346102c45760203660031901126102c457610320600435336127d4565b346102c45760203660031901126102c4576004356015548110156102c4576119a960c09161214c565b5060018060a01b038154169060018101549060ff60028201541660038201549060056004840154930154936040519586526020860152151560408501526060840152608083015260a0820152f35b346102c45760003660031901126102c457611a1061248f565b60055460ff811615611a4f5760ff19166005557f5db9ee0a495bf2e6ff9c91a7834c1ba4fdd244a5e8aa4e537bd38aeae4b073aa6020604051338152a1005b60405162461bcd60e51b815260206004820152601460248201527314185d5cd8589b194e881b9bdd081c185d5cd95960621b6044820152606490fd5b346102c45760403660031901126102c457611320611aa76120d7565b336000526001602052604060002060018060a01b038216600052602052611ad5602435604060002054612284565b903361238d565b60203660031901126102c457600435611af361248f565b611afe3415156121f9565b611b09811515612235565b601e54808211611c6b573060005260006020528160406000205410611c265781611b3291612277565b601e556001600160a01b037f0000000000000000000000000000000000000000000000000000000000000000811690611b6c83833061238d565b61012c420191824211610e7057611b9e92606091604051808096819463f305d71960e01b8352338a30600486016122ac565b039134905af1908115610e64577fac1d76749e5447b7b16f5ab61447e1bd502f3bb4807af3b28e620d1700a6ee4592604092611c07575b5081519384523460208501527f00000000000000000000000000000000000000000000000000000000000000001692a2005b611c1f9060603d606011610e5d57610e4e81836121d7565b5050611bd5565b60405162461bcd60e51b815260206004820152601d60248201527f496e73756666696369656e7420636f6e74726163742062616c616e63650000006044820152606490fd5b60405162461bcd60e51b815260206004820152602d60248201527f416d6f756e7420657863656564732072656d61696e696e67206c69717569646960448201526c3a3c9030b63637b1b0ba34b7b760991b6064820152608490fd5b346102c45760003660031901126102c45760155467ffffffffffffffff90818111610d9557602090600560405191611d03848260051b01846121d7565b808352838301948560156000527f55f448fdea98c4d29eb340757ef0a66cd03dbb9538908a6a81d96026b71ec4756000915b848310611db457604080518981528851818b018190528b928201908b60005b828110611d615784840385f35b855180516001600160a01b031685528083015185840152604080820151151590860152606080820151908601526080808201519086015260a090810151908501529481019460c090930192600101611d54565b60405160c0810181811086821117610d95576001926006928b92604052848060a01b038654168152848601548382015260ff6002870154161515604082015260038601546060820152600486015460808201528986015460a0820152815201920192019190611d35565b346102c45760003660031901126102c4576020600f54604051908152f35b346102c45760003660031901126102c457602060405160128152f35b346102c45760603660031901126102c457611320611e746120d7565b611e7c6120ed565b60443591611e8b8333836124ea565b612582565b346102c45760003660031901126102c4576020600254604051908152f35b346102c45760003660031901126102c4576040517f00000000000000000000000000000000000000000000000000000000000000006001600160a01b03168152602090f35b346102c45760403660031901126102c457611f0c6120d7565b60243590811515908183036102c457611f2361248f565b60ff6008541615611f86577f6a12b3df6cba4203bd7fd06b816789f87de8c594299aed5717ae070fac781bac91611f7d60209260018060a01b031694856000526019845260406000209060ff801983541691151516179055565b604051908152a2005b60405162461bcd60e51b815260206004820152601860248201527f426c61636b6c697374206973206e6f7420656e61626c656400000000000000006044820152606490fd5b346102c45760003660031901126102c457602060ff601454166040519015158152f35b346102c45760403660031901126102c45761132061200a6120d7565b602435903361238d565b346102c45760003660031901126102c4576040516000601b546120368161219d565b8084529060209060019081811690811561148b57506001146120625761142d85611421818703826121d7565b601b600090815293507f3ad8aa4f87544323a9d1e5dd902f40c356527a7955687113db5f9a85ad579dc15b8385106120a9575050505081016020016114218261142d611411565b805486860184015293820193810161208d565b346102c45760003660031901126102c4576020906011548152f35b600435906001600160a01b03821682036102c457565b602435906001600160a01b03821682036102c457565b6020808252825181830181905290939260005b82811061213857505060409293506000838284010152601f8019910116010190565b818101860151848201604001528501612116565b601554811015612187576006906015600052027f55f448fdea98c4d29eb340757ef0a66cd03dbb9538908a6a81d96026b71ec4750190600090565b634e487b7160e01b600052603260045260246000fd5b90600182811c921680156121cd575b60208310146121b757565b634e487b7160e01b600052602260045260246000fd5b91607f16916121ac565b90601f8019910116810190811067ffffffffffffffff821117610d9557604052565b1561220057565b60405162461bcd60e51b815260206004820152600d60248201526c09aeae6e840e6cadcc8408aa89609b1b6044820152606490fd5b1561223c57565b60405162461bcd60e51b81526020600482015260136024820152724d7573742070726f7669646520746f6b656e7360681b6044820152606490fd5b91908203918211610e7057565b91908201809211610e7057565b908160609103126102c4578051916040602083015192015190565b9060a09295949360c0830196600180861b038093168452602084015260006040840152600060608401521660808201520152565b903590601e19813603018212156102c4570180359067ffffffffffffffff82116102c4576020019181360383136102c457565b3580151581036102c45790565b81810292918115918404141715610e7057565b903590601e19813603018212156102c4570180359067ffffffffffffffff82116102c4576020019160c08202360383136102c457565b91908110156121875760c0020190565b356001600160a01b03811681036102c45790565b6001600160a01b0390811691821561243e57169182156123ee5760207f8c5be1e5ebec7d5bd14f71427d1e84f3dd0314c0f7b2291e5b200ac8c7c3b925918360005260018252604060002085600052825280604060002055604051908152a3565b60405162461bcd60e51b815260206004820152602260248201527f45524332303a20617070726f766520746f20746865207a65726f206164647265604482015261737360f01b6064820152608490fd5b60405162461bcd60e51b8152602060048201526024808201527f45524332303a20617070726f76652066726f6d20746865207a65726f206164646044820152637265737360e01b6064820152608490fd5b60055460081c6001600160a01b031633036124a657565b606460405162461bcd60e51b815260206004820152602060248201527f4f776e61626c653a2063616c6c6572206973206e6f7420746865206f776e65726044820152fd5b9060018060a01b0380831660005260016020526040600020908216600052602052604060002054926000198403612522575b50505050565b80841061253d5761253493039161238d565b3880808061251c565b60405162461bcd60e51b815260206004820152601d60248201527f45524332303a20696e73756666696369656e7420616c6c6f77616e63650000006044820152606490fd5b6001600160a01b0390811691821561278157169182156127305760ff60055416610fc55760085460ff81166126c1575b60081c60ff1661266d575b60008281528060205260408120549180831061261957604082827fddf252ad1be2c89b69c2b068fc378daa952ba7f163c4a11628f55a4df523b3ef958760209652828652038282205586815220818154019055604051908152a3565b60405162461bcd60e51b815260206004820152602660248201527f45524332303a207472616e7366657220616d6f756e7420657863656564732062604482015265616c616e636560d01b6064820152608490fd5b81600052601a6020526040600020544210156125bd5760405162461bcd60e51b8152602060048201526016602482015275151bdad95b9cc8185c99481d1a5b594b5b1bd8dad95960521b6044820152606490fd5b82600052601960205260ff60406000205416158061271c575b6125b25760405162461bcd60e51b81526020600482015260166024820152751059191c995cdcc81a5cc8189b1858dadb1a5cdd195960521b6044820152606490fd5b508360005260ff60406000205416156126da565b60405162461bcd60e51b815260206004820152602360248201527f45524332303a207472616e7366657220746f20746865207a65726f206164647260448201526265737360e81b6064820152608490fd5b60405162461bcd60e51b815260206004820152602560248201527f45524332303a207472616e736665722066726f6d20746865207a65726f206164604482015264647265737360d81b6064820152608490fd5b6001600160a01b031680156129705760ff60055416610fc55760085460ff8116612901575b60081c60ff166128ad575b60009181835282602052604083205481811061285d57817fddf252ad1be2c89b69c2b068fc378daa952ba7f163c4a11628f55a4df523b3ef926020928587528684520360408620558060025403600255604051908152a3565b60405162461bcd60e51b815260206004820152602260248201527f45524332303a206275726e20616d6f756e7420657863656564732062616c616e604482015261636560f01b6064820152608490fd5b80600052601a6020526040600020544210156128045760405162461bcd60e51b8152602060048201526016602482015275151bdad95b9cc8185c99481d1a5b594b5b1bd8dad95960521b6044820152606490fd5b81600052601960205260ff60406000205416158061295c575b6127f95760405162461bcd60e51b81526020600482015260166024820152751059191c995cdcc81a5cc8189b1858dadb1a5cdd195960521b6044820152606490fd5b506000805260ff604060002054161561291a565b60405162461bcd60e51b815260206004820152602160248201527f45524332303a206275726e2066726f6d20746865207a65726f206164647265736044820152607360f81b6064820152608490fd5b60058054610100600160a81b03198116600884811b610100600160a81b0316919091179092556001600160a01b0392831692911c167f8be0079c531659141344cd1fd0a4f28419497f9722a3daafe3b4186f6b6457e0600080a356fea2646970667358221220a95b4f04633ade9f0d2369ce176a1d1dfa1879665544ff80ef628dcf39a92ab464736f6c63430008160033a26469706673582212204470afdbaebc15f07868144f68ed1b6b2550107ecd1200996029eee956a0594564736f6c63430008160033",
  "linkReferences": {},
  "deployedLinkReferences": {}
}