{
  "_format": "hh-sol-artifact-1",
  "contractName": "V4FactoryWithLiquidityFixedV7",
  "sourceName": "contracts/V4FactoryWithLiquidityFixedV7.sol",
  "abi": [
    {
      "inputs": [
        {
          "internalType": "address",
          "name": "owner_",
          "type": "address"
        },
        {
          "internalType": "address",
          "name": "tokenImpl_",
          "type": "address"
        },
        {
          "internalType": "address",
          "name": "securityModuleImpl_",
          "type": "address"
        },
        {
          "internalType": "address",
          "name": "distributionModuleImpl_",
          "type": "address"
        },
        {
          "internalType": "address",
          "name": "liquidityModuleImpl_",
          "type": "address"
        }
      ],
      "stateMutability": "nonpayable",
      "type": "constructor"
    },
    {
      "anonymous": false,
      "inputs": [
        {
          "indexed": false,
          "internalType": "string",
          "name": "error",
          "type": "string"
        },
        {
          "indexed": false,
          "internalType": "address",
          "name": "sender",
          "type": "address"
        }
      ],
      "name": "DeploymentError",
      "type": "event"
    },
    {
      "anonymous": false,
      "inputs": [
        {
          "indexed": false,
          "internalType": "string",
          "name": "message",
          "type": "string"
        },
        {
          "indexed": true,
          "internalType": "address",
          "name": "target",
          "type": "address"
        }
      ],
      "name": "DeploymentInfo",
      "type": "event"
    },
    {
      "anonymous": false,
      "inputs": [
        {
          "indexed": true,
          "internalType": "address",
          "name": "previousOwner",
          "type": "address"
        },
        {
          "indexed": true,
          "internalType": "address",
          "name": "newOwner",
          "type": "address"
        }
      ],
      "name": "OwnershipTransferred",
      "type": "event"
    },
    {
      "anonymous": false,
      "inputs": [
        {
          "indexed": true,
          "internalType": "address",
          "name": "tokenAddress",
          "type": "address"
        },
        {
          "indexed": false,
          "internalType": "string",
          "name": "name",
          "type": "string"
        },
        {
          "indexed": false,
          "internalType": "string",
          "name": "symbol",
          "type": "string"
        },
        {
          "indexed": true,
          "internalType": "address",
          "name": "owner",
          "type": "address"
        }
      ],
      "name": "TokenCreated",
      "type": "event"
    },
    {
      "inputs": [
        {
          "internalType": "string",
          "name": "name",
          "type": "string"
        },
        {
          "internalType": "string",
          "name": "symbol",
          "type": "string"
        },
        {
          "internalType": "uint256",
          "name": "initialSupply",
          "type": "uint256"
        },
        {
          "internalType": "address",
          "name": "owner",
          "type": "address"
        }
      ],
      "name": "createToken",
      "outputs": [
        {
          "internalType": "address",
          "name": "tokenAddress",
          "type": "address"
        }
      ],
      "stateMutability": "nonpayable",
      "type": "function"
    },
    {
      "inputs": [
        {
          "internalType": "string",
          "name": "name",
          "type": "string"
        },
        {
          "internalType": "string",
          "name": "symbol",
          "type": "string"
        },
        {
          "internalType": "uint256",
          "name": "initialSupply",
          "type": "uint256"
        },
        {
          "internalType": "address",
          "name": "owner",
          "type": "address"
        }
      ],
      "name": "createTokenBasic",
      "outputs": [
        {
          "internalType": "address",
          "name": "tokenAddress",
          "type": "address"
        }
      ],
      "stateMutability": "nonpayable",
      "type": "function"
    },
    {
      "inputs": [
        {
          "internalType": "string",
          "name": "name",
          "type": "string"
        },
        {
          "internalType": "string",
          "name": "symbol",
          "type": "string"
        },
        {
          "internalType": "uint256",
          "name": "initialSupply",
          "type": "uint256"
        },
        {
          "internalType": "address",
          "name": "owner",
          "type": "address"
        },
        {
          "internalType": "bool",
          "name": "includeDistribution",
          "type": "bool"
        }
      ],
      "name": "createTokenForWeb",
      "outputs": [
        {
          "internalType": "address",
          "name": "tokenAddress",
          "type": "address"
        }
      ],
      "stateMutability": "nonpayable",
      "type": "function"
    },
    {
      "inputs": [
        {
          "internalType": "string",
          "name": "name",
          "type": "string"
        },
        {
          "internalType": "string",
          "name": "symbol",
          "type": "string"
        },
        {
          "internalType": "uint256",
          "name": "initialSupply",
          "type": "uint256"
        },
        {
          "internalType": "address",
          "name": "owner",
          "type": "address"
        },
        {
          "internalType": "bool",
          "name": "includeDistribution",
          "type": "bool"
        },
        {
          "components": [
            {
              "internalType": "address",
              "name": "wallet",
              "type": "address"
            },
            {
              "internalType": "uint256",
              "name": "percentage",
              "type": "uint256"
            },
            {
              "internalType": "string",
              "name": "label",
              "type": "string"
            },
            {
              "internalType": "bool",
              "name": "vesting",
              "type": "bool"
            },
            {
              "internalType": "uint256",
              "name": "vestingDuration",
              "type": "uint256"
            },
            {
              "internalType": "uint256",
              "name": "cliffDuration",
              "type": "uint256"
            }
          ],
          "internalType": "struct V4FactoryWithLiquidityFixedV6.WalletAllocation[]",
          "name": "walletAllocations",
          "type": "tuple[]"
        }
      ],
      "name": "createTokenWithDistribution",
      "outputs": [
        {
          "internalType": "address",
          "name": "tokenAddress",
          "type": "address"
        }
      ],
      "stateMutability": "nonpayable",
      "type": "function"
    },
    {
      "inputs": [],
      "name": "distributionModuleBeacon",
      "outputs": [
        {
          "internalType": "contract UpgradeableBeacon",
          "name": "",
          "type": "address"
        }
      ],
      "stateMutability": "view",
      "type": "function"
    },
    {
      "inputs": [],
      "name": "distributionModuleImplementation",
      "outputs": [
        {
          "internalType": "address",
          "name": "",
          "type": "address"
        }
      ],
      "stateMutability": "view",
      "type": "function"
    },
    {
      "inputs": [],
      "name": "getAddresses",
      "outputs": [
        {
          "internalType": "address",
          "name": "_tokenImpl",
          "type": "address"
        },
        {
          "internalType": "address",
          "name": "_securityModuleImpl",
          "type": "address"
        },
        {
          "internalType": "address",
          "name": "_distributionModuleImpl",
          "type": "address"
        },
        {
          "internalType": "address",
          "name": "_liquidityModuleImpl",
          "type": "address"
        },
        {
          "internalType": "address",
          "name": "_tokenBeacon",
          "type": "address"
        },
        {
          "internalType": "address",
          "name": "_securityModuleBeacon",
          "type": "address"
        },
        {
          "internalType": "address",
          "name": "_distributionModuleBeacon",
          "type": "address"
        },
        {
          "internalType": "address",
          "name": "_liquidityModuleBeacon",
          "type": "address"
        }
      ],
      "stateMutability": "view",
      "type": "function"
    },
    {
      "inputs": [],
      "name": "getAllTokens",
      "outputs": [
        {
          "internalType": "address[]",
          "name": "",
          "type": "address[]"
        }
      ],
      "stateMutability": "view",
      "type": "function"
    },
    {
      "inputs": [
        {
          "internalType": "address",
          "name": "user",
          "type": "address"
        }
      ],
      "name": "getUserCreatedTokens",
      "outputs": [
        {
          "internalType": "address[]",
          "name": "",
          "type": "address[]"
        }
      ],
      "stateMutability": "view",
      "type": "function"
    },
    {
      "inputs": [
        {
          "internalType": "address",
          "name": "user",
          "type": "address"
        }
      ],
      "name": "getUserTokens",
      "outputs": [
        {
          "internalType": "address[]",
          "name": "",
          "type": "address[]"
        }
      ],
      "stateMutability": "view",
      "type": "function"
    },
    {
      "inputs": [],
      "name": "lastError",
      "outputs": [
        {
          "internalType": "string",
          "name": "",
          "type": "string"
        }
      ],
      "stateMutability": "view",
      "type": "function"
    },
    {
      "inputs": [],
      "name": "liquidityModuleBeacon",
      "outputs": [
        {
          "internalType": "contract UpgradeableBeacon",
          "name": "",
          "type": "address"
        }
      ],
      "stateMutability": "view",
      "type": "function"
    },
    {
      "inputs": [],
      "name": "liquidityModuleImplementation",
      "outputs": [
        {
          "internalType": "address",
          "name": "",
          "type": "address"
        }
      ],
      "stateMutability": "view",
      "type": "function"
    },
    {
      "inputs": [],
      "name": "owner",
      "outputs": [
        {
          "internalType": "address",
          "name": "",
          "type": "address"
        }
      ],
      "stateMutability": "view",
      "type": "function"
    },
    {
      "inputs": [],
      "name": "renounceOwnership",
      "outputs": [],
      "stateMutability": "nonpayable",
      "type": "function"
    },
    {
      "inputs": [],
      "name": "securityModuleBeacon",
      "outputs": [
        {
          "internalType": "contract UpgradeableBeacon",
          "name": "",
          "type": "address"
        }
      ],
      "stateMutability": "view",
      "type": "function"
    },
    {
      "inputs": [],
      "name": "securityModuleImplementation",
      "outputs": [
        {
          "internalType": "address",
          "name": "",
          "type": "address"
        }
      ],
      "stateMutability": "view",
      "type": "function"
    },
    {
      "inputs": [
        {
          "internalType": "address",
          "name": "newDistributionModuleImpl",
          "type": "address"
        }
      ],
      "name": "setDistributionModuleImplementation",
      "outputs": [],
      "stateMutability": "nonpayable",
      "type": "function"
    },
    {
      "inputs": [
        {
          "internalType": "address",
          "name": "newLiquidityModuleImpl",
          "type": "address"
        }
      ],
      "name": "setLiquidityModuleImplementation",
      "outputs": [],
      "stateMutability": "nonpayable",
      "type": "function"
    },
    {
      "inputs": [
        {
          "internalType": "address",
          "name": "newSecurityModuleImpl",
          "type": "address"
        }
      ],
      "name": "setSecurityModuleImplementation",
      "outputs": [],
      "stateMutability": "nonpayable",
      "type": "function"
    },
    {
      "inputs": [
        {
          "internalType": "address",
          "name": "newTokenImpl",
          "type": "address"
        }
      ],
      "name": "setTokenImplementation",
      "outputs": [],
      "stateMutability": "nonpayable",
      "type": "function"
    },
    {
      "inputs": [],
      "name": "tokenBeacon",
      "outputs": [
        {
          "internalType": "contract UpgradeableBeacon",
          "name": "",
          "type": "address"
        }
      ],
      "stateMutability": "view",
      "type": "function"
    },
    {
      "inputs": [],
      "name": "tokenImplementation",
      "outputs": [
        {
          "internalType": "address",
          "name": "",
          "type": "address"
        }
      ],
      "stateMutability": "view",
      "type": "function"
    },
    {
      "inputs": [
        {
          "internalType": "address",
          "name": "newOwner",
          "type": "address"
        }
      ],
      "name": "transferOwnership",
      "outputs": [],
      "stateMutability": "nonpayable",
      "type": "function"
    }
  ],
  "bytecode": "0x6080346200053157601f6200516a38819003918201601f191683019260009290916001600160401b039190828611848710176200051d578160a092859260409889528339810103126200051957620000578262000560565b6020926200006784820162000560565b936200007587830162000560565b906200009260806200008a6060860162000560565b940162000560565b946200009e3362000575565b6001600160a01b03968716928315620004c157871693841562000457578716958615620003ed5787169586156200038357620000da8662000575565b60018060a01b0319948486600154161760015585600254161760025584600354161760035560049584875416178655885161045a9081810181811084821117620003535781859162004d10978589843981520301908af080156200036657881685600554161760055587600254168a519082820190828210858311176200037057859183918589843981520301908af080156200036657881685600654161760065587600354168a519082820190828210858311176200037057859183918589843981520301908af080156200036657881685600754161760075587875416908a51948186019386851090851117620003535790859392918439815203019086f0801562000349578416906008541617600855826005541692833b15620002f15785518581602481838663f2fde38b60e01b9889845216998a8a8401525af180156200030d5762000333575b508060065416803b15620003175785809160248951809481938883528a8a8401525af180156200030d579086916200031b575b50508060075416803b15620003175785809160248951809481938883528a8a8401525af180156200030d57908691620002f5575b505060085416803b15620002f157849291836024928851968795869485528401525af18015620002e757620002cc575b82516147539081620005bd8239f35b620002d8829162000536565b620002e45780620002bd565b80fd5b83513d84823e3d90fd5b8480fd5b620003009062000536565b620002f15784386200028d565b87513d88823e3d90fd5b8580fd5b620003269062000536565b620002f157843862000259565b620003419095919562000536565b933862000226565b86513d87823e3d90fd5b634e487b7160e01b8b526041895260248bfd5b8a513d8b823e3d90fd5b634e487b7160e01b8c5260418a5260248cfd5b895162461bcd60e51b815260048101849052603660248201527f4c6971756964697479206d6f64756c6520696d706c656d656e746174696f6e2060448201527f63616e6e6f74206265207a65726f2061646472657373000000000000000000006064820152608490fd5b895162461bcd60e51b815260048101849052603960248201527f446973747269627574696f6e206d6f64756c6520696d706c656d656e7461746960448201527f6f6e2063616e6e6f74206265207a65726f2061646472657373000000000000006064820152608490fd5b895162461bcd60e51b815260048101849052603560248201527f5365637572697479206d6f64756c6520696d706c656d656e746174696f6e206360448201527f616e6e6f74206265207a65726f206164647265737300000000000000000000006064820152608490fd5b895162461bcd60e51b815260048101849052602b60248201527f546f6b656e20696d706c656d656e746174696f6e2063616e6e6f74206265207a60448201526a65726f206164647265737360a81b6064820152608490fd5b8280fd5b634e487b7160e01b85526041600452602485fd5b600080fd5b6001600160401b0381116200054a57604052565b634e487b7160e01b600052604160045260246000fd5b51906001600160a01b03821682036200053157565b600080546001600160a01b039283166001600160a01b03198216811783559216907f8be0079c531659141344cd1fd0a4f28419497f9722a3daafe3b4186f6b6457e09080a356fe60a0806040526004803610156200001557600080fd5b600091823560e01c9081630edf632a1462000d90575080631c480db31462000d65578063203c61cf1462000c5d57806329f0de3f1462000b7a5780632a5c792a1462000ae35780632f3a3d5d1462000ab857806333aeb63c146200096357806334f359f91462000941578063519dc8d214620003865780635fdb2a0e146200073d578063715018a614620006df5780638008334c14620006b457806388282e2a14620005b65780638da5cb5b146200058d5780639651d0a814620005625780639ab10b7914620005375780639f591635146200050c578063a39fac121462000494578063bf2fb7c9146200038c578063c00be1a01462000386578063c39874711462000275578063ccf5a77c146200024a578063f2f68e3a14620002135763f2fde38b146200014357600080fd5b346200020f5760203660031901126200020f576200016062000db7565b6200016a620020ce565b6001600160a01b03908116918215620001bc5750600054826001600160601b0360a01b821617600055167f8be0079c531659141344cd1fd0a4f28419497f9722a3daafe3b4186f6b6457e0600080a380f35b60849060206040519162461bcd60e51b8352820152602660248201527f4f776e61626c653a206e6577206f776e657220697320746865207a65726f206160448201526564647265737360d01b6064820152fd5b5080fd5b823462000247576020620002356200022b3662000fb2565b9291909162001ded565b6040516001600160a01b039091168152f35b80fd5b823462000247578060031936011262000247576005546040516001600160a01b039091168152602090f35b50346200020f5760203660031901126200020f576200029362000db7565b6200029d620020ce565b6001600160a01b039081169081156200032357839060085416803b156200020f57818091602460405180948193631b2ce7f360e11b8352888a8401525af180156200031857620002fc575b505081546001600160a01b03191617905580f35b620003079062000e22565b62000314578238620002e8565b8280fd5b6040513d84823e3d90fd5b60405162461bcd60e51b8152602081850152603660248201527f4c6971756964697479206d6f64756c6520696d706c656d656e746174696f6e2060448201527563616e6e6f74206265207a65726f206164647265737360501b6064820152608490fd5b62001018565b50346200020f5760203660031901126200020f57620003aa62000db7565b90620003b5620020ce565b6001600160a01b0391821691821562000432579083916006541690813b1562000314578360248492836040519586948593631b2ce7f360e11b85528401525af1801562000318576200041a575b50506001600160601b0360a01b600254161760025580f35b620004259062000e22565b6200020f57813862000402565b60405162461bcd60e51b8152602081840152603560248201527f5365637572697479206d6f64756c6520696d706c656d656e746174696f6e2063604482015274616e6e6f74206265207a65726f206164647265737360581b6064820152608490fd5b50346200020f57816003193601126200020f576001546002546003549254600554600654600754600854604080516001600160a01b03988916815296881660208801529787169786019790975292851660608501529084166080840152831660a0830152821660c0820152911660e082015261010090f35b823462000247578060031936011262000247576003546040516001600160a01b039091168152602090f35b823462000247578060031936011262000247576007546040516001600160a01b039091168152602090f35b823462000247578060031936011262000247576006546040516001600160a01b039091168152602090f35b82346200024757806003193601126200024757546040516001600160a01b039091168152602090f35b50346200020f5760203660031901126200020f57620005d462000db7565b90620005df620020ce565b6001600160a01b039182169182156200065c579083916005541690813b1562000314578360248492836040519586948593631b2ce7f360e11b85528401525af18015620003185762000644575b50506001600160601b0360a01b600154161760015580f35b6200064f9062000e22565b6200020f5781386200062c565b60405162461bcd60e51b8152602081840152602b60248201527f546f6b656e20696d706c656d656e746174696f6e2063616e6e6f74206265207a60448201526a65726f206164647265737360a81b6064820152608490fd5b823462000247578060031936011262000247576002546040516001600160a01b039091168152602090f35b82346200024757806003193601126200024757620006fc620020ce565b600080546001600160a01b0319811682556001600160a01b03167f8be0079c531659141344cd1fd0a4f28419497f9722a3daafe3b4186f6b6457e08280a380f35b509034620002475760c0366003190112620002475781356001600160401b0381116200020f5762000772903690840162000f55565b6024356001600160401b038111620003145762000793903690850162000f55565b906200079e62000dce565b91620007a962000fa2565b936001600160401b0360a43511620002475736602360a43501121562000247576001600160401b0360a435870135116200092c5760405195620007f8602060a43583013560051b018862000e84565b60a4358181013580895260208901913660059290921b01602401116200031457602460a43501905b60a4358381013560051b01602401821062000849576020620002358a8a8a6044358a8c62002127565b8135906001600160401b038211620009285760c060a4358301360360231901126200092857604051916200087d8362000e4c565b60a4358101602401356001600160a01b03811681036200091f57835260a4358101604481013560208501526001600160401b03606490910135116200092457620008d53660a435830160648101350160240162000f55565b604084015260848160a4350101359182151583036200091f57606084019290925260a4803590910190810135608084015260c4013560a08301529081526020918201910162000820565b600080fd5b8580fd5b8480fd5b604186634e487b7160e01b6000525260246000fd5b82346200024757602062000235620009593662000fb2565b92919091620013f8565b50346200020f5760a08060031936011262000314576001600160401b0391803583811162000928576200099a903690830162000f55565b92602435908111620009285760209491620009b89136910162000f55565b90620009c362000dce565b90620009ce62000fa2565b60405192620009dd8462000e68565b60018452825b888082101562000a29576040518a9291620009fe8262000e4c565b8682528681830152866060806040850152830152866080830152868a830152828801015201620009e3565b898562000aaf8887878e8d60405162000a428162000e4c565b6001600160a01b03848116825260648a83015260405190989062000a668162000e68565b600581526427bbb732b960d91b8b820152604083015280606083015280608083015260a082015262000a98866200109f565b5262000aa4856200109f565b506044359162002127565b60405191168152f35b823462000247578060031936011262000247576001546040516001600160a01b039091168152602090f35b82346200024757806003193601126200024757604051600b80548083529083526020808301937f0175b7a638427703f0dbe7bb9bbf987a2551717b34e79f33b5b1008d1fa01db992915b82821062000b595762000b558562000b488189038262000e84565b6040519182918262000ef2565b0390f35b83546001600160a01b03168652948501946001938401939091019062000b2d565b823462000247578060031936011262000247576040519080826009549162000ba28362000de5565b928383526020946001918660018216918260001462000c3957505060011462000bec575b505062000bd69250038362000e84565b62000b5560405192828493845283019062000ecb565b9085925060098252600080516020620046fe8339815191525b85831062000c2057505062000bd69350820101858062000bc6565b8054838901850152879450869390920191810162000c05565b925093505062000bd694915060ff191682840152151560051b820101858062000bc6565b50903462000247576020366003190112620002475762000c7c62000db7565b9162000c87620020ce565b6001600160a01b0392831692831562000cfb576007541690813b1562000314578360248492836040519586948593631b2ce7f360e11b85528401525af18015620003185762000ce9575b50906001600160601b0360a01b600354161760035580f35b62000cf49062000e22565b3862000cd1565b60405162461bcd60e51b8152602081840152603960248201527f446973747269627574696f6e206d6f64756c6520696d706c656d656e7461746960448201527f6f6e2063616e6e6f74206265207a65726f2061646472657373000000000000006064820152608490fd5b823462000247578060031936011262000247576008546040516001600160a01b039091168152602090f35b919050346200031457826003193601126200031457546001600160a01b0316815260209150f35b600435906001600160a01b03821682036200091f57565b606435906001600160a01b03821682036200091f57565b90600182811c9216801562000e17575b602083101462000e0157565b634e487b7160e01b600052602260045260246000fd5b91607f169162000df5565b6001600160401b03811162000e3657604052565b634e487b7160e01b600052604160045260246000fd5b60c081019081106001600160401b0382111762000e3657604052565b604081019081106001600160401b0382111762000e3657604052565b90601f801991011681019081106001600160401b0382111762000e3657604052565b60005b83811062000eba5750506000910152565b818101518382015260200162000ea9565b9060209162000ee68151809281855285808601910162000ea6565b601f01601f1916010190565b602090602060408183019282815285518094520193019160005b82811062000f1b575050505090565b83516001600160a01b03168552938101939281019260010162000f0c565b6001600160401b03811162000e3657601f01601f191660200190565b81601f820112156200091f5780359062000f6f8262000f39565b9262000f7f604051948562000e84565b828452602083830101116200091f57816000926020809301838601378301015290565b6084359081151582036200091f57565b9060806003198301126200091f576001600160401b036004358181116200091f578362000fe29160040162000f55565b926024359182116200091f5762000ffc9160040162000f55565b90604435906064356001600160a01b03811681036200091f5790565b346200091f576020806003193601126200091f576001600160a01b03806200103f62000db7565b16600052600a6020526040600020916040518092602085549283815201946000526020600020926000915b838310620010855762000b558662000b48818a038262000e84565b84548116875295810195600194850194909201916200106a565b805115620010ad5760200190565b634e487b7160e01b600052603260045260246000fd5b92949390606092620010e2620010f19260808752608087019062000ecb565b90858203602087015262000ecb565b60408401959095526001600160a01b0316910152565b6001600160a01b0390911681526040602082018190526200112b9291019062000ecb565b90565b908160209103126200091f575180151581036200091f5790565b9091620011626200112b9360408452604084019062000ecb565b91602081840391015262000ecb565b601f81116200117d5750565b60006009600052601f600080516020620046fe833981519152920160051c8201915b828110620011ac57505050565b8181556001016200119f565b601f8111620011c5575050565b6000906009600052600080516020620046fe833981519152906020601f850160051c8301941062001213575b601f0160051c01915b8281106200120757505050565b818155600101620011fa565b9092508290620011f1565b601f81116200122a5750565b601f60009160096000520160051c600080516020620046fe83398151915201907f6e1540171b6c0c960b71a7020d9f60077f6af931a8bbf590da0223dacf75c7b15b8281106200127957505050565b8181556001016200126c565b60009060033d116200129357565b905060046000803e60005160e01c90565b600060443d106200112b57604051600319913d83016004833e81516001600160401b03918282113d60248401111762001307578184019485519384116200130f573d850101602084870101116200130757506200112b9291016020019062000e84565b949350505050565b50949350505050565b600954600092916200132a8262000de5565b808252916020906001908181169081156200139d57506001146200134f575b50505050565b929394506009600052600080516020620046fe833981519152926000935b8585106200138957505050602092500101903880808062001349565b80548585018401529382019381016200136d565b92505050602093945060ff929192191683830152151560051b0101903880808062001349565b3d15620013f3573d90620013d78262000f39565b91620013e7604051938462000e84565b82523d6000602084013e565b606090565b9390929192604091825190602094635e9d09fb60e11b86840152826200142682602499878c8c8601620010c3565b03936200143c601f199586810186528562000e84565b600554865160009a6001600160401b039690926001600160a01b0392610672928382018a81118382101762001dd9578f90928f936200148f8f9a99989796948392896200404c978a898739169062001107565b0391f08d816200170e575050505050505050505050620014ae62001285565b6308c379a0146200158d575b50506200158990600985620014ce620013c3565b50620014e5620014df835462000de5565b6200121e565b60458255527f556e6b6e6f776e206572726f72206372656174696e6720746f6b656e2070726f600080516020620046fe8339815191525561787960f01b7f6e1540171b6c0c960b71a7020d9f60077f6af931a8bbf590da0223dacf75c7b055600080516020620046be8339815191528151828152806200156784820162001318565b33878301520390a15192839262461bcd60e51b84526004840152820162001318565b0390fd5b62001597620012a4565b9182620015a55750620014ba565b909195620015fc603c855180997f4572726f72206372656174696e6720746f6b656e2070726f78793a200000000089830152620015eb815180928b868601910162000ea6565b810103601c81018a52018862000e84565b8651928311620016fb576200161e836200161860095462000de5565b620011b8565b8491601f841160011462001681575090620015899495968362001675575b50508160011b916000199060031b1c1916176009555b600080516020620046be8339815191528151828152806200156784820162001318565b0151905038806200163c565b839791971660098852600080516020620046fe833981519152975b818110620016e35750916200158995969791846001959410620016c9575b505050811b0160095562001652565b015160001960f88460031b161c19169055388080620016ba565b8383015189556001909801979286019286016200169c565b634e487b7160e01b815260416004528590fd5b6200174c86806200175994169b16998b8151918c85840152848352620017348362000e68565b5196879463347d5e2560e21b90860152840162001107565b038c810184528362000e84565b8360065416908c5193808501918583108d84111762001dc35791620017849391869593863962001107565b03908df0908c82620019cf578c8c8c8c8c6200179f62001285565b6308c379a0146200185c575b50506200158990600985620017bf620013c3565b50620017d0620014df835462000de5565b60598255527f556e6b6e6f776e206572726f72206372656174696e6720736563757269747920600080516020620046fe833981519152556b6d6f64756c652070726f787960a01b7f6e1540171b6c0c960b71a7020d9f60077f6af931a8bbf590da0223dacf75c7b055600080516020620046be8339815191528151828152806200156784820162001318565b62001866620012a4565b9182620018745750620017ab565b909195620018d96046855180997f4572726f72206372656174696e67207365637572697479206d6f64756c652070898301526503937bc3c9d160d51b88830152620018c8815180928b868601910162000ea6565b810103602681018a52018862000e84565b8651928311620016fb57620018f5836200161860095462000de5565b8491601f84116001146200195657509062001589949596836200194a5750508160011b916000199060031b1c191617600955600080516020620046be8339815191528151828152806200156784820162001318565b0151905086806200163c565b839791971660098852600080516020620046fe833981519152975b818110620019b757509162001589959697918460019594106200199d57505050811b0160095562001652565b015160001960f88460031b161c19169055868080620016ba565b83830151895560019098019792860192860162001971565b8b8b62001a0e92819f9d9e9c9e51918984840152838352620019f18362000e68565b518080958194630b74e9e360e21b8352888a166004840162001107565b03918b5af1908162001d8f575b5062001b80575050505050505062001a3262001285565b6308c379a01462001a48575b84513d87823e3d90fd5b62001a52620012a4565b938462001a60575062001a3e565b9085918762001ab060358551809974022b93937b91030b23234b7339036b7b23ab6329d1605d1b8983015262001a9f815180928b868601910162000ea6565b810103601581018a52018862000e84565b8651928311620016fb5762001acc836200161860095462000de5565b8491601f841160011462001b2157509062001589949596836200194a5750508160011b916000199060031b1c191617600955600080516020620046be8339815191528151828152806200156784820162001318565b839791971660098852600080516020620046fe833981519152975b81811062001b6857509162001589959697918460019594106200199d57505050811b0160095562001652565b83830151895560019098019792860192860162001b3c565b853b1562001d8b578b5163f2fde38b60e01b8152911660048201528b818a8183895af1908162001d75575b5062001d1557505050505062001bc062001285565b6308c379a01462001bd55784513d87823e3d90fd5b62001bdf620012a4565b938462001bed575062001a3e565b9085918762001c45603e855180997f4572726f72207472616e7366657272696e67206f776e6572736869703a2000008983015262001c34815180928b868601910162000ea6565b810103601e81018a52018862000e84565b8651928311620016fb5762001c61836200161860095462000de5565b8491601f841160011462001cb657509062001589949596836200194a5750508160011b916000199060031b1c191617600955600080516020620046be8339815191528151828152806200156784820162001318565b839791971660098852600080516020620046fe833981519152975b81811062001cfd57509162001589959697918460019594106200199d57505050811b0160095562001652565b83830151895560019098019792860192860162001cd1565b93995093509550958694507f6596c1670eb3390048d23721809c3da5d3f531375ac0e2cab0f77a808ed64331935062001d5390519283928362001148565b0390a362001d6d62001d6760095462000de5565b62001171565b600060095590565b62001d83909c919c62000e22565b9a3862001bab565b8c80fd5b62001db3908b3d8d1162001dbb575b62001daa818362000e84565b8101906200112e565b503862001a1b565b503d62001d9e565b5050508d8f634e487b7160e01b81526041600452fd5b50634e487b7160e01b8f5260416004528d8ffd5b92909391936040928351918262001e1985602099635e9d09fb60e11b8b850152848a60248601620010c3565b039562001e2f601f199788810186528562000e84565b60055486516001600160401b039690956001600160a01b039261067280890192909185168a84118a85101762000e3657899362001e72936200404c863962001107565b0360009687f0806200208c5750505050505062001e8e62001285565b6308c379a01462001f27575b848362001ea6620013c3565b5062001eb862001d6760095462000de5565b7f556e6b6e6f776e206572726f72206372656174696e6720746f6b656e000000386009558051818152600080516020620046be833981519152908062001f0081850162001318565b33868301520390a1519062461bcd60e51b8252600482015280620015896024820162001318565b62001f31620012a4565b8062001f3e575062001e9a565b62001f8b60368551809375022b93937b91031b932b0ba34b733903a37b5b2b71d160551b8a83015262001f7a815180928c868601910162000ea6565b810103601681018452018262000e84565b8051928311620020785762001fa7836200161860095462000de5565b8591601f84116001146200200557839495509262001ff9575b50508160011b916000199060031b1c1916176009555b600080516020620046be83398151915281518281528062001f0084820162001318565b01519050388062001fc0565b91909483169460098352600080516020620046fe833981519152925b878782106200206157505083600195961062002047575b505050811b0160095562001fd6565b015160001960f88460031b161c1916905538808062002038565b600184958293958501518155019401920162002021565b634e487b7160e01b82526041600452602482fd5b97519499509681169750909516948694507f6596c1670eb3390048d23721809c3da5d3f531375ac0e2cab0f77a808ed643319350829162001d53918362001148565b6000546001600160a01b03163303620020e357565b606460405162461bcd60e51b815260206004820152602060248201527f4f776e61626c653a2063616c6c6572206973206e6f7420746865206f776e65726044820152fd5b918395939162002138959362002268565b906001600160a01b03808316908162002152575b50505090565b600092168252600a6020526040822080546801000000000000000091828210156200223057600182018082558210156200221c5784526020842001926001600160601b0360a01b938385825416179055600b549182101562002208576001820180600b55821015620021f457600b90527f0175b7a638427703f0dbe7bb9bbf987a2551717b34e79f33b5b1008d1fa01db901918254161790553880806200214c565b634e487b7160e01b81526032600452602490fd5b634e487b7160e01b81526041600452602490fd5b634e487b7160e01b85526032600452602485fd5b634e487b7160e01b85526041600452602485fd5b919082018092116200225257565b634e487b7160e01b600052601160045260246000fd5b9394929194604051635e9d09fb60e11b6020820152620022a38162002294308a878b60248601620010c3565b03601f19810183528262000e84565b600554906000608052604051916106729183838101106001600160401b038486011117620024f45782620022eb9285946200404c86396001600160a01b031690840162001107565b0390608051f0806200250c57505050505050506200230862001285565b6308c379a0146200238c575b6200231e620013c3565b506200233062001d6760095462000de5565b60387f556e6b6e6f776e206572726f72206372656174696e6720746f6b656e0000000001600955600080516020620046be83398151915260405160408152806200237d6040820162001318565b3360208301520390a160805190565b62002396620012a4565b80620023a3575062002314565b90620023f46036604051809475022b93937b91031b932b0ba34b733903a37b5b2b71d160551b6020830152620023e3815180926020868601910162000ea6565b810103601681018552018362000e84565b81516001600160401b038111620024f45762002417816200161860095462000de5565b6020926001601f8311146200247c57928192936080519262002470575b50508160011b916000199060031b1c1916176009555b600080516020620046be83398151915260405160408152806200237d6040820162001318565b01519050388062002434565b601f19821693600960805152600080516020620046fe833981519152916080515b868110620024db5750836001959610620024c1575b505050811b016009556200244a565b015160001960f88460031b161c19169055388080620024b2565b919260206001819286850151815501940192016200249d565b634e487b7160e01b6080515260416004526024608051fd5b60018060a01b03169586600080516020620046de8339815191526060604051602081526013602082015272151bdad95b881c1c9bde1e4818dc99585d1959606a1b6040820152a2608051600654604051919291620025a6916001600160a01b0316620025788262000e68565b600f82526e7365637572697479206d6f64756c6560881b60208301526001600160a01b038816908b62003c8b565b956001600160a01b0387161562003c2f578362003b61575b6008546040516200260c916001600160a01b0316620025dd8262000e68565b601082526f6c6971756964697479206d6f64756c6560801b60208301526001600160a01b038916908c62003c8b565b936001600160a01b0385161562003afa5762002660602060405160018060a01b038a1682820152818152620026418162000e68565b8c8b604051809581948293630b74e9e360e21b84526004840162001107565b608051919003926001600160a01b03165af1908162003ad6575b50620027f357505050505050505050506200269462001285565b6308c379a014620026ad575b6040513d608051823e3d90fd5b620026b7620012a4565b9081620026c55750620026a0565b6200271c603e60405180947f4572726f7220616464696e67207365637572697479206d6f64756c653a20000060208301526200270b815180926020868601910162000ea6565b810103601e81018552018362000e84565b81516001600160401b038111620024f4576200273f816200161860095462000de5565b6020926001601f83111462002796579281929360805192620024705750508160011b916000199060031b1c191617600955600080516020620046be83398151915260405160408152806200237d6040820162001318565b601f19821693600960805152600080516020620046fe833981519152916080515b868110620027da5750836001959610620024c157505050811b016009556200244a565b91926020600181928685015181550194019201620027b7565b60405160208152601560208201527414d958dd5c9a5d1e481b5bd91d5b19481859191959605a1b6040820152600080516020620046de833981519152606060018060a01b038b1692a28062003ac3575b62002c7f575b5050506200288c602060405160018060a01b03861682820152818152620028708162000e68565b60405180938192630b74e9e360e21b8352866004840162001107565b038160805160018060a01b038c165af1908162002c5b575b5062002a1857505050505050620028ba62001285565b6308c379a014620028d2576040513d608051823e3d90fd5b620028dc620012a4565b9081620028ea5750620026a0565b62002941603f60405180947f4572726f7220616464696e67206c6971756964697479206d6f64756c653a2000602083015262002930815180926020868601910162000ea6565b810103601f81018552018362000e84565b81516001600160401b038111620024f45762002964816200161860095462000de5565b6020926001601f831114620029bb579281929360805192620024705750508160011b916000199060031b1c191617600955600080516020620046be83398151915260405160408152806200237d6040820162001318565b601f19821693600960805152600080516020620046fe833981519152916080515b868110620029ff5750836001959610620024c157505050811b016009556200244a565b91926020600181928685015181550194019201620029dc565b600080516020620046de833981519152606060405192602084526016602085015275131a5c5d5a591a5d1e481b5bd91d5b1948185919195960521b604085015260018060a01b031692a26001600160a01b03851692833b1562002c555760405163f2fde38b60e01b81526001600160a01b0390911660048201526080518160248183885af1908162002c43575b5062002c0757505050505062002aba62001285565b6308c379a01462002ad2576040513d608051823e3d90fd5b62002adc620012a4565b908162002aea5750620026a0565b62002b30603e60405180947f4572726f72207472616e7366657272696e67206f776e6572736869703a20000060208301526200270b815180926020868601910162000ea6565b81516001600160401b038111620024f45762002b53816200161860095462000de5565b6020926001601f83111462002baa579281929360805192620024705750508160011b916000199060031b1c191617600955600080516020620046be83398151915260405160408152806200237d6040820162001318565b601f19821693600960805152600080516020620046fe833981519152916080515b86811062002bee5750836001959610620024c157505050811b016009556200244a565b9192602060018192868501518155019401920162002bcb565b7f6596c1670eb3390048d23721809c3da5d3f531375ac0e2cab0f77a808ed643319162001d5360405192839260018060a01b0316968362001148565b62002c4e9062000e22565b3862002aa5565b60805180fd5b62002c779060203d60201162001dbb5762001daa818362000e84565b5038620028a4565b92979462002cc8602060409994999893985160018060a01b0384168282015281815262002cac8162000e68565b60405180938192630b74e9e360e21b83528d6004840162001107565b038160805160018060a01b038c165af1908162003a9f575b5062002e625750505050505050505062002cf962001285565b6308c379a01462002d11576040513d608051823e3d90fd5b62002d1b620012a4565b908162002d295750620026a0565b62002d8b604260405180947f4572726f7220616464696e6720646973747269627574696f6e206d6f64756c6560208301526101d160f51b604083015262002d7a815180926020868601910162000ea6565b810103602281018552018362000e84565b81516001600160401b038111620024f45762002dae816200161860095462000de5565b6020926001601f83111462002e05579281929360805192620024705750508160011b916000199060031b1c191617600955600080516020620046be83398151915260405160408152806200237d6040820162001318565b601f19821693600960805152600080516020620046fe833981519152916080515b86811062002e495750836001959610620024c157505050811b016009556200244a565b9192602060018192868501518155019401920162002e26565b604099939495969798995160208152601960208201527f446973747269627574696f6e206d6f64756c65206164646564000000000000006040820152600080516020620046de833981519152606060018060a01b038c1692a260805195865b8651811015620035705760208160051b8801015160208101518b8181020481148c1517156200354b578a8160648e938402041562003563576060840151620031ec57835160405163a9059cbb60e01b81526001600160a01b039182166004820152606494909202939093046024820152608051909260209284926044928492165af19081620031c8575b50620031315760019062002f5e62001285565b6308c379a01462002f7b575b50620026a0576001905b0162002ec1565b62002f85620012a4565b8062002f93575b5062002f6a565b90915062003019604060805193015160405180937f4572726f72207472616e7366657272696e6720746f6b656e7320746f2000000060208301526101d160f51b603d9362002feb815180926020888801910162000ea6565b830193840152603f9262003009825180936020878501910162000ea6565b0103601f81018452018262000e84565b8051906001600160401b038211620024f45781906200303f826200161860095462000de5565b6020906001601f841114620030b15760805192620030a5575b50508160011b916000199060031b1c1916176009555b600080516020620046be8339815191526040516040815280620030946040820162001318565b3360208301520390a1388062002f8c565b01519050388062003058565b9250600960805152600080516020620046fe83398151915290608051935b601f198416851062003115576001945083601f19811610620030fb575b505050811b016009556200306e565b015160001960f88460031b161c19169055388080620030ec565b81810151835560209485019460019093019290910190620030cf565b9081600080516020620046de833981519152620031bf6040600195015192620031a0604051947502a37b5b2b739903a3930b739b332b93932b2103a37960551b6020870152856036916200318f815180926020868601910162000ea6565b810103601681018752018562000e84565b858060a01b039051169260405191829160208352602083019062000ecb565b0390a262002f74565b620031e49060203d60201162001dbb5762001daa818362000e84565b503862002f4b565b9a905060648b620032009302049062002244565b988c8c60805160608501516200350d575b916064939160209360018060a01b03875116906040880151906200326860608a0151151592604051998a98899788976310c5833960e31b895260048901520204602486015260a0604486015260a485019062000ecb565b60648401929092526084830152608051919003926001600160a01b03165af19081620034e9575b506200347357600190620032a262001285565b6308c379a014620032bd575b50620026a05760019062002f74565b620032c7620012a4565b80620032d5575b50620032ae565b9091506200335b604060805193015160405180937f4572726f7220616464696e6720616c6c6f636174696f6e20666f72200000000060208301526101d160f51b603c936200332d815180926020888801910162000ea6565b830193840152603e926200334b825180936020878501910162000ea6565b0103601e81018452018262000e84565b8051906001600160401b038211620024f457819062003381826200161860095462000de5565b6020906001601f841114620033f35760805192620033e7575b50508160011b916000199060031b1c1916176009555b600080516020620046be8339815191526040516040815280620033d66040820162001318565b3360208301520390a13880620032ce565b0151905038806200339a565b9250600960805152600080516020620046fe83398151915290608051935b601f198416851062003457576001945083601f198116106200343d575b505050811b01600955620033b0565b015160001960f88460031b161c191690553880806200342e565b8181015183556020948501946001909301929091019062003411565b9081600080516020620046de833981519152620031bf6040600195015192620031a0604051947f56657374656420616c6c6f636174696f6e20616464656420666f722000000000602087015285603c91620034d8815180926020868601910162000ea6565b810103601c81018752018562000e84565b620035059060203d60201162001dbb5762001daa818362000e84565b50386200328f565b505050608082015190620151809082828102048214831517156200354b578e8e6200353f602094606496024262002244565b91935091935062003211565b634e487b7160e01b6080515260116004526024608051fd5b5050505060019062002f74565b50945094909597919650979197806200358f575b505038808062002849565b60405163a9059cbb60e01b81526001600160a01b03838116600483015260248201929092526080519091602091839160449183918d165af1908162003a7b575b50620037a357506001620035e262001285565b6308c379a014620035fc575b620026a0575b388062003584565b62003606620012a4565b8062003614575b50620035ee565b9050608051906200368c605260405180937f4572726f72207472616e7366657272696e6720746f6b656e7320746f2064697360208301527103a3934b13aba34b7b71036b7b23ab6329d160751b60408301526200367b815180926020868601910162000ea6565b810103603281018452018262000e84565b8051906001600160401b038211620024f4578190620036b2826200161860095462000de5565b6020906001601f84111462003723576080519262003717575b50508160011b916000199060031b1c1916176009555b600080516020620046be8339815191526040516040815280620037076040820162001318565b3360208301520390a1386200360d565b015190503880620036cb565b9250600960805152600080516020620046fe83398151915290608051935b601f198416851062003787576001945083601f198116106200376d575b505050811b01600955620036e1565b015160001960f88460031b161c191690553880806200375e565b8181015183556020948501946001909301929091019062003741565b60405160208152602960208201527f546f6b656e73207472616e7366657272656420746f20646973747269627574696040820152686f6e206d6f64756c6560b81b6060820152600080516020620046de833981519152608060018060a01b03841692a26040516001623c4bbb60e21b03198152608051602090829060049082906001600160a01b0387165af1908162003a57575b50620039f5575060016200384a62001285565b6308c379a01462003869575b15620035f4576040513d608051823e3d90fd5b62003873620012a4565b8062003881575b5062003856565b905060805190620038de603e60405180937f4572726f7220657865637574696e6720646973747269627574696f6e3a2000006020830152620038cd815180926020868601910162000ea6565b810103601e81018452018262000e84565b8051906001600160401b038211620024f457819062003904826200161860095462000de5565b6020906001601f84111462003975576080519262003969575b50508160011b916000199060031b1c1916176009555b600080516020620046be8339815191526040516040815280620039596040820162001318565b3360208301520390a1386200387a565b0151905038806200391d565b9250600960805152600080516020620046fe83398151915290608051935b601f1984168510620039d9576001945083601f19811610620039bf575b505050811b0160095562003933565b015160001960f88460031b161c19169055388080620039b0565b8181015183556020948501946001909301929091019062003993565b600080516020620046de83398151915260806040519260208452602260208501527f446973747269627574696f6e206578656375746564207375636365737366756c6040850152616c7960f01b606085015260018060a01b031692a2620035f4565b62003a739060203d60201162001dbb5762001daa818362000e84565b503862003837565b62003a979060203d60201162001dbb5762001daa818362000e84565b5038620035cf565b62003abb9060203d60201162001dbb5762001daa818362000e84565b503862002ce0565b506001600160a01b038316151562002843565b62003af29060203d60201162001dbb5762001daa818362000e84565b50386200267a565b50505050505050505050600080516020620046be83398151915260a060405160408152602160408201527f4661696c656420746f20637265617465206c6971756964697479206d6f64756c6060820152606560f81b6080820152336020820152a160805190565b60075460405191935062003bb691906001600160a01b031662003b848262000e68565b6013825272646973747269627574696f6e206d6f64756c6560681b60208301526001600160a01b038816908b62003c8b565b916001600160a01b038316620025be57505050505050505050600080516020620046be83398151915260a060405160408152602460408201527f4661696c656420746f2063726561746520646973747269627574696f6e206d6f60608201526364756c6560e01b6080820152336020820152a160805190565b505050505050505050600080516020620046be833981519152608060405160408152602060408201527f4661696c656420746f20637265617465207365637572697479206d6f64756c656060820152336020820152a160805190565b929190926040928351916020938484015283835262003caa8362000e68565b62003cc9855193849263347d5e2560e21b878501526024840162001107565b039062003cdf601f199283810185528462000e84565b8451956001600160401b03936001600160a01b039161067291828a018781118b82101762000e36578462003d1d938c956200404c8739169062001107565b0360009788f0806200404057505062003d3562001285565b6308c379a01462003ed9575b62003d4b620013c3565b5062003db0603d865180937f556e6b6e6f776e206572726f72206372656174696e67200000000000000000008883015262003d90815180928a60378601910162000ea6565b8101652070726f787960d01b603782015203601d81018452018262000e84565b805192831162003ec55762003dcc836200161860095462000de5565b8391601f841160011462003e3b5750918062003e239492600080516020620046be8339815191529694889262003e2f575b50508160011b916000199060031b1c1916176009555b8151928284938452830162001318565b9033908301520390a190565b01519050388062003dfd565b60098752600080516020620046fe8339815191529291908416875b81811062003ead5750926001928592600080516020620046be833981519152989662003e2398961062003e93575b505050811b0160095562003e13565b015160001960f88460031b161c1916905538808062003e84565b92938660018192878601518155019501930162003e56565b634e487b7160e01b86526041600452602486fd5b62003ee3620012a4565b8062003ef0575062003d41565b90603762003f609187519384916e022b93937b91031b932b0ba34b7339608d1b8984015262003f29815180928b602f8701910162000ea6565b820167010383937bc3c9d160c51b602f82015262003f50825180938b878501910162000ea6565b0103601781018452018262000e84565b805192831162003ec55762003f7c836200161860095462000de5565b8391601f841160011462003fd15750918062003e239492600080516020620046be8339815191529694889262003e2f5750508160011b916000199060031b1c1916176009558151928284938452830162001318565b60098752600080516020620046fe8339815191529291908416875b818110620040285750926001928592600080516020620046be833981519152989662003e2398961062003e9357505050811b0160095562003e13565b92938660018192878601518155019501930162003fec565b16969550505050505056fe60806040908082526106728038038091610019828561034d565b8339810190828183031261023f5761003081610370565b6020828101516001600160401b039391929184821161023f57019084601f8301121561023f5781519161006283610384565b9261006f8851948561034d565b8084528484019685828401011161023f57868561008c930161039f565b803b156102fb578551635c60da1b60e01b80825292916001600160a01b0316908481600481855afa9081156102f0576000916102bb575b503b1561025e577fa3f0ad74e5423aebfd80d3ef4346578335a9a72aeaee59ff6cb3582b35133d5080546001600160a01b03191682179055865192817f1cf3b03a6cf19fa2baba4df148e9dcabedea7f8a5c07840e207e5c089be95d3e600080a2825115801590610256575b610142575b87516101fc90816104768239f35b6004848693819382525afa91821561024b5760009261020f575b5085519360608501908111858210176101f9578652602784527f416464726573733a206c6f772d6c6576656c2064656c65676174652063616c6c83850152660819985a5b195960ca1b84870152516101e3946000918291845af4903d156101f0573d6101c781610384565b906101d48851928361034d565b8152600081943d92013e6103c2565b5038808080808080610134565b606092506103c2565b634e487b7160e01b600052604160045260246000fd5b9091508281813d8311610244575b610227818361034d565b8101031261023f5761023890610370565b903861015c565b600080fd5b503d61021d565b86513d6000823e3d90fd5b50600061012f565b865162461bcd60e51b815260048101859052603060248201527f455243313936373a20626561636f6e20696d706c656d656e746174696f6e206960448201526f1cc81b9bdd08184818dbdb9d1c9858dd60821b6064820152608490fd5b90508481813d83116102e9575b6102d2818361034d565b8101031261023f576102e390610370565b386100c3565b503d6102c8565b88513d6000823e3d90fd5b855162461bcd60e51b815260048101849052602560248201527f455243313936373a206e657720626561636f6e206973206e6f74206120636f6e6044820152641d1c9858dd60da1b6064820152608490fd5b601f909101601f19168101906001600160401b038211908210176101f957604052565b51906001600160a01b038216820361023f57565b6001600160401b0381116101f957601f01601f191660200190565b60005b8381106103b25750506000910152565b81810151838201526020016103a2565b9192901561042457508151156103d6575090565b3b156103df5790565b60405162461bcd60e51b815260206004820152601d60248201527f416464726573733a2063616c6c20746f206e6f6e2d636f6e74726163740000006044820152606490fd5b8251909150156104375750805190602001fd5b6044604051809262461bcd60e51b825260206004830152610467815180928160248601526020868601910161039f565b601f01601f19168101030190fdfe608080604052366100c7577fa3f0ad74e5423aebfd80d3ef4346578335a9a72aeaee59ff6cb3582b35133d5054635c60da1b60e01b8252602090829060049082906001600160a01b03165afa9081156100bb57600091610060575b506101a7565b905060203d6020116100b4575b601f8101601f191682019167ffffffffffffffff83118184101761009e576100989260405201610161565b3861005a565b634e487b7160e01b600052604160045260246000fd5b503d61006d565b6040513d6000823e3d90fd5b7fa3f0ad74e5423aebfd80d3ef4346578335a9a72aeaee59ff6cb3582b35133d5054604051635c60da1b60e01b815290602090829060049082906001600160a01b03165afa9081156100bb5760009161012057506101a7565b602091503d8211610159575b601f8201601f191681019167ffffffffffffffff83118284101761009e5761009892604052810190610188565b3d915061012c565b602090607f190112610183576080516001600160a01b03811681036101835790565b600080fd5b9081602091031261018357516001600160a01b03811681036101835790565b6000808092368280378136915af43d82803e156101c2573d90f35b3d90fdfea264697066735822122055fbd96e33b80d64199b9943c5791120941f50472e3a8ea3832c0c2bbc01d04c64736f6c63430008160033609b6c5a1c9a8a0155f177b91e093957168ca7de93871803b59597d7d54de3fa49389cbaf393f14ce839be3560327b50e12d1c018c78ecb07679ee42fecaffaa6e1540171b6c0c960b71a7020d9f60077f6af931a8bbf590da0223dacf75c7afa2646970667358221220f06061da47b9d61c66cbbb9cca7442101d8cb09eaecf7f4bd1cdc21627d9a43964736f6c6343000816003360803461011a57601f61045a38819003918201601f19168301916001600160401b0383118484101761011f5780849260209460405283398101031261011a57516001600160a01b03808216919082820361011a576000549160018060a01b0319923384821617600055604051923391167f8be0079c531659141344cd1fd0a4f28419497f9722a3daafe3b4186f6b6457e0600080a33b156100b25750600154161760015560405161032490816101368239f35b62461bcd60e51b815260206004820152603360248201527f5570677261646561626c65426561636f6e3a20696d706c656d656e746174696f60448201527f6e206973206e6f74206120636f6e7472616374000000000000000000000000006064820152608490fd5b600080fd5b634e487b7160e01b600052604160045260246000fdfe6080604052600436101561001257600080fd5b6000803560e01c80633659cfe6146101c75780635c60da1b1461019e578063715018a6146101445780638da5cb5b1461011d5763f2fde38b1461005457600080fd5b3461011a57602036600319011261011a576004356001600160a01b038181169182900361011657610083610296565b81156100c25782546001600160a01b0319811683178455167f8be0079c531659141344cd1fd0a4f28419497f9722a3daafe3b4186f6b6457e08380a380f35b60405162461bcd60e51b815260206004820152602660248201527f4f776e61626c653a206e6577206f776e657220697320746865207a65726f206160448201526564647265737360d01b6064820152608490fd5b8280fd5b80fd5b503461011a578060031936011261011a57546040516001600160a01b039091168152602090f35b503461011a578060031936011261011a5761015d610296565b80546001600160a01b03198116825581906001600160a01b03167f8be0079c531659141344cd1fd0a4f28419497f9722a3daafe3b4186f6b6457e08280a380f35b503461011a578060031936011261011a576001546040516001600160a01b039091168152602090f35b503461011a57602036600319011261011a576004356001600160a01b03811690818103610116576101f6610296565b3b1561023557600180546001600160a01b031916821790557fbc7cd75a20ee27fd9adebab32041f755214dbc6bffa90cc0225b39da2e5c2d3b8280a280f35b60405162461bcd60e51b815260206004820152603360248201527f5570677261646561626c65426561636f6e3a20696d706c656d656e746174696f6044820152721b881a5cc81b9bdd08184818dbdb9d1c9858dd606a1b6064820152608490fd5b6000546001600160a01b031633036102aa57565b606460405162461bcd60e51b815260206004820152602060248201527f4f776e61626c653a2063616c6c6572206973206e6f7420746865206f776e65726044820152fdfea2646970667358221220df6ab73b1dff0a8ef9b5ef6df200574135fbb4c8346dced2b18f2800c3bc189564736f6c63430008160033",
  "linkReferences": {},
  "deployedLinkReferences": {}
}