{
  "_format": "hh-sol-artifact-1",
  "contractName": "LiquidityLocker_v1",
  "sourceName": "src/contracts/LiquidityLocker_v1.sol",
  "abi": [
    {
      "anonymous": false,
      "inputs": [
        {
          "indexed": true,
          "internalType": "address",
          "name": "lpToken",
          "type": "address"
        },
        {
          "indexed": true,
          "internalType": "address",
          "name": "owner",
          "type": "address"
        },
        {
          "indexed": false,
          "internalType": "uint256",
          "name": "amount",
          "type": "uint256"
        },
        {
          "indexed": false,
          "internalType": "uint256",
          "name": "unlockTime",
          "type": "uint256"
        }
      ],
      "name": "LiquidityLocked",
      "type": "event"
    },
    {
      "anonymous": false,
      "inputs": [
        {
          "indexed": true,
          "internalType": "address",
          "name": "lpToken",
          "type": "address"
        },
        {
          "indexed": true,
          "internalType": "address",
          "name": "owner",
          "type": "address"
        },
        {
          "indexed": false,
          "internalType": "uint256",
          "name": "amount",
          "type": "uint256"
        }
      ],
      "name": "LiquidityUnlocked",
      "type": "event"
    },
    {
      "anonymous": false,
      "inputs": [
        {
          "indexed": true,
          "internalType": "address",
          "name": "previousOwner",
          "type": "address"
        },
        {
          "indexed": true,
          "internalType": "address",
          "name": "newOwner",
          "type": "address"
        }
      ],
      "name": "OwnershipTransferred",
      "type": "event"
    },
    {
      "inputs": [
        {
          "internalType": "address",
          "name": "lpToken",
          "type": "address"
        },
        {
          "internalType": "address",
          "name": "owner",
          "type": "address"
        }
      ],
      "name": "getLock",
      "outputs": [
        {
          "internalType": "uint256",
          "name": "amount",
          "type": "uint256"
        },
        {
          "internalType": "uint256",
          "name": "unlockTime",
          "type": "uint256"
        },
        {
          "internalType": "bool",
          "name": "isWithdrawn",
          "type": "bool"
        }
      ],
      "stateMutability": "view",
      "type": "function"
    },
    {
      "inputs": [
        {
          "internalType": "address",
          "name": "lpToken",
          "type": "address"
        },
        {
          "internalType": "uint256",
          "name": "amount",
          "type": "uint256"
        },
        {
          "internalType": "uint256",
          "name": "unlockTime",
          "type": "uint256"
        }
      ],
      "name": "lockLiquidity",
      "outputs": [],
      "stateMutability": "nonpayable",
      "type": "function"
    },
    {
      "inputs": [
        {
          "internalType": "address",
          "name": "",
          "type": "address"
        },
        {
          "internalType": "address",
          "name": "",
          "type": "address"
        }
      ],
      "name": "locks",
      "outputs": [
        {
          "internalType": "uint256",
          "name": "amount",
          "type": "uint256"
        },
        {
          "internalType": "uint256",
          "name": "unlockTime",
          "type": "uint256"
        },
        {
          "internalType": "bool",
          "name": "isWithdrawn",
          "type": "bool"
        }
      ],
      "stateMutability": "view",
      "type": "function"
    },
    {
      "inputs": [],
      "name": "owner",
      "outputs": [
        {
          "internalType": "address",
          "name": "",
          "type": "address"
        }
      ],
      "stateMutability": "view",
      "type": "function"
    },
    {
      "inputs": [],
      "name": "renounceOwnership",
      "outputs": [],
      "stateMutability": "nonpayable",
      "type": "function"
    },
    {
      "inputs": [
        {
          "internalType": "address",
          "name": "newOwner",
          "type": "address"
        }
      ],
      "name": "transferOwnership",
      "outputs": [],
      "stateMutability": "nonpayable",
      "type": "function"
    },
    {
      "inputs": [
        {
          "internalType": "address",
          "name": "lpToken",
          "type": "address"
        }
      ],
      "name": "unlockLiquidity",
      "outputs": [],
      "stateMutability": "nonpayable",
      "type": "function"
    }
  ],
  "bytecode": "0x6080806040523461005e57600160008181558154336001600160a01b0319821681179093556001600160a01b0316907f8be0079c531659141344cd1fd0a4f28419497f9722a3daafe3b4186f6b6457e09080a36107dc90816100648239f35b600080fdfe6080604081815260048036101561001557600080fd5b600092833560e01c908163433ea1ec146105cd57508063715018a61461056d5780638da5cb5b14610544578063c05f6155146104c7578063ce144e0a146102e2578063d58c66ab1461013e5763f2fde38b1461007057600080fd5b3461013a57602036600319011261013a5761008961065b565b906100926106f8565b6001600160a01b039182169283156100e8575050600154826bffffffffffffffffffffffff60a01b821617600155167f8be0079c531659141344cd1fd0a4f28419497f9722a3daafe3b4186f6b6457e08380a380f35b906020608492519162461bcd60e51b8352820152602660248201527f4f776e61626c653a206e6577206f776e657220697320746865207a65726f206160448201526564647265737360d01b6064820152fd5b8280fd5b503461013a57602090816003193601126102de5761015a61065b565b610162610750565b6001600160a01b0316808552600283528385203386528352838520805491939180156102ab5760028201805460ff811661027457600184015442106102425760ff19166001179055855163a9059cbb60e01b815233948101949094526024840152818360448189885af1928315610238577fae1e3f55a3bd49028dc8c60076591b54e799245355498a82b672a16a0561fadc9361020b575b505493519384523393a36001815580f35b61022a90833d8511610231575b61022281836106be565b8101906106e0565b50386101fa565b503d610218565b85513d88823e3d90fd5b875162461bcd60e51b8152808701869052600c60248201526b14dd1a5b1b081b1bd8dad95960a21b6044820152606490fd5b875162461bcd60e51b8152808701869052601160248201527020b63932b0b23c903bb4ba34323930bbb760791b6044820152606490fd5b855162461bcd60e51b8152808501849052600d60248201526c139bc81b1bd8dac8199bdd5b99609a1b6044820152606490fd5b8380fd5b50903461013a57606036600319011261013a576102fd61065b565b602435916044359161030d610750565b831561048f574283111561044c576001600160a01b03168086526002602090815282872033885281528287205491939161041c578251956323b872dd60e01b8752339087015230602487015284604487015280866064818a885af1958615610412577f59d86badba9ed0836e2f7433321f97c74d9825a883e2315b54e1a861777954869495966103f5575b5082516103a48161068c565b868152600282820191848352858101928a8452888b52828552868b20338c528552868b2091518255516001820155019051151560ff8019835416911617905582519586528501523393a36001815580f35b61040b90823d84116102315761022281836106be565b5038610398565b83513d89823e3d90fd5b8560649184519162461bcd60e51b8352820152600b60248201526a4c6f636b2065786973747360a81b6044820152fd5b815162461bcd60e51b8152602081870152601d60248201527f556e6c6f636b2074696d65206d75737420626520696e206675747572650000006044820152606490fd5b815162461bcd60e51b815260208187015260126024820152710416d6f756e74206d757374206265203e20360741b6044820152606490fd5b50503461054057806003193601126105405780916104e361065b565b6104eb610676565b9060018060a01b038091168352600260205283832091168252602052209061053c82549160ff6002600186015495015416905193849384919260409194936060840195845260208401521515910152565b0390f35b5080fd5b50503461054057816003193601126105405760015490516001600160a01b039091168152602090f35b83346105ca57806003193601126105ca576105866106f8565b600180546001600160a01b0319811690915581906001600160a01b03167f8be0079c531659141344cd1fd0a4f28419497f9722a3daafe3b4186f6b6457e08280a380f35b80fd5b839085346105ca57826003193601126105ca578261053c916105ed61065b565b6105f5610676565b6001600160a01b0391821683526002602090815284842092909116835252209261061e8361068c565b83548084526001850154602080860182905260029096015460ff161515948301859052915190815293840152604083019190915281906060820190565b600435906001600160a01b038216820361067157565b600080fd5b602435906001600160a01b038216820361067157565b6060810190811067ffffffffffffffff8211176106a857604052565b634e487b7160e01b600052604160045260246000fd5b90601f8019910116810190811067ffffffffffffffff8211176106a857604052565b90816020910312610671575180151581036106715790565b6001546001600160a01b0316330361070c57565b606460405162461bcd60e51b815260206004820152602060248201527f4f776e61626c653a2063616c6c6572206973206e6f7420746865206f776e65726044820152fd5b600260005414610761576002600055565b60405162461bcd60e51b815260206004820152601f60248201527f5265656e7472616e637947756172643a207265656e7472616e742063616c6c006044820152606490fdfea2646970667358221220c71bb74066ed42cb729f8a6b7e791ec5ab3dddc4c95db42a879609d07389b66664736f6c63430008160033",
  "linkReferences": {},
  "deployedLinkReferences": {}
}