{
  "_format": "hh-sol-artifact-1",
  "contractName": "MockInterestRateModel",
  "sourceName": "contracts/mocks/MockInterestRateModel.sol",
  "abi": [
    {
      "inputs": [],
      "stateMutability": "nonpayable",
      "type": "constructor"
    },
    {
      "anonymous": false,
      "inputs": [
        {
          "indexed": false,
          "internalType": "uint256",
          "name": "oldRate",
          "type": "uint256"
        },
        {
          "indexed": false,
          "internalType": "uint256",
          "name": "newRate",
          "type": "uint256"
        }
      ],
      "name": "BaseBorrowRateUpdated",
      "type": "event"
    },
    {
      "anonymous": false,
      "inputs": [
        {
          "indexed": true,
          "internalType": "address",
          "name": "previousOwner",
          "type": "address"
        },
        {
          "indexed": true,
          "internalType": "address",
          "name": "newOwner",
          "type": "address"
        }
      ],
      "name": "OwnershipTransferred",
      "type": "event"
    },
    {
      "anonymous": false,
      "inputs": [
        {
          "indexed": false,
          "internalType": "uint256",
          "name": "oldRate",
          "type": "uint256"
        },
        {
          "indexed": false,
          "internalType": "uint256",
          "name": "newRate",
          "type": "uint256"
        }
      ],
      "name": "SlopeRateUpdated",
      "type": "event"
    },
    {
      "inputs": [],
      "name": "baseBorrowRate",
      "outputs": [
        {
          "internalType": "uint256",
          "name": "",
          "type": "uint256"
        }
      ],
      "stateMutability": "view",
      "type": "function"
    },
    {
      "inputs": [
        {
          "internalType": "uint256",
          "name": "utilization",
          "type": "uint256"
        }
      ],
      "name": "getBorrowRate",
      "outputs": [
        {
          "internalType": "uint256",
          "name": "",
          "type": "uint256"
        }
      ],
      "stateMutability": "view",
      "type": "function"
    },
    {
      "inputs": [
        {
          "internalType": "uint256",
          "name": "utilization",
          "type": "uint256"
        },
        {
          "internalType": "uint256",
          "name": "reserveFactor",
          "type": "uint256"
        }
      ],
      "name": "getSupplyRate",
      "outputs": [
        {
          "internalType": "uint256",
          "name": "",
          "type": "uint256"
        }
      ],
      "stateMutability": "view",
      "type": "function"
    },
    {
      "inputs": [],
      "name": "owner",
      "outputs": [
        {
          "internalType": "address",
          "name": "",
          "type": "address"
        }
      ],
      "stateMutability": "view",
      "type": "function"
    },
    {
      "inputs": [],
      "name": "renounceOwnership",
      "outputs": [],
      "stateMutability": "nonpayable",
      "type": "function"
    },
    {
      "inputs": [
        {
          "internalType": "uint256",
          "name": "_baseBorrowRate",
          "type": "uint256"
        }
      ],
      "name": "setBaseBorrowRate",
      "outputs": [],
      "stateMutability": "nonpayable",
      "type": "function"
    },
    {
      "inputs": [
        {
          "internalType": "uint256",
          "name": "_slopeRate",
          "type": "uint256"
        }
      ],
      "name": "setSlopeRate",
      "outputs": [],
      "stateMutability": "nonpayable",
      "type": "function"
    },
    {
      "inputs": [],
      "name": "slopeRate",
      "outputs": [
        {
          "internalType": "uint256",
          "name": "",
          "type": "uint256"
        }
      ],
      "stateMutability": "view",
      "type": "function"
    },
    {
      "inputs": [
        {
          "internalType": "address",
          "name": "newOwner",
          "type": "address"
        }
      ],
      "name": "transferOwnership",
      "outputs": [],
      "stateMutability": "nonpayable",
      "type": "function"
    }
  ],
  "bytecode": "0x608080604052346100345761001333610039565b61001c33610039565b6101f46001556107d06002556104da90816100818239f35b600080fd5b600080546001600160a01b039283166001600160a01b03198216811783559216907f8be0079c531659141344cd1fd0a4f28419497f9722a3daafe3b4186f6b6457e09080a356fe60406080815260048036101561001457600080fd5b600091823560e01c80630c9c81a1146103d05780632a11a8a0146102e5578063715018a6146102885780638da5cb5b146102605780639fa83b5a146101e4578063a9de7bd6146101c5578063b12ed55914610172578063bf3866821461014f5763f2fde38b1461008357600080fd5b3461014b57602036600319011261014b576001600160a01b03823581811693919290849003610147576100b461044c565b83156100f557505082546001600160a01b0319811683178455167f8be0079c531659141344cd1fd0a4f28419497f9722a3daafe3b4186f6b6457e08380a380f35b906020608492519162461bcd60e51b8352820152602660248201527f4f776e61626c653a206e6577206f776e657220697320746865207a65726f206160448201526564647265737360d01b6064820152fd5b8480fd5b8280fd5b83823461016e578160031936011261016e576020906001549051908152f35b5080fd5b503461014b57602036600319011261014b577f09cb776e165e2de60b70e3f4098f327a63d3e8461242df989c92cf1fbb51ab3391356101af61044c565b600254908060025582519182526020820152a180f35b83823461016e578160031936011261016e576020906002549051908152f35b5082903461016e57602036600319011261016e57655af3107a40009161271061021260025485873504610423565b0460015490810180911161024d5783810293818504149015171561023a576020838351908152f35b634e487b7160e01b815260118452602490fd5b634e487b7160e01b825260118552602482fd5b83823461016e578160031936011261016e57905490516001600160a01b039091168152602090f35b83346102e257806003193601126102e2576102a161044c565b80546001600160a01b03198116825581906001600160a01b03167f8be0079c531659141344cd1fd0a4f28419497f9722a3daafe3b4186f6b6457e08280a380f35b80fd5b5082346102e257816003193601126102e25782358251634fd41dad60e11b81528185820152602081602481305afa9081156103c657839161036c575b50670de0b6b3a7640000928361033960243584610423565b04820391821161035957602085856103518686610423565b049051908152f35b634e487b7160e01b815260118652602490fd5b905060203d6020116103bf575b601f8101601f1916820167ffffffffffffffff8111838210176103ac57602091839187528101031261014b575185610321565b634e487b7160e01b855260418752602485fd5b503d610379565b84513d85823e3d90fd5b503461014b57602036600319011261014b577faa22ad495965e432169c205e61ffb04af69a75b56c5adf5cb375be51dae4b744913561040d61044c565b600154908060015582519182526020820152a180f35b8181029291811591840414171561043657565b634e487b7160e01b600052601160045260246000fd5b6000546001600160a01b0316330361046057565b606460405162461bcd60e51b815260206004820152602060248201527f4f776e61626c653a2063616c6c6572206973206e6f7420746865206f776e65726044820152fdfea2646970667358221220a798acbbf517b261b4c8b6252d9fb272cb173d38da4233cc8913dddc325b744764736f6c63430008160033",
  "linkReferences": {},
  "deployedLinkReferences": {}
}