{"contracts/defi/LoanPoolFactory.sol":{"LoanPoolFactory":{"abi":[{"inputs":[{"internalType":"address","name":"_implementation","type":"address"},{"internalType":"address","name":"_priceOracle","type":"address"},{"internalType":"address","name":"_interestRateModel","type":"address"},{"internalType":"address","name":"_feeCollector","type":"address"}],"stateMutability":"nonpayable","type":"constructor"},{"anonymous":false,"inputs":[{"indexed":false,"internalType":"string","name":"message","type":"string"},{"indexed":false,"internalType":"address","name":"sender","type":"address"},{"indexed":false,"internalType":"address","name":"owner","type":"address"}],"name":"DebugLog","type":"event"},{"anonymous":false,"inputs":[{"indexed":true,"internalType":"address","name":"oldModel","type":"address"},{"indexed":true,"internalType":"address","name":"newModel","type":"address"}],"name":"InterestRateModelUpdated","type":"event"},{"anonymous":false,"inputs":[{"indexed":true,"internalType":"address","name":"previousOwner","type":"address"},{"indexed":true,"internalType":"address","name":"newOwner","type":"address"}],"name":"OwnershipTransferred","type":"event"},{"anonymous":false,"inputs":[{"indexed":true,"internalType":"address","name":"asset","type":"address"},{"indexed":true,"internalType":"address","name":"pool","type":"address"},{"indexed":false,"internalType":"string","name":"name","type":"string"},{"indexed":false,"internalType":"string","name":"symbol","type":"string"}],"name":"PoolCreated","type":"event"},{"anonymous":false,"inputs":[{"indexed":true,"internalType":"address","name":"oldOracle","type":"address"},{"indexed":true,"internalType":"address","name":"newOracle","type":"address"}],"name":"PriceOracleUpdated","type":"event"},{"inputs":[{"internalType":"uint256","name":"","type":"uint256"}],"name":"allPools","outputs":[{"internalType":"address","name":"","type":"address"}],"stateMutability":"view","type":"function"},{"inputs":[{"internalType":"address","name":"","type":"address"}],"name":"assetToPools","outputs":[{"internalType":"address","name":"","type":"address"}],"stateMutability":"view","type":"function"},{"inputs":[{"internalType":"address","name":"_asset","type":"address"},{"internalType":"string","name":"_name","type":"string"},{"internalType":"string","name":"_symbol","type":"string"},{"internalType":"uint256","name":"_collateralFactorBps","type":"uint256"},{"internalType":"uint256","name":"_reserveFactorBps","type":"uint256"}],"name":"createLendingPool","outputs":[{"internalType":"address","name":"","type":"address"}],"stateMutability":"payable","type":"function"},{"inputs":[],"name":"feeCollector","outputs":[{"internalType":"address","name":"","type":"address"}],"stateMutability":"view","type":"function"},{"inputs":[],"name":"getAllPools","outputs":[{"internalType":"address[]","name":"","type":"address[]"}],"stateMutability":"view","type":"function"},{"inputs":[],"name":"getPoolCount","outputs":[{"internalType":"uint256","name":"","type":"uint256"}],"stateMutability":"view","type":"function"},{"inputs":[],"name":"implementation","outputs":[{"internalType":"address","name":"","type":"address"}],"stateMutability":"view","type":"function"},{"inputs":[],"name":"interestRateModel","outputs":[{"internalType":"address","name":"","type":"address"}],"stateMutability":"view","type":"function"},{"inputs":[],"name":"owner","outputs":[{"internalType":"address","name":"","type":"address"}],"stateMutability":"view","type":"function"},{"inputs":[],"name":"priceOracle","outputs":[{"internalType":"address","name":"","type":"address"}],"stateMutability":"view","type":"function"},{"inputs":[],"name":"renounceOwnership","outputs":[],"stateMutability":"nonpayable","type":"function"},{"inputs":[{"internalType":"address","name":"_newModel","type":"address"}],"name":"setInterestRateModel","outputs":[],"stateMutability":"nonpayable","type":"function"},{"inputs":[{"internalType":"address","name":"_newOracle","type":"address"}],"name":"setPriceOracle","outputs":[],"stateMutability":"nonpayable","type":"function"},{"inputs":[{"internalType":"address","name":"newOwner","type":"address"}],"name":"transferOwnership","outputs":[],"stateMutability":"nonpayable","type":"function"}],"evm":{"bytecode":{"linkReferences":{},"object":"60a03461021057601f6110d438819003918201601f191683019291906001600160401b038411838510176102155781608092849260409687528339810103126102105761004b8161022b565b906100586020820161022b565b90610070606061006986840161022b565b920161022b565b600080546001600160a01b0319808216339081178455885191969495946001600160a01b039490938516907f8be0079c531659141344cd1fd0a4f28419497f9722a3daafe3b4186f6b6457e09080a3828716156101ce57508116918215610199578116928315610160571693841561011c57608052826003541617600355816004541617600455600554161760055551610e94908161024082396080518181816105040152610b440152f35b855162461bcd60e51b815260206004820152601560248201527f496e76616c69642066656520636f6c6c6563746f7200000000000000000000006044820152606490fd5b865162461bcd60e51b8152602060048201526012602482015271125b9d985b1a59081c985d19481b5bd9195b60721b6044820152606490fd5b865162461bcd60e51b815260206004820152600e60248201526d496e76616c6964206f7261636c6560901b6044820152606490fd5b62461bcd60e51b815260206004820152601660248201527f496e76616c696420696d706c656d656e746174696f6e000000000000000000006044820152606490fd5b600080fd5b634e487b7160e01b600052604160045260246000fd5b51906001600160a01b03821682036102105756fe608080604052600436101561001357600080fd5b600090813560e01c9081632630c12f14610c665750806341d1de9714610c22578063530e784f14610b735780635c60da1b14610b2e578063715018a614610ad45780638807694e146103ca5780638bcd40161461031c5780638da5cb5b146102f55780638eec5d70146102d75780639c3798c81461029b578063c415b95c14610272578063d88ff1f4146101ac578063f2fde38b146100e65763f3fdb15a146100bb57600080fd5b346100e357806003193601126100e3576004546040516001600160a01b039091168152602090f35b80fd5b50346100e35760203660031901126100e357610100610cdc565b610108610de6565b6001600160a01b0390811690811561015857600054826001600160601b0360a01b821617600055167f8be0079c531659141344cd1fd0a4f28419497f9722a3daafe3b4186f6b6457e0600080a380f35b60405162461bcd60e51b815260206004820152602660248201527f4f776e61626c653a206e6577206f776e657220697320746865207a65726f206160448201526564647265737360d01b6064820152608490fd5b50346100e357806003193601126100e35760405180916002549081835260208093018092600283527f405787fa12a823e0f2b7631cc41b3ba8828b3321ca811111fa75cd3aa3bb5ace90835b818110610255575050508461020e910385610d21565b60405193838594850191818652518092526040850193925b82811061023557505050500390f35b83516001600160a01b031685528695509381019392810192600101610226565b82546001600160a01b0316845292860192600192830192016101f8565b50346100e357806003193601126100e3576005546040516001600160a01b039091168152602090f35b50346100e35760203660031901126100e3576020906001600160a01b0390604090826102c5610cdc565b16815260018452205416604051908152f35b50346100e357806003193601126100e3576020600254604051908152f35b50346100e357806003193601126100e357546040516001600160a01b039091168152602090f35b50346100e35760203660031901126100e357610336610cdc565b61033e610de6565b6001600160a01b0390811690811561038d57600454826001600160601b0360a01b821617600455167fdace1576ba731b4c76870b86217414c265c1ae95c55027d50dc19dab5feb99198380a380f35b60405162461bcd60e51b8152602060048201526015602482015274496e76616c6964206d6f64656c206164647265737360581b6044820152606490fd5b5060a03660031901126100e3576103df610cdc565b9067ffffffffffffffff602435818111610ad057610401903690600401610d5f565b90604435908111610ad05761041a903690600401610d5f565b92610423610de6565b600080516020610e3f83398151915260a0600180821b038554166040519060608252600d60608301526c10dc99585d1a5b99c81c1bdbdb609a1b60808301523360208301526040820152a16001600160a01b0381811684526001602052604084205416610a95576001600160a01b03811615610a58576127108060643511610a1357608435116109d557600554604051636b2e841d60e01b8152906001600160a01b0316602082600481845afa91821561095a5785926109a1575b50813410610969578161091d575b503481340311610909578084913403610892575b50507f0000000000000000000000000000000000000000000000000000000000000000608881901c62ffffff16763d602d80600a3d3981f3363d3d373d3d3d363d7300000017845260781b6e5af43d82803e903d91602b57fd5bf3176020526001600160a01b036037600985f01692831561085457600080516020610e3f83398151915260a0600180821b038354166040519060608252600b60608301526a141bdbdb0818db1bdb995960aa1b60808301523360208301526040820152a16003546004546005546001600160a01b03928316929081169116863b15610850576040516336f9323960e01b81526001600160a01b0386166004820152610100602482015292849284928392919061062f61061d61010486018c610da6565b8581036003190160448701528d610da6565b926064356064860152608435608486015260a485015260c484015260e4830152038183895af180156108315790829161083c575b5050600080516020610e3f83398151915260a0600180821b038354166040519060608252601060608301526f141bdbdb081a5b9a5d1a585b1a5e995960821b60808301523360208301526040820152a1833b156100e35760405163f2fde38b60e01b8152336004820152818160248183895af180156108315790829161081d575b5050600080516020610e3f83398151915260a0600180821b038354166040519060608252601a60608301527f506f6f6c206f776e657273686970207472616e7366657272656400000000000060808301523360208301526040820152a16001600160a01b038216815260016020526040812080546001600160a01b03191685179055600254906801000000000000000082101561080957506107e684936107fe602097946107b98560017f02e6c36b9d8c15cf5bdbf15aab788b11e1ffa8a4617731758ea3b1ef6d7754db9701600255610c8f565b81549060031b9089821b9160018060a01b03901b1916179055604051938493604085526040850190610da6565b8381038a8501526001600160a01b0390911695610da6565b0390a3604051908152f35b634e487b7160e01b81526041600452602490fd5b61082690610cf7565b6100e35780386106e4565b6040513d84823e3d90fd5b61084590610cf7565b6100e3578038610663565b8380fd5b60405162461bcd60e51b8152602060048201526016602482015275115490cc4c4d8dce8818dc99585d194819985a5b195960521b6044820152606490fd5b818080923403335af13d15610904573d6108ab81610d43565b906108b96040519283610d21565b81528460203d92013e5b156108cf578238610500565b60405162461bcd60e51b815260206004820152600d60248201526c1499599d5b990819985a5b1959609a1b6044820152606490fd5b6108c3565b634e487b7160e01b84526011600452602484fd5b803b15610965578482916004604051809481936301cb26bf60e61b83525af1801561095a57156104ec5761095390949194610cf7565b92386104ec565b6040513d87823e3d90fd5b8480fd5b60405162461bcd60e51b815260206004820152601060248201526f496e73756666696369656e742066656560801b6044820152606490fd5b9091506020813d6020116109cd575b816109bd60209383610d21565b81010312610965575190386104de565b3d91506109b0565b60405162461bcd60e51b815260206004820152601660248201527524b73b30b634b2103932b9b2b93b32903330b1ba37b960511b6044820152606490fd5b60405162461bcd60e51b815260206004820152601960248201527f496e76616c696420636f6c6c61746572616c20666163746f72000000000000006044820152606490fd5b60405162461bcd60e51b8152602060048201526015602482015274496e76616c6964206173736574206164647265737360581b6044820152606490fd5b60405162461bcd60e51b8152602060048201526013602482015272506f6f6c20616c72656164792065786973747360681b6044820152606490fd5b8280fd5b50346100e357806003193601126100e357610aed610de6565b80546001600160a01b03198116825581906001600160a01b03167f8be0079c531659141344cd1fd0a4f28419497f9722a3daafe3b4186f6b6457e08280a380f35b50346100e357806003193601126100e3576040517f00000000000000000000000000000000000000000000000000000000000000006001600160a01b03168152602090f35b50346100e35760203660031901126100e357610b8d610cdc565b610b95610de6565b6001600160a01b03908116908115610be457600354826001600160601b0360a01b821617600355167f56b5f80d8cac1479698aa7d01605fd6111e90b15fc4d2b377417f46034876cbd8380a380f35b60405162461bcd60e51b8152602060048201526016602482015275496e76616c6964206f7261636c65206164647265737360501b6044820152606490fd5b50346100e35760203660031901126100e357600435906002548210156100e3576020610c4d83610c8f565b905460405160039290921b1c6001600160a01b03168152f35b905034610c8b5781600319360112610c8b576003546001600160a01b03168152602090f35b5080fd5b600254811015610cc65760026000527f405787fa12a823e0f2b7631cc41b3ba8828b3321ca811111fa75cd3aa3bb5ace0190600090565b634e487b7160e01b600052603260045260246000fd5b600435906001600160a01b0382168203610cf257565b600080fd5b67ffffffffffffffff8111610d0b57604052565b634e487b7160e01b600052604160045260246000fd5b90601f8019910116810190811067ffffffffffffffff821117610d0b57604052565b67ffffffffffffffff8111610d0b57601f01601f191660200190565b81601f82011215610cf257803590610d7682610d43565b92610d846040519485610d21565b82845260208383010111610cf257816000926020809301838601378301015290565b919082519283825260005b848110610dd2575050826000602080949584010152601f8019910116010190565b602081830181015184830182015201610db1565b6000546001600160a01b03163303610dfa57565b606460405162461bcd60e51b815260206004820152602060248201527f4f776e61626c653a2063616c6c6572206973206e6f7420746865206f776e65726044820152fdfeabd72141767f72cfd7c24dd6bead76fe5bbb725957b4568000c0597f4caace5ba2646970667358221220f61519e218ce987c0414719556c338aaaba685c687dc252d9536442293e47bc164736f6c63430008160033","opcodes":"PUSH1 0xA0 CALLVALUE PUSH2 0x210 JUMPI PUSH1 0x1F PUSH2 0x10D4 CODESIZE DUP2 SWAP1 SUB SWAP2 DUP3 ADD PUSH1 0x1F NOT AND DUP4 ADD SWAP3 SWAP2 SWAP1 PUSH1 0x1 PUSH1 0x1 PUSH1 0x40 SHL SUB DUP5 GT DUP4 DUP6 LT OR PUSH2 0x215 JUMPI DUP2 PUSH1 0x80 SWAP3 DUP5 SWAP3 PUSH1 0x40 SWAP7 DUP8 MSTORE DUP4 CODECOPY DUP2 ADD SUB SLT PUSH2 0x210 JUMPI PUSH2 0x4B DUP2 PUSH2 0x22B JUMP JUMPDEST SWAP1 PUSH2 0x58 PUSH1 0x20 DUP3 ADD PUSH2 0x22B JUMP JUMPDEST SWAP1 PUSH2 0x70 PUSH1 0x60 PUSH2 0x69 DUP7 DUP5 ADD PUSH2 0x22B JUMP JUMPDEST SWAP3 ADD PUSH2 0x22B JUMP JUMPDEST PUSH1 0x0 DUP1 SLOAD PUSH1 0x1 PUSH1 0x1 PUSH1 0xA0 SHL SUB NOT DUP1 DUP3 AND CALLER SWAP1 DUP2 OR DUP5 SSTORE DUP9 MLOAD SWAP2 SWAP7 SWAP5 SWAP6 SWAP5 PUSH1 0x1 PUSH1 0x1 PUSH1 0xA0 SHL SUB SWAP5 SWAP1 SWAP4 DUP6 AND SWAP1 PUSH32 0x8BE0079C531659141344CD1FD0A4F28419497F9722A3DAAFE3B4186F6B6457E0 SWAP1 DUP1 LOG3 DUP3 DUP8 AND ISZERO PUSH2 0x1CE JUMPI POP DUP2 AND SWAP2 DUP3 ISZERO PUSH2 0x199 JUMPI DUP2 AND SWAP3 DUP4 ISZERO PUSH2 0x160 JUMPI AND SWAP4 DUP5 ISZERO PUSH2 0x11C JUMPI PUSH1 0x80 MSTORE DUP3 PUSH1 0x3 SLOAD AND OR PUSH1 0x3 SSTORE DUP2 PUSH1 0x4 SLOAD AND OR PUSH1 0x4 SSTORE PUSH1 0x5 SLOAD AND OR PUSH1 0x5 SSTORE MLOAD PUSH2 0xE94 SWAP1 DUP2 PUSH2 0x240 DUP3 CODECOPY PUSH1 0x80 MLOAD DUP2 DUP2 DUP2 PUSH2 0x504 ADD MSTORE PUSH2 0xB44 ADD MSTORE RETURN JUMPDEST DUP6 MLOAD PUSH3 0x461BCD PUSH1 0xE5 SHL DUP2 MSTORE PUSH1 0x20 PUSH1 0x4 DUP3 ADD MSTORE PUSH1 0x15 PUSH1 0x24 DUP3 ADD MSTORE PUSH32 0x496E76616C69642066656520636F6C6C6563746F720000000000000000000000 PUSH1 0x44 DUP3 ADD MSTORE PUSH1 0x64 SWAP1 REVERT JUMPDEST DUP7 MLOAD PUSH3 0x461BCD PUSH1 0xE5 SHL DUP2 MSTORE PUSH1 0x20 PUSH1 0x4 DUP3 ADD MSTORE PUSH1 0x12 PUSH1 0x24 DUP3 ADD MSTORE PUSH18 0x125B9D985B1A59081C985D19481B5BD9195B PUSH1 0x72 SHL PUSH1 0x44 DUP3 ADD MSTORE PUSH1 0x64 SWAP1 REVERT JUMPDEST DUP7 MLOAD PUSH3 0x461BCD PUSH1 0xE5 SHL DUP2 MSTORE PUSH1 0x20 PUSH1 0x4 DUP3 ADD MSTORE PUSH1 0xE PUSH1 0x24 DUP3 ADD MSTORE PUSH14 0x496E76616C6964206F7261636C65 PUSH1 0x90 SHL PUSH1 0x44 DUP3 ADD MSTORE PUSH1 0x64 SWAP1 REVERT JUMPDEST PUSH3 0x461BCD PUSH1 0xE5 SHL DUP2 MSTORE PUSH1 0x20 PUSH1 0x4 DUP3 ADD MSTORE PUSH1 0x16 PUSH1 0x24 DUP3 ADD MSTORE PUSH32 0x496E76616C696420696D706C656D656E746174696F6E00000000000000000000 PUSH1 0x44 DUP3 ADD MSTORE PUSH1 0x64 SWAP1 REVERT JUMPDEST PUSH1 0x0 DUP1 REVERT JUMPDEST PUSH4 0x4E487B71 PUSH1 0xE0 SHL PUSH1 0x0 MSTORE PUSH1 0x41 PUSH1 0x4 MSTORE PUSH1 0x24 PUSH1 0x0 REVERT JUMPDEST MLOAD SWAP1 PUSH1 0x1 PUSH1 0x1 PUSH1 0xA0 SHL SUB DUP3 AND DUP3 SUB PUSH2 0x210 JUMPI JUMP INVALID PUSH1 0x80 DUP1 PUSH1 0x40 MSTORE PUSH1 0x4 CALLDATASIZE LT ISZERO PUSH2 0x13 JUMPI PUSH1 0x0 DUP1 REVERT JUMPDEST PUSH1 0x0 SWAP1 DUP2 CALLDATALOAD PUSH1 0xE0 SHR SWAP1 DUP2 PUSH4 0x2630C12F EQ PUSH2 0xC66 JUMPI POP DUP1 PUSH4 0x41D1DE97 EQ PUSH2 0xC22 JUMPI DUP1 PUSH4 0x530E784F EQ PUSH2 0xB73 JUMPI DUP1 PUSH4 0x5C60DA1B EQ PUSH2 0xB2E JUMPI DUP1 PUSH4 0x715018A6 EQ PUSH2 0xAD4 JUMPI DUP1 PUSH4 0x8807694E EQ PUSH2 0x3CA JUMPI DUP1 PUSH4 0x8BCD4016 EQ PUSH2 0x31C JUMPI DUP1 PUSH4 0x8DA5CB5B EQ PUSH2 0x2F5 JUMPI DUP1 PUSH4 0x8EEC5D70 EQ PUSH2 0x2D7 JUMPI DUP1 PUSH4 0x9C3798C8 EQ PUSH2 0x29B JUMPI DUP1 PUSH4 0xC415B95C EQ PUSH2 0x272 JUMPI DUP1 PUSH4 0xD88FF1F4 EQ PUSH2 0x1AC JUMPI DUP1 PUSH4 0xF2FDE38B EQ PUSH2 0xE6 JUMPI PUSH4 0xF3FDB15A EQ PUSH2 0xBB JUMPI PUSH1 0x0 DUP1 REVERT JUMPDEST CALLVALUE PUSH2 0xE3 JUMPI DUP1 PUSH1 0x3 NOT CALLDATASIZE ADD SLT PUSH2 0xE3 JUMPI PUSH1 0x4 SLOAD PUSH1 0x40 MLOAD PUSH1 0x1 PUSH1 0x1 PUSH1 0xA0 SHL SUB SWAP1 SWAP2 AND DUP2 MSTORE PUSH1 0x20 SWAP1 RETURN JUMPDEST DUP1 REVERT JUMPDEST POP CALLVALUE PUSH2 0xE3 JUMPI PUSH1 0x20 CALLDATASIZE PUSH1 0x3 NOT ADD SLT PUSH2 0xE3 JUMPI PUSH2 0x100 PUSH2 0xCDC JUMP JUMPDEST PUSH2 0x108 PUSH2 0xDE6 JUMP JUMPDEST PUSH1 0x1 PUSH1 0x1 PUSH1 0xA0 SHL SUB SWAP1 DUP2 AND SWAP1 DUP2 ISZERO PUSH2 0x158 JUMPI PUSH1 0x0 SLOAD DUP3 PUSH1 0x1 PUSH1 0x1 PUSH1 0x60 SHL SUB PUSH1 0xA0 SHL DUP3 AND OR PUSH1 0x0 SSTORE AND PUSH32 0x8BE0079C531659141344CD1FD0A4F28419497F9722A3DAAFE3B4186F6B6457E0 PUSH1 0x0 DUP1 LOG3 DUP1 RETURN JUMPDEST PUSH1 0x40 MLOAD PUSH3 0x461BCD PUSH1 0xE5 SHL DUP2 MSTORE PUSH1 0x20 PUSH1 0x4 DUP3 ADD MSTORE PUSH1 0x26 PUSH1 0x24 DUP3 ADD MSTORE PUSH32 0x4F776E61626C653A206E6577206F776E657220697320746865207A65726F2061 PUSH1 0x44 DUP3 ADD MSTORE PUSH6 0x646472657373 PUSH1 0xD0 SHL PUSH1 0x64 DUP3 ADD MSTORE PUSH1 0x84 SWAP1 REVERT JUMPDEST POP CALLVALUE PUSH2 0xE3 JUMPI DUP1 PUSH1 0x3 NOT CALLDATASIZE ADD SLT PUSH2 0xE3 JUMPI PUSH1 0x40 MLOAD DUP1 SWAP2 PUSH1 0x2 SLOAD SWAP1 DUP2 DUP4 MSTORE PUSH1 0x20 DUP1 SWAP4 ADD DUP1 SWAP3 PUSH1 0x2 DUP4 MSTORE PUSH32 0x405787FA12A823E0F2B7631CC41B3BA8828B3321CA811111FA75CD3AA3BB5ACE SWAP1 DUP4 JUMPDEST DUP2 DUP2 LT PUSH2 0x255 JUMPI POP POP POP DUP5 PUSH2 0x20E SWAP2 SUB DUP6 PUSH2 0xD21 JUMP JUMPDEST PUSH1 0x40 MLOAD SWAP4 DUP4 DUP6 SWAP5 DUP6 ADD SWAP2 DUP2 DUP7 MSTORE MLOAD DUP1 SWAP3 MSTORE PUSH1 0x40 DUP6 ADD SWAP4 SWAP3 JUMPDEST DUP3 DUP2 LT PUSH2 0x235 JUMPI POP POP POP POP SUB SWAP1 RETURN JUMPDEST DUP4 MLOAD PUSH1 0x1 PUSH1 0x1 PUSH1 0xA0 SHL SUB AND DUP6 MSTORE DUP7 SWAP6 POP SWAP4 DUP2 ADD SWAP4 SWAP3 DUP2 ADD SWAP3 PUSH1 0x1 ADD PUSH2 0x226 JUMP JUMPDEST DUP3 SLOAD PUSH1 0x1 PUSH1 0x1 PUSH1 0xA0 SHL SUB AND DUP5 MSTORE SWAP3 DUP7 ADD SWAP3 PUSH1 0x1 SWAP3 DUP4 ADD SWAP3 ADD PUSH2 0x1F8 JUMP JUMPDEST POP CALLVALUE PUSH2 0xE3 JUMPI DUP1 PUSH1 0x3 NOT CALLDATASIZE ADD SLT PUSH2 0xE3 JUMPI PUSH1 0x5 SLOAD PUSH1 0x40 MLOAD PUSH1 0x1 PUSH1 0x1 PUSH1 0xA0 SHL SUB SWAP1 SWAP2 AND DUP2 MSTORE PUSH1 0x20 SWAP1 RETURN JUMPDEST POP CALLVALUE PUSH2 0xE3 JUMPI PUSH1 0x20 CALLDATASIZE PUSH1 0x3 NOT ADD SLT PUSH2 0xE3 JUMPI PUSH1 0x20 SWAP1 PUSH1 0x1 PUSH1 0x1 PUSH1 0xA0 SHL SUB SWAP1 PUSH1 0x40 SWAP1 DUP3 PUSH2 0x2C5 PUSH2 0xCDC JUMP JUMPDEST AND DUP2 MSTORE PUSH1 0x1 DUP5 MSTORE KECCAK256 SLOAD AND PUSH1 0x40 MLOAD SWAP1 DUP2 MSTORE RETURN JUMPDEST POP CALLVALUE PUSH2 0xE3 JUMPI DUP1 PUSH1 0x3 NOT CALLDATASIZE ADD SLT PUSH2 0xE3 JUMPI PUSH1 0x20 PUSH1 0x2 SLOAD PUSH1 0x40 MLOAD SWAP1 DUP2 MSTORE RETURN JUMPDEST POP CALLVALUE PUSH2 0xE3 JUMPI DUP1 PUSH1 0x3 NOT CALLDATASIZE ADD SLT PUSH2 0xE3 JUMPI SLOAD PUSH1 0x40 MLOAD PUSH1 0x1 PUSH1 0x1 PUSH1 0xA0 SHL SUB SWAP1 SWAP2 AND DUP2 MSTORE PUSH1 0x20 SWAP1 RETURN JUMPDEST POP CALLVALUE PUSH2 0xE3 JUMPI PUSH1 0x20 CALLDATASIZE PUSH1 0x3 NOT ADD SLT PUSH2 0xE3 JUMPI PUSH2 0x336 PUSH2 0xCDC JUMP JUMPDEST PUSH2 0x33E PUSH2 0xDE6 JUMP JUMPDEST PUSH1 0x1 PUSH1 0x1 PUSH1 0xA0 SHL SUB SWAP1 DUP2 AND SWAP1 DUP2 ISZERO PUSH2 0x38D JUMPI PUSH1 0x4 SLOAD DUP3 PUSH1 0x1 PUSH1 0x1 PUSH1 0x60 SHL SUB PUSH1 0xA0 SHL DUP3 AND OR PUSH1 0x4 SSTORE AND PUSH32 0xDACE1576BA731B4C76870B86217414C265C1AE95C55027D50DC19DAB5FEB9919 DUP4 DUP1 LOG3 DUP1 RETURN JUMPDEST PUSH1 0x40 MLOAD PUSH3 0x461BCD PUSH1 0xE5 SHL DUP2 MSTORE PUSH1 0x20 PUSH1 0x4 DUP3 ADD MSTORE PUSH1 0x15 PUSH1 0x24 DUP3 ADD MSTORE PUSH21 0x496E76616C6964206D6F64656C2061646472657373 PUSH1 0x58 SHL PUSH1 0x44 DUP3 ADD MSTORE PUSH1 0x64 SWAP1 REVERT JUMPDEST POP PUSH1 0xA0 CALLDATASIZE PUSH1 0x3 NOT ADD SLT PUSH2 0xE3 JUMPI PUSH2 0x3DF PUSH2 0xCDC JUMP JUMPDEST SWAP1 PUSH8 0xFFFFFFFFFFFFFFFF PUSH1 0x24 CALLDATALOAD DUP2 DUP2 GT PUSH2 0xAD0 JUMPI PUSH2 0x401 SWAP1 CALLDATASIZE SWAP1 PUSH1 0x4 ADD PUSH2 0xD5F JUMP JUMPDEST SWAP1 PUSH1 0x44 CALLDATALOAD SWAP1 DUP2 GT PUSH2 0xAD0 JUMPI PUSH2 0x41A SWAP1 CALLDATASIZE SWAP1 PUSH1 0x4 ADD PUSH2 0xD5F JUMP JUMPDEST SWAP3 PUSH2 0x423 PUSH2 0xDE6 JUMP JUMPDEST PUSH1 0x0 DUP1 MLOAD PUSH1 0x20 PUSH2 0xE3F DUP4 CODECOPY DUP2 MLOAD SWAP2 MSTORE PUSH1 0xA0 PUSH1 0x1 DUP1 DUP3 SHL SUB DUP6 SLOAD AND PUSH1 0x40 MLOAD SWAP1 PUSH1 0x60 DUP3 MSTORE PUSH1 0xD PUSH1 0x60 DUP4 ADD MSTORE PUSH13 0x10DC99585D1A5B99C81C1BDBDB PUSH1 0x9A SHL PUSH1 0x80 DUP4 ADD MSTORE CALLER PUSH1 0x20 DUP4 ADD MSTORE PUSH1 0x40 DUP3 ADD MSTORE LOG1 PUSH1 0x1 PUSH1 0x1 PUSH1 0xA0 SHL SUB DUP2 DUP2 AND DUP5 MSTORE PUSH1 0x1 PUSH1 0x20 MSTORE PUSH1 0x40 DUP5 KECCAK256 SLOAD AND PUSH2 0xA95 JUMPI PUSH1 0x1 PUSH1 0x1 PUSH1 0xA0 SHL SUB DUP2 AND ISZERO PUSH2 0xA58 JUMPI PUSH2 0x2710 DUP1 PUSH1 0x64 CALLDATALOAD GT PUSH2 0xA13 JUMPI PUSH1 0x84 CALLDATALOAD GT PUSH2 0x9D5 JUMPI PUSH1 0x5 SLOAD PUSH1 0x40 MLOAD PUSH4 0x6B2E841D PUSH1 0xE0 SHL DUP2 MSTORE SWAP1 PUSH1 0x1 PUSH1 0x1 PUSH1 0xA0 SHL SUB AND PUSH1 0x20 DUP3 PUSH1 0x4 DUP2 DUP5 GAS STATICCALL SWAP2 DUP3 ISZERO PUSH2 0x95A JUMPI DUP6 SWAP3 PUSH2 0x9A1 JUMPI JUMPDEST POP DUP2 CALLVALUE LT PUSH2 0x969 JUMPI DUP2 PUSH2 0x91D JUMPI JUMPDEST POP CALLVALUE DUP2 CALLVALUE SUB GT PUSH2 0x909 JUMPI DUP1 DUP5 SWAP2 CALLVALUE SUB PUSH2 0x892 JUMPI JUMPDEST POP POP PUSH32 0x0 PUSH1 0x88 DUP2 SWAP1 SHR PUSH3 0xFFFFFF AND PUSH23 0x3D602D80600A3D3981F3363D3D373D3D3D363D73000000 OR DUP5 MSTORE PUSH1 0x78 SHL PUSH15 0x5AF43D82803E903D91602B57FD5BF3 OR PUSH1 0x20 MSTORE PUSH1 0x1 PUSH1 0x1 PUSH1 0xA0 SHL SUB PUSH1 0x37 PUSH1 0x9 DUP6 CREATE AND SWAP3 DUP4 ISZERO PUSH2 0x854 JUMPI PUSH1 0x0 DUP1 MLOAD PUSH1 0x20 PUSH2 0xE3F DUP4 CODECOPY DUP2 MLOAD SWAP2 MSTORE PUSH1 0xA0 PUSH1 0x1 DUP1 DUP3 SHL SUB DUP4 SLOAD AND PUSH1 0x40 MLOAD SWAP1 PUSH1 0x60 DUP3 MSTORE PUSH1 0xB PUSH1 0x60 DUP4 ADD MSTORE PUSH11 0x141BDBDB0818DB1BDB9959 PUSH1 0xAA SHL PUSH1 0x80 DUP4 ADD MSTORE CALLER PUSH1 0x20 DUP4 ADD MSTORE PUSH1 0x40 DUP3 ADD MSTORE LOG1 PUSH1 0x3 SLOAD PUSH1 0x4 SLOAD PUSH1 0x5 SLOAD PUSH1 0x1 PUSH1 0x1 PUSH1 0xA0 SHL SUB SWAP3 DUP4 AND SWAP3 SWAP1 DUP2 AND SWAP2 AND DUP7 EXTCODESIZE ISZERO PUSH2 0x850 JUMPI PUSH1 0x40 MLOAD PUSH4 0x36F93239 PUSH1 0xE0 SHL DUP2 MSTORE PUSH1 0x1 PUSH1 0x1 PUSH1 0xA0 SHL SUB DUP7 AND PUSH1 0x4 DUP3 ADD MSTORE PUSH2 0x100 PUSH1 0x24 DUP3 ADD MSTORE SWAP3 DUP5 SWAP3 DUP5 SWAP3 DUP4 SWAP3 SWAP2 SWAP1 PUSH2 0x62F PUSH2 0x61D PUSH2 0x104 DUP7 ADD DUP13 PUSH2 0xDA6 JUMP JUMPDEST DUP6 DUP2 SUB PUSH1 0x3 NOT ADD PUSH1 0x44 DUP8 ADD MSTORE DUP14 PUSH2 0xDA6 JUMP JUMPDEST SWAP3 PUSH1 0x64 CALLDATALOAD PUSH1 0x64 DUP7 ADD MSTORE PUSH1 0x84 CALLDATALOAD PUSH1 0x84 DUP7 ADD MSTORE PUSH1 0xA4 DUP6 ADD MSTORE PUSH1 0xC4 DUP5 ADD MSTORE PUSH1 0xE4 DUP4 ADD MSTORE SUB DUP2 DUP4 DUP10 GAS CALL DUP1 ISZERO PUSH2 0x831 JUMPI SWAP1 DUP3 SWAP2 PUSH2 0x83C JUMPI JUMPDEST POP POP PUSH1 0x0 DUP1 MLOAD PUSH1 0x20 PUSH2 0xE3F DUP4 CODECOPY DUP2 MLOAD SWAP2 MSTORE PUSH1 0xA0 PUSH1 0x1 DUP1 DUP3 SHL SUB DUP4 SLOAD AND PUSH1 0x40 MLOAD SWAP1 PUSH1 0x60 DUP3 MSTORE PUSH1 0x10 PUSH1 0x60 DUP4 ADD MSTORE PUSH16 0x141BDBDB081A5B9A5D1A585B1A5E9959 PUSH1 0x82 SHL PUSH1 0x80 DUP4 ADD MSTORE CALLER PUSH1 0x20 DUP4 ADD MSTORE PUSH1 0x40 DUP3 ADD MSTORE LOG1 DUP4 EXTCODESIZE ISZERO PUSH2 0xE3 JUMPI PUSH1 0x40 MLOAD PUSH4 0xF2FDE38B PUSH1 0xE0 SHL DUP2 MSTORE CALLER PUSH1 0x4 DUP3 ADD MSTORE DUP2 DUP2 PUSH1 0x24 DUP2 DUP4 DUP10 GAS CALL DUP1 ISZERO PUSH2 0x831 JUMPI SWAP1 DUP3 SWAP2 PUSH2 0x81D JUMPI JUMPDEST POP POP PUSH1 0x0 DUP1 MLOAD PUSH1 0x20 PUSH2 0xE3F DUP4 CODECOPY DUP2 MLOAD SWAP2 MSTORE PUSH1 0xA0 PUSH1 0x1 DUP1 DUP3 SHL SUB DUP4 SLOAD AND PUSH1 0x40 MLOAD SWAP1 PUSH1 0x60 DUP3 MSTORE PUSH1 0x1A PUSH1 0x60 DUP4 ADD MSTORE PUSH32 0x506F6F6C206F776E657273686970207472616E73666572726564000000000000 PUSH1 0x80 DUP4 ADD MSTORE CALLER PUSH1 0x20 DUP4 ADD MSTORE PUSH1 0x40 DUP3 ADD MSTORE LOG1 PUSH1 0x1 PUSH1 0x1 PUSH1 0xA0 SHL SUB DUP3 AND DUP2 MSTORE PUSH1 0x1 PUSH1 0x20 MSTORE PUSH1 0x40 DUP2 KECCAK256 DUP1 SLOAD PUSH1 0x1 PUSH1 0x1 PUSH1 0xA0 SHL SUB NOT AND DUP6 OR SWAP1 SSTORE PUSH1 0x2 SLOAD SWAP1 PUSH9 0x10000000000000000 DUP3 LT ISZERO PUSH2 0x809 JUMPI POP PUSH2 0x7E6 DUP5 SWAP4 PUSH2 0x7FE PUSH1 0x20 SWAP8 SWAP5 PUSH2 0x7B9 DUP6 PUSH1 0x1 PUSH32 0x2E6C36B9D8C15CF5BDBF15AAB788B11E1FFA8A4617731758EA3B1EF6D7754DB SWAP8 ADD PUSH1 0x2 SSTORE PUSH2 0xC8F JUMP JUMPDEST DUP2 SLOAD SWAP1 PUSH1 0x3 SHL SWAP1 DUP10 DUP3 SHL SWAP2 PUSH1 0x1 DUP1 PUSH1 0xA0 SHL SUB SWAP1 SHL NOT AND OR SWAP1 SSTORE PUSH1 0x40 MLOAD SWAP4 DUP5 SWAP4 PUSH1 0x40 DUP6 MSTORE PUSH1 0x40 DUP6 ADD SWAP1 PUSH2 0xDA6 JUMP JUMPDEST DUP4 DUP2 SUB DUP11 DUP6 ADD MSTORE PUSH1 0x1 PUSH1 0x1 PUSH1 0xA0 SHL SUB SWAP1 SWAP2 AND SWAP6 PUSH2 0xDA6 JUMP JUMPDEST SUB SWAP1 LOG3 PUSH1 0x40 MLOAD SWAP1 DUP2 MSTORE RETURN JUMPDEST PUSH4 0x4E487B71 PUSH1 0xE0 SHL DUP2 MSTORE PUSH1 0x41 PUSH1 0x4 MSTORE PUSH1 0x24 SWAP1 REVERT JUMPDEST PUSH2 0x826 SWAP1 PUSH2 0xCF7 JUMP JUMPDEST PUSH2 0xE3 JUMPI DUP1 CODESIZE PUSH2 0x6E4 JUMP JUMPDEST PUSH1 0x40 MLOAD RETURNDATASIZE DUP5 DUP3 RETURNDATACOPY RETURNDATASIZE SWAP1 REVERT JUMPDEST PUSH2 0x845 SWAP1 PUSH2 0xCF7 JUMP JUMPDEST PUSH2 0xE3 JUMPI DUP1 CODESIZE PUSH2 0x663 JUMP JUMPDEST DUP4 DUP1 REVERT JUMPDEST PUSH1 0x40 MLOAD PUSH3 0x461BCD PUSH1 0xE5 SHL DUP2 MSTORE PUSH1 0x20 PUSH1 0x4 DUP3 ADD MSTORE PUSH1 0x16 PUSH1 0x24 DUP3 ADD MSTORE PUSH22 0x115490CC4C4D8DCE8818DC99585D194819985A5B1959 PUSH1 0x52 SHL PUSH1 0x44 DUP3 ADD MSTORE PUSH1 0x64 SWAP1 REVERT JUMPDEST DUP2 DUP1 DUP1 SWAP3 CALLVALUE SUB CALLER GAS CALL RETURNDATASIZE ISZERO PUSH2 0x904 JUMPI RETURNDATASIZE PUSH2 0x8AB DUP2 PUSH2 0xD43 JUMP JUMPDEST SWAP1 PUSH2 0x8B9 PUSH1 0x40 MLOAD SWAP3 DUP4 PUSH2 0xD21 JUMP JUMPDEST DUP2 MSTORE DUP5 PUSH1 0x20 RETURNDATASIZE SWAP3 ADD RETURNDATACOPY JUMPDEST ISZERO PUSH2 0x8CF JUMPI DUP3 CODESIZE PUSH2 0x500 JUMP JUMPDEST PUSH1 0x40 MLOAD PUSH3 0x461BCD PUSH1 0xE5 SHL DUP2 MSTORE PUSH1 0x20 PUSH1 0x4 DUP3 ADD MSTORE PUSH1 0xD PUSH1 0x24 DUP3 ADD MSTORE PUSH13 0x1499599D5B990819985A5B1959 PUSH1 0x9A SHL PUSH1 0x44 DUP3 ADD MSTORE PUSH1 0x64 SWAP1 REVERT JUMPDEST PUSH2 0x8C3 JUMP JUMPDEST PUSH4 0x4E487B71 PUSH1 0xE0 SHL DUP5 MSTORE PUSH1 0x11 PUSH1 0x4 MSTORE PUSH1 0x24 DUP5 REVERT JUMPDEST DUP1 EXTCODESIZE ISZERO PUSH2 0x965 JUMPI DUP5 DUP3 SWAP2 PUSH1 0x4 PUSH1 0x40 MLOAD DUP1 SWAP5 DUP2 SWAP4 PUSH4 0x1CB26BF PUSH1 0xE6 SHL DUP4 MSTORE GAS CALL DUP1 ISZERO PUSH2 0x95A JUMPI ISZERO PUSH2 0x4EC JUMPI PUSH2 0x953 SWAP1 SWAP5 SWAP2 SWAP5 PUSH2 0xCF7 JUMP JUMPDEST SWAP3 CODESIZE PUSH2 0x4EC JUMP JUMPDEST PUSH1 0x40 MLOAD RETURNDATASIZE DUP8 DUP3 RETURNDATACOPY RETURNDATASIZE SWAP1 REVERT JUMPDEST DUP5 DUP1 REVERT JUMPDEST PUSH1 0x40 MLOAD PUSH3 0x461BCD PUSH1 0xE5 SHL DUP2 MSTORE PUSH1 0x20 PUSH1 0x4 DUP3 ADD MSTORE PUSH1 0x10 PUSH1 0x24 DUP3 ADD MSTORE PUSH16 0x496E73756666696369656E7420666565 PUSH1 0x80 SHL PUSH1 0x44 DUP3 ADD MSTORE PUSH1 0x64 SWAP1 REVERT JUMPDEST SWAP1 SWAP2 POP PUSH1 0x20 DUP2 RETURNDATASIZE PUSH1 0x20 GT PUSH2 0x9CD JUMPI JUMPDEST DUP2 PUSH2 0x9BD PUSH1 0x20 SWAP4 DUP4 PUSH2 0xD21 JUMP JUMPDEST DUP2 ADD SUB SLT PUSH2 0x965 JUMPI MLOAD SWAP1 CODESIZE PUSH2 0x4DE JUMP JUMPDEST RETURNDATASIZE SWAP2 POP PUSH2 0x9B0 JUMP JUMPDEST PUSH1 0x40 MLOAD PUSH3 0x461BCD PUSH1 0xE5 SHL DUP2 MSTORE PUSH1 0x20 PUSH1 0x4 DUP3 ADD MSTORE PUSH1 0x16 PUSH1 0x24 DUP3 ADD MSTORE PUSH22 0x24B73B30B634B2103932B9B2B93B32903330B1BA37B9 PUSH1 0x51 SHL PUSH1 0x44 DUP3 ADD MSTORE PUSH1 0x64 SWAP1 REVERT JUMPDEST PUSH1 0x40 MLOAD PUSH3 0x461BCD PUSH1 0xE5 SHL DUP2 MSTORE PUSH1 0x20 PUSH1 0x4 DUP3 ADD MSTORE PUSH1 0x19 PUSH1 0x24 DUP3 ADD MSTORE PUSH32 0x496E76616C696420636F6C6C61746572616C20666163746F7200000000000000 PUSH1 0x44 DUP3 ADD MSTORE PUSH1 0x64 SWAP1 REVERT JUMPDEST PUSH1 0x40 MLOAD PUSH3 0x461BCD PUSH1 0xE5 SHL DUP2 MSTORE PUSH1 0x20 PUSH1 0x4 DUP3 ADD MSTORE PUSH1 0x15 PUSH1 0x24 DUP3 ADD MSTORE PUSH21 0x496E76616C69642061737365742061646472657373 PUSH1 0x58 SHL PUSH1 0x44 DUP3 ADD MSTORE PUSH1 0x64 SWAP1 REVERT JUMPDEST PUSH1 0x40 MLOAD PUSH3 0x461BCD PUSH1 0xE5 SHL DUP2 MSTORE PUSH1 0x20 PUSH1 0x4 DUP3 ADD MSTORE PUSH1 0x13 PUSH1 0x24 DUP3 ADD MSTORE PUSH19 0x506F6F6C20616C726561647920657869737473 PUSH1 0x68 SHL PUSH1 0x44 DUP3 ADD MSTORE PUSH1 0x64 SWAP1 REVERT JUMPDEST DUP3 DUP1 REVERT JUMPDEST POP CALLVALUE PUSH2 0xE3 JUMPI DUP1 PUSH1 0x3 NOT CALLDATASIZE ADD SLT PUSH2 0xE3 JUMPI PUSH2 0xAED PUSH2 0xDE6 JUMP JUMPDEST DUP1 SLOAD PUSH1 0x1 PUSH1 0x1 PUSH1 0xA0 SHL SUB NOT DUP2 AND DUP3 SSTORE DUP2 SWAP1 PUSH1 0x1 PUSH1 0x1 PUSH1 0xA0 SHL SUB AND PUSH32 0x8BE0079C531659141344CD1FD0A4F28419497F9722A3DAAFE3B4186F6B6457E0 DUP3 DUP1 LOG3 DUP1 RETURN JUMPDEST POP CALLVALUE PUSH2 0xE3 JUMPI DUP1 PUSH1 0x3 NOT CALLDATASIZE ADD SLT PUSH2 0xE3 JUMPI PUSH1 0x40 MLOAD PUSH32 0x0 PUSH1 0x1 PUSH1 0x1 PUSH1 0xA0 SHL SUB AND DUP2 MSTORE PUSH1 0x20 SWAP1 RETURN JUMPDEST POP CALLVALUE PUSH2 0xE3 JUMPI PUSH1 0x20 CALLDATASIZE PUSH1 0x3 NOT ADD SLT PUSH2 0xE3 JUMPI PUSH2 0xB8D PUSH2 0xCDC JUMP JUMPDEST PUSH2 0xB95 PUSH2 0xDE6 JUMP JUMPDEST PUSH1 0x1 PUSH1 0x1 PUSH1 0xA0 SHL SUB SWAP1 DUP2 AND SWAP1 DUP2 ISZERO PUSH2 0xBE4 JUMPI PUSH1 0x3 SLOAD DUP3 PUSH1 0x1 PUSH1 0x1 PUSH1 0x60 SHL SUB PUSH1 0xA0 SHL DUP3 AND OR PUSH1 0x3 SSTORE AND PUSH32 0x56B5F80D8CAC1479698AA7D01605FD6111E90B15FC4D2B377417F46034876CBD DUP4 DUP1 LOG3 DUP1 RETURN JUMPDEST PUSH1 0x40 MLOAD PUSH3 0x461BCD PUSH1 0xE5 SHL DUP2 MSTORE PUSH1 0x20 PUSH1 0x4 DUP3 ADD MSTORE PUSH1 0x16 PUSH1 0x24 DUP3 ADD MSTORE PUSH22 0x496E76616C6964206F7261636C652061646472657373 PUSH1 0x50 SHL PUSH1 0x44 DUP3 ADD MSTORE PUSH1 0x64 SWAP1 REVERT JUMPDEST POP CALLVALUE PUSH2 0xE3 JUMPI PUSH1 0x20 CALLDATASIZE PUSH1 0x3 NOT ADD SLT PUSH2 0xE3 JUMPI PUSH1 0x4 CALLDATALOAD SWAP1 PUSH1 0x2 SLOAD DUP3 LT ISZERO PUSH2 0xE3 JUMPI PUSH1 0x20 PUSH2 0xC4D DUP4 PUSH2 0xC8F JUMP JUMPDEST SWAP1 SLOAD PUSH1 0x40 MLOAD PUSH1 0x3 SWAP3 SWAP1 SWAP3 SHL SHR PUSH1 0x1 PUSH1 0x1 PUSH1 0xA0 SHL SUB AND DUP2 MSTORE RETURN JUMPDEST SWAP1 POP CALLVALUE PUSH2 0xC8B JUMPI DUP2 PUSH1 0x3 NOT CALLDATASIZE ADD SLT PUSH2 0xC8B JUMPI PUSH1 0x3 SLOAD PUSH1 0x1 PUSH1 0x1 PUSH1 0xA0 SHL SUB AND DUP2 MSTORE PUSH1 0x20 SWAP1 RETURN JUMPDEST POP DUP1 REVERT JUMPDEST PUSH1 0x2 SLOAD DUP2 LT ISZERO PUSH2 0xCC6 JUMPI PUSH1 0x2 PUSH1 0x0 MSTORE PUSH32 0x405787FA12A823E0F2B7631CC41B3BA8828B3321CA811111FA75CD3AA3BB5ACE ADD SWAP1 PUSH1 0x0 SWAP1 JUMP JUMPDEST PUSH4 0x4E487B71 PUSH1 0xE0 SHL PUSH1 0x0 MSTORE PUSH1 0x32 PUSH1 0x4 MSTORE PUSH1 0x24 PUSH1 0x0 REVERT JUMPDEST PUSH1 0x4 CALLDATALOAD SWAP1 PUSH1 0x1 PUSH1 0x1 PUSH1 0xA0 SHL SUB DUP3 AND DUP3 SUB PUSH2 0xCF2 JUMPI JUMP JUMPDEST PUSH1 0x0 DUP1 REVERT JUMPDEST PUSH8 0xFFFFFFFFFFFFFFFF DUP2 GT PUSH2 0xD0B JUMPI PUSH1 0x40 MSTORE JUMP JUMPDEST PUSH4 0x4E487B71 PUSH1 0xE0 SHL PUSH1 0x0 MSTORE PUSH1 0x41 PUSH1 0x4 MSTORE PUSH1 0x24 PUSH1 0x0 REVERT JUMPDEST SWAP1 PUSH1 0x1F DUP1 NOT SWAP2 ADD AND DUP2 ADD SWAP1 DUP2 LT PUSH8 0xFFFFFFFFFFFFFFFF DUP3 GT OR PUSH2 0xD0B JUMPI PUSH1 0x40 MSTORE JUMP JUMPDEST PUSH8 0xFFFFFFFFFFFFFFFF DUP2 GT PUSH2 0xD0B JUMPI PUSH1 0x1F ADD PUSH1 0x1F NOT AND PUSH1 0x20 ADD SWAP1 JUMP JUMPDEST DUP2 PUSH1 0x1F DUP3 ADD SLT ISZERO PUSH2 0xCF2 JUMPI DUP1 CALLDATALOAD SWAP1 PUSH2 0xD76 DUP3 PUSH2 0xD43 JUMP JUMPDEST SWAP3 PUSH2 0xD84 PUSH1 0x40 MLOAD SWAP5 DUP6 PUSH2 0xD21 JUMP JUMPDEST DUP3 DUP5 MSTORE PUSH1 0x20 DUP4 DUP4 ADD ADD GT PUSH2 0xCF2 JUMPI DUP2 PUSH1 0x0 SWAP3 PUSH1 0x20 DUP1 SWAP4 ADD DUP4 DUP7 ADD CALLDATACOPY DUP4 ADD ADD MSTORE SWAP1 JUMP JUMPDEST SWAP2 SWAP1 DUP3 MLOAD SWAP3 DUP4 DUP3 MSTORE PUSH1 0x0 JUMPDEST DUP5 DUP2 LT PUSH2 0xDD2 JUMPI POP POP DUP3 PUSH1 0x0 PUSH1 0x20 DUP1 SWAP5 SWAP6 DUP5 ADD ADD MSTORE PUSH1 0x1F DUP1 NOT SWAP2 ADD AND ADD ADD SWAP1 JUMP JUMPDEST PUSH1 0x20 DUP2 DUP4 ADD DUP2 ADD MLOAD DUP5 DUP4 ADD DUP3 ADD MSTORE ADD PUSH2 0xDB1 JUMP JUMPDEST PUSH1 0x0 SLOAD PUSH1 0x1 PUSH1 0x1 PUSH1 0xA0 SHL SUB AND CALLER SUB PUSH2 0xDFA JUMPI JUMP JUMPDEST PUSH1 0x64 PUSH1 0x40 MLOAD PUSH3 0x461BCD PUSH1 0xE5 SHL DUP2 MSTORE PUSH1 0x20 PUSH1 0x4 DUP3 ADD MSTORE PUSH1 0x20 PUSH1 0x24 DUP3 ADD MSTORE PUSH32 0x4F776E61626C653A2063616C6C6572206973206E6F7420746865206F776E6572 PUSH1 0x44 DUP3 ADD MSTORE REVERT INVALID 0xAB 0xD7 0x21 COINBASE PUSH23 0x7F72CFD7C24DD6BEAD76FE5BBB725957B4568000C0597F 0x4C 0xAA 0xCE JUMPDEST LOG2 PUSH5 0x6970667358 0x22 SLT KECCAK256 0xF6 ISZERO NOT 0xE2 XOR 0xCE SWAP9 PUSH29 0x414719556C338AAABA685C687DC252D9536442293E47BC164736F6C63 NUMBER STOP ADDMOD AND STOP CALLER "},"methodIdentifiers":{"allPools(uint256)":"41d1de97","assetToPools(address)":"9c3798c8","createLendingPool(address,string,string,uint256,uint256)":"8807694e","feeCollector()":"c415b95c","getAllPools()":"d88ff1f4","getPoolCount()":"8eec5d70","implementation()":"5c60da1b","interestRateModel()":"f3fdb15a","owner()":"8da5cb5b","priceOracle()":"2630c12f","renounceOwnership()":"715018a6","setInterestRateModel(address)":"8bcd4016","setPriceOracle(address)":"530e784f","transferOwnership(address)":"f2fde38b"}}}}}