{"contracts/defi/LendingPool.sol":{"LendingPool":{"abi":[{"inputs":[],"stateMutability":"nonpayable","type":"constructor"},{"anonymous":false,"inputs":[{"indexed":true,"internalType":"address","name":"owner","type":"address"},{"indexed":true,"internalType":"address","name":"spender","type":"address"},{"indexed":false,"internalType":"uint256","name":"value","type":"uint256"}],"name":"Approval","type":"event"},{"anonymous":false,"inputs":[{"indexed":true,"internalType":"address","name":"user","type":"address"},{"indexed":false,"internalType":"uint256","name":"amount","type":"uint256"}],"name":"Borrow","type":"event"},{"anonymous":false,"inputs":[{"indexed":true,"internalType":"address","name":"user","type":"address"},{"indexed":false,"internalType":"uint256","name":"amount","type":"uint256"}],"name":"Deposit","type":"event"},{"anonymous":false,"inputs":[{"indexed":false,"internalType":"uint256","name":"interestAmount","type":"uint256"}],"name":"InterestAccrued","type":"event"},{"anonymous":false,"inputs":[{"indexed":true,"internalType":"address","name":"previousOwner","type":"address"},{"indexed":true,"internalType":"address","name":"newOwner","type":"address"}],"name":"OwnershipTransferred","type":"event"},{"anonymous":false,"inputs":[{"indexed":false,"internalType":"uint256","name":"feeAmount","type":"uint256"}],"name":"ProtocolFeePaid","type":"event"},{"anonymous":false,"inputs":[{"indexed":true,"internalType":"address","name":"user","type":"address"},{"indexed":false,"internalType":"uint256","name":"amount","type":"uint256"}],"name":"Repay","type":"event"},{"anonymous":false,"inputs":[{"indexed":false,"internalType":"uint256","name":"balance","type":"uint256"}],"name":"ReservesUpdated","type":"event"},{"anonymous":false,"inputs":[{"indexed":true,"internalType":"address","name":"from","type":"address"},{"indexed":true,"internalType":"address","name":"to","type":"address"},{"indexed":false,"internalType":"uint256","name":"value","type":"uint256"}],"name":"Transfer","type":"event"},{"anonymous":false,"inputs":[{"indexed":true,"internalType":"address","name":"user","type":"address"},{"indexed":false,"internalType":"uint256","name":"amount","type":"uint256"}],"name":"Withdraw","type":"event"},{"inputs":[],"name":"BIPS","outputs":[{"internalType":"uint256","name":"","type":"uint256"}],"stateMutability":"view","type":"function"},{"inputs":[],"name":"accrueInterest","outputs":[],"stateMutability":"nonpayable","type":"function"},{"inputs":[{"internalType":"address","name":"owner","type":"address"},{"internalType":"address","name":"spender","type":"address"}],"name":"allowance","outputs":[{"internalType":"uint256","name":"","type":"uint256"}],"stateMutability":"view","type":"function"},{"inputs":[{"internalType":"address","name":"spender","type":"address"},{"internalType":"uint256","name":"amount","type":"uint256"}],"name":"approve","outputs":[{"internalType":"bool","name":"","type":"bool"}],"stateMutability":"nonpayable","type":"function"},{"inputs":[],"name":"asset","outputs":[{"internalType":"contract IERC20","name":"","type":"address"}],"stateMutability":"view","type":"function"},{"inputs":[{"internalType":"address","name":"account","type":"address"}],"name":"balanceOf","outputs":[{"internalType":"uint256","name":"","type":"uint256"}],"stateMutability":"view","type":"function"},{"inputs":[{"internalType":"uint256","name":"amount","type":"uint256"}],"name":"borrow","outputs":[],"stateMutability":"nonpayable","type":"function"},{"inputs":[{"internalType":"address","name":"","type":"address"}],"name":"borrowed","outputs":[{"internalType":"uint256","name":"","type":"uint256"}],"stateMutability":"view","type":"function"},{"inputs":[],"name":"collateralFactorBps","outputs":[{"internalType":"uint256","name":"","type":"uint256"}],"stateMutability":"view","type":"function"},{"inputs":[],"name":"decimals","outputs":[{"internalType":"uint8","name":"","type":"uint8"}],"stateMutability":"view","type":"function"},{"inputs":[{"internalType":"address","name":"spender","type":"address"},{"internalType":"uint256","name":"subtractedValue","type":"uint256"}],"name":"decreaseAllowance","outputs":[{"internalType":"bool","name":"","type":"bool"}],"stateMutability":"nonpayable","type":"function"},{"inputs":[{"internalType":"uint256","name":"amount","type":"uint256"}],"name":"deposit","outputs":[],"stateMutability":"nonpayable","type":"function"},{"inputs":[],"name":"factory","outputs":[{"internalType":"address","name":"","type":"address"}],"stateMutability":"view","type":"function"},{"inputs":[],"name":"feeCollector","outputs":[{"internalType":"address","name":"","type":"address"}],"stateMutability":"view","type":"function"},{"inputs":[{"internalType":"address","name":"user","type":"address"}],"name":"getUserCollateralValue","outputs":[{"internalType":"uint256","name":"","type":"uint256"}],"stateMutability":"view","type":"function"},{"inputs":[{"internalType":"address","name":"user","type":"address"}],"name":"healthFactor","outputs":[{"internalType":"uint256","name":"","type":"uint256"}],"stateMutability":"view","type":"function"},{"inputs":[{"internalType":"address","name":"spender","type":"address"},{"internalType":"uint256","name":"addedValue","type":"uint256"}],"name":"increaseAllowance","outputs":[{"internalType":"bool","name":"","type":"bool"}],"stateMutability":"nonpayable","type":"function"},{"inputs":[{"internalType":"address","name":"_asset","type":"address"},{"internalType":"string","name":"_name","type":"string"},{"internalType":"string","name":"_symbol","type":"string"},{"internalType":"uint256","name":"_collateralFactorBps","type":"uint256"},{"internalType":"uint256","name":"_reserveFactorBps","type":"uint256"},{"internalType":"address","name":"_priceOracle","type":"address"},{"internalType":"address","name":"_interestRateModel","type":"address"},{"internalType":"address","name":"_feeCollector","type":"address"}],"name":"initialize","outputs":[],"stateMutability":"nonpayable","type":"function"},{"inputs":[],"name":"initialized","outputs":[{"internalType":"bool","name":"","type":"bool"}],"stateMutability":"view","type":"function"},{"inputs":[],"name":"interestRateModel","outputs":[{"internalType":"address","name":"","type":"address"}],"stateMutability":"view","type":"function"},{"inputs":[],"name":"lastAccrualTimestamp","outputs":[{"internalType":"uint256","name":"","type":"uint256"}],"stateMutability":"view","type":"function"},{"inputs":[],"name":"name","outputs":[{"internalType":"string","name":"","type":"string"}],"stateMutability":"view","type":"function"},{"inputs":[],"name":"owner","outputs":[{"internalType":"address","name":"","type":"address"}],"stateMutability":"view","type":"function"},{"inputs":[],"name":"priceOracle","outputs":[{"internalType":"address","name":"","type":"address"}],"stateMutability":"view","type":"function"},{"inputs":[],"name":"renounceOwnership","outputs":[],"stateMutability":"nonpayable","type":"function"},{"inputs":[{"internalType":"uint256","name":"amount","type":"uint256"}],"name":"repay","outputs":[],"stateMutability":"nonpayable","type":"function"},{"inputs":[],"name":"reserveBalance","outputs":[{"internalType":"uint256","name":"","type":"uint256"}],"stateMutability":"view","type":"function"},{"inputs":[],"name":"reserveFactorBps","outputs":[{"internalType":"uint256","name":"","type":"uint256"}],"stateMutability":"view","type":"function"},{"inputs":[{"internalType":"address","name":"","type":"address"}],"name":"supportedCollateralAssets","outputs":[{"internalType":"bool","name":"","type":"bool"}],"stateMutability":"view","type":"function"},{"inputs":[],"name":"symbol","outputs":[{"internalType":"string","name":"","type":"string"}],"stateMutability":"view","type":"function"},{"inputs":[],"name":"totalAssets","outputs":[{"internalType":"uint256","name":"","type":"uint256"}],"stateMutability":"view","type":"function"},{"inputs":[],"name":"totalBorrowed","outputs":[{"internalType":"uint256","name":"","type":"uint256"}],"stateMutability":"view","type":"function"},{"inputs":[],"name":"totalSupply","outputs":[{"internalType":"uint256","name":"","type":"uint256"}],"stateMutability":"view","type":"function"},{"inputs":[{"internalType":"address","name":"to","type":"address"},{"internalType":"uint256","name":"amount","type":"uint256"}],"name":"transfer","outputs":[{"internalType":"bool","name":"","type":"bool"}],"stateMutability":"nonpayable","type":"function"},{"inputs":[{"internalType":"address","name":"from","type":"address"},{"internalType":"address","name":"to","type":"address"},{"internalType":"uint256","name":"amount","type":"uint256"}],"name":"transferFrom","outputs":[{"internalType":"bool","name":"","type":"bool"}],"stateMutability":"nonpayable","type":"function"},{"inputs":[{"internalType":"address","name":"newOwner","type":"address"}],"name":"transferOwnership","outputs":[],"stateMutability":"nonpayable","type":"function"},{"inputs":[{"internalType":"address","name":"","type":"address"},{"internalType":"address","name":"","type":"address"}],"name":"userCollateralAssets","outputs":[{"internalType":"bool","name":"","type":"bool"}],"stateMutability":"view","type":"function"},{"inputs":[{"internalType":"uint256","name":"amount","type":"uint256"}],"name":"withdraw","outputs":[],"stateMutability":"nonpayable","type":"function"}],"evm":{"bytecode":{"linkReferences":{},"object":"6080604052346200032557620000146200032a565b6200001e6200032a565b815190916001600160401b038083116200022557600380546001948582811c92169485156200031a575b6020958684101462000304578190601f93848111620002ae575b50869084831160011462000247576000926200023b575b505060001982851b1c191690861b1782555b8551928311620002255760049384548681811c911680156200021a575b828210146200020557828111620001ba575b50809184116001146200014c57508293949560009362000140575b505082851b92600019911b1c19161790555b60058054336001600160a01b0319821681179092556040519291906001600160a01b03167f8be0079c531659141344cd1fd0a4f28419497f9722a3daafe3b4186f6b6457e0600080a3600655611bc790816200034f8239f35b015191503880620000d5565b9190601f198416968560005283600020936000905b898210620001a25750508487989796971062000187575b50505050811b019055620000e7565b01519060f884600019921b161c191690553880808062000178565b80898597829496860151815501960193019062000161565b85600052816000208380870160051c820192848810620001fb575b0160051c019087905b828110620001ee575050620000ba565b60008155018790620001de565b92508192620001d5565b602286634e487b7160e01b6000525260246000fd5b90607f1690620000a8565b634e487b7160e01b600052604160045260246000fd5b01519050388062000079565b90889350601f1983169186600052886000209260005b8a8282106200029757505084116200027e575b505050811b0182556200008b565b015160001983871b60f8161c1916905538808062000270565b8385015186558c979095019493840193016200025d565b90915084600052866000208480850160051c820192898610620002fa575b918a91869594930160051c01915b828110620002ea57505062000062565b600081558594508a9101620002da565b92508192620002cc565b634e487b7160e01b600052602260045260246000fd5b91607f169162000048565b600080fd5b60405190602082016001600160401b0381118382101762000225576040526000825256fe608060408181526004918236101561001657600080fd5b600092833560e01c91826301e1d1141461138c5750816306fdde03146112955781630941cb3d1461125d578163095ea7b314611233578163158ef93e1461120c57816318160ddd146111ed57816323b872dd146111235781632630c12f146110fa5781632e1a7d4d14610ec3578163313ce56714610ea757816336f9323914610b7a578163371fd8e614610a9357816338d52e0f14610a6a5781633950935114610a1a5781634c19386c146109ff5781636ad9f9df146109d957816370a0823114610939578163715018a61461097c57816375417da6146109395781637f5007ed1461091a5781638da5cb5b146108f157816395d89b41146107ec578163a10954fe146107cd578163a457c2d714610728578163a6872fb4146106da578163a6afed95146106bb578163a9059cbb1461068a578163a9fae35c1461064c578163b6b55f2514610544578163c0789dcb14610525578163c415b95c146104fc578163c45a0155146104d3578163c5ebeaec14610346578163c87bed7014610327578163dd62ed3e146102de578163f2fde38b1461020e57508063f3fdb15a146101e65763f7050031146101c757600080fd5b346101e257816003193601126101e257602090516127108152f35b5080fd5b50346101e257816003193601126101e257600d5490516001600160a01b039091168152602090f35b9050346102da5760203660031901126102da5761022961147a565b9061023261197a565b6001600160a01b03918216928315610288575050600554826bffffffffffffffffffffffff60a01b821617600555167f8be0079c531659141344cd1fd0a4f28419497f9722a3daafe3b4186f6b6457e08380a380f35b906020608492519162461bcd60e51b8352820152602660248201527f4f776e61626c653a206e6577206f776e657220697320746865207a65726f206160448201526564647265737360d01b6064820152fd5b8280fd5b5050346101e257806003193601126101e257806020926102fc61147a565b610304611495565b6001600160a01b0391821683526001865283832091168252845220549051908152f35b5050346101e257816003193601126101e257602090600b549051908152f35b919050346102da57602090816003193601126104cf5782359261036761187b565b61036f6115fa565b60075482516370a0823160e01b815230818401526001600160a01b03929185908290602490829087165afa9081156104c5579086918891610490575b501061045457338652600f84528286206103c6868254611546565b90556127106103d433611589565b1061041c57509061040d847fcbc04eca7e9da35cb1393a6135a199ca52e450d5e9251cbd99f7847d33a3675094933390600754166118d1565b519283523392a2600160065580f35b825162461bcd60e51b815290810184905260126024820152712ab73432b0b63a343c903837b9b4ba34b7b760711b6044820152606490fd5b825162461bcd60e51b81529081018490526016602482015275496e73756666696369656e74206c697175696469747960501b6044820152606490fd5b809250868092503d83116104be575b6104a981836114ab565b810103126104ba57859051386103ab565b8680fd5b503d61049f565b84513d89823e3d90fd5b8380fd5b5050346101e257816003193601126101e25760125490516001600160a01b039091168152602090f35b5050346101e257816003193601126101e257600e5490516001600160a01b039091168152602090f35b5050346101e257816003193601126101e2576020906008549051908152f35b919050346102da5760203660031901126102da5781359161056361187b565b61056b6115fa565b600754610586908490309033906001600160a01b0316611921565b331561060a575061059982600254611546565b600255338352826020528083208281540190558051828152837fddf252ad1be2c89b69c2b068fc378daa952ba7f163c4a11628f55a4df523b3ef60203393a3519081527fe1fffcc4923d04b559f4d29a8bfc6cda04eb5b0d3c460751c2402c5c5cc9109c60203392a2600160065580f35b6020606492519162461bcd60e51b8352820152601f60248201527f45524332303a206d696e7420746f20746865207a65726f2061646472657373006044820152fd5b5050346101e25760203660031901126101e25760209160ff9082906001600160a01b0361067761147a565b1681526011855220541690519015158152f35b5050346101e257806003193601126101e2576020906106b46106aa61147a565b602435903361170d565b5160018152f35b83346106d757806003193601126106d7576106d46115fa565b80f35b80fd5b5050346101e257806003193601126101e25760ff816020936106fa61147a565b610702611495565b6001600160a01b0391821683526010875283832091168252855220549151911615158152f35b905082346106d757826003193601126106d75761074361147a565b918360243592338152600160205281812060018060a01b038616825260205220549082821061077c576020856106b4858503873361160b565b608490602086519162461bcd60e51b8352820152602560248201527f45524332303a2064656372656173656420616c6c6f77616e63652062656c6f77604482015264207a65726f60d81b6064820152fd5b5050346101e257816003193601126101e2576020906009549051908152f35b8383346101e257816003193601126101e25780519180938054916001908360011c92600185169485156108e7575b60209586861081146108d4578589529081156108b05750600114610858575b610854878761084a828c03836114ab565b519182918261144e565b0390f35b81529295507f8a35acfbc15ff81a39ae7d344fd709f28e8600b4aa8c65c6b64bfe7fe36bd19b5b82841061089d57505050826108549461084a92820101948680610839565b805486850188015292860192810161087f565b60ff19168887015250505050151560051b830101925061084a826108548680610839565b634e487b7160e01b845260228352602484fd5b93607f169361081a565b5050346101e257816003193601126101e25760055490516001600160a01b039091168152602090f35b5050346101e257816003193601126101e257602090600a549051908152f35b5050346101e25760203660031901126101e25760209061097561095a61147a565b6001600160a01b031660009081526020819052604090205490565b9051908152f35b83346106d757806003193601126106d75761099561197a565b600580546001600160a01b0319811690915581906001600160a01b03167f8be0079c531659141344cd1fd0a4f28419497f9722a3daafe3b4186f6b6457e08280a380f35b5050346101e25760203660031901126101e2576020906109756109fa61147a565b611589565b5050346101e257816003193601126101e25751908152602090f35b5050346101e257806003193601126101e2576106b4602092610a63610a3d61147a565b338352600186528483206001600160a01b03821684528652918490205460243590611546565b903361160b565b5050346101e257816003193601126101e25760075490516001600160a01b039091168152602090f35b9050346102da5760203660031901126102da578035610ab061187b565b610ab86115fa565b338452600f60205282842054918215610b44575081811115610b3c5750905b338352600f602052808320610aed838254611569565b9055600754610b0a908390309033906001600160a01b0316611921565b519081527f5c16de4f8b59bd9caf0f49a545f25819a895ed223294290b408242e72a59423160203392a2600160065580f35b905090610ad7565b606490602085519162461bcd60e51b8352820152601060248201526f4e6f206465627420746f20726570617960801b6044820152fd5b9050346102da576101003660031901126102da57610b9661147a565b91602480359167ffffffffffffffff928381116104ba57610bba90369086016114ff565b6044938435908111610ea357610bd390369087016114ff565b916064928335916084359360a4359560018060a01b03998a8816809803610e9f5760c435998b8b16809b03610e9b5760e4359b808d16809d03610e975760ff9d600e549e8f60a01c16610e615716998a15610e33578915610e04578b15610dd1578c15610d9b57612710808911610d5c578911610d255750505050610cec9291610cbc6021926bffffffffffffffffffffffff60a01b99338b60125416176012558a6007541617600755602d835182610c9682945180926020808601910161142b565b81016c0813195b991a5b99c8141bdbdb609a1b602082015203600d8101835201906114ab565b518092601b60fa1b6020830152610cdc815180926020868601910161142b565b81010360018101835201906114ab565b600a55600b5581600c541617600c55600d541617600d5542600855600160a01b916affffffffffffffffffffff60a81b161717600e5580f35b9060167524b73b30b634b2103932b9b2b93b32903330b1ba37b960511b92602088519562461bcd60e51b8752860152840152820152fd5b509060197f496e76616c696420636f6c6c61746572616c20666163746f720000000000000092602088519562461bcd60e51b8752860152840152820152fd5b9060157424b73b30b634b2103332b29031b7b63632b1ba37b960591b92602088519562461bcd60e51b8752860152840152820152fd5b90601271125b9d985b1a59081c985d19481b5bd9195b60721b92602088519562461bcd60e51b8752860152840152820152fd5b90600e6d496e76616c6964206f7261636c6560901b92602088519562461bcd60e51b8752860152840152820152fd5b90600d6c125b9d985b1a5908185cdcd95d609a1b92602088519562461bcd60e51b8752860152840152820152fd5b505072105b1c9958591e481a5b9a5d1a585b1a5e9959606a1b9060138b602088519562461bcd60e51b8752860152840152820152fd5b8e80fd5b8d80fd5b8c80fd5b8780fd5b5050346101e257816003193601126101e2576020905160128152f35b919050346102da57602090816003193601126104cf57823592610ee461187b565b610eec6115fa565b3385528483528382862054106110c257338552600f83528185205461103a575b3315610fef573385528483528185205490848210610fa1575090837f884edad9ce6fa2440d8a54cc123490eb96d2768479d49ff9c7366125a94243649392338752868452038186205583600254036002558481518581527fddf252ad1be2c89b69c2b068fc378daa952ba7f163c4a11628f55a4df523b3ef843392a360075461040d90859033906001600160a01b03166118d1565b825162461bcd60e51b8152908101849052602260248201527f45524332303a206275726e20616d6f756e7420657863656564732062616c616e604482015261636560f01b6064820152608490fd5b82608492519162461bcd60e51b8352820152602160248201527f45524332303a206275726e2066726f6d20746865207a65726f206164647265736044820152607360f81b6064820152fd5b8483526127106110596110508685892054611569565b600a5490611576565b04338652600f8452828620541115610f0c5782608492519162461bcd60e51b8352820152602d60248201527f5769746864726177616c20776f756c6420636175736520756e646572636f6c6c60448201526c30ba32b930b634bd30ba34b7b760991b6064820152fd5b82606492519162461bcd60e51b83528201526014602482015273496e73756666696369656e742062616c616e636560601b6044820152fd5b5050346101e257816003193601126101e257600c5490516001600160a01b039091168152602090f35b839150346101e25760603660031901126101e25761113f61147a565b611147611495565b91846044359460018060a01b038416815260016020528181203382526020522054906000198203611181575b6020866106b487878761170d565b8482106111aa575091839161119f602096956106b49503338361160b565b919394819350611173565b606490602087519162461bcd60e51b8352820152601d60248201527f45524332303a20696e73756666696369656e7420616c6c6f77616e63650000006044820152fd5b5050346101e257816003193601126101e2576020906002549051908152f35b5050346101e257816003193601126101e25760209060ff600e5460a01c1690519015158152f35b5050346101e257806003193601126101e2576020906106b461125361147a565b602435903361160b565b5050346101e25760203660031901126101e25760209181906001600160a01b0361128561147a565b168152600f845220549051908152f35b919050346102da57826003193601126102da5780519183600354906001908260011c92600181168015611382575b602095868610821461136f575084885290811561134d57506001146112f4575b610854868661084a828b03836114ab565b929550600383527fc2575a0e9e593c00f959f8c92f12db2869c3395a3b0502d05e2516446f71f85b5b82841061133a57505050826108549461084a9282010194386112e3565b805486850188015292860192810161131d565b60ff191687860152505050151560051b830101925061084a82610854386112e3565b634e487b7160e01b845260229052602483fd5b93607f16936112c3565b9150346104cf57836003193601126104cf576007546370a0823160e01b83523091830191909152602090829060249082906001600160a01b03165afa9283156114205780936113e6575b6020836109758660095490611569565b9092506020833d602011611418575b81611402602093836114ab565b810103126106d7575061097560209251926113d6565b3d91506113f5565b8251903d90823e3d90fd5b60005b83811061143e5750506000910152565b818101518382015260200161142e565b6040916020825261146e815180928160208601526020868601910161142b565b601f01601f1916010190565b600435906001600160a01b038216820361149057565b600080fd5b602435906001600160a01b038216820361149057565b90601f8019910116810190811067ffffffffffffffff8211176114cd57604052565b634e487b7160e01b600052604160045260246000fd5b67ffffffffffffffff81116114cd57601f01601f191660200190565b81601f8201121561149057803590611516826114e3565b9261152460405194856114ab565b8284526020838301011161149057816000926020809301838601378301015290565b9190820180921161155357565b634e487b7160e01b600052601160045260246000fd5b9190820391821161155357565b8181029291811591840414171561155357565b6001600160a01b0381166000908152600f60205260409020549081156115f2576001600160a01b0316600090815260208190526040902054600a546127109182916115d391611576565b049081156115ea5780820291820403611553570490565b505050600090565b505060001990565b60085442146116095742600855565b565b6001600160a01b039081169182156116bc571691821561166c5760207f8c5be1e5ebec7d5bd14f71427d1e84f3dd0314c0f7b2291e5b200ac8c7c3b925918360005260018252604060002085600052825280604060002055604051908152a3565b60405162461bcd60e51b815260206004820152602260248201527f45524332303a20617070726f766520746f20746865207a65726f206164647265604482015261737360f01b6064820152608490fd5b60405162461bcd60e51b8152602060048201526024808201527f45524332303a20617070726f76652066726f6d20746865207a65726f206164646044820152637265737360e01b6064820152608490fd5b6001600160a01b0390811691821561182857169182156117d75760008281528060205260408120549180831061178357604082827fddf252ad1be2c89b69c2b068fc378daa952ba7f163c4a11628f55a4df523b3ef958760209652828652038282205586815220818154019055604051908152a3565b60405162461bcd60e51b815260206004820152602660248201527f45524332303a207472616e7366657220616d6f756e7420657863656564732062604482015265616c616e636560d01b6064820152608490fd5b60405162461bcd60e51b815260206004820152602360248201527f45524332303a207472616e7366657220746f20746865207a65726f206164647260448201526265737360e81b6064820152608490fd5b60405162461bcd60e51b815260206004820152602560248201527f45524332303a207472616e736665722066726f6d20746865207a65726f206164604482015264647265737360d81b6064820152608490fd5b60026006541461188c576002600655565b60405162461bcd60e51b815260206004820152601f60248201527f5265656e7472616e637947756172643a207265656e7472616e742063616c6c006044820152606490fd5b60405163a9059cbb60e01b60208201526001600160a01b039092166024830152604480830193909352918152608081019167ffffffffffffffff8311828410176114cd57611609926040526119d2565b6040516323b872dd60e01b60208201526001600160a01b03928316602482015292909116604483015260648083019390935291815260a081019181831067ffffffffffffffff8411176114cd57611609926040526119d2565b6005546001600160a01b0316330361198e57565b606460405162461bcd60e51b815260206004820152602060248201527f4f776e61626c653a2063616c6c6572206973206e6f7420746865206f776e65726044820152fd5b60018060a01b031690604051604081019080821067ffffffffffffffff8311176114cd57611a62916040526020938482527f5361666545524332303a206c6f772d6c6576656c2063616c6c206661696c6564858301526000808587829751910182855af13d15611af8573d91611a47836114e3565b92611a5560405194856114ab565b83523d868885013e611afc565b805191821591848315611ad4575b505050905015611a7d5750565b6084906040519062461bcd60e51b82526004820152602a60248201527f5361666545524332303a204552433230206f7065726174696f6e20646964206e6044820152691bdd081cdd58d8d9595960b21b6064820152fd5b9193818094500103126101e2578201519081151582036106d7575080388084611a70565b6060915b91929015611b5e5750815115611b10575090565b3b15611b195790565b60405162461bcd60e51b815260206004820152601d60248201527f416464726573733a2063616c6c20746f206e6f6e2d636f6e74726163740000006044820152606490fd5b825190915015611b715750805190602001fd5b60405162461bcd60e51b8152908190611b8d906004830161144e565b0390fdfea2646970667358221220e9c309186c5a9ac16c41424e6ddd8eb84b28a86ba769707984d69444be35b9e164736f6c63430008160033","opcodes":"PUSH1 0x80 PUSH1 0x40 MSTORE CALLVALUE PUSH3 0x325 JUMPI PUSH3 0x14 PUSH3 0x32A JUMP JUMPDEST PUSH3 0x1E PUSH3 0x32A JUMP JUMPDEST DUP2 MLOAD SWAP1 SWAP2 PUSH1 0x1 PUSH1 0x1 PUSH1 0x40 SHL SUB DUP1 DUP4 GT PUSH3 0x225 JUMPI PUSH1 0x3 DUP1 SLOAD PUSH1 0x1 SWAP5 DUP6 DUP3 DUP2 SHR SWAP3 AND SWAP5 DUP6 ISZERO PUSH3 0x31A JUMPI JUMPDEST PUSH1 0x20 SWAP6 DUP7 DUP5 LT EQ PUSH3 0x304 JUMPI DUP2 SWAP1 PUSH1 0x1F SWAP4 DUP5 DUP2 GT PUSH3 0x2AE JUMPI JUMPDEST POP DUP7 SWAP1 DUP5 DUP4 GT PUSH1 0x1 EQ PUSH3 0x247 JUMPI PUSH1 0x0 SWAP3 PUSH3 0x23B JUMPI JUMPDEST POP POP PUSH1 0x0 NOT DUP3 DUP6 SHL SHR NOT AND SWAP1 DUP7 SHL OR DUP3 SSTORE JUMPDEST DUP6 MLOAD SWAP3 DUP4 GT PUSH3 0x225 JUMPI PUSH1 0x4 SWAP4 DUP5 SLOAD DUP7 DUP2 DUP2 SHR SWAP2 AND DUP1 ISZERO PUSH3 0x21A JUMPI JUMPDEST DUP3 DUP3 LT EQ PUSH3 0x205 JUMPI DUP3 DUP2 GT PUSH3 0x1BA JUMPI JUMPDEST POP DUP1 SWAP2 DUP5 GT PUSH1 0x1 EQ PUSH3 0x14C JUMPI POP DUP3 SWAP4 SWAP5 SWAP6 PUSH1 0x0 SWAP4 PUSH3 0x140 JUMPI JUMPDEST POP POP DUP3 DUP6 SHL SWAP3 PUSH1 0x0 NOT SWAP2 SHL SHR NOT AND OR SWAP1 SSTORE JUMPDEST PUSH1 0x5 DUP1 SLOAD CALLER PUSH1 0x1 PUSH1 0x1 PUSH1 0xA0 SHL SUB NOT DUP3 AND DUP2 OR SWAP1 SWAP3 SSTORE PUSH1 0x40 MLOAD SWAP3 SWAP2 SWAP1 PUSH1 0x1 PUSH1 0x1 PUSH1 0xA0 SHL SUB AND PUSH32 0x8BE0079C531659141344CD1FD0A4F28419497F9722A3DAAFE3B4186F6B6457E0 PUSH1 0x0 DUP1 LOG3 PUSH1 0x6 SSTORE PUSH2 0x1BC7 SWAP1 DUP2 PUSH3 0x34F DUP3 CODECOPY RETURN JUMPDEST ADD MLOAD SWAP2 POP CODESIZE DUP1 PUSH3 0xD5 JUMP JUMPDEST SWAP2 SWAP1 PUSH1 0x1F NOT DUP5 AND SWAP7 DUP6 PUSH1 0x0 MSTORE DUP4 PUSH1 0x0 KECCAK256 SWAP4 PUSH1 0x0 SWAP1 JUMPDEST DUP10 DUP3 LT PUSH3 0x1A2 JUMPI POP POP DUP5 DUP8 SWAP9 SWAP8 SWAP7 SWAP8 LT PUSH3 0x187 JUMPI JUMPDEST POP POP POP POP DUP2 SHL ADD SWAP1 SSTORE PUSH3 0xE7 JUMP JUMPDEST ADD MLOAD SWAP1 PUSH1 0xF8 DUP5 PUSH1 0x0 NOT SWAP3 SHL AND SHR NOT AND SWAP1 SSTORE CODESIZE DUP1 DUP1 DUP1 PUSH3 0x178 JUMP JUMPDEST DUP1 DUP10 DUP6 SWAP8 DUP3 SWAP5 SWAP7 DUP7 ADD MLOAD DUP2 SSTORE ADD SWAP7 ADD SWAP4 ADD SWAP1 PUSH3 0x161 JUMP JUMPDEST DUP6 PUSH1 0x0 MSTORE DUP2 PUSH1 0x0 KECCAK256 DUP4 DUP1 DUP8 ADD PUSH1 0x5 SHR DUP3 ADD SWAP3 DUP5 DUP9 LT PUSH3 0x1FB JUMPI JUMPDEST ADD PUSH1 0x5 SHR ADD SWAP1 DUP8 SWAP1 JUMPDEST DUP3 DUP2 LT PUSH3 0x1EE JUMPI POP POP PUSH3 0xBA JUMP JUMPDEST PUSH1 0x0 DUP2 SSTORE ADD DUP8 SWAP1 PUSH3 0x1DE JUMP JUMPDEST SWAP3 POP DUP2 SWAP3 PUSH3 0x1D5 JUMP JUMPDEST PUSH1 0x22 DUP7 PUSH4 0x4E487B71 PUSH1 0xE0 SHL PUSH1 0x0 MSTORE MSTORE PUSH1 0x24 PUSH1 0x0 REVERT JUMPDEST SWAP1 PUSH1 0x7F AND SWAP1 PUSH3 0xA8 JUMP JUMPDEST PUSH4 0x4E487B71 PUSH1 0xE0 SHL PUSH1 0x0 MSTORE PUSH1 0x41 PUSH1 0x4 MSTORE PUSH1 0x24 PUSH1 0x0 REVERT JUMPDEST ADD MLOAD SWAP1 POP CODESIZE DUP1 PUSH3 0x79 JUMP JUMPDEST SWAP1 DUP9 SWAP4 POP PUSH1 0x1F NOT DUP4 AND SWAP2 DUP7 PUSH1 0x0 MSTORE DUP9 PUSH1 0x0 KECCAK256 SWAP3 PUSH1 0x0 JUMPDEST DUP11 DUP3 DUP3 LT PUSH3 0x297 JUMPI POP POP DUP5 GT PUSH3 0x27E JUMPI JUMPDEST POP POP POP DUP2 SHL ADD DUP3 SSTORE PUSH3 0x8B JUMP JUMPDEST ADD MLOAD PUSH1 0x0 NOT DUP4 DUP8 SHL PUSH1 0xF8 AND SHR NOT AND SWAP1 SSTORE CODESIZE DUP1 DUP1 PUSH3 0x270 JUMP JUMPDEST DUP4 DUP6 ADD MLOAD DUP7 SSTORE DUP13 SWAP8 SWAP1 SWAP6 ADD SWAP5 SWAP4 DUP5 ADD SWAP4 ADD PUSH3 0x25D JUMP JUMPDEST SWAP1 SWAP2 POP DUP5 PUSH1 0x0 MSTORE DUP7 PUSH1 0x0 KECCAK256 DUP5 DUP1 DUP6 ADD PUSH1 0x5 SHR DUP3 ADD SWAP3 DUP10 DUP7 LT PUSH3 0x2FA JUMPI JUMPDEST SWAP2 DUP11 SWAP2 DUP7 SWAP6 SWAP5 SWAP4 ADD PUSH1 0x5 SHR ADD SWAP2 JUMPDEST DUP3 DUP2 LT PUSH3 0x2EA JUMPI POP POP PUSH3 0x62 JUMP JUMPDEST PUSH1 0x0 DUP2 SSTORE DUP6 SWAP5 POP DUP11 SWAP2 ADD PUSH3 0x2DA JUMP JUMPDEST SWAP3 POP DUP2 SWAP3 PUSH3 0x2CC JUMP JUMPDEST PUSH4 0x4E487B71 PUSH1 0xE0 SHL PUSH1 0x0 MSTORE PUSH1 0x22 PUSH1 0x4 MSTORE PUSH1 0x24 PUSH1 0x0 REVERT JUMPDEST SWAP2 PUSH1 0x7F AND SWAP2 PUSH3 0x48 JUMP JUMPDEST PUSH1 0x0 DUP1 REVERT JUMPDEST PUSH1 0x40 MLOAD SWAP1 PUSH1 0x20 DUP3 ADD PUSH1 0x1 PUSH1 0x1 PUSH1 0x40 SHL SUB DUP2 GT DUP4 DUP3 LT OR PUSH3 0x225 JUMPI PUSH1 0x40 MSTORE PUSH1 0x0 DUP3 MSTORE JUMP INVALID PUSH1 0x80 PUSH1 0x40 DUP2 DUP2 MSTORE PUSH1 0x4 SWAP2 DUP3 CALLDATASIZE LT ISZERO PUSH2 0x16 JUMPI PUSH1 0x0 DUP1 REVERT JUMPDEST PUSH1 0x0 SWAP3 DUP4 CALLDATALOAD PUSH1 0xE0 SHR SWAP2 DUP3 PUSH4 0x1E1D114 EQ PUSH2 0x138C JUMPI POP DUP2 PUSH4 0x6FDDE03 EQ PUSH2 0x1295 JUMPI DUP2 PUSH4 0x941CB3D EQ PUSH2 0x125D JUMPI DUP2 PUSH4 0x95EA7B3 EQ PUSH2 0x1233 JUMPI DUP2 PUSH4 0x158EF93E EQ PUSH2 0x120C JUMPI DUP2 PUSH4 0x18160DDD EQ PUSH2 0x11ED JUMPI DUP2 PUSH4 0x23B872DD EQ PUSH2 0x1123 JUMPI DUP2 PUSH4 0x2630C12F EQ PUSH2 0x10FA JUMPI DUP2 PUSH4 0x2E1A7D4D EQ PUSH2 0xEC3 JUMPI DUP2 PUSH4 0x313CE567 EQ PUSH2 0xEA7 JUMPI DUP2 PUSH4 0x36F93239 EQ PUSH2 0xB7A JUMPI DUP2 PUSH4 0x371FD8E6 EQ PUSH2 0xA93 JUMPI DUP2 PUSH4 0x38D52E0F EQ PUSH2 0xA6A JUMPI DUP2 PUSH4 0x39509351 EQ PUSH2 0xA1A JUMPI DUP2 PUSH4 0x4C19386C EQ PUSH2 0x9FF JUMPI DUP2 PUSH4 0x6AD9F9DF EQ PUSH2 0x9D9 JUMPI DUP2 PUSH4 0x70A08231 EQ PUSH2 0x939 JUMPI DUP2 PUSH4 0x715018A6 EQ PUSH2 0x97C JUMPI DUP2 PUSH4 0x75417DA6 EQ PUSH2 0x939 JUMPI DUP2 PUSH4 0x7F5007ED EQ PUSH2 0x91A JUMPI DUP2 PUSH4 0x8DA5CB5B EQ PUSH2 0x8F1 JUMPI DUP2 PUSH4 0x95D89B41 EQ PUSH2 0x7EC JUMPI DUP2 PUSH4 0xA10954FE EQ PUSH2 0x7CD JUMPI DUP2 PUSH4 0xA457C2D7 EQ PUSH2 0x728 JUMPI DUP2 PUSH4 0xA6872FB4 EQ PUSH2 0x6DA JUMPI DUP2 PUSH4 0xA6AFED95 EQ PUSH2 0x6BB JUMPI DUP2 PUSH4 0xA9059CBB EQ PUSH2 0x68A JUMPI DUP2 PUSH4 0xA9FAE35C EQ PUSH2 0x64C JUMPI DUP2 PUSH4 0xB6B55F25 EQ PUSH2 0x544 JUMPI DUP2 PUSH4 0xC0789DCB EQ PUSH2 0x525 JUMPI DUP2 PUSH4 0xC415B95C EQ PUSH2 0x4FC JUMPI DUP2 PUSH4 0xC45A0155 EQ PUSH2 0x4D3 JUMPI DUP2 PUSH4 0xC5EBEAEC EQ PUSH2 0x346 JUMPI DUP2 PUSH4 0xC87BED70 EQ PUSH2 0x327 JUMPI DUP2 PUSH4 0xDD62ED3E EQ PUSH2 0x2DE JUMPI DUP2 PUSH4 0xF2FDE38B EQ PUSH2 0x20E JUMPI POP DUP1 PUSH4 0xF3FDB15A EQ PUSH2 0x1E6 JUMPI PUSH4 0xF7050031 EQ PUSH2 0x1C7 JUMPI PUSH1 0x0 DUP1 REVERT JUMPDEST CALLVALUE PUSH2 0x1E2 JUMPI DUP2 PUSH1 0x3 NOT CALLDATASIZE ADD SLT PUSH2 0x1E2 JUMPI PUSH1 0x20 SWAP1 MLOAD PUSH2 0x2710 DUP2 MSTORE RETURN JUMPDEST POP DUP1 REVERT JUMPDEST POP CALLVALUE PUSH2 0x1E2 JUMPI DUP2 PUSH1 0x3 NOT CALLDATASIZE ADD SLT PUSH2 0x1E2 JUMPI PUSH1 0xD SLOAD SWAP1 MLOAD PUSH1 0x1 PUSH1 0x1 PUSH1 0xA0 SHL SUB SWAP1 SWAP2 AND DUP2 MSTORE PUSH1 0x20 SWAP1 RETURN JUMPDEST SWAP1 POP CALLVALUE PUSH2 0x2DA JUMPI PUSH1 0x20 CALLDATASIZE PUSH1 0x3 NOT ADD SLT PUSH2 0x2DA JUMPI PUSH2 0x229 PUSH2 0x147A JUMP JUMPDEST SWAP1 PUSH2 0x232 PUSH2 0x197A JUMP JUMPDEST PUSH1 0x1 PUSH1 0x1 PUSH1 0xA0 SHL SUB SWAP2 DUP3 AND SWAP3 DUP4 ISZERO PUSH2 0x288 JUMPI POP POP PUSH1 0x5 SLOAD DUP3 PUSH12 0xFFFFFFFFFFFFFFFFFFFFFFFF PUSH1 0xA0 SHL DUP3 AND OR PUSH1 0x5 SSTORE AND PUSH32 0x8BE0079C531659141344CD1FD0A4F28419497F9722A3DAAFE3B4186F6B6457E0 DUP4 DUP1 LOG3 DUP1 RETURN JUMPDEST SWAP1 PUSH1 0x20 PUSH1 0x84 SWAP3 MLOAD SWAP2 PUSH3 0x461BCD PUSH1 0xE5 SHL DUP4 MSTORE DUP3 ADD MSTORE PUSH1 0x26 PUSH1 0x24 DUP3 ADD MSTORE PUSH32 0x4F776E61626C653A206E6577206F776E657220697320746865207A65726F2061 PUSH1 0x44 DUP3 ADD MSTORE PUSH6 0x646472657373 PUSH1 0xD0 SHL PUSH1 0x64 DUP3 ADD MSTORE REVERT JUMPDEST DUP3 DUP1 REVERT JUMPDEST POP POP CALLVALUE PUSH2 0x1E2 JUMPI DUP1 PUSH1 0x3 NOT CALLDATASIZE ADD SLT PUSH2 0x1E2 JUMPI DUP1 PUSH1 0x20 SWAP3 PUSH2 0x2FC PUSH2 0x147A JUMP JUMPDEST PUSH2 0x304 PUSH2 0x1495 JUMP JUMPDEST PUSH1 0x1 PUSH1 0x1 PUSH1 0xA0 SHL SUB SWAP2 DUP3 AND DUP4 MSTORE PUSH1 0x1 DUP7 MSTORE DUP4 DUP4 KECCAK256 SWAP2 AND DUP3 MSTORE DUP5 MSTORE KECCAK256 SLOAD SWAP1 MLOAD SWAP1 DUP2 MSTORE RETURN JUMPDEST POP POP CALLVALUE PUSH2 0x1E2 JUMPI DUP2 PUSH1 0x3 NOT CALLDATASIZE ADD SLT PUSH2 0x1E2 JUMPI PUSH1 0x20 SWAP1 PUSH1 0xB SLOAD SWAP1 MLOAD SWAP1 DUP2 MSTORE RETURN JUMPDEST SWAP2 SWAP1 POP CALLVALUE PUSH2 0x2DA JUMPI PUSH1 0x20 SWAP1 DUP2 PUSH1 0x3 NOT CALLDATASIZE ADD SLT PUSH2 0x4CF JUMPI DUP3 CALLDATALOAD SWAP3 PUSH2 0x367 PUSH2 0x187B JUMP JUMPDEST PUSH2 0x36F PUSH2 0x15FA JUMP JUMPDEST PUSH1 0x7 SLOAD DUP3 MLOAD PUSH4 0x70A08231 PUSH1 0xE0 SHL DUP2 MSTORE ADDRESS DUP2 DUP5 ADD MSTORE PUSH1 0x1 PUSH1 0x1 PUSH1 0xA0 SHL SUB SWAP3 SWAP2 DUP6 SWAP1 DUP3 SWAP1 PUSH1 0x24 SWAP1 DUP3 SWAP1 DUP8 AND GAS STATICCALL SWAP1 DUP2 ISZERO PUSH2 0x4C5 JUMPI SWAP1 DUP7 SWAP2 DUP9 SWAP2 PUSH2 0x490 JUMPI JUMPDEST POP LT PUSH2 0x454 JUMPI CALLER DUP7 MSTORE PUSH1 0xF DUP5 MSTORE DUP3 DUP7 KECCAK256 PUSH2 0x3C6 DUP7 DUP3 SLOAD PUSH2 0x1546 JUMP JUMPDEST SWAP1 SSTORE PUSH2 0x2710 PUSH2 0x3D4 CALLER PUSH2 0x1589 JUMP JUMPDEST LT PUSH2 0x41C JUMPI POP SWAP1 PUSH2 0x40D DUP5 PUSH32 0xCBC04ECA7E9DA35CB1393A6135A199CA52E450D5E9251CBD99F7847D33A36750 SWAP5 SWAP4 CALLER SWAP1 PUSH1 0x7 SLOAD AND PUSH2 0x18D1 JUMP JUMPDEST MLOAD SWAP3 DUP4 MSTORE CALLER SWAP3 LOG2 PUSH1 0x1 PUSH1 0x6 SSTORE DUP1 RETURN JUMPDEST DUP3 MLOAD PUSH3 0x461BCD PUSH1 0xE5 SHL DUP2 MSTORE SWAP1 DUP2 ADD DUP5 SWAP1 MSTORE PUSH1 0x12 PUSH1 0x24 DUP3 ADD MSTORE PUSH18 0x2AB73432B0B63A343C903837B9B4BA34B7B7 PUSH1 0x71 SHL PUSH1 0x44 DUP3 ADD MSTORE PUSH1 0x64 SWAP1 REVERT JUMPDEST DUP3 MLOAD PUSH3 0x461BCD PUSH1 0xE5 SHL DUP2 MSTORE SWAP1 DUP2 ADD DUP5 SWAP1 MSTORE PUSH1 0x16 PUSH1 0x24 DUP3 ADD MSTORE PUSH22 0x496E73756666696369656E74206C6971756964697479 PUSH1 0x50 SHL PUSH1 0x44 DUP3 ADD MSTORE PUSH1 0x64 SWAP1 REVERT JUMPDEST DUP1 SWAP3 POP DUP7 DUP1 SWAP3 POP RETURNDATASIZE DUP4 GT PUSH2 0x4BE JUMPI JUMPDEST PUSH2 0x4A9 DUP2 DUP4 PUSH2 0x14AB JUMP JUMPDEST DUP2 ADD SUB SLT PUSH2 0x4BA JUMPI DUP6 SWAP1 MLOAD CODESIZE PUSH2 0x3AB JUMP JUMPDEST DUP7 DUP1 REVERT JUMPDEST POP RETURNDATASIZE PUSH2 0x49F JUMP JUMPDEST DUP5 MLOAD RETURNDATASIZE DUP10 DUP3 RETURNDATACOPY RETURNDATASIZE SWAP1 REVERT JUMPDEST DUP4 DUP1 REVERT JUMPDEST POP POP CALLVALUE PUSH2 0x1E2 JUMPI DUP2 PUSH1 0x3 NOT CALLDATASIZE ADD SLT PUSH2 0x1E2 JUMPI PUSH1 0x12 SLOAD SWAP1 MLOAD PUSH1 0x1 PUSH1 0x1 PUSH1 0xA0 SHL SUB SWAP1 SWAP2 AND DUP2 MSTORE PUSH1 0x20 SWAP1 RETURN JUMPDEST POP POP CALLVALUE PUSH2 0x1E2 JUMPI DUP2 PUSH1 0x3 NOT CALLDATASIZE ADD SLT PUSH2 0x1E2 JUMPI PUSH1 0xE SLOAD SWAP1 MLOAD PUSH1 0x1 PUSH1 0x1 PUSH1 0xA0 SHL SUB SWAP1 SWAP2 AND DUP2 MSTORE PUSH1 0x20 SWAP1 RETURN JUMPDEST POP POP CALLVALUE PUSH2 0x1E2 JUMPI DUP2 PUSH1 0x3 NOT CALLDATASIZE ADD SLT PUSH2 0x1E2 JUMPI PUSH1 0x20 SWAP1 PUSH1 0x8 SLOAD SWAP1 MLOAD SWAP1 DUP2 MSTORE RETURN JUMPDEST SWAP2 SWAP1 POP CALLVALUE PUSH2 0x2DA JUMPI PUSH1 0x20 CALLDATASIZE PUSH1 0x3 NOT ADD SLT PUSH2 0x2DA JUMPI DUP2 CALLDATALOAD SWAP2 PUSH2 0x563 PUSH2 0x187B JUMP JUMPDEST PUSH2 0x56B PUSH2 0x15FA JUMP JUMPDEST PUSH1 0x7 SLOAD PUSH2 0x586 SWAP1 DUP5 SWAP1 ADDRESS SWAP1 CALLER SWAP1 PUSH1 0x1 PUSH1 0x1 PUSH1 0xA0 SHL SUB AND PUSH2 0x1921 JUMP JUMPDEST CALLER ISZERO PUSH2 0x60A JUMPI POP PUSH2 0x599 DUP3 PUSH1 0x2 SLOAD PUSH2 0x1546 JUMP JUMPDEST PUSH1 0x2 SSTORE CALLER DUP4 MSTORE DUP3 PUSH1 0x20 MSTORE DUP1 DUP4 KECCAK256 DUP3 DUP2 SLOAD ADD SWAP1 SSTORE DUP1 MLOAD DUP3 DUP2 MSTORE DUP4 PUSH32 0xDDF252AD1BE2C89B69C2B068FC378DAA952BA7F163C4A11628F55A4DF523B3EF PUSH1 0x20 CALLER SWAP4 LOG3 MLOAD SWAP1 DUP2 MSTORE PUSH32 0xE1FFFCC4923D04B559F4D29A8BFC6CDA04EB5B0D3C460751C2402C5C5CC9109C PUSH1 0x20 CALLER SWAP3 LOG2 PUSH1 0x1 PUSH1 0x6 SSTORE DUP1 RETURN JUMPDEST PUSH1 0x20 PUSH1 0x64 SWAP3 MLOAD SWAP2 PUSH3 0x461BCD PUSH1 0xE5 SHL DUP4 MSTORE DUP3 ADD MSTORE PUSH1 0x1F PUSH1 0x24 DUP3 ADD MSTORE PUSH32 0x45524332303A206D696E7420746F20746865207A65726F206164647265737300 PUSH1 0x44 DUP3 ADD MSTORE REVERT JUMPDEST POP POP CALLVALUE PUSH2 0x1E2 JUMPI PUSH1 0x20 CALLDATASIZE PUSH1 0x3 NOT ADD SLT PUSH2 0x1E2 JUMPI PUSH1 0x20 SWAP2 PUSH1 0xFF SWAP1 DUP3 SWAP1 PUSH1 0x1 PUSH1 0x1 PUSH1 0xA0 SHL SUB PUSH2 0x677 PUSH2 0x147A JUMP JUMPDEST AND DUP2 MSTORE PUSH1 0x11 DUP6 MSTORE KECCAK256 SLOAD AND SWAP1 MLOAD SWAP1 ISZERO ISZERO DUP2 MSTORE RETURN JUMPDEST POP POP CALLVALUE PUSH2 0x1E2 JUMPI DUP1 PUSH1 0x3 NOT CALLDATASIZE ADD SLT PUSH2 0x1E2 JUMPI PUSH1 0x20 SWAP1 PUSH2 0x6B4 PUSH2 0x6AA PUSH2 0x147A JUMP JUMPDEST PUSH1 0x24 CALLDATALOAD SWAP1 CALLER PUSH2 0x170D JUMP JUMPDEST MLOAD PUSH1 0x1 DUP2 MSTORE RETURN JUMPDEST DUP4 CALLVALUE PUSH2 0x6D7 JUMPI DUP1 PUSH1 0x3 NOT CALLDATASIZE ADD SLT PUSH2 0x6D7 JUMPI PUSH2 0x6D4 PUSH2 0x15FA JUMP JUMPDEST DUP1 RETURN JUMPDEST DUP1 REVERT JUMPDEST POP POP CALLVALUE PUSH2 0x1E2 JUMPI DUP1 PUSH1 0x3 NOT CALLDATASIZE ADD SLT PUSH2 0x1E2 JUMPI PUSH1 0xFF DUP2 PUSH1 0x20 SWAP4 PUSH2 0x6FA PUSH2 0x147A JUMP JUMPDEST PUSH2 0x702 PUSH2 0x1495 JUMP JUMPDEST PUSH1 0x1 PUSH1 0x1 PUSH1 0xA0 SHL SUB SWAP2 DUP3 AND DUP4 MSTORE PUSH1 0x10 DUP8 MSTORE DUP4 DUP4 KECCAK256 SWAP2 AND DUP3 MSTORE DUP6 MSTORE KECCAK256 SLOAD SWAP2 MLOAD SWAP2 AND ISZERO ISZERO DUP2 MSTORE RETURN JUMPDEST SWAP1 POP DUP3 CALLVALUE PUSH2 0x6D7 JUMPI DUP3 PUSH1 0x3 NOT CALLDATASIZE ADD SLT PUSH2 0x6D7 JUMPI PUSH2 0x743 PUSH2 0x147A JUMP JUMPDEST SWAP2 DUP4 PUSH1 0x24 CALLDATALOAD SWAP3 CALLER DUP2 MSTORE PUSH1 0x1 PUSH1 0x20 MSTORE DUP2 DUP2 KECCAK256 PUSH1 0x1 DUP1 PUSH1 0xA0 SHL SUB DUP7 AND DUP3 MSTORE PUSH1 0x20 MSTORE KECCAK256 SLOAD SWAP1 DUP3 DUP3 LT PUSH2 0x77C JUMPI PUSH1 0x20 DUP6 PUSH2 0x6B4 DUP6 DUP6 SUB DUP8 CALLER PUSH2 0x160B JUMP JUMPDEST PUSH1 0x84 SWAP1 PUSH1 0x20 DUP7 MLOAD SWAP2 PUSH3 0x461BCD PUSH1 0xE5 SHL DUP4 MSTORE DUP3 ADD MSTORE PUSH1 0x25 PUSH1 0x24 DUP3 ADD MSTORE PUSH32 0x45524332303A2064656372656173656420616C6C6F77616E63652062656C6F77 PUSH1 0x44 DUP3 ADD MSTORE PUSH5 0x207A65726F PUSH1 0xD8 SHL PUSH1 0x64 DUP3 ADD MSTORE REVERT JUMPDEST POP POP CALLVALUE PUSH2 0x1E2 JUMPI DUP2 PUSH1 0x3 NOT CALLDATASIZE ADD SLT PUSH2 0x1E2 JUMPI PUSH1 0x20 SWAP1 PUSH1 0x9 SLOAD SWAP1 MLOAD SWAP1 DUP2 MSTORE RETURN JUMPDEST DUP4 DUP4 CALLVALUE PUSH2 0x1E2 JUMPI DUP2 PUSH1 0x3 NOT CALLDATASIZE ADD SLT PUSH2 0x1E2 JUMPI DUP1 MLOAD SWAP2 DUP1 SWAP4 DUP1 SLOAD SWAP2 PUSH1 0x1 SWAP1 DUP4 PUSH1 0x1 SHR SWAP3 PUSH1 0x1 DUP6 AND SWAP5 DUP6 ISZERO PUSH2 0x8E7 JUMPI JUMPDEST PUSH1 0x20 SWAP6 DUP7 DUP7 LT DUP2 EQ PUSH2 0x8D4 JUMPI DUP6 DUP10 MSTORE SWAP1 DUP2 ISZERO PUSH2 0x8B0 JUMPI POP PUSH1 0x1 EQ PUSH2 0x858 JUMPI JUMPDEST PUSH2 0x854 DUP8 DUP8 PUSH2 0x84A DUP3 DUP13 SUB DUP4 PUSH2 0x14AB JUMP JUMPDEST MLOAD SWAP2 DUP3 SWAP2 DUP3 PUSH2 0x144E JUMP JUMPDEST SUB SWAP1 RETURN JUMPDEST DUP2 MSTORE SWAP3 SWAP6 POP PUSH32 0x8A35ACFBC15FF81A39AE7D344FD709F28E8600B4AA8C65C6B64BFE7FE36BD19B JUMPDEST DUP3 DUP5 LT PUSH2 0x89D JUMPI POP POP POP DUP3 PUSH2 0x854 SWAP5 PUSH2 0x84A SWAP3 DUP3 ADD ADD SWAP5 DUP7 DUP1 PUSH2 0x839 JUMP JUMPDEST DUP1 SLOAD DUP7 DUP6 ADD DUP9 ADD MSTORE SWAP3 DUP7 ADD SWAP3 DUP2 ADD PUSH2 0x87F JUMP JUMPDEST PUSH1 0xFF NOT AND DUP9 DUP8 ADD MSTORE POP POP POP POP ISZERO ISZERO PUSH1 0x5 SHL DUP4 ADD ADD SWAP3 POP PUSH2 0x84A DUP3 PUSH2 0x854 DUP7 DUP1 PUSH2 0x839 JUMP JUMPDEST PUSH4 0x4E487B71 PUSH1 0xE0 SHL DUP5 MSTORE PUSH1 0x22 DUP4 MSTORE PUSH1 0x24 DUP5 REVERT JUMPDEST SWAP4 PUSH1 0x7F AND SWAP4 PUSH2 0x81A JUMP JUMPDEST POP POP CALLVALUE PUSH2 0x1E2 JUMPI DUP2 PUSH1 0x3 NOT CALLDATASIZE ADD SLT PUSH2 0x1E2 JUMPI PUSH1 0x5 SLOAD SWAP1 MLOAD PUSH1 0x1 PUSH1 0x1 PUSH1 0xA0 SHL SUB SWAP1 SWAP2 AND DUP2 MSTORE PUSH1 0x20 SWAP1 RETURN JUMPDEST POP POP CALLVALUE PUSH2 0x1E2 JUMPI DUP2 PUSH1 0x3 NOT CALLDATASIZE ADD SLT PUSH2 0x1E2 JUMPI PUSH1 0x20 SWAP1 PUSH1 0xA SLOAD SWAP1 MLOAD SWAP1 DUP2 MSTORE RETURN JUMPDEST POP POP CALLVALUE PUSH2 0x1E2 JUMPI PUSH1 0x20 CALLDATASIZE PUSH1 0x3 NOT ADD SLT PUSH2 0x1E2 JUMPI PUSH1 0x20 SWAP1 PUSH2 0x975 PUSH2 0x95A PUSH2 0x147A JUMP JUMPDEST PUSH1 0x1 PUSH1 0x1 PUSH1 0xA0 SHL SUB AND PUSH1 0x0 SWAP1 DUP2 MSTORE PUSH1 0x20 DUP2 SWAP1 MSTORE PUSH1 0x40 SWAP1 KECCAK256 SLOAD SWAP1 JUMP JUMPDEST SWAP1 MLOAD SWAP1 DUP2 MSTORE RETURN JUMPDEST DUP4 CALLVALUE PUSH2 0x6D7 JUMPI DUP1 PUSH1 0x3 NOT CALLDATASIZE ADD SLT PUSH2 0x6D7 JUMPI PUSH2 0x995 PUSH2 0x197A JUMP JUMPDEST PUSH1 0x5 DUP1 SLOAD PUSH1 0x1 PUSH1 0x1 PUSH1 0xA0 SHL SUB NOT DUP2 AND SWAP1 SWAP2 SSTORE DUP2 SWAP1 PUSH1 0x1 PUSH1 0x1 PUSH1 0xA0 SHL SUB AND PUSH32 0x8BE0079C531659141344CD1FD0A4F28419497F9722A3DAAFE3B4186F6B6457E0 DUP3 DUP1 LOG3 DUP1 RETURN JUMPDEST POP POP CALLVALUE PUSH2 0x1E2 JUMPI PUSH1 0x20 CALLDATASIZE PUSH1 0x3 NOT ADD SLT PUSH2 0x1E2 JUMPI PUSH1 0x20 SWAP1 PUSH2 0x975 PUSH2 0x9FA PUSH2 0x147A JUMP JUMPDEST PUSH2 0x1589 JUMP JUMPDEST POP POP CALLVALUE PUSH2 0x1E2 JUMPI DUP2 PUSH1 0x3 NOT CALLDATASIZE ADD SLT PUSH2 0x1E2 JUMPI MLOAD SWAP1 DUP2 MSTORE PUSH1 0x20 SWAP1 RETURN JUMPDEST POP POP CALLVALUE PUSH2 0x1E2 JUMPI DUP1 PUSH1 0x3 NOT CALLDATASIZE ADD SLT PUSH2 0x1E2 JUMPI PUSH2 0x6B4 PUSH1 0x20 SWAP3 PUSH2 0xA63 PUSH2 0xA3D PUSH2 0x147A JUMP JUMPDEST CALLER DUP4 MSTORE PUSH1 0x1 DUP7 MSTORE DUP5 DUP4 KECCAK256 PUSH1 0x1 PUSH1 0x1 PUSH1 0xA0 SHL SUB DUP3 AND DUP5 MSTORE DUP7 MSTORE SWAP2 DUP5 SWAP1 KECCAK256 SLOAD PUSH1 0x24 CALLDATALOAD SWAP1 PUSH2 0x1546 JUMP JUMPDEST SWAP1 CALLER PUSH2 0x160B JUMP JUMPDEST POP POP CALLVALUE PUSH2 0x1E2 JUMPI DUP2 PUSH1 0x3 NOT CALLDATASIZE ADD SLT PUSH2 0x1E2 JUMPI PUSH1 0x7 SLOAD SWAP1 MLOAD PUSH1 0x1 PUSH1 0x1 PUSH1 0xA0 SHL SUB SWAP1 SWAP2 AND DUP2 MSTORE PUSH1 0x20 SWAP1 RETURN JUMPDEST SWAP1 POP CALLVALUE PUSH2 0x2DA JUMPI PUSH1 0x20 CALLDATASIZE PUSH1 0x3 NOT ADD SLT PUSH2 0x2DA JUMPI DUP1 CALLDATALOAD PUSH2 0xAB0 PUSH2 0x187B JUMP JUMPDEST PUSH2 0xAB8 PUSH2 0x15FA JUMP JUMPDEST CALLER DUP5 MSTORE PUSH1 0xF PUSH1 0x20 MSTORE DUP3 DUP5 KECCAK256 SLOAD SWAP2 DUP3 ISZERO PUSH2 0xB44 JUMPI POP DUP2 DUP2 GT ISZERO PUSH2 0xB3C JUMPI POP SWAP1 JUMPDEST CALLER DUP4 MSTORE PUSH1 0xF PUSH1 0x20 MSTORE DUP1 DUP4 KECCAK256 PUSH2 0xAED DUP4 DUP3 SLOAD PUSH2 0x1569 JUMP JUMPDEST SWAP1 SSTORE PUSH1 0x7 SLOAD PUSH2 0xB0A SWAP1 DUP4 SWAP1 ADDRESS SWAP1 CALLER SWAP1 PUSH1 0x1 PUSH1 0x1 PUSH1 0xA0 SHL SUB AND PUSH2 0x1921 JUMP JUMPDEST MLOAD SWAP1 DUP2 MSTORE PUSH32 0x5C16DE4F8B59BD9CAF0F49A545F25819A895ED223294290B408242E72A594231 PUSH1 0x20 CALLER SWAP3 LOG2 PUSH1 0x1 PUSH1 0x6 SSTORE DUP1 RETURN JUMPDEST SWAP1 POP SWAP1 PUSH2 0xAD7 JUMP JUMPDEST PUSH1 0x64 SWAP1 PUSH1 0x20 DUP6 MLOAD SWAP2 PUSH3 0x461BCD PUSH1 0xE5 SHL DUP4 MSTORE DUP3 ADD MSTORE PUSH1 0x10 PUSH1 0x24 DUP3 ADD MSTORE PUSH16 0x4E6F206465627420746F207265706179 PUSH1 0x80 SHL PUSH1 0x44 DUP3 ADD MSTORE REVERT JUMPDEST SWAP1 POP CALLVALUE PUSH2 0x2DA JUMPI PUSH2 0x100 CALLDATASIZE PUSH1 0x3 NOT ADD SLT PUSH2 0x2DA JUMPI PUSH2 0xB96 PUSH2 0x147A JUMP JUMPDEST SWAP2 PUSH1 0x24 DUP1 CALLDATALOAD SWAP2 PUSH8 0xFFFFFFFFFFFFFFFF SWAP3 DUP4 DUP2 GT PUSH2 0x4BA JUMPI PUSH2 0xBBA SWAP1 CALLDATASIZE SWAP1 DUP7 ADD PUSH2 0x14FF JUMP JUMPDEST PUSH1 0x44 SWAP4 DUP5 CALLDATALOAD SWAP1 DUP2 GT PUSH2 0xEA3 JUMPI PUSH2 0xBD3 SWAP1 CALLDATASIZE SWAP1 DUP8 ADD PUSH2 0x14FF JUMP JUMPDEST SWAP2 PUSH1 0x64 SWAP3 DUP4 CALLDATALOAD SWAP2 PUSH1 0x84 CALLDATALOAD SWAP4 PUSH1 0xA4 CALLDATALOAD SWAP6 PUSH1 0x1 DUP1 PUSH1 0xA0 SHL SUB SWAP10 DUP11 DUP9 AND DUP1 SWAP9 SUB PUSH2 0xE9F JUMPI PUSH1 0xC4 CALLDATALOAD SWAP10 DUP12 DUP12 AND DUP1 SWAP12 SUB PUSH2 0xE9B JUMPI PUSH1 0xE4 CALLDATALOAD SWAP12 DUP1 DUP14 AND DUP1 SWAP14 SUB PUSH2 0xE97 JUMPI PUSH1 0xFF SWAP14 PUSH1 0xE SLOAD SWAP15 DUP16 PUSH1 0xA0 SHR AND PUSH2 0xE61 JUMPI AND SWAP10 DUP11 ISZERO PUSH2 0xE33 JUMPI DUP10 ISZERO PUSH2 0xE04 JUMPI DUP12 ISZERO PUSH2 0xDD1 JUMPI DUP13 ISZERO PUSH2 0xD9B JUMPI PUSH2 0x2710 DUP1 DUP10 GT PUSH2 0xD5C JUMPI DUP10 GT PUSH2 0xD25 JUMPI POP POP POP POP PUSH2 0xCEC SWAP3 SWAP2 PUSH2 0xCBC PUSH1 0x21 SWAP3 PUSH12 0xFFFFFFFFFFFFFFFFFFFFFFFF PUSH1 0xA0 SHL SWAP10 CALLER DUP12 PUSH1 0x12 SLOAD AND OR PUSH1 0x12 SSTORE DUP11 PUSH1 0x7 SLOAD AND OR PUSH1 0x7 SSTORE PUSH1 0x2D DUP4 MLOAD DUP3 PUSH2 0xC96 DUP3 SWAP5 MLOAD DUP1 SWAP3 PUSH1 0x20 DUP1 DUP7 ADD SWAP2 ADD PUSH2 0x142B JUMP JUMPDEST DUP2 ADD PUSH13 0x813195B991A5B99C8141BDBDB PUSH1 0x9A SHL PUSH1 0x20 DUP3 ADD MSTORE SUB PUSH1 0xD DUP2 ADD DUP4 MSTORE ADD SWAP1 PUSH2 0x14AB JUMP JUMPDEST MLOAD DUP1 SWAP3 PUSH1 0x1B PUSH1 0xFA SHL PUSH1 0x20 DUP4 ADD MSTORE PUSH2 0xCDC DUP2 MLOAD DUP1 SWAP3 PUSH1 0x20 DUP7 DUP7 ADD SWAP2 ADD PUSH2 0x142B JUMP JUMPDEST DUP2 ADD SUB PUSH1 0x1 DUP2 ADD DUP4 MSTORE ADD SWAP1 PUSH2 0x14AB JUMP JUMPDEST PUSH1 0xA SSTORE PUSH1 0xB SSTORE DUP2 PUSH1 0xC SLOAD AND OR PUSH1 0xC SSTORE PUSH1 0xD SLOAD AND OR PUSH1 0xD SSTORE TIMESTAMP PUSH1 0x8 SSTORE PUSH1 0x1 PUSH1 0xA0 SHL SWAP2 PUSH11 0xFFFFFFFFFFFFFFFFFFFFFF PUSH1 0xA8 SHL AND OR OR PUSH1 0xE SSTORE DUP1 RETURN JUMPDEST SWAP1 PUSH1 0x16 PUSH22 0x24B73B30B634B2103932B9B2B93B32903330B1BA37B9 PUSH1 0x51 SHL SWAP3 PUSH1 0x20 DUP9 MLOAD SWAP6 PUSH3 0x461BCD PUSH1 0xE5 SHL DUP8 MSTORE DUP7 ADD MSTORE DUP5 ADD MSTORE DUP3 ADD MSTORE REVERT JUMPDEST POP SWAP1 PUSH1 0x19 PUSH32 0x496E76616C696420636F6C6C61746572616C20666163746F7200000000000000 SWAP3 PUSH1 0x20 DUP9 MLOAD SWAP6 PUSH3 0x461BCD PUSH1 0xE5 SHL DUP8 MSTORE DUP7 ADD MSTORE DUP5 ADD MSTORE DUP3 ADD MSTORE REVERT JUMPDEST SWAP1 PUSH1 0x15 PUSH21 0x24B73B30B634B2103332B29031B7B63632B1BA37B9 PUSH1 0x59 SHL SWAP3 PUSH1 0x20 DUP9 MLOAD SWAP6 PUSH3 0x461BCD PUSH1 0xE5 SHL DUP8 MSTORE DUP7 ADD MSTORE DUP5 ADD MSTORE DUP3 ADD MSTORE REVERT JUMPDEST SWAP1 PUSH1 0x12 PUSH18 0x125B9D985B1A59081C985D19481B5BD9195B PUSH1 0x72 SHL SWAP3 PUSH1 0x20 DUP9 MLOAD SWAP6 PUSH3 0x461BCD PUSH1 0xE5 SHL DUP8 MSTORE DUP7 ADD MSTORE DUP5 ADD MSTORE DUP3 ADD MSTORE REVERT JUMPDEST SWAP1 PUSH1 0xE PUSH14 0x496E76616C6964206F7261636C65 PUSH1 0x90 SHL SWAP3 PUSH1 0x20 DUP9 MLOAD SWAP6 PUSH3 0x461BCD PUSH1 0xE5 SHL DUP8 MSTORE DUP7 ADD MSTORE DUP5 ADD MSTORE DUP3 ADD MSTORE REVERT JUMPDEST SWAP1 PUSH1 0xD PUSH13 0x125B9D985B1A5908185CDCD95D PUSH1 0x9A SHL SWAP3 PUSH1 0x20 DUP9 MLOAD SWAP6 PUSH3 0x461BCD PUSH1 0xE5 SHL DUP8 MSTORE DUP7 ADD MSTORE DUP5 ADD MSTORE DUP3 ADD MSTORE REVERT JUMPDEST POP POP PUSH19 0x105B1C9958591E481A5B9A5D1A585B1A5E9959 PUSH1 0x6A SHL SWAP1 PUSH1 0x13 DUP12 PUSH1 0x20 DUP9 MLOAD SWAP6 PUSH3 0x461BCD PUSH1 0xE5 SHL DUP8 MSTORE DUP7 ADD MSTORE DUP5 ADD MSTORE DUP3 ADD MSTORE REVERT JUMPDEST DUP15 DUP1 REVERT JUMPDEST DUP14 DUP1 REVERT JUMPDEST DUP13 DUP1 REVERT JUMPDEST DUP8 DUP1 REVERT JUMPDEST POP POP CALLVALUE PUSH2 0x1E2 JUMPI DUP2 PUSH1 0x3 NOT CALLDATASIZE ADD SLT PUSH2 0x1E2 JUMPI PUSH1 0x20 SWAP1 MLOAD PUSH1 0x12 DUP2 MSTORE RETURN JUMPDEST SWAP2 SWAP1 POP CALLVALUE PUSH2 0x2DA JUMPI PUSH1 0x20 SWAP1 DUP2 PUSH1 0x3 NOT CALLDATASIZE ADD SLT PUSH2 0x4CF JUMPI DUP3 CALLDATALOAD SWAP3 PUSH2 0xEE4 PUSH2 0x187B JUMP JUMPDEST PUSH2 0xEEC PUSH2 0x15FA JUMP JUMPDEST CALLER DUP6 MSTORE DUP5 DUP4 MSTORE DUP4 DUP3 DUP7 KECCAK256 SLOAD LT PUSH2 0x10C2 JUMPI CALLER DUP6 MSTORE PUSH1 0xF DUP4 MSTORE DUP2 DUP6 KECCAK256 SLOAD PUSH2 0x103A JUMPI JUMPDEST CALLER ISZERO PUSH2 0xFEF JUMPI CALLER DUP6 MSTORE DUP5 DUP4 MSTORE DUP2 DUP6 KECCAK256 SLOAD SWAP1 DUP5 DUP3 LT PUSH2 0xFA1 JUMPI POP SWAP1 DUP4 PUSH32 0x884EDAD9CE6FA2440D8A54CC123490EB96D2768479D49FF9C7366125A9424364 SWAP4 SWAP3 CALLER DUP8 MSTORE DUP7 DUP5 MSTORE SUB DUP2 DUP7 KECCAK256 SSTORE DUP4 PUSH1 0x2 SLOAD SUB PUSH1 0x2 SSTORE DUP5 DUP2 MLOAD DUP6 DUP2 MSTORE PUSH32 0xDDF252AD1BE2C89B69C2B068FC378DAA952BA7F163C4A11628F55A4DF523B3EF DUP5 CALLER SWAP3 LOG3 PUSH1 0x7 SLOAD PUSH2 0x40D SWAP1 DUP6 SWAP1 CALLER SWAP1 PUSH1 0x1 PUSH1 0x1 PUSH1 0xA0 SHL SUB AND PUSH2 0x18D1 JUMP JUMPDEST DUP3 MLOAD PUSH3 0x461BCD PUSH1 0xE5 SHL DUP2 MSTORE SWAP1 DUP2 ADD DUP5 SWAP1 MSTORE PUSH1 0x22 PUSH1 0x24 DUP3 ADD MSTORE PUSH32 0x45524332303A206275726E20616D6F756E7420657863656564732062616C616E PUSH1 0x44 DUP3 ADD MSTORE PUSH2 0x6365 PUSH1 0xF0 SHL PUSH1 0x64 DUP3 ADD MSTORE PUSH1 0x84 SWAP1 REVERT JUMPDEST DUP3 PUSH1 0x84 SWAP3 MLOAD SWAP2 PUSH3 0x461BCD PUSH1 0xE5 SHL DUP4 MSTORE DUP3 ADD MSTORE PUSH1 0x21 PUSH1 0x24 DUP3 ADD MSTORE PUSH32 0x45524332303A206275726E2066726F6D20746865207A65726F20616464726573 PUSH1 0x44 DUP3 ADD MSTORE PUSH1 0x73 PUSH1 0xF8 SHL PUSH1 0x64 DUP3 ADD MSTORE REVERT JUMPDEST DUP5 DUP4 MSTORE PUSH2 0x2710 PUSH2 0x1059 PUSH2 0x1050 DUP7 DUP6 DUP10 KECCAK256 SLOAD PUSH2 0x1569 JUMP JUMPDEST PUSH1 0xA SLOAD SWAP1 PUSH2 0x1576 JUMP JUMPDEST DIV CALLER DUP7 MSTORE PUSH1 0xF DUP5 MSTORE DUP3 DUP7 KECCAK256 SLOAD GT ISZERO PUSH2 0xF0C JUMPI DUP3 PUSH1 0x84 SWAP3 MLOAD SWAP2 PUSH3 0x461BCD PUSH1 0xE5 SHL DUP4 MSTORE DUP3 ADD MSTORE PUSH1 0x2D PUSH1 0x24 DUP3 ADD MSTORE PUSH32 0x5769746864726177616C20776F756C6420636175736520756E646572636F6C6C PUSH1 0x44 DUP3 ADD MSTORE PUSH13 0x30BA32B930B634BD30BA34B7B7 PUSH1 0x99 SHL PUSH1 0x64 DUP3 ADD MSTORE REVERT JUMPDEST DUP3 PUSH1 0x64 SWAP3 MLOAD SWAP2 PUSH3 0x461BCD PUSH1 0xE5 SHL DUP4 MSTORE DUP3 ADD MSTORE PUSH1 0x14 PUSH1 0x24 DUP3 ADD MSTORE PUSH20 0x496E73756666696369656E742062616C616E6365 PUSH1 0x60 SHL PUSH1 0x44 DUP3 ADD MSTORE REVERT JUMPDEST POP POP CALLVALUE PUSH2 0x1E2 JUMPI DUP2 PUSH1 0x3 NOT CALLDATASIZE ADD SLT PUSH2 0x1E2 JUMPI PUSH1 0xC SLOAD SWAP1 MLOAD PUSH1 0x1 PUSH1 0x1 PUSH1 0xA0 SHL SUB SWAP1 SWAP2 AND DUP2 MSTORE PUSH1 0x20 SWAP1 RETURN JUMPDEST DUP4 SWAP2 POP CALLVALUE PUSH2 0x1E2 JUMPI PUSH1 0x60 CALLDATASIZE PUSH1 0x3 NOT ADD SLT PUSH2 0x1E2 JUMPI PUSH2 0x113F PUSH2 0x147A JUMP JUMPDEST PUSH2 0x1147 PUSH2 0x1495 JUMP JUMPDEST SWAP2 DUP5 PUSH1 0x44 CALLDATALOAD SWAP5 PUSH1 0x1 DUP1 PUSH1 0xA0 SHL SUB DUP5 AND DUP2 MSTORE PUSH1 0x1 PUSH1 0x20 MSTORE DUP2 DUP2 KECCAK256 CALLER DUP3 MSTORE PUSH1 0x20 MSTORE KECCAK256 SLOAD SWAP1 PUSH1 0x0 NOT DUP3 SUB PUSH2 0x1181 JUMPI JUMPDEST PUSH1 0x20 DUP7 PUSH2 0x6B4 DUP8 DUP8 DUP8 PUSH2 0x170D JUMP JUMPDEST DUP5 DUP3 LT PUSH2 0x11AA JUMPI POP SWAP2 DUP4 SWAP2 PUSH2 0x119F PUSH1 0x20 SWAP7 SWAP6 PUSH2 0x6B4 SWAP6 SUB CALLER DUP4 PUSH2 0x160B JUMP JUMPDEST SWAP2 SWAP4 SWAP5 DUP2 SWAP4 POP PUSH2 0x1173 JUMP JUMPDEST PUSH1 0x64 SWAP1 PUSH1 0x20 DUP8 MLOAD SWAP2 PUSH3 0x461BCD PUSH1 0xE5 SHL DUP4 MSTORE DUP3 ADD MSTORE PUSH1 0x1D PUSH1 0x24 DUP3 ADD MSTORE PUSH32 0x45524332303A20696E73756666696369656E7420616C6C6F77616E6365000000 PUSH1 0x44 DUP3 ADD MSTORE REVERT JUMPDEST POP POP CALLVALUE PUSH2 0x1E2 JUMPI DUP2 PUSH1 0x3 NOT CALLDATASIZE ADD SLT PUSH2 0x1E2 JUMPI PUSH1 0x20 SWAP1 PUSH1 0x2 SLOAD SWAP1 MLOAD SWAP1 DUP2 MSTORE RETURN JUMPDEST POP POP CALLVALUE PUSH2 0x1E2 JUMPI DUP2 PUSH1 0x3 NOT CALLDATASIZE ADD SLT PUSH2 0x1E2 JUMPI PUSH1 0x20 SWAP1 PUSH1 0xFF PUSH1 0xE SLOAD PUSH1 0xA0 SHR AND SWAP1 MLOAD SWAP1 ISZERO ISZERO DUP2 MSTORE RETURN JUMPDEST POP POP CALLVALUE PUSH2 0x1E2 JUMPI DUP1 PUSH1 0x3 NOT CALLDATASIZE ADD SLT PUSH2 0x1E2 JUMPI PUSH1 0x20 SWAP1 PUSH2 0x6B4 PUSH2 0x1253 PUSH2 0x147A JUMP JUMPDEST PUSH1 0x24 CALLDATALOAD SWAP1 CALLER PUSH2 0x160B JUMP JUMPDEST POP POP CALLVALUE PUSH2 0x1E2 JUMPI PUSH1 0x20 CALLDATASIZE PUSH1 0x3 NOT ADD SLT PUSH2 0x1E2 JUMPI PUSH1 0x20 SWAP2 DUP2 SWAP1 PUSH1 0x1 PUSH1 0x1 PUSH1 0xA0 SHL SUB PUSH2 0x1285 PUSH2 0x147A JUMP JUMPDEST AND DUP2 MSTORE PUSH1 0xF DUP5 MSTORE KECCAK256 SLOAD SWAP1 MLOAD SWAP1 DUP2 MSTORE RETURN JUMPDEST SWAP2 SWAP1 POP CALLVALUE PUSH2 0x2DA JUMPI DUP3 PUSH1 0x3 NOT CALLDATASIZE ADD SLT PUSH2 0x2DA JUMPI DUP1 MLOAD SWAP2 DUP4 PUSH1 0x3 SLOAD SWAP1 PUSH1 0x1 SWAP1 DUP3 PUSH1 0x1 SHR SWAP3 PUSH1 0x1 DUP2 AND DUP1 ISZERO PUSH2 0x1382 JUMPI JUMPDEST PUSH1 0x20 SWAP6 DUP7 DUP7 LT DUP3 EQ PUSH2 0x136F JUMPI POP DUP5 DUP9 MSTORE SWAP1 DUP2 ISZERO PUSH2 0x134D JUMPI POP PUSH1 0x1 EQ PUSH2 0x12F4 JUMPI JUMPDEST PUSH2 0x854 DUP7 DUP7 PUSH2 0x84A DUP3 DUP12 SUB DUP4 PUSH2 0x14AB JUMP JUMPDEST SWAP3 SWAP6 POP PUSH1 0x3 DUP4 MSTORE PUSH32 0xC2575A0E9E593C00F959F8C92F12DB2869C3395A3B0502D05E2516446F71F85B JUMPDEST DUP3 DUP5 LT PUSH2 0x133A JUMPI POP POP POP DUP3 PUSH2 0x854 SWAP5 PUSH2 0x84A SWAP3 DUP3 ADD ADD SWAP5 CODESIZE PUSH2 0x12E3 JUMP JUMPDEST DUP1 SLOAD DUP7 DUP6 ADD DUP9 ADD MSTORE SWAP3 DUP7 ADD SWAP3 DUP2 ADD PUSH2 0x131D JUMP JUMPDEST PUSH1 0xFF NOT AND DUP8 DUP7 ADD MSTORE POP POP POP ISZERO ISZERO PUSH1 0x5 SHL DUP4 ADD ADD SWAP3 POP PUSH2 0x84A DUP3 PUSH2 0x854 CODESIZE PUSH2 0x12E3 JUMP JUMPDEST PUSH4 0x4E487B71 PUSH1 0xE0 SHL DUP5 MSTORE PUSH1 0x22 SWAP1 MSTORE PUSH1 0x24 DUP4 REVERT JUMPDEST SWAP4 PUSH1 0x7F AND SWAP4 PUSH2 0x12C3 JUMP JUMPDEST SWAP2 POP CALLVALUE PUSH2 0x4CF JUMPI DUP4 PUSH1 0x3 NOT CALLDATASIZE ADD SLT PUSH2 0x4CF JUMPI PUSH1 0x7 SLOAD PUSH4 0x70A08231 PUSH1 0xE0 SHL DUP4 MSTORE ADDRESS SWAP2 DUP4 ADD SWAP2 SWAP1 SWAP2 MSTORE PUSH1 0x20 SWAP1 DUP3 SWAP1 PUSH1 0x24 SWAP1 DUP3 SWAP1 PUSH1 0x1 PUSH1 0x1 PUSH1 0xA0 SHL SUB AND GAS STATICCALL SWAP3 DUP4 ISZERO PUSH2 0x1420 JUMPI DUP1 SWAP4 PUSH2 0x13E6 JUMPI JUMPDEST PUSH1 0x20 DUP4 PUSH2 0x975 DUP7 PUSH1 0x9 SLOAD SWAP1 PUSH2 0x1569 JUMP JUMPDEST SWAP1 SWAP3 POP PUSH1 0x20 DUP4 RETURNDATASIZE PUSH1 0x20 GT PUSH2 0x1418 JUMPI JUMPDEST DUP2 PUSH2 0x1402 PUSH1 0x20 SWAP4 DUP4 PUSH2 0x14AB JUMP JUMPDEST DUP2 ADD SUB SLT PUSH2 0x6D7 JUMPI POP PUSH2 0x975 PUSH1 0x20 SWAP3 MLOAD SWAP3 PUSH2 0x13D6 JUMP JUMPDEST RETURNDATASIZE SWAP2 POP PUSH2 0x13F5 JUMP JUMPDEST DUP3 MLOAD SWAP1 RETURNDATASIZE SWAP1 DUP3 RETURNDATACOPY RETURNDATASIZE SWAP1 REVERT JUMPDEST PUSH1 0x0 JUMPDEST DUP4 DUP2 LT PUSH2 0x143E JUMPI POP POP PUSH1 0x0 SWAP2 ADD MSTORE JUMP JUMPDEST DUP2 DUP2 ADD MLOAD DUP4 DUP3 ADD MSTORE PUSH1 0x20 ADD PUSH2 0x142E JUMP JUMPDEST PUSH1 0x40 SWAP2 PUSH1 0x20 DUP3 MSTORE PUSH2 0x146E DUP2 MLOAD DUP1 SWAP3 DUP2 PUSH1 0x20 DUP7 ADD MSTORE PUSH1 0x20 DUP7 DUP7 ADD SWAP2 ADD PUSH2 0x142B JUMP JUMPDEST PUSH1 0x1F ADD PUSH1 0x1F NOT AND ADD ADD SWAP1 JUMP JUMPDEST PUSH1 0x4 CALLDATALOAD SWAP1 PUSH1 0x1 PUSH1 0x1 PUSH1 0xA0 SHL SUB DUP3 AND DUP3 SUB PUSH2 0x1490 JUMPI JUMP JUMPDEST PUSH1 0x0 DUP1 REVERT JUMPDEST PUSH1 0x24 CALLDATALOAD SWAP1 PUSH1 0x1 PUSH1 0x1 PUSH1 0xA0 SHL SUB DUP3 AND DUP3 SUB PUSH2 0x1490 JUMPI JUMP JUMPDEST SWAP1 PUSH1 0x1F DUP1 NOT SWAP2 ADD AND DUP2 ADD SWAP1 DUP2 LT PUSH8 0xFFFFFFFFFFFFFFFF DUP3 GT OR PUSH2 0x14CD JUMPI PUSH1 0x40 MSTORE JUMP JUMPDEST PUSH4 0x4E487B71 PUSH1 0xE0 SHL PUSH1 0x0 MSTORE PUSH1 0x41 PUSH1 0x4 MSTORE PUSH1 0x24 PUSH1 0x0 REVERT JUMPDEST PUSH8 0xFFFFFFFFFFFFFFFF DUP2 GT PUSH2 0x14CD JUMPI PUSH1 0x1F ADD PUSH1 0x1F NOT AND PUSH1 0x20 ADD SWAP1 JUMP JUMPDEST DUP2 PUSH1 0x1F DUP3 ADD SLT ISZERO PUSH2 0x1490 JUMPI DUP1 CALLDATALOAD SWAP1 PUSH2 0x1516 DUP3 PUSH2 0x14E3 JUMP JUMPDEST SWAP3 PUSH2 0x1524 PUSH1 0x40 MLOAD SWAP5 DUP6 PUSH2 0x14AB JUMP JUMPDEST DUP3 DUP5 MSTORE PUSH1 0x20 DUP4 DUP4 ADD ADD GT PUSH2 0x1490 JUMPI DUP2 PUSH1 0x0 SWAP3 PUSH1 0x20 DUP1 SWAP4 ADD DUP4 DUP7 ADD CALLDATACOPY DUP4 ADD ADD MSTORE SWAP1 JUMP JUMPDEST SWAP2 SWAP1 DUP3 ADD DUP1 SWAP3 GT PUSH2 0x1553 JUMPI JUMP JUMPDEST PUSH4 0x4E487B71 PUSH1 0xE0 SHL PUSH1 0x0 MSTORE PUSH1 0x11 PUSH1 0x4 MSTORE PUSH1 0x24 PUSH1 0x0 REVERT JUMPDEST SWAP2 SWAP1 DUP3 SUB SWAP2 DUP3 GT PUSH2 0x1553 JUMPI JUMP JUMPDEST DUP2 DUP2 MUL SWAP3 SWAP2 DUP2 ISZERO SWAP2 DUP5 DIV EQ OR ISZERO PUSH2 0x1553 JUMPI JUMP JUMPDEST PUSH1 0x1 PUSH1 0x1 PUSH1 0xA0 SHL SUB DUP2 AND PUSH1 0x0 SWAP1 DUP2 MSTORE PUSH1 0xF PUSH1 0x20 MSTORE PUSH1 0x40 SWAP1 KECCAK256 SLOAD SWAP1 DUP2 ISZERO PUSH2 0x15F2 JUMPI PUSH1 0x1 PUSH1 0x1 PUSH1 0xA0 SHL SUB AND PUSH1 0x0 SWAP1 DUP2 MSTORE PUSH1 0x20 DUP2 SWAP1 MSTORE PUSH1 0x40 SWAP1 KECCAK256 SLOAD PUSH1 0xA SLOAD PUSH2 0x2710 SWAP2 DUP3 SWAP2 PUSH2 0x15D3 SWAP2 PUSH2 0x1576 JUMP JUMPDEST DIV SWAP1 DUP2 ISZERO PUSH2 0x15EA JUMPI DUP1 DUP3 MUL SWAP2 DUP3 DIV SUB PUSH2 0x1553 JUMPI DIV SWAP1 JUMP JUMPDEST POP POP POP PUSH1 0x0 SWAP1 JUMP JUMPDEST POP POP PUSH1 0x0 NOT SWAP1 JUMP JUMPDEST PUSH1 0x8 SLOAD TIMESTAMP EQ PUSH2 0x1609 JUMPI TIMESTAMP PUSH1 0x8 SSTORE JUMP JUMPDEST JUMP JUMPDEST PUSH1 0x1 PUSH1 0x1 PUSH1 0xA0 SHL SUB SWAP1 DUP2 AND SWAP2 DUP3 ISZERO PUSH2 0x16BC JUMPI AND SWAP2 DUP3 ISZERO PUSH2 0x166C JUMPI PUSH1 0x20 PUSH32 0x8C5BE1E5EBEC7D5BD14F71427D1E84F3DD0314C0F7B2291E5B200AC8C7C3B925 SWAP2 DUP4 PUSH1 0x0 MSTORE PUSH1 0x1 DUP3 MSTORE PUSH1 0x40 PUSH1 0x0 KECCAK256 DUP6 PUSH1 0x0 MSTORE DUP3 MSTORE DUP1 PUSH1 0x40 PUSH1 0x0 KECCAK256 SSTORE PUSH1 0x40 MLOAD SWAP1 DUP2 MSTORE LOG3 JUMP JUMPDEST PUSH1 0x40 MLOAD PUSH3 0x461BCD PUSH1 0xE5 SHL DUP2 MSTORE PUSH1 0x20 PUSH1 0x4 DUP3 ADD MSTORE PUSH1 0x22 PUSH1 0x24 DUP3 ADD MSTORE PUSH32 0x45524332303A20617070726F766520746F20746865207A65726F206164647265 PUSH1 0x44 DUP3 ADD MSTORE PUSH2 0x7373 PUSH1 0xF0 SHL PUSH1 0x64 DUP3 ADD MSTORE PUSH1 0x84 SWAP1 REVERT JUMPDEST PUSH1 0x40 MLOAD PUSH3 0x461BCD PUSH1 0xE5 SHL DUP2 MSTORE PUSH1 0x20 PUSH1 0x4 DUP3 ADD MSTORE PUSH1 0x24 DUP1 DUP3 ADD MSTORE PUSH32 0x45524332303A20617070726F76652066726F6D20746865207A65726F20616464 PUSH1 0x44 DUP3 ADD MSTORE PUSH4 0x72657373 PUSH1 0xE0 SHL PUSH1 0x64 DUP3 ADD MSTORE PUSH1 0x84 SWAP1 REVERT JUMPDEST PUSH1 0x1 PUSH1 0x1 PUSH1 0xA0 SHL SUB SWAP1 DUP2 AND SWAP2 DUP3 ISZERO PUSH2 0x1828 JUMPI AND SWAP2 DUP3 ISZERO PUSH2 0x17D7 JUMPI PUSH1 0x0 DUP3 DUP2 MSTORE DUP1 PUSH1 0x20 MSTORE PUSH1 0x40 DUP2 KECCAK256 SLOAD SWAP2 DUP1 DUP4 LT PUSH2 0x1783 JUMPI PUSH1 0x40 DUP3 DUP3 PUSH32 0xDDF252AD1BE2C89B69C2B068FC378DAA952BA7F163C4A11628F55A4DF523B3EF SWAP6 DUP8 PUSH1 0x20 SWAP7 MSTORE DUP3 DUP7 MSTORE SUB DUP3 DUP3 KECCAK256 SSTORE DUP7 DUP2 MSTORE KECCAK256 DUP2 DUP2 SLOAD ADD SWAP1 SSTORE PUSH1 0x40 MLOAD SWAP1 DUP2 MSTORE LOG3 JUMP JUMPDEST PUSH1 0x40 MLOAD PUSH3 0x461BCD PUSH1 0xE5 SHL DUP2 MSTORE PUSH1 0x20 PUSH1 0x4 DUP3 ADD MSTORE PUSH1 0x26 PUSH1 0x24 DUP3 ADD MSTORE PUSH32 0x45524332303A207472616E7366657220616D6F756E7420657863656564732062 PUSH1 0x44 DUP3 ADD MSTORE PUSH6 0x616C616E6365 PUSH1 0xD0 SHL PUSH1 0x64 DUP3 ADD MSTORE PUSH1 0x84 SWAP1 REVERT JUMPDEST PUSH1 0x40 MLOAD PUSH3 0x461BCD PUSH1 0xE5 SHL DUP2 MSTORE PUSH1 0x20 PUSH1 0x4 DUP3 ADD MSTORE PUSH1 0x23 PUSH1 0x24 DUP3 ADD MSTORE PUSH32 0x45524332303A207472616E7366657220746F20746865207A65726F2061646472 PUSH1 0x44 DUP3 ADD MSTORE PUSH3 0x657373 PUSH1 0xE8 SHL PUSH1 0x64 DUP3 ADD MSTORE PUSH1 0x84 SWAP1 REVERT JUMPDEST PUSH1 0x40 MLOAD PUSH3 0x461BCD PUSH1 0xE5 SHL DUP2 MSTORE PUSH1 0x20 PUSH1 0x4 DUP3 ADD MSTORE PUSH1 0x25 PUSH1 0x24 DUP3 ADD MSTORE PUSH32 0x45524332303A207472616E736665722066726F6D20746865207A65726F206164 PUSH1 0x44 DUP3 ADD MSTORE PUSH5 0x6472657373 PUSH1 0xD8 SHL PUSH1 0x64 DUP3 ADD MSTORE PUSH1 0x84 SWAP1 REVERT JUMPDEST PUSH1 0x2 PUSH1 0x6 SLOAD EQ PUSH2 0x188C JUMPI PUSH1 0x2 PUSH1 0x6 SSTORE JUMP JUMPDEST PUSH1 0x40 MLOAD PUSH3 0x461BCD PUSH1 0xE5 SHL DUP2 MSTORE PUSH1 0x20 PUSH1 0x4 DUP3 ADD MSTORE PUSH1 0x1F PUSH1 0x24 DUP3 ADD MSTORE PUSH32 0x5265656E7472616E637947756172643A207265656E7472616E742063616C6C00 PUSH1 0x44 DUP3 ADD MSTORE PUSH1 0x64 SWAP1 REVERT JUMPDEST PUSH1 0x40 MLOAD PUSH4 0xA9059CBB PUSH1 0xE0 SHL PUSH1 0x20 DUP3 ADD MSTORE PUSH1 0x1 PUSH1 0x1 PUSH1 0xA0 SHL SUB SWAP1 SWAP3 AND PUSH1 0x24 DUP4 ADD MSTORE PUSH1 0x44 DUP1 DUP4 ADD SWAP4 SWAP1 SWAP4 MSTORE SWAP2 DUP2 MSTORE PUSH1 0x80 DUP2 ADD SWAP2 PUSH8 0xFFFFFFFFFFFFFFFF DUP4 GT DUP3 DUP5 LT OR PUSH2 0x14CD JUMPI PUSH2 0x1609 SWAP3 PUSH1 0x40 MSTORE PUSH2 0x19D2 JUMP JUMPDEST PUSH1 0x40 MLOAD PUSH4 0x23B872DD PUSH1 0xE0 SHL PUSH1 0x20 DUP3 ADD MSTORE PUSH1 0x1 PUSH1 0x1 PUSH1 0xA0 SHL SUB SWAP3 DUP4 AND PUSH1 0x24 DUP3 ADD MSTORE SWAP3 SWAP1 SWAP2 AND PUSH1 0x44 DUP4 ADD MSTORE PUSH1 0x64 DUP1 DUP4 ADD SWAP4 SWAP1 SWAP4 MSTORE SWAP2 DUP2 MSTORE PUSH1 0xA0 DUP2 ADD SWAP2 DUP2 DUP4 LT PUSH8 0xFFFFFFFFFFFFFFFF DUP5 GT OR PUSH2 0x14CD JUMPI PUSH2 0x1609 SWAP3 PUSH1 0x40 MSTORE PUSH2 0x19D2 JUMP JUMPDEST PUSH1 0x5 SLOAD PUSH1 0x1 PUSH1 0x1 PUSH1 0xA0 SHL SUB AND CALLER SUB PUSH2 0x198E JUMPI JUMP JUMPDEST PUSH1 0x64 PUSH1 0x40 MLOAD PUSH3 0x461BCD PUSH1 0xE5 SHL DUP2 MSTORE PUSH1 0x20 PUSH1 0x4 DUP3 ADD MSTORE PUSH1 0x20 PUSH1 0x24 DUP3 ADD MSTORE PUSH32 0x4F776E61626C653A2063616C6C6572206973206E6F7420746865206F776E6572 PUSH1 0x44 DUP3 ADD MSTORE REVERT JUMPDEST PUSH1 0x1 DUP1 PUSH1 0xA0 SHL SUB AND SWAP1 PUSH1 0x40 MLOAD PUSH1 0x40 DUP2 ADD SWAP1 DUP1 DUP3 LT PUSH8 0xFFFFFFFFFFFFFFFF DUP4 GT OR PUSH2 0x14CD JUMPI PUSH2 0x1A62 SWAP2 PUSH1 0x40 MSTORE PUSH1 0x20 SWAP4 DUP5 DUP3 MSTORE PUSH32 0x5361666545524332303A206C6F772D6C6576656C2063616C6C206661696C6564 DUP6 DUP4 ADD MSTORE PUSH1 0x0 DUP1 DUP6 DUP8 DUP3 SWAP8 MLOAD SWAP2 ADD DUP3 DUP6 GAS CALL RETURNDATASIZE ISZERO PUSH2 0x1AF8 JUMPI RETURNDATASIZE SWAP2 PUSH2 0x1A47 DUP4 PUSH2 0x14E3 JUMP JUMPDEST SWAP3 PUSH2 0x1A55 PUSH1 0x40 MLOAD SWAP5 DUP6 PUSH2 0x14AB JUMP JUMPDEST DUP4 MSTORE RETURNDATASIZE DUP7 DUP9 DUP6 ADD RETURNDATACOPY PUSH2 0x1AFC JUMP JUMPDEST DUP1 MLOAD SWAP2 DUP3 ISZERO SWAP2 DUP5 DUP4 ISZERO PUSH2 0x1AD4 JUMPI JUMPDEST POP POP POP SWAP1 POP ISZERO PUSH2 0x1A7D JUMPI POP JUMP JUMPDEST PUSH1 0x84 SWAP1 PUSH1 0x40 MLOAD SWAP1 PUSH3 0x461BCD PUSH1 0xE5 SHL DUP3 MSTORE PUSH1 0x4 DUP3 ADD MSTORE PUSH1 0x2A PUSH1 0x24 DUP3 ADD MSTORE PUSH32 0x5361666545524332303A204552433230206F7065726174696F6E20646964206E PUSH1 0x44 DUP3 ADD MSTORE PUSH10 0x1BDD081CDD58D8D95959 PUSH1 0xB2 SHL PUSH1 0x64 DUP3 ADD MSTORE REVERT JUMPDEST SWAP2 SWAP4 DUP2 DUP1 SWAP5 POP ADD SUB SLT PUSH2 0x1E2 JUMPI DUP3 ADD MLOAD SWAP1 DUP2 ISZERO ISZERO DUP3 SUB PUSH2 0x6D7 JUMPI POP DUP1 CODESIZE DUP1 DUP5 PUSH2 0x1A70 JUMP JUMPDEST PUSH1 0x60 SWAP2 JUMPDEST SWAP2 SWAP3 SWAP1 ISZERO PUSH2 0x1B5E JUMPI POP DUP2 MLOAD ISZERO PUSH2 0x1B10 JUMPI POP SWAP1 JUMP JUMPDEST EXTCODESIZE ISZERO PUSH2 0x1B19 JUMPI SWAP1 JUMP JUMPDEST PUSH1 0x40 MLOAD PUSH3 0x461BCD PUSH1 0xE5 SHL DUP2 MSTORE PUSH1 0x20 PUSH1 0x4 DUP3 ADD MSTORE PUSH1 0x1D PUSH1 0x24 DUP3 ADD MSTORE PUSH32 0x416464726573733A2063616C6C20746F206E6F6E2D636F6E7472616374000000 PUSH1 0x44 DUP3 ADD MSTORE PUSH1 0x64 SWAP1 REVERT JUMPDEST DUP3 MLOAD SWAP1 SWAP2 POP ISZERO PUSH2 0x1B71 JUMPI POP DUP1 MLOAD SWAP1 PUSH1 0x20 ADD REVERT JUMPDEST PUSH1 0x40 MLOAD PUSH3 0x461BCD PUSH1 0xE5 SHL DUP2 MSTORE SWAP1 DUP2 SWAP1 PUSH2 0x1B8D SWAP1 PUSH1 0x4 DUP4 ADD PUSH2 0x144E JUMP JUMPDEST SUB SWAP1 REVERT INVALID LOG2 PUSH5 0x6970667358 0x22 SLT KECCAK256 0xE9 0xC3 MULMOD XOR PUSH13 0x5A9AC16C41424E6DDD8EB84B28 0xA8 PUSH12 0xA769707984D69444BE35B9E1 PUSH5 0x736F6C6343 STOP ADDMOD AND STOP CALLER "},"methodIdentifiers":{"BIPS()":"f7050031","accrueInterest()":"a6afed95","allowance(address,address)":"dd62ed3e","approve(address,uint256)":"095ea7b3","asset()":"38d52e0f","balanceOf(address)":"70a08231","borrow(uint256)":"c5ebeaec","borrowed(address)":"0941cb3d","collateralFactorBps()":"7f5007ed","decimals()":"313ce567","decreaseAllowance(address,uint256)":"a457c2d7","deposit(uint256)":"b6b55f25","factory()":"c45a0155","feeCollector()":"c415b95c","getUserCollateralValue(address)":"75417da6","healthFactor(address)":"6ad9f9df","increaseAllowance(address,uint256)":"39509351","initialize(address,string,string,uint256,uint256,address,address,address)":"36f93239","initialized()":"158ef93e","interestRateModel()":"f3fdb15a","lastAccrualTimestamp()":"c0789dcb","name()":"06fdde03","owner()":"8da5cb5b","priceOracle()":"2630c12f","renounceOwnership()":"715018a6","repay(uint256)":"371fd8e6","reserveBalance()":"a10954fe","reserveFactorBps()":"c87bed70","supportedCollateralAssets(address)":"a9fae35c","symbol()":"95d89b41","totalAssets()":"01e1d114","totalBorrowed()":"4c19386c","totalSupply()":"18160ddd","transfer(address,uint256)":"a9059cbb","transferFrom(address,address,uint256)":"23b872dd","transferOwnership(address)":"f2fde38b","userCollateralAssets(address,address)":"a6872fb4","withdraw(uint256)":"2e1a7d4d"}}}}}