{"contracts/defi/LiquidityMiningFactory.sol":{"LiquidityMiningFactory":{"abi":[{"inputs":[{"internalType":"address","name":"_liquidityMiningImpl","type":"address"},{"internalType":"address","name":"_rewardTokenImpl","type":"address"}],"stateMutability":"nonpayable","type":"constructor"},{"anonymous":false,"inputs":[{"indexed":true,"internalType":"address","name":"pool","type":"address"},{"indexed":true,"internalType":"address","name":"miningProgram","type":"address"},{"indexed":true,"internalType":"address","name":"rewardToken","type":"address"},{"indexed":false,"internalType":"string","name":"name","type":"string"},{"indexed":false,"internalType":"string","name":"symbol","type":"string"}],"name":"MiningProgramCreated","type":"event"},{"anonymous":false,"inputs":[{"indexed":true,"internalType":"address","name":"previousOwner","type":"address"},{"indexed":true,"internalType":"address","name":"newOwner","type":"address"}],"name":"OwnershipTransferred","type":"event"},{"inputs":[{"internalType":"uint256","name":"","type":"uint256"}],"name":"allMiningPrograms","outputs":[{"internalType":"address","name":"","type":"address"}],"stateMutability":"view","type":"function"},{"inputs":[{"internalType":"address","name":"_pool","type":"address"},{"internalType":"string","name":"_tokenName","type":"string"},{"internalType":"string","name":"_tokenSymbol","type":"string"},{"internalType":"uint256","name":"_rewardRate","type":"uint256"},{"internalType":"uint256","name":"_maxSupply","type":"uint256"},{"internalType":"uint256","name":"_initialSupply","type":"uint256"}],"name":"createMiningProgram","outputs":[{"internalType":"address","name":"miningProgram","type":"address"},{"internalType":"address","name":"rewardToken","type":"address"}],"stateMutability":"nonpayable","type":"function"},{"inputs":[],"name":"getAllMiningPrograms","outputs":[{"internalType":"address[]","name":"","type":"address[]"}],"stateMutability":"view","type":"function"},{"inputs":[],"name":"getMiningProgramCount","outputs":[{"internalType":"uint256","name":"","type":"uint256"}],"stateMutability":"view","type":"function"},{"inputs":[],"name":"liquidityMiningImplementation","outputs":[{"internalType":"address","name":"","type":"address"}],"stateMutability":"view","type":"function"},{"inputs":[{"internalType":"address","name":"","type":"address"}],"name":"miningProgramToToken","outputs":[{"internalType":"address","name":"","type":"address"}],"stateMutability":"view","type":"function"},{"inputs":[],"name":"owner","outputs":[{"internalType":"address","name":"","type":"address"}],"stateMutability":"view","type":"function"},{"inputs":[{"internalType":"address","name":"","type":"address"}],"name":"poolToMiningProgram","outputs":[{"internalType":"address","name":"","type":"address"}],"stateMutability":"view","type":"function"},{"inputs":[],"name":"renounceOwnership","outputs":[],"stateMutability":"nonpayable","type":"function"},{"inputs":[],"name":"rewardTokenImplementation","outputs":[{"internalType":"address","name":"","type":"address"}],"stateMutability":"view","type":"function"},{"inputs":[{"internalType":"address","name":"newOwner","type":"address"}],"name":"transferOwnership","outputs":[],"stateMutability":"nonpayable","type":"function"}],"evm":{"bytecode":{"linkReferences":{},"object":"60803461015b57601f610b4b38819003918201601f19168301916001600160401b0383118484101761016057808492604094855283398101031261015b57610052602061004b83610176565b9201610176565b60008054336001600160a01b0319808316821784556040519590946001600160a01b03949093859391908416907f8be0079c531659141344cd1fd0a4f28419497f9722a3daafe3b4186f6b6457e09080a3169384156101195750169182156100d45781600154161760015560025416176002556040516109c0908161018b8239f35b60405162461bcd60e51b815260206004820152601c60248201527f496e76616c696420746f6b656e20696d706c656d656e746174696f6e000000006044820152606490fd5b62461bcd60e51b815260206004820152601d60248201527f496e76616c6964206d696e696e6720696d706c656d656e746174696f6e0000006044820152606490fd5b600080fd5b634e487b7160e01b600052604160045260246000fd5b51906001600160a01b038216820361015b5756fe6080604081815260048036101561001557600080fd5b600092833560e01c908163100380e41461073757508063697c191f14610675578063715018a61461061b5780638da5cb5b146105f35780639646f007146105ca578063a1854c9b146105a1578063a9a4204814610566578063e5180cb214610526578063eea07b7f146101aa578063f259a0301461016b5763f2fde38b1461009c57600080fd5b34610167576020366003190112610167576100b5610753565b906100be61089e565b6001600160a01b03918216928315610115575050600054826bffffffffffffffffffffffff60a01b821617600055167f8be0079c531659141344cd1fd0a4f28419497f9722a3daafe3b4186f6b6457e0600080a380f35b906020608492519162461bcd60e51b8352820152602660248201527f4f776e61626c653a206e6577206f776e657220697320746865207a65726f206160448201526564647265737360d01b6064820152fd5b8280fd5b5050346101a65760203660031901126101a6576020916001600160a01b0390829082610195610753565b168152600585522054169051908152f35b5080fd5b508234610523576003199060c036830112610523576101c7610753565b6024939067ffffffffffffffff90853582811161051f576101eb9036908501610807565b9160443590811161051f576102039036908501610807565b9061020c61089e565b60018060a01b038091169384865260209560038752828a822054166104ce578261023981600254166108f6565b1697883b156101a6578a51636fe0e39560e01b81526080848201529082908290819061027c908e61026d608485018d61085e565b9184830301908401528961085e565b608435604483015260a43560648301520381838d5af180156104c4576104b5575b5090826102ad81600154166108f6565b1698893b15610167578a5163189acdbd60e31b81528281018a905283818381838f5af18015610461579084916104a1575b5050883b15610167578a5163f2fde38b60e01b8082528382018c90529084818481838f5af180156104835790859161048d575b50508a3b1561046b5783808c60448f8c90519485938492631954e55d60e11b84528a840152606435898401525af180156104835790859161046f575b50508a3b1561046b578b51908152338382015283818381838f5af180156104615790849161044d575b50879052600388528a83206bffffffffffffffffffffffff60a01b908b828254161790558a845260058952898c8520918254161790558154926801000000000000000084101561043d575050936104308896947f65c57654ce499c09965d6a8c4d5e99db2203e547baefec08679974382e9775f7946103ff858d9960016104239801905561076e565b819291549060031b918a831b921b19161790558b519384938d85528d85019061085e565b908382038a85015261085e565b0390a48351928352820152f35b634e487b7160e01b815260418352fd5b610456906107bb565b61016757828c610376565b8c513d86823e3d90fd5b8380fd5b610478906107bb565b61046b57838d61034d565b8d513d87823e3d90fd5b610496906107bb565b61046b57838d610311565b6104aa906107bb565b61016757828c6102de565b6104be906107bb565b8a61029d565b8b513d84823e3d90fd5b895162461bcd60e51b81528083018890526026818b01527f4d696e696e672070726f6772616d20616c72656164792065786973747320666f6044820152651c881c1bdbdb60d21b6064820152608490fd5b8480fd5b80fd5b5091346105235760203660031901126105235782359254831015610523575061055060209261076e565b905491519160018060a01b039160031b1c168152f35b5050346101a65760203660031901126101a6576020916001600160a01b0390829082610590610753565b168152600385522054169051908152f35b5050346101a657816003193601126101a65760025490516001600160a01b039091168152602090f35b5050346101a657816003193601126101a65760015490516001600160a01b039091168152602090f35b5050346101a657816003193601126101a657905490516001600160a01b039091168152602090f35b833461052357806003193601126105235761063461089e565b80546001600160a01b03198116825581906001600160a01b03167f8be0079c531659141344cd1fd0a4f28419497f9722a3daafe3b4186f6b6457e08280a380f35b5082346105235780600319360112610523579190815192838254808652602080960190819484527f8a35acfbc15ff81a39ae7d344fd709f28e8600b4aa8c65c6b64bfe7fe36bd19b90845b81811061071a57505050816106d69103826107e5565b83519485948186019282875251809352850193925b8281106106fa57505050500390f35b83516001600160a01b0316855286955093810193928101926001016106eb565b82546001600160a01b0316845292880192600192830192016106c0565b9250503461016757826003193601126101675760209250548152f35b600435906001600160a01b038216820361076957565b600080fd5b6004548110156107a55760046000527f8a35acfbc15ff81a39ae7d344fd709f28e8600b4aa8c65c6b64bfe7fe36bd19b0190600090565b634e487b7160e01b600052603260045260246000fd5b67ffffffffffffffff81116107cf57604052565b634e487b7160e01b600052604160045260246000fd5b90601f8019910116810190811067ffffffffffffffff8211176107cf57604052565b81601f820112156107695780359067ffffffffffffffff82116107cf576040519261083c601f8401601f1916602001856107e5565b8284526020838301011161076957816000926020809301838601378301015290565b919082519283825260005b84811061088a575050826000602080949584010152601f8019910116010190565b602081830181015184830182015201610869565b6000546001600160a01b031633036108b257565b606460405162461bcd60e51b815260206004820152602060248201527f4f776e61626c653a2063616c6c6572206973206e6f7420746865206f776e65726044820152fd5b6e5af43d82803e903d91602b57fd5bf390763d602d80600a3d3981f3363d3d373d3d3d363d7300000062ffffff8260881c161760005260781b17602052603760096000f0906001600160a01b0382161561094c57565b60405162461bcd60e51b8152602060048201526016602482015275115490cc4c4d8dce8818dc99585d194819985a5b195960521b6044820152606490fdfea264697066735822122006e0153c91166cf1e26c17cbd3a0653e206a5d4b16c8074be5355917940aaae364736f6c63430008160033","opcodes":"PUSH1 0x80 CALLVALUE PUSH2 0x15B JUMPI PUSH1 0x1F PUSH2 0xB4B CODESIZE DUP2 SWAP1 SUB SWAP2 DUP3 ADD PUSH1 0x1F NOT AND DUP4 ADD SWAP2 PUSH1 0x1 PUSH1 0x1 PUSH1 0x40 SHL SUB DUP4 GT DUP5 DUP5 LT OR PUSH2 0x160 JUMPI DUP1 DUP5 SWAP3 PUSH1 0x40 SWAP5 DUP6 MSTORE DUP4 CODECOPY DUP2 ADD SUB SLT PUSH2 0x15B JUMPI PUSH2 0x52 PUSH1 0x20 PUSH2 0x4B DUP4 PUSH2 0x176 JUMP JUMPDEST SWAP3 ADD PUSH2 0x176 JUMP JUMPDEST PUSH1 0x0 DUP1 SLOAD CALLER PUSH1 0x1 PUSH1 0x1 PUSH1 0xA0 SHL SUB NOT DUP1 DUP4 AND DUP3 OR DUP5 SSTORE PUSH1 0x40 MLOAD SWAP6 SWAP1 SWAP5 PUSH1 0x1 PUSH1 0x1 PUSH1 0xA0 SHL SUB SWAP5 SWAP1 SWAP4 DUP6 SWAP4 SWAP2 SWAP1 DUP5 AND SWAP1 PUSH32 0x8BE0079C531659141344CD1FD0A4F28419497F9722A3DAAFE3B4186F6B6457E0 SWAP1 DUP1 LOG3 AND SWAP4 DUP5 ISZERO PUSH2 0x119 JUMPI POP AND SWAP2 DUP3 ISZERO PUSH2 0xD4 JUMPI DUP2 PUSH1 0x1 SLOAD AND OR PUSH1 0x1 SSTORE PUSH1 0x2 SLOAD AND OR PUSH1 0x2 SSTORE PUSH1 0x40 MLOAD PUSH2 0x9C0 SWAP1 DUP2 PUSH2 0x18B DUP3 CODECOPY RETURN JUMPDEST PUSH1 0x40 MLOAD PUSH3 0x461BCD PUSH1 0xE5 SHL DUP2 MSTORE PUSH1 0x20 PUSH1 0x4 DUP3 ADD MSTORE PUSH1 0x1C PUSH1 0x24 DUP3 ADD MSTORE PUSH32 0x496E76616C696420746F6B656E20696D706C656D656E746174696F6E00000000 PUSH1 0x44 DUP3 ADD MSTORE PUSH1 0x64 SWAP1 REVERT JUMPDEST PUSH3 0x461BCD PUSH1 0xE5 SHL DUP2 MSTORE PUSH1 0x20 PUSH1 0x4 DUP3 ADD MSTORE PUSH1 0x1D PUSH1 0x24 DUP3 ADD MSTORE PUSH32 0x496E76616C6964206D696E696E6720696D706C656D656E746174696F6E000000 PUSH1 0x44 DUP3 ADD MSTORE PUSH1 0x64 SWAP1 REVERT JUMPDEST PUSH1 0x0 DUP1 REVERT JUMPDEST PUSH4 0x4E487B71 PUSH1 0xE0 SHL PUSH1 0x0 MSTORE PUSH1 0x41 PUSH1 0x4 MSTORE PUSH1 0x24 PUSH1 0x0 REVERT JUMPDEST MLOAD SWAP1 PUSH1 0x1 PUSH1 0x1 PUSH1 0xA0 SHL SUB DUP3 AND DUP3 SUB PUSH2 0x15B JUMPI JUMP INVALID PUSH1 0x80 PUSH1 0x40 DUP2 DUP2 MSTORE PUSH1 0x4 DUP1 CALLDATASIZE LT ISZERO PUSH2 0x15 JUMPI PUSH1 0x0 DUP1 REVERT JUMPDEST PUSH1 0x0 SWAP3 DUP4 CALLDATALOAD PUSH1 0xE0 SHR SWAP1 DUP2 PUSH4 0x100380E4 EQ PUSH2 0x737 JUMPI POP DUP1 PUSH4 0x697C191F EQ PUSH2 0x675 JUMPI DUP1 PUSH4 0x715018A6 EQ PUSH2 0x61B JUMPI DUP1 PUSH4 0x8DA5CB5B EQ PUSH2 0x5F3 JUMPI DUP1 PUSH4 0x9646F007 EQ PUSH2 0x5CA JUMPI DUP1 PUSH4 0xA1854C9B EQ PUSH2 0x5A1 JUMPI DUP1 PUSH4 0xA9A42048 EQ PUSH2 0x566 JUMPI DUP1 PUSH4 0xE5180CB2 EQ PUSH2 0x526 JUMPI DUP1 PUSH4 0xEEA07B7F EQ PUSH2 0x1AA JUMPI DUP1 PUSH4 0xF259A030 EQ PUSH2 0x16B JUMPI PUSH4 0xF2FDE38B EQ PUSH2 0x9C JUMPI PUSH1 0x0 DUP1 REVERT JUMPDEST CALLVALUE PUSH2 0x167 JUMPI PUSH1 0x20 CALLDATASIZE PUSH1 0x3 NOT ADD SLT PUSH2 0x167 JUMPI PUSH2 0xB5 PUSH2 0x753 JUMP JUMPDEST SWAP1 PUSH2 0xBE PUSH2 0x89E JUMP JUMPDEST PUSH1 0x1 PUSH1 0x1 PUSH1 0xA0 SHL SUB SWAP2 DUP3 AND SWAP3 DUP4 ISZERO PUSH2 0x115 JUMPI POP POP PUSH1 0x0 SLOAD DUP3 PUSH12 0xFFFFFFFFFFFFFFFFFFFFFFFF PUSH1 0xA0 SHL DUP3 AND OR PUSH1 0x0 SSTORE AND PUSH32 0x8BE0079C531659141344CD1FD0A4F28419497F9722A3DAAFE3B4186F6B6457E0 PUSH1 0x0 DUP1 LOG3 DUP1 RETURN JUMPDEST SWAP1 PUSH1 0x20 PUSH1 0x84 SWAP3 MLOAD SWAP2 PUSH3 0x461BCD PUSH1 0xE5 SHL DUP4 MSTORE DUP3 ADD MSTORE PUSH1 0x26 PUSH1 0x24 DUP3 ADD MSTORE PUSH32 0x4F776E61626C653A206E6577206F776E657220697320746865207A65726F2061 PUSH1 0x44 DUP3 ADD MSTORE PUSH6 0x646472657373 PUSH1 0xD0 SHL PUSH1 0x64 DUP3 ADD MSTORE REVERT JUMPDEST DUP3 DUP1 REVERT JUMPDEST POP POP CALLVALUE PUSH2 0x1A6 JUMPI PUSH1 0x20 CALLDATASIZE PUSH1 0x3 NOT ADD SLT PUSH2 0x1A6 JUMPI PUSH1 0x20 SWAP2 PUSH1 0x1 PUSH1 0x1 PUSH1 0xA0 SHL SUB SWAP1 DUP3 SWAP1 DUP3 PUSH2 0x195 PUSH2 0x753 JUMP JUMPDEST AND DUP2 MSTORE PUSH1 0x5 DUP6 MSTORE KECCAK256 SLOAD AND SWAP1 MLOAD SWAP1 DUP2 MSTORE RETURN JUMPDEST POP DUP1 REVERT JUMPDEST POP DUP3 CALLVALUE PUSH2 0x523 JUMPI PUSH1 0x3 NOT SWAP1 PUSH1 0xC0 CALLDATASIZE DUP4 ADD SLT PUSH2 0x523 JUMPI PUSH2 0x1C7 PUSH2 0x753 JUMP JUMPDEST PUSH1 0x24 SWAP4 SWAP1 PUSH8 0xFFFFFFFFFFFFFFFF SWAP1 DUP6 CALLDATALOAD DUP3 DUP2 GT PUSH2 0x51F JUMPI PUSH2 0x1EB SWAP1 CALLDATASIZE SWAP1 DUP6 ADD PUSH2 0x807 JUMP JUMPDEST SWAP2 PUSH1 0x44 CALLDATALOAD SWAP1 DUP2 GT PUSH2 0x51F JUMPI PUSH2 0x203 SWAP1 CALLDATASIZE SWAP1 DUP6 ADD PUSH2 0x807 JUMP JUMPDEST SWAP1 PUSH2 0x20C PUSH2 0x89E JUMP JUMPDEST PUSH1 0x1 DUP1 PUSH1 0xA0 SHL SUB DUP1 SWAP2 AND SWAP4 DUP5 DUP7 MSTORE PUSH1 0x20 SWAP6 PUSH1 0x3 DUP8 MSTORE DUP3 DUP11 DUP3 KECCAK256 SLOAD AND PUSH2 0x4CE JUMPI DUP3 PUSH2 0x239 DUP2 PUSH1 0x2 SLOAD AND PUSH2 0x8F6 JUMP JUMPDEST AND SWAP8 DUP9 EXTCODESIZE ISZERO PUSH2 0x1A6 JUMPI DUP11 MLOAD PUSH4 0x6FE0E395 PUSH1 0xE0 SHL DUP2 MSTORE PUSH1 0x80 DUP5 DUP3 ADD MSTORE SWAP1 DUP3 SWAP1 DUP3 SWAP1 DUP2 SWAP1 PUSH2 0x27C SWAP1 DUP15 PUSH2 0x26D PUSH1 0x84 DUP6 ADD DUP14 PUSH2 0x85E JUMP JUMPDEST SWAP2 DUP5 DUP4 SUB ADD SWAP1 DUP5 ADD MSTORE DUP10 PUSH2 0x85E JUMP JUMPDEST PUSH1 0x84 CALLDATALOAD PUSH1 0x44 DUP4 ADD MSTORE PUSH1 0xA4 CALLDATALOAD PUSH1 0x64 DUP4 ADD MSTORE SUB DUP2 DUP4 DUP14 GAS CALL DUP1 ISZERO PUSH2 0x4C4 JUMPI PUSH2 0x4B5 JUMPI JUMPDEST POP SWAP1 DUP3 PUSH2 0x2AD DUP2 PUSH1 0x1 SLOAD AND PUSH2 0x8F6 JUMP JUMPDEST AND SWAP9 DUP10 EXTCODESIZE ISZERO PUSH2 0x167 JUMPI DUP11 MLOAD PUSH4 0x189ACDBD PUSH1 0xE3 SHL DUP2 MSTORE DUP3 DUP2 ADD DUP11 SWAP1 MSTORE DUP4 DUP2 DUP4 DUP2 DUP4 DUP16 GAS CALL DUP1 ISZERO PUSH2 0x461 JUMPI SWAP1 DUP5 SWAP2 PUSH2 0x4A1 JUMPI JUMPDEST POP POP DUP9 EXTCODESIZE ISZERO PUSH2 0x167 JUMPI DUP11 MLOAD PUSH4 0xF2FDE38B PUSH1 0xE0 SHL DUP1 DUP3 MSTORE DUP4 DUP3 ADD DUP13 SWAP1 MSTORE SWAP1 DUP5 DUP2 DUP5 DUP2 DUP4 DUP16 GAS CALL DUP1 ISZERO PUSH2 0x483 JUMPI SWAP1 DUP6 SWAP2 PUSH2 0x48D JUMPI JUMPDEST POP POP DUP11 EXTCODESIZE ISZERO PUSH2 0x46B JUMPI DUP4 DUP1 DUP13 PUSH1 0x44 DUP16 DUP13 SWAP1 MLOAD SWAP5 DUP6 SWAP4 DUP5 SWAP3 PUSH4 0x1954E55D PUSH1 0xE1 SHL DUP5 MSTORE DUP11 DUP5 ADD MSTORE PUSH1 0x64 CALLDATALOAD DUP10 DUP5 ADD MSTORE GAS CALL DUP1 ISZERO PUSH2 0x483 JUMPI SWAP1 DUP6 SWAP2 PUSH2 0x46F JUMPI JUMPDEST POP POP DUP11 EXTCODESIZE ISZERO PUSH2 0x46B JUMPI DUP12 MLOAD SWAP1 DUP2 MSTORE CALLER DUP4 DUP3 ADD MSTORE DUP4 DUP2 DUP4 DUP2 DUP4 DUP16 GAS CALL DUP1 ISZERO PUSH2 0x461 JUMPI SWAP1 DUP5 SWAP2 PUSH2 0x44D JUMPI JUMPDEST POP DUP8 SWAP1 MSTORE PUSH1 0x3 DUP9 MSTORE DUP11 DUP4 KECCAK256 PUSH12 0xFFFFFFFFFFFFFFFFFFFFFFFF PUSH1 0xA0 SHL SWAP1 DUP12 DUP3 DUP3 SLOAD AND OR SWAP1 SSTORE DUP11 DUP5 MSTORE PUSH1 0x5 DUP10 MSTORE DUP10 DUP13 DUP6 KECCAK256 SWAP2 DUP3 SLOAD AND OR SWAP1 SSTORE DUP2 SLOAD SWAP3 PUSH9 0x10000000000000000 DUP5 LT ISZERO PUSH2 0x43D JUMPI POP POP SWAP4 PUSH2 0x430 DUP9 SWAP7 SWAP5 PUSH32 0x65C57654CE499C09965D6A8C4D5E99DB2203E547BAEFEC08679974382E9775F7 SWAP5 PUSH2 0x3FF DUP6 DUP14 SWAP10 PUSH1 0x1 PUSH2 0x423 SWAP9 ADD SWAP1 SSTORE PUSH2 0x76E JUMP JUMPDEST DUP2 SWAP3 SWAP2 SLOAD SWAP1 PUSH1 0x3 SHL SWAP2 DUP11 DUP4 SHL SWAP3 SHL NOT AND OR SWAP1 SSTORE DUP12 MLOAD SWAP4 DUP5 SWAP4 DUP14 DUP6 MSTORE DUP14 DUP6 ADD SWAP1 PUSH2 0x85E JUMP JUMPDEST SWAP1 DUP4 DUP3 SUB DUP11 DUP6 ADD MSTORE PUSH2 0x85E JUMP JUMPDEST SUB SWAP1 LOG4 DUP4 MLOAD SWAP3 DUP4 MSTORE DUP3 ADD MSTORE RETURN JUMPDEST PUSH4 0x4E487B71 PUSH1 0xE0 SHL DUP2 MSTORE PUSH1 0x41 DUP4 MSTORE REVERT JUMPDEST PUSH2 0x456 SWAP1 PUSH2 0x7BB JUMP JUMPDEST PUSH2 0x167 JUMPI DUP3 DUP13 PUSH2 0x376 JUMP JUMPDEST DUP13 MLOAD RETURNDATASIZE DUP7 DUP3 RETURNDATACOPY RETURNDATASIZE SWAP1 REVERT JUMPDEST DUP4 DUP1 REVERT JUMPDEST PUSH2 0x478 SWAP1 PUSH2 0x7BB JUMP JUMPDEST PUSH2 0x46B JUMPI DUP4 DUP14 PUSH2 0x34D JUMP JUMPDEST DUP14 MLOAD RETURNDATASIZE DUP8 DUP3 RETURNDATACOPY RETURNDATASIZE SWAP1 REVERT JUMPDEST PUSH2 0x496 SWAP1 PUSH2 0x7BB JUMP JUMPDEST PUSH2 0x46B JUMPI DUP4 DUP14 PUSH2 0x311 JUMP JUMPDEST PUSH2 0x4AA SWAP1 PUSH2 0x7BB JUMP JUMPDEST PUSH2 0x167 JUMPI DUP3 DUP13 PUSH2 0x2DE JUMP JUMPDEST PUSH2 0x4BE SWAP1 PUSH2 0x7BB JUMP JUMPDEST DUP11 PUSH2 0x29D JUMP JUMPDEST DUP12 MLOAD RETURNDATASIZE DUP5 DUP3 RETURNDATACOPY RETURNDATASIZE SWAP1 REVERT JUMPDEST DUP10 MLOAD PUSH3 0x461BCD PUSH1 0xE5 SHL DUP2 MSTORE DUP1 DUP4 ADD DUP9 SWAP1 MSTORE PUSH1 0x26 DUP2 DUP12 ADD MSTORE PUSH32 0x4D696E696E672070726F6772616D20616C72656164792065786973747320666F PUSH1 0x44 DUP3 ADD MSTORE PUSH6 0x1C881C1BDBDB PUSH1 0xD2 SHL PUSH1 0x64 DUP3 ADD MSTORE PUSH1 0x84 SWAP1 REVERT JUMPDEST DUP5 DUP1 REVERT JUMPDEST DUP1 REVERT JUMPDEST POP SWAP2 CALLVALUE PUSH2 0x523 JUMPI PUSH1 0x20 CALLDATASIZE PUSH1 0x3 NOT ADD SLT PUSH2 0x523 JUMPI DUP3 CALLDATALOAD SWAP3 SLOAD DUP4 LT ISZERO PUSH2 0x523 JUMPI POP PUSH2 0x550 PUSH1 0x20 SWAP3 PUSH2 0x76E JUMP JUMPDEST SWAP1 SLOAD SWAP2 MLOAD SWAP2 PUSH1 0x1 DUP1 PUSH1 0xA0 SHL SUB SWAP2 PUSH1 0x3 SHL SHR AND DUP2 MSTORE RETURN JUMPDEST POP POP CALLVALUE PUSH2 0x1A6 JUMPI PUSH1 0x20 CALLDATASIZE PUSH1 0x3 NOT ADD SLT PUSH2 0x1A6 JUMPI PUSH1 0x20 SWAP2 PUSH1 0x1 PUSH1 0x1 PUSH1 0xA0 SHL SUB SWAP1 DUP3 SWAP1 DUP3 PUSH2 0x590 PUSH2 0x753 JUMP JUMPDEST AND DUP2 MSTORE PUSH1 0x3 DUP6 MSTORE KECCAK256 SLOAD AND SWAP1 MLOAD SWAP1 DUP2 MSTORE RETURN JUMPDEST POP POP CALLVALUE PUSH2 0x1A6 JUMPI DUP2 PUSH1 0x3 NOT CALLDATASIZE ADD SLT PUSH2 0x1A6 JUMPI PUSH1 0x2 SLOAD SWAP1 MLOAD PUSH1 0x1 PUSH1 0x1 PUSH1 0xA0 SHL SUB SWAP1 SWAP2 AND DUP2 MSTORE PUSH1 0x20 SWAP1 RETURN JUMPDEST POP POP CALLVALUE PUSH2 0x1A6 JUMPI DUP2 PUSH1 0x3 NOT CALLDATASIZE ADD SLT PUSH2 0x1A6 JUMPI PUSH1 0x1 SLOAD SWAP1 MLOAD PUSH1 0x1 PUSH1 0x1 PUSH1 0xA0 SHL SUB SWAP1 SWAP2 AND DUP2 MSTORE PUSH1 0x20 SWAP1 RETURN JUMPDEST POP POP CALLVALUE PUSH2 0x1A6 JUMPI DUP2 PUSH1 0x3 NOT CALLDATASIZE ADD SLT PUSH2 0x1A6 JUMPI SWAP1 SLOAD SWAP1 MLOAD PUSH1 0x1 PUSH1 0x1 PUSH1 0xA0 SHL SUB SWAP1 SWAP2 AND DUP2 MSTORE PUSH1 0x20 SWAP1 RETURN JUMPDEST DUP4 CALLVALUE PUSH2 0x523 JUMPI DUP1 PUSH1 0x3 NOT CALLDATASIZE ADD SLT PUSH2 0x523 JUMPI PUSH2 0x634 PUSH2 0x89E JUMP JUMPDEST DUP1 SLOAD PUSH1 0x1 PUSH1 0x1 PUSH1 0xA0 SHL SUB NOT DUP2 AND DUP3 SSTORE DUP2 SWAP1 PUSH1 0x1 PUSH1 0x1 PUSH1 0xA0 SHL SUB AND PUSH32 0x8BE0079C531659141344CD1FD0A4F28419497F9722A3DAAFE3B4186F6B6457E0 DUP3 DUP1 LOG3 DUP1 RETURN JUMPDEST POP DUP3 CALLVALUE PUSH2 0x523 JUMPI DUP1 PUSH1 0x3 NOT CALLDATASIZE ADD SLT PUSH2 0x523 JUMPI SWAP2 SWAP1 DUP2 MLOAD SWAP3 DUP4 DUP3 SLOAD DUP1 DUP7 MSTORE PUSH1 0x20 DUP1 SWAP7 ADD SWAP1 DUP2 SWAP5 DUP5 MSTORE PUSH32 0x8A35ACFBC15FF81A39AE7D344FD709F28E8600B4AA8C65C6B64BFE7FE36BD19B SWAP1 DUP5 JUMPDEST DUP2 DUP2 LT PUSH2 0x71A JUMPI POP POP POP DUP2 PUSH2 0x6D6 SWAP2 SUB DUP3 PUSH2 0x7E5 JUMP JUMPDEST DUP4 MLOAD SWAP5 DUP6 SWAP5 DUP2 DUP7 ADD SWAP3 DUP3 DUP8 MSTORE MLOAD DUP1 SWAP4 MSTORE DUP6 ADD SWAP4 SWAP3 JUMPDEST DUP3 DUP2 LT PUSH2 0x6FA JUMPI POP POP POP POP SUB SWAP1 RETURN JUMPDEST DUP4 MLOAD PUSH1 0x1 PUSH1 0x1 PUSH1 0xA0 SHL SUB AND DUP6 MSTORE DUP7 SWAP6 POP SWAP4 DUP2 ADD SWAP4 SWAP3 DUP2 ADD SWAP3 PUSH1 0x1 ADD PUSH2 0x6EB JUMP JUMPDEST DUP3 SLOAD PUSH1 0x1 PUSH1 0x1 PUSH1 0xA0 SHL SUB AND DUP5 MSTORE SWAP3 DUP9 ADD SWAP3 PUSH1 0x1 SWAP3 DUP4 ADD SWAP3 ADD PUSH2 0x6C0 JUMP JUMPDEST SWAP3 POP POP CALLVALUE PUSH2 0x167 JUMPI DUP3 PUSH1 0x3 NOT CALLDATASIZE ADD SLT PUSH2 0x167 JUMPI PUSH1 0x20 SWAP3 POP SLOAD DUP2 MSTORE RETURN JUMPDEST PUSH1 0x4 CALLDATALOAD SWAP1 PUSH1 0x1 PUSH1 0x1 PUSH1 0xA0 SHL SUB DUP3 AND DUP3 SUB PUSH2 0x769 JUMPI JUMP JUMPDEST PUSH1 0x0 DUP1 REVERT JUMPDEST PUSH1 0x4 SLOAD DUP2 LT ISZERO PUSH2 0x7A5 JUMPI PUSH1 0x4 PUSH1 0x0 MSTORE PUSH32 0x8A35ACFBC15FF81A39AE7D344FD709F28E8600B4AA8C65C6B64BFE7FE36BD19B ADD SWAP1 PUSH1 0x0 SWAP1 JUMP JUMPDEST PUSH4 0x4E487B71 PUSH1 0xE0 SHL PUSH1 0x0 MSTORE PUSH1 0x32 PUSH1 0x4 MSTORE PUSH1 0x24 PUSH1 0x0 REVERT JUMPDEST PUSH8 0xFFFFFFFFFFFFFFFF DUP2 GT PUSH2 0x7CF JUMPI PUSH1 0x40 MSTORE JUMP JUMPDEST PUSH4 0x4E487B71 PUSH1 0xE0 SHL PUSH1 0x0 MSTORE PUSH1 0x41 PUSH1 0x4 MSTORE PUSH1 0x24 PUSH1 0x0 REVERT JUMPDEST SWAP1 PUSH1 0x1F DUP1 NOT SWAP2 ADD AND DUP2 ADD SWAP1 DUP2 LT PUSH8 0xFFFFFFFFFFFFFFFF DUP3 GT OR PUSH2 0x7CF JUMPI PUSH1 0x40 MSTORE JUMP JUMPDEST DUP2 PUSH1 0x1F DUP3 ADD SLT ISZERO PUSH2 0x769 JUMPI DUP1 CALLDATALOAD SWAP1 PUSH8 0xFFFFFFFFFFFFFFFF DUP3 GT PUSH2 0x7CF JUMPI PUSH1 0x40 MLOAD SWAP3 PUSH2 0x83C PUSH1 0x1F DUP5 ADD PUSH1 0x1F NOT AND PUSH1 0x20 ADD DUP6 PUSH2 0x7E5 JUMP JUMPDEST DUP3 DUP5 MSTORE PUSH1 0x20 DUP4 DUP4 ADD ADD GT PUSH2 0x769 JUMPI DUP2 PUSH1 0x0 SWAP3 PUSH1 0x20 DUP1 SWAP4 ADD DUP4 DUP7 ADD CALLDATACOPY DUP4 ADD ADD MSTORE SWAP1 JUMP JUMPDEST SWAP2 SWAP1 DUP3 MLOAD SWAP3 DUP4 DUP3 MSTORE PUSH1 0x0 JUMPDEST DUP5 DUP2 LT PUSH2 0x88A JUMPI POP POP DUP3 PUSH1 0x0 PUSH1 0x20 DUP1 SWAP5 SWAP6 DUP5 ADD ADD MSTORE PUSH1 0x1F DUP1 NOT SWAP2 ADD AND ADD ADD SWAP1 JUMP JUMPDEST PUSH1 0x20 DUP2 DUP4 ADD DUP2 ADD MLOAD DUP5 DUP4 ADD DUP3 ADD MSTORE ADD PUSH2 0x869 JUMP JUMPDEST PUSH1 0x0 SLOAD PUSH1 0x1 PUSH1 0x1 PUSH1 0xA0 SHL SUB AND CALLER SUB PUSH2 0x8B2 JUMPI JUMP JUMPDEST PUSH1 0x64 PUSH1 0x40 MLOAD PUSH3 0x461BCD PUSH1 0xE5 SHL DUP2 MSTORE PUSH1 0x20 PUSH1 0x4 DUP3 ADD MSTORE PUSH1 0x20 PUSH1 0x24 DUP3 ADD MSTORE PUSH32 0x4F776E61626C653A2063616C6C6572206973206E6F7420746865206F776E6572 PUSH1 0x44 DUP3 ADD MSTORE REVERT JUMPDEST PUSH15 0x5AF43D82803E903D91602B57FD5BF3 SWAP1 PUSH23 0x3D602D80600A3D3981F3363D3D373D3D3D363D73000000 PUSH3 0xFFFFFF DUP3 PUSH1 0x88 SHR AND OR PUSH1 0x0 MSTORE PUSH1 0x78 SHL OR PUSH1 0x20 MSTORE PUSH1 0x37 PUSH1 0x9 PUSH1 0x0 CREATE SWAP1 PUSH1 0x1 PUSH1 0x1 PUSH1 0xA0 SHL SUB DUP3 AND ISZERO PUSH2 0x94C JUMPI JUMP JUMPDEST PUSH1 0x40 MLOAD PUSH3 0x461BCD PUSH1 0xE5 SHL DUP2 MSTORE PUSH1 0x20 PUSH1 0x4 DUP3 ADD MSTORE PUSH1 0x16 PUSH1 0x24 DUP3 ADD MSTORE PUSH22 0x115490CC4C4D8DCE8818DC99585D194819985A5B1959 PUSH1 0x52 SHL PUSH1 0x44 DUP3 ADD MSTORE PUSH1 0x64 SWAP1 REVERT INVALID LOG2 PUSH5 0x6970667358 0x22 SLT KECCAK256 MOD 0xE0 ISZERO EXTCODECOPY SWAP2 AND PUSH13 0xF1E26C17CBD3A0653E206A5D4B AND 0xC8 SMOD 0x4B 0xE5 CALLDATALOAD MSIZE OR SWAP5 EXP 0xAA 0xE3 PUSH5 0x736F6C6343 STOP ADDMOD AND STOP CALLER "},"methodIdentifiers":{"allMiningPrograms(uint256)":"e5180cb2","createMiningProgram(address,string,string,uint256,uint256,uint256)":"eea07b7f","getAllMiningPrograms()":"697c191f","getMiningProgramCount()":"100380e4","liquidityMiningImplementation()":"9646f007","miningProgramToToken(address)":"f259a030","owner()":"8da5cb5b","poolToMiningProgram(address)":"a9a42048","renounceOwnership()":"715018a6","rewardTokenImplementation()":"a1854c9b","transferOwnership(address)":"f2fde38b"}}}}}