{"contracts/defi/LiquidityMining.sol":{"LiquidityMining":{"abi":[{"inputs":[],"stateMutability":"nonpayable","type":"constructor"},{"anonymous":false,"inputs":[{"indexed":true,"internalType":"address","name":"previousOwner","type":"address"},{"indexed":true,"internalType":"address","name":"newOwner","type":"address"}],"name":"OwnershipTransferred","type":"event"},{"anonymous":false,"inputs":[{"indexed":true,"internalType":"address","name":"pool","type":"address"},{"indexed":false,"internalType":"uint256","name":"rewardRate","type":"uint256"}],"name":"PoolAdded","type":"event"},{"anonymous":false,"inputs":[{"indexed":true,"internalType":"address","name":"pool","type":"address"},{"indexed":false,"internalType":"uint256","name":"rewardRate","type":"uint256"}],"name":"PoolRewardRateUpdated","type":"event"},{"anonymous":false,"inputs":[{"indexed":true,"internalType":"address","name":"user","type":"address"},{"indexed":true,"internalType":"address","name":"pool","type":"address"},{"indexed":false,"internalType":"uint256","name":"reward","type":"uint256"}],"name":"RewardPaid","type":"event"},{"anonymous":false,"inputs":[{"indexed":true,"internalType":"address","name":"user","type":"address"},{"indexed":true,"internalType":"address","name":"pool","type":"address"},{"indexed":false,"internalType":"uint256","name":"amount","type":"uint256"}],"name":"Staked","type":"event"},{"anonymous":false,"inputs":[{"indexed":true,"internalType":"address","name":"user","type":"address"},{"indexed":true,"internalType":"address","name":"pool","type":"address"},{"indexed":false,"internalType":"uint256","name":"amount","type":"uint256"}],"name":"Withdrawn","type":"event"},{"inputs":[{"internalType":"uint256","name":"","type":"uint256"}],"name":"activePools","outputs":[{"internalType":"address","name":"","type":"address"}],"stateMutability":"view","type":"function"},{"inputs":[{"internalType":"address","name":"_pool","type":"address"},{"internalType":"uint256","name":"_rewardRate","type":"uint256"}],"name":"addPool","outputs":[],"stateMutability":"nonpayable","type":"function"},{"inputs":[{"internalType":"address","name":"_pool","type":"address"}],"name":"claim","outputs":[],"stateMutability":"nonpayable","type":"function"},{"inputs":[{"internalType":"address","name":"_rewardToken","type":"address"}],"name":"initialize","outputs":[],"stateMutability":"nonpayable","type":"function"},{"inputs":[],"name":"owner","outputs":[{"internalType":"address","name":"","type":"address"}],"stateMutability":"view","type":"function"},{"inputs":[{"internalType":"address","name":"_pool","type":"address"},{"internalType":"address","name":"_user","type":"address"}],"name":"pendingRewards","outputs":[{"internalType":"uint256","name":"","type":"uint256"}],"stateMutability":"view","type":"function"},{"inputs":[],"name":"poolLength","outputs":[{"internalType":"uint256","name":"","type":"uint256"}],"stateMutability":"view","type":"function"},{"inputs":[],"name":"renounceOwnership","outputs":[],"stateMutability":"nonpayable","type":"function"},{"inputs":[{"internalType":"address","name":"","type":"address"}],"name":"rewardPools","outputs":[{"internalType":"uint256","name":"rewardRate","type":"uint256"},{"internalType":"uint256","name":"rewardPerShareStored","type":"uint256"},{"internalType":"uint256","name":"lastUpdateTime","type":"uint256"},{"internalType":"uint256","name":"totalStaked","type":"uint256"}],"stateMutability":"view","type":"function"},{"inputs":[],"name":"rewardToken","outputs":[{"internalType":"contract RewardToken","name":"","type":"address"}],"stateMutability":"view","type":"function"},{"inputs":[{"internalType":"address","name":"_pool","type":"address"},{"internalType":"uint256","name":"_rewardRate","type":"uint256"}],"name":"setRewardRate","outputs":[],"stateMutability":"nonpayable","type":"function"},{"inputs":[{"internalType":"address","name":"_pool","type":"address"},{"internalType":"uint256","name":"_amount","type":"uint256"}],"name":"stake","outputs":[],"stateMutability":"nonpayable","type":"function"},{"inputs":[{"internalType":"address","name":"newOwner","type":"address"}],"name":"transferOwnership","outputs":[],"stateMutability":"nonpayable","type":"function"},{"inputs":[{"internalType":"address","name":"_pool","type":"address"}],"name":"updatePool","outputs":[],"stateMutability":"nonpayable","type":"function"},{"inputs":[{"internalType":"address","name":"","type":"address"},{"internalType":"address","name":"","type":"address"}],"name":"userInfo","outputs":[{"internalType":"uint256","name":"staked","type":"uint256"},{"internalType":"uint256","name":"rewardPerSharePaid","type":"uint256"},{"internalType":"uint256","name":"rewards","type":"uint256"}],"stateMutability":"view","type":"function"},{"inputs":[{"internalType":"address","name":"_pool","type":"address"},{"internalType":"uint256","name":"_amount","type":"uint256"}],"name":"withdraw","outputs":[],"stateMutability":"nonpayable","type":"function"}],"evm":{"bytecode":{"linkReferences":{},"object":"6080806040523461005f5760008054336001600160a01b0319821681178355916001600160a01b03909116907f8be0079c531659141344cd1fd0a4f28419497f9722a3daafe3b4186f6b6457e09080a36001805561115990816100658239f35b600080fdfe6080604081815260048036101561001557600080fd5b600092833560e01c908163081e3eda14610c4b575080630f208beb14610bed5780631e83409a14610aa757806332a9caba14610907578063372d9448146108ad578063715018a6146108535780637b46c54f1461083157806380ac82281461070d578063812a71d51461064e5780638da5cb5b14610626578063adc9772e1461044e578063c4d66de81461037b578063f2fde38b146102ea578063f3fef3a314610146578063f7c618c1146101195763f87793ad146100d357600080fd5b3461011557602036600319011261011557359160055483101561011257506100fc602092610c98565b905491519160018060a01b039160031b1c168152f35b80fd5b8280fd5b50503461014257816003193601126101425760025490516001600160a01b039091168152602090f35b5080fd5b509034610115578060031936011261011557610160610c67565b6024359161016c610e0a565b82156102b45760018060a01b0382169384865260209281845282872033600052845282600020918583541061027157507fd1c19fbcd4551a5edfb66d43d2e337c04837afda3482b42bdf569a8fccdae5fb9392916101cb600392610d80565b86885281845282882090805490600183019061021d89835494670de0b6b3a76400006102066102006001870198895490610ce5565b83610d08565b0461021660028601918254610d3b565b9055610ce5565b90555490550161022e858254610ce5565b9055805163a9059cbb60e01b83820152336024820152604480820186905281526102639061025d606482610d48565b86610eff565b519283523392a36001805580f35b835162461bcd60e51b8152908101859052601a60248201527f496e73756666696369656e74207374616b656420616d6f756e740000000000006044820152606490fd5b5162461bcd60e51b81526020818501526011602482015270043616e6e6f74207769746864726177203607c1b6044820152606490fd5b503461011557602036600319011261011557610304610c67565b9161030d610e60565b6001600160a01b03831615610329578361032684610eb8565b80f35b906020608492519162461bcd60e51b8352820152602660248201527f4f776e61626c653a206e6577206f776e657220697320746865207a65726f206160448201526564647265737360d01b6064820152fd5b5082903461014257602036600319011261014257610397610c67565b906006549160ff8316610415576001600160a01b03169081156103db5750600280546001600160a01b031916909117905560ff191660011760065561032633610eb8565b606490602086519162461bcd60e51b8352820152601460248201527324b73b30b634b2103932bbb0b932103a37b5b2b760611b6044820152fd5b845162461bcd60e51b81526020818401526013602482015272105b1c9958591e481a5b9a5d1a585b1a5e9959606a1b6044820152606490fd5b509034610115578060031936011261011557610468610c67565b60243591610474610e0a565b82156105f35760018060a01b038216938486526020926003845260028388200154156105bf576104a390610d80565b84865260038352818620908084528287203360005284528260002090815480610581575b5083516323b872dd60e01b86820152336024820152306044820152606480820188905281529060a082019067ffffffffffffffff82118383101761056c57509161053a8594926003947f5dac0c1b1112564a045ba943c9d50270893e8e826c49be8e7073adc713ab7bd798975289610eff565b610545878254610d3b565b81556001808301549101550161055c858254610d3b565b9055519283523392a36001805580f35b604190634e487b7160e01b6000525260246000fd5b6105a7670de0b6b3a7640000916105a16001870154600187015490610ce5565b90610d08565b046105b760028401918254610d3b565b9055386104c7565b5082606492519162461bcd60e51b8352820152600f60248201526e506f6f6c206e6f742061637469766560881b6044820152fd5b5162461bcd60e51b8152602081850152600e60248201526d043616e6e6f74207374616b6520360941b6044820152606490fd5b505034610142578160031936011261014257905490516001600160a01b039091168152602090f35b509034610115578060031936011261011557610668610c67565b9060243591610675610e60565b6001600160a01b038116808652600360205282862060020154909490156106d95750916020916106c57f7fed494c3ce40876961e67e61b9a4e29c2291b68c03dad6f53ad35f16cc642e894610d80565b84865260038352818187205551908152a280f35b606490602084519162461bcd60e51b8352820152600e60248201526d141bdbdb081b9bdd08185919195960921b6044820152fd5b509134610112578160031936011261011257610727610c67565b61072f610c82565b60018060a01b0380921683526003602052838320918560205284842091166000526020528260002091600182015491600281015480421180610824575b6107a9575b6020866107a2876002670de0b6b3a76400006107988a6105a1855491600187015490610ce5565b0491015490610d3b565b9051908152f35b6107b66107be9142610ce5565b825490610d08565b91670de0b6b3a7640000928381029381850414901517156108115750602095506107986108096107a295946108036002956003670de0b6b3a764000096015490610d1b565b90610d3b565b939450610771565b634e487b7160e01b815260118752602490fd5b506003820154151561076c565b83346101125760203660031901126101125761032661084e610c67565b610d80565b833461011257806003193601126101125761086c610e60565b600080546001600160a01b0319811682556001600160a01b03167f8be0079c531659141344cd1fd0a4f28419497f9722a3daafe3b4186f6b6457e08280a380f35b5050346101425760203660031901126101425760809181906001600160a01b036108d5610c67565b168152600360205220908154916001810154916003600283015492015492815194855260208501528301526060820152f35b509034610115578060031936011261011557610921610c67565b906024359161092e610e60565b6001600160a01b03908116938415610a6d57848652600360205260028387200154610a355782516080810181811067ffffffffffffffff821117610a2057845284815260036020820188815285830142815260608401918a8352898b5283602052878b2094518555516001850155516002840155519101556005549068010000000000000000821015610a0d5750917f0c98febfffcec480c66a977e13f14bafdb5199ea9603591a0715b0cabe0c3ae293916109f284600160209601600555610c98565b819291549060031b9188831b921b191617905551908152a280f35b634e487b7160e01b875260419052602486fd5b604183634e487b7160e01b6000525260246000fd5b606490602084519162461bcd60e51b83528201526012602482015271141bdbdb08185b1c9958591e48185919195960721b6044820152fd5b606490602084519162461bcd60e51b83528201526014602482015273496e76616c696420706f6f6c206164647265737360601b6044820152fd5b50903461011557602036600319011261011557610ac2610c67565b90610acb610e0a565b610ad482610d80565b60018060a01b0380921692838552600360205281852092816020528286203387526020528286209360018554910187610b326002670de0b6b3a7640000610b278554966105a160018d0198895490610ce5565b049801978854610d3b565b96555490556002541690813b15610be95782516340c10f1960e01b815233828201908152602081018690529092879184919082908490829060400103925af18015610bdf57610baf575b5050519081527f540798df468d7b23d11f156fdb954cb19ad414d150722a7b6d55ba369dea792e60203392a36001805580f35b67ffffffffffffffff8296939611610bcc57508452923880610b7c565b634e487b7160e01b835260419052602482fd5b83513d88823e3d90fd5b8580fd5b50346101155781600319360112610115576060928291610c0b610c67565b610c13610c82565b9160018060a01b0380921684526020528383209116825260205220805491600260018301549201549181519384526020840152820152f35b8490346101425781600319360112610142576020906005548152f35b600435906001600160a01b0382168203610c7d57565b600080fd5b602435906001600160a01b0382168203610c7d57565b600554811015610ccf5760056000527f036b6384b5eca791c62761152d0c79bb0604c104a5fb6f4eb0703f3154bb3db00190600090565b634e487b7160e01b600052603260045260246000fd5b91908203918211610cf257565b634e487b7160e01b600052601160045260246000fd5b81810292918115918404141715610cf257565b8115610d25570490565b634e487b7160e01b600052601260045260246000fd5b91908201809211610cf257565b90601f8019910116810190811067ffffffffffffffff821117610d6a57604052565b634e487b7160e01b600052604160045260246000fd5b60018060a01b03166000526003602052604060002060028101908154421115610e065760038101548015610dff57610dc4610dbc845442610ce5565b835490610d08565b90670de0b6b3a764000091828102928184041490151715610cf257610dee600191610df893610d1b565b9201918254610d3b565b9055429055565b5050429055565b5050565b600260015414610e1b576002600155565b60405162461bcd60e51b815260206004820152601f60248201527f5265656e7472616e637947756172643a207265656e7472616e742063616c6c006044820152606490fd5b6000546001600160a01b03163303610e7457565b606460405162461bcd60e51b815260206004820152602060248201527f4f776e61626c653a2063616c6c6572206973206e6f7420746865206f776e65726044820152fd5b600080546001600160a01b039283166001600160a01b03198216811783559216907f8be0079c531659141344cd1fd0a4f28419497f9722a3daafe3b4186f6b6457e09080a3565b60018060a01b0316906040516040810167ffffffffffffffff9082811082821117610d6a576040526020938483527f5361666545524332303a206c6f772d6c6576656c2063616c6c206661696c6564858401526000808587829751910182855af1903d15611044573d9283116110305790610f9a93929160405192610f8d88601f19601f8401160185610d48565b83523d868885013e61104f565b80519182159184831561100c575b505050905015610fb55750565b6084906040519062461bcd60e51b82526004820152602a60248201527f5361666545524332303a204552433230206f7065726174696f6e20646964206e6044820152691bdd081cdd58d8d9595960b21b6064820152fd5b91938180945001031261014257820151908115158203610112575080388084610fa8565b634e487b7160e01b85526041600452602485fd5b90610f9a9392506060915b919290156110b15750815115611063575090565b3b1561106c5790565b60405162461bcd60e51b815260206004820152601d60248201527f416464726573733a2063616c6c20746f206e6f6e2d636f6e74726163740000006044820152606490fd5b8251909150156110c45750805190602001fd5b6040519062461bcd60e51b82528160208060048301528251908160248401526000935b82851061110a575050604492506000838284010152601f80199101168101030190fd5b84810182015186860160440152938101938593506110e756fea2646970667358221220186cbc8e8c82fa87e0e3081e25c8c11e68a7ce993a0027e9192dfc5cb79be5cd64736f6c63430008160033","opcodes":"PUSH1 0x80 DUP1 PUSH1 0x40 MSTORE CALLVALUE PUSH2 0x5F JUMPI PUSH1 0x0 DUP1 SLOAD CALLER PUSH1 0x1 PUSH1 0x1 PUSH1 0xA0 SHL SUB NOT DUP3 AND DUP2 OR DUP4 SSTORE SWAP2 PUSH1 0x1 PUSH1 0x1 PUSH1 0xA0 SHL SUB SWAP1 SWAP2 AND SWAP1 PUSH32 0x8BE0079C531659141344CD1FD0A4F28419497F9722A3DAAFE3B4186F6B6457E0 SWAP1 DUP1 LOG3 PUSH1 0x1 DUP1 SSTORE PUSH2 0x1159 SWAP1 DUP2 PUSH2 0x65 DUP3 CODECOPY RETURN JUMPDEST PUSH1 0x0 DUP1 REVERT INVALID PUSH1 0x80 PUSH1 0x40 DUP2 DUP2 MSTORE PUSH1 0x4 DUP1 CALLDATASIZE LT ISZERO PUSH2 0x15 JUMPI PUSH1 0x0 DUP1 REVERT JUMPDEST PUSH1 0x0 SWAP3 DUP4 CALLDATALOAD PUSH1 0xE0 SHR SWAP1 DUP2 PUSH4 0x81E3EDA EQ PUSH2 0xC4B JUMPI POP DUP1 PUSH4 0xF208BEB EQ PUSH2 0xBED JUMPI DUP1 PUSH4 0x1E83409A EQ PUSH2 0xAA7 JUMPI DUP1 PUSH4 0x32A9CABA EQ PUSH2 0x907 JUMPI DUP1 PUSH4 0x372D9448 EQ PUSH2 0x8AD JUMPI DUP1 PUSH4 0x715018A6 EQ PUSH2 0x853 JUMPI DUP1 PUSH4 0x7B46C54F EQ PUSH2 0x831 JUMPI DUP1 PUSH4 0x80AC8228 EQ PUSH2 0x70D JUMPI DUP1 PUSH4 0x812A71D5 EQ PUSH2 0x64E JUMPI DUP1 PUSH4 0x8DA5CB5B EQ PUSH2 0x626 JUMPI DUP1 PUSH4 0xADC9772E EQ PUSH2 0x44E JUMPI DUP1 PUSH4 0xC4D66DE8 EQ PUSH2 0x37B JUMPI DUP1 PUSH4 0xF2FDE38B EQ PUSH2 0x2EA JUMPI DUP1 PUSH4 0xF3FEF3A3 EQ PUSH2 0x146 JUMPI DUP1 PUSH4 0xF7C618C1 EQ PUSH2 0x119 JUMPI PUSH4 0xF87793AD EQ PUSH2 0xD3 JUMPI PUSH1 0x0 DUP1 REVERT JUMPDEST CALLVALUE PUSH2 0x115 JUMPI PUSH1 0x20 CALLDATASIZE PUSH1 0x3 NOT ADD SLT PUSH2 0x115 JUMPI CALLDATALOAD SWAP2 PUSH1 0x5 SLOAD DUP4 LT ISZERO PUSH2 0x112 JUMPI POP PUSH2 0xFC PUSH1 0x20 SWAP3 PUSH2 0xC98 JUMP JUMPDEST SWAP1 SLOAD SWAP2 MLOAD SWAP2 PUSH1 0x1 DUP1 PUSH1 0xA0 SHL SUB SWAP2 PUSH1 0x3 SHL SHR AND DUP2 MSTORE RETURN JUMPDEST DUP1 REVERT JUMPDEST DUP3 DUP1 REVERT JUMPDEST POP POP CALLVALUE PUSH2 0x142 JUMPI DUP2 PUSH1 0x3 NOT CALLDATASIZE ADD SLT PUSH2 0x142 JUMPI PUSH1 0x2 SLOAD SWAP1 MLOAD PUSH1 0x1 PUSH1 0x1 PUSH1 0xA0 SHL SUB SWAP1 SWAP2 AND DUP2 MSTORE PUSH1 0x20 SWAP1 RETURN JUMPDEST POP DUP1 REVERT JUMPDEST POP SWAP1 CALLVALUE PUSH2 0x115 JUMPI DUP1 PUSH1 0x3 NOT CALLDATASIZE ADD SLT PUSH2 0x115 JUMPI PUSH2 0x160 PUSH2 0xC67 JUMP JUMPDEST PUSH1 0x24 CALLDATALOAD SWAP2 PUSH2 0x16C PUSH2 0xE0A JUMP JUMPDEST DUP3 ISZERO PUSH2 0x2B4 JUMPI PUSH1 0x1 DUP1 PUSH1 0xA0 SHL SUB DUP3 AND SWAP4 DUP5 DUP7 MSTORE PUSH1 0x20 SWAP3 DUP2 DUP5 MSTORE DUP3 DUP8 KECCAK256 CALLER PUSH1 0x0 MSTORE DUP5 MSTORE DUP3 PUSH1 0x0 KECCAK256 SWAP2 DUP6 DUP4 SLOAD LT PUSH2 0x271 JUMPI POP PUSH32 0xD1C19FBCD4551A5EDFB66D43D2E337C04837AFDA3482B42BDF569A8FCCDAE5FB SWAP4 SWAP3 SWAP2 PUSH2 0x1CB PUSH1 0x3 SWAP3 PUSH2 0xD80 JUMP JUMPDEST DUP7 DUP9 MSTORE DUP2 DUP5 MSTORE DUP3 DUP9 KECCAK256 SWAP1 DUP1 SLOAD SWAP1 PUSH1 0x1 DUP4 ADD SWAP1 PUSH2 0x21D DUP10 DUP4 SLOAD SWAP5 PUSH8 0xDE0B6B3A7640000 PUSH2 0x206 PUSH2 0x200 PUSH1 0x1 DUP8 ADD SWAP9 DUP10 SLOAD SWAP1 PUSH2 0xCE5 JUMP JUMPDEST DUP4 PUSH2 0xD08 JUMP JUMPDEST DIV PUSH2 0x216 PUSH1 0x2 DUP7 ADD SWAP2 DUP3 SLOAD PUSH2 0xD3B JUMP JUMPDEST SWAP1 SSTORE PUSH2 0xCE5 JUMP JUMPDEST SWAP1 SSTORE SLOAD SWAP1 SSTORE ADD PUSH2 0x22E DUP6 DUP3 SLOAD PUSH2 0xCE5 JUMP JUMPDEST SWAP1 SSTORE DUP1 MLOAD PUSH4 0xA9059CBB PUSH1 0xE0 SHL DUP4 DUP3 ADD MSTORE CALLER PUSH1 0x24 DUP3 ADD MSTORE PUSH1 0x44 DUP1 DUP3 ADD DUP7 SWAP1 MSTORE DUP2 MSTORE PUSH2 0x263 SWAP1 PUSH2 0x25D PUSH1 0x64 DUP3 PUSH2 0xD48 JUMP JUMPDEST DUP7 PUSH2 0xEFF JUMP JUMPDEST MLOAD SWAP3 DUP4 MSTORE CALLER SWAP3 LOG3 PUSH1 0x1 DUP1 SSTORE DUP1 RETURN JUMPDEST DUP4 MLOAD PUSH3 0x461BCD PUSH1 0xE5 SHL DUP2 MSTORE SWAP1 DUP2 ADD DUP6 SWAP1 MSTORE PUSH1 0x1A PUSH1 0x24 DUP3 ADD MSTORE PUSH32 0x496E73756666696369656E74207374616B656420616D6F756E74000000000000 PUSH1 0x44 DUP3 ADD MSTORE PUSH1 0x64 SWAP1 REVERT JUMPDEST MLOAD PUSH3 0x461BCD PUSH1 0xE5 SHL DUP2 MSTORE PUSH1 0x20 DUP2 DUP6 ADD MSTORE PUSH1 0x11 PUSH1 0x24 DUP3 ADD MSTORE PUSH17 0x43616E6E6F74207769746864726177203 PUSH1 0x7C SHL PUSH1 0x44 DUP3 ADD MSTORE PUSH1 0x64 SWAP1 REVERT JUMPDEST POP CALLVALUE PUSH2 0x115 JUMPI PUSH1 0x20 CALLDATASIZE PUSH1 0x3 NOT ADD SLT PUSH2 0x115 JUMPI PUSH2 0x304 PUSH2 0xC67 JUMP JUMPDEST SWAP2 PUSH2 0x30D PUSH2 0xE60 JUMP JUMPDEST PUSH1 0x1 PUSH1 0x1 PUSH1 0xA0 SHL SUB DUP4 AND ISZERO PUSH2 0x329 JUMPI DUP4 PUSH2 0x326 DUP5 PUSH2 0xEB8 JUMP JUMPDEST DUP1 RETURN JUMPDEST SWAP1 PUSH1 0x20 PUSH1 0x84 SWAP3 MLOAD SWAP2 PUSH3 0x461BCD PUSH1 0xE5 SHL DUP4 MSTORE DUP3 ADD MSTORE PUSH1 0x26 PUSH1 0x24 DUP3 ADD MSTORE PUSH32 0x4F776E61626C653A206E6577206F776E657220697320746865207A65726F2061 PUSH1 0x44 DUP3 ADD MSTORE PUSH6 0x646472657373 PUSH1 0xD0 SHL PUSH1 0x64 DUP3 ADD MSTORE REVERT JUMPDEST POP DUP3 SWAP1 CALLVALUE PUSH2 0x142 JUMPI PUSH1 0x20 CALLDATASIZE PUSH1 0x3 NOT ADD SLT PUSH2 0x142 JUMPI PUSH2 0x397 PUSH2 0xC67 JUMP JUMPDEST SWAP1 PUSH1 0x6 SLOAD SWAP2 PUSH1 0xFF DUP4 AND PUSH2 0x415 JUMPI PUSH1 0x1 PUSH1 0x1 PUSH1 0xA0 SHL SUB AND SWAP1 DUP2 ISZERO PUSH2 0x3DB JUMPI POP PUSH1 0x2 DUP1 SLOAD PUSH1 0x1 PUSH1 0x1 PUSH1 0xA0 SHL SUB NOT AND SWAP1 SWAP2 OR SWAP1 SSTORE PUSH1 0xFF NOT AND PUSH1 0x1 OR PUSH1 0x6 SSTORE PUSH2 0x326 CALLER PUSH2 0xEB8 JUMP JUMPDEST PUSH1 0x64 SWAP1 PUSH1 0x20 DUP7 MLOAD SWAP2 PUSH3 0x461BCD PUSH1 0xE5 SHL DUP4 MSTORE DUP3 ADD MSTORE PUSH1 0x14 PUSH1 0x24 DUP3 ADD MSTORE PUSH20 0x24B73B30B634B2103932BBB0B932103A37B5B2B7 PUSH1 0x61 SHL PUSH1 0x44 DUP3 ADD MSTORE REVERT JUMPDEST DUP5 MLOAD PUSH3 0x461BCD PUSH1 0xE5 SHL DUP2 MSTORE PUSH1 0x20 DUP2 DUP5 ADD MSTORE PUSH1 0x13 PUSH1 0x24 DUP3 ADD MSTORE PUSH19 0x105B1C9958591E481A5B9A5D1A585B1A5E9959 PUSH1 0x6A SHL PUSH1 0x44 DUP3 ADD MSTORE PUSH1 0x64 SWAP1 REVERT JUMPDEST POP SWAP1 CALLVALUE PUSH2 0x115 JUMPI DUP1 PUSH1 0x3 NOT CALLDATASIZE ADD SLT PUSH2 0x115 JUMPI PUSH2 0x468 PUSH2 0xC67 JUMP JUMPDEST PUSH1 0x24 CALLDATALOAD SWAP2 PUSH2 0x474 PUSH2 0xE0A JUMP JUMPDEST DUP3 ISZERO PUSH2 0x5F3 JUMPI PUSH1 0x1 DUP1 PUSH1 0xA0 SHL SUB DUP3 AND SWAP4 DUP5 DUP7 MSTORE PUSH1 0x20 SWAP3 PUSH1 0x3 DUP5 MSTORE PUSH1 0x2 DUP4 DUP9 KECCAK256 ADD SLOAD ISZERO PUSH2 0x5BF JUMPI PUSH2 0x4A3 SWAP1 PUSH2 0xD80 JUMP JUMPDEST DUP5 DUP7 MSTORE PUSH1 0x3 DUP4 MSTORE DUP2 DUP7 KECCAK256 SWAP1 DUP1 DUP5 MSTORE DUP3 DUP8 KECCAK256 CALLER PUSH1 0x0 MSTORE DUP5 MSTORE DUP3 PUSH1 0x0 KECCAK256 SWAP1 DUP2 SLOAD DUP1 PUSH2 0x581 JUMPI JUMPDEST POP DUP4 MLOAD PUSH4 0x23B872DD PUSH1 0xE0 SHL DUP7 DUP3 ADD MSTORE CALLER PUSH1 0x24 DUP3 ADD MSTORE ADDRESS PUSH1 0x44 DUP3 ADD MSTORE PUSH1 0x64 DUP1 DUP3 ADD DUP9 SWAP1 MSTORE DUP2 MSTORE SWAP1 PUSH1 0xA0 DUP3 ADD SWAP1 PUSH8 0xFFFFFFFFFFFFFFFF DUP3 GT DUP4 DUP4 LT OR PUSH2 0x56C JUMPI POP SWAP2 PUSH2 0x53A DUP6 SWAP5 SWAP3 PUSH1 0x3 SWAP5 PUSH32 0x5DAC0C1B1112564A045BA943C9D50270893E8E826C49BE8E7073ADC713AB7BD7 SWAP9 SWAP8 MSTORE DUP10 PUSH2 0xEFF JUMP JUMPDEST PUSH2 0x545 DUP8 DUP3 SLOAD PUSH2 0xD3B JUMP JUMPDEST DUP2 SSTORE PUSH1 0x1 DUP1 DUP4 ADD SLOAD SWAP2 ADD SSTORE ADD PUSH2 0x55C DUP6 DUP3 SLOAD PUSH2 0xD3B JUMP JUMPDEST SWAP1 SSTORE MLOAD SWAP3 DUP4 MSTORE CALLER SWAP3 LOG3 PUSH1 0x1 DUP1 SSTORE DUP1 RETURN JUMPDEST PUSH1 0x41 SWAP1 PUSH4 0x4E487B71 PUSH1 0xE0 SHL PUSH1 0x0 MSTORE MSTORE PUSH1 0x24 PUSH1 0x0 REVERT JUMPDEST PUSH2 0x5A7 PUSH8 0xDE0B6B3A7640000 SWAP2 PUSH2 0x5A1 PUSH1 0x1 DUP8 ADD SLOAD PUSH1 0x1 DUP8 ADD SLOAD SWAP1 PUSH2 0xCE5 JUMP JUMPDEST SWAP1 PUSH2 0xD08 JUMP JUMPDEST DIV PUSH2 0x5B7 PUSH1 0x2 DUP5 ADD SWAP2 DUP3 SLOAD PUSH2 0xD3B JUMP JUMPDEST SWAP1 SSTORE CODESIZE PUSH2 0x4C7 JUMP JUMPDEST POP DUP3 PUSH1 0x64 SWAP3 MLOAD SWAP2 PUSH3 0x461BCD PUSH1 0xE5 SHL DUP4 MSTORE DUP3 ADD MSTORE PUSH1 0xF PUSH1 0x24 DUP3 ADD MSTORE PUSH15 0x506F6F6C206E6F7420616374697665 PUSH1 0x88 SHL PUSH1 0x44 DUP3 ADD MSTORE REVERT JUMPDEST MLOAD PUSH3 0x461BCD PUSH1 0xE5 SHL DUP2 MSTORE PUSH1 0x20 DUP2 DUP6 ADD MSTORE PUSH1 0xE PUSH1 0x24 DUP3 ADD MSTORE PUSH14 0x43616E6E6F74207374616B65203 PUSH1 0x94 SHL PUSH1 0x44 DUP3 ADD MSTORE PUSH1 0x64 SWAP1 REVERT JUMPDEST POP POP CALLVALUE PUSH2 0x142 JUMPI DUP2 PUSH1 0x3 NOT CALLDATASIZE ADD SLT PUSH2 0x142 JUMPI SWAP1 SLOAD SWAP1 MLOAD PUSH1 0x1 PUSH1 0x1 PUSH1 0xA0 SHL SUB SWAP1 SWAP2 AND DUP2 MSTORE PUSH1 0x20 SWAP1 RETURN JUMPDEST POP SWAP1 CALLVALUE PUSH2 0x115 JUMPI DUP1 PUSH1 0x3 NOT CALLDATASIZE ADD SLT PUSH2 0x115 JUMPI PUSH2 0x668 PUSH2 0xC67 JUMP JUMPDEST SWAP1 PUSH1 0x24 CALLDATALOAD SWAP2 PUSH2 0x675 PUSH2 0xE60 JUMP JUMPDEST PUSH1 0x1 PUSH1 0x1 PUSH1 0xA0 SHL SUB DUP2 AND DUP1 DUP7 MSTORE PUSH1 0x3 PUSH1 0x20 MSTORE DUP3 DUP7 KECCAK256 PUSH1 0x2 ADD SLOAD SWAP1 SWAP5 SWAP1 ISZERO PUSH2 0x6D9 JUMPI POP SWAP2 PUSH1 0x20 SWAP2 PUSH2 0x6C5 PUSH32 0x7FED494C3CE40876961E67E61B9A4E29C2291B68C03DAD6F53AD35F16CC642E8 SWAP5 PUSH2 0xD80 JUMP JUMPDEST DUP5 DUP7 MSTORE PUSH1 0x3 DUP4 MSTORE DUP2 DUP2 DUP8 KECCAK256 SSTORE MLOAD SWAP1 DUP2 MSTORE LOG2 DUP1 RETURN JUMPDEST PUSH1 0x64 SWAP1 PUSH1 0x20 DUP5 MLOAD SWAP2 PUSH3 0x461BCD PUSH1 0xE5 SHL DUP4 MSTORE DUP3 ADD MSTORE PUSH1 0xE PUSH1 0x24 DUP3 ADD MSTORE PUSH14 0x141BDBDB081B9BDD081859191959 PUSH1 0x92 SHL PUSH1 0x44 DUP3 ADD MSTORE REVERT JUMPDEST POP SWAP2 CALLVALUE PUSH2 0x112 JUMPI DUP2 PUSH1 0x3 NOT CALLDATASIZE ADD SLT PUSH2 0x112 JUMPI PUSH2 0x727 PUSH2 0xC67 JUMP JUMPDEST PUSH2 0x72F PUSH2 0xC82 JUMP JUMPDEST PUSH1 0x1 DUP1 PUSH1 0xA0 SHL SUB DUP1 SWAP3 AND DUP4 MSTORE PUSH1 0x3 PUSH1 0x20 MSTORE DUP4 DUP4 KECCAK256 SWAP2 DUP6 PUSH1 0x20 MSTORE DUP5 DUP5 KECCAK256 SWAP2 AND PUSH1 0x0 MSTORE PUSH1 0x20 MSTORE DUP3 PUSH1 0x0 KECCAK256 SWAP2 PUSH1 0x1 DUP3 ADD SLOAD SWAP2 PUSH1 0x2 DUP2 ADD SLOAD DUP1 TIMESTAMP GT DUP1 PUSH2 0x824 JUMPI JUMPDEST PUSH2 0x7A9 JUMPI JUMPDEST PUSH1 0x20 DUP7 PUSH2 0x7A2 DUP8 PUSH1 0x2 PUSH8 0xDE0B6B3A7640000 PUSH2 0x798 DUP11 PUSH2 0x5A1 DUP6 SLOAD SWAP2 PUSH1 0x1 DUP8 ADD SLOAD SWAP1 PUSH2 0xCE5 JUMP JUMPDEST DIV SWAP2 ADD SLOAD SWAP1 PUSH2 0xD3B JUMP JUMPDEST SWAP1 MLOAD SWAP1 DUP2 MSTORE RETURN JUMPDEST PUSH2 0x7B6 PUSH2 0x7BE SWAP2 TIMESTAMP PUSH2 0xCE5 JUMP JUMPDEST DUP3 SLOAD SWAP1 PUSH2 0xD08 JUMP JUMPDEST SWAP2 PUSH8 0xDE0B6B3A7640000 SWAP3 DUP4 DUP2 MUL SWAP4 DUP2 DUP6 DIV EQ SWAP1 ISZERO OR ISZERO PUSH2 0x811 JUMPI POP PUSH1 0x20 SWAP6 POP PUSH2 0x798 PUSH2 0x809 PUSH2 0x7A2 SWAP6 SWAP5 PUSH2 0x803 PUSH1 0x2 SWAP6 PUSH1 0x3 PUSH8 0xDE0B6B3A7640000 SWAP7 ADD SLOAD SWAP1 PUSH2 0xD1B JUMP JUMPDEST SWAP1 PUSH2 0xD3B JUMP JUMPDEST SWAP4 SWAP5 POP PUSH2 0x771 JUMP JUMPDEST PUSH4 0x4E487B71 PUSH1 0xE0 SHL DUP2 MSTORE PUSH1 0x11 DUP8 MSTORE PUSH1 0x24 SWAP1 REVERT JUMPDEST POP PUSH1 0x3 DUP3 ADD SLOAD ISZERO ISZERO PUSH2 0x76C JUMP JUMPDEST DUP4 CALLVALUE PUSH2 0x112 JUMPI PUSH1 0x20 CALLDATASIZE PUSH1 0x3 NOT ADD SLT PUSH2 0x112 JUMPI PUSH2 0x326 PUSH2 0x84E PUSH2 0xC67 JUMP JUMPDEST PUSH2 0xD80 JUMP JUMPDEST DUP4 CALLVALUE PUSH2 0x112 JUMPI DUP1 PUSH1 0x3 NOT CALLDATASIZE ADD SLT PUSH2 0x112 JUMPI PUSH2 0x86C PUSH2 0xE60 JUMP JUMPDEST PUSH1 0x0 DUP1 SLOAD PUSH1 0x1 PUSH1 0x1 PUSH1 0xA0 SHL SUB NOT DUP2 AND DUP3 SSTORE PUSH1 0x1 PUSH1 0x1 PUSH1 0xA0 SHL SUB AND PUSH32 0x8BE0079C531659141344CD1FD0A4F28419497F9722A3DAAFE3B4186F6B6457E0 DUP3 DUP1 LOG3 DUP1 RETURN JUMPDEST POP POP CALLVALUE PUSH2 0x142 JUMPI PUSH1 0x20 CALLDATASIZE PUSH1 0x3 NOT ADD SLT PUSH2 0x142 JUMPI PUSH1 0x80 SWAP2 DUP2 SWAP1 PUSH1 0x1 PUSH1 0x1 PUSH1 0xA0 SHL SUB PUSH2 0x8D5 PUSH2 0xC67 JUMP JUMPDEST AND DUP2 MSTORE PUSH1 0x3 PUSH1 0x20 MSTORE KECCAK256 SWAP1 DUP2 SLOAD SWAP2 PUSH1 0x1 DUP2 ADD SLOAD SWAP2 PUSH1 0x3 PUSH1 0x2 DUP4 ADD SLOAD SWAP3 ADD SLOAD SWAP3 DUP2 MLOAD SWAP5 DUP6 MSTORE PUSH1 0x20 DUP6 ADD MSTORE DUP4 ADD MSTORE PUSH1 0x60 DUP3 ADD MSTORE RETURN JUMPDEST POP SWAP1 CALLVALUE PUSH2 0x115 JUMPI DUP1 PUSH1 0x3 NOT CALLDATASIZE ADD SLT PUSH2 0x115 JUMPI PUSH2 0x921 PUSH2 0xC67 JUMP JUMPDEST SWAP1 PUSH1 0x24 CALLDATALOAD SWAP2 PUSH2 0x92E PUSH2 0xE60 JUMP JUMPDEST PUSH1 0x1 PUSH1 0x1 PUSH1 0xA0 SHL SUB SWAP1 DUP2 AND SWAP4 DUP5 ISZERO PUSH2 0xA6D JUMPI DUP5 DUP7 MSTORE PUSH1 0x3 PUSH1 0x20 MSTORE PUSH1 0x2 DUP4 DUP8 KECCAK256 ADD SLOAD PUSH2 0xA35 JUMPI DUP3 MLOAD PUSH1 0x80 DUP2 ADD DUP2 DUP2 LT PUSH8 0xFFFFFFFFFFFFFFFF DUP3 GT OR PUSH2 0xA20 JUMPI DUP5 MSTORE DUP5 DUP2 MSTORE PUSH1 0x3 PUSH1 0x20 DUP3 ADD DUP9 DUP2 MSTORE DUP6 DUP4 ADD TIMESTAMP DUP2 MSTORE PUSH1 0x60 DUP5 ADD SWAP2 DUP11 DUP4 MSTORE DUP10 DUP12 MSTORE DUP4 PUSH1 0x20 MSTORE DUP8 DUP12 KECCAK256 SWAP5 MLOAD DUP6 SSTORE MLOAD PUSH1 0x1 DUP6 ADD SSTORE MLOAD PUSH1 0x2 DUP5 ADD SSTORE MLOAD SWAP2 ADD SSTORE PUSH1 0x5 SLOAD SWAP1 PUSH9 0x10000000000000000 DUP3 LT ISZERO PUSH2 0xA0D JUMPI POP SWAP2 PUSH32 0xC98FEBFFFCEC480C66A977E13F14BAFDB5199EA9603591A0715B0CABE0C3AE2 SWAP4 SWAP2 PUSH2 0x9F2 DUP5 PUSH1 0x1 PUSH1 0x20 SWAP7 ADD PUSH1 0x5 SSTORE PUSH2 0xC98 JUMP JUMPDEST DUP2 SWAP3 SWAP2 SLOAD SWAP1 PUSH1 0x3 SHL SWAP2 DUP9 DUP4 SHL SWAP3 SHL NOT AND OR SWAP1 SSTORE MLOAD SWAP1 DUP2 MSTORE LOG2 DUP1 RETURN JUMPDEST PUSH4 0x4E487B71 PUSH1 0xE0 SHL DUP8 MSTORE PUSH1 0x41 SWAP1 MSTORE PUSH1 0x24 DUP7 REVERT JUMPDEST PUSH1 0x41 DUP4 PUSH4 0x4E487B71 PUSH1 0xE0 SHL PUSH1 0x0 MSTORE MSTORE PUSH1 0x24 PUSH1 0x0 REVERT JUMPDEST PUSH1 0x64 SWAP1 PUSH1 0x20 DUP5 MLOAD SWAP2 PUSH3 0x461BCD PUSH1 0xE5 SHL DUP4 MSTORE DUP3 ADD MSTORE PUSH1 0x12 PUSH1 0x24 DUP3 ADD MSTORE PUSH18 0x141BDBDB08185B1C9958591E481859191959 PUSH1 0x72 SHL PUSH1 0x44 DUP3 ADD MSTORE REVERT JUMPDEST PUSH1 0x64 SWAP1 PUSH1 0x20 DUP5 MLOAD SWAP2 PUSH3 0x461BCD PUSH1 0xE5 SHL DUP4 MSTORE DUP3 ADD MSTORE PUSH1 0x14 PUSH1 0x24 DUP3 ADD MSTORE PUSH20 0x496E76616C696420706F6F6C2061646472657373 PUSH1 0x60 SHL PUSH1 0x44 DUP3 ADD MSTORE REVERT JUMPDEST POP SWAP1 CALLVALUE PUSH2 0x115 JUMPI PUSH1 0x20 CALLDATASIZE PUSH1 0x3 NOT ADD SLT PUSH2 0x115 JUMPI PUSH2 0xAC2 PUSH2 0xC67 JUMP JUMPDEST SWAP1 PUSH2 0xACB PUSH2 0xE0A JUMP JUMPDEST PUSH2 0xAD4 DUP3 PUSH2 0xD80 JUMP JUMPDEST PUSH1 0x1 DUP1 PUSH1 0xA0 SHL SUB DUP1 SWAP3 AND SWAP3 DUP4 DUP6 MSTORE PUSH1 0x3 PUSH1 0x20 MSTORE DUP2 DUP6 KECCAK256 SWAP3 DUP2 PUSH1 0x20 MSTORE DUP3 DUP7 KECCAK256 CALLER DUP8 MSTORE PUSH1 0x20 MSTORE DUP3 DUP7 KECCAK256 SWAP4 PUSH1 0x1 DUP6 SLOAD SWAP2 ADD DUP8 PUSH2 0xB32 PUSH1 0x2 PUSH8 0xDE0B6B3A7640000 PUSH2 0xB27 DUP6 SLOAD SWAP7 PUSH2 0x5A1 PUSH1 0x1 DUP14 ADD SWAP9 DUP10 SLOAD SWAP1 PUSH2 0xCE5 JUMP JUMPDEST DIV SWAP9 ADD SWAP8 DUP9 SLOAD PUSH2 0xD3B JUMP JUMPDEST SWAP7 SSTORE SLOAD SWAP1 SSTORE PUSH1 0x2 SLOAD AND SWAP1 DUP2 EXTCODESIZE ISZERO PUSH2 0xBE9 JUMPI DUP3 MLOAD PUSH4 0x40C10F19 PUSH1 0xE0 SHL DUP2 MSTORE CALLER DUP3 DUP3 ADD SWAP1 DUP2 MSTORE PUSH1 0x20 DUP2 ADD DUP7 SWAP1 MSTORE SWAP1 SWAP3 DUP8 SWAP2 DUP5 SWAP2 SWAP1 DUP3 SWAP1 DUP5 SWAP1 DUP3 SWAP1 PUSH1 0x40 ADD SUB SWAP3 GAS CALL DUP1 ISZERO PUSH2 0xBDF JUMPI PUSH2 0xBAF JUMPI JUMPDEST POP POP MLOAD SWAP1 DUP2 MSTORE PUSH32 0x540798DF468D7B23D11F156FDB954CB19AD414D150722A7B6D55BA369DEA792E PUSH1 0x20 CALLER SWAP3 LOG3 PUSH1 0x1 DUP1 SSTORE DUP1 RETURN JUMPDEST PUSH8 0xFFFFFFFFFFFFFFFF DUP3 SWAP7 SWAP4 SWAP7 GT PUSH2 0xBCC JUMPI POP DUP5 MSTORE SWAP3 CODESIZE DUP1 PUSH2 0xB7C JUMP JUMPDEST PUSH4 0x4E487B71 PUSH1 0xE0 SHL DUP4 MSTORE PUSH1 0x41 SWAP1 MSTORE PUSH1 0x24 DUP3 REVERT JUMPDEST DUP4 MLOAD RETURNDATASIZE DUP9 DUP3 RETURNDATACOPY RETURNDATASIZE SWAP1 REVERT JUMPDEST DUP6 DUP1 REVERT JUMPDEST POP CALLVALUE PUSH2 0x115 JUMPI DUP2 PUSH1 0x3 NOT CALLDATASIZE ADD SLT PUSH2 0x115 JUMPI PUSH1 0x60 SWAP3 DUP3 SWAP2 PUSH2 0xC0B PUSH2 0xC67 JUMP JUMPDEST PUSH2 0xC13 PUSH2 0xC82 JUMP JUMPDEST SWAP2 PUSH1 0x1 DUP1 PUSH1 0xA0 SHL SUB DUP1 SWAP3 AND DUP5 MSTORE PUSH1 0x20 MSTORE DUP4 DUP4 KECCAK256 SWAP2 AND DUP3 MSTORE PUSH1 0x20 MSTORE KECCAK256 DUP1 SLOAD SWAP2 PUSH1 0x2 PUSH1 0x1 DUP4 ADD SLOAD SWAP3 ADD SLOAD SWAP2 DUP2 MLOAD SWAP4 DUP5 MSTORE PUSH1 0x20 DUP5 ADD MSTORE DUP3 ADD MSTORE RETURN JUMPDEST DUP5 SWAP1 CALLVALUE PUSH2 0x142 JUMPI DUP2 PUSH1 0x3 NOT CALLDATASIZE ADD SLT PUSH2 0x142 JUMPI PUSH1 0x20 SWAP1 PUSH1 0x5 SLOAD DUP2 MSTORE RETURN JUMPDEST PUSH1 0x4 CALLDATALOAD SWAP1 PUSH1 0x1 PUSH1 0x1 PUSH1 0xA0 SHL SUB DUP3 AND DUP3 SUB PUSH2 0xC7D JUMPI JUMP JUMPDEST PUSH1 0x0 DUP1 REVERT JUMPDEST PUSH1 0x24 CALLDATALOAD SWAP1 PUSH1 0x1 PUSH1 0x1 PUSH1 0xA0 SHL SUB DUP3 AND DUP3 SUB PUSH2 0xC7D JUMPI JUMP JUMPDEST PUSH1 0x5 SLOAD DUP2 LT ISZERO PUSH2 0xCCF JUMPI PUSH1 0x5 PUSH1 0x0 MSTORE PUSH32 0x36B6384B5ECA791C62761152D0C79BB0604C104A5FB6F4EB0703F3154BB3DB0 ADD SWAP1 PUSH1 0x0 SWAP1 JUMP JUMPDEST PUSH4 0x4E487B71 PUSH1 0xE0 SHL PUSH1 0x0 MSTORE PUSH1 0x32 PUSH1 0x4 MSTORE PUSH1 0x24 PUSH1 0x0 REVERT JUMPDEST SWAP2 SWAP1 DUP3 SUB SWAP2 DUP3 GT PUSH2 0xCF2 JUMPI JUMP JUMPDEST PUSH4 0x4E487B71 PUSH1 0xE0 SHL PUSH1 0x0 MSTORE PUSH1 0x11 PUSH1 0x4 MSTORE PUSH1 0x24 PUSH1 0x0 REVERT JUMPDEST DUP2 DUP2 MUL SWAP3 SWAP2 DUP2 ISZERO SWAP2 DUP5 DIV EQ OR ISZERO PUSH2 0xCF2 JUMPI JUMP JUMPDEST DUP2 ISZERO PUSH2 0xD25 JUMPI DIV SWAP1 JUMP JUMPDEST PUSH4 0x4E487B71 PUSH1 0xE0 SHL PUSH1 0x0 MSTORE PUSH1 0x12 PUSH1 0x4 MSTORE PUSH1 0x24 PUSH1 0x0 REVERT JUMPDEST SWAP2 SWAP1 DUP3 ADD DUP1 SWAP3 GT PUSH2 0xCF2 JUMPI JUMP JUMPDEST SWAP1 PUSH1 0x1F DUP1 NOT SWAP2 ADD AND DUP2 ADD SWAP1 DUP2 LT PUSH8 0xFFFFFFFFFFFFFFFF DUP3 GT OR PUSH2 0xD6A JUMPI PUSH1 0x40 MSTORE JUMP JUMPDEST PUSH4 0x4E487B71 PUSH1 0xE0 SHL PUSH1 0x0 MSTORE PUSH1 0x41 PUSH1 0x4 MSTORE PUSH1 0x24 PUSH1 0x0 REVERT JUMPDEST PUSH1 0x1 DUP1 PUSH1 0xA0 SHL SUB AND PUSH1 0x0 MSTORE PUSH1 0x3 PUSH1 0x20 MSTORE PUSH1 0x40 PUSH1 0x0 KECCAK256 PUSH1 0x2 DUP2 ADD SWAP1 DUP2 SLOAD TIMESTAMP GT ISZERO PUSH2 0xE06 JUMPI PUSH1 0x3 DUP2 ADD SLOAD DUP1 ISZERO PUSH2 0xDFF JUMPI PUSH2 0xDC4 PUSH2 0xDBC DUP5 SLOAD TIMESTAMP PUSH2 0xCE5 JUMP JUMPDEST DUP4 SLOAD SWAP1 PUSH2 0xD08 JUMP JUMPDEST SWAP1 PUSH8 0xDE0B6B3A7640000 SWAP2 DUP3 DUP2 MUL SWAP3 DUP2 DUP5 DIV EQ SWAP1 ISZERO OR ISZERO PUSH2 0xCF2 JUMPI PUSH2 0xDEE PUSH1 0x1 SWAP2 PUSH2 0xDF8 SWAP4 PUSH2 0xD1B JUMP JUMPDEST SWAP3 ADD SWAP2 DUP3 SLOAD PUSH2 0xD3B JUMP JUMPDEST SWAP1 SSTORE TIMESTAMP SWAP1 SSTORE JUMP JUMPDEST POP POP TIMESTAMP SWAP1 SSTORE JUMP JUMPDEST POP POP JUMP JUMPDEST PUSH1 0x2 PUSH1 0x1 SLOAD EQ PUSH2 0xE1B JUMPI PUSH1 0x2 PUSH1 0x1 SSTORE JUMP JUMPDEST PUSH1 0x40 MLOAD PUSH3 0x461BCD PUSH1 0xE5 SHL DUP2 MSTORE PUSH1 0x20 PUSH1 0x4 DUP3 ADD MSTORE PUSH1 0x1F PUSH1 0x24 DUP3 ADD MSTORE PUSH32 0x5265656E7472616E637947756172643A207265656E7472616E742063616C6C00 PUSH1 0x44 DUP3 ADD MSTORE PUSH1 0x64 SWAP1 REVERT JUMPDEST PUSH1 0x0 SLOAD PUSH1 0x1 PUSH1 0x1 PUSH1 0xA0 SHL SUB AND CALLER SUB PUSH2 0xE74 JUMPI JUMP JUMPDEST PUSH1 0x64 PUSH1 0x40 MLOAD PUSH3 0x461BCD PUSH1 0xE5 SHL DUP2 MSTORE PUSH1 0x20 PUSH1 0x4 DUP3 ADD MSTORE PUSH1 0x20 PUSH1 0x24 DUP3 ADD MSTORE PUSH32 0x4F776E61626C653A2063616C6C6572206973206E6F7420746865206F776E6572 PUSH1 0x44 DUP3 ADD MSTORE REVERT JUMPDEST PUSH1 0x0 DUP1 SLOAD PUSH1 0x1 PUSH1 0x1 PUSH1 0xA0 SHL SUB SWAP3 DUP4 AND PUSH1 0x1 PUSH1 0x1 PUSH1 0xA0 SHL SUB NOT DUP3 AND DUP2 OR DUP4 SSTORE SWAP3 AND SWAP1 PUSH32 0x8BE0079C531659141344CD1FD0A4F28419497F9722A3DAAFE3B4186F6B6457E0 SWAP1 DUP1 LOG3 JUMP JUMPDEST PUSH1 0x1 DUP1 PUSH1 0xA0 SHL SUB AND SWAP1 PUSH1 0x40 MLOAD PUSH1 0x40 DUP2 ADD PUSH8 0xFFFFFFFFFFFFFFFF SWAP1 DUP3 DUP2 LT DUP3 DUP3 GT OR PUSH2 0xD6A JUMPI PUSH1 0x40 MSTORE PUSH1 0x20 SWAP4 DUP5 DUP4 MSTORE PUSH32 0x5361666545524332303A206C6F772D6C6576656C2063616C6C206661696C6564 DUP6 DUP5 ADD MSTORE PUSH1 0x0 DUP1 DUP6 DUP8 DUP3 SWAP8 MLOAD SWAP2 ADD DUP3 DUP6 GAS CALL SWAP1 RETURNDATASIZE ISZERO PUSH2 0x1044 JUMPI RETURNDATASIZE SWAP3 DUP4 GT PUSH2 0x1030 JUMPI SWAP1 PUSH2 0xF9A SWAP4 SWAP3 SWAP2 PUSH1 0x40 MLOAD SWAP3 PUSH2 0xF8D DUP9 PUSH1 0x1F NOT PUSH1 0x1F DUP5 ADD AND ADD DUP6 PUSH2 0xD48 JUMP JUMPDEST DUP4 MSTORE RETURNDATASIZE DUP7 DUP9 DUP6 ADD RETURNDATACOPY PUSH2 0x104F JUMP JUMPDEST DUP1 MLOAD SWAP2 DUP3 ISZERO SWAP2 DUP5 DUP4 ISZERO PUSH2 0x100C JUMPI JUMPDEST POP POP POP SWAP1 POP ISZERO PUSH2 0xFB5 JUMPI POP JUMP JUMPDEST PUSH1 0x84 SWAP1 PUSH1 0x40 MLOAD SWAP1 PUSH3 0x461BCD PUSH1 0xE5 SHL DUP3 MSTORE PUSH1 0x4 DUP3 ADD MSTORE PUSH1 0x2A PUSH1 0x24 DUP3 ADD MSTORE PUSH32 0x5361666545524332303A204552433230206F7065726174696F6E20646964206E PUSH1 0x44 DUP3 ADD MSTORE PUSH10 0x1BDD081CDD58D8D95959 PUSH1 0xB2 SHL PUSH1 0x64 DUP3 ADD MSTORE REVERT JUMPDEST SWAP2 SWAP4 DUP2 DUP1 SWAP5 POP ADD SUB SLT PUSH2 0x142 JUMPI DUP3 ADD MLOAD SWAP1 DUP2 ISZERO ISZERO DUP3 SUB PUSH2 0x112 JUMPI POP DUP1 CODESIZE DUP1 DUP5 PUSH2 0xFA8 JUMP JUMPDEST PUSH4 0x4E487B71 PUSH1 0xE0 SHL DUP6 MSTORE PUSH1 0x41 PUSH1 0x4 MSTORE PUSH1 0x24 DUP6 REVERT JUMPDEST SWAP1 PUSH2 0xF9A SWAP4 SWAP3 POP PUSH1 0x60 SWAP2 JUMPDEST SWAP2 SWAP3 SWAP1 ISZERO PUSH2 0x10B1 JUMPI POP DUP2 MLOAD ISZERO PUSH2 0x1063 JUMPI POP SWAP1 JUMP JUMPDEST EXTCODESIZE ISZERO PUSH2 0x106C JUMPI SWAP1 JUMP JUMPDEST PUSH1 0x40 MLOAD PUSH3 0x461BCD PUSH1 0xE5 SHL DUP2 MSTORE PUSH1 0x20 PUSH1 0x4 DUP3 ADD MSTORE PUSH1 0x1D PUSH1 0x24 DUP3 ADD MSTORE PUSH32 0x416464726573733A2063616C6C20746F206E6F6E2D636F6E7472616374000000 PUSH1 0x44 DUP3 ADD MSTORE PUSH1 0x64 SWAP1 REVERT JUMPDEST DUP3 MLOAD SWAP1 SWAP2 POP ISZERO PUSH2 0x10C4 JUMPI POP DUP1 MLOAD SWAP1 PUSH1 0x20 ADD REVERT JUMPDEST PUSH1 0x40 MLOAD SWAP1 PUSH3 0x461BCD PUSH1 0xE5 SHL DUP3 MSTORE DUP2 PUSH1 0x20 DUP1 PUSH1 0x4 DUP4 ADD MSTORE DUP3 MLOAD SWAP1 DUP2 PUSH1 0x24 DUP5 ADD MSTORE PUSH1 0x0 SWAP4 JUMPDEST DUP3 DUP6 LT PUSH2 0x110A JUMPI POP POP PUSH1 0x44 SWAP3 POP PUSH1 0x0 DUP4 DUP3 DUP5 ADD ADD MSTORE PUSH1 0x1F DUP1 NOT SWAP2 ADD AND DUP2 ADD SUB ADD SWAP1 REVERT JUMPDEST DUP5 DUP2 ADD DUP3 ADD MLOAD DUP7 DUP7 ADD PUSH1 0x44 ADD MSTORE SWAP4 DUP2 ADD SWAP4 DUP6 SWAP4 POP PUSH2 0x10E7 JUMP INVALID LOG2 PUSH5 0x6970667358 0x22 SLT KECCAK256 XOR PUSH13 0xBC8E8C82FA87E0E3081E25C8C1 0x1E PUSH9 0xA7CE993A0027E9192D 0xFC 0x5C 0xB7 SWAP12 0xE5 0xCD PUSH5 0x736F6C6343 STOP ADDMOD AND STOP CALLER "},"methodIdentifiers":{"activePools(uint256)":"f87793ad","addPool(address,uint256)":"32a9caba","claim(address)":"1e83409a","initialize(address)":"c4d66de8","owner()":"8da5cb5b","pendingRewards(address,address)":"80ac8228","poolLength()":"081e3eda","renounceOwnership()":"715018a6","rewardPools(address)":"372d9448","rewardToken()":"f7c618c1","setRewardRate(address,uint256)":"812a71d5","stake(address,uint256)":"adc9772e","transferOwnership(address)":"f2fde38b","updatePool(address)":"7b46c54f","userInfo(address,address)":"0f208beb","withdraw(address,uint256)":"f3fef3a3"}}}}}