{"contracts/defi/InterestRateModel.sol":{"InterestRateModel":{"abi":[{"inputs":[{"internalType":"uint256","name":"utilizationRate","type":"uint256"}],"name":"getBorrowRate","outputs":[{"internalType":"uint256","name":"","type":"uint256"}],"stateMutability":"view","type":"function"},{"inputs":[{"internalType":"uint256","name":"utilizationRate","type":"uint256"},{"internalType":"uint256","name":"reserveFactorBps","type":"uint256"}],"name":"getSupplyRate","outputs":[{"internalType":"uint256","name":"","type":"uint256"}],"stateMutability":"view","type":"function"}],"evm":{"bytecode":{"linkReferences":{},"object":"6080806040523461001657610247908161001c8239f35b600080fdfe608060408181526004918236101561001657600080fd5b600090813560e01c9081632a11a8a0146100625750639fa83b5a1461003a57600080fd5b3461005f57602036600319011261005f57506100586020923561017c565b9051908152f35b80fd5b90503461014f578260031936011261014f57634fd41dad60e11b8152833581850181905290602081602481305afa9081156101455783916100e5575b506100a891610153565b6127109160243583039283116100d2576020846305f5e1006100ca8686610153565b049051908152f35b634e487b7160e01b815260118552602490fd5b905060203d60201161013e575b601f8101601f1916820167ffffffffffffffff81118382101761012b57602091839187528101031261012757516100a861009e565b8280fd5b634e487b7160e01b855260418752602485fd5b503d6100f2565b84513d85823e3d90fd5b5080fd5b8181029291811591840414171561016657565b634e487b7160e01b600052601160045260246000fd5b670b1a2bc2ec50000081116101c45767016345785d8a00009081810291818304149015171561016657670de0b6b3a764000066470de4df820000910481018091116101665790565b670b1a2bc2ec4fffff198101908111610166576706f05b59d3b200009081810291818304149015171561016657670de0b6b3a764000067016345785d8a000091048101809111610166579056fea264697066735822122092fda8f0414b3f6d0ba5c9801079e619224a64cbefc9d79bf22ffd1889acea2b64736f6c63430008160033","opcodes":"PUSH1 0x80 DUP1 PUSH1 0x40 MSTORE CALLVALUE PUSH2 0x16 JUMPI PUSH2 0x247 SWAP1 DUP2 PUSH2 0x1C DUP3 CODECOPY RETURN JUMPDEST PUSH1 0x0 DUP1 REVERT INVALID PUSH1 0x80 PUSH1 0x40 DUP2 DUP2 MSTORE PUSH1 0x4 SWAP2 DUP3 CALLDATASIZE LT ISZERO PUSH2 0x16 JUMPI PUSH1 0x0 DUP1 REVERT JUMPDEST PUSH1 0x0 SWAP1 DUP2 CALLDATALOAD PUSH1 0xE0 SHR SWAP1 DUP2 PUSH4 0x2A11A8A0 EQ PUSH2 0x62 JUMPI POP PUSH4 0x9FA83B5A EQ PUSH2 0x3A JUMPI PUSH1 0x0 DUP1 REVERT JUMPDEST CALLVALUE PUSH2 0x5F JUMPI PUSH1 0x20 CALLDATASIZE PUSH1 0x3 NOT ADD SLT PUSH2 0x5F JUMPI POP PUSH2 0x58 PUSH1 0x20 SWAP3 CALLDATALOAD PUSH2 0x17C JUMP JUMPDEST SWAP1 MLOAD SWAP1 DUP2 MSTORE RETURN JUMPDEST DUP1 REVERT JUMPDEST SWAP1 POP CALLVALUE PUSH2 0x14F JUMPI DUP3 PUSH1 0x3 NOT CALLDATASIZE ADD SLT PUSH2 0x14F JUMPI PUSH4 0x4FD41DAD PUSH1 0xE1 SHL DUP2 MSTORE DUP4 CALLDATALOAD DUP2 DUP6 ADD DUP2 SWAP1 MSTORE SWAP1 PUSH1 0x20 DUP2 PUSH1 0x24 DUP2 ADDRESS GAS STATICCALL SWAP1 DUP2 ISZERO PUSH2 0x145 JUMPI DUP4 SWAP2 PUSH2 0xE5 JUMPI JUMPDEST POP PUSH2 0xA8 SWAP2 PUSH2 0x153 JUMP JUMPDEST PUSH2 0x2710 SWAP2 PUSH1 0x24 CALLDATALOAD DUP4 SUB SWAP3 DUP4 GT PUSH2 0xD2 JUMPI PUSH1 0x20 DUP5 PUSH4 0x5F5E100 PUSH2 0xCA DUP7 DUP7 PUSH2 0x153 JUMP JUMPDEST DIV SWAP1 MLOAD SWAP1 DUP2 MSTORE RETURN JUMPDEST PUSH4 0x4E487B71 PUSH1 0xE0 SHL DUP2 MSTORE PUSH1 0x11 DUP6 MSTORE PUSH1 0x24 SWAP1 REVERT JUMPDEST SWAP1 POP PUSH1 0x20 RETURNDATASIZE PUSH1 0x20 GT PUSH2 0x13E JUMPI JUMPDEST PUSH1 0x1F DUP2 ADD PUSH1 0x1F NOT AND DUP3 ADD PUSH8 0xFFFFFFFFFFFFFFFF DUP2 GT DUP4 DUP3 LT OR PUSH2 0x12B JUMPI PUSH1 0x20 SWAP2 DUP4 SWAP2 DUP8 MSTORE DUP2 ADD SUB SLT PUSH2 0x127 JUMPI MLOAD PUSH2 0xA8 PUSH2 0x9E JUMP JUMPDEST DUP3 DUP1 REVERT JUMPDEST PUSH4 0x4E487B71 PUSH1 0xE0 SHL DUP6 MSTORE PUSH1 0x41 DUP8 MSTORE PUSH1 0x24 DUP6 REVERT JUMPDEST POP RETURNDATASIZE PUSH2 0xF2 JUMP JUMPDEST DUP5 MLOAD RETURNDATASIZE DUP6 DUP3 RETURNDATACOPY RETURNDATASIZE SWAP1 REVERT JUMPDEST POP DUP1 REVERT JUMPDEST DUP2 DUP2 MUL SWAP3 SWAP2 DUP2 ISZERO SWAP2 DUP5 DIV EQ OR ISZERO PUSH2 0x166 JUMPI JUMP JUMPDEST PUSH4 0x4E487B71 PUSH1 0xE0 SHL PUSH1 0x0 MSTORE PUSH1 0x11 PUSH1 0x4 MSTORE PUSH1 0x24 PUSH1 0x0 REVERT JUMPDEST PUSH8 0xB1A2BC2EC500000 DUP2 GT PUSH2 0x1C4 JUMPI PUSH8 0x16345785D8A0000 SWAP1 DUP2 DUP2 MUL SWAP2 DUP2 DUP4 DIV EQ SWAP1 ISZERO OR ISZERO PUSH2 0x166 JUMPI PUSH8 0xDE0B6B3A7640000 PUSH7 0x470DE4DF820000 SWAP2 DIV DUP2 ADD DUP1 SWAP2 GT PUSH2 0x166 JUMPI SWAP1 JUMP JUMPDEST PUSH8 0xB1A2BC2EC4FFFFF NOT DUP2 ADD SWAP1 DUP2 GT PUSH2 0x166 JUMPI PUSH8 0x6F05B59D3B20000 SWAP1 DUP2 DUP2 MUL SWAP2 DUP2 DUP4 DIV EQ SWAP1 ISZERO OR ISZERO PUSH2 0x166 JUMPI PUSH8 0xDE0B6B3A7640000 PUSH8 0x16345785D8A0000 SWAP2 DIV DUP2 ADD DUP1 SWAP2 GT PUSH2 0x166 JUMPI SWAP1 JUMP INVALID LOG2 PUSH5 0x6970667358 0x22 SLT KECCAK256 SWAP3 REVERT 0xA8 CREATE COINBASE 0x4B EXTCODEHASH PUSH14 0xBA5C9801079E619224A64CBEFC9 0xD7 SWAP12 CALLCODE 0x2F REVERT XOR DUP10 0xAC 0xEA 0x2B PUSH5 0x736F6C6343 STOP ADDMOD AND STOP CALLER "},"methodIdentifiers":{"getBorrowRate(uint256)":"9fa83b5a","getSupplyRate(uint256,uint256)":"2a11a8a0"}}}}}