{"contracts/defi/PriceOracle.sol":{"PriceOracle":{"abi":[{"inputs":[{"internalType":"address","name":"asset","type":"address"}],"name":"getAssetPrice","outputs":[{"internalType":"uint256","name":"","type":"uint256"}],"stateMutability":"view","type":"function"},{"inputs":[{"internalType":"address","name":"asset","type":"address"},{"internalType":"uint256","name":"price","type":"uint256"}],"name":"setAssetPrice","outputs":[],"stateMutability":"nonpayable","type":"function"}],"evm":{"bytecode":{"linkReferences":{},"object":"608080604052346100155760e6908161001b8239f35b600080fdfe60806040526004361015601157600080fd5b6000803560e01c806351323f721460665763b3596f0714603057600080fd5b3460635760203660031901126063576020906040906001600160a01b0360536096565b1681528083522054604051908152f35b80fd5b503460635760403660031901126063576001600160a01b0360846096565b16815280602052602435604082205580f35b600435906001600160a01b038216820360ab57565b600080fdfea26469706673582212204075777ff86d5c090472466c72d318f7f274a5618d08bf8490a93712ac3827ab64736f6c63430008160033","opcodes":"PUSH1 0x80 DUP1 PUSH1 0x40 MSTORE CALLVALUE PUSH2 0x15 JUMPI PUSH1 0xE6 SWAP1 DUP2 PUSH2 0x1B DUP3 CODECOPY RETURN JUMPDEST PUSH1 0x0 DUP1 REVERT INVALID PUSH1 0x80 PUSH1 0x40 MSTORE PUSH1 0x4 CALLDATASIZE LT ISZERO PUSH1 0x11 JUMPI PUSH1 0x0 DUP1 REVERT JUMPDEST PUSH1 0x0 DUP1 CALLDATALOAD PUSH1 0xE0 SHR DUP1 PUSH4 0x51323F72 EQ PUSH1 0x66 JUMPI PUSH4 0xB3596F07 EQ PUSH1 0x30 JUMPI PUSH1 0x0 DUP1 REVERT JUMPDEST CALLVALUE PUSH1 0x63 JUMPI PUSH1 0x20 CALLDATASIZE PUSH1 0x3 NOT ADD SLT PUSH1 0x63 JUMPI PUSH1 0x20 SWAP1 PUSH1 0x40 SWAP1 PUSH1 0x1 PUSH1 0x1 PUSH1 0xA0 SHL SUB PUSH1 0x53 PUSH1 0x96 JUMP JUMPDEST AND DUP2 MSTORE DUP1 DUP4 MSTORE KECCAK256 SLOAD PUSH1 0x40 MLOAD SWAP1 DUP2 MSTORE RETURN JUMPDEST DUP1 REVERT JUMPDEST POP CALLVALUE PUSH1 0x63 JUMPI PUSH1 0x40 CALLDATASIZE PUSH1 0x3 NOT ADD SLT PUSH1 0x63 JUMPI PUSH1 0x1 PUSH1 0x1 PUSH1 0xA0 SHL SUB PUSH1 0x84 PUSH1 0x96 JUMP JUMPDEST AND DUP2 MSTORE DUP1 PUSH1 0x20 MSTORE PUSH1 0x24 CALLDATALOAD PUSH1 0x40 DUP3 KECCAK256 SSTORE DUP1 RETURN JUMPDEST PUSH1 0x4 CALLDATALOAD SWAP1 PUSH1 0x1 PUSH1 0x1 PUSH1 0xA0 SHL SUB DUP3 AND DUP3 SUB PUSH1 0xAB JUMPI JUMP JUMPDEST PUSH1 0x0 DUP1 REVERT INVALID LOG2 PUSH5 0x6970667358 0x22 SLT KECCAK256 BLOCKHASH PUSH22 0x777FF86D5C090472466C72D318F7F274A5618D08BF84 SWAP1 0xA9 CALLDATACOPY SLT 0xAC CODESIZE 0x27 0xAB PUSH5 0x736F6C6343 STOP ADDMOD AND STOP CALLER "},"methodIdentifiers":{"getAssetPrice(address)":"b3596f07","setAssetPrice(address,uint256)":"51323f72"}}}}}