{"contracts/FeeMonitor.sol":{"FeeMonitor":{"abi":[{"anonymous":false,"inputs":[{"indexed":true,"internalType":"address","name":"deployer","type":"address"},{"indexed":false,"internalType":"uint256","name":"amount","type":"uint256"},{"indexed":false,"internalType":"uint256","name":"timestamp","type":"uint256"}],"name":"FeeCollected","type":"event"},{"inputs":[{"internalType":"address","name":"","type":"address"}],"name":"deployerFees","outputs":[{"internalType":"uint256","name":"","type":"uint256"}],"stateMutability":"view","type":"function"},{"inputs":[],"name":"getAnalytics","outputs":[{"internalType":"uint256","name":"_totalFees","type":"uint256"},{"internalType":"uint256","name":"_totalDeployments","type":"uint256"},{"components":[{"internalType":"uint256","name":"timestamp","type":"uint256"},{"internalType":"uint256","name":"amount","type":"uint256"},{"internalType":"address","name":"deployer","type":"address"}],"internalType":"struct FeeMonitor.FeeTransaction[]","name":"_recentTransactions","type":"tuple[]"}],"stateMutability":"view","type":"function"},{"inputs":[{"internalType":"address","name":"deployer","type":"address"},{"internalType":"uint256","name":"amount","type":"uint256"}],"name":"recordFee","outputs":[],"stateMutability":"nonpayable","type":"function"},{"inputs":[],"name":"totalDeployments","outputs":[{"internalType":"uint256","name":"","type":"uint256"}],"stateMutability":"view","type":"function"},{"inputs":[],"name":"totalFees","outputs":[{"internalType":"uint256","name":"","type":"uint256"}],"stateMutability":"view","type":"function"},{"inputs":[{"internalType":"uint256","name":"","type":"uint256"}],"name":"transactions","outputs":[{"internalType":"uint256","name":"timestamp","type":"uint256"},{"internalType":"uint256","name":"amount","type":"uint256"},{"internalType":"address","name":"deployer","type":"address"}],"stateMutability":"view","type":"function"}],"evm":{"bytecode":{"linkReferences":{},"object":"608060405234801561001057600080fd5b506105ae806100206000396000f3fe608060405234801561001057600080fd5b50600436106100625760003560e01c80630a6e0fd4146100675780630ccb2ec81461007c57806313114a9d1461009c57806366b9d100146100b35780639ace38c2146100d3578063fb35b4e41461010a575b600080fd5b61007a61007536600461041a565b610113565b005b61008461026d565b60405161009393929190610444565b60405180910390f35b6100a560025481565b604051908152602001610093565b6100a56100c13660046104b6565b60016020526000908152604090205481565b6100e66100e13660046104d8565b6103c2565b6040805193845260208401929092526001600160a01b031690820152606001610093565b6100a560035481565b6040805160608101825242815260208082018481526001600160a01b03868116848601818152600080546001808201835582805297517f290decd9548b62a8d60345a988386fc84ba6bc95484008f6362f93160ef3e56360039092029182015594517f290decd9548b62a8d60345a988386fc84ba6bc95484008f6362f93160ef3e56486015590517f290decd9548b62a8d60345a988386fc84ba6bc95484008f6362f93160ef3e56590940180546001600160a01b0319169490931693909317909155815291905290812080548392906101ee908490610507565b9250508190555080600260008282546102079190610507565b925050819055506001600360008282546102219190610507565b9091555050604080518281524260208201526001600160a01b038416917f108516ddcf5ba43cea6bb2cd5ff6d59ac196c1c86ccb9178332b9dd72d1ca561910160405180910390a25050565b60008054819060609082600a82116102855781610288565b600a5b905060008167ffffffffffffffff8111156102a5576102a5610520565b60405190808252806020026020018201604052801561030357816020015b6102f06040518060600160405280600081526020016000815260200160006001600160a01b031681525090565b8152602001906001900390816102c35790505b50905060005b828110156103ad5760008161031e8587610536565b6103289190610507565b8154811061033857610338610549565b6000918252602091829020604080516060810182526003909302909101805483526001810154938301939093526002909201546001600160a01b031691810191909152825183908390811061038f5761038f610549565b602002602001018190525080806103a59061055f565b915050610309565b50600254600354909790965090945092505050565b600081815481106103d257600080fd5b60009182526020909120600390910201805460018201546002909201549092506001600160a01b031683565b80356001600160a01b038116811461041557600080fd5b919050565b6000806040838503121561042d57600080fd5b610436836103fe565b946020939093013593505050565b600060608083018684526020868186015260408381870152828751808552608088019150838901945060005b818110156104a65785518051845285810151868501528401516001600160a01b0316848401529484019491860191600101610470565b50909a9950505050505050505050565b6000602082840312156104c857600080fd5b6104d1826103fe565b9392505050565b6000602082840312156104ea57600080fd5b5035919050565b634e487b7160e01b600052601160045260246000fd5b8082018082111561051a5761051a6104f1565b92915050565b634e487b7160e01b600052604160045260246000fd5b8181038181111561051a5761051a6104f1565b634e487b7160e01b600052603260045260246000fd5b600060018201610571576105716104f1565b506001019056fea264697066735822122030c2ace5d62e3145d8ab5e2d2e026d1677fbe0bc31a29ed0e43223b89b99a4bd64736f6c63430008140033","opcodes":"PUSH1 0x80 PUSH1 0x40 MSTORE CALLVALUE DUP1 ISZERO PUSH2 0x10 JUMPI PUSH1 0x0 DUP1 REVERT JUMPDEST POP PUSH2 0x5AE DUP1 PUSH2 0x20 PUSH1 0x0 CODECOPY PUSH1 0x0 RETURN INVALID PUSH1 0x80 PUSH1 0x40 MSTORE CALLVALUE DUP1 ISZERO PUSH2 0x10 JUMPI PUSH1 0x0 DUP1 REVERT JUMPDEST POP PUSH1 0x4 CALLDATASIZE LT PUSH2 0x62 JUMPI PUSH1 0x0 CALLDATALOAD PUSH1 0xE0 SHR DUP1 PUSH4 0xA6E0FD4 EQ PUSH2 0x67 JUMPI DUP1 PUSH4 0xCCB2EC8 EQ PUSH2 0x7C JUMPI DUP1 PUSH4 0x13114A9D EQ PUSH2 0x9C JUMPI DUP1 PUSH4 0x66B9D100 EQ PUSH2 0xB3 JUMPI DUP1 PUSH4 0x9ACE38C2 EQ PUSH2 0xD3 JUMPI DUP1 PUSH4 0xFB35B4E4 EQ PUSH2 0x10A JUMPI JUMPDEST PUSH1 0x0 DUP1 REVERT JUMPDEST PUSH2 0x7A PUSH2 0x75 CALLDATASIZE PUSH1 0x4 PUSH2 0x41A JUMP JUMPDEST PUSH2 0x113 JUMP JUMPDEST STOP JUMPDEST PUSH2 0x84 PUSH2 0x26D JUMP JUMPDEST PUSH1 0x40 MLOAD PUSH2 0x93 SWAP4 SWAP3 SWAP2 SWAP1 PUSH2 0x444 JUMP JUMPDEST PUSH1 0x40 MLOAD DUP1 SWAP2 SUB SWAP1 RETURN JUMPDEST PUSH2 0xA5 PUSH1 0x2 SLOAD DUP2 JUMP JUMPDEST PUSH1 0x40 MLOAD SWAP1 DUP2 MSTORE PUSH1 0x20 ADD PUSH2 0x93 JUMP JUMPDEST PUSH2 0xA5 PUSH2 0xC1 CALLDATASIZE PUSH1 0x4 PUSH2 0x4B6 JUMP JUMPDEST PUSH1 0x1 PUSH1 0x20 MSTORE PUSH1 0x0 SWAP1 DUP2 MSTORE PUSH1 0x40 SWAP1 KECCAK256 SLOAD DUP2 JUMP JUMPDEST PUSH2 0xE6 PUSH2 0xE1 CALLDATASIZE PUSH1 0x4 PUSH2 0x4D8 JUMP JUMPDEST PUSH2 0x3C2 JUMP JUMPDEST PUSH1 0x40 DUP1 MLOAD SWAP4 DUP5 MSTORE PUSH1 0x20 DUP5 ADD SWAP3 SWAP1 SWAP3 MSTORE PUSH1 0x1 PUSH1 0x1 PUSH1 0xA0 SHL SUB AND SWAP1 DUP3 ADD MSTORE PUSH1 0x60 ADD PUSH2 0x93 JUMP JUMPDEST PUSH2 0xA5 PUSH1 0x3 SLOAD DUP2 JUMP JUMPDEST PUSH1 0x40 DUP1 MLOAD PUSH1 0x60 DUP2 ADD DUP3 MSTORE TIMESTAMP DUP2 MSTORE PUSH1 0x20 DUP1 DUP3 ADD DUP5 DUP2 MSTORE PUSH1 0x1 PUSH1 0x1 PUSH1 0xA0 SHL SUB DUP7 DUP2 AND DUP5 DUP7 ADD DUP2 DUP2 MSTORE PUSH1 0x0 DUP1 SLOAD PUSH1 0x1 DUP1 DUP3 ADD DUP4 SSTORE DUP3 DUP1 MSTORE SWAP8 MLOAD PUSH32 0x290DECD9548B62A8D60345A988386FC84BA6BC95484008F6362F93160EF3E563 PUSH1 0x3 SWAP1 SWAP3 MUL SWAP2 DUP3 ADD SSTORE SWAP5 MLOAD PUSH32 0x290DECD9548B62A8D60345A988386FC84BA6BC95484008F6362F93160EF3E564 DUP7 ADD SSTORE SWAP1 MLOAD PUSH32 0x290DECD9548B62A8D60345A988386FC84BA6BC95484008F6362F93160EF3E565 SWAP1 SWAP5 ADD DUP1 SLOAD PUSH1 0x1 PUSH1 0x1 PUSH1 0xA0 SHL SUB NOT AND SWAP5 SWAP1 SWAP4 AND SWAP4 SWAP1 SWAP4 OR SWAP1 SWAP2 SSTORE DUP2 MSTORE SWAP2 SWAP1 MSTORE SWAP1 DUP2 KECCAK256 DUP1 SLOAD DUP4 SWAP3 SWAP1 PUSH2 0x1EE SWAP1 DUP5 SWAP1 PUSH2 0x507 JUMP JUMPDEST SWAP3 POP POP DUP2 SWAP1 SSTORE POP DUP1 PUSH1 0x2 PUSH1 0x0 DUP3 DUP3 SLOAD PUSH2 0x207 SWAP2 SWAP1 PUSH2 0x507 JUMP JUMPDEST SWAP3 POP POP DUP2 SWAP1 SSTORE POP PUSH1 0x1 PUSH1 0x3 PUSH1 0x0 DUP3 DUP3 SLOAD PUSH2 0x221 SWAP2 SWAP1 PUSH2 0x507 JUMP JUMPDEST SWAP1 SWAP2 SSTORE POP POP PUSH1 0x40 DUP1 MLOAD DUP3 DUP2 MSTORE TIMESTAMP PUSH1 0x20 DUP3 ADD MSTORE PUSH1 0x1 PUSH1 0x1 PUSH1 0xA0 SHL SUB DUP5 AND SWAP2 PUSH32 0x108516DDCF5BA43CEA6BB2CD5FF6D59AC196C1C86CCB9178332B9DD72D1CA561 SWAP2 ADD PUSH1 0x40 MLOAD DUP1 SWAP2 SUB SWAP1 LOG2 POP POP JUMP JUMPDEST PUSH1 0x0 DUP1 SLOAD DUP2 SWAP1 PUSH1 0x60 SWAP1 DUP3 PUSH1 0xA DUP3 GT PUSH2 0x285 JUMPI DUP2 PUSH2 0x288 JUMP JUMPDEST PUSH1 0xA JUMPDEST SWAP1 POP PUSH1 0x0 DUP2 PUSH8 0xFFFFFFFFFFFFFFFF DUP2 GT ISZERO PUSH2 0x2A5 JUMPI PUSH2 0x2A5 PUSH2 0x520 JUMP JUMPDEST PUSH1 0x40 MLOAD SWAP1 DUP1 DUP3 MSTORE DUP1 PUSH1 0x20 MUL PUSH1 0x20 ADD DUP3 ADD PUSH1 0x40 MSTORE DUP1 ISZERO PUSH2 0x303 JUMPI DUP2 PUSH1 0x20 ADD JUMPDEST PUSH2 0x2F0 PUSH1 0x40 MLOAD DUP1 PUSH1 0x60 ADD PUSH1 0x40 MSTORE DUP1 PUSH1 0x0 DUP2 MSTORE PUSH1 0x20 ADD PUSH1 0x0 DUP2 MSTORE PUSH1 0x20 ADD PUSH1 0x0 PUSH1 0x1 PUSH1 0x1 PUSH1 0xA0 SHL SUB AND DUP2 MSTORE POP SWAP1 JUMP JUMPDEST DUP2 MSTORE PUSH1 0x20 ADD SWAP1 PUSH1 0x1 SWAP1 SUB SWAP1 DUP2 PUSH2 0x2C3 JUMPI SWAP1 POP JUMPDEST POP SWAP1 POP PUSH1 0x0 JUMPDEST DUP3 DUP2 LT ISZERO PUSH2 0x3AD JUMPI PUSH1 0x0 DUP2 PUSH2 0x31E DUP6 DUP8 PUSH2 0x536 JUMP JUMPDEST PUSH2 0x328 SWAP2 SWAP1 PUSH2 0x507 JUMP JUMPDEST DUP2 SLOAD DUP2 LT PUSH2 0x338 JUMPI PUSH2 0x338 PUSH2 0x549 JUMP JUMPDEST PUSH1 0x0 SWAP2 DUP3 MSTORE PUSH1 0x20 SWAP2 DUP3 SWAP1 KECCAK256 PUSH1 0x40 DUP1 MLOAD PUSH1 0x60 DUP2 ADD DUP3 MSTORE PUSH1 0x3 SWAP1 SWAP4 MUL SWAP1 SWAP2 ADD DUP1 SLOAD DUP4 MSTORE PUSH1 0x1 DUP2 ADD SLOAD SWAP4 DUP4 ADD SWAP4 SWAP1 SWAP4 MSTORE PUSH1 0x2 SWAP1 SWAP3 ADD SLOAD PUSH1 0x1 PUSH1 0x1 PUSH1 0xA0 SHL SUB AND SWAP2 DUP2 ADD SWAP2 SWAP1 SWAP2 MSTORE DUP3 MLOAD DUP4 SWAP1 DUP4 SWAP1 DUP2 LT PUSH2 0x38F JUMPI PUSH2 0x38F PUSH2 0x549 JUMP JUMPDEST PUSH1 0x20 MUL PUSH1 0x20 ADD ADD DUP2 SWAP1 MSTORE POP DUP1 DUP1 PUSH2 0x3A5 SWAP1 PUSH2 0x55F JUMP JUMPDEST SWAP2 POP POP PUSH2 0x309 JUMP JUMPDEST POP PUSH1 0x2 SLOAD PUSH1 0x3 SLOAD SWAP1 SWAP8 SWAP1 SWAP7 POP SWAP1 SWAP5 POP SWAP3 POP POP POP JUMP JUMPDEST PUSH1 0x0 DUP2 DUP2 SLOAD DUP2 LT PUSH2 0x3D2 JUMPI PUSH1 0x0 DUP1 REVERT JUMPDEST PUSH1 0x0 SWAP2 DUP3 MSTORE PUSH1 0x20 SWAP1 SWAP2 KECCAK256 PUSH1 0x3 SWAP1 SWAP2 MUL ADD DUP1 SLOAD PUSH1 0x1 DUP3 ADD SLOAD PUSH1 0x2 SWAP1 SWAP3 ADD SLOAD SWAP1 SWAP3 POP PUSH1 0x1 PUSH1 0x1 PUSH1 0xA0 SHL SUB AND DUP4 JUMP JUMPDEST DUP1 CALLDATALOAD PUSH1 0x1 PUSH1 0x1 PUSH1 0xA0 SHL SUB DUP2 AND DUP2 EQ PUSH2 0x415 JUMPI PUSH1 0x0 DUP1 REVERT JUMPDEST SWAP2 SWAP1 POP JUMP JUMPDEST PUSH1 0x0 DUP1 PUSH1 0x40 DUP4 DUP6 SUB SLT ISZERO PUSH2 0x42D JUMPI PUSH1 0x0 DUP1 REVERT JUMPDEST PUSH2 0x436 DUP4 PUSH2 0x3FE JUMP JUMPDEST SWAP5 PUSH1 0x20 SWAP4 SWAP1 SWAP4 ADD CALLDATALOAD SWAP4 POP POP POP JUMP JUMPDEST PUSH1 0x0 PUSH1 0x60 DUP1 DUP4 ADD DUP7 DUP5 MSTORE PUSH1 0x20 DUP7 DUP2 DUP7 ADD MSTORE PUSH1 0x40 DUP4 DUP2 DUP8 ADD MSTORE DUP3 DUP8 MLOAD DUP1 DUP6 MSTORE PUSH1 0x80 DUP9 ADD SWAP2 POP DUP4 DUP10 ADD SWAP5 POP PUSH1 0x0 JUMPDEST DUP2 DUP2 LT ISZERO PUSH2 0x4A6 JUMPI DUP6 MLOAD DUP1 MLOAD DUP5 MSTORE DUP6 DUP2 ADD MLOAD DUP7 DUP6 ADD MSTORE DUP5 ADD MLOAD PUSH1 0x1 PUSH1 0x1 PUSH1 0xA0 SHL SUB AND DUP5 DUP5 ADD MSTORE SWAP5 DUP5 ADD SWAP5 SWAP2 DUP7 ADD SWAP2 PUSH1 0x1 ADD PUSH2 0x470 JUMP JUMPDEST POP SWAP1 SWAP11 SWAP10 POP POP POP POP POP POP POP POP POP POP JUMP JUMPDEST PUSH1 0x0 PUSH1 0x20 DUP3 DUP5 SUB SLT ISZERO PUSH2 0x4C8 JUMPI PUSH1 0x0 DUP1 REVERT JUMPDEST PUSH2 0x4D1 DUP3 PUSH2 0x3FE JUMP JUMPDEST SWAP4 SWAP3 POP POP POP JUMP JUMPDEST PUSH1 0x0 PUSH1 0x20 DUP3 DUP5 SUB SLT ISZERO PUSH2 0x4EA JUMPI PUSH1 0x0 DUP1 REVERT JUMPDEST POP CALLDATALOAD SWAP2 SWAP1 POP JUMP JUMPDEST PUSH4 0x4E487B71 PUSH1 0xE0 SHL PUSH1 0x0 MSTORE PUSH1 0x11 PUSH1 0x4 MSTORE PUSH1 0x24 PUSH1 0x0 REVERT JUMPDEST DUP1 DUP3 ADD DUP1 DUP3 GT ISZERO PUSH2 0x51A JUMPI PUSH2 0x51A PUSH2 0x4F1 JUMP JUMPDEST SWAP3 SWAP2 POP POP JUMP JUMPDEST PUSH4 0x4E487B71 PUSH1 0xE0 SHL PUSH1 0x0 MSTORE PUSH1 0x41 PUSH1 0x4 MSTORE PUSH1 0x24 PUSH1 0x0 REVERT JUMPDEST DUP2 DUP2 SUB DUP2 DUP2 GT ISZERO PUSH2 0x51A JUMPI PUSH2 0x51A PUSH2 0x4F1 JUMP JUMPDEST PUSH4 0x4E487B71 PUSH1 0xE0 SHL PUSH1 0x0 MSTORE PUSH1 0x32 PUSH1 0x4 MSTORE PUSH1 0x24 PUSH1 0x0 REVERT JUMPDEST PUSH1 0x0 PUSH1 0x1 DUP3 ADD PUSH2 0x571 JUMPI PUSH2 0x571 PUSH2 0x4F1 JUMP JUMPDEST POP PUSH1 0x1 ADD SWAP1 JUMP INVALID LOG2 PUSH5 0x6970667358 0x22 SLT KECCAK256 ADDRESS 0xC2 0xAC 0xE5 0xD6 0x2E BALANCE GASLIMIT 0xD8 0xAB 0x5E 0x2D 0x2E MUL PUSH14 0x1677FBE0BC31A29ED0E43223B89B SWAP10 LOG4 0xBD PUSH5 0x736F6C6343 STOP ADDMOD EQ STOP CALLER "},"methodIdentifiers":{"deployerFees(address)":"66b9d100","getAnalytics()":"0ccb2ec8","recordFee(address,uint256)":"0a6e0fd4","totalDeployments()":"fb35b4e4","totalFees()":"13114a9d","transactions(uint256)":"9ace38c2"}}}}}