{"contracts/defi/Cloner.sol":{"Cloner":{"abi":[{"anonymous":false,"inputs":[{"indexed":true,"internalType":"address","name":"original","type":"address"},{"indexed":true,"internalType":"address","name":"cloned","type":"address"}],"name":"Cloned","type":"event"},{"inputs":[{"internalType":"address","name":"implementation","type":"address"}],"name":"clone","outputs":[{"internalType":"address","name":"instance","type":"address"}],"stateMutability":"nonpayable","type":"function"}],"evm":{"bytecode":{"linkReferences":{},"object":"6080806040523461001657610143908161001c8239f35b600080fdfe608080604052600436101561001357600080fd5b6000803560e01c638124b78e1461002957600080fd5b3461010a57602036600319011261010a576004356001600160a01b0381811693918481036101065780763d602d80600a3d3981f3363d3d373d3d3d363d7300000062ffffff6e5af43d82803e903d91602b57fd5bf39360881c1617855260781b176020526037600984f0169081156100cb5750806020937fae93c8e84b9065113a0230417359f283712a933bdab9abc10fcb1179edc6b1c86040519480a38152f35b62461bcd60e51b8152602060048201526016602482015275115490cc4c4d8dce8818dc99585d194819985a5b195960521b6044820152606490fd5b8380fd5b80fdfea26469706673582212202cfd886504d71c0481e6ee41efc042a115b55a90a996fe34a885eceff296c5f964736f6c63430008160033","opcodes":"PUSH1 0x80 DUP1 PUSH1 0x40 MSTORE CALLVALUE PUSH2 0x16 JUMPI PUSH2 0x143 SWAP1 DUP2 PUSH2 0x1C DUP3 CODECOPY RETURN JUMPDEST PUSH1 0x0 DUP1 REVERT INVALID PUSH1 0x80 DUP1 PUSH1 0x40 MSTORE PUSH1 0x4 CALLDATASIZE LT ISZERO PUSH2 0x13 JUMPI PUSH1 0x0 DUP1 REVERT JUMPDEST PUSH1 0x0 DUP1 CALLDATALOAD PUSH1 0xE0 SHR PUSH4 0x8124B78E EQ PUSH2 0x29 JUMPI PUSH1 0x0 DUP1 REVERT JUMPDEST CALLVALUE PUSH2 0x10A JUMPI PUSH1 0x20 CALLDATASIZE PUSH1 0x3 NOT ADD SLT PUSH2 0x10A JUMPI PUSH1 0x4 CALLDATALOAD PUSH1 0x1 PUSH1 0x1 PUSH1 0xA0 SHL SUB DUP2 DUP2 AND SWAP4 SWAP2 DUP5 DUP2 SUB PUSH2 0x106 JUMPI DUP1 PUSH23 0x3D602D80600A3D3981F3363D3D373D3D3D363D73000000 PUSH3 0xFFFFFF PUSH15 0x5AF43D82803E903D91602B57FD5BF3 SWAP4 PUSH1 0x88 SHR AND OR DUP6 MSTORE PUSH1 0x78 SHL OR PUSH1 0x20 MSTORE PUSH1 0x37 PUSH1 0x9 DUP5 CREATE AND SWAP1 DUP2 ISZERO PUSH2 0xCB JUMPI POP DUP1 PUSH1 0x20 SWAP4 PUSH32 0xAE93C8E84B9065113A0230417359F283712A933BDAB9ABC10FCB1179EDC6B1C8 PUSH1 0x40 MLOAD SWAP5 DUP1 LOG3 DUP2 MSTORE RETURN JUMPDEST PUSH3 0x461BCD PUSH1 0xE5 SHL DUP2 MSTORE PUSH1 0x20 PUSH1 0x4 DUP3 ADD MSTORE PUSH1 0x16 PUSH1 0x24 DUP3 ADD MSTORE PUSH22 0x115490CC4C4D8DCE8818DC99585D194819985A5B1959 PUSH1 0x52 SHL PUSH1 0x44 DUP3 ADD MSTORE PUSH1 0x64 SWAP1 REVERT JUMPDEST DUP4 DUP1 REVERT JUMPDEST DUP1 REVERT INVALID LOG2 PUSH5 0x6970667358 0x22 SLT KECCAK256 0x2C REVERT DUP9 PUSH6 0x4D71C0481E6 0xEE COINBASE 0xEF 0xC0 TIMESTAMP LOG1 ISZERO 0xB5 GAS SWAP1 0xA9 SWAP7 INVALID CALLVALUE 0xA8 DUP6 0xEC 0xEF CALLCODE SWAP7 0xC5 0xF9 PUSH5 0x736F6C6343 STOP ADDMOD AND STOP CALLER "},"methodIdentifiers":{"clone(address)":"8124b78e"}}}}}