{
  "_format": "hh-sol-artifact-1",
  "contractName": "RewardToken",
  "sourceName": "contracts/defi/RewardToken.sol",
  "abi": [
    {
      "inputs": [],
      "stateMutability": "nonpayable",
      "type": "constructor"
    },
    {
      "anonymous": false,
      "inputs": [
        {
          "indexed": true,
          "internalType": "address",
          "name": "owner",
          "type": "address"
        },
        {
          "indexed": true,
          "internalType": "address",
          "name": "spender",
          "type": "address"
        },
        {
          "indexed": false,
          "internalType": "uint256",
          "name": "value",
          "type": "uint256"
        }
      ],
      "name": "Approval",
      "type": "event"
    },
    {
      "anonymous": false,
      "inputs": [
        {
          "indexed": true,
          "internalType": "address",
          "name": "previousOwner",
          "type": "address"
        },
        {
          "indexed": true,
          "internalType": "address",
          "name": "newOwner",
          "type": "address"
        }
      ],
      "name": "OwnershipTransferred",
      "type": "event"
    },
    {
      "anonymous": false,
      "inputs": [
        {
          "indexed": true,
          "internalType": "address",
          "name": "from",
          "type": "address"
        },
        {
          "indexed": true,
          "internalType": "address",
          "name": "to",
          "type": "address"
        },
        {
          "indexed": false,
          "internalType": "uint256",
          "name": "value",
          "type": "uint256"
        }
      ],
      "name": "Transfer",
      "type": "event"
    },
    {
      "inputs": [],
      "name": "MAX_SUPPLY",
      "outputs": [
        {
          "internalType": "uint256",
          "name": "",
          "type": "uint256"
        }
      ],
      "stateMutability": "view",
      "type": "function"
    },
    {
      "inputs": [
        {
          "internalType": "address",
          "name": "owner",
          "type": "address"
        },
        {
          "internalType": "address",
          "name": "spender",
          "type": "address"
        }
      ],
      "name": "allowance",
      "outputs": [
        {
          "internalType": "uint256",
          "name": "",
          "type": "uint256"
        }
      ],
      "stateMutability": "view",
      "type": "function"
    },
    {
      "inputs": [
        {
          "internalType": "address",
          "name": "spender",
          "type": "address"
        },
        {
          "internalType": "uint256",
          "name": "amount",
          "type": "uint256"
        }
      ],
      "name": "approve",
      "outputs": [
        {
          "internalType": "bool",
          "name": "",
          "type": "bool"
        }
      ],
      "stateMutability": "nonpayable",
      "type": "function"
    },
    {
      "inputs": [
        {
          "internalType": "address",
          "name": "account",
          "type": "address"
        }
      ],
      "name": "balanceOf",
      "outputs": [
        {
          "internalType": "uint256",
          "name": "",
          "type": "uint256"
        }
      ],
      "stateMutability": "view",
      "type": "function"
    },
    {
      "inputs": [],
      "name": "decimals",
      "outputs": [
        {
          "internalType": "uint8",
          "name": "",
          "type": "uint8"
        }
      ],
      "stateMutability": "view",
      "type": "function"
    },
    {
      "inputs": [
        {
          "internalType": "address",
          "name": "spender",
          "type": "address"
        },
        {
          "internalType": "uint256",
          "name": "subtractedValue",
          "type": "uint256"
        }
      ],
      "name": "decreaseAllowance",
      "outputs": [
        {
          "internalType": "bool",
          "name": "",
          "type": "bool"
        }
      ],
      "stateMutability": "nonpayable",
      "type": "function"
    },
    {
      "inputs": [
        {
          "internalType": "address",
          "name": "spender",
          "type": "address"
        },
        {
          "internalType": "uint256",
          "name": "addedValue",
          "type": "uint256"
        }
      ],
      "name": "increaseAllowance",
      "outputs": [
        {
          "internalType": "bool",
          "name": "",
          "type": "bool"
        }
      ],
      "stateMutability": "nonpayable",
      "type": "function"
    },
    {
      "inputs": [
        {
          "internalType": "string",
          "name": "name",
          "type": "string"
        },
        {
          "internalType": "string",
          "name": "symbol",
          "type": "string"
        },
        {
          "internalType": "uint256",
          "name": "maxSupply",
          "type": "uint256"
        },
        {
          "internalType": "uint256",
          "name": "initialSupply",
          "type": "uint256"
        }
      ],
      "name": "initialize",
      "outputs": [],
      "stateMutability": "nonpayable",
      "type": "function"
    },
    {
      "inputs": [
        {
          "internalType": "address",
          "name": "to",
          "type": "address"
        },
        {
          "internalType": "uint256",
          "name": "amount",
          "type": "uint256"
        }
      ],
      "name": "mint",
      "outputs": [],
      "stateMutability": "nonpayable",
      "type": "function"
    },
    {
      "inputs": [],
      "name": "name",
      "outputs": [
        {
          "internalType": "string",
          "name": "",
          "type": "string"
        }
      ],
      "stateMutability": "view",
      "type": "function"
    },
    {
      "inputs": [],
      "name": "owner",
      "outputs": [
        {
          "internalType": "address",
          "name": "",
          "type": "address"
        }
      ],
      "stateMutability": "view",
      "type": "function"
    },
    {
      "inputs": [],
      "name": "renounceOwnership",
      "outputs": [],
      "stateMutability": "nonpayable",
      "type": "function"
    },
    {
      "inputs": [],
      "name": "symbol",
      "outputs": [
        {
          "internalType": "string",
          "name": "",
          "type": "string"
        }
      ],
      "stateMutability": "view",
      "type": "function"
    },
    {
      "inputs": [],
      "name": "totalSupply",
      "outputs": [
        {
          "internalType": "uint256",
          "name": "",
          "type": "uint256"
        }
      ],
      "stateMutability": "view",
      "type": "function"
    },
    {
      "inputs": [
        {
          "internalType": "address",
          "name": "to",
          "type": "address"
        },
        {
          "internalType": "uint256",
          "name": "amount",
          "type": "uint256"
        }
      ],
      "name": "transfer",
      "outputs": [
        {
          "internalType": "bool",
          "name": "",
          "type": "bool"
        }
      ],
      "stateMutability": "nonpayable",
      "type": "function"
    },
    {
      "inputs": [
        {
          "internalType": "address",
          "name": "from",
          "type": "address"
        },
        {
          "internalType": "address",
          "name": "to",
          "type": "address"
        },
        {
          "internalType": "uint256",
          "name": "amount",
          "type": "uint256"
        }
      ],
      "name": "transferFrom",
      "outputs": [
        {
          "internalType": "bool",
          "name": "",
          "type": "bool"
        }
      ],
      "stateMutability": "nonpayable",
      "type": "function"
    },
    {
      "inputs": [
        {
          "internalType": "address",
          "name": "newOwner",
          "type": "address"
        }
      ],
      "name": "transferOwnership",
      "outputs": [],
      "stateMutability": "nonpayable",
      "type": "function"
    }
  ],
  "bytecode": "0x60806040523462000323576200001462000328565b6200001e62000328565b8151906001600160401b039081831162000223576003908154906001948583811c931696871562000318575b6020978885101462000302578190601f94858111620002ac575b508890858311600114620002455760009262000239575b505060001982861b1c191690861b1783555b8051938411620002235760049586548681811c9116801562000218575b828210146200020357838111620001b8575b50809285116001146200014a57509383949184926000956200013e575b50501b92600019911b1c19161790555b60058054336001600160a01b03198216811790925560405191906001600160a01b03167f8be0079c531659141344cd1fd0a4f28419497f9722a3daafe3b4186f6b6457e0600080a3610dcb90816200034d8239f35b015193503880620000d9565b92919084601f1981168860005285600020956000905b898383106200019d575050501062000182575b50505050811b019055620000e9565b01519060f884600019921b161c191690553880808062000173565b85870151895590970196948501948893509081019062000160565b87600052816000208480880160051c820192848910620001f9575b0160051c019087905b828110620001ec575050620000bc565b60008155018790620001dc565b92508192620001d3565b602288634e487b7160e01b6000525260246000fd5b90607f1690620000aa565b634e487b7160e01b600052604160045260246000fd5b0151905038806200007b565b90889350601f19831691876000528a6000209260005b8c8282106200029557505084116200027c575b505050811b0183556200008d565b015160001983881b60f8161c191690553880806200026e565b8385015186558c979095019493840193016200025b565b90915085600052886000208580850160051c8201928b8610620002f8575b918a91869594930160051c01915b828110620002e857505062000064565b600081558594508a9101620002d8565b92508192620002ca565b634e487b7160e01b600052602260045260246000fd5b92607f16926200004a565b600080fd5b60405190602082016001600160401b0381118382101762000223576040526000825256fe6080604081815260048036101561001557600080fd5b600092833560e01c90816306fdde031461080c57508063095ea7b3146107e257806318160ddd146107c357806323b872dd146106f9578063313ce567146106dd57806332cb6b0c146106be578063395093511461066e57806340c10f19146105f05780636fe0e3951461049457806370a082311461045d578063715018a6146104005780638da5cb5b146103d757806395d89b41146102d1578063a457c2d71461022a578063a9059cbb146101f9578063dd62ed3e146101ac5763f2fde38b146100de57600080fd5b346101a85760203660031901126101a8576100f7610947565b90610100610c9a565b6001600160a01b03918216928315610156575050600554826bffffffffffffffffffffffff60a01b821617600555167f8be0079c531659141344cd1fd0a4f28419497f9722a3daafe3b4186f6b6457e08380a380f35b906020608492519162461bcd60e51b8352820152602660248201527f4f776e61626c653a206e6577206f776e657220697320746865207a65726f206160448201526564647265737360d01b6064820152fd5b8280fd5b5050346101f557806003193601126101f557806020926101ca610947565b6101d2610962565b6001600160a01b0391821683526001865283832091168252845220549051908152f35b5080fd5b5050346101f557806003193601126101f557602090610223610219610947565b6024359033610b2c565b5160018152f35b5082346102ce57826003193601126102ce57610244610947565b918360243592338152600160205281812060018060a01b038616825260205220549082821061027d576020856102238585038733610a2a565b608490602086519162461bcd60e51b8352820152602560248201527f45524332303a2064656372656173656420616c6c6f77616e63652062656c6f77604482015264207a65726f60d81b6064820152fd5b80fd5b509190346101f557816003193601126101f55780519180938054916001908360011c92600185169485156103cd575b60209586861081146103ba57858952908115610396575060011461033e575b61033a8787610330828c0383610978565b51918291826108fe565b0390f35b81529295507f8a35acfbc15ff81a39ae7d344fd709f28e8600b4aa8c65c6b64bfe7fe36bd19b5b828410610383575050508261033a946103309282010194388061031f565b8054868501880152928601928101610365565b60ff19168887015250505050151560051b83010192506103308261033a388061031f565b634e487b7160e01b845260228352602484fd5b93607f1693610300565b5050346101f557816003193601126101f55760055490516001600160a01b039091168152602090f35b83346102ce57806003193601126102ce57610419610c9a565b600580546001600160a01b0319811690915581906001600160a01b03167f8be0079c531659141344cd1fd0a4f28419497f9722a3daafe3b4186f6b6457e08280a380f35b5050346101f55760203660031901126101f55760209181906001600160a01b03610485610947565b16815280845220549051908152f35b508290346101f55760803660031901126101f55767ffffffffffffffff9080358281116105ec576104c890369083016109b0565b916024359081116105ec576104e090369083016109b0565b60443590606435936007549360ff85166105b35783861161056657507f7ae4f661958fbecc2f77be6b0eb280d2a6f604c9ca56cca41288c048a0e53b71557fd9d233e9c410a3aa1c4404a397b61fda8e9c4a528434783e3c13b4a95899a29c5560065560ff191660011760075590915080610559575080f35b6105639033610cf2565b80f35b608490602089519162461bcd60e51b8352820152602160248201527f496e697469616c20737570706c792065786365656473206d617820737570706c6044820152607960f81b6064820152fd5b606490602089519162461bcd60e51b83528201526013602482015272105b1c9958591e481a5b9a5d1a585b1a5e9959606a1b6044820152fd5b8380fd5b508290346101f557826003193601126101f55761060b610947565b60243591610617610c9a565b61062383600254610a07565b6006541061063657509061056391610cf2565b606490602086519162461bcd60e51b8352820152601260248201527145786365656473206d617820737570706c7960701b6044820152fd5b5050346101f557806003193601126101f5576102236020926106b7610691610947565b338352600186528483206001600160a01b03821684528652918490205460243590610a07565b9033610a2a565b5050346101f557816003193601126101f5576020906006549051908152f35b5050346101f557816003193601126101f5576020905160128152f35b508290346101f55760603660031901126101f557610715610947565b61071d610962565b91846044359460018060a01b038416815260016020528181203382526020522054906000198203610757575b602086610223878787610b2c565b84821061078057509183916107756020969561022395033383610a2a565b919394819350610749565b606490602087519162461bcd60e51b8352820152601d60248201527f45524332303a20696e73756666696369656e7420616c6c6f77616e63650000006044820152fd5b5050346101f557816003193601126101f5576020906002549051908152f35b5050346101f557806003193601126101f557602090610223610802610947565b6024359033610a2a565b92919050346105ec57836003193601126105ec57600354600181811c91869082811680156108f4575b60209586861082146108e157508488529081156108bf5750600114610866575b61033a8686610330828b0383610978565b929550600383527fc2575a0e9e593c00f959f8c92f12db2869c3395a3b0502d05e2516446f71f85b5b8284106108ac575050508261033a94610330928201019438610855565b805486850188015292860192810161088f565b60ff191687860152505050151560051b83010192506103308261033a38610855565b634e487b7160e01b845260229052602483fd5b93607f1693610835565b6020808252825181830181905290939260005b82811061093357505060409293506000838284010152601f8019910116010190565b818101860151848201604001528501610911565b600435906001600160a01b038216820361095d57565b600080fd5b602435906001600160a01b038216820361095d57565b90601f8019910116810190811067ffffffffffffffff82111761099a57604052565b634e487b7160e01b600052604160045260246000fd5b81601f8201121561095d5780359067ffffffffffffffff821161099a57604051926109e5601f8401601f191660200185610978565b8284526020838301011161095d57816000926020809301838601378301015290565b91908201809211610a1457565b634e487b7160e01b600052601160045260246000fd5b6001600160a01b03908116918215610adb5716918215610a8b5760207f8c5be1e5ebec7d5bd14f71427d1e84f3dd0314c0f7b2291e5b200ac8c7c3b925918360005260018252604060002085600052825280604060002055604051908152a3565b60405162461bcd60e51b815260206004820152602260248201527f45524332303a20617070726f766520746f20746865207a65726f206164647265604482015261737360f01b6064820152608490fd5b60405162461bcd60e51b8152602060048201526024808201527f45524332303a20617070726f76652066726f6d20746865207a65726f206164646044820152637265737360e01b6064820152608490fd5b6001600160a01b03908116918215610c475716918215610bf657600082815280602052604081205491808310610ba257604082827fddf252ad1be2c89b69c2b068fc378daa952ba7f163c4a11628f55a4df523b3ef958760209652828652038282205586815220818154019055604051908152a3565b60405162461bcd60e51b815260206004820152602660248201527f45524332303a207472616e7366657220616d6f756e7420657863656564732062604482015265616c616e636560d01b6064820152608490fd5b60405162461bcd60e51b815260206004820152602360248201527f45524332303a207472616e7366657220746f20746865207a65726f206164647260448201526265737360e81b6064820152608490fd5b60405162461bcd60e51b815260206004820152602560248201527f45524332303a207472616e736665722066726f6d20746865207a65726f206164604482015264647265737360d81b6064820152608490fd5b6005546001600160a01b03163303610cae57565b606460405162461bcd60e51b815260206004820152602060248201527f4f776e61626c653a2063616c6c6572206973206e6f7420746865206f776e65726044820152fd5b6001600160a01b0316908115610d50577fddf252ad1be2c89b69c2b068fc378daa952ba7f163c4a11628f55a4df523b3ef602082610d34600094600254610a07565b60025584845283825260408420818154019055604051908152a3565b60405162461bcd60e51b815260206004820152601f60248201527f45524332303a206d696e7420746f20746865207a65726f2061646472657373006044820152606490fdfea26469706673582212203d520e1501727208433236c214503f3691ad18fd70ab164b0065e18cbd36ed5e64736f6c63430008160033",
  "linkReferences": {},
  "deployedLinkReferences": {}
}