{
  "_format": "hh-sol-artifact-1",
  "contractName": "TokenFactory_v2_DirectDEX_TwoStep",
  "sourceName": "src/contracts/TokenFactory_v2_DirectDEX_TwoStep.sol",
  "abi": [
    {
      "inputs": [
        {
          "internalType": "uint256",
          "name": "_listingFee",
          "type": "uint256"
        }
      ],
      "stateMutability": "nonpayable",
      "type": "constructor"
    },
    {
      "inputs": [
        {
          "internalType": "string",
          "name": "dexName",
          "type": "string"
        }
      ],
      "name": "DEXNotAvailable",
      "type": "error"
    },
    {
      "inputs": [
        {
          "internalType": "uint256",
          "name": "required",
          "type": "uint256"
        },
        {
          "internalType": "uint256",
          "name": "provided",
          "type": "uint256"
        }
      ],
      "name": "InsufficientETH",
      "type": "error"
    },
    {
      "inputs": [
        {
          "internalType": "uint256",
          "name": "required",
          "type": "uint256"
        },
        {
          "internalType": "uint256",
          "name": "provided",
          "type": "uint256"
        }
      ],
      "name": "InsufficientTokenAllowance",
      "type": "error"
    },
    {
      "inputs": [
        {
          "internalType": "address",
          "name": "token",
          "type": "address"
        },
        {
          "internalType": "uint256",
          "name": "ethAmount",
          "type": "uint256"
        },
        {
          "internalType": "uint256",
          "name": "tokenAmount",
          "type": "uint256"
        }
      ],
      "name": "LiquidityAdditionFailed",
      "type": "error"
    },
    {
      "inputs": [
        {
          "internalType": "address",
          "name": "token",
          "type": "address"
        },
        {
          "internalType": "address",
          "name": "caller",
          "type": "address"
        }
      ],
      "name": "NotTokenOwner",
      "type": "error"
    },
    {
      "inputs": [
        {
          "internalType": "address",
          "name": "token",
          "type": "address"
        },
        {
          "internalType": "address",
          "name": "router",
          "type": "address"
        }
      ],
      "name": "PairCreationFailed",
      "type": "error"
    },
    {
      "inputs": [
        {
          "internalType": "address",
          "name": "token",
          "type": "address"
        }
      ],
      "name": "TokenAlreadyListed",
      "type": "error"
    },
    {
      "inputs": [
        {
          "internalType": "address",
          "name": "token",
          "type": "address"
        }
      ],
      "name": "TokenNotFound",
      "type": "error"
    },
    {
      "anonymous": false,
      "inputs": [
        {
          "indexed": false,
          "internalType": "string",
          "name": "name",
          "type": "string"
        },
        {
          "indexed": false,
          "internalType": "address",
          "name": "router",
          "type": "address"
        }
      ],
      "name": "DEXAdded",
      "type": "event"
    },
    {
      "anonymous": false,
      "inputs": [
        {
          "indexed": false,
          "internalType": "string",
          "name": "name",
          "type": "string"
        },
        {
          "indexed": false,
          "internalType": "address",
          "name": "router",
          "type": "address"
        },
        {
          "indexed": false,
          "internalType": "bool",
          "name": "isActive",
          "type": "bool"
        }
      ],
      "name": "DEXUpdated",
      "type": "event"
    },
    {
      "anonymous": false,
      "inputs": [
        {
          "indexed": true,
          "internalType": "address",
          "name": "previousOwner",
          "type": "address"
        },
        {
          "indexed": true,
          "internalType": "address",
          "name": "newOwner",
          "type": "address"
        }
      ],
      "name": "OwnershipTransferred",
      "type": "event"
    },
    {
      "anonymous": false,
      "inputs": [
        {
          "indexed": true,
          "internalType": "address",
          "name": "token",
          "type": "address"
        },
        {
          "indexed": true,
          "internalType": "address",
          "name": "owner",
          "type": "address"
        },
        {
          "indexed": false,
          "internalType": "string",
          "name": "name",
          "type": "string"
        },
        {
          "indexed": false,
          "internalType": "string",
          "name": "symbol",
          "type": "string"
        },
        {
          "indexed": false,
          "internalType": "uint256",
          "name": "totalSupply",
          "type": "uint256"
        },
        {
          "indexed": false,
          "internalType": "uint256",
          "name": "creationTime",
          "type": "uint256"
        }
      ],
      "name": "TokenCreated",
      "type": "event"
    },
    {
      "anonymous": false,
      "inputs": [
        {
          "indexed": true,
          "internalType": "address",
          "name": "token",
          "type": "address"
        },
        {
          "indexed": true,
          "internalType": "address",
          "name": "owner",
          "type": "address"
        },
        {
          "indexed": false,
          "internalType": "string",
          "name": "dexName",
          "type": "string"
        },
        {
          "indexed": false,
          "internalType": "uint256",
          "name": "initialLiquidity",
          "type": "uint256"
        },
        {
          "indexed": false,
          "internalType": "uint256",
          "name": "listingPrice",
          "type": "uint256"
        },
        {
          "indexed": false,
          "internalType": "uint256",
          "name": "listingTime",
          "type": "uint256"
        }
      ],
      "name": "TokenListed",
      "type": "event"
    },
    {
      "inputs": [],
      "name": "VERSION",
      "outputs": [
        {
          "internalType": "string",
          "name": "",
          "type": "string"
        }
      ],
      "stateMutability": "view",
      "type": "function"
    },
    {
      "inputs": [],
      "name": "VERSION_HASH",
      "outputs": [
        {
          "internalType": "bytes32",
          "name": "",
          "type": "bytes32"
        }
      ],
      "stateMutability": "view",
      "type": "function"
    },
    {
      "inputs": [
        {
          "internalType": "string",
          "name": "name",
          "type": "string"
        },
        {
          "internalType": "address",
          "name": "router",
          "type": "address"
        }
      ],
      "name": "addDEX",
      "outputs": [],
      "stateMutability": "nonpayable",
      "type": "function"
    },
    {
      "inputs": [
        {
          "internalType": "uint256",
          "name": "",
          "type": "uint256"
        }
      ],
      "name": "allTokens",
      "outputs": [
        {
          "internalType": "address",
          "name": "",
          "type": "address"
        }
      ],
      "stateMutability": "view",
      "type": "function"
    },
    {
      "inputs": [
        {
          "components": [
            {
              "internalType": "string",
              "name": "name",
              "type": "string"
            },
            {
              "internalType": "string",
              "name": "symbol",
              "type": "string"
            },
            {
              "internalType": "uint256",
              "name": "totalSupply",
              "type": "uint256"
            },
            {
              "internalType": "uint256",
              "name": "maxTxAmount",
              "type": "uint256"
            },
            {
              "internalType": "uint256",
              "name": "maxWalletAmount",
              "type": "uint256"
            },
            {
              "internalType": "bool",
              "name": "enableTrading",
              "type": "bool"
            },
            {
              "internalType": "uint256",
              "name": "tradingStartTime",
              "type": "uint256"
            },
            {
              "internalType": "uint256",
              "name": "marketingFeePercentage",
              "type": "uint256"
            },
            {
              "internalType": "address",
              "name": "marketingWallet",
              "type": "address"
            },
            {
              "internalType": "uint256",
              "name": "developmentFeePercentage",
              "type": "uint256"
            },
            {
              "internalType": "address",
              "name": "developmentWallet",
              "type": "address"
            },
            {
              "internalType": "uint256",
              "name": "autoLiquidityFeePercentage",
              "type": "uint256"
            },
            {
              "internalType": "bool",
              "name": "enableBuyFees",
              "type": "bool"
            },
            {
              "internalType": "bool",
              "name": "enableSellFees",
              "type": "bool"
            }
          ],
          "internalType": "struct TokenFactory_v2_DirectDEX_TwoStep.TokenCreationParams",
          "name": "params",
          "type": "tuple"
        }
      ],
      "name": "createToken",
      "outputs": [
        {
          "internalType": "address",
          "name": "",
          "type": "address"
        }
      ],
      "stateMutability": "nonpayable",
      "type": "function"
    },
    {
      "inputs": [
        {
          "internalType": "string",
          "name": "",
          "type": "string"
        }
      ],
      "name": "dexRouters",
      "outputs": [
        {
          "internalType": "string",
          "name": "name",
          "type": "string"
        },
        {
          "internalType": "address",
          "name": "router",
          "type": "address"
        },
        {
          "internalType": "bool",
          "name": "isActive",
          "type": "bool"
        }
      ],
      "stateMutability": "view",
      "type": "function"
    },
    {
      "inputs": [
        {
          "internalType": "address",
          "name": "tokenAddress",
          "type": "address"
        }
      ],
      "name": "emergencyRefund",
      "outputs": [],
      "stateMutability": "nonpayable",
      "type": "function"
    },
    {
      "inputs": [],
      "name": "getAllTokens",
      "outputs": [
        {
          "internalType": "address[]",
          "name": "",
          "type": "address[]"
        }
      ],
      "stateMutability": "view",
      "type": "function"
    },
    {
      "inputs": [
        {
          "internalType": "string",
          "name": "dexName",
          "type": "string"
        }
      ],
      "name": "getDEXRouter",
      "outputs": [
        {
          "components": [
            {
              "internalType": "string",
              "name": "name",
              "type": "string"
            },
            {
              "internalType": "address",
              "name": "router",
              "type": "address"
            },
            {
              "internalType": "bool",
              "name": "isActive",
              "type": "bool"
            }
          ],
          "internalType": "struct TokenFactory_v2_DirectDEX_TwoStep.DEXRouter",
          "name": "",
          "type": "tuple"
        }
      ],
      "stateMutability": "view",
      "type": "function"
    },
    {
      "inputs": [],
      "name": "getListingFee",
      "outputs": [
        {
          "internalType": "uint256",
          "name": "",
          "type": "uint256"
        }
      ],
      "stateMutability": "view",
      "type": "function"
    },
    {
      "inputs": [],
      "name": "getSupportedDEXes",
      "outputs": [
        {
          "internalType": "string[]",
          "name": "",
          "type": "string[]"
        }
      ],
      "stateMutability": "view",
      "type": "function"
    },
    {
      "inputs": [
        {
          "internalType": "address",
          "name": "token",
          "type": "address"
        }
      ],
      "name": "getTokenInfo",
      "outputs": [
        {
          "components": [
            {
              "internalType": "address",
              "name": "token",
              "type": "address"
            },
            {
              "internalType": "address",
              "name": "owner",
              "type": "address"
            },
            {
              "internalType": "bool",
              "name": "isListed",
              "type": "bool"
            },
            {
              "internalType": "string",
              "name": "dexName",
              "type": "string"
            },
            {
              "internalType": "uint256",
              "name": "creationTime",
              "type": "uint256"
            },
            {
              "internalType": "uint256",
              "name": "listingTime",
              "type": "uint256"
            }
          ],
          "internalType": "struct TokenFactory_v2_DirectDEX_TwoStep.TokenInfo",
          "name": "",
          "type": "tuple"
        }
      ],
      "stateMutability": "view",
      "type": "function"
    },
    {
      "inputs": [
        {
          "internalType": "address",
          "name": "token",
          "type": "address"
        }
      ],
      "name": "isListed",
      "outputs": [
        {
          "internalType": "bool",
          "name": "",
          "type": "bool"
        }
      ],
      "stateMutability": "view",
      "type": "function"
    },
    {
      "inputs": [
        {
          "internalType": "address",
          "name": "tokenAddress",
          "type": "address"
        },
        {
          "internalType": "uint256",
          "name": "initialLiquidityInETH",
          "type": "uint256"
        },
        {
          "internalType": "uint256",
          "name": "listingPriceInETH",
          "type": "uint256"
        },
        {
          "internalType": "string",
          "name": "dexName",
          "type": "string"
        },
        {
          "internalType": "uint256",
          "name": "liquidityPercentage",
          "type": "uint256"
        }
      ],
      "name": "listTokenOnDEX",
      "outputs": [],
      "stateMutability": "payable",
      "type": "function"
    },
    {
      "inputs": [],
      "name": "listingFee",
      "outputs": [
        {
          "internalType": "uint256",
          "name": "",
          "type": "uint256"
        }
      ],
      "stateMutability": "view",
      "type": "function"
    },
    {
      "inputs": [],
      "name": "owner",
      "outputs": [
        {
          "internalType": "address",
          "name": "",
          "type": "address"
        }
      ],
      "stateMutability": "view",
      "type": "function"
    },
    {
      "inputs": [],
      "name": "renounceOwnership",
      "outputs": [],
      "stateMutability": "nonpayable",
      "type": "function"
    },
    {
      "inputs": [
        {
          "internalType": "uint256",
          "name": "_newFee",
          "type": "uint256"
        }
      ],
      "name": "setListingFee",
      "outputs": [],
      "stateMutability": "nonpayable",
      "type": "function"
    },
    {
      "inputs": [
        {
          "internalType": "uint256",
          "name": "",
          "type": "uint256"
        }
      ],
      "name": "supportedDEXes",
      "outputs": [
        {
          "internalType": "string",
          "name": "",
          "type": "string"
        }
      ],
      "stateMutability": "view",
      "type": "function"
    },
    {
      "inputs": [
        {
          "internalType": "address",
          "name": "",
          "type": "address"
        }
      ],
      "name": "tokenInfo",
      "outputs": [
        {
          "internalType": "address",
          "name": "token",
          "type": "address"
        },
        {
          "internalType": "address",
          "name": "owner",
          "type": "address"
        },
        {
          "internalType": "bool",
          "name": "isListed",
          "type": "bool"
        },
        {
          "internalType": "string",
          "name": "dexName",
          "type": "string"
        },
        {
          "internalType": "uint256",
          "name": "creationTime",
          "type": "uint256"
        },
        {
          "internalType": "uint256",
          "name": "listingTime",
          "type": "uint256"
        }
      ],
      "stateMutability": "view",
      "type": "function"
    },
    {
      "inputs": [
        {
          "internalType": "address",
          "name": "newOwner",
          "type": "address"
        }
      ],
      "name": "transferOwnership",
      "outputs": [],
      "stateMutability": "nonpayable",
      "type": "function"
    },
    {
      "inputs": [
        {
          "internalType": "string",
          "name": "name",
          "type": "string"
        },
        {
          "internalType": "address",
          "name": "router",
          "type": "address"
        },
        {
          "internalType": "bool",
          "name": "isActive",
          "type": "bool"
        }
      ],
      "name": "updateDEX",
      "outputs": [],
      "stateMutability": "nonpayable",
      "type": "function"
    },
    {
      "inputs": [],
      "name": "withdrawFees",
      "outputs": [],
      "stateMutability": "nonpayable",
      "type": "function"
    }
  ],
  "bytecode": "0x60803461009b57601f614e2238819003918201601f19168301916001600160401b038311848410176100a05780849260209460405283398101031261009b575160008054336001600160a01b0319821681178355604051939290916001600160a01b0316907f8be0079c531659141344cd1fd0a4f28419497f9722a3daafe3b4186f6b6457e09080a360018055600655614d6b90816100b78239f35b600080fd5b634e487b7160e01b600052604160045260246000fdfe60a060405260043610156200001357600080fd5b6000803560e01c8063045f70191462001e40578063131dbd091462001e195780631f69565f1462001d0f57806324b2982f14620019c35780632a5c792a14620018f5578063386e07bf14620017e3578063476343ee146200178d5780634caf81f514620017355780635066a84214620012215780635e7ffa67146200116a578063634282af14620011215780636a1b7ecc1462000ba0578063715018a614620010c357806378e3399d1462000fea5780638da5cb5b1462000fc1578063961867701462000c175780639e4e73181462000bc0578063b8fe6abe1462000ba0578063e60d538c1462000322578063f2fde38b1462000250578063f5dab71114620001b8578063f794062e146200016e5763ffa1ad74146200013257600080fd5b346200016b57806003193601126200016b576200016762000152620022f4565b6040519182916020835260208301906200204d565b0390f35b80fd5b50346200016b5760203660031901126200016b5760209060ff906001906040906001600160a01b03620001a062001ff5565b1681526004855220015460a01c166040519015158152f35b50346200016b5760203660031901126200016b576001600160a01b039060409082620001e362001ff5565b16815260046020522081815416906001810154620002416200020860028401620021eb565b60ff600460038601549501549360405197889788528116602088015260a01c161515604086015260c0606086015260c08501906200204d565b91608084015260a08301520390f35b50346200016b5760203660031901126200016b576200026e62001ff5565b62000278620026ca565b6001600160a01b03908116908115620002ce57600054826bffffffffffffffffffffffff60a01b821617600055167f8be0079c531659141344cd1fd0a4f28419497f9722a3daafe3b4186f6b6457e0600080a380f35b60405162461bcd60e51b815260206004820152602660248201527f4f776e61626c653a206e6577206f776e657220697320746865207a65726f206160448201526564647265737360d01b6064820152608490fd5b5060a03660031901126200016b576200033a62001ff5565b6064356001600160401b03811162000b9c576200035c90369060040162002074565b608493919335916200036d62002673565b6001600160a01b0384811682526004602052604082208054909391161562000b7b57600183015460ff8160a01c1662000b5a57336001600160a01b039091160362000b3357600654620003c38160243562002665565b341062000b09575060018410801562000afe575b62000ab95760ff6001604051838982376020818581016002815203019020015460a01c161562000a91576040518187823760018282019160028352602081838060a01b03940301902001541695604051936318160ddd60e01b855260208560048160018060a01b038b165afa94851562000a8657849562000a48575b50848681020486148515171562000a3457604051636eb1769f60e11b81523360048201526001600160a01b0389166024820152602081806044810103816001600160a01b038c165afa908115620009ce578591620009fc575b506064878702048110620009d9575060405163c45a015560e01b81526020816004818c5afa908115620009ce578591620009aa575b506040516315ab88c960e31b8152906020826004818d5afa918215620008f257916020916200054a93889262000986575b506040516364e329cb60e11b81526001600160a01b03808d166004830152909216602483015290928391908290899082906044820190565b03926001600160a01b03165af18591816200094e575b506200059357604051634fe1e92b60e11b81526001600160a01b0389811660048301528a166024820152604490fd5b0390fd5b95969588906001600160a01b0316801562000922576001600160a01b0388163b15620008fd5760405163c0d7865560e01b8152600481018390528681602481836001600160a01b038e165af18015620009175762000901575b506001600160a01b0388163b15620008fd576040516340c3fa8b60e11b815260048101919091528581602481836001600160a01b038d165af18015620008f257908691620008da575b505060648887020460628082028290041490151715620008c65760243560626024350204606214602435151715620008c65761012c42014211620008c65760608660c4898b946064606281604051988997889663f305d71960e01b885260018060a01b0316600488015282828202046024880152020402046044830152606460626024350204606483015233608483015261012c420160a4830152602435905af1908162000891575b506200077b57505050808080620006f86006543462002326565b335af1620007056200234a565b50156200073f57604051630baff61160e21b81526001600160a01b0390921660048301526024803590830152606492028290046044820152fd5b60405162461bcd60e51b815260206004820152601460248201527308cc2d2d8cac840e8de40e4cacceadcc8408aa8960631b6044820152606490fd5b60018101805460ff60a01b1916600160a01b1790558592917f52b537b7efd09a072d62379791a3f242c784095aa9e11dbba910b624ecec68b891620007e49190620007cb85836002840162002595565b600442910155604051936080855260808501916200251c565b6024356020840152604435604084015242606084015233936001600160a01b0316929081900390a380620008286200082160065460243562002665565b3462002326565b8062000838575b50506001805580f35b81808092335af1620008496200234a565b5015620008585780826200082f565b60405162461bcd60e51b8152602060048201526011602482015270115512081c99599d5b990819985a5b1959607a1b6044820152606490fd5b606090813d8311620008be575b620008aa8183620021c9565b81010312620008ba5788620006de565b8480fd5b503d6200089e565b634e487b7160e01b85526011600452602485fd5b620008e590620021b5565b620008ba57848962000635565b6040513d88823e3d90fd5b8580fd5b6200090f90969196620021b5565b9489620005ec565b6040513d89823e3d90fd5b50604051634fe1e92b60e11b81526001600160a01b038881166004830152919091166024820152604490fd5b6200097691925060203d6020116200097e575b6200096d8183620021c9565b8101906200237f565b903862000560565b503d62000961565b620009a2919250833d85116200097e576200096d8183620021c9565b903862000512565b620009c7915060203d6020116200097e576200096d8183620021c9565b38620004e1565b6040513d87823e3d90fd5b856044916064896040519363dc98d7bb60e01b8552020460048301526024820152fd5b90506020813d60201162000a2b575b8162000a1a60209383620021c9565b81010312620008ba575138620004ac565b3d915062000a0b565b634e487b7160e01b84526011600452602484fd5b9094506020813d60201162000a7d575b8162000a6760209383620021c9565b8101031262000a795751933862000453565b8380fd5b3d915062000a58565b6040513d86823e3d90fd5b6040516379370a7560e01b8152602060048201529081906200058f906024830190896200251c565b60405162461bcd60e51b815260206004820152601c60248201527f496e76616c6964206c69717569646974792070657263656e74616765000000006044820152606490fd5b5060648411620003d7565b62000b1960449160243562002665565b6040519062fdf57560e51b82526004820152346024820152fd5b604051630e9ea65f60e21b81526001600160a01b0386166004820152336024820152604490fd5b604051633fb6e97160e01b81526001600160a01b0387166004820152602490fd5b60405163de6137d160e01b81526001600160a01b0386166004820152602490fd5b8280fd5b50346200016b57806003193601126200016b576020600654604051908152f35b50346200016b57806003193601126200016b57602062000bdf620022f4565b60405162000c0c83828162000bfe818301968781519384920162002028565b8101038084520182620021c9565b519020604051908152f35b50346200016b5760403660031901126200016b576001600160401b039060043582811162000fbd5762000c4f90369060040162002074565b62000c5962002011565b9362000c64620026ca565b604051809183858337838201966002885260018060a01b038098600194859160209788910301902001541662000f835787169660405163c45a015560e01b815284816004818c5afa88918162000f5f575b5062000cd65760405162461bcd60e51b8152806200058f600482016200247c565b8162000ce591161515620023a0565b6040516315ab88c960e31b815284816004818c5afa88918162000f3b575b5062000d245760405162461bcd60e51b8152806200058f600482016200243a565b8162000d3391161515620023ed565b60405162000d418162002199565b62000d4e368789620022b8565b8152848101918983526040820191858352604051888a823787818a810160028152030190209051805195861162000f275790869162000d9a8762000d9384546200212a565b84620024c1565b88908c601f891160011462000ebc5762000e0d9862000dd19390928362000eb0575b50508160011b916000199060031b1c19161790565b81555b019251166bffffffffffffffffffffffff60a01b83541617825551151581549060ff60a01b90151560a01b169060ff60a01b1916179055565b60035490600160401b82101562000e9c57810160035562000e2e90620020a4565b95909562000e885762000e6583857fdc80caac0fc930b05b1b5c1f27f1b45d60b2fa42a563cfaa28619f76da9efccc979862002595565b62000e7e6040519485946040865260408601916200251c565b918301520390a180f35b634e487b7160e01b85526004859052602485fd5b634e487b7160e01b86526041600452602486fd5b01519050388062000dbc565b9190601f1989168484528b8420935b8c82821062000f10575050918593918a62000e0d9b941062000ef6575b505050811b01815562000dd4565b015160001960f88460031b161c1916905538808062000ee8565b8385015186558c9790950194938401930162000ecb565b634e487b7160e01b8b52604160045260248bfd5b62000f57919250863d88116200097e576200096d8183620021c9565b903862000d03565b62000f7b919250863d88116200097e576200096d8183620021c9565b903862000cb5565b60405162461bcd60e51b815260048101859052601260248201527144455820616c72656164792065786973747360701b6044820152606490fd5b5080fd5b50346200016b57806003193601126200016b57546040516001600160a01b039091168152602090f35b50346200016b5760208060031936011262000fbd576004356001600160401b03811162000b9c57918162001025606094369060040162002074565b9260408051620010358162002199565b878152828582015201528260405193849283378101600281520301902090600160405192620010648462002199565b6200106f81620021eb565b8452015460018060a01b03620010af83850193828416855260ff604087019460a01c1615158452604051968796828852519187015260808601906200204d565b925116604084015251151560608301520390f35b50346200016b57806003193601126200016b57620010e0620026ca565b80546001600160a01b03198116825581906001600160a01b03167f8be0079c531659141344cd1fd0a4f28419497f9722a3daafe3b4186f6b6457e08280a380f35b50346200016b5760203660031901126200016b57600435906005548210156200016b5760206200115183620020f2565b905460405160039290921b1c6001600160a01b03168152f35b50346200016b5760203660031901126200016b57600435906001600160401b0382116200016b57366023830112156200016b5762001200620011cf6020620011bb36600487013560248801620022b8565b816040519382858094519384920162002028565b810160028152030190206001620011e682620021eb565b91015460ff6040519384936060855260608501906200204d565b6001600160a01b038316602085015260a09290921c16151560408301520390f35b50346200016b5760031960203682011262000fbd576001600160401b036004351162000fbd576101c090600435360301126200016b576200126162002673565b620012716004803501806200253d565b6200128a6024600494939435016004356004016200253d565b90936200129c60a46004350162002572565b91620012ae6101046004350162002580565b620012bf6101446004350162002580565b90620012d16101846004350162002572565b92620012e36101a46004350162002572565b9460405197886126128101106001600160401b036126128b0111176200172157916200132d899a9b926200134494612612620027248d396102006126128d0181815201916200251c565b916126128a01830360206126128c0101526200251c565b600435604481013561261289016040810191909152606482013560608201526084820135608082015296151560a088015260c481013560c088015260e087018a905260e481013561010088015261012481013561012088015261016401356101408701526001600160a01b039182166101608701529116610180850152306101a08501529015156101c08401529015156101e090920191909152039082f080156200171457604051620013f78162002167565b60018060a01b0382168152336020820152826040820152604051602081018181106001600160401b0382111762001700576040908152848252606083019190915242608083015260a08083018590526001600160a01b03848116865260046020908152838720855181546001600160a01b03191690841617815590850151600182018054958701516001600160a81b0319909616919093161793151590921b60ff60a01b16929092179091559060608101518051906001600160401b03821162000e9c57620014d982620014cf60028701546200212a565b60028701620024c1565b602090601f831160011462001689578260a0936004959362001511938a9262000eb05750508160011b916000199060031b1c19161790565b60028501555b608081015160038501550151910155600554600160401b8110156200167557806001620015489201600555620020f2565b81546001600160a01b0384811660039390931b83811b91901b19909116179091553b1562000fbd5760405163f2fde38b60e01b81523360048201528281602481836001600160a01b0387165af180156200166a576020935062001658575b50620015fb620015bb6004803501806200253d565b9190620015ed620015d76024600435016004356004016200253d565b919092604051956080875260808701916200251c565b91848303878601526200251c565b60043560440135604083015242606083015233916001600160a01b038416917fc12630d761ddbf18b9530f31d91e67493535a2b635711bcff59fded8bf381cce919081900390a3600180556040516001600160a01b039091168152f35b6200166390620021b5565b38620015a6565b6040513d85823e3d90fd5b634e487b7160e01b83526041600452602483fd5b906002850187526020872091875b601f1985168110620016e75750926004949260019260a09583601f19811610620016cd575b505050811b01600285015562001517565b015160001960f88460031b161c19169055388080620016bc565b9192602060018192868501518155019401920162001697565b634e487b7160e01b85526041600452602485fd5b50604051903d90823e3d90fd5b634e487b7160e01b8a52604160045260248afd5b50346200016b5760203660031901126200016b5760043560035481101562000fbd576200176290620020a4565b9190916200177957620001676200015283620021eb565b634e487b7160e01b81526004819052602490fd5b50346200016b57806003193601126200016b57620017aa620026ca565b8080808060018060a01b038154164790828215620017d9575bf115620017cd5780f35b604051903d90823e3d90fd5b506108fc620017c3565b50346200016b57806003193601126200016b576003546001600160401b038111620018e157906020916040519162001821848360051b0184620021c9565b8183526003815283830191817fc2575a0e9e593c00f959f8c92f12db2869c3395a3b0502d05e2516446f71f85b845b838310620018ba5750505050604051928484019085855251809152604084019460408260051b8601019392955b8287106200188b5785850386f35b909192938280620018a9600193603f198a820301865288516200204d565b96019201960195929190926200187d565b6001888192620018ce859b9a989b620021eb565b8152019201920191909693959662001850565b634e487b7160e01b82526041600452602482fd5b50346200016b57806003193601126200016b5760405180916005549081835260208093018092600583527f036b6384b5eca791c62761152d0c79bb0604c104a5fb6f4eb0703f3154bb3db090835b818110620019a557505050846200195c910385620021c9565b60405193838594850191818652518092526040850193925b8281106200198457505050500390f35b83516001600160a01b03168552869550938101939281019260010162001974565b82546001600160a01b03168452928601926001928301920162001943565b50346200016b5760603660031901126200016b576001600160401b039060043582811162000fbd57620019fb90369060040162002074565b62001a0562002011565b604435801515809103620008ba5762001a1d620026ca565b6040519183858437600284840190815283900360209081019093206001908101546001600160a01b039081161562001cda57808083604051898b823788818b81016002815203019020015416931692830362001bf0575b6040519062001a838262002199565b62001a9036888a620022b8565b8252858201928484526040830192868452604051898b823788818b8101600281520301902090519b8c5190811162001bdc5762001ad38162000d9384546200212a565b889c601f821160011462001b59578162001b319796959493928e9f7ffcc670ef83a2ab18fa316fd1535402582ad1c325995f34b0f96faeb21d0ef9eb9f9362000dd1949262000eb05750508160011b916000199060031b1c19161790565b62001b4a6040519586956060875260608701916200251c565b9284015260408301520390a180f35b828d52898d2060808e90529d90601f1983165b806080511062001bbd579e7ffcc670ef83a2ab18fa316fd1535402582ad1c325995f34b0f96faeb21d0ef9eb9e9f92849287969562001b319b9a9998951062000ef657505050811b01815562000dd4565b9e858c918484015181550192019e8b608051016080529e919e62001b6c565b634e487b7160e01b8c52604160045260248cfd5b60405163c45a015560e01b81528581600481875afa89918162001cb6575b5062001c2f5760405162461bcd60e51b8152806200058f600482016200247c565b8162001c3e91161515620023a0565b6040516315ab88c960e31b81528581600481875afa89918162001c92575b5062001c7d5760405162461bcd60e51b8152806200058f600482016200243a565b8162001c8c91161515620023ed565b62001a74565b62001cae919250873d89116200097e576200096d8183620021c9565b903862001c5c565b62001cd2919250873d89116200097e576200096d8183620021c9565b903862001c0e565b60405162461bcd60e51b815260048101869052600d60248201526c111156081b9bdd08199bdd5b99609a1b6044820152606490fd5b50346200016b5760208060031936011262000fbd57604062001d3062001ff5565b928060a0835162001d418162002167565b8281528581018390528481018390526060808201526080810183905201526001600160a01b03938416815260048352206040519162001d808362002167565b83825416835262001e08600183015482850190868116825260ff604087019160a01c16151581528662001db660028701620021eb565b9260608801938452600460038801549760808a0198895201549560a08901968752604051998a99828b525116908901525116604087015251151560608601525160c0608086015260e08501906200204d565b915160a08401525160c08301520390f35b50346200016b5760203660031901126200016b5762001e37620026ca565b60043560065580f35b50346200016b5760208060031936011262000fbd5762001e5f62001ff5565b62001e6962002673565b6001600160a01b039081168084526004835260408420805490919083160362001fbe576001015490339082160362001f875760a01c60ff1662001f4c5762001eb5476006549062002326565b801562001f11578280808093335af162001ece6200234a565b501562001edd57506001805580f35b6064906040519062461bcd60e51b82526004820152600d60248201526c1499599d5b990819985a5b1959609a1b6044820152fd5b60405162461bcd60e51b81526004810183905260136024820152724e6f20726566756e6420617661696c61626c6560681b6044820152606490fd5b6064906040519062461bcd60e51b825260048201526014602482015273151bdad95b88185b1c9958591e481b1a5cdd195960621b6044820152fd5b60405162461bcd60e51b815260048101839052600f60248201526e2737ba103a37b5b2b71037bbb732b960891b6044820152606490fd5b60405162461bcd60e51b815260048101849052600f60248201526e151bdad95b881b9bdd08199bdd5b99608a1b6044820152606490fd5b600435906001600160a01b03821682036200200c57565b600080fd5b602435906001600160a01b03821682036200200c57565b60005b8381106200203c5750506000910152565b81810151838201526020016200202b565b90602091620020688151809281855285808601910162002028565b601f01601f1916010190565b9181601f840112156200200c578235916001600160401b0383116200200c57602083818601950101116200200c57565b600354811015620020dc5760036000527fc2575a0e9e593c00f959f8c92f12db2869c3395a3b0502d05e2516446f71f85b0190600090565b634e487b7160e01b600052603260045260246000fd5b600554811015620020dc5760056000527f036b6384b5eca791c62761152d0c79bb0604c104a5fb6f4eb0703f3154bb3db00190600090565b90600182811c921680156200215c575b60208310146200214657565b634e487b7160e01b600052602260045260246000fd5b91607f16916200213a565b60c081019081106001600160401b038211176200218357604052565b634e487b7160e01b600052604160045260246000fd5b606081019081106001600160401b038211176200218357604052565b6001600160401b0381116200218357604052565b90601f801991011681019081106001600160401b038211176200218357604052565b9060405191826000825462002200816200212a565b9081845260209460019160018116908160001462002278575060011462002235575b5050506200223392500383620021c9565b565b600090815285812095935091905b8183106200225f57505062002233935082010138808062002222565b8554888401850152948501948794509183019162002243565b925050506200223394925060ff191682840152151560051b82010138808062002222565b6001600160401b0381116200218357601f01601f191660200190565b929192620022c6826200229c565b91620022d66040519384620021c9565b8294818452818301116200200c578281602093846000960137010152565b60405190604082018281106001600160401b03821117620021835760405260058252640322e322e360dc1b6020830152565b919082039182116200233457565b634e487b7160e01b600052601160045260246000fd5b3d156200237a573d906200235e826200229c565b916200236e6040519384620021c9565b82523d6000602084013e565b606090565b908160209103126200200c57516001600160a01b03811681036200200c5790565b15620023a857565b60405162461bcd60e51b815260206004820152601a60248201527f496e76616c696420726f757465723a206e6f20666163746f72790000000000006044820152606490fd5b15620023f557565b60405162461bcd60e51b815260206004820152601760248201527f496e76616c696420726f757465723a206e6f20574554480000000000000000006044820152606490fd5b60809060208152602160208201527f496e76616c696420726f757465723a205745544820636865636b206661696c656040820152601960fa1b60608201520190565b60809060208152602460208201527f496e76616c696420726f757465723a20666163746f727920636865636b2066616040820152631a5b195960e21b60608201520190565b90601f8111620024d057505050565b6000916000526020600020906020601f850160051c8301941062002511575b601f0160051c01915b8281106200250557505050565b818155600101620024f8565b9092508290620024ef565b908060209392818452848401376000828201840152601f01601f1916010190565b903590601e19813603018212156200200c57018035906001600160401b0382116200200c576020019181360383136200200c57565b3580151581036200200c5790565b356001600160a01b03811681036200200c5790565b9092916001600160401b0381116200218357620025b88162000d9384546200212a565b6000601f8211600114620025fc578190620025ec939495600092620025f05750508160011b916000199060031b1c19161790565b9055565b01359050388062000dbc565b601f19821694838252602091602081209281905b8882106200264c5750508360019596971062002631575b505050811b019055565b0135600019600384901b60f8161c1916905538808062002627565b8060018496829495870135815501950192019062002610565b919082018092116200233457565b60026001541462002685576002600155565b60405162461bcd60e51b815260206004820152601f60248201527f5265656e7472616e637947756172643a207265656e7472616e742063616c6c006044820152606490fd5b6000546001600160a01b03163303620026df57565b606460405162461bcd60e51b815260206004820152602060248201527f4f776e61626c653a2063616c6c6572206973206e6f7420746865206f776e65726044820152fdfe60406080815234620009135762002612803803806200001e8162000918565b928339810161020082820312620009135781516001600160401b0381116200091357816200004e9184016200093e565b602083015190916001600160401b0382116200091357620000719184016200093e565b908383015190606084015160808501516200008f60a08701620009b0565b9260c087015196620000a460e08201620009be565b97610100820151906101208301519961014084015191620000c96101608601620009be565b96620000d96101808701620009be565b98620000e96101a08801620009be565b9c620001086101e0620001006101c08b01620009b0565b9901620009b0565b895190996001600160401b038211620007e55760035490600182811c9216801562000908575b6020831014620007c45781601f84931162000896575b50602090601f83116001146200080757600092620007fb575b50508160011b916000199060031b1c1916176003555b8051906001600160401b038211620007e55760045490600182811c92168015620007da575b6020831014620007c45781601f8493116200074f575b50602090601f8311600114620006c057600092620006b4575b50508160011b916000199060031b1c1916176004555b620001e83362000a87565b60016006558b1562000664578b811162000606578b8211620005ad5760196200021e8f6200021888918a620009d3565b620009d3565b1162000569576001600160a01b0389161562000515576001600160a01b038a1615620004bf576001600160a01b038d16156200046657600955600a556007805499151560ff1660ff199a8b16179055600855600b80546001600160a01b03199081166001600160a01b03938416908117909255600d94909455600e9b909b55600f919091556010805483169582169586179055601180549092169581169586179091556012805492151560a01b60ff60a01b166001600160b01b03199093169189169182179290921792151560a81b60ff60a81b16929092179055336000908152601360205288812080548616600190811790915530825289822080548716821790559281528881208054861684179055928352878320805485168317905582528682208054841682179055858252908690208054909216179055601481810290828204900362000450576064900490818103908111620004505762000389620003909284620009e1565b33620009e1565b811562000401576001600160a01b03166000818152600160209081528482208483528152908490206000199081905584519081527f8c5be1e5ebec7d5bd14f71427d1e84f3dd0314c0f7b2291e5b200ac8c7c3b9259190a3620003f33362000a87565b51611b41908162000ad18239f35b825162461bcd60e51b815260206004820152602260248201527f45524332303a20617070726f766520746f20746865207a65726f206164647265604482015261737360f01b6064820152608490fd5b634e487b7160e01b600052601160045260246000fd5b8e5162461bcd60e51b815260206004820152602c60248201527f4175746f2d6c69717569646974792077616c6c65742063616e6e6f742062652060448201526b7a65726f206164647265737360a01b6064820152608490fd5b8e5162461bcd60e51b815260206004820152602960248201527f446576656c6f706d656e742077616c6c65742063616e6e6f74206265207a65726044820152686f206164647265737360b81b6064820152608490fd5b8e5162461bcd60e51b815260206004820152602760248201527f4d61726b6574696e672077616c6c65742063616e6e6f74206265207a65726f206044820152666164647265737360c81b6064820152608490fd5b8e5162461bcd60e51b815260206004820152601c60248201527f546f74616c20666565732063616e6e6f742065786365656420323525000000006044820152606490fd5b8e5162461bcd60e51b815260206004820152602c60248201527f4d61782077616c6c657420616d6f756e742063616e6e6f74206578636565642060448201526b746f74616c20737570706c7960a01b6064820152608490fd5b8e5162461bcd60e51b815260206004820152603160248201527f4d6178207472616e73616374696f6e20616d6f756e742063616e6e6f742065786044820152706365656420746f74616c20737570706c7960781b6064820152608490fd5b8e5162461bcd60e51b815260206004820152602360248201527f546f74616c20737570706c79206d75737420626520677265617465722074686160448201526206e20360ec1b6064820152608490fd5b015190503880620001c7565b6004600090815293507f8a35acfbc15ff81a39ae7d344fd709f28e8600b4aa8c65c6b64bfe7fe36bd19b91905b601f198416851062000733576001945083601f1981161062000719575b505050811b01600455620001dd565b015160001960f88460031b161c191690553880806200070a565b81810151835560209485019460019093019290910190620006ed565b60046000529091507f8a35acfbc15ff81a39ae7d344fd709f28e8600b4aa8c65c6b64bfe7fe36bd19b601f840160051c81019160208510620007b9575b90601f859493920160051c01905b818110620007a95750620001ae565b600081558493506001016200079a565b90915081906200078c565b634e487b7160e01b600052602260045260246000fd5b91607f169162000198565b634e487b7160e01b600052604160045260246000fd5b0151905038806200015d565b6003600090815293507fc2575a0e9e593c00f959f8c92f12db2869c3395a3b0502d05e2516446f71f85b91905b601f19841685106200087a576001945083601f1981161062000860575b505050811b0160035562000173565b015160001960f88460031b161c1916905538808062000851565b8181015183556020948501946001909301929091019062000834565b60036000529091507fc2575a0e9e593c00f959f8c92f12db2869c3395a3b0502d05e2516446f71f85b601f840160051c81016020851062000900575b90849392915b601f830160051c82018110620008f057505062000144565b60008155859450600101620008d8565b5080620008d2565b91607f16916200012e565b600080fd5b6040519190601f01601f191682016001600160401b03811183821017620007e557604052565b919080601f84011215620009135782516001600160401b038111620007e55760209062000974601f8201601f1916830162000918565b92818452828287010111620009135760005b8181106200099c57508260009394955001015290565b858101830151848201840152820162000986565b519081151582036200091357565b51906001600160a01b03821682036200091357565b919082018092116200045057565b6001600160a01b031690811562000a42577fddf252ad1be2c89b69c2b068fc378daa952ba7f163c4a11628f55a4df523b3ef60208262000a26600094600254620009d3565b60025584845283825260408420818154019055604051908152a3565b60405162461bcd60e51b815260206004820152601f60248201527f45524332303a206d696e7420746f20746865207a65726f2061646472657373006044820152606490fd5b600580546001600160a01b039283166001600160a01b0319821681179092559091167f8be0079c531659141344cd1fd0a4f28419497f9722a3daafe3b4186f6b6457e0600080a356fe608060408181526004918236101561001657600080fd5b600092833560e01c91826306fdde0314611080575081630758d92414611057578163095ea7b31461102d5781630c439f9314611004578163153b0d1e14610f7257816318160ddd14610f5357816323b872dd14610e8957816327a14fc214610e225781632bf2b11b14610dfb578163313ce56714610ddf5781633950935114610d8f5781633dfc97e114610d4d5781634ada218b14610d295781635e29879014610d0a578163606e1b8114610ced57816370a0823114610caa57816370b7b80c14610c8b578163715018a614610c2e57816375cb1bd114610b5657816375f0a87414610b2d57816380ada68a14610b0e5781638187f51614610a2f57816381f5a25b146109ed5781638a8c523c146109365781638c0b5e22146109175781638da5cb5b146108ee57816395d89b41146107e95781639e4e7318146107ae5781639f7b0ed514610759578163a457c2d7146106b1578163a9059cbb14610680578163aa4bde2814610661578163bcc178fd1461063a578163c04a541414610611578163c0d7865514610530578163c1a68121146104f2578163dd62ed3e146104a9578163de37610e1461048a578163e9dae5ed146103bf578163ec28438a14610358578163f242ab411461032f578163f2fde38b1461026457508063fe575a87146102275763ffa1ad741461020957600080fd5b346102235781600319360112610223576020905160028152f35b5080fd5b50346102235760203660031901126102235760209160ff9082906001600160a01b036102516111be565b1681526014855220541690519015158152f35b90503461032b57602036600319011261032b5761027f6111be565b9061028861144a565b6001600160a01b039182169283156102d9575050600554826001600160601b0360a01b821617600555167f8be0079c531659141344cd1fd0a4f28419497f9722a3daafe3b4186f6b6457e08380a380f35b906020608492519162461bcd60e51b8352820152602660248201527f4f776e61626c653a206e6577206f776e657220697320746865207a65726f206160448201526564647265737360d01b6064820152fd5b8280fd5b505034610223578160031936011261022357600c5490516001600160a01b039091168152602090f35b90503461032b57602036600319011261032b577f947f344d56e1e8c70dc492fb94c4ddddd490c016aab685f5e7e47b2e85cb44cf91602091359061039a61144a565b6103a5821515611283565b6103b36002548311156112cf565b8160095551908152a180f35b8391503461022357606036600319011261022357803560243590604435926103e561144a565b60196103fa856103f58686611325565b611325565b11610447575061043e7f08a9cbb7bd5bab504d3fc44931790235ee0c3011feecaa62967a37e3f934146b936103f5602094848995600d5581600e5583600f55611325565b9051908152a180f35b606490602087519162461bcd60e51b8352820152601c60248201527f546f74616c20666565732063616e6e6f742065786365656420323525000000006044820152fd5b505034610223578160031936011261022357602090600f549051908152f35b505034610223578060031936011261022357806020926104c76111be565b6104cf6111d9565b6001600160a01b0391821683526001865283832091168252845220549051908152f35b5050346102235760203660031901126102235760209160ff9082906001600160a01b0361051d6111be565b1681526013855220541690519015158152f35b90503461032b57602036600319011261032b5761054b6111be565b6012546001600160a01b039190821633036105ce57600b549282841661059657501680916001600160601b0360a01b1617600b55825260136020528120600160ff1982541617905580f35b606490602086519162461bcd60e51b83528201526012602482015271149bdd5d195c88185b1c9958591e481cd95d60721b6044820152fd5b835162461bcd60e51b8152602081850152601b60248201527f4f6e6c7920666163746f72792063616e2073657420726f7574657200000000006044820152606490fd5b50503461022357816003193601126102235760115490516001600160a01b039091168152602090f35b50503461022357816003193601126102235760209060ff60125460a81c1690519015158152f35b505034610223578160031936011261022357602090600a549051908152f35b5050346102235780600319360112610223576020906106aa6106a06111be565b60243590336114b5565b5160018152f35b905082346107565782600319360112610756576106cc6111be565b918360243592338152600160205281812060018060a01b0386168252602052205490828210610705576020856106aa8585038733611348565b608490602086519162461bcd60e51b8352820152602560248201527f45524332303a2064656372656173656420616c6c6f77616e63652062656c6f77604482015264207a65726f60d81b6064820152fd5b80fd5b5050346102235780600319360112610223576107ab906107776111be565b906107806111ef565b9161078961144a565b60018060a01b03168452601360205283209060ff801983541691151516179055565b80f35b505034610223578160031936011261022357602090517f97831d354a6f8b80f2034ecb74ded90addda670141f845b47bcbb8c109be18a28152f35b83833461022357816003193601126102235780519180938054916001908360011c92600185169485156108e4575b60209586861081146108d1578589529081156108ad5750600114610855575b6108518787610847828c038361120d565b5191829182611175565b0390f35b81529295507f8a35acfbc15ff81a39ae7d344fd709f28e8600b4aa8c65c6b64bfe7fe36bd19b5b82841061089a57505050826108519461084792820101948680610836565b805486850188015292860192810161087c565b60ff19168887015250505050151560051b8301019250610847826108518680610836565b634e487b7160e01b845260228352602484fd5b93607f1693610817565b50503461022357816003193601126102235760055490516001600160a01b039091168152602090f35b5050346102235781600319360112610223576020906009549051908152f35b90503461032b578260031936011261032b5761095061144a565b6007549060ff82166109aa575060ff19166001176007556008547fb3da2db3dfc3778f99852546c6e9ab39ec253f9de7b0847afec61bd27878e92391602091156109a1575b6008549051908152a180f35b42600855610995565b606490602084519162461bcd60e51b8352820152601760248201527f54726164696e6720616c726561647920656e61626c65640000000000000000006044820152fd5b833461075657602036600319011261075657610a076111fe565b610a0f61144a565b6012805460ff60a01b191691151560a01b60ff60a01b1691909117905580f35b90503461032b57602036600319011261032b57610a4a6111be565b6012546001600160a01b03919082163303610acb57600c5492828416610a9557501680916001600160601b0360a01b1617600c55825260136020528120600160ff1982541617905580f35b606490602086519162461bcd60e51b8352820152601060248201526f14185a5c88185b1c9958591e481cd95d60821b6044820152fd5b835162461bcd60e51b8152602081850152601960248201527f4f6e6c7920666163746f72792063616e207365742070616972000000000000006044820152606490fd5b505034610223578160031936011261022357602090600d549051908152f35b50503461022357816003193601126102235760105490516001600160a01b039091168152602090f35b50503461022357606036600319011261022357610b716111be565b610b796111d9565b916001600160a01b03906044358281169190829003610c2a577f2d4c6aa48812a0ea09474a961613c1a3ae652d39a1580cb1ac46ff277e6d385d948284606096610bc161144a565b169485151580610c1f575b80610c16575b610bdb90611245565b6001600160601b0360a01b9286846010541617601055169182816011541617601155601254161760125581519384526020840152820152a180f35b50811515610bd2565b508083161515610bcc565b8580fd5b8334610756578060031936011261075657610c4761144a565b600580546001600160a01b0319811690915581906001600160a01b03167f8be0079c531659141344cd1fd0a4f28419497f9722a3daafe3b4186f6b6457e08280a380f35b5050346102235781600319360112610223576020906008549051908152f35b50503461022357602036600319011261022357602090610ce6610ccb6111be565b6001600160a01b031660009081526020819052604090205490565b9051908152f35b505034610223578160031936011261022357602090516103e88152f35b505034610223578160031936011261022357602090600e549051908152f35b50503461022357816003193601126102235760209060ff6007541690519015158152f35b833461075657602036600319011261075657610d676111fe565b610d6f61144a565b6012805460ff60a81b191691151560a81b60ff60a81b1691909117905580f35b5050346102235780600319360112610223576106aa602092610dd8610db26111be565b338352600186528483206001600160a01b03821684528652918490205460243590611325565b9033611348565b5050346102235781600319360112610223576020905160128152f35b50503461022357816003193601126102235760209060ff60125460a01c1690519015158152f35b90503461032b57602036600319011261032b577f4b39c36d20c57d220f61fd25c4349d4435cc03ef6c2a680942f15333c3c3e001916020913590610e6461144a565b610e6f821515611283565b610e7d6002548311156112cf565b81600a5551908152a180f35b8391503461022357606036600319011261022357610ea56111be565b610ead6111d9565b91846044359460018060a01b038416815260016020528181203382526020522054906000198203610ee7575b6020866106aa8787876114b5565b848210610f105750918391610f05602096956106aa95033383611348565b919394819350610ed9565b606490602087519162461bcd60e51b8352820152601d60248201527f45524332303a20696e73756666696369656e7420616c6c6f77616e63650000006044820152fd5b5050346102235781600319360112610223576020906002549051908152f35b5050346102235780600319360112610223577f6a12b3df6cba4203bd7fd06b816789f87de8c594299aed5717ae070fac781bac90610fae6111be565b610fb66111ef565b90610fbf61144a565b6001600160a01b031690610fd4821515611245565b8185526014602052610ff4818487209060ff801983541691151516179055565b825191825215156020820152a180f35b50503461022357816003193601126102235760125490516001600160a01b039091168152602090f35b5050346102235780600319360112610223576020906106aa61104d6111be565b6024359033611348565b505034610223578160031936011261022357600b5490516001600160a01b039091168152602090f35b92915034611171578360031936011261117157600354600181811c9186908281168015611167575b6020958686108214611154575084885290811561113257506001146110d9575b6108518686610847828b038361120d565b929550600383527fc2575a0e9e593c00f959f8c92f12db2869c3395a3b0502d05e2516446f71f85b5b82841061111f5750505082610851946108479282010194386110c8565b8054868501880152928601928101611102565b60ff191687860152505050151560051b830101925061084782610851386110c8565b634e487b7160e01b845260229052602483fd5b93607f16936110a8565b8380fd5b6020808252825181830181905290939260005b8281106111aa57505060409293506000838284010152601f8019910116010190565b818101860151848201604001528501611188565b600435906001600160a01b03821682036111d457565b600080fd5b602435906001600160a01b03821682036111d457565b6024359081151582036111d457565b6004359081151582036111d457565b90601f8019910116810190811067ffffffffffffffff82111761122f57604052565b634e487b7160e01b600052604160045260246000fd5b1561124c57565b60405162461bcd60e51b815260206004820152600f60248201526e496e76616c6964206164647265737360881b6044820152606490fd5b1561128a57565b60405162461bcd60e51b815260206004820152601d60248201527f416d6f756e74206d7573742062652067726561746572207468616e20300000006044820152606490fd5b156112d657565b60405162461bcd60e51b815260206004820152602160248201527f416d6f756e742063616e6e6f742065786365656420746f74616c20737570706c6044820152607960f81b6064820152608490fd5b9190820180921161133257565b634e487b7160e01b600052601160045260246000fd5b6001600160a01b039081169182156113f957169182156113a95760207f8c5be1e5ebec7d5bd14f71427d1e84f3dd0314c0f7b2291e5b200ac8c7c3b925918360005260018252604060002085600052825280604060002055604051908152a3565b60405162461bcd60e51b815260206004820152602260248201527f45524332303a20617070726f766520746f20746865207a65726f206164647265604482015261737360f01b6064820152608490fd5b60405162461bcd60e51b8152602060048201526024808201527f45524332303a20617070726f76652066726f6d20746865207a65726f206164646044820152637265737360e01b6064820152608490fd5b6005546001600160a01b0316330361145e57565b606460405162461bcd60e51b815260206004820152602060248201527f4f776e61626c653a2063616c6c6572206973206e6f7420746865206f776e65726044820152fd5b8181029291811591840414171561133257565b919060018060a01b03928381166000948186526020906014825260ff60409381858a205416158061198b575b15611951578089526013845281858a2054168015611940575b8015611923575b6119145781600754168015611907575b80156118f8575b156118be5760085480611878575b5060095480611828575b50600a5480151580611812575b6117ae575b5082600c5416808489161480156117a5575b61156b575b505050505050611569935061199d565b565b811480928193611796575b8115611776575b50611589575b80611559565b6064611597600d548a6114a2565b0460646115a6600e548b6114a2565b049160646115b6600f548c6114a2565b04956115c6876103f58686611325565b91826115d55750505050611583565b8c9b949699979a9395989b528b8152838b8d205410611729575082039182116117155790611603918561199d565b80611700575b50806116eb575b508361161f575b505050505050565b8361162f9184601254169061199d565b15806116bf575b611642575b8080611617565b6012541690813b15611171578391604483928551968793849263d3f2036b60e01b845230600485015260011c60248401525af180156116b357611686575b8061163b565b67ffffffffffffffff831161169f575052388080611680565b634e487b7160e01b81526041600452602490fd5b509051903d90823e3d90fd5b506103e86116e4826012541660018060a01b0316600052600060205260406000205490565b1015611636565b6116fa9084601154168361199d565b38611610565b61170f9085601054168461199d565b38611609565b634e487b7160e01b8a52601160045260248afd5b6084908b519062461bcd60e51b82526004820152602160248201527f496e73756666696369656e742062616c616e636520666f72207472616e7366656044820152603960f91b6064820152fd5b8315915081611787575b503861157d565b905060125460a81c1638611780565b60125460a01c81169150611576565b50808214611554565b8388168a528985526117c389878c2054611325565b116117ce5738611542565b845162461bcd60e51b815260048101859052601960248201527f45786365656473206d61782077616c6c657420616d6f756e74000000000000006044820152606490fd5b508388168a526013855282868b2054161561153d565b88116118345738611530565b845162461bcd60e51b815260048101859052601e60248201527f45786365656473206d6178207472616e73616374696f6e20616d6f756e7400006044820152606490fd5b42106118845738611526565b845162461bcd60e51b8152600481018590526013602482015272151c98591a5b99c81b9bdd081cdd185c9d1959606a1b6044820152606490fd5b845162461bcd60e51b8152600481018590526013602482015272151c98591a5b99c81b9bdd08195b98589b1959606a1b6044820152606490fd5b50826005541683881614611518565b5082600554168114611511565b5050505050611569935061199d565b508260055416811480156115015750826012541683881614611501565b50828716895281858a2054166114fa565b845162461bcd60e51b8152600481018590526013602482015272426c61636b6c6973746564206164647265737360681b6044820152606490fd5b50828716895281858a205416156114e1565b6001600160a01b03908116918215611ab85716918215611a6757600082815280602052604081205491808310611a1357604082827fddf252ad1be2c89b69c2b068fc378daa952ba7f163c4a11628f55a4df523b3ef958760209652828652038282205586815220818154019055604051908152a3565b60405162461bcd60e51b815260206004820152602660248201527f45524332303a207472616e7366657220616d6f756e7420657863656564732062604482015265616c616e636560d01b6064820152608490fd5b60405162461bcd60e51b815260206004820152602360248201527f45524332303a207472616e7366657220746f20746865207a65726f206164647260448201526265737360e81b6064820152608490fd5b60405162461bcd60e51b815260206004820152602560248201527f45524332303a207472616e736665722066726f6d20746865207a65726f206164604482015264647265737360d81b6064820152608490fdfea2646970667358221220fcdfcdb42675a673fac17e00df72106a54fd5ebdfa0d56d314b7044add66eb6364736f6c63430008160033a264697066735822122023bd4fd8a779b36e576ced7f075c2b21eb190c93c55445f77afcf33d651c4a6a64736f6c63430008160033",
  "linkReferences": {},
  "deployedLinkReferences": {}
}