{
  "_format": "hh-sol-artifact-1",
  "contractName": "TokenFactory_v2_Make",
  "sourceName": "src/contracts/TokenFactory_v2_Make.sol",
  "abi": [
    {
      "inputs": [
        {
          "internalType": "uint256",
          "name": "_creationFee",
          "type": "uint256"
        }
      ],
      "stateMutability": "nonpayable",
      "type": "constructor"
    },
    {
      "inputs": [
        {
          "internalType": "uint256",
          "name": "totalFees",
          "type": "uint256"
        }
      ],
      "name": "InvalidFeeConfiguration",
      "type": "error"
    },
    {
      "inputs": [
        {
          "internalType": "uint256",
          "name": "maxTx",
          "type": "uint256"
        },
        {
          "internalType": "uint256",
          "name": "totalSupply",
          "type": "uint256"
        }
      ],
      "name": "InvalidMaxTxAmount",
      "type": "error"
    },
    {
      "inputs": [
        {
          "internalType": "uint256",
          "name": "maxWallet",
          "type": "uint256"
        },
        {
          "internalType": "uint256",
          "name": "totalSupply",
          "type": "uint256"
        }
      ],
      "name": "InvalidMaxWalletAmount",
      "type": "error"
    },
    {
      "inputs": [
        {
          "internalType": "string",
          "name": "name",
          "type": "string"
        }
      ],
      "name": "InvalidTokenName",
      "type": "error"
    },
    {
      "inputs": [
        {
          "internalType": "uint256",
          "name": "supply",
          "type": "uint256"
        }
      ],
      "name": "InvalidTokenSupply",
      "type": "error"
    },
    {
      "inputs": [
        {
          "internalType": "string",
          "name": "symbol",
          "type": "string"
        }
      ],
      "name": "InvalidTokenSymbol",
      "type": "error"
    },
    {
      "inputs": [
        {
          "internalType": "uint256",
          "name": "startTime",
          "type": "uint256"
        }
      ],
      "name": "InvalidTradingStartTime",
      "type": "error"
    },
    {
      "inputs": [
        {
          "internalType": "address",
          "name": "wallet",
          "type": "address"
        }
      ],
      "name": "InvalidWalletAddress",
      "type": "error"
    },
    {
      "anonymous": false,
      "inputs": [
        {
          "indexed": true,
          "internalType": "address",
          "name": "previousOwner",
          "type": "address"
        },
        {
          "indexed": true,
          "internalType": "address",
          "name": "newOwner",
          "type": "address"
        }
      ],
      "name": "OwnershipTransferred",
      "type": "event"
    },
    {
      "anonymous": false,
      "inputs": [
        {
          "indexed": true,
          "internalType": "address",
          "name": "token",
          "type": "address"
        },
        {
          "indexed": true,
          "internalType": "address",
          "name": "owner",
          "type": "address"
        },
        {
          "indexed": false,
          "internalType": "string",
          "name": "name",
          "type": "string"
        },
        {
          "indexed": false,
          "internalType": "string",
          "name": "symbol",
          "type": "string"
        },
        {
          "indexed": false,
          "internalType": "uint256",
          "name": "totalSupply",
          "type": "uint256"
        },
        {
          "indexed": false,
          "internalType": "uint256",
          "name": "creationTime",
          "type": "uint256"
        }
      ],
      "name": "TokenCreated",
      "type": "event"
    },
    {
      "inputs": [],
      "name": "MAX_NAME_LENGTH",
      "outputs": [
        {
          "internalType": "uint256",
          "name": "",
          "type": "uint256"
        }
      ],
      "stateMutability": "view",
      "type": "function"
    },
    {
      "inputs": [],
      "name": "MAX_SYMBOL_LENGTH",
      "outputs": [
        {
          "internalType": "uint256",
          "name": "",
          "type": "uint256"
        }
      ],
      "stateMutability": "view",
      "type": "function"
    },
    {
      "inputs": [],
      "name": "MAX_TOTAL_FEES",
      "outputs": [
        {
          "internalType": "uint256",
          "name": "",
          "type": "uint256"
        }
      ],
      "stateMutability": "view",
      "type": "function"
    },
    {
      "inputs": [],
      "name": "MAX_TOTAL_SUPPLY",
      "outputs": [
        {
          "internalType": "uint256",
          "name": "",
          "type": "uint256"
        }
      ],
      "stateMutability": "view",
      "type": "function"
    },
    {
      "inputs": [],
      "name": "MIN_TOTAL_SUPPLY",
      "outputs": [
        {
          "internalType": "uint256",
          "name": "",
          "type": "uint256"
        }
      ],
      "stateMutability": "view",
      "type": "function"
    },
    {
      "inputs": [],
      "name": "VERSION",
      "outputs": [
        {
          "internalType": "string",
          "name": "",
          "type": "string"
        }
      ],
      "stateMutability": "view",
      "type": "function"
    },
    {
      "inputs": [
        {
          "internalType": "uint256",
          "name": "",
          "type": "uint256"
        }
      ],
      "name": "allTokens",
      "outputs": [
        {
          "internalType": "address",
          "name": "",
          "type": "address"
        }
      ],
      "stateMutability": "view",
      "type": "function"
    },
    {
      "inputs": [
        {
          "components": [
            {
              "internalType": "string",
              "name": "name",
              "type": "string"
            },
            {
              "internalType": "string",
              "name": "symbol",
              "type": "string"
            },
            {
              "internalType": "uint256",
              "name": "totalSupply",
              "type": "uint256"
            },
            {
              "internalType": "uint256",
              "name": "maxTxAmount",
              "type": "uint256"
            },
            {
              "internalType": "uint256",
              "name": "maxWalletAmount",
              "type": "uint256"
            },
            {
              "internalType": "bool",
              "name": "enableTrading",
              "type": "bool"
            },
            {
              "internalType": "uint256",
              "name": "tradingStartTime",
              "type": "uint256"
            },
            {
              "internalType": "uint256",
              "name": "marketingFeePercentage",
              "type": "uint256"
            },
            {
              "internalType": "address",
              "name": "marketingWallet",
              "type": "address"
            },
            {
              "internalType": "uint256",
              "name": "developmentFeePercentage",
              "type": "uint256"
            },
            {
              "internalType": "address",
              "name": "developmentWallet",
              "type": "address"
            },
            {
              "internalType": "uint256",
              "name": "autoLiquidityFeePercentage",
              "type": "uint256"
            },
            {
              "internalType": "bool",
              "name": "enableBuyFees",
              "type": "bool"
            },
            {
              "internalType": "bool",
              "name": "enableSellFees",
              "type": "bool"
            }
          ],
          "internalType": "struct TokenFactory_v2_Make.TokenCreationParams",
          "name": "params",
          "type": "tuple"
        }
      ],
      "name": "createToken",
      "outputs": [
        {
          "internalType": "address",
          "name": "",
          "type": "address"
        }
      ],
      "stateMutability": "payable",
      "type": "function"
    },
    {
      "inputs": [],
      "name": "creationFee",
      "outputs": [
        {
          "internalType": "uint256",
          "name": "",
          "type": "uint256"
        }
      ],
      "stateMutability": "view",
      "type": "function"
    },
    {
      "inputs": [],
      "name": "getAllTokens",
      "outputs": [
        {
          "internalType": "address[]",
          "name": "",
          "type": "address[]"
        }
      ],
      "stateMutability": "view",
      "type": "function"
    },
    {
      "inputs": [],
      "name": "getCreationFee",
      "outputs": [
        {
          "internalType": "uint256",
          "name": "",
          "type": "uint256"
        }
      ],
      "stateMutability": "view",
      "type": "function"
    },
    {
      "inputs": [
        {
          "internalType": "address",
          "name": "token",
          "type": "address"
        }
      ],
      "name": "getTokenCreator",
      "outputs": [
        {
          "internalType": "address",
          "name": "",
          "type": "address"
        }
      ],
      "stateMutability": "view",
      "type": "function"
    },
    {
      "inputs": [
        {
          "internalType": "address",
          "name": "user",
          "type": "address"
        }
      ],
      "name": "getUserCreatedTokens",
      "outputs": [
        {
          "internalType": "address[]",
          "name": "",
          "type": "address[]"
        }
      ],
      "stateMutability": "view",
      "type": "function"
    },
    {
      "inputs": [
        {
          "internalType": "address",
          "name": "token",
          "type": "address"
        },
        {
          "internalType": "address",
          "name": "user",
          "type": "address"
        }
      ],
      "name": "isTokenCreator",
      "outputs": [
        {
          "internalType": "bool",
          "name": "",
          "type": "bool"
        }
      ],
      "stateMutability": "view",
      "type": "function"
    },
    {
      "inputs": [],
      "name": "owner",
      "outputs": [
        {
          "internalType": "address",
          "name": "",
          "type": "address"
        }
      ],
      "stateMutability": "view",
      "type": "function"
    },
    {
      "inputs": [],
      "name": "renounceOwnership",
      "outputs": [],
      "stateMutability": "nonpayable",
      "type": "function"
    },
    {
      "inputs": [
        {
          "internalType": "uint256",
          "name": "_newFee",
          "type": "uint256"
        }
      ],
      "name": "setCreationFee",
      "outputs": [],
      "stateMutability": "nonpayable",
      "type": "function"
    },
    {
      "inputs": [
        {
          "internalType": "address",
          "name": "",
          "type": "address"
        }
      ],
      "name": "tokenCreator",
      "outputs": [
        {
          "internalType": "address",
          "name": "",
          "type": "address"
        }
      ],
      "stateMutability": "view",
      "type": "function"
    },
    {
      "inputs": [
        {
          "internalType": "address",
          "name": "newOwner",
          "type": "address"
        }
      ],
      "name": "transferOwnership",
      "outputs": [],
      "stateMutability": "nonpayable",
      "type": "function"
    },
    {
      "inputs": [],
      "name": "withdrawFees",
      "outputs": [],
      "stateMutability": "nonpayable",
      "type": "function"
    }
  ],
  "bytecode": "0x60803461009b57601f6136d438819003918201601f19168301916001600160401b038311848410176100a05780849260209460405283398101031261009b575160008054336001600160a01b0319821681178355604051939290916001600160a01b0316907f8be0079c531659141344cd1fd0a4f28419497f9722a3daafe3b4186f6b6457e09080a36001805560045561361d90816100b78239f35b600080fd5b634e487b7160e01b600052604160045260246000fdfe60808060405260043610156200001457600080fd5b60003560e01c90816323774af21462000dc0575080632a5c792a1462000d2857806333039d3d1462000cff578063476343ee1462000cb15780635066a842146200061c5780635122c40914620005f6578063634282af14620005af578063715018a614620005525780638607498514620005355780638da5cb5b146200050a578063ae6862ff14620004ba578063b7d862251462000495578063c00be1a01462000330578063c3a1ed481462000312578063c78418b914620002d3578063db07b68e14620002b3578063dce0b4e414620002b3578063e3d891711462000295578063f2fde38b14620001c55763ffa1ad74146200011057600080fd5b34620001c0576000366003190112620001c0576040516040810181811067ffffffffffffffff821117620001aa5760405260058152602090640322e302e360dc1b60208201526040518092602082528251908160208401526000935b82851062000190575050604092506000838284010152601f80199101168101030190f35b84810182015186860160400152938101938593506200016c565b634e487b7160e01b600052604160045260246000fd5b600080fd5b34620001c0576020366003190112620001c057620001e262000dfc565b620001ec62000f6e565b6001600160a01b039081169081156200024157600054826bffffffffffffffffffffffff60a01b821617600055167f8be0079c531659141344cd1fd0a4f28419497f9722a3daafe3b4186f6b6457e0600080a3005b60405162461bcd60e51b815260206004820152602660248201527f4f776e61626c653a206e6577206f776e657220697320746865207a65726f206160448201526564647265737360d01b6064820152608490fd5b34620001c0576000366003190112620001c057602060405160088152f35b34620001c0576000366003190112620001c0576020600454604051908152f35b34620001c0576020366003190112620001c05760206001600160a01b0380620002fb62000dfc565b166000526002825260406000205416604051908152f35b34620001c0576000366003190112620001c057602060405160198152f35b34620001c057602080600319360112620001c0576200034e62000dfc565b6003805460009290916001600160a01b039182169190845b8481106200044b57506200037a8562000f55565b946200038a604051968762000e92565b8086526200039b601f199162000f55565b0136602087013760009260005b858110620003c45760405180620003c0898262000e13565b0390f35b83620003d08262000e5a565b905490851b1c166000526002885281846040600020541614620003f7575b600101620003a8565b9383620004048662000e5a565b905490851b1c1687518210156200043557816200042c918a60019460051b8b01015262000f2f565b949050620003ee565b634e487b7160e01b600052603260045260246000fd5b82620004578262000e5a565b905490841b1c1660005260028752838360406000205416146200047e575b60010162000366565b946200048c60019162000f2f565b95905062000475565b34620001c0576020366003190112620001c057620004b262000f6e565b600480359055005b34620001c0576040366003190112620001c057620004d762000dfc565b6024356001600160a01b0381811691829003620001c0578060209316600052600283526040600020541614604051908152f35b34620001c0576000366003190112620001c0576000546040516001600160a01b039091168152602090f35b34620001c0576000366003190112620001c0576020604051818152f35b34620001c0576000366003190112620001c0576200056f62000f6e565b600080546001600160a01b0319811682556001600160a01b03167f8be0079c531659141344cd1fd0a4f28419497f9722a3daafe3b4186f6b6457e08280a3005b34620001c0576020366003190112620001c057600435600354811015620001c057620005dd60209162000e5a565b905460405160039290921b1c6001600160a01b03168152f35b34620001c0576000366003190112620001c0576020604051683635c9adc5dea000008152f35b600319602036820112620001c05767ffffffffffffffff60043511620001c0576101c09060043536030112620001c05760026001541462000c6c576002600155600454341062000c27576200067660048035018062000eb5565b905015801562000c0b575b62000bd5576200069c60246004350160043560040162000eb5565b905015801562000bb3575b62000b7357683635c9adc5dea000006044600435013510801562000b57575b62000b3a576064600435013515801562000b24575b62000afc576084600435013515801562000ae6575b62000abe574260c460043501351062000aa1576200072f62000720610124600435013560e4600435013562000fc7565b61016460043501359062000fc7565b6019811162000a89576001600160a01b03620007516004356101040162000ef9565b1615801562000a67575b62000a4e576200077060048035018062000eb5565b6200078660246004350160043560040162000eb5565b92906200079860a46004350162000eeb565b91620007aa6101046004350162000ef9565b620007bb6101446004350162000ef9565b90620007cd6101846004350162000eeb565b92620007df6101a46004350162000eeb565b94604051988961261281011067ffffffffffffffff6126128c011117620001aa57620008276200083e938b9a61261262000fd68d396102006126128d01818152019162000f0e565b916126128a01830360206126128c01015262000f0e565b600435604481013561261289016040810191909152606482013560608201526084820135608082015296151560a088015260c481013560c0880152600060e0880181905260e4820135610100890152610124820135610120890152610164909101356101408801526001600160a01b0392831661016088015292909116610180860152306101a08601529115156101c08501529115156101e0909301929092529190039190f0801562000a42576001600160a01b0316600081815260026020526040902080546001600160a01b0319163317905560035468010000000000000000811015620001aa5780600162000939920160035562000e5a565b81546001600160a01b0360039290921b91821b19169083901b179055803b15620001c05760405163f2fde38b60e01b81523360048201529060008260248183855af1801562000a425762000a26575b60209062000a01817fc12630d761ddbf18b9530f31d91e67493535a2b635711bcff59fded8bf381cce620009c160048035018062000eb5565b9390620009f3620009dd60246004350160043560040162000eb5565b9190926040519760808952608089019162000f0e565b918683038988015262000f0e565b926044600435013560408201524260608201528033940390a360018055604051908152f35b67ffffffffffffffff8211620001aa5760209160405262000988565b6040513d6000823e3d90fd5b604051632a11c32d60e01b815260006004820152602490fd5b506001600160a01b0362000a816004356101440162000ef9565b16156200075b565b6024906040519063de9caac360e01b82526004820152fd5b602460405163b9b7809f60e01b815260c460043501356004820152fd5b604460405163d2fe185560e01b81526084600435013560048201528160043501356024820152fd5b50604460043501356084600435013511620006f0565b6044604051633f43945d60e11b81526064600435013560048201528160043501356024820152fd5b50604460043501356064600435013511620006db565b60246040516316e072eb60e21b8152604460043501356004820152fd5b506b033b2e3c9fd0803ce80000006044600435013511620006c6565b62000b8960246004350160043560040162000eb5565b62000baf6040519283926304650c1d60e41b845260206004850152602484019162000f0e565b0390fd5b50600862000bcc60246004350160043560040162000eb5565b905011620006a7565b62000be560048035018062000eb5565b62000baf60405192839263bbb8895b60e01b845260206004850152602484019162000f0e565b50602062000c1e60048035018062000eb5565b90501162000681565b60405162461bcd60e51b815260206004820152601960248201527f496e73756666696369656e74206372656174696f6e20666565000000000000006044820152606490fd5b60405162461bcd60e51b815260206004820152601f60248201527f5265656e7472616e637947756172643a207265656e7472616e742063616c6c006044820152606490fd5b34620001c0576000366003190112620001c05762000cce62000f6e565b6000805481908190819047906001600160a01b031682821562000cf5575bf11562000a4257005b506108fc62000cec565b34620001c0576000366003190112620001c05760206040516b033b2e3c9fd0803ce80000008152f35b34620001c0576000366003190112620001c057604051806003549182815260208091019260036000527fc2575a0e9e593c00f959f8c92f12db2869c3395a3b0502d05e2516446f71f85b916000905b82821062000d9f57620003c08562000d928189038262000e92565b6040519182918262000e13565b83546001600160a01b03168652948501946001938401939091019062000d77565b34620001c0576020366003190112620001c0576020906001600160a01b038062000de962000dfc565b1660005260028352604060002054168152f35b600435906001600160a01b0382168203620001c057565b602090602060408183019282815285518094520193019160005b82811062000e3c575050505090565b83516001600160a01b03168552938101939281019260010162000e2d565b600354811015620004355760036000527fc2575a0e9e593c00f959f8c92f12db2869c3395a3b0502d05e2516446f71f85b0190600090565b90601f8019910116810190811067ffffffffffffffff821117620001aa57604052565b903590601e1981360301821215620001c0570180359067ffffffffffffffff8211620001c057602001918136038313620001c057565b358015158103620001c05790565b356001600160a01b0381168103620001c05790565b908060209392818452848401376000828201840152601f01601f1916010190565b600019811462000f3f5760010190565b634e487b7160e01b600052601160045260246000fd5b67ffffffffffffffff8111620001aa5760051b60200190565b6000546001600160a01b0316330362000f8357565b606460405162461bcd60e51b815260206004820152602060248201527f4f776e61626c653a2063616c6c6572206973206e6f7420746865206f776e65726044820152fd5b9190820180921162000f3f5756fe60406080815234620009135762002612803803806200001e8162000918565b928339810161020082820312620009135781516001600160401b0381116200091357816200004e9184016200093e565b602083015190916001600160401b0382116200091357620000719184016200093e565b908383015190606084015160808501516200008f60a08701620009b0565b9260c087015196620000a460e08201620009be565b97610100820151906101208301519961014084015191620000c96101608601620009be565b96620000d96101808701620009be565b98620000e96101a08801620009be565b9c620001086101e0620001006101c08b01620009b0565b9901620009b0565b895190996001600160401b038211620007e55760035490600182811c9216801562000908575b6020831014620007c45781601f84931162000896575b50602090601f83116001146200080757600092620007fb575b50508160011b916000199060031b1c1916176003555b8051906001600160401b038211620007e55760045490600182811c92168015620007da575b6020831014620007c45781601f8493116200074f575b50602090601f8311600114620006c057600092620006b4575b50508160011b916000199060031b1c1916176004555b620001e83362000a87565b60016006558b1562000664578b811162000606578b8211620005ad5760196200021e8f6200021888918a620009d3565b620009d3565b1162000569576001600160a01b0389161562000515576001600160a01b038a1615620004bf576001600160a01b038d16156200046657600955600a556007805499151560ff1660ff199a8b16179055600855600b80546001600160a01b03199081166001600160a01b03938416908117909255600d94909455600e9b909b55600f919091556010805483169582169586179055601180549092169581169586179091556012805492151560a01b60ff60a01b166001600160b01b03199093169189169182179290921792151560a81b60ff60a81b16929092179055336000908152601360205288812080548616600190811790915530825289822080548716821790559281528881208054861684179055928352878320805485168317905582528682208054841682179055858252908690208054909216179055601481810290828204900362000450576064900490818103908111620004505762000389620003909284620009e1565b33620009e1565b811562000401576001600160a01b03166000818152600160209081528482208483528152908490206000199081905584519081527f8c5be1e5ebec7d5bd14f71427d1e84f3dd0314c0f7b2291e5b200ac8c7c3b9259190a3620003f33362000a87565b51611b41908162000ad18239f35b825162461bcd60e51b815260206004820152602260248201527f45524332303a20617070726f766520746f20746865207a65726f206164647265604482015261737360f01b6064820152608490fd5b634e487b7160e01b600052601160045260246000fd5b8e5162461bcd60e51b815260206004820152602c60248201527f4175746f2d6c69717569646974792077616c6c65742063616e6e6f742062652060448201526b7a65726f206164647265737360a01b6064820152608490fd5b8e5162461bcd60e51b815260206004820152602960248201527f446576656c6f706d656e742077616c6c65742063616e6e6f74206265207a65726044820152686f206164647265737360b81b6064820152608490fd5b8e5162461bcd60e51b815260206004820152602760248201527f4d61726b6574696e672077616c6c65742063616e6e6f74206265207a65726f206044820152666164647265737360c81b6064820152608490fd5b8e5162461bcd60e51b815260206004820152601c60248201527f546f74616c20666565732063616e6e6f742065786365656420323525000000006044820152606490fd5b8e5162461bcd60e51b815260206004820152602c60248201527f4d61782077616c6c657420616d6f756e742063616e6e6f74206578636565642060448201526b746f74616c20737570706c7960a01b6064820152608490fd5b8e5162461bcd60e51b815260206004820152603160248201527f4d6178207472616e73616374696f6e20616d6f756e742063616e6e6f742065786044820152706365656420746f74616c20737570706c7960781b6064820152608490fd5b8e5162461bcd60e51b815260206004820152602360248201527f546f74616c20737570706c79206d75737420626520677265617465722074686160448201526206e20360ec1b6064820152608490fd5b015190503880620001c7565b6004600090815293507f8a35acfbc15ff81a39ae7d344fd709f28e8600b4aa8c65c6b64bfe7fe36bd19b91905b601f198416851062000733576001945083601f1981161062000719575b505050811b01600455620001dd565b015160001960f88460031b161c191690553880806200070a565b81810151835560209485019460019093019290910190620006ed565b60046000529091507f8a35acfbc15ff81a39ae7d344fd709f28e8600b4aa8c65c6b64bfe7fe36bd19b601f840160051c81019160208510620007b9575b90601f859493920160051c01905b818110620007a95750620001ae565b600081558493506001016200079a565b90915081906200078c565b634e487b7160e01b600052602260045260246000fd5b91607f169162000198565b634e487b7160e01b600052604160045260246000fd5b0151905038806200015d565b6003600090815293507fc2575a0e9e593c00f959f8c92f12db2869c3395a3b0502d05e2516446f71f85b91905b601f19841685106200087a576001945083601f1981161062000860575b505050811b0160035562000173565b015160001960f88460031b161c1916905538808062000851565b8181015183556020948501946001909301929091019062000834565b60036000529091507fc2575a0e9e593c00f959f8c92f12db2869c3395a3b0502d05e2516446f71f85b601f840160051c81016020851062000900575b90849392915b601f830160051c82018110620008f057505062000144565b60008155859450600101620008d8565b5080620008d2565b91607f16916200012e565b600080fd5b6040519190601f01601f191682016001600160401b03811183821017620007e557604052565b919080601f84011215620009135782516001600160401b038111620007e55760209062000974601f8201601f1916830162000918565b92818452828287010111620009135760005b8181106200099c57508260009394955001015290565b858101830151848201840152820162000986565b519081151582036200091357565b51906001600160a01b03821682036200091357565b919082018092116200045057565b6001600160a01b031690811562000a42577fddf252ad1be2c89b69c2b068fc378daa952ba7f163c4a11628f55a4df523b3ef60208262000a26600094600254620009d3565b60025584845283825260408420818154019055604051908152a3565b60405162461bcd60e51b815260206004820152601f60248201527f45524332303a206d696e7420746f20746865207a65726f2061646472657373006044820152606490fd5b600580546001600160a01b039283166001600160a01b0319821681179092559091167f8be0079c531659141344cd1fd0a4f28419497f9722a3daafe3b4186f6b6457e0600080a356fe608060408181526004918236101561001657600080fd5b600092833560e01c91826306fdde0314611080575081630758d92414611057578163095ea7b31461102d5781630c439f9314611004578163153b0d1e14610f7257816318160ddd14610f5357816323b872dd14610e8957816327a14fc214610e225781632bf2b11b14610dfb578163313ce56714610ddf5781633950935114610d8f5781633dfc97e114610d4d5781634ada218b14610d295781635e29879014610d0a578163606e1b8114610ced57816370a0823114610caa57816370b7b80c14610c8b578163715018a614610c2e57816375cb1bd114610b5657816375f0a87414610b2d57816380ada68a14610b0e5781638187f51614610a2f57816381f5a25b146109ed5781638a8c523c146109365781638c0b5e22146109175781638da5cb5b146108ee57816395d89b41146107e95781639e4e7318146107ae5781639f7b0ed514610759578163a457c2d7146106b1578163a9059cbb14610680578163aa4bde2814610661578163bcc178fd1461063a578163c04a541414610611578163c0d7865514610530578163c1a68121146104f2578163dd62ed3e146104a9578163de37610e1461048a578163e9dae5ed146103bf578163ec28438a14610358578163f242ab411461032f578163f2fde38b1461026457508063fe575a87146102275763ffa1ad741461020957600080fd5b346102235781600319360112610223576020905160028152f35b5080fd5b50346102235760203660031901126102235760209160ff9082906001600160a01b036102516111be565b1681526014855220541690519015158152f35b90503461032b57602036600319011261032b5761027f6111be565b9061028861144a565b6001600160a01b039182169283156102d9575050600554826001600160601b0360a01b821617600555167f8be0079c531659141344cd1fd0a4f28419497f9722a3daafe3b4186f6b6457e08380a380f35b906020608492519162461bcd60e51b8352820152602660248201527f4f776e61626c653a206e6577206f776e657220697320746865207a65726f206160448201526564647265737360d01b6064820152fd5b8280fd5b505034610223578160031936011261022357600c5490516001600160a01b039091168152602090f35b90503461032b57602036600319011261032b577f947f344d56e1e8c70dc492fb94c4ddddd490c016aab685f5e7e47b2e85cb44cf91602091359061039a61144a565b6103a5821515611283565b6103b36002548311156112cf565b8160095551908152a180f35b8391503461022357606036600319011261022357803560243590604435926103e561144a565b60196103fa856103f58686611325565b611325565b11610447575061043e7f08a9cbb7bd5bab504d3fc44931790235ee0c3011feecaa62967a37e3f934146b936103f5602094848995600d5581600e5583600f55611325565b9051908152a180f35b606490602087519162461bcd60e51b8352820152601c60248201527f546f74616c20666565732063616e6e6f742065786365656420323525000000006044820152fd5b505034610223578160031936011261022357602090600f549051908152f35b505034610223578060031936011261022357806020926104c76111be565b6104cf6111d9565b6001600160a01b0391821683526001865283832091168252845220549051908152f35b5050346102235760203660031901126102235760209160ff9082906001600160a01b0361051d6111be565b1681526013855220541690519015158152f35b90503461032b57602036600319011261032b5761054b6111be565b6012546001600160a01b039190821633036105ce57600b549282841661059657501680916001600160601b0360a01b1617600b55825260136020528120600160ff1982541617905580f35b606490602086519162461bcd60e51b83528201526012602482015271149bdd5d195c88185b1c9958591e481cd95d60721b6044820152fd5b835162461bcd60e51b8152602081850152601b60248201527f4f6e6c7920666163746f72792063616e2073657420726f7574657200000000006044820152606490fd5b50503461022357816003193601126102235760115490516001600160a01b039091168152602090f35b50503461022357816003193601126102235760209060ff60125460a81c1690519015158152f35b505034610223578160031936011261022357602090600a549051908152f35b5050346102235780600319360112610223576020906106aa6106a06111be565b60243590336114b5565b5160018152f35b905082346107565782600319360112610756576106cc6111be565b918360243592338152600160205281812060018060a01b0386168252602052205490828210610705576020856106aa8585038733611348565b608490602086519162461bcd60e51b8352820152602560248201527f45524332303a2064656372656173656420616c6c6f77616e63652062656c6f77604482015264207a65726f60d81b6064820152fd5b80fd5b5050346102235780600319360112610223576107ab906107776111be565b906107806111ef565b9161078961144a565b60018060a01b03168452601360205283209060ff801983541691151516179055565b80f35b505034610223578160031936011261022357602090517f97831d354a6f8b80f2034ecb74ded90addda670141f845b47bcbb8c109be18a28152f35b83833461022357816003193601126102235780519180938054916001908360011c92600185169485156108e4575b60209586861081146108d1578589529081156108ad5750600114610855575b6108518787610847828c038361120d565b5191829182611175565b0390f35b81529295507f8a35acfbc15ff81a39ae7d344fd709f28e8600b4aa8c65c6b64bfe7fe36bd19b5b82841061089a57505050826108519461084792820101948680610836565b805486850188015292860192810161087c565b60ff19168887015250505050151560051b8301019250610847826108518680610836565b634e487b7160e01b845260228352602484fd5b93607f1693610817565b50503461022357816003193601126102235760055490516001600160a01b039091168152602090f35b5050346102235781600319360112610223576020906009549051908152f35b90503461032b578260031936011261032b5761095061144a565b6007549060ff82166109aa575060ff19166001176007556008547fb3da2db3dfc3778f99852546c6e9ab39ec253f9de7b0847afec61bd27878e92391602091156109a1575b6008549051908152a180f35b42600855610995565b606490602084519162461bcd60e51b8352820152601760248201527f54726164696e6720616c726561647920656e61626c65640000000000000000006044820152fd5b833461075657602036600319011261075657610a076111fe565b610a0f61144a565b6012805460ff60a01b191691151560a01b60ff60a01b1691909117905580f35b90503461032b57602036600319011261032b57610a4a6111be565b6012546001600160a01b03919082163303610acb57600c5492828416610a9557501680916001600160601b0360a01b1617600c55825260136020528120600160ff1982541617905580f35b606490602086519162461bcd60e51b8352820152601060248201526f14185a5c88185b1c9958591e481cd95d60821b6044820152fd5b835162461bcd60e51b8152602081850152601960248201527f4f6e6c7920666163746f72792063616e207365742070616972000000000000006044820152606490fd5b505034610223578160031936011261022357602090600d549051908152f35b50503461022357816003193601126102235760105490516001600160a01b039091168152602090f35b50503461022357606036600319011261022357610b716111be565b610b796111d9565b916001600160a01b03906044358281169190829003610c2a577f2d4c6aa48812a0ea09474a961613c1a3ae652d39a1580cb1ac46ff277e6d385d948284606096610bc161144a565b169485151580610c1f575b80610c16575b610bdb90611245565b6001600160601b0360a01b9286846010541617601055169182816011541617601155601254161760125581519384526020840152820152a180f35b50811515610bd2565b508083161515610bcc565b8580fd5b8334610756578060031936011261075657610c4761144a565b600580546001600160a01b0319811690915581906001600160a01b03167f8be0079c531659141344cd1fd0a4f28419497f9722a3daafe3b4186f6b6457e08280a380f35b5050346102235781600319360112610223576020906008549051908152f35b50503461022357602036600319011261022357602090610ce6610ccb6111be565b6001600160a01b031660009081526020819052604090205490565b9051908152f35b505034610223578160031936011261022357602090516103e88152f35b505034610223578160031936011261022357602090600e549051908152f35b50503461022357816003193601126102235760209060ff6007541690519015158152f35b833461075657602036600319011261075657610d676111fe565b610d6f61144a565b6012805460ff60a81b191691151560a81b60ff60a81b1691909117905580f35b5050346102235780600319360112610223576106aa602092610dd8610db26111be565b338352600186528483206001600160a01b03821684528652918490205460243590611325565b9033611348565b5050346102235781600319360112610223576020905160128152f35b50503461022357816003193601126102235760209060ff60125460a01c1690519015158152f35b90503461032b57602036600319011261032b577f4b39c36d20c57d220f61fd25c4349d4435cc03ef6c2a680942f15333c3c3e001916020913590610e6461144a565b610e6f821515611283565b610e7d6002548311156112cf565b81600a5551908152a180f35b8391503461022357606036600319011261022357610ea56111be565b610ead6111d9565b91846044359460018060a01b038416815260016020528181203382526020522054906000198203610ee7575b6020866106aa8787876114b5565b848210610f105750918391610f05602096956106aa95033383611348565b919394819350610ed9565b606490602087519162461bcd60e51b8352820152601d60248201527f45524332303a20696e73756666696369656e7420616c6c6f77616e63650000006044820152fd5b5050346102235781600319360112610223576020906002549051908152f35b5050346102235780600319360112610223577f6a12b3df6cba4203bd7fd06b816789f87de8c594299aed5717ae070fac781bac90610fae6111be565b610fb66111ef565b90610fbf61144a565b6001600160a01b031690610fd4821515611245565b8185526014602052610ff4818487209060ff801983541691151516179055565b825191825215156020820152a180f35b50503461022357816003193601126102235760125490516001600160a01b039091168152602090f35b5050346102235780600319360112610223576020906106aa61104d6111be565b6024359033611348565b505034610223578160031936011261022357600b5490516001600160a01b039091168152602090f35b92915034611171578360031936011261117157600354600181811c9186908281168015611167575b6020958686108214611154575084885290811561113257506001146110d9575b6108518686610847828b038361120d565b929550600383527fc2575a0e9e593c00f959f8c92f12db2869c3395a3b0502d05e2516446f71f85b5b82841061111f5750505082610851946108479282010194386110c8565b8054868501880152928601928101611102565b60ff191687860152505050151560051b830101925061084782610851386110c8565b634e487b7160e01b845260229052602483fd5b93607f16936110a8565b8380fd5b6020808252825181830181905290939260005b8281106111aa57505060409293506000838284010152601f8019910116010190565b818101860151848201604001528501611188565b600435906001600160a01b03821682036111d457565b600080fd5b602435906001600160a01b03821682036111d457565b6024359081151582036111d457565b6004359081151582036111d457565b90601f8019910116810190811067ffffffffffffffff82111761122f57604052565b634e487b7160e01b600052604160045260246000fd5b1561124c57565b60405162461bcd60e51b815260206004820152600f60248201526e496e76616c6964206164647265737360881b6044820152606490fd5b1561128a57565b60405162461bcd60e51b815260206004820152601d60248201527f416d6f756e74206d7573742062652067726561746572207468616e20300000006044820152606490fd5b156112d657565b60405162461bcd60e51b815260206004820152602160248201527f416d6f756e742063616e6e6f742065786365656420746f74616c20737570706c6044820152607960f81b6064820152608490fd5b9190820180921161133257565b634e487b7160e01b600052601160045260246000fd5b6001600160a01b039081169182156113f957169182156113a95760207f8c5be1e5ebec7d5bd14f71427d1e84f3dd0314c0f7b2291e5b200ac8c7c3b925918360005260018252604060002085600052825280604060002055604051908152a3565b60405162461bcd60e51b815260206004820152602260248201527f45524332303a20617070726f766520746f20746865207a65726f206164647265604482015261737360f01b6064820152608490fd5b60405162461bcd60e51b8152602060048201526024808201527f45524332303a20617070726f76652066726f6d20746865207a65726f206164646044820152637265737360e01b6064820152608490fd5b6005546001600160a01b0316330361145e57565b606460405162461bcd60e51b815260206004820152602060248201527f4f776e61626c653a2063616c6c6572206973206e6f7420746865206f776e65726044820152fd5b8181029291811591840414171561133257565b919060018060a01b03928381166000948186526020906014825260ff60409381858a205416158061198b575b15611951578089526013845281858a2054168015611940575b8015611923575b6119145781600754168015611907575b80156118f8575b156118be5760085480611878575b5060095480611828575b50600a5480151580611812575b6117ae575b5082600c5416808489161480156117a5575b61156b575b505050505050611569935061199d565b565b811480928193611796575b8115611776575b50611589575b80611559565b6064611597600d548a6114a2565b0460646115a6600e548b6114a2565b049160646115b6600f548c6114a2565b04956115c6876103f58686611325565b91826115d55750505050611583565b8c9b949699979a9395989b528b8152838b8d205410611729575082039182116117155790611603918561199d565b80611700575b50806116eb575b508361161f575b505050505050565b8361162f9184601254169061199d565b15806116bf575b611642575b8080611617565b6012541690813b15611171578391604483928551968793849263d3f2036b60e01b845230600485015260011c60248401525af180156116b357611686575b8061163b565b67ffffffffffffffff831161169f575052388080611680565b634e487b7160e01b81526041600452602490fd5b509051903d90823e3d90fd5b506103e86116e4826012541660018060a01b0316600052600060205260406000205490565b1015611636565b6116fa9084601154168361199d565b38611610565b61170f9085601054168461199d565b38611609565b634e487b7160e01b8a52601160045260248afd5b6084908b519062461bcd60e51b82526004820152602160248201527f496e73756666696369656e742062616c616e636520666f72207472616e7366656044820152603960f91b6064820152fd5b8315915081611787575b503861157d565b905060125460a81c1638611780565b60125460a01c81169150611576565b50808214611554565b8388168a528985526117c389878c2054611325565b116117ce5738611542565b845162461bcd60e51b815260048101859052601960248201527f45786365656473206d61782077616c6c657420616d6f756e74000000000000006044820152606490fd5b508388168a526013855282868b2054161561153d565b88116118345738611530565b845162461bcd60e51b815260048101859052601e60248201527f45786365656473206d6178207472616e73616374696f6e20616d6f756e7400006044820152606490fd5b42106118845738611526565b845162461bcd60e51b8152600481018590526013602482015272151c98591a5b99c81b9bdd081cdd185c9d1959606a1b6044820152606490fd5b845162461bcd60e51b8152600481018590526013602482015272151c98591a5b99c81b9bdd08195b98589b1959606a1b6044820152606490fd5b50826005541683881614611518565b5082600554168114611511565b5050505050611569935061199d565b508260055416811480156115015750826012541683881614611501565b50828716895281858a2054166114fa565b845162461bcd60e51b8152600481018590526013602482015272426c61636b6c6973746564206164647265737360681b6044820152606490fd5b50828716895281858a205416156114e1565b6001600160a01b03908116918215611ab85716918215611a6757600082815280602052604081205491808310611a1357604082827fddf252ad1be2c89b69c2b068fc378daa952ba7f163c4a11628f55a4df523b3ef958760209652828652038282205586815220818154019055604051908152a3565b60405162461bcd60e51b815260206004820152602660248201527f45524332303a207472616e7366657220616d6f756e7420657863656564732062604482015265616c616e636560d01b6064820152608490fd5b60405162461bcd60e51b815260206004820152602360248201527f45524332303a207472616e7366657220746f20746865207a65726f206164647260448201526265737360e81b6064820152608490fd5b60405162461bcd60e51b815260206004820152602560248201527f45524332303a207472616e736665722066726f6d20746865207a65726f206164604482015264647265737360d81b6064820152608490fdfea2646970667358221220fcdfcdb42675a673fac17e00df72106a54fd5ebdfa0d56d314b7044add66eb6364736f6c63430008160033a2646970667358221220f84690b3c674b461b572ee95c8c162181de77b3d7bb384fec0f2132afc5b898164736f6c63430008160033",
  "linkReferences": {},
  "deployedLinkReferences": {}
}