{
  "_format": "hh-sol-artifact-1",
  "contractName": "V4TokenBase",
  "sourceName": "contracts/V4TokenBase.sol",
  "abi": [
    {
      "inputs": [],
      "name": "ModuleDoesNotExist",
      "type": "error"
    },
    {
      "inputs": [],
      "name": "ModuleExists",
      "type": "error"
    },
    {
      "inputs": [],
      "name": "PermissionDenied",
      "type": "error"
    },
    {
      "anonymous": false,
      "inputs": [
        {
          "indexed": true,
          "internalType": "address",
          "name": "owner",
          "type": "address"
        },
        {
          "indexed": true,
          "internalType": "address",
          "name": "spender",
          "type": "address"
        },
        {
          "indexed": false,
          "internalType": "uint256",
          "name": "value",
          "type": "uint256"
        }
      ],
      "name": "Approval",
      "type": "event"
    },
    {
      "anonymous": false,
      "inputs": [
        {
          "indexed": false,
          "internalType": "uint8",
          "name": "version",
          "type": "uint8"
        }
      ],
      "name": "Initialized",
      "type": "event"
    },
    {
      "anonymous": false,
      "inputs": [
        {
          "indexed": true,
          "internalType": "address",
          "name": "previousOwner",
          "type": "address"
        },
        {
          "indexed": true,
          "internalType": "address",
          "name": "newOwner",
          "type": "address"
        }
      ],
      "name": "OwnershipTransferred",
      "type": "event"
    },
    {
      "anonymous": false,
      "inputs": [
        {
          "indexed": false,
          "internalType": "address",
          "name": "account",
          "type": "address"
        }
      ],
      "name": "Paused",
      "type": "event"
    },
    {
      "anonymous": false,
      "inputs": [
        {
          "indexed": true,
          "internalType": "address",
          "name": "from",
          "type": "address"
        },
        {
          "indexed": true,
          "internalType": "address",
          "name": "to",
          "type": "address"
        },
        {
          "indexed": false,
          "internalType": "uint256",
          "name": "value",
          "type": "uint256"
        }
      ],
      "name": "Transfer",
      "type": "event"
    },
    {
      "anonymous": false,
      "inputs": [
        {
          "indexed": false,
          "internalType": "address",
          "name": "account",
          "type": "address"
        }
      ],
      "name": "Unpaused",
      "type": "event"
    },
    {
      "inputs": [
        {
          "internalType": "address",
          "name": "moduleAddress",
          "type": "address"
        },
        {
          "internalType": "bytes",
          "name": "data",
          "type": "bytes"
        }
      ],
      "name": "addModule",
      "outputs": [
        {
          "internalType": "bool",
          "name": "",
          "type": "bool"
        }
      ],
      "stateMutability": "nonpayable",
      "type": "function"
    },
    {
      "inputs": [
        {
          "internalType": "address",
          "name": "owner",
          "type": "address"
        },
        {
          "internalType": "address",
          "name": "spender",
          "type": "address"
        }
      ],
      "name": "allowance",
      "outputs": [
        {
          "internalType": "uint256",
          "name": "",
          "type": "uint256"
        }
      ],
      "stateMutability": "view",
      "type": "function"
    },
    {
      "inputs": [
        {
          "internalType": "address",
          "name": "spender",
          "type": "address"
        },
        {
          "internalType": "uint256",
          "name": "amount",
          "type": "uint256"
        }
      ],
      "name": "approve",
      "outputs": [
        {
          "internalType": "bool",
          "name": "",
          "type": "bool"
        }
      ],
      "stateMutability": "nonpayable",
      "type": "function"
    },
    {
      "inputs": [
        {
          "internalType": "address",
          "name": "account",
          "type": "address"
        }
      ],
      "name": "balanceOf",
      "outputs": [
        {
          "internalType": "uint256",
          "name": "",
          "type": "uint256"
        }
      ],
      "stateMutability": "view",
      "type": "function"
    },
    {
      "inputs": [],
      "name": "decimals",
      "outputs": [
        {
          "internalType": "uint8",
          "name": "",
          "type": "uint8"
        }
      ],
      "stateMutability": "view",
      "type": "function"
    },
    {
      "inputs": [
        {
          "internalType": "address",
          "name": "spender",
          "type": "address"
        },
        {
          "internalType": "uint256",
          "name": "subtractedValue",
          "type": "uint256"
        }
      ],
      "name": "decreaseAllowance",
      "outputs": [
        {
          "internalType": "bool",
          "name": "",
          "type": "bool"
        }
      ],
      "stateMutability": "nonpayable",
      "type": "function"
    },
    {
      "inputs": [
        {
          "internalType": "address",
          "name": "target",
          "type": "address"
        },
        {
          "internalType": "bytes",
          "name": "data",
          "type": "bytes"
        }
      ],
      "name": "executeFromModule",
      "outputs": [
        {
          "internalType": "bool",
          "name": "success",
          "type": "bool"
        },
        {
          "internalType": "bytes",
          "name": "returnData",
          "type": "bytes"
        }
      ],
      "stateMutability": "nonpayable",
      "type": "function"
    },
    {
      "inputs": [],
      "name": "getModules",
      "outputs": [
        {
          "internalType": "address[]",
          "name": "",
          "type": "address[]"
        }
      ],
      "stateMutability": "view",
      "type": "function"
    },
    {
      "inputs": [
        {
          "internalType": "address",
          "name": "spender",
          "type": "address"
        },
        {
          "internalType": "uint256",
          "name": "addedValue",
          "type": "uint256"
        }
      ],
      "name": "increaseAllowance",
      "outputs": [
        {
          "internalType": "bool",
          "name": "",
          "type": "bool"
        }
      ],
      "stateMutability": "nonpayable",
      "type": "function"
    },
    {
      "inputs": [
        {
          "internalType": "string",
          "name": "name_",
          "type": "string"
        },
        {
          "internalType": "string",
          "name": "symbol_",
          "type": "string"
        },
        {
          "internalType": "uint256",
          "name": "initialSupply",
          "type": "uint256"
        },
        {
          "internalType": "address",
          "name": "owner_",
          "type": "address"
        }
      ],
      "name": "initialize",
      "outputs": [],
      "stateMutability": "nonpayable",
      "type": "function"
    },
    {
      "inputs": [
        {
          "internalType": "address",
          "name": "moduleAddress",
          "type": "address"
        }
      ],
      "name": "isModuleActive",
      "outputs": [
        {
          "internalType": "bool",
          "name": "",
          "type": "bool"
        }
      ],
      "stateMutability": "view",
      "type": "function"
    },
    {
      "inputs": [],
      "name": "name",
      "outputs": [
        {
          "internalType": "string",
          "name": "",
          "type": "string"
        }
      ],
      "stateMutability": "view",
      "type": "function"
    },
    {
      "inputs": [],
      "name": "owner",
      "outputs": [
        {
          "internalType": "address",
          "name": "",
          "type": "address"
        }
      ],
      "stateMutability": "view",
      "type": "function"
    },
    {
      "inputs": [],
      "name": "pause",
      "outputs": [],
      "stateMutability": "nonpayable",
      "type": "function"
    },
    {
      "inputs": [],
      "name": "paused",
      "outputs": [
        {
          "internalType": "bool",
          "name": "",
          "type": "bool"
        }
      ],
      "stateMutability": "view",
      "type": "function"
    },
    {
      "inputs": [
        {
          "internalType": "address",
          "name": "moduleAddress",
          "type": "address"
        }
      ],
      "name": "removeModule",
      "outputs": [
        {
          "internalType": "bool",
          "name": "",
          "type": "bool"
        }
      ],
      "stateMutability": "nonpayable",
      "type": "function"
    },
    {
      "inputs": [],
      "name": "renounceOwnership",
      "outputs": [],
      "stateMutability": "nonpayable",
      "type": "function"
    },
    {
      "inputs": [],
      "name": "symbol",
      "outputs": [
        {
          "internalType": "string",
          "name": "",
          "type": "string"
        }
      ],
      "stateMutability": "view",
      "type": "function"
    },
    {
      "inputs": [],
      "name": "totalSupply",
      "outputs": [
        {
          "internalType": "uint256",
          "name": "",
          "type": "uint256"
        }
      ],
      "stateMutability": "view",
      "type": "function"
    },
    {
      "inputs": [
        {
          "internalType": "address",
          "name": "to",
          "type": "address"
        },
        {
          "internalType": "uint256",
          "name": "amount",
          "type": "uint256"
        }
      ],
      "name": "transfer",
      "outputs": [
        {
          "internalType": "bool",
          "name": "",
          "type": "bool"
        }
      ],
      "stateMutability": "nonpayable",
      "type": "function"
    },
    {
      "inputs": [
        {
          "internalType": "address",
          "name": "from",
          "type": "address"
        },
        {
          "internalType": "address",
          "name": "to",
          "type": "address"
        },
        {
          "internalType": "uint256",
          "name": "amount",
          "type": "uint256"
        }
      ],
      "name": "transferFrom",
      "outputs": [
        {
          "internalType": "bool",
          "name": "",
          "type": "bool"
        }
      ],
      "stateMutability": "nonpayable",
      "type": "function"
    },
    {
      "inputs": [
        {
          "internalType": "address",
          "name": "newOwner",
          "type": "address"
        }
      ],
      "name": "transferOwnership",
      "outputs": [],
      "stateMutability": "nonpayable",
      "type": "function"
    },
    {
      "inputs": [],
      "name": "unpause",
      "outputs": [],
      "stateMutability": "nonpayable",
      "type": "function"
    }
  ],
  "bytecode": "0x608080604052346100165761178f908161001c8239f35b600080fdfe608080604052600436101561001357600080fd5b60003560e01c90816306fdde031461100157508063095ea7b314610fdb57806318160ddd14610fbd57806323b872dd14610eff5780632dd3a78c14610ed4578063313ce56714610eb85780633950935114610e675780633f4ba83a14610dc45780635607b78014610d355780635c975abb14610d1257806370a0823114610cd8578063715018a614610c7b5780638456cb5914610bc75780638da5cb5b14610b9e57806395d89b4114610ac9578063a063246114610978578063a457c2d7146108d1578063a9059cbb146108a0578063b2494df3146107d8578063bd3a13f614610248578063d21b9fbd14610209578063dd62ed3e146101b85763f2fde38b1461011c57600080fd5b346101b35760203660031901126101b3576101356110da565b61013d611618565b610145611618565b6001600160a01b0381161561015f5761015d90611670565b005b60405162461bcd60e51b815260206004820152602660248201527f4f776e61626c653a206e6577206f776e657220697320746865207a65726f206160448201526564647265737360d01b6064820152608490fd5b600080fd5b346101b35760403660031901126101b3576101d16110da565b6101d96110f0565b9060018060a01b038091166000526034602052604060002091166000526020526020604060002054604051908152f35b346101b35760203660031901126101b3576001600160a01b0361022a6110da565b1660005260c9602052602060ff604060002054166040519015158152f35b346101b35760803660031901126101b35760043567ffffffffffffffff81116101b3576102799036906004016111a1565b60243567ffffffffffffffff81116101b3576102999036906004016111a1565b6064356001600160a01b03811690036101b3576000549060ff8260081c1615918280936107cb575b80156107b4575b156107585760ff19811660011760005582610746575b506102f960ff60005460081c166102f4816116b9565b6116b9565b825167ffffffffffffffff8111610648576103156036546111e8565b601f81116106dd575b506020601f8211600114610669578192939460009261065e575b50508160011b916000199060031b1c1916176036555b80519067ffffffffffffffff821161064857819061036d6037546111e8565b601f81116105d1575b50602090601f83116001146105595760009261054e575b50508160011b916000199060031b1c1916176037555b6103b860ff60005460081c166102f4816116b9565b6103c133611670565b6103d660ff60005460081c166102f4816116b9565b60ff19609754166097556103eb606435611670565b604435610431575b6103f957005b61ff0019600054166000557f7f26b83ff96e1f2b6a682f133852f6798a09c465da95921460cefb3847402498602060405160018152a1005b6064356001600160a01b0316156105095760ff609754166104b35761045a60443560355461138f565b6035556064356001600160a01b03166000818152603360209081526040808320805460443590810190915590519081527fddf252ad1be2c89b69c2b068fc378daa952ba7f163c4a11628f55a4df523b3ef9190a36103f3565b60405162461bcd60e51b815260206004820152602860248201527f5634546f6b656e426173653a20746f6b656e207472616e73666572207768696c60448201526719481c185d5cd95960c21b6064820152608490fd5b60405162461bcd60e51b815260206004820152601f60248201527f45524332303a206d696e7420746f20746865207a65726f2061646472657373006044820152606490fd5b01519050838061038d565b9250603760005260008051602061173a833981519152906000935b601f19841685106105b6576001945083601f1981161061059d575b505050811b016037556103a3565b015160001960f88460031b161c1916905583808061058f565b81810151835560209485019460019093019290910190610574565b9091506037600052601f830160051c60008051602061173a833981519152019060208410610632575b90601f8493920160051c60008051602061173a83398151915201905b8181106106235750610376565b60008155849350600101610616565b60008051602061173a83398151915291506105fa565b634e487b7160e01b600052604160045260246000fd5b015190508480610338565b603660005260008051602061171a8339815191529060005b601f19841681106106c55750600193949583601f198116106106ac575b505050811b0160365561034e565b015160001960f88460031b161c1916905584808061069e565b9091602060018192858a015181550193019101610681565b6036600052601f820160051c60008051602061171a8339815191520160208310610731575b601f820160051c60008051602061171a833981519152018110610725575061031e565b60008155600101610702565b5060008051602061171a833981519152610702565b61ffff191661010117600055836102de565b60405162461bcd60e51b815260206004820152602e60248201527f496e697469616c697a61626c653a20636f6e747261637420697320616c72656160448201526d191e481a5b9a5d1a585b1a5e995960921b6064820152608490fd5b50303b1580156102c85750600160ff8216146102c8565b50600160ff8216106102c1565b346101b35760003660031901126101b3576040518060ca548083526020809301809160ca6000527f42d72674974f694b5f5159593243114d38a5c39c89d6b62fee061ff523240ee19060005b8682821061088357868661083a82880383611163565b604051928392818401908285525180915260408401929160005b82811061086357505050500390f35b83516001600160a01b031685528695509381019392810192600101610854565b83546001600160a01b031685529093019260019283019201610824565b346101b35760403660031901126101b3576108c66108bc6110da565b602435903361149e565b602060405160018152f35b346101b35760403660031901126101b3576108ea6110da565b60243590336000526034602052604060002060018060a01b03821660005260205260406000205491808310610925576108c69203903361139c565b60405162461bcd60e51b815260206004820152602560248201527f45524332303a2064656372656173656420616c6c6f77616e63652062656c6f77604482015264207a65726f60d81b6064820152608490fd5b346101b35760203660031901126101b3576109916110da565b610999611618565b6001600160a01b03908116600081815260c9602052604090205460ff1615610ab757600081815260c960205260408120805460ff19169055905b60ca9182549283821015610aad578493836109ed84611222565b979054600398891b1c1614610a0a575092935060010191506109d3565b9093925060001991828201918211610a9757610a3984610a2c610a5794611222565b905490891b1c1691611222565b90919060018060a01b038084549260031b9316831b921b1916179055565b82548015610a81570192610a6a84611222565b81939154921b1b1916905555602060405160018152f35b634e487b7160e01b600052603160045260246000fd5b634e487b7160e01b600052601160045260246000fd5b50505050506108c6565b604051630286c71d60e01b8152600490fd5b346101b35760003660031901126101b357604051603754600082610aec836111e8565b9182825260209360019085600182169182600014610b7e575050600114610b33575b50610b1b92500383611163565b610b2f60405192828493845283019061109a565b0390f35b849150603760005260008051602061173a833981519152906000915b858310610b66575050610b1b935082010185610b0e565b80548389018501528794508693909201918101610b4f565b60ff191685820152610b1b95151560051b8501019250879150610b0e9050565b346101b35760003660031901126101b3576065546040516001600160a01b039091168152602090f35b346101b35760003660031901126101b3573360005260c960205260ff6040600020541615610c695760975460ff8116610c315760019060ff1916176097557f62e78cea01bee320cd4e420270b5ea74000d11b0c9f74754ebdbfc544b05a2586020604051338152a1005b60405162461bcd60e51b815260206004820152601060248201526f14185d5cd8589b194e881c185d5cd95960821b6044820152606490fd5b604051630782484160e21b8152600490fd5b346101b35760003660031901126101b357610c94611618565b606580546001600160a01b031981169091556000906001600160a01b03167f8be0079c531659141344cd1fd0a4f28419497f9722a3daafe3b4186f6b6457e08280a3005b346101b35760203660031901126101b3576001600160a01b03610cf96110da565b1660005260336020526020604060002054604051908152f35b346101b35760003660031901126101b357602060ff609754166040519015158152f35b346101b357610d4336611106565b913360005260c960205260ff6040600020541615610c695782600080949381946040519384928337810182815203925af13d15610dbc573d90610d8582611185565b91610d936040519384611163565b82523d6000602084013e5b610b2f6040519283921515835260406020840152604083019061109a565b606090610d9e565b346101b35760003660031901126101b3573360005260c960205260ff6040600020541615610c695760975460ff811615610e2b5760ff19166097557f5db9ee0a495bf2e6ff9c91a7834c1ba4fdd244a5e8aa4e537bd38aeae4b073aa6020604051338152a1005b60405162461bcd60e51b815260206004820152601460248201527314185d5cd8589b194e881b9bdd081c185d5cd95960621b6044820152606490fd5b346101b35760403660031901126101b3576108c6610e836110da565b336000526034602052604060002060018060a01b038216600052602052610eb160243560406000205461138f565b903361139c565b346101b35760003660031901126101b357602060405160128152f35b346101b3576020610ef5610ee736611106565b91610ef0611618565b61126f565b6040519015158152f35b346101b35760603660031901126101b357610f186110da565b610f206110f0565b6044359060018060a01b0383166000526034602052604060002033600052602052604060002054926000198403610f5c575b6108c6935061149e565b828410610f7857610f73836108c69503338361139c565b610f52565b60405162461bcd60e51b815260206004820152601d60248201527f45524332303a20696e73756666696369656e7420616c6c6f77616e63650000006044820152606490fd5b346101b35760003660031901126101b3576020603554604051908152f35b346101b35760403660031901126101b3576108c6610ff76110da565b602435903361139c565b346101b35760003660031901126101b357603654600082611021836111e8565b9182825260209360019085600182169182600014610b7e57505060011461104f5750610b1b92500383611163565b849150603660005260008051602061171a833981519152906000915b858310611082575050610b1b935082010185610b0e565b8054838901850152879450869390920191810161106b565b919082519283825260005b8481106110c6575050826000602080949584010152601f8019910116010190565b6020818301810151848301820152016110a5565b600435906001600160a01b03821682036101b357565b602435906001600160a01b03821682036101b357565b60406003198201126101b3576004356001600160a01b03811681036101b3579160243567ffffffffffffffff928382116101b357806023830112156101b35781600401359384116101b357602484830101116101b3576024019190565b90601f8019910116810190811067ffffffffffffffff82111761064857604052565b67ffffffffffffffff811161064857601f01601f191660200190565b81601f820112156101b3578035906111b882611185565b926111c66040519485611163565b828452602083830101116101b357816000926020809301838601378301015290565b90600182811c92168015611218575b602083101461120257565b634e487b7160e01b600052602260045260246000fd5b91607f16916111f7565b60ca548110156112595760ca6000527f42d72674974f694b5f5159593243114d38a5c39c89d6b62fee061ff523240ee10190600090565b634e487b7160e01b600052603260045260246000fd5b6001600160a01b038116600081815260c960205260408082205493959194909360ff1661137e57823b1561137a5781606486928651948593849263347d5e2560e21b8452306004850152896024850152816044850152848401378181018301859052601f01601f1916810103018183865af1908161134b575b506112f4575050905090565b825260c96020528120805460ff1916600117905560ca549068010000000000000000821015611337575090610a39826001611332940160ca55611222565b600190565b634e487b7160e01b81526041600452602490fd5b67ffffffffffffffff819592951161136657835292386112e8565b634e487b7160e01b82526041600452602482fd5b8480fd5b835163bdf91dc160e01b8152600490fd5b91908201809211610a9757565b6001600160a01b0390811691821561144d57169182156113fd5760207f8c5be1e5ebec7d5bd14f71427d1e84f3dd0314c0f7b2291e5b200ac8c7c3b925918360005260348252604060002085600052825280604060002055604051908152a3565b60405162461bcd60e51b815260206004820152602260248201527f45524332303a20617070726f766520746f20746865207a65726f206164647265604482015261737360f01b6064820152608490fd5b60405162461bcd60e51b8152602060048201526024808201527f45524332303a20617070726f76652066726f6d20746865207a65726f206164646044820152637265737360e01b6064820152608490fd5b6001600160a01b039081169182156115c557169182156115745760ff609754166104b3576000828152603360205260408120549180831061152057604082827fddf252ad1be2c89b69c2b068fc378daa952ba7f163c4a11628f55a4df523b3ef95876020965260338652038282205586815220818154019055604051908152a3565b60405162461bcd60e51b815260206004820152602660248201527f45524332303a207472616e7366657220616d6f756e7420657863656564732062604482015265616c616e636560d01b6064820152608490fd5b60405162461bcd60e51b815260206004820152602360248201527f45524332303a207472616e7366657220746f20746865207a65726f206164647260448201526265737360e81b6064820152608490fd5b60405162461bcd60e51b815260206004820152602560248201527f45524332303a207472616e736665722066726f6d20746865207a65726f206164604482015264647265737360d81b6064820152608490fd5b6065546001600160a01b0316330361162c57565b606460405162461bcd60e51b815260206004820152602060248201527f4f776e61626c653a2063616c6c6572206973206e6f7420746865206f776e65726044820152fd5b606580546001600160a01b039283166001600160a01b0319821681179092559091167f8be0079c531659141344cd1fd0a4f28419497f9722a3daafe3b4186f6b6457e0600080a3565b156116c057565b60405162461bcd60e51b815260206004820152602b60248201527f496e697469616c697a61626c653a20636f6e7472616374206973206e6f74206960448201526a6e697469616c697a696e6760a81b6064820152608490fdfe4a11f94e20a93c79f6ec743a1954ec4fc2c08429ae2122118bf234b2185c81b842a7b7dd785cd69714a189dffb3fd7d7174edc9ece837694ce50f7078f7c31aea2646970667358221220f8af8ed855378c8ff29eb2cbedc360377befa4038a8ab736c743538f1077f4c664736f6c63430008160033",
  "linkReferences": {},
  "deployedLinkReferences": {}
}