{
  "_format": "hh-sol-artifact-1",
  "contractName": "TokenTemplate_v3_0_0",
  "sourceName": "contracts/TokenTemplate_v3.0.0.sol",
  "abi": [
    {
      "inputs": [],
      "stateMutability": "nonpayable",
      "type": "constructor"
    },
    {
      "anonymous": false,
      "inputs": [
        {
          "indexed": true,
          "internalType": "address",
          "name": "account",
          "type": "address"
        }
      ],
      "name": "AddressBlacklisted",
      "type": "event"
    },
    {
      "anonymous": false,
      "inputs": [
        {
          "indexed": true,
          "internalType": "address",
          "name": "account",
          "type": "address"
        }
      ],
      "name": "AddressUnblacklisted",
      "type": "event"
    },
    {
      "anonymous": false,
      "inputs": [
        {
          "indexed": false,
          "internalType": "address",
          "name": "previousAdmin",
          "type": "address"
        },
        {
          "indexed": false,
          "internalType": "address",
          "name": "newAdmin",
          "type": "address"
        }
      ],
      "name": "AdminChanged",
      "type": "event"
    },
    {
      "anonymous": false,
      "inputs": [
        {
          "indexed": true,
          "internalType": "address",
          "name": "owner",
          "type": "address"
        },
        {
          "indexed": true,
          "internalType": "address",
          "name": "spender",
          "type": "address"
        },
        {
          "indexed": false,
          "internalType": "uint256",
          "name": "value",
          "type": "uint256"
        }
      ],
      "name": "Approval",
      "type": "event"
    },
    {
      "anonymous": false,
      "inputs": [
        {
          "indexed": true,
          "internalType": "address",
          "name": "beacon",
          "type": "address"
        }
      ],
      "name": "BeaconUpgraded",
      "type": "event"
    },
    {
      "anonymous": false,
      "inputs": [
        {
          "indexed": true,
          "internalType": "address",
          "name": "delegator",
          "type": "address"
        },
        {
          "indexed": true,
          "internalType": "address",
          "name": "fromDelegate",
          "type": "address"
        },
        {
          "indexed": true,
          "internalType": "address",
          "name": "toDelegate",
          "type": "address"
        }
      ],
      "name": "DelegateChanged",
      "type": "event"
    },
    {
      "anonymous": false,
      "inputs": [
        {
          "indexed": true,
          "internalType": "address",
          "name": "delegate",
          "type": "address"
        },
        {
          "indexed": false,
          "internalType": "uint256",
          "name": "previousBalance",
          "type": "uint256"
        },
        {
          "indexed": false,
          "internalType": "uint256",
          "name": "newBalance",
          "type": "uint256"
        }
      ],
      "name": "DelegateVotesChanged",
      "type": "event"
    },
    {
      "anonymous": false,
      "inputs": [],
      "name": "EIP712DomainChanged",
      "type": "event"
    },
    {
      "anonymous": false,
      "inputs": [
        {
          "indexed": true,
          "internalType": "address",
          "name": "executor",
          "type": "address"
        }
      ],
      "name": "ExecutorAdded",
      "type": "event"
    },
    {
      "anonymous": false,
      "inputs": [
        {
          "indexed": true,
          "internalType": "address",
          "name": "executor",
          "type": "address"
        }
      ],
      "name": "ExecutorRemoved",
      "type": "event"
    },
    {
      "anonymous": false,
      "inputs": [
        {
          "indexed": true,
          "internalType": "address",
          "name": "governor",
          "type": "address"
        }
      ],
      "name": "GovernorAdded",
      "type": "event"
    },
    {
      "anonymous": false,
      "inputs": [
        {
          "indexed": true,
          "internalType": "address",
          "name": "governor",
          "type": "address"
        }
      ],
      "name": "GovernorRemoved",
      "type": "event"
    },
    {
      "anonymous": false,
      "inputs": [
        {
          "indexed": false,
          "internalType": "uint8",
          "name": "version",
          "type": "uint8"
        }
      ],
      "name": "Initialized",
      "type": "event"
    },
    {
      "anonymous": false,
      "inputs": [
        {
          "indexed": true,
          "internalType": "address",
          "name": "account",
          "type": "address"
        },
        {
          "indexed": false,
          "internalType": "uint256",
          "name": "until",
          "type": "uint256"
        }
      ],
      "name": "LockTimeSet",
      "type": "event"
    },
    {
      "anonymous": false,
      "inputs": [
        {
          "indexed": true,
          "internalType": "address",
          "name": "previousOwner",
          "type": "address"
        },
        {
          "indexed": true,
          "internalType": "address",
          "name": "newOwner",
          "type": "address"
        }
      ],
      "name": "OwnershipTransferred",
      "type": "event"
    },
    {
      "anonymous": false,
      "inputs": [
        {
          "indexed": false,
          "internalType": "address",
          "name": "account",
          "type": "address"
        }
      ],
      "name": "Paused",
      "type": "event"
    },
    {
      "anonymous": false,
      "inputs": [
        {
          "indexed": false,
          "internalType": "uint256",
          "name": "id",
          "type": "uint256"
        }
      ],
      "name": "Snapshot",
      "type": "event"
    },
    {
      "anonymous": false,
      "inputs": [
        {
          "indexed": false,
          "internalType": "uint256",
          "name": "id",
          "type": "uint256"
        }
      ],
      "name": "SnapshotCreated",
      "type": "event"
    },
    {
      "anonymous": false,
      "inputs": [
        {
          "indexed": true,
          "internalType": "address",
          "name": "from",
          "type": "address"
        },
        {
          "indexed": true,
          "internalType": "address",
          "name": "to",
          "type": "address"
        },
        {
          "indexed": false,
          "internalType": "uint256",
          "name": "value",
          "type": "uint256"
        }
      ],
      "name": "Transfer",
      "type": "event"
    },
    {
      "anonymous": false,
      "inputs": [
        {
          "indexed": false,
          "internalType": "bool",
          "name": "locked",
          "type": "bool"
        }
      ],
      "name": "TransfersLocked",
      "type": "event"
    },
    {
      "anonymous": false,
      "inputs": [
        {
          "indexed": false,
          "internalType": "address",
          "name": "account",
          "type": "address"
        }
      ],
      "name": "Unpaused",
      "type": "event"
    },
    {
      "anonymous": false,
      "inputs": [
        {
          "indexed": true,
          "internalType": "address",
          "name": "implementation",
          "type": "address"
        }
      ],
      "name": "Upgraded",
      "type": "event"
    },
    {
      "inputs": [],
      "name": "CLOCK_MODE",
      "outputs": [
        {
          "internalType": "string",
          "name": "",
          "type": "string"
        }
      ],
      "stateMutability": "view",
      "type": "function"
    },
    {
      "inputs": [],
      "name": "DOMAIN_SEPARATOR",
      "outputs": [
        {
          "internalType": "bytes32",
          "name": "",
          "type": "bytes32"
        }
      ],
      "stateMutability": "view",
      "type": "function"
    },
    {
      "inputs": [
        {
          "internalType": "address",
          "name": "executor",
          "type": "address"
        }
      ],
      "name": "addExecutor",
      "outputs": [],
      "stateMutability": "nonpayable",
      "type": "function"
    },
    {
      "inputs": [
        {
          "internalType": "address",
          "name": "governor",
          "type": "address"
        }
      ],
      "name": "addGovernor",
      "outputs": [],
      "stateMutability": "nonpayable",
      "type": "function"
    },
    {
      "inputs": [
        {
          "internalType": "address",
          "name": "owner",
          "type": "address"
        },
        {
          "internalType": "address",
          "name": "spender",
          "type": "address"
        }
      ],
      "name": "allowance",
      "outputs": [
        {
          "internalType": "uint256",
          "name": "",
          "type": "uint256"
        }
      ],
      "stateMutability": "view",
      "type": "function"
    },
    {
      "inputs": [
        {
          "internalType": "address",
          "name": "spender",
          "type": "address"
        },
        {
          "internalType": "uint256",
          "name": "amount",
          "type": "uint256"
        }
      ],
      "name": "approve",
      "outputs": [
        {
          "internalType": "bool",
          "name": "",
          "type": "bool"
        }
      ],
      "stateMutability": "nonpayable",
      "type": "function"
    },
    {
      "inputs": [
        {
          "internalType": "address",
          "name": "account",
          "type": "address"
        }
      ],
      "name": "balanceOf",
      "outputs": [
        {
          "internalType": "uint256",
          "name": "",
          "type": "uint256"
        }
      ],
      "stateMutability": "view",
      "type": "function"
    },
    {
      "inputs": [
        {
          "internalType": "address",
          "name": "account",
          "type": "address"
        },
        {
          "internalType": "uint256",
          "name": "snapshotId",
          "type": "uint256"
        }
      ],
      "name": "balanceOfAt",
      "outputs": [
        {
          "internalType": "uint256",
          "name": "",
          "type": "uint256"
        }
      ],
      "stateMutability": "view",
      "type": "function"
    },
    {
      "inputs": [
        {
          "internalType": "address",
          "name": "account",
          "type": "address"
        }
      ],
      "name": "blacklist",
      "outputs": [],
      "stateMutability": "nonpayable",
      "type": "function"
    },
    {
      "inputs": [
        {
          "internalType": "address",
          "name": "",
          "type": "address"
        }
      ],
      "name": "blacklisted",
      "outputs": [
        {
          "internalType": "bool",
          "name": "",
          "type": "bool"
        }
      ],
      "stateMutability": "view",
      "type": "function"
    },
    {
      "inputs": [
        {
          "internalType": "uint256",
          "name": "amount",
          "type": "uint256"
        }
      ],
      "name": "burn",
      "outputs": [],
      "stateMutability": "nonpayable",
      "type": "function"
    },
    {
      "inputs": [
        {
          "internalType": "address",
          "name": "account",
          "type": "address"
        },
        {
          "internalType": "uint256",
          "name": "amount",
          "type": "uint256"
        }
      ],
      "name": "burnFrom",
      "outputs": [],
      "stateMutability": "nonpayable",
      "type": "function"
    },
    {
      "inputs": [
        {
          "internalType": "address",
          "name": "account",
          "type": "address"
        },
        {
          "internalType": "uint32",
          "name": "pos",
          "type": "uint32"
        }
      ],
      "name": "checkpoints",
      "outputs": [
        {
          "components": [
            {
              "internalType": "uint32",
              "name": "fromBlock",
              "type": "uint32"
            },
            {
              "internalType": "uint224",
              "name": "votes",
              "type": "uint224"
            }
          ],
          "internalType": "struct ERC20VotesUpgradeable.Checkpoint",
          "name": "",
          "type": "tuple"
        }
      ],
      "stateMutability": "view",
      "type": "function"
    },
    {
      "inputs": [],
      "name": "clock",
      "outputs": [
        {
          "internalType": "uint48",
          "name": "",
          "type": "uint48"
        }
      ],
      "stateMutability": "view",
      "type": "function"
    },
    {
      "inputs": [],
      "name": "decimals",
      "outputs": [
        {
          "internalType": "uint8",
          "name": "",
          "type": "uint8"
        }
      ],
      "stateMutability": "view",
      "type": "function"
    },
    {
      "inputs": [
        {
          "internalType": "address",
          "name": "spender",
          "type": "address"
        },
        {
          "internalType": "uint256",
          "name": "subtractedValue",
          "type": "uint256"
        }
      ],
      "name": "decreaseAllowance",
      "outputs": [
        {
          "internalType": "bool",
          "name": "",
          "type": "bool"
        }
      ],
      "stateMutability": "nonpayable",
      "type": "function"
    },
    {
      "inputs": [
        {
          "internalType": "address",
          "name": "delegatee",
          "type": "address"
        }
      ],
      "name": "delegate",
      "outputs": [],
      "stateMutability": "nonpayable",
      "type": "function"
    },
    {
      "inputs": [
        {
          "internalType": "address",
          "name": "delegatee",
          "type": "address"
        },
        {
          "internalType": "uint256",
          "name": "nonce",
          "type": "uint256"
        },
        {
          "internalType": "uint256",
          "name": "expiry",
          "type": "uint256"
        },
        {
          "internalType": "uint8",
          "name": "v",
          "type": "uint8"
        },
        {
          "internalType": "bytes32",
          "name": "r",
          "type": "bytes32"
        },
        {
          "internalType": "bytes32",
          "name": "s",
          "type": "bytes32"
        }
      ],
      "name": "delegateBySig",
      "outputs": [],
      "stateMutability": "nonpayable",
      "type": "function"
    },
    {
      "inputs": [
        {
          "internalType": "address",
          "name": "account",
          "type": "address"
        }
      ],
      "name": "delegates",
      "outputs": [
        {
          "internalType": "address",
          "name": "",
          "type": "address"
        }
      ],
      "stateMutability": "view",
      "type": "function"
    },
    {
      "inputs": [],
      "name": "eip712Domain",
      "outputs": [
        {
          "internalType": "bytes1",
          "name": "fields",
          "type": "bytes1"
        },
        {
          "internalType": "string",
          "name": "name",
          "type": "string"
        },
        {
          "internalType": "string",
          "name": "version",
          "type": "string"
        },
        {
          "internalType": "uint256",
          "name": "chainId",
          "type": "uint256"
        },
        {
          "internalType": "address",
          "name": "verifyingContract",
          "type": "address"
        },
        {
          "internalType": "bytes32",
          "name": "salt",
          "type": "bytes32"
        },
        {
          "internalType": "uint256[]",
          "name": "extensions",
          "type": "uint256[]"
        }
      ],
      "stateMutability": "view",
      "type": "function"
    },
    {
      "inputs": [
        {
          "internalType": "uint256",
          "name": "timepoint",
          "type": "uint256"
        }
      ],
      "name": "getPastTotalSupply",
      "outputs": [
        {
          "internalType": "uint256",
          "name": "",
          "type": "uint256"
        }
      ],
      "stateMutability": "view",
      "type": "function"
    },
    {
      "inputs": [
        {
          "internalType": "address",
          "name": "account",
          "type": "address"
        },
        {
          "internalType": "uint256",
          "name": "timepoint",
          "type": "uint256"
        }
      ],
      "name": "getPastVotes",
      "outputs": [
        {
          "internalType": "uint256",
          "name": "",
          "type": "uint256"
        }
      ],
      "stateMutability": "view",
      "type": "function"
    },
    {
      "inputs": [
        {
          "internalType": "address",
          "name": "account",
          "type": "address"
        }
      ],
      "name": "getVotes",
      "outputs": [
        {
          "internalType": "uint256",
          "name": "",
          "type": "uint256"
        }
      ],
      "stateMutability": "view",
      "type": "function"
    },
    {
      "inputs": [
        {
          "internalType": "address",
          "name": "spender",
          "type": "address"
        },
        {
          "internalType": "uint256",
          "name": "addedValue",
          "type": "uint256"
        }
      ],
      "name": "increaseAllowance",
      "outputs": [
        {
          "internalType": "bool",
          "name": "",
          "type": "bool"
        }
      ],
      "stateMutability": "nonpayable",
      "type": "function"
    },
    {
      "inputs": [
        {
          "internalType": "string",
          "name": "name_",
          "type": "string"
        },
        {
          "internalType": "string",
          "name": "symbol_",
          "type": "string"
        },
        {
          "internalType": "uint256",
          "name": "initialSupply_",
          "type": "uint256"
        },
        {
          "internalType": "uint256",
          "name": "maxSupply_",
          "type": "uint256"
        },
        {
          "internalType": "address",
          "name": "owner_",
          "type": "address"
        }
      ],
      "name": "initialize",
      "outputs": [],
      "stateMutability": "nonpayable",
      "type": "function"
    },
    {
      "inputs": [
        {
          "internalType": "address",
          "name": "",
          "type": "address"
        }
      ],
      "name": "isExecutor",
      "outputs": [
        {
          "internalType": "bool",
          "name": "",
          "type": "bool"
        }
      ],
      "stateMutability": "view",
      "type": "function"
    },
    {
      "inputs": [
        {
          "internalType": "address",
          "name": "",
          "type": "address"
        }
      ],
      "name": "isGovernor",
      "outputs": [
        {
          "internalType": "bool",
          "name": "",
          "type": "bool"
        }
      ],
      "stateMutability": "view",
      "type": "function"
    },
    {
      "inputs": [
        {
          "internalType": "address",
          "name": "",
          "type": "address"
        }
      ],
      "name": "lockTime",
      "outputs": [
        {
          "internalType": "uint256",
          "name": "",
          "type": "uint256"
        }
      ],
      "stateMutability": "view",
      "type": "function"
    },
    {
      "inputs": [],
      "name": "maxSupply",
      "outputs": [
        {
          "internalType": "uint256",
          "name": "",
          "type": "uint256"
        }
      ],
      "stateMutability": "view",
      "type": "function"
    },
    {
      "inputs": [
        {
          "internalType": "address",
          "name": "to",
          "type": "address"
        },
        {
          "internalType": "uint256",
          "name": "amount",
          "type": "uint256"
        }
      ],
      "name": "mint",
      "outputs": [],
      "stateMutability": "nonpayable",
      "type": "function"
    },
    {
      "inputs": [],
      "name": "name",
      "outputs": [
        {
          "internalType": "string",
          "name": "",
          "type": "string"
        }
      ],
      "stateMutability": "view",
      "type": "function"
    },
    {
      "inputs": [
        {
          "internalType": "address",
          "name": "owner",
          "type": "address"
        }
      ],
      "name": "nonces",
      "outputs": [
        {
          "internalType": "uint256",
          "name": "",
          "type": "uint256"
        }
      ],
      "stateMutability": "view",
      "type": "function"
    },
    {
      "inputs": [
        {
          "internalType": "address",
          "name": "account",
          "type": "address"
        }
      ],
      "name": "numCheckpoints",
      "outputs": [
        {
          "internalType": "uint32",
          "name": "",
          "type": "uint32"
        }
      ],
      "stateMutability": "view",
      "type": "function"
    },
    {
      "inputs": [],
      "name": "owner",
      "outputs": [
        {
          "internalType": "address",
          "name": "",
          "type": "address"
        }
      ],
      "stateMutability": "view",
      "type": "function"
    },
    {
      "inputs": [],
      "name": "pause",
      "outputs": [],
      "stateMutability": "nonpayable",
      "type": "function"
    },
    {
      "inputs": [],
      "name": "paused",
      "outputs": [
        {
          "internalType": "bool",
          "name": "",
          "type": "bool"
        }
      ],
      "stateMutability": "view",
      "type": "function"
    },
    {
      "inputs": [
        {
          "internalType": "address",
          "name": "owner",
          "type": "address"
        },
        {
          "internalType": "address",
          "name": "spender",
          "type": "address"
        },
        {
          "internalType": "uint256",
          "name": "value",
          "type": "uint256"
        },
        {
          "internalType": "uint256",
          "name": "deadline",
          "type": "uint256"
        },
        {
          "internalType": "uint8",
          "name": "v",
          "type": "uint8"
        },
        {
          "internalType": "bytes32",
          "name": "r",
          "type": "bytes32"
        },
        {
          "internalType": "bytes32",
          "name": "s",
          "type": "bytes32"
        }
      ],
      "name": "permit",
      "outputs": [],
      "stateMutability": "nonpayable",
      "type": "function"
    },
    {
      "inputs": [],
      "name": "proxiableUUID",
      "outputs": [
        {
          "internalType": "bytes32",
          "name": "",
          "type": "bytes32"
        }
      ],
      "stateMutability": "view",
      "type": "function"
    },
    {
      "inputs": [
        {
          "internalType": "address",
          "name": "executor",
          "type": "address"
        }
      ],
      "name": "removeExecutor",
      "outputs": [],
      "stateMutability": "nonpayable",
      "type": "function"
    },
    {
      "inputs": [
        {
          "internalType": "address",
          "name": "governor",
          "type": "address"
        }
      ],
      "name": "removeGovernor",
      "outputs": [],
      "stateMutability": "nonpayable",
      "type": "function"
    },
    {
      "inputs": [],
      "name": "renounceOwnership",
      "outputs": [],
      "stateMutability": "nonpayable",
      "type": "function"
    },
    {
      "inputs": [
        {
          "internalType": "address",
          "name": "account",
          "type": "address"
        },
        {
          "internalType": "uint256",
          "name": "until",
          "type": "uint256"
        }
      ],
      "name": "setLockTime",
      "outputs": [],
      "stateMutability": "nonpayable",
      "type": "function"
    },
    {
      "inputs": [
        {
          "internalType": "bool",
          "name": "locked",
          "type": "bool"
        }
      ],
      "name": "setTransfersLocked",
      "outputs": [],
      "stateMutability": "nonpayable",
      "type": "function"
    },
    {
      "inputs": [],
      "name": "snapshot",
      "outputs": [
        {
          "internalType": "uint256",
          "name": "",
          "type": "uint256"
        }
      ],
      "stateMutability": "nonpayable",
      "type": "function"
    },
    {
      "inputs": [],
      "name": "symbol",
      "outputs": [
        {
          "internalType": "string",
          "name": "",
          "type": "string"
        }
      ],
      "stateMutability": "view",
      "type": "function"
    },
    {
      "inputs": [],
      "name": "totalSupply",
      "outputs": [
        {
          "internalType": "uint256",
          "name": "",
          "type": "uint256"
        }
      ],
      "stateMutability": "view",
      "type": "function"
    },
    {
      "inputs": [
        {
          "internalType": "uint256",
          "name": "snapshotId",
          "type": "uint256"
        }
      ],
      "name": "totalSupplyAt",
      "outputs": [
        {
          "internalType": "uint256",
          "name": "",
          "type": "uint256"
        }
      ],
      "stateMutability": "view",
      "type": "function"
    },
    {
      "inputs": [
        {
          "internalType": "address",
          "name": "to",
          "type": "address"
        },
        {
          "internalType": "uint256",
          "name": "amount",
          "type": "uint256"
        }
      ],
      "name": "transfer",
      "outputs": [
        {
          "internalType": "bool",
          "name": "",
          "type": "bool"
        }
      ],
      "stateMutability": "nonpayable",
      "type": "function"
    },
    {
      "inputs": [
        {
          "internalType": "address",
          "name": "from",
          "type": "address"
        },
        {
          "internalType": "address",
          "name": "to",
          "type": "address"
        },
        {
          "internalType": "uint256",
          "name": "amount",
          "type": "uint256"
        }
      ],
      "name": "transferFrom",
      "outputs": [
        {
          "internalType": "bool",
          "name": "",
          "type": "bool"
        }
      ],
      "stateMutability": "nonpayable",
      "type": "function"
    },
    {
      "inputs": [
        {
          "internalType": "address",
          "name": "newOwner",
          "type": "address"
        }
      ],
      "name": "transferOwnership",
      "outputs": [],
      "stateMutability": "nonpayable",
      "type": "function"
    },
    {
      "inputs": [],
      "name": "transfersLocked",
      "outputs": [
        {
          "internalType": "bool",
          "name": "",
          "type": "bool"
        }
      ],
      "stateMutability": "view",
      "type": "function"
    },
    {
      "inputs": [
        {
          "internalType": "address",
          "name": "account",
          "type": "address"
        }
      ],
      "name": "unblacklist",
      "outputs": [],
      "stateMutability": "nonpayable",
      "type": "function"
    },
    {
      "inputs": [],
      "name": "unpause",
      "outputs": [],
      "stateMutability": "nonpayable",
      "type": "function"
    },
    {
      "inputs": [
        {
          "internalType": "address",
          "name": "newImplementation",
          "type": "address"
        }
      ],
      "name": "upgradeTo",
      "outputs": [],
      "stateMutability": "nonpayable",
      "type": "function"
    },
    {
      "inputs": [
        {
          "internalType": "address",
          "name": "newImplementation",
          "type": "address"
        },
        {
          "internalType": "bytes",
          "name": "data",
          "type": "bytes"
        }
      ],
      "name": "upgradeToAndCall",
      "outputs": [],
      "stateMutability": "payable",
      "type": "function"
    }
  ],
  "bytecode": "0x60a08060405234620000e157306080526000549060ff8260081c166200008f575060ff8082160362000053575b604051614cc09081620000e782396080518181816109e60152818161113301526112490152f35b60ff90811916176000557f7f26b83ff96e1f2b6a682f133852f6798a09c465da95921460cefb3847402498602060405160ff8152a1386200002c565b62461bcd60e51b815260206004820152602760248201527f496e697469616c697a61626c653a20636f6e747261637420697320696e697469604482015266616c697a696e6760c81b6064820152608490fd5b600080fdfe6080604052600436101561001257600080fd5b60003560e01c806306fdde0314610387578063095ea7b3146103825780630eda3c551461037d57806318160ddd146103785780631f5a0bbe1461037357806323b872dd1461036e5780632478842914610369578063313ce5671461036457806333eea1811461035f5780633644e5151461035a5780633659cfe61461035557806339509351146103505780633a46b1a81461034b5780633c4a25d0146103465780633f4ba83a1461034157806340c10f191461033c57806342966c68146103375780634bf5d7e9146103325780634ee2cd7e1461032d5780634f1ef2861461032857806352d1902d14610323578063587cde1e1461031e5780635c19a95c146103195780635c975abb146103145780636fcfff451461030f57806370a082311461030a578063715018a61461030557806375e3661e1461030057806379cc6790146102fb5780637ecebe00146102f657806383f1211b146102f15780638456cb59146102ec57806384b0196e146102e75780638da5cb5b146102e25780638e539e8c146102dd57806391ddadf4146102d857806395d89b41146102d35780639711715a146102ce578063981b24d0146102c95780639ab24eb0146102c4578063a457c2d7146102bf578063a4beda63146102ba578063a9059cbb146102b5578063c3cda520146102b0578063d505accf146102ab578063d5abeb01146102a6578063dbac26e9146102a1578063dd62ed3e1461029c578063debfda3014610297578063e43581b814610292578063ebba56441461028d578063eecdac8814610288578063f1127ed814610283578063f2fde38b1461027e5763f9f92be41461027957600080fd5b612289565b6121fc565b612175565b61210c565b61201e565b611fde565b611f9e565b611f46565b611f06565b611ee7565b611da1565b611c76565b611c30565b611bf5565b611b3b565b611ad9565b611aa1565b6119e4565b61193c565b611910565b611820565b6117f6565b61175b565b61160f565b6115eb565b6115b1565b6114f4565b61145d565b6113fe565b6113c4565b61137c565b611358565b611336565b6112fb565b611236565b6110e4565b611081565b610fcf565b610eec565b610e34565b610d6f565b610cb8565b610b67565b610b0f565b6109c3565b6109a0565b610873565b610749565b6106e0565b6106a8565b6105f1565b6105d3565b610541565b610510565b6103e0565b919082519283825260005b8481106103b8575050826000602080949584010152601f8019910116010190565b602081830181015184830182015201610397565b9060206103dd92818152019061038c565b90565b346104c9576000806003193601126104c65760405190806036549061040482612323565b808552916020916001918281169081156104995750600114610441575b61043d86610431818803826107d4565b604051918291826103cc565b0390f35b9350603684527f4a11f94e20a93c79f6ec743a1954ec4fc2c08429ae2122118bf234b2185c81b85b838510610486575050505081016020016104318261043d38610421565b8054868601840152938201938101610469565b905086955061043d9693506020925061043194915060ff191682840152151560051b820101929338610421565b80fd5b600080fd5b600435906001600160a01b03821682036104c957565b602435906001600160a01b03821682036104c957565b608435906001600160a01b03821682036104c957565b346104c95760403660031901126104c95761053661052c6104ce565b602435903361291a565b602060405160018152f35b346104c95760203660031901126104c9576004358015158091036104c95760207f9ddd47c2f6885141f8b9fae4efb3b014c9924b43533c72f09e0a26a34b03c911913360005261025e825260ff6040600020541680156105be575b6105a5906124c0565b61025d60ff1981541660ff8316179055604051908152a1005b506101c6546001600160a01b0316331461059c565b346104c95760003660031901126104c9576020603554604051908152f35b346104c95760203660031901126104c95761060a6104ce565b610612612a4a565b6001600160a01b0316801561066357600081815261025f60205260408120805460ff19166001179055907fae5b7c3b000f575c241001dc9bcb3d8778376889353b07121115574eceff78c58280a280f35b60405162461bcd60e51b815260206004820152601f60248201527f4578656375746f722063616e6e6f74206265207a65726f2061646472657373006044820152606490fd5b346104c95760603660031901126104c9576105366106c46104ce565b6106cc6104e4565b604435916106db833383612aa3565b612bef565b346104c95760203660031901126104c9576106f96104ce565b610701612a4a565b6001600160a01b0316600081815261025f60205260408120805460ff19169055907f4a2cf608bfb427f53279ec7f0eadf48913b9346ccefc3af138dbdec14ea0907d8280a280f35b346104c95760003660031901126104c957602060405160128152f35b634e487b7160e01b600052604160045260246000fd5b6040810190811067ffffffffffffffff82111761079757604052565b610765565b6020810190811067ffffffffffffffff82111761079757604052565b6060810190811067ffffffffffffffff82111761079757604052565b90601f8019910116810190811067ffffffffffffffff82111761079757604052565b604051906108038261077b565b565b67ffffffffffffffff811161079757601f01601f191660200190565b92919261082d82610805565b9161083b60405193846107d4565b8294818452818301116104c9578281602093846000960137010152565b9080601f830112156104c9578160206103dd93359101610821565b346104c95760a03660031901126104c95767ffffffffffffffff6004358181116104c9576108a5903690600401610858565b906024359081116104c9576108c1610914913690600401610858565b6108c96104fa565b90600054936108ef60ff8660081c161580968197610992575b8115610972575b506124fd565b84610902600160ff196000541617600055565b610959575b6064359160443591612560565b61091a57005b61092a61ff001960005416600055565b604051600181527f7f26b83ff96e1f2b6a682f133852f6798a09c465da95921460cefb384740249890602090a1005b61096d61010061ff00196000541617600055565b610907565b303b15915081610984575b50386108e9565b6001915060ff16143861097d565b600160ff82161091506108e2565b346104c95760003660031901126104c95760206109bb613bcb565b604051908152f35b346104c95760203660031901126104c9576109dc6104ce565b6001600160a01b037f000000000000000000000000000000000000000000000000000000000000000081169190610a1530841415612685565b610a32600080516020614c4b8339815191529382855416146126e6565b610a3a612a4a565b60405190610a478261079c565b600082527f4910fdfa16fed3260ed0e7147f7cc6da11a60208b5b9406d12a635614ffd91435460ff1615610a83575050610a819150613d7b565b005b6020600491604094939451928380926352d1902d60e01b825286165afa60009181610ade575b50610acb5760405162461bcd60e51b815280610ac7600482016130b4565b0390fd5b610a8193610ad99114613056565b613c41565b610b0191925060203d602011610b08575b610af981836107d4565b810190613047565b9038610aa9565b503d610aef565b346104c95760403660031901126104c957610b286104ce565b3360009081526034602090815260408083206001600160a01b03851684529091529020546024358101809111610b6257610536913361291a565b612747565b346104c95760403660031901126104c957610b806104ce565b60243590610b9f65ffffffffffff610b974361330b565b168310612778565b6001600160a01b0316600090815260cd6020526040812080549290918360058111610c67575b50905b838210610c1657505081610bef575050602060005b6040516001600160e01b039091168152f35b610c0a610c1191602093600019019060005260206000200190565b5460201c90565b610bdd565b9092610c228185613f95565b908263ffffffff610c47610c3d858860005260206000200190565b5463ffffffff1690565b161115610c575750925b90610bc8565b9350610c629061275d565b610c51565b80610c77610c7d92969396613e2b565b90613112565b908263ffffffff610c98610c3d858860005260206000200190565b161115610ca85750925b38610bc5565b9350610cb39061275d565b610ca2565b346104c95760203660031901126104c957610cd16104ce565b610cd9612a4a565b6001600160a01b03168015610d2a57600081815261025e60205260408120805460ff19166001179055907fdc5a48d79e2e147530ff63ecdbed5a5a66adb9d5cf339384d5d076da197c40b58280a280f35b60405162461bcd60e51b815260206004820152601f60248201527f476f7665726e6f722063616e6e6f74206265207a65726f2061646472657373006044820152606490fd5b346104c9576000806003193601126104c65733815261025e60205260ff6040822054168015610e1f575b610da2906124c0565b610162805460ff811615610de35760ff191690557f5db9ee0a495bf2e6ff9c91a7834c1ba4fdd244a5e8aa4e537bd38aeae4b073aa6020604051338152a180f35b60405162461bcd60e51b815260206004820152601460248201527314185d5cd8589b194e881b9bdd081c185d5cd95960621b6044820152606490fd5b506101c6546001600160a01b03163314610d99565b346104c95760403660031901126104c957610e4d6104ce565b6024353360005261025e60205260ff604060002054168015610ed7575b610e73906124c0565b603554818101809111610b625761025c5410610e9257610a8191613a54565b60405162461bcd60e51b815260206004820152601760248201527f576f756c6420657863656564206d617820737570706c790000000000000000006044820152606490fd5b506101c6546001600160a01b03163314610e6a565b346104c95760203660031901126104c9576004353315610f8057610a8190610f1333613440565b336000908152603360205260409020819054610f31828210156149ad565b3360009081526033602052604090209190039055610f528160355403603555565b6040518181526000903390600080516020614c6b83398151915290602090a3610f7b813361459c565b614728565b60405162461bcd60e51b815260206004820152602160248201527f45524332303a206275726e2066726f6d20746865207a65726f206164647265736044820152607360f81b6064820152608490fd5b346104c95760003660031901126104c9574365ffffffffffff610ff14361330b565b160361103c5761043d6040516110068161077b565b601d81527f6d6f64653d626c6f636b6e756d6265722666726f6d3d64656661756c740000006020820152604051918291826103cc565b60405162461bcd60e51b815260206004820152601d60248201527f4552433230566f7465733a2062726f6b656e20636c6f636b206d6f64650000006044820152606490fd5b346104c95760403660031901126104c9576001600160a01b036110a26104ce565b168060005260fe6020526110bc60406000206024356131f0565b90156110ce5760209150604051908152f35b50600052603360205260206040600020546109bb565b60403660031901126104c9576110f86104ce565b60243567ffffffffffffffff81116104c957366023820112156104c957611129903690602481600401359101610821565b6001600160a01b037f0000000000000000000000000000000000000000000000000000000000000000811692919061116330851415612685565b611180600080516020614c4b8339815191529482865416146126e6565b611188612a4a565b7f4910fdfa16fed3260ed0e7147f7cc6da11a60208b5b9406d12a635614ffd91435460ff16156111be575050610a819150613d7b565b6020600491604094939451928380926352d1902d60e01b825286165afa60009181611215575b506112025760405162461bcd60e51b815280610ac7600482016130b4565b610a81936112109114613056565b613d26565b61122f91925060203d602011610b0857610af981836107d4565b90386111e4565b346104c95760003660031901126104c9577f00000000000000000000000000000000000000000000000000000000000000006001600160a01b0316300361129057604051600080516020614c4b8339815191528152602090f35b60405162461bcd60e51b815260206004820152603860248201527f555550535570677261646561626c653a206d757374206e6f742062652063616c60448201527f6c6564207468726f7567682064656c656761746563616c6c00000000000000006064820152608490fd5b346104c95760203660031901126104c95760206001600160a01b038061131f6104ce565b1660005260cc825260406000205416604051908152f35b346104c95760203660031901126104c957610a816113526104ce565b3361322d565b346104c95760003660031901126104c957602060ff61016254166040519015158152f35b346104c95760203660031901126104c9576001600160a01b0361139d6104ce565b1660005260cd60205260206113b66040600020546132a6565b63ffffffff60405191168152f35b346104c95760203660031901126104c9576001600160a01b036113e56104ce565b1660005260336020526020604060002054604051908152f35b346104c9576000806003193601126104c657611418612a4a565b6101c680546001600160a01b0319811690915581906001600160a01b03167f8be0079c531659141344cd1fd0a4f28419497f9722a3daafe3b4186f6b6457e08280a380f35b346104c95760203660031901126104c9576114766104ce565b60009033825261025e60205260ff60408320541680156114df575b61149a906124c0565b6001600160a01b031680825261026060205260408220805460ff191690557fb2aa8f2cce614e8fceaca560dbaf2a8ed3083e4ab371b10bf6d02e359216767a8280a280f35b506101c6546001600160a01b03163314611491565b346104c95760403660031901126104c95761150d6104ce565b60243561151b813384612aa3565b6001600160a01b038216918215610f805781816000610a8195611540610f7b95613440565b6001600160a01b0383166000908152603360205260409020849054611567828210156149ad565b036115848460018060a01b03166000526033602052604060002090565b556115928460355403603555565b604051848152600080516020614c6b83398151915290602090a361459c565b346104c95760203660031901126104c9576001600160a01b036115d26104ce565b1660005260996020526020604060002054604051908152f35b346104c95760003660031901126104c957602060ff61025d54166040519015158152f35b346104c9576000806003193601126104c65733815261025e60205260ff60408220541680156116be575b611642906124c0565b610162805460ff81166116865760019060ff19161790557f62e78cea01bee320cd4e420270b5ea74000d11b0c9f74754ebdbfc544b05a2586020604051338152a180f35b60405162461bcd60e51b815260206004820152601060248201526f14185d5cd8589b194e881c185d5cd95960821b6044820152606490fd5b506101c6546001600160a01b03163314611639565b9161170790949194600f60f81b84526116f960209660e0602087015260e086019061038c565b90848203604086015261038c565b92606083015260018060a01b03166080820152600060a082015260c08183039101526020808451928381520193019160005b828110611747575050505090565b835185529381019392810192600101611739565b346104c95760003660031901126104c95760655415806117ec575b156117af5761178361235d565b61178b612421565b9061043d60405161179b8161079c565b6000815260405193849330914691866116d3565b60405162461bcd60e51b81526020600482015260156024820152741152540dcc4c8e88155b9a5b9a5d1a585b1a5e9959605a1b6044820152606490fd5b5060665415611776565b346104c95760003660031901126104c9576101c6546040516001600160a01b039091168152602090f35b346104c95760203660031901126104c95760043561184f65ffffffffffff6118474361330b565b168210612778565b60ce5490600082600581116118cd575b50905b82821061188e57828061187c575060405160008152602090f35b610c11610c0a60209260001901613f6b565b909161189a8184613f95565b908263ffffffff6118ad610c3d85613f6b565b1611156118bd5750915b90611862565b92506118c89061275d565b6118b7565b80610c776118dd92959395613e2b565b908263ffffffff6118f0610c3d85613f6b565b1611156119005750915b3861185f565b925061190b9061275d565b6118fa565b346104c95760003660031901126104c957602061192c4361330b565b65ffffffffffff60405191168152f35b346104c9576000806003193601126104c65760405190806037549061196082612323565b80855291602091600191828116908115610499575060011461198c5761043d86610431818803826107d4565b9350603784527f42a7b7dd785cd69714a189dffb3fd7d7174edc9ece837694ce50f7078f7c31ae5b8385106119d1575050505081016020016104318261043d38610421565b80548686018401529382019381016119b4565b346104c95760003660031901126104c9573360005261025e60205260ff604060002054168015611a8c575b611a18906124c0565b61043d61010160018154018091557f8030e83b04d87bef53480e26263266d6ca66863aa8506aca6f2559d18aa1cb676020604051838152a16040518181527fb3f0c2b18fd39e8cee5f554c26a84565b651237746f9b33337e40d5abab7340090602090a16040519081529081906020820190565b506101c6546001600160a01b03163314611a0f565b346104c95760203660031901126104c957611abd60043561316b565b9015611ace57602090604051908152f35b5060206035546109bb565b346104c95760203660031901126104c9576001600160a01b03611afa6104ce565b1660005260cd602052604060002080548015600014611b2157505060405160008152602090f35b602091611b32916000190190612848565b5054811c610bdd565b346104c95760403660031901126104c957611b546104ce565b60243590336000526034602052611b818160406000209060018060a01b0316600052602052604060002090565b5491808310611ba257611b969203903361291a565b60405160018152602090f35b60405162461bcd60e51b815260206004820152602560248201527f45524332303a2064656372656173656420616c6c6f77616e63652062656c6f77604482015264207a65726f60d81b6064820152608490fd5b346104c95760203660031901126104c9576001600160a01b03611c166104ce565b166000526102616020526020604060002054604051908152f35b346104c95760403660031901126104c957610536611c4c6104ce565b6024359033612bef565b6064359060ff821682036104c957565b6084359060ff821682036104c957565b346104c95760c03660031901126104c957611c8f6104ce565b60443590602435611c9e611c56565b92804211611d5c57611d2e611d5791610a819560405190611d1682611d086020820195898b8860609194939260808201957fe48329057bfd03d55e49b547132e39cffd9c1820ad7b9d4c5307691425d15adf835260018060a01b0316602083015260408201520152565b03601f1981018452836107d4565b611d2960a4359360843593519020613372565b613398565b6001600160a01b0381166000908152609960205260409020805460018101909155909214612860565b61322d565b60405162461bcd60e51b815260206004820152601d60248201527f4552433230566f7465733a207369676e617475726520657870697265640000006044820152606490fd5b346104c95760e03660031901126104c957611dba6104ce565b611dc26104e4565b6044359060643592611dd2611c66565b93804211611ea257611e8a611e9d91611d08610a8197611e77611e108760018060a01b03166000526099602052604060002090815491600183019055565b604080517f6e71edae12b1b97f4d1f60370fef10105fa2faae0126114a169c64845d6126c9602082019081526001600160a01b03808c1693830193909352918b166060820152608081018c905260a081019290925260c082019590955292839060e0820190565b611d2960c4359360a43593519020613372565b6001600160a01b038381169116146128ac565b61291a565b60405162461bcd60e51b815260206004820152601d60248201527f45524332305065726d69743a206578706972656420646561646c696e650000006044820152606490fd5b346104c95760003660031901126104c957602061025c54604051908152f35b346104c95760203660031901126104c9576001600160a01b03611f276104ce565b16600052610260602052602060ff604060002054166040519015158152f35b346104c95760403660031901126104c9576020611f95611f646104ce565b611f6c6104e4565b6001600160a01b0391821660009081526034855260408082209290931681526020919091522090565b54604051908152f35b346104c95760203660031901126104c9576001600160a01b03611fbf6104ce565b1660005261025f602052602060ff604060002054166040519015158152f35b346104c95760203660031901126104c9576001600160a01b03611fff6104ce565b1660005261025e602052602060ff604060002054166040519015158152f35b346104c95760403660031901126104c9576120376104ce565b602435903360005261025e60205260ff6040600020541680156120f7575b61205e906124c0565b428211156120b2576001600160a01b031660008181526102616020908152604091829020849055905192835290917f63b31acc5f48685e2d1a788ebac446eb418ab2ef16aefa7da5c790f35daea6fd9190a2005b60405162461bcd60e51b815260206004820152601b60248201527f4c6f636b2074696d65206d75737420626520696e2066757475726500000000006044820152606490fd5b506101c6546001600160a01b03163314612055565b346104c95760203660031901126104c9576121256104ce565b61212d612a4a565b6001600160a01b0316600081815261025e60205260408120805460ff19169055907f1ebe834e73d60a5fec822c1e1727d34bc79f2ad977ed504581cc1822fe20fb5b8280a280f35b346104c95760403660031901126104c95761218e6104ce565b63ffffffff60243581811681036104c9576121d86121de916040946000602087516121b88161077b565b82815201526001600160a01b0316600090815260cd602052859020612848565b506128f8565b8251815190921682526020908101516001600160e01b031690820152f35b346104c95760203660031901126104c9576122156104ce565b61221d612a4a565b6001600160a01b0381161561223557610a8190612ffd565b60405162461bcd60e51b815260206004820152602660248201527f4f776e61626c653a206e6577206f776e657220697320746865207a65726f206160448201526564647265737360d01b6064820152608490fd5b346104c95760203660031901126104c9576122a26104ce565b60009033825261025e60205260ff604083205416801561230e575b6122c6906124c0565b6001600160a01b031680825261026060205260408220805460ff191660011790557fdaf49ab9345b6cb75bcb5a7f726bff9183c34dcf5c098c385730f9fd893765f68280a280f35b506101c6546001600160a01b031633146122bd565b90600182811c92168015612353575b602083101461233d57565b634e487b7160e01b600052602260045260246000fd5b91607f1691612332565b604051906000826067549161237183612323565b808352926020906001908181169081156123fd575060011461239c575b5050610803925003836107d4565b91509260676000527f9787eeb91fe3101235e4a76063c7023ecb40f923f97916639c598592fa30d6ae936000925b8284106123e55750610803945050508101602001388061238e565b855488850183015294850194879450928101926123ca565b9150506020925061080394915060ff191682840152151560051b820101388061238e565b604051906000826068549161243583612323565b808352926020906001908181169081156123fd575060011461245f575050610803925003836107d4565b91509260686000527fa2153420d844928b4421650203c77babc8b33d7f2e7b450e2966db0c22097753936000925b8284106124a85750610803945050508101602001388061238e565b8554888501830152948501948794509281019261248d565b156124c757565b60405162461bcd60e51b815260206004820152600e60248201526d139bdd08185d5d1a1bdc9a5e995960921b6044820152606490fd5b1561250457565b60405162461bcd60e51b815260206004820152602e60248201527f496e697469616c697a61626c653a20636f6e747261637420697320616c72656160448201526d191e481a5b9a5d1a585b1a5e995960921b6064820152608490fd5b909392828110612634576001600160a01b038416156125ef576125aa8261258d610803976125c895612d55565b612595612e6c565b61259d612e7d565b6125a5612e6c565b612e9f565b6125b2612e6c565b6125ba612fe3565b6125c2612e6c565b61025c55565b61025d805460ff19169055806125df575b50612ffd565b6125e99082613a54565b386125d9565b60405162461bcd60e51b815260206004820152601c60248201527f4f776e65722063616e6e6f74206265207a65726f2061646472657373000000006044820152606490fd5b60405162461bcd60e51b8152602060048201526024808201527f4d617820737570706c79206d757374206265203e3d20696e697469616c20737560448201526370706c7960e01b6064820152608490fd5b1561268c57565b60405162461bcd60e51b815260206004820152602c60248201527f46756e6374696f6e206d7573742062652063616c6c6564207468726f7567682060448201526b19195b1959d85d1958d85b1b60a21b6064820152608490fd5b156126ed57565b60405162461bcd60e51b815260206004820152602c60248201527f46756e6374696f6e206d7573742062652063616c6c6564207468726f7567682060448201526b6163746976652070726f787960a01b6064820152608490fd5b634e487b7160e01b600052601160045260246000fd5b9060018201809211610b6257565b91908201809211610b6257565b1561277f57565b60405162461bcd60e51b815260206004820152601960248201527f4552433230566f7465733a20667574757265206c6f6f6b7570000000000000006044820152606490fd5b61010080548210156127fb576000527f45e010b9ae401e2eb71529478da8bd513a9bdc2d095a111e324f5b95c09ed87b0190600090565b634e487b7160e01b600052603260045260246000fd5b60ff548110156127fb5760ff6000527fe08ec2af2cfc251225e1968fd6ca21e4044f129bffa95bac3503be8bdb30a3670190600090565b80548210156127fb5760005260206000200190600090565b1561286757565b60405162461bcd60e51b815260206004820152601960248201527f4552433230566f7465733a20696e76616c6964206e6f6e6365000000000000006044820152606490fd5b156128b357565b60405162461bcd60e51b815260206004820152601e60248201527f45524332305065726d69743a20696e76616c6964207369676e617475726500006044820152606490fd5b906040516129058161077b565b602081935463ffffffff81168352811c910152565b6001600160a01b0380821692919083156129f95782169384156129a957806129937f8c5be1e5ebec7d5bd14f71427d1e84f3dd0314c0f7b2291e5b200ac8c7c3b9259461297c6129a49560018060a01b03166000526034602052604060002090565b9060018060a01b0316600052602052604060002090565b556040519081529081906020820190565b0390a3565b60405162461bcd60e51b815260206004820152602260248201527f45524332303a20617070726f766520746f20746865207a65726f206164647265604482015261737360f01b6064820152608490fd5b60405162461bcd60e51b8152602060048201526024808201527f45524332303a20617070726f76652066726f6d20746865207a65726f206164646044820152637265737360e01b6064820152608490fd5b6101c6546001600160a01b03163303612a5f57565b606460405162461bcd60e51b815260206004820152602060248201527f4f776e61626c653a2063616c6c6572206973206e6f7420746865206f776e65726044820152fd5b6001600160a01b038082166000908152603460209081526040808320938616835292905220909190549260018401612adc575b50505050565b808410612af757612aee93039161291a565b38808080612ad6565b60405162461bcd60e51b815260206004820152601d60248201527f45524332303a20696e73756666696369656e7420616c6c6f77616e63650000006044820152606490fd5b15612b4357565b60405162461bcd60e51b815260206004820152602360248201527f45524332303a207472616e7366657220746f20746865207a65726f206164647260448201526265737360e81b6064820152608490fd5b15612b9b57565b60405162461bcd60e51b815260206004820152602660248201527f45524332303a207472616e7366657220616d6f756e7420657863656564732062604482015265616c616e636560d01b6064820152608490fd5b6001600160a01b039291908381168015612ca25761080394831690612c15821515612b3c565b612c1f8484613529565b6001600160a01b0383166000908152603360205260409020859054612c4682821015612b94565b03612c638460018060a01b03166000526033602052604060002090565b556001600160a01b0384166000908152603360209081526040918290208054880190559051868152600080516020614c6b8339815191529190a3614635565b60405162461bcd60e51b815260206004820152602560248201527f45524332303a207472616e736665722066726f6d20746865207a65726f206164604482015264647265737360d81b6064820152608490fd5b15612cfc57565b60405162461bcd60e51b815260206004820152602b60248201527f496e697469616c697a61626c653a20636f6e7472616374206973206e6f74206960448201526a6e697469616c697a696e6760a81b6064820152608490fd5b612d6f60ff60005460081c16612d6a81612cf5565b612cf5565b80519067ffffffffffffffff821161079757612d9582612d90603654612323565b61365d565b602090816001601f851114612de057509180612dcd926108039594600092612dd5575b50508160011b916000199060031b1c19161790565b603655613825565b015190503880612db8565b60366000529190601f1984167f4a11f94e20a93c79f6ec743a1954ec4fc2c08429ae2122118bf234b2185c81b8936000905b828210612e5457505091600193918561080397969410612e3b575b505050811b01603655613825565b015160001960f88460031b161c19169055388080612e2d565b80600186978294978701518155019601940190612e12565b61080360ff60005460081c16612cf5565b612e9260ff60005460081c16612d6a81612cf5565b610162805460ff19169055565b9060ff60005460081c1691612eb383612cf5565b60405190612ec08261077b565b60019360018352612edc602091603160f81b6020860152612cf5565b81519167ffffffffffffffff831161079757612f0283612efd606754612323565b6136cf565b602091601f8411600114612f565750612f42949550918091612f3a93600092612dd55750508160011b916000199060031b1c19161790565b60675561390a565b612f4c6000606555565b6108036000606655565b60676000529195601f198416907f9787eeb91fe3101235e4a76063c7023ecb40f923f97916639c598592fa30d6ae936000915b838310612fcc5750505095839291600194612f42979810612fb3575b505050811b0160675561390a565b015160001960f88460031b161c19169055388080612fa5565b848a01518655988101989485019491810191612f89565b612ff860ff60005460081c16612d6a81612cf5565b610803335b6101c680546001600160a01b039283166001600160a01b0319821681179092559091167f8be0079c531659141344cd1fd0a4f28419497f9722a3daafe3b4186f6b6457e0600080a3565b908160209103126104c9575190565b1561305d57565b60405162461bcd60e51b815260206004820152602960248201527f45524331393637557067726164653a20756e737570706f727465642070726f786044820152681a58589b195555525160ba1b6064820152608490fd5b60809060208152602e60208201527f45524331393637557067726164653a206e657720696d706c656d656e7461746960408201526d6f6e206973206e6f74205555505360901b60608201520190565b600019810191908211610b6257565b91908203918211610b6257565b1561312657565b60405162461bcd60e51b815260206004820152601d60248201527f4552433230536e617073686f743a206e6f6e6578697374656e742069640000006044820152606490fd5b80156131b257613189906131846101015482111561311f565b613faa565b60ff54810361319b5750600090600090565b6131a4906127c4565b90549060031b1c9060019190565b60405162461bcd60e51b815260206004820152601660248201527504552433230536e617073686f743a20696420697320360541b6044820152606490fd5b80156131b25761320f906132096101015482111561311f565b8261407b565b81548103613221575050600090600090565b60016131a49201612848565b6108039160018060a01b0380921660009281845260cc60205280604085205416809260336020527f3134e8a2e6d97e929a7e54011ea5485d7d196dd5f0ba4d4ef95803e8e3fc257f60408720549660cc6020526040812094871694856bffffffffffffffffffffffff60a01b82541617905580a4614106565b63ffffffff908181116132b7571690565b60405162461bcd60e51b815260206004820152602660248201527f53616665436173743a2076616c756520646f65736e27742066697420696e203360448201526532206269747360d01b6064820152608490fd5b65ffffffffffff9081811161331e571690565b60405162461bcd60e51b815260206004820152602660248201527f53616665436173743a2076616c756520646f65736e27742066697420696e203460448201526538206269747360d01b6064820152608490fd5b60429061337d613bcb565b906040519161190160f01b8352600283015260228201522090565b916103dd93916133a793614321565b9190916143d0565b156133b657565b60405162461bcd60e51b81526020600482015260166024820152751059191c995cdcc81a5cc8189b1858dadb1a5cdd195960521b6044820152606490fd5b156133fb57565b60405162461bcd60e51b815260206004820152601c60248201527f53656e6465722069732074656d706f726172696c79206c6f636b6564000000006044820152606490fd5b60ff61025d54166134ed576001600160a01b03811660009081526102606020526040902054610803919060ff1615806134a8575b61347d906133af565b6001600160a01b0381166000908152610261602052604090206134a3905b5442116133f4565b6144f0565b50600080526102606020527f8dd491e0ad9ae7454c5a74470f0e634b353249b0dce5f9461c5c3b5b879eb2175461347d9060ff16156134e6565b1590565b9050613474565b60405162461bcd60e51b8152602060048201526014602482015273151c985b9cd9995c9cc8185c99481b1bd8dad95960621b6044820152606490fd5b9060ff61025d54166134ed576001600160a01b0382166000908152610260602052604090205460ff161580613639575b613562906133af565b6001600160a01b0382166000908152610261602052604090206135849061349b565b6001600160a01b0382811661360b575061359e9150614a6d565b6135a6614ab5565b60ff61016254166135b357565b60405162461bcd60e51b815260206004820152602a60248201527f45524332305061757361626c653a20746f6b656e207472616e736665722077686044820152691a5b19481c185d5cd95960b21b6064820152608490fd5b8116613628575061361b90614a6d565b613623614ab5565b6135a6565b61363461362392614a6d565b614a6d565b506001600160a01b0381166000908152610260602052604090205460ff1615613559565b601f8111613669575050565b60009060366000527f4a11f94e20a93c79f6ec743a1954ec4fc2c08429ae2122118bf234b2185c81b8906020601f850160051c830194106136c5575b601f0160051c01915b8281106136ba57505050565b8181556001016136ae565b90925082906136a5565b601f81116136db575050565b60009060676000527f9787eeb91fe3101235e4a76063c7023ecb40f923f97916639c598592fa30d6ae906020601f850160051c83019410613737575b601f0160051c01915b82811061372c57505050565b818155600101613720565b9092508290613717565b601f811161374d575050565b60009060376000527f42a7b7dd785cd69714a189dffb3fd7d7174edc9ece837694ce50f7078f7c31ae906020601f850160051c830194106137a9575b601f0160051c01915b82811061379e57505050565b818155600101613792565b9092508290613789565b601f81116137bf575050565b60009060686000527fa2153420d844928b4421650203c77babc8b33d7f2e7b450e2966db0c22097753906020601f850160051c8301941061381b575b601f0160051c01915b82811061381057505050565b818155600101613804565b90925082906137fb565b90815167ffffffffffffffff81116107975761384b81613846603754612323565b613741565b602080601f83116001146138825750819061387d9394600092612dd55750508160011b916000199060031b1c19161790565b603755565b90601f198316946138b560376000527f42a7b7dd785cd69714a189dffb3fd7d7174edc9ece837694ce50f7078f7c31ae90565b926000905b8782106138f25750508360019596106138d9575b505050811b01603755565b015160001960f88460031b161c191690553880806138ce565b806001859682949686015181550195019301906138ba565b90815167ffffffffffffffff8111610797576139308161392b606854612323565b6137b3565b602080601f8311600114613967575081906139629394600092612dd55750508160011b916000199060031b1c19161790565b606855565b90601f1983169461399a60686000527fa2153420d844928b4421650203c77babc8b33d7f2e7b450e2966db0c2209775390565b926000905b8782106139d75750508360019596106139be575b505050811b01606855565b015160001960f88460031b161c191690553880806139b3565b8060018596829496860151815501950193019061399f565b156139f657565b60405162461bcd60e51b815260206004820152603060248201527f4552433230566f7465733a20746f74616c20737570706c79207269736b73206f60448201526f766572666c6f77696e6720766f74657360801b6064820152608490fd5b6001600160a01b03811691908215613b865760ff61025d54166134ed5781613b3291613b4d9460008052610260602052613a976134e2604060002060ff90541690565b80613b51575b613aa6906133af565b60008052610261602052613ad97f810e8fe4fe9a4c584426725e7030d2ec17b08450bbd13e8c6e2bf013e1b960e561349b565b613ae282614593565b613af6613af18460355461276b565b603555565b6001600160a01b038216600090815260336020908152604080832080548701905551858152600080516020614c6b8339815191529190a36145ea565b603554613b48906001600160e01b0310156139ef565b614818565b5050565b50613aa6613b7f6134e2613b788560018060a01b0316600052610260602052604060002090565b5460ff1690565b9050613a9d565b60405162461bcd60e51b815260206004820152601f60248201527f45524332303a206d696e7420746f20746865207a65726f2061646472657373006044820152606490fd5b613bd361492a565b613bdb614975565b6040519060208201927f8b73c3c69bb8fe3d512ecc4cf759cc79239f7b179b0ffacaa9a75d522b39400f8452604083015260608201524660808201523060a082015260a0815260c0810181811067ffffffffffffffff8211176107975760405251902090565b90613c4b82613d7b565b60006001600160a01b0383167fbc7cd75a20ee27fd9adebab32041f755214dbc6bffa90cc0225b39da2e5c2d3b8280a2815115801590613d1f575b613c8f57505050565b613d1392818060405194613ca2866107b8565b602786527f416464726573733a206c6f772d6c6576656c2064656c65676174652063616c6c6020870152660819985a5b195960ca1b6040870152602081519101845af4903d15613d16573d613cf681610805565b90613d0460405192836107d4565b8152809360203d92013e614b2c565b50565b60609250614b2c565b5080613c86565b90613d3082613d7b565b60006001600160a01b0383167fbc7cd75a20ee27fd9adebab32041f755214dbc6bffa90cc0225b39da2e5c2d3b8280a2815115801590613d7357613c8f57505050565b506001613c86565b803b15613db057600080516020614c4b83398151915280546001600160a01b0319166001600160a01b03909216919091179055565b60405162461bcd60e51b815260206004820152602d60248201527f455243313936373a206e657720696d706c656d656e746174696f6e206973206e60448201526c1bdd08184818dbdb9d1c9858dd609a1b6064820152608490fd5b8115613e15570490565b634e487b7160e01b600052601260045260246000fd5b8015613f655780613efe613ef7613eed613ee3613ed9613ecf613ec5613ebb60016103dd9a6000908b60801c80613f59575b508060401c80613f4c575b508060201c80613f3f575b508060101c80613f32575b508060081c80613f25575b508060041c80613f18575b508060021c80613f0b575b50821c613f04575b811c1b613eb4818b613e0b565b0160011c90565b613eb4818a613e0b565b613eb48189613e0b565b613eb48188613e0b565b613eb48187613e0b565b613eb48186613e0b565b613eb48185613e0b565b8092613e0b565b9061499b565b8101613ea7565b6002915091019038613e9f565b6004915091019038613e94565b6008915091019038613e89565b6010915091019038613e7e565b6020915091019038613e73565b6040915091019038613e68565b91505060809038613e5d565b50600090565b60ce6000527fd36cd1c74ef8d7326d8021b776c18fb5a5724b7f7bc93c2f42e43e10ef27d12a0190565b90808216911860011c8101809111610b625790565b60ff9060ff54918215614073576000906000935b808510614021575050508115159081613fe1575b50156103dd576103dd90613103565b9050614019613fef83613103565b60ff6000527fe08ec2af2cfc251225e1968fd6ca21e4044f129bffa95bac3503be8bdb30a3670190565b541438613fd2565b61402b8186613f95565b9082845284827fe08ec2af2cfc251225e1968fd6ca21e4044f129bffa95bac3503be8bdb30a3670154116000146140625750613fbe565b945061406d9061275d565b93613fbe565b505050600090565b805491821561407357600080935b8085106140d157505082151591826140ac575b5050156103dd576103dd90613103565b6140c89192506140bb84613103565b9060005260206000200190565b5414388061409c565b6140db8186613f95565b908483528382602085200154116000146140f55750614089565b94506141009061275d565b93614089565b6001600160a01b03808316939291168084141580614318575b6141295750505050565b80614197575b508261413c575b80612ad6565b6001600160a01b0316600090815260cd602052604090207fdec2bacdd2f05b59de34da9b523dff8be42e5e38e818c82fdb0bae774387a7249161417e91614871565b60408051928352602083019190915290a2388080614136565b8060005260cd6020527fdec2bacdd2f05b59de34da9b523dff8be42e5e38e818c82fdb0bae774387a72460406000208054801591826000146142f5576141db6107f6565b6000815260006020820152915b6020830151614207906001600160e01b03165b6001600160e01b031690565b926142128985614c30565b941590816142d2575b50156142705761424361425a9261423186614a04565b92600019019060005260206000200190565b9063ffffffff82549181199060201b169116179055565b604080519182526020820192909252a23861412f565b506142cd9061429461428f6142844361330b565b65ffffffffffff1690565b6132a6565b906142c86142a186614a04565b6142b86142ac6107f6565b63ffffffff9095168552565b6001600160e01b03166020840152565b6146ce565b61425a565b5163ffffffff16905063ffffffff6142ec6142844361330b565b9116143861421b565b61431261430d60001984018360005260206000200190565b6128f8565b916141e8565b5082151561411f565b9291907f7fffffffffffffffffffffffffffffff5d576e7357a4501ddfe92f46681b20a083116143a45791608094939160ff602094604051948552168484015260408301526060820152600093849182805260015afa156143975781516001600160a01b03811615614391579190565b50600190565b50604051903d90823e3d90fd5b50505050600090600390565b600511156143ba57565b634e487b7160e01b600052602160045260246000fd5b6143d9816143b0565b806143e15750565b6143ea816143b0565b600181036144375760405162461bcd60e51b815260206004820152601860248201527f45434453413a20696e76616c6964207369676e617475726500000000000000006044820152606490fd5b614440816143b0565b6002810361448d5760405162461bcd60e51b815260206004820152601f60248201527f45434453413a20696e76616c6964207369676e6174757265206c656e677468006044820152606490fd5b806144996003926143b0565b146144a057565b60405162461bcd60e51b815260206004820152602260248201527f45434453413a20696e76616c6964207369676e6174757265202773272076616c604482015261756560f01b6064820152608490fd5b6001600160a01b03811661458a57506000805260336020527f44496df070da3f045064f6d6f394484a8de10d5710290d619b67d975ec89320f54610101547f32796e36004994222362c2f9423d5e208bb848170964890784a8d59ed40f50af91908061455b84614c0d565b1061456c575b5050506135a6614ab5565b8261457c60019261458295614bbd565b01614bbd565b388080614561565b61361b90614a6d565b61359e90614a6d565b6001600160a01b03908116600090815260cc60205260408120549080527f435daec636ce435a90bde0aeec309a303a359a854c5a51b7d6a5a941d6db60945461080393929081169116614106565b60cc6020527f435daec636ce435a90bde0aeec309a303a359a854c5a51b7d6a5a941d6db6094546001600160a01b039182166000908152604090205461080393929081169116614106565b6001600160a01b03908116600090815260cc602052604080822054938316825290205461080393929082169116614106565b60ce5490600160401b82101561079757600182018060ce558210156127fb5760ce600052805160209182015190911b63ffffffff191663ffffffff91909116177fd36cd1c74ef8d7326d8021b776c18fb5a5724b7f7bc93c2f42e43e10ef27d12a90910155565b8054600160401b811015610797576146eb91600182018155612848565b61471257815160209283015190921b63ffffffff191663ffffffff92909216919091179055565b634e487b7160e01b600052600060045260246000fd5b60ce54909181159182156148035761473e6107f6565b60008152600060208201525b602081015161476c90614765906001600160e01b03166141fb565b9586614c30565b931590816147e0575b5015614795576108039061424361478b85614a04565b9160001901613f6b565b506108036147a861428f6142844361330b565b6147db6147b485614a04565b6147cb6147bf6107f6565b63ffffffff9094168452565b6001600160e01b03166020830152565b614667565b5163ffffffff16905063ffffffff6147fa6142844361330b565b91161438614775565b61481361430d6000198301613f6b565b61474a565b60ce549091811591821561485c5761482e6107f6565b60008152600060208201525b602081015161476c90614855906001600160e01b03166141fb565b9586614c3d565b61486c61430d6000198301613f6b565b61483a565b90918154918215928360001461490d576148896107f6565b60008152600060208201525b60208101516148b7906148b0906001600160e01b03166141fb565b9687614c3d565b941590816148ea575b50156148d6576142436108039261423186614a04565b506108039061429461428f6142844361330b565b5163ffffffff16905063ffffffff6149046142844361330b565b911614386148c0565b61492561430d60001983018460005260206000200190565b614895565b61493261235d565b8051908115614942576020012090565b505060655480156149505790565b507fc5d2460186f7233c927e7db2dcc703c0e500b653ca82273b7bfad8045d85a47090565b61497d612421565b805190811561498d576020012090565b505060665480156149505790565b90808210156149a8575090565b905090565b156149b457565b60405162461bcd60e51b815260206004820152602260248201527f45524332303a206275726e20616d6f756e7420657863656564732062616c616e604482015261636560f01b6064820152608490fd5b6001600160e01b0390818111614a18571690565b60405162461bcd60e51b815260206004820152602760248201527f53616665436173743a2076616c756520646f65736e27742066697420696e20326044820152663234206269747360c81b6064820152608490fd5b60018060a01b031660005260fe602052604060002060336020526040600020546101015480614a9b84614c0d565b10614aa557505050565b8261457c60019261080395614bbd565b603554610101549081614ac6614be0565b10614acf575050565b60ff54600160401b928382101561079757614af3826001614b0c940160ff55612811565b90919082549060031b91821b91600019901b1916179055565b6101008054928310156107975782614af3916001610803950190556127c4565b91929015614b8e5750815115614b40575090565b3b15614b495790565b60405162461bcd60e51b815260206004820152601d60248201527f416464726573733a2063616c6c20746f206e6f6e2d636f6e74726163740000006044820152606490fd5b825190915015614ba15750805190602001fd5b60405162461bcd60e51b8152908190610ac790600483016103cc565b90815491600160401b8310156107975782614af391600161080395018155612848565b60ff5480614bee5750600090565b6000198101908111610b6257614c0390612811565b90549060031b1c90565b805480614c1b575050600090565b6000198101908111610b6257614c0391612848565b908103908111610b625790565b908101809111610b62579056fe360894a13ba1a3210667c828492db98dca3e2076cc3735a920a3ca505d382bbcddf252ad1be2c89b69c2b068fc378daa952ba7f163c4a11628f55a4df523b3efa2646970667358221220f639abb888c0317b8228f7dbe5f74309d38b99ba0bf6f78e0569f32cb625e1bd64736f6c63430008160033",
  "linkReferences": {},
  "deployedLinkReferences": {}
}