{
  "_format": "hh-sol-artifact-1",
  "contractName": "TokenFactory_v3",
  "sourceName": "src/contracts/TokenFactory_v3.sol",
  "abi": [
    {
      "anonymous": false,
      "inputs": [
        {
          "indexed": false,
          "internalType": "address",
          "name": "previousAdmin",
          "type": "address"
        },
        {
          "indexed": false,
          "internalType": "address",
          "name": "newAdmin",
          "type": "address"
        }
      ],
      "name": "AdminChanged",
      "type": "event"
    },
    {
      "anonymous": false,
      "inputs": [
        {
          "indexed": true,
          "internalType": "address",
          "name": "beacon",
          "type": "address"
        }
      ],
      "name": "BeaconUpgraded",
      "type": "event"
    },
    {
      "anonymous": false,
      "inputs": [
        {
          "indexed": true,
          "internalType": "address",
          "name": "user",
          "type": "address"
        },
        {
          "indexed": false,
          "internalType": "uint256",
          "name": "fee",
          "type": "uint256"
        }
      ],
      "name": "CustomDeploymentFeeSet",
      "type": "event"
    },
    {
      "anonymous": false,
      "inputs": [
        {
          "indexed": false,
          "internalType": "uint256",
          "name": "newFee",
          "type": "uint256"
        }
      ],
      "name": "DeploymentFeeUpdated",
      "type": "event"
    },
    {
      "anonymous": false,
      "inputs": [
        {
          "indexed": false,
          "internalType": "uint8",
          "name": "version",
          "type": "uint8"
        }
      ],
      "name": "Initialized",
      "type": "event"
    },
    {
      "anonymous": false,
      "inputs": [
        {
          "indexed": true,
          "internalType": "address",
          "name": "previousOwner",
          "type": "address"
        },
        {
          "indexed": true,
          "internalType": "address",
          "name": "newOwner",
          "type": "address"
        }
      ],
      "name": "OwnershipTransferred",
      "type": "event"
    },
    {
      "anonymous": false,
      "inputs": [
        {
          "indexed": true,
          "internalType": "address",
          "name": "tokenAddress",
          "type": "address"
        },
        {
          "indexed": true,
          "internalType": "address",
          "name": "creator",
          "type": "address"
        },
        {
          "indexed": false,
          "internalType": "string",
          "name": "name",
          "type": "string"
        },
        {
          "indexed": false,
          "internalType": "string",
          "name": "symbol",
          "type": "string"
        }
      ],
      "name": "TokenCreated",
      "type": "event"
    },
    {
      "anonymous": false,
      "inputs": [
        {
          "indexed": true,
          "internalType": "address",
          "name": "implementation",
          "type": "address"
        }
      ],
      "name": "Upgraded",
      "type": "event"
    },
    {
      "inputs": [
        {
          "components": [
            {
              "internalType": "string",
              "name": "name",
              "type": "string"
            },
            {
              "internalType": "string",
              "name": "symbol",
              "type": "string"
            },
            {
              "internalType": "uint256",
              "name": "initialSupply",
              "type": "uint256"
            },
            {
              "internalType": "uint256",
              "name": "maxSupply",
              "type": "uint256"
            },
            {
              "internalType": "address",
              "name": "owner",
              "type": "address"
            },
            {
              "internalType": "bool",
              "name": "enableBlacklist",
              "type": "bool"
            },
            {
              "internalType": "bool",
              "name": "enableTimeLock",
              "type": "bool"
            },
            {
              "internalType": "uint256",
              "name": "presaleRate",
              "type": "uint256"
            },
            {
              "internalType": "uint256",
              "name": "softCap",
              "type": "uint256"
            },
            {
              "internalType": "uint256",
              "name": "hardCap",
              "type": "uint256"
            },
            {
              "internalType": "uint256",
              "name": "minContribution",
              "type": "uint256"
            },
            {
              "internalType": "uint256",
              "name": "maxContribution",
              "type": "uint256"
            },
            {
              "internalType": "uint256",
              "name": "startTime",
              "type": "uint256"
            },
            {
              "internalType": "uint256",
              "name": "endTime",
              "type": "uint256"
            },
            {
              "internalType": "uint256",
              "name": "presalePercentage",
              "type": "uint256"
            },
            {
              "internalType": "uint256",
              "name": "liquidityPercentage",
              "type": "uint256"
            },
            {
              "internalType": "uint256",
              "name": "liquidityLockDuration",
              "type": "uint256"
            },
            {
              "components": [
                {
                  "internalType": "address",
                  "name": "wallet",
                  "type": "address"
                },
                {
                  "internalType": "uint256",
                  "name": "percentage",
                  "type": "uint256"
                },
                {
                  "internalType": "bool",
                  "name": "vestingEnabled",
                  "type": "bool"
                },
                {
                  "internalType": "uint256",
                  "name": "vestingDuration",
                  "type": "uint256"
                },
                {
                  "internalType": "uint256",
                  "name": "cliffDuration",
                  "type": "uint256"
                },
                {
                  "internalType": "uint256",
                  "name": "vestingStartTime",
                  "type": "uint256"
                }
              ],
              "internalType": "struct TokenFactory_v3.WalletAllocation[]",
              "name": "walletAllocations",
              "type": "tuple[]"
            },
            {
              "internalType": "uint256",
              "name": "maxActivePresales",
              "type": "uint256"
            },
            {
              "internalType": "bool",
              "name": "presaleEnabled",
              "type": "bool"
            }
          ],
          "internalType": "struct TokenFactory_v3.InitParams",
          "name": "params",
          "type": "tuple"
        }
      ],
      "name": "createToken",
      "outputs": [
        {
          "internalType": "address",
          "name": "",
          "type": "address"
        }
      ],
      "stateMutability": "payable",
      "type": "function"
    },
    {
      "inputs": [
        {
          "internalType": "address",
          "name": "",
          "type": "address"
        }
      ],
      "name": "customDeploymentFees",
      "outputs": [
        {
          "internalType": "uint256",
          "name": "",
          "type": "uint256"
        }
      ],
      "stateMutability": "view",
      "type": "function"
    },
    {
      "inputs": [
        {
          "internalType": "uint256",
          "name": "",
          "type": "uint256"
        }
      ],
      "name": "deployedTokens",
      "outputs": [
        {
          "internalType": "address",
          "name": "",
          "type": "address"
        }
      ],
      "stateMutability": "view",
      "type": "function"
    },
    {
      "inputs": [],
      "name": "deploymentFee",
      "outputs": [
        {
          "internalType": "uint256",
          "name": "",
          "type": "uint256"
        }
      ],
      "stateMutability": "view",
      "type": "function"
    },
    {
      "inputs": [
        {
          "internalType": "address",
          "name": "user",
          "type": "address"
        }
      ],
      "name": "getDeploymentFee",
      "outputs": [
        {
          "internalType": "uint256",
          "name": "",
          "type": "uint256"
        }
      ],
      "stateMutability": "view",
      "type": "function"
    },
    {
      "inputs": [
        {
          "internalType": "address",
          "name": "token",
          "type": "address"
        }
      ],
      "name": "getTokenCreator",
      "outputs": [
        {
          "internalType": "address",
          "name": "",
          "type": "address"
        }
      ],
      "stateMutability": "view",
      "type": "function"
    },
    {
      "inputs": [
        {
          "internalType": "address",
          "name": "user",
          "type": "address"
        }
      ],
      "name": "getUserCreatedTokens",
      "outputs": [
        {
          "internalType": "address[]",
          "name": "",
          "type": "address[]"
        }
      ],
      "stateMutability": "view",
      "type": "function"
    },
    {
      "inputs": [
        {
          "internalType": "address",
          "name": "user",
          "type": "address"
        }
      ],
      "name": "getUserTokenCount",
      "outputs": [
        {
          "internalType": "uint256",
          "name": "",
          "type": "uint256"
        }
      ],
      "stateMutability": "view",
      "type": "function"
    },
    {
      "inputs": [],
      "name": "implementation",
      "outputs": [
        {
          "internalType": "address",
          "name": "",
          "type": "address"
        }
      ],
      "stateMutability": "view",
      "type": "function"
    },
    {
      "inputs": [
        {
          "internalType": "address",
          "name": "_implementation",
          "type": "address"
        }
      ],
      "name": "initialize",
      "outputs": [],
      "stateMutability": "nonpayable",
      "type": "function"
    },
    {
      "inputs": [
        {
          "internalType": "address",
          "name": "user",
          "type": "address"
        },
        {
          "internalType": "address",
          "name": "token",
          "type": "address"
        }
      ],
      "name": "isTokenCreator",
      "outputs": [
        {
          "internalType": "bool",
          "name": "",
          "type": "bool"
        }
      ],
      "stateMutability": "view",
      "type": "function"
    },
    {
      "inputs": [],
      "name": "owner",
      "outputs": [
        {
          "internalType": "address",
          "name": "",
          "type": "address"
        }
      ],
      "stateMutability": "view",
      "type": "function"
    },
    {
      "inputs": [],
      "name": "proxiableUUID",
      "outputs": [
        {
          "internalType": "bytes32",
          "name": "",
          "type": "bytes32"
        }
      ],
      "stateMutability": "view",
      "type": "function"
    },
    {
      "inputs": [],
      "name": "renounceOwnership",
      "outputs": [],
      "stateMutability": "nonpayable",
      "type": "function"
    },
    {
      "inputs": [
        {
          "internalType": "address",
          "name": "user",
          "type": "address"
        },
        {
          "internalType": "uint256",
          "name": "fee",
          "type": "uint256"
        }
      ],
      "name": "setCustomDeploymentFee",
      "outputs": [],
      "stateMutability": "nonpayable",
      "type": "function"
    },
    {
      "inputs": [
        {
          "internalType": "uint256",
          "name": "_fee",
          "type": "uint256"
        }
      ],
      "name": "setDeploymentFee",
      "outputs": [],
      "stateMutability": "nonpayable",
      "type": "function"
    },
    {
      "inputs": [
        {
          "internalType": "address",
          "name": "newOwner",
          "type": "address"
        }
      ],
      "name": "transferOwnership",
      "outputs": [],
      "stateMutability": "nonpayable",
      "type": "function"
    },
    {
      "inputs": [
        {
          "internalType": "address",
          "name": "_implementation",
          "type": "address"
        }
      ],
      "name": "updateImplementation",
      "outputs": [],
      "stateMutability": "nonpayable",
      "type": "function"
    },
    {
      "inputs": [
        {
          "internalType": "address",
          "name": "newImplementation",
          "type": "address"
        }
      ],
      "name": "upgradeTo",
      "outputs": [],
      "stateMutability": "nonpayable",
      "type": "function"
    },
    {
      "inputs": [
        {
          "internalType": "address",
          "name": "newImplementation",
          "type": "address"
        },
        {
          "internalType": "bytes",
          "name": "data",
          "type": "bytes"
        }
      ],
      "name": "upgradeToAndCall",
      "outputs": [],
      "stateMutability": "payable",
      "type": "function"
    },
    {
      "inputs": [],
      "name": "withdrawFees",
      "outputs": [],
      "stateMutability": "nonpayable",
      "type": "function"
    }
  ],
  "bytecode": "0x60a080604052346100315730608052612180908161003782396080518181816110fa0152818161123401526115360152f35b600080fdfe608060405260043610156200001357600080fd5b60003560e01c8063025b22bc146200172f5780631652da4214620016fe5780633659cfe6146200150e578063476343ee14620014935780634f1ef28614620011ad57806352d1902d14620010e55780635c60da1b14620010ba57806362acbf4b14620006e2578063715018a614620006815780638da5cb5b1462000656578063ae6862ff14620005f7578063b8a6f40214620005b9578063c00be1a014620004fc578063c05ddda814620004be578063c4d66de81462000334578063c78418b914620002f5578063cbf1208f1462000284578063d002462b1462000234578063ec81aadb14620001d6578063f2cff57f14620001b65763f2fde38b146200011957600080fd5b34620001b1576020366003190112620001b15762000136620017c3565b6200014062001adc565b6001600160a01b038116156200015d576200015b9062001b35565b005b60405162461bcd60e51b815260206004820152602660248201527f4f776e61626c653a206e6577206f776e657220697320746865207a65726f206160448201526564647265737360d01b6064820152608490fd5b600080fd5b34620001b1576000366003190112620001b157602060ca54604051908152f35b34620001b1576020366003190112620001b15760043560cb54811015620001b15760cb6000527fa7ce836d032b2bf62b7e2097a8e0a6d8aeb35405ad15271e96d3b0188a1d06fb01546040516001600160a01b039091168152602090f35b34620001b1576020366003190112620001b1577f40bd824d588484917db8fa4fc894c1e0feae5a75885290ba7b97521cebf82a8060206004356200027762001adc565b8060ca55604051908152a1005b34620001b1576040366003190112620001b157620002a1620017c3565b7f035250ff587e06567c2fa9d4b3191805958a937530b0e88cfce4c9c4dcdef1b3602060243592620002d262001adc565b6001600160a01b0316600081815260cf83526040908190208590555193845292a2005b34620001b1576020366003190112620001b15760206001600160a01b03806200031d620017c3565b1660005260ce825260406000205416604051908152f35b34620001b1576020366003190112620001b15762000351620017c3565b60005460ff8160081c161590818092620004b0575b801562000497575b156200043b5760ff1981166001176000558162000428575b50620003a560ff60005460081c166200039f8162001b7e565b62001b7e565b620003b03362001b35565b60005491620003c560ff8460081c1662001b7e565b60018060a01b03166001600160601b0360a01b60c954161760c95567016345785d8a000060ca55620003f357005b61ff0019166000557f7f26b83ff96e1f2b6a682f133852f6798a09c465da95921460cefb3847402498602060405160018152a1005b61ffff1916610101176000558262000386565b60405162461bcd60e51b815260206004820152602e60248201527f496e697469616c697a61626c653a20636f6e747261637420697320616c72656160448201526d191e481a5b9a5d1a585b1a5e995960921b6064820152608490fd5b50303b1580156200036e5750600160ff8216146200036e565b50600160ff82161062000366565b34620001b1576020366003190112620001b1576001600160a01b03620004e3620017c3565b1660005260cf6020526020604060002054604051908152f35b34620001b157602080600319360112620001b1576001600160a01b03908162000524620017c3565b1660005260cc8152604060002060405191828183549182815201908193600052826000209060005b818110620005a25750505083620005659103846200180c565b60405192818401908285525180915260408401929160005b8281106200058b5785850386f35b83518716855293810193928101926001016200057d565b82548816845292840192600192830192016200054c565b34620001b1576020366003190112620001b1576001600160a01b03620005de620017c3565b1660005260cc6020526020604060002054604051908152f35b34620001b1576040366003190112620001b15762000614620017c3565b6001600160a01b036024358181169290839003620001b1571660005260cd602052604060002090600052602052602060ff604060002054166040519015158152f35b34620001b1576000366003190112620001b1576097546040516001600160a01b039091168152602090f35b34620001b1576000366003190112620001b1576200069e62001adc565b609780546001600160a01b031981169091556000906001600160a01b03167f8be0079c531659141344cd1fd0a4f28419497f9722a3daafe3b4186f6b6457e08280a3005b600319602036820112620001b15767ffffffffffffffff60043511620001b1576102809060043536030112620001b1576200071d336200184c565b341062001075576101c460043501351562001030576101e460043501351562000fec5761024460043501351562000fa757620007686101e460043501356101c4600435013562001992565b6200077f61022460043501600435600401620019b6565b15905062000f2b576000905b620007a261022460043501600435600401620019b6565b905082101562000a6e57620007cf82620007c861022460043501600435600401620019b6565b90620019ef565b356001600160a01b03811690819003620001b1571562000a295760206200080783620007c861022460043501600435600401620019b6565b013515620009e45760406200082d83620007c861022460043501600435600401620019b6565b01358015158103620001b15762000876575b6200086d60019160206200086485620007c861022460043501600435600401620019b6565b01359062001992565b9101906200078b565b60606200089483620007c861022460043501600435600401620019b6565b0135156200099f5760a0620008ba83620007c861022460043501600435600401620019b6565b0135156200095a576080620008e083620007c861022460043501600435600401620019b6565b013560606200090084620007c861022460043501600435600401620019b6565b013510156200083f5760405162461bcd60e51b815260206004820152602360248201527f436c6966662063616e6e6f74206265206c6f6e676572207468616e2076657374604482015262696e6760e81b6064820152608490fd5b60405162461bcd60e51b815260206004820152601e60248201527f56657374696e672073746172742074696d65206d757374206265203e203000006044820152606490fd5b60405162461bcd60e51b815260206004820152601c60248201527f56657374696e67206475726174696f6e206d757374206265203e2030000000006044820152606490fd5b60405162461bcd60e51b815260206004820152601d60248201527f57616c6c65742070657263656e74616765206d757374206265203e20300000006044820152606490fd5b60405162461bcd60e51b815260206004820152601d60248201527f57616c6c657420616464726573732063616e6e6f74206265207a65726f0000006044820152606490fd5b606491505b0362000ee65760405163a18ef32160e01b602080830191909152602482015262000ae762000abe62000aaa60048035018062001a00565b61028060448601526102c485019162001a35565b62000ad460246004350160043560040162001a00565b8483036043190160648601529062001a35565b6044600435013560848301526064600435013560a483015262000b0f608460043501620017da565b6001600160a01b031660c483015262000b2d60043560a40162001a56565b151560e483015262000b4460c46004350162001a56565b610104901515818401526101249060e46004350135828501526101449060043501358185015261016491600435013582850152610184906004350135818501526101a49160043501358285015260043501356101c484015260043501356101e48301526102046101c46004350135818401526101e4600435013561022484015260043501356102448301526102246004350135602219600435360301811215620001b157600435019067ffffffffffffffff600483013511620001b15760c060048301350236036024830113620001b15760208391604319838203016102648401526004840135815201602483019260005b6004820135811062000e7257505062000c809250610244600435013561028483015262000c696102646004350162001a56565b15156102a483015203601f1981018352826200180c565b60c95460405191610416808401926001600160a01b0316919067ffffffffffffffff84118585101762000e5057849362000ccd9360409262001d1587398152816020820152019062001a64565b03906000f0801562000e665760cb5468010000000000000000916001600160a01b0316908281101562000e5057600181018060cb5581101562000e3a577fa7ce836d032b2bf62b7e2097a8e0a6d8aeb35405ad15271e96d3b0188a1d06fb016001600160601b0360a01b9082828254161790553360005260cc60205260406000209283549081101562000e50576001810180855581101562000e3a57602093600052836000200182828254161790553360005260cd835260406000208260005283526040600020600160ff1982541617905560ce8352604060002090339082541617905562000e2f817fd5d05a8421149c74fd223cfc823befb883babf9bf0b0e4d6bf9c8fdb70e59bb462000ded60043560040160043560040162001aa6565b62000e0360246004350160043560040162001aa6565b62000e1f60409792975194859460408652604086019162001a35565b908382038a850152339762001a35565b0390a3604051908152f35b634e487b7160e01b600052603260045260246000fd5b634e487b7160e01b600052604160045260246000fd5b6040513d6000823e3d90fd5b9092509060049060019060c09081906001600160a01b0362000e9489620017da565b1681526020880135602082015262000eaf6040890162001a56565b15156040820152606080890135908201526080808901359082015260a0808901359082015201950192018593915093919362000c36565b60405162461bcd60e51b815260206004820152601c60248201527f546f74616c2070657263656e74616765206d75737420626520313030000000006044820152606490fd5b6064810362000f3d5760649062000a73565b608460405162461bcd60e51b815260206004820152604060248201527f50726573616c6520616e64206c6971756964697479206d75737420746f74616c60448201527f2031303025207768656e206e6f206164646974696f6e616c2077616c6c6574736064820152fd5b60405162461bcd60e51b815260206004820152601f60248201527f4d6178206163746976652070726573616c6573206d757374206265203e2030006044820152606490fd5b606460405162461bcd60e51b815260206004820152602060248201527f4c69717569646974792070657263656e74616765206d757374206265203e20306044820152fd5b60405162461bcd60e51b815260206004820152601e60248201527f50726573616c652070657263656e74616765206d757374206265203e203000006044820152606490fd5b60405162461bcd60e51b815260206004820152601b60248201527f496e73756666696369656e74206465706c6f796d656e742066656500000000006044820152606490fd5b34620001b1576000366003190112620001b15760c9546040516001600160a01b039091168152602090f35b34620001b1576000366003190112620001b1577f00000000000000000000000000000000000000000000000000000000000000006001600160a01b03163003620011425760206040516000805160206200212b8339815191528152f35b60405162461bcd60e51b815260206004820152603860248201527f555550535570677261646561626c653a206d757374206e6f742062652063616c60448201527f6c6564207468726f7567682064656c656761746563616c6c00000000000000006064820152608490fd5b6040366003190112620001b157620011c4620017c3565b6024359067ffffffffffffffff8211620001b15736602383011215620001b1578160040135620011f4816200182f565b926200120460405194856200180c565b818452602091828501913660248383010111620001b1578160009260248693018537860101526001600160a01b037f0000000000000000000000000000000000000000000000000000000000000000811690620012643083141562001899565b620012846000805160206200212b833981519152928284541614620018fb565b6200128e62001adc565b7f4910fdfa16fed3260ed0e7147f7cc6da11a60208b5b9406d12a635614ffd91435460ff1615620012c957505050506200015b915062001bdf565b84939416906040516352d1902d60e01b81528581600481865afa600091816200145e575b506200134f5760405162461bcd60e51b815260048101879052602e60248201527f45524331393637557067726164653a206e657720696d706c656d656e7461746960448201526d6f6e206973206e6f74205555505360901b6064820152608490fd5b036200140757620013608362001bdf565b7fbc7cd75a20ee27fd9adebab32041f755214dbc6bffa90cc0225b39da2e5c2d3b600080a2835115801590620013fe575b6200139857005b600080916200015b957f416464726573733a206c6f772d6c6576656c2064656c65676174652063616c6c60405196620013d188620017ef565b60278852870152660819985a5b195960ca1b60408701525190845af4620013f76200195d565b9162001c71565b50600162001391565b60405162461bcd60e51b815260048101859052602960248201527f45524331393637557067726164653a20756e737570706f727465642070726f786044820152681a58589b195555525160ba1b6064820152608490fd5b9091508681813d83116200148b575b6200147981836200180c565b81010312620001b157519088620012ed565b503d6200146d565b34620001b1576000366003190112620001b157620014b062001adc565b600080808060018060a01b036097541647905af1620014ce6200195d565b5015620014d757005b60405162461bcd60e51b815260206004820152600f60248201526e151c985b9cd9995c8819985a5b1959608a1b6044820152606490fd5b34620001b157602080600319360112620001b1576200152c620017c3565b6001600160a01b037f000000000000000000000000000000000000000000000000000000000000000081169290620015673085141562001899565b620015876000805160206200212b833981519152948286541614620018fb565b6200159162001adc565b604051938285019185831067ffffffffffffffff84111762000e5057826040526000865260ff7f4910fdfa16fed3260ed0e7147f7cc6da11a60208b5b9406d12a635614ffd91435416600014620015f257505050506200015b915062001bdf565b84939416906040516352d1902d60e01b81528581600481865afa60009181620016c9575b50620016785760405162461bcd60e51b815260048101879052602e60248201527f45524331393637557067726164653a206e657720696d706c656d656e7461746960448201526d6f6e206973206e6f74205555505360901b6064820152608490fd5b036200140757620016898362001bdf565b7fbc7cd75a20ee27fd9adebab32041f755214dbc6bffa90cc0225b39da2e5c2d3b600080a2835115801590620016c0576200139857005b50600062001391565b9091508681813d8311620016f6575b620016e481836200180c565b81010312620001b15751908862001616565b503d620016d8565b34620001b1576020366003190112620001b15760206200172762001721620017c3565b6200184c565b604051908152f35b34620001b1576020366003190112620001b1576200174c620017c3565b6200175662001adc565b6001600160a01b031680156200177e576001600160601b0360a01b60c954161760c955600080f35b60405162461bcd60e51b815260206004820152601e60248201527f496e76616c696420696d706c656d656e746174696f6e206164647265737300006044820152606490fd5b600435906001600160a01b0382168203620001b157565b35906001600160a01b0382168203620001b157565b6060810190811067ffffffffffffffff82111762000e5057604052565b90601f8019910116810190811067ffffffffffffffff82111762000e5057604052565b67ffffffffffffffff811162000e5057601f01601f191660200190565b6001600160a01b0316600090815260cf602052604090205480158015908062001880575b506200187d575060ca5490565b90565b908162001890575b503862001870565b90503862001888565b15620018a157565b60405162461bcd60e51b815260206004820152602c60248201527f46756e6374696f6e206d7573742062652063616c6c6564207468726f7567682060448201526b19195b1959d85d1958d85b1b60a21b6064820152608490fd5b156200190357565b60405162461bcd60e51b815260206004820152602c60248201527f46756e6374696f6e206d7573742062652063616c6c6564207468726f7567682060448201526b6163746976652070726f787960a01b6064820152608490fd5b3d156200198d573d9062001971826200182f565b916200198160405193846200180c565b82523d6000602084013e565b606090565b91908201809211620019a057565b634e487b7160e01b600052601160045260246000fd5b903590601e1981360301821215620001b1570180359067ffffffffffffffff8211620001b1576020019160c0820236038313620001b157565b919081101562000e3a5760c0020190565b9035601e1982360301811215620001b157016020813591019167ffffffffffffffff8211620001b1578136038313620001b157565b908060209392818452848401376000828201840152601f01601f1916010190565b35908115158203620001b157565b919082519283825260005b84811062001a91575050826000602080949584010152601f8019910116010190565b60208183018101518483018201520162001a6f565b903590601e1981360301821215620001b1570180359067ffffffffffffffff8211620001b157602001918136038313620001b157565b6097546001600160a01b0316330362001af157565b606460405162461bcd60e51b815260206004820152602060248201527f4f776e61626c653a2063616c6c6572206973206e6f7420746865206f776e65726044820152fd5b609780546001600160a01b039283166001600160a01b0319821681179092559091167f8be0079c531659141344cd1fd0a4f28419497f9722a3daafe3b4186f6b6457e0600080a3565b1562001b8657565b60405162461bcd60e51b815260206004820152602b60248201527f496e697469616c697a61626c653a20636f6e7472616374206973206e6f74206960448201526a6e697469616c697a696e6760a81b6064820152608490fd5b803b1562001c16576000805160206200212b83398151915280546001600160a01b0319166001600160a01b03909216919091179055565b60405162461bcd60e51b815260206004820152602d60248201527f455243313936373a206e657720696d706c656d656e746174696f6e206973206e60448201526c1bdd08184818dbdb9d1c9858dd609a1b6064820152608490fd5b9192901562001cd6575081511562001c87575090565b3b1562001c915790565b60405162461bcd60e51b815260206004820152601d60248201527f416464726573733a2063616c6c20746f206e6f6e2d636f6e74726163740000006044820152606490fd5b82519091501562001cea5750805190602001fd5b60405162461bcd60e51b81526020600482015290819062001d1090602483019062001a64565b0390fdfe604060808152610416908138038061001681610218565b93843982019181818403126102135780516001600160a01b038116808203610213576020838101516001600160401b0394919391858211610213570186601f820112156102135780519061007161006c83610253565b610218565b918083528583019886828401011161021357888661008f930161026e565b813b156101b9577f360894a13ba1a3210667c828492db98dca3e2076cc3735a920a3ca505d382bbc80546001600160a01b031916841790556000927fbc7cd75a20ee27fd9adebab32041f755214dbc6bffa90cc0225b39da2e5c2d3b8480a28051158015906101b2575b61010b575b855160d190816103458239f35b855194606086019081118682101761019e578697849283926101889952602788527f416464726573733a206c6f772d6c6576656c2064656c65676174652063616c6c87890152660819985a5b195960ca1b8a8901525190845af4913d15610194573d9061017a61006c83610253565b91825281943d92013e610291565b508038808080806100fe565b5060609250610291565b634e487b7160e01b84526041600452602484fd5b50826100f9565b855162461bcd60e51b815260048101859052602d60248201527f455243313936373a206e657720696d706c656d656e746174696f6e206973206e60448201526c1bdd08184818dbdb9d1c9858dd609a1b6064820152608490fd5b600080fd5b6040519190601f01601f191682016001600160401b0381118382101761023d57604052565b634e487b7160e01b600052604160045260246000fd5b6001600160401b03811161023d57601f01601f191660200190565b60005b8381106102815750506000910152565b8181015183820152602001610271565b919290156102f357508151156102a5575090565b3b156102ae5790565b60405162461bcd60e51b815260206004820152601d60248201527f416464726573733a2063616c6c20746f206e6f6e2d636f6e74726163740000006044820152606490fd5b8251909150156103065750805190602001fd5b6044604051809262461bcd60e51b825260206004830152610336815180928160248601526020868601910161026e565b601f01601f19168101030190fdfe608060405236156054577f360894a13ba1a3210667c828492db98dca3e2076cc3735a920a3ca505d382bbc54600090819081906001600160a01b0316368280378136915af43d82803e156050573d90f35b3d90fd5b7f360894a13ba1a3210667c828492db98dca3e2076cc3735a920a3ca505d382bbc54600090819081906001600160a01b0316368280378136915af43d82803e156050573d90f3fea264697066735822122030ade24792416a57d4529afbb56817b4411c22cc00ef8c3e8e9dd6ea015f4e2564736f6c63430008160033360894a13ba1a3210667c828492db98dca3e2076cc3735a920a3ca505d382bbca26469706673582212200a30be39a95d46ce236921d1dfb365d86b3402efc4e1cbfd64817cc30b3be10c64736f6c63430008160033",
  "linkReferences": {},
  "deployedLinkReferences": {}
}