{
  "_format": "hh-sol-artifact-1",
  "contractName": "TokenFactory_v2_Make",
  "sourceName": "src/contracts/TokenFactory_v2_Make.sol",
  "abi": [
    {
      "inputs": [
        {
          "internalType": "uint256",
          "name": "_creationFee",
          "type": "uint256"
        }
      ],
      "stateMutability": "nonpayable",
      "type": "constructor"
    },
    {
      "anonymous": false,
      "inputs": [
        {
          "indexed": true,
          "internalType": "address",
          "name": "previousOwner",
          "type": "address"
        },
        {
          "indexed": true,
          "internalType": "address",
          "name": "newOwner",
          "type": "address"
        }
      ],
      "name": "OwnershipTransferred",
      "type": "event"
    },
    {
      "anonymous": false,
      "inputs": [
        {
          "indexed": true,
          "internalType": "address",
          "name": "token",
          "type": "address"
        },
        {
          "indexed": false,
          "internalType": "string",
          "name": "name",
          "type": "string"
        },
        {
          "indexed": false,
          "internalType": "string",
          "name": "symbol",
          "type": "string"
        },
        {
          "indexed": false,
          "internalType": "uint256",
          "name": "totalSupply",
          "type": "uint256"
        },
        {
          "indexed": false,
          "internalType": "uint256",
          "name": "marketingFeePercent",
          "type": "uint256"
        },
        {
          "indexed": false,
          "internalType": "uint256",
          "name": "developmentFeePercent",
          "type": "uint256"
        },
        {
          "indexed": false,
          "internalType": "uint256",
          "name": "autoLiquidityFeePercent",
          "type": "uint256"
        },
        {
          "indexed": false,
          "internalType": "address",
          "name": "marketingWallet",
          "type": "address"
        },
        {
          "indexed": false,
          "internalType": "address",
          "name": "developmentWallet",
          "type": "address"
        },
        {
          "indexed": false,
          "internalType": "bool",
          "name": "enableBuyFees",
          "type": "bool"
        },
        {
          "indexed": false,
          "internalType": "bool",
          "name": "enableSellFees",
          "type": "bool"
        }
      ],
      "name": "TokenCreated",
      "type": "event"
    },
    {
      "inputs": [
        {
          "internalType": "string",
          "name": "name",
          "type": "string"
        },
        {
          "internalType": "string",
          "name": "symbol",
          "type": "string"
        },
        {
          "internalType": "uint256",
          "name": "totalSupply",
          "type": "uint256"
        },
        {
          "internalType": "uint256",
          "name": "marketingFeePercent",
          "type": "uint256"
        },
        {
          "internalType": "uint256",
          "name": "developmentFeePercent",
          "type": "uint256"
        },
        {
          "internalType": "uint256",
          "name": "autoLiquidityFeePercent",
          "type": "uint256"
        },
        {
          "internalType": "address",
          "name": "marketingWallet",
          "type": "address"
        },
        {
          "internalType": "address",
          "name": "developmentWallet",
          "type": "address"
        },
        {
          "internalType": "bool",
          "name": "enableBuyFees",
          "type": "bool"
        },
        {
          "internalType": "bool",
          "name": "enableSellFees",
          "type": "bool"
        }
      ],
      "name": "createToken",
      "outputs": [
        {
          "internalType": "address",
          "name": "",
          "type": "address"
        }
      ],
      "stateMutability": "payable",
      "type": "function"
    },
    {
      "inputs": [],
      "name": "getAllTokens",
      "outputs": [
        {
          "internalType": "address[]",
          "name": "",
          "type": "address[]"
        }
      ],
      "stateMutability": "view",
      "type": "function"
    },
    {
      "inputs": [],
      "name": "getCreationFee",
      "outputs": [
        {
          "internalType": "uint256",
          "name": "",
          "type": "uint256"
        }
      ],
      "stateMutability": "view",
      "type": "function"
    },
    {
      "inputs": [
        {
          "internalType": "address",
          "name": "user",
          "type": "address"
        }
      ],
      "name": "getUserTokens",
      "outputs": [
        {
          "internalType": "address[]",
          "name": "",
          "type": "address[]"
        }
      ],
      "stateMutability": "view",
      "type": "function"
    },
    {
      "inputs": [],
      "name": "owner",
      "outputs": [
        {
          "internalType": "address",
          "name": "",
          "type": "address"
        }
      ],
      "stateMutability": "view",
      "type": "function"
    },
    {
      "inputs": [],
      "name": "renounceOwnership",
      "outputs": [],
      "stateMutability": "nonpayable",
      "type": "function"
    },
    {
      "inputs": [
        {
          "internalType": "uint256",
          "name": "_creationFee",
          "type": "uint256"
        }
      ],
      "name": "setCreationFee",
      "outputs": [],
      "stateMutability": "nonpayable",
      "type": "function"
    },
    {
      "inputs": [
        {
          "internalType": "address",
          "name": "newOwner",
          "type": "address"
        }
      ],
      "name": "transferOwnership",
      "outputs": [],
      "stateMutability": "nonpayable",
      "type": "function"
    },
    {
      "inputs": [],
      "name": "withdrawFees",
      "outputs": [],
      "stateMutability": "nonpayable",
      "type": "function"
    }
  ],
  "bytecode": "0x60803461006357601f61200c38819003918201601f19168301916001600160401b038311848410176100685780849260209460405283398101031261006357516100483361007e565b6001556100543361007e565b604051611f4690816100c68239f35b600080fd5b634e487b7160e01b600052604160045260246000fd5b600080546001600160a01b039283166001600160a01b03198216811783559216907f8be0079c531659141344cd1fd0a4f28419497f9722a3daafe3b4186f6b6457e09080a356fe60808060405260043610156200001457600080fd5b60003560e01c9081632a5c792a14620006f257508063476343ee146200060d578063519dc8d21462000575578063715018a614620005185780638da5cb5b14620004ed578063b7d8622514620004c8578063ce0c4e4e1462000181578063db07b68e14620001615763f2fde38b146200008c57600080fd5b346200015c5760203660031901126200015c57620000a9620007c0565b620000b3620008a6565b6001600160a01b039081169081156200010857600054826bffffffffffffffffffffffff60a01b821617600055167f8be0079c531659141344cd1fd0a4f28419497f9722a3daafe3b4186f6b6457e0600080a3005b60405162461bcd60e51b815260206004820152602660248201527f4f776e61626c653a206e6577206f776e657220697320746865207a65726f206160448201526564647265737360d01b6064820152608490fd5b600080fd5b346200015c5760003660031901126200015c576020600154604051908152f35b6101403660031901126200015c5767ffffffffffffffff6004358181116200015c57620001b390369060040162000817565b906024358181116200015c57620001cf90369060040162000817565b60c435906001600160a01b03821682036200015c5760e435936001600160a01b03851685036200015c57610104359384151585036200015c57610124359081151582036200015c5760015434106200048357604051908161161181011090611611830111176200046157611611620009008239806200027962000262610160806116118501526116118401018662000864565b611611830181036020611611850101528662000864565b604435611611830160408101919091526064356060820152608435608082015260a43560a08201526001600160a01b0388811660c08301528a1660e0820152336101008201528815156101208201528415156101409091015203906000f094851562000477573360005260026020526040600020805490600160401b8210156200046157600182018082558210156200044b576000908152602090200180546001600160a01b0319166001600160a01b03881617905560035496600160401b881015620004615760018801806003558810156200044b57620003e67fae455ec965a42a5308549991870fe8e11827dbaf863754fb1259f6e4411475239560209960036000527fc2575a0e9e593c00f959f8c92f12db2869c3395a3b0502d05e2516446f71f85b0160018060a01b038a166bffffffffffffffffffffffff60a01b825416179055620003d860405196610140885261014088019062000864565b908682038b88015262000864565b60443560408601526064356060860152608435608086015260a43560a08601526001600160a01b0396871660c086015290861660e08501529015156101008401529015156101208301529284169281900390a26040516001600160a01b039091168152f35b634e487b7160e01b600052603260045260246000fd5b634e487b7160e01b600052604160045260246000fd5b6040513d6000823e3d90fd5b60405162461bcd60e51b815260206004820152601960248201527f496e73756666696369656e74206372656174696f6e20666565000000000000006044820152606490fd5b346200015c5760203660031901126200015c57620004e5620008a6565b600435600155005b346200015c5760003660031901126200015c576000546040516001600160a01b039091168152602090f35b346200015c5760003660031901126200015c5762000535620008a6565b600080546001600160a01b0319811682556001600160a01b03167f8be0079c531659141344cd1fd0a4f28419497f9722a3daafe3b4186f6b6457e08280a3005b346200015c576020806003193601126200015c576001600160a01b03806200059c620007c0565b1660005260026020526040600020916040518092602085549283815201946000526020600020926000915b838310620005f357620005ef86620005e2818a0382620007d7565b6040519182918262000779565b0390f35b8454811687529581019560019485019490920191620005c7565b346200015c5760003660031901126200015c576200062a620008a6565b478015620006b75760008080809360018060a01b038254165af13d15620006b1573d6200065781620007fa565b90620006676040519283620007d7565b8152600060203d92013e5b156200067a57005b60405162461bcd60e51b815260206004820152600f60248201526e151c985b9cd9995c8819985a5b1959608a1b6044820152606490fd5b62000672565b60405162461bcd60e51b81526020600482015260136024820152724e6f206665657320746f20776974686472617760681b6044820152606490fd5b346200015c5760003660031901126200015c576003549081815260208082019260036000527fc2575a0e9e593c00f959f8c92f12db2869c3395a3b0502d05e2516446f71f85b916000905b8282106200075857620005ef85620005e281890382620007d7565b83546001600160a01b0316865294850194600193840193909101906200073d565b602090602060408183019282815285518094520193019160005b828110620007a2575050505090565b83516001600160a01b03168552938101939281019260010162000793565b600435906001600160a01b03821682036200015c57565b90601f8019910116810190811067ffffffffffffffff8211176200046157604052565b67ffffffffffffffff81116200046157601f01601f191660200190565b81601f820112156200015c578035906200083182620007fa565b92620008416040519485620007d7565b828452602083830101116200015c57816000926020809301838601378301015290565b919082519283825260005b84811062000891575050826000602080949584010152601f8019910116010190565b6020818301810151848301820152016200086f565b6000546001600160a01b03163303620008bb57565b606460405162461bcd60e51b815260206004820152602060248201527f4f776e61626c653a2063616c6c6572206973206e6f7420746865206f776e65726044820152fdfe60406080815234620005d05762001611803803806200001e81620005d5565b92833981019061016081830312620005d05780516001600160401b038111620005d057826200004f918301620005fb565b602082015190926001600160401b038211620005d05762000072918301620005fb565b83820151606083015190608084015160a0850151906200009560c087016200066d565b93620000a460e088016200066d565b93620000b461010089016200066d565b620000d2610140620000ca6101208c0162000682565b9a0162000682565b8a51909a6001600160401b038211620004905760035490600182811c92168015620005c5575b6020831014620005af5781601f8493116200053d575b50602090601f8311600114620004b257600092620004a6575b50508160011b916000199060031b1c1916176003555b87516001600160401b03811162000490576004988954600181811c9116801562000485575b602082101462000470579081601f84931162000418575b50602090601f8311600114620003ad57600092620003a1575b50508160011b916000199060031b1c19161788555b6019620001c086620001ba878762000690565b62000690565b116200035e576001600160a01b039687169586156200031b578716968715620002d8578116978815620002955750600080516020620015f1833981519152602083620002118b9560009586620006c8565b6200021f8160025462000690565b6002558484528382528d84208181540190558d51908152a360055560065560075560018060a01b0319908160085416176008556009541617600955600a549260ff60a81b90151560a81b169260018060b01b031916179060ff60a01b90151560a01b161717600a5551610bf69081620009fb8239f35b60649060208d519162461bcd60e51b8352820152601f60248201527f45524332303a206d696e7420746f20746865207a65726f2061646472657373006044820152fd5b8b5162461bcd60e51b81526020818b0152601a60248201527f496e76616c696420646576656c6f706d656e742077616c6c65740000000000006044820152606490fd5b8b5162461bcd60e51b81526020818b0152601860248201527f496e76616c6964206d61726b6574696e672077616c6c657400000000000000006044820152606490fd5b8a5162461bcd60e51b81526020818a0152601360248201527f546f74616c206665657320746f6f2068696768000000000000000000000000006044820152606490fd5b01519050388062000192565b60008c8152602081209350601f198516905b818110620003ff5750908460019594939210620003e5575b505050811b018855620001a7565b015160001960f88460031b161c19169055388080620003d7565b92936020600181928786015181550195019301620003bf565b9091508a6000526020600020601f840160051c8101916020851062000465575b90601f859493920160051c01905b81811062000455575062000179565b6000815584935060010162000446565b909150819062000438565b60228b634e487b7160e01b6000525260246000fd5b90607f169062000162565b634e487b7160e01b600052604160045260246000fd5b01519050388062000127565b600360009081527fc2575a0e9e593c00f959f8c92f12db2869c3395a3b0502d05e2516446f71f85b9350601f198516905b8181106200052457509084600195949392106200050a575b505050811b016003556200013d565b015160001960f88460031b161c19169055388080620004fb565b92936020600181928786015181550195019301620004e3565b60036000529091507fc2575a0e9e593c00f959f8c92f12db2869c3395a3b0502d05e2516446f71f85b601f840160051c810160208510620005a7575b90849392915b601f830160051c82018110620005975750506200010e565b600081558594506001016200057f565b508062000579565b634e487b7160e01b600052602260045260246000fd5b91607f1691620000f8565b600080fd5b6040519190601f01601f191682016001600160401b038111838210176200049057604052565b919080601f84011215620005d05782516001600160401b038111620004905760209062000631601f8201601f19168301620005d5565b92818452828287010111620005d05760005b8181106200065957508260009394955001015290565b858101830151848201840152820162000643565b51906001600160a01b0382168203620005d057565b51908115158203620005d057565b919082018092116200069e57565b634e487b7160e01b600052601160045260246000fd5b818102929181159184041417156200069e57565b600a549092916001600160a01b03919082851683831681811490811562000818575b5080156200080f575b801562000804575b620007fc5730149283620007ec575b8315620007c7575b5050506200071e575050565b620007376200073060055483620006b4565b6064900490565b906200075d62000730620007526200073060065485620006b4565b9260075490620006b4565b9180620007a7575b508062000787575b508062000778575050565b62000785913090620008da565b565b600954620007a091906001600160a01b031684620008da565b386200076d565b600854620007c091906001600160a01b031685620008da565b3862000765565b163014915081620007dd575b5038808062000712565b60ff915060a81c1638620007d3565b925060ff8260a01c16926200070a565b505050505050565b5083821615620006fb565b508015620006f3565b90508483161438620006ea565b156200082d57565b60405162461bcd60e51b815260206004820152602360248201527f45524332303a207472616e7366657220746f20746865207a65726f206164647260448201526265737360e81b6064820152608490fd5b156200088657565b60405162461bcd60e51b815260206004820152602660248201527f45524332303a207472616e7366657220616d6f756e7420657863656564732062604482015265616c616e636560d01b6064820152608490fd5b6001600160a01b038082169291908315620009a757821693620008ff85151562000825565b6200090c818484620006c8565b6200098c600080516020620015f18339815191529383620009718462000948620009a29760018060a01b03166000526000602052604060002090565b5462000957828210156200087e565b039160018060a01b03166000526000602052604060002090565b556001600160a01b0316600090815260208190526040902090565b8054820190556040519081529081906020820190565b0390a3565b60405162461bcd60e51b815260206004820152602560248201527f45524332303a207472616e736665722066726f6d20746865207a65726f206164604482015264647265737360d81b6064820152608490fdfe608060408181526004918236101561001657600080fd5b600092833560e01c91826306fdde031461062957508163095ea7b3146105ff57816318160ddd146105e05781631ee394fa146105c157816323b872dd146104f75781632bf2b11b146104d0578163313ce567146104b4578163395093511461044d57816370a082311461041657816375f0a874146103ed5781638da5cb5b146103c457816395d89b41146102a3578163a457c2d7146101fb57508063a9059cbb146101cb578063bcc178fd146101a5578063c04a54141461017d578063da6fa55c1461015f578063dd62ed3e146101175763eb466543146100f657600080fd5b346101135781600319360112610113576020906006549051908152f35b5080fd5b503461011357806003193601126101135780602092610134610750565b61013c61076b565b6001600160a01b0391821683526001865283832091168252845220549051908152f35b50346101135781600319360112610113576020906005549051908152f35b503461011357816003193601126101135760095490516001600160a01b039091168152602090f35b503461011357816003193601126101135760209060ff600a5460a81c1690519015158152f35b50346101135780600319360112610113576020906101f46101ea610750565b6024359033610936565b5160018152f35b905082346102a057826003193601126102a057610216610750565b918360243592338152600160205281812060018060a01b038616825260205220549082821061024f576020856101f48585038733610781565b608490602086519162461bcd60e51b8352820152602560248201527f45524332303a2064656372656173656420616c6c6f77616e63652062656c6f77604482015264207a65726f60d81b6064820152fd5b80fd5b83833461011357816003193601126101135780519082845460018160011c90600183169283156103ba575b60209384841081146103a75783885290811561038b5750600114610336575b505050829003601f01601f191682019267ffffffffffffffff841183851017610323575082918261031f925282610707565b0390f35b634e487b7160e01b815260418552602490fd5b8787529192508591837f8a35acfbc15ff81a39ae7d344fd709f28e8600b4aa8c65c6b64bfe7fe36bd19b5b83851061037757505050508301018580806102ed565b805488860183015293019284908201610361565b60ff1916878501525050151560051b84010190508580806102ed565b634e487b7160e01b895260228a52602489fd5b91607f16916102ce565b505034610113578160031936011261011357600a5490516001600160a01b039091168152602090f35b50503461011357816003193601126101135760085490516001600160a01b039091168152602090f35b5050346101135760203660031901126101135760209181906001600160a01b0361043e610750565b16815280845220549051908152f35b8284346102a057816003193601126102a057610467610750565b338252600160209081528383206001600160a01b03831684529052828220546024358101929083106104a1576020846101f4858533610781565b634e487b7160e01b815260118552602490fd5b5050346101135781600319360112610113576020905160128152f35b50503461011357816003193601126101135760209060ff600a5460a01c1690519015158152f35b8391503461011357606036600319011261011357610513610750565b61051b61076b565b91846044359460018060a01b038416815260016020528181203382526020522054906000198203610555575b6020866101f4878787610936565b84821061057e5750918391610573602096956101f495033383610781565b919394819350610547565b606490602087519162461bcd60e51b8352820152601d60248201527f45524332303a20696e73756666696369656e7420616c6c6f77616e63650000006044820152fd5b5050346101135781600319360112610113576020906007549051908152f35b5050346101135781600319360112610113576020906002549051908152f35b5050346101135780600319360112610113576020906101f461061f610750565b6024359033610781565b849084346107035782600319360112610703578260035460018160011c90600183169283156106f9575b60209384841081146103a75783885290811561038b57506001146106a357505050829003601f01601f191682019267ffffffffffffffff841183851017610323575082918261031f925282610707565b600387529192508591837fc2575a0e9e593c00f959f8c92f12db2869c3395a3b0502d05e2516446f71f85b5b8385106106e557505050508301018580806102ed565b8054888601830152930192849082016106cf565b91607f1691610653565b8280fd5b6020808252825181830181905290939260005b82811061073c57505060409293506000838284010152601f8019910116010190565b81810186015184820160400152850161071a565b600435906001600160a01b038216820361076657565b600080fd5b602435906001600160a01b038216820361076657565b6001600160a01b0390811691821561083257169182156107e25760207f8c5be1e5ebec7d5bd14f71427d1e84f3dd0314c0f7b2291e5b200ac8c7c3b925918360005260018252604060002085600052825280604060002055604051908152a3565b60405162461bcd60e51b815260206004820152602260248201527f45524332303a20617070726f766520746f20746865207a65726f206164647265604482015261737360f01b6064820152608490fd5b60405162461bcd60e51b8152602060048201526024808201527f45524332303a20617070726f76652066726f6d20746865207a65726f206164646044820152637265737360e01b6064820152608490fd5b1561088a57565b60405162461bcd60e51b815260206004820152602360248201527f45524332303a207472616e7366657220746f20746865207a65726f206164647260448201526265737360e81b6064820152608490fd5b156108e257565b60405162461bcd60e51b815260206004820152602660248201527f45524332303a207472616e7366657220616d6f756e7420657863656564732062604482015265616c616e636560d01b6064820152608490fd5b6001600160a01b038082169291908315610a0957821693610958851515610883565b610963818484610a85565b6109ee7fddf252ad1be2c89b69c2b068fc378daa952ba7f163c4a11628f55a4df523b3ef93836109d3846109ac610a049760018060a01b03166000526000602052604060002090565b546109b9828210156108db565b039160018060a01b03166000526000602052604060002090565b556001600160a01b0316600090815260208190526040902090565b8054820190556040519081529081906020820190565b0390a3565b60405162461bcd60e51b815260206004820152602560248201527f45524332303a207472616e736665722066726f6d20746865207a65726f206164604482015264647265737360d81b6064820152608490fd5b81810292918115918404141715610a6f57565b634e487b7160e01b600052601160045260246000fd5b600a549092916001600160a01b039190828516838316818114908115610bb4575b508015610bac575b8015610ba2575b610b9a5730149283610b8b575b8315610b69575b505050610ad4575050565b610aea610ae360055483610a5c565b6064900490565b90610b0a610ae3610b00610ae360065485610a5c565b9260075490610a5c565b9180610b4c575b5080610b2f575b5080610b22575050565b610b2d913090610936565b565b600954610b4691906001600160a01b031684610936565b38610b18565b600854610b6391906001600160a01b031685610936565b38610b11565b163014915081610b7d575b50388080610ac9565b60ff915060a81c1638610b74565b925060ff8260a01c1692610ac2565b505050505050565b5083821615610ab5565b508015610aae565b90508483161438610aa656fea264697066735822122045c2295722ac10e16efd9813310fd087e81f95cf2f99eab4dfe6696b0dfcb00164736f6c63430008160033ddf252ad1be2c89b69c2b068fc378daa952ba7f163c4a11628f55a4df523b3efa264697066735822122017054fdf130809e3f69fcf39bd7ce0947725f98c2a4c5caae9d9bc335454f4f664736f6c63430008160033",
  "linkReferences": {},
  "deployedLinkReferences": {}
}