{
  "_format": "hh-sol-artifact-1",
  "contractName": "TokenFactory_v3_0_0",
  "sourceName": "contracts/TokenFactory_v3.0.0.sol",
  "abi": [
    {
      "inputs": [
        {
          "internalType": "address",
          "name": "implementation_",
          "type": "address"
        }
      ],
      "stateMutability": "nonpayable",
      "type": "constructor"
    },
    {
      "anonymous": false,
      "inputs": [
        {
          "indexed": false,
          "internalType": "address",
          "name": "previousAdmin",
          "type": "address"
        },
        {
          "indexed": false,
          "internalType": "address",
          "name": "newAdmin",
          "type": "address"
        }
      ],
      "name": "AdminChanged",
      "type": "event"
    },
    {
      "anonymous": false,
      "inputs": [
        {
          "indexed": true,
          "internalType": "address",
          "name": "beacon",
          "type": "address"
        }
      ],
      "name": "BeaconUpgraded",
      "type": "event"
    },
    {
      "anonymous": false,
      "inputs": [
        {
          "indexed": true,
          "internalType": "address",
          "name": "user",
          "type": "address"
        },
        {
          "indexed": false,
          "internalType": "uint256",
          "name": "fee",
          "type": "uint256"
        }
      ],
      "name": "CustomDeploymentFeeSet",
      "type": "event"
    },
    {
      "anonymous": false,
      "inputs": [
        {
          "indexed": false,
          "internalType": "uint256",
          "name": "newFee",
          "type": "uint256"
        }
      ],
      "name": "DeploymentFeeUpdated",
      "type": "event"
    },
    {
      "anonymous": false,
      "inputs": [
        {
          "indexed": false,
          "internalType": "uint256",
          "name": "votingDelay",
          "type": "uint256"
        },
        {
          "indexed": false,
          "internalType": "uint256",
          "name": "votingPeriod",
          "type": "uint256"
        },
        {
          "indexed": false,
          "internalType": "uint256",
          "name": "proposalThreshold",
          "type": "uint256"
        },
        {
          "indexed": false,
          "internalType": "uint256",
          "name": "quorumNumerator",
          "type": "uint256"
        },
        {
          "indexed": false,
          "internalType": "uint256",
          "name": "timelockDelay",
          "type": "uint256"
        }
      ],
      "name": "GovernanceConfigUpdated",
      "type": "event"
    },
    {
      "anonymous": false,
      "inputs": [
        {
          "indexed": false,
          "internalType": "uint8",
          "name": "version",
          "type": "uint8"
        }
      ],
      "name": "Initialized",
      "type": "event"
    },
    {
      "anonymous": false,
      "inputs": [
        {
          "indexed": true,
          "internalType": "address",
          "name": "previousOwner",
          "type": "address"
        },
        {
          "indexed": true,
          "internalType": "address",
          "name": "newOwner",
          "type": "address"
        }
      ],
      "name": "OwnershipTransferred",
      "type": "event"
    },
    {
      "anonymous": false,
      "inputs": [
        {
          "indexed": true,
          "internalType": "address",
          "name": "token",
          "type": "address"
        },
        {
          "indexed": false,
          "internalType": "string",
          "name": "name",
          "type": "string"
        },
        {
          "indexed": false,
          "internalType": "string",
          "name": "symbol",
          "type": "string"
        },
        {
          "indexed": true,
          "internalType": "address",
          "name": "dao",
          "type": "address"
        },
        {
          "indexed": true,
          "internalType": "address",
          "name": "timelock",
          "type": "address"
        },
        {
          "indexed": false,
          "internalType": "address",
          "name": "treasury",
          "type": "address"
        }
      ],
      "name": "TokenCreated",
      "type": "event"
    },
    {
      "anonymous": false,
      "inputs": [
        {
          "indexed": true,
          "internalType": "address",
          "name": "implementation",
          "type": "address"
        }
      ],
      "name": "Upgraded",
      "type": "event"
    },
    {
      "inputs": [],
      "name": "VERSION",
      "outputs": [
        {
          "internalType": "string",
          "name": "",
          "type": "string"
        }
      ],
      "stateMutability": "view",
      "type": "function"
    },
    {
      "inputs": [
        {
          "internalType": "string",
          "name": "name",
          "type": "string"
        },
        {
          "internalType": "string",
          "name": "symbol",
          "type": "string"
        },
        {
          "internalType": "uint256",
          "name": "initialSupply",
          "type": "uint256"
        },
        {
          "internalType": "uint256",
          "name": "maxSupply",
          "type": "uint256"
        },
        {
          "components": [
            {
              "internalType": "uint256",
              "name": "votingDelay",
              "type": "uint256"
            },
            {
              "internalType": "uint256",
              "name": "votingPeriod",
              "type": "uint256"
            },
            {
              "internalType": "uint256",
              "name": "proposalThreshold",
              "type": "uint256"
            },
            {
              "internalType": "uint256",
              "name": "quorumNumerator",
              "type": "uint256"
            },
            {
              "internalType": "uint256",
              "name": "timelockDelay",
              "type": "uint256"
            }
          ],
          "internalType": "struct TokenFactory_v3_0_0.GovernanceConfig",
          "name": "governanceConfig",
          "type": "tuple"
        }
      ],
      "name": "createToken",
      "outputs": [
        {
          "internalType": "address",
          "name": "",
          "type": "address"
        }
      ],
      "stateMutability": "payable",
      "type": "function"
    },
    {
      "inputs": [
        {
          "internalType": "address",
          "name": "",
          "type": "address"
        }
      ],
      "name": "customDeploymentFees",
      "outputs": [
        {
          "internalType": "uint256",
          "name": "",
          "type": "uint256"
        }
      ],
      "stateMutability": "view",
      "type": "function"
    },
    {
      "inputs": [],
      "name": "defaultConfig",
      "outputs": [
        {
          "internalType": "uint256",
          "name": "votingDelay",
          "type": "uint256"
        },
        {
          "internalType": "uint256",
          "name": "votingPeriod",
          "type": "uint256"
        },
        {
          "internalType": "uint256",
          "name": "proposalThreshold",
          "type": "uint256"
        },
        {
          "internalType": "uint256",
          "name": "quorumNumerator",
          "type": "uint256"
        },
        {
          "internalType": "uint256",
          "name": "timelockDelay",
          "type": "uint256"
        }
      ],
      "stateMutability": "view",
      "type": "function"
    },
    {
      "inputs": [
        {
          "internalType": "uint256",
          "name": "",
          "type": "uint256"
        }
      ],
      "name": "deployedTokens",
      "outputs": [
        {
          "internalType": "address",
          "name": "",
          "type": "address"
        }
      ],
      "stateMutability": "view",
      "type": "function"
    },
    {
      "inputs": [],
      "name": "deploymentFee",
      "outputs": [
        {
          "internalType": "uint256",
          "name": "",
          "type": "uint256"
        }
      ],
      "stateMutability": "view",
      "type": "function"
    },
    {
      "inputs": [],
      "name": "getDeployedTokens",
      "outputs": [
        {
          "internalType": "address[]",
          "name": "",
          "type": "address[]"
        }
      ],
      "stateMutability": "view",
      "type": "function"
    },
    {
      "inputs": [
        {
          "internalType": "address",
          "name": "user",
          "type": "address"
        }
      ],
      "name": "getTokensByUser",
      "outputs": [
        {
          "internalType": "address[]",
          "name": "",
          "type": "address[]"
        }
      ],
      "stateMutability": "view",
      "type": "function"
    },
    {
      "inputs": [],
      "name": "implementation",
      "outputs": [
        {
          "internalType": "contract TokenTemplate_v3_0_0",
          "name": "",
          "type": "address"
        }
      ],
      "stateMutability": "view",
      "type": "function"
    },
    {
      "inputs": [
        {
          "internalType": "address",
          "name": "implementation_",
          "type": "address"
        },
        {
          "internalType": "uint256",
          "name": "deploymentFee_",
          "type": "uint256"
        }
      ],
      "name": "initialize",
      "outputs": [],
      "stateMutability": "nonpayable",
      "type": "function"
    },
    {
      "inputs": [],
      "name": "owner",
      "outputs": [
        {
          "internalType": "address",
          "name": "",
          "type": "address"
        }
      ],
      "stateMutability": "view",
      "type": "function"
    },
    {
      "inputs": [],
      "name": "proxiableUUID",
      "outputs": [
        {
          "internalType": "bytes32",
          "name": "",
          "type": "bytes32"
        }
      ],
      "stateMutability": "view",
      "type": "function"
    },
    {
      "inputs": [],
      "name": "renounceOwnership",
      "outputs": [],
      "stateMutability": "nonpayable",
      "type": "function"
    },
    {
      "inputs": [
        {
          "internalType": "address",
          "name": "user",
          "type": "address"
        },
        {
          "internalType": "uint256",
          "name": "fee",
          "type": "uint256"
        }
      ],
      "name": "setCustomDeploymentFee",
      "outputs": [],
      "stateMutability": "nonpayable",
      "type": "function"
    },
    {
      "inputs": [
        {
          "internalType": "address",
          "name": "",
          "type": "address"
        }
      ],
      "name": "tokenToDAO",
      "outputs": [
        {
          "internalType": "address",
          "name": "",
          "type": "address"
        }
      ],
      "stateMutability": "view",
      "type": "function"
    },
    {
      "inputs": [
        {
          "internalType": "address",
          "name": "",
          "type": "address"
        }
      ],
      "name": "tokenToTimelock",
      "outputs": [
        {
          "internalType": "address",
          "name": "",
          "type": "address"
        }
      ],
      "stateMutability": "view",
      "type": "function"
    },
    {
      "inputs": [
        {
          "internalType": "address",
          "name": "",
          "type": "address"
        }
      ],
      "name": "tokenToTreasury",
      "outputs": [
        {
          "internalType": "address",
          "name": "",
          "type": "address"
        }
      ],
      "stateMutability": "view",
      "type": "function"
    },
    {
      "inputs": [
        {
          "internalType": "address",
          "name": "newOwner",
          "type": "address"
        }
      ],
      "name": "transferOwnership",
      "outputs": [],
      "stateMutability": "nonpayable",
      "type": "function"
    },
    {
      "inputs": [
        {
          "components": [
            {
              "internalType": "uint256",
              "name": "votingDelay",
              "type": "uint256"
            },
            {
              "internalType": "uint256",
              "name": "votingPeriod",
              "type": "uint256"
            },
            {
              "internalType": "uint256",
              "name": "proposalThreshold",
              "type": "uint256"
            },
            {
              "internalType": "uint256",
              "name": "quorumNumerator",
              "type": "uint256"
            },
            {
              "internalType": "uint256",
              "name": "timelockDelay",
              "type": "uint256"
            }
          ],
          "internalType": "struct TokenFactory_v3_0_0.GovernanceConfig",
          "name": "newConfig",
          "type": "tuple"
        }
      ],
      "name": "updateDefaultGovernanceConfig",
      "outputs": [],
      "stateMutability": "nonpayable",
      "type": "function"
    },
    {
      "inputs": [
        {
          "internalType": "uint256",
          "name": "newFee",
          "type": "uint256"
        }
      ],
      "name": "updateDeploymentFee",
      "outputs": [],
      "stateMutability": "nonpayable",
      "type": "function"
    },
    {
      "inputs": [
        {
          "internalType": "address",
          "name": "newImplementation",
          "type": "address"
        }
      ],
      "name": "upgradeTo",
      "outputs": [],
      "stateMutability": "nonpayable",
      "type": "function"
    },
    {
      "inputs": [
        {
          "internalType": "address",
          "name": "newImplementation",
          "type": "address"
        },
        {
          "internalType": "bytes",
          "name": "data",
          "type": "bytes"
        }
      ],
      "name": "upgradeToAndCall",
      "outputs": [],
      "stateMutability": "payable",
      "type": "function"
    },
    {
      "inputs": [],
      "name": "withdrawFees",
      "outputs": [],
      "stateMutability": "nonpayable",
      "type": "function"
    }
  ],
  "bytecode": "0x60c03461009557601f6200a31d38819003918201601f19168301916001600160401b0383118484101761009a5780849260209460405283398101031261009557516001600160a01b038116908190036100955730608052600160c95560a05260405161a26c9081620000b182396080518181816112730152818161137c0152611733015260a051818181610ade015261122f0152f35b600080fd5b634e487b7160e01b600052604160045260246000fdfe608060405260043610156200001357600080fd5b6000803560e01c80633659cfe6146200170a578063476343ee1462001643578063499200db14620015f15780634f1ef286146200132657806352d1902d146200125e5780635c60da1b1462001217578063622ae7aa146200117c57806367a6c3331462000985578063715018a614620009235780638037007514620007165780638da5cb5b14620006eb5780639e09ed5f14620006a4578063bba22e1d1462000664578063be50b5c11462000624578063c05ddda814620005e7578063cab3834214620005a7578063cbf1208f1462000537578063cd6dc687146200037a578063ec81aadb1462000331578063f085fe6a1462000265578063f2cff57f1462000245578063f2fde38b14620001ab5763ffa1ad74146200013257600080fd5b34620001a85780600319360112620001a85760405160408101908082106001600160401b0383111762000192576200018e9160405260058152640332e302e360dc1b602082015260405191829160208352602083019062001a91565b0390f35b634e487b7160e01b600052604160045260246000fd5b80fd5b5034620001a8576020366003190112620001a857620001c9620018ea565b620001d362001c2b565b6001600160a01b03811615620001f157620001ee9062001c84565b80f35b60405162461bcd60e51b815260206004820152602660248201527f4f776e61626c653a206e6577206f776e657220697320746865207a65726f206160448201526564647265737360d01b6064820152608490fd5b5034620001a85780600319360112620001a857602060ca54604051908152f35b5034620001a85760a0366003190112620001a8577f01f8a065f02bf39f5417c6d8ebc51ce819db12a2cf8cd3049a4ec14719a0a73a604051620002a88162001901565b60043581526020810160243581526200032b604083019260443584526060810190606435825260808101906084358252620002e262001c2b565b51938460d05551948560d15551918260d25551908160d35551918260d455604051958695869192608093969594919660a084019784526020840152604083015260608201520152565b0390a180f35b5034620001a8576020366003190112620001a8576004359060cc54821015620001a8576020620003618362001a43565b905460405160039290921b1c6001600160a01b03168152f35b5034620001a8576040366003190112620001a85762000398620018ea565b50805460ff8160081c16159081809262000529575b801562000510575b15620004b45760ff198116600117835581620004a2575b50620003ea60ff835460081c16620003e48162001ccd565b62001ccd565b620003f53362001c84565b8154906200040960ff8360081c1662001ccd565b60243560ca5560806040516200041f8162001901565b6201518080825262093a809081602084015269152d02c7e14af680000092836040820152600460608201526202a300948591015260d05560d15560d255600460d35560d4556200046d575080f35b61ff00191681557f7f26b83ff96e1f2b6a682f133852f6798a09c465da95921460cefb3847402498602060405160018152a180f35b61ffff191661010117825538620003cc565b60405162461bcd60e51b815260206004820152602e60248201527f496e697469616c697a61626c653a20636f6e747261637420697320616c72656160448201526d191e481a5b9a5d1a585b1a5e995960921b6064820152608490fd5b50303b158015620003b55750600160ff821614620003b5565b50600160ff821610620003ad565b5034620001a8576040366003190112620001a85762000555620018ea565b7f035250ff587e06567c2fa9d4b3191805958a937530b0e88cfce4c9c4dcdef1b36020602435926200058662001c2b565b6001600160a01b031680855260cb825260408086208590555193845292a280f35b5034620001a8576020366003190112620001a8576020906001600160a01b039060409082620005d5620018ea565b16815260ce8452205416604051908152f35b5034620001a8576020366003190112620001a8576020906040906001600160a01b0362000613620018ea565b16815260cb83522054604051908152f35b5034620001a8576020366003190112620001a8576020906001600160a01b03906040908262000652620018ea565b16815260cf8452205416604051908152f35b5034620001a8576020366003190112620001a8576020906001600160a01b03906040908262000692620018ea565b16815260cd8452205416604051908152f35b5034620001a85780600319360112620001a85760d05460d15460d25460d35460d454604080519586526020860194909452928401919091526060830152608082015260a090f35b5034620001a85780600319360112620001a8576033546040516001600160a01b039091168152602090f35b5034620001a8576020806003193601126200091f5762000735620018ea565b60cc546001600160a01b03918216918490815b8381106200088957506200075c8662001bcc565b956200076c604051978862001969565b8087526200077d601f199162001bcc565b0136868801378193825b848110620007a457604051878152806200018e818a018b620019e3565b8683620007b18362001a43565b92905460046003946040519485938492638da5cb5b60e01b8452881b1c165afa9081156200087e578491869188916200084a575b501614620007f8575b5060010162000787565b83906200080783989362001a43565b9054911b1c1688518210156200083657816200082e918960019460051b8c01015262001c05565b9590620007ee565b634e487b7160e01b85526032600452602485fd5b6200086f91508b3d8d1162000876575b62000866818362001969565b81019062001be4565b38620007e5565b503d6200085a565b6040513d88823e3d90fd5b81866004620008988462001a43565b919054916040519485938492638da5cb5b60e01b845260031b1c165afa9081156200091457869184918691620008f2575b501614620008db575b60010162000748565b95620008e960019162001c05565b969050620008d2565b6200090d9150893d8b11620008765762000866818362001969565b38620008c9565b6040513d86823e3d90fd5b5080fd5b5034620001a85780600319360112620001a8576200094062001c2b565b603380546001600160a01b031981169091556000906001600160a01b03167f8be0079c531659141344cd1fd0a4f28419497f9722a3daafe3b4186f6b6457e08280a380f35b50610120366003190112620001a8576004356001600160401b0381116200091f57620009b690369060040162001a22565b6024356001600160401b03811162000fc757620009d890369060040162001a22565b9060a036608319011262000fc75760405191620009f58362001901565b608435835260a435602084015260c435604084015260e4356060840152610104356080840152600260c954146200113757600260c95533845260cb602052604084205480156200112d575b3410620010e8576040516333eea18160e01b602082015260a0602482015262000aae8162000a8962000a7660c483018762001a91565b8281036023190160448401528562001a91565b604435606483015260643560848301523360a483015203601f19810183528262001969565b60405190610416808301908382106001600160401b0383111762000f345791604062000b179285946200410d86397f00000000000000000000000000000000000000000000000000000000000000006001600160a01b0316815260208101829052019062001a91565b039085f09283156200091457805115620010ae575b608081015160405162000b3f8162001931565b8681526040519062000b518262001931565b87825260405192836122a98101106001600160401b036122a9860111176200107b579162000ba162000bb89285946122a962001e6487396122a986019081526080602082018190520190620019e3565b906122a98401820360406122a986010152620019e3565b3060606122a984010152039086f09081156200108f57805190602081015190606060408201519101519160405193846150558101106001600160401b03615055870111176200109a576150556200452386396001600160a01b038981166150558701908152908716602082015260408101919091526060810191909152608081019190915260a081019190915281900360c0019086f09182156200108f57604051610c9f808201908282106001600160401b038311176200107b5760409183916200957883396001600160a01b0386811682528916602082015203019087f080156200087e57604051638f61f4f560e01b8152936020856004816001600160a01b0388165afa9485156200107057889562001036575b506001600160a01b03908116949084163b156200103257604051632f2ff15d60e01b80825260048201929092526001600160a01b0386166024820152888180604481010381836001600160a01b038a165af18015620010275762001011575b506040516307bd026560e01b81528891906020816004816001600160a01b038a165afa9081156200100657839162000fcb575b506001600160a01b0386163b1562000fc7576040519182526004820152600060248201528181604481836001600160a01b038a165af1801562000f645762000faf575b5060405163034f3dbf60e21b81526020816004816001600160a01b0389165afa90811562000f6457829162000f6f575b506001600160a01b0385163b156200091f5760405163d547741f60e01b815260048101919091523060248201528181604481836001600160a01b038a165af1801562000f645762000f48575b505060cc546801000000000000000081101562000f34577f7b66ae1a2c6a05f9076952c63fb129268ae229099b62eafab1b8b4ccb14744e3926040949260209962000e7584600162000f00960160cc5562001a43565b81546001600160a01b0360039290921b82811b199091168d83169182901b1790925590825260cd8c5287822080546001600160a01b03199081168b1790915560ce8d528883208054821688841617905560cf8d5297909120805490971691169081179095556040516060808252909762000ef29189019062001a91565b908782038a89015262001a91565b60408601939093526001600160a01b03908116949086169281900390a4600160c9556040516001600160a01b039091168152f35b634e487b7160e01b88526041600452602488fd5b62000f53906200191d565b62000f6057863862000e1f565b8680fd5b6040513d84823e3d90fd5b9150506020813d60201162000fa6575b8162000f8e6020938362001969565b8101031262000fa1578790513862000dd3565b600080fd5b3d915062000f7f565b62000fba906200191d565b62000f6057863862000da3565b8280fd5b9250506020823d60201162000ffd575b8162000fea6020938362001969565b8101031262000fa1578891513862000d60565b3d915062000fdb565b6040513d85823e3d90fd5b6200101f909891986200191d565b963862000d2d565b6040513d8b823e3d90fd5b8780fd5b9094506020813d60201162001067575b81620010556020938362001969565b81010312620010325751933862000cce565b3d915062001046565b6040513d8a823e3d90fd5b634e487b7160e01b89526041600452602489fd5b6040513d87823e3d90fd5b634e487b7160e01b8a52604160045260248afd5b50604051620010bd8162001901565b60d054815260d154602082015260d254604082015260d354606082015260d454608082015262000b2c565b60405162461bcd60e51b815260206004820152601b60248201527f496e73756666696369656e74206465706c6f796d656e742066656500000000006044820152606490fd5b5060ca5462000a40565b60405162461bcd60e51b815260206004820152601f60248201527f5265656e7472616e637947756172643a207265656e7472616e742063616c6c006044820152606490fd5b5034620001a85780600319360112620001a85760405160cc80548083529083526020808301937f47197230e1e4b29fc0bd84d7d78966c0925452aff72a2a121538b102457e9ebe92915b828210620011f6576200018e85620011e18189038262001969565b604051918291602083526020830190620019e3565b83546001600160a01b031686529485019460019384019390910190620011c6565b5034620001a85780600319360112620001a8576040517f00000000000000000000000000000000000000000000000000000000000000006001600160a01b03168152602090f35b5034620001a85780600319360112620001a8577f00000000000000000000000000000000000000000000000000000000000000006001600160a01b03163003620012bb5760206040516000805160206200a2178339815191528152f35b60405162461bcd60e51b815260206004820152603860248201527f555550535570677261646561626c653a206d757374206e6f742062652063616c60448201527f6c6564207468726f7567682064656c656761746563616c6c00000000000000006064820152608490fd5b506040366003190112620001a8576200133e620018ea565b6024356001600160401b03811162000fc7573660238201121562000fc75762001372903690602481600401359101620019a7565b6001600160a01b037f00000000000000000000000000000000000000000000000000000000000000008116929190620013ae3085141562001ad3565b620013ce6000805160206200a21783398151915294828654161462001b35565b620013d862001c2b565b7f4910fdfa16fed3260ed0e7147f7cc6da11a60208b5b9406d12a635614ffd91435460ff161562001411575050620001ee915062001d2e565b82919216604051936352d1902d60e01b85526020948581600481865afa879181620015bc575b50620014995760405162461bcd60e51b815260048101879052602e60248201527f45524331393637557067726164653a206e657720696d706c656d656e7461746960448201526d6f6e206973206e6f74205555505360901b6064820152608490fd5b949394036200156557620014ad8262001d2e565b7fbc7cd75a20ee27fd9adebab32041f755214dbc6bffa90cc0225b39da2e5c2d3b8580a2838351158015906200155c575b620014eb575b5050505080f35b8062001551946040519462001500866200194d565b602786527f416464726573733a206c6f772d6c6576656c2064656c65676174652063616c6c81870152660819985a5b195960ca1b604087015281519101845af46200154a62001b97565b9162001dc0565b5038808083620014e4565b506001620014de565b60405162461bcd60e51b815260048101849052602960248201527f45524331393637557067726164653a20756e737570706f727465642070726f786044820152681a58589b195555525160ba1b6064820152608490fd5b9091508681813d8311620015e9575b620015d7818362001969565b81010312620010325751903862001437565b503d620015cb565b5034620001a8576020366003190112620001a8577f40bd824d588484917db8fa4fc894c1e0feae5a75885290ba7b97521cebf82a8060206004356200163562001c2b565b8060ca55604051908152a180f35b5034620001a85780600319360112620001a8576200166062001c2b565b478015620016cf5760335482918291829182916001600160a01b03165af16200168862001b97565b5015620016925780f35b60405162461bcd60e51b8152602060048201526015602482015274119959481dda5d1a191c985dd85b0819985a5b1959605a1b6044820152606490fd5b60405162461bcd60e51b81526020600482015260136024820152724e6f206665657320746f20776974686472617760681b6044820152606490fd5b5034620001a8576020806003193601126200091f5762001729620018ea565b6001600160a01b037f00000000000000000000000000000000000000000000000000000000000000008116620017623082141562001ad3565b620017826000805160206200a21783398151915291838354161462001b35565b6200178c62001c2b565b604051916200179b8362001931565b8583527f4910fdfa16fed3260ed0e7147f7cc6da11a60208b5b9406d12a635614ffd91435460ff1615620017d857505050620001ee915062001d2e565b83929316906040516352d1902d60e01b81528581600481865afa879181620018b5575b506200185d5760405162461bcd60e51b815260048101879052602e60248201527f45524331393637557067726164653a206e657720696d706c656d656e7461746960448201526d6f6e206973206e6f74205555505360901b6064820152608490fd5b949394036200156557620018718262001d2e565b7fbc7cd75a20ee27fd9adebab32041f755214dbc6bffa90cc0225b39da2e5c2d3b8580a283835115801590620018ad57620014eb575050505080f35b5080620014de565b9091508681813d8311620018e2575b620018d0818362001969565b810103126200103257519038620017fb565b503d620018c4565b600435906001600160a01b038216820362000fa157565b60a081019081106001600160401b038211176200019257604052565b6001600160401b0381116200019257604052565b602081019081106001600160401b038211176200019257604052565b606081019081106001600160401b038211176200019257604052565b90601f801991011681019081106001600160401b038211176200019257604052565b6001600160401b0381116200019257601f01601f191660200190565b929192620019b5826200198b565b91620019c5604051938462001969565b82948184528183011162000fa1578281602093846000960137010152565b90815180825260208080930193019160005b82811062001a04575050505090565b83516001600160a01b031685529381019392810192600101620019f5565b9080601f8301121562000fa15781602062001a4093359101620019a7565b90565b60cc5481101562001a7b5760cc6000527f47197230e1e4b29fc0bd84d7d78966c0925452aff72a2a121538b102457e9ebe0190600090565b634e487b7160e01b600052603260045260246000fd5b919082519283825260005b84811062001abe575050826000602080949584010152601f8019910116010190565b60208183018101518483018201520162001a9c565b1562001adb57565b60405162461bcd60e51b815260206004820152602c60248201527f46756e6374696f6e206d7573742062652063616c6c6564207468726f7567682060448201526b19195b1959d85d1958d85b1b60a21b6064820152608490fd5b1562001b3d57565b60405162461bcd60e51b815260206004820152602c60248201527f46756e6374696f6e206d7573742062652063616c6c6564207468726f7567682060448201526b6163746976652070726f787960a01b6064820152608490fd5b3d1562001bc7573d9062001bab826200198b565b9162001bbb604051938462001969565b82523d6000602084013e565b606090565b6001600160401b038111620001925760051b60200190565b9081602091031262000fa157516001600160a01b038116810362000fa15790565b600019811462001c155760010190565b634e487b7160e01b600052601160045260246000fd5b6033546001600160a01b0316330362001c4057565b606460405162461bcd60e51b815260206004820152602060248201527f4f776e61626c653a2063616c6c6572206973206e6f7420746865206f776e65726044820152fd5b603380546001600160a01b039283166001600160a01b0319821681179092559091167f8be0079c531659141344cd1fd0a4f28419497f9722a3daafe3b4186f6b6457e0600080a3565b1562001cd557565b60405162461bcd60e51b815260206004820152602b60248201527f496e697469616c697a61626c653a20636f6e7472616374206973206e6f74206960448201526a6e697469616c697a696e6760a81b6064820152608490fd5b803b1562001d65576000805160206200a21783398151915280546001600160a01b0319166001600160a01b03909216919091179055565b60405162461bcd60e51b815260206004820152602d60248201527f455243313936373a206e657720696d706c656d656e746174696f6e206973206e60448201526c1bdd08184818dbdb9d1c9858dd609a1b6064820152608490fd5b9192901562001e25575081511562001dd6575090565b3b1562001de05790565b60405162461bcd60e51b815260206004820152601d60248201527f416464726573733a2063616c6c20746f206e6f6e2d636f6e74726163740000006044820152606490fd5b82519091501562001e395750805190602001fd5b60405162461bcd60e51b81526020600482015290819062001e5f90602483019062001a91565b0390fdfe604060808152346200045957620022a9803803806200001e816200045e565b928339810160808282031262000459578151602080840151919290916001600160401b039081811162000459578262000059918701620004af565b918686015191821162000459576200007a60609162000082938801620004af565b95016200049a565b937f5f58e3a2316349923ce3780f8d587db2d72378aed66a8261c916544fa6846ca5906000958691838352828652600180809686828d8820018181549155817fbd79b86ffe0ab8e8776151514217cd7cacd52c909f66475c3af44e129f0b00ff89819aa48b878c7fb09aa5aeb3702cfd50b6b62bc4532604938f21248a27a1d5ca736082b6819cc1928382528286828420018181549155858c8580a47fd8aa0f3194971a2a116679f7c2090f6939c8d4e01a2a8d7e41d55e5351469e63998a835283878385200181815491558c838680a47ffd643c72710c63c0180259aba6b2d05451e3591a24e58b62239378085726f78396879283855284200192848454945580a4878c528c8c20308d528a528b8d60ff9960ff82842054161562000422575b6001600160a01b03988916918d83620003cc575b509d9b9e9c9a9998979692915050905b620002c1575b50505050908893929187995b62000222575b50505050507f11c24f4ead16507c69ac467fbd5e4eed5fb5c699626d2cc6d66421df253886d59450816002558351928352820152a151611d3b90816200054e8239f35b919395978299919395979951821015620002b557818a8897969594939287866200024e8b968862000522565b511691888452838d528084208385528d5283205416156200027d575b505001989694939291908a9896620001d9565b868252818b528d82208183528b528d82208460ff198254161790558660008051602062002289833981519152339380a48a386200026a565b979589979550620001df565b8a898e9b9d9c9e969798999a9c8551841015620003b957908392918a620002ea8a968962000522565b511686845283835281842081855283528d82852054161562000381575b508a62000315858962000522565b51169188845283815281842083855281528d82852054161562000348575b50505050018d9b999c9a9897969594620001c7565b888452838152818420908385525282208460ff198254161790558660008051602062002289833981519152339380a48d8f808e62000333565b8684528383528184208185528352818420805460ff191687179055339087600080516020620022898339815191528680a43862000307565b9d9b5050509b9997969594939b620001cd565b8490838252528d81852090848652528d60ff8286205416620001b7578285528490528084208385528e528320805460ff1916881790553392600080516020620022898339815191529080a48b38808f8d620001b7565b808352828d528183203084528d528183208760ff19825416179055333082600080516020620022898339815191528680a4620001a3565b600080fd5b6040519190601f01601f191682016001600160401b038111838210176200048457604052565b634e487b7160e01b600052604160045260246000fd5b51906001600160a01b03821682036200045957565b81601f8201121562000459578051916020916001600160401b03841162000484578360051b908380620004e48185016200045e565b80978152019282010192831162000459578301905b82821062000508575050505090565b83809162000516846200049a565b815201910190620004f9565b8051821015620005375760209160051b010190565b634e487b7160e01b600052603260045260246000fdfe608060405260048036101561001d575b50361561001b57600080fd5b005b600090813560e01c90816301d5062a14610dcc57816301ffc9a714610d5c57816307bd026514610d335781630d3cf6fc14610cf8578163134008d314610c5657816313bc9f2014610c38578163150b7a0214610be2578163248a9ca314610bb65781632ab0f52914610b895781632f2ff15d14610ada57816331d5075014610aae57816336568abe14610a1d578163584b153e146109e657816364d62353146109385781638065657f146109185781638f2a0bb0146107c85781638f61f4f51461078d57816391d1485414610744578163a217fddf14610728578163b08e51c0146106ed578163b1c5f427146106c2578163bc197c8114610637578163c4d252f514610353578163d45c443514610329578163d547741f146102ea578163e38335e5146101d8578163f23a6e611461017a575063f27a0c920361000f57346101775780600319360112610177576020600254604051908152f35b80fd5b9050346101d45760a03660031901126101d457610195610ea9565b5061019e610ec4565b506084356001600160401b0381116101d0576101bd9250369101610fc2565b5060405163f23a6e6160e01b8152602090f35b8280fd5b5080fd5b8261024b60ff6040610244846101ed36611039565b92848688849f989c979a9e8f90859f8e899f600080516020611ce6833981519152909a999a5280602052818120818052602052205416156102dc575b6102348483146111f9565b61023f8683146111f9565b6112cc565b97886119ee565b875b818110610261578861025e89611b33565b80f35b8080897fc2617efa69bab66782fa219543714338489c4e9e178271560a91b82c3f612b5889896102d36102ba868f6102b3828f928f908f60019f6102a8916102ad93611251565b611277565b97611251565b359561128b565b906102c782828787611a84565b60405194859485611159565b0390a30161024d565b6102e533611736565b610229565b9050346101d45760403660031901126101d45761025e903561030a610ec4565b908084528360205261032460016040862001543390611876565b611b51565b9050346101d45760203660031901126101d457602091604091358152600183522054604051908152f35b9050346101d4576020806003193601126101d0578135917ffd643c72710c63c0180259aba6b2d05451e3591a24e58b62239378085726f78380855284835260408520338652835260ff6040862054161561045657506103c083600052600160205260016040600020541190565b156103fa5750600190828452528160408120557fbaa1eb22f2a492ba1a5fea61b8df4d27c6c8b5f3971e63bb58fa14ff72eedb708280a280f35b6084916040519162461bcd60e51b8352820152603160248201527f54696d656c6f636b436f6e74726f6c6c65723a206f7065726174696f6e2063616044820152701b9b9bdd0818994818d85b98d95b1b1959607a1b6064820152fd5b8461046033611bd6565b916040519061046e82610f55565b604282528582019260603685378251156106245760308453825190600191600110156106115790607860218501536041915b8183116105a6575050506105645760449392916105326048610556936040519384916105238b84019876020b1b1b2b9b9a1b7b73a3937b61d1030b1b1b7bab73a1604d1b8a526104fa8d8251928391603789019101611510565b8401917001034b99036b4b9b9b4b733903937b6329607d1b603784015251809386840190611510565b01036028810184520182610f86565b60405195869462461bcd60e51b865285015251809281602486015285850190611510565b601f01601f19168101030190fd5b60648486806040519262461bcd60e51b845283015260248201527f537472696e67733a20686578206c656e67746820696e73756666696369656e746044820152fd5b909192600f811660108110156105fe576f181899199a1a9b1b9c1cb0b131b232b360811b901a6105d68587611bc5565b53871c9280156105eb576000190191906104a0565b634e487b7160e01b825260118852602482fd5b634e487b7160e01b835260328952602483fd5b634e487b7160e01b815260328752602490fd5b634e487b7160e01b815260328652602490fd5b9050346101d45760a03660031901126101d457610652610ea9565b5061065b610ec4565b506001600160401b036044358181116106be5761067b903690840161109a565b506064358181116106be57610693903690840161109a565b506084359081116101d0576106ab9250369101610fc2565b5060405163bc197c8160e01b8152602090f35b8380fd5b82346101775760206106e56106d636611039565b969590959491949392936112cc565b604051908152f35b823461017757806003193601126101775760206040517ffd643c72710c63c0180259aba6b2d05451e3591a24e58b62239378085726f7838152f35b8234610177578060031936011261017757602090604051908152f35b9050346101d45760403660031901126101d457604060209260ff92610767610ec4565b903582528185528282206001600160a01b03909116825284522054604051911615158152f35b823461017757806003193601126101775760206040517fb09aa5aeb3702cfd50b6b62bc4532604938f21248a27a1d5ca736082b6819cc18152f35b9050346101d45760c03660031901126101d4576001600160401b039080358281116106be576107fa9036908301611009565b92602435818111610914576108129036908501611009565b9190936044359182116109105761082e84918693369101611009565b6064949194359161085089848489856084359d8e9560a4359b61022933611533565b9861085b858b61140a565b898b5b8281106108a2578c828c80610871578280f35b60207f20fda5fd27a1ea7bf5b9567f143ac5470bb059374a27e8f67cb44f946f6d038791604051908152a281808280f35b806001927f4cf4410cc57040e44862ef0f45f3dd5a5e02db8eb8add648d4b0e236f1d07dca8b8b6109058f8c6108f88f928e6108f18f8f906108eb6102a88f8097948195611251565b99611251565b359761128b565b9060405196879687611121565b0390a3018a9061085e565b8680fd5b8580fd5b82346101775760206106e561092c36610f07565b949390939291926111a4565b9050346101d45760203660031901126101d45780359030330361098e57507f11c24f4ead16507c69ac467fbd5e4eed5fb5c699626d2cc6d66421df253886d560406002548151908152836020820152a160025580f35b60849060206040519162461bcd60e51b8352820152602b60248201527f54696d656c6f636b436f6e74726f6c6c65723a2063616c6c6572206d7573742060448201526a62652074696d656c6f636b60a81b6064820152fd5b8234610177576020366003190112610177576020610a138335600052600160205260016040600020541190565b6040519015158152f35b823461017757604036600319011261017757610a37610ec4565b336001600160a01b03821603610a525761025e919235611b51565b60405162461bcd60e51b8152602081850152602f60248201527f416363657373436f6e74726f6c3a2063616e206f6e6c792072656e6f756e636560448201526e103937b632b9903337b91039b2b63360891b6064820152608490fd5b8234610177576020366003190112610177576020610a1383356000526001602052604060002054151590565b9050346101d45760403660031901126101d45735610af6610ec4565b81835282602052610b0f60016040852001543390611876565b818352602083815260408085206001600160a01b039093168086529290915283205460ff1615610b3d578280f35b818352826020526040832081845260205260408320600160ff1982541617905533917f2f8788117e7eff1d82e926ec794901d17c78024a50270940304540a733656f0d8480a438808280f35b8234610177576020366003190112610177576020610a138335600052600160205260016040600020541490565b9050346101d45760203660031901126101d4576040602092600192358152808452200154604051908152f35b9050346101d45760803660031901126101d457610bfd610ea9565b50610c06610ec4565b506064356001600160401b0381116101d057610c259250369101610fc2565b50604051630a85bd0160e11b8152602090f35b8234610177576020366003190112610177576020610a138335611180565b8261025e610cd682610ce27fc2617efa69bab66782fa219543714338489c4e9e178271560a91b82c3f612b58610ccd610c8e36610f07565b600080516020611ce68339815191528a9995979299949394528960205260408a208a805260205260ff60408b20541615610cea575b88848489896111a4565b988997886119ee565b6102c782828787611a84565b0390a3611b33565b610cf333611736565b610cc3565b823461017757806003193601126101775760206040517f5f58e3a2316349923ce3780f8d587db2d72378aed66a8261c916544fa6846ca58152f35b82346101775780600319360112610177576020604051600080516020611ce68339815191528152f35b9050346101d45760203660031901126101d4573563ffffffff60e01b81168091036101d457602090630271189760e51b8114908115610da1575b506040519015158152f35b637965db0b60e01b811491508115610dbb575b5082610d96565b6301ffc9a760e01b14905082610db4565b9050346101d45760c03660031901126101d457610de7610ea9565b826024356044356001600160401b0381116101d0577f4cf4410cc57040e44862ef0f45f3dd5a5e02db8eb8add648d4b0e236f1d07dca94610e2a91369101610eda565b94909160643594610e6c6084359660a43590610e4533611533565b610e5389828c8a89896111a4565b998a97610e60848a61140a565b60405196879687611121565b0390a380610e78578280f35b60207f20fda5fd27a1ea7bf5b9567f143ac5470bb059374a27e8f67cb44f946f6d038791604051908152a238808280f35b600435906001600160a01b0382168203610ebf57565b600080fd5b602435906001600160a01b0382168203610ebf57565b9181601f84011215610ebf578235916001600160401b038311610ebf5760208381860195010111610ebf57565b60a0600319820112610ebf576004356001600160a01b0381168103610ebf579160243591604435906001600160401b038211610ebf57610f4991600401610eda565b90916064359060843590565b608081019081106001600160401b03821117610f7057604052565b634e487b7160e01b600052604160045260246000fd5b90601f801991011681019081106001600160401b03821117610f7057604052565b6001600160401b038111610f7057601f01601f191660200190565b81601f82011215610ebf57803590610fd982610fa7565b92610fe76040519485610f86565b82845260208383010111610ebf57816000926020809301838601378301015290565b9181601f84011215610ebf578235916001600160401b038311610ebf576020808501948460051b010111610ebf57565b9060a0600319830112610ebf576001600160401b03600435818111610ebf578361106591600401611009565b93909392602435838111610ebf578261108091600401611009565b93909392604435918211610ebf57610f4991600401611009565b81601f82011215610ebf578035916020916001600160401b038411610f70578360051b90604051946110ce85840187610f86565b85528380860192820101928311610ebf578301905b8282106110f1575050505090565b813581529083019083016110e3565b908060209392818452848401376000828201840152601f01601f1916010190565b92909361114f926080959897969860018060a01b03168552602085015260a0604085015260a0840191611100565b9460608201520152565b61117d949260609260018060a01b0316825260208201528160408201520191611100565b90565b600052600160205260406000205460018111908161119c575090565b905042101590565b946111da6111f394959293604051968795602087019960018060a01b03168a52604087015260a0606087015260c0860191611100565b91608084015260a083015203601f198101835282610f86565b51902090565b1561120057565b60405162461bcd60e51b815260206004820152602360248201527f54696d656c6f636b436f6e74726f6c6c65723a206c656e677468206d69736d616044820152620e8c6d60eb1b6064820152608490fd5b91908110156112615760051b0190565b634e487b7160e01b600052603260045260246000fd5b356001600160a01b0381168103610ebf5790565b91908110156112615760051b81013590601e1981360301821215610ebf5701908135916001600160401b038311610ebf576020018236038113610ebf579190565b969294909695919560405196602091828901998060c08b0160a08d525260e08a01919060005b8181106113e257505050601f19898203810160408b0152888252976001600160fb1b038111610ebf579089969495939897929160051b80928a830137019380888601878703606089015252604085019460408260051b82010195836000925b848410611379575050505050506111f39550608084015260a083015203908101835282610f86565b9193969850919398999496603f198282030184528935601e1984360301811215610ebf5783018681019190356001600160401b038111610ebf578036038313610ebf576113cb88928392600195611100565b9b0194019401918b98969394919a9997959a611351565b90919283359060018060a01b038216809203610ebf57908152850192850191906001016112f2565b90611422826000526001602052604060002054151590565b6114b357600254811061145f57420190814211611449576000526001602052604060002055565b634e487b7160e01b600052601160045260246000fd5b60405162461bcd60e51b815260206004820152602660248201527f54696d656c6f636b436f6e74726f6c6c65723a20696e73756666696369656e746044820152652064656c617960d01b6064820152608490fd5b60405162461bcd60e51b815260206004820152602f60248201527f54696d656c6f636b436f6e74726f6c6c65723a206f7065726174696f6e20616c60448201526e1c9958591e481cd8da19591d5b1959608a1b6064820152608490fd5b60005b8381106115235750506000910152565b8181015183820152602001611513565b6001600160a01b031660008181527f3412d5605ac6cd444957cedb533e5dacad6378b4bc819ebe3652188a665066d5602090815260408083205490937fb09aa5aeb3702cfd50b6b62bc4532604938f21248a27a1d5ca736082b6819cc19160ff16156115a0575050505050565b6115a990611bd6565b908451906115b682610f55565b604282528382019460603687378251156117225760308653825190600191600110156117225790607860218501536041915b8183116116b457505050611672578461164e604861055693604497985198899161163f8984019876020b1b1b2b9b9a1b7b73a3937b61d1030b1b1b7bab73a1604d1b8a526104fa815180928d603789019101611510565b01036028810189520187610f86565b5194859362461bcd60e51b8552600485015251809281602486015285850190611510565b60648386519062461bcd60e51b825280600483015260248201527f537472696e67733a20686578206c656e67746820696e73756666696369656e746044820152fd5b909192600f8116601081101561170e576f181899199a1a9b1b9c1cb0b131b232b360811b901a6116e48587611bc5565b5360041c9280156116fa576000190191906115e8565b634e487b7160e01b82526011600452602482fd5b634e487b7160e01b83526032600452602483fd5b634e487b7160e01b81526032600452602490fd5b6001600160a01b031660008181527fdae2aa361dfd1ca020a396615627d436107c35eff9fe7738a3512819782d706960209081526040808320549093600080516020611ce68339815191529160ff1615611791575050505050565b61179a90611bd6565b908451906117a782610f55565b604282528382019460603687378251156117225760308653825190600191600110156117225790607860218501536041915b81831161183057505050611672578461164e604861055693604497985198899161163f8984019876020b1b1b2b9b9a1b7b73a3937b61d1030b1b1b7bab73a1604d1b8a526104fa815180928d603789019101611510565b909192600f8116601081101561170e576f181899199a1a9b1b9c1cb0b131b232b360811b901a6118608587611bc5565b5360041c9280156116fa576000190191906117d9565b6000908082526020908282526040938484209060018060a01b031690818552835260ff8585205416156118aa575050505050565b6118b390611bd6565b908451906118c082610f55565b604282528382019460603687378251156117225760308653825190600191600110156117225790607860218501536041915b81831161194957505050611672578461164e604861055693604497985198899161163f8984019876020b1b1b2b9b9a1b7b73a3937b61d1030b1b1b7bab73a1604d1b8a526104fa815180928d603789019101611510565b909192600f8116601081101561170e576f181899199a1a9b1b9c1cb0b131b232b360811b901a6119798587611bc5565b5360041c9280156116fa576000190191906118f2565b1561199657565b60405162461bcd60e51b815260206004820152602a60248201527f54696d656c6f636b436f6e74726f6c6c65723a206f7065726174696f6e206973604482015269206e6f7420726561647960b01b6064820152608490fd5b6119fa6119ff91611180565b61198f565b8015908115611a65575b5015611a1157565b60405162461bcd60e51b815260206004820152602660248201527f54696d656c6f636b436f6e74726f6c6c65723a206d697373696e6720646570656044820152656e64656e637960d01b6064820152608490fd5b611a7e9150600052600160205260016040600020541490565b38611a09565b90926000938493826040519384928337810185815203925af13d15611b2e573d611aad81610fa7565b90611abb6040519283610f86565b8152600060203d92013e5b15611acd57565b60405162461bcd60e51b815260206004820152603360248201527f54696d656c6f636b436f6e74726f6c6c65723a20756e6465726c79696e6720746044820152721c985b9cd858dd1a5bdb881c995d995c9d1959606a1b6064820152608490fd5b611ac6565b611b3f6119fa82611180565b60005260016020526001604060002055565b9060009180835282602052604083209160018060a01b03169182845260205260ff604084205416611b8157505050565b80835282602052604083208284526020526040832060ff1981541690557ff6391f5c32d9c69d2a47ea670b442974b53935d1edc7fd64eb21e047a839171b339380a4565b908151811015611261570160200190565b60405190606082018281106001600160401b03821117610f7057604052602a8252602082016040368237825115611261576030905381516001906001101561126157607860218401536029905b808211611c77575050611c335790565b606460405162461bcd60e51b815260206004820152602060248201527f537472696e67733a20686578206c656e67746820696e73756666696369656e746044820152fd5b9091600f81166010811015611cd0576f181899199a1a9b1b9c1cb0b131b232b360811b901a611ca68486611bc5565b5360041c918015611cbb576000190190611c23565b60246000634e487b7160e01b81526011600452fd5b60246000634e487b7160e01b81526032600452fdfed8aa0f3194971a2a116679f7c2090f6939c8d4e01a2a8d7e41d55e5351469e63a26469706673582212203b9d93334fd83b4983eecb2c3ef32da047358a1ffbd278e34508cf7692a4cd1964736f6c634300081600332f8788117e7eff1d82e926ec794901d17c78024a50270940304540a733656f0d604060808152610416908138038061001681610218565b93843982019181818403126102135780516001600160a01b038116808203610213576020838101516001600160401b0394919391858211610213570186601f820112156102135780519061007161006c83610253565b610218565b918083528583019886828401011161021357888661008f930161026e565b813b156101b9577f360894a13ba1a3210667c828492db98dca3e2076cc3735a920a3ca505d382bbc80546001600160a01b031916841790556000927fbc7cd75a20ee27fd9adebab32041f755214dbc6bffa90cc0225b39da2e5c2d3b8480a28051158015906101b2575b61010b575b855160d190816103458239f35b855194606086019081118682101761019e578697849283926101889952602788527f416464726573733a206c6f772d6c6576656c2064656c65676174652063616c6c87890152660819985a5b195960ca1b8a8901525190845af4913d15610194573d9061017a61006c83610253565b91825281943d92013e610291565b508038808080806100fe565b5060609250610291565b634e487b7160e01b84526041600452602484fd5b50826100f9565b855162461bcd60e51b815260048101859052602d60248201527f455243313936373a206e657720696d706c656d656e746174696f6e206973206e60448201526c1bdd08184818dbdb9d1c9858dd609a1b6064820152608490fd5b600080fd5b6040519190601f01601f191682016001600160401b0381118382101761023d57604052565b634e487b7160e01b600052604160045260246000fd5b6001600160401b03811161023d57601f01601f191660200190565b60005b8381106102815750506000910152565b8181015183820152602001610271565b919290156102f357508151156102a5575090565b3b156102ae5790565b60405162461bcd60e51b815260206004820152601d60248201527f416464726573733a2063616c6c20746f206e6f6e2d636f6e74726163740000006044820152606490fd5b8251909150156103065750805190602001fd5b6044604051809262461bcd60e51b825260206004830152610336815180928160248601526020868601910161026e565b601f01601f19168101030190fdfe608060405236156054577f360894a13ba1a3210667c828492db98dca3e2076cc3735a920a3ca505d382bbc54600090819081906001600160a01b0316368280378136915af43d82803e156050573d90f35b3d90fd5b7f360894a13ba1a3210667c828492db98dca3e2076cc3735a920a3ca505d382bbc54600090819081906001600160a01b0316368280378136915af43d82803e156050573d90f3fea2646970667358221220ead15f7f0b00388ade0f4aa400876ffd4ff434c94a32021ec81e360008e0ee9164736f6c6343000816003361018060405234620000b357620000266200001962000153565b94939093929192620001e4565b604051614135908162000f008239608051816134b5015260a0518161356a015260c0518161347f015260e051816135040152610100518161352a015261012051816115f10152610140518161161d01526101605181818161175701528181611d2d01528181611ec30152818161228e01528181612575015281816126e60152818161277001526134040152f35b600080fd5b634e487b7160e01b600052604160045260246000fd5b604081019081106001600160401b03821117620000ea57604052565b620000b8565b60c081019081106001600160401b03821117620000ea57604052565b601f909101601f19168101906001600160401b03821190821017620000ea57604052565b604051906200013f82620000ce565b565b6001600160a01b03811603620000b357565b620050559060c082380392836040519485926200017182856200010c565b833981010312620000b3578151906200018a8262000141565b6020830151926200019b8462000141565b60408101519260608201519260a0608084015193015191959493929190565b60405190620001c982620000ce565b600d8252565b60405190620001de82620000ce565b60018252565b9093620002e090620002da620002f395620002d46200013f9996620002ce6200020c620001ba565b602081016c2a37b5b2b723b7bb32b93737b960991b81526200022d620001cf565b906020820190603160f81b8252620002458462000861565b61012052620002548362000970565b6101405283519020918260e05251902080610100524660a0526040519060208201927f8b73c3c69bb8fe3d512ecc4cf759cc79239f7b179b0ffacaa9a75d522b39400f8452604083015260608201524660808201523060a082015260a08152620002be81620000f0565b5190206080523060c0526200044a565b6200075a565b62000793565b62000828565b6001600160a01b03166101605262000607565b62000545565b90600182811c921680156200032b575b60208310146200031557565b634e487b7160e01b600052602260045260246000fd5b91607f169162000309565b601f811162000343575050565b60009060026000526020600020906020601f850160051c8301941062000386575b601f0160051c01915b8281106200037a57505050565b8181556001016200036d565b909250829062000364565b601f81116200039e575050565b600090600080526020600020906020601f850160051c83019410620003e0575b601f0160051c01915b828110620003d457505050565b818155600101620003c7565b9092508290620003be565b90601f8211620003f9575050565b60019160009060016000526020600020906020601f850160051c830194106200043f575b601f0160051c01915b828110620004345750505050565b818155830162000426565b90925082906200041d565b80519091906001600160401b038111620000ea57620004768162000470600254620002f9565b62000336565b602080601f8311600114620004bd57508190620004ac9394600092620004b1575b50508160011b916000199060031b1c19161790565b600255565b01519050388062000497565b6002600052601f198316949091907f405787fa12a823e0f2b7631cc41b3ba8828b3321ca811111fa75cd3aa3bb5ace926000905b8782106200052c57505083600195961062000512575b505050811b01600255565b015160001960f88460031b161c1916905538808062000507565b80600185968294968601518155019501930190620004f1565b600c547f08f74ea46ef7894f65eabfb5e6e695de773a000b47c529ab559178069b226401604060018060a01b038094169381519084168152846020820152a16001600160a01b03191617600c55565b600b549068010000000000000000821015620000ea576001820180600b55821015620005f157600b600052805160209182015190911b63ffffffff191663ffffffff91909116176000805160206200503583398151915290910155565b634e487b7160e01b600052603260045260246000fd5b60648111620006e3577f0553476bf02ef2726e8ce5ced78d63e26e602e4a2257b1f559418e24b4633997906200063c62000a5c565b80151580620006d8575b62000699575b62000685620006736200066d6200066262000b19565b65ffffffffffff1690565b62000bad565b6200067e8462000aaf565b9062000dc4565b5050604080519182526020820192909252a1565b620006d2620006a88262000aaf565b620006cc620006b662000130565b600081526001600160e01b039092166020830152565b62000594565b6200064c565b50600b541562000646565b60405162461bcd60e51b815260206004820152604360248201527f476f7665726e6f72566f74657351756f72756d4672616374696f6e3a2071756f60448201527f72756d4e756d657261746f72206f7665722071756f72756d44656e6f6d696e616064820152623a37b960e91b608482015260a490fd5b60065460408051918252602082018390527fc565b045403dc03c2eea82b81a0465edad9e2e7fc4d97e11421c209da93d7a9391a1600655565b8015620007d35760075460408051918252602082018390527f7e3f7f0708a84de9203036abaa450dccc85ad5ff52f78c170f3edb55cf5e882891a1600755565b60405162461bcd60e51b815260206004820152602760248201527f476f7665726e6f7253657474696e67733a20766f74696e6720706572696f6420604482015266746f6f206c6f7760c81b6064820152608490fd5b60085460408051918252602082018390527fccb45da8d5717e6c4544694297c4ba5cf151d455c9bb0ed4fc7a38411bc0546191a1600855565b908151602090602081106000146200088457505090620008819062000c37565b90565b6001600160401b038111620000ea57600091620008ad82620008a78554620002f9565b62000391565b602090601f8311600114620008e957508190839495620008e29492620004b15750508160011b916000199060031b1c19161790565b905560ff90565b60008052601f198316957f290decd9548b62a8d60345a988386fc84ba6bc95484008f6362f93160ef3e563929185905b88821062000957575050836001959697106200093d575b505050811b01905560ff90565b015160001960f88460031b161c1916905538808062000930565b8060018596829496860151815501950193019062000919565b908151602090602081106000146200099057505090620008819062000c37565b6001600160401b038111620000ea57600191620009b982620009b38554620002f9565b620003eb565b602090601f8311600114620009ef57508190620008e2939495600092620004b15750508160011b916000199060031b1c19161790565b6001600052601f198316959091907fb10e2d527612073b26eecdfd717e6a320cf44b4afac2b0732d9fcbe2b7fa0cf6926000905b88821062000a4457505083859697106200093d57505050811b01905560ff90565b80878596829496860151815501950193019062000a23565b600b546000908062000a70575050600a5490565b60001991818381011162000a9b57600b90520160008051602062005035833981519152015460201c90565b634e487b7160e01b81526011600452602490fd5b6001600160e01b039081811162000ac4571690565b60405162461bcd60e51b815260206004820152602760248201527f53616665436173743a2076616c756520646f65736e27742066697420696e20326044820152663234206269747360c81b6064820152608490fd5b610160516040516324776b7d60e21b815290602090829060049082906001600160a01b03165afa809160009162000b5e575b5090620008815750620008814362000cda565b6020813d60201162000ba4575b8162000b7a602093836200010c565b8101031262000ba057519065ffffffffffff8216820362000b9d57503862000b4b565b80fd5b5080fd5b3d915062000b6b565b63ffffffff9081811162000bbf571690565b60405162461bcd60e51b815260206004820152602660248201527f53616665436173743a2076616c756520646f65736e27742066697420696e203360448201526532206269747360d01b6064820152608490fd5b60208151910151906020811062000c28575090565b6000199060200360031b1b1690565b601f81511162000c525762000c4c8162000c13565b90511790565b6040519063305a27a960e01b82528160208060048301528251908160248401526000935b82851062000c9a575050604492506000838284010152601f80199101168101030190fd5b848101820151868601604401529381019385935062000c76565b60001981019190821162000cc457565b634e487b7160e01b600052601160045260246000fd5b65ffffffffffff9081811162000cee571690565b60405162461bcd60e51b815260206004820152602660248201527f53616665436173743a2076616c756520646f65736e27742066697420696e203460448201526538206269747360d01b6064820152608490fd5b604080519192919081016001600160401b03811182821017620000ea57604052602081935463ffffffff81168352811c910152565b1562000d7f57565b60405162461bcd60e51b815260206004820152601b60248201527f436865636b706f696e743a2064656372656173696e67206b65797300000000006044820152606490fd5b600b54919291801562000ed05762000e9091818562000e0c62000e0662000ded60209662000cb4565b600b600052600080516020620050358339815191520190565b62000d42565b9262000e1c845163ffffffff1690565b62000e3563ffffffff9182841692839116111562000d77565b62000e5162000e48865163ffffffff1690565b63ffffffff1690565b0362000e94575062000e6b62000ded62000e829362000cb4565b9063ffffffff82549181199060201b169116179055565b01516001600160e01b031690565b9190565b905062000eca915062000eb662000eaa62000130565b63ffffffff9092168252565b6001600160e01b0387168185015262000594565b62000e82565b5062000ef99062000ee462000eaa62000130565b6001600160e01b038416602082015262000594565b6000919056fe60806040526004361015610023575b361561001957600080fd5b6100216127f0565b005b60003560e01c806301ffc9a71461033e57806302a251a314610339578063034201811461033457806306f3f9e61461032f57806306fdde031461032a578063143489d014610325578063150b7a0214610320578063160cbed71461031b5780632656227d146103165780632d63f693146103115780632fe3e2611461030c5780633932abb1146103075780633bccf4fd146103025780633e4f49e6146102fd57806343859632146102f8578063452115d6146102f35780634962d100146102ee5780634bf5d7e9146102e95780634dfa5408146102e4578063544ffc9c146102df57806354fd4d50146102da57806356781388146102d55780635f398a14146102d057806360c4247f146102cb5780636221a54b1461027b57806370b0f660146102c65780637b3c71d3146102c15780637d5e81e2146102bc57806384b0196e146102b757806391ddadf4146102b257806397c3d334146102ad5780639a802a6d146102a8578063a7713a70146102a3578063a890c9101461029e578063ab58fb8e14610299578063b58131b014610294578063bc197c811461028f578063c01f9e371461028a578063c28bc2fa14610285578063c59057e414610280578063d33219b41461027b578063dd4e2ba514610276578063deaaa7cc14610271578063ea0217cf1461026c578063eb9019d414610267578063ece40cc114610262578063eed782b91461025d578063f23a6e6114610258578063f8ce560a146102535763fc0c546a0361000e57611ead565b611e8f565b611e36565b611e03565b611d71565b611cd1565b611be4565b611ba9565b611b4b565b6113fb565b611b2f565b611a0e565b6119d6565b61194a565b61192c565b611882565b6117d6565b6117bb565b6116e9565b6116cd565b6116a2565b6115d8565b61150b565b6114b6565b611424565b6113dd565b61136e565b61131e565b6112dc565b611299565b61127d565b61124d565b6111de565b611127565b6110ce565b61109f565b610fd2565b610fb4565b610f79565b610f44565b610dcf565b610be5565b6109ca565b610982565b61089d565b6106af565b610627565b610413565b346104035760203660031901126104035760043563ffffffff60e01b81168091036104035761038c90636e665ced60e01b8114908115610390575b5060405190151581529081906020820190565b0390f35b63bf26d89760e01b8114915081156103f2575b81156103e1575b81156103d0575b81156103bf575b5038610379565b6301ffc9a760e01b149050386103b8565b630271189760e51b811491506103b1565b63288ace0360e11b811491506103aa565b6379dd796f60e01b811491506103a3565b600080fd5b600091031261040357565b34610403576000366003190112610403576020600754604051908152f35b6024359060ff8216820361040357565b6044359060ff8216820361040357565b9181601f84011215610403578235916001600160401b038311610403576020838186019501011161040357565b634e487b7160e01b600052604160045260246000fd5b6001600160401b0381116104a757604052565b61047e565b604081019081106001600160401b038211176104a757604052565b608081019081106001600160401b038211176104a757604052565b602081019081106001600160401b038211176104a757604052565b606081019081106001600160401b038211176104a757604052565b60c081019081106001600160401b038211176104a757604052565b90601f801991011681019081106001600160401b038211176104a757604052565b60405190610561826104ac565b565b6040519060e082018281106001600160401b038211176104a757604052565b6001600160401b0381116104a757601f01601f191660200190565b9190916105a981610582565b6105b66040519182610533565b8093828252821161040357818160009384602080950137010152565b9291926105de82610582565b916105ec6040519384610533565b829481845281830111610403578281602093846000960137010152565b9080601f8301121561040357816020610624933591016105d2565b90565b346104035760e036600319011261040357610640610431565b6001600160401b0360443581811161040357610660903690600401610451565b9160643590811161040357610679903690600401610609565b9260843560ff811681036104035761038c9461069f9460c4359460a43594600435611ef2565b6040519081529081906020820190565b3461040357602036600319011261040357600c54600435906001600160a01b03166106db338214611f8d565b300361081e575b606481116107a7577f0553476bf02ef2726e8ce5ced78d63e26e602e4a2257b1f559418e24b4633997906107146125fa565b8015158061079d575b610766575b61075261074361073e610733612560565b65ffffffffffff1690565b612c50565b61074c846138bc565b90613ebc565b5050604080519182526020820192909252a1005b610798610772826138bc565b61079361077d610554565b600081526001600160e01b039092166020830152565b612a61565b610722565b50600b541561071d565b60405162461bcd60e51b815260206004820152604360248201527f476f7665726e6f72566f74657351756f72756d4672616374696f6e3a2071756f60448201527f72756d4e756d657261746f72206f7665722071756f72756d44656e6f6d696e616064820152623a37b960e91b608482015260a490fd5b610828363661059d565b602081519101205b80610839612a04565b0361083057506106e2565b60005b8381106108575750506000910152565b8181015183820152602001610847565b9060209161088081518092818552858086019101610844565b601f01601f1916010190565b906020610624928181520190610867565b346104035760008060031936011261097f576040519080600254906108c182611fd9565b8085529160209160019182811690811561095257506001146108fa575b61038c866108ee81880382610533565b6040519182918261088c565b9350600284527f405787fa12a823e0f2b7631cc41b3ba8828b3321ca811111fa75cd3aa3bb5ace5b83851061093f575050505081016020016108ee8261038c386108de565b8054868601840152938201938101610922565b905086955061038c969350602092506108ee94915060ff191682840152151560051b8201019293386108de565b80fd5b34610403576020366003190112610403576004356000526003602052602060018060a01b0360406000205460401c16604051908152f35b6001600160a01b0381160361040357565b34610403576080366003190112610403576109e66004356109b9565b6109f16024356109b9565b6064356001600160401b03811161040357610a10903690600401610609565b50604051630a85bd0160e11b8152602090f35b6001600160401b0381116104a75760051b60200190565b9080601f83011215610403576020908235610a5481610a23565b93610a626040519586610533565b81855260208086019260051b82010192831161040357602001905b828210610a8b575050505090565b8380918335610a99816109b9565b815201910190610a7d565b9080601f83011215610403576020908235610abe81610a23565b93610acc6040519586610533565b81855260208086019260051b82010192831161040357602001905b828210610af5575050505090565b81358152908301908301610ae7565b81601f8201121561040357803591602091610b1e84610a23565b93610b2c6040519586610533565b808552838086019160051b8301019280841161040357848301915b848310610b575750505050505090565b82356001600160401b038111610403578691610b7884848094890101610609565b815201920191610b47565b6080600319820112610403576001600160401b03916004358381116104035782610baf91600401610a3a565b926024358181116104035783610bc791600401610aa4565b9260443591821161040357610bde91600401610b04565b9060643590565b3461040357610bf336610b83565b92610c0384838584969596612642565b92610c216004610c1286612b33565b610c1b81611095565b14612013565b600c54610c3e906001600160a01b03165b6001600160a01b031690565b60405163793d064960e11b815293906020908186600481845afa958615610d7e57600096610db0575b5081604051809263b1c5f42760e01b82528180610c8a8d8a8a8d6004860161211e565b03915afa918215610d7e57600092610d83575b5050610cb386600052600d602052604060002090565b55600c54610cc9906001600160a01b0316610c32565b90813b156104035760008094610cf6876040519a8b97889687956308f2a0bb60e41b875260048701612164565b03925af1928315610d7e57610d3a7f9a2e42fd6722813d69113e7d0079d3d940171428df7373df9c7f7617cfda289292610d529261038c96610d65575b50426121db565b60408051858152602081019290925290918291820190565b0390a16040519081529081906020820190565b80610d72610d7892610494565b80610408565b38610d33565b612078565b610da29250803d10610da9575b610d9a8183610533565b810190612069565b3880610c9d565b503d610d90565b610dc8919650823d8411610da957610d9a8183610533565b9438610c67565b610dd836610b83565b9291610de684838386612642565b92610df084612b33565b6008811015610f3f57610e1160049160048114908115610f2b575b50612013565b610e386002610e2a876000526003602052604060002090565b01805460ff19166001179055565b604090604051918683527f712ae1383f79ac853f8d882153778e0260ef8f03b504e2866e0593e04d2b291f60208094a1600c546001600160a01b039081163003610e95575b61038c88610e8d8b8a8a8a613925565b61069f612acf565b909391959297949660009560005b8451811015610f10576001903085610ebb8389612abb565b511614610ec9575b01610ea3565b8b6001600160801b038a8c6005610ee0868d612abb565b51858151910120915494608095861d9384600f0b9052528b8d20558c54928583199201901b169116178a55610ec3565b509850969295509193509150829050610e8d61038c38610e7d565b60059150610f3881611095565b1438610e0b565b61107f565b3461040357602036600319011261040357600435600052600360205260206001600160401b0360406000205416604051908152f35b346104035760003660031901126104035760206040517fb3b3f3b703cd84ce352197dcff232b1b5d3cfb2025ce47cf04742d0651f1af888152f35b34610403576000366003190112610403576020600654604051908152f35b346104035760a03660031901126104035761038c61069f600435610ff4610431565b611069611061611002610441565b60405160208101917f150214d74d59b7d1e90c73fc22ef3d991dd0a76b046543d4d80ab92d2a50328f835286604083015260ff8616606083015260608252611049826104c7565b61105c6084359360643593519020612849565b613590565b91909161361c565b60405192611076846104e2565b60008452612aff565b634e487b7160e01b600052602160045260246000fd5b60081115610f3f57565b34610403576020366003190112610403576110bb600435612b33565b6040516008821015610f3f576020918152f35b3461040357604036600319011261040357602060ff61111b6024356110f2816109b9565b6004356000526009845260036040600020019060018060a01b0316600052602052604060002090565b54166040519015158152f35b346104035761113536610b83565b9061114282828587612642565b9261114c84612b33565b6008811015610f3f576111995761038c9461119461118d610c3261117d61069f986000526003602052604060002090565b5460401c6001600160a01b031690565b33146121e8565b613aa2565b60405162461bcd60e51b815260206004820152601c60248201527f476f7665726e6f723a20746f6f206c61746520746f2063616e63656c000000006044820152606490fd5b34610403576111ec36610b83565b5050600c5460405163793d064960e11b8152925060209150829060049082906001600160a01b03165afa8015610d7e57602091600091611230575b50604051908152f35b6112479150823d8411610da957610d9a8183610533565b38611227565b346104035760003660031901126104035761038c611269612278565b604051918291602083526020830190610867565b3461040357600036600319011261040357602060405160018152f35b3461040357602036600319011261040357600435600052600960205260606040600020805490600260018201549101549060405192835260208301526040820152f35b346104035760003660031901126104035761038c6040516112fc816104ac565b60018152603160f81b6020820152604051918291602083526020830190610867565b3461040357604036600319011261040357602061136661133c610431565b604051611348816104e2565b6000815260405191611359836104e2565b60008352336004356128cf565b604051908152f35b3461040357608036600319011261040357611387610431565b6001600160401b0390604435828111610403576113a8903690600401610451565b9091606435938411610403576113d3611366936113cb6020963690600401610609565b9336916105d2565b90336004356128cf565b346104035760203660031901126104035760206113666004356123bd565b3461040357600036600319011261040357600c546040516001600160a01b039091168152602090f35b3461040357602036600319011261040357600c54600435906001600160a01b0316611450338214611f8d565b3003611490575b60065460408051918252602082018390527fc565b045403dc03c2eea82b81a0465edad9e2e7fc4d97e11421c209da93d7a9391a1600655005b61149a363661059d565b602081519101205b806114ab612a04565b036114a25750611457565b34610403576060366003190112610403576114cf610431565b6044356001600160401b038111610403576020916114fe6114f7611366933690600401610451565b36916105d2565b60405191611359836104e2565b34610403576080366003190112610403576001600160401b036004358181116104035761153c903690600401610a3a565b9060243581811161040357611555903690600401610aa4565b916044358281116104035761156e903690600401610b04565b60643592831161040357366023840112156104035761038c9361159e61069f9436906024816004013591016105d2565b92613024565b90815180825260208080930193019160005b8281106115c4575050505090565b8351855293810193928101926001016115b6565b34610403576000366003190112610403576116736116157f00000000000000000000000000000000000000000000000000000000000000006131aa565b61038c6116417f00000000000000000000000000000000000000000000000000000000000000006132ab565b61168160405191611651836104e2565b60008352604051958695600f60f81b875260e0602088015260e0870190610867565b908582036040870152610867565b90466060850152306080850152600060a085015283820360c08501526115a4565b346104035760003660031901126104035760206116bd612560565b65ffffffffffff60405191168152f35b3461040357600036600319011261040357602060405160648152f35b3461040357606036600319011261040357600435611706816109b9565b6044356001600160401b0381116104035760449161172a6020923690600401610609565b50604051630748d63560e31b81526001600160a01b039182166004820152602480359082015292839182907f0000000000000000000000000000000000000000000000000000000000000000165afa8015610d7e5761038c9160009161179c575b506040519081529081906020820190565b6117b5915060203d602011610da957610d9a8183610533565b3861178b565b346104035760003660031901126104035760206113666125fa565b34610403576020366003190112610403576004356117f3816109b9565b600c546001600160a01b039190821661180d338214611f8d565b300361185c575b7f08f74ea46ef7894f65eabfb5e6e695de773a000b47c529ab559178069b226401604083600c5493169381519084168152846020820152a16001600160a01b03191617600c55005b611866363661059d565b602081519101205b80611877612a04565b0361186e5750611814565b34610403576020366003190112610403576118db602060018060a01b03600c54166118b9600435600052600d602052604060002090565b5490604051808095819463d45c443560e01b8352600483019190602083019252565b03915afa908115610d7e5760009161190d575b5060018103611904575060405160008152602090f35b61038c9061069f565b611926915060203d602011610da957610d9a8183610533565b386118ee565b34610403576000366003190112610403576020600854604051908152f35b346104035760a0366003190112610403576119666004356109b9565b6119716024356109b9565b6001600160401b0360443581811161040357611991903690600401610aa4565b50606435818111610403576119aa903690600401610aa4565b50608435908111610403576119c3903690600401610609565b5060405163bc197c8160e01b8152602090f35b3461040357602036600319011261040357600435600052600360205260206001600160401b0360016040600020015416604051908152f35b606036600319011261040357600435611a26816109b9565b6044356001600160401b03811161040357611a45903690600401610451565b600c54909291906001600160a01b0316611a60338214611f8d565b3003611b09575b611afe91836040519485938437820190600094859383858095520391602435905af13d15611b02573d611a9981610582565b90611aa76040519283610533565b81523d84602083013e5b60405191611abe836104fd565b602883527f476f7665726e6f723a2072656c617920726576657274656420776974686f7574602084015267206d65737361676560c01b6040840152613438565b5080f35b6060611ab1565b611b13363661059d565b602081519101205b80611b24612a04565b03611b1b5750611a67565b34610403576020611366611b4236610b83565b92919091612642565b346104035760003660031901126104035761038c604051611b6b816104ac565b602081527f737570706f72743d627261766f2671756f72756d3d666f722c6162737461696e6020820152604051918291602083526020830190610867565b346104035760003660031901126104035760206040517f150214d74d59b7d1e90c73fc22ef3d991dd0a76b046543d4d80ab92d2a50328f8152f35b3461040357602036600319011261040357600c54600435906001600160a01b0316611c10338214611f8d565b3003611cab575b8015611c565760075460408051918252602082018390527f7e3f7f0708a84de9203036abaa450dccc85ad5ff52f78c170f3edb55cf5e882891a1600755005b60405162461bcd60e51b815260206004820152602760248201527f476f7665726e6f7253657474696e67733a20766f74696e6720706572696f6420604482015266746f6f206c6f7760c81b6064820152608490fd5b611cb5363661059d565b602081519101205b80611cc6612a04565b03611cbd5750611c17565b346104035760403660031901126104035760446020600435611cf2816109b9565b6000604051611d00816104e2565b52604051630748d63560e31b81526001600160a01b039182166004820152602480359082015292839182907f0000000000000000000000000000000000000000000000000000000000000000165afa8015610d7e5761038c9160009161179c57506040519081529081906020820190565b3461040357602036600319011261040357600c54600435906001600160a01b0316611d9d338214611f8d565b3003611ddd575b60085460408051918252602082018390527fccb45da8d5717e6c4544694297c4ba5cf151d455c9bb0ed4fc7a38411bc0546191a1600855005b611de7363661059d565b602081519101205b80611df8612a04565b03611def5750611da4565b3461040357602036600319011261040357611e1f600435612b33565b6008811015610f3f57602090600560405191148152f35b346104035760a036600319011261040357611e526004356109b9565b611e5d6024356109b9565b6084356001600160401b03811161040357611e7c903690600401610609565b5060405163f23a6e6160e01b8152602090f35b34610403576020366003190112610403576020611366600435612753565b34610403576000366003190112610403576040517f00000000000000000000000000000000000000000000000000000000000000006001600160a01b03168152602090f35b9492611f7f61062498611f87949396986114f79661105c8a8a8d611f17368a8c6105d2565b6020815191012090602081519101209060ff6040519360208501957fb3b3f3b703cd84ce352197dcff232b1b5d3cfb2025ce47cf04742d0651f1af8887526040860152166060840152608083015260a082015260a08152611f7781610518565b519020612849565b94909461361c565b926128cf565b15611f9457565b60405162461bcd60e51b815260206004820152601860248201527f476f7665726e6f723a206f6e6c79476f7665726e616e636500000000000000006044820152606490fd5b90600182811c92168015612009575b6020831014611ff357565b634e487b7160e01b600052602260045260246000fd5b91607f1691611fe8565b1561201a57565b60405162461bcd60e51b815260206004820152602160248201527f476f7665726e6f723a2070726f706f73616c206e6f74207375636365737366756044820152601b60fa1b6064820152608490fd5b90816020910312610403575190565b6040513d6000823e3d90fd5b90815180825260208080930193019160005b8281106120a4575050505090565b83516001600160a01b031685529381019392810192600101612096565b90808251908181526020809101926020808460051b8301019501936000915b8483106120f05750505050505090565b909192939495848061210e600193601f198682030187528a51610867565b98019301930191949392906120e0565b94939261214a60809361213c6121589460a08a5260a08a0190612084565b9088820360208a01526115a4565b9086820360408801526120c1565b93600060608201520152565b919261219360a0946121856121a1949998979960c0875260c0870190612084565b9085820360208701526115a4565b9083820360408501526120c1565b946000606083015260808201520152565b634e487b7160e01b600052601160045260246000fd5b90600182018092116121d657565b6121b2565b919082018092116121d657565b156121ef57565b60405162461bcd60e51b815260206004820152602260248201527f476f7665726e6f723a206f6e6c792070726f706f7365722063616e2063616e63604482015261195b60f21b6064820152608490fd5b6040519061224c826104ac565b601d82527f6d6f64653d626c6f636b6e756d6265722666726f6d3d64656661756c740000006020830152565b604051634bf5d7e960e01b8152600080826004817f00000000000000000000000000000000000000000000000000000000000000006001600160a01b03165afa909182826122d0575b5050610624575061062461223f565b909192503d8082843e6122e38184610533565b82019160208184031261234f578051906001600160401b038211612353570182601f8201121561234f5780519161231983610582565b936123276040519586610533565b8385526020848401011161097f5750906123479160208085019101610844565b9038806122c1565b5080fd5b8280fd5b6000198101919082116121d657565b6027198101919082116121d657565b634e487b7160e01b600052603260045260246000fd5b90604051604081018181106001600160401b038211176104a757604052602081935463ffffffff81168352811c910152565b600b90600b549081156125575760001982018281116121d65782111561255257600092600b845261240f7f0175b7a638427703f0dbe7bb9bbf987a2551717b34e79f33b5b1008d1fa01db8840161238b565b9163ffffffff928184825116111561253c575061242b90612c50565b9180859480600581116124eb575b5094929316905b8483106124975750505050801560001461246257505b6001600160e01b031690565b612492915061247361248b91612357565b600b6000526000805160206140e08339815191520190565b5460201c90565b612456565b909192938084169080851860011c82018092116121d6578587528383836000805160206140e0833981519152015416116000146124d95750935b929190612440565b9493506124e5906121c8565b926124d1565b91506124f682613bfe565b82039182116121d657600b87526000805160206140e08339815191528201548316858416101561252a575081905b38612439565b945061253682916121c8565b94612524565b602001516001600160e01b031695945050505050565b612375565b505050600a5490565b6040516324776b7d60e21b81526020816004817f00000000000000000000000000000000000000000000000000000000000000006001600160a01b03165afa80916000916125b9575b509061062457506106244361336c565b6020813d6020116125f2575b816125d260209383610533565b8101031261234f57519065ffffffffffff8216820361097f5750386125a9565b3d91506125c5565b600b54806126095750600a5490565b806000198101116121d657600b6000527f0175b7a638427703f0dbe7bb9bbf987a2551717b34e79f33b5b1008d1fa01db8015460201c90565b929061268e926126a09260405194859261267e61266b602086019960808b5260a0870190612084565b601f1996878783030160408801526115a4565b90858583030160608601526120c1565b90608083015203908101835282610533565b51902090565b60209060006040516126b7816104e2565b52604051630748d63560e31b81526001600160a01b0391821660048201526024810193909352829060449082907f0000000000000000000000000000000000000000000000000000000000000000165afa908115610d7e5760009161271a575090565b610624915060203d602011610da957610d9a8183610533565b811561273d570490565b634e487b7160e01b600052601260045260246000fd5b604051632394e7a360e21b815260048101829052906020826024817f00000000000000000000000000000000000000000000000000000000000000006001600160a01b03165afa918215610d7e576000926127cb575b506127b3906123bd565b908181029181830414901517156121d6576064900490565b6127b39192506127e99060203d602011610da957610d9a8183610533565b91906127a9565b600c546001600160a01b0316300361280457565b60405162461bcd60e51b815260206004820152601f60248201527f476f7665726e6f723a206d7573742073656e6420746f206578656375746f72006044820152606490fd5b60429061285461347c565b906040519161190160f01b8352600283015260228201522090565b93909260ff61289b9361062497958752166020860152604085015260a0606085015260a0840190610867565b916080818403910152610867565b909260ff6080936106249695845216602083015260408201528160608201520190610867565b929190836000526003602052604060002060016128eb86612b33565b6128f481611095565b036129b35761291c61291061292292546001600160401b031690565b6001600160401b031690565b826133d3565b9461292f86848488613798565b805161297757506129717fb8e138887d0aa13bab447e82de9d5c1777041ecd21ca36ba824ff1e6c07ddda4938660405194859460018060a01b031697856128a9565b0390a290565b612971907fe2babfbac5889a709b63bb7f598b324e08bc5a4fb9ec647fb3cbc9ec07eb8712948760405195869560018060a01b0316988661286f565b60405162461bcd60e51b815260206004820152602360248201527f476f7665726e6f723a20766f7465206e6f742063757272656e746c792061637460448201526269766560e81b6064820152608490fd5b6004549081600f0b809260801d600f0b1315612a4f5781600052600560205260406000209160008354935560016001600160801b03196004541691016001600160801b031617600455565b604051631ed9509560e11b8152600490fd5b600b5490680100000000000000008210156104a7576001820180600b5582101561255257600b600052805160209182015190911b63ffffffff191663ffffffff91909116176000805160206140e083398151915290910155565b80518210156125525760209160051b010190565b600c546001600160a01b03163003612ae357565b60045480600f0b9060801d600f0b13612af857565b6000600455565b91610624939160405193612b12856104e2565b600085526128cf565b90816020910312610403575180151581036104035790565b612b3c81613979565b90612b4682611095565b60048203612c4c57612b6290600052600d602052604060002090565b5480612b6c575090565b600c54909150612b84906001600160a01b0316610c32565b604051632ab0f52960e01b81526004810183905260209291908381602481855afa908115610d7e57600091612c2f575b5015612bc257505050600790565b604051632c258a9f60e11b815260048101929092528290829060249082905afa918215610d7e57600092612c02575b505015612bfd57600590565b600290565b612c219250803d10612c28575b612c198183610533565b810190612b1b565b3880612bf1565b503d612c0f565b612c469150843d8611612c2857612c198183610533565b38612bb4565b5090565b63ffffffff90818111612c61571690565b60405162461bcd60e51b815260206004820152602660248201527f53616665436173743a2076616c756520646f65736e27742066697420696e203360448201526532206269747360d01b6064820152608490fd5b15612cbc57565b60405162461bcd60e51b815260206004820152601d60248201527f476f7665726e6f723a2070726f706f73657220726573747269637465640000006044820152606490fd5b15612d0857565b60405162461bcd60e51b815260206004820152603160248201527f476f7665726e6f723a2070726f706f73657220766f7465732062656c6f7720706044820152701c9bdc1bdcd85b081d1a1c995cda1bdb19607a1b6064820152608490fd5b15612d6e57565b60405162461bcd60e51b815260206004820152602160248201527f476f7665726e6f723a20696e76616c69642070726f706f73616c206c656e67746044820152600d60fb1b6064820152608490fd5b15612dc457565b60405162461bcd60e51b815260206004820152601860248201527f476f7665726e6f723a20656d7074792070726f706f73616c00000000000000006044820152606490fd5b15612e1057565b60405162461bcd60e51b815260206004820152602160248201527f476f7665726e6f723a2070726f706f73616c20616c72656164792065786973746044820152607360f81b6064820152608490fd5b815160208301516040808501516001600160401b039384169290911b68010000000000000000600160e01b0316919091176001600160e01b03199091161782556060830151608084015167ffffffffffffffff191691161760018201556105619190612ef59060c09060020192612eee612edc60a0830151151590565b859060ff801983541691151516179055565b0151151590565b815461ff00191690151560081b61ff0016179055565b90612f1582610a23565b612f226040519182610533565b8281528092612f33601f1991610a23565b019060005b828110612f4457505050565b806060602080938501015201612f38565b9592612f8990612f97939b9a989996959261012090895260209c60018060a01b03168d8a01528060408a0152880190612084565b9086820360608801526115a4565b9784890360808601528251808a52818a019180808360051b8d01019501926000905b838210612ff657505050505061062496975090612fdd9184820360a08601526120c1565b9360c083015260e0820152610100818403910152610867565b909192939583806130158f93600194601f199082030186528a51610867565b98019201920190939291612fb9565b6131a47f7d84a6263ae0d98d3329bd7b46bb4e8d6f98cd35a7adb45c274c8b7fd5ebd5e0939461305c6130578233613d4f565b612cb5565b613067610733612560565b9561308761307d61307789612357565b336126a6565b6008541115612d01565b61310261309c83516020850120838888612642565b976130aa8651885114612d67565b6130b78651845114612d67565b6130c386511515612dbd565b6130f96001600160401b036130f26130e58c6000526003602052604060002090565b546001600160401b031690565b1615612e09565b600654906121db565b61310e600754826121db565b9161318c61311b83613e08565b61315e61312786613e08565b613141613132610563565b6001600160401b039094168452565b336020840152600060408401526001600160401b03166060830152565b60006080820152600060a0820152600060c08201526131878b6000526003602052604060002090565b612e5f565b6131968651612f0b565b604051978897338c8a612f55565b0390a190565b60ff81146131e85760ff811690601f82116131d657604051916131cc836104ac565b8252602082015290565b604051632cd44ac360e21b8152600490fd5b50604051600081600054916131fc83611fd9565b808352926020906001908181169081156132875750600114613227575b505061062492500382610533565b915092600080527f290decd9548b62a8d60345a988386fc84ba6bc95484008f6362f93160ef3e563936000925b82841061326f57506106249450505081016020013880613219565b85548785018301529485019486945092810192613254565b9150506020925061062494915060ff191682840152151560051b8201013880613219565b60ff81146132cd5760ff811690601f82116131d657604051916131cc836104ac565b506040516000816001916001546132e381611fd9565b8084529360209160018116908115613287575060011461330b57505061062492500382610533565b91509260016000527fb10e2d527612073b26eecdfd717e6a320cf44b4afac2b0732d9fcbe2b7fa0cf6936000925b82841061335457506106249450505081016020013880613219565b85548785018301529485019486945092810192613339565b65ffffffffffff9081811161337f571690565b60405162461bcd60e51b815260206004820152602660248201527f53616665436173743a2076616c756520646f65736e27742066697420696e203460448201526538206269747360d01b6064820152608490fd5b604051630748d63560e31b81526001600160a01b0391821660048201526024810192909252602090829060449082907f0000000000000000000000000000000000000000000000000000000000000000165afa908115610d7e5760009161271a575090565b90919015613444575090565b8151156134545750805190602001fd5b60405162461bcd60e51b815260206004820152908190613478906024830190610867565b0390fd5b307f00000000000000000000000000000000000000000000000000000000000000006001600160a01b03161480613567575b156134d7577f000000000000000000000000000000000000000000000000000000000000000090565b60405160208101907f8b73c3c69bb8fe3d512ecc4cf759cc79239f7b179b0ffacaa9a75d522b39400f82527f000000000000000000000000000000000000000000000000000000000000000060408201527f000000000000000000000000000000000000000000000000000000000000000060608201524660808201523060a082015260a081526126a081610518565b507f000000000000000000000000000000000000000000000000000000000000000046146134ae565b9291907f7fffffffffffffffffffffffffffffff5d576e7357a4501ddfe92f46681b20a083116136065791608094939160ff602094604051948552168484015260408301526060820152600093849182805260015afa15610d7e5781516001600160a01b03811615613600579190565b50600190565b50505050600090600390565b60051115610f3f57565b61362581613612565b8061362d5750565b61363681613612565b600181036136835760405162461bcd60e51b815260206004820152601860248201527f45434453413a20696e76616c6964207369676e617475726500000000000000006044820152606490fd5b61368c81613612565b600281036136d95760405162461bcd60e51b815260206004820152601f60248201527f45434453413a20696e76616c6964207369676e6174757265206c656e677468006044820152606490fd5b806136e5600392613612565b146136ec57565b60405162461bcd60e51b815260206004820152602260248201527f45434453413a20696e76616c6964207369676e6174757265202773272076616c604482015261756560f01b6064820152608490fd5b1561374357565b60405162461bcd60e51b815260206004820152602760248201527f476f7665726e6f72566f74696e6753696d706c653a20766f746520616c726561604482015266191e4818d85cdd60ca1b6064820152608490fd5b916138146138076137b660ff94956000526009602052604060002090565b94600386016137f06137eb6137e76137e085859060018060a01b0316600052602052604060002090565b5460ff1690565b1590565b61373c565b9060018060a01b0316600052602052604060002090565b805460ff19166001179055565b168061382b5750906138279082546121db565b9055565b600181036138435750600161382791019182546121db565b60020361385957600261382791019182546121db565b60405162461bcd60e51b815260206004820152603560248201527f476f7665726e6f72566f74696e6753696d706c653a20696e76616c69642076616044820152746c756520666f7220656e756d20566f74655479706560581b6064820152608490fd5b6001600160e01b03908181116138d0571690565b60405162461bcd60e51b815260206004820152602760248201527f53616665436173743a2076616c756520646f65736e27742066697420696e20326044820152663234206269747360c81b6064820152608490fd5b919060018060a01b03600c541690813b156104035760009361395d6040519687958694859463e38335e560e01b86526004860161211e565b039134905af18015610d7e576139705750565b61056190610494565b600261398f826000526003602052604060002090565b015460ff8116613a9b5760081c60ff16613a95576139bd6129106130e5836000526003602052604060002090565b8015613a50576139ce610733612560565b80911015613a4957613a0061291060016139f2856000526003602052604060002090565b01546001600160401b031690565b101561360057613a0f81613fc2565b9081613a26575b5015613a2157600490565b600390565b613a43915060005260096020526040600020600181015490541090565b38613a16565b5050600090565b60405162461bcd60e51b815260206004820152601d60248201527f476f7665726e6f723a20756e6b6e6f776e2070726f706f73616c2069640000006044820152606490fd5b50600290565b5050600790565b90613aae939291612642565b613ab781612b33565b6008811015610f3f57806002613adc9214159081613be8575b81613bd3575b50614003565b613b056002613af5836000526003602052604060002090565b01805461ff001916610100179055565b6040518181527f789cf55be980739dad1d0699b93b58e806b51c9d96619bfa8fe0a28abaa7b30c90602090a1613b4581600052600d602052604060002090565b54613b4d5790565b600c54613b62906001600160a01b0316610c32565b613b7682600052600d602052604060002090565b5490803b156104035760405163c4d252f560e01b815260048101929092526000908290602490829084905af18015610d7e57613bc0575b506000818152600d602052604081205590565b80610d72613bcd92610494565b38613bad565b60079150613be081611095565b141538613ad6565b9050613bf381611095565b600681141590613ad0565b8015613d385780613cd1613cca613cc0613cb6613cac613ca2613c98613c8e60016106249a6000908b60801c80613d2c575b508060401c80613d1f575b508060201c80613d12575b508060101c80613d05575b508060081c80613cf8575b508060041c80613ceb575b508060021c80613cde575b50821c613cd7575b811c1b613c87818b612733565b0160011c90565b613c87818a612733565b613c878189612733565b613c878188612733565b613c878187612733565b613c878186612733565b613c878185612733565b8092612733565b9061404f565b8101613c7a565b6002915091019038613c72565b6004915091019038613c67565b6008915091019038613c5c565b6010915091019038613c51565b6020915091019038613c46565b6040915091019038613c3b565b91505060809038613c30565b50600090565b908151811015612552570160200190565b815160348110613e005760131981840101516001600160a01b0319166b1b91f1b211f2119351b859f160a31b01613e005791600092613d8d81612366565b915b818310613daa575050506001600160a01b0391821691161490565b909193613dd0613dcb613dbd8785613d3e565b516001600160f81b03191690565b614061565b919015613df55760041b6010600160a01b031660ff9190911617936001019190613d8f565b505050505050600190565b505050600190565b6001600160401b0390818111613e1c571690565b60405162461bcd60e51b815260206004820152602660248201527f53616665436173743a2076616c756520646f65736e27742066697420696e203660448201526534206269747360d01b6064820152608490fd5b15613e7757565b60405162461bcd60e51b815260206004820152601b60248201527f436865636b706f696e743a2064656372656173696e67206b65797300000000006044820152606490fd5b600b549192918015613f9857613f5e918185613ee4613edf612473602096612357565b61238b565b92613ef3845163ffffffff1690565b613f0a63ffffffff91828416928391161115613e70565b613f24613f1b865163ffffffff1690565b63ffffffff1690565b03613f625750613f39612473613f5093612357565b9063ffffffff82549181199060201b169116179055565b01516001600160e01b031690565b9190565b9050613f939150613f80613f74610554565b63ffffffff9092168252565b6001600160e01b03871681850152612a61565b613f50565b50613fbc90613fa8613f74610554565b6001600160e01b0384166020820152612a61565b60009190565b600052600960205260406000206003602052613feb6001600160401b0360406000205416612753565b6002600183015492015482018092116121d657111590565b1561400a57565b60405162461bcd60e51b815260206004820152601d60248201527f476f7665726e6f723a2070726f706f73616c206e6f74206163746976650000006044820152606490fd5b908082101561405c575090565b905090565b60f81c9081602f10806140d5575b1561408157600191602f190160ff1690565b81604010806140cb575b1561409d576001916036190160ff1690565b81606010806140c1575b156140b9576001916056190160ff1690565b600091508190565b50606782106140a7565b506047821061408b565b50603a821061406f56fe0175b7a638427703f0dbe7bb9bbf987a2551717b34e79f33b5b1008d1fa01db9a2646970667358221220001eacb29e87fb97a2f2af1a5232876ef6a32aa3ab1c64f3271259a183b7c87c64736f6c634300081600330175b7a638427703f0dbe7bb9bbf987a2551717b34e79f33b5b1008d1fa01db960a03461012557601f610c9f38819003918201601f19168301916001600160401b0383118484101761012a57808492604094855283398101031261012557610052602061004b83610140565b9201610140565b61005b33610154565b600180556001600160a01b0390828216156100e0571690811561009b5761008190610154565b608052604051610b03908161019c82396080518160d30152f35b60405162461bcd60e51b815260206004820152601c60248201527f546f6b656e2063616e6e6f74206265207a65726f2061646472657373000000006044820152606490fd5b60405162461bcd60e51b815260206004820152601f60248201527f54696d656c6f636b2063616e6e6f74206265207a65726f2061646472657373006044820152606490fd5b600080fd5b634e487b7160e01b600052604160045260246000fd5b51906001600160a01b038216820361012557565b600080546001600160a01b039283166001600160a01b03198216811783559216907f8be0079c531659141344cd1fd0a4f28419497f9722a3daafe3b4186f6b6457e09080a356fe604060808152600480361015610048575b50361561001c57600080fd5b513481527f1e57e3bb474320be3d2c77138f75b7c3941292d647f5f9634e33a8e94e0e069b60203392a2005b600090813560e01c9081632ccbef8b146105015781633aecd0e31461046d578163715018a6146104105781638da5cb5b146103e8578163c1756a2c14610353578163e63ea4081461026c578163e6d66ac8146101e9578163ea46193e146101ce578163f2fde38b14610106575063f96dae0a03610010579034610102578160031936011261010257517f00000000000000000000000000000000000000000000000000000000000000006001600160a01b03168152602090f35b5080fd5b839150346101ca5760203660031901126101ca57610122610603565b9061012b610847565b6001600160a01b0391821692831561017857505082546001600160a01b0319811683178455167f8be0079c531659141344cd1fd0a4f28419497f9722a3daafe3b4186f6b6457e08380a380f35b906020608492519162461bcd60e51b8352820152602660248201527f4f776e61626c653a206e6577206f776e657220697320746865207a65726f206160448201526564647265737360d01b6064820152fd5b8280fd5b82843461010257816003193601126101025751478152602090f35b8284346101025760207fe607861baff3d292b19188affe88c1a72bdcb69d3015f18bb2cd0bf5349cc3e161021c3661061e565b90939194610228610847565b6102306107f1565b6001600160a01b038581169661026091849161024d8a15156106d7565b169661025a881515610653565b8761089f565b51908152a36001805580f35b905082346101ca5761027d3661061e565b91610289939193610847565b6102916107f1565b6001600160a01b0384811695909190861561031057509186847ff24ef89f38eadc1bde50701ad6e4d6d11a2dc24f7cf834a486991f38833285049593602095169687156000146103005791808083610260956102f08396471015610723565b5af16102fa61076f565b506107af565b61030b92508761089f565b610260565b606490602085519162461bcd60e51b8352820152601f60248201527f43616e6e6f7420776974686472617720746f207a65726f2061646472657373006044820152fd5b839150346101ca57816003193601126101ca57356001600160a01b03811691908290036101ca5760207f6109e2559dfa766aaec7118351d48a523f0a4157f49c8d68749c8ac41318ad1291602435906103aa610847565b6103b26107f1565b6103bd8515156106d7565b6103c982471015610723565b6103dc86808080868a5af16102fa61076f565b51908152a26001805580f35b828434610102578160031936011261010257905490516001600160a01b039091168152602090f35b823461046a578060031936011261046a57610429610847565b80546001600160a01b03198116825581906001600160a01b03167f8be0079c531659141344cd1fd0a4f28419497f9722a3daafe3b4186f6b6457e08280a380f35b80fd5b82843461010257602092836003193601126101ca57836001600160a01b03610493610603565b169160248451809481936370a0823160e01b835230908301525afa9283156104f65780936104c4575b505051908152f35b909192508382813d83116104ef575b6104dd818361069f565b8101031261046a5750519083806104bc565b503d6104d3565b8251903d90823e3d90fd5b905082346101ca576105123661061e565b9161051e9391936107f1565b6001600160a01b0390811693610535851515610653565b169384156105c1578151906323b872dd60e01b60208301528560248301523060448301528360648301526064825260a082019082821067ffffffffffffffff8311176105ae5750916102607f0af1239547617509a79d1ff0ee4be9ca943bc8410cb0b282dda97d27995a0acd94926020948352866108f1565b634e487b7160e01b885260419052602487fd5b6020606492519162461bcd60e51b8352820152602060248201527f43616e6e6f7420726563656976652066726f6d207a65726f20616464726573736044820152fd5b600435906001600160a01b038216820361061957565b600080fd5b6060906003190112610619576001600160a01b0390600435828116810361061957916024359081168103610619579060443590565b1561065a57565b60405162461bcd60e51b815260206004820152601c60248201527f546f6b656e2063616e6e6f74206265207a65726f2061646472657373000000006044820152606490fd5b90601f8019910116810190811067ffffffffffffffff8211176106c157604052565b634e487b7160e01b600052604160045260246000fd5b156106de57565b60405162461bcd60e51b815260206004820152601b60248201527f43616e6e6f742073656e6420746f207a65726f206164647265737300000000006044820152606490fd5b1561072a57565b60405162461bcd60e51b815260206004820152601860248201527f496e73756666696369656e74204554482062616c616e636500000000000000006044820152606490fd5b3d156107aa573d9067ffffffffffffffff82116106c1576040519161079e601f8201601f19166020018461069f565b82523d6000602084013e565b606090565b156107b657565b60405162461bcd60e51b8152602060048201526013602482015272115512081d1c985b9cd9995c8819985a5b1959606a1b6044820152606490fd5b600260015414610802576002600155565b60405162461bcd60e51b815260206004820152601f60248201527f5265656e7472616e637947756172643a207265656e7472616e742063616c6c006044820152606490fd5b6000546001600160a01b0316330361085b57565b606460405162461bcd60e51b815260206004820152602060248201527f4f776e61626c653a2063616c6c6572206973206e6f7420746865206f776e65726044820152fd5b60405163a9059cbb60e01b60208201526001600160a01b039092166024830152604480830193909352918152608081019167ffffffffffffffff8311828410176106c1576108ef926040526108f1565b565b60018060a01b031690604051604081019080821067ffffffffffffffff8311176106c157610963916040526020938482527f5361666545524332303a206c6f772d6c6576656c2063616c6c206661696c6564858301526000808587829751910182855af161095d61076f565b916109f9565b8051918215918483156109d5575b50505090501561097e5750565b6084906040519062461bcd60e51b82526004820152602a60248201527f5361666545524332303a204552433230206f7065726174696f6e20646964206e6044820152691bdd081cdd58d8d9595960b21b6064820152fd5b9193818094500103126101025782015190811515820361046a575080388084610971565b91929015610a5b5750815115610a0d575090565b3b15610a165790565b60405162461bcd60e51b815260206004820152601d60248201527f416464726573733a2063616c6c20746f206e6f6e2d636f6e74726163740000006044820152606490fd5b825190915015610a6e5750805190602001fd5b6040519062461bcd60e51b82528160208060048301528251908160248401526000935b828510610ab4575050604492506000838284010152601f80199101168101030190fd5b8481018201518686016044015293810193859350610a9156fea264697066735822122001020eaa9d5ec8d1ae05c0be57f2b1fe7a2a3acb912b217e4472234d918750e364736f6c63430008160033360894a13ba1a3210667c828492db98dca3e2076cc3735a920a3ca505d382bbca2646970667358221220afa9741e64298e72339047d89e45448e8dc174767e403b2d6fa3d07c2bed9d9664736f6c63430008160033",
  "linkReferences": {},
  "deployedLinkReferences": {}
}