{
  "_format": "hh-sol-artifact-1",
  "contractName": "Treasury_v3_0_0",
  "sourceName": "contracts/Treasury_v3.0.0.sol",
  "abi": [
    {
      "inputs": [
        {
          "internalType": "address",
          "name": "timelock_",
          "type": "address"
        },
        {
          "internalType": "address",
          "name": "governanceToken_",
          "type": "address"
        }
      ],
      "stateMutability": "nonpayable",
      "type": "constructor"
    },
    {
      "anonymous": false,
      "inputs": [
        {
          "indexed": true,
          "internalType": "address",
          "name": "token",
          "type": "address"
        },
        {
          "indexed": true,
          "internalType": "address",
          "name": "to",
          "type": "address"
        },
        {
          "indexed": false,
          "internalType": "uint256",
          "name": "amount",
          "type": "uint256"
        }
      ],
      "name": "EmergencyWithdraw",
      "type": "event"
    },
    {
      "anonymous": false,
      "inputs": [
        {
          "indexed": true,
          "internalType": "address",
          "name": "from",
          "type": "address"
        },
        {
          "indexed": false,
          "internalType": "uint256",
          "name": "amount",
          "type": "uint256"
        }
      ],
      "name": "EtherReceived",
      "type": "event"
    },
    {
      "anonymous": false,
      "inputs": [
        {
          "indexed": true,
          "internalType": "address",
          "name": "to",
          "type": "address"
        },
        {
          "indexed": false,
          "internalType": "uint256",
          "name": "amount",
          "type": "uint256"
        }
      ],
      "name": "EtherSent",
      "type": "event"
    },
    {
      "anonymous": false,
      "inputs": [
        {
          "indexed": true,
          "internalType": "address",
          "name": "previousOwner",
          "type": "address"
        },
        {
          "indexed": true,
          "internalType": "address",
          "name": "newOwner",
          "type": "address"
        }
      ],
      "name": "OwnershipTransferred",
      "type": "event"
    },
    {
      "anonymous": false,
      "inputs": [
        {
          "indexed": true,
          "internalType": "address",
          "name": "token",
          "type": "address"
        },
        {
          "indexed": true,
          "internalType": "address",
          "name": "from",
          "type": "address"
        },
        {
          "indexed": false,
          "internalType": "uint256",
          "name": "amount",
          "type": "uint256"
        }
      ],
      "name": "TokensReceived",
      "type": "event"
    },
    {
      "anonymous": false,
      "inputs": [
        {
          "indexed": true,
          "internalType": "address",
          "name": "token",
          "type": "address"
        },
        {
          "indexed": true,
          "internalType": "address",
          "name": "to",
          "type": "address"
        },
        {
          "indexed": false,
          "internalType": "uint256",
          "name": "amount",
          "type": "uint256"
        }
      ],
      "name": "TokensSent",
      "type": "event"
    },
    {
      "inputs": [
        {
          "internalType": "address",
          "name": "token",
          "type": "address"
        },
        {
          "internalType": "address",
          "name": "to",
          "type": "address"
        },
        {
          "internalType": "uint256",
          "name": "amount",
          "type": "uint256"
        }
      ],
      "name": "emergencyWithdraw",
      "outputs": [],
      "stateMutability": "nonpayable",
      "type": "function"
    },
    {
      "inputs": [],
      "name": "getEtherBalance",
      "outputs": [
        {
          "internalType": "uint256",
          "name": "",
          "type": "uint256"
        }
      ],
      "stateMutability": "view",
      "type": "function"
    },
    {
      "inputs": [
        {
          "internalType": "address",
          "name": "token",
          "type": "address"
        }
      ],
      "name": "getTokenBalance",
      "outputs": [
        {
          "internalType": "uint256",
          "name": "",
          "type": "uint256"
        }
      ],
      "stateMutability": "view",
      "type": "function"
    },
    {
      "inputs": [],
      "name": "governanceToken",
      "outputs": [
        {
          "internalType": "contract IERC20",
          "name": "",
          "type": "address"
        }
      ],
      "stateMutability": "view",
      "type": "function"
    },
    {
      "inputs": [],
      "name": "owner",
      "outputs": [
        {
          "internalType": "address",
          "name": "",
          "type": "address"
        }
      ],
      "stateMutability": "view",
      "type": "function"
    },
    {
      "inputs": [
        {
          "internalType": "address",
          "name": "token",
          "type": "address"
        },
        {
          "internalType": "address",
          "name": "from",
          "type": "address"
        },
        {
          "internalType": "uint256",
          "name": "amount",
          "type": "uint256"
        }
      ],
      "name": "receiveTokens",
      "outputs": [],
      "stateMutability": "nonpayable",
      "type": "function"
    },
    {
      "inputs": [],
      "name": "renounceOwnership",
      "outputs": [],
      "stateMutability": "nonpayable",
      "type": "function"
    },
    {
      "inputs": [
        {
          "internalType": "address payable",
          "name": "to",
          "type": "address"
        },
        {
          "internalType": "uint256",
          "name": "amount",
          "type": "uint256"
        }
      ],
      "name": "sendEther",
      "outputs": [],
      "stateMutability": "nonpayable",
      "type": "function"
    },
    {
      "inputs": [
        {
          "internalType": "address",
          "name": "token",
          "type": "address"
        },
        {
          "internalType": "address",
          "name": "to",
          "type": "address"
        },
        {
          "internalType": "uint256",
          "name": "amount",
          "type": "uint256"
        }
      ],
      "name": "sendTokens",
      "outputs": [],
      "stateMutability": "nonpayable",
      "type": "function"
    },
    {
      "inputs": [
        {
          "internalType": "address",
          "name": "newOwner",
          "type": "address"
        }
      ],
      "name": "transferOwnership",
      "outputs": [],
      "stateMutability": "nonpayable",
      "type": "function"
    },
    {
      "stateMutability": "payable",
      "type": "receive"
    }
  ],
  "bytecode": "0x60a03461012557601f610c9f38819003918201601f19168301916001600160401b0383118484101761012a57808492604094855283398101031261012557610052602061004b83610140565b9201610140565b61005b33610154565b600180556001600160a01b0390828216156100e0571690811561009b5761008190610154565b608052604051610b03908161019c82396080518160d30152f35b60405162461bcd60e51b815260206004820152601c60248201527f546f6b656e2063616e6e6f74206265207a65726f2061646472657373000000006044820152606490fd5b60405162461bcd60e51b815260206004820152601f60248201527f54696d656c6f636b2063616e6e6f74206265207a65726f2061646472657373006044820152606490fd5b600080fd5b634e487b7160e01b600052604160045260246000fd5b51906001600160a01b038216820361012557565b600080546001600160a01b039283166001600160a01b03198216811783559216907f8be0079c531659141344cd1fd0a4f28419497f9722a3daafe3b4186f6b6457e09080a356fe604060808152600480361015610048575b50361561001c57600080fd5b513481527f1e57e3bb474320be3d2c77138f75b7c3941292d647f5f9634e33a8e94e0e069b60203392a2005b600090813560e01c9081632ccbef8b146105015781633aecd0e31461046d578163715018a6146104105781638da5cb5b146103e8578163c1756a2c14610353578163e63ea4081461026c578163e6d66ac8146101e9578163ea46193e146101ce578163f2fde38b14610106575063f96dae0a03610010579034610102578160031936011261010257517f00000000000000000000000000000000000000000000000000000000000000006001600160a01b03168152602090f35b5080fd5b839150346101ca5760203660031901126101ca57610122610603565b9061012b610847565b6001600160a01b0391821692831561017857505082546001600160a01b0319811683178455167f8be0079c531659141344cd1fd0a4f28419497f9722a3daafe3b4186f6b6457e08380a380f35b906020608492519162461bcd60e51b8352820152602660248201527f4f776e61626c653a206e6577206f776e657220697320746865207a65726f206160448201526564647265737360d01b6064820152fd5b8280fd5b82843461010257816003193601126101025751478152602090f35b8284346101025760207fe607861baff3d292b19188affe88c1a72bdcb69d3015f18bb2cd0bf5349cc3e161021c3661061e565b90939194610228610847565b6102306107f1565b6001600160a01b038581169661026091849161024d8a15156106d7565b169661025a881515610653565b8761089f565b51908152a36001805580f35b905082346101ca5761027d3661061e565b91610289939193610847565b6102916107f1565b6001600160a01b0384811695909190861561031057509186847ff24ef89f38eadc1bde50701ad6e4d6d11a2dc24f7cf834a486991f38833285049593602095169687156000146103005791808083610260956102f08396471015610723565b5af16102fa61076f565b506107af565b61030b92508761089f565b610260565b606490602085519162461bcd60e51b8352820152601f60248201527f43616e6e6f7420776974686472617720746f207a65726f2061646472657373006044820152fd5b839150346101ca57816003193601126101ca57356001600160a01b03811691908290036101ca5760207f6109e2559dfa766aaec7118351d48a523f0a4157f49c8d68749c8ac41318ad1291602435906103aa610847565b6103b26107f1565b6103bd8515156106d7565b6103c982471015610723565b6103dc86808080868a5af16102fa61076f565b51908152a26001805580f35b828434610102578160031936011261010257905490516001600160a01b039091168152602090f35b823461046a578060031936011261046a57610429610847565b80546001600160a01b03198116825581906001600160a01b03167f8be0079c531659141344cd1fd0a4f28419497f9722a3daafe3b4186f6b6457e08280a380f35b80fd5b82843461010257602092836003193601126101ca57836001600160a01b03610493610603565b169160248451809481936370a0823160e01b835230908301525afa9283156104f65780936104c4575b505051908152f35b909192508382813d83116104ef575b6104dd818361069f565b8101031261046a5750519083806104bc565b503d6104d3565b8251903d90823e3d90fd5b905082346101ca576105123661061e565b9161051e9391936107f1565b6001600160a01b0390811693610535851515610653565b169384156105c1578151906323b872dd60e01b60208301528560248301523060448301528360648301526064825260a082019082821067ffffffffffffffff8311176105ae5750916102607f0af1239547617509a79d1ff0ee4be9ca943bc8410cb0b282dda97d27995a0acd94926020948352866108f1565b634e487b7160e01b885260419052602487fd5b6020606492519162461bcd60e51b8352820152602060248201527f43616e6e6f7420726563656976652066726f6d207a65726f20616464726573736044820152fd5b600435906001600160a01b038216820361061957565b600080fd5b6060906003190112610619576001600160a01b0390600435828116810361061957916024359081168103610619579060443590565b1561065a57565b60405162461bcd60e51b815260206004820152601c60248201527f546f6b656e2063616e6e6f74206265207a65726f2061646472657373000000006044820152606490fd5b90601f8019910116810190811067ffffffffffffffff8211176106c157604052565b634e487b7160e01b600052604160045260246000fd5b156106de57565b60405162461bcd60e51b815260206004820152601b60248201527f43616e6e6f742073656e6420746f207a65726f206164647265737300000000006044820152606490fd5b1561072a57565b60405162461bcd60e51b815260206004820152601860248201527f496e73756666696369656e74204554482062616c616e636500000000000000006044820152606490fd5b3d156107aa573d9067ffffffffffffffff82116106c1576040519161079e601f8201601f19166020018461069f565b82523d6000602084013e565b606090565b156107b657565b60405162461bcd60e51b8152602060048201526013602482015272115512081d1c985b9cd9995c8819985a5b1959606a1b6044820152606490fd5b600260015414610802576002600155565b60405162461bcd60e51b815260206004820152601f60248201527f5265656e7472616e637947756172643a207265656e7472616e742063616c6c006044820152606490fd5b6000546001600160a01b0316330361085b57565b606460405162461bcd60e51b815260206004820152602060248201527f4f776e61626c653a2063616c6c6572206973206e6f7420746865206f776e65726044820152fd5b60405163a9059cbb60e01b60208201526001600160a01b039092166024830152604480830193909352918152608081019167ffffffffffffffff8311828410176106c1576108ef926040526108f1565b565b60018060a01b031690604051604081019080821067ffffffffffffffff8311176106c157610963916040526020938482527f5361666545524332303a206c6f772d6c6576656c2063616c6c206661696c6564858301526000808587829751910182855af161095d61076f565b916109f9565b8051918215918483156109d5575b50505090501561097e5750565b6084906040519062461bcd60e51b82526004820152602a60248201527f5361666545524332303a204552433230206f7065726174696f6e20646964206e6044820152691bdd081cdd58d8d9595960b21b6064820152fd5b9193818094500103126101025782015190811515820361046a575080388084610971565b91929015610a5b5750815115610a0d575090565b3b15610a165790565b60405162461bcd60e51b815260206004820152601d60248201527f416464726573733a2063616c6c20746f206e6f6e2d636f6e74726163740000006044820152606490fd5b825190915015610a6e5750805190602001fd5b6040519062461bcd60e51b82528160208060048301528251908160248401526000935b828510610ab4575050604492506000838284010152601f80199101168101030190fd5b8481018201518686016044015293810193859350610a9156fea264697066735822122001020eaa9d5ec8d1ae05c0be57f2b1fe7a2a3acb912b217e4472234d918750e364736f6c63430008160033",
  "linkReferences": {},
  "deployedLinkReferences": {}
}