{
  "_format": "hh-sol-artifact-1",
  "contractName": "InterestRateModel",
  "sourceName": "contracts/defi/InterestRateModel.sol",
  "abi": [
    {
      "inputs": [
        {
          "internalType": "uint256",
          "name": "utilizationRate",
          "type": "uint256"
        }
      ],
      "name": "getBorrowRate",
      "outputs": [
        {
          "internalType": "uint256",
          "name": "",
          "type": "uint256"
        }
      ],
      "stateMutability": "view",
      "type": "function"
    },
    {
      "inputs": [
        {
          "internalType": "uint256",
          "name": "utilizationRate",
          "type": "uint256"
        },
        {
          "internalType": "uint256",
          "name": "reserveFactorBps",
          "type": "uint256"
        }
      ],
      "name": "getSupplyRate",
      "outputs": [
        {
          "internalType": "uint256",
          "name": "",
          "type": "uint256"
        }
      ],
      "stateMutability": "view",
      "type": "function"
    }
  ],
  "bytecode": "0x6080806040523461001657610247908161001c8239f35b600080fdfe608060408181526004918236101561001657600080fd5b600090813560e01c9081632a11a8a0146100625750639fa83b5a1461003a57600080fd5b3461005f57602036600319011261005f57506100586020923561017c565b9051908152f35b80fd5b90503461014f578260031936011261014f57634fd41dad60e11b8152833581850181905290602081602481305afa9081156101455783916100e5575b506100a891610153565b6127109160243583039283116100d2576020846305f5e1006100ca8686610153565b049051908152f35b634e487b7160e01b815260118552602490fd5b905060203d60201161013e575b601f8101601f1916820167ffffffffffffffff81118382101761012b57602091839187528101031261012757516100a861009e565b8280fd5b634e487b7160e01b855260418752602485fd5b503d6100f2565b84513d85823e3d90fd5b5080fd5b8181029291811591840414171561016657565b634e487b7160e01b600052601160045260246000fd5b670b1a2bc2ec50000081116101c45767016345785d8a00009081810291818304149015171561016657670de0b6b3a764000066470de4df820000910481018091116101665790565b670b1a2bc2ec4fffff198101908111610166576706f05b59d3b200009081810291818304149015171561016657670de0b6b3a764000067016345785d8a000091048101809111610166579056fea264697066735822122092fda8f0414b3f6d0ba5c9801079e619224a64cbefc9d79bf22ffd1889acea2b64736f6c63430008160033",
  "linkReferences": {},
  "deployedLinkReferences": {}
}