{
  "_format": "hh-sol-artifact-1",
  "contractName": "TokenSale",
  "sourceName": "contracts/TokenSale.sol",
  "abi": [
    {
      "inputs": [
        {
          "internalType": "address",
          "name": "_token",
          "type": "address"
        },
        {
          "internalType": "uint256",
          "name": "_tokenPrice",
          "type": "uint256"
        },
        {
          "internalType": "uint256",
          "name": "_hardCap",
          "type": "uint256"
        }
      ],
      "stateMutability": "nonpayable",
      "type": "constructor"
    },
    {
      "anonymous": false,
      "inputs": [
        {
          "indexed": true,
          "internalType": "address",
          "name": "previousOwner",
          "type": "address"
        },
        {
          "indexed": true,
          "internalType": "address",
          "name": "newOwner",
          "type": "address"
        }
      ],
      "name": "OwnershipTransferred",
      "type": "event"
    },
    {
      "inputs": [],
      "name": "hardCap",
      "outputs": [
        {
          "internalType": "uint256",
          "name": "",
          "type": "uint256"
        }
      ],
      "stateMutability": "view",
      "type": "function"
    },
    {
      "inputs": [],
      "name": "owner",
      "outputs": [
        {
          "internalType": "address",
          "name": "",
          "type": "address"
        }
      ],
      "stateMutability": "view",
      "type": "function"
    },
    {
      "inputs": [],
      "name": "purchaseTokens",
      "outputs": [],
      "stateMutability": "payable",
      "type": "function"
    },
    {
      "inputs": [],
      "name": "renounceOwnership",
      "outputs": [],
      "stateMutability": "nonpayable",
      "type": "function"
    },
    {
      "inputs": [],
      "name": "saleActive",
      "outputs": [
        {
          "internalType": "bool",
          "name": "",
          "type": "bool"
        }
      ],
      "stateMutability": "view",
      "type": "function"
    },
    {
      "inputs": [],
      "name": "token",
      "outputs": [
        {
          "internalType": "contract IERC20",
          "name": "",
          "type": "address"
        }
      ],
      "stateMutability": "view",
      "type": "function"
    },
    {
      "inputs": [],
      "name": "tokenPrice",
      "outputs": [
        {
          "internalType": "uint256",
          "name": "",
          "type": "uint256"
        }
      ],
      "stateMutability": "view",
      "type": "function"
    },
    {
      "inputs": [],
      "name": "totalSold",
      "outputs": [
        {
          "internalType": "uint256",
          "name": "",
          "type": "uint256"
        }
      ],
      "stateMutability": "view",
      "type": "function"
    },
    {
      "inputs": [
        {
          "internalType": "address",
          "name": "newOwner",
          "type": "address"
        }
      ],
      "name": "transferOwnership",
      "outputs": [],
      "stateMutability": "nonpayable",
      "type": "function"
    }
  ],
  "bytecode": "0x608060405234801561001057600080fd5b506040516107b33803806107b383398101604081905261002f916100c8565b600160005561003d33610076565b600280546001600160a01b0319166001600160a01b0394909416939093179092556003556004556006805460ff1916600117905561010b565b600180546001600160a01b038381166001600160a01b0319831681179093556040519116919082907f8be0079c531659141344cd1fd0a4f28419497f9722a3daafe3b4186f6b6457e090600090a35050565b6000806000606084860312156100dd57600080fd5b83516001600160a01b03811681146100f457600080fd5b602085015160409095015190969495509392505050565b6106998061011a6000396000f3fe6080604052600436106100865760003560e01c80638da5cb5b116100595780638da5cb5b146100fd5780639106d7ba1461012f578063f2fde38b14610145578063fb86a40414610165578063fc0c546a1461017b57600080fd5b80633290ce291461008b57806368428a1b14610095578063715018a6146100c45780637ff9b596146100d9575b600080fd5b61009361019b565b005b3480156100a157600080fd5b506006546100af9060ff1681565b60405190151581526020015b60405180910390f35b3480156100d057600080fd5b50610093610400565b3480156100e557600080fd5b506100ef60035481565b6040519081526020016100bb565b34801561010957600080fd5b506001546001600160a01b03165b6040516001600160a01b0390911681526020016100bb565b34801561013b57600080fd5b506100ef60055481565b34801561015157600080fd5b50610093610160366004610590565b610412565b34801561017157600080fd5b506100ef60045481565b34801561018757600080fd5b50600254610117906001600160a01b031681565b6101a361048b565b60065460ff166101ef5760405162461bcd60e51b815260206004820152601260248201527153616c65206973206e6f742061637469766560701b60448201526064015b60405180910390fd5b6000341161023f5760405162461bcd60e51b815260206004820152601d60248201527f416d6f756e74206d7573742062652067726561746572207468616e203000000060448201526064016101e6565b600454600554106102855760405162461bcd60e51b815260206004820152601060248201526f12185c990818d85c081c995858da195960821b60448201526064016101e6565b60035460009061029d34670de0b6b3a76400006105d6565b6102a791906105f3565b6002546040516370a0823160e01b815230600482015291925082916001600160a01b03909116906370a0823190602401602060405180830381865afa1580156102f4573d6000803e3d6000fd5b505050506040513d601f19601f820116820180604052508101906103189190610615565b10156103665760405162461bcd60e51b815260206004820152601f60248201527f496e73756666696369656e7420746f6b656e7320696e20636f6e74726163740060448201526064016101e6565b8060056000828254610378919061062e565b909155505060025460405163a9059cbb60e01b8152336004820152602481018390526001600160a01b039091169063a9059cbb906044016020604051808303816000875af11580156103ce573d6000803e3d6000fd5b505050506040513d601f19601f820116820180604052508101906103f29190610641565b50506103fe6001600055565b565b6104086104e4565b6103fe600061053e565b61041a6104e4565b6001600160a01b03811661047f5760405162461bcd60e51b815260206004820152602660248201527f4f776e61626c653a206e6577206f776e657220697320746865207a65726f206160448201526564647265737360d01b60648201526084016101e6565b6104888161053e565b50565b6002600054036104dd5760405162461bcd60e51b815260206004820152601f60248201527f5265656e7472616e637947756172643a207265656e7472616e742063616c6c0060448201526064016101e6565b6002600055565b6001546001600160a01b031633146103fe5760405162461bcd60e51b815260206004820181905260248201527f4f776e61626c653a2063616c6c6572206973206e6f7420746865206f776e657260448201526064016101e6565b600180546001600160a01b038381166001600160a01b0319831681179093556040519116919082907f8be0079c531659141344cd1fd0a4f28419497f9722a3daafe3b4186f6b6457e090600090a35050565b6000602082840312156105a257600080fd5b81356001600160a01b03811681146105b957600080fd5b9392505050565b634e487b7160e01b600052601160045260246000fd5b80820281158282048414176105ed576105ed6105c0565b92915050565b60008261061057634e487b7160e01b600052601260045260246000fd5b500490565b60006020828403121561062757600080fd5b5051919050565b808201808211156105ed576105ed6105c0565b60006020828403121561065357600080fd5b815180151581146105b957600080fdfea264697066735822122096b162934c365b0bef0c052b3a1f124a5d5498404aa54ccb2426189998771ea364736f6c63430008140033",
  "linkReferences": {},
  "deployedLinkReferences": {}
}