{
  "_format": "hh-sol-artifact-1",
  "contractName": "LiquidityMiningFactory",
  "sourceName": "contracts/defi/LiquidityMiningFactory.sol",
  "abi": [
    {
      "inputs": [
        {
          "internalType": "address",
          "name": "_liquidityMiningImpl",
          "type": "address"
        },
        {
          "internalType": "address",
          "name": "_rewardTokenImpl",
          "type": "address"
        }
      ],
      "stateMutability": "nonpayable",
      "type": "constructor"
    },
    {
      "anonymous": false,
      "inputs": [
        {
          "indexed": true,
          "internalType": "address",
          "name": "pool",
          "type": "address"
        },
        {
          "indexed": true,
          "internalType": "address",
          "name": "miningProgram",
          "type": "address"
        },
        {
          "indexed": true,
          "internalType": "address",
          "name": "rewardToken",
          "type": "address"
        },
        {
          "indexed": false,
          "internalType": "string",
          "name": "name",
          "type": "string"
        },
        {
          "indexed": false,
          "internalType": "string",
          "name": "symbol",
          "type": "string"
        }
      ],
      "name": "MiningProgramCreated",
      "type": "event"
    },
    {
      "anonymous": false,
      "inputs": [
        {
          "indexed": true,
          "internalType": "address",
          "name": "previousOwner",
          "type": "address"
        },
        {
          "indexed": true,
          "internalType": "address",
          "name": "newOwner",
          "type": "address"
        }
      ],
      "name": "OwnershipTransferred",
      "type": "event"
    },
    {
      "inputs": [
        {
          "internalType": "uint256",
          "name": "",
          "type": "uint256"
        }
      ],
      "name": "allMiningPrograms",
      "outputs": [
        {
          "internalType": "address",
          "name": "",
          "type": "address"
        }
      ],
      "stateMutability": "view",
      "type": "function"
    },
    {
      "inputs": [
        {
          "internalType": "address",
          "name": "_pool",
          "type": "address"
        },
        {
          "internalType": "string",
          "name": "_tokenName",
          "type": "string"
        },
        {
          "internalType": "string",
          "name": "_tokenSymbol",
          "type": "string"
        },
        {
          "internalType": "uint256",
          "name": "_rewardRate",
          "type": "uint256"
        },
        {
          "internalType": "uint256",
          "name": "_maxSupply",
          "type": "uint256"
        },
        {
          "internalType": "uint256",
          "name": "_initialSupply",
          "type": "uint256"
        }
      ],
      "name": "createMiningProgram",
      "outputs": [
        {
          "internalType": "address",
          "name": "miningProgram",
          "type": "address"
        },
        {
          "internalType": "address",
          "name": "rewardToken",
          "type": "address"
        }
      ],
      "stateMutability": "nonpayable",
      "type": "function"
    },
    {
      "inputs": [],
      "name": "getAllMiningPrograms",
      "outputs": [
        {
          "internalType": "address[]",
          "name": "",
          "type": "address[]"
        }
      ],
      "stateMutability": "view",
      "type": "function"
    },
    {
      "inputs": [],
      "name": "getMiningProgramCount",
      "outputs": [
        {
          "internalType": "uint256",
          "name": "",
          "type": "uint256"
        }
      ],
      "stateMutability": "view",
      "type": "function"
    },
    {
      "inputs": [],
      "name": "liquidityMiningImplementation",
      "outputs": [
        {
          "internalType": "address",
          "name": "",
          "type": "address"
        }
      ],
      "stateMutability": "view",
      "type": "function"
    },
    {
      "inputs": [
        {
          "internalType": "address",
          "name": "",
          "type": "address"
        }
      ],
      "name": "miningProgramToToken",
      "outputs": [
        {
          "internalType": "address",
          "name": "",
          "type": "address"
        }
      ],
      "stateMutability": "view",
      "type": "function"
    },
    {
      "inputs": [],
      "name": "owner",
      "outputs": [
        {
          "internalType": "address",
          "name": "",
          "type": "address"
        }
      ],
      "stateMutability": "view",
      "type": "function"
    },
    {
      "inputs": [
        {
          "internalType": "address",
          "name": "",
          "type": "address"
        }
      ],
      "name": "poolToMiningProgram",
      "outputs": [
        {
          "internalType": "address",
          "name": "",
          "type": "address"
        }
      ],
      "stateMutability": "view",
      "type": "function"
    },
    {
      "inputs": [],
      "name": "renounceOwnership",
      "outputs": [],
      "stateMutability": "nonpayable",
      "type": "function"
    },
    {
      "inputs": [],
      "name": "rewardTokenImplementation",
      "outputs": [
        {
          "internalType": "address",
          "name": "",
          "type": "address"
        }
      ],
      "stateMutability": "view",
      "type": "function"
    },
    {
      "inputs": [
        {
          "internalType": "address",
          "name": "newOwner",
          "type": "address"
        }
      ],
      "name": "transferOwnership",
      "outputs": [],
      "stateMutability": "nonpayable",
      "type": "function"
    }
  ],
  "bytecode": "0x60803461015b57601f610b4b38819003918201601f19168301916001600160401b0383118484101761016057808492604094855283398101031261015b57610052602061004b83610176565b9201610176565b60008054336001600160a01b0319808316821784556040519590946001600160a01b03949093859391908416907f8be0079c531659141344cd1fd0a4f28419497f9722a3daafe3b4186f6b6457e09080a3169384156101195750169182156100d45781600154161760015560025416176002556040516109c0908161018b8239f35b60405162461bcd60e51b815260206004820152601c60248201527f496e76616c696420746f6b656e20696d706c656d656e746174696f6e000000006044820152606490fd5b62461bcd60e51b815260206004820152601d60248201527f496e76616c6964206d696e696e6720696d706c656d656e746174696f6e0000006044820152606490fd5b600080fd5b634e487b7160e01b600052604160045260246000fd5b51906001600160a01b038216820361015b5756fe6080604081815260048036101561001557600080fd5b600092833560e01c908163100380e41461073757508063697c191f14610675578063715018a61461061b5780638da5cb5b146105f35780639646f007146105ca578063a1854c9b146105a1578063a9a4204814610566578063e5180cb214610526578063eea07b7f146101aa578063f259a0301461016b5763f2fde38b1461009c57600080fd5b34610167576020366003190112610167576100b5610753565b906100be61089e565b6001600160a01b03918216928315610115575050600054826bffffffffffffffffffffffff60a01b821617600055167f8be0079c531659141344cd1fd0a4f28419497f9722a3daafe3b4186f6b6457e0600080a380f35b906020608492519162461bcd60e51b8352820152602660248201527f4f776e61626c653a206e6577206f776e657220697320746865207a65726f206160448201526564647265737360d01b6064820152fd5b8280fd5b5050346101a65760203660031901126101a6576020916001600160a01b0390829082610195610753565b168152600585522054169051908152f35b5080fd5b508234610523576003199060c036830112610523576101c7610753565b6024939067ffffffffffffffff90853582811161051f576101eb9036908501610807565b9160443590811161051f576102039036908501610807565b9061020c61089e565b60018060a01b038091169384865260209560038752828a822054166104ce578261023981600254166108f6565b1697883b156101a6578a51636fe0e39560e01b81526080848201529082908290819061027c908e61026d608485018d61085e565b9184830301908401528961085e565b608435604483015260a43560648301520381838d5af180156104c4576104b5575b5090826102ad81600154166108f6565b1698893b15610167578a5163189acdbd60e31b81528281018a905283818381838f5af18015610461579084916104a1575b5050883b15610167578a5163f2fde38b60e01b8082528382018c90529084818481838f5af180156104835790859161048d575b50508a3b1561046b5783808c60448f8c90519485938492631954e55d60e11b84528a840152606435898401525af180156104835790859161046f575b50508a3b1561046b578b51908152338382015283818381838f5af180156104615790849161044d575b50879052600388528a83206bffffffffffffffffffffffff60a01b908b828254161790558a845260058952898c8520918254161790558154926801000000000000000084101561043d575050936104308896947f65c57654ce499c09965d6a8c4d5e99db2203e547baefec08679974382e9775f7946103ff858d9960016104239801905561076e565b819291549060031b918a831b921b19161790558b519384938d85528d85019061085e565b908382038a85015261085e565b0390a48351928352820152f35b634e487b7160e01b815260418352fd5b610456906107bb565b61016757828c610376565b8c513d86823e3d90fd5b8380fd5b610478906107bb565b61046b57838d61034d565b8d513d87823e3d90fd5b610496906107bb565b61046b57838d610311565b6104aa906107bb565b61016757828c6102de565b6104be906107bb565b8a61029d565b8b513d84823e3d90fd5b895162461bcd60e51b81528083018890526026818b01527f4d696e696e672070726f6772616d20616c72656164792065786973747320666f6044820152651c881c1bdbdb60d21b6064820152608490fd5b8480fd5b80fd5b5091346105235760203660031901126105235782359254831015610523575061055060209261076e565b905491519160018060a01b039160031b1c168152f35b5050346101a65760203660031901126101a6576020916001600160a01b0390829082610590610753565b168152600385522054169051908152f35b5050346101a657816003193601126101a65760025490516001600160a01b039091168152602090f35b5050346101a657816003193601126101a65760015490516001600160a01b039091168152602090f35b5050346101a657816003193601126101a657905490516001600160a01b039091168152602090f35b833461052357806003193601126105235761063461089e565b80546001600160a01b03198116825581906001600160a01b03167f8be0079c531659141344cd1fd0a4f28419497f9722a3daafe3b4186f6b6457e08280a380f35b5082346105235780600319360112610523579190815192838254808652602080960190819484527f8a35acfbc15ff81a39ae7d344fd709f28e8600b4aa8c65c6b64bfe7fe36bd19b90845b81811061071a57505050816106d69103826107e5565b83519485948186019282875251809352850193925b8281106106fa57505050500390f35b83516001600160a01b0316855286955093810193928101926001016106eb565b82546001600160a01b0316845292880192600192830192016106c0565b9250503461016757826003193601126101675760209250548152f35b600435906001600160a01b038216820361076957565b600080fd5b6004548110156107a55760046000527f8a35acfbc15ff81a39ae7d344fd709f28e8600b4aa8c65c6b64bfe7fe36bd19b0190600090565b634e487b7160e01b600052603260045260246000fd5b67ffffffffffffffff81116107cf57604052565b634e487b7160e01b600052604160045260246000fd5b90601f8019910116810190811067ffffffffffffffff8211176107cf57604052565b81601f820112156107695780359067ffffffffffffffff82116107cf576040519261083c601f8401601f1916602001856107e5565b8284526020838301011161076957816000926020809301838601378301015290565b919082519283825260005b84811061088a575050826000602080949584010152601f8019910116010190565b602081830181015184830182015201610869565b6000546001600160a01b031633036108b257565b606460405162461bcd60e51b815260206004820152602060248201527f4f776e61626c653a2063616c6c6572206973206e6f7420746865206f776e65726044820152fd5b6e5af43d82803e903d91602b57fd5bf390763d602d80600a3d3981f3363d3d373d3d3d363d7300000062ffffff8260881c161760005260781b17602052603760096000f0906001600160a01b0382161561094c57565b60405162461bcd60e51b8152602060048201526016602482015275115490cc4c4d8dce8818dc99585d194819985a5b195960521b6044820152606490fdfea264697066735822122006e0153c91166cf1e26c17cbd3a0653e206a5d4b16c8074be5355917940aaae364736f6c63430008160033",
  "linkReferences": {},
  "deployedLinkReferences": {}
}