{
  "_format": "hh-sol-artifact-1",
  "contractName": "DirectListingFactory",
  "sourceName": "src/contracts/DirectListingFactory.sol",
  "abi": [
    {
      "inputs": [
        {
          "internalType": "address",
          "name": "_router",
          "type": "address"
        },
        {
          "internalType": "uint256",
          "name": "_listingFee",
          "type": "uint256"
        }
      ],
      "stateMutability": "nonpayable",
      "type": "constructor"
    },
    {
      "anonymous": false,
      "inputs": [
        {
          "indexed": true,
          "internalType": "address",
          "name": "previousOwner",
          "type": "address"
        },
        {
          "indexed": true,
          "internalType": "address",
          "name": "newOwner",
          "type": "address"
        }
      ],
      "name": "OwnershipTransferred",
      "type": "event"
    },
    {
      "anonymous": false,
      "inputs": [
        {
          "indexed": true,
          "internalType": "address",
          "name": "token",
          "type": "address"
        },
        {
          "indexed": true,
          "internalType": "address",
          "name": "owner",
          "type": "address"
        },
        {
          "indexed": false,
          "internalType": "uint256",
          "name": "initialLiquidity",
          "type": "uint256"
        },
        {
          "indexed": false,
          "internalType": "uint256",
          "name": "listingPrice",
          "type": "uint256"
        },
        {
          "indexed": false,
          "internalType": "uint256",
          "name": "tradingStartTime",
          "type": "uint256"
        }
      ],
      "name": "TokenListed",
      "type": "event"
    },
    {
      "inputs": [
        {
          "components": [
            {
              "internalType": "string",
              "name": "name",
              "type": "string"
            },
            {
              "internalType": "string",
              "name": "symbol",
              "type": "string"
            },
            {
              "internalType": "uint256",
              "name": "totalSupply",
              "type": "uint256"
            },
            {
              "internalType": "uint256",
              "name": "initialLiquidityInETH",
              "type": "uint256"
            },
            {
              "internalType": "uint256",
              "name": "listingPriceInETH",
              "type": "uint256"
            },
            {
              "internalType": "uint256",
              "name": "maxTxAmount",
              "type": "uint256"
            },
            {
              "internalType": "uint256",
              "name": "maxWalletAmount",
              "type": "uint256"
            },
            {
              "internalType": "bool",
              "name": "enableTrading",
              "type": "bool"
            },
            {
              "internalType": "uint256",
              "name": "tradingStartTime",
              "type": "uint256"
            }
          ],
          "internalType": "struct DirectListingFactory.ListingParams",
          "name": "params",
          "type": "tuple"
        }
      ],
      "name": "createAndListToken",
      "outputs": [],
      "stateMutability": "payable",
      "type": "function"
    },
    {
      "inputs": [],
      "name": "dexRouter",
      "outputs": [
        {
          "internalType": "contract IUniswapV2Router02",
          "name": "",
          "type": "address"
        }
      ],
      "stateMutability": "view",
      "type": "function"
    },
    {
      "inputs": [],
      "name": "getListingFee",
      "outputs": [
        {
          "internalType": "uint256",
          "name": "",
          "type": "uint256"
        }
      ],
      "stateMutability": "view",
      "type": "function"
    },
    {
      "inputs": [
        {
          "internalType": "address",
          "name": "token",
          "type": "address"
        }
      ],
      "name": "isListed",
      "outputs": [
        {
          "internalType": "bool",
          "name": "",
          "type": "bool"
        }
      ],
      "stateMutability": "view",
      "type": "function"
    },
    {
      "inputs": [
        {
          "internalType": "address",
          "name": "",
          "type": "address"
        }
      ],
      "name": "listedTokens",
      "outputs": [
        {
          "internalType": "bool",
          "name": "",
          "type": "bool"
        }
      ],
      "stateMutability": "view",
      "type": "function"
    },
    {
      "inputs": [],
      "name": "listingFee",
      "outputs": [
        {
          "internalType": "uint256",
          "name": "",
          "type": "uint256"
        }
      ],
      "stateMutability": "view",
      "type": "function"
    },
    {
      "inputs": [],
      "name": "owner",
      "outputs": [
        {
          "internalType": "address",
          "name": "",
          "type": "address"
        }
      ],
      "stateMutability": "view",
      "type": "function"
    },
    {
      "inputs": [],
      "name": "renounceOwnership",
      "outputs": [],
      "stateMutability": "nonpayable",
      "type": "function"
    },
    {
      "inputs": [
        {
          "internalType": "uint256",
          "name": "_newFee",
          "type": "uint256"
        }
      ],
      "name": "setListingFee",
      "outputs": [],
      "stateMutability": "nonpayable",
      "type": "function"
    },
    {
      "inputs": [
        {
          "internalType": "address",
          "name": "newOwner",
          "type": "address"
        }
      ],
      "name": "transferOwnership",
      "outputs": [],
      "stateMutability": "nonpayable",
      "type": "function"
    },
    {
      "inputs": [],
      "name": "withdrawFees",
      "outputs": [],
      "stateMutability": "nonpayable",
      "type": "function"
    }
  ],
  "bytecode": "0x60a0346100bc57601f6132b338819003918201601f19168301916001600160401b038311848410176100c15780849260409485528339810103126100bc5780516001600160a01b0391828216918290036100bc5760200151906000543360018060a01b0319821617600055604051933391167f8be0079c531659141344cd1fd0a4f28419497f9722a3daafe3b4186f6b6457e0600080a3600180556080526003556131db90816100d8823960805181818161032e01526108610152f35b600080fd5b634e487b7160e01b600052604160045260246000fdfe6080604081815260048036101561001557600080fd5b600092833560e01c9081630758d9241461084d57508063131dbd091461082b578063476343ee146107dc5780636a1b7ecc146101b15780637093f47f1461079e578063715018a6146107415780638da5cb5b146107195780639b1e585c146101d4578063b8fe6abe146101b1578063f2fde38b146100dd5763f794062e1461009c57600080fd5b346100d95760203660031901126100d957356001600160a01b038116908190036100d957818360ff92602095526002855220541690519015158152f35b8280fd5b5090346100d95760203660031901126100d9576001600160a01b038235818116939192908490036101ad57610110610935565b831561015b575050600054826bffffffffffffffffffffffff60a01b821617600055167f8be0079c531659141344cd1fd0a4f28419497f9722a3daafe3b4186f6b6457e0600080a380f35b906020608492519162461bcd60e51b8352820152602660248201527f4f776e61626c653a206e6577206f776e657220697320746865207a65726f206160448201526564647265737360d01b6064820152fd5b8480fd5b5050346101d057816003193601126101d0576020906003549051908152f35b5080fd5b506020906003199082823601126101ad5780359367ffffffffffffffff9384861161071557858301956101208582360301126104835760019660028854146106d2576002885560648201359660035488018089116106bf57341061068957845190612818808301918211838310176106765790829161098e833903908af0801561066c576001600160a01b03908116968a61026f8480610890565b91909261028160249687890190610890565b6044890135958d3b156101ad578f919360e0948e946102bc8f946102ca95519a8b998a996306b51ae560e51b8b528a015260e4890191610914565b92868403018c870152610914565b908660448401528660648401523360848401528060a484015260c48301520381838d5af180156105b157610659575b508a60a485013580610618575b5060c4850135806105cd575b50506014810290808204601414901517156105bb5760649004907f0000000000000000000000000000000000000000000000000000000000000000166044858c88519283809263095ea7b360e01b8252868d83015287898301528d5af180156105b157610576575b5061012c4201804211610564578860c4898c8f9796956060958c51978896879563f305d71960e01b87528601528985015289604485015289606485015230608485015260a48401525af1801561052f57610539575b5060e48301358015908115036100d9576104e5575b6101048301359586610491575b873b156100d9578290865192839163f2fde38b60e01b8352339083015281838b5af180156104875761046f575b50908560849252600283528389208860ff1982541617905583519687520135908501528301527f7d5e9f7d0176f6d89418aff63d46085abc93fe2052915f849d66d8f7d168bb3c60603393a3805580f35b610478906108c8565b61048357873861041e565b8780fd5b85513d84823e3d90fd5b873b156100d95785516313be407760e21b815281810188905283818481838d5af180156104db579084916104c7575b50506103f1565b6104d0906108c8565b6100d95782386104c0565b87513d86823e3d90fd5b863b156101d05784516330b97b0160e21b815286810183905282818381838c5af1801561052f5790839161051b575b50506103e4565b610524906108c8565b6101d0578138610514565b86513d85823e3d90fd5b606090813d831161055d575b61054f81836108f2565b810103126101d057386103cf565b503d610545565b634e487b7160e01b8c5260118852838cfd5b8581813d83116105aa575b61058b81836108f2565b810103126105a65751801515036105a2573861037a565b8a80fd5b8b80fd5b503d610581565b87513d8e823e3d90fd5b634e487b7160e01b8b5260118752828bfd5b893b156101d05787516313d0a7e160e11b8152808a019190915281818681838e5af1801561060e571561031257610603906108c8565b6105a2578a38610312565b88513d84823e3d90fd5b893b156101d057875163761421c560e11b8152808a019190915281818681838e5af1801561060e57156103065761064e906108c8565b6105a2578a38610306565b610665909b919b6108c8565b99386102f9565b84513d8b823e3d90fd5b634e487b7160e01b8c526041885260248cfd5b845162461bcd60e51b8152808701859052601060248201526f092dce6eaccccd2c6d2cadce8408aa8960831b6044820152606490fd5b634e487b7160e01b8b526011875260248bfd5b835162461bcd60e51b8152808601849052601f60248201527f5265656e7472616e637947756172643a207265656e7472616e742063616c6c006044820152606490fd5b8680fd5b5050346101d057816003193601126101d057905490516001600160a01b039091168152602090f35b833461079b578060031936011261079b5761075a610935565b80546001600160a01b03198116825581906001600160a01b03167f8be0079c531659141344cd1fd0a4f28419497f9722a3daafe3b4186f6b6457e08280a380f35b80fd5b50346100d95760203660031901126100d957356001600160a01b038116908190036100d957818360ff92602095526002855220541690519015158152f35b5050346101d057816003193601126101d0576107f6610935565b8180808060018060a01b038154164790828215610822575bf115610818575080f35b51903d90823e3d90fd5b506108fc61080e565b8382346101d05760203660031901126101d057610846610935565b3560035580f35b8490346101d057816003193601126101d0577f00000000000000000000000000000000000000000000000000000000000000006001600160a01b03168152602090f35b903590601e19813603018212156108c3570180359067ffffffffffffffff82116108c3576020019181360383136108c357565b600080fd5b67ffffffffffffffff81116108dc57604052565b634e487b7160e01b600052604160045260246000fd5b90601f8019910116810190811067ffffffffffffffff8211176108dc57604052565b908060209392818452848401376000828201840152601f01601f1916010190565b6000546001600160a01b0316330361094957565b606460405162461bcd60e51b815260206004820152602060248201527f4f776e61626c653a2063616c6c6572206973206e6f7420746865206f776e65726044820152fdfe60a080604052346100dc57306080526000549060ff8260081c1661008a575060ff8082160361004f575b60405161273690816100e28239608051818181610f820152818161108101526115b60152f35b60ff90811916176000557f7f26b83ff96e1f2b6a682f133852f6798a09c465da95921460cefb3847402498602060405160ff8152a138610029565b62461bcd60e51b815260206004820152602760248201527f496e697469616c697a61626c653a20636f6e747261637420697320696e697469604482015266616c697a696e6760c81b6064820152608490fd5b600080fdfe608060405260048036101561001357600080fd5b60003560e01c90816303d29d2814611a4657816306fdde03146119b0578163095ea7b31461198a57816318160ddd1461196c57816323b872dd146118ac57816327a14fc214611855578163313ce567146118395781633659cfe61461158d578163395093511461153c5781633f4ba83a146114a757816340c10f191461142a5781634a492d53146113a65781634ada218b1461137f5781634ef901dc146112f15781634f1ef2861461103257816352d1902d14610f6f5781635c975abb14610f4c57816370a0823114610f1257816370b7b80c14610ef3578163715018a614610e965781637572a9db14610e175781638456cb5914610d845781638c0b5e2214610d655781638da5cb5b14610d3c57816395d89b4114610c7b5781639e4e731814610c2c578163a457c2d714610b87578163a9059cbb14610b56578163aa31aee814610b1b578163aa4bde2814610afc578163bffb691d14610ad8578163c2e5ec0414610a71578163cba4cbd314610a4a578163d5abeb0114610a2b578163d6a35ca0146104aa578163dd62ed3e14610459578163ebba56441461034e578163ec28438a146102f7578163f2fde38b1461026857508063fe575a87146102135763ffa1ad74146101e257600080fd5b3461020e57600036600319011261020e5761020a6101fe611c48565b60405191829182611b75565b0390f35b600080fd5b3461020e57602036600319011261020e5761022c611b17565b60ff610162541680610246575b6020906040519015158152f35b5060018060a01b0316600052610160602052602060ff60406000205416610239565b3461020e57602036600319011261020e57610281611b17565b9061028a611df4565b6001600160a01b038216156102a4576102a2826121d2565b005b60849060206040519162461bcd60e51b8352820152602660248201527f4f776e61626c653a206e6577206f776e657220697320746865207a65726f206160448201526564647265737360d01b6064820152fd5b3461020e57602036600319011261020e5760207fd6a912222a539eff01eb7e23cd954e57c4ae962622948839fefbc46b0ffe914a9135610335611df4565b610340811515611cd2565b8061016455604051908152a1005b3461020e57604036600319011261020e57610367611b17565b60243591610373611df4565b60ff6101625460081c161561041557428311156103d1575060207fa9353e70f07f31e7f4e16464f45e189cbd22826780a5abe4da8303652a86960a9160018060a01b03169283600052610161825280604060002055604051908152a2005b60649060206040519162461bcd60e51b8352820152601b60248201527f4c6f636b2074696d65206d75737420626520696e2066757475726500000000006044820152fd5b60649060206040519162461bcd60e51b8352820152601d60248201527f54696d65206c6f636b2066656174757265206e6f7420656e61626c65640000006044820152fd5b3461020e57604036600319011261020e57610472611b17565b61047a611b2d565b9060018060a01b038091166000526034602052604060002091166000526020526020604060002054604051908152f35b3461020e5760e036600319011261020e57803567ffffffffffffffff811161020e576104d99036908301611c7a565b9060243567ffffffffffffffff811161020e576104f99036908301611c7a565b906084356001600160a01b038116900361020e5760a43590811515820361020e5760c43592831515840361020e576000549460ff8660081c161595868097610a1e575b8015610a07575b156109ac5760ff1981166001176000558661099a575b5061057460ff60005460081c1661056f8161221b565b61221b565b80519067ffffffffffffffff8211610985578190610593603654611c98565b601f8111610911575b50602090601f83116001146108995760009261088e575b50508160011b916000199060031b1c1916176036555b80519067ffffffffffffffff82116108795781906105e8603754611c98565b601f8111610805575b50602090601f831160011461078d57600092610782575b50508160011b916000199060031b1c1916176037555b61064f60ff60005460081c166106338161221b565b61063c8161221b565b60ff196065541660655561056f8161221b565b610658336121d2565b61066960ff60005460081c1661221b565b6084356001600160a01b0316610772575b6064351590818015610764575b1561070e575015610706576000195b61015f556101629160ff61ff00845492151560081b16921515169061ffff1916171790556106c86044356084356120cc565b6106ce57005b61ff0019600054166000557f7f26b83ff96e1f2b6a682f133852f6798a09c465da95921460cefb3847402498602060405160018152a1005b606435610696565b60849060206040519162461bcd60e51b8352820152602960248201527f4d617820737570706c79206d7573742062652030206f72203e3d20696e697469604482015268616c20737570706c7960b81b6064820152fd5b506044356064351015610687565b61077d6084356121d2565b61067a565b015190508680610608565b925060376000526000805160206126e1833981519152906000935b601f19841685106107ea576001945083601f198116106107d1575b505050811b0160375561061e565b015160001960f88460031b161c191690558680806107c3565b818101518355602094850194600190930192909101906107a8565b9091506037600052601f830160051c6000805160206126e18339815191520160208410610864575b908392915b601f820160051c6000805160206126e183398151915201811061085557506105f1565b60008155849350600101610832565b506000805160206126e183398151915261082d565b604183634e487b7160e01b6000525260246000fd5b0151905087806105b3565b925060366000526000805160206126a1833981519152906000935b601f19841685106108f6576001945083601f198116106108dd575b505050811b016036556105c9565b015160001960f88460031b161c191690558780806108cf565b818101518355602094850194600190930192909101906108b4565b9091506036600052601f830160051c6000805160206126a18339815191520160208410610970575b908392915b601f820160051c6000805160206126a1833981519152018110610961575061059c565b6000815584935060010161093e565b506000805160206126a1833981519152610939565b604184634e487b7160e01b6000525260246000fd5b61ffff19166101011760005586610559565b60405162461bcd60e51b8152602081860152602e60248201527f496e697469616c697a61626c653a20636f6e747261637420697320616c72656160448201526d191e481a5b9a5d1a585b1a5e995960921b6064820152608490fd5b50303b1580156105435750600160ff821614610543565b50600160ff82161061053c565b3461020e57600036600319011261020e57602061015f54604051908152f35b3461020e57600036600319011261020e57602060ff6101625460081c166040519015158152f35b3461020e57602036600319011261020e577fbeda7dca7bc1b3e80b871f4818129ec73b771581f803d553aeb3484098e5f65a6020610aad611b43565b610ab5611df4565b1515610162805462ff00008360101b169062ff00001916179055604051908152a1005b3461020e57600036600319011261020e57602060ff61016254166040519015158152f35b3461020e57600036600319011261020e57602061016554604051908152f35b3461020e57602036600319011261020e576001600160a01b03610b3c611b17565b166000526101616020526020604060002054604051908152f35b3461020e57604036600319011261020e57610b7c610b72611b17565b6024359033611f4e565b602060405160018152f35b3461020e57604036600319011261020e57610ba0611b17565b602435336000526034602052604060002060018060a01b038316600052602052604060002054818110610bda57610b7c9350039033611e4c565b60405162461bcd60e51b8152602081860152602560248201527f45524332303a2064656372656173656420616c6c6f77616e63652062656c6f77604482015264207a65726f60d81b6064820152608490fd5b3461020e57600036600319011261020e576020610c47611c48565b604051610c70838281610c638183019687815193849201611b52565b8101038084520182611bd3565b519020604051908152f35b3461020e57600036600319011261020e576040516000603754610c9d81611c98565b80845290602090600190818116908115610d125750600114610cca575b61020a856101fe81870382611bd3565b6037600090815293506000805160206126e18339815191525b838510610cff575050505081016020016101fe8261020a610cba565b8054868601840152938201938101610ce3565b86955061020a969350602092506101fe94915060ff191682840152151560051b8201019293610cba565b3461020e57600036600319011261020e5760c9546040516001600160a01b039091168152602090f35b3461020e57600036600319011261020e57602061016454604051908152f35b3461020e57600036600319011261020e57610d9d611df4565b6065549060ff8216610de05760018260ff1916176065557f62e78cea01bee320cd4e420270b5ea74000d11b0c9f74754ebdbfc544b05a2586020604051338152a1005b60649060206040519162461bcd60e51b8352820152601060248201526f14185d5cd8589b194e881c185d5cd95960821b6044820152fd5b3461020e57602036600319011261020e577f43a0148be74197659be43bacdac4e492c6e55291225e29fd4f098868ff304fc16080610e53611b43565b610e5b611df4565b151561016260ff1981541660ff831617905560405190604082526009604083015268189b1858dadb1a5cdd60ba1b60608301526020820152a1005b3461020e57600036600319011261020e57610eaf611df4565b60c980546001600160a01b031981169091556000906001600160a01b03167f8be0079c531659141344cd1fd0a4f28419497f9722a3daafe3b4186f6b6457e08280a3005b3461020e57600036600319011261020e57602061016354604051908152f35b3461020e57602036600319011261020e576001600160a01b03610f33611b17565b1660005260336020526020604060002054604051908152f35b3461020e57600036600319011261020e57602060ff606554166040519015158152f35b3461020e57600036600319011261020e577f00000000000000000000000000000000000000000000000000000000000000006001600160a01b03163003610fc85760206040516000805160206126c18339815191528152f35b60849060206040519162461bcd60e51b8352820152603860248201527f555550535570677261646561626c653a206d757374206e6f742062652063616c60448201527f6c6564207468726f7567682064656c656761746563616c6c00000000000000006064820152fd5b604036600319011261020e57611046611b17565b9060243567ffffffffffffffff811161020e573660238201121561020e576110779036906024818501359101611c11565b6001600160a01b037f0000000000000000000000000000000000000000000000000000000000000000811691906110b030841415611d0f565b6110cd6000805160206126c1833981519152938285541614611d70565b6110d5611df4565b7f4910fdfa16fed3260ed0e7147f7cc6da11a60208b5b9406d12a635614ffd91435460ff161561110c57505050506102a29061257b565b8416604051926352d1902d60e01b845260209384818781865afa600091816112c2575b5061118f5760405162461bcd60e51b8152808701869052602e60248201527f45524331393637557067726164653a206e657720696d706c656d656e7461746960448201526d6f6e206973206e6f74205555505360901b6064820152608490fd5b949192940361126c57506111a28461257b565b7fbc7cd75a20ee27fd9adebab32041f755214dbc6bffa90cc0225b39da2e5c2d3b600080a2815115801590611264575b6111d857005b6102a292600080604051946111ec86611ba1565b602786527f416464726573733a206c6f772d6c6576656c2064656c65676174652063616c6c85870152660819985a5b195960ca1b60408701528481519101845af4903d1561125b573d61123e81611bf5565b9061124c6040519283611bd3565b8152600081943d92013e61260b565b6060925061260b565b5060016111d2565b60405162461bcd60e51b8152908101839052602960248201527f45524331393637557067726164653a20756e737570706f727465642070726f786044820152681a58589b195555525160ba1b6064820152608490fd5b9091508581813d83116112ea575b6112da8183611bd3565b8101031261020e5751908861112f565b503d6112d0565b3461020e57602036600319011261020e5780359061130d611df4565b42821115611347577fe49a4b405039474898d31c89de6941be5a232cf8ebb6e2de9750fcad419fd45a6020838061016355604051908152a1005b60649060206040519162461bcd60e51b835282015260116024820152700496e76616c69642074696d657374616d7607c1b6044820152fd5b3461020e57600036600319011261020e57602060ff6101625460101c166040519015158152f35b3461020e57602036600319011261020e577f43a0148be74197659be43bacdac4e492c6e55291225e29fd4f098868ff304fc160806113e2611b43565b6113ea611df4565b1515610162805461ff008360081b169061ff0019161790556040519060408252600860408301526774696d656c6f636b60c01b60608301526020820152a1005b3461020e57604036600319011261020e57611443611b17565b6024359061144f611df4565b61145b82603554611dd1565b61015f541061146e576102a292506120cc565b60405162461bcd60e51b8152602081850152601260248201527145786365656473206d617820737570706c7960701b6044820152606490fd5b3461020e57600036600319011261020e576114c0611df4565b6065549060ff821615611501575060ff19166065557f5db9ee0a495bf2e6ff9c91a7834c1ba4fdd244a5e8aa4e537bd38aeae4b073aa6020604051338152a1005b60649060206040519162461bcd60e51b8352820152601460248201527314185d5cd8589b194e881b9bdd081c185d5cd95960621b6044820152fd5b3461020e57604036600319011261020e57610b7c611558611b17565b336000526034602052604060002060018060a01b038216600052602052611586602435604060002054611dd1565b9033611e4c565b3461020e576020908160031936011261020e576115a8611b17565b6001600160a01b03929091907f000000000000000000000000000000000000000000000000000000000000000084166115e330821415611d0f565b6116006000805160206126c1833981519152918683541614611d70565b611608611df4565b604051908282019582871067ffffffffffffffff88111761182457866040526000835260ff7f4910fdfa16fed3260ed0e7147f7cc6da11a60208b5b9406d12a635614ffd914354166000146116665750505050506102a2915061257b565b859293949516906040516352d1902d60e01b815285818881865afa600091816117f5575b506116ea5760405162461bcd60e51b8152808801879052602e60248201527f45524331393637557067726164653a206e657720696d706c656d656e7461746960448201526d6f6e206973206e6f74205555505360901b6064820152608490fd5b95919293950361179f57506116fe8261257b565b7fbc7cd75a20ee27fd9adebab32041f755214dbc6bffa90cc0225b39da2e5c2d3b600080a2825115801590611797575b61173457005b6000806102a2956040519561174887611ba1565b602787527f416464726573733a206c6f772d6c6576656c2064656c65676174652063616c6c86880152660819985a5b195960ca1b60408801525190845af4903d1561125b573d61123e81611bf5565b50600061172e565b60405162461bcd60e51b8152908101849052602960248201527f45524331393637557067726164653a20756e737570706f727465642070726f786044820152681a58589b195555525160ba1b6064820152608490fd5b9091508681813d831161181d575b61180d8183611bd3565b8101031261020e5751908961168a565b503d611803565b604185634e487b7160e01b6000525260246000fd5b3461020e57600036600319011261020e57602060405160128152f35b3461020e57602036600319011261020e5760207ff48b2351b7ae1d135f49a7c2c7529e514a0b74ac8d1e79f010767fb6212a212c9135611893611df4565b61189e811515611cd2565b8061016555604051908152a1005b3461020e57606036600319011261020e576118c5611b17565b6118cd611b2d565b6044359160018060a01b038116600052603460205260406000203360005260205260406000205493600019850361190a575b50610b7c9350611f4e565b838510611928575061192283610b7c95033383611e4c565b846118ff565b60649060206040519162461bcd60e51b8352820152601d60248201527f45524332303a20696e73756666696369656e7420616c6c6f77616e63650000006044820152fd5b3461020e57600036600319011261020e576020603554604051908152f35b3461020e57604036600319011261020e57610b7c6119a6611b17565b6024359033611e4c565b3461020e57600036600319011261020e5760405160006036546119d281611c98565b80845290602090600190818116908115610d1257506001146119fe5761020a856101fe81870382611bd3565b6036600090815293506000805160206126a18339815191525b838510611a33575050505081016020016101fe8261020a610cba565b8054868601840152938201938101611a17565b3461020e57604036600319011261020e57611a5f611b17565b6024359182151580930361020e57611a75611df4565b60ff610162541615611ad3575060207f6a12b3df6cba4203bd7fd06b816789f87de8c594299aed5717ae070fac781bac9160018060a01b031692836000526101608252604060002060ff1981541660ff8316179055604051908152a2005b60649060206040519162461bcd60e51b8352820152601d60248201527f426c61636b6c6973742066656174757265206e6f7420656e61626c65640000006044820152fd5b600435906001600160a01b038216820361020e57565b602435906001600160a01b038216820361020e57565b60043590811515820361020e57565b60005b838110611b655750506000910152565b8181015183820152602001611b55565b60409160208252611b958151809281602086015260208686019101611b52565b601f01601f1916010190565b6060810190811067ffffffffffffffff821117611bbd57604052565b634e487b7160e01b600052604160045260246000fd5b90601f8019910116810190811067ffffffffffffffff821117611bbd57604052565b67ffffffffffffffff8111611bbd57601f01601f191660200190565b929192611c1d82611bf5565b91611c2b6040519384611bd3565b82948184528183011161020e578281602093846000960137010152565b604051906040820182811067ffffffffffffffff821117611bbd5760405260058252640312e302e360dc1b6020830152565b9080601f8301121561020e57816020611c9593359101611c11565b90565b90600182811c92168015611cc8575b6020831014611cb257565b634e487b7160e01b600052602260045260246000fd5b91607f1691611ca7565b15611cd957565b60405162461bcd60e51b815260206004820152600e60248201526d125b9d985b1a5908185b5bdd5b9d60921b6044820152606490fd5b15611d1657565b60405162461bcd60e51b815260206004820152602c60248201527f46756e6374696f6e206d7573742062652063616c6c6564207468726f7567682060448201526b19195b1959d85d1958d85b1b60a21b6064820152608490fd5b15611d7757565b60405162461bcd60e51b815260206004820152602c60248201527f46756e6374696f6e206d7573742062652063616c6c6564207468726f7567682060448201526b6163746976652070726f787960a01b6064820152608490fd5b91908201809211611dde57565b634e487b7160e01b600052601160045260246000fd5b60c9546001600160a01b03163303611e0857565b606460405162461bcd60e51b815260206004820152602060248201527f4f776e61626c653a2063616c6c6572206973206e6f7420746865206f776e65726044820152fd5b6001600160a01b03908116918215611efd5716918215611ead5760207f8c5be1e5ebec7d5bd14f71427d1e84f3dd0314c0f7b2291e5b200ac8c7c3b925918360005260348252604060002085600052825280604060002055604051908152a3565b60405162461bcd60e51b815260206004820152602260248201527f45524332303a20617070726f766520746f20746865207a65726f206164647265604482015261737360f01b6064820152608490fd5b60405162461bcd60e51b8152602060048201526024808201527f45524332303a20617070726f76652066726f6d20746865207a65726f206164646044820152637265737360e01b6064820152608490fd5b916001600160a01b038084169290831561207957811693841561202857611f7691839161227b565b60008281526033602052604081205491808310611fd457604082827fddf252ad1be2c89b69c2b068fc378daa952ba7f163c4a11628f55a4df523b3ef95876020965260338652038282205586815220818154019055604051908152a3565b60405162461bcd60e51b815260206004820152602660248201527f45524332303a207472616e7366657220616d6f756e7420657863656564732062604482015265616c616e636560d01b6064820152608490fd5b60405162461bcd60e51b815260206004820152602360248201527f45524332303a207472616e7366657220746f20746865207a65726f206164647260448201526265737360e81b6064820152608490fd5b60405162461bcd60e51b815260206004820152602560248201527f45524332303a207472616e736665722066726f6d20746865207a65726f206164604482015264647265737360d81b6064820152608490fd5b6001600160a01b031690811561218d5760ff60655416612135577fddf252ad1be2c89b69c2b068fc378daa952ba7f163c4a11628f55a4df523b3ef602082612118600094603554611dd1565b6035558484526033825260408420818154019055604051908152a3565b60405162461bcd60e51b815260206004820152602a60248201527f45524332305061757361626c653a20746f6b656e207472616e736665722077686044820152691a5b19481c185d5cd95960b21b6064820152608490fd5b60405162461bcd60e51b815260206004820152601f60248201527f45524332303a206d696e7420746f20746865207a65726f2061646472657373006044820152606490fd5b60c980546001600160a01b039283166001600160a01b0319821681179092559091167f8be0079c531659141344cd1fd0a4f28419497f9722a3daafe3b4186f6b6457e0600080a3565b1561222257565b60405162461bcd60e51b815260206004820152602b60248201527f496e697469616c697a61626c653a20636f6e7472616374206973206e6f74206960448201526a6e697469616c697a696e6760a81b6064820152608490fd5b909160ff8060655416612135576001600160a01b039283169182158015612571575b61256a576101625490828260101c16801561255d575b801561254e575b156125135761016354806124cc575b506101645480612483575b50610165549081151580612478575b61240d575b50508181166123a0575b60081c166122ff57505050565b600052610161918260205260406000205442106123675716600052602052604060002054421061232b57565b60405162461bcd60e51b8152602060048201526014602482015273149958da5c1a595b9d081d1a5b595b1bd8dad95960621b6044820152606490fd5b60405162461bcd60e51b815260206004820152601160248201527014d95b99195c881d1a5b595b1bd8dad959607a1b6044820152606490fd5b82600052610160602052816040600020541615806123f8575b6122f25760405162461bcd60e51b81526020600482015260136024820152721059191c995cdcc8189b1858dadb1a5cdd1959606a1b6044820152606490fd5b508385166000528160406000205416156123b9565b612427908688166000526033602052604060002054611dd1565b116124335738806122e8565b60405162461bcd60e51b815260206004820152601960248201527f45786365656473206d61782077616c6c657420616d6f756e74000000000000006044820152606490fd5b5085871615156122e3565b811161248f57386122d4565b60405162461bcd60e51b8152602060048201526015602482015274115e18d959591cc81b585e081d1e08185b5bdd5b9d605a1b6044820152606490fd5b42106124d857386122c9565b60405162461bcd60e51b8152602060048201526013602482015272151c98591a5b99c81b9bdd081cdd185c9d1959606a1b6044820152606490fd5b60405162461bcd60e51b8152602060048201526013602482015272151c98591a5b99c81b9bdd08195b98589b1959606a1b6044820152606490fd5b508460c95416858716146122ba565b508460c9541684146122b3565b5050505050565b508385161561229d565b803b156125b0576000805160206126c183398151915280546001600160a01b0319166001600160a01b03909216919091179055565b60405162461bcd60e51b815260206004820152602d60248201527f455243313936373a206e657720696d706c656d656e746174696f6e206973206e60448201526c1bdd08184818dbdb9d1c9858dd609a1b6064820152608490fd5b9192901561266d575081511561261f575090565b3b156126285790565b60405162461bcd60e51b815260206004820152601d60248201527f416464726573733a2063616c6c20746f206e6f6e2d636f6e74726163740000006044820152606490fd5b8251909150156126805750805190602001fd5b60405162461bcd60e51b815290819061269c9060048301611b75565b0390fdfe4a11f94e20a93c79f6ec743a1954ec4fc2c08429ae2122118bf234b2185c81b8360894a13ba1a3210667c828492db98dca3e2076cc3735a920a3ca505d382bbc42a7b7dd785cd69714a189dffb3fd7d7174edc9ece837694ce50f7078f7c31aea2646970667358221220ea50fd70844891570f42090a4814aa48d0ac9c0e5ad7e445d63443e1d967c99864736f6c63430008160033a26469706673582212200495c804094b917eba61365e5444501c2ff72793a3d58ed8679d43ec7680180664736f6c63430008160033",
  "linkReferences": {},
  "deployedLinkReferences": {}
}