{"src/contracts/TokenFactory_v3.sol":{"TokenFactory_v3":{"abi":[{"inputs":[{"internalType":"address","name":"_router","type":"address"}],"stateMutability":"nonpayable","type":"constructor"},{"anonymous":false,"inputs":[{"indexed":true,"internalType":"address","name":"user","type":"address"},{"indexed":false,"internalType":"uint256","name":"fee","type":"uint256"}],"name":"CustomDeploymentFeeSet","type":"event"},{"anonymous":false,"inputs":[{"indexed":false,"internalType":"uint256","name":"newFee","type":"uint256"}],"name":"DeploymentFeeUpdated","type":"event"},{"anonymous":false,"inputs":[{"indexed":true,"internalType":"address","name":"previousOwner","type":"address"},{"indexed":true,"internalType":"address","name":"newOwner","type":"address"}],"name":"OwnershipTransferred","type":"event"},{"anonymous":false,"inputs":[{"indexed":true,"internalType":"address","name":"tokenAddress","type":"address"},{"indexed":true,"internalType":"address","name":"creator","type":"address"},{"indexed":false,"internalType":"string","name":"name","type":"string"},{"indexed":false,"internalType":"string","name":"symbol","type":"string"}],"name":"TokenCreated","type":"event"},{"inputs":[],"name":"VERSION","outputs":[{"internalType":"string","name":"","type":"string"}],"stateMutability":"view","type":"function"},{"inputs":[{"components":[{"internalType":"string","name":"name","type":"string"},{"internalType":"string","name":"symbol","type":"string"},{"internalType":"uint256","name":"initialSupply","type":"uint256"},{"internalType":"uint256","name":"maxSupply","type":"uint256"},{"internalType":"address","name":"owner","type":"address"},{"internalType":"bool","name":"enableBlacklist","type":"bool"},{"internalType":"bool","name":"enableTimeLock","type":"bool"},{"internalType":"uint256","name":"presaleRate","type":"uint256"},{"internalType":"uint256","name":"softCap","type":"uint256"},{"internalType":"uint256","name":"hardCap","type":"uint256"},{"internalType":"uint256","name":"minContribution","type":"uint256"},{"internalType":"uint256","name":"maxContribution","type":"uint256"},{"internalType":"uint256","name":"startTime","type":"uint256"},{"internalType":"uint256","name":"endTime","type":"uint256"},{"internalType":"uint256","name":"presalePercentage","type":"uint256"},{"internalType":"uint256","name":"liquidityPercentage","type":"uint256"},{"internalType":"uint256","name":"liquidityLockDuration","type":"uint256"},{"components":[{"internalType":"address","name":"wallet","type":"address"},{"internalType":"uint256","name":"percentage","type":"uint256"},{"internalType":"bool","name":"vestingEnabled","type":"bool"},{"internalType":"uint256","name":"vestingDuration","type":"uint256"},{"internalType":"uint256","name":"cliffDuration","type":"uint256"},{"internalType":"uint256","name":"vestingStartTime","type":"uint256"}],"internalType":"struct TokenTemplate_v3.WalletAllocation[]","name":"walletAllocations","type":"tuple[]"},{"internalType":"uint256","name":"maxActivePresales","type":"uint256"},{"internalType":"bool","name":"presaleEnabled","type":"bool"}],"internalType":"struct TokenTemplate_v3.InitParams","name":"params","type":"tuple"}],"name":"createToken","outputs":[{"internalType":"address","name":"","type":"address"}],"stateMutability":"payable","type":"function"},{"inputs":[{"internalType":"address","name":"","type":"address"}],"name":"customDeploymentFees","outputs":[{"internalType":"uint256","name":"","type":"uint256"}],"stateMutability":"view","type":"function"},{"inputs":[{"internalType":"uint256","name":"","type":"uint256"}],"name":"deployedTokens","outputs":[{"internalType":"address","name":"","type":"address"}],"stateMutability":"view","type":"function"},{"inputs":[],"name":"deploymentFee","outputs":[{"internalType":"uint256","name":"","type":"uint256"}],"stateMutability":"view","type":"function"},{"inputs":[{"internalType":"address","name":"user","type":"address"}],"name":"getDeploymentFee","outputs":[{"internalType":"uint256","name":"","type":"uint256"}],"stateMutability":"view","type":"function"},{"inputs":[{"internalType":"address","name":"token","type":"address"}],"name":"getTokenCreator","outputs":[{"internalType":"address","name":"","type":"address"}],"stateMutability":"view","type":"function"},{"inputs":[{"internalType":"address","name":"user","type":"address"}],"name":"getUserCreatedTokens","outputs":[{"internalType":"address[]","name":"","type":"address[]"}],"stateMutability":"view","type":"function"},{"inputs":[{"internalType":"address","name":"user","type":"address"}],"name":"getUserTokenCount","outputs":[{"internalType":"uint256","name":"","type":"uint256"}],"stateMutability":"view","type":"function"},{"inputs":[{"internalType":"address","name":"user","type":"address"},{"internalType":"address","name":"token","type":"address"}],"name":"isTokenCreator","outputs":[{"internalType":"bool","name":"","type":"bool"}],"stateMutability":"view","type":"function"},{"inputs":[],"name":"owner","outputs":[{"internalType":"address","name":"","type":"address"}],"stateMutability":"view","type":"function"},{"inputs":[],"name":"renounceOwnership","outputs":[],"stateMutability":"nonpayable","type":"function"},{"inputs":[],"name":"routerAddress","outputs":[{"internalType":"address","name":"","type":"address"}],"stateMutability":"view","type":"function"},{"inputs":[{"internalType":"address","name":"user","type":"address"},{"internalType":"uint256","name":"fee","type":"uint256"}],"name":"setCustomDeploymentFee","outputs":[],"stateMutability":"nonpayable","type":"function"},{"inputs":[{"internalType":"uint256","name":"_fee","type":"uint256"}],"name":"setDeploymentFee","outputs":[],"stateMutability":"nonpayable","type":"function"},{"inputs":[{"internalType":"address","name":"newOwner","type":"address"}],"name":"transferOwnership","outputs":[],"stateMutability":"nonpayable","type":"function"},{"inputs":[],"name":"withdrawFees","outputs":[],"stateMutability":"nonpayable","type":"function"}],"devdoc":{"kind":"dev","methods":{"owner()":{"details":"Returns the address of the current owner."},"renounceOwnership()":{"details":"Leaves the contract without owner. It will not be possible to call `onlyOwner` functions. Can only be called by the current owner. NOTE: Renouncing ownership will leave the contract without an owner, thereby disabling any functionality that is only available to the owner."},"transferOwnership(address)":{"details":"Transfers ownership of the contract to a new account (`newOwner`). Can only be called by the current owner."}},"version":1},"evm":{"bytecode":{"linkReferences":{},"object":"60a0346100df57601f620044df38819003918201601f19168301916001600160401b038311848410176100e4578084926020946040528339810103126100df57516001600160a01b0381168082036100df5761005a336100fa565b6001805566038d7ea4c680006002551561009a5760805261007a336100fa565b60405161439d9081620001428239608051818181610a2501526113340152f35b60405162461bcd60e51b815260206004820152601660248201527f496e76616c696420726f757465722061646472657373000000000000000000006044820152606490fd5b600080fd5b634e487b7160e01b600052604160045260246000fd5b600080546001600160a01b039283166001600160a01b03198216811783559216907f8be0079c531659141344cd1fd0a4f28419497f9722a3daafe3b4186f6b6457e09080a356fe608060405260043610156200001357600080fd5b6000803560e01c80631652da4214620013635780633268cc56146200131c578063476343ee14620012a257806362acbf4b146200060b578063715018a614620005ad5780638da5cb5b1462000584578063ae6862ff1462000521578063b8a6f40214620004e4578063c00be1a0146200042b578063c05ddda814620003ee578063c78418b914620003ae578063cbf1208f146200033e578063d002462b14620002ec578063ec81aadb1462000289578063f2cff57f1462000269578063f2fde38b14620001975763ffa1ad7414620000ea57600080fd5b3462000194578060031936011262000194576040516040810181811067ffffffffffffffff8211176200017e5760405260058152602091640332e302e360dc1b602083015260405192839160208352835191826020850152815b8381106200016657505060408094508284010152601f80199101168101030190f35b80860182015187820160400152869450810162000144565b634e487b7160e01b600052604160045260246000fd5b80fd5b5034620001945760203660031901126200019457620001b562001395565b620001bf62001567565b6001600160a01b039081169081156200021557600054826bffffffffffffffffffffffff60a01b821617600055167f8be0079c531659141344cd1fd0a4f28419497f9722a3daafe3b4186f6b6457e0600080a380f35b60405162461bcd60e51b815260206004820152602660248201527f4f776e61626c653a206e6577206f776e657220697320746865207a65726f206160448201526564647265737360d01b6064820152608490fd5b503462000194578060031936011262000194576020600254604051908152f35b5034620001945760203660031901126200019457600435600354811015620002e85760036000527fc2575a0e9e593c00f959f8c92f12db2869c3395a3b0502d05e2516446f71f85b01546040516001600160a01b039091168152602090f35b5080fd5b50346200019457602036600319011262000194577f40bd824d588484917db8fa4fc894c1e0feae5a75885290ba7b97521cebf82a8060206004356200033062001567565b80600255604051908152a180f35b50346200019457604036600319011262000194576200035c62001395565b7f035250ff587e06567c2fa9d4b3191805958a937530b0e88cfce4c9c4dcdef1b36020602435926200038d62001567565b6001600160a01b03168085526007825260408086208590555193845292a280f35b50346200019457602036600319011262000194576020906001600160a01b039060409082620003dc62001395565b16815260068452205416604051908152f35b50346200019457602036600319011262000194576020906040906001600160a01b036200041a62001395565b168152600783522054604051908152f35b503462000194576020908160031936011262000194576001600160a01b039190826200045662001395565b168152600482526040812090604051808484549182815201908194845285842090845b818110620004cd575050508162000492910382620013c1565b6040519380850191818652518092526040850193925b828110620004b65785850386f35b8351871685529381019392810192600101620004a8565b825489168452928701926001928301920162000479565b50346200019457602036600319011262000194576020906040906001600160a01b036200051062001395565b168152600483522054604051908152f35b50346200019457604036600319011262000194576200053f62001395565b6024356001600160a01b0381811693918490036200057f5760409216815260056020522090600052602052602060ff604060002054166040519015158152f35b600080fd5b50346200019457806003193601126200019457546040516001600160a01b039091168152602090f35b50346200019457806003193601126200019457620005ca62001567565b600080546001600160a01b0319811682556001600160a01b03167f8be0079c531659141344cd1fd0a4f28419497f9722a3daafe3b4186f6b6457e08280a380f35b50600319602036820112620002e85767ffffffffffffffff60043511620002e857610280906004353603011262000194576002600154146200125d5760026001556200065733620013e4565b8034106200121857348134031162001204576200067a6102646004350162001475565b156200111c576101c4600435013515620010d7576101e4600435013562001073576102446004350135156200102e575b620006bb6102646004350162001475565b1562001020576101c460043501355b80620006e26102246004350160043560040162001483565b15905062000fa4575082905b620007056102246004350160043560040162001483565b9050821015620009f05762000732826200072b6102246004350160043560040162001483565b90620014bc565b356001600160a01b03811690819003620009ec5715620009a75760206200076a836200072b6102246004350160043560040162001483565b01351562000962576200079b604062000794846200072b6102246004350160043560040162001483565b0162001475565b620007eb575b6020620007bf836200072b6102246004350160043560040162001483565b01358101809111620007d757600190910190620006ee565b634e487b7160e01b84526011600452602484fd5b620008026102246004350160043560040162001483565b9062000813846060938493620014bc565b0135156200091d5760a062000839846200072b6102246004350160043560040162001483565b013515620008d85760806200085f846200072b6102246004350160043560040162001483565b0135906200087e846200072b6102246004350160043560040162001483565b01351015620007a15760405162461bcd60e51b815260206004820152602360248201527f436c6966662063616e6e6f74206265206c6f6e676572207468616e2076657374604482015262696e6760e81b6064820152608490fd5b60405162461bcd60e51b815260206004820152601e60248201527f56657374696e672073746172742074696d65206d757374206265203e203000006044820152606490fd5b60405162461bcd60e51b815260206004820152601c60248201527f56657374696e67206475726174696f6e206d757374206265203e2030000000006044820152606490fd5b60405162461bcd60e51b815260206004820152601d60248201527f57616c6c65742070657263656e74616765206d757374206265203e20300000006044820152606490fd5b60405162461bcd60e51b815260206004820152601d60248201527f57616c6c657420616464726573732063616e6e6f74206265207a65726f0000006044820152606490fd5b8480fd5b606491505b0362000f5f5760405180612da781011067ffffffffffffffff612da78301111762000f4b57612da7620015c182397f00000000000000000000000000000000000000000000000000000000000000006001600160a01b0316612da782019081528190036020019083f091821562000f3f576001600160a01b0383163b156200019457604051633192cbe360e21b81526020600482015262000ae662000abd62000aa9600435600401600435600401620014cd565b61028060248601526102a485019162001502565b62000ad3602460043501600435600401620014cd565b8483036023190160448601529062001502565b60446004350135606483015260646004350135608483015260018060a01b0362000b15608460043501620013ac565b1660a483015262000b2b60a46004350162001523565b151560c483015262000b4260c46004350162001523565b151560e483015261010460e4600435013581840152610124906004350135818401526101449060043501358184015261016490600435013581840152610184906004350135818401526101a4906004350135818401526101c4906004350135818401526101e490600435013581840152610204906004350135818401526004350135610224830152610224600435013560221960043536030181121562000f3b57600435019067ffffffffffffffff60048301351162000f3b5760c06004830135023603602483011362000f3b5782602085926023198382030161024484015260048501358152016024840193835b6004820135811062000ecb57505081929350610244600435013561026483015262000c626102646004350162001523565b15156102848301520381836001600160a01b0389165af1801562000ec05762000e92575b50906003546801000000000000000090818110156200017e57600181018060035581101562000e7c5760036000527fc2575a0e9e593c00f959f8c92f12db2869c3395a3b0502d05e2516446f71f85b0180546001600160a01b03199081166001600160a01b03871617909155338452600460205260408420805491928210156200017e576001820180825582101562000e7c576000908152602080822092909201805484166001600160a01b03881690811790915533808752600584526040808820838552855292839020805460ff191660011790559086526006909252842080549092161790553481900362000e15575b60208362000d8b60048035018062001531565b7fd5d05a8421149c74fd223cfc823befb883babf9bf0b0e4d6bf9c8fdb70e59bb462000dc260246004350160043560040162001531565b93909262000dfc62000de260405193849360408552604085019162001502565b8281038984015233966001600160a01b0389169662001502565b0390a3600180556040516001600160a01b039091168152f35b818080923403335af162000e2862001431565b501562000e3757388062000d78565b60405162461bcd60e51b815260206004820152601b60248201527f4661696c656420746f2072657475726e206578636573732045544800000000006044820152606490fd5b634e487b7160e01b600052603260045260246000fd5b67ffffffffffffffff811162000eac576040523862000c86565b634e487b7160e01b82526041600452602482fd5b6040513d84823e3d90fd5b92509250600160c080600493838060a01b0362000ee889620013ac565b1681526020880135602082015262000f036040890162001523565b15156040820152606080890135908201526080808901359082015260a080890135908201520195019201859294915092869362000c31565b8380fd5b604051903d90823e3d90fd5b634e487b7160e01b83526041600452602483fd5b60405162461bcd60e51b815260206004820152601c60248201527f546f74616c2070657263656e74616765206d75737420626520313030000000006044820152606490fd5b60640362000fb557606490620009f5565b60405162461bcd60e51b815260206004820152603860248201527f546f74616c2070657263656e74616765206d757374206265203130302520776860448201527f656e206e6f206164646974696f6e616c2077616c6c65747300000000000000006064820152608490fd5b6101e46004350135620006ca565b60405162461bcd60e51b815260206004820152601f60248201527f4d6178206163746976652070726573616c6573206d757374206265203e2030006044820152606490fd5b60405162461bcd60e51b815260206004820152603660248201527f4c69717569646974792070657263656e74616765206d757374206265203020776044820152751a195b881c1c995cd85b19481a5cc8195b98589b195960521b6064820152608490fd5b60405162461bcd60e51b815260206004820152601e60248201527f50726573616c652070657263656e74616765206d757374206265203e203000006044820152606490fd5b6101c46004350135620011a1576101e46004350135620006aa5760405162461bcd60e51b815260206004820152603960248201527f4c69717569646974792070657263656e74616765206d757374206265203e203060448201527f207768656e2070726573616c652069732064697361626c6564000000000000006064820152608490fd5b60405162461bcd60e51b815260206004820152603560248201527f50726573616c652070657263656e74616765206d7573742062652030207768656044820152741b881c1c995cd85b19481a5cc8191a5cd8589b1959605a1b6064820152608490fd5b634e487b7160e01b82526011600452602482fd5b60405162461bcd60e51b815260206004820152601b60248201527f496e73756666696369656e74206465706c6f796d656e742066656500000000006044820152606490fd5b60405162461bcd60e51b815260206004820152601f60248201527f5265656e7472616e637947756172643a207265656e7472616e742063616c6c006044820152606490fd5b50346200019457806003193601126200019457620012bf62001567565b8080808060018060a01b0381541647905af1620012db62001431565b5015620012e55780f35b60405162461bcd60e51b815260206004820152600f60248201526e151c985b9cd9995c8819985a5b1959608a1b6044820152606490fd5b503462000194578060031936011262000194576040517f00000000000000000000000000000000000000000000000000000000000000006001600160a01b03168152602090f35b503462000194576020366003190112620001945760206200138d6200138762001395565b620013e4565b604051908152f35b600435906001600160a01b03821682036200057f57565b35906001600160a01b03821682036200057f57565b90601f8019910116810190811067ffffffffffffffff8211176200017e57604052565b6001600160a01b031660009081526007602052604090205480158015908062001418575b5062001415575060025490565b90565b908162001428575b503862001408565b90503862001420565b3d1562001470573d9067ffffffffffffffff82116200017e576040519162001464601f8201601f191660200184620013c1565b82523d6000602084013e565b606090565b3580151581036200057f5790565b903590601e19813603018212156200057f570180359067ffffffffffffffff82116200057f576020019160c08202360383136200057f57565b919081101562000e7c5760c0020190565b9035601e19823603018112156200057f57016020813591019167ffffffffffffffff82116200057f5781360383136200057f57565b908060209392818452848401376000828201840152601f01601f1916010190565b359081151582036200057f57565b903590601e19813603018212156200057f570180359067ffffffffffffffff82116200057f576020019181360383136200057f57565b6000546001600160a01b031633036200157c57565b606460405162461bcd60e51b815260206004820152602060248201527f4f776e61626c653a2063616c6c6572206973206e6f7420746865206f776e65726044820152fdfe60a034620003e0576001600160401b0390601f90601f1962002da7388190038481018316840186811185821017620003e557849282916040528339602093849181010312620003e057516001600160a01b038082169590949091869003620003e0576200006b620003fb565b916000918284526200007c620003fb565b90838252845191838311620002ec576003928354966001978881811c91168015620003d5575b8b821014620003c1579081858493116200036e575b508a908583116001146200030c57889262000300575b505060001982861b1c191690871b1783555b8051938411620002ec5760049687548781811c91168015620002e1575b8a821014620002ce5790818487969594931162000275575b5089928511600114620002115750859362000205575b505082851b92600019911b1c19161783555b60055490610100600160a81b033360081b1660018060a81b03198316176005557f8be0079c531659141344cd1fd0a4f28419497f9722a3daafe3b4186f6b6457e060405196339360081c169180a36006558315620001c6578360805260405161298b90816200041c82396080518181816116ea0152818161199b01528181611a8a0152611cf60152f35b62461bcd60e51b8352820152601660248201527f496e76616c696420726f75746572206164647265737300000000000000000000604482015260649150fd5b0151915038806200012a565b8887528987208896909493929116875b8b8282106200025e575050851162000243575b50505050811b0183556200013c565b01519060f884600019921b161c191690553880808062000234565b8385015187558a9890960195938401930162000221565b9091929394508887528987208480880160051c8201928c8910620002c4575b918a91899897969594930160051c01915b828110620002b557505062000114565b8981558897508a9101620002a5565b9250819262000294565b634e487b7160e01b875260228952602487fd5b90607f1690620000fc565b634e487b7160e01b85526041600452602485fd5b015190503880620000cd565b908a8a941691878a528c8a20928d8b905b8282106200035657505084116200033d575b505050811b018355620000df565b015160001983881b60f8161c191690553880806200032f565b8385015186558d979095019493840193018e6200031d565b9091508588528a88208580850160051c8201928d8610620003b7575b918b91869594930160051c01915b828110620003a8575050620000b7565b8a81558594508b910162000398565b925081926200038a565b634e487b7160e01b88526022600452602488fd5b90607f1690620000a2565b600080fd5b634e487b7160e01b600052604160045260246000fd5b60405190602082016001600160401b03811183821017620003e55760405256fe608080604052600436101561001357600080fd5b60003560e01c908163048b87ba14611ee55750806306fdde0314611e3d578063095ea7b314611e17578063143b237f14611df4578063153b0d1e14611d255780631694505e14611ce057806318160ddd14611cc257806323b872dd14611c8a578063313ce56714611c6e5780633197cbb614611c5057806337ed2be61461192a57806339509351146118d95780633f4ba83a1461184557806342966c681461182857806342f393811461180a57806349bd5a5e146117e15780634ae01d52146117c357806351c6590a146116b85780635c975abb14611695578063644fab741461158b5780636e1d1e57146113f157806370a0823114611551578063715018a6146114f057806378e97925146114d257806379cc6790146114a25780638456cb591461140f5780638bb1cde9146113f15780638d3d6576146113d35780638da5cb5b146113a6578063906a26e01461138857806395d89b41146112a5578063a457c2d7146111fe578063a9059cbb146111cd578063aaffadf3146111af578063abd653d714611191578063b8caa4aa14611173578063bffb691d14611150578063c64b2f8c146106f6578063cba4cbd3146106d0578063d5abeb01146106b2578063dbed1e881461065f578063dd62ed3e1461060e578063de8af791146105f0578063e12f3a61146105c5578063e74f3fbb146103cd578063f2fde38b1461033e578063fb86a40414610320578063fb897ce4146102925763fe575a871461023a57600080fd5b3461028d57602036600319011261028d57610253611f49565b60ff600854168061026c575b6020906040519015158152f35b5060018060a01b03166000526016602052602060ff6040600020541661025f565b600080fd5b3461028d57602036600319011261028d576001600160a01b036102b3611f49565b16600052601560205260a060406000206080604051916102d283611faf565b80549283815260018201548060208301526002830154918260408201526004600385015494856060840152015494859101526040519485526020850152604084015260608301526080820152f35b3461028d57600036600319011261028d576020600b54604051908152f35b3461028d57602036600319011261028d57610357611f49565b61035f612371565b6001600160a01b0381161561037957610377906128f9565b005b60405162461bcd60e51b815260206004820152602660248201527f4f776e61626c653a206e6577206f776e657220697320746865207a65726f206160448201526564647265737360d01b6064820152608490fd5b3461028d57600036600319011261028d57600260065414610580576002600655336000526015602052604060002080548015610545576002820154610416600484015482612097565b421061050757610426904261208a565b60038301549091908083106104e15750610446915060018301549061208a565b905b811561049c5760010161045c828254612097565b9055610469813330612464565b6040519081527f896e034966eaaf1adc54acc0f257056febbd300c9e47182cf761982cf1f5e43060203392a26001600655005b60405162461bcd60e51b815260206004820152601c60248201527f4e6f20746f6b656e7320617661696c61626c6520746f20636c61696d000000006044820152606490fd5b6104f1610501936104f6936120ff565b612112565b60018301549061208a565b90610448565b60405162461bcd60e51b815260206004820152601660248201527510db1a5999881c195c9a5bd9081b9bdd08195b99195960521b6044820152606490fd5b60405162461bcd60e51b81526020600482015260136024820152724e6f2076657374696e67207363686564756c6560681b6044820152606490fd5b60405162461bcd60e51b815260206004820152601f60248201527f5265656e7472616e637947756172643a207265656e7472616e742063616c6c006044820152606490fd5b3461028d57602036600319011261028d5760206105e86105e3611f49565b6121a2565b604051908152f35b3461028d57600036600319011261028d576020601054604051908152f35b3461028d57604036600319011261028d57610627611f49565b61062f611f5f565b9060018060a01b038091166000526001602052604060002091166000526020526020604060002054604051908152f35b3461028d57602036600319011261028d57610678611f49565b60ff60085460081c166000146106a85760018060a01b031660005260176020526020604060002054604051908152f35b50602060006105e8565b3461028d57600036600319011261028d576020600754604051908152f35b3461028d57600036600319011261028d57602060ff60085460081c166040519015158152f35b60031960203682011261028d576004359067ffffffffffffffff9081831161028d5761028090833603011261028d576002546111155761073960048301806120bf565b8281949294116110ff5761074e601954611f75565b90601f9182811161109d575b50600082821160011461101857819293949560009261100d575b50508160011b916000199060031b1c1916176019555b60249061079c828401846004016120bf565b90948111610ff8576107af601a54611f75565b828111610f96575b506000828211600114610f11578192939495600092610f06575b50508160011b916000199060031b1c191617601a555b606490818401356007556107fd60a485016120f2565b1515906008549160ff809116928361ff0061081a60c48a016120f2565b151560081b169161ffff19161717908160085560e4870135600955610104870135600a55610124870135600b55610144870135600c55610164870135600d55610184870135600e556101a4870135600f556101c487013591826010556101e488013590816011556102048901356012556102448901356013556108a06102648a016120f2565b15158360ff1960145416911617601455604495868a0135953015610ec557508360055416610e70578792918491610df8575b60081c16610d82575b6108e785600254612097565b600255306000526000602052604060002085815401905560405185815260007fddf252ad1be2c89b69c2b068fc378daa952ba7f163c4a11628f55a4df523b3ef60203093a3849360009360145416610d54575b50610963929161094d61095d92876120ff565b04809281601b5581601c55612097565b9261208a565b50610975610224870187600401612132565b90506109ea575b03610995576103776109906084860161218e565b6128f9565b608492917f546f74616c20616c6c6f636174696f6e206d75737420657175616c20696e69746969616c20737570706c7960b01b92602a6040519562461bcd60e51b875260206004880152860152840152820152fd5b949260009491945b610a03610224860186600401612132565b9050811015610d4957610a4082610a386020610a3085610a2a6102248c018c600401612132565b90612168565b0135896120ff565b048098612097565b96868811610cf75781610a74610a6f610a606102248a018a600401612132565b6001600160a01b039491612168565b61218e565b1615610cbc57610a9a6040610a9484610a2a6102248b018b600401612132565b016120f2565b15610c18579060019160a0610aba83610a2a6102248b018b600401612132565b013560046060610ad485610a2a6102248d018d8601612132565b01356080610aec86610a2a6102248e01868f01612132565b01359060405193610afc85611faf565b8585528b87610b44610a6f610b3560208a01946000865260408b0196875260608b0197885260808b019889526102248101908a01612132565b8d8060a09693961b0394612168565b1660005260156020526040600020955186555188860155516002850155516003840155519101557f47d46f58c7d60d60571092cff5715b8c8c5bc1347db2bb9890e639bf3680ba7b6080610ba6610a6f85610a2a6102248d018d600401612132565b60a0610bbd86610a2a6102248e0160048f01612132565b01358a83610bf088610a2a6060610bdf83610a2a610224890189600401612132565b013594610224810190600401612132565b013591604051968752602087015260408601526060850152858060a01b031692a25b016109f2565b610c30610a6f83610a2a6102248a018a600401612132565b6001600160a01b03811691908215610c8157602082610c7560019695947f896e034966eaaf1adc54acc0f257056febbd300c9e47182cf761982cf1f5e4309430612464565b604051908152a2610c12565b60405162461bcd60e51b8152602060048201526016818801527516995c9bc81859191c995cdcc81c9958da5c1a595b9d60521b818901528590fd5b60405162461bcd60e51b81526020600482015260168186015275496e76616c69642077616c6c6574206164647265737360501b818701528390fd5b60405162461bcd60e51b8152602060048201526027818601527f546f74616c20616c6c6f636174696f6e206578636565647320696e697469616c818701526620737570706c7960c81b81850152608490fd5b50929493909361097c565b610d659194506109639350856120ff565b0461095d8661094d610d77848861208a565b95925050919261093a565b6000805260176020527fd840e16649f6b9a295d95876f4633d3a6b10b55e8162971cf78afd886d5ec89b549091504210610dbd5785906108db565b60405162461bcd60e51b81526020600482015260168189015275151bdad95b9cc8185c99481d1a5b594b5b1bd8dad95960521b818701528690fd5b9192505060008052601660205282604060002054161580610e5d575b15610e2257908287926108d2565b60405162461bcd60e51b8152602060048201526016818a0152751059191c995cdcc81a5cc8189b1858dadb1a5cdd195960521b818801528790fd5b5030600052826040600020541615610e14565b60405162461bcd60e51b815260206004820152602a818b01527f45524332305061757361626c653a20746f6b656e207472616e7366657220776881890152691a5b19481c185d5cd95960b21b818a0152608490fd5b897f45524332303a206d696e7420746f20746865207a65726f206164647265737300898b936040519362461bcd60e51b855260206004860152840152820152fd5b0135905085806107d1565b601f19821695601a6000527f057c384a7d1c54f3a1b2e5e67b2617b8224fdfd1ea7234eea573a6ff665ff63e9160005b888110610f7e57508360019596979810610f64575b505050811b01601a556107e7565b0135600019600384901b60f8161c19169055858080610f56565b90926020600181928686013581550194019101610f41565b601a6000527f057c384a7d1c54f3a1b2e5e67b2617b8224fdfd1ea7234eea573a6ff665ff63e8380840160051c82019260208510610fef575b0160051c01905b818110610fe357506107b7565b60008155600101610fd6565b92508192610fcf565b82634e487b7160e01b60005260416004526000fd5b013590508580610774565b601f1982169560196000527f944998273e477b495144fb8794c914197f3ccb46be2900f4698fd0ef743c96959160005b8881106110855750836001959697981061106b575b505050811b0160195561078a565b0135600019600384901b60f8161c1916905585808061105d565b90926020600181928686013581550194019101611048565b60196000527f944998273e477b495144fb8794c914197f3ccb46be2900f4698fd0ef743c96958380840160051c820192602085106110f6575b0160051c01905b8181106110ea575061075a565b600081556001016110dd565b925081926110d6565b634e487b7160e01b600052604160045260246000fd5b60405162461bcd60e51b8152602060048201526013602482015272105b1c9958591e481a5b9a5d1a585b1a5e9959606a1b6044820152606490fd5b3461028d57600036600319011261028d57602060ff600854166040519015158152f35b3461028d57600036600319011261028d576020601354604051908152f35b3461028d57600036600319011261028d576020601b54604051908152f35b3461028d57600036600319011261028d576020600c54604051908152f35b3461028d57604036600319011261028d576111f36111e9611f49565b6024359033612464565b602060405160018152f35b3461028d57604036600319011261028d57611217611f49565b60243590336000526001602052604060002060018060a01b03821660005260205260406000205491808310611252576111f39203903361226f565b60405162461bcd60e51b815260206004820152602560248201527f45524332303a2064656372656173656420616c6c6f77616e63652062656c6f77604482015264207a65726f60d81b6064820152608490fd5b3461028d57600036600319011261028d576040516000601a546112c781611f75565b8084529060209060019081811690811561135e5750600114611304575b611300856112f481870382611fcb565b60405191829182611f00565b0390f35b601a600090815293507f057c384a7d1c54f3a1b2e5e67b2617b8224fdfd1ea7234eea573a6ff665ff63e5b83851061134b575050505081016020016112f4826113006112e4565b805486860184015293820193810161132f565b869550611300969350602092506112f494915060ff191682840152151560051b82010192936112e4565b3461028d57600036600319011261028d576020600a54604051908152f35b3461028d57600036600319011261028d5760055460405160089190911c6001600160a01b03168152602090f35b3461028d57600036600319011261028d576020600d54604051908152f35b3461028d57600036600319011261028d576020601c54604051908152f35b3461028d57600036600319011261028d57611428612371565b60055460ff811661146a5760019060ff1916176005557f62e78cea01bee320cd4e420270b5ea74000d11b0c9f74754ebdbfc544b05a2586020604051338152a1005b60405162461bcd60e51b815260206004820152601060248201526f14185d5cd8589b194e881c185d5cd95960821b6044820152606490fd5b3461028d57604036600319011261028d576103776114be611f49565b602435906114cd8233836123cc565b61270e565b3461028d57600036600319011261028d576020600e54604051908152f35b3461028d57600036600319011261028d57611509612371565b60058054610100600160a81b0319811690915560009060081c6001600160a01b03167f8be0079c531659141344cd1fd0a4f28419497f9722a3daafe3b4186f6b6457e08280a3005b3461028d57602036600319011261028d576001600160a01b03611572611f49565b1660005260006020526020604060002054604051908152f35b3461028d57604036600319011261028d576115a4611f49565b602435906115b0612371565b60ff60085460081c1615611650574282111561160b5760207fa9353e70f07f31e7f4e16464f45e189cbd22826780a5abe4da8303652a86960a9160018060a01b031692836000526017825280604060002055604051908152a2005b60405162461bcd60e51b815260206004820152601d60248201527f556e6c6f636b2074696d65206d75737420626520696e206675747572650000006044820152606490fd5b60405162461bcd60e51b815260206004820152601860248201527f54696d65206c6f636b206973206e6f7420656e61626c656400000000000000006044820152606490fd5b3461028d57600036600319011261028d57602060ff600554166040519015158152f35b602036600319011261028d576004356116d2341515611fed565b6116dd811515612029565b6116e8813033612464565b7f00000000000000000000000000000000000000000000000000000000000000006001600160a01b03169061171e81833061226f565b61012c42018042116117ad5760405163f305d71960e01b81523060048201526024810192909252600060448301819052606483015233608483015260a482015290606090829060c490829034905af180156117a15761177957005b6103779060603d60601161179a575b6117928183611fcb565b8101906120a4565b503d611788565b6040513d6000823e3d90fd5b634e487b7160e01b600052601160045260246000fd5b3461028d57600036600319011261028d576020601254604051908152f35b3461028d57600036600319011261028d576018546040516001600160a01b039091168152602090f35b3461028d57600036600319011261028d576020600954604051908152f35b3461028d57602036600319011261028d576103776004353361270e565b3461028d57600036600319011261028d5761185e612371565b60055460ff81161561189d5760ff19166005557f5db9ee0a495bf2e6ff9c91a7834c1ba4fdd244a5e8aa4e537bd38aeae4b073aa6020604051338152a1005b60405162461bcd60e51b815260206004820152601460248201527314185d5cd8589b194e881b9bdd081c185d5cd95960621b6044820152606490fd5b3461028d57604036600319011261028d576111f36118f5611f49565b336000526001602052604060002060018060a01b038216600052602052611923602435604060002054612097565b903361226f565b60208060031936011261028d57600435611942612371565b61194d341515611fed565b611958811515612029565b601c548111611bf55730600052600082528060406000205410611bb0576018546001600160a01b0390811615611a7b575b61199582601c5461208a565b601c55807f000000000000000000000000000000000000000000000000000000000000000016916119c781843061226f565b61012c4201928342116117ad5760405163f305d71960e01b815230600482015260248101839052600060448201819052606482015233608482015260a4810194909452606090849060c490829034905af19182156117a1577fac1d76749e5447b7b16f5ab61447e1bd502f3bb4807af3b28e620d1700a6ee4593604093611a5c575b50601854169382519182523490820152a2005b611a749060603d60601161179a576117928183611fcb565b5050611a49565b60405163c45a015560e01b81527f00000000000000000000000000000000000000000000000000000000000000008216908481600481855afa9081156117a1578590600092611b90575b506040516315ab88c960e31b81529192829060049082905afa80156117a157604484918793600091611b73575b5060008360405196879586946364e329cb60e11b8652306004870152166024850152165af180156117a1578291600091611b46575b50166bffffffffffffffffffffffff60a01b6018541617601855611989565b611b669150853d8711611b6c575b611b5e8183611fcb565b81019061206b565b85611b27565b503d611b54565b611b8a9150843d8611611b6c57611b5e8183611fcb565b88611af2565b60049250611baa90823d8411611b6c57611b5e8183611fcb565b91611ac5565b60405162461bcd60e51b815260048101839052601d60248201527f496e73756666696369656e7420636f6e74726163742062616c616e63650000006044820152606490fd5b60405162461bcd60e51b815260048101839052602d60248201527f416d6f756e7420657863656564732072656d61696e696e67206c69717569646960448201526c3a3c9030b63637b1b0ba34b7b760991b6064820152608490fd5b3461028d57600036600319011261028d576020600f54604051908152f35b3461028d57600036600319011261028d57602060405160128152f35b3461028d57606036600319011261028d576111f3611ca6611f49565b611cae611f5f565b60443591611cbd8333836123cc565b612464565b3461028d57600036600319011261028d576020600254604051908152f35b3461028d57600036600319011261028d576040517f00000000000000000000000000000000000000000000000000000000000000006001600160a01b03168152602090f35b3461028d57604036600319011261028d57611d3e611f49565b6024359081151580920361028d57611d54612371565b60ff6008541615611daf5760207f6a12b3df6cba4203bd7fd06b816789f87de8c594299aed5717ae070fac781bac9160018060a01b0316928360005260168252604060002060ff1981541660ff8316179055604051908152a2005b60405162461bcd60e51b815260206004820152601860248201527f426c61636b6c697374206973206e6f7420656e61626c656400000000000000006044820152606490fd5b3461028d57600036600319011261028d57602060ff601454166040519015158152f35b3461028d57604036600319011261028d576111f3611e33611f49565b602435903361226f565b3461028d57600036600319011261028d576040516000601954611e5f81611f75565b8084529060209060019081811690811561135e5750600114611e8b57611300856112f481870382611fcb565b6019600090815293507f944998273e477b495144fb8794c914197f3ccb46be2900f4698fd0ef743c96955b838510611ed2575050505081016020016112f4826113006112e4565b8054868601840152938201938101611eb6565b3461028d57600036600319011261028d576020906011548152f35b6020808252825181830181905290939260005b828110611f3557505060409293506000838284010152601f8019910116010190565b818101860151848201604001528501611f13565b600435906001600160a01b038216820361028d57565b602435906001600160a01b038216820361028d57565b90600182811c92168015611fa5575b6020831014611f8f57565b634e487b7160e01b600052602260045260246000fd5b91607f1691611f84565b60a0810190811067ffffffffffffffff8211176110ff57604052565b90601f8019910116810190811067ffffffffffffffff8211176110ff57604052565b15611ff457565b60405162461bcd60e51b815260206004820152600d60248201526c09aeae6e840e6cadcc8408aa89609b1b6044820152606490fd5b1561203057565b60405162461bcd60e51b81526020600482015260136024820152724d7573742070726f7669646520746f6b656e7360681b6044820152606490fd5b9081602091031261028d57516001600160a01b038116810361028d5790565b919082039182116117ad57565b919082018092116117ad57565b9081606091031261028d578051916040602083015192015190565b903590601e198136030182121561028d570180359067ffffffffffffffff821161028d5760200191813603831361028d57565b35801515810361028d5790565b818102929181159184041417156117ad57565b811561211c570490565b634e487b7160e01b600052601260045260246000fd5b903590601e198136030182121561028d570180359067ffffffffffffffff821161028d576020019160c082023603831361028d57565b91908110156121785760c0020190565b634e487b7160e01b600052603260045260246000fd5b356001600160a01b038116810361028d5790565b60018060a01b031660005260156020526040600020604051906121c482611faf565b80549081835260018101549160208401928352600282015460408501918183526004600385015494606088019586520154908160808801521591821561225c575b50506122535761221690514261208a565b815181101561224457906122316122399261224195516120ff565b905190612112565b90519061208a565b90565b5050612241915190519061208a565b50505050600090565b6122669250612097565b42103880612205565b6001600160a01b0390811691821561232057169182156122d05760207f8c5be1e5ebec7d5bd14f71427d1e84f3dd0314c0f7b2291e5b200ac8c7c3b925918360005260018252604060002085600052825280604060002055604051908152a3565b60405162461bcd60e51b815260206004820152602260248201527f45524332303a20617070726f766520746f20746865207a65726f206164647265604482015261737360f01b6064820152608490fd5b60405162461bcd60e51b8152602060048201526024808201527f45524332303a20617070726f76652066726f6d20746865207a65726f206164646044820152637265737360e01b6064820152608490fd5b60055460081c6001600160a01b0316330361238857565b606460405162461bcd60e51b815260206004820152602060248201527f4f776e61626c653a2063616c6c6572206973206e6f7420746865206f776e65726044820152fd5b9060018060a01b0380831660005260016020526040600020908216600052602052604060002054926000198403612404575b50505050565b80841061241f5761241693039161226f565b388080806123fe565b60405162461bcd60e51b815260206004820152601d60248201527f45524332303a20696e73756666696369656e7420616c6c6f77616e63650000006044820152606490fd5b6001600160a01b039081169182156126bb571691821561266a5760ff600554166126125760085460ff81166125a3575b60081c60ff1661254f575b6000828152806020526040812054918083106124fb57604082827fddf252ad1be2c89b69c2b068fc378daa952ba7f163c4a11628f55a4df523b3ef958760209652828652038282205586815220818154019055604051908152a3565b60405162461bcd60e51b815260206004820152602660248201527f45524332303a207472616e7366657220616d6f756e7420657863656564732062604482015265616c616e636560d01b6064820152608490fd5b81600052601760205260406000205442101561249f5760405162461bcd60e51b8152602060048201526016602482015275151bdad95b9cc8185c99481d1a5b594b5b1bd8dad95960521b6044820152606490fd5b82600052601660205260ff6040600020541615806125fe575b6124945760405162461bcd60e51b81526020600482015260166024820152751059191c995cdcc81a5cc8189b1858dadb1a5cdd195960521b6044820152606490fd5b508360005260ff60406000205416156125bc565b60405162461bcd60e51b815260206004820152602a60248201527f45524332305061757361626c653a20746f6b656e207472616e736665722077686044820152691a5b19481c185d5cd95960b21b6064820152608490fd5b60405162461bcd60e51b815260206004820152602360248201527f45524332303a207472616e7366657220746f20746865207a65726f206164647260448201526265737360e81b6064820152608490fd5b60405162461bcd60e51b815260206004820152602560248201527f45524332303a207472616e736665722066726f6d20746865207a65726f206164604482015264647265737360d81b6064820152608490fd5b6001600160a01b031680156128aa5760ff600554166126125760085460ff811661283b575b60081c60ff166127e7575b60009181835282602052604083205481811061279757817fddf252ad1be2c89b69c2b068fc378daa952ba7f163c4a11628f55a4df523b3ef926020928587528684520360408620558060025403600255604051908152a3565b60405162461bcd60e51b815260206004820152602260248201527f45524332303a206275726e20616d6f756e7420657863656564732062616c616e604482015261636560f01b6064820152608490fd5b80600052601760205260406000205442101561273e5760405162461bcd60e51b8152602060048201526016602482015275151bdad95b9cc8185c99481d1a5b594b5b1bd8dad95960521b6044820152606490fd5b81600052601660205260ff604060002054161580612896575b6127335760405162461bcd60e51b81526020600482015260166024820152751059191c995cdcc81a5cc8189b1858dadb1a5cdd195960521b6044820152606490fd5b506000805260ff6040600020541615612854565b60405162461bcd60e51b815260206004820152602160248201527f45524332303a206275726e2066726f6d20746865207a65726f206164647265736044820152607360f81b6064820152608490fd5b60058054610100600160a81b03198116600884811b610100600160a81b0316919091179092556001600160a01b0392831692911c167f8be0079c531659141344cd1fd0a4f28419497f9722a3daafe3b4186f6b6457e0600080a356fea26469706673582212206e03eccee1d62134ba9285be48d96d9e9fef03b2734f68b4c4f84fd2b5ff06cf64736f6c63430008160033a2646970667358221220eaec867ba6f0d8aa841f110d2adc7ea560421dfa0fd45d49ee006df9b1c9b27764736f6c63430008160033","opcodes":"PUSH1 0xA0 CALLVALUE PUSH2 0xDF JUMPI PUSH1 0x1F PUSH3 0x44DF CODESIZE DUP2 SWAP1 SUB SWAP2 DUP3 ADD PUSH1 0x1F NOT AND DUP4 ADD SWAP2 PUSH1 0x1 PUSH1 0x1 PUSH1 0x40 SHL SUB DUP4 GT DUP5 DUP5 LT OR PUSH2 0xE4 JUMPI DUP1 DUP5 SWAP3 PUSH1 0x20 SWAP5 PUSH1 0x40 MSTORE DUP4 CODECOPY DUP2 ADD SUB SLT PUSH2 0xDF JUMPI MLOAD PUSH1 0x1 PUSH1 0x1 PUSH1 0xA0 SHL SUB DUP2 AND DUP1 DUP3 SUB PUSH2 0xDF JUMPI PUSH2 0x5A CALLER PUSH2 0xFA JUMP JUMPDEST PUSH1 0x1 DUP1 SSTORE PUSH7 0x38D7EA4C68000 PUSH1 0x2 SSTORE ISZERO PUSH2 0x9A JUMPI PUSH1 0x80 MSTORE PUSH2 0x7A CALLER PUSH2 0xFA JUMP JUMPDEST PUSH1 0x40 MLOAD PUSH2 0x439D SWAP1 DUP2 PUSH3 0x142 DUP3 CODECOPY PUSH1 0x80 MLOAD DUP2 DUP2 DUP2 PUSH2 0xA25 ADD MSTORE PUSH2 0x1334 ADD MSTORE RETURN JUMPDEST PUSH1 0x40 MLOAD PUSH3 0x461BCD PUSH1 0xE5 SHL DUP2 MSTORE PUSH1 0x20 PUSH1 0x4 DUP3 ADD MSTORE PUSH1 0x16 PUSH1 0x24 DUP3 ADD MSTORE PUSH32 0x496E76616C696420726F75746572206164647265737300000000000000000000 PUSH1 0x44 DUP3 ADD MSTORE PUSH1 0x64 SWAP1 REVERT JUMPDEST PUSH1 0x0 DUP1 REVERT JUMPDEST PUSH4 0x4E487B71 PUSH1 0xE0 SHL PUSH1 0x0 MSTORE PUSH1 0x41 PUSH1 0x4 MSTORE PUSH1 0x24 PUSH1 0x0 REVERT JUMPDEST PUSH1 0x0 DUP1 SLOAD PUSH1 0x1 PUSH1 0x1 PUSH1 0xA0 SHL SUB SWAP3 DUP4 AND PUSH1 0x1 PUSH1 0x1 PUSH1 0xA0 SHL SUB NOT DUP3 AND DUP2 OR DUP4 SSTORE SWAP3 AND SWAP1 PUSH32 0x8BE0079C531659141344CD1FD0A4F28419497F9722A3DAAFE3B4186F6B6457E0 SWAP1 DUP1 LOG3 JUMP INVALID PUSH1 0x80 PUSH1 0x40 MSTORE PUSH1 0x4 CALLDATASIZE LT ISZERO PUSH3 0x13 JUMPI PUSH1 0x0 DUP1 REVERT JUMPDEST PUSH1 0x0 DUP1 CALLDATALOAD PUSH1 0xE0 SHR DUP1 PUSH4 0x1652DA42 EQ PUSH3 0x1363 JUMPI DUP1 PUSH4 0x3268CC56 EQ PUSH3 0x131C JUMPI DUP1 PUSH4 0x476343EE EQ PUSH3 0x12A2 JUMPI DUP1 PUSH4 0x62ACBF4B EQ PUSH3 0x60B JUMPI DUP1 PUSH4 0x715018A6 EQ PUSH3 0x5AD JUMPI DUP1 PUSH4 0x8DA5CB5B EQ PUSH3 0x584 JUMPI DUP1 PUSH4 0xAE6862FF EQ PUSH3 0x521 JUMPI DUP1 PUSH4 0xB8A6F402 EQ PUSH3 0x4E4 JUMPI DUP1 PUSH4 0xC00BE1A0 EQ PUSH3 0x42B JUMPI DUP1 PUSH4 0xC05DDDA8 EQ PUSH3 0x3EE JUMPI DUP1 PUSH4 0xC78418B9 EQ PUSH3 0x3AE JUMPI DUP1 PUSH4 0xCBF1208F EQ PUSH3 0x33E JUMPI DUP1 PUSH4 0xD002462B EQ PUSH3 0x2EC JUMPI DUP1 PUSH4 0xEC81AADB EQ PUSH3 0x289 JUMPI DUP1 PUSH4 0xF2CFF57F EQ PUSH3 0x269 JUMPI DUP1 PUSH4 0xF2FDE38B EQ PUSH3 0x197 JUMPI PUSH4 0xFFA1AD74 EQ PUSH3 0xEA JUMPI PUSH1 0x0 DUP1 REVERT JUMPDEST CALLVALUE PUSH3 0x194 JUMPI DUP1 PUSH1 0x3 NOT CALLDATASIZE ADD SLT PUSH3 0x194 JUMPI PUSH1 0x40 MLOAD PUSH1 0x40 DUP2 ADD DUP2 DUP2 LT PUSH8 0xFFFFFFFFFFFFFFFF DUP3 GT OR PUSH3 0x17E JUMPI PUSH1 0x40 MSTORE PUSH1 0x5 DUP2 MSTORE PUSH1 0x20 SWAP2 PUSH5 0x332E302E3 PUSH1 0xDC SHL PUSH1 0x20 DUP4 ADD MSTORE PUSH1 0x40 MLOAD SWAP3 DUP4 SWAP2 PUSH1 0x20 DUP4 MSTORE DUP4 MLOAD SWAP2 DUP3 PUSH1 0x20 DUP6 ADD MSTORE DUP2 JUMPDEST DUP4 DUP2 LT PUSH3 0x166 JUMPI POP POP PUSH1 0x40 DUP1 SWAP5 POP DUP3 DUP5 ADD ADD MSTORE PUSH1 0x1F DUP1 NOT SWAP2 ADD AND DUP2 ADD SUB ADD SWAP1 RETURN JUMPDEST DUP1 DUP7 ADD DUP3 ADD MLOAD DUP8 DUP3 ADD PUSH1 0x40 ADD MSTORE DUP7 SWAP5 POP DUP2 ADD PUSH3 0x144 JUMP JUMPDEST PUSH4 0x4E487B71 PUSH1 0xE0 SHL PUSH1 0x0 MSTORE PUSH1 0x41 PUSH1 0x4 MSTORE PUSH1 0x24 PUSH1 0x0 REVERT JUMPDEST DUP1 REVERT JUMPDEST POP CALLVALUE PUSH3 0x194 JUMPI PUSH1 0x20 CALLDATASIZE PUSH1 0x3 NOT ADD SLT PUSH3 0x194 JUMPI PUSH3 0x1B5 PUSH3 0x1395 JUMP JUMPDEST PUSH3 0x1BF PUSH3 0x1567 JUMP JUMPDEST PUSH1 0x1 PUSH1 0x1 PUSH1 0xA0 SHL SUB SWAP1 DUP2 AND SWAP1 DUP2 ISZERO PUSH3 0x215 JUMPI PUSH1 0x0 SLOAD DUP3 PUSH12 0xFFFFFFFFFFFFFFFFFFFFFFFF PUSH1 0xA0 SHL DUP3 AND OR PUSH1 0x0 SSTORE AND PUSH32 0x8BE0079C531659141344CD1FD0A4F28419497F9722A3DAAFE3B4186F6B6457E0 PUSH1 0x0 DUP1 LOG3 DUP1 RETURN JUMPDEST PUSH1 0x40 MLOAD PUSH3 0x461BCD PUSH1 0xE5 SHL DUP2 MSTORE PUSH1 0x20 PUSH1 0x4 DUP3 ADD MSTORE PUSH1 0x26 PUSH1 0x24 DUP3 ADD MSTORE PUSH32 0x4F776E61626C653A206E6577206F776E657220697320746865207A65726F2061 PUSH1 0x44 DUP3 ADD MSTORE PUSH6 0x646472657373 PUSH1 0xD0 SHL PUSH1 0x64 DUP3 ADD MSTORE PUSH1 0x84 SWAP1 REVERT JUMPDEST POP CALLVALUE PUSH3 0x194 JUMPI DUP1 PUSH1 0x3 NOT CALLDATASIZE ADD SLT PUSH3 0x194 JUMPI PUSH1 0x20 PUSH1 0x2 SLOAD PUSH1 0x40 MLOAD SWAP1 DUP2 MSTORE RETURN JUMPDEST POP CALLVALUE PUSH3 0x194 JUMPI PUSH1 0x20 CALLDATASIZE PUSH1 0x3 NOT ADD SLT PUSH3 0x194 JUMPI PUSH1 0x4 CALLDATALOAD PUSH1 0x3 SLOAD DUP2 LT ISZERO PUSH3 0x2E8 JUMPI PUSH1 0x3 PUSH1 0x0 MSTORE PUSH32 0xC2575A0E9E593C00F959F8C92F12DB2869C3395A3B0502D05E2516446F71F85B ADD SLOAD PUSH1 0x40 MLOAD PUSH1 0x1 PUSH1 0x1 PUSH1 0xA0 SHL SUB SWAP1 SWAP2 AND DUP2 MSTORE PUSH1 0x20 SWAP1 RETURN JUMPDEST POP DUP1 REVERT JUMPDEST POP CALLVALUE PUSH3 0x194 JUMPI PUSH1 0x20 CALLDATASIZE PUSH1 0x3 NOT ADD SLT PUSH3 0x194 JUMPI PUSH32 0x40BD824D588484917DB8FA4FC894C1E0FEAE5A75885290BA7B97521CEBF82A80 PUSH1 0x20 PUSH1 0x4 CALLDATALOAD PUSH3 0x330 PUSH3 0x1567 JUMP JUMPDEST DUP1 PUSH1 0x2 SSTORE PUSH1 0x40 MLOAD SWAP1 DUP2 MSTORE LOG1 DUP1 RETURN JUMPDEST POP CALLVALUE PUSH3 0x194 JUMPI PUSH1 0x40 CALLDATASIZE PUSH1 0x3 NOT ADD SLT PUSH3 0x194 JUMPI PUSH3 0x35C PUSH3 0x1395 JUMP JUMPDEST PUSH32 0x35250FF587E06567C2FA9D4B3191805958A937530B0E88CFCE4C9C4DCDEF1B3 PUSH1 0x20 PUSH1 0x24 CALLDATALOAD SWAP3 PUSH3 0x38D PUSH3 0x1567 JUMP JUMPDEST PUSH1 0x1 PUSH1 0x1 PUSH1 0xA0 SHL SUB AND DUP1 DUP6 MSTORE PUSH1 0x7 DUP3 MSTORE PUSH1 0x40 DUP1 DUP7 KECCAK256 DUP6 SWAP1 SSTORE MLOAD SWAP4 DUP5 MSTORE SWAP3 LOG2 DUP1 RETURN JUMPDEST POP CALLVALUE PUSH3 0x194 JUMPI PUSH1 0x20 CALLDATASIZE PUSH1 0x3 NOT ADD SLT PUSH3 0x194 JUMPI PUSH1 0x20 SWAP1 PUSH1 0x1 PUSH1 0x1 PUSH1 0xA0 SHL SUB SWAP1 PUSH1 0x40 SWAP1 DUP3 PUSH3 0x3DC PUSH3 0x1395 JUMP JUMPDEST AND DUP2 MSTORE PUSH1 0x6 DUP5 MSTORE KECCAK256 SLOAD AND PUSH1 0x40 MLOAD SWAP1 DUP2 MSTORE RETURN JUMPDEST POP CALLVALUE PUSH3 0x194 JUMPI PUSH1 0x20 CALLDATASIZE PUSH1 0x3 NOT ADD SLT PUSH3 0x194 JUMPI PUSH1 0x20 SWAP1 PUSH1 0x40 SWAP1 PUSH1 0x1 PUSH1 0x1 PUSH1 0xA0 SHL SUB PUSH3 0x41A PUSH3 0x1395 JUMP JUMPDEST AND DUP2 MSTORE PUSH1 0x7 DUP4 MSTORE KECCAK256 SLOAD PUSH1 0x40 MLOAD SWAP1 DUP2 MSTORE RETURN JUMPDEST POP CALLVALUE PUSH3 0x194 JUMPI PUSH1 0x20 SWAP1 DUP2 PUSH1 0x3 NOT CALLDATASIZE ADD SLT PUSH3 0x194 JUMPI PUSH1 0x1 PUSH1 0x1 PUSH1 0xA0 SHL SUB SWAP2 SWAP1 DUP3 PUSH3 0x456 PUSH3 0x1395 JUMP JUMPDEST AND DUP2 MSTORE PUSH1 0x4 DUP3 MSTORE PUSH1 0x40 DUP2 KECCAK256 SWAP1 PUSH1 0x40 MLOAD DUP1 DUP5 DUP5 SLOAD SWAP2 DUP3 DUP2 MSTORE ADD SWAP1 DUP2 SWAP5 DUP5 MSTORE DUP6 DUP5 KECCAK256 SWAP1 DUP5 JUMPDEST DUP2 DUP2 LT PUSH3 0x4CD JUMPI POP POP POP DUP2 PUSH3 0x492 SWAP2 SUB DUP3 PUSH3 0x13C1 JUMP JUMPDEST PUSH1 0x40 MLOAD SWAP4 DUP1 DUP6 ADD SWAP2 DUP2 DUP7 MSTORE MLOAD DUP1 SWAP3 MSTORE PUSH1 0x40 DUP6 ADD SWAP4 SWAP3 JUMPDEST DUP3 DUP2 LT PUSH3 0x4B6 JUMPI DUP6 DUP6 SUB DUP7 RETURN JUMPDEST DUP4 MLOAD DUP8 AND DUP6 MSTORE SWAP4 DUP2 ADD SWAP4 SWAP3 DUP2 ADD SWAP3 PUSH1 0x1 ADD PUSH3 0x4A8 JUMP JUMPDEST DUP3 SLOAD DUP10 AND DUP5 MSTORE SWAP3 DUP8 ADD SWAP3 PUSH1 0x1 SWAP3 DUP4 ADD SWAP3 ADD PUSH3 0x479 JUMP JUMPDEST POP CALLVALUE PUSH3 0x194 JUMPI PUSH1 0x20 CALLDATASIZE PUSH1 0x3 NOT ADD SLT PUSH3 0x194 JUMPI PUSH1 0x20 SWAP1 PUSH1 0x40 SWAP1 PUSH1 0x1 PUSH1 0x1 PUSH1 0xA0 SHL SUB PUSH3 0x510 PUSH3 0x1395 JUMP JUMPDEST AND DUP2 MSTORE PUSH1 0x4 DUP4 MSTORE KECCAK256 SLOAD PUSH1 0x40 MLOAD SWAP1 DUP2 MSTORE RETURN JUMPDEST POP CALLVALUE PUSH3 0x194 JUMPI PUSH1 0x40 CALLDATASIZE PUSH1 0x3 NOT ADD SLT PUSH3 0x194 JUMPI PUSH3 0x53F PUSH3 0x1395 JUMP JUMPDEST PUSH1 0x24 CALLDATALOAD PUSH1 0x1 PUSH1 0x1 PUSH1 0xA0 SHL SUB DUP2 DUP2 AND SWAP4 SWAP2 DUP5 SWAP1 SUB PUSH3 0x57F JUMPI PUSH1 0x40 SWAP3 AND DUP2 MSTORE PUSH1 0x5 PUSH1 0x20 MSTORE KECCAK256 SWAP1 PUSH1 0x0 MSTORE PUSH1 0x20 MSTORE PUSH1 0x20 PUSH1 0xFF PUSH1 0x40 PUSH1 0x0 KECCAK256 SLOAD AND PUSH1 0x40 MLOAD SWAP1 ISZERO ISZERO DUP2 MSTORE RETURN JUMPDEST PUSH1 0x0 DUP1 REVERT JUMPDEST POP CALLVALUE PUSH3 0x194 JUMPI DUP1 PUSH1 0x3 NOT CALLDATASIZE ADD SLT PUSH3 0x194 JUMPI SLOAD PUSH1 0x40 MLOAD PUSH1 0x1 PUSH1 0x1 PUSH1 0xA0 SHL SUB SWAP1 SWAP2 AND DUP2 MSTORE PUSH1 0x20 SWAP1 RETURN JUMPDEST POP CALLVALUE PUSH3 0x194 JUMPI DUP1 PUSH1 0x3 NOT CALLDATASIZE ADD SLT PUSH3 0x194 JUMPI PUSH3 0x5CA PUSH3 0x1567 JUMP JUMPDEST PUSH1 0x0 DUP1 SLOAD PUSH1 0x1 PUSH1 0x1 PUSH1 0xA0 SHL SUB NOT DUP2 AND DUP3 SSTORE PUSH1 0x1 PUSH1 0x1 PUSH1 0xA0 SHL SUB AND PUSH32 0x8BE0079C531659141344CD1FD0A4F28419497F9722A3DAAFE3B4186F6B6457E0 DUP3 DUP1 LOG3 DUP1 RETURN JUMPDEST POP PUSH1 0x3 NOT PUSH1 0x20 CALLDATASIZE DUP3 ADD SLT PUSH3 0x2E8 JUMPI PUSH8 0xFFFFFFFFFFFFFFFF PUSH1 0x4 CALLDATALOAD GT PUSH3 0x2E8 JUMPI PUSH2 0x280 SWAP1 PUSH1 0x4 CALLDATALOAD CALLDATASIZE SUB ADD SLT PUSH3 0x194 JUMPI PUSH1 0x2 PUSH1 0x1 SLOAD EQ PUSH3 0x125D JUMPI PUSH1 0x2 PUSH1 0x1 SSTORE PUSH3 0x657 CALLER PUSH3 0x13E4 JUMP JUMPDEST DUP1 CALLVALUE LT PUSH3 0x1218 JUMPI CALLVALUE DUP2 CALLVALUE SUB GT PUSH3 0x1204 JUMPI PUSH3 0x67A PUSH2 0x264 PUSH1 0x4 CALLDATALOAD ADD PUSH3 0x1475 JUMP JUMPDEST ISZERO PUSH3 0x111C JUMPI PUSH2 0x1C4 PUSH1 0x4 CALLDATALOAD ADD CALLDATALOAD ISZERO PUSH3 0x10D7 JUMPI PUSH2 0x1E4 PUSH1 0x4 CALLDATALOAD ADD CALLDATALOAD PUSH3 0x1073 JUMPI PUSH2 0x244 PUSH1 0x4 CALLDATALOAD ADD CALLDATALOAD ISZERO PUSH3 0x102E JUMPI JUMPDEST PUSH3 0x6BB PUSH2 0x264 PUSH1 0x4 CALLDATALOAD ADD PUSH3 0x1475 JUMP JUMPDEST ISZERO PUSH3 0x1020 JUMPI PUSH2 0x1C4 PUSH1 0x4 CALLDATALOAD ADD CALLDATALOAD JUMPDEST DUP1 PUSH3 0x6E2 PUSH2 0x224 PUSH1 0x4 CALLDATALOAD ADD PUSH1 0x4 CALLDATALOAD PUSH1 0x4 ADD PUSH3 0x1483 JUMP JUMPDEST ISZERO SWAP1 POP PUSH3 0xFA4 JUMPI POP DUP3 SWAP1 JUMPDEST PUSH3 0x705 PUSH2 0x224 PUSH1 0x4 CALLDATALOAD ADD PUSH1 0x4 CALLDATALOAD PUSH1 0x4 ADD PUSH3 0x1483 JUMP JUMPDEST SWAP1 POP DUP3 LT ISZERO PUSH3 0x9F0 JUMPI PUSH3 0x732 DUP3 PUSH3 0x72B PUSH2 0x224 PUSH1 0x4 CALLDATALOAD ADD PUSH1 0x4 CALLDATALOAD PUSH1 0x4 ADD PUSH3 0x1483 JUMP JUMPDEST SWAP1 PUSH3 0x14BC JUMP JUMPDEST CALLDATALOAD PUSH1 0x1 PUSH1 0x1 PUSH1 0xA0 SHL SUB DUP2 AND SWAP1 DUP2 SWAP1 SUB PUSH3 0x9EC JUMPI ISZERO PUSH3 0x9A7 JUMPI PUSH1 0x20 PUSH3 0x76A DUP4 PUSH3 0x72B PUSH2 0x224 PUSH1 0x4 CALLDATALOAD ADD PUSH1 0x4 CALLDATALOAD PUSH1 0x4 ADD PUSH3 0x1483 JUMP JUMPDEST ADD CALLDATALOAD ISZERO PUSH3 0x962 JUMPI PUSH3 0x79B PUSH1 0x40 PUSH3 0x794 DUP5 PUSH3 0x72B PUSH2 0x224 PUSH1 0x4 CALLDATALOAD ADD PUSH1 0x4 CALLDATALOAD PUSH1 0x4 ADD PUSH3 0x1483 JUMP JUMPDEST ADD PUSH3 0x1475 JUMP JUMPDEST PUSH3 0x7EB JUMPI JUMPDEST PUSH1 0x20 PUSH3 0x7BF DUP4 PUSH3 0x72B PUSH2 0x224 PUSH1 0x4 CALLDATALOAD ADD PUSH1 0x4 CALLDATALOAD PUSH1 0x4 ADD PUSH3 0x1483 JUMP JUMPDEST ADD CALLDATALOAD DUP2 ADD DUP1 SWAP2 GT PUSH3 0x7D7 JUMPI PUSH1 0x1 SWAP1 SWAP2 ADD SWAP1 PUSH3 0x6EE JUMP JUMPDEST PUSH4 0x4E487B71 PUSH1 0xE0 SHL DUP5 MSTORE PUSH1 0x11 PUSH1 0x4 MSTORE PUSH1 0x24 DUP5 REVERT JUMPDEST PUSH3 0x802 PUSH2 0x224 PUSH1 0x4 CALLDATALOAD ADD PUSH1 0x4 CALLDATALOAD PUSH1 0x4 ADD PUSH3 0x1483 JUMP JUMPDEST SWAP1 PUSH3 0x813 DUP5 PUSH1 0x60 SWAP4 DUP5 SWAP4 PUSH3 0x14BC JUMP JUMPDEST ADD CALLDATALOAD ISZERO PUSH3 0x91D JUMPI PUSH1 0xA0 PUSH3 0x839 DUP5 PUSH3 0x72B PUSH2 0x224 PUSH1 0x4 CALLDATALOAD ADD PUSH1 0x4 CALLDATALOAD PUSH1 0x4 ADD PUSH3 0x1483 JUMP JUMPDEST ADD CALLDATALOAD ISZERO PUSH3 0x8D8 JUMPI PUSH1 0x80 PUSH3 0x85F DUP5 PUSH3 0x72B PUSH2 0x224 PUSH1 0x4 CALLDATALOAD ADD PUSH1 0x4 CALLDATALOAD PUSH1 0x4 ADD PUSH3 0x1483 JUMP JUMPDEST ADD CALLDATALOAD SWAP1 PUSH3 0x87E DUP5 PUSH3 0x72B PUSH2 0x224 PUSH1 0x4 CALLDATALOAD ADD PUSH1 0x4 CALLDATALOAD PUSH1 0x4 ADD PUSH3 0x1483 JUMP JUMPDEST ADD CALLDATALOAD LT ISZERO PUSH3 0x7A1 JUMPI PUSH1 0x40 MLOAD PUSH3 0x461BCD PUSH1 0xE5 SHL DUP2 MSTORE PUSH1 0x20 PUSH1 0x4 DUP3 ADD MSTORE PUSH1 0x23 PUSH1 0x24 DUP3 ADD MSTORE PUSH32 0x436C6966662063616E6E6F74206265206C6F6E676572207468616E2076657374 PUSH1 0x44 DUP3 ADD MSTORE PUSH3 0x696E67 PUSH1 0xE8 SHL PUSH1 0x64 DUP3 ADD MSTORE PUSH1 0x84 SWAP1 REVERT JUMPDEST PUSH1 0x40 MLOAD PUSH3 0x461BCD PUSH1 0xE5 SHL DUP2 MSTORE PUSH1 0x20 PUSH1 0x4 DUP3 ADD MSTORE PUSH1 0x1E PUSH1 0x24 DUP3 ADD MSTORE PUSH32 0x56657374696E672073746172742074696D65206D757374206265203E20300000 PUSH1 0x44 DUP3 ADD MSTORE PUSH1 0x64 SWAP1 REVERT JUMPDEST PUSH1 0x40 MLOAD PUSH3 0x461BCD PUSH1 0xE5 SHL DUP2 MSTORE PUSH1 0x20 PUSH1 0x4 DUP3 ADD MSTORE PUSH1 0x1C PUSH1 0x24 DUP3 ADD MSTORE PUSH32 0x56657374696E67206475726174696F6E206D757374206265203E203000000000 PUSH1 0x44 DUP3 ADD MSTORE PUSH1 0x64 SWAP1 REVERT JUMPDEST PUSH1 0x40 MLOAD PUSH3 0x461BCD PUSH1 0xE5 SHL DUP2 MSTORE PUSH1 0x20 PUSH1 0x4 DUP3 ADD MSTORE PUSH1 0x1D PUSH1 0x24 DUP3 ADD MSTORE PUSH32 0x57616C6C65742070657263656E74616765206D757374206265203E2030000000 PUSH1 0x44 DUP3 ADD MSTORE PUSH1 0x64 SWAP1 REVERT JUMPDEST PUSH1 0x40 MLOAD PUSH3 0x461BCD PUSH1 0xE5 SHL DUP2 MSTORE PUSH1 0x20 PUSH1 0x4 DUP3 ADD MSTORE PUSH1 0x1D PUSH1 0x24 DUP3 ADD MSTORE PUSH32 0x57616C6C657420616464726573732063616E6E6F74206265207A65726F000000 PUSH1 0x44 DUP3 ADD MSTORE PUSH1 0x64 SWAP1 REVERT JUMPDEST DUP5 DUP1 REVERT JUMPDEST PUSH1 0x64 SWAP2 POP JUMPDEST SUB PUSH3 0xF5F JUMPI PUSH1 0x40 MLOAD DUP1 PUSH2 0x2DA7 DUP2 ADD LT PUSH8 0xFFFFFFFFFFFFFFFF PUSH2 0x2DA7 DUP4 ADD GT OR PUSH3 0xF4B JUMPI PUSH2 0x2DA7 PUSH3 0x15C1 DUP3 CODECOPY PUSH32 0x0 PUSH1 0x1 PUSH1 0x1 PUSH1 0xA0 SHL SUB AND PUSH2 0x2DA7 DUP3 ADD SWAP1 DUP2 MSTORE DUP2 SWAP1 SUB PUSH1 0x20 ADD SWAP1 DUP4 CREATE SWAP2 DUP3 ISZERO PUSH3 0xF3F JUMPI PUSH1 0x1 PUSH1 0x1 PUSH1 0xA0 SHL SUB DUP4 AND EXTCODESIZE ISZERO PUSH3 0x194 JUMPI PUSH1 0x40 MLOAD PUSH4 0x3192CBE3 PUSH1 0xE2 SHL DUP2 MSTORE PUSH1 0x20 PUSH1 0x4 DUP3 ADD MSTORE PUSH3 0xAE6 PUSH3 0xABD PUSH3 0xAA9 PUSH1 0x4 CALLDATALOAD PUSH1 0x4 ADD PUSH1 0x4 CALLDATALOAD PUSH1 0x4 ADD PUSH3 0x14CD JUMP JUMPDEST PUSH2 0x280 PUSH1 0x24 DUP7 ADD MSTORE PUSH2 0x2A4 DUP6 ADD SWAP2 PUSH3 0x1502 JUMP JUMPDEST PUSH3 0xAD3 PUSH1 0x24 PUSH1 0x4 CALLDATALOAD ADD PUSH1 0x4 CALLDATALOAD PUSH1 0x4 ADD PUSH3 0x14CD JUMP JUMPDEST DUP5 DUP4 SUB PUSH1 0x23 NOT ADD PUSH1 0x44 DUP7 ADD MSTORE SWAP1 PUSH3 0x1502 JUMP JUMPDEST PUSH1 0x44 PUSH1 0x4 CALLDATALOAD ADD CALLDATALOAD PUSH1 0x64 DUP4 ADD MSTORE PUSH1 0x64 PUSH1 0x4 CALLDATALOAD ADD CALLDATALOAD PUSH1 0x84 DUP4 ADD MSTORE PUSH1 0x1 DUP1 PUSH1 0xA0 SHL SUB PUSH3 0xB15 PUSH1 0x84 PUSH1 0x4 CALLDATALOAD ADD PUSH3 0x13AC JUMP JUMPDEST AND PUSH1 0xA4 DUP4 ADD MSTORE PUSH3 0xB2B PUSH1 0xA4 PUSH1 0x4 CALLDATALOAD ADD PUSH3 0x1523 JUMP JUMPDEST ISZERO ISZERO PUSH1 0xC4 DUP4 ADD MSTORE PUSH3 0xB42 PUSH1 0xC4 PUSH1 0x4 CALLDATALOAD ADD PUSH3 0x1523 JUMP JUMPDEST ISZERO ISZERO PUSH1 0xE4 DUP4 ADD MSTORE PUSH2 0x104 PUSH1 0xE4 PUSH1 0x4 CALLDATALOAD ADD CALLDATALOAD DUP2 DUP5 ADD MSTORE PUSH2 0x124 SWAP1 PUSH1 0x4 CALLDATALOAD ADD CALLDATALOAD DUP2 DUP5 ADD MSTORE PUSH2 0x144 SWAP1 PUSH1 0x4 CALLDATALOAD ADD CALLDATALOAD DUP2 DUP5 ADD MSTORE PUSH2 0x164 SWAP1 PUSH1 0x4 CALLDATALOAD ADD CALLDATALOAD DUP2 DUP5 ADD MSTORE PUSH2 0x184 SWAP1 PUSH1 0x4 CALLDATALOAD ADD CALLDATALOAD DUP2 DUP5 ADD MSTORE PUSH2 0x1A4 SWAP1 PUSH1 0x4 CALLDATALOAD ADD CALLDATALOAD DUP2 DUP5 ADD MSTORE PUSH2 0x1C4 SWAP1 PUSH1 0x4 CALLDATALOAD ADD CALLDATALOAD DUP2 DUP5 ADD MSTORE PUSH2 0x1E4 SWAP1 PUSH1 0x4 CALLDATALOAD ADD CALLDATALOAD DUP2 DUP5 ADD MSTORE PUSH2 0x204 SWAP1 PUSH1 0x4 CALLDATALOAD ADD CALLDATALOAD DUP2 DUP5 ADD MSTORE PUSH1 0x4 CALLDATALOAD ADD CALLDATALOAD PUSH2 0x224 DUP4 ADD MSTORE PUSH2 0x224 PUSH1 0x4 CALLDATALOAD ADD CALLDATALOAD PUSH1 0x22 NOT PUSH1 0x4 CALLDATALOAD CALLDATASIZE SUB ADD DUP2 SLT ISZERO PUSH3 0xF3B JUMPI PUSH1 0x4 CALLDATALOAD ADD SWAP1 PUSH8 0xFFFFFFFFFFFFFFFF PUSH1 0x4 DUP4 ADD CALLDATALOAD GT PUSH3 0xF3B JUMPI PUSH1 0xC0 PUSH1 0x4 DUP4 ADD CALLDATALOAD MUL CALLDATASIZE SUB PUSH1 0x24 DUP4 ADD SGT PUSH3 0xF3B JUMPI DUP3 PUSH1 0x20 DUP6 SWAP3 PUSH1 0x23 NOT DUP4 DUP3 SUB ADD PUSH2 0x244 DUP5 ADD MSTORE PUSH1 0x4 DUP6 ADD CALLDATALOAD DUP2 MSTORE ADD PUSH1 0x24 DUP5 ADD SWAP4 DUP4 JUMPDEST PUSH1 0x4 DUP3 ADD CALLDATALOAD DUP2 LT PUSH3 0xECB JUMPI POP POP DUP2 SWAP3 SWAP4 POP PUSH2 0x244 PUSH1 0x4 CALLDATALOAD ADD CALLDATALOAD PUSH2 0x264 DUP4 ADD MSTORE PUSH3 0xC62 PUSH2 0x264 PUSH1 0x4 CALLDATALOAD ADD PUSH3 0x1523 JUMP JUMPDEST ISZERO ISZERO PUSH2 0x284 DUP4 ADD MSTORE SUB DUP2 DUP4 PUSH1 0x1 PUSH1 0x1 PUSH1 0xA0 SHL SUB DUP10 AND GAS CALL DUP1 ISZERO PUSH3 0xEC0 JUMPI PUSH3 0xE92 JUMPI JUMPDEST POP SWAP1 PUSH1 0x3 SLOAD PUSH9 0x10000000000000000 SWAP1 DUP2 DUP2 LT ISZERO PUSH3 0x17E JUMPI PUSH1 0x1 DUP2 ADD DUP1 PUSH1 0x3 SSTORE DUP2 LT ISZERO PUSH3 0xE7C JUMPI PUSH1 0x3 PUSH1 0x0 MSTORE PUSH32 0xC2575A0E9E593C00F959F8C92F12DB2869C3395A3B0502D05E2516446F71F85B ADD DUP1 SLOAD PUSH1 0x1 PUSH1 0x1 PUSH1 0xA0 SHL SUB NOT SWAP1 DUP2 AND PUSH1 0x1 PUSH1 0x1 PUSH1 0xA0 SHL SUB DUP8 AND OR SWAP1 SWAP2 SSTORE CALLER DUP5 MSTORE PUSH1 0x4 PUSH1 0x20 MSTORE PUSH1 0x40 DUP5 KECCAK256 DUP1 SLOAD SWAP2 SWAP3 DUP3 LT ISZERO PUSH3 0x17E JUMPI PUSH1 0x1 DUP3 ADD DUP1 DUP3 SSTORE DUP3 LT ISZERO PUSH3 0xE7C JUMPI PUSH1 0x0 SWAP1 DUP2 MSTORE PUSH1 0x20 DUP1 DUP3 KECCAK256 SWAP3 SWAP1 SWAP3 ADD DUP1 SLOAD DUP5 AND PUSH1 0x1 PUSH1 0x1 PUSH1 0xA0 SHL SUB DUP9 AND SWAP1 DUP2 OR SWAP1 SWAP2 SSTORE CALLER DUP1 DUP8 MSTORE PUSH1 0x5 DUP5 MSTORE PUSH1 0x40 DUP1 DUP9 KECCAK256 DUP4 DUP6 MSTORE DUP6 MSTORE SWAP3 DUP4 SWAP1 KECCAK256 DUP1 SLOAD PUSH1 0xFF NOT AND PUSH1 0x1 OR SWAP1 SSTORE SWAP1 DUP7 MSTORE PUSH1 0x6 SWAP1 SWAP3 MSTORE DUP5 KECCAK256 DUP1 SLOAD SWAP1 SWAP3 AND OR SWAP1 SSTORE CALLVALUE DUP2 SWAP1 SUB PUSH3 0xE15 JUMPI JUMPDEST PUSH1 0x20 DUP4 PUSH3 0xD8B PUSH1 0x4 DUP1 CALLDATALOAD ADD DUP1 PUSH3 0x1531 JUMP JUMPDEST PUSH32 0xD5D05A8421149C74FD223CFC823BEFB883BABF9BF0B0E4D6BF9C8FDB70E59BB4 PUSH3 0xDC2 PUSH1 0x24 PUSH1 0x4 CALLDATALOAD ADD PUSH1 0x4 CALLDATALOAD PUSH1 0x4 ADD PUSH3 0x1531 JUMP JUMPDEST SWAP4 SWAP1 SWAP3 PUSH3 0xDFC PUSH3 0xDE2 PUSH1 0x40 MLOAD SWAP4 DUP5 SWAP4 PUSH1 0x40 DUP6 MSTORE PUSH1 0x40 DUP6 ADD SWAP2 PUSH3 0x1502 JUMP JUMPDEST DUP3 DUP2 SUB DUP10 DUP5 ADD MSTORE CALLER SWAP7 PUSH1 0x1 PUSH1 0x1 PUSH1 0xA0 SHL SUB DUP10 AND SWAP7 PUSH3 0x1502 JUMP JUMPDEST SUB SWAP1 LOG3 PUSH1 0x1 DUP1 SSTORE PUSH1 0x40 MLOAD PUSH1 0x1 PUSH1 0x1 PUSH1 0xA0 SHL SUB SWAP1 SWAP2 AND DUP2 MSTORE RETURN JUMPDEST DUP2 DUP1 DUP1 SWAP3 CALLVALUE SUB CALLER GAS CALL PUSH3 0xE28 PUSH3 0x1431 JUMP JUMPDEST POP ISZERO PUSH3 0xE37 JUMPI CODESIZE DUP1 PUSH3 0xD78 JUMP JUMPDEST PUSH1 0x40 MLOAD PUSH3 0x461BCD PUSH1 0xE5 SHL DUP2 MSTORE PUSH1 0x20 PUSH1 0x4 DUP3 ADD MSTORE PUSH1 0x1B PUSH1 0x24 DUP3 ADD MSTORE PUSH32 0x4661696C656420746F2072657475726E20657863657373204554480000000000 PUSH1 0x44 DUP3 ADD MSTORE PUSH1 0x64 SWAP1 REVERT JUMPDEST PUSH4 0x4E487B71 PUSH1 0xE0 SHL PUSH1 0x0 MSTORE PUSH1 0x32 PUSH1 0x4 MSTORE PUSH1 0x24 PUSH1 0x0 REVERT JUMPDEST PUSH8 0xFFFFFFFFFFFFFFFF DUP2 GT PUSH3 0xEAC JUMPI PUSH1 0x40 MSTORE CODESIZE PUSH3 0xC86 JUMP JUMPDEST PUSH4 0x4E487B71 PUSH1 0xE0 SHL DUP3 MSTORE PUSH1 0x41 PUSH1 0x4 MSTORE PUSH1 0x24 DUP3 REVERT JUMPDEST PUSH1 0x40 MLOAD RETURNDATASIZE DUP5 DUP3 RETURNDATACOPY RETURNDATASIZE SWAP1 REVERT JUMPDEST SWAP3 POP SWAP3 POP PUSH1 0x1 PUSH1 0xC0 DUP1 PUSH1 0x4 SWAP4 DUP4 DUP1 PUSH1 0xA0 SHL SUB PUSH3 0xEE8 DUP10 PUSH3 0x13AC JUMP JUMPDEST AND DUP2 MSTORE PUSH1 0x20 DUP9 ADD CALLDATALOAD PUSH1 0x20 DUP3 ADD MSTORE PUSH3 0xF03 PUSH1 0x40 DUP10 ADD PUSH3 0x1523 JUMP JUMPDEST ISZERO ISZERO PUSH1 0x40 DUP3 ADD MSTORE PUSH1 0x60 DUP1 DUP10 ADD CALLDATALOAD SWAP1 DUP3 ADD MSTORE PUSH1 0x80 DUP1 DUP10 ADD CALLDATALOAD SWAP1 DUP3 ADD MSTORE PUSH1 0xA0 DUP1 DUP10 ADD CALLDATALOAD SWAP1 DUP3 ADD MSTORE ADD SWAP6 ADD SWAP3 ADD DUP6 SWAP3 SWAP5 SWAP2 POP SWAP3 DUP7 SWAP4 PUSH3 0xC31 JUMP JUMPDEST DUP4 DUP1 REVERT JUMPDEST PUSH1 0x40 MLOAD SWAP1 RETURNDATASIZE SWAP1 DUP3 RETURNDATACOPY RETURNDATASIZE SWAP1 REVERT JUMPDEST PUSH4 0x4E487B71 PUSH1 0xE0 SHL DUP4 MSTORE PUSH1 0x41 PUSH1 0x4 MSTORE PUSH1 0x24 DUP4 REVERT JUMPDEST PUSH1 0x40 MLOAD PUSH3 0x461BCD PUSH1 0xE5 SHL DUP2 MSTORE PUSH1 0x20 PUSH1 0x4 DUP3 ADD MSTORE PUSH1 0x1C PUSH1 0x24 DUP3 ADD MSTORE PUSH32 0x546F74616C2070657263656E74616765206D7573742062652031303000000000 PUSH1 0x44 DUP3 ADD MSTORE PUSH1 0x64 SWAP1 REVERT JUMPDEST PUSH1 0x64 SUB PUSH3 0xFB5 JUMPI PUSH1 0x64 SWAP1 PUSH3 0x9F5 JUMP JUMPDEST PUSH1 0x40 MLOAD PUSH3 0x461BCD PUSH1 0xE5 SHL DUP2 MSTORE PUSH1 0x20 PUSH1 0x4 DUP3 ADD MSTORE PUSH1 0x38 PUSH1 0x24 DUP3 ADD MSTORE PUSH32 0x546F74616C2070657263656E74616765206D7573742062652031303025207768 PUSH1 0x44 DUP3 ADD MSTORE PUSH32 0x656E206E6F206164646974696F6E616C2077616C6C6574730000000000000000 PUSH1 0x64 DUP3 ADD MSTORE PUSH1 0x84 SWAP1 REVERT JUMPDEST PUSH2 0x1E4 PUSH1 0x4 CALLDATALOAD ADD CALLDATALOAD PUSH3 0x6CA JUMP JUMPDEST PUSH1 0x40 MLOAD PUSH3 0x461BCD PUSH1 0xE5 SHL DUP2 MSTORE PUSH1 0x20 PUSH1 0x4 DUP3 ADD MSTORE PUSH1 0x1F PUSH1 0x24 DUP3 ADD MSTORE PUSH32 0x4D6178206163746976652070726573616C6573206D757374206265203E203000 PUSH1 0x44 DUP3 ADD MSTORE PUSH1 0x64 SWAP1 REVERT JUMPDEST PUSH1 0x40 MLOAD PUSH3 0x461BCD PUSH1 0xE5 SHL DUP2 MSTORE PUSH1 0x20 PUSH1 0x4 DUP3 ADD MSTORE PUSH1 0x36 PUSH1 0x24 DUP3 ADD MSTORE PUSH32 0x4C69717569646974792070657263656E74616765206D75737420626520302077 PUSH1 0x44 DUP3 ADD MSTORE PUSH22 0x1A195B881C1C995CD85B19481A5CC8195B98589B1959 PUSH1 0x52 SHL PUSH1 0x64 DUP3 ADD MSTORE PUSH1 0x84 SWAP1 REVERT JUMPDEST PUSH1 0x40 MLOAD PUSH3 0x461BCD PUSH1 0xE5 SHL DUP2 MSTORE PUSH1 0x20 PUSH1 0x4 DUP3 ADD MSTORE PUSH1 0x1E PUSH1 0x24 DUP3 ADD MSTORE PUSH32 0x50726573616C652070657263656E74616765206D757374206265203E20300000 PUSH1 0x44 DUP3 ADD MSTORE PUSH1 0x64 SWAP1 REVERT JUMPDEST PUSH2 0x1C4 PUSH1 0x4 CALLDATALOAD ADD CALLDATALOAD PUSH3 0x11A1 JUMPI PUSH2 0x1E4 PUSH1 0x4 CALLDATALOAD ADD CALLDATALOAD PUSH3 0x6AA JUMPI PUSH1 0x40 MLOAD PUSH3 0x461BCD PUSH1 0xE5 SHL DUP2 MSTORE PUSH1 0x20 PUSH1 0x4 DUP3 ADD MSTORE PUSH1 0x39 PUSH1 0x24 DUP3 ADD MSTORE PUSH32 0x4C69717569646974792070657263656E74616765206D757374206265203E2030 PUSH1 0x44 DUP3 ADD MSTORE PUSH32 0x207768656E2070726573616C652069732064697361626C656400000000000000 PUSH1 0x64 DUP3 ADD MSTORE PUSH1 0x84 SWAP1 REVERT JUMPDEST PUSH1 0x40 MLOAD PUSH3 0x461BCD PUSH1 0xE5 SHL DUP2 MSTORE PUSH1 0x20 PUSH1 0x4 DUP3 ADD MSTORE PUSH1 0x35 PUSH1 0x24 DUP3 ADD MSTORE PUSH32 0x50726573616C652070657263656E74616765206D757374206265203020776865 PUSH1 0x44 DUP3 ADD MSTORE PUSH21 0x1B881C1C995CD85B19481A5CC8191A5CD8589B1959 PUSH1 0x5A SHL PUSH1 0x64 DUP3 ADD MSTORE PUSH1 0x84 SWAP1 REVERT JUMPDEST PUSH4 0x4E487B71 PUSH1 0xE0 SHL DUP3 MSTORE PUSH1 0x11 PUSH1 0x4 MSTORE PUSH1 0x24 DUP3 REVERT JUMPDEST PUSH1 0x40 MLOAD PUSH3 0x461BCD PUSH1 0xE5 SHL DUP2 MSTORE PUSH1 0x20 PUSH1 0x4 DUP3 ADD MSTORE PUSH1 0x1B PUSH1 0x24 DUP3 ADD MSTORE PUSH32 0x496E73756666696369656E74206465706C6F796D656E74206665650000000000 PUSH1 0x44 DUP3 ADD MSTORE PUSH1 0x64 SWAP1 REVERT JUMPDEST PUSH1 0x40 MLOAD PUSH3 0x461BCD PUSH1 0xE5 SHL DUP2 MSTORE PUSH1 0x20 PUSH1 0x4 DUP3 ADD MSTORE PUSH1 0x1F PUSH1 0x24 DUP3 ADD MSTORE PUSH32 0x5265656E7472616E637947756172643A207265656E7472616E742063616C6C00 PUSH1 0x44 DUP3 ADD MSTORE PUSH1 0x64 SWAP1 REVERT JUMPDEST POP CALLVALUE PUSH3 0x194 JUMPI DUP1 PUSH1 0x3 NOT CALLDATASIZE ADD SLT PUSH3 0x194 JUMPI PUSH3 0x12BF PUSH3 0x1567 JUMP JUMPDEST DUP1 DUP1 DUP1 DUP1 PUSH1 0x1 DUP1 PUSH1 0xA0 SHL SUB DUP2 SLOAD AND SELFBALANCE SWAP1 GAS CALL PUSH3 0x12DB PUSH3 0x1431 JUMP JUMPDEST POP ISZERO PUSH3 0x12E5 JUMPI DUP1 RETURN JUMPDEST PUSH1 0x40 MLOAD PUSH3 0x461BCD PUSH1 0xE5 SHL DUP2 MSTORE PUSH1 0x20 PUSH1 0x4 DUP3 ADD MSTORE PUSH1 0xF PUSH1 0x24 DUP3 ADD MSTORE PUSH15 0x151C985B9CD9995C8819985A5B1959 PUSH1 0x8A SHL PUSH1 0x44 DUP3 ADD MSTORE PUSH1 0x64 SWAP1 REVERT JUMPDEST POP CALLVALUE PUSH3 0x194 JUMPI DUP1 PUSH1 0x3 NOT CALLDATASIZE ADD SLT PUSH3 0x194 JUMPI PUSH1 0x40 MLOAD PUSH32 0x0 PUSH1 0x1 PUSH1 0x1 PUSH1 0xA0 SHL SUB AND DUP2 MSTORE PUSH1 0x20 SWAP1 RETURN JUMPDEST POP CALLVALUE PUSH3 0x194 JUMPI PUSH1 0x20 CALLDATASIZE PUSH1 0x3 NOT ADD SLT PUSH3 0x194 JUMPI PUSH1 0x20 PUSH3 0x138D PUSH3 0x1387 PUSH3 0x1395 JUMP JUMPDEST PUSH3 0x13E4 JUMP JUMPDEST PUSH1 0x40 MLOAD SWAP1 DUP2 MSTORE RETURN JUMPDEST PUSH1 0x4 CALLDATALOAD SWAP1 PUSH1 0x1 PUSH1 0x1 PUSH1 0xA0 SHL SUB DUP3 AND DUP3 SUB PUSH3 0x57F JUMPI JUMP JUMPDEST CALLDATALOAD SWAP1 PUSH1 0x1 PUSH1 0x1 PUSH1 0xA0 SHL SUB DUP3 AND DUP3 SUB PUSH3 0x57F JUMPI JUMP JUMPDEST SWAP1 PUSH1 0x1F DUP1 NOT SWAP2 ADD AND DUP2 ADD SWAP1 DUP2 LT PUSH8 0xFFFFFFFFFFFFFFFF DUP3 GT OR PUSH3 0x17E JUMPI PUSH1 0x40 MSTORE JUMP JUMPDEST PUSH1 0x1 PUSH1 0x1 PUSH1 0xA0 SHL SUB AND PUSH1 0x0 SWAP1 DUP2 MSTORE PUSH1 0x7 PUSH1 0x20 MSTORE PUSH1 0x40 SWAP1 KECCAK256 SLOAD DUP1 ISZERO DUP1 ISZERO SWAP1 DUP1 PUSH3 0x1418 JUMPI JUMPDEST POP PUSH3 0x1415 JUMPI POP PUSH1 0x2 SLOAD SWAP1 JUMP JUMPDEST SWAP1 JUMP JUMPDEST SWAP1 DUP2 PUSH3 0x1428 JUMPI JUMPDEST POP CODESIZE PUSH3 0x1408 JUMP JUMPDEST SWAP1 POP CODESIZE PUSH3 0x1420 JUMP JUMPDEST RETURNDATASIZE ISZERO PUSH3 0x1470 JUMPI RETURNDATASIZE SWAP1 PUSH8 0xFFFFFFFFFFFFFFFF DUP3 GT PUSH3 0x17E JUMPI PUSH1 0x40 MLOAD SWAP2 PUSH3 0x1464 PUSH1 0x1F DUP3 ADD PUSH1 0x1F NOT AND PUSH1 0x20 ADD DUP5 PUSH3 0x13C1 JUMP JUMPDEST DUP3 MSTORE RETURNDATASIZE PUSH1 0x0 PUSH1 0x20 DUP5 ADD RETURNDATACOPY JUMP JUMPDEST PUSH1 0x60 SWAP1 JUMP JUMPDEST CALLDATALOAD DUP1 ISZERO ISZERO DUP2 SUB PUSH3 0x57F JUMPI SWAP1 JUMP JUMPDEST SWAP1 CALLDATALOAD SWAP1 PUSH1 0x1E NOT DUP2 CALLDATASIZE SUB ADD DUP3 SLT ISZERO PUSH3 0x57F JUMPI ADD DUP1 CALLDATALOAD SWAP1 PUSH8 0xFFFFFFFFFFFFFFFF DUP3 GT PUSH3 0x57F JUMPI PUSH1 0x20 ADD SWAP2 PUSH1 0xC0 DUP3 MUL CALLDATASIZE SUB DUP4 SGT PUSH3 0x57F JUMPI JUMP JUMPDEST SWAP2 SWAP1 DUP2 LT ISZERO PUSH3 0xE7C JUMPI PUSH1 0xC0 MUL ADD SWAP1 JUMP JUMPDEST SWAP1 CALLDATALOAD PUSH1 0x1E NOT DUP3 CALLDATASIZE SUB ADD DUP2 SLT ISZERO PUSH3 0x57F JUMPI ADD PUSH1 0x20 DUP2 CALLDATALOAD SWAP2 ADD SWAP2 PUSH8 0xFFFFFFFFFFFFFFFF DUP3 GT PUSH3 0x57F JUMPI DUP2 CALLDATASIZE SUB DUP4 SGT PUSH3 0x57F JUMPI JUMP JUMPDEST SWAP1 DUP1 PUSH1 0x20 SWAP4 SWAP3 DUP2 DUP5 MSTORE DUP5 DUP5 ADD CALLDATACOPY PUSH1 0x0 DUP3 DUP3 ADD DUP5 ADD MSTORE PUSH1 0x1F ADD PUSH1 0x1F NOT AND ADD ADD SWAP1 JUMP JUMPDEST CALLDATALOAD SWAP1 DUP2 ISZERO ISZERO DUP3 SUB PUSH3 0x57F JUMPI JUMP JUMPDEST SWAP1 CALLDATALOAD SWAP1 PUSH1 0x1E NOT DUP2 CALLDATASIZE SUB ADD DUP3 SLT ISZERO PUSH3 0x57F JUMPI ADD DUP1 CALLDATALOAD SWAP1 PUSH8 0xFFFFFFFFFFFFFFFF DUP3 GT PUSH3 0x57F JUMPI PUSH1 0x20 ADD SWAP2 DUP2 CALLDATASIZE SUB DUP4 SGT PUSH3 0x57F JUMPI JUMP JUMPDEST PUSH1 0x0 SLOAD PUSH1 0x1 PUSH1 0x1 PUSH1 0xA0 SHL SUB AND CALLER SUB PUSH3 0x157C JUMPI JUMP JUMPDEST PUSH1 0x64 PUSH1 0x40 MLOAD PUSH3 0x461BCD PUSH1 0xE5 SHL DUP2 MSTORE PUSH1 0x20 PUSH1 0x4 DUP3 ADD MSTORE PUSH1 0x20 PUSH1 0x24 DUP3 ADD MSTORE PUSH32 0x4F776E61626C653A2063616C6C6572206973206E6F7420746865206F776E6572 PUSH1 0x44 DUP3 ADD MSTORE REVERT INVALID PUSH1 0xA0 CALLVALUE PUSH3 0x3E0 JUMPI PUSH1 0x1 PUSH1 0x1 PUSH1 0x40 SHL SUB SWAP1 PUSH1 0x1F SWAP1 PUSH1 0x1F NOT PUSH3 0x2DA7 CODESIZE DUP2 SWAP1 SUB DUP5 DUP2 ADD DUP4 AND DUP5 ADD DUP7 DUP2 GT DUP6 DUP3 LT OR PUSH3 0x3E5 JUMPI DUP5 SWAP3 DUP3 SWAP2 PUSH1 0x40 MSTORE DUP4 CODECOPY PUSH1 0x20 SWAP4 DUP5 SWAP2 DUP2 ADD SUB SLT PUSH3 0x3E0 JUMPI MLOAD PUSH1 0x1 PUSH1 0x1 PUSH1 0xA0 SHL SUB DUP1 DUP3 AND SWAP6 SWAP1 SWAP5 SWAP1 SWAP2 DUP7 SWAP1 SUB PUSH3 0x3E0 JUMPI PUSH3 0x6B PUSH3 0x3FB JUMP JUMPDEST SWAP2 PUSH1 0x0 SWAP2 DUP3 DUP5 MSTORE PUSH3 0x7C PUSH3 0x3FB JUMP JUMPDEST SWAP1 DUP4 DUP3 MSTORE DUP5 MLOAD SWAP2 DUP4 DUP4 GT PUSH3 0x2EC JUMPI PUSH1 0x3 SWAP3 DUP4 SLOAD SWAP7 PUSH1 0x1 SWAP8 DUP9 DUP2 DUP2 SHR SWAP2 AND DUP1 ISZERO PUSH3 0x3D5 JUMPI JUMPDEST DUP12 DUP3 LT EQ PUSH3 0x3C1 JUMPI SWAP1 DUP2 DUP6 DUP5 SWAP4 GT PUSH3 0x36E JUMPI JUMPDEST POP DUP11 SWAP1 DUP6 DUP4 GT PUSH1 0x1 EQ PUSH3 0x30C JUMPI DUP9 SWAP3 PUSH3 0x300 JUMPI JUMPDEST POP POP PUSH1 0x0 NOT DUP3 DUP7 SHL SHR NOT AND SWAP1 DUP8 SHL OR DUP4 SSTORE JUMPDEST DUP1 MLOAD SWAP4 DUP5 GT PUSH3 0x2EC JUMPI PUSH1 0x4 SWAP7 DUP8 SLOAD DUP8 DUP2 DUP2 SHR SWAP2 AND DUP1 ISZERO PUSH3 0x2E1 JUMPI JUMPDEST DUP11 DUP3 LT EQ PUSH3 0x2CE JUMPI SWAP1 DUP2 DUP5 DUP8 SWAP7 SWAP6 SWAP5 SWAP4 GT PUSH3 0x275 JUMPI JUMPDEST POP DUP10 SWAP3 DUP6 GT PUSH1 0x1 EQ PUSH3 0x211 JUMPI POP DUP6 SWAP4 PUSH3 0x205 JUMPI JUMPDEST POP POP DUP3 DUP6 SHL SWAP3 PUSH1 0x0 NOT SWAP2 SHL SHR NOT AND OR DUP4 SSTORE JUMPDEST PUSH1 0x5 SLOAD SWAP1 PUSH2 0x100 PUSH1 0x1 PUSH1 0xA8 SHL SUB CALLER PUSH1 0x8 SHL AND PUSH1 0x1 DUP1 PUSH1 0xA8 SHL SUB NOT DUP4 AND OR PUSH1 0x5 SSTORE PUSH32 0x8BE0079C531659141344CD1FD0A4F28419497F9722A3DAAFE3B4186F6B6457E0 PUSH1 0x40 MLOAD SWAP7 CALLER SWAP4 PUSH1 0x8 SHR AND SWAP2 DUP1 LOG3 PUSH1 0x6 SSTORE DUP4 ISZERO PUSH3 0x1C6 JUMPI DUP4 PUSH1 0x80 MSTORE PUSH1 0x40 MLOAD PUSH2 0x298B SWAP1 DUP2 PUSH3 0x41C DUP3 CODECOPY PUSH1 0x80 MLOAD DUP2 DUP2 DUP2 PUSH2 0x16EA ADD MSTORE DUP2 DUP2 PUSH2 0x199B ADD MSTORE DUP2 DUP2 PUSH2 0x1A8A ADD MSTORE PUSH2 0x1CF6 ADD MSTORE RETURN JUMPDEST PUSH3 0x461BCD PUSH1 0xE5 SHL DUP4 MSTORE DUP3 ADD MSTORE PUSH1 0x16 PUSH1 0x24 DUP3 ADD MSTORE PUSH32 0x496E76616C696420726F75746572206164647265737300000000000000000000 PUSH1 0x44 DUP3 ADD MSTORE PUSH1 0x64 SWAP2 POP REVERT JUMPDEST ADD MLOAD SWAP2 POP CODESIZE DUP1 PUSH3 0x12A JUMP JUMPDEST DUP9 DUP8 MSTORE DUP10 DUP8 KECCAK256 DUP9 SWAP7 SWAP1 SWAP5 SWAP4 SWAP3 SWAP2 AND DUP8 JUMPDEST DUP12 DUP3 DUP3 LT PUSH3 0x25E JUMPI POP POP DUP6 GT PUSH3 0x243 JUMPI JUMPDEST POP POP POP POP DUP2 SHL ADD DUP4 SSTORE PUSH3 0x13C JUMP JUMPDEST ADD MLOAD SWAP1 PUSH1 0xF8 DUP5 PUSH1 0x0 NOT SWAP3 SHL AND SHR NOT AND SWAP1 SSTORE CODESIZE DUP1 DUP1 DUP1 PUSH3 0x234 JUMP JUMPDEST DUP4 DUP6 ADD MLOAD DUP8 SSTORE DUP11 SWAP9 SWAP1 SWAP7 ADD SWAP6 SWAP4 DUP5 ADD SWAP4 ADD PUSH3 0x221 JUMP JUMPDEST SWAP1 SWAP2 SWAP3 SWAP4 SWAP5 POP DUP9 DUP8 MSTORE DUP10 DUP8 KECCAK256 DUP5 DUP1 DUP9 ADD PUSH1 0x5 SHR DUP3 ADD SWAP3 DUP13 DUP10 LT PUSH3 0x2C4 JUMPI JUMPDEST SWAP2 DUP11 SWAP2 DUP10 SWAP9 SWAP8 SWAP7 SWAP6 SWAP5 SWAP4 ADD PUSH1 0x5 SHR ADD SWAP2 JUMPDEST DUP3 DUP2 LT PUSH3 0x2B5 JUMPI POP POP PUSH3 0x114 JUMP JUMPDEST DUP10 DUP2 SSTORE DUP9 SWAP8 POP DUP11 SWAP2 ADD PUSH3 0x2A5 JUMP JUMPDEST SWAP3 POP DUP2 SWAP3 PUSH3 0x294 JUMP JUMPDEST PUSH4 0x4E487B71 PUSH1 0xE0 SHL DUP8 MSTORE PUSH1 0x22 DUP10 MSTORE PUSH1 0x24 DUP8 REVERT JUMPDEST SWAP1 PUSH1 0x7F AND SWAP1 PUSH3 0xFC JUMP JUMPDEST PUSH4 0x4E487B71 PUSH1 0xE0 SHL DUP6 MSTORE PUSH1 0x41 PUSH1 0x4 MSTORE PUSH1 0x24 DUP6 REVERT JUMPDEST ADD MLOAD SWAP1 POP CODESIZE DUP1 PUSH3 0xCD JUMP JUMPDEST SWAP1 DUP11 DUP11 SWAP5 AND SWAP2 DUP8 DUP11 MSTORE DUP13 DUP11 KECCAK256 SWAP3 DUP14 DUP12 SWAP1 JUMPDEST DUP3 DUP3 LT PUSH3 0x356 JUMPI POP POP DUP5 GT PUSH3 0x33D JUMPI JUMPDEST POP POP POP DUP2 SHL ADD DUP4 SSTORE PUSH3 0xDF JUMP JUMPDEST ADD MLOAD PUSH1 0x0 NOT DUP4 DUP9 SHL PUSH1 0xF8 AND SHR NOT AND SWAP1 SSTORE CODESIZE DUP1 DUP1 PUSH3 0x32F JUMP JUMPDEST DUP4 DUP6 ADD MLOAD DUP7 SSTORE DUP14 SWAP8 SWAP1 SWAP6 ADD SWAP5 SWAP4 DUP5 ADD SWAP4 ADD DUP15 PUSH3 0x31D JUMP JUMPDEST SWAP1 SWAP2 POP DUP6 DUP9 MSTORE DUP11 DUP9 KECCAK256 DUP6 DUP1 DUP6 ADD PUSH1 0x5 SHR DUP3 ADD SWAP3 DUP14 DUP7 LT PUSH3 0x3B7 JUMPI JUMPDEST SWAP2 DUP12 SWAP2 DUP7 SWAP6 SWAP5 SWAP4 ADD PUSH1 0x5 SHR ADD SWAP2 JUMPDEST DUP3 DUP2 LT PUSH3 0x3A8 JUMPI POP POP PUSH3 0xB7 JUMP JUMPDEST DUP11 DUP2 SSTORE DUP6 SWAP5 POP DUP12 SWAP2 ADD PUSH3 0x398 JUMP JUMPDEST SWAP3 POP DUP2 SWAP3 PUSH3 0x38A JUMP JUMPDEST PUSH4 0x4E487B71 PUSH1 0xE0 SHL DUP9 MSTORE PUSH1 0x22 PUSH1 0x4 MSTORE PUSH1 0x24 DUP9 REVERT JUMPDEST SWAP1 PUSH1 0x7F AND SWAP1 PUSH3 0xA2 JUMP JUMPDEST PUSH1 0x0 DUP1 REVERT JUMPDEST PUSH4 0x4E487B71 PUSH1 0xE0 SHL PUSH1 0x0 MSTORE PUSH1 0x41 PUSH1 0x4 MSTORE PUSH1 0x24 PUSH1 0x0 REVERT JUMPDEST PUSH1 0x40 MLOAD SWAP1 PUSH1 0x20 DUP3 ADD PUSH1 0x1 PUSH1 0x1 PUSH1 0x40 SHL SUB DUP2 GT DUP4 DUP3 LT OR PUSH3 0x3E5 JUMPI PUSH1 0x40 MSTORE JUMP INVALID PUSH1 0x80 DUP1 PUSH1 0x40 MSTORE PUSH1 0x4 CALLDATASIZE LT ISZERO PUSH2 0x13 JUMPI PUSH1 0x0 DUP1 REVERT JUMPDEST PUSH1 0x0 CALLDATALOAD PUSH1 0xE0 SHR SWAP1 DUP2 PUSH4 0x48B87BA EQ PUSH2 0x1EE5 JUMPI POP DUP1 PUSH4 0x6FDDE03 EQ PUSH2 0x1E3D JUMPI DUP1 PUSH4 0x95EA7B3 EQ PUSH2 0x1E17 JUMPI DUP1 PUSH4 0x143B237F EQ PUSH2 0x1DF4 JUMPI DUP1 PUSH4 0x153B0D1E EQ PUSH2 0x1D25 JUMPI DUP1 PUSH4 0x1694505E EQ PUSH2 0x1CE0 JUMPI DUP1 PUSH4 0x18160DDD EQ PUSH2 0x1CC2 JUMPI DUP1 PUSH4 0x23B872DD EQ PUSH2 0x1C8A JUMPI DUP1 PUSH4 0x313CE567 EQ PUSH2 0x1C6E JUMPI DUP1 PUSH4 0x3197CBB6 EQ PUSH2 0x1C50 JUMPI DUP1 PUSH4 0x37ED2BE6 EQ PUSH2 0x192A JUMPI DUP1 PUSH4 0x39509351 EQ PUSH2 0x18D9 JUMPI DUP1 PUSH4 0x3F4BA83A EQ PUSH2 0x1845 JUMPI DUP1 PUSH4 0x42966C68 EQ PUSH2 0x1828 JUMPI DUP1 PUSH4 0x42F39381 EQ PUSH2 0x180A JUMPI DUP1 PUSH4 0x49BD5A5E EQ PUSH2 0x17E1 JUMPI DUP1 PUSH4 0x4AE01D52 EQ PUSH2 0x17C3 JUMPI DUP1 PUSH4 0x51C6590A EQ PUSH2 0x16B8 JUMPI DUP1 PUSH4 0x5C975ABB EQ PUSH2 0x1695 JUMPI DUP1 PUSH4 0x644FAB74 EQ PUSH2 0x158B JUMPI DUP1 PUSH4 0x6E1D1E57 EQ PUSH2 0x13F1 JUMPI DUP1 PUSH4 0x70A08231 EQ PUSH2 0x1551 JUMPI DUP1 PUSH4 0x715018A6 EQ PUSH2 0x14F0 JUMPI DUP1 PUSH4 0x78E97925 EQ PUSH2 0x14D2 JUMPI DUP1 PUSH4 0x79CC6790 EQ PUSH2 0x14A2 JUMPI DUP1 PUSH4 0x8456CB59 EQ PUSH2 0x140F JUMPI DUP1 PUSH4 0x8BB1CDE9 EQ PUSH2 0x13F1 JUMPI DUP1 PUSH4 0x8D3D6576 EQ PUSH2 0x13D3 JUMPI DUP1 PUSH4 0x8DA5CB5B EQ PUSH2 0x13A6 JUMPI DUP1 PUSH4 0x906A26E0 EQ PUSH2 0x1388 JUMPI DUP1 PUSH4 0x95D89B41 EQ PUSH2 0x12A5 JUMPI DUP1 PUSH4 0xA457C2D7 EQ PUSH2 0x11FE JUMPI DUP1 PUSH4 0xA9059CBB EQ PUSH2 0x11CD JUMPI DUP1 PUSH4 0xAAFFADF3 EQ PUSH2 0x11AF JUMPI DUP1 PUSH4 0xABD653D7 EQ PUSH2 0x1191 JUMPI DUP1 PUSH4 0xB8CAA4AA EQ PUSH2 0x1173 JUMPI DUP1 PUSH4 0xBFFB691D EQ PUSH2 0x1150 JUMPI DUP1 PUSH4 0xC64B2F8C EQ PUSH2 0x6F6 JUMPI DUP1 PUSH4 0xCBA4CBD3 EQ PUSH2 0x6D0 JUMPI DUP1 PUSH4 0xD5ABEB01 EQ PUSH2 0x6B2 JUMPI DUP1 PUSH4 0xDBED1E88 EQ PUSH2 0x65F JUMPI DUP1 PUSH4 0xDD62ED3E EQ PUSH2 0x60E JUMPI DUP1 PUSH4 0xDE8AF791 EQ PUSH2 0x5F0 JUMPI DUP1 PUSH4 0xE12F3A61 EQ PUSH2 0x5C5 JUMPI DUP1 PUSH4 0xE74F3FBB EQ PUSH2 0x3CD JUMPI DUP1 PUSH4 0xF2FDE38B EQ PUSH2 0x33E JUMPI DUP1 PUSH4 0xFB86A404 EQ PUSH2 0x320 JUMPI DUP1 PUSH4 0xFB897CE4 EQ PUSH2 0x292 JUMPI PUSH4 0xFE575A87 EQ PUSH2 0x23A JUMPI PUSH1 0x0 DUP1 REVERT JUMPDEST CALLVALUE PUSH2 0x28D JUMPI PUSH1 0x20 CALLDATASIZE PUSH1 0x3 NOT ADD SLT PUSH2 0x28D JUMPI PUSH2 0x253 PUSH2 0x1F49 JUMP JUMPDEST PUSH1 0xFF PUSH1 0x8 SLOAD AND DUP1 PUSH2 0x26C JUMPI JUMPDEST PUSH1 0x20 SWAP1 PUSH1 0x40 MLOAD SWAP1 ISZERO ISZERO DUP2 MSTORE RETURN JUMPDEST POP PUSH1 0x1 DUP1 PUSH1 0xA0 SHL SUB AND PUSH1 0x0 MSTORE PUSH1 0x16 PUSH1 0x20 MSTORE PUSH1 0x20 PUSH1 0xFF PUSH1 0x40 PUSH1 0x0 KECCAK256 SLOAD AND PUSH2 0x25F JUMP JUMPDEST PUSH1 0x0 DUP1 REVERT JUMPDEST CALLVALUE PUSH2 0x28D JUMPI PUSH1 0x20 CALLDATASIZE PUSH1 0x3 NOT ADD SLT PUSH2 0x28D JUMPI PUSH1 0x1 PUSH1 0x1 PUSH1 0xA0 SHL SUB PUSH2 0x2B3 PUSH2 0x1F49 JUMP JUMPDEST AND PUSH1 0x0 MSTORE PUSH1 0x15 PUSH1 0x20 MSTORE PUSH1 0xA0 PUSH1 0x40 PUSH1 0x0 KECCAK256 PUSH1 0x80 PUSH1 0x40 MLOAD SWAP2 PUSH2 0x2D2 DUP4 PUSH2 0x1FAF JUMP JUMPDEST DUP1 SLOAD SWAP3 DUP4 DUP2 MSTORE PUSH1 0x1 DUP3 ADD SLOAD DUP1 PUSH1 0x20 DUP4 ADD MSTORE PUSH1 0x2 DUP4 ADD SLOAD SWAP2 DUP3 PUSH1 0x40 DUP3 ADD MSTORE PUSH1 0x4 PUSH1 0x3 DUP6 ADD SLOAD SWAP5 DUP6 PUSH1 0x60 DUP5 ADD MSTORE ADD SLOAD SWAP5 DUP6 SWAP2 ADD MSTORE PUSH1 0x40 MLOAD SWAP5 DUP6 MSTORE PUSH1 0x20 DUP6 ADD MSTORE PUSH1 0x40 DUP5 ADD MSTORE PUSH1 0x60 DUP4 ADD MSTORE PUSH1 0x80 DUP3 ADD MSTORE RETURN JUMPDEST CALLVALUE PUSH2 0x28D JUMPI PUSH1 0x0 CALLDATASIZE PUSH1 0x3 NOT ADD SLT PUSH2 0x28D JUMPI PUSH1 0x20 PUSH1 0xB SLOAD PUSH1 0x40 MLOAD SWAP1 DUP2 MSTORE RETURN JUMPDEST CALLVALUE PUSH2 0x28D JUMPI PUSH1 0x20 CALLDATASIZE PUSH1 0x3 NOT ADD SLT PUSH2 0x28D JUMPI PUSH2 0x357 PUSH2 0x1F49 JUMP JUMPDEST PUSH2 0x35F PUSH2 0x2371 JUMP JUMPDEST PUSH1 0x1 PUSH1 0x1 PUSH1 0xA0 SHL SUB DUP2 AND ISZERO PUSH2 0x379 JUMPI PUSH2 0x377 SWAP1 PUSH2 0x28F9 JUMP JUMPDEST STOP JUMPDEST PUSH1 0x40 MLOAD PUSH3 0x461BCD PUSH1 0xE5 SHL DUP2 MSTORE PUSH1 0x20 PUSH1 0x4 DUP3 ADD MSTORE PUSH1 0x26 PUSH1 0x24 DUP3 ADD MSTORE PUSH32 0x4F776E61626C653A206E6577206F776E657220697320746865207A65726F2061 PUSH1 0x44 DUP3 ADD MSTORE PUSH6 0x646472657373 PUSH1 0xD0 SHL PUSH1 0x64 DUP3 ADD MSTORE PUSH1 0x84 SWAP1 REVERT JUMPDEST CALLVALUE PUSH2 0x28D JUMPI PUSH1 0x0 CALLDATASIZE PUSH1 0x3 NOT ADD SLT PUSH2 0x28D JUMPI PUSH1 0x2 PUSH1 0x6 SLOAD EQ PUSH2 0x580 JUMPI PUSH1 0x2 PUSH1 0x6 SSTORE CALLER PUSH1 0x0 MSTORE PUSH1 0x15 PUSH1 0x20 MSTORE PUSH1 0x40 PUSH1 0x0 KECCAK256 DUP1 SLOAD DUP1 ISZERO PUSH2 0x545 JUMPI PUSH1 0x2 DUP3 ADD SLOAD PUSH2 0x416 PUSH1 0x4 DUP5 ADD SLOAD DUP3 PUSH2 0x2097 JUMP JUMPDEST TIMESTAMP LT PUSH2 0x507 JUMPI PUSH2 0x426 SWAP1 TIMESTAMP PUSH2 0x208A JUMP JUMPDEST PUSH1 0x3 DUP4 ADD SLOAD SWAP1 SWAP2 SWAP1 DUP1 DUP4 LT PUSH2 0x4E1 JUMPI POP PUSH2 0x446 SWAP2 POP PUSH1 0x1 DUP4 ADD SLOAD SWAP1 PUSH2 0x208A JUMP JUMPDEST SWAP1 JUMPDEST DUP2 ISZERO PUSH2 0x49C JUMPI PUSH1 0x1 ADD PUSH2 0x45C DUP3 DUP3 SLOAD PUSH2 0x2097 JUMP JUMPDEST SWAP1 SSTORE PUSH2 0x469 DUP2 CALLER ADDRESS PUSH2 0x2464 JUMP JUMPDEST PUSH1 0x40 MLOAD SWAP1 DUP2 MSTORE PUSH32 0x896E034966EAAF1ADC54ACC0F257056FEBBD300C9E47182CF761982CF1F5E430 PUSH1 0x20 CALLER SWAP3 LOG2 PUSH1 0x1 PUSH1 0x6 SSTORE STOP JUMPDEST PUSH1 0x40 MLOAD PUSH3 0x461BCD PUSH1 0xE5 SHL DUP2 MSTORE PUSH1 0x20 PUSH1 0x4 DUP3 ADD MSTORE PUSH1 0x1C PUSH1 0x24 DUP3 ADD MSTORE PUSH32 0x4E6F20746F6B656E7320617661696C61626C6520746F20636C61696D00000000 PUSH1 0x44 DUP3 ADD MSTORE PUSH1 0x64 SWAP1 REVERT JUMPDEST PUSH2 0x4F1 PUSH2 0x501 SWAP4 PUSH2 0x4F6 SWAP4 PUSH2 0x20FF JUMP JUMPDEST PUSH2 0x2112 JUMP JUMPDEST PUSH1 0x1 DUP4 ADD SLOAD SWAP1 PUSH2 0x208A JUMP JUMPDEST SWAP1 PUSH2 0x448 JUMP JUMPDEST PUSH1 0x40 MLOAD PUSH3 0x461BCD PUSH1 0xE5 SHL DUP2 MSTORE PUSH1 0x20 PUSH1 0x4 DUP3 ADD MSTORE PUSH1 0x16 PUSH1 0x24 DUP3 ADD MSTORE PUSH22 0x10DB1A5999881C195C9A5BD9081B9BDD08195B991959 PUSH1 0x52 SHL PUSH1 0x44 DUP3 ADD MSTORE PUSH1 0x64 SWAP1 REVERT JUMPDEST PUSH1 0x40 MLOAD PUSH3 0x461BCD PUSH1 0xE5 SHL DUP2 MSTORE PUSH1 0x20 PUSH1 0x4 DUP3 ADD MSTORE PUSH1 0x13 PUSH1 0x24 DUP3 ADD MSTORE PUSH19 0x4E6F2076657374696E67207363686564756C65 PUSH1 0x68 SHL PUSH1 0x44 DUP3 ADD MSTORE PUSH1 0x64 SWAP1 REVERT JUMPDEST PUSH1 0x40 MLOAD PUSH3 0x461BCD PUSH1 0xE5 SHL DUP2 MSTORE PUSH1 0x20 PUSH1 0x4 DUP3 ADD MSTORE PUSH1 0x1F PUSH1 0x24 DUP3 ADD MSTORE PUSH32 0x5265656E7472616E637947756172643A207265656E7472616E742063616C6C00 PUSH1 0x44 DUP3 ADD MSTORE PUSH1 0x64 SWAP1 REVERT JUMPDEST CALLVALUE PUSH2 0x28D JUMPI PUSH1 0x20 CALLDATASIZE PUSH1 0x3 NOT ADD SLT PUSH2 0x28D JUMPI PUSH1 0x20 PUSH2 0x5E8 PUSH2 0x5E3 PUSH2 0x1F49 JUMP JUMPDEST PUSH2 0x21A2 JUMP JUMPDEST PUSH1 0x40 MLOAD SWAP1 DUP2 MSTORE RETURN JUMPDEST CALLVALUE PUSH2 0x28D JUMPI PUSH1 0x0 CALLDATASIZE PUSH1 0x3 NOT ADD SLT PUSH2 0x28D JUMPI PUSH1 0x20 PUSH1 0x10 SLOAD PUSH1 0x40 MLOAD SWAP1 DUP2 MSTORE RETURN JUMPDEST CALLVALUE PUSH2 0x28D JUMPI PUSH1 0x40 CALLDATASIZE PUSH1 0x3 NOT ADD SLT PUSH2 0x28D JUMPI PUSH2 0x627 PUSH2 0x1F49 JUMP JUMPDEST PUSH2 0x62F PUSH2 0x1F5F JUMP JUMPDEST SWAP1 PUSH1 0x1 DUP1 PUSH1 0xA0 SHL SUB DUP1 SWAP2 AND PUSH1 0x0 MSTORE PUSH1 0x1 PUSH1 0x20 MSTORE PUSH1 0x40 PUSH1 0x0 KECCAK256 SWAP2 AND PUSH1 0x0 MSTORE PUSH1 0x20 MSTORE PUSH1 0x20 PUSH1 0x40 PUSH1 0x0 KECCAK256 SLOAD PUSH1 0x40 MLOAD SWAP1 DUP2 MSTORE RETURN JUMPDEST CALLVALUE PUSH2 0x28D JUMPI PUSH1 0x20 CALLDATASIZE PUSH1 0x3 NOT ADD SLT PUSH2 0x28D JUMPI PUSH2 0x678 PUSH2 0x1F49 JUMP JUMPDEST PUSH1 0xFF PUSH1 0x8 SLOAD PUSH1 0x8 SHR AND PUSH1 0x0 EQ PUSH2 0x6A8 JUMPI PUSH1 0x1 DUP1 PUSH1 0xA0 SHL SUB AND PUSH1 0x0 MSTORE PUSH1 0x17 PUSH1 0x20 MSTORE PUSH1 0x20 PUSH1 0x40 PUSH1 0x0 KECCAK256 SLOAD PUSH1 0x40 MLOAD SWAP1 DUP2 MSTORE RETURN JUMPDEST POP PUSH1 0x20 PUSH1 0x0 PUSH2 0x5E8 JUMP JUMPDEST CALLVALUE PUSH2 0x28D JUMPI PUSH1 0x0 CALLDATASIZE PUSH1 0x3 NOT ADD SLT PUSH2 0x28D JUMPI PUSH1 0x20 PUSH1 0x7 SLOAD PUSH1 0x40 MLOAD SWAP1 DUP2 MSTORE RETURN JUMPDEST CALLVALUE PUSH2 0x28D JUMPI PUSH1 0x0 CALLDATASIZE PUSH1 0x3 NOT ADD SLT PUSH2 0x28D JUMPI PUSH1 0x20 PUSH1 0xFF PUSH1 0x8 SLOAD PUSH1 0x8 SHR AND PUSH1 0x40 MLOAD SWAP1 ISZERO ISZERO DUP2 MSTORE RETURN JUMPDEST PUSH1 0x3 NOT PUSH1 0x20 CALLDATASIZE DUP3 ADD SLT PUSH2 0x28D JUMPI PUSH1 0x4 CALLDATALOAD SWAP1 PUSH8 0xFFFFFFFFFFFFFFFF SWAP1 DUP2 DUP4 GT PUSH2 0x28D JUMPI PUSH2 0x280 SWAP1 DUP4 CALLDATASIZE SUB ADD SLT PUSH2 0x28D JUMPI PUSH1 0x2 SLOAD PUSH2 0x1115 JUMPI PUSH2 0x739 PUSH1 0x4 DUP4 ADD DUP1 PUSH2 0x20BF JUMP JUMPDEST DUP3 DUP2 SWAP5 SWAP3 SWAP5 GT PUSH2 0x10FF JUMPI PUSH2 0x74E PUSH1 0x19 SLOAD PUSH2 0x1F75 JUMP JUMPDEST SWAP1 PUSH1 0x1F SWAP2 DUP3 DUP2 GT PUSH2 0x109D JUMPI JUMPDEST POP PUSH1 0x0 DUP3 DUP3 GT PUSH1 0x1 EQ PUSH2 0x1018 JUMPI DUP2 SWAP3 SWAP4 SWAP5 SWAP6 PUSH1 0x0 SWAP3 PUSH2 0x100D JUMPI JUMPDEST POP POP DUP2 PUSH1 0x1 SHL SWAP2 PUSH1 0x0 NOT SWAP1 PUSH1 0x3 SHL SHR NOT AND OR PUSH1 0x19 SSTORE JUMPDEST PUSH1 0x24 SWAP1 PUSH2 0x79C DUP3 DUP5 ADD DUP5 PUSH1 0x4 ADD PUSH2 0x20BF JUMP JUMPDEST SWAP1 SWAP5 DUP2 GT PUSH2 0xFF8 JUMPI PUSH2 0x7AF PUSH1 0x1A SLOAD PUSH2 0x1F75 JUMP JUMPDEST DUP3 DUP2 GT PUSH2 0xF96 JUMPI JUMPDEST POP PUSH1 0x0 DUP3 DUP3 GT PUSH1 0x1 EQ PUSH2 0xF11 JUMPI DUP2 SWAP3 SWAP4 SWAP5 SWAP6 PUSH1 0x0 SWAP3 PUSH2 0xF06 JUMPI JUMPDEST POP POP DUP2 PUSH1 0x1 SHL SWAP2 PUSH1 0x0 NOT SWAP1 PUSH1 0x3 SHL SHR NOT AND OR PUSH1 0x1A SSTORE JUMPDEST PUSH1 0x64 SWAP1 DUP2 DUP5 ADD CALLDATALOAD PUSH1 0x7 SSTORE PUSH2 0x7FD PUSH1 0xA4 DUP6 ADD PUSH2 0x20F2 JUMP JUMPDEST ISZERO ISZERO SWAP1 PUSH1 0x8 SLOAD SWAP2 PUSH1 0xFF DUP1 SWAP2 AND SWAP3 DUP4 PUSH2 0xFF00 PUSH2 0x81A PUSH1 0xC4 DUP11 ADD PUSH2 0x20F2 JUMP JUMPDEST ISZERO ISZERO PUSH1 0x8 SHL AND SWAP2 PUSH2 0xFFFF NOT AND OR OR SWAP1 DUP2 PUSH1 0x8 SSTORE PUSH1 0xE4 DUP8 ADD CALLDATALOAD PUSH1 0x9 SSTORE PUSH2 0x104 DUP8 ADD CALLDATALOAD PUSH1 0xA SSTORE PUSH2 0x124 DUP8 ADD CALLDATALOAD PUSH1 0xB SSTORE PUSH2 0x144 DUP8 ADD CALLDATALOAD PUSH1 0xC SSTORE PUSH2 0x164 DUP8 ADD CALLDATALOAD PUSH1 0xD SSTORE PUSH2 0x184 DUP8 ADD CALLDATALOAD PUSH1 0xE SSTORE PUSH2 0x1A4 DUP8 ADD CALLDATALOAD PUSH1 0xF SSTORE PUSH2 0x1C4 DUP8 ADD CALLDATALOAD SWAP2 DUP3 PUSH1 0x10 SSTORE PUSH2 0x1E4 DUP9 ADD CALLDATALOAD SWAP1 DUP2 PUSH1 0x11 SSTORE PUSH2 0x204 DUP10 ADD CALLDATALOAD PUSH1 0x12 SSTORE PUSH2 0x244 DUP10 ADD CALLDATALOAD PUSH1 0x13 SSTORE PUSH2 0x8A0 PUSH2 0x264 DUP11 ADD PUSH2 0x20F2 JUMP JUMPDEST ISZERO ISZERO DUP4 PUSH1 0xFF NOT PUSH1 0x14 SLOAD AND SWAP2 AND OR PUSH1 0x14 SSTORE PUSH1 0x44 SWAP6 DUP7 DUP11 ADD CALLDATALOAD SWAP6 ADDRESS ISZERO PUSH2 0xEC5 JUMPI POP DUP4 PUSH1 0x5 SLOAD AND PUSH2 0xE70 JUMPI DUP8 SWAP3 SWAP2 DUP5 SWAP2 PUSH2 0xDF8 JUMPI JUMPDEST PUSH1 0x8 SHR AND PUSH2 0xD82 JUMPI JUMPDEST PUSH2 0x8E7 DUP6 PUSH1 0x2 SLOAD PUSH2 0x2097 JUMP JUMPDEST PUSH1 0x2 SSTORE ADDRESS PUSH1 0x0 MSTORE PUSH1 0x0 PUSH1 0x20 MSTORE PUSH1 0x40 PUSH1 0x0 KECCAK256 DUP6 DUP2 SLOAD ADD SWAP1 SSTORE PUSH1 0x40 MLOAD DUP6 DUP2 MSTORE PUSH1 0x0 PUSH32 0xDDF252AD1BE2C89B69C2B068FC378DAA952BA7F163C4A11628F55A4DF523B3EF PUSH1 0x20 ADDRESS SWAP4 LOG3 DUP5 SWAP4 PUSH1 0x0 SWAP4 PUSH1 0x14 SLOAD AND PUSH2 0xD54 JUMPI JUMPDEST POP PUSH2 0x963 SWAP3 SWAP2 PUSH2 0x94D PUSH2 0x95D SWAP3 DUP8 PUSH2 0x20FF JUMP JUMPDEST DIV DUP1 SWAP3 DUP2 PUSH1 0x1B SSTORE DUP2 PUSH1 0x1C SSTORE PUSH2 0x2097 JUMP JUMPDEST SWAP3 PUSH2 0x208A JUMP JUMPDEST POP PUSH2 0x975 PUSH2 0x224 DUP8 ADD DUP8 PUSH1 0x4 ADD PUSH2 0x2132 JUMP JUMPDEST SWAP1 POP PUSH2 0x9EA JUMPI JUMPDEST SUB PUSH2 0x995 JUMPI PUSH2 0x377 PUSH2 0x990 PUSH1 0x84 DUP7 ADD PUSH2 0x218E JUMP JUMPDEST PUSH2 0x28F9 JUMP JUMPDEST PUSH1 0x84 SWAP3 SWAP2 PUSH32 0x546F74616C20616C6C6F636174696F6E206D75737420657175616C20696E6974 PUSH10 0x69616C20737570706C79 PUSH1 0xB0 SHL SWAP3 PUSH1 0x2A PUSH1 0x40 MLOAD SWAP6 PUSH3 0x461BCD PUSH1 0xE5 SHL DUP8 MSTORE PUSH1 0x20 PUSH1 0x4 DUP9 ADD MSTORE DUP7 ADD MSTORE DUP5 ADD MSTORE DUP3 ADD MSTORE REVERT JUMPDEST SWAP5 SWAP3 PUSH1 0x0 SWAP5 SWAP2 SWAP5 JUMPDEST PUSH2 0xA03 PUSH2 0x224 DUP7 ADD DUP7 PUSH1 0x4 ADD PUSH2 0x2132 JUMP JUMPDEST SWAP1 POP DUP2 LT ISZERO PUSH2 0xD49 JUMPI PUSH2 0xA40 DUP3 PUSH2 0xA38 PUSH1 0x20 PUSH2 0xA30 DUP6 PUSH2 0xA2A PUSH2 0x224 DUP13 ADD DUP13 PUSH1 0x4 ADD PUSH2 0x2132 JUMP JUMPDEST SWAP1 PUSH2 0x2168 JUMP JUMPDEST ADD CALLDATALOAD DUP10 PUSH2 0x20FF JUMP JUMPDEST DIV DUP1 SWAP9 PUSH2 0x2097 JUMP JUMPDEST SWAP7 DUP7 DUP9 GT PUSH2 0xCF7 JUMPI DUP2 PUSH2 0xA74 PUSH2 0xA6F PUSH2 0xA60 PUSH2 0x224 DUP11 ADD DUP11 PUSH1 0x4 ADD PUSH2 0x2132 JUMP JUMPDEST PUSH1 0x1 PUSH1 0x1 PUSH1 0xA0 SHL SUB SWAP5 SWAP2 PUSH2 0x2168 JUMP JUMPDEST PUSH2 0x218E JUMP JUMPDEST AND ISZERO PUSH2 0xCBC JUMPI PUSH2 0xA9A PUSH1 0x40 PUSH2 0xA94 DUP5 PUSH2 0xA2A PUSH2 0x224 DUP12 ADD DUP12 PUSH1 0x4 ADD PUSH2 0x2132 JUMP JUMPDEST ADD PUSH2 0x20F2 JUMP JUMPDEST ISZERO PUSH2 0xC18 JUMPI SWAP1 PUSH1 0x1 SWAP2 PUSH1 0xA0 PUSH2 0xABA DUP4 PUSH2 0xA2A PUSH2 0x224 DUP12 ADD DUP12 PUSH1 0x4 ADD PUSH2 0x2132 JUMP JUMPDEST ADD CALLDATALOAD PUSH1 0x4 PUSH1 0x60 PUSH2 0xAD4 DUP6 PUSH2 0xA2A PUSH2 0x224 DUP14 ADD DUP14 DUP7 ADD PUSH2 0x2132 JUMP JUMPDEST ADD CALLDATALOAD PUSH1 0x80 PUSH2 0xAEC DUP7 PUSH2 0xA2A PUSH2 0x224 DUP15 ADD DUP7 DUP16 ADD PUSH2 0x2132 JUMP JUMPDEST ADD CALLDATALOAD SWAP1 PUSH1 0x40 MLOAD SWAP4 PUSH2 0xAFC DUP6 PUSH2 0x1FAF JUMP JUMPDEST DUP6 DUP6 MSTORE DUP12 DUP8 PUSH2 0xB44 PUSH2 0xA6F PUSH2 0xB35 PUSH1 0x20 DUP11 ADD SWAP5 PUSH1 0x0 DUP7 MSTORE PUSH1 0x40 DUP12 ADD SWAP7 DUP8 MSTORE PUSH1 0x60 DUP12 ADD SWAP8 DUP9 MSTORE PUSH1 0x80 DUP12 ADD SWAP9 DUP10 MSTORE PUSH2 0x224 DUP2 ADD SWAP1 DUP11 ADD PUSH2 0x2132 JUMP JUMPDEST DUP14 DUP1 PUSH1 0xA0 SWAP7 SWAP4 SWAP7 SHL SUB SWAP5 PUSH2 0x2168 JUMP JUMPDEST AND PUSH1 0x0 MSTORE PUSH1 0x15 PUSH1 0x20 MSTORE PUSH1 0x40 PUSH1 0x0 KECCAK256 SWAP6 MLOAD DUP7 SSTORE MLOAD DUP9 DUP7 ADD SSTORE MLOAD PUSH1 0x2 DUP6 ADD SSTORE MLOAD PUSH1 0x3 DUP5 ADD SSTORE MLOAD SWAP2 ADD SSTORE PUSH32 0x47D46F58C7D60D60571092CFF5715B8C8C5BC1347DB2BB9890E639BF3680BA7B PUSH1 0x80 PUSH2 0xBA6 PUSH2 0xA6F DUP6 PUSH2 0xA2A PUSH2 0x224 DUP14 ADD DUP14 PUSH1 0x4 ADD PUSH2 0x2132 JUMP JUMPDEST PUSH1 0xA0 PUSH2 0xBBD DUP7 PUSH2 0xA2A PUSH2 0x224 DUP15 ADD PUSH1 0x4 DUP16 ADD PUSH2 0x2132 JUMP JUMPDEST ADD CALLDATALOAD DUP11 DUP4 PUSH2 0xBF0 DUP9 PUSH2 0xA2A PUSH1 0x60 PUSH2 0xBDF DUP4 PUSH2 0xA2A PUSH2 0x224 DUP10 ADD DUP10 PUSH1 0x4 ADD PUSH2 0x2132 JUMP JUMPDEST ADD CALLDATALOAD SWAP5 PUSH2 0x224 DUP2 ADD SWAP1 PUSH1 0x4 ADD PUSH2 0x2132 JUMP JUMPDEST ADD CALLDATALOAD SWAP2 PUSH1 0x40 MLOAD SWAP7 DUP8 MSTORE PUSH1 0x20 DUP8 ADD MSTORE PUSH1 0x40 DUP7 ADD MSTORE PUSH1 0x60 DUP6 ADD MSTORE DUP6 DUP1 PUSH1 0xA0 SHL SUB AND SWAP3 LOG2 JUMPDEST ADD PUSH2 0x9F2 JUMP JUMPDEST PUSH2 0xC30 PUSH2 0xA6F DUP4 PUSH2 0xA2A PUSH2 0x224 DUP11 ADD DUP11 PUSH1 0x4 ADD PUSH2 0x2132 JUMP JUMPDEST PUSH1 0x1 PUSH1 0x1 PUSH1 0xA0 SHL SUB DUP2 AND SWAP2 SWAP1 DUP3 ISZERO PUSH2 0xC81 JUMPI PUSH1 0x20 DUP3 PUSH2 0xC75 PUSH1 0x1 SWAP7 SWAP6 SWAP5 PUSH32 0x896E034966EAAF1ADC54ACC0F257056FEBBD300C9E47182CF761982CF1F5E430 SWAP5 ADDRESS PUSH2 0x2464 JUMP JUMPDEST PUSH1 0x40 MLOAD SWAP1 DUP2 MSTORE LOG2 PUSH2 0xC12 JUMP JUMPDEST PUSH1 0x40 MLOAD PUSH3 0x461BCD PUSH1 0xE5 SHL DUP2 MSTORE PUSH1 0x20 PUSH1 0x4 DUP3 ADD MSTORE PUSH1 0x16 DUP2 DUP9 ADD MSTORE PUSH22 0x16995C9BC81859191C995CDCC81C9958DA5C1A595B9D PUSH1 0x52 SHL DUP2 DUP10 ADD MSTORE DUP6 SWAP1 REVERT JUMPDEST PUSH1 0x40 MLOAD PUSH3 0x461BCD PUSH1 0xE5 SHL DUP2 MSTORE PUSH1 0x20 PUSH1 0x4 DUP3 ADD MSTORE PUSH1 0x16 DUP2 DUP7 ADD MSTORE PUSH22 0x496E76616C69642077616C6C65742061646472657373 PUSH1 0x50 SHL DUP2 DUP8 ADD MSTORE DUP4 SWAP1 REVERT JUMPDEST PUSH1 0x40 MLOAD PUSH3 0x461BCD PUSH1 0xE5 SHL DUP2 MSTORE PUSH1 0x20 PUSH1 0x4 DUP3 ADD MSTORE PUSH1 0x27 DUP2 DUP7 ADD MSTORE PUSH32 0x546F74616C20616C6C6F636174696F6E206578636565647320696E697469616C DUP2 DUP8 ADD MSTORE PUSH7 0x20737570706C79 PUSH1 0xC8 SHL DUP2 DUP6 ADD MSTORE PUSH1 0x84 SWAP1 REVERT JUMPDEST POP SWAP3 SWAP5 SWAP4 SWAP1 SWAP4 PUSH2 0x97C JUMP JUMPDEST PUSH2 0xD65 SWAP2 SWAP5 POP PUSH2 0x963 SWAP4 POP DUP6 PUSH2 0x20FF JUMP JUMPDEST DIV PUSH2 0x95D DUP7 PUSH2 0x94D PUSH2 0xD77 DUP5 DUP9 PUSH2 0x208A JUMP JUMPDEST SWAP6 SWAP3 POP POP SWAP2 SWAP3 PUSH2 0x93A JUMP JUMPDEST PUSH1 0x0 DUP1 MSTORE PUSH1 0x17 PUSH1 0x20 MSTORE PUSH32 0xD840E16649F6B9A295D95876F4633D3A6B10B55E8162971CF78AFD886D5EC89B SLOAD SWAP1 SWAP2 POP TIMESTAMP LT PUSH2 0xDBD JUMPI DUP6 SWAP1 PUSH2 0x8DB JUMP JUMPDEST PUSH1 0x40 MLOAD PUSH3 0x461BCD PUSH1 0xE5 SHL DUP2 MSTORE PUSH1 0x20 PUSH1 0x4 DUP3 ADD MSTORE PUSH1 0x16 DUP2 DUP10 ADD MSTORE PUSH22 0x151BDAD95B9CC8185C99481D1A5B594B5B1BD8DAD959 PUSH1 0x52 SHL DUP2 DUP8 ADD MSTORE DUP7 SWAP1 REVERT JUMPDEST SWAP2 SWAP3 POP POP PUSH1 0x0 DUP1 MSTORE PUSH1 0x16 PUSH1 0x20 MSTORE DUP3 PUSH1 0x40 PUSH1 0x0 KECCAK256 SLOAD AND ISZERO DUP1 PUSH2 0xE5D JUMPI JUMPDEST ISZERO PUSH2 0xE22 JUMPI SWAP1 DUP3 DUP8 SWAP3 PUSH2 0x8D2 JUMP JUMPDEST PUSH1 0x40 MLOAD PUSH3 0x461BCD PUSH1 0xE5 SHL DUP2 MSTORE PUSH1 0x20 PUSH1 0x4 DUP3 ADD MSTORE PUSH1 0x16 DUP2 DUP11 ADD MSTORE PUSH22 0x1059191C995CDCC81A5CC8189B1858DADB1A5CDD1959 PUSH1 0x52 SHL DUP2 DUP9 ADD MSTORE DUP8 SWAP1 REVERT JUMPDEST POP ADDRESS PUSH1 0x0 MSTORE DUP3 PUSH1 0x40 PUSH1 0x0 KECCAK256 SLOAD AND ISZERO PUSH2 0xE14 JUMP JUMPDEST PUSH1 0x40 MLOAD PUSH3 0x461BCD PUSH1 0xE5 SHL DUP2 MSTORE PUSH1 0x20 PUSH1 0x4 DUP3 ADD MSTORE PUSH1 0x2A DUP2 DUP12 ADD MSTORE PUSH32 0x45524332305061757361626C653A20746F6B656E207472616E73666572207768 DUP2 DUP10 ADD MSTORE PUSH10 0x1A5B19481C185D5CD959 PUSH1 0xB2 SHL DUP2 DUP11 ADD MSTORE PUSH1 0x84 SWAP1 REVERT JUMPDEST DUP10 PUSH32 0x45524332303A206D696E7420746F20746865207A65726F206164647265737300 DUP10 DUP12 SWAP4 PUSH1 0x40 MLOAD SWAP4 PUSH3 0x461BCD PUSH1 0xE5 SHL DUP6 MSTORE PUSH1 0x20 PUSH1 0x4 DUP7 ADD MSTORE DUP5 ADD MSTORE DUP3 ADD MSTORE REVERT JUMPDEST ADD CALLDATALOAD SWAP1 POP DUP6 DUP1 PUSH2 0x7D1 JUMP JUMPDEST PUSH1 0x1F NOT DUP3 AND SWAP6 PUSH1 0x1A PUSH1 0x0 MSTORE PUSH32 0x57C384A7D1C54F3A1B2E5E67B2617B8224FDFD1EA7234EEA573A6FF665FF63E SWAP2 PUSH1 0x0 JUMPDEST DUP9 DUP2 LT PUSH2 0xF7E JUMPI POP DUP4 PUSH1 0x1 SWAP6 SWAP7 SWAP8 SWAP9 LT PUSH2 0xF64 JUMPI JUMPDEST POP POP POP DUP2 SHL ADD PUSH1 0x1A SSTORE PUSH2 0x7E7 JUMP JUMPDEST ADD CALLDATALOAD PUSH1 0x0 NOT PUSH1 0x3 DUP5 SWAP1 SHL PUSH1 0xF8 AND SHR NOT AND SWAP1 SSTORE DUP6 DUP1 DUP1 PUSH2 0xF56 JUMP JUMPDEST SWAP1 SWAP3 PUSH1 0x20 PUSH1 0x1 DUP2 SWAP3 DUP7 DUP7 ADD CALLDATALOAD DUP2 SSTORE ADD SWAP5 ADD SWAP2 ADD PUSH2 0xF41 JUMP JUMPDEST PUSH1 0x1A PUSH1 0x0 MSTORE PUSH32 0x57C384A7D1C54F3A1B2E5E67B2617B8224FDFD1EA7234EEA573A6FF665FF63E DUP4 DUP1 DUP5 ADD PUSH1 0x5 SHR DUP3 ADD SWAP3 PUSH1 0x20 DUP6 LT PUSH2 0xFEF JUMPI JUMPDEST ADD PUSH1 0x5 SHR ADD SWAP1 JUMPDEST DUP2 DUP2 LT PUSH2 0xFE3 JUMPI POP PUSH2 0x7B7 JUMP JUMPDEST PUSH1 0x0 DUP2 SSTORE PUSH1 0x1 ADD PUSH2 0xFD6 JUMP JUMPDEST SWAP3 POP DUP2 SWAP3 PUSH2 0xFCF JUMP JUMPDEST DUP3 PUSH4 0x4E487B71 PUSH1 0xE0 SHL PUSH1 0x0 MSTORE PUSH1 0x41 PUSH1 0x4 MSTORE PUSH1 0x0 REVERT JUMPDEST ADD CALLDATALOAD SWAP1 POP DUP6 DUP1 PUSH2 0x774 JUMP JUMPDEST PUSH1 0x1F NOT DUP3 AND SWAP6 PUSH1 0x19 PUSH1 0x0 MSTORE PUSH32 0x944998273E477B495144FB8794C914197F3CCB46BE2900F4698FD0EF743C9695 SWAP2 PUSH1 0x0 JUMPDEST DUP9 DUP2 LT PUSH2 0x1085 JUMPI POP DUP4 PUSH1 0x1 SWAP6 SWAP7 SWAP8 SWAP9 LT PUSH2 0x106B JUMPI JUMPDEST POP POP POP DUP2 SHL ADD PUSH1 0x19 SSTORE PUSH2 0x78A JUMP JUMPDEST ADD CALLDATALOAD PUSH1 0x0 NOT PUSH1 0x3 DUP5 SWAP1 SHL PUSH1 0xF8 AND SHR NOT AND SWAP1 SSTORE DUP6 DUP1 DUP1 PUSH2 0x105D JUMP JUMPDEST SWAP1 SWAP3 PUSH1 0x20 PUSH1 0x1 DUP2 SWAP3 DUP7 DUP7 ADD CALLDATALOAD DUP2 SSTORE ADD SWAP5 ADD SWAP2 ADD PUSH2 0x1048 JUMP JUMPDEST PUSH1 0x19 PUSH1 0x0 MSTORE PUSH32 0x944998273E477B495144FB8794C914197F3CCB46BE2900F4698FD0EF743C9695 DUP4 DUP1 DUP5 ADD PUSH1 0x5 SHR DUP3 ADD SWAP3 PUSH1 0x20 DUP6 LT PUSH2 0x10F6 JUMPI JUMPDEST ADD PUSH1 0x5 SHR ADD SWAP1 JUMPDEST DUP2 DUP2 LT PUSH2 0x10EA JUMPI POP PUSH2 0x75A JUMP JUMPDEST PUSH1 0x0 DUP2 SSTORE PUSH1 0x1 ADD PUSH2 0x10DD JUMP JUMPDEST SWAP3 POP DUP2 SWAP3 PUSH2 0x10D6 JUMP JUMPDEST PUSH4 0x4E487B71 PUSH1 0xE0 SHL PUSH1 0x0 MSTORE PUSH1 0x41 PUSH1 0x4 MSTORE PUSH1 0x24 PUSH1 0x0 REVERT JUMPDEST PUSH1 0x40 MLOAD PUSH3 0x461BCD PUSH1 0xE5 SHL DUP2 MSTORE PUSH1 0x20 PUSH1 0x4 DUP3 ADD MSTORE PUSH1 0x13 PUSH1 0x24 DUP3 ADD MSTORE PUSH19 0x105B1C9958591E481A5B9A5D1A585B1A5E9959 PUSH1 0x6A SHL PUSH1 0x44 DUP3 ADD MSTORE PUSH1 0x64 SWAP1 REVERT JUMPDEST CALLVALUE PUSH2 0x28D JUMPI PUSH1 0x0 CALLDATASIZE PUSH1 0x3 NOT ADD SLT PUSH2 0x28D JUMPI PUSH1 0x20 PUSH1 0xFF PUSH1 0x8 SLOAD AND PUSH1 0x40 MLOAD SWAP1 ISZERO ISZERO DUP2 MSTORE RETURN JUMPDEST CALLVALUE PUSH2 0x28D JUMPI PUSH1 0x0 CALLDATASIZE PUSH1 0x3 NOT ADD SLT PUSH2 0x28D JUMPI PUSH1 0x20 PUSH1 0x13 SLOAD PUSH1 0x40 MLOAD SWAP1 DUP2 MSTORE RETURN JUMPDEST CALLVALUE PUSH2 0x28D JUMPI PUSH1 0x0 CALLDATASIZE PUSH1 0x3 NOT ADD SLT PUSH2 0x28D JUMPI PUSH1 0x20 PUSH1 0x1B SLOAD PUSH1 0x40 MLOAD SWAP1 DUP2 MSTORE RETURN JUMPDEST CALLVALUE PUSH2 0x28D JUMPI PUSH1 0x0 CALLDATASIZE PUSH1 0x3 NOT ADD SLT PUSH2 0x28D JUMPI PUSH1 0x20 PUSH1 0xC SLOAD PUSH1 0x40 MLOAD SWAP1 DUP2 MSTORE RETURN JUMPDEST CALLVALUE PUSH2 0x28D JUMPI PUSH1 0x40 CALLDATASIZE PUSH1 0x3 NOT ADD SLT PUSH2 0x28D JUMPI PUSH2 0x11F3 PUSH2 0x11E9 PUSH2 0x1F49 JUMP JUMPDEST PUSH1 0x24 CALLDATALOAD SWAP1 CALLER PUSH2 0x2464 JUMP JUMPDEST PUSH1 0x20 PUSH1 0x40 MLOAD PUSH1 0x1 DUP2 MSTORE RETURN JUMPDEST CALLVALUE PUSH2 0x28D JUMPI PUSH1 0x40 CALLDATASIZE PUSH1 0x3 NOT ADD SLT PUSH2 0x28D JUMPI PUSH2 0x1217 PUSH2 0x1F49 JUMP JUMPDEST PUSH1 0x24 CALLDATALOAD SWAP1 CALLER PUSH1 0x0 MSTORE PUSH1 0x1 PUSH1 0x20 MSTORE PUSH1 0x40 PUSH1 0x0 KECCAK256 PUSH1 0x1 DUP1 PUSH1 0xA0 SHL SUB DUP3 AND PUSH1 0x0 MSTORE PUSH1 0x20 MSTORE PUSH1 0x40 PUSH1 0x0 KECCAK256 SLOAD SWAP2 DUP1 DUP4 LT PUSH2 0x1252 JUMPI PUSH2 0x11F3 SWAP3 SUB SWAP1 CALLER PUSH2 0x226F JUMP JUMPDEST PUSH1 0x40 MLOAD PUSH3 0x461BCD PUSH1 0xE5 SHL DUP2 MSTORE PUSH1 0x20 PUSH1 0x4 DUP3 ADD MSTORE PUSH1 0x25 PUSH1 0x24 DUP3 ADD MSTORE PUSH32 0x45524332303A2064656372656173656420616C6C6F77616E63652062656C6F77 PUSH1 0x44 DUP3 ADD MSTORE PUSH5 0x207A65726F PUSH1 0xD8 SHL PUSH1 0x64 DUP3 ADD MSTORE PUSH1 0x84 SWAP1 REVERT JUMPDEST CALLVALUE PUSH2 0x28D JUMPI PUSH1 0x0 CALLDATASIZE PUSH1 0x3 NOT ADD SLT PUSH2 0x28D JUMPI PUSH1 0x40 MLOAD PUSH1 0x0 PUSH1 0x1A SLOAD PUSH2 0x12C7 DUP2 PUSH2 0x1F75 JUMP JUMPDEST DUP1 DUP5 MSTORE SWAP1 PUSH1 0x20 SWAP1 PUSH1 0x1 SWAP1 DUP2 DUP2 AND SWAP1 DUP2 ISZERO PUSH2 0x135E JUMPI POP PUSH1 0x1 EQ PUSH2 0x1304 JUMPI JUMPDEST PUSH2 0x1300 DUP6 PUSH2 0x12F4 DUP2 DUP8 SUB DUP3 PUSH2 0x1FCB JUMP JUMPDEST PUSH1 0x40 MLOAD SWAP2 DUP3 SWAP2 DUP3 PUSH2 0x1F00 JUMP JUMPDEST SUB SWAP1 RETURN JUMPDEST PUSH1 0x1A PUSH1 0x0 SWAP1 DUP2 MSTORE SWAP4 POP PUSH32 0x57C384A7D1C54F3A1B2E5E67B2617B8224FDFD1EA7234EEA573A6FF665FF63E JUMPDEST DUP4 DUP6 LT PUSH2 0x134B JUMPI POP POP POP POP DUP2 ADD PUSH1 0x20 ADD PUSH2 0x12F4 DUP3 PUSH2 0x1300 PUSH2 0x12E4 JUMP JUMPDEST DUP1 SLOAD DUP7 DUP7 ADD DUP5 ADD MSTORE SWAP4 DUP3 ADD SWAP4 DUP2 ADD PUSH2 0x132F JUMP JUMPDEST DUP7 SWAP6 POP PUSH2 0x1300 SWAP7 SWAP4 POP PUSH1 0x20 SWAP3 POP PUSH2 0x12F4 SWAP5 SWAP2 POP PUSH1 0xFF NOT AND DUP3 DUP5 ADD MSTORE ISZERO ISZERO PUSH1 0x5 SHL DUP3 ADD ADD SWAP3 SWAP4 PUSH2 0x12E4 JUMP JUMPDEST CALLVALUE PUSH2 0x28D JUMPI PUSH1 0x0 CALLDATASIZE PUSH1 0x3 NOT ADD SLT PUSH2 0x28D JUMPI PUSH1 0x20 PUSH1 0xA SLOAD PUSH1 0x40 MLOAD SWAP1 DUP2 MSTORE RETURN JUMPDEST CALLVALUE PUSH2 0x28D JUMPI PUSH1 0x0 CALLDATASIZE PUSH1 0x3 NOT ADD SLT PUSH2 0x28D JUMPI PUSH1 0x5 SLOAD PUSH1 0x40 MLOAD PUSH1 0x8 SWAP2 SWAP1 SWAP2 SHR PUSH1 0x1 PUSH1 0x1 PUSH1 0xA0 SHL SUB AND DUP2 MSTORE PUSH1 0x20 SWAP1 RETURN JUMPDEST CALLVALUE PUSH2 0x28D JUMPI PUSH1 0x0 CALLDATASIZE PUSH1 0x3 NOT ADD SLT PUSH2 0x28D JUMPI PUSH1 0x20 PUSH1 0xD SLOAD PUSH1 0x40 MLOAD SWAP1 DUP2 MSTORE RETURN JUMPDEST CALLVALUE PUSH2 0x28D JUMPI PUSH1 0x0 CALLDATASIZE PUSH1 0x3 NOT ADD SLT PUSH2 0x28D JUMPI PUSH1 0x20 PUSH1 0x1C SLOAD PUSH1 0x40 MLOAD SWAP1 DUP2 MSTORE RETURN JUMPDEST CALLVALUE PUSH2 0x28D JUMPI PUSH1 0x0 CALLDATASIZE PUSH1 0x3 NOT ADD SLT PUSH2 0x28D JUMPI PUSH2 0x1428 PUSH2 0x2371 JUMP JUMPDEST PUSH1 0x5 SLOAD PUSH1 0xFF DUP2 AND PUSH2 0x146A JUMPI PUSH1 0x1 SWAP1 PUSH1 0xFF NOT AND OR PUSH1 0x5 SSTORE PUSH32 0x62E78CEA01BEE320CD4E420270B5EA74000D11B0C9F74754EBDBFC544B05A258 PUSH1 0x20 PUSH1 0x40 MLOAD CALLER DUP2 MSTORE LOG1 STOP JUMPDEST PUSH1 0x40 MLOAD PUSH3 0x461BCD PUSH1 0xE5 SHL DUP2 MSTORE PUSH1 0x20 PUSH1 0x4 DUP3 ADD MSTORE PUSH1 0x10 PUSH1 0x24 DUP3 ADD MSTORE PUSH16 0x14185D5CD8589B194E881C185D5CD959 PUSH1 0x82 SHL PUSH1 0x44 DUP3 ADD MSTORE PUSH1 0x64 SWAP1 REVERT JUMPDEST CALLVALUE PUSH2 0x28D JUMPI PUSH1 0x40 CALLDATASIZE PUSH1 0x3 NOT ADD SLT PUSH2 0x28D JUMPI PUSH2 0x377 PUSH2 0x14BE PUSH2 0x1F49 JUMP JUMPDEST PUSH1 0x24 CALLDATALOAD SWAP1 PUSH2 0x14CD DUP3 CALLER DUP4 PUSH2 0x23CC JUMP JUMPDEST PUSH2 0x270E JUMP JUMPDEST CALLVALUE PUSH2 0x28D JUMPI PUSH1 0x0 CALLDATASIZE PUSH1 0x3 NOT ADD SLT PUSH2 0x28D JUMPI PUSH1 0x20 PUSH1 0xE SLOAD PUSH1 0x40 MLOAD SWAP1 DUP2 MSTORE RETURN JUMPDEST CALLVALUE PUSH2 0x28D JUMPI PUSH1 0x0 CALLDATASIZE PUSH1 0x3 NOT ADD SLT PUSH2 0x28D JUMPI PUSH2 0x1509 PUSH2 0x2371 JUMP JUMPDEST PUSH1 0x5 DUP1 SLOAD PUSH2 0x100 PUSH1 0x1 PUSH1 0xA8 SHL SUB NOT DUP2 AND SWAP1 SWAP2 SSTORE PUSH1 0x0 SWAP1 PUSH1 0x8 SHR PUSH1 0x1 PUSH1 0x1 PUSH1 0xA0 SHL SUB AND PUSH32 0x8BE0079C531659141344CD1FD0A4F28419497F9722A3DAAFE3B4186F6B6457E0 DUP3 DUP1 LOG3 STOP JUMPDEST CALLVALUE PUSH2 0x28D JUMPI PUSH1 0x20 CALLDATASIZE PUSH1 0x3 NOT ADD SLT PUSH2 0x28D JUMPI PUSH1 0x1 PUSH1 0x1 PUSH1 0xA0 SHL SUB PUSH2 0x1572 PUSH2 0x1F49 JUMP JUMPDEST AND PUSH1 0x0 MSTORE PUSH1 0x0 PUSH1 0x20 MSTORE PUSH1 0x20 PUSH1 0x40 PUSH1 0x0 KECCAK256 SLOAD PUSH1 0x40 MLOAD SWAP1 DUP2 MSTORE RETURN JUMPDEST CALLVALUE PUSH2 0x28D JUMPI PUSH1 0x40 CALLDATASIZE PUSH1 0x3 NOT ADD SLT PUSH2 0x28D JUMPI PUSH2 0x15A4 PUSH2 0x1F49 JUMP JUMPDEST PUSH1 0x24 CALLDATALOAD SWAP1 PUSH2 0x15B0 PUSH2 0x2371 JUMP JUMPDEST PUSH1 0xFF PUSH1 0x8 SLOAD PUSH1 0x8 SHR AND ISZERO PUSH2 0x1650 JUMPI TIMESTAMP DUP3 GT ISZERO PUSH2 0x160B JUMPI PUSH1 0x20 PUSH32 0xA9353E70F07F31E7F4E16464F45E189CBD22826780A5ABE4DA8303652A86960A SWAP2 PUSH1 0x1 DUP1 PUSH1 0xA0 SHL SUB AND SWAP3 DUP4 PUSH1 0x0 MSTORE PUSH1 0x17 DUP3 MSTORE DUP1 PUSH1 0x40 PUSH1 0x0 KECCAK256 SSTORE PUSH1 0x40 MLOAD SWAP1 DUP2 MSTORE LOG2 STOP JUMPDEST PUSH1 0x40 MLOAD PUSH3 0x461BCD PUSH1 0xE5 SHL DUP2 MSTORE PUSH1 0x20 PUSH1 0x4 DUP3 ADD MSTORE PUSH1 0x1D PUSH1 0x24 DUP3 ADD MSTORE PUSH32 0x556E6C6F636B2074696D65206D75737420626520696E20667574757265000000 PUSH1 0x44 DUP3 ADD MSTORE PUSH1 0x64 SWAP1 REVERT JUMPDEST PUSH1 0x40 MLOAD PUSH3 0x461BCD PUSH1 0xE5 SHL DUP2 MSTORE PUSH1 0x20 PUSH1 0x4 DUP3 ADD MSTORE PUSH1 0x18 PUSH1 0x24 DUP3 ADD MSTORE PUSH32 0x54696D65206C6F636B206973206E6F7420656E61626C65640000000000000000 PUSH1 0x44 DUP3 ADD MSTORE PUSH1 0x64 SWAP1 REVERT JUMPDEST CALLVALUE PUSH2 0x28D JUMPI PUSH1 0x0 CALLDATASIZE PUSH1 0x3 NOT ADD SLT PUSH2 0x28D JUMPI PUSH1 0x20 PUSH1 0xFF PUSH1 0x5 SLOAD AND PUSH1 0x40 MLOAD SWAP1 ISZERO ISZERO DUP2 MSTORE RETURN JUMPDEST PUSH1 0x20 CALLDATASIZE PUSH1 0x3 NOT ADD SLT PUSH2 0x28D JUMPI PUSH1 0x4 CALLDATALOAD PUSH2 0x16D2 CALLVALUE ISZERO ISZERO PUSH2 0x1FED JUMP JUMPDEST PUSH2 0x16DD DUP2 ISZERO ISZERO PUSH2 0x2029 JUMP JUMPDEST PUSH2 0x16E8 DUP2 ADDRESS CALLER PUSH2 0x2464 JUMP JUMPDEST PUSH32 0x0 PUSH1 0x1 PUSH1 0x1 PUSH1 0xA0 SHL SUB AND SWAP1 PUSH2 0x171E DUP2 DUP4 ADDRESS PUSH2 0x226F JUMP JUMPDEST PUSH2 0x12C TIMESTAMP ADD DUP1 TIMESTAMP GT PUSH2 0x17AD JUMPI PUSH1 0x40 MLOAD PUSH4 0xF305D719 PUSH1 0xE0 SHL DUP2 MSTORE ADDRESS PUSH1 0x4 DUP3 ADD MSTORE PUSH1 0x24 DUP2 ADD SWAP3 SWAP1 SWAP3 MSTORE PUSH1 0x0 PUSH1 0x44 DUP4 ADD DUP2 SWAP1 MSTORE PUSH1 0x64 DUP4 ADD MSTORE CALLER PUSH1 0x84 DUP4 ADD MSTORE PUSH1 0xA4 DUP3 ADD MSTORE SWAP1 PUSH1 0x60 SWAP1 DUP3 SWAP1 PUSH1 0xC4 SWAP1 DUP3 SWAP1 CALLVALUE SWAP1 GAS CALL DUP1 ISZERO PUSH2 0x17A1 JUMPI PUSH2 0x1779 JUMPI STOP JUMPDEST PUSH2 0x377 SWAP1 PUSH1 0x60 RETURNDATASIZE PUSH1 0x60 GT PUSH2 0x179A JUMPI JUMPDEST PUSH2 0x1792 DUP2 DUP4 PUSH2 0x1FCB JUMP JUMPDEST DUP2 ADD SWAP1 PUSH2 0x20A4 JUMP JUMPDEST POP RETURNDATASIZE PUSH2 0x1788 JUMP JUMPDEST PUSH1 0x40 MLOAD RETURNDATASIZE PUSH1 0x0 DUP3 RETURNDATACOPY RETURNDATASIZE SWAP1 REVERT JUMPDEST PUSH4 0x4E487B71 PUSH1 0xE0 SHL PUSH1 0x0 MSTORE PUSH1 0x11 PUSH1 0x4 MSTORE PUSH1 0x24 PUSH1 0x0 REVERT JUMPDEST CALLVALUE PUSH2 0x28D JUMPI PUSH1 0x0 CALLDATASIZE PUSH1 0x3 NOT ADD SLT PUSH2 0x28D JUMPI PUSH1 0x20 PUSH1 0x12 SLOAD PUSH1 0x40 MLOAD SWAP1 DUP2 MSTORE RETURN JUMPDEST CALLVALUE PUSH2 0x28D JUMPI PUSH1 0x0 CALLDATASIZE PUSH1 0x3 NOT ADD SLT PUSH2 0x28D JUMPI PUSH1 0x18 SLOAD PUSH1 0x40 MLOAD PUSH1 0x1 PUSH1 0x1 PUSH1 0xA0 SHL SUB SWAP1 SWAP2 AND DUP2 MSTORE PUSH1 0x20 SWAP1 RETURN JUMPDEST CALLVALUE PUSH2 0x28D JUMPI PUSH1 0x0 CALLDATASIZE PUSH1 0x3 NOT ADD SLT PUSH2 0x28D JUMPI PUSH1 0x20 PUSH1 0x9 SLOAD PUSH1 0x40 MLOAD SWAP1 DUP2 MSTORE RETURN JUMPDEST CALLVALUE PUSH2 0x28D JUMPI PUSH1 0x20 CALLDATASIZE PUSH1 0x3 NOT ADD SLT PUSH2 0x28D JUMPI PUSH2 0x377 PUSH1 0x4 CALLDATALOAD CALLER PUSH2 0x270E JUMP JUMPDEST CALLVALUE PUSH2 0x28D JUMPI PUSH1 0x0 CALLDATASIZE PUSH1 0x3 NOT ADD SLT PUSH2 0x28D JUMPI PUSH2 0x185E PUSH2 0x2371 JUMP JUMPDEST PUSH1 0x5 SLOAD PUSH1 0xFF DUP2 AND ISZERO PUSH2 0x189D JUMPI PUSH1 0xFF NOT AND PUSH1 0x5 SSTORE PUSH32 0x5DB9EE0A495BF2E6FF9C91A7834C1BA4FDD244A5E8AA4E537BD38AEAE4B073AA PUSH1 0x20 PUSH1 0x40 MLOAD CALLER DUP2 MSTORE LOG1 STOP JUMPDEST PUSH1 0x40 MLOAD PUSH3 0x461BCD PUSH1 0xE5 SHL DUP2 MSTORE PUSH1 0x20 PUSH1 0x4 DUP3 ADD MSTORE PUSH1 0x14 PUSH1 0x24 DUP3 ADD MSTORE PUSH20 0x14185D5CD8589B194E881B9BDD081C185D5CD959 PUSH1 0x62 SHL PUSH1 0x44 DUP3 ADD MSTORE PUSH1 0x64 SWAP1 REVERT JUMPDEST CALLVALUE PUSH2 0x28D JUMPI PUSH1 0x40 CALLDATASIZE PUSH1 0x3 NOT ADD SLT PUSH2 0x28D JUMPI PUSH2 0x11F3 PUSH2 0x18F5 PUSH2 0x1F49 JUMP JUMPDEST CALLER PUSH1 0x0 MSTORE PUSH1 0x1 PUSH1 0x20 MSTORE PUSH1 0x40 PUSH1 0x0 KECCAK256 PUSH1 0x1 DUP1 PUSH1 0xA0 SHL SUB DUP3 AND PUSH1 0x0 MSTORE PUSH1 0x20 MSTORE PUSH2 0x1923 PUSH1 0x24 CALLDATALOAD PUSH1 0x40 PUSH1 0x0 KECCAK256 SLOAD PUSH2 0x2097 JUMP JUMPDEST SWAP1 CALLER PUSH2 0x226F JUMP JUMPDEST PUSH1 0x20 DUP1 PUSH1 0x3 NOT CALLDATASIZE ADD SLT PUSH2 0x28D JUMPI PUSH1 0x4 CALLDATALOAD PUSH2 0x1942 PUSH2 0x2371 JUMP JUMPDEST PUSH2 0x194D CALLVALUE ISZERO ISZERO PUSH2 0x1FED JUMP JUMPDEST PUSH2 0x1958 DUP2 ISZERO ISZERO PUSH2 0x2029 JUMP JUMPDEST PUSH1 0x1C SLOAD DUP2 GT PUSH2 0x1BF5 JUMPI ADDRESS PUSH1 0x0 MSTORE PUSH1 0x0 DUP3 MSTORE DUP1 PUSH1 0x40 PUSH1 0x0 KECCAK256 SLOAD LT PUSH2 0x1BB0 JUMPI PUSH1 0x18 SLOAD PUSH1 0x1 PUSH1 0x1 PUSH1 0xA0 SHL SUB SWAP1 DUP2 AND ISZERO PUSH2 0x1A7B JUMPI JUMPDEST PUSH2 0x1995 DUP3 PUSH1 0x1C SLOAD PUSH2 0x208A JUMP JUMPDEST PUSH1 0x1C SSTORE DUP1 PUSH32 0x0 AND SWAP2 PUSH2 0x19C7 DUP2 DUP5 ADDRESS PUSH2 0x226F JUMP JUMPDEST PUSH2 0x12C TIMESTAMP ADD SWAP3 DUP4 TIMESTAMP GT PUSH2 0x17AD JUMPI PUSH1 0x40 MLOAD PUSH4 0xF305D719 PUSH1 0xE0 SHL DUP2 MSTORE ADDRESS PUSH1 0x4 DUP3 ADD MSTORE PUSH1 0x24 DUP2 ADD DUP4 SWAP1 MSTORE PUSH1 0x0 PUSH1 0x44 DUP3 ADD DUP2 SWAP1 MSTORE PUSH1 0x64 DUP3 ADD MSTORE CALLER PUSH1 0x84 DUP3 ADD MSTORE PUSH1 0xA4 DUP2 ADD SWAP5 SWAP1 SWAP5 MSTORE PUSH1 0x60 SWAP1 DUP5 SWAP1 PUSH1 0xC4 SWAP1 DUP3 SWAP1 CALLVALUE SWAP1 GAS CALL SWAP2 DUP3 ISZERO PUSH2 0x17A1 JUMPI PUSH32 0xAC1D76749E5447B7B16F5AB61447E1BD502F3BB4807AF3B28E620D1700A6EE45 SWAP4 PUSH1 0x40 SWAP4 PUSH2 0x1A5C JUMPI JUMPDEST POP PUSH1 0x18 SLOAD AND SWAP4 DUP3 MLOAD SWAP2 DUP3 MSTORE CALLVALUE SWAP1 DUP3 ADD MSTORE LOG2 STOP JUMPDEST PUSH2 0x1A74 SWAP1 PUSH1 0x60 RETURNDATASIZE PUSH1 0x60 GT PUSH2 0x179A JUMPI PUSH2 0x1792 DUP2 DUP4 PUSH2 0x1FCB JUMP JUMPDEST POP POP PUSH2 0x1A49 JUMP JUMPDEST PUSH1 0x40 MLOAD PUSH4 0xC45A0155 PUSH1 0xE0 SHL DUP2 MSTORE PUSH32 0x0 DUP3 AND SWAP1 DUP5 DUP2 PUSH1 0x4 DUP2 DUP6 GAS STATICCALL SWAP1 DUP2 ISZERO PUSH2 0x17A1 JUMPI DUP6 SWAP1 PUSH1 0x0 SWAP3 PUSH2 0x1B90 JUMPI JUMPDEST POP PUSH1 0x40 MLOAD PUSH4 0x15AB88C9 PUSH1 0xE3 SHL DUP2 MSTORE SWAP2 SWAP3 DUP3 SWAP1 PUSH1 0x4 SWAP1 DUP3 SWAP1 GAS STATICCALL DUP1 ISZERO PUSH2 0x17A1 JUMPI PUSH1 0x44 DUP5 SWAP2 DUP8 SWAP4 PUSH1 0x0 SWAP2 PUSH2 0x1B73 JUMPI JUMPDEST POP PUSH1 0x0 DUP4 PUSH1 0x40 MLOAD SWAP7 DUP8 SWAP6 DUP7 SWAP5 PUSH4 0x64E329CB PUSH1 0xE1 SHL DUP7 MSTORE ADDRESS PUSH1 0x4 DUP8 ADD MSTORE AND PUSH1 0x24 DUP6 ADD MSTORE AND GAS CALL DUP1 ISZERO PUSH2 0x17A1 JUMPI DUP3 SWAP2 PUSH1 0x0 SWAP2 PUSH2 0x1B46 JUMPI JUMPDEST POP AND PUSH12 0xFFFFFFFFFFFFFFFFFFFFFFFF PUSH1 0xA0 SHL PUSH1 0x18 SLOAD AND OR PUSH1 0x18 SSTORE PUSH2 0x1989 JUMP JUMPDEST PUSH2 0x1B66 SWAP2 POP DUP6 RETURNDATASIZE DUP8 GT PUSH2 0x1B6C JUMPI JUMPDEST PUSH2 0x1B5E DUP2 DUP4 PUSH2 0x1FCB JUMP JUMPDEST DUP2 ADD SWAP1 PUSH2 0x206B JUMP JUMPDEST DUP6 PUSH2 0x1B27 JUMP JUMPDEST POP RETURNDATASIZE PUSH2 0x1B54 JUMP JUMPDEST PUSH2 0x1B8A SWAP2 POP DUP5 RETURNDATASIZE DUP7 GT PUSH2 0x1B6C JUMPI PUSH2 0x1B5E DUP2 DUP4 PUSH2 0x1FCB JUMP JUMPDEST DUP9 PUSH2 0x1AF2 JUMP JUMPDEST PUSH1 0x4 SWAP3 POP PUSH2 0x1BAA SWAP1 DUP3 RETURNDATASIZE DUP5 GT PUSH2 0x1B6C JUMPI PUSH2 0x1B5E DUP2 DUP4 PUSH2 0x1FCB JUMP JUMPDEST SWAP2 PUSH2 0x1AC5 JUMP JUMPDEST PUSH1 0x40 MLOAD PUSH3 0x461BCD PUSH1 0xE5 SHL DUP2 MSTORE PUSH1 0x4 DUP2 ADD DUP4 SWAP1 MSTORE PUSH1 0x1D PUSH1 0x24 DUP3 ADD MSTORE PUSH32 0x496E73756666696369656E7420636F6E74726163742062616C616E6365000000 PUSH1 0x44 DUP3 ADD MSTORE PUSH1 0x64 SWAP1 REVERT JUMPDEST PUSH1 0x40 MLOAD PUSH3 0x461BCD PUSH1 0xE5 SHL DUP2 MSTORE PUSH1 0x4 DUP2 ADD DUP4 SWAP1 MSTORE PUSH1 0x2D PUSH1 0x24 DUP3 ADD MSTORE PUSH32 0x416D6F756E7420657863656564732072656D61696E696E67206C697175696469 PUSH1 0x44 DUP3 ADD MSTORE PUSH13 0x3A3C9030B63637B1B0BA34B7B7 PUSH1 0x99 SHL PUSH1 0x64 DUP3 ADD MSTORE PUSH1 0x84 SWAP1 REVERT JUMPDEST CALLVALUE PUSH2 0x28D JUMPI PUSH1 0x0 CALLDATASIZE PUSH1 0x3 NOT ADD SLT PUSH2 0x28D JUMPI PUSH1 0x20 PUSH1 0xF SLOAD PUSH1 0x40 MLOAD SWAP1 DUP2 MSTORE RETURN JUMPDEST CALLVALUE PUSH2 0x28D JUMPI PUSH1 0x0 CALLDATASIZE PUSH1 0x3 NOT ADD SLT PUSH2 0x28D JUMPI PUSH1 0x20 PUSH1 0x40 MLOAD PUSH1 0x12 DUP2 MSTORE RETURN JUMPDEST CALLVALUE PUSH2 0x28D JUMPI PUSH1 0x60 CALLDATASIZE PUSH1 0x3 NOT ADD SLT PUSH2 0x28D JUMPI PUSH2 0x11F3 PUSH2 0x1CA6 PUSH2 0x1F49 JUMP JUMPDEST PUSH2 0x1CAE PUSH2 0x1F5F JUMP JUMPDEST PUSH1 0x44 CALLDATALOAD SWAP2 PUSH2 0x1CBD DUP4 CALLER DUP4 PUSH2 0x23CC JUMP JUMPDEST PUSH2 0x2464 JUMP JUMPDEST CALLVALUE PUSH2 0x28D JUMPI PUSH1 0x0 CALLDATASIZE PUSH1 0x3 NOT ADD SLT PUSH2 0x28D JUMPI PUSH1 0x20 PUSH1 0x2 SLOAD PUSH1 0x40 MLOAD SWAP1 DUP2 MSTORE RETURN JUMPDEST CALLVALUE PUSH2 0x28D JUMPI PUSH1 0x0 CALLDATASIZE PUSH1 0x3 NOT ADD SLT PUSH2 0x28D JUMPI PUSH1 0x40 MLOAD PUSH32 0x0 PUSH1 0x1 PUSH1 0x1 PUSH1 0xA0 SHL SUB AND DUP2 MSTORE PUSH1 0x20 SWAP1 RETURN JUMPDEST CALLVALUE PUSH2 0x28D JUMPI PUSH1 0x40 CALLDATASIZE PUSH1 0x3 NOT ADD SLT PUSH2 0x28D JUMPI PUSH2 0x1D3E PUSH2 0x1F49 JUMP JUMPDEST PUSH1 0x24 CALLDATALOAD SWAP1 DUP2 ISZERO ISZERO DUP1 SWAP3 SUB PUSH2 0x28D JUMPI PUSH2 0x1D54 PUSH2 0x2371 JUMP JUMPDEST PUSH1 0xFF PUSH1 0x8 SLOAD AND ISZERO PUSH2 0x1DAF JUMPI PUSH1 0x20 PUSH32 0x6A12B3DF6CBA4203BD7FD06B816789F87DE8C594299AED5717AE070FAC781BAC SWAP2 PUSH1 0x1 DUP1 PUSH1 0xA0 SHL SUB AND SWAP3 DUP4 PUSH1 0x0 MSTORE PUSH1 0x16 DUP3 MSTORE PUSH1 0x40 PUSH1 0x0 KECCAK256 PUSH1 0xFF NOT DUP2 SLOAD AND PUSH1 0xFF DUP4 AND OR SWAP1 SSTORE PUSH1 0x40 MLOAD SWAP1 DUP2 MSTORE LOG2 STOP JUMPDEST PUSH1 0x40 MLOAD PUSH3 0x461BCD PUSH1 0xE5 SHL DUP2 MSTORE PUSH1 0x20 PUSH1 0x4 DUP3 ADD MSTORE PUSH1 0x18 PUSH1 0x24 DUP3 ADD MSTORE PUSH32 0x426C61636B6C697374206973206E6F7420656E61626C65640000000000000000 PUSH1 0x44 DUP3 ADD MSTORE PUSH1 0x64 SWAP1 REVERT JUMPDEST CALLVALUE PUSH2 0x28D JUMPI PUSH1 0x0 CALLDATASIZE PUSH1 0x3 NOT ADD SLT PUSH2 0x28D JUMPI PUSH1 0x20 PUSH1 0xFF PUSH1 0x14 SLOAD AND PUSH1 0x40 MLOAD SWAP1 ISZERO ISZERO DUP2 MSTORE RETURN JUMPDEST CALLVALUE PUSH2 0x28D JUMPI PUSH1 0x40 CALLDATASIZE PUSH1 0x3 NOT ADD SLT PUSH2 0x28D JUMPI PUSH2 0x11F3 PUSH2 0x1E33 PUSH2 0x1F49 JUMP JUMPDEST PUSH1 0x24 CALLDATALOAD SWAP1 CALLER PUSH2 0x226F JUMP JUMPDEST CALLVALUE PUSH2 0x28D JUMPI PUSH1 0x0 CALLDATASIZE PUSH1 0x3 NOT ADD SLT PUSH2 0x28D JUMPI PUSH1 0x40 MLOAD PUSH1 0x0 PUSH1 0x19 SLOAD PUSH2 0x1E5F DUP2 PUSH2 0x1F75 JUMP JUMPDEST DUP1 DUP5 MSTORE SWAP1 PUSH1 0x20 SWAP1 PUSH1 0x1 SWAP1 DUP2 DUP2 AND SWAP1 DUP2 ISZERO PUSH2 0x135E JUMPI POP PUSH1 0x1 EQ PUSH2 0x1E8B JUMPI PUSH2 0x1300 DUP6 PUSH2 0x12F4 DUP2 DUP8 SUB DUP3 PUSH2 0x1FCB JUMP JUMPDEST PUSH1 0x19 PUSH1 0x0 SWAP1 DUP2 MSTORE SWAP4 POP PUSH32 0x944998273E477B495144FB8794C914197F3CCB46BE2900F4698FD0EF743C9695 JUMPDEST DUP4 DUP6 LT PUSH2 0x1ED2 JUMPI POP POP POP POP DUP2 ADD PUSH1 0x20 ADD PUSH2 0x12F4 DUP3 PUSH2 0x1300 PUSH2 0x12E4 JUMP JUMPDEST DUP1 SLOAD DUP7 DUP7 ADD DUP5 ADD MSTORE SWAP4 DUP3 ADD SWAP4 DUP2 ADD PUSH2 0x1EB6 JUMP JUMPDEST CALLVALUE PUSH2 0x28D JUMPI PUSH1 0x0 CALLDATASIZE PUSH1 0x3 NOT ADD SLT PUSH2 0x28D JUMPI PUSH1 0x20 SWAP1 PUSH1 0x11 SLOAD DUP2 MSTORE RETURN JUMPDEST PUSH1 0x20 DUP1 DUP3 MSTORE DUP3 MLOAD DUP2 DUP4 ADD DUP2 SWAP1 MSTORE SWAP1 SWAP4 SWAP3 PUSH1 0x0 JUMPDEST DUP3 DUP2 LT PUSH2 0x1F35 JUMPI POP POP PUSH1 0x40 SWAP3 SWAP4 POP PUSH1 0x0 DUP4 DUP3 DUP5 ADD ADD MSTORE PUSH1 0x1F DUP1 NOT SWAP2 ADD AND ADD ADD SWAP1 JUMP JUMPDEST DUP2 DUP2 ADD DUP7 ADD MLOAD DUP5 DUP3 ADD PUSH1 0x40 ADD MSTORE DUP6 ADD PUSH2 0x1F13 JUMP JUMPDEST PUSH1 0x4 CALLDATALOAD SWAP1 PUSH1 0x1 PUSH1 0x1 PUSH1 0xA0 SHL SUB DUP3 AND DUP3 SUB PUSH2 0x28D JUMPI JUMP JUMPDEST PUSH1 0x24 CALLDATALOAD SWAP1 PUSH1 0x1 PUSH1 0x1 PUSH1 0xA0 SHL SUB DUP3 AND DUP3 SUB PUSH2 0x28D JUMPI JUMP JUMPDEST SWAP1 PUSH1 0x1 DUP3 DUP2 SHR SWAP3 AND DUP1 ISZERO PUSH2 0x1FA5 JUMPI JUMPDEST PUSH1 0x20 DUP4 LT EQ PUSH2 0x1F8F JUMPI JUMP JUMPDEST PUSH4 0x4E487B71 PUSH1 0xE0 SHL PUSH1 0x0 MSTORE PUSH1 0x22 PUSH1 0x4 MSTORE PUSH1 0x24 PUSH1 0x0 REVERT JUMPDEST SWAP2 PUSH1 0x7F AND SWAP2 PUSH2 0x1F84 JUMP JUMPDEST PUSH1 0xA0 DUP2 ADD SWAP1 DUP2 LT PUSH8 0xFFFFFFFFFFFFFFFF DUP3 GT OR PUSH2 0x10FF JUMPI PUSH1 0x40 MSTORE JUMP JUMPDEST SWAP1 PUSH1 0x1F DUP1 NOT SWAP2 ADD AND DUP2 ADD SWAP1 DUP2 LT PUSH8 0xFFFFFFFFFFFFFFFF DUP3 GT OR PUSH2 0x10FF JUMPI PUSH1 0x40 MSTORE JUMP JUMPDEST ISZERO PUSH2 0x1FF4 JUMPI JUMP JUMPDEST PUSH1 0x40 MLOAD PUSH3 0x461BCD PUSH1 0xE5 SHL DUP2 MSTORE PUSH1 0x20 PUSH1 0x4 DUP3 ADD MSTORE PUSH1 0xD PUSH1 0x24 DUP3 ADD MSTORE PUSH13 0x9AEAE6E840E6CADCC8408AA89 PUSH1 0x9B SHL PUSH1 0x44 DUP3 ADD MSTORE PUSH1 0x64 SWAP1 REVERT JUMPDEST ISZERO PUSH2 0x2030 JUMPI JUMP JUMPDEST PUSH1 0x40 MLOAD PUSH3 0x461BCD PUSH1 0xE5 SHL DUP2 MSTORE PUSH1 0x20 PUSH1 0x4 DUP3 ADD MSTORE PUSH1 0x13 PUSH1 0x24 DUP3 ADD MSTORE PUSH19 0x4D7573742070726F7669646520746F6B656E73 PUSH1 0x68 SHL PUSH1 0x44 DUP3 ADD MSTORE PUSH1 0x64 SWAP1 REVERT JUMPDEST SWAP1 DUP2 PUSH1 0x20 SWAP2 SUB SLT PUSH2 0x28D JUMPI MLOAD PUSH1 0x1 PUSH1 0x1 PUSH1 0xA0 SHL SUB DUP2 AND DUP2 SUB PUSH2 0x28D JUMPI SWAP1 JUMP JUMPDEST SWAP2 SWAP1 DUP3 SUB SWAP2 DUP3 GT PUSH2 0x17AD JUMPI JUMP JUMPDEST SWAP2 SWAP1 DUP3 ADD DUP1 SWAP3 GT PUSH2 0x17AD JUMPI JUMP JUMPDEST SWAP1 DUP2 PUSH1 0x60 SWAP2 SUB SLT PUSH2 0x28D JUMPI DUP1 MLOAD SWAP2 PUSH1 0x40 PUSH1 0x20 DUP4 ADD MLOAD SWAP3 ADD MLOAD SWAP1 JUMP JUMPDEST SWAP1 CALLDATALOAD SWAP1 PUSH1 0x1E NOT DUP2 CALLDATASIZE SUB ADD DUP3 SLT ISZERO PUSH2 0x28D JUMPI ADD DUP1 CALLDATALOAD SWAP1 PUSH8 0xFFFFFFFFFFFFFFFF DUP3 GT PUSH2 0x28D JUMPI PUSH1 0x20 ADD SWAP2 DUP2 CALLDATASIZE SUB DUP4 SGT PUSH2 0x28D JUMPI JUMP JUMPDEST CALLDATALOAD DUP1 ISZERO ISZERO DUP2 SUB PUSH2 0x28D JUMPI SWAP1 JUMP JUMPDEST DUP2 DUP2 MUL SWAP3 SWAP2 DUP2 ISZERO SWAP2 DUP5 DIV EQ OR ISZERO PUSH2 0x17AD JUMPI JUMP JUMPDEST DUP2 ISZERO PUSH2 0x211C JUMPI DIV SWAP1 JUMP JUMPDEST PUSH4 0x4E487B71 PUSH1 0xE0 SHL PUSH1 0x0 MSTORE PUSH1 0x12 PUSH1 0x4 MSTORE PUSH1 0x24 PUSH1 0x0 REVERT JUMPDEST SWAP1 CALLDATALOAD SWAP1 PUSH1 0x1E NOT DUP2 CALLDATASIZE SUB ADD DUP3 SLT ISZERO PUSH2 0x28D JUMPI ADD DUP1 CALLDATALOAD SWAP1 PUSH8 0xFFFFFFFFFFFFFFFF DUP3 GT PUSH2 0x28D JUMPI PUSH1 0x20 ADD SWAP2 PUSH1 0xC0 DUP3 MUL CALLDATASIZE SUB DUP4 SGT PUSH2 0x28D JUMPI JUMP JUMPDEST SWAP2 SWAP1 DUP2 LT ISZERO PUSH2 0x2178 JUMPI PUSH1 0xC0 MUL ADD SWAP1 JUMP JUMPDEST PUSH4 0x4E487B71 PUSH1 0xE0 SHL PUSH1 0x0 MSTORE PUSH1 0x32 PUSH1 0x4 MSTORE PUSH1 0x24 PUSH1 0x0 REVERT JUMPDEST CALLDATALOAD PUSH1 0x1 PUSH1 0x1 PUSH1 0xA0 SHL SUB DUP2 AND DUP2 SUB PUSH2 0x28D JUMPI SWAP1 JUMP JUMPDEST PUSH1 0x1 DUP1 PUSH1 0xA0 SHL SUB AND PUSH1 0x0 MSTORE PUSH1 0x15 PUSH1 0x20 MSTORE PUSH1 0x40 PUSH1 0x0 KECCAK256 PUSH1 0x40 MLOAD SWAP1 PUSH2 0x21C4 DUP3 PUSH2 0x1FAF JUMP JUMPDEST DUP1 SLOAD SWAP1 DUP2 DUP4 MSTORE PUSH1 0x1 DUP2 ADD SLOAD SWAP2 PUSH1 0x20 DUP5 ADD SWAP3 DUP4 MSTORE PUSH1 0x2 DUP3 ADD SLOAD PUSH1 0x40 DUP6 ADD SWAP2 DUP2 DUP4 MSTORE PUSH1 0x4 PUSH1 0x3 DUP6 ADD SLOAD SWAP5 PUSH1 0x60 DUP9 ADD SWAP6 DUP7 MSTORE ADD SLOAD SWAP1 DUP2 PUSH1 0x80 DUP9 ADD MSTORE ISZERO SWAP2 DUP3 ISZERO PUSH2 0x225C JUMPI JUMPDEST POP POP PUSH2 0x2253 JUMPI PUSH2 0x2216 SWAP1 MLOAD TIMESTAMP PUSH2 0x208A JUMP JUMPDEST DUP2 MLOAD DUP2 LT ISZERO PUSH2 0x2244 JUMPI SWAP1 PUSH2 0x2231 PUSH2 0x2239 SWAP3 PUSH2 0x2241 SWAP6 MLOAD PUSH2 0x20FF JUMP JUMPDEST SWAP1 MLOAD SWAP1 PUSH2 0x2112 JUMP JUMPDEST SWAP1 MLOAD SWAP1 PUSH2 0x208A JUMP JUMPDEST SWAP1 JUMP JUMPDEST POP POP PUSH2 0x2241 SWAP2 MLOAD SWAP1 MLOAD SWAP1 PUSH2 0x208A JUMP JUMPDEST POP POP POP POP PUSH1 0x0 SWAP1 JUMP JUMPDEST PUSH2 0x2266 SWAP3 POP PUSH2 0x2097 JUMP JUMPDEST TIMESTAMP LT CODESIZE DUP1 PUSH2 0x2205 JUMP JUMPDEST PUSH1 0x1 PUSH1 0x1 PUSH1 0xA0 SHL SUB SWAP1 DUP2 AND SWAP2 DUP3 ISZERO PUSH2 0x2320 JUMPI AND SWAP2 DUP3 ISZERO PUSH2 0x22D0 JUMPI PUSH1 0x20 PUSH32 0x8C5BE1E5EBEC7D5BD14F71427D1E84F3DD0314C0F7B2291E5B200AC8C7C3B925 SWAP2 DUP4 PUSH1 0x0 MSTORE PUSH1 0x1 DUP3 MSTORE PUSH1 0x40 PUSH1 0x0 KECCAK256 DUP6 PUSH1 0x0 MSTORE DUP3 MSTORE DUP1 PUSH1 0x40 PUSH1 0x0 KECCAK256 SSTORE PUSH1 0x40 MLOAD SWAP1 DUP2 MSTORE LOG3 JUMP JUMPDEST PUSH1 0x40 MLOAD PUSH3 0x461BCD PUSH1 0xE5 SHL DUP2 MSTORE PUSH1 0x20 PUSH1 0x4 DUP3 ADD MSTORE PUSH1 0x22 PUSH1 0x24 DUP3 ADD MSTORE PUSH32 0x45524332303A20617070726F766520746F20746865207A65726F206164647265 PUSH1 0x44 DUP3 ADD MSTORE PUSH2 0x7373 PUSH1 0xF0 SHL PUSH1 0x64 DUP3 ADD MSTORE PUSH1 0x84 SWAP1 REVERT JUMPDEST PUSH1 0x40 MLOAD PUSH3 0x461BCD PUSH1 0xE5 SHL DUP2 MSTORE PUSH1 0x20 PUSH1 0x4 DUP3 ADD MSTORE PUSH1 0x24 DUP1 DUP3 ADD MSTORE PUSH32 0x45524332303A20617070726F76652066726F6D20746865207A65726F20616464 PUSH1 0x44 DUP3 ADD MSTORE PUSH4 0x72657373 PUSH1 0xE0 SHL PUSH1 0x64 DUP3 ADD MSTORE PUSH1 0x84 SWAP1 REVERT JUMPDEST PUSH1 0x5 SLOAD PUSH1 0x8 SHR PUSH1 0x1 PUSH1 0x1 PUSH1 0xA0 SHL SUB AND CALLER SUB PUSH2 0x2388 JUMPI JUMP JUMPDEST PUSH1 0x64 PUSH1 0x40 MLOAD PUSH3 0x461BCD PUSH1 0xE5 SHL DUP2 MSTORE PUSH1 0x20 PUSH1 0x4 DUP3 ADD MSTORE PUSH1 0x20 PUSH1 0x24 DUP3 ADD MSTORE PUSH32 0x4F776E61626C653A2063616C6C6572206973206E6F7420746865206F776E6572 PUSH1 0x44 DUP3 ADD MSTORE REVERT JUMPDEST SWAP1 PUSH1 0x1 DUP1 PUSH1 0xA0 SHL SUB DUP1 DUP4 AND PUSH1 0x0 MSTORE PUSH1 0x1 PUSH1 0x20 MSTORE PUSH1 0x40 PUSH1 0x0 KECCAK256 SWAP1 DUP3 AND PUSH1 0x0 MSTORE PUSH1 0x20 MSTORE PUSH1 0x40 PUSH1 0x0 KECCAK256 SLOAD SWAP3 PUSH1 0x0 NOT DUP5 SUB PUSH2 0x2404 JUMPI JUMPDEST POP POP POP POP JUMP JUMPDEST DUP1 DUP5 LT PUSH2 0x241F JUMPI PUSH2 0x2416 SWAP4 SUB SWAP2 PUSH2 0x226F JUMP JUMPDEST CODESIZE DUP1 DUP1 DUP1 PUSH2 0x23FE JUMP JUMPDEST PUSH1 0x40 MLOAD PUSH3 0x461BCD PUSH1 0xE5 SHL DUP2 MSTORE PUSH1 0x20 PUSH1 0x4 DUP3 ADD MSTORE PUSH1 0x1D PUSH1 0x24 DUP3 ADD MSTORE PUSH32 0x45524332303A20696E73756666696369656E7420616C6C6F77616E6365000000 PUSH1 0x44 DUP3 ADD MSTORE PUSH1 0x64 SWAP1 REVERT JUMPDEST PUSH1 0x1 PUSH1 0x1 PUSH1 0xA0 SHL SUB SWAP1 DUP2 AND SWAP2 DUP3 ISZERO PUSH2 0x26BB JUMPI AND SWAP2 DUP3 ISZERO PUSH2 0x266A JUMPI PUSH1 0xFF PUSH1 0x5 SLOAD AND PUSH2 0x2612 JUMPI PUSH1 0x8 SLOAD PUSH1 0xFF DUP2 AND PUSH2 0x25A3 JUMPI JUMPDEST PUSH1 0x8 SHR PUSH1 0xFF AND PUSH2 0x254F JUMPI JUMPDEST PUSH1 0x0 DUP3 DUP2 MSTORE DUP1 PUSH1 0x20 MSTORE PUSH1 0x40 DUP2 KECCAK256 SLOAD SWAP2 DUP1 DUP4 LT PUSH2 0x24FB JUMPI PUSH1 0x40 DUP3 DUP3 PUSH32 0xDDF252AD1BE2C89B69C2B068FC378DAA952BA7F163C4A11628F55A4DF523B3EF SWAP6 DUP8 PUSH1 0x20 SWAP7 MSTORE DUP3 DUP7 MSTORE SUB DUP3 DUP3 KECCAK256 SSTORE DUP7 DUP2 MSTORE KECCAK256 DUP2 DUP2 SLOAD ADD SWAP1 SSTORE PUSH1 0x40 MLOAD SWAP1 DUP2 MSTORE LOG3 JUMP JUMPDEST PUSH1 0x40 MLOAD PUSH3 0x461BCD PUSH1 0xE5 SHL DUP2 MSTORE PUSH1 0x20 PUSH1 0x4 DUP3 ADD MSTORE PUSH1 0x26 PUSH1 0x24 DUP3 ADD MSTORE PUSH32 0x45524332303A207472616E7366657220616D6F756E7420657863656564732062 PUSH1 0x44 DUP3 ADD MSTORE PUSH6 0x616C616E6365 PUSH1 0xD0 SHL PUSH1 0x64 DUP3 ADD MSTORE PUSH1 0x84 SWAP1 REVERT JUMPDEST DUP2 PUSH1 0x0 MSTORE PUSH1 0x17 PUSH1 0x20 MSTORE PUSH1 0x40 PUSH1 0x0 KECCAK256 SLOAD TIMESTAMP LT ISZERO PUSH2 0x249F JUMPI PUSH1 0x40 MLOAD PUSH3 0x461BCD PUSH1 0xE5 SHL DUP2 MSTORE PUSH1 0x20 PUSH1 0x4 DUP3 ADD MSTORE PUSH1 0x16 PUSH1 0x24 DUP3 ADD MSTORE PUSH22 0x151BDAD95B9CC8185C99481D1A5B594B5B1BD8DAD959 PUSH1 0x52 SHL PUSH1 0x44 DUP3 ADD MSTORE PUSH1 0x64 SWAP1 REVERT JUMPDEST DUP3 PUSH1 0x0 MSTORE PUSH1 0x16 PUSH1 0x20 MSTORE PUSH1 0xFF PUSH1 0x40 PUSH1 0x0 KECCAK256 SLOAD AND ISZERO DUP1 PUSH2 0x25FE JUMPI JUMPDEST PUSH2 0x2494 JUMPI PUSH1 0x40 MLOAD PUSH3 0x461BCD PUSH1 0xE5 SHL DUP2 MSTORE PUSH1 0x20 PUSH1 0x4 DUP3 ADD MSTORE PUSH1 0x16 PUSH1 0x24 DUP3 ADD MSTORE PUSH22 0x1059191C995CDCC81A5CC8189B1858DADB1A5CDD1959 PUSH1 0x52 SHL PUSH1 0x44 DUP3 ADD MSTORE PUSH1 0x64 SWAP1 REVERT JUMPDEST POP DUP4 PUSH1 0x0 MSTORE PUSH1 0xFF PUSH1 0x40 PUSH1 0x0 KECCAK256 SLOAD AND ISZERO PUSH2 0x25BC JUMP JUMPDEST PUSH1 0x40 MLOAD PUSH3 0x461BCD PUSH1 0xE5 SHL DUP2 MSTORE PUSH1 0x20 PUSH1 0x4 DUP3 ADD MSTORE PUSH1 0x2A PUSH1 0x24 DUP3 ADD MSTORE PUSH32 0x45524332305061757361626C653A20746F6B656E207472616E73666572207768 PUSH1 0x44 DUP3 ADD MSTORE PUSH10 0x1A5B19481C185D5CD959 PUSH1 0xB2 SHL PUSH1 0x64 DUP3 ADD MSTORE PUSH1 0x84 SWAP1 REVERT JUMPDEST PUSH1 0x40 MLOAD PUSH3 0x461BCD PUSH1 0xE5 SHL DUP2 MSTORE PUSH1 0x20 PUSH1 0x4 DUP3 ADD MSTORE PUSH1 0x23 PUSH1 0x24 DUP3 ADD MSTORE PUSH32 0x45524332303A207472616E7366657220746F20746865207A65726F2061646472 PUSH1 0x44 DUP3 ADD MSTORE PUSH3 0x657373 PUSH1 0xE8 SHL PUSH1 0x64 DUP3 ADD MSTORE PUSH1 0x84 SWAP1 REVERT JUMPDEST PUSH1 0x40 MLOAD PUSH3 0x461BCD PUSH1 0xE5 SHL DUP2 MSTORE PUSH1 0x20 PUSH1 0x4 DUP3 ADD MSTORE PUSH1 0x25 PUSH1 0x24 DUP3 ADD MSTORE PUSH32 0x45524332303A207472616E736665722066726F6D20746865207A65726F206164 PUSH1 0x44 DUP3 ADD MSTORE PUSH5 0x6472657373 PUSH1 0xD8 SHL PUSH1 0x64 DUP3 ADD MSTORE PUSH1 0x84 SWAP1 REVERT JUMPDEST PUSH1 0x1 PUSH1 0x1 PUSH1 0xA0 SHL SUB AND DUP1 ISZERO PUSH2 0x28AA JUMPI PUSH1 0xFF PUSH1 0x5 SLOAD AND PUSH2 0x2612 JUMPI PUSH1 0x8 SLOAD PUSH1 0xFF DUP2 AND PUSH2 0x283B JUMPI JUMPDEST PUSH1 0x8 SHR PUSH1 0xFF AND PUSH2 0x27E7 JUMPI JUMPDEST PUSH1 0x0 SWAP2 DUP2 DUP4 MSTORE DUP3 PUSH1 0x20 MSTORE PUSH1 0x40 DUP4 KECCAK256 SLOAD DUP2 DUP2 LT PUSH2 0x2797 JUMPI DUP2 PUSH32 0xDDF252AD1BE2C89B69C2B068FC378DAA952BA7F163C4A11628F55A4DF523B3EF SWAP3 PUSH1 0x20 SWAP3 DUP6 DUP8 MSTORE DUP7 DUP5 MSTORE SUB PUSH1 0x40 DUP7 KECCAK256 SSTORE DUP1 PUSH1 0x2 SLOAD SUB PUSH1 0x2 SSTORE PUSH1 0x40 MLOAD SWAP1 DUP2 MSTORE LOG3 JUMP JUMPDEST PUSH1 0x40 MLOAD PUSH3 0x461BCD PUSH1 0xE5 SHL DUP2 MSTORE PUSH1 0x20 PUSH1 0x4 DUP3 ADD MSTORE PUSH1 0x22 PUSH1 0x24 DUP3 ADD MSTORE PUSH32 0x45524332303A206275726E20616D6F756E7420657863656564732062616C616E PUSH1 0x44 DUP3 ADD MSTORE PUSH2 0x6365 PUSH1 0xF0 SHL PUSH1 0x64 DUP3 ADD MSTORE PUSH1 0x84 SWAP1 REVERT JUMPDEST DUP1 PUSH1 0x0 MSTORE PUSH1 0x17 PUSH1 0x20 MSTORE PUSH1 0x40 PUSH1 0x0 KECCAK256 SLOAD TIMESTAMP LT ISZERO PUSH2 0x273E JUMPI PUSH1 0x40 MLOAD PUSH3 0x461BCD PUSH1 0xE5 SHL DUP2 MSTORE PUSH1 0x20 PUSH1 0x4 DUP3 ADD MSTORE PUSH1 0x16 PUSH1 0x24 DUP3 ADD MSTORE PUSH22 0x151BDAD95B9CC8185C99481D1A5B594B5B1BD8DAD959 PUSH1 0x52 SHL PUSH1 0x44 DUP3 ADD MSTORE PUSH1 0x64 SWAP1 REVERT JUMPDEST DUP2 PUSH1 0x0 MSTORE PUSH1 0x16 PUSH1 0x20 MSTORE PUSH1 0xFF PUSH1 0x40 PUSH1 0x0 KECCAK256 SLOAD AND ISZERO DUP1 PUSH2 0x2896 JUMPI JUMPDEST PUSH2 0x2733 JUMPI PUSH1 0x40 MLOAD PUSH3 0x461BCD PUSH1 0xE5 SHL DUP2 MSTORE PUSH1 0x20 PUSH1 0x4 DUP3 ADD MSTORE PUSH1 0x16 PUSH1 0x24 DUP3 ADD MSTORE PUSH22 0x1059191C995CDCC81A5CC8189B1858DADB1A5CDD1959 PUSH1 0x52 SHL PUSH1 0x44 DUP3 ADD MSTORE PUSH1 0x64 SWAP1 REVERT JUMPDEST POP PUSH1 0x0 DUP1 MSTORE PUSH1 0xFF PUSH1 0x40 PUSH1 0x0 KECCAK256 SLOAD AND ISZERO PUSH2 0x2854 JUMP JUMPDEST PUSH1 0x40 MLOAD PUSH3 0x461BCD PUSH1 0xE5 SHL DUP2 MSTORE PUSH1 0x20 PUSH1 0x4 DUP3 ADD MSTORE PUSH1 0x21 PUSH1 0x24 DUP3 ADD MSTORE PUSH32 0x45524332303A206275726E2066726F6D20746865207A65726F20616464726573 PUSH1 0x44 DUP3 ADD MSTORE PUSH1 0x73 PUSH1 0xF8 SHL PUSH1 0x64 DUP3 ADD MSTORE PUSH1 0x84 SWAP1 REVERT JUMPDEST PUSH1 0x5 DUP1 SLOAD PUSH2 0x100 PUSH1 0x1 PUSH1 0xA8 SHL SUB NOT DUP2 AND PUSH1 0x8 DUP5 DUP2 SHL PUSH2 0x100 PUSH1 0x1 PUSH1 0xA8 SHL SUB AND SWAP2 SWAP1 SWAP2 OR SWAP1 SWAP3 SSTORE PUSH1 0x1 PUSH1 0x1 PUSH1 0xA0 SHL SUB SWAP3 DUP4 AND SWAP3 SWAP2 SHR AND PUSH32 0x8BE0079C531659141344CD1FD0A4F28419497F9722A3DAAFE3B4186F6B6457E0 PUSH1 0x0 DUP1 LOG3 JUMP INVALID LOG2 PUSH5 0x6970667358 0x22 SLT KECCAK256 PUSH15 0x3ECCEE1D62134BA9285BE48D96D9E SWAP16 0xEF SUB 0xB2 PUSH20 0x4F68B4C4F84FD2B5FF06CF64736F6C6343000816 STOP CALLER LOG2 PUSH5 0x6970667358 0x22 SLT KECCAK256 0xEA 0xEC DUP7 PUSH28 0xA6F0D8AA841F110D2ADC7EA560421DFA0FD45D49EE006DF9B1C9B277 PUSH5 0x736F6C6343 STOP ADDMOD AND STOP CALLER "},"gasEstimates":{"creation":{"codeDepositCost":"3461800","executionCost":"infinite","totalCost":"infinite"},"external":{"VERSION()":"infinite","createToken((string,string,uint256,uint256,address,bool,bool,uint256,uint256,uint256,uint256,uint256,uint256,uint256,uint256,uint256,uint256,(address,uint256,bool,uint256,uint256,uint256)[],uint256,bool))":"infinite","customDeploymentFees(address)":"2607","deployedTokens(uint256)":"4708","deploymentFee()":"2563","getDeploymentFee(address)":"4646","getTokenCreator(address)":"2638","getUserCreatedTokens(address)":"infinite","getUserTokenCount(address)":"2563","isTokenCreator(address,address)":"2656","owner()":"2386","renounceOwnership()":"28142","routerAddress()":"infinite","setCustomDeploymentFee(address,uint256)":"26219","setDeploymentFee(uint256)":"25703","transferOwnership(address)":"28482","withdrawFees()":"infinite"}},"methodIdentifiers":{"VERSION()":"ffa1ad74","createToken((string,string,uint256,uint256,address,bool,bool,uint256,uint256,uint256,uint256,uint256,uint256,uint256,uint256,uint256,uint256,(address,uint256,bool,uint256,uint256,uint256)[],uint256,bool))":"62acbf4b","customDeploymentFees(address)":"c05ddda8","deployedTokens(uint256)":"ec81aadb","deploymentFee()":"f2cff57f","getDeploymentFee(address)":"1652da42","getTokenCreator(address)":"c78418b9","getUserCreatedTokens(address)":"c00be1a0","getUserTokenCount(address)":"b8a6f402","isTokenCreator(address,address)":"ae6862ff","owner()":"8da5cb5b","renounceOwnership()":"715018a6","routerAddress()":"3268cc56","setCustomDeploymentFee(address,uint256)":"cbf1208f","setDeploymentFee(uint256)":"d002462b","transferOwnership(address)":"f2fde38b","withdrawFees()":"476343ee"}},"storageLayout":{"storage":[{"astId":7,"contract":"src/contracts/TokenFactory_v3.sol:TokenFactory_v3","label":"_owner","offset":0,"slot":"0","type":"t_address"},{"astId":231,"contract":"src/contracts/TokenFactory_v3.sol:TokenFactory_v3","label":"_status","offset":0,"slot":"1","type":"t_uint256"},{"astId":1560,"contract":"src/contracts/TokenFactory_v3.sol:TokenFactory_v3","label":"deploymentFee","offset":0,"slot":"2","type":"t_uint256"},{"astId":1563,"contract":"src/contracts/TokenFactory_v3.sol:TokenFactory_v3","label":"deployedTokens","offset":0,"slot":"3","type":"t_array(t_address)dyn_storage"},{"astId":1568,"contract":"src/contracts/TokenFactory_v3.sol:TokenFactory_v3","label":"userCreatedTokens","offset":0,"slot":"4","type":"t_mapping(t_address,t_array(t_address)dyn_storage)"},{"astId":1574,"contract":"src/contracts/TokenFactory_v3.sol:TokenFactory_v3","label":"isUserToken","offset":0,"slot":"5","type":"t_mapping(t_address,t_mapping(t_address,t_bool))"},{"astId":1578,"contract":"src/contracts/TokenFactory_v3.sol:TokenFactory_v3","label":"tokenCreator","offset":0,"slot":"6","type":"t_mapping(t_address,t_address)"},{"astId":1582,"contract":"src/contracts/TokenFactory_v3.sol:TokenFactory_v3","label":"customDeploymentFees","offset":0,"slot":"7","type":"t_mapping(t_address,t_uint256)"}],"types":{"t_address":{"encoding":"inplace","label":"address","numberOfBytes":"20"},"t_array(t_address)dyn_storage":{"base":"t_address","encoding":"dynamic_array","label":"address[]","numberOfBytes":"32"},"t_bool":{"encoding":"inplace","label":"bool","numberOfBytes":"1"},"t_mapping(t_address,t_address)":{"encoding":"mapping","key":"t_address","label":"mapping(address => address)","numberOfBytes":"32","value":"t_address"},"t_mapping(t_address,t_array(t_address)dyn_storage)":{"encoding":"mapping","key":"t_address","label":"mapping(address => address[])","numberOfBytes":"32","value":"t_array(t_address)dyn_storage"},"t_mapping(t_address,t_bool)":{"encoding":"mapping","key":"t_address","label":"mapping(address => bool)","numberOfBytes":"32","value":"t_bool"},"t_mapping(t_address,t_mapping(t_address,t_bool))":{"encoding":"mapping","key":"t_address","label":"mapping(address => mapping(address => bool))","numberOfBytes":"32","value":"t_mapping(t_address,t_bool)"},"t_mapping(t_address,t_uint256)":{"encoding":"mapping","key":"t_address","label":"mapping(address => uint256)","numberOfBytes":"32","value":"t_uint256"},"t_uint256":{"encoding":"inplace","label":"uint256","numberOfBytes":"32"}}},"userdoc":{"kind":"user","methods":{},"version":1}}}}