{"src/contracts/TokenTemplate_v2DirectDEX.sol":{"TokenTemplate_v2DirectDEX":{"abi":[{"inputs":[{"internalType":"string","name":"name_","type":"string"},{"internalType":"string","name":"symbol_","type":"string"},{"internalType":"uint256","name":"totalSupply_","type":"uint256"},{"internalType":"uint256","name":"maxTxAmount_","type":"uint256"},{"internalType":"uint256","name":"maxWalletAmount_","type":"uint256"},{"internalType":"bool","name":"enableTrading_","type":"bool"},{"internalType":"uint256","name":"tradingStartTime_","type":"uint256"},{"internalType":"address","name":"dexRouter_","type":"address"},{"internalType":"uint256","name":"marketingFeePercentage_","type":"uint256"},{"internalType":"uint256","name":"developmentFeePercentage_","type":"uint256"},{"internalType":"uint256","name":"autoLiquidityFeePercentage_","type":"uint256"},{"internalType":"address","name":"marketingWallet_","type":"address"},{"internalType":"address","name":"developmentWallet_","type":"address"},{"internalType":"address","name":"autoLiquidityWallet_","type":"address"}],"stateMutability":"nonpayable","type":"constructor"},{"anonymous":false,"inputs":[{"indexed":true,"internalType":"address","name":"owner","type":"address"},{"indexed":true,"internalType":"address","name":"spender","type":"address"},{"indexed":false,"internalType":"uint256","name":"value","type":"uint256"}],"name":"Approval","type":"event"},{"anonymous":false,"inputs":[{"indexed":false,"internalType":"address","name":"account","type":"address"},{"indexed":false,"internalType":"bool","name":"isBlacklisted","type":"bool"}],"name":"BlacklistUpdated","type":"event"},{"anonymous":false,"inputs":[{"indexed":false,"internalType":"uint256","name":"amount","type":"uint256"}],"name":"MaxTxAmountUpdated","type":"event"},{"anonymous":false,"inputs":[{"indexed":false,"internalType":"uint256","name":"amount","type":"uint256"}],"name":"MaxWalletAmountUpdated","type":"event"},{"anonymous":false,"inputs":[{"indexed":true,"internalType":"address","name":"previousOwner","type":"address"},{"indexed":true,"internalType":"address","name":"newOwner","type":"address"}],"name":"OwnershipTransferred","type":"event"},{"anonymous":false,"inputs":[{"indexed":false,"internalType":"uint256","name":"totalFees","type":"uint256"}],"name":"TaxesUpdated","type":"event"},{"anonymous":false,"inputs":[{"indexed":false,"internalType":"uint256","name":"timestamp","type":"uint256"}],"name":"TradingEnabled","type":"event"},{"anonymous":false,"inputs":[{"indexed":true,"internalType":"address","name":"from","type":"address"},{"indexed":true,"internalType":"address","name":"to","type":"address"},{"indexed":false,"internalType":"uint256","name":"value","type":"uint256"}],"name":"Transfer","type":"event"},{"anonymous":false,"inputs":[{"indexed":false,"internalType":"address","name":"marketing","type":"address"},{"indexed":false,"internalType":"address","name":"development","type":"address"},{"indexed":false,"internalType":"address","name":"autoLiquidity","type":"address"}],"name":"WalletsUpdated","type":"event"},{"inputs":[],"name":"MIN_TOKENS_FOR_LIQUIDITY","outputs":[{"internalType":"uint256","name":"","type":"uint256"}],"stateMutability":"view","type":"function"},{"inputs":[],"name":"VERSION","outputs":[{"internalType":"uint256","name":"","type":"uint256"}],"stateMutability":"view","type":"function"},{"inputs":[],"name":"VERSION_HASH","outputs":[{"internalType":"bytes32","name":"","type":"bytes32"}],"stateMutability":"view","type":"function"},{"inputs":[{"internalType":"address","name":"owner","type":"address"},{"internalType":"address","name":"spender","type":"address"}],"name":"allowance","outputs":[{"internalType":"uint256","name":"","type":"uint256"}],"stateMutability":"view","type":"function"},{"inputs":[{"internalType":"address","name":"spender","type":"address"},{"internalType":"uint256","name":"amount","type":"uint256"}],"name":"approve","outputs":[{"internalType":"bool","name":"","type":"bool"}],"stateMutability":"nonpayable","type":"function"},{"inputs":[],"name":"autoLiquidityFeePercentage","outputs":[{"internalType":"uint256","name":"","type":"uint256"}],"stateMutability":"view","type":"function"},{"inputs":[],"name":"autoLiquidityWallet","outputs":[{"internalType":"address","name":"","type":"address"}],"stateMutability":"view","type":"function"},{"inputs":[{"internalType":"address","name":"account","type":"address"}],"name":"balanceOf","outputs":[{"internalType":"uint256","name":"","type":"uint256"}],"stateMutability":"view","type":"function"},{"inputs":[],"name":"decimals","outputs":[{"internalType":"uint8","name":"","type":"uint8"}],"stateMutability":"view","type":"function"},{"inputs":[{"internalType":"address","name":"spender","type":"address"},{"internalType":"uint256","name":"subtractedValue","type":"uint256"}],"name":"decreaseAllowance","outputs":[{"internalType":"bool","name":"","type":"bool"}],"stateMutability":"nonpayable","type":"function"},{"inputs":[],"name":"developmentFeePercentage","outputs":[{"internalType":"uint256","name":"","type":"uint256"}],"stateMutability":"view","type":"function"},{"inputs":[],"name":"developmentWallet","outputs":[{"internalType":"address","name":"","type":"address"}],"stateMutability":"view","type":"function"},{"inputs":[],"name":"dexPair","outputs":[{"internalType":"address","name":"","type":"address"}],"stateMutability":"view","type":"function"},{"inputs":[],"name":"dexRouter","outputs":[{"internalType":"address","name":"","type":"address"}],"stateMutability":"view","type":"function"},{"inputs":[],"name":"enableTrading","outputs":[],"stateMutability":"nonpayable","type":"function"},{"inputs":[{"internalType":"address","name":"account","type":"address"},{"internalType":"bool","name":"excluded","type":"bool"}],"name":"excludeFromAutoLiquidity","outputs":[],"stateMutability":"nonpayable","type":"function"},{"inputs":[{"internalType":"address","name":"spender","type":"address"},{"internalType":"uint256","name":"addedValue","type":"uint256"}],"name":"increaseAllowance","outputs":[{"internalType":"bool","name":"","type":"bool"}],"stateMutability":"nonpayable","type":"function"},{"inputs":[{"internalType":"address","name":"","type":"address"}],"name":"isBlacklisted","outputs":[{"internalType":"bool","name":"","type":"bool"}],"stateMutability":"view","type":"function"},{"inputs":[{"internalType":"address","name":"","type":"address"}],"name":"isExcludedFromAutoLiquidity","outputs":[{"internalType":"bool","name":"","type":"bool"}],"stateMutability":"view","type":"function"},{"inputs":[],"name":"marketingFeePercentage","outputs":[{"internalType":"uint256","name":"","type":"uint256"}],"stateMutability":"view","type":"function"},{"inputs":[],"name":"marketingWallet","outputs":[{"internalType":"address","name":"","type":"address"}],"stateMutability":"view","type":"function"},{"inputs":[],"name":"maxTxAmount","outputs":[{"internalType":"uint256","name":"","type":"uint256"}],"stateMutability":"view","type":"function"},{"inputs":[],"name":"maxWalletAmount","outputs":[{"internalType":"uint256","name":"","type":"uint256"}],"stateMutability":"view","type":"function"},{"inputs":[],"name":"name","outputs":[{"internalType":"string","name":"","type":"string"}],"stateMutability":"view","type":"function"},{"inputs":[],"name":"owner","outputs":[{"internalType":"address","name":"","type":"address"}],"stateMutability":"view","type":"function"},{"inputs":[],"name":"renounceOwnership","outputs":[],"stateMutability":"nonpayable","type":"function"},{"inputs":[{"internalType":"address","name":"account","type":"address"},{"internalType":"bool","name":"blacklisted","type":"bool"}],"name":"setBlacklist","outputs":[],"stateMutability":"nonpayable","type":"function"},{"inputs":[{"internalType":"uint256","name":"amount","type":"uint256"}],"name":"setMaxTxAmount","outputs":[],"stateMutability":"nonpayable","type":"function"},{"inputs":[{"internalType":"uint256","name":"amount","type":"uint256"}],"name":"setMaxWalletAmount","outputs":[],"stateMutability":"nonpayable","type":"function"},{"inputs":[{"internalType":"uint256","name":"marketingFee","type":"uint256"},{"internalType":"uint256","name":"developmentFee","type":"uint256"},{"internalType":"uint256","name":"autoLiquidityFee","type":"uint256"}],"name":"setTaxes","outputs":[],"stateMutability":"nonpayable","type":"function"},{"inputs":[{"internalType":"address","name":"marketing","type":"address"},{"internalType":"address","name":"development","type":"address"},{"internalType":"address","name":"autoLiquidity","type":"address"}],"name":"setWallets","outputs":[],"stateMutability":"nonpayable","type":"function"},{"inputs":[],"name":"symbol","outputs":[{"internalType":"string","name":"","type":"string"}],"stateMutability":"view","type":"function"},{"inputs":[],"name":"totalSupply","outputs":[{"internalType":"uint256","name":"","type":"uint256"}],"stateMutability":"view","type":"function"},{"inputs":[],"name":"tradingEnabled","outputs":[{"internalType":"bool","name":"","type":"bool"}],"stateMutability":"view","type":"function"},{"inputs":[],"name":"tradingStartTime","outputs":[{"internalType":"uint256","name":"","type":"uint256"}],"stateMutability":"view","type":"function"},{"inputs":[{"internalType":"address","name":"to","type":"address"},{"internalType":"uint256","name":"amount","type":"uint256"}],"name":"transfer","outputs":[{"internalType":"bool","name":"","type":"bool"}],"stateMutability":"nonpayable","type":"function"},{"inputs":[{"internalType":"address","name":"from","type":"address"},{"internalType":"address","name":"to","type":"address"},{"internalType":"uint256","name":"amount","type":"uint256"}],"name":"transferFrom","outputs":[{"internalType":"bool","name":"","type":"bool"}],"stateMutability":"nonpayable","type":"function"},{"inputs":[{"internalType":"address","name":"newOwner","type":"address"}],"name":"transferOwnership","outputs":[],"stateMutability":"nonpayable","type":"function"}],"devdoc":{"events":{"Approval(address,address,uint256)":{"details":"Emitted when the allowance of a `spender` for an `owner` is set by a call to {approve}. `value` is the new allowance."},"Transfer(address,address,uint256)":{"details":"Emitted when `value` tokens are moved from one account (`from`) to another (`to`). Note that `value` may be zero."}},"kind":"dev","methods":{"allowance(address,address)":{"details":"See {IERC20-allowance}."},"approve(address,uint256)":{"details":"See {IERC20-approve}. NOTE: If `amount` is the maximum `uint256`, the allowance is not updated on `transferFrom`. This is semantically equivalent to an infinite approval. Requirements: - `spender` cannot be the zero address."},"balanceOf(address)":{"details":"See {IERC20-balanceOf}."},"decimals()":{"details":"Returns the number of decimals used to get its user representation. For example, if `decimals` equals `2`, a balance of `505` tokens should be displayed to a user as `5.05` (`505 / 10 ** 2`). Tokens usually opt for a value of 18, imitating the relationship between Ether and Wei. This is the default value returned by this function, unless it's overridden. NOTE: This information is only used for _display_ purposes: it in no way affects any of the arithmetic of the contract, including {IERC20-balanceOf} and {IERC20-transfer}."},"decreaseAllowance(address,uint256)":{"details":"Atomically decreases the allowance granted to `spender` by the caller. This is an alternative to {approve} that can be used as a mitigation for problems described in {IERC20-approve}. Emits an {Approval} event indicating the updated allowance. Requirements: - `spender` cannot be the zero address. - `spender` must have allowance for the caller of at least `subtractedValue`."},"increaseAllowance(address,uint256)":{"details":"Atomically increases the allowance granted to `spender` by the caller. This is an alternative to {approve} that can be used as a mitigation for problems described in {IERC20-approve}. Emits an {Approval} event indicating the updated allowance. Requirements: - `spender` cannot be the zero address."},"name()":{"details":"Returns the name of the token."},"owner()":{"details":"Returns the address of the current owner."},"renounceOwnership()":{"details":"Leaves the contract without owner. It will not be possible to call `onlyOwner` functions. Can only be called by the current owner. NOTE: Renouncing ownership will leave the contract without an owner, thereby disabling any functionality that is only available to the owner."},"symbol()":{"details":"Returns the symbol of the token, usually a shorter version of the name."},"totalSupply()":{"details":"See {IERC20-totalSupply}."},"transfer(address,uint256)":{"details":"See {IERC20-transfer}. Requirements: - `to` cannot be the zero address. - the caller must have a balance of at least `amount`."},"transferFrom(address,address,uint256)":{"details":"See {IERC20-transferFrom}. Emits an {Approval} event indicating the updated allowance. This is not required by the EIP. See the note at the beginning of {ERC20}. NOTE: Does not update the allowance if the current allowance is the maximum `uint256`. Requirements: - `from` and `to` cannot be the zero address. - `from` must have a balance of at least `amount`. - the caller must have allowance for ``from``'s tokens of at least `amount`."},"transferOwnership(address)":{"details":"Transfers ownership of the contract to a new account (`newOwner`). Can only be called by the current owner."}},"version":1},"evm":{"bytecode":{"linkReferences":{},"object":"6080604052346200084d576200213e803803806200001d8162000852565b9283398101906101c0818303126200084d5780516001600160401b0381116200084d57826200004e91830162000878565b602082015190926001600160401b0382116200084d576200007191830162000878565b9160408201519160608101519260808201519460a08301519586151587036200084d5760c0840151620000a760e08601620008ea565b92610100860151906101208701519261014088015194620000cc6101608a01620008ea565b92620000eb6101a0620000e36101808d01620008ea565b9b01620008ea565b8b51909b6001600160401b0382116200071c5760035490600182811c9216801562000842575b6020831014620006fb5781601f849311620007cd575b50602090601f83116001146200073e5760009262000732575b50508160011b916000199060031b1c1916176003555b8051906001600160401b0382116200071c5760045490600182811c9216801562000711575b6020831014620006fb5781601f84931162000689575b50602090601f8311600114620005fa57600092620005ee575b50508160011b916000199060031b1c1916176004555b620001cb3362000923565b600160065587156200059d57878b116200053e57878111620004e45760196200020087620001fa8888620008ff565b620008ff565b116200049f576001600160a01b039283169889156200044a578316998a15620003f35783169a8b1562000399573315620003545788620002448d9a600254620008ff565b600255336000526000602052604060002081815401905560405190815260007fddf252ad1be2c89b69c2b068fc378daa952ba7f163c4a11628f55a4df523b3ef60203393a3600955600a5560ff199a60ff8c60075416911515161760075560085560018060a01b0319941684600b541617600b55600d55600e55600f55828160105416176010558381601154161760115560125416176012553360005260136020526040600020600185825416179055306000526040600020600185825416179055600052604060002060018482541617905560005260406000206001838254161790556000526001604060002091825416179055620003443362000923565b6040516117d190816200096d8239f35b60405162461bcd60e51b815260206004820152601f60248201527f45524332303a206d696e7420746f20746865207a65726f2061646472657373006044820152606490fd5b60405162461bcd60e51b815260206004820152602c60248201527f4175746f2d6c69717569646974792077616c6c65742063616e6e6f742062652060448201526b7a65726f206164647265737360a01b6064820152608490fd5b60405162461bcd60e51b815260206004820152602960248201527f446576656c6f706d656e742077616c6c65742063616e6e6f74206265207a65726044820152686f206164647265737360b81b6064820152608490fd5b60405162461bcd60e51b815260206004820152602760248201527f4d61726b6574696e672077616c6c65742063616e6e6f74206265207a65726f206044820152666164647265737360c81b6064820152608490fd5b60405162461bcd60e51b815260206004820152601c60248201527f546f74616c20666565732063616e6e6f742065786365656420323525000000006044820152606490fd5b60405162461bcd60e51b815260206004820152602c60248201527f4d61782077616c6c657420616d6f756e742063616e6e6f74206578636565642060448201526b746f74616c20737570706c7960a01b6064820152608490fd5b60405162461bcd60e51b815260206004820152603160248201527f4d6178207472616e73616374696f6e20616d6f756e742063616e6e6f742065786044820152706365656420746f74616c20737570706c7960781b6064820152608490fd5b60405162461bcd60e51b815260206004820152602360248201527f546f74616c20737570706c79206d75737420626520677265617465722074686160448201526206e20360ec1b6064820152608490fd5b015190503880620001aa565b6004600090815293507f8a35acfbc15ff81a39ae7d344fd709f28e8600b4aa8c65c6b64bfe7fe36bd19b91905b601f19841685106200066d576001945083601f1981161062000653575b505050811b01600455620001c0565b015160001960f88460031b161c1916905538808062000644565b8181015183556020948501946001909301929091019062000627565b60046000529091507f8a35acfbc15ff81a39ae7d344fd709f28e8600b4aa8c65c6b64bfe7fe36bd19b601f840160051c810160208510620006f3575b90849392915b601f830160051c82018110620006e357505062000191565b60008155859450600101620006cb565b5080620006c5565b634e487b7160e01b600052602260045260246000fd5b91607f16916200017b565b634e487b7160e01b600052604160045260246000fd5b01519050388062000140565b6003600090815293507fc2575a0e9e593c00f959f8c92f12db2869c3395a3b0502d05e2516446f71f85b91905b601f1984168510620007b1576001945083601f1981161062000797575b505050811b0160035562000156565b015160001960f88460031b161c1916905538808062000788565b818101518355602094850194600190930192909101906200076b565b60036000529091507fc2575a0e9e593c00f959f8c92f12db2869c3395a3b0502d05e2516446f71f85b601f840160051c8101916020851062000837575b90601f859493920160051c01905b81811062000827575062000127565b6000815584935060010162000818565b90915081906200080a565b91607f169162000111565b600080fd5b6040519190601f01601f191682016001600160401b038111838210176200071c57604052565b919080601f840112156200084d5782516001600160401b0381116200071c57602090620008ae601f8201601f1916830162000852565b928184528282870101116200084d5760005b818110620008d657508260009394955001015290565b8581018301518482018401528201620008c0565b51906001600160a01b03821682036200084d57565b919082018092116200090d57565b634e487b7160e01b600052601160045260246000fd5b600580546001600160a01b039283166001600160a01b0319821681179092559091167f8be0079c531659141344cd1fd0a4f28419497f9722a3daafe3b4186f6b6457e0600080a356fe608060408181526004918236101561001657600080fd5b600092833560e01c91826306fdde0314610d92575081630758d92414610d69578163095ea7b314610d3f5781630c439f9314610d16578163153b0d1e14610c9657816318160ddd14610c7757816323b872dd14610bad57816327a14fc214610b46578163313ce56714610b2a5781633950935114610ada5781634ada218b14610ab65781635e29879014610a97578163606e1b8114610a7a57816370a0823114610a3757816370b7b80c14610a18578163715018a6146109bb57816375cb1bd1146108de57816375f0a874146108b557816380ada68a146108965781638a8c523c146107df5781638c0b5e22146107c05781638da5cb5b1461079757816395d89b41146106925781639e4e7318146106575781639f7b0ed514610614578163a457c2d71461056c578163a9059cbb1461053b578163aa4bde281461051c578163c04a5414146104f3578163c1a68121146104b5578163dd62ed3e1461046c578163de37610e1461044d578163e9dae5ed14610382578163ec28438a1461031b578163f242ab41146102f2578163f2fde38b1461022257508063fe575a87146101e55763ffa1ad74146101c757600080fd5b346101e157816003193601126101e1576020905160028152f35b5080fd5b50346101e15760203660031901126101e15760209160ff9082906001600160a01b0361020f610ed0565b1681526014855220541690519015158152f35b9050346102ee5760203660031901126102ee5761023d610ed0565b9061024661116d565b6001600160a01b0391821692831561029c575050600554826bffffffffffffffffffffffff60a01b821617600555167f8be0079c531659141344cd1fd0a4f28419497f9722a3daafe3b4186f6b6457e08380a380f35b906020608492519162461bcd60e51b8352820152602660248201527f4f776e61626c653a206e6577206f776e657220697320746865207a65726f206160448201526564647265737360d01b6064820152fd5b8280fd5b5050346101e157816003193601126101e157600c5490516001600160a01b039091168152602090f35b9050346102ee5760203660031901126102ee577f947f344d56e1e8c70dc492fb94c4ddddd490c016aab685f5e7e47b2e85cb44cf91602091359061035d61116d565b610368821515610fa6565b610376600254831115610ff2565b8160095551908152a180f35b839150346101e15760603660031901126101e157803560243590604435926103a861116d565b60196103bd856103b88686611048565b611048565b1161040a57506104017f08a9cbb7bd5bab504d3fc44931790235ee0c3011feecaa62967a37e3f934146b936103b8602094848995600d5581600e5583600f55611048565b9051908152a180f35b606490602087519162461bcd60e51b8352820152601c60248201527f546f74616c20666565732063616e6e6f742065786365656420323525000000006044820152fd5b5050346101e157816003193601126101e157602090600f549051908152f35b5050346101e157806003193601126101e1578060209261048a610ed0565b610492610eeb565b6001600160a01b0391821683526001865283832091168252845220549051908152f35b5050346101e15760203660031901126101e15760209160ff9082906001600160a01b036104e0610ed0565b1681526013855220541690519015158152f35b5050346101e157816003193601126101e15760115490516001600160a01b039091168152602090f35b5050346101e157816003193601126101e157602090600a549051908152f35b5050346101e157806003193601126101e15760209061056561055b610ed0565b60243590336111d8565b5160018152f35b90508234610611578260031936011261061157610587610ed0565b918360243592338152600160205281812060018060a01b03861682526020522054908282106105c057602085610565858503873361106b565b608490602086519162461bcd60e51b8352820152602560248201527f45524332303a2064656372656173656420616c6c6f77616e63652062656c6f77604482015264207a65726f60d81b6064820152fd5b80fd5b5050346101e1576106549061062836610f01565b919061063261116d565b60018060a01b03168452601360205283209060ff801983541691151516179055565b80f35b5050346101e157816003193601126101e157602090517f97831d354a6f8b80f2034ecb74ded90addda670141f845b47bcbb8c109be18a28152f35b8383346101e157816003193601126101e15780519180938054916001908360011c926001851694851561078d575b602095868610811461077a5785895290811561075657506001146106fe575b6106fa87876106f0828c0383610f30565b5191829182610e87565b0390f35b81529295507f8a35acfbc15ff81a39ae7d344fd709f28e8600b4aa8c65c6b64bfe7fe36bd19b5b82841061074357505050826106fa946106f0928201019486806106df565b8054868501880152928601928101610725565b60ff19168887015250505050151560051b83010192506106f0826106fa86806106df565b634e487b7160e01b845260228352602484fd5b93607f16936106c0565b5050346101e157816003193601126101e15760055490516001600160a01b039091168152602090f35b5050346101e157816003193601126101e1576020906009549051908152f35b9050346102ee57826003193601126102ee576107f961116d565b6007549060ff8216610853575060ff19166001176007556008547fb3da2db3dfc3778f99852546c6e9ab39ec253f9de7b0847afec61bd27878e923916020911561084a575b6008549051908152a180f35b4260085561083e565b606490602084519162461bcd60e51b8352820152601760248201527f54726164696e6720616c726561647920656e61626c65640000000000000000006044820152fd5b5050346101e157816003193601126101e157602090600d549051908152f35b5050346101e157816003193601126101e15760105490516001600160a01b039091168152602090f35b5050346101e15760603660031901126101e1576108f9610ed0565b610901610eeb565b916001600160a01b039060443582811691908290036109b7577f2d4c6aa48812a0ea09474a961613c1a3ae652d39a1580cb1ac46ff277e6d385d94828460609661094961116d565b1694851515806109ac575b806109a3575b61096390610f68565b6bffffffffffffffffffffffff60a01b9286846010541617601055169182816011541617601155601254161760125581519384526020840152820152a180f35b5081151561095a565b508083161515610954565b8580fd5b83346106115780600319360112610611576109d461116d565b600580546001600160a01b0319811690915581906001600160a01b03167f8be0079c531659141344cd1fd0a4f28419497f9722a3daafe3b4186f6b6457e08280a380f35b5050346101e157816003193601126101e1576020906008549051908152f35b5050346101e15760203660031901126101e157602090610a73610a58610ed0565b6001600160a01b031660009081526020819052604090205490565b9051908152f35b5050346101e157816003193601126101e157602090516103e88152f35b5050346101e157816003193601126101e157602090600e549051908152f35b5050346101e157816003193601126101e15760209060ff6007541690519015158152f35b5050346101e157806003193601126101e157610565602092610b23610afd610ed0565b338352600186528483206001600160a01b03821684528652918490205460243590611048565b903361106b565b5050346101e157816003193601126101e1576020905160128152f35b9050346102ee5760203660031901126102ee577f4b39c36d20c57d220f61fd25c4349d4435cc03ef6c2a680942f15333c3c3e001916020913590610b8861116d565b610b93821515610fa6565b610ba1600254831115610ff2565b81600a5551908152a180f35b839150346101e15760603660031901126101e157610bc9610ed0565b610bd1610eeb565b91846044359460018060a01b038416815260016020528181203382526020522054906000198203610c0b575b6020866105658787876111d8565b848210610c345750918391610c29602096956105659503338361106b565b919394819350610bfd565b606490602087519162461bcd60e51b8352820152601d60248201527f45524332303a20696e73756666696369656e7420616c6c6f77616e63650000006044820152fd5b5050346101e157816003193601126101e1576020906002549051908152f35b5050346101e1577f6a12b3df6cba4203bd7fd06b816789f87de8c594299aed5717ae070fac781bac90610cc836610f01565b90610cd161116d565b6001600160a01b031690610ce6821515610f68565b8185526014602052610d06818487209060ff801983541691151516179055565b825191825215156020820152a180f35b5050346101e157816003193601126101e15760125490516001600160a01b039091168152602090f35b5050346101e157806003193601126101e157602090610565610d5f610ed0565b602435903361106b565b5050346101e157816003193601126101e157600b5490516001600160a01b039091168152602090f35b92915034610e835783600319360112610e8357600354600181811c9186908281168015610e79575b6020958686108214610e665750848852908115610e445750600114610deb575b6106fa86866106f0828b0383610f30565b929550600383527fc2575a0e9e593c00f959f8c92f12db2869c3395a3b0502d05e2516446f71f85b5b828410610e3157505050826106fa946106f0928201019438610dda565b8054868501880152928601928101610e14565b60ff191687860152505050151560051b83010192506106f0826106fa38610dda565b634e487b7160e01b845260229052602483fd5b93607f1693610dba565b8380fd5b6020808252825181830181905290939260005b828110610ebc57505060409293506000838284010152601f8019910116010190565b818101860151848201604001528501610e9a565b600435906001600160a01b0382168203610ee657565b600080fd5b602435906001600160a01b0382168203610ee657565b6040906003190112610ee6576004356001600160a01b0381168103610ee657906024358015158103610ee65790565b90601f8019910116810190811067ffffffffffffffff821117610f5257604052565b634e487b7160e01b600052604160045260246000fd5b15610f6f57565b60405162461bcd60e51b815260206004820152600f60248201526e496e76616c6964206164647265737360881b6044820152606490fd5b15610fad57565b60405162461bcd60e51b815260206004820152601d60248201527f416d6f756e74206d7573742062652067726561746572207468616e20300000006044820152606490fd5b15610ff957565b60405162461bcd60e51b815260206004820152602160248201527f416d6f756e742063616e6e6f742065786365656420746f74616c20737570706c6044820152607960f81b6064820152608490fd5b9190820180921161105557565b634e487b7160e01b600052601160045260246000fd5b6001600160a01b0390811691821561111c57169182156110cc5760207f8c5be1e5ebec7d5bd14f71427d1e84f3dd0314c0f7b2291e5b200ac8c7c3b925918360005260018252604060002085600052825280604060002055604051908152a3565b60405162461bcd60e51b815260206004820152602260248201527f45524332303a20617070726f766520746f20746865207a65726f206164647265604482015261737360f01b6064820152608490fd5b60405162461bcd60e51b8152602060048201526024808201527f45524332303a20617070726f76652066726f6d20746865207a65726f206164646044820152637265737360e01b6064820152608490fd5b6005546001600160a01b0316330361118157565b606460405162461bcd60e51b815260206004820152602060248201527f4f776e61626c653a2063616c6c6572206973206e6f7420746865206f776e65726044820152fd5b8181029291811591840414171561105557565b92919060009360018060a01b0394858216958682526020906014825260ff604091818386205416158061161b575b156115e157816007541680156115d4575b80156115c5575b1561158b5760085480611545575b5060095480151580611531575b8061151b575b6114cb575b50600a54801515806114b5575b611451575b5080600c541681881690808214908115611447575b50611284575b50505050505061128293945061162d565b565b859a606461129a600d9b999b989798548a6111c5565b049360646112aa600e548b6111c5565b049760646112ba600f548c6111c5565b04956112ca876103b88c84611048565b998d8b61130d575b505050505050505050505081039081116112f9576112829394509184933880808080611271565b634e487b7160e01b85526011600452602485fd5b61132b926113209189601054169061162d565b60115487168e61162d565b8515159283611432575b508261141c575b505061134e575b80808080808d6112d2565b61135d8383601254168b61162d565b81600c541614806113f0575b611374575b80611343565b60125416803b15610e8357604484928451958693849263d3f2036b60e01b845230600485015260011c60248401525af180156113e6576113b7575b80889261136e565b67ffffffffffffffff82989398116113d257529438806113af565b634e487b7160e01b83526041600452602483fd5b81513d8a823e3d90fd5b506103e8611415826012541660018060a01b0316600052600060205260406000205490565b1015611369565b601391925083885252848620541615388061133c565b88526013815286882054821615925038611335565b90508b143861126b565b81881686528585526114668985882054611048565b116114715738611256565b825162461bcd60e51b815260048101859052601960248201527f45786365656473206d61782077616c6c657420616d6f756e74000000000000006044820152606490fd5b5081881686526013855282848720541615611251565b88116114d75738611244565b825162461bcd60e51b815260048101859052601e60248201527f45786365656473206d6178207472616e73616374696f6e20616d6f756e7400006044820152606490fd5b508188168652601385528284872054161561123f565b508a86526013855282848720541615611239565b4210611551573861122c565b825162461bcd60e51b8152600481018590526013602482015272151c98591a5b99c81b9bdd081cdd185c9d1959606a1b6044820152606490fd5b825162461bcd60e51b8152600481018590526013602482015272151c98591a5b99c81b9bdd08195b98589b1959606a1b6044820152606490fd5b5080600554168188161461121e565b5080600554168a14611217565b825162461bcd60e51b8152600481018590526013602482015272426c61636b6c6973746564206164647265737360681b6044820152606490fd5b50808716855281838620541615611206565b6001600160a01b0390811691821561174857169182156116f7576000828152806020526040812054918083106116a357604082827fddf252ad1be2c89b69c2b068fc378daa952ba7f163c4a11628f55a4df523b3ef958760209652828652038282205586815220818154019055604051908152a3565b60405162461bcd60e51b815260206004820152602660248201527f45524332303a207472616e7366657220616d6f756e7420657863656564732062604482015265616c616e636560d01b6064820152608490fd5b60405162461bcd60e51b815260206004820152602360248201527f45524332303a207472616e7366657220746f20746865207a65726f206164647260448201526265737360e81b6064820152608490fd5b60405162461bcd60e51b815260206004820152602560248201527f45524332303a207472616e736665722066726f6d20746865207a65726f206164604482015264647265737360d81b6064820152608490fdfea2646970667358221220d3a65f5d02620f4bb67abbd0652ba30192260479c7a42773ff99503ab18997e164736f6c63430008160033","opcodes":"PUSH1 0x80 PUSH1 0x40 MSTORE CALLVALUE PUSH3 0x84D JUMPI PUSH3 0x213E DUP1 CODESIZE SUB DUP1 PUSH3 0x1D DUP2 PUSH3 0x852 JUMP JUMPDEST SWAP3 DUP4 CODECOPY DUP2 ADD SWAP1 PUSH2 0x1C0 DUP2 DUP4 SUB SLT PUSH3 0x84D JUMPI DUP1 MLOAD PUSH1 0x1 PUSH1 0x1 PUSH1 0x40 SHL SUB DUP2 GT PUSH3 0x84D JUMPI DUP3 PUSH3 0x4E SWAP2 DUP4 ADD PUSH3 0x878 JUMP JUMPDEST PUSH1 0x20 DUP3 ADD MLOAD SWAP1 SWAP3 PUSH1 0x1 PUSH1 0x1 PUSH1 0x40 SHL SUB DUP3 GT PUSH3 0x84D JUMPI PUSH3 0x71 SWAP2 DUP4 ADD PUSH3 0x878 JUMP JUMPDEST SWAP2 PUSH1 0x40 DUP3 ADD MLOAD SWAP2 PUSH1 0x60 DUP2 ADD MLOAD SWAP3 PUSH1 0x80 DUP3 ADD MLOAD SWAP5 PUSH1 0xA0 DUP4 ADD MLOAD SWAP6 DUP7 ISZERO ISZERO DUP8 SUB PUSH3 0x84D JUMPI PUSH1 0xC0 DUP5 ADD MLOAD PUSH3 0xA7 PUSH1 0xE0 DUP7 ADD PUSH3 0x8EA JUMP JUMPDEST SWAP3 PUSH2 0x100 DUP7 ADD MLOAD SWAP1 PUSH2 0x120 DUP8 ADD MLOAD SWAP3 PUSH2 0x140 DUP9 ADD MLOAD SWAP5 PUSH3 0xCC PUSH2 0x160 DUP11 ADD PUSH3 0x8EA JUMP JUMPDEST SWAP3 PUSH3 0xEB PUSH2 0x1A0 PUSH3 0xE3 PUSH2 0x180 DUP14 ADD PUSH3 0x8EA JUMP JUMPDEST SWAP12 ADD PUSH3 0x8EA JUMP JUMPDEST DUP12 MLOAD SWAP1 SWAP12 PUSH1 0x1 PUSH1 0x1 PUSH1 0x40 SHL SUB DUP3 GT PUSH3 0x71C JUMPI PUSH1 0x3 SLOAD SWAP1 PUSH1 0x1 DUP3 DUP2 SHR SWAP3 AND DUP1 ISZERO PUSH3 0x842 JUMPI JUMPDEST PUSH1 0x20 DUP4 LT EQ PUSH3 0x6FB JUMPI DUP2 PUSH1 0x1F DUP5 SWAP4 GT PUSH3 0x7CD JUMPI JUMPDEST POP PUSH1 0x20 SWAP1 PUSH1 0x1F DUP4 GT PUSH1 0x1 EQ PUSH3 0x73E JUMPI PUSH1 0x0 SWAP3 PUSH3 0x732 JUMPI JUMPDEST POP POP DUP2 PUSH1 0x1 SHL SWAP2 PUSH1 0x0 NOT SWAP1 PUSH1 0x3 SHL SHR NOT AND OR PUSH1 0x3 SSTORE JUMPDEST DUP1 MLOAD SWAP1 PUSH1 0x1 PUSH1 0x1 PUSH1 0x40 SHL SUB DUP3 GT PUSH3 0x71C JUMPI PUSH1 0x4 SLOAD SWAP1 PUSH1 0x1 DUP3 DUP2 SHR SWAP3 AND DUP1 ISZERO PUSH3 0x711 JUMPI JUMPDEST PUSH1 0x20 DUP4 LT EQ PUSH3 0x6FB JUMPI DUP2 PUSH1 0x1F DUP5 SWAP4 GT PUSH3 0x689 JUMPI JUMPDEST POP PUSH1 0x20 SWAP1 PUSH1 0x1F DUP4 GT PUSH1 0x1 EQ PUSH3 0x5FA JUMPI PUSH1 0x0 SWAP3 PUSH3 0x5EE JUMPI JUMPDEST POP POP DUP2 PUSH1 0x1 SHL SWAP2 PUSH1 0x0 NOT SWAP1 PUSH1 0x3 SHL SHR NOT AND OR PUSH1 0x4 SSTORE JUMPDEST PUSH3 0x1CB CALLER PUSH3 0x923 JUMP JUMPDEST PUSH1 0x1 PUSH1 0x6 SSTORE DUP8 ISZERO PUSH3 0x59D JUMPI DUP8 DUP12 GT PUSH3 0x53E JUMPI DUP8 DUP2 GT PUSH3 0x4E4 JUMPI PUSH1 0x19 PUSH3 0x200 DUP8 PUSH3 0x1FA DUP9 DUP9 PUSH3 0x8FF JUMP JUMPDEST PUSH3 0x8FF JUMP JUMPDEST GT PUSH3 0x49F JUMPI PUSH1 0x1 PUSH1 0x1 PUSH1 0xA0 SHL SUB SWAP3 DUP4 AND SWAP9 DUP10 ISZERO PUSH3 0x44A JUMPI DUP4 AND SWAP10 DUP11 ISZERO PUSH3 0x3F3 JUMPI DUP4 AND SWAP11 DUP12 ISZERO PUSH3 0x399 JUMPI CALLER ISZERO PUSH3 0x354 JUMPI DUP9 PUSH3 0x244 DUP14 SWAP11 PUSH1 0x2 SLOAD PUSH3 0x8FF JUMP JUMPDEST PUSH1 0x2 SSTORE CALLER PUSH1 0x0 MSTORE PUSH1 0x0 PUSH1 0x20 MSTORE PUSH1 0x40 PUSH1 0x0 KECCAK256 DUP2 DUP2 SLOAD ADD SWAP1 SSTORE PUSH1 0x40 MLOAD SWAP1 DUP2 MSTORE PUSH1 0x0 PUSH32 0xDDF252AD1BE2C89B69C2B068FC378DAA952BA7F163C4A11628F55A4DF523B3EF PUSH1 0x20 CALLER SWAP4 LOG3 PUSH1 0x9 SSTORE PUSH1 0xA SSTORE PUSH1 0xFF NOT SWAP11 PUSH1 0xFF DUP13 PUSH1 0x7 SLOAD AND SWAP2 ISZERO ISZERO AND OR PUSH1 0x7 SSTORE PUSH1 0x8 SSTORE PUSH1 0x1 DUP1 PUSH1 0xA0 SHL SUB NOT SWAP5 AND DUP5 PUSH1 0xB SLOAD AND OR PUSH1 0xB SSTORE PUSH1 0xD SSTORE PUSH1 0xE SSTORE PUSH1 0xF SSTORE DUP3 DUP2 PUSH1 0x10 SLOAD AND OR PUSH1 0x10 SSTORE DUP4 DUP2 PUSH1 0x11 SLOAD AND OR PUSH1 0x11 SSTORE PUSH1 0x12 SLOAD AND OR PUSH1 0x12 SSTORE CALLER PUSH1 0x0 MSTORE PUSH1 0x13 PUSH1 0x20 MSTORE PUSH1 0x40 PUSH1 0x0 KECCAK256 PUSH1 0x1 DUP6 DUP3 SLOAD AND OR SWAP1 SSTORE ADDRESS PUSH1 0x0 MSTORE PUSH1 0x40 PUSH1 0x0 KECCAK256 PUSH1 0x1 DUP6 DUP3 SLOAD AND OR SWAP1 SSTORE PUSH1 0x0 MSTORE PUSH1 0x40 PUSH1 0x0 KECCAK256 PUSH1 0x1 DUP5 DUP3 SLOAD AND OR SWAP1 SSTORE PUSH1 0x0 MSTORE PUSH1 0x40 PUSH1 0x0 KECCAK256 PUSH1 0x1 DUP4 DUP3 SLOAD AND OR SWAP1 SSTORE PUSH1 0x0 MSTORE PUSH1 0x1 PUSH1 0x40 PUSH1 0x0 KECCAK256 SWAP2 DUP3 SLOAD AND OR SWAP1 SSTORE PUSH3 0x344 CALLER PUSH3 0x923 JUMP JUMPDEST PUSH1 0x40 MLOAD PUSH2 0x17D1 SWAP1 DUP2 PUSH3 0x96D DUP3 CODECOPY RETURN JUMPDEST PUSH1 0x40 MLOAD PUSH3 0x461BCD PUSH1 0xE5 SHL DUP2 MSTORE PUSH1 0x20 PUSH1 0x4 DUP3 ADD MSTORE PUSH1 0x1F PUSH1 0x24 DUP3 ADD MSTORE PUSH32 0x45524332303A206D696E7420746F20746865207A65726F206164647265737300 PUSH1 0x44 DUP3 ADD MSTORE PUSH1 0x64 SWAP1 REVERT JUMPDEST PUSH1 0x40 MLOAD PUSH3 0x461BCD PUSH1 0xE5 SHL DUP2 MSTORE PUSH1 0x20 PUSH1 0x4 DUP3 ADD MSTORE PUSH1 0x2C PUSH1 0x24 DUP3 ADD MSTORE PUSH32 0x4175746F2D6C69717569646974792077616C6C65742063616E6E6F7420626520 PUSH1 0x44 DUP3 ADD MSTORE PUSH12 0x7A65726F2061646472657373 PUSH1 0xA0 SHL PUSH1 0x64 DUP3 ADD MSTORE PUSH1 0x84 SWAP1 REVERT JUMPDEST PUSH1 0x40 MLOAD PUSH3 0x461BCD PUSH1 0xE5 SHL DUP2 MSTORE PUSH1 0x20 PUSH1 0x4 DUP3 ADD MSTORE PUSH1 0x29 PUSH1 0x24 DUP3 ADD MSTORE PUSH32 0x446576656C6F706D656E742077616C6C65742063616E6E6F74206265207A6572 PUSH1 0x44 DUP3 ADD MSTORE PUSH9 0x6F2061646472657373 PUSH1 0xB8 SHL PUSH1 0x64 DUP3 ADD MSTORE PUSH1 0x84 SWAP1 REVERT JUMPDEST PUSH1 0x40 MLOAD PUSH3 0x461BCD PUSH1 0xE5 SHL DUP2 MSTORE PUSH1 0x20 PUSH1 0x4 DUP3 ADD MSTORE PUSH1 0x27 PUSH1 0x24 DUP3 ADD MSTORE PUSH32 0x4D61726B6574696E672077616C6C65742063616E6E6F74206265207A65726F20 PUSH1 0x44 DUP3 ADD MSTORE PUSH7 0x61646472657373 PUSH1 0xC8 SHL PUSH1 0x64 DUP3 ADD MSTORE PUSH1 0x84 SWAP1 REVERT JUMPDEST PUSH1 0x40 MLOAD PUSH3 0x461BCD PUSH1 0xE5 SHL DUP2 MSTORE PUSH1 0x20 PUSH1 0x4 DUP3 ADD MSTORE PUSH1 0x1C PUSH1 0x24 DUP3 ADD MSTORE PUSH32 0x546F74616C20666565732063616E6E6F74206578636565642032352500000000 PUSH1 0x44 DUP3 ADD MSTORE PUSH1 0x64 SWAP1 REVERT JUMPDEST PUSH1 0x40 MLOAD PUSH3 0x461BCD PUSH1 0xE5 SHL DUP2 MSTORE PUSH1 0x20 PUSH1 0x4 DUP3 ADD MSTORE PUSH1 0x2C PUSH1 0x24 DUP3 ADD MSTORE PUSH32 0x4D61782077616C6C657420616D6F756E742063616E6E6F742065786365656420 PUSH1 0x44 DUP3 ADD MSTORE PUSH12 0x746F74616C20737570706C79 PUSH1 0xA0 SHL PUSH1 0x64 DUP3 ADD MSTORE PUSH1 0x84 SWAP1 REVERT JUMPDEST PUSH1 0x40 MLOAD PUSH3 0x461BCD PUSH1 0xE5 SHL DUP2 MSTORE PUSH1 0x20 PUSH1 0x4 DUP3 ADD MSTORE PUSH1 0x31 PUSH1 0x24 DUP3 ADD MSTORE PUSH32 0x4D6178207472616E73616374696F6E20616D6F756E742063616E6E6F74206578 PUSH1 0x44 DUP3 ADD MSTORE PUSH17 0x6365656420746F74616C20737570706C79 PUSH1 0x78 SHL PUSH1 0x64 DUP3 ADD MSTORE PUSH1 0x84 SWAP1 REVERT JUMPDEST PUSH1 0x40 MLOAD PUSH3 0x461BCD PUSH1 0xE5 SHL DUP2 MSTORE PUSH1 0x20 PUSH1 0x4 DUP3 ADD MSTORE PUSH1 0x23 PUSH1 0x24 DUP3 ADD MSTORE PUSH32 0x546F74616C20737570706C79206D757374206265206772656174657220746861 PUSH1 0x44 DUP3 ADD MSTORE PUSH3 0x6E203 PUSH1 0xEC SHL PUSH1 0x64 DUP3 ADD MSTORE PUSH1 0x84 SWAP1 REVERT JUMPDEST ADD MLOAD SWAP1 POP CODESIZE DUP1 PUSH3 0x1AA JUMP JUMPDEST PUSH1 0x4 PUSH1 0x0 SWAP1 DUP2 MSTORE SWAP4 POP PUSH32 0x8A35ACFBC15FF81A39AE7D344FD709F28E8600B4AA8C65C6B64BFE7FE36BD19B SWAP2 SWAP1 JUMPDEST PUSH1 0x1F NOT DUP5 AND DUP6 LT PUSH3 0x66D JUMPI PUSH1 0x1 SWAP5 POP DUP4 PUSH1 0x1F NOT DUP2 AND LT PUSH3 0x653 JUMPI JUMPDEST POP POP POP DUP2 SHL ADD PUSH1 0x4 SSTORE PUSH3 0x1C0 JUMP JUMPDEST ADD MLOAD PUSH1 0x0 NOT PUSH1 0xF8 DUP5 PUSH1 0x3 SHL AND SHR NOT AND SWAP1 SSTORE CODESIZE DUP1 DUP1 PUSH3 0x644 JUMP JUMPDEST DUP2 DUP2 ADD MLOAD DUP4 SSTORE PUSH1 0x20 SWAP5 DUP6 ADD SWAP5 PUSH1 0x1 SWAP1 SWAP4 ADD SWAP3 SWAP1 SWAP2 ADD SWAP1 PUSH3 0x627 JUMP JUMPDEST PUSH1 0x4 PUSH1 0x0 MSTORE SWAP1 SWAP2 POP PUSH32 0x8A35ACFBC15FF81A39AE7D344FD709F28E8600B4AA8C65C6B64BFE7FE36BD19B PUSH1 0x1F DUP5 ADD PUSH1 0x5 SHR DUP2 ADD PUSH1 0x20 DUP6 LT PUSH3 0x6F3 JUMPI JUMPDEST SWAP1 DUP5 SWAP4 SWAP3 SWAP2 JUMPDEST PUSH1 0x1F DUP4 ADD PUSH1 0x5 SHR DUP3 ADD DUP2 LT PUSH3 0x6E3 JUMPI POP POP PUSH3 0x191 JUMP JUMPDEST PUSH1 0x0 DUP2 SSTORE DUP6 SWAP5 POP PUSH1 0x1 ADD PUSH3 0x6CB JUMP JUMPDEST POP DUP1 PUSH3 0x6C5 JUMP JUMPDEST PUSH4 0x4E487B71 PUSH1 0xE0 SHL PUSH1 0x0 MSTORE PUSH1 0x22 PUSH1 0x4 MSTORE PUSH1 0x24 PUSH1 0x0 REVERT JUMPDEST SWAP2 PUSH1 0x7F AND SWAP2 PUSH3 0x17B JUMP JUMPDEST PUSH4 0x4E487B71 PUSH1 0xE0 SHL PUSH1 0x0 MSTORE PUSH1 0x41 PUSH1 0x4 MSTORE PUSH1 0x24 PUSH1 0x0 REVERT JUMPDEST ADD MLOAD SWAP1 POP CODESIZE DUP1 PUSH3 0x140 JUMP JUMPDEST PUSH1 0x3 PUSH1 0x0 SWAP1 DUP2 MSTORE SWAP4 POP PUSH32 0xC2575A0E9E593C00F959F8C92F12DB2869C3395A3B0502D05E2516446F71F85B SWAP2 SWAP1 JUMPDEST PUSH1 0x1F NOT DUP5 AND DUP6 LT PUSH3 0x7B1 JUMPI PUSH1 0x1 SWAP5 POP DUP4 PUSH1 0x1F NOT DUP2 AND LT PUSH3 0x797 JUMPI JUMPDEST POP POP POP DUP2 SHL ADD PUSH1 0x3 SSTORE PUSH3 0x156 JUMP JUMPDEST ADD MLOAD PUSH1 0x0 NOT PUSH1 0xF8 DUP5 PUSH1 0x3 SHL AND SHR NOT AND SWAP1 SSTORE CODESIZE DUP1 DUP1 PUSH3 0x788 JUMP JUMPDEST DUP2 DUP2 ADD MLOAD DUP4 SSTORE PUSH1 0x20 SWAP5 DUP6 ADD SWAP5 PUSH1 0x1 SWAP1 SWAP4 ADD SWAP3 SWAP1 SWAP2 ADD SWAP1 PUSH3 0x76B JUMP JUMPDEST PUSH1 0x3 PUSH1 0x0 MSTORE SWAP1 SWAP2 POP PUSH32 0xC2575A0E9E593C00F959F8C92F12DB2869C3395A3B0502D05E2516446F71F85B PUSH1 0x1F DUP5 ADD PUSH1 0x5 SHR DUP2 ADD SWAP2 PUSH1 0x20 DUP6 LT PUSH3 0x837 JUMPI JUMPDEST SWAP1 PUSH1 0x1F DUP6 SWAP5 SWAP4 SWAP3 ADD PUSH1 0x5 SHR ADD SWAP1 JUMPDEST DUP2 DUP2 LT PUSH3 0x827 JUMPI POP PUSH3 0x127 JUMP JUMPDEST PUSH1 0x0 DUP2 SSTORE DUP5 SWAP4 POP PUSH1 0x1 ADD PUSH3 0x818 JUMP JUMPDEST SWAP1 SWAP2 POP DUP2 SWAP1 PUSH3 0x80A JUMP JUMPDEST SWAP2 PUSH1 0x7F AND SWAP2 PUSH3 0x111 JUMP JUMPDEST PUSH1 0x0 DUP1 REVERT JUMPDEST PUSH1 0x40 MLOAD SWAP2 SWAP1 PUSH1 0x1F ADD PUSH1 0x1F NOT AND DUP3 ADD PUSH1 0x1 PUSH1 0x1 PUSH1 0x40 SHL SUB DUP2 GT DUP4 DUP3 LT OR PUSH3 0x71C JUMPI PUSH1 0x40 MSTORE JUMP JUMPDEST SWAP2 SWAP1 DUP1 PUSH1 0x1F DUP5 ADD SLT ISZERO PUSH3 0x84D JUMPI DUP3 MLOAD PUSH1 0x1 PUSH1 0x1 PUSH1 0x40 SHL SUB DUP2 GT PUSH3 0x71C JUMPI PUSH1 0x20 SWAP1 PUSH3 0x8AE PUSH1 0x1F DUP3 ADD PUSH1 0x1F NOT AND DUP4 ADD PUSH3 0x852 JUMP JUMPDEST SWAP3 DUP2 DUP5 MSTORE DUP3 DUP3 DUP8 ADD ADD GT PUSH3 0x84D JUMPI PUSH1 0x0 JUMPDEST DUP2 DUP2 LT PUSH3 0x8D6 JUMPI POP DUP3 PUSH1 0x0 SWAP4 SWAP5 SWAP6 POP ADD ADD MSTORE SWAP1 JUMP JUMPDEST DUP6 DUP2 ADD DUP4 ADD MLOAD DUP5 DUP3 ADD DUP5 ADD MSTORE DUP3 ADD PUSH3 0x8C0 JUMP JUMPDEST MLOAD SWAP1 PUSH1 0x1 PUSH1 0x1 PUSH1 0xA0 SHL SUB DUP3 AND DUP3 SUB PUSH3 0x84D JUMPI JUMP JUMPDEST SWAP2 SWAP1 DUP3 ADD DUP1 SWAP3 GT PUSH3 0x90D JUMPI JUMP JUMPDEST PUSH4 0x4E487B71 PUSH1 0xE0 SHL PUSH1 0x0 MSTORE PUSH1 0x11 PUSH1 0x4 MSTORE PUSH1 0x24 PUSH1 0x0 REVERT JUMPDEST PUSH1 0x5 DUP1 SLOAD PUSH1 0x1 PUSH1 0x1 PUSH1 0xA0 SHL SUB SWAP3 DUP4 AND PUSH1 0x1 PUSH1 0x1 PUSH1 0xA0 SHL SUB NOT DUP3 AND DUP2 OR SWAP1 SWAP3 SSTORE SWAP1 SWAP2 AND PUSH32 0x8BE0079C531659141344CD1FD0A4F28419497F9722A3DAAFE3B4186F6B6457E0 PUSH1 0x0 DUP1 LOG3 JUMP INVALID PUSH1 0x80 PUSH1 0x40 DUP2 DUP2 MSTORE PUSH1 0x4 SWAP2 DUP3 CALLDATASIZE LT ISZERO PUSH2 0x16 JUMPI PUSH1 0x0 DUP1 REVERT JUMPDEST PUSH1 0x0 SWAP3 DUP4 CALLDATALOAD PUSH1 0xE0 SHR SWAP2 DUP3 PUSH4 0x6FDDE03 EQ PUSH2 0xD92 JUMPI POP DUP2 PUSH4 0x758D924 EQ PUSH2 0xD69 JUMPI DUP2 PUSH4 0x95EA7B3 EQ PUSH2 0xD3F JUMPI DUP2 PUSH4 0xC439F93 EQ PUSH2 0xD16 JUMPI DUP2 PUSH4 0x153B0D1E EQ PUSH2 0xC96 JUMPI DUP2 PUSH4 0x18160DDD EQ PUSH2 0xC77 JUMPI DUP2 PUSH4 0x23B872DD EQ PUSH2 0xBAD JUMPI DUP2 PUSH4 0x27A14FC2 EQ PUSH2 0xB46 JUMPI DUP2 PUSH4 0x313CE567 EQ PUSH2 0xB2A JUMPI DUP2 PUSH4 0x39509351 EQ PUSH2 0xADA JUMPI DUP2 PUSH4 0x4ADA218B EQ PUSH2 0xAB6 JUMPI DUP2 PUSH4 0x5E298790 EQ PUSH2 0xA97 JUMPI DUP2 PUSH4 0x606E1B81 EQ PUSH2 0xA7A JUMPI DUP2 PUSH4 0x70A08231 EQ PUSH2 0xA37 JUMPI DUP2 PUSH4 0x70B7B80C EQ PUSH2 0xA18 JUMPI DUP2 PUSH4 0x715018A6 EQ PUSH2 0x9BB JUMPI DUP2 PUSH4 0x75CB1BD1 EQ PUSH2 0x8DE JUMPI DUP2 PUSH4 0x75F0A874 EQ PUSH2 0x8B5 JUMPI DUP2 PUSH4 0x80ADA68A EQ PUSH2 0x896 JUMPI DUP2 PUSH4 0x8A8C523C EQ PUSH2 0x7DF JUMPI DUP2 PUSH4 0x8C0B5E22 EQ PUSH2 0x7C0 JUMPI DUP2 PUSH4 0x8DA5CB5B EQ PUSH2 0x797 JUMPI DUP2 PUSH4 0x95D89B41 EQ PUSH2 0x692 JUMPI DUP2 PUSH4 0x9E4E7318 EQ PUSH2 0x657 JUMPI DUP2 PUSH4 0x9F7B0ED5 EQ PUSH2 0x614 JUMPI DUP2 PUSH4 0xA457C2D7 EQ PUSH2 0x56C JUMPI DUP2 PUSH4 0xA9059CBB EQ PUSH2 0x53B JUMPI DUP2 PUSH4 0xAA4BDE28 EQ PUSH2 0x51C JUMPI DUP2 PUSH4 0xC04A5414 EQ PUSH2 0x4F3 JUMPI DUP2 PUSH4 0xC1A68121 EQ PUSH2 0x4B5 JUMPI DUP2 PUSH4 0xDD62ED3E EQ PUSH2 0x46C JUMPI DUP2 PUSH4 0xDE37610E EQ PUSH2 0x44D JUMPI DUP2 PUSH4 0xE9DAE5ED EQ PUSH2 0x382 JUMPI DUP2 PUSH4 0xEC28438A EQ PUSH2 0x31B JUMPI DUP2 PUSH4 0xF242AB41 EQ PUSH2 0x2F2 JUMPI DUP2 PUSH4 0xF2FDE38B EQ PUSH2 0x222 JUMPI POP DUP1 PUSH4 0xFE575A87 EQ PUSH2 0x1E5 JUMPI PUSH4 0xFFA1AD74 EQ PUSH2 0x1C7 JUMPI PUSH1 0x0 DUP1 REVERT JUMPDEST CALLVALUE PUSH2 0x1E1 JUMPI DUP2 PUSH1 0x3 NOT CALLDATASIZE ADD SLT PUSH2 0x1E1 JUMPI PUSH1 0x20 SWAP1 MLOAD PUSH1 0x2 DUP2 MSTORE RETURN JUMPDEST POP DUP1 REVERT JUMPDEST POP CALLVALUE PUSH2 0x1E1 JUMPI PUSH1 0x20 CALLDATASIZE PUSH1 0x3 NOT ADD SLT PUSH2 0x1E1 JUMPI PUSH1 0x20 SWAP2 PUSH1 0xFF SWAP1 DUP3 SWAP1 PUSH1 0x1 PUSH1 0x1 PUSH1 0xA0 SHL SUB PUSH2 0x20F PUSH2 0xED0 JUMP JUMPDEST AND DUP2 MSTORE PUSH1 0x14 DUP6 MSTORE KECCAK256 SLOAD AND SWAP1 MLOAD SWAP1 ISZERO ISZERO DUP2 MSTORE RETURN JUMPDEST SWAP1 POP CALLVALUE PUSH2 0x2EE JUMPI PUSH1 0x20 CALLDATASIZE PUSH1 0x3 NOT ADD SLT PUSH2 0x2EE JUMPI PUSH2 0x23D PUSH2 0xED0 JUMP JUMPDEST SWAP1 PUSH2 0x246 PUSH2 0x116D JUMP JUMPDEST PUSH1 0x1 PUSH1 0x1 PUSH1 0xA0 SHL SUB SWAP2 DUP3 AND SWAP3 DUP4 ISZERO PUSH2 0x29C JUMPI POP POP PUSH1 0x5 SLOAD DUP3 PUSH12 0xFFFFFFFFFFFFFFFFFFFFFFFF PUSH1 0xA0 SHL DUP3 AND OR PUSH1 0x5 SSTORE AND PUSH32 0x8BE0079C531659141344CD1FD0A4F28419497F9722A3DAAFE3B4186F6B6457E0 DUP4 DUP1 LOG3 DUP1 RETURN JUMPDEST SWAP1 PUSH1 0x20 PUSH1 0x84 SWAP3 MLOAD SWAP2 PUSH3 0x461BCD PUSH1 0xE5 SHL DUP4 MSTORE DUP3 ADD MSTORE PUSH1 0x26 PUSH1 0x24 DUP3 ADD MSTORE PUSH32 0x4F776E61626C653A206E6577206F776E657220697320746865207A65726F2061 PUSH1 0x44 DUP3 ADD MSTORE PUSH6 0x646472657373 PUSH1 0xD0 SHL PUSH1 0x64 DUP3 ADD MSTORE REVERT JUMPDEST DUP3 DUP1 REVERT JUMPDEST POP POP CALLVALUE PUSH2 0x1E1 JUMPI DUP2 PUSH1 0x3 NOT CALLDATASIZE ADD SLT PUSH2 0x1E1 JUMPI PUSH1 0xC SLOAD SWAP1 MLOAD PUSH1 0x1 PUSH1 0x1 PUSH1 0xA0 SHL SUB SWAP1 SWAP2 AND DUP2 MSTORE PUSH1 0x20 SWAP1 RETURN JUMPDEST SWAP1 POP CALLVALUE PUSH2 0x2EE JUMPI PUSH1 0x20 CALLDATASIZE PUSH1 0x3 NOT ADD SLT PUSH2 0x2EE JUMPI PUSH32 0x947F344D56E1E8C70DC492FB94C4DDDDD490C016AAB685F5E7E47B2E85CB44CF SWAP2 PUSH1 0x20 SWAP2 CALLDATALOAD SWAP1 PUSH2 0x35D PUSH2 0x116D JUMP JUMPDEST PUSH2 0x368 DUP3 ISZERO ISZERO PUSH2 0xFA6 JUMP JUMPDEST PUSH2 0x376 PUSH1 0x2 SLOAD DUP4 GT ISZERO PUSH2 0xFF2 JUMP JUMPDEST DUP2 PUSH1 0x9 SSTORE MLOAD SWAP1 DUP2 MSTORE LOG1 DUP1 RETURN JUMPDEST DUP4 SWAP2 POP CALLVALUE PUSH2 0x1E1 JUMPI PUSH1 0x60 CALLDATASIZE PUSH1 0x3 NOT ADD SLT PUSH2 0x1E1 JUMPI DUP1 CALLDATALOAD PUSH1 0x24 CALLDATALOAD SWAP1 PUSH1 0x44 CALLDATALOAD SWAP3 PUSH2 0x3A8 PUSH2 0x116D JUMP JUMPDEST PUSH1 0x19 PUSH2 0x3BD DUP6 PUSH2 0x3B8 DUP7 DUP7 PUSH2 0x1048 JUMP JUMPDEST PUSH2 0x1048 JUMP JUMPDEST GT PUSH2 0x40A JUMPI POP PUSH2 0x401 PUSH32 0x8A9CBB7BD5BAB504D3FC44931790235EE0C3011FEECAA62967A37E3F934146B SWAP4 PUSH2 0x3B8 PUSH1 0x20 SWAP5 DUP5 DUP10 SWAP6 PUSH1 0xD SSTORE DUP2 PUSH1 0xE SSTORE DUP4 PUSH1 0xF SSTORE PUSH2 0x1048 JUMP JUMPDEST SWAP1 MLOAD SWAP1 DUP2 MSTORE LOG1 DUP1 RETURN JUMPDEST PUSH1 0x64 SWAP1 PUSH1 0x20 DUP8 MLOAD SWAP2 PUSH3 0x461BCD PUSH1 0xE5 SHL DUP4 MSTORE DUP3 ADD MSTORE PUSH1 0x1C PUSH1 0x24 DUP3 ADD MSTORE PUSH32 0x546F74616C20666565732063616E6E6F74206578636565642032352500000000 PUSH1 0x44 DUP3 ADD MSTORE REVERT JUMPDEST POP POP CALLVALUE PUSH2 0x1E1 JUMPI DUP2 PUSH1 0x3 NOT CALLDATASIZE ADD SLT PUSH2 0x1E1 JUMPI PUSH1 0x20 SWAP1 PUSH1 0xF SLOAD SWAP1 MLOAD SWAP1 DUP2 MSTORE RETURN JUMPDEST POP POP CALLVALUE PUSH2 0x1E1 JUMPI DUP1 PUSH1 0x3 NOT CALLDATASIZE ADD SLT PUSH2 0x1E1 JUMPI DUP1 PUSH1 0x20 SWAP3 PUSH2 0x48A PUSH2 0xED0 JUMP JUMPDEST PUSH2 0x492 PUSH2 0xEEB JUMP JUMPDEST PUSH1 0x1 PUSH1 0x1 PUSH1 0xA0 SHL SUB SWAP2 DUP3 AND DUP4 MSTORE PUSH1 0x1 DUP7 MSTORE DUP4 DUP4 KECCAK256 SWAP2 AND DUP3 MSTORE DUP5 MSTORE KECCAK256 SLOAD SWAP1 MLOAD SWAP1 DUP2 MSTORE RETURN JUMPDEST POP POP CALLVALUE PUSH2 0x1E1 JUMPI PUSH1 0x20 CALLDATASIZE PUSH1 0x3 NOT ADD SLT PUSH2 0x1E1 JUMPI PUSH1 0x20 SWAP2 PUSH1 0xFF SWAP1 DUP3 SWAP1 PUSH1 0x1 PUSH1 0x1 PUSH1 0xA0 SHL SUB PUSH2 0x4E0 PUSH2 0xED0 JUMP JUMPDEST AND DUP2 MSTORE PUSH1 0x13 DUP6 MSTORE KECCAK256 SLOAD AND SWAP1 MLOAD SWAP1 ISZERO ISZERO DUP2 MSTORE RETURN JUMPDEST POP POP CALLVALUE PUSH2 0x1E1 JUMPI DUP2 PUSH1 0x3 NOT CALLDATASIZE ADD SLT PUSH2 0x1E1 JUMPI PUSH1 0x11 SLOAD SWAP1 MLOAD PUSH1 0x1 PUSH1 0x1 PUSH1 0xA0 SHL SUB SWAP1 SWAP2 AND DUP2 MSTORE PUSH1 0x20 SWAP1 RETURN JUMPDEST POP POP CALLVALUE PUSH2 0x1E1 JUMPI DUP2 PUSH1 0x3 NOT CALLDATASIZE ADD SLT PUSH2 0x1E1 JUMPI PUSH1 0x20 SWAP1 PUSH1 0xA SLOAD SWAP1 MLOAD SWAP1 DUP2 MSTORE RETURN JUMPDEST POP POP CALLVALUE PUSH2 0x1E1 JUMPI DUP1 PUSH1 0x3 NOT CALLDATASIZE ADD SLT PUSH2 0x1E1 JUMPI PUSH1 0x20 SWAP1 PUSH2 0x565 PUSH2 0x55B PUSH2 0xED0 JUMP JUMPDEST PUSH1 0x24 CALLDATALOAD SWAP1 CALLER PUSH2 0x11D8 JUMP JUMPDEST MLOAD PUSH1 0x1 DUP2 MSTORE RETURN JUMPDEST SWAP1 POP DUP3 CALLVALUE PUSH2 0x611 JUMPI DUP3 PUSH1 0x3 NOT CALLDATASIZE ADD SLT PUSH2 0x611 JUMPI PUSH2 0x587 PUSH2 0xED0 JUMP JUMPDEST SWAP2 DUP4 PUSH1 0x24 CALLDATALOAD SWAP3 CALLER DUP2 MSTORE PUSH1 0x1 PUSH1 0x20 MSTORE DUP2 DUP2 KECCAK256 PUSH1 0x1 DUP1 PUSH1 0xA0 SHL SUB DUP7 AND DUP3 MSTORE PUSH1 0x20 MSTORE KECCAK256 SLOAD SWAP1 DUP3 DUP3 LT PUSH2 0x5C0 JUMPI PUSH1 0x20 DUP6 PUSH2 0x565 DUP6 DUP6 SUB DUP8 CALLER PUSH2 0x106B JUMP JUMPDEST PUSH1 0x84 SWAP1 PUSH1 0x20 DUP7 MLOAD SWAP2 PUSH3 0x461BCD PUSH1 0xE5 SHL DUP4 MSTORE DUP3 ADD MSTORE PUSH1 0x25 PUSH1 0x24 DUP3 ADD MSTORE PUSH32 0x45524332303A2064656372656173656420616C6C6F77616E63652062656C6F77 PUSH1 0x44 DUP3 ADD MSTORE PUSH5 0x207A65726F PUSH1 0xD8 SHL PUSH1 0x64 DUP3 ADD MSTORE REVERT JUMPDEST DUP1 REVERT JUMPDEST POP POP CALLVALUE PUSH2 0x1E1 JUMPI PUSH2 0x654 SWAP1 PUSH2 0x628 CALLDATASIZE PUSH2 0xF01 JUMP JUMPDEST SWAP2 SWAP1 PUSH2 0x632 PUSH2 0x116D JUMP JUMPDEST PUSH1 0x1 DUP1 PUSH1 0xA0 SHL SUB AND DUP5 MSTORE PUSH1 0x13 PUSH1 0x20 MSTORE DUP4 KECCAK256 SWAP1 PUSH1 0xFF DUP1 NOT DUP4 SLOAD AND SWAP2 ISZERO ISZERO AND OR SWAP1 SSTORE JUMP JUMPDEST DUP1 RETURN JUMPDEST POP POP CALLVALUE PUSH2 0x1E1 JUMPI DUP2 PUSH1 0x3 NOT CALLDATASIZE ADD SLT PUSH2 0x1E1 JUMPI PUSH1 0x20 SWAP1 MLOAD PUSH32 0x97831D354A6F8B80F2034ECB74DED90ADDDA670141F845B47BCBB8C109BE18A2 DUP2 MSTORE RETURN JUMPDEST DUP4 DUP4 CALLVALUE PUSH2 0x1E1 JUMPI DUP2 PUSH1 0x3 NOT CALLDATASIZE ADD SLT PUSH2 0x1E1 JUMPI DUP1 MLOAD SWAP2 DUP1 SWAP4 DUP1 SLOAD SWAP2 PUSH1 0x1 SWAP1 DUP4 PUSH1 0x1 SHR SWAP3 PUSH1 0x1 DUP6 AND SWAP5 DUP6 ISZERO PUSH2 0x78D JUMPI JUMPDEST PUSH1 0x20 SWAP6 DUP7 DUP7 LT DUP2 EQ PUSH2 0x77A JUMPI DUP6 DUP10 MSTORE SWAP1 DUP2 ISZERO PUSH2 0x756 JUMPI POP PUSH1 0x1 EQ PUSH2 0x6FE JUMPI JUMPDEST PUSH2 0x6FA DUP8 DUP8 PUSH2 0x6F0 DUP3 DUP13 SUB DUP4 PUSH2 0xF30 JUMP JUMPDEST MLOAD SWAP2 DUP3 SWAP2 DUP3 PUSH2 0xE87 JUMP JUMPDEST SUB SWAP1 RETURN JUMPDEST DUP2 MSTORE SWAP3 SWAP6 POP PUSH32 0x8A35ACFBC15FF81A39AE7D344FD709F28E8600B4AA8C65C6B64BFE7FE36BD19B JUMPDEST DUP3 DUP5 LT PUSH2 0x743 JUMPI POP POP POP DUP3 PUSH2 0x6FA SWAP5 PUSH2 0x6F0 SWAP3 DUP3 ADD ADD SWAP5 DUP7 DUP1 PUSH2 0x6DF JUMP JUMPDEST DUP1 SLOAD DUP7 DUP6 ADD DUP9 ADD MSTORE SWAP3 DUP7 ADD SWAP3 DUP2 ADD PUSH2 0x725 JUMP JUMPDEST PUSH1 0xFF NOT AND DUP9 DUP8 ADD MSTORE POP POP POP POP ISZERO ISZERO PUSH1 0x5 SHL DUP4 ADD ADD SWAP3 POP PUSH2 0x6F0 DUP3 PUSH2 0x6FA DUP7 DUP1 PUSH2 0x6DF JUMP JUMPDEST PUSH4 0x4E487B71 PUSH1 0xE0 SHL DUP5 MSTORE PUSH1 0x22 DUP4 MSTORE PUSH1 0x24 DUP5 REVERT JUMPDEST SWAP4 PUSH1 0x7F AND SWAP4 PUSH2 0x6C0 JUMP JUMPDEST POP POP CALLVALUE PUSH2 0x1E1 JUMPI DUP2 PUSH1 0x3 NOT CALLDATASIZE ADD SLT PUSH2 0x1E1 JUMPI PUSH1 0x5 SLOAD SWAP1 MLOAD PUSH1 0x1 PUSH1 0x1 PUSH1 0xA0 SHL SUB SWAP1 SWAP2 AND DUP2 MSTORE PUSH1 0x20 SWAP1 RETURN JUMPDEST POP POP CALLVALUE PUSH2 0x1E1 JUMPI DUP2 PUSH1 0x3 NOT CALLDATASIZE ADD SLT PUSH2 0x1E1 JUMPI PUSH1 0x20 SWAP1 PUSH1 0x9 SLOAD SWAP1 MLOAD SWAP1 DUP2 MSTORE RETURN JUMPDEST SWAP1 POP CALLVALUE PUSH2 0x2EE JUMPI DUP3 PUSH1 0x3 NOT CALLDATASIZE ADD SLT PUSH2 0x2EE JUMPI PUSH2 0x7F9 PUSH2 0x116D JUMP JUMPDEST PUSH1 0x7 SLOAD SWAP1 PUSH1 0xFF DUP3 AND PUSH2 0x853 JUMPI POP PUSH1 0xFF NOT AND PUSH1 0x1 OR PUSH1 0x7 SSTORE PUSH1 0x8 SLOAD PUSH32 0xB3DA2DB3DFC3778F99852546C6E9AB39EC253F9DE7B0847AFEC61BD27878E923 SWAP2 PUSH1 0x20 SWAP2 ISZERO PUSH2 0x84A JUMPI JUMPDEST PUSH1 0x8 SLOAD SWAP1 MLOAD SWAP1 DUP2 MSTORE LOG1 DUP1 RETURN JUMPDEST TIMESTAMP PUSH1 0x8 SSTORE PUSH2 0x83E JUMP JUMPDEST PUSH1 0x64 SWAP1 PUSH1 0x20 DUP5 MLOAD SWAP2 PUSH3 0x461BCD PUSH1 0xE5 SHL DUP4 MSTORE DUP3 ADD MSTORE PUSH1 0x17 PUSH1 0x24 DUP3 ADD MSTORE PUSH32 0x54726164696E6720616C726561647920656E61626C6564000000000000000000 PUSH1 0x44 DUP3 ADD MSTORE REVERT JUMPDEST POP POP CALLVALUE PUSH2 0x1E1 JUMPI DUP2 PUSH1 0x3 NOT CALLDATASIZE ADD SLT PUSH2 0x1E1 JUMPI PUSH1 0x20 SWAP1 PUSH1 0xD SLOAD SWAP1 MLOAD SWAP1 DUP2 MSTORE RETURN JUMPDEST POP POP CALLVALUE PUSH2 0x1E1 JUMPI DUP2 PUSH1 0x3 NOT CALLDATASIZE ADD SLT PUSH2 0x1E1 JUMPI PUSH1 0x10 SLOAD SWAP1 MLOAD PUSH1 0x1 PUSH1 0x1 PUSH1 0xA0 SHL SUB SWAP1 SWAP2 AND DUP2 MSTORE PUSH1 0x20 SWAP1 RETURN JUMPDEST POP POP CALLVALUE PUSH2 0x1E1 JUMPI PUSH1 0x60 CALLDATASIZE PUSH1 0x3 NOT ADD SLT PUSH2 0x1E1 JUMPI PUSH2 0x8F9 PUSH2 0xED0 JUMP JUMPDEST PUSH2 0x901 PUSH2 0xEEB JUMP JUMPDEST SWAP2 PUSH1 0x1 PUSH1 0x1 PUSH1 0xA0 SHL SUB SWAP1 PUSH1 0x44 CALLDATALOAD DUP3 DUP2 AND SWAP2 SWAP1 DUP3 SWAP1 SUB PUSH2 0x9B7 JUMPI PUSH32 0x2D4C6AA48812A0EA09474A961613C1A3AE652D39A1580CB1AC46FF277E6D385D SWAP5 DUP3 DUP5 PUSH1 0x60 SWAP7 PUSH2 0x949 PUSH2 0x116D JUMP JUMPDEST AND SWAP5 DUP6 ISZERO ISZERO DUP1 PUSH2 0x9AC JUMPI JUMPDEST DUP1 PUSH2 0x9A3 JUMPI JUMPDEST PUSH2 0x963 SWAP1 PUSH2 0xF68 JUMP JUMPDEST PUSH12 0xFFFFFFFFFFFFFFFFFFFFFFFF PUSH1 0xA0 SHL SWAP3 DUP7 DUP5 PUSH1 0x10 SLOAD AND OR PUSH1 0x10 SSTORE AND SWAP2 DUP3 DUP2 PUSH1 0x11 SLOAD AND OR PUSH1 0x11 SSTORE PUSH1 0x12 SLOAD AND OR PUSH1 0x12 SSTORE DUP2 MLOAD SWAP4 DUP5 MSTORE PUSH1 0x20 DUP5 ADD MSTORE DUP3 ADD MSTORE LOG1 DUP1 RETURN JUMPDEST POP DUP2 ISZERO ISZERO PUSH2 0x95A JUMP JUMPDEST POP DUP1 DUP4 AND ISZERO ISZERO PUSH2 0x954 JUMP JUMPDEST DUP6 DUP1 REVERT JUMPDEST DUP4 CALLVALUE PUSH2 0x611 JUMPI DUP1 PUSH1 0x3 NOT CALLDATASIZE ADD SLT PUSH2 0x611 JUMPI PUSH2 0x9D4 PUSH2 0x116D JUMP JUMPDEST PUSH1 0x5 DUP1 SLOAD PUSH1 0x1 PUSH1 0x1 PUSH1 0xA0 SHL SUB NOT DUP2 AND SWAP1 SWAP2 SSTORE DUP2 SWAP1 PUSH1 0x1 PUSH1 0x1 PUSH1 0xA0 SHL SUB AND PUSH32 0x8BE0079C531659141344CD1FD0A4F28419497F9722A3DAAFE3B4186F6B6457E0 DUP3 DUP1 LOG3 DUP1 RETURN JUMPDEST POP POP CALLVALUE PUSH2 0x1E1 JUMPI DUP2 PUSH1 0x3 NOT CALLDATASIZE ADD SLT PUSH2 0x1E1 JUMPI PUSH1 0x20 SWAP1 PUSH1 0x8 SLOAD SWAP1 MLOAD SWAP1 DUP2 MSTORE RETURN JUMPDEST POP POP CALLVALUE PUSH2 0x1E1 JUMPI PUSH1 0x20 CALLDATASIZE PUSH1 0x3 NOT ADD SLT PUSH2 0x1E1 JUMPI PUSH1 0x20 SWAP1 PUSH2 0xA73 PUSH2 0xA58 PUSH2 0xED0 JUMP JUMPDEST PUSH1 0x1 PUSH1 0x1 PUSH1 0xA0 SHL SUB AND PUSH1 0x0 SWAP1 DUP2 MSTORE PUSH1 0x20 DUP2 SWAP1 MSTORE PUSH1 0x40 SWAP1 KECCAK256 SLOAD SWAP1 JUMP JUMPDEST SWAP1 MLOAD SWAP1 DUP2 MSTORE RETURN JUMPDEST POP POP CALLVALUE PUSH2 0x1E1 JUMPI DUP2 PUSH1 0x3 NOT CALLDATASIZE ADD SLT PUSH2 0x1E1 JUMPI PUSH1 0x20 SWAP1 MLOAD PUSH2 0x3E8 DUP2 MSTORE RETURN JUMPDEST POP POP CALLVALUE PUSH2 0x1E1 JUMPI DUP2 PUSH1 0x3 NOT CALLDATASIZE ADD SLT PUSH2 0x1E1 JUMPI PUSH1 0x20 SWAP1 PUSH1 0xE SLOAD SWAP1 MLOAD SWAP1 DUP2 MSTORE RETURN JUMPDEST POP POP CALLVALUE PUSH2 0x1E1 JUMPI DUP2 PUSH1 0x3 NOT CALLDATASIZE ADD SLT PUSH2 0x1E1 JUMPI PUSH1 0x20 SWAP1 PUSH1 0xFF PUSH1 0x7 SLOAD AND SWAP1 MLOAD SWAP1 ISZERO ISZERO DUP2 MSTORE RETURN JUMPDEST POP POP CALLVALUE PUSH2 0x1E1 JUMPI DUP1 PUSH1 0x3 NOT CALLDATASIZE ADD SLT PUSH2 0x1E1 JUMPI PUSH2 0x565 PUSH1 0x20 SWAP3 PUSH2 0xB23 PUSH2 0xAFD PUSH2 0xED0 JUMP JUMPDEST CALLER DUP4 MSTORE PUSH1 0x1 DUP7 MSTORE DUP5 DUP4 KECCAK256 PUSH1 0x1 PUSH1 0x1 PUSH1 0xA0 SHL SUB DUP3 AND DUP5 MSTORE DUP7 MSTORE SWAP2 DUP5 SWAP1 KECCAK256 SLOAD PUSH1 0x24 CALLDATALOAD SWAP1 PUSH2 0x1048 JUMP JUMPDEST SWAP1 CALLER PUSH2 0x106B JUMP JUMPDEST POP POP CALLVALUE PUSH2 0x1E1 JUMPI DUP2 PUSH1 0x3 NOT CALLDATASIZE ADD SLT PUSH2 0x1E1 JUMPI PUSH1 0x20 SWAP1 MLOAD PUSH1 0x12 DUP2 MSTORE RETURN JUMPDEST SWAP1 POP CALLVALUE PUSH2 0x2EE JUMPI PUSH1 0x20 CALLDATASIZE PUSH1 0x3 NOT ADD SLT PUSH2 0x2EE JUMPI PUSH32 0x4B39C36D20C57D220F61FD25C4349D4435CC03EF6C2A680942F15333C3C3E001 SWAP2 PUSH1 0x20 SWAP2 CALLDATALOAD SWAP1 PUSH2 0xB88 PUSH2 0x116D JUMP JUMPDEST PUSH2 0xB93 DUP3 ISZERO ISZERO PUSH2 0xFA6 JUMP JUMPDEST PUSH2 0xBA1 PUSH1 0x2 SLOAD DUP4 GT ISZERO PUSH2 0xFF2 JUMP JUMPDEST DUP2 PUSH1 0xA SSTORE MLOAD SWAP1 DUP2 MSTORE LOG1 DUP1 RETURN JUMPDEST DUP4 SWAP2 POP CALLVALUE PUSH2 0x1E1 JUMPI PUSH1 0x60 CALLDATASIZE PUSH1 0x3 NOT ADD SLT PUSH2 0x1E1 JUMPI PUSH2 0xBC9 PUSH2 0xED0 JUMP JUMPDEST PUSH2 0xBD1 PUSH2 0xEEB JUMP JUMPDEST SWAP2 DUP5 PUSH1 0x44 CALLDATALOAD SWAP5 PUSH1 0x1 DUP1 PUSH1 0xA0 SHL SUB DUP5 AND DUP2 MSTORE PUSH1 0x1 PUSH1 0x20 MSTORE DUP2 DUP2 KECCAK256 CALLER DUP3 MSTORE PUSH1 0x20 MSTORE KECCAK256 SLOAD SWAP1 PUSH1 0x0 NOT DUP3 SUB PUSH2 0xC0B JUMPI JUMPDEST PUSH1 0x20 DUP7 PUSH2 0x565 DUP8 DUP8 DUP8 PUSH2 0x11D8 JUMP JUMPDEST DUP5 DUP3 LT PUSH2 0xC34 JUMPI POP SWAP2 DUP4 SWAP2 PUSH2 0xC29 PUSH1 0x20 SWAP7 SWAP6 PUSH2 0x565 SWAP6 SUB CALLER DUP4 PUSH2 0x106B JUMP JUMPDEST SWAP2 SWAP4 SWAP5 DUP2 SWAP4 POP PUSH2 0xBFD JUMP JUMPDEST PUSH1 0x64 SWAP1 PUSH1 0x20 DUP8 MLOAD SWAP2 PUSH3 0x461BCD PUSH1 0xE5 SHL DUP4 MSTORE DUP3 ADD MSTORE PUSH1 0x1D PUSH1 0x24 DUP3 ADD MSTORE PUSH32 0x45524332303A20696E73756666696369656E7420616C6C6F77616E6365000000 PUSH1 0x44 DUP3 ADD MSTORE REVERT JUMPDEST POP POP CALLVALUE PUSH2 0x1E1 JUMPI DUP2 PUSH1 0x3 NOT CALLDATASIZE ADD SLT PUSH2 0x1E1 JUMPI PUSH1 0x20 SWAP1 PUSH1 0x2 SLOAD SWAP1 MLOAD SWAP1 DUP2 MSTORE RETURN JUMPDEST POP POP CALLVALUE PUSH2 0x1E1 JUMPI PUSH32 0x6A12B3DF6CBA4203BD7FD06B816789F87DE8C594299AED5717AE070FAC781BAC SWAP1 PUSH2 0xCC8 CALLDATASIZE PUSH2 0xF01 JUMP JUMPDEST SWAP1 PUSH2 0xCD1 PUSH2 0x116D JUMP JUMPDEST PUSH1 0x1 PUSH1 0x1 PUSH1 0xA0 SHL SUB AND SWAP1 PUSH2 0xCE6 DUP3 ISZERO ISZERO PUSH2 0xF68 JUMP JUMPDEST DUP2 DUP6 MSTORE PUSH1 0x14 PUSH1 0x20 MSTORE PUSH2 0xD06 DUP2 DUP5 DUP8 KECCAK256 SWAP1 PUSH1 0xFF DUP1 NOT DUP4 SLOAD AND SWAP2 ISZERO ISZERO AND OR SWAP1 SSTORE JUMP JUMPDEST DUP3 MLOAD SWAP2 DUP3 MSTORE ISZERO ISZERO PUSH1 0x20 DUP3 ADD MSTORE LOG1 DUP1 RETURN JUMPDEST POP POP CALLVALUE PUSH2 0x1E1 JUMPI DUP2 PUSH1 0x3 NOT CALLDATASIZE ADD SLT PUSH2 0x1E1 JUMPI PUSH1 0x12 SLOAD SWAP1 MLOAD PUSH1 0x1 PUSH1 0x1 PUSH1 0xA0 SHL SUB SWAP1 SWAP2 AND DUP2 MSTORE PUSH1 0x20 SWAP1 RETURN JUMPDEST POP POP CALLVALUE PUSH2 0x1E1 JUMPI DUP1 PUSH1 0x3 NOT CALLDATASIZE ADD SLT PUSH2 0x1E1 JUMPI PUSH1 0x20 SWAP1 PUSH2 0x565 PUSH2 0xD5F PUSH2 0xED0 JUMP JUMPDEST PUSH1 0x24 CALLDATALOAD SWAP1 CALLER PUSH2 0x106B JUMP JUMPDEST POP POP CALLVALUE PUSH2 0x1E1 JUMPI DUP2 PUSH1 0x3 NOT CALLDATASIZE ADD SLT PUSH2 0x1E1 JUMPI PUSH1 0xB SLOAD SWAP1 MLOAD PUSH1 0x1 PUSH1 0x1 PUSH1 0xA0 SHL SUB SWAP1 SWAP2 AND DUP2 MSTORE PUSH1 0x20 SWAP1 RETURN JUMPDEST SWAP3 SWAP2 POP CALLVALUE PUSH2 0xE83 JUMPI DUP4 PUSH1 0x3 NOT CALLDATASIZE ADD SLT PUSH2 0xE83 JUMPI PUSH1 0x3 SLOAD PUSH1 0x1 DUP2 DUP2 SHR SWAP2 DUP7 SWAP1 DUP3 DUP2 AND DUP1 ISZERO PUSH2 0xE79 JUMPI JUMPDEST PUSH1 0x20 SWAP6 DUP7 DUP7 LT DUP3 EQ PUSH2 0xE66 JUMPI POP DUP5 DUP9 MSTORE SWAP1 DUP2 ISZERO PUSH2 0xE44 JUMPI POP PUSH1 0x1 EQ PUSH2 0xDEB JUMPI JUMPDEST PUSH2 0x6FA DUP7 DUP7 PUSH2 0x6F0 DUP3 DUP12 SUB DUP4 PUSH2 0xF30 JUMP JUMPDEST SWAP3 SWAP6 POP PUSH1 0x3 DUP4 MSTORE PUSH32 0xC2575A0E9E593C00F959F8C92F12DB2869C3395A3B0502D05E2516446F71F85B JUMPDEST DUP3 DUP5 LT PUSH2 0xE31 JUMPI POP POP POP DUP3 PUSH2 0x6FA SWAP5 PUSH2 0x6F0 SWAP3 DUP3 ADD ADD SWAP5 CODESIZE PUSH2 0xDDA JUMP JUMPDEST DUP1 SLOAD DUP7 DUP6 ADD DUP9 ADD MSTORE SWAP3 DUP7 ADD SWAP3 DUP2 ADD PUSH2 0xE14 JUMP JUMPDEST PUSH1 0xFF NOT AND DUP8 DUP7 ADD MSTORE POP POP POP ISZERO ISZERO PUSH1 0x5 SHL DUP4 ADD ADD SWAP3 POP PUSH2 0x6F0 DUP3 PUSH2 0x6FA CODESIZE PUSH2 0xDDA JUMP JUMPDEST PUSH4 0x4E487B71 PUSH1 0xE0 SHL DUP5 MSTORE PUSH1 0x22 SWAP1 MSTORE PUSH1 0x24 DUP4 REVERT JUMPDEST SWAP4 PUSH1 0x7F AND SWAP4 PUSH2 0xDBA JUMP JUMPDEST DUP4 DUP1 REVERT JUMPDEST PUSH1 0x20 DUP1 DUP3 MSTORE DUP3 MLOAD DUP2 DUP4 ADD DUP2 SWAP1 MSTORE SWAP1 SWAP4 SWAP3 PUSH1 0x0 JUMPDEST DUP3 DUP2 LT PUSH2 0xEBC JUMPI POP POP PUSH1 0x40 SWAP3 SWAP4 POP PUSH1 0x0 DUP4 DUP3 DUP5 ADD ADD MSTORE PUSH1 0x1F DUP1 NOT SWAP2 ADD AND ADD ADD SWAP1 JUMP JUMPDEST DUP2 DUP2 ADD DUP7 ADD MLOAD DUP5 DUP3 ADD PUSH1 0x40 ADD MSTORE DUP6 ADD PUSH2 0xE9A JUMP JUMPDEST PUSH1 0x4 CALLDATALOAD SWAP1 PUSH1 0x1 PUSH1 0x1 PUSH1 0xA0 SHL SUB DUP3 AND DUP3 SUB PUSH2 0xEE6 JUMPI JUMP JUMPDEST PUSH1 0x0 DUP1 REVERT JUMPDEST PUSH1 0x24 CALLDATALOAD SWAP1 PUSH1 0x1 PUSH1 0x1 PUSH1 0xA0 SHL SUB DUP3 AND DUP3 SUB PUSH2 0xEE6 JUMPI JUMP JUMPDEST PUSH1 0x40 SWAP1 PUSH1 0x3 NOT ADD SLT PUSH2 0xEE6 JUMPI PUSH1 0x4 CALLDATALOAD PUSH1 0x1 PUSH1 0x1 PUSH1 0xA0 SHL SUB DUP2 AND DUP2 SUB PUSH2 0xEE6 JUMPI SWAP1 PUSH1 0x24 CALLDATALOAD DUP1 ISZERO ISZERO DUP2 SUB PUSH2 0xEE6 JUMPI SWAP1 JUMP JUMPDEST SWAP1 PUSH1 0x1F DUP1 NOT SWAP2 ADD AND DUP2 ADD SWAP1 DUP2 LT PUSH8 0xFFFFFFFFFFFFFFFF DUP3 GT OR PUSH2 0xF52 JUMPI PUSH1 0x40 MSTORE JUMP JUMPDEST PUSH4 0x4E487B71 PUSH1 0xE0 SHL PUSH1 0x0 MSTORE PUSH1 0x41 PUSH1 0x4 MSTORE PUSH1 0x24 PUSH1 0x0 REVERT JUMPDEST ISZERO PUSH2 0xF6F JUMPI JUMP JUMPDEST PUSH1 0x40 MLOAD PUSH3 0x461BCD PUSH1 0xE5 SHL DUP2 MSTORE PUSH1 0x20 PUSH1 0x4 DUP3 ADD MSTORE PUSH1 0xF PUSH1 0x24 DUP3 ADD MSTORE PUSH15 0x496E76616C69642061646472657373 PUSH1 0x88 SHL PUSH1 0x44 DUP3 ADD MSTORE PUSH1 0x64 SWAP1 REVERT JUMPDEST ISZERO PUSH2 0xFAD JUMPI JUMP JUMPDEST PUSH1 0x40 MLOAD PUSH3 0x461BCD PUSH1 0xE5 SHL DUP2 MSTORE PUSH1 0x20 PUSH1 0x4 DUP3 ADD MSTORE PUSH1 0x1D PUSH1 0x24 DUP3 ADD MSTORE PUSH32 0x416D6F756E74206D7573742062652067726561746572207468616E2030000000 PUSH1 0x44 DUP3 ADD MSTORE PUSH1 0x64 SWAP1 REVERT JUMPDEST ISZERO PUSH2 0xFF9 JUMPI JUMP JUMPDEST PUSH1 0x40 MLOAD PUSH3 0x461BCD PUSH1 0xE5 SHL DUP2 MSTORE PUSH1 0x20 PUSH1 0x4 DUP3 ADD MSTORE PUSH1 0x21 PUSH1 0x24 DUP3 ADD MSTORE PUSH32 0x416D6F756E742063616E6E6F742065786365656420746F74616C20737570706C PUSH1 0x44 DUP3 ADD MSTORE PUSH1 0x79 PUSH1 0xF8 SHL PUSH1 0x64 DUP3 ADD MSTORE PUSH1 0x84 SWAP1 REVERT JUMPDEST SWAP2 SWAP1 DUP3 ADD DUP1 SWAP3 GT PUSH2 0x1055 JUMPI JUMP JUMPDEST PUSH4 0x4E487B71 PUSH1 0xE0 SHL PUSH1 0x0 MSTORE PUSH1 0x11 PUSH1 0x4 MSTORE PUSH1 0x24 PUSH1 0x0 REVERT JUMPDEST PUSH1 0x1 PUSH1 0x1 PUSH1 0xA0 SHL SUB SWAP1 DUP2 AND SWAP2 DUP3 ISZERO PUSH2 0x111C JUMPI AND SWAP2 DUP3 ISZERO PUSH2 0x10CC JUMPI PUSH1 0x20 PUSH32 0x8C5BE1E5EBEC7D5BD14F71427D1E84F3DD0314C0F7B2291E5B200AC8C7C3B925 SWAP2 DUP4 PUSH1 0x0 MSTORE PUSH1 0x1 DUP3 MSTORE PUSH1 0x40 PUSH1 0x0 KECCAK256 DUP6 PUSH1 0x0 MSTORE DUP3 MSTORE DUP1 PUSH1 0x40 PUSH1 0x0 KECCAK256 SSTORE PUSH1 0x40 MLOAD SWAP1 DUP2 MSTORE LOG3 JUMP JUMPDEST PUSH1 0x40 MLOAD PUSH3 0x461BCD PUSH1 0xE5 SHL DUP2 MSTORE PUSH1 0x20 PUSH1 0x4 DUP3 ADD MSTORE PUSH1 0x22 PUSH1 0x24 DUP3 ADD MSTORE PUSH32 0x45524332303A20617070726F766520746F20746865207A65726F206164647265 PUSH1 0x44 DUP3 ADD MSTORE PUSH2 0x7373 PUSH1 0xF0 SHL PUSH1 0x64 DUP3 ADD MSTORE PUSH1 0x84 SWAP1 REVERT JUMPDEST PUSH1 0x40 MLOAD PUSH3 0x461BCD PUSH1 0xE5 SHL DUP2 MSTORE PUSH1 0x20 PUSH1 0x4 DUP3 ADD MSTORE PUSH1 0x24 DUP1 DUP3 ADD MSTORE PUSH32 0x45524332303A20617070726F76652066726F6D20746865207A65726F20616464 PUSH1 0x44 DUP3 ADD MSTORE PUSH4 0x72657373 PUSH1 0xE0 SHL PUSH1 0x64 DUP3 ADD MSTORE PUSH1 0x84 SWAP1 REVERT JUMPDEST PUSH1 0x5 SLOAD PUSH1 0x1 PUSH1 0x1 PUSH1 0xA0 SHL SUB AND CALLER SUB PUSH2 0x1181 JUMPI JUMP JUMPDEST PUSH1 0x64 PUSH1 0x40 MLOAD PUSH3 0x461BCD PUSH1 0xE5 SHL DUP2 MSTORE PUSH1 0x20 PUSH1 0x4 DUP3 ADD MSTORE PUSH1 0x20 PUSH1 0x24 DUP3 ADD MSTORE PUSH32 0x4F776E61626C653A2063616C6C6572206973206E6F7420746865206F776E6572 PUSH1 0x44 DUP3 ADD MSTORE REVERT JUMPDEST DUP2 DUP2 MUL SWAP3 SWAP2 DUP2 ISZERO SWAP2 DUP5 DIV EQ OR ISZERO PUSH2 0x1055 JUMPI JUMP JUMPDEST SWAP3 SWAP2 SWAP1 PUSH1 0x0 SWAP4 PUSH1 0x1 DUP1 PUSH1 0xA0 SHL SUB SWAP5 DUP6 DUP3 AND SWAP6 DUP7 DUP3 MSTORE PUSH1 0x20 SWAP1 PUSH1 0x14 DUP3 MSTORE PUSH1 0xFF PUSH1 0x40 SWAP2 DUP2 DUP4 DUP7 KECCAK256 SLOAD AND ISZERO DUP1 PUSH2 0x161B JUMPI JUMPDEST ISZERO PUSH2 0x15E1 JUMPI DUP2 PUSH1 0x7 SLOAD AND DUP1 ISZERO PUSH2 0x15D4 JUMPI JUMPDEST DUP1 ISZERO PUSH2 0x15C5 JUMPI JUMPDEST ISZERO PUSH2 0x158B JUMPI PUSH1 0x8 SLOAD DUP1 PUSH2 0x1545 JUMPI JUMPDEST POP PUSH1 0x9 SLOAD DUP1 ISZERO ISZERO DUP1 PUSH2 0x1531 JUMPI JUMPDEST DUP1 PUSH2 0x151B JUMPI JUMPDEST PUSH2 0x14CB JUMPI JUMPDEST POP PUSH1 0xA SLOAD DUP1 ISZERO ISZERO DUP1 PUSH2 0x14B5 JUMPI JUMPDEST PUSH2 0x1451 JUMPI JUMPDEST POP DUP1 PUSH1 0xC SLOAD AND DUP2 DUP9 AND SWAP1 DUP1 DUP3 EQ SWAP1 DUP2 ISZERO PUSH2 0x1447 JUMPI JUMPDEST POP PUSH2 0x1284 JUMPI JUMPDEST POP POP POP POP POP POP PUSH2 0x1282 SWAP4 SWAP5 POP PUSH2 0x162D JUMP JUMPDEST JUMP JUMPDEST DUP6 SWAP11 PUSH1 0x64 PUSH2 0x129A PUSH1 0xD SWAP12 SWAP10 SWAP12 SWAP9 SWAP8 SWAP9 SLOAD DUP11 PUSH2 0x11C5 JUMP JUMPDEST DIV SWAP4 PUSH1 0x64 PUSH2 0x12AA PUSH1 0xE SLOAD DUP12 PUSH2 0x11C5 JUMP JUMPDEST DIV SWAP8 PUSH1 0x64 PUSH2 0x12BA PUSH1 0xF SLOAD DUP13 PUSH2 0x11C5 JUMP JUMPDEST DIV SWAP6 PUSH2 0x12CA DUP8 PUSH2 0x3B8 DUP13 DUP5 PUSH2 0x1048 JUMP JUMPDEST SWAP10 DUP14 DUP12 PUSH2 0x130D JUMPI JUMPDEST POP POP POP POP POP POP POP POP POP POP POP DUP2 SUB SWAP1 DUP2 GT PUSH2 0x12F9 JUMPI PUSH2 0x1282 SWAP4 SWAP5 POP SWAP2 DUP5 SWAP4 CODESIZE DUP1 DUP1 DUP1 DUP1 PUSH2 0x1271 JUMP JUMPDEST PUSH4 0x4E487B71 PUSH1 0xE0 SHL DUP6 MSTORE PUSH1 0x11 PUSH1 0x4 MSTORE PUSH1 0x24 DUP6 REVERT JUMPDEST PUSH2 0x132B SWAP3 PUSH2 0x1320 SWAP2 DUP10 PUSH1 0x10 SLOAD AND SWAP1 PUSH2 0x162D JUMP JUMPDEST PUSH1 0x11 SLOAD DUP8 AND DUP15 PUSH2 0x162D JUMP JUMPDEST DUP6 ISZERO ISZERO SWAP3 DUP4 PUSH2 0x1432 JUMPI JUMPDEST POP DUP3 PUSH2 0x141C JUMPI JUMPDEST POP POP PUSH2 0x134E JUMPI JUMPDEST DUP1 DUP1 DUP1 DUP1 DUP1 DUP14 PUSH2 0x12D2 JUMP JUMPDEST PUSH2 0x135D DUP4 DUP4 PUSH1 0x12 SLOAD AND DUP12 PUSH2 0x162D JUMP JUMPDEST DUP2 PUSH1 0xC SLOAD AND EQ DUP1 PUSH2 0x13F0 JUMPI JUMPDEST PUSH2 0x1374 JUMPI JUMPDEST DUP1 PUSH2 0x1343 JUMP JUMPDEST PUSH1 0x12 SLOAD AND DUP1 EXTCODESIZE ISZERO PUSH2 0xE83 JUMPI PUSH1 0x44 DUP5 SWAP3 DUP5 MLOAD SWAP6 DUP7 SWAP4 DUP5 SWAP3 PUSH4 0xD3F2036B PUSH1 0xE0 SHL DUP5 MSTORE ADDRESS PUSH1 0x4 DUP6 ADD MSTORE PUSH1 0x1 SHR PUSH1 0x24 DUP5 ADD MSTORE GAS CALL DUP1 ISZERO PUSH2 0x13E6 JUMPI PUSH2 0x13B7 JUMPI JUMPDEST DUP1 DUP9 SWAP3 PUSH2 0x136E JUMP JUMPDEST PUSH8 0xFFFFFFFFFFFFFFFF DUP3 SWAP9 SWAP4 SWAP9 GT PUSH2 0x13D2 JUMPI MSTORE SWAP5 CODESIZE DUP1 PUSH2 0x13AF JUMP JUMPDEST PUSH4 0x4E487B71 PUSH1 0xE0 SHL DUP4 MSTORE PUSH1 0x41 PUSH1 0x4 MSTORE PUSH1 0x24 DUP4 REVERT JUMPDEST DUP2 MLOAD RETURNDATASIZE DUP11 DUP3 RETURNDATACOPY RETURNDATASIZE SWAP1 REVERT JUMPDEST POP PUSH2 0x3E8 PUSH2 0x1415 DUP3 PUSH1 0x12 SLOAD AND PUSH1 0x1 DUP1 PUSH1 0xA0 SHL SUB AND PUSH1 0x0 MSTORE PUSH1 0x0 PUSH1 0x20 MSTORE PUSH1 0x40 PUSH1 0x0 KECCAK256 SLOAD SWAP1 JUMP JUMPDEST LT ISZERO PUSH2 0x1369 JUMP JUMPDEST PUSH1 0x13 SWAP2 SWAP3 POP DUP4 DUP9 MSTORE MSTORE DUP5 DUP7 KECCAK256 SLOAD AND ISZERO CODESIZE DUP1 PUSH2 0x133C JUMP JUMPDEST DUP9 MSTORE PUSH1 0x13 DUP2 MSTORE DUP7 DUP9 KECCAK256 SLOAD DUP3 AND ISZERO SWAP3 POP CODESIZE PUSH2 0x1335 JUMP JUMPDEST SWAP1 POP DUP12 EQ CODESIZE PUSH2 0x126B JUMP JUMPDEST DUP2 DUP9 AND DUP7 MSTORE DUP6 DUP6 MSTORE PUSH2 0x1466 DUP10 DUP6 DUP9 KECCAK256 SLOAD PUSH2 0x1048 JUMP JUMPDEST GT PUSH2 0x1471 JUMPI CODESIZE PUSH2 0x1256 JUMP JUMPDEST DUP3 MLOAD PUSH3 0x461BCD PUSH1 0xE5 SHL DUP2 MSTORE PUSH1 0x4 DUP2 ADD DUP6 SWAP1 MSTORE PUSH1 0x19 PUSH1 0x24 DUP3 ADD MSTORE PUSH32 0x45786365656473206D61782077616C6C657420616D6F756E7400000000000000 PUSH1 0x44 DUP3 ADD MSTORE PUSH1 0x64 SWAP1 REVERT JUMPDEST POP DUP2 DUP9 AND DUP7 MSTORE PUSH1 0x13 DUP6 MSTORE DUP3 DUP5 DUP8 KECCAK256 SLOAD AND ISZERO PUSH2 0x1251 JUMP JUMPDEST DUP9 GT PUSH2 0x14D7 JUMPI CODESIZE PUSH2 0x1244 JUMP JUMPDEST DUP3 MLOAD PUSH3 0x461BCD PUSH1 0xE5 SHL DUP2 MSTORE PUSH1 0x4 DUP2 ADD DUP6 SWAP1 MSTORE PUSH1 0x1E PUSH1 0x24 DUP3 ADD MSTORE PUSH32 0x45786365656473206D6178207472616E73616374696F6E20616D6F756E740000 PUSH1 0x44 DUP3 ADD MSTORE PUSH1 0x64 SWAP1 REVERT JUMPDEST POP DUP2 DUP9 AND DUP7 MSTORE PUSH1 0x13 DUP6 MSTORE DUP3 DUP5 DUP8 KECCAK256 SLOAD AND ISZERO PUSH2 0x123F JUMP JUMPDEST POP DUP11 DUP7 MSTORE PUSH1 0x13 DUP6 MSTORE DUP3 DUP5 DUP8 KECCAK256 SLOAD AND ISZERO PUSH2 0x1239 JUMP JUMPDEST TIMESTAMP LT PUSH2 0x1551 JUMPI CODESIZE PUSH2 0x122C JUMP JUMPDEST DUP3 MLOAD PUSH3 0x461BCD PUSH1 0xE5 SHL DUP2 MSTORE PUSH1 0x4 DUP2 ADD DUP6 SWAP1 MSTORE PUSH1 0x13 PUSH1 0x24 DUP3 ADD MSTORE PUSH19 0x151C98591A5B99C81B9BDD081CDD185C9D1959 PUSH1 0x6A SHL PUSH1 0x44 DUP3 ADD MSTORE PUSH1 0x64 SWAP1 REVERT JUMPDEST DUP3 MLOAD PUSH3 0x461BCD PUSH1 0xE5 SHL DUP2 MSTORE PUSH1 0x4 DUP2 ADD DUP6 SWAP1 MSTORE PUSH1 0x13 PUSH1 0x24 DUP3 ADD MSTORE PUSH19 0x151C98591A5B99C81B9BDD08195B98589B1959 PUSH1 0x6A SHL PUSH1 0x44 DUP3 ADD MSTORE PUSH1 0x64 SWAP1 REVERT JUMPDEST POP DUP1 PUSH1 0x5 SLOAD AND DUP2 DUP9 AND EQ PUSH2 0x121E JUMP JUMPDEST POP DUP1 PUSH1 0x5 SLOAD AND DUP11 EQ PUSH2 0x1217 JUMP JUMPDEST DUP3 MLOAD PUSH3 0x461BCD PUSH1 0xE5 SHL DUP2 MSTORE PUSH1 0x4 DUP2 ADD DUP6 SWAP1 MSTORE PUSH1 0x13 PUSH1 0x24 DUP3 ADD MSTORE PUSH19 0x426C61636B6C69737465642061646472657373 PUSH1 0x68 SHL PUSH1 0x44 DUP3 ADD MSTORE PUSH1 0x64 SWAP1 REVERT JUMPDEST POP DUP1 DUP8 AND DUP6 MSTORE DUP2 DUP4 DUP7 KECCAK256 SLOAD AND ISZERO PUSH2 0x1206 JUMP JUMPDEST PUSH1 0x1 PUSH1 0x1 PUSH1 0xA0 SHL SUB SWAP1 DUP2 AND SWAP2 DUP3 ISZERO PUSH2 0x1748 JUMPI AND SWAP2 DUP3 ISZERO PUSH2 0x16F7 JUMPI PUSH1 0x0 DUP3 DUP2 MSTORE DUP1 PUSH1 0x20 MSTORE PUSH1 0x40 DUP2 KECCAK256 SLOAD SWAP2 DUP1 DUP4 LT PUSH2 0x16A3 JUMPI PUSH1 0x40 DUP3 DUP3 PUSH32 0xDDF252AD1BE2C89B69C2B068FC378DAA952BA7F163C4A11628F55A4DF523B3EF SWAP6 DUP8 PUSH1 0x20 SWAP7 MSTORE DUP3 DUP7 MSTORE SUB DUP3 DUP3 KECCAK256 SSTORE DUP7 DUP2 MSTORE KECCAK256 DUP2 DUP2 SLOAD ADD SWAP1 SSTORE PUSH1 0x40 MLOAD SWAP1 DUP2 MSTORE LOG3 JUMP JUMPDEST PUSH1 0x40 MLOAD PUSH3 0x461BCD PUSH1 0xE5 SHL DUP2 MSTORE PUSH1 0x20 PUSH1 0x4 DUP3 ADD MSTORE PUSH1 0x26 PUSH1 0x24 DUP3 ADD MSTORE PUSH32 0x45524332303A207472616E7366657220616D6F756E7420657863656564732062 PUSH1 0x44 DUP3 ADD MSTORE PUSH6 0x616C616E6365 PUSH1 0xD0 SHL PUSH1 0x64 DUP3 ADD MSTORE PUSH1 0x84 SWAP1 REVERT JUMPDEST PUSH1 0x40 MLOAD PUSH3 0x461BCD PUSH1 0xE5 SHL DUP2 MSTORE PUSH1 0x20 PUSH1 0x4 DUP3 ADD MSTORE PUSH1 0x23 PUSH1 0x24 DUP3 ADD MSTORE PUSH32 0x45524332303A207472616E7366657220746F20746865207A65726F2061646472 PUSH1 0x44 DUP3 ADD MSTORE PUSH3 0x657373 PUSH1 0xE8 SHL PUSH1 0x64 DUP3 ADD MSTORE PUSH1 0x84 SWAP1 REVERT JUMPDEST PUSH1 0x40 MLOAD PUSH3 0x461BCD PUSH1 0xE5 SHL DUP2 MSTORE PUSH1 0x20 PUSH1 0x4 DUP3 ADD MSTORE PUSH1 0x25 PUSH1 0x24 DUP3 ADD MSTORE PUSH32 0x45524332303A207472616E736665722066726F6D20746865207A65726F206164 PUSH1 0x44 DUP3 ADD MSTORE PUSH5 0x6472657373 PUSH1 0xD8 SHL PUSH1 0x64 DUP3 ADD MSTORE PUSH1 0x84 SWAP1 REVERT INVALID LOG2 PUSH5 0x6970667358 0x22 SLT KECCAK256 0xD3 0xA6 PUSH0 0x5D MUL PUSH3 0xF4BB6 PUSH27 0xBBD0652BA30192260479C7A42773FF99503AB18997E164736F6C63 NUMBER STOP ADDMOD AND STOP CALLER "},"gasEstimates":{"creation":{"codeDepositCost":"1219400","executionCost":"infinite","totalCost":"infinite"},"external":{"MIN_TOKENS_FOR_LIQUIDITY()":"438","VERSION()":"983","VERSION_HASH()":"680","allowance(address,address)":"3233","approve(address,uint256)":"24409","autoLiquidityFeePercentage()":"2962","autoLiquidityWallet()":"2367","balanceOf(address)":"2741","decimals()":"350","decreaseAllowance(address,uint256)":"27202","developmentFeePercentage()":"2522","developmentWallet()":"2917","dexPair()":"3049","dexRouter()":"2323","enableTrading()":"54362","excludeFromAutoLiquidity(address,bool)":"27292","increaseAllowance(address,uint256)":"26873","isBlacklisted(address)":"3238","isExcludedFromAutoLiquidity(address)":"3084","marketingFeePercentage()":"2676","marketingWallet()":"2675","maxTxAmount()":"2720","maxWalletAmount()":"2874","name()":"infinite","owner()":"2763","renounceOwnership()":"28414","setBlacklist(address,bool)":"28217","setMaxTxAmount(uint256)":"28392","setMaxWalletAmount(uint256)":"27820","setTaxes(uint256,uint256,uint256)":"infinite","setWallets(address,address,address)":"77272","symbol()":"infinite","totalSupply()":"2390","tradingEnabled()":"2512","tradingStartTime()":"2588","transfer(address,uint256)":"infinite","transferFrom(address,address,uint256)":"infinite","transferOwnership(address)":"28952"},"internal":{"_excludeFromLimits(address)":"infinite","_transfer(address,address,uint256)":"infinite"}},"methodIdentifiers":{"MIN_TOKENS_FOR_LIQUIDITY()":"606e1b81","VERSION()":"ffa1ad74","VERSION_HASH()":"9e4e7318","allowance(address,address)":"dd62ed3e","approve(address,uint256)":"095ea7b3","autoLiquidityFeePercentage()":"de37610e","autoLiquidityWallet()":"0c439f93","balanceOf(address)":"70a08231","decimals()":"313ce567","decreaseAllowance(address,uint256)":"a457c2d7","developmentFeePercentage()":"5e298790","developmentWallet()":"c04a5414","dexPair()":"f242ab41","dexRouter()":"0758d924","enableTrading()":"8a8c523c","excludeFromAutoLiquidity(address,bool)":"9f7b0ed5","increaseAllowance(address,uint256)":"39509351","isBlacklisted(address)":"fe575a87","isExcludedFromAutoLiquidity(address)":"c1a68121","marketingFeePercentage()":"80ada68a","marketingWallet()":"75f0a874","maxTxAmount()":"8c0b5e22","maxWalletAmount()":"aa4bde28","name()":"06fdde03","owner()":"8da5cb5b","renounceOwnership()":"715018a6","setBlacklist(address,bool)":"153b0d1e","setMaxTxAmount(uint256)":"ec28438a","setMaxWalletAmount(uint256)":"27a14fc2","setTaxes(uint256,uint256,uint256)":"e9dae5ed","setWallets(address,address,address)":"75cb1bd1","symbol()":"95d89b41","totalSupply()":"18160ddd","tradingEnabled()":"4ada218b","tradingStartTime()":"70b7b80c","transfer(address,uint256)":"a9059cbb","transferFrom(address,address,uint256)":"23b872dd","transferOwnership(address)":"f2fde38b"}},"storageLayout":{"storage":[{"astId":193,"contract":"src/contracts/TokenTemplate_v2DirectDEX.sol:TokenTemplate_v2DirectDEX","label":"_balances","offset":0,"slot":"0","type":"t_mapping(t_address,t_uint256)"},{"astId":199,"contract":"src/contracts/TokenTemplate_v2DirectDEX.sol:TokenTemplate_v2DirectDEX","label":"_allowances","offset":0,"slot":"1","type":"t_mapping(t_address,t_mapping(t_address,t_uint256))"},{"astId":201,"contract":"src/contracts/TokenTemplate_v2DirectDEX.sol:TokenTemplate_v2DirectDEX","label":"_totalSupply","offset":0,"slot":"2","type":"t_uint256"},{"astId":203,"contract":"src/contracts/TokenTemplate_v2DirectDEX.sol:TokenTemplate_v2DirectDEX","label":"_name","offset":0,"slot":"3","type":"t_string_storage"},{"astId":205,"contract":"src/contracts/TokenTemplate_v2DirectDEX.sol:TokenTemplate_v2DirectDEX","label":"_symbol","offset":0,"slot":"4","type":"t_string_storage"},{"astId":7,"contract":"src/contracts/TokenTemplate_v2DirectDEX.sol:TokenTemplate_v2DirectDEX","label":"_owner","offset":0,"slot":"5","type":"t_address"},{"astId":123,"contract":"src/contracts/TokenTemplate_v2DirectDEX.sol:TokenTemplate_v2DirectDEX","label":"_status","offset":0,"slot":"6","type":"t_uint256"},{"astId":2459,"contract":"src/contracts/TokenTemplate_v2DirectDEX.sol:TokenTemplate_v2DirectDEX","label":"tradingEnabled","offset":0,"slot":"7","type":"t_bool"},{"astId":2461,"contract":"src/contracts/TokenTemplate_v2DirectDEX.sol:TokenTemplate_v2DirectDEX","label":"tradingStartTime","offset":0,"slot":"8","type":"t_uint256"},{"astId":2463,"contract":"src/contracts/TokenTemplate_v2DirectDEX.sol:TokenTemplate_v2DirectDEX","label":"maxTxAmount","offset":0,"slot":"9","type":"t_uint256"},{"astId":2465,"contract":"src/contracts/TokenTemplate_v2DirectDEX.sol:TokenTemplate_v2DirectDEX","label":"maxWalletAmount","offset":0,"slot":"10","type":"t_uint256"},{"astId":2467,"contract":"src/contracts/TokenTemplate_v2DirectDEX.sol:TokenTemplate_v2DirectDEX","label":"dexRouter","offset":0,"slot":"11","type":"t_address"},{"astId":2469,"contract":"src/contracts/TokenTemplate_v2DirectDEX.sol:TokenTemplate_v2DirectDEX","label":"dexPair","offset":0,"slot":"12","type":"t_address"},{"astId":2471,"contract":"src/contracts/TokenTemplate_v2DirectDEX.sol:TokenTemplate_v2DirectDEX","label":"marketingFeePercentage","offset":0,"slot":"13","type":"t_uint256"},{"astId":2473,"contract":"src/contracts/TokenTemplate_v2DirectDEX.sol:TokenTemplate_v2DirectDEX","label":"developmentFeePercentage","offset":0,"slot":"14","type":"t_uint256"},{"astId":2475,"contract":"src/contracts/TokenTemplate_v2DirectDEX.sol:TokenTemplate_v2DirectDEX","label":"autoLiquidityFeePercentage","offset":0,"slot":"15","type":"t_uint256"},{"astId":2477,"contract":"src/contracts/TokenTemplate_v2DirectDEX.sol:TokenTemplate_v2DirectDEX","label":"marketingWallet","offset":0,"slot":"16","type":"t_address"},{"astId":2479,"contract":"src/contracts/TokenTemplate_v2DirectDEX.sol:TokenTemplate_v2DirectDEX","label":"developmentWallet","offset":0,"slot":"17","type":"t_address"},{"astId":2481,"contract":"src/contracts/TokenTemplate_v2DirectDEX.sol:TokenTemplate_v2DirectDEX","label":"autoLiquidityWallet","offset":0,"slot":"18","type":"t_address"},{"astId":2488,"contract":"src/contracts/TokenTemplate_v2DirectDEX.sol:TokenTemplate_v2DirectDEX","label":"isExcludedFromAutoLiquidity","offset":0,"slot":"19","type":"t_mapping(t_address,t_bool)"},{"astId":2492,"contract":"src/contracts/TokenTemplate_v2DirectDEX.sol:TokenTemplate_v2DirectDEX","label":"isBlacklisted","offset":0,"slot":"20","type":"t_mapping(t_address,t_bool)"}],"types":{"t_address":{"encoding":"inplace","label":"address","numberOfBytes":"20"},"t_bool":{"encoding":"inplace","label":"bool","numberOfBytes":"1"},"t_mapping(t_address,t_bool)":{"encoding":"mapping","key":"t_address","label":"mapping(address => bool)","numberOfBytes":"32","value":"t_bool"},"t_mapping(t_address,t_mapping(t_address,t_uint256))":{"encoding":"mapping","key":"t_address","label":"mapping(address => mapping(address => uint256))","numberOfBytes":"32","value":"t_mapping(t_address,t_uint256)"},"t_mapping(t_address,t_uint256)":{"encoding":"mapping","key":"t_address","label":"mapping(address => uint256)","numberOfBytes":"32","value":"t_uint256"},"t_string_storage":{"encoding":"bytes","label":"string","numberOfBytes":"32"},"t_uint256":{"encoding":"inplace","label":"uint256","numberOfBytes":"32"}}},"userdoc":{"kind":"user","methods":{},"version":1}}}}