{"src/contracts/TokenFactory_v2_DirectDEX.sol":{"TokenFactory_v2_DirectDEX":{"abi":[{"inputs":[{"internalType":"uint256","name":"_listingFee","type":"uint256"}],"stateMutability":"nonpayable","type":"constructor"},{"anonymous":false,"inputs":[{"indexed":true,"internalType":"address","name":"token","type":"address"},{"indexed":false,"internalType":"uint256","name":"ethAmount","type":"uint256"},{"indexed":false,"internalType":"uint256","name":"tokenAmount","type":"uint256"}],"name":"AutoLiquidityAdded","type":"event"},{"anonymous":false,"inputs":[{"indexed":false,"internalType":"bool","name":"isPaused","type":"bool"}],"name":"AutoLiquidityPaused","type":"event"},{"anonymous":false,"inputs":[{"indexed":false,"internalType":"string","name":"name","type":"string"},{"indexed":false,"internalType":"address","name":"router","type":"address"}],"name":"DEXAdded","type":"event"},{"anonymous":false,"inputs":[{"indexed":false,"internalType":"string","name":"name","type":"string"},{"indexed":false,"internalType":"address","name":"router","type":"address"},{"indexed":false,"internalType":"bool","name":"isActive","type":"bool"}],"name":"DEXUpdated","type":"event"},{"anonymous":false,"inputs":[{"indexed":true,"internalType":"address","name":"token","type":"address"},{"indexed":false,"internalType":"uint256","name":"amount","type":"uint256"}],"name":"EmergencyAutoLiquidityWithdrawn","type":"event"},{"anonymous":false,"inputs":[{"indexed":true,"internalType":"address","name":"previousOwner","type":"address"},{"indexed":true,"internalType":"address","name":"newOwner","type":"address"}],"name":"OwnershipTransferred","type":"event"},{"anonymous":false,"inputs":[{"indexed":true,"internalType":"address","name":"token","type":"address"},{"indexed":true,"internalType":"address","name":"owner","type":"address"},{"indexed":false,"internalType":"string","name":"dexName","type":"string"},{"indexed":false,"internalType":"uint256","name":"initialLiquidity","type":"uint256"},{"indexed":false,"internalType":"uint256","name":"listingPrice","type":"uint256"},{"indexed":false,"internalType":"uint256","name":"tradingStartTime","type":"uint256"}],"name":"TokenListed","type":"event"},{"inputs":[],"name":"AUTO_LIQUIDITY_COOLDOWN","outputs":[{"internalType":"uint256","name":"","type":"uint256"}],"stateMutability":"view","type":"function"},{"inputs":[],"name":"MIN_AUTO_LIQUIDITY_THRESHOLD","outputs":[{"internalType":"uint256","name":"","type":"uint256"}],"stateMutability":"view","type":"function"},{"inputs":[],"name":"VERSION","outputs":[{"internalType":"string","name":"","type":"string"}],"stateMutability":"view","type":"function"},{"inputs":[],"name":"VERSION_HASH","outputs":[{"internalType":"bytes32","name":"","type":"bytes32"}],"stateMutability":"view","type":"function"},{"inputs":[{"internalType":"address","name":"token","type":"address"}],"name":"addAutoLiquidity","outputs":[],"stateMutability":"nonpayable","type":"function"},{"inputs":[{"internalType":"string","name":"name","type":"string"},{"internalType":"address","name":"router","type":"address"}],"name":"addDEX","outputs":[],"stateMutability":"nonpayable","type":"function"},{"inputs":[],"name":"autoLiquidityPaused","outputs":[{"internalType":"bool","name":"","type":"bool"}],"stateMutability":"view","type":"function"},{"inputs":[{"components":[{"internalType":"string","name":"name","type":"string"},{"internalType":"string","name":"symbol","type":"string"},{"internalType":"uint256","name":"totalSupply","type":"uint256"},{"internalType":"uint256","name":"initialLiquidityInETH","type":"uint256"},{"internalType":"uint256","name":"listingPriceInETH","type":"uint256"},{"internalType":"uint256","name":"maxTxAmount","type":"uint256"},{"internalType":"uint256","name":"maxWalletAmount","type":"uint256"},{"internalType":"bool","name":"enableTrading","type":"bool"},{"internalType":"uint256","name":"tradingStartTime","type":"uint256"},{"internalType":"string","name":"dexName","type":"string"},{"internalType":"uint256","name":"marketingFeePercentage","type":"uint256"},{"internalType":"address","name":"marketingWallet","type":"address"},{"internalType":"uint256","name":"developmentFeePercentage","type":"uint256"},{"internalType":"address","name":"developmentWallet","type":"address"},{"internalType":"uint256","name":"autoLiquidityFeePercentage","type":"uint256"}],"internalType":"struct TokenFactory_v2_DirectDEX.ListingParams","name":"params","type":"tuple"}],"name":"createAndListToken","outputs":[],"stateMutability":"payable","type":"function"},{"inputs":[{"internalType":"string","name":"","type":"string"}],"name":"dexRouters","outputs":[{"internalType":"string","name":"name","type":"string"},{"internalType":"address","name":"router","type":"address"},{"internalType":"bool","name":"isActive","type":"bool"}],"stateMutability":"view","type":"function"},{"inputs":[{"internalType":"address","name":"token","type":"address"}],"name":"emergencyWithdrawAutoLiquidity","outputs":[],"stateMutability":"nonpayable","type":"function"},{"inputs":[{"internalType":"string","name":"dexName","type":"string"}],"name":"getDEXRouter","outputs":[{"components":[{"internalType":"string","name":"name","type":"string"},{"internalType":"address","name":"router","type":"address"},{"internalType":"bool","name":"isActive","type":"bool"}],"internalType":"struct TokenFactory_v2_DirectDEX.DEXRouter","name":"","type":"tuple"}],"stateMutability":"view","type":"function"},{"inputs":[],"name":"getListingFee","outputs":[{"internalType":"uint256","name":"","type":"uint256"}],"stateMutability":"view","type":"function"},{"inputs":[],"name":"getSupportedDEXes","outputs":[{"internalType":"string[]","name":"","type":"string[]"}],"stateMutability":"view","type":"function"},{"inputs":[{"internalType":"address","name":"token","type":"address"}],"name":"isListed","outputs":[{"internalType":"bool","name":"","type":"bool"}],"stateMutability":"view","type":"function"},{"inputs":[{"internalType":"address","name":"","type":"address"}],"name":"lastAutoLiquidityTime","outputs":[{"internalType":"uint256","name":"","type":"uint256"}],"stateMutability":"view","type":"function"},{"inputs":[{"internalType":"address","name":"","type":"address"}],"name":"listedTokens","outputs":[{"internalType":"bool","name":"","type":"bool"}],"stateMutability":"view","type":"function"},{"inputs":[],"name":"listingFee","outputs":[{"internalType":"uint256","name":"","type":"uint256"}],"stateMutability":"view","type":"function"},{"inputs":[],"name":"owner","outputs":[{"internalType":"address","name":"","type":"address"}],"stateMutability":"view","type":"function"},{"inputs":[{"internalType":"address","name":"","type":"address"}],"name":"pendingAutoLiquidity","outputs":[{"internalType":"uint256","name":"","type":"uint256"}],"stateMutability":"view","type":"function"},{"inputs":[],"name":"renounceOwnership","outputs":[],"stateMutability":"nonpayable","type":"function"},{"inputs":[{"internalType":"bool","name":"pause","type":"bool"}],"name":"setAutoLiquidityPause","outputs":[],"stateMutability":"nonpayable","type":"function"},{"inputs":[{"internalType":"uint256","name":"_newFee","type":"uint256"}],"name":"setListingFee","outputs":[],"stateMutability":"nonpayable","type":"function"},{"inputs":[{"internalType":"uint256","name":"","type":"uint256"}],"name":"supportedDEXes","outputs":[{"internalType":"string","name":"","type":"string"}],"stateMutability":"view","type":"function"},{"inputs":[{"internalType":"address","name":"","type":"address"}],"name":"tokenDEX","outputs":[{"internalType":"string","name":"","type":"string"}],"stateMutability":"view","type":"function"},{"inputs":[{"internalType":"address","name":"newOwner","type":"address"}],"name":"transferOwnership","outputs":[],"stateMutability":"nonpayable","type":"function"},{"inputs":[{"internalType":"string","name":"name","type":"string"},{"internalType":"address","name":"router","type":"address"},{"internalType":"bool","name":"isActive","type":"bool"}],"name":"updateDEX","outputs":[],"stateMutability":"nonpayable","type":"function"},{"inputs":[],"name":"withdrawFees","outputs":[],"stateMutability":"nonpayable","type":"function"}],"devdoc":{"kind":"dev","methods":{"owner()":{"details":"Returns the address of the current owner."},"renounceOwnership()":{"details":"Leaves the contract without owner. It will not be possible to call `onlyOwner` functions. Can only be called by the current owner. NOTE: Renouncing ownership will leave the contract without an owner, thereby disabling any functionality that is only available to the owner."},"transferOwnership(address)":{"details":"Transfers ownership of the contract to a new account (`newOwner`). Can only be called by the current owner."}},"version":1},"evm":{"bytecode":{"linkReferences":{},"object":"60803461009b57601f61414b38819003918201601f19168301916001600160401b038311848410176100a05780849260209460405283398101031261009b575160008054336001600160a01b0319821681178355604051939290916001600160a01b0316907f8be0079c531659141344cd1fd0a4f28419497f9722a3daafe3b4186f6b6457e09080a36001805560065561409490816100b78239f35b600080fd5b634e487b7160e01b600052604160045260246000fdfe608060405260043610156200001357600080fd5b6000803560e01c8063131dbd09146200196357806324b2982f14620016cc57806329df0db314620016ac57806334e62a91146200166f578063386e07bf1462001571578063476343ee146200151b578063497626bc14620014f65780634caf81f5146200149e5780635e7ffa6714620013fb57806361b9d4e314620013055780636a1b7ecc1462000a9f5780637093f47f146200019e578063715018a614620012a757806378e3399d14620011ca5780638da5cb5b14620011a157806394395b971462000e08578063961867701462000b5857806398a7d76e1462000b165780639e4e73181462000abf578063b8fe6abe1462000a9f578063c18f24d61462000382578063c7760305146200035e578063f2fde38b146200028c578063f53819e7146200021e578063f62aa78514620001e1578063f794062e146200019e5763ffa1ad74146200016257600080fd5b346200019b57806003193601126200019b57620001976200018262001c0e565b60405191829160208352602083019062001a0d565b0390f35b80fd5b50346200019b5760203660031901126200019b5760209060ff906040906001600160a01b03620001cd620019d1565b168152600484522054166040519015158152f35b50346200019b5760203660031901126200019b576020906040906001600160a01b036200020d620019d1565b168152600883522054604051908152f35b50346200019b5760203660031901126200019b57600435801515809103620002875760207fdeecdb5b2836e913f447ec910ca64a5a740262b60dfc4c04d1449cb2a5d76586916200026e62001e70565b60ff196009541660ff821617600955604051908152a180f35b600080fd5b50346200019b5760203660031901126200019b57620002aa620019d1565b620002b462001e70565b6001600160a01b039081169081156200030a57600054826bffffffffffffffffffffffff60a01b821617600055167f8be0079c531659141344cd1fd0a4f28419497f9722a3daafe3b4186f6b6457e0600080a380f35b60405162461bcd60e51b815260206004820152602660248201527f4f776e61626c653a206e6577206f776e657220697320746865207a65726f206160448201526564647265737360d01b6064820152608490fd5b50346200019b57806003193601126200019b576020604051662386f26fc100008152f35b5060031960203682011262000a9b576001600160401b036004351162000a9b576101e0600435600401916004353603011262000a9b57620003c262001ec9565b606490620003d860065483600435013562001cfc565b341062000a655760ff60016020620003f7610124600435018562001e26565b919082604051938492833781016002815203019020015460a01c161562000a2e57610144600435013515158062000a0b575b15620009c8576101846004350135151580620009a5575b1562000957576101c460043501351562000907576019620004826101c460043501356200047c6101846004350135610144600435013562001cfc565b62001cfc565b11620008ce5760016200049c610124600435018362001e26565b60405192918190843782019160028352602081838060a01b03940301902001541690620004ca818062001e26565b90620004dc6024600435018462001e26565b60043560e4013592918315158403620008ca57620005006101646004350162001e5b565b91620005126101a46004350162001e5b565b93604051968761213e8101106001600160401b0361213e8a011117620008b657916200055e889796959492620005759461213e62001f218b396101c061213e8b01818152019162001c9b565b9161213e88018303602061213e8a01015262001c9b565b600435604481013561213e8701604081019190915260a4820135606082015260c4820135608082015294151560a086015261010481013560c086015260e085018990526101448101356101008601526101848101356101208601526101c401356101408501526001600160a01b039182166101608501529116610180830152306101a090920191909152039085f08015620008ab57601460446004350135818102918183041490151715620008975760405163095ea7b360e01b81526001600160a01b03858116600483015291869004602482018190529290911693906020816044818a895af180156200088c5762000856575b5061012c420191824211620008425760405163f305d71960e01b81526001600160a01b03861660048201526024810191909152600060448201819052606482015230608482015260a48101929092526060908290818060c481010391886004350135905af18015620007fd576200080c575b50813b15620008085760405163f2fde38b60e01b8152336004820152848160248183875af18015620007fd57620007c9575b5062000798620007837f52b537b7efd09a072d62379791a3f242c784095aa9e11dbba910b624ecec68b892848752600460205260408720600160ff198254161790556200077562000765610124600435018362001e26565b90600560205260408a2062001d56565b610124600435019062001e26565b91906040519260808452608084019162001c9b565b9360043501356020820152608460043501356040820152610104600435013560608201528033940390a36001805580f35b6001600160401b038195929511620007e95760405292620007986200070d565b634e487b7160e01b82526041600452602482fd5b6040513d87823e3d90fd5b8380fd5b620008329060603d6060116200083a575b62000829818362001af1565b81019062001d3a565b5050620006db565b503d6200081d565b634e487b7160e01b87526011600452602487fd5b6200087c9060203d60201162000884575b62000873818362001af1565b81019062001d20565b503862000669565b503d62000867565b6040513d89823e3d90fd5b634e487b7160e01b86526011600452602486fd5b6040513d86823e3d90fd5b634e487b7160e01b8c52604160045260248cfd5b8880fd5b5060405162461bcd60e51b81526020600482015260136024820152720a8dee8c2d840cccacae640e8dede40d0d2ced606b1b6044820152fd5b60405162461bcd60e51b8152602060048201526024808201527f496e76616c6964206175746f2d6c697175696469747920636f6e6669677572616044820152633a34b7b760e11b81840152608490fd5b60405162461bcd60e51b815260206004820152602160248201527f496e76616c696420646576656c6f706d656e7420636f6e66696775726174696f6044820152603760f91b81840152608490fd5b506001600160a01b03620009bf6004356101a40162001e5b565b16151562000440565b5060405162461bcd60e51b815260206004820152601f60248201527f496e76616c6964206d61726b6574696e6720636f6e66696775726174696f6e006044820152fd5b506001600160a01b0362000a256004356101640162001e5b565b16151562000429565b5060405162461bcd60e51b8152602060048201526011602482015270444558206e6f7420617661696c61626c6560781b6044820152fd5b5060405162461bcd60e51b815260206004820152601060248201526f092dce6eaccccd2c6d2cadce8408aa8960831b6044820152fd5b5080fd5b50346200019b57806003193601126200019b576020600654604051908152f35b50346200019b57806003193601126200019b57602062000ade62001c0e565b60405162000b0b83828162000afd8183019687815193849201620019e8565b810103808452018262001af1565b519020604051908152f35b50346200019b5760203660031901126200019b57620001979062000182906040906001600160a01b0362000b49620019d1565b16815260056020522062001b13565b50346200019b5760403660031901126200019b576001600160401b039060043582811162000a9b5762000b909036906004016200198a565b62000b9a620019ba565b62000ba462001e70565b604051809183858337838201966002885260018060a01b038098600194859160209788910301902001541662000dce576040519762000be38962001abf565b62000bf036878962001bc4565b895280858a019316988984526040810192858452604051888a823787818a810160028152030190209151805191821162000dba5790829162000c408262000c398a965462001a82565b8562001c40565b88908c601f841160011462000d53579183929162000c739462000d47575b50508160011b916000199060031b1c19161790565b81555b0192511682549160ff60a01b9051151560a01b16916affffffffffffffffffffff60a81b1617179055600354906801000000000000000082101562000d3357810160035562000cc59062001a34565b95909562000d1f5762000cfc83857fdc80caac0fc930b05b1b5c1f27f1b45d60b2fa42a563cfaa28619f76da9efccc979862001d56565b62000d1560405194859460408652604086019162001c9b565b918301520390a180f35b634e487b7160e01b85526004859052602485fd5b634e487b7160e01b86526041600452602486fd5b01519050388062000c5e565b9190601f1984168584528b8420935b8c82821062000da3575050908487959493921062000d89575b505050811b01815562000c76565b015160001960f88460031b161c1916905538808062000d7b565b8385015186558c9890950194938401930162000d62565b634e487b7160e01b8b52604160045260248bfd5b60405162461bcd60e51b815260048101859052601260248201527144455820616c72656164792065786973747360701b6044820152606490fd5b50346200019b57602090816003193601126200019b5762000e28620019d1565b9162000e3362001ec9565b60ff600954166200115d576001600160a01b038381168084526004835260408420549092919062000e679060ff1662001cbc565b82845260078252604084205462015180810180911162001149574210620011125782845260088252662386f26fc10000604085205410620010db57828452600882526040842090848254925560058352600162000ee08462000ecc6040892062001b13565b8160405193828580945193849201620019e8565b81016002815203019020015416604051906370a0823160e01b82523060048301528382602481885afa91821562001030578692620010a2575b5081156200105d5760405163095ea7b360e01b81526001600160a01b03821660048201526024810183905284816044818a8a5af180156200088c576200103b575b5061012c420196874211620008425760405163f305d71960e01b81526001600160a01b0391909116600482015260248101839052600060448201819052606482015230608482015260a481019790975294959394606090859060c490829086905af192831562001030577fa3dc3c61726a3dcbfbf5e604e78601d94669869d8c674de770969de80d7aff12946040946200100c575b508587526007815242848820558351928352820152a26001805580f35b620010289060603d6060116200083a5762000829818362001af1565b505062000fef565b6040513d88823e3d90fd5b6200105590853d8711620008845762000873818362001af1565b503862000f5a565b60405162461bcd60e51b815260048101859052601760248201527f4e6f20746f6b656e7320666f72206c69717569646974790000000000000000006044820152606490fd5b9091508381813d8311620010d3575b620010bd818362001af1565b81010312620010cf5751903862000f19565b8580fd5b503d620010b1565b60405162461bcd60e51b815260048101839052600f60248201526e10995b1bddc81d1a1c995cda1bdb19608a1b6044820152606490fd5b60405162461bcd60e51b815260048101839052600f60248201526e436f6f6c646f776e2061637469766560881b6044820152606490fd5b634e487b7160e01b85526011600452602485fd5b6064906040519062461bcd60e51b82526004820152601860248201527f4175746f2d6c69717569646974792069732070617573656400000000000000006044820152fd5b50346200019b57806003193601126200019b57546040516001600160a01b039091168152602090f35b50346200019b5760208060031936011262000a9b576004356001600160401b038111620012a35791816200120560609436906004016200198a565b9260408051620012158162001abf565b878152828582015201528260405193849283378101600281520301902090600160405192620012448462001abf565b6200124f8162001b13565b8452015460018060a01b036200128f83850193828416855260ff604087019460a01c16151584526040519687968288525191870152608086019062001a0d565b925116604084015251151560608301520390f35b8280fd5b50346200019b57806003193601126200019b57620012c462001e70565b80546001600160a01b03198116825581906001600160a01b03167f8be0079c531659141344cd1fd0a4f28419497f9722a3daafe3b4186f6b6457e08280a380f35b50346200019b5760208060031936011262000a9b5762001324620019d1565b6200132e62001e70565b6001600160a01b03908116808452600483526040842054909290620013569060ff1662001cbc565b828452600881526040842054918215620013bf578480808581948883526008875282604081205582541682f115620013b4577f5e611ef8160e562940cc0953aa9ce7048ae3395a4aa42242b7f7751e7f9be12c91604051908152a280f35b6040513d85823e3d90fd5b60405162461bcd60e51b81526004810183905260146024820152734e6f2070656e64696e67206c697175696469747960601b6044820152606490fd5b50346200019b5760203660031901126200019b57600435906001600160401b0382116200019b57366023830112156200019b576200147d6200144c602062000ecc3660048701356024880162001bc4565b810160028152030190206001620014638262001b13565b91015460ff60405193849360608552606085019062001a0d565b6001600160a01b038316602085015260a09290921c16151560408301520390f35b50346200019b5760203660031901126200019b5760043560035481101562000a9b57620014cb9062001a34565b919091620014e25762000197620001828362001b13565b634e487b7160e01b81526004819052602490fd5b50346200019b57806003193601126200019b57602060ff600954166040519015158152f35b50346200019b57806003193601126200019b576200153862001e70565b8080808060018060a01b03815416479082821562001567575bf1156200155b5780f35b604051903d90823e3d90fd5b506108fc62001551565b50346200019b57806003193601126200019b576003546001600160401b038111620007e9579060209160405191620015af848360051b018462001af1565b8183526003815283830191817fc2575a0e9e593c00f959f8c92f12db2869c3395a3b0502d05e2516446f71f85b845b838310620016485750505050604051928484019085855251809152604084019460408260051b8601019392955b828710620016195785850386f35b90919293828062001637600193603f198a8203018652885162001a0d565b96019201960195929190926200160b565b60018881926200165c859b9a989b62001b13565b81520192019201919096939596620015de565b50346200019b5760203660031901126200019b576020906040906001600160a01b036200169b620019d1565b168152600783522054604051908152f35b50346200019b57806003193601126200019b576020604051620151808152f35b50346200019b5760603660031901126200019b576001600160401b039060043582811162000a9b57620017049036906004016200198a565b6200170e620019ba565b60443580151581036200195f576200172562001e70565b6040518385823760028185019081528190036020019020600101546001600160a01b0316156200192a576040516200175d8162001abf565b6200176a36858762001bc4565b81526001600160a01b038316602082015281151560408083019190915251848682376020818681016002815203019020815180519889116200191657620017be89620017b7845462001a82565b8462001c40565b602090601f8a11600114620018865789899a6001949362001816937ffcc670ef83a2ab18fa316fd1535402582ad1c325995f34b0f96faeb21d0ef9eb9c9262000d475750508160011b916000199060031b1c19161790565b81555b019060018060a01b03602082015116825491604060ff60a01b910151151560a01b16916affffffffffffffffffffff60a81b16171790556200186960405194859460608652606086019162001c9b565b6001600160a01b039092166020840152151560408301520390a180f35b908289526020892091895b601f198c168110620018fd5750996001939284927ffcc670ef83a2ab18fa316fd1535402582ad1c325995f34b0f96faeb21d0ef9eb9b9c83601f19811610620018e3575b505050811b01815562001819565b015160001960f88460031b161c19169055388080620018d5565b9192602060018192868501518155019401920162001891565b634e487b7160e01b88526041600452602488fd5b60405162461bcd60e51b815260206004820152600d60248201526c111156081b9bdd08199bdd5b99609a1b6044820152606490fd5b8480fd5b50346200019b5760203660031901126200019b576200198162001e70565b60043560065580f35b9181601f8401121562000287578235916001600160401b0383116200028757602083818601950101116200028757565b602435906001600160a01b03821682036200028757565b600435906001600160a01b03821682036200028757565b60005b838110620019fc5750506000910152565b8181015183820152602001620019eb565b9060209162001a2881518092818552858086019101620019e8565b601f01601f1916010190565b60035481101562001a6c5760036000527fc2575a0e9e593c00f959f8c92f12db2869c3395a3b0502d05e2516446f71f85b0190600090565b634e487b7160e01b600052603260045260246000fd5b90600182811c9216801562001ab4575b602083101462001a9e57565b634e487b7160e01b600052602260045260246000fd5b91607f169162001a92565b606081019081106001600160401b0382111762001adb57604052565b634e487b7160e01b600052604160045260246000fd5b90601f801991011681019081106001600160401b0382111762001adb57604052565b9060405191826000825462001b288162001a82565b9081845260209460019160018116908160001462001ba0575060011462001b5d575b50505062001b5b9250038362001af1565b565b600090815285812095935091905b81831062001b8757505062001b5b935082010138808062001b4a565b8554888401850152948501948794509183019162001b6b565b9250505062001b5b94925060ff191682840152151560051b82010138808062001b4a565b9291926001600160401b03821162001adb576040519162001bf0601f8201601f19166020018462001af1565b82948184528183011162000287578281602093846000960137010152565b60405190604082018281106001600160401b0382111762001adb5760405260058252640322e302e360dc1b6020830152565b90601f811162001c4f57505050565b6000916000526020600020906020601f850160051c8301941062001c90575b601f0160051c01915b82811062001c8457505050565b81815560010162001c77565b909250829062001c6e565b908060209392818452848401376000828201840152601f01601f1916010190565b1562001cc457565b60405162461bcd60e51b815260206004820152601060248201526f151bdad95b881b9bdd081b1a5cdd195960821b6044820152606490fd5b9190820180921162001d0a57565b634e487b7160e01b600052601160045260246000fd5b908160209103126200028757518015158103620002875790565b9081606091031262000287578051916040602083015192015190565b9092916001600160401b03811162001adb5762001d7981620017b7845462001a82565b6000601f821160011462001dbd57819062001dad93949560009262001db15750508160011b916000199060031b1c19161790565b9055565b01359050388062000c5e565b601f19821694838252602091602081209281905b88821062001e0d5750508360019596971062001df2575b505050811b019055565b0135600019600384901b60f8161c1916905538808062001de8565b8060018496829495870135815501950192019062001dd1565b903590601e19813603018212156200028757018035906001600160401b03821162000287576020019181360383136200028757565b356001600160a01b0381168103620002875790565b6000546001600160a01b0316330362001e8557565b606460405162461bcd60e51b815260206004820152602060248201527f4f776e61626c653a2063616c6c6572206973206e6f7420746865206f776e65726044820152fd5b60026001541462001edb576002600155565b60405162461bcd60e51b815260206004820152601f60248201527f5265656e7472616e637947756172643a207265656e7472616e742063616c6c006044820152606490fdfe6080604052346200084d576200213e803803806200001d8162000852565b9283398101906101c0818303126200084d5780516001600160401b0381116200084d57826200004e91830162000878565b602082015190926001600160401b0382116200084d576200007191830162000878565b9160408201519160608101519260808201519460a08301519586151587036200084d5760c0840151620000a760e08601620008ea565b92610100860151906101208701519261014088015194620000cc6101608a01620008ea565b92620000eb6101a0620000e36101808d01620008ea565b9b01620008ea565b8b51909b6001600160401b0382116200071c5760035490600182811c9216801562000842575b6020831014620006fb5781601f849311620007cd575b50602090601f83116001146200073e5760009262000732575b50508160011b916000199060031b1c1916176003555b8051906001600160401b0382116200071c5760045490600182811c9216801562000711575b6020831014620006fb5781601f84931162000689575b50602090601f8311600114620005fa57600092620005ee575b50508160011b916000199060031b1c1916176004555b620001cb3362000923565b600160065587156200059d57878b116200053e57878111620004e45760196200020087620001fa8888620008ff565b620008ff565b116200049f576001600160a01b039283169889156200044a578316998a15620003f35783169a8b1562000399573315620003545788620002448d9a600254620008ff565b600255336000526000602052604060002081815401905560405190815260007fddf252ad1be2c89b69c2b068fc378daa952ba7f163c4a11628f55a4df523b3ef60203393a3600955600a5560ff199a60ff8c60075416911515161760075560085560018060a01b0319941684600b541617600b55600d55600e55600f55828160105416176010558381601154161760115560125416176012553360005260136020526040600020600185825416179055306000526040600020600185825416179055600052604060002060018482541617905560005260406000206001838254161790556000526001604060002091825416179055620003443362000923565b6040516117d190816200096d8239f35b60405162461bcd60e51b815260206004820152601f60248201527f45524332303a206d696e7420746f20746865207a65726f2061646472657373006044820152606490fd5b60405162461bcd60e51b815260206004820152602c60248201527f4175746f2d6c69717569646974792077616c6c65742063616e6e6f742062652060448201526b7a65726f206164647265737360a01b6064820152608490fd5b60405162461bcd60e51b815260206004820152602960248201527f446576656c6f706d656e742077616c6c65742063616e6e6f74206265207a65726044820152686f206164647265737360b81b6064820152608490fd5b60405162461bcd60e51b815260206004820152602760248201527f4d61726b6574696e672077616c6c65742063616e6e6f74206265207a65726f206044820152666164647265737360c81b6064820152608490fd5b60405162461bcd60e51b815260206004820152601c60248201527f546f74616c20666565732063616e6e6f742065786365656420323525000000006044820152606490fd5b60405162461bcd60e51b815260206004820152602c60248201527f4d61782077616c6c657420616d6f756e742063616e6e6f74206578636565642060448201526b746f74616c20737570706c7960a01b6064820152608490fd5b60405162461bcd60e51b815260206004820152603160248201527f4d6178207472616e73616374696f6e20616d6f756e742063616e6e6f742065786044820152706365656420746f74616c20737570706c7960781b6064820152608490fd5b60405162461bcd60e51b815260206004820152602360248201527f546f74616c20737570706c79206d75737420626520677265617465722074686160448201526206e20360ec1b6064820152608490fd5b015190503880620001aa565b6004600090815293507f8a35acfbc15ff81a39ae7d344fd709f28e8600b4aa8c65c6b64bfe7fe36bd19b91905b601f19841685106200066d576001945083601f1981161062000653575b505050811b01600455620001c0565b015160001960f88460031b161c1916905538808062000644565b8181015183556020948501946001909301929091019062000627565b60046000529091507f8a35acfbc15ff81a39ae7d344fd709f28e8600b4aa8c65c6b64bfe7fe36bd19b601f840160051c810160208510620006f3575b90849392915b601f830160051c82018110620006e357505062000191565b60008155859450600101620006cb565b5080620006c5565b634e487b7160e01b600052602260045260246000fd5b91607f16916200017b565b634e487b7160e01b600052604160045260246000fd5b01519050388062000140565b6003600090815293507fc2575a0e9e593c00f959f8c92f12db2869c3395a3b0502d05e2516446f71f85b91905b601f1984168510620007b1576001945083601f1981161062000797575b505050811b0160035562000156565b015160001960f88460031b161c1916905538808062000788565b818101518355602094850194600190930192909101906200076b565b60036000529091507fc2575a0e9e593c00f959f8c92f12db2869c3395a3b0502d05e2516446f71f85b601f840160051c8101916020851062000837575b90601f859493920160051c01905b81811062000827575062000127565b6000815584935060010162000818565b90915081906200080a565b91607f169162000111565b600080fd5b6040519190601f01601f191682016001600160401b038111838210176200071c57604052565b919080601f840112156200084d5782516001600160401b0381116200071c57602090620008ae601f8201601f1916830162000852565b928184528282870101116200084d5760005b818110620008d657508260009394955001015290565b8581018301518482018401528201620008c0565b51906001600160a01b03821682036200084d57565b919082018092116200090d57565b634e487b7160e01b600052601160045260246000fd5b600580546001600160a01b039283166001600160a01b0319821681179092559091167f8be0079c531659141344cd1fd0a4f28419497f9722a3daafe3b4186f6b6457e0600080a356fe608060408181526004918236101561001657600080fd5b600092833560e01c91826306fdde0314610d92575081630758d92414610d69578163095ea7b314610d3f5781630c439f9314610d16578163153b0d1e14610c9657816318160ddd14610c7757816323b872dd14610bad57816327a14fc214610b46578163313ce56714610b2a5781633950935114610ada5781634ada218b14610ab65781635e29879014610a97578163606e1b8114610a7a57816370a0823114610a3757816370b7b80c14610a18578163715018a6146109bb57816375cb1bd1146108de57816375f0a874146108b557816380ada68a146108965781638a8c523c146107df5781638c0b5e22146107c05781638da5cb5b1461079757816395d89b41146106925781639e4e7318146106575781639f7b0ed514610614578163a457c2d71461056c578163a9059cbb1461053b578163aa4bde281461051c578163c04a5414146104f3578163c1a68121146104b5578163dd62ed3e1461046c578163de37610e1461044d578163e9dae5ed14610382578163ec28438a1461031b578163f242ab41146102f2578163f2fde38b1461022257508063fe575a87146101e55763ffa1ad74146101c757600080fd5b346101e157816003193601126101e1576020905160028152f35b5080fd5b50346101e15760203660031901126101e15760209160ff9082906001600160a01b0361020f610ed0565b1681526014855220541690519015158152f35b9050346102ee5760203660031901126102ee5761023d610ed0565b9061024661116d565b6001600160a01b0391821692831561029c575050600554826bffffffffffffffffffffffff60a01b821617600555167f8be0079c531659141344cd1fd0a4f28419497f9722a3daafe3b4186f6b6457e08380a380f35b906020608492519162461bcd60e51b8352820152602660248201527f4f776e61626c653a206e6577206f776e657220697320746865207a65726f206160448201526564647265737360d01b6064820152fd5b8280fd5b5050346101e157816003193601126101e157600c5490516001600160a01b039091168152602090f35b9050346102ee5760203660031901126102ee577f947f344d56e1e8c70dc492fb94c4ddddd490c016aab685f5e7e47b2e85cb44cf91602091359061035d61116d565b610368821515610fa6565b610376600254831115610ff2565b8160095551908152a180f35b839150346101e15760603660031901126101e157803560243590604435926103a861116d565b60196103bd856103b88686611048565b611048565b1161040a57506104017f08a9cbb7bd5bab504d3fc44931790235ee0c3011feecaa62967a37e3f934146b936103b8602094848995600d5581600e5583600f55611048565b9051908152a180f35b606490602087519162461bcd60e51b8352820152601c60248201527f546f74616c20666565732063616e6e6f742065786365656420323525000000006044820152fd5b5050346101e157816003193601126101e157602090600f549051908152f35b5050346101e157806003193601126101e1578060209261048a610ed0565b610492610eeb565b6001600160a01b0391821683526001865283832091168252845220549051908152f35b5050346101e15760203660031901126101e15760209160ff9082906001600160a01b036104e0610ed0565b1681526013855220541690519015158152f35b5050346101e157816003193601126101e15760115490516001600160a01b039091168152602090f35b5050346101e157816003193601126101e157602090600a549051908152f35b5050346101e157806003193601126101e15760209061056561055b610ed0565b60243590336111d8565b5160018152f35b90508234610611578260031936011261061157610587610ed0565b918360243592338152600160205281812060018060a01b03861682526020522054908282106105c057602085610565858503873361106b565b608490602086519162461bcd60e51b8352820152602560248201527f45524332303a2064656372656173656420616c6c6f77616e63652062656c6f77604482015264207a65726f60d81b6064820152fd5b80fd5b5050346101e1576106549061062836610f01565b919061063261116d565b60018060a01b03168452601360205283209060ff801983541691151516179055565b80f35b5050346101e157816003193601126101e157602090517f97831d354a6f8b80f2034ecb74ded90addda670141f845b47bcbb8c109be18a28152f35b8383346101e157816003193601126101e15780519180938054916001908360011c926001851694851561078d575b602095868610811461077a5785895290811561075657506001146106fe575b6106fa87876106f0828c0383610f30565b5191829182610e87565b0390f35b81529295507f8a35acfbc15ff81a39ae7d344fd709f28e8600b4aa8c65c6b64bfe7fe36bd19b5b82841061074357505050826106fa946106f0928201019486806106df565b8054868501880152928601928101610725565b60ff19168887015250505050151560051b83010192506106f0826106fa86806106df565b634e487b7160e01b845260228352602484fd5b93607f16936106c0565b5050346101e157816003193601126101e15760055490516001600160a01b039091168152602090f35b5050346101e157816003193601126101e1576020906009549051908152f35b9050346102ee57826003193601126102ee576107f961116d565b6007549060ff8216610853575060ff19166001176007556008547fb3da2db3dfc3778f99852546c6e9ab39ec253f9de7b0847afec61bd27878e923916020911561084a575b6008549051908152a180f35b4260085561083e565b606490602084519162461bcd60e51b8352820152601760248201527f54726164696e6720616c726561647920656e61626c65640000000000000000006044820152fd5b5050346101e157816003193601126101e157602090600d549051908152f35b5050346101e157816003193601126101e15760105490516001600160a01b039091168152602090f35b5050346101e15760603660031901126101e1576108f9610ed0565b610901610eeb565b916001600160a01b039060443582811691908290036109b7577f2d4c6aa48812a0ea09474a961613c1a3ae652d39a1580cb1ac46ff277e6d385d94828460609661094961116d565b1694851515806109ac575b806109a3575b61096390610f68565b6bffffffffffffffffffffffff60a01b9286846010541617601055169182816011541617601155601254161760125581519384526020840152820152a180f35b5081151561095a565b508083161515610954565b8580fd5b83346106115780600319360112610611576109d461116d565b600580546001600160a01b0319811690915581906001600160a01b03167f8be0079c531659141344cd1fd0a4f28419497f9722a3daafe3b4186f6b6457e08280a380f35b5050346101e157816003193601126101e1576020906008549051908152f35b5050346101e15760203660031901126101e157602090610a73610a58610ed0565b6001600160a01b031660009081526020819052604090205490565b9051908152f35b5050346101e157816003193601126101e157602090516103e88152f35b5050346101e157816003193601126101e157602090600e549051908152f35b5050346101e157816003193601126101e15760209060ff6007541690519015158152f35b5050346101e157806003193601126101e157610565602092610b23610afd610ed0565b338352600186528483206001600160a01b03821684528652918490205460243590611048565b903361106b565b5050346101e157816003193601126101e1576020905160128152f35b9050346102ee5760203660031901126102ee577f4b39c36d20c57d220f61fd25c4349d4435cc03ef6c2a680942f15333c3c3e001916020913590610b8861116d565b610b93821515610fa6565b610ba1600254831115610ff2565b81600a5551908152a180f35b839150346101e15760603660031901126101e157610bc9610ed0565b610bd1610eeb565b91846044359460018060a01b038416815260016020528181203382526020522054906000198203610c0b575b6020866105658787876111d8565b848210610c345750918391610c29602096956105659503338361106b565b919394819350610bfd565b606490602087519162461bcd60e51b8352820152601d60248201527f45524332303a20696e73756666696369656e7420616c6c6f77616e63650000006044820152fd5b5050346101e157816003193601126101e1576020906002549051908152f35b5050346101e1577f6a12b3df6cba4203bd7fd06b816789f87de8c594299aed5717ae070fac781bac90610cc836610f01565b90610cd161116d565b6001600160a01b031690610ce6821515610f68565b8185526014602052610d06818487209060ff801983541691151516179055565b825191825215156020820152a180f35b5050346101e157816003193601126101e15760125490516001600160a01b039091168152602090f35b5050346101e157806003193601126101e157602090610565610d5f610ed0565b602435903361106b565b5050346101e157816003193601126101e157600b5490516001600160a01b039091168152602090f35b92915034610e835783600319360112610e8357600354600181811c9186908281168015610e79575b6020958686108214610e665750848852908115610e445750600114610deb575b6106fa86866106f0828b0383610f30565b929550600383527fc2575a0e9e593c00f959f8c92f12db2869c3395a3b0502d05e2516446f71f85b5b828410610e3157505050826106fa946106f0928201019438610dda565b8054868501880152928601928101610e14565b60ff191687860152505050151560051b83010192506106f0826106fa38610dda565b634e487b7160e01b845260229052602483fd5b93607f1693610dba565b8380fd5b6020808252825181830181905290939260005b828110610ebc57505060409293506000838284010152601f8019910116010190565b818101860151848201604001528501610e9a565b600435906001600160a01b0382168203610ee657565b600080fd5b602435906001600160a01b0382168203610ee657565b6040906003190112610ee6576004356001600160a01b0381168103610ee657906024358015158103610ee65790565b90601f8019910116810190811067ffffffffffffffff821117610f5257604052565b634e487b7160e01b600052604160045260246000fd5b15610f6f57565b60405162461bcd60e51b815260206004820152600f60248201526e496e76616c6964206164647265737360881b6044820152606490fd5b15610fad57565b60405162461bcd60e51b815260206004820152601d60248201527f416d6f756e74206d7573742062652067726561746572207468616e20300000006044820152606490fd5b15610ff957565b60405162461bcd60e51b815260206004820152602160248201527f416d6f756e742063616e6e6f742065786365656420746f74616c20737570706c6044820152607960f81b6064820152608490fd5b9190820180921161105557565b634e487b7160e01b600052601160045260246000fd5b6001600160a01b0390811691821561111c57169182156110cc5760207f8c5be1e5ebec7d5bd14f71427d1e84f3dd0314c0f7b2291e5b200ac8c7c3b925918360005260018252604060002085600052825280604060002055604051908152a3565b60405162461bcd60e51b815260206004820152602260248201527f45524332303a20617070726f766520746f20746865207a65726f206164647265604482015261737360f01b6064820152608490fd5b60405162461bcd60e51b8152602060048201526024808201527f45524332303a20617070726f76652066726f6d20746865207a65726f206164646044820152637265737360e01b6064820152608490fd5b6005546001600160a01b0316330361118157565b606460405162461bcd60e51b815260206004820152602060248201527f4f776e61626c653a2063616c6c6572206973206e6f7420746865206f776e65726044820152fd5b8181029291811591840414171561105557565b92919060009360018060a01b0394858216958682526020906014825260ff604091818386205416158061161b575b156115e157816007541680156115d4575b80156115c5575b1561158b5760085480611545575b5060095480151580611531575b8061151b575b6114cb575b50600a54801515806114b5575b611451575b5080600c541681881690808214908115611447575b50611284575b50505050505061128293945061162d565b565b859a606461129a600d9b999b989798548a6111c5565b049360646112aa600e548b6111c5565b049760646112ba600f548c6111c5565b04956112ca876103b88c84611048565b998d8b61130d575b505050505050505050505081039081116112f9576112829394509184933880808080611271565b634e487b7160e01b85526011600452602485fd5b61132b926113209189601054169061162d565b60115487168e61162d565b8515159283611432575b508261141c575b505061134e575b80808080808d6112d2565b61135d8383601254168b61162d565b81600c541614806113f0575b611374575b80611343565b60125416803b15610e8357604484928451958693849263d3f2036b60e01b845230600485015260011c60248401525af180156113e6576113b7575b80889261136e565b67ffffffffffffffff82989398116113d257529438806113af565b634e487b7160e01b83526041600452602483fd5b81513d8a823e3d90fd5b506103e8611415826012541660018060a01b0316600052600060205260406000205490565b1015611369565b601391925083885252848620541615388061133c565b88526013815286882054821615925038611335565b90508b143861126b565b81881686528585526114668985882054611048565b116114715738611256565b825162461bcd60e51b815260048101859052601960248201527f45786365656473206d61782077616c6c657420616d6f756e74000000000000006044820152606490fd5b5081881686526013855282848720541615611251565b88116114d75738611244565b825162461bcd60e51b815260048101859052601e60248201527f45786365656473206d6178207472616e73616374696f6e20616d6f756e7400006044820152606490fd5b508188168652601385528284872054161561123f565b508a86526013855282848720541615611239565b4210611551573861122c565b825162461bcd60e51b8152600481018590526013602482015272151c98591a5b99c81b9bdd081cdd185c9d1959606a1b6044820152606490fd5b825162461bcd60e51b8152600481018590526013602482015272151c98591a5b99c81b9bdd08195b98589b1959606a1b6044820152606490fd5b5080600554168188161461121e565b5080600554168a14611217565b825162461bcd60e51b8152600481018590526013602482015272426c61636b6c6973746564206164647265737360681b6044820152606490fd5b50808716855281838620541615611206565b6001600160a01b0390811691821561174857169182156116f7576000828152806020526040812054918083106116a357604082827fddf252ad1be2c89b69c2b068fc378daa952ba7f163c4a11628f55a4df523b3ef958760209652828652038282205586815220818154019055604051908152a3565b60405162461bcd60e51b815260206004820152602660248201527f45524332303a207472616e7366657220616d6f756e7420657863656564732062604482015265616c616e636560d01b6064820152608490fd5b60405162461bcd60e51b815260206004820152602360248201527f45524332303a207472616e7366657220746f20746865207a65726f206164647260448201526265737360e81b6064820152608490fd5b60405162461bcd60e51b815260206004820152602560248201527f45524332303a207472616e736665722066726f6d20746865207a65726f206164604482015264647265737360d81b6064820152608490fdfea2646970667358221220d3a65f5d02620f4bb67abbd0652ba30192260479c7a42773ff99503ab18997e164736f6c63430008160033a2646970667358221220e8f7b78ad9192fd9945dcba4cf262b823caec0a2356145f04d824b19b5dddda764736f6c63430008160033","opcodes":"PUSH1 0x80 CALLVALUE PUSH2 0x9B JUMPI PUSH1 0x1F PUSH2 0x414B CODESIZE DUP2 SWAP1 SUB SWAP2 DUP3 ADD PUSH1 0x1F NOT AND DUP4 ADD SWAP2 PUSH1 0x1 PUSH1 0x1 PUSH1 0x40 SHL SUB DUP4 GT DUP5 DUP5 LT OR PUSH2 0xA0 JUMPI DUP1 DUP5 SWAP3 PUSH1 0x20 SWAP5 PUSH1 0x40 MSTORE DUP4 CODECOPY DUP2 ADD SUB SLT PUSH2 0x9B JUMPI MLOAD PUSH1 0x0 DUP1 SLOAD CALLER PUSH1 0x1 PUSH1 0x1 PUSH1 0xA0 SHL SUB NOT DUP3 AND DUP2 OR DUP4 SSTORE PUSH1 0x40 MLOAD SWAP4 SWAP3 SWAP1 SWAP2 PUSH1 0x1 PUSH1 0x1 PUSH1 0xA0 SHL SUB AND SWAP1 PUSH32 0x8BE0079C531659141344CD1FD0A4F28419497F9722A3DAAFE3B4186F6B6457E0 SWAP1 DUP1 LOG3 PUSH1 0x1 DUP1 SSTORE PUSH1 0x6 SSTORE PUSH2 0x4094 SWAP1 DUP2 PUSH2 0xB7 DUP3 CODECOPY RETURN JUMPDEST PUSH1 0x0 DUP1 REVERT JUMPDEST PUSH4 0x4E487B71 PUSH1 0xE0 SHL PUSH1 0x0 MSTORE PUSH1 0x41 PUSH1 0x4 MSTORE PUSH1 0x24 PUSH1 0x0 REVERT INVALID PUSH1 0x80 PUSH1 0x40 MSTORE PUSH1 0x4 CALLDATASIZE LT ISZERO PUSH3 0x13 JUMPI PUSH1 0x0 DUP1 REVERT JUMPDEST PUSH1 0x0 DUP1 CALLDATALOAD PUSH1 0xE0 SHR DUP1 PUSH4 0x131DBD09 EQ PUSH3 0x1963 JUMPI DUP1 PUSH4 0x24B2982F EQ PUSH3 0x16CC JUMPI DUP1 PUSH4 0x29DF0DB3 EQ PUSH3 0x16AC JUMPI DUP1 PUSH4 0x34E62A91 EQ PUSH3 0x166F JUMPI DUP1 PUSH4 0x386E07BF EQ PUSH3 0x1571 JUMPI DUP1 PUSH4 0x476343EE EQ PUSH3 0x151B JUMPI DUP1 PUSH4 0x497626BC EQ PUSH3 0x14F6 JUMPI DUP1 PUSH4 0x4CAF81F5 EQ PUSH3 0x149E JUMPI DUP1 PUSH4 0x5E7FFA67 EQ PUSH3 0x13FB JUMPI DUP1 PUSH4 0x61B9D4E3 EQ PUSH3 0x1305 JUMPI DUP1 PUSH4 0x6A1B7ECC EQ PUSH3 0xA9F JUMPI DUP1 PUSH4 0x7093F47F EQ PUSH3 0x19E JUMPI DUP1 PUSH4 0x715018A6 EQ PUSH3 0x12A7 JUMPI DUP1 PUSH4 0x78E3399D EQ PUSH3 0x11CA JUMPI DUP1 PUSH4 0x8DA5CB5B EQ PUSH3 0x11A1 JUMPI DUP1 PUSH4 0x94395B97 EQ PUSH3 0xE08 JUMPI DUP1 PUSH4 0x96186770 EQ PUSH3 0xB58 JUMPI DUP1 PUSH4 0x98A7D76E EQ PUSH3 0xB16 JUMPI DUP1 PUSH4 0x9E4E7318 EQ PUSH3 0xABF JUMPI DUP1 PUSH4 0xB8FE6ABE EQ PUSH3 0xA9F JUMPI DUP1 PUSH4 0xC18F24D6 EQ PUSH3 0x382 JUMPI DUP1 PUSH4 0xC7760305 EQ PUSH3 0x35E JUMPI DUP1 PUSH4 0xF2FDE38B EQ PUSH3 0x28C JUMPI DUP1 PUSH4 0xF53819E7 EQ PUSH3 0x21E JUMPI DUP1 PUSH4 0xF62AA785 EQ PUSH3 0x1E1 JUMPI DUP1 PUSH4 0xF794062E EQ PUSH3 0x19E JUMPI PUSH4 0xFFA1AD74 EQ PUSH3 0x162 JUMPI PUSH1 0x0 DUP1 REVERT JUMPDEST CALLVALUE PUSH3 0x19B JUMPI DUP1 PUSH1 0x3 NOT CALLDATASIZE ADD SLT PUSH3 0x19B JUMPI PUSH3 0x197 PUSH3 0x182 PUSH3 0x1C0E JUMP JUMPDEST PUSH1 0x40 MLOAD SWAP2 DUP3 SWAP2 PUSH1 0x20 DUP4 MSTORE PUSH1 0x20 DUP4 ADD SWAP1 PUSH3 0x1A0D JUMP JUMPDEST SUB SWAP1 RETURN JUMPDEST DUP1 REVERT JUMPDEST POP CALLVALUE PUSH3 0x19B JUMPI PUSH1 0x20 CALLDATASIZE PUSH1 0x3 NOT ADD SLT PUSH3 0x19B JUMPI PUSH1 0x20 SWAP1 PUSH1 0xFF SWAP1 PUSH1 0x40 SWAP1 PUSH1 0x1 PUSH1 0x1 PUSH1 0xA0 SHL SUB PUSH3 0x1CD PUSH3 0x19D1 JUMP JUMPDEST AND DUP2 MSTORE PUSH1 0x4 DUP5 MSTORE KECCAK256 SLOAD AND PUSH1 0x40 MLOAD SWAP1 ISZERO ISZERO DUP2 MSTORE RETURN JUMPDEST POP CALLVALUE PUSH3 0x19B JUMPI PUSH1 0x20 CALLDATASIZE PUSH1 0x3 NOT ADD SLT PUSH3 0x19B JUMPI PUSH1 0x20 SWAP1 PUSH1 0x40 SWAP1 PUSH1 0x1 PUSH1 0x1 PUSH1 0xA0 SHL SUB PUSH3 0x20D PUSH3 0x19D1 JUMP JUMPDEST AND DUP2 MSTORE PUSH1 0x8 DUP4 MSTORE KECCAK256 SLOAD PUSH1 0x40 MLOAD SWAP1 DUP2 MSTORE RETURN JUMPDEST POP CALLVALUE PUSH3 0x19B JUMPI PUSH1 0x20 CALLDATASIZE PUSH1 0x3 NOT ADD SLT PUSH3 0x19B JUMPI PUSH1 0x4 CALLDATALOAD DUP1 ISZERO ISZERO DUP1 SWAP2 SUB PUSH3 0x287 JUMPI PUSH1 0x20 PUSH32 0xDEECDB5B2836E913F447EC910CA64A5A740262B60DFC4C04D1449CB2A5D76586 SWAP2 PUSH3 0x26E PUSH3 0x1E70 JUMP JUMPDEST PUSH1 0xFF NOT PUSH1 0x9 SLOAD AND PUSH1 0xFF DUP3 AND OR PUSH1 0x9 SSTORE PUSH1 0x40 MLOAD SWAP1 DUP2 MSTORE LOG1 DUP1 RETURN JUMPDEST PUSH1 0x0 DUP1 REVERT JUMPDEST POP CALLVALUE PUSH3 0x19B JUMPI PUSH1 0x20 CALLDATASIZE PUSH1 0x3 NOT ADD SLT PUSH3 0x19B JUMPI PUSH3 0x2AA PUSH3 0x19D1 JUMP JUMPDEST PUSH3 0x2B4 PUSH3 0x1E70 JUMP JUMPDEST PUSH1 0x1 PUSH1 0x1 PUSH1 0xA0 SHL SUB SWAP1 DUP2 AND SWAP1 DUP2 ISZERO PUSH3 0x30A JUMPI PUSH1 0x0 SLOAD DUP3 PUSH12 0xFFFFFFFFFFFFFFFFFFFFFFFF PUSH1 0xA0 SHL DUP3 AND OR PUSH1 0x0 SSTORE AND PUSH32 0x8BE0079C531659141344CD1FD0A4F28419497F9722A3DAAFE3B4186F6B6457E0 PUSH1 0x0 DUP1 LOG3 DUP1 RETURN JUMPDEST PUSH1 0x40 MLOAD PUSH3 0x461BCD PUSH1 0xE5 SHL DUP2 MSTORE PUSH1 0x20 PUSH1 0x4 DUP3 ADD MSTORE PUSH1 0x26 PUSH1 0x24 DUP3 ADD MSTORE PUSH32 0x4F776E61626C653A206E6577206F776E657220697320746865207A65726F2061 PUSH1 0x44 DUP3 ADD MSTORE PUSH6 0x646472657373 PUSH1 0xD0 SHL PUSH1 0x64 DUP3 ADD MSTORE PUSH1 0x84 SWAP1 REVERT JUMPDEST POP CALLVALUE PUSH3 0x19B JUMPI DUP1 PUSH1 0x3 NOT CALLDATASIZE ADD SLT PUSH3 0x19B JUMPI PUSH1 0x20 PUSH1 0x40 MLOAD PUSH7 0x2386F26FC10000 DUP2 MSTORE RETURN JUMPDEST POP PUSH1 0x3 NOT PUSH1 0x20 CALLDATASIZE DUP3 ADD SLT PUSH3 0xA9B JUMPI PUSH1 0x1 PUSH1 0x1 PUSH1 0x40 SHL SUB PUSH1 0x4 CALLDATALOAD GT PUSH3 0xA9B JUMPI PUSH2 0x1E0 PUSH1 0x4 CALLDATALOAD PUSH1 0x4 ADD SWAP2 PUSH1 0x4 CALLDATALOAD CALLDATASIZE SUB ADD SLT PUSH3 0xA9B JUMPI PUSH3 0x3C2 PUSH3 0x1EC9 JUMP JUMPDEST PUSH1 0x64 SWAP1 PUSH3 0x3D8 PUSH1 0x6 SLOAD DUP4 PUSH1 0x4 CALLDATALOAD ADD CALLDATALOAD PUSH3 0x1CFC JUMP JUMPDEST CALLVALUE LT PUSH3 0xA65 JUMPI PUSH1 0xFF PUSH1 0x1 PUSH1 0x20 PUSH3 0x3F7 PUSH2 0x124 PUSH1 0x4 CALLDATALOAD ADD DUP6 PUSH3 0x1E26 JUMP JUMPDEST SWAP2 SWAP1 DUP3 PUSH1 0x40 MLOAD SWAP4 DUP5 SWAP3 DUP4 CALLDATACOPY DUP2 ADD PUSH1 0x2 DUP2 MSTORE SUB ADD SWAP1 KECCAK256 ADD SLOAD PUSH1 0xA0 SHR AND ISZERO PUSH3 0xA2E JUMPI PUSH2 0x144 PUSH1 0x4 CALLDATALOAD ADD CALLDATALOAD ISZERO ISZERO DUP1 PUSH3 0xA0B JUMPI JUMPDEST ISZERO PUSH3 0x9C8 JUMPI PUSH2 0x184 PUSH1 0x4 CALLDATALOAD ADD CALLDATALOAD ISZERO ISZERO DUP1 PUSH3 0x9A5 JUMPI JUMPDEST ISZERO PUSH3 0x957 JUMPI PUSH2 0x1C4 PUSH1 0x4 CALLDATALOAD ADD CALLDATALOAD ISZERO PUSH3 0x907 JUMPI PUSH1 0x19 PUSH3 0x482 PUSH2 0x1C4 PUSH1 0x4 CALLDATALOAD ADD CALLDATALOAD PUSH3 0x47C PUSH2 0x184 PUSH1 0x4 CALLDATALOAD ADD CALLDATALOAD PUSH2 0x144 PUSH1 0x4 CALLDATALOAD ADD CALLDATALOAD PUSH3 0x1CFC JUMP JUMPDEST PUSH3 0x1CFC JUMP JUMPDEST GT PUSH3 0x8CE JUMPI PUSH1 0x1 PUSH3 0x49C PUSH2 0x124 PUSH1 0x4 CALLDATALOAD ADD DUP4 PUSH3 0x1E26 JUMP JUMPDEST PUSH1 0x40 MLOAD SWAP3 SWAP2 DUP2 SWAP1 DUP5 CALLDATACOPY DUP3 ADD SWAP2 PUSH1 0x2 DUP4 MSTORE PUSH1 0x20 DUP2 DUP4 DUP1 PUSH1 0xA0 SHL SUB SWAP5 SUB ADD SWAP1 KECCAK256 ADD SLOAD AND SWAP1 PUSH3 0x4CA DUP2 DUP1 PUSH3 0x1E26 JUMP JUMPDEST SWAP1 PUSH3 0x4DC PUSH1 0x24 PUSH1 0x4 CALLDATALOAD ADD DUP5 PUSH3 0x1E26 JUMP JUMPDEST PUSH1 0x4 CALLDATALOAD PUSH1 0xE4 ADD CALLDATALOAD SWAP3 SWAP2 DUP4 ISZERO ISZERO DUP5 SUB PUSH3 0x8CA JUMPI PUSH3 0x500 PUSH2 0x164 PUSH1 0x4 CALLDATALOAD ADD PUSH3 0x1E5B JUMP JUMPDEST SWAP2 PUSH3 0x512 PUSH2 0x1A4 PUSH1 0x4 CALLDATALOAD ADD PUSH3 0x1E5B JUMP JUMPDEST SWAP4 PUSH1 0x40 MLOAD SWAP7 DUP8 PUSH2 0x213E DUP2 ADD LT PUSH1 0x1 PUSH1 0x1 PUSH1 0x40 SHL SUB PUSH2 0x213E DUP11 ADD GT OR PUSH3 0x8B6 JUMPI SWAP2 PUSH3 0x55E DUP9 SWAP8 SWAP7 SWAP6 SWAP5 SWAP3 PUSH3 0x575 SWAP5 PUSH2 0x213E PUSH3 0x1F21 DUP12 CODECOPY PUSH2 0x1C0 PUSH2 0x213E DUP12 ADD DUP2 DUP2 MSTORE ADD SWAP2 PUSH3 0x1C9B JUMP JUMPDEST SWAP2 PUSH2 0x213E DUP9 ADD DUP4 SUB PUSH1 0x20 PUSH2 0x213E DUP11 ADD ADD MSTORE PUSH3 0x1C9B JUMP JUMPDEST PUSH1 0x4 CALLDATALOAD PUSH1 0x44 DUP2 ADD CALLDATALOAD PUSH2 0x213E DUP8 ADD PUSH1 0x40 DUP2 ADD SWAP2 SWAP1 SWAP2 MSTORE PUSH1 0xA4 DUP3 ADD CALLDATALOAD PUSH1 0x60 DUP3 ADD MSTORE PUSH1 0xC4 DUP3 ADD CALLDATALOAD PUSH1 0x80 DUP3 ADD MSTORE SWAP5 ISZERO ISZERO PUSH1 0xA0 DUP7 ADD MSTORE PUSH2 0x104 DUP2 ADD CALLDATALOAD PUSH1 0xC0 DUP7 ADD MSTORE PUSH1 0xE0 DUP6 ADD DUP10 SWAP1 MSTORE PUSH2 0x144 DUP2 ADD CALLDATALOAD PUSH2 0x100 DUP7 ADD MSTORE PUSH2 0x184 DUP2 ADD CALLDATALOAD PUSH2 0x120 DUP7 ADD MSTORE PUSH2 0x1C4 ADD CALLDATALOAD PUSH2 0x140 DUP6 ADD MSTORE PUSH1 0x1 PUSH1 0x1 PUSH1 0xA0 SHL SUB SWAP2 DUP3 AND PUSH2 0x160 DUP6 ADD MSTORE SWAP2 AND PUSH2 0x180 DUP4 ADD MSTORE ADDRESS PUSH2 0x1A0 SWAP1 SWAP3 ADD SWAP2 SWAP1 SWAP2 MSTORE SUB SWAP1 DUP6 CREATE DUP1 ISZERO PUSH3 0x8AB JUMPI PUSH1 0x14 PUSH1 0x44 PUSH1 0x4 CALLDATALOAD ADD CALLDATALOAD DUP2 DUP2 MUL SWAP2 DUP2 DUP4 DIV EQ SWAP1 ISZERO OR ISZERO PUSH3 0x897 JUMPI PUSH1 0x40 MLOAD PUSH4 0x95EA7B3 PUSH1 0xE0 SHL DUP2 MSTORE PUSH1 0x1 PUSH1 0x1 PUSH1 0xA0 SHL SUB DUP6 DUP2 AND PUSH1 0x4 DUP4 ADD MSTORE SWAP2 DUP7 SWAP1 DIV PUSH1 0x24 DUP3 ADD DUP2 SWAP1 MSTORE SWAP3 SWAP1 SWAP2 AND SWAP4 SWAP1 PUSH1 0x20 DUP2 PUSH1 0x44 DUP2 DUP11 DUP10 GAS CALL DUP1 ISZERO PUSH3 0x88C JUMPI PUSH3 0x856 JUMPI JUMPDEST POP PUSH2 0x12C TIMESTAMP ADD SWAP2 DUP3 TIMESTAMP GT PUSH3 0x842 JUMPI PUSH1 0x40 MLOAD PUSH4 0xF305D719 PUSH1 0xE0 SHL DUP2 MSTORE PUSH1 0x1 PUSH1 0x1 PUSH1 0xA0 SHL SUB DUP7 AND PUSH1 0x4 DUP3 ADD MSTORE PUSH1 0x24 DUP2 ADD SWAP2 SWAP1 SWAP2 MSTORE PUSH1 0x0 PUSH1 0x44 DUP3 ADD DUP2 SWAP1 MSTORE PUSH1 0x64 DUP3 ADD MSTORE ADDRESS PUSH1 0x84 DUP3 ADD MSTORE PUSH1 0xA4 DUP2 ADD SWAP3 SWAP1 SWAP3 MSTORE PUSH1 0x60 SWAP1 DUP3 SWAP1 DUP2 DUP1 PUSH1 0xC4 DUP2 ADD SUB SWAP2 DUP9 PUSH1 0x4 CALLDATALOAD ADD CALLDATALOAD SWAP1 GAS CALL DUP1 ISZERO PUSH3 0x7FD JUMPI PUSH3 0x80C JUMPI JUMPDEST POP DUP2 EXTCODESIZE ISZERO PUSH3 0x808 JUMPI PUSH1 0x40 MLOAD PUSH4 0xF2FDE38B PUSH1 0xE0 SHL DUP2 MSTORE CALLER PUSH1 0x4 DUP3 ADD MSTORE DUP5 DUP2 PUSH1 0x24 DUP2 DUP4 DUP8 GAS CALL DUP1 ISZERO PUSH3 0x7FD JUMPI PUSH3 0x7C9 JUMPI JUMPDEST POP PUSH3 0x798 PUSH3 0x783 PUSH32 0x52B537B7EFD09A072D62379791A3F242C784095AA9E11DBBA910B624ECEC68B8 SWAP3 DUP5 DUP8 MSTORE PUSH1 0x4 PUSH1 0x20 MSTORE PUSH1 0x40 DUP8 KECCAK256 PUSH1 0x1 PUSH1 0xFF NOT DUP3 SLOAD AND OR SWAP1 SSTORE PUSH3 0x775 PUSH3 0x765 PUSH2 0x124 PUSH1 0x4 CALLDATALOAD ADD DUP4 PUSH3 0x1E26 JUMP JUMPDEST SWAP1 PUSH1 0x5 PUSH1 0x20 MSTORE PUSH1 0x40 DUP11 KECCAK256 PUSH3 0x1D56 JUMP JUMPDEST PUSH2 0x124 PUSH1 0x4 CALLDATALOAD ADD SWAP1 PUSH3 0x1E26 JUMP JUMPDEST SWAP2 SWAP1 PUSH1 0x40 MLOAD SWAP3 PUSH1 0x80 DUP5 MSTORE PUSH1 0x80 DUP5 ADD SWAP2 PUSH3 0x1C9B JUMP JUMPDEST SWAP4 PUSH1 0x4 CALLDATALOAD ADD CALLDATALOAD PUSH1 0x20 DUP3 ADD MSTORE PUSH1 0x84 PUSH1 0x4 CALLDATALOAD ADD CALLDATALOAD PUSH1 0x40 DUP3 ADD MSTORE PUSH2 0x104 PUSH1 0x4 CALLDATALOAD ADD CALLDATALOAD PUSH1 0x60 DUP3 ADD MSTORE DUP1 CALLER SWAP5 SUB SWAP1 LOG3 PUSH1 0x1 DUP1 SSTORE DUP1 RETURN JUMPDEST PUSH1 0x1 PUSH1 0x1 PUSH1 0x40 SHL SUB DUP2 SWAP6 SWAP3 SWAP6 GT PUSH3 0x7E9 JUMPI PUSH1 0x40 MSTORE SWAP3 PUSH3 0x798 PUSH3 0x70D JUMP JUMPDEST PUSH4 0x4E487B71 PUSH1 0xE0 SHL DUP3 MSTORE PUSH1 0x41 PUSH1 0x4 MSTORE PUSH1 0x24 DUP3 REVERT JUMPDEST PUSH1 0x40 MLOAD RETURNDATASIZE DUP8 DUP3 RETURNDATACOPY RETURNDATASIZE SWAP1 REVERT JUMPDEST DUP4 DUP1 REVERT JUMPDEST PUSH3 0x832 SWAP1 PUSH1 0x60 RETURNDATASIZE PUSH1 0x60 GT PUSH3 0x83A JUMPI JUMPDEST PUSH3 0x829 DUP2 DUP4 PUSH3 0x1AF1 JUMP JUMPDEST DUP2 ADD SWAP1 PUSH3 0x1D3A JUMP JUMPDEST POP POP PUSH3 0x6DB JUMP JUMPDEST POP RETURNDATASIZE PUSH3 0x81D JUMP JUMPDEST PUSH4 0x4E487B71 PUSH1 0xE0 SHL DUP8 MSTORE PUSH1 0x11 PUSH1 0x4 MSTORE PUSH1 0x24 DUP8 REVERT JUMPDEST PUSH3 0x87C SWAP1 PUSH1 0x20 RETURNDATASIZE PUSH1 0x20 GT PUSH3 0x884 JUMPI JUMPDEST PUSH3 0x873 DUP2 DUP4 PUSH3 0x1AF1 JUMP JUMPDEST DUP2 ADD SWAP1 PUSH3 0x1D20 JUMP JUMPDEST POP CODESIZE PUSH3 0x669 JUMP JUMPDEST POP RETURNDATASIZE PUSH3 0x867 JUMP JUMPDEST PUSH1 0x40 MLOAD RETURNDATASIZE DUP10 DUP3 RETURNDATACOPY RETURNDATASIZE SWAP1 REVERT JUMPDEST PUSH4 0x4E487B71 PUSH1 0xE0 SHL DUP7 MSTORE PUSH1 0x11 PUSH1 0x4 MSTORE PUSH1 0x24 DUP7 REVERT JUMPDEST PUSH1 0x40 MLOAD RETURNDATASIZE DUP7 DUP3 RETURNDATACOPY RETURNDATASIZE SWAP1 REVERT JUMPDEST PUSH4 0x4E487B71 PUSH1 0xE0 SHL DUP13 MSTORE PUSH1 0x41 PUSH1 0x4 MSTORE PUSH1 0x24 DUP13 REVERT JUMPDEST DUP9 DUP1 REVERT JUMPDEST POP PUSH1 0x40 MLOAD PUSH3 0x461BCD PUSH1 0xE5 SHL DUP2 MSTORE PUSH1 0x20 PUSH1 0x4 DUP3 ADD MSTORE PUSH1 0x13 PUSH1 0x24 DUP3 ADD MSTORE PUSH19 0xA8DEE8C2D840CCCACAE640E8DEDE40D0D2CED PUSH1 0x6B SHL PUSH1 0x44 DUP3 ADD MSTORE REVERT JUMPDEST PUSH1 0x40 MLOAD PUSH3 0x461BCD PUSH1 0xE5 SHL DUP2 MSTORE PUSH1 0x20 PUSH1 0x4 DUP3 ADD MSTORE PUSH1 0x24 DUP1 DUP3 ADD MSTORE PUSH32 0x496E76616C6964206175746F2D6C697175696469747920636F6E666967757261 PUSH1 0x44 DUP3 ADD MSTORE PUSH4 0x3A34B7B7 PUSH1 0xE1 SHL DUP2 DUP5 ADD MSTORE PUSH1 0x84 SWAP1 REVERT JUMPDEST PUSH1 0x40 MLOAD PUSH3 0x461BCD PUSH1 0xE5 SHL DUP2 MSTORE PUSH1 0x20 PUSH1 0x4 DUP3 ADD MSTORE PUSH1 0x21 PUSH1 0x24 DUP3 ADD MSTORE PUSH32 0x496E76616C696420646576656C6F706D656E7420636F6E66696775726174696F PUSH1 0x44 DUP3 ADD MSTORE PUSH1 0x37 PUSH1 0xF9 SHL DUP2 DUP5 ADD MSTORE PUSH1 0x84 SWAP1 REVERT JUMPDEST POP PUSH1 0x1 PUSH1 0x1 PUSH1 0xA0 SHL SUB PUSH3 0x9BF PUSH1 0x4 CALLDATALOAD PUSH2 0x1A4 ADD PUSH3 0x1E5B JUMP JUMPDEST AND ISZERO ISZERO PUSH3 0x440 JUMP JUMPDEST POP PUSH1 0x40 MLOAD PUSH3 0x461BCD PUSH1 0xE5 SHL DUP2 MSTORE PUSH1 0x20 PUSH1 0x4 DUP3 ADD MSTORE PUSH1 0x1F PUSH1 0x24 DUP3 ADD MSTORE PUSH32 0x496E76616C6964206D61726B6574696E6720636F6E66696775726174696F6E00 PUSH1 0x44 DUP3 ADD MSTORE REVERT JUMPDEST POP PUSH1 0x1 PUSH1 0x1 PUSH1 0xA0 SHL SUB PUSH3 0xA25 PUSH1 0x4 CALLDATALOAD PUSH2 0x164 ADD PUSH3 0x1E5B JUMP JUMPDEST AND ISZERO ISZERO PUSH3 0x429 JUMP JUMPDEST POP PUSH1 0x40 MLOAD PUSH3 0x461BCD PUSH1 0xE5 SHL DUP2 MSTORE PUSH1 0x20 PUSH1 0x4 DUP3 ADD MSTORE PUSH1 0x11 PUSH1 0x24 DUP3 ADD MSTORE PUSH17 0x444558206E6F7420617661696C61626C65 PUSH1 0x78 SHL PUSH1 0x44 DUP3 ADD MSTORE REVERT JUMPDEST POP PUSH1 0x40 MLOAD PUSH3 0x461BCD PUSH1 0xE5 SHL DUP2 MSTORE PUSH1 0x20 PUSH1 0x4 DUP3 ADD MSTORE PUSH1 0x10 PUSH1 0x24 DUP3 ADD MSTORE PUSH16 0x92DCE6EACCCCD2C6D2CADCE8408AA89 PUSH1 0x83 SHL PUSH1 0x44 DUP3 ADD MSTORE REVERT JUMPDEST POP DUP1 REVERT JUMPDEST POP CALLVALUE PUSH3 0x19B JUMPI DUP1 PUSH1 0x3 NOT CALLDATASIZE ADD SLT PUSH3 0x19B JUMPI PUSH1 0x20 PUSH1 0x6 SLOAD PUSH1 0x40 MLOAD SWAP1 DUP2 MSTORE RETURN JUMPDEST POP CALLVALUE PUSH3 0x19B JUMPI DUP1 PUSH1 0x3 NOT CALLDATASIZE ADD SLT PUSH3 0x19B JUMPI PUSH1 0x20 PUSH3 0xADE PUSH3 0x1C0E JUMP JUMPDEST PUSH1 0x40 MLOAD PUSH3 0xB0B DUP4 DUP3 DUP2 PUSH3 0xAFD DUP2 DUP4 ADD SWAP7 DUP8 DUP2 MLOAD SWAP4 DUP5 SWAP3 ADD PUSH3 0x19E8 JUMP JUMPDEST DUP2 ADD SUB DUP1 DUP5 MSTORE ADD DUP3 PUSH3 0x1AF1 JUMP JUMPDEST MLOAD SWAP1 KECCAK256 PUSH1 0x40 MLOAD SWAP1 DUP2 MSTORE RETURN JUMPDEST POP CALLVALUE PUSH3 0x19B JUMPI PUSH1 0x20 CALLDATASIZE PUSH1 0x3 NOT ADD SLT PUSH3 0x19B JUMPI PUSH3 0x197 SWAP1 PUSH3 0x182 SWAP1 PUSH1 0x40 SWAP1 PUSH1 0x1 PUSH1 0x1 PUSH1 0xA0 SHL SUB PUSH3 0xB49 PUSH3 0x19D1 JUMP JUMPDEST AND DUP2 MSTORE PUSH1 0x5 PUSH1 0x20 MSTORE KECCAK256 PUSH3 0x1B13 JUMP JUMPDEST POP CALLVALUE PUSH3 0x19B JUMPI PUSH1 0x40 CALLDATASIZE PUSH1 0x3 NOT ADD SLT PUSH3 0x19B JUMPI PUSH1 0x1 PUSH1 0x1 PUSH1 0x40 SHL SUB SWAP1 PUSH1 0x4 CALLDATALOAD DUP3 DUP2 GT PUSH3 0xA9B JUMPI PUSH3 0xB90 SWAP1 CALLDATASIZE SWAP1 PUSH1 0x4 ADD PUSH3 0x198A JUMP JUMPDEST PUSH3 0xB9A PUSH3 0x19BA JUMP JUMPDEST PUSH3 0xBA4 PUSH3 0x1E70 JUMP JUMPDEST PUSH1 0x40 MLOAD DUP1 SWAP2 DUP4 DUP6 DUP4 CALLDATACOPY DUP4 DUP3 ADD SWAP7 PUSH1 0x2 DUP9 MSTORE PUSH1 0x1 DUP1 PUSH1 0xA0 SHL SUB DUP1 SWAP9 PUSH1 0x1 SWAP5 DUP6 SWAP2 PUSH1 0x20 SWAP8 DUP9 SWAP2 SUB ADD SWAP1 KECCAK256 ADD SLOAD AND PUSH3 0xDCE JUMPI PUSH1 0x40 MLOAD SWAP8 PUSH3 0xBE3 DUP10 PUSH3 0x1ABF JUMP JUMPDEST PUSH3 0xBF0 CALLDATASIZE DUP8 DUP10 PUSH3 0x1BC4 JUMP JUMPDEST DUP10 MSTORE DUP1 DUP6 DUP11 ADD SWAP4 AND SWAP9 DUP10 DUP5 MSTORE PUSH1 0x40 DUP2 ADD SWAP3 DUP6 DUP5 MSTORE PUSH1 0x40 MLOAD DUP9 DUP11 DUP3 CALLDATACOPY DUP8 DUP2 DUP11 DUP2 ADD PUSH1 0x2 DUP2 MSTORE SUB ADD SWAP1 KECCAK256 SWAP2 MLOAD DUP1 MLOAD SWAP2 DUP3 GT PUSH3 0xDBA JUMPI SWAP1 DUP3 SWAP2 PUSH3 0xC40 DUP3 PUSH3 0xC39 DUP11 SWAP7 SLOAD PUSH3 0x1A82 JUMP JUMPDEST DUP6 PUSH3 0x1C40 JUMP JUMPDEST DUP9 SWAP1 DUP13 PUSH1 0x1F DUP5 GT PUSH1 0x1 EQ PUSH3 0xD53 JUMPI SWAP2 DUP4 SWAP3 SWAP2 PUSH3 0xC73 SWAP5 PUSH3 0xD47 JUMPI JUMPDEST POP POP DUP2 PUSH1 0x1 SHL SWAP2 PUSH1 0x0 NOT SWAP1 PUSH1 0x3 SHL SHR NOT AND OR SWAP1 JUMP JUMPDEST DUP2 SSTORE JUMPDEST ADD SWAP3 MLOAD AND DUP3 SLOAD SWAP2 PUSH1 0xFF PUSH1 0xA0 SHL SWAP1 MLOAD ISZERO ISZERO PUSH1 0xA0 SHL AND SWAP2 PUSH11 0xFFFFFFFFFFFFFFFFFFFFFF PUSH1 0xA8 SHL AND OR OR SWAP1 SSTORE PUSH1 0x3 SLOAD SWAP1 PUSH9 0x10000000000000000 DUP3 LT ISZERO PUSH3 0xD33 JUMPI DUP2 ADD PUSH1 0x3 SSTORE PUSH3 0xCC5 SWAP1 PUSH3 0x1A34 JUMP JUMPDEST SWAP6 SWAP1 SWAP6 PUSH3 0xD1F JUMPI PUSH3 0xCFC DUP4 DUP6 PUSH32 0xDC80CAAC0FC930B05B1B5C1F27F1B45D60B2FA42A563CFAA28619F76DA9EFCCC SWAP8 SWAP9 PUSH3 0x1D56 JUMP JUMPDEST PUSH3 0xD15 PUSH1 0x40 MLOAD SWAP5 DUP6 SWAP5 PUSH1 0x40 DUP7 MSTORE PUSH1 0x40 DUP7 ADD SWAP2 PUSH3 0x1C9B JUMP JUMPDEST SWAP2 DUP4 ADD MSTORE SUB SWAP1 LOG1 DUP1 RETURN JUMPDEST PUSH4 0x4E487B71 PUSH1 0xE0 SHL DUP6 MSTORE PUSH1 0x4 DUP6 SWAP1 MSTORE PUSH1 0x24 DUP6 REVERT JUMPDEST PUSH4 0x4E487B71 PUSH1 0xE0 SHL DUP7 MSTORE PUSH1 0x41 PUSH1 0x4 MSTORE PUSH1 0x24 DUP7 REVERT JUMPDEST ADD MLOAD SWAP1 POP CODESIZE DUP1 PUSH3 0xC5E JUMP JUMPDEST SWAP2 SWAP1 PUSH1 0x1F NOT DUP5 AND DUP6 DUP5 MSTORE DUP12 DUP5 KECCAK256 SWAP4 JUMPDEST DUP13 DUP3 DUP3 LT PUSH3 0xDA3 JUMPI POP POP SWAP1 DUP5 DUP8 SWAP6 SWAP5 SWAP4 SWAP3 LT PUSH3 0xD89 JUMPI JUMPDEST POP POP POP DUP2 SHL ADD DUP2 SSTORE PUSH3 0xC76 JUMP JUMPDEST ADD MLOAD PUSH1 0x0 NOT PUSH1 0xF8 DUP5 PUSH1 0x3 SHL AND SHR NOT AND SWAP1 SSTORE CODESIZE DUP1 DUP1 PUSH3 0xD7B JUMP JUMPDEST DUP4 DUP6 ADD MLOAD DUP7 SSTORE DUP13 SWAP9 SWAP1 SWAP6 ADD SWAP5 SWAP4 DUP5 ADD SWAP4 ADD PUSH3 0xD62 JUMP JUMPDEST PUSH4 0x4E487B71 PUSH1 0xE0 SHL DUP12 MSTORE PUSH1 0x41 PUSH1 0x4 MSTORE PUSH1 0x24 DUP12 REVERT JUMPDEST PUSH1 0x40 MLOAD PUSH3 0x461BCD PUSH1 0xE5 SHL DUP2 MSTORE PUSH1 0x4 DUP2 ADD DUP6 SWAP1 MSTORE PUSH1 0x12 PUSH1 0x24 DUP3 ADD MSTORE PUSH18 0x44455820616C726561647920657869737473 PUSH1 0x70 SHL PUSH1 0x44 DUP3 ADD MSTORE PUSH1 0x64 SWAP1 REVERT JUMPDEST POP CALLVALUE PUSH3 0x19B JUMPI PUSH1 0x20 SWAP1 DUP2 PUSH1 0x3 NOT CALLDATASIZE ADD SLT PUSH3 0x19B JUMPI PUSH3 0xE28 PUSH3 0x19D1 JUMP JUMPDEST SWAP2 PUSH3 0xE33 PUSH3 0x1EC9 JUMP JUMPDEST PUSH1 0xFF PUSH1 0x9 SLOAD AND PUSH3 0x115D JUMPI PUSH1 0x1 PUSH1 0x1 PUSH1 0xA0 SHL SUB DUP4 DUP2 AND DUP1 DUP5 MSTORE PUSH1 0x4 DUP4 MSTORE PUSH1 0x40 DUP5 KECCAK256 SLOAD SWAP1 SWAP3 SWAP2 SWAP1 PUSH3 0xE67 SWAP1 PUSH1 0xFF AND PUSH3 0x1CBC JUMP JUMPDEST DUP3 DUP5 MSTORE PUSH1 0x7 DUP3 MSTORE PUSH1 0x40 DUP5 KECCAK256 SLOAD PUSH3 0x15180 DUP2 ADD DUP1 SWAP2 GT PUSH3 0x1149 JUMPI TIMESTAMP LT PUSH3 0x1112 JUMPI DUP3 DUP5 MSTORE PUSH1 0x8 DUP3 MSTORE PUSH7 0x2386F26FC10000 PUSH1 0x40 DUP6 KECCAK256 SLOAD LT PUSH3 0x10DB JUMPI DUP3 DUP5 MSTORE PUSH1 0x8 DUP3 MSTORE PUSH1 0x40 DUP5 KECCAK256 SWAP1 DUP5 DUP3 SLOAD SWAP3 SSTORE PUSH1 0x5 DUP4 MSTORE PUSH1 0x1 PUSH3 0xEE0 DUP5 PUSH3 0xECC PUSH1 0x40 DUP10 KECCAK256 PUSH3 0x1B13 JUMP JUMPDEST DUP2 PUSH1 0x40 MLOAD SWAP4 DUP3 DUP6 DUP1 SWAP5 MLOAD SWAP4 DUP5 SWAP3 ADD PUSH3 0x19E8 JUMP JUMPDEST DUP2 ADD PUSH1 0x2 DUP2 MSTORE SUB ADD SWAP1 KECCAK256 ADD SLOAD AND PUSH1 0x40 MLOAD SWAP1 PUSH4 0x70A08231 PUSH1 0xE0 SHL DUP3 MSTORE ADDRESS PUSH1 0x4 DUP4 ADD MSTORE DUP4 DUP3 PUSH1 0x24 DUP2 DUP9 GAS STATICCALL SWAP2 DUP3 ISZERO PUSH3 0x1030 JUMPI DUP7 SWAP3 PUSH3 0x10A2 JUMPI JUMPDEST POP DUP2 ISZERO PUSH3 0x105D JUMPI PUSH1 0x40 MLOAD PUSH4 0x95EA7B3 PUSH1 0xE0 SHL DUP2 MSTORE PUSH1 0x1 PUSH1 0x1 PUSH1 0xA0 SHL SUB DUP3 AND PUSH1 0x4 DUP3 ADD MSTORE PUSH1 0x24 DUP2 ADD DUP4 SWAP1 MSTORE DUP5 DUP2 PUSH1 0x44 DUP2 DUP11 DUP11 GAS CALL DUP1 ISZERO PUSH3 0x88C JUMPI PUSH3 0x103B JUMPI JUMPDEST POP PUSH2 0x12C TIMESTAMP ADD SWAP7 DUP8 TIMESTAMP GT PUSH3 0x842 JUMPI PUSH1 0x40 MLOAD PUSH4 0xF305D719 PUSH1 0xE0 SHL DUP2 MSTORE PUSH1 0x1 PUSH1 0x1 PUSH1 0xA0 SHL SUB SWAP2 SWAP1 SWAP2 AND PUSH1 0x4 DUP3 ADD MSTORE PUSH1 0x24 DUP2 ADD DUP4 SWAP1 MSTORE PUSH1 0x0 PUSH1 0x44 DUP3 ADD DUP2 SWAP1 MSTORE PUSH1 0x64 DUP3 ADD MSTORE ADDRESS PUSH1 0x84 DUP3 ADD MSTORE PUSH1 0xA4 DUP2 ADD SWAP8 SWAP1 SWAP8 MSTORE SWAP5 SWAP6 SWAP4 SWAP5 PUSH1 0x60 SWAP1 DUP6 SWAP1 PUSH1 0xC4 SWAP1 DUP3 SWAP1 DUP7 SWAP1 GAS CALL SWAP3 DUP4 ISZERO PUSH3 0x1030 JUMPI PUSH32 0xA3DC3C61726A3DCBFBF5E604E78601D94669869D8C674DE770969DE80D7AFF12 SWAP5 PUSH1 0x40 SWAP5 PUSH3 0x100C JUMPI JUMPDEST POP DUP6 DUP8 MSTORE PUSH1 0x7 DUP2 MSTORE TIMESTAMP DUP5 DUP9 KECCAK256 SSTORE DUP4 MLOAD SWAP3 DUP4 MSTORE DUP3 ADD MSTORE LOG2 PUSH1 0x1 DUP1 SSTORE DUP1 RETURN JUMPDEST PUSH3 0x1028 SWAP1 PUSH1 0x60 RETURNDATASIZE PUSH1 0x60 GT PUSH3 0x83A JUMPI PUSH3 0x829 DUP2 DUP4 PUSH3 0x1AF1 JUMP JUMPDEST POP POP PUSH3 0xFEF JUMP JUMPDEST PUSH1 0x40 MLOAD RETURNDATASIZE DUP9 DUP3 RETURNDATACOPY RETURNDATASIZE SWAP1 REVERT JUMPDEST PUSH3 0x1055 SWAP1 DUP6 RETURNDATASIZE DUP8 GT PUSH3 0x884 JUMPI PUSH3 0x873 DUP2 DUP4 PUSH3 0x1AF1 JUMP JUMPDEST POP CODESIZE PUSH3 0xF5A JUMP JUMPDEST PUSH1 0x40 MLOAD PUSH3 0x461BCD PUSH1 0xE5 SHL DUP2 MSTORE PUSH1 0x4 DUP2 ADD DUP6 SWAP1 MSTORE PUSH1 0x17 PUSH1 0x24 DUP3 ADD MSTORE PUSH32 0x4E6F20746F6B656E7320666F72206C6971756964697479000000000000000000 PUSH1 0x44 DUP3 ADD MSTORE PUSH1 0x64 SWAP1 REVERT JUMPDEST SWAP1 SWAP2 POP DUP4 DUP2 DUP2 RETURNDATASIZE DUP4 GT PUSH3 0x10D3 JUMPI JUMPDEST PUSH3 0x10BD DUP2 DUP4 PUSH3 0x1AF1 JUMP JUMPDEST DUP2 ADD SUB SLT PUSH3 0x10CF JUMPI MLOAD SWAP1 CODESIZE PUSH3 0xF19 JUMP JUMPDEST DUP6 DUP1 REVERT JUMPDEST POP RETURNDATASIZE PUSH3 0x10B1 JUMP JUMPDEST PUSH1 0x40 MLOAD PUSH3 0x461BCD PUSH1 0xE5 SHL DUP2 MSTORE PUSH1 0x4 DUP2 ADD DUP4 SWAP1 MSTORE PUSH1 0xF PUSH1 0x24 DUP3 ADD MSTORE PUSH15 0x10995B1BDDC81D1A1C995CDA1BDB19 PUSH1 0x8A SHL PUSH1 0x44 DUP3 ADD MSTORE PUSH1 0x64 SWAP1 REVERT JUMPDEST PUSH1 0x40 MLOAD PUSH3 0x461BCD PUSH1 0xE5 SHL DUP2 MSTORE PUSH1 0x4 DUP2 ADD DUP4 SWAP1 MSTORE PUSH1 0xF PUSH1 0x24 DUP3 ADD MSTORE PUSH15 0x436F6F6C646F776E20616374697665 PUSH1 0x88 SHL PUSH1 0x44 DUP3 ADD MSTORE PUSH1 0x64 SWAP1 REVERT JUMPDEST PUSH4 0x4E487B71 PUSH1 0xE0 SHL DUP6 MSTORE PUSH1 0x11 PUSH1 0x4 MSTORE PUSH1 0x24 DUP6 REVERT JUMPDEST PUSH1 0x64 SWAP1 PUSH1 0x40 MLOAD SWAP1 PUSH3 0x461BCD PUSH1 0xE5 SHL DUP3 MSTORE PUSH1 0x4 DUP3 ADD MSTORE PUSH1 0x18 PUSH1 0x24 DUP3 ADD MSTORE PUSH32 0x4175746F2D6C6971756964697479206973207061757365640000000000000000 PUSH1 0x44 DUP3 ADD MSTORE REVERT JUMPDEST POP CALLVALUE PUSH3 0x19B JUMPI DUP1 PUSH1 0x3 NOT CALLDATASIZE ADD SLT PUSH3 0x19B JUMPI SLOAD PUSH1 0x40 MLOAD PUSH1 0x1 PUSH1 0x1 PUSH1 0xA0 SHL SUB SWAP1 SWAP2 AND DUP2 MSTORE PUSH1 0x20 SWAP1 RETURN JUMPDEST POP CALLVALUE PUSH3 0x19B JUMPI PUSH1 0x20 DUP1 PUSH1 0x3 NOT CALLDATASIZE ADD SLT PUSH3 0xA9B JUMPI PUSH1 0x4 CALLDATALOAD PUSH1 0x1 PUSH1 0x1 PUSH1 0x40 SHL SUB DUP2 GT PUSH3 0x12A3 JUMPI SWAP2 DUP2 PUSH3 0x1205 PUSH1 0x60 SWAP5 CALLDATASIZE SWAP1 PUSH1 0x4 ADD PUSH3 0x198A JUMP JUMPDEST SWAP3 PUSH1 0x40 DUP1 MLOAD PUSH3 0x1215 DUP2 PUSH3 0x1ABF JUMP JUMPDEST DUP8 DUP2 MSTORE DUP3 DUP6 DUP3 ADD MSTORE ADD MSTORE DUP3 PUSH1 0x40 MLOAD SWAP4 DUP5 SWAP3 DUP4 CALLDATACOPY DUP2 ADD PUSH1 0x2 DUP2 MSTORE SUB ADD SWAP1 KECCAK256 SWAP1 PUSH1 0x1 PUSH1 0x40 MLOAD SWAP3 PUSH3 0x1244 DUP5 PUSH3 0x1ABF JUMP JUMPDEST PUSH3 0x124F DUP2 PUSH3 0x1B13 JUMP JUMPDEST DUP5 MSTORE ADD SLOAD PUSH1 0x1 DUP1 PUSH1 0xA0 SHL SUB PUSH3 0x128F DUP4 DUP6 ADD SWAP4 DUP3 DUP5 AND DUP6 MSTORE PUSH1 0xFF PUSH1 0x40 DUP8 ADD SWAP5 PUSH1 0xA0 SHR AND ISZERO ISZERO DUP5 MSTORE PUSH1 0x40 MLOAD SWAP7 DUP8 SWAP7 DUP3 DUP9 MSTORE MLOAD SWAP2 DUP8 ADD MSTORE PUSH1 0x80 DUP7 ADD SWAP1 PUSH3 0x1A0D JUMP JUMPDEST SWAP3 MLOAD AND PUSH1 0x40 DUP5 ADD MSTORE MLOAD ISZERO ISZERO PUSH1 0x60 DUP4 ADD MSTORE SUB SWAP1 RETURN JUMPDEST DUP3 DUP1 REVERT JUMPDEST POP CALLVALUE PUSH3 0x19B JUMPI DUP1 PUSH1 0x3 NOT CALLDATASIZE ADD SLT PUSH3 0x19B JUMPI PUSH3 0x12C4 PUSH3 0x1E70 JUMP JUMPDEST DUP1 SLOAD PUSH1 0x1 PUSH1 0x1 PUSH1 0xA0 SHL SUB NOT DUP2 AND DUP3 SSTORE DUP2 SWAP1 PUSH1 0x1 PUSH1 0x1 PUSH1 0xA0 SHL SUB AND PUSH32 0x8BE0079C531659141344CD1FD0A4F28419497F9722A3DAAFE3B4186F6B6457E0 DUP3 DUP1 LOG3 DUP1 RETURN JUMPDEST POP CALLVALUE PUSH3 0x19B JUMPI PUSH1 0x20 DUP1 PUSH1 0x3 NOT CALLDATASIZE ADD SLT PUSH3 0xA9B JUMPI PUSH3 0x1324 PUSH3 0x19D1 JUMP JUMPDEST PUSH3 0x132E PUSH3 0x1E70 JUMP JUMPDEST PUSH1 0x1 PUSH1 0x1 PUSH1 0xA0 SHL SUB SWAP1 DUP2 AND DUP1 DUP5 MSTORE PUSH1 0x4 DUP4 MSTORE PUSH1 0x40 DUP5 KECCAK256 SLOAD SWAP1 SWAP3 SWAP1 PUSH3 0x1356 SWAP1 PUSH1 0xFF AND PUSH3 0x1CBC JUMP JUMPDEST DUP3 DUP5 MSTORE PUSH1 0x8 DUP2 MSTORE PUSH1 0x40 DUP5 KECCAK256 SLOAD SWAP2 DUP3 ISZERO PUSH3 0x13BF JUMPI DUP5 DUP1 DUP1 DUP6 DUP2 SWAP5 DUP9 DUP4 MSTORE PUSH1 0x8 DUP8 MSTORE DUP3 PUSH1 0x40 DUP2 KECCAK256 SSTORE DUP3 SLOAD AND DUP3 CALL ISZERO PUSH3 0x13B4 JUMPI PUSH32 0x5E611EF8160E562940CC0953AA9CE7048AE3395A4AA42242B7F7751E7F9BE12C SWAP2 PUSH1 0x40 MLOAD SWAP1 DUP2 MSTORE LOG2 DUP1 RETURN JUMPDEST PUSH1 0x40 MLOAD RETURNDATASIZE DUP6 DUP3 RETURNDATACOPY RETURNDATASIZE SWAP1 REVERT JUMPDEST PUSH1 0x40 MLOAD PUSH3 0x461BCD PUSH1 0xE5 SHL DUP2 MSTORE PUSH1 0x4 DUP2 ADD DUP4 SWAP1 MSTORE PUSH1 0x14 PUSH1 0x24 DUP3 ADD MSTORE PUSH20 0x4E6F2070656E64696E67206C6971756964697479 PUSH1 0x60 SHL PUSH1 0x44 DUP3 ADD MSTORE PUSH1 0x64 SWAP1 REVERT JUMPDEST POP CALLVALUE PUSH3 0x19B JUMPI PUSH1 0x20 CALLDATASIZE PUSH1 0x3 NOT ADD SLT PUSH3 0x19B JUMPI PUSH1 0x4 CALLDATALOAD SWAP1 PUSH1 0x1 PUSH1 0x1 PUSH1 0x40 SHL SUB DUP3 GT PUSH3 0x19B JUMPI CALLDATASIZE PUSH1 0x23 DUP4 ADD SLT ISZERO PUSH3 0x19B JUMPI PUSH3 0x147D PUSH3 0x144C PUSH1 0x20 PUSH3 0xECC CALLDATASIZE PUSH1 0x4 DUP8 ADD CALLDATALOAD PUSH1 0x24 DUP9 ADD PUSH3 0x1BC4 JUMP JUMPDEST DUP2 ADD PUSH1 0x2 DUP2 MSTORE SUB ADD SWAP1 KECCAK256 PUSH1 0x1 PUSH3 0x1463 DUP3 PUSH3 0x1B13 JUMP JUMPDEST SWAP2 ADD SLOAD PUSH1 0xFF PUSH1 0x40 MLOAD SWAP4 DUP5 SWAP4 PUSH1 0x60 DUP6 MSTORE PUSH1 0x60 DUP6 ADD SWAP1 PUSH3 0x1A0D JUMP JUMPDEST PUSH1 0x1 PUSH1 0x1 PUSH1 0xA0 SHL SUB DUP4 AND PUSH1 0x20 DUP6 ADD MSTORE PUSH1 0xA0 SWAP3 SWAP1 SWAP3 SHR AND ISZERO ISZERO PUSH1 0x40 DUP4 ADD MSTORE SUB SWAP1 RETURN JUMPDEST POP CALLVALUE PUSH3 0x19B JUMPI PUSH1 0x20 CALLDATASIZE PUSH1 0x3 NOT ADD SLT PUSH3 0x19B JUMPI PUSH1 0x4 CALLDATALOAD PUSH1 0x3 SLOAD DUP2 LT ISZERO PUSH3 0xA9B JUMPI PUSH3 0x14CB SWAP1 PUSH3 0x1A34 JUMP JUMPDEST SWAP2 SWAP1 SWAP2 PUSH3 0x14E2 JUMPI PUSH3 0x197 PUSH3 0x182 DUP4 PUSH3 0x1B13 JUMP JUMPDEST PUSH4 0x4E487B71 PUSH1 0xE0 SHL DUP2 MSTORE PUSH1 0x4 DUP2 SWAP1 MSTORE PUSH1 0x24 SWAP1 REVERT JUMPDEST POP CALLVALUE PUSH3 0x19B JUMPI DUP1 PUSH1 0x3 NOT CALLDATASIZE ADD SLT PUSH3 0x19B JUMPI PUSH1 0x20 PUSH1 0xFF PUSH1 0x9 SLOAD AND PUSH1 0x40 MLOAD SWAP1 ISZERO ISZERO DUP2 MSTORE RETURN JUMPDEST POP CALLVALUE PUSH3 0x19B JUMPI DUP1 PUSH1 0x3 NOT CALLDATASIZE ADD SLT PUSH3 0x19B JUMPI PUSH3 0x1538 PUSH3 0x1E70 JUMP JUMPDEST DUP1 DUP1 DUP1 DUP1 PUSH1 0x1 DUP1 PUSH1 0xA0 SHL SUB DUP2 SLOAD AND SELFBALANCE SWAP1 DUP3 DUP3 ISZERO PUSH3 0x1567 JUMPI JUMPDEST CALL ISZERO PUSH3 0x155B JUMPI DUP1 RETURN JUMPDEST PUSH1 0x40 MLOAD SWAP1 RETURNDATASIZE SWAP1 DUP3 RETURNDATACOPY RETURNDATASIZE SWAP1 REVERT JUMPDEST POP PUSH2 0x8FC PUSH3 0x1551 JUMP JUMPDEST POP CALLVALUE PUSH3 0x19B JUMPI DUP1 PUSH1 0x3 NOT CALLDATASIZE ADD SLT PUSH3 0x19B JUMPI PUSH1 0x3 SLOAD PUSH1 0x1 PUSH1 0x1 PUSH1 0x40 SHL SUB DUP2 GT PUSH3 0x7E9 JUMPI SWAP1 PUSH1 0x20 SWAP2 PUSH1 0x40 MLOAD SWAP2 PUSH3 0x15AF DUP5 DUP4 PUSH1 0x5 SHL ADD DUP5 PUSH3 0x1AF1 JUMP JUMPDEST DUP2 DUP4 MSTORE PUSH1 0x3 DUP2 MSTORE DUP4 DUP4 ADD SWAP2 DUP2 PUSH32 0xC2575A0E9E593C00F959F8C92F12DB2869C3395A3B0502D05E2516446F71F85B DUP5 JUMPDEST DUP4 DUP4 LT PUSH3 0x1648 JUMPI POP POP POP POP PUSH1 0x40 MLOAD SWAP3 DUP5 DUP5 ADD SWAP1 DUP6 DUP6 MSTORE MLOAD DUP1 SWAP2 MSTORE PUSH1 0x40 DUP5 ADD SWAP5 PUSH1 0x40 DUP3 PUSH1 0x5 SHL DUP7 ADD ADD SWAP4 SWAP3 SWAP6 JUMPDEST DUP3 DUP8 LT PUSH3 0x1619 JUMPI DUP6 DUP6 SUB DUP7 RETURN JUMPDEST SWAP1 SWAP2 SWAP3 SWAP4 DUP3 DUP1 PUSH3 0x1637 PUSH1 0x1 SWAP4 PUSH1 0x3F NOT DUP11 DUP3 SUB ADD DUP7 MSTORE DUP9 MLOAD PUSH3 0x1A0D JUMP JUMPDEST SWAP7 ADD SWAP3 ADD SWAP7 ADD SWAP6 SWAP3 SWAP2 SWAP1 SWAP3 PUSH3 0x160B JUMP JUMPDEST PUSH1 0x1 DUP9 DUP2 SWAP3 PUSH3 0x165C DUP6 SWAP12 SWAP11 SWAP9 SWAP12 PUSH3 0x1B13 JUMP JUMPDEST DUP2 MSTORE ADD SWAP3 ADD SWAP3 ADD SWAP2 SWAP1 SWAP7 SWAP4 SWAP6 SWAP7 PUSH3 0x15DE JUMP JUMPDEST POP CALLVALUE PUSH3 0x19B JUMPI PUSH1 0x20 CALLDATASIZE PUSH1 0x3 NOT ADD SLT PUSH3 0x19B JUMPI PUSH1 0x20 SWAP1 PUSH1 0x40 SWAP1 PUSH1 0x1 PUSH1 0x1 PUSH1 0xA0 SHL SUB PUSH3 0x169B PUSH3 0x19D1 JUMP JUMPDEST AND DUP2 MSTORE PUSH1 0x7 DUP4 MSTORE KECCAK256 SLOAD PUSH1 0x40 MLOAD SWAP1 DUP2 MSTORE RETURN JUMPDEST POP CALLVALUE PUSH3 0x19B JUMPI DUP1 PUSH1 0x3 NOT CALLDATASIZE ADD SLT PUSH3 0x19B JUMPI PUSH1 0x20 PUSH1 0x40 MLOAD PUSH3 0x15180 DUP2 MSTORE RETURN JUMPDEST POP CALLVALUE PUSH3 0x19B JUMPI PUSH1 0x60 CALLDATASIZE PUSH1 0x3 NOT ADD SLT PUSH3 0x19B JUMPI PUSH1 0x1 PUSH1 0x1 PUSH1 0x40 SHL SUB SWAP1 PUSH1 0x4 CALLDATALOAD DUP3 DUP2 GT PUSH3 0xA9B JUMPI PUSH3 0x1704 SWAP1 CALLDATASIZE SWAP1 PUSH1 0x4 ADD PUSH3 0x198A JUMP JUMPDEST PUSH3 0x170E PUSH3 0x19BA JUMP JUMPDEST PUSH1 0x44 CALLDATALOAD DUP1 ISZERO ISZERO DUP2 SUB PUSH3 0x195F JUMPI PUSH3 0x1725 PUSH3 0x1E70 JUMP JUMPDEST PUSH1 0x40 MLOAD DUP4 DUP6 DUP3 CALLDATACOPY PUSH1 0x2 DUP2 DUP6 ADD SWAP1 DUP2 MSTORE DUP2 SWAP1 SUB PUSH1 0x20 ADD SWAP1 KECCAK256 PUSH1 0x1 ADD SLOAD PUSH1 0x1 PUSH1 0x1 PUSH1 0xA0 SHL SUB AND ISZERO PUSH3 0x192A JUMPI PUSH1 0x40 MLOAD PUSH3 0x175D DUP2 PUSH3 0x1ABF JUMP JUMPDEST PUSH3 0x176A CALLDATASIZE DUP6 DUP8 PUSH3 0x1BC4 JUMP JUMPDEST DUP2 MSTORE PUSH1 0x1 PUSH1 0x1 PUSH1 0xA0 SHL SUB DUP4 AND PUSH1 0x20 DUP3 ADD MSTORE DUP2 ISZERO ISZERO PUSH1 0x40 DUP1 DUP4 ADD SWAP2 SWAP1 SWAP2 MSTORE MLOAD DUP5 DUP7 DUP3 CALLDATACOPY PUSH1 0x20 DUP2 DUP7 DUP2 ADD PUSH1 0x2 DUP2 MSTORE SUB ADD SWAP1 KECCAK256 DUP2 MLOAD DUP1 MLOAD SWAP9 DUP10 GT PUSH3 0x1916 JUMPI PUSH3 0x17BE DUP10 PUSH3 0x17B7 DUP5 SLOAD PUSH3 0x1A82 JUMP JUMPDEST DUP5 PUSH3 0x1C40 JUMP JUMPDEST PUSH1 0x20 SWAP1 PUSH1 0x1F DUP11 GT PUSH1 0x1 EQ PUSH3 0x1886 JUMPI DUP10 DUP10 SWAP11 PUSH1 0x1 SWAP5 SWAP4 PUSH3 0x1816 SWAP4 PUSH32 0xFCC670EF83A2AB18FA316FD1535402582AD1C325995F34B0F96FAEB21D0EF9EB SWAP13 SWAP3 PUSH3 0xD47 JUMPI POP POP DUP2 PUSH1 0x1 SHL SWAP2 PUSH1 0x0 NOT SWAP1 PUSH1 0x3 SHL SHR NOT AND OR SWAP1 JUMP JUMPDEST DUP2 SSTORE JUMPDEST ADD SWAP1 PUSH1 0x1 DUP1 PUSH1 0xA0 SHL SUB PUSH1 0x20 DUP3 ADD MLOAD AND DUP3 SLOAD SWAP2 PUSH1 0x40 PUSH1 0xFF PUSH1 0xA0 SHL SWAP2 ADD MLOAD ISZERO ISZERO PUSH1 0xA0 SHL AND SWAP2 PUSH11 0xFFFFFFFFFFFFFFFFFFFFFF PUSH1 0xA8 SHL AND OR OR SWAP1 SSTORE PUSH3 0x1869 PUSH1 0x40 MLOAD SWAP5 DUP6 SWAP5 PUSH1 0x60 DUP7 MSTORE PUSH1 0x60 DUP7 ADD SWAP2 PUSH3 0x1C9B JUMP JUMPDEST PUSH1 0x1 PUSH1 0x1 PUSH1 0xA0 SHL SUB SWAP1 SWAP3 AND PUSH1 0x20 DUP5 ADD MSTORE ISZERO ISZERO PUSH1 0x40 DUP4 ADD MSTORE SUB SWAP1 LOG1 DUP1 RETURN JUMPDEST SWAP1 DUP3 DUP10 MSTORE PUSH1 0x20 DUP10 KECCAK256 SWAP2 DUP10 JUMPDEST PUSH1 0x1F NOT DUP13 AND DUP2 LT PUSH3 0x18FD JUMPI POP SWAP10 PUSH1 0x1 SWAP4 SWAP3 DUP5 SWAP3 PUSH32 0xFCC670EF83A2AB18FA316FD1535402582AD1C325995F34B0F96FAEB21D0EF9EB SWAP12 SWAP13 DUP4 PUSH1 0x1F NOT DUP2 AND LT PUSH3 0x18E3 JUMPI JUMPDEST POP POP POP DUP2 SHL ADD DUP2 SSTORE PUSH3 0x1819 JUMP JUMPDEST ADD MLOAD PUSH1 0x0 NOT PUSH1 0xF8 DUP5 PUSH1 0x3 SHL AND SHR NOT AND SWAP1 SSTORE CODESIZE DUP1 DUP1 PUSH3 0x18D5 JUMP JUMPDEST SWAP2 SWAP3 PUSH1 0x20 PUSH1 0x1 DUP2 SWAP3 DUP7 DUP6 ADD MLOAD DUP2 SSTORE ADD SWAP5 ADD SWAP3 ADD PUSH3 0x1891 JUMP JUMPDEST PUSH4 0x4E487B71 PUSH1 0xE0 SHL DUP9 MSTORE PUSH1 0x41 PUSH1 0x4 MSTORE PUSH1 0x24 DUP9 REVERT JUMPDEST PUSH1 0x40 MLOAD PUSH3 0x461BCD PUSH1 0xE5 SHL DUP2 MSTORE PUSH1 0x20 PUSH1 0x4 DUP3 ADD MSTORE PUSH1 0xD PUSH1 0x24 DUP3 ADD MSTORE PUSH13 0x111156081B9BDD08199BDD5B99 PUSH1 0x9A SHL PUSH1 0x44 DUP3 ADD MSTORE PUSH1 0x64 SWAP1 REVERT JUMPDEST DUP5 DUP1 REVERT JUMPDEST POP CALLVALUE PUSH3 0x19B JUMPI PUSH1 0x20 CALLDATASIZE PUSH1 0x3 NOT ADD SLT PUSH3 0x19B JUMPI PUSH3 0x1981 PUSH3 0x1E70 JUMP JUMPDEST PUSH1 0x4 CALLDATALOAD PUSH1 0x6 SSTORE DUP1 RETURN JUMPDEST SWAP2 DUP2 PUSH1 0x1F DUP5 ADD SLT ISZERO PUSH3 0x287 JUMPI DUP3 CALLDATALOAD SWAP2 PUSH1 0x1 PUSH1 0x1 PUSH1 0x40 SHL SUB DUP4 GT PUSH3 0x287 JUMPI PUSH1 0x20 DUP4 DUP2 DUP7 ADD SWAP6 ADD ADD GT PUSH3 0x287 JUMPI JUMP JUMPDEST PUSH1 0x24 CALLDATALOAD SWAP1 PUSH1 0x1 PUSH1 0x1 PUSH1 0xA0 SHL SUB DUP3 AND DUP3 SUB PUSH3 0x287 JUMPI JUMP JUMPDEST PUSH1 0x4 CALLDATALOAD SWAP1 PUSH1 0x1 PUSH1 0x1 PUSH1 0xA0 SHL SUB DUP3 AND DUP3 SUB PUSH3 0x287 JUMPI JUMP JUMPDEST PUSH1 0x0 JUMPDEST DUP4 DUP2 LT PUSH3 0x19FC JUMPI POP POP PUSH1 0x0 SWAP2 ADD MSTORE JUMP JUMPDEST DUP2 DUP2 ADD MLOAD DUP4 DUP3 ADD MSTORE PUSH1 0x20 ADD PUSH3 0x19EB JUMP JUMPDEST SWAP1 PUSH1 0x20 SWAP2 PUSH3 0x1A28 DUP2 MLOAD DUP1 SWAP3 DUP2 DUP6 MSTORE DUP6 DUP1 DUP7 ADD SWAP2 ADD PUSH3 0x19E8 JUMP JUMPDEST PUSH1 0x1F ADD PUSH1 0x1F NOT AND ADD ADD SWAP1 JUMP JUMPDEST PUSH1 0x3 SLOAD DUP2 LT ISZERO PUSH3 0x1A6C JUMPI PUSH1 0x3 PUSH1 0x0 MSTORE PUSH32 0xC2575A0E9E593C00F959F8C92F12DB2869C3395A3B0502D05E2516446F71F85B ADD SWAP1 PUSH1 0x0 SWAP1 JUMP JUMPDEST PUSH4 0x4E487B71 PUSH1 0xE0 SHL PUSH1 0x0 MSTORE PUSH1 0x32 PUSH1 0x4 MSTORE PUSH1 0x24 PUSH1 0x0 REVERT JUMPDEST SWAP1 PUSH1 0x1 DUP3 DUP2 SHR SWAP3 AND DUP1 ISZERO PUSH3 0x1AB4 JUMPI JUMPDEST PUSH1 0x20 DUP4 LT EQ PUSH3 0x1A9E JUMPI JUMP JUMPDEST PUSH4 0x4E487B71 PUSH1 0xE0 SHL PUSH1 0x0 MSTORE PUSH1 0x22 PUSH1 0x4 MSTORE PUSH1 0x24 PUSH1 0x0 REVERT JUMPDEST SWAP2 PUSH1 0x7F AND SWAP2 PUSH3 0x1A92 JUMP JUMPDEST PUSH1 0x60 DUP2 ADD SWAP1 DUP2 LT PUSH1 0x1 PUSH1 0x1 PUSH1 0x40 SHL SUB DUP3 GT OR PUSH3 0x1ADB JUMPI PUSH1 0x40 MSTORE JUMP JUMPDEST PUSH4 0x4E487B71 PUSH1 0xE0 SHL PUSH1 0x0 MSTORE PUSH1 0x41 PUSH1 0x4 MSTORE PUSH1 0x24 PUSH1 0x0 REVERT JUMPDEST SWAP1 PUSH1 0x1F DUP1 NOT SWAP2 ADD AND DUP2 ADD SWAP1 DUP2 LT PUSH1 0x1 PUSH1 0x1 PUSH1 0x40 SHL SUB DUP3 GT OR PUSH3 0x1ADB JUMPI PUSH1 0x40 MSTORE JUMP JUMPDEST SWAP1 PUSH1 0x40 MLOAD SWAP2 DUP3 PUSH1 0x0 DUP3 SLOAD PUSH3 0x1B28 DUP2 PUSH3 0x1A82 JUMP JUMPDEST SWAP1 DUP2 DUP5 MSTORE PUSH1 0x20 SWAP5 PUSH1 0x1 SWAP2 PUSH1 0x1 DUP2 AND SWAP1 DUP2 PUSH1 0x0 EQ PUSH3 0x1BA0 JUMPI POP PUSH1 0x1 EQ PUSH3 0x1B5D JUMPI JUMPDEST POP POP POP PUSH3 0x1B5B SWAP3 POP SUB DUP4 PUSH3 0x1AF1 JUMP JUMPDEST JUMP JUMPDEST PUSH1 0x0 SWAP1 DUP2 MSTORE DUP6 DUP2 KECCAK256 SWAP6 SWAP4 POP SWAP2 SWAP1 JUMPDEST DUP2 DUP4 LT PUSH3 0x1B87 JUMPI POP POP PUSH3 0x1B5B SWAP4 POP DUP3 ADD ADD CODESIZE DUP1 DUP1 PUSH3 0x1B4A JUMP JUMPDEST DUP6 SLOAD DUP9 DUP5 ADD DUP6 ADD MSTORE SWAP5 DUP6 ADD SWAP5 DUP8 SWAP5 POP SWAP2 DUP4 ADD SWAP2 PUSH3 0x1B6B JUMP JUMPDEST SWAP3 POP POP POP PUSH3 0x1B5B SWAP5 SWAP3 POP PUSH1 0xFF NOT AND DUP3 DUP5 ADD MSTORE ISZERO ISZERO PUSH1 0x5 SHL DUP3 ADD ADD CODESIZE DUP1 DUP1 PUSH3 0x1B4A JUMP JUMPDEST SWAP3 SWAP2 SWAP3 PUSH1 0x1 PUSH1 0x1 PUSH1 0x40 SHL SUB DUP3 GT PUSH3 0x1ADB JUMPI PUSH1 0x40 MLOAD SWAP2 PUSH3 0x1BF0 PUSH1 0x1F DUP3 ADD PUSH1 0x1F NOT AND PUSH1 0x20 ADD DUP5 PUSH3 0x1AF1 JUMP JUMPDEST DUP3 SWAP5 DUP2 DUP5 MSTORE DUP2 DUP4 ADD GT PUSH3 0x287 JUMPI DUP3 DUP2 PUSH1 0x20 SWAP4 DUP5 PUSH1 0x0 SWAP7 ADD CALLDATACOPY ADD ADD MSTORE JUMP JUMPDEST PUSH1 0x40 MLOAD SWAP1 PUSH1 0x40 DUP3 ADD DUP3 DUP2 LT PUSH1 0x1 PUSH1 0x1 PUSH1 0x40 SHL SUB DUP3 GT OR PUSH3 0x1ADB JUMPI PUSH1 0x40 MSTORE PUSH1 0x5 DUP3 MSTORE PUSH5 0x322E302E3 PUSH1 0xDC SHL PUSH1 0x20 DUP4 ADD MSTORE JUMP JUMPDEST SWAP1 PUSH1 0x1F DUP2 GT PUSH3 0x1C4F JUMPI POP POP POP JUMP JUMPDEST PUSH1 0x0 SWAP2 PUSH1 0x0 MSTORE PUSH1 0x20 PUSH1 0x0 KECCAK256 SWAP1 PUSH1 0x20 PUSH1 0x1F DUP6 ADD PUSH1 0x5 SHR DUP4 ADD SWAP5 LT PUSH3 0x1C90 JUMPI JUMPDEST PUSH1 0x1F ADD PUSH1 0x5 SHR ADD SWAP2 JUMPDEST DUP3 DUP2 LT PUSH3 0x1C84 JUMPI POP POP POP JUMP JUMPDEST DUP2 DUP2 SSTORE PUSH1 0x1 ADD PUSH3 0x1C77 JUMP JUMPDEST SWAP1 SWAP3 POP DUP3 SWAP1 PUSH3 0x1C6E JUMP JUMPDEST SWAP1 DUP1 PUSH1 0x20 SWAP4 SWAP3 DUP2 DUP5 MSTORE DUP5 DUP5 ADD CALLDATACOPY PUSH1 0x0 DUP3 DUP3 ADD DUP5 ADD MSTORE PUSH1 0x1F ADD PUSH1 0x1F NOT AND ADD ADD SWAP1 JUMP JUMPDEST ISZERO PUSH3 0x1CC4 JUMPI JUMP JUMPDEST PUSH1 0x40 MLOAD PUSH3 0x461BCD PUSH1 0xE5 SHL DUP2 MSTORE PUSH1 0x20 PUSH1 0x4 DUP3 ADD MSTORE PUSH1 0x10 PUSH1 0x24 DUP3 ADD MSTORE PUSH16 0x151BDAD95B881B9BDD081B1A5CDD1959 PUSH1 0x82 SHL PUSH1 0x44 DUP3 ADD MSTORE PUSH1 0x64 SWAP1 REVERT JUMPDEST SWAP2 SWAP1 DUP3 ADD DUP1 SWAP3 GT PUSH3 0x1D0A JUMPI JUMP JUMPDEST PUSH4 0x4E487B71 PUSH1 0xE0 SHL PUSH1 0x0 MSTORE PUSH1 0x11 PUSH1 0x4 MSTORE PUSH1 0x24 PUSH1 0x0 REVERT JUMPDEST SWAP1 DUP2 PUSH1 0x20 SWAP2 SUB SLT PUSH3 0x287 JUMPI MLOAD DUP1 ISZERO ISZERO DUP2 SUB PUSH3 0x287 JUMPI SWAP1 JUMP JUMPDEST SWAP1 DUP2 PUSH1 0x60 SWAP2 SUB SLT PUSH3 0x287 JUMPI DUP1 MLOAD SWAP2 PUSH1 0x40 PUSH1 0x20 DUP4 ADD MLOAD SWAP3 ADD MLOAD SWAP1 JUMP JUMPDEST SWAP1 SWAP3 SWAP2 PUSH1 0x1 PUSH1 0x1 PUSH1 0x40 SHL SUB DUP2 GT PUSH3 0x1ADB JUMPI PUSH3 0x1D79 DUP2 PUSH3 0x17B7 DUP5 SLOAD PUSH3 0x1A82 JUMP JUMPDEST PUSH1 0x0 PUSH1 0x1F DUP3 GT PUSH1 0x1 EQ PUSH3 0x1DBD JUMPI DUP2 SWAP1 PUSH3 0x1DAD SWAP4 SWAP5 SWAP6 PUSH1 0x0 SWAP3 PUSH3 0x1DB1 JUMPI POP POP DUP2 PUSH1 0x1 SHL SWAP2 PUSH1 0x0 NOT SWAP1 PUSH1 0x3 SHL SHR NOT AND OR SWAP1 JUMP JUMPDEST SWAP1 SSTORE JUMP JUMPDEST ADD CALLDATALOAD SWAP1 POP CODESIZE DUP1 PUSH3 0xC5E JUMP JUMPDEST PUSH1 0x1F NOT DUP3 AND SWAP5 DUP4 DUP3 MSTORE PUSH1 0x20 SWAP2 PUSH1 0x20 DUP2 KECCAK256 SWAP3 DUP2 SWAP1 JUMPDEST DUP9 DUP3 LT PUSH3 0x1E0D JUMPI POP POP DUP4 PUSH1 0x1 SWAP6 SWAP7 SWAP8 LT PUSH3 0x1DF2 JUMPI JUMPDEST POP POP POP DUP2 SHL ADD SWAP1 SSTORE JUMP JUMPDEST ADD CALLDATALOAD PUSH1 0x0 NOT PUSH1 0x3 DUP5 SWAP1 SHL PUSH1 0xF8 AND SHR NOT AND SWAP1 SSTORE CODESIZE DUP1 DUP1 PUSH3 0x1DE8 JUMP JUMPDEST DUP1 PUSH1 0x1 DUP5 SWAP7 DUP3 SWAP5 SWAP6 DUP8 ADD CALLDATALOAD DUP2 SSTORE ADD SWAP6 ADD SWAP3 ADD SWAP1 PUSH3 0x1DD1 JUMP JUMPDEST SWAP1 CALLDATALOAD SWAP1 PUSH1 0x1E NOT DUP2 CALLDATASIZE SUB ADD DUP3 SLT ISZERO PUSH3 0x287 JUMPI ADD DUP1 CALLDATALOAD SWAP1 PUSH1 0x1 PUSH1 0x1 PUSH1 0x40 SHL SUB DUP3 GT PUSH3 0x287 JUMPI PUSH1 0x20 ADD SWAP2 DUP2 CALLDATASIZE SUB DUP4 SGT PUSH3 0x287 JUMPI JUMP JUMPDEST CALLDATALOAD PUSH1 0x1 PUSH1 0x1 PUSH1 0xA0 SHL SUB DUP2 AND DUP2 SUB PUSH3 0x287 JUMPI SWAP1 JUMP JUMPDEST PUSH1 0x0 SLOAD PUSH1 0x1 PUSH1 0x1 PUSH1 0xA0 SHL SUB AND CALLER SUB PUSH3 0x1E85 JUMPI JUMP JUMPDEST PUSH1 0x64 PUSH1 0x40 MLOAD PUSH3 0x461BCD PUSH1 0xE5 SHL DUP2 MSTORE PUSH1 0x20 PUSH1 0x4 DUP3 ADD MSTORE PUSH1 0x20 PUSH1 0x24 DUP3 ADD MSTORE PUSH32 0x4F776E61626C653A2063616C6C6572206973206E6F7420746865206F776E6572 PUSH1 0x44 DUP3 ADD MSTORE REVERT JUMPDEST PUSH1 0x2 PUSH1 0x1 SLOAD EQ PUSH3 0x1EDB JUMPI PUSH1 0x2 PUSH1 0x1 SSTORE JUMP JUMPDEST PUSH1 0x40 MLOAD PUSH3 0x461BCD PUSH1 0xE5 SHL DUP2 MSTORE PUSH1 0x20 PUSH1 0x4 DUP3 ADD MSTORE PUSH1 0x1F PUSH1 0x24 DUP3 ADD MSTORE PUSH32 0x5265656E7472616E637947756172643A207265656E7472616E742063616C6C00 PUSH1 0x44 DUP3 ADD MSTORE PUSH1 0x64 SWAP1 REVERT INVALID PUSH1 0x80 PUSH1 0x40 MSTORE CALLVALUE PUSH3 0x84D JUMPI PUSH3 0x213E DUP1 CODESIZE SUB DUP1 PUSH3 0x1D DUP2 PUSH3 0x852 JUMP JUMPDEST SWAP3 DUP4 CODECOPY DUP2 ADD SWAP1 PUSH2 0x1C0 DUP2 DUP4 SUB SLT PUSH3 0x84D JUMPI DUP1 MLOAD PUSH1 0x1 PUSH1 0x1 PUSH1 0x40 SHL SUB DUP2 GT PUSH3 0x84D JUMPI DUP3 PUSH3 0x4E SWAP2 DUP4 ADD PUSH3 0x878 JUMP JUMPDEST PUSH1 0x20 DUP3 ADD MLOAD SWAP1 SWAP3 PUSH1 0x1 PUSH1 0x1 PUSH1 0x40 SHL SUB DUP3 GT PUSH3 0x84D JUMPI PUSH3 0x71 SWAP2 DUP4 ADD PUSH3 0x878 JUMP JUMPDEST SWAP2 PUSH1 0x40 DUP3 ADD MLOAD SWAP2 PUSH1 0x60 DUP2 ADD MLOAD SWAP3 PUSH1 0x80 DUP3 ADD MLOAD SWAP5 PUSH1 0xA0 DUP4 ADD MLOAD SWAP6 DUP7 ISZERO ISZERO DUP8 SUB PUSH3 0x84D JUMPI PUSH1 0xC0 DUP5 ADD MLOAD PUSH3 0xA7 PUSH1 0xE0 DUP7 ADD PUSH3 0x8EA JUMP JUMPDEST SWAP3 PUSH2 0x100 DUP7 ADD MLOAD SWAP1 PUSH2 0x120 DUP8 ADD MLOAD SWAP3 PUSH2 0x140 DUP9 ADD MLOAD SWAP5 PUSH3 0xCC PUSH2 0x160 DUP11 ADD PUSH3 0x8EA JUMP JUMPDEST SWAP3 PUSH3 0xEB PUSH2 0x1A0 PUSH3 0xE3 PUSH2 0x180 DUP14 ADD PUSH3 0x8EA JUMP JUMPDEST SWAP12 ADD PUSH3 0x8EA JUMP JUMPDEST DUP12 MLOAD SWAP1 SWAP12 PUSH1 0x1 PUSH1 0x1 PUSH1 0x40 SHL SUB DUP3 GT PUSH3 0x71C JUMPI PUSH1 0x3 SLOAD SWAP1 PUSH1 0x1 DUP3 DUP2 SHR SWAP3 AND DUP1 ISZERO PUSH3 0x842 JUMPI JUMPDEST PUSH1 0x20 DUP4 LT EQ PUSH3 0x6FB JUMPI DUP2 PUSH1 0x1F DUP5 SWAP4 GT PUSH3 0x7CD JUMPI JUMPDEST POP PUSH1 0x20 SWAP1 PUSH1 0x1F DUP4 GT PUSH1 0x1 EQ PUSH3 0x73E JUMPI PUSH1 0x0 SWAP3 PUSH3 0x732 JUMPI JUMPDEST POP POP DUP2 PUSH1 0x1 SHL SWAP2 PUSH1 0x0 NOT SWAP1 PUSH1 0x3 SHL SHR NOT AND OR PUSH1 0x3 SSTORE JUMPDEST DUP1 MLOAD SWAP1 PUSH1 0x1 PUSH1 0x1 PUSH1 0x40 SHL SUB DUP3 GT PUSH3 0x71C JUMPI PUSH1 0x4 SLOAD SWAP1 PUSH1 0x1 DUP3 DUP2 SHR SWAP3 AND DUP1 ISZERO PUSH3 0x711 JUMPI JUMPDEST PUSH1 0x20 DUP4 LT EQ PUSH3 0x6FB JUMPI DUP2 PUSH1 0x1F DUP5 SWAP4 GT PUSH3 0x689 JUMPI JUMPDEST POP PUSH1 0x20 SWAP1 PUSH1 0x1F DUP4 GT PUSH1 0x1 EQ PUSH3 0x5FA JUMPI PUSH1 0x0 SWAP3 PUSH3 0x5EE JUMPI JUMPDEST POP POP DUP2 PUSH1 0x1 SHL SWAP2 PUSH1 0x0 NOT SWAP1 PUSH1 0x3 SHL SHR NOT AND OR PUSH1 0x4 SSTORE JUMPDEST PUSH3 0x1CB CALLER PUSH3 0x923 JUMP JUMPDEST PUSH1 0x1 PUSH1 0x6 SSTORE DUP8 ISZERO PUSH3 0x59D JUMPI DUP8 DUP12 GT PUSH3 0x53E JUMPI DUP8 DUP2 GT PUSH3 0x4E4 JUMPI PUSH1 0x19 PUSH3 0x200 DUP8 PUSH3 0x1FA DUP9 DUP9 PUSH3 0x8FF JUMP JUMPDEST PUSH3 0x8FF JUMP JUMPDEST GT PUSH3 0x49F JUMPI PUSH1 0x1 PUSH1 0x1 PUSH1 0xA0 SHL SUB SWAP3 DUP4 AND SWAP9 DUP10 ISZERO PUSH3 0x44A JUMPI DUP4 AND SWAP10 DUP11 ISZERO PUSH3 0x3F3 JUMPI DUP4 AND SWAP11 DUP12 ISZERO PUSH3 0x399 JUMPI CALLER ISZERO PUSH3 0x354 JUMPI DUP9 PUSH3 0x244 DUP14 SWAP11 PUSH1 0x2 SLOAD PUSH3 0x8FF JUMP JUMPDEST PUSH1 0x2 SSTORE CALLER PUSH1 0x0 MSTORE PUSH1 0x0 PUSH1 0x20 MSTORE PUSH1 0x40 PUSH1 0x0 KECCAK256 DUP2 DUP2 SLOAD ADD SWAP1 SSTORE PUSH1 0x40 MLOAD SWAP1 DUP2 MSTORE PUSH1 0x0 PUSH32 0xDDF252AD1BE2C89B69C2B068FC378DAA952BA7F163C4A11628F55A4DF523B3EF PUSH1 0x20 CALLER SWAP4 LOG3 PUSH1 0x9 SSTORE PUSH1 0xA SSTORE PUSH1 0xFF NOT SWAP11 PUSH1 0xFF DUP13 PUSH1 0x7 SLOAD AND SWAP2 ISZERO ISZERO AND OR PUSH1 0x7 SSTORE PUSH1 0x8 SSTORE PUSH1 0x1 DUP1 PUSH1 0xA0 SHL SUB NOT SWAP5 AND DUP5 PUSH1 0xB SLOAD AND OR PUSH1 0xB SSTORE PUSH1 0xD SSTORE PUSH1 0xE SSTORE PUSH1 0xF SSTORE DUP3 DUP2 PUSH1 0x10 SLOAD AND OR PUSH1 0x10 SSTORE DUP4 DUP2 PUSH1 0x11 SLOAD AND OR PUSH1 0x11 SSTORE PUSH1 0x12 SLOAD AND OR PUSH1 0x12 SSTORE CALLER PUSH1 0x0 MSTORE PUSH1 0x13 PUSH1 0x20 MSTORE PUSH1 0x40 PUSH1 0x0 KECCAK256 PUSH1 0x1 DUP6 DUP3 SLOAD AND OR SWAP1 SSTORE ADDRESS PUSH1 0x0 MSTORE PUSH1 0x40 PUSH1 0x0 KECCAK256 PUSH1 0x1 DUP6 DUP3 SLOAD AND OR SWAP1 SSTORE PUSH1 0x0 MSTORE PUSH1 0x40 PUSH1 0x0 KECCAK256 PUSH1 0x1 DUP5 DUP3 SLOAD AND OR SWAP1 SSTORE PUSH1 0x0 MSTORE PUSH1 0x40 PUSH1 0x0 KECCAK256 PUSH1 0x1 DUP4 DUP3 SLOAD AND OR SWAP1 SSTORE PUSH1 0x0 MSTORE PUSH1 0x1 PUSH1 0x40 PUSH1 0x0 KECCAK256 SWAP2 DUP3 SLOAD AND OR SWAP1 SSTORE PUSH3 0x344 CALLER PUSH3 0x923 JUMP JUMPDEST PUSH1 0x40 MLOAD PUSH2 0x17D1 SWAP1 DUP2 PUSH3 0x96D DUP3 CODECOPY RETURN JUMPDEST PUSH1 0x40 MLOAD PUSH3 0x461BCD PUSH1 0xE5 SHL DUP2 MSTORE PUSH1 0x20 PUSH1 0x4 DUP3 ADD MSTORE PUSH1 0x1F PUSH1 0x24 DUP3 ADD MSTORE PUSH32 0x45524332303A206D696E7420746F20746865207A65726F206164647265737300 PUSH1 0x44 DUP3 ADD MSTORE PUSH1 0x64 SWAP1 REVERT JUMPDEST PUSH1 0x40 MLOAD PUSH3 0x461BCD PUSH1 0xE5 SHL DUP2 MSTORE PUSH1 0x20 PUSH1 0x4 DUP3 ADD MSTORE PUSH1 0x2C PUSH1 0x24 DUP3 ADD MSTORE PUSH32 0x4175746F2D6C69717569646974792077616C6C65742063616E6E6F7420626520 PUSH1 0x44 DUP3 ADD MSTORE PUSH12 0x7A65726F2061646472657373 PUSH1 0xA0 SHL PUSH1 0x64 DUP3 ADD MSTORE PUSH1 0x84 SWAP1 REVERT JUMPDEST PUSH1 0x40 MLOAD PUSH3 0x461BCD PUSH1 0xE5 SHL DUP2 MSTORE PUSH1 0x20 PUSH1 0x4 DUP3 ADD MSTORE PUSH1 0x29 PUSH1 0x24 DUP3 ADD MSTORE PUSH32 0x446576656C6F706D656E742077616C6C65742063616E6E6F74206265207A6572 PUSH1 0x44 DUP3 ADD MSTORE PUSH9 0x6F2061646472657373 PUSH1 0xB8 SHL PUSH1 0x64 DUP3 ADD MSTORE PUSH1 0x84 SWAP1 REVERT JUMPDEST PUSH1 0x40 MLOAD PUSH3 0x461BCD PUSH1 0xE5 SHL DUP2 MSTORE PUSH1 0x20 PUSH1 0x4 DUP3 ADD MSTORE PUSH1 0x27 PUSH1 0x24 DUP3 ADD MSTORE PUSH32 0x4D61726B6574696E672077616C6C65742063616E6E6F74206265207A65726F20 PUSH1 0x44 DUP3 ADD MSTORE PUSH7 0x61646472657373 PUSH1 0xC8 SHL PUSH1 0x64 DUP3 ADD MSTORE PUSH1 0x84 SWAP1 REVERT JUMPDEST PUSH1 0x40 MLOAD PUSH3 0x461BCD PUSH1 0xE5 SHL DUP2 MSTORE PUSH1 0x20 PUSH1 0x4 DUP3 ADD MSTORE PUSH1 0x1C PUSH1 0x24 DUP3 ADD MSTORE PUSH32 0x546F74616C20666565732063616E6E6F74206578636565642032352500000000 PUSH1 0x44 DUP3 ADD MSTORE PUSH1 0x64 SWAP1 REVERT JUMPDEST PUSH1 0x40 MLOAD PUSH3 0x461BCD PUSH1 0xE5 SHL DUP2 MSTORE PUSH1 0x20 PUSH1 0x4 DUP3 ADD MSTORE PUSH1 0x2C PUSH1 0x24 DUP3 ADD MSTORE PUSH32 0x4D61782077616C6C657420616D6F756E742063616E6E6F742065786365656420 PUSH1 0x44 DUP3 ADD MSTORE PUSH12 0x746F74616C20737570706C79 PUSH1 0xA0 SHL PUSH1 0x64 DUP3 ADD MSTORE PUSH1 0x84 SWAP1 REVERT JUMPDEST PUSH1 0x40 MLOAD PUSH3 0x461BCD PUSH1 0xE5 SHL DUP2 MSTORE PUSH1 0x20 PUSH1 0x4 DUP3 ADD MSTORE PUSH1 0x31 PUSH1 0x24 DUP3 ADD MSTORE PUSH32 0x4D6178207472616E73616374696F6E20616D6F756E742063616E6E6F74206578 PUSH1 0x44 DUP3 ADD MSTORE PUSH17 0x6365656420746F74616C20737570706C79 PUSH1 0x78 SHL PUSH1 0x64 DUP3 ADD MSTORE PUSH1 0x84 SWAP1 REVERT JUMPDEST PUSH1 0x40 MLOAD PUSH3 0x461BCD PUSH1 0xE5 SHL DUP2 MSTORE PUSH1 0x20 PUSH1 0x4 DUP3 ADD MSTORE PUSH1 0x23 PUSH1 0x24 DUP3 ADD MSTORE PUSH32 0x546F74616C20737570706C79206D757374206265206772656174657220746861 PUSH1 0x44 DUP3 ADD MSTORE PUSH3 0x6E203 PUSH1 0xEC SHL PUSH1 0x64 DUP3 ADD MSTORE PUSH1 0x84 SWAP1 REVERT JUMPDEST ADD MLOAD SWAP1 POP CODESIZE DUP1 PUSH3 0x1AA JUMP JUMPDEST PUSH1 0x4 PUSH1 0x0 SWAP1 DUP2 MSTORE SWAP4 POP PUSH32 0x8A35ACFBC15FF81A39AE7D344FD709F28E8600B4AA8C65C6B64BFE7FE36BD19B SWAP2 SWAP1 JUMPDEST PUSH1 0x1F NOT DUP5 AND DUP6 LT PUSH3 0x66D JUMPI PUSH1 0x1 SWAP5 POP DUP4 PUSH1 0x1F NOT DUP2 AND LT PUSH3 0x653 JUMPI JUMPDEST POP POP POP DUP2 SHL ADD PUSH1 0x4 SSTORE PUSH3 0x1C0 JUMP JUMPDEST ADD MLOAD PUSH1 0x0 NOT PUSH1 0xF8 DUP5 PUSH1 0x3 SHL AND SHR NOT AND SWAP1 SSTORE CODESIZE DUP1 DUP1 PUSH3 0x644 JUMP JUMPDEST DUP2 DUP2 ADD MLOAD DUP4 SSTORE PUSH1 0x20 SWAP5 DUP6 ADD SWAP5 PUSH1 0x1 SWAP1 SWAP4 ADD SWAP3 SWAP1 SWAP2 ADD SWAP1 PUSH3 0x627 JUMP JUMPDEST PUSH1 0x4 PUSH1 0x0 MSTORE SWAP1 SWAP2 POP PUSH32 0x8A35ACFBC15FF81A39AE7D344FD709F28E8600B4AA8C65C6B64BFE7FE36BD19B PUSH1 0x1F DUP5 ADD PUSH1 0x5 SHR DUP2 ADD PUSH1 0x20 DUP6 LT PUSH3 0x6F3 JUMPI JUMPDEST SWAP1 DUP5 SWAP4 SWAP3 SWAP2 JUMPDEST PUSH1 0x1F DUP4 ADD PUSH1 0x5 SHR DUP3 ADD DUP2 LT PUSH3 0x6E3 JUMPI POP POP PUSH3 0x191 JUMP JUMPDEST PUSH1 0x0 DUP2 SSTORE DUP6 SWAP5 POP PUSH1 0x1 ADD PUSH3 0x6CB JUMP JUMPDEST POP DUP1 PUSH3 0x6C5 JUMP JUMPDEST PUSH4 0x4E487B71 PUSH1 0xE0 SHL PUSH1 0x0 MSTORE PUSH1 0x22 PUSH1 0x4 MSTORE PUSH1 0x24 PUSH1 0x0 REVERT JUMPDEST SWAP2 PUSH1 0x7F AND SWAP2 PUSH3 0x17B JUMP JUMPDEST PUSH4 0x4E487B71 PUSH1 0xE0 SHL PUSH1 0x0 MSTORE PUSH1 0x41 PUSH1 0x4 MSTORE PUSH1 0x24 PUSH1 0x0 REVERT JUMPDEST ADD MLOAD SWAP1 POP CODESIZE DUP1 PUSH3 0x140 JUMP JUMPDEST PUSH1 0x3 PUSH1 0x0 SWAP1 DUP2 MSTORE SWAP4 POP PUSH32 0xC2575A0E9E593C00F959F8C92F12DB2869C3395A3B0502D05E2516446F71F85B SWAP2 SWAP1 JUMPDEST PUSH1 0x1F NOT DUP5 AND DUP6 LT PUSH3 0x7B1 JUMPI PUSH1 0x1 SWAP5 POP DUP4 PUSH1 0x1F NOT DUP2 AND LT PUSH3 0x797 JUMPI JUMPDEST POP POP POP DUP2 SHL ADD PUSH1 0x3 SSTORE PUSH3 0x156 JUMP JUMPDEST ADD MLOAD PUSH1 0x0 NOT PUSH1 0xF8 DUP5 PUSH1 0x3 SHL AND SHR NOT AND SWAP1 SSTORE CODESIZE DUP1 DUP1 PUSH3 0x788 JUMP JUMPDEST DUP2 DUP2 ADD MLOAD DUP4 SSTORE PUSH1 0x20 SWAP5 DUP6 ADD SWAP5 PUSH1 0x1 SWAP1 SWAP4 ADD SWAP3 SWAP1 SWAP2 ADD SWAP1 PUSH3 0x76B JUMP JUMPDEST PUSH1 0x3 PUSH1 0x0 MSTORE SWAP1 SWAP2 POP PUSH32 0xC2575A0E9E593C00F959F8C92F12DB2869C3395A3B0502D05E2516446F71F85B PUSH1 0x1F DUP5 ADD PUSH1 0x5 SHR DUP2 ADD SWAP2 PUSH1 0x20 DUP6 LT PUSH3 0x837 JUMPI JUMPDEST SWAP1 PUSH1 0x1F DUP6 SWAP5 SWAP4 SWAP3 ADD PUSH1 0x5 SHR ADD SWAP1 JUMPDEST DUP2 DUP2 LT PUSH3 0x827 JUMPI POP PUSH3 0x127 JUMP JUMPDEST PUSH1 0x0 DUP2 SSTORE DUP5 SWAP4 POP PUSH1 0x1 ADD PUSH3 0x818 JUMP JUMPDEST SWAP1 SWAP2 POP DUP2 SWAP1 PUSH3 0x80A JUMP JUMPDEST SWAP2 PUSH1 0x7F AND SWAP2 PUSH3 0x111 JUMP JUMPDEST PUSH1 0x0 DUP1 REVERT JUMPDEST PUSH1 0x40 MLOAD SWAP2 SWAP1 PUSH1 0x1F ADD PUSH1 0x1F NOT AND DUP3 ADD PUSH1 0x1 PUSH1 0x1 PUSH1 0x40 SHL SUB DUP2 GT DUP4 DUP3 LT OR PUSH3 0x71C JUMPI PUSH1 0x40 MSTORE JUMP JUMPDEST SWAP2 SWAP1 DUP1 PUSH1 0x1F DUP5 ADD SLT ISZERO PUSH3 0x84D JUMPI DUP3 MLOAD PUSH1 0x1 PUSH1 0x1 PUSH1 0x40 SHL SUB DUP2 GT PUSH3 0x71C JUMPI PUSH1 0x20 SWAP1 PUSH3 0x8AE PUSH1 0x1F DUP3 ADD PUSH1 0x1F NOT AND DUP4 ADD PUSH3 0x852 JUMP JUMPDEST SWAP3 DUP2 DUP5 MSTORE DUP3 DUP3 DUP8 ADD ADD GT PUSH3 0x84D JUMPI PUSH1 0x0 JUMPDEST DUP2 DUP2 LT PUSH3 0x8D6 JUMPI POP DUP3 PUSH1 0x0 SWAP4 SWAP5 SWAP6 POP ADD ADD MSTORE SWAP1 JUMP JUMPDEST DUP6 DUP2 ADD DUP4 ADD MLOAD DUP5 DUP3 ADD DUP5 ADD MSTORE DUP3 ADD PUSH3 0x8C0 JUMP JUMPDEST MLOAD SWAP1 PUSH1 0x1 PUSH1 0x1 PUSH1 0xA0 SHL SUB DUP3 AND DUP3 SUB PUSH3 0x84D JUMPI JUMP JUMPDEST SWAP2 SWAP1 DUP3 ADD DUP1 SWAP3 GT PUSH3 0x90D JUMPI JUMP JUMPDEST PUSH4 0x4E487B71 PUSH1 0xE0 SHL PUSH1 0x0 MSTORE PUSH1 0x11 PUSH1 0x4 MSTORE PUSH1 0x24 PUSH1 0x0 REVERT JUMPDEST PUSH1 0x5 DUP1 SLOAD PUSH1 0x1 PUSH1 0x1 PUSH1 0xA0 SHL SUB SWAP3 DUP4 AND PUSH1 0x1 PUSH1 0x1 PUSH1 0xA0 SHL SUB NOT DUP3 AND DUP2 OR SWAP1 SWAP3 SSTORE SWAP1 SWAP2 AND PUSH32 0x8BE0079C531659141344CD1FD0A4F28419497F9722A3DAAFE3B4186F6B6457E0 PUSH1 0x0 DUP1 LOG3 JUMP INVALID PUSH1 0x80 PUSH1 0x40 DUP2 DUP2 MSTORE PUSH1 0x4 SWAP2 DUP3 CALLDATASIZE LT ISZERO PUSH2 0x16 JUMPI PUSH1 0x0 DUP1 REVERT JUMPDEST PUSH1 0x0 SWAP3 DUP4 CALLDATALOAD PUSH1 0xE0 SHR SWAP2 DUP3 PUSH4 0x6FDDE03 EQ PUSH2 0xD92 JUMPI POP DUP2 PUSH4 0x758D924 EQ PUSH2 0xD69 JUMPI DUP2 PUSH4 0x95EA7B3 EQ PUSH2 0xD3F JUMPI DUP2 PUSH4 0xC439F93 EQ PUSH2 0xD16 JUMPI DUP2 PUSH4 0x153B0D1E EQ PUSH2 0xC96 JUMPI DUP2 PUSH4 0x18160DDD EQ PUSH2 0xC77 JUMPI DUP2 PUSH4 0x23B872DD EQ PUSH2 0xBAD JUMPI DUP2 PUSH4 0x27A14FC2 EQ PUSH2 0xB46 JUMPI DUP2 PUSH4 0x313CE567 EQ PUSH2 0xB2A JUMPI DUP2 PUSH4 0x39509351 EQ PUSH2 0xADA JUMPI DUP2 PUSH4 0x4ADA218B EQ PUSH2 0xAB6 JUMPI DUP2 PUSH4 0x5E298790 EQ PUSH2 0xA97 JUMPI DUP2 PUSH4 0x606E1B81 EQ PUSH2 0xA7A JUMPI DUP2 PUSH4 0x70A08231 EQ PUSH2 0xA37 JUMPI DUP2 PUSH4 0x70B7B80C EQ PUSH2 0xA18 JUMPI DUP2 PUSH4 0x715018A6 EQ PUSH2 0x9BB JUMPI DUP2 PUSH4 0x75CB1BD1 EQ PUSH2 0x8DE JUMPI DUP2 PUSH4 0x75F0A874 EQ PUSH2 0x8B5 JUMPI DUP2 PUSH4 0x80ADA68A EQ PUSH2 0x896 JUMPI DUP2 PUSH4 0x8A8C523C EQ PUSH2 0x7DF JUMPI DUP2 PUSH4 0x8C0B5E22 EQ PUSH2 0x7C0 JUMPI DUP2 PUSH4 0x8DA5CB5B EQ PUSH2 0x797 JUMPI DUP2 PUSH4 0x95D89B41 EQ PUSH2 0x692 JUMPI DUP2 PUSH4 0x9E4E7318 EQ PUSH2 0x657 JUMPI DUP2 PUSH4 0x9F7B0ED5 EQ PUSH2 0x614 JUMPI DUP2 PUSH4 0xA457C2D7 EQ PUSH2 0x56C JUMPI DUP2 PUSH4 0xA9059CBB EQ PUSH2 0x53B JUMPI DUP2 PUSH4 0xAA4BDE28 EQ PUSH2 0x51C JUMPI DUP2 PUSH4 0xC04A5414 EQ PUSH2 0x4F3 JUMPI DUP2 PUSH4 0xC1A68121 EQ PUSH2 0x4B5 JUMPI DUP2 PUSH4 0xDD62ED3E EQ PUSH2 0x46C JUMPI DUP2 PUSH4 0xDE37610E EQ PUSH2 0x44D JUMPI DUP2 PUSH4 0xE9DAE5ED EQ PUSH2 0x382 JUMPI DUP2 PUSH4 0xEC28438A EQ PUSH2 0x31B JUMPI DUP2 PUSH4 0xF242AB41 EQ PUSH2 0x2F2 JUMPI DUP2 PUSH4 0xF2FDE38B EQ PUSH2 0x222 JUMPI POP DUP1 PUSH4 0xFE575A87 EQ PUSH2 0x1E5 JUMPI PUSH4 0xFFA1AD74 EQ PUSH2 0x1C7 JUMPI PUSH1 0x0 DUP1 REVERT JUMPDEST CALLVALUE PUSH2 0x1E1 JUMPI DUP2 PUSH1 0x3 NOT CALLDATASIZE ADD SLT PUSH2 0x1E1 JUMPI PUSH1 0x20 SWAP1 MLOAD PUSH1 0x2 DUP2 MSTORE RETURN JUMPDEST POP DUP1 REVERT JUMPDEST POP CALLVALUE PUSH2 0x1E1 JUMPI PUSH1 0x20 CALLDATASIZE PUSH1 0x3 NOT ADD SLT PUSH2 0x1E1 JUMPI PUSH1 0x20 SWAP2 PUSH1 0xFF SWAP1 DUP3 SWAP1 PUSH1 0x1 PUSH1 0x1 PUSH1 0xA0 SHL SUB PUSH2 0x20F PUSH2 0xED0 JUMP JUMPDEST AND DUP2 MSTORE PUSH1 0x14 DUP6 MSTORE KECCAK256 SLOAD AND SWAP1 MLOAD SWAP1 ISZERO ISZERO DUP2 MSTORE RETURN JUMPDEST SWAP1 POP CALLVALUE PUSH2 0x2EE JUMPI PUSH1 0x20 CALLDATASIZE PUSH1 0x3 NOT ADD SLT PUSH2 0x2EE JUMPI PUSH2 0x23D PUSH2 0xED0 JUMP JUMPDEST SWAP1 PUSH2 0x246 PUSH2 0x116D JUMP JUMPDEST PUSH1 0x1 PUSH1 0x1 PUSH1 0xA0 SHL SUB SWAP2 DUP3 AND SWAP3 DUP4 ISZERO PUSH2 0x29C JUMPI POP POP PUSH1 0x5 SLOAD DUP3 PUSH12 0xFFFFFFFFFFFFFFFFFFFFFFFF PUSH1 0xA0 SHL DUP3 AND OR PUSH1 0x5 SSTORE AND PUSH32 0x8BE0079C531659141344CD1FD0A4F28419497F9722A3DAAFE3B4186F6B6457E0 DUP4 DUP1 LOG3 DUP1 RETURN JUMPDEST SWAP1 PUSH1 0x20 PUSH1 0x84 SWAP3 MLOAD SWAP2 PUSH3 0x461BCD PUSH1 0xE5 SHL DUP4 MSTORE DUP3 ADD MSTORE PUSH1 0x26 PUSH1 0x24 DUP3 ADD MSTORE PUSH32 0x4F776E61626C653A206E6577206F776E657220697320746865207A65726F2061 PUSH1 0x44 DUP3 ADD MSTORE PUSH6 0x646472657373 PUSH1 0xD0 SHL PUSH1 0x64 DUP3 ADD MSTORE REVERT JUMPDEST DUP3 DUP1 REVERT JUMPDEST POP POP CALLVALUE PUSH2 0x1E1 JUMPI DUP2 PUSH1 0x3 NOT CALLDATASIZE ADD SLT PUSH2 0x1E1 JUMPI PUSH1 0xC SLOAD SWAP1 MLOAD PUSH1 0x1 PUSH1 0x1 PUSH1 0xA0 SHL SUB SWAP1 SWAP2 AND DUP2 MSTORE PUSH1 0x20 SWAP1 RETURN JUMPDEST SWAP1 POP CALLVALUE PUSH2 0x2EE JUMPI PUSH1 0x20 CALLDATASIZE PUSH1 0x3 NOT ADD SLT PUSH2 0x2EE JUMPI PUSH32 0x947F344D56E1E8C70DC492FB94C4DDDDD490C016AAB685F5E7E47B2E85CB44CF SWAP2 PUSH1 0x20 SWAP2 CALLDATALOAD SWAP1 PUSH2 0x35D PUSH2 0x116D JUMP JUMPDEST PUSH2 0x368 DUP3 ISZERO ISZERO PUSH2 0xFA6 JUMP JUMPDEST PUSH2 0x376 PUSH1 0x2 SLOAD DUP4 GT ISZERO PUSH2 0xFF2 JUMP JUMPDEST DUP2 PUSH1 0x9 SSTORE MLOAD SWAP1 DUP2 MSTORE LOG1 DUP1 RETURN JUMPDEST DUP4 SWAP2 POP CALLVALUE PUSH2 0x1E1 JUMPI PUSH1 0x60 CALLDATASIZE PUSH1 0x3 NOT ADD SLT PUSH2 0x1E1 JUMPI DUP1 CALLDATALOAD PUSH1 0x24 CALLDATALOAD SWAP1 PUSH1 0x44 CALLDATALOAD SWAP3 PUSH2 0x3A8 PUSH2 0x116D JUMP JUMPDEST PUSH1 0x19 PUSH2 0x3BD DUP6 PUSH2 0x3B8 DUP7 DUP7 PUSH2 0x1048 JUMP JUMPDEST PUSH2 0x1048 JUMP JUMPDEST GT PUSH2 0x40A JUMPI POP PUSH2 0x401 PUSH32 0x8A9CBB7BD5BAB504D3FC44931790235EE0C3011FEECAA62967A37E3F934146B SWAP4 PUSH2 0x3B8 PUSH1 0x20 SWAP5 DUP5 DUP10 SWAP6 PUSH1 0xD SSTORE DUP2 PUSH1 0xE SSTORE DUP4 PUSH1 0xF SSTORE PUSH2 0x1048 JUMP JUMPDEST SWAP1 MLOAD SWAP1 DUP2 MSTORE LOG1 DUP1 RETURN JUMPDEST PUSH1 0x64 SWAP1 PUSH1 0x20 DUP8 MLOAD SWAP2 PUSH3 0x461BCD PUSH1 0xE5 SHL DUP4 MSTORE DUP3 ADD MSTORE PUSH1 0x1C PUSH1 0x24 DUP3 ADD MSTORE PUSH32 0x546F74616C20666565732063616E6E6F74206578636565642032352500000000 PUSH1 0x44 DUP3 ADD MSTORE REVERT JUMPDEST POP POP CALLVALUE PUSH2 0x1E1 JUMPI DUP2 PUSH1 0x3 NOT CALLDATASIZE ADD SLT PUSH2 0x1E1 JUMPI PUSH1 0x20 SWAP1 PUSH1 0xF SLOAD SWAP1 MLOAD SWAP1 DUP2 MSTORE RETURN JUMPDEST POP POP CALLVALUE PUSH2 0x1E1 JUMPI DUP1 PUSH1 0x3 NOT CALLDATASIZE ADD SLT PUSH2 0x1E1 JUMPI DUP1 PUSH1 0x20 SWAP3 PUSH2 0x48A PUSH2 0xED0 JUMP JUMPDEST PUSH2 0x492 PUSH2 0xEEB JUMP JUMPDEST PUSH1 0x1 PUSH1 0x1 PUSH1 0xA0 SHL SUB SWAP2 DUP3 AND DUP4 MSTORE PUSH1 0x1 DUP7 MSTORE DUP4 DUP4 KECCAK256 SWAP2 AND DUP3 MSTORE DUP5 MSTORE KECCAK256 SLOAD SWAP1 MLOAD SWAP1 DUP2 MSTORE RETURN JUMPDEST POP POP CALLVALUE PUSH2 0x1E1 JUMPI PUSH1 0x20 CALLDATASIZE PUSH1 0x3 NOT ADD SLT PUSH2 0x1E1 JUMPI PUSH1 0x20 SWAP2 PUSH1 0xFF SWAP1 DUP3 SWAP1 PUSH1 0x1 PUSH1 0x1 PUSH1 0xA0 SHL SUB PUSH2 0x4E0 PUSH2 0xED0 JUMP JUMPDEST AND DUP2 MSTORE PUSH1 0x13 DUP6 MSTORE KECCAK256 SLOAD AND SWAP1 MLOAD SWAP1 ISZERO ISZERO DUP2 MSTORE RETURN JUMPDEST POP POP CALLVALUE PUSH2 0x1E1 JUMPI DUP2 PUSH1 0x3 NOT CALLDATASIZE ADD SLT PUSH2 0x1E1 JUMPI PUSH1 0x11 SLOAD SWAP1 MLOAD PUSH1 0x1 PUSH1 0x1 PUSH1 0xA0 SHL SUB SWAP1 SWAP2 AND DUP2 MSTORE PUSH1 0x20 SWAP1 RETURN JUMPDEST POP POP CALLVALUE PUSH2 0x1E1 JUMPI DUP2 PUSH1 0x3 NOT CALLDATASIZE ADD SLT PUSH2 0x1E1 JUMPI PUSH1 0x20 SWAP1 PUSH1 0xA SLOAD SWAP1 MLOAD SWAP1 DUP2 MSTORE RETURN JUMPDEST POP POP CALLVALUE PUSH2 0x1E1 JUMPI DUP1 PUSH1 0x3 NOT CALLDATASIZE ADD SLT PUSH2 0x1E1 JUMPI PUSH1 0x20 SWAP1 PUSH2 0x565 PUSH2 0x55B PUSH2 0xED0 JUMP JUMPDEST PUSH1 0x24 CALLDATALOAD SWAP1 CALLER PUSH2 0x11D8 JUMP JUMPDEST MLOAD PUSH1 0x1 DUP2 MSTORE RETURN JUMPDEST SWAP1 POP DUP3 CALLVALUE PUSH2 0x611 JUMPI DUP3 PUSH1 0x3 NOT CALLDATASIZE ADD SLT PUSH2 0x611 JUMPI PUSH2 0x587 PUSH2 0xED0 JUMP JUMPDEST SWAP2 DUP4 PUSH1 0x24 CALLDATALOAD SWAP3 CALLER DUP2 MSTORE PUSH1 0x1 PUSH1 0x20 MSTORE DUP2 DUP2 KECCAK256 PUSH1 0x1 DUP1 PUSH1 0xA0 SHL SUB DUP7 AND DUP3 MSTORE PUSH1 0x20 MSTORE KECCAK256 SLOAD SWAP1 DUP3 DUP3 LT PUSH2 0x5C0 JUMPI PUSH1 0x20 DUP6 PUSH2 0x565 DUP6 DUP6 SUB DUP8 CALLER PUSH2 0x106B JUMP JUMPDEST PUSH1 0x84 SWAP1 PUSH1 0x20 DUP7 MLOAD SWAP2 PUSH3 0x461BCD PUSH1 0xE5 SHL DUP4 MSTORE DUP3 ADD MSTORE PUSH1 0x25 PUSH1 0x24 DUP3 ADD MSTORE PUSH32 0x45524332303A2064656372656173656420616C6C6F77616E63652062656C6F77 PUSH1 0x44 DUP3 ADD MSTORE PUSH5 0x207A65726F PUSH1 0xD8 SHL PUSH1 0x64 DUP3 ADD MSTORE REVERT JUMPDEST DUP1 REVERT JUMPDEST POP POP CALLVALUE PUSH2 0x1E1 JUMPI PUSH2 0x654 SWAP1 PUSH2 0x628 CALLDATASIZE PUSH2 0xF01 JUMP JUMPDEST SWAP2 SWAP1 PUSH2 0x632 PUSH2 0x116D JUMP JUMPDEST PUSH1 0x1 DUP1 PUSH1 0xA0 SHL SUB AND DUP5 MSTORE PUSH1 0x13 PUSH1 0x20 MSTORE DUP4 KECCAK256 SWAP1 PUSH1 0xFF DUP1 NOT DUP4 SLOAD AND SWAP2 ISZERO ISZERO AND OR SWAP1 SSTORE JUMP JUMPDEST DUP1 RETURN JUMPDEST POP POP CALLVALUE PUSH2 0x1E1 JUMPI DUP2 PUSH1 0x3 NOT CALLDATASIZE ADD SLT PUSH2 0x1E1 JUMPI PUSH1 0x20 SWAP1 MLOAD PUSH32 0x97831D354A6F8B80F2034ECB74DED90ADDDA670141F845B47BCBB8C109BE18A2 DUP2 MSTORE RETURN JUMPDEST DUP4 DUP4 CALLVALUE PUSH2 0x1E1 JUMPI DUP2 PUSH1 0x3 NOT CALLDATASIZE ADD SLT PUSH2 0x1E1 JUMPI DUP1 MLOAD SWAP2 DUP1 SWAP4 DUP1 SLOAD SWAP2 PUSH1 0x1 SWAP1 DUP4 PUSH1 0x1 SHR SWAP3 PUSH1 0x1 DUP6 AND SWAP5 DUP6 ISZERO PUSH2 0x78D JUMPI JUMPDEST PUSH1 0x20 SWAP6 DUP7 DUP7 LT DUP2 EQ PUSH2 0x77A JUMPI DUP6 DUP10 MSTORE SWAP1 DUP2 ISZERO PUSH2 0x756 JUMPI POP PUSH1 0x1 EQ PUSH2 0x6FE JUMPI JUMPDEST PUSH2 0x6FA DUP8 DUP8 PUSH2 0x6F0 DUP3 DUP13 SUB DUP4 PUSH2 0xF30 JUMP JUMPDEST MLOAD SWAP2 DUP3 SWAP2 DUP3 PUSH2 0xE87 JUMP JUMPDEST SUB SWAP1 RETURN JUMPDEST DUP2 MSTORE SWAP3 SWAP6 POP PUSH32 0x8A35ACFBC15FF81A39AE7D344FD709F28E8600B4AA8C65C6B64BFE7FE36BD19B JUMPDEST DUP3 DUP5 LT PUSH2 0x743 JUMPI POP POP POP DUP3 PUSH2 0x6FA SWAP5 PUSH2 0x6F0 SWAP3 DUP3 ADD ADD SWAP5 DUP7 DUP1 PUSH2 0x6DF JUMP JUMPDEST DUP1 SLOAD DUP7 DUP6 ADD DUP9 ADD MSTORE SWAP3 DUP7 ADD SWAP3 DUP2 ADD PUSH2 0x725 JUMP JUMPDEST PUSH1 0xFF NOT AND DUP9 DUP8 ADD MSTORE POP POP POP POP ISZERO ISZERO PUSH1 0x5 SHL DUP4 ADD ADD SWAP3 POP PUSH2 0x6F0 DUP3 PUSH2 0x6FA DUP7 DUP1 PUSH2 0x6DF JUMP JUMPDEST PUSH4 0x4E487B71 PUSH1 0xE0 SHL DUP5 MSTORE PUSH1 0x22 DUP4 MSTORE PUSH1 0x24 DUP5 REVERT JUMPDEST SWAP4 PUSH1 0x7F AND SWAP4 PUSH2 0x6C0 JUMP JUMPDEST POP POP CALLVALUE PUSH2 0x1E1 JUMPI DUP2 PUSH1 0x3 NOT CALLDATASIZE ADD SLT PUSH2 0x1E1 JUMPI PUSH1 0x5 SLOAD SWAP1 MLOAD PUSH1 0x1 PUSH1 0x1 PUSH1 0xA0 SHL SUB SWAP1 SWAP2 AND DUP2 MSTORE PUSH1 0x20 SWAP1 RETURN JUMPDEST POP POP CALLVALUE PUSH2 0x1E1 JUMPI DUP2 PUSH1 0x3 NOT CALLDATASIZE ADD SLT PUSH2 0x1E1 JUMPI PUSH1 0x20 SWAP1 PUSH1 0x9 SLOAD SWAP1 MLOAD SWAP1 DUP2 MSTORE RETURN JUMPDEST SWAP1 POP CALLVALUE PUSH2 0x2EE JUMPI DUP3 PUSH1 0x3 NOT CALLDATASIZE ADD SLT PUSH2 0x2EE JUMPI PUSH2 0x7F9 PUSH2 0x116D JUMP JUMPDEST PUSH1 0x7 SLOAD SWAP1 PUSH1 0xFF DUP3 AND PUSH2 0x853 JUMPI POP PUSH1 0xFF NOT AND PUSH1 0x1 OR PUSH1 0x7 SSTORE PUSH1 0x8 SLOAD PUSH32 0xB3DA2DB3DFC3778F99852546C6E9AB39EC253F9DE7B0847AFEC61BD27878E923 SWAP2 PUSH1 0x20 SWAP2 ISZERO PUSH2 0x84A JUMPI JUMPDEST PUSH1 0x8 SLOAD SWAP1 MLOAD SWAP1 DUP2 MSTORE LOG1 DUP1 RETURN JUMPDEST TIMESTAMP PUSH1 0x8 SSTORE PUSH2 0x83E JUMP JUMPDEST PUSH1 0x64 SWAP1 PUSH1 0x20 DUP5 MLOAD SWAP2 PUSH3 0x461BCD PUSH1 0xE5 SHL DUP4 MSTORE DUP3 ADD MSTORE PUSH1 0x17 PUSH1 0x24 DUP3 ADD MSTORE PUSH32 0x54726164696E6720616C726561647920656E61626C6564000000000000000000 PUSH1 0x44 DUP3 ADD MSTORE REVERT JUMPDEST POP POP CALLVALUE PUSH2 0x1E1 JUMPI DUP2 PUSH1 0x3 NOT CALLDATASIZE ADD SLT PUSH2 0x1E1 JUMPI PUSH1 0x20 SWAP1 PUSH1 0xD SLOAD SWAP1 MLOAD SWAP1 DUP2 MSTORE RETURN JUMPDEST POP POP CALLVALUE PUSH2 0x1E1 JUMPI DUP2 PUSH1 0x3 NOT CALLDATASIZE ADD SLT PUSH2 0x1E1 JUMPI PUSH1 0x10 SLOAD SWAP1 MLOAD PUSH1 0x1 PUSH1 0x1 PUSH1 0xA0 SHL SUB SWAP1 SWAP2 AND DUP2 MSTORE PUSH1 0x20 SWAP1 RETURN JUMPDEST POP POP CALLVALUE PUSH2 0x1E1 JUMPI PUSH1 0x60 CALLDATASIZE PUSH1 0x3 NOT ADD SLT PUSH2 0x1E1 JUMPI PUSH2 0x8F9 PUSH2 0xED0 JUMP JUMPDEST PUSH2 0x901 PUSH2 0xEEB JUMP JUMPDEST SWAP2 PUSH1 0x1 PUSH1 0x1 PUSH1 0xA0 SHL SUB SWAP1 PUSH1 0x44 CALLDATALOAD DUP3 DUP2 AND SWAP2 SWAP1 DUP3 SWAP1 SUB PUSH2 0x9B7 JUMPI PUSH32 0x2D4C6AA48812A0EA09474A961613C1A3AE652D39A1580CB1AC46FF277E6D385D SWAP5 DUP3 DUP5 PUSH1 0x60 SWAP7 PUSH2 0x949 PUSH2 0x116D JUMP JUMPDEST AND SWAP5 DUP6 ISZERO ISZERO DUP1 PUSH2 0x9AC JUMPI JUMPDEST DUP1 PUSH2 0x9A3 JUMPI JUMPDEST PUSH2 0x963 SWAP1 PUSH2 0xF68 JUMP JUMPDEST PUSH12 0xFFFFFFFFFFFFFFFFFFFFFFFF PUSH1 0xA0 SHL SWAP3 DUP7 DUP5 PUSH1 0x10 SLOAD AND OR PUSH1 0x10 SSTORE AND SWAP2 DUP3 DUP2 PUSH1 0x11 SLOAD AND OR PUSH1 0x11 SSTORE PUSH1 0x12 SLOAD AND OR PUSH1 0x12 SSTORE DUP2 MLOAD SWAP4 DUP5 MSTORE PUSH1 0x20 DUP5 ADD MSTORE DUP3 ADD MSTORE LOG1 DUP1 RETURN JUMPDEST POP DUP2 ISZERO ISZERO PUSH2 0x95A JUMP JUMPDEST POP DUP1 DUP4 AND ISZERO ISZERO PUSH2 0x954 JUMP JUMPDEST DUP6 DUP1 REVERT JUMPDEST DUP4 CALLVALUE PUSH2 0x611 JUMPI DUP1 PUSH1 0x3 NOT CALLDATASIZE ADD SLT PUSH2 0x611 JUMPI PUSH2 0x9D4 PUSH2 0x116D JUMP JUMPDEST PUSH1 0x5 DUP1 SLOAD PUSH1 0x1 PUSH1 0x1 PUSH1 0xA0 SHL SUB NOT DUP2 AND SWAP1 SWAP2 SSTORE DUP2 SWAP1 PUSH1 0x1 PUSH1 0x1 PUSH1 0xA0 SHL SUB AND PUSH32 0x8BE0079C531659141344CD1FD0A4F28419497F9722A3DAAFE3B4186F6B6457E0 DUP3 DUP1 LOG3 DUP1 RETURN JUMPDEST POP POP CALLVALUE PUSH2 0x1E1 JUMPI DUP2 PUSH1 0x3 NOT CALLDATASIZE ADD SLT PUSH2 0x1E1 JUMPI PUSH1 0x20 SWAP1 PUSH1 0x8 SLOAD SWAP1 MLOAD SWAP1 DUP2 MSTORE RETURN JUMPDEST POP POP CALLVALUE PUSH2 0x1E1 JUMPI PUSH1 0x20 CALLDATASIZE PUSH1 0x3 NOT ADD SLT PUSH2 0x1E1 JUMPI PUSH1 0x20 SWAP1 PUSH2 0xA73 PUSH2 0xA58 PUSH2 0xED0 JUMP JUMPDEST PUSH1 0x1 PUSH1 0x1 PUSH1 0xA0 SHL SUB AND PUSH1 0x0 SWAP1 DUP2 MSTORE PUSH1 0x20 DUP2 SWAP1 MSTORE PUSH1 0x40 SWAP1 KECCAK256 SLOAD SWAP1 JUMP JUMPDEST SWAP1 MLOAD SWAP1 DUP2 MSTORE RETURN JUMPDEST POP POP CALLVALUE PUSH2 0x1E1 JUMPI DUP2 PUSH1 0x3 NOT CALLDATASIZE ADD SLT PUSH2 0x1E1 JUMPI PUSH1 0x20 SWAP1 MLOAD PUSH2 0x3E8 DUP2 MSTORE RETURN JUMPDEST POP POP CALLVALUE PUSH2 0x1E1 JUMPI DUP2 PUSH1 0x3 NOT CALLDATASIZE ADD SLT PUSH2 0x1E1 JUMPI PUSH1 0x20 SWAP1 PUSH1 0xE SLOAD SWAP1 MLOAD SWAP1 DUP2 MSTORE RETURN JUMPDEST POP POP CALLVALUE PUSH2 0x1E1 JUMPI DUP2 PUSH1 0x3 NOT CALLDATASIZE ADD SLT PUSH2 0x1E1 JUMPI PUSH1 0x20 SWAP1 PUSH1 0xFF PUSH1 0x7 SLOAD AND SWAP1 MLOAD SWAP1 ISZERO ISZERO DUP2 MSTORE RETURN JUMPDEST POP POP CALLVALUE PUSH2 0x1E1 JUMPI DUP1 PUSH1 0x3 NOT CALLDATASIZE ADD SLT PUSH2 0x1E1 JUMPI PUSH2 0x565 PUSH1 0x20 SWAP3 PUSH2 0xB23 PUSH2 0xAFD PUSH2 0xED0 JUMP JUMPDEST CALLER DUP4 MSTORE PUSH1 0x1 DUP7 MSTORE DUP5 DUP4 KECCAK256 PUSH1 0x1 PUSH1 0x1 PUSH1 0xA0 SHL SUB DUP3 AND DUP5 MSTORE DUP7 MSTORE SWAP2 DUP5 SWAP1 KECCAK256 SLOAD PUSH1 0x24 CALLDATALOAD SWAP1 PUSH2 0x1048 JUMP JUMPDEST SWAP1 CALLER PUSH2 0x106B JUMP JUMPDEST POP POP CALLVALUE PUSH2 0x1E1 JUMPI DUP2 PUSH1 0x3 NOT CALLDATASIZE ADD SLT PUSH2 0x1E1 JUMPI PUSH1 0x20 SWAP1 MLOAD PUSH1 0x12 DUP2 MSTORE RETURN JUMPDEST SWAP1 POP CALLVALUE PUSH2 0x2EE JUMPI PUSH1 0x20 CALLDATASIZE PUSH1 0x3 NOT ADD SLT PUSH2 0x2EE JUMPI PUSH32 0x4B39C36D20C57D220F61FD25C4349D4435CC03EF6C2A680942F15333C3C3E001 SWAP2 PUSH1 0x20 SWAP2 CALLDATALOAD SWAP1 PUSH2 0xB88 PUSH2 0x116D JUMP JUMPDEST PUSH2 0xB93 DUP3 ISZERO ISZERO PUSH2 0xFA6 JUMP JUMPDEST PUSH2 0xBA1 PUSH1 0x2 SLOAD DUP4 GT ISZERO PUSH2 0xFF2 JUMP JUMPDEST DUP2 PUSH1 0xA SSTORE MLOAD SWAP1 DUP2 MSTORE LOG1 DUP1 RETURN JUMPDEST DUP4 SWAP2 POP CALLVALUE PUSH2 0x1E1 JUMPI PUSH1 0x60 CALLDATASIZE PUSH1 0x3 NOT ADD SLT PUSH2 0x1E1 JUMPI PUSH2 0xBC9 PUSH2 0xED0 JUMP JUMPDEST PUSH2 0xBD1 PUSH2 0xEEB JUMP JUMPDEST SWAP2 DUP5 PUSH1 0x44 CALLDATALOAD SWAP5 PUSH1 0x1 DUP1 PUSH1 0xA0 SHL SUB DUP5 AND DUP2 MSTORE PUSH1 0x1 PUSH1 0x20 MSTORE DUP2 DUP2 KECCAK256 CALLER DUP3 MSTORE PUSH1 0x20 MSTORE KECCAK256 SLOAD SWAP1 PUSH1 0x0 NOT DUP3 SUB PUSH2 0xC0B JUMPI JUMPDEST PUSH1 0x20 DUP7 PUSH2 0x565 DUP8 DUP8 DUP8 PUSH2 0x11D8 JUMP JUMPDEST DUP5 DUP3 LT PUSH2 0xC34 JUMPI POP SWAP2 DUP4 SWAP2 PUSH2 0xC29 PUSH1 0x20 SWAP7 SWAP6 PUSH2 0x565 SWAP6 SUB CALLER DUP4 PUSH2 0x106B JUMP JUMPDEST SWAP2 SWAP4 SWAP5 DUP2 SWAP4 POP PUSH2 0xBFD JUMP JUMPDEST PUSH1 0x64 SWAP1 PUSH1 0x20 DUP8 MLOAD SWAP2 PUSH3 0x461BCD PUSH1 0xE5 SHL DUP4 MSTORE DUP3 ADD MSTORE PUSH1 0x1D PUSH1 0x24 DUP3 ADD MSTORE PUSH32 0x45524332303A20696E73756666696369656E7420616C6C6F77616E6365000000 PUSH1 0x44 DUP3 ADD MSTORE REVERT JUMPDEST POP POP CALLVALUE PUSH2 0x1E1 JUMPI DUP2 PUSH1 0x3 NOT CALLDATASIZE ADD SLT PUSH2 0x1E1 JUMPI PUSH1 0x20 SWAP1 PUSH1 0x2 SLOAD SWAP1 MLOAD SWAP1 DUP2 MSTORE RETURN JUMPDEST POP POP CALLVALUE PUSH2 0x1E1 JUMPI PUSH32 0x6A12B3DF6CBA4203BD7FD06B816789F87DE8C594299AED5717AE070FAC781BAC SWAP1 PUSH2 0xCC8 CALLDATASIZE PUSH2 0xF01 JUMP JUMPDEST SWAP1 PUSH2 0xCD1 PUSH2 0x116D JUMP JUMPDEST PUSH1 0x1 PUSH1 0x1 PUSH1 0xA0 SHL SUB AND SWAP1 PUSH2 0xCE6 DUP3 ISZERO ISZERO PUSH2 0xF68 JUMP JUMPDEST DUP2 DUP6 MSTORE PUSH1 0x14 PUSH1 0x20 MSTORE PUSH2 0xD06 DUP2 DUP5 DUP8 KECCAK256 SWAP1 PUSH1 0xFF DUP1 NOT DUP4 SLOAD AND SWAP2 ISZERO ISZERO AND OR SWAP1 SSTORE JUMP JUMPDEST DUP3 MLOAD SWAP2 DUP3 MSTORE ISZERO ISZERO PUSH1 0x20 DUP3 ADD MSTORE LOG1 DUP1 RETURN JUMPDEST POP POP CALLVALUE PUSH2 0x1E1 JUMPI DUP2 PUSH1 0x3 NOT CALLDATASIZE ADD SLT PUSH2 0x1E1 JUMPI PUSH1 0x12 SLOAD SWAP1 MLOAD PUSH1 0x1 PUSH1 0x1 PUSH1 0xA0 SHL SUB SWAP1 SWAP2 AND DUP2 MSTORE PUSH1 0x20 SWAP1 RETURN JUMPDEST POP POP CALLVALUE PUSH2 0x1E1 JUMPI DUP1 PUSH1 0x3 NOT CALLDATASIZE ADD SLT PUSH2 0x1E1 JUMPI PUSH1 0x20 SWAP1 PUSH2 0x565 PUSH2 0xD5F PUSH2 0xED0 JUMP JUMPDEST PUSH1 0x24 CALLDATALOAD SWAP1 CALLER PUSH2 0x106B JUMP JUMPDEST POP POP CALLVALUE PUSH2 0x1E1 JUMPI DUP2 PUSH1 0x3 NOT CALLDATASIZE ADD SLT PUSH2 0x1E1 JUMPI PUSH1 0xB SLOAD SWAP1 MLOAD PUSH1 0x1 PUSH1 0x1 PUSH1 0xA0 SHL SUB SWAP1 SWAP2 AND DUP2 MSTORE PUSH1 0x20 SWAP1 RETURN JUMPDEST SWAP3 SWAP2 POP CALLVALUE PUSH2 0xE83 JUMPI DUP4 PUSH1 0x3 NOT CALLDATASIZE ADD SLT PUSH2 0xE83 JUMPI PUSH1 0x3 SLOAD PUSH1 0x1 DUP2 DUP2 SHR SWAP2 DUP7 SWAP1 DUP3 DUP2 AND DUP1 ISZERO PUSH2 0xE79 JUMPI JUMPDEST PUSH1 0x20 SWAP6 DUP7 DUP7 LT DUP3 EQ PUSH2 0xE66 JUMPI POP DUP5 DUP9 MSTORE SWAP1 DUP2 ISZERO PUSH2 0xE44 JUMPI POP PUSH1 0x1 EQ PUSH2 0xDEB JUMPI JUMPDEST PUSH2 0x6FA DUP7 DUP7 PUSH2 0x6F0 DUP3 DUP12 SUB DUP4 PUSH2 0xF30 JUMP JUMPDEST SWAP3 SWAP6 POP PUSH1 0x3 DUP4 MSTORE PUSH32 0xC2575A0E9E593C00F959F8C92F12DB2869C3395A3B0502D05E2516446F71F85B JUMPDEST DUP3 DUP5 LT PUSH2 0xE31 JUMPI POP POP POP DUP3 PUSH2 0x6FA SWAP5 PUSH2 0x6F0 SWAP3 DUP3 ADD ADD SWAP5 CODESIZE PUSH2 0xDDA JUMP JUMPDEST DUP1 SLOAD DUP7 DUP6 ADD DUP9 ADD MSTORE SWAP3 DUP7 ADD SWAP3 DUP2 ADD PUSH2 0xE14 JUMP JUMPDEST PUSH1 0xFF NOT AND DUP8 DUP7 ADD MSTORE POP POP POP ISZERO ISZERO PUSH1 0x5 SHL DUP4 ADD ADD SWAP3 POP PUSH2 0x6F0 DUP3 PUSH2 0x6FA CODESIZE PUSH2 0xDDA JUMP JUMPDEST PUSH4 0x4E487B71 PUSH1 0xE0 SHL DUP5 MSTORE PUSH1 0x22 SWAP1 MSTORE PUSH1 0x24 DUP4 REVERT JUMPDEST SWAP4 PUSH1 0x7F AND SWAP4 PUSH2 0xDBA JUMP JUMPDEST DUP4 DUP1 REVERT JUMPDEST PUSH1 0x20 DUP1 DUP3 MSTORE DUP3 MLOAD DUP2 DUP4 ADD DUP2 SWAP1 MSTORE SWAP1 SWAP4 SWAP3 PUSH1 0x0 JUMPDEST DUP3 DUP2 LT PUSH2 0xEBC JUMPI POP POP PUSH1 0x40 SWAP3 SWAP4 POP PUSH1 0x0 DUP4 DUP3 DUP5 ADD ADD MSTORE PUSH1 0x1F DUP1 NOT SWAP2 ADD AND ADD ADD SWAP1 JUMP JUMPDEST DUP2 DUP2 ADD DUP7 ADD MLOAD DUP5 DUP3 ADD PUSH1 0x40 ADD MSTORE DUP6 ADD PUSH2 0xE9A JUMP JUMPDEST PUSH1 0x4 CALLDATALOAD SWAP1 PUSH1 0x1 PUSH1 0x1 PUSH1 0xA0 SHL SUB DUP3 AND DUP3 SUB PUSH2 0xEE6 JUMPI JUMP JUMPDEST PUSH1 0x0 DUP1 REVERT JUMPDEST PUSH1 0x24 CALLDATALOAD SWAP1 PUSH1 0x1 PUSH1 0x1 PUSH1 0xA0 SHL SUB DUP3 AND DUP3 SUB PUSH2 0xEE6 JUMPI JUMP JUMPDEST PUSH1 0x40 SWAP1 PUSH1 0x3 NOT ADD SLT PUSH2 0xEE6 JUMPI PUSH1 0x4 CALLDATALOAD PUSH1 0x1 PUSH1 0x1 PUSH1 0xA0 SHL SUB DUP2 AND DUP2 SUB PUSH2 0xEE6 JUMPI SWAP1 PUSH1 0x24 CALLDATALOAD DUP1 ISZERO ISZERO DUP2 SUB PUSH2 0xEE6 JUMPI SWAP1 JUMP JUMPDEST SWAP1 PUSH1 0x1F DUP1 NOT SWAP2 ADD AND DUP2 ADD SWAP1 DUP2 LT PUSH8 0xFFFFFFFFFFFFFFFF DUP3 GT OR PUSH2 0xF52 JUMPI PUSH1 0x40 MSTORE JUMP JUMPDEST PUSH4 0x4E487B71 PUSH1 0xE0 SHL PUSH1 0x0 MSTORE PUSH1 0x41 PUSH1 0x4 MSTORE PUSH1 0x24 PUSH1 0x0 REVERT JUMPDEST ISZERO PUSH2 0xF6F JUMPI JUMP JUMPDEST PUSH1 0x40 MLOAD PUSH3 0x461BCD PUSH1 0xE5 SHL DUP2 MSTORE PUSH1 0x20 PUSH1 0x4 DUP3 ADD MSTORE PUSH1 0xF PUSH1 0x24 DUP3 ADD MSTORE PUSH15 0x496E76616C69642061646472657373 PUSH1 0x88 SHL PUSH1 0x44 DUP3 ADD MSTORE PUSH1 0x64 SWAP1 REVERT JUMPDEST ISZERO PUSH2 0xFAD JUMPI JUMP JUMPDEST PUSH1 0x40 MLOAD PUSH3 0x461BCD PUSH1 0xE5 SHL DUP2 MSTORE PUSH1 0x20 PUSH1 0x4 DUP3 ADD MSTORE PUSH1 0x1D PUSH1 0x24 DUP3 ADD MSTORE PUSH32 0x416D6F756E74206D7573742062652067726561746572207468616E2030000000 PUSH1 0x44 DUP3 ADD MSTORE PUSH1 0x64 SWAP1 REVERT JUMPDEST ISZERO PUSH2 0xFF9 JUMPI JUMP JUMPDEST PUSH1 0x40 MLOAD PUSH3 0x461BCD PUSH1 0xE5 SHL DUP2 MSTORE PUSH1 0x20 PUSH1 0x4 DUP3 ADD MSTORE PUSH1 0x21 PUSH1 0x24 DUP3 ADD MSTORE PUSH32 0x416D6F756E742063616E6E6F742065786365656420746F74616C20737570706C PUSH1 0x44 DUP3 ADD MSTORE PUSH1 0x79 PUSH1 0xF8 SHL PUSH1 0x64 DUP3 ADD MSTORE PUSH1 0x84 SWAP1 REVERT JUMPDEST SWAP2 SWAP1 DUP3 ADD DUP1 SWAP3 GT PUSH2 0x1055 JUMPI JUMP JUMPDEST PUSH4 0x4E487B71 PUSH1 0xE0 SHL PUSH1 0x0 MSTORE PUSH1 0x11 PUSH1 0x4 MSTORE PUSH1 0x24 PUSH1 0x0 REVERT JUMPDEST PUSH1 0x1 PUSH1 0x1 PUSH1 0xA0 SHL SUB SWAP1 DUP2 AND SWAP2 DUP3 ISZERO PUSH2 0x111C JUMPI AND SWAP2 DUP3 ISZERO PUSH2 0x10CC JUMPI PUSH1 0x20 PUSH32 0x8C5BE1E5EBEC7D5BD14F71427D1E84F3DD0314C0F7B2291E5B200AC8C7C3B925 SWAP2 DUP4 PUSH1 0x0 MSTORE PUSH1 0x1 DUP3 MSTORE PUSH1 0x40 PUSH1 0x0 KECCAK256 DUP6 PUSH1 0x0 MSTORE DUP3 MSTORE DUP1 PUSH1 0x40 PUSH1 0x0 KECCAK256 SSTORE PUSH1 0x40 MLOAD SWAP1 DUP2 MSTORE LOG3 JUMP JUMPDEST PUSH1 0x40 MLOAD PUSH3 0x461BCD PUSH1 0xE5 SHL DUP2 MSTORE PUSH1 0x20 PUSH1 0x4 DUP3 ADD MSTORE PUSH1 0x22 PUSH1 0x24 DUP3 ADD MSTORE PUSH32 0x45524332303A20617070726F766520746F20746865207A65726F206164647265 PUSH1 0x44 DUP3 ADD MSTORE PUSH2 0x7373 PUSH1 0xF0 SHL PUSH1 0x64 DUP3 ADD MSTORE PUSH1 0x84 SWAP1 REVERT JUMPDEST PUSH1 0x40 MLOAD PUSH3 0x461BCD PUSH1 0xE5 SHL DUP2 MSTORE PUSH1 0x20 PUSH1 0x4 DUP3 ADD MSTORE PUSH1 0x24 DUP1 DUP3 ADD MSTORE PUSH32 0x45524332303A20617070726F76652066726F6D20746865207A65726F20616464 PUSH1 0x44 DUP3 ADD MSTORE PUSH4 0x72657373 PUSH1 0xE0 SHL PUSH1 0x64 DUP3 ADD MSTORE PUSH1 0x84 SWAP1 REVERT JUMPDEST PUSH1 0x5 SLOAD PUSH1 0x1 PUSH1 0x1 PUSH1 0xA0 SHL SUB AND CALLER SUB PUSH2 0x1181 JUMPI JUMP JUMPDEST PUSH1 0x64 PUSH1 0x40 MLOAD PUSH3 0x461BCD PUSH1 0xE5 SHL DUP2 MSTORE PUSH1 0x20 PUSH1 0x4 DUP3 ADD MSTORE PUSH1 0x20 PUSH1 0x24 DUP3 ADD MSTORE PUSH32 0x4F776E61626C653A2063616C6C6572206973206E6F7420746865206F776E6572 PUSH1 0x44 DUP3 ADD MSTORE REVERT JUMPDEST DUP2 DUP2 MUL SWAP3 SWAP2 DUP2 ISZERO SWAP2 DUP5 DIV EQ OR ISZERO PUSH2 0x1055 JUMPI JUMP JUMPDEST SWAP3 SWAP2 SWAP1 PUSH1 0x0 SWAP4 PUSH1 0x1 DUP1 PUSH1 0xA0 SHL SUB SWAP5 DUP6 DUP3 AND SWAP6 DUP7 DUP3 MSTORE PUSH1 0x20 SWAP1 PUSH1 0x14 DUP3 MSTORE PUSH1 0xFF PUSH1 0x40 SWAP2 DUP2 DUP4 DUP7 KECCAK256 SLOAD AND ISZERO DUP1 PUSH2 0x161B JUMPI JUMPDEST ISZERO PUSH2 0x15E1 JUMPI DUP2 PUSH1 0x7 SLOAD AND DUP1 ISZERO PUSH2 0x15D4 JUMPI JUMPDEST DUP1 ISZERO PUSH2 0x15C5 JUMPI JUMPDEST ISZERO PUSH2 0x158B JUMPI PUSH1 0x8 SLOAD DUP1 PUSH2 0x1545 JUMPI JUMPDEST POP PUSH1 0x9 SLOAD DUP1 ISZERO ISZERO DUP1 PUSH2 0x1531 JUMPI JUMPDEST DUP1 PUSH2 0x151B JUMPI JUMPDEST PUSH2 0x14CB JUMPI JUMPDEST POP PUSH1 0xA SLOAD DUP1 ISZERO ISZERO DUP1 PUSH2 0x14B5 JUMPI JUMPDEST PUSH2 0x1451 JUMPI JUMPDEST POP DUP1 PUSH1 0xC SLOAD AND DUP2 DUP9 AND SWAP1 DUP1 DUP3 EQ SWAP1 DUP2 ISZERO PUSH2 0x1447 JUMPI JUMPDEST POP PUSH2 0x1284 JUMPI JUMPDEST POP POP POP POP POP POP PUSH2 0x1282 SWAP4 SWAP5 POP PUSH2 0x162D JUMP JUMPDEST JUMP JUMPDEST DUP6 SWAP11 PUSH1 0x64 PUSH2 0x129A PUSH1 0xD SWAP12 SWAP10 SWAP12 SWAP9 SWAP8 SWAP9 SLOAD DUP11 PUSH2 0x11C5 JUMP JUMPDEST DIV SWAP4 PUSH1 0x64 PUSH2 0x12AA PUSH1 0xE SLOAD DUP12 PUSH2 0x11C5 JUMP JUMPDEST DIV SWAP8 PUSH1 0x64 PUSH2 0x12BA PUSH1 0xF SLOAD DUP13 PUSH2 0x11C5 JUMP JUMPDEST DIV SWAP6 PUSH2 0x12CA DUP8 PUSH2 0x3B8 DUP13 DUP5 PUSH2 0x1048 JUMP JUMPDEST SWAP10 DUP14 DUP12 PUSH2 0x130D JUMPI JUMPDEST POP POP POP POP POP POP POP POP POP POP POP DUP2 SUB SWAP1 DUP2 GT PUSH2 0x12F9 JUMPI PUSH2 0x1282 SWAP4 SWAP5 POP SWAP2 DUP5 SWAP4 CODESIZE DUP1 DUP1 DUP1 DUP1 PUSH2 0x1271 JUMP JUMPDEST PUSH4 0x4E487B71 PUSH1 0xE0 SHL DUP6 MSTORE PUSH1 0x11 PUSH1 0x4 MSTORE PUSH1 0x24 DUP6 REVERT JUMPDEST PUSH2 0x132B SWAP3 PUSH2 0x1320 SWAP2 DUP10 PUSH1 0x10 SLOAD AND SWAP1 PUSH2 0x162D JUMP JUMPDEST PUSH1 0x11 SLOAD DUP8 AND DUP15 PUSH2 0x162D JUMP JUMPDEST DUP6 ISZERO ISZERO SWAP3 DUP4 PUSH2 0x1432 JUMPI JUMPDEST POP DUP3 PUSH2 0x141C JUMPI JUMPDEST POP POP PUSH2 0x134E JUMPI JUMPDEST DUP1 DUP1 DUP1 DUP1 DUP1 DUP14 PUSH2 0x12D2 JUMP JUMPDEST PUSH2 0x135D DUP4 DUP4 PUSH1 0x12 SLOAD AND DUP12 PUSH2 0x162D JUMP JUMPDEST DUP2 PUSH1 0xC SLOAD AND EQ DUP1 PUSH2 0x13F0 JUMPI JUMPDEST PUSH2 0x1374 JUMPI JUMPDEST DUP1 PUSH2 0x1343 JUMP JUMPDEST PUSH1 0x12 SLOAD AND DUP1 EXTCODESIZE ISZERO PUSH2 0xE83 JUMPI PUSH1 0x44 DUP5 SWAP3 DUP5 MLOAD SWAP6 DUP7 SWAP4 DUP5 SWAP3 PUSH4 0xD3F2036B PUSH1 0xE0 SHL DUP5 MSTORE ADDRESS PUSH1 0x4 DUP6 ADD MSTORE PUSH1 0x1 SHR PUSH1 0x24 DUP5 ADD MSTORE GAS CALL DUP1 ISZERO PUSH2 0x13E6 JUMPI PUSH2 0x13B7 JUMPI JUMPDEST DUP1 DUP9 SWAP3 PUSH2 0x136E JUMP JUMPDEST PUSH8 0xFFFFFFFFFFFFFFFF DUP3 SWAP9 SWAP4 SWAP9 GT PUSH2 0x13D2 JUMPI MSTORE SWAP5 CODESIZE DUP1 PUSH2 0x13AF JUMP JUMPDEST PUSH4 0x4E487B71 PUSH1 0xE0 SHL DUP4 MSTORE PUSH1 0x41 PUSH1 0x4 MSTORE PUSH1 0x24 DUP4 REVERT JUMPDEST DUP2 MLOAD RETURNDATASIZE DUP11 DUP3 RETURNDATACOPY RETURNDATASIZE SWAP1 REVERT JUMPDEST POP PUSH2 0x3E8 PUSH2 0x1415 DUP3 PUSH1 0x12 SLOAD AND PUSH1 0x1 DUP1 PUSH1 0xA0 SHL SUB AND PUSH1 0x0 MSTORE PUSH1 0x0 PUSH1 0x20 MSTORE PUSH1 0x40 PUSH1 0x0 KECCAK256 SLOAD SWAP1 JUMP JUMPDEST LT ISZERO PUSH2 0x1369 JUMP JUMPDEST PUSH1 0x13 SWAP2 SWAP3 POP DUP4 DUP9 MSTORE MSTORE DUP5 DUP7 KECCAK256 SLOAD AND ISZERO CODESIZE DUP1 PUSH2 0x133C JUMP JUMPDEST DUP9 MSTORE PUSH1 0x13 DUP2 MSTORE DUP7 DUP9 KECCAK256 SLOAD DUP3 AND ISZERO SWAP3 POP CODESIZE PUSH2 0x1335 JUMP JUMPDEST SWAP1 POP DUP12 EQ CODESIZE PUSH2 0x126B JUMP JUMPDEST DUP2 DUP9 AND DUP7 MSTORE DUP6 DUP6 MSTORE PUSH2 0x1466 DUP10 DUP6 DUP9 KECCAK256 SLOAD PUSH2 0x1048 JUMP JUMPDEST GT PUSH2 0x1471 JUMPI CODESIZE PUSH2 0x1256 JUMP JUMPDEST DUP3 MLOAD PUSH3 0x461BCD PUSH1 0xE5 SHL DUP2 MSTORE PUSH1 0x4 DUP2 ADD DUP6 SWAP1 MSTORE PUSH1 0x19 PUSH1 0x24 DUP3 ADD MSTORE PUSH32 0x45786365656473206D61782077616C6C657420616D6F756E7400000000000000 PUSH1 0x44 DUP3 ADD MSTORE PUSH1 0x64 SWAP1 REVERT JUMPDEST POP DUP2 DUP9 AND DUP7 MSTORE PUSH1 0x13 DUP6 MSTORE DUP3 DUP5 DUP8 KECCAK256 SLOAD AND ISZERO PUSH2 0x1251 JUMP JUMPDEST DUP9 GT PUSH2 0x14D7 JUMPI CODESIZE PUSH2 0x1244 JUMP JUMPDEST DUP3 MLOAD PUSH3 0x461BCD PUSH1 0xE5 SHL DUP2 MSTORE PUSH1 0x4 DUP2 ADD DUP6 SWAP1 MSTORE PUSH1 0x1E PUSH1 0x24 DUP3 ADD MSTORE PUSH32 0x45786365656473206D6178207472616E73616374696F6E20616D6F756E740000 PUSH1 0x44 DUP3 ADD MSTORE PUSH1 0x64 SWAP1 REVERT JUMPDEST POP DUP2 DUP9 AND DUP7 MSTORE PUSH1 0x13 DUP6 MSTORE DUP3 DUP5 DUP8 KECCAK256 SLOAD AND ISZERO PUSH2 0x123F JUMP JUMPDEST POP DUP11 DUP7 MSTORE PUSH1 0x13 DUP6 MSTORE DUP3 DUP5 DUP8 KECCAK256 SLOAD AND ISZERO PUSH2 0x1239 JUMP JUMPDEST TIMESTAMP LT PUSH2 0x1551 JUMPI CODESIZE PUSH2 0x122C JUMP JUMPDEST DUP3 MLOAD PUSH3 0x461BCD PUSH1 0xE5 SHL DUP2 MSTORE PUSH1 0x4 DUP2 ADD DUP6 SWAP1 MSTORE PUSH1 0x13 PUSH1 0x24 DUP3 ADD MSTORE PUSH19 0x151C98591A5B99C81B9BDD081CDD185C9D1959 PUSH1 0x6A SHL PUSH1 0x44 DUP3 ADD MSTORE PUSH1 0x64 SWAP1 REVERT JUMPDEST DUP3 MLOAD PUSH3 0x461BCD PUSH1 0xE5 SHL DUP2 MSTORE PUSH1 0x4 DUP2 ADD DUP6 SWAP1 MSTORE PUSH1 0x13 PUSH1 0x24 DUP3 ADD MSTORE PUSH19 0x151C98591A5B99C81B9BDD08195B98589B1959 PUSH1 0x6A SHL PUSH1 0x44 DUP3 ADD MSTORE PUSH1 0x64 SWAP1 REVERT JUMPDEST POP DUP1 PUSH1 0x5 SLOAD AND DUP2 DUP9 AND EQ PUSH2 0x121E JUMP JUMPDEST POP DUP1 PUSH1 0x5 SLOAD AND DUP11 EQ PUSH2 0x1217 JUMP JUMPDEST DUP3 MLOAD PUSH3 0x461BCD PUSH1 0xE5 SHL DUP2 MSTORE PUSH1 0x4 DUP2 ADD DUP6 SWAP1 MSTORE PUSH1 0x13 PUSH1 0x24 DUP3 ADD MSTORE PUSH19 0x426C61636B6C69737465642061646472657373 PUSH1 0x68 SHL PUSH1 0x44 DUP3 ADD MSTORE PUSH1 0x64 SWAP1 REVERT JUMPDEST POP DUP1 DUP8 AND DUP6 MSTORE DUP2 DUP4 DUP7 KECCAK256 SLOAD AND ISZERO PUSH2 0x1206 JUMP JUMPDEST PUSH1 0x1 PUSH1 0x1 PUSH1 0xA0 SHL SUB SWAP1 DUP2 AND SWAP2 DUP3 ISZERO PUSH2 0x1748 JUMPI AND SWAP2 DUP3 ISZERO PUSH2 0x16F7 JUMPI PUSH1 0x0 DUP3 DUP2 MSTORE DUP1 PUSH1 0x20 MSTORE PUSH1 0x40 DUP2 KECCAK256 SLOAD SWAP2 DUP1 DUP4 LT PUSH2 0x16A3 JUMPI PUSH1 0x40 DUP3 DUP3 PUSH32 0xDDF252AD1BE2C89B69C2B068FC378DAA952BA7F163C4A11628F55A4DF523B3EF SWAP6 DUP8 PUSH1 0x20 SWAP7 MSTORE DUP3 DUP7 MSTORE SUB DUP3 DUP3 KECCAK256 SSTORE DUP7 DUP2 MSTORE KECCAK256 DUP2 DUP2 SLOAD ADD SWAP1 SSTORE PUSH1 0x40 MLOAD SWAP1 DUP2 MSTORE LOG3 JUMP JUMPDEST PUSH1 0x40 MLOAD PUSH3 0x461BCD PUSH1 0xE5 SHL DUP2 MSTORE PUSH1 0x20 PUSH1 0x4 DUP3 ADD MSTORE PUSH1 0x26 PUSH1 0x24 DUP3 ADD MSTORE PUSH32 0x45524332303A207472616E7366657220616D6F756E7420657863656564732062 PUSH1 0x44 DUP3 ADD MSTORE PUSH6 0x616C616E6365 PUSH1 0xD0 SHL PUSH1 0x64 DUP3 ADD MSTORE PUSH1 0x84 SWAP1 REVERT JUMPDEST PUSH1 0x40 MLOAD PUSH3 0x461BCD PUSH1 0xE5 SHL DUP2 MSTORE PUSH1 0x20 PUSH1 0x4 DUP3 ADD MSTORE PUSH1 0x23 PUSH1 0x24 DUP3 ADD MSTORE PUSH32 0x45524332303A207472616E7366657220746F20746865207A65726F2061646472 PUSH1 0x44 DUP3 ADD MSTORE PUSH3 0x657373 PUSH1 0xE8 SHL PUSH1 0x64 DUP3 ADD MSTORE PUSH1 0x84 SWAP1 REVERT JUMPDEST PUSH1 0x40 MLOAD PUSH3 0x461BCD PUSH1 0xE5 SHL DUP2 MSTORE PUSH1 0x20 PUSH1 0x4 DUP3 ADD MSTORE PUSH1 0x25 PUSH1 0x24 DUP3 ADD MSTORE PUSH32 0x45524332303A207472616E736665722066726F6D20746865207A65726F206164 PUSH1 0x44 DUP3 ADD MSTORE PUSH5 0x6472657373 PUSH1 0xD8 SHL PUSH1 0x64 DUP3 ADD MSTORE PUSH1 0x84 SWAP1 REVERT INVALID LOG2 PUSH5 0x6970667358 0x22 SLT KECCAK256 0xD3 0xA6 PUSH0 0x5D MUL PUSH3 0xF4BB6 PUSH27 0xBBD0652BA30192260479C7A42773FF99503AB18997E164736F6C63 NUMBER STOP ADDMOD AND STOP CALLER LOG2 PUSH5 0x6970667358 0x22 SLT KECCAK256 0xE8 0xF7 0xB7 DUP11 0xD9 NOT 0x2F 0xD9 SWAP5 0x5D 0xCB LOG4 0xCF 0x26 0x2B DUP3 EXTCODECOPY 0xAE 0xC0 LOG2 CALLDATALOAD PUSH2 0x45F0 0x4D DUP3 0x4B NOT 0xB5 0xDD 0xDD 0xA7 PUSH5 0x736F6C6343 STOP ADDMOD AND STOP CALLER "},"gasEstimates":{"creation":{"codeDepositCost":"3306400","executionCost":"infinite","totalCost":"infinite"},"external":{"AUTO_LIQUIDITY_COOLDOWN()":"196","MIN_AUTO_LIQUIDITY_THRESHOLD()":"614","VERSION()":"infinite","VERSION_HASH()":"infinite","addAutoLiquidity(address)":"infinite","addDEX(string,address)":"infinite","autoLiquidityPaused()":"2399","createAndListToken((string,string,uint256,uint256,uint256,uint256,uint256,bool,uint256,string,uint256,address,uint256,address,uint256))":"infinite","dexRouters(string)":"infinite","emergencyWithdrawAutoLiquidity(address)":"infinite","getDEXRouter(string)":"infinite","getListingFee()":"2673","getSupportedDEXes()":"infinite","isListed(address)":"2974","lastAutoLiquidityTime(address)":"2475","listedTokens(address)":"2666","listingFee()":"2475","owner()":"2584","pendingAutoLiquidity(address)":"2937","renounceOwnership()":"28321","setAutoLiquidityPause(bool)":"28100","setListingFee(uint256)":"24403","supportedDEXes(uint256)":"infinite","tokenDEX(address)":"infinite","transferOwnership(address)":"28636","updateDEX(string,address,bool)":"infinite","withdrawFees()":"infinite"},"internal":{"_accumulateAutoLiquidity(address,uint256)":"infinite"}},"methodIdentifiers":{"AUTO_LIQUIDITY_COOLDOWN()":"29df0db3","MIN_AUTO_LIQUIDITY_THRESHOLD()":"c7760305","VERSION()":"ffa1ad74","VERSION_HASH()":"9e4e7318","addAutoLiquidity(address)":"94395b97","addDEX(string,address)":"96186770","autoLiquidityPaused()":"497626bc","createAndListToken((string,string,uint256,uint256,uint256,uint256,uint256,bool,uint256,string,uint256,address,uint256,address,uint256))":"c18f24d6","dexRouters(string)":"5e7ffa67","emergencyWithdrawAutoLiquidity(address)":"61b9d4e3","getDEXRouter(string)":"78e3399d","getListingFee()":"b8fe6abe","getSupportedDEXes()":"386e07bf","isListed(address)":"f794062e","lastAutoLiquidityTime(address)":"34e62a91","listedTokens(address)":"7093f47f","listingFee()":"6a1b7ecc","owner()":"8da5cb5b","pendingAutoLiquidity(address)":"f62aa785","renounceOwnership()":"715018a6","setAutoLiquidityPause(bool)":"f53819e7","setListingFee(uint256)":"131dbd09","supportedDEXes(uint256)":"4caf81f5","tokenDEX(address)":"98a7d76e","transferOwnership(address)":"f2fde38b","updateDEX(string,address,bool)":"24b2982f","withdrawFees()":"476343ee"}},"storageLayout":{"storage":[{"astId":7,"contract":"src/contracts/TokenFactory_v2_DirectDEX.sol:TokenFactory_v2_DirectDEX","label":"_owner","offset":0,"slot":"0","type":"t_address"},{"astId":123,"contract":"src/contracts/TokenFactory_v2_DirectDEX.sol:TokenFactory_v2_DirectDEX","label":"_status","offset":0,"slot":"1","type":"t_uint256"},{"astId":1752,"contract":"src/contracts/TokenFactory_v2_DirectDEX.sol:TokenFactory_v2_DirectDEX","label":"dexRouters","offset":0,"slot":"2","type":"t_mapping(t_string_memory_ptr,t_struct(DEXRouter)1716_storage)"},{"astId":1755,"contract":"src/contracts/TokenFactory_v2_DirectDEX.sol:TokenFactory_v2_DirectDEX","label":"supportedDEXes","offset":0,"slot":"3","type":"t_array(t_string_storage)dyn_storage"},{"astId":1759,"contract":"src/contracts/TokenFactory_v2_DirectDEX.sol:TokenFactory_v2_DirectDEX","label":"listedTokens","offset":0,"slot":"4","type":"t_mapping(t_address,t_bool)"},{"astId":1763,"contract":"src/contracts/TokenFactory_v2_DirectDEX.sol:TokenFactory_v2_DirectDEX","label":"tokenDEX","offset":0,"slot":"5","type":"t_mapping(t_address,t_string_storage)"},{"astId":1765,"contract":"src/contracts/TokenFactory_v2_DirectDEX.sol:TokenFactory_v2_DirectDEX","label":"listingFee","offset":0,"slot":"6","type":"t_uint256"},{"astId":1775,"contract":"src/contracts/TokenFactory_v2_DirectDEX.sol:TokenFactory_v2_DirectDEX","label":"lastAutoLiquidityTime","offset":0,"slot":"7","type":"t_mapping(t_address,t_uint256)"},{"astId":1779,"contract":"src/contracts/TokenFactory_v2_DirectDEX.sol:TokenFactory_v2_DirectDEX","label":"pendingAutoLiquidity","offset":0,"slot":"8","type":"t_mapping(t_address,t_uint256)"},{"astId":1781,"contract":"src/contracts/TokenFactory_v2_DirectDEX.sol:TokenFactory_v2_DirectDEX","label":"autoLiquidityPaused","offset":0,"slot":"9","type":"t_bool"}],"types":{"t_address":{"encoding":"inplace","label":"address","numberOfBytes":"20"},"t_array(t_string_storage)dyn_storage":{"base":"t_string_storage","encoding":"dynamic_array","label":"string[]","numberOfBytes":"32"},"t_bool":{"encoding":"inplace","label":"bool","numberOfBytes":"1"},"t_mapping(t_address,t_bool)":{"encoding":"mapping","key":"t_address","label":"mapping(address => bool)","numberOfBytes":"32","value":"t_bool"},"t_mapping(t_address,t_string_storage)":{"encoding":"mapping","key":"t_address","label":"mapping(address => string)","numberOfBytes":"32","value":"t_string_storage"},"t_mapping(t_address,t_uint256)":{"encoding":"mapping","key":"t_address","label":"mapping(address => uint256)","numberOfBytes":"32","value":"t_uint256"},"t_mapping(t_string_memory_ptr,t_struct(DEXRouter)1716_storage)":{"encoding":"mapping","key":"t_string_memory_ptr","label":"mapping(string => struct TokenFactory_v2_DirectDEX.DEXRouter)","numberOfBytes":"32","value":"t_struct(DEXRouter)1716_storage"},"t_string_memory_ptr":{"encoding":"bytes","label":"string","numberOfBytes":"32"},"t_string_storage":{"encoding":"bytes","label":"string","numberOfBytes":"32"},"t_struct(DEXRouter)1716_storage":{"encoding":"inplace","label":"struct TokenFactory_v2_DirectDEX.DEXRouter","members":[{"astId":1711,"contract":"src/contracts/TokenFactory_v2_DirectDEX.sol:TokenFactory_v2_DirectDEX","label":"name","offset":0,"slot":"0","type":"t_string_storage"},{"astId":1713,"contract":"src/contracts/TokenFactory_v2_DirectDEX.sol:TokenFactory_v2_DirectDEX","label":"router","offset":0,"slot":"1","type":"t_address"},{"astId":1715,"contract":"src/contracts/TokenFactory_v2_DirectDEX.sol:TokenFactory_v2_DirectDEX","label":"isActive","offset":20,"slot":"1","type":"t_bool"}],"numberOfBytes":"64"},"t_uint256":{"encoding":"inplace","label":"uint256","numberOfBytes":"32"}}},"userdoc":{"kind":"user","methods":{},"version":1}}}}