{"src/contracts/TokenFactory_v2.sol":{"TokenFactory_v2":{"abi":[{"inputs":[{"internalType":"address","name":"_implementation","type":"address"}],"stateMutability":"nonpayable","type":"constructor"},{"anonymous":false,"inputs":[{"indexed":false,"internalType":"address","name":"previousAdmin","type":"address"},{"indexed":false,"internalType":"address","name":"newAdmin","type":"address"}],"name":"AdminChanged","type":"event"},{"anonymous":false,"inputs":[{"indexed":true,"internalType":"address","name":"beacon","type":"address"}],"name":"BeaconUpgraded","type":"event"},{"anonymous":false,"inputs":[{"indexed":true,"internalType":"address","name":"user","type":"address"},{"indexed":false,"internalType":"uint256","name":"fee","type":"uint256"}],"name":"CustomDeploymentFeeSet","type":"event"},{"anonymous":false,"inputs":[{"indexed":false,"internalType":"uint256","name":"newFee","type":"uint256"}],"name":"DeploymentFeeUpdated","type":"event"},{"anonymous":false,"inputs":[{"indexed":false,"internalType":"uint8","name":"version","type":"uint8"}],"name":"Initialized","type":"event"},{"anonymous":false,"inputs":[{"indexed":true,"internalType":"address","name":"previousOwner","type":"address"},{"indexed":true,"internalType":"address","name":"newOwner","type":"address"}],"name":"OwnershipTransferred","type":"event"},{"anonymous":false,"inputs":[{"indexed":false,"internalType":"address","name":"newRecipient","type":"address"}],"name":"PlatformFeeRecipientUpdated","type":"event"},{"anonymous":false,"inputs":[{"indexed":false,"internalType":"uint256","name":"newPercentage","type":"uint256"}],"name":"PlatformFeeUpdated","type":"event"},{"anonymous":false,"inputs":[{"indexed":false,"internalType":"uint256","name":"vestingDuration","type":"uint256"},{"indexed":false,"internalType":"uint256","name":"cliffDuration","type":"uint256"},{"indexed":false,"internalType":"bool","name":"enabled","type":"bool"}],"name":"PlatformFeeVestingConfigured","type":"event"},{"anonymous":false,"inputs":[{"indexed":false,"internalType":"address","name":"token","type":"address"},{"indexed":false,"internalType":"string","name":"name","type":"string"},{"indexed":false,"internalType":"string","name":"symbol","type":"string"},{"indexed":false,"internalType":"address","name":"owner","type":"address"},{"indexed":false,"internalType":"uint256","name":"startTime","type":"uint256"},{"indexed":false,"internalType":"uint256","name":"endTime","type":"uint256"}],"name":"TokenCreated","type":"event"},{"anonymous":false,"inputs":[{"indexed":true,"internalType":"address","name":"implementation","type":"address"}],"name":"Upgraded","type":"event"},{"inputs":[],"name":"VERSION","outputs":[{"internalType":"string","name":"","type":"string"}],"stateMutability":"view","type":"function"},{"inputs":[{"internalType":"uint256","name":"_vestingDuration","type":"uint256"},{"internalType":"uint256","name":"_cliffDuration","type":"uint256"},{"internalType":"bool","name":"_enabled","type":"bool"}],"name":"configurePlatformFeeVesting","outputs":[],"stateMutability":"nonpayable","type":"function"},{"inputs":[{"internalType":"string","name":"name","type":"string"},{"internalType":"string","name":"symbol","type":"string"},{"internalType":"uint256","name":"initialSupply","type":"uint256"},{"internalType":"uint256","name":"maxSupply","type":"uint256"},{"internalType":"bool","name":"enableBlacklist","type":"bool"},{"internalType":"bool","name":"enableTimeLock","type":"bool"},{"internalType":"uint256","name":"presaleRate","type":"uint256"},{"internalType":"uint256","name":"minContribution","type":"uint256"},{"internalType":"uint256","name":"maxContribution","type":"uint256"},{"internalType":"uint256","name":"presaleCap","type":"uint256"},{"internalType":"uint256","name":"startTime","type":"uint256"},{"internalType":"uint256","name":"endTime","type":"uint256"}],"name":"createToken","outputs":[{"internalType":"address","name":"","type":"address"}],"stateMutability":"payable","type":"function"},{"inputs":[{"internalType":"address","name":"","type":"address"}],"name":"customDeploymentFees","outputs":[{"internalType":"uint256","name":"","type":"uint256"}],"stateMutability":"view","type":"function"},{"inputs":[{"internalType":"uint256","name":"","type":"uint256"}],"name":"deployedTokens","outputs":[{"internalType":"address","name":"","type":"address"}],"stateMutability":"view","type":"function"},{"inputs":[],"name":"deploymentFee","outputs":[{"internalType":"uint256","name":"","type":"uint256"}],"stateMutability":"view","type":"function"},{"inputs":[],"name":"getDeployedTokens","outputs":[{"internalType":"address[]","name":"","type":"address[]"}],"stateMutability":"view","type":"function"},{"inputs":[{"internalType":"address","name":"_user","type":"address"}],"name":"getDeploymentFee","outputs":[{"internalType":"uint256","name":"","type":"uint256"}],"stateMutability":"view","type":"function"},{"inputs":[],"name":"getTemplateImplementation","outputs":[{"internalType":"address","name":"","type":"address"}],"stateMutability":"view","type":"function"},{"inputs":[{"internalType":"address","name":"token","type":"address"}],"name":"getTokenCreator","outputs":[{"internalType":"address","name":"","type":"address"}],"stateMutability":"view","type":"function"},{"inputs":[{"internalType":"address","name":"user","type":"address"}],"name":"getUserCreatedTokens","outputs":[{"internalType":"address[]","name":"","type":"address[]"}],"stateMutability":"view","type":"function"},{"inputs":[{"internalType":"address","name":"user","type":"address"}],"name":"getUserTokenCount","outputs":[{"internalType":"uint256","name":"","type":"uint256"}],"stateMutability":"view","type":"function"},{"inputs":[{"internalType":"uint256","name":"_deploymentFee","type":"uint256"}],"name":"initialize","outputs":[],"stateMutability":"nonpayable","type":"function"},{"inputs":[{"internalType":"address","name":"user","type":"address"},{"internalType":"address","name":"token","type":"address"}],"name":"isTokenCreator","outputs":[{"internalType":"bool","name":"","type":"bool"}],"stateMutability":"view","type":"function"},{"inputs":[],"name":"owner","outputs":[{"internalType":"address","name":"","type":"address"}],"stateMutability":"view","type":"function"},{"inputs":[],"name":"platformFeeCliffDuration","outputs":[{"internalType":"uint256","name":"","type":"uint256"}],"stateMutability":"view","type":"function"},{"inputs":[],"name":"platformFeePercentage","outputs":[{"internalType":"uint256","name":"","type":"uint256"}],"stateMutability":"view","type":"function"},{"inputs":[],"name":"platformFeeRecipient","outputs":[{"internalType":"address","name":"","type":"address"}],"stateMutability":"view","type":"function"},{"inputs":[],"name":"platformFeeVestingDuration","outputs":[{"internalType":"uint256","name":"","type":"uint256"}],"stateMutability":"view","type":"function"},{"inputs":[],"name":"platformFeeVestingEnabled","outputs":[{"internalType":"bool","name":"","type":"bool"}],"stateMutability":"view","type":"function"},{"inputs":[],"name":"proxiableUUID","outputs":[{"internalType":"bytes32","name":"","type":"bytes32"}],"stateMutability":"view","type":"function"},{"inputs":[],"name":"renounceOwnership","outputs":[],"stateMutability":"nonpayable","type":"function"},{"inputs":[{"internalType":"address","name":"_user","type":"address"},{"internalType":"uint256","name":"_fee","type":"uint256"}],"name":"setCustomDeploymentFee","outputs":[],"stateMutability":"nonpayable","type":"function"},{"inputs":[{"internalType":"uint256","name":"_fee","type":"uint256"}],"name":"setDeploymentFee","outputs":[],"stateMutability":"nonpayable","type":"function"},{"inputs":[{"internalType":"uint256","name":"_percentage","type":"uint256"}],"name":"setPlatformFeePercentage","outputs":[],"stateMutability":"nonpayable","type":"function"},{"inputs":[{"internalType":"address","name":"_recipient","type":"address"}],"name":"setPlatformFeeRecipient","outputs":[],"stateMutability":"nonpayable","type":"function"},{"inputs":[],"name":"tokenImplementation","outputs":[{"internalType":"contract TokenTemplate_v2","name":"","type":"address"}],"stateMutability":"view","type":"function"},{"inputs":[{"internalType":"address","name":"newOwner","type":"address"}],"name":"transferOwnership","outputs":[],"stateMutability":"nonpayable","type":"function"},{"inputs":[{"internalType":"address","name":"newImplementation","type":"address"}],"name":"upgradeTo","outputs":[],"stateMutability":"nonpayable","type":"function"},{"inputs":[{"internalType":"address","name":"newImplementation","type":"address"},{"internalType":"bytes","name":"data","type":"bytes"}],"name":"upgradeToAndCall","outputs":[],"stateMutability":"payable","type":"function"},{"inputs":[],"name":"withdrawFees","outputs":[],"stateMutability":"nonpayable","type":"function"}],"devdoc":{"details":"Uses ERC1967 proxy pattern for upgradeable token instances","events":{"AdminChanged(address,address)":{"details":"Emitted when the admin account has changed."},"BeaconUpgraded(address)":{"details":"Emitted when the beacon is changed."},"Initialized(uint8)":{"details":"Triggered when the contract has been initialized or reinitialized."},"Upgraded(address)":{"details":"Emitted when the implementation is upgraded."}},"kind":"dev","methods":{"configurePlatformFeeVesting(uint256,uint256,bool)":{"params":{"_cliffDuration":"Duration of the cliff period in seconds","_enabled":"Whether vesting is enabled","_vestingDuration":"Duration of the vesting period in seconds"}},"createToken(string,string,uint256,uint256,bool,bool,uint256,uint256,uint256,uint256,uint256,uint256)":{"params":{"enableBlacklist":"Whether to enable blacklist feature","enableTimeLock":"Whether to enable time lock feature","endTime":"Presale end time","initialSupply":"Initial token supply","maxContribution":"Maximum contribution in ETH","maxSupply":"Maximum token supply","minContribution":"Minimum contribution in ETH","name":"Token name","presaleCap":"Maximum ETH to raise in presale","presaleRate":"Token price in tokens per ETH","startTime":"Presale start time","symbol":"Token symbol"},"returns":{"_0":"address The address of the newly created token"}},"getDeployedTokens()":{"returns":{"_0":"address[] Array of deployed token addresses"}},"getDeploymentFee(address)":{"params":{"_user":"Address to check"},"returns":{"_0":"fee The deployment fee in wei"}},"getTemplateImplementation()":{"returns":{"_0":"address The address of the implementation contract"}},"owner()":{"details":"Returns the address of the current owner."},"proxiableUUID()":{"details":"Implementation of the ERC1822 {proxiableUUID} function. This returns the storage slot used by the implementation. It is used to validate the implementation's compatibility when performing an upgrade. IMPORTANT: A proxy pointing at a proxiable contract should not be considered proxiable itself, because this risks bricking a proxy that upgrades to it, by delegating to itself until out of gas. Thus it is critical that this function revert if invoked through a proxy. This is guaranteed by the `notDelegated` modifier."},"renounceOwnership()":{"details":"Leaves the contract without owner. It will not be possible to call `onlyOwner` functions. Can only be called by the current owner. NOTE: Renouncing ownership will leave the contract without an owner, thereby disabling any functionality that is only available to the owner."},"setCustomDeploymentFee(address,uint256)":{"params":{"_fee":"Custom fee in wei (0 for free deployment)","_user":"Address to set custom fee for"}},"setDeploymentFee(uint256)":{"params":{"_fee":"New deployment fee in wei"}},"setPlatformFeePercentage(uint256)":{"params":{"_percentage":"New fee percentage with 2 decimals (e.g., 500 = 5%)"}},"setPlatformFeeRecipient(address)":{"params":{"_recipient":"Address to receive platform fees"}},"transferOwnership(address)":{"details":"Transfers ownership of the contract to a new account (`newOwner`). Can only be called by the current owner."},"upgradeTo(address)":{"custom:oz-upgrades-unsafe-allow-reachable":"delegatecall","details":"Upgrade the implementation of the proxy to `newImplementation`. Calls {_authorizeUpgrade}. Emits an {Upgraded} event."},"upgradeToAndCall(address,bytes)":{"custom:oz-upgrades-unsafe-allow-reachable":"delegatecall","details":"Upgrade the implementation of the proxy to `newImplementation`, and subsequently execute the function call encoded in `data`. Calls {_authorizeUpgrade}. Emits an {Upgraded} event."},"withdrawFees()":{"details":"Only callable by owner"}},"title":"TokenFactory_v2","version":1},"evm":{"bytecode":{"linkReferences":{},"object":"60c03461009557601f61227638819003918201601f19168301916001600160401b0383118484101761009a5780849260209460405283398101031261009557516001600160a01b03811690819003610095573060805260a0526040516121c590816100b182396080518181816110520152818161115c0152611477015260a051818181610cf20152818161170e01526118550152f35b600080fd5b634e487b7160e01b600052604160045260246000fdfe60808060405260043610156200001457600080fd5b60003560e01c9081630d1ded89146200184057508063113d478b146200181f5780631652da4214620017ee5780631871e243146200173d5780632f3a3d5d14620016f65780633659cfe6146200144f578063420fc210146200142f578063476343ee14620013bf5780634f1ef286146200110557806352d1902d146200103d578063622ae7aa1462000fb2578063715018a61462000f5157806376b2de011462000a0b5780638333903e14620009725780638da5cb5b1462000947578063ae6862ff14620008e7578063b8a6f40214620008a8578063c00be1a01462000813578063c05ddda814620007d5578063c78418b91462000795578063cbf1208f1462000724578063cdd78cfc1462000704578063d002462b14620006b4578063d534014114620005e4578063eb13554f14620005b9578063ec81aadb146200055b578063f2cff57f146200053b578063f2fde38b14620004a3578063fadcac27146200047d578063fe4b84df14620002115763ffa1ad74146200019457600080fd5b346200020c5760003660031901126200020c57604051604081019080821067ffffffffffffffff831117620001f657620001f29160405260058152640322e302e360dc1b60208201526040519182916020835260208301906200199c565b0390f35b634e487b7160e01b600052604160045260246000fd5b600080fd5b346200020c576020806003193601126200020c576004359060005460ff808260081c16159182809362000470575b801562000458575b15620003fc577fd7ff7274b03e3eff3f5e3f308cc4b76fd937a992c26cb91a80e328dce4ab33389160609160ff199085600183831617600055620003e9575b50620002a48260005460081c166200029e8162001bc3565b62001bc3565b620002af3362001b7a565b7fba887708e7d4436dd36b62187bdced03e0b9abe66caf392a66dd84386641b2098660005498620002f5858b60081c16620002ea8162001bc3565b6200029e8162001bc3565b600160c9558060fb557f45610d581145924dd7090a5017e5f2b1d6f42213bb2e95707ff86846bbfcb1ca826101f48060fd557f40bd824d588484917db8fa4fc894c1e0feae5a75885290ba7b97521cebf82a808260018060a01b036033541695866001600160601b0360a01b60fe54161760fe556301e13380809b556276a700998a61010055600161010191825416179055604051908152a1604051908152a1604051908152a16040519182528582015260016040820152a1620003b557005b7f7f26b83ff96e1f2b6a682f133852f6798a09c465da95921460cefb38474024989161ff00191660005560405160018152a1005b61ffff1916610101176000558762000286565b60405162461bcd60e51b815260048101859052602e60248201527f496e697469616c697a61626c653a20636f6e747261637420697320616c72656160448201526d191e481a5b9a5d1a585b1a5e995960921b6064820152608490fd5b50303b15801562000247575060018282161462000247565b506001828216106200023f565b346200020c5760003660031901126200020c57602060ff61010154166040519015158152f35b346200020c5760203660031901126200020c57620004c062001884565b620004ca62001b21565b6001600160a01b03811615620004e757620004e59062001b7a565b005b60405162461bcd60e51b815260206004820152602660248201527f4f776e61626c653a206e6577206f776e657220697320746865207a65726f206160448201526564647265737360d01b6064820152608490fd5b346200020c5760003660031901126200020c57602060fb54604051908152f35b346200020c5760203660031901126200020c576004356101029081548110156200020c5760209160005260018060a01b03907f93bdaa6a4190909b7c3fbe8d42169ffe1cab19f51dfc8db24c71abf849eced4a015416604051908152f35b346200020c5760003660031901126200020c5760fe546040516001600160a01b039091168152602090f35b346200020c5760603660031901126200020c57600435602435604435918215158093036200020c576200061662001b21565b8082116200066f577fd7ff7274b03e3eff3f5e3f308cc4b76fd937a992c26cb91a80e328dce4ab3338926060928260ff55806101005561010160ff1981541660ff841617905560405192835260208301526040820152a1005b60405162461bcd60e51b815260206004820152601960248201527f436c696666206c6f6e676572207468616e2076657374696e67000000000000006044820152606490fd5b346200020c5760203660031901126200020c577f40bd824d588484917db8fa4fc894c1e0feae5a75885290ba7b97521cebf82a806020600435620006f762001b21565b8060fb55604051908152a1005b346200020c5760003660031901126200020c57602060fd54604051908152f35b346200020c5760403660031901126200020c576200074162001884565b7f035250ff587e06567c2fa9d4b3191805958a937530b0e88cfce4c9c4dcdef1b36020602435926200077262001b21565b6001600160a01b0316600081815260fc83526040908190208590555193845292a2005b346200020c5760203660031901126200020c5760206001600160a01b0380620007bd62001884565b16600052610105825260406000205416604051908152f35b346200020c5760203660031901126200020c576001600160a01b03620007fa62001884565b1660005260fc6020526020604060002054604051908152f35b346200020c576020806003193601126200020c576001600160a01b03806200083a62001884565b166000526101036020526040600020916040518092602085549283815201946000526020600020926000915b8383106200088e57620001f28662000881818a0382620018b8565b6040519182918262001934565b845481168752958101956001948501949092019162000866565b346200020c5760203660031901126200020c576001600160a01b03620008cd62001884565b166000526101036020526020604060002054604051908152f35b346200020c5760403660031901126200020c576200090462001884565b6001600160a01b0360243581811692908390036200020c5716600052610104602052604060002090600052602052602060ff604060002054166040519015158152f35b346200020c5760003660031901126200020c576033546040516001600160a01b039091168152602090f35b346200020c5760203660031901126200020c576004356200099262001b21565b6127108111620009cd576020817f45610d581145924dd7090a5017e5f2b1d6f42213bb2e95707ff86846bbfcb1ca9260fd55604051908152a1005b60405162461bcd60e51b81526020600482015260166024820152754665652063616e6e6f7420657863656564203130302560501b6044820152606490fd5b6101803660031901126200020c5760043567ffffffffffffffff81116200020c5762000a3c9036906004016200197b565b60243567ffffffffffffffff81116200020c5762000a5f9036906004016200197b565b9060843580151581036200020c5760a4359081151582036200020c57600260c9541462000f0c57600260c95562000a9633620019de565b341062000ec75760fd5460443580820291811591830414171562000eb157604435612710820481031162000eb15760018060a01b0360fe54169160ff61010154169060ff54926101005494604051968761024081011067ffffffffffffffff6102408a011117620001f6576127109361024089016040528989528a60208a01528484046044350360408a015260643560608a01523360808a0152151560a0890152151560c088015260c43560e088015260e435610100880152610104356101208801526101243561014088015261014435610160880152610164356101808801526101a0870152046101c085015215156101e084015261020083015261022082015262000cc160405180926394cf687360e01b60208301526020602483015261022062000bed62000bd6835161024060448701526102848601906200199c565b60208401518582036043190160648701526200199c565b60408301516084850152606083015160a485015260808301516001600160a01b0390811660c486015260a0840151151560e486015260c0840151151561010486015260e08401516101248601526101008401516101448601526101208401516101648601526101408401516101848601526101608401516101a48601526101808401516101c48601526101a0840151166101e48501526101c08301516102048501526101e0830151151561022485015261020083015161024485015291015161026483015203601f198101835282620018b8565b60405190610416908183019083821067ffffffffffffffff831117620001f657604062000d2b92859462001d5a86397f00000000000000000000000000000000000000000000000000000000000000006001600160a01b031681526020810182905201906200199c565b03906000f0801562000ea55760018060a01b0316906101028054680100000000000000009182821015620001f6576001820180915581101562000e8f577f93bdaa6a4190909b7c3fbe8d42169ffe1cab19f51dfc8db24c71abf849eced4a01916001600160601b0360a01b928484825416179055336000526101036020526040600020805492831015620001f6576001830180825583101562000e8f576020957f42bbfbb52e42e649ec7c181638a6969b047f19faae102187a8957860d5284b7a9462000e589462000e67936000528860002001878282541617905533600052610104885260406000208760005288526040600020600160ff198254161790556101058852604060002090339082541617905560405193849387855260c08986015260c08501906200199c565b9083820360408501526200199c565b3360608301526101443560808301526101643560a08301520390a1600160c955604051908152f35b634e487b7160e01b600052603260045260246000fd5b6040513d6000823e3d90fd5b634e487b7160e01b600052601160045260246000fd5b60405162461bcd60e51b815260206004820152601b60248201527f496e73756666696369656e74206465706c6f796d656e742066656500000000006044820152606490fd5b60405162461bcd60e51b815260206004820152601f60248201527f5265656e7472616e637947756172643a207265656e7472616e742063616c6c006044820152606490fd5b346200020c5760003660031901126200020c5762000f6e62001b21565b603380546001600160a01b031981169091556000906001600160a01b03167f8be0079c531659141344cd1fd0a4f28419497f9722a3daafe3b4186f6b6457e08280a3005b346200020c5760003660031901126200020c57604051806101029182548082526020809201936000527f93bdaa6a4190909b7c3fbe8d42169ffe1cab19f51dfc8db24c71abf849eced4a916000905b8282106200101c57620001f2856200088181890382620018b8565b83546001600160a01b03168652948501946001938401939091019062001001565b346200020c5760003660031901126200020c577f00000000000000000000000000000000000000000000000000000000000000006001600160a01b031630036200109a576020604051600080516020620021708339815191528152f35b60405162461bcd60e51b815260206004820152603860248201527f555550535570677261646561626c653a206d757374206e6f742062652063616c60448201527f6c6564207468726f7567682064656c656761746563616c6c00000000000000006064820152608490fd5b60403660031901126200020c576200111c62001884565b60243567ffffffffffffffff81116200020c57366023820112156200020c5762001151903690602481600401359101620018f8565b906001600160a01b037f00000000000000000000000000000000000000000000000000000000000000008116906200118c3083141562001a28565b620011ac6000805160206200217083398151915292828454161462001a8a565b620011b662001b21565b7f4910fdfa16fed3260ed0e7147f7cc6da11a60208b5b9406d12a635614ffd91435460ff1615620011ef575050620004e5915062001c24565b6040516352d1902d60e01b81526020939291831691908481600481865afa600091816200138a575b50620012795760405162461bcd60e51b815260048101869052602e60248201527f45524331393637557067726164653a206e657720696d706c656d656e7461746960448201526d6f6e206973206e6f74205555505360901b6064820152608490fd5b0362001333576200128a8262001c24565b7fbc7cd75a20ee27fd9adebab32041f755214dbc6bffa90cc0225b39da2e5c2d3b600080a28251158015906200132a575b620012c257005b600080620004e59460405194620012d9866200189b565b602786527f416464726573733a206c6f772d6c6576656c2064656c65676174652063616c6c81870152660819985a5b195960ca1b604087015281519101845af46200132362001aec565b9162001cb6565b506001620012bb565b60405162461bcd60e51b815260048101849052602960248201527f45524331393637557067726164653a20756e737570706f727465642070726f786044820152681a58589b195555525160ba1b6064820152608490fd5b9091508581813d8311620013b7575b620013a58183620018b8565b810103126200020c5751908762001217565b503d62001399565b346200020c5760003660031901126200020c57620013dc62001b21565b600080808047335af1620013ef62001aec565b5015620013f857005b60405162461bcd60e51b815260206004820152600f60248201526e151c985b9cd9995c8819985a5b1959608a1b6044820152606490fd5b346200020c5760003660031901126200020c57602060ff54604051908152f35b346200020c576020806003193601126200020c576200146d62001884565b6001600160a01b037f000000000000000000000000000000000000000000000000000000000000000081169290620014a83085141562001a28565b620014c86000805160206200217083398151915294828654161462001a8a565b620014d262001b21565b604051938285019185831067ffffffffffffffff841117620001f657826040526000865260ff7f4910fdfa16fed3260ed0e7147f7cc6da11a60208b5b9406d12a635614ffd91435416600014620015335750505050620004e5915062001c24565b84939416906040516352d1902d60e01b81528581600481865afa60009181620016c1575b50620015b95760405162461bcd60e51b815260048101879052602e60248201527f45524331393637557067726164653a206e657720696d706c656d656e7461746960448201526d6f6e206973206e6f74205555505360901b6064820152608490fd5b036200166a57620015ca8362001c24565b7fbc7cd75a20ee27fd9adebab32041f755214dbc6bffa90cc0225b39da2e5c2d3b600080a283511580159062001661575b6200160257005b60008091620004e5957f416464726573733a206c6f772d6c6576656c2064656c65676174652063616c6c604051966200163b886200189b565b60278852870152660819985a5b195960ca1b60408701525190845af46200132362001aec565b506000620015fb565b60405162461bcd60e51b815260048101859052602960248201527f45524331393637557067726164653a20756e737570706f727465642070726f786044820152681a58589b195555525160ba1b6064820152608490fd5b9091508681813d8311620016ee575b620016dc8183620018b8565b810103126200020c5751908862001557565b503d620016d0565b346200020c5760003660031901126200020c576040517f00000000000000000000000000000000000000000000000000000000000000006001600160a01b03168152602090f35b346200020c5760203660031901126200020c576200175a62001884565b6200176462001b21565b6001600160a01b03168015620017b5576020817fba887708e7d4436dd36b62187bdced03e0b9abe66caf392a66dd84386641b209926001600160601b0360a01b60fe54161760fe55604051908152a1005b60405162461bcd60e51b8152602060048201526011602482015270125b9d985b1a59081c9958da5c1a595b9d607a1b6044820152606490fd5b346200020c5760203660031901126200020c576020620018176200181162001884565b620019de565b604051908152f35b346200020c5760003660031901126200020c57602061010054604051908152f35b346200020c5760003660031901126200020c577f00000000000000000000000000000000000000000000000000000000000000006001600160a01b03168152602090f35b600435906001600160a01b03821682036200020c57565b6060810190811067ffffffffffffffff821117620001f657604052565b90601f8019910116810190811067ffffffffffffffff821117620001f657604052565b67ffffffffffffffff8111620001f657601f01601f191660200190565b9291926200190682620018db565b91620019166040519384620018b8565b8294818452818301116200020c578281602093846000960137010152565b602090602060408183019282815285518094520193019160005b8281106200195d575050505090565b83516001600160a01b0316855293810193928101926001016200194e565b9080601f830112156200020c578160206200199993359101620018f8565b90565b919082519283825260005b848110620019c9575050826000602080949584010152601f8019910116010190565b602081830181015184830182015201620019a7565b6001600160a01b0316600090815260fc602052604090205480158015908062001a0f575b5062001999575060fb5490565b908162001a1f575b503862001a02565b90503862001a17565b1562001a3057565b60405162461bcd60e51b815260206004820152602c60248201527f46756e6374696f6e206d7573742062652063616c6c6564207468726f7567682060448201526b19195b1959d85d1958d85b1b60a21b6064820152608490fd5b1562001a9257565b60405162461bcd60e51b815260206004820152602c60248201527f46756e6374696f6e206d7573742062652063616c6c6564207468726f7567682060448201526b6163746976652070726f787960a01b6064820152608490fd5b3d1562001b1c573d9062001b0082620018db565b9162001b106040519384620018b8565b82523d6000602084013e565b606090565b6033546001600160a01b0316330362001b3657565b606460405162461bcd60e51b815260206004820152602060248201527f4f776e61626c653a2063616c6c6572206973206e6f7420746865206f776e65726044820152fd5b603380546001600160a01b039283166001600160a01b0319821681179092559091167f8be0079c531659141344cd1fd0a4f28419497f9722a3daafe3b4186f6b6457e0600080a3565b1562001bcb57565b60405162461bcd60e51b815260206004820152602b60248201527f496e697469616c697a61626c653a20636f6e7472616374206973206e6f74206960448201526a6e697469616c697a696e6760a81b6064820152608490fd5b803b1562001c5b576000805160206200217083398151915280546001600160a01b0319166001600160a01b03909216919091179055565b60405162461bcd60e51b815260206004820152602d60248201527f455243313936373a206e657720696d706c656d656e746174696f6e206973206e60448201526c1bdd08184818dbdb9d1c9858dd609a1b6064820152608490fd5b9192901562001d1b575081511562001ccc575090565b3b1562001cd65790565b60405162461bcd60e51b815260206004820152601d60248201527f416464726573733a2063616c6c20746f206e6f6e2d636f6e74726163740000006044820152606490fd5b82519091501562001d2f5750805190602001fd5b60405162461bcd60e51b81526020600482015290819062001d559060248301906200199c565b0390fdfe604060808152610416908138038061001681610218565b93843982019181818403126102135780516001600160a01b038116808203610213576020838101516001600160401b0394919391858211610213570186601f820112156102135780519061007161006c83610253565b610218565b918083528583019886828401011161021357888661008f930161026e565b813b156101b9577f360894a13ba1a3210667c828492db98dca3e2076cc3735a920a3ca505d382bbc80546001600160a01b031916841790556000927fbc7cd75a20ee27fd9adebab32041f755214dbc6bffa90cc0225b39da2e5c2d3b8480a28051158015906101b2575b61010b575b855160d190816103458239f35b855194606086019081118682101761019e578697849283926101889952602788527f416464726573733a206c6f772d6c6576656c2064656c65676174652063616c6c87890152660819985a5b195960ca1b8a8901525190845af4913d15610194573d9061017a61006c83610253565b91825281943d92013e610291565b508038808080806100fe565b5060609250610291565b634e487b7160e01b84526041600452602484fd5b50826100f9565b855162461bcd60e51b815260048101859052602d60248201527f455243313936373a206e657720696d706c656d656e746174696f6e206973206e60448201526c1bdd08184818dbdb9d1c9858dd609a1b6064820152608490fd5b600080fd5b6040519190601f01601f191682016001600160401b0381118382101761023d57604052565b634e487b7160e01b600052604160045260246000fd5b6001600160401b03811161023d57601f01601f191660200190565b60005b8381106102815750506000910152565b8181015183820152602001610271565b919290156102f357508151156102a5575090565b3b156102ae5790565b60405162461bcd60e51b815260206004820152601d60248201527f416464726573733a2063616c6c20746f206e6f6e2d636f6e74726163740000006044820152606490fd5b8251909150156103065750805190602001fd5b6044604051809262461bcd60e51b825260206004830152610336815180928160248601526020868601910161026e565b601f01601f19168101030190fdfe608060405236156054577f360894a13ba1a3210667c828492db98dca3e2076cc3735a920a3ca505d382bbc54600090819081906001600160a01b0316368280378136915af43d82803e156050573d90f35b3d90fd5b7f360894a13ba1a3210667c828492db98dca3e2076cc3735a920a3ca505d382bbc54600090819081906001600160a01b0316368280378136915af43d82803e156050573d90f3fea264697066735822122030ade24792416a57d4529afbb56817b4411c22cc00ef8c3e8e9dd6ea015f4e2564736f6c63430008160033360894a13ba1a3210667c828492db98dca3e2076cc3735a920a3ca505d382bbca26469706673582212201d479480dc05dca27547d1dfcb6e08da1d928abd75e466e55c905225ba0a349b64736f6c63430008160033","opcodes":"PUSH1 0xC0 CALLVALUE PUSH2 0x95 JUMPI PUSH1 0x1F PUSH2 0x2276 CODESIZE DUP2 SWAP1 SUB SWAP2 DUP3 ADD PUSH1 0x1F NOT AND DUP4 ADD SWAP2 PUSH1 0x1 PUSH1 0x1 PUSH1 0x40 SHL SUB DUP4 GT DUP5 DUP5 LT OR PUSH2 0x9A JUMPI DUP1 DUP5 SWAP3 PUSH1 0x20 SWAP5 PUSH1 0x40 MSTORE DUP4 CODECOPY DUP2 ADD SUB SLT PUSH2 0x95 JUMPI MLOAD PUSH1 0x1 PUSH1 0x1 PUSH1 0xA0 SHL SUB DUP2 AND SWAP1 DUP2 SWAP1 SUB PUSH2 0x95 JUMPI ADDRESS PUSH1 0x80 MSTORE PUSH1 0xA0 MSTORE PUSH1 0x40 MLOAD PUSH2 0x21C5 SWAP1 DUP2 PUSH2 0xB1 DUP3 CODECOPY PUSH1 0x80 MLOAD DUP2 DUP2 DUP2 PUSH2 0x1052 ADD MSTORE DUP2 DUP2 PUSH2 0x115C ADD MSTORE PUSH2 0x1477 ADD MSTORE PUSH1 0xA0 MLOAD DUP2 DUP2 DUP2 PUSH2 0xCF2 ADD MSTORE DUP2 DUP2 PUSH2 0x170E ADD MSTORE PUSH2 0x1855 ADD MSTORE RETURN JUMPDEST PUSH1 0x0 DUP1 REVERT JUMPDEST PUSH4 0x4E487B71 PUSH1 0xE0 SHL PUSH1 0x0 MSTORE PUSH1 0x41 PUSH1 0x4 MSTORE PUSH1 0x24 PUSH1 0x0 REVERT INVALID PUSH1 0x80 DUP1 PUSH1 0x40 MSTORE PUSH1 0x4 CALLDATASIZE LT ISZERO PUSH3 0x14 JUMPI PUSH1 0x0 DUP1 REVERT JUMPDEST PUSH1 0x0 CALLDATALOAD PUSH1 0xE0 SHR SWAP1 DUP2 PUSH4 0xD1DED89 EQ PUSH3 0x1840 JUMPI POP DUP1 PUSH4 0x113D478B EQ PUSH3 0x181F JUMPI DUP1 PUSH4 0x1652DA42 EQ PUSH3 0x17EE JUMPI DUP1 PUSH4 0x1871E243 EQ PUSH3 0x173D JUMPI DUP1 PUSH4 0x2F3A3D5D EQ PUSH3 0x16F6 JUMPI DUP1 PUSH4 0x3659CFE6 EQ PUSH3 0x144F JUMPI DUP1 PUSH4 0x420FC210 EQ PUSH3 0x142F JUMPI DUP1 PUSH4 0x476343EE EQ PUSH3 0x13BF JUMPI DUP1 PUSH4 0x4F1EF286 EQ PUSH3 0x1105 JUMPI DUP1 PUSH4 0x52D1902D EQ PUSH3 0x103D JUMPI DUP1 PUSH4 0x622AE7AA EQ PUSH3 0xFB2 JUMPI DUP1 PUSH4 0x715018A6 EQ PUSH3 0xF51 JUMPI DUP1 PUSH4 0x76B2DE01 EQ PUSH3 0xA0B JUMPI DUP1 PUSH4 0x8333903E EQ PUSH3 0x972 JUMPI DUP1 PUSH4 0x8DA5CB5B EQ PUSH3 0x947 JUMPI DUP1 PUSH4 0xAE6862FF EQ PUSH3 0x8E7 JUMPI DUP1 PUSH4 0xB8A6F402 EQ PUSH3 0x8A8 JUMPI DUP1 PUSH4 0xC00BE1A0 EQ PUSH3 0x813 JUMPI DUP1 PUSH4 0xC05DDDA8 EQ PUSH3 0x7D5 JUMPI DUP1 PUSH4 0xC78418B9 EQ PUSH3 0x795 JUMPI DUP1 PUSH4 0xCBF1208F EQ PUSH3 0x724 JUMPI DUP1 PUSH4 0xCDD78CFC EQ PUSH3 0x704 JUMPI DUP1 PUSH4 0xD002462B EQ PUSH3 0x6B4 JUMPI DUP1 PUSH4 0xD5340141 EQ PUSH3 0x5E4 JUMPI DUP1 PUSH4 0xEB13554F EQ PUSH3 0x5B9 JUMPI DUP1 PUSH4 0xEC81AADB EQ PUSH3 0x55B JUMPI DUP1 PUSH4 0xF2CFF57F EQ PUSH3 0x53B JUMPI DUP1 PUSH4 0xF2FDE38B EQ PUSH3 0x4A3 JUMPI DUP1 PUSH4 0xFADCAC27 EQ PUSH3 0x47D JUMPI DUP1 PUSH4 0xFE4B84DF EQ PUSH3 0x211 JUMPI PUSH4 0xFFA1AD74 EQ PUSH3 0x194 JUMPI PUSH1 0x0 DUP1 REVERT JUMPDEST CALLVALUE PUSH3 0x20C JUMPI PUSH1 0x0 CALLDATASIZE PUSH1 0x3 NOT ADD SLT PUSH3 0x20C JUMPI PUSH1 0x40 MLOAD PUSH1 0x40 DUP2 ADD SWAP1 DUP1 DUP3 LT PUSH8 0xFFFFFFFFFFFFFFFF DUP4 GT OR PUSH3 0x1F6 JUMPI PUSH3 0x1F2 SWAP2 PUSH1 0x40 MSTORE PUSH1 0x5 DUP2 MSTORE PUSH5 0x322E302E3 PUSH1 0xDC SHL PUSH1 0x20 DUP3 ADD MSTORE PUSH1 0x40 MLOAD SWAP2 DUP3 SWAP2 PUSH1 0x20 DUP4 MSTORE PUSH1 0x20 DUP4 ADD SWAP1 PUSH3 0x199C JUMP JUMPDEST SUB SWAP1 RETURN JUMPDEST PUSH4 0x4E487B71 PUSH1 0xE0 SHL PUSH1 0x0 MSTORE PUSH1 0x41 PUSH1 0x4 MSTORE PUSH1 0x24 PUSH1 0x0 REVERT JUMPDEST PUSH1 0x0 DUP1 REVERT JUMPDEST CALLVALUE PUSH3 0x20C JUMPI PUSH1 0x20 DUP1 PUSH1 0x3 NOT CALLDATASIZE ADD SLT PUSH3 0x20C JUMPI PUSH1 0x4 CALLDATALOAD SWAP1 PUSH1 0x0 SLOAD PUSH1 0xFF DUP1 DUP3 PUSH1 0x8 SHR AND ISZERO SWAP2 DUP3 DUP1 SWAP4 PUSH3 0x470 JUMPI JUMPDEST DUP1 ISZERO PUSH3 0x458 JUMPI JUMPDEST ISZERO PUSH3 0x3FC JUMPI PUSH32 0xD7FF7274B03E3EFF3F5E3F308CC4B76FD937A992C26CB91A80E328DCE4AB3338 SWAP2 PUSH1 0x60 SWAP2 PUSH1 0xFF NOT SWAP1 DUP6 PUSH1 0x1 DUP4 DUP4 AND OR PUSH1 0x0 SSTORE PUSH3 0x3E9 JUMPI JUMPDEST POP PUSH3 0x2A4 DUP3 PUSH1 0x0 SLOAD PUSH1 0x8 SHR AND PUSH3 0x29E DUP2 PUSH3 0x1BC3 JUMP JUMPDEST PUSH3 0x1BC3 JUMP JUMPDEST PUSH3 0x2AF CALLER PUSH3 0x1B7A JUMP JUMPDEST PUSH32 0xBA887708E7D4436DD36B62187BDCED03E0B9ABE66CAF392A66DD84386641B209 DUP7 PUSH1 0x0 SLOAD SWAP9 PUSH3 0x2F5 DUP6 DUP12 PUSH1 0x8 SHR AND PUSH3 0x2EA DUP2 PUSH3 0x1BC3 JUMP JUMPDEST PUSH3 0x29E DUP2 PUSH3 0x1BC3 JUMP JUMPDEST PUSH1 0x1 PUSH1 0xC9 SSTORE DUP1 PUSH1 0xFB SSTORE PUSH32 0x45610D581145924DD7090A5017E5F2B1D6F42213BB2E95707FF86846BBFCB1CA DUP3 PUSH2 0x1F4 DUP1 PUSH1 0xFD SSTORE PUSH32 0x40BD824D588484917DB8FA4FC894C1E0FEAE5A75885290BA7B97521CEBF82A80 DUP3 PUSH1 0x1 DUP1 PUSH1 0xA0 SHL SUB PUSH1 0x33 SLOAD AND SWAP6 DUP7 PUSH1 0x1 PUSH1 0x1 PUSH1 0x60 SHL SUB PUSH1 0xA0 SHL PUSH1 0xFE SLOAD AND OR PUSH1 0xFE SSTORE PUSH4 0x1E13380 DUP1 SWAP12 SSTORE PUSH3 0x76A700 SWAP10 DUP11 PUSH2 0x100 SSTORE PUSH1 0x1 PUSH2 0x101 SWAP2 DUP3 SLOAD AND OR SWAP1 SSTORE PUSH1 0x40 MLOAD SWAP1 DUP2 MSTORE LOG1 PUSH1 0x40 MLOAD SWAP1 DUP2 MSTORE LOG1 PUSH1 0x40 MLOAD SWAP1 DUP2 MSTORE LOG1 PUSH1 0x40 MLOAD SWAP2 DUP3 MSTORE DUP6 DUP3 ADD MSTORE PUSH1 0x1 PUSH1 0x40 DUP3 ADD MSTORE LOG1 PUSH3 0x3B5 JUMPI STOP JUMPDEST PUSH32 0x7F26B83FF96E1F2B6A682F133852F6798A09C465DA95921460CEFB3847402498 SWAP2 PUSH2 0xFF00 NOT AND PUSH1 0x0 SSTORE PUSH1 0x40 MLOAD PUSH1 0x1 DUP2 MSTORE LOG1 STOP JUMPDEST PUSH2 0xFFFF NOT AND PUSH2 0x101 OR PUSH1 0x0 SSTORE DUP8 PUSH3 0x286 JUMP JUMPDEST PUSH1 0x40 MLOAD PUSH3 0x461BCD PUSH1 0xE5 SHL DUP2 MSTORE PUSH1 0x4 DUP2 ADD DUP6 SWAP1 MSTORE PUSH1 0x2E PUSH1 0x24 DUP3 ADD MSTORE PUSH32 0x496E697469616C697A61626C653A20636F6E747261637420697320616C726561 PUSH1 0x44 DUP3 ADD MSTORE PUSH14 0x191E481A5B9A5D1A585B1A5E9959 PUSH1 0x92 SHL PUSH1 0x64 DUP3 ADD MSTORE PUSH1 0x84 SWAP1 REVERT JUMPDEST POP ADDRESS EXTCODESIZE ISZERO DUP1 ISZERO PUSH3 0x247 JUMPI POP PUSH1 0x1 DUP3 DUP3 AND EQ PUSH3 0x247 JUMP JUMPDEST POP PUSH1 0x1 DUP3 DUP3 AND LT PUSH3 0x23F JUMP JUMPDEST CALLVALUE PUSH3 0x20C JUMPI PUSH1 0x0 CALLDATASIZE PUSH1 0x3 NOT ADD SLT PUSH3 0x20C JUMPI PUSH1 0x20 PUSH1 0xFF PUSH2 0x101 SLOAD AND PUSH1 0x40 MLOAD SWAP1 ISZERO ISZERO DUP2 MSTORE RETURN JUMPDEST CALLVALUE PUSH3 0x20C JUMPI PUSH1 0x20 CALLDATASIZE PUSH1 0x3 NOT ADD SLT PUSH3 0x20C JUMPI PUSH3 0x4C0 PUSH3 0x1884 JUMP JUMPDEST PUSH3 0x4CA PUSH3 0x1B21 JUMP JUMPDEST PUSH1 0x1 PUSH1 0x1 PUSH1 0xA0 SHL SUB DUP2 AND ISZERO PUSH3 0x4E7 JUMPI PUSH3 0x4E5 SWAP1 PUSH3 0x1B7A JUMP JUMPDEST STOP JUMPDEST PUSH1 0x40 MLOAD PUSH3 0x461BCD PUSH1 0xE5 SHL DUP2 MSTORE PUSH1 0x20 PUSH1 0x4 DUP3 ADD MSTORE PUSH1 0x26 PUSH1 0x24 DUP3 ADD MSTORE PUSH32 0x4F776E61626C653A206E6577206F776E657220697320746865207A65726F2061 PUSH1 0x44 DUP3 ADD MSTORE PUSH6 0x646472657373 PUSH1 0xD0 SHL PUSH1 0x64 DUP3 ADD MSTORE PUSH1 0x84 SWAP1 REVERT JUMPDEST CALLVALUE PUSH3 0x20C JUMPI PUSH1 0x0 CALLDATASIZE PUSH1 0x3 NOT ADD SLT PUSH3 0x20C JUMPI PUSH1 0x20 PUSH1 0xFB SLOAD PUSH1 0x40 MLOAD SWAP1 DUP2 MSTORE RETURN JUMPDEST CALLVALUE PUSH3 0x20C JUMPI PUSH1 0x20 CALLDATASIZE PUSH1 0x3 NOT ADD SLT PUSH3 0x20C JUMPI PUSH1 0x4 CALLDATALOAD PUSH2 0x102 SWAP1 DUP2 SLOAD DUP2 LT ISZERO PUSH3 0x20C JUMPI PUSH1 0x20 SWAP2 PUSH1 0x0 MSTORE PUSH1 0x1 DUP1 PUSH1 0xA0 SHL SUB SWAP1 PUSH32 0x93BDAA6A4190909B7C3FBE8D42169FFE1CAB19F51DFC8DB24C71ABF849ECED4A ADD SLOAD AND PUSH1 0x40 MLOAD SWAP1 DUP2 MSTORE RETURN JUMPDEST CALLVALUE PUSH3 0x20C JUMPI PUSH1 0x0 CALLDATASIZE PUSH1 0x3 NOT ADD SLT PUSH3 0x20C JUMPI PUSH1 0xFE SLOAD PUSH1 0x40 MLOAD PUSH1 0x1 PUSH1 0x1 PUSH1 0xA0 SHL SUB SWAP1 SWAP2 AND DUP2 MSTORE PUSH1 0x20 SWAP1 RETURN JUMPDEST CALLVALUE PUSH3 0x20C JUMPI PUSH1 0x60 CALLDATASIZE PUSH1 0x3 NOT ADD SLT PUSH3 0x20C JUMPI PUSH1 0x4 CALLDATALOAD PUSH1 0x24 CALLDATALOAD PUSH1 0x44 CALLDATALOAD SWAP2 DUP3 ISZERO ISZERO DUP1 SWAP4 SUB PUSH3 0x20C JUMPI PUSH3 0x616 PUSH3 0x1B21 JUMP JUMPDEST DUP1 DUP3 GT PUSH3 0x66F JUMPI PUSH32 0xD7FF7274B03E3EFF3F5E3F308CC4B76FD937A992C26CB91A80E328DCE4AB3338 SWAP3 PUSH1 0x60 SWAP3 DUP3 PUSH1 0xFF SSTORE DUP1 PUSH2 0x100 SSTORE PUSH2 0x101 PUSH1 0xFF NOT DUP2 SLOAD AND PUSH1 0xFF DUP5 AND OR SWAP1 SSTORE PUSH1 0x40 MLOAD SWAP3 DUP4 MSTORE PUSH1 0x20 DUP4 ADD MSTORE PUSH1 0x40 DUP3 ADD MSTORE LOG1 STOP JUMPDEST PUSH1 0x40 MLOAD PUSH3 0x461BCD PUSH1 0xE5 SHL DUP2 MSTORE PUSH1 0x20 PUSH1 0x4 DUP3 ADD MSTORE PUSH1 0x19 PUSH1 0x24 DUP3 ADD MSTORE PUSH32 0x436C696666206C6F6E676572207468616E2076657374696E6700000000000000 PUSH1 0x44 DUP3 ADD MSTORE PUSH1 0x64 SWAP1 REVERT JUMPDEST CALLVALUE PUSH3 0x20C JUMPI PUSH1 0x20 CALLDATASIZE PUSH1 0x3 NOT ADD SLT PUSH3 0x20C JUMPI PUSH32 0x40BD824D588484917DB8FA4FC894C1E0FEAE5A75885290BA7B97521CEBF82A80 PUSH1 0x20 PUSH1 0x4 CALLDATALOAD PUSH3 0x6F7 PUSH3 0x1B21 JUMP JUMPDEST DUP1 PUSH1 0xFB SSTORE PUSH1 0x40 MLOAD SWAP1 DUP2 MSTORE LOG1 STOP JUMPDEST CALLVALUE PUSH3 0x20C JUMPI PUSH1 0x0 CALLDATASIZE PUSH1 0x3 NOT ADD SLT PUSH3 0x20C JUMPI PUSH1 0x20 PUSH1 0xFD SLOAD PUSH1 0x40 MLOAD SWAP1 DUP2 MSTORE RETURN JUMPDEST CALLVALUE PUSH3 0x20C JUMPI PUSH1 0x40 CALLDATASIZE PUSH1 0x3 NOT ADD SLT PUSH3 0x20C JUMPI PUSH3 0x741 PUSH3 0x1884 JUMP JUMPDEST PUSH32 0x35250FF587E06567C2FA9D4B3191805958A937530B0E88CFCE4C9C4DCDEF1B3 PUSH1 0x20 PUSH1 0x24 CALLDATALOAD SWAP3 PUSH3 0x772 PUSH3 0x1B21 JUMP JUMPDEST PUSH1 0x1 PUSH1 0x1 PUSH1 0xA0 SHL SUB AND PUSH1 0x0 DUP2 DUP2 MSTORE PUSH1 0xFC DUP4 MSTORE PUSH1 0x40 SWAP1 DUP2 SWAP1 KECCAK256 DUP6 SWAP1 SSTORE MLOAD SWAP4 DUP5 MSTORE SWAP3 LOG2 STOP JUMPDEST CALLVALUE PUSH3 0x20C JUMPI PUSH1 0x20 CALLDATASIZE PUSH1 0x3 NOT ADD SLT PUSH3 0x20C JUMPI PUSH1 0x20 PUSH1 0x1 PUSH1 0x1 PUSH1 0xA0 SHL SUB DUP1 PUSH3 0x7BD PUSH3 0x1884 JUMP JUMPDEST AND PUSH1 0x0 MSTORE PUSH2 0x105 DUP3 MSTORE PUSH1 0x40 PUSH1 0x0 KECCAK256 SLOAD AND PUSH1 0x40 MLOAD SWAP1 DUP2 MSTORE RETURN JUMPDEST CALLVALUE PUSH3 0x20C JUMPI PUSH1 0x20 CALLDATASIZE PUSH1 0x3 NOT ADD SLT PUSH3 0x20C JUMPI PUSH1 0x1 PUSH1 0x1 PUSH1 0xA0 SHL SUB PUSH3 0x7FA PUSH3 0x1884 JUMP JUMPDEST AND PUSH1 0x0 MSTORE PUSH1 0xFC PUSH1 0x20 MSTORE PUSH1 0x20 PUSH1 0x40 PUSH1 0x0 KECCAK256 SLOAD PUSH1 0x40 MLOAD SWAP1 DUP2 MSTORE RETURN JUMPDEST CALLVALUE PUSH3 0x20C JUMPI PUSH1 0x20 DUP1 PUSH1 0x3 NOT CALLDATASIZE ADD SLT PUSH3 0x20C JUMPI PUSH1 0x1 PUSH1 0x1 PUSH1 0xA0 SHL SUB DUP1 PUSH3 0x83A PUSH3 0x1884 JUMP JUMPDEST AND PUSH1 0x0 MSTORE PUSH2 0x103 PUSH1 0x20 MSTORE PUSH1 0x40 PUSH1 0x0 KECCAK256 SWAP2 PUSH1 0x40 MLOAD DUP1 SWAP3 PUSH1 0x20 DUP6 SLOAD SWAP3 DUP4 DUP2 MSTORE ADD SWAP5 PUSH1 0x0 MSTORE PUSH1 0x20 PUSH1 0x0 KECCAK256 SWAP3 PUSH1 0x0 SWAP2 JUMPDEST DUP4 DUP4 LT PUSH3 0x88E JUMPI PUSH3 0x1F2 DUP7 PUSH3 0x881 DUP2 DUP11 SUB DUP3 PUSH3 0x18B8 JUMP JUMPDEST PUSH1 0x40 MLOAD SWAP2 DUP3 SWAP2 DUP3 PUSH3 0x1934 JUMP JUMPDEST DUP5 SLOAD DUP2 AND DUP8 MSTORE SWAP6 DUP2 ADD SWAP6 PUSH1 0x1 SWAP5 DUP6 ADD SWAP5 SWAP1 SWAP3 ADD SWAP2 PUSH3 0x866 JUMP JUMPDEST CALLVALUE PUSH3 0x20C JUMPI PUSH1 0x20 CALLDATASIZE PUSH1 0x3 NOT ADD SLT PUSH3 0x20C JUMPI PUSH1 0x1 PUSH1 0x1 PUSH1 0xA0 SHL SUB PUSH3 0x8CD PUSH3 0x1884 JUMP JUMPDEST AND PUSH1 0x0 MSTORE PUSH2 0x103 PUSH1 0x20 MSTORE PUSH1 0x20 PUSH1 0x40 PUSH1 0x0 KECCAK256 SLOAD PUSH1 0x40 MLOAD SWAP1 DUP2 MSTORE RETURN JUMPDEST CALLVALUE PUSH3 0x20C JUMPI PUSH1 0x40 CALLDATASIZE PUSH1 0x3 NOT ADD SLT PUSH3 0x20C JUMPI PUSH3 0x904 PUSH3 0x1884 JUMP JUMPDEST PUSH1 0x1 PUSH1 0x1 PUSH1 0xA0 SHL SUB PUSH1 0x24 CALLDATALOAD DUP2 DUP2 AND SWAP3 SWAP1 DUP4 SWAP1 SUB PUSH3 0x20C JUMPI AND PUSH1 0x0 MSTORE PUSH2 0x104 PUSH1 0x20 MSTORE PUSH1 0x40 PUSH1 0x0 KECCAK256 SWAP1 PUSH1 0x0 MSTORE PUSH1 0x20 MSTORE PUSH1 0x20 PUSH1 0xFF PUSH1 0x40 PUSH1 0x0 KECCAK256 SLOAD AND PUSH1 0x40 MLOAD SWAP1 ISZERO ISZERO DUP2 MSTORE RETURN JUMPDEST CALLVALUE PUSH3 0x20C JUMPI PUSH1 0x0 CALLDATASIZE PUSH1 0x3 NOT ADD SLT PUSH3 0x20C JUMPI PUSH1 0x33 SLOAD PUSH1 0x40 MLOAD PUSH1 0x1 PUSH1 0x1 PUSH1 0xA0 SHL SUB SWAP1 SWAP2 AND DUP2 MSTORE PUSH1 0x20 SWAP1 RETURN JUMPDEST CALLVALUE PUSH3 0x20C JUMPI PUSH1 0x20 CALLDATASIZE PUSH1 0x3 NOT ADD SLT PUSH3 0x20C JUMPI PUSH1 0x4 CALLDATALOAD PUSH3 0x992 PUSH3 0x1B21 JUMP JUMPDEST PUSH2 0x2710 DUP2 GT PUSH3 0x9CD JUMPI PUSH1 0x20 DUP2 PUSH32 0x45610D581145924DD7090A5017E5F2B1D6F42213BB2E95707FF86846BBFCB1CA SWAP3 PUSH1 0xFD SSTORE PUSH1 0x40 MLOAD SWAP1 DUP2 MSTORE LOG1 STOP JUMPDEST PUSH1 0x40 MLOAD PUSH3 0x461BCD PUSH1 0xE5 SHL DUP2 MSTORE PUSH1 0x20 PUSH1 0x4 DUP3 ADD MSTORE PUSH1 0x16 PUSH1 0x24 DUP3 ADD MSTORE PUSH22 0x4665652063616E6E6F74206578636565642031303025 PUSH1 0x50 SHL PUSH1 0x44 DUP3 ADD MSTORE PUSH1 0x64 SWAP1 REVERT JUMPDEST PUSH2 0x180 CALLDATASIZE PUSH1 0x3 NOT ADD SLT PUSH3 0x20C JUMPI PUSH1 0x4 CALLDATALOAD PUSH8 0xFFFFFFFFFFFFFFFF DUP2 GT PUSH3 0x20C JUMPI PUSH3 0xA3C SWAP1 CALLDATASIZE SWAP1 PUSH1 0x4 ADD PUSH3 0x197B JUMP JUMPDEST PUSH1 0x24 CALLDATALOAD PUSH8 0xFFFFFFFFFFFFFFFF DUP2 GT PUSH3 0x20C JUMPI PUSH3 0xA5F SWAP1 CALLDATASIZE SWAP1 PUSH1 0x4 ADD PUSH3 0x197B JUMP JUMPDEST SWAP1 PUSH1 0x84 CALLDATALOAD DUP1 ISZERO ISZERO DUP2 SUB PUSH3 0x20C JUMPI PUSH1 0xA4 CALLDATALOAD SWAP1 DUP2 ISZERO ISZERO DUP3 SUB PUSH3 0x20C JUMPI PUSH1 0x2 PUSH1 0xC9 SLOAD EQ PUSH3 0xF0C JUMPI PUSH1 0x2 PUSH1 0xC9 SSTORE PUSH3 0xA96 CALLER PUSH3 0x19DE JUMP JUMPDEST CALLVALUE LT PUSH3 0xEC7 JUMPI PUSH1 0xFD SLOAD PUSH1 0x44 CALLDATALOAD DUP1 DUP3 MUL SWAP2 DUP2 ISZERO SWAP2 DUP4 DIV EQ OR ISZERO PUSH3 0xEB1 JUMPI PUSH1 0x44 CALLDATALOAD PUSH2 0x2710 DUP3 DIV DUP2 SUB GT PUSH3 0xEB1 JUMPI PUSH1 0x1 DUP1 PUSH1 0xA0 SHL SUB PUSH1 0xFE SLOAD AND SWAP2 PUSH1 0xFF PUSH2 0x101 SLOAD AND SWAP1 PUSH1 0xFF SLOAD SWAP3 PUSH2 0x100 SLOAD SWAP5 PUSH1 0x40 MLOAD SWAP7 DUP8 PUSH2 0x240 DUP2 ADD LT PUSH8 0xFFFFFFFFFFFFFFFF PUSH2 0x240 DUP11 ADD GT OR PUSH3 0x1F6 JUMPI PUSH2 0x2710 SWAP4 PUSH2 0x240 DUP10 ADD PUSH1 0x40 MSTORE DUP10 DUP10 MSTORE DUP11 PUSH1 0x20 DUP11 ADD MSTORE DUP5 DUP5 DIV PUSH1 0x44 CALLDATALOAD SUB PUSH1 0x40 DUP11 ADD MSTORE PUSH1 0x64 CALLDATALOAD PUSH1 0x60 DUP11 ADD MSTORE CALLER PUSH1 0x80 DUP11 ADD MSTORE ISZERO ISZERO PUSH1 0xA0 DUP10 ADD MSTORE ISZERO ISZERO PUSH1 0xC0 DUP9 ADD MSTORE PUSH1 0xC4 CALLDATALOAD PUSH1 0xE0 DUP9 ADD MSTORE PUSH1 0xE4 CALLDATALOAD PUSH2 0x100 DUP9 ADD MSTORE PUSH2 0x104 CALLDATALOAD PUSH2 0x120 DUP9 ADD MSTORE PUSH2 0x124 CALLDATALOAD PUSH2 0x140 DUP9 ADD MSTORE PUSH2 0x144 CALLDATALOAD PUSH2 0x160 DUP9 ADD MSTORE PUSH2 0x164 CALLDATALOAD PUSH2 0x180 DUP9 ADD MSTORE PUSH2 0x1A0 DUP8 ADD MSTORE DIV PUSH2 0x1C0 DUP6 ADD MSTORE ISZERO ISZERO PUSH2 0x1E0 DUP5 ADD MSTORE PUSH2 0x200 DUP4 ADD MSTORE PUSH2 0x220 DUP3 ADD MSTORE PUSH3 0xCC1 PUSH1 0x40 MLOAD DUP1 SWAP3 PUSH4 0x94CF6873 PUSH1 0xE0 SHL PUSH1 0x20 DUP4 ADD MSTORE PUSH1 0x20 PUSH1 0x24 DUP4 ADD MSTORE PUSH2 0x220 PUSH3 0xBED PUSH3 0xBD6 DUP4 MLOAD PUSH2 0x240 PUSH1 0x44 DUP8 ADD MSTORE PUSH2 0x284 DUP7 ADD SWAP1 PUSH3 0x199C JUMP JUMPDEST PUSH1 0x20 DUP5 ADD MLOAD DUP6 DUP3 SUB PUSH1 0x43 NOT ADD PUSH1 0x64 DUP8 ADD MSTORE PUSH3 0x199C JUMP JUMPDEST PUSH1 0x40 DUP4 ADD MLOAD PUSH1 0x84 DUP6 ADD MSTORE PUSH1 0x60 DUP4 ADD MLOAD PUSH1 0xA4 DUP6 ADD MSTORE PUSH1 0x80 DUP4 ADD MLOAD PUSH1 0x1 PUSH1 0x1 PUSH1 0xA0 SHL SUB SWAP1 DUP2 AND PUSH1 0xC4 DUP7 ADD MSTORE PUSH1 0xA0 DUP5 ADD MLOAD ISZERO ISZERO PUSH1 0xE4 DUP7 ADD MSTORE PUSH1 0xC0 DUP5 ADD MLOAD ISZERO ISZERO PUSH2 0x104 DUP7 ADD MSTORE PUSH1 0xE0 DUP5 ADD MLOAD PUSH2 0x124 DUP7 ADD MSTORE PUSH2 0x100 DUP5 ADD MLOAD PUSH2 0x144 DUP7 ADD MSTORE PUSH2 0x120 DUP5 ADD MLOAD PUSH2 0x164 DUP7 ADD MSTORE PUSH2 0x140 DUP5 ADD MLOAD PUSH2 0x184 DUP7 ADD MSTORE PUSH2 0x160 DUP5 ADD MLOAD PUSH2 0x1A4 DUP7 ADD MSTORE PUSH2 0x180 DUP5 ADD MLOAD PUSH2 0x1C4 DUP7 ADD MSTORE PUSH2 0x1A0 DUP5 ADD MLOAD AND PUSH2 0x1E4 DUP6 ADD MSTORE PUSH2 0x1C0 DUP4 ADD MLOAD PUSH2 0x204 DUP6 ADD MSTORE PUSH2 0x1E0 DUP4 ADD MLOAD ISZERO ISZERO PUSH2 0x224 DUP6 ADD MSTORE PUSH2 0x200 DUP4 ADD MLOAD PUSH2 0x244 DUP6 ADD MSTORE SWAP2 ADD MLOAD PUSH2 0x264 DUP4 ADD MSTORE SUB PUSH1 0x1F NOT DUP2 ADD DUP4 MSTORE DUP3 PUSH3 0x18B8 JUMP JUMPDEST PUSH1 0x40 MLOAD SWAP1 PUSH2 0x416 SWAP1 DUP2 DUP4 ADD SWAP1 DUP4 DUP3 LT PUSH8 0xFFFFFFFFFFFFFFFF DUP4 GT OR PUSH3 0x1F6 JUMPI PUSH1 0x40 PUSH3 0xD2B SWAP3 DUP6 SWAP5 PUSH3 0x1D5A DUP7 CODECOPY PUSH32 0x0 PUSH1 0x1 PUSH1 0x1 PUSH1 0xA0 SHL SUB AND DUP2 MSTORE PUSH1 0x20 DUP2 ADD DUP3 SWAP1 MSTORE ADD SWAP1 PUSH3 0x199C JUMP JUMPDEST SUB SWAP1 PUSH1 0x0 CREATE DUP1 ISZERO PUSH3 0xEA5 JUMPI PUSH1 0x1 DUP1 PUSH1 0xA0 SHL SUB AND SWAP1 PUSH2 0x102 DUP1 SLOAD PUSH9 0x10000000000000000 SWAP2 DUP3 DUP3 LT ISZERO PUSH3 0x1F6 JUMPI PUSH1 0x1 DUP3 ADD DUP1 SWAP2 SSTORE DUP2 LT ISZERO PUSH3 0xE8F JUMPI PUSH32 0x93BDAA6A4190909B7C3FBE8D42169FFE1CAB19F51DFC8DB24C71ABF849ECED4A ADD SWAP2 PUSH1 0x1 PUSH1 0x1 PUSH1 0x60 SHL SUB PUSH1 0xA0 SHL SWAP3 DUP5 DUP5 DUP3 SLOAD AND OR SWAP1 SSTORE CALLER PUSH1 0x0 MSTORE PUSH2 0x103 PUSH1 0x20 MSTORE PUSH1 0x40 PUSH1 0x0 KECCAK256 DUP1 SLOAD SWAP3 DUP4 LT ISZERO PUSH3 0x1F6 JUMPI PUSH1 0x1 DUP4 ADD DUP1 DUP3 SSTORE DUP4 LT ISZERO PUSH3 0xE8F JUMPI PUSH1 0x20 SWAP6 PUSH32 0x42BBFBB52E42E649EC7C181638A6969B047F19FAAE102187A8957860D5284B7A SWAP5 PUSH3 0xE58 SWAP5 PUSH3 0xE67 SWAP4 PUSH1 0x0 MSTORE DUP9 PUSH1 0x0 KECCAK256 ADD DUP8 DUP3 DUP3 SLOAD AND OR SWAP1 SSTORE CALLER PUSH1 0x0 MSTORE PUSH2 0x104 DUP9 MSTORE PUSH1 0x40 PUSH1 0x0 KECCAK256 DUP8 PUSH1 0x0 MSTORE DUP9 MSTORE PUSH1 0x40 PUSH1 0x0 KECCAK256 PUSH1 0x1 PUSH1 0xFF NOT DUP3 SLOAD AND OR SWAP1 SSTORE PUSH2 0x105 DUP9 MSTORE PUSH1 0x40 PUSH1 0x0 KECCAK256 SWAP1 CALLER SWAP1 DUP3 SLOAD AND OR SWAP1 SSTORE PUSH1 0x40 MLOAD SWAP4 DUP5 SWAP4 DUP8 DUP6 MSTORE PUSH1 0xC0 DUP10 DUP7 ADD MSTORE PUSH1 0xC0 DUP6 ADD SWAP1 PUSH3 0x199C JUMP JUMPDEST SWAP1 DUP4 DUP3 SUB PUSH1 0x40 DUP6 ADD MSTORE PUSH3 0x199C JUMP JUMPDEST CALLER PUSH1 0x60 DUP4 ADD MSTORE PUSH2 0x144 CALLDATALOAD PUSH1 0x80 DUP4 ADD MSTORE PUSH2 0x164 CALLDATALOAD PUSH1 0xA0 DUP4 ADD MSTORE SUB SWAP1 LOG1 PUSH1 0x1 PUSH1 0xC9 SSTORE PUSH1 0x40 MLOAD SWAP1 DUP2 MSTORE RETURN JUMPDEST PUSH4 0x4E487B71 PUSH1 0xE0 SHL PUSH1 0x0 MSTORE PUSH1 0x32 PUSH1 0x4 MSTORE PUSH1 0x24 PUSH1 0x0 REVERT JUMPDEST PUSH1 0x40 MLOAD RETURNDATASIZE PUSH1 0x0 DUP3 RETURNDATACOPY RETURNDATASIZE SWAP1 REVERT JUMPDEST PUSH4 0x4E487B71 PUSH1 0xE0 SHL PUSH1 0x0 MSTORE PUSH1 0x11 PUSH1 0x4 MSTORE PUSH1 0x24 PUSH1 0x0 REVERT JUMPDEST PUSH1 0x40 MLOAD PUSH3 0x461BCD PUSH1 0xE5 SHL DUP2 MSTORE PUSH1 0x20 PUSH1 0x4 DUP3 ADD MSTORE PUSH1 0x1B PUSH1 0x24 DUP3 ADD MSTORE PUSH32 0x496E73756666696369656E74206465706C6F796D656E74206665650000000000 PUSH1 0x44 DUP3 ADD MSTORE PUSH1 0x64 SWAP1 REVERT JUMPDEST PUSH1 0x40 MLOAD PUSH3 0x461BCD PUSH1 0xE5 SHL DUP2 MSTORE PUSH1 0x20 PUSH1 0x4 DUP3 ADD MSTORE PUSH1 0x1F PUSH1 0x24 DUP3 ADD MSTORE PUSH32 0x5265656E7472616E637947756172643A207265656E7472616E742063616C6C00 PUSH1 0x44 DUP3 ADD MSTORE PUSH1 0x64 SWAP1 REVERT JUMPDEST CALLVALUE PUSH3 0x20C JUMPI PUSH1 0x0 CALLDATASIZE PUSH1 0x3 NOT ADD SLT PUSH3 0x20C JUMPI PUSH3 0xF6E PUSH3 0x1B21 JUMP JUMPDEST PUSH1 0x33 DUP1 SLOAD PUSH1 0x1 PUSH1 0x1 PUSH1 0xA0 SHL SUB NOT DUP2 AND SWAP1 SWAP2 SSTORE PUSH1 0x0 SWAP1 PUSH1 0x1 PUSH1 0x1 PUSH1 0xA0 SHL SUB AND PUSH32 0x8BE0079C531659141344CD1FD0A4F28419497F9722A3DAAFE3B4186F6B6457E0 DUP3 DUP1 LOG3 STOP JUMPDEST CALLVALUE PUSH3 0x20C JUMPI PUSH1 0x0 CALLDATASIZE PUSH1 0x3 NOT ADD SLT PUSH3 0x20C JUMPI PUSH1 0x40 MLOAD DUP1 PUSH2 0x102 SWAP2 DUP3 SLOAD DUP1 DUP3 MSTORE PUSH1 0x20 DUP1 SWAP3 ADD SWAP4 PUSH1 0x0 MSTORE PUSH32 0x93BDAA6A4190909B7C3FBE8D42169FFE1CAB19F51DFC8DB24C71ABF849ECED4A SWAP2 PUSH1 0x0 SWAP1 JUMPDEST DUP3 DUP3 LT PUSH3 0x101C JUMPI PUSH3 0x1F2 DUP6 PUSH3 0x881 DUP2 DUP10 SUB DUP3 PUSH3 0x18B8 JUMP JUMPDEST DUP4 SLOAD PUSH1 0x1 PUSH1 0x1 PUSH1 0xA0 SHL SUB AND DUP7 MSTORE SWAP5 DUP6 ADD SWAP5 PUSH1 0x1 SWAP4 DUP5 ADD SWAP4 SWAP1 SWAP2 ADD SWAP1 PUSH3 0x1001 JUMP JUMPDEST CALLVALUE PUSH3 0x20C JUMPI PUSH1 0x0 CALLDATASIZE PUSH1 0x3 NOT ADD SLT PUSH3 0x20C JUMPI PUSH32 0x0 PUSH1 0x1 PUSH1 0x1 PUSH1 0xA0 SHL SUB AND ADDRESS SUB PUSH3 0x109A JUMPI PUSH1 0x20 PUSH1 0x40 MLOAD PUSH1 0x0 DUP1 MLOAD PUSH1 0x20 PUSH3 0x2170 DUP4 CODECOPY DUP2 MLOAD SWAP2 MSTORE DUP2 MSTORE RETURN JUMPDEST PUSH1 0x40 MLOAD PUSH3 0x461BCD PUSH1 0xE5 SHL DUP2 MSTORE PUSH1 0x20 PUSH1 0x4 DUP3 ADD MSTORE PUSH1 0x38 PUSH1 0x24 DUP3 ADD MSTORE PUSH32 0x555550535570677261646561626C653A206D757374206E6F742062652063616C PUSH1 0x44 DUP3 ADD MSTORE PUSH32 0x6C6564207468726F7567682064656C656761746563616C6C0000000000000000 PUSH1 0x64 DUP3 ADD MSTORE PUSH1 0x84 SWAP1 REVERT JUMPDEST PUSH1 0x40 CALLDATASIZE PUSH1 0x3 NOT ADD SLT PUSH3 0x20C JUMPI PUSH3 0x111C PUSH3 0x1884 JUMP JUMPDEST PUSH1 0x24 CALLDATALOAD PUSH8 0xFFFFFFFFFFFFFFFF DUP2 GT PUSH3 0x20C JUMPI CALLDATASIZE PUSH1 0x23 DUP3 ADD SLT ISZERO PUSH3 0x20C JUMPI PUSH3 0x1151 SWAP1 CALLDATASIZE SWAP1 PUSH1 0x24 DUP2 PUSH1 0x4 ADD CALLDATALOAD SWAP2 ADD PUSH3 0x18F8 JUMP JUMPDEST SWAP1 PUSH1 0x1 PUSH1 0x1 PUSH1 0xA0 SHL SUB PUSH32 0x0 DUP2 AND SWAP1 PUSH3 0x118C ADDRESS DUP4 EQ ISZERO PUSH3 0x1A28 JUMP JUMPDEST PUSH3 0x11AC PUSH1 0x0 DUP1 MLOAD PUSH1 0x20 PUSH3 0x2170 DUP4 CODECOPY DUP2 MLOAD SWAP2 MSTORE SWAP3 DUP3 DUP5 SLOAD AND EQ PUSH3 0x1A8A JUMP JUMPDEST PUSH3 0x11B6 PUSH3 0x1B21 JUMP JUMPDEST PUSH32 0x4910FDFA16FED3260ED0E7147F7CC6DA11A60208B5B9406D12A635614FFD9143 SLOAD PUSH1 0xFF AND ISZERO PUSH3 0x11EF JUMPI POP POP PUSH3 0x4E5 SWAP2 POP PUSH3 0x1C24 JUMP JUMPDEST PUSH1 0x40 MLOAD PUSH4 0x52D1902D PUSH1 0xE0 SHL DUP2 MSTORE PUSH1 0x20 SWAP4 SWAP3 SWAP2 DUP4 AND SWAP2 SWAP1 DUP5 DUP2 PUSH1 0x4 DUP2 DUP7 GAS STATICCALL PUSH1 0x0 SWAP2 DUP2 PUSH3 0x138A JUMPI JUMPDEST POP PUSH3 0x1279 JUMPI PUSH1 0x40 MLOAD PUSH3 0x461BCD PUSH1 0xE5 SHL DUP2 MSTORE PUSH1 0x4 DUP2 ADD DUP7 SWAP1 MSTORE PUSH1 0x2E PUSH1 0x24 DUP3 ADD MSTORE PUSH32 0x45524331393637557067726164653A206E657720696D706C656D656E74617469 PUSH1 0x44 DUP3 ADD MSTORE PUSH14 0x6F6E206973206E6F742055555053 PUSH1 0x90 SHL PUSH1 0x64 DUP3 ADD MSTORE PUSH1 0x84 SWAP1 REVERT JUMPDEST SUB PUSH3 0x1333 JUMPI PUSH3 0x128A DUP3 PUSH3 0x1C24 JUMP JUMPDEST PUSH32 0xBC7CD75A20EE27FD9ADEBAB32041F755214DBC6BFFA90CC0225B39DA2E5C2D3B PUSH1 0x0 DUP1 LOG2 DUP3 MLOAD ISZERO DUP1 ISZERO SWAP1 PUSH3 0x132A JUMPI JUMPDEST PUSH3 0x12C2 JUMPI STOP JUMPDEST PUSH1 0x0 DUP1 PUSH3 0x4E5 SWAP5 PUSH1 0x40 MLOAD SWAP5 PUSH3 0x12D9 DUP7 PUSH3 0x189B JUMP JUMPDEST PUSH1 0x27 DUP7 MSTORE PUSH32 0x416464726573733A206C6F772D6C6576656C2064656C65676174652063616C6C DUP2 DUP8 ADD MSTORE PUSH7 0x819985A5B1959 PUSH1 0xCA SHL PUSH1 0x40 DUP8 ADD MSTORE DUP2 MLOAD SWAP2 ADD DUP5 GAS DELEGATECALL PUSH3 0x1323 PUSH3 0x1AEC JUMP JUMPDEST SWAP2 PUSH3 0x1CB6 JUMP JUMPDEST POP PUSH1 0x1 PUSH3 0x12BB JUMP JUMPDEST PUSH1 0x40 MLOAD PUSH3 0x461BCD PUSH1 0xE5 SHL DUP2 MSTORE PUSH1 0x4 DUP2 ADD DUP5 SWAP1 MSTORE PUSH1 0x29 PUSH1 0x24 DUP3 ADD MSTORE PUSH32 0x45524331393637557067726164653A20756E737570706F727465642070726F78 PUSH1 0x44 DUP3 ADD MSTORE PUSH9 0x1A58589B1955555251 PUSH1 0xBA SHL PUSH1 0x64 DUP3 ADD MSTORE PUSH1 0x84 SWAP1 REVERT JUMPDEST SWAP1 SWAP2 POP DUP6 DUP2 DUP2 RETURNDATASIZE DUP4 GT PUSH3 0x13B7 JUMPI JUMPDEST PUSH3 0x13A5 DUP2 DUP4 PUSH3 0x18B8 JUMP JUMPDEST DUP2 ADD SUB SLT PUSH3 0x20C JUMPI MLOAD SWAP1 DUP8 PUSH3 0x1217 JUMP JUMPDEST POP RETURNDATASIZE PUSH3 0x1399 JUMP JUMPDEST CALLVALUE PUSH3 0x20C JUMPI PUSH1 0x0 CALLDATASIZE PUSH1 0x3 NOT ADD SLT PUSH3 0x20C JUMPI PUSH3 0x13DC PUSH3 0x1B21 JUMP JUMPDEST PUSH1 0x0 DUP1 DUP1 DUP1 SELFBALANCE CALLER GAS CALL PUSH3 0x13EF PUSH3 0x1AEC JUMP JUMPDEST POP ISZERO PUSH3 0x13F8 JUMPI STOP JUMPDEST PUSH1 0x40 MLOAD PUSH3 0x461BCD PUSH1 0xE5 SHL DUP2 MSTORE PUSH1 0x20 PUSH1 0x4 DUP3 ADD MSTORE PUSH1 0xF PUSH1 0x24 DUP3 ADD MSTORE PUSH15 0x151C985B9CD9995C8819985A5B1959 PUSH1 0x8A SHL PUSH1 0x44 DUP3 ADD MSTORE PUSH1 0x64 SWAP1 REVERT JUMPDEST CALLVALUE PUSH3 0x20C JUMPI PUSH1 0x0 CALLDATASIZE PUSH1 0x3 NOT ADD SLT PUSH3 0x20C JUMPI PUSH1 0x20 PUSH1 0xFF SLOAD PUSH1 0x40 MLOAD SWAP1 DUP2 MSTORE RETURN JUMPDEST CALLVALUE PUSH3 0x20C JUMPI PUSH1 0x20 DUP1 PUSH1 0x3 NOT CALLDATASIZE ADD SLT PUSH3 0x20C JUMPI PUSH3 0x146D PUSH3 0x1884 JUMP JUMPDEST PUSH1 0x1 PUSH1 0x1 PUSH1 0xA0 SHL SUB PUSH32 0x0 DUP2 AND SWAP3 SWAP1 PUSH3 0x14A8 ADDRESS DUP6 EQ ISZERO PUSH3 0x1A28 JUMP JUMPDEST PUSH3 0x14C8 PUSH1 0x0 DUP1 MLOAD PUSH1 0x20 PUSH3 0x2170 DUP4 CODECOPY DUP2 MLOAD SWAP2 MSTORE SWAP5 DUP3 DUP7 SLOAD AND EQ PUSH3 0x1A8A JUMP JUMPDEST PUSH3 0x14D2 PUSH3 0x1B21 JUMP JUMPDEST PUSH1 0x40 MLOAD SWAP4 DUP3 DUP6 ADD SWAP2 DUP6 DUP4 LT PUSH8 0xFFFFFFFFFFFFFFFF DUP5 GT OR PUSH3 0x1F6 JUMPI DUP3 PUSH1 0x40 MSTORE PUSH1 0x0 DUP7 MSTORE PUSH1 0xFF PUSH32 0x4910FDFA16FED3260ED0E7147F7CC6DA11A60208B5B9406D12A635614FFD9143 SLOAD AND PUSH1 0x0 EQ PUSH3 0x1533 JUMPI POP POP POP POP PUSH3 0x4E5 SWAP2 POP PUSH3 0x1C24 JUMP JUMPDEST DUP5 SWAP4 SWAP5 AND SWAP1 PUSH1 0x40 MLOAD PUSH4 0x52D1902D PUSH1 0xE0 SHL DUP2 MSTORE DUP6 DUP2 PUSH1 0x4 DUP2 DUP7 GAS STATICCALL PUSH1 0x0 SWAP2 DUP2 PUSH3 0x16C1 JUMPI JUMPDEST POP PUSH3 0x15B9 JUMPI PUSH1 0x40 MLOAD PUSH3 0x461BCD PUSH1 0xE5 SHL DUP2 MSTORE PUSH1 0x4 DUP2 ADD DUP8 SWAP1 MSTORE PUSH1 0x2E PUSH1 0x24 DUP3 ADD MSTORE PUSH32 0x45524331393637557067726164653A206E657720696D706C656D656E74617469 PUSH1 0x44 DUP3 ADD MSTORE PUSH14 0x6F6E206973206E6F742055555053 PUSH1 0x90 SHL PUSH1 0x64 DUP3 ADD MSTORE PUSH1 0x84 SWAP1 REVERT JUMPDEST SUB PUSH3 0x166A JUMPI PUSH3 0x15CA DUP4 PUSH3 0x1C24 JUMP JUMPDEST PUSH32 0xBC7CD75A20EE27FD9ADEBAB32041F755214DBC6BFFA90CC0225B39DA2E5C2D3B PUSH1 0x0 DUP1 LOG2 DUP4 MLOAD ISZERO DUP1 ISZERO SWAP1 PUSH3 0x1661 JUMPI JUMPDEST PUSH3 0x1602 JUMPI STOP JUMPDEST PUSH1 0x0 DUP1 SWAP2 PUSH3 0x4E5 SWAP6 PUSH32 0x416464726573733A206C6F772D6C6576656C2064656C65676174652063616C6C PUSH1 0x40 MLOAD SWAP7 PUSH3 0x163B DUP9 PUSH3 0x189B JUMP JUMPDEST PUSH1 0x27 DUP9 MSTORE DUP8 ADD MSTORE PUSH7 0x819985A5B1959 PUSH1 0xCA SHL PUSH1 0x40 DUP8 ADD MSTORE MLOAD SWAP1 DUP5 GAS DELEGATECALL PUSH3 0x1323 PUSH3 0x1AEC JUMP JUMPDEST POP PUSH1 0x0 PUSH3 0x15FB JUMP JUMPDEST PUSH1 0x40 MLOAD PUSH3 0x461BCD PUSH1 0xE5 SHL DUP2 MSTORE PUSH1 0x4 DUP2 ADD DUP6 SWAP1 MSTORE PUSH1 0x29 PUSH1 0x24 DUP3 ADD MSTORE PUSH32 0x45524331393637557067726164653A20756E737570706F727465642070726F78 PUSH1 0x44 DUP3 ADD MSTORE PUSH9 0x1A58589B1955555251 PUSH1 0xBA SHL PUSH1 0x64 DUP3 ADD MSTORE PUSH1 0x84 SWAP1 REVERT JUMPDEST SWAP1 SWAP2 POP DUP7 DUP2 DUP2 RETURNDATASIZE DUP4 GT PUSH3 0x16EE JUMPI JUMPDEST PUSH3 0x16DC DUP2 DUP4 PUSH3 0x18B8 JUMP JUMPDEST DUP2 ADD SUB SLT PUSH3 0x20C JUMPI MLOAD SWAP1 DUP9 PUSH3 0x1557 JUMP JUMPDEST POP RETURNDATASIZE PUSH3 0x16D0 JUMP JUMPDEST CALLVALUE PUSH3 0x20C JUMPI PUSH1 0x0 CALLDATASIZE PUSH1 0x3 NOT ADD SLT PUSH3 0x20C JUMPI PUSH1 0x40 MLOAD PUSH32 0x0 PUSH1 0x1 PUSH1 0x1 PUSH1 0xA0 SHL SUB AND DUP2 MSTORE PUSH1 0x20 SWAP1 RETURN JUMPDEST CALLVALUE PUSH3 0x20C JUMPI PUSH1 0x20 CALLDATASIZE PUSH1 0x3 NOT ADD SLT PUSH3 0x20C JUMPI PUSH3 0x175A PUSH3 0x1884 JUMP JUMPDEST PUSH3 0x1764 PUSH3 0x1B21 JUMP JUMPDEST PUSH1 0x1 PUSH1 0x1 PUSH1 0xA0 SHL SUB AND DUP1 ISZERO PUSH3 0x17B5 JUMPI PUSH1 0x20 DUP2 PUSH32 0xBA887708E7D4436DD36B62187BDCED03E0B9ABE66CAF392A66DD84386641B209 SWAP3 PUSH1 0x1 PUSH1 0x1 PUSH1 0x60 SHL SUB PUSH1 0xA0 SHL PUSH1 0xFE SLOAD AND OR PUSH1 0xFE SSTORE PUSH1 0x40 MLOAD SWAP1 DUP2 MSTORE LOG1 STOP JUMPDEST PUSH1 0x40 MLOAD PUSH3 0x461BCD PUSH1 0xE5 SHL DUP2 MSTORE PUSH1 0x20 PUSH1 0x4 DUP3 ADD MSTORE PUSH1 0x11 PUSH1 0x24 DUP3 ADD MSTORE PUSH17 0x125B9D985B1A59081C9958DA5C1A595B9D PUSH1 0x7A SHL PUSH1 0x44 DUP3 ADD MSTORE PUSH1 0x64 SWAP1 REVERT JUMPDEST CALLVALUE PUSH3 0x20C JUMPI PUSH1 0x20 CALLDATASIZE PUSH1 0x3 NOT ADD SLT PUSH3 0x20C JUMPI PUSH1 0x20 PUSH3 0x1817 PUSH3 0x1811 PUSH3 0x1884 JUMP JUMPDEST PUSH3 0x19DE JUMP JUMPDEST PUSH1 0x40 MLOAD SWAP1 DUP2 MSTORE RETURN JUMPDEST CALLVALUE PUSH3 0x20C JUMPI PUSH1 0x0 CALLDATASIZE PUSH1 0x3 NOT ADD SLT PUSH3 0x20C JUMPI PUSH1 0x20 PUSH2 0x100 SLOAD PUSH1 0x40 MLOAD SWAP1 DUP2 MSTORE RETURN JUMPDEST CALLVALUE PUSH3 0x20C JUMPI PUSH1 0x0 CALLDATASIZE PUSH1 0x3 NOT ADD SLT PUSH3 0x20C JUMPI PUSH32 0x0 PUSH1 0x1 PUSH1 0x1 PUSH1 0xA0 SHL SUB AND DUP2 MSTORE PUSH1 0x20 SWAP1 RETURN JUMPDEST PUSH1 0x4 CALLDATALOAD SWAP1 PUSH1 0x1 PUSH1 0x1 PUSH1 0xA0 SHL SUB DUP3 AND DUP3 SUB PUSH3 0x20C JUMPI JUMP JUMPDEST PUSH1 0x60 DUP2 ADD SWAP1 DUP2 LT PUSH8 0xFFFFFFFFFFFFFFFF DUP3 GT OR PUSH3 0x1F6 JUMPI PUSH1 0x40 MSTORE JUMP JUMPDEST SWAP1 PUSH1 0x1F DUP1 NOT SWAP2 ADD AND DUP2 ADD SWAP1 DUP2 LT PUSH8 0xFFFFFFFFFFFFFFFF DUP3 GT OR PUSH3 0x1F6 JUMPI PUSH1 0x40 MSTORE JUMP JUMPDEST PUSH8 0xFFFFFFFFFFFFFFFF DUP2 GT PUSH3 0x1F6 JUMPI PUSH1 0x1F ADD PUSH1 0x1F NOT AND PUSH1 0x20 ADD SWAP1 JUMP JUMPDEST SWAP3 SWAP2 SWAP3 PUSH3 0x1906 DUP3 PUSH3 0x18DB JUMP JUMPDEST SWAP2 PUSH3 0x1916 PUSH1 0x40 MLOAD SWAP4 DUP5 PUSH3 0x18B8 JUMP JUMPDEST DUP3 SWAP5 DUP2 DUP5 MSTORE DUP2 DUP4 ADD GT PUSH3 0x20C JUMPI DUP3 DUP2 PUSH1 0x20 SWAP4 DUP5 PUSH1 0x0 SWAP7 ADD CALLDATACOPY ADD ADD MSTORE JUMP JUMPDEST PUSH1 0x20 SWAP1 PUSH1 0x20 PUSH1 0x40 DUP2 DUP4 ADD SWAP3 DUP3 DUP2 MSTORE DUP6 MLOAD DUP1 SWAP5 MSTORE ADD SWAP4 ADD SWAP2 PUSH1 0x0 JUMPDEST DUP3 DUP2 LT PUSH3 0x195D JUMPI POP POP POP POP SWAP1 JUMP JUMPDEST DUP4 MLOAD PUSH1 0x1 PUSH1 0x1 PUSH1 0xA0 SHL SUB AND DUP6 MSTORE SWAP4 DUP2 ADD SWAP4 SWAP3 DUP2 ADD SWAP3 PUSH1 0x1 ADD PUSH3 0x194E JUMP JUMPDEST SWAP1 DUP1 PUSH1 0x1F DUP4 ADD SLT ISZERO PUSH3 0x20C JUMPI DUP2 PUSH1 0x20 PUSH3 0x1999 SWAP4 CALLDATALOAD SWAP2 ADD PUSH3 0x18F8 JUMP JUMPDEST SWAP1 JUMP JUMPDEST SWAP2 SWAP1 DUP3 MLOAD SWAP3 DUP4 DUP3 MSTORE PUSH1 0x0 JUMPDEST DUP5 DUP2 LT PUSH3 0x19C9 JUMPI POP POP DUP3 PUSH1 0x0 PUSH1 0x20 DUP1 SWAP5 SWAP6 DUP5 ADD ADD MSTORE PUSH1 0x1F DUP1 NOT SWAP2 ADD AND ADD ADD SWAP1 JUMP JUMPDEST PUSH1 0x20 DUP2 DUP4 ADD DUP2 ADD MLOAD DUP5 DUP4 ADD DUP3 ADD MSTORE ADD PUSH3 0x19A7 JUMP JUMPDEST PUSH1 0x1 PUSH1 0x1 PUSH1 0xA0 SHL SUB AND PUSH1 0x0 SWAP1 DUP2 MSTORE PUSH1 0xFC PUSH1 0x20 MSTORE PUSH1 0x40 SWAP1 KECCAK256 SLOAD DUP1 ISZERO DUP1 ISZERO SWAP1 DUP1 PUSH3 0x1A0F JUMPI JUMPDEST POP PUSH3 0x1999 JUMPI POP PUSH1 0xFB SLOAD SWAP1 JUMP JUMPDEST SWAP1 DUP2 PUSH3 0x1A1F JUMPI JUMPDEST POP CODESIZE PUSH3 0x1A02 JUMP JUMPDEST SWAP1 POP CODESIZE PUSH3 0x1A17 JUMP JUMPDEST ISZERO PUSH3 0x1A30 JUMPI JUMP JUMPDEST PUSH1 0x40 MLOAD PUSH3 0x461BCD PUSH1 0xE5 SHL DUP2 MSTORE PUSH1 0x20 PUSH1 0x4 DUP3 ADD MSTORE PUSH1 0x2C PUSH1 0x24 DUP3 ADD MSTORE PUSH32 0x46756E6374696F6E206D7573742062652063616C6C6564207468726F75676820 PUSH1 0x44 DUP3 ADD MSTORE PUSH12 0x19195B1959D85D1958D85B1B PUSH1 0xA2 SHL PUSH1 0x64 DUP3 ADD MSTORE PUSH1 0x84 SWAP1 REVERT JUMPDEST ISZERO PUSH3 0x1A92 JUMPI JUMP JUMPDEST PUSH1 0x40 MLOAD PUSH3 0x461BCD PUSH1 0xE5 SHL DUP2 MSTORE PUSH1 0x20 PUSH1 0x4 DUP3 ADD MSTORE PUSH1 0x2C PUSH1 0x24 DUP3 ADD MSTORE PUSH32 0x46756E6374696F6E206D7573742062652063616C6C6564207468726F75676820 PUSH1 0x44 DUP3 ADD MSTORE PUSH12 0x6163746976652070726F7879 PUSH1 0xA0 SHL PUSH1 0x64 DUP3 ADD MSTORE PUSH1 0x84 SWAP1 REVERT JUMPDEST RETURNDATASIZE ISZERO PUSH3 0x1B1C JUMPI RETURNDATASIZE SWAP1 PUSH3 0x1B00 DUP3 PUSH3 0x18DB JUMP JUMPDEST SWAP2 PUSH3 0x1B10 PUSH1 0x40 MLOAD SWAP4 DUP5 PUSH3 0x18B8 JUMP JUMPDEST DUP3 MSTORE RETURNDATASIZE PUSH1 0x0 PUSH1 0x20 DUP5 ADD RETURNDATACOPY JUMP JUMPDEST PUSH1 0x60 SWAP1 JUMP JUMPDEST PUSH1 0x33 SLOAD PUSH1 0x1 PUSH1 0x1 PUSH1 0xA0 SHL SUB AND CALLER SUB PUSH3 0x1B36 JUMPI JUMP JUMPDEST PUSH1 0x64 PUSH1 0x40 MLOAD PUSH3 0x461BCD PUSH1 0xE5 SHL DUP2 MSTORE PUSH1 0x20 PUSH1 0x4 DUP3 ADD MSTORE PUSH1 0x20 PUSH1 0x24 DUP3 ADD MSTORE PUSH32 0x4F776E61626C653A2063616C6C6572206973206E6F7420746865206F776E6572 PUSH1 0x44 DUP3 ADD MSTORE REVERT JUMPDEST PUSH1 0x33 DUP1 SLOAD PUSH1 0x1 PUSH1 0x1 PUSH1 0xA0 SHL SUB SWAP3 DUP4 AND PUSH1 0x1 PUSH1 0x1 PUSH1 0xA0 SHL SUB NOT DUP3 AND DUP2 OR SWAP1 SWAP3 SSTORE SWAP1 SWAP2 AND PUSH32 0x8BE0079C531659141344CD1FD0A4F28419497F9722A3DAAFE3B4186F6B6457E0 PUSH1 0x0 DUP1 LOG3 JUMP JUMPDEST ISZERO PUSH3 0x1BCB JUMPI JUMP JUMPDEST PUSH1 0x40 MLOAD PUSH3 0x461BCD PUSH1 0xE5 SHL DUP2 MSTORE PUSH1 0x20 PUSH1 0x4 DUP3 ADD MSTORE PUSH1 0x2B PUSH1 0x24 DUP3 ADD MSTORE PUSH32 0x496E697469616C697A61626C653A20636F6E7472616374206973206E6F742069 PUSH1 0x44 DUP3 ADD MSTORE PUSH11 0x6E697469616C697A696E67 PUSH1 0xA8 SHL PUSH1 0x64 DUP3 ADD MSTORE PUSH1 0x84 SWAP1 REVERT JUMPDEST DUP1 EXTCODESIZE ISZERO PUSH3 0x1C5B JUMPI PUSH1 0x0 DUP1 MLOAD PUSH1 0x20 PUSH3 0x2170 DUP4 CODECOPY DUP2 MLOAD SWAP2 MSTORE DUP1 SLOAD PUSH1 0x1 PUSH1 0x1 PUSH1 0xA0 SHL SUB NOT AND PUSH1 0x1 PUSH1 0x1 PUSH1 0xA0 SHL SUB SWAP1 SWAP3 AND SWAP2 SWAP1 SWAP2 OR SWAP1 SSTORE JUMP JUMPDEST PUSH1 0x40 MLOAD PUSH3 0x461BCD PUSH1 0xE5 SHL DUP2 MSTORE PUSH1 0x20 PUSH1 0x4 DUP3 ADD MSTORE PUSH1 0x2D PUSH1 0x24 DUP3 ADD MSTORE PUSH32 0x455243313936373A206E657720696D706C656D656E746174696F6E206973206E PUSH1 0x44 DUP3 ADD MSTORE PUSH13 0x1BDD08184818DBDB9D1C9858DD PUSH1 0x9A SHL PUSH1 0x64 DUP3 ADD MSTORE PUSH1 0x84 SWAP1 REVERT JUMPDEST SWAP2 SWAP3 SWAP1 ISZERO PUSH3 0x1D1B JUMPI POP DUP2 MLOAD ISZERO PUSH3 0x1CCC JUMPI POP SWAP1 JUMP JUMPDEST EXTCODESIZE ISZERO PUSH3 0x1CD6 JUMPI SWAP1 JUMP JUMPDEST PUSH1 0x40 MLOAD PUSH3 0x461BCD PUSH1 0xE5 SHL DUP2 MSTORE PUSH1 0x20 PUSH1 0x4 DUP3 ADD MSTORE PUSH1 0x1D PUSH1 0x24 DUP3 ADD MSTORE PUSH32 0x416464726573733A2063616C6C20746F206E6F6E2D636F6E7472616374000000 PUSH1 0x44 DUP3 ADD MSTORE PUSH1 0x64 SWAP1 REVERT JUMPDEST DUP3 MLOAD SWAP1 SWAP2 POP ISZERO PUSH3 0x1D2F JUMPI POP DUP1 MLOAD SWAP1 PUSH1 0x20 ADD REVERT JUMPDEST PUSH1 0x40 MLOAD PUSH3 0x461BCD PUSH1 0xE5 SHL DUP2 MSTORE PUSH1 0x20 PUSH1 0x4 DUP3 ADD MSTORE SWAP1 DUP2 SWAP1 PUSH3 0x1D55 SWAP1 PUSH1 0x24 DUP4 ADD SWAP1 PUSH3 0x199C JUMP JUMPDEST SUB SWAP1 REVERT INVALID PUSH1 0x40 PUSH1 0x80 DUP2 MSTORE PUSH2 0x416 SWAP1 DUP2 CODESIZE SUB DUP1 PUSH2 0x16 DUP2 PUSH2 0x218 JUMP JUMPDEST SWAP4 DUP5 CODECOPY DUP3 ADD SWAP2 DUP2 DUP2 DUP5 SUB SLT PUSH2 0x213 JUMPI DUP1 MLOAD PUSH1 0x1 PUSH1 0x1 PUSH1 0xA0 SHL SUB DUP2 AND DUP1 DUP3 SUB PUSH2 0x213 JUMPI PUSH1 0x20 DUP4 DUP2 ADD MLOAD PUSH1 0x1 PUSH1 0x1 PUSH1 0x40 SHL SUB SWAP5 SWAP2 SWAP4 SWAP2 DUP6 DUP3 GT PUSH2 0x213 JUMPI ADD DUP7 PUSH1 0x1F DUP3 ADD SLT ISZERO PUSH2 0x213 JUMPI DUP1 MLOAD SWAP1 PUSH2 0x71 PUSH2 0x6C DUP4 PUSH2 0x253 JUMP JUMPDEST PUSH2 0x218 JUMP JUMPDEST SWAP2 DUP1 DUP4 MSTORE DUP6 DUP4 ADD SWAP9 DUP7 DUP3 DUP5 ADD ADD GT PUSH2 0x213 JUMPI DUP9 DUP7 PUSH2 0x8F SWAP4 ADD PUSH2 0x26E JUMP JUMPDEST DUP2 EXTCODESIZE ISZERO PUSH2 0x1B9 JUMPI PUSH32 0x360894A13BA1A3210667C828492DB98DCA3E2076CC3735A920A3CA505D382BBC DUP1 SLOAD PUSH1 0x1 PUSH1 0x1 PUSH1 0xA0 SHL SUB NOT AND DUP5 OR SWAP1 SSTORE PUSH1 0x0 SWAP3 PUSH32 0xBC7CD75A20EE27FD9ADEBAB32041F755214DBC6BFFA90CC0225B39DA2E5C2D3B DUP5 DUP1 LOG2 DUP1 MLOAD ISZERO DUP1 ISZERO SWAP1 PUSH2 0x1B2 JUMPI JUMPDEST PUSH2 0x10B JUMPI JUMPDEST DUP6 MLOAD PUSH1 0xD1 SWAP1 DUP2 PUSH2 0x345 DUP3 CODECOPY RETURN JUMPDEST DUP6 MLOAD SWAP5 PUSH1 0x60 DUP7 ADD SWAP1 DUP2 GT DUP7 DUP3 LT OR PUSH2 0x19E JUMPI DUP7 SWAP8 DUP5 SWAP3 DUP4 SWAP3 PUSH2 0x188 SWAP10 MSTORE PUSH1 0x27 DUP9 MSTORE PUSH32 0x416464726573733A206C6F772D6C6576656C2064656C65676174652063616C6C DUP8 DUP10 ADD MSTORE PUSH7 0x819985A5B1959 PUSH1 0xCA SHL DUP11 DUP10 ADD MSTORE MLOAD SWAP1 DUP5 GAS DELEGATECALL SWAP2 RETURNDATASIZE ISZERO PUSH2 0x194 JUMPI RETURNDATASIZE SWAP1 PUSH2 0x17A PUSH2 0x6C DUP4 PUSH2 0x253 JUMP JUMPDEST SWAP2 DUP3 MSTORE DUP2 SWAP5 RETURNDATASIZE SWAP3 ADD RETURNDATACOPY PUSH2 0x291 JUMP JUMPDEST POP DUP1 CODESIZE DUP1 DUP1 DUP1 DUP1 PUSH2 0xFE JUMP JUMPDEST POP PUSH1 0x60 SWAP3 POP PUSH2 0x291 JUMP JUMPDEST PUSH4 0x4E487B71 PUSH1 0xE0 SHL DUP5 MSTORE PUSH1 0x41 PUSH1 0x4 MSTORE PUSH1 0x24 DUP5 REVERT JUMPDEST POP DUP3 PUSH2 0xF9 JUMP JUMPDEST DUP6 MLOAD PUSH3 0x461BCD PUSH1 0xE5 SHL DUP2 MSTORE PUSH1 0x4 DUP2 ADD DUP6 SWAP1 MSTORE PUSH1 0x2D PUSH1 0x24 DUP3 ADD MSTORE PUSH32 0x455243313936373A206E657720696D706C656D656E746174696F6E206973206E PUSH1 0x44 DUP3 ADD MSTORE PUSH13 0x1BDD08184818DBDB9D1C9858DD PUSH1 0x9A SHL PUSH1 0x64 DUP3 ADD MSTORE PUSH1 0x84 SWAP1 REVERT JUMPDEST PUSH1 0x0 DUP1 REVERT JUMPDEST PUSH1 0x40 MLOAD SWAP2 SWAP1 PUSH1 0x1F ADD PUSH1 0x1F NOT AND DUP3 ADD PUSH1 0x1 PUSH1 0x1 PUSH1 0x40 SHL SUB DUP2 GT DUP4 DUP3 LT OR PUSH2 0x23D JUMPI PUSH1 0x40 MSTORE JUMP JUMPDEST PUSH4 0x4E487B71 PUSH1 0xE0 SHL PUSH1 0x0 MSTORE PUSH1 0x41 PUSH1 0x4 MSTORE PUSH1 0x24 PUSH1 0x0 REVERT JUMPDEST PUSH1 0x1 PUSH1 0x1 PUSH1 0x40 SHL SUB DUP2 GT PUSH2 0x23D JUMPI PUSH1 0x1F ADD PUSH1 0x1F NOT AND PUSH1 0x20 ADD SWAP1 JUMP JUMPDEST PUSH1 0x0 JUMPDEST DUP4 DUP2 LT PUSH2 0x281 JUMPI POP POP PUSH1 0x0 SWAP2 ADD MSTORE JUMP JUMPDEST DUP2 DUP2 ADD MLOAD DUP4 DUP3 ADD MSTORE PUSH1 0x20 ADD PUSH2 0x271 JUMP JUMPDEST SWAP2 SWAP3 SWAP1 ISZERO PUSH2 0x2F3 JUMPI POP DUP2 MLOAD ISZERO PUSH2 0x2A5 JUMPI POP SWAP1 JUMP JUMPDEST EXTCODESIZE ISZERO PUSH2 0x2AE JUMPI SWAP1 JUMP JUMPDEST PUSH1 0x40 MLOAD PUSH3 0x461BCD PUSH1 0xE5 SHL DUP2 MSTORE PUSH1 0x20 PUSH1 0x4 DUP3 ADD MSTORE PUSH1 0x1D PUSH1 0x24 DUP3 ADD MSTORE PUSH32 0x416464726573733A2063616C6C20746F206E6F6E2D636F6E7472616374000000 PUSH1 0x44 DUP3 ADD MSTORE PUSH1 0x64 SWAP1 REVERT JUMPDEST DUP3 MLOAD SWAP1 SWAP2 POP ISZERO PUSH2 0x306 JUMPI POP DUP1 MLOAD SWAP1 PUSH1 0x20 ADD REVERT JUMPDEST PUSH1 0x44 PUSH1 0x40 MLOAD DUP1 SWAP3 PUSH3 0x461BCD PUSH1 0xE5 SHL DUP3 MSTORE PUSH1 0x20 PUSH1 0x4 DUP4 ADD MSTORE PUSH2 0x336 DUP2 MLOAD DUP1 SWAP3 DUP2 PUSH1 0x24 DUP7 ADD MSTORE PUSH1 0x20 DUP7 DUP7 ADD SWAP2 ADD PUSH2 0x26E JUMP JUMPDEST PUSH1 0x1F ADD PUSH1 0x1F NOT AND DUP2 ADD SUB ADD SWAP1 REVERT INVALID PUSH1 0x80 PUSH1 0x40 MSTORE CALLDATASIZE ISZERO PUSH1 0x54 JUMPI PUSH32 0x360894A13BA1A3210667C828492DB98DCA3E2076CC3735A920A3CA505D382BBC SLOAD PUSH1 0x0 SWAP1 DUP2 SWAP1 DUP2 SWAP1 PUSH1 0x1 PUSH1 0x1 PUSH1 0xA0 SHL SUB AND CALLDATASIZE DUP3 DUP1 CALLDATACOPY DUP2 CALLDATASIZE SWAP2 GAS DELEGATECALL RETURNDATASIZE DUP3 DUP1 RETURNDATACOPY ISZERO PUSH1 0x50 JUMPI RETURNDATASIZE SWAP1 RETURN JUMPDEST RETURNDATASIZE SWAP1 REVERT JUMPDEST PUSH32 0x360894A13BA1A3210667C828492DB98DCA3E2076CC3735A920A3CA505D382BBC SLOAD PUSH1 0x0 SWAP1 DUP2 SWAP1 DUP2 SWAP1 PUSH1 0x1 PUSH1 0x1 PUSH1 0xA0 SHL SUB AND CALLDATASIZE DUP3 DUP1 CALLDATACOPY DUP2 CALLDATASIZE SWAP2 GAS DELEGATECALL RETURNDATASIZE DUP3 DUP1 RETURNDATACOPY ISZERO PUSH1 0x50 JUMPI RETURNDATASIZE SWAP1 RETURN INVALID LOG2 PUSH5 0x6970667358 0x22 SLT KECCAK256 ADDRESS 0xAD 0xE2 SELFBALANCE SWAP3 COINBASE PUSH11 0x57D4529AFBB56817B4411C 0x22 0xCC STOP 0xEF DUP13 RETURNDATACOPY DUP15 SWAP14 0xD6 0xEA ADD PUSH0 0x4E 0x25 PUSH5 0x736F6C6343 STOP ADDMOD AND STOP CALLER CALLDATASIZE ADDMOD SWAP5 LOG1 EXTCODESIZE LOG1 LOG3 0x21 MOD PUSH8 0xC828492DB98DCA3E KECCAK256 PUSH23 0xCC3735A920A3CA505D382BBCA26469706673582212201D SELFBALANCE SWAP5 DUP1 0xDC SDIV 0xDC LOG2 PUSH22 0x47D1DFCB6E08DA1D928ABD75E466E55C905225BA0A34 SWAP12 PUSH5 0x736F6C6343 STOP ADDMOD AND STOP CALLER "},"gasEstimates":{"creation":{"codeDepositCost":"1729000","executionCost":"infinite","totalCost":"infinite"},"external":{"VERSION()":"infinite","configurePlatformFeeVesting(uint256,uint256,bool)":"72897","createToken(string,string,uint256,uint256,bool,bool,uint256,uint256,uint256,uint256,uint256,uint256)":"infinite","customDeploymentFees(address)":"2805","deployedTokens(uint256)":"4978","deploymentFee()":"2830","getDeployedTokens()":"infinite","getDeploymentFee(address)":"4693","getTemplateImplementation()":"infinite","getTokenCreator(address)":"2833","getUserCreatedTokens(address)":"infinite","getUserTokenCount(address)":"2761","initialize(uint256)":"infinite","isTokenCreator(address,address)":"2857","owner()":"2590","platformFeeCliffDuration()":"2280","platformFeePercentage()":"2720","platformFeeRecipient()":"2810","platformFeeVestingDuration()":"2390","platformFeeVestingEnabled()":"2886","proxiableUUID()":"infinite","renounceOwnership()":"28305","setCustomDeploymentFee(address,uint256)":"26423","setDeploymentFee(uint256)":"25923","setPlatformFeePercentage(uint256)":"25750","setPlatformFeeRecipient(address)":"27742","tokenImplementation()":"infinite","transferOwnership(address)":"28809","upgradeTo(address)":"infinite","upgradeToAndCall(address,bytes)":"infinite","withdrawFees()":"infinite"},"internal":{"_authorizeUpgrade(address)":"infinite"}},"methodIdentifiers":{"VERSION()":"ffa1ad74","configurePlatformFeeVesting(uint256,uint256,bool)":"d5340141","createToken(string,string,uint256,uint256,bool,bool,uint256,uint256,uint256,uint256,uint256,uint256)":"76b2de01","customDeploymentFees(address)":"c05ddda8","deployedTokens(uint256)":"ec81aadb","deploymentFee()":"f2cff57f","getDeployedTokens()":"622ae7aa","getDeploymentFee(address)":"1652da42","getTemplateImplementation()":"0d1ded89","getTokenCreator(address)":"c78418b9","getUserCreatedTokens(address)":"c00be1a0","getUserTokenCount(address)":"b8a6f402","initialize(uint256)":"fe4b84df","isTokenCreator(address,address)":"ae6862ff","owner()":"8da5cb5b","platformFeeCliffDuration()":"113d478b","platformFeePercentage()":"cdd78cfc","platformFeeRecipient()":"eb13554f","platformFeeVestingDuration()":"420fc210","platformFeeVestingEnabled()":"fadcac27","proxiableUUID()":"52d1902d","renounceOwnership()":"715018a6","setCustomDeploymentFee(address,uint256)":"cbf1208f","setDeploymentFee(uint256)":"d002462b","setPlatformFeePercentage(uint256)":"8333903e","setPlatformFeeRecipient(address)":"1871e243","tokenImplementation()":"2f3a3d5d","transferOwnership(address)":"f2fde38b","upgradeTo(address)":"3659cfe6","upgradeToAndCall(address,bytes)":"4f1ef286","withdrawFees()":"476343ee"}},"storageLayout":{"storage":[{"astId":505,"contract":"src/contracts/TokenFactory_v2.sol:TokenFactory_v2","label":"_initialized","offset":0,"slot":"0","type":"t_uint8"},{"astId":508,"contract":"src/contracts/TokenFactory_v2.sol:TokenFactory_v2","label":"_initializing","offset":1,"slot":"0","type":"t_bool"},{"astId":2239,"contract":"src/contracts/TokenFactory_v2.sol:TokenFactory_v2","label":"__gap","offset":0,"slot":"1","type":"t_array(t_uint256)50_storage"},{"astId":11,"contract":"src/contracts/TokenFactory_v2.sol:TokenFactory_v2","label":"_owner","offset":0,"slot":"51","type":"t_address"},{"astId":131,"contract":"src/contracts/TokenFactory_v2.sol:TokenFactory_v2","label":"__gap","offset":0,"slot":"52","type":"t_array(t_uint256)49_storage"},{"astId":487,"contract":"src/contracts/TokenFactory_v2.sol:TokenFactory_v2","label":"__gap","offset":0,"slot":"101","type":"t_array(t_uint256)50_storage"},{"astId":803,"contract":"src/contracts/TokenFactory_v2.sol:TokenFactory_v2","label":"__gap","offset":0,"slot":"151","type":"t_array(t_uint256)50_storage"},{"astId":947,"contract":"src/contracts/TokenFactory_v2.sol:TokenFactory_v2","label":"_status","offset":0,"slot":"201","type":"t_uint256"},{"astId":1016,"contract":"src/contracts/TokenFactory_v2.sol:TokenFactory_v2","label":"__gap","offset":0,"slot":"202","type":"t_array(t_uint256)49_storage"},{"astId":3246,"contract":"src/contracts/TokenFactory_v2.sol:TokenFactory_v2","label":"deploymentFee","offset":0,"slot":"251","type":"t_uint256"},{"astId":3250,"contract":"src/contracts/TokenFactory_v2.sol:TokenFactory_v2","label":"customDeploymentFees","offset":0,"slot":"252","type":"t_mapping(t_address,t_uint256)"},{"astId":3252,"contract":"src/contracts/TokenFactory_v2.sol:TokenFactory_v2","label":"platformFeePercentage","offset":0,"slot":"253","type":"t_uint256"},{"astId":3254,"contract":"src/contracts/TokenFactory_v2.sol:TokenFactory_v2","label":"platformFeeRecipient","offset":0,"slot":"254","type":"t_address"},{"astId":3256,"contract":"src/contracts/TokenFactory_v2.sol:TokenFactory_v2","label":"platformFeeVestingDuration","offset":0,"slot":"255","type":"t_uint256"},{"astId":3258,"contract":"src/contracts/TokenFactory_v2.sol:TokenFactory_v2","label":"platformFeeCliffDuration","offset":0,"slot":"256","type":"t_uint256"},{"astId":3260,"contract":"src/contracts/TokenFactory_v2.sol:TokenFactory_v2","label":"platformFeeVestingEnabled","offset":0,"slot":"257","type":"t_bool"},{"astId":3263,"contract":"src/contracts/TokenFactory_v2.sol:TokenFactory_v2","label":"deployedTokens","offset":0,"slot":"258","type":"t_array(t_address)dyn_storage"},{"astId":3268,"contract":"src/contracts/TokenFactory_v2.sol:TokenFactory_v2","label":"userCreatedTokens","offset":0,"slot":"259","type":"t_mapping(t_address,t_array(t_address)dyn_storage)"},{"astId":3274,"contract":"src/contracts/TokenFactory_v2.sol:TokenFactory_v2","label":"isUserToken","offset":0,"slot":"260","type":"t_mapping(t_address,t_mapping(t_address,t_bool))"},{"astId":3278,"contract":"src/contracts/TokenFactory_v2.sol:TokenFactory_v2","label":"tokenCreator","offset":0,"slot":"261","type":"t_mapping(t_address,t_address)"}],"types":{"t_address":{"encoding":"inplace","label":"address","numberOfBytes":"20"},"t_array(t_address)dyn_storage":{"base":"t_address","encoding":"dynamic_array","label":"address[]","numberOfBytes":"32"},"t_array(t_uint256)49_storage":{"base":"t_uint256","encoding":"inplace","label":"uint256[49]","numberOfBytes":"1568"},"t_array(t_uint256)50_storage":{"base":"t_uint256","encoding":"inplace","label":"uint256[50]","numberOfBytes":"1600"},"t_bool":{"encoding":"inplace","label":"bool","numberOfBytes":"1"},"t_mapping(t_address,t_address)":{"encoding":"mapping","key":"t_address","label":"mapping(address => address)","numberOfBytes":"32","value":"t_address"},"t_mapping(t_address,t_array(t_address)dyn_storage)":{"encoding":"mapping","key":"t_address","label":"mapping(address => address[])","numberOfBytes":"32","value":"t_array(t_address)dyn_storage"},"t_mapping(t_address,t_bool)":{"encoding":"mapping","key":"t_address","label":"mapping(address => bool)","numberOfBytes":"32","value":"t_bool"},"t_mapping(t_address,t_mapping(t_address,t_bool))":{"encoding":"mapping","key":"t_address","label":"mapping(address => mapping(address => bool))","numberOfBytes":"32","value":"t_mapping(t_address,t_bool)"},"t_mapping(t_address,t_uint256)":{"encoding":"mapping","key":"t_address","label":"mapping(address => uint256)","numberOfBytes":"32","value":"t_uint256"},"t_uint256":{"encoding":"inplace","label":"uint256","numberOfBytes":"32"},"t_uint8":{"encoding":"inplace","label":"uint8","numberOfBytes":"1"}}},"userdoc":{"kind":"user","methods":{"configurePlatformFeeVesting(uint256,uint256,bool)":{"notice":"Configure platform fee vesting parameters"},"createToken(string,string,uint256,uint256,bool,bool,uint256,uint256,uint256,uint256,uint256,uint256)":{"notice":"Creates a new token instance with presale configuration"},"getDeployedTokens()":{"notice":"Gets all deployed tokens"},"getDeploymentFee(address)":{"notice":"Get the deployment fee for a specific address"},"getTemplateImplementation()":{"notice":"Gets the implementation address"},"setCustomDeploymentFee(address,uint256)":{"notice":"Set a custom deployment fee for a specific address"},"setDeploymentFee(uint256)":{"notice":"Set the default deployment fee"},"setPlatformFeePercentage(uint256)":{"notice":"Set the platform fee percentage"},"setPlatformFeeRecipient(address)":{"notice":"Set the platform fee recipient"},"withdrawFees()":{"notice":"Withdraw collected fees"}},"notice":"Factory contract for creating new token instances with presale functionality","version":1}}}}