{"src/contracts/TokenTemplate_v2.sol":{"TokenTemplate_v2":{"abi":[{"inputs":[],"stateMutability":"nonpayable","type":"constructor"},{"anonymous":false,"inputs":[{"indexed":false,"internalType":"address","name":"previousAdmin","type":"address"},{"indexed":false,"internalType":"address","name":"newAdmin","type":"address"}],"name":"AdminChanged","type":"event"},{"anonymous":false,"inputs":[{"indexed":true,"internalType":"address","name":"owner","type":"address"},{"indexed":true,"internalType":"address","name":"spender","type":"address"},{"indexed":false,"internalType":"uint256","name":"value","type":"uint256"}],"name":"Approval","type":"event"},{"anonymous":false,"inputs":[{"indexed":true,"internalType":"address","name":"beacon","type":"address"}],"name":"BeaconUpgraded","type":"event"},{"anonymous":false,"inputs":[{"indexed":false,"internalType":"address[]","name":"addresses","type":"address[]"},{"indexed":false,"internalType":"bool","name":"status","type":"bool"}],"name":"BlacklistUpdated","type":"event"},{"anonymous":false,"inputs":[{"indexed":false,"internalType":"address","name":"contributor","type":"address"},{"indexed":false,"internalType":"uint256","name":"amount","type":"uint256"}],"name":"ContributionReceived","type":"event"},{"anonymous":false,"inputs":[{"indexed":false,"internalType":"address","name":"contributor","type":"address"},{"indexed":false,"internalType":"uint256","name":"amount","type":"uint256"}],"name":"ContributionRefunded","type":"event"},{"anonymous":false,"inputs":[{"indexed":false,"internalType":"uint8","name":"version","type":"uint8"}],"name":"Initialized","type":"event"},{"anonymous":false,"inputs":[{"indexed":true,"internalType":"address","name":"previousOwner","type":"address"},{"indexed":true,"internalType":"address","name":"newOwner","type":"address"}],"name":"OwnershipTransferred","type":"event"},{"anonymous":false,"inputs":[{"indexed":false,"internalType":"address","name":"account","type":"address"}],"name":"Paused","type":"event"},{"anonymous":false,"inputs":[{"indexed":false,"internalType":"uint256","name":"amount","type":"uint256"}],"name":"PlatformFeeClaimed","type":"event"},{"anonymous":false,"inputs":[{"indexed":false,"internalType":"uint256","name":"totalContributed","type":"uint256"},{"indexed":false,"internalType":"uint256","name":"tokensDistributed","type":"uint256"}],"name":"PresaleFinalized","type":"event"},{"anonymous":false,"inputs":[{"indexed":false,"internalType":"uint256","name":"softCap","type":"uint256"},{"indexed":false,"internalType":"uint256","name":"hardCap","type":"uint256"},{"indexed":false,"internalType":"uint256","name":"startTime","type":"uint256"},{"indexed":false,"internalType":"uint256","name":"endTime","type":"uint256"},{"indexed":false,"internalType":"uint256","name":"presaleRate","type":"uint256"}],"name":"PresaleStarted","type":"event"},{"anonymous":false,"inputs":[{"indexed":false,"internalType":"address","name":"account","type":"address"},{"indexed":false,"internalType":"uint256","name":"unlockTime","type":"uint256"}],"name":"TimeLockSet","type":"event"},{"anonymous":false,"inputs":[{"indexed":true,"internalType":"address","name":"from","type":"address"},{"indexed":true,"internalType":"address","name":"to","type":"address"},{"indexed":false,"internalType":"uint256","name":"value","type":"uint256"}],"name":"Transfer","type":"event"},{"anonymous":false,"inputs":[{"indexed":false,"internalType":"address","name":"account","type":"address"}],"name":"Unpaused","type":"event"},{"anonymous":false,"inputs":[{"indexed":true,"internalType":"address","name":"implementation","type":"address"}],"name":"Upgraded","type":"event"},{"anonymous":false,"inputs":[{"indexed":false,"internalType":"address[]","name":"addresses","type":"address[]"},{"indexed":false,"internalType":"bool","name":"status","type":"bool"}],"name":"WhitelistUpdated","type":"event"},{"inputs":[],"name":"VERSION","outputs":[{"internalType":"string","name":"","type":"string"}],"stateMutability":"view","type":"function"},{"inputs":[{"internalType":"address","name":"owner","type":"address"},{"internalType":"address","name":"spender","type":"address"}],"name":"allowance","outputs":[{"internalType":"uint256","name":"","type":"uint256"}],"stateMutability":"view","type":"function"},{"inputs":[{"internalType":"address","name":"spender","type":"address"},{"internalType":"uint256","name":"amount","type":"uint256"}],"name":"approve","outputs":[{"internalType":"bool","name":"","type":"bool"}],"stateMutability":"nonpayable","type":"function"},{"inputs":[{"internalType":"address","name":"account","type":"address"}],"name":"balanceOf","outputs":[{"internalType":"uint256","name":"","type":"uint256"}],"stateMutability":"view","type":"function"},{"inputs":[{"internalType":"address","name":"","type":"address"}],"name":"blacklist","outputs":[{"internalType":"bool","name":"","type":"bool"}],"stateMutability":"view","type":"function"},{"inputs":[],"name":"blacklistEnabled","outputs":[{"internalType":"bool","name":"","type":"bool"}],"stateMutability":"view","type":"function"},{"inputs":[{"internalType":"uint256","name":"amount","type":"uint256"}],"name":"burn","outputs":[],"stateMutability":"nonpayable","type":"function"},{"inputs":[{"internalType":"address","name":"account","type":"address"},{"internalType":"uint256","name":"amount","type":"uint256"}],"name":"burnFrom","outputs":[],"stateMutability":"nonpayable","type":"function"},{"inputs":[],"name":"claimPlatformFeeTokens","outputs":[],"stateMutability":"nonpayable","type":"function"},{"inputs":[],"name":"contribute","outputs":[],"stateMutability":"payable","type":"function"},{"inputs":[{"internalType":"address","name":"","type":"address"}],"name":"contributions","outputs":[{"internalType":"uint256","name":"","type":"uint256"}],"stateMutability":"view","type":"function"},{"inputs":[],"name":"decimals","outputs":[{"internalType":"uint8","name":"","type":"uint8"}],"stateMutability":"view","type":"function"},{"inputs":[{"internalType":"address","name":"spender","type":"address"},{"internalType":"uint256","name":"subtractedValue","type":"uint256"}],"name":"decreaseAllowance","outputs":[{"internalType":"bool","name":"","type":"bool"}],"stateMutability":"nonpayable","type":"function"},{"inputs":[],"name":"finalize","outputs":[],"stateMutability":"nonpayable","type":"function"},{"inputs":[],"name":"getVestingInfo","outputs":[{"internalType":"uint256","name":"totalTokens","type":"uint256"},{"internalType":"uint256","name":"claimed","type":"uint256"},{"internalType":"uint256","name":"claimable","type":"uint256"},{"internalType":"uint256","name":"vestingEnd","type":"uint256"}],"stateMutability":"view","type":"function"},{"inputs":[{"internalType":"address","name":"spender","type":"address"},{"internalType":"uint256","name":"addedValue","type":"uint256"}],"name":"increaseAllowance","outputs":[{"internalType":"bool","name":"","type":"bool"}],"stateMutability":"nonpayable","type":"function"},{"inputs":[{"components":[{"internalType":"string","name":"name","type":"string"},{"internalType":"string","name":"symbol","type":"string"},{"internalType":"uint256","name":"initialSupply","type":"uint256"},{"internalType":"uint256","name":"maxSupply","type":"uint256"},{"internalType":"address","name":"owner","type":"address"},{"internalType":"bool","name":"enableBlacklist","type":"bool"},{"internalType":"bool","name":"enableTimeLock","type":"bool"},{"internalType":"uint256","name":"presaleRate","type":"uint256"},{"internalType":"uint256","name":"minContribution","type":"uint256"},{"internalType":"uint256","name":"maxContribution","type":"uint256"},{"internalType":"uint256","name":"presaleCap","type":"uint256"},{"internalType":"uint256","name":"startTime","type":"uint256"},{"internalType":"uint256","name":"endTime","type":"uint256"},{"internalType":"address","name":"platformFeeRecipient","type":"address"},{"internalType":"uint256","name":"platformFeeTokens","type":"uint256"},{"internalType":"bool","name":"platformFeeVestingEnabled","type":"bool"},{"internalType":"uint256","name":"platformFeeVestingDuration","type":"uint256"},{"internalType":"uint256","name":"platformFeeCliffDuration","type":"uint256"}],"internalType":"struct TokenTemplate_v2.InitParams","name":"params","type":"tuple"}],"name":"initialize","outputs":[],"stateMutability":"nonpayable","type":"function"},{"inputs":[],"name":"maxSupply","outputs":[{"internalType":"uint256","name":"","type":"uint256"}],"stateMutability":"view","type":"function"},{"inputs":[],"name":"name","outputs":[{"internalType":"string","name":"","type":"string"}],"stateMutability":"view","type":"function"},{"inputs":[],"name":"owner","outputs":[{"internalType":"address","name":"","type":"address"}],"stateMutability":"view","type":"function"},{"inputs":[],"name":"pause","outputs":[],"stateMutability":"nonpayable","type":"function"},{"inputs":[],"name":"paused","outputs":[{"internalType":"bool","name":"","type":"bool"}],"stateMutability":"view","type":"function"},{"inputs":[],"name":"platformFeeCliffDuration","outputs":[{"internalType":"uint256","name":"","type":"uint256"}],"stateMutability":"view","type":"function"},{"inputs":[],"name":"platformFeeRecipient","outputs":[{"internalType":"address","name":"","type":"address"}],"stateMutability":"view","type":"function"},{"inputs":[],"name":"platformFeeTokens","outputs":[{"internalType":"uint256","name":"","type":"uint256"}],"stateMutability":"view","type":"function"},{"inputs":[],"name":"platformFeeTokensClaimed","outputs":[{"internalType":"uint256","name":"","type":"uint256"}],"stateMutability":"view","type":"function"},{"inputs":[],"name":"platformFeeVestingDuration","outputs":[{"internalType":"uint256","name":"","type":"uint256"}],"stateMutability":"view","type":"function"},{"inputs":[],"name":"platformFeeVestingEnabled","outputs":[{"internalType":"bool","name":"","type":"bool"}],"stateMutability":"view","type":"function"},{"inputs":[],"name":"platformFeeVestingStart","outputs":[{"internalType":"uint256","name":"","type":"uint256"}],"stateMutability":"view","type":"function"},{"inputs":[],"name":"presaleInfo","outputs":[{"internalType":"uint256","name":"softCap","type":"uint256"},{"internalType":"uint256","name":"hardCap","type":"uint256"},{"internalType":"uint256","name":"minContribution","type":"uint256"},{"internalType":"uint256","name":"maxContribution","type":"uint256"},{"internalType":"uint256","name":"startTime","type":"uint256"},{"internalType":"uint256","name":"endTime","type":"uint256"},{"internalType":"uint256","name":"presaleRate","type":"uint256"},{"internalType":"bool","name":"whitelistEnabled","type":"bool"},{"internalType":"bool","name":"finalized","type":"bool"},{"internalType":"uint256","name":"totalContributed","type":"uint256"}],"stateMutability":"view","type":"function"},{"inputs":[],"name":"proxiableUUID","outputs":[{"internalType":"bytes32","name":"","type":"bytes32"}],"stateMutability":"view","type":"function"},{"inputs":[],"name":"renounceOwnership","outputs":[],"stateMutability":"nonpayable","type":"function"},{"inputs":[{"internalType":"address","name":"account","type":"address"},{"internalType":"uint256","name":"unlockTime","type":"uint256"}],"name":"setTimeLock","outputs":[],"stateMutability":"nonpayable","type":"function"},{"inputs":[],"name":"symbol","outputs":[{"internalType":"string","name":"","type":"string"}],"stateMutability":"view","type":"function"},{"inputs":[],"name":"timeLockEnabled","outputs":[{"internalType":"bool","name":"","type":"bool"}],"stateMutability":"view","type":"function"},{"inputs":[{"internalType":"address","name":"","type":"address"}],"name":"timeLocks","outputs":[{"internalType":"uint256","name":"","type":"uint256"}],"stateMutability":"view","type":"function"},{"inputs":[],"name":"totalSupply","outputs":[{"internalType":"uint256","name":"","type":"uint256"}],"stateMutability":"view","type":"function"},{"inputs":[{"internalType":"address","name":"to","type":"address"},{"internalType":"uint256","name":"amount","type":"uint256"}],"name":"transfer","outputs":[{"internalType":"bool","name":"","type":"bool"}],"stateMutability":"nonpayable","type":"function"},{"inputs":[{"internalType":"address","name":"from","type":"address"},{"internalType":"address","name":"to","type":"address"},{"internalType":"uint256","name":"amount","type":"uint256"}],"name":"transferFrom","outputs":[{"internalType":"bool","name":"","type":"bool"}],"stateMutability":"nonpayable","type":"function"},{"inputs":[{"internalType":"address","name":"newOwner","type":"address"}],"name":"transferOwnership","outputs":[],"stateMutability":"nonpayable","type":"function"},{"inputs":[],"name":"unpause","outputs":[],"stateMutability":"nonpayable","type":"function"},{"inputs":[{"internalType":"address[]","name":"addresses","type":"address[]"},{"internalType":"bool","name":"status","type":"bool"}],"name":"updateBlacklist","outputs":[],"stateMutability":"nonpayable","type":"function"},{"inputs":[{"internalType":"address[]","name":"addresses","type":"address[]"},{"internalType":"bool","name":"status","type":"bool"}],"name":"updateWhitelist","outputs":[],"stateMutability":"nonpayable","type":"function"},{"inputs":[{"internalType":"address","name":"newImplementation","type":"address"}],"name":"upgradeTo","outputs":[],"stateMutability":"nonpayable","type":"function"},{"inputs":[{"internalType":"address","name":"newImplementation","type":"address"},{"internalType":"bytes","name":"data","type":"bytes"}],"name":"upgradeToAndCall","outputs":[],"stateMutability":"payable","type":"function"},{"inputs":[{"internalType":"address","name":"","type":"address"}],"name":"whitelist","outputs":[{"internalType":"bool","name":"","type":"bool"}],"stateMutability":"view","type":"function"}],"devdoc":{"events":{"AdminChanged(address,address)":{"details":"Emitted when the admin account has changed."},"Approval(address,address,uint256)":{"details":"Emitted when the allowance of a `spender` for an `owner` is set by a call to {approve}. `value` is the new allowance."},"BeaconUpgraded(address)":{"details":"Emitted when the beacon is changed."},"Initialized(uint8)":{"details":"Triggered when the contract has been initialized or reinitialized."},"Paused(address)":{"details":"Emitted when the pause is triggered by `account`."},"Transfer(address,address,uint256)":{"details":"Emitted when `value` tokens are moved from one account (`from`) to another (`to`). Note that `value` may be zero."},"Unpaused(address)":{"details":"Emitted when the pause is lifted by `account`."},"Upgraded(address)":{"details":"Emitted when the implementation is upgraded."}},"kind":"dev","methods":{"allowance(address,address)":{"details":"See {IERC20-allowance}."},"approve(address,uint256)":{"details":"See {IERC20-approve}. NOTE: If `amount` is the maximum `uint256`, the allowance is not updated on `transferFrom`. This is semantically equivalent to an infinite approval. Requirements: - `spender` cannot be the zero address."},"balanceOf(address)":{"details":"See {IERC20-balanceOf}."},"burn(uint256)":{"details":"Destroys `amount` tokens from the caller. See {ERC20-_burn}."},"burnFrom(address,uint256)":{"details":"Destroys `amount` tokens from `account`, deducting from the caller's allowance. See {ERC20-_burn} and {ERC20-allowance}. Requirements: - the caller must have allowance for ``accounts``'s tokens of at least `amount`."},"constructor":{"custom:oz-upgrades-unsafe-allow":"constructor"},"decimals()":{"details":"Returns the number of decimals used to get its user representation. For example, if `decimals` equals `2`, a balance of `505` tokens should be displayed to a user as `5.05` (`505 / 10 ** 2`). Tokens usually opt for a value of 18, imitating the relationship between Ether and Wei. This is the default value returned by this function, unless it's overridden. NOTE: This information is only used for _display_ purposes: it in no way affects any of the arithmetic of the contract, including {IERC20-balanceOf} and {IERC20-transfer}."},"decreaseAllowance(address,uint256)":{"details":"Atomically decreases the allowance granted to `spender` by the caller. This is an alternative to {approve} that can be used as a mitigation for problems described in {IERC20-approve}. Emits an {Approval} event indicating the updated allowance. Requirements: - `spender` cannot be the zero address. - `spender` must have allowance for the caller of at least `subtractedValue`."},"increaseAllowance(address,uint256)":{"details":"Atomically increases the allowance granted to `spender` by the caller. This is an alternative to {approve} that can be used as a mitigation for problems described in {IERC20-approve}. Emits an {Approval} event indicating the updated allowance. Requirements: - `spender` cannot be the zero address."},"name()":{"details":"Returns the name of the token."},"owner()":{"details":"Returns the address of the current owner."},"paused()":{"details":"Returns true if the contract is paused, and false otherwise."},"proxiableUUID()":{"details":"Implementation of the ERC1822 {proxiableUUID} function. This returns the storage slot used by the implementation. It is used to validate the implementation's compatibility when performing an upgrade. IMPORTANT: A proxy pointing at a proxiable contract should not be considered proxiable itself, because this risks bricking a proxy that upgrades to it, by delegating to itself until out of gas. Thus it is critical that this function revert if invoked through a proxy. This is guaranteed by the `notDelegated` modifier."},"renounceOwnership()":{"details":"Leaves the contract without owner. It will not be possible to call `onlyOwner` functions. Can only be called by the current owner. NOTE: Renouncing ownership will leave the contract without an owner, thereby disabling any functionality that is only available to the owner."},"symbol()":{"details":"Returns the symbol of the token, usually a shorter version of the name."},"totalSupply()":{"details":"See {IERC20-totalSupply}."},"transfer(address,uint256)":{"details":"See {IERC20-transfer}. Requirements: - `to` cannot be the zero address. - the caller must have a balance of at least `amount`."},"transferFrom(address,address,uint256)":{"details":"See {IERC20-transferFrom}. Emits an {Approval} event indicating the updated allowance. This is not required by the EIP. See the note at the beginning of {ERC20}. NOTE: Does not update the allowance if the current allowance is the maximum `uint256`. Requirements: - `from` and `to` cannot be the zero address. - `from` must have a balance of at least `amount`. - the caller must have allowance for ``from``'s tokens of at least `amount`."},"transferOwnership(address)":{"details":"Transfers ownership of the contract to a new account (`newOwner`). Can only be called by the current owner."},"upgradeTo(address)":{"custom:oz-upgrades-unsafe-allow-reachable":"delegatecall","details":"Upgrade the implementation of the proxy to `newImplementation`. Calls {_authorizeUpgrade}. Emits an {Upgraded} event."},"upgradeToAndCall(address,bytes)":{"custom:oz-upgrades-unsafe-allow-reachable":"delegatecall","details":"Upgrade the implementation of the proxy to `newImplementation`, and subsequently execute the function call encoded in `data`. Calls {_authorizeUpgrade}. Emits an {Upgraded} event."}},"version":1},"evm":{"bytecode":{"linkReferences":{},"object":"60a080604052346100dd57306080526000549060ff8260081c1661008b575060ff80821603610050575b60405161325a9081620000e3823960805181818161183a0152818161193b0152611ea80152f35b60ff90811916176000557f7f26b83ff96e1f2b6a682f133852f6798a09c465da95921460cefb3847402498602060405160ff8152a138610029565b62461bcd60e51b815260206004820152602760248201527f496e697469616c697a61626c653a20636f6e747261637420697320696e697469604482015266616c697a696e6760c81b6064820152608490fd5b600080fdfe608080604052600436101561001357600080fd5b60003560e01c90816306fdde031461225f57508063095ea7b314612239578063113d478b1461221a57806318160ddd146121fc57806323b872dd146121c45780632791770a146121a55780632edf086914612125578063313ce567146121095780633659cfe614611e845780633950935114611e335780633f4ba83a14611d9f578063420fc21014611d8057806342966c6814611d6357806342e94c9014611d285780634bb278f314611b805780634f1ef286146118eb57806352d1902d146118275780635c975abb1461180457806363280c51146117e5578063644fab74146116d15780636b7f3d1a146116b257806370a0823114611678578063715018a61461161b57806379cc6790146115eb5780637f76b223146115b05780638456cb591461151d5780638bdc444d146113785780638da5cb5b1461134f57806394cf687314610b5057806395d89b4114610a835780639b19251a14610a43578063a457c2d71461099c578063a9059cbb1461096b578063aff177ca1461088c578063bb0e69e8146107a3578063bffb691d1461077f578063cba4cbd314610758578063d5abeb0114610739578063d7bb99ba14610469578063dc25a300146103f7578063dd62ed3e146103a6578063eb13554f1461037c578063f2fde38b146102ed578063f9f92be4146102ad578063fadcac27146102895763ffa1ad741461021957600080fd5b3461028457600036600319011261028457604051604081019080821067ffffffffffffffff83111761026e5761026a9160405260058152640322e302e360dc1b6020820152604051918291826122f2565b0390f35b634e487b7160e01b600052604160045260246000fd5b600080fd5b3461028457600036600319011261028457602060ff6101d454166040519015158152f35b34610284576020366003190112610284576001600160a01b036102ce61233b565b166000526101d0602052602060ff604060002054166040519015158152f35b346102845760203660031901126102845761030661233b565b61030e612aed565b6001600160a01b038116156103285761032690612d9c565b005b60405162461bcd60e51b815260206004820152602660248201527f4f776e61626c653a206e6577206f776e657220697320746865207a65726f206160448201526564647265737360d01b6064820152608490fd5b34610284576000366003190112610284576101d2546040516001600160a01b039091168152602090f35b34610284576040366003190112610284576103bf61233b565b6103c7612351565b9060018060a01b038091166000526034602052604060002091166000526020526020604060002054604051908152f35b346102845760003660031901126102845760806101d3546101d85460ff6101d4541660001461045a576104318161042c612de5565b6125b4565b6104426101d7546101d5549061254e565b91604051938452602084015260408301526060820152f35b61046481836125b4565b610431565b60003660031901126102845761047d612d45565b6101c75442106106fe576101c85442116106c9576101ca5460ff8160081c16610690576101c5543410610652576101c654803411610614576101cb916104c434845461254e565b6101c454106105dc5760ff1661058e575b336000526101cd806020526104ef3460406000205461254e565b918211610549573360005260205260406000205561050e34825461254e565b9055604080513381523460208201527f1bb460ccaaf70fbacfec17a376f8acbd278c1405590ffcc8ebe4b88daf4f64ad9190a1600161019155005b60405162461bcd60e51b815260206004820152601d60248201527f576f756c6420657863656564206d617820636f6e747269627574696f6e0000006044820152606490fd5b336000526101cc60205260ff604060002054166104d55760405162461bcd60e51b815260206004820152600f60248201526e139bdd081dda1a5d195b1a5cdd1959608a1b6044820152606490fd5b60405162461bcd60e51b815260206004820152601060248201526f12185c990818d85c081c995858da195960821b6044820152606490fd5b60405162461bcd60e51b815260206004820152601660248201527520b137bb329036b0bc1031b7b73a3934b13aba34b7b760511b6044820152606490fd5b60405162461bcd60e51b81526020600482015260166024820152752132b637bb9036b4b71031b7b73a3934b13aba34b7b760511b6044820152606490fd5b60405162461bcd60e51b8152602060048201526011602482015270141c995cd85b1948199a5b985b1a5e9959607a1b6044820152606490fd5b60405162461bcd60e51b815260206004820152600d60248201526c141c995cd85b1948195b991959609a1b6044820152606490fd5b60405162461bcd60e51b8152602060048201526013602482015272141c995cd85b19481b9bdd081cdd185c9d1959606a1b6044820152606490fd5b346102845760003660031901126102845760206101ce54604051908152f35b3461028457600036600319011261028457602060ff6101cf5460081c166040519015158152f35b3461028457600036600319011261028457602060ff6101cf54166040519015158152f35b34610284576107b1366123f8565b916107ba612aed565b60ff6101cf54161561084f5760005b82811061080757506108027f11d4d128e8f89ae2e8815168b9eba079dd6668b75f1e3a9dd96ac6192a7c4dcb936040519384938461263b565b0390a1005b6001906001600160a01b03610825610820838787612615565b612601565b166000526101d06020526108498560406000209060ff801983541691151516179055565b016107c9565b60405162461bcd60e51b8152602060048201526015602482015274109b1858dadb1a5cdd081b9bdd08195b98589b1959605a1b6044820152606490fd5b346102845761089a366123f8565b916108a3612aed565b60ff6101ca54161561092e5760005b8281106108eb57506108027fa091d95aa3f4b3529e12c57e1e9e10580edde8a7ac6fd51dd3c8e824c332dbe0936040519384938461263b565b6001906001600160a01b03610904610820838787612615565b166000526101cc6020526109288560406000209060ff801983541691151516179055565b016108b2565b60405162461bcd60e51b815260206004820152601560248201527415da1a5d195b1a5cdd081b9bdd08195b98589b1959605a1b6044820152606490fd5b346102845760403660031901126102845761099161098761233b565b6024359033612830565b602060405160018152f35b34610284576040366003190112610284576109b561233b565b60243590336000526034602052604060002060018060a01b038216600052602052604060002054918083106109f05761099192039033612696565b60405162461bcd60e51b815260206004820152602560248201527f45524332303a2064656372656173656420616c6c6f77616e63652062656c6f77604482015264207a65726f60d81b6064820152608490fd5b34610284576020366003190112610284576001600160a01b03610a6461233b565b166000526101cc602052602060ff604060002054166040519015158152f35b34610284576000366003190112610284576040516000603754610aa581612452565b80845290602090600190818116908115610b265750600114610ade575b61026a85610ad281870382612383565b604051918291826122f2565b6037600090815293506000805160206132058339815191525b838510610b1357505050508101602001610ad28261026a610ac2565b8054868601840152938201938101610af7565b86955061026a96935060209250610ad294915060ff191682840152151560051b8201019293610ac2565b34610284576003196020368201126102845767ffffffffffffffff600435116102845761024060043560040191600435360301126102845760005460ff8160081c161590818092611342575b801561132b575b156112cf5760ff198116600117600055816112bd575b50610bee610bdc610be6610bcd85806125c1565b929095602460043501906125c1565b95909236916123c1565b9336916123c1565b90610c0960ff60005460081c16610c048161303f565b61303f565b825167ffffffffffffffff811161026e57610c25603654612452565b601f8111611254575b506020601f82116001146111e057819293946000926111d5575b50508160011b916000199060031b1c1916176036555b815167ffffffffffffffff811161026e57610c7a603754612452565b601f8111611168575b50602092601f82116001146110f857928192936000926110ed575b50508160011b916000199060031b1c1916176037555b610cee60ff60005460081c16610cc98161303f565b610cd28161303f565b610cdb8161303f565b60ff1960975416609755610c048161303f565b610cf733612d9c565b610d2060ff60005460081c16610d0c8161303f565b610d158161303f565b60016101915561303f565b6064600435013560446004350135811061109c57426101646004350135111561105757610164600435013561018460043501351115611008576101ce55610d6b60a4600435016125f4565b15156101cf90815460ff61ff00610d8660c4600435016125f4565b151560081b1692169061ffff19161717905560018060a01b03610dae6101a460043501612601565b166101d2906bffffffffffffffffffffffff60a01b8254161790556101c460043501356101d355610de46101e4600435016125f4565b15156101d49060ff8019835416911617905561020460043501356101d55561022460043501356101d6556040518061014081011067ffffffffffffffff6101408301111761026e5761014081016040908152600435610144810135600181901c80855260208501829052610104830135938501849052610124830135606086018190526101648401356080870181905261018485013560a080890182905260e487013560c08a01819052600060e08b018190526101008b018190526101209a909a018a90526101c39586556101c4969096556101c5979097556101c6929092556101c7556101c8556101c9919091556101ca805461ffff191690556101cb939093557f363312020dbba28eb1464ec7d5f963ebe389e1b00dab8dd54d46e2e2f2e632619290610f2490604481013590610f1f90608401612601565b612e6e565b6101c46004350135151580610fea575b610fae575b546101c4546040519182526020820152610164600435013560408201526101846004350135606082015260e460043501356080820152a1610f7657005b61ff0019600054166000557f7f26b83ff96e1f2b6a682f133852f6798a09c465da95921460cefb3847402498602060405160018152a1005b610fbd6101e4600435016125f4565b610fe057610fdb6101c46004350135610f1f6101a460043501612601565b610f39565b426101d755610f39565b50600180831b036110006101a460043501612601565b161515610f34565b60405162461bcd60e51b815260206004820152602160248201527f456e642074696d65206d7573742062652061667465722073746172742074696d6044820152606560f81b6064820152608490fd5b60405162461bcd60e51b815260206004820152601c60248201527f53746172742074696d65206d75737420626520696e20667574757265000000006044820152606490fd5b60405162461bcd60e51b8152602060048201526024808201527f4d617820737570706c79206d757374206265203e3d20696e697469616c20737560448201526370706c7960e01b6064820152608490fd5b015190508380610c9e565b601f1982169360376000526000805160206132058339815191529160005b8681106111505750836001959610611137575b505050811b01603755610cb4565b015160001960f88460031b161c19169055838080611129565b91926020600181928685015181550194019201611116565b6037600052601f820160051c6000805160206132058339815191520190602083106111bf575b601f0160051c60008051602061320583398151915201905b8181106111b35750610c83565b600081556001016111a6565b600080516020613205833981519152915061118e565b015190508480610c48565b60366000526000805160206131c58339815191529060005b601f198416811061123c5750600193949583601f19811610611223575b505050811b01603655610c5e565b015160001960f88460031b161c19169055848080611215565b9091602060018192858a0151815501930191016111f8565b6036600052601f820160051c6000805160206131c583398151915201602083106112a8575b601f820160051c6000805160206131c583398151915201811061129c5750610c2e565b60008155600101611279565b506000805160206131c5833981519152611279565b61ffff19166101011760005582610bb9565b60405162461bcd60e51b815260206004820152602e60248201527f496e697469616c697a61626c653a20636f6e747261637420697320616c72656160448201526d191e481a5b9a5d1a585b1a5e995960921b6064820152608490fd5b50303b158015610ba35750600160ff821614610ba3565b50600160ff821610610b9c565b346102845760003660031901126102845760fb546040516001600160a01b039091168152602090f35b3461028457600036600319011261028457611391612d45565b6101d2546001600160a01b0316338190036114e45760ff6101d45416156114a9576113c36101d7546101d6549061254e565b421061146b576113d1612de5565b906101d86113e1815480946125b4565b90811561143157816020936114229261141b837fbc7ec4f43cc9d06c3fc2804e1bc7fb4c5463c361795d54400ce36256ad1b2ba89861254e565b9055612e6e565b604051908152a1600161019155005b60405162461bcd60e51b81526020600482015260126024820152714e6f20746f6b656e7320746f20636c61696d60701b6044820152606490fd5b60405162461bcd60e51b815260206004820152601660248201527510db1a5999881c195c9a5bd9081b9bdd08195b99195960521b6044820152606490fd5b60405162461bcd60e51b815260206004820152601360248201527215995cdd1a5b99c81b9bdd08195b98589b1959606a1b6044820152606490fd5b60405162461bcd60e51b8152602060048201526011602482015270139bdd08199959481c9958da5c1a595b9d607a1b6044820152606490fd5b3461028457600036600319011261028457611536612aed565b60975460ff81166115785760019060ff1916176097557f62e78cea01bee320cd4e420270b5ea74000d11b0c9f74754ebdbfc544b05a2586020604051338152a1005b60405162461bcd60e51b815260206004820152601060248201526f14185d5cd8589b194e881c185d5cd95960821b6044820152606490fd5b34610284576020366003190112610284576001600160a01b036115d161233b565b166000526101d16020526020604060002054604051908152f35b346102845760403660031901126102845761032661160761233b565b60243590611616823383612798565b612b45565b3461028457600036600319011261028457611634612aed565b60fb80546001600160a01b031981169091556000906001600160a01b03167f8be0079c531659141344cd1fd0a4f28419497f9722a3daafe3b4186f6b6457e08280a3005b34610284576020366003190112610284576001600160a01b0361169961233b565b1660005260336020526020604060002054604051908152f35b346102845760003660031901126102845760206101d354604051908152f35b34610284576040366003190112610284576116ea61233b565b6024356116f5612aed565b60ff6101cf5460081c16156117a85742811115611763576001600160a01b0390911660008181526101d1602090815260409182902084905581519283528201929092527fa9353e70f07f31e7f4e16464f45e189cbd22826780a5abe4da8303652a86960a9181908101610802565b60405162461bcd60e51b815260206004820152601d60248201527f556e6c6f636b2074696d65206d75737420626520696e206675747572650000006044820152606490fd5b60405162461bcd60e51b8152602060048201526015602482015274151a5b59481b1bd8dac81b9bdd08195b98589b1959605a1b6044820152606490fd5b346102845760003660031901126102845760206101d854604051908152f35b3461028457600036600319011261028457602060ff609754166040519015158152f35b34610284576000366003190112610284577f00000000000000000000000000000000000000000000000000000000000000006001600160a01b031630036118805760206040516000805160206131e58339815191528152f35b60405162461bcd60e51b815260206004820152603860248201527f555550535570677261646561626c653a206d757374206e6f742062652063616c60448201527f6c6564207468726f7567682064656c656761746563616c6c00000000000000006064820152608490fd5b6040366003190112610284576118ff61233b565b60243567ffffffffffffffff81116102845736602382011215610284576119309036906024816004013591016123c1565b906001600160a01b037f00000000000000000000000000000000000000000000000000000000000000008116906119693083141561248c565b6119866000805160206131e58339815191529282845416146124ed565b61198e612aed565b7f4910fdfa16fed3260ed0e7147f7cc6da11a60208b5b9406d12a635614ffd91435460ff16156119c4575050610326915061309f565b6040516352d1902d60e01b81526020939291831691908481600481865afa60009181611b51575b50611a4c5760405162461bcd60e51b815260048101869052602e60248201527f45524331393637557067726164653a206e657720696d706c656d656e7461746960448201526d6f6e206973206e6f74205555505360901b6064820152608490fd5b03611afa57611a5a8261309f565b7fbc7cd75a20ee27fd9adebab32041f755214dbc6bffa90cc0225b39da2e5c2d3b600080a2825115801590611af2575b611a9057005b6000806103269460405194611aa486612367565b602786527f416464726573733a206c6f772d6c6576656c2064656c65676174652063616c6c81870152660819985a5b195960ca1b604087015281519101845af4611aec612584565b9161312f565b506001611a8a565b60405162461bcd60e51b815260048101849052602960248201527f45524331393637557067726164653a20756e737570706f727465642070726f786044820152681a58589b195555525160ba1b6064820152608490fd5b9091508581813d8311611b79575b611b698183612383565b81010312610284575190876119eb565b503d611b5f565b3461028457600036600319011261028457611b99612aed565b611ba1612d45565b6101c854421115611cef576101ca805460ff8160081c16611cb6576101cb918254906101c3548210611c7a57610100611be69361ff0019161790556101c95490612571565b90600080808060018060a01b0360fb541647905af1611c03612584565b5015611c43577fedfde254cb8ed39d650c9a34251c59d6817fae4cc876cc2ce76669976cf102ee91604091549082519182526020820152a1600161019155005b60405162461bcd60e51b815260206004820152600f60248201526e151c985b9cd9995c8819985a5b1959608a1b6044820152606490fd5b60405162461bcd60e51b815260206004820152601460248201527314dbd99d0818d85c081b9bdd081c995858da195960621b6044820152606490fd5b60405162461bcd60e51b8152602060048201526011602482015270105b1c9958591e48199a5b985b1a5e9959607a1b6044820152606490fd5b60405162461bcd60e51b8152602060048201526011602482015270141c995cd85b19481b9bdd08195b991959607a1b6044820152606490fd5b34610284576020366003190112610284576001600160a01b03611d4961233b565b166000526101cd6020526020604060002054604051908152f35b346102845760203660031901126102845761032660043533612b45565b346102845760003660031901126102845760206101d554604051908152f35b3461028457600036600319011261028457611db8612aed565b60975460ff811615611df75760ff19166097557f5db9ee0a495bf2e6ff9c91a7834c1ba4fdd244a5e8aa4e537bd38aeae4b073aa6020604051338152a1005b60405162461bcd60e51b815260206004820152601460248201527314185d5cd8589b194e881b9bdd081c185d5cd95960621b6044820152606490fd5b3461028457604036600319011261028457610991611e4f61233b565b336000526034602052604060002060018060a01b038216600052602052611e7d60243560406000205461254e565b9033612696565b346102845760208060031936011261028457611e9e61233b565b6001600160a01b037f000000000000000000000000000000000000000000000000000000000000000081169290611ed73085141561248c565b611ef46000805160206131e58339815191529482865416146124ed565b611efc612aed565b604051938285019185831067ffffffffffffffff84111761026e57826040526000865260ff7f4910fdfa16fed3260ed0e7147f7cc6da11a60208b5b9406d12a635614ffd91435416600014611f595750505050610326915061309f565b84939416906040516352d1902d60e01b81528581600481865afa600091816120da575b50611fdd5760405162461bcd60e51b815260048101879052602e60248201527f45524331393637557067726164653a206e657720696d706c656d656e7461746960448201526d6f6e206973206e6f74205555505360901b6064820152608490fd5b0361208357611feb8361309f565b7fbc7cd75a20ee27fd9adebab32041f755214dbc6bffa90cc0225b39da2e5c2d3b600080a283511580159061207b575b61202157005b60008091610326957f416464726573733a206c6f772d6c6576656c2064656c65676174652063616c6c6040519661205788612367565b60278852870152660819985a5b195960ca1b60408701525190845af4611aec612584565b50600061201b565b60405162461bcd60e51b815260048101859052602960248201527f45524331393637557067726164653a20756e737570706f727465642070726f786044820152681a58589b195555525160ba1b6064820152608490fd5b9091508681813d8311612102575b6120f28183612383565b8101031261028457519088611f7c565b503d6120e8565b3461028457600036600319011261028457602060405160128152f35b34610284576000366003190112610284576101406101c3546101c45460ff6101c5546101c6546101c7546101c854906101c954926101ca54946101cb5497604051998a5260208a015260408901526060880152608087015260a086015260c0850152818116151560e085015260081c161515610100830152610120820152f35b346102845760003660031901126102845760206101d754604051908152f35b34610284576060366003190112610284576109916121e061233b565b6121e8612351565b604435916121f7833383612798565b612830565b34610284576000366003190112610284576020603554604051908152f35b346102845760003660031901126102845760206101d654604051908152f35b346102845760403660031901126102845761099161225561233b565b6024359033612696565b3461028457600036600319011261028457600060365461227e81612452565b80845290602090600190818116908115610b2657506001146122aa5761026a85610ad281870382612383565b6036600090815293506000805160206131c58339815191525b8385106122df57505050508101602001610ad28261026a610ac2565b80548686018401529382019381016122c3565b6020808252825181830181905290939260005b82811061232757505060409293506000838284010152601f8019910116010190565b818101860151848201604001528501612305565b600435906001600160a01b038216820361028457565b602435906001600160a01b038216820361028457565b6060810190811067ffffffffffffffff82111761026e57604052565b90601f8019910116810190811067ffffffffffffffff82111761026e57604052565b67ffffffffffffffff811161026e57601f01601f191660200190565b9291926123cd826123a5565b916123db6040519384612383565b829481845281830111610284578281602093846000960137010152565b9060406003198301126102845760043567ffffffffffffffff9283821161028457806023830112156102845781600401359384116102845760248460051b8301011161028457602401919060243580151581036102845790565b90600182811c92168015612482575b602083101461246c57565b634e487b7160e01b600052602260045260246000fd5b91607f1691612461565b1561249357565b60405162461bcd60e51b815260206004820152602c60248201527f46756e6374696f6e206d7573742062652063616c6c6564207468726f7567682060448201526b19195b1959d85d1958d85b1b60a21b6064820152608490fd5b156124f457565b60405162461bcd60e51b815260206004820152602c60248201527f46756e6374696f6e206d7573742062652063616c6c6564207468726f7567682060448201526b6163746976652070726f787960a01b6064820152608490fd5b9190820180921161255b57565b634e487b7160e01b600052601160045260246000fd5b8181029291811591840414171561255b57565b3d156125af573d90612595826123a5565b916125a36040519384612383565b82523d6000602084013e565b606090565b9190820391821161255b57565b903590601e1981360301821215610284570180359067ffffffffffffffff82116102845760200191813603831361028457565b3580151581036102845790565b356001600160a01b03811681036102845790565b91908110156126255760051b0190565b634e487b7160e01b600052603260045260246000fd5b60408082528101839052929392916060830190600090815b8181106126695750505060209150931515910152565b909192843560018060a01b03811680910361269257815260209485019401929190600101612653565b8480fd5b6001600160a01b0390811691821561274757169182156126f75760207f8c5be1e5ebec7d5bd14f71427d1e84f3dd0314c0f7b2291e5b200ac8c7c3b925918360005260348252604060002085600052825280604060002055604051908152a3565b60405162461bcd60e51b815260206004820152602260248201527f45524332303a20617070726f766520746f20746865207a65726f206164647265604482015261737360f01b6064820152608490fd5b60405162461bcd60e51b8152602060048201526024808201527f45524332303a20617070726f76652066726f6d20746865207a65726f206164646044820152637265737360e01b6064820152608490fd5b9060018060a01b03808316600052603460205260406000209082166000526020526040600020549260001984036127d0575b50505050565b8084106127eb576127e2930391612696565b388080806127ca565b60405162461bcd60e51b815260206004820152601d60248201527f45524332303a20696e73756666696369656e7420616c6c6f77616e63650000006044820152606490fd5b6001600160a01b03908116918215612a9a5716918215612a495760ff609754166129f1576101cf5460ff8116612981575b60081c60ff1680612979575b612924575b600082815260336020526040812054918083106128d057604082827fddf252ad1be2c89b69c2b068fc378daa952ba7f163c4a11628f55a4df523b3ef95876020965260338652038282205586815220818154019055604051908152a3565b60405162461bcd60e51b815260206004820152602660248201527f45524332303a207472616e7366657220616d6f756e7420657863656564732062604482015265616c616e636560d01b6064820152608490fd5b816000526101d16020526040600020544210156128725760405162461bcd60e51b8152602060048201526016602482015275151bdad95b9cc8185c99481d1a5b594b5b1bd8dad95960521b6044820152606490fd5b50600161286d565b826000526101d060205260ff6040600020541615806129dd575b6128615760405162461bcd60e51b81526020600482015260166024820152751059191c995cdcc81a5cc8189b1858dadb1a5cdd195960521b6044820152606490fd5b508360005260ff604060002054161561299b565b60405162461bcd60e51b815260206004820152602a60248201527f45524332305061757361626c653a20746f6b656e207472616e736665722077686044820152691a5b19481c185d5cd95960b21b6064820152608490fd5b60405162461bcd60e51b815260206004820152602360248201527f45524332303a207472616e7366657220746f20746865207a65726f206164647260448201526265737360e81b6064820152608490fd5b60405162461bcd60e51b815260206004820152602560248201527f45524332303a207472616e736665722066726f6d20746865207a65726f206164604482015264647265737360d81b6064820152608490fd5b60fb546001600160a01b03163303612b0157565b606460405162461bcd60e51b815260206004820152602060248201527f4f776e61626c653a2063616c6c6572206973206e6f7420746865206f776e65726044820152fd5b6001600160a01b03168015612cf65760ff609754166129f1576101cf5460ff8116612c86575b60081c60ff1680612c7e575b612c29575b80600052603360205260406000205491808310612bd9576020817fddf252ad1be2c89b69c2b068fc378daa952ba7f163c4a11628f55a4df523b3ef92600095858752603384520360408620558060355403603555604051908152a3565b60405162461bcd60e51b815260206004820152602260248201527f45524332303a206275726e20616d6f756e7420657863656564732062616c616e604482015261636560f01b6064820152608490fd5b806000526101d1602052604060002054421015612b7c5760405162461bcd60e51b8152602060048201526016602482015275151bdad95b9cc8185c99481d1a5b594b5b1bd8dad95960521b6044820152606490fd5b506001612b77565b816000526101d060205260ff604060002054161580612ce2575b612b6b5760405162461bcd60e51b81526020600482015260166024820152751059191c995cdcc81a5cc8189b1858dadb1a5cdd195960521b6044820152606490fd5b506000805260ff6040600020541615612ca0565b60405162461bcd60e51b815260206004820152602160248201527f45524332303a206275726e2066726f6d20746865207a65726f206164647265736044820152607360f81b6064820152608490fd5b6101916002815414612d575760029055565b60405162461bcd60e51b815260206004820152601f60248201527f5265656e7472616e637947756172643a207265656e7472616e742063616c6c006044820152606490fd5b60fb80546001600160a01b039283166001600160a01b0319821681179092559091167f8be0079c531659141344cd1fd0a4f28419497f9722a3daafe3b4186f6b6457e0600080a3565b6101d7546101d654612df7818361254e565b4210612e67576101d55491612e0c838261254e565b421015612e5d5781612e2d612e27612e3d94612e339461254e565b426125b4565b936125b4565b916101d354612571565b8115612e47570490565b634e487b7160e01b600052601260045260246000fd5b5050506101d35490565b5050600090565b6001600160a01b0316908115612ffa5760ff609754166129f1576101cf5460ff8116612f6e575b60081c60ff1680612f66575b612ef5575b7fddf252ad1be2c89b69c2b068fc378daa952ba7f163c4a11628f55a4df523b3ef602082612ed860009460355461254e565b6035558484526033825260408420818154019055604051908152a3565b600080526101d16020527f317b84ddac75f0ea69bf5811368b149bf7c81698247b92d5d9a5a9dff0e528d054421015612ea65760405162461bcd60e51b8152602060048201526016602482015275151bdad95b9cc8185c99481d1a5b594b5b1bd8dad95960521b6044820152606490fd5b506000612ea1565b600080526101d06020527f829b3c0c06e324cb54d5f90a76dfb1a140c4382b9f5b15e8e23751ea3306f24d5460ff161580612fe6575b612e955760405162461bcd60e51b81526020600482015260166024820152751059191c995cdcc81a5cc8189b1858dadb1a5cdd195960521b6044820152606490fd5b508260005260ff6040600020541615612fa4565b60405162461bcd60e51b815260206004820152601f60248201527f45524332303a206d696e7420746f20746865207a65726f2061646472657373006044820152606490fd5b1561304657565b60405162461bcd60e51b815260206004820152602b60248201527f496e697469616c697a61626c653a20636f6e7472616374206973206e6f74206960448201526a6e697469616c697a696e6760a81b6064820152608490fd5b803b156130d4576000805160206131e583398151915280546001600160a01b0319166001600160a01b03909216919091179055565b60405162461bcd60e51b815260206004820152602d60248201527f455243313936373a206e657720696d706c656d656e746174696f6e206973206e60448201526c1bdd08184818dbdb9d1c9858dd609a1b6064820152608490fd5b919290156131915750815115613143575090565b3b1561314c5790565b60405162461bcd60e51b815260206004820152601d60248201527f416464726573733a2063616c6c20746f206e6f6e2d636f6e74726163740000006044820152606490fd5b8251909150156131a45750805190602001fd5b60405162461bcd60e51b81529081906131c090600483016122f2565b0390fdfe4a11f94e20a93c79f6ec743a1954ec4fc2c08429ae2122118bf234b2185c81b8360894a13ba1a3210667c828492db98dca3e2076cc3735a920a3ca505d382bbc42a7b7dd785cd69714a189dffb3fd7d7174edc9ece837694ce50f7078f7c31aea26469706673582212208283409583ad47770971409782c784ccbea5ec20fcd9d61041d42a60da459c1964736f6c63430008160033","opcodes":"PUSH1 0xA0 DUP1 PUSH1 0x40 MSTORE CALLVALUE PUSH2 0xDD JUMPI ADDRESS PUSH1 0x80 MSTORE PUSH1 0x0 SLOAD SWAP1 PUSH1 0xFF DUP3 PUSH1 0x8 SHR AND PUSH2 0x8B JUMPI POP PUSH1 0xFF DUP1 DUP3 AND SUB PUSH2 0x50 JUMPI JUMPDEST PUSH1 0x40 MLOAD PUSH2 0x325A SWAP1 DUP2 PUSH3 0xE3 DUP3 CODECOPY PUSH1 0x80 MLOAD DUP2 DUP2 DUP2 PUSH2 0x183A ADD MSTORE DUP2 DUP2 PUSH2 0x193B ADD MSTORE PUSH2 0x1EA8 ADD MSTORE RETURN JUMPDEST PUSH1 0xFF SWAP1 DUP2 NOT AND OR PUSH1 0x0 SSTORE PUSH32 0x7F26B83FF96E1F2B6A682F133852F6798A09C465DA95921460CEFB3847402498 PUSH1 0x20 PUSH1 0x40 MLOAD PUSH1 0xFF DUP2 MSTORE LOG1 CODESIZE PUSH2 0x29 JUMP JUMPDEST PUSH3 0x461BCD PUSH1 0xE5 SHL DUP2 MSTORE PUSH1 0x20 PUSH1 0x4 DUP3 ADD MSTORE PUSH1 0x27 PUSH1 0x24 DUP3 ADD MSTORE PUSH32 0x496E697469616C697A61626C653A20636F6E747261637420697320696E697469 PUSH1 0x44 DUP3 ADD MSTORE PUSH7 0x616C697A696E67 PUSH1 0xC8 SHL PUSH1 0x64 DUP3 ADD MSTORE PUSH1 0x84 SWAP1 REVERT JUMPDEST PUSH1 0x0 DUP1 REVERT INVALID PUSH1 0x80 DUP1 PUSH1 0x40 MSTORE PUSH1 0x4 CALLDATASIZE LT ISZERO PUSH2 0x13 JUMPI PUSH1 0x0 DUP1 REVERT JUMPDEST PUSH1 0x0 CALLDATALOAD PUSH1 0xE0 SHR SWAP1 DUP2 PUSH4 0x6FDDE03 EQ PUSH2 0x225F JUMPI POP DUP1 PUSH4 0x95EA7B3 EQ PUSH2 0x2239 JUMPI DUP1 PUSH4 0x113D478B EQ PUSH2 0x221A JUMPI DUP1 PUSH4 0x18160DDD EQ PUSH2 0x21FC JUMPI DUP1 PUSH4 0x23B872DD EQ PUSH2 0x21C4 JUMPI DUP1 PUSH4 0x2791770A EQ PUSH2 0x21A5 JUMPI DUP1 PUSH4 0x2EDF0869 EQ PUSH2 0x2125 JUMPI DUP1 PUSH4 0x313CE567 EQ PUSH2 0x2109 JUMPI DUP1 PUSH4 0x3659CFE6 EQ PUSH2 0x1E84 JUMPI DUP1 PUSH4 0x39509351 EQ PUSH2 0x1E33 JUMPI DUP1 PUSH4 0x3F4BA83A EQ PUSH2 0x1D9F JUMPI DUP1 PUSH4 0x420FC210 EQ PUSH2 0x1D80 JUMPI DUP1 PUSH4 0x42966C68 EQ PUSH2 0x1D63 JUMPI DUP1 PUSH4 0x42E94C90 EQ PUSH2 0x1D28 JUMPI DUP1 PUSH4 0x4BB278F3 EQ PUSH2 0x1B80 JUMPI DUP1 PUSH4 0x4F1EF286 EQ PUSH2 0x18EB JUMPI DUP1 PUSH4 0x52D1902D EQ PUSH2 0x1827 JUMPI DUP1 PUSH4 0x5C975ABB EQ PUSH2 0x1804 JUMPI DUP1 PUSH4 0x63280C51 EQ PUSH2 0x17E5 JUMPI DUP1 PUSH4 0x644FAB74 EQ PUSH2 0x16D1 JUMPI DUP1 PUSH4 0x6B7F3D1A EQ PUSH2 0x16B2 JUMPI DUP1 PUSH4 0x70A08231 EQ PUSH2 0x1678 JUMPI DUP1 PUSH4 0x715018A6 EQ PUSH2 0x161B JUMPI DUP1 PUSH4 0x79CC6790 EQ PUSH2 0x15EB JUMPI DUP1 PUSH4 0x7F76B223 EQ PUSH2 0x15B0 JUMPI DUP1 PUSH4 0x8456CB59 EQ PUSH2 0x151D JUMPI DUP1 PUSH4 0x8BDC444D EQ PUSH2 0x1378 JUMPI DUP1 PUSH4 0x8DA5CB5B EQ PUSH2 0x134F JUMPI DUP1 PUSH4 0x94CF6873 EQ PUSH2 0xB50 JUMPI DUP1 PUSH4 0x95D89B41 EQ PUSH2 0xA83 JUMPI DUP1 PUSH4 0x9B19251A EQ PUSH2 0xA43 JUMPI DUP1 PUSH4 0xA457C2D7 EQ PUSH2 0x99C JUMPI DUP1 PUSH4 0xA9059CBB EQ PUSH2 0x96B JUMPI DUP1 PUSH4 0xAFF177CA EQ PUSH2 0x88C JUMPI DUP1 PUSH4 0xBB0E69E8 EQ PUSH2 0x7A3 JUMPI DUP1 PUSH4 0xBFFB691D EQ PUSH2 0x77F JUMPI DUP1 PUSH4 0xCBA4CBD3 EQ PUSH2 0x758 JUMPI DUP1 PUSH4 0xD5ABEB01 EQ PUSH2 0x739 JUMPI DUP1 PUSH4 0xD7BB99BA EQ PUSH2 0x469 JUMPI DUP1 PUSH4 0xDC25A300 EQ PUSH2 0x3F7 JUMPI DUP1 PUSH4 0xDD62ED3E EQ PUSH2 0x3A6 JUMPI DUP1 PUSH4 0xEB13554F EQ PUSH2 0x37C JUMPI DUP1 PUSH4 0xF2FDE38B EQ PUSH2 0x2ED JUMPI DUP1 PUSH4 0xF9F92BE4 EQ PUSH2 0x2AD JUMPI DUP1 PUSH4 0xFADCAC27 EQ PUSH2 0x289 JUMPI PUSH4 0xFFA1AD74 EQ PUSH2 0x219 JUMPI PUSH1 0x0 DUP1 REVERT JUMPDEST CALLVALUE PUSH2 0x284 JUMPI PUSH1 0x0 CALLDATASIZE PUSH1 0x3 NOT ADD SLT PUSH2 0x284 JUMPI PUSH1 0x40 MLOAD PUSH1 0x40 DUP2 ADD SWAP1 DUP1 DUP3 LT PUSH8 0xFFFFFFFFFFFFFFFF DUP4 GT OR PUSH2 0x26E JUMPI PUSH2 0x26A SWAP2 PUSH1 0x40 MSTORE PUSH1 0x5 DUP2 MSTORE PUSH5 0x322E302E3 PUSH1 0xDC SHL PUSH1 0x20 DUP3 ADD MSTORE PUSH1 0x40 MLOAD SWAP2 DUP3 SWAP2 DUP3 PUSH2 0x22F2 JUMP JUMPDEST SUB SWAP1 RETURN JUMPDEST PUSH4 0x4E487B71 PUSH1 0xE0 SHL PUSH1 0x0 MSTORE PUSH1 0x41 PUSH1 0x4 MSTORE PUSH1 0x24 PUSH1 0x0 REVERT JUMPDEST PUSH1 0x0 DUP1 REVERT JUMPDEST CALLVALUE PUSH2 0x284 JUMPI PUSH1 0x0 CALLDATASIZE PUSH1 0x3 NOT ADD SLT PUSH2 0x284 JUMPI PUSH1 0x20 PUSH1 0xFF PUSH2 0x1D4 SLOAD AND PUSH1 0x40 MLOAD SWAP1 ISZERO ISZERO DUP2 MSTORE RETURN JUMPDEST CALLVALUE PUSH2 0x284 JUMPI PUSH1 0x20 CALLDATASIZE PUSH1 0x3 NOT ADD SLT PUSH2 0x284 JUMPI PUSH1 0x1 PUSH1 0x1 PUSH1 0xA0 SHL SUB PUSH2 0x2CE PUSH2 0x233B JUMP JUMPDEST AND PUSH1 0x0 MSTORE PUSH2 0x1D0 PUSH1 0x20 MSTORE PUSH1 0x20 PUSH1 0xFF PUSH1 0x40 PUSH1 0x0 KECCAK256 SLOAD AND PUSH1 0x40 MLOAD SWAP1 ISZERO ISZERO DUP2 MSTORE RETURN JUMPDEST CALLVALUE PUSH2 0x284 JUMPI PUSH1 0x20 CALLDATASIZE PUSH1 0x3 NOT ADD SLT PUSH2 0x284 JUMPI PUSH2 0x306 PUSH2 0x233B JUMP JUMPDEST PUSH2 0x30E PUSH2 0x2AED JUMP JUMPDEST PUSH1 0x1 PUSH1 0x1 PUSH1 0xA0 SHL SUB DUP2 AND ISZERO PUSH2 0x328 JUMPI PUSH2 0x326 SWAP1 PUSH2 0x2D9C JUMP JUMPDEST STOP JUMPDEST PUSH1 0x40 MLOAD PUSH3 0x461BCD PUSH1 0xE5 SHL DUP2 MSTORE PUSH1 0x20 PUSH1 0x4 DUP3 ADD MSTORE PUSH1 0x26 PUSH1 0x24 DUP3 ADD MSTORE PUSH32 0x4F776E61626C653A206E6577206F776E657220697320746865207A65726F2061 PUSH1 0x44 DUP3 ADD MSTORE PUSH6 0x646472657373 PUSH1 0xD0 SHL PUSH1 0x64 DUP3 ADD MSTORE PUSH1 0x84 SWAP1 REVERT JUMPDEST CALLVALUE PUSH2 0x284 JUMPI PUSH1 0x0 CALLDATASIZE PUSH1 0x3 NOT ADD SLT PUSH2 0x284 JUMPI PUSH2 0x1D2 SLOAD PUSH1 0x40 MLOAD PUSH1 0x1 PUSH1 0x1 PUSH1 0xA0 SHL SUB SWAP1 SWAP2 AND DUP2 MSTORE PUSH1 0x20 SWAP1 RETURN JUMPDEST CALLVALUE PUSH2 0x284 JUMPI PUSH1 0x40 CALLDATASIZE PUSH1 0x3 NOT ADD SLT PUSH2 0x284 JUMPI PUSH2 0x3BF PUSH2 0x233B JUMP JUMPDEST PUSH2 0x3C7 PUSH2 0x2351 JUMP JUMPDEST SWAP1 PUSH1 0x1 DUP1 PUSH1 0xA0 SHL SUB DUP1 SWAP2 AND PUSH1 0x0 MSTORE PUSH1 0x34 PUSH1 0x20 MSTORE PUSH1 0x40 PUSH1 0x0 KECCAK256 SWAP2 AND PUSH1 0x0 MSTORE PUSH1 0x20 MSTORE PUSH1 0x20 PUSH1 0x40 PUSH1 0x0 KECCAK256 SLOAD PUSH1 0x40 MLOAD SWAP1 DUP2 MSTORE RETURN JUMPDEST CALLVALUE PUSH2 0x284 JUMPI PUSH1 0x0 CALLDATASIZE PUSH1 0x3 NOT ADD SLT PUSH2 0x284 JUMPI PUSH1 0x80 PUSH2 0x1D3 SLOAD PUSH2 0x1D8 SLOAD PUSH1 0xFF PUSH2 0x1D4 SLOAD AND PUSH1 0x0 EQ PUSH2 0x45A JUMPI PUSH2 0x431 DUP2 PUSH2 0x42C PUSH2 0x2DE5 JUMP JUMPDEST PUSH2 0x25B4 JUMP JUMPDEST PUSH2 0x442 PUSH2 0x1D7 SLOAD PUSH2 0x1D5 SLOAD SWAP1 PUSH2 0x254E JUMP JUMPDEST SWAP2 PUSH1 0x40 MLOAD SWAP4 DUP5 MSTORE PUSH1 0x20 DUP5 ADD MSTORE PUSH1 0x40 DUP4 ADD MSTORE PUSH1 0x60 DUP3 ADD MSTORE RETURN JUMPDEST PUSH2 0x464 DUP2 DUP4 PUSH2 0x25B4 JUMP JUMPDEST PUSH2 0x431 JUMP JUMPDEST PUSH1 0x0 CALLDATASIZE PUSH1 0x3 NOT ADD SLT PUSH2 0x284 JUMPI PUSH2 0x47D PUSH2 0x2D45 JUMP JUMPDEST PUSH2 0x1C7 SLOAD TIMESTAMP LT PUSH2 0x6FE JUMPI PUSH2 0x1C8 SLOAD TIMESTAMP GT PUSH2 0x6C9 JUMPI PUSH2 0x1CA SLOAD PUSH1 0xFF DUP2 PUSH1 0x8 SHR AND PUSH2 0x690 JUMPI PUSH2 0x1C5 SLOAD CALLVALUE LT PUSH2 0x652 JUMPI PUSH2 0x1C6 SLOAD DUP1 CALLVALUE GT PUSH2 0x614 JUMPI PUSH2 0x1CB SWAP2 PUSH2 0x4C4 CALLVALUE DUP5 SLOAD PUSH2 0x254E JUMP JUMPDEST PUSH2 0x1C4 SLOAD LT PUSH2 0x5DC JUMPI PUSH1 0xFF AND PUSH2 0x58E JUMPI JUMPDEST CALLER PUSH1 0x0 MSTORE PUSH2 0x1CD DUP1 PUSH1 0x20 MSTORE PUSH2 0x4EF CALLVALUE PUSH1 0x40 PUSH1 0x0 KECCAK256 SLOAD PUSH2 0x254E JUMP JUMPDEST SWAP2 DUP3 GT PUSH2 0x549 JUMPI CALLER PUSH1 0x0 MSTORE PUSH1 0x20 MSTORE PUSH1 0x40 PUSH1 0x0 KECCAK256 SSTORE PUSH2 0x50E CALLVALUE DUP3 SLOAD PUSH2 0x254E JUMP JUMPDEST SWAP1 SSTORE PUSH1 0x40 DUP1 MLOAD CALLER DUP2 MSTORE CALLVALUE PUSH1 0x20 DUP3 ADD MSTORE PUSH32 0x1BB460CCAAF70FBACFEC17A376F8ACBD278C1405590FFCC8EBE4B88DAF4F64AD SWAP2 SWAP1 LOG1 PUSH1 0x1 PUSH2 0x191 SSTORE STOP JUMPDEST PUSH1 0x40 MLOAD PUSH3 0x461BCD PUSH1 0xE5 SHL DUP2 MSTORE PUSH1 0x20 PUSH1 0x4 DUP3 ADD MSTORE PUSH1 0x1D PUSH1 0x24 DUP3 ADD MSTORE PUSH32 0x576F756C6420657863656564206D617820636F6E747269627574696F6E000000 PUSH1 0x44 DUP3 ADD MSTORE PUSH1 0x64 SWAP1 REVERT JUMPDEST CALLER PUSH1 0x0 MSTORE PUSH2 0x1CC PUSH1 0x20 MSTORE PUSH1 0xFF PUSH1 0x40 PUSH1 0x0 KECCAK256 SLOAD AND PUSH2 0x4D5 JUMPI PUSH1 0x40 MLOAD PUSH3 0x461BCD PUSH1 0xE5 SHL DUP2 MSTORE PUSH1 0x20 PUSH1 0x4 DUP3 ADD MSTORE PUSH1 0xF PUSH1 0x24 DUP3 ADD MSTORE PUSH15 0x139BDD081DDA1A5D195B1A5CDD1959 PUSH1 0x8A SHL PUSH1 0x44 DUP3 ADD MSTORE PUSH1 0x64 SWAP1 REVERT JUMPDEST PUSH1 0x40 MLOAD PUSH3 0x461BCD PUSH1 0xE5 SHL DUP2 MSTORE PUSH1 0x20 PUSH1 0x4 DUP3 ADD MSTORE PUSH1 0x10 PUSH1 0x24 DUP3 ADD MSTORE PUSH16 0x12185C990818D85C081C995858DA1959 PUSH1 0x82 SHL PUSH1 0x44 DUP3 ADD MSTORE PUSH1 0x64 SWAP1 REVERT JUMPDEST PUSH1 0x40 MLOAD PUSH3 0x461BCD PUSH1 0xE5 SHL DUP2 MSTORE PUSH1 0x20 PUSH1 0x4 DUP3 ADD MSTORE PUSH1 0x16 PUSH1 0x24 DUP3 ADD MSTORE PUSH22 0x20B137BB329036B0BC1031B7B73A3934B13ABA34B7B7 PUSH1 0x51 SHL PUSH1 0x44 DUP3 ADD MSTORE PUSH1 0x64 SWAP1 REVERT JUMPDEST PUSH1 0x40 MLOAD PUSH3 0x461BCD PUSH1 0xE5 SHL DUP2 MSTORE PUSH1 0x20 PUSH1 0x4 DUP3 ADD MSTORE PUSH1 0x16 PUSH1 0x24 DUP3 ADD MSTORE PUSH22 0x2132B637BB9036B4B71031B7B73A3934B13ABA34B7B7 PUSH1 0x51 SHL PUSH1 0x44 DUP3 ADD MSTORE PUSH1 0x64 SWAP1 REVERT JUMPDEST PUSH1 0x40 MLOAD PUSH3 0x461BCD PUSH1 0xE5 SHL DUP2 MSTORE PUSH1 0x20 PUSH1 0x4 DUP3 ADD MSTORE PUSH1 0x11 PUSH1 0x24 DUP3 ADD MSTORE PUSH17 0x141C995CD85B1948199A5B985B1A5E9959 PUSH1 0x7A SHL PUSH1 0x44 DUP3 ADD MSTORE PUSH1 0x64 SWAP1 REVERT JUMPDEST PUSH1 0x40 MLOAD PUSH3 0x461BCD PUSH1 0xE5 SHL DUP2 MSTORE PUSH1 0x20 PUSH1 0x4 DUP3 ADD MSTORE PUSH1 0xD PUSH1 0x24 DUP3 ADD MSTORE PUSH13 0x141C995CD85B1948195B991959 PUSH1 0x9A SHL PUSH1 0x44 DUP3 ADD MSTORE PUSH1 0x64 SWAP1 REVERT JUMPDEST PUSH1 0x40 MLOAD PUSH3 0x461BCD PUSH1 0xE5 SHL DUP2 MSTORE PUSH1 0x20 PUSH1 0x4 DUP3 ADD MSTORE PUSH1 0x13 PUSH1 0x24 DUP3 ADD MSTORE PUSH19 0x141C995CD85B19481B9BDD081CDD185C9D1959 PUSH1 0x6A SHL PUSH1 0x44 DUP3 ADD MSTORE PUSH1 0x64 SWAP1 REVERT JUMPDEST CALLVALUE PUSH2 0x284 JUMPI PUSH1 0x0 CALLDATASIZE PUSH1 0x3 NOT ADD SLT PUSH2 0x284 JUMPI PUSH1 0x20 PUSH2 0x1CE SLOAD PUSH1 0x40 MLOAD SWAP1 DUP2 MSTORE RETURN JUMPDEST CALLVALUE PUSH2 0x284 JUMPI PUSH1 0x0 CALLDATASIZE PUSH1 0x3 NOT ADD SLT PUSH2 0x284 JUMPI PUSH1 0x20 PUSH1 0xFF PUSH2 0x1CF SLOAD PUSH1 0x8 SHR AND PUSH1 0x40 MLOAD SWAP1 ISZERO ISZERO DUP2 MSTORE RETURN JUMPDEST CALLVALUE PUSH2 0x284 JUMPI PUSH1 0x0 CALLDATASIZE PUSH1 0x3 NOT ADD SLT PUSH2 0x284 JUMPI PUSH1 0x20 PUSH1 0xFF PUSH2 0x1CF SLOAD AND PUSH1 0x40 MLOAD SWAP1 ISZERO ISZERO DUP2 MSTORE RETURN JUMPDEST CALLVALUE PUSH2 0x284 JUMPI PUSH2 0x7B1 CALLDATASIZE PUSH2 0x23F8 JUMP JUMPDEST SWAP2 PUSH2 0x7BA PUSH2 0x2AED JUMP JUMPDEST PUSH1 0xFF PUSH2 0x1CF SLOAD AND ISZERO PUSH2 0x84F JUMPI PUSH1 0x0 JUMPDEST DUP3 DUP2 LT PUSH2 0x807 JUMPI POP PUSH2 0x802 PUSH32 0x11D4D128E8F89AE2E8815168B9EBA079DD6668B75F1E3A9DD96AC6192A7C4DCB SWAP4 PUSH1 0x40 MLOAD SWAP4 DUP5 SWAP4 DUP5 PUSH2 0x263B JUMP JUMPDEST SUB SWAP1 LOG1 STOP JUMPDEST PUSH1 0x1 SWAP1 PUSH1 0x1 PUSH1 0x1 PUSH1 0xA0 SHL SUB PUSH2 0x825 PUSH2 0x820 DUP4 DUP8 DUP8 PUSH2 0x2615 JUMP JUMPDEST PUSH2 0x2601 JUMP JUMPDEST AND PUSH1 0x0 MSTORE PUSH2 0x1D0 PUSH1 0x20 MSTORE PUSH2 0x849 DUP6 PUSH1 0x40 PUSH1 0x0 KECCAK256 SWAP1 PUSH1 0xFF DUP1 NOT DUP4 SLOAD AND SWAP2 ISZERO ISZERO AND OR SWAP1 SSTORE JUMP JUMPDEST ADD PUSH2 0x7C9 JUMP JUMPDEST PUSH1 0x40 MLOAD PUSH3 0x461BCD PUSH1 0xE5 SHL DUP2 MSTORE PUSH1 0x20 PUSH1 0x4 DUP3 ADD MSTORE PUSH1 0x15 PUSH1 0x24 DUP3 ADD MSTORE PUSH21 0x109B1858DADB1A5CDD081B9BDD08195B98589B1959 PUSH1 0x5A SHL PUSH1 0x44 DUP3 ADD MSTORE PUSH1 0x64 SWAP1 REVERT JUMPDEST CALLVALUE PUSH2 0x284 JUMPI PUSH2 0x89A CALLDATASIZE PUSH2 0x23F8 JUMP JUMPDEST SWAP2 PUSH2 0x8A3 PUSH2 0x2AED JUMP JUMPDEST PUSH1 0xFF PUSH2 0x1CA SLOAD AND ISZERO PUSH2 0x92E JUMPI PUSH1 0x0 JUMPDEST DUP3 DUP2 LT PUSH2 0x8EB JUMPI POP PUSH2 0x802 PUSH32 0xA091D95AA3F4B3529E12C57E1E9E10580EDDE8A7AC6FD51DD3C8E824C332DBE0 SWAP4 PUSH1 0x40 MLOAD SWAP4 DUP5 SWAP4 DUP5 PUSH2 0x263B JUMP JUMPDEST PUSH1 0x1 SWAP1 PUSH1 0x1 PUSH1 0x1 PUSH1 0xA0 SHL SUB PUSH2 0x904 PUSH2 0x820 DUP4 DUP8 DUP8 PUSH2 0x2615 JUMP JUMPDEST AND PUSH1 0x0 MSTORE PUSH2 0x1CC PUSH1 0x20 MSTORE PUSH2 0x928 DUP6 PUSH1 0x40 PUSH1 0x0 KECCAK256 SWAP1 PUSH1 0xFF DUP1 NOT DUP4 SLOAD AND SWAP2 ISZERO ISZERO AND OR SWAP1 SSTORE JUMP JUMPDEST ADD PUSH2 0x8B2 JUMP JUMPDEST PUSH1 0x40 MLOAD PUSH3 0x461BCD PUSH1 0xE5 SHL DUP2 MSTORE PUSH1 0x20 PUSH1 0x4 DUP3 ADD MSTORE PUSH1 0x15 PUSH1 0x24 DUP3 ADD MSTORE PUSH21 0x15DA1A5D195B1A5CDD081B9BDD08195B98589B1959 PUSH1 0x5A SHL PUSH1 0x44 DUP3 ADD MSTORE PUSH1 0x64 SWAP1 REVERT JUMPDEST CALLVALUE PUSH2 0x284 JUMPI PUSH1 0x40 CALLDATASIZE PUSH1 0x3 NOT ADD SLT PUSH2 0x284 JUMPI PUSH2 0x991 PUSH2 0x987 PUSH2 0x233B JUMP JUMPDEST PUSH1 0x24 CALLDATALOAD SWAP1 CALLER PUSH2 0x2830 JUMP JUMPDEST PUSH1 0x20 PUSH1 0x40 MLOAD PUSH1 0x1 DUP2 MSTORE RETURN JUMPDEST CALLVALUE PUSH2 0x284 JUMPI PUSH1 0x40 CALLDATASIZE PUSH1 0x3 NOT ADD SLT PUSH2 0x284 JUMPI PUSH2 0x9B5 PUSH2 0x233B JUMP JUMPDEST PUSH1 0x24 CALLDATALOAD SWAP1 CALLER PUSH1 0x0 MSTORE PUSH1 0x34 PUSH1 0x20 MSTORE PUSH1 0x40 PUSH1 0x0 KECCAK256 PUSH1 0x1 DUP1 PUSH1 0xA0 SHL SUB DUP3 AND PUSH1 0x0 MSTORE PUSH1 0x20 MSTORE PUSH1 0x40 PUSH1 0x0 KECCAK256 SLOAD SWAP2 DUP1 DUP4 LT PUSH2 0x9F0 JUMPI PUSH2 0x991 SWAP3 SUB SWAP1 CALLER PUSH2 0x2696 JUMP JUMPDEST PUSH1 0x40 MLOAD PUSH3 0x461BCD PUSH1 0xE5 SHL DUP2 MSTORE PUSH1 0x20 PUSH1 0x4 DUP3 ADD MSTORE PUSH1 0x25 PUSH1 0x24 DUP3 ADD MSTORE PUSH32 0x45524332303A2064656372656173656420616C6C6F77616E63652062656C6F77 PUSH1 0x44 DUP3 ADD MSTORE PUSH5 0x207A65726F PUSH1 0xD8 SHL PUSH1 0x64 DUP3 ADD MSTORE PUSH1 0x84 SWAP1 REVERT JUMPDEST CALLVALUE PUSH2 0x284 JUMPI PUSH1 0x20 CALLDATASIZE PUSH1 0x3 NOT ADD SLT PUSH2 0x284 JUMPI PUSH1 0x1 PUSH1 0x1 PUSH1 0xA0 SHL SUB PUSH2 0xA64 PUSH2 0x233B JUMP JUMPDEST AND PUSH1 0x0 MSTORE PUSH2 0x1CC PUSH1 0x20 MSTORE PUSH1 0x20 PUSH1 0xFF PUSH1 0x40 PUSH1 0x0 KECCAK256 SLOAD AND PUSH1 0x40 MLOAD SWAP1 ISZERO ISZERO DUP2 MSTORE RETURN JUMPDEST CALLVALUE PUSH2 0x284 JUMPI PUSH1 0x0 CALLDATASIZE PUSH1 0x3 NOT ADD SLT PUSH2 0x284 JUMPI PUSH1 0x40 MLOAD PUSH1 0x0 PUSH1 0x37 SLOAD PUSH2 0xAA5 DUP2 PUSH2 0x2452 JUMP JUMPDEST DUP1 DUP5 MSTORE SWAP1 PUSH1 0x20 SWAP1 PUSH1 0x1 SWAP1 DUP2 DUP2 AND SWAP1 DUP2 ISZERO PUSH2 0xB26 JUMPI POP PUSH1 0x1 EQ PUSH2 0xADE JUMPI JUMPDEST PUSH2 0x26A DUP6 PUSH2 0xAD2 DUP2 DUP8 SUB DUP3 PUSH2 0x2383 JUMP JUMPDEST PUSH1 0x40 MLOAD SWAP2 DUP3 SWAP2 DUP3 PUSH2 0x22F2 JUMP JUMPDEST PUSH1 0x37 PUSH1 0x0 SWAP1 DUP2 MSTORE SWAP4 POP PUSH1 0x0 DUP1 MLOAD PUSH1 0x20 PUSH2 0x3205 DUP4 CODECOPY DUP2 MLOAD SWAP2 MSTORE JUMPDEST DUP4 DUP6 LT PUSH2 0xB13 JUMPI POP POP POP POP DUP2 ADD PUSH1 0x20 ADD PUSH2 0xAD2 DUP3 PUSH2 0x26A PUSH2 0xAC2 JUMP JUMPDEST DUP1 SLOAD DUP7 DUP7 ADD DUP5 ADD MSTORE SWAP4 DUP3 ADD SWAP4 DUP2 ADD PUSH2 0xAF7 JUMP JUMPDEST DUP7 SWAP6 POP PUSH2 0x26A SWAP7 SWAP4 POP PUSH1 0x20 SWAP3 POP PUSH2 0xAD2 SWAP5 SWAP2 POP PUSH1 0xFF NOT AND DUP3 DUP5 ADD MSTORE ISZERO ISZERO PUSH1 0x5 SHL DUP3 ADD ADD SWAP3 SWAP4 PUSH2 0xAC2 JUMP JUMPDEST CALLVALUE PUSH2 0x284 JUMPI PUSH1 0x3 NOT PUSH1 0x20 CALLDATASIZE DUP3 ADD SLT PUSH2 0x284 JUMPI PUSH8 0xFFFFFFFFFFFFFFFF PUSH1 0x4 CALLDATALOAD GT PUSH2 0x284 JUMPI PUSH2 0x240 PUSH1 0x4 CALLDATALOAD PUSH1 0x4 ADD SWAP2 PUSH1 0x4 CALLDATALOAD CALLDATASIZE SUB ADD SLT PUSH2 0x284 JUMPI PUSH1 0x0 SLOAD PUSH1 0xFF DUP2 PUSH1 0x8 SHR AND ISZERO SWAP1 DUP2 DUP1 SWAP3 PUSH2 0x1342 JUMPI JUMPDEST DUP1 ISZERO PUSH2 0x132B JUMPI JUMPDEST ISZERO PUSH2 0x12CF JUMPI PUSH1 0xFF NOT DUP2 AND PUSH1 0x1 OR PUSH1 0x0 SSTORE DUP2 PUSH2 0x12BD JUMPI JUMPDEST POP PUSH2 0xBEE PUSH2 0xBDC PUSH2 0xBE6 PUSH2 0xBCD DUP6 DUP1 PUSH2 0x25C1 JUMP JUMPDEST SWAP3 SWAP1 SWAP6 PUSH1 0x24 PUSH1 0x4 CALLDATALOAD ADD SWAP1 PUSH2 0x25C1 JUMP JUMPDEST SWAP6 SWAP1 SWAP3 CALLDATASIZE SWAP2 PUSH2 0x23C1 JUMP JUMPDEST SWAP4 CALLDATASIZE SWAP2 PUSH2 0x23C1 JUMP JUMPDEST SWAP1 PUSH2 0xC09 PUSH1 0xFF PUSH1 0x0 SLOAD PUSH1 0x8 SHR AND PUSH2 0xC04 DUP2 PUSH2 0x303F JUMP JUMPDEST PUSH2 0x303F JUMP JUMPDEST DUP3 MLOAD PUSH8 0xFFFFFFFFFFFFFFFF DUP2 GT PUSH2 0x26E JUMPI PUSH2 0xC25 PUSH1 0x36 SLOAD PUSH2 0x2452 JUMP JUMPDEST PUSH1 0x1F DUP2 GT PUSH2 0x1254 JUMPI JUMPDEST POP PUSH1 0x20 PUSH1 0x1F DUP3 GT PUSH1 0x1 EQ PUSH2 0x11E0 JUMPI DUP2 SWAP3 SWAP4 SWAP5 PUSH1 0x0 SWAP3 PUSH2 0x11D5 JUMPI JUMPDEST POP POP DUP2 PUSH1 0x1 SHL SWAP2 PUSH1 0x0 NOT SWAP1 PUSH1 0x3 SHL SHR NOT AND OR PUSH1 0x36 SSTORE JUMPDEST DUP2 MLOAD PUSH8 0xFFFFFFFFFFFFFFFF DUP2 GT PUSH2 0x26E JUMPI PUSH2 0xC7A PUSH1 0x37 SLOAD PUSH2 0x2452 JUMP JUMPDEST PUSH1 0x1F DUP2 GT PUSH2 0x1168 JUMPI JUMPDEST POP PUSH1 0x20 SWAP3 PUSH1 0x1F DUP3 GT PUSH1 0x1 EQ PUSH2 0x10F8 JUMPI SWAP3 DUP2 SWAP3 SWAP4 PUSH1 0x0 SWAP3 PUSH2 0x10ED JUMPI JUMPDEST POP POP DUP2 PUSH1 0x1 SHL SWAP2 PUSH1 0x0 NOT SWAP1 PUSH1 0x3 SHL SHR NOT AND OR PUSH1 0x37 SSTORE JUMPDEST PUSH2 0xCEE PUSH1 0xFF PUSH1 0x0 SLOAD PUSH1 0x8 SHR AND PUSH2 0xCC9 DUP2 PUSH2 0x303F JUMP JUMPDEST PUSH2 0xCD2 DUP2 PUSH2 0x303F JUMP JUMPDEST PUSH2 0xCDB DUP2 PUSH2 0x303F JUMP JUMPDEST PUSH1 0xFF NOT PUSH1 0x97 SLOAD AND PUSH1 0x97 SSTORE PUSH2 0xC04 DUP2 PUSH2 0x303F JUMP JUMPDEST PUSH2 0xCF7 CALLER PUSH2 0x2D9C JUMP JUMPDEST PUSH2 0xD20 PUSH1 0xFF PUSH1 0x0 SLOAD PUSH1 0x8 SHR AND PUSH2 0xD0C DUP2 PUSH2 0x303F JUMP JUMPDEST PUSH2 0xD15 DUP2 PUSH2 0x303F JUMP JUMPDEST PUSH1 0x1 PUSH2 0x191 SSTORE PUSH2 0x303F JUMP JUMPDEST PUSH1 0x64 PUSH1 0x4 CALLDATALOAD ADD CALLDATALOAD PUSH1 0x44 PUSH1 0x4 CALLDATALOAD ADD CALLDATALOAD DUP2 LT PUSH2 0x109C JUMPI TIMESTAMP PUSH2 0x164 PUSH1 0x4 CALLDATALOAD ADD CALLDATALOAD GT ISZERO PUSH2 0x1057 JUMPI PUSH2 0x164 PUSH1 0x4 CALLDATALOAD ADD CALLDATALOAD PUSH2 0x184 PUSH1 0x4 CALLDATALOAD ADD CALLDATALOAD GT ISZERO PUSH2 0x1008 JUMPI PUSH2 0x1CE SSTORE PUSH2 0xD6B PUSH1 0xA4 PUSH1 0x4 CALLDATALOAD ADD PUSH2 0x25F4 JUMP JUMPDEST ISZERO ISZERO PUSH2 0x1CF SWAP1 DUP2 SLOAD PUSH1 0xFF PUSH2 0xFF00 PUSH2 0xD86 PUSH1 0xC4 PUSH1 0x4 CALLDATALOAD ADD PUSH2 0x25F4 JUMP JUMPDEST ISZERO ISZERO PUSH1 0x8 SHL AND SWAP3 AND SWAP1 PUSH2 0xFFFF NOT AND OR OR SWAP1 SSTORE PUSH1 0x1 DUP1 PUSH1 0xA0 SHL SUB PUSH2 0xDAE PUSH2 0x1A4 PUSH1 0x4 CALLDATALOAD ADD PUSH2 0x2601 JUMP JUMPDEST AND PUSH2 0x1D2 SWAP1 PUSH12 0xFFFFFFFFFFFFFFFFFFFFFFFF PUSH1 0xA0 SHL DUP3 SLOAD AND OR SWAP1 SSTORE PUSH2 0x1C4 PUSH1 0x4 CALLDATALOAD ADD CALLDATALOAD PUSH2 0x1D3 SSTORE PUSH2 0xDE4 PUSH2 0x1E4 PUSH1 0x4 CALLDATALOAD ADD PUSH2 0x25F4 JUMP JUMPDEST ISZERO ISZERO PUSH2 0x1D4 SWAP1 PUSH1 0xFF DUP1 NOT DUP4 SLOAD AND SWAP2 AND OR SWAP1 SSTORE PUSH2 0x204 PUSH1 0x4 CALLDATALOAD ADD CALLDATALOAD PUSH2 0x1D5 SSTORE PUSH2 0x224 PUSH1 0x4 CALLDATALOAD ADD CALLDATALOAD PUSH2 0x1D6 SSTORE PUSH1 0x40 MLOAD DUP1 PUSH2 0x140 DUP2 ADD LT PUSH8 0xFFFFFFFFFFFFFFFF PUSH2 0x140 DUP4 ADD GT OR PUSH2 0x26E JUMPI PUSH2 0x140 DUP2 ADD PUSH1 0x40 SWAP1 DUP2 MSTORE PUSH1 0x4 CALLDATALOAD PUSH2 0x144 DUP2 ADD CALLDATALOAD PUSH1 0x1 DUP2 SWAP1 SHR DUP1 DUP6 MSTORE PUSH1 0x20 DUP6 ADD DUP3 SWAP1 MSTORE PUSH2 0x104 DUP4 ADD CALLDATALOAD SWAP4 DUP6 ADD DUP5 SWAP1 MSTORE PUSH2 0x124 DUP4 ADD CALLDATALOAD PUSH1 0x60 DUP7 ADD DUP2 SWAP1 MSTORE PUSH2 0x164 DUP5 ADD CALLDATALOAD PUSH1 0x80 DUP8 ADD DUP2 SWAP1 MSTORE PUSH2 0x184 DUP6 ADD CALLDATALOAD PUSH1 0xA0 DUP1 DUP10 ADD DUP3 SWAP1 MSTORE PUSH1 0xE4 DUP8 ADD CALLDATALOAD PUSH1 0xC0 DUP11 ADD DUP2 SWAP1 MSTORE PUSH1 0x0 PUSH1 0xE0 DUP12 ADD DUP2 SWAP1 MSTORE PUSH2 0x100 DUP12 ADD DUP2 SWAP1 MSTORE PUSH2 0x120 SWAP11 SWAP1 SWAP11 ADD DUP11 SWAP1 MSTORE PUSH2 0x1C3 SWAP6 DUP7 SSTORE PUSH2 0x1C4 SWAP7 SWAP1 SWAP7 SSTORE PUSH2 0x1C5 SWAP8 SWAP1 SWAP8 SSTORE PUSH2 0x1C6 SWAP3 SWAP1 SWAP3 SSTORE PUSH2 0x1C7 SSTORE PUSH2 0x1C8 SSTORE PUSH2 0x1C9 SWAP2 SWAP1 SWAP2 SSTORE PUSH2 0x1CA DUP1 SLOAD PUSH2 0xFFFF NOT AND SWAP1 SSTORE PUSH2 0x1CB SWAP4 SWAP1 SWAP4 SSTORE PUSH32 0x363312020DBBA28EB1464EC7D5F963EBE389E1B00DAB8DD54D46E2E2F2E63261 SWAP3 SWAP1 PUSH2 0xF24 SWAP1 PUSH1 0x44 DUP2 ADD CALLDATALOAD SWAP1 PUSH2 0xF1F SWAP1 PUSH1 0x84 ADD PUSH2 0x2601 JUMP JUMPDEST PUSH2 0x2E6E JUMP JUMPDEST PUSH2 0x1C4 PUSH1 0x4 CALLDATALOAD ADD CALLDATALOAD ISZERO ISZERO DUP1 PUSH2 0xFEA JUMPI JUMPDEST PUSH2 0xFAE JUMPI JUMPDEST SLOAD PUSH2 0x1C4 SLOAD PUSH1 0x40 MLOAD SWAP2 DUP3 MSTORE PUSH1 0x20 DUP3 ADD MSTORE PUSH2 0x164 PUSH1 0x4 CALLDATALOAD ADD CALLDATALOAD PUSH1 0x40 DUP3 ADD MSTORE PUSH2 0x184 PUSH1 0x4 CALLDATALOAD ADD CALLDATALOAD PUSH1 0x60 DUP3 ADD MSTORE PUSH1 0xE4 PUSH1 0x4 CALLDATALOAD ADD CALLDATALOAD PUSH1 0x80 DUP3 ADD MSTORE LOG1 PUSH2 0xF76 JUMPI STOP JUMPDEST PUSH2 0xFF00 NOT PUSH1 0x0 SLOAD AND PUSH1 0x0 SSTORE PUSH32 0x7F26B83FF96E1F2B6A682F133852F6798A09C465DA95921460CEFB3847402498 PUSH1 0x20 PUSH1 0x40 MLOAD PUSH1 0x1 DUP2 MSTORE LOG1 STOP JUMPDEST PUSH2 0xFBD PUSH2 0x1E4 PUSH1 0x4 CALLDATALOAD ADD PUSH2 0x25F4 JUMP JUMPDEST PUSH2 0xFE0 JUMPI PUSH2 0xFDB PUSH2 0x1C4 PUSH1 0x4 CALLDATALOAD ADD CALLDATALOAD PUSH2 0xF1F PUSH2 0x1A4 PUSH1 0x4 CALLDATALOAD ADD PUSH2 0x2601 JUMP JUMPDEST PUSH2 0xF39 JUMP JUMPDEST TIMESTAMP PUSH2 0x1D7 SSTORE PUSH2 0xF39 JUMP JUMPDEST POP PUSH1 0x1 DUP1 DUP4 SHL SUB PUSH2 0x1000 PUSH2 0x1A4 PUSH1 0x4 CALLDATALOAD ADD PUSH2 0x2601 JUMP JUMPDEST AND ISZERO ISZERO PUSH2 0xF34 JUMP JUMPDEST PUSH1 0x40 MLOAD PUSH3 0x461BCD PUSH1 0xE5 SHL DUP2 MSTORE PUSH1 0x20 PUSH1 0x4 DUP3 ADD MSTORE PUSH1 0x21 PUSH1 0x24 DUP3 ADD MSTORE PUSH32 0x456E642074696D65206D7573742062652061667465722073746172742074696D PUSH1 0x44 DUP3 ADD MSTORE PUSH1 0x65 PUSH1 0xF8 SHL PUSH1 0x64 DUP3 ADD MSTORE PUSH1 0x84 SWAP1 REVERT JUMPDEST PUSH1 0x40 MLOAD PUSH3 0x461BCD PUSH1 0xE5 SHL DUP2 MSTORE PUSH1 0x20 PUSH1 0x4 DUP3 ADD MSTORE PUSH1 0x1C PUSH1 0x24 DUP3 ADD MSTORE PUSH32 0x53746172742074696D65206D75737420626520696E2066757475726500000000 PUSH1 0x44 DUP3 ADD MSTORE PUSH1 0x64 SWAP1 REVERT JUMPDEST PUSH1 0x40 MLOAD PUSH3 0x461BCD PUSH1 0xE5 SHL DUP2 MSTORE PUSH1 0x20 PUSH1 0x4 DUP3 ADD MSTORE PUSH1 0x24 DUP1 DUP3 ADD MSTORE PUSH32 0x4D617820737570706C79206D757374206265203E3D20696E697469616C207375 PUSH1 0x44 DUP3 ADD MSTORE PUSH4 0x70706C79 PUSH1 0xE0 SHL PUSH1 0x64 DUP3 ADD MSTORE PUSH1 0x84 SWAP1 REVERT JUMPDEST ADD MLOAD SWAP1 POP DUP4 DUP1 PUSH2 0xC9E JUMP JUMPDEST PUSH1 0x1F NOT DUP3 AND SWAP4 PUSH1 0x37 PUSH1 0x0 MSTORE PUSH1 0x0 DUP1 MLOAD PUSH1 0x20 PUSH2 0x3205 DUP4 CODECOPY DUP2 MLOAD SWAP2 MSTORE SWAP2 PUSH1 0x0 JUMPDEST DUP7 DUP2 LT PUSH2 0x1150 JUMPI POP DUP4 PUSH1 0x1 SWAP6 SWAP7 LT PUSH2 0x1137 JUMPI JUMPDEST POP POP POP DUP2 SHL ADD PUSH1 0x37 SSTORE PUSH2 0xCB4 JUMP JUMPDEST ADD MLOAD PUSH1 0x0 NOT PUSH1 0xF8 DUP5 PUSH1 0x3 SHL AND SHR NOT AND SWAP1 SSTORE DUP4 DUP1 DUP1 PUSH2 0x1129 JUMP JUMPDEST SWAP2 SWAP3 PUSH1 0x20 PUSH1 0x1 DUP2 SWAP3 DUP7 DUP6 ADD MLOAD DUP2 SSTORE ADD SWAP5 ADD SWAP3 ADD PUSH2 0x1116 JUMP JUMPDEST PUSH1 0x37 PUSH1 0x0 MSTORE PUSH1 0x1F DUP3 ADD PUSH1 0x5 SHR PUSH1 0x0 DUP1 MLOAD PUSH1 0x20 PUSH2 0x3205 DUP4 CODECOPY DUP2 MLOAD SWAP2 MSTORE ADD SWAP1 PUSH1 0x20 DUP4 LT PUSH2 0x11BF JUMPI JUMPDEST PUSH1 0x1F ADD PUSH1 0x5 SHR PUSH1 0x0 DUP1 MLOAD PUSH1 0x20 PUSH2 0x3205 DUP4 CODECOPY DUP2 MLOAD SWAP2 MSTORE ADD SWAP1 JUMPDEST DUP2 DUP2 LT PUSH2 0x11B3 JUMPI POP PUSH2 0xC83 JUMP JUMPDEST PUSH1 0x0 DUP2 SSTORE PUSH1 0x1 ADD PUSH2 0x11A6 JUMP JUMPDEST PUSH1 0x0 DUP1 MLOAD PUSH1 0x20 PUSH2 0x3205 DUP4 CODECOPY DUP2 MLOAD SWAP2 MSTORE SWAP2 POP PUSH2 0x118E JUMP JUMPDEST ADD MLOAD SWAP1 POP DUP5 DUP1 PUSH2 0xC48 JUMP JUMPDEST PUSH1 0x36 PUSH1 0x0 MSTORE PUSH1 0x0 DUP1 MLOAD PUSH1 0x20 PUSH2 0x31C5 DUP4 CODECOPY DUP2 MLOAD SWAP2 MSTORE SWAP1 PUSH1 0x0 JUMPDEST PUSH1 0x1F NOT DUP5 AND DUP2 LT PUSH2 0x123C JUMPI POP PUSH1 0x1 SWAP4 SWAP5 SWAP6 DUP4 PUSH1 0x1F NOT DUP2 AND LT PUSH2 0x1223 JUMPI JUMPDEST POP POP POP DUP2 SHL ADD PUSH1 0x36 SSTORE PUSH2 0xC5E JUMP JUMPDEST ADD MLOAD PUSH1 0x0 NOT PUSH1 0xF8 DUP5 PUSH1 0x3 SHL AND SHR NOT AND SWAP1 SSTORE DUP5 DUP1 DUP1 PUSH2 0x1215 JUMP JUMPDEST SWAP1 SWAP2 PUSH1 0x20 PUSH1 0x1 DUP2 SWAP3 DUP6 DUP11 ADD MLOAD DUP2 SSTORE ADD SWAP4 ADD SWAP2 ADD PUSH2 0x11F8 JUMP JUMPDEST PUSH1 0x36 PUSH1 0x0 MSTORE PUSH1 0x1F DUP3 ADD PUSH1 0x5 SHR PUSH1 0x0 DUP1 MLOAD PUSH1 0x20 PUSH2 0x31C5 DUP4 CODECOPY DUP2 MLOAD SWAP2 MSTORE ADD PUSH1 0x20 DUP4 LT PUSH2 0x12A8 JUMPI JUMPDEST PUSH1 0x1F DUP3 ADD PUSH1 0x5 SHR PUSH1 0x0 DUP1 MLOAD PUSH1 0x20 PUSH2 0x31C5 DUP4 CODECOPY DUP2 MLOAD SWAP2 MSTORE ADD DUP2 LT PUSH2 0x129C JUMPI POP PUSH2 0xC2E JUMP JUMPDEST PUSH1 0x0 DUP2 SSTORE PUSH1 0x1 ADD PUSH2 0x1279 JUMP JUMPDEST POP PUSH1 0x0 DUP1 MLOAD PUSH1 0x20 PUSH2 0x31C5 DUP4 CODECOPY DUP2 MLOAD SWAP2 MSTORE PUSH2 0x1279 JUMP JUMPDEST PUSH2 0xFFFF NOT AND PUSH2 0x101 OR PUSH1 0x0 SSTORE DUP3 PUSH2 0xBB9 JUMP JUMPDEST PUSH1 0x40 MLOAD PUSH3 0x461BCD PUSH1 0xE5 SHL DUP2 MSTORE PUSH1 0x20 PUSH1 0x4 DUP3 ADD MSTORE PUSH1 0x2E PUSH1 0x24 DUP3 ADD MSTORE PUSH32 0x496E697469616C697A61626C653A20636F6E747261637420697320616C726561 PUSH1 0x44 DUP3 ADD MSTORE PUSH14 0x191E481A5B9A5D1A585B1A5E9959 PUSH1 0x92 SHL PUSH1 0x64 DUP3 ADD MSTORE PUSH1 0x84 SWAP1 REVERT JUMPDEST POP ADDRESS EXTCODESIZE ISZERO DUP1 ISZERO PUSH2 0xBA3 JUMPI POP PUSH1 0x1 PUSH1 0xFF DUP3 AND EQ PUSH2 0xBA3 JUMP JUMPDEST POP PUSH1 0x1 PUSH1 0xFF DUP3 AND LT PUSH2 0xB9C JUMP JUMPDEST CALLVALUE PUSH2 0x284 JUMPI PUSH1 0x0 CALLDATASIZE PUSH1 0x3 NOT ADD SLT PUSH2 0x284 JUMPI PUSH1 0xFB SLOAD PUSH1 0x40 MLOAD PUSH1 0x1 PUSH1 0x1 PUSH1 0xA0 SHL SUB SWAP1 SWAP2 AND DUP2 MSTORE PUSH1 0x20 SWAP1 RETURN JUMPDEST CALLVALUE PUSH2 0x284 JUMPI PUSH1 0x0 CALLDATASIZE PUSH1 0x3 NOT ADD SLT PUSH2 0x284 JUMPI PUSH2 0x1391 PUSH2 0x2D45 JUMP JUMPDEST PUSH2 0x1D2 SLOAD PUSH1 0x1 PUSH1 0x1 PUSH1 0xA0 SHL SUB AND CALLER DUP2 SWAP1 SUB PUSH2 0x14E4 JUMPI PUSH1 0xFF PUSH2 0x1D4 SLOAD AND ISZERO PUSH2 0x14A9 JUMPI PUSH2 0x13C3 PUSH2 0x1D7 SLOAD PUSH2 0x1D6 SLOAD SWAP1 PUSH2 0x254E JUMP JUMPDEST TIMESTAMP LT PUSH2 0x146B JUMPI PUSH2 0x13D1 PUSH2 0x2DE5 JUMP JUMPDEST SWAP1 PUSH2 0x1D8 PUSH2 0x13E1 DUP2 SLOAD DUP1 SWAP5 PUSH2 0x25B4 JUMP JUMPDEST SWAP1 DUP2 ISZERO PUSH2 0x1431 JUMPI DUP2 PUSH1 0x20 SWAP4 PUSH2 0x1422 SWAP3 PUSH2 0x141B DUP4 PUSH32 0xBC7EC4F43CC9D06C3FC2804E1BC7FB4C5463C361795D54400CE36256AD1B2BA8 SWAP9 PUSH2 0x254E JUMP JUMPDEST SWAP1 SSTORE PUSH2 0x2E6E JUMP JUMPDEST PUSH1 0x40 MLOAD SWAP1 DUP2 MSTORE LOG1 PUSH1 0x1 PUSH2 0x191 SSTORE STOP JUMPDEST PUSH1 0x40 MLOAD PUSH3 0x461BCD PUSH1 0xE5 SHL DUP2 MSTORE PUSH1 0x20 PUSH1 0x4 DUP3 ADD MSTORE PUSH1 0x12 PUSH1 0x24 DUP3 ADD MSTORE PUSH18 0x4E6F20746F6B656E7320746F20636C61696D PUSH1 0x70 SHL PUSH1 0x44 DUP3 ADD MSTORE PUSH1 0x64 SWAP1 REVERT JUMPDEST PUSH1 0x40 MLOAD PUSH3 0x461BCD PUSH1 0xE5 SHL DUP2 MSTORE PUSH1 0x20 PUSH1 0x4 DUP3 ADD MSTORE PUSH1 0x16 PUSH1 0x24 DUP3 ADD MSTORE PUSH22 0x10DB1A5999881C195C9A5BD9081B9BDD08195B991959 PUSH1 0x52 SHL PUSH1 0x44 DUP3 ADD MSTORE PUSH1 0x64 SWAP1 REVERT JUMPDEST PUSH1 0x40 MLOAD PUSH3 0x461BCD PUSH1 0xE5 SHL DUP2 MSTORE PUSH1 0x20 PUSH1 0x4 DUP3 ADD MSTORE PUSH1 0x13 PUSH1 0x24 DUP3 ADD MSTORE PUSH19 0x15995CDD1A5B99C81B9BDD08195B98589B1959 PUSH1 0x6A SHL PUSH1 0x44 DUP3 ADD MSTORE PUSH1 0x64 SWAP1 REVERT JUMPDEST PUSH1 0x40 MLOAD PUSH3 0x461BCD PUSH1 0xE5 SHL DUP2 MSTORE PUSH1 0x20 PUSH1 0x4 DUP3 ADD MSTORE PUSH1 0x11 PUSH1 0x24 DUP3 ADD MSTORE PUSH17 0x139BDD08199959481C9958DA5C1A595B9D PUSH1 0x7A SHL PUSH1 0x44 DUP3 ADD MSTORE PUSH1 0x64 SWAP1 REVERT JUMPDEST CALLVALUE PUSH2 0x284 JUMPI PUSH1 0x0 CALLDATASIZE PUSH1 0x3 NOT ADD SLT PUSH2 0x284 JUMPI PUSH2 0x1536 PUSH2 0x2AED JUMP JUMPDEST PUSH1 0x97 SLOAD PUSH1 0xFF DUP2 AND PUSH2 0x1578 JUMPI PUSH1 0x1 SWAP1 PUSH1 0xFF NOT AND OR PUSH1 0x97 SSTORE PUSH32 0x62E78CEA01BEE320CD4E420270B5EA74000D11B0C9F74754EBDBFC544B05A258 PUSH1 0x20 PUSH1 0x40 MLOAD CALLER DUP2 MSTORE LOG1 STOP JUMPDEST PUSH1 0x40 MLOAD PUSH3 0x461BCD PUSH1 0xE5 SHL DUP2 MSTORE PUSH1 0x20 PUSH1 0x4 DUP3 ADD MSTORE PUSH1 0x10 PUSH1 0x24 DUP3 ADD MSTORE PUSH16 0x14185D5CD8589B194E881C185D5CD959 PUSH1 0x82 SHL PUSH1 0x44 DUP3 ADD MSTORE PUSH1 0x64 SWAP1 REVERT JUMPDEST CALLVALUE PUSH2 0x284 JUMPI PUSH1 0x20 CALLDATASIZE PUSH1 0x3 NOT ADD SLT PUSH2 0x284 JUMPI PUSH1 0x1 PUSH1 0x1 PUSH1 0xA0 SHL SUB PUSH2 0x15D1 PUSH2 0x233B JUMP JUMPDEST AND PUSH1 0x0 MSTORE PUSH2 0x1D1 PUSH1 0x20 MSTORE PUSH1 0x20 PUSH1 0x40 PUSH1 0x0 KECCAK256 SLOAD PUSH1 0x40 MLOAD SWAP1 DUP2 MSTORE RETURN JUMPDEST CALLVALUE PUSH2 0x284 JUMPI PUSH1 0x40 CALLDATASIZE PUSH1 0x3 NOT ADD SLT PUSH2 0x284 JUMPI PUSH2 0x326 PUSH2 0x1607 PUSH2 0x233B JUMP JUMPDEST PUSH1 0x24 CALLDATALOAD SWAP1 PUSH2 0x1616 DUP3 CALLER DUP4 PUSH2 0x2798 JUMP JUMPDEST PUSH2 0x2B45 JUMP JUMPDEST CALLVALUE PUSH2 0x284 JUMPI PUSH1 0x0 CALLDATASIZE PUSH1 0x3 NOT ADD SLT PUSH2 0x284 JUMPI PUSH2 0x1634 PUSH2 0x2AED JUMP JUMPDEST PUSH1 0xFB DUP1 SLOAD PUSH1 0x1 PUSH1 0x1 PUSH1 0xA0 SHL SUB NOT DUP2 AND SWAP1 SWAP2 SSTORE PUSH1 0x0 SWAP1 PUSH1 0x1 PUSH1 0x1 PUSH1 0xA0 SHL SUB AND PUSH32 0x8BE0079C531659141344CD1FD0A4F28419497F9722A3DAAFE3B4186F6B6457E0 DUP3 DUP1 LOG3 STOP JUMPDEST CALLVALUE PUSH2 0x284 JUMPI PUSH1 0x20 CALLDATASIZE PUSH1 0x3 NOT ADD SLT PUSH2 0x284 JUMPI PUSH1 0x1 PUSH1 0x1 PUSH1 0xA0 SHL SUB PUSH2 0x1699 PUSH2 0x233B JUMP JUMPDEST AND PUSH1 0x0 MSTORE PUSH1 0x33 PUSH1 0x20 MSTORE PUSH1 0x20 PUSH1 0x40 PUSH1 0x0 KECCAK256 SLOAD PUSH1 0x40 MLOAD SWAP1 DUP2 MSTORE RETURN JUMPDEST CALLVALUE PUSH2 0x284 JUMPI PUSH1 0x0 CALLDATASIZE PUSH1 0x3 NOT ADD SLT PUSH2 0x284 JUMPI PUSH1 0x20 PUSH2 0x1D3 SLOAD PUSH1 0x40 MLOAD SWAP1 DUP2 MSTORE RETURN JUMPDEST CALLVALUE PUSH2 0x284 JUMPI PUSH1 0x40 CALLDATASIZE PUSH1 0x3 NOT ADD SLT PUSH2 0x284 JUMPI PUSH2 0x16EA PUSH2 0x233B JUMP JUMPDEST PUSH1 0x24 CALLDATALOAD PUSH2 0x16F5 PUSH2 0x2AED JUMP JUMPDEST PUSH1 0xFF PUSH2 0x1CF SLOAD PUSH1 0x8 SHR AND ISZERO PUSH2 0x17A8 JUMPI TIMESTAMP DUP2 GT ISZERO PUSH2 0x1763 JUMPI PUSH1 0x1 PUSH1 0x1 PUSH1 0xA0 SHL SUB SWAP1 SWAP2 AND PUSH1 0x0 DUP2 DUP2 MSTORE PUSH2 0x1D1 PUSH1 0x20 SWAP1 DUP2 MSTORE PUSH1 0x40 SWAP2 DUP3 SWAP1 KECCAK256 DUP5 SWAP1 SSTORE DUP2 MLOAD SWAP3 DUP4 MSTORE DUP3 ADD SWAP3 SWAP1 SWAP3 MSTORE PUSH32 0xA9353E70F07F31E7F4E16464F45E189CBD22826780A5ABE4DA8303652A86960A SWAP2 DUP2 SWAP1 DUP2 ADD PUSH2 0x802 JUMP JUMPDEST PUSH1 0x40 MLOAD PUSH3 0x461BCD PUSH1 0xE5 SHL DUP2 MSTORE PUSH1 0x20 PUSH1 0x4 DUP3 ADD MSTORE PUSH1 0x1D PUSH1 0x24 DUP3 ADD MSTORE PUSH32 0x556E6C6F636B2074696D65206D75737420626520696E20667574757265000000 PUSH1 0x44 DUP3 ADD MSTORE PUSH1 0x64 SWAP1 REVERT JUMPDEST PUSH1 0x40 MLOAD PUSH3 0x461BCD PUSH1 0xE5 SHL DUP2 MSTORE PUSH1 0x20 PUSH1 0x4 DUP3 ADD MSTORE PUSH1 0x15 PUSH1 0x24 DUP3 ADD MSTORE PUSH21 0x151A5B59481B1BD8DAC81B9BDD08195B98589B1959 PUSH1 0x5A SHL PUSH1 0x44 DUP3 ADD MSTORE PUSH1 0x64 SWAP1 REVERT JUMPDEST CALLVALUE PUSH2 0x284 JUMPI PUSH1 0x0 CALLDATASIZE PUSH1 0x3 NOT ADD SLT PUSH2 0x284 JUMPI PUSH1 0x20 PUSH2 0x1D8 SLOAD PUSH1 0x40 MLOAD SWAP1 DUP2 MSTORE RETURN JUMPDEST CALLVALUE PUSH2 0x284 JUMPI PUSH1 0x0 CALLDATASIZE PUSH1 0x3 NOT ADD SLT PUSH2 0x284 JUMPI PUSH1 0x20 PUSH1 0xFF PUSH1 0x97 SLOAD AND PUSH1 0x40 MLOAD SWAP1 ISZERO ISZERO DUP2 MSTORE RETURN JUMPDEST CALLVALUE PUSH2 0x284 JUMPI PUSH1 0x0 CALLDATASIZE PUSH1 0x3 NOT ADD SLT PUSH2 0x284 JUMPI PUSH32 0x0 PUSH1 0x1 PUSH1 0x1 PUSH1 0xA0 SHL SUB AND ADDRESS SUB PUSH2 0x1880 JUMPI PUSH1 0x20 PUSH1 0x40 MLOAD PUSH1 0x0 DUP1 MLOAD PUSH1 0x20 PUSH2 0x31E5 DUP4 CODECOPY DUP2 MLOAD SWAP2 MSTORE DUP2 MSTORE RETURN JUMPDEST PUSH1 0x40 MLOAD PUSH3 0x461BCD PUSH1 0xE5 SHL DUP2 MSTORE PUSH1 0x20 PUSH1 0x4 DUP3 ADD MSTORE PUSH1 0x38 PUSH1 0x24 DUP3 ADD MSTORE PUSH32 0x555550535570677261646561626C653A206D757374206E6F742062652063616C PUSH1 0x44 DUP3 ADD MSTORE PUSH32 0x6C6564207468726F7567682064656C656761746563616C6C0000000000000000 PUSH1 0x64 DUP3 ADD MSTORE PUSH1 0x84 SWAP1 REVERT JUMPDEST PUSH1 0x40 CALLDATASIZE PUSH1 0x3 NOT ADD SLT PUSH2 0x284 JUMPI PUSH2 0x18FF PUSH2 0x233B JUMP JUMPDEST PUSH1 0x24 CALLDATALOAD PUSH8 0xFFFFFFFFFFFFFFFF DUP2 GT PUSH2 0x284 JUMPI CALLDATASIZE PUSH1 0x23 DUP3 ADD SLT ISZERO PUSH2 0x284 JUMPI PUSH2 0x1930 SWAP1 CALLDATASIZE SWAP1 PUSH1 0x24 DUP2 PUSH1 0x4 ADD CALLDATALOAD SWAP2 ADD PUSH2 0x23C1 JUMP JUMPDEST SWAP1 PUSH1 0x1 PUSH1 0x1 PUSH1 0xA0 SHL SUB PUSH32 0x0 DUP2 AND SWAP1 PUSH2 0x1969 ADDRESS DUP4 EQ ISZERO PUSH2 0x248C JUMP JUMPDEST PUSH2 0x1986 PUSH1 0x0 DUP1 MLOAD PUSH1 0x20 PUSH2 0x31E5 DUP4 CODECOPY DUP2 MLOAD SWAP2 MSTORE SWAP3 DUP3 DUP5 SLOAD AND EQ PUSH2 0x24ED JUMP JUMPDEST PUSH2 0x198E PUSH2 0x2AED JUMP JUMPDEST PUSH32 0x4910FDFA16FED3260ED0E7147F7CC6DA11A60208B5B9406D12A635614FFD9143 SLOAD PUSH1 0xFF AND ISZERO PUSH2 0x19C4 JUMPI POP POP PUSH2 0x326 SWAP2 POP PUSH2 0x309F JUMP JUMPDEST PUSH1 0x40 MLOAD PUSH4 0x52D1902D PUSH1 0xE0 SHL DUP2 MSTORE PUSH1 0x20 SWAP4 SWAP3 SWAP2 DUP4 AND SWAP2 SWAP1 DUP5 DUP2 PUSH1 0x4 DUP2 DUP7 GAS STATICCALL PUSH1 0x0 SWAP2 DUP2 PUSH2 0x1B51 JUMPI JUMPDEST POP PUSH2 0x1A4C JUMPI PUSH1 0x40 MLOAD PUSH3 0x461BCD PUSH1 0xE5 SHL DUP2 MSTORE PUSH1 0x4 DUP2 ADD DUP7 SWAP1 MSTORE PUSH1 0x2E PUSH1 0x24 DUP3 ADD MSTORE PUSH32 0x45524331393637557067726164653A206E657720696D706C656D656E74617469 PUSH1 0x44 DUP3 ADD MSTORE PUSH14 0x6F6E206973206E6F742055555053 PUSH1 0x90 SHL PUSH1 0x64 DUP3 ADD MSTORE PUSH1 0x84 SWAP1 REVERT JUMPDEST SUB PUSH2 0x1AFA JUMPI PUSH2 0x1A5A DUP3 PUSH2 0x309F JUMP JUMPDEST PUSH32 0xBC7CD75A20EE27FD9ADEBAB32041F755214DBC6BFFA90CC0225B39DA2E5C2D3B PUSH1 0x0 DUP1 LOG2 DUP3 MLOAD ISZERO DUP1 ISZERO SWAP1 PUSH2 0x1AF2 JUMPI JUMPDEST PUSH2 0x1A90 JUMPI STOP JUMPDEST PUSH1 0x0 DUP1 PUSH2 0x326 SWAP5 PUSH1 0x40 MLOAD SWAP5 PUSH2 0x1AA4 DUP7 PUSH2 0x2367 JUMP JUMPDEST PUSH1 0x27 DUP7 MSTORE PUSH32 0x416464726573733A206C6F772D6C6576656C2064656C65676174652063616C6C DUP2 DUP8 ADD MSTORE PUSH7 0x819985A5B1959 PUSH1 0xCA SHL PUSH1 0x40 DUP8 ADD MSTORE DUP2 MLOAD SWAP2 ADD DUP5 GAS DELEGATECALL PUSH2 0x1AEC PUSH2 0x2584 JUMP JUMPDEST SWAP2 PUSH2 0x312F JUMP JUMPDEST POP PUSH1 0x1 PUSH2 0x1A8A JUMP JUMPDEST PUSH1 0x40 MLOAD PUSH3 0x461BCD PUSH1 0xE5 SHL DUP2 MSTORE PUSH1 0x4 DUP2 ADD DUP5 SWAP1 MSTORE PUSH1 0x29 PUSH1 0x24 DUP3 ADD MSTORE PUSH32 0x45524331393637557067726164653A20756E737570706F727465642070726F78 PUSH1 0x44 DUP3 ADD MSTORE PUSH9 0x1A58589B1955555251 PUSH1 0xBA SHL PUSH1 0x64 DUP3 ADD MSTORE PUSH1 0x84 SWAP1 REVERT JUMPDEST SWAP1 SWAP2 POP DUP6 DUP2 DUP2 RETURNDATASIZE DUP4 GT PUSH2 0x1B79 JUMPI JUMPDEST PUSH2 0x1B69 DUP2 DUP4 PUSH2 0x2383 JUMP JUMPDEST DUP2 ADD SUB SLT PUSH2 0x284 JUMPI MLOAD SWAP1 DUP8 PUSH2 0x19EB JUMP JUMPDEST POP RETURNDATASIZE PUSH2 0x1B5F JUMP JUMPDEST CALLVALUE PUSH2 0x284 JUMPI PUSH1 0x0 CALLDATASIZE PUSH1 0x3 NOT ADD SLT PUSH2 0x284 JUMPI PUSH2 0x1B99 PUSH2 0x2AED JUMP JUMPDEST PUSH2 0x1BA1 PUSH2 0x2D45 JUMP JUMPDEST PUSH2 0x1C8 SLOAD TIMESTAMP GT ISZERO PUSH2 0x1CEF JUMPI PUSH2 0x1CA DUP1 SLOAD PUSH1 0xFF DUP2 PUSH1 0x8 SHR AND PUSH2 0x1CB6 JUMPI PUSH2 0x1CB SWAP2 DUP3 SLOAD SWAP1 PUSH2 0x1C3 SLOAD DUP3 LT PUSH2 0x1C7A JUMPI PUSH2 0x100 PUSH2 0x1BE6 SWAP4 PUSH2 0xFF00 NOT AND OR SWAP1 SSTORE PUSH2 0x1C9 SLOAD SWAP1 PUSH2 0x2571 JUMP JUMPDEST SWAP1 PUSH1 0x0 DUP1 DUP1 DUP1 PUSH1 0x1 DUP1 PUSH1 0xA0 SHL SUB PUSH1 0xFB SLOAD AND SELFBALANCE SWAP1 GAS CALL PUSH2 0x1C03 PUSH2 0x2584 JUMP JUMPDEST POP ISZERO PUSH2 0x1C43 JUMPI PUSH32 0xEDFDE254CB8ED39D650C9A34251C59D6817FAE4CC876CC2CE76669976CF102EE SWAP2 PUSH1 0x40 SWAP2 SLOAD SWAP1 DUP3 MLOAD SWAP2 DUP3 MSTORE PUSH1 0x20 DUP3 ADD MSTORE LOG1 PUSH1 0x1 PUSH2 0x191 SSTORE STOP JUMPDEST PUSH1 0x40 MLOAD PUSH3 0x461BCD PUSH1 0xE5 SHL DUP2 MSTORE PUSH1 0x20 PUSH1 0x4 DUP3 ADD MSTORE PUSH1 0xF PUSH1 0x24 DUP3 ADD MSTORE PUSH15 0x151C985B9CD9995C8819985A5B1959 PUSH1 0x8A SHL PUSH1 0x44 DUP3 ADD MSTORE PUSH1 0x64 SWAP1 REVERT JUMPDEST PUSH1 0x40 MLOAD PUSH3 0x461BCD PUSH1 0xE5 SHL DUP2 MSTORE PUSH1 0x20 PUSH1 0x4 DUP3 ADD MSTORE PUSH1 0x14 PUSH1 0x24 DUP3 ADD MSTORE PUSH20 0x14DBD99D0818D85C081B9BDD081C995858DA1959 PUSH1 0x62 SHL PUSH1 0x44 DUP3 ADD MSTORE PUSH1 0x64 SWAP1 REVERT JUMPDEST PUSH1 0x40 MLOAD PUSH3 0x461BCD PUSH1 0xE5 SHL DUP2 MSTORE PUSH1 0x20 PUSH1 0x4 DUP3 ADD MSTORE PUSH1 0x11 PUSH1 0x24 DUP3 ADD MSTORE PUSH17 0x105B1C9958591E48199A5B985B1A5E9959 PUSH1 0x7A SHL PUSH1 0x44 DUP3 ADD MSTORE PUSH1 0x64 SWAP1 REVERT JUMPDEST PUSH1 0x40 MLOAD PUSH3 0x461BCD PUSH1 0xE5 SHL DUP2 MSTORE PUSH1 0x20 PUSH1 0x4 DUP3 ADD MSTORE PUSH1 0x11 PUSH1 0x24 DUP3 ADD MSTORE PUSH17 0x141C995CD85B19481B9BDD08195B991959 PUSH1 0x7A SHL PUSH1 0x44 DUP3 ADD MSTORE PUSH1 0x64 SWAP1 REVERT JUMPDEST CALLVALUE PUSH2 0x284 JUMPI PUSH1 0x20 CALLDATASIZE PUSH1 0x3 NOT ADD SLT PUSH2 0x284 JUMPI PUSH1 0x1 PUSH1 0x1 PUSH1 0xA0 SHL SUB PUSH2 0x1D49 PUSH2 0x233B JUMP JUMPDEST AND PUSH1 0x0 MSTORE PUSH2 0x1CD PUSH1 0x20 MSTORE PUSH1 0x20 PUSH1 0x40 PUSH1 0x0 KECCAK256 SLOAD PUSH1 0x40 MLOAD SWAP1 DUP2 MSTORE RETURN JUMPDEST CALLVALUE PUSH2 0x284 JUMPI PUSH1 0x20 CALLDATASIZE PUSH1 0x3 NOT ADD SLT PUSH2 0x284 JUMPI PUSH2 0x326 PUSH1 0x4 CALLDATALOAD CALLER PUSH2 0x2B45 JUMP JUMPDEST CALLVALUE PUSH2 0x284 JUMPI PUSH1 0x0 CALLDATASIZE PUSH1 0x3 NOT ADD SLT PUSH2 0x284 JUMPI PUSH1 0x20 PUSH2 0x1D5 SLOAD PUSH1 0x40 MLOAD SWAP1 DUP2 MSTORE RETURN JUMPDEST CALLVALUE PUSH2 0x284 JUMPI PUSH1 0x0 CALLDATASIZE PUSH1 0x3 NOT ADD SLT PUSH2 0x284 JUMPI PUSH2 0x1DB8 PUSH2 0x2AED JUMP JUMPDEST PUSH1 0x97 SLOAD PUSH1 0xFF DUP2 AND ISZERO PUSH2 0x1DF7 JUMPI PUSH1 0xFF NOT AND PUSH1 0x97 SSTORE PUSH32 0x5DB9EE0A495BF2E6FF9C91A7834C1BA4FDD244A5E8AA4E537BD38AEAE4B073AA PUSH1 0x20 PUSH1 0x40 MLOAD CALLER DUP2 MSTORE LOG1 STOP JUMPDEST PUSH1 0x40 MLOAD PUSH3 0x461BCD PUSH1 0xE5 SHL DUP2 MSTORE PUSH1 0x20 PUSH1 0x4 DUP3 ADD MSTORE PUSH1 0x14 PUSH1 0x24 DUP3 ADD MSTORE PUSH20 0x14185D5CD8589B194E881B9BDD081C185D5CD959 PUSH1 0x62 SHL PUSH1 0x44 DUP3 ADD MSTORE PUSH1 0x64 SWAP1 REVERT JUMPDEST CALLVALUE PUSH2 0x284 JUMPI PUSH1 0x40 CALLDATASIZE PUSH1 0x3 NOT ADD SLT PUSH2 0x284 JUMPI PUSH2 0x991 PUSH2 0x1E4F PUSH2 0x233B JUMP JUMPDEST CALLER PUSH1 0x0 MSTORE PUSH1 0x34 PUSH1 0x20 MSTORE PUSH1 0x40 PUSH1 0x0 KECCAK256 PUSH1 0x1 DUP1 PUSH1 0xA0 SHL SUB DUP3 AND PUSH1 0x0 MSTORE PUSH1 0x20 MSTORE PUSH2 0x1E7D PUSH1 0x24 CALLDATALOAD PUSH1 0x40 PUSH1 0x0 KECCAK256 SLOAD PUSH2 0x254E JUMP JUMPDEST SWAP1 CALLER PUSH2 0x2696 JUMP JUMPDEST CALLVALUE PUSH2 0x284 JUMPI PUSH1 0x20 DUP1 PUSH1 0x3 NOT CALLDATASIZE ADD SLT PUSH2 0x284 JUMPI PUSH2 0x1E9E PUSH2 0x233B JUMP JUMPDEST PUSH1 0x1 PUSH1 0x1 PUSH1 0xA0 SHL SUB PUSH32 0x0 DUP2 AND SWAP3 SWAP1 PUSH2 0x1ED7 ADDRESS DUP6 EQ ISZERO PUSH2 0x248C JUMP JUMPDEST PUSH2 0x1EF4 PUSH1 0x0 DUP1 MLOAD PUSH1 0x20 PUSH2 0x31E5 DUP4 CODECOPY DUP2 MLOAD SWAP2 MSTORE SWAP5 DUP3 DUP7 SLOAD AND EQ PUSH2 0x24ED JUMP JUMPDEST PUSH2 0x1EFC PUSH2 0x2AED JUMP JUMPDEST PUSH1 0x40 MLOAD SWAP4 DUP3 DUP6 ADD SWAP2 DUP6 DUP4 LT PUSH8 0xFFFFFFFFFFFFFFFF DUP5 GT OR PUSH2 0x26E JUMPI DUP3 PUSH1 0x40 MSTORE PUSH1 0x0 DUP7 MSTORE PUSH1 0xFF PUSH32 0x4910FDFA16FED3260ED0E7147F7CC6DA11A60208B5B9406D12A635614FFD9143 SLOAD AND PUSH1 0x0 EQ PUSH2 0x1F59 JUMPI POP POP POP POP PUSH2 0x326 SWAP2 POP PUSH2 0x309F JUMP JUMPDEST DUP5 SWAP4 SWAP5 AND SWAP1 PUSH1 0x40 MLOAD PUSH4 0x52D1902D PUSH1 0xE0 SHL DUP2 MSTORE DUP6 DUP2 PUSH1 0x4 DUP2 DUP7 GAS STATICCALL PUSH1 0x0 SWAP2 DUP2 PUSH2 0x20DA JUMPI JUMPDEST POP PUSH2 0x1FDD JUMPI PUSH1 0x40 MLOAD PUSH3 0x461BCD PUSH1 0xE5 SHL DUP2 MSTORE PUSH1 0x4 DUP2 ADD DUP8 SWAP1 MSTORE PUSH1 0x2E PUSH1 0x24 DUP3 ADD MSTORE PUSH32 0x45524331393637557067726164653A206E657720696D706C656D656E74617469 PUSH1 0x44 DUP3 ADD MSTORE PUSH14 0x6F6E206973206E6F742055555053 PUSH1 0x90 SHL PUSH1 0x64 DUP3 ADD MSTORE PUSH1 0x84 SWAP1 REVERT JUMPDEST SUB PUSH2 0x2083 JUMPI PUSH2 0x1FEB DUP4 PUSH2 0x309F JUMP JUMPDEST PUSH32 0xBC7CD75A20EE27FD9ADEBAB32041F755214DBC6BFFA90CC0225B39DA2E5C2D3B PUSH1 0x0 DUP1 LOG2 DUP4 MLOAD ISZERO DUP1 ISZERO SWAP1 PUSH2 0x207B JUMPI JUMPDEST PUSH2 0x2021 JUMPI STOP JUMPDEST PUSH1 0x0 DUP1 SWAP2 PUSH2 0x326 SWAP6 PUSH32 0x416464726573733A206C6F772D6C6576656C2064656C65676174652063616C6C PUSH1 0x40 MLOAD SWAP7 PUSH2 0x2057 DUP9 PUSH2 0x2367 JUMP JUMPDEST PUSH1 0x27 DUP9 MSTORE DUP8 ADD MSTORE PUSH7 0x819985A5B1959 PUSH1 0xCA SHL PUSH1 0x40 DUP8 ADD MSTORE MLOAD SWAP1 DUP5 GAS DELEGATECALL PUSH2 0x1AEC PUSH2 0x2584 JUMP JUMPDEST POP PUSH1 0x0 PUSH2 0x201B JUMP JUMPDEST PUSH1 0x40 MLOAD PUSH3 0x461BCD PUSH1 0xE5 SHL DUP2 MSTORE PUSH1 0x4 DUP2 ADD DUP6 SWAP1 MSTORE PUSH1 0x29 PUSH1 0x24 DUP3 ADD MSTORE PUSH32 0x45524331393637557067726164653A20756E737570706F727465642070726F78 PUSH1 0x44 DUP3 ADD MSTORE PUSH9 0x1A58589B1955555251 PUSH1 0xBA SHL PUSH1 0x64 DUP3 ADD MSTORE PUSH1 0x84 SWAP1 REVERT JUMPDEST SWAP1 SWAP2 POP DUP7 DUP2 DUP2 RETURNDATASIZE DUP4 GT PUSH2 0x2102 JUMPI JUMPDEST PUSH2 0x20F2 DUP2 DUP4 PUSH2 0x2383 JUMP JUMPDEST DUP2 ADD SUB SLT PUSH2 0x284 JUMPI MLOAD SWAP1 DUP9 PUSH2 0x1F7C JUMP JUMPDEST POP RETURNDATASIZE PUSH2 0x20E8 JUMP JUMPDEST CALLVALUE PUSH2 0x284 JUMPI PUSH1 0x0 CALLDATASIZE PUSH1 0x3 NOT ADD SLT PUSH2 0x284 JUMPI PUSH1 0x20 PUSH1 0x40 MLOAD PUSH1 0x12 DUP2 MSTORE RETURN JUMPDEST CALLVALUE PUSH2 0x284 JUMPI PUSH1 0x0 CALLDATASIZE PUSH1 0x3 NOT ADD SLT PUSH2 0x284 JUMPI PUSH2 0x140 PUSH2 0x1C3 SLOAD PUSH2 0x1C4 SLOAD PUSH1 0xFF PUSH2 0x1C5 SLOAD PUSH2 0x1C6 SLOAD PUSH2 0x1C7 SLOAD PUSH2 0x1C8 SLOAD SWAP1 PUSH2 0x1C9 SLOAD SWAP3 PUSH2 0x1CA SLOAD SWAP5 PUSH2 0x1CB SLOAD SWAP8 PUSH1 0x40 MLOAD SWAP10 DUP11 MSTORE PUSH1 0x20 DUP11 ADD MSTORE PUSH1 0x40 DUP10 ADD MSTORE PUSH1 0x60 DUP9 ADD MSTORE PUSH1 0x80 DUP8 ADD MSTORE PUSH1 0xA0 DUP7 ADD MSTORE PUSH1 0xC0 DUP6 ADD MSTORE DUP2 DUP2 AND ISZERO ISZERO PUSH1 0xE0 DUP6 ADD MSTORE PUSH1 0x8 SHR AND ISZERO ISZERO PUSH2 0x100 DUP4 ADD MSTORE PUSH2 0x120 DUP3 ADD MSTORE RETURN JUMPDEST CALLVALUE PUSH2 0x284 JUMPI PUSH1 0x0 CALLDATASIZE PUSH1 0x3 NOT ADD SLT PUSH2 0x284 JUMPI PUSH1 0x20 PUSH2 0x1D7 SLOAD PUSH1 0x40 MLOAD SWAP1 DUP2 MSTORE RETURN JUMPDEST CALLVALUE PUSH2 0x284 JUMPI PUSH1 0x60 CALLDATASIZE PUSH1 0x3 NOT ADD SLT PUSH2 0x284 JUMPI PUSH2 0x991 PUSH2 0x21E0 PUSH2 0x233B JUMP JUMPDEST PUSH2 0x21E8 PUSH2 0x2351 JUMP JUMPDEST PUSH1 0x44 CALLDATALOAD SWAP2 PUSH2 0x21F7 DUP4 CALLER DUP4 PUSH2 0x2798 JUMP JUMPDEST PUSH2 0x2830 JUMP JUMPDEST CALLVALUE PUSH2 0x284 JUMPI PUSH1 0x0 CALLDATASIZE PUSH1 0x3 NOT ADD SLT PUSH2 0x284 JUMPI PUSH1 0x20 PUSH1 0x35 SLOAD PUSH1 0x40 MLOAD SWAP1 DUP2 MSTORE RETURN JUMPDEST CALLVALUE PUSH2 0x284 JUMPI PUSH1 0x0 CALLDATASIZE PUSH1 0x3 NOT ADD SLT PUSH2 0x284 JUMPI PUSH1 0x20 PUSH2 0x1D6 SLOAD PUSH1 0x40 MLOAD SWAP1 DUP2 MSTORE RETURN JUMPDEST CALLVALUE PUSH2 0x284 JUMPI PUSH1 0x40 CALLDATASIZE PUSH1 0x3 NOT ADD SLT PUSH2 0x284 JUMPI PUSH2 0x991 PUSH2 0x2255 PUSH2 0x233B JUMP JUMPDEST PUSH1 0x24 CALLDATALOAD SWAP1 CALLER PUSH2 0x2696 JUMP JUMPDEST CALLVALUE PUSH2 0x284 JUMPI PUSH1 0x0 CALLDATASIZE PUSH1 0x3 NOT ADD SLT PUSH2 0x284 JUMPI PUSH1 0x0 PUSH1 0x36 SLOAD PUSH2 0x227E DUP2 PUSH2 0x2452 JUMP JUMPDEST DUP1 DUP5 MSTORE SWAP1 PUSH1 0x20 SWAP1 PUSH1 0x1 SWAP1 DUP2 DUP2 AND SWAP1 DUP2 ISZERO PUSH2 0xB26 JUMPI POP PUSH1 0x1 EQ PUSH2 0x22AA JUMPI PUSH2 0x26A DUP6 PUSH2 0xAD2 DUP2 DUP8 SUB DUP3 PUSH2 0x2383 JUMP JUMPDEST PUSH1 0x36 PUSH1 0x0 SWAP1 DUP2 MSTORE SWAP4 POP PUSH1 0x0 DUP1 MLOAD PUSH1 0x20 PUSH2 0x31C5 DUP4 CODECOPY DUP2 MLOAD SWAP2 MSTORE JUMPDEST DUP4 DUP6 LT PUSH2 0x22DF JUMPI POP POP POP POP DUP2 ADD PUSH1 0x20 ADD PUSH2 0xAD2 DUP3 PUSH2 0x26A PUSH2 0xAC2 JUMP JUMPDEST DUP1 SLOAD DUP7 DUP7 ADD DUP5 ADD MSTORE SWAP4 DUP3 ADD SWAP4 DUP2 ADD PUSH2 0x22C3 JUMP JUMPDEST PUSH1 0x20 DUP1 DUP3 MSTORE DUP3 MLOAD DUP2 DUP4 ADD DUP2 SWAP1 MSTORE SWAP1 SWAP4 SWAP3 PUSH1 0x0 JUMPDEST DUP3 DUP2 LT PUSH2 0x2327 JUMPI POP POP PUSH1 0x40 SWAP3 SWAP4 POP PUSH1 0x0 DUP4 DUP3 DUP5 ADD ADD MSTORE PUSH1 0x1F DUP1 NOT SWAP2 ADD AND ADD ADD SWAP1 JUMP JUMPDEST DUP2 DUP2 ADD DUP7 ADD MLOAD DUP5 DUP3 ADD PUSH1 0x40 ADD MSTORE DUP6 ADD PUSH2 0x2305 JUMP JUMPDEST PUSH1 0x4 CALLDATALOAD SWAP1 PUSH1 0x1 PUSH1 0x1 PUSH1 0xA0 SHL SUB DUP3 AND DUP3 SUB PUSH2 0x284 JUMPI JUMP JUMPDEST PUSH1 0x24 CALLDATALOAD SWAP1 PUSH1 0x1 PUSH1 0x1 PUSH1 0xA0 SHL SUB DUP3 AND DUP3 SUB PUSH2 0x284 JUMPI JUMP JUMPDEST PUSH1 0x60 DUP2 ADD SWAP1 DUP2 LT PUSH8 0xFFFFFFFFFFFFFFFF DUP3 GT OR PUSH2 0x26E JUMPI PUSH1 0x40 MSTORE JUMP JUMPDEST SWAP1 PUSH1 0x1F DUP1 NOT SWAP2 ADD AND DUP2 ADD SWAP1 DUP2 LT PUSH8 0xFFFFFFFFFFFFFFFF DUP3 GT OR PUSH2 0x26E JUMPI PUSH1 0x40 MSTORE JUMP JUMPDEST PUSH8 0xFFFFFFFFFFFFFFFF DUP2 GT PUSH2 0x26E JUMPI PUSH1 0x1F ADD PUSH1 0x1F NOT AND PUSH1 0x20 ADD SWAP1 JUMP JUMPDEST SWAP3 SWAP2 SWAP3 PUSH2 0x23CD DUP3 PUSH2 0x23A5 JUMP JUMPDEST SWAP2 PUSH2 0x23DB PUSH1 0x40 MLOAD SWAP4 DUP5 PUSH2 0x2383 JUMP JUMPDEST DUP3 SWAP5 DUP2 DUP5 MSTORE DUP2 DUP4 ADD GT PUSH2 0x284 JUMPI DUP3 DUP2 PUSH1 0x20 SWAP4 DUP5 PUSH1 0x0 SWAP7 ADD CALLDATACOPY ADD ADD MSTORE JUMP JUMPDEST SWAP1 PUSH1 0x40 PUSH1 0x3 NOT DUP4 ADD SLT PUSH2 0x284 JUMPI PUSH1 0x4 CALLDATALOAD PUSH8 0xFFFFFFFFFFFFFFFF SWAP3 DUP4 DUP3 GT PUSH2 0x284 JUMPI DUP1 PUSH1 0x23 DUP4 ADD SLT ISZERO PUSH2 0x284 JUMPI DUP2 PUSH1 0x4 ADD CALLDATALOAD SWAP4 DUP5 GT PUSH2 0x284 JUMPI PUSH1 0x24 DUP5 PUSH1 0x5 SHL DUP4 ADD ADD GT PUSH2 0x284 JUMPI PUSH1 0x24 ADD SWAP2 SWAP1 PUSH1 0x24 CALLDATALOAD DUP1 ISZERO ISZERO DUP2 SUB PUSH2 0x284 JUMPI SWAP1 JUMP JUMPDEST SWAP1 PUSH1 0x1 DUP3 DUP2 SHR SWAP3 AND DUP1 ISZERO PUSH2 0x2482 JUMPI JUMPDEST PUSH1 0x20 DUP4 LT EQ PUSH2 0x246C JUMPI JUMP JUMPDEST PUSH4 0x4E487B71 PUSH1 0xE0 SHL PUSH1 0x0 MSTORE PUSH1 0x22 PUSH1 0x4 MSTORE PUSH1 0x24 PUSH1 0x0 REVERT JUMPDEST SWAP2 PUSH1 0x7F AND SWAP2 PUSH2 0x2461 JUMP JUMPDEST ISZERO PUSH2 0x2493 JUMPI JUMP JUMPDEST PUSH1 0x40 MLOAD PUSH3 0x461BCD PUSH1 0xE5 SHL DUP2 MSTORE PUSH1 0x20 PUSH1 0x4 DUP3 ADD MSTORE PUSH1 0x2C PUSH1 0x24 DUP3 ADD MSTORE PUSH32 0x46756E6374696F6E206D7573742062652063616C6C6564207468726F75676820 PUSH1 0x44 DUP3 ADD MSTORE PUSH12 0x19195B1959D85D1958D85B1B PUSH1 0xA2 SHL PUSH1 0x64 DUP3 ADD MSTORE PUSH1 0x84 SWAP1 REVERT JUMPDEST ISZERO PUSH2 0x24F4 JUMPI JUMP JUMPDEST PUSH1 0x40 MLOAD PUSH3 0x461BCD PUSH1 0xE5 SHL DUP2 MSTORE PUSH1 0x20 PUSH1 0x4 DUP3 ADD MSTORE PUSH1 0x2C PUSH1 0x24 DUP3 ADD MSTORE PUSH32 0x46756E6374696F6E206D7573742062652063616C6C6564207468726F75676820 PUSH1 0x44 DUP3 ADD MSTORE PUSH12 0x6163746976652070726F7879 PUSH1 0xA0 SHL PUSH1 0x64 DUP3 ADD MSTORE PUSH1 0x84 SWAP1 REVERT JUMPDEST SWAP2 SWAP1 DUP3 ADD DUP1 SWAP3 GT PUSH2 0x255B JUMPI JUMP JUMPDEST PUSH4 0x4E487B71 PUSH1 0xE0 SHL PUSH1 0x0 MSTORE PUSH1 0x11 PUSH1 0x4 MSTORE PUSH1 0x24 PUSH1 0x0 REVERT JUMPDEST DUP2 DUP2 MUL SWAP3 SWAP2 DUP2 ISZERO SWAP2 DUP5 DIV EQ OR ISZERO PUSH2 0x255B JUMPI JUMP JUMPDEST RETURNDATASIZE ISZERO PUSH2 0x25AF JUMPI RETURNDATASIZE SWAP1 PUSH2 0x2595 DUP3 PUSH2 0x23A5 JUMP JUMPDEST SWAP2 PUSH2 0x25A3 PUSH1 0x40 MLOAD SWAP4 DUP5 PUSH2 0x2383 JUMP JUMPDEST DUP3 MSTORE RETURNDATASIZE PUSH1 0x0 PUSH1 0x20 DUP5 ADD RETURNDATACOPY JUMP JUMPDEST PUSH1 0x60 SWAP1 JUMP JUMPDEST SWAP2 SWAP1 DUP3 SUB SWAP2 DUP3 GT PUSH2 0x255B JUMPI JUMP JUMPDEST SWAP1 CALLDATALOAD SWAP1 PUSH1 0x1E NOT DUP2 CALLDATASIZE SUB ADD DUP3 SLT ISZERO PUSH2 0x284 JUMPI ADD DUP1 CALLDATALOAD SWAP1 PUSH8 0xFFFFFFFFFFFFFFFF DUP3 GT PUSH2 0x284 JUMPI PUSH1 0x20 ADD SWAP2 DUP2 CALLDATASIZE SUB DUP4 SGT PUSH2 0x284 JUMPI JUMP JUMPDEST CALLDATALOAD DUP1 ISZERO ISZERO DUP2 SUB PUSH2 0x284 JUMPI SWAP1 JUMP JUMPDEST CALLDATALOAD PUSH1 0x1 PUSH1 0x1 PUSH1 0xA0 SHL SUB DUP2 AND DUP2 SUB PUSH2 0x284 JUMPI SWAP1 JUMP JUMPDEST SWAP2 SWAP1 DUP2 LT ISZERO PUSH2 0x2625 JUMPI PUSH1 0x5 SHL ADD SWAP1 JUMP JUMPDEST PUSH4 0x4E487B71 PUSH1 0xE0 SHL PUSH1 0x0 MSTORE PUSH1 0x32 PUSH1 0x4 MSTORE PUSH1 0x24 PUSH1 0x0 REVERT JUMPDEST PUSH1 0x40 DUP1 DUP3 MSTORE DUP2 ADD DUP4 SWAP1 MSTORE SWAP3 SWAP4 SWAP3 SWAP2 PUSH1 0x60 DUP4 ADD SWAP1 PUSH1 0x0 SWAP1 DUP2 JUMPDEST DUP2 DUP2 LT PUSH2 0x2669 JUMPI POP POP POP PUSH1 0x20 SWAP2 POP SWAP4 ISZERO ISZERO SWAP2 ADD MSTORE JUMP JUMPDEST SWAP1 SWAP2 SWAP3 DUP5 CALLDATALOAD PUSH1 0x1 DUP1 PUSH1 0xA0 SHL SUB DUP2 AND DUP1 SWAP2 SUB PUSH2 0x2692 JUMPI DUP2 MSTORE PUSH1 0x20 SWAP5 DUP6 ADD SWAP5 ADD SWAP3 SWAP2 SWAP1 PUSH1 0x1 ADD PUSH2 0x2653 JUMP JUMPDEST DUP5 DUP1 REVERT JUMPDEST PUSH1 0x1 PUSH1 0x1 PUSH1 0xA0 SHL SUB SWAP1 DUP2 AND SWAP2 DUP3 ISZERO PUSH2 0x2747 JUMPI AND SWAP2 DUP3 ISZERO PUSH2 0x26F7 JUMPI PUSH1 0x20 PUSH32 0x8C5BE1E5EBEC7D5BD14F71427D1E84F3DD0314C0F7B2291E5B200AC8C7C3B925 SWAP2 DUP4 PUSH1 0x0 MSTORE PUSH1 0x34 DUP3 MSTORE PUSH1 0x40 PUSH1 0x0 KECCAK256 DUP6 PUSH1 0x0 MSTORE DUP3 MSTORE DUP1 PUSH1 0x40 PUSH1 0x0 KECCAK256 SSTORE PUSH1 0x40 MLOAD SWAP1 DUP2 MSTORE LOG3 JUMP JUMPDEST PUSH1 0x40 MLOAD PUSH3 0x461BCD PUSH1 0xE5 SHL DUP2 MSTORE PUSH1 0x20 PUSH1 0x4 DUP3 ADD MSTORE PUSH1 0x22 PUSH1 0x24 DUP3 ADD MSTORE PUSH32 0x45524332303A20617070726F766520746F20746865207A65726F206164647265 PUSH1 0x44 DUP3 ADD MSTORE PUSH2 0x7373 PUSH1 0xF0 SHL PUSH1 0x64 DUP3 ADD MSTORE PUSH1 0x84 SWAP1 REVERT JUMPDEST PUSH1 0x40 MLOAD PUSH3 0x461BCD PUSH1 0xE5 SHL DUP2 MSTORE PUSH1 0x20 PUSH1 0x4 DUP3 ADD MSTORE PUSH1 0x24 DUP1 DUP3 ADD MSTORE PUSH32 0x45524332303A20617070726F76652066726F6D20746865207A65726F20616464 PUSH1 0x44 DUP3 ADD MSTORE PUSH4 0x72657373 PUSH1 0xE0 SHL PUSH1 0x64 DUP3 ADD MSTORE PUSH1 0x84 SWAP1 REVERT JUMPDEST SWAP1 PUSH1 0x1 DUP1 PUSH1 0xA0 SHL SUB DUP1 DUP4 AND PUSH1 0x0 MSTORE PUSH1 0x34 PUSH1 0x20 MSTORE PUSH1 0x40 PUSH1 0x0 KECCAK256 SWAP1 DUP3 AND PUSH1 0x0 MSTORE PUSH1 0x20 MSTORE PUSH1 0x40 PUSH1 0x0 KECCAK256 SLOAD SWAP3 PUSH1 0x0 NOT DUP5 SUB PUSH2 0x27D0 JUMPI JUMPDEST POP POP POP POP JUMP JUMPDEST DUP1 DUP5 LT PUSH2 0x27EB JUMPI PUSH2 0x27E2 SWAP4 SUB SWAP2 PUSH2 0x2696 JUMP JUMPDEST CODESIZE DUP1 DUP1 DUP1 PUSH2 0x27CA JUMP JUMPDEST PUSH1 0x40 MLOAD PUSH3 0x461BCD PUSH1 0xE5 SHL DUP2 MSTORE PUSH1 0x20 PUSH1 0x4 DUP3 ADD MSTORE PUSH1 0x1D PUSH1 0x24 DUP3 ADD MSTORE PUSH32 0x45524332303A20696E73756666696369656E7420616C6C6F77616E6365000000 PUSH1 0x44 DUP3 ADD MSTORE PUSH1 0x64 SWAP1 REVERT JUMPDEST PUSH1 0x1 PUSH1 0x1 PUSH1 0xA0 SHL SUB SWAP1 DUP2 AND SWAP2 DUP3 ISZERO PUSH2 0x2A9A JUMPI AND SWAP2 DUP3 ISZERO PUSH2 0x2A49 JUMPI PUSH1 0xFF PUSH1 0x97 SLOAD AND PUSH2 0x29F1 JUMPI PUSH2 0x1CF SLOAD PUSH1 0xFF DUP2 AND PUSH2 0x2981 JUMPI JUMPDEST PUSH1 0x8 SHR PUSH1 0xFF AND DUP1 PUSH2 0x2979 JUMPI JUMPDEST PUSH2 0x2924 JUMPI JUMPDEST PUSH1 0x0 DUP3 DUP2 MSTORE PUSH1 0x33 PUSH1 0x20 MSTORE PUSH1 0x40 DUP2 KECCAK256 SLOAD SWAP2 DUP1 DUP4 LT PUSH2 0x28D0 JUMPI PUSH1 0x40 DUP3 DUP3 PUSH32 0xDDF252AD1BE2C89B69C2B068FC378DAA952BA7F163C4A11628F55A4DF523B3EF SWAP6 DUP8 PUSH1 0x20 SWAP7 MSTORE PUSH1 0x33 DUP7 MSTORE SUB DUP3 DUP3 KECCAK256 SSTORE DUP7 DUP2 MSTORE KECCAK256 DUP2 DUP2 SLOAD ADD SWAP1 SSTORE PUSH1 0x40 MLOAD SWAP1 DUP2 MSTORE LOG3 JUMP JUMPDEST PUSH1 0x40 MLOAD PUSH3 0x461BCD PUSH1 0xE5 SHL DUP2 MSTORE PUSH1 0x20 PUSH1 0x4 DUP3 ADD MSTORE PUSH1 0x26 PUSH1 0x24 DUP3 ADD MSTORE PUSH32 0x45524332303A207472616E7366657220616D6F756E7420657863656564732062 PUSH1 0x44 DUP3 ADD MSTORE PUSH6 0x616C616E6365 PUSH1 0xD0 SHL PUSH1 0x64 DUP3 ADD MSTORE PUSH1 0x84 SWAP1 REVERT JUMPDEST DUP2 PUSH1 0x0 MSTORE PUSH2 0x1D1 PUSH1 0x20 MSTORE PUSH1 0x40 PUSH1 0x0 KECCAK256 SLOAD TIMESTAMP LT ISZERO PUSH2 0x2872 JUMPI PUSH1 0x40 MLOAD PUSH3 0x461BCD PUSH1 0xE5 SHL DUP2 MSTORE PUSH1 0x20 PUSH1 0x4 DUP3 ADD MSTORE PUSH1 0x16 PUSH1 0x24 DUP3 ADD MSTORE PUSH22 0x151BDAD95B9CC8185C99481D1A5B594B5B1BD8DAD959 PUSH1 0x52 SHL PUSH1 0x44 DUP3 ADD MSTORE PUSH1 0x64 SWAP1 REVERT JUMPDEST POP PUSH1 0x1 PUSH2 0x286D JUMP JUMPDEST DUP3 PUSH1 0x0 MSTORE PUSH2 0x1D0 PUSH1 0x20 MSTORE PUSH1 0xFF PUSH1 0x40 PUSH1 0x0 KECCAK256 SLOAD AND ISZERO DUP1 PUSH2 0x29DD JUMPI JUMPDEST PUSH2 0x2861 JUMPI PUSH1 0x40 MLOAD PUSH3 0x461BCD PUSH1 0xE5 SHL DUP2 MSTORE PUSH1 0x20 PUSH1 0x4 DUP3 ADD MSTORE PUSH1 0x16 PUSH1 0x24 DUP3 ADD MSTORE PUSH22 0x1059191C995CDCC81A5CC8189B1858DADB1A5CDD1959 PUSH1 0x52 SHL PUSH1 0x44 DUP3 ADD MSTORE PUSH1 0x64 SWAP1 REVERT JUMPDEST POP DUP4 PUSH1 0x0 MSTORE PUSH1 0xFF PUSH1 0x40 PUSH1 0x0 KECCAK256 SLOAD AND ISZERO PUSH2 0x299B JUMP JUMPDEST PUSH1 0x40 MLOAD PUSH3 0x461BCD PUSH1 0xE5 SHL DUP2 MSTORE PUSH1 0x20 PUSH1 0x4 DUP3 ADD MSTORE PUSH1 0x2A PUSH1 0x24 DUP3 ADD MSTORE PUSH32 0x45524332305061757361626C653A20746F6B656E207472616E73666572207768 PUSH1 0x44 DUP3 ADD MSTORE PUSH10 0x1A5B19481C185D5CD959 PUSH1 0xB2 SHL PUSH1 0x64 DUP3 ADD MSTORE PUSH1 0x84 SWAP1 REVERT JUMPDEST PUSH1 0x40 MLOAD PUSH3 0x461BCD PUSH1 0xE5 SHL DUP2 MSTORE PUSH1 0x20 PUSH1 0x4 DUP3 ADD MSTORE PUSH1 0x23 PUSH1 0x24 DUP3 ADD MSTORE PUSH32 0x45524332303A207472616E7366657220746F20746865207A65726F2061646472 PUSH1 0x44 DUP3 ADD MSTORE PUSH3 0x657373 PUSH1 0xE8 SHL PUSH1 0x64 DUP3 ADD MSTORE PUSH1 0x84 SWAP1 REVERT JUMPDEST PUSH1 0x40 MLOAD PUSH3 0x461BCD PUSH1 0xE5 SHL DUP2 MSTORE PUSH1 0x20 PUSH1 0x4 DUP3 ADD MSTORE PUSH1 0x25 PUSH1 0x24 DUP3 ADD MSTORE PUSH32 0x45524332303A207472616E736665722066726F6D20746865207A65726F206164 PUSH1 0x44 DUP3 ADD MSTORE PUSH5 0x6472657373 PUSH1 0xD8 SHL PUSH1 0x64 DUP3 ADD MSTORE PUSH1 0x84 SWAP1 REVERT JUMPDEST PUSH1 0xFB SLOAD PUSH1 0x1 PUSH1 0x1 PUSH1 0xA0 SHL SUB AND CALLER SUB PUSH2 0x2B01 JUMPI JUMP JUMPDEST PUSH1 0x64 PUSH1 0x40 MLOAD PUSH3 0x461BCD PUSH1 0xE5 SHL DUP2 MSTORE PUSH1 0x20 PUSH1 0x4 DUP3 ADD MSTORE PUSH1 0x20 PUSH1 0x24 DUP3 ADD MSTORE PUSH32 0x4F776E61626C653A2063616C6C6572206973206E6F7420746865206F776E6572 PUSH1 0x44 DUP3 ADD MSTORE REVERT JUMPDEST PUSH1 0x1 PUSH1 0x1 PUSH1 0xA0 SHL SUB AND DUP1 ISZERO PUSH2 0x2CF6 JUMPI PUSH1 0xFF PUSH1 0x97 SLOAD AND PUSH2 0x29F1 JUMPI PUSH2 0x1CF SLOAD PUSH1 0xFF DUP2 AND PUSH2 0x2C86 JUMPI JUMPDEST PUSH1 0x8 SHR PUSH1 0xFF AND DUP1 PUSH2 0x2C7E JUMPI JUMPDEST PUSH2 0x2C29 JUMPI JUMPDEST DUP1 PUSH1 0x0 MSTORE PUSH1 0x33 PUSH1 0x20 MSTORE PUSH1 0x40 PUSH1 0x0 KECCAK256 SLOAD SWAP2 DUP1 DUP4 LT PUSH2 0x2BD9 JUMPI PUSH1 0x20 DUP2 PUSH32 0xDDF252AD1BE2C89B69C2B068FC378DAA952BA7F163C4A11628F55A4DF523B3EF SWAP3 PUSH1 0x0 SWAP6 DUP6 DUP8 MSTORE PUSH1 0x33 DUP5 MSTORE SUB PUSH1 0x40 DUP7 KECCAK256 SSTORE DUP1 PUSH1 0x35 SLOAD SUB PUSH1 0x35 SSTORE PUSH1 0x40 MLOAD SWAP1 DUP2 MSTORE LOG3 JUMP JUMPDEST PUSH1 0x40 MLOAD PUSH3 0x461BCD PUSH1 0xE5 SHL DUP2 MSTORE PUSH1 0x20 PUSH1 0x4 DUP3 ADD MSTORE PUSH1 0x22 PUSH1 0x24 DUP3 ADD MSTORE PUSH32 0x45524332303A206275726E20616D6F756E7420657863656564732062616C616E PUSH1 0x44 DUP3 ADD MSTORE PUSH2 0x6365 PUSH1 0xF0 SHL PUSH1 0x64 DUP3 ADD MSTORE PUSH1 0x84 SWAP1 REVERT JUMPDEST DUP1 PUSH1 0x0 MSTORE PUSH2 0x1D1 PUSH1 0x20 MSTORE PUSH1 0x40 PUSH1 0x0 KECCAK256 SLOAD TIMESTAMP LT ISZERO PUSH2 0x2B7C JUMPI PUSH1 0x40 MLOAD PUSH3 0x461BCD PUSH1 0xE5 SHL DUP2 MSTORE PUSH1 0x20 PUSH1 0x4 DUP3 ADD MSTORE PUSH1 0x16 PUSH1 0x24 DUP3 ADD MSTORE PUSH22 0x151BDAD95B9CC8185C99481D1A5B594B5B1BD8DAD959 PUSH1 0x52 SHL PUSH1 0x44 DUP3 ADD MSTORE PUSH1 0x64 SWAP1 REVERT JUMPDEST POP PUSH1 0x1 PUSH2 0x2B77 JUMP JUMPDEST DUP2 PUSH1 0x0 MSTORE PUSH2 0x1D0 PUSH1 0x20 MSTORE PUSH1 0xFF PUSH1 0x40 PUSH1 0x0 KECCAK256 SLOAD AND ISZERO DUP1 PUSH2 0x2CE2 JUMPI JUMPDEST PUSH2 0x2B6B JUMPI PUSH1 0x40 MLOAD PUSH3 0x461BCD PUSH1 0xE5 SHL DUP2 MSTORE PUSH1 0x20 PUSH1 0x4 DUP3 ADD MSTORE PUSH1 0x16 PUSH1 0x24 DUP3 ADD MSTORE PUSH22 0x1059191C995CDCC81A5CC8189B1858DADB1A5CDD1959 PUSH1 0x52 SHL PUSH1 0x44 DUP3 ADD MSTORE PUSH1 0x64 SWAP1 REVERT JUMPDEST POP PUSH1 0x0 DUP1 MSTORE PUSH1 0xFF PUSH1 0x40 PUSH1 0x0 KECCAK256 SLOAD AND ISZERO PUSH2 0x2CA0 JUMP JUMPDEST PUSH1 0x40 MLOAD PUSH3 0x461BCD PUSH1 0xE5 SHL DUP2 MSTORE PUSH1 0x20 PUSH1 0x4 DUP3 ADD MSTORE PUSH1 0x21 PUSH1 0x24 DUP3 ADD MSTORE PUSH32 0x45524332303A206275726E2066726F6D20746865207A65726F20616464726573 PUSH1 0x44 DUP3 ADD MSTORE PUSH1 0x73 PUSH1 0xF8 SHL PUSH1 0x64 DUP3 ADD MSTORE PUSH1 0x84 SWAP1 REVERT JUMPDEST PUSH2 0x191 PUSH1 0x2 DUP2 SLOAD EQ PUSH2 0x2D57 JUMPI PUSH1 0x2 SWAP1 SSTORE JUMP JUMPDEST PUSH1 0x40 MLOAD PUSH3 0x461BCD PUSH1 0xE5 SHL DUP2 MSTORE PUSH1 0x20 PUSH1 0x4 DUP3 ADD MSTORE PUSH1 0x1F PUSH1 0x24 DUP3 ADD MSTORE PUSH32 0x5265656E7472616E637947756172643A207265656E7472616E742063616C6C00 PUSH1 0x44 DUP3 ADD MSTORE PUSH1 0x64 SWAP1 REVERT JUMPDEST PUSH1 0xFB DUP1 SLOAD PUSH1 0x1 PUSH1 0x1 PUSH1 0xA0 SHL SUB SWAP3 DUP4 AND PUSH1 0x1 PUSH1 0x1 PUSH1 0xA0 SHL SUB NOT DUP3 AND DUP2 OR SWAP1 SWAP3 SSTORE SWAP1 SWAP2 AND PUSH32 0x8BE0079C531659141344CD1FD0A4F28419497F9722A3DAAFE3B4186F6B6457E0 PUSH1 0x0 DUP1 LOG3 JUMP JUMPDEST PUSH2 0x1D7 SLOAD PUSH2 0x1D6 SLOAD PUSH2 0x2DF7 DUP2 DUP4 PUSH2 0x254E JUMP JUMPDEST TIMESTAMP LT PUSH2 0x2E67 JUMPI PUSH2 0x1D5 SLOAD SWAP2 PUSH2 0x2E0C DUP4 DUP3 PUSH2 0x254E JUMP JUMPDEST TIMESTAMP LT ISZERO PUSH2 0x2E5D JUMPI DUP2 PUSH2 0x2E2D PUSH2 0x2E27 PUSH2 0x2E3D SWAP5 PUSH2 0x2E33 SWAP5 PUSH2 0x254E JUMP JUMPDEST TIMESTAMP PUSH2 0x25B4 JUMP JUMPDEST SWAP4 PUSH2 0x25B4 JUMP JUMPDEST SWAP2 PUSH2 0x1D3 SLOAD PUSH2 0x2571 JUMP JUMPDEST DUP2 ISZERO PUSH2 0x2E47 JUMPI DIV SWAP1 JUMP JUMPDEST PUSH4 0x4E487B71 PUSH1 0xE0 SHL PUSH1 0x0 MSTORE PUSH1 0x12 PUSH1 0x4 MSTORE PUSH1 0x24 PUSH1 0x0 REVERT JUMPDEST POP POP POP PUSH2 0x1D3 SLOAD SWAP1 JUMP JUMPDEST POP POP PUSH1 0x0 SWAP1 JUMP JUMPDEST PUSH1 0x1 PUSH1 0x1 PUSH1 0xA0 SHL SUB AND SWAP1 DUP2 ISZERO PUSH2 0x2FFA JUMPI PUSH1 0xFF PUSH1 0x97 SLOAD AND PUSH2 0x29F1 JUMPI PUSH2 0x1CF SLOAD PUSH1 0xFF DUP2 AND PUSH2 0x2F6E JUMPI JUMPDEST PUSH1 0x8 SHR PUSH1 0xFF AND DUP1 PUSH2 0x2F66 JUMPI JUMPDEST PUSH2 0x2EF5 JUMPI JUMPDEST PUSH32 0xDDF252AD1BE2C89B69C2B068FC378DAA952BA7F163C4A11628F55A4DF523B3EF PUSH1 0x20 DUP3 PUSH2 0x2ED8 PUSH1 0x0 SWAP5 PUSH1 0x35 SLOAD PUSH2 0x254E JUMP JUMPDEST PUSH1 0x35 SSTORE DUP5 DUP5 MSTORE PUSH1 0x33 DUP3 MSTORE PUSH1 0x40 DUP5 KECCAK256 DUP2 DUP2 SLOAD ADD SWAP1 SSTORE PUSH1 0x40 MLOAD SWAP1 DUP2 MSTORE LOG3 JUMP JUMPDEST PUSH1 0x0 DUP1 MSTORE PUSH2 0x1D1 PUSH1 0x20 MSTORE PUSH32 0x317B84DDAC75F0EA69BF5811368B149BF7C81698247B92D5D9A5A9DFF0E528D0 SLOAD TIMESTAMP LT ISZERO PUSH2 0x2EA6 JUMPI PUSH1 0x40 MLOAD PUSH3 0x461BCD PUSH1 0xE5 SHL DUP2 MSTORE PUSH1 0x20 PUSH1 0x4 DUP3 ADD MSTORE PUSH1 0x16 PUSH1 0x24 DUP3 ADD MSTORE PUSH22 0x151BDAD95B9CC8185C99481D1A5B594B5B1BD8DAD959 PUSH1 0x52 SHL PUSH1 0x44 DUP3 ADD MSTORE PUSH1 0x64 SWAP1 REVERT JUMPDEST POP PUSH1 0x0 PUSH2 0x2EA1 JUMP JUMPDEST PUSH1 0x0 DUP1 MSTORE PUSH2 0x1D0 PUSH1 0x20 MSTORE PUSH32 0x829B3C0C06E324CB54D5F90A76DFB1A140C4382B9F5B15E8E23751EA3306F24D SLOAD PUSH1 0xFF AND ISZERO DUP1 PUSH2 0x2FE6 JUMPI JUMPDEST PUSH2 0x2E95 JUMPI PUSH1 0x40 MLOAD PUSH3 0x461BCD PUSH1 0xE5 SHL DUP2 MSTORE PUSH1 0x20 PUSH1 0x4 DUP3 ADD MSTORE PUSH1 0x16 PUSH1 0x24 DUP3 ADD MSTORE PUSH22 0x1059191C995CDCC81A5CC8189B1858DADB1A5CDD1959 PUSH1 0x52 SHL PUSH1 0x44 DUP3 ADD MSTORE PUSH1 0x64 SWAP1 REVERT JUMPDEST POP DUP3 PUSH1 0x0 MSTORE PUSH1 0xFF PUSH1 0x40 PUSH1 0x0 KECCAK256 SLOAD AND ISZERO PUSH2 0x2FA4 JUMP JUMPDEST PUSH1 0x40 MLOAD PUSH3 0x461BCD PUSH1 0xE5 SHL DUP2 MSTORE PUSH1 0x20 PUSH1 0x4 DUP3 ADD MSTORE PUSH1 0x1F PUSH1 0x24 DUP3 ADD MSTORE PUSH32 0x45524332303A206D696E7420746F20746865207A65726F206164647265737300 PUSH1 0x44 DUP3 ADD MSTORE PUSH1 0x64 SWAP1 REVERT JUMPDEST ISZERO PUSH2 0x3046 JUMPI JUMP JUMPDEST PUSH1 0x40 MLOAD PUSH3 0x461BCD PUSH1 0xE5 SHL DUP2 MSTORE PUSH1 0x20 PUSH1 0x4 DUP3 ADD MSTORE PUSH1 0x2B PUSH1 0x24 DUP3 ADD MSTORE PUSH32 0x496E697469616C697A61626C653A20636F6E7472616374206973206E6F742069 PUSH1 0x44 DUP3 ADD MSTORE PUSH11 0x6E697469616C697A696E67 PUSH1 0xA8 SHL PUSH1 0x64 DUP3 ADD MSTORE PUSH1 0x84 SWAP1 REVERT JUMPDEST DUP1 EXTCODESIZE ISZERO PUSH2 0x30D4 JUMPI PUSH1 0x0 DUP1 MLOAD PUSH1 0x20 PUSH2 0x31E5 DUP4 CODECOPY DUP2 MLOAD SWAP2 MSTORE DUP1 SLOAD PUSH1 0x1 PUSH1 0x1 PUSH1 0xA0 SHL SUB NOT AND PUSH1 0x1 PUSH1 0x1 PUSH1 0xA0 SHL SUB SWAP1 SWAP3 AND SWAP2 SWAP1 SWAP2 OR SWAP1 SSTORE JUMP JUMPDEST PUSH1 0x40 MLOAD PUSH3 0x461BCD PUSH1 0xE5 SHL DUP2 MSTORE PUSH1 0x20 PUSH1 0x4 DUP3 ADD MSTORE PUSH1 0x2D PUSH1 0x24 DUP3 ADD MSTORE PUSH32 0x455243313936373A206E657720696D706C656D656E746174696F6E206973206E PUSH1 0x44 DUP3 ADD MSTORE PUSH13 0x1BDD08184818DBDB9D1C9858DD PUSH1 0x9A SHL PUSH1 0x64 DUP3 ADD MSTORE PUSH1 0x84 SWAP1 REVERT JUMPDEST SWAP2 SWAP3 SWAP1 ISZERO PUSH2 0x3191 JUMPI POP DUP2 MLOAD ISZERO PUSH2 0x3143 JUMPI POP SWAP1 JUMP JUMPDEST EXTCODESIZE ISZERO PUSH2 0x314C JUMPI SWAP1 JUMP JUMPDEST PUSH1 0x40 MLOAD PUSH3 0x461BCD PUSH1 0xE5 SHL DUP2 MSTORE PUSH1 0x20 PUSH1 0x4 DUP3 ADD MSTORE PUSH1 0x1D PUSH1 0x24 DUP3 ADD MSTORE PUSH32 0x416464726573733A2063616C6C20746F206E6F6E2D636F6E7472616374000000 PUSH1 0x44 DUP3 ADD MSTORE PUSH1 0x64 SWAP1 REVERT JUMPDEST DUP3 MLOAD SWAP1 SWAP2 POP ISZERO PUSH2 0x31A4 JUMPI POP DUP1 MLOAD SWAP1 PUSH1 0x20 ADD REVERT JUMPDEST PUSH1 0x40 MLOAD PUSH3 0x461BCD PUSH1 0xE5 SHL DUP2 MSTORE SWAP1 DUP2 SWAP1 PUSH2 0x31C0 SWAP1 PUSH1 0x4 DUP4 ADD PUSH2 0x22F2 JUMP JUMPDEST SUB SWAP1 REVERT INVALID 0x4A GT 0xF9 0x4E KECCAK256 0xA9 EXTCODECOPY PUSH26 0xF6EC743A1954EC4FC2C08429AE2122118BF234B2185C81B83608 SWAP5 LOG1 EXTCODESIZE LOG1 LOG3 0x21 MOD PUSH8 0xC828492DB98DCA3E KECCAK256 PUSH23 0xCC3735A920A3CA505D382BBC42A7B7DD785CD69714A189 0xDF 0xFB EXTCODEHASH 0xD7 0xD7 OR 0x4E 0xDC SWAP15 0xCE DUP4 PUSH23 0x94CE50F7078F7C31AEA264697066735822122082834095 DUP4 0xAD SELFBALANCE PUSH24 0x971409782C784CCBEA5EC20FCD9D61041D42A60DA459C19 PUSH5 0x736F6C6343 STOP ADDMOD AND STOP CALLER "},"gasEstimates":{"creation":{"codeDepositCost":"2578000","executionCost":"infinite","totalCost":"infinite"},"external":{"VERSION()":"infinite","allowance(address,address)":"3437","approve(address,uint256)":"24368","balanceOf(address)":"2871","blacklist(address)":"3367","blacklistEnabled()":"3040","burn(uint256)":"61713","burnFrom(address,uint256)":"88518","claimPlatformFeeTokens()":"infinite","contribute()":"infinite","contributions(address)":"2695","decimals()":"309","decreaseAllowance(address,uint256)":"27308","finalize()":"infinite","getVestingInfo()":"infinite","increaseAllowance(address,uint256)":"26848","initialize((string,string,uint256,uint256,address,bool,bool,uint256,uint256,uint256,uint256,uint256,uint256,address,uint256,bool,uint256,uint256))":"infinite","maxSupply()":"3072","name()":"infinite","owner()":"2876","pause()":"28122","paused()":"2644","platformFeeCliffDuration()":"2302","platformFeeRecipient()":"3184","platformFeeTokens()":"2698","platformFeeTokensClaimed()":"2654","platformFeeVestingDuration()":"2500","platformFeeVestingEnabled()":"3238","platformFeeVestingStart()":"2368","presaleInfo()":"19394","proxiableUUID()":"infinite","renounceOwnership()":"28547","setTimeLock(address,uint256)":"28497","symbol()":"infinite","timeLockEnabled()":"3068","timeLocks(address)":"2937","totalSupply()":"2324","transfer(address,uint256)":"62335","transferFrom(address,address,uint256)":"88279","transferOwnership(address)":"29139","unpause()":"27786","updateBlacklist(address[],bool)":"infinite","updateWhitelist(address[],bool)":"infinite","upgradeTo(address)":"infinite","upgradeToAndCall(address,bytes)":"infinite","whitelist(address)":"3081"},"internal":{"_authorizeUpgrade(address)":"infinite","_beforeTokenTransfer(address,address,uint256)":"infinite","_calculateVestedAmount()":"infinite"}},"methodIdentifiers":{"VERSION()":"ffa1ad74","allowance(address,address)":"dd62ed3e","approve(address,uint256)":"095ea7b3","balanceOf(address)":"70a08231","blacklist(address)":"f9f92be4","blacklistEnabled()":"bffb691d","burn(uint256)":"42966c68","burnFrom(address,uint256)":"79cc6790","claimPlatformFeeTokens()":"8bdc444d","contribute()":"d7bb99ba","contributions(address)":"42e94c90","decimals()":"313ce567","decreaseAllowance(address,uint256)":"a457c2d7","finalize()":"4bb278f3","getVestingInfo()":"dc25a300","increaseAllowance(address,uint256)":"39509351","initialize((string,string,uint256,uint256,address,bool,bool,uint256,uint256,uint256,uint256,uint256,uint256,address,uint256,bool,uint256,uint256))":"94cf6873","maxSupply()":"d5abeb01","name()":"06fdde03","owner()":"8da5cb5b","pause()":"8456cb59","paused()":"5c975abb","platformFeeCliffDuration()":"113d478b","platformFeeRecipient()":"eb13554f","platformFeeTokens()":"6b7f3d1a","platformFeeTokensClaimed()":"63280c51","platformFeeVestingDuration()":"420fc210","platformFeeVestingEnabled()":"fadcac27","platformFeeVestingStart()":"2791770a","presaleInfo()":"2edf0869","proxiableUUID()":"52d1902d","renounceOwnership()":"715018a6","setTimeLock(address,uint256)":"644fab74","symbol()":"95d89b41","timeLockEnabled()":"cba4cbd3","timeLocks(address)":"7f76b223","totalSupply()":"18160ddd","transfer(address,uint256)":"a9059cbb","transferFrom(address,address,uint256)":"23b872dd","transferOwnership(address)":"f2fde38b","unpause()":"3f4ba83a","updateBlacklist(address[],bool)":"bb0e69e8","updateWhitelist(address[],bool)":"aff177ca","upgradeTo(address)":"3659cfe6","upgradeToAndCall(address,bytes)":"4f1ef286","whitelist(address)":"9b19251a"}},"storageLayout":{"storage":[{"astId":505,"contract":"src/contracts/TokenTemplate_v2.sol:TokenTemplate_v2","label":"_initialized","offset":0,"slot":"0","type":"t_uint8"},{"astId":508,"contract":"src/contracts/TokenTemplate_v2.sol:TokenTemplate_v2","label":"_initializing","offset":1,"slot":"0","type":"t_bool"},{"astId":2239,"contract":"src/contracts/TokenTemplate_v2.sol:TokenTemplate_v2","label":"__gap","offset":0,"slot":"1","type":"t_array(t_uint256)50_storage"},{"astId":1037,"contract":"src/contracts/TokenTemplate_v2.sol:TokenTemplate_v2","label":"_balances","offset":0,"slot":"51","type":"t_mapping(t_address,t_uint256)"},{"astId":1043,"contract":"src/contracts/TokenTemplate_v2.sol:TokenTemplate_v2","label":"_allowances","offset":0,"slot":"52","type":"t_mapping(t_address,t_mapping(t_address,t_uint256))"},{"astId":1045,"contract":"src/contracts/TokenTemplate_v2.sol:TokenTemplate_v2","label":"_totalSupply","offset":0,"slot":"53","type":"t_uint256"},{"astId":1047,"contract":"src/contracts/TokenTemplate_v2.sol:TokenTemplate_v2","label":"_name","offset":0,"slot":"54","type":"t_string_storage"},{"astId":1049,"contract":"src/contracts/TokenTemplate_v2.sol:TokenTemplate_v2","label":"_symbol","offset":0,"slot":"55","type":"t_string_storage"},{"astId":1629,"contract":"src/contracts/TokenTemplate_v2.sol:TokenTemplate_v2","label":"__gap","offset":0,"slot":"56","type":"t_array(t_uint256)45_storage"},{"astId":1772,"contract":"src/contracts/TokenTemplate_v2.sol:TokenTemplate_v2","label":"__gap","offset":0,"slot":"101","type":"t_array(t_uint256)50_storage"},{"astId":826,"contract":"src/contracts/TokenTemplate_v2.sol:TokenTemplate_v2","label":"_paused","offset":0,"slot":"151","type":"t_bool"},{"astId":931,"contract":"src/contracts/TokenTemplate_v2.sol:TokenTemplate_v2","label":"__gap","offset":0,"slot":"152","type":"t_array(t_uint256)49_storage"},{"astId":1833,"contract":"src/contracts/TokenTemplate_v2.sol:TokenTemplate_v2","label":"__gap","offset":0,"slot":"201","type":"t_array(t_uint256)50_storage"},{"astId":11,"contract":"src/contracts/TokenTemplate_v2.sol:TokenTemplate_v2","label":"_owner","offset":0,"slot":"251","type":"t_address"},{"astId":131,"contract":"src/contracts/TokenTemplate_v2.sol:TokenTemplate_v2","label":"__gap","offset":0,"slot":"252","type":"t_array(t_uint256)49_storage"},{"astId":487,"contract":"src/contracts/TokenTemplate_v2.sol:TokenTemplate_v2","label":"__gap","offset":0,"slot":"301","type":"t_array(t_uint256)50_storage"},{"astId":803,"contract":"src/contracts/TokenTemplate_v2.sol:TokenTemplate_v2","label":"__gap","offset":0,"slot":"351","type":"t_array(t_uint256)50_storage"},{"astId":947,"contract":"src/contracts/TokenTemplate_v2.sol:TokenTemplate_v2","label":"_status","offset":0,"slot":"401","type":"t_uint256"},{"astId":1016,"contract":"src/contracts/TokenTemplate_v2.sol:TokenTemplate_v2","label":"__gap","offset":0,"slot":"402","type":"t_array(t_uint256)49_storage"},{"astId":3874,"contract":"src/contracts/TokenTemplate_v2.sol:TokenTemplate_v2","label":"presaleInfo","offset":0,"slot":"451","type":"t_struct(PresaleInfo)3871_storage"},{"astId":3878,"contract":"src/contracts/TokenTemplate_v2.sol:TokenTemplate_v2","label":"whitelist","offset":0,"slot":"460","type":"t_mapping(t_address,t_bool)"},{"astId":3882,"contract":"src/contracts/TokenTemplate_v2.sol:TokenTemplate_v2","label":"contributions","offset":0,"slot":"461","type":"t_mapping(t_address,t_uint256)"},{"astId":3884,"contract":"src/contracts/TokenTemplate_v2.sol:TokenTemplate_v2","label":"maxSupply","offset":0,"slot":"462","type":"t_uint256"},{"astId":3886,"contract":"src/contracts/TokenTemplate_v2.sol:TokenTemplate_v2","label":"blacklistEnabled","offset":0,"slot":"463","type":"t_bool"},{"astId":3888,"contract":"src/contracts/TokenTemplate_v2.sol:TokenTemplate_v2","label":"timeLockEnabled","offset":1,"slot":"463","type":"t_bool"},{"astId":3892,"contract":"src/contracts/TokenTemplate_v2.sol:TokenTemplate_v2","label":"blacklist","offset":0,"slot":"464","type":"t_mapping(t_address,t_bool)"},{"astId":3896,"contract":"src/contracts/TokenTemplate_v2.sol:TokenTemplate_v2","label":"timeLocks","offset":0,"slot":"465","type":"t_mapping(t_address,t_uint256)"},{"astId":3898,"contract":"src/contracts/TokenTemplate_v2.sol:TokenTemplate_v2","label":"platformFeeRecipient","offset":0,"slot":"466","type":"t_address"},{"astId":3900,"contract":"src/contracts/TokenTemplate_v2.sol:TokenTemplate_v2","label":"platformFeeTokens","offset":0,"slot":"467","type":"t_uint256"},{"astId":3902,"contract":"src/contracts/TokenTemplate_v2.sol:TokenTemplate_v2","label":"platformFeeVestingEnabled","offset":0,"slot":"468","type":"t_bool"},{"astId":3904,"contract":"src/contracts/TokenTemplate_v2.sol:TokenTemplate_v2","label":"platformFeeVestingDuration","offset":0,"slot":"469","type":"t_uint256"},{"astId":3906,"contract":"src/contracts/TokenTemplate_v2.sol:TokenTemplate_v2","label":"platformFeeCliffDuration","offset":0,"slot":"470","type":"t_uint256"},{"astId":3908,"contract":"src/contracts/TokenTemplate_v2.sol:TokenTemplate_v2","label":"platformFeeVestingStart","offset":0,"slot":"471","type":"t_uint256"},{"astId":3910,"contract":"src/contracts/TokenTemplate_v2.sol:TokenTemplate_v2","label":"platformFeeTokensClaimed","offset":0,"slot":"472","type":"t_uint256"}],"types":{"t_address":{"encoding":"inplace","label":"address","numberOfBytes":"20"},"t_array(t_uint256)45_storage":{"base":"t_uint256","encoding":"inplace","label":"uint256[45]","numberOfBytes":"1440"},"t_array(t_uint256)49_storage":{"base":"t_uint256","encoding":"inplace","label":"uint256[49]","numberOfBytes":"1568"},"t_array(t_uint256)50_storage":{"base":"t_uint256","encoding":"inplace","label":"uint256[50]","numberOfBytes":"1600"},"t_bool":{"encoding":"inplace","label":"bool","numberOfBytes":"1"},"t_mapping(t_address,t_bool)":{"encoding":"mapping","key":"t_address","label":"mapping(address => bool)","numberOfBytes":"32","value":"t_bool"},"t_mapping(t_address,t_mapping(t_address,t_uint256))":{"encoding":"mapping","key":"t_address","label":"mapping(address => mapping(address => uint256))","numberOfBytes":"32","value":"t_mapping(t_address,t_uint256)"},"t_mapping(t_address,t_uint256)":{"encoding":"mapping","key":"t_address","label":"mapping(address => uint256)","numberOfBytes":"32","value":"t_uint256"},"t_string_storage":{"encoding":"bytes","label":"string","numberOfBytes":"32"},"t_struct(PresaleInfo)3871_storage":{"encoding":"inplace","label":"struct TokenTemplate_v2.PresaleInfo","members":[{"astId":3852,"contract":"src/contracts/TokenTemplate_v2.sol:TokenTemplate_v2","label":"softCap","offset":0,"slot":"0","type":"t_uint256"},{"astId":3854,"contract":"src/contracts/TokenTemplate_v2.sol:TokenTemplate_v2","label":"hardCap","offset":0,"slot":"1","type":"t_uint256"},{"astId":3856,"contract":"src/contracts/TokenTemplate_v2.sol:TokenTemplate_v2","label":"minContribution","offset":0,"slot":"2","type":"t_uint256"},{"astId":3858,"contract":"src/contracts/TokenTemplate_v2.sol:TokenTemplate_v2","label":"maxContribution","offset":0,"slot":"3","type":"t_uint256"},{"astId":3860,"contract":"src/contracts/TokenTemplate_v2.sol:TokenTemplate_v2","label":"startTime","offset":0,"slot":"4","type":"t_uint256"},{"astId":3862,"contract":"src/contracts/TokenTemplate_v2.sol:TokenTemplate_v2","label":"endTime","offset":0,"slot":"5","type":"t_uint256"},{"astId":3864,"contract":"src/contracts/TokenTemplate_v2.sol:TokenTemplate_v2","label":"presaleRate","offset":0,"slot":"6","type":"t_uint256"},{"astId":3866,"contract":"src/contracts/TokenTemplate_v2.sol:TokenTemplate_v2","label":"whitelistEnabled","offset":0,"slot":"7","type":"t_bool"},{"astId":3868,"contract":"src/contracts/TokenTemplate_v2.sol:TokenTemplate_v2","label":"finalized","offset":1,"slot":"7","type":"t_bool"},{"astId":3870,"contract":"src/contracts/TokenTemplate_v2.sol:TokenTemplate_v2","label":"totalContributed","offset":0,"slot":"8","type":"t_uint256"}],"numberOfBytes":"288"},"t_uint256":{"encoding":"inplace","label":"uint256","numberOfBytes":"32"},"t_uint8":{"encoding":"inplace","label":"uint8","numberOfBytes":"1"}}},"userdoc":{"kind":"user","methods":{},"version":1}}}}