{"src/contracts/TokenFactory_v1.sol":{"TokenFactory_v1":{"abi":[{"inputs":[{"internalType":"uint256","name":"initialFee","type":"uint256"}],"stateMutability":"nonpayable","type":"constructor"},{"anonymous":false,"inputs":[{"indexed":false,"internalType":"uint256","name":"newFee","type":"uint256"}],"name":"DeploymentFeeUpdated","type":"event"},{"anonymous":false,"inputs":[{"indexed":true,"internalType":"address","name":"previousOwner","type":"address"},{"indexed":true,"internalType":"address","name":"newOwner","type":"address"}],"name":"OwnershipTransferred","type":"event"},{"anonymous":false,"inputs":[{"indexed":true,"internalType":"address","name":"token","type":"address"},{"indexed":false,"internalType":"string","name":"name","type":"string"},{"indexed":false,"internalType":"string","name":"symbol","type":"string"},{"indexed":true,"internalType":"address","name":"owner","type":"address"},{"indexed":false,"internalType":"uint256","name":"initialSupply","type":"uint256"},{"indexed":false,"internalType":"uint256","name":"maxSupply","type":"uint256"},{"indexed":false,"internalType":"bool","name":"blacklistEnabled","type":"bool"},{"indexed":false,"internalType":"bool","name":"timeLockEnabled","type":"bool"},{"indexed":false,"internalType":"uint256","name":"deploymentTime","type":"uint256"}],"name":"TokenCreated","type":"event"},{"inputs":[],"name":"VERSION","outputs":[{"internalType":"string","name":"","type":"string"}],"stateMutability":"view","type":"function"},{"inputs":[],"name":"VERSION_HASH","outputs":[{"internalType":"bytes32","name":"","type":"bytes32"}],"stateMutability":"view","type":"function"},{"inputs":[{"internalType":"string","name":"name","type":"string"},{"internalType":"string","name":"symbol","type":"string"},{"internalType":"uint256","name":"initialSupply","type":"uint256"},{"internalType":"uint256","name":"maxSupply","type":"uint256"},{"internalType":"bool","name":"enableBlacklist","type":"bool"},{"internalType":"bool","name":"enableTimeLock","type":"bool"}],"name":"createToken","outputs":[],"stateMutability":"payable","type":"function"},{"inputs":[],"name":"deploymentFee","outputs":[{"internalType":"uint256","name":"","type":"uint256"}],"stateMutability":"view","type":"function"},{"inputs":[],"name":"getDeployedTokens","outputs":[{"internalType":"address[]","name":"","type":"address[]"}],"stateMutability":"view","type":"function"},{"inputs":[{"internalType":"address","name":"token","type":"address"}],"name":"getTokenDeployer","outputs":[{"internalType":"address","name":"","type":"address"}],"stateMutability":"view","type":"function"},{"inputs":[{"internalType":"address","name":"user","type":"address"}],"name":"getUserTokens","outputs":[{"internalType":"address[]","name":"","type":"address[]"}],"stateMutability":"view","type":"function"},{"inputs":[],"name":"owner","outputs":[{"internalType":"address","name":"","type":"address"}],"stateMutability":"view","type":"function"},{"inputs":[],"name":"renounceOwnership","outputs":[],"stateMutability":"nonpayable","type":"function"},{"inputs":[{"internalType":"uint256","name":"newFee","type":"uint256"}],"name":"setDeploymentFee","outputs":[],"stateMutability":"nonpayable","type":"function"},{"inputs":[{"internalType":"address","name":"newOwner","type":"address"}],"name":"transferOwnership","outputs":[],"stateMutability":"nonpayable","type":"function"},{"inputs":[],"name":"withdrawFees","outputs":[],"stateMutability":"nonpayable","type":"function"}],"evm":{"bytecode":{"linkReferences":{},"object":"60806040523462000030576200001e62000018620000a0565b62000103565b6040516138fc6200026382396138fc90f35b600080fd5b634e487b7160e01b600052604160045260246000fd5b90601f01601f191681019081106001600160401b038211176200006d57604052565b62000035565b906200008a6200008260405190565b92836200004b565b565b906020828203126200003057505190565b90565b6200009d62003b5f80380380620000b78162000073565b9283398101906200008c565b90600019905b9181191691161790565b6200009d6200009d6200009d9290565b90620000f76200009d620000ff92620000d3565b8254620000c3565b9055565b620001507f40bd824d588484917db8fa4fc894c1e0feae5a75885290ba7b97521cebf82a80916200013362000161565b62000140816002620000e3565b6040519182918290815260200190565b0390a1565b6200009d6001620000d3565b6200016b62000181565b6200008a6200017962000155565b6001620000e3565b6200008a3362000202565b6200009d905b6001600160a01b031690565b6200009d90546200018c565b906001600160a01b0390620000c9565b6200009d9062000192906001600160a01b031682565b6200009d90620001ba565b6200009d90620001d0565b90620001fa6200009d620000ff92620001db565b8254620001aa565b62000230620002296200021660006200019e565b62000223846000620001e6565b620001db565b91620001db565b907f8be0079c531659141344cd1fd0a4f28419497f9722a3daafe3b4186f6b6457e06200025c60405190565b600090a356fe608060405260043610156200001357600080fd5b60003560e01c8063476343ee14620000ea578063519dc8d214620000e4578063622ae7aa14620000de578063715018a614620000d85780637c9b544514620000d25780638da5cb5b14620000cc5780639e4e731814620000c6578063b14e7ee614620000c0578063d002462b14620000ba578063f2cff57f14620000b4578063f2fde38b14620000ae5763ffa1ad7403620000f0576200068d565b6200061a565b620005f9565b620005b5565b6200057d565b6200054c565b6200042a565b620003fa565b62000250565b6200022f565b62000201565b62000101565b600080fd5b6000910312620000f057565b34620000f05762000114366004620000f5565b6200011e62000794565b604051005b0390f35b6001600160a01b031690565b90565b620001418162000127565b03620000f057565b90503590620001588262000136565b565b90602082820312620000f057620001339162000149565b6200017c9062000127565b9052565b906200018f8160209362000171565b0190565b90620001b6620001af620001a5845190565b8084529260200190565b9260200190565b9060005b818110620001c85750505090565b909192620001e5620001de600192865162000180565b9460200190565b929101620001ba565b6020808252620001339291019062000193565b34620000f05762000123620002226200021c3660046200015a565b6200086b565b60405191829182620001ee565b34620000f05762000242366004620000f5565b62000123620002226200088c565b34620000f05762000263366004620000f5565b6200011e620008dd565b634e487b7160e01b600052604160045260246000fd5b90601f01601f191681019081106001600160401b03821117620002a557604052565b6200026d565b9062000158620002ba60405190565b928362000283565b6001600160401b038111620002a557602090601f01601f19160190565b90826000939282370152565b9092919262000304620002fe82620002c2565b620002ab565b9381855281830111620000f05762000158916020850190620002df565b9080601f83011215620000f0578160206200013393359101620002eb565b8062000141565b9050359062000158826200033f565b80151562000141565b90503590620001588262000355565b909160c082840312620000f05781356001600160401b038111620000f057836200039991840162000321565b9260208301356001600160401b038111620000f05781620003bc91850162000321565b92620003cc826040830162000346565b9262000133620003e0846060850162000346565b9360a0620003f282608087016200035e565b94016200035e565b6200011e6200040b3660046200036d565b9493909392919262000c7b565b60208101929162000158919062000171565b34620000f0576200043d366004620000f5565b620001236200044b62000c8b565b6040519182918262000418565b9062000468620002fe83620002c2565b918252565b62000479600562000458565b640312e302e360dc1b602082015290565b620001336200046d565b620001336200048a565b60005b838110620004b25750506000910152565b8181015183820152602001620004a1565b6200018f620004de92602092620004d8815190565b94859290565b938491016200049e565b6200013391620004c3565b620004fd62000494565b6200052a6200050b60405190565b80926200051d602083019182620004e8565b9081038252038262000283565b6200053e62000537825190565b9160200190565b2090565b62000133620004f3565b34620000f0576200055f366004620000f5565b620001236200056d62000542565b6040519182918290815260200190565b34620000f057620001236200044b620005983660046200015a565b62000c97565b90602082820312620000f057620001339162000346565b34620000f0576200011e620005cc3660046200059e565b62000d3c565b62000133916008021c81565b90620001339154620005d2565b6200013360006002620005de565b34620000f0576200060c366004620000f5565b620001236200056d620005eb565b34620000f0576200011e620006313660046200015a565b62000dea565b6200013362000494565b62000666620006706020936200018f936200065a815190565b80835293849260200190565b958691016200049e565b601f01601f191690565b6020808252620001339291019062000641565b34620000f057620006a0366004620000f5565b62000123620006ae62000637565b604051918291826200067a565b620006c562000e47565b6200015862000760565b620001339062000127906001600160a01b031682565b6200013390620006cf565b6200013390620006e5565b3d1562000718576200070d3d62000458565b903d6000602084013e565b606090565b156200072557565b60405162461bcd60e51b815260206004820152600f60248201526e151c985b9cd9995c8819985a5b1959608a1b6044820152606490fd5b0390fd5b620001586000806200077230620006f0565b316200077d60405190565b600091335af16200078d620006fb565b506200071d565b62000158620006bb565b90620007aa90620006f0565b600052602052604060002090565b620001339062000127565b620001339054620007b8565b90620007ed620007e1620001a5845490565b92600052602060002090565b9060005b818110620007ff5750505090565b909192620008256200081e6001926200081887620007c3565b62000180565b9460010190565b929101620007f1565b906200013391620007cf565b906200015862000858926200084e60405190565b938480926200082e565b038362000283565b62000133906200083a565b6200088662000133916200087d606090565b5060046200079e565b62000860565b62000133600362000860565b620008a262000e47565b62000158620008c7565b6200012762000133620001339290565b6200013390620008ac565b62000158620008d76000620008bc565b62000e72565b6200015862000898565b90620009019594939291620008fb62000f27565b62000b0f565b6200015862000f63565b620001339081565b6200013390546200090b565b156200092757565b60405162461bcd60e51b815260206004820152601b60248201527a496e73756666696369656e74206465706c6f796d656e742066656560281b6044820152606490fd5b6040513d6000823e3d90fd5b92979694620009da90620009cf60c096620009c8620009c0620009e397620009b1620001589d9860e08c01908c600081840391015262000641565b908a820360208c015262000641565b9c6040890152565b6060870152565b608085019062000171565b151560a0830152565b019015159052565b634e487b7160e01b600052603260045260246000fd5b805482101562000a265762000a1d600191600052602060002090565b91020190600090565b620009eb565b916001600160a01b0360089290920291821b911b5b9181191691161790565b919062000a606200013362000a6993620006f0565b90835462000a2c565b9055565b80549190600160401b831015620002a5578262000a94916001620001589501815562000a01565b9062000a4b565b906001600160a01b039062000a41565b9062000abf6200013362000a6992620006f0565b825462000a9b565b92979694620009da9062000b0260c096620009c8620009c062000b0b97620009b1620001589d9860e08c01908c600081840391015262000641565b15156080850152565b0152565b929462000b2e62000b2562000133600262000913565b3410156200091f565b60405161295581016001600160401b03811182821017620002a55762000b5b829161295562000f72843990565b03906000f0801562000c755762000b7290620006f0565b93843b15620000f057604051916306b51ae560e51b83526000838062000ba2848b338e8c8c8b6004890162000976565b0381838a5af1801562000c75577f89ecfc33d2a43016e717c18dee2db6a3f8b15851f7f5b885254663ed9fa9ab369662000c4d9462000c2a9262000c52575b5062000bf581600362000a6d565b62000a6d565b62000c0b8162000bef620001333360046200079e565b62000c2462000c1c8260056200079e565b339062000aab565b620006f0565b9662000c3633620006f0565b9862000c4160405190565b96879642958862000ac7565b0390a3565b62000c6e90600062000c65818362000283565b810190620000f5565b3862000be1565b6200096a565b90620001589594939291620008e7565b620001336000620007c3565b62000cb2620001339162000ca9600090565b5060056200079e565b620007c3565b620001589062000cc762000e47565b62000d04565b906000199062000a41565b6200013362000133620001339290565b9062000cfc6200013362000a699262000cd8565b825462000ccd565b62000d377f40bd824d588484917db8fa4fc894c1e0feae5a75885290ba7b97521cebf82a80916200056d81600262000ce8565b0390a1565b620001589062000cb8565b620001589062000d5662000e47565b62000db8565b1562000d6457565b60405162461bcd60e51b815260206004820152602660248201527f4f776e61626c653a206e6577206f776e657220697320746865207a65726f206160448201526564647265737360d01b6064820152608490fd5b6200015890620008d762000dd762000dd16000620008bc565b62000127565b62000de28362000127565b141562000d5c565b620001589062000d47565b1562000dfd57565b60405162461bcd60e51b8152806200075c600482016020808252818101527f4f776e61626c653a2063616c6c6572206973206e6f7420746865206f776e6572604082015260600190565b6200015862000e5562000c8b565b62000e6b62000e643362000127565b9162000127565b1462000df5565b62000e9a62000e9362000e866000620007c3565b62000c2484600062000aab565b91620006f0565b907f8be0079c531659141344cd1fd0a4f28419497f9722a3daafe3b4186f6b6457e062000ec660405190565b808062000c4d565b62000133600262000cd8565b1562000ee257565b60405162461bcd60e51b815260206004820152601f60248201527f5265656e7472616e637947756172643a207265656e7472616e742063616c6c006044820152606490fd5b6200015862000f37600162000913565b62000f4f62000f4562000ece565b9182141562000eda565b600162000ce8565b62000133600162000cd8565b6200015862000f4f62000f5756fe60a0604052346200003657620000146200003b565b604051612763620001f28239608051818181610d4f0152611054015261276390f35b600080fd5b620000456200008c565b6200004f62000177565b565b62000067906200006a906001600160a01b031682565b90565b6001600160a01b031690565b620000679062000051565b620000679062000076565b620000973062000081565b608052565b620000679060081c5b60ff1690565b6200006790546200009c565b60208082526027908201527f496e697469616c697a61626c653a20636f6e747261637420697320696e697469604082015266616c697a696e6760c81b606082015260800190565b156200010657565b60405162461bcd60e51b8152806200012160048201620000b7565b0390fd5b6200006790620000a5565b62000067905462000125565b620000a562000067620000679260ff1690565b90620001636200006762000173926200013c565b825460ff191660ff919091161790565b9055565b620001956200018f6200018b6000620000ab565b1590565b620000fe565b620001a1600062000130565b60ff90811603620001ae57565b620001bc60ff60006200014f565b7f7f26b83ff96e1f2b6a682f133852f6798a09c465da95921460cefb3847402498620001e760405190565b60ff8152602090a156fe6080604052600436101561001257600080fd5b60003560e01c806303d29d281461022257806306fdde031461021d578063095ea7b31461021857806318160ddd1461021357806323b872dd1461020e578063313ce567146102095780633659cfe61461020457806339509351146101ff5780633f4ba83a146101fa57806340c10f19146101f55780634a492d53146101f05780634f1ef286146101eb57806352d1902d146101e65780635c975abb146101e157806370a08231146101dc578063715018a6146101d75780637572a9db146101d25780638456cb59146101cd5780638da5cb5b146101c857806395d89b41146101c35780639e4e7318146101be578063a457c2d7146101b9578063a9059cbb146101b4578063aa31aee8146101af578063bffb691d146101aa578063cba4cbd3146101a5578063d5abeb01146101a0578063d6a35ca01461019b578063dd62ed3e14610196578063ebba564414610191578063f2fde38b1461018c578063fe575a87146101875763ffa1ad7403610227576109dc565b6109b9565b6109a1565b610988565b61096c565b61092a565b61088c565b610871565b610849565b610807565b6107eb565b6107cf565b6107b4565b6106e4565b6106bd565b61068c565b610674565b61065c565b610641565b610626565b61060b565b6105f7565b6104e8565b6104bb565b6104a3565b610487565b61046f565b61042c565b610410565b6103bb565b61038c565b61032b565b610292565b600080fd5b6001600160a01b031690565b90565b6102448161022c565b0361022757565b905035906102588261023b565b565b801515610244565b905035906102588261025a565b91906040838203126102275761023890602061028b828661024b565b9401610262565b34610227576102ab6102a536600461026f565b90610b38565b604051005b0390f35b600091031261022757565b60005b8381106102d25750506000910152565b81810151838201526020016102c2565b61030361030c602093610316936102f7815190565b80835293849260200190565b958691016102bf565b601f01601f191690565b0190565b6020808252610238929101906102e2565b346102275761033b3660046102b4565b6102b0610346610c3a565b6040519182918261031a565b80610244565b9050359061025882610352565b919060408382031261022757610238906020610381828661024b565b9401610358565b9052565b34610227576102b06103a86103a2366004610365565b90610c44565b6040515b91829182901515815260200190565b34610227576103cb3660046102b4565b6102b06103d6610c65565b6040515b9182918290815260200190565b909160608284031261022757610238610400848461024b565b936040610381826020870161024b565b34610227576102b06103a86104263660046103e7565b91610c6f565b346102275761043c3660046102b4565b6102b0610447610c92565b6040519182918260ff909116815260200190565b90602082820312610227576102389161024b565b34610227576102ab61048236600461045b565b610e02565b34610227576102b06103a861049d366004610365565b90610e33565b34610227576104b33660046102b4565b6102ab610e65565b34610227576102ab6104ce366004610365565b90610ef5565b906020828203126102275761023891610262565b34610227576102ab6104fb3660046104d4565b610f96565b634e487b7160e01b600052604160045260246000fd5b90601f01601f191681019081106001600160401b0382111761053757604052565b610500565b9061025861054960405190565b9283610516565b6001600160401b03811161053757602090601f01601f19160190565b90826000939282370152565b9092919261058d61058882610550565b61053c565b93818552818301116102275761025891602085019061056c565b9080601f830112156102275781602061023893359101610578565b919091604081840312610227576105d9838261024b565b9260208201356001600160401b0381116102275761023892016105a7565b6102ab6106053660046105c2565b90610fc5565b346102275761061b3660046102b4565b6102b06103d66110b5565b34610227576106363660046102b4565b6102b06103a86110bf565b34610227576102b06103d661065736600461045b565b6110c9565b346102275761066c3660046102b4565b6102ab61111d565b34610227576102ab6106873660046104d4565b61118f565b346102275761069c3660046102b4565b6102ab6111ab565b6103889061022c565b60208101929161025891906106a4565b34610227576106cd3660046102b4565b6102b06106d86111c6565b604051918291826106ad565b34610227576106f43660046102b4565b6102b06103466111d0565b9061070c61058883610550565b918252565b61071b60056106ff565b640312e302e360dc1b602082015290565b610238610711565b61023861072c565b6103166107549260209261074e815190565b94859290565b938491016102bf565b6102389161073c565b61076e610734565b61079661077a60405190565b809261078a60208301918261075d565b90810382520382610516565b6107a86107a1825190565b9160200190565b2090565b610238610766565b34610227576107c43660046102b4565b6102b06103d66107ac565b34610227576102b06103a86107e5366004610365565b90611234565b34610227576102b06103a8610801366004610365565b90611258565b34610227576102b06103d661081d36600461045b565b611263565b610238916008021c5b60ff1690565b906102389154610822565b6102386000610162610831565b34610227576108593660046102b4565b6102b06103a861083c565b6102386001610162610831565b34610227576108813660046102b4565b6102b06103a8610864565b346102275761089c3660046102b4565b6102b06103d661127b565b60e0818303126102275780356001600160401b03811161022757826108cd9183016105a7565b9260208201356001600160401b03811161022757836108ed9184016105a7565b926108fb8160408501610358565b926109098260608301610358565b9261023861091a846080850161024b565b9360c061028b8260a08701610262565b34610227576102ab61093d3660046108a7565b95949094939193611575565b919060408382031261022757610238906020610965828661024b565b940161024b565b34610227576102b06103d6610982366004610949565b90611584565b34610227576102ab61099b366004610365565b906116b1565b34610227576102ab6109b436600461045b565b61174b565b34610227576102b06103a86109cf36600461045b565b611754565b610238610734565b34610227576109ec3660046102b4565b6102b06103466109d4565b9061025891610a046117cf565b610ad4565b6102389061082b565b6102389054610a09565b15610a2357565b60405162461bcd60e51b815260206004820152601d60248201527f426c61636b6c6973742066656174757265206e6f7420656e61626c65640000006044820152606490fd5b0390fd5b6102389061022c906001600160a01b031682565b61023890610a6c565b61023890610a80565b90610a9c90610a89565b600052602052604060002090565b9060ff905b9181191691161790565b90610ac9610238610ad092151590565b8254610aaa565b9055565b610b33610b297f6a12b3df6cba4203bd7fd06b816789f87de8c594299aed5717ae070fac781bac92610b0f610b0a610162610a12565b610a1c565b610b2485610b1f83610160610a92565b610ab9565b610a89565b926103ac60405190565b0390a2565b90610258916109f7565b634e487b7160e01b600052602260045260246000fd5b9060016002830492168015610b78575b6020831014610b7357565b610b42565b91607f1691610b68565b80546000939291610b9f610b9583610b58565b8085529360200190565b9160018116908115610bf15750600114610bb857505050565b610bcb9192939450600052602060002090565b916000925b818410610bdd5750500190565b805484840152602090930192600101610bd0565b92949550505060ff1916825215156020020190565b9061023891610b82565b90610258610c2a92610c2160405190565b93848092610c06565b0383610516565b61023890610c10565b6102386036610c31565b610c4f91903361189b565b600190565b6102389081565b6102389054610c54565b6102386035610c5b565b610c4f929190610c80833383611976565b611abb565b61082b6102386102389290565b6102386012610c85565b15610ca357565b60405162461bcd60e51b815260206004820152602c60248201526000805160206126ce83398151915260448201526b19195b1959d85d1958d85b1b60a21b6064820152608490fd5b15610cf257565b60405162461bcd60e51b815260206004820152602c60248201526000805160206126ce83398151915260448201526b6163746976652070726f787960a01b6064820152608490fd5b61025890610da2610d4a30610a89565b610d887f000000000000000000000000000000000000000000000000000000000000000091610d81610d7b8461022c565b9161022c565b1415610c9c565b610d9c610d7b610d96611b61565b9261022c565b14610ceb565b610ddc565b6102386102386102389290565b369037565b90610258610dcf610dc9846106ff565b93610550565b601f190160208401610db4565b600061025891610deb81611b80565b610dfc610df783610da7565b610db9565b90611c31565b61025890610d3a565b634e487b7160e01b600052601160045260246000fd5b91908201809211610e2e57565b610e0b565b610c4f9190610e4c3392610e478385611584565b610e21565b9161189b565b610e5a6117cf565b610258610258611d81565b610258610e52565b9061025891610e7a6117cf565b610ec0565b15610e8657565b60405162461bcd60e51b815260206004820152601260248201527145786365656473206d617820737570706c7960701b6044820152606490fd5b9061025891610ef0610ed483610e47610c65565b610ee9610ee561023861015f610c5b565b9190565b1115610e7f565b611dd5565b9061025891610e6d565b61025890610f0b6117cf565b610f66565b9061ff009060081b610aaf565b90610f2d610238610ad092151590565b8254610f10565b60408082526008908201526774696d656c6f636b60c01b60608201529190610258906020608085015b94019015159052565b610f916000805160206126ee83398151915291610f8581610162610f1d565b60405191829182610f34565b0390a1565b61025890610eff565b9061025891610fb0610d4a30610a89565b61025891600191610fc081611b80565b611c31565b9061025891610f9f565b15610fd657565b60405162461bcd60e51b815260206004820152603860248201527f555550535570677261646561626c653a206d757374206e6f742062652063616c6044820152771b1959081d1a1c9bdd59da0819195b1959d85d1958d85b1b60421b6064820152608490fd5b6102389061107e61104c30610a89565b611078610d7b7f000000000000000000000000000000000000000000000000000000000000000061022c565b14610fcf565b6110ac565b6102387f360894a13ba1a3210667c828492db98dca3e2076cc3735a920a3ca505d382bbc610da7565b50610238611083565b610238600061103c565b6102386065610a12565b6110e0610238916110d8600090565b506033610a92565b610c5b565b6110ed6117cf565b61025861110b565b61022c6102386102389290565b610238906110f5565b6102586111186000611102565b611e6a565b6102586110e5565b610258906111316117cf565b611164565b604080825260099082015268189b1858dadb1a5cdd60ba1b6060820152919061025890602060808501610f5d565b610f916000805160206126ee8339815191529161118381610162610ab9565b60405191829182611136565b61025890611125565b6111a06117cf565b610258610258611efe565b610258611198565b6102389061022c565b61023890546111b3565b61023860c96111bc565b6102386037610c31565b156111e157565b60405162461bcd60e51b815260206004820152602560248201527f45524332303a2064656372656173656420616c6c6f77616e63652062656c6f77604482015264207a65726f60d81b6064820152608490fd5b610c4f9190610e4c33926112488385611584565b611254828210156111da565b0390565b610c4f919033611abb565b6110e061023891611272600090565b50610161610a92565b61023861015f610c5b565b6102389060081c61082b565b6102389054611286565b156112a357565b60405162461bcd60e51b815260206004820152602e60248201527f496e697469616c697a61626c653a20636f6e747261637420697320616c72656160448201526d191e481a5b9a5d1a585b1a5e995960921b6064820152608490fd5b61082b6102386102389260ff1690565b90610ac9610238610ad0926112ff565b61038890610c85565b602081019291610258919061131f565b95939161138895939161135261134e6000611292565b1590565b978880611425575b80156113e0575b61136a9061129c565b8861137f6113786001610c85565b600061130f565b6113cf576114c2565b61138e57565b611399600080610f1d565b7f7f26b83ff96e1f2b6a682f133852f6798a09c465da95921460cefb38474024986113c360405190565b80610f91600182611328565b6113db60016000610f1d565b6114c2565b506113f561134e6113f030610a89565b611f06565b8015611361575061136a6114096000610a12565b61141d6114166001610c85565b9160ff1690565b149050611361565b506114306000610a12565b61143d6114166001610c85565b1061135a565b1561144a57565b60405162461bcd60e51b815260206004820152602960248201527f4d617820737570706c79206d7573742062652030206f72203e3d20696e697469604482015268616c20737570706c7960b81b6064820152608490fd5b9060001990610aaf565b906114bb610238610ad092610da7565b82546114a1565b94610ef0936114d961154c93610258999598611f99565b6114e1611fbb565b6114e9611fdb565b6114f1611ff0565b6115036114fe6000611102565b61022c565b61150c8761022c565b03611567575b61151c6000610da7565b811480811561155d575b61152f90611443565b1561155457506115446000195b61015f6114ab565b610162610ab9565b610162610f1d565b6115449061153c565b5087821015611526565b61157086611e6a565b611512565b90610258969594939291611338565b6102389161159f6110e092611597600090565b506034610a92565b610a92565b90610258916115b16117cf565b61164c565b156115bd57565b60405162461bcd60e51b815260206004820152601d60248201527f54696d65206c6f636b2066656174757265206e6f7420656e61626c65640000006044820152606490fd5b1561160957565b60405162461bcd60e51b815260206004820152601b60248201527a4c6f636b2074696d65206d75737420626520696e2066757475726560281b6044820152606490fd5b610b336116a77fa9353e70f07f31e7f4e16464f45e189cbd22826780a5abe4da8303652a86960a92611687611682610162611292565b6115b6565b611692428611611602565b610b24856116a283610161610a92565b6114ab565b926103da60405190565b90610258916115a4565b610258906116c76117cf565b611727565b156116d357565b60405162461bcd60e51b815260206004820152602660248201527f4f776e61626c653a206e6577206f776e657220697320746865207a65726f206160448201526564647265737360d01b6064820152608490fd5b6102589061111861173b6114fe6000611102565b6117448361022c565b14156116cc565b610258906116bb565b61175f610162610a12565b9081611769575090565b610238915061177a90610160610a92565b610a12565b1561178657565b60405162461bcd60e51b815280610a68600482016020808252818101527f4f776e61626c653a2063616c6c6572206973206e6f7420746865206f776e6572604082015260600190565b6102586117da6111c6565b6117e6610d7b3361022c565b1461177f565b156117f357565b60405162461bcd60e51b8152602060048201526024808201527f45524332303a20617070726f76652066726f6d20746865207a65726f206164646044820152637265737360e01b6064820152608490fd5b1561184b57565b60405162461bcd60e51b815260206004820152602260248201527f45524332303a20617070726f766520746f20746865207a65726f206164647265604482015261737360f01b6064820152608490fd5b61192561191b6119157f8c5be1e5ebec7d5bd14f71427d1e84f3dd0314c0f7b2291e5b200ac8c7c3b925936119026118f26118d66000611102565b6114fe6118e28261022c565b6118eb8661022c565b14156117ec565b6118fb8861022c565b1415611844565b610b24876116a28861159f856034610a92565b93610a89565b936103da60405190565b0390a3565b1561193157565b60405162461bcd60e51b815260206004820152601d60248201527f45524332303a20696e73756666696369656e7420616c6c6f77616e63650000006044820152606490fd5b906119818183611584565b6000198103611991575b50505050565b6119a593610e4c916112548282101561192a565b3880808061198b565b156119b557565b60405162461bcd60e51b815260206004820152602560248201527f45524332303a207472616e736665722066726f6d20746865207a65726f206164604482015264647265737360d81b6064820152608490fd5b15611a0f57565b60405162461bcd60e51b815260206004820152602360248201527f45524332303a207472616e7366657220746f20746865207a65726f206164647260448201526265737360e81b6064820152608490fd5b15611a6757565b60405162461bcd60e51b815260206004820152602660248201527f45524332303a207472616e7366657220616d6f756e7420657863656564732062604482015265616c616e636560d01b6064820152608490fd5b61192561191b61191560008051602061270e83398151915293611b10611b00611ae46000611102565b6114fe611af08261022c565b611af98661022c565b14156119ae565b611b098861022c565b1415611a08565b611b1b87878361207d565b610b24611b4e87603361159f611b448c611b386110e08986610a92565b61125482821015611a60565b6116a28784610a92565b611b5b8961031683610c5b565b906114ab565b6102386000611b71610238611083565b016111bc565b506102586117cf565b61025890611b77565b6102387f4910fdfa16fed3260ed0e7147f7cc6da11a60208b5b9406d12a635614ffd9143610da7565b9050519061025882610352565b906020828203126102275761023891611bb2565b15611bda57565b60405162461bcd60e51b815260206004820152602960248201527f45524331393637557067726164653a20756e737570706f727465642070726f786044820152681a58589b195555525160ba1b6064820152608490fd5b9190611c496000611c43610238611b89565b01610a12565b15611c59575050610258906121d3565b611c65610b2484610a89565b926020611c7160405190565b6352d1902d60e01b815294859060049082905afa60009481611d0f575b50611cef5760405162461bcd60e51b815260206004820152602e60248201527f45524331393637557067726164653a206e657720696d706c656d656e7461746960448201526d6f6e206973206e6f74205555505360901b6064820152608490fd5b611d0a61025894611d04610ee5610238611083565b14611bd3565b612132565b611d3291955060203d602011611d39575b611d2a8183610516565b810190611bbf565b9338611c8e565b503d611d20565b611d4861223e565b610258611d5760006065610ab9565b7f5db9ee0a495bf2e6ff9c91a7834c1ba4fdd244a5e8aa4e537bd38aeae4b073aa610f91336106d8565b610258611d40565b15611d9057565b60405162461bcd60e51b815260206004820152601f60248201527f45524332303a206d696e7420746f20746865207a65726f2061646472657373006044820152606490fd5b60008051602061270e83398151915261192561191b611915611df76000611102565b611e13611e038261022c565b611e0c8861022c565b1415611d89565b611e1e87878361207d565b611e36611e2f88610e476035610c5b565b60356114ab565b610b24611b4e876033610a92565b906001600160a01b0390610aaf565b90611e63610238610ad092610a89565b8254611e44565b611e8b611e85611e7a60c96111bc565b610b248460c9611e53565b91610a89565b907f8be0079c531659141344cd1fd0a4f28419497f9722a3daafe3b4186f6b6457e0611eb660405190565b8080611925565b611ec561228d565b610258611ed460016065610ab9565b7f62e78cea01bee320cd4e420270b5ea74000d11b0c9f74754ebdbfc544b05a258610f91336106d8565b610258611ebd565b3b611f14610ee56000610da7565b1190565b15611f1f57565b60405162461bcd60e51b815260206004820152602b60248201527f496e697469616c697a61626c653a20636f6e7472616374206973206e6f74206960448201526a6e697469616c697a696e6760a81b6064820152608490fd5b9061025891611f8f611f8a6000611292565b611f18565b9061025891612463565b9061025891611f78565b611fb0611f8a6000611292565b610258610258612489565b610258611fa3565b611fd0611f8a6000611292565b6102586102586124a8565b610258611fc3565b610258611f8a6000611292565b610258611fe3565b15611fff57565b60405162461bcd60e51b81526020600482015260166024820152751059191c995cdcc81a5cc8189b1858dadb1a5cdd195960521b6044820152606490fd5b1561204457565b60405162461bcd60e51b8152602060048201526011602482015270151bdad95b9cc8185c99481b1bd8dad959607a1b6044820152606490fd5b9161208990828461250f565b612094610162610a12565b6120ed575b506120a5610162611292565b806120cf575b6120b25750565b6120c76102386110e061025893610161610a92565b42101561203d565b506120dd6114fe6000611102565b6120e68261022c565b14156120ab565b612113906101609061210561134e61177a8685610a92565b9182612119575b5050611ff8565b38612099565b61212b925061134e9161177a91610a92565b388061210c565b9161213c83612525565b815161214b610ee56000610da7565b11908115612169575b5061215d575050565b612166916125ae565b50565b905038612154565b1561217857565b60405162461bcd60e51b815260206004820152602d60248201527f455243313936373a206e657720696d706c656d656e746174696f6e206973206e60448201526c1bdd08184818dbdb9d1c9858dd609a1b6064820152608490fd5b610258906121e86121e382611f06565b612171565b60006121f5610238611083565b01611e53565b1561220257565b60405162461bcd60e51b815260206004820152601460248201527314185d5cd8589b194e881b9bdd081c185d5cd95960621b6044820152606490fd5b6102586122496110bf565b6121fb565b1561225557565b60405162461bcd60e51b815260206004820152601060248201526f14185d5cd8589b194e881c185d5cd95960821b6044820152606490fd5b61025861229b61134e6110bf565b61224e565b90610258916122b2611f8a6000611292565b61244d565b9160001960089290920291821b911b610aaf565b91906122dc610238610ad093610da7565b9083546122b7565b610258916000916122cb565b8181106122fb575050565b8061230960006001936122e4565b016122f0565b9190601f811161231e57505050565b61233061025893600052602060002090565b906020601f840181900483019310612352575b6020601f9091010401906122f0565b9091508190612343565b9060001960089091021c191690565b816123759161235c565b906002021790565b90612386815190565b906001600160401b038211610537576123a9826123a38554610b58565b8561230f565b602090601f83116001146123d757610ad09291600091836123cc575b505061236b565b0151905038806123c5565b601f198316916123ec85600052602060002090565b9260005b81811061242b57509160029391856001969410612411575b50505002019055565b612421910151601f84169061235c565b9055388080612408565b919360206001819287870151815501950192016123f0565b906102589161237d565b9061245c610258926036612443565b6037612443565b90610258916122a0565b61247a611f8a6000611292565b61025861025860006065610ab9565b61025861246d565b61249e611f8a6000611292565b6102588033611e6a565b610258612491565b156124b757565b60405162461bcd60e51b815260206004820152602a60248201527f45524332305061757361626c653a20746f6b656e207472616e736665722077686044820152691a5b19481c185d5cd95960b21b6064820152608490fd5b50505061025861252061134e6110bf565b6124b0565b61253290610b24816121d3565b7fbc7cd75a20ee27fd9adebab32041f755214dbc6bffa90cc0225b39da2e5c2d3b61255c60405190565b8080610b33565b61256d60276106ff565b7f416464726573733a206c6f772d6c6576656c2064656c65676174652063616c6c6020820152660819985a5b195960ca1b604082015290565b610238612563565b610238916125ba6125a6565b916125df565b3d156125da576125cf3d6106ff565b903d6000602084013e565b606090565b60008061023894936125ef606090565b50602081519101845af46126016125c0565b91612653565b1561260e57565b60405162461bcd60e51b815260206004820152601d60248201527f416464726573733a2063616c6c20746f206e6f6e2d636f6e74726163740000006044820152606490fd5b919290156126855750815161266b610ee56000610da7565b14612674575090565b61268061023891611f06565b612607565b829061268f825190565b61269c610ee56000610da7565b11156126ab5750805190602001fd5b610a68906126b860405190565b62461bcd60e51b81529182916004830161031a56fe46756e6374696f6e206d7573742062652063616c6c6564207468726f7567682043a0148be74197659be43bacdac4e492c6e55291225e29fd4f098868ff304fc1ddf252ad1be2c89b69c2b068fc378daa952ba7f163c4a11628f55a4df523b3efa2646970667358221220ef2b6f86dc305f0c2ddaecdd8037ddd937e4fe16e6b90c2c526dbb3d5d698dfd64736f6c63430008160033a264697066735822122064cbb7b0666c1d3ca1d677efab8ca55b02aea0975a61e4839b62efc27b406f2864736f6c63430008160033","opcodes":"PUSH1 0x80 PUSH1 0x40 MSTORE CALLVALUE PUSH3 0x30 JUMPI PUSH3 0x1E PUSH3 0x18 PUSH3 0xA0 JUMP JUMPDEST PUSH3 0x103 JUMP JUMPDEST PUSH1 0x40 MLOAD PUSH2 0x38FC PUSH3 0x263 DUP3 CODECOPY PUSH2 0x38FC SWAP1 RETURN JUMPDEST PUSH1 0x0 DUP1 REVERT JUMPDEST PUSH4 0x4E487B71 PUSH1 0xE0 SHL PUSH1 0x0 MSTORE PUSH1 0x41 PUSH1 0x4 MSTORE PUSH1 0x24 PUSH1 0x0 REVERT JUMPDEST SWAP1 PUSH1 0x1F ADD PUSH1 0x1F NOT AND DUP2 ADD SWAP1 DUP2 LT PUSH1 0x1 PUSH1 0x1 PUSH1 0x40 SHL SUB DUP3 GT OR PUSH3 0x6D JUMPI PUSH1 0x40 MSTORE JUMP JUMPDEST PUSH3 0x35 JUMP JUMPDEST SWAP1 PUSH3 0x8A PUSH3 0x82 PUSH1 0x40 MLOAD SWAP1 JUMP JUMPDEST SWAP3 DUP4 PUSH3 0x4B JUMP JUMPDEST JUMP JUMPDEST SWAP1 PUSH1 0x20 DUP3 DUP3 SUB SLT PUSH3 0x30 JUMPI POP MLOAD SWAP1 JUMP JUMPDEST SWAP1 JUMP JUMPDEST PUSH3 0x9D PUSH3 0x3B5F DUP1 CODESIZE SUB DUP1 PUSH3 0xB7 DUP2 PUSH3 0x73 JUMP JUMPDEST SWAP3 DUP4 CODECOPY DUP2 ADD SWAP1 PUSH3 0x8C JUMP JUMPDEST SWAP1 PUSH1 0x0 NOT SWAP1 JUMPDEST SWAP2 DUP2 NOT AND SWAP2 AND OR SWAP1 JUMP JUMPDEST PUSH3 0x9D PUSH3 0x9D PUSH3 0x9D SWAP3 SWAP1 JUMP JUMPDEST SWAP1 PUSH3 0xF7 PUSH3 0x9D PUSH3 0xFF SWAP3 PUSH3 0xD3 JUMP JUMPDEST DUP3 SLOAD PUSH3 0xC3 JUMP JUMPDEST SWAP1 SSTORE JUMP JUMPDEST PUSH3 0x150 PUSH32 0x40BD824D588484917DB8FA4FC894C1E0FEAE5A75885290BA7B97521CEBF82A80 SWAP2 PUSH3 0x133 PUSH3 0x161 JUMP JUMPDEST PUSH3 0x140 DUP2 PUSH1 0x2 PUSH3 0xE3 JUMP JUMPDEST PUSH1 0x40 MLOAD SWAP2 DUP3 SWAP2 DUP3 SWAP1 DUP2 MSTORE PUSH1 0x20 ADD SWAP1 JUMP JUMPDEST SUB SWAP1 LOG1 JUMP JUMPDEST PUSH3 0x9D PUSH1 0x1 PUSH3 0xD3 JUMP JUMPDEST PUSH3 0x16B PUSH3 0x181 JUMP JUMPDEST PUSH3 0x8A PUSH3 0x179 PUSH3 0x155 JUMP JUMPDEST PUSH1 0x1 PUSH3 0xE3 JUMP JUMPDEST PUSH3 0x8A CALLER PUSH3 0x202 JUMP JUMPDEST PUSH3 0x9D SWAP1 JUMPDEST PUSH1 0x1 PUSH1 0x1 PUSH1 0xA0 SHL SUB AND SWAP1 JUMP JUMPDEST PUSH3 0x9D SWAP1 SLOAD PUSH3 0x18C JUMP JUMPDEST SWAP1 PUSH1 0x1 PUSH1 0x1 PUSH1 0xA0 SHL SUB SWAP1 PUSH3 0xC9 JUMP JUMPDEST PUSH3 0x9D SWAP1 PUSH3 0x192 SWAP1 PUSH1 0x1 PUSH1 0x1 PUSH1 0xA0 SHL SUB AND DUP3 JUMP JUMPDEST PUSH3 0x9D SWAP1 PUSH3 0x1BA JUMP JUMPDEST PUSH3 0x9D SWAP1 PUSH3 0x1D0 JUMP JUMPDEST SWAP1 PUSH3 0x1FA PUSH3 0x9D PUSH3 0xFF SWAP3 PUSH3 0x1DB JUMP JUMPDEST DUP3 SLOAD PUSH3 0x1AA JUMP JUMPDEST PUSH3 0x230 PUSH3 0x229 PUSH3 0x216 PUSH1 0x0 PUSH3 0x19E JUMP JUMPDEST PUSH3 0x223 DUP5 PUSH1 0x0 PUSH3 0x1E6 JUMP JUMPDEST PUSH3 0x1DB JUMP JUMPDEST SWAP2 PUSH3 0x1DB JUMP JUMPDEST SWAP1 PUSH32 0x8BE0079C531659141344CD1FD0A4F28419497F9722A3DAAFE3B4186F6B6457E0 PUSH3 0x25C PUSH1 0x40 MLOAD SWAP1 JUMP JUMPDEST PUSH1 0x0 SWAP1 LOG3 JUMP INVALID PUSH1 0x80 PUSH1 0x40 MSTORE PUSH1 0x4 CALLDATASIZE LT ISZERO PUSH3 0x13 JUMPI PUSH1 0x0 DUP1 REVERT JUMPDEST PUSH1 0x0 CALLDATALOAD PUSH1 0xE0 SHR DUP1 PUSH4 0x476343EE EQ PUSH3 0xEA JUMPI DUP1 PUSH4 0x519DC8D2 EQ PUSH3 0xE4 JUMPI DUP1 PUSH4 0x622AE7AA EQ PUSH3 0xDE JUMPI DUP1 PUSH4 0x715018A6 EQ PUSH3 0xD8 JUMPI DUP1 PUSH4 0x7C9B5445 EQ PUSH3 0xD2 JUMPI DUP1 PUSH4 0x8DA5CB5B EQ PUSH3 0xCC JUMPI DUP1 PUSH4 0x9E4E7318 EQ PUSH3 0xC6 JUMPI DUP1 PUSH4 0xB14E7EE6 EQ PUSH3 0xC0 JUMPI DUP1 PUSH4 0xD002462B EQ PUSH3 0xBA JUMPI DUP1 PUSH4 0xF2CFF57F EQ PUSH3 0xB4 JUMPI DUP1 PUSH4 0xF2FDE38B EQ PUSH3 0xAE JUMPI PUSH4 0xFFA1AD74 SUB PUSH3 0xF0 JUMPI PUSH3 0x68D JUMP JUMPDEST PUSH3 0x61A JUMP JUMPDEST PUSH3 0x5F9 JUMP JUMPDEST PUSH3 0x5B5 JUMP JUMPDEST PUSH3 0x57D JUMP JUMPDEST PUSH3 0x54C JUMP JUMPDEST PUSH3 0x42A JUMP JUMPDEST PUSH3 0x3FA JUMP JUMPDEST PUSH3 0x250 JUMP JUMPDEST PUSH3 0x22F JUMP JUMPDEST PUSH3 0x201 JUMP JUMPDEST PUSH3 0x101 JUMP JUMPDEST PUSH1 0x0 DUP1 REVERT JUMPDEST PUSH1 0x0 SWAP2 SUB SLT PUSH3 0xF0 JUMPI JUMP JUMPDEST CALLVALUE PUSH3 0xF0 JUMPI PUSH3 0x114 CALLDATASIZE PUSH1 0x4 PUSH3 0xF5 JUMP JUMPDEST PUSH3 0x11E PUSH3 0x794 JUMP JUMPDEST PUSH1 0x40 MLOAD STOP JUMPDEST SUB SWAP1 RETURN JUMPDEST PUSH1 0x1 PUSH1 0x1 PUSH1 0xA0 SHL SUB AND SWAP1 JUMP JUMPDEST SWAP1 JUMP JUMPDEST PUSH3 0x141 DUP2 PUSH3 0x127 JUMP JUMPDEST SUB PUSH3 0xF0 JUMPI JUMP JUMPDEST SWAP1 POP CALLDATALOAD SWAP1 PUSH3 0x158 DUP3 PUSH3 0x136 JUMP JUMPDEST JUMP JUMPDEST SWAP1 PUSH1 0x20 DUP3 DUP3 SUB SLT PUSH3 0xF0 JUMPI PUSH3 0x133 SWAP2 PUSH3 0x149 JUMP JUMPDEST PUSH3 0x17C SWAP1 PUSH3 0x127 JUMP JUMPDEST SWAP1 MSTORE JUMP JUMPDEST SWAP1 PUSH3 0x18F DUP2 PUSH1 0x20 SWAP4 PUSH3 0x171 JUMP JUMPDEST ADD SWAP1 JUMP JUMPDEST SWAP1 PUSH3 0x1B6 PUSH3 0x1AF PUSH3 0x1A5 DUP5 MLOAD SWAP1 JUMP JUMPDEST DUP1 DUP5 MSTORE SWAP3 PUSH1 0x20 ADD SWAP1 JUMP JUMPDEST SWAP3 PUSH1 0x20 ADD SWAP1 JUMP JUMPDEST SWAP1 PUSH1 0x0 JUMPDEST DUP2 DUP2 LT PUSH3 0x1C8 JUMPI POP POP POP SWAP1 JUMP JUMPDEST SWAP1 SWAP2 SWAP3 PUSH3 0x1E5 PUSH3 0x1DE PUSH1 0x1 SWAP3 DUP7 MLOAD PUSH3 0x180 JUMP JUMPDEST SWAP5 PUSH1 0x20 ADD SWAP1 JUMP JUMPDEST SWAP3 SWAP2 ADD PUSH3 0x1BA JUMP JUMPDEST PUSH1 0x20 DUP1 DUP3 MSTORE PUSH3 0x133 SWAP3 SWAP2 ADD SWAP1 PUSH3 0x193 JUMP JUMPDEST CALLVALUE PUSH3 0xF0 JUMPI PUSH3 0x123 PUSH3 0x222 PUSH3 0x21C CALLDATASIZE PUSH1 0x4 PUSH3 0x15A JUMP JUMPDEST PUSH3 0x86B JUMP JUMPDEST PUSH1 0x40 MLOAD SWAP2 DUP3 SWAP2 DUP3 PUSH3 0x1EE JUMP JUMPDEST CALLVALUE PUSH3 0xF0 JUMPI PUSH3 0x242 CALLDATASIZE PUSH1 0x4 PUSH3 0xF5 JUMP JUMPDEST PUSH3 0x123 PUSH3 0x222 PUSH3 0x88C JUMP JUMPDEST CALLVALUE PUSH3 0xF0 JUMPI PUSH3 0x263 CALLDATASIZE PUSH1 0x4 PUSH3 0xF5 JUMP JUMPDEST PUSH3 0x11E PUSH3 0x8DD JUMP JUMPDEST PUSH4 0x4E487B71 PUSH1 0xE0 SHL PUSH1 0x0 MSTORE PUSH1 0x41 PUSH1 0x4 MSTORE PUSH1 0x24 PUSH1 0x0 REVERT JUMPDEST SWAP1 PUSH1 0x1F ADD PUSH1 0x1F NOT AND DUP2 ADD SWAP1 DUP2 LT PUSH1 0x1 PUSH1 0x1 PUSH1 0x40 SHL SUB DUP3 GT OR PUSH3 0x2A5 JUMPI PUSH1 0x40 MSTORE JUMP JUMPDEST PUSH3 0x26D JUMP JUMPDEST SWAP1 PUSH3 0x158 PUSH3 0x2BA PUSH1 0x40 MLOAD SWAP1 JUMP JUMPDEST SWAP3 DUP4 PUSH3 0x283 JUMP JUMPDEST PUSH1 0x1 PUSH1 0x1 PUSH1 0x40 SHL SUB DUP2 GT PUSH3 0x2A5 JUMPI PUSH1 0x20 SWAP1 PUSH1 0x1F ADD PUSH1 0x1F NOT AND ADD SWAP1 JUMP JUMPDEST SWAP1 DUP3 PUSH1 0x0 SWAP4 SWAP3 DUP3 CALLDATACOPY ADD MSTORE JUMP JUMPDEST SWAP1 SWAP3 SWAP2 SWAP3 PUSH3 0x304 PUSH3 0x2FE DUP3 PUSH3 0x2C2 JUMP JUMPDEST PUSH3 0x2AB JUMP JUMPDEST SWAP4 DUP2 DUP6 MSTORE DUP2 DUP4 ADD GT PUSH3 0xF0 JUMPI PUSH3 0x158 SWAP2 PUSH1 0x20 DUP6 ADD SWAP1 PUSH3 0x2DF JUMP JUMPDEST SWAP1 DUP1 PUSH1 0x1F DUP4 ADD SLT ISZERO PUSH3 0xF0 JUMPI DUP2 PUSH1 0x20 PUSH3 0x133 SWAP4 CALLDATALOAD SWAP2 ADD PUSH3 0x2EB JUMP JUMPDEST DUP1 PUSH3 0x141 JUMP JUMPDEST SWAP1 POP CALLDATALOAD SWAP1 PUSH3 0x158 DUP3 PUSH3 0x33F JUMP JUMPDEST DUP1 ISZERO ISZERO PUSH3 0x141 JUMP JUMPDEST SWAP1 POP CALLDATALOAD SWAP1 PUSH3 0x158 DUP3 PUSH3 0x355 JUMP JUMPDEST SWAP1 SWAP2 PUSH1 0xC0 DUP3 DUP5 SUB SLT PUSH3 0xF0 JUMPI DUP2 CALLDATALOAD PUSH1 0x1 PUSH1 0x1 PUSH1 0x40 SHL SUB DUP2 GT PUSH3 0xF0 JUMPI DUP4 PUSH3 0x399 SWAP2 DUP5 ADD PUSH3 0x321 JUMP JUMPDEST SWAP3 PUSH1 0x20 DUP4 ADD CALLDATALOAD PUSH1 0x1 PUSH1 0x1 PUSH1 0x40 SHL SUB DUP2 GT PUSH3 0xF0 JUMPI DUP2 PUSH3 0x3BC SWAP2 DUP6 ADD PUSH3 0x321 JUMP JUMPDEST SWAP3 PUSH3 0x3CC DUP3 PUSH1 0x40 DUP4 ADD PUSH3 0x346 JUMP JUMPDEST SWAP3 PUSH3 0x133 PUSH3 0x3E0 DUP5 PUSH1 0x60 DUP6 ADD PUSH3 0x346 JUMP JUMPDEST SWAP4 PUSH1 0xA0 PUSH3 0x3F2 DUP3 PUSH1 0x80 DUP8 ADD PUSH3 0x35E JUMP JUMPDEST SWAP5 ADD PUSH3 0x35E JUMP JUMPDEST PUSH3 0x11E PUSH3 0x40B CALLDATASIZE PUSH1 0x4 PUSH3 0x36D JUMP JUMPDEST SWAP5 SWAP4 SWAP1 SWAP4 SWAP3 SWAP2 SWAP3 PUSH3 0xC7B JUMP JUMPDEST PUSH1 0x20 DUP2 ADD SWAP3 SWAP2 PUSH3 0x158 SWAP2 SWAP1 PUSH3 0x171 JUMP JUMPDEST CALLVALUE PUSH3 0xF0 JUMPI PUSH3 0x43D CALLDATASIZE PUSH1 0x4 PUSH3 0xF5 JUMP JUMPDEST PUSH3 0x123 PUSH3 0x44B PUSH3 0xC8B JUMP JUMPDEST PUSH1 0x40 MLOAD SWAP2 DUP3 SWAP2 DUP3 PUSH3 0x418 JUMP JUMPDEST SWAP1 PUSH3 0x468 PUSH3 0x2FE DUP4 PUSH3 0x2C2 JUMP JUMPDEST SWAP2 DUP3 MSTORE JUMP JUMPDEST PUSH3 0x479 PUSH1 0x5 PUSH3 0x458 JUMP JUMPDEST PUSH5 0x312E302E3 PUSH1 0xDC SHL PUSH1 0x20 DUP3 ADD MSTORE SWAP1 JUMP JUMPDEST PUSH3 0x133 PUSH3 0x46D JUMP JUMPDEST PUSH3 0x133 PUSH3 0x48A JUMP JUMPDEST PUSH1 0x0 JUMPDEST DUP4 DUP2 LT PUSH3 0x4B2 JUMPI POP POP PUSH1 0x0 SWAP2 ADD MSTORE JUMP JUMPDEST DUP2 DUP2 ADD MLOAD DUP4 DUP3 ADD MSTORE PUSH1 0x20 ADD PUSH3 0x4A1 JUMP JUMPDEST PUSH3 0x18F PUSH3 0x4DE SWAP3 PUSH1 0x20 SWAP3 PUSH3 0x4D8 DUP2 MLOAD SWAP1 JUMP JUMPDEST SWAP5 DUP6 SWAP3 SWAP1 JUMP JUMPDEST SWAP4 DUP5 SWAP2 ADD PUSH3 0x49E JUMP JUMPDEST PUSH3 0x133 SWAP2 PUSH3 0x4C3 JUMP JUMPDEST PUSH3 0x4FD PUSH3 0x494 JUMP JUMPDEST PUSH3 0x52A PUSH3 0x50B PUSH1 0x40 MLOAD SWAP1 JUMP JUMPDEST DUP1 SWAP3 PUSH3 0x51D PUSH1 0x20 DUP4 ADD SWAP2 DUP3 PUSH3 0x4E8 JUMP JUMPDEST SWAP1 DUP2 SUB DUP3 MSTORE SUB DUP3 PUSH3 0x283 JUMP JUMPDEST PUSH3 0x53E PUSH3 0x537 DUP3 MLOAD SWAP1 JUMP JUMPDEST SWAP2 PUSH1 0x20 ADD SWAP1 JUMP JUMPDEST KECCAK256 SWAP1 JUMP JUMPDEST PUSH3 0x133 PUSH3 0x4F3 JUMP JUMPDEST CALLVALUE PUSH3 0xF0 JUMPI PUSH3 0x55F CALLDATASIZE PUSH1 0x4 PUSH3 0xF5 JUMP JUMPDEST PUSH3 0x123 PUSH3 0x56D PUSH3 0x542 JUMP JUMPDEST PUSH1 0x40 MLOAD SWAP2 DUP3 SWAP2 DUP3 SWAP1 DUP2 MSTORE PUSH1 0x20 ADD SWAP1 JUMP JUMPDEST CALLVALUE PUSH3 0xF0 JUMPI PUSH3 0x123 PUSH3 0x44B PUSH3 0x598 CALLDATASIZE PUSH1 0x4 PUSH3 0x15A JUMP JUMPDEST PUSH3 0xC97 JUMP JUMPDEST SWAP1 PUSH1 0x20 DUP3 DUP3 SUB SLT PUSH3 0xF0 JUMPI PUSH3 0x133 SWAP2 PUSH3 0x346 JUMP JUMPDEST CALLVALUE PUSH3 0xF0 JUMPI PUSH3 0x11E PUSH3 0x5CC CALLDATASIZE PUSH1 0x4 PUSH3 0x59E JUMP JUMPDEST PUSH3 0xD3C JUMP JUMPDEST PUSH3 0x133 SWAP2 PUSH1 0x8 MUL SHR DUP2 JUMP JUMPDEST SWAP1 PUSH3 0x133 SWAP2 SLOAD PUSH3 0x5D2 JUMP JUMPDEST PUSH3 0x133 PUSH1 0x0 PUSH1 0x2 PUSH3 0x5DE JUMP JUMPDEST CALLVALUE PUSH3 0xF0 JUMPI PUSH3 0x60C CALLDATASIZE PUSH1 0x4 PUSH3 0xF5 JUMP JUMPDEST PUSH3 0x123 PUSH3 0x56D PUSH3 0x5EB JUMP JUMPDEST CALLVALUE PUSH3 0xF0 JUMPI PUSH3 0x11E PUSH3 0x631 CALLDATASIZE PUSH1 0x4 PUSH3 0x15A JUMP JUMPDEST PUSH3 0xDEA JUMP JUMPDEST PUSH3 0x133 PUSH3 0x494 JUMP JUMPDEST PUSH3 0x666 PUSH3 0x670 PUSH1 0x20 SWAP4 PUSH3 0x18F SWAP4 PUSH3 0x65A DUP2 MLOAD SWAP1 JUMP JUMPDEST DUP1 DUP4 MSTORE SWAP4 DUP5 SWAP3 PUSH1 0x20 ADD SWAP1 JUMP JUMPDEST SWAP6 DUP7 SWAP2 ADD PUSH3 0x49E JUMP JUMPDEST PUSH1 0x1F ADD PUSH1 0x1F NOT AND SWAP1 JUMP JUMPDEST PUSH1 0x20 DUP1 DUP3 MSTORE PUSH3 0x133 SWAP3 SWAP2 ADD SWAP1 PUSH3 0x641 JUMP JUMPDEST CALLVALUE PUSH3 0xF0 JUMPI PUSH3 0x6A0 CALLDATASIZE PUSH1 0x4 PUSH3 0xF5 JUMP JUMPDEST PUSH3 0x123 PUSH3 0x6AE PUSH3 0x637 JUMP JUMPDEST PUSH1 0x40 MLOAD SWAP2 DUP3 SWAP2 DUP3 PUSH3 0x67A JUMP JUMPDEST PUSH3 0x6C5 PUSH3 0xE47 JUMP JUMPDEST PUSH3 0x158 PUSH3 0x760 JUMP JUMPDEST PUSH3 0x133 SWAP1 PUSH3 0x127 SWAP1 PUSH1 0x1 PUSH1 0x1 PUSH1 0xA0 SHL SUB AND DUP3 JUMP JUMPDEST PUSH3 0x133 SWAP1 PUSH3 0x6CF JUMP JUMPDEST PUSH3 0x133 SWAP1 PUSH3 0x6E5 JUMP JUMPDEST RETURNDATASIZE ISZERO PUSH3 0x718 JUMPI PUSH3 0x70D RETURNDATASIZE PUSH3 0x458 JUMP JUMPDEST SWAP1 RETURNDATASIZE PUSH1 0x0 PUSH1 0x20 DUP5 ADD RETURNDATACOPY JUMP JUMPDEST PUSH1 0x60 SWAP1 JUMP JUMPDEST ISZERO PUSH3 0x725 JUMPI JUMP JUMPDEST PUSH1 0x40 MLOAD PUSH3 0x461BCD PUSH1 0xE5 SHL DUP2 MSTORE PUSH1 0x20 PUSH1 0x4 DUP3 ADD MSTORE PUSH1 0xF PUSH1 0x24 DUP3 ADD MSTORE PUSH15 0x151C985B9CD9995C8819985A5B1959 PUSH1 0x8A SHL PUSH1 0x44 DUP3 ADD MSTORE PUSH1 0x64 SWAP1 REVERT JUMPDEST SUB SWAP1 REVERT JUMPDEST PUSH3 0x158 PUSH1 0x0 DUP1 PUSH3 0x772 ADDRESS PUSH3 0x6F0 JUMP JUMPDEST BALANCE PUSH3 0x77D PUSH1 0x40 MLOAD SWAP1 JUMP JUMPDEST PUSH1 0x0 SWAP2 CALLER GAS CALL PUSH3 0x78D PUSH3 0x6FB JUMP JUMPDEST POP PUSH3 0x71D JUMP JUMPDEST PUSH3 0x158 PUSH3 0x6BB JUMP JUMPDEST SWAP1 PUSH3 0x7AA SWAP1 PUSH3 0x6F0 JUMP JUMPDEST PUSH1 0x0 MSTORE PUSH1 0x20 MSTORE PUSH1 0x40 PUSH1 0x0 KECCAK256 SWAP1 JUMP JUMPDEST PUSH3 0x133 SWAP1 PUSH3 0x127 JUMP JUMPDEST PUSH3 0x133 SWAP1 SLOAD PUSH3 0x7B8 JUMP JUMPDEST SWAP1 PUSH3 0x7ED PUSH3 0x7E1 PUSH3 0x1A5 DUP5 SLOAD SWAP1 JUMP JUMPDEST SWAP3 PUSH1 0x0 MSTORE PUSH1 0x20 PUSH1 0x0 KECCAK256 SWAP1 JUMP JUMPDEST SWAP1 PUSH1 0x0 JUMPDEST DUP2 DUP2 LT PUSH3 0x7FF JUMPI POP POP POP SWAP1 JUMP JUMPDEST SWAP1 SWAP2 SWAP3 PUSH3 0x825 PUSH3 0x81E PUSH1 0x1 SWAP3 PUSH3 0x818 DUP8 PUSH3 0x7C3 JUMP JUMPDEST PUSH3 0x180 JUMP JUMPDEST SWAP5 PUSH1 0x1 ADD SWAP1 JUMP JUMPDEST SWAP3 SWAP2 ADD PUSH3 0x7F1 JUMP JUMPDEST SWAP1 PUSH3 0x133 SWAP2 PUSH3 0x7CF JUMP JUMPDEST SWAP1 PUSH3 0x158 PUSH3 0x858 SWAP3 PUSH3 0x84E PUSH1 0x40 MLOAD SWAP1 JUMP JUMPDEST SWAP4 DUP5 DUP1 SWAP3 PUSH3 0x82E JUMP JUMPDEST SUB DUP4 PUSH3 0x283 JUMP JUMPDEST PUSH3 0x133 SWAP1 PUSH3 0x83A JUMP JUMPDEST PUSH3 0x886 PUSH3 0x133 SWAP2 PUSH3 0x87D PUSH1 0x60 SWAP1 JUMP JUMPDEST POP PUSH1 0x4 PUSH3 0x79E JUMP JUMPDEST PUSH3 0x860 JUMP JUMPDEST PUSH3 0x133 PUSH1 0x3 PUSH3 0x860 JUMP JUMPDEST PUSH3 0x8A2 PUSH3 0xE47 JUMP JUMPDEST PUSH3 0x158 PUSH3 0x8C7 JUMP JUMPDEST PUSH3 0x127 PUSH3 0x133 PUSH3 0x133 SWAP3 SWAP1 JUMP JUMPDEST PUSH3 0x133 SWAP1 PUSH3 0x8AC JUMP JUMPDEST PUSH3 0x158 PUSH3 0x8D7 PUSH1 0x0 PUSH3 0x8BC JUMP JUMPDEST PUSH3 0xE72 JUMP JUMPDEST PUSH3 0x158 PUSH3 0x898 JUMP JUMPDEST SWAP1 PUSH3 0x901 SWAP6 SWAP5 SWAP4 SWAP3 SWAP2 PUSH3 0x8FB PUSH3 0xF27 JUMP JUMPDEST PUSH3 0xB0F JUMP JUMPDEST PUSH3 0x158 PUSH3 0xF63 JUMP JUMPDEST PUSH3 0x133 SWAP1 DUP2 JUMP JUMPDEST PUSH3 0x133 SWAP1 SLOAD PUSH3 0x90B JUMP JUMPDEST ISZERO PUSH3 0x927 JUMPI JUMP JUMPDEST PUSH1 0x40 MLOAD PUSH3 0x461BCD PUSH1 0xE5 SHL DUP2 MSTORE PUSH1 0x20 PUSH1 0x4 DUP3 ADD MSTORE PUSH1 0x1B PUSH1 0x24 DUP3 ADD MSTORE PUSH27 0x496E73756666696369656E74206465706C6F796D656E7420666565 PUSH1 0x28 SHL PUSH1 0x44 DUP3 ADD MSTORE PUSH1 0x64 SWAP1 REVERT JUMPDEST PUSH1 0x40 MLOAD RETURNDATASIZE PUSH1 0x0 DUP3 RETURNDATACOPY RETURNDATASIZE SWAP1 REVERT JUMPDEST SWAP3 SWAP8 SWAP7 SWAP5 PUSH3 0x9DA SWAP1 PUSH3 0x9CF PUSH1 0xC0 SWAP7 PUSH3 0x9C8 PUSH3 0x9C0 PUSH3 0x9E3 SWAP8 PUSH3 0x9B1 PUSH3 0x158 SWAP14 SWAP9 PUSH1 0xE0 DUP13 ADD SWAP1 DUP13 PUSH1 0x0 DUP2 DUP5 SUB SWAP2 ADD MSTORE PUSH3 0x641 JUMP JUMPDEST SWAP1 DUP11 DUP3 SUB PUSH1 0x20 DUP13 ADD MSTORE PUSH3 0x641 JUMP JUMPDEST SWAP13 PUSH1 0x40 DUP10 ADD MSTORE JUMP JUMPDEST PUSH1 0x60 DUP8 ADD MSTORE JUMP JUMPDEST PUSH1 0x80 DUP6 ADD SWAP1 PUSH3 0x171 JUMP JUMPDEST ISZERO ISZERO PUSH1 0xA0 DUP4 ADD MSTORE JUMP JUMPDEST ADD SWAP1 ISZERO ISZERO SWAP1 MSTORE JUMP JUMPDEST PUSH4 0x4E487B71 PUSH1 0xE0 SHL PUSH1 0x0 MSTORE PUSH1 0x32 PUSH1 0x4 MSTORE PUSH1 0x24 PUSH1 0x0 REVERT JUMPDEST DUP1 SLOAD DUP3 LT ISZERO PUSH3 0xA26 JUMPI PUSH3 0xA1D PUSH1 0x1 SWAP2 PUSH1 0x0 MSTORE PUSH1 0x20 PUSH1 0x0 KECCAK256 SWAP1 JUMP JUMPDEST SWAP2 MUL ADD SWAP1 PUSH1 0x0 SWAP1 JUMP JUMPDEST PUSH3 0x9EB JUMP JUMPDEST SWAP2 PUSH1 0x1 PUSH1 0x1 PUSH1 0xA0 SHL SUB PUSH1 0x8 SWAP3 SWAP1 SWAP3 MUL SWAP2 DUP3 SHL SWAP2 SHL JUMPDEST SWAP2 DUP2 NOT AND SWAP2 AND OR SWAP1 JUMP JUMPDEST SWAP2 SWAP1 PUSH3 0xA60 PUSH3 0x133 PUSH3 0xA69 SWAP4 PUSH3 0x6F0 JUMP JUMPDEST SWAP1 DUP4 SLOAD PUSH3 0xA2C JUMP JUMPDEST SWAP1 SSTORE JUMP JUMPDEST DUP1 SLOAD SWAP2 SWAP1 PUSH1 0x1 PUSH1 0x40 SHL DUP4 LT ISZERO PUSH3 0x2A5 JUMPI DUP3 PUSH3 0xA94 SWAP2 PUSH1 0x1 PUSH3 0x158 SWAP6 ADD DUP2 SSTORE PUSH3 0xA01 JUMP JUMPDEST SWAP1 PUSH3 0xA4B JUMP JUMPDEST SWAP1 PUSH1 0x1 PUSH1 0x1 PUSH1 0xA0 SHL SUB SWAP1 PUSH3 0xA41 JUMP JUMPDEST SWAP1 PUSH3 0xABF PUSH3 0x133 PUSH3 0xA69 SWAP3 PUSH3 0x6F0 JUMP JUMPDEST DUP3 SLOAD PUSH3 0xA9B JUMP JUMPDEST SWAP3 SWAP8 SWAP7 SWAP5 PUSH3 0x9DA SWAP1 PUSH3 0xB02 PUSH1 0xC0 SWAP7 PUSH3 0x9C8 PUSH3 0x9C0 PUSH3 0xB0B SWAP8 PUSH3 0x9B1 PUSH3 0x158 SWAP14 SWAP9 PUSH1 0xE0 DUP13 ADD SWAP1 DUP13 PUSH1 0x0 DUP2 DUP5 SUB SWAP2 ADD MSTORE PUSH3 0x641 JUMP JUMPDEST ISZERO ISZERO PUSH1 0x80 DUP6 ADD MSTORE JUMP JUMPDEST ADD MSTORE JUMP JUMPDEST SWAP3 SWAP5 PUSH3 0xB2E PUSH3 0xB25 PUSH3 0x133 PUSH1 0x2 PUSH3 0x913 JUMP JUMPDEST CALLVALUE LT ISZERO PUSH3 0x91F JUMP JUMPDEST PUSH1 0x40 MLOAD PUSH2 0x2955 DUP2 ADD PUSH1 0x1 PUSH1 0x1 PUSH1 0x40 SHL SUB DUP2 GT DUP3 DUP3 LT OR PUSH3 0x2A5 JUMPI PUSH3 0xB5B DUP3 SWAP2 PUSH2 0x2955 PUSH3 0xF72 DUP5 CODECOPY SWAP1 JUMP JUMPDEST SUB SWAP1 PUSH1 0x0 CREATE DUP1 ISZERO PUSH3 0xC75 JUMPI PUSH3 0xB72 SWAP1 PUSH3 0x6F0 JUMP JUMPDEST SWAP4 DUP5 EXTCODESIZE ISZERO PUSH3 0xF0 JUMPI PUSH1 0x40 MLOAD SWAP2 PUSH4 0x6B51AE5 PUSH1 0xE5 SHL DUP4 MSTORE PUSH1 0x0 DUP4 DUP1 PUSH3 0xBA2 DUP5 DUP12 CALLER DUP15 DUP13 DUP13 DUP12 PUSH1 0x4 DUP10 ADD PUSH3 0x976 JUMP JUMPDEST SUB DUP2 DUP4 DUP11 GAS CALL DUP1 ISZERO PUSH3 0xC75 JUMPI PUSH32 0x89ECFC33D2A43016E717C18DEE2DB6A3F8B15851F7F5B885254663ED9FA9AB36 SWAP7 PUSH3 0xC4D SWAP5 PUSH3 0xC2A SWAP3 PUSH3 0xC52 JUMPI JUMPDEST POP PUSH3 0xBF5 DUP2 PUSH1 0x3 PUSH3 0xA6D JUMP JUMPDEST PUSH3 0xA6D JUMP JUMPDEST PUSH3 0xC0B DUP2 PUSH3 0xBEF PUSH3 0x133 CALLER PUSH1 0x4 PUSH3 0x79E JUMP JUMPDEST PUSH3 0xC24 PUSH3 0xC1C DUP3 PUSH1 0x5 PUSH3 0x79E JUMP JUMPDEST CALLER SWAP1 PUSH3 0xAAB JUMP JUMPDEST PUSH3 0x6F0 JUMP JUMPDEST SWAP7 PUSH3 0xC36 CALLER PUSH3 0x6F0 JUMP JUMPDEST SWAP9 PUSH3 0xC41 PUSH1 0x40 MLOAD SWAP1 JUMP JUMPDEST SWAP7 DUP8 SWAP7 TIMESTAMP SWAP6 DUP9 PUSH3 0xAC7 JUMP JUMPDEST SUB SWAP1 LOG3 JUMP JUMPDEST PUSH3 0xC6E SWAP1 PUSH1 0x0 PUSH3 0xC65 DUP2 DUP4 PUSH3 0x283 JUMP JUMPDEST DUP2 ADD SWAP1 PUSH3 0xF5 JUMP JUMPDEST CODESIZE PUSH3 0xBE1 JUMP JUMPDEST PUSH3 0x96A JUMP JUMPDEST SWAP1 PUSH3 0x158 SWAP6 SWAP5 SWAP4 SWAP3 SWAP2 PUSH3 0x8E7 JUMP JUMPDEST PUSH3 0x133 PUSH1 0x0 PUSH3 0x7C3 JUMP JUMPDEST PUSH3 0xCB2 PUSH3 0x133 SWAP2 PUSH3 0xCA9 PUSH1 0x0 SWAP1 JUMP JUMPDEST POP PUSH1 0x5 PUSH3 0x79E JUMP JUMPDEST PUSH3 0x7C3 JUMP JUMPDEST PUSH3 0x158 SWAP1 PUSH3 0xCC7 PUSH3 0xE47 JUMP JUMPDEST PUSH3 0xD04 JUMP JUMPDEST SWAP1 PUSH1 0x0 NOT SWAP1 PUSH3 0xA41 JUMP JUMPDEST PUSH3 0x133 PUSH3 0x133 PUSH3 0x133 SWAP3 SWAP1 JUMP JUMPDEST SWAP1 PUSH3 0xCFC PUSH3 0x133 PUSH3 0xA69 SWAP3 PUSH3 0xCD8 JUMP JUMPDEST DUP3 SLOAD PUSH3 0xCCD JUMP JUMPDEST PUSH3 0xD37 PUSH32 0x40BD824D588484917DB8FA4FC894C1E0FEAE5A75885290BA7B97521CEBF82A80 SWAP2 PUSH3 0x56D DUP2 PUSH1 0x2 PUSH3 0xCE8 JUMP JUMPDEST SUB SWAP1 LOG1 JUMP JUMPDEST PUSH3 0x158 SWAP1 PUSH3 0xCB8 JUMP JUMPDEST PUSH3 0x158 SWAP1 PUSH3 0xD56 PUSH3 0xE47 JUMP JUMPDEST PUSH3 0xDB8 JUMP JUMPDEST ISZERO PUSH3 0xD64 JUMPI JUMP JUMPDEST PUSH1 0x40 MLOAD PUSH3 0x461BCD PUSH1 0xE5 SHL DUP2 MSTORE PUSH1 0x20 PUSH1 0x4 DUP3 ADD MSTORE PUSH1 0x26 PUSH1 0x24 DUP3 ADD MSTORE PUSH32 0x4F776E61626C653A206E6577206F776E657220697320746865207A65726F2061 PUSH1 0x44 DUP3 ADD MSTORE PUSH6 0x646472657373 PUSH1 0xD0 SHL PUSH1 0x64 DUP3 ADD MSTORE PUSH1 0x84 SWAP1 REVERT JUMPDEST PUSH3 0x158 SWAP1 PUSH3 0x8D7 PUSH3 0xDD7 PUSH3 0xDD1 PUSH1 0x0 PUSH3 0x8BC JUMP JUMPDEST PUSH3 0x127 JUMP JUMPDEST PUSH3 0xDE2 DUP4 PUSH3 0x127 JUMP JUMPDEST EQ ISZERO PUSH3 0xD5C JUMP JUMPDEST PUSH3 0x158 SWAP1 PUSH3 0xD47 JUMP JUMPDEST ISZERO PUSH3 0xDFD JUMPI JUMP JUMPDEST PUSH1 0x40 MLOAD PUSH3 0x461BCD PUSH1 0xE5 SHL DUP2 MSTORE DUP1 PUSH3 0x75C PUSH1 0x4 DUP3 ADD PUSH1 0x20 DUP1 DUP3 MSTORE DUP2 DUP2 ADD MSTORE PUSH32 0x4F776E61626C653A2063616C6C6572206973206E6F7420746865206F776E6572 PUSH1 0x40 DUP3 ADD MSTORE PUSH1 0x60 ADD SWAP1 JUMP JUMPDEST PUSH3 0x158 PUSH3 0xE55 PUSH3 0xC8B JUMP JUMPDEST PUSH3 0xE6B PUSH3 0xE64 CALLER PUSH3 0x127 JUMP JUMPDEST SWAP2 PUSH3 0x127 JUMP JUMPDEST EQ PUSH3 0xDF5 JUMP JUMPDEST PUSH3 0xE9A PUSH3 0xE93 PUSH3 0xE86 PUSH1 0x0 PUSH3 0x7C3 JUMP JUMPDEST PUSH3 0xC24 DUP5 PUSH1 0x0 PUSH3 0xAAB JUMP JUMPDEST SWAP2 PUSH3 0x6F0 JUMP JUMPDEST SWAP1 PUSH32 0x8BE0079C531659141344CD1FD0A4F28419497F9722A3DAAFE3B4186F6B6457E0 PUSH3 0xEC6 PUSH1 0x40 MLOAD SWAP1 JUMP JUMPDEST DUP1 DUP1 PUSH3 0xC4D JUMP JUMPDEST PUSH3 0x133 PUSH1 0x2 PUSH3 0xCD8 JUMP JUMPDEST ISZERO PUSH3 0xEE2 JUMPI JUMP JUMPDEST PUSH1 0x40 MLOAD PUSH3 0x461BCD PUSH1 0xE5 SHL DUP2 MSTORE PUSH1 0x20 PUSH1 0x4 DUP3 ADD MSTORE PUSH1 0x1F PUSH1 0x24 DUP3 ADD MSTORE PUSH32 0x5265656E7472616E637947756172643A207265656E7472616E742063616C6C00 PUSH1 0x44 DUP3 ADD MSTORE PUSH1 0x64 SWAP1 REVERT JUMPDEST PUSH3 0x158 PUSH3 0xF37 PUSH1 0x1 PUSH3 0x913 JUMP JUMPDEST PUSH3 0xF4F PUSH3 0xF45 PUSH3 0xECE JUMP JUMPDEST SWAP2 DUP3 EQ ISZERO PUSH3 0xEDA JUMP JUMPDEST PUSH1 0x1 PUSH3 0xCE8 JUMP JUMPDEST PUSH3 0x133 PUSH1 0x1 PUSH3 0xCD8 JUMP JUMPDEST PUSH3 0x158 PUSH3 0xF4F PUSH3 0xF57 JUMP INVALID PUSH1 0xA0 PUSH1 0x40 MSTORE CALLVALUE PUSH3 0x36 JUMPI PUSH3 0x14 PUSH3 0x3B JUMP JUMPDEST PUSH1 0x40 MLOAD PUSH2 0x2763 PUSH3 0x1F2 DUP3 CODECOPY PUSH1 0x80 MLOAD DUP2 DUP2 DUP2 PUSH2 0xD4F ADD MSTORE PUSH2 0x1054 ADD MSTORE PUSH2 0x2763 SWAP1 RETURN JUMPDEST PUSH1 0x0 DUP1 REVERT JUMPDEST PUSH3 0x45 PUSH3 0x8C JUMP JUMPDEST PUSH3 0x4F PUSH3 0x177 JUMP JUMPDEST JUMP JUMPDEST PUSH3 0x67 SWAP1 PUSH3 0x6A SWAP1 PUSH1 0x1 PUSH1 0x1 PUSH1 0xA0 SHL SUB AND DUP3 JUMP JUMPDEST SWAP1 JUMP JUMPDEST PUSH1 0x1 PUSH1 0x1 PUSH1 0xA0 SHL SUB AND SWAP1 JUMP JUMPDEST PUSH3 0x67 SWAP1 PUSH3 0x51 JUMP JUMPDEST PUSH3 0x67 SWAP1 PUSH3 0x76 JUMP JUMPDEST PUSH3 0x97 ADDRESS PUSH3 0x81 JUMP JUMPDEST PUSH1 0x80 MSTORE JUMP JUMPDEST PUSH3 0x67 SWAP1 PUSH1 0x8 SHR JUMPDEST PUSH1 0xFF AND SWAP1 JUMP JUMPDEST PUSH3 0x67 SWAP1 SLOAD PUSH3 0x9C JUMP JUMPDEST PUSH1 0x20 DUP1 DUP3 MSTORE PUSH1 0x27 SWAP1 DUP3 ADD MSTORE PUSH32 0x496E697469616C697A61626C653A20636F6E747261637420697320696E697469 PUSH1 0x40 DUP3 ADD MSTORE PUSH7 0x616C697A696E67 PUSH1 0xC8 SHL PUSH1 0x60 DUP3 ADD MSTORE PUSH1 0x80 ADD SWAP1 JUMP JUMPDEST ISZERO PUSH3 0x106 JUMPI JUMP JUMPDEST PUSH1 0x40 MLOAD PUSH3 0x461BCD PUSH1 0xE5 SHL DUP2 MSTORE DUP1 PUSH3 0x121 PUSH1 0x4 DUP3 ADD PUSH3 0xB7 JUMP JUMPDEST SUB SWAP1 REVERT JUMPDEST PUSH3 0x67 SWAP1 PUSH3 0xA5 JUMP JUMPDEST PUSH3 0x67 SWAP1 SLOAD PUSH3 0x125 JUMP JUMPDEST PUSH3 0xA5 PUSH3 0x67 PUSH3 0x67 SWAP3 PUSH1 0xFF AND SWAP1 JUMP JUMPDEST SWAP1 PUSH3 0x163 PUSH3 0x67 PUSH3 0x173 SWAP3 PUSH3 0x13C JUMP JUMPDEST DUP3 SLOAD PUSH1 0xFF NOT AND PUSH1 0xFF SWAP2 SWAP1 SWAP2 AND OR SWAP1 JUMP JUMPDEST SWAP1 SSTORE JUMP JUMPDEST PUSH3 0x195 PUSH3 0x18F PUSH3 0x18B PUSH1 0x0 PUSH3 0xAB JUMP JUMPDEST ISZERO SWAP1 JUMP JUMPDEST PUSH3 0xFE JUMP JUMPDEST PUSH3 0x1A1 PUSH1 0x0 PUSH3 0x130 JUMP JUMPDEST PUSH1 0xFF SWAP1 DUP2 AND SUB PUSH3 0x1AE JUMPI JUMP JUMPDEST PUSH3 0x1BC PUSH1 0xFF PUSH1 0x0 PUSH3 0x14F JUMP JUMPDEST PUSH32 0x7F26B83FF96E1F2B6A682F133852F6798A09C465DA95921460CEFB3847402498 PUSH3 0x1E7 PUSH1 0x40 MLOAD SWAP1 JUMP JUMPDEST PUSH1 0xFF DUP2 MSTORE PUSH1 0x20 SWAP1 LOG1 JUMP INVALID PUSH1 0x80 PUSH1 0x40 MSTORE PUSH1 0x4 CALLDATASIZE LT ISZERO PUSH2 0x12 JUMPI PUSH1 0x0 DUP1 REVERT JUMPDEST PUSH1 0x0 CALLDATALOAD PUSH1 0xE0 SHR DUP1 PUSH4 0x3D29D28 EQ PUSH2 0x222 JUMPI DUP1 PUSH4 0x6FDDE03 EQ PUSH2 0x21D JUMPI DUP1 PUSH4 0x95EA7B3 EQ PUSH2 0x218 JUMPI DUP1 PUSH4 0x18160DDD EQ PUSH2 0x213 JUMPI DUP1 PUSH4 0x23B872DD EQ PUSH2 0x20E JUMPI DUP1 PUSH4 0x313CE567 EQ PUSH2 0x209 JUMPI DUP1 PUSH4 0x3659CFE6 EQ PUSH2 0x204 JUMPI DUP1 PUSH4 0x39509351 EQ PUSH2 0x1FF JUMPI DUP1 PUSH4 0x3F4BA83A EQ PUSH2 0x1FA JUMPI DUP1 PUSH4 0x40C10F19 EQ PUSH2 0x1F5 JUMPI DUP1 PUSH4 0x4A492D53 EQ PUSH2 0x1F0 JUMPI DUP1 PUSH4 0x4F1EF286 EQ PUSH2 0x1EB JUMPI DUP1 PUSH4 0x52D1902D EQ PUSH2 0x1E6 JUMPI DUP1 PUSH4 0x5C975ABB EQ PUSH2 0x1E1 JUMPI DUP1 PUSH4 0x70A08231 EQ PUSH2 0x1DC JUMPI DUP1 PUSH4 0x715018A6 EQ PUSH2 0x1D7 JUMPI DUP1 PUSH4 0x7572A9DB EQ PUSH2 0x1D2 JUMPI DUP1 PUSH4 0x8456CB59 EQ PUSH2 0x1CD JUMPI DUP1 PUSH4 0x8DA5CB5B EQ PUSH2 0x1C8 JUMPI DUP1 PUSH4 0x95D89B41 EQ PUSH2 0x1C3 JUMPI DUP1 PUSH4 0x9E4E7318 EQ PUSH2 0x1BE JUMPI DUP1 PUSH4 0xA457C2D7 EQ PUSH2 0x1B9 JUMPI DUP1 PUSH4 0xA9059CBB EQ PUSH2 0x1B4 JUMPI DUP1 PUSH4 0xAA31AEE8 EQ PUSH2 0x1AF JUMPI DUP1 PUSH4 0xBFFB691D EQ PUSH2 0x1AA JUMPI DUP1 PUSH4 0xCBA4CBD3 EQ PUSH2 0x1A5 JUMPI DUP1 PUSH4 0xD5ABEB01 EQ PUSH2 0x1A0 JUMPI DUP1 PUSH4 0xD6A35CA0 EQ PUSH2 0x19B JUMPI DUP1 PUSH4 0xDD62ED3E EQ PUSH2 0x196 JUMPI DUP1 PUSH4 0xEBBA5644 EQ PUSH2 0x191 JUMPI DUP1 PUSH4 0xF2FDE38B EQ PUSH2 0x18C JUMPI DUP1 PUSH4 0xFE575A87 EQ PUSH2 0x187 JUMPI PUSH4 0xFFA1AD74 SUB PUSH2 0x227 JUMPI PUSH2 0x9DC JUMP JUMPDEST PUSH2 0x9B9 JUMP JUMPDEST PUSH2 0x9A1 JUMP JUMPDEST PUSH2 0x988 JUMP JUMPDEST PUSH2 0x96C JUMP JUMPDEST PUSH2 0x92A JUMP JUMPDEST PUSH2 0x88C JUMP JUMPDEST PUSH2 0x871 JUMP JUMPDEST PUSH2 0x849 JUMP JUMPDEST PUSH2 0x807 JUMP JUMPDEST PUSH2 0x7EB JUMP JUMPDEST PUSH2 0x7CF JUMP JUMPDEST PUSH2 0x7B4 JUMP JUMPDEST PUSH2 0x6E4 JUMP JUMPDEST PUSH2 0x6BD JUMP JUMPDEST PUSH2 0x68C JUMP JUMPDEST PUSH2 0x674 JUMP JUMPDEST PUSH2 0x65C JUMP JUMPDEST PUSH2 0x641 JUMP JUMPDEST PUSH2 0x626 JUMP JUMPDEST PUSH2 0x60B JUMP JUMPDEST PUSH2 0x5F7 JUMP JUMPDEST PUSH2 0x4E8 JUMP JUMPDEST PUSH2 0x4BB JUMP JUMPDEST PUSH2 0x4A3 JUMP JUMPDEST PUSH2 0x487 JUMP JUMPDEST PUSH2 0x46F JUMP JUMPDEST PUSH2 0x42C JUMP JUMPDEST PUSH2 0x410 JUMP JUMPDEST PUSH2 0x3BB JUMP JUMPDEST PUSH2 0x38C JUMP JUMPDEST PUSH2 0x32B JUMP JUMPDEST PUSH2 0x292 JUMP JUMPDEST PUSH1 0x0 DUP1 REVERT JUMPDEST PUSH1 0x1 PUSH1 0x1 PUSH1 0xA0 SHL SUB AND SWAP1 JUMP JUMPDEST SWAP1 JUMP JUMPDEST PUSH2 0x244 DUP2 PUSH2 0x22C JUMP JUMPDEST SUB PUSH2 0x227 JUMPI JUMP JUMPDEST SWAP1 POP CALLDATALOAD SWAP1 PUSH2 0x258 DUP3 PUSH2 0x23B JUMP JUMPDEST JUMP JUMPDEST DUP1 ISZERO ISZERO PUSH2 0x244 JUMP JUMPDEST SWAP1 POP CALLDATALOAD SWAP1 PUSH2 0x258 DUP3 PUSH2 0x25A JUMP JUMPDEST SWAP2 SWAP1 PUSH1 0x40 DUP4 DUP3 SUB SLT PUSH2 0x227 JUMPI PUSH2 0x238 SWAP1 PUSH1 0x20 PUSH2 0x28B DUP3 DUP7 PUSH2 0x24B JUMP JUMPDEST SWAP5 ADD PUSH2 0x262 JUMP JUMPDEST CALLVALUE PUSH2 0x227 JUMPI PUSH2 0x2AB PUSH2 0x2A5 CALLDATASIZE PUSH1 0x4 PUSH2 0x26F JUMP JUMPDEST SWAP1 PUSH2 0xB38 JUMP JUMPDEST PUSH1 0x40 MLOAD STOP JUMPDEST SUB SWAP1 RETURN JUMPDEST PUSH1 0x0 SWAP2 SUB SLT PUSH2 0x227 JUMPI JUMP JUMPDEST PUSH1 0x0 JUMPDEST DUP4 DUP2 LT PUSH2 0x2D2 JUMPI POP POP PUSH1 0x0 SWAP2 ADD MSTORE JUMP JUMPDEST DUP2 DUP2 ADD MLOAD DUP4 DUP3 ADD MSTORE PUSH1 0x20 ADD PUSH2 0x2C2 JUMP JUMPDEST PUSH2 0x303 PUSH2 0x30C PUSH1 0x20 SWAP4 PUSH2 0x316 SWAP4 PUSH2 0x2F7 DUP2 MLOAD SWAP1 JUMP JUMPDEST DUP1 DUP4 MSTORE SWAP4 DUP5 SWAP3 PUSH1 0x20 ADD SWAP1 JUMP JUMPDEST SWAP6 DUP7 SWAP2 ADD PUSH2 0x2BF JUMP JUMPDEST PUSH1 0x1F ADD PUSH1 0x1F NOT AND SWAP1 JUMP JUMPDEST ADD SWAP1 JUMP JUMPDEST PUSH1 0x20 DUP1 DUP3 MSTORE PUSH2 0x238 SWAP3 SWAP2 ADD SWAP1 PUSH2 0x2E2 JUMP JUMPDEST CALLVALUE PUSH2 0x227 JUMPI PUSH2 0x33B CALLDATASIZE PUSH1 0x4 PUSH2 0x2B4 JUMP JUMPDEST PUSH2 0x2B0 PUSH2 0x346 PUSH2 0xC3A JUMP JUMPDEST PUSH1 0x40 MLOAD SWAP2 DUP3 SWAP2 DUP3 PUSH2 0x31A JUMP JUMPDEST DUP1 PUSH2 0x244 JUMP JUMPDEST SWAP1 POP CALLDATALOAD SWAP1 PUSH2 0x258 DUP3 PUSH2 0x352 JUMP JUMPDEST SWAP2 SWAP1 PUSH1 0x40 DUP4 DUP3 SUB SLT PUSH2 0x227 JUMPI PUSH2 0x238 SWAP1 PUSH1 0x20 PUSH2 0x381 DUP3 DUP7 PUSH2 0x24B JUMP JUMPDEST SWAP5 ADD PUSH2 0x358 JUMP JUMPDEST SWAP1 MSTORE JUMP JUMPDEST CALLVALUE PUSH2 0x227 JUMPI PUSH2 0x2B0 PUSH2 0x3A8 PUSH2 0x3A2 CALLDATASIZE PUSH1 0x4 PUSH2 0x365 JUMP JUMPDEST SWAP1 PUSH2 0xC44 JUMP JUMPDEST PUSH1 0x40 MLOAD JUMPDEST SWAP2 DUP3 SWAP2 DUP3 SWAP1 ISZERO ISZERO DUP2 MSTORE PUSH1 0x20 ADD SWAP1 JUMP JUMPDEST CALLVALUE PUSH2 0x227 JUMPI PUSH2 0x3CB CALLDATASIZE PUSH1 0x4 PUSH2 0x2B4 JUMP JUMPDEST PUSH2 0x2B0 PUSH2 0x3D6 PUSH2 0xC65 JUMP JUMPDEST PUSH1 0x40 MLOAD JUMPDEST SWAP2 DUP3 SWAP2 DUP3 SWAP1 DUP2 MSTORE PUSH1 0x20 ADD SWAP1 JUMP JUMPDEST SWAP1 SWAP2 PUSH1 0x60 DUP3 DUP5 SUB SLT PUSH2 0x227 JUMPI PUSH2 0x238 PUSH2 0x400 DUP5 DUP5 PUSH2 0x24B JUMP JUMPDEST SWAP4 PUSH1 0x40 PUSH2 0x381 DUP3 PUSH1 0x20 DUP8 ADD PUSH2 0x24B JUMP JUMPDEST CALLVALUE PUSH2 0x227 JUMPI PUSH2 0x2B0 PUSH2 0x3A8 PUSH2 0x426 CALLDATASIZE PUSH1 0x4 PUSH2 0x3E7 JUMP JUMPDEST SWAP2 PUSH2 0xC6F JUMP JUMPDEST CALLVALUE PUSH2 0x227 JUMPI PUSH2 0x43C CALLDATASIZE PUSH1 0x4 PUSH2 0x2B4 JUMP JUMPDEST PUSH2 0x2B0 PUSH2 0x447 PUSH2 0xC92 JUMP JUMPDEST PUSH1 0x40 MLOAD SWAP2 DUP3 SWAP2 DUP3 PUSH1 0xFF SWAP1 SWAP2 AND DUP2 MSTORE PUSH1 0x20 ADD SWAP1 JUMP JUMPDEST SWAP1 PUSH1 0x20 DUP3 DUP3 SUB SLT PUSH2 0x227 JUMPI PUSH2 0x238 SWAP2 PUSH2 0x24B JUMP JUMPDEST CALLVALUE PUSH2 0x227 JUMPI PUSH2 0x2AB PUSH2 0x482 CALLDATASIZE PUSH1 0x4 PUSH2 0x45B JUMP JUMPDEST PUSH2 0xE02 JUMP JUMPDEST CALLVALUE PUSH2 0x227 JUMPI PUSH2 0x2B0 PUSH2 0x3A8 PUSH2 0x49D CALLDATASIZE PUSH1 0x4 PUSH2 0x365 JUMP JUMPDEST SWAP1 PUSH2 0xE33 JUMP JUMPDEST CALLVALUE PUSH2 0x227 JUMPI PUSH2 0x4B3 CALLDATASIZE PUSH1 0x4 PUSH2 0x2B4 JUMP JUMPDEST PUSH2 0x2AB PUSH2 0xE65 JUMP JUMPDEST CALLVALUE PUSH2 0x227 JUMPI PUSH2 0x2AB PUSH2 0x4CE CALLDATASIZE PUSH1 0x4 PUSH2 0x365 JUMP JUMPDEST SWAP1 PUSH2 0xEF5 JUMP JUMPDEST SWAP1 PUSH1 0x20 DUP3 DUP3 SUB SLT PUSH2 0x227 JUMPI PUSH2 0x238 SWAP2 PUSH2 0x262 JUMP JUMPDEST CALLVALUE PUSH2 0x227 JUMPI PUSH2 0x2AB PUSH2 0x4FB CALLDATASIZE PUSH1 0x4 PUSH2 0x4D4 JUMP JUMPDEST PUSH2 0xF96 JUMP JUMPDEST PUSH4 0x4E487B71 PUSH1 0xE0 SHL PUSH1 0x0 MSTORE PUSH1 0x41 PUSH1 0x4 MSTORE PUSH1 0x24 PUSH1 0x0 REVERT JUMPDEST SWAP1 PUSH1 0x1F ADD PUSH1 0x1F NOT AND DUP2 ADD SWAP1 DUP2 LT PUSH1 0x1 PUSH1 0x1 PUSH1 0x40 SHL SUB DUP3 GT OR PUSH2 0x537 JUMPI PUSH1 0x40 MSTORE JUMP JUMPDEST PUSH2 0x500 JUMP JUMPDEST SWAP1 PUSH2 0x258 PUSH2 0x549 PUSH1 0x40 MLOAD SWAP1 JUMP JUMPDEST SWAP3 DUP4 PUSH2 0x516 JUMP JUMPDEST PUSH1 0x1 PUSH1 0x1 PUSH1 0x40 SHL SUB DUP2 GT PUSH2 0x537 JUMPI PUSH1 0x20 SWAP1 PUSH1 0x1F ADD PUSH1 0x1F NOT AND ADD SWAP1 JUMP JUMPDEST SWAP1 DUP3 PUSH1 0x0 SWAP4 SWAP3 DUP3 CALLDATACOPY ADD MSTORE JUMP JUMPDEST SWAP1 SWAP3 SWAP2 SWAP3 PUSH2 0x58D PUSH2 0x588 DUP3 PUSH2 0x550 JUMP JUMPDEST PUSH2 0x53C JUMP JUMPDEST SWAP4 DUP2 DUP6 MSTORE DUP2 DUP4 ADD GT PUSH2 0x227 JUMPI PUSH2 0x258 SWAP2 PUSH1 0x20 DUP6 ADD SWAP1 PUSH2 0x56C JUMP JUMPDEST SWAP1 DUP1 PUSH1 0x1F DUP4 ADD SLT ISZERO PUSH2 0x227 JUMPI DUP2 PUSH1 0x20 PUSH2 0x238 SWAP4 CALLDATALOAD SWAP2 ADD PUSH2 0x578 JUMP JUMPDEST SWAP2 SWAP1 SWAP2 PUSH1 0x40 DUP2 DUP5 SUB SLT PUSH2 0x227 JUMPI PUSH2 0x5D9 DUP4 DUP3 PUSH2 0x24B JUMP JUMPDEST SWAP3 PUSH1 0x20 DUP3 ADD CALLDATALOAD PUSH1 0x1 PUSH1 0x1 PUSH1 0x40 SHL SUB DUP2 GT PUSH2 0x227 JUMPI PUSH2 0x238 SWAP3 ADD PUSH2 0x5A7 JUMP JUMPDEST PUSH2 0x2AB PUSH2 0x605 CALLDATASIZE PUSH1 0x4 PUSH2 0x5C2 JUMP JUMPDEST SWAP1 PUSH2 0xFC5 JUMP JUMPDEST CALLVALUE PUSH2 0x227 JUMPI PUSH2 0x61B CALLDATASIZE PUSH1 0x4 PUSH2 0x2B4 JUMP JUMPDEST PUSH2 0x2B0 PUSH2 0x3D6 PUSH2 0x10B5 JUMP JUMPDEST CALLVALUE PUSH2 0x227 JUMPI PUSH2 0x636 CALLDATASIZE PUSH1 0x4 PUSH2 0x2B4 JUMP JUMPDEST PUSH2 0x2B0 PUSH2 0x3A8 PUSH2 0x10BF JUMP JUMPDEST CALLVALUE PUSH2 0x227 JUMPI PUSH2 0x2B0 PUSH2 0x3D6 PUSH2 0x657 CALLDATASIZE PUSH1 0x4 PUSH2 0x45B JUMP JUMPDEST PUSH2 0x10C9 JUMP JUMPDEST CALLVALUE PUSH2 0x227 JUMPI PUSH2 0x66C CALLDATASIZE PUSH1 0x4 PUSH2 0x2B4 JUMP JUMPDEST PUSH2 0x2AB PUSH2 0x111D JUMP JUMPDEST CALLVALUE PUSH2 0x227 JUMPI PUSH2 0x2AB PUSH2 0x687 CALLDATASIZE PUSH1 0x4 PUSH2 0x4D4 JUMP JUMPDEST PUSH2 0x118F JUMP JUMPDEST CALLVALUE PUSH2 0x227 JUMPI PUSH2 0x69C CALLDATASIZE PUSH1 0x4 PUSH2 0x2B4 JUMP JUMPDEST PUSH2 0x2AB PUSH2 0x11AB JUMP JUMPDEST PUSH2 0x388 SWAP1 PUSH2 0x22C JUMP JUMPDEST PUSH1 0x20 DUP2 ADD SWAP3 SWAP2 PUSH2 0x258 SWAP2 SWAP1 PUSH2 0x6A4 JUMP JUMPDEST CALLVALUE PUSH2 0x227 JUMPI PUSH2 0x6CD CALLDATASIZE PUSH1 0x4 PUSH2 0x2B4 JUMP JUMPDEST PUSH2 0x2B0 PUSH2 0x6D8 PUSH2 0x11C6 JUMP JUMPDEST PUSH1 0x40 MLOAD SWAP2 DUP3 SWAP2 DUP3 PUSH2 0x6AD JUMP JUMPDEST CALLVALUE PUSH2 0x227 JUMPI PUSH2 0x6F4 CALLDATASIZE PUSH1 0x4 PUSH2 0x2B4 JUMP JUMPDEST PUSH2 0x2B0 PUSH2 0x346 PUSH2 0x11D0 JUMP JUMPDEST SWAP1 PUSH2 0x70C PUSH2 0x588 DUP4 PUSH2 0x550 JUMP JUMPDEST SWAP2 DUP3 MSTORE JUMP JUMPDEST PUSH2 0x71B PUSH1 0x5 PUSH2 0x6FF JUMP JUMPDEST PUSH5 0x312E302E3 PUSH1 0xDC SHL PUSH1 0x20 DUP3 ADD MSTORE SWAP1 JUMP JUMPDEST PUSH2 0x238 PUSH2 0x711 JUMP JUMPDEST PUSH2 0x238 PUSH2 0x72C JUMP JUMPDEST PUSH2 0x316 PUSH2 0x754 SWAP3 PUSH1 0x20 SWAP3 PUSH2 0x74E DUP2 MLOAD SWAP1 JUMP JUMPDEST SWAP5 DUP6 SWAP3 SWAP1 JUMP JUMPDEST SWAP4 DUP5 SWAP2 ADD PUSH2 0x2BF JUMP JUMPDEST PUSH2 0x238 SWAP2 PUSH2 0x73C JUMP JUMPDEST PUSH2 0x76E PUSH2 0x734 JUMP JUMPDEST PUSH2 0x796 PUSH2 0x77A PUSH1 0x40 MLOAD SWAP1 JUMP JUMPDEST DUP1 SWAP3 PUSH2 0x78A PUSH1 0x20 DUP4 ADD SWAP2 DUP3 PUSH2 0x75D JUMP JUMPDEST SWAP1 DUP2 SUB DUP3 MSTORE SUB DUP3 PUSH2 0x516 JUMP JUMPDEST PUSH2 0x7A8 PUSH2 0x7A1 DUP3 MLOAD SWAP1 JUMP JUMPDEST SWAP2 PUSH1 0x20 ADD SWAP1 JUMP JUMPDEST KECCAK256 SWAP1 JUMP JUMPDEST PUSH2 0x238 PUSH2 0x766 JUMP JUMPDEST CALLVALUE PUSH2 0x227 JUMPI PUSH2 0x7C4 CALLDATASIZE PUSH1 0x4 PUSH2 0x2B4 JUMP JUMPDEST PUSH2 0x2B0 PUSH2 0x3D6 PUSH2 0x7AC JUMP JUMPDEST CALLVALUE PUSH2 0x227 JUMPI PUSH2 0x2B0 PUSH2 0x3A8 PUSH2 0x7E5 CALLDATASIZE PUSH1 0x4 PUSH2 0x365 JUMP JUMPDEST SWAP1 PUSH2 0x1234 JUMP JUMPDEST CALLVALUE PUSH2 0x227 JUMPI PUSH2 0x2B0 PUSH2 0x3A8 PUSH2 0x801 CALLDATASIZE PUSH1 0x4 PUSH2 0x365 JUMP JUMPDEST SWAP1 PUSH2 0x1258 JUMP JUMPDEST CALLVALUE PUSH2 0x227 JUMPI PUSH2 0x2B0 PUSH2 0x3D6 PUSH2 0x81D CALLDATASIZE PUSH1 0x4 PUSH2 0x45B JUMP JUMPDEST PUSH2 0x1263 JUMP JUMPDEST PUSH2 0x238 SWAP2 PUSH1 0x8 MUL SHR JUMPDEST PUSH1 0xFF AND SWAP1 JUMP JUMPDEST SWAP1 PUSH2 0x238 SWAP2 SLOAD PUSH2 0x822 JUMP JUMPDEST PUSH2 0x238 PUSH1 0x0 PUSH2 0x162 PUSH2 0x831 JUMP JUMPDEST CALLVALUE PUSH2 0x227 JUMPI PUSH2 0x859 CALLDATASIZE PUSH1 0x4 PUSH2 0x2B4 JUMP JUMPDEST PUSH2 0x2B0 PUSH2 0x3A8 PUSH2 0x83C JUMP JUMPDEST PUSH2 0x238 PUSH1 0x1 PUSH2 0x162 PUSH2 0x831 JUMP JUMPDEST CALLVALUE PUSH2 0x227 JUMPI PUSH2 0x881 CALLDATASIZE PUSH1 0x4 PUSH2 0x2B4 JUMP JUMPDEST PUSH2 0x2B0 PUSH2 0x3A8 PUSH2 0x864 JUMP JUMPDEST CALLVALUE PUSH2 0x227 JUMPI PUSH2 0x89C CALLDATASIZE PUSH1 0x4 PUSH2 0x2B4 JUMP JUMPDEST PUSH2 0x2B0 PUSH2 0x3D6 PUSH2 0x127B JUMP JUMPDEST PUSH1 0xE0 DUP2 DUP4 SUB SLT PUSH2 0x227 JUMPI DUP1 CALLDATALOAD PUSH1 0x1 PUSH1 0x1 PUSH1 0x40 SHL SUB DUP2 GT PUSH2 0x227 JUMPI DUP3 PUSH2 0x8CD SWAP2 DUP4 ADD PUSH2 0x5A7 JUMP JUMPDEST SWAP3 PUSH1 0x20 DUP3 ADD CALLDATALOAD PUSH1 0x1 PUSH1 0x1 PUSH1 0x40 SHL SUB DUP2 GT PUSH2 0x227 JUMPI DUP4 PUSH2 0x8ED SWAP2 DUP5 ADD PUSH2 0x5A7 JUMP JUMPDEST SWAP3 PUSH2 0x8FB DUP2 PUSH1 0x40 DUP6 ADD PUSH2 0x358 JUMP JUMPDEST SWAP3 PUSH2 0x909 DUP3 PUSH1 0x60 DUP4 ADD PUSH2 0x358 JUMP JUMPDEST SWAP3 PUSH2 0x238 PUSH2 0x91A DUP5 PUSH1 0x80 DUP6 ADD PUSH2 0x24B JUMP JUMPDEST SWAP4 PUSH1 0xC0 PUSH2 0x28B DUP3 PUSH1 0xA0 DUP8 ADD PUSH2 0x262 JUMP JUMPDEST CALLVALUE PUSH2 0x227 JUMPI PUSH2 0x2AB PUSH2 0x93D CALLDATASIZE PUSH1 0x4 PUSH2 0x8A7 JUMP JUMPDEST SWAP6 SWAP5 SWAP1 SWAP5 SWAP4 SWAP2 SWAP4 PUSH2 0x1575 JUMP JUMPDEST SWAP2 SWAP1 PUSH1 0x40 DUP4 DUP3 SUB SLT PUSH2 0x227 JUMPI PUSH2 0x238 SWAP1 PUSH1 0x20 PUSH2 0x965 DUP3 DUP7 PUSH2 0x24B JUMP JUMPDEST SWAP5 ADD PUSH2 0x24B JUMP JUMPDEST CALLVALUE PUSH2 0x227 JUMPI PUSH2 0x2B0 PUSH2 0x3D6 PUSH2 0x982 CALLDATASIZE PUSH1 0x4 PUSH2 0x949 JUMP JUMPDEST SWAP1 PUSH2 0x1584 JUMP JUMPDEST CALLVALUE PUSH2 0x227 JUMPI PUSH2 0x2AB PUSH2 0x99B CALLDATASIZE PUSH1 0x4 PUSH2 0x365 JUMP JUMPDEST SWAP1 PUSH2 0x16B1 JUMP JUMPDEST CALLVALUE PUSH2 0x227 JUMPI PUSH2 0x2AB PUSH2 0x9B4 CALLDATASIZE PUSH1 0x4 PUSH2 0x45B JUMP JUMPDEST PUSH2 0x174B JUMP JUMPDEST CALLVALUE PUSH2 0x227 JUMPI PUSH2 0x2B0 PUSH2 0x3A8 PUSH2 0x9CF CALLDATASIZE PUSH1 0x4 PUSH2 0x45B JUMP JUMPDEST PUSH2 0x1754 JUMP JUMPDEST PUSH2 0x238 PUSH2 0x734 JUMP JUMPDEST CALLVALUE PUSH2 0x227 JUMPI PUSH2 0x9EC CALLDATASIZE PUSH1 0x4 PUSH2 0x2B4 JUMP JUMPDEST PUSH2 0x2B0 PUSH2 0x346 PUSH2 0x9D4 JUMP JUMPDEST SWAP1 PUSH2 0x258 SWAP2 PUSH2 0xA04 PUSH2 0x17CF JUMP JUMPDEST PUSH2 0xAD4 JUMP JUMPDEST PUSH2 0x238 SWAP1 PUSH2 0x82B JUMP JUMPDEST PUSH2 0x238 SWAP1 SLOAD PUSH2 0xA09 JUMP JUMPDEST ISZERO PUSH2 0xA23 JUMPI JUMP JUMPDEST PUSH1 0x40 MLOAD PUSH3 0x461BCD PUSH1 0xE5 SHL DUP2 MSTORE PUSH1 0x20 PUSH1 0x4 DUP3 ADD MSTORE PUSH1 0x1D PUSH1 0x24 DUP3 ADD MSTORE PUSH32 0x426C61636B6C6973742066656174757265206E6F7420656E61626C6564000000 PUSH1 0x44 DUP3 ADD MSTORE PUSH1 0x64 SWAP1 REVERT JUMPDEST SUB SWAP1 REVERT JUMPDEST PUSH2 0x238 SWAP1 PUSH2 0x22C SWAP1 PUSH1 0x1 PUSH1 0x1 PUSH1 0xA0 SHL SUB AND DUP3 JUMP JUMPDEST PUSH2 0x238 SWAP1 PUSH2 0xA6C JUMP JUMPDEST PUSH2 0x238 SWAP1 PUSH2 0xA80 JUMP JUMPDEST SWAP1 PUSH2 0xA9C SWAP1 PUSH2 0xA89 JUMP JUMPDEST PUSH1 0x0 MSTORE PUSH1 0x20 MSTORE PUSH1 0x40 PUSH1 0x0 KECCAK256 SWAP1 JUMP JUMPDEST SWAP1 PUSH1 0xFF SWAP1 JUMPDEST SWAP2 DUP2 NOT AND SWAP2 AND OR SWAP1 JUMP JUMPDEST SWAP1 PUSH2 0xAC9 PUSH2 0x238 PUSH2 0xAD0 SWAP3 ISZERO ISZERO SWAP1 JUMP JUMPDEST DUP3 SLOAD PUSH2 0xAAA JUMP JUMPDEST SWAP1 SSTORE JUMP JUMPDEST PUSH2 0xB33 PUSH2 0xB29 PUSH32 0x6A12B3DF6CBA4203BD7FD06B816789F87DE8C594299AED5717AE070FAC781BAC SWAP3 PUSH2 0xB0F PUSH2 0xB0A PUSH2 0x162 PUSH2 0xA12 JUMP JUMPDEST PUSH2 0xA1C JUMP JUMPDEST PUSH2 0xB24 DUP6 PUSH2 0xB1F DUP4 PUSH2 0x160 PUSH2 0xA92 JUMP JUMPDEST PUSH2 0xAB9 JUMP JUMPDEST PUSH2 0xA89 JUMP JUMPDEST SWAP3 PUSH2 0x3AC PUSH1 0x40 MLOAD SWAP1 JUMP JUMPDEST SUB SWAP1 LOG2 JUMP JUMPDEST SWAP1 PUSH2 0x258 SWAP2 PUSH2 0x9F7 JUMP JUMPDEST PUSH4 0x4E487B71 PUSH1 0xE0 SHL PUSH1 0x0 MSTORE PUSH1 0x22 PUSH1 0x4 MSTORE PUSH1 0x24 PUSH1 0x0 REVERT JUMPDEST SWAP1 PUSH1 0x1 PUSH1 0x2 DUP4 DIV SWAP3 AND DUP1 ISZERO PUSH2 0xB78 JUMPI JUMPDEST PUSH1 0x20 DUP4 LT EQ PUSH2 0xB73 JUMPI JUMP JUMPDEST PUSH2 0xB42 JUMP JUMPDEST SWAP2 PUSH1 0x7F AND SWAP2 PUSH2 0xB68 JUMP JUMPDEST DUP1 SLOAD PUSH1 0x0 SWAP4 SWAP3 SWAP2 PUSH2 0xB9F PUSH2 0xB95 DUP4 PUSH2 0xB58 JUMP JUMPDEST DUP1 DUP6 MSTORE SWAP4 PUSH1 0x20 ADD SWAP1 JUMP JUMPDEST SWAP2 PUSH1 0x1 DUP2 AND SWAP1 DUP2 ISZERO PUSH2 0xBF1 JUMPI POP PUSH1 0x1 EQ PUSH2 0xBB8 JUMPI POP POP POP JUMP JUMPDEST PUSH2 0xBCB SWAP2 SWAP3 SWAP4 SWAP5 POP PUSH1 0x0 MSTORE PUSH1 0x20 PUSH1 0x0 KECCAK256 SWAP1 JUMP JUMPDEST SWAP2 PUSH1 0x0 SWAP3 JUMPDEST DUP2 DUP5 LT PUSH2 0xBDD JUMPI POP POP ADD SWAP1 JUMP JUMPDEST DUP1 SLOAD DUP5 DUP5 ADD MSTORE PUSH1 0x20 SWAP1 SWAP4 ADD SWAP3 PUSH1 0x1 ADD PUSH2 0xBD0 JUMP JUMPDEST SWAP3 SWAP5 SWAP6 POP POP POP PUSH1 0xFF NOT AND DUP3 MSTORE ISZERO ISZERO PUSH1 0x20 MUL ADD SWAP1 JUMP JUMPDEST SWAP1 PUSH2 0x238 SWAP2 PUSH2 0xB82 JUMP JUMPDEST SWAP1 PUSH2 0x258 PUSH2 0xC2A SWAP3 PUSH2 0xC21 PUSH1 0x40 MLOAD SWAP1 JUMP JUMPDEST SWAP4 DUP5 DUP1 SWAP3 PUSH2 0xC06 JUMP JUMPDEST SUB DUP4 PUSH2 0x516 JUMP JUMPDEST PUSH2 0x238 SWAP1 PUSH2 0xC10 JUMP JUMPDEST PUSH2 0x238 PUSH1 0x36 PUSH2 0xC31 JUMP JUMPDEST PUSH2 0xC4F SWAP2 SWAP1 CALLER PUSH2 0x189B JUMP JUMPDEST PUSH1 0x1 SWAP1 JUMP JUMPDEST PUSH2 0x238 SWAP1 DUP2 JUMP JUMPDEST PUSH2 0x238 SWAP1 SLOAD PUSH2 0xC54 JUMP JUMPDEST PUSH2 0x238 PUSH1 0x35 PUSH2 0xC5B JUMP JUMPDEST PUSH2 0xC4F SWAP3 SWAP2 SWAP1 PUSH2 0xC80 DUP4 CALLER DUP4 PUSH2 0x1976 JUMP JUMPDEST PUSH2 0x1ABB JUMP JUMPDEST PUSH2 0x82B PUSH2 0x238 PUSH2 0x238 SWAP3 SWAP1 JUMP JUMPDEST PUSH2 0x238 PUSH1 0x12 PUSH2 0xC85 JUMP JUMPDEST ISZERO PUSH2 0xCA3 JUMPI JUMP JUMPDEST PUSH1 0x40 MLOAD PUSH3 0x461BCD PUSH1 0xE5 SHL DUP2 MSTORE PUSH1 0x20 PUSH1 0x4 DUP3 ADD MSTORE PUSH1 0x2C PUSH1 0x24 DUP3 ADD MSTORE PUSH1 0x0 DUP1 MLOAD PUSH1 0x20 PUSH2 0x26CE DUP4 CODECOPY DUP2 MLOAD SWAP2 MSTORE PUSH1 0x44 DUP3 ADD MSTORE PUSH12 0x19195B1959D85D1958D85B1B PUSH1 0xA2 SHL PUSH1 0x64 DUP3 ADD MSTORE PUSH1 0x84 SWAP1 REVERT JUMPDEST ISZERO PUSH2 0xCF2 JUMPI JUMP JUMPDEST PUSH1 0x40 MLOAD PUSH3 0x461BCD PUSH1 0xE5 SHL DUP2 MSTORE PUSH1 0x20 PUSH1 0x4 DUP3 ADD MSTORE PUSH1 0x2C PUSH1 0x24 DUP3 ADD MSTORE PUSH1 0x0 DUP1 MLOAD PUSH1 0x20 PUSH2 0x26CE DUP4 CODECOPY DUP2 MLOAD SWAP2 MSTORE PUSH1 0x44 DUP3 ADD MSTORE PUSH12 0x6163746976652070726F7879 PUSH1 0xA0 SHL PUSH1 0x64 DUP3 ADD MSTORE PUSH1 0x84 SWAP1 REVERT JUMPDEST PUSH2 0x258 SWAP1 PUSH2 0xDA2 PUSH2 0xD4A ADDRESS PUSH2 0xA89 JUMP JUMPDEST PUSH2 0xD88 PUSH32 0x0 SWAP2 PUSH2 0xD81 PUSH2 0xD7B DUP5 PUSH2 0x22C JUMP JUMPDEST SWAP2 PUSH2 0x22C JUMP JUMPDEST EQ ISZERO PUSH2 0xC9C JUMP JUMPDEST PUSH2 0xD9C PUSH2 0xD7B PUSH2 0xD96 PUSH2 0x1B61 JUMP JUMPDEST SWAP3 PUSH2 0x22C JUMP JUMPDEST EQ PUSH2 0xCEB JUMP JUMPDEST PUSH2 0xDDC JUMP JUMPDEST PUSH2 0x238 PUSH2 0x238 PUSH2 0x238 SWAP3 SWAP1 JUMP JUMPDEST CALLDATASIZE SWAP1 CALLDATACOPY JUMP JUMPDEST SWAP1 PUSH2 0x258 PUSH2 0xDCF PUSH2 0xDC9 DUP5 PUSH2 0x6FF JUMP JUMPDEST SWAP4 PUSH2 0x550 JUMP JUMPDEST PUSH1 0x1F NOT ADD PUSH1 0x20 DUP5 ADD PUSH2 0xDB4 JUMP JUMPDEST PUSH1 0x0 PUSH2 0x258 SWAP2 PUSH2 0xDEB DUP2 PUSH2 0x1B80 JUMP JUMPDEST PUSH2 0xDFC PUSH2 0xDF7 DUP4 PUSH2 0xDA7 JUMP JUMPDEST PUSH2 0xDB9 JUMP JUMPDEST SWAP1 PUSH2 0x1C31 JUMP JUMPDEST PUSH2 0x258 SWAP1 PUSH2 0xD3A JUMP JUMPDEST PUSH4 0x4E487B71 PUSH1 0xE0 SHL PUSH1 0x0 MSTORE PUSH1 0x11 PUSH1 0x4 MSTORE PUSH1 0x24 PUSH1 0x0 REVERT JUMPDEST SWAP2 SWAP1 DUP3 ADD DUP1 SWAP3 GT PUSH2 0xE2E JUMPI JUMP JUMPDEST PUSH2 0xE0B JUMP JUMPDEST PUSH2 0xC4F SWAP2 SWAP1 PUSH2 0xE4C CALLER SWAP3 PUSH2 0xE47 DUP4 DUP6 PUSH2 0x1584 JUMP JUMPDEST PUSH2 0xE21 JUMP JUMPDEST SWAP2 PUSH2 0x189B JUMP JUMPDEST PUSH2 0xE5A PUSH2 0x17CF JUMP JUMPDEST PUSH2 0x258 PUSH2 0x258 PUSH2 0x1D81 JUMP JUMPDEST PUSH2 0x258 PUSH2 0xE52 JUMP JUMPDEST SWAP1 PUSH2 0x258 SWAP2 PUSH2 0xE7A PUSH2 0x17CF JUMP JUMPDEST PUSH2 0xEC0 JUMP JUMPDEST ISZERO PUSH2 0xE86 JUMPI JUMP JUMPDEST PUSH1 0x40 MLOAD PUSH3 0x461BCD PUSH1 0xE5 SHL DUP2 MSTORE PUSH1 0x20 PUSH1 0x4 DUP3 ADD MSTORE PUSH1 0x12 PUSH1 0x24 DUP3 ADD MSTORE PUSH18 0x45786365656473206D617820737570706C79 PUSH1 0x70 SHL PUSH1 0x44 DUP3 ADD MSTORE PUSH1 0x64 SWAP1 REVERT JUMPDEST SWAP1 PUSH2 0x258 SWAP2 PUSH2 0xEF0 PUSH2 0xED4 DUP4 PUSH2 0xE47 PUSH2 0xC65 JUMP JUMPDEST PUSH2 0xEE9 PUSH2 0xEE5 PUSH2 0x238 PUSH2 0x15F PUSH2 0xC5B JUMP JUMPDEST SWAP2 SWAP1 JUMP JUMPDEST GT ISZERO PUSH2 0xE7F JUMP JUMPDEST PUSH2 0x1DD5 JUMP JUMPDEST SWAP1 PUSH2 0x258 SWAP2 PUSH2 0xE6D JUMP JUMPDEST PUSH2 0x258 SWAP1 PUSH2 0xF0B PUSH2 0x17CF JUMP JUMPDEST PUSH2 0xF66 JUMP JUMPDEST SWAP1 PUSH2 0xFF00 SWAP1 PUSH1 0x8 SHL PUSH2 0xAAF JUMP JUMPDEST SWAP1 PUSH2 0xF2D PUSH2 0x238 PUSH2 0xAD0 SWAP3 ISZERO ISZERO SWAP1 JUMP JUMPDEST DUP3 SLOAD PUSH2 0xF10 JUMP JUMPDEST PUSH1 0x40 DUP1 DUP3 MSTORE PUSH1 0x8 SWAP1 DUP3 ADD MSTORE PUSH8 0x74696D656C6F636B PUSH1 0xC0 SHL PUSH1 0x60 DUP3 ADD MSTORE SWAP2 SWAP1 PUSH2 0x258 SWAP1 PUSH1 0x20 PUSH1 0x80 DUP6 ADD JUMPDEST SWAP5 ADD SWAP1 ISZERO ISZERO SWAP1 MSTORE JUMP JUMPDEST PUSH2 0xF91 PUSH1 0x0 DUP1 MLOAD PUSH1 0x20 PUSH2 0x26EE DUP4 CODECOPY DUP2 MLOAD SWAP2 MSTORE SWAP2 PUSH2 0xF85 DUP2 PUSH2 0x162 PUSH2 0xF1D JUMP JUMPDEST PUSH1 0x40 MLOAD SWAP2 DUP3 SWAP2 DUP3 PUSH2 0xF34 JUMP JUMPDEST SUB SWAP1 LOG1 JUMP JUMPDEST PUSH2 0x258 SWAP1 PUSH2 0xEFF JUMP JUMPDEST SWAP1 PUSH2 0x258 SWAP2 PUSH2 0xFB0 PUSH2 0xD4A ADDRESS PUSH2 0xA89 JUMP JUMPDEST PUSH2 0x258 SWAP2 PUSH1 0x1 SWAP2 PUSH2 0xFC0 DUP2 PUSH2 0x1B80 JUMP JUMPDEST PUSH2 0x1C31 JUMP JUMPDEST SWAP1 PUSH2 0x258 SWAP2 PUSH2 0xF9F JUMP JUMPDEST ISZERO PUSH2 0xFD6 JUMPI JUMP JUMPDEST PUSH1 0x40 MLOAD PUSH3 0x461BCD PUSH1 0xE5 SHL DUP2 MSTORE PUSH1 0x20 PUSH1 0x4 DUP3 ADD MSTORE PUSH1 0x38 PUSH1 0x24 DUP3 ADD MSTORE PUSH32 0x555550535570677261646561626C653A206D757374206E6F742062652063616C PUSH1 0x44 DUP3 ADD MSTORE PUSH24 0x1B1959081D1A1C9BDD59DA0819195B1959D85D1958D85B1B PUSH1 0x42 SHL PUSH1 0x64 DUP3 ADD MSTORE PUSH1 0x84 SWAP1 REVERT JUMPDEST PUSH2 0x238 SWAP1 PUSH2 0x107E PUSH2 0x104C ADDRESS PUSH2 0xA89 JUMP JUMPDEST PUSH2 0x1078 PUSH2 0xD7B PUSH32 0x0 PUSH2 0x22C JUMP JUMPDEST EQ PUSH2 0xFCF JUMP JUMPDEST PUSH2 0x10AC JUMP JUMPDEST PUSH2 0x238 PUSH32 0x360894A13BA1A3210667C828492DB98DCA3E2076CC3735A920A3CA505D382BBC PUSH2 0xDA7 JUMP JUMPDEST POP PUSH2 0x238 PUSH2 0x1083 JUMP JUMPDEST PUSH2 0x238 PUSH1 0x0 PUSH2 0x103C JUMP JUMPDEST PUSH2 0x238 PUSH1 0x65 PUSH2 0xA12 JUMP JUMPDEST PUSH2 0x10E0 PUSH2 0x238 SWAP2 PUSH2 0x10D8 PUSH1 0x0 SWAP1 JUMP JUMPDEST POP PUSH1 0x33 PUSH2 0xA92 JUMP JUMPDEST PUSH2 0xC5B JUMP JUMPDEST PUSH2 0x10ED PUSH2 0x17CF JUMP JUMPDEST PUSH2 0x258 PUSH2 0x110B JUMP JUMPDEST PUSH2 0x22C PUSH2 0x238 PUSH2 0x238 SWAP3 SWAP1 JUMP JUMPDEST PUSH2 0x238 SWAP1 PUSH2 0x10F5 JUMP JUMPDEST PUSH2 0x258 PUSH2 0x1118 PUSH1 0x0 PUSH2 0x1102 JUMP JUMPDEST PUSH2 0x1E6A JUMP JUMPDEST PUSH2 0x258 PUSH2 0x10E5 JUMP JUMPDEST PUSH2 0x258 SWAP1 PUSH2 0x1131 PUSH2 0x17CF JUMP JUMPDEST PUSH2 0x1164 JUMP JUMPDEST PUSH1 0x40 DUP1 DUP3 MSTORE PUSH1 0x9 SWAP1 DUP3 ADD MSTORE PUSH9 0x189B1858DADB1A5CDD PUSH1 0xBA SHL PUSH1 0x60 DUP3 ADD MSTORE SWAP2 SWAP1 PUSH2 0x258 SWAP1 PUSH1 0x20 PUSH1 0x80 DUP6 ADD PUSH2 0xF5D JUMP JUMPDEST PUSH2 0xF91 PUSH1 0x0 DUP1 MLOAD PUSH1 0x20 PUSH2 0x26EE DUP4 CODECOPY DUP2 MLOAD SWAP2 MSTORE SWAP2 PUSH2 0x1183 DUP2 PUSH2 0x162 PUSH2 0xAB9 JUMP JUMPDEST PUSH1 0x40 MLOAD SWAP2 DUP3 SWAP2 DUP3 PUSH2 0x1136 JUMP JUMPDEST PUSH2 0x258 SWAP1 PUSH2 0x1125 JUMP JUMPDEST PUSH2 0x11A0 PUSH2 0x17CF JUMP JUMPDEST PUSH2 0x258 PUSH2 0x258 PUSH2 0x1EFE JUMP JUMPDEST PUSH2 0x258 PUSH2 0x1198 JUMP JUMPDEST PUSH2 0x238 SWAP1 PUSH2 0x22C JUMP JUMPDEST PUSH2 0x238 SWAP1 SLOAD PUSH2 0x11B3 JUMP JUMPDEST PUSH2 0x238 PUSH1 0xC9 PUSH2 0x11BC JUMP JUMPDEST PUSH2 0x238 PUSH1 0x37 PUSH2 0xC31 JUMP JUMPDEST ISZERO PUSH2 0x11E1 JUMPI JUMP JUMPDEST PUSH1 0x40 MLOAD PUSH3 0x461BCD PUSH1 0xE5 SHL DUP2 MSTORE PUSH1 0x20 PUSH1 0x4 DUP3 ADD MSTORE PUSH1 0x25 PUSH1 0x24 DUP3 ADD MSTORE PUSH32 0x45524332303A2064656372656173656420616C6C6F77616E63652062656C6F77 PUSH1 0x44 DUP3 ADD MSTORE PUSH5 0x207A65726F PUSH1 0xD8 SHL PUSH1 0x64 DUP3 ADD MSTORE PUSH1 0x84 SWAP1 REVERT JUMPDEST PUSH2 0xC4F SWAP2 SWAP1 PUSH2 0xE4C CALLER SWAP3 PUSH2 0x1248 DUP4 DUP6 PUSH2 0x1584 JUMP JUMPDEST PUSH2 0x1254 DUP3 DUP3 LT ISZERO PUSH2 0x11DA JUMP JUMPDEST SUB SWAP1 JUMP JUMPDEST PUSH2 0xC4F SWAP2 SWAP1 CALLER PUSH2 0x1ABB JUMP JUMPDEST PUSH2 0x10E0 PUSH2 0x238 SWAP2 PUSH2 0x1272 PUSH1 0x0 SWAP1 JUMP JUMPDEST POP PUSH2 0x161 PUSH2 0xA92 JUMP JUMPDEST PUSH2 0x238 PUSH2 0x15F PUSH2 0xC5B JUMP JUMPDEST PUSH2 0x238 SWAP1 PUSH1 0x8 SHR PUSH2 0x82B JUMP JUMPDEST PUSH2 0x238 SWAP1 SLOAD PUSH2 0x1286 JUMP JUMPDEST ISZERO PUSH2 0x12A3 JUMPI JUMP JUMPDEST PUSH1 0x40 MLOAD PUSH3 0x461BCD PUSH1 0xE5 SHL DUP2 MSTORE PUSH1 0x20 PUSH1 0x4 DUP3 ADD MSTORE PUSH1 0x2E PUSH1 0x24 DUP3 ADD MSTORE PUSH32 0x496E697469616C697A61626C653A20636F6E747261637420697320616C726561 PUSH1 0x44 DUP3 ADD MSTORE PUSH14 0x191E481A5B9A5D1A585B1A5E9959 PUSH1 0x92 SHL PUSH1 0x64 DUP3 ADD MSTORE PUSH1 0x84 SWAP1 REVERT JUMPDEST PUSH2 0x82B PUSH2 0x238 PUSH2 0x238 SWAP3 PUSH1 0xFF AND SWAP1 JUMP JUMPDEST SWAP1 PUSH2 0xAC9 PUSH2 0x238 PUSH2 0xAD0 SWAP3 PUSH2 0x12FF JUMP JUMPDEST PUSH2 0x388 SWAP1 PUSH2 0xC85 JUMP JUMPDEST PUSH1 0x20 DUP2 ADD SWAP3 SWAP2 PUSH2 0x258 SWAP2 SWAP1 PUSH2 0x131F JUMP JUMPDEST SWAP6 SWAP4 SWAP2 PUSH2 0x1388 SWAP6 SWAP4 SWAP2 PUSH2 0x1352 PUSH2 0x134E PUSH1 0x0 PUSH2 0x1292 JUMP JUMPDEST ISZERO SWAP1 JUMP JUMPDEST SWAP8 DUP9 DUP1 PUSH2 0x1425 JUMPI JUMPDEST DUP1 ISZERO PUSH2 0x13E0 JUMPI JUMPDEST PUSH2 0x136A SWAP1 PUSH2 0x129C JUMP JUMPDEST DUP9 PUSH2 0x137F PUSH2 0x1378 PUSH1 0x1 PUSH2 0xC85 JUMP JUMPDEST PUSH1 0x0 PUSH2 0x130F JUMP JUMPDEST PUSH2 0x13CF JUMPI PUSH2 0x14C2 JUMP JUMPDEST PUSH2 0x138E JUMPI JUMP JUMPDEST PUSH2 0x1399 PUSH1 0x0 DUP1 PUSH2 0xF1D JUMP JUMPDEST PUSH32 0x7F26B83FF96E1F2B6A682F133852F6798A09C465DA95921460CEFB3847402498 PUSH2 0x13C3 PUSH1 0x40 MLOAD SWAP1 JUMP JUMPDEST DUP1 PUSH2 0xF91 PUSH1 0x1 DUP3 PUSH2 0x1328 JUMP JUMPDEST PUSH2 0x13DB PUSH1 0x1 PUSH1 0x0 PUSH2 0xF1D JUMP JUMPDEST PUSH2 0x14C2 JUMP JUMPDEST POP PUSH2 0x13F5 PUSH2 0x134E PUSH2 0x13F0 ADDRESS PUSH2 0xA89 JUMP JUMPDEST PUSH2 0x1F06 JUMP JUMPDEST DUP1 ISZERO PUSH2 0x1361 JUMPI POP PUSH2 0x136A PUSH2 0x1409 PUSH1 0x0 PUSH2 0xA12 JUMP JUMPDEST PUSH2 0x141D PUSH2 0x1416 PUSH1 0x1 PUSH2 0xC85 JUMP JUMPDEST SWAP2 PUSH1 0xFF AND SWAP1 JUMP JUMPDEST EQ SWAP1 POP PUSH2 0x1361 JUMP JUMPDEST POP PUSH2 0x1430 PUSH1 0x0 PUSH2 0xA12 JUMP JUMPDEST PUSH2 0x143D PUSH2 0x1416 PUSH1 0x1 PUSH2 0xC85 JUMP JUMPDEST LT PUSH2 0x135A JUMP JUMPDEST ISZERO PUSH2 0x144A JUMPI JUMP JUMPDEST PUSH1 0x40 MLOAD PUSH3 0x461BCD PUSH1 0xE5 SHL DUP2 MSTORE PUSH1 0x20 PUSH1 0x4 DUP3 ADD MSTORE PUSH1 0x29 PUSH1 0x24 DUP3 ADD MSTORE PUSH32 0x4D617820737570706C79206D7573742062652030206F72203E3D20696E697469 PUSH1 0x44 DUP3 ADD MSTORE PUSH9 0x616C20737570706C79 PUSH1 0xB8 SHL PUSH1 0x64 DUP3 ADD MSTORE PUSH1 0x84 SWAP1 REVERT JUMPDEST SWAP1 PUSH1 0x0 NOT SWAP1 PUSH2 0xAAF JUMP JUMPDEST SWAP1 PUSH2 0x14BB PUSH2 0x238 PUSH2 0xAD0 SWAP3 PUSH2 0xDA7 JUMP JUMPDEST DUP3 SLOAD PUSH2 0x14A1 JUMP JUMPDEST SWAP5 PUSH2 0xEF0 SWAP4 PUSH2 0x14D9 PUSH2 0x154C SWAP4 PUSH2 0x258 SWAP10 SWAP6 SWAP9 PUSH2 0x1F99 JUMP JUMPDEST PUSH2 0x14E1 PUSH2 0x1FBB JUMP JUMPDEST PUSH2 0x14E9 PUSH2 0x1FDB JUMP JUMPDEST PUSH2 0x14F1 PUSH2 0x1FF0 JUMP JUMPDEST PUSH2 0x1503 PUSH2 0x14FE PUSH1 0x0 PUSH2 0x1102 JUMP JUMPDEST PUSH2 0x22C JUMP JUMPDEST PUSH2 0x150C DUP8 PUSH2 0x22C JUMP JUMPDEST SUB PUSH2 0x1567 JUMPI JUMPDEST PUSH2 0x151C PUSH1 0x0 PUSH2 0xDA7 JUMP JUMPDEST DUP2 EQ DUP1 DUP2 ISZERO PUSH2 0x155D JUMPI JUMPDEST PUSH2 0x152F SWAP1 PUSH2 0x1443 JUMP JUMPDEST ISZERO PUSH2 0x1554 JUMPI POP PUSH2 0x1544 PUSH1 0x0 NOT JUMPDEST PUSH2 0x15F PUSH2 0x14AB JUMP JUMPDEST PUSH2 0x162 PUSH2 0xAB9 JUMP JUMPDEST PUSH2 0x162 PUSH2 0xF1D JUMP JUMPDEST PUSH2 0x1544 SWAP1 PUSH2 0x153C JUMP JUMPDEST POP DUP8 DUP3 LT ISZERO PUSH2 0x1526 JUMP JUMPDEST PUSH2 0x1570 DUP7 PUSH2 0x1E6A JUMP JUMPDEST PUSH2 0x1512 JUMP JUMPDEST SWAP1 PUSH2 0x258 SWAP7 SWAP6 SWAP5 SWAP4 SWAP3 SWAP2 PUSH2 0x1338 JUMP JUMPDEST PUSH2 0x238 SWAP2 PUSH2 0x159F PUSH2 0x10E0 SWAP3 PUSH2 0x1597 PUSH1 0x0 SWAP1 JUMP JUMPDEST POP PUSH1 0x34 PUSH2 0xA92 JUMP JUMPDEST PUSH2 0xA92 JUMP JUMPDEST SWAP1 PUSH2 0x258 SWAP2 PUSH2 0x15B1 PUSH2 0x17CF JUMP JUMPDEST PUSH2 0x164C JUMP JUMPDEST ISZERO PUSH2 0x15BD JUMPI JUMP JUMPDEST PUSH1 0x40 MLOAD PUSH3 0x461BCD PUSH1 0xE5 SHL DUP2 MSTORE PUSH1 0x20 PUSH1 0x4 DUP3 ADD MSTORE PUSH1 0x1D PUSH1 0x24 DUP3 ADD MSTORE PUSH32 0x54696D65206C6F636B2066656174757265206E6F7420656E61626C6564000000 PUSH1 0x44 DUP3 ADD MSTORE PUSH1 0x64 SWAP1 REVERT JUMPDEST ISZERO PUSH2 0x1609 JUMPI JUMP JUMPDEST PUSH1 0x40 MLOAD PUSH3 0x461BCD PUSH1 0xE5 SHL DUP2 MSTORE PUSH1 0x20 PUSH1 0x4 DUP3 ADD MSTORE PUSH1 0x1B PUSH1 0x24 DUP3 ADD MSTORE PUSH27 0x4C6F636B2074696D65206D75737420626520696E20667574757265 PUSH1 0x28 SHL PUSH1 0x44 DUP3 ADD MSTORE PUSH1 0x64 SWAP1 REVERT JUMPDEST PUSH2 0xB33 PUSH2 0x16A7 PUSH32 0xA9353E70F07F31E7F4E16464F45E189CBD22826780A5ABE4DA8303652A86960A SWAP3 PUSH2 0x1687 PUSH2 0x1682 PUSH2 0x162 PUSH2 0x1292 JUMP JUMPDEST PUSH2 0x15B6 JUMP JUMPDEST PUSH2 0x1692 TIMESTAMP DUP7 GT PUSH2 0x1602 JUMP JUMPDEST PUSH2 0xB24 DUP6 PUSH2 0x16A2 DUP4 PUSH2 0x161 PUSH2 0xA92 JUMP JUMPDEST PUSH2 0x14AB JUMP JUMPDEST SWAP3 PUSH2 0x3DA PUSH1 0x40 MLOAD SWAP1 JUMP JUMPDEST SWAP1 PUSH2 0x258 SWAP2 PUSH2 0x15A4 JUMP JUMPDEST PUSH2 0x258 SWAP1 PUSH2 0x16C7 PUSH2 0x17CF JUMP JUMPDEST PUSH2 0x1727 JUMP JUMPDEST ISZERO PUSH2 0x16D3 JUMPI JUMP JUMPDEST PUSH1 0x40 MLOAD PUSH3 0x461BCD PUSH1 0xE5 SHL DUP2 MSTORE PUSH1 0x20 PUSH1 0x4 DUP3 ADD MSTORE PUSH1 0x26 PUSH1 0x24 DUP3 ADD MSTORE PUSH32 0x4F776E61626C653A206E6577206F776E657220697320746865207A65726F2061 PUSH1 0x44 DUP3 ADD MSTORE PUSH6 0x646472657373 PUSH1 0xD0 SHL PUSH1 0x64 DUP3 ADD MSTORE PUSH1 0x84 SWAP1 REVERT JUMPDEST PUSH2 0x258 SWAP1 PUSH2 0x1118 PUSH2 0x173B PUSH2 0x14FE PUSH1 0x0 PUSH2 0x1102 JUMP JUMPDEST PUSH2 0x1744 DUP4 PUSH2 0x22C JUMP JUMPDEST EQ ISZERO PUSH2 0x16CC JUMP JUMPDEST PUSH2 0x258 SWAP1 PUSH2 0x16BB JUMP JUMPDEST PUSH2 0x175F PUSH2 0x162 PUSH2 0xA12 JUMP JUMPDEST SWAP1 DUP2 PUSH2 0x1769 JUMPI POP SWAP1 JUMP JUMPDEST PUSH2 0x238 SWAP2 POP PUSH2 0x177A SWAP1 PUSH2 0x160 PUSH2 0xA92 JUMP JUMPDEST PUSH2 0xA12 JUMP JUMPDEST ISZERO PUSH2 0x1786 JUMPI JUMP JUMPDEST PUSH1 0x40 MLOAD PUSH3 0x461BCD PUSH1 0xE5 SHL DUP2 MSTORE DUP1 PUSH2 0xA68 PUSH1 0x4 DUP3 ADD PUSH1 0x20 DUP1 DUP3 MSTORE DUP2 DUP2 ADD MSTORE PUSH32 0x4F776E61626C653A2063616C6C6572206973206E6F7420746865206F776E6572 PUSH1 0x40 DUP3 ADD MSTORE PUSH1 0x60 ADD SWAP1 JUMP JUMPDEST PUSH2 0x258 PUSH2 0x17DA PUSH2 0x11C6 JUMP JUMPDEST PUSH2 0x17E6 PUSH2 0xD7B CALLER PUSH2 0x22C JUMP JUMPDEST EQ PUSH2 0x177F JUMP JUMPDEST ISZERO PUSH2 0x17F3 JUMPI JUMP JUMPDEST PUSH1 0x40 MLOAD PUSH3 0x461BCD PUSH1 0xE5 SHL DUP2 MSTORE PUSH1 0x20 PUSH1 0x4 DUP3 ADD MSTORE PUSH1 0x24 DUP1 DUP3 ADD MSTORE PUSH32 0x45524332303A20617070726F76652066726F6D20746865207A65726F20616464 PUSH1 0x44 DUP3 ADD MSTORE PUSH4 0x72657373 PUSH1 0xE0 SHL PUSH1 0x64 DUP3 ADD MSTORE PUSH1 0x84 SWAP1 REVERT JUMPDEST ISZERO PUSH2 0x184B JUMPI JUMP JUMPDEST PUSH1 0x40 MLOAD PUSH3 0x461BCD PUSH1 0xE5 SHL DUP2 MSTORE PUSH1 0x20 PUSH1 0x4 DUP3 ADD MSTORE PUSH1 0x22 PUSH1 0x24 DUP3 ADD MSTORE PUSH32 0x45524332303A20617070726F766520746F20746865207A65726F206164647265 PUSH1 0x44 DUP3 ADD MSTORE PUSH2 0x7373 PUSH1 0xF0 SHL PUSH1 0x64 DUP3 ADD MSTORE PUSH1 0x84 SWAP1 REVERT JUMPDEST PUSH2 0x1925 PUSH2 0x191B PUSH2 0x1915 PUSH32 0x8C5BE1E5EBEC7D5BD14F71427D1E84F3DD0314C0F7B2291E5B200AC8C7C3B925 SWAP4 PUSH2 0x1902 PUSH2 0x18F2 PUSH2 0x18D6 PUSH1 0x0 PUSH2 0x1102 JUMP JUMPDEST PUSH2 0x14FE PUSH2 0x18E2 DUP3 PUSH2 0x22C JUMP JUMPDEST PUSH2 0x18EB DUP7 PUSH2 0x22C JUMP JUMPDEST EQ ISZERO PUSH2 0x17EC JUMP JUMPDEST PUSH2 0x18FB DUP9 PUSH2 0x22C JUMP JUMPDEST EQ ISZERO PUSH2 0x1844 JUMP JUMPDEST PUSH2 0xB24 DUP8 PUSH2 0x16A2 DUP9 PUSH2 0x159F DUP6 PUSH1 0x34 PUSH2 0xA92 JUMP JUMPDEST SWAP4 PUSH2 0xA89 JUMP JUMPDEST SWAP4 PUSH2 0x3DA PUSH1 0x40 MLOAD SWAP1 JUMP JUMPDEST SUB SWAP1 LOG3 JUMP JUMPDEST ISZERO PUSH2 0x1931 JUMPI JUMP JUMPDEST PUSH1 0x40 MLOAD PUSH3 0x461BCD PUSH1 0xE5 SHL DUP2 MSTORE PUSH1 0x20 PUSH1 0x4 DUP3 ADD MSTORE PUSH1 0x1D PUSH1 0x24 DUP3 ADD MSTORE PUSH32 0x45524332303A20696E73756666696369656E7420616C6C6F77616E6365000000 PUSH1 0x44 DUP3 ADD MSTORE PUSH1 0x64 SWAP1 REVERT JUMPDEST SWAP1 PUSH2 0x1981 DUP2 DUP4 PUSH2 0x1584 JUMP JUMPDEST PUSH1 0x0 NOT DUP2 SUB PUSH2 0x1991 JUMPI JUMPDEST POP POP POP POP JUMP JUMPDEST PUSH2 0x19A5 SWAP4 PUSH2 0xE4C SWAP2 PUSH2 0x1254 DUP3 DUP3 LT ISZERO PUSH2 0x192A JUMP JUMPDEST CODESIZE DUP1 DUP1 DUP1 PUSH2 0x198B JUMP JUMPDEST ISZERO PUSH2 0x19B5 JUMPI JUMP JUMPDEST PUSH1 0x40 MLOAD PUSH3 0x461BCD PUSH1 0xE5 SHL DUP2 MSTORE PUSH1 0x20 PUSH1 0x4 DUP3 ADD MSTORE PUSH1 0x25 PUSH1 0x24 DUP3 ADD MSTORE PUSH32 0x45524332303A207472616E736665722066726F6D20746865207A65726F206164 PUSH1 0x44 DUP3 ADD MSTORE PUSH5 0x6472657373 PUSH1 0xD8 SHL PUSH1 0x64 DUP3 ADD MSTORE PUSH1 0x84 SWAP1 REVERT JUMPDEST ISZERO PUSH2 0x1A0F JUMPI JUMP JUMPDEST PUSH1 0x40 MLOAD PUSH3 0x461BCD PUSH1 0xE5 SHL DUP2 MSTORE PUSH1 0x20 PUSH1 0x4 DUP3 ADD MSTORE PUSH1 0x23 PUSH1 0x24 DUP3 ADD MSTORE PUSH32 0x45524332303A207472616E7366657220746F20746865207A65726F2061646472 PUSH1 0x44 DUP3 ADD MSTORE PUSH3 0x657373 PUSH1 0xE8 SHL PUSH1 0x64 DUP3 ADD MSTORE PUSH1 0x84 SWAP1 REVERT JUMPDEST ISZERO PUSH2 0x1A67 JUMPI JUMP JUMPDEST PUSH1 0x40 MLOAD PUSH3 0x461BCD PUSH1 0xE5 SHL DUP2 MSTORE PUSH1 0x20 PUSH1 0x4 DUP3 ADD MSTORE PUSH1 0x26 PUSH1 0x24 DUP3 ADD MSTORE PUSH32 0x45524332303A207472616E7366657220616D6F756E7420657863656564732062 PUSH1 0x44 DUP3 ADD MSTORE PUSH6 0x616C616E6365 PUSH1 0xD0 SHL PUSH1 0x64 DUP3 ADD MSTORE PUSH1 0x84 SWAP1 REVERT JUMPDEST PUSH2 0x1925 PUSH2 0x191B PUSH2 0x1915 PUSH1 0x0 DUP1 MLOAD PUSH1 0x20 PUSH2 0x270E DUP4 CODECOPY DUP2 MLOAD SWAP2 MSTORE SWAP4 PUSH2 0x1B10 PUSH2 0x1B00 PUSH2 0x1AE4 PUSH1 0x0 PUSH2 0x1102 JUMP JUMPDEST PUSH2 0x14FE PUSH2 0x1AF0 DUP3 PUSH2 0x22C JUMP JUMPDEST PUSH2 0x1AF9 DUP7 PUSH2 0x22C JUMP JUMPDEST EQ ISZERO PUSH2 0x19AE JUMP JUMPDEST PUSH2 0x1B09 DUP9 PUSH2 0x22C JUMP JUMPDEST EQ ISZERO PUSH2 0x1A08 JUMP JUMPDEST PUSH2 0x1B1B DUP8 DUP8 DUP4 PUSH2 0x207D JUMP JUMPDEST PUSH2 0xB24 PUSH2 0x1B4E DUP8 PUSH1 0x33 PUSH2 0x159F PUSH2 0x1B44 DUP13 PUSH2 0x1B38 PUSH2 0x10E0 DUP10 DUP7 PUSH2 0xA92 JUMP JUMPDEST PUSH2 0x1254 DUP3 DUP3 LT ISZERO PUSH2 0x1A60 JUMP JUMPDEST PUSH2 0x16A2 DUP8 DUP5 PUSH2 0xA92 JUMP JUMPDEST PUSH2 0x1B5B DUP10 PUSH2 0x316 DUP4 PUSH2 0xC5B JUMP JUMPDEST SWAP1 PUSH2 0x14AB JUMP JUMPDEST PUSH2 0x238 PUSH1 0x0 PUSH2 0x1B71 PUSH2 0x238 PUSH2 0x1083 JUMP JUMPDEST ADD PUSH2 0x11BC JUMP JUMPDEST POP PUSH2 0x258 PUSH2 0x17CF JUMP JUMPDEST PUSH2 0x258 SWAP1 PUSH2 0x1B77 JUMP JUMPDEST PUSH2 0x238 PUSH32 0x4910FDFA16FED3260ED0E7147F7CC6DA11A60208B5B9406D12A635614FFD9143 PUSH2 0xDA7 JUMP JUMPDEST SWAP1 POP MLOAD SWAP1 PUSH2 0x258 DUP3 PUSH2 0x352 JUMP JUMPDEST SWAP1 PUSH1 0x20 DUP3 DUP3 SUB SLT PUSH2 0x227 JUMPI PUSH2 0x238 SWAP2 PUSH2 0x1BB2 JUMP JUMPDEST ISZERO PUSH2 0x1BDA JUMPI JUMP JUMPDEST PUSH1 0x40 MLOAD PUSH3 0x461BCD PUSH1 0xE5 SHL DUP2 MSTORE PUSH1 0x20 PUSH1 0x4 DUP3 ADD MSTORE PUSH1 0x29 PUSH1 0x24 DUP3 ADD MSTORE PUSH32 0x45524331393637557067726164653A20756E737570706F727465642070726F78 PUSH1 0x44 DUP3 ADD MSTORE PUSH9 0x1A58589B1955555251 PUSH1 0xBA SHL PUSH1 0x64 DUP3 ADD MSTORE PUSH1 0x84 SWAP1 REVERT JUMPDEST SWAP2 SWAP1 PUSH2 0x1C49 PUSH1 0x0 PUSH2 0x1C43 PUSH2 0x238 PUSH2 0x1B89 JUMP JUMPDEST ADD PUSH2 0xA12 JUMP JUMPDEST ISZERO PUSH2 0x1C59 JUMPI POP POP PUSH2 0x258 SWAP1 PUSH2 0x21D3 JUMP JUMPDEST PUSH2 0x1C65 PUSH2 0xB24 DUP5 PUSH2 0xA89 JUMP JUMPDEST SWAP3 PUSH1 0x20 PUSH2 0x1C71 PUSH1 0x40 MLOAD SWAP1 JUMP JUMPDEST PUSH4 0x52D1902D PUSH1 0xE0 SHL DUP2 MSTORE SWAP5 DUP6 SWAP1 PUSH1 0x4 SWAP1 DUP3 SWAP1 GAS STATICCALL PUSH1 0x0 SWAP5 DUP2 PUSH2 0x1D0F JUMPI JUMPDEST POP PUSH2 0x1CEF JUMPI PUSH1 0x40 MLOAD PUSH3 0x461BCD PUSH1 0xE5 SHL DUP2 MSTORE PUSH1 0x20 PUSH1 0x4 DUP3 ADD MSTORE PUSH1 0x2E PUSH1 0x24 DUP3 ADD MSTORE PUSH32 0x45524331393637557067726164653A206E657720696D706C656D656E74617469 PUSH1 0x44 DUP3 ADD MSTORE PUSH14 0x6F6E206973206E6F742055555053 PUSH1 0x90 SHL PUSH1 0x64 DUP3 ADD MSTORE PUSH1 0x84 SWAP1 REVERT JUMPDEST PUSH2 0x1D0A PUSH2 0x258 SWAP5 PUSH2 0x1D04 PUSH2 0xEE5 PUSH2 0x238 PUSH2 0x1083 JUMP JUMPDEST EQ PUSH2 0x1BD3 JUMP JUMPDEST PUSH2 0x2132 JUMP JUMPDEST PUSH2 0x1D32 SWAP2 SWAP6 POP PUSH1 0x20 RETURNDATASIZE PUSH1 0x20 GT PUSH2 0x1D39 JUMPI JUMPDEST PUSH2 0x1D2A DUP2 DUP4 PUSH2 0x516 JUMP JUMPDEST DUP2 ADD SWAP1 PUSH2 0x1BBF JUMP JUMPDEST SWAP4 CODESIZE PUSH2 0x1C8E JUMP JUMPDEST POP RETURNDATASIZE PUSH2 0x1D20 JUMP JUMPDEST PUSH2 0x1D48 PUSH2 0x223E JUMP JUMPDEST PUSH2 0x258 PUSH2 0x1D57 PUSH1 0x0 PUSH1 0x65 PUSH2 0xAB9 JUMP JUMPDEST PUSH32 0x5DB9EE0A495BF2E6FF9C91A7834C1BA4FDD244A5E8AA4E537BD38AEAE4B073AA PUSH2 0xF91 CALLER PUSH2 0x6D8 JUMP JUMPDEST PUSH2 0x258 PUSH2 0x1D40 JUMP JUMPDEST ISZERO PUSH2 0x1D90 JUMPI JUMP JUMPDEST PUSH1 0x40 MLOAD PUSH3 0x461BCD PUSH1 0xE5 SHL DUP2 MSTORE PUSH1 0x20 PUSH1 0x4 DUP3 ADD MSTORE PUSH1 0x1F PUSH1 0x24 DUP3 ADD MSTORE PUSH32 0x45524332303A206D696E7420746F20746865207A65726F206164647265737300 PUSH1 0x44 DUP3 ADD MSTORE PUSH1 0x64 SWAP1 REVERT JUMPDEST PUSH1 0x0 DUP1 MLOAD PUSH1 0x20 PUSH2 0x270E DUP4 CODECOPY DUP2 MLOAD SWAP2 MSTORE PUSH2 0x1925 PUSH2 0x191B PUSH2 0x1915 PUSH2 0x1DF7 PUSH1 0x0 PUSH2 0x1102 JUMP JUMPDEST PUSH2 0x1E13 PUSH2 0x1E03 DUP3 PUSH2 0x22C JUMP JUMPDEST PUSH2 0x1E0C DUP9 PUSH2 0x22C JUMP JUMPDEST EQ ISZERO PUSH2 0x1D89 JUMP JUMPDEST PUSH2 0x1E1E DUP8 DUP8 DUP4 PUSH2 0x207D JUMP JUMPDEST PUSH2 0x1E36 PUSH2 0x1E2F DUP9 PUSH2 0xE47 PUSH1 0x35 PUSH2 0xC5B JUMP JUMPDEST PUSH1 0x35 PUSH2 0x14AB JUMP JUMPDEST PUSH2 0xB24 PUSH2 0x1B4E DUP8 PUSH1 0x33 PUSH2 0xA92 JUMP JUMPDEST SWAP1 PUSH1 0x1 PUSH1 0x1 PUSH1 0xA0 SHL SUB SWAP1 PUSH2 0xAAF JUMP JUMPDEST SWAP1 PUSH2 0x1E63 PUSH2 0x238 PUSH2 0xAD0 SWAP3 PUSH2 0xA89 JUMP JUMPDEST DUP3 SLOAD PUSH2 0x1E44 JUMP JUMPDEST PUSH2 0x1E8B PUSH2 0x1E85 PUSH2 0x1E7A PUSH1 0xC9 PUSH2 0x11BC JUMP JUMPDEST PUSH2 0xB24 DUP5 PUSH1 0xC9 PUSH2 0x1E53 JUMP JUMPDEST SWAP2 PUSH2 0xA89 JUMP JUMPDEST SWAP1 PUSH32 0x8BE0079C531659141344CD1FD0A4F28419497F9722A3DAAFE3B4186F6B6457E0 PUSH2 0x1EB6 PUSH1 0x40 MLOAD SWAP1 JUMP JUMPDEST DUP1 DUP1 PUSH2 0x1925 JUMP JUMPDEST PUSH2 0x1EC5 PUSH2 0x228D JUMP JUMPDEST PUSH2 0x258 PUSH2 0x1ED4 PUSH1 0x1 PUSH1 0x65 PUSH2 0xAB9 JUMP JUMPDEST PUSH32 0x62E78CEA01BEE320CD4E420270B5EA74000D11B0C9F74754EBDBFC544B05A258 PUSH2 0xF91 CALLER PUSH2 0x6D8 JUMP JUMPDEST PUSH2 0x258 PUSH2 0x1EBD JUMP JUMPDEST EXTCODESIZE PUSH2 0x1F14 PUSH2 0xEE5 PUSH1 0x0 PUSH2 0xDA7 JUMP JUMPDEST GT SWAP1 JUMP JUMPDEST ISZERO PUSH2 0x1F1F JUMPI JUMP JUMPDEST PUSH1 0x40 MLOAD PUSH3 0x461BCD PUSH1 0xE5 SHL DUP2 MSTORE PUSH1 0x20 PUSH1 0x4 DUP3 ADD MSTORE PUSH1 0x2B PUSH1 0x24 DUP3 ADD MSTORE PUSH32 0x496E697469616C697A61626C653A20636F6E7472616374206973206E6F742069 PUSH1 0x44 DUP3 ADD MSTORE PUSH11 0x6E697469616C697A696E67 PUSH1 0xA8 SHL PUSH1 0x64 DUP3 ADD MSTORE PUSH1 0x84 SWAP1 REVERT JUMPDEST SWAP1 PUSH2 0x258 SWAP2 PUSH2 0x1F8F PUSH2 0x1F8A PUSH1 0x0 PUSH2 0x1292 JUMP JUMPDEST PUSH2 0x1F18 JUMP JUMPDEST SWAP1 PUSH2 0x258 SWAP2 PUSH2 0x2463 JUMP JUMPDEST SWAP1 PUSH2 0x258 SWAP2 PUSH2 0x1F78 JUMP JUMPDEST PUSH2 0x1FB0 PUSH2 0x1F8A PUSH1 0x0 PUSH2 0x1292 JUMP JUMPDEST PUSH2 0x258 PUSH2 0x258 PUSH2 0x2489 JUMP JUMPDEST PUSH2 0x258 PUSH2 0x1FA3 JUMP JUMPDEST PUSH2 0x1FD0 PUSH2 0x1F8A PUSH1 0x0 PUSH2 0x1292 JUMP JUMPDEST PUSH2 0x258 PUSH2 0x258 PUSH2 0x24A8 JUMP JUMPDEST PUSH2 0x258 PUSH2 0x1FC3 JUMP JUMPDEST PUSH2 0x258 PUSH2 0x1F8A PUSH1 0x0 PUSH2 0x1292 JUMP JUMPDEST PUSH2 0x258 PUSH2 0x1FE3 JUMP JUMPDEST ISZERO PUSH2 0x1FFF JUMPI JUMP JUMPDEST PUSH1 0x40 MLOAD PUSH3 0x461BCD PUSH1 0xE5 SHL DUP2 MSTORE PUSH1 0x20 PUSH1 0x4 DUP3 ADD MSTORE PUSH1 0x16 PUSH1 0x24 DUP3 ADD MSTORE PUSH22 0x1059191C995CDCC81A5CC8189B1858DADB1A5CDD1959 PUSH1 0x52 SHL PUSH1 0x44 DUP3 ADD MSTORE PUSH1 0x64 SWAP1 REVERT JUMPDEST ISZERO PUSH2 0x2044 JUMPI JUMP JUMPDEST PUSH1 0x40 MLOAD PUSH3 0x461BCD PUSH1 0xE5 SHL DUP2 MSTORE PUSH1 0x20 PUSH1 0x4 DUP3 ADD MSTORE PUSH1 0x11 PUSH1 0x24 DUP3 ADD MSTORE PUSH17 0x151BDAD95B9CC8185C99481B1BD8DAD959 PUSH1 0x7A SHL PUSH1 0x44 DUP3 ADD MSTORE PUSH1 0x64 SWAP1 REVERT JUMPDEST SWAP2 PUSH2 0x2089 SWAP1 DUP3 DUP5 PUSH2 0x250F JUMP JUMPDEST PUSH2 0x2094 PUSH2 0x162 PUSH2 0xA12 JUMP JUMPDEST PUSH2 0x20ED JUMPI JUMPDEST POP PUSH2 0x20A5 PUSH2 0x162 PUSH2 0x1292 JUMP JUMPDEST DUP1 PUSH2 0x20CF JUMPI JUMPDEST PUSH2 0x20B2 JUMPI POP JUMP JUMPDEST PUSH2 0x20C7 PUSH2 0x238 PUSH2 0x10E0 PUSH2 0x258 SWAP4 PUSH2 0x161 PUSH2 0xA92 JUMP JUMPDEST TIMESTAMP LT ISZERO PUSH2 0x203D JUMP JUMPDEST POP PUSH2 0x20DD PUSH2 0x14FE PUSH1 0x0 PUSH2 0x1102 JUMP JUMPDEST PUSH2 0x20E6 DUP3 PUSH2 0x22C JUMP JUMPDEST EQ ISZERO PUSH2 0x20AB JUMP JUMPDEST PUSH2 0x2113 SWAP1 PUSH2 0x160 SWAP1 PUSH2 0x2105 PUSH2 0x134E PUSH2 0x177A DUP7 DUP6 PUSH2 0xA92 JUMP JUMPDEST SWAP2 DUP3 PUSH2 0x2119 JUMPI JUMPDEST POP POP PUSH2 0x1FF8 JUMP JUMPDEST CODESIZE PUSH2 0x2099 JUMP JUMPDEST PUSH2 0x212B SWAP3 POP PUSH2 0x134E SWAP2 PUSH2 0x177A SWAP2 PUSH2 0xA92 JUMP JUMPDEST CODESIZE DUP1 PUSH2 0x210C JUMP JUMPDEST SWAP2 PUSH2 0x213C DUP4 PUSH2 0x2525 JUMP JUMPDEST DUP2 MLOAD PUSH2 0x214B PUSH2 0xEE5 PUSH1 0x0 PUSH2 0xDA7 JUMP JUMPDEST GT SWAP1 DUP2 ISZERO PUSH2 0x2169 JUMPI JUMPDEST POP PUSH2 0x215D JUMPI POP POP JUMP JUMPDEST PUSH2 0x2166 SWAP2 PUSH2 0x25AE JUMP JUMPDEST POP JUMP JUMPDEST SWAP1 POP CODESIZE PUSH2 0x2154 JUMP JUMPDEST ISZERO PUSH2 0x2178 JUMPI JUMP JUMPDEST PUSH1 0x40 MLOAD PUSH3 0x461BCD PUSH1 0xE5 SHL DUP2 MSTORE PUSH1 0x20 PUSH1 0x4 DUP3 ADD MSTORE PUSH1 0x2D PUSH1 0x24 DUP3 ADD MSTORE PUSH32 0x455243313936373A206E657720696D706C656D656E746174696F6E206973206E PUSH1 0x44 DUP3 ADD MSTORE PUSH13 0x1BDD08184818DBDB9D1C9858DD PUSH1 0x9A SHL PUSH1 0x64 DUP3 ADD MSTORE PUSH1 0x84 SWAP1 REVERT JUMPDEST PUSH2 0x258 SWAP1 PUSH2 0x21E8 PUSH2 0x21E3 DUP3 PUSH2 0x1F06 JUMP JUMPDEST PUSH2 0x2171 JUMP JUMPDEST PUSH1 0x0 PUSH2 0x21F5 PUSH2 0x238 PUSH2 0x1083 JUMP JUMPDEST ADD PUSH2 0x1E53 JUMP JUMPDEST ISZERO PUSH2 0x2202 JUMPI JUMP JUMPDEST PUSH1 0x40 MLOAD PUSH3 0x461BCD PUSH1 0xE5 SHL DUP2 MSTORE PUSH1 0x20 PUSH1 0x4 DUP3 ADD MSTORE PUSH1 0x14 PUSH1 0x24 DUP3 ADD MSTORE PUSH20 0x14185D5CD8589B194E881B9BDD081C185D5CD959 PUSH1 0x62 SHL PUSH1 0x44 DUP3 ADD MSTORE PUSH1 0x64 SWAP1 REVERT JUMPDEST PUSH2 0x258 PUSH2 0x2249 PUSH2 0x10BF JUMP JUMPDEST PUSH2 0x21FB JUMP JUMPDEST ISZERO PUSH2 0x2255 JUMPI JUMP JUMPDEST PUSH1 0x40 MLOAD PUSH3 0x461BCD PUSH1 0xE5 SHL DUP2 MSTORE PUSH1 0x20 PUSH1 0x4 DUP3 ADD MSTORE PUSH1 0x10 PUSH1 0x24 DUP3 ADD MSTORE PUSH16 0x14185D5CD8589B194E881C185D5CD959 PUSH1 0x82 SHL PUSH1 0x44 DUP3 ADD MSTORE PUSH1 0x64 SWAP1 REVERT JUMPDEST PUSH2 0x258 PUSH2 0x229B PUSH2 0x134E PUSH2 0x10BF JUMP JUMPDEST PUSH2 0x224E JUMP JUMPDEST SWAP1 PUSH2 0x258 SWAP2 PUSH2 0x22B2 PUSH2 0x1F8A PUSH1 0x0 PUSH2 0x1292 JUMP JUMPDEST PUSH2 0x244D JUMP JUMPDEST SWAP2 PUSH1 0x0 NOT PUSH1 0x8 SWAP3 SWAP1 SWAP3 MUL SWAP2 DUP3 SHL SWAP2 SHL PUSH2 0xAAF JUMP JUMPDEST SWAP2 SWAP1 PUSH2 0x22DC PUSH2 0x238 PUSH2 0xAD0 SWAP4 PUSH2 0xDA7 JUMP JUMPDEST SWAP1 DUP4 SLOAD PUSH2 0x22B7 JUMP JUMPDEST PUSH2 0x258 SWAP2 PUSH1 0x0 SWAP2 PUSH2 0x22CB JUMP JUMPDEST DUP2 DUP2 LT PUSH2 0x22FB JUMPI POP POP JUMP JUMPDEST DUP1 PUSH2 0x2309 PUSH1 0x0 PUSH1 0x1 SWAP4 PUSH2 0x22E4 JUMP JUMPDEST ADD PUSH2 0x22F0 JUMP JUMPDEST SWAP2 SWAP1 PUSH1 0x1F DUP2 GT PUSH2 0x231E JUMPI POP POP POP JUMP JUMPDEST PUSH2 0x2330 PUSH2 0x258 SWAP4 PUSH1 0x0 MSTORE PUSH1 0x20 PUSH1 0x0 KECCAK256 SWAP1 JUMP JUMPDEST SWAP1 PUSH1 0x20 PUSH1 0x1F DUP5 ADD DUP2 SWAP1 DIV DUP4 ADD SWAP4 LT PUSH2 0x2352 JUMPI JUMPDEST PUSH1 0x20 PUSH1 0x1F SWAP1 SWAP2 ADD DIV ADD SWAP1 PUSH2 0x22F0 JUMP JUMPDEST SWAP1 SWAP2 POP DUP2 SWAP1 PUSH2 0x2343 JUMP JUMPDEST SWAP1 PUSH1 0x0 NOT PUSH1 0x8 SWAP1 SWAP2 MUL SHR NOT AND SWAP1 JUMP JUMPDEST DUP2 PUSH2 0x2375 SWAP2 PUSH2 0x235C JUMP JUMPDEST SWAP1 PUSH1 0x2 MUL OR SWAP1 JUMP JUMPDEST SWAP1 PUSH2 0x2386 DUP2 MLOAD SWAP1 JUMP JUMPDEST SWAP1 PUSH1 0x1 PUSH1 0x1 PUSH1 0x40 SHL SUB DUP3 GT PUSH2 0x537 JUMPI PUSH2 0x23A9 DUP3 PUSH2 0x23A3 DUP6 SLOAD PUSH2 0xB58 JUMP JUMPDEST DUP6 PUSH2 0x230F JUMP JUMPDEST PUSH1 0x20 SWAP1 PUSH1 0x1F DUP4 GT PUSH1 0x1 EQ PUSH2 0x23D7 JUMPI PUSH2 0xAD0 SWAP3 SWAP2 PUSH1 0x0 SWAP2 DUP4 PUSH2 0x23CC JUMPI JUMPDEST POP POP PUSH2 0x236B JUMP JUMPDEST ADD MLOAD SWAP1 POP CODESIZE DUP1 PUSH2 0x23C5 JUMP JUMPDEST PUSH1 0x1F NOT DUP4 AND SWAP2 PUSH2 0x23EC DUP6 PUSH1 0x0 MSTORE PUSH1 0x20 PUSH1 0x0 KECCAK256 SWAP1 JUMP JUMPDEST SWAP3 PUSH1 0x0 JUMPDEST DUP2 DUP2 LT PUSH2 0x242B JUMPI POP SWAP2 PUSH1 0x2 SWAP4 SWAP2 DUP6 PUSH1 0x1 SWAP7 SWAP5 LT PUSH2 0x2411 JUMPI JUMPDEST POP POP POP MUL ADD SWAP1 SSTORE JUMP JUMPDEST PUSH2 0x2421 SWAP2 ADD MLOAD PUSH1 0x1F DUP5 AND SWAP1 PUSH2 0x235C JUMP JUMPDEST SWAP1 SSTORE CODESIZE DUP1 DUP1 PUSH2 0x2408 JUMP JUMPDEST SWAP2 SWAP4 PUSH1 0x20 PUSH1 0x1 DUP2 SWAP3 DUP8 DUP8 ADD MLOAD DUP2 SSTORE ADD SWAP6 ADD SWAP3 ADD PUSH2 0x23F0 JUMP JUMPDEST SWAP1 PUSH2 0x258 SWAP2 PUSH2 0x237D JUMP JUMPDEST SWAP1 PUSH2 0x245C PUSH2 0x258 SWAP3 PUSH1 0x36 PUSH2 0x2443 JUMP JUMPDEST PUSH1 0x37 PUSH2 0x2443 JUMP JUMPDEST SWAP1 PUSH2 0x258 SWAP2 PUSH2 0x22A0 JUMP JUMPDEST PUSH2 0x247A PUSH2 0x1F8A PUSH1 0x0 PUSH2 0x1292 JUMP JUMPDEST PUSH2 0x258 PUSH2 0x258 PUSH1 0x0 PUSH1 0x65 PUSH2 0xAB9 JUMP JUMPDEST PUSH2 0x258 PUSH2 0x246D JUMP JUMPDEST PUSH2 0x249E PUSH2 0x1F8A PUSH1 0x0 PUSH2 0x1292 JUMP JUMPDEST PUSH2 0x258 DUP1 CALLER PUSH2 0x1E6A JUMP JUMPDEST PUSH2 0x258 PUSH2 0x2491 JUMP JUMPDEST ISZERO PUSH2 0x24B7 JUMPI JUMP JUMPDEST PUSH1 0x40 MLOAD PUSH3 0x461BCD PUSH1 0xE5 SHL DUP2 MSTORE PUSH1 0x20 PUSH1 0x4 DUP3 ADD MSTORE PUSH1 0x2A PUSH1 0x24 DUP3 ADD MSTORE PUSH32 0x45524332305061757361626C653A20746F6B656E207472616E73666572207768 PUSH1 0x44 DUP3 ADD MSTORE PUSH10 0x1A5B19481C185D5CD959 PUSH1 0xB2 SHL PUSH1 0x64 DUP3 ADD MSTORE PUSH1 0x84 SWAP1 REVERT JUMPDEST POP POP POP PUSH2 0x258 PUSH2 0x2520 PUSH2 0x134E PUSH2 0x10BF JUMP JUMPDEST PUSH2 0x24B0 JUMP JUMPDEST PUSH2 0x2532 SWAP1 PUSH2 0xB24 DUP2 PUSH2 0x21D3 JUMP JUMPDEST PUSH32 0xBC7CD75A20EE27FD9ADEBAB32041F755214DBC6BFFA90CC0225B39DA2E5C2D3B PUSH2 0x255C PUSH1 0x40 MLOAD SWAP1 JUMP JUMPDEST DUP1 DUP1 PUSH2 0xB33 JUMP JUMPDEST PUSH2 0x256D PUSH1 0x27 PUSH2 0x6FF JUMP JUMPDEST PUSH32 0x416464726573733A206C6F772D6C6576656C2064656C65676174652063616C6C PUSH1 0x20 DUP3 ADD MSTORE PUSH7 0x819985A5B1959 PUSH1 0xCA SHL PUSH1 0x40 DUP3 ADD MSTORE SWAP1 JUMP JUMPDEST PUSH2 0x238 PUSH2 0x2563 JUMP JUMPDEST PUSH2 0x238 SWAP2 PUSH2 0x25BA PUSH2 0x25A6 JUMP JUMPDEST SWAP2 PUSH2 0x25DF JUMP JUMPDEST RETURNDATASIZE ISZERO PUSH2 0x25DA JUMPI PUSH2 0x25CF RETURNDATASIZE PUSH2 0x6FF JUMP JUMPDEST SWAP1 RETURNDATASIZE PUSH1 0x0 PUSH1 0x20 DUP5 ADD RETURNDATACOPY JUMP JUMPDEST PUSH1 0x60 SWAP1 JUMP JUMPDEST PUSH1 0x0 DUP1 PUSH2 0x238 SWAP5 SWAP4 PUSH2 0x25EF PUSH1 0x60 SWAP1 JUMP JUMPDEST POP PUSH1 0x20 DUP2 MLOAD SWAP2 ADD DUP5 GAS DELEGATECALL PUSH2 0x2601 PUSH2 0x25C0 JUMP JUMPDEST SWAP2 PUSH2 0x2653 JUMP JUMPDEST ISZERO PUSH2 0x260E JUMPI JUMP JUMPDEST PUSH1 0x40 MLOAD PUSH3 0x461BCD PUSH1 0xE5 SHL DUP2 MSTORE PUSH1 0x20 PUSH1 0x4 DUP3 ADD MSTORE PUSH1 0x1D PUSH1 0x24 DUP3 ADD MSTORE PUSH32 0x416464726573733A2063616C6C20746F206E6F6E2D636F6E7472616374000000 PUSH1 0x44 DUP3 ADD MSTORE PUSH1 0x64 SWAP1 REVERT JUMPDEST SWAP2 SWAP3 SWAP1 ISZERO PUSH2 0x2685 JUMPI POP DUP2 MLOAD PUSH2 0x266B PUSH2 0xEE5 PUSH1 0x0 PUSH2 0xDA7 JUMP JUMPDEST EQ PUSH2 0x2674 JUMPI POP SWAP1 JUMP JUMPDEST PUSH2 0x2680 PUSH2 0x238 SWAP2 PUSH2 0x1F06 JUMP JUMPDEST PUSH2 0x2607 JUMP JUMPDEST DUP3 SWAP1 PUSH2 0x268F DUP3 MLOAD SWAP1 JUMP JUMPDEST PUSH2 0x269C PUSH2 0xEE5 PUSH1 0x0 PUSH2 0xDA7 JUMP JUMPDEST GT ISZERO PUSH2 0x26AB JUMPI POP DUP1 MLOAD SWAP1 PUSH1 0x20 ADD REVERT JUMPDEST PUSH2 0xA68 SWAP1 PUSH2 0x26B8 PUSH1 0x40 MLOAD SWAP1 JUMP JUMPDEST PUSH3 0x461BCD PUSH1 0xE5 SHL DUP2 MSTORE SWAP2 DUP3 SWAP2 PUSH1 0x4 DUP4 ADD PUSH2 0x31A JUMP INVALID CHAINID PUSH22 0x6E6374696F6E206D7573742062652063616C6C656420 PUSH21 0x68726F7567682043A0148BE74197659BE43BACDAC4 0xE4 SWAP3 0xC6 0xE5 MSTORE SWAP2 0x22 0x5E 0x29 REVERT 0x4F MULMOD DUP9 PUSH9 0xFF304FC1DDF252AD1B 0xE2 0xC8 SWAP12 PUSH10 0xC2B068FC378DAA952BA7 CALL PUSH4 0xC4A11628 CREATE2 GAS 0x4D CREATE2 0x23 0xB3 0xEF LOG2 PUSH5 0x6970667358 0x22 SLT KECCAK256 0xEF 0x2B PUSH16 0x86DC305F0C2DDAECDD8037DDD937E4FE AND 0xE6 0xB9 0xC 0x2C MSTORE PUSH14 0xBB3D5D698DFD64736F6C63430008 AND STOP CALLER LOG2 PUSH5 0x6970667358 0x22 SLT KECCAK256 PUSH5 0xCBB7B0666C SAR EXTCODECOPY LOG1 0xD6 PUSH24 0xEFAB8CA55B02AEA0975A61E4839B62EFC27B406F2864736F PUSH13 0x63430008160033000000000000 "},"methodIdentifiers":{"VERSION()":"ffa1ad74","VERSION_HASH()":"9e4e7318","createToken(string,string,uint256,uint256,bool,bool)":"7c9b5445","deploymentFee()":"f2cff57f","getDeployedTokens()":"622ae7aa","getTokenDeployer(address)":"b14e7ee6","getUserTokens(address)":"519dc8d2","owner()":"8da5cb5b","renounceOwnership()":"715018a6","setDeploymentFee(uint256)":"d002462b","transferOwnership(address)":"f2fde38b","withdrawFees()":"476343ee"}}}}}