{"src/contracts/TokenTemplate_v3.sol":{"TokenTemplate_v3":{"abi":[{"inputs":[],"stateMutability":"nonpayable","type":"constructor"},{"anonymous":false,"inputs":[{"indexed":true,"internalType":"address","name":"owner","type":"address"},{"indexed":true,"internalType":"address","name":"spender","type":"address"},{"indexed":false,"internalType":"uint256","name":"value","type":"uint256"}],"name":"Approval","type":"event"},{"anonymous":false,"inputs":[{"indexed":true,"internalType":"address","name":"account","type":"address"},{"indexed":false,"internalType":"bool","name":"status","type":"bool"}],"name":"BlacklistUpdated","type":"event"},{"anonymous":false,"inputs":[{"indexed":true,"internalType":"address","name":"pair","type":"address"},{"indexed":false,"internalType":"uint256","name":"tokensAdded","type":"uint256"},{"indexed":false,"internalType":"uint256","name":"ethAdded","type":"uint256"}],"name":"LiquidityAdded","type":"event"},{"anonymous":false,"inputs":[{"indexed":true,"internalType":"address","name":"previousOwner","type":"address"},{"indexed":true,"internalType":"address","name":"newOwner","type":"address"}],"name":"OwnershipTransferred","type":"event"},{"anonymous":false,"inputs":[{"indexed":false,"internalType":"address","name":"account","type":"address"}],"name":"Paused","type":"event"},{"anonymous":false,"inputs":[],"name":"Paused","type":"event"},{"anonymous":false,"inputs":[{"indexed":false,"internalType":"uint256","name":"totalRaised","type":"uint256"}],"name":"PresaleEnded","type":"event"},{"anonymous":false,"inputs":[{"indexed":false,"internalType":"uint256","name":"startTime","type":"uint256"},{"indexed":false,"internalType":"uint256","name":"endTime","type":"uint256"}],"name":"PresaleStarted","type":"event"},{"anonymous":false,"inputs":[{"indexed":true,"internalType":"address","name":"account","type":"address"},{"indexed":false,"internalType":"uint256","name":"timestamp","type":"uint256"}],"name":"TimeLockSet","type":"event"},{"anonymous":false,"inputs":[{"indexed":true,"internalType":"address","name":"wallet","type":"address"},{"indexed":false,"internalType":"uint256","name":"amount","type":"uint256"}],"name":"TokensClaimed","type":"event"},{"anonymous":false,"inputs":[{"indexed":true,"internalType":"address","name":"from","type":"address"},{"indexed":true,"internalType":"address","name":"to","type":"address"},{"indexed":false,"internalType":"uint256","name":"value","type":"uint256"}],"name":"Transfer","type":"event"},{"anonymous":false,"inputs":[{"indexed":false,"internalType":"address","name":"account","type":"address"}],"name":"Unpaused","type":"event"},{"anonymous":false,"inputs":[],"name":"Unpaused","type":"event"},{"inputs":[{"internalType":"uint256","name":"tokenAmount","type":"uint256"}],"name":"addLiquidity","outputs":[],"stateMutability":"payable","type":"function"},{"inputs":[{"internalType":"uint256","name":"tokenAmount","type":"uint256"}],"name":"addLiquidityFromContract","outputs":[],"stateMutability":"payable","type":"function"},{"inputs":[{"internalType":"address","name":"owner","type":"address"},{"internalType":"address","name":"spender","type":"address"}],"name":"allowance","outputs":[{"internalType":"uint256","name":"","type":"uint256"}],"stateMutability":"view","type":"function"},{"inputs":[{"internalType":"address","name":"spender","type":"address"},{"internalType":"uint256","name":"amount","type":"uint256"}],"name":"approve","outputs":[{"internalType":"bool","name":"","type":"bool"}],"stateMutability":"nonpayable","type":"function"},{"inputs":[{"internalType":"address","name":"account","type":"address"}],"name":"balanceOf","outputs":[{"internalType":"uint256","name":"","type":"uint256"}],"stateMutability":"view","type":"function"},{"inputs":[],"name":"blacklistEnabled","outputs":[{"internalType":"bool","name":"","type":"bool"}],"stateMutability":"view","type":"function"},{"inputs":[{"internalType":"uint256","name":"amount","type":"uint256"}],"name":"burn","outputs":[],"stateMutability":"nonpayable","type":"function"},{"inputs":[{"internalType":"address","name":"account","type":"address"},{"internalType":"uint256","name":"amount","type":"uint256"}],"name":"burnFrom","outputs":[],"stateMutability":"nonpayable","type":"function"},{"inputs":[],"name":"claimVestedTokens","outputs":[],"stateMutability":"nonpayable","type":"function"},{"inputs":[{"internalType":"address","name":"","type":"address"}],"name":"claimedAmount","outputs":[{"internalType":"uint256","name":"","type":"uint256"}],"stateMutability":"view","type":"function"},{"inputs":[],"name":"decimals","outputs":[{"internalType":"uint8","name":"","type":"uint8"}],"stateMutability":"view","type":"function"},{"inputs":[{"internalType":"address","name":"spender","type":"address"},{"internalType":"uint256","name":"subtractedValue","type":"uint256"}],"name":"decreaseAllowance","outputs":[{"internalType":"bool","name":"","type":"bool"}],"stateMutability":"nonpayable","type":"function"},{"inputs":[],"name":"endTime","outputs":[{"internalType":"uint256","name":"","type":"uint256"}],"stateMutability":"view","type":"function"},{"inputs":[{"internalType":"address","name":"wallet","type":"address"}],"name":"getClaimedAmount","outputs":[{"internalType":"uint256","name":"","type":"uint256"}],"stateMutability":"view","type":"function"},{"inputs":[],"name":"getRemainingLiquidityAllocation","outputs":[{"internalType":"uint256","name":"","type":"uint256"}],"stateMutability":"view","type":"function"},{"inputs":[{"internalType":"address","name":"account","type":"address"}],"name":"getUnlockTime","outputs":[{"internalType":"uint256","name":"","type":"uint256"}],"stateMutability":"view","type":"function"},{"inputs":[{"internalType":"address","name":"wallet","type":"address"}],"name":"getVestedAmount","outputs":[{"internalType":"uint256","name":"","type":"uint256"}],"stateMutability":"view","type":"function"},{"inputs":[],"name":"getWalletAllocations","outputs":[{"components":[{"internalType":"address","name":"wallet","type":"address"},{"internalType":"uint256","name":"percentage","type":"uint256"},{"internalType":"bool","name":"vestingEnabled","type":"bool"},{"internalType":"uint256","name":"vestingDuration","type":"uint256"},{"internalType":"uint256","name":"cliffDuration","type":"uint256"},{"internalType":"uint256","name":"vestingStartTime","type":"uint256"}],"internalType":"struct TokenTemplate_v3.WalletAllocation[]","name":"","type":"tuple[]"}],"stateMutability":"view","type":"function"},{"inputs":[],"name":"hardCap","outputs":[{"internalType":"uint256","name":"","type":"uint256"}],"stateMutability":"view","type":"function"},{"inputs":[{"internalType":"address","name":"spender","type":"address"},{"internalType":"uint256","name":"addedValue","type":"uint256"}],"name":"increaseAllowance","outputs":[{"internalType":"bool","name":"","type":"bool"}],"stateMutability":"nonpayable","type":"function"},{"inputs":[{"components":[{"internalType":"string","name":"name","type":"string"},{"internalType":"string","name":"symbol","type":"string"},{"internalType":"uint256","name":"initialSupply","type":"uint256"},{"internalType":"uint256","name":"maxSupply","type":"uint256"},{"internalType":"address","name":"owner","type":"address"},{"internalType":"bool","name":"enableBlacklist","type":"bool"},{"internalType":"bool","name":"enableTimeLock","type":"bool"},{"internalType":"uint256","name":"presaleRate","type":"uint256"},{"internalType":"uint256","name":"softCap","type":"uint256"},{"internalType":"uint256","name":"hardCap","type":"uint256"},{"internalType":"uint256","name":"minContribution","type":"uint256"},{"internalType":"uint256","name":"maxContribution","type":"uint256"},{"internalType":"uint256","name":"startTime","type":"uint256"},{"internalType":"uint256","name":"endTime","type":"uint256"},{"internalType":"uint256","name":"presalePercentage","type":"uint256"},{"internalType":"uint256","name":"liquidityPercentage","type":"uint256"},{"internalType":"uint256","name":"liquidityLockDuration","type":"uint256"},{"components":[{"internalType":"address","name":"wallet","type":"address"},{"internalType":"uint256","name":"percentage","type":"uint256"},{"internalType":"bool","name":"vestingEnabled","type":"bool"},{"internalType":"uint256","name":"vestingDuration","type":"uint256"},{"internalType":"uint256","name":"cliffDuration","type":"uint256"},{"internalType":"uint256","name":"vestingStartTime","type":"uint256"}],"internalType":"struct TokenTemplate_v3.WalletAllocation[]","name":"walletAllocations","type":"tuple[]"},{"internalType":"uint256","name":"maxActivePresales","type":"uint256"},{"internalType":"bool","name":"presaleEnabled","type":"bool"}],"internalType":"struct TokenTemplate_v3.InitParams","name":"params","type":"tuple"}],"name":"initialize","outputs":[],"stateMutability":"payable","type":"function"},{"inputs":[{"internalType":"address","name":"account","type":"address"}],"name":"isBlacklisted","outputs":[{"internalType":"bool","name":"","type":"bool"}],"stateMutability":"view","type":"function"},{"inputs":[],"name":"liquidityAllocation","outputs":[{"internalType":"uint256","name":"","type":"uint256"}],"stateMutability":"view","type":"function"},{"inputs":[],"name":"liquidityLockDuration","outputs":[{"internalType":"uint256","name":"","type":"uint256"}],"stateMutability":"view","type":"function"},{"inputs":[],"name":"liquidityPercentage","outputs":[{"internalType":"uint256","name":"","type":"uint256"}],"stateMutability":"view","type":"function"},{"inputs":[],"name":"maxActivePresales","outputs":[{"internalType":"uint256","name":"","type":"uint256"}],"stateMutability":"view","type":"function"},{"inputs":[],"name":"maxContribution","outputs":[{"internalType":"uint256","name":"","type":"uint256"}],"stateMutability":"view","type":"function"},{"inputs":[],"name":"maxSupply","outputs":[{"internalType":"uint256","name":"","type":"uint256"}],"stateMutability":"view","type":"function"},{"inputs":[],"name":"minContribution","outputs":[{"internalType":"uint256","name":"","type":"uint256"}],"stateMutability":"view","type":"function"},{"inputs":[],"name":"name","outputs":[{"internalType":"string","name":"","type":"string"}],"stateMutability":"view","type":"function"},{"inputs":[],"name":"owner","outputs":[{"internalType":"address","name":"","type":"address"}],"stateMutability":"view","type":"function"},{"inputs":[],"name":"pause","outputs":[],"stateMutability":"nonpayable","type":"function"},{"inputs":[],"name":"paused","outputs":[{"internalType":"bool","name":"","type":"bool"}],"stateMutability":"view","type":"function"},{"inputs":[],"name":"presaleEnabled","outputs":[{"internalType":"bool","name":"","type":"bool"}],"stateMutability":"view","type":"function"},{"inputs":[],"name":"presalePercentage","outputs":[{"internalType":"uint256","name":"","type":"uint256"}],"stateMutability":"view","type":"function"},{"inputs":[],"name":"presaleRate","outputs":[{"internalType":"uint256","name":"","type":"uint256"}],"stateMutability":"view","type":"function"},{"inputs":[],"name":"remainingLiquidityAllocation","outputs":[{"internalType":"uint256","name":"","type":"uint256"}],"stateMutability":"view","type":"function"},{"inputs":[],"name":"renounceOwnership","outputs":[],"stateMutability":"nonpayable","type":"function"},{"inputs":[{"internalType":"address","name":"account","type":"address"},{"internalType":"bool","name":"status","type":"bool"}],"name":"setBlacklist","outputs":[],"stateMutability":"nonpayable","type":"function"},{"inputs":[{"internalType":"address","name":"account","type":"address"},{"internalType":"uint256","name":"unlockTime","type":"uint256"}],"name":"setTimeLock","outputs":[],"stateMutability":"nonpayable","type":"function"},{"inputs":[],"name":"softCap","outputs":[{"internalType":"uint256","name":"","type":"uint256"}],"stateMutability":"view","type":"function"},{"inputs":[],"name":"startTime","outputs":[{"internalType":"uint256","name":"","type":"uint256"}],"stateMutability":"view","type":"function"},{"inputs":[],"name":"symbol","outputs":[{"internalType":"string","name":"","type":"string"}],"stateMutability":"view","type":"function"},{"inputs":[],"name":"timeLockEnabled","outputs":[{"internalType":"bool","name":"","type":"bool"}],"stateMutability":"view","type":"function"},{"inputs":[],"name":"totalSupply","outputs":[{"internalType":"uint256","name":"","type":"uint256"}],"stateMutability":"view","type":"function"},{"inputs":[{"internalType":"address","name":"to","type":"address"},{"internalType":"uint256","name":"amount","type":"uint256"}],"name":"transfer","outputs":[{"internalType":"bool","name":"","type":"bool"}],"stateMutability":"nonpayable","type":"function"},{"inputs":[{"internalType":"address","name":"from","type":"address"},{"internalType":"address","name":"to","type":"address"},{"internalType":"uint256","name":"amount","type":"uint256"}],"name":"transferFrom","outputs":[{"internalType":"bool","name":"","type":"bool"}],"stateMutability":"nonpayable","type":"function"},{"inputs":[{"internalType":"address","name":"newOwner","type":"address"}],"name":"transferOwnership","outputs":[],"stateMutability":"nonpayable","type":"function"},{"inputs":[],"name":"uniswapV2Pair","outputs":[{"internalType":"address","name":"","type":"address"}],"stateMutability":"view","type":"function"},{"inputs":[],"name":"uniswapV2Router","outputs":[{"internalType":"contract IUniswapV2Router02","name":"","type":"address"}],"stateMutability":"view","type":"function"},{"inputs":[],"name":"unpause","outputs":[],"stateMutability":"nonpayable","type":"function"},{"inputs":[{"internalType":"address","name":"","type":"address"}],"name":"vestedAmount","outputs":[{"internalType":"uint256","name":"","type":"uint256"}],"stateMutability":"view","type":"function"},{"inputs":[{"internalType":"address","name":"","type":"address"}],"name":"vestingStartTime","outputs":[{"internalType":"uint256","name":"","type":"uint256"}],"stateMutability":"view","type":"function"},{"inputs":[{"internalType":"uint256","name":"","type":"uint256"}],"name":"walletAllocations","outputs":[{"internalType":"address","name":"wallet","type":"address"},{"internalType":"uint256","name":"percentage","type":"uint256"},{"internalType":"bool","name":"vestingEnabled","type":"bool"},{"internalType":"uint256","name":"vestingDuration","type":"uint256"},{"internalType":"uint256","name":"cliffDuration","type":"uint256"},{"internalType":"uint256","name":"vestingStartTime","type":"uint256"}],"stateMutability":"view","type":"function"}],"devdoc":{"events":{"Approval(address,address,uint256)":{"details":"Emitted when the allowance of a `spender` for an `owner` is set by a call to {approve}. `value` is the new allowance."},"Paused(address)":{"details":"Emitted when the pause is triggered by `account`."},"Transfer(address,address,uint256)":{"details":"Emitted when `value` tokens are moved from one account (`from`) to another (`to`). Note that `value` may be zero."},"Unpaused(address)":{"details":"Emitted when the pause is lifted by `account`."}},"kind":"dev","methods":{"allowance(address,address)":{"details":"See {IERC20-allowance}."},"approve(address,uint256)":{"details":"See {IERC20-approve}. NOTE: If `amount` is the maximum `uint256`, the allowance is not updated on `transferFrom`. This is semantically equivalent to an infinite approval. Requirements: - `spender` cannot be the zero address."},"balanceOf(address)":{"details":"See {IERC20-balanceOf}."},"burn(uint256)":{"details":"Destroys `amount` tokens from the caller. See {ERC20-_burn}."},"burnFrom(address,uint256)":{"details":"Destroys `amount` tokens from `account`, deducting from the caller's allowance. See {ERC20-_burn} and {ERC20-allowance}. Requirements: - the caller must have allowance for ``accounts``'s tokens of at least `amount`."},"decimals()":{"details":"Returns the number of decimals used to get its user representation. For example, if `decimals` equals `2`, a balance of `505` tokens should be displayed to a user as `5.05` (`505 / 10 ** 2`). Tokens usually opt for a value of 18, imitating the relationship between Ether and Wei. This is the default value returned by this function, unless it's overridden. NOTE: This information is only used for _display_ purposes: it in no way affects any of the arithmetic of the contract, including {IERC20-balanceOf} and {IERC20-transfer}."},"decreaseAllowance(address,uint256)":{"details":"Atomically decreases the allowance granted to `spender` by the caller. This is an alternative to {approve} that can be used as a mitigation for problems described in {IERC20-approve}. Emits an {Approval} event indicating the updated allowance. Requirements: - `spender` cannot be the zero address. - `spender` must have allowance for the caller of at least `subtractedValue`."},"increaseAllowance(address,uint256)":{"details":"Atomically increases the allowance granted to `spender` by the caller. This is an alternative to {approve} that can be used as a mitigation for problems described in {IERC20-approve}. Emits an {Approval} event indicating the updated allowance. Requirements: - `spender` cannot be the zero address."},"name()":{"details":"Returns the name of the token."},"owner()":{"details":"Returns the address of the current owner."},"paused()":{"details":"Returns true if the contract is paused, and false otherwise."},"renounceOwnership()":{"details":"Leaves the contract without owner. It will not be possible to call `onlyOwner` functions. Can only be called by the current owner. NOTE: Renouncing ownership will leave the contract without an owner, thereby disabling any functionality that is only available to the owner."},"symbol()":{"details":"Returns the symbol of the token, usually a shorter version of the name."},"totalSupply()":{"details":"See {IERC20-totalSupply}."},"transfer(address,uint256)":{"details":"See {IERC20-transfer}. Requirements: - `to` cannot be the zero address. - the caller must have a balance of at least `amount`."},"transferFrom(address,address,uint256)":{"details":"See {IERC20-transferFrom}. Emits an {Approval} event indicating the updated allowance. This is not required by the EIP. See the note at the beginning of {ERC20}. NOTE: Does not update the allowance if the current allowance is the maximum `uint256`. Requirements: - `from` and `to` cannot be the zero address. - `from` must have a balance of at least `amount`. - the caller must have allowance for ``from``'s tokens of at least `amount`."},"transferOwnership(address)":{"details":"Transfers ownership of the contract to a new account (`newOwner`). Can only be called by the current owner."}},"version":1},"evm":{"bytecode":{"linkReferences":{},"object":"60c060409080825234620004b9576200001881620004be565b6000908181528251906200002c82620004be565b8282528051916001600160401b03808411620004a557600380546001958682811c92169586156200049a575b6020968784101462000486578190601f9384811162000433575b508790848311600114620003d0578a92620003c4575b505060001982851b1c191690871b1782555b8351928311620003b05760049384548781811c91168015620003a5575b87821014620003925790818386959493116200033b575b5086918411600114620002d4578893620002c8575b505082861b92600019911b1c19161781555b600580546001600160a81b0319811633600881811b610100600160a81b03169290921790935587516001600160a01b03969093909290911c86167f8be0079c531659141344cd1fd0a4f28419497f9722a3daafe3b4186f6b6457e08880a360065573d99d1c33f9fc3444f8101754abc46c52416550d1608081905263c45a015560e01b82529183828281865afa9182156200029a5784908793620002a4575b5087516315ab88c960e31b815292938390839082905afa9182156200029a5790868686959493829462000275575b50604493948a5198899687956364e329cb60e11b87523090870152166024850152165af19283156200026a579262000236575b505060a05251612a519081620005368239608051818181610dbc0152818161185101528181611b3f0152611ec4015260a0518181816119160152611be30152f35b6200025a9250803d1062000262575b620002518183620004f0565b81019062000514565b3880620001f5565b503d62000245565b8451903d90823e3d90fd5b604494506200029390873d89116200026257620002518183620004f0565b93620001c2565b87513d88823e3d90fd5b829350620002c190823d84116200026257620002518183620004f0565b9262000194565b015191503880620000e3565b858952868920889550929190601f1985168a5b8982821062000324575050851162000309575b50505050811b018155620000f5565b01519060f884600019921b161c1916905538808080620002fa565b8385015187558b98909601959384019301620002e7565b90919293508589528689208380870160051c82019289881062000388575b918a918897969594930160051c01915b82811062000379575050620000ce565b8b81558796508a910162000369565b9250819262000359565b634e487b7160e01b895260228652602489fd5b90607f1690620000b7565b634e487b7160e01b87526041600452602487fd5b01519050388062000088565b858b52888b208a94509190601f1984168c5b8b8282106200041c575050841162000403575b505050811b0182556200009a565b015160001983871b60f8161c19169055388080620003f5565b8385015186558d97909501949384019301620003e2565b909150848a52878a208480850160051c8201928a86106200047c575b918b91869594930160051c01915b8281106200046d57505062000072565b8c81558594508b91016200045d565b925081926200044f565b634e487b7160e01b89526022600452602489fd5b91607f169162000058565b634e487b7160e01b85526041600452602485fd5b600080fd5b602081019081106001600160401b03821117620004da57604052565b634e487b7160e01b600052604160045260246000fd5b601f909101601f19168101906001600160401b03821190821017620004da57604052565b90816020910312620004b957516001600160a01b0381168103620004b9579056fe608080604052600436101561001357600080fd5b60003560e01c908163048b87ba146120bc5750806304e86903146114d357806306fdde0314612014578063095ea7b314611fee578063143b237f14611fcb578063153b0d1e14611ef35780631694505e14611eae57806318160ddd14611e9057806323b872dd14611e58578063313ce56714611e3c5780633197cbb614611e1e57806332b47fac14611cc657806337ed2be614611adc578063384711cc146107695780633950935114611a8b5780633f4ba83a146119f75780633fd50eb81461198057806342966c681461196357806342f393811461194557806349bd5a5e146119005780634ae01d52146118e257806351c6590a1461181f5780635c975abb146117fc578063644fab74146116f25780636e1d1e571461155857806370a08231146116b8578063715018a61461165757806378e979251461163957806379cc6790146116095780638456cb59146115765780638bb1cde9146115585780638d3d65761461153a5780638da5cb5b1461150d5780638df40be8146114d3578063906a26e0146114b557806395d89b41146113d2578063a457c2d71461132b578063a9059cbb146112fa578063aaffadf3146112dc578063abd653d7146112be578063b8caa4aa146112a0578063bffb691d1461127d578063c64b2f8c146107c9578063cba4cbd3146107a3578063d5a73fdd14610769578063d5abeb011461074b578063dbed1e88146106f7578063dd62ed3e146106a6578063de8af79114610688578063e74f3fbb146103b0578063ea63fb2614610376578063f2fde38b146102e7578063fb86a404146102c95763fe575a871461027157600080fd5b346102c45760203660031901126102c45761028a6120d7565b60ff60085416806102a3575b6020906040519015158152f35b5060018060a01b03166000526019602052602060ff60406000205416610296565b600080fd5b346102c45760003660031901126102c4576020600b54604051908152f35b346102c45760203660031901126102c4576103006120d7565b61030861248f565b6001600160a01b0381161561032257610320906129bf565b005b60405162461bcd60e51b815260206004820152602660248201527f4f776e61626c653a206e6577206f776e657220697320746865207a65726f206160448201526564647265737360d01b6064820152608490fd5b346102c45760203660031901126102c4576001600160a01b036103976120d7565b1660005260186020526020604060002054604051908152f35b346102c45760003660031901126102c4576002806006541461064357600260065533600052601690602090601682526040600020541561060957600092600091601554925b8381106104a2575b50505050811561045e577f896e034966eaaf1adc54acc0f257056febbd300c9e47182cf761982cf1f5e4309033600052601781526040600020610441848254612284565b905561044e833330612582565b6040519283523392a26001600655005b6064906040519062461bcd60e51b82526004820152601c60248201527f4e6f20746f6b656e7320617661696c61626c6520746f20636c61696d000000006044820152fd5b6104ab8161214c565b50546001600160a01b03163314806105f3575b6104ca576001016103f5565b9250509192503360005260188084526104f660406000205460046104ed8561214c565b50015490612284565b42106105b75733600052835261051160406000205442612277565b61051a8261214c565b5060039081015490919081106105575750505033600052815261054c6040600020546017835260406000205490612277565b905b828080806103fd565b61057290610578929394336000528652604060002054612320565b9261214c565b5001549081156105a15761059b9133600052601784526040600020549104612277565b9061054e565b634e487b7160e01b600052601260045260246000fd5b606484846040519162461bcd60e51b8352600483015260248201527510db1a5999881c195c9a5bd9081b9bdd08195b99195960521b6044820152fd5b5060ff826106008361214c565b500154166104be565b60405162461bcd60e51b81526004810183905260126024820152714e6f20746f6b656e7320746f20636c61696d60701b6044820152606490fd5b60405162461bcd60e51b815260206004820152601f60248201527f5265656e7472616e637947756172643a207265656e7472616e742063616c6c006044820152606490fd5b346102c45760003660031901126102c4576020601054604051908152f35b346102c45760403660031901126102c4576106bf6120d7565b6106c76120ed565b9060018060a01b038091166000526001602052604060002091166000526020526020604060002054604051908152f35b346102c45760203660031901126102c4576107106120d7565b60ff60085460081c166000146107415760018060a01b0316600052601a60205260206040600020545b604051908152f35b5060206000610739565b346102c45760003660031901126102c4576020600754604051908152f35b346102c45760203660031901126102c4576001600160a01b0361078a6120d7565b1660005260166020526020604060002054604051908152f35b346102c45760003660031901126102c457602060ff60085460081c166040519015158152f35b6003196020368201126102c45767ffffffffffffffff9081600435116102c45761028090600435360301126102c4576002546112425761080d6004803501806122e0565b828193929311610d9557610822601b5461219d565b90601f918281116111e0575b50600082821160011461115c5781929394600092611151575b50508160011b916000199060031b1c191617601b555b6108716024600435016004356004016122e0565b90928111610d9557610884601c5461219d565b8281116110ef575b50600082821160011461106c57819293600092611061575b50508160011b916000199060031b1c191617601c555b606460043501356007556108d260a460043501612313565b151560ff6008549116908161ff006108ee60c460043501612313565b151560081b169161ffff19161717918260085560e460043501356009556101046004350135600a556101246004350135600b556101446004350135600c556101646004350135600d556101846004350135600e556101a46004350135600f556101c460043501356010556101e460043501356011556102046004350135601255610244600435013560135561098861026460043501612313565b151560ff801960145416911617601455301561101d575060ff60055416610fc557610f3a575b60081c60ff16610eca575b6109cb60446004350135600254612284565b600255306000526000602052604060002060446004350135815401905560405160446004350135815260007fddf252ad1be2c89b69c2b068fc378daa952ba7f163c4a11628f55a4df523b3ef60203093a360446004350135600060ff60145416610e8f575b610a68610a62916064610a506101e4600435013560446004350135612320565b049283809281601d5581601e55612284565b93612277565b5034151580610e86575b610db2575b50610a8d61022460043501600435600401612333565b9050610b0e575b6044600435013503610ab657610320610ab1608460043501612379565b6129bf565b60405162461bcd60e51b815260206004820152602a60248201527f546f74616c20616c6c6f636174696f6e206d75737420657175616c20696e697460448201526969616c20737570706c7960b01b6064820152608490fd5b6000905b610b2761022460043501600435600401612333565b9050821015610dab57610b4f82610b4961022460043501600435600401612333565b90612369565b6015805468010000000000000000811015610d9557610b739160018201905561214c565b919091610d7f5760059060a0906001600160a01b03610b9182612379565b166bffffffffffffffffffffffff831b85541617845560208101356001850155610bd5610bc060408301612313565b600286019060ff801983541691151516179055565b60608101356003850155608081013560048501550135910155610c276064610c1f6020610c1186610b4961022460043501600435600401612333565b013560446004350135612320565b048092612284565b91604460043501358311610d2a57600191610c5c6040610c5684610b4961022460043501600435600401612333565b01612313565b15610cff5760a0610c7c83610b4961022460043501600435600401612333565b013582610cae610ca9610c9a61022460043501600435600401612333565b888060a09693961b0394612369565b612379565b16600052601860205260406000205581610ce8610ca9610cd961022460043501600435600401612333565b878060a09693961b0394612369565b1660005260166020526040600020555b0190610b12565b610d2590610d1f610ca984610b4961022460043501600435600401612333565b30612582565b610cf8565b60405162461bcd60e51b815260206004820152602760248201527f546f74616c20616c6c6f636174696f6e206578636565647320696e697469616c60448201526620737570706c7960c81b6064820152608490fd5b634e487b7160e01b600052600060045260246000fd5b634e487b7160e01b600052604160045260246000fd5b9050610a94565b6001600160a01b037f000000000000000000000000000000000000000000000000000000000000000081169190610dea82843061238d565b60055460081c169161012c420190814211610e7057610e24936060936040519586948593849363f305d71960e01b855230600486016122ac565b039134905af18015610e645715610a7757610e569060603d606011610e5d575b610e4e81836121d7565b810190612291565b5050610a77565b503d610e44565b6040513d6000823e3d90fd5b634e487b7160e01b600052601160045260246000fd5b50801515610a72565b50506064610eaa6101c4600435013560446004350135612320565b04610a62610a68610ec18360446004350135612277565b92915050610a30565b60008052601a6020527fb75ecc04ed35f89790e98640e901bda41eceff0cb896cf2765fb697680253750544210156109b95760405162461bcd60e51b8152602060048201526016602482015275151bdad95b9cc8185c99481d1a5b594b5b1bd8dad95960521b6044820152606490fd5b6000805260196020527fd2ac945fcc0096878c763e37d6929b78378c1a2defabde8ba7ee5ed1d6e7a5b25460ff161580610fb1575b6109ae5760405162461bcd60e51b81526020600482015260166024820152751059191c995cdcc81a5cc8189b1858dadb1a5cdd195960521b6044820152606490fd5b503060005260ff6040600020541615610f6f565b60405162461bcd60e51b815260206004820152602a60248201527f45524332305061757361626c653a20746f6b656e207472616e736665722077686044820152691a5b19481c185d5cd95960b21b6064820152608490fd5b6064906040519062461bcd60e51b82526020600483015260248201527f45524332303a206d696e7420746f20746865207a65726f2061646472657373006044820152fd5b0135905083806108a4565b601f19821693601c6000527f0e4562a10381dec21b205ed72637e6b1b523bdd0e4d4d50af5cd23dd4500a2119160005b8681106110d757508360019596106110bd575b505050811b01601c556108ba565b0135600019600384901b60f8161c191690558380806110af565b9092602060018192868601358155019401910161109c565b601c6000527f0e4562a10381dec21b205ed72637e6b1b523bdd0e4d4d50af5cd23dd4500a2118380840160051c82019260208510611148575b0160051c01905b81811061113c575061088c565b6000815560010161112f565b92508192611128565b013590508480610847565b601f19821694601b6000527f3ad8aa4f87544323a9d1e5dd902f40c356527a7955687113db5f9a85ad579dc19160005b8781106111c85750836001959697106111ae575b505050811b01601b5561085d565b0135600019600384901b60f8161c191690558480806111a0565b9092602060018192868601358155019401910161118c565b601b6000527f3ad8aa4f87544323a9d1e5dd902f40c356527a7955687113db5f9a85ad579dc18380840160051c82019260208510611239575b0160051c01905b81811061122d575061082e565b60008155600101611220565b92508192611219565b60405162461bcd60e51b8152602060048201526013602482015272105b1c9958591e481a5b9a5d1a585b1a5e9959606a1b6044820152606490fd5b346102c45760003660031901126102c457602060ff600854166040519015158152f35b346102c45760003660031901126102c4576020601354604051908152f35b346102c45760003660031901126102c4576020601d54604051908152f35b346102c45760003660031901126102c4576020600c54604051908152f35b346102c45760403660031901126102c4576113206113166120d7565b6024359033612582565b602060405160018152f35b346102c45760403660031901126102c4576113446120d7565b60243590336000526001602052604060002060018060a01b0382166000526020526040600020549180831061137f576113209203903361238d565b60405162461bcd60e51b815260206004820152602560248201527f45524332303a2064656372656173656420616c6c6f77616e63652062656c6f77604482015264207a65726f60d81b6064820152608490fd5b346102c45760003660031901126102c4576040516000601c546113f48161219d565b8084529060209060019081811690811561148b5750600114611431575b61142d85611421818703826121d7565b60405191829182612103565b0390f35b601c600090815293507f0e4562a10381dec21b205ed72637e6b1b523bdd0e4d4d50af5cd23dd4500a2115b838510611478575050505081016020016114218261142d611411565b805486860184015293820193810161145c565b86955061142d9693506020925061142194915060ff191682840152151560051b8201019293611411565b346102c45760003660031901126102c4576020600a54604051908152f35b346102c45760203660031901126102c4576001600160a01b036114f46120d7565b1660005260176020526020604060002054604051908152f35b346102c45760003660031901126102c45760055460405160089190911c6001600160a01b03168152602090f35b346102c45760003660031901126102c4576020600d54604051908152f35b346102c45760003660031901126102c4576020601e54604051908152f35b346102c45760003660031901126102c45761158f61248f565b60055460ff81166115d15760019060ff1916176005557f62e78cea01bee320cd4e420270b5ea74000d11b0c9f74754ebdbfc544b05a2586020604051338152a1005b60405162461bcd60e51b815260206004820152601060248201526f14185d5cd8589b194e881c185d5cd95960821b6044820152606490fd5b346102c45760403660031901126102c4576103206116256120d7565b602435906116348233836124ea565b6127d4565b346102c45760003660031901126102c4576020600e54604051908152f35b346102c45760003660031901126102c45761167061248f565b60058054610100600160a81b0319811690915560009060081c6001600160a01b03167f8be0079c531659141344cd1fd0a4f28419497f9722a3daafe3b4186f6b6457e08280a3005b346102c45760203660031901126102c4576001600160a01b036116d96120d7565b1660005260006020526020604060002054604051908152f35b346102c45760403660031901126102c45761170b6120d7565b6024359061171761248f565b60ff60085460081c16156117b757428211156117725760207fa9353e70f07f31e7f4e16464f45e189cbd22826780a5abe4da8303652a86960a9160018060a01b03169283600052601a825280604060002055604051908152a2005b60405162461bcd60e51b815260206004820152601d60248201527f556e6c6f636b2074696d65206d75737420626520696e206675747572650000006044820152606490fd5b60405162461bcd60e51b815260206004820152601860248201527f54696d65206c6f636b206973206e6f7420656e61626c656400000000000000006044820152606490fd5b346102c45760003660031901126102c457602060ff600554166040519015158152f35b60203660031901126102c4576004356118393415156121f9565b611844811515612235565b61184f813033612582565b7f00000000000000000000000000000000000000000000000000000000000000006001600160a01b03169061188581833061238d565b61012c4201804211610e705760405163f305d71960e01b8152926060928492839182916118b891339030600486016122ac565b039134905af18015610e64576118ca57005b6103209060603d606011610e5d57610e4e81836121d7565b346102c45760003660031901126102c4576020601254604051908152f35b346102c45760003660031901126102c4576040517f00000000000000000000000000000000000000000000000000000000000000006001600160a01b03168152602090f35b346102c45760003660031901126102c4576020600954604051908152f35b346102c45760203660031901126102c457610320600435336127d4565b346102c45760203660031901126102c4576004356015548110156102c4576119a960c09161214c565b5060018060a01b038154169060018101549060ff60028201541660038201549060056004840154930154936040519586526020860152151560408501526060840152608083015260a0820152f35b346102c45760003660031901126102c457611a1061248f565b60055460ff811615611a4f5760ff19166005557f5db9ee0a495bf2e6ff9c91a7834c1ba4fdd244a5e8aa4e537bd38aeae4b073aa6020604051338152a1005b60405162461bcd60e51b815260206004820152601460248201527314185d5cd8589b194e881b9bdd081c185d5cd95960621b6044820152606490fd5b346102c45760403660031901126102c457611320611aa76120d7565b336000526001602052604060002060018060a01b038216600052602052611ad5602435604060002054612284565b903361238d565b60203660031901126102c457600435611af361248f565b611afe3415156121f9565b611b09811515612235565b601e54808211611c6b573060005260006020528160406000205410611c265781611b3291612277565b601e556001600160a01b037f0000000000000000000000000000000000000000000000000000000000000000811690611b6c83833061238d565b61012c420191824211610e7057611b9e92606091604051808096819463f305d71960e01b8352338a30600486016122ac565b039134905af1908115610e64577fac1d76749e5447b7b16f5ab61447e1bd502f3bb4807af3b28e620d1700a6ee4592604092611c07575b5081519384523460208501527f00000000000000000000000000000000000000000000000000000000000000001692a2005b611c1f9060603d606011610e5d57610e4e81836121d7565b5050611bd5565b60405162461bcd60e51b815260206004820152601d60248201527f496e73756666696369656e7420636f6e74726163742062616c616e63650000006044820152606490fd5b60405162461bcd60e51b815260206004820152602d60248201527f416d6f756e7420657863656564732072656d61696e696e67206c69717569646960448201526c3a3c9030b63637b1b0ba34b7b760991b6064820152608490fd5b346102c45760003660031901126102c45760155467ffffffffffffffff90818111610d9557602090600560405191611d03848260051b01846121d7565b808352838301948560156000527f55f448fdea98c4d29eb340757ef0a66cd03dbb9538908a6a81d96026b71ec4756000915b848310611db457604080518981528851818b018190528b928201908b60005b828110611d615784840385f35b855180516001600160a01b031685528083015185840152604080820151151590860152606080820151908601526080808201519086015260a090810151908501529481019460c090930192600101611d54565b60405160c0810181811086821117610d95576001926006928b92604052848060a01b038654168152848601548382015260ff6002870154161515604082015260038601546060820152600486015460808201528986015460a0820152815201920192019190611d35565b346102c45760003660031901126102c4576020600f54604051908152f35b346102c45760003660031901126102c457602060405160128152f35b346102c45760603660031901126102c457611320611e746120d7565b611e7c6120ed565b60443591611e8b8333836124ea565b612582565b346102c45760003660031901126102c4576020600254604051908152f35b346102c45760003660031901126102c4576040517f00000000000000000000000000000000000000000000000000000000000000006001600160a01b03168152602090f35b346102c45760403660031901126102c457611f0c6120d7565b60243590811515908183036102c457611f2361248f565b60ff6008541615611f86577f6a12b3df6cba4203bd7fd06b816789f87de8c594299aed5717ae070fac781bac91611f7d60209260018060a01b031694856000526019845260406000209060ff801983541691151516179055565b604051908152a2005b60405162461bcd60e51b815260206004820152601860248201527f426c61636b6c697374206973206e6f7420656e61626c656400000000000000006044820152606490fd5b346102c45760003660031901126102c457602060ff601454166040519015158152f35b346102c45760403660031901126102c45761132061200a6120d7565b602435903361238d565b346102c45760003660031901126102c4576040516000601b546120368161219d565b8084529060209060019081811690811561148b57506001146120625761142d85611421818703826121d7565b601b600090815293507f3ad8aa4f87544323a9d1e5dd902f40c356527a7955687113db5f9a85ad579dc15b8385106120a9575050505081016020016114218261142d611411565b805486860184015293820193810161208d565b346102c45760003660031901126102c4576020906011548152f35b600435906001600160a01b03821682036102c457565b602435906001600160a01b03821682036102c457565b6020808252825181830181905290939260005b82811061213857505060409293506000838284010152601f8019910116010190565b818101860151848201604001528501612116565b601554811015612187576006906015600052027f55f448fdea98c4d29eb340757ef0a66cd03dbb9538908a6a81d96026b71ec4750190600090565b634e487b7160e01b600052603260045260246000fd5b90600182811c921680156121cd575b60208310146121b757565b634e487b7160e01b600052602260045260246000fd5b91607f16916121ac565b90601f8019910116810190811067ffffffffffffffff821117610d9557604052565b1561220057565b60405162461bcd60e51b815260206004820152600d60248201526c09aeae6e840e6cadcc8408aa89609b1b6044820152606490fd5b1561223c57565b60405162461bcd60e51b81526020600482015260136024820152724d7573742070726f7669646520746f6b656e7360681b6044820152606490fd5b91908203918211610e7057565b91908201809211610e7057565b908160609103126102c4578051916040602083015192015190565b9060a09295949360c0830196600180861b038093168452602084015260006040840152600060608401521660808201520152565b903590601e19813603018212156102c4570180359067ffffffffffffffff82116102c4576020019181360383136102c457565b3580151581036102c45790565b81810292918115918404141715610e7057565b903590601e19813603018212156102c4570180359067ffffffffffffffff82116102c4576020019160c08202360383136102c457565b91908110156121875760c0020190565b356001600160a01b03811681036102c45790565b6001600160a01b0390811691821561243e57169182156123ee5760207f8c5be1e5ebec7d5bd14f71427d1e84f3dd0314c0f7b2291e5b200ac8c7c3b925918360005260018252604060002085600052825280604060002055604051908152a3565b60405162461bcd60e51b815260206004820152602260248201527f45524332303a20617070726f766520746f20746865207a65726f206164647265604482015261737360f01b6064820152608490fd5b60405162461bcd60e51b8152602060048201526024808201527f45524332303a20617070726f76652066726f6d20746865207a65726f206164646044820152637265737360e01b6064820152608490fd5b60055460081c6001600160a01b031633036124a657565b606460405162461bcd60e51b815260206004820152602060248201527f4f776e61626c653a2063616c6c6572206973206e6f7420746865206f776e65726044820152fd5b9060018060a01b0380831660005260016020526040600020908216600052602052604060002054926000198403612522575b50505050565b80841061253d5761253493039161238d565b3880808061251c565b60405162461bcd60e51b815260206004820152601d60248201527f45524332303a20696e73756666696369656e7420616c6c6f77616e63650000006044820152606490fd5b6001600160a01b0390811691821561278157169182156127305760ff60055416610fc55760085460ff81166126c1575b60081c60ff1661266d575b60008281528060205260408120549180831061261957604082827fddf252ad1be2c89b69c2b068fc378daa952ba7f163c4a11628f55a4df523b3ef958760209652828652038282205586815220818154019055604051908152a3565b60405162461bcd60e51b815260206004820152602660248201527f45524332303a207472616e7366657220616d6f756e7420657863656564732062604482015265616c616e636560d01b6064820152608490fd5b81600052601a6020526040600020544210156125bd5760405162461bcd60e51b8152602060048201526016602482015275151bdad95b9cc8185c99481d1a5b594b5b1bd8dad95960521b6044820152606490fd5b82600052601960205260ff60406000205416158061271c575b6125b25760405162461bcd60e51b81526020600482015260166024820152751059191c995cdcc81a5cc8189b1858dadb1a5cdd195960521b6044820152606490fd5b508360005260ff60406000205416156126da565b60405162461bcd60e51b815260206004820152602360248201527f45524332303a207472616e7366657220746f20746865207a65726f206164647260448201526265737360e81b6064820152608490fd5b60405162461bcd60e51b815260206004820152602560248201527f45524332303a207472616e736665722066726f6d20746865207a65726f206164604482015264647265737360d81b6064820152608490fd5b6001600160a01b031680156129705760ff60055416610fc55760085460ff8116612901575b60081c60ff166128ad575b60009181835282602052604083205481811061285d57817fddf252ad1be2c89b69c2b068fc378daa952ba7f163c4a11628f55a4df523b3ef926020928587528684520360408620558060025403600255604051908152a3565b60405162461bcd60e51b815260206004820152602260248201527f45524332303a206275726e20616d6f756e7420657863656564732062616c616e604482015261636560f01b6064820152608490fd5b80600052601a6020526040600020544210156128045760405162461bcd60e51b8152602060048201526016602482015275151bdad95b9cc8185c99481d1a5b594b5b1bd8dad95960521b6044820152606490fd5b81600052601960205260ff60406000205416158061295c575b6127f95760405162461bcd60e51b81526020600482015260166024820152751059191c995cdcc81a5cc8189b1858dadb1a5cdd195960521b6044820152606490fd5b506000805260ff604060002054161561291a565b60405162461bcd60e51b815260206004820152602160248201527f45524332303a206275726e2066726f6d20746865207a65726f206164647265736044820152607360f81b6064820152608490fd5b60058054610100600160a81b03198116600884811b610100600160a81b0316919091179092556001600160a01b0392831692911c167f8be0079c531659141344cd1fd0a4f28419497f9722a3daafe3b4186f6b6457e0600080a356fea2646970667358221220a95b4f04633ade9f0d2369ce176a1d1dfa1879665544ff80ef628dcf39a92ab464736f6c63430008160033","opcodes":"PUSH1 0xC0 PUSH1 0x40 SWAP1 DUP1 DUP3 MSTORE CALLVALUE PUSH3 0x4B9 JUMPI PUSH3 0x18 DUP2 PUSH3 0x4BE JUMP JUMPDEST PUSH1 0x0 SWAP1 DUP2 DUP2 MSTORE DUP3 MLOAD SWAP1 PUSH3 0x2C DUP3 PUSH3 0x4BE JUMP JUMPDEST DUP3 DUP3 MSTORE DUP1 MLOAD SWAP2 PUSH1 0x1 PUSH1 0x1 PUSH1 0x40 SHL SUB DUP1 DUP5 GT PUSH3 0x4A5 JUMPI PUSH1 0x3 DUP1 SLOAD PUSH1 0x1 SWAP6 DUP7 DUP3 DUP2 SHR SWAP3 AND SWAP6 DUP7 ISZERO PUSH3 0x49A JUMPI JUMPDEST PUSH1 0x20 SWAP7 DUP8 DUP5 LT EQ PUSH3 0x486 JUMPI DUP2 SWAP1 PUSH1 0x1F SWAP4 DUP5 DUP2 GT PUSH3 0x433 JUMPI JUMPDEST POP DUP8 SWAP1 DUP5 DUP4 GT PUSH1 0x1 EQ PUSH3 0x3D0 JUMPI DUP11 SWAP3 PUSH3 0x3C4 JUMPI JUMPDEST POP POP PUSH1 0x0 NOT DUP3 DUP6 SHL SHR NOT AND SWAP1 DUP8 SHL OR DUP3 SSTORE JUMPDEST DUP4 MLOAD SWAP3 DUP4 GT PUSH3 0x3B0 JUMPI PUSH1 0x4 SWAP4 DUP5 SLOAD DUP8 DUP2 DUP2 SHR SWAP2 AND DUP1 ISZERO PUSH3 0x3A5 JUMPI JUMPDEST DUP8 DUP3 LT EQ PUSH3 0x392 JUMPI SWAP1 DUP2 DUP4 DUP7 SWAP6 SWAP5 SWAP4 GT PUSH3 0x33B JUMPI JUMPDEST POP DUP7 SWAP2 DUP5 GT PUSH1 0x1 EQ PUSH3 0x2D4 JUMPI DUP9 SWAP4 PUSH3 0x2C8 JUMPI JUMPDEST POP POP DUP3 DUP7 SHL SWAP3 PUSH1 0x0 NOT SWAP2 SHL SHR NOT AND OR DUP2 SSTORE JUMPDEST PUSH1 0x5 DUP1 SLOAD PUSH1 0x1 PUSH1 0x1 PUSH1 0xA8 SHL SUB NOT DUP2 AND CALLER PUSH1 0x8 DUP2 DUP2 SHL PUSH2 0x100 PUSH1 0x1 PUSH1 0xA8 SHL SUB AND SWAP3 SWAP1 SWAP3 OR SWAP1 SWAP4 SSTORE DUP8 MLOAD PUSH1 0x1 PUSH1 0x1 PUSH1 0xA0 SHL SUB SWAP7 SWAP1 SWAP4 SWAP1 SWAP3 SWAP1 SWAP2 SHR DUP7 AND PUSH32 0x8BE0079C531659141344CD1FD0A4F28419497F9722A3DAAFE3B4186F6B6457E0 DUP9 DUP1 LOG3 PUSH1 0x6 SSTORE PUSH20 0xD99D1C33F9FC3444F8101754ABC46C52416550D1 PUSH1 0x80 DUP2 SWAP1 MSTORE PUSH4 0xC45A0155 PUSH1 0xE0 SHL DUP3 MSTORE SWAP2 DUP4 DUP3 DUP3 DUP2 DUP7 GAS STATICCALL SWAP2 DUP3 ISZERO PUSH3 0x29A JUMPI DUP5 SWAP1 DUP8 SWAP4 PUSH3 0x2A4 JUMPI JUMPDEST POP DUP8 MLOAD PUSH4 0x15AB88C9 PUSH1 0xE3 SHL DUP2 MSTORE SWAP3 SWAP4 DUP4 SWAP1 DUP4 SWAP1 DUP3 SWAP1 GAS STATICCALL SWAP2 DUP3 ISZERO PUSH3 0x29A JUMPI SWAP1 DUP7 DUP7 DUP7 SWAP6 SWAP5 SWAP4 DUP3 SWAP5 PUSH3 0x275 JUMPI JUMPDEST POP PUSH1 0x44 SWAP4 SWAP5 DUP11 MLOAD SWAP9 DUP10 SWAP7 DUP8 SWAP6 PUSH4 0x64E329CB PUSH1 0xE1 SHL DUP8 MSTORE ADDRESS SWAP1 DUP8 ADD MSTORE AND PUSH1 0x24 DUP6 ADD MSTORE AND GAS CALL SWAP3 DUP4 ISZERO PUSH3 0x26A JUMPI SWAP3 PUSH3 0x236 JUMPI JUMPDEST POP POP PUSH1 0xA0 MSTORE MLOAD PUSH2 0x2A51 SWAP1 DUP2 PUSH3 0x536 DUP3 CODECOPY PUSH1 0x80 MLOAD DUP2 DUP2 DUP2 PUSH2 0xDBC ADD MSTORE DUP2 DUP2 PUSH2 0x1851 ADD MSTORE DUP2 DUP2 PUSH2 0x1B3F ADD MSTORE PUSH2 0x1EC4 ADD MSTORE PUSH1 0xA0 MLOAD DUP2 DUP2 DUP2 PUSH2 0x1916 ADD MSTORE PUSH2 0x1BE3 ADD MSTORE RETURN JUMPDEST PUSH3 0x25A SWAP3 POP DUP1 RETURNDATASIZE LT PUSH3 0x262 JUMPI JUMPDEST PUSH3 0x251 DUP2 DUP4 PUSH3 0x4F0 JUMP JUMPDEST DUP2 ADD SWAP1 PUSH3 0x514 JUMP JUMPDEST CODESIZE DUP1 PUSH3 0x1F5 JUMP JUMPDEST POP RETURNDATASIZE PUSH3 0x245 JUMP JUMPDEST DUP5 MLOAD SWAP1 RETURNDATASIZE SWAP1 DUP3 RETURNDATACOPY RETURNDATASIZE SWAP1 REVERT JUMPDEST PUSH1 0x44 SWAP5 POP PUSH3 0x293 SWAP1 DUP8 RETURNDATASIZE DUP10 GT PUSH3 0x262 JUMPI PUSH3 0x251 DUP2 DUP4 PUSH3 0x4F0 JUMP JUMPDEST SWAP4 PUSH3 0x1C2 JUMP JUMPDEST DUP8 MLOAD RETURNDATASIZE DUP9 DUP3 RETURNDATACOPY RETURNDATASIZE SWAP1 REVERT JUMPDEST DUP3 SWAP4 POP PUSH3 0x2C1 SWAP1 DUP3 RETURNDATASIZE DUP5 GT PUSH3 0x262 JUMPI PUSH3 0x251 DUP2 DUP4 PUSH3 0x4F0 JUMP JUMPDEST SWAP3 PUSH3 0x194 JUMP JUMPDEST ADD MLOAD SWAP2 POP CODESIZE DUP1 PUSH3 0xE3 JUMP JUMPDEST DUP6 DUP10 MSTORE DUP7 DUP10 KECCAK256 DUP9 SWAP6 POP SWAP3 SWAP2 SWAP1 PUSH1 0x1F NOT DUP6 AND DUP11 JUMPDEST DUP10 DUP3 DUP3 LT PUSH3 0x324 JUMPI POP POP DUP6 GT PUSH3 0x309 JUMPI JUMPDEST POP POP POP POP DUP2 SHL ADD DUP2 SSTORE PUSH3 0xF5 JUMP JUMPDEST ADD MLOAD SWAP1 PUSH1 0xF8 DUP5 PUSH1 0x0 NOT SWAP3 SHL AND SHR NOT AND SWAP1 SSTORE CODESIZE DUP1 DUP1 DUP1 PUSH3 0x2FA JUMP JUMPDEST DUP4 DUP6 ADD MLOAD DUP8 SSTORE DUP12 SWAP9 SWAP1 SWAP7 ADD SWAP6 SWAP4 DUP5 ADD SWAP4 ADD PUSH3 0x2E7 JUMP JUMPDEST SWAP1 SWAP2 SWAP3 SWAP4 POP DUP6 DUP10 MSTORE DUP7 DUP10 KECCAK256 DUP4 DUP1 DUP8 ADD PUSH1 0x5 SHR DUP3 ADD SWAP3 DUP10 DUP9 LT PUSH3 0x388 JUMPI JUMPDEST SWAP2 DUP11 SWAP2 DUP9 SWAP8 SWAP7 SWAP6 SWAP5 SWAP4 ADD PUSH1 0x5 SHR ADD SWAP2 JUMPDEST DUP3 DUP2 LT PUSH3 0x379 JUMPI POP POP PUSH3 0xCE JUMP JUMPDEST DUP12 DUP2 SSTORE DUP8 SWAP7 POP DUP11 SWAP2 ADD PUSH3 0x369 JUMP JUMPDEST SWAP3 POP DUP2 SWAP3 PUSH3 0x359 JUMP JUMPDEST PUSH4 0x4E487B71 PUSH1 0xE0 SHL DUP10 MSTORE PUSH1 0x22 DUP7 MSTORE PUSH1 0x24 DUP10 REVERT JUMPDEST SWAP1 PUSH1 0x7F AND SWAP1 PUSH3 0xB7 JUMP JUMPDEST PUSH4 0x4E487B71 PUSH1 0xE0 SHL DUP8 MSTORE PUSH1 0x41 PUSH1 0x4 MSTORE PUSH1 0x24 DUP8 REVERT JUMPDEST ADD MLOAD SWAP1 POP CODESIZE DUP1 PUSH3 0x88 JUMP JUMPDEST DUP6 DUP12 MSTORE DUP9 DUP12 KECCAK256 DUP11 SWAP5 POP SWAP2 SWAP1 PUSH1 0x1F NOT DUP5 AND DUP13 JUMPDEST DUP12 DUP3 DUP3 LT PUSH3 0x41C JUMPI POP POP DUP5 GT PUSH3 0x403 JUMPI JUMPDEST POP POP POP DUP2 SHL ADD DUP3 SSTORE PUSH3 0x9A JUMP JUMPDEST ADD MLOAD PUSH1 0x0 NOT DUP4 DUP8 SHL PUSH1 0xF8 AND SHR NOT AND SWAP1 SSTORE CODESIZE DUP1 DUP1 PUSH3 0x3F5 JUMP JUMPDEST DUP4 DUP6 ADD MLOAD DUP7 SSTORE DUP14 SWAP8 SWAP1 SWAP6 ADD SWAP5 SWAP4 DUP5 ADD SWAP4 ADD PUSH3 0x3E2 JUMP JUMPDEST SWAP1 SWAP2 POP DUP5 DUP11 MSTORE DUP8 DUP11 KECCAK256 DUP5 DUP1 DUP6 ADD PUSH1 0x5 SHR DUP3 ADD SWAP3 DUP11 DUP7 LT PUSH3 0x47C JUMPI JUMPDEST SWAP2 DUP12 SWAP2 DUP7 SWAP6 SWAP5 SWAP4 ADD PUSH1 0x5 SHR ADD SWAP2 JUMPDEST DUP3 DUP2 LT PUSH3 0x46D JUMPI POP POP PUSH3 0x72 JUMP JUMPDEST DUP13 DUP2 SSTORE DUP6 SWAP5 POP DUP12 SWAP2 ADD PUSH3 0x45D JUMP JUMPDEST SWAP3 POP DUP2 SWAP3 PUSH3 0x44F JUMP JUMPDEST PUSH4 0x4E487B71 PUSH1 0xE0 SHL DUP10 MSTORE PUSH1 0x22 PUSH1 0x4 MSTORE PUSH1 0x24 DUP10 REVERT JUMPDEST SWAP2 PUSH1 0x7F AND SWAP2 PUSH3 0x58 JUMP JUMPDEST PUSH4 0x4E487B71 PUSH1 0xE0 SHL DUP6 MSTORE PUSH1 0x41 PUSH1 0x4 MSTORE PUSH1 0x24 DUP6 REVERT JUMPDEST PUSH1 0x0 DUP1 REVERT JUMPDEST PUSH1 0x20 DUP2 ADD SWAP1 DUP2 LT PUSH1 0x1 PUSH1 0x1 PUSH1 0x40 SHL SUB DUP3 GT OR PUSH3 0x4DA JUMPI PUSH1 0x40 MSTORE JUMP JUMPDEST PUSH4 0x4E487B71 PUSH1 0xE0 SHL PUSH1 0x0 MSTORE PUSH1 0x41 PUSH1 0x4 MSTORE PUSH1 0x24 PUSH1 0x0 REVERT JUMPDEST PUSH1 0x1F SWAP1 SWAP2 ADD PUSH1 0x1F NOT AND DUP2 ADD SWAP1 PUSH1 0x1 PUSH1 0x1 PUSH1 0x40 SHL SUB DUP3 GT SWAP1 DUP3 LT OR PUSH3 0x4DA JUMPI PUSH1 0x40 MSTORE JUMP JUMPDEST SWAP1 DUP2 PUSH1 0x20 SWAP2 SUB SLT PUSH3 0x4B9 JUMPI MLOAD PUSH1 0x1 PUSH1 0x1 PUSH1 0xA0 SHL SUB DUP2 AND DUP2 SUB PUSH3 0x4B9 JUMPI SWAP1 JUMP INVALID PUSH1 0x80 DUP1 PUSH1 0x40 MSTORE PUSH1 0x4 CALLDATASIZE LT ISZERO PUSH2 0x13 JUMPI PUSH1 0x0 DUP1 REVERT JUMPDEST PUSH1 0x0 CALLDATALOAD PUSH1 0xE0 SHR SWAP1 DUP2 PUSH4 0x48B87BA EQ PUSH2 0x20BC JUMPI POP DUP1 PUSH4 0x4E86903 EQ PUSH2 0x14D3 JUMPI DUP1 PUSH4 0x6FDDE03 EQ PUSH2 0x2014 JUMPI DUP1 PUSH4 0x95EA7B3 EQ PUSH2 0x1FEE JUMPI DUP1 PUSH4 0x143B237F EQ PUSH2 0x1FCB JUMPI DUP1 PUSH4 0x153B0D1E EQ PUSH2 0x1EF3 JUMPI DUP1 PUSH4 0x1694505E EQ PUSH2 0x1EAE JUMPI DUP1 PUSH4 0x18160DDD EQ PUSH2 0x1E90 JUMPI DUP1 PUSH4 0x23B872DD EQ PUSH2 0x1E58 JUMPI DUP1 PUSH4 0x313CE567 EQ PUSH2 0x1E3C JUMPI DUP1 PUSH4 0x3197CBB6 EQ PUSH2 0x1E1E JUMPI DUP1 PUSH4 0x32B47FAC EQ PUSH2 0x1CC6 JUMPI DUP1 PUSH4 0x37ED2BE6 EQ PUSH2 0x1ADC JUMPI DUP1 PUSH4 0x384711CC EQ PUSH2 0x769 JUMPI DUP1 PUSH4 0x39509351 EQ PUSH2 0x1A8B JUMPI DUP1 PUSH4 0x3F4BA83A EQ PUSH2 0x19F7 JUMPI DUP1 PUSH4 0x3FD50EB8 EQ PUSH2 0x1980 JUMPI DUP1 PUSH4 0x42966C68 EQ PUSH2 0x1963 JUMPI DUP1 PUSH4 0x42F39381 EQ PUSH2 0x1945 JUMPI DUP1 PUSH4 0x49BD5A5E EQ PUSH2 0x1900 JUMPI DUP1 PUSH4 0x4AE01D52 EQ PUSH2 0x18E2 JUMPI DUP1 PUSH4 0x51C6590A EQ PUSH2 0x181F JUMPI DUP1 PUSH4 0x5C975ABB EQ PUSH2 0x17FC JUMPI DUP1 PUSH4 0x644FAB74 EQ PUSH2 0x16F2 JUMPI DUP1 PUSH4 0x6E1D1E57 EQ PUSH2 0x1558 JUMPI DUP1 PUSH4 0x70A08231 EQ PUSH2 0x16B8 JUMPI DUP1 PUSH4 0x715018A6 EQ PUSH2 0x1657 JUMPI DUP1 PUSH4 0x78E97925 EQ PUSH2 0x1639 JUMPI DUP1 PUSH4 0x79CC6790 EQ PUSH2 0x1609 JUMPI DUP1 PUSH4 0x8456CB59 EQ PUSH2 0x1576 JUMPI DUP1 PUSH4 0x8BB1CDE9 EQ PUSH2 0x1558 JUMPI DUP1 PUSH4 0x8D3D6576 EQ PUSH2 0x153A JUMPI DUP1 PUSH4 0x8DA5CB5B EQ PUSH2 0x150D JUMPI DUP1 PUSH4 0x8DF40BE8 EQ PUSH2 0x14D3 JUMPI DUP1 PUSH4 0x906A26E0 EQ PUSH2 0x14B5 JUMPI DUP1 PUSH4 0x95D89B41 EQ PUSH2 0x13D2 JUMPI DUP1 PUSH4 0xA457C2D7 EQ PUSH2 0x132B JUMPI DUP1 PUSH4 0xA9059CBB EQ PUSH2 0x12FA JUMPI DUP1 PUSH4 0xAAFFADF3 EQ PUSH2 0x12DC JUMPI DUP1 PUSH4 0xABD653D7 EQ PUSH2 0x12BE JUMPI DUP1 PUSH4 0xB8CAA4AA EQ PUSH2 0x12A0 JUMPI DUP1 PUSH4 0xBFFB691D EQ PUSH2 0x127D JUMPI DUP1 PUSH4 0xC64B2F8C EQ PUSH2 0x7C9 JUMPI DUP1 PUSH4 0xCBA4CBD3 EQ PUSH2 0x7A3 JUMPI DUP1 PUSH4 0xD5A73FDD EQ PUSH2 0x769 JUMPI DUP1 PUSH4 0xD5ABEB01 EQ PUSH2 0x74B JUMPI DUP1 PUSH4 0xDBED1E88 EQ PUSH2 0x6F7 JUMPI DUP1 PUSH4 0xDD62ED3E EQ PUSH2 0x6A6 JUMPI DUP1 PUSH4 0xDE8AF791 EQ PUSH2 0x688 JUMPI DUP1 PUSH4 0xE74F3FBB EQ PUSH2 0x3B0 JUMPI DUP1 PUSH4 0xEA63FB26 EQ PUSH2 0x376 JUMPI DUP1 PUSH4 0xF2FDE38B EQ PUSH2 0x2E7 JUMPI DUP1 PUSH4 0xFB86A404 EQ PUSH2 0x2C9 JUMPI PUSH4 0xFE575A87 EQ PUSH2 0x271 JUMPI PUSH1 0x0 DUP1 REVERT JUMPDEST CALLVALUE PUSH2 0x2C4 JUMPI PUSH1 0x20 CALLDATASIZE PUSH1 0x3 NOT ADD SLT PUSH2 0x2C4 JUMPI PUSH2 0x28A PUSH2 0x20D7 JUMP JUMPDEST PUSH1 0xFF PUSH1 0x8 SLOAD AND DUP1 PUSH2 0x2A3 JUMPI JUMPDEST PUSH1 0x20 SWAP1 PUSH1 0x40 MLOAD SWAP1 ISZERO ISZERO DUP2 MSTORE RETURN JUMPDEST POP PUSH1 0x1 DUP1 PUSH1 0xA0 SHL SUB AND PUSH1 0x0 MSTORE PUSH1 0x19 PUSH1 0x20 MSTORE PUSH1 0x20 PUSH1 0xFF PUSH1 0x40 PUSH1 0x0 KECCAK256 SLOAD AND PUSH2 0x296 JUMP JUMPDEST PUSH1 0x0 DUP1 REVERT JUMPDEST CALLVALUE PUSH2 0x2C4 JUMPI PUSH1 0x0 CALLDATASIZE PUSH1 0x3 NOT ADD SLT PUSH2 0x2C4 JUMPI PUSH1 0x20 PUSH1 0xB SLOAD PUSH1 0x40 MLOAD SWAP1 DUP2 MSTORE RETURN JUMPDEST CALLVALUE PUSH2 0x2C4 JUMPI PUSH1 0x20 CALLDATASIZE PUSH1 0x3 NOT ADD SLT PUSH2 0x2C4 JUMPI PUSH2 0x300 PUSH2 0x20D7 JUMP JUMPDEST PUSH2 0x308 PUSH2 0x248F JUMP JUMPDEST PUSH1 0x1 PUSH1 0x1 PUSH1 0xA0 SHL SUB DUP2 AND ISZERO PUSH2 0x322 JUMPI PUSH2 0x320 SWAP1 PUSH2 0x29BF JUMP JUMPDEST STOP JUMPDEST PUSH1 0x40 MLOAD PUSH3 0x461BCD PUSH1 0xE5 SHL DUP2 MSTORE PUSH1 0x20 PUSH1 0x4 DUP3 ADD MSTORE PUSH1 0x26 PUSH1 0x24 DUP3 ADD MSTORE PUSH32 0x4F776E61626C653A206E6577206F776E657220697320746865207A65726F2061 PUSH1 0x44 DUP3 ADD MSTORE PUSH6 0x646472657373 PUSH1 0xD0 SHL PUSH1 0x64 DUP3 ADD MSTORE PUSH1 0x84 SWAP1 REVERT JUMPDEST CALLVALUE PUSH2 0x2C4 JUMPI PUSH1 0x20 CALLDATASIZE PUSH1 0x3 NOT ADD SLT PUSH2 0x2C4 JUMPI PUSH1 0x1 PUSH1 0x1 PUSH1 0xA0 SHL SUB PUSH2 0x397 PUSH2 0x20D7 JUMP JUMPDEST AND PUSH1 0x0 MSTORE PUSH1 0x18 PUSH1 0x20 MSTORE PUSH1 0x20 PUSH1 0x40 PUSH1 0x0 KECCAK256 SLOAD PUSH1 0x40 MLOAD SWAP1 DUP2 MSTORE RETURN JUMPDEST CALLVALUE PUSH2 0x2C4 JUMPI PUSH1 0x0 CALLDATASIZE PUSH1 0x3 NOT ADD SLT PUSH2 0x2C4 JUMPI PUSH1 0x2 DUP1 PUSH1 0x6 SLOAD EQ PUSH2 0x643 JUMPI PUSH1 0x2 PUSH1 0x6 SSTORE CALLER PUSH1 0x0 MSTORE PUSH1 0x16 SWAP1 PUSH1 0x20 SWAP1 PUSH1 0x16 DUP3 MSTORE PUSH1 0x40 PUSH1 0x0 KECCAK256 SLOAD ISZERO PUSH2 0x609 JUMPI PUSH1 0x0 SWAP3 PUSH1 0x0 SWAP2 PUSH1 0x15 SLOAD SWAP3 JUMPDEST DUP4 DUP2 LT PUSH2 0x4A2 JUMPI JUMPDEST POP POP POP POP DUP2 ISZERO PUSH2 0x45E JUMPI PUSH32 0x896E034966EAAF1ADC54ACC0F257056FEBBD300C9E47182CF761982CF1F5E430 SWAP1 CALLER PUSH1 0x0 MSTORE PUSH1 0x17 DUP2 MSTORE PUSH1 0x40 PUSH1 0x0 KECCAK256 PUSH2 0x441 DUP5 DUP3 SLOAD PUSH2 0x2284 JUMP JUMPDEST SWAP1 SSTORE PUSH2 0x44E DUP4 CALLER ADDRESS PUSH2 0x2582 JUMP JUMPDEST PUSH1 0x40 MLOAD SWAP3 DUP4 MSTORE CALLER SWAP3 LOG2 PUSH1 0x1 PUSH1 0x6 SSTORE STOP JUMPDEST PUSH1 0x64 SWAP1 PUSH1 0x40 MLOAD SWAP1 PUSH3 0x461BCD PUSH1 0xE5 SHL DUP3 MSTORE PUSH1 0x4 DUP3 ADD MSTORE PUSH1 0x1C PUSH1 0x24 DUP3 ADD MSTORE PUSH32 0x4E6F20746F6B656E7320617661696C61626C6520746F20636C61696D00000000 PUSH1 0x44 DUP3 ADD MSTORE REVERT JUMPDEST PUSH2 0x4AB DUP2 PUSH2 0x214C JUMP JUMPDEST POP SLOAD PUSH1 0x1 PUSH1 0x1 PUSH1 0xA0 SHL SUB AND CALLER EQ DUP1 PUSH2 0x5F3 JUMPI JUMPDEST PUSH2 0x4CA JUMPI PUSH1 0x1 ADD PUSH2 0x3F5 JUMP JUMPDEST SWAP3 POP POP SWAP2 SWAP3 POP CALLER PUSH1 0x0 MSTORE PUSH1 0x18 DUP1 DUP5 MSTORE PUSH2 0x4F6 PUSH1 0x40 PUSH1 0x0 KECCAK256 SLOAD PUSH1 0x4 PUSH2 0x4ED DUP6 PUSH2 0x214C JUMP JUMPDEST POP ADD SLOAD SWAP1 PUSH2 0x2284 JUMP JUMPDEST TIMESTAMP LT PUSH2 0x5B7 JUMPI CALLER PUSH1 0x0 MSTORE DUP4 MSTORE PUSH2 0x511 PUSH1 0x40 PUSH1 0x0 KECCAK256 SLOAD TIMESTAMP PUSH2 0x2277 JUMP JUMPDEST PUSH2 0x51A DUP3 PUSH2 0x214C JUMP JUMPDEST POP PUSH1 0x3 SWAP1 DUP2 ADD SLOAD SWAP1 SWAP2 SWAP1 DUP2 LT PUSH2 0x557 JUMPI POP POP POP CALLER PUSH1 0x0 MSTORE DUP2 MSTORE PUSH2 0x54C PUSH1 0x40 PUSH1 0x0 KECCAK256 SLOAD PUSH1 0x17 DUP4 MSTORE PUSH1 0x40 PUSH1 0x0 KECCAK256 SLOAD SWAP1 PUSH2 0x2277 JUMP JUMPDEST SWAP1 JUMPDEST DUP3 DUP1 DUP1 DUP1 PUSH2 0x3FD JUMP JUMPDEST PUSH2 0x572 SWAP1 PUSH2 0x578 SWAP3 SWAP4 SWAP5 CALLER PUSH1 0x0 MSTORE DUP7 MSTORE PUSH1 0x40 PUSH1 0x0 KECCAK256 SLOAD PUSH2 0x2320 JUMP JUMPDEST SWAP3 PUSH2 0x214C JUMP JUMPDEST POP ADD SLOAD SWAP1 DUP2 ISZERO PUSH2 0x5A1 JUMPI PUSH2 0x59B SWAP2 CALLER PUSH1 0x0 MSTORE PUSH1 0x17 DUP5 MSTORE PUSH1 0x40 PUSH1 0x0 KECCAK256 SLOAD SWAP2 DIV PUSH2 0x2277 JUMP JUMPDEST SWAP1 PUSH2 0x54E JUMP JUMPDEST PUSH4 0x4E487B71 PUSH1 0xE0 SHL PUSH1 0x0 MSTORE PUSH1 0x12 PUSH1 0x4 MSTORE PUSH1 0x24 PUSH1 0x0 REVERT JUMPDEST PUSH1 0x64 DUP5 DUP5 PUSH1 0x40 MLOAD SWAP2 PUSH3 0x461BCD PUSH1 0xE5 SHL DUP4 MSTORE PUSH1 0x4 DUP4 ADD MSTORE PUSH1 0x24 DUP3 ADD MSTORE PUSH22 0x10DB1A5999881C195C9A5BD9081B9BDD08195B991959 PUSH1 0x52 SHL PUSH1 0x44 DUP3 ADD MSTORE REVERT JUMPDEST POP PUSH1 0xFF DUP3 PUSH2 0x600 DUP4 PUSH2 0x214C JUMP JUMPDEST POP ADD SLOAD AND PUSH2 0x4BE JUMP JUMPDEST PUSH1 0x40 MLOAD PUSH3 0x461BCD PUSH1 0xE5 SHL DUP2 MSTORE PUSH1 0x4 DUP2 ADD DUP4 SWAP1 MSTORE PUSH1 0x12 PUSH1 0x24 DUP3 ADD MSTORE PUSH18 0x4E6F20746F6B656E7320746F20636C61696D PUSH1 0x70 SHL PUSH1 0x44 DUP3 ADD MSTORE PUSH1 0x64 SWAP1 REVERT JUMPDEST PUSH1 0x40 MLOAD PUSH3 0x461BCD PUSH1 0xE5 SHL DUP2 MSTORE PUSH1 0x20 PUSH1 0x4 DUP3 ADD MSTORE PUSH1 0x1F PUSH1 0x24 DUP3 ADD MSTORE PUSH32 0x5265656E7472616E637947756172643A207265656E7472616E742063616C6C00 PUSH1 0x44 DUP3 ADD MSTORE PUSH1 0x64 SWAP1 REVERT JUMPDEST CALLVALUE PUSH2 0x2C4 JUMPI PUSH1 0x0 CALLDATASIZE PUSH1 0x3 NOT ADD SLT PUSH2 0x2C4 JUMPI PUSH1 0x20 PUSH1 0x10 SLOAD PUSH1 0x40 MLOAD SWAP1 DUP2 MSTORE RETURN JUMPDEST CALLVALUE PUSH2 0x2C4 JUMPI PUSH1 0x40 CALLDATASIZE PUSH1 0x3 NOT ADD SLT PUSH2 0x2C4 JUMPI PUSH2 0x6BF PUSH2 0x20D7 JUMP JUMPDEST PUSH2 0x6C7 PUSH2 0x20ED JUMP JUMPDEST SWAP1 PUSH1 0x1 DUP1 PUSH1 0xA0 SHL SUB DUP1 SWAP2 AND PUSH1 0x0 MSTORE PUSH1 0x1 PUSH1 0x20 MSTORE PUSH1 0x40 PUSH1 0x0 KECCAK256 SWAP2 AND PUSH1 0x0 MSTORE PUSH1 0x20 MSTORE PUSH1 0x20 PUSH1 0x40 PUSH1 0x0 KECCAK256 SLOAD PUSH1 0x40 MLOAD SWAP1 DUP2 MSTORE RETURN JUMPDEST CALLVALUE PUSH2 0x2C4 JUMPI PUSH1 0x20 CALLDATASIZE PUSH1 0x3 NOT ADD SLT PUSH2 0x2C4 JUMPI PUSH2 0x710 PUSH2 0x20D7 JUMP JUMPDEST PUSH1 0xFF PUSH1 0x8 SLOAD PUSH1 0x8 SHR AND PUSH1 0x0 EQ PUSH2 0x741 JUMPI PUSH1 0x1 DUP1 PUSH1 0xA0 SHL SUB AND PUSH1 0x0 MSTORE PUSH1 0x1A PUSH1 0x20 MSTORE PUSH1 0x20 PUSH1 0x40 PUSH1 0x0 KECCAK256 SLOAD JUMPDEST PUSH1 0x40 MLOAD SWAP1 DUP2 MSTORE RETURN JUMPDEST POP PUSH1 0x20 PUSH1 0x0 PUSH2 0x739 JUMP JUMPDEST CALLVALUE PUSH2 0x2C4 JUMPI PUSH1 0x0 CALLDATASIZE PUSH1 0x3 NOT ADD SLT PUSH2 0x2C4 JUMPI PUSH1 0x20 PUSH1 0x7 SLOAD PUSH1 0x40 MLOAD SWAP1 DUP2 MSTORE RETURN JUMPDEST CALLVALUE PUSH2 0x2C4 JUMPI PUSH1 0x20 CALLDATASIZE PUSH1 0x3 NOT ADD SLT PUSH2 0x2C4 JUMPI PUSH1 0x1 PUSH1 0x1 PUSH1 0xA0 SHL SUB PUSH2 0x78A PUSH2 0x20D7 JUMP JUMPDEST AND PUSH1 0x0 MSTORE PUSH1 0x16 PUSH1 0x20 MSTORE PUSH1 0x20 PUSH1 0x40 PUSH1 0x0 KECCAK256 SLOAD PUSH1 0x40 MLOAD SWAP1 DUP2 MSTORE RETURN JUMPDEST CALLVALUE PUSH2 0x2C4 JUMPI PUSH1 0x0 CALLDATASIZE PUSH1 0x3 NOT ADD SLT PUSH2 0x2C4 JUMPI PUSH1 0x20 PUSH1 0xFF PUSH1 0x8 SLOAD PUSH1 0x8 SHR AND PUSH1 0x40 MLOAD SWAP1 ISZERO ISZERO DUP2 MSTORE RETURN JUMPDEST PUSH1 0x3 NOT PUSH1 0x20 CALLDATASIZE DUP3 ADD SLT PUSH2 0x2C4 JUMPI PUSH8 0xFFFFFFFFFFFFFFFF SWAP1 DUP2 PUSH1 0x4 CALLDATALOAD GT PUSH2 0x2C4 JUMPI PUSH2 0x280 SWAP1 PUSH1 0x4 CALLDATALOAD CALLDATASIZE SUB ADD SLT PUSH2 0x2C4 JUMPI PUSH1 0x2 SLOAD PUSH2 0x1242 JUMPI PUSH2 0x80D PUSH1 0x4 DUP1 CALLDATALOAD ADD DUP1 PUSH2 0x22E0 JUMP JUMPDEST DUP3 DUP2 SWAP4 SWAP3 SWAP4 GT PUSH2 0xD95 JUMPI PUSH2 0x822 PUSH1 0x1B SLOAD PUSH2 0x219D JUMP JUMPDEST SWAP1 PUSH1 0x1F SWAP2 DUP3 DUP2 GT PUSH2 0x11E0 JUMPI JUMPDEST POP PUSH1 0x0 DUP3 DUP3 GT PUSH1 0x1 EQ PUSH2 0x115C JUMPI DUP2 SWAP3 SWAP4 SWAP5 PUSH1 0x0 SWAP3 PUSH2 0x1151 JUMPI JUMPDEST POP POP DUP2 PUSH1 0x1 SHL SWAP2 PUSH1 0x0 NOT SWAP1 PUSH1 0x3 SHL SHR NOT AND OR PUSH1 0x1B SSTORE JUMPDEST PUSH2 0x871 PUSH1 0x24 PUSH1 0x4 CALLDATALOAD ADD PUSH1 0x4 CALLDATALOAD PUSH1 0x4 ADD PUSH2 0x22E0 JUMP JUMPDEST SWAP1 SWAP3 DUP2 GT PUSH2 0xD95 JUMPI PUSH2 0x884 PUSH1 0x1C SLOAD PUSH2 0x219D JUMP JUMPDEST DUP3 DUP2 GT PUSH2 0x10EF JUMPI JUMPDEST POP PUSH1 0x0 DUP3 DUP3 GT PUSH1 0x1 EQ PUSH2 0x106C JUMPI DUP2 SWAP3 SWAP4 PUSH1 0x0 SWAP3 PUSH2 0x1061 JUMPI JUMPDEST POP POP DUP2 PUSH1 0x1 SHL SWAP2 PUSH1 0x0 NOT SWAP1 PUSH1 0x3 SHL SHR NOT AND OR PUSH1 0x1C SSTORE JUMPDEST PUSH1 0x64 PUSH1 0x4 CALLDATALOAD ADD CALLDATALOAD PUSH1 0x7 SSTORE PUSH2 0x8D2 PUSH1 0xA4 PUSH1 0x4 CALLDATALOAD ADD PUSH2 0x2313 JUMP JUMPDEST ISZERO ISZERO PUSH1 0xFF PUSH1 0x8 SLOAD SWAP2 AND SWAP1 DUP2 PUSH2 0xFF00 PUSH2 0x8EE PUSH1 0xC4 PUSH1 0x4 CALLDATALOAD ADD PUSH2 0x2313 JUMP JUMPDEST ISZERO ISZERO PUSH1 0x8 SHL AND SWAP2 PUSH2 0xFFFF NOT AND OR OR SWAP2 DUP3 PUSH1 0x8 SSTORE PUSH1 0xE4 PUSH1 0x4 CALLDATALOAD ADD CALLDATALOAD PUSH1 0x9 SSTORE PUSH2 0x104 PUSH1 0x4 CALLDATALOAD ADD CALLDATALOAD PUSH1 0xA SSTORE PUSH2 0x124 PUSH1 0x4 CALLDATALOAD ADD CALLDATALOAD PUSH1 0xB SSTORE PUSH2 0x144 PUSH1 0x4 CALLDATALOAD ADD CALLDATALOAD PUSH1 0xC SSTORE PUSH2 0x164 PUSH1 0x4 CALLDATALOAD ADD CALLDATALOAD PUSH1 0xD SSTORE PUSH2 0x184 PUSH1 0x4 CALLDATALOAD ADD CALLDATALOAD PUSH1 0xE SSTORE PUSH2 0x1A4 PUSH1 0x4 CALLDATALOAD ADD CALLDATALOAD PUSH1 0xF SSTORE PUSH2 0x1C4 PUSH1 0x4 CALLDATALOAD ADD CALLDATALOAD PUSH1 0x10 SSTORE PUSH2 0x1E4 PUSH1 0x4 CALLDATALOAD ADD CALLDATALOAD PUSH1 0x11 SSTORE PUSH2 0x204 PUSH1 0x4 CALLDATALOAD ADD CALLDATALOAD PUSH1 0x12 SSTORE PUSH2 0x244 PUSH1 0x4 CALLDATALOAD ADD CALLDATALOAD PUSH1 0x13 SSTORE PUSH2 0x988 PUSH2 0x264 PUSH1 0x4 CALLDATALOAD ADD PUSH2 0x2313 JUMP JUMPDEST ISZERO ISZERO PUSH1 0xFF DUP1 NOT PUSH1 0x14 SLOAD AND SWAP2 AND OR PUSH1 0x14 SSTORE ADDRESS ISZERO PUSH2 0x101D JUMPI POP PUSH1 0xFF PUSH1 0x5 SLOAD AND PUSH2 0xFC5 JUMPI PUSH2 0xF3A JUMPI JUMPDEST PUSH1 0x8 SHR PUSH1 0xFF AND PUSH2 0xECA JUMPI JUMPDEST PUSH2 0x9CB PUSH1 0x44 PUSH1 0x4 CALLDATALOAD ADD CALLDATALOAD PUSH1 0x2 SLOAD PUSH2 0x2284 JUMP JUMPDEST PUSH1 0x2 SSTORE ADDRESS PUSH1 0x0 MSTORE PUSH1 0x0 PUSH1 0x20 MSTORE PUSH1 0x40 PUSH1 0x0 KECCAK256 PUSH1 0x44 PUSH1 0x4 CALLDATALOAD ADD CALLDATALOAD DUP2 SLOAD ADD SWAP1 SSTORE PUSH1 0x40 MLOAD PUSH1 0x44 PUSH1 0x4 CALLDATALOAD ADD CALLDATALOAD DUP2 MSTORE PUSH1 0x0 PUSH32 0xDDF252AD1BE2C89B69C2B068FC378DAA952BA7F163C4A11628F55A4DF523B3EF PUSH1 0x20 ADDRESS SWAP4 LOG3 PUSH1 0x44 PUSH1 0x4 CALLDATALOAD ADD CALLDATALOAD PUSH1 0x0 PUSH1 0xFF PUSH1 0x14 SLOAD AND PUSH2 0xE8F JUMPI JUMPDEST PUSH2 0xA68 PUSH2 0xA62 SWAP2 PUSH1 0x64 PUSH2 0xA50 PUSH2 0x1E4 PUSH1 0x4 CALLDATALOAD ADD CALLDATALOAD PUSH1 0x44 PUSH1 0x4 CALLDATALOAD ADD CALLDATALOAD PUSH2 0x2320 JUMP JUMPDEST DIV SWAP3 DUP4 DUP1 SWAP3 DUP2 PUSH1 0x1D SSTORE DUP2 PUSH1 0x1E SSTORE PUSH2 0x2284 JUMP JUMPDEST SWAP4 PUSH2 0x2277 JUMP JUMPDEST POP CALLVALUE ISZERO ISZERO DUP1 PUSH2 0xE86 JUMPI JUMPDEST PUSH2 0xDB2 JUMPI JUMPDEST POP PUSH2 0xA8D PUSH2 0x224 PUSH1 0x4 CALLDATALOAD ADD PUSH1 0x4 CALLDATALOAD PUSH1 0x4 ADD PUSH2 0x2333 JUMP JUMPDEST SWAP1 POP PUSH2 0xB0E JUMPI JUMPDEST PUSH1 0x44 PUSH1 0x4 CALLDATALOAD ADD CALLDATALOAD SUB PUSH2 0xAB6 JUMPI PUSH2 0x320 PUSH2 0xAB1 PUSH1 0x84 PUSH1 0x4 CALLDATALOAD ADD PUSH2 0x2379 JUMP JUMPDEST PUSH2 0x29BF JUMP JUMPDEST PUSH1 0x40 MLOAD PUSH3 0x461BCD PUSH1 0xE5 SHL DUP2 MSTORE PUSH1 0x20 PUSH1 0x4 DUP3 ADD MSTORE PUSH1 0x2A PUSH1 0x24 DUP3 ADD MSTORE PUSH32 0x546F74616C20616C6C6F636174696F6E206D75737420657175616C20696E6974 PUSH1 0x44 DUP3 ADD MSTORE PUSH10 0x69616C20737570706C79 PUSH1 0xB0 SHL PUSH1 0x64 DUP3 ADD MSTORE PUSH1 0x84 SWAP1 REVERT JUMPDEST PUSH1 0x0 SWAP1 JUMPDEST PUSH2 0xB27 PUSH2 0x224 PUSH1 0x4 CALLDATALOAD ADD PUSH1 0x4 CALLDATALOAD PUSH1 0x4 ADD PUSH2 0x2333 JUMP JUMPDEST SWAP1 POP DUP3 LT ISZERO PUSH2 0xDAB JUMPI PUSH2 0xB4F DUP3 PUSH2 0xB49 PUSH2 0x224 PUSH1 0x4 CALLDATALOAD ADD PUSH1 0x4 CALLDATALOAD PUSH1 0x4 ADD PUSH2 0x2333 JUMP JUMPDEST SWAP1 PUSH2 0x2369 JUMP JUMPDEST PUSH1 0x15 DUP1 SLOAD PUSH9 0x10000000000000000 DUP2 LT ISZERO PUSH2 0xD95 JUMPI PUSH2 0xB73 SWAP2 PUSH1 0x1 DUP3 ADD SWAP1 SSTORE PUSH2 0x214C JUMP JUMPDEST SWAP2 SWAP1 SWAP2 PUSH2 0xD7F JUMPI PUSH1 0x5 SWAP1 PUSH1 0xA0 SWAP1 PUSH1 0x1 PUSH1 0x1 PUSH1 0xA0 SHL SUB PUSH2 0xB91 DUP3 PUSH2 0x2379 JUMP JUMPDEST AND PUSH12 0xFFFFFFFFFFFFFFFFFFFFFFFF DUP4 SHL DUP6 SLOAD AND OR DUP5 SSTORE PUSH1 0x20 DUP2 ADD CALLDATALOAD PUSH1 0x1 DUP6 ADD SSTORE PUSH2 0xBD5 PUSH2 0xBC0 PUSH1 0x40 DUP4 ADD PUSH2 0x2313 JUMP JUMPDEST PUSH1 0x2 DUP7 ADD SWAP1 PUSH1 0xFF DUP1 NOT DUP4 SLOAD AND SWAP2 ISZERO ISZERO AND OR SWAP1 SSTORE JUMP JUMPDEST PUSH1 0x60 DUP2 ADD CALLDATALOAD PUSH1 0x3 DUP6 ADD SSTORE PUSH1 0x80 DUP2 ADD CALLDATALOAD PUSH1 0x4 DUP6 ADD SSTORE ADD CALLDATALOAD SWAP2 ADD SSTORE PUSH2 0xC27 PUSH1 0x64 PUSH2 0xC1F PUSH1 0x20 PUSH2 0xC11 DUP7 PUSH2 0xB49 PUSH2 0x224 PUSH1 0x4 CALLDATALOAD ADD PUSH1 0x4 CALLDATALOAD PUSH1 0x4 ADD PUSH2 0x2333 JUMP JUMPDEST ADD CALLDATALOAD PUSH1 0x44 PUSH1 0x4 CALLDATALOAD ADD CALLDATALOAD PUSH2 0x2320 JUMP JUMPDEST DIV DUP1 SWAP3 PUSH2 0x2284 JUMP JUMPDEST SWAP2 PUSH1 0x44 PUSH1 0x4 CALLDATALOAD ADD CALLDATALOAD DUP4 GT PUSH2 0xD2A JUMPI PUSH1 0x1 SWAP2 PUSH2 0xC5C PUSH1 0x40 PUSH2 0xC56 DUP5 PUSH2 0xB49 PUSH2 0x224 PUSH1 0x4 CALLDATALOAD ADD PUSH1 0x4 CALLDATALOAD PUSH1 0x4 ADD PUSH2 0x2333 JUMP JUMPDEST ADD PUSH2 0x2313 JUMP JUMPDEST ISZERO PUSH2 0xCFF JUMPI PUSH1 0xA0 PUSH2 0xC7C DUP4 PUSH2 0xB49 PUSH2 0x224 PUSH1 0x4 CALLDATALOAD ADD PUSH1 0x4 CALLDATALOAD PUSH1 0x4 ADD PUSH2 0x2333 JUMP JUMPDEST ADD CALLDATALOAD DUP3 PUSH2 0xCAE PUSH2 0xCA9 PUSH2 0xC9A PUSH2 0x224 PUSH1 0x4 CALLDATALOAD ADD PUSH1 0x4 CALLDATALOAD PUSH1 0x4 ADD PUSH2 0x2333 JUMP JUMPDEST DUP9 DUP1 PUSH1 0xA0 SWAP7 SWAP4 SWAP7 SHL SUB SWAP5 PUSH2 0x2369 JUMP JUMPDEST PUSH2 0x2379 JUMP JUMPDEST AND PUSH1 0x0 MSTORE PUSH1 0x18 PUSH1 0x20 MSTORE PUSH1 0x40 PUSH1 0x0 KECCAK256 SSTORE DUP2 PUSH2 0xCE8 PUSH2 0xCA9 PUSH2 0xCD9 PUSH2 0x224 PUSH1 0x4 CALLDATALOAD ADD PUSH1 0x4 CALLDATALOAD PUSH1 0x4 ADD PUSH2 0x2333 JUMP JUMPDEST DUP8 DUP1 PUSH1 0xA0 SWAP7 SWAP4 SWAP7 SHL SUB SWAP5 PUSH2 0x2369 JUMP JUMPDEST AND PUSH1 0x0 MSTORE PUSH1 0x16 PUSH1 0x20 MSTORE PUSH1 0x40 PUSH1 0x0 KECCAK256 SSTORE JUMPDEST ADD SWAP1 PUSH2 0xB12 JUMP JUMPDEST PUSH2 0xD25 SWAP1 PUSH2 0xD1F PUSH2 0xCA9 DUP5 PUSH2 0xB49 PUSH2 0x224 PUSH1 0x4 CALLDATALOAD ADD PUSH1 0x4 CALLDATALOAD PUSH1 0x4 ADD PUSH2 0x2333 JUMP JUMPDEST ADDRESS PUSH2 0x2582 JUMP JUMPDEST PUSH2 0xCF8 JUMP JUMPDEST PUSH1 0x40 MLOAD PUSH3 0x461BCD PUSH1 0xE5 SHL DUP2 MSTORE PUSH1 0x20 PUSH1 0x4 DUP3 ADD MSTORE PUSH1 0x27 PUSH1 0x24 DUP3 ADD MSTORE PUSH32 0x546F74616C20616C6C6F636174696F6E206578636565647320696E697469616C PUSH1 0x44 DUP3 ADD MSTORE PUSH7 0x20737570706C79 PUSH1 0xC8 SHL PUSH1 0x64 DUP3 ADD MSTORE PUSH1 0x84 SWAP1 REVERT JUMPDEST PUSH4 0x4E487B71 PUSH1 0xE0 SHL PUSH1 0x0 MSTORE PUSH1 0x0 PUSH1 0x4 MSTORE PUSH1 0x24 PUSH1 0x0 REVERT JUMPDEST PUSH4 0x4E487B71 PUSH1 0xE0 SHL PUSH1 0x0 MSTORE PUSH1 0x41 PUSH1 0x4 MSTORE PUSH1 0x24 PUSH1 0x0 REVERT JUMPDEST SWAP1 POP PUSH2 0xA94 JUMP JUMPDEST PUSH1 0x1 PUSH1 0x1 PUSH1 0xA0 SHL SUB PUSH32 0x0 DUP2 AND SWAP2 SWAP1 PUSH2 0xDEA DUP3 DUP5 ADDRESS PUSH2 0x238D JUMP JUMPDEST PUSH1 0x5 SLOAD PUSH1 0x8 SHR AND SWAP2 PUSH2 0x12C TIMESTAMP ADD SWAP1 DUP2 TIMESTAMP GT PUSH2 0xE70 JUMPI PUSH2 0xE24 SWAP4 PUSH1 0x60 SWAP4 PUSH1 0x40 MLOAD SWAP6 DUP7 SWAP5 DUP6 SWAP4 DUP5 SWAP4 PUSH4 0xF305D719 PUSH1 0xE0 SHL DUP6 MSTORE ADDRESS PUSH1 0x4 DUP7 ADD PUSH2 0x22AC JUMP JUMPDEST SUB SWAP2 CALLVALUE SWAP1 GAS CALL DUP1 ISZERO PUSH2 0xE64 JUMPI ISZERO PUSH2 0xA77 JUMPI PUSH2 0xE56 SWAP1 PUSH1 0x60 RETURNDATASIZE PUSH1 0x60 GT PUSH2 0xE5D JUMPI JUMPDEST PUSH2 0xE4E DUP2 DUP4 PUSH2 0x21D7 JUMP JUMPDEST DUP2 ADD SWAP1 PUSH2 0x2291 JUMP JUMPDEST POP POP PUSH2 0xA77 JUMP JUMPDEST POP RETURNDATASIZE PUSH2 0xE44 JUMP JUMPDEST PUSH1 0x40 MLOAD RETURNDATASIZE PUSH1 0x0 DUP3 RETURNDATACOPY RETURNDATASIZE SWAP1 REVERT JUMPDEST PUSH4 0x4E487B71 PUSH1 0xE0 SHL PUSH1 0x0 MSTORE PUSH1 0x11 PUSH1 0x4 MSTORE PUSH1 0x24 PUSH1 0x0 REVERT JUMPDEST POP DUP1 ISZERO ISZERO PUSH2 0xA72 JUMP JUMPDEST POP POP PUSH1 0x64 PUSH2 0xEAA PUSH2 0x1C4 PUSH1 0x4 CALLDATALOAD ADD CALLDATALOAD PUSH1 0x44 PUSH1 0x4 CALLDATALOAD ADD CALLDATALOAD PUSH2 0x2320 JUMP JUMPDEST DIV PUSH2 0xA62 PUSH2 0xA68 PUSH2 0xEC1 DUP4 PUSH1 0x44 PUSH1 0x4 CALLDATALOAD ADD CALLDATALOAD PUSH2 0x2277 JUMP JUMPDEST SWAP3 SWAP2 POP POP PUSH2 0xA30 JUMP JUMPDEST PUSH1 0x0 DUP1 MSTORE PUSH1 0x1A PUSH1 0x20 MSTORE PUSH32 0xB75ECC04ED35F89790E98640E901BDA41ECEFF0CB896CF2765FB697680253750 SLOAD TIMESTAMP LT ISZERO PUSH2 0x9B9 JUMPI PUSH1 0x40 MLOAD PUSH3 0x461BCD PUSH1 0xE5 SHL DUP2 MSTORE PUSH1 0x20 PUSH1 0x4 DUP3 ADD MSTORE PUSH1 0x16 PUSH1 0x24 DUP3 ADD MSTORE PUSH22 0x151BDAD95B9CC8185C99481D1A5B594B5B1BD8DAD959 PUSH1 0x52 SHL PUSH1 0x44 DUP3 ADD MSTORE PUSH1 0x64 SWAP1 REVERT JUMPDEST PUSH1 0x0 DUP1 MSTORE PUSH1 0x19 PUSH1 0x20 MSTORE PUSH32 0xD2AC945FCC0096878C763E37D6929B78378C1A2DEFABDE8BA7EE5ED1D6E7A5B2 SLOAD PUSH1 0xFF AND ISZERO DUP1 PUSH2 0xFB1 JUMPI JUMPDEST PUSH2 0x9AE JUMPI PUSH1 0x40 MLOAD PUSH3 0x461BCD PUSH1 0xE5 SHL DUP2 MSTORE PUSH1 0x20 PUSH1 0x4 DUP3 ADD MSTORE PUSH1 0x16 PUSH1 0x24 DUP3 ADD MSTORE PUSH22 0x1059191C995CDCC81A5CC8189B1858DADB1A5CDD1959 PUSH1 0x52 SHL PUSH1 0x44 DUP3 ADD MSTORE PUSH1 0x64 SWAP1 REVERT JUMPDEST POP ADDRESS PUSH1 0x0 MSTORE PUSH1 0xFF PUSH1 0x40 PUSH1 0x0 KECCAK256 SLOAD AND ISZERO PUSH2 0xF6F JUMP JUMPDEST PUSH1 0x40 MLOAD PUSH3 0x461BCD PUSH1 0xE5 SHL DUP2 MSTORE PUSH1 0x20 PUSH1 0x4 DUP3 ADD MSTORE PUSH1 0x2A PUSH1 0x24 DUP3 ADD MSTORE PUSH32 0x45524332305061757361626C653A20746F6B656E207472616E73666572207768 PUSH1 0x44 DUP3 ADD MSTORE PUSH10 0x1A5B19481C185D5CD959 PUSH1 0xB2 SHL PUSH1 0x64 DUP3 ADD MSTORE PUSH1 0x84 SWAP1 REVERT JUMPDEST PUSH1 0x64 SWAP1 PUSH1 0x40 MLOAD SWAP1 PUSH3 0x461BCD PUSH1 0xE5 SHL DUP3 MSTORE PUSH1 0x20 PUSH1 0x4 DUP4 ADD MSTORE PUSH1 0x24 DUP3 ADD MSTORE PUSH32 0x45524332303A206D696E7420746F20746865207A65726F206164647265737300 PUSH1 0x44 DUP3 ADD MSTORE REVERT JUMPDEST ADD CALLDATALOAD SWAP1 POP DUP4 DUP1 PUSH2 0x8A4 JUMP JUMPDEST PUSH1 0x1F NOT DUP3 AND SWAP4 PUSH1 0x1C PUSH1 0x0 MSTORE PUSH32 0xE4562A10381DEC21B205ED72637E6B1B523BDD0E4D4D50AF5CD23DD4500A211 SWAP2 PUSH1 0x0 JUMPDEST DUP7 DUP2 LT PUSH2 0x10D7 JUMPI POP DUP4 PUSH1 0x1 SWAP6 SWAP7 LT PUSH2 0x10BD JUMPI JUMPDEST POP POP POP DUP2 SHL ADD PUSH1 0x1C SSTORE PUSH2 0x8BA JUMP JUMPDEST ADD CALLDATALOAD PUSH1 0x0 NOT PUSH1 0x3 DUP5 SWAP1 SHL PUSH1 0xF8 AND SHR NOT AND SWAP1 SSTORE DUP4 DUP1 DUP1 PUSH2 0x10AF JUMP JUMPDEST SWAP1 SWAP3 PUSH1 0x20 PUSH1 0x1 DUP2 SWAP3 DUP7 DUP7 ADD CALLDATALOAD DUP2 SSTORE ADD SWAP5 ADD SWAP2 ADD PUSH2 0x109C JUMP JUMPDEST PUSH1 0x1C PUSH1 0x0 MSTORE PUSH32 0xE4562A10381DEC21B205ED72637E6B1B523BDD0E4D4D50AF5CD23DD4500A211 DUP4 DUP1 DUP5 ADD PUSH1 0x5 SHR DUP3 ADD SWAP3 PUSH1 0x20 DUP6 LT PUSH2 0x1148 JUMPI JUMPDEST ADD PUSH1 0x5 SHR ADD SWAP1 JUMPDEST DUP2 DUP2 LT PUSH2 0x113C JUMPI POP PUSH2 0x88C JUMP JUMPDEST PUSH1 0x0 DUP2 SSTORE PUSH1 0x1 ADD PUSH2 0x112F JUMP JUMPDEST SWAP3 POP DUP2 SWAP3 PUSH2 0x1128 JUMP JUMPDEST ADD CALLDATALOAD SWAP1 POP DUP5 DUP1 PUSH2 0x847 JUMP JUMPDEST PUSH1 0x1F NOT DUP3 AND SWAP5 PUSH1 0x1B PUSH1 0x0 MSTORE PUSH32 0x3AD8AA4F87544323A9D1E5DD902F40C356527A7955687113DB5F9A85AD579DC1 SWAP2 PUSH1 0x0 JUMPDEST DUP8 DUP2 LT PUSH2 0x11C8 JUMPI POP DUP4 PUSH1 0x1 SWAP6 SWAP7 SWAP8 LT PUSH2 0x11AE JUMPI JUMPDEST POP POP POP DUP2 SHL ADD PUSH1 0x1B SSTORE PUSH2 0x85D JUMP JUMPDEST ADD CALLDATALOAD PUSH1 0x0 NOT PUSH1 0x3 DUP5 SWAP1 SHL PUSH1 0xF8 AND SHR NOT AND SWAP1 SSTORE DUP5 DUP1 DUP1 PUSH2 0x11A0 JUMP JUMPDEST SWAP1 SWAP3 PUSH1 0x20 PUSH1 0x1 DUP2 SWAP3 DUP7 DUP7 ADD CALLDATALOAD DUP2 SSTORE ADD SWAP5 ADD SWAP2 ADD PUSH2 0x118C JUMP JUMPDEST PUSH1 0x1B PUSH1 0x0 MSTORE PUSH32 0x3AD8AA4F87544323A9D1E5DD902F40C356527A7955687113DB5F9A85AD579DC1 DUP4 DUP1 DUP5 ADD PUSH1 0x5 SHR DUP3 ADD SWAP3 PUSH1 0x20 DUP6 LT PUSH2 0x1239 JUMPI JUMPDEST ADD PUSH1 0x5 SHR ADD SWAP1 JUMPDEST DUP2 DUP2 LT PUSH2 0x122D JUMPI POP PUSH2 0x82E JUMP JUMPDEST PUSH1 0x0 DUP2 SSTORE PUSH1 0x1 ADD PUSH2 0x1220 JUMP JUMPDEST SWAP3 POP DUP2 SWAP3 PUSH2 0x1219 JUMP JUMPDEST PUSH1 0x40 MLOAD PUSH3 0x461BCD PUSH1 0xE5 SHL DUP2 MSTORE PUSH1 0x20 PUSH1 0x4 DUP3 ADD MSTORE PUSH1 0x13 PUSH1 0x24 DUP3 ADD MSTORE PUSH19 0x105B1C9958591E481A5B9A5D1A585B1A5E9959 PUSH1 0x6A SHL PUSH1 0x44 DUP3 ADD MSTORE PUSH1 0x64 SWAP1 REVERT JUMPDEST CALLVALUE PUSH2 0x2C4 JUMPI PUSH1 0x0 CALLDATASIZE PUSH1 0x3 NOT ADD SLT PUSH2 0x2C4 JUMPI PUSH1 0x20 PUSH1 0xFF PUSH1 0x8 SLOAD AND PUSH1 0x40 MLOAD SWAP1 ISZERO ISZERO DUP2 MSTORE RETURN JUMPDEST CALLVALUE PUSH2 0x2C4 JUMPI PUSH1 0x0 CALLDATASIZE PUSH1 0x3 NOT ADD SLT PUSH2 0x2C4 JUMPI PUSH1 0x20 PUSH1 0x13 SLOAD PUSH1 0x40 MLOAD SWAP1 DUP2 MSTORE RETURN JUMPDEST CALLVALUE PUSH2 0x2C4 JUMPI PUSH1 0x0 CALLDATASIZE PUSH1 0x3 NOT ADD SLT PUSH2 0x2C4 JUMPI PUSH1 0x20 PUSH1 0x1D SLOAD PUSH1 0x40 MLOAD SWAP1 DUP2 MSTORE RETURN JUMPDEST CALLVALUE PUSH2 0x2C4 JUMPI PUSH1 0x0 CALLDATASIZE PUSH1 0x3 NOT ADD SLT PUSH2 0x2C4 JUMPI PUSH1 0x20 PUSH1 0xC SLOAD PUSH1 0x40 MLOAD SWAP1 DUP2 MSTORE RETURN JUMPDEST CALLVALUE PUSH2 0x2C4 JUMPI PUSH1 0x40 CALLDATASIZE PUSH1 0x3 NOT ADD SLT PUSH2 0x2C4 JUMPI PUSH2 0x1320 PUSH2 0x1316 PUSH2 0x20D7 JUMP JUMPDEST PUSH1 0x24 CALLDATALOAD SWAP1 CALLER PUSH2 0x2582 JUMP JUMPDEST PUSH1 0x20 PUSH1 0x40 MLOAD PUSH1 0x1 DUP2 MSTORE RETURN JUMPDEST CALLVALUE PUSH2 0x2C4 JUMPI PUSH1 0x40 CALLDATASIZE PUSH1 0x3 NOT ADD SLT PUSH2 0x2C4 JUMPI PUSH2 0x1344 PUSH2 0x20D7 JUMP JUMPDEST PUSH1 0x24 CALLDATALOAD SWAP1 CALLER PUSH1 0x0 MSTORE PUSH1 0x1 PUSH1 0x20 MSTORE PUSH1 0x40 PUSH1 0x0 KECCAK256 PUSH1 0x1 DUP1 PUSH1 0xA0 SHL SUB DUP3 AND PUSH1 0x0 MSTORE PUSH1 0x20 MSTORE PUSH1 0x40 PUSH1 0x0 KECCAK256 SLOAD SWAP2 DUP1 DUP4 LT PUSH2 0x137F JUMPI PUSH2 0x1320 SWAP3 SUB SWAP1 CALLER PUSH2 0x238D JUMP JUMPDEST PUSH1 0x40 MLOAD PUSH3 0x461BCD PUSH1 0xE5 SHL DUP2 MSTORE PUSH1 0x20 PUSH1 0x4 DUP3 ADD MSTORE PUSH1 0x25 PUSH1 0x24 DUP3 ADD MSTORE PUSH32 0x45524332303A2064656372656173656420616C6C6F77616E63652062656C6F77 PUSH1 0x44 DUP3 ADD MSTORE PUSH5 0x207A65726F PUSH1 0xD8 SHL PUSH1 0x64 DUP3 ADD MSTORE PUSH1 0x84 SWAP1 REVERT JUMPDEST CALLVALUE PUSH2 0x2C4 JUMPI PUSH1 0x0 CALLDATASIZE PUSH1 0x3 NOT ADD SLT PUSH2 0x2C4 JUMPI PUSH1 0x40 MLOAD PUSH1 0x0 PUSH1 0x1C SLOAD PUSH2 0x13F4 DUP2 PUSH2 0x219D JUMP JUMPDEST DUP1 DUP5 MSTORE SWAP1 PUSH1 0x20 SWAP1 PUSH1 0x1 SWAP1 DUP2 DUP2 AND SWAP1 DUP2 ISZERO PUSH2 0x148B JUMPI POP PUSH1 0x1 EQ PUSH2 0x1431 JUMPI JUMPDEST PUSH2 0x142D DUP6 PUSH2 0x1421 DUP2 DUP8 SUB DUP3 PUSH2 0x21D7 JUMP JUMPDEST PUSH1 0x40 MLOAD SWAP2 DUP3 SWAP2 DUP3 PUSH2 0x2103 JUMP JUMPDEST SUB SWAP1 RETURN JUMPDEST PUSH1 0x1C PUSH1 0x0 SWAP1 DUP2 MSTORE SWAP4 POP PUSH32 0xE4562A10381DEC21B205ED72637E6B1B523BDD0E4D4D50AF5CD23DD4500A211 JUMPDEST DUP4 DUP6 LT PUSH2 0x1478 JUMPI POP POP POP POP DUP2 ADD PUSH1 0x20 ADD PUSH2 0x1421 DUP3 PUSH2 0x142D PUSH2 0x1411 JUMP JUMPDEST DUP1 SLOAD DUP7 DUP7 ADD DUP5 ADD MSTORE SWAP4 DUP3 ADD SWAP4 DUP2 ADD PUSH2 0x145C JUMP JUMPDEST DUP7 SWAP6 POP PUSH2 0x142D SWAP7 SWAP4 POP PUSH1 0x20 SWAP3 POP PUSH2 0x1421 SWAP5 SWAP2 POP PUSH1 0xFF NOT AND DUP3 DUP5 ADD MSTORE ISZERO ISZERO PUSH1 0x5 SHL DUP3 ADD ADD SWAP3 SWAP4 PUSH2 0x1411 JUMP JUMPDEST CALLVALUE PUSH2 0x2C4 JUMPI PUSH1 0x0 CALLDATASIZE PUSH1 0x3 NOT ADD SLT PUSH2 0x2C4 JUMPI PUSH1 0x20 PUSH1 0xA SLOAD PUSH1 0x40 MLOAD SWAP1 DUP2 MSTORE RETURN JUMPDEST CALLVALUE PUSH2 0x2C4 JUMPI PUSH1 0x20 CALLDATASIZE PUSH1 0x3 NOT ADD SLT PUSH2 0x2C4 JUMPI PUSH1 0x1 PUSH1 0x1 PUSH1 0xA0 SHL SUB PUSH2 0x14F4 PUSH2 0x20D7 JUMP JUMPDEST AND PUSH1 0x0 MSTORE PUSH1 0x17 PUSH1 0x20 MSTORE PUSH1 0x20 PUSH1 0x40 PUSH1 0x0 KECCAK256 SLOAD PUSH1 0x40 MLOAD SWAP1 DUP2 MSTORE RETURN JUMPDEST CALLVALUE PUSH2 0x2C4 JUMPI PUSH1 0x0 CALLDATASIZE PUSH1 0x3 NOT ADD SLT PUSH2 0x2C4 JUMPI PUSH1 0x5 SLOAD PUSH1 0x40 MLOAD PUSH1 0x8 SWAP2 SWAP1 SWAP2 SHR PUSH1 0x1 PUSH1 0x1 PUSH1 0xA0 SHL SUB AND DUP2 MSTORE PUSH1 0x20 SWAP1 RETURN JUMPDEST CALLVALUE PUSH2 0x2C4 JUMPI PUSH1 0x0 CALLDATASIZE PUSH1 0x3 NOT ADD SLT PUSH2 0x2C4 JUMPI PUSH1 0x20 PUSH1 0xD SLOAD PUSH1 0x40 MLOAD SWAP1 DUP2 MSTORE RETURN JUMPDEST CALLVALUE PUSH2 0x2C4 JUMPI PUSH1 0x0 CALLDATASIZE PUSH1 0x3 NOT ADD SLT PUSH2 0x2C4 JUMPI PUSH1 0x20 PUSH1 0x1E SLOAD PUSH1 0x40 MLOAD SWAP1 DUP2 MSTORE RETURN JUMPDEST CALLVALUE PUSH2 0x2C4 JUMPI PUSH1 0x0 CALLDATASIZE PUSH1 0x3 NOT ADD SLT PUSH2 0x2C4 JUMPI PUSH2 0x158F PUSH2 0x248F JUMP JUMPDEST PUSH1 0x5 SLOAD PUSH1 0xFF DUP2 AND PUSH2 0x15D1 JUMPI PUSH1 0x1 SWAP1 PUSH1 0xFF NOT AND OR PUSH1 0x5 SSTORE PUSH32 0x62E78CEA01BEE320CD4E420270B5EA74000D11B0C9F74754EBDBFC544B05A258 PUSH1 0x20 PUSH1 0x40 MLOAD CALLER DUP2 MSTORE LOG1 STOP JUMPDEST PUSH1 0x40 MLOAD PUSH3 0x461BCD PUSH1 0xE5 SHL DUP2 MSTORE PUSH1 0x20 PUSH1 0x4 DUP3 ADD MSTORE PUSH1 0x10 PUSH1 0x24 DUP3 ADD MSTORE PUSH16 0x14185D5CD8589B194E881C185D5CD959 PUSH1 0x82 SHL PUSH1 0x44 DUP3 ADD MSTORE PUSH1 0x64 SWAP1 REVERT JUMPDEST CALLVALUE PUSH2 0x2C4 JUMPI PUSH1 0x40 CALLDATASIZE PUSH1 0x3 NOT ADD SLT PUSH2 0x2C4 JUMPI PUSH2 0x320 PUSH2 0x1625 PUSH2 0x20D7 JUMP JUMPDEST PUSH1 0x24 CALLDATALOAD SWAP1 PUSH2 0x1634 DUP3 CALLER DUP4 PUSH2 0x24EA JUMP JUMPDEST PUSH2 0x27D4 JUMP JUMPDEST CALLVALUE PUSH2 0x2C4 JUMPI PUSH1 0x0 CALLDATASIZE PUSH1 0x3 NOT ADD SLT PUSH2 0x2C4 JUMPI PUSH1 0x20 PUSH1 0xE SLOAD PUSH1 0x40 MLOAD SWAP1 DUP2 MSTORE RETURN JUMPDEST CALLVALUE PUSH2 0x2C4 JUMPI PUSH1 0x0 CALLDATASIZE PUSH1 0x3 NOT ADD SLT PUSH2 0x2C4 JUMPI PUSH2 0x1670 PUSH2 0x248F JUMP JUMPDEST PUSH1 0x5 DUP1 SLOAD PUSH2 0x100 PUSH1 0x1 PUSH1 0xA8 SHL SUB NOT DUP2 AND SWAP1 SWAP2 SSTORE PUSH1 0x0 SWAP1 PUSH1 0x8 SHR PUSH1 0x1 PUSH1 0x1 PUSH1 0xA0 SHL SUB AND PUSH32 0x8BE0079C531659141344CD1FD0A4F28419497F9722A3DAAFE3B4186F6B6457E0 DUP3 DUP1 LOG3 STOP JUMPDEST CALLVALUE PUSH2 0x2C4 JUMPI PUSH1 0x20 CALLDATASIZE PUSH1 0x3 NOT ADD SLT PUSH2 0x2C4 JUMPI PUSH1 0x1 PUSH1 0x1 PUSH1 0xA0 SHL SUB PUSH2 0x16D9 PUSH2 0x20D7 JUMP JUMPDEST AND PUSH1 0x0 MSTORE PUSH1 0x0 PUSH1 0x20 MSTORE PUSH1 0x20 PUSH1 0x40 PUSH1 0x0 KECCAK256 SLOAD PUSH1 0x40 MLOAD SWAP1 DUP2 MSTORE RETURN JUMPDEST CALLVALUE PUSH2 0x2C4 JUMPI PUSH1 0x40 CALLDATASIZE PUSH1 0x3 NOT ADD SLT PUSH2 0x2C4 JUMPI PUSH2 0x170B PUSH2 0x20D7 JUMP JUMPDEST PUSH1 0x24 CALLDATALOAD SWAP1 PUSH2 0x1717 PUSH2 0x248F JUMP JUMPDEST PUSH1 0xFF PUSH1 0x8 SLOAD PUSH1 0x8 SHR AND ISZERO PUSH2 0x17B7 JUMPI TIMESTAMP DUP3 GT ISZERO PUSH2 0x1772 JUMPI PUSH1 0x20 PUSH32 0xA9353E70F07F31E7F4E16464F45E189CBD22826780A5ABE4DA8303652A86960A SWAP2 PUSH1 0x1 DUP1 PUSH1 0xA0 SHL SUB AND SWAP3 DUP4 PUSH1 0x0 MSTORE PUSH1 0x1A DUP3 MSTORE DUP1 PUSH1 0x40 PUSH1 0x0 KECCAK256 SSTORE PUSH1 0x40 MLOAD SWAP1 DUP2 MSTORE LOG2 STOP JUMPDEST PUSH1 0x40 MLOAD PUSH3 0x461BCD PUSH1 0xE5 SHL DUP2 MSTORE PUSH1 0x20 PUSH1 0x4 DUP3 ADD MSTORE PUSH1 0x1D PUSH1 0x24 DUP3 ADD MSTORE PUSH32 0x556E6C6F636B2074696D65206D75737420626520696E20667574757265000000 PUSH1 0x44 DUP3 ADD MSTORE PUSH1 0x64 SWAP1 REVERT JUMPDEST PUSH1 0x40 MLOAD PUSH3 0x461BCD PUSH1 0xE5 SHL DUP2 MSTORE PUSH1 0x20 PUSH1 0x4 DUP3 ADD MSTORE PUSH1 0x18 PUSH1 0x24 DUP3 ADD MSTORE PUSH32 0x54696D65206C6F636B206973206E6F7420656E61626C65640000000000000000 PUSH1 0x44 DUP3 ADD MSTORE PUSH1 0x64 SWAP1 REVERT JUMPDEST CALLVALUE PUSH2 0x2C4 JUMPI PUSH1 0x0 CALLDATASIZE PUSH1 0x3 NOT ADD SLT PUSH2 0x2C4 JUMPI PUSH1 0x20 PUSH1 0xFF PUSH1 0x5 SLOAD AND PUSH1 0x40 MLOAD SWAP1 ISZERO ISZERO DUP2 MSTORE RETURN JUMPDEST PUSH1 0x20 CALLDATASIZE PUSH1 0x3 NOT ADD SLT PUSH2 0x2C4 JUMPI PUSH1 0x4 CALLDATALOAD PUSH2 0x1839 CALLVALUE ISZERO ISZERO PUSH2 0x21F9 JUMP JUMPDEST PUSH2 0x1844 DUP2 ISZERO ISZERO PUSH2 0x2235 JUMP JUMPDEST PUSH2 0x184F DUP2 ADDRESS CALLER PUSH2 0x2582 JUMP JUMPDEST PUSH32 0x0 PUSH1 0x1 PUSH1 0x1 PUSH1 0xA0 SHL SUB AND SWAP1 PUSH2 0x1885 DUP2 DUP4 ADDRESS PUSH2 0x238D JUMP JUMPDEST PUSH2 0x12C TIMESTAMP ADD DUP1 TIMESTAMP GT PUSH2 0xE70 JUMPI PUSH1 0x40 MLOAD PUSH4 0xF305D719 PUSH1 0xE0 SHL DUP2 MSTORE SWAP3 PUSH1 0x60 SWAP3 DUP5 SWAP3 DUP4 SWAP2 DUP3 SWAP2 PUSH2 0x18B8 SWAP2 CALLER SWAP1 ADDRESS PUSH1 0x4 DUP7 ADD PUSH2 0x22AC JUMP JUMPDEST SUB SWAP2 CALLVALUE SWAP1 GAS CALL DUP1 ISZERO PUSH2 0xE64 JUMPI PUSH2 0x18CA JUMPI STOP JUMPDEST PUSH2 0x320 SWAP1 PUSH1 0x60 RETURNDATASIZE PUSH1 0x60 GT PUSH2 0xE5D JUMPI PUSH2 0xE4E DUP2 DUP4 PUSH2 0x21D7 JUMP JUMPDEST CALLVALUE PUSH2 0x2C4 JUMPI PUSH1 0x0 CALLDATASIZE PUSH1 0x3 NOT ADD SLT PUSH2 0x2C4 JUMPI PUSH1 0x20 PUSH1 0x12 SLOAD PUSH1 0x40 MLOAD SWAP1 DUP2 MSTORE RETURN JUMPDEST CALLVALUE PUSH2 0x2C4 JUMPI PUSH1 0x0 CALLDATASIZE PUSH1 0x3 NOT ADD SLT PUSH2 0x2C4 JUMPI PUSH1 0x40 MLOAD PUSH32 0x0 PUSH1 0x1 PUSH1 0x1 PUSH1 0xA0 SHL SUB AND DUP2 MSTORE PUSH1 0x20 SWAP1 RETURN JUMPDEST CALLVALUE PUSH2 0x2C4 JUMPI PUSH1 0x0 CALLDATASIZE PUSH1 0x3 NOT ADD SLT PUSH2 0x2C4 JUMPI PUSH1 0x20 PUSH1 0x9 SLOAD PUSH1 0x40 MLOAD SWAP1 DUP2 MSTORE RETURN JUMPDEST CALLVALUE PUSH2 0x2C4 JUMPI PUSH1 0x20 CALLDATASIZE PUSH1 0x3 NOT ADD SLT PUSH2 0x2C4 JUMPI PUSH2 0x320 PUSH1 0x4 CALLDATALOAD CALLER PUSH2 0x27D4 JUMP JUMPDEST CALLVALUE PUSH2 0x2C4 JUMPI PUSH1 0x20 CALLDATASIZE PUSH1 0x3 NOT ADD SLT PUSH2 0x2C4 JUMPI PUSH1 0x4 CALLDATALOAD PUSH1 0x15 SLOAD DUP2 LT ISZERO PUSH2 0x2C4 JUMPI PUSH2 0x19A9 PUSH1 0xC0 SWAP2 PUSH2 0x214C JUMP JUMPDEST POP PUSH1 0x1 DUP1 PUSH1 0xA0 SHL SUB DUP2 SLOAD AND SWAP1 PUSH1 0x1 DUP2 ADD SLOAD SWAP1 PUSH1 0xFF PUSH1 0x2 DUP3 ADD SLOAD AND PUSH1 0x3 DUP3 ADD SLOAD SWAP1 PUSH1 0x5 PUSH1 0x4 DUP5 ADD SLOAD SWAP4 ADD SLOAD SWAP4 PUSH1 0x40 MLOAD SWAP6 DUP7 MSTORE PUSH1 0x20 DUP7 ADD MSTORE ISZERO ISZERO PUSH1 0x40 DUP6 ADD MSTORE PUSH1 0x60 DUP5 ADD MSTORE PUSH1 0x80 DUP4 ADD MSTORE PUSH1 0xA0 DUP3 ADD MSTORE RETURN JUMPDEST CALLVALUE PUSH2 0x2C4 JUMPI PUSH1 0x0 CALLDATASIZE PUSH1 0x3 NOT ADD SLT PUSH2 0x2C4 JUMPI PUSH2 0x1A10 PUSH2 0x248F JUMP JUMPDEST PUSH1 0x5 SLOAD PUSH1 0xFF DUP2 AND ISZERO PUSH2 0x1A4F JUMPI PUSH1 0xFF NOT AND PUSH1 0x5 SSTORE PUSH32 0x5DB9EE0A495BF2E6FF9C91A7834C1BA4FDD244A5E8AA4E537BD38AEAE4B073AA PUSH1 0x20 PUSH1 0x40 MLOAD CALLER DUP2 MSTORE LOG1 STOP JUMPDEST PUSH1 0x40 MLOAD PUSH3 0x461BCD PUSH1 0xE5 SHL DUP2 MSTORE PUSH1 0x20 PUSH1 0x4 DUP3 ADD MSTORE PUSH1 0x14 PUSH1 0x24 DUP3 ADD MSTORE PUSH20 0x14185D5CD8589B194E881B9BDD081C185D5CD959 PUSH1 0x62 SHL PUSH1 0x44 DUP3 ADD MSTORE PUSH1 0x64 SWAP1 REVERT JUMPDEST CALLVALUE PUSH2 0x2C4 JUMPI PUSH1 0x40 CALLDATASIZE PUSH1 0x3 NOT ADD SLT PUSH2 0x2C4 JUMPI PUSH2 0x1320 PUSH2 0x1AA7 PUSH2 0x20D7 JUMP JUMPDEST CALLER PUSH1 0x0 MSTORE PUSH1 0x1 PUSH1 0x20 MSTORE PUSH1 0x40 PUSH1 0x0 KECCAK256 PUSH1 0x1 DUP1 PUSH1 0xA0 SHL SUB DUP3 AND PUSH1 0x0 MSTORE PUSH1 0x20 MSTORE PUSH2 0x1AD5 PUSH1 0x24 CALLDATALOAD PUSH1 0x40 PUSH1 0x0 KECCAK256 SLOAD PUSH2 0x2284 JUMP JUMPDEST SWAP1 CALLER PUSH2 0x238D JUMP JUMPDEST PUSH1 0x20 CALLDATASIZE PUSH1 0x3 NOT ADD SLT PUSH2 0x2C4 JUMPI PUSH1 0x4 CALLDATALOAD PUSH2 0x1AF3 PUSH2 0x248F JUMP JUMPDEST PUSH2 0x1AFE CALLVALUE ISZERO ISZERO PUSH2 0x21F9 JUMP JUMPDEST PUSH2 0x1B09 DUP2 ISZERO ISZERO PUSH2 0x2235 JUMP JUMPDEST PUSH1 0x1E SLOAD DUP1 DUP3 GT PUSH2 0x1C6B JUMPI ADDRESS PUSH1 0x0 MSTORE PUSH1 0x0 PUSH1 0x20 MSTORE DUP2 PUSH1 0x40 PUSH1 0x0 KECCAK256 SLOAD LT PUSH2 0x1C26 JUMPI DUP2 PUSH2 0x1B32 SWAP2 PUSH2 0x2277 JUMP JUMPDEST PUSH1 0x1E SSTORE PUSH1 0x1 PUSH1 0x1 PUSH1 0xA0 SHL SUB PUSH32 0x0 DUP2 AND SWAP1 PUSH2 0x1B6C DUP4 DUP4 ADDRESS PUSH2 0x238D JUMP JUMPDEST PUSH2 0x12C TIMESTAMP ADD SWAP2 DUP3 TIMESTAMP GT PUSH2 0xE70 JUMPI PUSH2 0x1B9E SWAP3 PUSH1 0x60 SWAP2 PUSH1 0x40 MLOAD DUP1 DUP1 SWAP7 DUP2 SWAP5 PUSH4 0xF305D719 PUSH1 0xE0 SHL DUP4 MSTORE CALLER DUP11 ADDRESS PUSH1 0x4 DUP7 ADD PUSH2 0x22AC JUMP JUMPDEST SUB SWAP2 CALLVALUE SWAP1 GAS CALL SWAP1 DUP2 ISZERO PUSH2 0xE64 JUMPI PUSH32 0xAC1D76749E5447B7B16F5AB61447E1BD502F3BB4807AF3B28E620D1700A6EE45 SWAP3 PUSH1 0x40 SWAP3 PUSH2 0x1C07 JUMPI JUMPDEST POP DUP2 MLOAD SWAP4 DUP5 MSTORE CALLVALUE PUSH1 0x20 DUP6 ADD MSTORE PUSH32 0x0 AND SWAP3 LOG2 STOP JUMPDEST PUSH2 0x1C1F SWAP1 PUSH1 0x60 RETURNDATASIZE PUSH1 0x60 GT PUSH2 0xE5D JUMPI PUSH2 0xE4E DUP2 DUP4 PUSH2 0x21D7 JUMP JUMPDEST POP POP PUSH2 0x1BD5 JUMP JUMPDEST PUSH1 0x40 MLOAD PUSH3 0x461BCD PUSH1 0xE5 SHL DUP2 MSTORE PUSH1 0x20 PUSH1 0x4 DUP3 ADD MSTORE PUSH1 0x1D PUSH1 0x24 DUP3 ADD MSTORE PUSH32 0x496E73756666696369656E7420636F6E74726163742062616C616E6365000000 PUSH1 0x44 DUP3 ADD MSTORE PUSH1 0x64 SWAP1 REVERT JUMPDEST PUSH1 0x40 MLOAD PUSH3 0x461BCD PUSH1 0xE5 SHL DUP2 MSTORE PUSH1 0x20 PUSH1 0x4 DUP3 ADD MSTORE PUSH1 0x2D PUSH1 0x24 DUP3 ADD MSTORE PUSH32 0x416D6F756E7420657863656564732072656D61696E696E67206C697175696469 PUSH1 0x44 DUP3 ADD MSTORE PUSH13 0x3A3C9030B63637B1B0BA34B7B7 PUSH1 0x99 SHL PUSH1 0x64 DUP3 ADD MSTORE PUSH1 0x84 SWAP1 REVERT JUMPDEST CALLVALUE PUSH2 0x2C4 JUMPI PUSH1 0x0 CALLDATASIZE PUSH1 0x3 NOT ADD SLT PUSH2 0x2C4 JUMPI PUSH1 0x15 SLOAD PUSH8 0xFFFFFFFFFFFFFFFF SWAP1 DUP2 DUP2 GT PUSH2 0xD95 JUMPI PUSH1 0x20 SWAP1 PUSH1 0x5 PUSH1 0x40 MLOAD SWAP2 PUSH2 0x1D03 DUP5 DUP3 PUSH1 0x5 SHL ADD DUP5 PUSH2 0x21D7 JUMP JUMPDEST DUP1 DUP4 MSTORE DUP4 DUP4 ADD SWAP5 DUP6 PUSH1 0x15 PUSH1 0x0 MSTORE PUSH32 0x55F448FDEA98C4D29EB340757EF0A66CD03DBB9538908A6A81D96026B71EC475 PUSH1 0x0 SWAP2 JUMPDEST DUP5 DUP4 LT PUSH2 0x1DB4 JUMPI PUSH1 0x40 DUP1 MLOAD DUP10 DUP2 MSTORE DUP9 MLOAD DUP2 DUP12 ADD DUP2 SWAP1 MSTORE DUP12 SWAP3 DUP3 ADD SWAP1 DUP12 PUSH1 0x0 JUMPDEST DUP3 DUP2 LT PUSH2 0x1D61 JUMPI DUP5 DUP5 SUB DUP6 RETURN JUMPDEST DUP6 MLOAD DUP1 MLOAD PUSH1 0x1 PUSH1 0x1 PUSH1 0xA0 SHL SUB AND DUP6 MSTORE DUP1 DUP4 ADD MLOAD DUP6 DUP5 ADD MSTORE PUSH1 0x40 DUP1 DUP3 ADD MLOAD ISZERO ISZERO SWAP1 DUP7 ADD MSTORE PUSH1 0x60 DUP1 DUP3 ADD MLOAD SWAP1 DUP7 ADD MSTORE PUSH1 0x80 DUP1 DUP3 ADD MLOAD SWAP1 DUP7 ADD MSTORE PUSH1 0xA0 SWAP1 DUP2 ADD MLOAD SWAP1 DUP6 ADD MSTORE SWAP5 DUP2 ADD SWAP5 PUSH1 0xC0 SWAP1 SWAP4 ADD SWAP3 PUSH1 0x1 ADD PUSH2 0x1D54 JUMP JUMPDEST PUSH1 0x40 MLOAD PUSH1 0xC0 DUP2 ADD DUP2 DUP2 LT DUP7 DUP3 GT OR PUSH2 0xD95 JUMPI PUSH1 0x1 SWAP3 PUSH1 0x6 SWAP3 DUP12 SWAP3 PUSH1 0x40 MSTORE DUP5 DUP1 PUSH1 0xA0 SHL SUB DUP7 SLOAD AND DUP2 MSTORE DUP5 DUP7 ADD SLOAD DUP4 DUP3 ADD MSTORE PUSH1 0xFF PUSH1 0x2 DUP8 ADD SLOAD AND ISZERO ISZERO PUSH1 0x40 DUP3 ADD MSTORE PUSH1 0x3 DUP7 ADD SLOAD PUSH1 0x60 DUP3 ADD MSTORE PUSH1 0x4 DUP7 ADD SLOAD PUSH1 0x80 DUP3 ADD MSTORE DUP10 DUP7 ADD SLOAD PUSH1 0xA0 DUP3 ADD MSTORE DUP2 MSTORE ADD SWAP3 ADD SWAP3 ADD SWAP2 SWAP1 PUSH2 0x1D35 JUMP JUMPDEST CALLVALUE PUSH2 0x2C4 JUMPI PUSH1 0x0 CALLDATASIZE PUSH1 0x3 NOT ADD SLT PUSH2 0x2C4 JUMPI PUSH1 0x20 PUSH1 0xF SLOAD PUSH1 0x40 MLOAD SWAP1 DUP2 MSTORE RETURN JUMPDEST CALLVALUE PUSH2 0x2C4 JUMPI PUSH1 0x0 CALLDATASIZE PUSH1 0x3 NOT ADD SLT PUSH2 0x2C4 JUMPI PUSH1 0x20 PUSH1 0x40 MLOAD PUSH1 0x12 DUP2 MSTORE RETURN JUMPDEST CALLVALUE PUSH2 0x2C4 JUMPI PUSH1 0x60 CALLDATASIZE PUSH1 0x3 NOT ADD SLT PUSH2 0x2C4 JUMPI PUSH2 0x1320 PUSH2 0x1E74 PUSH2 0x20D7 JUMP JUMPDEST PUSH2 0x1E7C PUSH2 0x20ED JUMP JUMPDEST PUSH1 0x44 CALLDATALOAD SWAP2 PUSH2 0x1E8B DUP4 CALLER DUP4 PUSH2 0x24EA JUMP JUMPDEST PUSH2 0x2582 JUMP JUMPDEST CALLVALUE PUSH2 0x2C4 JUMPI PUSH1 0x0 CALLDATASIZE PUSH1 0x3 NOT ADD SLT PUSH2 0x2C4 JUMPI PUSH1 0x20 PUSH1 0x2 SLOAD PUSH1 0x40 MLOAD SWAP1 DUP2 MSTORE RETURN JUMPDEST CALLVALUE PUSH2 0x2C4 JUMPI PUSH1 0x0 CALLDATASIZE PUSH1 0x3 NOT ADD SLT PUSH2 0x2C4 JUMPI PUSH1 0x40 MLOAD PUSH32 0x0 PUSH1 0x1 PUSH1 0x1 PUSH1 0xA0 SHL SUB AND DUP2 MSTORE PUSH1 0x20 SWAP1 RETURN JUMPDEST CALLVALUE PUSH2 0x2C4 JUMPI PUSH1 0x40 CALLDATASIZE PUSH1 0x3 NOT ADD SLT PUSH2 0x2C4 JUMPI PUSH2 0x1F0C PUSH2 0x20D7 JUMP JUMPDEST PUSH1 0x24 CALLDATALOAD SWAP1 DUP2 ISZERO ISZERO SWAP1 DUP2 DUP4 SUB PUSH2 0x2C4 JUMPI PUSH2 0x1F23 PUSH2 0x248F JUMP JUMPDEST PUSH1 0xFF PUSH1 0x8 SLOAD AND ISZERO PUSH2 0x1F86 JUMPI PUSH32 0x6A12B3DF6CBA4203BD7FD06B816789F87DE8C594299AED5717AE070FAC781BAC SWAP2 PUSH2 0x1F7D PUSH1 0x20 SWAP3 PUSH1 0x1 DUP1 PUSH1 0xA0 SHL SUB AND SWAP5 DUP6 PUSH1 0x0 MSTORE PUSH1 0x19 DUP5 MSTORE PUSH1 0x40 PUSH1 0x0 KECCAK256 SWAP1 PUSH1 0xFF DUP1 NOT DUP4 SLOAD AND SWAP2 ISZERO ISZERO AND OR SWAP1 SSTORE JUMP JUMPDEST PUSH1 0x40 MLOAD SWAP1 DUP2 MSTORE LOG2 STOP JUMPDEST PUSH1 0x40 MLOAD PUSH3 0x461BCD PUSH1 0xE5 SHL DUP2 MSTORE PUSH1 0x20 PUSH1 0x4 DUP3 ADD MSTORE PUSH1 0x18 PUSH1 0x24 DUP3 ADD MSTORE PUSH32 0x426C61636B6C697374206973206E6F7420656E61626C65640000000000000000 PUSH1 0x44 DUP3 ADD MSTORE PUSH1 0x64 SWAP1 REVERT JUMPDEST CALLVALUE PUSH2 0x2C4 JUMPI PUSH1 0x0 CALLDATASIZE PUSH1 0x3 NOT ADD SLT PUSH2 0x2C4 JUMPI PUSH1 0x20 PUSH1 0xFF PUSH1 0x14 SLOAD AND PUSH1 0x40 MLOAD SWAP1 ISZERO ISZERO DUP2 MSTORE RETURN JUMPDEST CALLVALUE PUSH2 0x2C4 JUMPI PUSH1 0x40 CALLDATASIZE PUSH1 0x3 NOT ADD SLT PUSH2 0x2C4 JUMPI PUSH2 0x1320 PUSH2 0x200A PUSH2 0x20D7 JUMP JUMPDEST PUSH1 0x24 CALLDATALOAD SWAP1 CALLER PUSH2 0x238D JUMP JUMPDEST CALLVALUE PUSH2 0x2C4 JUMPI PUSH1 0x0 CALLDATASIZE PUSH1 0x3 NOT ADD SLT PUSH2 0x2C4 JUMPI PUSH1 0x40 MLOAD PUSH1 0x0 PUSH1 0x1B SLOAD PUSH2 0x2036 DUP2 PUSH2 0x219D JUMP JUMPDEST DUP1 DUP5 MSTORE SWAP1 PUSH1 0x20 SWAP1 PUSH1 0x1 SWAP1 DUP2 DUP2 AND SWAP1 DUP2 ISZERO PUSH2 0x148B JUMPI POP PUSH1 0x1 EQ PUSH2 0x2062 JUMPI PUSH2 0x142D DUP6 PUSH2 0x1421 DUP2 DUP8 SUB DUP3 PUSH2 0x21D7 JUMP JUMPDEST PUSH1 0x1B PUSH1 0x0 SWAP1 DUP2 MSTORE SWAP4 POP PUSH32 0x3AD8AA4F87544323A9D1E5DD902F40C356527A7955687113DB5F9A85AD579DC1 JUMPDEST DUP4 DUP6 LT PUSH2 0x20A9 JUMPI POP POP POP POP DUP2 ADD PUSH1 0x20 ADD PUSH2 0x1421 DUP3 PUSH2 0x142D PUSH2 0x1411 JUMP JUMPDEST DUP1 SLOAD DUP7 DUP7 ADD DUP5 ADD MSTORE SWAP4 DUP3 ADD SWAP4 DUP2 ADD PUSH2 0x208D JUMP JUMPDEST CALLVALUE PUSH2 0x2C4 JUMPI PUSH1 0x0 CALLDATASIZE PUSH1 0x3 NOT ADD SLT PUSH2 0x2C4 JUMPI PUSH1 0x20 SWAP1 PUSH1 0x11 SLOAD DUP2 MSTORE RETURN JUMPDEST PUSH1 0x4 CALLDATALOAD SWAP1 PUSH1 0x1 PUSH1 0x1 PUSH1 0xA0 SHL SUB DUP3 AND DUP3 SUB PUSH2 0x2C4 JUMPI JUMP JUMPDEST PUSH1 0x24 CALLDATALOAD SWAP1 PUSH1 0x1 PUSH1 0x1 PUSH1 0xA0 SHL SUB DUP3 AND DUP3 SUB PUSH2 0x2C4 JUMPI JUMP JUMPDEST PUSH1 0x20 DUP1 DUP3 MSTORE DUP3 MLOAD DUP2 DUP4 ADD DUP2 SWAP1 MSTORE SWAP1 SWAP4 SWAP3 PUSH1 0x0 JUMPDEST DUP3 DUP2 LT PUSH2 0x2138 JUMPI POP POP PUSH1 0x40 SWAP3 SWAP4 POP PUSH1 0x0 DUP4 DUP3 DUP5 ADD ADD MSTORE PUSH1 0x1F DUP1 NOT SWAP2 ADD AND ADD ADD SWAP1 JUMP JUMPDEST DUP2 DUP2 ADD DUP7 ADD MLOAD DUP5 DUP3 ADD PUSH1 0x40 ADD MSTORE DUP6 ADD PUSH2 0x2116 JUMP JUMPDEST PUSH1 0x15 SLOAD DUP2 LT ISZERO PUSH2 0x2187 JUMPI PUSH1 0x6 SWAP1 PUSH1 0x15 PUSH1 0x0 MSTORE MUL PUSH32 0x55F448FDEA98C4D29EB340757EF0A66CD03DBB9538908A6A81D96026B71EC475 ADD SWAP1 PUSH1 0x0 SWAP1 JUMP JUMPDEST PUSH4 0x4E487B71 PUSH1 0xE0 SHL PUSH1 0x0 MSTORE PUSH1 0x32 PUSH1 0x4 MSTORE PUSH1 0x24 PUSH1 0x0 REVERT JUMPDEST SWAP1 PUSH1 0x1 DUP3 DUP2 SHR SWAP3 AND DUP1 ISZERO PUSH2 0x21CD JUMPI JUMPDEST PUSH1 0x20 DUP4 LT EQ PUSH2 0x21B7 JUMPI JUMP JUMPDEST PUSH4 0x4E487B71 PUSH1 0xE0 SHL PUSH1 0x0 MSTORE PUSH1 0x22 PUSH1 0x4 MSTORE PUSH1 0x24 PUSH1 0x0 REVERT JUMPDEST SWAP2 PUSH1 0x7F AND SWAP2 PUSH2 0x21AC JUMP JUMPDEST SWAP1 PUSH1 0x1F DUP1 NOT SWAP2 ADD AND DUP2 ADD SWAP1 DUP2 LT PUSH8 0xFFFFFFFFFFFFFFFF DUP3 GT OR PUSH2 0xD95 JUMPI PUSH1 0x40 MSTORE JUMP JUMPDEST ISZERO PUSH2 0x2200 JUMPI JUMP JUMPDEST PUSH1 0x40 MLOAD PUSH3 0x461BCD PUSH1 0xE5 SHL DUP2 MSTORE PUSH1 0x20 PUSH1 0x4 DUP3 ADD MSTORE PUSH1 0xD PUSH1 0x24 DUP3 ADD MSTORE PUSH13 0x9AEAE6E840E6CADCC8408AA89 PUSH1 0x9B SHL PUSH1 0x44 DUP3 ADD MSTORE PUSH1 0x64 SWAP1 REVERT JUMPDEST ISZERO PUSH2 0x223C JUMPI JUMP JUMPDEST PUSH1 0x40 MLOAD PUSH3 0x461BCD PUSH1 0xE5 SHL DUP2 MSTORE PUSH1 0x20 PUSH1 0x4 DUP3 ADD MSTORE PUSH1 0x13 PUSH1 0x24 DUP3 ADD MSTORE PUSH19 0x4D7573742070726F7669646520746F6B656E73 PUSH1 0x68 SHL PUSH1 0x44 DUP3 ADD MSTORE PUSH1 0x64 SWAP1 REVERT JUMPDEST SWAP2 SWAP1 DUP3 SUB SWAP2 DUP3 GT PUSH2 0xE70 JUMPI JUMP JUMPDEST SWAP2 SWAP1 DUP3 ADD DUP1 SWAP3 GT PUSH2 0xE70 JUMPI JUMP JUMPDEST SWAP1 DUP2 PUSH1 0x60 SWAP2 SUB SLT PUSH2 0x2C4 JUMPI DUP1 MLOAD SWAP2 PUSH1 0x40 PUSH1 0x20 DUP4 ADD MLOAD SWAP3 ADD MLOAD SWAP1 JUMP JUMPDEST SWAP1 PUSH1 0xA0 SWAP3 SWAP6 SWAP5 SWAP4 PUSH1 0xC0 DUP4 ADD SWAP7 PUSH1 0x1 DUP1 DUP7 SHL SUB DUP1 SWAP4 AND DUP5 MSTORE PUSH1 0x20 DUP5 ADD MSTORE PUSH1 0x0 PUSH1 0x40 DUP5 ADD MSTORE PUSH1 0x0 PUSH1 0x60 DUP5 ADD MSTORE AND PUSH1 0x80 DUP3 ADD MSTORE ADD MSTORE JUMP JUMPDEST SWAP1 CALLDATALOAD SWAP1 PUSH1 0x1E NOT DUP2 CALLDATASIZE SUB ADD DUP3 SLT ISZERO PUSH2 0x2C4 JUMPI ADD DUP1 CALLDATALOAD SWAP1 PUSH8 0xFFFFFFFFFFFFFFFF DUP3 GT PUSH2 0x2C4 JUMPI PUSH1 0x20 ADD SWAP2 DUP2 CALLDATASIZE SUB DUP4 SGT PUSH2 0x2C4 JUMPI JUMP JUMPDEST CALLDATALOAD DUP1 ISZERO ISZERO DUP2 SUB PUSH2 0x2C4 JUMPI SWAP1 JUMP JUMPDEST DUP2 DUP2 MUL SWAP3 SWAP2 DUP2 ISZERO SWAP2 DUP5 DIV EQ OR ISZERO PUSH2 0xE70 JUMPI JUMP JUMPDEST SWAP1 CALLDATALOAD SWAP1 PUSH1 0x1E NOT DUP2 CALLDATASIZE SUB ADD DUP3 SLT ISZERO PUSH2 0x2C4 JUMPI ADD DUP1 CALLDATALOAD SWAP1 PUSH8 0xFFFFFFFFFFFFFFFF DUP3 GT PUSH2 0x2C4 JUMPI PUSH1 0x20 ADD SWAP2 PUSH1 0xC0 DUP3 MUL CALLDATASIZE SUB DUP4 SGT PUSH2 0x2C4 JUMPI JUMP JUMPDEST SWAP2 SWAP1 DUP2 LT ISZERO PUSH2 0x2187 JUMPI PUSH1 0xC0 MUL ADD SWAP1 JUMP JUMPDEST CALLDATALOAD PUSH1 0x1 PUSH1 0x1 PUSH1 0xA0 SHL SUB DUP2 AND DUP2 SUB PUSH2 0x2C4 JUMPI SWAP1 JUMP JUMPDEST PUSH1 0x1 PUSH1 0x1 PUSH1 0xA0 SHL SUB SWAP1 DUP2 AND SWAP2 DUP3 ISZERO PUSH2 0x243E JUMPI AND SWAP2 DUP3 ISZERO PUSH2 0x23EE JUMPI PUSH1 0x20 PUSH32 0x8C5BE1E5EBEC7D5BD14F71427D1E84F3DD0314C0F7B2291E5B200AC8C7C3B925 SWAP2 DUP4 PUSH1 0x0 MSTORE PUSH1 0x1 DUP3 MSTORE PUSH1 0x40 PUSH1 0x0 KECCAK256 DUP6 PUSH1 0x0 MSTORE DUP3 MSTORE DUP1 PUSH1 0x40 PUSH1 0x0 KECCAK256 SSTORE PUSH1 0x40 MLOAD SWAP1 DUP2 MSTORE LOG3 JUMP JUMPDEST PUSH1 0x40 MLOAD PUSH3 0x461BCD PUSH1 0xE5 SHL DUP2 MSTORE PUSH1 0x20 PUSH1 0x4 DUP3 ADD MSTORE PUSH1 0x22 PUSH1 0x24 DUP3 ADD MSTORE PUSH32 0x45524332303A20617070726F766520746F20746865207A65726F206164647265 PUSH1 0x44 DUP3 ADD MSTORE PUSH2 0x7373 PUSH1 0xF0 SHL PUSH1 0x64 DUP3 ADD MSTORE PUSH1 0x84 SWAP1 REVERT JUMPDEST PUSH1 0x40 MLOAD PUSH3 0x461BCD PUSH1 0xE5 SHL DUP2 MSTORE PUSH1 0x20 PUSH1 0x4 DUP3 ADD MSTORE PUSH1 0x24 DUP1 DUP3 ADD MSTORE PUSH32 0x45524332303A20617070726F76652066726F6D20746865207A65726F20616464 PUSH1 0x44 DUP3 ADD MSTORE PUSH4 0x72657373 PUSH1 0xE0 SHL PUSH1 0x64 DUP3 ADD MSTORE PUSH1 0x84 SWAP1 REVERT JUMPDEST PUSH1 0x5 SLOAD PUSH1 0x8 SHR PUSH1 0x1 PUSH1 0x1 PUSH1 0xA0 SHL SUB AND CALLER SUB PUSH2 0x24A6 JUMPI JUMP JUMPDEST PUSH1 0x64 PUSH1 0x40 MLOAD PUSH3 0x461BCD PUSH1 0xE5 SHL DUP2 MSTORE PUSH1 0x20 PUSH1 0x4 DUP3 ADD MSTORE PUSH1 0x20 PUSH1 0x24 DUP3 ADD MSTORE PUSH32 0x4F776E61626C653A2063616C6C6572206973206E6F7420746865206F776E6572 PUSH1 0x44 DUP3 ADD MSTORE REVERT JUMPDEST SWAP1 PUSH1 0x1 DUP1 PUSH1 0xA0 SHL SUB DUP1 DUP4 AND PUSH1 0x0 MSTORE PUSH1 0x1 PUSH1 0x20 MSTORE PUSH1 0x40 PUSH1 0x0 KECCAK256 SWAP1 DUP3 AND PUSH1 0x0 MSTORE PUSH1 0x20 MSTORE PUSH1 0x40 PUSH1 0x0 KECCAK256 SLOAD SWAP3 PUSH1 0x0 NOT DUP5 SUB PUSH2 0x2522 JUMPI JUMPDEST POP POP POP POP JUMP JUMPDEST DUP1 DUP5 LT PUSH2 0x253D JUMPI PUSH2 0x2534 SWAP4 SUB SWAP2 PUSH2 0x238D JUMP JUMPDEST CODESIZE DUP1 DUP1 DUP1 PUSH2 0x251C JUMP JUMPDEST PUSH1 0x40 MLOAD PUSH3 0x461BCD PUSH1 0xE5 SHL DUP2 MSTORE PUSH1 0x20 PUSH1 0x4 DUP3 ADD MSTORE PUSH1 0x1D PUSH1 0x24 DUP3 ADD MSTORE PUSH32 0x45524332303A20696E73756666696369656E7420616C6C6F77616E6365000000 PUSH1 0x44 DUP3 ADD MSTORE PUSH1 0x64 SWAP1 REVERT JUMPDEST PUSH1 0x1 PUSH1 0x1 PUSH1 0xA0 SHL SUB SWAP1 DUP2 AND SWAP2 DUP3 ISZERO PUSH2 0x2781 JUMPI AND SWAP2 DUP3 ISZERO PUSH2 0x2730 JUMPI PUSH1 0xFF PUSH1 0x5 SLOAD AND PUSH2 0xFC5 JUMPI PUSH1 0x8 SLOAD PUSH1 0xFF DUP2 AND PUSH2 0x26C1 JUMPI JUMPDEST PUSH1 0x8 SHR PUSH1 0xFF AND PUSH2 0x266D JUMPI JUMPDEST PUSH1 0x0 DUP3 DUP2 MSTORE DUP1 PUSH1 0x20 MSTORE PUSH1 0x40 DUP2 KECCAK256 SLOAD SWAP2 DUP1 DUP4 LT PUSH2 0x2619 JUMPI PUSH1 0x40 DUP3 DUP3 PUSH32 0xDDF252AD1BE2C89B69C2B068FC378DAA952BA7F163C4A11628F55A4DF523B3EF SWAP6 DUP8 PUSH1 0x20 SWAP7 MSTORE DUP3 DUP7 MSTORE SUB DUP3 DUP3 KECCAK256 SSTORE DUP7 DUP2 MSTORE KECCAK256 DUP2 DUP2 SLOAD ADD SWAP1 SSTORE PUSH1 0x40 MLOAD SWAP1 DUP2 MSTORE LOG3 JUMP JUMPDEST PUSH1 0x40 MLOAD PUSH3 0x461BCD PUSH1 0xE5 SHL DUP2 MSTORE PUSH1 0x20 PUSH1 0x4 DUP3 ADD MSTORE PUSH1 0x26 PUSH1 0x24 DUP3 ADD MSTORE PUSH32 0x45524332303A207472616E7366657220616D6F756E7420657863656564732062 PUSH1 0x44 DUP3 ADD MSTORE PUSH6 0x616C616E6365 PUSH1 0xD0 SHL PUSH1 0x64 DUP3 ADD MSTORE PUSH1 0x84 SWAP1 REVERT JUMPDEST DUP2 PUSH1 0x0 MSTORE PUSH1 0x1A PUSH1 0x20 MSTORE PUSH1 0x40 PUSH1 0x0 KECCAK256 SLOAD TIMESTAMP LT ISZERO PUSH2 0x25BD JUMPI PUSH1 0x40 MLOAD PUSH3 0x461BCD PUSH1 0xE5 SHL DUP2 MSTORE PUSH1 0x20 PUSH1 0x4 DUP3 ADD MSTORE PUSH1 0x16 PUSH1 0x24 DUP3 ADD MSTORE PUSH22 0x151BDAD95B9CC8185C99481D1A5B594B5B1BD8DAD959 PUSH1 0x52 SHL PUSH1 0x44 DUP3 ADD MSTORE PUSH1 0x64 SWAP1 REVERT JUMPDEST DUP3 PUSH1 0x0 MSTORE PUSH1 0x19 PUSH1 0x20 MSTORE PUSH1 0xFF PUSH1 0x40 PUSH1 0x0 KECCAK256 SLOAD AND ISZERO DUP1 PUSH2 0x271C JUMPI JUMPDEST PUSH2 0x25B2 JUMPI PUSH1 0x40 MLOAD PUSH3 0x461BCD PUSH1 0xE5 SHL DUP2 MSTORE PUSH1 0x20 PUSH1 0x4 DUP3 ADD MSTORE PUSH1 0x16 PUSH1 0x24 DUP3 ADD MSTORE PUSH22 0x1059191C995CDCC81A5CC8189B1858DADB1A5CDD1959 PUSH1 0x52 SHL PUSH1 0x44 DUP3 ADD MSTORE PUSH1 0x64 SWAP1 REVERT JUMPDEST POP DUP4 PUSH1 0x0 MSTORE PUSH1 0xFF PUSH1 0x40 PUSH1 0x0 KECCAK256 SLOAD AND ISZERO PUSH2 0x26DA JUMP JUMPDEST PUSH1 0x40 MLOAD PUSH3 0x461BCD PUSH1 0xE5 SHL DUP2 MSTORE PUSH1 0x20 PUSH1 0x4 DUP3 ADD MSTORE PUSH1 0x23 PUSH1 0x24 DUP3 ADD MSTORE PUSH32 0x45524332303A207472616E7366657220746F20746865207A65726F2061646472 PUSH1 0x44 DUP3 ADD MSTORE PUSH3 0x657373 PUSH1 0xE8 SHL PUSH1 0x64 DUP3 ADD MSTORE PUSH1 0x84 SWAP1 REVERT JUMPDEST PUSH1 0x40 MLOAD PUSH3 0x461BCD PUSH1 0xE5 SHL DUP2 MSTORE PUSH1 0x20 PUSH1 0x4 DUP3 ADD MSTORE PUSH1 0x25 PUSH1 0x24 DUP3 ADD MSTORE PUSH32 0x45524332303A207472616E736665722066726F6D20746865207A65726F206164 PUSH1 0x44 DUP3 ADD MSTORE PUSH5 0x6472657373 PUSH1 0xD8 SHL PUSH1 0x64 DUP3 ADD MSTORE PUSH1 0x84 SWAP1 REVERT JUMPDEST PUSH1 0x1 PUSH1 0x1 PUSH1 0xA0 SHL SUB AND DUP1 ISZERO PUSH2 0x2970 JUMPI PUSH1 0xFF PUSH1 0x5 SLOAD AND PUSH2 0xFC5 JUMPI PUSH1 0x8 SLOAD PUSH1 0xFF DUP2 AND PUSH2 0x2901 JUMPI JUMPDEST PUSH1 0x8 SHR PUSH1 0xFF AND PUSH2 0x28AD JUMPI JUMPDEST PUSH1 0x0 SWAP2 DUP2 DUP4 MSTORE DUP3 PUSH1 0x20 MSTORE PUSH1 0x40 DUP4 KECCAK256 SLOAD DUP2 DUP2 LT PUSH2 0x285D JUMPI DUP2 PUSH32 0xDDF252AD1BE2C89B69C2B068FC378DAA952BA7F163C4A11628F55A4DF523B3EF SWAP3 PUSH1 0x20 SWAP3 DUP6 DUP8 MSTORE DUP7 DUP5 MSTORE SUB PUSH1 0x40 DUP7 KECCAK256 SSTORE DUP1 PUSH1 0x2 SLOAD SUB PUSH1 0x2 SSTORE PUSH1 0x40 MLOAD SWAP1 DUP2 MSTORE LOG3 JUMP JUMPDEST PUSH1 0x40 MLOAD PUSH3 0x461BCD PUSH1 0xE5 SHL DUP2 MSTORE PUSH1 0x20 PUSH1 0x4 DUP3 ADD MSTORE PUSH1 0x22 PUSH1 0x24 DUP3 ADD MSTORE PUSH32 0x45524332303A206275726E20616D6F756E7420657863656564732062616C616E PUSH1 0x44 DUP3 ADD MSTORE PUSH2 0x6365 PUSH1 0xF0 SHL PUSH1 0x64 DUP3 ADD MSTORE PUSH1 0x84 SWAP1 REVERT JUMPDEST DUP1 PUSH1 0x0 MSTORE PUSH1 0x1A PUSH1 0x20 MSTORE PUSH1 0x40 PUSH1 0x0 KECCAK256 SLOAD TIMESTAMP LT ISZERO PUSH2 0x2804 JUMPI PUSH1 0x40 MLOAD PUSH3 0x461BCD PUSH1 0xE5 SHL DUP2 MSTORE PUSH1 0x20 PUSH1 0x4 DUP3 ADD MSTORE PUSH1 0x16 PUSH1 0x24 DUP3 ADD MSTORE PUSH22 0x151BDAD95B9CC8185C99481D1A5B594B5B1BD8DAD959 PUSH1 0x52 SHL PUSH1 0x44 DUP3 ADD MSTORE PUSH1 0x64 SWAP1 REVERT JUMPDEST DUP2 PUSH1 0x0 MSTORE PUSH1 0x19 PUSH1 0x20 MSTORE PUSH1 0xFF PUSH1 0x40 PUSH1 0x0 KECCAK256 SLOAD AND ISZERO DUP1 PUSH2 0x295C JUMPI JUMPDEST PUSH2 0x27F9 JUMPI PUSH1 0x40 MLOAD PUSH3 0x461BCD PUSH1 0xE5 SHL DUP2 MSTORE PUSH1 0x20 PUSH1 0x4 DUP3 ADD MSTORE PUSH1 0x16 PUSH1 0x24 DUP3 ADD MSTORE PUSH22 0x1059191C995CDCC81A5CC8189B1858DADB1A5CDD1959 PUSH1 0x52 SHL PUSH1 0x44 DUP3 ADD MSTORE PUSH1 0x64 SWAP1 REVERT JUMPDEST POP PUSH1 0x0 DUP1 MSTORE PUSH1 0xFF PUSH1 0x40 PUSH1 0x0 KECCAK256 SLOAD AND ISZERO PUSH2 0x291A JUMP JUMPDEST PUSH1 0x40 MLOAD PUSH3 0x461BCD PUSH1 0xE5 SHL DUP2 MSTORE PUSH1 0x20 PUSH1 0x4 DUP3 ADD MSTORE PUSH1 0x21 PUSH1 0x24 DUP3 ADD MSTORE PUSH32 0x45524332303A206275726E2066726F6D20746865207A65726F20616464726573 PUSH1 0x44 DUP3 ADD MSTORE PUSH1 0x73 PUSH1 0xF8 SHL PUSH1 0x64 DUP3 ADD MSTORE PUSH1 0x84 SWAP1 REVERT JUMPDEST PUSH1 0x5 DUP1 SLOAD PUSH2 0x100 PUSH1 0x1 PUSH1 0xA8 SHL SUB NOT DUP2 AND PUSH1 0x8 DUP5 DUP2 SHL PUSH2 0x100 PUSH1 0x1 PUSH1 0xA8 SHL SUB AND SWAP2 SWAP1 SWAP2 OR SWAP1 SWAP3 SSTORE PUSH1 0x1 PUSH1 0x1 PUSH1 0xA0 SHL SUB SWAP3 DUP4 AND SWAP3 SWAP2 SHR AND PUSH32 0x8BE0079C531659141344CD1FD0A4F28419497F9722A3DAAFE3B4186F6B6457E0 PUSH1 0x0 DUP1 LOG3 JUMP INVALID LOG2 PUSH5 0x6970667358 0x22 SLT KECCAK256 0xA9 JUMPDEST 0x4F DIV PUSH4 0x3ADE9F0D 0x23 PUSH10 0xCE176A1D1DFA18796655 PREVRANDAO SELFDESTRUCT DUP1 0xEF PUSH3 0x8DCF39 0xA9 0x2A 0xB4 PUSH5 0x736F6C6343 STOP ADDMOD AND STOP CALLER "},"gasEstimates":{"creation":{"codeDepositCost":"2166600","executionCost":"infinite","totalCost":"infinite"},"external":{"addLiquidity(uint256)":"infinite","addLiquidityFromContract(uint256)":"infinite","allowance(address,address)":"3591","approve(address,uint256)":"24412","balanceOf(address)":"2959","blacklistEnabled()":"3172","burn(uint256)":"61789","burnFrom(address,uint256)":"88594","claimVestedTokens()":"infinite","claimedAmount(address)":"2431","decimals()":"353","decreaseAllowance(address,uint256)":"27418","endTime()":"2478","getClaimedAmount(address)":"3135","getRemainingLiquidityAllocation()":"2918","getUnlockTime(address)":"5556","getVestedAmount(address)":"3377","getWalletAllocations()":"infinite","hardCap()":"3402","increaseAllowance(address,uint256)":"26958","initialize((string,string,uint256,uint256,address,bool,bool,uint256,uint256,uint256,uint256,uint256,uint256,uint256,uint256,uint256,uint256,(address,uint256,bool,uint256,uint256,uint256)[],uint256,bool))":"infinite","isBlacklisted(address)":"5730","liquidityAllocation()":"3116","liquidityLockDuration()":"2698","liquidityPercentage()":"2250","maxActivePresales()":"3138","maxContribution()":"2940","maxSupply()":"3248","minContribution()":"3094","name()":"infinite","owner()":"2995","pause()":"28216","paused()":"2754","presaleEnabled()":"2358","presalePercentage()":"3314","presaleRate()":"2654","remainingLiquidityAllocation()":"2786","renounceOwnership()":"28647","setBlacklist(address,bool)":"30400","setTimeLock(address,uint256)":"28644","softCap()":"3006","startTime()":"2852","symbol()":"infinite","timeLockEnabled()":"3222","totalSupply()":"2412","transfer(address,uint256)":"62411","transferFrom(address,address,uint256)":"88333","transferOwnership(address)":"29382","uniswapV2Pair()":"infinite","uniswapV2Router()":"infinite","unpause()":"27902","vestedAmount(address)":"2695","vestingStartTime(address)":"3509","walletAllocations(uint256)":"17592"},"internal":{"_beforeTokenTransfer(address,address,uint256)":"infinite","addLiquidity(uint256,uint256)":"infinite"}},"methodIdentifiers":{"addLiquidity(uint256)":"51c6590a","addLiquidityFromContract(uint256)":"37ed2be6","allowance(address,address)":"dd62ed3e","approve(address,uint256)":"095ea7b3","balanceOf(address)":"70a08231","blacklistEnabled()":"bffb691d","burn(uint256)":"42966c68","burnFrom(address,uint256)":"79cc6790","claimVestedTokens()":"e74f3fbb","claimedAmount(address)":"04e86903","decimals()":"313ce567","decreaseAllowance(address,uint256)":"a457c2d7","endTime()":"3197cbb6","getClaimedAmount(address)":"8df40be8","getRemainingLiquidityAllocation()":"8bb1cde9","getUnlockTime(address)":"dbed1e88","getVestedAmount(address)":"d5a73fdd","getWalletAllocations()":"32b47fac","hardCap()":"fb86a404","increaseAllowance(address,uint256)":"39509351","initialize((string,string,uint256,uint256,address,bool,bool,uint256,uint256,uint256,uint256,uint256,uint256,uint256,uint256,uint256,uint256,(address,uint256,bool,uint256,uint256,uint256)[],uint256,bool))":"c64b2f8c","isBlacklisted(address)":"fe575a87","liquidityAllocation()":"abd653d7","liquidityLockDuration()":"4ae01d52","liquidityPercentage()":"048b87ba","maxActivePresales()":"b8caa4aa","maxContribution()":"8d3d6576","maxSupply()":"d5abeb01","minContribution()":"aaffadf3","name()":"06fdde03","owner()":"8da5cb5b","pause()":"8456cb59","paused()":"5c975abb","presaleEnabled()":"143b237f","presalePercentage()":"de8af791","presaleRate()":"42f39381","remainingLiquidityAllocation()":"6e1d1e57","renounceOwnership()":"715018a6","setBlacklist(address,bool)":"153b0d1e","setTimeLock(address,uint256)":"644fab74","softCap()":"906a26e0","startTime()":"78e97925","symbol()":"95d89b41","timeLockEnabled()":"cba4cbd3","totalSupply()":"18160ddd","transfer(address,uint256)":"a9059cbb","transferFrom(address,address,uint256)":"23b872dd","transferOwnership(address)":"f2fde38b","uniswapV2Pair()":"49bd5a5e","uniswapV2Router()":"1694505e","unpause()":"3f4ba83a","vestedAmount(address)":"384711cc","vestingStartTime(address)":"ea63fb26","walletAllocations(uint256)":"3fd50eb8"}},"storageLayout":{"storage":[{"astId":301,"contract":"src/contracts/TokenTemplate_v3.sol:TokenTemplate_v3","label":"_balances","offset":0,"slot":"0","type":"t_mapping(t_address,t_uint256)"},{"astId":307,"contract":"src/contracts/TokenTemplate_v3.sol:TokenTemplate_v3","label":"_allowances","offset":0,"slot":"1","type":"t_mapping(t_address,t_mapping(t_address,t_uint256))"},{"astId":309,"contract":"src/contracts/TokenTemplate_v3.sol:TokenTemplate_v3","label":"_totalSupply","offset":0,"slot":"2","type":"t_uint256"},{"astId":311,"contract":"src/contracts/TokenTemplate_v3.sol:TokenTemplate_v3","label":"_name","offset":0,"slot":"3","type":"t_string_storage"},{"astId":313,"contract":"src/contracts/TokenTemplate_v3.sol:TokenTemplate_v3","label":"_symbol","offset":0,"slot":"4","type":"t_string_storage"},{"astId":130,"contract":"src/contracts/TokenTemplate_v3.sol:TokenTemplate_v3","label":"_paused","offset":0,"slot":"5","type":"t_bool"},{"astId":7,"contract":"src/contracts/TokenTemplate_v3.sol:TokenTemplate_v3","label":"_owner","offset":1,"slot":"5","type":"t_address"},{"astId":231,"contract":"src/contracts/TokenTemplate_v3.sol:TokenTemplate_v3","label":"_status","offset":0,"slot":"6","type":"t_uint256"},{"astId":2039,"contract":"src/contracts/TokenTemplate_v3.sol:TokenTemplate_v3","label":"maxSupply","offset":0,"slot":"7","type":"t_uint256"},{"astId":2041,"contract":"src/contracts/TokenTemplate_v3.sol:TokenTemplate_v3","label":"blacklistEnabled","offset":0,"slot":"8","type":"t_bool"},{"astId":2043,"contract":"src/contracts/TokenTemplate_v3.sol:TokenTemplate_v3","label":"timeLockEnabled","offset":1,"slot":"8","type":"t_bool"},{"astId":2045,"contract":"src/contracts/TokenTemplate_v3.sol:TokenTemplate_v3","label":"presaleRate","offset":0,"slot":"9","type":"t_uint256"},{"astId":2047,"contract":"src/contracts/TokenTemplate_v3.sol:TokenTemplate_v3","label":"softCap","offset":0,"slot":"10","type":"t_uint256"},{"astId":2049,"contract":"src/contracts/TokenTemplate_v3.sol:TokenTemplate_v3","label":"hardCap","offset":0,"slot":"11","type":"t_uint256"},{"astId":2051,"contract":"src/contracts/TokenTemplate_v3.sol:TokenTemplate_v3","label":"minContribution","offset":0,"slot":"12","type":"t_uint256"},{"astId":2053,"contract":"src/contracts/TokenTemplate_v3.sol:TokenTemplate_v3","label":"maxContribution","offset":0,"slot":"13","type":"t_uint256"},{"astId":2055,"contract":"src/contracts/TokenTemplate_v3.sol:TokenTemplate_v3","label":"startTime","offset":0,"slot":"14","type":"t_uint256"},{"astId":2057,"contract":"src/contracts/TokenTemplate_v3.sol:TokenTemplate_v3","label":"endTime","offset":0,"slot":"15","type":"t_uint256"},{"astId":2059,"contract":"src/contracts/TokenTemplate_v3.sol:TokenTemplate_v3","label":"presalePercentage","offset":0,"slot":"16","type":"t_uint256"},{"astId":2061,"contract":"src/contracts/TokenTemplate_v3.sol:TokenTemplate_v3","label":"liquidityPercentage","offset":0,"slot":"17","type":"t_uint256"},{"astId":2063,"contract":"src/contracts/TokenTemplate_v3.sol:TokenTemplate_v3","label":"liquidityLockDuration","offset":0,"slot":"18","type":"t_uint256"},{"astId":2065,"contract":"src/contracts/TokenTemplate_v3.sol:TokenTemplate_v3","label":"maxActivePresales","offset":0,"slot":"19","type":"t_uint256"},{"astId":2067,"contract":"src/contracts/TokenTemplate_v3.sol:TokenTemplate_v3","label":"presaleEnabled","offset":0,"slot":"20","type":"t_bool"},{"astId":2127,"contract":"src/contracts/TokenTemplate_v3.sol:TokenTemplate_v3","label":"walletAllocations","offset":0,"slot":"21","type":"t_array(t_struct(WalletAllocation)2080_storage)dyn_storage"},{"astId":2131,"contract":"src/contracts/TokenTemplate_v3.sol:TokenTemplate_v3","label":"vestedAmount","offset":0,"slot":"22","type":"t_mapping(t_address,t_uint256)"},{"astId":2135,"contract":"src/contracts/TokenTemplate_v3.sol:TokenTemplate_v3","label":"claimedAmount","offset":0,"slot":"23","type":"t_mapping(t_address,t_uint256)"},{"astId":2139,"contract":"src/contracts/TokenTemplate_v3.sol:TokenTemplate_v3","label":"vestingStartTime","offset":0,"slot":"24","type":"t_mapping(t_address,t_uint256)"},{"astId":2143,"contract":"src/contracts/TokenTemplate_v3.sol:TokenTemplate_v3","label":"_blacklist","offset":0,"slot":"25","type":"t_mapping(t_address,t_bool)"},{"astId":2147,"contract":"src/contracts/TokenTemplate_v3.sol:TokenTemplate_v3","label":"_lockTime","offset":0,"slot":"26","type":"t_mapping(t_address,t_uint256)"},{"astId":2194,"contract":"src/contracts/TokenTemplate_v3.sol:TokenTemplate_v3","label":"tokenName","offset":0,"slot":"27","type":"t_string_storage"},{"astId":2196,"contract":"src/contracts/TokenTemplate_v3.sol:TokenTemplate_v3","label":"tokenSymbol","offset":0,"slot":"28","type":"t_string_storage"},{"astId":2198,"contract":"src/contracts/TokenTemplate_v3.sol:TokenTemplate_v3","label":"liquidityAllocation","offset":0,"slot":"29","type":"t_uint256"},{"astId":2200,"contract":"src/contracts/TokenTemplate_v3.sol:TokenTemplate_v3","label":"remainingLiquidityAllocation","offset":0,"slot":"30","type":"t_uint256"}],"types":{"t_address":{"encoding":"inplace","label":"address","numberOfBytes":"20"},"t_array(t_struct(WalletAllocation)2080_storage)dyn_storage":{"base":"t_struct(WalletAllocation)2080_storage","encoding":"dynamic_array","label":"struct TokenTemplate_v3.WalletAllocation[]","numberOfBytes":"32"},"t_bool":{"encoding":"inplace","label":"bool","numberOfBytes":"1"},"t_mapping(t_address,t_bool)":{"encoding":"mapping","key":"t_address","label":"mapping(address => bool)","numberOfBytes":"32","value":"t_bool"},"t_mapping(t_address,t_mapping(t_address,t_uint256))":{"encoding":"mapping","key":"t_address","label":"mapping(address => mapping(address => uint256))","numberOfBytes":"32","value":"t_mapping(t_address,t_uint256)"},"t_mapping(t_address,t_uint256)":{"encoding":"mapping","key":"t_address","label":"mapping(address => uint256)","numberOfBytes":"32","value":"t_uint256"},"t_string_storage":{"encoding":"bytes","label":"string","numberOfBytes":"32"},"t_struct(WalletAllocation)2080_storage":{"encoding":"inplace","label":"struct TokenTemplate_v3.WalletAllocation","members":[{"astId":2069,"contract":"src/contracts/TokenTemplate_v3.sol:TokenTemplate_v3","label":"wallet","offset":0,"slot":"0","type":"t_address"},{"astId":2071,"contract":"src/contracts/TokenTemplate_v3.sol:TokenTemplate_v3","label":"percentage","offset":0,"slot":"1","type":"t_uint256"},{"astId":2073,"contract":"src/contracts/TokenTemplate_v3.sol:TokenTemplate_v3","label":"vestingEnabled","offset":0,"slot":"2","type":"t_bool"},{"astId":2075,"contract":"src/contracts/TokenTemplate_v3.sol:TokenTemplate_v3","label":"vestingDuration","offset":0,"slot":"3","type":"t_uint256"},{"astId":2077,"contract":"src/contracts/TokenTemplate_v3.sol:TokenTemplate_v3","label":"cliffDuration","offset":0,"slot":"4","type":"t_uint256"},{"astId":2079,"contract":"src/contracts/TokenTemplate_v3.sol:TokenTemplate_v3","label":"vestingStartTime","offset":0,"slot":"5","type":"t_uint256"}],"numberOfBytes":"192"},"t_uint256":{"encoding":"inplace","label":"uint256","numberOfBytes":"32"}}},"userdoc":{"kind":"user","methods":{},"version":1}}}}