{"src/contracts/TokenFactory_v2.1.0.sol":{"TokenFactory_v2_1_0":{"abi":[{"inputs":[{"internalType":"address","name":"_implementation","type":"address"}],"stateMutability":"nonpayable","type":"constructor"},{"anonymous":false,"inputs":[{"indexed":false,"internalType":"address","name":"previousAdmin","type":"address"},{"indexed":false,"internalType":"address","name":"newAdmin","type":"address"}],"name":"AdminChanged","type":"event"},{"anonymous":false,"inputs":[{"indexed":true,"internalType":"address","name":"beacon","type":"address"}],"name":"BeaconUpgraded","type":"event"},{"anonymous":false,"inputs":[{"indexed":true,"internalType":"address","name":"user","type":"address"},{"indexed":false,"internalType":"uint256","name":"fee","type":"uint256"}],"name":"CustomDeploymentFeeSet","type":"event"},{"anonymous":false,"inputs":[{"indexed":false,"internalType":"uint256","name":"newFee","type":"uint256"}],"name":"DeploymentFeeUpdated","type":"event"},{"anonymous":false,"inputs":[{"indexed":false,"internalType":"uint8","name":"version","type":"uint8"}],"name":"Initialized","type":"event"},{"anonymous":false,"inputs":[{"indexed":true,"internalType":"address","name":"previousOwner","type":"address"},{"indexed":true,"internalType":"address","name":"newOwner","type":"address"}],"name":"OwnershipTransferred","type":"event"},{"anonymous":false,"inputs":[{"indexed":false,"internalType":"address","name":"token","type":"address"},{"indexed":false,"internalType":"string","name":"name","type":"string"},{"indexed":false,"internalType":"string","name":"symbol","type":"string"},{"indexed":false,"internalType":"address","name":"owner","type":"address"},{"indexed":false,"internalType":"uint256","name":"startTime","type":"uint256"},{"indexed":false,"internalType":"uint256","name":"endTime","type":"uint256"}],"name":"TokenCreated","type":"event"},{"anonymous":false,"inputs":[{"indexed":true,"internalType":"address","name":"implementation","type":"address"}],"name":"Upgraded","type":"event"},{"inputs":[],"name":"VERSION","outputs":[{"internalType":"string","name":"","type":"string"}],"stateMutability":"view","type":"function"},{"inputs":[{"internalType":"string","name":"name","type":"string"},{"internalType":"string","name":"symbol","type":"string"},{"internalType":"uint256","name":"initialSupply","type":"uint256"},{"internalType":"uint256","name":"maxSupply","type":"uint256"},{"internalType":"bool","name":"enableBlacklist","type":"bool"},{"internalType":"bool","name":"enableTimeLock","type":"bool"},{"internalType":"uint256","name":"presaleRate","type":"uint256"},{"internalType":"uint256","name":"minContribution","type":"uint256"},{"internalType":"uint256","name":"maxContribution","type":"uint256"},{"internalType":"uint256","name":"presaleCap","type":"uint256"},{"internalType":"uint256","name":"startTime","type":"uint256"},{"internalType":"uint256","name":"endTime","type":"uint256"}],"name":"createToken","outputs":[{"internalType":"address","name":"","type":"address"}],"stateMutability":"payable","type":"function"},{"inputs":[{"internalType":"address","name":"","type":"address"}],"name":"customDeploymentFees","outputs":[{"internalType":"uint256","name":"","type":"uint256"}],"stateMutability":"view","type":"function"},{"inputs":[{"internalType":"uint256","name":"","type":"uint256"}],"name":"deployedTokens","outputs":[{"internalType":"address","name":"","type":"address"}],"stateMutability":"view","type":"function"},{"inputs":[],"name":"deploymentFee","outputs":[{"internalType":"uint256","name":"","type":"uint256"}],"stateMutability":"view","type":"function"},{"inputs":[],"name":"getDeployedTokens","outputs":[{"internalType":"address[]","name":"","type":"address[]"}],"stateMutability":"view","type":"function"},{"inputs":[{"internalType":"address","name":"_user","type":"address"}],"name":"getDeploymentFee","outputs":[{"internalType":"uint256","name":"","type":"uint256"}],"stateMutability":"view","type":"function"},{"inputs":[],"name":"getTemplateImplementation","outputs":[{"internalType":"address","name":"","type":"address"}],"stateMutability":"view","type":"function"},{"inputs":[{"internalType":"uint256","name":"_deploymentFee","type":"uint256"}],"name":"initialize","outputs":[],"stateMutability":"nonpayable","type":"function"},{"inputs":[],"name":"owner","outputs":[{"internalType":"address","name":"","type":"address"}],"stateMutability":"view","type":"function"},{"inputs":[],"name":"proxiableUUID","outputs":[{"internalType":"bytes32","name":"","type":"bytes32"}],"stateMutability":"view","type":"function"},{"inputs":[],"name":"renounceOwnership","outputs":[],"stateMutability":"nonpayable","type":"function"},{"inputs":[{"internalType":"address","name":"_user","type":"address"},{"internalType":"uint256","name":"_fee","type":"uint256"}],"name":"setCustomDeploymentFee","outputs":[],"stateMutability":"nonpayable","type":"function"},{"inputs":[{"internalType":"uint256","name":"_fee","type":"uint256"}],"name":"setDeploymentFee","outputs":[],"stateMutability":"nonpayable","type":"function"},{"inputs":[],"name":"tokenImplementation","outputs":[{"internalType":"contract TokenTemplate_v2_1_0","name":"","type":"address"}],"stateMutability":"view","type":"function"},{"inputs":[{"internalType":"address","name":"newOwner","type":"address"}],"name":"transferOwnership","outputs":[],"stateMutability":"nonpayable","type":"function"},{"inputs":[{"internalType":"address","name":"newImplementation","type":"address"}],"name":"upgradeTo","outputs":[],"stateMutability":"nonpayable","type":"function"},{"inputs":[{"internalType":"address","name":"newImplementation","type":"address"},{"internalType":"bytes","name":"data","type":"bytes"}],"name":"upgradeToAndCall","outputs":[],"stateMutability":"payable","type":"function"},{"inputs":[],"name":"withdrawFees","outputs":[],"stateMutability":"nonpayable","type":"function"}],"evm":{"bytecode":{"linkReferences":{},"object":"60c06040523462000057576200001e62000018620000fb565b6200014a565b604051612518620001798239608051818181610b100152610d54015260a0518181816102b4015281816109750152611247015261251890f35b600080fd5b634e487b7160e01b600052604160045260246000fd5b90601f01601f191681019081106001600160401b038211176200009457604052565b6200005c565b90620000b1620000a960405190565b928362000072565b565b6001600160a01b031690565b90565b620000cd81620000b3565b036200005757565b90505190620000b182620000c2565b906020828203126200005757620000bf91620000d5565b620000bf620026918038038062000112816200009a565b928339810190620000e4565b620000bf90620000b3906001600160a01b031682565b620000bf906200011e565b620000bf9062000134565b6200015f906200015962000164565b6200013f565b60a052565b620000b162000173306200013f565b60805256fe608060405260043610156200001357600080fd5b60003560e01c80630d1ded8914620001685780631652da4214620001625780632f3a3d5d146200015c5780633659cfe61462000156578063476343ee14620001505780634f1ef286146200014a57806352d1902d1462000144578063622ae7aa146200013e578063715018a6146200013857806376b2de0114620001325780638da5cb5b146200012c578063c05ddda81462000126578063cbf1208f1462000120578063d002462b146200011a578063ec81aadb1462000114578063f2cff57f146200010e578063f2fde38b1462000108578063fe4b84df14620001025763ffa1ad74036200016e5762000941565b62000863565b62000846565b62000825565b620007f6565b62000759565b62000724565b620006e3565b62000676565b6200064b565b6200050e565b620004e0565b62000442565b6200042a565b620002fc565b620002da565b62000297565b6200021c565b620001b1565b600080fd5b60009103126200016e57565b6001600160a01b031690565b90565b62000199906200017f565b9052565b602081019291620001af91906200018e565b565b346200016e57620001c436600462000173565b620001df620001d26200096f565b604051918291826200019d565b0390f35b620001ee816200017f565b036200016e57565b90503590620001af82620001e3565b906020828203126200016e576200018b91620001f6565b346200016e57620001df6200023d6200023736600462000205565b620009be565b6040515b9182918290815260200190565b6200018b906200017f906001600160a01b031682565b6200018b906200024e565b6200018b9062000264565b62000199906200026f565b602081019291620001af91906200027a565b346200016e57620002aa36600462000173565b60405180620001df7f00000000000000000000000000000000000000000000000000000000000000008262000285565b346200016e57620002f7620002f136600462000205565b62000bd0565b604051005b346200016e576200030f36600462000173565b620002f762000c84565b634e487b7160e01b600052604160045260246000fd5b90601f01601f191681019081106001600160401b038211176200035157604052565b62000319565b90620001af6200036660405190565b92836200032f565b6001600160401b0381116200035157602090601f01601f19160190565b0190565b90826000939282370152565b90929192620003b4620003ae826200036e565b62000357565b93818552818301116200016e57620001af9160208501906200038f565b9080601f830112156200016e578160206200018b933591016200039b565b9190916040818403126200016e57620004098382620001f6565b9260208201356001600160401b0381116200016e576200018b9201620003d1565b620002f76200043b366004620003ef565b9062000cbc565b346200016e576200045536600462000173565b620001df6200023d62000dbc565b906200038b816020936200018e565b90620004956200048e62000484845190565b8084529260200190565b9260200190565b9060005b818110620004a75750505090565b909192620004c4620004bd600192865162000463565b9460200190565b92910162000499565b60208082526200018b9291019062000472565b346200016e57620004f336600462000173565b620001df6200050162000e7b565b60405191829182620004cd565b346200016e576200052136600462000173565b620002f762000ecc565b80620001ee565b90503590620001af826200052b565b801515620001ee565b90503590620001af8262000541565b9091610180828403126200016e5781356001600160401b0381116200016e578362000586918401620003d1565b9260208301356001600160401b0381116200016e5781620005a9918501620003d1565b92620005b9826040830162000532565b92620005c9836060840162000532565b92620005d981608085016200054a565b92620005e98260a083016200054a565b92620005f98360c0840162000532565b92620006098160e0850162000532565b926200061a82610100830162000532565b926200018b6200062f84610120850162000532565b936101606200064382610140870162000532565b940162000532565b620001df620001d26200066036600462000559565b9a99909998919897929796939695949562001306565b346200016e576200068936600462000173565b620001df620001d26200131e565b90620006a3906200026f565b600052602052604060002090565b6200018b916008021c81565b906200018b9154620006b1565b6000620006dd6200018b9260fc62000697565b620006bd565b346200016e57620001df6200023d620006fe36600462000205565b620006ca565b91906040838203126200016e576200018b906020620006438286620001f6565b346200016e57620002f76200073b36600462000704565b90620013bf565b906020828203126200016e576200018b9162000532565b346200016e57620002f76200077036600462000742565b62001401565b634e487b7160e01b600052603260045260246000fd5b8054821015620007b157620007a8600191600052602060002090565b91020190600090565b62000776565b6200018b916008021c6200017f565b906200018b9154620007b7565b60fd548110156200016e57620007ef6200018b9160fd6200078c565b90620007c6565b346200016e57620001df620001d26200081136600462000742565b620007d3565b6200018b600060fb620006bd565b346200016e576200083836600462000173565b620001df6200023d62000817565b346200016e57620002f76200085d36600462000205565b620014af565b346200016e57620002f76200087a36600462000742565b6200174e565b9062000890620003ae836200036e565b918252565b620008a1600562000880565b640322e312e360dc1b602082015290565b6200018b62000895565b6200018b620008b2565b6200018b620008bc565b60005b838110620008e45750506000910152565b8181015183820152602001620008d3565b6200091a620009246020936200038b936200090e815190565b80835293849260200190565b95869101620008d0565b601f01601f191690565b60208082526200018b92910190620008f5565b346200016e576200095436600462000173565b620001df62000962620008c6565b604051918291826200092e565b6200018b7f00000000000000000000000000000000000000000000000000000000000000006200026f565b6200018b9081565b6200018b90546200099a565b6200018b6200018b6200018b9290565b620009d5620009cf8260fc62000697565b620009a2565b90620009e26000620009ae565b821190811562000a00575b506200018b57506200018b60fb620009a2565b905062000a0e6000620009ae565b8214908162000a20575b5038620009ed565b62000a339150620009cf9060fc62000697565b62000a4762000a436000620009ae565b9190565b14153862000a18565b1562000a5857565b60405162461bcd60e51b815260206004820152602c6024820152600080516020620024c383398151915260448201526b19195b1959d85d1958d85b1b60a21b6064820152608490fd5b0390fd5b1562000aad57565b60405162461bcd60e51b815260206004820152602c6024820152600080516020620024c383398151915260448201526b6163746976652070726f787960a01b6064820152608490fd5b620001af9062000b6e62000b0a306200026f565b62000b4e7f00000000000000000000000000000000000000000000000000000000000000009162000b4662000b3f846200017f565b916200017f565b141562000a50565b62000b6762000b3f62000b6062001759565b926200017f565b1462000aa5565b62000ba2565b369037565b90620001af62000b9462000b8d8462000880565b936200036e565b601f19016020840162000b74565b6000620001af9162000bb4816200177f565b62000bc962000bc383620009ae565b62000b79565b906200183a565b620001af9062000af6565b62000be5620019b8565b620001af62000c50565b3d1562000c0c5762000c013d62000880565b903d6000602084013e565b606090565b1562000c1957565b60405162461bcd60e51b815260206004820152600f60248201526e151c985b9cd9995c8819985a5b1959608a1b6044820152606490fd5b620001af60008062000c62306200026f565b3162000c6d60405190565b600091335af162000c7d62000bef565b5062000c11565b620001af62000bdb565b90620001af9162000ca362000b0a306200026f565b620001af9160019162000cb6816200177f565b6200183a565b90620001af9162000c8e565b1562000cd057565b60405162461bcd60e51b815260206004820152603860248201527f555550535570677261646561626c653a206d757374206e6f742062652063616c6044820152771b1959081d1a1c9bdd59da0819195b1959d85d1958d85b1b60421b6064820152608490fd5b6200018b9062000d8062000d4a306200026f565b62000d7962000b3f7f00000000000000000000000000000000000000000000000000000000000000006200017f565b1462000cc8565b62000db1565b6200018b7f360894a13ba1a3210667c828492db98dca3e2076cc3735a920a3ca505d382bbc620009ae565b506200018b62000d86565b6200018b600062000d36565b6200018b906200017f565b6200018b905462000dc8565b9062000dfd62000df162000484845490565b92600052602060002090565b9060005b81811062000e0f5750505090565b90919262000e3562000e2e60019262000e288762000dd3565b62000463565b9460010190565b92910162000e01565b906200018b9162000ddf565b90620001af62000e689262000e5e60405190565b9384809262000e3e565b03836200032f565b6200018b9062000e4a565b6200018b60fd62000e70565b62000e91620019b8565b620001af62000eb6565b6200017f6200018b6200018b9290565b6200018b9062000e9b565b620001af62000ec6600062000eab565b62001a08565b620001af62000e87565b9062000ef79c9b9a99989796959493929162000ef162001abb565b6200116c565b90620001af62001af7565b1562000f0a57565b60405162461bcd60e51b815260206004820152601b60248201527a496e73756666696369656e74206465706c6f796d656e742066656560281b6044820152606490fd5b6200018b6101a062000357565b9062000199906200017f565b906200018b906101808062000fa362000f906101a0850160008801518682036000880152620008f5565b60208701518582036020870152620008f5565b9462000fb460408201516040860152565b62000fc460608201516060860152565b62000fd8608082015160808601906200018e565b60a08181015115159085015260c0818101511515908501526200100060e082015160e0860152565b62001012610100820151610100860152565b62001024610120820151610120860152565b62001036610140820151610140860152565b62001048610160820151610160860152565b0151910152565b60208082526200018b9291019062000f66565b916200018b926200107c604082019360008301906200018e565b6020818403910152620008f5565b6040513d6000823e3d90fd5b916001600160a01b0360089290920291821b911b5b9181191691161790565b9190620010ca6200018b620010d3936200026f565b90835462001096565b9055565b80549190600160401b831015620003515782620010fe916001620001af950181556200078c565b90620010b5565b9194620011616200115560a095620011466200116895620001af9a9c9b999c6200113860c08a019260008b01906200018e565b88820360208a0152620008f5565b908682036040880152620008f5565b9860608501906200018e565b6080830152565b0152565b9b9a9b99969390999895929794919850336200118890620009be565b341015620011969062000f02565b620011a062000f4d565b8a815297602089018a9052620011b79060408a0152565b6060880152620011cb336080890162000f5a565b151560a0870152151560c086015260e0850152610100840152610120830152610140820152620011fd85610160830152565b6200120a84610180830152565b604051630dbc8d2b60e21b60208201529081906200122c90602483016200104f565b6020820181038252036200124190826200032f565b6200126c7f00000000000000000000000000000000000000000000000000000000000000006200026f565b604051916105e98301906001600160401b03821184831017620003515783926200129f926105e962001eba863962001062565b03906000f0801562001300577f42bbfbb52e42e649ec7c181638a6969b047f19faae102187a8957860d5284b7a93620012dc620012fa926200026f565b95620012ea8760fd620010d7565b6040519485943391898762001105565b0390a190565b6200108a565b6200018b9b9a99989796959493929190600062000ed6565b6200018b603362000dd3565b90620001af916200133a620019b8565b62001367565b9060001990620010ab565b906200135f6200018b620010d392620009ae565b825462001340565b620013ba620013af7f035250ff587e06567c2fa9d4b3191805958a937530b0e88cfce4c9c4dcdef1b392620013a985620013a38360fc62000697565b6200134b565b6200026f565b926200024160405190565b0390a2565b90620001af916200132a565b620001af90620013da620019b8565b620013fc600080516020620024a3833981519152916200023d8160fb6200134b565b0390a1565b620001af90620013cb565b620001af906200141b620019b8565b6200147d565b156200142957565b60405162461bcd60e51b815260206004820152602660248201527f4f776e61626c653a206e6577206f776e657220697320746865207a65726f206160448201526564647265737360d01b6064820152608490fd5b620001af9062000ec66200149c62001496600062000eab565b6200017f565b620014a7836200017f565b141562001421565b620001af906200140c565b6200018b9060081c5b60ff1690565b6200018b9054620014ba565b6200018b90620014c3565b6200018b9054620014d5565b620014c36200018b6200018b9290565b156200150457565b60405162461bcd60e51b815260206004820152602e60248201527f496e697469616c697a61626c653a20636f6e747261637420697320616c72656160448201526d191e481a5b9a5d1a585b1a5e995960921b6064820152608490fd5b9060ff90620010ab565b620014c36200018b6200018b9260ff1690565b90620015916200018b620010d3926200156a565b825462001560565b9061ff009060081b620010ab565b90620015ba6200018b620010d392151590565b825462001599565b6200019990620014ec565b602081019291620001af9190620015c2565b62001637620015f7620015f36000620014c9565b1590565b918280620016ea575b801562001698575b6200161390620014fc565b826200162c620016246001620014ec565b60006200157d565b62001684576200170e565b6200163e57565b6200164b600080620015a7565b7f7f26b83ff96e1f2b6a682f133852f6798a09c465da95921460cefb38474024986200167660405190565b80620013fc600182620015cd565b6200169260016000620015a7565b6200170e565b50620016b2620015f3620016ac306200026f565b62001b05565b801562001608575062001613620016ca6000620014e0565b620016e1620016da6001620014ec565b9160ff1690565b14905062001608565b50620016f76000620014e0565b62001707620016da6001620014ec565b1062001600565b620013fc600080516020620024a3833981519152916200172d62001b9f565b6200173762001bb9565b6200174162001be1565b6200023d8160fb6200134b565b620001af90620015df565b6200018b60006200176d6200018b62000d86565b0162000dd3565b50620001af620019b8565b620001af9062001774565b6200018b7f4910fdfa16fed3260ed0e7147f7cc6da11a60208b5b9406d12a635614ffd9143620009ae565b90505190620001af826200052b565b906020828203126200016e576200018b91620017b5565b15620017e357565b60405162461bcd60e51b815260206004820152602960248201527f45524331393637557067726164653a20756e737570706f727465642070726f786044820152681a58589b195555525160ba1b6064820152608490fd5b9190620018576000620018506200018b6200178a565b01620014e0565b156200186a575050620001af9062001c97565b62001879620013a9846200026f565b9260206200188660405190565b6352d1902d60e01b815294859060049082905afa600094816200192e575b50620019065760405162461bcd60e51b815260206004820152602e60248201527f45524331393637557067726164653a206e657720696d706c656d656e7461746960448201526d6f6e206973206e6f74205555505360901b6064820152608490fd5b62001928620001af946200192162000a436200018b62000d86565b14620017db565b62001beb565b6200195691955060203d6020116200195e575b6200194d81836200032f565b810190620017c4565b9338620018a4565b503d62001941565b156200196e57565b60405162461bcd60e51b81528062000aa1600482016020808252818101527f4f776e61626c653a2063616c6c6572206973206e6f7420746865206f776e6572604082015260600190565b620001af620019c66200131e565b620019d562000b3f336200017f565b1462001966565b906001600160a01b0390620010ab565b9062001a006200018b620010d3926200026f565b8254620019dc565b62001a3062001a2962001a1c603362000dd3565b620013a9846033620019ec565b916200026f565b907f8be0079c531659141344cd1fd0a4f28419497f9722a3daafe3b4186f6b6457e062001a5c60405190565b600090a3565b6200018b6002620009ae565b1562001a7657565b60405162461bcd60e51b815260206004820152601f60248201527f5265656e7472616e637947756172643a207265656e7472616e742063616c6c006044820152606490fd5b620001af62001acb60c9620009a2565b62001ae362001ad962001a62565b9182141562001a6e565b60c96200134b565b6200018b6001620009ae565b620001af62001ae362001aeb565b3b62001b1662000a436000620009ae565b1190565b1562001b2257565b60405162461bcd60e51b815260206004820152602b60248201527f496e697469616c697a61626c653a20636f6e7472616374206973206e6f74206960448201526a6e697469616c697a696e6760a81b6064820152608490fd5b62001b9162001b8b6000620014c9565b62001b1a565b620001af620001af62001ce4565b620001af62001b7b565b620001af62001b8b6000620014c9565b620001af62001ba9565b62001bd362001b8b6000620014c9565b620001af620001af62001d08565b620001af62001bc3565b9162001bf78362001d12565b815162001c0962000a436000620009ae565b1190811562001c2b575b5062001c1d575050565b62001c289162001da4565b50565b90503862001c13565b1562001c3c57565b60405162461bcd60e51b815260206004820152602d60248201527f455243313936373a206e657720696d706c656d656e746174696f6e206973206e60448201526c1bdd08184818dbdb9d1c9858dd609a1b6064820152608490fd5b620001af9062001cb162001cab8262001b05565b62001c34565b600062001cc16200018b62000d86565b01620019ec565b62001cd862001b8b6000620014c9565b620001af803362001a08565b620001af62001cc8565b62001cfe62001b8b6000620014c9565b620001af62001af7565b620001af62001cee565b62001d2290620013a98162001c97565b7fbc7cd75a20ee27fd9adebab32041f755214dbc6bffa90cc0225b39da2e5c2d3b62001d4d60405190565b8080620013ba565b62001d61602762000880565b7f416464726573733a206c6f772d6c6576656c2064656c65676174652063616c6c6020820152660819985a5b195960ca1b604082015290565b6200018b62001d55565b6200018b9162001db362001d9a565b916000806200018b949362001dc6606090565b50602081519101845af462001dda62000bef565b9162001e2e565b1562001de957565b60405162461bcd60e51b815260206004820152601d60248201527f416464726573733a2063616c6c20746f206e6f6e2d636f6e74726163740000006044820152606490fd5b9192901562001e695750815162001e4a62000a436000620009ae565b1462001e54575090565b62001e636200018b9162001b05565b62001de1565b829062001e74825190565b62001e8462000a436000620009ae565b111562001e945750805190602001fd5b62000aa19062001ea360405190565b62461bcd60e51b8152918291600483016200092e56fe608060405261001561000f61016a565b9061018c565b60405160c3610526823960c390f35b634e487b7160e01b600052604160045260246000fd5b90601f01601f191681019081106001600160401b0382111761005b57604052565b610024565b9061007461006d60405190565b928361003a565b565b6001600160a01b031690565b90565b61008e81610076565b0361009557565b600080fd5b9050519061007482610085565b6001600160401b03811161005b57602090601f01601f19160190565b0190565b60005b8381106100da5750506000910152565b81810151838201526020016100ca565b909291926100ff6100fa826100a7565b610060565b9381855281830111610095576100749160208501906100c7565b9080601f83011215610095578151610082926020016100ea565b9190916040818403126100955761014a838261009a565b60208201519093906001600160401b038111610095576100829201610119565b6101886105e98038038061017d81610060565b928339810190610133565b9091565b610074916000916101a5565b6100826100826100829290565b916101af8361020e565b81516101c26101be6000610198565b9190565b119081156101e0575b506101d4575050565b6101dd916102ad565b50565b9050386101cb565b61008290610076906001600160a01b031682565b610082906101e8565b610082906101fc565b6102209061021b81610389565b610205565b7fbc7cd75a20ee27fd9adebab32041f755214dbc6bffa90cc0225b39da2e5c2d3b61024a60405190565b600090a2565b9061025d6100fa836100a7565b918252565b61026c6027610250565b7f416464726573733a206c6f772d6c6576656c2064656c65676174652063616c6c6020820152660819985a5b195960ca1b604082015290565b610082610262565b610082916102b96102a5565b916103d0565b6020808252602d908201527f455243313936373a206e657720696d706c656d656e746174696f6e206973206e60408201526c1bdd08184818dbdb9d1c9858dd609a1b606082015260800190565b1561031357565b60405162461bcd60e51b81528061032c600482016102bf565b0390fd5b6100827f360894a13ba1a3210667c828492db98dca3e2076cc3735a920a3ca505d382bbc610198565b9061036961008261038592610205565b82546001600160a01b0319166001600160a01b03919091161790565b9055565b6100749061039e610399826103f8565b61030c565b60006103ab610082610330565b01610359565b3d156103cb576103c03d610250565b903d6000602084013e565b606090565b60008061008294936103e0606090565b50602081519101845af46103f26103b1565b91610461565b3b6104066101be6000610198565b1190565b6020808252601d908201527f416464726573733a2063616c6c20746f206e6f6e2d636f6e7472616374000000604082015260600190565b1561044857565b60405162461bcd60e51b81528061032c6004820161040a565b91929015610493575081516104796101be6000610198565b14610482575090565b61048e610082916103f8565b610441565b826104de565b6104ba6104c36020936100c3936104ae815190565b80835293849260200190565b958691016100c7565b601f01601f191690565b602080825261008292910190610499565b906104e7825190565b6104f46101be6000610198565b11156105035750805190602001fd5b61032c9061051060405190565b62461bcd60e51b8152918291600483016104cd56fe6080604052600a600e565b6017565b6014607c565b90565b60008091368280378136915af43d6000803e156032573d6000f35b3d6000fd5b6014601460149290565b60147f360894a13ba1a3210667c828492db98dca3e2076cc3735a920a3ca505d382bbc6037565b6001600160a01b031690565b601490546068565b60146000608860146041565b01607456fea26469706673582212200ad4ac51629ce32ff36896c3191fd47fcb9b0a0892e6281467f168c50548841064736f6c6343000816003340bd824d588484917db8fa4fc894c1e0feae5a75885290ba7b97521cebf82a8046756e6374696f6e206d7573742062652063616c6c6564207468726f75676820a26469706673582212208f657e07b69df7c5553669ad3c6a3cc8a8d1d97ed73edb3400d41198330a74bb64736f6c63430008160033","opcodes":"PUSH1 0xC0 PUSH1 0x40 MSTORE CALLVALUE PUSH3 0x57 JUMPI PUSH3 0x1E PUSH3 0x18 PUSH3 0xFB JUMP JUMPDEST PUSH3 0x14A JUMP JUMPDEST PUSH1 0x40 MLOAD PUSH2 0x2518 PUSH3 0x179 DUP3 CODECOPY PUSH1 0x80 MLOAD DUP2 DUP2 DUP2 PUSH2 0xB10 ADD MSTORE PUSH2 0xD54 ADD MSTORE PUSH1 0xA0 MLOAD DUP2 DUP2 DUP2 PUSH2 0x2B4 ADD MSTORE DUP2 DUP2 PUSH2 0x975 ADD MSTORE PUSH2 0x1247 ADD MSTORE PUSH2 0x2518 SWAP1 RETURN JUMPDEST PUSH1 0x0 DUP1 REVERT JUMPDEST PUSH4 0x4E487B71 PUSH1 0xE0 SHL PUSH1 0x0 MSTORE PUSH1 0x41 PUSH1 0x4 MSTORE PUSH1 0x24 PUSH1 0x0 REVERT JUMPDEST SWAP1 PUSH1 0x1F ADD PUSH1 0x1F NOT AND DUP2 ADD SWAP1 DUP2 LT PUSH1 0x1 PUSH1 0x1 PUSH1 0x40 SHL SUB DUP3 GT OR PUSH3 0x94 JUMPI PUSH1 0x40 MSTORE JUMP JUMPDEST PUSH3 0x5C JUMP JUMPDEST SWAP1 PUSH3 0xB1 PUSH3 0xA9 PUSH1 0x40 MLOAD SWAP1 JUMP JUMPDEST SWAP3 DUP4 PUSH3 0x72 JUMP JUMPDEST JUMP JUMPDEST PUSH1 0x1 PUSH1 0x1 PUSH1 0xA0 SHL SUB AND SWAP1 JUMP JUMPDEST SWAP1 JUMP JUMPDEST PUSH3 0xCD DUP2 PUSH3 0xB3 JUMP JUMPDEST SUB PUSH3 0x57 JUMPI JUMP JUMPDEST SWAP1 POP MLOAD SWAP1 PUSH3 0xB1 DUP3 PUSH3 0xC2 JUMP JUMPDEST SWAP1 PUSH1 0x20 DUP3 DUP3 SUB SLT PUSH3 0x57 JUMPI PUSH3 0xBF SWAP2 PUSH3 0xD5 JUMP JUMPDEST PUSH3 0xBF PUSH3 0x2691 DUP1 CODESIZE SUB DUP1 PUSH3 0x112 DUP2 PUSH3 0x9A JUMP JUMPDEST SWAP3 DUP4 CODECOPY DUP2 ADD SWAP1 PUSH3 0xE4 JUMP JUMPDEST PUSH3 0xBF SWAP1 PUSH3 0xB3 SWAP1 PUSH1 0x1 PUSH1 0x1 PUSH1 0xA0 SHL SUB AND DUP3 JUMP JUMPDEST PUSH3 0xBF SWAP1 PUSH3 0x11E JUMP JUMPDEST PUSH3 0xBF SWAP1 PUSH3 0x134 JUMP JUMPDEST PUSH3 0x15F SWAP1 PUSH3 0x159 PUSH3 0x164 JUMP JUMPDEST PUSH3 0x13F JUMP JUMPDEST PUSH1 0xA0 MSTORE JUMP JUMPDEST PUSH3 0xB1 PUSH3 0x173 ADDRESS PUSH3 0x13F JUMP JUMPDEST PUSH1 0x80 MSTORE JUMP INVALID PUSH1 0x80 PUSH1 0x40 MSTORE PUSH1 0x4 CALLDATASIZE LT ISZERO PUSH3 0x13 JUMPI PUSH1 0x0 DUP1 REVERT JUMPDEST PUSH1 0x0 CALLDATALOAD PUSH1 0xE0 SHR DUP1 PUSH4 0xD1DED89 EQ PUSH3 0x168 JUMPI DUP1 PUSH4 0x1652DA42 EQ PUSH3 0x162 JUMPI DUP1 PUSH4 0x2F3A3D5D EQ PUSH3 0x15C JUMPI DUP1 PUSH4 0x3659CFE6 EQ PUSH3 0x156 JUMPI DUP1 PUSH4 0x476343EE EQ PUSH3 0x150 JUMPI DUP1 PUSH4 0x4F1EF286 EQ PUSH3 0x14A JUMPI DUP1 PUSH4 0x52D1902D EQ PUSH3 0x144 JUMPI DUP1 PUSH4 0x622AE7AA EQ PUSH3 0x13E JUMPI DUP1 PUSH4 0x715018A6 EQ PUSH3 0x138 JUMPI DUP1 PUSH4 0x76B2DE01 EQ PUSH3 0x132 JUMPI DUP1 PUSH4 0x8DA5CB5B EQ PUSH3 0x12C JUMPI DUP1 PUSH4 0xC05DDDA8 EQ PUSH3 0x126 JUMPI DUP1 PUSH4 0xCBF1208F EQ PUSH3 0x120 JUMPI DUP1 PUSH4 0xD002462B EQ PUSH3 0x11A JUMPI DUP1 PUSH4 0xEC81AADB EQ PUSH3 0x114 JUMPI DUP1 PUSH4 0xF2CFF57F EQ PUSH3 0x10E JUMPI DUP1 PUSH4 0xF2FDE38B EQ PUSH3 0x108 JUMPI DUP1 PUSH4 0xFE4B84DF EQ PUSH3 0x102 JUMPI PUSH4 0xFFA1AD74 SUB PUSH3 0x16E JUMPI PUSH3 0x941 JUMP JUMPDEST PUSH3 0x863 JUMP JUMPDEST PUSH3 0x846 JUMP JUMPDEST PUSH3 0x825 JUMP JUMPDEST PUSH3 0x7F6 JUMP JUMPDEST PUSH3 0x759 JUMP JUMPDEST PUSH3 0x724 JUMP JUMPDEST PUSH3 0x6E3 JUMP JUMPDEST PUSH3 0x676 JUMP JUMPDEST PUSH3 0x64B JUMP JUMPDEST PUSH3 0x50E JUMP JUMPDEST PUSH3 0x4E0 JUMP JUMPDEST PUSH3 0x442 JUMP JUMPDEST PUSH3 0x42A JUMP JUMPDEST PUSH3 0x2FC JUMP JUMPDEST PUSH3 0x2DA JUMP JUMPDEST PUSH3 0x297 JUMP JUMPDEST PUSH3 0x21C JUMP JUMPDEST PUSH3 0x1B1 JUMP JUMPDEST PUSH1 0x0 DUP1 REVERT JUMPDEST PUSH1 0x0 SWAP2 SUB SLT PUSH3 0x16E JUMPI JUMP JUMPDEST PUSH1 0x1 PUSH1 0x1 PUSH1 0xA0 SHL SUB AND SWAP1 JUMP JUMPDEST SWAP1 JUMP JUMPDEST PUSH3 0x199 SWAP1 PUSH3 0x17F JUMP JUMPDEST SWAP1 MSTORE JUMP JUMPDEST PUSH1 0x20 DUP2 ADD SWAP3 SWAP2 PUSH3 0x1AF SWAP2 SWAP1 PUSH3 0x18E JUMP JUMPDEST JUMP JUMPDEST CALLVALUE PUSH3 0x16E JUMPI PUSH3 0x1C4 CALLDATASIZE PUSH1 0x4 PUSH3 0x173 JUMP JUMPDEST PUSH3 0x1DF PUSH3 0x1D2 PUSH3 0x96F JUMP JUMPDEST PUSH1 0x40 MLOAD SWAP2 DUP3 SWAP2 DUP3 PUSH3 0x19D JUMP JUMPDEST SUB SWAP1 RETURN JUMPDEST PUSH3 0x1EE DUP2 PUSH3 0x17F JUMP JUMPDEST SUB PUSH3 0x16E JUMPI JUMP JUMPDEST SWAP1 POP CALLDATALOAD SWAP1 PUSH3 0x1AF DUP3 PUSH3 0x1E3 JUMP JUMPDEST SWAP1 PUSH1 0x20 DUP3 DUP3 SUB SLT PUSH3 0x16E JUMPI PUSH3 0x18B SWAP2 PUSH3 0x1F6 JUMP JUMPDEST CALLVALUE PUSH3 0x16E JUMPI PUSH3 0x1DF PUSH3 0x23D PUSH3 0x237 CALLDATASIZE PUSH1 0x4 PUSH3 0x205 JUMP JUMPDEST PUSH3 0x9BE JUMP JUMPDEST PUSH1 0x40 MLOAD JUMPDEST SWAP2 DUP3 SWAP2 DUP3 SWAP1 DUP2 MSTORE PUSH1 0x20 ADD SWAP1 JUMP JUMPDEST PUSH3 0x18B SWAP1 PUSH3 0x17F SWAP1 PUSH1 0x1 PUSH1 0x1 PUSH1 0xA0 SHL SUB AND DUP3 JUMP JUMPDEST PUSH3 0x18B SWAP1 PUSH3 0x24E JUMP JUMPDEST PUSH3 0x18B SWAP1 PUSH3 0x264 JUMP JUMPDEST PUSH3 0x199 SWAP1 PUSH3 0x26F JUMP JUMPDEST PUSH1 0x20 DUP2 ADD SWAP3 SWAP2 PUSH3 0x1AF SWAP2 SWAP1 PUSH3 0x27A JUMP JUMPDEST CALLVALUE PUSH3 0x16E JUMPI PUSH3 0x2AA CALLDATASIZE PUSH1 0x4 PUSH3 0x173 JUMP JUMPDEST PUSH1 0x40 MLOAD DUP1 PUSH3 0x1DF PUSH32 0x0 DUP3 PUSH3 0x285 JUMP JUMPDEST CALLVALUE PUSH3 0x16E JUMPI PUSH3 0x2F7 PUSH3 0x2F1 CALLDATASIZE PUSH1 0x4 PUSH3 0x205 JUMP JUMPDEST PUSH3 0xBD0 JUMP JUMPDEST PUSH1 0x40 MLOAD STOP JUMPDEST CALLVALUE PUSH3 0x16E JUMPI PUSH3 0x30F CALLDATASIZE PUSH1 0x4 PUSH3 0x173 JUMP JUMPDEST PUSH3 0x2F7 PUSH3 0xC84 JUMP JUMPDEST PUSH4 0x4E487B71 PUSH1 0xE0 SHL PUSH1 0x0 MSTORE PUSH1 0x41 PUSH1 0x4 MSTORE PUSH1 0x24 PUSH1 0x0 REVERT JUMPDEST SWAP1 PUSH1 0x1F ADD PUSH1 0x1F NOT AND DUP2 ADD SWAP1 DUP2 LT PUSH1 0x1 PUSH1 0x1 PUSH1 0x40 SHL SUB DUP3 GT OR PUSH3 0x351 JUMPI PUSH1 0x40 MSTORE JUMP JUMPDEST PUSH3 0x319 JUMP JUMPDEST SWAP1 PUSH3 0x1AF PUSH3 0x366 PUSH1 0x40 MLOAD SWAP1 JUMP JUMPDEST SWAP3 DUP4 PUSH3 0x32F JUMP JUMPDEST PUSH1 0x1 PUSH1 0x1 PUSH1 0x40 SHL SUB DUP2 GT PUSH3 0x351 JUMPI PUSH1 0x20 SWAP1 PUSH1 0x1F ADD PUSH1 0x1F NOT AND ADD SWAP1 JUMP JUMPDEST ADD SWAP1 JUMP JUMPDEST SWAP1 DUP3 PUSH1 0x0 SWAP4 SWAP3 DUP3 CALLDATACOPY ADD MSTORE JUMP JUMPDEST SWAP1 SWAP3 SWAP2 SWAP3 PUSH3 0x3B4 PUSH3 0x3AE DUP3 PUSH3 0x36E JUMP JUMPDEST PUSH3 0x357 JUMP JUMPDEST SWAP4 DUP2 DUP6 MSTORE DUP2 DUP4 ADD GT PUSH3 0x16E JUMPI PUSH3 0x1AF SWAP2 PUSH1 0x20 DUP6 ADD SWAP1 PUSH3 0x38F JUMP JUMPDEST SWAP1 DUP1 PUSH1 0x1F DUP4 ADD SLT ISZERO PUSH3 0x16E JUMPI DUP2 PUSH1 0x20 PUSH3 0x18B SWAP4 CALLDATALOAD SWAP2 ADD PUSH3 0x39B JUMP JUMPDEST SWAP2 SWAP1 SWAP2 PUSH1 0x40 DUP2 DUP5 SUB SLT PUSH3 0x16E JUMPI PUSH3 0x409 DUP4 DUP3 PUSH3 0x1F6 JUMP JUMPDEST SWAP3 PUSH1 0x20 DUP3 ADD CALLDATALOAD PUSH1 0x1 PUSH1 0x1 PUSH1 0x40 SHL SUB DUP2 GT PUSH3 0x16E JUMPI PUSH3 0x18B SWAP3 ADD PUSH3 0x3D1 JUMP JUMPDEST PUSH3 0x2F7 PUSH3 0x43B CALLDATASIZE PUSH1 0x4 PUSH3 0x3EF JUMP JUMPDEST SWAP1 PUSH3 0xCBC JUMP JUMPDEST CALLVALUE PUSH3 0x16E JUMPI PUSH3 0x455 CALLDATASIZE PUSH1 0x4 PUSH3 0x173 JUMP JUMPDEST PUSH3 0x1DF PUSH3 0x23D PUSH3 0xDBC JUMP JUMPDEST SWAP1 PUSH3 0x38B DUP2 PUSH1 0x20 SWAP4 PUSH3 0x18E JUMP JUMPDEST SWAP1 PUSH3 0x495 PUSH3 0x48E PUSH3 0x484 DUP5 MLOAD SWAP1 JUMP JUMPDEST DUP1 DUP5 MSTORE SWAP3 PUSH1 0x20 ADD SWAP1 JUMP JUMPDEST SWAP3 PUSH1 0x20 ADD SWAP1 JUMP JUMPDEST SWAP1 PUSH1 0x0 JUMPDEST DUP2 DUP2 LT PUSH3 0x4A7 JUMPI POP POP POP SWAP1 JUMP JUMPDEST SWAP1 SWAP2 SWAP3 PUSH3 0x4C4 PUSH3 0x4BD PUSH1 0x1 SWAP3 DUP7 MLOAD PUSH3 0x463 JUMP JUMPDEST SWAP5 PUSH1 0x20 ADD SWAP1 JUMP JUMPDEST SWAP3 SWAP2 ADD PUSH3 0x499 JUMP JUMPDEST PUSH1 0x20 DUP1 DUP3 MSTORE PUSH3 0x18B SWAP3 SWAP2 ADD SWAP1 PUSH3 0x472 JUMP JUMPDEST CALLVALUE PUSH3 0x16E JUMPI PUSH3 0x4F3 CALLDATASIZE PUSH1 0x4 PUSH3 0x173 JUMP JUMPDEST PUSH3 0x1DF PUSH3 0x501 PUSH3 0xE7B JUMP JUMPDEST PUSH1 0x40 MLOAD SWAP2 DUP3 SWAP2 DUP3 PUSH3 0x4CD JUMP JUMPDEST CALLVALUE PUSH3 0x16E JUMPI PUSH3 0x521 CALLDATASIZE PUSH1 0x4 PUSH3 0x173 JUMP JUMPDEST PUSH3 0x2F7 PUSH3 0xECC JUMP JUMPDEST DUP1 PUSH3 0x1EE JUMP JUMPDEST SWAP1 POP CALLDATALOAD SWAP1 PUSH3 0x1AF DUP3 PUSH3 0x52B JUMP JUMPDEST DUP1 ISZERO ISZERO PUSH3 0x1EE JUMP JUMPDEST SWAP1 POP CALLDATALOAD SWAP1 PUSH3 0x1AF DUP3 PUSH3 0x541 JUMP JUMPDEST SWAP1 SWAP2 PUSH2 0x180 DUP3 DUP5 SUB SLT PUSH3 0x16E JUMPI DUP2 CALLDATALOAD PUSH1 0x1 PUSH1 0x1 PUSH1 0x40 SHL SUB DUP2 GT PUSH3 0x16E JUMPI DUP4 PUSH3 0x586 SWAP2 DUP5 ADD PUSH3 0x3D1 JUMP JUMPDEST SWAP3 PUSH1 0x20 DUP4 ADD CALLDATALOAD PUSH1 0x1 PUSH1 0x1 PUSH1 0x40 SHL SUB DUP2 GT PUSH3 0x16E JUMPI DUP2 PUSH3 0x5A9 SWAP2 DUP6 ADD PUSH3 0x3D1 JUMP JUMPDEST SWAP3 PUSH3 0x5B9 DUP3 PUSH1 0x40 DUP4 ADD PUSH3 0x532 JUMP JUMPDEST SWAP3 PUSH3 0x5C9 DUP4 PUSH1 0x60 DUP5 ADD PUSH3 0x532 JUMP JUMPDEST SWAP3 PUSH3 0x5D9 DUP2 PUSH1 0x80 DUP6 ADD PUSH3 0x54A JUMP JUMPDEST SWAP3 PUSH3 0x5E9 DUP3 PUSH1 0xA0 DUP4 ADD PUSH3 0x54A JUMP JUMPDEST SWAP3 PUSH3 0x5F9 DUP4 PUSH1 0xC0 DUP5 ADD PUSH3 0x532 JUMP JUMPDEST SWAP3 PUSH3 0x609 DUP2 PUSH1 0xE0 DUP6 ADD PUSH3 0x532 JUMP JUMPDEST SWAP3 PUSH3 0x61A DUP3 PUSH2 0x100 DUP4 ADD PUSH3 0x532 JUMP JUMPDEST SWAP3 PUSH3 0x18B PUSH3 0x62F DUP5 PUSH2 0x120 DUP6 ADD PUSH3 0x532 JUMP JUMPDEST SWAP4 PUSH2 0x160 PUSH3 0x643 DUP3 PUSH2 0x140 DUP8 ADD PUSH3 0x532 JUMP JUMPDEST SWAP5 ADD PUSH3 0x532 JUMP JUMPDEST PUSH3 0x1DF PUSH3 0x1D2 PUSH3 0x660 CALLDATASIZE PUSH1 0x4 PUSH3 0x559 JUMP JUMPDEST SWAP11 SWAP10 SWAP1 SWAP10 SWAP9 SWAP2 SWAP9 SWAP8 SWAP3 SWAP8 SWAP7 SWAP4 SWAP7 SWAP6 SWAP5 SWAP6 PUSH3 0x1306 JUMP JUMPDEST CALLVALUE PUSH3 0x16E JUMPI PUSH3 0x689 CALLDATASIZE PUSH1 0x4 PUSH3 0x173 JUMP JUMPDEST PUSH3 0x1DF PUSH3 0x1D2 PUSH3 0x131E JUMP JUMPDEST SWAP1 PUSH3 0x6A3 SWAP1 PUSH3 0x26F JUMP JUMPDEST PUSH1 0x0 MSTORE PUSH1 0x20 MSTORE PUSH1 0x40 PUSH1 0x0 KECCAK256 SWAP1 JUMP JUMPDEST PUSH3 0x18B SWAP2 PUSH1 0x8 MUL SHR DUP2 JUMP JUMPDEST SWAP1 PUSH3 0x18B SWAP2 SLOAD PUSH3 0x6B1 JUMP JUMPDEST PUSH1 0x0 PUSH3 0x6DD PUSH3 0x18B SWAP3 PUSH1 0xFC PUSH3 0x697 JUMP JUMPDEST PUSH3 0x6BD JUMP JUMPDEST CALLVALUE PUSH3 0x16E JUMPI PUSH3 0x1DF PUSH3 0x23D PUSH3 0x6FE CALLDATASIZE PUSH1 0x4 PUSH3 0x205 JUMP JUMPDEST PUSH3 0x6CA JUMP JUMPDEST SWAP2 SWAP1 PUSH1 0x40 DUP4 DUP3 SUB SLT PUSH3 0x16E JUMPI PUSH3 0x18B SWAP1 PUSH1 0x20 PUSH3 0x643 DUP3 DUP7 PUSH3 0x1F6 JUMP JUMPDEST CALLVALUE PUSH3 0x16E JUMPI PUSH3 0x2F7 PUSH3 0x73B CALLDATASIZE PUSH1 0x4 PUSH3 0x704 JUMP JUMPDEST SWAP1 PUSH3 0x13BF JUMP JUMPDEST SWAP1 PUSH1 0x20 DUP3 DUP3 SUB SLT PUSH3 0x16E JUMPI PUSH3 0x18B SWAP2 PUSH3 0x532 JUMP JUMPDEST CALLVALUE PUSH3 0x16E JUMPI PUSH3 0x2F7 PUSH3 0x770 CALLDATASIZE PUSH1 0x4 PUSH3 0x742 JUMP JUMPDEST PUSH3 0x1401 JUMP JUMPDEST PUSH4 0x4E487B71 PUSH1 0xE0 SHL PUSH1 0x0 MSTORE PUSH1 0x32 PUSH1 0x4 MSTORE PUSH1 0x24 PUSH1 0x0 REVERT JUMPDEST DUP1 SLOAD DUP3 LT ISZERO PUSH3 0x7B1 JUMPI PUSH3 0x7A8 PUSH1 0x1 SWAP2 PUSH1 0x0 MSTORE PUSH1 0x20 PUSH1 0x0 KECCAK256 SWAP1 JUMP JUMPDEST SWAP2 MUL ADD SWAP1 PUSH1 0x0 SWAP1 JUMP JUMPDEST PUSH3 0x776 JUMP JUMPDEST PUSH3 0x18B SWAP2 PUSH1 0x8 MUL SHR PUSH3 0x17F JUMP JUMPDEST SWAP1 PUSH3 0x18B SWAP2 SLOAD PUSH3 0x7B7 JUMP JUMPDEST PUSH1 0xFD SLOAD DUP2 LT ISZERO PUSH3 0x16E JUMPI PUSH3 0x7EF PUSH3 0x18B SWAP2 PUSH1 0xFD PUSH3 0x78C JUMP JUMPDEST SWAP1 PUSH3 0x7C6 JUMP JUMPDEST CALLVALUE PUSH3 0x16E JUMPI PUSH3 0x1DF PUSH3 0x1D2 PUSH3 0x811 CALLDATASIZE PUSH1 0x4 PUSH3 0x742 JUMP JUMPDEST PUSH3 0x7D3 JUMP JUMPDEST PUSH3 0x18B PUSH1 0x0 PUSH1 0xFB PUSH3 0x6BD JUMP JUMPDEST CALLVALUE PUSH3 0x16E JUMPI PUSH3 0x838 CALLDATASIZE PUSH1 0x4 PUSH3 0x173 JUMP JUMPDEST PUSH3 0x1DF PUSH3 0x23D PUSH3 0x817 JUMP JUMPDEST CALLVALUE PUSH3 0x16E JUMPI PUSH3 0x2F7 PUSH3 0x85D CALLDATASIZE PUSH1 0x4 PUSH3 0x205 JUMP JUMPDEST PUSH3 0x14AF JUMP JUMPDEST CALLVALUE PUSH3 0x16E JUMPI PUSH3 0x2F7 PUSH3 0x87A CALLDATASIZE PUSH1 0x4 PUSH3 0x742 JUMP JUMPDEST PUSH3 0x174E JUMP JUMPDEST SWAP1 PUSH3 0x890 PUSH3 0x3AE DUP4 PUSH3 0x36E JUMP JUMPDEST SWAP2 DUP3 MSTORE JUMP JUMPDEST PUSH3 0x8A1 PUSH1 0x5 PUSH3 0x880 JUMP JUMPDEST PUSH5 0x322E312E3 PUSH1 0xDC SHL PUSH1 0x20 DUP3 ADD MSTORE SWAP1 JUMP JUMPDEST PUSH3 0x18B PUSH3 0x895 JUMP JUMPDEST PUSH3 0x18B PUSH3 0x8B2 JUMP JUMPDEST PUSH3 0x18B PUSH3 0x8BC JUMP JUMPDEST PUSH1 0x0 JUMPDEST DUP4 DUP2 LT PUSH3 0x8E4 JUMPI POP POP PUSH1 0x0 SWAP2 ADD MSTORE JUMP JUMPDEST DUP2 DUP2 ADD MLOAD DUP4 DUP3 ADD MSTORE PUSH1 0x20 ADD PUSH3 0x8D3 JUMP JUMPDEST PUSH3 0x91A PUSH3 0x924 PUSH1 0x20 SWAP4 PUSH3 0x38B SWAP4 PUSH3 0x90E DUP2 MLOAD SWAP1 JUMP JUMPDEST DUP1 DUP4 MSTORE SWAP4 DUP5 SWAP3 PUSH1 0x20 ADD SWAP1 JUMP JUMPDEST SWAP6 DUP7 SWAP2 ADD PUSH3 0x8D0 JUMP JUMPDEST PUSH1 0x1F ADD PUSH1 0x1F NOT AND SWAP1 JUMP JUMPDEST PUSH1 0x20 DUP1 DUP3 MSTORE PUSH3 0x18B SWAP3 SWAP2 ADD SWAP1 PUSH3 0x8F5 JUMP JUMPDEST CALLVALUE PUSH3 0x16E JUMPI PUSH3 0x954 CALLDATASIZE PUSH1 0x4 PUSH3 0x173 JUMP JUMPDEST PUSH3 0x1DF PUSH3 0x962 PUSH3 0x8C6 JUMP JUMPDEST PUSH1 0x40 MLOAD SWAP2 DUP3 SWAP2 DUP3 PUSH3 0x92E JUMP JUMPDEST PUSH3 0x18B PUSH32 0x0 PUSH3 0x26F JUMP JUMPDEST PUSH3 0x18B SWAP1 DUP2 JUMP JUMPDEST PUSH3 0x18B SWAP1 SLOAD PUSH3 0x99A JUMP JUMPDEST PUSH3 0x18B PUSH3 0x18B PUSH3 0x18B SWAP3 SWAP1 JUMP JUMPDEST PUSH3 0x9D5 PUSH3 0x9CF DUP3 PUSH1 0xFC PUSH3 0x697 JUMP JUMPDEST PUSH3 0x9A2 JUMP JUMPDEST SWAP1 PUSH3 0x9E2 PUSH1 0x0 PUSH3 0x9AE JUMP JUMPDEST DUP3 GT SWAP1 DUP2 ISZERO PUSH3 0xA00 JUMPI JUMPDEST POP PUSH3 0x18B JUMPI POP PUSH3 0x18B PUSH1 0xFB PUSH3 0x9A2 JUMP JUMPDEST SWAP1 POP PUSH3 0xA0E PUSH1 0x0 PUSH3 0x9AE JUMP JUMPDEST DUP3 EQ SWAP1 DUP2 PUSH3 0xA20 JUMPI JUMPDEST POP CODESIZE PUSH3 0x9ED JUMP JUMPDEST PUSH3 0xA33 SWAP2 POP PUSH3 0x9CF SWAP1 PUSH1 0xFC PUSH3 0x697 JUMP JUMPDEST PUSH3 0xA47 PUSH3 0xA43 PUSH1 0x0 PUSH3 0x9AE JUMP JUMPDEST SWAP2 SWAP1 JUMP JUMPDEST EQ ISZERO CODESIZE PUSH3 0xA18 JUMP JUMPDEST ISZERO PUSH3 0xA58 JUMPI JUMP JUMPDEST PUSH1 0x40 MLOAD PUSH3 0x461BCD PUSH1 0xE5 SHL DUP2 MSTORE PUSH1 0x20 PUSH1 0x4 DUP3 ADD MSTORE PUSH1 0x2C PUSH1 0x24 DUP3 ADD MSTORE PUSH1 0x0 DUP1 MLOAD PUSH1 0x20 PUSH3 0x24C3 DUP4 CODECOPY DUP2 MLOAD SWAP2 MSTORE PUSH1 0x44 DUP3 ADD MSTORE PUSH12 0x19195B1959D85D1958D85B1B PUSH1 0xA2 SHL PUSH1 0x64 DUP3 ADD MSTORE PUSH1 0x84 SWAP1 REVERT JUMPDEST SUB SWAP1 REVERT JUMPDEST ISZERO PUSH3 0xAAD JUMPI JUMP JUMPDEST PUSH1 0x40 MLOAD PUSH3 0x461BCD PUSH1 0xE5 SHL DUP2 MSTORE PUSH1 0x20 PUSH1 0x4 DUP3 ADD MSTORE PUSH1 0x2C PUSH1 0x24 DUP3 ADD MSTORE PUSH1 0x0 DUP1 MLOAD PUSH1 0x20 PUSH3 0x24C3 DUP4 CODECOPY DUP2 MLOAD SWAP2 MSTORE PUSH1 0x44 DUP3 ADD MSTORE PUSH12 0x6163746976652070726F7879 PUSH1 0xA0 SHL PUSH1 0x64 DUP3 ADD MSTORE PUSH1 0x84 SWAP1 REVERT JUMPDEST PUSH3 0x1AF SWAP1 PUSH3 0xB6E PUSH3 0xB0A ADDRESS PUSH3 0x26F JUMP JUMPDEST PUSH3 0xB4E PUSH32 0x0 SWAP2 PUSH3 0xB46 PUSH3 0xB3F DUP5 PUSH3 0x17F JUMP JUMPDEST SWAP2 PUSH3 0x17F JUMP JUMPDEST EQ ISZERO PUSH3 0xA50 JUMP JUMPDEST PUSH3 0xB67 PUSH3 0xB3F PUSH3 0xB60 PUSH3 0x1759 JUMP JUMPDEST SWAP3 PUSH3 0x17F JUMP JUMPDEST EQ PUSH3 0xAA5 JUMP JUMPDEST PUSH3 0xBA2 JUMP JUMPDEST CALLDATASIZE SWAP1 CALLDATACOPY JUMP JUMPDEST SWAP1 PUSH3 0x1AF PUSH3 0xB94 PUSH3 0xB8D DUP5 PUSH3 0x880 JUMP JUMPDEST SWAP4 PUSH3 0x36E JUMP JUMPDEST PUSH1 0x1F NOT ADD PUSH1 0x20 DUP5 ADD PUSH3 0xB74 JUMP JUMPDEST PUSH1 0x0 PUSH3 0x1AF SWAP2 PUSH3 0xBB4 DUP2 PUSH3 0x177F JUMP JUMPDEST PUSH3 0xBC9 PUSH3 0xBC3 DUP4 PUSH3 0x9AE JUMP JUMPDEST PUSH3 0xB79 JUMP JUMPDEST SWAP1 PUSH3 0x183A JUMP JUMPDEST PUSH3 0x1AF SWAP1 PUSH3 0xAF6 JUMP JUMPDEST PUSH3 0xBE5 PUSH3 0x19B8 JUMP JUMPDEST PUSH3 0x1AF PUSH3 0xC50 JUMP JUMPDEST RETURNDATASIZE ISZERO PUSH3 0xC0C JUMPI PUSH3 0xC01 RETURNDATASIZE PUSH3 0x880 JUMP JUMPDEST SWAP1 RETURNDATASIZE PUSH1 0x0 PUSH1 0x20 DUP5 ADD RETURNDATACOPY JUMP JUMPDEST PUSH1 0x60 SWAP1 JUMP JUMPDEST ISZERO PUSH3 0xC19 JUMPI JUMP JUMPDEST PUSH1 0x40 MLOAD PUSH3 0x461BCD PUSH1 0xE5 SHL DUP2 MSTORE PUSH1 0x20 PUSH1 0x4 DUP3 ADD MSTORE PUSH1 0xF PUSH1 0x24 DUP3 ADD MSTORE PUSH15 0x151C985B9CD9995C8819985A5B1959 PUSH1 0x8A SHL PUSH1 0x44 DUP3 ADD MSTORE PUSH1 0x64 SWAP1 REVERT JUMPDEST PUSH3 0x1AF PUSH1 0x0 DUP1 PUSH3 0xC62 ADDRESS PUSH3 0x26F JUMP JUMPDEST BALANCE PUSH3 0xC6D PUSH1 0x40 MLOAD SWAP1 JUMP JUMPDEST PUSH1 0x0 SWAP2 CALLER GAS CALL PUSH3 0xC7D PUSH3 0xBEF JUMP JUMPDEST POP PUSH3 0xC11 JUMP JUMPDEST PUSH3 0x1AF PUSH3 0xBDB JUMP JUMPDEST SWAP1 PUSH3 0x1AF SWAP2 PUSH3 0xCA3 PUSH3 0xB0A ADDRESS PUSH3 0x26F JUMP JUMPDEST PUSH3 0x1AF SWAP2 PUSH1 0x1 SWAP2 PUSH3 0xCB6 DUP2 PUSH3 0x177F JUMP JUMPDEST PUSH3 0x183A JUMP JUMPDEST SWAP1 PUSH3 0x1AF SWAP2 PUSH3 0xC8E JUMP JUMPDEST ISZERO PUSH3 0xCD0 JUMPI JUMP JUMPDEST PUSH1 0x40 MLOAD PUSH3 0x461BCD PUSH1 0xE5 SHL DUP2 MSTORE PUSH1 0x20 PUSH1 0x4 DUP3 ADD MSTORE PUSH1 0x38 PUSH1 0x24 DUP3 ADD MSTORE PUSH32 0x555550535570677261646561626C653A206D757374206E6F742062652063616C PUSH1 0x44 DUP3 ADD MSTORE PUSH24 0x1B1959081D1A1C9BDD59DA0819195B1959D85D1958D85B1B PUSH1 0x42 SHL PUSH1 0x64 DUP3 ADD MSTORE PUSH1 0x84 SWAP1 REVERT JUMPDEST PUSH3 0x18B SWAP1 PUSH3 0xD80 PUSH3 0xD4A ADDRESS PUSH3 0x26F JUMP JUMPDEST PUSH3 0xD79 PUSH3 0xB3F PUSH32 0x0 PUSH3 0x17F JUMP JUMPDEST EQ PUSH3 0xCC8 JUMP JUMPDEST PUSH3 0xDB1 JUMP JUMPDEST PUSH3 0x18B PUSH32 0x360894A13BA1A3210667C828492DB98DCA3E2076CC3735A920A3CA505D382BBC PUSH3 0x9AE JUMP JUMPDEST POP PUSH3 0x18B PUSH3 0xD86 JUMP JUMPDEST PUSH3 0x18B PUSH1 0x0 PUSH3 0xD36 JUMP JUMPDEST PUSH3 0x18B SWAP1 PUSH3 0x17F JUMP JUMPDEST PUSH3 0x18B SWAP1 SLOAD PUSH3 0xDC8 JUMP JUMPDEST SWAP1 PUSH3 0xDFD PUSH3 0xDF1 PUSH3 0x484 DUP5 SLOAD SWAP1 JUMP JUMPDEST SWAP3 PUSH1 0x0 MSTORE PUSH1 0x20 PUSH1 0x0 KECCAK256 SWAP1 JUMP JUMPDEST SWAP1 PUSH1 0x0 JUMPDEST DUP2 DUP2 LT PUSH3 0xE0F JUMPI POP POP POP SWAP1 JUMP JUMPDEST SWAP1 SWAP2 SWAP3 PUSH3 0xE35 PUSH3 0xE2E PUSH1 0x1 SWAP3 PUSH3 0xE28 DUP8 PUSH3 0xDD3 JUMP JUMPDEST PUSH3 0x463 JUMP JUMPDEST SWAP5 PUSH1 0x1 ADD SWAP1 JUMP JUMPDEST SWAP3 SWAP2 ADD PUSH3 0xE01 JUMP JUMPDEST SWAP1 PUSH3 0x18B SWAP2 PUSH3 0xDDF JUMP JUMPDEST SWAP1 PUSH3 0x1AF PUSH3 0xE68 SWAP3 PUSH3 0xE5E PUSH1 0x40 MLOAD SWAP1 JUMP JUMPDEST SWAP4 DUP5 DUP1 SWAP3 PUSH3 0xE3E JUMP JUMPDEST SUB DUP4 PUSH3 0x32F JUMP JUMPDEST PUSH3 0x18B SWAP1 PUSH3 0xE4A JUMP JUMPDEST PUSH3 0x18B PUSH1 0xFD PUSH3 0xE70 JUMP JUMPDEST PUSH3 0xE91 PUSH3 0x19B8 JUMP JUMPDEST PUSH3 0x1AF PUSH3 0xEB6 JUMP JUMPDEST PUSH3 0x17F PUSH3 0x18B PUSH3 0x18B SWAP3 SWAP1 JUMP JUMPDEST PUSH3 0x18B SWAP1 PUSH3 0xE9B JUMP JUMPDEST PUSH3 0x1AF PUSH3 0xEC6 PUSH1 0x0 PUSH3 0xEAB JUMP JUMPDEST PUSH3 0x1A08 JUMP JUMPDEST PUSH3 0x1AF PUSH3 0xE87 JUMP JUMPDEST SWAP1 PUSH3 0xEF7 SWAP13 SWAP12 SWAP11 SWAP10 SWAP9 SWAP8 SWAP7 SWAP6 SWAP5 SWAP4 SWAP3 SWAP2 PUSH3 0xEF1 PUSH3 0x1ABB JUMP JUMPDEST PUSH3 0x116C JUMP JUMPDEST SWAP1 PUSH3 0x1AF PUSH3 0x1AF7 JUMP JUMPDEST ISZERO PUSH3 0xF0A JUMPI JUMP JUMPDEST PUSH1 0x40 MLOAD PUSH3 0x461BCD PUSH1 0xE5 SHL DUP2 MSTORE PUSH1 0x20 PUSH1 0x4 DUP3 ADD MSTORE PUSH1 0x1B PUSH1 0x24 DUP3 ADD MSTORE PUSH27 0x496E73756666696369656E74206465706C6F796D656E7420666565 PUSH1 0x28 SHL PUSH1 0x44 DUP3 ADD MSTORE PUSH1 0x64 SWAP1 REVERT JUMPDEST PUSH3 0x18B PUSH2 0x1A0 PUSH3 0x357 JUMP JUMPDEST SWAP1 PUSH3 0x199 SWAP1 PUSH3 0x17F JUMP JUMPDEST SWAP1 PUSH3 0x18B SWAP1 PUSH2 0x180 DUP1 PUSH3 0xFA3 PUSH3 0xF90 PUSH2 0x1A0 DUP6 ADD PUSH1 0x0 DUP9 ADD MLOAD DUP7 DUP3 SUB PUSH1 0x0 DUP9 ADD MSTORE PUSH3 0x8F5 JUMP JUMPDEST PUSH1 0x20 DUP8 ADD MLOAD DUP6 DUP3 SUB PUSH1 0x20 DUP8 ADD MSTORE PUSH3 0x8F5 JUMP JUMPDEST SWAP5 PUSH3 0xFB4 PUSH1 0x40 DUP3 ADD MLOAD PUSH1 0x40 DUP7 ADD MSTORE JUMP JUMPDEST PUSH3 0xFC4 PUSH1 0x60 DUP3 ADD MLOAD PUSH1 0x60 DUP7 ADD MSTORE JUMP JUMPDEST PUSH3 0xFD8 PUSH1 0x80 DUP3 ADD MLOAD PUSH1 0x80 DUP7 ADD SWAP1 PUSH3 0x18E JUMP JUMPDEST PUSH1 0xA0 DUP2 DUP2 ADD MLOAD ISZERO ISZERO SWAP1 DUP6 ADD MSTORE PUSH1 0xC0 DUP2 DUP2 ADD MLOAD ISZERO ISZERO SWAP1 DUP6 ADD MSTORE PUSH3 0x1000 PUSH1 0xE0 DUP3 ADD MLOAD PUSH1 0xE0 DUP7 ADD MSTORE JUMP JUMPDEST PUSH3 0x1012 PUSH2 0x100 DUP3 ADD MLOAD PUSH2 0x100 DUP7 ADD MSTORE JUMP JUMPDEST PUSH3 0x1024 PUSH2 0x120 DUP3 ADD MLOAD PUSH2 0x120 DUP7 ADD MSTORE JUMP JUMPDEST PUSH3 0x1036 PUSH2 0x140 DUP3 ADD MLOAD PUSH2 0x140 DUP7 ADD MSTORE JUMP JUMPDEST PUSH3 0x1048 PUSH2 0x160 DUP3 ADD MLOAD PUSH2 0x160 DUP7 ADD MSTORE JUMP JUMPDEST ADD MLOAD SWAP2 ADD MSTORE JUMP JUMPDEST PUSH1 0x20 DUP1 DUP3 MSTORE PUSH3 0x18B SWAP3 SWAP2 ADD SWAP1 PUSH3 0xF66 JUMP JUMPDEST SWAP2 PUSH3 0x18B SWAP3 PUSH3 0x107C PUSH1 0x40 DUP3 ADD SWAP4 PUSH1 0x0 DUP4 ADD SWAP1 PUSH3 0x18E JUMP JUMPDEST PUSH1 0x20 DUP2 DUP5 SUB SWAP2 ADD MSTORE PUSH3 0x8F5 JUMP JUMPDEST PUSH1 0x40 MLOAD RETURNDATASIZE PUSH1 0x0 DUP3 RETURNDATACOPY RETURNDATASIZE SWAP1 REVERT JUMPDEST SWAP2 PUSH1 0x1 PUSH1 0x1 PUSH1 0xA0 SHL SUB PUSH1 0x8 SWAP3 SWAP1 SWAP3 MUL SWAP2 DUP3 SHL SWAP2 SHL JUMPDEST SWAP2 DUP2 NOT AND SWAP2 AND OR SWAP1 JUMP JUMPDEST SWAP2 SWAP1 PUSH3 0x10CA PUSH3 0x18B PUSH3 0x10D3 SWAP4 PUSH3 0x26F JUMP JUMPDEST SWAP1 DUP4 SLOAD PUSH3 0x1096 JUMP JUMPDEST SWAP1 SSTORE JUMP JUMPDEST DUP1 SLOAD SWAP2 SWAP1 PUSH1 0x1 PUSH1 0x40 SHL DUP4 LT ISZERO PUSH3 0x351 JUMPI DUP3 PUSH3 0x10FE SWAP2 PUSH1 0x1 PUSH3 0x1AF SWAP6 ADD DUP2 SSTORE PUSH3 0x78C JUMP JUMPDEST SWAP1 PUSH3 0x10B5 JUMP JUMPDEST SWAP2 SWAP5 PUSH3 0x1161 PUSH3 0x1155 PUSH1 0xA0 SWAP6 PUSH3 0x1146 PUSH3 0x1168 SWAP6 PUSH3 0x1AF SWAP11 SWAP13 SWAP12 SWAP10 SWAP13 PUSH3 0x1138 PUSH1 0xC0 DUP11 ADD SWAP3 PUSH1 0x0 DUP12 ADD SWAP1 PUSH3 0x18E JUMP JUMPDEST DUP9 DUP3 SUB PUSH1 0x20 DUP11 ADD MSTORE PUSH3 0x8F5 JUMP JUMPDEST SWAP1 DUP7 DUP3 SUB PUSH1 0x40 DUP9 ADD MSTORE PUSH3 0x8F5 JUMP JUMPDEST SWAP9 PUSH1 0x60 DUP6 ADD SWAP1 PUSH3 0x18E JUMP JUMPDEST PUSH1 0x80 DUP4 ADD MSTORE JUMP JUMPDEST ADD MSTORE JUMP JUMPDEST SWAP12 SWAP11 SWAP12 SWAP10 SWAP7 SWAP4 SWAP1 SWAP10 SWAP9 SWAP6 SWAP3 SWAP8 SWAP5 SWAP2 SWAP9 POP CALLER PUSH3 0x1188 SWAP1 PUSH3 0x9BE JUMP JUMPDEST CALLVALUE LT ISZERO PUSH3 0x1196 SWAP1 PUSH3 0xF02 JUMP JUMPDEST PUSH3 0x11A0 PUSH3 0xF4D JUMP JUMPDEST DUP11 DUP2 MSTORE SWAP8 PUSH1 0x20 DUP10 ADD DUP11 SWAP1 MSTORE PUSH3 0x11B7 SWAP1 PUSH1 0x40 DUP11 ADD MSTORE JUMP JUMPDEST PUSH1 0x60 DUP9 ADD MSTORE PUSH3 0x11CB CALLER PUSH1 0x80 DUP10 ADD PUSH3 0xF5A JUMP JUMPDEST ISZERO ISZERO PUSH1 0xA0 DUP8 ADD MSTORE ISZERO ISZERO PUSH1 0xC0 DUP7 ADD MSTORE PUSH1 0xE0 DUP6 ADD MSTORE PUSH2 0x100 DUP5 ADD MSTORE PUSH2 0x120 DUP4 ADD MSTORE PUSH2 0x140 DUP3 ADD MSTORE PUSH3 0x11FD DUP6 PUSH2 0x160 DUP4 ADD MSTORE JUMP JUMPDEST PUSH3 0x120A DUP5 PUSH2 0x180 DUP4 ADD MSTORE JUMP JUMPDEST PUSH1 0x40 MLOAD PUSH4 0xDBC8D2B PUSH1 0xE2 SHL PUSH1 0x20 DUP3 ADD MSTORE SWAP1 DUP2 SWAP1 PUSH3 0x122C SWAP1 PUSH1 0x24 DUP4 ADD PUSH3 0x104F JUMP JUMPDEST PUSH1 0x20 DUP3 ADD DUP2 SUB DUP3 MSTORE SUB PUSH3 0x1241 SWAP1 DUP3 PUSH3 0x32F JUMP JUMPDEST PUSH3 0x126C PUSH32 0x0 PUSH3 0x26F JUMP JUMPDEST PUSH1 0x40 MLOAD SWAP2 PUSH2 0x5E9 DUP4 ADD SWAP1 PUSH1 0x1 PUSH1 0x1 PUSH1 0x40 SHL SUB DUP3 GT DUP5 DUP4 LT OR PUSH3 0x351 JUMPI DUP4 SWAP3 PUSH3 0x129F SWAP3 PUSH2 0x5E9 PUSH3 0x1EBA DUP7 CODECOPY PUSH3 0x1062 JUMP JUMPDEST SUB SWAP1 PUSH1 0x0 CREATE DUP1 ISZERO PUSH3 0x1300 JUMPI PUSH32 0x42BBFBB52E42E649EC7C181638A6969B047F19FAAE102187A8957860D5284B7A SWAP4 PUSH3 0x12DC PUSH3 0x12FA SWAP3 PUSH3 0x26F JUMP JUMPDEST SWAP6 PUSH3 0x12EA DUP8 PUSH1 0xFD PUSH3 0x10D7 JUMP JUMPDEST PUSH1 0x40 MLOAD SWAP5 DUP6 SWAP5 CALLER SWAP2 DUP10 DUP8 PUSH3 0x1105 JUMP JUMPDEST SUB SWAP1 LOG1 SWAP1 JUMP JUMPDEST PUSH3 0x108A JUMP JUMPDEST PUSH3 0x18B SWAP12 SWAP11 SWAP10 SWAP9 SWAP8 SWAP7 SWAP6 SWAP5 SWAP4 SWAP3 SWAP2 SWAP1 PUSH1 0x0 PUSH3 0xED6 JUMP JUMPDEST PUSH3 0x18B PUSH1 0x33 PUSH3 0xDD3 JUMP JUMPDEST SWAP1 PUSH3 0x1AF SWAP2 PUSH3 0x133A PUSH3 0x19B8 JUMP JUMPDEST PUSH3 0x1367 JUMP JUMPDEST SWAP1 PUSH1 0x0 NOT SWAP1 PUSH3 0x10AB JUMP JUMPDEST SWAP1 PUSH3 0x135F PUSH3 0x18B PUSH3 0x10D3 SWAP3 PUSH3 0x9AE JUMP JUMPDEST DUP3 SLOAD PUSH3 0x1340 JUMP JUMPDEST PUSH3 0x13BA PUSH3 0x13AF PUSH32 0x35250FF587E06567C2FA9D4B3191805958A937530B0E88CFCE4C9C4DCDEF1B3 SWAP3 PUSH3 0x13A9 DUP6 PUSH3 0x13A3 DUP4 PUSH1 0xFC PUSH3 0x697 JUMP JUMPDEST PUSH3 0x134B JUMP JUMPDEST PUSH3 0x26F JUMP JUMPDEST SWAP3 PUSH3 0x241 PUSH1 0x40 MLOAD SWAP1 JUMP JUMPDEST SUB SWAP1 LOG2 JUMP JUMPDEST SWAP1 PUSH3 0x1AF SWAP2 PUSH3 0x132A JUMP JUMPDEST PUSH3 0x1AF SWAP1 PUSH3 0x13DA PUSH3 0x19B8 JUMP JUMPDEST PUSH3 0x13FC PUSH1 0x0 DUP1 MLOAD PUSH1 0x20 PUSH3 0x24A3 DUP4 CODECOPY DUP2 MLOAD SWAP2 MSTORE SWAP2 PUSH3 0x23D DUP2 PUSH1 0xFB PUSH3 0x134B JUMP JUMPDEST SUB SWAP1 LOG1 JUMP JUMPDEST PUSH3 0x1AF SWAP1 PUSH3 0x13CB JUMP JUMPDEST PUSH3 0x1AF SWAP1 PUSH3 0x141B PUSH3 0x19B8 JUMP JUMPDEST PUSH3 0x147D JUMP JUMPDEST ISZERO PUSH3 0x1429 JUMPI JUMP JUMPDEST PUSH1 0x40 MLOAD PUSH3 0x461BCD PUSH1 0xE5 SHL DUP2 MSTORE PUSH1 0x20 PUSH1 0x4 DUP3 ADD MSTORE PUSH1 0x26 PUSH1 0x24 DUP3 ADD MSTORE PUSH32 0x4F776E61626C653A206E6577206F776E657220697320746865207A65726F2061 PUSH1 0x44 DUP3 ADD MSTORE PUSH6 0x646472657373 PUSH1 0xD0 SHL PUSH1 0x64 DUP3 ADD MSTORE PUSH1 0x84 SWAP1 REVERT JUMPDEST PUSH3 0x1AF SWAP1 PUSH3 0xEC6 PUSH3 0x149C PUSH3 0x1496 PUSH1 0x0 PUSH3 0xEAB JUMP JUMPDEST PUSH3 0x17F JUMP JUMPDEST PUSH3 0x14A7 DUP4 PUSH3 0x17F JUMP JUMPDEST EQ ISZERO PUSH3 0x1421 JUMP JUMPDEST PUSH3 0x1AF SWAP1 PUSH3 0x140C JUMP JUMPDEST PUSH3 0x18B SWAP1 PUSH1 0x8 SHR JUMPDEST PUSH1 0xFF AND SWAP1 JUMP JUMPDEST PUSH3 0x18B SWAP1 SLOAD PUSH3 0x14BA JUMP JUMPDEST PUSH3 0x18B SWAP1 PUSH3 0x14C3 JUMP JUMPDEST PUSH3 0x18B SWAP1 SLOAD PUSH3 0x14D5 JUMP JUMPDEST PUSH3 0x14C3 PUSH3 0x18B PUSH3 0x18B SWAP3 SWAP1 JUMP JUMPDEST ISZERO PUSH3 0x1504 JUMPI JUMP JUMPDEST PUSH1 0x40 MLOAD PUSH3 0x461BCD PUSH1 0xE5 SHL DUP2 MSTORE PUSH1 0x20 PUSH1 0x4 DUP3 ADD MSTORE PUSH1 0x2E PUSH1 0x24 DUP3 ADD MSTORE PUSH32 0x496E697469616C697A61626C653A20636F6E747261637420697320616C726561 PUSH1 0x44 DUP3 ADD MSTORE PUSH14 0x191E481A5B9A5D1A585B1A5E9959 PUSH1 0x92 SHL PUSH1 0x64 DUP3 ADD MSTORE PUSH1 0x84 SWAP1 REVERT JUMPDEST SWAP1 PUSH1 0xFF SWAP1 PUSH3 0x10AB JUMP JUMPDEST PUSH3 0x14C3 PUSH3 0x18B PUSH3 0x18B SWAP3 PUSH1 0xFF AND SWAP1 JUMP JUMPDEST SWAP1 PUSH3 0x1591 PUSH3 0x18B PUSH3 0x10D3 SWAP3 PUSH3 0x156A JUMP JUMPDEST DUP3 SLOAD PUSH3 0x1560 JUMP JUMPDEST SWAP1 PUSH2 0xFF00 SWAP1 PUSH1 0x8 SHL PUSH3 0x10AB JUMP JUMPDEST SWAP1 PUSH3 0x15BA PUSH3 0x18B PUSH3 0x10D3 SWAP3 ISZERO ISZERO SWAP1 JUMP JUMPDEST DUP3 SLOAD PUSH3 0x1599 JUMP JUMPDEST PUSH3 0x199 SWAP1 PUSH3 0x14EC JUMP JUMPDEST PUSH1 0x20 DUP2 ADD SWAP3 SWAP2 PUSH3 0x1AF SWAP2 SWAP1 PUSH3 0x15C2 JUMP JUMPDEST PUSH3 0x1637 PUSH3 0x15F7 PUSH3 0x15F3 PUSH1 0x0 PUSH3 0x14C9 JUMP JUMPDEST ISZERO SWAP1 JUMP JUMPDEST SWAP2 DUP3 DUP1 PUSH3 0x16EA JUMPI JUMPDEST DUP1 ISZERO PUSH3 0x1698 JUMPI JUMPDEST PUSH3 0x1613 SWAP1 PUSH3 0x14FC JUMP JUMPDEST DUP3 PUSH3 0x162C PUSH3 0x1624 PUSH1 0x1 PUSH3 0x14EC JUMP JUMPDEST PUSH1 0x0 PUSH3 0x157D JUMP JUMPDEST PUSH3 0x1684 JUMPI PUSH3 0x170E JUMP JUMPDEST PUSH3 0x163E JUMPI JUMP JUMPDEST PUSH3 0x164B PUSH1 0x0 DUP1 PUSH3 0x15A7 JUMP JUMPDEST PUSH32 0x7F26B83FF96E1F2B6A682F133852F6798A09C465DA95921460CEFB3847402498 PUSH3 0x1676 PUSH1 0x40 MLOAD SWAP1 JUMP JUMPDEST DUP1 PUSH3 0x13FC PUSH1 0x1 DUP3 PUSH3 0x15CD JUMP JUMPDEST PUSH3 0x1692 PUSH1 0x1 PUSH1 0x0 PUSH3 0x15A7 JUMP JUMPDEST PUSH3 0x170E JUMP JUMPDEST POP PUSH3 0x16B2 PUSH3 0x15F3 PUSH3 0x16AC ADDRESS PUSH3 0x26F JUMP JUMPDEST PUSH3 0x1B05 JUMP JUMPDEST DUP1 ISZERO PUSH3 0x1608 JUMPI POP PUSH3 0x1613 PUSH3 0x16CA PUSH1 0x0 PUSH3 0x14E0 JUMP JUMPDEST PUSH3 0x16E1 PUSH3 0x16DA PUSH1 0x1 PUSH3 0x14EC JUMP JUMPDEST SWAP2 PUSH1 0xFF AND SWAP1 JUMP JUMPDEST EQ SWAP1 POP PUSH3 0x1608 JUMP JUMPDEST POP PUSH3 0x16F7 PUSH1 0x0 PUSH3 0x14E0 JUMP JUMPDEST PUSH3 0x1707 PUSH3 0x16DA PUSH1 0x1 PUSH3 0x14EC JUMP JUMPDEST LT PUSH3 0x1600 JUMP JUMPDEST PUSH3 0x13FC PUSH1 0x0 DUP1 MLOAD PUSH1 0x20 PUSH3 0x24A3 DUP4 CODECOPY DUP2 MLOAD SWAP2 MSTORE SWAP2 PUSH3 0x172D PUSH3 0x1B9F JUMP JUMPDEST PUSH3 0x1737 PUSH3 0x1BB9 JUMP JUMPDEST PUSH3 0x1741 PUSH3 0x1BE1 JUMP JUMPDEST PUSH3 0x23D DUP2 PUSH1 0xFB PUSH3 0x134B JUMP JUMPDEST PUSH3 0x1AF SWAP1 PUSH3 0x15DF JUMP JUMPDEST PUSH3 0x18B PUSH1 0x0 PUSH3 0x176D PUSH3 0x18B PUSH3 0xD86 JUMP JUMPDEST ADD PUSH3 0xDD3 JUMP JUMPDEST POP PUSH3 0x1AF PUSH3 0x19B8 JUMP JUMPDEST PUSH3 0x1AF SWAP1 PUSH3 0x1774 JUMP JUMPDEST PUSH3 0x18B PUSH32 0x4910FDFA16FED3260ED0E7147F7CC6DA11A60208B5B9406D12A635614FFD9143 PUSH3 0x9AE JUMP JUMPDEST SWAP1 POP MLOAD SWAP1 PUSH3 0x1AF DUP3 PUSH3 0x52B JUMP JUMPDEST SWAP1 PUSH1 0x20 DUP3 DUP3 SUB SLT PUSH3 0x16E JUMPI PUSH3 0x18B SWAP2 PUSH3 0x17B5 JUMP JUMPDEST ISZERO PUSH3 0x17E3 JUMPI JUMP JUMPDEST PUSH1 0x40 MLOAD PUSH3 0x461BCD PUSH1 0xE5 SHL DUP2 MSTORE PUSH1 0x20 PUSH1 0x4 DUP3 ADD MSTORE PUSH1 0x29 PUSH1 0x24 DUP3 ADD MSTORE PUSH32 0x45524331393637557067726164653A20756E737570706F727465642070726F78 PUSH1 0x44 DUP3 ADD MSTORE PUSH9 0x1A58589B1955555251 PUSH1 0xBA SHL PUSH1 0x64 DUP3 ADD MSTORE PUSH1 0x84 SWAP1 REVERT JUMPDEST SWAP2 SWAP1 PUSH3 0x1857 PUSH1 0x0 PUSH3 0x1850 PUSH3 0x18B PUSH3 0x178A JUMP JUMPDEST ADD PUSH3 0x14E0 JUMP JUMPDEST ISZERO PUSH3 0x186A JUMPI POP POP PUSH3 0x1AF SWAP1 PUSH3 0x1C97 JUMP JUMPDEST PUSH3 0x1879 PUSH3 0x13A9 DUP5 PUSH3 0x26F JUMP JUMPDEST SWAP3 PUSH1 0x20 PUSH3 0x1886 PUSH1 0x40 MLOAD SWAP1 JUMP JUMPDEST PUSH4 0x52D1902D PUSH1 0xE0 SHL DUP2 MSTORE SWAP5 DUP6 SWAP1 PUSH1 0x4 SWAP1 DUP3 SWAP1 GAS STATICCALL PUSH1 0x0 SWAP5 DUP2 PUSH3 0x192E JUMPI JUMPDEST POP PUSH3 0x1906 JUMPI PUSH1 0x40 MLOAD PUSH3 0x461BCD PUSH1 0xE5 SHL DUP2 MSTORE PUSH1 0x20 PUSH1 0x4 DUP3 ADD MSTORE PUSH1 0x2E PUSH1 0x24 DUP3 ADD MSTORE PUSH32 0x45524331393637557067726164653A206E657720696D706C656D656E74617469 PUSH1 0x44 DUP3 ADD MSTORE PUSH14 0x6F6E206973206E6F742055555053 PUSH1 0x90 SHL PUSH1 0x64 DUP3 ADD MSTORE PUSH1 0x84 SWAP1 REVERT JUMPDEST PUSH3 0x1928 PUSH3 0x1AF SWAP5 PUSH3 0x1921 PUSH3 0xA43 PUSH3 0x18B PUSH3 0xD86 JUMP JUMPDEST EQ PUSH3 0x17DB JUMP JUMPDEST PUSH3 0x1BEB JUMP JUMPDEST PUSH3 0x1956 SWAP2 SWAP6 POP PUSH1 0x20 RETURNDATASIZE PUSH1 0x20 GT PUSH3 0x195E JUMPI JUMPDEST PUSH3 0x194D DUP2 DUP4 PUSH3 0x32F JUMP JUMPDEST DUP2 ADD SWAP1 PUSH3 0x17C4 JUMP JUMPDEST SWAP4 CODESIZE PUSH3 0x18A4 JUMP JUMPDEST POP RETURNDATASIZE PUSH3 0x1941 JUMP JUMPDEST ISZERO PUSH3 0x196E JUMPI JUMP JUMPDEST PUSH1 0x40 MLOAD PUSH3 0x461BCD PUSH1 0xE5 SHL DUP2 MSTORE DUP1 PUSH3 0xAA1 PUSH1 0x4 DUP3 ADD PUSH1 0x20 DUP1 DUP3 MSTORE DUP2 DUP2 ADD MSTORE PUSH32 0x4F776E61626C653A2063616C6C6572206973206E6F7420746865206F776E6572 PUSH1 0x40 DUP3 ADD MSTORE PUSH1 0x60 ADD SWAP1 JUMP JUMPDEST PUSH3 0x1AF PUSH3 0x19C6 PUSH3 0x131E JUMP JUMPDEST PUSH3 0x19D5 PUSH3 0xB3F CALLER PUSH3 0x17F JUMP JUMPDEST EQ PUSH3 0x1966 JUMP JUMPDEST SWAP1 PUSH1 0x1 PUSH1 0x1 PUSH1 0xA0 SHL SUB SWAP1 PUSH3 0x10AB JUMP JUMPDEST SWAP1 PUSH3 0x1A00 PUSH3 0x18B PUSH3 0x10D3 SWAP3 PUSH3 0x26F JUMP JUMPDEST DUP3 SLOAD PUSH3 0x19DC JUMP JUMPDEST PUSH3 0x1A30 PUSH3 0x1A29 PUSH3 0x1A1C PUSH1 0x33 PUSH3 0xDD3 JUMP JUMPDEST PUSH3 0x13A9 DUP5 PUSH1 0x33 PUSH3 0x19EC JUMP JUMPDEST SWAP2 PUSH3 0x26F JUMP JUMPDEST SWAP1 PUSH32 0x8BE0079C531659141344CD1FD0A4F28419497F9722A3DAAFE3B4186F6B6457E0 PUSH3 0x1A5C PUSH1 0x40 MLOAD SWAP1 JUMP JUMPDEST PUSH1 0x0 SWAP1 LOG3 JUMP JUMPDEST PUSH3 0x18B PUSH1 0x2 PUSH3 0x9AE JUMP JUMPDEST ISZERO PUSH3 0x1A76 JUMPI JUMP JUMPDEST PUSH1 0x40 MLOAD PUSH3 0x461BCD PUSH1 0xE5 SHL DUP2 MSTORE PUSH1 0x20 PUSH1 0x4 DUP3 ADD MSTORE PUSH1 0x1F PUSH1 0x24 DUP3 ADD MSTORE PUSH32 0x5265656E7472616E637947756172643A207265656E7472616E742063616C6C00 PUSH1 0x44 DUP3 ADD MSTORE PUSH1 0x64 SWAP1 REVERT JUMPDEST PUSH3 0x1AF PUSH3 0x1ACB PUSH1 0xC9 PUSH3 0x9A2 JUMP JUMPDEST PUSH3 0x1AE3 PUSH3 0x1AD9 PUSH3 0x1A62 JUMP JUMPDEST SWAP2 DUP3 EQ ISZERO PUSH3 0x1A6E JUMP JUMPDEST PUSH1 0xC9 PUSH3 0x134B JUMP JUMPDEST PUSH3 0x18B PUSH1 0x1 PUSH3 0x9AE JUMP JUMPDEST PUSH3 0x1AF PUSH3 0x1AE3 PUSH3 0x1AEB JUMP JUMPDEST EXTCODESIZE PUSH3 0x1B16 PUSH3 0xA43 PUSH1 0x0 PUSH3 0x9AE JUMP JUMPDEST GT SWAP1 JUMP JUMPDEST ISZERO PUSH3 0x1B22 JUMPI JUMP JUMPDEST PUSH1 0x40 MLOAD PUSH3 0x461BCD PUSH1 0xE5 SHL DUP2 MSTORE PUSH1 0x20 PUSH1 0x4 DUP3 ADD MSTORE PUSH1 0x2B PUSH1 0x24 DUP3 ADD MSTORE PUSH32 0x496E697469616C697A61626C653A20636F6E7472616374206973206E6F742069 PUSH1 0x44 DUP3 ADD MSTORE PUSH11 0x6E697469616C697A696E67 PUSH1 0xA8 SHL PUSH1 0x64 DUP3 ADD MSTORE PUSH1 0x84 SWAP1 REVERT JUMPDEST PUSH3 0x1B91 PUSH3 0x1B8B PUSH1 0x0 PUSH3 0x14C9 JUMP JUMPDEST PUSH3 0x1B1A JUMP JUMPDEST PUSH3 0x1AF PUSH3 0x1AF PUSH3 0x1CE4 JUMP JUMPDEST PUSH3 0x1AF PUSH3 0x1B7B JUMP JUMPDEST PUSH3 0x1AF PUSH3 0x1B8B PUSH1 0x0 PUSH3 0x14C9 JUMP JUMPDEST PUSH3 0x1AF PUSH3 0x1BA9 JUMP JUMPDEST PUSH3 0x1BD3 PUSH3 0x1B8B PUSH1 0x0 PUSH3 0x14C9 JUMP JUMPDEST PUSH3 0x1AF PUSH3 0x1AF PUSH3 0x1D08 JUMP JUMPDEST PUSH3 0x1AF PUSH3 0x1BC3 JUMP JUMPDEST SWAP2 PUSH3 0x1BF7 DUP4 PUSH3 0x1D12 JUMP JUMPDEST DUP2 MLOAD PUSH3 0x1C09 PUSH3 0xA43 PUSH1 0x0 PUSH3 0x9AE JUMP JUMPDEST GT SWAP1 DUP2 ISZERO PUSH3 0x1C2B JUMPI JUMPDEST POP PUSH3 0x1C1D JUMPI POP POP JUMP JUMPDEST PUSH3 0x1C28 SWAP2 PUSH3 0x1DA4 JUMP JUMPDEST POP JUMP JUMPDEST SWAP1 POP CODESIZE PUSH3 0x1C13 JUMP JUMPDEST ISZERO PUSH3 0x1C3C JUMPI JUMP JUMPDEST PUSH1 0x40 MLOAD PUSH3 0x461BCD PUSH1 0xE5 SHL DUP2 MSTORE PUSH1 0x20 PUSH1 0x4 DUP3 ADD MSTORE PUSH1 0x2D PUSH1 0x24 DUP3 ADD MSTORE PUSH32 0x455243313936373A206E657720696D706C656D656E746174696F6E206973206E PUSH1 0x44 DUP3 ADD MSTORE PUSH13 0x1BDD08184818DBDB9D1C9858DD PUSH1 0x9A SHL PUSH1 0x64 DUP3 ADD MSTORE PUSH1 0x84 SWAP1 REVERT JUMPDEST PUSH3 0x1AF SWAP1 PUSH3 0x1CB1 PUSH3 0x1CAB DUP3 PUSH3 0x1B05 JUMP JUMPDEST PUSH3 0x1C34 JUMP JUMPDEST PUSH1 0x0 PUSH3 0x1CC1 PUSH3 0x18B PUSH3 0xD86 JUMP JUMPDEST ADD PUSH3 0x19EC JUMP JUMPDEST PUSH3 0x1CD8 PUSH3 0x1B8B PUSH1 0x0 PUSH3 0x14C9 JUMP JUMPDEST PUSH3 0x1AF DUP1 CALLER PUSH3 0x1A08 JUMP JUMPDEST PUSH3 0x1AF PUSH3 0x1CC8 JUMP JUMPDEST PUSH3 0x1CFE PUSH3 0x1B8B PUSH1 0x0 PUSH3 0x14C9 JUMP JUMPDEST PUSH3 0x1AF PUSH3 0x1AF7 JUMP JUMPDEST PUSH3 0x1AF PUSH3 0x1CEE JUMP JUMPDEST PUSH3 0x1D22 SWAP1 PUSH3 0x13A9 DUP2 PUSH3 0x1C97 JUMP JUMPDEST PUSH32 0xBC7CD75A20EE27FD9ADEBAB32041F755214DBC6BFFA90CC0225B39DA2E5C2D3B PUSH3 0x1D4D PUSH1 0x40 MLOAD SWAP1 JUMP JUMPDEST DUP1 DUP1 PUSH3 0x13BA JUMP JUMPDEST PUSH3 0x1D61 PUSH1 0x27 PUSH3 0x880 JUMP JUMPDEST PUSH32 0x416464726573733A206C6F772D6C6576656C2064656C65676174652063616C6C PUSH1 0x20 DUP3 ADD MSTORE PUSH7 0x819985A5B1959 PUSH1 0xCA SHL PUSH1 0x40 DUP3 ADD MSTORE SWAP1 JUMP JUMPDEST PUSH3 0x18B PUSH3 0x1D55 JUMP JUMPDEST PUSH3 0x18B SWAP2 PUSH3 0x1DB3 PUSH3 0x1D9A JUMP JUMPDEST SWAP2 PUSH1 0x0 DUP1 PUSH3 0x18B SWAP5 SWAP4 PUSH3 0x1DC6 PUSH1 0x60 SWAP1 JUMP JUMPDEST POP PUSH1 0x20 DUP2 MLOAD SWAP2 ADD DUP5 GAS DELEGATECALL PUSH3 0x1DDA PUSH3 0xBEF JUMP JUMPDEST SWAP2 PUSH3 0x1E2E JUMP JUMPDEST ISZERO PUSH3 0x1DE9 JUMPI JUMP JUMPDEST PUSH1 0x40 MLOAD PUSH3 0x461BCD PUSH1 0xE5 SHL DUP2 MSTORE PUSH1 0x20 PUSH1 0x4 DUP3 ADD MSTORE PUSH1 0x1D PUSH1 0x24 DUP3 ADD MSTORE PUSH32 0x416464726573733A2063616C6C20746F206E6F6E2D636F6E7472616374000000 PUSH1 0x44 DUP3 ADD MSTORE PUSH1 0x64 SWAP1 REVERT JUMPDEST SWAP2 SWAP3 SWAP1 ISZERO PUSH3 0x1E69 JUMPI POP DUP2 MLOAD PUSH3 0x1E4A PUSH3 0xA43 PUSH1 0x0 PUSH3 0x9AE JUMP JUMPDEST EQ PUSH3 0x1E54 JUMPI POP SWAP1 JUMP JUMPDEST PUSH3 0x1E63 PUSH3 0x18B SWAP2 PUSH3 0x1B05 JUMP JUMPDEST PUSH3 0x1DE1 JUMP JUMPDEST DUP3 SWAP1 PUSH3 0x1E74 DUP3 MLOAD SWAP1 JUMP JUMPDEST PUSH3 0x1E84 PUSH3 0xA43 PUSH1 0x0 PUSH3 0x9AE JUMP JUMPDEST GT ISZERO PUSH3 0x1E94 JUMPI POP DUP1 MLOAD SWAP1 PUSH1 0x20 ADD REVERT JUMPDEST PUSH3 0xAA1 SWAP1 PUSH3 0x1EA3 PUSH1 0x40 MLOAD SWAP1 JUMP JUMPDEST PUSH3 0x461BCD PUSH1 0xE5 SHL DUP2 MSTORE SWAP2 DUP3 SWAP2 PUSH1 0x4 DUP4 ADD PUSH3 0x92E JUMP INVALID PUSH1 0x80 PUSH1 0x40 MSTORE PUSH2 0x15 PUSH2 0xF PUSH2 0x16A JUMP JUMPDEST SWAP1 PUSH2 0x18C JUMP JUMPDEST PUSH1 0x40 MLOAD PUSH1 0xC3 PUSH2 0x526 DUP3 CODECOPY PUSH1 0xC3 SWAP1 RETURN JUMPDEST PUSH4 0x4E487B71 PUSH1 0xE0 SHL PUSH1 0x0 MSTORE PUSH1 0x41 PUSH1 0x4 MSTORE PUSH1 0x24 PUSH1 0x0 REVERT JUMPDEST SWAP1 PUSH1 0x1F ADD PUSH1 0x1F NOT AND DUP2 ADD SWAP1 DUP2 LT PUSH1 0x1 PUSH1 0x1 PUSH1 0x40 SHL SUB DUP3 GT OR PUSH2 0x5B JUMPI PUSH1 0x40 MSTORE JUMP JUMPDEST PUSH2 0x24 JUMP JUMPDEST SWAP1 PUSH2 0x74 PUSH2 0x6D PUSH1 0x40 MLOAD SWAP1 JUMP JUMPDEST SWAP3 DUP4 PUSH2 0x3A JUMP JUMPDEST JUMP JUMPDEST PUSH1 0x1 PUSH1 0x1 PUSH1 0xA0 SHL SUB AND SWAP1 JUMP JUMPDEST SWAP1 JUMP JUMPDEST PUSH2 0x8E DUP2 PUSH2 0x76 JUMP JUMPDEST SUB PUSH2 0x95 JUMPI JUMP JUMPDEST PUSH1 0x0 DUP1 REVERT JUMPDEST SWAP1 POP MLOAD SWAP1 PUSH2 0x74 DUP3 PUSH2 0x85 JUMP JUMPDEST PUSH1 0x1 PUSH1 0x1 PUSH1 0x40 SHL SUB DUP2 GT PUSH2 0x5B JUMPI PUSH1 0x20 SWAP1 PUSH1 0x1F ADD PUSH1 0x1F NOT AND ADD SWAP1 JUMP JUMPDEST ADD SWAP1 JUMP JUMPDEST PUSH1 0x0 JUMPDEST DUP4 DUP2 LT PUSH2 0xDA JUMPI POP POP PUSH1 0x0 SWAP2 ADD MSTORE JUMP JUMPDEST DUP2 DUP2 ADD MLOAD DUP4 DUP3 ADD MSTORE PUSH1 0x20 ADD PUSH2 0xCA JUMP JUMPDEST SWAP1 SWAP3 SWAP2 SWAP3 PUSH2 0xFF PUSH2 0xFA DUP3 PUSH2 0xA7 JUMP JUMPDEST PUSH2 0x60 JUMP JUMPDEST SWAP4 DUP2 DUP6 MSTORE DUP2 DUP4 ADD GT PUSH2 0x95 JUMPI PUSH2 0x74 SWAP2 PUSH1 0x20 DUP6 ADD SWAP1 PUSH2 0xC7 JUMP JUMPDEST SWAP1 DUP1 PUSH1 0x1F DUP4 ADD SLT ISZERO PUSH2 0x95 JUMPI DUP2 MLOAD PUSH2 0x82 SWAP3 PUSH1 0x20 ADD PUSH2 0xEA JUMP JUMPDEST SWAP2 SWAP1 SWAP2 PUSH1 0x40 DUP2 DUP5 SUB SLT PUSH2 0x95 JUMPI PUSH2 0x14A DUP4 DUP3 PUSH2 0x9A JUMP JUMPDEST PUSH1 0x20 DUP3 ADD MLOAD SWAP1 SWAP4 SWAP1 PUSH1 0x1 PUSH1 0x1 PUSH1 0x40 SHL SUB DUP2 GT PUSH2 0x95 JUMPI PUSH2 0x82 SWAP3 ADD PUSH2 0x119 JUMP JUMPDEST PUSH2 0x188 PUSH2 0x5E9 DUP1 CODESIZE SUB DUP1 PUSH2 0x17D DUP2 PUSH2 0x60 JUMP JUMPDEST SWAP3 DUP4 CODECOPY DUP2 ADD SWAP1 PUSH2 0x133 JUMP JUMPDEST SWAP1 SWAP2 JUMP JUMPDEST PUSH2 0x74 SWAP2 PUSH1 0x0 SWAP2 PUSH2 0x1A5 JUMP JUMPDEST PUSH2 0x82 PUSH2 0x82 PUSH2 0x82 SWAP3 SWAP1 JUMP JUMPDEST SWAP2 PUSH2 0x1AF DUP4 PUSH2 0x20E JUMP JUMPDEST DUP2 MLOAD PUSH2 0x1C2 PUSH2 0x1BE PUSH1 0x0 PUSH2 0x198 JUMP JUMPDEST SWAP2 SWAP1 JUMP JUMPDEST GT SWAP1 DUP2 ISZERO PUSH2 0x1E0 JUMPI JUMPDEST POP PUSH2 0x1D4 JUMPI POP POP JUMP JUMPDEST PUSH2 0x1DD SWAP2 PUSH2 0x2AD JUMP JUMPDEST POP JUMP JUMPDEST SWAP1 POP CODESIZE PUSH2 0x1CB JUMP JUMPDEST PUSH2 0x82 SWAP1 PUSH2 0x76 SWAP1 PUSH1 0x1 PUSH1 0x1 PUSH1 0xA0 SHL SUB AND DUP3 JUMP JUMPDEST PUSH2 0x82 SWAP1 PUSH2 0x1E8 JUMP JUMPDEST PUSH2 0x82 SWAP1 PUSH2 0x1FC JUMP JUMPDEST PUSH2 0x220 SWAP1 PUSH2 0x21B DUP2 PUSH2 0x389 JUMP JUMPDEST PUSH2 0x205 JUMP JUMPDEST PUSH32 0xBC7CD75A20EE27FD9ADEBAB32041F755214DBC6BFFA90CC0225B39DA2E5C2D3B PUSH2 0x24A PUSH1 0x40 MLOAD SWAP1 JUMP JUMPDEST PUSH1 0x0 SWAP1 LOG2 JUMP JUMPDEST SWAP1 PUSH2 0x25D PUSH2 0xFA DUP4 PUSH2 0xA7 JUMP JUMPDEST SWAP2 DUP3 MSTORE JUMP JUMPDEST PUSH2 0x26C PUSH1 0x27 PUSH2 0x250 JUMP JUMPDEST PUSH32 0x416464726573733A206C6F772D6C6576656C2064656C65676174652063616C6C PUSH1 0x20 DUP3 ADD MSTORE PUSH7 0x819985A5B1959 PUSH1 0xCA SHL PUSH1 0x40 DUP3 ADD MSTORE SWAP1 JUMP JUMPDEST PUSH2 0x82 PUSH2 0x262 JUMP JUMPDEST PUSH2 0x82 SWAP2 PUSH2 0x2B9 PUSH2 0x2A5 JUMP JUMPDEST SWAP2 PUSH2 0x3D0 JUMP JUMPDEST PUSH1 0x20 DUP1 DUP3 MSTORE PUSH1 0x2D SWAP1 DUP3 ADD MSTORE PUSH32 0x455243313936373A206E657720696D706C656D656E746174696F6E206973206E PUSH1 0x40 DUP3 ADD MSTORE PUSH13 0x1BDD08184818DBDB9D1C9858DD PUSH1 0x9A SHL PUSH1 0x60 DUP3 ADD MSTORE PUSH1 0x80 ADD SWAP1 JUMP JUMPDEST ISZERO PUSH2 0x313 JUMPI JUMP JUMPDEST PUSH1 0x40 MLOAD PUSH3 0x461BCD PUSH1 0xE5 SHL DUP2 MSTORE DUP1 PUSH2 0x32C PUSH1 0x4 DUP3 ADD PUSH2 0x2BF JUMP JUMPDEST SUB SWAP1 REVERT JUMPDEST PUSH2 0x82 PUSH32 0x360894A13BA1A3210667C828492DB98DCA3E2076CC3735A920A3CA505D382BBC PUSH2 0x198 JUMP JUMPDEST SWAP1 PUSH2 0x369 PUSH2 0x82 PUSH2 0x385 SWAP3 PUSH2 0x205 JUMP JUMPDEST DUP3 SLOAD PUSH1 0x1 PUSH1 0x1 PUSH1 0xA0 SHL SUB NOT AND PUSH1 0x1 PUSH1 0x1 PUSH1 0xA0 SHL SUB SWAP2 SWAP1 SWAP2 AND OR SWAP1 JUMP JUMPDEST SWAP1 SSTORE JUMP JUMPDEST PUSH2 0x74 SWAP1 PUSH2 0x39E PUSH2 0x399 DUP3 PUSH2 0x3F8 JUMP JUMPDEST PUSH2 0x30C JUMP JUMPDEST PUSH1 0x0 PUSH2 0x3AB PUSH2 0x82 PUSH2 0x330 JUMP JUMPDEST ADD PUSH2 0x359 JUMP JUMPDEST RETURNDATASIZE ISZERO PUSH2 0x3CB JUMPI PUSH2 0x3C0 RETURNDATASIZE PUSH2 0x250 JUMP JUMPDEST SWAP1 RETURNDATASIZE PUSH1 0x0 PUSH1 0x20 DUP5 ADD RETURNDATACOPY JUMP JUMPDEST PUSH1 0x60 SWAP1 JUMP JUMPDEST PUSH1 0x0 DUP1 PUSH2 0x82 SWAP5 SWAP4 PUSH2 0x3E0 PUSH1 0x60 SWAP1 JUMP JUMPDEST POP PUSH1 0x20 DUP2 MLOAD SWAP2 ADD DUP5 GAS DELEGATECALL PUSH2 0x3F2 PUSH2 0x3B1 JUMP JUMPDEST SWAP2 PUSH2 0x461 JUMP JUMPDEST EXTCODESIZE PUSH2 0x406 PUSH2 0x1BE PUSH1 0x0 PUSH2 0x198 JUMP JUMPDEST GT SWAP1 JUMP JUMPDEST PUSH1 0x20 DUP1 DUP3 MSTORE PUSH1 0x1D SWAP1 DUP3 ADD MSTORE PUSH32 0x416464726573733A2063616C6C20746F206E6F6E2D636F6E7472616374000000 PUSH1 0x40 DUP3 ADD MSTORE PUSH1 0x60 ADD SWAP1 JUMP JUMPDEST ISZERO PUSH2 0x448 JUMPI JUMP JUMPDEST PUSH1 0x40 MLOAD PUSH3 0x461BCD PUSH1 0xE5 SHL DUP2 MSTORE DUP1 PUSH2 0x32C PUSH1 0x4 DUP3 ADD PUSH2 0x40A JUMP JUMPDEST SWAP2 SWAP3 SWAP1 ISZERO PUSH2 0x493 JUMPI POP DUP2 MLOAD PUSH2 0x479 PUSH2 0x1BE PUSH1 0x0 PUSH2 0x198 JUMP JUMPDEST EQ PUSH2 0x482 JUMPI POP SWAP1 JUMP JUMPDEST PUSH2 0x48E PUSH2 0x82 SWAP2 PUSH2 0x3F8 JUMP JUMPDEST PUSH2 0x441 JUMP JUMPDEST DUP3 PUSH2 0x4DE JUMP JUMPDEST PUSH2 0x4BA PUSH2 0x4C3 PUSH1 0x20 SWAP4 PUSH2 0xC3 SWAP4 PUSH2 0x4AE DUP2 MLOAD SWAP1 JUMP JUMPDEST DUP1 DUP4 MSTORE SWAP4 DUP5 SWAP3 PUSH1 0x20 ADD SWAP1 JUMP JUMPDEST SWAP6 DUP7 SWAP2 ADD PUSH2 0xC7 JUMP JUMPDEST PUSH1 0x1F ADD PUSH1 0x1F NOT AND SWAP1 JUMP JUMPDEST PUSH1 0x20 DUP1 DUP3 MSTORE PUSH2 0x82 SWAP3 SWAP2 ADD SWAP1 PUSH2 0x499 JUMP JUMPDEST SWAP1 PUSH2 0x4E7 DUP3 MLOAD SWAP1 JUMP JUMPDEST PUSH2 0x4F4 PUSH2 0x1BE PUSH1 0x0 PUSH2 0x198 JUMP JUMPDEST GT ISZERO PUSH2 0x503 JUMPI POP DUP1 MLOAD SWAP1 PUSH1 0x20 ADD REVERT JUMPDEST PUSH2 0x32C SWAP1 PUSH2 0x510 PUSH1 0x40 MLOAD SWAP1 JUMP JUMPDEST PUSH3 0x461BCD PUSH1 0xE5 SHL DUP2 MSTORE SWAP2 DUP3 SWAP2 PUSH1 0x4 DUP4 ADD PUSH2 0x4CD JUMP INVALID PUSH1 0x80 PUSH1 0x40 MSTORE PUSH1 0xA PUSH1 0xE JUMP JUMPDEST PUSH1 0x17 JUMP JUMPDEST PUSH1 0x14 PUSH1 0x7C JUMP JUMPDEST SWAP1 JUMP JUMPDEST PUSH1 0x0 DUP1 SWAP2 CALLDATASIZE DUP3 DUP1 CALLDATACOPY DUP2 CALLDATASIZE SWAP2 GAS DELEGATECALL RETURNDATASIZE PUSH1 0x0 DUP1 RETURNDATACOPY ISZERO PUSH1 0x32 JUMPI RETURNDATASIZE PUSH1 0x0 RETURN JUMPDEST RETURNDATASIZE PUSH1 0x0 REVERT JUMPDEST PUSH1 0x14 PUSH1 0x14 PUSH1 0x14 SWAP3 SWAP1 JUMP JUMPDEST PUSH1 0x14 PUSH32 0x360894A13BA1A3210667C828492DB98DCA3E2076CC3735A920A3CA505D382BBC PUSH1 0x37 JUMP JUMPDEST PUSH1 0x1 PUSH1 0x1 PUSH1 0xA0 SHL SUB AND SWAP1 JUMP JUMPDEST PUSH1 0x14 SWAP1 SLOAD PUSH1 0x68 JUMP JUMPDEST PUSH1 0x14 PUSH1 0x0 PUSH1 0x88 PUSH1 0x14 PUSH1 0x41 JUMP JUMPDEST ADD PUSH1 0x74 JUMP INVALID LOG2 PUSH5 0x6970667358 0x22 SLT KECCAK256 EXP 0xD4 0xAC MLOAD PUSH3 0x9CE32F RETURN PUSH9 0x96C3191FD47FCB9B0A ADDMOD SWAP3 0xE6 0x28 EQ PUSH8 0xF168C50548841064 PUSH20 0x6F6C6343000816003340BD824D588484917DB8FA 0x4F 0xC8 SWAP5 0xC1 0xE0 INVALID 0xAE GAS PUSH22 0x885290BA7B97521CEBF82A8046756E6374696F6E206D PUSH22 0x73742062652063616C6C6564207468726F75676820A2 PUSH5 0x6970667358 0x22 SLT KECCAK256 DUP16 PUSH6 0x7E07B69DF7C5 SSTORE CALLDATASIZE PUSH10 0xAD3C6A3CC8A8D1D97ED7 RETURNDATACOPY 0xDB CALLVALUE STOP 0xD4 GT SWAP9 CALLER EXP PUSH21 0xBB64736F6C63430008160033000000000000000000 "},"methodIdentifiers":{"VERSION()":"ffa1ad74","createToken(string,string,uint256,uint256,bool,bool,uint256,uint256,uint256,uint256,uint256,uint256)":"76b2de01","customDeploymentFees(address)":"c05ddda8","deployedTokens(uint256)":"ec81aadb","deploymentFee()":"f2cff57f","getDeployedTokens()":"622ae7aa","getDeploymentFee(address)":"1652da42","getTemplateImplementation()":"0d1ded89","initialize(uint256)":"fe4b84df","owner()":"8da5cb5b","proxiableUUID()":"52d1902d","renounceOwnership()":"715018a6","setCustomDeploymentFee(address,uint256)":"cbf1208f","setDeploymentFee(uint256)":"d002462b","tokenImplementation()":"2f3a3d5d","transferOwnership(address)":"f2fde38b","upgradeTo(address)":"3659cfe6","upgradeToAndCall(address,bytes)":"4f1ef286","withdrawFees()":"476343ee"}}}}}