{"src/contracts/TokenTemplate_v2.1.0.sol":{"TokenTemplate_v2_1_0":{"abi":[{"inputs":[],"stateMutability":"nonpayable","type":"constructor"},{"anonymous":false,"inputs":[{"indexed":false,"internalType":"address","name":"previousAdmin","type":"address"},{"indexed":false,"internalType":"address","name":"newAdmin","type":"address"}],"name":"AdminChanged","type":"event"},{"anonymous":false,"inputs":[{"indexed":true,"internalType":"address","name":"owner","type":"address"},{"indexed":true,"internalType":"address","name":"spender","type":"address"},{"indexed":false,"internalType":"uint256","name":"value","type":"uint256"}],"name":"Approval","type":"event"},{"anonymous":false,"inputs":[{"indexed":true,"internalType":"address","name":"beacon","type":"address"}],"name":"BeaconUpgraded","type":"event"},{"anonymous":false,"inputs":[{"indexed":false,"internalType":"address[]","name":"addresses","type":"address[]"},{"indexed":false,"internalType":"bool","name":"status","type":"bool"}],"name":"BlacklistUpdated","type":"event"},{"anonymous":false,"inputs":[{"indexed":false,"internalType":"address","name":"contributor","type":"address"},{"indexed":false,"internalType":"uint256","name":"amount","type":"uint256"}],"name":"ContributionReceived","type":"event"},{"anonymous":false,"inputs":[{"indexed":false,"internalType":"address","name":"contributor","type":"address"},{"indexed":false,"internalType":"uint256","name":"amount","type":"uint256"}],"name":"ContributionRefunded","type":"event"},{"anonymous":false,"inputs":[{"indexed":false,"internalType":"uint8","name":"version","type":"uint8"}],"name":"Initialized","type":"event"},{"anonymous":false,"inputs":[{"indexed":true,"internalType":"address","name":"previousOwner","type":"address"},{"indexed":true,"internalType":"address","name":"newOwner","type":"address"}],"name":"OwnershipTransferred","type":"event"},{"anonymous":false,"inputs":[{"indexed":false,"internalType":"address","name":"account","type":"address"}],"name":"Paused","type":"event"},{"anonymous":false,"inputs":[{"indexed":false,"internalType":"uint256","name":"totalContributed","type":"uint256"},{"indexed":false,"internalType":"uint256","name":"tokensDistributed","type":"uint256"}],"name":"PresaleFinalized","type":"event"},{"anonymous":false,"inputs":[{"indexed":false,"internalType":"uint256","name":"softCap","type":"uint256"},{"indexed":false,"internalType":"uint256","name":"hardCap","type":"uint256"},{"indexed":false,"internalType":"uint256","name":"startTime","type":"uint256"},{"indexed":false,"internalType":"uint256","name":"endTime","type":"uint256"},{"indexed":false,"internalType":"uint256","name":"presaleRate","type":"uint256"}],"name":"PresaleStarted","type":"event"},{"anonymous":false,"inputs":[{"indexed":false,"internalType":"address","name":"account","type":"address"},{"indexed":false,"internalType":"uint256","name":"unlockTime","type":"uint256"}],"name":"TimeLockSet","type":"event"},{"anonymous":false,"inputs":[{"indexed":true,"internalType":"address","name":"from","type":"address"},{"indexed":true,"internalType":"address","name":"to","type":"address"},{"indexed":false,"internalType":"uint256","name":"value","type":"uint256"}],"name":"Transfer","type":"event"},{"anonymous":false,"inputs":[{"indexed":false,"internalType":"address","name":"account","type":"address"}],"name":"Unpaused","type":"event"},{"anonymous":false,"inputs":[{"indexed":true,"internalType":"address","name":"implementation","type":"address"}],"name":"Upgraded","type":"event"},{"anonymous":false,"inputs":[{"indexed":false,"internalType":"address[]","name":"addresses","type":"address[]"},{"indexed":false,"internalType":"bool","name":"status","type":"bool"}],"name":"WhitelistUpdated","type":"event"},{"inputs":[],"name":"VERSION","outputs":[{"internalType":"string","name":"","type":"string"}],"stateMutability":"view","type":"function"},{"inputs":[],"name":"VERSION_HASH","outputs":[{"internalType":"bytes32","name":"","type":"bytes32"}],"stateMutability":"view","type":"function"},{"inputs":[{"internalType":"address","name":"owner","type":"address"},{"internalType":"address","name":"spender","type":"address"}],"name":"allowance","outputs":[{"internalType":"uint256","name":"","type":"uint256"}],"stateMutability":"view","type":"function"},{"inputs":[{"internalType":"address","name":"spender","type":"address"},{"internalType":"uint256","name":"amount","type":"uint256"}],"name":"approve","outputs":[{"internalType":"bool","name":"","type":"bool"}],"stateMutability":"nonpayable","type":"function"},{"inputs":[{"internalType":"address","name":"account","type":"address"}],"name":"balanceOf","outputs":[{"internalType":"uint256","name":"","type":"uint256"}],"stateMutability":"view","type":"function"},{"inputs":[{"internalType":"address","name":"","type":"address"}],"name":"blacklist","outputs":[{"internalType":"bool","name":"","type":"bool"}],"stateMutability":"view","type":"function"},{"inputs":[],"name":"blacklistEnabled","outputs":[{"internalType":"bool","name":"","type":"bool"}],"stateMutability":"view","type":"function"},{"inputs":[{"internalType":"uint256","name":"amount","type":"uint256"}],"name":"burn","outputs":[],"stateMutability":"nonpayable","type":"function"},{"inputs":[{"internalType":"address","name":"account","type":"address"},{"internalType":"uint256","name":"amount","type":"uint256"}],"name":"burnFrom","outputs":[],"stateMutability":"nonpayable","type":"function"},{"inputs":[],"name":"claimRefund","outputs":[],"stateMutability":"nonpayable","type":"function"},{"inputs":[],"name":"contribute","outputs":[],"stateMutability":"payable","type":"function"},{"inputs":[{"internalType":"address","name":"","type":"address"}],"name":"contributions","outputs":[{"internalType":"uint256","name":"","type":"uint256"}],"stateMutability":"view","type":"function"},{"inputs":[],"name":"decimals","outputs":[{"internalType":"uint8","name":"","type":"uint8"}],"stateMutability":"view","type":"function"},{"inputs":[{"internalType":"address","name":"spender","type":"address"},{"internalType":"uint256","name":"subtractedValue","type":"uint256"}],"name":"decreaseAllowance","outputs":[{"internalType":"bool","name":"","type":"bool"}],"stateMutability":"nonpayable","type":"function"},{"inputs":[],"name":"finalize","outputs":[],"stateMutability":"nonpayable","type":"function"},{"inputs":[{"internalType":"address","name":"contributor","type":"address"}],"name":"getContribution","outputs":[{"internalType":"uint256","name":"","type":"uint256"}],"stateMutability":"view","type":"function"},{"inputs":[],"name":"getPresaleStatus","outputs":[{"internalType":"uint256","name":"softCap","type":"uint256"},{"internalType":"uint256","name":"hardCap","type":"uint256"},{"internalType":"uint256","name":"minContribution","type":"uint256"},{"internalType":"uint256","name":"maxContribution","type":"uint256"},{"internalType":"uint256","name":"startTime","type":"uint256"},{"internalType":"uint256","name":"endTime","type":"uint256"},{"internalType":"uint256","name":"presaleRate","type":"uint256"},{"internalType":"bool","name":"whitelistEnabled","type":"bool"},{"internalType":"bool","name":"finalized","type":"bool"},{"internalType":"uint256","name":"totalContributed","type":"uint256"}],"stateMutability":"view","type":"function"},{"inputs":[{"internalType":"address","name":"account","type":"address"}],"name":"getTimeLock","outputs":[{"internalType":"uint256","name":"","type":"uint256"}],"stateMutability":"view","type":"function"},{"inputs":[{"internalType":"address","name":"spender","type":"address"},{"internalType":"uint256","name":"addedValue","type":"uint256"}],"name":"increaseAllowance","outputs":[{"internalType":"bool","name":"","type":"bool"}],"stateMutability":"nonpayable","type":"function"},{"inputs":[{"components":[{"internalType":"string","name":"name","type":"string"},{"internalType":"string","name":"symbol","type":"string"},{"internalType":"uint256","name":"initialSupply","type":"uint256"},{"internalType":"uint256","name":"maxSupply","type":"uint256"},{"internalType":"address","name":"owner","type":"address"},{"internalType":"bool","name":"enableBlacklist","type":"bool"},{"internalType":"bool","name":"enableTimeLock","type":"bool"},{"internalType":"uint256","name":"presaleRate","type":"uint256"},{"internalType":"uint256","name":"minContribution","type":"uint256"},{"internalType":"uint256","name":"maxContribution","type":"uint256"},{"internalType":"uint256","name":"presaleCap","type":"uint256"},{"internalType":"uint256","name":"startTime","type":"uint256"},{"internalType":"uint256","name":"endTime","type":"uint256"}],"internalType":"struct TokenTemplate_v2_1_0.InitParams","name":"params","type":"tuple"}],"name":"initialize","outputs":[],"stateMutability":"nonpayable","type":"function"},{"inputs":[{"internalType":"address","name":"account","type":"address"}],"name":"isBlacklisted","outputs":[{"internalType":"bool","name":"","type":"bool"}],"stateMutability":"view","type":"function"},{"inputs":[{"internalType":"address","name":"account","type":"address"}],"name":"isWhitelisted","outputs":[{"internalType":"bool","name":"","type":"bool"}],"stateMutability":"view","type":"function"},{"inputs":[],"name":"maxSupply","outputs":[{"internalType":"uint256","name":"","type":"uint256"}],"stateMutability":"view","type":"function"},{"inputs":[],"name":"name","outputs":[{"internalType":"string","name":"","type":"string"}],"stateMutability":"view","type":"function"},{"inputs":[],"name":"owner","outputs":[{"internalType":"address","name":"","type":"address"}],"stateMutability":"view","type":"function"},{"inputs":[],"name":"pause","outputs":[],"stateMutability":"nonpayable","type":"function"},{"inputs":[],"name":"paused","outputs":[{"internalType":"bool","name":"","type":"bool"}],"stateMutability":"view","type":"function"},{"inputs":[],"name":"presaleInfo","outputs":[{"internalType":"uint256","name":"softCap","type":"uint256"},{"internalType":"uint256","name":"hardCap","type":"uint256"},{"internalType":"uint256","name":"minContribution","type":"uint256"},{"internalType":"uint256","name":"maxContribution","type":"uint256"},{"internalType":"uint256","name":"startTime","type":"uint256"},{"internalType":"uint256","name":"endTime","type":"uint256"},{"internalType":"uint256","name":"presaleRate","type":"uint256"},{"internalType":"bool","name":"whitelistEnabled","type":"bool"},{"internalType":"bool","name":"finalized","type":"bool"},{"internalType":"uint256","name":"totalContributed","type":"uint256"}],"stateMutability":"view","type":"function"},{"inputs":[],"name":"proxiableUUID","outputs":[{"internalType":"bytes32","name":"","type":"bytes32"}],"stateMutability":"view","type":"function"},{"inputs":[],"name":"renounceOwnership","outputs":[],"stateMutability":"nonpayable","type":"function"},{"inputs":[{"internalType":"address","name":"account","type":"address"},{"internalType":"uint256","name":"unlockTime","type":"uint256"}],"name":"setTimeLock","outputs":[],"stateMutability":"nonpayable","type":"function"},{"inputs":[],"name":"symbol","outputs":[{"internalType":"string","name":"","type":"string"}],"stateMutability":"view","type":"function"},{"inputs":[],"name":"timeLockEnabled","outputs":[{"internalType":"bool","name":"","type":"bool"}],"stateMutability":"view","type":"function"},{"inputs":[{"internalType":"address","name":"","type":"address"}],"name":"timeLocks","outputs":[{"internalType":"uint256","name":"","type":"uint256"}],"stateMutability":"view","type":"function"},{"inputs":[],"name":"totalSupply","outputs":[{"internalType":"uint256","name":"","type":"uint256"}],"stateMutability":"view","type":"function"},{"inputs":[{"internalType":"address","name":"to","type":"address"},{"internalType":"uint256","name":"amount","type":"uint256"}],"name":"transfer","outputs":[{"internalType":"bool","name":"","type":"bool"}],"stateMutability":"nonpayable","type":"function"},{"inputs":[{"internalType":"address","name":"from","type":"address"},{"internalType":"address","name":"to","type":"address"},{"internalType":"uint256","name":"amount","type":"uint256"}],"name":"transferFrom","outputs":[{"internalType":"bool","name":"","type":"bool"}],"stateMutability":"nonpayable","type":"function"},{"inputs":[{"internalType":"address","name":"newOwner","type":"address"}],"name":"transferOwnership","outputs":[],"stateMutability":"nonpayable","type":"function"},{"inputs":[],"name":"unpause","outputs":[],"stateMutability":"nonpayable","type":"function"},{"inputs":[{"internalType":"address[]","name":"addresses","type":"address[]"},{"internalType":"bool","name":"status","type":"bool"}],"name":"updateBlacklist","outputs":[],"stateMutability":"nonpayable","type":"function"},{"inputs":[{"internalType":"address[]","name":"addresses","type":"address[]"},{"internalType":"bool","name":"status","type":"bool"}],"name":"updateWhitelist","outputs":[],"stateMutability":"nonpayable","type":"function"},{"inputs":[{"internalType":"address","name":"newImplementation","type":"address"}],"name":"upgradeTo","outputs":[],"stateMutability":"nonpayable","type":"function"},{"inputs":[{"internalType":"address","name":"newImplementation","type":"address"},{"internalType":"bytes","name":"data","type":"bytes"}],"name":"upgradeToAndCall","outputs":[],"stateMutability":"payable","type":"function"},{"inputs":[{"internalType":"address","name":"","type":"address"}],"name":"whitelist","outputs":[{"internalType":"bool","name":"","type":"bool"}],"stateMutability":"view","type":"function"}],"evm":{"bytecode":{"linkReferences":{},"object":"60a0604052346200003657620000146200003b565b604051613921620001fc8239608051818181610fa70152611b95015261392190f35b600080fd5b6200004562000051565b6200004f62000181565b565b6200004f62000096565b620000719062000074906001600160a01b031682565b90565b6001600160a01b031690565b62000071906200005b565b620000719062000080565b620000a1306200008b565b608052565b620000719060081c5b60ff1690565b620000719054620000a6565b60208082526027908201527f496e697469616c697a61626c653a20636f6e747261637420697320696e697469604082015266616c697a696e6760c81b606082015260800190565b156200011057565b60405162461bcd60e51b8152806200012b60048201620000c1565b0390fd5b6200007190620000af565b6200007190546200012f565b620000af62000071620000719260ff1690565b906200016d620000716200017d9262000146565b825460ff191660ff919091161790565b9055565b6200019f62000199620001956000620000b5565b1590565b62000108565b620001ab60006200013a565b60ff90811603620001b857565b620001c660ff600062000159565b7f7f26b83ff96e1f2b6a682f133852f6798a09c465da95921460cefb3847402498620001f160405190565b60ff8152602090a156fe6080604052600436101561001257600080fd5b60003560e01c806306fdde03146102d2578063095ea7b3146102cd57806318160ddd146102c857806321eff7fc146102c357806323b872dd146102be5780632edf0869146102b9578063313ce567146102b45780633659cfe6146102af57806336f234ac146102aa57806339509351146102a55780633af32abf146102a05780633f4ba83a1461029b57806342966c681461029657806342e94c90146102915780634bb278f31461028c5780634f1ef2861461028757806352d1902d146102825780635c975abb1461027d578063644fab741461027857806370a0823114610273578063715018a61461026e578063748f70981461026957806379cc6790146102645780637f76b2231461025f5780638456cb591461025a5780638da5cb5b1461025557806395d89b41146102505780639b19251a1461024b5780639e4e731814610246578063a457c2d714610241578063a9059cbb1461023c578063aff177ca14610237578063b5545a3c14610232578063bb0e69e81461022d578063bffb691d14610228578063cba4cbd314610223578063d5abeb011461021e578063d7517caa14610219578063d7bb99ba14610214578063dd62ed3e1461020f578063f2fde38b1461020a578063f9f92be414610205578063fe575a87146102005763ffa1ad74036102d757610d6e565b610d4b565b610d30565b610d07565b610ceb565b610cb5565b610c9a565b610c7f565b610c57565b610c2f565b610c09565b610bf1565b610bd8565b610b42565b610b26565b610b0b565b610a3b565b6109f2565b6109cb565b61099a565b61097f565b610955565b61093a565b610922565b610907565b6108ee565b6108d3565b6108b8565b6108a4565b610795565b61077a565b6106f8565b6106cc565b6106b1565b610695565b61067d565b61062c565b6105fd565b6105c3565b610498565b610454565b610414565b6103e6565b610356565b600080fd5b60009103126102d757565b60005b8381106102fa5750506000910152565b81810151838201526020016102ea565b61032b61033460209361033e9361031f815190565b80835293849260200190565b958691016102e7565b601f01601f191690565b0190565b60208082526103539291019061030a565b90565b346102d7576103663660046102dc565b61037d610371610e81565b60405191829182610342565b0390f35b6001600160a01b031690565b61039681610381565b036102d757565b905035906103aa8261038d565b565b80610396565b905035906103aa826103ac565b91906040838203126102d7576103539060206103db828661039d565b94016103b2565b9052565b346102d75761037d6104026103fc3660046103bf565b90610e8b565b60405191829182901515815260200190565b346102d7576104243660046102dc565b61037d61042f610e9b565b6040515b9182918290815260200190565b906020828203126102d7576103539161039d565b346102d75761037d61042f61046a366004610440565b610ea5565b90916060828403126102d757610353610488848461039d565b9360406103db826020870161039d565b346102d75761037d6104026104ae36600461046f565b91610ec2565b6103539081565b61035390546104b4565b610353905b60ff1690565b61035390546104c5565b6103539060081c6104ca565b61035390546104da565b6101c3906104fd826104bb565b9161050a600182016104bb565b91610517600283016104bb565b91610524600382016104bb565b91610531600483016104bb565b9161053e600582016104bb565b9161054b600683016104bb565b91610558600782016104d0565b91610353600861056a600785016104e6565b93016104bb565b979593919a9998969492909a61014089019b60008a0161058f919052565b602089015260408801526060870152608086015260a085015260c0840152151560e083015215156101008201526101200152565b346102d7576105d33660046102dc565b61037d6105de6104f0565b966105f49a989a96919695929594939460405190565b9a8b9a8b610571565b346102d75761060d3660046102dc565b61037d610618610ee6565b6040519182918260ff909116815260200190565b346102d75761064461063f366004610440565b61105a565b604051005b90816101a09103126102d75790565b906020828203126102d75781356001600160401b0381116102d7576103539201610649565b346102d757610644610690366004610658565b6117fb565b346102d75761037d6104026106ab3660046103bf565b90611816565b346102d75761037d6104026106c7366004610440565b611835565b346102d7576106dc3660046102dc565b610644611865565b906020828203126102d757610353916103b2565b346102d75761064461070b3660046106e4565b61186d565b61035390610381906001600160a01b031682565b61035390610710565b61035390610724565b906107409061072d565b600052602052604060002090565b610353916008021c81565b90610353915461074e565b6000610775610353926101cd610736565b610759565b346102d75761037d61042f610790366004610440565b610764565b346102d7576107a53660046102dc565b610644611ad8565b634e487b7160e01b600052604160045260246000fd5b90601f01601f191681019081106001600160401b038211176107e457604052565b6107ad565b906103aa6107f660405190565b92836107c3565b6001600160401b0381116107e457602090601f01601f19160190565b90826000939282370152565b9092919261083a610835826107fd565b6107e9565b93818552818301116102d7576103aa916020850190610819565b9080601f830112156102d75781602061035393359101610825565b9190916040818403126102d757610886838261039d565b9260208201356001600160401b0381116102d7576103539201610854565b6106446108b236600461086f565b90611b06565b346102d7576108c83660046102dc565b61037d61042f611bf6565b346102d7576108e33660046102dc565b61037d610402611c00565b346102d7576106446109013660046103bf565b90611d32565b346102d75761037d61042f61091d366004610440565b611d3c565b346102d7576109323660046102dc565b610644611d6b565b346102d75761037d61042f610950366004610440565b611d73565b346102d7576106446109683660046103bf565b90611d8b565b6000610775610353926101d1610736565b346102d75761037d61042f610995366004610440565b61096e565b346102d7576109aa3660046102dc565b610644611dad565b6103e290610381565b6020810192916103aa91906109b2565b346102d7576109db3660046102dc565b61037d6109e6611dc8565b604051918291826109bb565b346102d757610a023660046102dc565b61037d610371611dd2565b610353916008021c6104ca565b906103539154610a0d565b6000610a36610353926101cc610736565b610a1a565b346102d75761037d610402610a51366004610440565b610a25565b90610a63610835836107fd565b918252565b610a726005610a56565b640322e312e360dc1b602082015290565b610353610a68565b610353610a83565b61033e610aab92602092610aa5815190565b94859290565b938491016102e7565b61035391610a93565b610ac5610a8b565b610aed610ad160405190565b8092610ae1602083019182610ab4565b908103825203826107c3565b610aff610af8825190565b9160200190565b2090565b610353610abd565b346102d757610b1b3660046102dc565b61037d61042f610b03565b346102d75761037d610402610b3c3660046103bf565b90611e36565b346102d75761037d610402610b583660046103bf565b90611e5a565b909182601f830112156102d7578135916001600160401b0383116102d75760200192602083028401116102d757565b801515610396565b905035906103aa82610b8d565b916040838303126102d75782356001600160401b0381116102d75782610bcf602094610353938701610b5e565b94909501610b95565b346102d757610644610beb366004610ba2565b91612009565b346102d757610c013660046102dc565b610644612210565b346102d757610644610c1c366004610ba2565b916122e6565b61035360006101cf610a1a565b346102d757610c3f3660046102dc565b61037d610402610c22565b61035360016101cf610a1a565b346102d757610c673660046102dc565b61037d610402610c4a565b61035360006101ce610759565b346102d757610c8f3660046102dc565b61037d61042f610c72565b346102d757610caa3660046102dc565b61037d6105de6122f1565b610cc03660046102dc565b6106446126a7565b91906040838203126102d757610353906020610ce4828661039d565b940161039d565b346102d75761037d61042f610d01366004610cc8565b906126af565b346102d757610644610d1a366004610440565b61275f565b6000610a36610353926101d0610736565b346102d75761037d610402610d46366004610440565b610d1f565b346102d75761037d610402610d61366004610440565b612768565b610353610a8b565b346102d757610d7e3660046102dc565b61037d610371610d66565b634e487b7160e01b600052602260045260246000fd5b9060016002830492168015610dbf575b6020831014610dba57565b610d89565b91607f1691610daf565b80546000939291610de6610ddc83610d9f565b8085529360200190565b9160018116908115610e385750600114610dff57505050565b610e129192939450600052602060002090565b916000925b818410610e245750500190565b805484840152602090930192600101610e17565b92949550505060ff1916825215156020020190565b9061035391610dc9565b906103aa610e7192610e6860405190565b93848092610e4d565b03836107c3565b61035390610e57565b6103536036610e78565b610e9691903361282f565b600190565b61035360356104bb565b610ebd61035391610eb4600090565b506101cd610736565b6104bb565b610e96929190610ed483335b8361290f565b612a54565b6104ca6103536103539290565b6103536012610ed9565b15610ef757565b60405162461bcd60e51b815260206004820152602c60248201526000805160206138ac83398151915260448201526b19195b1959d85d1958d85b1b60a21b6064820152608490fd5b0390fd5b15610f4a57565b60405162461bcd60e51b815260206004820152602c60248201526000805160206138ac83398151915260448201526b6163746976652070726f787960a01b6064820152608490fd5b6103aa90610ffa610fa23061072d565b610fe07f000000000000000000000000000000000000000000000000000000000000000091610fd9610fd384610381565b91610381565b1415610ef0565b610ff4610fd3610fee612af4565b92610381565b14610f43565b611034565b6103536103536103539290565b369037565b906103aa61102761102184610a56565b936107fd565b601f19016020840161100c565b60006103aa9161104381612b13565b61105461104f83610fff565b611011565b90612bc4565b6103aa90610f92565b1561106a57565b60405162461bcd60e51b815260206004820152602e60248201527f496e697469616c697a61626c653a20636f6e747261637420697320616c72656160448201526d191e481a5b9a5d1a585b1a5e995960921b6064820152608490fd5b9060ff905b9181191691161790565b6104ca6103536103539260ff1690565b906110f56103536110fc926110d5565b82546110c6565b9055565b9061ff009060081b6110cb565b9061111d6103536110fc92151590565b8254611100565b6103e290610ed9565b6020810192916103aa9190611124565b61118761115161114d60006104e6565b1590565b918280611229575b80156111e4575b61116990611063565b8261117e6111776001610ed9565b60006110e5565b6111d35761155d565b61118d57565b61119860008061110d565b7f7f26b83ff96e1f2b6a682f133852f6798a09c465da95921460cefb38474024986111c260405190565b806111ce60018261112d565b0390a1565b6111df6001600061110d565b61155d565b506111f961114d6111f43061072d565b612cd3565b8015611160575061116961120d60006104d0565b61122161121a6001610ed9565b9160ff1690565b149050611160565b5061123460006104d0565b61124161121a6001610ed9565b10611159565b903590601e1936829003018212156102d757018035906001600160401b0382116102d757602001913682900383136102d757565b610353913691610825565b356103538161038d565b6103816103536103539290565b61035390611290565b35610353816103ac565b156112b757565b60405162461bcd60e51b8152602060048201526024808201527f4d617820737570706c79206d757374206265203e3d20696e697469616c20737560448201526370706c7960e01b6064820152608490fd5b1561130f57565b60405162461bcd60e51b815260206004820152601c60248201527b53746172742074696d65206d75737420626520696e2066757475726560201b6044820152606490fd5b1561135a57565b60405162461bcd60e51b815260206004820152602160248201527f456e642074696d65206d7573742062652061667465722073746172742074696d6044820152606560f81b6064820152608490fd5b90600019906110cb565b906113c36103536110fc92610fff565b82546113a9565b3561035381610b8d565b906110f56103536110fc92151590565b634e487b7160e01b600052601260045260246000fd5b634e487b7160e01b600052601160045260246000fd5b9061141a565b9190565b908115611425570490565b6113e4565b6103536101406107e9565b600861150f6101206103aa9461145561144f600083015190565b866113b3565b61146c611463602083015190565b600187016113b3565b61148361147a604083015190565b600287016113b3565b61149a611491606083015190565b600387016113b3565b6114b16114a8608083015190565b600487016113b3565b6114c86114bf60a083015190565b600587016113b3565b6114df6114d660c083015190565b600687016113b3565b61150a600786016114fc6114f660e0850151151590565b826113d4565b61010083015115159061110d565b015190565b91016113b3565b906103aa91611435565b909594926103aa946115526115599261154b60809661154460a088019c6000890152565b6020870152565b6040850152565b6060830152565b0152565b61159461158e61156d8380611247565b6115886115806020879594950187611247565b92909461127b565b9261127b565b90612d66565b61159c612d7d565b6115a4612d9d565b6115ac612dbd565b6115b4612ddd565b6115bc612d7d565b608081016115c981611286565b6000906115e0610fd36115db8461129d565b610381565b036117e5575b60608301926115f4846112a6565b6040820190611602826112a6565b111561160d906112b0565b61016082019361161c856112a6565b421061162790611308565b610180830195611636876112a6565b61163f876112a6565b1061164990611353565b611652906112a6565b61165e906101ce6113b3565b61166a60a084016113ca565b611676906101cf6113d4565b61168260c084016113ca565b61168e906101cf61110d565b61169790611286565b906116a1906112a6565b6116aa91612eaa565b61014081016116b8816112a6565b6116c26002610fff565b6116cb91611410565b906116d5906112a6565b6116e261010084016112a6565b926116f061012082016112a6565b6116f9876112a6565b90611703896112a6565b9260e00195611711876112a6565b9461171a61142a565b96611725908a890152565b602087015260408601526060850152608084015260a083015260c082015282151560e0820181905261010082015261175c83610fff565b61012082015261176e906101c3611516565b6101c391820161177d906104bb565b9160010161178a906104bb565b92611794906112a6565b9361179e906112a6565b906117a8906112a6565b906117b260405190565b9485946117bf9486611520565b037f363312020dbba28eb1464ec7d5f963ebe389e1b00dab8dd54d46e2e2f2e6326191a1565b6117f66117f183611286565b612e0b565b6115e6565b6103aa9061113d565b9190820180921161181157565b6113fa565b610e96919061182f339261182a83856126af565b611804565b9161282f565b61184d61035391611844600090565b506101cc610736565b6104d0565b61185a612f69565b6103aa6103aa612fc7565b6103aa611852565b6103aa903361307c565b61307c565b611884612f69565b6103aa61188f613159565b6118976119e5565b6103aa61318d565b156118a657565b60405162461bcd60e51b8152602060048201526011602482015270141c995cd85b19481b9bdd08195b991959607a1b6044820152606490fd5b156118e657565b60405162461bcd60e51b8152602060048201526011602482015270105b1c9958591e48199a5b985b1a5e9959607a1b6044820152606490fd5b1561192657565b60405162461bcd60e51b815260206004820152601460248201527314dbd99d0818d85c081b9bdd081c995858da195960621b6044820152606490fd5b8181029291811591840414171561181157565b3d1561198f576119843d610a56565b903d6000602084013e565b606090565b1561199b57565b60405162461bcd60e51b815260206004820152600f60248201526e151c985b9cd9995c8819985a5b1959608a1b6044820152606490fd5b9081526040810192916103aa9160200152565b7fedfde254cb8ed39d650c9a34251c59d6817fae4cc876cc2ce76669976cf102ee6101c3611a21611a1a6103536101c86104bb565b421161189f565b611ac3611a8c6007830192611a40611a3b61114d866104e6565b6118df565b611a7160016008830195611a6c611a56886104bb565b611a65611416610353886104bb565b101561191f565b61110d565b611a866006611a7f866104bb565b92016104bb565b90611962565b91610ebd600080611a9b611dc8565b611aa43061072d565b31611aae60405190565b90818003925af1611abd611975565b50611994565b6111ce611acf60405190565b928392836119d2565b6103aa61187c565b906103aa91611af1610fa23061072d565b6103aa91600191611b0181612b13565b612bc4565b906103aa91611ae0565b15611b1757565b60405162461bcd60e51b815260206004820152603860248201527f555550535570677261646561626c653a206d757374206e6f742062652063616c6044820152771b1959081d1a1c9bdd59da0819195b1959d85d1958d85b1b60421b6064820152608490fd5b61035390611bbf611b8d3061072d565b611bb9610fd37f0000000000000000000000000000000000000000000000000000000000000000610381565b14611b10565b611bed565b6103537f360894a13ba1a3210667c828492db98dca3e2076cc3735a920a3ca505d382bbc610fff565b50610353611bc4565b6103536000611b7d565b61035360976104d0565b906103aa91611c17612f69565b611cc7565b15611c2357565b60405162461bcd60e51b8152602060048201526015602482015274151a5b59481b1bd8dac81b9bdd08195b98589b1959605a1b6044820152606490fd5b15611c6757565b60405162461bcd60e51b815260206004820152601d60248201527f556e6c6f636b2074696d65206d75737420626520696e206675747572650000006044820152606490fd5b9160206103aa929493611559604082019660008301906109b2565b907fa9353e70f07f31e7f4e16464f45e189cbd22826780a5abe4da8303652a86960a91611cfd611cf86101cf6104e6565b611c1c565b611d08428311611c60565b611d1d82611d18836101d1610736565b6113b3565b6111ce611d2960405190565b92839283611cac565b906103aa91611c0a565b610ebd61035391611d4b600090565b506033610736565b611d5b612f69565b6103aa6103aa6117f1600061129d565b6103aa611d53565b610ebd61035391611d82600090565b506101d1610736565b6103aa91906118778233610ece565b611da2612f69565b6103aa6103aa6131d9565b6103aa611d9a565b61035390610381565b6103539054611db5565b61035360fb611dbe565b6103536037610e78565b15611de357565b60405162461bcd60e51b815260206004820152602560248201527f45524332303a2064656372656173656420616c6c6f77616e63652062656c6f77604482015264207a65726f60d81b6064820152608490fd5b610e96919061182f3392611e4a83856126af565b611e5682821015611ddc565b0390565b610e96919033612a54565b906103aa9291611e73612f69565b611f73565b15611e7f57565b60405162461bcd60e51b815260206004820152601560248201527415da1a5d195b1a5cdd081b9bdd08195b98589b1959605a1b6044820152606490fd5b634e487b7160e01b600052603260045260246000fd5b9190811015611ee2576020020190565b611ebc565b9061033e816020936109b2565b5061035390602081019061039d565b818352602090920191906000825b828210611f1f575050505090565b90919293611f42611f3b600192611f368886611ef4565b611ee7565b9560200190565b93920190611f11565b939290611f6a6020916103aa94604088019188830360008a0152611f03565b94019015159052565b90611f87611f826101ca6104d0565b611e78565b611f916000610fff565b81811015611fd057611fcb90611fc585611fc06101cc611fba611fb586898b611ed2565b611286565b90610736565b6113d4565b60010190565b611f91565b50906111ce7fa091d95aa3f4b3529e12c57e1e9e10580edde8a7ac6fd51dd3c8e824c332dbe09361200060405190565b93849384611f4b565b906103aa9291611e65565b61201c613159565b61189761211d565b1561202b57565b60405162461bcd60e51b8152602060048201526011602482015270141c995cd85b1948199a5b985b1a5e9959607a1b6044820152606490fd5b1561206b57565b60405162461bcd60e51b815260206004820152601060248201526f14dbd99d0818d85c081c995858da195960821b6044820152606490fd5b156120aa57565b60405162461bcd60e51b815260206004820152600f60248201526e27379031b7b73a3934b13aba34b7b760891b6044820152606490fd5b156120e857565b60405162461bcd60e51b815260206004820152600d60248201526c1499599d5b990819985a5b1959609a1b6044820152606490fd5b61216f6101c3612134611a1a6103536101c86104bb565b61214b61214661114d600784016104e6565b612024565b6121696114166103536000612162600886016104bb565b94016104bb565b10612064565b7f2ef47cadc7e07ee6cea296446c8ca85ff6955693411d8868f7a04b6850034f086111ce6101cd6121b96121a6610ebd3384610736565b6121b36114166000610fff565b116120a3565b6121df6121c9610ebd3384610736565b91611d186121d76000610fff565b913390610736565b6122036000806121ee60405190565b60009085335af16121fd611975565b506120e1565b6040519182913383611cac565b6103aa612014565b906103aa9291612226612f69565b61226f565b1561223257565b60405162461bcd60e51b8152602060048201526015602482015274109b1858dadb1a5cdd081b9bdd08195b98589b1959605a1b6044820152606490fd5b9061228361227e6101cf6104d0565b61222b565b61228d6000610fff565b818110156122b6576122b190611fc585611fc06101d0611fba611fb586898b611ed2565b61228d565b50906111ce7f11d4d128e8f89ae2e8815168b9eba079dd6668b75f1e3a9dd96ac6192a7c4dcb9361200060405190565b906103aa9291612218565b6101c36122fd816104bb565b612309600183016104bb565b92612316600284016104bb565b92612323600382016104bb565b92612330600483016104bb565b9261233d600584016104bb565b9261234a600682016104bb565b9260078201926123676008612162612361876104d0565b966104e6565b9199989796959493929190565b61237c613159565b611897612555565b1561238b57565b60405162461bcd60e51b8152602060048201526013602482015272141c995cd85b19481b9bdd081cdd185c9d1959606a1b6044820152606490fd5b156123cd57565b60405162461bcd60e51b815260206004820152600d60248201526c141c995cd85b1948195b991959609a1b6044820152606490fd5b1561240957565b60405162461bcd60e51b81526020600482015260166024820152752132b637bb9036b4b71031b7b73a3934b13aba34b7b760511b6044820152606490fd5b1561244e57565b60405162461bcd60e51b815260206004820152601660248201527520b137bb329036b0bc1031b7b73a3934b13aba34b7b760511b6044820152606490fd5b1561249357565b60405162461bcd60e51b815260206004820152601060248201526f12185c990818d85c081c995858da195960821b6044820152606490fd5b156124d257565b60405162461bcd60e51b815260206004820152600f60248201526e139bdd081dda1a5d195b1a5cdd1959608a1b6044820152606490fd5b1561251057565b60405162461bcd60e51b815260206004820152601d60248201527f576f756c6420657863656564206d617820636f6e747269627574696f6e0000006044820152606490fd5b6126556101c361257461256c6103536101c76104bb565b421015612384565b61258e612586610353600584016104bb565b4211156123c6565b612643600782016125a461214661114d836104e6565b6125be6125b6610353600286016104bb565b341015612402565b61260a60038401916125dd6125d5610353856104bb565b341115612447565b61184d600886019561260361141661035360016121626125fc8c6104bb565b3490611804565b111561248c565b61268b575b611d186101cd61263c61263461035361262e6125fc610ebd3387610736565b956104bb565b841115612509565b3390610736565b61264f6125fc826104bb565b906113b3565b7f1bb460ccaaf70fbacfec17a376f8acbd278c1405590ffcc8ebe4b88daf4f64ad61267f60405190565b806111ce343383611cac565b6126a261269d61184d336101cc610736565b6124cb565b61260f565b6103aa612374565b610353916126ca610ebd926126c2600090565b506034610736565b610736565b6103aa906126db612f69565b61273b565b156126e757565b60405162461bcd60e51b815260206004820152602660248201527f4f776e61626c653a206e6577206f776e657220697320746865207a65726f206160448201526564647265737360d01b6064820152608490fd5b6103aa906117f161274f6115db600061129d565b61275883610381565b14156126e0565b6103aa906126cf565b61184d61035391612777600090565b506101d0610736565b1561278757565b60405162461bcd60e51b8152602060048201526024808201527f45524332303a20617070726f76652066726f6d20746865207a65726f206164646044820152637265737360e01b6064820152608490fd5b156127df57565b60405162461bcd60e51b815260206004820152602260248201527f45524332303a20617070726f766520746f20746865207a65726f206164647265604482015261737360f01b6064820152608490fd5b6128be6128b46128ae7f8c5be1e5ebec7d5bd14f71427d1e84f3dd0314c0f7b2291e5b200ac8c7c3b9259361289661288661286a600061129d565b6115db61287682610381565b61287f86610381565b1415612780565b61288f88610381565b14156127d8565b6128a987611d18886126ca856034610736565b61072d565b9361072d565b9361043360405190565b0390a3565b156128ca57565b60405162461bcd60e51b815260206004820152601d60248201527f45524332303a20696e73756666696369656e7420616c6c6f77616e63650000006044820152606490fd5b9061291a81836126af565b600019810361292a575b50505050565b61293e9361182f91611e56828210156128c3565b38808080612924565b1561294e57565b60405162461bcd60e51b815260206004820152602560248201527f45524332303a207472616e736665722066726f6d20746865207a65726f206164604482015264647265737360d81b6064820152608490fd5b156129a857565b60405162461bcd60e51b815260206004820152602360248201527f45524332303a207472616e7366657220746f20746865207a65726f206164647260448201526265737360e81b6064820152608490fd5b15612a0057565b60405162461bcd60e51b815260206004820152602660248201527f45524332303a207472616e7366657220616d6f756e7420657863656564732062604482015265616c616e636560d01b6064820152608490fd5b6128be6128b46128ae6000805160206138cc83398151915293612aa9612a99612a7d600061129d565b6115db612a8982610381565b612a9286610381565b1415612947565b612aa288610381565b14156129a1565b612ab487878361326b565b6128a9612ae78760336126ca612add8c612ad1610ebd8986610736565b611e56828210156129f9565b611d188784610736565b61264f8961033e836104bb565b6103536000612b04610353611bc4565b01611dbe565b506103aa612f69565b6103aa90612b0a565b6103537f4910fdfa16fed3260ed0e7147f7cc6da11a60208b5b9406d12a635614ffd9143610fff565b905051906103aa826103ac565b906020828203126102d75761035391612b45565b15612b6d57565b60405162461bcd60e51b815260206004820152602960248201527f45524331393637557067726164653a20756e737570706f727465642070726f786044820152681a58589b195555525160ba1b6064820152608490fd5b9190612bdc6000612bd6610353612b1c565b016104d0565b15612bec5750506103aa906133c1565b612bf86128a98461072d565b926020612c0460405190565b6352d1902d60e01b815294859060049082905afa60009481612ca2575b50612c825760405162461bcd60e51b815260206004820152602e60248201527f45524331393637557067726164653a206e657720696d706c656d656e7461746960448201526d6f6e206973206e6f74205555505360901b6064820152608490fd5b612c9d6103aa94612c97611416610353611bc4565b14612b66565b613320565b612cc591955060203d602011612ccc575b612cbd81836107c3565b810190612b52565b9338612c21565b503d612cb3565b3b612ce16114166000610fff565b1190565b15612cec57565b60405162461bcd60e51b815260206004820152602b60248201527f496e697469616c697a61626c653a20636f6e7472616374206973206e6f74206960448201526a6e697469616c697a696e6760a81b6064820152608490fd5b906103aa91612d5c612d5760006104e6565b612ce5565b906103aa916135ac565b906103aa91612d45565b6103aa612d5760006104e6565b6103aa612d70565b612d92612d5760006104e6565b6103aa6103aa6135d2565b6103aa612d85565b612db2612d5760006104e6565b6103aa6103aa6135f1565b6103aa612da5565b612dd2612d5760006104e6565b6103aa6103aa613606565b6103aa612dc5565b906001600160a01b03906110cb565b90612e046103536110fc9261072d565b8254612de5565b612e2c612e26612e1b60fb611dbe565b6128a98460fb612df4565b9161072d565b907f8be0079c531659141344cd1fd0a4f28419497f9722a3daafe3b4186f6b6457e0612e5760405190565b80806128be565b15612e6557565b60405162461bcd60e51b815260206004820152601f60248201527f45524332303a206d696e7420746f20746865207a65726f2061646472657373006044820152606490fd5b6000805160206138cc8339815191526128be6128b46128ae612ecc600061129d565b612ee8612ed882610381565b612ee188610381565b1415612e5e565b612ef387878361326b565b612f0b612f048861182a60356104bb565b60356113b3565b6128a9612ae7876033610736565b15612f2057565b60405162461bcd60e51b815280610f3f600482016020808252818101527f4f776e61626c653a2063616c6c6572206973206e6f7420746865206f776e6572604082015260600190565b6103aa612f74611dc8565b612f80610fd333610381565b14612f19565b612f8e613651565b6103aa612f9d600060976113d4565b7f5db9ee0a495bf2e6ff9c91a7834c1ba4fdd244a5e8aa4e537bd38aeae4b073aa6111ce336109e6565b6103aa612f86565b15612fd657565b60405162461bcd60e51b815260206004820152602160248201527f45524332303a206275726e2066726f6d20746865207a65726f206164647265736044820152607360f81b6064820152608490fd5b1561302c57565b60405162461bcd60e51b815260206004820152602260248201527f45524332303a206275726e20616d6f756e7420657863656564732062616c616e604482015261636560f01b6064820152608490fd5b6000805160206138cc8339815191526128be6128b46128ae61309e600061129d565b946130bb6130ab87610381565b6130b483610381565b1415612fcf565b6130c687878361326b565b6130f26130e7886130db610ebd856033610736565b611e5682821015613025565b611d18836033610736565b6128a9612f0488611e5660356104bb565b6103536002610fff565b1561311457565b60405162461bcd60e51b815260206004820152601f60248201527f5265656e7472616e637947756172643a207265656e7472616e742063616c6c006044820152606490fd5b6103aa6131676101916104bb565b61317b613172613103565b9182141561310d565b6101916113b3565b6103536001610fff565b6103aa61317b613183565b6131a06136a0565b6103aa6131af600160976113d4565b7f62e78cea01bee320cd4e420270b5ea74000d11b0c9f74754ebdbfc544b05a2586111ce336109e6565b6103aa613198565b156131e857565b60405162461bcd60e51b81526020600482015260166024820152751059191c995cdcc81a5cc8189b1858dadb1a5cdd195960521b6044820152606490fd5b1561322d57565b60405162461bcd60e51b8152602060048201526016602482015275151bdad95b9cc8185c99481d1a5b594b5b1bd8dad95960521b6044820152606490fd5b91613277908284613712565b6132826101cf6104d0565b6132db575b506132936101cf6104e6565b806132bd575b6132a05750565b6132b5610353610ebd6103aa936101d1610736565b421015613226565b506132cb6115db600061129d565b6132d482610381565b1415613299565b613301906101d0906132f361114d61184d8685610736565b9182613307575b50506131e1565b38613287565b613319925061114d9161184d91610736565b38806132fa565b9161332a83613728565b81516133396114166000610fff565b11908115613357575b5061334b575050565b613354916137b0565b50565b905038613342565b1561336657565b60405162461bcd60e51b815260206004820152602d60248201527f455243313936373a206e657720696d706c656d656e746174696f6e206973206e60448201526c1bdd08184818dbdb9d1c9858dd609a1b6064820152608490fd5b6103aa906133d66133d182612cd3565b61335f565b60006133e3610353611bc4565b01612df4565b906103aa916133fb612d5760006104e6565b613596565b9160001960089290920291821b911b6110cb565b91906134256103536110fc93610fff565b908354613400565b6103aa91600091613414565b818110613444575050565b80613452600060019361342d565b01613439565b9190601f811161346757505050565b6134796103aa93600052602060002090565b906020601f84018190048301931061349b575b6020601f909101040190613439565b909150819061348c565b9060001960089091021c191690565b816134be916134a5565b906002021790565b906134cf815190565b906001600160401b0382116107e4576134f2826134ec8554610d9f565b85613458565b602090601f8311600114613520576110fc929160009183613515575b50506134b4565b01519050388061350e565b601f1983169161353585600052602060002090565b9260005b8181106135745750916002939185600196941061355a575b50505002019055565b61356a910151601f8416906134a5565b9055388080613551565b91936020600181928787015181550195019201613539565b906103aa916134c6565b906135a56103aa92603661358c565b603761358c565b906103aa916133e9565b6135c3612d5760006104e6565b6103aa6103aa600060976113d4565b6103aa6135b6565b6135e7612d5760006104e6565b6103aa8033612e0b565b6103aa6135da565b611897612d5760006104e6565b6103aa6135f9565b1561361557565b60405162461bcd60e51b815260206004820152601460248201527314185d5cd8589b194e881b9bdd081c185d5cd95960621b6044820152606490fd5b6103aa61365c611c00565b61360e565b1561366857565b60405162461bcd60e51b815260206004820152601060248201526f14185d5cd8589b194e881c185d5cd95960821b6044820152606490fd5b6103aa6136ae61114d611c00565b613661565b156136ba57565b60405162461bcd60e51b815260206004820152602a60248201527f45524332305061757361626c653a20746f6b656e207472616e736665722077686044820152691a5b19481c185d5cd95960b21b6064820152608490fd5b5050506103aa61372361114d611c00565b6136b3565b613735906128a9816133c1565b7fbc7cd75a20ee27fd9adebab32041f755214dbc6bffa90cc0225b39da2e5c2d3b61375f60405190565b600090a2565b61376f6027610a56565b7f416464726573733a206c6f772d6c6576656c2064656c65676174652063616c6c6020820152660819985a5b195960ca1b604082015290565b610353613765565b610353916137bc6137a8565b9160008061035394936137cd606090565b50602081519101845af46137df611975565b91613831565b156137ec57565b60405162461bcd60e51b815260206004820152601d60248201527f416464726573733a2063616c6c20746f206e6f6e2d636f6e74726163740000006044820152606490fd5b91929015613863575081516138496114166000610fff565b14613852575090565b61385e61035391612cd3565b6137e5565b829061386d825190565b61387a6114166000610fff565b11156138895750805190602001fd5b610f3f9061389660405190565b62461bcd60e51b81529182916004830161034256fe46756e6374696f6e206d7573742062652063616c6c6564207468726f75676820ddf252ad1be2c89b69c2b068fc378daa952ba7f163c4a11628f55a4df523b3efa26469706673582212200b350b1fe8710b533228a215ecbe02abc22a629a126369290b4db0f7f2b0d02864736f6c63430008160033","opcodes":"PUSH1 0xA0 PUSH1 0x40 MSTORE CALLVALUE PUSH3 0x36 JUMPI PUSH3 0x14 PUSH3 0x3B JUMP JUMPDEST PUSH1 0x40 MLOAD PUSH2 0x3921 PUSH3 0x1FC DUP3 CODECOPY PUSH1 0x80 MLOAD DUP2 DUP2 DUP2 PUSH2 0xFA7 ADD MSTORE PUSH2 0x1B95 ADD MSTORE PUSH2 0x3921 SWAP1 RETURN JUMPDEST PUSH1 0x0 DUP1 REVERT JUMPDEST PUSH3 0x45 PUSH3 0x51 JUMP JUMPDEST PUSH3 0x4F PUSH3 0x181 JUMP JUMPDEST JUMP JUMPDEST PUSH3 0x4F PUSH3 0x96 JUMP JUMPDEST PUSH3 0x71 SWAP1 PUSH3 0x74 SWAP1 PUSH1 0x1 PUSH1 0x1 PUSH1 0xA0 SHL SUB AND DUP3 JUMP JUMPDEST SWAP1 JUMP JUMPDEST PUSH1 0x1 PUSH1 0x1 PUSH1 0xA0 SHL SUB AND SWAP1 JUMP JUMPDEST PUSH3 0x71 SWAP1 PUSH3 0x5B JUMP JUMPDEST PUSH3 0x71 SWAP1 PUSH3 0x80 JUMP JUMPDEST PUSH3 0xA1 ADDRESS PUSH3 0x8B JUMP JUMPDEST PUSH1 0x80 MSTORE JUMP JUMPDEST PUSH3 0x71 SWAP1 PUSH1 0x8 SHR JUMPDEST PUSH1 0xFF AND SWAP1 JUMP JUMPDEST PUSH3 0x71 SWAP1 SLOAD PUSH3 0xA6 JUMP JUMPDEST PUSH1 0x20 DUP1 DUP3 MSTORE PUSH1 0x27 SWAP1 DUP3 ADD MSTORE PUSH32 0x496E697469616C697A61626C653A20636F6E747261637420697320696E697469 PUSH1 0x40 DUP3 ADD MSTORE PUSH7 0x616C697A696E67 PUSH1 0xC8 SHL PUSH1 0x60 DUP3 ADD MSTORE PUSH1 0x80 ADD SWAP1 JUMP JUMPDEST ISZERO PUSH3 0x110 JUMPI JUMP JUMPDEST PUSH1 0x40 MLOAD PUSH3 0x461BCD PUSH1 0xE5 SHL DUP2 MSTORE DUP1 PUSH3 0x12B PUSH1 0x4 DUP3 ADD PUSH3 0xC1 JUMP JUMPDEST SUB SWAP1 REVERT JUMPDEST PUSH3 0x71 SWAP1 PUSH3 0xAF JUMP JUMPDEST PUSH3 0x71 SWAP1 SLOAD PUSH3 0x12F JUMP JUMPDEST PUSH3 0xAF PUSH3 0x71 PUSH3 0x71 SWAP3 PUSH1 0xFF AND SWAP1 JUMP JUMPDEST SWAP1 PUSH3 0x16D PUSH3 0x71 PUSH3 0x17D SWAP3 PUSH3 0x146 JUMP JUMPDEST DUP3 SLOAD PUSH1 0xFF NOT AND PUSH1 0xFF SWAP2 SWAP1 SWAP2 AND OR SWAP1 JUMP JUMPDEST SWAP1 SSTORE JUMP JUMPDEST PUSH3 0x19F PUSH3 0x199 PUSH3 0x195 PUSH1 0x0 PUSH3 0xB5 JUMP JUMPDEST ISZERO SWAP1 JUMP JUMPDEST PUSH3 0x108 JUMP JUMPDEST PUSH3 0x1AB PUSH1 0x0 PUSH3 0x13A JUMP JUMPDEST PUSH1 0xFF SWAP1 DUP2 AND SUB PUSH3 0x1B8 JUMPI JUMP JUMPDEST PUSH3 0x1C6 PUSH1 0xFF PUSH1 0x0 PUSH3 0x159 JUMP JUMPDEST PUSH32 0x7F26B83FF96E1F2B6A682F133852F6798A09C465DA95921460CEFB3847402498 PUSH3 0x1F1 PUSH1 0x40 MLOAD SWAP1 JUMP JUMPDEST PUSH1 0xFF DUP2 MSTORE PUSH1 0x20 SWAP1 LOG1 JUMP INVALID PUSH1 0x80 PUSH1 0x40 MSTORE PUSH1 0x4 CALLDATASIZE LT ISZERO PUSH2 0x12 JUMPI PUSH1 0x0 DUP1 REVERT JUMPDEST PUSH1 0x0 CALLDATALOAD PUSH1 0xE0 SHR DUP1 PUSH4 0x6FDDE03 EQ PUSH2 0x2D2 JUMPI DUP1 PUSH4 0x95EA7B3 EQ PUSH2 0x2CD JUMPI DUP1 PUSH4 0x18160DDD EQ PUSH2 0x2C8 JUMPI DUP1 PUSH4 0x21EFF7FC EQ PUSH2 0x2C3 JUMPI DUP1 PUSH4 0x23B872DD EQ PUSH2 0x2BE JUMPI DUP1 PUSH4 0x2EDF0869 EQ PUSH2 0x2B9 JUMPI DUP1 PUSH4 0x313CE567 EQ PUSH2 0x2B4 JUMPI DUP1 PUSH4 0x3659CFE6 EQ PUSH2 0x2AF JUMPI DUP1 PUSH4 0x36F234AC EQ PUSH2 0x2AA JUMPI DUP1 PUSH4 0x39509351 EQ PUSH2 0x2A5 JUMPI DUP1 PUSH4 0x3AF32ABF EQ PUSH2 0x2A0 JUMPI DUP1 PUSH4 0x3F4BA83A EQ PUSH2 0x29B JUMPI DUP1 PUSH4 0x42966C68 EQ PUSH2 0x296 JUMPI DUP1 PUSH4 0x42E94C90 EQ PUSH2 0x291 JUMPI DUP1 PUSH4 0x4BB278F3 EQ PUSH2 0x28C JUMPI DUP1 PUSH4 0x4F1EF286 EQ PUSH2 0x287 JUMPI DUP1 PUSH4 0x52D1902D EQ PUSH2 0x282 JUMPI DUP1 PUSH4 0x5C975ABB EQ PUSH2 0x27D JUMPI DUP1 PUSH4 0x644FAB74 EQ PUSH2 0x278 JUMPI DUP1 PUSH4 0x70A08231 EQ PUSH2 0x273 JUMPI DUP1 PUSH4 0x715018A6 EQ PUSH2 0x26E JUMPI DUP1 PUSH4 0x748F7098 EQ PUSH2 0x269 JUMPI DUP1 PUSH4 0x79CC6790 EQ PUSH2 0x264 JUMPI DUP1 PUSH4 0x7F76B223 EQ PUSH2 0x25F JUMPI DUP1 PUSH4 0x8456CB59 EQ PUSH2 0x25A JUMPI DUP1 PUSH4 0x8DA5CB5B EQ PUSH2 0x255 JUMPI DUP1 PUSH4 0x95D89B41 EQ PUSH2 0x250 JUMPI DUP1 PUSH4 0x9B19251A EQ PUSH2 0x24B JUMPI DUP1 PUSH4 0x9E4E7318 EQ PUSH2 0x246 JUMPI DUP1 PUSH4 0xA457C2D7 EQ PUSH2 0x241 JUMPI DUP1 PUSH4 0xA9059CBB EQ PUSH2 0x23C JUMPI DUP1 PUSH4 0xAFF177CA EQ PUSH2 0x237 JUMPI DUP1 PUSH4 0xB5545A3C EQ PUSH2 0x232 JUMPI DUP1 PUSH4 0xBB0E69E8 EQ PUSH2 0x22D JUMPI DUP1 PUSH4 0xBFFB691D EQ PUSH2 0x228 JUMPI DUP1 PUSH4 0xCBA4CBD3 EQ PUSH2 0x223 JUMPI DUP1 PUSH4 0xD5ABEB01 EQ PUSH2 0x21E JUMPI DUP1 PUSH4 0xD7517CAA EQ PUSH2 0x219 JUMPI DUP1 PUSH4 0xD7BB99BA EQ PUSH2 0x214 JUMPI DUP1 PUSH4 0xDD62ED3E EQ PUSH2 0x20F JUMPI DUP1 PUSH4 0xF2FDE38B EQ PUSH2 0x20A JUMPI DUP1 PUSH4 0xF9F92BE4 EQ PUSH2 0x205 JUMPI DUP1 PUSH4 0xFE575A87 EQ PUSH2 0x200 JUMPI PUSH4 0xFFA1AD74 SUB PUSH2 0x2D7 JUMPI PUSH2 0xD6E JUMP JUMPDEST PUSH2 0xD4B JUMP JUMPDEST PUSH2 0xD30 JUMP JUMPDEST PUSH2 0xD07 JUMP JUMPDEST PUSH2 0xCEB JUMP JUMPDEST PUSH2 0xCB5 JUMP JUMPDEST PUSH2 0xC9A JUMP JUMPDEST PUSH2 0xC7F JUMP JUMPDEST PUSH2 0xC57 JUMP JUMPDEST PUSH2 0xC2F JUMP JUMPDEST PUSH2 0xC09 JUMP JUMPDEST PUSH2 0xBF1 JUMP JUMPDEST PUSH2 0xBD8 JUMP JUMPDEST PUSH2 0xB42 JUMP JUMPDEST PUSH2 0xB26 JUMP JUMPDEST PUSH2 0xB0B JUMP JUMPDEST PUSH2 0xA3B JUMP JUMPDEST PUSH2 0x9F2 JUMP JUMPDEST PUSH2 0x9CB JUMP JUMPDEST PUSH2 0x99A JUMP JUMPDEST PUSH2 0x97F JUMP JUMPDEST PUSH2 0x955 JUMP JUMPDEST PUSH2 0x93A JUMP JUMPDEST PUSH2 0x922 JUMP JUMPDEST PUSH2 0x907 JUMP JUMPDEST PUSH2 0x8EE JUMP JUMPDEST PUSH2 0x8D3 JUMP JUMPDEST PUSH2 0x8B8 JUMP JUMPDEST PUSH2 0x8A4 JUMP JUMPDEST PUSH2 0x795 JUMP JUMPDEST PUSH2 0x77A JUMP JUMPDEST PUSH2 0x6F8 JUMP JUMPDEST PUSH2 0x6CC JUMP JUMPDEST PUSH2 0x6B1 JUMP JUMPDEST PUSH2 0x695 JUMP JUMPDEST PUSH2 0x67D JUMP JUMPDEST PUSH2 0x62C JUMP JUMPDEST PUSH2 0x5FD JUMP JUMPDEST PUSH2 0x5C3 JUMP JUMPDEST PUSH2 0x498 JUMP JUMPDEST PUSH2 0x454 JUMP JUMPDEST PUSH2 0x414 JUMP JUMPDEST PUSH2 0x3E6 JUMP JUMPDEST PUSH2 0x356 JUMP JUMPDEST PUSH1 0x0 DUP1 REVERT JUMPDEST PUSH1 0x0 SWAP2 SUB SLT PUSH2 0x2D7 JUMPI JUMP JUMPDEST PUSH1 0x0 JUMPDEST DUP4 DUP2 LT PUSH2 0x2FA JUMPI POP POP PUSH1 0x0 SWAP2 ADD MSTORE JUMP JUMPDEST DUP2 DUP2 ADD MLOAD DUP4 DUP3 ADD MSTORE PUSH1 0x20 ADD PUSH2 0x2EA JUMP JUMPDEST PUSH2 0x32B PUSH2 0x334 PUSH1 0x20 SWAP4 PUSH2 0x33E SWAP4 PUSH2 0x31F DUP2 MLOAD SWAP1 JUMP JUMPDEST DUP1 DUP4 MSTORE SWAP4 DUP5 SWAP3 PUSH1 0x20 ADD SWAP1 JUMP JUMPDEST SWAP6 DUP7 SWAP2 ADD PUSH2 0x2E7 JUMP JUMPDEST PUSH1 0x1F ADD PUSH1 0x1F NOT AND SWAP1 JUMP JUMPDEST ADD SWAP1 JUMP JUMPDEST PUSH1 0x20 DUP1 DUP3 MSTORE PUSH2 0x353 SWAP3 SWAP2 ADD SWAP1 PUSH2 0x30A JUMP JUMPDEST SWAP1 JUMP JUMPDEST CALLVALUE PUSH2 0x2D7 JUMPI PUSH2 0x366 CALLDATASIZE PUSH1 0x4 PUSH2 0x2DC JUMP JUMPDEST PUSH2 0x37D PUSH2 0x371 PUSH2 0xE81 JUMP JUMPDEST PUSH1 0x40 MLOAD SWAP2 DUP3 SWAP2 DUP3 PUSH2 0x342 JUMP JUMPDEST SUB SWAP1 RETURN JUMPDEST PUSH1 0x1 PUSH1 0x1 PUSH1 0xA0 SHL SUB AND SWAP1 JUMP JUMPDEST PUSH2 0x396 DUP2 PUSH2 0x381 JUMP JUMPDEST SUB PUSH2 0x2D7 JUMPI JUMP JUMPDEST SWAP1 POP CALLDATALOAD SWAP1 PUSH2 0x3AA DUP3 PUSH2 0x38D JUMP JUMPDEST JUMP JUMPDEST DUP1 PUSH2 0x396 JUMP JUMPDEST SWAP1 POP CALLDATALOAD SWAP1 PUSH2 0x3AA DUP3 PUSH2 0x3AC JUMP JUMPDEST SWAP2 SWAP1 PUSH1 0x40 DUP4 DUP3 SUB SLT PUSH2 0x2D7 JUMPI PUSH2 0x353 SWAP1 PUSH1 0x20 PUSH2 0x3DB DUP3 DUP7 PUSH2 0x39D JUMP JUMPDEST SWAP5 ADD PUSH2 0x3B2 JUMP JUMPDEST SWAP1 MSTORE JUMP JUMPDEST CALLVALUE PUSH2 0x2D7 JUMPI PUSH2 0x37D PUSH2 0x402 PUSH2 0x3FC CALLDATASIZE PUSH1 0x4 PUSH2 0x3BF JUMP JUMPDEST SWAP1 PUSH2 0xE8B JUMP JUMPDEST PUSH1 0x40 MLOAD SWAP2 DUP3 SWAP2 DUP3 SWAP1 ISZERO ISZERO DUP2 MSTORE PUSH1 0x20 ADD SWAP1 JUMP JUMPDEST CALLVALUE PUSH2 0x2D7 JUMPI PUSH2 0x424 CALLDATASIZE PUSH1 0x4 PUSH2 0x2DC JUMP JUMPDEST PUSH2 0x37D PUSH2 0x42F PUSH2 0xE9B JUMP JUMPDEST PUSH1 0x40 MLOAD JUMPDEST SWAP2 DUP3 SWAP2 DUP3 SWAP1 DUP2 MSTORE PUSH1 0x20 ADD SWAP1 JUMP JUMPDEST SWAP1 PUSH1 0x20 DUP3 DUP3 SUB SLT PUSH2 0x2D7 JUMPI PUSH2 0x353 SWAP2 PUSH2 0x39D JUMP JUMPDEST CALLVALUE PUSH2 0x2D7 JUMPI PUSH2 0x37D PUSH2 0x42F PUSH2 0x46A CALLDATASIZE PUSH1 0x4 PUSH2 0x440 JUMP JUMPDEST PUSH2 0xEA5 JUMP JUMPDEST SWAP1 SWAP2 PUSH1 0x60 DUP3 DUP5 SUB SLT PUSH2 0x2D7 JUMPI PUSH2 0x353 PUSH2 0x488 DUP5 DUP5 PUSH2 0x39D JUMP JUMPDEST SWAP4 PUSH1 0x40 PUSH2 0x3DB DUP3 PUSH1 0x20 DUP8 ADD PUSH2 0x39D JUMP JUMPDEST CALLVALUE PUSH2 0x2D7 JUMPI PUSH2 0x37D PUSH2 0x402 PUSH2 0x4AE CALLDATASIZE PUSH1 0x4 PUSH2 0x46F JUMP JUMPDEST SWAP2 PUSH2 0xEC2 JUMP JUMPDEST PUSH2 0x353 SWAP1 DUP2 JUMP JUMPDEST PUSH2 0x353 SWAP1 SLOAD PUSH2 0x4B4 JUMP JUMPDEST PUSH2 0x353 SWAP1 JUMPDEST PUSH1 0xFF AND SWAP1 JUMP JUMPDEST PUSH2 0x353 SWAP1 SLOAD PUSH2 0x4C5 JUMP JUMPDEST PUSH2 0x353 SWAP1 PUSH1 0x8 SHR PUSH2 0x4CA JUMP JUMPDEST PUSH2 0x353 SWAP1 SLOAD PUSH2 0x4DA JUMP JUMPDEST PUSH2 0x1C3 SWAP1 PUSH2 0x4FD DUP3 PUSH2 0x4BB JUMP JUMPDEST SWAP2 PUSH2 0x50A PUSH1 0x1 DUP3 ADD PUSH2 0x4BB JUMP JUMPDEST SWAP2 PUSH2 0x517 PUSH1 0x2 DUP4 ADD PUSH2 0x4BB JUMP JUMPDEST SWAP2 PUSH2 0x524 PUSH1 0x3 DUP3 ADD PUSH2 0x4BB JUMP JUMPDEST SWAP2 PUSH2 0x531 PUSH1 0x4 DUP4 ADD PUSH2 0x4BB JUMP JUMPDEST SWAP2 PUSH2 0x53E PUSH1 0x5 DUP3 ADD PUSH2 0x4BB JUMP JUMPDEST SWAP2 PUSH2 0x54B PUSH1 0x6 DUP4 ADD PUSH2 0x4BB JUMP JUMPDEST SWAP2 PUSH2 0x558 PUSH1 0x7 DUP3 ADD PUSH2 0x4D0 JUMP JUMPDEST SWAP2 PUSH2 0x353 PUSH1 0x8 PUSH2 0x56A PUSH1 0x7 DUP6 ADD PUSH2 0x4E6 JUMP JUMPDEST SWAP4 ADD PUSH2 0x4BB JUMP JUMPDEST SWAP8 SWAP6 SWAP4 SWAP2 SWAP11 SWAP10 SWAP9 SWAP7 SWAP5 SWAP3 SWAP1 SWAP11 PUSH2 0x140 DUP10 ADD SWAP12 PUSH1 0x0 DUP11 ADD PUSH2 0x58F SWAP2 SWAP1 MSTORE JUMP JUMPDEST PUSH1 0x20 DUP10 ADD MSTORE PUSH1 0x40 DUP9 ADD MSTORE PUSH1 0x60 DUP8 ADD MSTORE PUSH1 0x80 DUP7 ADD MSTORE PUSH1 0xA0 DUP6 ADD MSTORE PUSH1 0xC0 DUP5 ADD MSTORE ISZERO ISZERO PUSH1 0xE0 DUP4 ADD MSTORE ISZERO ISZERO PUSH2 0x100 DUP3 ADD MSTORE PUSH2 0x120 ADD MSTORE JUMP JUMPDEST CALLVALUE PUSH2 0x2D7 JUMPI PUSH2 0x5D3 CALLDATASIZE PUSH1 0x4 PUSH2 0x2DC JUMP JUMPDEST PUSH2 0x37D PUSH2 0x5DE PUSH2 0x4F0 JUMP JUMPDEST SWAP7 PUSH2 0x5F4 SWAP11 SWAP9 SWAP11 SWAP7 SWAP2 SWAP7 SWAP6 SWAP3 SWAP6 SWAP5 SWAP4 SWAP5 PUSH1 0x40 MLOAD SWAP1 JUMP JUMPDEST SWAP11 DUP12 SWAP11 DUP12 PUSH2 0x571 JUMP JUMPDEST CALLVALUE PUSH2 0x2D7 JUMPI PUSH2 0x60D CALLDATASIZE PUSH1 0x4 PUSH2 0x2DC JUMP JUMPDEST PUSH2 0x37D PUSH2 0x618 PUSH2 0xEE6 JUMP JUMPDEST PUSH1 0x40 MLOAD SWAP2 DUP3 SWAP2 DUP3 PUSH1 0xFF SWAP1 SWAP2 AND DUP2 MSTORE PUSH1 0x20 ADD SWAP1 JUMP JUMPDEST CALLVALUE PUSH2 0x2D7 JUMPI PUSH2 0x644 PUSH2 0x63F CALLDATASIZE PUSH1 0x4 PUSH2 0x440 JUMP JUMPDEST PUSH2 0x105A JUMP JUMPDEST PUSH1 0x40 MLOAD STOP JUMPDEST SWAP1 DUP2 PUSH2 0x1A0 SWAP2 SUB SLT PUSH2 0x2D7 JUMPI SWAP1 JUMP JUMPDEST SWAP1 PUSH1 0x20 DUP3 DUP3 SUB SLT PUSH2 0x2D7 JUMPI DUP2 CALLDATALOAD PUSH1 0x1 PUSH1 0x1 PUSH1 0x40 SHL SUB DUP2 GT PUSH2 0x2D7 JUMPI PUSH2 0x353 SWAP3 ADD PUSH2 0x649 JUMP JUMPDEST CALLVALUE PUSH2 0x2D7 JUMPI PUSH2 0x644 PUSH2 0x690 CALLDATASIZE PUSH1 0x4 PUSH2 0x658 JUMP JUMPDEST PUSH2 0x17FB JUMP JUMPDEST CALLVALUE PUSH2 0x2D7 JUMPI PUSH2 0x37D PUSH2 0x402 PUSH2 0x6AB CALLDATASIZE PUSH1 0x4 PUSH2 0x3BF JUMP JUMPDEST SWAP1 PUSH2 0x1816 JUMP JUMPDEST CALLVALUE PUSH2 0x2D7 JUMPI PUSH2 0x37D PUSH2 0x402 PUSH2 0x6C7 CALLDATASIZE PUSH1 0x4 PUSH2 0x440 JUMP JUMPDEST PUSH2 0x1835 JUMP JUMPDEST CALLVALUE PUSH2 0x2D7 JUMPI PUSH2 0x6DC CALLDATASIZE PUSH1 0x4 PUSH2 0x2DC JUMP JUMPDEST PUSH2 0x644 PUSH2 0x1865 JUMP JUMPDEST SWAP1 PUSH1 0x20 DUP3 DUP3 SUB SLT PUSH2 0x2D7 JUMPI PUSH2 0x353 SWAP2 PUSH2 0x3B2 JUMP JUMPDEST CALLVALUE PUSH2 0x2D7 JUMPI PUSH2 0x644 PUSH2 0x70B CALLDATASIZE PUSH1 0x4 PUSH2 0x6E4 JUMP JUMPDEST PUSH2 0x186D JUMP JUMPDEST PUSH2 0x353 SWAP1 PUSH2 0x381 SWAP1 PUSH1 0x1 PUSH1 0x1 PUSH1 0xA0 SHL SUB AND DUP3 JUMP JUMPDEST PUSH2 0x353 SWAP1 PUSH2 0x710 JUMP JUMPDEST PUSH2 0x353 SWAP1 PUSH2 0x724 JUMP JUMPDEST SWAP1 PUSH2 0x740 SWAP1 PUSH2 0x72D JUMP JUMPDEST PUSH1 0x0 MSTORE PUSH1 0x20 MSTORE PUSH1 0x40 PUSH1 0x0 KECCAK256 SWAP1 JUMP JUMPDEST PUSH2 0x353 SWAP2 PUSH1 0x8 MUL SHR DUP2 JUMP JUMPDEST SWAP1 PUSH2 0x353 SWAP2 SLOAD PUSH2 0x74E JUMP JUMPDEST PUSH1 0x0 PUSH2 0x775 PUSH2 0x353 SWAP3 PUSH2 0x1CD PUSH2 0x736 JUMP JUMPDEST PUSH2 0x759 JUMP JUMPDEST CALLVALUE PUSH2 0x2D7 JUMPI PUSH2 0x37D PUSH2 0x42F PUSH2 0x790 CALLDATASIZE PUSH1 0x4 PUSH2 0x440 JUMP JUMPDEST PUSH2 0x764 JUMP JUMPDEST CALLVALUE PUSH2 0x2D7 JUMPI PUSH2 0x7A5 CALLDATASIZE PUSH1 0x4 PUSH2 0x2DC JUMP JUMPDEST PUSH2 0x644 PUSH2 0x1AD8 JUMP JUMPDEST PUSH4 0x4E487B71 PUSH1 0xE0 SHL PUSH1 0x0 MSTORE PUSH1 0x41 PUSH1 0x4 MSTORE PUSH1 0x24 PUSH1 0x0 REVERT JUMPDEST SWAP1 PUSH1 0x1F ADD PUSH1 0x1F NOT AND DUP2 ADD SWAP1 DUP2 LT PUSH1 0x1 PUSH1 0x1 PUSH1 0x40 SHL SUB DUP3 GT OR PUSH2 0x7E4 JUMPI PUSH1 0x40 MSTORE JUMP JUMPDEST PUSH2 0x7AD JUMP JUMPDEST SWAP1 PUSH2 0x3AA PUSH2 0x7F6 PUSH1 0x40 MLOAD SWAP1 JUMP JUMPDEST SWAP3 DUP4 PUSH2 0x7C3 JUMP JUMPDEST PUSH1 0x1 PUSH1 0x1 PUSH1 0x40 SHL SUB DUP2 GT PUSH2 0x7E4 JUMPI PUSH1 0x20 SWAP1 PUSH1 0x1F ADD PUSH1 0x1F NOT AND ADD SWAP1 JUMP JUMPDEST SWAP1 DUP3 PUSH1 0x0 SWAP4 SWAP3 DUP3 CALLDATACOPY ADD MSTORE JUMP JUMPDEST SWAP1 SWAP3 SWAP2 SWAP3 PUSH2 0x83A PUSH2 0x835 DUP3 PUSH2 0x7FD JUMP JUMPDEST PUSH2 0x7E9 JUMP JUMPDEST SWAP4 DUP2 DUP6 MSTORE DUP2 DUP4 ADD GT PUSH2 0x2D7 JUMPI PUSH2 0x3AA SWAP2 PUSH1 0x20 DUP6 ADD SWAP1 PUSH2 0x819 JUMP JUMPDEST SWAP1 DUP1 PUSH1 0x1F DUP4 ADD SLT ISZERO PUSH2 0x2D7 JUMPI DUP2 PUSH1 0x20 PUSH2 0x353 SWAP4 CALLDATALOAD SWAP2 ADD PUSH2 0x825 JUMP JUMPDEST SWAP2 SWAP1 SWAP2 PUSH1 0x40 DUP2 DUP5 SUB SLT PUSH2 0x2D7 JUMPI PUSH2 0x886 DUP4 DUP3 PUSH2 0x39D JUMP JUMPDEST SWAP3 PUSH1 0x20 DUP3 ADD CALLDATALOAD PUSH1 0x1 PUSH1 0x1 PUSH1 0x40 SHL SUB DUP2 GT PUSH2 0x2D7 JUMPI PUSH2 0x353 SWAP3 ADD PUSH2 0x854 JUMP JUMPDEST PUSH2 0x644 PUSH2 0x8B2 CALLDATASIZE PUSH1 0x4 PUSH2 0x86F JUMP JUMPDEST SWAP1 PUSH2 0x1B06 JUMP JUMPDEST CALLVALUE PUSH2 0x2D7 JUMPI PUSH2 0x8C8 CALLDATASIZE PUSH1 0x4 PUSH2 0x2DC JUMP JUMPDEST PUSH2 0x37D PUSH2 0x42F PUSH2 0x1BF6 JUMP JUMPDEST CALLVALUE PUSH2 0x2D7 JUMPI PUSH2 0x8E3 CALLDATASIZE PUSH1 0x4 PUSH2 0x2DC JUMP JUMPDEST PUSH2 0x37D PUSH2 0x402 PUSH2 0x1C00 JUMP JUMPDEST CALLVALUE PUSH2 0x2D7 JUMPI PUSH2 0x644 PUSH2 0x901 CALLDATASIZE PUSH1 0x4 PUSH2 0x3BF JUMP JUMPDEST SWAP1 PUSH2 0x1D32 JUMP JUMPDEST CALLVALUE PUSH2 0x2D7 JUMPI PUSH2 0x37D PUSH2 0x42F PUSH2 0x91D CALLDATASIZE PUSH1 0x4 PUSH2 0x440 JUMP JUMPDEST PUSH2 0x1D3C JUMP JUMPDEST CALLVALUE PUSH2 0x2D7 JUMPI PUSH2 0x932 CALLDATASIZE PUSH1 0x4 PUSH2 0x2DC JUMP JUMPDEST PUSH2 0x644 PUSH2 0x1D6B JUMP JUMPDEST CALLVALUE PUSH2 0x2D7 JUMPI PUSH2 0x37D PUSH2 0x42F PUSH2 0x950 CALLDATASIZE PUSH1 0x4 PUSH2 0x440 JUMP JUMPDEST PUSH2 0x1D73 JUMP JUMPDEST CALLVALUE PUSH2 0x2D7 JUMPI PUSH2 0x644 PUSH2 0x968 CALLDATASIZE PUSH1 0x4 PUSH2 0x3BF JUMP JUMPDEST SWAP1 PUSH2 0x1D8B JUMP JUMPDEST PUSH1 0x0 PUSH2 0x775 PUSH2 0x353 SWAP3 PUSH2 0x1D1 PUSH2 0x736 JUMP JUMPDEST CALLVALUE PUSH2 0x2D7 JUMPI PUSH2 0x37D PUSH2 0x42F PUSH2 0x995 CALLDATASIZE PUSH1 0x4 PUSH2 0x440 JUMP JUMPDEST PUSH2 0x96E JUMP JUMPDEST CALLVALUE PUSH2 0x2D7 JUMPI PUSH2 0x9AA CALLDATASIZE PUSH1 0x4 PUSH2 0x2DC JUMP JUMPDEST PUSH2 0x644 PUSH2 0x1DAD JUMP JUMPDEST PUSH2 0x3E2 SWAP1 PUSH2 0x381 JUMP JUMPDEST PUSH1 0x20 DUP2 ADD SWAP3 SWAP2 PUSH2 0x3AA SWAP2 SWAP1 PUSH2 0x9B2 JUMP JUMPDEST CALLVALUE PUSH2 0x2D7 JUMPI PUSH2 0x9DB CALLDATASIZE PUSH1 0x4 PUSH2 0x2DC JUMP JUMPDEST PUSH2 0x37D PUSH2 0x9E6 PUSH2 0x1DC8 JUMP JUMPDEST PUSH1 0x40 MLOAD SWAP2 DUP3 SWAP2 DUP3 PUSH2 0x9BB JUMP JUMPDEST CALLVALUE PUSH2 0x2D7 JUMPI PUSH2 0xA02 CALLDATASIZE PUSH1 0x4 PUSH2 0x2DC JUMP JUMPDEST PUSH2 0x37D PUSH2 0x371 PUSH2 0x1DD2 JUMP JUMPDEST PUSH2 0x353 SWAP2 PUSH1 0x8 MUL SHR PUSH2 0x4CA JUMP JUMPDEST SWAP1 PUSH2 0x353 SWAP2 SLOAD PUSH2 0xA0D JUMP JUMPDEST PUSH1 0x0 PUSH2 0xA36 PUSH2 0x353 SWAP3 PUSH2 0x1CC PUSH2 0x736 JUMP JUMPDEST PUSH2 0xA1A JUMP JUMPDEST CALLVALUE PUSH2 0x2D7 JUMPI PUSH2 0x37D PUSH2 0x402 PUSH2 0xA51 CALLDATASIZE PUSH1 0x4 PUSH2 0x440 JUMP JUMPDEST PUSH2 0xA25 JUMP JUMPDEST SWAP1 PUSH2 0xA63 PUSH2 0x835 DUP4 PUSH2 0x7FD JUMP JUMPDEST SWAP2 DUP3 MSTORE JUMP JUMPDEST PUSH2 0xA72 PUSH1 0x5 PUSH2 0xA56 JUMP JUMPDEST PUSH5 0x322E312E3 PUSH1 0xDC SHL PUSH1 0x20 DUP3 ADD MSTORE SWAP1 JUMP JUMPDEST PUSH2 0x353 PUSH2 0xA68 JUMP JUMPDEST PUSH2 0x353 PUSH2 0xA83 JUMP JUMPDEST PUSH2 0x33E PUSH2 0xAAB SWAP3 PUSH1 0x20 SWAP3 PUSH2 0xAA5 DUP2 MLOAD SWAP1 JUMP JUMPDEST SWAP5 DUP6 SWAP3 SWAP1 JUMP JUMPDEST SWAP4 DUP5 SWAP2 ADD PUSH2 0x2E7 JUMP JUMPDEST PUSH2 0x353 SWAP2 PUSH2 0xA93 JUMP JUMPDEST PUSH2 0xAC5 PUSH2 0xA8B JUMP JUMPDEST PUSH2 0xAED PUSH2 0xAD1 PUSH1 0x40 MLOAD SWAP1 JUMP JUMPDEST DUP1 SWAP3 PUSH2 0xAE1 PUSH1 0x20 DUP4 ADD SWAP2 DUP3 PUSH2 0xAB4 JUMP JUMPDEST SWAP1 DUP2 SUB DUP3 MSTORE SUB DUP3 PUSH2 0x7C3 JUMP JUMPDEST PUSH2 0xAFF PUSH2 0xAF8 DUP3 MLOAD SWAP1 JUMP JUMPDEST SWAP2 PUSH1 0x20 ADD SWAP1 JUMP JUMPDEST KECCAK256 SWAP1 JUMP JUMPDEST PUSH2 0x353 PUSH2 0xABD JUMP JUMPDEST CALLVALUE PUSH2 0x2D7 JUMPI PUSH2 0xB1B CALLDATASIZE PUSH1 0x4 PUSH2 0x2DC JUMP JUMPDEST PUSH2 0x37D PUSH2 0x42F PUSH2 0xB03 JUMP JUMPDEST CALLVALUE PUSH2 0x2D7 JUMPI PUSH2 0x37D PUSH2 0x402 PUSH2 0xB3C CALLDATASIZE PUSH1 0x4 PUSH2 0x3BF JUMP JUMPDEST SWAP1 PUSH2 0x1E36 JUMP JUMPDEST CALLVALUE PUSH2 0x2D7 JUMPI PUSH2 0x37D PUSH2 0x402 PUSH2 0xB58 CALLDATASIZE PUSH1 0x4 PUSH2 0x3BF JUMP JUMPDEST SWAP1 PUSH2 0x1E5A JUMP JUMPDEST SWAP1 SWAP2 DUP3 PUSH1 0x1F DUP4 ADD SLT ISZERO PUSH2 0x2D7 JUMPI DUP2 CALLDATALOAD SWAP2 PUSH1 0x1 PUSH1 0x1 PUSH1 0x40 SHL SUB DUP4 GT PUSH2 0x2D7 JUMPI PUSH1 0x20 ADD SWAP3 PUSH1 0x20 DUP4 MUL DUP5 ADD GT PUSH2 0x2D7 JUMPI JUMP JUMPDEST DUP1 ISZERO ISZERO PUSH2 0x396 JUMP JUMPDEST SWAP1 POP CALLDATALOAD SWAP1 PUSH2 0x3AA DUP3 PUSH2 0xB8D JUMP JUMPDEST SWAP2 PUSH1 0x40 DUP4 DUP4 SUB SLT PUSH2 0x2D7 JUMPI DUP3 CALLDATALOAD PUSH1 0x1 PUSH1 0x1 PUSH1 0x40 SHL SUB DUP2 GT PUSH2 0x2D7 JUMPI DUP3 PUSH2 0xBCF PUSH1 0x20 SWAP5 PUSH2 0x353 SWAP4 DUP8 ADD PUSH2 0xB5E JUMP JUMPDEST SWAP5 SWAP1 SWAP6 ADD PUSH2 0xB95 JUMP JUMPDEST CALLVALUE PUSH2 0x2D7 JUMPI PUSH2 0x644 PUSH2 0xBEB CALLDATASIZE PUSH1 0x4 PUSH2 0xBA2 JUMP JUMPDEST SWAP2 PUSH2 0x2009 JUMP JUMPDEST CALLVALUE PUSH2 0x2D7 JUMPI PUSH2 0xC01 CALLDATASIZE PUSH1 0x4 PUSH2 0x2DC JUMP JUMPDEST PUSH2 0x644 PUSH2 0x2210 JUMP JUMPDEST CALLVALUE PUSH2 0x2D7 JUMPI PUSH2 0x644 PUSH2 0xC1C CALLDATASIZE PUSH1 0x4 PUSH2 0xBA2 JUMP JUMPDEST SWAP2 PUSH2 0x22E6 JUMP JUMPDEST PUSH2 0x353 PUSH1 0x0 PUSH2 0x1CF PUSH2 0xA1A JUMP JUMPDEST CALLVALUE PUSH2 0x2D7 JUMPI PUSH2 0xC3F CALLDATASIZE PUSH1 0x4 PUSH2 0x2DC JUMP JUMPDEST PUSH2 0x37D PUSH2 0x402 PUSH2 0xC22 JUMP JUMPDEST PUSH2 0x353 PUSH1 0x1 PUSH2 0x1CF PUSH2 0xA1A JUMP JUMPDEST CALLVALUE PUSH2 0x2D7 JUMPI PUSH2 0xC67 CALLDATASIZE PUSH1 0x4 PUSH2 0x2DC JUMP JUMPDEST PUSH2 0x37D PUSH2 0x402 PUSH2 0xC4A JUMP JUMPDEST PUSH2 0x353 PUSH1 0x0 PUSH2 0x1CE PUSH2 0x759 JUMP JUMPDEST CALLVALUE PUSH2 0x2D7 JUMPI PUSH2 0xC8F CALLDATASIZE PUSH1 0x4 PUSH2 0x2DC JUMP JUMPDEST PUSH2 0x37D PUSH2 0x42F PUSH2 0xC72 JUMP JUMPDEST CALLVALUE PUSH2 0x2D7 JUMPI PUSH2 0xCAA CALLDATASIZE PUSH1 0x4 PUSH2 0x2DC JUMP JUMPDEST PUSH2 0x37D PUSH2 0x5DE PUSH2 0x22F1 JUMP JUMPDEST PUSH2 0xCC0 CALLDATASIZE PUSH1 0x4 PUSH2 0x2DC JUMP JUMPDEST PUSH2 0x644 PUSH2 0x26A7 JUMP JUMPDEST SWAP2 SWAP1 PUSH1 0x40 DUP4 DUP3 SUB SLT PUSH2 0x2D7 JUMPI PUSH2 0x353 SWAP1 PUSH1 0x20 PUSH2 0xCE4 DUP3 DUP7 PUSH2 0x39D JUMP JUMPDEST SWAP5 ADD PUSH2 0x39D JUMP JUMPDEST CALLVALUE PUSH2 0x2D7 JUMPI PUSH2 0x37D PUSH2 0x42F PUSH2 0xD01 CALLDATASIZE PUSH1 0x4 PUSH2 0xCC8 JUMP JUMPDEST SWAP1 PUSH2 0x26AF JUMP JUMPDEST CALLVALUE PUSH2 0x2D7 JUMPI PUSH2 0x644 PUSH2 0xD1A CALLDATASIZE PUSH1 0x4 PUSH2 0x440 JUMP JUMPDEST PUSH2 0x275F JUMP JUMPDEST PUSH1 0x0 PUSH2 0xA36 PUSH2 0x353 SWAP3 PUSH2 0x1D0 PUSH2 0x736 JUMP JUMPDEST CALLVALUE PUSH2 0x2D7 JUMPI PUSH2 0x37D PUSH2 0x402 PUSH2 0xD46 CALLDATASIZE PUSH1 0x4 PUSH2 0x440 JUMP JUMPDEST PUSH2 0xD1F JUMP JUMPDEST CALLVALUE PUSH2 0x2D7 JUMPI PUSH2 0x37D PUSH2 0x402 PUSH2 0xD61 CALLDATASIZE PUSH1 0x4 PUSH2 0x440 JUMP JUMPDEST PUSH2 0x2768 JUMP JUMPDEST PUSH2 0x353 PUSH2 0xA8B JUMP JUMPDEST CALLVALUE PUSH2 0x2D7 JUMPI PUSH2 0xD7E CALLDATASIZE PUSH1 0x4 PUSH2 0x2DC JUMP JUMPDEST PUSH2 0x37D PUSH2 0x371 PUSH2 0xD66 JUMP JUMPDEST PUSH4 0x4E487B71 PUSH1 0xE0 SHL PUSH1 0x0 MSTORE PUSH1 0x22 PUSH1 0x4 MSTORE PUSH1 0x24 PUSH1 0x0 REVERT JUMPDEST SWAP1 PUSH1 0x1 PUSH1 0x2 DUP4 DIV SWAP3 AND DUP1 ISZERO PUSH2 0xDBF JUMPI JUMPDEST PUSH1 0x20 DUP4 LT EQ PUSH2 0xDBA JUMPI JUMP JUMPDEST PUSH2 0xD89 JUMP JUMPDEST SWAP2 PUSH1 0x7F AND SWAP2 PUSH2 0xDAF JUMP JUMPDEST DUP1 SLOAD PUSH1 0x0 SWAP4 SWAP3 SWAP2 PUSH2 0xDE6 PUSH2 0xDDC DUP4 PUSH2 0xD9F JUMP JUMPDEST DUP1 DUP6 MSTORE SWAP4 PUSH1 0x20 ADD SWAP1 JUMP JUMPDEST SWAP2 PUSH1 0x1 DUP2 AND SWAP1 DUP2 ISZERO PUSH2 0xE38 JUMPI POP PUSH1 0x1 EQ PUSH2 0xDFF JUMPI POP POP POP JUMP JUMPDEST PUSH2 0xE12 SWAP2 SWAP3 SWAP4 SWAP5 POP PUSH1 0x0 MSTORE PUSH1 0x20 PUSH1 0x0 KECCAK256 SWAP1 JUMP JUMPDEST SWAP2 PUSH1 0x0 SWAP3 JUMPDEST DUP2 DUP5 LT PUSH2 0xE24 JUMPI POP POP ADD SWAP1 JUMP JUMPDEST DUP1 SLOAD DUP5 DUP5 ADD MSTORE PUSH1 0x20 SWAP1 SWAP4 ADD SWAP3 PUSH1 0x1 ADD PUSH2 0xE17 JUMP JUMPDEST SWAP3 SWAP5 SWAP6 POP POP POP PUSH1 0xFF NOT AND DUP3 MSTORE ISZERO ISZERO PUSH1 0x20 MUL ADD SWAP1 JUMP JUMPDEST SWAP1 PUSH2 0x353 SWAP2 PUSH2 0xDC9 JUMP JUMPDEST SWAP1 PUSH2 0x3AA PUSH2 0xE71 SWAP3 PUSH2 0xE68 PUSH1 0x40 MLOAD SWAP1 JUMP JUMPDEST SWAP4 DUP5 DUP1 SWAP3 PUSH2 0xE4D JUMP JUMPDEST SUB DUP4 PUSH2 0x7C3 JUMP JUMPDEST PUSH2 0x353 SWAP1 PUSH2 0xE57 JUMP JUMPDEST PUSH2 0x353 PUSH1 0x36 PUSH2 0xE78 JUMP JUMPDEST PUSH2 0xE96 SWAP2 SWAP1 CALLER PUSH2 0x282F JUMP JUMPDEST PUSH1 0x1 SWAP1 JUMP JUMPDEST PUSH2 0x353 PUSH1 0x35 PUSH2 0x4BB JUMP JUMPDEST PUSH2 0xEBD PUSH2 0x353 SWAP2 PUSH2 0xEB4 PUSH1 0x0 SWAP1 JUMP JUMPDEST POP PUSH2 0x1CD PUSH2 0x736 JUMP JUMPDEST PUSH2 0x4BB JUMP JUMPDEST PUSH2 0xE96 SWAP3 SWAP2 SWAP1 PUSH2 0xED4 DUP4 CALLER JUMPDEST DUP4 PUSH2 0x290F JUMP JUMPDEST PUSH2 0x2A54 JUMP JUMPDEST PUSH2 0x4CA PUSH2 0x353 PUSH2 0x353 SWAP3 SWAP1 JUMP JUMPDEST PUSH2 0x353 PUSH1 0x12 PUSH2 0xED9 JUMP JUMPDEST ISZERO PUSH2 0xEF7 JUMPI JUMP JUMPDEST PUSH1 0x40 MLOAD PUSH3 0x461BCD PUSH1 0xE5 SHL DUP2 MSTORE PUSH1 0x20 PUSH1 0x4 DUP3 ADD MSTORE PUSH1 0x2C PUSH1 0x24 DUP3 ADD MSTORE PUSH1 0x0 DUP1 MLOAD PUSH1 0x20 PUSH2 0x38AC DUP4 CODECOPY DUP2 MLOAD SWAP2 MSTORE PUSH1 0x44 DUP3 ADD MSTORE PUSH12 0x19195B1959D85D1958D85B1B PUSH1 0xA2 SHL PUSH1 0x64 DUP3 ADD MSTORE PUSH1 0x84 SWAP1 REVERT JUMPDEST SUB SWAP1 REVERT JUMPDEST ISZERO PUSH2 0xF4A JUMPI JUMP JUMPDEST PUSH1 0x40 MLOAD PUSH3 0x461BCD PUSH1 0xE5 SHL DUP2 MSTORE PUSH1 0x20 PUSH1 0x4 DUP3 ADD MSTORE PUSH1 0x2C PUSH1 0x24 DUP3 ADD MSTORE PUSH1 0x0 DUP1 MLOAD PUSH1 0x20 PUSH2 0x38AC DUP4 CODECOPY DUP2 MLOAD SWAP2 MSTORE PUSH1 0x44 DUP3 ADD MSTORE PUSH12 0x6163746976652070726F7879 PUSH1 0xA0 SHL PUSH1 0x64 DUP3 ADD MSTORE PUSH1 0x84 SWAP1 REVERT JUMPDEST PUSH2 0x3AA SWAP1 PUSH2 0xFFA PUSH2 0xFA2 ADDRESS PUSH2 0x72D JUMP JUMPDEST PUSH2 0xFE0 PUSH32 0x0 SWAP2 PUSH2 0xFD9 PUSH2 0xFD3 DUP5 PUSH2 0x381 JUMP JUMPDEST SWAP2 PUSH2 0x381 JUMP JUMPDEST EQ ISZERO PUSH2 0xEF0 JUMP JUMPDEST PUSH2 0xFF4 PUSH2 0xFD3 PUSH2 0xFEE PUSH2 0x2AF4 JUMP JUMPDEST SWAP3 PUSH2 0x381 JUMP JUMPDEST EQ PUSH2 0xF43 JUMP JUMPDEST PUSH2 0x1034 JUMP JUMPDEST PUSH2 0x353 PUSH2 0x353 PUSH2 0x353 SWAP3 SWAP1 JUMP JUMPDEST CALLDATASIZE SWAP1 CALLDATACOPY JUMP JUMPDEST SWAP1 PUSH2 0x3AA PUSH2 0x1027 PUSH2 0x1021 DUP5 PUSH2 0xA56 JUMP JUMPDEST SWAP4 PUSH2 0x7FD JUMP JUMPDEST PUSH1 0x1F NOT ADD PUSH1 0x20 DUP5 ADD PUSH2 0x100C JUMP JUMPDEST PUSH1 0x0 PUSH2 0x3AA SWAP2 PUSH2 0x1043 DUP2 PUSH2 0x2B13 JUMP JUMPDEST PUSH2 0x1054 PUSH2 0x104F DUP4 PUSH2 0xFFF JUMP JUMPDEST PUSH2 0x1011 JUMP JUMPDEST SWAP1 PUSH2 0x2BC4 JUMP JUMPDEST PUSH2 0x3AA SWAP1 PUSH2 0xF92 JUMP JUMPDEST ISZERO PUSH2 0x106A JUMPI JUMP JUMPDEST PUSH1 0x40 MLOAD PUSH3 0x461BCD PUSH1 0xE5 SHL DUP2 MSTORE PUSH1 0x20 PUSH1 0x4 DUP3 ADD MSTORE PUSH1 0x2E PUSH1 0x24 DUP3 ADD MSTORE PUSH32 0x496E697469616C697A61626C653A20636F6E747261637420697320616C726561 PUSH1 0x44 DUP3 ADD MSTORE PUSH14 0x191E481A5B9A5D1A585B1A5E9959 PUSH1 0x92 SHL PUSH1 0x64 DUP3 ADD MSTORE PUSH1 0x84 SWAP1 REVERT JUMPDEST SWAP1 PUSH1 0xFF SWAP1 JUMPDEST SWAP2 DUP2 NOT AND SWAP2 AND OR SWAP1 JUMP JUMPDEST PUSH2 0x4CA PUSH2 0x353 PUSH2 0x353 SWAP3 PUSH1 0xFF AND SWAP1 JUMP JUMPDEST SWAP1 PUSH2 0x10F5 PUSH2 0x353 PUSH2 0x10FC SWAP3 PUSH2 0x10D5 JUMP JUMPDEST DUP3 SLOAD PUSH2 0x10C6 JUMP JUMPDEST SWAP1 SSTORE JUMP JUMPDEST SWAP1 PUSH2 0xFF00 SWAP1 PUSH1 0x8 SHL PUSH2 0x10CB JUMP JUMPDEST SWAP1 PUSH2 0x111D PUSH2 0x353 PUSH2 0x10FC SWAP3 ISZERO ISZERO SWAP1 JUMP JUMPDEST DUP3 SLOAD PUSH2 0x1100 JUMP JUMPDEST PUSH2 0x3E2 SWAP1 PUSH2 0xED9 JUMP JUMPDEST PUSH1 0x20 DUP2 ADD SWAP3 SWAP2 PUSH2 0x3AA SWAP2 SWAP1 PUSH2 0x1124 JUMP JUMPDEST PUSH2 0x1187 PUSH2 0x1151 PUSH2 0x114D PUSH1 0x0 PUSH2 0x4E6 JUMP JUMPDEST ISZERO SWAP1 JUMP JUMPDEST SWAP2 DUP3 DUP1 PUSH2 0x1229 JUMPI JUMPDEST DUP1 ISZERO PUSH2 0x11E4 JUMPI JUMPDEST PUSH2 0x1169 SWAP1 PUSH2 0x1063 JUMP JUMPDEST DUP3 PUSH2 0x117E PUSH2 0x1177 PUSH1 0x1 PUSH2 0xED9 JUMP JUMPDEST PUSH1 0x0 PUSH2 0x10E5 JUMP JUMPDEST PUSH2 0x11D3 JUMPI PUSH2 0x155D JUMP JUMPDEST PUSH2 0x118D JUMPI JUMP JUMPDEST PUSH2 0x1198 PUSH1 0x0 DUP1 PUSH2 0x110D JUMP JUMPDEST PUSH32 0x7F26B83FF96E1F2B6A682F133852F6798A09C465DA95921460CEFB3847402498 PUSH2 0x11C2 PUSH1 0x40 MLOAD SWAP1 JUMP JUMPDEST DUP1 PUSH2 0x11CE PUSH1 0x1 DUP3 PUSH2 0x112D JUMP JUMPDEST SUB SWAP1 LOG1 JUMP JUMPDEST PUSH2 0x11DF PUSH1 0x1 PUSH1 0x0 PUSH2 0x110D JUMP JUMPDEST PUSH2 0x155D JUMP JUMPDEST POP PUSH2 0x11F9 PUSH2 0x114D PUSH2 0x11F4 ADDRESS PUSH2 0x72D JUMP JUMPDEST PUSH2 0x2CD3 JUMP JUMPDEST DUP1 ISZERO PUSH2 0x1160 JUMPI POP PUSH2 0x1169 PUSH2 0x120D PUSH1 0x0 PUSH2 0x4D0 JUMP JUMPDEST PUSH2 0x1221 PUSH2 0x121A PUSH1 0x1 PUSH2 0xED9 JUMP JUMPDEST SWAP2 PUSH1 0xFF AND SWAP1 JUMP JUMPDEST EQ SWAP1 POP PUSH2 0x1160 JUMP JUMPDEST POP PUSH2 0x1234 PUSH1 0x0 PUSH2 0x4D0 JUMP JUMPDEST PUSH2 0x1241 PUSH2 0x121A PUSH1 0x1 PUSH2 0xED9 JUMP JUMPDEST LT PUSH2 0x1159 JUMP JUMPDEST SWAP1 CALLDATALOAD SWAP1 PUSH1 0x1E NOT CALLDATASIZE DUP3 SWAP1 SUB ADD DUP3 SLT ISZERO PUSH2 0x2D7 JUMPI ADD DUP1 CALLDATALOAD SWAP1 PUSH1 0x1 PUSH1 0x1 PUSH1 0x40 SHL SUB DUP3 GT PUSH2 0x2D7 JUMPI PUSH1 0x20 ADD SWAP2 CALLDATASIZE DUP3 SWAP1 SUB DUP4 SGT PUSH2 0x2D7 JUMPI JUMP JUMPDEST PUSH2 0x353 SWAP2 CALLDATASIZE SWAP2 PUSH2 0x825 JUMP JUMPDEST CALLDATALOAD PUSH2 0x353 DUP2 PUSH2 0x38D JUMP JUMPDEST PUSH2 0x381 PUSH2 0x353 PUSH2 0x353 SWAP3 SWAP1 JUMP JUMPDEST PUSH2 0x353 SWAP1 PUSH2 0x1290 JUMP JUMPDEST CALLDATALOAD PUSH2 0x353 DUP2 PUSH2 0x3AC JUMP JUMPDEST ISZERO PUSH2 0x12B7 JUMPI JUMP JUMPDEST PUSH1 0x40 MLOAD PUSH3 0x461BCD PUSH1 0xE5 SHL DUP2 MSTORE PUSH1 0x20 PUSH1 0x4 DUP3 ADD MSTORE PUSH1 0x24 DUP1 DUP3 ADD MSTORE PUSH32 0x4D617820737570706C79206D757374206265203E3D20696E697469616C207375 PUSH1 0x44 DUP3 ADD MSTORE PUSH4 0x70706C79 PUSH1 0xE0 SHL PUSH1 0x64 DUP3 ADD MSTORE PUSH1 0x84 SWAP1 REVERT JUMPDEST ISZERO PUSH2 0x130F JUMPI JUMP JUMPDEST PUSH1 0x40 MLOAD PUSH3 0x461BCD PUSH1 0xE5 SHL DUP2 MSTORE PUSH1 0x20 PUSH1 0x4 DUP3 ADD MSTORE PUSH1 0x1C PUSH1 0x24 DUP3 ADD MSTORE PUSH28 0x53746172742074696D65206D75737420626520696E20667574757265 PUSH1 0x20 SHL PUSH1 0x44 DUP3 ADD MSTORE PUSH1 0x64 SWAP1 REVERT JUMPDEST ISZERO PUSH2 0x135A JUMPI JUMP JUMPDEST PUSH1 0x40 MLOAD PUSH3 0x461BCD PUSH1 0xE5 SHL DUP2 MSTORE PUSH1 0x20 PUSH1 0x4 DUP3 ADD MSTORE PUSH1 0x21 PUSH1 0x24 DUP3 ADD MSTORE PUSH32 0x456E642074696D65206D7573742062652061667465722073746172742074696D PUSH1 0x44 DUP3 ADD MSTORE PUSH1 0x65 PUSH1 0xF8 SHL PUSH1 0x64 DUP3 ADD MSTORE PUSH1 0x84 SWAP1 REVERT JUMPDEST SWAP1 PUSH1 0x0 NOT SWAP1 PUSH2 0x10CB JUMP JUMPDEST SWAP1 PUSH2 0x13C3 PUSH2 0x353 PUSH2 0x10FC SWAP3 PUSH2 0xFFF JUMP JUMPDEST DUP3 SLOAD PUSH2 0x13A9 JUMP JUMPDEST CALLDATALOAD PUSH2 0x353 DUP2 PUSH2 0xB8D JUMP JUMPDEST SWAP1 PUSH2 0x10F5 PUSH2 0x353 PUSH2 0x10FC SWAP3 ISZERO ISZERO SWAP1 JUMP JUMPDEST PUSH4 0x4E487B71 PUSH1 0xE0 SHL PUSH1 0x0 MSTORE PUSH1 0x12 PUSH1 0x4 MSTORE PUSH1 0x24 PUSH1 0x0 REVERT JUMPDEST PUSH4 0x4E487B71 PUSH1 0xE0 SHL PUSH1 0x0 MSTORE PUSH1 0x11 PUSH1 0x4 MSTORE PUSH1 0x24 PUSH1 0x0 REVERT JUMPDEST SWAP1 PUSH2 0x141A JUMP JUMPDEST SWAP2 SWAP1 JUMP JUMPDEST SWAP1 DUP2 ISZERO PUSH2 0x1425 JUMPI DIV SWAP1 JUMP JUMPDEST PUSH2 0x13E4 JUMP JUMPDEST PUSH2 0x353 PUSH2 0x140 PUSH2 0x7E9 JUMP JUMPDEST PUSH1 0x8 PUSH2 0x150F PUSH2 0x120 PUSH2 0x3AA SWAP5 PUSH2 0x1455 PUSH2 0x144F PUSH1 0x0 DUP4 ADD MLOAD SWAP1 JUMP JUMPDEST DUP7 PUSH2 0x13B3 JUMP JUMPDEST PUSH2 0x146C PUSH2 0x1463 PUSH1 0x20 DUP4 ADD MLOAD SWAP1 JUMP JUMPDEST PUSH1 0x1 DUP8 ADD PUSH2 0x13B3 JUMP JUMPDEST PUSH2 0x1483 PUSH2 0x147A PUSH1 0x40 DUP4 ADD MLOAD SWAP1 JUMP JUMPDEST PUSH1 0x2 DUP8 ADD PUSH2 0x13B3 JUMP JUMPDEST PUSH2 0x149A PUSH2 0x1491 PUSH1 0x60 DUP4 ADD MLOAD SWAP1 JUMP JUMPDEST PUSH1 0x3 DUP8 ADD PUSH2 0x13B3 JUMP JUMPDEST PUSH2 0x14B1 PUSH2 0x14A8 PUSH1 0x80 DUP4 ADD MLOAD SWAP1 JUMP JUMPDEST PUSH1 0x4 DUP8 ADD PUSH2 0x13B3 JUMP JUMPDEST PUSH2 0x14C8 PUSH2 0x14BF PUSH1 0xA0 DUP4 ADD MLOAD SWAP1 JUMP JUMPDEST PUSH1 0x5 DUP8 ADD PUSH2 0x13B3 JUMP JUMPDEST PUSH2 0x14DF PUSH2 0x14D6 PUSH1 0xC0 DUP4 ADD MLOAD SWAP1 JUMP JUMPDEST PUSH1 0x6 DUP8 ADD PUSH2 0x13B3 JUMP JUMPDEST PUSH2 0x150A PUSH1 0x7 DUP7 ADD PUSH2 0x14FC PUSH2 0x14F6 PUSH1 0xE0 DUP6 ADD MLOAD ISZERO ISZERO SWAP1 JUMP JUMPDEST DUP3 PUSH2 0x13D4 JUMP JUMPDEST PUSH2 0x100 DUP4 ADD MLOAD ISZERO ISZERO SWAP1 PUSH2 0x110D JUMP JUMPDEST ADD MLOAD SWAP1 JUMP JUMPDEST SWAP2 ADD PUSH2 0x13B3 JUMP JUMPDEST SWAP1 PUSH2 0x3AA SWAP2 PUSH2 0x1435 JUMP JUMPDEST SWAP1 SWAP6 SWAP5 SWAP3 PUSH2 0x3AA SWAP5 PUSH2 0x1552 PUSH2 0x1559 SWAP3 PUSH2 0x154B PUSH1 0x80 SWAP7 PUSH2 0x1544 PUSH1 0xA0 DUP9 ADD SWAP13 PUSH1 0x0 DUP10 ADD MSTORE JUMP JUMPDEST PUSH1 0x20 DUP8 ADD MSTORE JUMP JUMPDEST PUSH1 0x40 DUP6 ADD MSTORE JUMP JUMPDEST PUSH1 0x60 DUP4 ADD MSTORE JUMP JUMPDEST ADD MSTORE JUMP JUMPDEST PUSH2 0x1594 PUSH2 0x158E PUSH2 0x156D DUP4 DUP1 PUSH2 0x1247 JUMP JUMPDEST PUSH2 0x1588 PUSH2 0x1580 PUSH1 0x20 DUP8 SWAP6 SWAP5 SWAP6 ADD DUP8 PUSH2 0x1247 JUMP JUMPDEST SWAP3 SWAP1 SWAP5 PUSH2 0x127B JUMP JUMPDEST SWAP3 PUSH2 0x127B JUMP JUMPDEST SWAP1 PUSH2 0x2D66 JUMP JUMPDEST PUSH2 0x159C PUSH2 0x2D7D JUMP JUMPDEST PUSH2 0x15A4 PUSH2 0x2D9D JUMP JUMPDEST PUSH2 0x15AC PUSH2 0x2DBD JUMP JUMPDEST PUSH2 0x15B4 PUSH2 0x2DDD JUMP JUMPDEST PUSH2 0x15BC PUSH2 0x2D7D JUMP JUMPDEST PUSH1 0x80 DUP2 ADD PUSH2 0x15C9 DUP2 PUSH2 0x1286 JUMP JUMPDEST PUSH1 0x0 SWAP1 PUSH2 0x15E0 PUSH2 0xFD3 PUSH2 0x15DB DUP5 PUSH2 0x129D JUMP JUMPDEST PUSH2 0x381 JUMP JUMPDEST SUB PUSH2 0x17E5 JUMPI JUMPDEST PUSH1 0x60 DUP4 ADD SWAP3 PUSH2 0x15F4 DUP5 PUSH2 0x12A6 JUMP JUMPDEST PUSH1 0x40 DUP3 ADD SWAP1 PUSH2 0x1602 DUP3 PUSH2 0x12A6 JUMP JUMPDEST GT ISZERO PUSH2 0x160D SWAP1 PUSH2 0x12B0 JUMP JUMPDEST PUSH2 0x160 DUP3 ADD SWAP4 PUSH2 0x161C DUP6 PUSH2 0x12A6 JUMP JUMPDEST TIMESTAMP LT PUSH2 0x1627 SWAP1 PUSH2 0x1308 JUMP JUMPDEST PUSH2 0x180 DUP4 ADD SWAP6 PUSH2 0x1636 DUP8 PUSH2 0x12A6 JUMP JUMPDEST PUSH2 0x163F DUP8 PUSH2 0x12A6 JUMP JUMPDEST LT PUSH2 0x1649 SWAP1 PUSH2 0x1353 JUMP JUMPDEST PUSH2 0x1652 SWAP1 PUSH2 0x12A6 JUMP JUMPDEST PUSH2 0x165E SWAP1 PUSH2 0x1CE PUSH2 0x13B3 JUMP JUMPDEST PUSH2 0x166A PUSH1 0xA0 DUP5 ADD PUSH2 0x13CA JUMP JUMPDEST PUSH2 0x1676 SWAP1 PUSH2 0x1CF PUSH2 0x13D4 JUMP JUMPDEST PUSH2 0x1682 PUSH1 0xC0 DUP5 ADD PUSH2 0x13CA JUMP JUMPDEST PUSH2 0x168E SWAP1 PUSH2 0x1CF PUSH2 0x110D JUMP JUMPDEST PUSH2 0x1697 SWAP1 PUSH2 0x1286 JUMP JUMPDEST SWAP1 PUSH2 0x16A1 SWAP1 PUSH2 0x12A6 JUMP JUMPDEST PUSH2 0x16AA SWAP2 PUSH2 0x2EAA JUMP JUMPDEST PUSH2 0x140 DUP2 ADD PUSH2 0x16B8 DUP2 PUSH2 0x12A6 JUMP JUMPDEST PUSH2 0x16C2 PUSH1 0x2 PUSH2 0xFFF JUMP JUMPDEST PUSH2 0x16CB SWAP2 PUSH2 0x1410 JUMP JUMPDEST SWAP1 PUSH2 0x16D5 SWAP1 PUSH2 0x12A6 JUMP JUMPDEST PUSH2 0x16E2 PUSH2 0x100 DUP5 ADD PUSH2 0x12A6 JUMP JUMPDEST SWAP3 PUSH2 0x16F0 PUSH2 0x120 DUP3 ADD PUSH2 0x12A6 JUMP JUMPDEST PUSH2 0x16F9 DUP8 PUSH2 0x12A6 JUMP JUMPDEST SWAP1 PUSH2 0x1703 DUP10 PUSH2 0x12A6 JUMP JUMPDEST SWAP3 PUSH1 0xE0 ADD SWAP6 PUSH2 0x1711 DUP8 PUSH2 0x12A6 JUMP JUMPDEST SWAP5 PUSH2 0x171A PUSH2 0x142A JUMP JUMPDEST SWAP7 PUSH2 0x1725 SWAP1 DUP11 DUP10 ADD MSTORE JUMP JUMPDEST PUSH1 0x20 DUP8 ADD MSTORE PUSH1 0x40 DUP7 ADD MSTORE PUSH1 0x60 DUP6 ADD MSTORE PUSH1 0x80 DUP5 ADD MSTORE PUSH1 0xA0 DUP4 ADD MSTORE PUSH1 0xC0 DUP3 ADD MSTORE DUP3 ISZERO ISZERO PUSH1 0xE0 DUP3 ADD DUP2 SWAP1 MSTORE PUSH2 0x100 DUP3 ADD MSTORE PUSH2 0x175C DUP4 PUSH2 0xFFF JUMP JUMPDEST PUSH2 0x120 DUP3 ADD MSTORE PUSH2 0x176E SWAP1 PUSH2 0x1C3 PUSH2 0x1516 JUMP JUMPDEST PUSH2 0x1C3 SWAP2 DUP3 ADD PUSH2 0x177D SWAP1 PUSH2 0x4BB JUMP JUMPDEST SWAP2 PUSH1 0x1 ADD PUSH2 0x178A SWAP1 PUSH2 0x4BB JUMP JUMPDEST SWAP3 PUSH2 0x1794 SWAP1 PUSH2 0x12A6 JUMP JUMPDEST SWAP4 PUSH2 0x179E SWAP1 PUSH2 0x12A6 JUMP JUMPDEST SWAP1 PUSH2 0x17A8 SWAP1 PUSH2 0x12A6 JUMP JUMPDEST SWAP1 PUSH2 0x17B2 PUSH1 0x40 MLOAD SWAP1 JUMP JUMPDEST SWAP5 DUP6 SWAP5 PUSH2 0x17BF SWAP5 DUP7 PUSH2 0x1520 JUMP JUMPDEST SUB PUSH32 0x363312020DBBA28EB1464EC7D5F963EBE389E1B00DAB8DD54D46E2E2F2E63261 SWAP2 LOG1 JUMP JUMPDEST PUSH2 0x17F6 PUSH2 0x17F1 DUP4 PUSH2 0x1286 JUMP JUMPDEST PUSH2 0x2E0B JUMP JUMPDEST PUSH2 0x15E6 JUMP JUMPDEST PUSH2 0x3AA SWAP1 PUSH2 0x113D JUMP JUMPDEST SWAP2 SWAP1 DUP3 ADD DUP1 SWAP3 GT PUSH2 0x1811 JUMPI JUMP JUMPDEST PUSH2 0x13FA JUMP JUMPDEST PUSH2 0xE96 SWAP2 SWAP1 PUSH2 0x182F CALLER SWAP3 PUSH2 0x182A DUP4 DUP6 PUSH2 0x26AF JUMP JUMPDEST PUSH2 0x1804 JUMP JUMPDEST SWAP2 PUSH2 0x282F JUMP JUMPDEST PUSH2 0x184D PUSH2 0x353 SWAP2 PUSH2 0x1844 PUSH1 0x0 SWAP1 JUMP JUMPDEST POP PUSH2 0x1CC PUSH2 0x736 JUMP JUMPDEST PUSH2 0x4D0 JUMP JUMPDEST PUSH2 0x185A PUSH2 0x2F69 JUMP JUMPDEST PUSH2 0x3AA PUSH2 0x3AA PUSH2 0x2FC7 JUMP JUMPDEST PUSH2 0x3AA PUSH2 0x1852 JUMP JUMPDEST PUSH2 0x3AA SWAP1 CALLER PUSH2 0x307C JUMP JUMPDEST PUSH2 0x307C JUMP JUMPDEST PUSH2 0x1884 PUSH2 0x2F69 JUMP JUMPDEST PUSH2 0x3AA PUSH2 0x188F PUSH2 0x3159 JUMP JUMPDEST PUSH2 0x1897 PUSH2 0x19E5 JUMP JUMPDEST PUSH2 0x3AA PUSH2 0x318D JUMP JUMPDEST ISZERO PUSH2 0x18A6 JUMPI JUMP JUMPDEST PUSH1 0x40 MLOAD PUSH3 0x461BCD PUSH1 0xE5 SHL DUP2 MSTORE PUSH1 0x20 PUSH1 0x4 DUP3 ADD MSTORE PUSH1 0x11 PUSH1 0x24 DUP3 ADD MSTORE PUSH17 0x141C995CD85B19481B9BDD08195B991959 PUSH1 0x7A SHL PUSH1 0x44 DUP3 ADD MSTORE PUSH1 0x64 SWAP1 REVERT JUMPDEST ISZERO PUSH2 0x18E6 JUMPI JUMP JUMPDEST PUSH1 0x40 MLOAD PUSH3 0x461BCD PUSH1 0xE5 SHL DUP2 MSTORE PUSH1 0x20 PUSH1 0x4 DUP3 ADD MSTORE PUSH1 0x11 PUSH1 0x24 DUP3 ADD MSTORE PUSH17 0x105B1C9958591E48199A5B985B1A5E9959 PUSH1 0x7A SHL PUSH1 0x44 DUP3 ADD MSTORE PUSH1 0x64 SWAP1 REVERT JUMPDEST ISZERO PUSH2 0x1926 JUMPI JUMP JUMPDEST PUSH1 0x40 MLOAD PUSH3 0x461BCD PUSH1 0xE5 SHL DUP2 MSTORE PUSH1 0x20 PUSH1 0x4 DUP3 ADD MSTORE PUSH1 0x14 PUSH1 0x24 DUP3 ADD MSTORE PUSH20 0x14DBD99D0818D85C081B9BDD081C995858DA1959 PUSH1 0x62 SHL PUSH1 0x44 DUP3 ADD MSTORE PUSH1 0x64 SWAP1 REVERT JUMPDEST DUP2 DUP2 MUL SWAP3 SWAP2 DUP2 ISZERO SWAP2 DUP5 DIV EQ OR ISZERO PUSH2 0x1811 JUMPI JUMP JUMPDEST RETURNDATASIZE ISZERO PUSH2 0x198F JUMPI PUSH2 0x1984 RETURNDATASIZE PUSH2 0xA56 JUMP JUMPDEST SWAP1 RETURNDATASIZE PUSH1 0x0 PUSH1 0x20 DUP5 ADD RETURNDATACOPY JUMP JUMPDEST PUSH1 0x60 SWAP1 JUMP JUMPDEST ISZERO PUSH2 0x199B JUMPI JUMP JUMPDEST PUSH1 0x40 MLOAD PUSH3 0x461BCD PUSH1 0xE5 SHL DUP2 MSTORE PUSH1 0x20 PUSH1 0x4 DUP3 ADD MSTORE PUSH1 0xF PUSH1 0x24 DUP3 ADD MSTORE PUSH15 0x151C985B9CD9995C8819985A5B1959 PUSH1 0x8A SHL PUSH1 0x44 DUP3 ADD MSTORE PUSH1 0x64 SWAP1 REVERT JUMPDEST SWAP1 DUP2 MSTORE PUSH1 0x40 DUP2 ADD SWAP3 SWAP2 PUSH2 0x3AA SWAP2 PUSH1 0x20 ADD MSTORE JUMP JUMPDEST PUSH32 0xEDFDE254CB8ED39D650C9A34251C59D6817FAE4CC876CC2CE76669976CF102EE PUSH2 0x1C3 PUSH2 0x1A21 PUSH2 0x1A1A PUSH2 0x353 PUSH2 0x1C8 PUSH2 0x4BB JUMP JUMPDEST TIMESTAMP GT PUSH2 0x189F JUMP JUMPDEST PUSH2 0x1AC3 PUSH2 0x1A8C PUSH1 0x7 DUP4 ADD SWAP3 PUSH2 0x1A40 PUSH2 0x1A3B PUSH2 0x114D DUP7 PUSH2 0x4E6 JUMP JUMPDEST PUSH2 0x18DF JUMP JUMPDEST PUSH2 0x1A71 PUSH1 0x1 PUSH1 0x8 DUP4 ADD SWAP6 PUSH2 0x1A6C PUSH2 0x1A56 DUP9 PUSH2 0x4BB JUMP JUMPDEST PUSH2 0x1A65 PUSH2 0x1416 PUSH2 0x353 DUP9 PUSH2 0x4BB JUMP JUMPDEST LT ISZERO PUSH2 0x191F JUMP JUMPDEST PUSH2 0x110D JUMP JUMPDEST PUSH2 0x1A86 PUSH1 0x6 PUSH2 0x1A7F DUP7 PUSH2 0x4BB JUMP JUMPDEST SWAP3 ADD PUSH2 0x4BB JUMP JUMPDEST SWAP1 PUSH2 0x1962 JUMP JUMPDEST SWAP2 PUSH2 0xEBD PUSH1 0x0 DUP1 PUSH2 0x1A9B PUSH2 0x1DC8 JUMP JUMPDEST PUSH2 0x1AA4 ADDRESS PUSH2 0x72D JUMP JUMPDEST BALANCE PUSH2 0x1AAE PUSH1 0x40 MLOAD SWAP1 JUMP JUMPDEST SWAP1 DUP2 DUP1 SUB SWAP3 GAS CALL PUSH2 0x1ABD PUSH2 0x1975 JUMP JUMPDEST POP PUSH2 0x1994 JUMP JUMPDEST PUSH2 0x11CE PUSH2 0x1ACF PUSH1 0x40 MLOAD SWAP1 JUMP JUMPDEST SWAP3 DUP4 SWAP3 DUP4 PUSH2 0x19D2 JUMP JUMPDEST PUSH2 0x3AA PUSH2 0x187C JUMP JUMPDEST SWAP1 PUSH2 0x3AA SWAP2 PUSH2 0x1AF1 PUSH2 0xFA2 ADDRESS PUSH2 0x72D JUMP JUMPDEST PUSH2 0x3AA SWAP2 PUSH1 0x1 SWAP2 PUSH2 0x1B01 DUP2 PUSH2 0x2B13 JUMP JUMPDEST PUSH2 0x2BC4 JUMP JUMPDEST SWAP1 PUSH2 0x3AA SWAP2 PUSH2 0x1AE0 JUMP JUMPDEST ISZERO PUSH2 0x1B17 JUMPI JUMP JUMPDEST PUSH1 0x40 MLOAD PUSH3 0x461BCD PUSH1 0xE5 SHL DUP2 MSTORE PUSH1 0x20 PUSH1 0x4 DUP3 ADD MSTORE PUSH1 0x38 PUSH1 0x24 DUP3 ADD MSTORE PUSH32 0x555550535570677261646561626C653A206D757374206E6F742062652063616C PUSH1 0x44 DUP3 ADD MSTORE PUSH24 0x1B1959081D1A1C9BDD59DA0819195B1959D85D1958D85B1B PUSH1 0x42 SHL PUSH1 0x64 DUP3 ADD MSTORE PUSH1 0x84 SWAP1 REVERT JUMPDEST PUSH2 0x353 SWAP1 PUSH2 0x1BBF PUSH2 0x1B8D ADDRESS PUSH2 0x72D JUMP JUMPDEST PUSH2 0x1BB9 PUSH2 0xFD3 PUSH32 0x0 PUSH2 0x381 JUMP JUMPDEST EQ PUSH2 0x1B10 JUMP JUMPDEST PUSH2 0x1BED JUMP JUMPDEST PUSH2 0x353 PUSH32 0x360894A13BA1A3210667C828492DB98DCA3E2076CC3735A920A3CA505D382BBC PUSH2 0xFFF JUMP JUMPDEST POP PUSH2 0x353 PUSH2 0x1BC4 JUMP JUMPDEST PUSH2 0x353 PUSH1 0x0 PUSH2 0x1B7D JUMP JUMPDEST PUSH2 0x353 PUSH1 0x97 PUSH2 0x4D0 JUMP JUMPDEST SWAP1 PUSH2 0x3AA SWAP2 PUSH2 0x1C17 PUSH2 0x2F69 JUMP JUMPDEST PUSH2 0x1CC7 JUMP JUMPDEST ISZERO PUSH2 0x1C23 JUMPI JUMP JUMPDEST PUSH1 0x40 MLOAD PUSH3 0x461BCD PUSH1 0xE5 SHL DUP2 MSTORE PUSH1 0x20 PUSH1 0x4 DUP3 ADD MSTORE PUSH1 0x15 PUSH1 0x24 DUP3 ADD MSTORE PUSH21 0x151A5B59481B1BD8DAC81B9BDD08195B98589B1959 PUSH1 0x5A SHL PUSH1 0x44 DUP3 ADD MSTORE PUSH1 0x64 SWAP1 REVERT JUMPDEST ISZERO PUSH2 0x1C67 JUMPI JUMP JUMPDEST PUSH1 0x40 MLOAD PUSH3 0x461BCD PUSH1 0xE5 SHL DUP2 MSTORE PUSH1 0x20 PUSH1 0x4 DUP3 ADD MSTORE PUSH1 0x1D PUSH1 0x24 DUP3 ADD MSTORE PUSH32 0x556E6C6F636B2074696D65206D75737420626520696E20667574757265000000 PUSH1 0x44 DUP3 ADD MSTORE PUSH1 0x64 SWAP1 REVERT JUMPDEST SWAP2 PUSH1 0x20 PUSH2 0x3AA SWAP3 SWAP5 SWAP4 PUSH2 0x1559 PUSH1 0x40 DUP3 ADD SWAP7 PUSH1 0x0 DUP4 ADD SWAP1 PUSH2 0x9B2 JUMP JUMPDEST SWAP1 PUSH32 0xA9353E70F07F31E7F4E16464F45E189CBD22826780A5ABE4DA8303652A86960A SWAP2 PUSH2 0x1CFD PUSH2 0x1CF8 PUSH2 0x1CF PUSH2 0x4E6 JUMP JUMPDEST PUSH2 0x1C1C JUMP JUMPDEST PUSH2 0x1D08 TIMESTAMP DUP4 GT PUSH2 0x1C60 JUMP JUMPDEST PUSH2 0x1D1D DUP3 PUSH2 0x1D18 DUP4 PUSH2 0x1D1 PUSH2 0x736 JUMP JUMPDEST PUSH2 0x13B3 JUMP JUMPDEST PUSH2 0x11CE PUSH2 0x1D29 PUSH1 0x40 MLOAD SWAP1 JUMP JUMPDEST SWAP3 DUP4 SWAP3 DUP4 PUSH2 0x1CAC JUMP JUMPDEST SWAP1 PUSH2 0x3AA SWAP2 PUSH2 0x1C0A JUMP JUMPDEST PUSH2 0xEBD PUSH2 0x353 SWAP2 PUSH2 0x1D4B PUSH1 0x0 SWAP1 JUMP JUMPDEST POP PUSH1 0x33 PUSH2 0x736 JUMP JUMPDEST PUSH2 0x1D5B PUSH2 0x2F69 JUMP JUMPDEST PUSH2 0x3AA PUSH2 0x3AA PUSH2 0x17F1 PUSH1 0x0 PUSH2 0x129D JUMP JUMPDEST PUSH2 0x3AA PUSH2 0x1D53 JUMP JUMPDEST PUSH2 0xEBD PUSH2 0x353 SWAP2 PUSH2 0x1D82 PUSH1 0x0 SWAP1 JUMP JUMPDEST POP PUSH2 0x1D1 PUSH2 0x736 JUMP JUMPDEST PUSH2 0x3AA SWAP2 SWAP1 PUSH2 0x1877 DUP3 CALLER PUSH2 0xECE JUMP JUMPDEST PUSH2 0x1DA2 PUSH2 0x2F69 JUMP JUMPDEST PUSH2 0x3AA PUSH2 0x3AA PUSH2 0x31D9 JUMP JUMPDEST PUSH2 0x3AA PUSH2 0x1D9A JUMP JUMPDEST PUSH2 0x353 SWAP1 PUSH2 0x381 JUMP JUMPDEST PUSH2 0x353 SWAP1 SLOAD PUSH2 0x1DB5 JUMP JUMPDEST PUSH2 0x353 PUSH1 0xFB PUSH2 0x1DBE JUMP JUMPDEST PUSH2 0x353 PUSH1 0x37 PUSH2 0xE78 JUMP JUMPDEST ISZERO PUSH2 0x1DE3 JUMPI JUMP JUMPDEST PUSH1 0x40 MLOAD PUSH3 0x461BCD PUSH1 0xE5 SHL DUP2 MSTORE PUSH1 0x20 PUSH1 0x4 DUP3 ADD MSTORE PUSH1 0x25 PUSH1 0x24 DUP3 ADD MSTORE PUSH32 0x45524332303A2064656372656173656420616C6C6F77616E63652062656C6F77 PUSH1 0x44 DUP3 ADD MSTORE PUSH5 0x207A65726F PUSH1 0xD8 SHL PUSH1 0x64 DUP3 ADD MSTORE PUSH1 0x84 SWAP1 REVERT JUMPDEST PUSH2 0xE96 SWAP2 SWAP1 PUSH2 0x182F CALLER SWAP3 PUSH2 0x1E4A DUP4 DUP6 PUSH2 0x26AF JUMP JUMPDEST PUSH2 0x1E56 DUP3 DUP3 LT ISZERO PUSH2 0x1DDC JUMP JUMPDEST SUB SWAP1 JUMP JUMPDEST PUSH2 0xE96 SWAP2 SWAP1 CALLER PUSH2 0x2A54 JUMP JUMPDEST SWAP1 PUSH2 0x3AA SWAP3 SWAP2 PUSH2 0x1E73 PUSH2 0x2F69 JUMP JUMPDEST PUSH2 0x1F73 JUMP JUMPDEST ISZERO PUSH2 0x1E7F JUMPI JUMP JUMPDEST PUSH1 0x40 MLOAD PUSH3 0x461BCD PUSH1 0xE5 SHL DUP2 MSTORE PUSH1 0x20 PUSH1 0x4 DUP3 ADD MSTORE PUSH1 0x15 PUSH1 0x24 DUP3 ADD MSTORE PUSH21 0x15DA1A5D195B1A5CDD081B9BDD08195B98589B1959 PUSH1 0x5A SHL PUSH1 0x44 DUP3 ADD MSTORE PUSH1 0x64 SWAP1 REVERT JUMPDEST PUSH4 0x4E487B71 PUSH1 0xE0 SHL PUSH1 0x0 MSTORE PUSH1 0x32 PUSH1 0x4 MSTORE PUSH1 0x24 PUSH1 0x0 REVERT JUMPDEST SWAP2 SWAP1 DUP2 LT ISZERO PUSH2 0x1EE2 JUMPI PUSH1 0x20 MUL ADD SWAP1 JUMP JUMPDEST PUSH2 0x1EBC JUMP JUMPDEST SWAP1 PUSH2 0x33E DUP2 PUSH1 0x20 SWAP4 PUSH2 0x9B2 JUMP JUMPDEST POP PUSH2 0x353 SWAP1 PUSH1 0x20 DUP2 ADD SWAP1 PUSH2 0x39D JUMP JUMPDEST DUP2 DUP4 MSTORE PUSH1 0x20 SWAP1 SWAP3 ADD SWAP2 SWAP1 PUSH1 0x0 DUP3 JUMPDEST DUP3 DUP3 LT PUSH2 0x1F1F JUMPI POP POP POP POP SWAP1 JUMP JUMPDEST SWAP1 SWAP2 SWAP3 SWAP4 PUSH2 0x1F42 PUSH2 0x1F3B PUSH1 0x1 SWAP3 PUSH2 0x1F36 DUP9 DUP7 PUSH2 0x1EF4 JUMP JUMPDEST PUSH2 0x1EE7 JUMP JUMPDEST SWAP6 PUSH1 0x20 ADD SWAP1 JUMP JUMPDEST SWAP4 SWAP3 ADD SWAP1 PUSH2 0x1F11 JUMP JUMPDEST SWAP4 SWAP3 SWAP1 PUSH2 0x1F6A PUSH1 0x20 SWAP2 PUSH2 0x3AA SWAP5 PUSH1 0x40 DUP9 ADD SWAP2 DUP9 DUP4 SUB PUSH1 0x0 DUP11 ADD MSTORE PUSH2 0x1F03 JUMP JUMPDEST SWAP5 ADD SWAP1 ISZERO ISZERO SWAP1 MSTORE JUMP JUMPDEST SWAP1 PUSH2 0x1F87 PUSH2 0x1F82 PUSH2 0x1CA PUSH2 0x4D0 JUMP JUMPDEST PUSH2 0x1E78 JUMP JUMPDEST PUSH2 0x1F91 PUSH1 0x0 PUSH2 0xFFF JUMP JUMPDEST DUP2 DUP2 LT ISZERO PUSH2 0x1FD0 JUMPI PUSH2 0x1FCB SWAP1 PUSH2 0x1FC5 DUP6 PUSH2 0x1FC0 PUSH2 0x1CC PUSH2 0x1FBA PUSH2 0x1FB5 DUP7 DUP10 DUP12 PUSH2 0x1ED2 JUMP JUMPDEST PUSH2 0x1286 JUMP JUMPDEST SWAP1 PUSH2 0x736 JUMP JUMPDEST PUSH2 0x13D4 JUMP JUMPDEST PUSH1 0x1 ADD SWAP1 JUMP JUMPDEST PUSH2 0x1F91 JUMP JUMPDEST POP SWAP1 PUSH2 0x11CE PUSH32 0xA091D95AA3F4B3529E12C57E1E9E10580EDDE8A7AC6FD51DD3C8E824C332DBE0 SWAP4 PUSH2 0x2000 PUSH1 0x40 MLOAD SWAP1 JUMP JUMPDEST SWAP4 DUP5 SWAP4 DUP5 PUSH2 0x1F4B JUMP JUMPDEST SWAP1 PUSH2 0x3AA SWAP3 SWAP2 PUSH2 0x1E65 JUMP JUMPDEST PUSH2 0x201C PUSH2 0x3159 JUMP JUMPDEST PUSH2 0x1897 PUSH2 0x211D JUMP JUMPDEST ISZERO PUSH2 0x202B JUMPI JUMP JUMPDEST PUSH1 0x40 MLOAD PUSH3 0x461BCD PUSH1 0xE5 SHL DUP2 MSTORE PUSH1 0x20 PUSH1 0x4 DUP3 ADD MSTORE PUSH1 0x11 PUSH1 0x24 DUP3 ADD MSTORE PUSH17 0x141C995CD85B1948199A5B985B1A5E9959 PUSH1 0x7A SHL PUSH1 0x44 DUP3 ADD MSTORE PUSH1 0x64 SWAP1 REVERT JUMPDEST ISZERO PUSH2 0x206B JUMPI JUMP JUMPDEST PUSH1 0x40 MLOAD PUSH3 0x461BCD PUSH1 0xE5 SHL DUP2 MSTORE PUSH1 0x20 PUSH1 0x4 DUP3 ADD MSTORE PUSH1 0x10 PUSH1 0x24 DUP3 ADD MSTORE PUSH16 0x14DBD99D0818D85C081C995858DA1959 PUSH1 0x82 SHL PUSH1 0x44 DUP3 ADD MSTORE PUSH1 0x64 SWAP1 REVERT JUMPDEST ISZERO PUSH2 0x20AA JUMPI JUMP JUMPDEST PUSH1 0x40 MLOAD PUSH3 0x461BCD PUSH1 0xE5 SHL DUP2 MSTORE PUSH1 0x20 PUSH1 0x4 DUP3 ADD MSTORE PUSH1 0xF PUSH1 0x24 DUP3 ADD MSTORE PUSH15 0x27379031B7B73A3934B13ABA34B7B7 PUSH1 0x89 SHL PUSH1 0x44 DUP3 ADD MSTORE PUSH1 0x64 SWAP1 REVERT JUMPDEST ISZERO PUSH2 0x20E8 JUMPI JUMP JUMPDEST PUSH1 0x40 MLOAD PUSH3 0x461BCD PUSH1 0xE5 SHL DUP2 MSTORE PUSH1 0x20 PUSH1 0x4 DUP3 ADD MSTORE PUSH1 0xD PUSH1 0x24 DUP3 ADD MSTORE PUSH13 0x1499599D5B990819985A5B1959 PUSH1 0x9A SHL PUSH1 0x44 DUP3 ADD MSTORE PUSH1 0x64 SWAP1 REVERT JUMPDEST PUSH2 0x216F PUSH2 0x1C3 PUSH2 0x2134 PUSH2 0x1A1A PUSH2 0x353 PUSH2 0x1C8 PUSH2 0x4BB JUMP JUMPDEST PUSH2 0x214B PUSH2 0x2146 PUSH2 0x114D PUSH1 0x7 DUP5 ADD PUSH2 0x4E6 JUMP JUMPDEST PUSH2 0x2024 JUMP JUMPDEST PUSH2 0x2169 PUSH2 0x1416 PUSH2 0x353 PUSH1 0x0 PUSH2 0x2162 PUSH1 0x8 DUP7 ADD PUSH2 0x4BB JUMP JUMPDEST SWAP5 ADD PUSH2 0x4BB JUMP JUMPDEST LT PUSH2 0x2064 JUMP JUMPDEST PUSH32 0x2EF47CADC7E07EE6CEA296446C8CA85FF6955693411D8868F7A04B6850034F08 PUSH2 0x11CE PUSH2 0x1CD PUSH2 0x21B9 PUSH2 0x21A6 PUSH2 0xEBD CALLER DUP5 PUSH2 0x736 JUMP JUMPDEST PUSH2 0x21B3 PUSH2 0x1416 PUSH1 0x0 PUSH2 0xFFF JUMP JUMPDEST GT PUSH2 0x20A3 JUMP JUMPDEST PUSH2 0x21DF PUSH2 0x21C9 PUSH2 0xEBD CALLER DUP5 PUSH2 0x736 JUMP JUMPDEST SWAP2 PUSH2 0x1D18 PUSH2 0x21D7 PUSH1 0x0 PUSH2 0xFFF JUMP JUMPDEST SWAP2 CALLER SWAP1 PUSH2 0x736 JUMP JUMPDEST PUSH2 0x2203 PUSH1 0x0 DUP1 PUSH2 0x21EE PUSH1 0x40 MLOAD SWAP1 JUMP JUMPDEST PUSH1 0x0 SWAP1 DUP6 CALLER GAS CALL PUSH2 0x21FD PUSH2 0x1975 JUMP JUMPDEST POP PUSH2 0x20E1 JUMP JUMPDEST PUSH1 0x40 MLOAD SWAP2 DUP3 SWAP2 CALLER DUP4 PUSH2 0x1CAC JUMP JUMPDEST PUSH2 0x3AA PUSH2 0x2014 JUMP JUMPDEST SWAP1 PUSH2 0x3AA SWAP3 SWAP2 PUSH2 0x2226 PUSH2 0x2F69 JUMP JUMPDEST PUSH2 0x226F JUMP JUMPDEST ISZERO PUSH2 0x2232 JUMPI JUMP JUMPDEST PUSH1 0x40 MLOAD PUSH3 0x461BCD PUSH1 0xE5 SHL DUP2 MSTORE PUSH1 0x20 PUSH1 0x4 DUP3 ADD MSTORE PUSH1 0x15 PUSH1 0x24 DUP3 ADD MSTORE PUSH21 0x109B1858DADB1A5CDD081B9BDD08195B98589B1959 PUSH1 0x5A SHL PUSH1 0x44 DUP3 ADD MSTORE PUSH1 0x64 SWAP1 REVERT JUMPDEST SWAP1 PUSH2 0x2283 PUSH2 0x227E PUSH2 0x1CF PUSH2 0x4D0 JUMP JUMPDEST PUSH2 0x222B JUMP JUMPDEST PUSH2 0x228D PUSH1 0x0 PUSH2 0xFFF JUMP JUMPDEST DUP2 DUP2 LT ISZERO PUSH2 0x22B6 JUMPI PUSH2 0x22B1 SWAP1 PUSH2 0x1FC5 DUP6 PUSH2 0x1FC0 PUSH2 0x1D0 PUSH2 0x1FBA PUSH2 0x1FB5 DUP7 DUP10 DUP12 PUSH2 0x1ED2 JUMP JUMPDEST PUSH2 0x228D JUMP JUMPDEST POP SWAP1 PUSH2 0x11CE PUSH32 0x11D4D128E8F89AE2E8815168B9EBA079DD6668B75F1E3A9DD96AC6192A7C4DCB SWAP4 PUSH2 0x2000 PUSH1 0x40 MLOAD SWAP1 JUMP JUMPDEST SWAP1 PUSH2 0x3AA SWAP3 SWAP2 PUSH2 0x2218 JUMP JUMPDEST PUSH2 0x1C3 PUSH2 0x22FD DUP2 PUSH2 0x4BB JUMP JUMPDEST PUSH2 0x2309 PUSH1 0x1 DUP4 ADD PUSH2 0x4BB JUMP JUMPDEST SWAP3 PUSH2 0x2316 PUSH1 0x2 DUP5 ADD PUSH2 0x4BB JUMP JUMPDEST SWAP3 PUSH2 0x2323 PUSH1 0x3 DUP3 ADD PUSH2 0x4BB JUMP JUMPDEST SWAP3 PUSH2 0x2330 PUSH1 0x4 DUP4 ADD PUSH2 0x4BB JUMP JUMPDEST SWAP3 PUSH2 0x233D PUSH1 0x5 DUP5 ADD PUSH2 0x4BB JUMP JUMPDEST SWAP3 PUSH2 0x234A PUSH1 0x6 DUP3 ADD PUSH2 0x4BB JUMP JUMPDEST SWAP3 PUSH1 0x7 DUP3 ADD SWAP3 PUSH2 0x2367 PUSH1 0x8 PUSH2 0x2162 PUSH2 0x2361 DUP8 PUSH2 0x4D0 JUMP JUMPDEST SWAP7 PUSH2 0x4E6 JUMP JUMPDEST SWAP2 SWAP10 SWAP9 SWAP8 SWAP7 SWAP6 SWAP5 SWAP4 SWAP3 SWAP2 SWAP1 JUMP JUMPDEST PUSH2 0x237C PUSH2 0x3159 JUMP JUMPDEST PUSH2 0x1897 PUSH2 0x2555 JUMP JUMPDEST ISZERO PUSH2 0x238B JUMPI JUMP JUMPDEST PUSH1 0x40 MLOAD PUSH3 0x461BCD PUSH1 0xE5 SHL DUP2 MSTORE PUSH1 0x20 PUSH1 0x4 DUP3 ADD MSTORE PUSH1 0x13 PUSH1 0x24 DUP3 ADD MSTORE PUSH19 0x141C995CD85B19481B9BDD081CDD185C9D1959 PUSH1 0x6A SHL PUSH1 0x44 DUP3 ADD MSTORE PUSH1 0x64 SWAP1 REVERT JUMPDEST ISZERO PUSH2 0x23CD JUMPI JUMP JUMPDEST PUSH1 0x40 MLOAD PUSH3 0x461BCD PUSH1 0xE5 SHL DUP2 MSTORE PUSH1 0x20 PUSH1 0x4 DUP3 ADD MSTORE PUSH1 0xD PUSH1 0x24 DUP3 ADD MSTORE PUSH13 0x141C995CD85B1948195B991959 PUSH1 0x9A SHL PUSH1 0x44 DUP3 ADD MSTORE PUSH1 0x64 SWAP1 REVERT JUMPDEST ISZERO PUSH2 0x2409 JUMPI JUMP JUMPDEST PUSH1 0x40 MLOAD PUSH3 0x461BCD PUSH1 0xE5 SHL DUP2 MSTORE PUSH1 0x20 PUSH1 0x4 DUP3 ADD MSTORE PUSH1 0x16 PUSH1 0x24 DUP3 ADD MSTORE PUSH22 0x2132B637BB9036B4B71031B7B73A3934B13ABA34B7B7 PUSH1 0x51 SHL PUSH1 0x44 DUP3 ADD MSTORE PUSH1 0x64 SWAP1 REVERT JUMPDEST ISZERO PUSH2 0x244E JUMPI JUMP JUMPDEST PUSH1 0x40 MLOAD PUSH3 0x461BCD PUSH1 0xE5 SHL DUP2 MSTORE PUSH1 0x20 PUSH1 0x4 DUP3 ADD MSTORE PUSH1 0x16 PUSH1 0x24 DUP3 ADD MSTORE PUSH22 0x20B137BB329036B0BC1031B7B73A3934B13ABA34B7B7 PUSH1 0x51 SHL PUSH1 0x44 DUP3 ADD MSTORE PUSH1 0x64 SWAP1 REVERT JUMPDEST ISZERO PUSH2 0x2493 JUMPI JUMP JUMPDEST PUSH1 0x40 MLOAD PUSH3 0x461BCD PUSH1 0xE5 SHL DUP2 MSTORE PUSH1 0x20 PUSH1 0x4 DUP3 ADD MSTORE PUSH1 0x10 PUSH1 0x24 DUP3 ADD MSTORE PUSH16 0x12185C990818D85C081C995858DA1959 PUSH1 0x82 SHL PUSH1 0x44 DUP3 ADD MSTORE PUSH1 0x64 SWAP1 REVERT JUMPDEST ISZERO PUSH2 0x24D2 JUMPI JUMP JUMPDEST PUSH1 0x40 MLOAD PUSH3 0x461BCD PUSH1 0xE5 SHL DUP2 MSTORE PUSH1 0x20 PUSH1 0x4 DUP3 ADD MSTORE PUSH1 0xF PUSH1 0x24 DUP3 ADD MSTORE PUSH15 0x139BDD081DDA1A5D195B1A5CDD1959 PUSH1 0x8A SHL PUSH1 0x44 DUP3 ADD MSTORE PUSH1 0x64 SWAP1 REVERT JUMPDEST ISZERO PUSH2 0x2510 JUMPI JUMP JUMPDEST PUSH1 0x40 MLOAD PUSH3 0x461BCD PUSH1 0xE5 SHL DUP2 MSTORE PUSH1 0x20 PUSH1 0x4 DUP3 ADD MSTORE PUSH1 0x1D PUSH1 0x24 DUP3 ADD MSTORE PUSH32 0x576F756C6420657863656564206D617820636F6E747269627574696F6E000000 PUSH1 0x44 DUP3 ADD MSTORE PUSH1 0x64 SWAP1 REVERT JUMPDEST PUSH2 0x2655 PUSH2 0x1C3 PUSH2 0x2574 PUSH2 0x256C PUSH2 0x353 PUSH2 0x1C7 PUSH2 0x4BB JUMP JUMPDEST TIMESTAMP LT ISZERO PUSH2 0x2384 JUMP JUMPDEST PUSH2 0x258E PUSH2 0x2586 PUSH2 0x353 PUSH1 0x5 DUP5 ADD PUSH2 0x4BB JUMP JUMPDEST TIMESTAMP GT ISZERO PUSH2 0x23C6 JUMP JUMPDEST PUSH2 0x2643 PUSH1 0x7 DUP3 ADD PUSH2 0x25A4 PUSH2 0x2146 PUSH2 0x114D DUP4 PUSH2 0x4E6 JUMP JUMPDEST PUSH2 0x25BE PUSH2 0x25B6 PUSH2 0x353 PUSH1 0x2 DUP7 ADD PUSH2 0x4BB JUMP JUMPDEST CALLVALUE LT ISZERO PUSH2 0x2402 JUMP JUMPDEST PUSH2 0x260A PUSH1 0x3 DUP5 ADD SWAP2 PUSH2 0x25DD PUSH2 0x25D5 PUSH2 0x353 DUP6 PUSH2 0x4BB JUMP JUMPDEST CALLVALUE GT ISZERO PUSH2 0x2447 JUMP JUMPDEST PUSH2 0x184D PUSH1 0x8 DUP7 ADD SWAP6 PUSH2 0x2603 PUSH2 0x1416 PUSH2 0x353 PUSH1 0x1 PUSH2 0x2162 PUSH2 0x25FC DUP13 PUSH2 0x4BB JUMP JUMPDEST CALLVALUE SWAP1 PUSH2 0x1804 JUMP JUMPDEST GT ISZERO PUSH2 0x248C JUMP JUMPDEST PUSH2 0x268B JUMPI JUMPDEST PUSH2 0x1D18 PUSH2 0x1CD PUSH2 0x263C PUSH2 0x2634 PUSH2 0x353 PUSH2 0x262E PUSH2 0x25FC PUSH2 0xEBD CALLER DUP8 PUSH2 0x736 JUMP JUMPDEST SWAP6 PUSH2 0x4BB JUMP JUMPDEST DUP5 GT ISZERO PUSH2 0x2509 JUMP JUMPDEST CALLER SWAP1 PUSH2 0x736 JUMP JUMPDEST PUSH2 0x264F PUSH2 0x25FC DUP3 PUSH2 0x4BB JUMP JUMPDEST SWAP1 PUSH2 0x13B3 JUMP JUMPDEST PUSH32 0x1BB460CCAAF70FBACFEC17A376F8ACBD278C1405590FFCC8EBE4B88DAF4F64AD PUSH2 0x267F PUSH1 0x40 MLOAD SWAP1 JUMP JUMPDEST DUP1 PUSH2 0x11CE CALLVALUE CALLER DUP4 PUSH2 0x1CAC JUMP JUMPDEST PUSH2 0x26A2 PUSH2 0x269D PUSH2 0x184D CALLER PUSH2 0x1CC PUSH2 0x736 JUMP JUMPDEST PUSH2 0x24CB JUMP JUMPDEST PUSH2 0x260F JUMP JUMPDEST PUSH2 0x3AA PUSH2 0x2374 JUMP JUMPDEST PUSH2 0x353 SWAP2 PUSH2 0x26CA PUSH2 0xEBD SWAP3 PUSH2 0x26C2 PUSH1 0x0 SWAP1 JUMP JUMPDEST POP PUSH1 0x34 PUSH2 0x736 JUMP JUMPDEST PUSH2 0x736 JUMP JUMPDEST PUSH2 0x3AA SWAP1 PUSH2 0x26DB PUSH2 0x2F69 JUMP JUMPDEST PUSH2 0x273B JUMP JUMPDEST ISZERO PUSH2 0x26E7 JUMPI JUMP JUMPDEST PUSH1 0x40 MLOAD PUSH3 0x461BCD PUSH1 0xE5 SHL DUP2 MSTORE PUSH1 0x20 PUSH1 0x4 DUP3 ADD MSTORE PUSH1 0x26 PUSH1 0x24 DUP3 ADD MSTORE PUSH32 0x4F776E61626C653A206E6577206F776E657220697320746865207A65726F2061 PUSH1 0x44 DUP3 ADD MSTORE PUSH6 0x646472657373 PUSH1 0xD0 SHL PUSH1 0x64 DUP3 ADD MSTORE PUSH1 0x84 SWAP1 REVERT JUMPDEST PUSH2 0x3AA SWAP1 PUSH2 0x17F1 PUSH2 0x274F PUSH2 0x15DB PUSH1 0x0 PUSH2 0x129D JUMP JUMPDEST PUSH2 0x2758 DUP4 PUSH2 0x381 JUMP JUMPDEST EQ ISZERO PUSH2 0x26E0 JUMP JUMPDEST PUSH2 0x3AA SWAP1 PUSH2 0x26CF JUMP JUMPDEST PUSH2 0x184D PUSH2 0x353 SWAP2 PUSH2 0x2777 PUSH1 0x0 SWAP1 JUMP JUMPDEST POP PUSH2 0x1D0 PUSH2 0x736 JUMP JUMPDEST ISZERO PUSH2 0x2787 JUMPI JUMP JUMPDEST PUSH1 0x40 MLOAD PUSH3 0x461BCD PUSH1 0xE5 SHL DUP2 MSTORE PUSH1 0x20 PUSH1 0x4 DUP3 ADD MSTORE PUSH1 0x24 DUP1 DUP3 ADD MSTORE PUSH32 0x45524332303A20617070726F76652066726F6D20746865207A65726F20616464 PUSH1 0x44 DUP3 ADD MSTORE PUSH4 0x72657373 PUSH1 0xE0 SHL PUSH1 0x64 DUP3 ADD MSTORE PUSH1 0x84 SWAP1 REVERT JUMPDEST ISZERO PUSH2 0x27DF JUMPI JUMP JUMPDEST PUSH1 0x40 MLOAD PUSH3 0x461BCD PUSH1 0xE5 SHL DUP2 MSTORE PUSH1 0x20 PUSH1 0x4 DUP3 ADD MSTORE PUSH1 0x22 PUSH1 0x24 DUP3 ADD MSTORE PUSH32 0x45524332303A20617070726F766520746F20746865207A65726F206164647265 PUSH1 0x44 DUP3 ADD MSTORE PUSH2 0x7373 PUSH1 0xF0 SHL PUSH1 0x64 DUP3 ADD MSTORE PUSH1 0x84 SWAP1 REVERT JUMPDEST PUSH2 0x28BE PUSH2 0x28B4 PUSH2 0x28AE PUSH32 0x8C5BE1E5EBEC7D5BD14F71427D1E84F3DD0314C0F7B2291E5B200AC8C7C3B925 SWAP4 PUSH2 0x2896 PUSH2 0x2886 PUSH2 0x286A PUSH1 0x0 PUSH2 0x129D JUMP JUMPDEST PUSH2 0x15DB PUSH2 0x2876 DUP3 PUSH2 0x381 JUMP JUMPDEST PUSH2 0x287F DUP7 PUSH2 0x381 JUMP JUMPDEST EQ ISZERO PUSH2 0x2780 JUMP JUMPDEST PUSH2 0x288F DUP9 PUSH2 0x381 JUMP JUMPDEST EQ ISZERO PUSH2 0x27D8 JUMP JUMPDEST PUSH2 0x28A9 DUP8 PUSH2 0x1D18 DUP9 PUSH2 0x26CA DUP6 PUSH1 0x34 PUSH2 0x736 JUMP JUMPDEST PUSH2 0x72D JUMP JUMPDEST SWAP4 PUSH2 0x72D JUMP JUMPDEST SWAP4 PUSH2 0x433 PUSH1 0x40 MLOAD SWAP1 JUMP JUMPDEST SUB SWAP1 LOG3 JUMP JUMPDEST ISZERO PUSH2 0x28CA JUMPI JUMP JUMPDEST PUSH1 0x40 MLOAD PUSH3 0x461BCD PUSH1 0xE5 SHL DUP2 MSTORE PUSH1 0x20 PUSH1 0x4 DUP3 ADD MSTORE PUSH1 0x1D PUSH1 0x24 DUP3 ADD MSTORE PUSH32 0x45524332303A20696E73756666696369656E7420616C6C6F77616E6365000000 PUSH1 0x44 DUP3 ADD MSTORE PUSH1 0x64 SWAP1 REVERT JUMPDEST SWAP1 PUSH2 0x291A DUP2 DUP4 PUSH2 0x26AF JUMP JUMPDEST PUSH1 0x0 NOT DUP2 SUB PUSH2 0x292A JUMPI JUMPDEST POP POP POP POP JUMP JUMPDEST PUSH2 0x293E SWAP4 PUSH2 0x182F SWAP2 PUSH2 0x1E56 DUP3 DUP3 LT ISZERO PUSH2 0x28C3 JUMP JUMPDEST CODESIZE DUP1 DUP1 DUP1 PUSH2 0x2924 JUMP JUMPDEST ISZERO PUSH2 0x294E JUMPI JUMP JUMPDEST PUSH1 0x40 MLOAD PUSH3 0x461BCD PUSH1 0xE5 SHL DUP2 MSTORE PUSH1 0x20 PUSH1 0x4 DUP3 ADD MSTORE PUSH1 0x25 PUSH1 0x24 DUP3 ADD MSTORE PUSH32 0x45524332303A207472616E736665722066726F6D20746865207A65726F206164 PUSH1 0x44 DUP3 ADD MSTORE PUSH5 0x6472657373 PUSH1 0xD8 SHL PUSH1 0x64 DUP3 ADD MSTORE PUSH1 0x84 SWAP1 REVERT JUMPDEST ISZERO PUSH2 0x29A8 JUMPI JUMP JUMPDEST PUSH1 0x40 MLOAD PUSH3 0x461BCD PUSH1 0xE5 SHL DUP2 MSTORE PUSH1 0x20 PUSH1 0x4 DUP3 ADD MSTORE PUSH1 0x23 PUSH1 0x24 DUP3 ADD MSTORE PUSH32 0x45524332303A207472616E7366657220746F20746865207A65726F2061646472 PUSH1 0x44 DUP3 ADD MSTORE PUSH3 0x657373 PUSH1 0xE8 SHL PUSH1 0x64 DUP3 ADD MSTORE PUSH1 0x84 SWAP1 REVERT JUMPDEST ISZERO PUSH2 0x2A00 JUMPI JUMP JUMPDEST PUSH1 0x40 MLOAD PUSH3 0x461BCD PUSH1 0xE5 SHL DUP2 MSTORE PUSH1 0x20 PUSH1 0x4 DUP3 ADD MSTORE PUSH1 0x26 PUSH1 0x24 DUP3 ADD MSTORE PUSH32 0x45524332303A207472616E7366657220616D6F756E7420657863656564732062 PUSH1 0x44 DUP3 ADD MSTORE PUSH6 0x616C616E6365 PUSH1 0xD0 SHL PUSH1 0x64 DUP3 ADD MSTORE PUSH1 0x84 SWAP1 REVERT JUMPDEST PUSH2 0x28BE PUSH2 0x28B4 PUSH2 0x28AE PUSH1 0x0 DUP1 MLOAD PUSH1 0x20 PUSH2 0x38CC DUP4 CODECOPY DUP2 MLOAD SWAP2 MSTORE SWAP4 PUSH2 0x2AA9 PUSH2 0x2A99 PUSH2 0x2A7D PUSH1 0x0 PUSH2 0x129D JUMP JUMPDEST PUSH2 0x15DB PUSH2 0x2A89 DUP3 PUSH2 0x381 JUMP JUMPDEST PUSH2 0x2A92 DUP7 PUSH2 0x381 JUMP JUMPDEST EQ ISZERO PUSH2 0x2947 JUMP JUMPDEST PUSH2 0x2AA2 DUP9 PUSH2 0x381 JUMP JUMPDEST EQ ISZERO PUSH2 0x29A1 JUMP JUMPDEST PUSH2 0x2AB4 DUP8 DUP8 DUP4 PUSH2 0x326B JUMP JUMPDEST PUSH2 0x28A9 PUSH2 0x2AE7 DUP8 PUSH1 0x33 PUSH2 0x26CA PUSH2 0x2ADD DUP13 PUSH2 0x2AD1 PUSH2 0xEBD DUP10 DUP7 PUSH2 0x736 JUMP JUMPDEST PUSH2 0x1E56 DUP3 DUP3 LT ISZERO PUSH2 0x29F9 JUMP JUMPDEST PUSH2 0x1D18 DUP8 DUP5 PUSH2 0x736 JUMP JUMPDEST PUSH2 0x264F DUP10 PUSH2 0x33E DUP4 PUSH2 0x4BB JUMP JUMPDEST PUSH2 0x353 PUSH1 0x0 PUSH2 0x2B04 PUSH2 0x353 PUSH2 0x1BC4 JUMP JUMPDEST ADD PUSH2 0x1DBE JUMP JUMPDEST POP PUSH2 0x3AA PUSH2 0x2F69 JUMP JUMPDEST PUSH2 0x3AA SWAP1 PUSH2 0x2B0A JUMP JUMPDEST PUSH2 0x353 PUSH32 0x4910FDFA16FED3260ED0E7147F7CC6DA11A60208B5B9406D12A635614FFD9143 PUSH2 0xFFF JUMP JUMPDEST SWAP1 POP MLOAD SWAP1 PUSH2 0x3AA DUP3 PUSH2 0x3AC JUMP JUMPDEST SWAP1 PUSH1 0x20 DUP3 DUP3 SUB SLT PUSH2 0x2D7 JUMPI PUSH2 0x353 SWAP2 PUSH2 0x2B45 JUMP JUMPDEST ISZERO PUSH2 0x2B6D JUMPI JUMP JUMPDEST PUSH1 0x40 MLOAD PUSH3 0x461BCD PUSH1 0xE5 SHL DUP2 MSTORE PUSH1 0x20 PUSH1 0x4 DUP3 ADD MSTORE PUSH1 0x29 PUSH1 0x24 DUP3 ADD MSTORE PUSH32 0x45524331393637557067726164653A20756E737570706F727465642070726F78 PUSH1 0x44 DUP3 ADD MSTORE PUSH9 0x1A58589B1955555251 PUSH1 0xBA SHL PUSH1 0x64 DUP3 ADD MSTORE PUSH1 0x84 SWAP1 REVERT JUMPDEST SWAP2 SWAP1 PUSH2 0x2BDC PUSH1 0x0 PUSH2 0x2BD6 PUSH2 0x353 PUSH2 0x2B1C JUMP JUMPDEST ADD PUSH2 0x4D0 JUMP JUMPDEST ISZERO PUSH2 0x2BEC JUMPI POP POP PUSH2 0x3AA SWAP1 PUSH2 0x33C1 JUMP JUMPDEST PUSH2 0x2BF8 PUSH2 0x28A9 DUP5 PUSH2 0x72D JUMP JUMPDEST SWAP3 PUSH1 0x20 PUSH2 0x2C04 PUSH1 0x40 MLOAD SWAP1 JUMP JUMPDEST PUSH4 0x52D1902D PUSH1 0xE0 SHL DUP2 MSTORE SWAP5 DUP6 SWAP1 PUSH1 0x4 SWAP1 DUP3 SWAP1 GAS STATICCALL PUSH1 0x0 SWAP5 DUP2 PUSH2 0x2CA2 JUMPI JUMPDEST POP PUSH2 0x2C82 JUMPI PUSH1 0x40 MLOAD PUSH3 0x461BCD PUSH1 0xE5 SHL DUP2 MSTORE PUSH1 0x20 PUSH1 0x4 DUP3 ADD MSTORE PUSH1 0x2E PUSH1 0x24 DUP3 ADD MSTORE PUSH32 0x45524331393637557067726164653A206E657720696D706C656D656E74617469 PUSH1 0x44 DUP3 ADD MSTORE PUSH14 0x6F6E206973206E6F742055555053 PUSH1 0x90 SHL PUSH1 0x64 DUP3 ADD MSTORE PUSH1 0x84 SWAP1 REVERT JUMPDEST PUSH2 0x2C9D PUSH2 0x3AA SWAP5 PUSH2 0x2C97 PUSH2 0x1416 PUSH2 0x353 PUSH2 0x1BC4 JUMP JUMPDEST EQ PUSH2 0x2B66 JUMP JUMPDEST PUSH2 0x3320 JUMP JUMPDEST PUSH2 0x2CC5 SWAP2 SWAP6 POP PUSH1 0x20 RETURNDATASIZE PUSH1 0x20 GT PUSH2 0x2CCC JUMPI JUMPDEST PUSH2 0x2CBD DUP2 DUP4 PUSH2 0x7C3 JUMP JUMPDEST DUP2 ADD SWAP1 PUSH2 0x2B52 JUMP JUMPDEST SWAP4 CODESIZE PUSH2 0x2C21 JUMP JUMPDEST POP RETURNDATASIZE PUSH2 0x2CB3 JUMP JUMPDEST EXTCODESIZE PUSH2 0x2CE1 PUSH2 0x1416 PUSH1 0x0 PUSH2 0xFFF JUMP JUMPDEST GT SWAP1 JUMP JUMPDEST ISZERO PUSH2 0x2CEC JUMPI JUMP JUMPDEST PUSH1 0x40 MLOAD PUSH3 0x461BCD PUSH1 0xE5 SHL DUP2 MSTORE PUSH1 0x20 PUSH1 0x4 DUP3 ADD MSTORE PUSH1 0x2B PUSH1 0x24 DUP3 ADD MSTORE PUSH32 0x496E697469616C697A61626C653A20636F6E7472616374206973206E6F742069 PUSH1 0x44 DUP3 ADD MSTORE PUSH11 0x6E697469616C697A696E67 PUSH1 0xA8 SHL PUSH1 0x64 DUP3 ADD MSTORE PUSH1 0x84 SWAP1 REVERT JUMPDEST SWAP1 PUSH2 0x3AA SWAP2 PUSH2 0x2D5C PUSH2 0x2D57 PUSH1 0x0 PUSH2 0x4E6 JUMP JUMPDEST PUSH2 0x2CE5 JUMP JUMPDEST SWAP1 PUSH2 0x3AA SWAP2 PUSH2 0x35AC JUMP JUMPDEST SWAP1 PUSH2 0x3AA SWAP2 PUSH2 0x2D45 JUMP JUMPDEST PUSH2 0x3AA PUSH2 0x2D57 PUSH1 0x0 PUSH2 0x4E6 JUMP JUMPDEST PUSH2 0x3AA PUSH2 0x2D70 JUMP JUMPDEST PUSH2 0x2D92 PUSH2 0x2D57 PUSH1 0x0 PUSH2 0x4E6 JUMP JUMPDEST PUSH2 0x3AA PUSH2 0x3AA PUSH2 0x35D2 JUMP JUMPDEST PUSH2 0x3AA PUSH2 0x2D85 JUMP JUMPDEST PUSH2 0x2DB2 PUSH2 0x2D57 PUSH1 0x0 PUSH2 0x4E6 JUMP JUMPDEST PUSH2 0x3AA PUSH2 0x3AA PUSH2 0x35F1 JUMP JUMPDEST PUSH2 0x3AA PUSH2 0x2DA5 JUMP JUMPDEST PUSH2 0x2DD2 PUSH2 0x2D57 PUSH1 0x0 PUSH2 0x4E6 JUMP JUMPDEST PUSH2 0x3AA PUSH2 0x3AA PUSH2 0x3606 JUMP JUMPDEST PUSH2 0x3AA PUSH2 0x2DC5 JUMP JUMPDEST SWAP1 PUSH1 0x1 PUSH1 0x1 PUSH1 0xA0 SHL SUB SWAP1 PUSH2 0x10CB JUMP JUMPDEST SWAP1 PUSH2 0x2E04 PUSH2 0x353 PUSH2 0x10FC SWAP3 PUSH2 0x72D JUMP JUMPDEST DUP3 SLOAD PUSH2 0x2DE5 JUMP JUMPDEST PUSH2 0x2E2C PUSH2 0x2E26 PUSH2 0x2E1B PUSH1 0xFB PUSH2 0x1DBE JUMP JUMPDEST PUSH2 0x28A9 DUP5 PUSH1 0xFB PUSH2 0x2DF4 JUMP JUMPDEST SWAP2 PUSH2 0x72D JUMP JUMPDEST SWAP1 PUSH32 0x8BE0079C531659141344CD1FD0A4F28419497F9722A3DAAFE3B4186F6B6457E0 PUSH2 0x2E57 PUSH1 0x40 MLOAD SWAP1 JUMP JUMPDEST DUP1 DUP1 PUSH2 0x28BE JUMP JUMPDEST ISZERO PUSH2 0x2E65 JUMPI JUMP JUMPDEST PUSH1 0x40 MLOAD PUSH3 0x461BCD PUSH1 0xE5 SHL DUP2 MSTORE PUSH1 0x20 PUSH1 0x4 DUP3 ADD MSTORE PUSH1 0x1F PUSH1 0x24 DUP3 ADD MSTORE PUSH32 0x45524332303A206D696E7420746F20746865207A65726F206164647265737300 PUSH1 0x44 DUP3 ADD MSTORE PUSH1 0x64 SWAP1 REVERT JUMPDEST PUSH1 0x0 DUP1 MLOAD PUSH1 0x20 PUSH2 0x38CC DUP4 CODECOPY DUP2 MLOAD SWAP2 MSTORE PUSH2 0x28BE PUSH2 0x28B4 PUSH2 0x28AE PUSH2 0x2ECC PUSH1 0x0 PUSH2 0x129D JUMP JUMPDEST PUSH2 0x2EE8 PUSH2 0x2ED8 DUP3 PUSH2 0x381 JUMP JUMPDEST PUSH2 0x2EE1 DUP9 PUSH2 0x381 JUMP JUMPDEST EQ ISZERO PUSH2 0x2E5E JUMP JUMPDEST PUSH2 0x2EF3 DUP8 DUP8 DUP4 PUSH2 0x326B JUMP JUMPDEST PUSH2 0x2F0B PUSH2 0x2F04 DUP9 PUSH2 0x182A PUSH1 0x35 PUSH2 0x4BB JUMP JUMPDEST PUSH1 0x35 PUSH2 0x13B3 JUMP JUMPDEST PUSH2 0x28A9 PUSH2 0x2AE7 DUP8 PUSH1 0x33 PUSH2 0x736 JUMP JUMPDEST ISZERO PUSH2 0x2F20 JUMPI JUMP JUMPDEST PUSH1 0x40 MLOAD PUSH3 0x461BCD PUSH1 0xE5 SHL DUP2 MSTORE DUP1 PUSH2 0xF3F PUSH1 0x4 DUP3 ADD PUSH1 0x20 DUP1 DUP3 MSTORE DUP2 DUP2 ADD MSTORE PUSH32 0x4F776E61626C653A2063616C6C6572206973206E6F7420746865206F776E6572 PUSH1 0x40 DUP3 ADD MSTORE PUSH1 0x60 ADD SWAP1 JUMP JUMPDEST PUSH2 0x3AA PUSH2 0x2F74 PUSH2 0x1DC8 JUMP JUMPDEST PUSH2 0x2F80 PUSH2 0xFD3 CALLER PUSH2 0x381 JUMP JUMPDEST EQ PUSH2 0x2F19 JUMP JUMPDEST PUSH2 0x2F8E PUSH2 0x3651 JUMP JUMPDEST PUSH2 0x3AA PUSH2 0x2F9D PUSH1 0x0 PUSH1 0x97 PUSH2 0x13D4 JUMP JUMPDEST PUSH32 0x5DB9EE0A495BF2E6FF9C91A7834C1BA4FDD244A5E8AA4E537BD38AEAE4B073AA PUSH2 0x11CE CALLER PUSH2 0x9E6 JUMP JUMPDEST PUSH2 0x3AA PUSH2 0x2F86 JUMP JUMPDEST ISZERO PUSH2 0x2FD6 JUMPI JUMP JUMPDEST PUSH1 0x40 MLOAD PUSH3 0x461BCD PUSH1 0xE5 SHL DUP2 MSTORE PUSH1 0x20 PUSH1 0x4 DUP3 ADD MSTORE PUSH1 0x21 PUSH1 0x24 DUP3 ADD MSTORE PUSH32 0x45524332303A206275726E2066726F6D20746865207A65726F20616464726573 PUSH1 0x44 DUP3 ADD MSTORE PUSH1 0x73 PUSH1 0xF8 SHL PUSH1 0x64 DUP3 ADD MSTORE PUSH1 0x84 SWAP1 REVERT JUMPDEST ISZERO PUSH2 0x302C JUMPI JUMP JUMPDEST PUSH1 0x40 MLOAD PUSH3 0x461BCD PUSH1 0xE5 SHL DUP2 MSTORE PUSH1 0x20 PUSH1 0x4 DUP3 ADD MSTORE PUSH1 0x22 PUSH1 0x24 DUP3 ADD MSTORE PUSH32 0x45524332303A206275726E20616D6F756E7420657863656564732062616C616E PUSH1 0x44 DUP3 ADD MSTORE PUSH2 0x6365 PUSH1 0xF0 SHL PUSH1 0x64 DUP3 ADD MSTORE PUSH1 0x84 SWAP1 REVERT JUMPDEST PUSH1 0x0 DUP1 MLOAD PUSH1 0x20 PUSH2 0x38CC DUP4 CODECOPY DUP2 MLOAD SWAP2 MSTORE PUSH2 0x28BE PUSH2 0x28B4 PUSH2 0x28AE PUSH2 0x309E PUSH1 0x0 PUSH2 0x129D JUMP JUMPDEST SWAP5 PUSH2 0x30BB PUSH2 0x30AB DUP8 PUSH2 0x381 JUMP JUMPDEST PUSH2 0x30B4 DUP4 PUSH2 0x381 JUMP JUMPDEST EQ ISZERO PUSH2 0x2FCF JUMP JUMPDEST PUSH2 0x30C6 DUP8 DUP8 DUP4 PUSH2 0x326B JUMP JUMPDEST PUSH2 0x30F2 PUSH2 0x30E7 DUP9 PUSH2 0x30DB PUSH2 0xEBD DUP6 PUSH1 0x33 PUSH2 0x736 JUMP JUMPDEST PUSH2 0x1E56 DUP3 DUP3 LT ISZERO PUSH2 0x3025 JUMP JUMPDEST PUSH2 0x1D18 DUP4 PUSH1 0x33 PUSH2 0x736 JUMP JUMPDEST PUSH2 0x28A9 PUSH2 0x2F04 DUP9 PUSH2 0x1E56 PUSH1 0x35 PUSH2 0x4BB JUMP JUMPDEST PUSH2 0x353 PUSH1 0x2 PUSH2 0xFFF JUMP JUMPDEST ISZERO PUSH2 0x3114 JUMPI JUMP JUMPDEST PUSH1 0x40 MLOAD PUSH3 0x461BCD PUSH1 0xE5 SHL DUP2 MSTORE PUSH1 0x20 PUSH1 0x4 DUP3 ADD MSTORE PUSH1 0x1F PUSH1 0x24 DUP3 ADD MSTORE PUSH32 0x5265656E7472616E637947756172643A207265656E7472616E742063616C6C00 PUSH1 0x44 DUP3 ADD MSTORE PUSH1 0x64 SWAP1 REVERT JUMPDEST PUSH2 0x3AA PUSH2 0x3167 PUSH2 0x191 PUSH2 0x4BB JUMP JUMPDEST PUSH2 0x317B PUSH2 0x3172 PUSH2 0x3103 JUMP JUMPDEST SWAP2 DUP3 EQ ISZERO PUSH2 0x310D JUMP JUMPDEST PUSH2 0x191 PUSH2 0x13B3 JUMP JUMPDEST PUSH2 0x353 PUSH1 0x1 PUSH2 0xFFF JUMP JUMPDEST PUSH2 0x3AA PUSH2 0x317B PUSH2 0x3183 JUMP JUMPDEST PUSH2 0x31A0 PUSH2 0x36A0 JUMP JUMPDEST PUSH2 0x3AA PUSH2 0x31AF PUSH1 0x1 PUSH1 0x97 PUSH2 0x13D4 JUMP JUMPDEST PUSH32 0x62E78CEA01BEE320CD4E420270B5EA74000D11B0C9F74754EBDBFC544B05A258 PUSH2 0x11CE CALLER PUSH2 0x9E6 JUMP JUMPDEST PUSH2 0x3AA PUSH2 0x3198 JUMP JUMPDEST ISZERO PUSH2 0x31E8 JUMPI JUMP JUMPDEST PUSH1 0x40 MLOAD PUSH3 0x461BCD PUSH1 0xE5 SHL DUP2 MSTORE PUSH1 0x20 PUSH1 0x4 DUP3 ADD MSTORE PUSH1 0x16 PUSH1 0x24 DUP3 ADD MSTORE PUSH22 0x1059191C995CDCC81A5CC8189B1858DADB1A5CDD1959 PUSH1 0x52 SHL PUSH1 0x44 DUP3 ADD MSTORE PUSH1 0x64 SWAP1 REVERT JUMPDEST ISZERO PUSH2 0x322D JUMPI JUMP JUMPDEST PUSH1 0x40 MLOAD PUSH3 0x461BCD PUSH1 0xE5 SHL DUP2 MSTORE PUSH1 0x20 PUSH1 0x4 DUP3 ADD MSTORE PUSH1 0x16 PUSH1 0x24 DUP3 ADD MSTORE PUSH22 0x151BDAD95B9CC8185C99481D1A5B594B5B1BD8DAD959 PUSH1 0x52 SHL PUSH1 0x44 DUP3 ADD MSTORE PUSH1 0x64 SWAP1 REVERT JUMPDEST SWAP2 PUSH2 0x3277 SWAP1 DUP3 DUP5 PUSH2 0x3712 JUMP JUMPDEST PUSH2 0x3282 PUSH2 0x1CF PUSH2 0x4D0 JUMP JUMPDEST PUSH2 0x32DB JUMPI JUMPDEST POP PUSH2 0x3293 PUSH2 0x1CF PUSH2 0x4E6 JUMP JUMPDEST DUP1 PUSH2 0x32BD JUMPI JUMPDEST PUSH2 0x32A0 JUMPI POP JUMP JUMPDEST PUSH2 0x32B5 PUSH2 0x353 PUSH2 0xEBD PUSH2 0x3AA SWAP4 PUSH2 0x1D1 PUSH2 0x736 JUMP JUMPDEST TIMESTAMP LT ISZERO PUSH2 0x3226 JUMP JUMPDEST POP PUSH2 0x32CB PUSH2 0x15DB PUSH1 0x0 PUSH2 0x129D JUMP JUMPDEST PUSH2 0x32D4 DUP3 PUSH2 0x381 JUMP JUMPDEST EQ ISZERO PUSH2 0x3299 JUMP JUMPDEST PUSH2 0x3301 SWAP1 PUSH2 0x1D0 SWAP1 PUSH2 0x32F3 PUSH2 0x114D PUSH2 0x184D DUP7 DUP6 PUSH2 0x736 JUMP JUMPDEST SWAP2 DUP3 PUSH2 0x3307 JUMPI JUMPDEST POP POP PUSH2 0x31E1 JUMP JUMPDEST CODESIZE PUSH2 0x3287 JUMP JUMPDEST PUSH2 0x3319 SWAP3 POP PUSH2 0x114D SWAP2 PUSH2 0x184D SWAP2 PUSH2 0x736 JUMP JUMPDEST CODESIZE DUP1 PUSH2 0x32FA JUMP JUMPDEST SWAP2 PUSH2 0x332A DUP4 PUSH2 0x3728 JUMP JUMPDEST DUP2 MLOAD PUSH2 0x3339 PUSH2 0x1416 PUSH1 0x0 PUSH2 0xFFF JUMP JUMPDEST GT SWAP1 DUP2 ISZERO PUSH2 0x3357 JUMPI JUMPDEST POP PUSH2 0x334B JUMPI POP POP JUMP JUMPDEST PUSH2 0x3354 SWAP2 PUSH2 0x37B0 JUMP JUMPDEST POP JUMP JUMPDEST SWAP1 POP CODESIZE PUSH2 0x3342 JUMP JUMPDEST ISZERO PUSH2 0x3366 JUMPI JUMP JUMPDEST PUSH1 0x40 MLOAD PUSH3 0x461BCD PUSH1 0xE5 SHL DUP2 MSTORE PUSH1 0x20 PUSH1 0x4 DUP3 ADD MSTORE PUSH1 0x2D PUSH1 0x24 DUP3 ADD MSTORE PUSH32 0x455243313936373A206E657720696D706C656D656E746174696F6E206973206E PUSH1 0x44 DUP3 ADD MSTORE PUSH13 0x1BDD08184818DBDB9D1C9858DD PUSH1 0x9A SHL PUSH1 0x64 DUP3 ADD MSTORE PUSH1 0x84 SWAP1 REVERT JUMPDEST PUSH2 0x3AA SWAP1 PUSH2 0x33D6 PUSH2 0x33D1 DUP3 PUSH2 0x2CD3 JUMP JUMPDEST PUSH2 0x335F JUMP JUMPDEST PUSH1 0x0 PUSH2 0x33E3 PUSH2 0x353 PUSH2 0x1BC4 JUMP JUMPDEST ADD PUSH2 0x2DF4 JUMP JUMPDEST SWAP1 PUSH2 0x3AA SWAP2 PUSH2 0x33FB PUSH2 0x2D57 PUSH1 0x0 PUSH2 0x4E6 JUMP JUMPDEST PUSH2 0x3596 JUMP JUMPDEST SWAP2 PUSH1 0x0 NOT PUSH1 0x8 SWAP3 SWAP1 SWAP3 MUL SWAP2 DUP3 SHL SWAP2 SHL PUSH2 0x10CB JUMP JUMPDEST SWAP2 SWAP1 PUSH2 0x3425 PUSH2 0x353 PUSH2 0x10FC SWAP4 PUSH2 0xFFF JUMP JUMPDEST SWAP1 DUP4 SLOAD PUSH2 0x3400 JUMP JUMPDEST PUSH2 0x3AA SWAP2 PUSH1 0x0 SWAP2 PUSH2 0x3414 JUMP JUMPDEST DUP2 DUP2 LT PUSH2 0x3444 JUMPI POP POP JUMP JUMPDEST DUP1 PUSH2 0x3452 PUSH1 0x0 PUSH1 0x1 SWAP4 PUSH2 0x342D JUMP JUMPDEST ADD PUSH2 0x3439 JUMP JUMPDEST SWAP2 SWAP1 PUSH1 0x1F DUP2 GT PUSH2 0x3467 JUMPI POP POP POP JUMP JUMPDEST PUSH2 0x3479 PUSH2 0x3AA SWAP4 PUSH1 0x0 MSTORE PUSH1 0x20 PUSH1 0x0 KECCAK256 SWAP1 JUMP JUMPDEST SWAP1 PUSH1 0x20 PUSH1 0x1F DUP5 ADD DUP2 SWAP1 DIV DUP4 ADD SWAP4 LT PUSH2 0x349B JUMPI JUMPDEST PUSH1 0x20 PUSH1 0x1F SWAP1 SWAP2 ADD DIV ADD SWAP1 PUSH2 0x3439 JUMP JUMPDEST SWAP1 SWAP2 POP DUP2 SWAP1 PUSH2 0x348C JUMP JUMPDEST SWAP1 PUSH1 0x0 NOT PUSH1 0x8 SWAP1 SWAP2 MUL SHR NOT AND SWAP1 JUMP JUMPDEST DUP2 PUSH2 0x34BE SWAP2 PUSH2 0x34A5 JUMP JUMPDEST SWAP1 PUSH1 0x2 MUL OR SWAP1 JUMP JUMPDEST SWAP1 PUSH2 0x34CF DUP2 MLOAD SWAP1 JUMP JUMPDEST SWAP1 PUSH1 0x1 PUSH1 0x1 PUSH1 0x40 SHL SUB DUP3 GT PUSH2 0x7E4 JUMPI PUSH2 0x34F2 DUP3 PUSH2 0x34EC DUP6 SLOAD PUSH2 0xD9F JUMP JUMPDEST DUP6 PUSH2 0x3458 JUMP JUMPDEST PUSH1 0x20 SWAP1 PUSH1 0x1F DUP4 GT PUSH1 0x1 EQ PUSH2 0x3520 JUMPI PUSH2 0x10FC SWAP3 SWAP2 PUSH1 0x0 SWAP2 DUP4 PUSH2 0x3515 JUMPI JUMPDEST POP POP PUSH2 0x34B4 JUMP JUMPDEST ADD MLOAD SWAP1 POP CODESIZE DUP1 PUSH2 0x350E JUMP JUMPDEST PUSH1 0x1F NOT DUP4 AND SWAP2 PUSH2 0x3535 DUP6 PUSH1 0x0 MSTORE PUSH1 0x20 PUSH1 0x0 KECCAK256 SWAP1 JUMP JUMPDEST SWAP3 PUSH1 0x0 JUMPDEST DUP2 DUP2 LT PUSH2 0x3574 JUMPI POP SWAP2 PUSH1 0x2 SWAP4 SWAP2 DUP6 PUSH1 0x1 SWAP7 SWAP5 LT PUSH2 0x355A JUMPI JUMPDEST POP POP POP MUL ADD SWAP1 SSTORE JUMP JUMPDEST PUSH2 0x356A SWAP2 ADD MLOAD PUSH1 0x1F DUP5 AND SWAP1 PUSH2 0x34A5 JUMP JUMPDEST SWAP1 SSTORE CODESIZE DUP1 DUP1 PUSH2 0x3551 JUMP JUMPDEST SWAP2 SWAP4 PUSH1 0x20 PUSH1 0x1 DUP2 SWAP3 DUP8 DUP8 ADD MLOAD DUP2 SSTORE ADD SWAP6 ADD SWAP3 ADD PUSH2 0x3539 JUMP JUMPDEST SWAP1 PUSH2 0x3AA SWAP2 PUSH2 0x34C6 JUMP JUMPDEST SWAP1 PUSH2 0x35A5 PUSH2 0x3AA SWAP3 PUSH1 0x36 PUSH2 0x358C JUMP JUMPDEST PUSH1 0x37 PUSH2 0x358C JUMP JUMPDEST SWAP1 PUSH2 0x3AA SWAP2 PUSH2 0x33E9 JUMP JUMPDEST PUSH2 0x35C3 PUSH2 0x2D57 PUSH1 0x0 PUSH2 0x4E6 JUMP JUMPDEST PUSH2 0x3AA PUSH2 0x3AA PUSH1 0x0 PUSH1 0x97 PUSH2 0x13D4 JUMP JUMPDEST PUSH2 0x3AA PUSH2 0x35B6 JUMP JUMPDEST PUSH2 0x35E7 PUSH2 0x2D57 PUSH1 0x0 PUSH2 0x4E6 JUMP JUMPDEST PUSH2 0x3AA DUP1 CALLER PUSH2 0x2E0B JUMP JUMPDEST PUSH2 0x3AA PUSH2 0x35DA JUMP JUMPDEST PUSH2 0x1897 PUSH2 0x2D57 PUSH1 0x0 PUSH2 0x4E6 JUMP JUMPDEST PUSH2 0x3AA PUSH2 0x35F9 JUMP JUMPDEST ISZERO PUSH2 0x3615 JUMPI JUMP JUMPDEST PUSH1 0x40 MLOAD PUSH3 0x461BCD PUSH1 0xE5 SHL DUP2 MSTORE PUSH1 0x20 PUSH1 0x4 DUP3 ADD MSTORE PUSH1 0x14 PUSH1 0x24 DUP3 ADD MSTORE PUSH20 0x14185D5CD8589B194E881B9BDD081C185D5CD959 PUSH1 0x62 SHL PUSH1 0x44 DUP3 ADD MSTORE PUSH1 0x64 SWAP1 REVERT JUMPDEST PUSH2 0x3AA PUSH2 0x365C PUSH2 0x1C00 JUMP JUMPDEST PUSH2 0x360E JUMP JUMPDEST ISZERO PUSH2 0x3668 JUMPI JUMP JUMPDEST PUSH1 0x40 MLOAD PUSH3 0x461BCD PUSH1 0xE5 SHL DUP2 MSTORE PUSH1 0x20 PUSH1 0x4 DUP3 ADD MSTORE PUSH1 0x10 PUSH1 0x24 DUP3 ADD MSTORE PUSH16 0x14185D5CD8589B194E881C185D5CD959 PUSH1 0x82 SHL PUSH1 0x44 DUP3 ADD MSTORE PUSH1 0x64 SWAP1 REVERT JUMPDEST PUSH2 0x3AA PUSH2 0x36AE PUSH2 0x114D PUSH2 0x1C00 JUMP JUMPDEST PUSH2 0x3661 JUMP JUMPDEST ISZERO PUSH2 0x36BA JUMPI JUMP JUMPDEST PUSH1 0x40 MLOAD PUSH3 0x461BCD PUSH1 0xE5 SHL DUP2 MSTORE PUSH1 0x20 PUSH1 0x4 DUP3 ADD MSTORE PUSH1 0x2A PUSH1 0x24 DUP3 ADD MSTORE PUSH32 0x45524332305061757361626C653A20746F6B656E207472616E73666572207768 PUSH1 0x44 DUP3 ADD MSTORE PUSH10 0x1A5B19481C185D5CD959 PUSH1 0xB2 SHL PUSH1 0x64 DUP3 ADD MSTORE PUSH1 0x84 SWAP1 REVERT JUMPDEST POP POP POP PUSH2 0x3AA PUSH2 0x3723 PUSH2 0x114D PUSH2 0x1C00 JUMP JUMPDEST PUSH2 0x36B3 JUMP JUMPDEST PUSH2 0x3735 SWAP1 PUSH2 0x28A9 DUP2 PUSH2 0x33C1 JUMP JUMPDEST PUSH32 0xBC7CD75A20EE27FD9ADEBAB32041F755214DBC6BFFA90CC0225B39DA2E5C2D3B PUSH2 0x375F PUSH1 0x40 MLOAD SWAP1 JUMP JUMPDEST PUSH1 0x0 SWAP1 LOG2 JUMP JUMPDEST PUSH2 0x376F PUSH1 0x27 PUSH2 0xA56 JUMP JUMPDEST PUSH32 0x416464726573733A206C6F772D6C6576656C2064656C65676174652063616C6C PUSH1 0x20 DUP3 ADD MSTORE PUSH7 0x819985A5B1959 PUSH1 0xCA SHL PUSH1 0x40 DUP3 ADD MSTORE SWAP1 JUMP JUMPDEST PUSH2 0x353 PUSH2 0x3765 JUMP JUMPDEST PUSH2 0x353 SWAP2 PUSH2 0x37BC PUSH2 0x37A8 JUMP JUMPDEST SWAP2 PUSH1 0x0 DUP1 PUSH2 0x353 SWAP5 SWAP4 PUSH2 0x37CD PUSH1 0x60 SWAP1 JUMP JUMPDEST POP PUSH1 0x20 DUP2 MLOAD SWAP2 ADD DUP5 GAS DELEGATECALL PUSH2 0x37DF PUSH2 0x1975 JUMP JUMPDEST SWAP2 PUSH2 0x3831 JUMP JUMPDEST ISZERO PUSH2 0x37EC JUMPI JUMP JUMPDEST PUSH1 0x40 MLOAD PUSH3 0x461BCD PUSH1 0xE5 SHL DUP2 MSTORE PUSH1 0x20 PUSH1 0x4 DUP3 ADD MSTORE PUSH1 0x1D PUSH1 0x24 DUP3 ADD MSTORE PUSH32 0x416464726573733A2063616C6C20746F206E6F6E2D636F6E7472616374000000 PUSH1 0x44 DUP3 ADD MSTORE PUSH1 0x64 SWAP1 REVERT JUMPDEST SWAP2 SWAP3 SWAP1 ISZERO PUSH2 0x3863 JUMPI POP DUP2 MLOAD PUSH2 0x3849 PUSH2 0x1416 PUSH1 0x0 PUSH2 0xFFF JUMP JUMPDEST EQ PUSH2 0x3852 JUMPI POP SWAP1 JUMP JUMPDEST PUSH2 0x385E PUSH2 0x353 SWAP2 PUSH2 0x2CD3 JUMP JUMPDEST PUSH2 0x37E5 JUMP JUMPDEST DUP3 SWAP1 PUSH2 0x386D DUP3 MLOAD SWAP1 JUMP JUMPDEST PUSH2 0x387A PUSH2 0x1416 PUSH1 0x0 PUSH2 0xFFF JUMP JUMPDEST GT ISZERO PUSH2 0x3889 JUMPI POP DUP1 MLOAD SWAP1 PUSH1 0x20 ADD REVERT JUMPDEST PUSH2 0xF3F SWAP1 PUSH2 0x3896 PUSH1 0x40 MLOAD SWAP1 JUMP JUMPDEST PUSH3 0x461BCD PUSH1 0xE5 SHL DUP2 MSTORE SWAP2 DUP3 SWAP2 PUSH1 0x4 DUP4 ADD PUSH2 0x342 JUMP INVALID CHAINID PUSH22 0x6E6374696F6E206D7573742062652063616C6C656420 PUSH21 0x68726F75676820DDF252AD1BE2C89B69C2B068FC37 DUP14 0xAA SWAP6 0x2B 0xA7 CALL PUSH4 0xC4A11628 CREATE2 GAS 0x4D CREATE2 0x23 0xB3 0xEF LOG2 PUSH5 0x6970667358 0x22 SLT KECCAK256 SIGNEXTEND CALLDATALOAD SIGNEXTEND 0x1F 0xE8 PUSH18 0xB533228A215ECBE02ABC22A629A12636929 SIGNEXTEND 0x4D 0xB0 0xF7 CALLCODE 0xB0 0xD0 0x28 PUSH5 0x736F6C6343 STOP ADDMOD AND STOP CALLER "},"methodIdentifiers":{"VERSION()":"ffa1ad74","VERSION_HASH()":"9e4e7318","allowance(address,address)":"dd62ed3e","approve(address,uint256)":"095ea7b3","balanceOf(address)":"70a08231","blacklist(address)":"f9f92be4","blacklistEnabled()":"bffb691d","burn(uint256)":"42966c68","burnFrom(address,uint256)":"79cc6790","claimRefund()":"b5545a3c","contribute()":"d7bb99ba","contributions(address)":"42e94c90","decimals()":"313ce567","decreaseAllowance(address,uint256)":"a457c2d7","finalize()":"4bb278f3","getContribution(address)":"21eff7fc","getPresaleStatus()":"d7517caa","getTimeLock(address)":"748f7098","increaseAllowance(address,uint256)":"39509351","initialize((string,string,uint256,uint256,address,bool,bool,uint256,uint256,uint256,uint256,uint256,uint256))":"36f234ac","isBlacklisted(address)":"fe575a87","isWhitelisted(address)":"3af32abf","maxSupply()":"d5abeb01","name()":"06fdde03","owner()":"8da5cb5b","pause()":"8456cb59","paused()":"5c975abb","presaleInfo()":"2edf0869","proxiableUUID()":"52d1902d","renounceOwnership()":"715018a6","setTimeLock(address,uint256)":"644fab74","symbol()":"95d89b41","timeLockEnabled()":"cba4cbd3","timeLocks(address)":"7f76b223","totalSupply()":"18160ddd","transfer(address,uint256)":"a9059cbb","transferFrom(address,address,uint256)":"23b872dd","transferOwnership(address)":"f2fde38b","unpause()":"3f4ba83a","updateBlacklist(address[],bool)":"bb0e69e8","updateWhitelist(address[],bool)":"aff177ca","upgradeTo(address)":"3659cfe6","upgradeToAndCall(address,bytes)":"4f1ef286","whitelist(address)":"9b19251a"}}}}}