{"src/contracts/test/TestFactory.sol":{"TestFactory":{"abi":[{"inputs":[],"stateMutability":"nonpayable","type":"constructor"},{"anonymous":false,"inputs":[{"indexed":true,"internalType":"address","name":"tokenAddress","type":"address"},{"indexed":false,"internalType":"string","name":"name","type":"string"},{"indexed":false,"internalType":"string","name":"symbol","type":"string"}],"name":"TokenCreated","type":"event"},{"inputs":[{"internalType":"string","name":"name","type":"string"},{"internalType":"string","name":"symbol","type":"string"},{"internalType":"uint256","name":"initialSupply","type":"uint256"}],"name":"createToken","outputs":[{"internalType":"address","name":"","type":"address"}],"stateMutability":"nonpayable","type":"function"},{"inputs":[],"name":"tokenBeacon","outputs":[{"internalType":"contract TestBeacon","name":"","type":"address"}],"stateMutability":"view","type":"function"}],"devdoc":{"kind":"dev","methods":{},"version":1},"evm":{"bytecode":{"linkReferences":{},"object":"6080604090808252346100e35761116d818101916001600160401b0391828411828510176100cd576113fb82396060835260a08160009485606082015260806020820152856080820152858782015203019083f080156100af5783516001600160a01b03929091610ffc808401928311848410176100b957918484926020946103ff853916815203019083f080156100af5782546001600160a01b03191691161790555161031690816100e98239f35b83513d84823e3d90fd5b634e487b7160e01b86526041600452602486fd5b634e487b7160e01b600052604160045260246000fd5b600080fdfe604060808152600436101561001357600080fd5b600090813560e01c80635b0605301461005f5763ccf5a77c1461003557600080fd5b3461005b578160031936011261005b57905490516001600160a01b039091168152602090f35b5080fd5b5090346101f25760603660031901126101f25767ffffffffffffffff9160043583811161020857610094903690600401610244565b92602435908111610208576100ad903690600401610244565b815160209363588ca48760e11b8583015260606024830152610101826100eb6100d9608483018a6102a0565b828103602319016044840152866102a0565b604435606483015203601f19810184528361020c565b808561013560018060a01b039485845416908851958680948193638f295d5960e01b835287600484015260248301906102a0565b03925af19182156101fc57819261019f575b505061019694957fffc04f682c7b287e4b552dacd4b833d7c33dc0549cd6da84388408e4830c05629261018992169586948651938493888552888501906102a0565b908382038a8501526102a0565b0390a251908152f35b9091508581813d83116101f5575b6101b7818361020c565b8101031261005b57519082821682036101f25750857fffc04f682c7b287e4b552dacd4b833d7c33dc0549cd6da84388408e4830c0562610147565b80fd5b503d6101ad565b508451903d90823e3d90fd5b8280fd5b90601f8019910116810190811067ffffffffffffffff82111761022e57604052565b634e487b7160e01b600052604160045260246000fd5b81601f8201121561029b5780359067ffffffffffffffff821161022e5760405192610279601f8401601f19166020018561020c565b8284526020838301011161029b57816000926020809301838601378301015290565b600080fd5b919082519283825260005b8481106102cc575050826000602080949584010152601f8019910116010190565b6020818301810151848301820152016102ab56fea2646970667358221220040390aef27107895417a3b12798bd00016e7ab3e2ff3faca44a948ab1fb91de64736f6c6343000816003360803461016457601f610ffc38819003918201601f19168301926001600160401b039290918385118386101761016957816020928492604097885283398101031261016457516001600160a01b0391908281169081900361016457600080546001600160a01b031980821633908117845587519396919491939284167f8be0079c531659141344cd1fd0a4f28419497f9722a3daafe3b4186f6b6457e08880a361045a90818301918383108784111761015057918391602093610ba28439815203019085f08015610146571680916001541617600155803b156101425790828092602486518096819363f2fde38b60e01b83523360048401525af1801561013857610113575b8351610a2290816101808239f35b821161012457508152388080610105565b634e487b7160e01b81526041600452602490fd5b84513d84823e3d90fd5b8280fd5b85513d86823e3d90fd5b634e487b7160e01b88526041600452602488fd5b600080fd5b634e487b7160e01b600052604160045260246000fdfe608060408181526004908136101561001657600080fd5b600092833560e01c90816359659e90146102fd57508063715018a6146102a05780638da5cb5b146102785780638f295d59146101275763f2fde38b1461005b57600080fd5b34610123576020366003190112610123576001600160a01b0382358181169391929084900361011f5761008c610322565b83156100cd57505082546001600160a01b0319811683178455167f8be0079c531659141344cd1fd0a4f28419497f9722a3daafe3b4186f6b6457e08380a380f35b906020608492519162461bcd60e51b8352820152602660248201527f4f776e61626c653a206e6577206f776e657220697320746865207a65726f206160448201526564647265737360d01b6064820152fd5b8480fd5b8280fd5b5091903461027457602092836003193601126101235781359167ffffffffffffffff80841161011f573660238501121561011f578382013581811161026157601f199084519582603f81601f850116011687018781108582111761024e578652818752366024838301011161024a5781889260248b9301838a01378701015260018060a01b039485600154168551946106729081870195878710908711176102375750908593929161037b853984528589850152805190818786015289895b8381106102205750505090601f828960608795819801015201160103019084f092831561021557505191168152f35b9051903d90823e3d90fd5b8083018201518782016060015287955081016101e6565b634e487b7160e01b8a5260419052602489fd5b8780fd5b634e487b7160e01b895260418652602489fd5b634e487b7160e01b865260418352602486fd5b5080fd5b838234610274578160031936011261027457905490516001600160a01b039091168152602090f35b83346102fa57806003193601126102fa576102b9610322565b80546001600160a01b03198116825581906001600160a01b03167f8be0079c531659141344cd1fd0a4f28419497f9722a3daafe3b4186f6b6457e08280a380f35b80fd5b8490346102745781600319360112610274576001546001600160a01b03168152602090f35b6000546001600160a01b0316330361033657565b606460405162461bcd60e51b815260206004820152602060248201527f4f776e61626c653a2063616c6c6572206973206e6f7420746865206f776e65726044820152fdfe60806040908082526106728038038091610019828561034d565b8339810190828183031261023f5761003081610370565b6020828101516001600160401b039391929184821161023f57019084601f8301121561023f5781519161006283610384565b9261006f8851948561034d565b8084528484019685828401011161023f57868561008c930161039f565b803b156102fb578551635c60da1b60e01b80825292916001600160a01b0316908481600481855afa9081156102f0576000916102bb575b503b1561025e577fa3f0ad74e5423aebfd80d3ef4346578335a9a72aeaee59ff6cb3582b35133d5080546001600160a01b03191682179055865192817f1cf3b03a6cf19fa2baba4df148e9dcabedea7f8a5c07840e207e5c089be95d3e600080a2825115801590610256575b610142575b87516101fc90816104768239f35b6004848693819382525afa91821561024b5760009261020f575b5085519360608501908111858210176101f9578652602784527f416464726573733a206c6f772d6c6576656c2064656c65676174652063616c6c83850152660819985a5b195960ca1b84870152516101e3946000918291845af4903d156101f0573d6101c781610384565b906101d48851928361034d565b8152600081943d92013e6103c2565b5038808080808080610134565b606092506103c2565b634e487b7160e01b600052604160045260246000fd5b9091508281813d8311610244575b610227818361034d565b8101031261023f5761023890610370565b903861015c565b600080fd5b503d61021d565b86513d6000823e3d90fd5b50600061012f565b865162461bcd60e51b815260048101859052603060248201527f455243313936373a20626561636f6e20696d706c656d656e746174696f6e206960448201526f1cc81b9bdd08184818dbdb9d1c9858dd60821b6064820152608490fd5b90508481813d83116102e9575b6102d2818361034d565b8101031261023f576102e390610370565b386100c3565b503d6102c8565b88513d6000823e3d90fd5b855162461bcd60e51b815260048101849052602560248201527f455243313936373a206e657720626561636f6e206973206e6f74206120636f6e6044820152641d1c9858dd60da1b6064820152608490fd5b601f909101601f19168101906001600160401b038211908210176101f957604052565b51906001600160a01b038216820361023f57565b6001600160401b0381116101f957601f01601f191660200190565b60005b8381106103b25750506000910152565b81810151838201526020016103a2565b9192901561042457508151156103d6575090565b3b156103df5790565b60405162461bcd60e51b815260206004820152601d60248201527f416464726573733a2063616c6c20746f206e6f6e2d636f6e74726163740000006044820152606490fd5b8251909150156104375750805190602001fd5b6044604051809262461bcd60e51b825260206004830152610467815180928160248601526020868601910161039f565b601f01601f19168101030190fdfe608080604052366100c7577fa3f0ad74e5423aebfd80d3ef4346578335a9a72aeaee59ff6cb3582b35133d5054635c60da1b60e01b8252602090829060049082906001600160a01b03165afa9081156100bb57600091610060575b506101a7565b905060203d6020116100b4575b601f8101601f191682019167ffffffffffffffff83118184101761009e576100989260405201610161565b3861005a565b634e487b7160e01b600052604160045260246000fd5b503d61006d565b6040513d6000823e3d90fd5b7fa3f0ad74e5423aebfd80d3ef4346578335a9a72aeaee59ff6cb3582b35133d5054604051635c60da1b60e01b815290602090829060049082906001600160a01b03165afa9081156100bb5760009161012057506101a7565b602091503d8211610159575b601f8201601f191681019167ffffffffffffffff83118284101761009e5761009892604052810190610188565b3d915061012c565b602090607f190112610183576080516001600160a01b03811681036101835790565b600080fd5b9081602091031261018357516001600160a01b03811681036101835790565b6000808092368280378136915af43d82803e156101c2573d90f35b3d90fdfea264697066735822122054f1b4463bccdc05c56deee162ca6730ff9d30ee0b3fc732b7a0d6a6da3ea58564736f6c63430008160033a2646970667358221220857d8f61788b4135c506484a6fe3d3000ed962e7fc000683eee8337cedb8278064736f6c6343000816003360803461011a57601f61045a38819003918201601f19168301916001600160401b0383118484101761011f5780849260209460405283398101031261011a57516001600160a01b03808216919082820361011a576000549160018060a01b0319923384821617600055604051923391167f8be0079c531659141344cd1fd0a4f28419497f9722a3daafe3b4186f6b6457e0600080a33b156100b25750600154161760015560405161032490816101368239f35b62461bcd60e51b815260206004820152603360248201527f5570677261646561626c65426561636f6e3a20696d706c656d656e746174696f60448201527f6e206973206e6f74206120636f6e7472616374000000000000000000000000006064820152608490fd5b600080fd5b634e487b7160e01b600052604160045260246000fdfe6080604052600436101561001257600080fd5b6000803560e01c80633659cfe6146101c75780635c60da1b1461019e578063715018a6146101445780638da5cb5b1461011d5763f2fde38b1461005457600080fd5b3461011a57602036600319011261011a576004356001600160a01b038181169182900361011657610083610296565b81156100c25782546001600160a01b0319811683178455167f8be0079c531659141344cd1fd0a4f28419497f9722a3daafe3b4186f6b6457e08380a380f35b60405162461bcd60e51b815260206004820152602660248201527f4f776e61626c653a206e6577206f776e657220697320746865207a65726f206160448201526564647265737360d01b6064820152608490fd5b8280fd5b80fd5b503461011a578060031936011261011a57546040516001600160a01b039091168152602090f35b503461011a578060031936011261011a5761015d610296565b80546001600160a01b03198116825581906001600160a01b03167f8be0079c531659141344cd1fd0a4f28419497f9722a3daafe3b4186f6b6457e08280a380f35b503461011a578060031936011261011a576001546040516001600160a01b039091168152602090f35b503461011a57602036600319011261011a576004356001600160a01b03811690818103610116576101f6610296565b3b1561023557600180546001600160a01b031916821790557fbc7cd75a20ee27fd9adebab32041f755214dbc6bffa90cc0225b39da2e5c2d3b8280a280f35b60405162461bcd60e51b815260206004820152603360248201527f5570677261646561626c65426561636f6e3a20696d706c656d656e746174696f6044820152721b881a5cc81b9bdd08184818dbdb9d1c9858dd606a1b6064820152608490fd5b6000546001600160a01b031633036102aa57565b606460405162461bcd60e51b815260206004820152602060248201527f4f776e61626c653a2063616c6c6572206973206e6f7420746865206f776e65726044820152fdfea2646970667358221220c17a697fa218ab66e1832a9cb889fea738e8787d12399361a9390095dd8fa1f464736f6c6343000816003360806040523462000362576200116d803803806200001d8162000367565b928339810190606081830312620003625780516001600160401b03908181116200036257836200004f9184016200038d565b916020938482015183811162000362576200006b92016200038d565b825182811162000262576003918254916001958684811c9416801562000357575b8885101462000341578190601f94858111620002eb575b508890858311600114620002845760009262000278575b505060001982861b1c191690861b1783555b8051938411620002625760049586548681811c9116801562000257575b828210146200024257838111620001f7575b50809285116001146200018957509383949184926000956200017d575b50501b92600019911b1c19161790555b60058054336001600160a01b03198216811790925560405191906001600160a01b03167f8be0079c531659141344cd1fd0a4f28419497f9722a3daafe3b4186f6b6457e0600080a3610d6d9081620004008239f35b01519350388062000118565b92919084601f1981168860005285600020956000905b89838310620001dc5750505010620001c1575b50505050811b01905562000128565b01519060f884600019921b161c1916905538808080620001b2565b8587015189559097019694850194889350908101906200019f565b87600052816000208480880160051c82019284891062000238575b0160051c019087905b8281106200022b575050620000fb565b600081550187906200021b565b9250819262000212565b602288634e487b7160e01b6000525260246000fd5b90607f1690620000e9565b634e487b7160e01b600052604160045260246000fd5b015190503880620000ba565b90889350601f19831691876000528a6000209260005b8c828210620002d45750508411620002bb575b505050811b018355620000cc565b015160001983881b60f8161c19169055388080620002ad565b8385015186558c979095019493840193016200029a565b90915085600052886000208580850160051c8201928b861062000337575b918a91869594930160051c01915b82811062000327575050620000a3565b600081558594508a910162000317565b9250819262000309565b634e487b7160e01b600052602260045260246000fd5b93607f16936200008c565b600080fd5b6040519190601f01601f191682016001600160401b038111838210176200026257604052565b919080601f84011215620003625782516001600160401b0381116200026257602090620003c3601f8201601f1916830162000367565b92818452828287010111620003625760005b818110620003eb57508260009394955001015290565b8581018301518482018401528201620003d556fe6080604081815260048036101561001557600080fd5b600092833560e01c90816306fdde03146107ae57508063095ea7b31461078457806318160ddd1461076557806323b872dd1461069b578063313ce5671461067f578063395093511461062f57806340c10f19146105ff57806370a08231146105c8578063715018a61461056b5780638da5cb5b1461054257806395d89b411461043c578063a457c2d714610395578063a9059cbb14610364578063b119490e146101ee578063dd62ed3e146101a15763f2fde38b146100d357600080fd5b3461019d57602036600319011261019d576100ec6108e9565b906100f5610c3c565b6001600160a01b0391821692831561014b575050600554826bffffffffffffffffffffffff60a01b821617600555167f8be0079c531659141344cd1fd0a4f28419497f9722a3daafe3b4186f6b6457e08380a380f35b906020608492519162461bcd60e51b8352820152602660248201527f4f776e61626c653a206e6577206f776e657220697320746865207a65726f206160448201526564647265737360d01b6064820152fd5b8280fd5b5050346101ea57806003193601126101ea57806020926101bf6108e9565b6101c7610904565b6001600160a01b0391821683526001865283832091168252845220549051908152f35b5080fd5b503461019d57606036600319011261019d5767ffffffffffffffff81358181116103605761021f9036908401610952565b5060243590811161035c576102379036908301610952565b5060055460ff8160a81c16159182809361034c575b8015610332575b156102d8575060ff60a01b198116600160a01b17600555816102c0575b5061027d60443533610c94565b610285575080f35b6005805460ff60a81b1916905551600181527f7f26b83ff96e1f2b6a682f133852f6798a09c465da95921460cefb384740249890602090a180f35b61ffff60a01b191661010160a01b1760055538610270565b608490602085519162461bcd60e51b8352820152602e60248201527f496e697469616c697a61626c653a20636f6e747261637420697320616c72656160448201526d191e481a5b9a5d1a585b1a5e995960921b6064820152fd5b50303b1580156102535750600160ff8360a01c1614610253565b50600160ff8360a01c161061024c565b8380fd5b8480fd5b5050346101ea57806003193601126101ea5760209061038e6103846108e9565b6024359033610ace565b5160018152f35b5082346104395782600319360112610439576103af6108e9565b918360243592338152600160205281812060018060a01b03861682526020522054908282106103e85760208561038e85850387336109cc565b608490602086519162461bcd60e51b8352820152602560248201527f45524332303a2064656372656173656420616c6c6f77616e63652062656c6f77604482015264207a65726f60d81b6064820152fd5b80fd5b509190346101ea57816003193601126101ea5780519180938054916001908360011c9260018516948515610538575b60209586861081146105255785895290811561050157506001146104a9575b6104a5878761049b828c038361091a565b51918291826108a0565b0390f35b81529295507f8a35acfbc15ff81a39ae7d344fd709f28e8600b4aa8c65c6b64bfe7fe36bd19b5b8284106104ee57505050826104a59461049b9282010194388061048a565b80548685018801529286019281016104d0565b60ff19168887015250505050151560051b830101925061049b826104a5388061048a565b634e487b7160e01b845260228352602484fd5b93607f169361046b565b5050346101ea57816003193601126101ea5760055490516001600160a01b039091168152602090f35b8334610439578060031936011261043957610584610c3c565b600580546001600160a01b0319811690915581906001600160a01b03167f8be0079c531659141344cd1fd0a4f28419497f9722a3daafe3b4186f6b6457e08280a380f35b5050346101ea5760203660031901126101ea5760209181906001600160a01b036105f06108e9565b16815280845220549051908152f35b5050346101ea573660031901126104395761062c61061b6108e9565b610623610c3c565b60243590610c94565b80f35b5050346101ea57806003193601126101ea5761038e6020926106786106526108e9565b338352600186528483206001600160a01b038216845286529184902054602435906109a9565b90336109cc565b5050346101ea57816003193601126101ea576020905160128152f35b508290346101ea5760603660031901126101ea576106b76108e9565b6106bf610904565b91846044359460018060a01b0384168152600160205281812033825260205220549060001982036106f9575b60208661038e878787610ace565b84821061072257509183916107176020969561038e950333836109cc565b9193948193506106eb565b606490602087519162461bcd60e51b8352820152601d60248201527f45524332303a20696e73756666696369656e7420616c6c6f77616e63650000006044820152fd5b5050346101ea57816003193601126101ea576020906002549051908152f35b5050346101ea57806003193601126101ea5760209061038e6107a46108e9565b60243590336109cc565b929190503461035c578360031936011261035c57600354600181811c9186908281168015610896575b602095868610821461088357508488529081156108615750600114610808575b6104a5868661049b828b038361091a565b929550600383527fc2575a0e9e593c00f959f8c92f12db2869c3395a3b0502d05e2516446f71f85b5b82841061084e57505050826104a59461049b9282010194386107f7565b8054868501880152928601928101610831565b60ff191687860152505050151560051b830101925061049b826104a5386107f7565b634e487b7160e01b845260229052602483fd5b93607f16936107d7565b6020808252825181830181905290939260005b8281106108d557505060409293506000838284010152601f8019910116010190565b8181018601518482016040015285016108b3565b600435906001600160a01b03821682036108ff57565b600080fd5b602435906001600160a01b03821682036108ff57565b90601f8019910116810190811067ffffffffffffffff82111761093c57604052565b634e487b7160e01b600052604160045260246000fd5b81601f820112156108ff5780359067ffffffffffffffff821161093c5760405192610987601f8401601f19166020018561091a565b828452602083830101116108ff57816000926020809301838601378301015290565b919082018092116109b657565b634e487b7160e01b600052601160045260246000fd5b6001600160a01b03908116918215610a7d5716918215610a2d5760207f8c5be1e5ebec7d5bd14f71427d1e84f3dd0314c0f7b2291e5b200ac8c7c3b925918360005260018252604060002085600052825280604060002055604051908152a3565b60405162461bcd60e51b815260206004820152602260248201527f45524332303a20617070726f766520746f20746865207a65726f206164647265604482015261737360f01b6064820152608490fd5b60405162461bcd60e51b8152602060048201526024808201527f45524332303a20617070726f76652066726f6d20746865207a65726f206164646044820152637265737360e01b6064820152608490fd5b6001600160a01b03908116918215610be95716918215610b9857600082815280602052604081205491808310610b4457604082827fddf252ad1be2c89b69c2b068fc378daa952ba7f163c4a11628f55a4df523b3ef958760209652828652038282205586815220818154019055604051908152a3565b60405162461bcd60e51b815260206004820152602660248201527f45524332303a207472616e7366657220616d6f756e7420657863656564732062604482015265616c616e636560d01b6064820152608490fd5b60405162461bcd60e51b815260206004820152602360248201527f45524332303a207472616e7366657220746f20746865207a65726f206164647260448201526265737360e81b6064820152608490fd5b60405162461bcd60e51b815260206004820152602560248201527f45524332303a207472616e736665722066726f6d20746865207a65726f206164604482015264647265737360d81b6064820152608490fd5b6005546001600160a01b03163303610c5057565b606460405162461bcd60e51b815260206004820152602060248201527f4f776e61626c653a2063616c6c6572206973206e6f7420746865206f776e65726044820152fd5b6001600160a01b0316908115610cf2577fddf252ad1be2c89b69c2b068fc378daa952ba7f163c4a11628f55a4df523b3ef602082610cd66000946002546109a9565b60025584845283825260408420818154019055604051908152a3565b60405162461bcd60e51b815260206004820152601f60248201527f45524332303a206d696e7420746f20746865207a65726f2061646472657373006044820152606490fdfea2646970667358221220dce378a3815ba87016176626f641d356daa9fdf3b00bea366a5c8204bb40850264736f6c63430008160033","opcodes":"PUSH1 0x80 PUSH1 0x40 SWAP1 DUP1 DUP3 MSTORE CALLVALUE PUSH2 0xE3 JUMPI PUSH2 0x116D DUP2 DUP2 ADD SWAP2 PUSH1 0x1 PUSH1 0x1 PUSH1 0x40 SHL SUB SWAP2 DUP3 DUP5 GT DUP3 DUP6 LT OR PUSH2 0xCD JUMPI PUSH2 0x13FB DUP3 CODECOPY PUSH1 0x60 DUP4 MSTORE PUSH1 0xA0 DUP2 PUSH1 0x0 SWAP5 DUP6 PUSH1 0x60 DUP3 ADD MSTORE PUSH1 0x80 PUSH1 0x20 DUP3 ADD MSTORE DUP6 PUSH1 0x80 DUP3 ADD MSTORE DUP6 DUP8 DUP3 ADD MSTORE SUB ADD SWAP1 DUP4 CREATE DUP1 ISZERO PUSH2 0xAF JUMPI DUP4 MLOAD PUSH1 0x1 PUSH1 0x1 PUSH1 0xA0 SHL SUB SWAP3 SWAP1 SWAP2 PUSH2 0xFFC DUP1 DUP5 ADD SWAP3 DUP4 GT DUP5 DUP5 LT OR PUSH2 0xB9 JUMPI SWAP2 DUP5 DUP5 SWAP3 PUSH1 0x20 SWAP5 PUSH2 0x3FF DUP6 CODECOPY AND DUP2 MSTORE SUB ADD SWAP1 DUP4 CREATE DUP1 ISZERO PUSH2 0xAF JUMPI DUP3 SLOAD PUSH1 0x1 PUSH1 0x1 PUSH1 0xA0 SHL SUB NOT AND SWAP2 AND OR SWAP1 SSTORE MLOAD PUSH2 0x316 SWAP1 DUP2 PUSH2 0xE9 DUP3 CODECOPY RETURN JUMPDEST DUP4 MLOAD RETURNDATASIZE DUP5 DUP3 RETURNDATACOPY RETURNDATASIZE SWAP1 REVERT JUMPDEST PUSH4 0x4E487B71 PUSH1 0xE0 SHL DUP7 MSTORE PUSH1 0x41 PUSH1 0x4 MSTORE PUSH1 0x24 DUP7 REVERT JUMPDEST PUSH4 0x4E487B71 PUSH1 0xE0 SHL PUSH1 0x0 MSTORE PUSH1 0x41 PUSH1 0x4 MSTORE PUSH1 0x24 PUSH1 0x0 REVERT JUMPDEST PUSH1 0x0 DUP1 REVERT INVALID PUSH1 0x40 PUSH1 0x80 DUP2 MSTORE PUSH1 0x4 CALLDATASIZE LT ISZERO PUSH2 0x13 JUMPI PUSH1 0x0 DUP1 REVERT JUMPDEST PUSH1 0x0 SWAP1 DUP2 CALLDATALOAD PUSH1 0xE0 SHR DUP1 PUSH4 0x5B060530 EQ PUSH2 0x5F JUMPI PUSH4 0xCCF5A77C EQ PUSH2 0x35 JUMPI PUSH1 0x0 DUP1 REVERT JUMPDEST CALLVALUE PUSH2 0x5B JUMPI DUP2 PUSH1 0x3 NOT CALLDATASIZE ADD SLT PUSH2 0x5B JUMPI SWAP1 SLOAD SWAP1 MLOAD PUSH1 0x1 PUSH1 0x1 PUSH1 0xA0 SHL SUB SWAP1 SWAP2 AND DUP2 MSTORE PUSH1 0x20 SWAP1 RETURN JUMPDEST POP DUP1 REVERT JUMPDEST POP SWAP1 CALLVALUE PUSH2 0x1F2 JUMPI PUSH1 0x60 CALLDATASIZE PUSH1 0x3 NOT ADD SLT PUSH2 0x1F2 JUMPI PUSH8 0xFFFFFFFFFFFFFFFF SWAP2 PUSH1 0x4 CALLDATALOAD DUP4 DUP2 GT PUSH2 0x208 JUMPI PUSH2 0x94 SWAP1 CALLDATASIZE SWAP1 PUSH1 0x4 ADD PUSH2 0x244 JUMP JUMPDEST SWAP3 PUSH1 0x24 CALLDATALOAD SWAP1 DUP2 GT PUSH2 0x208 JUMPI PUSH2 0xAD SWAP1 CALLDATASIZE SWAP1 PUSH1 0x4 ADD PUSH2 0x244 JUMP JUMPDEST DUP2 MLOAD PUSH1 0x20 SWAP4 PUSH4 0x588CA487 PUSH1 0xE1 SHL DUP6 DUP4 ADD MSTORE PUSH1 0x60 PUSH1 0x24 DUP4 ADD MSTORE PUSH2 0x101 DUP3 PUSH2 0xEB PUSH2 0xD9 PUSH1 0x84 DUP4 ADD DUP11 PUSH2 0x2A0 JUMP JUMPDEST DUP3 DUP2 SUB PUSH1 0x23 NOT ADD PUSH1 0x44 DUP5 ADD MSTORE DUP7 PUSH2 0x2A0 JUMP JUMPDEST PUSH1 0x44 CALLDATALOAD PUSH1 0x64 DUP4 ADD MSTORE SUB PUSH1 0x1F NOT DUP2 ADD DUP5 MSTORE DUP4 PUSH2 0x20C JUMP JUMPDEST DUP1 DUP6 PUSH2 0x135 PUSH1 0x1 DUP1 PUSH1 0xA0 SHL SUB SWAP5 DUP6 DUP5 SLOAD AND SWAP1 DUP9 MLOAD SWAP6 DUP7 DUP1 SWAP5 DUP2 SWAP4 PUSH4 0x8F295D59 PUSH1 0xE0 SHL DUP4 MSTORE DUP8 PUSH1 0x4 DUP5 ADD MSTORE PUSH1 0x24 DUP4 ADD SWAP1 PUSH2 0x2A0 JUMP JUMPDEST SUB SWAP3 GAS CALL SWAP2 DUP3 ISZERO PUSH2 0x1FC JUMPI DUP2 SWAP3 PUSH2 0x19F JUMPI JUMPDEST POP POP PUSH2 0x196 SWAP5 SWAP6 PUSH32 0xFFC04F682C7B287E4B552DACD4B833D7C33DC0549CD6DA84388408E4830C0562 SWAP3 PUSH2 0x189 SWAP3 AND SWAP6 DUP7 SWAP5 DUP7 MLOAD SWAP4 DUP5 SWAP4 DUP9 DUP6 MSTORE DUP9 DUP6 ADD SWAP1 PUSH2 0x2A0 JUMP JUMPDEST SWAP1 DUP4 DUP3 SUB DUP11 DUP6 ADD MSTORE PUSH2 0x2A0 JUMP JUMPDEST SUB SWAP1 LOG2 MLOAD SWAP1 DUP2 MSTORE RETURN JUMPDEST SWAP1 SWAP2 POP DUP6 DUP2 DUP2 RETURNDATASIZE DUP4 GT PUSH2 0x1F5 JUMPI JUMPDEST PUSH2 0x1B7 DUP2 DUP4 PUSH2 0x20C JUMP JUMPDEST DUP2 ADD SUB SLT PUSH2 0x5B JUMPI MLOAD SWAP1 DUP3 DUP3 AND DUP3 SUB PUSH2 0x1F2 JUMPI POP DUP6 PUSH32 0xFFC04F682C7B287E4B552DACD4B833D7C33DC0549CD6DA84388408E4830C0562 PUSH2 0x147 JUMP JUMPDEST DUP1 REVERT JUMPDEST POP RETURNDATASIZE PUSH2 0x1AD JUMP JUMPDEST POP DUP5 MLOAD SWAP1 RETURNDATASIZE SWAP1 DUP3 RETURNDATACOPY RETURNDATASIZE SWAP1 REVERT JUMPDEST DUP3 DUP1 REVERT JUMPDEST SWAP1 PUSH1 0x1F DUP1 NOT SWAP2 ADD AND DUP2 ADD SWAP1 DUP2 LT PUSH8 0xFFFFFFFFFFFFFFFF DUP3 GT OR PUSH2 0x22E JUMPI PUSH1 0x40 MSTORE JUMP JUMPDEST PUSH4 0x4E487B71 PUSH1 0xE0 SHL PUSH1 0x0 MSTORE PUSH1 0x41 PUSH1 0x4 MSTORE PUSH1 0x24 PUSH1 0x0 REVERT JUMPDEST DUP2 PUSH1 0x1F DUP3 ADD SLT ISZERO PUSH2 0x29B JUMPI DUP1 CALLDATALOAD SWAP1 PUSH8 0xFFFFFFFFFFFFFFFF DUP3 GT PUSH2 0x22E JUMPI PUSH1 0x40 MLOAD SWAP3 PUSH2 0x279 PUSH1 0x1F DUP5 ADD PUSH1 0x1F NOT AND PUSH1 0x20 ADD DUP6 PUSH2 0x20C JUMP JUMPDEST DUP3 DUP5 MSTORE PUSH1 0x20 DUP4 DUP4 ADD ADD GT PUSH2 0x29B JUMPI DUP2 PUSH1 0x0 SWAP3 PUSH1 0x20 DUP1 SWAP4 ADD DUP4 DUP7 ADD CALLDATACOPY DUP4 ADD ADD MSTORE SWAP1 JUMP JUMPDEST PUSH1 0x0 DUP1 REVERT JUMPDEST SWAP2 SWAP1 DUP3 MLOAD SWAP3 DUP4 DUP3 MSTORE PUSH1 0x0 JUMPDEST DUP5 DUP2 LT PUSH2 0x2CC JUMPI POP POP DUP3 PUSH1 0x0 PUSH1 0x20 DUP1 SWAP5 SWAP6 DUP5 ADD ADD MSTORE PUSH1 0x1F DUP1 NOT SWAP2 ADD AND ADD ADD SWAP1 JUMP JUMPDEST PUSH1 0x20 DUP2 DUP4 ADD DUP2 ADD MLOAD DUP5 DUP4 ADD DUP3 ADD MSTORE ADD PUSH2 0x2AB JUMP INVALID LOG2 PUSH5 0x6970667358 0x22 SLT KECCAK256 DIV SUB SWAP1 0xAE CALLCODE PUSH18 0x7895417A3B12798BD00016E7AB3E2FF3FAC LOG4 0x4A SWAP5 DUP11 0xB1 0xFB SWAP2 0xDE PUSH5 0x736F6C6343 STOP ADDMOD AND STOP CALLER PUSH1 0x80 CALLVALUE PUSH2 0x164 JUMPI PUSH1 0x1F PUSH2 0xFFC CODESIZE DUP2 SWAP1 SUB SWAP2 DUP3 ADD PUSH1 0x1F NOT AND DUP4 ADD SWAP3 PUSH1 0x1 PUSH1 0x1 PUSH1 0x40 SHL SUB SWAP3 SWAP1 SWAP2 DUP4 DUP6 GT DUP4 DUP7 LT OR PUSH2 0x169 JUMPI DUP2 PUSH1 0x20 SWAP3 DUP5 SWAP3 PUSH1 0x40 SWAP8 DUP9 MSTORE DUP4 CODECOPY DUP2 ADD SUB SLT PUSH2 0x164 JUMPI MLOAD PUSH1 0x1 PUSH1 0x1 PUSH1 0xA0 SHL SUB SWAP2 SWAP1 DUP3 DUP2 AND SWAP1 DUP2 SWAP1 SUB PUSH2 0x164 JUMPI PUSH1 0x0 DUP1 SLOAD PUSH1 0x1 PUSH1 0x1 PUSH1 0xA0 SHL SUB NOT DUP1 DUP3 AND CALLER SWAP1 DUP2 OR DUP5 SSTORE DUP8 MLOAD SWAP4 SWAP7 SWAP2 SWAP5 SWAP2 SWAP4 SWAP3 DUP5 AND PUSH32 0x8BE0079C531659141344CD1FD0A4F28419497F9722A3DAAFE3B4186F6B6457E0 DUP9 DUP1 LOG3 PUSH2 0x45A SWAP1 DUP2 DUP4 ADD SWAP2 DUP4 DUP4 LT DUP8 DUP5 GT OR PUSH2 0x150 JUMPI SWAP2 DUP4 SWAP2 PUSH1 0x20 SWAP4 PUSH2 0xBA2 DUP5 CODECOPY DUP2 MSTORE SUB ADD SWAP1 DUP6 CREATE DUP1 ISZERO PUSH2 0x146 JUMPI AND DUP1 SWAP2 PUSH1 0x1 SLOAD AND OR PUSH1 0x1 SSTORE DUP1 EXTCODESIZE ISZERO PUSH2 0x142 JUMPI SWAP1 DUP3 DUP1 SWAP3 PUSH1 0x24 DUP7 MLOAD DUP1 SWAP7 DUP2 SWAP4 PUSH4 0xF2FDE38B PUSH1 0xE0 SHL DUP4 MSTORE CALLER PUSH1 0x4 DUP5 ADD MSTORE GAS CALL DUP1 ISZERO PUSH2 0x138 JUMPI PUSH2 0x113 JUMPI JUMPDEST DUP4 MLOAD PUSH2 0xA22 SWAP1 DUP2 PUSH2 0x180 DUP3 CODECOPY RETURN JUMPDEST DUP3 GT PUSH2 0x124 JUMPI POP DUP2 MSTORE CODESIZE DUP1 DUP1 PUSH2 0x105 JUMP JUMPDEST PUSH4 0x4E487B71 PUSH1 0xE0 SHL DUP2 MSTORE PUSH1 0x41 PUSH1 0x4 MSTORE PUSH1 0x24 SWAP1 REVERT JUMPDEST DUP5 MLOAD RETURNDATASIZE DUP5 DUP3 RETURNDATACOPY RETURNDATASIZE SWAP1 REVERT JUMPDEST DUP3 DUP1 REVERT JUMPDEST DUP6 MLOAD RETURNDATASIZE DUP7 DUP3 RETURNDATACOPY RETURNDATASIZE SWAP1 REVERT JUMPDEST PUSH4 0x4E487B71 PUSH1 0xE0 SHL DUP9 MSTORE PUSH1 0x41 PUSH1 0x4 MSTORE PUSH1 0x24 DUP9 REVERT JUMPDEST PUSH1 0x0 DUP1 REVERT JUMPDEST PUSH4 0x4E487B71 PUSH1 0xE0 SHL PUSH1 0x0 MSTORE PUSH1 0x41 PUSH1 0x4 MSTORE PUSH1 0x24 PUSH1 0x0 REVERT INVALID PUSH1 0x80 PUSH1 0x40 DUP2 DUP2 MSTORE PUSH1 0x4 SWAP1 DUP2 CALLDATASIZE LT ISZERO PUSH2 0x16 JUMPI PUSH1 0x0 DUP1 REVERT JUMPDEST PUSH1 0x0 SWAP3 DUP4 CALLDATALOAD PUSH1 0xE0 SHR SWAP1 DUP2 PUSH4 0x59659E90 EQ PUSH2 0x2FD JUMPI POP DUP1 PUSH4 0x715018A6 EQ PUSH2 0x2A0 JUMPI DUP1 PUSH4 0x8DA5CB5B EQ PUSH2 0x278 JUMPI DUP1 PUSH4 0x8F295D59 EQ PUSH2 0x127 JUMPI PUSH4 0xF2FDE38B EQ PUSH2 0x5B JUMPI PUSH1 0x0 DUP1 REVERT JUMPDEST CALLVALUE PUSH2 0x123 JUMPI PUSH1 0x20 CALLDATASIZE PUSH1 0x3 NOT ADD SLT PUSH2 0x123 JUMPI PUSH1 0x1 PUSH1 0x1 PUSH1 0xA0 SHL SUB DUP3 CALLDATALOAD DUP2 DUP2 AND SWAP4 SWAP2 SWAP3 SWAP1 DUP5 SWAP1 SUB PUSH2 0x11F JUMPI PUSH2 0x8C PUSH2 0x322 JUMP JUMPDEST DUP4 ISZERO PUSH2 0xCD JUMPI POP POP DUP3 SLOAD PUSH1 0x1 PUSH1 0x1 PUSH1 0xA0 SHL SUB NOT DUP2 AND DUP4 OR DUP5 SSTORE AND PUSH32 0x8BE0079C531659141344CD1FD0A4F28419497F9722A3DAAFE3B4186F6B6457E0 DUP4 DUP1 LOG3 DUP1 RETURN JUMPDEST SWAP1 PUSH1 0x20 PUSH1 0x84 SWAP3 MLOAD SWAP2 PUSH3 0x461BCD PUSH1 0xE5 SHL DUP4 MSTORE DUP3 ADD MSTORE PUSH1 0x26 PUSH1 0x24 DUP3 ADD MSTORE PUSH32 0x4F776E61626C653A206E6577206F776E657220697320746865207A65726F2061 PUSH1 0x44 DUP3 ADD MSTORE PUSH6 0x646472657373 PUSH1 0xD0 SHL PUSH1 0x64 DUP3 ADD MSTORE REVERT JUMPDEST DUP5 DUP1 REVERT JUMPDEST DUP3 DUP1 REVERT JUMPDEST POP SWAP2 SWAP1 CALLVALUE PUSH2 0x274 JUMPI PUSH1 0x20 SWAP3 DUP4 PUSH1 0x3 NOT CALLDATASIZE ADD SLT PUSH2 0x123 JUMPI DUP2 CALLDATALOAD SWAP2 PUSH8 0xFFFFFFFFFFFFFFFF DUP1 DUP5 GT PUSH2 0x11F JUMPI CALLDATASIZE PUSH1 0x23 DUP6 ADD SLT ISZERO PUSH2 0x11F JUMPI DUP4 DUP3 ADD CALLDATALOAD DUP2 DUP2 GT PUSH2 0x261 JUMPI PUSH1 0x1F NOT SWAP1 DUP5 MLOAD SWAP6 DUP3 PUSH1 0x3F DUP2 PUSH1 0x1F DUP6 ADD AND ADD AND DUP8 ADD DUP8 DUP2 LT DUP6 DUP3 GT OR PUSH2 0x24E JUMPI DUP7 MSTORE DUP2 DUP8 MSTORE CALLDATASIZE PUSH1 0x24 DUP4 DUP4 ADD ADD GT PUSH2 0x24A JUMPI DUP2 DUP9 SWAP3 PUSH1 0x24 DUP12 SWAP4 ADD DUP4 DUP11 ADD CALLDATACOPY DUP8 ADD ADD MSTORE PUSH1 0x1 DUP1 PUSH1 0xA0 SHL SUB SWAP5 DUP6 PUSH1 0x1 SLOAD AND DUP6 MLOAD SWAP5 PUSH2 0x672 SWAP1 DUP2 DUP8 ADD SWAP6 DUP8 DUP8 LT SWAP1 DUP8 GT OR PUSH2 0x237 JUMPI POP SWAP1 DUP6 SWAP4 SWAP3 SWAP2 PUSH2 0x37B DUP6 CODECOPY DUP5 MSTORE DUP6 DUP10 DUP6 ADD MSTORE DUP1 MLOAD SWAP1 DUP2 DUP8 DUP7 ADD MSTORE DUP10 DUP10 JUMPDEST DUP4 DUP2 LT PUSH2 0x220 JUMPI POP POP POP SWAP1 PUSH1 0x1F DUP3 DUP10 PUSH1 0x60 DUP8 SWAP6 DUP2 SWAP9 ADD ADD MSTORE ADD AND ADD SUB ADD SWAP1 DUP5 CREATE SWAP3 DUP4 ISZERO PUSH2 0x215 JUMPI POP MLOAD SWAP2 AND DUP2 MSTORE RETURN JUMPDEST SWAP1 MLOAD SWAP1 RETURNDATASIZE SWAP1 DUP3 RETURNDATACOPY RETURNDATASIZE SWAP1 REVERT JUMPDEST DUP1 DUP4 ADD DUP3 ADD MLOAD DUP8 DUP3 ADD PUSH1 0x60 ADD MSTORE DUP8 SWAP6 POP DUP2 ADD PUSH2 0x1E6 JUMP JUMPDEST PUSH4 0x4E487B71 PUSH1 0xE0 SHL DUP11 MSTORE PUSH1 0x41 SWAP1 MSTORE PUSH1 0x24 DUP10 REVERT JUMPDEST DUP8 DUP1 REVERT JUMPDEST PUSH4 0x4E487B71 PUSH1 0xE0 SHL DUP10 MSTORE PUSH1 0x41 DUP7 MSTORE PUSH1 0x24 DUP10 REVERT JUMPDEST PUSH4 0x4E487B71 PUSH1 0xE0 SHL DUP7 MSTORE PUSH1 0x41 DUP4 MSTORE PUSH1 0x24 DUP7 REVERT JUMPDEST POP DUP1 REVERT JUMPDEST DUP4 DUP3 CALLVALUE PUSH2 0x274 JUMPI DUP2 PUSH1 0x3 NOT CALLDATASIZE ADD SLT PUSH2 0x274 JUMPI SWAP1 SLOAD SWAP1 MLOAD PUSH1 0x1 PUSH1 0x1 PUSH1 0xA0 SHL SUB SWAP1 SWAP2 AND DUP2 MSTORE PUSH1 0x20 SWAP1 RETURN JUMPDEST DUP4 CALLVALUE PUSH2 0x2FA JUMPI DUP1 PUSH1 0x3 NOT CALLDATASIZE ADD SLT PUSH2 0x2FA JUMPI PUSH2 0x2B9 PUSH2 0x322 JUMP JUMPDEST DUP1 SLOAD PUSH1 0x1 PUSH1 0x1 PUSH1 0xA0 SHL SUB NOT DUP2 AND DUP3 SSTORE DUP2 SWAP1 PUSH1 0x1 PUSH1 0x1 PUSH1 0xA0 SHL SUB AND PUSH32 0x8BE0079C531659141344CD1FD0A4F28419497F9722A3DAAFE3B4186F6B6457E0 DUP3 DUP1 LOG3 DUP1 RETURN JUMPDEST DUP1 REVERT JUMPDEST DUP5 SWAP1 CALLVALUE PUSH2 0x274 JUMPI DUP2 PUSH1 0x3 NOT CALLDATASIZE ADD SLT PUSH2 0x274 JUMPI PUSH1 0x1 SLOAD PUSH1 0x1 PUSH1 0x1 PUSH1 0xA0 SHL SUB AND DUP2 MSTORE PUSH1 0x20 SWAP1 RETURN JUMPDEST PUSH1 0x0 SLOAD PUSH1 0x1 PUSH1 0x1 PUSH1 0xA0 SHL SUB AND CALLER SUB PUSH2 0x336 JUMPI JUMP JUMPDEST PUSH1 0x64 PUSH1 0x40 MLOAD PUSH3 0x461BCD PUSH1 0xE5 SHL DUP2 MSTORE PUSH1 0x20 PUSH1 0x4 DUP3 ADD MSTORE PUSH1 0x20 PUSH1 0x24 DUP3 ADD MSTORE PUSH32 0x4F776E61626C653A2063616C6C6572206973206E6F7420746865206F776E6572 PUSH1 0x44 DUP3 ADD MSTORE REVERT INVALID PUSH1 0x80 PUSH1 0x40 SWAP1 DUP1 DUP3 MSTORE PUSH2 0x672 DUP1 CODESIZE SUB DUP1 SWAP2 PUSH2 0x19 DUP3 DUP6 PUSH2 0x34D JUMP JUMPDEST DUP4 CODECOPY DUP2 ADD SWAP1 DUP3 DUP2 DUP4 SUB SLT PUSH2 0x23F JUMPI PUSH2 0x30 DUP2 PUSH2 0x370 JUMP JUMPDEST PUSH1 0x20 DUP3 DUP2 ADD MLOAD PUSH1 0x1 PUSH1 0x1 PUSH1 0x40 SHL SUB SWAP4 SWAP2 SWAP3 SWAP2 DUP5 DUP3 GT PUSH2 0x23F JUMPI ADD SWAP1 DUP5 PUSH1 0x1F DUP4 ADD SLT ISZERO PUSH2 0x23F JUMPI DUP2 MLOAD SWAP2 PUSH2 0x62 DUP4 PUSH2 0x384 JUMP JUMPDEST SWAP3 PUSH2 0x6F DUP9 MLOAD SWAP5 DUP6 PUSH2 0x34D JUMP JUMPDEST DUP1 DUP5 MSTORE DUP5 DUP5 ADD SWAP7 DUP6 DUP3 DUP5 ADD ADD GT PUSH2 0x23F JUMPI DUP7 DUP6 PUSH2 0x8C SWAP4 ADD PUSH2 0x39F JUMP JUMPDEST DUP1 EXTCODESIZE ISZERO PUSH2 0x2FB JUMPI DUP6 MLOAD PUSH4 0x5C60DA1B PUSH1 0xE0 SHL DUP1 DUP3 MSTORE SWAP3 SWAP2 PUSH1 0x1 PUSH1 0x1 PUSH1 0xA0 SHL SUB AND SWAP1 DUP5 DUP2 PUSH1 0x4 DUP2 DUP6 GAS STATICCALL SWAP1 DUP2 ISZERO PUSH2 0x2F0 JUMPI PUSH1 0x0 SWAP2 PUSH2 0x2BB JUMPI JUMPDEST POP EXTCODESIZE ISZERO PUSH2 0x25E JUMPI PUSH32 0xA3F0AD74E5423AEBFD80D3EF4346578335A9A72AEAEE59FF6CB3582B35133D50 DUP1 SLOAD PUSH1 0x1 PUSH1 0x1 PUSH1 0xA0 SHL SUB NOT AND DUP3 OR SWAP1 SSTORE DUP7 MLOAD SWAP3 DUP2 PUSH32 0x1CF3B03A6CF19FA2BABA4DF148E9DCABEDEA7F8A5C07840E207E5C089BE95D3E PUSH1 0x0 DUP1 LOG2 DUP3 MLOAD ISZERO DUP1 ISZERO SWAP1 PUSH2 0x256 JUMPI JUMPDEST PUSH2 0x142 JUMPI JUMPDEST DUP8 MLOAD PUSH2 0x1FC SWAP1 DUP2 PUSH2 0x476 DUP3 CODECOPY RETURN JUMPDEST PUSH1 0x4 DUP5 DUP7 SWAP4 DUP2 SWAP4 DUP3 MSTORE GAS STATICCALL SWAP2 DUP3 ISZERO PUSH2 0x24B JUMPI PUSH1 0x0 SWAP3 PUSH2 0x20F JUMPI JUMPDEST POP DUP6 MLOAD SWAP4 PUSH1 0x60 DUP6 ADD SWAP1 DUP2 GT DUP6 DUP3 LT OR PUSH2 0x1F9 JUMPI DUP7 MSTORE PUSH1 0x27 DUP5 MSTORE PUSH32 0x416464726573733A206C6F772D6C6576656C2064656C65676174652063616C6C DUP4 DUP6 ADD MSTORE PUSH7 0x819985A5B1959 PUSH1 0xCA SHL DUP5 DUP8 ADD MSTORE MLOAD PUSH2 0x1E3 SWAP5 PUSH1 0x0 SWAP2 DUP3 SWAP2 DUP5 GAS DELEGATECALL SWAP1 RETURNDATASIZE ISZERO PUSH2 0x1F0 JUMPI RETURNDATASIZE PUSH2 0x1C7 DUP2 PUSH2 0x384 JUMP JUMPDEST SWAP1 PUSH2 0x1D4 DUP9 MLOAD SWAP3 DUP4 PUSH2 0x34D JUMP JUMPDEST DUP2 MSTORE PUSH1 0x0 DUP2 SWAP5 RETURNDATASIZE SWAP3 ADD RETURNDATACOPY PUSH2 0x3C2 JUMP JUMPDEST POP CODESIZE DUP1 DUP1 DUP1 DUP1 DUP1 DUP1 PUSH2 0x134 JUMP JUMPDEST PUSH1 0x60 SWAP3 POP PUSH2 0x3C2 JUMP JUMPDEST PUSH4 0x4E487B71 PUSH1 0xE0 SHL PUSH1 0x0 MSTORE PUSH1 0x41 PUSH1 0x4 MSTORE PUSH1 0x24 PUSH1 0x0 REVERT JUMPDEST SWAP1 SWAP2 POP DUP3 DUP2 DUP2 RETURNDATASIZE DUP4 GT PUSH2 0x244 JUMPI JUMPDEST PUSH2 0x227 DUP2 DUP4 PUSH2 0x34D JUMP JUMPDEST DUP2 ADD SUB SLT PUSH2 0x23F JUMPI PUSH2 0x238 SWAP1 PUSH2 0x370 JUMP JUMPDEST SWAP1 CODESIZE PUSH2 0x15C JUMP JUMPDEST PUSH1 0x0 DUP1 REVERT JUMPDEST POP RETURNDATASIZE PUSH2 0x21D JUMP JUMPDEST DUP7 MLOAD RETURNDATASIZE PUSH1 0x0 DUP3 RETURNDATACOPY RETURNDATASIZE SWAP1 REVERT JUMPDEST POP PUSH1 0x0 PUSH2 0x12F JUMP JUMPDEST DUP7 MLOAD PUSH3 0x461BCD PUSH1 0xE5 SHL DUP2 MSTORE PUSH1 0x4 DUP2 ADD DUP6 SWAP1 MSTORE PUSH1 0x30 PUSH1 0x24 DUP3 ADD MSTORE PUSH32 0x455243313936373A20626561636F6E20696D706C656D656E746174696F6E2069 PUSH1 0x44 DUP3 ADD MSTORE PUSH16 0x1CC81B9BDD08184818DBDB9D1C9858DD PUSH1 0x82 SHL PUSH1 0x64 DUP3 ADD MSTORE PUSH1 0x84 SWAP1 REVERT JUMPDEST SWAP1 POP DUP5 DUP2 DUP2 RETURNDATASIZE DUP4 GT PUSH2 0x2E9 JUMPI JUMPDEST PUSH2 0x2D2 DUP2 DUP4 PUSH2 0x34D JUMP JUMPDEST DUP2 ADD SUB SLT PUSH2 0x23F JUMPI PUSH2 0x2E3 SWAP1 PUSH2 0x370 JUMP JUMPDEST CODESIZE PUSH2 0xC3 JUMP JUMPDEST POP RETURNDATASIZE PUSH2 0x2C8 JUMP JUMPDEST DUP9 MLOAD RETURNDATASIZE PUSH1 0x0 DUP3 RETURNDATACOPY RETURNDATASIZE SWAP1 REVERT JUMPDEST DUP6 MLOAD PUSH3 0x461BCD PUSH1 0xE5 SHL DUP2 MSTORE PUSH1 0x4 DUP2 ADD DUP5 SWAP1 MSTORE PUSH1 0x25 PUSH1 0x24 DUP3 ADD MSTORE PUSH32 0x455243313936373A206E657720626561636F6E206973206E6F74206120636F6E PUSH1 0x44 DUP3 ADD MSTORE PUSH5 0x1D1C9858DD PUSH1 0xDA SHL PUSH1 0x64 DUP3 ADD MSTORE PUSH1 0x84 SWAP1 REVERT JUMPDEST PUSH1 0x1F SWAP1 SWAP2 ADD PUSH1 0x1F NOT AND DUP2 ADD SWAP1 PUSH1 0x1 PUSH1 0x1 PUSH1 0x40 SHL SUB DUP3 GT SWAP1 DUP3 LT OR PUSH2 0x1F9 JUMPI PUSH1 0x40 MSTORE JUMP JUMPDEST MLOAD SWAP1 PUSH1 0x1 PUSH1 0x1 PUSH1 0xA0 SHL SUB DUP3 AND DUP3 SUB PUSH2 0x23F JUMPI JUMP JUMPDEST PUSH1 0x1 PUSH1 0x1 PUSH1 0x40 SHL SUB DUP2 GT PUSH2 0x1F9 JUMPI PUSH1 0x1F ADD PUSH1 0x1F NOT AND PUSH1 0x20 ADD SWAP1 JUMP JUMPDEST PUSH1 0x0 JUMPDEST DUP4 DUP2 LT PUSH2 0x3B2 JUMPI POP POP PUSH1 0x0 SWAP2 ADD MSTORE JUMP JUMPDEST DUP2 DUP2 ADD MLOAD DUP4 DUP3 ADD MSTORE PUSH1 0x20 ADD PUSH2 0x3A2 JUMP JUMPDEST SWAP2 SWAP3 SWAP1 ISZERO PUSH2 0x424 JUMPI POP DUP2 MLOAD ISZERO PUSH2 0x3D6 JUMPI POP SWAP1 JUMP JUMPDEST EXTCODESIZE ISZERO PUSH2 0x3DF JUMPI SWAP1 JUMP JUMPDEST PUSH1 0x40 MLOAD PUSH3 0x461BCD PUSH1 0xE5 SHL DUP2 MSTORE PUSH1 0x20 PUSH1 0x4 DUP3 ADD MSTORE PUSH1 0x1D PUSH1 0x24 DUP3 ADD MSTORE PUSH32 0x416464726573733A2063616C6C20746F206E6F6E2D636F6E7472616374000000 PUSH1 0x44 DUP3 ADD MSTORE PUSH1 0x64 SWAP1 REVERT JUMPDEST DUP3 MLOAD SWAP1 SWAP2 POP ISZERO PUSH2 0x437 JUMPI POP DUP1 MLOAD SWAP1 PUSH1 0x20 ADD REVERT JUMPDEST PUSH1 0x44 PUSH1 0x40 MLOAD DUP1 SWAP3 PUSH3 0x461BCD PUSH1 0xE5 SHL DUP3 MSTORE PUSH1 0x20 PUSH1 0x4 DUP4 ADD MSTORE PUSH2 0x467 DUP2 MLOAD DUP1 SWAP3 DUP2 PUSH1 0x24 DUP7 ADD MSTORE PUSH1 0x20 DUP7 DUP7 ADD SWAP2 ADD PUSH2 0x39F JUMP JUMPDEST PUSH1 0x1F ADD PUSH1 0x1F NOT AND DUP2 ADD SUB ADD SWAP1 REVERT INVALID PUSH1 0x80 DUP1 PUSH1 0x40 MSTORE CALLDATASIZE PUSH2 0xC7 JUMPI PUSH32 0xA3F0AD74E5423AEBFD80D3EF4346578335A9A72AEAEE59FF6CB3582B35133D50 SLOAD PUSH4 0x5C60DA1B PUSH1 0xE0 SHL DUP3 MSTORE PUSH1 0x20 SWAP1 DUP3 SWAP1 PUSH1 0x4 SWAP1 DUP3 SWAP1 PUSH1 0x1 PUSH1 0x1 PUSH1 0xA0 SHL SUB AND GAS STATICCALL SWAP1 DUP2 ISZERO PUSH2 0xBB JUMPI PUSH1 0x0 SWAP2 PUSH2 0x60 JUMPI JUMPDEST POP PUSH2 0x1A7 JUMP JUMPDEST SWAP1 POP PUSH1 0x20 RETURNDATASIZE PUSH1 0x20 GT PUSH2 0xB4 JUMPI JUMPDEST PUSH1 0x1F DUP2 ADD PUSH1 0x1F NOT AND DUP3 ADD SWAP2 PUSH8 0xFFFFFFFFFFFFFFFF DUP4 GT DUP2 DUP5 LT OR PUSH2 0x9E JUMPI PUSH2 0x98 SWAP3 PUSH1 0x40 MSTORE ADD PUSH2 0x161 JUMP JUMPDEST CODESIZE PUSH2 0x5A JUMP JUMPDEST PUSH4 0x4E487B71 PUSH1 0xE0 SHL PUSH1 0x0 MSTORE PUSH1 0x41 PUSH1 0x4 MSTORE PUSH1 0x24 PUSH1 0x0 REVERT JUMPDEST POP RETURNDATASIZE PUSH2 0x6D JUMP JUMPDEST PUSH1 0x40 MLOAD RETURNDATASIZE PUSH1 0x0 DUP3 RETURNDATACOPY RETURNDATASIZE SWAP1 REVERT JUMPDEST PUSH32 0xA3F0AD74E5423AEBFD80D3EF4346578335A9A72AEAEE59FF6CB3582B35133D50 SLOAD PUSH1 0x40 MLOAD PUSH4 0x5C60DA1B PUSH1 0xE0 SHL DUP2 MSTORE SWAP1 PUSH1 0x20 SWAP1 DUP3 SWAP1 PUSH1 0x4 SWAP1 DUP3 SWAP1 PUSH1 0x1 PUSH1 0x1 PUSH1 0xA0 SHL SUB AND GAS STATICCALL SWAP1 DUP2 ISZERO PUSH2 0xBB JUMPI PUSH1 0x0 SWAP2 PUSH2 0x120 JUMPI POP PUSH2 0x1A7 JUMP JUMPDEST PUSH1 0x20 SWAP2 POP RETURNDATASIZE DUP3 GT PUSH2 0x159 JUMPI JUMPDEST PUSH1 0x1F DUP3 ADD PUSH1 0x1F NOT AND DUP2 ADD SWAP2 PUSH8 0xFFFFFFFFFFFFFFFF DUP4 GT DUP3 DUP5 LT OR PUSH2 0x9E JUMPI PUSH2 0x98 SWAP3 PUSH1 0x40 MSTORE DUP2 ADD SWAP1 PUSH2 0x188 JUMP JUMPDEST RETURNDATASIZE SWAP2 POP PUSH2 0x12C JUMP JUMPDEST PUSH1 0x20 SWAP1 PUSH1 0x7F NOT ADD SLT PUSH2 0x183 JUMPI PUSH1 0x80 MLOAD PUSH1 0x1 PUSH1 0x1 PUSH1 0xA0 SHL SUB DUP2 AND DUP2 SUB PUSH2 0x183 JUMPI SWAP1 JUMP JUMPDEST PUSH1 0x0 DUP1 REVERT JUMPDEST SWAP1 DUP2 PUSH1 0x20 SWAP2 SUB SLT PUSH2 0x183 JUMPI MLOAD PUSH1 0x1 PUSH1 0x1 PUSH1 0xA0 SHL SUB DUP2 AND DUP2 SUB PUSH2 0x183 JUMPI SWAP1 JUMP JUMPDEST PUSH1 0x0 DUP1 DUP1 SWAP3 CALLDATASIZE DUP3 DUP1 CALLDATACOPY DUP2 CALLDATASIZE SWAP2 GAS DELEGATECALL RETURNDATASIZE DUP3 DUP1 RETURNDATACOPY ISZERO PUSH2 0x1C2 JUMPI RETURNDATASIZE SWAP1 RETURN JUMPDEST RETURNDATASIZE SWAP1 REVERT INVALID LOG2 PUSH5 0x6970667358 0x22 SLT KECCAK256 SLOAD CALL 0xB4 CHAINID EXTCODESIZE 0xCC 0xDC SDIV 0xC5 PUSH14 0xEEE162CA6730FF9D30EE0B3FC732 0xB7 LOG0 0xD6 0xA6 0xDA RETURNDATACOPY 0xA5 DUP6 PUSH5 0x736F6C6343 STOP ADDMOD AND STOP CALLER LOG2 PUSH5 0x6970667358 0x22 SLT KECCAK256 DUP6 PUSH30 0x8F61788B4135C506484A6FE3D3000ED962E7FC000683EEE8337CEDB82780 PUSH5 0x736F6C6343 STOP ADDMOD AND STOP CALLER PUSH1 0x80 CALLVALUE PUSH2 0x11A JUMPI PUSH1 0x1F PUSH2 0x45A CODESIZE DUP2 SWAP1 SUB SWAP2 DUP3 ADD PUSH1 0x1F NOT AND DUP4 ADD SWAP2 PUSH1 0x1 PUSH1 0x1 PUSH1 0x40 SHL SUB DUP4 GT DUP5 DUP5 LT OR PUSH2 0x11F JUMPI DUP1 DUP5 SWAP3 PUSH1 0x20 SWAP5 PUSH1 0x40 MSTORE DUP4 CODECOPY DUP2 ADD SUB SLT PUSH2 0x11A JUMPI MLOAD PUSH1 0x1 PUSH1 0x1 PUSH1 0xA0 SHL SUB DUP1 DUP3 AND SWAP2 SWAP1 DUP3 DUP3 SUB PUSH2 0x11A JUMPI PUSH1 0x0 SLOAD SWAP2 PUSH1 0x1 DUP1 PUSH1 0xA0 SHL SUB NOT SWAP3 CALLER DUP5 DUP3 AND OR PUSH1 0x0 SSTORE PUSH1 0x40 MLOAD SWAP3 CALLER SWAP2 AND PUSH32 0x8BE0079C531659141344CD1FD0A4F28419497F9722A3DAAFE3B4186F6B6457E0 PUSH1 0x0 DUP1 LOG3 EXTCODESIZE ISZERO PUSH2 0xB2 JUMPI POP PUSH1 0x1 SLOAD AND OR PUSH1 0x1 SSTORE PUSH1 0x40 MLOAD PUSH2 0x324 SWAP1 DUP2 PUSH2 0x136 DUP3 CODECOPY RETURN JUMPDEST PUSH3 0x461BCD PUSH1 0xE5 SHL DUP2 MSTORE PUSH1 0x20 PUSH1 0x4 DUP3 ADD MSTORE PUSH1 0x33 PUSH1 0x24 DUP3 ADD MSTORE PUSH32 0x5570677261646561626C65426561636F6E3A20696D706C656D656E746174696F PUSH1 0x44 DUP3 ADD MSTORE PUSH32 0x6E206973206E6F74206120636F6E747261637400000000000000000000000000 PUSH1 0x64 DUP3 ADD MSTORE PUSH1 0x84 SWAP1 REVERT JUMPDEST PUSH1 0x0 DUP1 REVERT JUMPDEST PUSH4 0x4E487B71 PUSH1 0xE0 SHL PUSH1 0x0 MSTORE PUSH1 0x41 PUSH1 0x4 MSTORE PUSH1 0x24 PUSH1 0x0 REVERT INVALID PUSH1 0x80 PUSH1 0x40 MSTORE PUSH1 0x4 CALLDATASIZE LT ISZERO PUSH2 0x12 JUMPI PUSH1 0x0 DUP1 REVERT JUMPDEST PUSH1 0x0 DUP1 CALLDATALOAD PUSH1 0xE0 SHR DUP1 PUSH4 0x3659CFE6 EQ PUSH2 0x1C7 JUMPI DUP1 PUSH4 0x5C60DA1B EQ PUSH2 0x19E JUMPI DUP1 PUSH4 0x715018A6 EQ PUSH2 0x144 JUMPI DUP1 PUSH4 0x8DA5CB5B EQ PUSH2 0x11D JUMPI PUSH4 0xF2FDE38B EQ PUSH2 0x54 JUMPI PUSH1 0x0 DUP1 REVERT JUMPDEST CALLVALUE PUSH2 0x11A JUMPI PUSH1 0x20 CALLDATASIZE PUSH1 0x3 NOT ADD SLT PUSH2 0x11A JUMPI PUSH1 0x4 CALLDATALOAD PUSH1 0x1 PUSH1 0x1 PUSH1 0xA0 SHL SUB DUP2 DUP2 AND SWAP2 DUP3 SWAP1 SUB PUSH2 0x116 JUMPI PUSH2 0x83 PUSH2 0x296 JUMP JUMPDEST DUP2 ISZERO PUSH2 0xC2 JUMPI DUP3 SLOAD PUSH1 0x1 PUSH1 0x1 PUSH1 0xA0 SHL SUB NOT DUP2 AND DUP4 OR DUP5 SSTORE AND PUSH32 0x8BE0079C531659141344CD1FD0A4F28419497F9722A3DAAFE3B4186F6B6457E0 DUP4 DUP1 LOG3 DUP1 RETURN JUMPDEST PUSH1 0x40 MLOAD PUSH3 0x461BCD PUSH1 0xE5 SHL DUP2 MSTORE PUSH1 0x20 PUSH1 0x4 DUP3 ADD MSTORE PUSH1 0x26 PUSH1 0x24 DUP3 ADD MSTORE PUSH32 0x4F776E61626C653A206E6577206F776E657220697320746865207A65726F2061 PUSH1 0x44 DUP3 ADD MSTORE PUSH6 0x646472657373 PUSH1 0xD0 SHL PUSH1 0x64 DUP3 ADD MSTORE PUSH1 0x84 SWAP1 REVERT JUMPDEST DUP3 DUP1 REVERT JUMPDEST DUP1 REVERT JUMPDEST POP CALLVALUE PUSH2 0x11A JUMPI DUP1 PUSH1 0x3 NOT CALLDATASIZE ADD SLT PUSH2 0x11A JUMPI SLOAD PUSH1 0x40 MLOAD PUSH1 0x1 PUSH1 0x1 PUSH1 0xA0 SHL SUB SWAP1 SWAP2 AND DUP2 MSTORE PUSH1 0x20 SWAP1 RETURN JUMPDEST POP CALLVALUE PUSH2 0x11A JUMPI DUP1 PUSH1 0x3 NOT CALLDATASIZE ADD SLT PUSH2 0x11A JUMPI PUSH2 0x15D PUSH2 0x296 JUMP JUMPDEST DUP1 SLOAD PUSH1 0x1 PUSH1 0x1 PUSH1 0xA0 SHL SUB NOT DUP2 AND DUP3 SSTORE DUP2 SWAP1 PUSH1 0x1 PUSH1 0x1 PUSH1 0xA0 SHL SUB AND PUSH32 0x8BE0079C531659141344CD1FD0A4F28419497F9722A3DAAFE3B4186F6B6457E0 DUP3 DUP1 LOG3 DUP1 RETURN JUMPDEST POP CALLVALUE PUSH2 0x11A JUMPI DUP1 PUSH1 0x3 NOT CALLDATASIZE ADD SLT PUSH2 0x11A JUMPI PUSH1 0x1 SLOAD PUSH1 0x40 MLOAD PUSH1 0x1 PUSH1 0x1 PUSH1 0xA0 SHL SUB SWAP1 SWAP2 AND DUP2 MSTORE PUSH1 0x20 SWAP1 RETURN JUMPDEST POP CALLVALUE PUSH2 0x11A JUMPI PUSH1 0x20 CALLDATASIZE PUSH1 0x3 NOT ADD SLT PUSH2 0x11A JUMPI PUSH1 0x4 CALLDATALOAD PUSH1 0x1 PUSH1 0x1 PUSH1 0xA0 SHL SUB DUP2 AND SWAP1 DUP2 DUP2 SUB PUSH2 0x116 JUMPI PUSH2 0x1F6 PUSH2 0x296 JUMP JUMPDEST EXTCODESIZE ISZERO PUSH2 0x235 JUMPI PUSH1 0x1 DUP1 SLOAD PUSH1 0x1 PUSH1 0x1 PUSH1 0xA0 SHL SUB NOT AND DUP3 OR SWAP1 SSTORE PUSH32 0xBC7CD75A20EE27FD9ADEBAB32041F755214DBC6BFFA90CC0225B39DA2E5C2D3B DUP3 DUP1 LOG2 DUP1 RETURN JUMPDEST PUSH1 0x40 MLOAD PUSH3 0x461BCD PUSH1 0xE5 SHL DUP2 MSTORE PUSH1 0x20 PUSH1 0x4 DUP3 ADD MSTORE PUSH1 0x33 PUSH1 0x24 DUP3 ADD MSTORE PUSH32 0x5570677261646561626C65426561636F6E3A20696D706C656D656E746174696F PUSH1 0x44 DUP3 ADD MSTORE PUSH19 0x1B881A5CC81B9BDD08184818DBDB9D1C9858DD PUSH1 0x6A SHL PUSH1 0x64 DUP3 ADD MSTORE PUSH1 0x84 SWAP1 REVERT JUMPDEST PUSH1 0x0 SLOAD PUSH1 0x1 PUSH1 0x1 PUSH1 0xA0 SHL SUB AND CALLER SUB PUSH2 0x2AA JUMPI JUMP JUMPDEST PUSH1 0x64 PUSH1 0x40 MLOAD PUSH3 0x461BCD PUSH1 0xE5 SHL DUP2 MSTORE PUSH1 0x20 PUSH1 0x4 DUP3 ADD MSTORE PUSH1 0x20 PUSH1 0x24 DUP3 ADD MSTORE PUSH32 0x4F776E61626C653A2063616C6C6572206973206E6F7420746865206F776E6572 PUSH1 0x44 DUP3 ADD MSTORE REVERT INVALID LOG2 PUSH5 0x6970667358 0x22 SLT KECCAK256 0xC1 PUSH27 0x697FA218AB66E1832A9CB889FEA738E8787D12399361A9390095DD DUP16 LOG1 DELEGATECALL PUSH5 0x736F6C6343 STOP ADDMOD AND STOP CALLER PUSH1 0x80 PUSH1 0x40 MSTORE CALLVALUE PUSH3 0x362 JUMPI PUSH3 0x116D DUP1 CODESIZE SUB DUP1 PUSH3 0x1D DUP2 PUSH3 0x367 JUMP JUMPDEST SWAP3 DUP4 CODECOPY DUP2 ADD SWAP1 PUSH1 0x60 DUP2 DUP4 SUB SLT PUSH3 0x362 JUMPI DUP1 MLOAD PUSH1 0x1 PUSH1 0x1 PUSH1 0x40 SHL SUB SWAP1 DUP2 DUP2 GT PUSH3 0x362 JUMPI DUP4 PUSH3 0x4F SWAP2 DUP5 ADD PUSH3 0x38D JUMP JUMPDEST SWAP2 PUSH1 0x20 SWAP4 DUP5 DUP3 ADD MLOAD DUP4 DUP2 GT PUSH3 0x362 JUMPI PUSH3 0x6B SWAP3 ADD PUSH3 0x38D JUMP JUMPDEST DUP3 MLOAD DUP3 DUP2 GT PUSH3 0x262 JUMPI PUSH1 0x3 SWAP2 DUP3 SLOAD SWAP2 PUSH1 0x1 SWAP6 DUP7 DUP5 DUP2 SHR SWAP5 AND DUP1 ISZERO PUSH3 0x357 JUMPI JUMPDEST DUP9 DUP6 LT EQ PUSH3 0x341 JUMPI DUP2 SWAP1 PUSH1 0x1F SWAP5 DUP6 DUP2 GT PUSH3 0x2EB JUMPI JUMPDEST POP DUP9 SWAP1 DUP6 DUP4 GT PUSH1 0x1 EQ PUSH3 0x284 JUMPI PUSH1 0x0 SWAP3 PUSH3 0x278 JUMPI JUMPDEST POP POP PUSH1 0x0 NOT DUP3 DUP7 SHL SHR NOT AND SWAP1 DUP7 SHL OR DUP4 SSTORE JUMPDEST DUP1 MLOAD SWAP4 DUP5 GT PUSH3 0x262 JUMPI PUSH1 0x4 SWAP6 DUP7 SLOAD DUP7 DUP2 DUP2 SHR SWAP2 AND DUP1 ISZERO PUSH3 0x257 JUMPI JUMPDEST DUP3 DUP3 LT EQ PUSH3 0x242 JUMPI DUP4 DUP2 GT PUSH3 0x1F7 JUMPI JUMPDEST POP DUP1 SWAP3 DUP6 GT PUSH1 0x1 EQ PUSH3 0x189 JUMPI POP SWAP4 DUP4 SWAP5 SWAP2 DUP5 SWAP3 PUSH1 0x0 SWAP6 PUSH3 0x17D JUMPI JUMPDEST POP POP SHL SWAP3 PUSH1 0x0 NOT SWAP2 SHL SHR NOT AND OR SWAP1 SSTORE JUMPDEST PUSH1 0x5 DUP1 SLOAD CALLER PUSH1 0x1 PUSH1 0x1 PUSH1 0xA0 SHL SUB NOT DUP3 AND DUP2 OR SWAP1 SWAP3 SSTORE PUSH1 0x40 MLOAD SWAP2 SWAP1 PUSH1 0x1 PUSH1 0x1 PUSH1 0xA0 SHL SUB AND PUSH32 0x8BE0079C531659141344CD1FD0A4F28419497F9722A3DAAFE3B4186F6B6457E0 PUSH1 0x0 DUP1 LOG3 PUSH2 0xD6D SWAP1 DUP2 PUSH3 0x400 DUP3 CODECOPY RETURN JUMPDEST ADD MLOAD SWAP4 POP CODESIZE DUP1 PUSH3 0x118 JUMP JUMPDEST SWAP3 SWAP2 SWAP1 DUP5 PUSH1 0x1F NOT DUP2 AND DUP9 PUSH1 0x0 MSTORE DUP6 PUSH1 0x0 KECCAK256 SWAP6 PUSH1 0x0 SWAP1 JUMPDEST DUP10 DUP4 DUP4 LT PUSH3 0x1DC JUMPI POP POP POP LT PUSH3 0x1C1 JUMPI JUMPDEST POP POP POP POP DUP2 SHL ADD SWAP1 SSTORE PUSH3 0x128 JUMP JUMPDEST ADD MLOAD SWAP1 PUSH1 0xF8 DUP5 PUSH1 0x0 NOT SWAP3 SHL AND SHR NOT AND SWAP1 SSTORE CODESIZE DUP1 DUP1 DUP1 PUSH3 0x1B2 JUMP JUMPDEST DUP6 DUP8 ADD MLOAD DUP10 SSTORE SWAP1 SWAP8 ADD SWAP7 SWAP5 DUP6 ADD SWAP5 DUP9 SWAP4 POP SWAP1 DUP2 ADD SWAP1 PUSH3 0x19F JUMP JUMPDEST DUP8 PUSH1 0x0 MSTORE DUP2 PUSH1 0x0 KECCAK256 DUP5 DUP1 DUP9 ADD PUSH1 0x5 SHR DUP3 ADD SWAP3 DUP5 DUP10 LT PUSH3 0x238 JUMPI JUMPDEST ADD PUSH1 0x5 SHR ADD SWAP1 DUP8 SWAP1 JUMPDEST DUP3 DUP2 LT PUSH3 0x22B JUMPI POP POP PUSH3 0xFB JUMP JUMPDEST PUSH1 0x0 DUP2 SSTORE ADD DUP8 SWAP1 PUSH3 0x21B JUMP JUMPDEST SWAP3 POP DUP2 SWAP3 PUSH3 0x212 JUMP JUMPDEST PUSH1 0x22 DUP9 PUSH4 0x4E487B71 PUSH1 0xE0 SHL PUSH1 0x0 MSTORE MSTORE PUSH1 0x24 PUSH1 0x0 REVERT JUMPDEST SWAP1 PUSH1 0x7F AND SWAP1 PUSH3 0xE9 JUMP JUMPDEST PUSH4 0x4E487B71 PUSH1 0xE0 SHL PUSH1 0x0 MSTORE PUSH1 0x41 PUSH1 0x4 MSTORE PUSH1 0x24 PUSH1 0x0 REVERT JUMPDEST ADD MLOAD SWAP1 POP CODESIZE DUP1 PUSH3 0xBA JUMP JUMPDEST SWAP1 DUP9 SWAP4 POP PUSH1 0x1F NOT DUP4 AND SWAP2 DUP8 PUSH1 0x0 MSTORE DUP11 PUSH1 0x0 KECCAK256 SWAP3 PUSH1 0x0 JUMPDEST DUP13 DUP3 DUP3 LT PUSH3 0x2D4 JUMPI POP POP DUP5 GT PUSH3 0x2BB JUMPI JUMPDEST POP POP POP DUP2 SHL ADD DUP4 SSTORE PUSH3 0xCC JUMP JUMPDEST ADD MLOAD PUSH1 0x0 NOT DUP4 DUP9 SHL PUSH1 0xF8 AND SHR NOT AND SWAP1 SSTORE CODESIZE DUP1 DUP1 PUSH3 0x2AD JUMP JUMPDEST DUP4 DUP6 ADD MLOAD DUP7 SSTORE DUP13 SWAP8 SWAP1 SWAP6 ADD SWAP5 SWAP4 DUP5 ADD SWAP4 ADD PUSH3 0x29A JUMP JUMPDEST SWAP1 SWAP2 POP DUP6 PUSH1 0x0 MSTORE DUP9 PUSH1 0x0 KECCAK256 DUP6 DUP1 DUP6 ADD PUSH1 0x5 SHR DUP3 ADD SWAP3 DUP12 DUP7 LT PUSH3 0x337 JUMPI JUMPDEST SWAP2 DUP11 SWAP2 DUP7 SWAP6 SWAP5 SWAP4 ADD PUSH1 0x5 SHR ADD SWAP2 JUMPDEST DUP3 DUP2 LT PUSH3 0x327 JUMPI POP POP PUSH3 0xA3 JUMP JUMPDEST PUSH1 0x0 DUP2 SSTORE DUP6 SWAP5 POP DUP11 SWAP2 ADD PUSH3 0x317 JUMP JUMPDEST SWAP3 POP DUP2 SWAP3 PUSH3 0x309 JUMP JUMPDEST PUSH4 0x4E487B71 PUSH1 0xE0 SHL PUSH1 0x0 MSTORE PUSH1 0x22 PUSH1 0x4 MSTORE PUSH1 0x24 PUSH1 0x0 REVERT JUMPDEST SWAP4 PUSH1 0x7F AND SWAP4 PUSH3 0x8C JUMP JUMPDEST PUSH1 0x0 DUP1 REVERT JUMPDEST PUSH1 0x40 MLOAD SWAP2 SWAP1 PUSH1 0x1F ADD PUSH1 0x1F NOT AND DUP3 ADD PUSH1 0x1 PUSH1 0x1 PUSH1 0x40 SHL SUB DUP2 GT DUP4 DUP3 LT OR PUSH3 0x262 JUMPI PUSH1 0x40 MSTORE JUMP JUMPDEST SWAP2 SWAP1 DUP1 PUSH1 0x1F DUP5 ADD SLT ISZERO PUSH3 0x362 JUMPI DUP3 MLOAD PUSH1 0x1 PUSH1 0x1 PUSH1 0x40 SHL SUB DUP2 GT PUSH3 0x262 JUMPI PUSH1 0x20 SWAP1 PUSH3 0x3C3 PUSH1 0x1F DUP3 ADD PUSH1 0x1F NOT AND DUP4 ADD PUSH3 0x367 JUMP JUMPDEST SWAP3 DUP2 DUP5 MSTORE DUP3 DUP3 DUP8 ADD ADD GT PUSH3 0x362 JUMPI PUSH1 0x0 JUMPDEST DUP2 DUP2 LT PUSH3 0x3EB JUMPI POP DUP3 PUSH1 0x0 SWAP4 SWAP5 SWAP6 POP ADD ADD MSTORE SWAP1 JUMP JUMPDEST DUP6 DUP2 ADD DUP4 ADD MLOAD DUP5 DUP3 ADD DUP5 ADD MSTORE DUP3 ADD PUSH3 0x3D5 JUMP INVALID PUSH1 0x80 PUSH1 0x40 DUP2 DUP2 MSTORE PUSH1 0x4 DUP1 CALLDATASIZE LT ISZERO PUSH2 0x15 JUMPI PUSH1 0x0 DUP1 REVERT JUMPDEST PUSH1 0x0 SWAP3 DUP4 CALLDATALOAD PUSH1 0xE0 SHR SWAP1 DUP2 PUSH4 0x6FDDE03 EQ PUSH2 0x7AE JUMPI POP DUP1 PUSH4 0x95EA7B3 EQ PUSH2 0x784 JUMPI DUP1 PUSH4 0x18160DDD EQ PUSH2 0x765 JUMPI DUP1 PUSH4 0x23B872DD EQ PUSH2 0x69B JUMPI DUP1 PUSH4 0x313CE567 EQ PUSH2 0x67F JUMPI DUP1 PUSH4 0x39509351 EQ PUSH2 0x62F JUMPI DUP1 PUSH4 0x40C10F19 EQ PUSH2 0x5FF JUMPI DUP1 PUSH4 0x70A08231 EQ PUSH2 0x5C8 JUMPI DUP1 PUSH4 0x715018A6 EQ PUSH2 0x56B JUMPI DUP1 PUSH4 0x8DA5CB5B EQ PUSH2 0x542 JUMPI DUP1 PUSH4 0x95D89B41 EQ PUSH2 0x43C JUMPI DUP1 PUSH4 0xA457C2D7 EQ PUSH2 0x395 JUMPI DUP1 PUSH4 0xA9059CBB EQ PUSH2 0x364 JUMPI DUP1 PUSH4 0xB119490E EQ PUSH2 0x1EE JUMPI DUP1 PUSH4 0xDD62ED3E EQ PUSH2 0x1A1 JUMPI PUSH4 0xF2FDE38B EQ PUSH2 0xD3 JUMPI PUSH1 0x0 DUP1 REVERT JUMPDEST CALLVALUE PUSH2 0x19D JUMPI PUSH1 0x20 CALLDATASIZE PUSH1 0x3 NOT ADD SLT PUSH2 0x19D JUMPI PUSH2 0xEC PUSH2 0x8E9 JUMP JUMPDEST SWAP1 PUSH2 0xF5 PUSH2 0xC3C JUMP JUMPDEST PUSH1 0x1 PUSH1 0x1 PUSH1 0xA0 SHL SUB SWAP2 DUP3 AND SWAP3 DUP4 ISZERO PUSH2 0x14B JUMPI POP POP PUSH1 0x5 SLOAD DUP3 PUSH12 0xFFFFFFFFFFFFFFFFFFFFFFFF PUSH1 0xA0 SHL DUP3 AND OR PUSH1 0x5 SSTORE AND PUSH32 0x8BE0079C531659141344CD1FD0A4F28419497F9722A3DAAFE3B4186F6B6457E0 DUP4 DUP1 LOG3 DUP1 RETURN JUMPDEST SWAP1 PUSH1 0x20 PUSH1 0x84 SWAP3 MLOAD SWAP2 PUSH3 0x461BCD PUSH1 0xE5 SHL DUP4 MSTORE DUP3 ADD MSTORE PUSH1 0x26 PUSH1 0x24 DUP3 ADD MSTORE PUSH32 0x4F776E61626C653A206E6577206F776E657220697320746865207A65726F2061 PUSH1 0x44 DUP3 ADD MSTORE PUSH6 0x646472657373 PUSH1 0xD0 SHL PUSH1 0x64 DUP3 ADD MSTORE REVERT JUMPDEST DUP3 DUP1 REVERT JUMPDEST POP POP CALLVALUE PUSH2 0x1EA JUMPI DUP1 PUSH1 0x3 NOT CALLDATASIZE ADD SLT PUSH2 0x1EA JUMPI DUP1 PUSH1 0x20 SWAP3 PUSH2 0x1BF PUSH2 0x8E9 JUMP JUMPDEST PUSH2 0x1C7 PUSH2 0x904 JUMP JUMPDEST PUSH1 0x1 PUSH1 0x1 PUSH1 0xA0 SHL SUB SWAP2 DUP3 AND DUP4 MSTORE PUSH1 0x1 DUP7 MSTORE DUP4 DUP4 KECCAK256 SWAP2 AND DUP3 MSTORE DUP5 MSTORE KECCAK256 SLOAD SWAP1 MLOAD SWAP1 DUP2 MSTORE RETURN JUMPDEST POP DUP1 REVERT JUMPDEST POP CALLVALUE PUSH2 0x19D JUMPI PUSH1 0x60 CALLDATASIZE PUSH1 0x3 NOT ADD SLT PUSH2 0x19D JUMPI PUSH8 0xFFFFFFFFFFFFFFFF DUP2 CALLDATALOAD DUP2 DUP2 GT PUSH2 0x360 JUMPI PUSH2 0x21F SWAP1 CALLDATASIZE SWAP1 DUP5 ADD PUSH2 0x952 JUMP JUMPDEST POP PUSH1 0x24 CALLDATALOAD SWAP1 DUP2 GT PUSH2 0x35C JUMPI PUSH2 0x237 SWAP1 CALLDATASIZE SWAP1 DUP4 ADD PUSH2 0x952 JUMP JUMPDEST POP PUSH1 0x5 SLOAD PUSH1 0xFF DUP2 PUSH1 0xA8 SHR AND ISZERO SWAP2 DUP3 DUP1 SWAP4 PUSH2 0x34C JUMPI JUMPDEST DUP1 ISZERO PUSH2 0x332 JUMPI JUMPDEST ISZERO PUSH2 0x2D8 JUMPI POP PUSH1 0xFF PUSH1 0xA0 SHL NOT DUP2 AND PUSH1 0x1 PUSH1 0xA0 SHL OR PUSH1 0x5 SSTORE DUP2 PUSH2 0x2C0 JUMPI JUMPDEST POP PUSH2 0x27D PUSH1 0x44 CALLDATALOAD CALLER PUSH2 0xC94 JUMP JUMPDEST PUSH2 0x285 JUMPI POP DUP1 RETURN JUMPDEST PUSH1 0x5 DUP1 SLOAD PUSH1 0xFF PUSH1 0xA8 SHL NOT AND SWAP1 SSTORE MLOAD PUSH1 0x1 DUP2 MSTORE PUSH32 0x7F26B83FF96E1F2B6A682F133852F6798A09C465DA95921460CEFB3847402498 SWAP1 PUSH1 0x20 SWAP1 LOG1 DUP1 RETURN JUMPDEST PUSH2 0xFFFF PUSH1 0xA0 SHL NOT AND PUSH2 0x101 PUSH1 0xA0 SHL OR PUSH1 0x5 SSTORE CODESIZE PUSH2 0x270 JUMP JUMPDEST PUSH1 0x84 SWAP1 PUSH1 0x20 DUP6 MLOAD SWAP2 PUSH3 0x461BCD PUSH1 0xE5 SHL DUP4 MSTORE DUP3 ADD MSTORE PUSH1 0x2E PUSH1 0x24 DUP3 ADD MSTORE PUSH32 0x496E697469616C697A61626C653A20636F6E747261637420697320616C726561 PUSH1 0x44 DUP3 ADD MSTORE PUSH14 0x191E481A5B9A5D1A585B1A5E9959 PUSH1 0x92 SHL PUSH1 0x64 DUP3 ADD MSTORE REVERT JUMPDEST POP ADDRESS EXTCODESIZE ISZERO DUP1 ISZERO PUSH2 0x253 JUMPI POP PUSH1 0x1 PUSH1 0xFF DUP4 PUSH1 0xA0 SHR AND EQ PUSH2 0x253 JUMP JUMPDEST POP PUSH1 0x1 PUSH1 0xFF DUP4 PUSH1 0xA0 SHR AND LT PUSH2 0x24C JUMP JUMPDEST DUP4 DUP1 REVERT JUMPDEST DUP5 DUP1 REVERT JUMPDEST POP POP CALLVALUE PUSH2 0x1EA JUMPI DUP1 PUSH1 0x3 NOT CALLDATASIZE ADD SLT PUSH2 0x1EA JUMPI PUSH1 0x20 SWAP1 PUSH2 0x38E PUSH2 0x384 PUSH2 0x8E9 JUMP JUMPDEST PUSH1 0x24 CALLDATALOAD SWAP1 CALLER PUSH2 0xACE JUMP JUMPDEST MLOAD PUSH1 0x1 DUP2 MSTORE RETURN JUMPDEST POP DUP3 CALLVALUE PUSH2 0x439 JUMPI DUP3 PUSH1 0x3 NOT CALLDATASIZE ADD SLT PUSH2 0x439 JUMPI PUSH2 0x3AF PUSH2 0x8E9 JUMP JUMPDEST SWAP2 DUP4 PUSH1 0x24 CALLDATALOAD SWAP3 CALLER DUP2 MSTORE PUSH1 0x1 PUSH1 0x20 MSTORE DUP2 DUP2 KECCAK256 PUSH1 0x1 DUP1 PUSH1 0xA0 SHL SUB DUP7 AND DUP3 MSTORE PUSH1 0x20 MSTORE KECCAK256 SLOAD SWAP1 DUP3 DUP3 LT PUSH2 0x3E8 JUMPI PUSH1 0x20 DUP6 PUSH2 0x38E DUP6 DUP6 SUB DUP8 CALLER PUSH2 0x9CC JUMP JUMPDEST PUSH1 0x84 SWAP1 PUSH1 0x20 DUP7 MLOAD SWAP2 PUSH3 0x461BCD PUSH1 0xE5 SHL DUP4 MSTORE DUP3 ADD MSTORE PUSH1 0x25 PUSH1 0x24 DUP3 ADD MSTORE PUSH32 0x45524332303A2064656372656173656420616C6C6F77616E63652062656C6F77 PUSH1 0x44 DUP3 ADD MSTORE PUSH5 0x207A65726F PUSH1 0xD8 SHL PUSH1 0x64 DUP3 ADD MSTORE REVERT JUMPDEST DUP1 REVERT JUMPDEST POP SWAP2 SWAP1 CALLVALUE PUSH2 0x1EA JUMPI DUP2 PUSH1 0x3 NOT CALLDATASIZE ADD SLT PUSH2 0x1EA JUMPI DUP1 MLOAD SWAP2 DUP1 SWAP4 DUP1 SLOAD SWAP2 PUSH1 0x1 SWAP1 DUP4 PUSH1 0x1 SHR SWAP3 PUSH1 0x1 DUP6 AND SWAP5 DUP6 ISZERO PUSH2 0x538 JUMPI JUMPDEST PUSH1 0x20 SWAP6 DUP7 DUP7 LT DUP2 EQ PUSH2 0x525 JUMPI DUP6 DUP10 MSTORE SWAP1 DUP2 ISZERO PUSH2 0x501 JUMPI POP PUSH1 0x1 EQ PUSH2 0x4A9 JUMPI JUMPDEST PUSH2 0x4A5 DUP8 DUP8 PUSH2 0x49B DUP3 DUP13 SUB DUP4 PUSH2 0x91A JUMP JUMPDEST MLOAD SWAP2 DUP3 SWAP2 DUP3 PUSH2 0x8A0 JUMP JUMPDEST SUB SWAP1 RETURN JUMPDEST DUP2 MSTORE SWAP3 SWAP6 POP PUSH32 0x8A35ACFBC15FF81A39AE7D344FD709F28E8600B4AA8C65C6B64BFE7FE36BD19B JUMPDEST DUP3 DUP5 LT PUSH2 0x4EE JUMPI POP POP POP DUP3 PUSH2 0x4A5 SWAP5 PUSH2 0x49B SWAP3 DUP3 ADD ADD SWAP5 CODESIZE DUP1 PUSH2 0x48A JUMP JUMPDEST DUP1 SLOAD DUP7 DUP6 ADD DUP9 ADD MSTORE SWAP3 DUP7 ADD SWAP3 DUP2 ADD PUSH2 0x4D0 JUMP JUMPDEST PUSH1 0xFF NOT AND DUP9 DUP8 ADD MSTORE POP POP POP POP ISZERO ISZERO PUSH1 0x5 SHL DUP4 ADD ADD SWAP3 POP PUSH2 0x49B DUP3 PUSH2 0x4A5 CODESIZE DUP1 PUSH2 0x48A JUMP JUMPDEST PUSH4 0x4E487B71 PUSH1 0xE0 SHL DUP5 MSTORE PUSH1 0x22 DUP4 MSTORE PUSH1 0x24 DUP5 REVERT JUMPDEST SWAP4 PUSH1 0x7F AND SWAP4 PUSH2 0x46B JUMP JUMPDEST POP POP CALLVALUE PUSH2 0x1EA JUMPI DUP2 PUSH1 0x3 NOT CALLDATASIZE ADD SLT PUSH2 0x1EA JUMPI PUSH1 0x5 SLOAD SWAP1 MLOAD PUSH1 0x1 PUSH1 0x1 PUSH1 0xA0 SHL SUB SWAP1 SWAP2 AND DUP2 MSTORE PUSH1 0x20 SWAP1 RETURN JUMPDEST DUP4 CALLVALUE PUSH2 0x439 JUMPI DUP1 PUSH1 0x3 NOT CALLDATASIZE ADD SLT PUSH2 0x439 JUMPI PUSH2 0x584 PUSH2 0xC3C JUMP JUMPDEST PUSH1 0x5 DUP1 SLOAD PUSH1 0x1 PUSH1 0x1 PUSH1 0xA0 SHL SUB NOT DUP2 AND SWAP1 SWAP2 SSTORE DUP2 SWAP1 PUSH1 0x1 PUSH1 0x1 PUSH1 0xA0 SHL SUB AND PUSH32 0x8BE0079C531659141344CD1FD0A4F28419497F9722A3DAAFE3B4186F6B6457E0 DUP3 DUP1 LOG3 DUP1 RETURN JUMPDEST POP POP CALLVALUE PUSH2 0x1EA JUMPI PUSH1 0x20 CALLDATASIZE PUSH1 0x3 NOT ADD SLT PUSH2 0x1EA JUMPI PUSH1 0x20 SWAP2 DUP2 SWAP1 PUSH1 0x1 PUSH1 0x1 PUSH1 0xA0 SHL SUB PUSH2 0x5F0 PUSH2 0x8E9 JUMP JUMPDEST AND DUP2 MSTORE DUP1 DUP5 MSTORE KECCAK256 SLOAD SWAP1 MLOAD SWAP1 DUP2 MSTORE RETURN JUMPDEST POP POP CALLVALUE PUSH2 0x1EA JUMPI CALLDATASIZE PUSH1 0x3 NOT ADD SLT PUSH2 0x439 JUMPI PUSH2 0x62C PUSH2 0x61B PUSH2 0x8E9 JUMP JUMPDEST PUSH2 0x623 PUSH2 0xC3C JUMP JUMPDEST PUSH1 0x24 CALLDATALOAD SWAP1 PUSH2 0xC94 JUMP JUMPDEST DUP1 RETURN JUMPDEST POP POP CALLVALUE PUSH2 0x1EA JUMPI DUP1 PUSH1 0x3 NOT CALLDATASIZE ADD SLT PUSH2 0x1EA JUMPI PUSH2 0x38E PUSH1 0x20 SWAP3 PUSH2 0x678 PUSH2 0x652 PUSH2 0x8E9 JUMP JUMPDEST CALLER DUP4 MSTORE PUSH1 0x1 DUP7 MSTORE DUP5 DUP4 KECCAK256 PUSH1 0x1 PUSH1 0x1 PUSH1 0xA0 SHL SUB DUP3 AND DUP5 MSTORE DUP7 MSTORE SWAP2 DUP5 SWAP1 KECCAK256 SLOAD PUSH1 0x24 CALLDATALOAD SWAP1 PUSH2 0x9A9 JUMP JUMPDEST SWAP1 CALLER PUSH2 0x9CC JUMP JUMPDEST POP POP CALLVALUE PUSH2 0x1EA JUMPI DUP2 PUSH1 0x3 NOT CALLDATASIZE ADD SLT PUSH2 0x1EA JUMPI PUSH1 0x20 SWAP1 MLOAD PUSH1 0x12 DUP2 MSTORE RETURN JUMPDEST POP DUP3 SWAP1 CALLVALUE PUSH2 0x1EA JUMPI PUSH1 0x60 CALLDATASIZE PUSH1 0x3 NOT ADD SLT PUSH2 0x1EA JUMPI PUSH2 0x6B7 PUSH2 0x8E9 JUMP JUMPDEST PUSH2 0x6BF PUSH2 0x904 JUMP JUMPDEST SWAP2 DUP5 PUSH1 0x44 CALLDATALOAD SWAP5 PUSH1 0x1 DUP1 PUSH1 0xA0 SHL SUB DUP5 AND DUP2 MSTORE PUSH1 0x1 PUSH1 0x20 MSTORE DUP2 DUP2 KECCAK256 CALLER DUP3 MSTORE PUSH1 0x20 MSTORE KECCAK256 SLOAD SWAP1 PUSH1 0x0 NOT DUP3 SUB PUSH2 0x6F9 JUMPI JUMPDEST PUSH1 0x20 DUP7 PUSH2 0x38E DUP8 DUP8 DUP8 PUSH2 0xACE JUMP JUMPDEST DUP5 DUP3 LT PUSH2 0x722 JUMPI POP SWAP2 DUP4 SWAP2 PUSH2 0x717 PUSH1 0x20 SWAP7 SWAP6 PUSH2 0x38E SWAP6 SUB CALLER DUP4 PUSH2 0x9CC JUMP JUMPDEST SWAP2 SWAP4 SWAP5 DUP2 SWAP4 POP PUSH2 0x6EB JUMP JUMPDEST PUSH1 0x64 SWAP1 PUSH1 0x20 DUP8 MLOAD SWAP2 PUSH3 0x461BCD PUSH1 0xE5 SHL DUP4 MSTORE DUP3 ADD MSTORE PUSH1 0x1D PUSH1 0x24 DUP3 ADD MSTORE PUSH32 0x45524332303A20696E73756666696369656E7420616C6C6F77616E6365000000 PUSH1 0x44 DUP3 ADD MSTORE REVERT JUMPDEST POP POP CALLVALUE PUSH2 0x1EA JUMPI DUP2 PUSH1 0x3 NOT CALLDATASIZE ADD SLT PUSH2 0x1EA JUMPI PUSH1 0x20 SWAP1 PUSH1 0x2 SLOAD SWAP1 MLOAD SWAP1 DUP2 MSTORE RETURN JUMPDEST POP POP CALLVALUE PUSH2 0x1EA JUMPI DUP1 PUSH1 0x3 NOT CALLDATASIZE ADD SLT PUSH2 0x1EA JUMPI PUSH1 0x20 SWAP1 PUSH2 0x38E PUSH2 0x7A4 PUSH2 0x8E9 JUMP JUMPDEST PUSH1 0x24 CALLDATALOAD SWAP1 CALLER PUSH2 0x9CC JUMP JUMPDEST SWAP3 SWAP2 SWAP1 POP CALLVALUE PUSH2 0x35C JUMPI DUP4 PUSH1 0x3 NOT CALLDATASIZE ADD SLT PUSH2 0x35C JUMPI PUSH1 0x3 SLOAD PUSH1 0x1 DUP2 DUP2 SHR SWAP2 DUP7 SWAP1 DUP3 DUP2 AND DUP1 ISZERO PUSH2 0x896 JUMPI JUMPDEST PUSH1 0x20 SWAP6 DUP7 DUP7 LT DUP3 EQ PUSH2 0x883 JUMPI POP DUP5 DUP9 MSTORE SWAP1 DUP2 ISZERO PUSH2 0x861 JUMPI POP PUSH1 0x1 EQ PUSH2 0x808 JUMPI JUMPDEST PUSH2 0x4A5 DUP7 DUP7 PUSH2 0x49B DUP3 DUP12 SUB DUP4 PUSH2 0x91A JUMP JUMPDEST SWAP3 SWAP6 POP PUSH1 0x3 DUP4 MSTORE PUSH32 0xC2575A0E9E593C00F959F8C92F12DB2869C3395A3B0502D05E2516446F71F85B JUMPDEST DUP3 DUP5 LT PUSH2 0x84E JUMPI POP POP POP DUP3 PUSH2 0x4A5 SWAP5 PUSH2 0x49B SWAP3 DUP3 ADD ADD SWAP5 CODESIZE PUSH2 0x7F7 JUMP JUMPDEST DUP1 SLOAD DUP7 DUP6 ADD DUP9 ADD MSTORE SWAP3 DUP7 ADD SWAP3 DUP2 ADD PUSH2 0x831 JUMP JUMPDEST PUSH1 0xFF NOT AND DUP8 DUP7 ADD MSTORE POP POP POP ISZERO ISZERO PUSH1 0x5 SHL DUP4 ADD ADD SWAP3 POP PUSH2 0x49B DUP3 PUSH2 0x4A5 CODESIZE PUSH2 0x7F7 JUMP JUMPDEST PUSH4 0x4E487B71 PUSH1 0xE0 SHL DUP5 MSTORE PUSH1 0x22 SWAP1 MSTORE PUSH1 0x24 DUP4 REVERT JUMPDEST SWAP4 PUSH1 0x7F AND SWAP4 PUSH2 0x7D7 JUMP JUMPDEST PUSH1 0x20 DUP1 DUP3 MSTORE DUP3 MLOAD DUP2 DUP4 ADD DUP2 SWAP1 MSTORE SWAP1 SWAP4 SWAP3 PUSH1 0x0 JUMPDEST DUP3 DUP2 LT PUSH2 0x8D5 JUMPI POP POP PUSH1 0x40 SWAP3 SWAP4 POP PUSH1 0x0 DUP4 DUP3 DUP5 ADD ADD MSTORE PUSH1 0x1F DUP1 NOT SWAP2 ADD AND ADD ADD SWAP1 JUMP JUMPDEST DUP2 DUP2 ADD DUP7 ADD MLOAD DUP5 DUP3 ADD PUSH1 0x40 ADD MSTORE DUP6 ADD PUSH2 0x8B3 JUMP JUMPDEST PUSH1 0x4 CALLDATALOAD SWAP1 PUSH1 0x1 PUSH1 0x1 PUSH1 0xA0 SHL SUB DUP3 AND DUP3 SUB PUSH2 0x8FF JUMPI JUMP JUMPDEST PUSH1 0x0 DUP1 REVERT JUMPDEST PUSH1 0x24 CALLDATALOAD SWAP1 PUSH1 0x1 PUSH1 0x1 PUSH1 0xA0 SHL SUB DUP3 AND DUP3 SUB PUSH2 0x8FF JUMPI JUMP JUMPDEST SWAP1 PUSH1 0x1F DUP1 NOT SWAP2 ADD AND DUP2 ADD SWAP1 DUP2 LT PUSH8 0xFFFFFFFFFFFFFFFF DUP3 GT OR PUSH2 0x93C JUMPI PUSH1 0x40 MSTORE JUMP JUMPDEST PUSH4 0x4E487B71 PUSH1 0xE0 SHL PUSH1 0x0 MSTORE PUSH1 0x41 PUSH1 0x4 MSTORE PUSH1 0x24 PUSH1 0x0 REVERT JUMPDEST DUP2 PUSH1 0x1F DUP3 ADD SLT ISZERO PUSH2 0x8FF JUMPI DUP1 CALLDATALOAD SWAP1 PUSH8 0xFFFFFFFFFFFFFFFF DUP3 GT PUSH2 0x93C JUMPI PUSH1 0x40 MLOAD SWAP3 PUSH2 0x987 PUSH1 0x1F DUP5 ADD PUSH1 0x1F NOT AND PUSH1 0x20 ADD DUP6 PUSH2 0x91A JUMP JUMPDEST DUP3 DUP5 MSTORE PUSH1 0x20 DUP4 DUP4 ADD ADD GT PUSH2 0x8FF JUMPI DUP2 PUSH1 0x0 SWAP3 PUSH1 0x20 DUP1 SWAP4 ADD DUP4 DUP7 ADD CALLDATACOPY DUP4 ADD ADD MSTORE SWAP1 JUMP JUMPDEST SWAP2 SWAP1 DUP3 ADD DUP1 SWAP3 GT PUSH2 0x9B6 JUMPI JUMP JUMPDEST PUSH4 0x4E487B71 PUSH1 0xE0 SHL PUSH1 0x0 MSTORE PUSH1 0x11 PUSH1 0x4 MSTORE PUSH1 0x24 PUSH1 0x0 REVERT JUMPDEST PUSH1 0x1 PUSH1 0x1 PUSH1 0xA0 SHL SUB SWAP1 DUP2 AND SWAP2 DUP3 ISZERO PUSH2 0xA7D JUMPI AND SWAP2 DUP3 ISZERO PUSH2 0xA2D JUMPI PUSH1 0x20 PUSH32 0x8C5BE1E5EBEC7D5BD14F71427D1E84F3DD0314C0F7B2291E5B200AC8C7C3B925 SWAP2 DUP4 PUSH1 0x0 MSTORE PUSH1 0x1 DUP3 MSTORE PUSH1 0x40 PUSH1 0x0 KECCAK256 DUP6 PUSH1 0x0 MSTORE DUP3 MSTORE DUP1 PUSH1 0x40 PUSH1 0x0 KECCAK256 SSTORE PUSH1 0x40 MLOAD SWAP1 DUP2 MSTORE LOG3 JUMP JUMPDEST PUSH1 0x40 MLOAD PUSH3 0x461BCD PUSH1 0xE5 SHL DUP2 MSTORE PUSH1 0x20 PUSH1 0x4 DUP3 ADD MSTORE PUSH1 0x22 PUSH1 0x24 DUP3 ADD MSTORE PUSH32 0x45524332303A20617070726F766520746F20746865207A65726F206164647265 PUSH1 0x44 DUP3 ADD MSTORE PUSH2 0x7373 PUSH1 0xF0 SHL PUSH1 0x64 DUP3 ADD MSTORE PUSH1 0x84 SWAP1 REVERT JUMPDEST PUSH1 0x40 MLOAD PUSH3 0x461BCD PUSH1 0xE5 SHL DUP2 MSTORE PUSH1 0x20 PUSH1 0x4 DUP3 ADD MSTORE PUSH1 0x24 DUP1 DUP3 ADD MSTORE PUSH32 0x45524332303A20617070726F76652066726F6D20746865207A65726F20616464 PUSH1 0x44 DUP3 ADD MSTORE PUSH4 0x72657373 PUSH1 0xE0 SHL PUSH1 0x64 DUP3 ADD MSTORE PUSH1 0x84 SWAP1 REVERT JUMPDEST PUSH1 0x1 PUSH1 0x1 PUSH1 0xA0 SHL SUB SWAP1 DUP2 AND SWAP2 DUP3 ISZERO PUSH2 0xBE9 JUMPI AND SWAP2 DUP3 ISZERO PUSH2 0xB98 JUMPI PUSH1 0x0 DUP3 DUP2 MSTORE DUP1 PUSH1 0x20 MSTORE PUSH1 0x40 DUP2 KECCAK256 SLOAD SWAP2 DUP1 DUP4 LT PUSH2 0xB44 JUMPI PUSH1 0x40 DUP3 DUP3 PUSH32 0xDDF252AD1BE2C89B69C2B068FC378DAA952BA7F163C4A11628F55A4DF523B3EF SWAP6 DUP8 PUSH1 0x20 SWAP7 MSTORE DUP3 DUP7 MSTORE SUB DUP3 DUP3 KECCAK256 SSTORE DUP7 DUP2 MSTORE KECCAK256 DUP2 DUP2 SLOAD ADD SWAP1 SSTORE PUSH1 0x40 MLOAD SWAP1 DUP2 MSTORE LOG3 JUMP JUMPDEST PUSH1 0x40 MLOAD PUSH3 0x461BCD PUSH1 0xE5 SHL DUP2 MSTORE PUSH1 0x20 PUSH1 0x4 DUP3 ADD MSTORE PUSH1 0x26 PUSH1 0x24 DUP3 ADD MSTORE PUSH32 0x45524332303A207472616E7366657220616D6F756E7420657863656564732062 PUSH1 0x44 DUP3 ADD MSTORE PUSH6 0x616C616E6365 PUSH1 0xD0 SHL PUSH1 0x64 DUP3 ADD MSTORE PUSH1 0x84 SWAP1 REVERT JUMPDEST PUSH1 0x40 MLOAD PUSH3 0x461BCD PUSH1 0xE5 SHL DUP2 MSTORE PUSH1 0x20 PUSH1 0x4 DUP3 ADD MSTORE PUSH1 0x23 PUSH1 0x24 DUP3 ADD MSTORE PUSH32 0x45524332303A207472616E7366657220746F20746865207A65726F2061646472 PUSH1 0x44 DUP3 ADD MSTORE PUSH3 0x657373 PUSH1 0xE8 SHL PUSH1 0x64 DUP3 ADD MSTORE PUSH1 0x84 SWAP1 REVERT JUMPDEST PUSH1 0x40 MLOAD PUSH3 0x461BCD PUSH1 0xE5 SHL DUP2 MSTORE PUSH1 0x20 PUSH1 0x4 DUP3 ADD MSTORE PUSH1 0x25 PUSH1 0x24 DUP3 ADD MSTORE PUSH32 0x45524332303A207472616E736665722066726F6D20746865207A65726F206164 PUSH1 0x44 DUP3 ADD MSTORE PUSH5 0x6472657373 PUSH1 0xD8 SHL PUSH1 0x64 DUP3 ADD MSTORE PUSH1 0x84 SWAP1 REVERT JUMPDEST PUSH1 0x5 SLOAD PUSH1 0x1 PUSH1 0x1 PUSH1 0xA0 SHL SUB AND CALLER SUB PUSH2 0xC50 JUMPI JUMP JUMPDEST PUSH1 0x64 PUSH1 0x40 MLOAD PUSH3 0x461BCD PUSH1 0xE5 SHL DUP2 MSTORE PUSH1 0x20 PUSH1 0x4 DUP3 ADD MSTORE PUSH1 0x20 PUSH1 0x24 DUP3 ADD MSTORE PUSH32 0x4F776E61626C653A2063616C6C6572206973206E6F7420746865206F776E6572 PUSH1 0x44 DUP3 ADD MSTORE REVERT JUMPDEST PUSH1 0x1 PUSH1 0x1 PUSH1 0xA0 SHL SUB AND SWAP1 DUP2 ISZERO PUSH2 0xCF2 JUMPI PUSH32 0xDDF252AD1BE2C89B69C2B068FC378DAA952BA7F163C4A11628F55A4DF523B3EF PUSH1 0x20 DUP3 PUSH2 0xCD6 PUSH1 0x0 SWAP5 PUSH1 0x2 SLOAD PUSH2 0x9A9 JUMP JUMPDEST PUSH1 0x2 SSTORE DUP5 DUP5 MSTORE DUP4 DUP3 MSTORE PUSH1 0x40 DUP5 KECCAK256 DUP2 DUP2 SLOAD ADD SWAP1 SSTORE PUSH1 0x40 MLOAD SWAP1 DUP2 MSTORE LOG3 JUMP JUMPDEST PUSH1 0x40 MLOAD PUSH3 0x461BCD PUSH1 0xE5 SHL DUP2 MSTORE PUSH1 0x20 PUSH1 0x4 DUP3 ADD MSTORE PUSH1 0x1F PUSH1 0x24 DUP3 ADD MSTORE PUSH32 0x45524332303A206D696E7420746F20746865207A65726F206164647265737300 PUSH1 0x44 DUP3 ADD MSTORE PUSH1 0x64 SWAP1 REVERT INVALID LOG2 PUSH5 0x6970667358 0x22 SLT KECCAK256 0xDC 0xE3 PUSH25 0xA3815BA87016176626F641D356DAA9FDF3B00BEA366A5C8204 0xBB BLOCKHASH DUP6 MUL PUSH5 0x736F6C6343 STOP ADDMOD AND STOP CALLER "},"gasEstimates":{"creation":{"codeDepositCost":"158000","executionCost":"infinite","totalCost":"infinite"},"external":{"createToken(string,string,uint256)":"infinite","tokenBeacon()":"2302"}},"methodIdentifiers":{"createToken(string,string,uint256)":"5b060530","tokenBeacon()":"ccf5a77c"}},"storageLayout":{"storage":[{"astId":2039,"contract":"src/contracts/test/TestFactory.sol:TestFactory","label":"tokenBeacon","offset":0,"slot":"0","type":"t_contract(TestBeacon)2032"}],"types":{"t_contract(TestBeacon)2032":{"encoding":"inplace","label":"contract TestBeacon","numberOfBytes":"20"}}},"userdoc":{"kind":"user","methods":{},"version":1}}}}