{"src/contracts/TokenFactory_v3.sol":{"TokenFactory_v3":{"abi":[{"anonymous":false,"inputs":[{"indexed":false,"internalType":"address","name":"previousAdmin","type":"address"},{"indexed":false,"internalType":"address","name":"newAdmin","type":"address"}],"name":"AdminChanged","type":"event"},{"anonymous":false,"inputs":[{"indexed":true,"internalType":"address","name":"beacon","type":"address"}],"name":"BeaconUpgraded","type":"event"},{"anonymous":false,"inputs":[{"indexed":true,"internalType":"address","name":"user","type":"address"},{"indexed":false,"internalType":"uint256","name":"fee","type":"uint256"}],"name":"CustomDeploymentFeeSet","type":"event"},{"anonymous":false,"inputs":[{"indexed":false,"internalType":"uint256","name":"newFee","type":"uint256"}],"name":"DeploymentFeeUpdated","type":"event"},{"anonymous":false,"inputs":[{"indexed":false,"internalType":"uint8","name":"version","type":"uint8"}],"name":"Initialized","type":"event"},{"anonymous":false,"inputs":[{"indexed":true,"internalType":"address","name":"previousOwner","type":"address"},{"indexed":true,"internalType":"address","name":"newOwner","type":"address"}],"name":"OwnershipTransferred","type":"event"},{"anonymous":false,"inputs":[{"indexed":true,"internalType":"address","name":"tokenAddress","type":"address"},{"indexed":true,"internalType":"address","name":"creator","type":"address"},{"indexed":false,"internalType":"string","name":"name","type":"string"},{"indexed":false,"internalType":"string","name":"symbol","type":"string"}],"name":"TokenCreated","type":"event"},{"anonymous":false,"inputs":[{"indexed":true,"internalType":"address","name":"implementation","type":"address"}],"name":"Upgraded","type":"event"},{"inputs":[{"components":[{"internalType":"string","name":"name","type":"string"},{"internalType":"string","name":"symbol","type":"string"},{"internalType":"uint256","name":"initialSupply","type":"uint256"},{"internalType":"uint256","name":"maxSupply","type":"uint256"},{"internalType":"address","name":"owner","type":"address"},{"internalType":"bool","name":"enableBlacklist","type":"bool"},{"internalType":"bool","name":"enableTimeLock","type":"bool"},{"internalType":"uint256","name":"presaleRate","type":"uint256"},{"internalType":"uint256","name":"softCap","type":"uint256"},{"internalType":"uint256","name":"hardCap","type":"uint256"},{"internalType":"uint256","name":"minContribution","type":"uint256"},{"internalType":"uint256","name":"maxContribution","type":"uint256"},{"internalType":"uint256","name":"startTime","type":"uint256"},{"internalType":"uint256","name":"endTime","type":"uint256"},{"internalType":"uint256","name":"presalePercentage","type":"uint256"},{"internalType":"uint256","name":"liquidityPercentage","type":"uint256"},{"internalType":"uint256","name":"liquidityLockDuration","type":"uint256"},{"components":[{"internalType":"address","name":"wallet","type":"address"},{"internalType":"uint256","name":"percentage","type":"uint256"},{"internalType":"bool","name":"vestingEnabled","type":"bool"},{"internalType":"uint256","name":"vestingDuration","type":"uint256"},{"internalType":"uint256","name":"cliffDuration","type":"uint256"},{"internalType":"uint256","name":"vestingStartTime","type":"uint256"}],"internalType":"struct TokenTemplate_v3.WalletAllocation[]","name":"walletAllocations","type":"tuple[]"}],"internalType":"struct TokenTemplate_v3.InitParams","name":"params","type":"tuple"}],"name":"createToken","outputs":[{"internalType":"address","name":"","type":"address"}],"stateMutability":"payable","type":"function"},{"inputs":[{"internalType":"address","name":"","type":"address"}],"name":"customDeploymentFees","outputs":[{"internalType":"uint256","name":"","type":"uint256"}],"stateMutability":"view","type":"function"},{"inputs":[{"internalType":"uint256","name":"","type":"uint256"}],"name":"deployedTokens","outputs":[{"internalType":"address","name":"","type":"address"}],"stateMutability":"view","type":"function"},{"inputs":[],"name":"deploymentFee","outputs":[{"internalType":"uint256","name":"","type":"uint256"}],"stateMutability":"view","type":"function"},{"inputs":[{"internalType":"address","name":"user","type":"address"}],"name":"getDeploymentFee","outputs":[{"internalType":"uint256","name":"","type":"uint256"}],"stateMutability":"view","type":"function"},{"inputs":[{"internalType":"address","name":"token","type":"address"}],"name":"getTokenCreator","outputs":[{"internalType":"address","name":"","type":"address"}],"stateMutability":"view","type":"function"},{"inputs":[{"internalType":"address","name":"user","type":"address"}],"name":"getUserCreatedTokens","outputs":[{"internalType":"address[]","name":"","type":"address[]"}],"stateMutability":"view","type":"function"},{"inputs":[{"internalType":"address","name":"user","type":"address"}],"name":"getUserTokenCount","outputs":[{"internalType":"uint256","name":"","type":"uint256"}],"stateMutability":"view","type":"function"},{"inputs":[],"name":"implementation","outputs":[{"internalType":"address","name":"","type":"address"}],"stateMutability":"view","type":"function"},{"inputs":[{"internalType":"address","name":"_implementation","type":"address"}],"name":"initialize","outputs":[],"stateMutability":"nonpayable","type":"function"},{"inputs":[{"internalType":"address","name":"user","type":"address"},{"internalType":"address","name":"token","type":"address"}],"name":"isTokenCreator","outputs":[{"internalType":"bool","name":"","type":"bool"}],"stateMutability":"view","type":"function"},{"inputs":[],"name":"owner","outputs":[{"internalType":"address","name":"","type":"address"}],"stateMutability":"view","type":"function"},{"inputs":[],"name":"proxiableUUID","outputs":[{"internalType":"bytes32","name":"","type":"bytes32"}],"stateMutability":"view","type":"function"},{"inputs":[],"name":"renounceOwnership","outputs":[],"stateMutability":"nonpayable","type":"function"},{"inputs":[{"internalType":"address","name":"user","type":"address"},{"internalType":"uint256","name":"fee","type":"uint256"}],"name":"setCustomDeploymentFee","outputs":[],"stateMutability":"nonpayable","type":"function"},{"inputs":[{"internalType":"uint256","name":"_fee","type":"uint256"}],"name":"setDeploymentFee","outputs":[],"stateMutability":"nonpayable","type":"function"},{"inputs":[{"internalType":"address","name":"newOwner","type":"address"}],"name":"transferOwnership","outputs":[],"stateMutability":"nonpayable","type":"function"},{"inputs":[{"internalType":"address","name":"_implementation","type":"address"}],"name":"updateImplementation","outputs":[],"stateMutability":"nonpayable","type":"function"},{"inputs":[{"internalType":"address","name":"newImplementation","type":"address"}],"name":"upgradeTo","outputs":[],"stateMutability":"nonpayable","type":"function"},{"inputs":[{"internalType":"address","name":"newImplementation","type":"address"},{"internalType":"bytes","name":"data","type":"bytes"}],"name":"upgradeToAndCall","outputs":[],"stateMutability":"payable","type":"function"},{"inputs":[],"name":"withdrawFees","outputs":[],"stateMutability":"nonpayable","type":"function"}],"devdoc":{"events":{"AdminChanged(address,address)":{"details":"Emitted when the admin account has changed."},"BeaconUpgraded(address)":{"details":"Emitted when the beacon is changed."},"Initialized(uint8)":{"details":"Triggered when the contract has been initialized or reinitialized."},"Upgraded(address)":{"details":"Emitted when the implementation is upgraded."}},"kind":"dev","methods":{"owner()":{"details":"Returns the address of the current owner."},"proxiableUUID()":{"details":"Implementation of the ERC1822 {proxiableUUID} function. This returns the storage slot used by the implementation. It is used to validate the implementation's compatibility when performing an upgrade. IMPORTANT: A proxy pointing at a proxiable contract should not be considered proxiable itself, because this risks bricking a proxy that upgrades to it, by delegating to itself until out of gas. Thus it is critical that this function revert if invoked through a proxy. This is guaranteed by the `notDelegated` modifier."},"renounceOwnership()":{"details":"Leaves the contract without owner. It will not be possible to call `onlyOwner` functions. Can only be called by the current owner. NOTE: Renouncing ownership will leave the contract without an owner, thereby disabling any functionality that is only available to the owner."},"transferOwnership(address)":{"details":"Transfers ownership of the contract to a new account (`newOwner`). Can only be called by the current owner."},"upgradeTo(address)":{"custom:oz-upgrades-unsafe-allow-reachable":"delegatecall","details":"Upgrade the implementation of the proxy to `newImplementation`. Calls {_authorizeUpgrade}. Emits an {Upgraded} event."},"upgradeToAndCall(address,bytes)":{"custom:oz-upgrades-unsafe-allow-reachable":"delegatecall","details":"Upgrade the implementation of the proxy to `newImplementation`, and subsequently execute the function call encoded in `data`. Calls {_authorizeUpgrade}. Emits an {Upgraded} event."}},"version":1},"evm":{"bytecode":{"linkReferences":{},"object":"60a080604052346100315730608052612156908161003782396080518181816110a4015281816111de01526114e00152f35b600080fdfe608060405260043610156200001357600080fd5b60003560e01c8063025b22bc14620016ef5780631652da4214620016be5780633659cfe614620014b8578063476343ee146200143d5780634f1ef286146200115757806352d1902d146200108f5780635c60da1b1462001064578063715018a6146200100357806375f839a214620006815780638da5cb5b1462000656578063ae6862ff14620005f7578063b8a6f40214620005b9578063c00be1a014620004fc578063c05ddda814620004be578063c4d66de81462000334578063c78418b914620002f5578063cbf1208f1462000284578063d002462b1462000234578063ec81aadb14620001d6578063f2cff57f14620001b65763f2fde38b146200011957600080fd5b34620001b1576020366003190112620001b1576200013662001783565b6200014062001ab2565b6001600160a01b038116156200015d576200015b9062001b0b565b005b60405162461bcd60e51b815260206004820152602660248201527f4f776e61626c653a206e6577206f776e657220697320746865207a65726f206160448201526564647265737360d01b6064820152608490fd5b600080fd5b34620001b1576000366003190112620001b157602060ca54604051908152f35b34620001b1576020366003190112620001b15760043560cb54811015620001b15760cb6000527fa7ce836d032b2bf62b7e2097a8e0a6d8aeb35405ad15271e96d3b0188a1d06fb01546040516001600160a01b039091168152602090f35b34620001b1576020366003190112620001b1577f40bd824d588484917db8fa4fc894c1e0feae5a75885290ba7b97521cebf82a8060206004356200027762001ab2565b8060ca55604051908152a1005b34620001b1576040366003190112620001b157620002a162001783565b7f035250ff587e06567c2fa9d4b3191805958a937530b0e88cfce4c9c4dcdef1b3602060243592620002d262001ab2565b6001600160a01b0316600081815260cf83526040908190208590555193845292a2005b34620001b1576020366003190112620001b15760206001600160a01b03806200031d62001783565b1660005260ce825260406000205416604051908152f35b34620001b1576020366003190112620001b1576200035162001783565b60005460ff8160081c161590818092620004b0575b801562000497575b156200043b5760ff1981166001176000558162000428575b50620003a560ff60005460081c166200039f8162001b54565b62001b54565b620003b03362001b0b565b60005491620003c560ff8460081c1662001b54565b60018060a01b03166001600160601b0360a01b60c954161760c95567016345785d8a000060ca55620003f357005b61ff0019166000557f7f26b83ff96e1f2b6a682f133852f6798a09c465da95921460cefb3847402498602060405160018152a1005b61ffff1916610101176000558262000386565b60405162461bcd60e51b815260206004820152602e60248201527f496e697469616c697a61626c653a20636f6e747261637420697320616c72656160448201526d191e481a5b9a5d1a585b1a5e995960921b6064820152608490fd5b50303b1580156200036e5750600160ff8216146200036e565b50600160ff82161062000366565b34620001b1576020366003190112620001b1576001600160a01b03620004e362001783565b1660005260cf6020526020604060002054604051908152f35b34620001b157602080600319360112620001b1576001600160a01b0390816200052462001783565b1660005260cc8152604060002060405191828183549182815201908193600052826000209060005b818110620005a2575050508362000565910384620017cc565b60405192818401908285525180915260408401929160005b8281106200058b5785850386f35b83518716855293810193928101926001016200057d565b82548816845292840192600192830192016200054c565b34620001b1576020366003190112620001b1576001600160a01b03620005de62001783565b1660005260cc6020526020604060002054604051908152f35b34620001b1576040366003190112620001b1576200061462001783565b6001600160a01b036024358181169290839003620001b1571660005260cd602052604060002090600052602052602060ff604060002054166040519015158152f35b34620001b1576000366003190112620001b1576097546040516001600160a01b039091168152602090f35b600319602036820112620001b15767ffffffffffffffff60043511620001b1576102409060043536030112620001b157620006bc336200180c565b341062000fbe576101c460043501351562000f79576101e460043501351562000f3557620006f96101e460043501356101c4600435013562001952565b620007106102246004350160043560040162001976565b15905062000eb9576000905b620007336102246004350160043560040162001976565b9050821015620009ff576200076082620007596102246004350160043560040162001976565b90620019af565b356001600160a01b03811690819003620001b15715620009ba5760206200079883620007596102246004350160043560040162001976565b01351562000975576040620007be83620007596102246004350160043560040162001976565b01358015158103620001b15762000807575b620007fe6001916020620007f585620007596102246004350160043560040162001976565b01359062001952565b9101906200071c565b60606200082583620007596102246004350160043560040162001976565b013515620009305760a06200084b83620007596102246004350160043560040162001976565b013515620008eb5760806200087183620007596102246004350160043560040162001976565b013560606200089184620007596102246004350160043560040162001976565b01351015620007d05760405162461bcd60e51b815260206004820152602360248201527f436c6966662063616e6e6f74206265206c6f6e676572207468616e2076657374604482015262696e6760e81b6064820152608490fd5b60405162461bcd60e51b815260206004820152601e60248201527f56657374696e672073746172742074696d65206d757374206265203e203000006044820152606490fd5b60405162461bcd60e51b815260206004820152601c60248201527f56657374696e67206475726174696f6e206d757374206265203e2030000000006044820152606490fd5b60405162461bcd60e51b815260206004820152601d60248201527f57616c6c65742070657263656e74616765206d757374206265203e20300000006044820152606490fd5b60405162461bcd60e51b815260206004820152601d60248201527f57616c6c657420616464726573732063616e6e6f74206265207a65726f0000006044820152606490fd5b606491505b0362000e745760405163a18ef32160e01b6020820152602460208183015262000a5062000a3c600435600401600435600401620019d6565b610240604486015261028485019162001a0b565b81600435019262000a8062000a6b85600435600401620019d6565b60431984860381016064860152949162001a0b565b916044600435013560848301526064600435013560a483015262000aa96084600435016200179a565b6001600160a01b0390811660c48401529262000aca60043560a40162001a2c565b151560e484015262000ae160c46004350162001a2c565b610104901515818501526101249060e46004350135828601526101449060043501358186015261016491600435013582860152610184906004350135818601526101a49160043501358286015260043501356101c485015260043501356101e48401526102046101c46004350135818501526101e4600435013561022485015260043501356102448401526102246004350135602219600435360301811215620001b157600435019085600483013592019267ffffffffffffffff8311620001b15760c09160c0840236038513620001b157858103909101610264860152828152849260209091019160005b82811062000e0e5750505062000bed925003601f198101835282620017cc565b8160c954169060405191610416908184019184831067ffffffffffffffff84111762000df95762000c349285949260409262001ceb87398152816020820152019062001a3a565b03906000f0801562000ded57169060cb5468010000000000000000908181101562000dd857600181018060cb5581101562000dc3577fa7ce836d032b2bf62b7e2097a8e0a6d8aeb35405ad15271e96d3b0188a1d06fb01916001600160601b0360a01b9284848254161790553360005260cc60205260406000209081549283101562000daf576001830180835583101562000d9b575060209462000d909385937fd5d05a8421149c74fd223cfc823befb883babf9bf0b0e4d6bf9c8fdb70e59bb493600052876000200184828254161790553360005260cd875260406000208460005287526040600020600160ff1982541617905560ce8752604060002090339082541617905562000d6462000d5560043560040160043560040162001a7c565b91909260043560040162001a7c565b62000d8060409792975194859460408652604086019162001a0b565b908382038a850152339762001a0b565b0390a3604051908152f35b634e487b7160e01b60009081526032600452fd5b634e487b7160e01b60009081526041600452fd5b82634e487b7160e01b60005260326004526000fd5b82634e487b7160e01b60005260416004526000fd5b6040513d6000823e3d90fd5b86634e487b7160e01b60005260416004526000fd5b9193509182806001928962000e23896200179a565b1681526020880135602082015262000e3e6040890162001a2c565b15156040820152606080890135908201526080808901359082015260a08089013590820152019501910191859391949262000bcd565b60405162461bcd60e51b815260206004820152601c60248201527f546f74616c2070657263656e74616765206d75737420626520313030000000006044820152606490fd5b6064810362000ecb5760649062000a04565b608460405162461bcd60e51b815260206004820152604060248201527f50726573616c6520616e64206c6971756964697479206d75737420746f74616c60448201527f2031303025207768656e206e6f206164646974696f6e616c2077616c6c6574736064820152fd5b606460405162461bcd60e51b815260206004820152602060248201527f4c69717569646974792070657263656e74616765206d757374206265203e20306044820152fd5b60405162461bcd60e51b815260206004820152601e60248201527f50726573616c652070657263656e74616765206d757374206265203e203000006044820152606490fd5b60405162461bcd60e51b815260206004820152601b60248201527f496e73756666696369656e74206465706c6f796d656e742066656500000000006044820152606490fd5b34620001b1576000366003190112620001b1576200102062001ab2565b609780546001600160a01b031981169091556000906001600160a01b03167f8be0079c531659141344cd1fd0a4f28419497f9722a3daafe3b4186f6b6457e08280a3005b34620001b1576000366003190112620001b15760c9546040516001600160a01b039091168152602090f35b34620001b1576000366003190112620001b1577f00000000000000000000000000000000000000000000000000000000000000006001600160a01b03163003620010ec576020604051600080516020620021018339815191528152f35b60405162461bcd60e51b815260206004820152603860248201527f555550535570677261646561626c653a206d757374206e6f742062652063616c60448201527f6c6564207468726f7567682064656c656761746563616c6c00000000000000006064820152608490fd5b6040366003190112620001b1576200116e62001783565b6024359067ffffffffffffffff8211620001b15736602383011215620001b15781600401356200119e81620017ef565b92620011ae6040519485620017cc565b818452602091828501913660248383010111620001b1578160009260248693018537860101526001600160a01b037f00000000000000000000000000000000000000000000000000000000000000008116906200120e3083141562001859565b6200122e60008051602062002101833981519152928284541614620018bb565b6200123862001ab2565b7f4910fdfa16fed3260ed0e7147f7cc6da11a60208b5b9406d12a635614ffd91435460ff16156200127357505050506200015b915062001bb5565b84939416906040516352d1902d60e01b81528581600481865afa6000918162001408575b50620012f95760405162461bcd60e51b815260048101879052602e60248201527f45524331393637557067726164653a206e657720696d706c656d656e7461746960448201526d6f6e206973206e6f74205555505360901b6064820152608490fd5b03620013b1576200130a8362001bb5565b7fbc7cd75a20ee27fd9adebab32041f755214dbc6bffa90cc0225b39da2e5c2d3b600080a2835115801590620013a8575b6200134257005b600080916200015b957f416464726573733a206c6f772d6c6576656c2064656c65676174652063616c6c604051966200137b88620017af565b60278852870152660819985a5b195960ca1b60408701525190845af4620013a16200191d565b9162001c47565b5060016200133b565b60405162461bcd60e51b815260048101859052602960248201527f45524331393637557067726164653a20756e737570706f727465642070726f786044820152681a58589b195555525160ba1b6064820152608490fd5b9091508681813d831162001435575b620014238183620017cc565b81010312620001b15751908862001297565b503d62001417565b34620001b1576000366003190112620001b1576200145a62001ab2565b600080808060018060a01b036097541647905af1620014786200191d565b50156200148157005b60405162461bcd60e51b815260206004820152600f60248201526e151c985b9cd9995c8819985a5b1959608a1b6044820152606490fd5b34620001b157602080600319360112620001b157620014d662001783565b6001600160a01b037f000000000000000000000000000000000000000000000000000000000000000081169290620015113085141562001859565b6200153160008051602062002101833981519152948286541614620018bb565b6200153b62001ab2565b604051938285019185831067ffffffffffffffff841117620016a857826040526000865260ff7f4910fdfa16fed3260ed0e7147f7cc6da11a60208b5b9406d12a635614ffd914354166000146200159c57505050506200015b915062001bb5565b84939416906040516352d1902d60e01b81528581600481865afa6000918162001673575b50620016225760405162461bcd60e51b815260048101879052602e60248201527f45524331393637557067726164653a206e657720696d706c656d656e7461746960448201526d6f6e206973206e6f74205555505360901b6064820152608490fd5b03620013b157620016338362001bb5565b7fbc7cd75a20ee27fd9adebab32041f755214dbc6bffa90cc0225b39da2e5c2d3b600080a28351158015906200166a576200134257005b5060006200133b565b9091508681813d8311620016a0575b6200168e8183620017cc565b81010312620001b157519088620015c0565b503d62001682565b634e487b7160e01b600052604160045260246000fd5b34620001b1576020366003190112620001b1576020620016e7620016e162001783565b6200180c565b604051908152f35b34620001b1576020366003190112620001b1576200170c62001783565b6200171662001ab2565b6001600160a01b031680156200173e576001600160601b0360a01b60c954161760c955600080f35b60405162461bcd60e51b815260206004820152601e60248201527f496e76616c696420696d706c656d656e746174696f6e206164647265737300006044820152606490fd5b600435906001600160a01b0382168203620001b157565b35906001600160a01b0382168203620001b157565b6060810190811067ffffffffffffffff821117620016a857604052565b90601f8019910116810190811067ffffffffffffffff821117620016a857604052565b67ffffffffffffffff8111620016a857601f01601f191660200190565b6001600160a01b0316600090815260cf602052604090205480158015908062001840575b506200183d575060ca5490565b90565b908162001850575b503862001830565b90503862001848565b156200186157565b60405162461bcd60e51b815260206004820152602c60248201527f46756e6374696f6e206d7573742062652063616c6c6564207468726f7567682060448201526b19195b1959d85d1958d85b1b60a21b6064820152608490fd5b15620018c357565b60405162461bcd60e51b815260206004820152602c60248201527f46756e6374696f6e206d7573742062652063616c6c6564207468726f7567682060448201526b6163746976652070726f787960a01b6064820152608490fd5b3d156200194d573d906200193182620017ef565b91620019416040519384620017cc565b82523d6000602084013e565b606090565b919082018092116200196057565b634e487b7160e01b600052601160045260246000fd5b903590601e1981360301821215620001b1570180359067ffffffffffffffff8211620001b1576020019160c0820236038313620001b157565b9190811015620019c05760c0020190565b634e487b7160e01b600052603260045260246000fd5b9035601e1982360301811215620001b157016020813591019167ffffffffffffffff8211620001b1578136038313620001b157565b908060209392818452848401376000828201840152601f01601f1916010190565b35908115158203620001b157565b919082519283825260005b84811062001a67575050826000602080949584010152601f8019910116010190565b60208183018101518483018201520162001a45565b903590601e1981360301821215620001b1570180359067ffffffffffffffff8211620001b157602001918136038313620001b157565b6097546001600160a01b0316330362001ac757565b606460405162461bcd60e51b815260206004820152602060248201527f4f776e61626c653a2063616c6c6572206973206e6f7420746865206f776e65726044820152fd5b609780546001600160a01b039283166001600160a01b0319821681179092559091167f8be0079c531659141344cd1fd0a4f28419497f9722a3daafe3b4186f6b6457e0600080a3565b1562001b5c57565b60405162461bcd60e51b815260206004820152602b60248201527f496e697469616c697a61626c653a20636f6e7472616374206973206e6f74206960448201526a6e697469616c697a696e6760a81b6064820152608490fd5b803b1562001bec576000805160206200210183398151915280546001600160a01b0319166001600160a01b03909216919091179055565b60405162461bcd60e51b815260206004820152602d60248201527f455243313936373a206e657720696d706c656d656e746174696f6e206973206e60448201526c1bdd08184818dbdb9d1c9858dd609a1b6064820152608490fd5b9192901562001cac575081511562001c5d575090565b3b1562001c675790565b60405162461bcd60e51b815260206004820152601d60248201527f416464726573733a2063616c6c20746f206e6f6e2d636f6e74726163740000006044820152606490fd5b82519091501562001cc05750805190602001fd5b60405162461bcd60e51b81526020600482015290819062001ce690602483019062001a3a565b0390fdfe604060808152610416908138038061001681610218565b93843982019181818403126102135780516001600160a01b038116808203610213576020838101516001600160401b0394919391858211610213570186601f820112156102135780519061007161006c83610253565b610218565b918083528583019886828401011161021357888661008f930161026e565b813b156101b9577f360894a13ba1a3210667c828492db98dca3e2076cc3735a920a3ca505d382bbc80546001600160a01b031916841790556000927fbc7cd75a20ee27fd9adebab32041f755214dbc6bffa90cc0225b39da2e5c2d3b8480a28051158015906101b2575b61010b575b855160d190816103458239f35b855194606086019081118682101761019e578697849283926101889952602788527f416464726573733a206c6f772d6c6576656c2064656c65676174652063616c6c87890152660819985a5b195960ca1b8a8901525190845af4913d15610194573d9061017a61006c83610253565b91825281943d92013e610291565b508038808080806100fe565b5060609250610291565b634e487b7160e01b84526041600452602484fd5b50826100f9565b855162461bcd60e51b815260048101859052602d60248201527f455243313936373a206e657720696d706c656d656e746174696f6e206973206e60448201526c1bdd08184818dbdb9d1c9858dd609a1b6064820152608490fd5b600080fd5b6040519190601f01601f191682016001600160401b0381118382101761023d57604052565b634e487b7160e01b600052604160045260246000fd5b6001600160401b03811161023d57601f01601f191660200190565b60005b8381106102815750506000910152565b8181015183820152602001610271565b919290156102f357508151156102a5575090565b3b156102ae5790565b60405162461bcd60e51b815260206004820152601d60248201527f416464726573733a2063616c6c20746f206e6f6e2d636f6e74726163740000006044820152606490fd5b8251909150156103065750805190602001fd5b6044604051809262461bcd60e51b825260206004830152610336815180928160248601526020868601910161026e565b601f01601f19168101030190fdfe608060405236156054577f360894a13ba1a3210667c828492db98dca3e2076cc3735a920a3ca505d382bbc54600090819081906001600160a01b0316368280378136915af43d82803e156050573d90f35b3d90fd5b7f360894a13ba1a3210667c828492db98dca3e2076cc3735a920a3ca505d382bbc54600090819081906001600160a01b0316368280378136915af43d82803e156050573d90f3fea264697066735822122030ade24792416a57d4529afbb56817b4411c22cc00ef8c3e8e9dd6ea015f4e2564736f6c63430008160033360894a13ba1a3210667c828492db98dca3e2076cc3735a920a3ca505d382bbca2646970667358221220a4266b524ba7be12da69f21685cf219f31a42b42443515942cb9e0f96d8f526f64736f6c63430008160033","opcodes":"PUSH1 0xA0 DUP1 PUSH1 0x40 MSTORE CALLVALUE PUSH2 0x31 JUMPI ADDRESS PUSH1 0x80 MSTORE PUSH2 0x2156 SWAP1 DUP2 PUSH2 0x37 DUP3 CODECOPY PUSH1 0x80 MLOAD DUP2 DUP2 DUP2 PUSH2 0x10A4 ADD MSTORE DUP2 DUP2 PUSH2 0x11DE ADD MSTORE PUSH2 0x14E0 ADD MSTORE RETURN JUMPDEST PUSH1 0x0 DUP1 REVERT INVALID PUSH1 0x80 PUSH1 0x40 MSTORE PUSH1 0x4 CALLDATASIZE LT ISZERO PUSH3 0x13 JUMPI PUSH1 0x0 DUP1 REVERT JUMPDEST PUSH1 0x0 CALLDATALOAD PUSH1 0xE0 SHR DUP1 PUSH4 0x25B22BC EQ PUSH3 0x16EF JUMPI DUP1 PUSH4 0x1652DA42 EQ PUSH3 0x16BE JUMPI DUP1 PUSH4 0x3659CFE6 EQ PUSH3 0x14B8 JUMPI DUP1 PUSH4 0x476343EE EQ PUSH3 0x143D JUMPI DUP1 PUSH4 0x4F1EF286 EQ PUSH3 0x1157 JUMPI DUP1 PUSH4 0x52D1902D EQ PUSH3 0x108F JUMPI DUP1 PUSH4 0x5C60DA1B EQ PUSH3 0x1064 JUMPI DUP1 PUSH4 0x715018A6 EQ PUSH3 0x1003 JUMPI DUP1 PUSH4 0x75F839A2 EQ PUSH3 0x681 JUMPI DUP1 PUSH4 0x8DA5CB5B EQ PUSH3 0x656 JUMPI DUP1 PUSH4 0xAE6862FF EQ PUSH3 0x5F7 JUMPI DUP1 PUSH4 0xB8A6F402 EQ PUSH3 0x5B9 JUMPI DUP1 PUSH4 0xC00BE1A0 EQ PUSH3 0x4FC JUMPI DUP1 PUSH4 0xC05DDDA8 EQ PUSH3 0x4BE JUMPI DUP1 PUSH4 0xC4D66DE8 EQ PUSH3 0x334 JUMPI DUP1 PUSH4 0xC78418B9 EQ PUSH3 0x2F5 JUMPI DUP1 PUSH4 0xCBF1208F EQ PUSH3 0x284 JUMPI DUP1 PUSH4 0xD002462B EQ PUSH3 0x234 JUMPI DUP1 PUSH4 0xEC81AADB EQ PUSH3 0x1D6 JUMPI DUP1 PUSH4 0xF2CFF57F EQ PUSH3 0x1B6 JUMPI PUSH4 0xF2FDE38B EQ PUSH3 0x119 JUMPI PUSH1 0x0 DUP1 REVERT JUMPDEST CALLVALUE PUSH3 0x1B1 JUMPI PUSH1 0x20 CALLDATASIZE PUSH1 0x3 NOT ADD SLT PUSH3 0x1B1 JUMPI PUSH3 0x136 PUSH3 0x1783 JUMP JUMPDEST PUSH3 0x140 PUSH3 0x1AB2 JUMP JUMPDEST PUSH1 0x1 PUSH1 0x1 PUSH1 0xA0 SHL SUB DUP2 AND ISZERO PUSH3 0x15D JUMPI PUSH3 0x15B SWAP1 PUSH3 0x1B0B JUMP JUMPDEST STOP JUMPDEST PUSH1 0x40 MLOAD PUSH3 0x461BCD PUSH1 0xE5 SHL DUP2 MSTORE PUSH1 0x20 PUSH1 0x4 DUP3 ADD MSTORE PUSH1 0x26 PUSH1 0x24 DUP3 ADD MSTORE PUSH32 0x4F776E61626C653A206E6577206F776E657220697320746865207A65726F2061 PUSH1 0x44 DUP3 ADD MSTORE PUSH6 0x646472657373 PUSH1 0xD0 SHL PUSH1 0x64 DUP3 ADD MSTORE PUSH1 0x84 SWAP1 REVERT JUMPDEST PUSH1 0x0 DUP1 REVERT JUMPDEST CALLVALUE PUSH3 0x1B1 JUMPI PUSH1 0x0 CALLDATASIZE PUSH1 0x3 NOT ADD SLT PUSH3 0x1B1 JUMPI PUSH1 0x20 PUSH1 0xCA SLOAD PUSH1 0x40 MLOAD SWAP1 DUP2 MSTORE RETURN JUMPDEST CALLVALUE PUSH3 0x1B1 JUMPI PUSH1 0x20 CALLDATASIZE PUSH1 0x3 NOT ADD SLT PUSH3 0x1B1 JUMPI PUSH1 0x4 CALLDATALOAD PUSH1 0xCB SLOAD DUP2 LT ISZERO PUSH3 0x1B1 JUMPI PUSH1 0xCB PUSH1 0x0 MSTORE PUSH32 0xA7CE836D032B2BF62B7E2097A8E0A6D8AEB35405AD15271E96D3B0188A1D06FB ADD SLOAD PUSH1 0x40 MLOAD PUSH1 0x1 PUSH1 0x1 PUSH1 0xA0 SHL SUB SWAP1 SWAP2 AND DUP2 MSTORE PUSH1 0x20 SWAP1 RETURN JUMPDEST CALLVALUE PUSH3 0x1B1 JUMPI PUSH1 0x20 CALLDATASIZE PUSH1 0x3 NOT ADD SLT PUSH3 0x1B1 JUMPI PUSH32 0x40BD824D588484917DB8FA4FC894C1E0FEAE5A75885290BA7B97521CEBF82A80 PUSH1 0x20 PUSH1 0x4 CALLDATALOAD PUSH3 0x277 PUSH3 0x1AB2 JUMP JUMPDEST DUP1 PUSH1 0xCA SSTORE PUSH1 0x40 MLOAD SWAP1 DUP2 MSTORE LOG1 STOP JUMPDEST CALLVALUE PUSH3 0x1B1 JUMPI PUSH1 0x40 CALLDATASIZE PUSH1 0x3 NOT ADD SLT PUSH3 0x1B1 JUMPI PUSH3 0x2A1 PUSH3 0x1783 JUMP JUMPDEST PUSH32 0x35250FF587E06567C2FA9D4B3191805958A937530B0E88CFCE4C9C4DCDEF1B3 PUSH1 0x20 PUSH1 0x24 CALLDATALOAD SWAP3 PUSH3 0x2D2 PUSH3 0x1AB2 JUMP JUMPDEST PUSH1 0x1 PUSH1 0x1 PUSH1 0xA0 SHL SUB AND PUSH1 0x0 DUP2 DUP2 MSTORE PUSH1 0xCF DUP4 MSTORE PUSH1 0x40 SWAP1 DUP2 SWAP1 KECCAK256 DUP6 SWAP1 SSTORE MLOAD SWAP4 DUP5 MSTORE SWAP3 LOG2 STOP JUMPDEST CALLVALUE PUSH3 0x1B1 JUMPI PUSH1 0x20 CALLDATASIZE PUSH1 0x3 NOT ADD SLT PUSH3 0x1B1 JUMPI PUSH1 0x20 PUSH1 0x1 PUSH1 0x1 PUSH1 0xA0 SHL SUB DUP1 PUSH3 0x31D PUSH3 0x1783 JUMP JUMPDEST AND PUSH1 0x0 MSTORE PUSH1 0xCE DUP3 MSTORE PUSH1 0x40 PUSH1 0x0 KECCAK256 SLOAD AND PUSH1 0x40 MLOAD SWAP1 DUP2 MSTORE RETURN JUMPDEST CALLVALUE PUSH3 0x1B1 JUMPI PUSH1 0x20 CALLDATASIZE PUSH1 0x3 NOT ADD SLT PUSH3 0x1B1 JUMPI PUSH3 0x351 PUSH3 0x1783 JUMP JUMPDEST PUSH1 0x0 SLOAD PUSH1 0xFF DUP2 PUSH1 0x8 SHR AND ISZERO SWAP1 DUP2 DUP1 SWAP3 PUSH3 0x4B0 JUMPI JUMPDEST DUP1 ISZERO PUSH3 0x497 JUMPI JUMPDEST ISZERO PUSH3 0x43B JUMPI PUSH1 0xFF NOT DUP2 AND PUSH1 0x1 OR PUSH1 0x0 SSTORE DUP2 PUSH3 0x428 JUMPI JUMPDEST POP PUSH3 0x3A5 PUSH1 0xFF PUSH1 0x0 SLOAD PUSH1 0x8 SHR AND PUSH3 0x39F DUP2 PUSH3 0x1B54 JUMP JUMPDEST PUSH3 0x1B54 JUMP JUMPDEST PUSH3 0x3B0 CALLER PUSH3 0x1B0B JUMP JUMPDEST PUSH1 0x0 SLOAD SWAP2 PUSH3 0x3C5 PUSH1 0xFF DUP5 PUSH1 0x8 SHR AND PUSH3 0x1B54 JUMP JUMPDEST PUSH1 0x1 DUP1 PUSH1 0xA0 SHL SUB AND PUSH1 0x1 PUSH1 0x1 PUSH1 0x60 SHL SUB PUSH1 0xA0 SHL PUSH1 0xC9 SLOAD AND OR PUSH1 0xC9 SSTORE PUSH8 0x16345785D8A0000 PUSH1 0xCA SSTORE PUSH3 0x3F3 JUMPI STOP JUMPDEST PUSH2 0xFF00 NOT AND PUSH1 0x0 SSTORE PUSH32 0x7F26B83FF96E1F2B6A682F133852F6798A09C465DA95921460CEFB3847402498 PUSH1 0x20 PUSH1 0x40 MLOAD PUSH1 0x1 DUP2 MSTORE LOG1 STOP JUMPDEST PUSH2 0xFFFF NOT AND PUSH2 0x101 OR PUSH1 0x0 SSTORE DUP3 PUSH3 0x386 JUMP JUMPDEST PUSH1 0x40 MLOAD PUSH3 0x461BCD PUSH1 0xE5 SHL DUP2 MSTORE PUSH1 0x20 PUSH1 0x4 DUP3 ADD MSTORE PUSH1 0x2E PUSH1 0x24 DUP3 ADD MSTORE PUSH32 0x496E697469616C697A61626C653A20636F6E747261637420697320616C726561 PUSH1 0x44 DUP3 ADD MSTORE PUSH14 0x191E481A5B9A5D1A585B1A5E9959 PUSH1 0x92 SHL PUSH1 0x64 DUP3 ADD MSTORE PUSH1 0x84 SWAP1 REVERT JUMPDEST POP ADDRESS EXTCODESIZE ISZERO DUP1 ISZERO PUSH3 0x36E JUMPI POP PUSH1 0x1 PUSH1 0xFF DUP3 AND EQ PUSH3 0x36E JUMP JUMPDEST POP PUSH1 0x1 PUSH1 0xFF DUP3 AND LT PUSH3 0x366 JUMP JUMPDEST CALLVALUE PUSH3 0x1B1 JUMPI PUSH1 0x20 CALLDATASIZE PUSH1 0x3 NOT ADD SLT PUSH3 0x1B1 JUMPI PUSH1 0x1 PUSH1 0x1 PUSH1 0xA0 SHL SUB PUSH3 0x4E3 PUSH3 0x1783 JUMP JUMPDEST AND PUSH1 0x0 MSTORE PUSH1 0xCF PUSH1 0x20 MSTORE PUSH1 0x20 PUSH1 0x40 PUSH1 0x0 KECCAK256 SLOAD PUSH1 0x40 MLOAD SWAP1 DUP2 MSTORE RETURN JUMPDEST CALLVALUE PUSH3 0x1B1 JUMPI PUSH1 0x20 DUP1 PUSH1 0x3 NOT CALLDATASIZE ADD SLT PUSH3 0x1B1 JUMPI PUSH1 0x1 PUSH1 0x1 PUSH1 0xA0 SHL SUB SWAP1 DUP2 PUSH3 0x524 PUSH3 0x1783 JUMP JUMPDEST AND PUSH1 0x0 MSTORE PUSH1 0xCC DUP2 MSTORE PUSH1 0x40 PUSH1 0x0 KECCAK256 PUSH1 0x40 MLOAD SWAP2 DUP3 DUP2 DUP4 SLOAD SWAP2 DUP3 DUP2 MSTORE ADD SWAP1 DUP2 SWAP4 PUSH1 0x0 MSTORE DUP3 PUSH1 0x0 KECCAK256 SWAP1 PUSH1 0x0 JUMPDEST DUP2 DUP2 LT PUSH3 0x5A2 JUMPI POP POP POP DUP4 PUSH3 0x565 SWAP2 SUB DUP5 PUSH3 0x17CC JUMP JUMPDEST PUSH1 0x40 MLOAD SWAP3 DUP2 DUP5 ADD SWAP1 DUP3 DUP6 MSTORE MLOAD DUP1 SWAP2 MSTORE PUSH1 0x40 DUP5 ADD SWAP3 SWAP2 PUSH1 0x0 JUMPDEST DUP3 DUP2 LT PUSH3 0x58B JUMPI DUP6 DUP6 SUB DUP7 RETURN JUMPDEST DUP4 MLOAD DUP8 AND DUP6 MSTORE SWAP4 DUP2 ADD SWAP4 SWAP3 DUP2 ADD SWAP3 PUSH1 0x1 ADD PUSH3 0x57D JUMP JUMPDEST DUP3 SLOAD DUP9 AND DUP5 MSTORE SWAP3 DUP5 ADD SWAP3 PUSH1 0x1 SWAP3 DUP4 ADD SWAP3 ADD PUSH3 0x54C JUMP JUMPDEST CALLVALUE PUSH3 0x1B1 JUMPI PUSH1 0x20 CALLDATASIZE PUSH1 0x3 NOT ADD SLT PUSH3 0x1B1 JUMPI PUSH1 0x1 PUSH1 0x1 PUSH1 0xA0 SHL SUB PUSH3 0x5DE PUSH3 0x1783 JUMP JUMPDEST AND PUSH1 0x0 MSTORE PUSH1 0xCC PUSH1 0x20 MSTORE PUSH1 0x20 PUSH1 0x40 PUSH1 0x0 KECCAK256 SLOAD PUSH1 0x40 MLOAD SWAP1 DUP2 MSTORE RETURN JUMPDEST CALLVALUE PUSH3 0x1B1 JUMPI PUSH1 0x40 CALLDATASIZE PUSH1 0x3 NOT ADD SLT PUSH3 0x1B1 JUMPI PUSH3 0x614 PUSH3 0x1783 JUMP JUMPDEST PUSH1 0x1 PUSH1 0x1 PUSH1 0xA0 SHL SUB PUSH1 0x24 CALLDATALOAD DUP2 DUP2 AND SWAP3 SWAP1 DUP4 SWAP1 SUB PUSH3 0x1B1 JUMPI AND PUSH1 0x0 MSTORE PUSH1 0xCD PUSH1 0x20 MSTORE PUSH1 0x40 PUSH1 0x0 KECCAK256 SWAP1 PUSH1 0x0 MSTORE PUSH1 0x20 MSTORE PUSH1 0x20 PUSH1 0xFF PUSH1 0x40 PUSH1 0x0 KECCAK256 SLOAD AND PUSH1 0x40 MLOAD SWAP1 ISZERO ISZERO DUP2 MSTORE RETURN JUMPDEST CALLVALUE PUSH3 0x1B1 JUMPI PUSH1 0x0 CALLDATASIZE PUSH1 0x3 NOT ADD SLT PUSH3 0x1B1 JUMPI PUSH1 0x97 SLOAD PUSH1 0x40 MLOAD PUSH1 0x1 PUSH1 0x1 PUSH1 0xA0 SHL SUB SWAP1 SWAP2 AND DUP2 MSTORE PUSH1 0x20 SWAP1 RETURN JUMPDEST PUSH1 0x3 NOT PUSH1 0x20 CALLDATASIZE DUP3 ADD SLT PUSH3 0x1B1 JUMPI PUSH8 0xFFFFFFFFFFFFFFFF PUSH1 0x4 CALLDATALOAD GT PUSH3 0x1B1 JUMPI PUSH2 0x240 SWAP1 PUSH1 0x4 CALLDATALOAD CALLDATASIZE SUB ADD SLT PUSH3 0x1B1 JUMPI PUSH3 0x6BC CALLER PUSH3 0x180C JUMP JUMPDEST CALLVALUE LT PUSH3 0xFBE JUMPI PUSH2 0x1C4 PUSH1 0x4 CALLDATALOAD ADD CALLDATALOAD ISZERO PUSH3 0xF79 JUMPI PUSH2 0x1E4 PUSH1 0x4 CALLDATALOAD ADD CALLDATALOAD ISZERO PUSH3 0xF35 JUMPI PUSH3 0x6F9 PUSH2 0x1E4 PUSH1 0x4 CALLDATALOAD ADD CALLDATALOAD PUSH2 0x1C4 PUSH1 0x4 CALLDATALOAD ADD CALLDATALOAD PUSH3 0x1952 JUMP JUMPDEST PUSH3 0x710 PUSH2 0x224 PUSH1 0x4 CALLDATALOAD ADD PUSH1 0x4 CALLDATALOAD PUSH1 0x4 ADD PUSH3 0x1976 JUMP JUMPDEST ISZERO SWAP1 POP PUSH3 0xEB9 JUMPI PUSH1 0x0 SWAP1 JUMPDEST PUSH3 0x733 PUSH2 0x224 PUSH1 0x4 CALLDATALOAD ADD PUSH1 0x4 CALLDATALOAD PUSH1 0x4 ADD PUSH3 0x1976 JUMP JUMPDEST SWAP1 POP DUP3 LT ISZERO PUSH3 0x9FF JUMPI PUSH3 0x760 DUP3 PUSH3 0x759 PUSH2 0x224 PUSH1 0x4 CALLDATALOAD ADD PUSH1 0x4 CALLDATALOAD PUSH1 0x4 ADD PUSH3 0x1976 JUMP JUMPDEST SWAP1 PUSH3 0x19AF JUMP JUMPDEST CALLDATALOAD PUSH1 0x1 PUSH1 0x1 PUSH1 0xA0 SHL SUB DUP2 AND SWAP1 DUP2 SWAP1 SUB PUSH3 0x1B1 JUMPI ISZERO PUSH3 0x9BA JUMPI PUSH1 0x20 PUSH3 0x798 DUP4 PUSH3 0x759 PUSH2 0x224 PUSH1 0x4 CALLDATALOAD ADD PUSH1 0x4 CALLDATALOAD PUSH1 0x4 ADD PUSH3 0x1976 JUMP JUMPDEST ADD CALLDATALOAD ISZERO PUSH3 0x975 JUMPI PUSH1 0x40 PUSH3 0x7BE DUP4 PUSH3 0x759 PUSH2 0x224 PUSH1 0x4 CALLDATALOAD ADD PUSH1 0x4 CALLDATALOAD PUSH1 0x4 ADD PUSH3 0x1976 JUMP JUMPDEST ADD CALLDATALOAD DUP1 ISZERO ISZERO DUP2 SUB PUSH3 0x1B1 JUMPI PUSH3 0x807 JUMPI JUMPDEST PUSH3 0x7FE PUSH1 0x1 SWAP2 PUSH1 0x20 PUSH3 0x7F5 DUP6 PUSH3 0x759 PUSH2 0x224 PUSH1 0x4 CALLDATALOAD ADD PUSH1 0x4 CALLDATALOAD PUSH1 0x4 ADD PUSH3 0x1976 JUMP JUMPDEST ADD CALLDATALOAD SWAP1 PUSH3 0x1952 JUMP JUMPDEST SWAP2 ADD SWAP1 PUSH3 0x71C JUMP JUMPDEST PUSH1 0x60 PUSH3 0x825 DUP4 PUSH3 0x759 PUSH2 0x224 PUSH1 0x4 CALLDATALOAD ADD PUSH1 0x4 CALLDATALOAD PUSH1 0x4 ADD PUSH3 0x1976 JUMP JUMPDEST ADD CALLDATALOAD ISZERO PUSH3 0x930 JUMPI PUSH1 0xA0 PUSH3 0x84B DUP4 PUSH3 0x759 PUSH2 0x224 PUSH1 0x4 CALLDATALOAD ADD PUSH1 0x4 CALLDATALOAD PUSH1 0x4 ADD PUSH3 0x1976 JUMP JUMPDEST ADD CALLDATALOAD ISZERO PUSH3 0x8EB JUMPI PUSH1 0x80 PUSH3 0x871 DUP4 PUSH3 0x759 PUSH2 0x224 PUSH1 0x4 CALLDATALOAD ADD PUSH1 0x4 CALLDATALOAD PUSH1 0x4 ADD PUSH3 0x1976 JUMP JUMPDEST ADD CALLDATALOAD PUSH1 0x60 PUSH3 0x891 DUP5 PUSH3 0x759 PUSH2 0x224 PUSH1 0x4 CALLDATALOAD ADD PUSH1 0x4 CALLDATALOAD PUSH1 0x4 ADD PUSH3 0x1976 JUMP JUMPDEST ADD CALLDATALOAD LT ISZERO PUSH3 0x7D0 JUMPI PUSH1 0x40 MLOAD PUSH3 0x461BCD PUSH1 0xE5 SHL DUP2 MSTORE PUSH1 0x20 PUSH1 0x4 DUP3 ADD MSTORE PUSH1 0x23 PUSH1 0x24 DUP3 ADD MSTORE PUSH32 0x436C6966662063616E6E6F74206265206C6F6E676572207468616E2076657374 PUSH1 0x44 DUP3 ADD MSTORE PUSH3 0x696E67 PUSH1 0xE8 SHL PUSH1 0x64 DUP3 ADD MSTORE PUSH1 0x84 SWAP1 REVERT JUMPDEST PUSH1 0x40 MLOAD PUSH3 0x461BCD PUSH1 0xE5 SHL DUP2 MSTORE PUSH1 0x20 PUSH1 0x4 DUP3 ADD MSTORE PUSH1 0x1E PUSH1 0x24 DUP3 ADD MSTORE PUSH32 0x56657374696E672073746172742074696D65206D757374206265203E20300000 PUSH1 0x44 DUP3 ADD MSTORE PUSH1 0x64 SWAP1 REVERT JUMPDEST PUSH1 0x40 MLOAD PUSH3 0x461BCD PUSH1 0xE5 SHL DUP2 MSTORE PUSH1 0x20 PUSH1 0x4 DUP3 ADD MSTORE PUSH1 0x1C PUSH1 0x24 DUP3 ADD MSTORE PUSH32 0x56657374696E67206475726174696F6E206D757374206265203E203000000000 PUSH1 0x44 DUP3 ADD MSTORE PUSH1 0x64 SWAP1 REVERT JUMPDEST PUSH1 0x40 MLOAD PUSH3 0x461BCD PUSH1 0xE5 SHL DUP2 MSTORE PUSH1 0x20 PUSH1 0x4 DUP3 ADD MSTORE PUSH1 0x1D PUSH1 0x24 DUP3 ADD MSTORE PUSH32 0x57616C6C65742070657263656E74616765206D757374206265203E2030000000 PUSH1 0x44 DUP3 ADD MSTORE PUSH1 0x64 SWAP1 REVERT JUMPDEST PUSH1 0x40 MLOAD PUSH3 0x461BCD PUSH1 0xE5 SHL DUP2 MSTORE PUSH1 0x20 PUSH1 0x4 DUP3 ADD MSTORE PUSH1 0x1D PUSH1 0x24 DUP3 ADD MSTORE PUSH32 0x57616C6C657420616464726573732063616E6E6F74206265207A65726F000000 PUSH1 0x44 DUP3 ADD MSTORE PUSH1 0x64 SWAP1 REVERT JUMPDEST PUSH1 0x64 SWAP2 POP JUMPDEST SUB PUSH3 0xE74 JUMPI PUSH1 0x40 MLOAD PUSH4 0xA18EF321 PUSH1 0xE0 SHL PUSH1 0x20 DUP3 ADD MSTORE PUSH1 0x24 PUSH1 0x20 DUP2 DUP4 ADD MSTORE PUSH3 0xA50 PUSH3 0xA3C PUSH1 0x4 CALLDATALOAD PUSH1 0x4 ADD PUSH1 0x4 CALLDATALOAD PUSH1 0x4 ADD PUSH3 0x19D6 JUMP JUMPDEST PUSH2 0x240 PUSH1 0x44 DUP7 ADD MSTORE PUSH2 0x284 DUP6 ADD SWAP2 PUSH3 0x1A0B JUMP JUMPDEST DUP2 PUSH1 0x4 CALLDATALOAD ADD SWAP3 PUSH3 0xA80 PUSH3 0xA6B DUP6 PUSH1 0x4 CALLDATALOAD PUSH1 0x4 ADD PUSH3 0x19D6 JUMP JUMPDEST PUSH1 0x43 NOT DUP5 DUP7 SUB DUP2 ADD PUSH1 0x64 DUP7 ADD MSTORE SWAP5 SWAP2 PUSH3 0x1A0B JUMP JUMPDEST SWAP2 PUSH1 0x44 PUSH1 0x4 CALLDATALOAD ADD CALLDATALOAD PUSH1 0x84 DUP4 ADD MSTORE PUSH1 0x64 PUSH1 0x4 CALLDATALOAD ADD CALLDATALOAD PUSH1 0xA4 DUP4 ADD MSTORE PUSH3 0xAA9 PUSH1 0x84 PUSH1 0x4 CALLDATALOAD ADD PUSH3 0x179A JUMP JUMPDEST PUSH1 0x1 PUSH1 0x1 PUSH1 0xA0 SHL SUB SWAP1 DUP2 AND PUSH1 0xC4 DUP5 ADD MSTORE SWAP3 PUSH3 0xACA PUSH1 0x4 CALLDATALOAD PUSH1 0xA4 ADD PUSH3 0x1A2C JUMP JUMPDEST ISZERO ISZERO PUSH1 0xE4 DUP5 ADD MSTORE PUSH3 0xAE1 PUSH1 0xC4 PUSH1 0x4 CALLDATALOAD ADD PUSH3 0x1A2C JUMP JUMPDEST PUSH2 0x104 SWAP1 ISZERO ISZERO DUP2 DUP6 ADD MSTORE PUSH2 0x124 SWAP1 PUSH1 0xE4 PUSH1 0x4 CALLDATALOAD ADD CALLDATALOAD DUP3 DUP7 ADD MSTORE PUSH2 0x144 SWAP1 PUSH1 0x4 CALLDATALOAD ADD CALLDATALOAD DUP2 DUP7 ADD MSTORE PUSH2 0x164 SWAP2 PUSH1 0x4 CALLDATALOAD ADD CALLDATALOAD DUP3 DUP7 ADD MSTORE PUSH2 0x184 SWAP1 PUSH1 0x4 CALLDATALOAD ADD CALLDATALOAD DUP2 DUP7 ADD MSTORE PUSH2 0x1A4 SWAP2 PUSH1 0x4 CALLDATALOAD ADD CALLDATALOAD DUP3 DUP7 ADD MSTORE PUSH1 0x4 CALLDATALOAD ADD CALLDATALOAD PUSH2 0x1C4 DUP6 ADD MSTORE PUSH1 0x4 CALLDATALOAD ADD CALLDATALOAD PUSH2 0x1E4 DUP5 ADD MSTORE PUSH2 0x204 PUSH2 0x1C4 PUSH1 0x4 CALLDATALOAD ADD CALLDATALOAD DUP2 DUP6 ADD MSTORE PUSH2 0x1E4 PUSH1 0x4 CALLDATALOAD ADD CALLDATALOAD PUSH2 0x224 DUP6 ADD MSTORE PUSH1 0x4 CALLDATALOAD ADD CALLDATALOAD PUSH2 0x244 DUP5 ADD MSTORE PUSH2 0x224 PUSH1 0x4 CALLDATALOAD ADD CALLDATALOAD PUSH1 0x22 NOT PUSH1 0x4 CALLDATALOAD CALLDATASIZE SUB ADD DUP2 SLT ISZERO PUSH3 0x1B1 JUMPI PUSH1 0x4 CALLDATALOAD ADD SWAP1 DUP6 PUSH1 0x4 DUP4 ADD CALLDATALOAD SWAP3 ADD SWAP3 PUSH8 0xFFFFFFFFFFFFFFFF DUP4 GT PUSH3 0x1B1 JUMPI PUSH1 0xC0 SWAP2 PUSH1 0xC0 DUP5 MUL CALLDATASIZE SUB DUP6 SGT PUSH3 0x1B1 JUMPI DUP6 DUP2 SUB SWAP1 SWAP2 ADD PUSH2 0x264 DUP7 ADD MSTORE DUP3 DUP2 MSTORE DUP5 SWAP3 PUSH1 0x20 SWAP1 SWAP2 ADD SWAP2 PUSH1 0x0 JUMPDEST DUP3 DUP2 LT PUSH3 0xE0E JUMPI POP POP POP PUSH3 0xBED SWAP3 POP SUB PUSH1 0x1F NOT DUP2 ADD DUP4 MSTORE DUP3 PUSH3 0x17CC JUMP JUMPDEST DUP2 PUSH1 0xC9 SLOAD AND SWAP1 PUSH1 0x40 MLOAD SWAP2 PUSH2 0x416 SWAP1 DUP2 DUP5 ADD SWAP2 DUP5 DUP4 LT PUSH8 0xFFFFFFFFFFFFFFFF DUP5 GT OR PUSH3 0xDF9 JUMPI PUSH3 0xC34 SWAP3 DUP6 SWAP5 SWAP3 PUSH1 0x40 SWAP3 PUSH3 0x1CEB DUP8 CODECOPY DUP2 MSTORE DUP2 PUSH1 0x20 DUP3 ADD MSTORE ADD SWAP1 PUSH3 0x1A3A JUMP JUMPDEST SUB SWAP1 PUSH1 0x0 CREATE DUP1 ISZERO PUSH3 0xDED JUMPI AND SWAP1 PUSH1 0xCB SLOAD PUSH9 0x10000000000000000 SWAP1 DUP2 DUP2 LT ISZERO PUSH3 0xDD8 JUMPI PUSH1 0x1 DUP2 ADD DUP1 PUSH1 0xCB SSTORE DUP2 LT ISZERO PUSH3 0xDC3 JUMPI PUSH32 0xA7CE836D032B2BF62B7E2097A8E0A6D8AEB35405AD15271E96D3B0188A1D06FB ADD SWAP2 PUSH1 0x1 PUSH1 0x1 PUSH1 0x60 SHL SUB PUSH1 0xA0 SHL SWAP3 DUP5 DUP5 DUP3 SLOAD AND OR SWAP1 SSTORE CALLER PUSH1 0x0 MSTORE PUSH1 0xCC PUSH1 0x20 MSTORE PUSH1 0x40 PUSH1 0x0 KECCAK256 SWAP1 DUP2 SLOAD SWAP3 DUP4 LT ISZERO PUSH3 0xDAF JUMPI PUSH1 0x1 DUP4 ADD DUP1 DUP4 SSTORE DUP4 LT ISZERO PUSH3 0xD9B JUMPI POP PUSH1 0x20 SWAP5 PUSH3 0xD90 SWAP4 DUP6 SWAP4 PUSH32 0xD5D05A8421149C74FD223CFC823BEFB883BABF9BF0B0E4D6BF9C8FDB70E59BB4 SWAP4 PUSH1 0x0 MSTORE DUP8 PUSH1 0x0 KECCAK256 ADD DUP5 DUP3 DUP3 SLOAD AND OR SWAP1 SSTORE CALLER PUSH1 0x0 MSTORE PUSH1 0xCD DUP8 MSTORE PUSH1 0x40 PUSH1 0x0 KECCAK256 DUP5 PUSH1 0x0 MSTORE DUP8 MSTORE PUSH1 0x40 PUSH1 0x0 KECCAK256 PUSH1 0x1 PUSH1 0xFF NOT DUP3 SLOAD AND OR SWAP1 SSTORE PUSH1 0xCE DUP8 MSTORE PUSH1 0x40 PUSH1 0x0 KECCAK256 SWAP1 CALLER SWAP1 DUP3 SLOAD AND OR SWAP1 SSTORE PUSH3 0xD64 PUSH3 0xD55 PUSH1 0x4 CALLDATALOAD PUSH1 0x4 ADD PUSH1 0x4 CALLDATALOAD PUSH1 0x4 ADD PUSH3 0x1A7C JUMP JUMPDEST SWAP2 SWAP1 SWAP3 PUSH1 0x4 CALLDATALOAD PUSH1 0x4 ADD PUSH3 0x1A7C JUMP JUMPDEST PUSH3 0xD80 PUSH1 0x40 SWAP8 SWAP3 SWAP8 MLOAD SWAP5 DUP6 SWAP5 PUSH1 0x40 DUP7 MSTORE PUSH1 0x40 DUP7 ADD SWAP2 PUSH3 0x1A0B JUMP JUMPDEST SWAP1 DUP4 DUP3 SUB DUP11 DUP6 ADD MSTORE CALLER SWAP8 PUSH3 0x1A0B JUMP JUMPDEST SUB SWAP1 LOG3 PUSH1 0x40 MLOAD SWAP1 DUP2 MSTORE RETURN JUMPDEST PUSH4 0x4E487B71 PUSH1 0xE0 SHL PUSH1 0x0 SWAP1 DUP2 MSTORE PUSH1 0x32 PUSH1 0x4 MSTORE REVERT JUMPDEST PUSH4 0x4E487B71 PUSH1 0xE0 SHL PUSH1 0x0 SWAP1 DUP2 MSTORE PUSH1 0x41 PUSH1 0x4 MSTORE REVERT JUMPDEST DUP3 PUSH4 0x4E487B71 PUSH1 0xE0 SHL PUSH1 0x0 MSTORE PUSH1 0x32 PUSH1 0x4 MSTORE PUSH1 0x0 REVERT JUMPDEST DUP3 PUSH4 0x4E487B71 PUSH1 0xE0 SHL PUSH1 0x0 MSTORE PUSH1 0x41 PUSH1 0x4 MSTORE PUSH1 0x0 REVERT JUMPDEST PUSH1 0x40 MLOAD RETURNDATASIZE PUSH1 0x0 DUP3 RETURNDATACOPY RETURNDATASIZE SWAP1 REVERT JUMPDEST DUP7 PUSH4 0x4E487B71 PUSH1 0xE0 SHL PUSH1 0x0 MSTORE PUSH1 0x41 PUSH1 0x4 MSTORE PUSH1 0x0 REVERT JUMPDEST SWAP2 SWAP4 POP SWAP2 DUP3 DUP1 PUSH1 0x1 SWAP3 DUP10 PUSH3 0xE23 DUP10 PUSH3 0x179A JUMP JUMPDEST AND DUP2 MSTORE PUSH1 0x20 DUP9 ADD CALLDATALOAD PUSH1 0x20 DUP3 ADD MSTORE PUSH3 0xE3E PUSH1 0x40 DUP10 ADD PUSH3 0x1A2C JUMP JUMPDEST ISZERO ISZERO PUSH1 0x40 DUP3 ADD MSTORE PUSH1 0x60 DUP1 DUP10 ADD CALLDATALOAD SWAP1 DUP3 ADD MSTORE PUSH1 0x80 DUP1 DUP10 ADD CALLDATALOAD SWAP1 DUP3 ADD MSTORE PUSH1 0xA0 DUP1 DUP10 ADD CALLDATALOAD SWAP1 DUP3 ADD MSTORE ADD SWAP6 ADD SWAP2 ADD SWAP2 DUP6 SWAP4 SWAP2 SWAP5 SWAP3 PUSH3 0xBCD JUMP JUMPDEST PUSH1 0x40 MLOAD PUSH3 0x461BCD PUSH1 0xE5 SHL DUP2 MSTORE PUSH1 0x20 PUSH1 0x4 DUP3 ADD MSTORE PUSH1 0x1C PUSH1 0x24 DUP3 ADD MSTORE PUSH32 0x546F74616C2070657263656E74616765206D7573742062652031303000000000 PUSH1 0x44 DUP3 ADD MSTORE PUSH1 0x64 SWAP1 REVERT JUMPDEST PUSH1 0x64 DUP2 SUB PUSH3 0xECB JUMPI PUSH1 0x64 SWAP1 PUSH3 0xA04 JUMP JUMPDEST PUSH1 0x84 PUSH1 0x40 MLOAD PUSH3 0x461BCD PUSH1 0xE5 SHL DUP2 MSTORE PUSH1 0x20 PUSH1 0x4 DUP3 ADD MSTORE PUSH1 0x40 PUSH1 0x24 DUP3 ADD MSTORE PUSH32 0x50726573616C6520616E64206C6971756964697479206D75737420746F74616C PUSH1 0x44 DUP3 ADD MSTORE PUSH32 0x2031303025207768656E206E6F206164646974696F6E616C2077616C6C657473 PUSH1 0x64 DUP3 ADD MSTORE REVERT JUMPDEST PUSH1 0x64 PUSH1 0x40 MLOAD PUSH3 0x461BCD PUSH1 0xE5 SHL DUP2 MSTORE PUSH1 0x20 PUSH1 0x4 DUP3 ADD MSTORE PUSH1 0x20 PUSH1 0x24 DUP3 ADD MSTORE PUSH32 0x4C69717569646974792070657263656E74616765206D757374206265203E2030 PUSH1 0x44 DUP3 ADD MSTORE REVERT JUMPDEST PUSH1 0x40 MLOAD PUSH3 0x461BCD PUSH1 0xE5 SHL DUP2 MSTORE PUSH1 0x20 PUSH1 0x4 DUP3 ADD MSTORE PUSH1 0x1E PUSH1 0x24 DUP3 ADD MSTORE PUSH32 0x50726573616C652070657263656E74616765206D757374206265203E20300000 PUSH1 0x44 DUP3 ADD MSTORE PUSH1 0x64 SWAP1 REVERT JUMPDEST PUSH1 0x40 MLOAD PUSH3 0x461BCD PUSH1 0xE5 SHL DUP2 MSTORE PUSH1 0x20 PUSH1 0x4 DUP3 ADD MSTORE PUSH1 0x1B PUSH1 0x24 DUP3 ADD MSTORE PUSH32 0x496E73756666696369656E74206465706C6F796D656E74206665650000000000 PUSH1 0x44 DUP3 ADD MSTORE PUSH1 0x64 SWAP1 REVERT JUMPDEST CALLVALUE PUSH3 0x1B1 JUMPI PUSH1 0x0 CALLDATASIZE PUSH1 0x3 NOT ADD SLT PUSH3 0x1B1 JUMPI PUSH3 0x1020 PUSH3 0x1AB2 JUMP JUMPDEST PUSH1 0x97 DUP1 SLOAD PUSH1 0x1 PUSH1 0x1 PUSH1 0xA0 SHL SUB NOT DUP2 AND SWAP1 SWAP2 SSTORE PUSH1 0x0 SWAP1 PUSH1 0x1 PUSH1 0x1 PUSH1 0xA0 SHL SUB AND PUSH32 0x8BE0079C531659141344CD1FD0A4F28419497F9722A3DAAFE3B4186F6B6457E0 DUP3 DUP1 LOG3 STOP JUMPDEST CALLVALUE PUSH3 0x1B1 JUMPI PUSH1 0x0 CALLDATASIZE PUSH1 0x3 NOT ADD SLT PUSH3 0x1B1 JUMPI PUSH1 0xC9 SLOAD PUSH1 0x40 MLOAD PUSH1 0x1 PUSH1 0x1 PUSH1 0xA0 SHL SUB SWAP1 SWAP2 AND DUP2 MSTORE PUSH1 0x20 SWAP1 RETURN JUMPDEST CALLVALUE PUSH3 0x1B1 JUMPI PUSH1 0x0 CALLDATASIZE PUSH1 0x3 NOT ADD SLT PUSH3 0x1B1 JUMPI PUSH32 0x0 PUSH1 0x1 PUSH1 0x1 PUSH1 0xA0 SHL SUB AND ADDRESS SUB PUSH3 0x10EC JUMPI PUSH1 0x20 PUSH1 0x40 MLOAD PUSH1 0x0 DUP1 MLOAD PUSH1 0x20 PUSH3 0x2101 DUP4 CODECOPY DUP2 MLOAD SWAP2 MSTORE DUP2 MSTORE RETURN JUMPDEST PUSH1 0x40 MLOAD PUSH3 0x461BCD PUSH1 0xE5 SHL DUP2 MSTORE PUSH1 0x20 PUSH1 0x4 DUP3 ADD MSTORE PUSH1 0x38 PUSH1 0x24 DUP3 ADD MSTORE PUSH32 0x555550535570677261646561626C653A206D757374206E6F742062652063616C PUSH1 0x44 DUP3 ADD MSTORE PUSH32 0x6C6564207468726F7567682064656C656761746563616C6C0000000000000000 PUSH1 0x64 DUP3 ADD MSTORE PUSH1 0x84 SWAP1 REVERT JUMPDEST PUSH1 0x40 CALLDATASIZE PUSH1 0x3 NOT ADD SLT PUSH3 0x1B1 JUMPI PUSH3 0x116E PUSH3 0x1783 JUMP JUMPDEST PUSH1 0x24 CALLDATALOAD SWAP1 PUSH8 0xFFFFFFFFFFFFFFFF DUP3 GT PUSH3 0x1B1 JUMPI CALLDATASIZE PUSH1 0x23 DUP4 ADD SLT ISZERO PUSH3 0x1B1 JUMPI DUP2 PUSH1 0x4 ADD CALLDATALOAD PUSH3 0x119E DUP2 PUSH3 0x17EF JUMP JUMPDEST SWAP3 PUSH3 0x11AE PUSH1 0x40 MLOAD SWAP5 DUP6 PUSH3 0x17CC JUMP JUMPDEST DUP2 DUP5 MSTORE PUSH1 0x20 SWAP2 DUP3 DUP6 ADD SWAP2 CALLDATASIZE PUSH1 0x24 DUP4 DUP4 ADD ADD GT PUSH3 0x1B1 JUMPI DUP2 PUSH1 0x0 SWAP3 PUSH1 0x24 DUP7 SWAP4 ADD DUP6 CALLDATACOPY DUP7 ADD ADD MSTORE PUSH1 0x1 PUSH1 0x1 PUSH1 0xA0 SHL SUB PUSH32 0x0 DUP2 AND SWAP1 PUSH3 0x120E ADDRESS DUP4 EQ ISZERO PUSH3 0x1859 JUMP JUMPDEST PUSH3 0x122E PUSH1 0x0 DUP1 MLOAD PUSH1 0x20 PUSH3 0x2101 DUP4 CODECOPY DUP2 MLOAD SWAP2 MSTORE SWAP3 DUP3 DUP5 SLOAD AND EQ PUSH3 0x18BB JUMP JUMPDEST PUSH3 0x1238 PUSH3 0x1AB2 JUMP JUMPDEST PUSH32 0x4910FDFA16FED3260ED0E7147F7CC6DA11A60208B5B9406D12A635614FFD9143 SLOAD PUSH1 0xFF AND ISZERO PUSH3 0x1273 JUMPI POP POP POP POP PUSH3 0x15B SWAP2 POP PUSH3 0x1BB5 JUMP JUMPDEST DUP5 SWAP4 SWAP5 AND SWAP1 PUSH1 0x40 MLOAD PUSH4 0x52D1902D PUSH1 0xE0 SHL DUP2 MSTORE DUP6 DUP2 PUSH1 0x4 DUP2 DUP7 GAS STATICCALL PUSH1 0x0 SWAP2 DUP2 PUSH3 0x1408 JUMPI JUMPDEST POP PUSH3 0x12F9 JUMPI PUSH1 0x40 MLOAD PUSH3 0x461BCD PUSH1 0xE5 SHL DUP2 MSTORE PUSH1 0x4 DUP2 ADD DUP8 SWAP1 MSTORE PUSH1 0x2E PUSH1 0x24 DUP3 ADD MSTORE PUSH32 0x45524331393637557067726164653A206E657720696D706C656D656E74617469 PUSH1 0x44 DUP3 ADD MSTORE PUSH14 0x6F6E206973206E6F742055555053 PUSH1 0x90 SHL PUSH1 0x64 DUP3 ADD MSTORE PUSH1 0x84 SWAP1 REVERT JUMPDEST SUB PUSH3 0x13B1 JUMPI PUSH3 0x130A DUP4 PUSH3 0x1BB5 JUMP JUMPDEST PUSH32 0xBC7CD75A20EE27FD9ADEBAB32041F755214DBC6BFFA90CC0225B39DA2E5C2D3B PUSH1 0x0 DUP1 LOG2 DUP4 MLOAD ISZERO DUP1 ISZERO SWAP1 PUSH3 0x13A8 JUMPI JUMPDEST PUSH3 0x1342 JUMPI STOP JUMPDEST PUSH1 0x0 DUP1 SWAP2 PUSH3 0x15B SWAP6 PUSH32 0x416464726573733A206C6F772D6C6576656C2064656C65676174652063616C6C PUSH1 0x40 MLOAD SWAP7 PUSH3 0x137B DUP9 PUSH3 0x17AF JUMP JUMPDEST PUSH1 0x27 DUP9 MSTORE DUP8 ADD MSTORE PUSH7 0x819985A5B1959 PUSH1 0xCA SHL PUSH1 0x40 DUP8 ADD MSTORE MLOAD SWAP1 DUP5 GAS DELEGATECALL PUSH3 0x13A1 PUSH3 0x191D JUMP JUMPDEST SWAP2 PUSH3 0x1C47 JUMP JUMPDEST POP PUSH1 0x1 PUSH3 0x133B JUMP JUMPDEST PUSH1 0x40 MLOAD PUSH3 0x461BCD PUSH1 0xE5 SHL DUP2 MSTORE PUSH1 0x4 DUP2 ADD DUP6 SWAP1 MSTORE PUSH1 0x29 PUSH1 0x24 DUP3 ADD MSTORE PUSH32 0x45524331393637557067726164653A20756E737570706F727465642070726F78 PUSH1 0x44 DUP3 ADD MSTORE PUSH9 0x1A58589B1955555251 PUSH1 0xBA SHL PUSH1 0x64 DUP3 ADD MSTORE PUSH1 0x84 SWAP1 REVERT JUMPDEST SWAP1 SWAP2 POP DUP7 DUP2 DUP2 RETURNDATASIZE DUP4 GT PUSH3 0x1435 JUMPI JUMPDEST PUSH3 0x1423 DUP2 DUP4 PUSH3 0x17CC JUMP JUMPDEST DUP2 ADD SUB SLT PUSH3 0x1B1 JUMPI MLOAD SWAP1 DUP9 PUSH3 0x1297 JUMP JUMPDEST POP RETURNDATASIZE PUSH3 0x1417 JUMP JUMPDEST CALLVALUE PUSH3 0x1B1 JUMPI PUSH1 0x0 CALLDATASIZE PUSH1 0x3 NOT ADD SLT PUSH3 0x1B1 JUMPI PUSH3 0x145A PUSH3 0x1AB2 JUMP JUMPDEST PUSH1 0x0 DUP1 DUP1 DUP1 PUSH1 0x1 DUP1 PUSH1 0xA0 SHL SUB PUSH1 0x97 SLOAD AND SELFBALANCE SWAP1 GAS CALL PUSH3 0x1478 PUSH3 0x191D JUMP JUMPDEST POP ISZERO PUSH3 0x1481 JUMPI STOP JUMPDEST PUSH1 0x40 MLOAD PUSH3 0x461BCD PUSH1 0xE5 SHL DUP2 MSTORE PUSH1 0x20 PUSH1 0x4 DUP3 ADD MSTORE PUSH1 0xF PUSH1 0x24 DUP3 ADD MSTORE PUSH15 0x151C985B9CD9995C8819985A5B1959 PUSH1 0x8A SHL PUSH1 0x44 DUP3 ADD MSTORE PUSH1 0x64 SWAP1 REVERT JUMPDEST CALLVALUE PUSH3 0x1B1 JUMPI PUSH1 0x20 DUP1 PUSH1 0x3 NOT CALLDATASIZE ADD SLT PUSH3 0x1B1 JUMPI PUSH3 0x14D6 PUSH3 0x1783 JUMP JUMPDEST PUSH1 0x1 PUSH1 0x1 PUSH1 0xA0 SHL SUB PUSH32 0x0 DUP2 AND SWAP3 SWAP1 PUSH3 0x1511 ADDRESS DUP6 EQ ISZERO PUSH3 0x1859 JUMP JUMPDEST PUSH3 0x1531 PUSH1 0x0 DUP1 MLOAD PUSH1 0x20 PUSH3 0x2101 DUP4 CODECOPY DUP2 MLOAD SWAP2 MSTORE SWAP5 DUP3 DUP7 SLOAD AND EQ PUSH3 0x18BB JUMP JUMPDEST PUSH3 0x153B PUSH3 0x1AB2 JUMP JUMPDEST PUSH1 0x40 MLOAD SWAP4 DUP3 DUP6 ADD SWAP2 DUP6 DUP4 LT PUSH8 0xFFFFFFFFFFFFFFFF DUP5 GT OR PUSH3 0x16A8 JUMPI DUP3 PUSH1 0x40 MSTORE PUSH1 0x0 DUP7 MSTORE PUSH1 0xFF PUSH32 0x4910FDFA16FED3260ED0E7147F7CC6DA11A60208B5B9406D12A635614FFD9143 SLOAD AND PUSH1 0x0 EQ PUSH3 0x159C JUMPI POP POP POP POP PUSH3 0x15B SWAP2 POP PUSH3 0x1BB5 JUMP JUMPDEST DUP5 SWAP4 SWAP5 AND SWAP1 PUSH1 0x40 MLOAD PUSH4 0x52D1902D PUSH1 0xE0 SHL DUP2 MSTORE DUP6 DUP2 PUSH1 0x4 DUP2 DUP7 GAS STATICCALL PUSH1 0x0 SWAP2 DUP2 PUSH3 0x1673 JUMPI JUMPDEST POP PUSH3 0x1622 JUMPI PUSH1 0x40 MLOAD PUSH3 0x461BCD PUSH1 0xE5 SHL DUP2 MSTORE PUSH1 0x4 DUP2 ADD DUP8 SWAP1 MSTORE PUSH1 0x2E PUSH1 0x24 DUP3 ADD MSTORE PUSH32 0x45524331393637557067726164653A206E657720696D706C656D656E74617469 PUSH1 0x44 DUP3 ADD MSTORE PUSH14 0x6F6E206973206E6F742055555053 PUSH1 0x90 SHL PUSH1 0x64 DUP3 ADD MSTORE PUSH1 0x84 SWAP1 REVERT JUMPDEST SUB PUSH3 0x13B1 JUMPI PUSH3 0x1633 DUP4 PUSH3 0x1BB5 JUMP JUMPDEST PUSH32 0xBC7CD75A20EE27FD9ADEBAB32041F755214DBC6BFFA90CC0225B39DA2E5C2D3B PUSH1 0x0 DUP1 LOG2 DUP4 MLOAD ISZERO DUP1 ISZERO SWAP1 PUSH3 0x166A JUMPI PUSH3 0x1342 JUMPI STOP JUMPDEST POP PUSH1 0x0 PUSH3 0x133B JUMP JUMPDEST SWAP1 SWAP2 POP DUP7 DUP2 DUP2 RETURNDATASIZE DUP4 GT PUSH3 0x16A0 JUMPI JUMPDEST PUSH3 0x168E DUP2 DUP4 PUSH3 0x17CC JUMP JUMPDEST DUP2 ADD SUB SLT PUSH3 0x1B1 JUMPI MLOAD SWAP1 DUP9 PUSH3 0x15C0 JUMP JUMPDEST POP RETURNDATASIZE PUSH3 0x1682 JUMP JUMPDEST PUSH4 0x4E487B71 PUSH1 0xE0 SHL PUSH1 0x0 MSTORE PUSH1 0x41 PUSH1 0x4 MSTORE PUSH1 0x24 PUSH1 0x0 REVERT JUMPDEST CALLVALUE PUSH3 0x1B1 JUMPI PUSH1 0x20 CALLDATASIZE PUSH1 0x3 NOT ADD SLT PUSH3 0x1B1 JUMPI PUSH1 0x20 PUSH3 0x16E7 PUSH3 0x16E1 PUSH3 0x1783 JUMP JUMPDEST PUSH3 0x180C JUMP JUMPDEST PUSH1 0x40 MLOAD SWAP1 DUP2 MSTORE RETURN JUMPDEST CALLVALUE PUSH3 0x1B1 JUMPI PUSH1 0x20 CALLDATASIZE PUSH1 0x3 NOT ADD SLT PUSH3 0x1B1 JUMPI PUSH3 0x170C PUSH3 0x1783 JUMP JUMPDEST PUSH3 0x1716 PUSH3 0x1AB2 JUMP JUMPDEST PUSH1 0x1 PUSH1 0x1 PUSH1 0xA0 SHL SUB AND DUP1 ISZERO PUSH3 0x173E JUMPI PUSH1 0x1 PUSH1 0x1 PUSH1 0x60 SHL SUB PUSH1 0xA0 SHL PUSH1 0xC9 SLOAD AND OR PUSH1 0xC9 SSTORE PUSH1 0x0 DUP1 RETURN JUMPDEST PUSH1 0x40 MLOAD PUSH3 0x461BCD PUSH1 0xE5 SHL DUP2 MSTORE PUSH1 0x20 PUSH1 0x4 DUP3 ADD MSTORE PUSH1 0x1E PUSH1 0x24 DUP3 ADD MSTORE PUSH32 0x496E76616C696420696D706C656D656E746174696F6E20616464726573730000 PUSH1 0x44 DUP3 ADD MSTORE PUSH1 0x64 SWAP1 REVERT JUMPDEST PUSH1 0x4 CALLDATALOAD SWAP1 PUSH1 0x1 PUSH1 0x1 PUSH1 0xA0 SHL SUB DUP3 AND DUP3 SUB PUSH3 0x1B1 JUMPI JUMP JUMPDEST CALLDATALOAD SWAP1 PUSH1 0x1 PUSH1 0x1 PUSH1 0xA0 SHL SUB DUP3 AND DUP3 SUB PUSH3 0x1B1 JUMPI JUMP JUMPDEST PUSH1 0x60 DUP2 ADD SWAP1 DUP2 LT PUSH8 0xFFFFFFFFFFFFFFFF DUP3 GT OR PUSH3 0x16A8 JUMPI PUSH1 0x40 MSTORE JUMP JUMPDEST SWAP1 PUSH1 0x1F DUP1 NOT SWAP2 ADD AND DUP2 ADD SWAP1 DUP2 LT PUSH8 0xFFFFFFFFFFFFFFFF DUP3 GT OR PUSH3 0x16A8 JUMPI PUSH1 0x40 MSTORE JUMP JUMPDEST PUSH8 0xFFFFFFFFFFFFFFFF DUP2 GT PUSH3 0x16A8 JUMPI PUSH1 0x1F ADD PUSH1 0x1F NOT AND PUSH1 0x20 ADD SWAP1 JUMP JUMPDEST PUSH1 0x1 PUSH1 0x1 PUSH1 0xA0 SHL SUB AND PUSH1 0x0 SWAP1 DUP2 MSTORE PUSH1 0xCF PUSH1 0x20 MSTORE PUSH1 0x40 SWAP1 KECCAK256 SLOAD DUP1 ISZERO DUP1 ISZERO SWAP1 DUP1 PUSH3 0x1840 JUMPI JUMPDEST POP PUSH3 0x183D JUMPI POP PUSH1 0xCA SLOAD SWAP1 JUMP JUMPDEST SWAP1 JUMP JUMPDEST SWAP1 DUP2 PUSH3 0x1850 JUMPI JUMPDEST POP CODESIZE PUSH3 0x1830 JUMP JUMPDEST SWAP1 POP CODESIZE PUSH3 0x1848 JUMP JUMPDEST ISZERO PUSH3 0x1861 JUMPI JUMP JUMPDEST PUSH1 0x40 MLOAD PUSH3 0x461BCD PUSH1 0xE5 SHL DUP2 MSTORE PUSH1 0x20 PUSH1 0x4 DUP3 ADD MSTORE PUSH1 0x2C PUSH1 0x24 DUP3 ADD MSTORE PUSH32 0x46756E6374696F6E206D7573742062652063616C6C6564207468726F75676820 PUSH1 0x44 DUP3 ADD MSTORE PUSH12 0x19195B1959D85D1958D85B1B PUSH1 0xA2 SHL PUSH1 0x64 DUP3 ADD MSTORE PUSH1 0x84 SWAP1 REVERT JUMPDEST ISZERO PUSH3 0x18C3 JUMPI JUMP JUMPDEST PUSH1 0x40 MLOAD PUSH3 0x461BCD PUSH1 0xE5 SHL DUP2 MSTORE PUSH1 0x20 PUSH1 0x4 DUP3 ADD MSTORE PUSH1 0x2C PUSH1 0x24 DUP3 ADD MSTORE PUSH32 0x46756E6374696F6E206D7573742062652063616C6C6564207468726F75676820 PUSH1 0x44 DUP3 ADD MSTORE PUSH12 0x6163746976652070726F7879 PUSH1 0xA0 SHL PUSH1 0x64 DUP3 ADD MSTORE PUSH1 0x84 SWAP1 REVERT JUMPDEST RETURNDATASIZE ISZERO PUSH3 0x194D JUMPI RETURNDATASIZE SWAP1 PUSH3 0x1931 DUP3 PUSH3 0x17EF JUMP JUMPDEST SWAP2 PUSH3 0x1941 PUSH1 0x40 MLOAD SWAP4 DUP5 PUSH3 0x17CC JUMP JUMPDEST DUP3 MSTORE RETURNDATASIZE PUSH1 0x0 PUSH1 0x20 DUP5 ADD RETURNDATACOPY JUMP JUMPDEST PUSH1 0x60 SWAP1 JUMP JUMPDEST SWAP2 SWAP1 DUP3 ADD DUP1 SWAP3 GT PUSH3 0x1960 JUMPI JUMP JUMPDEST PUSH4 0x4E487B71 PUSH1 0xE0 SHL PUSH1 0x0 MSTORE PUSH1 0x11 PUSH1 0x4 MSTORE PUSH1 0x24 PUSH1 0x0 REVERT JUMPDEST SWAP1 CALLDATALOAD SWAP1 PUSH1 0x1E NOT DUP2 CALLDATASIZE SUB ADD DUP3 SLT ISZERO PUSH3 0x1B1 JUMPI ADD DUP1 CALLDATALOAD SWAP1 PUSH8 0xFFFFFFFFFFFFFFFF DUP3 GT PUSH3 0x1B1 JUMPI PUSH1 0x20 ADD SWAP2 PUSH1 0xC0 DUP3 MUL CALLDATASIZE SUB DUP4 SGT PUSH3 0x1B1 JUMPI JUMP JUMPDEST SWAP2 SWAP1 DUP2 LT ISZERO PUSH3 0x19C0 JUMPI PUSH1 0xC0 MUL ADD SWAP1 JUMP JUMPDEST PUSH4 0x4E487B71 PUSH1 0xE0 SHL PUSH1 0x0 MSTORE PUSH1 0x32 PUSH1 0x4 MSTORE PUSH1 0x24 PUSH1 0x0 REVERT JUMPDEST SWAP1 CALLDATALOAD PUSH1 0x1E NOT DUP3 CALLDATASIZE SUB ADD DUP2 SLT ISZERO PUSH3 0x1B1 JUMPI ADD PUSH1 0x20 DUP2 CALLDATALOAD SWAP2 ADD SWAP2 PUSH8 0xFFFFFFFFFFFFFFFF DUP3 GT PUSH3 0x1B1 JUMPI DUP2 CALLDATASIZE SUB DUP4 SGT PUSH3 0x1B1 JUMPI JUMP JUMPDEST SWAP1 DUP1 PUSH1 0x20 SWAP4 SWAP3 DUP2 DUP5 MSTORE DUP5 DUP5 ADD CALLDATACOPY PUSH1 0x0 DUP3 DUP3 ADD DUP5 ADD MSTORE PUSH1 0x1F ADD PUSH1 0x1F NOT AND ADD ADD SWAP1 JUMP JUMPDEST CALLDATALOAD SWAP1 DUP2 ISZERO ISZERO DUP3 SUB PUSH3 0x1B1 JUMPI JUMP JUMPDEST SWAP2 SWAP1 DUP3 MLOAD SWAP3 DUP4 DUP3 MSTORE PUSH1 0x0 JUMPDEST DUP5 DUP2 LT PUSH3 0x1A67 JUMPI POP POP DUP3 PUSH1 0x0 PUSH1 0x20 DUP1 SWAP5 SWAP6 DUP5 ADD ADD MSTORE PUSH1 0x1F DUP1 NOT SWAP2 ADD AND ADD ADD SWAP1 JUMP JUMPDEST PUSH1 0x20 DUP2 DUP4 ADD DUP2 ADD MLOAD DUP5 DUP4 ADD DUP3 ADD MSTORE ADD PUSH3 0x1A45 JUMP JUMPDEST SWAP1 CALLDATALOAD SWAP1 PUSH1 0x1E NOT DUP2 CALLDATASIZE SUB ADD DUP3 SLT ISZERO PUSH3 0x1B1 JUMPI ADD DUP1 CALLDATALOAD SWAP1 PUSH8 0xFFFFFFFFFFFFFFFF DUP3 GT PUSH3 0x1B1 JUMPI PUSH1 0x20 ADD SWAP2 DUP2 CALLDATASIZE SUB DUP4 SGT PUSH3 0x1B1 JUMPI JUMP JUMPDEST PUSH1 0x97 SLOAD PUSH1 0x1 PUSH1 0x1 PUSH1 0xA0 SHL SUB AND CALLER SUB PUSH3 0x1AC7 JUMPI JUMP JUMPDEST PUSH1 0x64 PUSH1 0x40 MLOAD PUSH3 0x461BCD PUSH1 0xE5 SHL DUP2 MSTORE PUSH1 0x20 PUSH1 0x4 DUP3 ADD MSTORE PUSH1 0x20 PUSH1 0x24 DUP3 ADD MSTORE PUSH32 0x4F776E61626C653A2063616C6C6572206973206E6F7420746865206F776E6572 PUSH1 0x44 DUP3 ADD MSTORE REVERT JUMPDEST PUSH1 0x97 DUP1 SLOAD PUSH1 0x1 PUSH1 0x1 PUSH1 0xA0 SHL SUB SWAP3 DUP4 AND PUSH1 0x1 PUSH1 0x1 PUSH1 0xA0 SHL SUB NOT DUP3 AND DUP2 OR SWAP1 SWAP3 SSTORE SWAP1 SWAP2 AND PUSH32 0x8BE0079C531659141344CD1FD0A4F28419497F9722A3DAAFE3B4186F6B6457E0 PUSH1 0x0 DUP1 LOG3 JUMP JUMPDEST ISZERO PUSH3 0x1B5C JUMPI JUMP JUMPDEST PUSH1 0x40 MLOAD PUSH3 0x461BCD PUSH1 0xE5 SHL DUP2 MSTORE PUSH1 0x20 PUSH1 0x4 DUP3 ADD MSTORE PUSH1 0x2B PUSH1 0x24 DUP3 ADD MSTORE PUSH32 0x496E697469616C697A61626C653A20636F6E7472616374206973206E6F742069 PUSH1 0x44 DUP3 ADD MSTORE PUSH11 0x6E697469616C697A696E67 PUSH1 0xA8 SHL PUSH1 0x64 DUP3 ADD MSTORE PUSH1 0x84 SWAP1 REVERT JUMPDEST DUP1 EXTCODESIZE ISZERO PUSH3 0x1BEC JUMPI PUSH1 0x0 DUP1 MLOAD PUSH1 0x20 PUSH3 0x2101 DUP4 CODECOPY DUP2 MLOAD SWAP2 MSTORE DUP1 SLOAD PUSH1 0x1 PUSH1 0x1 PUSH1 0xA0 SHL SUB NOT AND PUSH1 0x1 PUSH1 0x1 PUSH1 0xA0 SHL SUB SWAP1 SWAP3 AND SWAP2 SWAP1 SWAP2 OR SWAP1 SSTORE JUMP JUMPDEST PUSH1 0x40 MLOAD PUSH3 0x461BCD PUSH1 0xE5 SHL DUP2 MSTORE PUSH1 0x20 PUSH1 0x4 DUP3 ADD MSTORE PUSH1 0x2D PUSH1 0x24 DUP3 ADD MSTORE PUSH32 0x455243313936373A206E657720696D706C656D656E746174696F6E206973206E PUSH1 0x44 DUP3 ADD MSTORE PUSH13 0x1BDD08184818DBDB9D1C9858DD PUSH1 0x9A SHL PUSH1 0x64 DUP3 ADD MSTORE PUSH1 0x84 SWAP1 REVERT JUMPDEST SWAP2 SWAP3 SWAP1 ISZERO PUSH3 0x1CAC JUMPI POP DUP2 MLOAD ISZERO PUSH3 0x1C5D JUMPI POP SWAP1 JUMP JUMPDEST EXTCODESIZE ISZERO PUSH3 0x1C67 JUMPI SWAP1 JUMP JUMPDEST PUSH1 0x40 MLOAD PUSH3 0x461BCD PUSH1 0xE5 SHL DUP2 MSTORE PUSH1 0x20 PUSH1 0x4 DUP3 ADD MSTORE PUSH1 0x1D PUSH1 0x24 DUP3 ADD MSTORE PUSH32 0x416464726573733A2063616C6C20746F206E6F6E2D636F6E7472616374000000 PUSH1 0x44 DUP3 ADD MSTORE PUSH1 0x64 SWAP1 REVERT JUMPDEST DUP3 MLOAD SWAP1 SWAP2 POP ISZERO PUSH3 0x1CC0 JUMPI POP DUP1 MLOAD SWAP1 PUSH1 0x20 ADD REVERT JUMPDEST PUSH1 0x40 MLOAD PUSH3 0x461BCD PUSH1 0xE5 SHL DUP2 MSTORE PUSH1 0x20 PUSH1 0x4 DUP3 ADD MSTORE SWAP1 DUP2 SWAP1 PUSH3 0x1CE6 SWAP1 PUSH1 0x24 DUP4 ADD SWAP1 PUSH3 0x1A3A JUMP JUMPDEST SUB SWAP1 REVERT INVALID PUSH1 0x40 PUSH1 0x80 DUP2 MSTORE PUSH2 0x416 SWAP1 DUP2 CODESIZE SUB DUP1 PUSH2 0x16 DUP2 PUSH2 0x218 JUMP JUMPDEST SWAP4 DUP5 CODECOPY DUP3 ADD SWAP2 DUP2 DUP2 DUP5 SUB SLT PUSH2 0x213 JUMPI DUP1 MLOAD PUSH1 0x1 PUSH1 0x1 PUSH1 0xA0 SHL SUB DUP2 AND DUP1 DUP3 SUB PUSH2 0x213 JUMPI PUSH1 0x20 DUP4 DUP2 ADD MLOAD PUSH1 0x1 PUSH1 0x1 PUSH1 0x40 SHL SUB SWAP5 SWAP2 SWAP4 SWAP2 DUP6 DUP3 GT PUSH2 0x213 JUMPI ADD DUP7 PUSH1 0x1F DUP3 ADD SLT ISZERO PUSH2 0x213 JUMPI DUP1 MLOAD SWAP1 PUSH2 0x71 PUSH2 0x6C DUP4 PUSH2 0x253 JUMP JUMPDEST PUSH2 0x218 JUMP JUMPDEST SWAP2 DUP1 DUP4 MSTORE DUP6 DUP4 ADD SWAP9 DUP7 DUP3 DUP5 ADD ADD GT PUSH2 0x213 JUMPI DUP9 DUP7 PUSH2 0x8F SWAP4 ADD PUSH2 0x26E JUMP JUMPDEST DUP2 EXTCODESIZE ISZERO PUSH2 0x1B9 JUMPI PUSH32 0x360894A13BA1A3210667C828492DB98DCA3E2076CC3735A920A3CA505D382BBC DUP1 SLOAD PUSH1 0x1 PUSH1 0x1 PUSH1 0xA0 SHL SUB NOT AND DUP5 OR SWAP1 SSTORE PUSH1 0x0 SWAP3 PUSH32 0xBC7CD75A20EE27FD9ADEBAB32041F755214DBC6BFFA90CC0225B39DA2E5C2D3B DUP5 DUP1 LOG2 DUP1 MLOAD ISZERO DUP1 ISZERO SWAP1 PUSH2 0x1B2 JUMPI JUMPDEST PUSH2 0x10B JUMPI JUMPDEST DUP6 MLOAD PUSH1 0xD1 SWAP1 DUP2 PUSH2 0x345 DUP3 CODECOPY RETURN JUMPDEST DUP6 MLOAD SWAP5 PUSH1 0x60 DUP7 ADD SWAP1 DUP2 GT DUP7 DUP3 LT OR PUSH2 0x19E JUMPI DUP7 SWAP8 DUP5 SWAP3 DUP4 SWAP3 PUSH2 0x188 SWAP10 MSTORE PUSH1 0x27 DUP9 MSTORE PUSH32 0x416464726573733A206C6F772D6C6576656C2064656C65676174652063616C6C DUP8 DUP10 ADD MSTORE PUSH7 0x819985A5B1959 PUSH1 0xCA SHL DUP11 DUP10 ADD MSTORE MLOAD SWAP1 DUP5 GAS DELEGATECALL SWAP2 RETURNDATASIZE ISZERO PUSH2 0x194 JUMPI RETURNDATASIZE SWAP1 PUSH2 0x17A PUSH2 0x6C DUP4 PUSH2 0x253 JUMP JUMPDEST SWAP2 DUP3 MSTORE DUP2 SWAP5 RETURNDATASIZE SWAP3 ADD RETURNDATACOPY PUSH2 0x291 JUMP JUMPDEST POP DUP1 CODESIZE DUP1 DUP1 DUP1 DUP1 PUSH2 0xFE JUMP JUMPDEST POP PUSH1 0x60 SWAP3 POP PUSH2 0x291 JUMP JUMPDEST PUSH4 0x4E487B71 PUSH1 0xE0 SHL DUP5 MSTORE PUSH1 0x41 PUSH1 0x4 MSTORE PUSH1 0x24 DUP5 REVERT JUMPDEST POP DUP3 PUSH2 0xF9 JUMP JUMPDEST DUP6 MLOAD PUSH3 0x461BCD PUSH1 0xE5 SHL DUP2 MSTORE PUSH1 0x4 DUP2 ADD DUP6 SWAP1 MSTORE PUSH1 0x2D PUSH1 0x24 DUP3 ADD MSTORE PUSH32 0x455243313936373A206E657720696D706C656D656E746174696F6E206973206E PUSH1 0x44 DUP3 ADD MSTORE PUSH13 0x1BDD08184818DBDB9D1C9858DD PUSH1 0x9A SHL PUSH1 0x64 DUP3 ADD MSTORE PUSH1 0x84 SWAP1 REVERT JUMPDEST PUSH1 0x0 DUP1 REVERT JUMPDEST PUSH1 0x40 MLOAD SWAP2 SWAP1 PUSH1 0x1F ADD PUSH1 0x1F NOT AND DUP3 ADD PUSH1 0x1 PUSH1 0x1 PUSH1 0x40 SHL SUB DUP2 GT DUP4 DUP3 LT OR PUSH2 0x23D JUMPI PUSH1 0x40 MSTORE JUMP JUMPDEST PUSH4 0x4E487B71 PUSH1 0xE0 SHL PUSH1 0x0 MSTORE PUSH1 0x41 PUSH1 0x4 MSTORE PUSH1 0x24 PUSH1 0x0 REVERT JUMPDEST PUSH1 0x1 PUSH1 0x1 PUSH1 0x40 SHL SUB DUP2 GT PUSH2 0x23D JUMPI PUSH1 0x1F ADD PUSH1 0x1F NOT AND PUSH1 0x20 ADD SWAP1 JUMP JUMPDEST PUSH1 0x0 JUMPDEST DUP4 DUP2 LT PUSH2 0x281 JUMPI POP POP PUSH1 0x0 SWAP2 ADD MSTORE JUMP JUMPDEST DUP2 DUP2 ADD MLOAD DUP4 DUP3 ADD MSTORE PUSH1 0x20 ADD PUSH2 0x271 JUMP JUMPDEST SWAP2 SWAP3 SWAP1 ISZERO PUSH2 0x2F3 JUMPI POP DUP2 MLOAD ISZERO PUSH2 0x2A5 JUMPI POP SWAP1 JUMP JUMPDEST EXTCODESIZE ISZERO PUSH2 0x2AE JUMPI SWAP1 JUMP JUMPDEST PUSH1 0x40 MLOAD PUSH3 0x461BCD PUSH1 0xE5 SHL DUP2 MSTORE PUSH1 0x20 PUSH1 0x4 DUP3 ADD MSTORE PUSH1 0x1D PUSH1 0x24 DUP3 ADD MSTORE PUSH32 0x416464726573733A2063616C6C20746F206E6F6E2D636F6E7472616374000000 PUSH1 0x44 DUP3 ADD MSTORE PUSH1 0x64 SWAP1 REVERT JUMPDEST DUP3 MLOAD SWAP1 SWAP2 POP ISZERO PUSH2 0x306 JUMPI POP DUP1 MLOAD SWAP1 PUSH1 0x20 ADD REVERT JUMPDEST PUSH1 0x44 PUSH1 0x40 MLOAD DUP1 SWAP3 PUSH3 0x461BCD PUSH1 0xE5 SHL DUP3 MSTORE PUSH1 0x20 PUSH1 0x4 DUP4 ADD MSTORE PUSH2 0x336 DUP2 MLOAD DUP1 SWAP3 DUP2 PUSH1 0x24 DUP7 ADD MSTORE PUSH1 0x20 DUP7 DUP7 ADD SWAP2 ADD PUSH2 0x26E JUMP JUMPDEST PUSH1 0x1F ADD PUSH1 0x1F NOT AND DUP2 ADD SUB ADD SWAP1 REVERT INVALID PUSH1 0x80 PUSH1 0x40 MSTORE CALLDATASIZE ISZERO PUSH1 0x54 JUMPI PUSH32 0x360894A13BA1A3210667C828492DB98DCA3E2076CC3735A920A3CA505D382BBC SLOAD PUSH1 0x0 SWAP1 DUP2 SWAP1 DUP2 SWAP1 PUSH1 0x1 PUSH1 0x1 PUSH1 0xA0 SHL SUB AND CALLDATASIZE DUP3 DUP1 CALLDATACOPY DUP2 CALLDATASIZE SWAP2 GAS DELEGATECALL RETURNDATASIZE DUP3 DUP1 RETURNDATACOPY ISZERO PUSH1 0x50 JUMPI RETURNDATASIZE SWAP1 RETURN JUMPDEST RETURNDATASIZE SWAP1 REVERT JUMPDEST PUSH32 0x360894A13BA1A3210667C828492DB98DCA3E2076CC3735A920A3CA505D382BBC SLOAD PUSH1 0x0 SWAP1 DUP2 SWAP1 DUP2 SWAP1 PUSH1 0x1 PUSH1 0x1 PUSH1 0xA0 SHL SUB AND CALLDATASIZE DUP3 DUP1 CALLDATACOPY DUP2 CALLDATASIZE SWAP2 GAS DELEGATECALL RETURNDATASIZE DUP3 DUP1 RETURNDATACOPY ISZERO PUSH1 0x50 JUMPI RETURNDATASIZE SWAP1 RETURN INVALID LOG2 PUSH5 0x6970667358 0x22 SLT KECCAK256 ADDRESS 0xAD 0xE2 SELFBALANCE SWAP3 COINBASE PUSH11 0x57D4529AFBB56817B4411C 0x22 0xCC STOP 0xEF DUP13 RETURNDATACOPY DUP15 SWAP14 0xD6 0xEA ADD PUSH0 0x4E 0x25 PUSH5 0x736F6C6343 STOP ADDMOD AND STOP CALLER CALLDATASIZE ADDMOD SWAP5 LOG1 EXTCODESIZE LOG1 LOG3 0x21 MOD PUSH8 0xC828492DB98DCA3E KECCAK256 PUSH23 0xCC3735A920A3CA505D382BBCA2646970667358221220A4 0x26 PUSH12 0x524BA7BE12DA69F21685CF21 SWAP16 BALANCE LOG4 0x2B TIMESTAMP PREVRANDAO CALLDATALOAD ISZERO SWAP5 0x2C 0xB9 0xE0 0xF9 PUSH14 0x8F526F64736F6C63430008160033 "},"gasEstimates":{"creation":{"codeDepositCost":"1706800","executionCost":"infinite","totalCost":"infinite"},"external":{"createToken((string,string,uint256,uint256,address,bool,bool,uint256,uint256,uint256,uint256,uint256,uint256,uint256,uint256,uint256,uint256,(address,uint256,bool,uint256,uint256,uint256)[]))":"infinite","customDeploymentFees(address)":"2687","deployedTokens(uint256)":"4813","deploymentFee()":"2668","getDeploymentFee(address)":"4663","getTokenCreator(address)":"2737","getUserCreatedTokens(address)":"infinite","getUserTokenCount(address)":"2643","implementation()":"2406","initialize(address)":"infinite","isTokenCreator(address,address)":"2739","owner()":"2472","proxiableUUID()":"infinite","renounceOwnership()":"28209","setCustomDeploymentFee(address,uint256)":"26327","setDeploymentFee(uint256)":"25805","transferOwnership(address)":"28644","updateImplementation(address)":"26635","upgradeTo(address)":"infinite","upgradeToAndCall(address,bytes)":"infinite","withdrawFees()":"infinite"},"internal":{"_authorizeUpgrade(address)":"infinite"}},"methodIdentifiers":{"createToken((string,string,uint256,uint256,address,bool,bool,uint256,uint256,uint256,uint256,uint256,uint256,uint256,uint256,uint256,uint256,(address,uint256,bool,uint256,uint256,uint256)[]))":"75f839a2","customDeploymentFees(address)":"c05ddda8","deployedTokens(uint256)":"ec81aadb","deploymentFee()":"f2cff57f","getDeploymentFee(address)":"1652da42","getTokenCreator(address)":"c78418b9","getUserCreatedTokens(address)":"c00be1a0","getUserTokenCount(address)":"b8a6f402","implementation()":"5c60da1b","initialize(address)":"c4d66de8","isTokenCreator(address,address)":"ae6862ff","owner()":"8da5cb5b","proxiableUUID()":"52d1902d","renounceOwnership()":"715018a6","setCustomDeploymentFee(address,uint256)":"cbf1208f","setDeploymentFee(uint256)":"d002462b","transferOwnership(address)":"f2fde38b","updateImplementation(address)":"025b22bc","upgradeTo(address)":"3659cfe6","upgradeToAndCall(address,bytes)":"4f1ef286","withdrawFees()":"476343ee"}},"storageLayout":{"storage":[{"astId":505,"contract":"src/contracts/TokenFactory_v3.sol:TokenFactory_v3","label":"_initialized","offset":0,"slot":"0","type":"t_uint8"},{"astId":508,"contract":"src/contracts/TokenFactory_v3.sol:TokenFactory_v3","label":"_initializing","offset":1,"slot":"0","type":"t_bool"},{"astId":487,"contract":"src/contracts/TokenFactory_v3.sol:TokenFactory_v3","label":"__gap","offset":0,"slot":"1","type":"t_array(t_uint256)50_storage"},{"astId":803,"contract":"src/contracts/TokenFactory_v3.sol:TokenFactory_v3","label":"__gap","offset":0,"slot":"51","type":"t_array(t_uint256)50_storage"},{"astId":2239,"contract":"src/contracts/TokenFactory_v3.sol:TokenFactory_v3","label":"__gap","offset":0,"slot":"101","type":"t_array(t_uint256)50_storage"},{"astId":11,"contract":"src/contracts/TokenFactory_v3.sol:TokenFactory_v3","label":"_owner","offset":0,"slot":"151","type":"t_address"},{"astId":131,"contract":"src/contracts/TokenFactory_v3.sol:TokenFactory_v3","label":"__gap","offset":0,"slot":"152","type":"t_array(t_uint256)49_storage"},{"astId":3236,"contract":"src/contracts/TokenFactory_v3.sol:TokenFactory_v3","label":"implementation","offset":0,"slot":"201","type":"t_address"},{"astId":3238,"contract":"src/contracts/TokenFactory_v3.sol:TokenFactory_v3","label":"deploymentFee","offset":0,"slot":"202","type":"t_uint256"},{"astId":3241,"contract":"src/contracts/TokenFactory_v3.sol:TokenFactory_v3","label":"deployedTokens","offset":0,"slot":"203","type":"t_array(t_address)dyn_storage"},{"astId":3246,"contract":"src/contracts/TokenFactory_v3.sol:TokenFactory_v3","label":"userCreatedTokens","offset":0,"slot":"204","type":"t_mapping(t_address,t_array(t_address)dyn_storage)"},{"astId":3252,"contract":"src/contracts/TokenFactory_v3.sol:TokenFactory_v3","label":"isUserToken","offset":0,"slot":"205","type":"t_mapping(t_address,t_mapping(t_address,t_bool))"},{"astId":3256,"contract":"src/contracts/TokenFactory_v3.sol:TokenFactory_v3","label":"tokenCreator","offset":0,"slot":"206","type":"t_mapping(t_address,t_address)"},{"astId":3260,"contract":"src/contracts/TokenFactory_v3.sol:TokenFactory_v3","label":"customDeploymentFees","offset":0,"slot":"207","type":"t_mapping(t_address,t_uint256)"}],"types":{"t_address":{"encoding":"inplace","label":"address","numberOfBytes":"20"},"t_array(t_address)dyn_storage":{"base":"t_address","encoding":"dynamic_array","label":"address[]","numberOfBytes":"32"},"t_array(t_uint256)49_storage":{"base":"t_uint256","encoding":"inplace","label":"uint256[49]","numberOfBytes":"1568"},"t_array(t_uint256)50_storage":{"base":"t_uint256","encoding":"inplace","label":"uint256[50]","numberOfBytes":"1600"},"t_bool":{"encoding":"inplace","label":"bool","numberOfBytes":"1"},"t_mapping(t_address,t_address)":{"encoding":"mapping","key":"t_address","label":"mapping(address => address)","numberOfBytes":"32","value":"t_address"},"t_mapping(t_address,t_array(t_address)dyn_storage)":{"encoding":"mapping","key":"t_address","label":"mapping(address => address[])","numberOfBytes":"32","value":"t_array(t_address)dyn_storage"},"t_mapping(t_address,t_bool)":{"encoding":"mapping","key":"t_address","label":"mapping(address => bool)","numberOfBytes":"32","value":"t_bool"},"t_mapping(t_address,t_mapping(t_address,t_bool))":{"encoding":"mapping","key":"t_address","label":"mapping(address => mapping(address => bool))","numberOfBytes":"32","value":"t_mapping(t_address,t_bool)"},"t_mapping(t_address,t_uint256)":{"encoding":"mapping","key":"t_address","label":"mapping(address => uint256)","numberOfBytes":"32","value":"t_uint256"},"t_uint256":{"encoding":"inplace","label":"uint256","numberOfBytes":"32"},"t_uint8":{"encoding":"inplace","label":"uint8","numberOfBytes":"1"}}},"userdoc":{"kind":"user","methods":{},"version":1}}}}