{"src/contracts/TokenTemplate_v3.sol":{"TokenTemplate_v3":{"abi":[{"inputs":[],"stateMutability":"nonpayable","type":"constructor"},{"anonymous":false,"inputs":[{"indexed":false,"internalType":"address","name":"previousAdmin","type":"address"},{"indexed":false,"internalType":"address","name":"newAdmin","type":"address"}],"name":"AdminChanged","type":"event"},{"anonymous":false,"inputs":[{"indexed":true,"internalType":"address","name":"owner","type":"address"},{"indexed":true,"internalType":"address","name":"spender","type":"address"},{"indexed":false,"internalType":"uint256","name":"value","type":"uint256"}],"name":"Approval","type":"event"},{"anonymous":false,"inputs":[{"indexed":true,"internalType":"address","name":"beacon","type":"address"}],"name":"BeaconUpgraded","type":"event"},{"anonymous":false,"inputs":[{"indexed":false,"internalType":"address[]","name":"addresses","type":"address[]"},{"indexed":false,"internalType":"bool","name":"status","type":"bool"}],"name":"BlacklistUpdated","type":"event"},{"anonymous":false,"inputs":[{"indexed":false,"internalType":"address","name":"contributor","type":"address"},{"indexed":false,"internalType":"uint256","name":"amount","type":"uint256"},{"indexed":false,"internalType":"uint256","name":"tokenAmount","type":"uint256"}],"name":"ContributionReceived","type":"event"},{"anonymous":false,"inputs":[{"indexed":false,"internalType":"address","name":"contributor","type":"address"},{"indexed":false,"internalType":"uint256","name":"amount","type":"uint256"}],"name":"ContributionRefunded","type":"event"},{"anonymous":false,"inputs":[{"indexed":false,"internalType":"uint8","name":"version","type":"uint8"}],"name":"Initialized","type":"event"},{"anonymous":false,"inputs":[{"indexed":true,"internalType":"address","name":"pair","type":"address"},{"indexed":false,"internalType":"uint256","name":"tokensAdded","type":"uint256"},{"indexed":false,"internalType":"uint256","name":"ethAdded","type":"uint256"}],"name":"LiquidityPoolCreated","type":"event"},{"anonymous":false,"inputs":[{"indexed":true,"internalType":"address","name":"previousOwner","type":"address"},{"indexed":true,"internalType":"address","name":"newOwner","type":"address"}],"name":"OwnershipTransferred","type":"event"},{"anonymous":false,"inputs":[{"indexed":false,"internalType":"address","name":"account","type":"address"}],"name":"Paused","type":"event"},{"anonymous":false,"inputs":[{"indexed":false,"internalType":"uint256","name":"totalContributed","type":"uint256"},{"indexed":false,"internalType":"uint256","name":"totalTokensDistributed","type":"uint256"}],"name":"PresaleFinalized","type":"event"},{"anonymous":false,"inputs":[{"indexed":true,"internalType":"address","name":"contributor","type":"address"},{"indexed":false,"internalType":"uint256","name":"amount","type":"uint256"},{"indexed":false,"internalType":"uint256","name":"tokensReceived","type":"uint256"}],"name":"PresaleParticipation","type":"event"},{"anonymous":false,"inputs":[{"indexed":false,"internalType":"uint256","name":"softCap","type":"uint256"},{"indexed":false,"internalType":"uint256","name":"hardCap","type":"uint256"},{"indexed":false,"internalType":"uint256","name":"startTime","type":"uint256"},{"indexed":false,"internalType":"uint256","name":"endTime","type":"uint256"},{"indexed":false,"internalType":"uint256","name":"presaleRate","type":"uint256"}],"name":"PresaleStarted","type":"event"},{"anonymous":false,"inputs":[{"indexed":true,"internalType":"address","name":"contributor","type":"address"},{"indexed":false,"internalType":"uint256","name":"amount","type":"uint256"}],"name":"RefundClaimed","type":"event"},{"anonymous":false,"inputs":[{"indexed":false,"internalType":"address","name":"account","type":"address"},{"indexed":false,"internalType":"uint256","name":"unlockTime","type":"uint256"}],"name":"TimeLockSet","type":"event"},{"anonymous":false,"inputs":[{"indexed":true,"internalType":"address","name":"recipient","type":"address"},{"indexed":false,"internalType":"uint256","name":"amount","type":"uint256"}],"name":"TokensDistributed","type":"event"},{"anonymous":false,"inputs":[{"indexed":true,"internalType":"address","name":"from","type":"address"},{"indexed":true,"internalType":"address","name":"to","type":"address"},{"indexed":false,"internalType":"uint256","name":"value","type":"uint256"}],"name":"Transfer","type":"event"},{"anonymous":false,"inputs":[{"indexed":false,"internalType":"address","name":"account","type":"address"}],"name":"Unpaused","type":"event"},{"anonymous":false,"inputs":[{"indexed":true,"internalType":"address","name":"implementation","type":"address"}],"name":"Upgraded","type":"event"},{"anonymous":false,"inputs":[{"indexed":true,"internalType":"address","name":"beneficiary","type":"address"},{"indexed":false,"internalType":"uint256","name":"totalAmount","type":"uint256"},{"indexed":false,"internalType":"uint256","name":"startTime","type":"uint256"},{"indexed":false,"internalType":"uint256","name":"cliffDuration","type":"uint256"},{"indexed":false,"internalType":"uint256","name":"vestingDuration","type":"uint256"}],"name":"VestingScheduleCreated","type":"event"},{"anonymous":false,"inputs":[{"indexed":true,"internalType":"address","name":"beneficiary","type":"address"},{"indexed":false,"internalType":"uint256","name":"returnedAmount","type":"uint256"}],"name":"VestingScheduleRevoked","type":"event"},{"anonymous":false,"inputs":[{"indexed":true,"internalType":"address","name":"beneficiary","type":"address"},{"indexed":false,"internalType":"uint256","name":"amount","type":"uint256"}],"name":"VestingTokensReleased","type":"event"},{"anonymous":false,"inputs":[{"indexed":false,"internalType":"address[]","name":"addresses","type":"address[]"},{"indexed":false,"internalType":"bool","name":"status","type":"bool"}],"name":"WhitelistUpdated","type":"event"},{"inputs":[],"name":"VERSION","outputs":[{"internalType":"string","name":"","type":"string"}],"stateMutability":"view","type":"function"},{"inputs":[{"internalType":"address","name":"owner","type":"address"},{"internalType":"address","name":"spender","type":"address"}],"name":"allowance","outputs":[{"internalType":"uint256","name":"","type":"uint256"}],"stateMutability":"view","type":"function"},{"inputs":[{"internalType":"address","name":"spender","type":"address"},{"internalType":"uint256","name":"amount","type":"uint256"}],"name":"approve","outputs":[{"internalType":"bool","name":"","type":"bool"}],"stateMutability":"nonpayable","type":"function"},{"inputs":[{"internalType":"address","name":"account","type":"address"}],"name":"balanceOf","outputs":[{"internalType":"uint256","name":"","type":"uint256"}],"stateMutability":"view","type":"function"},{"inputs":[{"internalType":"address","name":"","type":"address"}],"name":"blacklist","outputs":[{"internalType":"bool","name":"","type":"bool"}],"stateMutability":"view","type":"function"},{"inputs":[],"name":"blacklistEnabled","outputs":[{"internalType":"bool","name":"","type":"bool"}],"stateMutability":"view","type":"function"},{"inputs":[{"internalType":"uint256","name":"amount","type":"uint256"}],"name":"burn","outputs":[],"stateMutability":"nonpayable","type":"function"},{"inputs":[{"internalType":"address","name":"account","type":"address"},{"internalType":"uint256","name":"amount","type":"uint256"}],"name":"burnFrom","outputs":[],"stateMutability":"nonpayable","type":"function"},{"inputs":[],"name":"claimRefund","outputs":[],"stateMutability":"nonpayable","type":"function"},{"inputs":[],"name":"contribute","outputs":[],"stateMutability":"payable","type":"function"},{"inputs":[{"internalType":"address","name":"","type":"address"}],"name":"contributions","outputs":[{"internalType":"uint256","name":"","type":"uint256"}],"stateMutability":"view","type":"function"},{"inputs":[{"internalType":"uint256","name":"","type":"uint256"}],"name":"contributors","outputs":[{"internalType":"address","name":"","type":"address"}],"stateMutability":"view","type":"function"},{"inputs":[{"internalType":"address","name":"beneficiary","type":"address"},{"internalType":"uint256","name":"totalAmount","type":"uint256"},{"internalType":"uint256","name":"startTime","type":"uint256"},{"internalType":"uint256","name":"cliffDuration","type":"uint256"},{"internalType":"uint256","name":"vestingDuration","type":"uint256"},{"internalType":"bool","name":"revocable","type":"bool"}],"name":"createVestingSchedule","outputs":[],"stateMutability":"nonpayable","type":"function"},{"inputs":[],"name":"decimals","outputs":[{"internalType":"uint8","name":"","type":"uint8"}],"stateMutability":"view","type":"function"},{"inputs":[{"internalType":"address","name":"spender","type":"address"},{"internalType":"uint256","name":"subtractedValue","type":"uint256"}],"name":"decreaseAllowance","outputs":[{"internalType":"bool","name":"","type":"bool"}],"stateMutability":"nonpayable","type":"function"},{"inputs":[],"name":"finalize","outputs":[],"stateMutability":"nonpayable","type":"function"},{"inputs":[],"name":"finalizePresale","outputs":[],"stateMutability":"nonpayable","type":"function"},{"inputs":[],"name":"getContributorCount","outputs":[{"internalType":"uint256","name":"","type":"uint256"}],"stateMutability":"view","type":"function"},{"inputs":[{"internalType":"address","name":"contributor","type":"address"}],"name":"getContributorInfo","outputs":[{"internalType":"uint256","name":"contribution","type":"uint256"},{"internalType":"uint256","name":"tokenAllocation","type":"uint256"},{"internalType":"bool","name":"isWhitelisted","type":"bool"}],"stateMutability":"view","type":"function"},{"inputs":[],"name":"getContributors","outputs":[{"internalType":"address[]","name":"","type":"address[]"}],"stateMutability":"view","type":"function"},{"inputs":[],"name":"getUserCount","outputs":[{"internalType":"uint256","name":"","type":"uint256"}],"stateMutability":"view","type":"function"},{"inputs":[],"name":"getUsers","outputs":[{"internalType":"address[]","name":"","type":"address[]"}],"stateMutability":"view","type":"function"},{"inputs":[{"internalType":"address","name":"beneficiary","type":"address"}],"name":"getVestingSchedule","outputs":[{"internalType":"uint256","name":"totalAmount","type":"uint256"},{"internalType":"uint256","name":"startTime","type":"uint256"},{"internalType":"uint256","name":"cliffDuration","type":"uint256"},{"internalType":"uint256","name":"vestingDuration","type":"uint256"},{"internalType":"uint256","name":"releasedAmount","type":"uint256"},{"internalType":"bool","name":"revocable","type":"bool"},{"internalType":"bool","name":"revoked","type":"bool"},{"internalType":"uint256","name":"releasableAmount","type":"uint256"}],"stateMutability":"view","type":"function"},{"inputs":[{"internalType":"address","name":"beneficiary","type":"address"}],"name":"getVestingStatus","outputs":[{"internalType":"bool","name":"hasSchedule","type":"bool"},{"internalType":"uint256","name":"totalAmount","type":"uint256"},{"internalType":"uint256","name":"releasedAmount","type":"uint256"},{"internalType":"uint256","name":"releasableAmount","type":"uint256"},{"internalType":"uint256","name":"remainingAmount","type":"uint256"},{"internalType":"uint256","name":"vestingEndTime","type":"uint256"},{"internalType":"bool","name":"isCliffPeriod","type":"bool"},{"internalType":"bool","name":"isFullyVested","type":"bool"}],"stateMutability":"view","type":"function"},{"inputs":[{"internalType":"address","name":"","type":"address"}],"name":"hasVestingSchedule","outputs":[{"internalType":"bool","name":"","type":"bool"}],"stateMutability":"view","type":"function"},{"inputs":[{"internalType":"address","name":"spender","type":"address"},{"internalType":"uint256","name":"addedValue","type":"uint256"}],"name":"increaseAllowance","outputs":[{"internalType":"bool","name":"","type":"bool"}],"stateMutability":"nonpayable","type":"function"},{"inputs":[{"components":[{"internalType":"string","name":"name","type":"string"},{"internalType":"string","name":"symbol","type":"string"},{"internalType":"uint256","name":"initialSupply","type":"uint256"},{"internalType":"uint256","name":"maxSupply","type":"uint256"},{"internalType":"address","name":"owner","type":"address"},{"internalType":"bool","name":"enableBlacklist","type":"bool"},{"internalType":"bool","name":"enableTimeLock","type":"bool"},{"internalType":"uint256","name":"presaleRate","type":"uint256"},{"internalType":"uint256","name":"softCap","type":"uint256"},{"internalType":"uint256","name":"hardCap","type":"uint256"},{"internalType":"uint256","name":"minContribution","type":"uint256"},{"internalType":"uint256","name":"maxContribution","type":"uint256"},{"internalType":"uint256","name":"startTime","type":"uint256"},{"internalType":"uint256","name":"endTime","type":"uint256"},{"internalType":"uint256","name":"presalePercentage","type":"uint256"},{"internalType":"uint256","name":"liquidityPercentage","type":"uint256"},{"internalType":"uint256","name":"liquidityLockDuration","type":"uint256"},{"components":[{"internalType":"address","name":"wallet","type":"address"},{"internalType":"uint256","name":"percentage","type":"uint256"},{"internalType":"bool","name":"vestingEnabled","type":"bool"},{"internalType":"uint256","name":"vestingDuration","type":"uint256"},{"internalType":"uint256","name":"cliffDuration","type":"uint256"},{"internalType":"uint256","name":"vestingStartTime","type":"uint256"}],"internalType":"struct TokenTemplate_v3.WalletAllocation[]","name":"walletAllocations","type":"tuple[]"}],"internalType":"struct TokenTemplate_v3.InitParams","name":"params","type":"tuple"}],"name":"initialize","outputs":[],"stateMutability":"nonpayable","type":"function"},{"inputs":[{"internalType":"address","name":"","type":"address"}],"name":"isContributor","outputs":[{"internalType":"bool","name":"","type":"bool"}],"stateMutability":"view","type":"function"},{"inputs":[{"internalType":"address","name":"","type":"address"}],"name":"isUser","outputs":[{"internalType":"bool","name":"","type":"bool"}],"stateMutability":"view","type":"function"},{"inputs":[],"name":"maxSupply","outputs":[{"internalType":"uint256","name":"","type":"uint256"}],"stateMutability":"view","type":"function"},{"inputs":[],"name":"name","outputs":[{"internalType":"string","name":"","type":"string"}],"stateMutability":"view","type":"function"},{"inputs":[],"name":"owner","outputs":[{"internalType":"address","name":"","type":"address"}],"stateMutability":"view","type":"function"},{"inputs":[],"name":"participateInPresale","outputs":[],"stateMutability":"payable","type":"function"},{"inputs":[],"name":"paused","outputs":[{"internalType":"bool","name":"","type":"bool"}],"stateMutability":"view","type":"function"},{"inputs":[{"internalType":"address","name":"","type":"address"}],"name":"presaleContributorTokens","outputs":[{"internalType":"uint256","name":"","type":"uint256"}],"stateMutability":"view","type":"function"},{"inputs":[],"name":"presaleInfo","outputs":[{"internalType":"uint256","name":"softCap","type":"uint256"},{"internalType":"uint256","name":"hardCap","type":"uint256"},{"internalType":"uint256","name":"minContribution","type":"uint256"},{"internalType":"uint256","name":"maxContribution","type":"uint256"},{"internalType":"uint256","name":"startTime","type":"uint256"},{"internalType":"uint256","name":"endTime","type":"uint256"},{"internalType":"uint256","name":"presaleRate","type":"uint256"},{"internalType":"bool","name":"whitelistEnabled","type":"bool"},{"internalType":"bool","name":"finalized","type":"bool"},{"internalType":"uint256","name":"totalContributed","type":"uint256"}],"stateMutability":"view","type":"function"},{"inputs":[],"name":"proxiableUUID","outputs":[{"internalType":"bytes32","name":"","type":"bytes32"}],"stateMutability":"view","type":"function"},{"inputs":[],"name":"releaseVestedTokens","outputs":[],"stateMutability":"nonpayable","type":"function"},{"inputs":[],"name":"renounceOwnership","outputs":[],"stateMutability":"nonpayable","type":"function"},{"inputs":[{"internalType":"address","name":"beneficiary","type":"address"}],"name":"revokeVesting","outputs":[],"stateMutability":"nonpayable","type":"function"},{"inputs":[{"internalType":"address","name":"account","type":"address"},{"internalType":"uint256","name":"unlockTime","type":"uint256"}],"name":"setTimeLock","outputs":[],"stateMutability":"nonpayable","type":"function"},{"inputs":[],"name":"symbol","outputs":[{"internalType":"string","name":"","type":"string"}],"stateMutability":"view","type":"function"},{"inputs":[],"name":"timeLockEnabled","outputs":[{"internalType":"bool","name":"","type":"bool"}],"stateMutability":"view","type":"function"},{"inputs":[{"internalType":"address","name":"","type":"address"}],"name":"timeLocks","outputs":[{"internalType":"uint256","name":"","type":"uint256"}],"stateMutability":"view","type":"function"},{"inputs":[],"name":"totalPresaleTokensDistributed","outputs":[{"internalType":"uint256","name":"","type":"uint256"}],"stateMutability":"view","type":"function"},{"inputs":[],"name":"totalSupply","outputs":[{"internalType":"uint256","name":"","type":"uint256"}],"stateMutability":"view","type":"function"},{"inputs":[{"internalType":"address","name":"to","type":"address"},{"internalType":"uint256","name":"amount","type":"uint256"}],"name":"transfer","outputs":[{"internalType":"bool","name":"","type":"bool"}],"stateMutability":"nonpayable","type":"function"},{"inputs":[{"internalType":"address","name":"from","type":"address"},{"internalType":"address","name":"to","type":"address"},{"internalType":"uint256","name":"amount","type":"uint256"}],"name":"transferFrom","outputs":[{"internalType":"bool","name":"","type":"bool"}],"stateMutability":"nonpayable","type":"function"},{"inputs":[{"internalType":"address","name":"newOwner","type":"address"}],"name":"transferOwnership","outputs":[],"stateMutability":"nonpayable","type":"function"},{"inputs":[{"internalType":"address[]","name":"addresses","type":"address[]"},{"internalType":"bool","name":"status","type":"bool"}],"name":"updateBlacklist","outputs":[],"stateMutability":"nonpayable","type":"function"},{"inputs":[{"internalType":"address[]","name":"addresses","type":"address[]"},{"internalType":"bool","name":"status","type":"bool"}],"name":"updateWhitelist","outputs":[],"stateMutability":"nonpayable","type":"function"},{"inputs":[{"internalType":"address","name":"newImplementation","type":"address"}],"name":"upgradeTo","outputs":[],"stateMutability":"nonpayable","type":"function"},{"inputs":[{"internalType":"address","name":"newImplementation","type":"address"},{"internalType":"bytes","name":"data","type":"bytes"}],"name":"upgradeToAndCall","outputs":[],"stateMutability":"payable","type":"function"},{"inputs":[],"name":"userCount","outputs":[{"internalType":"uint256","name":"","type":"uint256"}],"stateMutability":"view","type":"function"},{"inputs":[{"internalType":"uint256","name":"","type":"uint256"}],"name":"users","outputs":[{"internalType":"address","name":"","type":"address"}],"stateMutability":"view","type":"function"},{"inputs":[{"internalType":"address","name":"","type":"address"}],"name":"vestingSchedules","outputs":[{"internalType":"uint256","name":"totalAmount","type":"uint256"},{"internalType":"uint256","name":"startTime","type":"uint256"},{"internalType":"uint256","name":"cliffDuration","type":"uint256"},{"internalType":"uint256","name":"vestingDuration","type":"uint256"},{"internalType":"uint256","name":"releasedAmount","type":"uint256"},{"internalType":"bool","name":"revocable","type":"bool"},{"internalType":"bool","name":"revoked","type":"bool"}],"stateMutability":"view","type":"function"},{"inputs":[{"internalType":"address","name":"","type":"address"}],"name":"whitelist","outputs":[{"internalType":"bool","name":"","type":"bool"}],"stateMutability":"view","type":"function"}],"devdoc":{"events":{"AdminChanged(address,address)":{"details":"Emitted when the admin account has changed."},"Approval(address,address,uint256)":{"details":"Emitted when the allowance of a `spender` for an `owner` is set by a call to {approve}. `value` is the new allowance."},"BeaconUpgraded(address)":{"details":"Emitted when the beacon is changed."},"Initialized(uint8)":{"details":"Triggered when the contract has been initialized or reinitialized."},"Paused(address)":{"details":"Emitted when the pause is triggered by `account`."},"Transfer(address,address,uint256)":{"details":"Emitted when `value` tokens are moved from one account (`from`) to another (`to`). Note that `value` may be zero."},"Unpaused(address)":{"details":"Emitted when the pause is lifted by `account`."},"Upgraded(address)":{"details":"Emitted when the implementation is upgraded."}},"kind":"dev","methods":{"allowance(address,address)":{"details":"See {IERC20-allowance}."},"approve(address,uint256)":{"details":"See {IERC20-approve}. NOTE: If `amount` is the maximum `uint256`, the allowance is not updated on `transferFrom`. This is semantically equivalent to an infinite approval. Requirements: - `spender` cannot be the zero address."},"balanceOf(address)":{"details":"See {IERC20-balanceOf}."},"burn(uint256)":{"details":"Destroys `amount` tokens from the caller. See {ERC20-_burn}."},"burnFrom(address,uint256)":{"details":"Destroys `amount` tokens from `account`, deducting from the caller's allowance. See {ERC20-_burn} and {ERC20-allowance}. Requirements: - the caller must have allowance for ``accounts``'s tokens of at least `amount`."},"constructor":{"custom:oz-upgrades-unsafe-allow":"constructor"},"decimals()":{"details":"Returns the number of decimals used to get its user representation. For example, if `decimals` equals `2`, a balance of `505` tokens should be displayed to a user as `5.05` (`505 / 10 ** 2`). Tokens usually opt for a value of 18, imitating the relationship between Ether and Wei. This is the default value returned by this function, unless it's overridden. NOTE: This information is only used for _display_ purposes: it in no way affects any of the arithmetic of the contract, including {IERC20-balanceOf} and {IERC20-transfer}."},"decreaseAllowance(address,uint256)":{"details":"Atomically decreases the allowance granted to `spender` by the caller. This is an alternative to {approve} that can be used as a mitigation for problems described in {IERC20-approve}. Emits an {Approval} event indicating the updated allowance. Requirements: - `spender` cannot be the zero address. - `spender` must have allowance for the caller of at least `subtractedValue`."},"increaseAllowance(address,uint256)":{"details":"Atomically increases the allowance granted to `spender` by the caller. This is an alternative to {approve} that can be used as a mitigation for problems described in {IERC20-approve}. Emits an {Approval} event indicating the updated allowance. Requirements: - `spender` cannot be the zero address."},"name()":{"details":"Returns the name of the token."},"owner()":{"details":"Returns the address of the current owner."},"paused()":{"details":"Returns true if the contract is paused, and false otherwise."},"proxiableUUID()":{"details":"Implementation of the ERC1822 {proxiableUUID} function. This returns the storage slot used by the implementation. It is used to validate the implementation's compatibility when performing an upgrade. IMPORTANT: A proxy pointing at a proxiable contract should not be considered proxiable itself, because this risks bricking a proxy that upgrades to it, by delegating to itself until out of gas. Thus it is critical that this function revert if invoked through a proxy. This is guaranteed by the `notDelegated` modifier."},"renounceOwnership()":{"details":"Leaves the contract without owner. It will not be possible to call `onlyOwner` functions. Can only be called by the current owner. NOTE: Renouncing ownership will leave the contract without an owner, thereby disabling any functionality that is only available to the owner."},"symbol()":{"details":"Returns the symbol of the token, usually a shorter version of the name."},"totalSupply()":{"details":"See {IERC20-totalSupply}."},"transfer(address,uint256)":{"details":"See {IERC20-transfer}. Requirements: - `to` cannot be the zero address. - the caller must have a balance of at least `amount`."},"transferFrom(address,address,uint256)":{"details":"See {IERC20-transferFrom}. Emits an {Approval} event indicating the updated allowance. This is not required by the EIP. See the note at the beginning of {ERC20}. NOTE: Does not update the allowance if the current allowance is the maximum `uint256`. Requirements: - `from` and `to` cannot be the zero address. - `from` must have a balance of at least `amount`. - the caller must have allowance for ``from``'s tokens of at least `amount`."},"transferOwnership(address)":{"details":"Transfers ownership of the contract to a new account (`newOwner`). Can only be called by the current owner."},"upgradeTo(address)":{"custom:oz-upgrades-unsafe-allow-reachable":"delegatecall","details":"Upgrade the implementation of the proxy to `newImplementation`. Calls {_authorizeUpgrade}. Emits an {Upgraded} event."},"upgradeToAndCall(address,bytes)":{"custom:oz-upgrades-unsafe-allow-reachable":"delegatecall","details":"Upgrade the implementation of the proxy to `newImplementation`, and subsequently execute the function call encoded in `data`. Calls {_authorizeUpgrade}. Emits an {Upgraded} event."}},"version":1},"evm":{"bytecode":{"linkReferences":{},"object":"60a08060405234620000e157306080526000549060ff8260081c166200008f575060ff8082160362000053575b6040516148619081620000e78239608051818181612622015281816127220152612eba0152f35b60ff90811916176000557f7f26b83ff96e1f2b6a682f133852f6798a09c465da95921460cefb3847402498602060405160ff8152a1386200002c565b62461bcd60e51b815260206004820152602760248201527f496e697469616c697a61626c653a20636f6e747261637420697320696e697469604482015266616c697a696e6760c81b6064820152608490fd5b600080fdfe608080604052600436101561001357600080fd5b60003560e01c908162ce8e3e1461338a5750806306fdde03146132f457806307973ccf14610ab3578063095ea7b3146132ce5780630bce8cdf1461326b57806318160ddd1461324d5780631d0d35f51461320d57806323b872dd146131d5578063253da8bd146131b65780632edf086914613136578063313ce5671461311a5780633659cfe614612e96578063365b98b214612e3b5780633950935114612dea5780633b0da26014612c3e5780633cb5d10014612bfb5780634209fff114612bbb57806342966c6814612b9e57806342e94c9014612b63578063488dc57d14612b285780634afa004214612b095780634bb278f3146129675780634f1ef286146126d357806352d1902d1461260f57806354dd1da4146124e15780635c975abb146124be578063644fab74146123b557806370a082311461237b578063715018a61461231e57806379cc6790146122ee5780637f76b223146122b35780638da5cb5b1461228a57806395d89b41146121bd5780639b19251a1461217d5780639f829063146120ca578063a0a6e94014612022578063a18ef3211461121f578063a457c2d714611178578063a52e4e8c1461111c578063a9059cbb146110eb578063aaad932114610dac578063af157c1914610d1c578063aff177ca14610c3d578063b4a3889314610bfd578063b5545a3c14610ad2578063b5cb15f714610ab3578063bb0e69e8146109ca578063bffb691d146109a6578063caa07a0c146107af578063cba4cbd314610788578063d5abeb0114610769578063d7bb99ba146104a4578063dd62ed3e14610453578063f2fde38b146103c4578063f9f92be414610384578063fdb20ccb146103005763ffa1ad741461029157600080fd5b346102fb5760003660031901126102fb5760405160408101908082106001600160401b038311176102e5576102e19160405260058152640332e302e360dc1b602082015260405191829182613451565b0390f35b634e487b7160e01b600052604160045260246000fd5b600080fd5b346102fb5760203660031901126102fb576001600160a01b0361032161349a565b166000526101d960205260e0604060002060ff815491600181015490600281015460038201549060056004840154930154936040519687526020870152604086015260608501526080840152818116151560a084015260081c16151560c0820152f35b346102fb5760203660031901126102fb576001600160a01b036103a561349a565b166000526101d3602052602060ff604060002054166040519015158152f35b346102fb5760203660031901126102fb576103dd61349a565b6103e5613fee565b6001600160a01b038116156103ff576103fd90614333565b005b60405162461bcd60e51b815260206004820152602660248201527f4f776e61626c653a206e6577206f776e657220697320746865207a65726f206160448201526564647265737360d01b6064820152608490fd5b346102fb5760403660031901126102fb5761046c61349a565b6104746134b0565b9060018060a01b038091166000526034602052604060002091166000526020526020604060002054604051908152f35b60003660031901126102fb576104b86142dc565b6101ca54421061072e576101cb5442116106f9576101cd546104e060ff8260081c1615613a90565b6104ef6101c854341015613ad0565b6101c9549061050082341115613b15565b60ff6101ce9161051f610514348554613711565b6101c7541015613b5a565b166106ab575b336000526101d060209181835261054134604060002054613711565b93841161066657336000526101d680845260ff60406000205416156105e4575b7fd2dff949d20e874cc6ba1dcefb840fb8cf6000a4197bfb69accfea5a32443ff56060858585896105956101cc5434613950565b92336000526101d7855260406000206105af858254613711565b90553360005284526040600020556105c8348254613711565b90556040519133835234908301526040820152a1600161019155005b9291906101d594855494600160401b8610156102e55761062d867fd2dff949d20e874cc6ba1dcefb840fb8cf6000a4197bfb69accfea5a32443ff59860016060990190556134c6565b81549060031b9033821b9160018060a01b03901b19161790553360005284526040600020600160ff198254161790559450909192610561565b60405162461bcd60e51b815260048101849052601d60248201527f576f756c6420657863656564206d617820636f6e747269627574696f6e0000006044820152606490fd5b336000526101cf60205260ff604060002054166105255760405162461bcd60e51b815260206004820152600f60248201526e139bdd081dda1a5d195b1a5cdd1959608a1b6044820152606490fd5b60405162461bcd60e51b815260206004820152600d60248201526c141c995cd85b1948195b991959609a1b6044820152606490fd5b60405162461bcd60e51b8152602060048201526013602482015272141c995cd85b19481b9bdd081cdd185c9d1959606a1b6044820152606490fd5b346102fb5760003660031901126102fb5760206101d154604051908152f35b346102fb5760003660031901126102fb57602060ff6101d25460081c166040519015158152f35b60003660031901126102fb576107c36142dc565b6101ca544210610961576101cb5442116109285760ff6101cd5460081c166108ec576107f46101c854341015613ad0565b6108036101c954341115613b15565b6101ce8054906108166105143484613711565b6108236101cc5434613950565b9182156108b157610835903490613711565b9055336000526101d06020526040600020610851348254613711565b90556101d8610861828254613711565b905561086e813330613d33565b610877336145a1565b6040519034825260208201527f7328344177fc6d840574aa1d342887bb3cc0db401813cdf2ee680609a603871160403392a2600161019155005b60405162461bcd60e51b81526020600482015260136024820152724d757374207265636569766520746f6b656e7360681b6044820152606490fd5b60405162461bcd60e51b8152602060048201526014602482015273141c995cd85b19481a5cc8199a5b985b1a5e995960621b6044820152606490fd5b60405162461bcd60e51b8152602060048201526011602482015270141c995cd85b19481a185cc8195b991959607a1b6044820152606490fd5b60405162461bcd60e51b815260206004820152601760248201527f50726573616c6520686173206e6f7420737461727465640000000000000000006044820152606490fd5b346102fb5760003660031901126102fb57602060ff6101d254166040519015158152f35b346102fb576109d8366135bc565b916109e1613fee565b60ff6101d2541615610a765760005b828110610a2e5750610a297f11d4d128e8f89ae2e8815168b9eba079dd6668b75f1e3a9dd96ac6192a7c4dcb9360405193849384613a35565b0390a1005b6001906001600160a01b03610a4c610a47838787613a25565b6138ea565b166000526101d3602052610a708560406000209060ff801983541691151516179055565b016109f0565b60405162461bcd60e51b8152602060048201526015602482015274109b1858dadb1a5cdd081b9bdd08195b98589b1959605a1b6044820152606490fd5b346102fb5760003660031901126102fb5760206101c554604051908152f35b346102fb5760003660031901126102fb57610aeb6142dc565b610af96101cb5442116137c5565b610b0c60ff6101cd5460081c1615613a90565b6101ce546101c6541115610bc557336000526101d080602052604060002054908115610b8e5733600052602052600060408120556000808080843382f115610b82576040519081527f358fe4192934d3bf28ae181feda1f4bd08ca67f5e2fad55582cce5eb67304ae960203392a2600161019155005b6040513d6000823e3d90fd5b60405162461bcd60e51b815260206004820152600f60248201526e27379031b7b73a3934b13aba34b7b760891b6044820152606490fd5b60405162461bcd60e51b815260206004820152601060248201526f14dbd99d0818d85c081c995858da195960821b6044820152606490fd5b346102fb5760203660031901126102fb576001600160a01b03610c1e61349a565b166000526101da602052602060ff604060002054166040519015158152f35b346102fb57610c4b366135bc565b91610c54613fee565b60ff6101cd541615610cdf5760005b828110610c9c5750610a297fa091d95aa3f4b3529e12c57e1e9e10580edde8a7ac6fd51dd3c8e824c332dbe09360405193849384613a35565b6001906001600160a01b03610cb5610a47838787613a25565b166000526101cf602052610cd98560406000209060ff801983541691151516179055565b01610c63565b60405162461bcd60e51b815260206004820152601560248201527415da1a5d195b1a5cdd081b9bdd08195b98589b1959605a1b6044820152606490fd5b346102fb5760003660031901126102fb57604051806101d59182548082526020809201936000527f9f31c6e1fd7dfe4437c2313157aba3c74244a3ed366f8f45280769d409a8eb0a916000905b828210610d8c576102e185610d8081890382613549565b6040519182918261340c565b83546001600160a01b031686529485019460019384019390910190610d69565b346102fb5760c03660031901126102fb57610dc561349a565b60248035906044918235916064938435916084359660a435908115158092036102fb57610df0613fee565b6001600160a01b03169687156110b557851561108057881561104957876000526101da9360209385855260ff604060002054166110135730600052603385528760406000205410610fdc57428910610f9c578a8711610f5c5750505091610f579391610f138899947f47d46f58c7d60d60571092cff5715b8c8c5bc1347db2bb9890e639bf3680ba7b99610efc6005604051610e8b81613513565b8b81528681018d8152604082018a815260608301908c825260808401926000845260a0850198895260c0850197600089526000526101d98b526040600020945185555160018501555160028401555160038301555160048201550192511515839060ff801983541691151516179055565b51815461ff00191690151560081b61ff0016179055565b526040600020600160ff198254161790556101db610f32858254613711565b9055604051948594859094939260609260808301968352602083015260408201520152565b0390a2005b849160197f436c696666206c6f6e676572207468616e2076657374696e6700000000000000926040519462461bcd60e51b86526004860152840152820152fd5b849160197f53746172742074696d65206d7573742062652066757475726500000000000000926040519462461bcd60e51b86526004860152840152820152fd5b8491601473496e73756666696369656e742062616c616e636560601b926040519462461bcd60e51b86526004860152840152820152fd5b8491601372416c7265616479206861732076657374696e6760681b926040519462461bcd60e51b86526004860152840152820152fd5b60405162461bcd60e51b8152602060048201526014818501527304475726174696f6e206d757374206265203e20360641b81860152fd5b60405162461bcd60e51b815260206004820152601281850152710416d6f756e74206d757374206265203e20360741b81860152fd5b60405162461bcd60e51b81526020600482015260138185015272496e76616c69642062656e656669636961727960681b81860152fd5b346102fb5760403660031901126102fb5761111161110761349a565b6024359033613d33565b602060405160018152f35b346102fb5760203660031901126102fb5761010061114061113b61349a565b613963565b956040959195949294519715158852602088015260408701526060860152608085015260a0840152151560c0830152151560e0820152f35b346102fb5760403660031901126102fb5761119161349a565b60243590336000526034602052604060002060018060a01b038216600052602052604060002054918083106111cc5761111192039033613b99565b60405162461bcd60e51b815260206004820152602560248201527f45524332303a2064656372656173656420616c6c6f77616e63652062656c6f77604482015264207a65726f60d81b6064820152608490fd5b346102fb576003196020368201126102fb576001600160401b03600435116102fb5761024090600435360301126102fb5760005460ff8160081c1615808091612015575b8015611ffe575b15611fa25760ff1982166001176000556112bf9181611f90575b506112936004803501806138b8565b6112b76112ad6024600496949635016004356004016138b8565b9590923691613585565b933691613585565b6112d960ff60005460081c166112d48161437c565b61437c565b82516001600160401b0381116102e5576112f4603654613615565b601f8111611f27575b506020601f8211600114611eb35781929394600092611ea8575b50508160011b916000199060031b1c1916176036555b8051906001600160401b0382116102e557819061134b603754613615565b601f8111611e34575b50602090601f8311600114611dbc57600092611db1575b50508160011b916000199060031b1c1916176037555b6113bb60ff60005460081c166113968161437c565b61139f8161437c565b6113a88161437c565b60ff19609754166097556112d48161437c565b6113c433614333565b6113ed60ff60005460081c166113d98161437c565b6113e28161437c565b60016101915561437c565b6114036113fe6084600435016138ea565b614333565b604460043501356064600435013510611d605761142b610224600435016004356004016138fe565b159050611cd75761144a6101e460043501356101c46004350135613711565b906000915b611464610224600435016004356004016138fe565b905083101561157a5782611498610a47611489610224600435016004356004016138fe565b6001600160a01b039491613933565b16156115355760206114bf846114b9610224600435016004356004016138fe565b90613933565b0135156114f7576114ef60019160206114e7866114b9610224600435016004356004016138fe565b013590613711565b92019161144f565b60405162461bcd60e51b8152602060048201526016602482015275050657263656e74616765206d757374206265203e20360541b6044820152606490fd5b60405162461bcd60e51b815260206004820152601d60248201527f57616c6c657420616464726573732063616e6e6f74206265207a65726f0000006044820152606490fd5b606491925003611c92575b606460043501356101d15561159e60a460043501613943565b15156101d290815460ff61ff006115b960c460043501613943565b151560081b1692169061ffff19161717905560646115e46101c4600435013560446004350135613950565b0460646115fe6101e4600435013560446004350135613950565b04908015611c4d578115611c085761161681306143dc565b60405190815260008051602061480c83398151915260203092a261163a81306143dc565b60405190815260008051602061480c83398151915260203092a2604051806101408101106001600160401b03610140830111176102e557610140810160409081526004356101048101358084526101248201356020850181905261014483013593850184905261016483013560608601819052610184840135608087018190526101a485013560a0880181905260e49095013560c08801819052600060e089018190526101008901819052610120989098018890526101c6949094556101c7929092556101c8949094556101c9939093556101ca929092556101cb556101cc556101cd805461ffff191690556101ce8190555b611742610224600435016004356004016138fe565b9050811015611bc9576064611779602061176b846114b9610224600435016004356004016138fe565b013560446004350135613950565b04908115611b84576117a5604061179f836114b9610224600435016004356004016138fe565b01613943565b15611b57576117b482306143dc565b60a06117cf826114b9610224600435016004356004016138fe565b0135421015611b01576201518060606117f7836114b9610224600435016004356004016138fe565b013510611aac5760a0611819826114b9610224600435016004356004016138fe565b0135916080611837836114b9610224600435016004356004016138fe565b0135928362015180810204620151801484151715611a9657606061186a846114b9610224600435016004356004016138fe565b01358062015180810204620151801481151715611a9657620151807f47d46f58c7d60d60571092cff5715b8c8c5bc1347db2bb9890e639bf3680ba7b91611a236001976119886040516118bc81613513565b88815287602082015285830260408201528585026060820152600060808201528a60a0820152600060c082015289611914610a47611905610224600435016004356004016138fe565b8f8060a09693961b0394613933565b166000526101d960205260c0600560406000208351815560208401518e820155604084015160028201556060840151600382015560808401516004820155019161197060a08201511515849060ff801983541691151516179055565b0151815461ff00191690151560081b61ff0016179055565b876119b3610a476119a4610224600435016004356004016138fe565b8d8060a09693961b0394613933565b166000526101da60205260406000208960ff198254161790556101db6119da888254613711565b9055876119f8610a476119a4610224600435016004356004016138fe565b1695846040519586950292029088859094939260609260808301968352602083015260408201520152565b0390a25b60008051602061480c833981519152602083611a63610a47611a54610224600435016004356004016138fe565b898060a09693961b0394613933565b1692604051908152a2611a90611a8b610a47836114b9610224600435016004356004016138fe565b6145a1565b0161172d565b634e487b7160e01b600052601160045260246000fd5b60405162461bcd60e51b815260206004820152602760248201527f56657374696e67206475726174696f6e206d757374206265206174206c6561736044820152667420312064617960c81b6064820152608490fd5b60405162461bcd60e51b815260206004820152602860248201527f56657374696e672073746172742074696d65206d75737420626520696e207468604482015267652066757475726560c01b6064820152608490fd5b81611b7f600193611b7a610a47856114b9610224600435016004356004016138fe565b6143dc565b611a27565b60405162461bcd60e51b815260206004820152601960248201527f57616c6c657420746f6b656e73206d757374206265203e2030000000000000006044820152606490fd5b50611bd057005b61ff0019600054166000557f7f26b83ff96e1f2b6a682f133852f6798a09c465da95921460cefb3847402498602060405160018152a1005b60405162461bcd60e51b815260206004820152601c60248201527f4c697175696469747920746f6b656e73206d757374206265203e2030000000006044820152606490fd5b60405162461bcd60e51b815260206004820152601a60248201527f50726573616c6520746f6b656e73206d757374206265203e20300000000000006044820152606490fd5b60405162461bcd60e51b815260206004820152601c60248201527f546f74616c2070657263656e74616765206d75737420626520313030000000006044820152606490fd5b6064611cf16101e460043501356101c46004350135613711565b1461158557608460405162461bcd60e51b815260206004820152604060248201527f50726573616c6520616e64206c6971756964697479206d75737420746f74616c60448201527f2031303025207768656e206e6f206164646974696f6e616c2077616c6c6574736064820152fd5b60405162461bcd60e51b8152602060048201526024808201527f4d617820737570706c79206d757374206265203e3d20696e697469616c20737560448201526370706c7960e01b6064820152608490fd5b01519050838061136b565b925060376000526000805160206147ec833981519152906000935b601f1984168510611e19576001945083601f19811610611e00575b505050811b01603755611381565b015160001960f88460031b161c19169055838080611df2565b81810151835560209485019460019093019290910190611dd7565b9091506037600052601f830160051c6000805160206147ec8339815191520160208410611e93575b908392915b601f820160051c6000805160206147ec833981519152018110611e845750611354565b60008155849350600101611e61565b506000805160206147ec833981519152611e5c565b015190508480611317565b60366000526000805160206147ac8339815191529060005b601f1984168110611f0f5750600193949583601f19811610611ef6575b505050811b0160365561132d565b015160001960f88460031b161c19169055848080611ee8565b9091602060018192858a015181550193019101611ecb565b6036600052601f820160051c6000805160206147ac8339815191520160208310611f7b575b601f820160051c6000805160206147ac833981519152018110611f6f57506112fd565b60008155600101611f4c565b506000805160206147ac833981519152611f4c565b61ffff19166101011760005582611284565b60405162461bcd60e51b815260206004820152602e60248201527f496e697469616c697a61626c653a20636f6e747261637420697320616c72656160448201526d191e481a5b9a5d1a585b1a5e995960921b6064820152608490fd5b50303b15801561126a5750600160ff83161461126a565b50600160ff831610611263565b346102fb5760003660031901126102fb5761203b613fee565b6101cb54421180156120ba575b612051906137c5565b7fedfde254cb8ed39d650c9a34251c59d6817fae4cc876cc2ce76669976cf102ee60406101cd80549061208a60ff8360081c1615613805565b6101006101ce54926120a16101c654851015613845565b61ff0019161790556101d85482519182526020820152a1005b506101ce546101c7541115612048565b346102fb5760203660031901126102fb576001600160a01b036120eb61349a565b16806000526101da60205261210760ff6040600020541661371e565b6000526101d96020526101006121206040600020613760565b8051906020810151906040810151606082015160808301519060a084015115159261215160c0860151151595614046565b95604051978852602088015260408701526060860152608085015260a084015260c083015260e0820152f35b346102fb5760203660031901126102fb576001600160a01b0361219e61349a565b166000526101cf602052602060ff604060002054166040519015158152f35b346102fb5760003660031901126102fb5760405160006037546121df81613615565b808452906020906001908181169081156122605750600114612218575b6102e18561220c81870382613549565b60405191829182613451565b6037600090815293506000805160206147ec8339815191525b83851061224d5750505050810160200161220c826102e16121fc565b8054868601840152938201938101612231565b8695506102e19693506020925061220c94915060ff191682840152151560051b82010192936121fc565b346102fb5760003660031901126102fb5760fb546040516001600160a01b039091168152602090f35b346102fb5760203660031901126102fb576001600160a01b036122d461349a565b166000526101d46020526020604060002054604051908152f35b346102fb5760403660031901126102fb576103fd61230a61349a565b60243590612319823383613c9b565b6140e8565b346102fb5760003660031901126102fb57612337613fee565b60fb80546001600160a01b031981169091556000906001600160a01b03167f8be0079c531659141344cd1fd0a4f28419497f9722a3daafe3b4186f6b6457e08280a3005b346102fb5760203660031901126102fb576001600160a01b0361239c61349a565b1660005260336020526020604060002054604051908152f35b346102fb5760403660031901126102fb576123ce61349a565b602435906123da613fee565b60ff6101d25460081c1615612481574282111561243c577fa9353e70f07f31e7f4e16464f45e189cbd22826780a5abe4da8303652a86960a9160409160018060a01b031690816000526101d460205280836000205582519182526020820152a1005b60405162461bcd60e51b815260206004820152601d60248201527f556e6c6f636b2074696d65206d75737420626520696e206675747572650000006044820152606490fd5b60405162461bcd60e51b8152602060048201526015602482015274151a5b59481b1bd8dac81b9bdd08195b98589b1959605a1b6044820152606490fd5b346102fb5760003660031901126102fb57602060ff609754166040519015158152f35b346102fb5760003660031901126102fb57336000526101da60205261250d60ff6040600020541661371e565b336000526101d9602052604060002060ff600582015460081c166125d85761253c61253782613760565b614046565b90811561259c57600401612551828254613711565b90556101db6125618282546137b8565b905561256e813330613d33565b6040519081527f6ac6b97c2deded5d08888a74d95299cd1defd6e602974a1cedb874b1c0cc2e4a60203392a2005b60405162461bcd60e51b81526020600482015260146024820152734e6f20746f6b656e7320746f2072656c6561736560601b6044820152606490fd5b60405162461bcd60e51b815260206004820152600f60248201526e15995cdd1a5b99c81c995d9bdad959608a1b6044820152606490fd5b346102fb5760003660031901126102fb577f00000000000000000000000000000000000000000000000000000000000000006001600160a01b031630036126685760206040516000805160206147cc8339815191528152f35b60405162461bcd60e51b815260206004820152603860248201527f555550535570677261646561626c653a206d757374206e6f742062652063616c60448201527f6c6564207468726f7567682064656c656761746563616c6c00000000000000006064820152608490fd5b60403660031901126102fb576126e761349a565b6024356001600160401b0381116102fb57366023820112156102fb57612717903690602481600401359101613585565b906001600160a01b037f00000000000000000000000000000000000000000000000000000000000000008116906127503083141561364f565b61276d6000805160206147cc8339815191529282845416146136b0565b612775613fee565b7f4910fdfa16fed3260ed0e7147f7cc6da11a60208b5b9406d12a635614ffd91435460ff16156127ab5750506103fd9150614686565b6040516352d1902d60e01b81526020939291831691908481600481865afa60009181612938575b506128335760405162461bcd60e51b815260048101869052602e60248201527f45524331393637557067726164653a206e657720696d706c656d656e7461746960448201526d6f6e206973206e6f74205555505360901b6064820152608490fd5b036128e15761284182614686565b7fbc7cd75a20ee27fd9adebab32041f755214dbc6bffa90cc0225b39da2e5c2d3b600080a28251158015906128d9575b61287757005b6000806103fd946040519461288b8661352e565b602786527f416464726573733a206c6f772d6c6576656c2064656c65676174652063616c6c81870152660819985a5b195960ca1b604087015281519101845af46128d3613888565b91614716565b506001612871565b60405162461bcd60e51b815260048101849052602960248201527f45524331393637557067726164653a20756e737570706f727465642070726f786044820152681a58589b195555525160ba1b6064820152608490fd5b9091508581813d8311612960575b6129508183613549565b810103126102fb575190876127d2565b503d612946565b346102fb5760003660031901126102fb57612980613fee565b6129886142dc565b6129966101cb5442116137c5565b6101cd8054906129ac60ff8360081c1615613805565b6101006101ce926129c384546101c6541115613845565b61ff00191617905560005b6101d554811015612a5f57806129e56001926134c6565b838060a01b0391549060031b1c16806000526101d79060209082825260406000205480612a17575b50505050016129ce565b60008051602061480c8339815191528382612a3485948533613d33565b6101d8612a42828254613711565b9055604051908152a2600052526000604081205583808080612a0d565b504780612aa3575b7fedfde254cb8ed39d650c9a34251c59d6817fae4cc876cc2ce76669976cf102ee604083546101d85482519182526020820152a1600161019155005b60fb546000918291829182916001600160a01b03165af1612ac2613888565b5015612ace5781612a67565b60405162461bcd60e51b8152602060048201526013602482015272115512081d1c985b9cd9995c8819985a5b1959606a1b6044820152606490fd5b346102fb5760003660031901126102fb5760206101d854604051908152f35b346102fb5760203660031901126102fb576001600160a01b03612b4961349a565b166000526101d76020526020604060002054604051908152f35b346102fb5760203660031901126102fb576001600160a01b03612b8461349a565b166000526101d06020526020604060002054604051908152f35b346102fb5760203660031901126102fb576103fd600435336140e8565b346102fb5760203660031901126102fb576001600160a01b03612bdc61349a565b166000526101c3602052602060ff604060002054166040519015158152f35b346102fb5760203660031901126102fb576004356101d5548110156102fb57612c256020916134c6565b905460405160039290921b1c6001600160a01b03168152f35b346102fb576020806003193601126102fb57612c5861349a565b90612c61613fee565b60018060a01b03821691826000526101da8252612c8560ff6040600020541661371e565b826000526101d982526040600020600581019081549160ff831615612db55760ff8360081c16612d7e5790612cf3939291612cc261253783613760565b93849160048454940190610100612cdb835480976137b8565b9661ff00191617905582612d36575b505050506137b8565b9081612cfb57005b7fb71d84e80ebac87b433939f1a1191d542623a94ff5b940314af5589461f35275916101db612d2b8282546137b8565b9055604051908152a2005b612d4383612d4b95613711565b905530613d33565b847f6ac6b97c2deded5d08888a74d95299cd1defd6e602974a1cedb874b1c0cc2e4a85604051858152a285828180612cea565b60405162461bcd60e51b815260048101869052600f60248201526e105b1c9958591e481c995d9bdad959608a1b6044820152606490fd5b60405162461bcd60e51b815260048101869052600d60248201526c4e6f74207265766f6361626c6560981b6044820152606490fd5b346102fb5760403660031901126102fb57611111612e0661349a565b336000526034602052604060002060018060a01b038216600052602052612e34602435604060002054613711565b9033613b99565b346102fb5760203660031901126102fb576004356101c49081548110156102fb5760209160005260018060a01b03907f5ac35dca7c3a7d5ae9d0add1efdc4aa02e10dd5cac0b90d2122cf0f0cc68317f015416604051908152f35b346102fb576020806003193601126102fb57612eb061349a565b6001600160a01b037f000000000000000000000000000000000000000000000000000000000000000081169290612ee93085141561364f565b612f066000805160206147cc8339815191529482865416146136b0565b612f0e613fee565b60405193828501918583106001600160401b038411176102e557826040526000865260ff7f4910fdfa16fed3260ed0e7147f7cc6da11a60208b5b9406d12a635614ffd91435416600014612f6a57505050506103fd9150614686565b84939416906040516352d1902d60e01b81528581600481865afa600091816130eb575b50612fee5760405162461bcd60e51b815260048101879052602e60248201527f45524331393637557067726164653a206e657720696d706c656d656e7461746960448201526d6f6e206973206e6f74205555505360901b6064820152608490fd5b0361309457612ffc83614686565b7fbc7cd75a20ee27fd9adebab32041f755214dbc6bffa90cc0225b39da2e5c2d3b600080a283511580159061308c575b61303257005b600080916103fd957f416464726573733a206c6f772d6c6576656c2064656c65676174652063616c6c604051966130688861352e565b60278852870152660819985a5b195960ca1b60408701525190845af46128d3613888565b50600061302c565b60405162461bcd60e51b815260048101859052602960248201527f45524331393637557067726164653a20756e737570706f727465642070726f786044820152681a58589b195555525160ba1b6064820152608490fd5b9091508681813d8311613113575b6131038183613549565b810103126102fb57519088612f8d565b503d6130f9565b346102fb5760003660031901126102fb57602060405160128152f35b346102fb5760003660031901126102fb576101406101c6546101c75460ff6101c8546101c9546101ca546101cb54906101cc54926101cd54946101ce5497604051998a5260208a015260408901526060880152608087015260a086015260c0850152818116151560e085015260081c161515610100830152610120820152f35b346102fb5760003660031901126102fb5760206101d554604051908152f35b346102fb5760603660031901126102fb576111116131f161349a565b6131f96134b0565b60443591613208833383613c9b565b613d33565b346102fb5760203660031901126102fb576001600160a01b0361322e61349a565b166000526101d6602052602060ff604060002054166040519015158152f35b346102fb5760003660031901126102fb576020603554604051908152f35b346102fb5760203660031901126102fb576001600160a01b0361328c61349a565b166000526101d060205260606040600020546101d76020526040600020546101cf60205260ff6040600020541690604051928352602083015215156040820152f35b346102fb5760403660031901126102fb576111116132ea61349a565b6024359033613b99565b346102fb5760003660031901126102fb57604051600060365461331681613615565b808452906020906001908181169081156122605750600114613342576102e18561220c81870382613549565b6036600090815293506000805160206147ac8339815191525b8385106133775750505050810160200161220c826102e16121fc565b805486860184015293820193810161335b565b346102fb5760003660031901126102fb576101c490815480825260209060208301936000527f5ac35dca7c3a7d5ae9d0add1efdc4aa02e10dd5cac0b90d2122cf0f0cc68317f916000905b8282106133ec576102e185610d8081890382613549565b83546001600160a01b0316865294850194600193840193909101906133d5565b602090602060408183019282815285518094520193019160005b828110613434575050505090565b83516001600160a01b031685529381019392810192600101613426565b6020808252825181830181905290939260005b82811061348657505060409293506000838284010152601f8019910116010190565b818101860151848201604001528501613464565b600435906001600160a01b03821682036102fb57565b602435906001600160a01b03821682036102fb57565b6101d580548210156134fd576000527f9f31c6e1fd7dfe4437c2313157aba3c74244a3ed366f8f45280769d409a8eb0a0190600090565b634e487b7160e01b600052603260045260246000fd5b60e081019081106001600160401b038211176102e557604052565b606081019081106001600160401b038211176102e557604052565b90601f801991011681019081106001600160401b038211176102e557604052565b6001600160401b0381116102e557601f01601f191660200190565b9291926135918261356a565b9161359f6040519384613549565b8294818452818301116102fb578281602093846000960137010152565b9060406003198301126102fb576004356001600160401b03928382116102fb57806023830112156102fb5781600401359384116102fb5760248460051b830101116102fb57602401919060243580151581036102fb5790565b90600182811c92168015613645575b602083101461362f57565b634e487b7160e01b600052602260045260246000fd5b91607f1691613624565b1561365657565b60405162461bcd60e51b815260206004820152602c60248201527f46756e6374696f6e206d7573742062652063616c6c6564207468726f7567682060448201526b19195b1959d85d1958d85b1b60a21b6064820152608490fd5b156136b757565b60405162461bcd60e51b815260206004820152602c60248201527f46756e6374696f6e206d7573742062652063616c6c6564207468726f7567682060448201526b6163746976652070726f787960a01b6064820152608490fd5b91908201809211611a9657565b1561372557565b60405162461bcd60e51b81526020600482015260136024820152724e6f2076657374696e67207363686564756c6560681b6044820152606490fd5b9060405161376d81613513565b60c060ff6005839580548552600181015460208601526002810154604086015260038101546060860152600481015460808601520154818116151560a085015260081c161515910152565b91908203918211611a9657565b156137cc57565b60405162461bcd60e51b8152602060048201526011602482015270141c995cd85b19481b9bdd08195b991959607a1b6044820152606490fd5b1561380c57565b60405162461bcd60e51b8152602060048201526011602482015270105b1c9958591e48199a5b985b1a5e9959607a1b6044820152606490fd5b1561384c57565b60405162461bcd60e51b815260206004820152601460248201527314dbd99d0818d85c081b9bdd081c995858da195960621b6044820152606490fd5b3d156138b3573d906138998261356a565b916138a76040519384613549565b82523d6000602084013e565b606090565b903590601e19813603018212156102fb57018035906001600160401b0382116102fb576020019181360383136102fb57565b356001600160a01b03811681036102fb5790565b903590601e19813603018212156102fb57018035906001600160401b0382116102fb576020019160c08202360383136102fb57565b91908110156134fd5760c0020190565b3580151581036102fb5790565b81810292918115918404141715611a9657565b6001600160a01b031660009081526101da602052604081205460ff168015613a16576101d960205261399760408320613760565b9160c08301516139fe575060208201906139c76139ba8351606086015190613711565b9251604085015190613711565b4210938351946139db608086015195614046565b936139ef856139ea888a6137b8565b6137b8565b93969594939281929142101590565b82516080909301516001949092508190819081908790565b50908180918180918180918190565b91908110156134fd5760051b0190565b60408082528101839052929392916060830190600090815b818110613a635750505060209150931515910152565b909192843560018060a01b038116809103613a8c57815260209485019401929190600101613a4d565b8480fd5b15613a9757565b60405162461bcd60e51b8152602060048201526011602482015270141c995cd85b1948199a5b985b1a5e9959607a1b6044820152606490fd5b15613ad757565b60405162461bcd60e51b81526020600482015260166024820152752132b637bb9036b4b71031b7b73a3934b13aba34b7b760511b6044820152606490fd5b15613b1c57565b60405162461bcd60e51b815260206004820152601660248201527520b137bb329036b0bc1031b7b73a3934b13aba34b7b760511b6044820152606490fd5b15613b6157565b60405162461bcd60e51b815260206004820152601060248201526f12185c990818d85c081c995858da195960821b6044820152606490fd5b6001600160a01b03908116918215613c4a5716918215613bfa5760207f8c5be1e5ebec7d5bd14f71427d1e84f3dd0314c0f7b2291e5b200ac8c7c3b925918360005260348252604060002085600052825280604060002055604051908152a3565b60405162461bcd60e51b815260206004820152602260248201527f45524332303a20617070726f766520746f20746865207a65726f206164647265604482015261737360f01b6064820152608490fd5b60405162461bcd60e51b8152602060048201526024808201527f45524332303a20617070726f76652066726f6d20746865207a65726f206164646044820152637265737360e01b6064820152608490fd5b9060018060a01b0380831660005260346020526040600020908216600052602052604060002054926000198403613cd3575b50505050565b808410613cee57613ce5930391613b99565b38808080613ccd565b60405162461bcd60e51b815260206004820152601d60248201527f45524332303a20696e73756666696369656e7420616c6c6f77616e63650000006044820152606490fd5b6001600160a01b03908116908115613f9b578216908115613f4a576101d25460ff8116613edd575b60081c60ff1680613ed5575b613e89575b60ff60975416613e315760008181526033602052604081205490858210613ddd5785604082613ddb987fddf252ad1be2c89b69c2b068fc378daa952ba7f163c4a11628f55a4df523b3ef95876020965260338652038282205586815220818154019055604051908152a36145a1565b565b60405162461bcd60e51b815260206004820152602660248201527f45524332303a207472616e7366657220616d6f756e7420657863656564732062604482015265616c616e636560d01b6064820152608490fd5b60405162461bcd60e51b815260206004820152602a60248201527f45524332305061757361626c653a20746f6b656e207472616e736665722077686044820152691a5b19481c185d5cd95960b21b6064820152608490fd5b806000526101d4602052604060002054421015613d6c5760405162461bcd60e51b815260206004820152600d60248201526c151bdad95b9cc81b1bd8dad959609a1b6044820152606490fd5b506001613d67565b816000526101d360205260ff604060002054161580613f36575b613d5b5760405162461bcd60e51b81526020600482015260136024820152721059191c995cdcc8189b1858dadb1a5cdd1959606a1b6044820152606490fd5b508260005260ff6040600020541615613ef7565b60405162461bcd60e51b815260206004820152602360248201527f45524332303a207472616e7366657220746f20746865207a65726f206164647260448201526265737360e81b6064820152608490fd5b60405162461bcd60e51b815260206004820152602560248201527f45524332303a207472616e736665722066726f6d20746865207a65726f206164604482015264647265737360d81b6064820152608490fd5b60fb546001600160a01b0316330361400257565b606460405162461bcd60e51b815260206004820152602060248201527f4f776e61626c653a2063616c6c6572206973206e6f7420746865206f776e65726044820152fd5b60c08101516140e257602081016140638151604084015190613711565b42106140db5780519061407c6060840192835190613711565b4210156140c8576140916140989151426137b8565b8351613950565b905180156140b25760806140af93015191046137b8565b90565b634e487b7160e01b600052601260045260246000fd5b50508060806140af9251910151906137b8565b5050600090565b50600090565b6001600160a01b0316801561428d576101d25460ff8116614220575b60081c60ff1680614218575b6141cc575b60ff60975416613e31578060005260336020526040600020549180831061417c576020817fddf252ad1be2c89b69c2b068fc378daa952ba7f163c4a11628f55a4df523b3ef92600095858752603384520360408620558060355403603555604051908152a3565b60405162461bcd60e51b815260206004820152602260248201527f45524332303a206275726e20616d6f756e7420657863656564732062616c616e604482015261636560f01b6064820152608490fd5b806000526101d46020526040600020544210156141155760405162461bcd60e51b815260206004820152600d60248201526c151bdad95b9cc81b1bd8dad959609a1b6044820152606490fd5b506001614110565b816000526101d360205260ff604060002054161580614279575b6141045760405162461bcd60e51b81526020600482015260136024820152721059191c995cdcc8189b1858dadb1a5cdd1959606a1b6044820152606490fd5b506000805260ff604060002054161561423a565b60405162461bcd60e51b815260206004820152602160248201527f45524332303a206275726e2066726f6d20746865207a65726f206164647265736044820152607360f81b6064820152608490fd5b61019160028154146142ee5760029055565b60405162461bcd60e51b815260206004820152601f60248201527f5265656e7472616e637947756172643a207265656e7472616e742063616c6c006044820152606490fd5b60fb80546001600160a01b039283166001600160a01b0319821681179092559091167f8be0079c531659141344cd1fd0a4f28419497f9722a3daafe3b4186f6b6457e0600080a3565b1561438357565b60405162461bcd60e51b815260206004820152602b60248201527f496e697469616c697a61626c653a20636f6e7472616374206973206e6f74206960448201526a6e697469616c697a696e6760a81b6064820152608490fd5b6001600160a01b031690811561455c576101d25460ff81166144d3575b60081c60ff16806144cb575b614463575b60ff60975416613e31577fddf252ad1be2c89b69c2b068fc378daa952ba7f163c4a11628f55a4df523b3ef602082614446600094603554613711565b6035558484526033825260408420818154019055604051908152a3565b600080526101d46020527f410fcf528d521d85c0b03b4ed80308a532d4b2e9fb9978a3f903402e422413525442101561440a5760405162461bcd60e51b815260206004820152600d60248201526c151bdad95b9cc81b1bd8dad959609a1b6044820152606490fd5b506000614405565b600080526101d36020527fe33998ff62f234a925b803b2d837cb316cde2dfcbc8c8f1f21fa7ed385b74c305460ff161580614548575b6143f95760405162461bcd60e51b81526020600482015260136024820152721059191c995cdcc8189b1858dadb1a5cdd1959606a1b6044820152606490fd5b508260005260ff6040600020541615614509565b60405162461bcd60e51b815260206004820152601f60248201527f45524332303a206d696e7420746f20746865207a65726f2061646472657373006044820152606490fd5b6001600160a01b031660008181526101c360205260408120805491929160ff8116156145cd5750505050565b60ff191660011790556101c4805490600160401b821015614672576001820180825582101561465e5783527f5ac35dca7c3a7d5ae9d0add1efdc4aa02e10dd5cac0b90d2122cf0f0cc68317f0180546001600160a01b03191690911790556101c580549091600019821461464a5750600101905538808080613ccd565b634e487b7160e01b81526011600452602490fd5b634e487b7160e01b84526032600452602484fd5b634e487b7160e01b84526041600452602484fd5b803b156146bb576000805160206147cc83398151915280546001600160a01b0319166001600160a01b03909216919091179055565b60405162461bcd60e51b815260206004820152602d60248201527f455243313936373a206e657720696d706c656d656e746174696f6e206973206e60448201526c1bdd08184818dbdb9d1c9858dd609a1b6064820152608490fd5b91929015614778575081511561472a575090565b3b156147335790565b60405162461bcd60e51b815260206004820152601d60248201527f416464726573733a2063616c6c20746f206e6f6e2d636f6e74726163740000006044820152606490fd5b82519091501561478b5750805190602001fd5b60405162461bcd60e51b81529081906147a79060048301613451565b0390fdfe4a11f94e20a93c79f6ec743a1954ec4fc2c08429ae2122118bf234b2185c81b8360894a13ba1a3210667c828492db98dca3e2076cc3735a920a3ca505d382bbc42a7b7dd785cd69714a189dffb3fd7d7174edc9ece837694ce50f7078f7c31ae16b0da2ffcb90c6723317bd637d9aad7f04711f42bbe0ac0918ebe10f1f9001ca264697066735822122087b5fc9dcdea066ca75aae77afdad1deb9485ab059e661a95edb14686ef968c964736f6c63430008160033","opcodes":"PUSH1 0xA0 DUP1 PUSH1 0x40 MSTORE CALLVALUE PUSH3 0xE1 JUMPI ADDRESS PUSH1 0x80 MSTORE PUSH1 0x0 SLOAD SWAP1 PUSH1 0xFF DUP3 PUSH1 0x8 SHR AND PUSH3 0x8F JUMPI POP PUSH1 0xFF DUP1 DUP3 AND SUB PUSH3 0x53 JUMPI JUMPDEST PUSH1 0x40 MLOAD PUSH2 0x4861 SWAP1 DUP2 PUSH3 0xE7 DUP3 CODECOPY PUSH1 0x80 MLOAD DUP2 DUP2 DUP2 PUSH2 0x2622 ADD MSTORE DUP2 DUP2 PUSH2 0x2722 ADD MSTORE PUSH2 0x2EBA ADD MSTORE RETURN JUMPDEST PUSH1 0xFF SWAP1 DUP2 NOT AND OR PUSH1 0x0 SSTORE PUSH32 0x7F26B83FF96E1F2B6A682F133852F6798A09C465DA95921460CEFB3847402498 PUSH1 0x20 PUSH1 0x40 MLOAD PUSH1 0xFF DUP2 MSTORE LOG1 CODESIZE PUSH3 0x2C JUMP JUMPDEST PUSH3 0x461BCD PUSH1 0xE5 SHL DUP2 MSTORE PUSH1 0x20 PUSH1 0x4 DUP3 ADD MSTORE PUSH1 0x27 PUSH1 0x24 DUP3 ADD MSTORE PUSH32 0x496E697469616C697A61626C653A20636F6E747261637420697320696E697469 PUSH1 0x44 DUP3 ADD MSTORE PUSH7 0x616C697A696E67 PUSH1 0xC8 SHL PUSH1 0x64 DUP3 ADD MSTORE PUSH1 0x84 SWAP1 REVERT JUMPDEST PUSH1 0x0 DUP1 REVERT INVALID PUSH1 0x80 DUP1 PUSH1 0x40 MSTORE PUSH1 0x4 CALLDATASIZE LT ISZERO PUSH2 0x13 JUMPI PUSH1 0x0 DUP1 REVERT JUMPDEST PUSH1 0x0 CALLDATALOAD PUSH1 0xE0 SHR SWAP1 DUP2 PUSH3 0xCE8E3E EQ PUSH2 0x338A JUMPI POP DUP1 PUSH4 0x6FDDE03 EQ PUSH2 0x32F4 JUMPI DUP1 PUSH4 0x7973CCF EQ PUSH2 0xAB3 JUMPI DUP1 PUSH4 0x95EA7B3 EQ PUSH2 0x32CE JUMPI DUP1 PUSH4 0xBCE8CDF EQ PUSH2 0x326B JUMPI DUP1 PUSH4 0x18160DDD EQ PUSH2 0x324D JUMPI DUP1 PUSH4 0x1D0D35F5 EQ PUSH2 0x320D JUMPI DUP1 PUSH4 0x23B872DD EQ PUSH2 0x31D5 JUMPI DUP1 PUSH4 0x253DA8BD EQ PUSH2 0x31B6 JUMPI DUP1 PUSH4 0x2EDF0869 EQ PUSH2 0x3136 JUMPI DUP1 PUSH4 0x313CE567 EQ PUSH2 0x311A JUMPI DUP1 PUSH4 0x3659CFE6 EQ PUSH2 0x2E96 JUMPI DUP1 PUSH4 0x365B98B2 EQ PUSH2 0x2E3B JUMPI DUP1 PUSH4 0x39509351 EQ PUSH2 0x2DEA JUMPI DUP1 PUSH4 0x3B0DA260 EQ PUSH2 0x2C3E JUMPI DUP1 PUSH4 0x3CB5D100 EQ PUSH2 0x2BFB JUMPI DUP1 PUSH4 0x4209FFF1 EQ PUSH2 0x2BBB JUMPI DUP1 PUSH4 0x42966C68 EQ PUSH2 0x2B9E JUMPI DUP1 PUSH4 0x42E94C90 EQ PUSH2 0x2B63 JUMPI DUP1 PUSH4 0x488DC57D EQ PUSH2 0x2B28 JUMPI DUP1 PUSH4 0x4AFA0042 EQ PUSH2 0x2B09 JUMPI DUP1 PUSH4 0x4BB278F3 EQ PUSH2 0x2967 JUMPI DUP1 PUSH4 0x4F1EF286 EQ PUSH2 0x26D3 JUMPI DUP1 PUSH4 0x52D1902D EQ PUSH2 0x260F JUMPI DUP1 PUSH4 0x54DD1DA4 EQ PUSH2 0x24E1 JUMPI DUP1 PUSH4 0x5C975ABB EQ PUSH2 0x24BE JUMPI DUP1 PUSH4 0x644FAB74 EQ PUSH2 0x23B5 JUMPI DUP1 PUSH4 0x70A08231 EQ PUSH2 0x237B JUMPI DUP1 PUSH4 0x715018A6 EQ PUSH2 0x231E JUMPI DUP1 PUSH4 0x79CC6790 EQ PUSH2 0x22EE JUMPI DUP1 PUSH4 0x7F76B223 EQ PUSH2 0x22B3 JUMPI DUP1 PUSH4 0x8DA5CB5B EQ PUSH2 0x228A JUMPI DUP1 PUSH4 0x95D89B41 EQ PUSH2 0x21BD JUMPI DUP1 PUSH4 0x9B19251A EQ PUSH2 0x217D JUMPI DUP1 PUSH4 0x9F829063 EQ PUSH2 0x20CA JUMPI DUP1 PUSH4 0xA0A6E940 EQ PUSH2 0x2022 JUMPI DUP1 PUSH4 0xA18EF321 EQ PUSH2 0x121F JUMPI DUP1 PUSH4 0xA457C2D7 EQ PUSH2 0x1178 JUMPI DUP1 PUSH4 0xA52E4E8C EQ PUSH2 0x111C JUMPI DUP1 PUSH4 0xA9059CBB EQ PUSH2 0x10EB JUMPI DUP1 PUSH4 0xAAAD9321 EQ PUSH2 0xDAC JUMPI DUP1 PUSH4 0xAF157C19 EQ PUSH2 0xD1C JUMPI DUP1 PUSH4 0xAFF177CA EQ PUSH2 0xC3D JUMPI DUP1 PUSH4 0xB4A38893 EQ PUSH2 0xBFD JUMPI DUP1 PUSH4 0xB5545A3C EQ PUSH2 0xAD2 JUMPI DUP1 PUSH4 0xB5CB15F7 EQ PUSH2 0xAB3 JUMPI DUP1 PUSH4 0xBB0E69E8 EQ PUSH2 0x9CA JUMPI DUP1 PUSH4 0xBFFB691D EQ PUSH2 0x9A6 JUMPI DUP1 PUSH4 0xCAA07A0C EQ PUSH2 0x7AF JUMPI DUP1 PUSH4 0xCBA4CBD3 EQ PUSH2 0x788 JUMPI DUP1 PUSH4 0xD5ABEB01 EQ PUSH2 0x769 JUMPI DUP1 PUSH4 0xD7BB99BA EQ PUSH2 0x4A4 JUMPI DUP1 PUSH4 0xDD62ED3E EQ PUSH2 0x453 JUMPI DUP1 PUSH4 0xF2FDE38B EQ PUSH2 0x3C4 JUMPI DUP1 PUSH4 0xF9F92BE4 EQ PUSH2 0x384 JUMPI DUP1 PUSH4 0xFDB20CCB EQ PUSH2 0x300 JUMPI PUSH4 0xFFA1AD74 EQ PUSH2 0x291 JUMPI PUSH1 0x0 DUP1 REVERT JUMPDEST CALLVALUE PUSH2 0x2FB JUMPI PUSH1 0x0 CALLDATASIZE PUSH1 0x3 NOT ADD SLT PUSH2 0x2FB JUMPI PUSH1 0x40 MLOAD PUSH1 0x40 DUP2 ADD SWAP1 DUP1 DUP3 LT PUSH1 0x1 PUSH1 0x1 PUSH1 0x40 SHL SUB DUP4 GT OR PUSH2 0x2E5 JUMPI PUSH2 0x2E1 SWAP2 PUSH1 0x40 MSTORE PUSH1 0x5 DUP2 MSTORE PUSH5 0x332E302E3 PUSH1 0xDC SHL PUSH1 0x20 DUP3 ADD MSTORE PUSH1 0x40 MLOAD SWAP2 DUP3 SWAP2 DUP3 PUSH2 0x3451 JUMP JUMPDEST SUB SWAP1 RETURN JUMPDEST PUSH4 0x4E487B71 PUSH1 0xE0 SHL PUSH1 0x0 MSTORE PUSH1 0x41 PUSH1 0x4 MSTORE PUSH1 0x24 PUSH1 0x0 REVERT JUMPDEST PUSH1 0x0 DUP1 REVERT JUMPDEST CALLVALUE PUSH2 0x2FB JUMPI PUSH1 0x20 CALLDATASIZE PUSH1 0x3 NOT ADD SLT PUSH2 0x2FB JUMPI PUSH1 0x1 PUSH1 0x1 PUSH1 0xA0 SHL SUB PUSH2 0x321 PUSH2 0x349A JUMP JUMPDEST AND PUSH1 0x0 MSTORE PUSH2 0x1D9 PUSH1 0x20 MSTORE PUSH1 0xE0 PUSH1 0x40 PUSH1 0x0 KECCAK256 PUSH1 0xFF DUP2 SLOAD SWAP2 PUSH1 0x1 DUP2 ADD SLOAD SWAP1 PUSH1 0x2 DUP2 ADD SLOAD PUSH1 0x3 DUP3 ADD SLOAD SWAP1 PUSH1 0x5 PUSH1 0x4 DUP5 ADD SLOAD SWAP4 ADD SLOAD SWAP4 PUSH1 0x40 MLOAD SWAP7 DUP8 MSTORE PUSH1 0x20 DUP8 ADD MSTORE PUSH1 0x40 DUP7 ADD MSTORE PUSH1 0x60 DUP6 ADD MSTORE PUSH1 0x80 DUP5 ADD MSTORE DUP2 DUP2 AND ISZERO ISZERO PUSH1 0xA0 DUP5 ADD MSTORE PUSH1 0x8 SHR AND ISZERO ISZERO PUSH1 0xC0 DUP3 ADD MSTORE RETURN JUMPDEST CALLVALUE PUSH2 0x2FB JUMPI PUSH1 0x20 CALLDATASIZE PUSH1 0x3 NOT ADD SLT PUSH2 0x2FB JUMPI PUSH1 0x1 PUSH1 0x1 PUSH1 0xA0 SHL SUB PUSH2 0x3A5 PUSH2 0x349A JUMP JUMPDEST AND PUSH1 0x0 MSTORE PUSH2 0x1D3 PUSH1 0x20 MSTORE PUSH1 0x20 PUSH1 0xFF PUSH1 0x40 PUSH1 0x0 KECCAK256 SLOAD AND PUSH1 0x40 MLOAD SWAP1 ISZERO ISZERO DUP2 MSTORE RETURN JUMPDEST CALLVALUE PUSH2 0x2FB JUMPI PUSH1 0x20 CALLDATASIZE PUSH1 0x3 NOT ADD SLT PUSH2 0x2FB JUMPI PUSH2 0x3DD PUSH2 0x349A JUMP JUMPDEST PUSH2 0x3E5 PUSH2 0x3FEE JUMP JUMPDEST PUSH1 0x1 PUSH1 0x1 PUSH1 0xA0 SHL SUB DUP2 AND ISZERO PUSH2 0x3FF JUMPI PUSH2 0x3FD SWAP1 PUSH2 0x4333 JUMP JUMPDEST STOP JUMPDEST PUSH1 0x40 MLOAD PUSH3 0x461BCD PUSH1 0xE5 SHL DUP2 MSTORE PUSH1 0x20 PUSH1 0x4 DUP3 ADD MSTORE PUSH1 0x26 PUSH1 0x24 DUP3 ADD MSTORE PUSH32 0x4F776E61626C653A206E6577206F776E657220697320746865207A65726F2061 PUSH1 0x44 DUP3 ADD MSTORE PUSH6 0x646472657373 PUSH1 0xD0 SHL PUSH1 0x64 DUP3 ADD MSTORE PUSH1 0x84 SWAP1 REVERT JUMPDEST CALLVALUE PUSH2 0x2FB JUMPI PUSH1 0x40 CALLDATASIZE PUSH1 0x3 NOT ADD SLT PUSH2 0x2FB JUMPI PUSH2 0x46C PUSH2 0x349A JUMP JUMPDEST PUSH2 0x474 PUSH2 0x34B0 JUMP JUMPDEST SWAP1 PUSH1 0x1 DUP1 PUSH1 0xA0 SHL SUB DUP1 SWAP2 AND PUSH1 0x0 MSTORE PUSH1 0x34 PUSH1 0x20 MSTORE PUSH1 0x40 PUSH1 0x0 KECCAK256 SWAP2 AND PUSH1 0x0 MSTORE PUSH1 0x20 MSTORE PUSH1 0x20 PUSH1 0x40 PUSH1 0x0 KECCAK256 SLOAD PUSH1 0x40 MLOAD SWAP1 DUP2 MSTORE RETURN JUMPDEST PUSH1 0x0 CALLDATASIZE PUSH1 0x3 NOT ADD SLT PUSH2 0x2FB JUMPI PUSH2 0x4B8 PUSH2 0x42DC JUMP JUMPDEST PUSH2 0x1CA SLOAD TIMESTAMP LT PUSH2 0x72E JUMPI PUSH2 0x1CB SLOAD TIMESTAMP GT PUSH2 0x6F9 JUMPI PUSH2 0x1CD SLOAD PUSH2 0x4E0 PUSH1 0xFF DUP3 PUSH1 0x8 SHR AND ISZERO PUSH2 0x3A90 JUMP JUMPDEST PUSH2 0x4EF PUSH2 0x1C8 SLOAD CALLVALUE LT ISZERO PUSH2 0x3AD0 JUMP JUMPDEST PUSH2 0x1C9 SLOAD SWAP1 PUSH2 0x500 DUP3 CALLVALUE GT ISZERO PUSH2 0x3B15 JUMP JUMPDEST PUSH1 0xFF PUSH2 0x1CE SWAP2 PUSH2 0x51F PUSH2 0x514 CALLVALUE DUP6 SLOAD PUSH2 0x3711 JUMP JUMPDEST PUSH2 0x1C7 SLOAD LT ISZERO PUSH2 0x3B5A JUMP JUMPDEST AND PUSH2 0x6AB JUMPI JUMPDEST CALLER PUSH1 0x0 MSTORE PUSH2 0x1D0 PUSH1 0x20 SWAP2 DUP2 DUP4 MSTORE PUSH2 0x541 CALLVALUE PUSH1 0x40 PUSH1 0x0 KECCAK256 SLOAD PUSH2 0x3711 JUMP JUMPDEST SWAP4 DUP5 GT PUSH2 0x666 JUMPI CALLER PUSH1 0x0 MSTORE PUSH2 0x1D6 DUP1 DUP5 MSTORE PUSH1 0xFF PUSH1 0x40 PUSH1 0x0 KECCAK256 SLOAD AND ISZERO PUSH2 0x5E4 JUMPI JUMPDEST PUSH32 0xD2DFF949D20E874CC6BA1DCEFB840FB8CF6000A4197BFB69ACCFEA5A32443FF5 PUSH1 0x60 DUP6 DUP6 DUP6 DUP10 PUSH2 0x595 PUSH2 0x1CC SLOAD CALLVALUE PUSH2 0x3950 JUMP JUMPDEST SWAP3 CALLER PUSH1 0x0 MSTORE PUSH2 0x1D7 DUP6 MSTORE PUSH1 0x40 PUSH1 0x0 KECCAK256 PUSH2 0x5AF DUP6 DUP3 SLOAD PUSH2 0x3711 JUMP JUMPDEST SWAP1 SSTORE CALLER PUSH1 0x0 MSTORE DUP5 MSTORE PUSH1 0x40 PUSH1 0x0 KECCAK256 SSTORE PUSH2 0x5C8 CALLVALUE DUP3 SLOAD PUSH2 0x3711 JUMP JUMPDEST SWAP1 SSTORE PUSH1 0x40 MLOAD SWAP2 CALLER DUP4 MSTORE CALLVALUE SWAP1 DUP4 ADD MSTORE PUSH1 0x40 DUP3 ADD MSTORE LOG1 PUSH1 0x1 PUSH2 0x191 SSTORE STOP JUMPDEST SWAP3 SWAP2 SWAP1 PUSH2 0x1D5 SWAP5 DUP6 SLOAD SWAP5 PUSH1 0x1 PUSH1 0x40 SHL DUP7 LT ISZERO PUSH2 0x2E5 JUMPI PUSH2 0x62D DUP7 PUSH32 0xD2DFF949D20E874CC6BA1DCEFB840FB8CF6000A4197BFB69ACCFEA5A32443FF5 SWAP9 PUSH1 0x1 PUSH1 0x60 SWAP10 ADD SWAP1 SSTORE PUSH2 0x34C6 JUMP JUMPDEST DUP2 SLOAD SWAP1 PUSH1 0x3 SHL SWAP1 CALLER DUP3 SHL SWAP2 PUSH1 0x1 DUP1 PUSH1 0xA0 SHL SUB SWAP1 SHL NOT AND OR SWAP1 SSTORE CALLER PUSH1 0x0 MSTORE DUP5 MSTORE PUSH1 0x40 PUSH1 0x0 KECCAK256 PUSH1 0x1 PUSH1 0xFF NOT DUP3 SLOAD AND OR SWAP1 SSTORE SWAP5 POP SWAP1 SWAP2 SWAP3 PUSH2 0x561 JUMP JUMPDEST PUSH1 0x40 MLOAD PUSH3 0x461BCD PUSH1 0xE5 SHL DUP2 MSTORE PUSH1 0x4 DUP2 ADD DUP5 SWAP1 MSTORE PUSH1 0x1D PUSH1 0x24 DUP3 ADD MSTORE PUSH32 0x576F756C6420657863656564206D617820636F6E747269627574696F6E000000 PUSH1 0x44 DUP3 ADD MSTORE PUSH1 0x64 SWAP1 REVERT JUMPDEST CALLER PUSH1 0x0 MSTORE PUSH2 0x1CF PUSH1 0x20 MSTORE PUSH1 0xFF PUSH1 0x40 PUSH1 0x0 KECCAK256 SLOAD AND PUSH2 0x525 JUMPI PUSH1 0x40 MLOAD PUSH3 0x461BCD PUSH1 0xE5 SHL DUP2 MSTORE PUSH1 0x20 PUSH1 0x4 DUP3 ADD MSTORE PUSH1 0xF PUSH1 0x24 DUP3 ADD MSTORE PUSH15 0x139BDD081DDA1A5D195B1A5CDD1959 PUSH1 0x8A SHL PUSH1 0x44 DUP3 ADD MSTORE PUSH1 0x64 SWAP1 REVERT JUMPDEST PUSH1 0x40 MLOAD PUSH3 0x461BCD PUSH1 0xE5 SHL DUP2 MSTORE PUSH1 0x20 PUSH1 0x4 DUP3 ADD MSTORE PUSH1 0xD PUSH1 0x24 DUP3 ADD MSTORE PUSH13 0x141C995CD85B1948195B991959 PUSH1 0x9A SHL PUSH1 0x44 DUP3 ADD MSTORE PUSH1 0x64 SWAP1 REVERT JUMPDEST PUSH1 0x40 MLOAD PUSH3 0x461BCD PUSH1 0xE5 SHL DUP2 MSTORE PUSH1 0x20 PUSH1 0x4 DUP3 ADD MSTORE PUSH1 0x13 PUSH1 0x24 DUP3 ADD MSTORE PUSH19 0x141C995CD85B19481B9BDD081CDD185C9D1959 PUSH1 0x6A SHL PUSH1 0x44 DUP3 ADD MSTORE PUSH1 0x64 SWAP1 REVERT JUMPDEST CALLVALUE PUSH2 0x2FB JUMPI PUSH1 0x0 CALLDATASIZE PUSH1 0x3 NOT ADD SLT PUSH2 0x2FB JUMPI PUSH1 0x20 PUSH2 0x1D1 SLOAD PUSH1 0x40 MLOAD SWAP1 DUP2 MSTORE RETURN JUMPDEST CALLVALUE PUSH2 0x2FB JUMPI PUSH1 0x0 CALLDATASIZE PUSH1 0x3 NOT ADD SLT PUSH2 0x2FB JUMPI PUSH1 0x20 PUSH1 0xFF PUSH2 0x1D2 SLOAD PUSH1 0x8 SHR AND PUSH1 0x40 MLOAD SWAP1 ISZERO ISZERO DUP2 MSTORE RETURN JUMPDEST PUSH1 0x0 CALLDATASIZE PUSH1 0x3 NOT ADD SLT PUSH2 0x2FB JUMPI PUSH2 0x7C3 PUSH2 0x42DC JUMP JUMPDEST PUSH2 0x1CA SLOAD TIMESTAMP LT PUSH2 0x961 JUMPI PUSH2 0x1CB SLOAD TIMESTAMP GT PUSH2 0x928 JUMPI PUSH1 0xFF PUSH2 0x1CD SLOAD PUSH1 0x8 SHR AND PUSH2 0x8EC JUMPI PUSH2 0x7F4 PUSH2 0x1C8 SLOAD CALLVALUE LT ISZERO PUSH2 0x3AD0 JUMP JUMPDEST PUSH2 0x803 PUSH2 0x1C9 SLOAD CALLVALUE GT ISZERO PUSH2 0x3B15 JUMP JUMPDEST PUSH2 0x1CE DUP1 SLOAD SWAP1 PUSH2 0x816 PUSH2 0x514 CALLVALUE DUP5 PUSH2 0x3711 JUMP JUMPDEST PUSH2 0x823 PUSH2 0x1CC SLOAD CALLVALUE PUSH2 0x3950 JUMP JUMPDEST SWAP2 DUP3 ISZERO PUSH2 0x8B1 JUMPI PUSH2 0x835 SWAP1 CALLVALUE SWAP1 PUSH2 0x3711 JUMP JUMPDEST SWAP1 SSTORE CALLER PUSH1 0x0 MSTORE PUSH2 0x1D0 PUSH1 0x20 MSTORE PUSH1 0x40 PUSH1 0x0 KECCAK256 PUSH2 0x851 CALLVALUE DUP3 SLOAD PUSH2 0x3711 JUMP JUMPDEST SWAP1 SSTORE PUSH2 0x1D8 PUSH2 0x861 DUP3 DUP3 SLOAD PUSH2 0x3711 JUMP JUMPDEST SWAP1 SSTORE PUSH2 0x86E DUP2 CALLER ADDRESS PUSH2 0x3D33 JUMP JUMPDEST PUSH2 0x877 CALLER PUSH2 0x45A1 JUMP JUMPDEST PUSH1 0x40 MLOAD SWAP1 CALLVALUE DUP3 MSTORE PUSH1 0x20 DUP3 ADD MSTORE PUSH32 0x7328344177FC6D840574AA1D342887BB3CC0DB401813CDF2EE680609A6038711 PUSH1 0x40 CALLER SWAP3 LOG2 PUSH1 0x1 PUSH2 0x191 SSTORE STOP JUMPDEST PUSH1 0x40 MLOAD PUSH3 0x461BCD PUSH1 0xE5 SHL DUP2 MSTORE PUSH1 0x20 PUSH1 0x4 DUP3 ADD MSTORE PUSH1 0x13 PUSH1 0x24 DUP3 ADD MSTORE PUSH19 0x4D757374207265636569766520746F6B656E73 PUSH1 0x68 SHL PUSH1 0x44 DUP3 ADD MSTORE PUSH1 0x64 SWAP1 REVERT JUMPDEST PUSH1 0x40 MLOAD PUSH3 0x461BCD PUSH1 0xE5 SHL DUP2 MSTORE PUSH1 0x20 PUSH1 0x4 DUP3 ADD MSTORE PUSH1 0x14 PUSH1 0x24 DUP3 ADD MSTORE PUSH20 0x141C995CD85B19481A5CC8199A5B985B1A5E9959 PUSH1 0x62 SHL PUSH1 0x44 DUP3 ADD MSTORE PUSH1 0x64 SWAP1 REVERT JUMPDEST PUSH1 0x40 MLOAD PUSH3 0x461BCD PUSH1 0xE5 SHL DUP2 MSTORE PUSH1 0x20 PUSH1 0x4 DUP3 ADD MSTORE PUSH1 0x11 PUSH1 0x24 DUP3 ADD MSTORE PUSH17 0x141C995CD85B19481A185CC8195B991959 PUSH1 0x7A SHL PUSH1 0x44 DUP3 ADD MSTORE PUSH1 0x64 SWAP1 REVERT JUMPDEST PUSH1 0x40 MLOAD PUSH3 0x461BCD PUSH1 0xE5 SHL DUP2 MSTORE PUSH1 0x20 PUSH1 0x4 DUP3 ADD MSTORE PUSH1 0x17 PUSH1 0x24 DUP3 ADD MSTORE PUSH32 0x50726573616C6520686173206E6F742073746172746564000000000000000000 PUSH1 0x44 DUP3 ADD MSTORE PUSH1 0x64 SWAP1 REVERT JUMPDEST CALLVALUE PUSH2 0x2FB JUMPI PUSH1 0x0 CALLDATASIZE PUSH1 0x3 NOT ADD SLT PUSH2 0x2FB JUMPI PUSH1 0x20 PUSH1 0xFF PUSH2 0x1D2 SLOAD AND PUSH1 0x40 MLOAD SWAP1 ISZERO ISZERO DUP2 MSTORE RETURN JUMPDEST CALLVALUE PUSH2 0x2FB JUMPI PUSH2 0x9D8 CALLDATASIZE PUSH2 0x35BC JUMP JUMPDEST SWAP2 PUSH2 0x9E1 PUSH2 0x3FEE JUMP JUMPDEST PUSH1 0xFF PUSH2 0x1D2 SLOAD AND ISZERO PUSH2 0xA76 JUMPI PUSH1 0x0 JUMPDEST DUP3 DUP2 LT PUSH2 0xA2E JUMPI POP PUSH2 0xA29 PUSH32 0x11D4D128E8F89AE2E8815168B9EBA079DD6668B75F1E3A9DD96AC6192A7C4DCB SWAP4 PUSH1 0x40 MLOAD SWAP4 DUP5 SWAP4 DUP5 PUSH2 0x3A35 JUMP JUMPDEST SUB SWAP1 LOG1 STOP JUMPDEST PUSH1 0x1 SWAP1 PUSH1 0x1 PUSH1 0x1 PUSH1 0xA0 SHL SUB PUSH2 0xA4C PUSH2 0xA47 DUP4 DUP8 DUP8 PUSH2 0x3A25 JUMP JUMPDEST PUSH2 0x38EA JUMP JUMPDEST AND PUSH1 0x0 MSTORE PUSH2 0x1D3 PUSH1 0x20 MSTORE PUSH2 0xA70 DUP6 PUSH1 0x40 PUSH1 0x0 KECCAK256 SWAP1 PUSH1 0xFF DUP1 NOT DUP4 SLOAD AND SWAP2 ISZERO ISZERO AND OR SWAP1 SSTORE JUMP JUMPDEST ADD PUSH2 0x9F0 JUMP JUMPDEST PUSH1 0x40 MLOAD PUSH3 0x461BCD PUSH1 0xE5 SHL DUP2 MSTORE PUSH1 0x20 PUSH1 0x4 DUP3 ADD MSTORE PUSH1 0x15 PUSH1 0x24 DUP3 ADD MSTORE PUSH21 0x109B1858DADB1A5CDD081B9BDD08195B98589B1959 PUSH1 0x5A SHL PUSH1 0x44 DUP3 ADD MSTORE PUSH1 0x64 SWAP1 REVERT JUMPDEST CALLVALUE PUSH2 0x2FB JUMPI PUSH1 0x0 CALLDATASIZE PUSH1 0x3 NOT ADD SLT PUSH2 0x2FB JUMPI PUSH1 0x20 PUSH2 0x1C5 SLOAD PUSH1 0x40 MLOAD SWAP1 DUP2 MSTORE RETURN JUMPDEST CALLVALUE PUSH2 0x2FB JUMPI PUSH1 0x0 CALLDATASIZE PUSH1 0x3 NOT ADD SLT PUSH2 0x2FB JUMPI PUSH2 0xAEB PUSH2 0x42DC JUMP JUMPDEST PUSH2 0xAF9 PUSH2 0x1CB SLOAD TIMESTAMP GT PUSH2 0x37C5 JUMP JUMPDEST PUSH2 0xB0C PUSH1 0xFF PUSH2 0x1CD SLOAD PUSH1 0x8 SHR AND ISZERO PUSH2 0x3A90 JUMP JUMPDEST PUSH2 0x1CE SLOAD PUSH2 0x1C6 SLOAD GT ISZERO PUSH2 0xBC5 JUMPI CALLER PUSH1 0x0 MSTORE PUSH2 0x1D0 DUP1 PUSH1 0x20 MSTORE PUSH1 0x40 PUSH1 0x0 KECCAK256 SLOAD SWAP1 DUP2 ISZERO PUSH2 0xB8E JUMPI CALLER PUSH1 0x0 MSTORE PUSH1 0x20 MSTORE PUSH1 0x0 PUSH1 0x40 DUP2 KECCAK256 SSTORE PUSH1 0x0 DUP1 DUP1 DUP1 DUP5 CALLER DUP3 CALL ISZERO PUSH2 0xB82 JUMPI PUSH1 0x40 MLOAD SWAP1 DUP2 MSTORE PUSH32 0x358FE4192934D3BF28AE181FEDA1F4BD08CA67F5E2FAD55582CCE5EB67304AE9 PUSH1 0x20 CALLER SWAP3 LOG2 PUSH1 0x1 PUSH2 0x191 SSTORE STOP JUMPDEST PUSH1 0x40 MLOAD RETURNDATASIZE PUSH1 0x0 DUP3 RETURNDATACOPY RETURNDATASIZE SWAP1 REVERT JUMPDEST PUSH1 0x40 MLOAD PUSH3 0x461BCD PUSH1 0xE5 SHL DUP2 MSTORE PUSH1 0x20 PUSH1 0x4 DUP3 ADD MSTORE PUSH1 0xF PUSH1 0x24 DUP3 ADD MSTORE PUSH15 0x27379031B7B73A3934B13ABA34B7B7 PUSH1 0x89 SHL PUSH1 0x44 DUP3 ADD MSTORE PUSH1 0x64 SWAP1 REVERT JUMPDEST PUSH1 0x40 MLOAD PUSH3 0x461BCD PUSH1 0xE5 SHL DUP2 MSTORE PUSH1 0x20 PUSH1 0x4 DUP3 ADD MSTORE PUSH1 0x10 PUSH1 0x24 DUP3 ADD MSTORE PUSH16 0x14DBD99D0818D85C081C995858DA1959 PUSH1 0x82 SHL PUSH1 0x44 DUP3 ADD MSTORE PUSH1 0x64 SWAP1 REVERT JUMPDEST CALLVALUE PUSH2 0x2FB JUMPI PUSH1 0x20 CALLDATASIZE PUSH1 0x3 NOT ADD SLT PUSH2 0x2FB JUMPI PUSH1 0x1 PUSH1 0x1 PUSH1 0xA0 SHL SUB PUSH2 0xC1E PUSH2 0x349A JUMP JUMPDEST AND PUSH1 0x0 MSTORE PUSH2 0x1DA PUSH1 0x20 MSTORE PUSH1 0x20 PUSH1 0xFF PUSH1 0x40 PUSH1 0x0 KECCAK256 SLOAD AND PUSH1 0x40 MLOAD SWAP1 ISZERO ISZERO DUP2 MSTORE RETURN JUMPDEST CALLVALUE PUSH2 0x2FB JUMPI PUSH2 0xC4B CALLDATASIZE PUSH2 0x35BC JUMP JUMPDEST SWAP2 PUSH2 0xC54 PUSH2 0x3FEE JUMP JUMPDEST PUSH1 0xFF PUSH2 0x1CD SLOAD AND ISZERO PUSH2 0xCDF JUMPI PUSH1 0x0 JUMPDEST DUP3 DUP2 LT PUSH2 0xC9C JUMPI POP PUSH2 0xA29 PUSH32 0xA091D95AA3F4B3529E12C57E1E9E10580EDDE8A7AC6FD51DD3C8E824C332DBE0 SWAP4 PUSH1 0x40 MLOAD SWAP4 DUP5 SWAP4 DUP5 PUSH2 0x3A35 JUMP JUMPDEST PUSH1 0x1 SWAP1 PUSH1 0x1 PUSH1 0x1 PUSH1 0xA0 SHL SUB PUSH2 0xCB5 PUSH2 0xA47 DUP4 DUP8 DUP8 PUSH2 0x3A25 JUMP JUMPDEST AND PUSH1 0x0 MSTORE PUSH2 0x1CF PUSH1 0x20 MSTORE PUSH2 0xCD9 DUP6 PUSH1 0x40 PUSH1 0x0 KECCAK256 SWAP1 PUSH1 0xFF DUP1 NOT DUP4 SLOAD AND SWAP2 ISZERO ISZERO AND OR SWAP1 SSTORE JUMP JUMPDEST ADD PUSH2 0xC63 JUMP JUMPDEST PUSH1 0x40 MLOAD PUSH3 0x461BCD PUSH1 0xE5 SHL DUP2 MSTORE PUSH1 0x20 PUSH1 0x4 DUP3 ADD MSTORE PUSH1 0x15 PUSH1 0x24 DUP3 ADD MSTORE PUSH21 0x15DA1A5D195B1A5CDD081B9BDD08195B98589B1959 PUSH1 0x5A SHL PUSH1 0x44 DUP3 ADD MSTORE PUSH1 0x64 SWAP1 REVERT JUMPDEST CALLVALUE PUSH2 0x2FB JUMPI PUSH1 0x0 CALLDATASIZE PUSH1 0x3 NOT ADD SLT PUSH2 0x2FB JUMPI PUSH1 0x40 MLOAD DUP1 PUSH2 0x1D5 SWAP2 DUP3 SLOAD DUP1 DUP3 MSTORE PUSH1 0x20 DUP1 SWAP3 ADD SWAP4 PUSH1 0x0 MSTORE PUSH32 0x9F31C6E1FD7DFE4437C2313157ABA3C74244A3ED366F8F45280769D409A8EB0A SWAP2 PUSH1 0x0 SWAP1 JUMPDEST DUP3 DUP3 LT PUSH2 0xD8C JUMPI PUSH2 0x2E1 DUP6 PUSH2 0xD80 DUP2 DUP10 SUB DUP3 PUSH2 0x3549 JUMP JUMPDEST PUSH1 0x40 MLOAD SWAP2 DUP3 SWAP2 DUP3 PUSH2 0x340C JUMP JUMPDEST DUP4 SLOAD PUSH1 0x1 PUSH1 0x1 PUSH1 0xA0 SHL SUB AND DUP7 MSTORE SWAP5 DUP6 ADD SWAP5 PUSH1 0x1 SWAP4 DUP5 ADD SWAP4 SWAP1 SWAP2 ADD SWAP1 PUSH2 0xD69 JUMP JUMPDEST CALLVALUE PUSH2 0x2FB JUMPI PUSH1 0xC0 CALLDATASIZE PUSH1 0x3 NOT ADD SLT PUSH2 0x2FB JUMPI PUSH2 0xDC5 PUSH2 0x349A JUMP JUMPDEST PUSH1 0x24 DUP1 CALLDATALOAD SWAP1 PUSH1 0x44 SWAP2 DUP3 CALLDATALOAD SWAP2 PUSH1 0x64 SWAP4 DUP5 CALLDATALOAD SWAP2 PUSH1 0x84 CALLDATALOAD SWAP7 PUSH1 0xA4 CALLDATALOAD SWAP1 DUP2 ISZERO ISZERO DUP1 SWAP3 SUB PUSH2 0x2FB JUMPI PUSH2 0xDF0 PUSH2 0x3FEE JUMP JUMPDEST PUSH1 0x1 PUSH1 0x1 PUSH1 0xA0 SHL SUB AND SWAP7 DUP8 ISZERO PUSH2 0x10B5 JUMPI DUP6 ISZERO PUSH2 0x1080 JUMPI DUP9 ISZERO PUSH2 0x1049 JUMPI DUP8 PUSH1 0x0 MSTORE PUSH2 0x1DA SWAP4 PUSH1 0x20 SWAP4 DUP6 DUP6 MSTORE PUSH1 0xFF PUSH1 0x40 PUSH1 0x0 KECCAK256 SLOAD AND PUSH2 0x1013 JUMPI ADDRESS PUSH1 0x0 MSTORE PUSH1 0x33 DUP6 MSTORE DUP8 PUSH1 0x40 PUSH1 0x0 KECCAK256 SLOAD LT PUSH2 0xFDC JUMPI TIMESTAMP DUP10 LT PUSH2 0xF9C JUMPI DUP11 DUP8 GT PUSH2 0xF5C JUMPI POP POP POP SWAP2 PUSH2 0xF57 SWAP4 SWAP2 PUSH2 0xF13 DUP9 SWAP10 SWAP5 PUSH32 0x47D46F58C7D60D60571092CFF5715B8C8C5BC1347DB2BB9890E639BF3680BA7B SWAP10 PUSH2 0xEFC PUSH1 0x5 PUSH1 0x40 MLOAD PUSH2 0xE8B DUP2 PUSH2 0x3513 JUMP JUMPDEST DUP12 DUP2 MSTORE DUP7 DUP2 ADD DUP14 DUP2 MSTORE PUSH1 0x40 DUP3 ADD DUP11 DUP2 MSTORE PUSH1 0x60 DUP4 ADD SWAP1 DUP13 DUP3 MSTORE PUSH1 0x80 DUP5 ADD SWAP3 PUSH1 0x0 DUP5 MSTORE PUSH1 0xA0 DUP6 ADD SWAP9 DUP10 MSTORE PUSH1 0xC0 DUP6 ADD SWAP8 PUSH1 0x0 DUP10 MSTORE PUSH1 0x0 MSTORE PUSH2 0x1D9 DUP12 MSTORE PUSH1 0x40 PUSH1 0x0 KECCAK256 SWAP5 MLOAD DUP6 SSTORE MLOAD PUSH1 0x1 DUP6 ADD SSTORE MLOAD PUSH1 0x2 DUP5 ADD SSTORE MLOAD PUSH1 0x3 DUP4 ADD SSTORE MLOAD PUSH1 0x4 DUP3 ADD SSTORE ADD SWAP3 MLOAD ISZERO ISZERO DUP4 SWAP1 PUSH1 0xFF DUP1 NOT DUP4 SLOAD AND SWAP2 ISZERO ISZERO AND OR SWAP1 SSTORE JUMP JUMPDEST MLOAD DUP2 SLOAD PUSH2 0xFF00 NOT AND SWAP1 ISZERO ISZERO PUSH1 0x8 SHL PUSH2 0xFF00 AND OR SWAP1 SSTORE JUMP JUMPDEST MSTORE PUSH1 0x40 PUSH1 0x0 KECCAK256 PUSH1 0x1 PUSH1 0xFF NOT DUP3 SLOAD AND OR SWAP1 SSTORE PUSH2 0x1DB PUSH2 0xF32 DUP6 DUP3 SLOAD PUSH2 0x3711 JUMP JUMPDEST SWAP1 SSTORE PUSH1 0x40 MLOAD SWAP5 DUP6 SWAP5 DUP6 SWAP1 SWAP5 SWAP4 SWAP3 PUSH1 0x60 SWAP3 PUSH1 0x80 DUP4 ADD SWAP7 DUP4 MSTORE PUSH1 0x20 DUP4 ADD MSTORE PUSH1 0x40 DUP3 ADD MSTORE ADD MSTORE JUMP JUMPDEST SUB SWAP1 LOG2 STOP JUMPDEST DUP5 SWAP2 PUSH1 0x19 PUSH32 0x436C696666206C6F6E676572207468616E2076657374696E6700000000000000 SWAP3 PUSH1 0x40 MLOAD SWAP5 PUSH3 0x461BCD PUSH1 0xE5 SHL DUP7 MSTORE PUSH1 0x4 DUP7 ADD MSTORE DUP5 ADD MSTORE DUP3 ADD MSTORE REVERT JUMPDEST DUP5 SWAP2 PUSH1 0x19 PUSH32 0x53746172742074696D65206D7573742062652066757475726500000000000000 SWAP3 PUSH1 0x40 MLOAD SWAP5 PUSH3 0x461BCD PUSH1 0xE5 SHL DUP7 MSTORE PUSH1 0x4 DUP7 ADD MSTORE DUP5 ADD MSTORE DUP3 ADD MSTORE REVERT JUMPDEST DUP5 SWAP2 PUSH1 0x14 PUSH20 0x496E73756666696369656E742062616C616E6365 PUSH1 0x60 SHL SWAP3 PUSH1 0x40 MLOAD SWAP5 PUSH3 0x461BCD PUSH1 0xE5 SHL DUP7 MSTORE PUSH1 0x4 DUP7 ADD MSTORE DUP5 ADD MSTORE DUP3 ADD MSTORE REVERT JUMPDEST DUP5 SWAP2 PUSH1 0x13 PUSH19 0x416C7265616479206861732076657374696E67 PUSH1 0x68 SHL SWAP3 PUSH1 0x40 MLOAD SWAP5 PUSH3 0x461BCD PUSH1 0xE5 SHL DUP7 MSTORE PUSH1 0x4 DUP7 ADD MSTORE DUP5 ADD MSTORE DUP3 ADD MSTORE REVERT JUMPDEST PUSH1 0x40 MLOAD PUSH3 0x461BCD PUSH1 0xE5 SHL DUP2 MSTORE PUSH1 0x20 PUSH1 0x4 DUP3 ADD MSTORE PUSH1 0x14 DUP2 DUP6 ADD MSTORE PUSH20 0x4475726174696F6E206D757374206265203E203 PUSH1 0x64 SHL DUP2 DUP7 ADD MSTORE REVERT JUMPDEST PUSH1 0x40 MLOAD PUSH3 0x461BCD PUSH1 0xE5 SHL DUP2 MSTORE PUSH1 0x20 PUSH1 0x4 DUP3 ADD MSTORE PUSH1 0x12 DUP2 DUP6 ADD MSTORE PUSH18 0x416D6F756E74206D757374206265203E203 PUSH1 0x74 SHL DUP2 DUP7 ADD MSTORE REVERT JUMPDEST PUSH1 0x40 MLOAD PUSH3 0x461BCD PUSH1 0xE5 SHL DUP2 MSTORE PUSH1 0x20 PUSH1 0x4 DUP3 ADD MSTORE PUSH1 0x13 DUP2 DUP6 ADD MSTORE PUSH19 0x496E76616C69642062656E6566696369617279 PUSH1 0x68 SHL DUP2 DUP7 ADD MSTORE REVERT JUMPDEST CALLVALUE PUSH2 0x2FB JUMPI PUSH1 0x40 CALLDATASIZE PUSH1 0x3 NOT ADD SLT PUSH2 0x2FB JUMPI PUSH2 0x1111 PUSH2 0x1107 PUSH2 0x349A JUMP JUMPDEST PUSH1 0x24 CALLDATALOAD SWAP1 CALLER PUSH2 0x3D33 JUMP JUMPDEST PUSH1 0x20 PUSH1 0x40 MLOAD PUSH1 0x1 DUP2 MSTORE RETURN JUMPDEST CALLVALUE PUSH2 0x2FB JUMPI PUSH1 0x20 CALLDATASIZE PUSH1 0x3 NOT ADD SLT PUSH2 0x2FB JUMPI PUSH2 0x100 PUSH2 0x1140 PUSH2 0x113B PUSH2 0x349A JUMP JUMPDEST PUSH2 0x3963 JUMP JUMPDEST SWAP6 PUSH1 0x40 SWAP6 SWAP2 SWAP6 SWAP5 SWAP3 SWAP5 MLOAD SWAP8 ISZERO ISZERO DUP9 MSTORE PUSH1 0x20 DUP9 ADD MSTORE PUSH1 0x40 DUP8 ADD MSTORE PUSH1 0x60 DUP7 ADD MSTORE PUSH1 0x80 DUP6 ADD MSTORE PUSH1 0xA0 DUP5 ADD MSTORE ISZERO ISZERO PUSH1 0xC0 DUP4 ADD MSTORE ISZERO ISZERO PUSH1 0xE0 DUP3 ADD MSTORE RETURN JUMPDEST CALLVALUE PUSH2 0x2FB JUMPI PUSH1 0x40 CALLDATASIZE PUSH1 0x3 NOT ADD SLT PUSH2 0x2FB JUMPI PUSH2 0x1191 PUSH2 0x349A JUMP JUMPDEST PUSH1 0x24 CALLDATALOAD SWAP1 CALLER PUSH1 0x0 MSTORE PUSH1 0x34 PUSH1 0x20 MSTORE PUSH1 0x40 PUSH1 0x0 KECCAK256 PUSH1 0x1 DUP1 PUSH1 0xA0 SHL SUB DUP3 AND PUSH1 0x0 MSTORE PUSH1 0x20 MSTORE PUSH1 0x40 PUSH1 0x0 KECCAK256 SLOAD SWAP2 DUP1 DUP4 LT PUSH2 0x11CC JUMPI PUSH2 0x1111 SWAP3 SUB SWAP1 CALLER PUSH2 0x3B99 JUMP JUMPDEST PUSH1 0x40 MLOAD PUSH3 0x461BCD PUSH1 0xE5 SHL DUP2 MSTORE PUSH1 0x20 PUSH1 0x4 DUP3 ADD MSTORE PUSH1 0x25 PUSH1 0x24 DUP3 ADD MSTORE PUSH32 0x45524332303A2064656372656173656420616C6C6F77616E63652062656C6F77 PUSH1 0x44 DUP3 ADD MSTORE PUSH5 0x207A65726F PUSH1 0xD8 SHL PUSH1 0x64 DUP3 ADD MSTORE PUSH1 0x84 SWAP1 REVERT JUMPDEST CALLVALUE PUSH2 0x2FB JUMPI PUSH1 0x3 NOT PUSH1 0x20 CALLDATASIZE DUP3 ADD SLT PUSH2 0x2FB JUMPI PUSH1 0x1 PUSH1 0x1 PUSH1 0x40 SHL SUB PUSH1 0x4 CALLDATALOAD GT PUSH2 0x2FB JUMPI PUSH2 0x240 SWAP1 PUSH1 0x4 CALLDATALOAD CALLDATASIZE SUB ADD SLT PUSH2 0x2FB JUMPI PUSH1 0x0 SLOAD PUSH1 0xFF DUP2 PUSH1 0x8 SHR AND ISZERO DUP1 DUP1 SWAP2 PUSH2 0x2015 JUMPI JUMPDEST DUP1 ISZERO PUSH2 0x1FFE JUMPI JUMPDEST ISZERO PUSH2 0x1FA2 JUMPI PUSH1 0xFF NOT DUP3 AND PUSH1 0x1 OR PUSH1 0x0 SSTORE PUSH2 0x12BF SWAP2 DUP2 PUSH2 0x1F90 JUMPI JUMPDEST POP PUSH2 0x1293 PUSH1 0x4 DUP1 CALLDATALOAD ADD DUP1 PUSH2 0x38B8 JUMP JUMPDEST PUSH2 0x12B7 PUSH2 0x12AD PUSH1 0x24 PUSH1 0x4 SWAP7 SWAP5 SWAP7 CALLDATALOAD ADD PUSH1 0x4 CALLDATALOAD PUSH1 0x4 ADD PUSH2 0x38B8 JUMP JUMPDEST SWAP6 SWAP1 SWAP3 CALLDATASIZE SWAP2 PUSH2 0x3585 JUMP JUMPDEST SWAP4 CALLDATASIZE SWAP2 PUSH2 0x3585 JUMP JUMPDEST PUSH2 0x12D9 PUSH1 0xFF PUSH1 0x0 SLOAD PUSH1 0x8 SHR AND PUSH2 0x12D4 DUP2 PUSH2 0x437C JUMP JUMPDEST PUSH2 0x437C JUMP JUMPDEST DUP3 MLOAD PUSH1 0x1 PUSH1 0x1 PUSH1 0x40 SHL SUB DUP2 GT PUSH2 0x2E5 JUMPI PUSH2 0x12F4 PUSH1 0x36 SLOAD PUSH2 0x3615 JUMP JUMPDEST PUSH1 0x1F DUP2 GT PUSH2 0x1F27 JUMPI JUMPDEST POP PUSH1 0x20 PUSH1 0x1F DUP3 GT PUSH1 0x1 EQ PUSH2 0x1EB3 JUMPI DUP2 SWAP3 SWAP4 SWAP5 PUSH1 0x0 SWAP3 PUSH2 0x1EA8 JUMPI JUMPDEST POP POP DUP2 PUSH1 0x1 SHL SWAP2 PUSH1 0x0 NOT SWAP1 PUSH1 0x3 SHL SHR NOT AND OR PUSH1 0x36 SSTORE JUMPDEST DUP1 MLOAD SWAP1 PUSH1 0x1 PUSH1 0x1 PUSH1 0x40 SHL SUB DUP3 GT PUSH2 0x2E5 JUMPI DUP2 SWAP1 PUSH2 0x134B PUSH1 0x37 SLOAD PUSH2 0x3615 JUMP JUMPDEST PUSH1 0x1F DUP2 GT PUSH2 0x1E34 JUMPI JUMPDEST POP PUSH1 0x20 SWAP1 PUSH1 0x1F DUP4 GT PUSH1 0x1 EQ PUSH2 0x1DBC JUMPI PUSH1 0x0 SWAP3 PUSH2 0x1DB1 JUMPI JUMPDEST POP POP DUP2 PUSH1 0x1 SHL SWAP2 PUSH1 0x0 NOT SWAP1 PUSH1 0x3 SHL SHR NOT AND OR PUSH1 0x37 SSTORE JUMPDEST PUSH2 0x13BB PUSH1 0xFF PUSH1 0x0 SLOAD PUSH1 0x8 SHR AND PUSH2 0x1396 DUP2 PUSH2 0x437C JUMP JUMPDEST PUSH2 0x139F DUP2 PUSH2 0x437C JUMP JUMPDEST PUSH2 0x13A8 DUP2 PUSH2 0x437C JUMP JUMPDEST PUSH1 0xFF NOT PUSH1 0x97 SLOAD AND PUSH1 0x97 SSTORE PUSH2 0x12D4 DUP2 PUSH2 0x437C JUMP JUMPDEST PUSH2 0x13C4 CALLER PUSH2 0x4333 JUMP JUMPDEST PUSH2 0x13ED PUSH1 0xFF PUSH1 0x0 SLOAD PUSH1 0x8 SHR AND PUSH2 0x13D9 DUP2 PUSH2 0x437C JUMP JUMPDEST PUSH2 0x13E2 DUP2 PUSH2 0x437C JUMP JUMPDEST PUSH1 0x1 PUSH2 0x191 SSTORE PUSH2 0x437C JUMP JUMPDEST PUSH2 0x1403 PUSH2 0x13FE PUSH1 0x84 PUSH1 0x4 CALLDATALOAD ADD PUSH2 0x38EA JUMP JUMPDEST PUSH2 0x4333 JUMP JUMPDEST PUSH1 0x44 PUSH1 0x4 CALLDATALOAD ADD CALLDATALOAD PUSH1 0x64 PUSH1 0x4 CALLDATALOAD ADD CALLDATALOAD LT PUSH2 0x1D60 JUMPI PUSH2 0x142B PUSH2 0x224 PUSH1 0x4 CALLDATALOAD ADD PUSH1 0x4 CALLDATALOAD PUSH1 0x4 ADD PUSH2 0x38FE JUMP JUMPDEST ISZERO SWAP1 POP PUSH2 0x1CD7 JUMPI PUSH2 0x144A PUSH2 0x1E4 PUSH1 0x4 CALLDATALOAD ADD CALLDATALOAD PUSH2 0x1C4 PUSH1 0x4 CALLDATALOAD ADD CALLDATALOAD PUSH2 0x3711 JUMP JUMPDEST SWAP1 PUSH1 0x0 SWAP2 JUMPDEST PUSH2 0x1464 PUSH2 0x224 PUSH1 0x4 CALLDATALOAD ADD PUSH1 0x4 CALLDATALOAD PUSH1 0x4 ADD PUSH2 0x38FE JUMP JUMPDEST SWAP1 POP DUP4 LT ISZERO PUSH2 0x157A JUMPI DUP3 PUSH2 0x1498 PUSH2 0xA47 PUSH2 0x1489 PUSH2 0x224 PUSH1 0x4 CALLDATALOAD ADD PUSH1 0x4 CALLDATALOAD PUSH1 0x4 ADD PUSH2 0x38FE JUMP JUMPDEST PUSH1 0x1 PUSH1 0x1 PUSH1 0xA0 SHL SUB SWAP5 SWAP2 PUSH2 0x3933 JUMP JUMPDEST AND ISZERO PUSH2 0x1535 JUMPI PUSH1 0x20 PUSH2 0x14BF DUP5 PUSH2 0x14B9 PUSH2 0x224 PUSH1 0x4 CALLDATALOAD ADD PUSH1 0x4 CALLDATALOAD PUSH1 0x4 ADD PUSH2 0x38FE JUMP JUMPDEST SWAP1 PUSH2 0x3933 JUMP JUMPDEST ADD CALLDATALOAD ISZERO PUSH2 0x14F7 JUMPI PUSH2 0x14EF PUSH1 0x1 SWAP2 PUSH1 0x20 PUSH2 0x14E7 DUP7 PUSH2 0x14B9 PUSH2 0x224 PUSH1 0x4 CALLDATALOAD ADD PUSH1 0x4 CALLDATALOAD PUSH1 0x4 ADD PUSH2 0x38FE JUMP JUMPDEST ADD CALLDATALOAD SWAP1 PUSH2 0x3711 JUMP JUMPDEST SWAP3 ADD SWAP2 PUSH2 0x144F JUMP JUMPDEST PUSH1 0x40 MLOAD PUSH3 0x461BCD PUSH1 0xE5 SHL DUP2 MSTORE PUSH1 0x20 PUSH1 0x4 DUP3 ADD MSTORE PUSH1 0x16 PUSH1 0x24 DUP3 ADD MSTORE PUSH22 0x50657263656E74616765206D757374206265203E203 PUSH1 0x54 SHL PUSH1 0x44 DUP3 ADD MSTORE PUSH1 0x64 SWAP1 REVERT JUMPDEST PUSH1 0x40 MLOAD PUSH3 0x461BCD PUSH1 0xE5 SHL DUP2 MSTORE PUSH1 0x20 PUSH1 0x4 DUP3 ADD MSTORE PUSH1 0x1D PUSH1 0x24 DUP3 ADD MSTORE PUSH32 0x57616C6C657420616464726573732063616E6E6F74206265207A65726F000000 PUSH1 0x44 DUP3 ADD MSTORE PUSH1 0x64 SWAP1 REVERT JUMPDEST PUSH1 0x64 SWAP2 SWAP3 POP SUB PUSH2 0x1C92 JUMPI JUMPDEST PUSH1 0x64 PUSH1 0x4 CALLDATALOAD ADD CALLDATALOAD PUSH2 0x1D1 SSTORE PUSH2 0x159E PUSH1 0xA4 PUSH1 0x4 CALLDATALOAD ADD PUSH2 0x3943 JUMP JUMPDEST ISZERO ISZERO PUSH2 0x1D2 SWAP1 DUP2 SLOAD PUSH1 0xFF PUSH2 0xFF00 PUSH2 0x15B9 PUSH1 0xC4 PUSH1 0x4 CALLDATALOAD ADD PUSH2 0x3943 JUMP JUMPDEST ISZERO ISZERO PUSH1 0x8 SHL AND SWAP3 AND SWAP1 PUSH2 0xFFFF NOT AND OR OR SWAP1 SSTORE PUSH1 0x64 PUSH2 0x15E4 PUSH2 0x1C4 PUSH1 0x4 CALLDATALOAD ADD CALLDATALOAD PUSH1 0x44 PUSH1 0x4 CALLDATALOAD ADD CALLDATALOAD PUSH2 0x3950 JUMP JUMPDEST DIV PUSH1 0x64 PUSH2 0x15FE PUSH2 0x1E4 PUSH1 0x4 CALLDATALOAD ADD CALLDATALOAD PUSH1 0x44 PUSH1 0x4 CALLDATALOAD ADD CALLDATALOAD PUSH2 0x3950 JUMP JUMPDEST DIV SWAP1 DUP1 ISZERO PUSH2 0x1C4D JUMPI DUP2 ISZERO PUSH2 0x1C08 JUMPI PUSH2 0x1616 DUP2 ADDRESS PUSH2 0x43DC JUMP JUMPDEST PUSH1 0x40 MLOAD SWAP1 DUP2 MSTORE PUSH1 0x0 DUP1 MLOAD PUSH1 0x20 PUSH2 0x480C DUP4 CODECOPY DUP2 MLOAD SWAP2 MSTORE PUSH1 0x20 ADDRESS SWAP3 LOG2 PUSH2 0x163A DUP2 ADDRESS PUSH2 0x43DC JUMP JUMPDEST PUSH1 0x40 MLOAD SWAP1 DUP2 MSTORE PUSH1 0x0 DUP1 MLOAD PUSH1 0x20 PUSH2 0x480C DUP4 CODECOPY DUP2 MLOAD SWAP2 MSTORE PUSH1 0x20 ADDRESS SWAP3 LOG2 PUSH1 0x40 MLOAD DUP1 PUSH2 0x140 DUP2 ADD LT PUSH1 0x1 PUSH1 0x1 PUSH1 0x40 SHL SUB PUSH2 0x140 DUP4 ADD GT OR PUSH2 0x2E5 JUMPI PUSH2 0x140 DUP2 ADD PUSH1 0x40 SWAP1 DUP2 MSTORE PUSH1 0x4 CALLDATALOAD PUSH2 0x104 DUP2 ADD CALLDATALOAD DUP1 DUP5 MSTORE PUSH2 0x124 DUP3 ADD CALLDATALOAD PUSH1 0x20 DUP6 ADD DUP2 SWAP1 MSTORE PUSH2 0x144 DUP4 ADD CALLDATALOAD SWAP4 DUP6 ADD DUP5 SWAP1 MSTORE PUSH2 0x164 DUP4 ADD CALLDATALOAD PUSH1 0x60 DUP7 ADD DUP2 SWAP1 MSTORE PUSH2 0x184 DUP5 ADD CALLDATALOAD PUSH1 0x80 DUP8 ADD DUP2 SWAP1 MSTORE PUSH2 0x1A4 DUP6 ADD CALLDATALOAD PUSH1 0xA0 DUP9 ADD DUP2 SWAP1 MSTORE PUSH1 0xE4 SWAP1 SWAP6 ADD CALLDATALOAD PUSH1 0xC0 DUP9 ADD DUP2 SWAP1 MSTORE PUSH1 0x0 PUSH1 0xE0 DUP10 ADD DUP2 SWAP1 MSTORE PUSH2 0x100 DUP10 ADD DUP2 SWAP1 MSTORE PUSH2 0x120 SWAP9 SWAP1 SWAP9 ADD DUP9 SWAP1 MSTORE PUSH2 0x1C6 SWAP5 SWAP1 SWAP5 SSTORE PUSH2 0x1C7 SWAP3 SWAP1 SWAP3 SSTORE PUSH2 0x1C8 SWAP5 SWAP1 SWAP5 SSTORE PUSH2 0x1C9 SWAP4 SWAP1 SWAP4 SSTORE PUSH2 0x1CA SWAP3 SWAP1 SWAP3 SSTORE PUSH2 0x1CB SSTORE PUSH2 0x1CC SSTORE PUSH2 0x1CD DUP1 SLOAD PUSH2 0xFFFF NOT AND SWAP1 SSTORE PUSH2 0x1CE DUP2 SWAP1 SSTORE JUMPDEST PUSH2 0x1742 PUSH2 0x224 PUSH1 0x4 CALLDATALOAD ADD PUSH1 0x4 CALLDATALOAD PUSH1 0x4 ADD PUSH2 0x38FE JUMP JUMPDEST SWAP1 POP DUP2 LT ISZERO PUSH2 0x1BC9 JUMPI PUSH1 0x64 PUSH2 0x1779 PUSH1 0x20 PUSH2 0x176B DUP5 PUSH2 0x14B9 PUSH2 0x224 PUSH1 0x4 CALLDATALOAD ADD PUSH1 0x4 CALLDATALOAD PUSH1 0x4 ADD PUSH2 0x38FE JUMP JUMPDEST ADD CALLDATALOAD PUSH1 0x44 PUSH1 0x4 CALLDATALOAD ADD CALLDATALOAD PUSH2 0x3950 JUMP JUMPDEST DIV SWAP1 DUP2 ISZERO PUSH2 0x1B84 JUMPI PUSH2 0x17A5 PUSH1 0x40 PUSH2 0x179F DUP4 PUSH2 0x14B9 PUSH2 0x224 PUSH1 0x4 CALLDATALOAD ADD PUSH1 0x4 CALLDATALOAD PUSH1 0x4 ADD PUSH2 0x38FE JUMP JUMPDEST ADD PUSH2 0x3943 JUMP JUMPDEST ISZERO PUSH2 0x1B57 JUMPI PUSH2 0x17B4 DUP3 ADDRESS PUSH2 0x43DC JUMP JUMPDEST PUSH1 0xA0 PUSH2 0x17CF DUP3 PUSH2 0x14B9 PUSH2 0x224 PUSH1 0x4 CALLDATALOAD ADD PUSH1 0x4 CALLDATALOAD PUSH1 0x4 ADD PUSH2 0x38FE JUMP JUMPDEST ADD CALLDATALOAD TIMESTAMP LT ISZERO PUSH2 0x1B01 JUMPI PUSH3 0x15180 PUSH1 0x60 PUSH2 0x17F7 DUP4 PUSH2 0x14B9 PUSH2 0x224 PUSH1 0x4 CALLDATALOAD ADD PUSH1 0x4 CALLDATALOAD PUSH1 0x4 ADD PUSH2 0x38FE JUMP JUMPDEST ADD CALLDATALOAD LT PUSH2 0x1AAC JUMPI PUSH1 0xA0 PUSH2 0x1819 DUP3 PUSH2 0x14B9 PUSH2 0x224 PUSH1 0x4 CALLDATALOAD ADD PUSH1 0x4 CALLDATALOAD PUSH1 0x4 ADD PUSH2 0x38FE JUMP JUMPDEST ADD CALLDATALOAD SWAP2 PUSH1 0x80 PUSH2 0x1837 DUP4 PUSH2 0x14B9 PUSH2 0x224 PUSH1 0x4 CALLDATALOAD ADD PUSH1 0x4 CALLDATALOAD PUSH1 0x4 ADD PUSH2 0x38FE JUMP JUMPDEST ADD CALLDATALOAD SWAP3 DUP4 PUSH3 0x15180 DUP2 MUL DIV PUSH3 0x15180 EQ DUP5 ISZERO OR ISZERO PUSH2 0x1A96 JUMPI PUSH1 0x60 PUSH2 0x186A DUP5 PUSH2 0x14B9 PUSH2 0x224 PUSH1 0x4 CALLDATALOAD ADD PUSH1 0x4 CALLDATALOAD PUSH1 0x4 ADD PUSH2 0x38FE JUMP JUMPDEST ADD CALLDATALOAD DUP1 PUSH3 0x15180 DUP2 MUL DIV PUSH3 0x15180 EQ DUP2 ISZERO OR ISZERO PUSH2 0x1A96 JUMPI PUSH3 0x15180 PUSH32 0x47D46F58C7D60D60571092CFF5715B8C8C5BC1347DB2BB9890E639BF3680BA7B SWAP2 PUSH2 0x1A23 PUSH1 0x1 SWAP8 PUSH2 0x1988 PUSH1 0x40 MLOAD PUSH2 0x18BC DUP2 PUSH2 0x3513 JUMP JUMPDEST DUP9 DUP2 MSTORE DUP8 PUSH1 0x20 DUP3 ADD MSTORE DUP6 DUP4 MUL PUSH1 0x40 DUP3 ADD MSTORE DUP6 DUP6 MUL PUSH1 0x60 DUP3 ADD MSTORE PUSH1 0x0 PUSH1 0x80 DUP3 ADD MSTORE DUP11 PUSH1 0xA0 DUP3 ADD MSTORE PUSH1 0x0 PUSH1 0xC0 DUP3 ADD MSTORE DUP10 PUSH2 0x1914 PUSH2 0xA47 PUSH2 0x1905 PUSH2 0x224 PUSH1 0x4 CALLDATALOAD ADD PUSH1 0x4 CALLDATALOAD PUSH1 0x4 ADD PUSH2 0x38FE JUMP JUMPDEST DUP16 DUP1 PUSH1 0xA0 SWAP7 SWAP4 SWAP7 SHL SUB SWAP5 PUSH2 0x3933 JUMP JUMPDEST AND PUSH1 0x0 MSTORE PUSH2 0x1D9 PUSH1 0x20 MSTORE PUSH1 0xC0 PUSH1 0x5 PUSH1 0x40 PUSH1 0x0 KECCAK256 DUP4 MLOAD DUP2 SSTORE PUSH1 0x20 DUP5 ADD MLOAD DUP15 DUP3 ADD SSTORE PUSH1 0x40 DUP5 ADD MLOAD PUSH1 0x2 DUP3 ADD SSTORE PUSH1 0x60 DUP5 ADD MLOAD PUSH1 0x3 DUP3 ADD SSTORE PUSH1 0x80 DUP5 ADD MLOAD PUSH1 0x4 DUP3 ADD SSTORE ADD SWAP2 PUSH2 0x1970 PUSH1 0xA0 DUP3 ADD MLOAD ISZERO ISZERO DUP5 SWAP1 PUSH1 0xFF DUP1 NOT DUP4 SLOAD AND SWAP2 ISZERO ISZERO AND OR SWAP1 SSTORE JUMP JUMPDEST ADD MLOAD DUP2 SLOAD PUSH2 0xFF00 NOT AND SWAP1 ISZERO ISZERO PUSH1 0x8 SHL PUSH2 0xFF00 AND OR SWAP1 SSTORE JUMP JUMPDEST DUP8 PUSH2 0x19B3 PUSH2 0xA47 PUSH2 0x19A4 PUSH2 0x224 PUSH1 0x4 CALLDATALOAD ADD PUSH1 0x4 CALLDATALOAD PUSH1 0x4 ADD PUSH2 0x38FE JUMP JUMPDEST DUP14 DUP1 PUSH1 0xA0 SWAP7 SWAP4 SWAP7 SHL SUB SWAP5 PUSH2 0x3933 JUMP JUMPDEST AND PUSH1 0x0 MSTORE PUSH2 0x1DA PUSH1 0x20 MSTORE PUSH1 0x40 PUSH1 0x0 KECCAK256 DUP10 PUSH1 0xFF NOT DUP3 SLOAD AND OR SWAP1 SSTORE PUSH2 0x1DB PUSH2 0x19DA DUP9 DUP3 SLOAD PUSH2 0x3711 JUMP JUMPDEST SWAP1 SSTORE DUP8 PUSH2 0x19F8 PUSH2 0xA47 PUSH2 0x19A4 PUSH2 0x224 PUSH1 0x4 CALLDATALOAD ADD PUSH1 0x4 CALLDATALOAD PUSH1 0x4 ADD PUSH2 0x38FE JUMP JUMPDEST AND SWAP6 DUP5 PUSH1 0x40 MLOAD SWAP6 DUP7 SWAP6 MUL SWAP3 MUL SWAP1 DUP9 DUP6 SWAP1 SWAP5 SWAP4 SWAP3 PUSH1 0x60 SWAP3 PUSH1 0x80 DUP4 ADD SWAP7 DUP4 MSTORE PUSH1 0x20 DUP4 ADD MSTORE PUSH1 0x40 DUP3 ADD MSTORE ADD MSTORE JUMP JUMPDEST SUB SWAP1 LOG2 JUMPDEST PUSH1 0x0 DUP1 MLOAD PUSH1 0x20 PUSH2 0x480C DUP4 CODECOPY DUP2 MLOAD SWAP2 MSTORE PUSH1 0x20 DUP4 PUSH2 0x1A63 PUSH2 0xA47 PUSH2 0x1A54 PUSH2 0x224 PUSH1 0x4 CALLDATALOAD ADD PUSH1 0x4 CALLDATALOAD PUSH1 0x4 ADD PUSH2 0x38FE JUMP JUMPDEST DUP10 DUP1 PUSH1 0xA0 SWAP7 SWAP4 SWAP7 SHL SUB SWAP5 PUSH2 0x3933 JUMP JUMPDEST AND SWAP3 PUSH1 0x40 MLOAD SWAP1 DUP2 MSTORE LOG2 PUSH2 0x1A90 PUSH2 0x1A8B PUSH2 0xA47 DUP4 PUSH2 0x14B9 PUSH2 0x224 PUSH1 0x4 CALLDATALOAD ADD PUSH1 0x4 CALLDATALOAD PUSH1 0x4 ADD PUSH2 0x38FE JUMP JUMPDEST PUSH2 0x45A1 JUMP JUMPDEST ADD PUSH2 0x172D JUMP JUMPDEST PUSH4 0x4E487B71 PUSH1 0xE0 SHL PUSH1 0x0 MSTORE PUSH1 0x11 PUSH1 0x4 MSTORE PUSH1 0x24 PUSH1 0x0 REVERT JUMPDEST PUSH1 0x40 MLOAD PUSH3 0x461BCD PUSH1 0xE5 SHL DUP2 MSTORE PUSH1 0x20 PUSH1 0x4 DUP3 ADD MSTORE PUSH1 0x27 PUSH1 0x24 DUP3 ADD MSTORE PUSH32 0x56657374696E67206475726174696F6E206D757374206265206174206C656173 PUSH1 0x44 DUP3 ADD MSTORE PUSH7 0x74203120646179 PUSH1 0xC8 SHL PUSH1 0x64 DUP3 ADD MSTORE PUSH1 0x84 SWAP1 REVERT JUMPDEST PUSH1 0x40 MLOAD PUSH3 0x461BCD PUSH1 0xE5 SHL DUP2 MSTORE PUSH1 0x20 PUSH1 0x4 DUP3 ADD MSTORE PUSH1 0x28 PUSH1 0x24 DUP3 ADD MSTORE PUSH32 0x56657374696E672073746172742074696D65206D75737420626520696E207468 PUSH1 0x44 DUP3 ADD MSTORE PUSH8 0x6520667574757265 PUSH1 0xC0 SHL PUSH1 0x64 DUP3 ADD MSTORE PUSH1 0x84 SWAP1 REVERT JUMPDEST DUP2 PUSH2 0x1B7F PUSH1 0x1 SWAP4 PUSH2 0x1B7A PUSH2 0xA47 DUP6 PUSH2 0x14B9 PUSH2 0x224 PUSH1 0x4 CALLDATALOAD ADD PUSH1 0x4 CALLDATALOAD PUSH1 0x4 ADD PUSH2 0x38FE JUMP JUMPDEST PUSH2 0x43DC JUMP JUMPDEST PUSH2 0x1A27 JUMP JUMPDEST PUSH1 0x40 MLOAD PUSH3 0x461BCD PUSH1 0xE5 SHL DUP2 MSTORE PUSH1 0x20 PUSH1 0x4 DUP3 ADD MSTORE PUSH1 0x19 PUSH1 0x24 DUP3 ADD MSTORE PUSH32 0x57616C6C657420746F6B656E73206D757374206265203E203000000000000000 PUSH1 0x44 DUP3 ADD MSTORE PUSH1 0x64 SWAP1 REVERT JUMPDEST POP PUSH2 0x1BD0 JUMPI STOP JUMPDEST PUSH2 0xFF00 NOT PUSH1 0x0 SLOAD AND PUSH1 0x0 SSTORE PUSH32 0x7F26B83FF96E1F2B6A682F133852F6798A09C465DA95921460CEFB3847402498 PUSH1 0x20 PUSH1 0x40 MLOAD PUSH1 0x1 DUP2 MSTORE LOG1 STOP JUMPDEST PUSH1 0x40 MLOAD PUSH3 0x461BCD PUSH1 0xE5 SHL DUP2 MSTORE PUSH1 0x20 PUSH1 0x4 DUP3 ADD MSTORE PUSH1 0x1C PUSH1 0x24 DUP3 ADD MSTORE PUSH32 0x4C697175696469747920746F6B656E73206D757374206265203E203000000000 PUSH1 0x44 DUP3 ADD MSTORE PUSH1 0x64 SWAP1 REVERT JUMPDEST PUSH1 0x40 MLOAD PUSH3 0x461BCD PUSH1 0xE5 SHL DUP2 MSTORE PUSH1 0x20 PUSH1 0x4 DUP3 ADD MSTORE PUSH1 0x1A PUSH1 0x24 DUP3 ADD MSTORE PUSH32 0x50726573616C6520746F6B656E73206D757374206265203E2030000000000000 PUSH1 0x44 DUP3 ADD MSTORE PUSH1 0x64 SWAP1 REVERT JUMPDEST PUSH1 0x40 MLOAD PUSH3 0x461BCD PUSH1 0xE5 SHL DUP2 MSTORE PUSH1 0x20 PUSH1 0x4 DUP3 ADD MSTORE PUSH1 0x1C PUSH1 0x24 DUP3 ADD MSTORE PUSH32 0x546F74616C2070657263656E74616765206D7573742062652031303000000000 PUSH1 0x44 DUP3 ADD MSTORE PUSH1 0x64 SWAP1 REVERT JUMPDEST PUSH1 0x64 PUSH2 0x1CF1 PUSH2 0x1E4 PUSH1 0x4 CALLDATALOAD ADD CALLDATALOAD PUSH2 0x1C4 PUSH1 0x4 CALLDATALOAD ADD CALLDATALOAD PUSH2 0x3711 JUMP JUMPDEST EQ PUSH2 0x1585 JUMPI PUSH1 0x84 PUSH1 0x40 MLOAD PUSH3 0x461BCD PUSH1 0xE5 SHL DUP2 MSTORE PUSH1 0x20 PUSH1 0x4 DUP3 ADD MSTORE PUSH1 0x40 PUSH1 0x24 DUP3 ADD MSTORE PUSH32 0x50726573616C6520616E64206C6971756964697479206D75737420746F74616C PUSH1 0x44 DUP3 ADD MSTORE PUSH32 0x2031303025207768656E206E6F206164646974696F6E616C2077616C6C657473 PUSH1 0x64 DUP3 ADD MSTORE REVERT JUMPDEST PUSH1 0x40 MLOAD PUSH3 0x461BCD PUSH1 0xE5 SHL DUP2 MSTORE PUSH1 0x20 PUSH1 0x4 DUP3 ADD MSTORE PUSH1 0x24 DUP1 DUP3 ADD MSTORE PUSH32 0x4D617820737570706C79206D757374206265203E3D20696E697469616C207375 PUSH1 0x44 DUP3 ADD MSTORE PUSH4 0x70706C79 PUSH1 0xE0 SHL PUSH1 0x64 DUP3 ADD MSTORE PUSH1 0x84 SWAP1 REVERT JUMPDEST ADD MLOAD SWAP1 POP DUP4 DUP1 PUSH2 0x136B JUMP JUMPDEST SWAP3 POP PUSH1 0x37 PUSH1 0x0 MSTORE PUSH1 0x0 DUP1 MLOAD PUSH1 0x20 PUSH2 0x47EC DUP4 CODECOPY DUP2 MLOAD SWAP2 MSTORE SWAP1 PUSH1 0x0 SWAP4 JUMPDEST PUSH1 0x1F NOT DUP5 AND DUP6 LT PUSH2 0x1E19 JUMPI PUSH1 0x1 SWAP5 POP DUP4 PUSH1 0x1F NOT DUP2 AND LT PUSH2 0x1E00 JUMPI JUMPDEST POP POP POP DUP2 SHL ADD PUSH1 0x37 SSTORE PUSH2 0x1381 JUMP JUMPDEST ADD MLOAD PUSH1 0x0 NOT PUSH1 0xF8 DUP5 PUSH1 0x3 SHL AND SHR NOT AND SWAP1 SSTORE DUP4 DUP1 DUP1 PUSH2 0x1DF2 JUMP JUMPDEST DUP2 DUP2 ADD MLOAD DUP4 SSTORE PUSH1 0x20 SWAP5 DUP6 ADD SWAP5 PUSH1 0x1 SWAP1 SWAP4 ADD SWAP3 SWAP1 SWAP2 ADD SWAP1 PUSH2 0x1DD7 JUMP JUMPDEST SWAP1 SWAP2 POP PUSH1 0x37 PUSH1 0x0 MSTORE PUSH1 0x1F DUP4 ADD PUSH1 0x5 SHR PUSH1 0x0 DUP1 MLOAD PUSH1 0x20 PUSH2 0x47EC DUP4 CODECOPY DUP2 MLOAD SWAP2 MSTORE ADD PUSH1 0x20 DUP5 LT PUSH2 0x1E93 JUMPI JUMPDEST SWAP1 DUP4 SWAP3 SWAP2 JUMPDEST PUSH1 0x1F DUP3 ADD PUSH1 0x5 SHR PUSH1 0x0 DUP1 MLOAD PUSH1 0x20 PUSH2 0x47EC DUP4 CODECOPY DUP2 MLOAD SWAP2 MSTORE ADD DUP2 LT PUSH2 0x1E84 JUMPI POP PUSH2 0x1354 JUMP JUMPDEST PUSH1 0x0 DUP2 SSTORE DUP5 SWAP4 POP PUSH1 0x1 ADD PUSH2 0x1E61 JUMP JUMPDEST POP PUSH1 0x0 DUP1 MLOAD PUSH1 0x20 PUSH2 0x47EC DUP4 CODECOPY DUP2 MLOAD SWAP2 MSTORE PUSH2 0x1E5C JUMP JUMPDEST ADD MLOAD SWAP1 POP DUP5 DUP1 PUSH2 0x1317 JUMP JUMPDEST PUSH1 0x36 PUSH1 0x0 MSTORE PUSH1 0x0 DUP1 MLOAD PUSH1 0x20 PUSH2 0x47AC DUP4 CODECOPY DUP2 MLOAD SWAP2 MSTORE SWAP1 PUSH1 0x0 JUMPDEST PUSH1 0x1F NOT DUP5 AND DUP2 LT PUSH2 0x1F0F JUMPI POP PUSH1 0x1 SWAP4 SWAP5 SWAP6 DUP4 PUSH1 0x1F NOT DUP2 AND LT PUSH2 0x1EF6 JUMPI JUMPDEST POP POP POP DUP2 SHL ADD PUSH1 0x36 SSTORE PUSH2 0x132D JUMP JUMPDEST ADD MLOAD PUSH1 0x0 NOT PUSH1 0xF8 DUP5 PUSH1 0x3 SHL AND SHR NOT AND SWAP1 SSTORE DUP5 DUP1 DUP1 PUSH2 0x1EE8 JUMP JUMPDEST SWAP1 SWAP2 PUSH1 0x20 PUSH1 0x1 DUP2 SWAP3 DUP6 DUP11 ADD MLOAD DUP2 SSTORE ADD SWAP4 ADD SWAP2 ADD PUSH2 0x1ECB JUMP JUMPDEST PUSH1 0x36 PUSH1 0x0 MSTORE PUSH1 0x1F DUP3 ADD PUSH1 0x5 SHR PUSH1 0x0 DUP1 MLOAD PUSH1 0x20 PUSH2 0x47AC DUP4 CODECOPY DUP2 MLOAD SWAP2 MSTORE ADD PUSH1 0x20 DUP4 LT PUSH2 0x1F7B JUMPI JUMPDEST PUSH1 0x1F DUP3 ADD PUSH1 0x5 SHR PUSH1 0x0 DUP1 MLOAD PUSH1 0x20 PUSH2 0x47AC DUP4 CODECOPY DUP2 MLOAD SWAP2 MSTORE ADD DUP2 LT PUSH2 0x1F6F JUMPI POP PUSH2 0x12FD JUMP JUMPDEST PUSH1 0x0 DUP2 SSTORE PUSH1 0x1 ADD PUSH2 0x1F4C JUMP JUMPDEST POP PUSH1 0x0 DUP1 MLOAD PUSH1 0x20 PUSH2 0x47AC DUP4 CODECOPY DUP2 MLOAD SWAP2 MSTORE PUSH2 0x1F4C JUMP JUMPDEST PUSH2 0xFFFF NOT AND PUSH2 0x101 OR PUSH1 0x0 SSTORE DUP3 PUSH2 0x1284 JUMP JUMPDEST PUSH1 0x40 MLOAD PUSH3 0x461BCD PUSH1 0xE5 SHL DUP2 MSTORE PUSH1 0x20 PUSH1 0x4 DUP3 ADD MSTORE PUSH1 0x2E PUSH1 0x24 DUP3 ADD MSTORE PUSH32 0x496E697469616C697A61626C653A20636F6E747261637420697320616C726561 PUSH1 0x44 DUP3 ADD MSTORE PUSH14 0x191E481A5B9A5D1A585B1A5E9959 PUSH1 0x92 SHL PUSH1 0x64 DUP3 ADD MSTORE PUSH1 0x84 SWAP1 REVERT JUMPDEST POP ADDRESS EXTCODESIZE ISZERO DUP1 ISZERO PUSH2 0x126A JUMPI POP PUSH1 0x1 PUSH1 0xFF DUP4 AND EQ PUSH2 0x126A JUMP JUMPDEST POP PUSH1 0x1 PUSH1 0xFF DUP4 AND LT PUSH2 0x1263 JUMP JUMPDEST CALLVALUE PUSH2 0x2FB JUMPI PUSH1 0x0 CALLDATASIZE PUSH1 0x3 NOT ADD SLT PUSH2 0x2FB JUMPI PUSH2 0x203B PUSH2 0x3FEE JUMP JUMPDEST PUSH2 0x1CB SLOAD TIMESTAMP GT DUP1 ISZERO PUSH2 0x20BA JUMPI JUMPDEST PUSH2 0x2051 SWAP1 PUSH2 0x37C5 JUMP JUMPDEST PUSH32 0xEDFDE254CB8ED39D650C9A34251C59D6817FAE4CC876CC2CE76669976CF102EE PUSH1 0x40 PUSH2 0x1CD DUP1 SLOAD SWAP1 PUSH2 0x208A PUSH1 0xFF DUP4 PUSH1 0x8 SHR AND ISZERO PUSH2 0x3805 JUMP JUMPDEST PUSH2 0x100 PUSH2 0x1CE SLOAD SWAP3 PUSH2 0x20A1 PUSH2 0x1C6 SLOAD DUP6 LT ISZERO PUSH2 0x3845 JUMP JUMPDEST PUSH2 0xFF00 NOT AND OR SWAP1 SSTORE PUSH2 0x1D8 SLOAD DUP3 MLOAD SWAP2 DUP3 MSTORE PUSH1 0x20 DUP3 ADD MSTORE LOG1 STOP JUMPDEST POP PUSH2 0x1CE SLOAD PUSH2 0x1C7 SLOAD GT ISZERO PUSH2 0x2048 JUMP JUMPDEST CALLVALUE PUSH2 0x2FB JUMPI PUSH1 0x20 CALLDATASIZE PUSH1 0x3 NOT ADD SLT PUSH2 0x2FB JUMPI PUSH1 0x1 PUSH1 0x1 PUSH1 0xA0 SHL SUB PUSH2 0x20EB PUSH2 0x349A JUMP JUMPDEST AND DUP1 PUSH1 0x0 MSTORE PUSH2 0x1DA PUSH1 0x20 MSTORE PUSH2 0x2107 PUSH1 0xFF PUSH1 0x40 PUSH1 0x0 KECCAK256 SLOAD AND PUSH2 0x371E JUMP JUMPDEST PUSH1 0x0 MSTORE PUSH2 0x1D9 PUSH1 0x20 MSTORE PUSH2 0x100 PUSH2 0x2120 PUSH1 0x40 PUSH1 0x0 KECCAK256 PUSH2 0x3760 JUMP JUMPDEST DUP1 MLOAD SWAP1 PUSH1 0x20 DUP2 ADD MLOAD SWAP1 PUSH1 0x40 DUP2 ADD MLOAD PUSH1 0x60 DUP3 ADD MLOAD PUSH1 0x80 DUP4 ADD MLOAD SWAP1 PUSH1 0xA0 DUP5 ADD MLOAD ISZERO ISZERO SWAP3 PUSH2 0x2151 PUSH1 0xC0 DUP7 ADD MLOAD ISZERO ISZERO SWAP6 PUSH2 0x4046 JUMP JUMPDEST SWAP6 PUSH1 0x40 MLOAD SWAP8 DUP9 MSTORE PUSH1 0x20 DUP9 ADD MSTORE PUSH1 0x40 DUP8 ADD MSTORE PUSH1 0x60 DUP7 ADD MSTORE PUSH1 0x80 DUP6 ADD MSTORE PUSH1 0xA0 DUP5 ADD MSTORE PUSH1 0xC0 DUP4 ADD MSTORE PUSH1 0xE0 DUP3 ADD MSTORE RETURN JUMPDEST CALLVALUE PUSH2 0x2FB JUMPI PUSH1 0x20 CALLDATASIZE PUSH1 0x3 NOT ADD SLT PUSH2 0x2FB JUMPI PUSH1 0x1 PUSH1 0x1 PUSH1 0xA0 SHL SUB PUSH2 0x219E PUSH2 0x349A JUMP JUMPDEST AND PUSH1 0x0 MSTORE PUSH2 0x1CF PUSH1 0x20 MSTORE PUSH1 0x20 PUSH1 0xFF PUSH1 0x40 PUSH1 0x0 KECCAK256 SLOAD AND PUSH1 0x40 MLOAD SWAP1 ISZERO ISZERO DUP2 MSTORE RETURN JUMPDEST CALLVALUE PUSH2 0x2FB JUMPI PUSH1 0x0 CALLDATASIZE PUSH1 0x3 NOT ADD SLT PUSH2 0x2FB JUMPI PUSH1 0x40 MLOAD PUSH1 0x0 PUSH1 0x37 SLOAD PUSH2 0x21DF DUP2 PUSH2 0x3615 JUMP JUMPDEST DUP1 DUP5 MSTORE SWAP1 PUSH1 0x20 SWAP1 PUSH1 0x1 SWAP1 DUP2 DUP2 AND SWAP1 DUP2 ISZERO PUSH2 0x2260 JUMPI POP PUSH1 0x1 EQ PUSH2 0x2218 JUMPI JUMPDEST PUSH2 0x2E1 DUP6 PUSH2 0x220C DUP2 DUP8 SUB DUP3 PUSH2 0x3549 JUMP JUMPDEST PUSH1 0x40 MLOAD SWAP2 DUP3 SWAP2 DUP3 PUSH2 0x3451 JUMP JUMPDEST PUSH1 0x37 PUSH1 0x0 SWAP1 DUP2 MSTORE SWAP4 POP PUSH1 0x0 DUP1 MLOAD PUSH1 0x20 PUSH2 0x47EC DUP4 CODECOPY DUP2 MLOAD SWAP2 MSTORE JUMPDEST DUP4 DUP6 LT PUSH2 0x224D JUMPI POP POP POP POP DUP2 ADD PUSH1 0x20 ADD PUSH2 0x220C DUP3 PUSH2 0x2E1 PUSH2 0x21FC JUMP JUMPDEST DUP1 SLOAD DUP7 DUP7 ADD DUP5 ADD MSTORE SWAP4 DUP3 ADD SWAP4 DUP2 ADD PUSH2 0x2231 JUMP JUMPDEST DUP7 SWAP6 POP PUSH2 0x2E1 SWAP7 SWAP4 POP PUSH1 0x20 SWAP3 POP PUSH2 0x220C SWAP5 SWAP2 POP PUSH1 0xFF NOT AND DUP3 DUP5 ADD MSTORE ISZERO ISZERO PUSH1 0x5 SHL DUP3 ADD ADD SWAP3 SWAP4 PUSH2 0x21FC JUMP JUMPDEST CALLVALUE PUSH2 0x2FB JUMPI PUSH1 0x0 CALLDATASIZE PUSH1 0x3 NOT ADD SLT PUSH2 0x2FB JUMPI PUSH1 0xFB SLOAD PUSH1 0x40 MLOAD PUSH1 0x1 PUSH1 0x1 PUSH1 0xA0 SHL SUB SWAP1 SWAP2 AND DUP2 MSTORE PUSH1 0x20 SWAP1 RETURN JUMPDEST CALLVALUE PUSH2 0x2FB JUMPI PUSH1 0x20 CALLDATASIZE PUSH1 0x3 NOT ADD SLT PUSH2 0x2FB JUMPI PUSH1 0x1 PUSH1 0x1 PUSH1 0xA0 SHL SUB PUSH2 0x22D4 PUSH2 0x349A JUMP JUMPDEST AND PUSH1 0x0 MSTORE PUSH2 0x1D4 PUSH1 0x20 MSTORE PUSH1 0x20 PUSH1 0x40 PUSH1 0x0 KECCAK256 SLOAD PUSH1 0x40 MLOAD SWAP1 DUP2 MSTORE RETURN JUMPDEST CALLVALUE PUSH2 0x2FB JUMPI PUSH1 0x40 CALLDATASIZE PUSH1 0x3 NOT ADD SLT PUSH2 0x2FB JUMPI PUSH2 0x3FD PUSH2 0x230A PUSH2 0x349A JUMP JUMPDEST PUSH1 0x24 CALLDATALOAD SWAP1 PUSH2 0x2319 DUP3 CALLER DUP4 PUSH2 0x3C9B JUMP JUMPDEST PUSH2 0x40E8 JUMP JUMPDEST CALLVALUE PUSH2 0x2FB JUMPI PUSH1 0x0 CALLDATASIZE PUSH1 0x3 NOT ADD SLT PUSH2 0x2FB JUMPI PUSH2 0x2337 PUSH2 0x3FEE JUMP JUMPDEST PUSH1 0xFB DUP1 SLOAD PUSH1 0x1 PUSH1 0x1 PUSH1 0xA0 SHL SUB NOT DUP2 AND SWAP1 SWAP2 SSTORE PUSH1 0x0 SWAP1 PUSH1 0x1 PUSH1 0x1 PUSH1 0xA0 SHL SUB AND PUSH32 0x8BE0079C531659141344CD1FD0A4F28419497F9722A3DAAFE3B4186F6B6457E0 DUP3 DUP1 LOG3 STOP JUMPDEST CALLVALUE PUSH2 0x2FB JUMPI PUSH1 0x20 CALLDATASIZE PUSH1 0x3 NOT ADD SLT PUSH2 0x2FB JUMPI PUSH1 0x1 PUSH1 0x1 PUSH1 0xA0 SHL SUB PUSH2 0x239C PUSH2 0x349A JUMP JUMPDEST AND PUSH1 0x0 MSTORE PUSH1 0x33 PUSH1 0x20 MSTORE PUSH1 0x20 PUSH1 0x40 PUSH1 0x0 KECCAK256 SLOAD PUSH1 0x40 MLOAD SWAP1 DUP2 MSTORE RETURN JUMPDEST CALLVALUE PUSH2 0x2FB JUMPI PUSH1 0x40 CALLDATASIZE PUSH1 0x3 NOT ADD SLT PUSH2 0x2FB JUMPI PUSH2 0x23CE PUSH2 0x349A JUMP JUMPDEST PUSH1 0x24 CALLDATALOAD SWAP1 PUSH2 0x23DA PUSH2 0x3FEE JUMP JUMPDEST PUSH1 0xFF PUSH2 0x1D2 SLOAD PUSH1 0x8 SHR AND ISZERO PUSH2 0x2481 JUMPI TIMESTAMP DUP3 GT ISZERO PUSH2 0x243C JUMPI PUSH32 0xA9353E70F07F31E7F4E16464F45E189CBD22826780A5ABE4DA8303652A86960A SWAP2 PUSH1 0x40 SWAP2 PUSH1 0x1 DUP1 PUSH1 0xA0 SHL SUB AND SWAP1 DUP2 PUSH1 0x0 MSTORE PUSH2 0x1D4 PUSH1 0x20 MSTORE DUP1 DUP4 PUSH1 0x0 KECCAK256 SSTORE DUP3 MLOAD SWAP2 DUP3 MSTORE PUSH1 0x20 DUP3 ADD MSTORE LOG1 STOP JUMPDEST PUSH1 0x40 MLOAD PUSH3 0x461BCD PUSH1 0xE5 SHL DUP2 MSTORE PUSH1 0x20 PUSH1 0x4 DUP3 ADD MSTORE PUSH1 0x1D PUSH1 0x24 DUP3 ADD MSTORE PUSH32 0x556E6C6F636B2074696D65206D75737420626520696E20667574757265000000 PUSH1 0x44 DUP3 ADD MSTORE PUSH1 0x64 SWAP1 REVERT JUMPDEST PUSH1 0x40 MLOAD PUSH3 0x461BCD PUSH1 0xE5 SHL DUP2 MSTORE PUSH1 0x20 PUSH1 0x4 DUP3 ADD MSTORE PUSH1 0x15 PUSH1 0x24 DUP3 ADD MSTORE PUSH21 0x151A5B59481B1BD8DAC81B9BDD08195B98589B1959 PUSH1 0x5A SHL PUSH1 0x44 DUP3 ADD MSTORE PUSH1 0x64 SWAP1 REVERT JUMPDEST CALLVALUE PUSH2 0x2FB JUMPI PUSH1 0x0 CALLDATASIZE PUSH1 0x3 NOT ADD SLT PUSH2 0x2FB JUMPI PUSH1 0x20 PUSH1 0xFF PUSH1 0x97 SLOAD AND PUSH1 0x40 MLOAD SWAP1 ISZERO ISZERO DUP2 MSTORE RETURN JUMPDEST CALLVALUE PUSH2 0x2FB JUMPI PUSH1 0x0 CALLDATASIZE PUSH1 0x3 NOT ADD SLT PUSH2 0x2FB JUMPI CALLER PUSH1 0x0 MSTORE PUSH2 0x1DA PUSH1 0x20 MSTORE PUSH2 0x250D PUSH1 0xFF PUSH1 0x40 PUSH1 0x0 KECCAK256 SLOAD AND PUSH2 0x371E JUMP JUMPDEST CALLER PUSH1 0x0 MSTORE PUSH2 0x1D9 PUSH1 0x20 MSTORE PUSH1 0x40 PUSH1 0x0 KECCAK256 PUSH1 0xFF PUSH1 0x5 DUP3 ADD SLOAD PUSH1 0x8 SHR AND PUSH2 0x25D8 JUMPI PUSH2 0x253C PUSH2 0x2537 DUP3 PUSH2 0x3760 JUMP JUMPDEST PUSH2 0x4046 JUMP JUMPDEST SWAP1 DUP2 ISZERO PUSH2 0x259C JUMPI PUSH1 0x4 ADD PUSH2 0x2551 DUP3 DUP3 SLOAD PUSH2 0x3711 JUMP JUMPDEST SWAP1 SSTORE PUSH2 0x1DB PUSH2 0x2561 DUP3 DUP3 SLOAD PUSH2 0x37B8 JUMP JUMPDEST SWAP1 SSTORE PUSH2 0x256E DUP2 CALLER ADDRESS PUSH2 0x3D33 JUMP JUMPDEST PUSH1 0x40 MLOAD SWAP1 DUP2 MSTORE PUSH32 0x6AC6B97C2DEDED5D08888A74D95299CD1DEFD6E602974A1CEDB874B1C0CC2E4A PUSH1 0x20 CALLER SWAP3 LOG2 STOP JUMPDEST PUSH1 0x40 MLOAD PUSH3 0x461BCD PUSH1 0xE5 SHL DUP2 MSTORE PUSH1 0x20 PUSH1 0x4 DUP3 ADD MSTORE PUSH1 0x14 PUSH1 0x24 DUP3 ADD MSTORE PUSH20 0x4E6F20746F6B656E7320746F2072656C65617365 PUSH1 0x60 SHL PUSH1 0x44 DUP3 ADD MSTORE PUSH1 0x64 SWAP1 REVERT JUMPDEST PUSH1 0x40 MLOAD PUSH3 0x461BCD PUSH1 0xE5 SHL DUP2 MSTORE PUSH1 0x20 PUSH1 0x4 DUP3 ADD MSTORE PUSH1 0xF PUSH1 0x24 DUP3 ADD MSTORE PUSH15 0x15995CDD1A5B99C81C995D9BDAD959 PUSH1 0x8A SHL PUSH1 0x44 DUP3 ADD MSTORE PUSH1 0x64 SWAP1 REVERT JUMPDEST CALLVALUE PUSH2 0x2FB JUMPI PUSH1 0x0 CALLDATASIZE PUSH1 0x3 NOT ADD SLT PUSH2 0x2FB JUMPI PUSH32 0x0 PUSH1 0x1 PUSH1 0x1 PUSH1 0xA0 SHL SUB AND ADDRESS SUB PUSH2 0x2668 JUMPI PUSH1 0x20 PUSH1 0x40 MLOAD PUSH1 0x0 DUP1 MLOAD PUSH1 0x20 PUSH2 0x47CC DUP4 CODECOPY DUP2 MLOAD SWAP2 MSTORE DUP2 MSTORE RETURN JUMPDEST PUSH1 0x40 MLOAD PUSH3 0x461BCD PUSH1 0xE5 SHL DUP2 MSTORE PUSH1 0x20 PUSH1 0x4 DUP3 ADD MSTORE PUSH1 0x38 PUSH1 0x24 DUP3 ADD MSTORE PUSH32 0x555550535570677261646561626C653A206D757374206E6F742062652063616C PUSH1 0x44 DUP3 ADD MSTORE PUSH32 0x6C6564207468726F7567682064656C656761746563616C6C0000000000000000 PUSH1 0x64 DUP3 ADD MSTORE PUSH1 0x84 SWAP1 REVERT JUMPDEST PUSH1 0x40 CALLDATASIZE PUSH1 0x3 NOT ADD SLT PUSH2 0x2FB JUMPI PUSH2 0x26E7 PUSH2 0x349A JUMP JUMPDEST PUSH1 0x24 CALLDATALOAD PUSH1 0x1 PUSH1 0x1 PUSH1 0x40 SHL SUB DUP2 GT PUSH2 0x2FB JUMPI CALLDATASIZE PUSH1 0x23 DUP3 ADD SLT ISZERO PUSH2 0x2FB JUMPI PUSH2 0x2717 SWAP1 CALLDATASIZE SWAP1 PUSH1 0x24 DUP2 PUSH1 0x4 ADD CALLDATALOAD SWAP2 ADD PUSH2 0x3585 JUMP JUMPDEST SWAP1 PUSH1 0x1 PUSH1 0x1 PUSH1 0xA0 SHL SUB PUSH32 0x0 DUP2 AND SWAP1 PUSH2 0x2750 ADDRESS DUP4 EQ ISZERO PUSH2 0x364F JUMP JUMPDEST PUSH2 0x276D PUSH1 0x0 DUP1 MLOAD PUSH1 0x20 PUSH2 0x47CC DUP4 CODECOPY DUP2 MLOAD SWAP2 MSTORE SWAP3 DUP3 DUP5 SLOAD AND EQ PUSH2 0x36B0 JUMP JUMPDEST PUSH2 0x2775 PUSH2 0x3FEE JUMP JUMPDEST PUSH32 0x4910FDFA16FED3260ED0E7147F7CC6DA11A60208B5B9406D12A635614FFD9143 SLOAD PUSH1 0xFF AND ISZERO PUSH2 0x27AB JUMPI POP POP PUSH2 0x3FD SWAP2 POP PUSH2 0x4686 JUMP JUMPDEST PUSH1 0x40 MLOAD PUSH4 0x52D1902D PUSH1 0xE0 SHL DUP2 MSTORE PUSH1 0x20 SWAP4 SWAP3 SWAP2 DUP4 AND SWAP2 SWAP1 DUP5 DUP2 PUSH1 0x4 DUP2 DUP7 GAS STATICCALL PUSH1 0x0 SWAP2 DUP2 PUSH2 0x2938 JUMPI JUMPDEST POP PUSH2 0x2833 JUMPI PUSH1 0x40 MLOAD PUSH3 0x461BCD PUSH1 0xE5 SHL DUP2 MSTORE PUSH1 0x4 DUP2 ADD DUP7 SWAP1 MSTORE PUSH1 0x2E PUSH1 0x24 DUP3 ADD MSTORE PUSH32 0x45524331393637557067726164653A206E657720696D706C656D656E74617469 PUSH1 0x44 DUP3 ADD MSTORE PUSH14 0x6F6E206973206E6F742055555053 PUSH1 0x90 SHL PUSH1 0x64 DUP3 ADD MSTORE PUSH1 0x84 SWAP1 REVERT JUMPDEST SUB PUSH2 0x28E1 JUMPI PUSH2 0x2841 DUP3 PUSH2 0x4686 JUMP JUMPDEST PUSH32 0xBC7CD75A20EE27FD9ADEBAB32041F755214DBC6BFFA90CC0225B39DA2E5C2D3B PUSH1 0x0 DUP1 LOG2 DUP3 MLOAD ISZERO DUP1 ISZERO SWAP1 PUSH2 0x28D9 JUMPI JUMPDEST PUSH2 0x2877 JUMPI STOP JUMPDEST PUSH1 0x0 DUP1 PUSH2 0x3FD SWAP5 PUSH1 0x40 MLOAD SWAP5 PUSH2 0x288B DUP7 PUSH2 0x352E JUMP JUMPDEST PUSH1 0x27 DUP7 MSTORE PUSH32 0x416464726573733A206C6F772D6C6576656C2064656C65676174652063616C6C DUP2 DUP8 ADD MSTORE PUSH7 0x819985A5B1959 PUSH1 0xCA SHL PUSH1 0x40 DUP8 ADD MSTORE DUP2 MLOAD SWAP2 ADD DUP5 GAS DELEGATECALL PUSH2 0x28D3 PUSH2 0x3888 JUMP JUMPDEST SWAP2 PUSH2 0x4716 JUMP JUMPDEST POP PUSH1 0x1 PUSH2 0x2871 JUMP JUMPDEST PUSH1 0x40 MLOAD PUSH3 0x461BCD PUSH1 0xE5 SHL DUP2 MSTORE PUSH1 0x4 DUP2 ADD DUP5 SWAP1 MSTORE PUSH1 0x29 PUSH1 0x24 DUP3 ADD MSTORE PUSH32 0x45524331393637557067726164653A20756E737570706F727465642070726F78 PUSH1 0x44 DUP3 ADD MSTORE PUSH9 0x1A58589B1955555251 PUSH1 0xBA SHL PUSH1 0x64 DUP3 ADD MSTORE PUSH1 0x84 SWAP1 REVERT JUMPDEST SWAP1 SWAP2 POP DUP6 DUP2 DUP2 RETURNDATASIZE DUP4 GT PUSH2 0x2960 JUMPI JUMPDEST PUSH2 0x2950 DUP2 DUP4 PUSH2 0x3549 JUMP JUMPDEST DUP2 ADD SUB SLT PUSH2 0x2FB JUMPI MLOAD SWAP1 DUP8 PUSH2 0x27D2 JUMP JUMPDEST POP RETURNDATASIZE PUSH2 0x2946 JUMP JUMPDEST CALLVALUE PUSH2 0x2FB JUMPI PUSH1 0x0 CALLDATASIZE PUSH1 0x3 NOT ADD SLT PUSH2 0x2FB JUMPI PUSH2 0x2980 PUSH2 0x3FEE JUMP JUMPDEST PUSH2 0x2988 PUSH2 0x42DC JUMP JUMPDEST PUSH2 0x2996 PUSH2 0x1CB SLOAD TIMESTAMP GT PUSH2 0x37C5 JUMP JUMPDEST PUSH2 0x1CD DUP1 SLOAD SWAP1 PUSH2 0x29AC PUSH1 0xFF DUP4 PUSH1 0x8 SHR AND ISZERO PUSH2 0x3805 JUMP JUMPDEST PUSH2 0x100 PUSH2 0x1CE SWAP3 PUSH2 0x29C3 DUP5 SLOAD PUSH2 0x1C6 SLOAD GT ISZERO PUSH2 0x3845 JUMP JUMPDEST PUSH2 0xFF00 NOT AND OR SWAP1 SSTORE PUSH1 0x0 JUMPDEST PUSH2 0x1D5 SLOAD DUP2 LT ISZERO PUSH2 0x2A5F JUMPI DUP1 PUSH2 0x29E5 PUSH1 0x1 SWAP3 PUSH2 0x34C6 JUMP JUMPDEST DUP4 DUP1 PUSH1 0xA0 SHL SUB SWAP2 SLOAD SWAP1 PUSH1 0x3 SHL SHR AND DUP1 PUSH1 0x0 MSTORE PUSH2 0x1D7 SWAP1 PUSH1 0x20 SWAP1 DUP3 DUP3 MSTORE PUSH1 0x40 PUSH1 0x0 KECCAK256 SLOAD DUP1 PUSH2 0x2A17 JUMPI JUMPDEST POP POP POP POP ADD PUSH2 0x29CE JUMP JUMPDEST PUSH1 0x0 DUP1 MLOAD PUSH1 0x20 PUSH2 0x480C DUP4 CODECOPY DUP2 MLOAD SWAP2 MSTORE DUP4 DUP3 PUSH2 0x2A34 DUP6 SWAP5 DUP6 CALLER PUSH2 0x3D33 JUMP JUMPDEST PUSH2 0x1D8 PUSH2 0x2A42 DUP3 DUP3 SLOAD PUSH2 0x3711 JUMP JUMPDEST SWAP1 SSTORE PUSH1 0x40 MLOAD SWAP1 DUP2 MSTORE LOG2 PUSH1 0x0 MSTORE MSTORE PUSH1 0x0 PUSH1 0x40 DUP2 KECCAK256 SSTORE DUP4 DUP1 DUP1 DUP1 PUSH2 0x2A0D JUMP JUMPDEST POP SELFBALANCE DUP1 PUSH2 0x2AA3 JUMPI JUMPDEST PUSH32 0xEDFDE254CB8ED39D650C9A34251C59D6817FAE4CC876CC2CE76669976CF102EE PUSH1 0x40 DUP4 SLOAD PUSH2 0x1D8 SLOAD DUP3 MLOAD SWAP2 DUP3 MSTORE PUSH1 0x20 DUP3 ADD MSTORE LOG1 PUSH1 0x1 PUSH2 0x191 SSTORE STOP JUMPDEST PUSH1 0xFB SLOAD PUSH1 0x0 SWAP2 DUP3 SWAP2 DUP3 SWAP2 DUP3 SWAP2 PUSH1 0x1 PUSH1 0x1 PUSH1 0xA0 SHL SUB AND GAS CALL PUSH2 0x2AC2 PUSH2 0x3888 JUMP JUMPDEST POP ISZERO PUSH2 0x2ACE JUMPI DUP2 PUSH2 0x2A67 JUMP JUMPDEST PUSH1 0x40 MLOAD PUSH3 0x461BCD PUSH1 0xE5 SHL DUP2 MSTORE PUSH1 0x20 PUSH1 0x4 DUP3 ADD MSTORE PUSH1 0x13 PUSH1 0x24 DUP3 ADD MSTORE PUSH19 0x115512081D1C985B9CD9995C8819985A5B1959 PUSH1 0x6A SHL PUSH1 0x44 DUP3 ADD MSTORE PUSH1 0x64 SWAP1 REVERT JUMPDEST CALLVALUE PUSH2 0x2FB JUMPI PUSH1 0x0 CALLDATASIZE PUSH1 0x3 NOT ADD SLT PUSH2 0x2FB JUMPI PUSH1 0x20 PUSH2 0x1D8 SLOAD PUSH1 0x40 MLOAD SWAP1 DUP2 MSTORE RETURN JUMPDEST CALLVALUE PUSH2 0x2FB JUMPI PUSH1 0x20 CALLDATASIZE PUSH1 0x3 NOT ADD SLT PUSH2 0x2FB JUMPI PUSH1 0x1 PUSH1 0x1 PUSH1 0xA0 SHL SUB PUSH2 0x2B49 PUSH2 0x349A JUMP JUMPDEST AND PUSH1 0x0 MSTORE PUSH2 0x1D7 PUSH1 0x20 MSTORE PUSH1 0x20 PUSH1 0x40 PUSH1 0x0 KECCAK256 SLOAD PUSH1 0x40 MLOAD SWAP1 DUP2 MSTORE RETURN JUMPDEST CALLVALUE PUSH2 0x2FB JUMPI PUSH1 0x20 CALLDATASIZE PUSH1 0x3 NOT ADD SLT PUSH2 0x2FB JUMPI PUSH1 0x1 PUSH1 0x1 PUSH1 0xA0 SHL SUB PUSH2 0x2B84 PUSH2 0x349A JUMP JUMPDEST AND PUSH1 0x0 MSTORE PUSH2 0x1D0 PUSH1 0x20 MSTORE PUSH1 0x20 PUSH1 0x40 PUSH1 0x0 KECCAK256 SLOAD PUSH1 0x40 MLOAD SWAP1 DUP2 MSTORE RETURN JUMPDEST CALLVALUE PUSH2 0x2FB JUMPI PUSH1 0x20 CALLDATASIZE PUSH1 0x3 NOT ADD SLT PUSH2 0x2FB JUMPI PUSH2 0x3FD PUSH1 0x4 CALLDATALOAD CALLER PUSH2 0x40E8 JUMP JUMPDEST CALLVALUE PUSH2 0x2FB JUMPI PUSH1 0x20 CALLDATASIZE PUSH1 0x3 NOT ADD SLT PUSH2 0x2FB JUMPI PUSH1 0x1 PUSH1 0x1 PUSH1 0xA0 SHL SUB PUSH2 0x2BDC PUSH2 0x349A JUMP JUMPDEST AND PUSH1 0x0 MSTORE PUSH2 0x1C3 PUSH1 0x20 MSTORE PUSH1 0x20 PUSH1 0xFF PUSH1 0x40 PUSH1 0x0 KECCAK256 SLOAD AND PUSH1 0x40 MLOAD SWAP1 ISZERO ISZERO DUP2 MSTORE RETURN JUMPDEST CALLVALUE PUSH2 0x2FB JUMPI PUSH1 0x20 CALLDATASIZE PUSH1 0x3 NOT ADD SLT PUSH2 0x2FB JUMPI PUSH1 0x4 CALLDATALOAD PUSH2 0x1D5 SLOAD DUP2 LT ISZERO PUSH2 0x2FB JUMPI PUSH2 0x2C25 PUSH1 0x20 SWAP2 PUSH2 0x34C6 JUMP JUMPDEST SWAP1 SLOAD PUSH1 0x40 MLOAD PUSH1 0x3 SWAP3 SWAP1 SWAP3 SHL SHR PUSH1 0x1 PUSH1 0x1 PUSH1 0xA0 SHL SUB AND DUP2 MSTORE RETURN JUMPDEST CALLVALUE PUSH2 0x2FB JUMPI PUSH1 0x20 DUP1 PUSH1 0x3 NOT CALLDATASIZE ADD SLT PUSH2 0x2FB JUMPI PUSH2 0x2C58 PUSH2 0x349A JUMP JUMPDEST SWAP1 PUSH2 0x2C61 PUSH2 0x3FEE JUMP JUMPDEST PUSH1 0x1 DUP1 PUSH1 0xA0 SHL SUB DUP3 AND SWAP2 DUP3 PUSH1 0x0 MSTORE PUSH2 0x1DA DUP3 MSTORE PUSH2 0x2C85 PUSH1 0xFF PUSH1 0x40 PUSH1 0x0 KECCAK256 SLOAD AND PUSH2 0x371E JUMP JUMPDEST DUP3 PUSH1 0x0 MSTORE PUSH2 0x1D9 DUP3 MSTORE PUSH1 0x40 PUSH1 0x0 KECCAK256 PUSH1 0x5 DUP2 ADD SWAP1 DUP2 SLOAD SWAP2 PUSH1 0xFF DUP4 AND ISZERO PUSH2 0x2DB5 JUMPI PUSH1 0xFF DUP4 PUSH1 0x8 SHR AND PUSH2 0x2D7E JUMPI SWAP1 PUSH2 0x2CF3 SWAP4 SWAP3 SWAP2 PUSH2 0x2CC2 PUSH2 0x2537 DUP4 PUSH2 0x3760 JUMP JUMPDEST SWAP4 DUP5 SWAP2 PUSH1 0x4 DUP5 SLOAD SWAP5 ADD SWAP1 PUSH2 0x100 PUSH2 0x2CDB DUP4 SLOAD DUP1 SWAP8 PUSH2 0x37B8 JUMP JUMPDEST SWAP7 PUSH2 0xFF00 NOT AND OR SWAP1 SSTORE DUP3 PUSH2 0x2D36 JUMPI JUMPDEST POP POP POP POP PUSH2 0x37B8 JUMP JUMPDEST SWAP1 DUP2 PUSH2 0x2CFB JUMPI STOP JUMPDEST PUSH32 0xB71D84E80EBAC87B433939F1A1191D542623A94FF5B940314AF5589461F35275 SWAP2 PUSH2 0x1DB PUSH2 0x2D2B DUP3 DUP3 SLOAD PUSH2 0x37B8 JUMP JUMPDEST SWAP1 SSTORE PUSH1 0x40 MLOAD SWAP1 DUP2 MSTORE LOG2 STOP JUMPDEST PUSH2 0x2D43 DUP4 PUSH2 0x2D4B SWAP6 PUSH2 0x3711 JUMP JUMPDEST SWAP1 SSTORE ADDRESS PUSH2 0x3D33 JUMP JUMPDEST DUP5 PUSH32 0x6AC6B97C2DEDED5D08888A74D95299CD1DEFD6E602974A1CEDB874B1C0CC2E4A DUP6 PUSH1 0x40 MLOAD DUP6 DUP2 MSTORE LOG2 DUP6 DUP3 DUP2 DUP1 PUSH2 0x2CEA JUMP JUMPDEST PUSH1 0x40 MLOAD PUSH3 0x461BCD PUSH1 0xE5 SHL DUP2 MSTORE PUSH1 0x4 DUP2 ADD DUP7 SWAP1 MSTORE PUSH1 0xF PUSH1 0x24 DUP3 ADD MSTORE PUSH15 0x105B1C9958591E481C995D9BDAD959 PUSH1 0x8A SHL PUSH1 0x44 DUP3 ADD MSTORE PUSH1 0x64 SWAP1 REVERT JUMPDEST PUSH1 0x40 MLOAD PUSH3 0x461BCD PUSH1 0xE5 SHL DUP2 MSTORE PUSH1 0x4 DUP2 ADD DUP7 SWAP1 MSTORE PUSH1 0xD PUSH1 0x24 DUP3 ADD MSTORE PUSH13 0x4E6F74207265766F6361626C65 PUSH1 0x98 SHL PUSH1 0x44 DUP3 ADD MSTORE PUSH1 0x64 SWAP1 REVERT JUMPDEST CALLVALUE PUSH2 0x2FB JUMPI PUSH1 0x40 CALLDATASIZE PUSH1 0x3 NOT ADD SLT PUSH2 0x2FB JUMPI PUSH2 0x1111 PUSH2 0x2E06 PUSH2 0x349A JUMP JUMPDEST CALLER PUSH1 0x0 MSTORE PUSH1 0x34 PUSH1 0x20 MSTORE PUSH1 0x40 PUSH1 0x0 KECCAK256 PUSH1 0x1 DUP1 PUSH1 0xA0 SHL SUB DUP3 AND PUSH1 0x0 MSTORE PUSH1 0x20 MSTORE PUSH2 0x2E34 PUSH1 0x24 CALLDATALOAD PUSH1 0x40 PUSH1 0x0 KECCAK256 SLOAD PUSH2 0x3711 JUMP JUMPDEST SWAP1 CALLER PUSH2 0x3B99 JUMP JUMPDEST CALLVALUE PUSH2 0x2FB JUMPI PUSH1 0x20 CALLDATASIZE PUSH1 0x3 NOT ADD SLT PUSH2 0x2FB JUMPI PUSH1 0x4 CALLDATALOAD PUSH2 0x1C4 SWAP1 DUP2 SLOAD DUP2 LT ISZERO PUSH2 0x2FB JUMPI PUSH1 0x20 SWAP2 PUSH1 0x0 MSTORE PUSH1 0x1 DUP1 PUSH1 0xA0 SHL SUB SWAP1 PUSH32 0x5AC35DCA7C3A7D5AE9D0ADD1EFDC4AA02E10DD5CAC0B90D2122CF0F0CC68317F ADD SLOAD AND PUSH1 0x40 MLOAD SWAP1 DUP2 MSTORE RETURN JUMPDEST CALLVALUE PUSH2 0x2FB JUMPI PUSH1 0x20 DUP1 PUSH1 0x3 NOT CALLDATASIZE ADD SLT PUSH2 0x2FB JUMPI PUSH2 0x2EB0 PUSH2 0x349A JUMP JUMPDEST PUSH1 0x1 PUSH1 0x1 PUSH1 0xA0 SHL SUB PUSH32 0x0 DUP2 AND SWAP3 SWAP1 PUSH2 0x2EE9 ADDRESS DUP6 EQ ISZERO PUSH2 0x364F JUMP JUMPDEST PUSH2 0x2F06 PUSH1 0x0 DUP1 MLOAD PUSH1 0x20 PUSH2 0x47CC DUP4 CODECOPY DUP2 MLOAD SWAP2 MSTORE SWAP5 DUP3 DUP7 SLOAD AND EQ PUSH2 0x36B0 JUMP JUMPDEST PUSH2 0x2F0E PUSH2 0x3FEE JUMP JUMPDEST PUSH1 0x40 MLOAD SWAP4 DUP3 DUP6 ADD SWAP2 DUP6 DUP4 LT PUSH1 0x1 PUSH1 0x1 PUSH1 0x40 SHL SUB DUP5 GT OR PUSH2 0x2E5 JUMPI DUP3 PUSH1 0x40 MSTORE PUSH1 0x0 DUP7 MSTORE PUSH1 0xFF PUSH32 0x4910FDFA16FED3260ED0E7147F7CC6DA11A60208B5B9406D12A635614FFD9143 SLOAD AND PUSH1 0x0 EQ PUSH2 0x2F6A JUMPI POP POP POP POP PUSH2 0x3FD SWAP2 POP PUSH2 0x4686 JUMP JUMPDEST DUP5 SWAP4 SWAP5 AND SWAP1 PUSH1 0x40 MLOAD PUSH4 0x52D1902D PUSH1 0xE0 SHL DUP2 MSTORE DUP6 DUP2 PUSH1 0x4 DUP2 DUP7 GAS STATICCALL PUSH1 0x0 SWAP2 DUP2 PUSH2 0x30EB JUMPI JUMPDEST POP PUSH2 0x2FEE JUMPI PUSH1 0x40 MLOAD PUSH3 0x461BCD PUSH1 0xE5 SHL DUP2 MSTORE PUSH1 0x4 DUP2 ADD DUP8 SWAP1 MSTORE PUSH1 0x2E PUSH1 0x24 DUP3 ADD MSTORE PUSH32 0x45524331393637557067726164653A206E657720696D706C656D656E74617469 PUSH1 0x44 DUP3 ADD MSTORE PUSH14 0x6F6E206973206E6F742055555053 PUSH1 0x90 SHL PUSH1 0x64 DUP3 ADD MSTORE PUSH1 0x84 SWAP1 REVERT JUMPDEST SUB PUSH2 0x3094 JUMPI PUSH2 0x2FFC DUP4 PUSH2 0x4686 JUMP JUMPDEST PUSH32 0xBC7CD75A20EE27FD9ADEBAB32041F755214DBC6BFFA90CC0225B39DA2E5C2D3B PUSH1 0x0 DUP1 LOG2 DUP4 MLOAD ISZERO DUP1 ISZERO SWAP1 PUSH2 0x308C JUMPI JUMPDEST PUSH2 0x3032 JUMPI STOP JUMPDEST PUSH1 0x0 DUP1 SWAP2 PUSH2 0x3FD SWAP6 PUSH32 0x416464726573733A206C6F772D6C6576656C2064656C65676174652063616C6C PUSH1 0x40 MLOAD SWAP7 PUSH2 0x3068 DUP9 PUSH2 0x352E JUMP JUMPDEST PUSH1 0x27 DUP9 MSTORE DUP8 ADD MSTORE PUSH7 0x819985A5B1959 PUSH1 0xCA SHL PUSH1 0x40 DUP8 ADD MSTORE MLOAD SWAP1 DUP5 GAS DELEGATECALL PUSH2 0x28D3 PUSH2 0x3888 JUMP JUMPDEST POP PUSH1 0x0 PUSH2 0x302C JUMP JUMPDEST PUSH1 0x40 MLOAD PUSH3 0x461BCD PUSH1 0xE5 SHL DUP2 MSTORE PUSH1 0x4 DUP2 ADD DUP6 SWAP1 MSTORE PUSH1 0x29 PUSH1 0x24 DUP3 ADD MSTORE PUSH32 0x45524331393637557067726164653A20756E737570706F727465642070726F78 PUSH1 0x44 DUP3 ADD MSTORE PUSH9 0x1A58589B1955555251 PUSH1 0xBA SHL PUSH1 0x64 DUP3 ADD MSTORE PUSH1 0x84 SWAP1 REVERT JUMPDEST SWAP1 SWAP2 POP DUP7 DUP2 DUP2 RETURNDATASIZE DUP4 GT PUSH2 0x3113 JUMPI JUMPDEST PUSH2 0x3103 DUP2 DUP4 PUSH2 0x3549 JUMP JUMPDEST DUP2 ADD SUB SLT PUSH2 0x2FB JUMPI MLOAD SWAP1 DUP9 PUSH2 0x2F8D JUMP JUMPDEST POP RETURNDATASIZE PUSH2 0x30F9 JUMP JUMPDEST CALLVALUE PUSH2 0x2FB JUMPI PUSH1 0x0 CALLDATASIZE PUSH1 0x3 NOT ADD SLT PUSH2 0x2FB JUMPI PUSH1 0x20 PUSH1 0x40 MLOAD PUSH1 0x12 DUP2 MSTORE RETURN JUMPDEST CALLVALUE PUSH2 0x2FB JUMPI PUSH1 0x0 CALLDATASIZE PUSH1 0x3 NOT ADD SLT PUSH2 0x2FB JUMPI PUSH2 0x140 PUSH2 0x1C6 SLOAD PUSH2 0x1C7 SLOAD PUSH1 0xFF PUSH2 0x1C8 SLOAD PUSH2 0x1C9 SLOAD PUSH2 0x1CA SLOAD PUSH2 0x1CB SLOAD SWAP1 PUSH2 0x1CC SLOAD SWAP3 PUSH2 0x1CD SLOAD SWAP5 PUSH2 0x1CE SLOAD SWAP8 PUSH1 0x40 MLOAD SWAP10 DUP11 MSTORE PUSH1 0x20 DUP11 ADD MSTORE PUSH1 0x40 DUP10 ADD MSTORE PUSH1 0x60 DUP9 ADD MSTORE PUSH1 0x80 DUP8 ADD MSTORE PUSH1 0xA0 DUP7 ADD MSTORE PUSH1 0xC0 DUP6 ADD MSTORE DUP2 DUP2 AND ISZERO ISZERO PUSH1 0xE0 DUP6 ADD MSTORE PUSH1 0x8 SHR AND ISZERO ISZERO PUSH2 0x100 DUP4 ADD MSTORE PUSH2 0x120 DUP3 ADD MSTORE RETURN JUMPDEST CALLVALUE PUSH2 0x2FB JUMPI PUSH1 0x0 CALLDATASIZE PUSH1 0x3 NOT ADD SLT PUSH2 0x2FB JUMPI PUSH1 0x20 PUSH2 0x1D5 SLOAD PUSH1 0x40 MLOAD SWAP1 DUP2 MSTORE RETURN JUMPDEST CALLVALUE PUSH2 0x2FB JUMPI PUSH1 0x60 CALLDATASIZE PUSH1 0x3 NOT ADD SLT PUSH2 0x2FB JUMPI PUSH2 0x1111 PUSH2 0x31F1 PUSH2 0x349A JUMP JUMPDEST PUSH2 0x31F9 PUSH2 0x34B0 JUMP JUMPDEST PUSH1 0x44 CALLDATALOAD SWAP2 PUSH2 0x3208 DUP4 CALLER DUP4 PUSH2 0x3C9B JUMP JUMPDEST PUSH2 0x3D33 JUMP JUMPDEST CALLVALUE PUSH2 0x2FB JUMPI PUSH1 0x20 CALLDATASIZE PUSH1 0x3 NOT ADD SLT PUSH2 0x2FB JUMPI PUSH1 0x1 PUSH1 0x1 PUSH1 0xA0 SHL SUB PUSH2 0x322E PUSH2 0x349A JUMP JUMPDEST AND PUSH1 0x0 MSTORE PUSH2 0x1D6 PUSH1 0x20 MSTORE PUSH1 0x20 PUSH1 0xFF PUSH1 0x40 PUSH1 0x0 KECCAK256 SLOAD AND PUSH1 0x40 MLOAD SWAP1 ISZERO ISZERO DUP2 MSTORE RETURN JUMPDEST CALLVALUE PUSH2 0x2FB JUMPI PUSH1 0x0 CALLDATASIZE PUSH1 0x3 NOT ADD SLT PUSH2 0x2FB JUMPI PUSH1 0x20 PUSH1 0x35 SLOAD PUSH1 0x40 MLOAD SWAP1 DUP2 MSTORE RETURN JUMPDEST CALLVALUE PUSH2 0x2FB JUMPI PUSH1 0x20 CALLDATASIZE PUSH1 0x3 NOT ADD SLT PUSH2 0x2FB JUMPI PUSH1 0x1 PUSH1 0x1 PUSH1 0xA0 SHL SUB PUSH2 0x328C PUSH2 0x349A JUMP JUMPDEST AND PUSH1 0x0 MSTORE PUSH2 0x1D0 PUSH1 0x20 MSTORE PUSH1 0x60 PUSH1 0x40 PUSH1 0x0 KECCAK256 SLOAD PUSH2 0x1D7 PUSH1 0x20 MSTORE PUSH1 0x40 PUSH1 0x0 KECCAK256 SLOAD PUSH2 0x1CF PUSH1 0x20 MSTORE PUSH1 0xFF PUSH1 0x40 PUSH1 0x0 KECCAK256 SLOAD AND SWAP1 PUSH1 0x40 MLOAD SWAP3 DUP4 MSTORE PUSH1 0x20 DUP4 ADD MSTORE ISZERO ISZERO PUSH1 0x40 DUP3 ADD MSTORE RETURN JUMPDEST CALLVALUE PUSH2 0x2FB JUMPI PUSH1 0x40 CALLDATASIZE PUSH1 0x3 NOT ADD SLT PUSH2 0x2FB JUMPI PUSH2 0x1111 PUSH2 0x32EA PUSH2 0x349A JUMP JUMPDEST PUSH1 0x24 CALLDATALOAD SWAP1 CALLER PUSH2 0x3B99 JUMP JUMPDEST CALLVALUE PUSH2 0x2FB JUMPI PUSH1 0x0 CALLDATASIZE PUSH1 0x3 NOT ADD SLT PUSH2 0x2FB JUMPI PUSH1 0x40 MLOAD PUSH1 0x0 PUSH1 0x36 SLOAD PUSH2 0x3316 DUP2 PUSH2 0x3615 JUMP JUMPDEST DUP1 DUP5 MSTORE SWAP1 PUSH1 0x20 SWAP1 PUSH1 0x1 SWAP1 DUP2 DUP2 AND SWAP1 DUP2 ISZERO PUSH2 0x2260 JUMPI POP PUSH1 0x1 EQ PUSH2 0x3342 JUMPI PUSH2 0x2E1 DUP6 PUSH2 0x220C DUP2 DUP8 SUB DUP3 PUSH2 0x3549 JUMP JUMPDEST PUSH1 0x36 PUSH1 0x0 SWAP1 DUP2 MSTORE SWAP4 POP PUSH1 0x0 DUP1 MLOAD PUSH1 0x20 PUSH2 0x47AC DUP4 CODECOPY DUP2 MLOAD SWAP2 MSTORE JUMPDEST DUP4 DUP6 LT PUSH2 0x3377 JUMPI POP POP POP POP DUP2 ADD PUSH1 0x20 ADD PUSH2 0x220C DUP3 PUSH2 0x2E1 PUSH2 0x21FC JUMP JUMPDEST DUP1 SLOAD DUP7 DUP7 ADD DUP5 ADD MSTORE SWAP4 DUP3 ADD SWAP4 DUP2 ADD PUSH2 0x335B JUMP JUMPDEST CALLVALUE PUSH2 0x2FB JUMPI PUSH1 0x0 CALLDATASIZE PUSH1 0x3 NOT ADD SLT PUSH2 0x2FB JUMPI PUSH2 0x1C4 SWAP1 DUP2 SLOAD DUP1 DUP3 MSTORE PUSH1 0x20 SWAP1 PUSH1 0x20 DUP4 ADD SWAP4 PUSH1 0x0 MSTORE PUSH32 0x5AC35DCA7C3A7D5AE9D0ADD1EFDC4AA02E10DD5CAC0B90D2122CF0F0CC68317F SWAP2 PUSH1 0x0 SWAP1 JUMPDEST DUP3 DUP3 LT PUSH2 0x33EC JUMPI PUSH2 0x2E1 DUP6 PUSH2 0xD80 DUP2 DUP10 SUB DUP3 PUSH2 0x3549 JUMP JUMPDEST DUP4 SLOAD PUSH1 0x1 PUSH1 0x1 PUSH1 0xA0 SHL SUB AND DUP7 MSTORE SWAP5 DUP6 ADD SWAP5 PUSH1 0x1 SWAP4 DUP5 ADD SWAP4 SWAP1 SWAP2 ADD SWAP1 PUSH2 0x33D5 JUMP JUMPDEST PUSH1 0x20 SWAP1 PUSH1 0x20 PUSH1 0x40 DUP2 DUP4 ADD SWAP3 DUP3 DUP2 MSTORE DUP6 MLOAD DUP1 SWAP5 MSTORE ADD SWAP4 ADD SWAP2 PUSH1 0x0 JUMPDEST DUP3 DUP2 LT PUSH2 0x3434 JUMPI POP POP POP POP SWAP1 JUMP JUMPDEST DUP4 MLOAD PUSH1 0x1 PUSH1 0x1 PUSH1 0xA0 SHL SUB AND DUP6 MSTORE SWAP4 DUP2 ADD SWAP4 SWAP3 DUP2 ADD SWAP3 PUSH1 0x1 ADD PUSH2 0x3426 JUMP JUMPDEST PUSH1 0x20 DUP1 DUP3 MSTORE DUP3 MLOAD DUP2 DUP4 ADD DUP2 SWAP1 MSTORE SWAP1 SWAP4 SWAP3 PUSH1 0x0 JUMPDEST DUP3 DUP2 LT PUSH2 0x3486 JUMPI POP POP PUSH1 0x40 SWAP3 SWAP4 POP PUSH1 0x0 DUP4 DUP3 DUP5 ADD ADD MSTORE PUSH1 0x1F DUP1 NOT SWAP2 ADD AND ADD ADD SWAP1 JUMP JUMPDEST DUP2 DUP2 ADD DUP7 ADD MLOAD DUP5 DUP3 ADD PUSH1 0x40 ADD MSTORE DUP6 ADD PUSH2 0x3464 JUMP JUMPDEST PUSH1 0x4 CALLDATALOAD SWAP1 PUSH1 0x1 PUSH1 0x1 PUSH1 0xA0 SHL SUB DUP3 AND DUP3 SUB PUSH2 0x2FB JUMPI JUMP JUMPDEST PUSH1 0x24 CALLDATALOAD SWAP1 PUSH1 0x1 PUSH1 0x1 PUSH1 0xA0 SHL SUB DUP3 AND DUP3 SUB PUSH2 0x2FB JUMPI JUMP JUMPDEST PUSH2 0x1D5 DUP1 SLOAD DUP3 LT ISZERO PUSH2 0x34FD JUMPI PUSH1 0x0 MSTORE PUSH32 0x9F31C6E1FD7DFE4437C2313157ABA3C74244A3ED366F8F45280769D409A8EB0A ADD SWAP1 PUSH1 0x0 SWAP1 JUMP JUMPDEST PUSH4 0x4E487B71 PUSH1 0xE0 SHL PUSH1 0x0 MSTORE PUSH1 0x32 PUSH1 0x4 MSTORE PUSH1 0x24 PUSH1 0x0 REVERT JUMPDEST PUSH1 0xE0 DUP2 ADD SWAP1 DUP2 LT PUSH1 0x1 PUSH1 0x1 PUSH1 0x40 SHL SUB DUP3 GT OR PUSH2 0x2E5 JUMPI PUSH1 0x40 MSTORE JUMP JUMPDEST PUSH1 0x60 DUP2 ADD SWAP1 DUP2 LT PUSH1 0x1 PUSH1 0x1 PUSH1 0x40 SHL SUB DUP3 GT OR PUSH2 0x2E5 JUMPI PUSH1 0x40 MSTORE JUMP JUMPDEST SWAP1 PUSH1 0x1F DUP1 NOT SWAP2 ADD AND DUP2 ADD SWAP1 DUP2 LT PUSH1 0x1 PUSH1 0x1 PUSH1 0x40 SHL SUB DUP3 GT OR PUSH2 0x2E5 JUMPI PUSH1 0x40 MSTORE JUMP JUMPDEST PUSH1 0x1 PUSH1 0x1 PUSH1 0x40 SHL SUB DUP2 GT PUSH2 0x2E5 JUMPI PUSH1 0x1F ADD PUSH1 0x1F NOT AND PUSH1 0x20 ADD SWAP1 JUMP JUMPDEST SWAP3 SWAP2 SWAP3 PUSH2 0x3591 DUP3 PUSH2 0x356A JUMP JUMPDEST SWAP2 PUSH2 0x359F PUSH1 0x40 MLOAD SWAP4 DUP5 PUSH2 0x3549 JUMP JUMPDEST DUP3 SWAP5 DUP2 DUP5 MSTORE DUP2 DUP4 ADD GT PUSH2 0x2FB JUMPI DUP3 DUP2 PUSH1 0x20 SWAP4 DUP5 PUSH1 0x0 SWAP7 ADD CALLDATACOPY ADD ADD MSTORE JUMP JUMPDEST SWAP1 PUSH1 0x40 PUSH1 0x3 NOT DUP4 ADD SLT PUSH2 0x2FB JUMPI PUSH1 0x4 CALLDATALOAD PUSH1 0x1 PUSH1 0x1 PUSH1 0x40 SHL SUB SWAP3 DUP4 DUP3 GT PUSH2 0x2FB JUMPI DUP1 PUSH1 0x23 DUP4 ADD SLT ISZERO PUSH2 0x2FB JUMPI DUP2 PUSH1 0x4 ADD CALLDATALOAD SWAP4 DUP5 GT PUSH2 0x2FB JUMPI PUSH1 0x24 DUP5 PUSH1 0x5 SHL DUP4 ADD ADD GT PUSH2 0x2FB JUMPI PUSH1 0x24 ADD SWAP2 SWAP1 PUSH1 0x24 CALLDATALOAD DUP1 ISZERO ISZERO DUP2 SUB PUSH2 0x2FB JUMPI SWAP1 JUMP JUMPDEST SWAP1 PUSH1 0x1 DUP3 DUP2 SHR SWAP3 AND DUP1 ISZERO PUSH2 0x3645 JUMPI JUMPDEST PUSH1 0x20 DUP4 LT EQ PUSH2 0x362F JUMPI JUMP JUMPDEST PUSH4 0x4E487B71 PUSH1 0xE0 SHL PUSH1 0x0 MSTORE PUSH1 0x22 PUSH1 0x4 MSTORE PUSH1 0x24 PUSH1 0x0 REVERT JUMPDEST SWAP2 PUSH1 0x7F AND SWAP2 PUSH2 0x3624 JUMP JUMPDEST ISZERO PUSH2 0x3656 JUMPI JUMP JUMPDEST PUSH1 0x40 MLOAD PUSH3 0x461BCD PUSH1 0xE5 SHL DUP2 MSTORE PUSH1 0x20 PUSH1 0x4 DUP3 ADD MSTORE PUSH1 0x2C PUSH1 0x24 DUP3 ADD MSTORE PUSH32 0x46756E6374696F6E206D7573742062652063616C6C6564207468726F75676820 PUSH1 0x44 DUP3 ADD MSTORE PUSH12 0x19195B1959D85D1958D85B1B PUSH1 0xA2 SHL PUSH1 0x64 DUP3 ADD MSTORE PUSH1 0x84 SWAP1 REVERT JUMPDEST ISZERO PUSH2 0x36B7 JUMPI JUMP JUMPDEST PUSH1 0x40 MLOAD PUSH3 0x461BCD PUSH1 0xE5 SHL DUP2 MSTORE PUSH1 0x20 PUSH1 0x4 DUP3 ADD MSTORE PUSH1 0x2C PUSH1 0x24 DUP3 ADD MSTORE PUSH32 0x46756E6374696F6E206D7573742062652063616C6C6564207468726F75676820 PUSH1 0x44 DUP3 ADD MSTORE PUSH12 0x6163746976652070726F7879 PUSH1 0xA0 SHL PUSH1 0x64 DUP3 ADD MSTORE PUSH1 0x84 SWAP1 REVERT JUMPDEST SWAP2 SWAP1 DUP3 ADD DUP1 SWAP3 GT PUSH2 0x1A96 JUMPI JUMP JUMPDEST ISZERO PUSH2 0x3725 JUMPI JUMP JUMPDEST PUSH1 0x40 MLOAD PUSH3 0x461BCD PUSH1 0xE5 SHL DUP2 MSTORE PUSH1 0x20 PUSH1 0x4 DUP3 ADD MSTORE PUSH1 0x13 PUSH1 0x24 DUP3 ADD MSTORE PUSH19 0x4E6F2076657374696E67207363686564756C65 PUSH1 0x68 SHL PUSH1 0x44 DUP3 ADD MSTORE PUSH1 0x64 SWAP1 REVERT JUMPDEST SWAP1 PUSH1 0x40 MLOAD PUSH2 0x376D DUP2 PUSH2 0x3513 JUMP JUMPDEST PUSH1 0xC0 PUSH1 0xFF PUSH1 0x5 DUP4 SWAP6 DUP1 SLOAD DUP6 MSTORE PUSH1 0x1 DUP2 ADD SLOAD PUSH1 0x20 DUP7 ADD MSTORE PUSH1 0x2 DUP2 ADD SLOAD PUSH1 0x40 DUP7 ADD MSTORE PUSH1 0x3 DUP2 ADD SLOAD PUSH1 0x60 DUP7 ADD MSTORE PUSH1 0x4 DUP2 ADD SLOAD PUSH1 0x80 DUP7 ADD MSTORE ADD SLOAD DUP2 DUP2 AND ISZERO ISZERO PUSH1 0xA0 DUP6 ADD MSTORE PUSH1 0x8 SHR AND ISZERO ISZERO SWAP2 ADD MSTORE JUMP JUMPDEST SWAP2 SWAP1 DUP3 SUB SWAP2 DUP3 GT PUSH2 0x1A96 JUMPI JUMP JUMPDEST ISZERO PUSH2 0x37CC JUMPI JUMP JUMPDEST PUSH1 0x40 MLOAD PUSH3 0x461BCD PUSH1 0xE5 SHL DUP2 MSTORE PUSH1 0x20 PUSH1 0x4 DUP3 ADD MSTORE PUSH1 0x11 PUSH1 0x24 DUP3 ADD MSTORE PUSH17 0x141C995CD85B19481B9BDD08195B991959 PUSH1 0x7A SHL PUSH1 0x44 DUP3 ADD MSTORE PUSH1 0x64 SWAP1 REVERT JUMPDEST ISZERO PUSH2 0x380C JUMPI JUMP JUMPDEST PUSH1 0x40 MLOAD PUSH3 0x461BCD PUSH1 0xE5 SHL DUP2 MSTORE PUSH1 0x20 PUSH1 0x4 DUP3 ADD MSTORE PUSH1 0x11 PUSH1 0x24 DUP3 ADD MSTORE PUSH17 0x105B1C9958591E48199A5B985B1A5E9959 PUSH1 0x7A SHL PUSH1 0x44 DUP3 ADD MSTORE PUSH1 0x64 SWAP1 REVERT JUMPDEST ISZERO PUSH2 0x384C JUMPI JUMP JUMPDEST PUSH1 0x40 MLOAD PUSH3 0x461BCD PUSH1 0xE5 SHL DUP2 MSTORE PUSH1 0x20 PUSH1 0x4 DUP3 ADD MSTORE PUSH1 0x14 PUSH1 0x24 DUP3 ADD MSTORE PUSH20 0x14DBD99D0818D85C081B9BDD081C995858DA1959 PUSH1 0x62 SHL PUSH1 0x44 DUP3 ADD MSTORE PUSH1 0x64 SWAP1 REVERT JUMPDEST RETURNDATASIZE ISZERO PUSH2 0x38B3 JUMPI RETURNDATASIZE SWAP1 PUSH2 0x3899 DUP3 PUSH2 0x356A JUMP JUMPDEST SWAP2 PUSH2 0x38A7 PUSH1 0x40 MLOAD SWAP4 DUP5 PUSH2 0x3549 JUMP JUMPDEST DUP3 MSTORE RETURNDATASIZE PUSH1 0x0 PUSH1 0x20 DUP5 ADD RETURNDATACOPY JUMP JUMPDEST PUSH1 0x60 SWAP1 JUMP JUMPDEST SWAP1 CALLDATALOAD SWAP1 PUSH1 0x1E NOT DUP2 CALLDATASIZE SUB ADD DUP3 SLT ISZERO PUSH2 0x2FB JUMPI ADD DUP1 CALLDATALOAD SWAP1 PUSH1 0x1 PUSH1 0x1 PUSH1 0x40 SHL SUB DUP3 GT PUSH2 0x2FB JUMPI PUSH1 0x20 ADD SWAP2 DUP2 CALLDATASIZE SUB DUP4 SGT PUSH2 0x2FB JUMPI JUMP JUMPDEST CALLDATALOAD PUSH1 0x1 PUSH1 0x1 PUSH1 0xA0 SHL SUB DUP2 AND DUP2 SUB PUSH2 0x2FB JUMPI SWAP1 JUMP JUMPDEST SWAP1 CALLDATALOAD SWAP1 PUSH1 0x1E NOT DUP2 CALLDATASIZE SUB ADD DUP3 SLT ISZERO PUSH2 0x2FB JUMPI ADD DUP1 CALLDATALOAD SWAP1 PUSH1 0x1 PUSH1 0x1 PUSH1 0x40 SHL SUB DUP3 GT PUSH2 0x2FB JUMPI PUSH1 0x20 ADD SWAP2 PUSH1 0xC0 DUP3 MUL CALLDATASIZE SUB DUP4 SGT PUSH2 0x2FB JUMPI JUMP JUMPDEST SWAP2 SWAP1 DUP2 LT ISZERO PUSH2 0x34FD JUMPI PUSH1 0xC0 MUL ADD SWAP1 JUMP JUMPDEST CALLDATALOAD DUP1 ISZERO ISZERO DUP2 SUB PUSH2 0x2FB JUMPI SWAP1 JUMP JUMPDEST DUP2 DUP2 MUL SWAP3 SWAP2 DUP2 ISZERO SWAP2 DUP5 DIV EQ OR ISZERO PUSH2 0x1A96 JUMPI JUMP JUMPDEST PUSH1 0x1 PUSH1 0x1 PUSH1 0xA0 SHL SUB AND PUSH1 0x0 SWAP1 DUP2 MSTORE PUSH2 0x1DA PUSH1 0x20 MSTORE PUSH1 0x40 DUP2 KECCAK256 SLOAD PUSH1 0xFF AND DUP1 ISZERO PUSH2 0x3A16 JUMPI PUSH2 0x1D9 PUSH1 0x20 MSTORE PUSH2 0x3997 PUSH1 0x40 DUP4 KECCAK256 PUSH2 0x3760 JUMP JUMPDEST SWAP2 PUSH1 0xC0 DUP4 ADD MLOAD PUSH2 0x39FE JUMPI POP PUSH1 0x20 DUP3 ADD SWAP1 PUSH2 0x39C7 PUSH2 0x39BA DUP4 MLOAD PUSH1 0x60 DUP7 ADD MLOAD SWAP1 PUSH2 0x3711 JUMP JUMPDEST SWAP3 MLOAD PUSH1 0x40 DUP6 ADD MLOAD SWAP1 PUSH2 0x3711 JUMP JUMPDEST TIMESTAMP LT SWAP4 DUP4 MLOAD SWAP5 PUSH2 0x39DB PUSH1 0x80 DUP7 ADD MLOAD SWAP6 PUSH2 0x4046 JUMP JUMPDEST SWAP4 PUSH2 0x39EF DUP6 PUSH2 0x39EA DUP9 DUP11 PUSH2 0x37B8 JUMP JUMPDEST PUSH2 0x37B8 JUMP JUMPDEST SWAP4 SWAP7 SWAP6 SWAP5 SWAP4 SWAP3 DUP2 SWAP3 SWAP2 TIMESTAMP LT ISZERO SWAP1 JUMP JUMPDEST DUP3 MLOAD PUSH1 0x80 SWAP1 SWAP4 ADD MLOAD PUSH1 0x1 SWAP5 SWAP1 SWAP3 POP DUP2 SWAP1 DUP2 SWAP1 DUP2 SWAP1 DUP8 SWAP1 JUMP JUMPDEST POP SWAP1 DUP2 DUP1 SWAP2 DUP2 DUP1 SWAP2 DUP2 DUP1 SWAP2 DUP2 SWAP1 JUMP JUMPDEST SWAP2 SWAP1 DUP2 LT ISZERO PUSH2 0x34FD JUMPI PUSH1 0x5 SHL ADD SWAP1 JUMP JUMPDEST PUSH1 0x40 DUP1 DUP3 MSTORE DUP2 ADD DUP4 SWAP1 MSTORE SWAP3 SWAP4 SWAP3 SWAP2 PUSH1 0x60 DUP4 ADD SWAP1 PUSH1 0x0 SWAP1 DUP2 JUMPDEST DUP2 DUP2 LT PUSH2 0x3A63 JUMPI POP POP POP PUSH1 0x20 SWAP2 POP SWAP4 ISZERO ISZERO SWAP2 ADD MSTORE JUMP JUMPDEST SWAP1 SWAP2 SWAP3 DUP5 CALLDATALOAD PUSH1 0x1 DUP1 PUSH1 0xA0 SHL SUB DUP2 AND DUP1 SWAP2 SUB PUSH2 0x3A8C JUMPI DUP2 MSTORE PUSH1 0x20 SWAP5 DUP6 ADD SWAP5 ADD SWAP3 SWAP2 SWAP1 PUSH1 0x1 ADD PUSH2 0x3A4D JUMP JUMPDEST DUP5 DUP1 REVERT JUMPDEST ISZERO PUSH2 0x3A97 JUMPI JUMP JUMPDEST PUSH1 0x40 MLOAD PUSH3 0x461BCD PUSH1 0xE5 SHL DUP2 MSTORE PUSH1 0x20 PUSH1 0x4 DUP3 ADD MSTORE PUSH1 0x11 PUSH1 0x24 DUP3 ADD MSTORE PUSH17 0x141C995CD85B1948199A5B985B1A5E9959 PUSH1 0x7A SHL PUSH1 0x44 DUP3 ADD MSTORE PUSH1 0x64 SWAP1 REVERT JUMPDEST ISZERO PUSH2 0x3AD7 JUMPI JUMP JUMPDEST PUSH1 0x40 MLOAD PUSH3 0x461BCD PUSH1 0xE5 SHL DUP2 MSTORE PUSH1 0x20 PUSH1 0x4 DUP3 ADD MSTORE PUSH1 0x16 PUSH1 0x24 DUP3 ADD MSTORE PUSH22 0x2132B637BB9036B4B71031B7B73A3934B13ABA34B7B7 PUSH1 0x51 SHL PUSH1 0x44 DUP3 ADD MSTORE PUSH1 0x64 SWAP1 REVERT JUMPDEST ISZERO PUSH2 0x3B1C JUMPI JUMP JUMPDEST PUSH1 0x40 MLOAD PUSH3 0x461BCD PUSH1 0xE5 SHL DUP2 MSTORE PUSH1 0x20 PUSH1 0x4 DUP3 ADD MSTORE PUSH1 0x16 PUSH1 0x24 DUP3 ADD MSTORE PUSH22 0x20B137BB329036B0BC1031B7B73A3934B13ABA34B7B7 PUSH1 0x51 SHL PUSH1 0x44 DUP3 ADD MSTORE PUSH1 0x64 SWAP1 REVERT JUMPDEST ISZERO PUSH2 0x3B61 JUMPI JUMP JUMPDEST PUSH1 0x40 MLOAD PUSH3 0x461BCD PUSH1 0xE5 SHL DUP2 MSTORE PUSH1 0x20 PUSH1 0x4 DUP3 ADD MSTORE PUSH1 0x10 PUSH1 0x24 DUP3 ADD MSTORE PUSH16 0x12185C990818D85C081C995858DA1959 PUSH1 0x82 SHL PUSH1 0x44 DUP3 ADD MSTORE PUSH1 0x64 SWAP1 REVERT JUMPDEST PUSH1 0x1 PUSH1 0x1 PUSH1 0xA0 SHL SUB SWAP1 DUP2 AND SWAP2 DUP3 ISZERO PUSH2 0x3C4A JUMPI AND SWAP2 DUP3 ISZERO PUSH2 0x3BFA JUMPI PUSH1 0x20 PUSH32 0x8C5BE1E5EBEC7D5BD14F71427D1E84F3DD0314C0F7B2291E5B200AC8C7C3B925 SWAP2 DUP4 PUSH1 0x0 MSTORE PUSH1 0x34 DUP3 MSTORE PUSH1 0x40 PUSH1 0x0 KECCAK256 DUP6 PUSH1 0x0 MSTORE DUP3 MSTORE DUP1 PUSH1 0x40 PUSH1 0x0 KECCAK256 SSTORE PUSH1 0x40 MLOAD SWAP1 DUP2 MSTORE LOG3 JUMP JUMPDEST PUSH1 0x40 MLOAD PUSH3 0x461BCD PUSH1 0xE5 SHL DUP2 MSTORE PUSH1 0x20 PUSH1 0x4 DUP3 ADD MSTORE PUSH1 0x22 PUSH1 0x24 DUP3 ADD MSTORE PUSH32 0x45524332303A20617070726F766520746F20746865207A65726F206164647265 PUSH1 0x44 DUP3 ADD MSTORE PUSH2 0x7373 PUSH1 0xF0 SHL PUSH1 0x64 DUP3 ADD MSTORE PUSH1 0x84 SWAP1 REVERT JUMPDEST PUSH1 0x40 MLOAD PUSH3 0x461BCD PUSH1 0xE5 SHL DUP2 MSTORE PUSH1 0x20 PUSH1 0x4 DUP3 ADD MSTORE PUSH1 0x24 DUP1 DUP3 ADD MSTORE PUSH32 0x45524332303A20617070726F76652066726F6D20746865207A65726F20616464 PUSH1 0x44 DUP3 ADD MSTORE PUSH4 0x72657373 PUSH1 0xE0 SHL PUSH1 0x64 DUP3 ADD MSTORE PUSH1 0x84 SWAP1 REVERT JUMPDEST SWAP1 PUSH1 0x1 DUP1 PUSH1 0xA0 SHL SUB DUP1 DUP4 AND PUSH1 0x0 MSTORE PUSH1 0x34 PUSH1 0x20 MSTORE PUSH1 0x40 PUSH1 0x0 KECCAK256 SWAP1 DUP3 AND PUSH1 0x0 MSTORE PUSH1 0x20 MSTORE PUSH1 0x40 PUSH1 0x0 KECCAK256 SLOAD SWAP3 PUSH1 0x0 NOT DUP5 SUB PUSH2 0x3CD3 JUMPI JUMPDEST POP POP POP POP JUMP JUMPDEST DUP1 DUP5 LT PUSH2 0x3CEE JUMPI PUSH2 0x3CE5 SWAP4 SUB SWAP2 PUSH2 0x3B99 JUMP JUMPDEST CODESIZE DUP1 DUP1 DUP1 PUSH2 0x3CCD JUMP JUMPDEST PUSH1 0x40 MLOAD PUSH3 0x461BCD PUSH1 0xE5 SHL DUP2 MSTORE PUSH1 0x20 PUSH1 0x4 DUP3 ADD MSTORE PUSH1 0x1D PUSH1 0x24 DUP3 ADD MSTORE PUSH32 0x45524332303A20696E73756666696369656E7420616C6C6F77616E6365000000 PUSH1 0x44 DUP3 ADD MSTORE PUSH1 0x64 SWAP1 REVERT JUMPDEST PUSH1 0x1 PUSH1 0x1 PUSH1 0xA0 SHL SUB SWAP1 DUP2 AND SWAP1 DUP2 ISZERO PUSH2 0x3F9B JUMPI DUP3 AND SWAP1 DUP2 ISZERO PUSH2 0x3F4A JUMPI PUSH2 0x1D2 SLOAD PUSH1 0xFF DUP2 AND PUSH2 0x3EDD JUMPI JUMPDEST PUSH1 0x8 SHR PUSH1 0xFF AND DUP1 PUSH2 0x3ED5 JUMPI JUMPDEST PUSH2 0x3E89 JUMPI JUMPDEST PUSH1 0xFF PUSH1 0x97 SLOAD AND PUSH2 0x3E31 JUMPI PUSH1 0x0 DUP2 DUP2 MSTORE PUSH1 0x33 PUSH1 0x20 MSTORE PUSH1 0x40 DUP2 KECCAK256 SLOAD SWAP1 DUP6 DUP3 LT PUSH2 0x3DDD JUMPI DUP6 PUSH1 0x40 DUP3 PUSH2 0x3DDB SWAP9 PUSH32 0xDDF252AD1BE2C89B69C2B068FC378DAA952BA7F163C4A11628F55A4DF523B3EF SWAP6 DUP8 PUSH1 0x20 SWAP7 MSTORE PUSH1 0x33 DUP7 MSTORE SUB DUP3 DUP3 KECCAK256 SSTORE DUP7 DUP2 MSTORE KECCAK256 DUP2 DUP2 SLOAD ADD SWAP1 SSTORE PUSH1 0x40 MLOAD SWAP1 DUP2 MSTORE LOG3 PUSH2 0x45A1 JUMP JUMPDEST JUMP JUMPDEST PUSH1 0x40 MLOAD PUSH3 0x461BCD PUSH1 0xE5 SHL DUP2 MSTORE PUSH1 0x20 PUSH1 0x4 DUP3 ADD MSTORE PUSH1 0x26 PUSH1 0x24 DUP3 ADD MSTORE PUSH32 0x45524332303A207472616E7366657220616D6F756E7420657863656564732062 PUSH1 0x44 DUP3 ADD MSTORE PUSH6 0x616C616E6365 PUSH1 0xD0 SHL PUSH1 0x64 DUP3 ADD MSTORE PUSH1 0x84 SWAP1 REVERT JUMPDEST PUSH1 0x40 MLOAD PUSH3 0x461BCD PUSH1 0xE5 SHL DUP2 MSTORE PUSH1 0x20 PUSH1 0x4 DUP3 ADD MSTORE PUSH1 0x2A PUSH1 0x24 DUP3 ADD MSTORE PUSH32 0x45524332305061757361626C653A20746F6B656E207472616E73666572207768 PUSH1 0x44 DUP3 ADD MSTORE PUSH10 0x1A5B19481C185D5CD959 PUSH1 0xB2 SHL PUSH1 0x64 DUP3 ADD MSTORE PUSH1 0x84 SWAP1 REVERT JUMPDEST DUP1 PUSH1 0x0 MSTORE PUSH2 0x1D4 PUSH1 0x20 MSTORE PUSH1 0x40 PUSH1 0x0 KECCAK256 SLOAD TIMESTAMP LT ISZERO PUSH2 0x3D6C JUMPI PUSH1 0x40 MLOAD PUSH3 0x461BCD PUSH1 0xE5 SHL DUP2 MSTORE PUSH1 0x20 PUSH1 0x4 DUP3 ADD MSTORE PUSH1 0xD PUSH1 0x24 DUP3 ADD MSTORE PUSH13 0x151BDAD95B9CC81B1BD8DAD959 PUSH1 0x9A SHL PUSH1 0x44 DUP3 ADD MSTORE PUSH1 0x64 SWAP1 REVERT JUMPDEST POP PUSH1 0x1 PUSH2 0x3D67 JUMP JUMPDEST DUP2 PUSH1 0x0 MSTORE PUSH2 0x1D3 PUSH1 0x20 MSTORE PUSH1 0xFF PUSH1 0x40 PUSH1 0x0 KECCAK256 SLOAD AND ISZERO DUP1 PUSH2 0x3F36 JUMPI JUMPDEST PUSH2 0x3D5B JUMPI PUSH1 0x40 MLOAD PUSH3 0x461BCD PUSH1 0xE5 SHL DUP2 MSTORE PUSH1 0x20 PUSH1 0x4 DUP3 ADD MSTORE PUSH1 0x13 PUSH1 0x24 DUP3 ADD MSTORE PUSH19 0x1059191C995CDCC8189B1858DADB1A5CDD1959 PUSH1 0x6A SHL PUSH1 0x44 DUP3 ADD MSTORE PUSH1 0x64 SWAP1 REVERT JUMPDEST POP DUP3 PUSH1 0x0 MSTORE PUSH1 0xFF PUSH1 0x40 PUSH1 0x0 KECCAK256 SLOAD AND ISZERO PUSH2 0x3EF7 JUMP JUMPDEST PUSH1 0x40 MLOAD PUSH3 0x461BCD PUSH1 0xE5 SHL DUP2 MSTORE PUSH1 0x20 PUSH1 0x4 DUP3 ADD MSTORE PUSH1 0x23 PUSH1 0x24 DUP3 ADD MSTORE PUSH32 0x45524332303A207472616E7366657220746F20746865207A65726F2061646472 PUSH1 0x44 DUP3 ADD MSTORE PUSH3 0x657373 PUSH1 0xE8 SHL PUSH1 0x64 DUP3 ADD MSTORE PUSH1 0x84 SWAP1 REVERT JUMPDEST PUSH1 0x40 MLOAD PUSH3 0x461BCD PUSH1 0xE5 SHL DUP2 MSTORE PUSH1 0x20 PUSH1 0x4 DUP3 ADD MSTORE PUSH1 0x25 PUSH1 0x24 DUP3 ADD MSTORE PUSH32 0x45524332303A207472616E736665722066726F6D20746865207A65726F206164 PUSH1 0x44 DUP3 ADD MSTORE PUSH5 0x6472657373 PUSH1 0xD8 SHL PUSH1 0x64 DUP3 ADD MSTORE PUSH1 0x84 SWAP1 REVERT JUMPDEST PUSH1 0xFB SLOAD PUSH1 0x1 PUSH1 0x1 PUSH1 0xA0 SHL SUB AND CALLER SUB PUSH2 0x4002 JUMPI JUMP JUMPDEST PUSH1 0x64 PUSH1 0x40 MLOAD PUSH3 0x461BCD PUSH1 0xE5 SHL DUP2 MSTORE PUSH1 0x20 PUSH1 0x4 DUP3 ADD MSTORE PUSH1 0x20 PUSH1 0x24 DUP3 ADD MSTORE PUSH32 0x4F776E61626C653A2063616C6C6572206973206E6F7420746865206F776E6572 PUSH1 0x44 DUP3 ADD MSTORE REVERT JUMPDEST PUSH1 0xC0 DUP2 ADD MLOAD PUSH2 0x40E2 JUMPI PUSH1 0x20 DUP2 ADD PUSH2 0x4063 DUP2 MLOAD PUSH1 0x40 DUP5 ADD MLOAD SWAP1 PUSH2 0x3711 JUMP JUMPDEST TIMESTAMP LT PUSH2 0x40DB JUMPI DUP1 MLOAD SWAP1 PUSH2 0x407C PUSH1 0x60 DUP5 ADD SWAP3 DUP4 MLOAD SWAP1 PUSH2 0x3711 JUMP JUMPDEST TIMESTAMP LT ISZERO PUSH2 0x40C8 JUMPI PUSH2 0x4091 PUSH2 0x4098 SWAP2 MLOAD TIMESTAMP PUSH2 0x37B8 JUMP JUMPDEST DUP4 MLOAD PUSH2 0x3950 JUMP JUMPDEST SWAP1 MLOAD DUP1 ISZERO PUSH2 0x40B2 JUMPI PUSH1 0x80 PUSH2 0x40AF SWAP4 ADD MLOAD SWAP2 DIV PUSH2 0x37B8 JUMP JUMPDEST SWAP1 JUMP JUMPDEST PUSH4 0x4E487B71 PUSH1 0xE0 SHL PUSH1 0x0 MSTORE PUSH1 0x12 PUSH1 0x4 MSTORE PUSH1 0x24 PUSH1 0x0 REVERT JUMPDEST POP POP DUP1 PUSH1 0x80 PUSH2 0x40AF SWAP3 MLOAD SWAP2 ADD MLOAD SWAP1 PUSH2 0x37B8 JUMP JUMPDEST POP POP PUSH1 0x0 SWAP1 JUMP JUMPDEST POP PUSH1 0x0 SWAP1 JUMP JUMPDEST PUSH1 0x1 PUSH1 0x1 PUSH1 0xA0 SHL SUB AND DUP1 ISZERO PUSH2 0x428D JUMPI PUSH2 0x1D2 SLOAD PUSH1 0xFF DUP2 AND PUSH2 0x4220 JUMPI JUMPDEST PUSH1 0x8 SHR PUSH1 0xFF AND DUP1 PUSH2 0x4218 JUMPI JUMPDEST PUSH2 0x41CC JUMPI JUMPDEST PUSH1 0xFF PUSH1 0x97 SLOAD AND PUSH2 0x3E31 JUMPI DUP1 PUSH1 0x0 MSTORE PUSH1 0x33 PUSH1 0x20 MSTORE PUSH1 0x40 PUSH1 0x0 KECCAK256 SLOAD SWAP2 DUP1 DUP4 LT PUSH2 0x417C JUMPI PUSH1 0x20 DUP2 PUSH32 0xDDF252AD1BE2C89B69C2B068FC378DAA952BA7F163C4A11628F55A4DF523B3EF SWAP3 PUSH1 0x0 SWAP6 DUP6 DUP8 MSTORE PUSH1 0x33 DUP5 MSTORE SUB PUSH1 0x40 DUP7 KECCAK256 SSTORE DUP1 PUSH1 0x35 SLOAD SUB PUSH1 0x35 SSTORE PUSH1 0x40 MLOAD SWAP1 DUP2 MSTORE LOG3 JUMP JUMPDEST PUSH1 0x40 MLOAD PUSH3 0x461BCD PUSH1 0xE5 SHL DUP2 MSTORE PUSH1 0x20 PUSH1 0x4 DUP3 ADD MSTORE PUSH1 0x22 PUSH1 0x24 DUP3 ADD MSTORE PUSH32 0x45524332303A206275726E20616D6F756E7420657863656564732062616C616E PUSH1 0x44 DUP3 ADD MSTORE PUSH2 0x6365 PUSH1 0xF0 SHL PUSH1 0x64 DUP3 ADD MSTORE PUSH1 0x84 SWAP1 REVERT JUMPDEST DUP1 PUSH1 0x0 MSTORE PUSH2 0x1D4 PUSH1 0x20 MSTORE PUSH1 0x40 PUSH1 0x0 KECCAK256 SLOAD TIMESTAMP LT ISZERO PUSH2 0x4115 JUMPI PUSH1 0x40 MLOAD PUSH3 0x461BCD PUSH1 0xE5 SHL DUP2 MSTORE PUSH1 0x20 PUSH1 0x4 DUP3 ADD MSTORE PUSH1 0xD PUSH1 0x24 DUP3 ADD MSTORE PUSH13 0x151BDAD95B9CC81B1BD8DAD959 PUSH1 0x9A SHL PUSH1 0x44 DUP3 ADD MSTORE PUSH1 0x64 SWAP1 REVERT JUMPDEST POP PUSH1 0x1 PUSH2 0x4110 JUMP JUMPDEST DUP2 PUSH1 0x0 MSTORE PUSH2 0x1D3 PUSH1 0x20 MSTORE PUSH1 0xFF PUSH1 0x40 PUSH1 0x0 KECCAK256 SLOAD AND ISZERO DUP1 PUSH2 0x4279 JUMPI JUMPDEST PUSH2 0x4104 JUMPI PUSH1 0x40 MLOAD PUSH3 0x461BCD PUSH1 0xE5 SHL DUP2 MSTORE PUSH1 0x20 PUSH1 0x4 DUP3 ADD MSTORE PUSH1 0x13 PUSH1 0x24 DUP3 ADD MSTORE PUSH19 0x1059191C995CDCC8189B1858DADB1A5CDD1959 PUSH1 0x6A SHL PUSH1 0x44 DUP3 ADD MSTORE PUSH1 0x64 SWAP1 REVERT JUMPDEST POP PUSH1 0x0 DUP1 MSTORE PUSH1 0xFF PUSH1 0x40 PUSH1 0x0 KECCAK256 SLOAD AND ISZERO PUSH2 0x423A JUMP JUMPDEST PUSH1 0x40 MLOAD PUSH3 0x461BCD PUSH1 0xE5 SHL DUP2 MSTORE PUSH1 0x20 PUSH1 0x4 DUP3 ADD MSTORE PUSH1 0x21 PUSH1 0x24 DUP3 ADD MSTORE PUSH32 0x45524332303A206275726E2066726F6D20746865207A65726F20616464726573 PUSH1 0x44 DUP3 ADD MSTORE PUSH1 0x73 PUSH1 0xF8 SHL PUSH1 0x64 DUP3 ADD MSTORE PUSH1 0x84 SWAP1 REVERT JUMPDEST PUSH2 0x191 PUSH1 0x2 DUP2 SLOAD EQ PUSH2 0x42EE JUMPI PUSH1 0x2 SWAP1 SSTORE JUMP JUMPDEST PUSH1 0x40 MLOAD PUSH3 0x461BCD PUSH1 0xE5 SHL DUP2 MSTORE PUSH1 0x20 PUSH1 0x4 DUP3 ADD MSTORE PUSH1 0x1F PUSH1 0x24 DUP3 ADD MSTORE PUSH32 0x5265656E7472616E637947756172643A207265656E7472616E742063616C6C00 PUSH1 0x44 DUP3 ADD MSTORE PUSH1 0x64 SWAP1 REVERT JUMPDEST PUSH1 0xFB DUP1 SLOAD PUSH1 0x1 PUSH1 0x1 PUSH1 0xA0 SHL SUB SWAP3 DUP4 AND PUSH1 0x1 PUSH1 0x1 PUSH1 0xA0 SHL SUB NOT DUP3 AND DUP2 OR SWAP1 SWAP3 SSTORE SWAP1 SWAP2 AND PUSH32 0x8BE0079C531659141344CD1FD0A4F28419497F9722A3DAAFE3B4186F6B6457E0 PUSH1 0x0 DUP1 LOG3 JUMP JUMPDEST ISZERO PUSH2 0x4383 JUMPI JUMP JUMPDEST PUSH1 0x40 MLOAD PUSH3 0x461BCD PUSH1 0xE5 SHL DUP2 MSTORE PUSH1 0x20 PUSH1 0x4 DUP3 ADD MSTORE PUSH1 0x2B PUSH1 0x24 DUP3 ADD MSTORE PUSH32 0x496E697469616C697A61626C653A20636F6E7472616374206973206E6F742069 PUSH1 0x44 DUP3 ADD MSTORE PUSH11 0x6E697469616C697A696E67 PUSH1 0xA8 SHL PUSH1 0x64 DUP3 ADD MSTORE PUSH1 0x84 SWAP1 REVERT JUMPDEST PUSH1 0x1 PUSH1 0x1 PUSH1 0xA0 SHL SUB AND SWAP1 DUP2 ISZERO PUSH2 0x455C JUMPI PUSH2 0x1D2 SLOAD PUSH1 0xFF DUP2 AND PUSH2 0x44D3 JUMPI JUMPDEST PUSH1 0x8 SHR PUSH1 0xFF AND DUP1 PUSH2 0x44CB JUMPI JUMPDEST PUSH2 0x4463 JUMPI JUMPDEST PUSH1 0xFF PUSH1 0x97 SLOAD AND PUSH2 0x3E31 JUMPI PUSH32 0xDDF252AD1BE2C89B69C2B068FC378DAA952BA7F163C4A11628F55A4DF523B3EF PUSH1 0x20 DUP3 PUSH2 0x4446 PUSH1 0x0 SWAP5 PUSH1 0x35 SLOAD PUSH2 0x3711 JUMP JUMPDEST PUSH1 0x35 SSTORE DUP5 DUP5 MSTORE PUSH1 0x33 DUP3 MSTORE PUSH1 0x40 DUP5 KECCAK256 DUP2 DUP2 SLOAD ADD SWAP1 SSTORE PUSH1 0x40 MLOAD SWAP1 DUP2 MSTORE LOG3 JUMP JUMPDEST PUSH1 0x0 DUP1 MSTORE PUSH2 0x1D4 PUSH1 0x20 MSTORE PUSH32 0x410FCF528D521D85C0B03B4ED80308A532D4B2E9FB9978A3F903402E42241352 SLOAD TIMESTAMP LT ISZERO PUSH2 0x440A JUMPI PUSH1 0x40 MLOAD PUSH3 0x461BCD PUSH1 0xE5 SHL DUP2 MSTORE PUSH1 0x20 PUSH1 0x4 DUP3 ADD MSTORE PUSH1 0xD PUSH1 0x24 DUP3 ADD MSTORE PUSH13 0x151BDAD95B9CC81B1BD8DAD959 PUSH1 0x9A SHL PUSH1 0x44 DUP3 ADD MSTORE PUSH1 0x64 SWAP1 REVERT JUMPDEST POP PUSH1 0x0 PUSH2 0x4405 JUMP JUMPDEST PUSH1 0x0 DUP1 MSTORE PUSH2 0x1D3 PUSH1 0x20 MSTORE PUSH32 0xE33998FF62F234A925B803B2D837CB316CDE2DFCBC8C8F1F21FA7ED385B74C30 SLOAD PUSH1 0xFF AND ISZERO DUP1 PUSH2 0x4548 JUMPI JUMPDEST PUSH2 0x43F9 JUMPI PUSH1 0x40 MLOAD PUSH3 0x461BCD PUSH1 0xE5 SHL DUP2 MSTORE PUSH1 0x20 PUSH1 0x4 DUP3 ADD MSTORE PUSH1 0x13 PUSH1 0x24 DUP3 ADD MSTORE PUSH19 0x1059191C995CDCC8189B1858DADB1A5CDD1959 PUSH1 0x6A SHL PUSH1 0x44 DUP3 ADD MSTORE PUSH1 0x64 SWAP1 REVERT JUMPDEST POP DUP3 PUSH1 0x0 MSTORE PUSH1 0xFF PUSH1 0x40 PUSH1 0x0 KECCAK256 SLOAD AND ISZERO PUSH2 0x4509 JUMP JUMPDEST PUSH1 0x40 MLOAD PUSH3 0x461BCD PUSH1 0xE5 SHL DUP2 MSTORE PUSH1 0x20 PUSH1 0x4 DUP3 ADD MSTORE PUSH1 0x1F PUSH1 0x24 DUP3 ADD MSTORE PUSH32 0x45524332303A206D696E7420746F20746865207A65726F206164647265737300 PUSH1 0x44 DUP3 ADD MSTORE PUSH1 0x64 SWAP1 REVERT JUMPDEST PUSH1 0x1 PUSH1 0x1 PUSH1 0xA0 SHL SUB AND PUSH1 0x0 DUP2 DUP2 MSTORE PUSH2 0x1C3 PUSH1 0x20 MSTORE PUSH1 0x40 DUP2 KECCAK256 DUP1 SLOAD SWAP2 SWAP3 SWAP2 PUSH1 0xFF DUP2 AND ISZERO PUSH2 0x45CD JUMPI POP POP POP POP JUMP JUMPDEST PUSH1 0xFF NOT AND PUSH1 0x1 OR SWAP1 SSTORE PUSH2 0x1C4 DUP1 SLOAD SWAP1 PUSH1 0x1 PUSH1 0x40 SHL DUP3 LT ISZERO PUSH2 0x4672 JUMPI PUSH1 0x1 DUP3 ADD DUP1 DUP3 SSTORE DUP3 LT ISZERO PUSH2 0x465E JUMPI DUP4 MSTORE PUSH32 0x5AC35DCA7C3A7D5AE9D0ADD1EFDC4AA02E10DD5CAC0B90D2122CF0F0CC68317F ADD DUP1 SLOAD PUSH1 0x1 PUSH1 0x1 PUSH1 0xA0 SHL SUB NOT AND SWAP1 SWAP2 OR SWAP1 SSTORE PUSH2 0x1C5 DUP1 SLOAD SWAP1 SWAP2 PUSH1 0x0 NOT DUP3 EQ PUSH2 0x464A JUMPI POP PUSH1 0x1 ADD SWAP1 SSTORE CODESIZE DUP1 DUP1 DUP1 PUSH2 0x3CCD JUMP JUMPDEST PUSH4 0x4E487B71 PUSH1 0xE0 SHL DUP2 MSTORE PUSH1 0x11 PUSH1 0x4 MSTORE PUSH1 0x24 SWAP1 REVERT JUMPDEST PUSH4 0x4E487B71 PUSH1 0xE0 SHL DUP5 MSTORE PUSH1 0x32 PUSH1 0x4 MSTORE PUSH1 0x24 DUP5 REVERT JUMPDEST PUSH4 0x4E487B71 PUSH1 0xE0 SHL DUP5 MSTORE PUSH1 0x41 PUSH1 0x4 MSTORE PUSH1 0x24 DUP5 REVERT JUMPDEST DUP1 EXTCODESIZE ISZERO PUSH2 0x46BB JUMPI PUSH1 0x0 DUP1 MLOAD PUSH1 0x20 PUSH2 0x47CC DUP4 CODECOPY DUP2 MLOAD SWAP2 MSTORE DUP1 SLOAD PUSH1 0x1 PUSH1 0x1 PUSH1 0xA0 SHL SUB NOT AND PUSH1 0x1 PUSH1 0x1 PUSH1 0xA0 SHL SUB SWAP1 SWAP3 AND SWAP2 SWAP1 SWAP2 OR SWAP1 SSTORE JUMP JUMPDEST PUSH1 0x40 MLOAD PUSH3 0x461BCD PUSH1 0xE5 SHL DUP2 MSTORE PUSH1 0x20 PUSH1 0x4 DUP3 ADD MSTORE PUSH1 0x2D PUSH1 0x24 DUP3 ADD MSTORE PUSH32 0x455243313936373A206E657720696D706C656D656E746174696F6E206973206E PUSH1 0x44 DUP3 ADD MSTORE PUSH13 0x1BDD08184818DBDB9D1C9858DD PUSH1 0x9A SHL PUSH1 0x64 DUP3 ADD MSTORE PUSH1 0x84 SWAP1 REVERT JUMPDEST SWAP2 SWAP3 SWAP1 ISZERO PUSH2 0x4778 JUMPI POP DUP2 MLOAD ISZERO PUSH2 0x472A JUMPI POP SWAP1 JUMP JUMPDEST EXTCODESIZE ISZERO PUSH2 0x4733 JUMPI SWAP1 JUMP JUMPDEST PUSH1 0x40 MLOAD PUSH3 0x461BCD PUSH1 0xE5 SHL DUP2 MSTORE PUSH1 0x20 PUSH1 0x4 DUP3 ADD MSTORE PUSH1 0x1D PUSH1 0x24 DUP3 ADD MSTORE PUSH32 0x416464726573733A2063616C6C20746F206E6F6E2D636F6E7472616374000000 PUSH1 0x44 DUP3 ADD MSTORE PUSH1 0x64 SWAP1 REVERT JUMPDEST DUP3 MLOAD SWAP1 SWAP2 POP ISZERO PUSH2 0x478B JUMPI POP DUP1 MLOAD SWAP1 PUSH1 0x20 ADD REVERT JUMPDEST PUSH1 0x40 MLOAD PUSH3 0x461BCD PUSH1 0xE5 SHL DUP2 MSTORE SWAP1 DUP2 SWAP1 PUSH2 0x47A7 SWAP1 PUSH1 0x4 DUP4 ADD PUSH2 0x3451 JUMP JUMPDEST SUB SWAP1 REVERT INVALID 0x4A GT 0xF9 0x4E KECCAK256 0xA9 EXTCODECOPY PUSH26 0xF6EC743A1954EC4FC2C08429AE2122118BF234B2185C81B83608 SWAP5 LOG1 EXTCODESIZE LOG1 LOG3 0x21 MOD PUSH8 0xC828492DB98DCA3E KECCAK256 PUSH23 0xCC3735A920A3CA505D382BBC42A7B7DD785CD69714A189 0xDF 0xFB EXTCODEHASH 0xD7 0xD7 OR 0x4E 0xDC SWAP15 0xCE DUP4 PUSH23 0x94CE50F7078F7C31AE16B0DA2FFCB90C6723317BD637D9 0xAA 0xD7 CREATE SELFBALANCE GT DELEGATECALL 0x2B 0xBE EXP 0xC0 SWAP2 DUP15 0xBE LT CALL 0xF9 STOP SHR LOG2 PUSH5 0x6970667358 0x22 SLT KECCAK256 DUP8 0xB5 0xFC SWAP14 0xCD 0xEA MOD PUSH13 0xA75AAE77AFDAD1DEB9485AB059 0xE6 PUSH2 0xA95E 0xDB EQ PUSH9 0x6EF968C964736F6C63 NUMBER STOP ADDMOD AND STOP CALLER "},"gasEstimates":{"creation":{"codeDepositCost":"3705800","executionCost":"infinite","totalCost":"infinite"},"external":{"VERSION()":"infinite","allowance(address,address)":"3701","approve(address,uint256)":"24412","balanceOf(address)":"3003","blacklist(address)":"3609","blacklistEnabled()":"3304","burn(uint256)":"61823","burnFrom(address,uint256)":"88650","claimRefund()":"infinite","contribute()":"infinite","contributions(address)":"2805","contributors(uint256)":"6928","createVestingSchedule(address,uint256,uint256,uint256,uint256,bool)":"200962","decimals()":"375","decreaseAllowance(address,uint256)":"27440","finalize()":"infinite","finalizePresale()":"41411","getContributorCount()":"2434","getContributorInfo(address)":"6856","getContributors()":"infinite","getUserCount()":"3248","getUsers()":"infinite","getVestingSchedule(address)":"infinite","getVestingStatus(address)":"infinite","hasVestingSchedule(address)":"3367","increaseAllowance(address,uint256)":"26936","initialize((string,string,uint256,uint256,address,bool,bool,uint256,uint256,uint256,uint256,uint256,uint256,uint256,uint256,uint256,uint256,(address,uint256,bool,uint256,uint256,uint256)[]))":"infinite","isContributor(address)":"2553","isUser(address)":"2773","maxSupply()":"3358","name()":"infinite","owner()":"2964","participateInPresale()":"infinite","paused()":"2820","presaleContributorTokens(address)":"2827","presaleInfo()":"19460","proxiableUUID()":"infinite","releaseVestedTokens()":"infinite","renounceOwnership()":"28679","revokeVesting(address)":"infinite","setTimeLock(address,uint256)":"28603","symbol()":"infinite","timeLockEnabled()":"3354","timeLocks(address)":"3069","totalPresaleTokensDistributed()":"2698","totalSupply()":"2368","transfer(address,uint256)":"159666","transferFrom(address,address,uint256)":"infinite","transferOwnership(address)":"29381","updateBlacklist(address[],bool)":"infinite","updateWhitelist(address[],bool)":"infinite","upgradeTo(address)":"infinite","upgradeToAndCall(address,bytes)":"infinite","userCount()":"2302","users(uint256)":"4692","vestingSchedules(address)":"14302","whitelist(address)":"3147"},"internal":{"_addUser(address)":"97162","_authorizeUpgrade(address)":"infinite","_beforeTokenTransfer(address,address,uint256)":"infinite","_computeReleasableAmount(struct TokenTemplate_v3.VestingSchedule memory)":"infinite","_transfer(address,address,uint256)":"infinite"}},"methodIdentifiers":{"VERSION()":"ffa1ad74","allowance(address,address)":"dd62ed3e","approve(address,uint256)":"095ea7b3","balanceOf(address)":"70a08231","blacklist(address)":"f9f92be4","blacklistEnabled()":"bffb691d","burn(uint256)":"42966c68","burnFrom(address,uint256)":"79cc6790","claimRefund()":"b5545a3c","contribute()":"d7bb99ba","contributions(address)":"42e94c90","contributors(uint256)":"3cb5d100","createVestingSchedule(address,uint256,uint256,uint256,uint256,bool)":"aaad9321","decimals()":"313ce567","decreaseAllowance(address,uint256)":"a457c2d7","finalize()":"4bb278f3","finalizePresale()":"a0a6e940","getContributorCount()":"253da8bd","getContributorInfo(address)":"0bce8cdf","getContributors()":"af157c19","getUserCount()":"b5cb15f7","getUsers()":"00ce8e3e","getVestingSchedule(address)":"9f829063","getVestingStatus(address)":"a52e4e8c","hasVestingSchedule(address)":"b4a38893","increaseAllowance(address,uint256)":"39509351","initialize((string,string,uint256,uint256,address,bool,bool,uint256,uint256,uint256,uint256,uint256,uint256,uint256,uint256,uint256,uint256,(address,uint256,bool,uint256,uint256,uint256)[]))":"a18ef321","isContributor(address)":"1d0d35f5","isUser(address)":"4209fff1","maxSupply()":"d5abeb01","name()":"06fdde03","owner()":"8da5cb5b","participateInPresale()":"caa07a0c","paused()":"5c975abb","presaleContributorTokens(address)":"488dc57d","presaleInfo()":"2edf0869","proxiableUUID()":"52d1902d","releaseVestedTokens()":"54dd1da4","renounceOwnership()":"715018a6","revokeVesting(address)":"3b0da260","setTimeLock(address,uint256)":"644fab74","symbol()":"95d89b41","timeLockEnabled()":"cba4cbd3","timeLocks(address)":"7f76b223","totalPresaleTokensDistributed()":"4afa0042","totalSupply()":"18160ddd","transfer(address,uint256)":"a9059cbb","transferFrom(address,address,uint256)":"23b872dd","transferOwnership(address)":"f2fde38b","updateBlacklist(address[],bool)":"bb0e69e8","updateWhitelist(address[],bool)":"aff177ca","upgradeTo(address)":"3659cfe6","upgradeToAndCall(address,bytes)":"4f1ef286","userCount()":"07973ccf","users(uint256)":"365b98b2","vestingSchedules(address)":"fdb20ccb","whitelist(address)":"9b19251a"}},"storageLayout":{"storage":[{"astId":505,"contract":"src/contracts/TokenTemplate_v3.sol:TokenTemplate_v3","label":"_initialized","offset":0,"slot":"0","type":"t_uint8"},{"astId":508,"contract":"src/contracts/TokenTemplate_v3.sol:TokenTemplate_v3","label":"_initializing","offset":1,"slot":"0","type":"t_bool"},{"astId":2239,"contract":"src/contracts/TokenTemplate_v3.sol:TokenTemplate_v3","label":"__gap","offset":0,"slot":"1","type":"t_array(t_uint256)50_storage"},{"astId":1037,"contract":"src/contracts/TokenTemplate_v3.sol:TokenTemplate_v3","label":"_balances","offset":0,"slot":"51","type":"t_mapping(t_address,t_uint256)"},{"astId":1043,"contract":"src/contracts/TokenTemplate_v3.sol:TokenTemplate_v3","label":"_allowances","offset":0,"slot":"52","type":"t_mapping(t_address,t_mapping(t_address,t_uint256))"},{"astId":1045,"contract":"src/contracts/TokenTemplate_v3.sol:TokenTemplate_v3","label":"_totalSupply","offset":0,"slot":"53","type":"t_uint256"},{"astId":1047,"contract":"src/contracts/TokenTemplate_v3.sol:TokenTemplate_v3","label":"_name","offset":0,"slot":"54","type":"t_string_storage"},{"astId":1049,"contract":"src/contracts/TokenTemplate_v3.sol:TokenTemplate_v3","label":"_symbol","offset":0,"slot":"55","type":"t_string_storage"},{"astId":1629,"contract":"src/contracts/TokenTemplate_v3.sol:TokenTemplate_v3","label":"__gap","offset":0,"slot":"56","type":"t_array(t_uint256)45_storage"},{"astId":1772,"contract":"src/contracts/TokenTemplate_v3.sol:TokenTemplate_v3","label":"__gap","offset":0,"slot":"101","type":"t_array(t_uint256)50_storage"},{"astId":826,"contract":"src/contracts/TokenTemplate_v3.sol:TokenTemplate_v3","label":"_paused","offset":0,"slot":"151","type":"t_bool"},{"astId":931,"contract":"src/contracts/TokenTemplate_v3.sol:TokenTemplate_v3","label":"__gap","offset":0,"slot":"152","type":"t_array(t_uint256)49_storage"},{"astId":1833,"contract":"src/contracts/TokenTemplate_v3.sol:TokenTemplate_v3","label":"__gap","offset":0,"slot":"201","type":"t_array(t_uint256)50_storage"},{"astId":11,"contract":"src/contracts/TokenTemplate_v3.sol:TokenTemplate_v3","label":"_owner","offset":0,"slot":"251","type":"t_address"},{"astId":131,"contract":"src/contracts/TokenTemplate_v3.sol:TokenTemplate_v3","label":"__gap","offset":0,"slot":"252","type":"t_array(t_uint256)49_storage"},{"astId":487,"contract":"src/contracts/TokenTemplate_v3.sol:TokenTemplate_v3","label":"__gap","offset":0,"slot":"301","type":"t_array(t_uint256)50_storage"},{"astId":803,"contract":"src/contracts/TokenTemplate_v3.sol:TokenTemplate_v3","label":"__gap","offset":0,"slot":"351","type":"t_array(t_uint256)50_storage"},{"astId":947,"contract":"src/contracts/TokenTemplate_v3.sol:TokenTemplate_v3","label":"_status","offset":0,"slot":"401","type":"t_uint256"},{"astId":1016,"contract":"src/contracts/TokenTemplate_v3.sol:TokenTemplate_v3","label":"__gap","offset":0,"slot":"402","type":"t_array(t_uint256)49_storage"},{"astId":3760,"contract":"src/contracts/TokenTemplate_v3.sol:TokenTemplate_v3","label":"isUser","offset":0,"slot":"451","type":"t_mapping(t_address,t_bool)"},{"astId":3763,"contract":"src/contracts/TokenTemplate_v3.sol:TokenTemplate_v3","label":"users","offset":0,"slot":"452","type":"t_array(t_address)dyn_storage"},{"astId":3765,"contract":"src/contracts/TokenTemplate_v3.sol:TokenTemplate_v3","label":"userCount","offset":0,"slot":"453","type":"t_uint256"},{"astId":3789,"contract":"src/contracts/TokenTemplate_v3.sol:TokenTemplate_v3","label":"presaleInfo","offset":0,"slot":"454","type":"t_struct(PresaleInfo)3786_storage"},{"astId":3793,"contract":"src/contracts/TokenTemplate_v3.sol:TokenTemplate_v3","label":"whitelist","offset":0,"slot":"463","type":"t_mapping(t_address,t_bool)"},{"astId":3797,"contract":"src/contracts/TokenTemplate_v3.sol:TokenTemplate_v3","label":"contributions","offset":0,"slot":"464","type":"t_mapping(t_address,t_uint256)"},{"astId":3799,"contract":"src/contracts/TokenTemplate_v3.sol:TokenTemplate_v3","label":"maxSupply","offset":0,"slot":"465","type":"t_uint256"},{"astId":3801,"contract":"src/contracts/TokenTemplate_v3.sol:TokenTemplate_v3","label":"blacklistEnabled","offset":0,"slot":"466","type":"t_bool"},{"astId":3803,"contract":"src/contracts/TokenTemplate_v3.sol:TokenTemplate_v3","label":"timeLockEnabled","offset":1,"slot":"466","type":"t_bool"},{"astId":3807,"contract":"src/contracts/TokenTemplate_v3.sol:TokenTemplate_v3","label":"blacklist","offset":0,"slot":"467","type":"t_mapping(t_address,t_bool)"},{"astId":3811,"contract":"src/contracts/TokenTemplate_v3.sol:TokenTemplate_v3","label":"timeLocks","offset":0,"slot":"468","type":"t_mapping(t_address,t_uint256)"},{"astId":3814,"contract":"src/contracts/TokenTemplate_v3.sol:TokenTemplate_v3","label":"contributors","offset":0,"slot":"469","type":"t_array(t_address)dyn_storage"},{"astId":3818,"contract":"src/contracts/TokenTemplate_v3.sol:TokenTemplate_v3","label":"isContributor","offset":0,"slot":"470","type":"t_mapping(t_address,t_bool)"},{"astId":3822,"contract":"src/contracts/TokenTemplate_v3.sol:TokenTemplate_v3","label":"presaleContributorTokens","offset":0,"slot":"471","type":"t_mapping(t_address,t_uint256)"},{"astId":3824,"contract":"src/contracts/TokenTemplate_v3.sol:TokenTemplate_v3","label":"totalPresaleTokensDistributed","offset":0,"slot":"472","type":"t_uint256"},{"astId":3844,"contract":"src/contracts/TokenTemplate_v3.sol:TokenTemplate_v3","label":"vestingSchedules","offset":0,"slot":"473","type":"t_mapping(t_address,t_struct(VestingSchedule)3839_storage)"},{"astId":3848,"contract":"src/contracts/TokenTemplate_v3.sol:TokenTemplate_v3","label":"hasVestingSchedule","offset":0,"slot":"474","type":"t_mapping(t_address,t_bool)"},{"astId":3850,"contract":"src/contracts/TokenTemplate_v3.sol:TokenTemplate_v3","label":"_totalVesting","offset":0,"slot":"475","type":"t_uint256"}],"types":{"t_address":{"encoding":"inplace","label":"address","numberOfBytes":"20"},"t_array(t_address)dyn_storage":{"base":"t_address","encoding":"dynamic_array","label":"address[]","numberOfBytes":"32"},"t_array(t_uint256)45_storage":{"base":"t_uint256","encoding":"inplace","label":"uint256[45]","numberOfBytes":"1440"},"t_array(t_uint256)49_storage":{"base":"t_uint256","encoding":"inplace","label":"uint256[49]","numberOfBytes":"1568"},"t_array(t_uint256)50_storage":{"base":"t_uint256","encoding":"inplace","label":"uint256[50]","numberOfBytes":"1600"},"t_bool":{"encoding":"inplace","label":"bool","numberOfBytes":"1"},"t_mapping(t_address,t_bool)":{"encoding":"mapping","key":"t_address","label":"mapping(address => bool)","numberOfBytes":"32","value":"t_bool"},"t_mapping(t_address,t_mapping(t_address,t_uint256))":{"encoding":"mapping","key":"t_address","label":"mapping(address => mapping(address => uint256))","numberOfBytes":"32","value":"t_mapping(t_address,t_uint256)"},"t_mapping(t_address,t_struct(VestingSchedule)3839_storage)":{"encoding":"mapping","key":"t_address","label":"mapping(address => struct TokenTemplate_v3.VestingSchedule)","numberOfBytes":"32","value":"t_struct(VestingSchedule)3839_storage"},"t_mapping(t_address,t_uint256)":{"encoding":"mapping","key":"t_address","label":"mapping(address => uint256)","numberOfBytes":"32","value":"t_uint256"},"t_string_storage":{"encoding":"bytes","label":"string","numberOfBytes":"32"},"t_struct(PresaleInfo)3786_storage":{"encoding":"inplace","label":"struct TokenTemplate_v3.PresaleInfo","members":[{"astId":3767,"contract":"src/contracts/TokenTemplate_v3.sol:TokenTemplate_v3","label":"softCap","offset":0,"slot":"0","type":"t_uint256"},{"astId":3769,"contract":"src/contracts/TokenTemplate_v3.sol:TokenTemplate_v3","label":"hardCap","offset":0,"slot":"1","type":"t_uint256"},{"astId":3771,"contract":"src/contracts/TokenTemplate_v3.sol:TokenTemplate_v3","label":"minContribution","offset":0,"slot":"2","type":"t_uint256"},{"astId":3773,"contract":"src/contracts/TokenTemplate_v3.sol:TokenTemplate_v3","label":"maxContribution","offset":0,"slot":"3","type":"t_uint256"},{"astId":3775,"contract":"src/contracts/TokenTemplate_v3.sol:TokenTemplate_v3","label":"startTime","offset":0,"slot":"4","type":"t_uint256"},{"astId":3777,"contract":"src/contracts/TokenTemplate_v3.sol:TokenTemplate_v3","label":"endTime","offset":0,"slot":"5","type":"t_uint256"},{"astId":3779,"contract":"src/contracts/TokenTemplate_v3.sol:TokenTemplate_v3","label":"presaleRate","offset":0,"slot":"6","type":"t_uint256"},{"astId":3781,"contract":"src/contracts/TokenTemplate_v3.sol:TokenTemplate_v3","label":"whitelistEnabled","offset":0,"slot":"7","type":"t_bool"},{"astId":3783,"contract":"src/contracts/TokenTemplate_v3.sol:TokenTemplate_v3","label":"finalized","offset":1,"slot":"7","type":"t_bool"},{"astId":3785,"contract":"src/contracts/TokenTemplate_v3.sol:TokenTemplate_v3","label":"totalContributed","offset":0,"slot":"8","type":"t_uint256"}],"numberOfBytes":"288"},"t_struct(VestingSchedule)3839_storage":{"encoding":"inplace","label":"struct TokenTemplate_v3.VestingSchedule","members":[{"astId":3826,"contract":"src/contracts/TokenTemplate_v3.sol:TokenTemplate_v3","label":"totalAmount","offset":0,"slot":"0","type":"t_uint256"},{"astId":3828,"contract":"src/contracts/TokenTemplate_v3.sol:TokenTemplate_v3","label":"startTime","offset":0,"slot":"1","type":"t_uint256"},{"astId":3830,"contract":"src/contracts/TokenTemplate_v3.sol:TokenTemplate_v3","label":"cliffDuration","offset":0,"slot":"2","type":"t_uint256"},{"astId":3832,"contract":"src/contracts/TokenTemplate_v3.sol:TokenTemplate_v3","label":"vestingDuration","offset":0,"slot":"3","type":"t_uint256"},{"astId":3834,"contract":"src/contracts/TokenTemplate_v3.sol:TokenTemplate_v3","label":"releasedAmount","offset":0,"slot":"4","type":"t_uint256"},{"astId":3836,"contract":"src/contracts/TokenTemplate_v3.sol:TokenTemplate_v3","label":"revocable","offset":0,"slot":"5","type":"t_bool"},{"astId":3838,"contract":"src/contracts/TokenTemplate_v3.sol:TokenTemplate_v3","label":"revoked","offset":1,"slot":"5","type":"t_bool"}],"numberOfBytes":"192"},"t_uint256":{"encoding":"inplace","label":"uint256","numberOfBytes":"32"},"t_uint8":{"encoding":"inplace","label":"uint8","numberOfBytes":"1"}}},"userdoc":{"kind":"user","methods":{},"version":1}}}}