{"src/contracts/V4DistributionModule.sol":{"V4DistributionModule":{"abi":[{"inputs":[],"stateMutability":"nonpayable","type":"constructor"},{"anonymous":false,"inputs":[{"indexed":true,"internalType":"address","name":"wallet","type":"address"},{"indexed":false,"internalType":"uint256","name":"amount","type":"uint256"},{"indexed":false,"internalType":"string","name":"label","type":"string"},{"indexed":false,"internalType":"bool","name":"locked","type":"bool"},{"indexed":false,"internalType":"uint256","name":"unlockTime","type":"uint256"}],"name":"AllocationAdded","type":"event"},{"anonymous":false,"inputs":[{"indexed":true,"internalType":"address","name":"wallet","type":"address"},{"indexed":false,"internalType":"uint256","name":"amount","type":"uint256"},{"indexed":false,"internalType":"string","name":"label","type":"string"},{"indexed":false,"internalType":"bool","name":"locked","type":"bool"},{"indexed":false,"internalType":"uint256","name":"unlockTime","type":"uint256"}],"name":"AllocationModified","type":"event"},{"anonymous":false,"inputs":[{"indexed":true,"internalType":"address","name":"wallet","type":"address"}],"name":"AllocationRemoved","type":"event"},{"anonymous":false,"inputs":[{"indexed":false,"internalType":"uint256","name":"totalDistributed","type":"uint256"},{"indexed":false,"internalType":"uint256","name":"walletCount","type":"uint256"}],"name":"DistributionExecuted","type":"event"},{"anonymous":false,"inputs":[{"indexed":false,"internalType":"uint8","name":"version","type":"uint8"}],"name":"Initialized","type":"event"},{"anonymous":false,"inputs":[{"indexed":true,"internalType":"address","name":"previousOwner","type":"address"},{"indexed":true,"internalType":"address","name":"newOwner","type":"address"}],"name":"OwnershipTransferred","type":"event"},{"anonymous":false,"inputs":[{"indexed":true,"internalType":"address","name":"wallet","type":"address"},{"indexed":false,"internalType":"uint256","name":"amount","type":"uint256"}],"name":"TokensUnlocked","type":"event"},{"inputs":[],"name":"VERSION","outputs":[{"internalType":"string","name":"","type":"string"}],"stateMutability":"view","type":"function"},{"inputs":[{"internalType":"address","name":"wallet","type":"address"},{"internalType":"uint256","name":"amount","type":"uint256"},{"internalType":"string","name":"label","type":"string"},{"internalType":"bool","name":"locked","type":"bool"},{"internalType":"uint256","name":"unlockTime","type":"uint256"}],"name":"addAllocation","outputs":[{"internalType":"bool","name":"success","type":"bool"}],"stateMutability":"nonpayable","type":"function"},{"inputs":[{"internalType":"address[]","name":"wallets","type":"address[]"},{"internalType":"uint256[]","name":"amounts","type":"uint256[]"},{"internalType":"string[]","name":"labels","type":"string[]"},{"internalType":"bool[]","name":"lockStatus","type":"bool[]"},{"internalType":"uint256[]","name":"unlockTimes","type":"uint256[]"}],"name":"addMultipleAllocations","outputs":[{"internalType":"bool","name":"success","type":"bool"}],"stateMutability":"nonpayable","type":"function"},{"inputs":[],"name":"executeDistribution","outputs":[{"internalType":"bool","name":"success","type":"bool"}],"stateMutability":"nonpayable","type":"function"},{"inputs":[],"name":"getAllAllocations","outputs":[{"components":[{"internalType":"address","name":"wallet","type":"address"},{"internalType":"uint256","name":"amount","type":"uint256"},{"internalType":"string","name":"label","type":"string"},{"internalType":"bool","name":"locked","type":"bool"},{"internalType":"uint256","name":"unlockTime","type":"uint256"}],"internalType":"struct IV4DistributionModule.Allocation[]","name":"allocations","type":"tuple[]"}],"stateMutability":"view","type":"function"},{"inputs":[{"internalType":"address","name":"wallet","type":"address"}],"name":"getAllocation","outputs":[{"components":[{"internalType":"address","name":"wallet","type":"address"},{"internalType":"uint256","name":"amount","type":"uint256"},{"internalType":"string","name":"label","type":"string"},{"internalType":"bool","name":"locked","type":"bool"},{"internalType":"uint256","name":"unlockTime","type":"uint256"}],"internalType":"struct IV4DistributionModule.Allocation","name":"allocation","type":"tuple"}],"stateMutability":"view","type":"function"},{"inputs":[],"name":"getModuleType","outputs":[{"internalType":"bytes32","name":"moduleType","type":"bytes32"}],"stateMutability":"pure","type":"function"},{"inputs":[],"name":"getToken","outputs":[{"internalType":"address","name":"tokenAddress","type":"address"}],"stateMutability":"view","type":"function"},{"inputs":[{"internalType":"address","name":"tokenAddress","type":"address"},{"internalType":"bytes","name":"data","type":"bytes"}],"name":"initialize","outputs":[],"stateMutability":"nonpayable","type":"function"},{"inputs":[{"internalType":"address","name":"wallet","type":"address"},{"internalType":"uint256","name":"amount","type":"uint256"},{"internalType":"string","name":"label","type":"string"},{"internalType":"bool","name":"locked","type":"bool"},{"internalType":"uint256","name":"unlockTime","type":"uint256"}],"name":"modifyAllocation","outputs":[{"internalType":"bool","name":"success","type":"bool"}],"stateMutability":"nonpayable","type":"function"},{"inputs":[],"name":"owner","outputs":[{"internalType":"address","name":"","type":"address"}],"stateMutability":"view","type":"function"},{"inputs":[{"internalType":"address","name":"wallet","type":"address"}],"name":"removeAllocation","outputs":[{"internalType":"bool","name":"success","type":"bool"}],"stateMutability":"nonpayable","type":"function"},{"inputs":[],"name":"renounceOwnership","outputs":[],"stateMutability":"nonpayable","type":"function"},{"inputs":[{"internalType":"bytes4","name":"functionSig","type":"bytes4"}],"name":"supportsFunction","outputs":[{"internalType":"bool","name":"hasFunction","type":"bool"}],"stateMutability":"pure","type":"function"},{"inputs":[{"internalType":"address","name":"newOwner","type":"address"}],"name":"transferOwnership","outputs":[],"stateMutability":"nonpayable","type":"function"},{"inputs":[{"internalType":"address","name":"wallet","type":"address"}],"name":"unlockTokens","outputs":[{"internalType":"bool","name":"success","type":"bool"}],"stateMutability":"nonpayable","type":"function"}],"devdoc":{"details":"Implementation of distribution module with allocation capabilities","events":{"Initialized(uint8)":{"details":"Triggered when the contract has been initialized or reinitialized."}},"kind":"dev","methods":{"addAllocation(address,uint256,string,bool,uint256)":{"details":"Add a new allocation","params":{"amount":"Amount of tokens to allocate","label":"Optional label for this allocation (e.g. \"Team\", \"Marketing\")","locked":"Whether the allocation should be time-locked","unlockTime":"Timestamp when tokens become unlocked (0 if not locked)","wallet":"Recipient wallet address"},"returns":{"success":"Whether the allocation was successfully added"}},"addMultipleAllocations(address[],uint256[],string[],bool[],uint256[])":{"details":"Add multiple allocations at once","params":{"amounts":"Array of token amounts","labels":"Array of labels","lockStatus":"Array of lock statuses","unlockTimes":"Array of unlock times","wallets":"Array of recipient wallet addresses"},"returns":{"success":"Whether all allocations were successfully added"}},"constructor":{"details":"Constructor that disables initialization on the implementation contract"},"executeDistribution()":{"details":"Execute the distribution","returns":{"success":"Whether the distribution was successfully executed"}},"getAllAllocations()":{"details":"Get all allocations","returns":{"allocations":"Array of allocation details"}},"getAllocation(address)":{"details":"Get allocation for a specific wallet","params":{"wallet":"Recipient wallet address"},"returns":{"allocation":"The allocation details"}},"getModuleType()":{"details":"Get the type of this module","returns":{"moduleType":"Type identifier for this module"}},"getToken()":{"details":"Get the token this module is attached to","returns":{"tokenAddress":"Address of the token"}},"initialize(address,bytes)":{"details":"Initialize the module","params":{"data":"Additional initialization data (owner address)","tokenAddress":"Address of the token this module is attached to"}},"modifyAllocation(address,uint256,string,bool,uint256)":{"details":"Modify an existing allocation","params":{"amount":"New amount of tokens","label":"New label","locked":"New lock status","unlockTime":"New unlock time","wallet":"Recipient wallet address"},"returns":{"success":"Whether the allocation was successfully modified"}},"owner()":{"details":"Returns the address of the current owner."},"removeAllocation(address)":{"details":"Remove an allocation","params":{"wallet":"Recipient wallet address to remove"},"returns":{"success":"Whether the allocation was successfully removed"}},"renounceOwnership()":{"details":"Leaves the contract without owner. It will not be possible to call `onlyOwner` functions. Can only be called by the current owner. NOTE: Renouncing ownership will leave the contract without an owner, thereby disabling any functionality that is only available to the owner."},"supportsFunction(bytes4)":{"details":"Check if this module has a specific function","params":{"functionSig":"Function signature to check for"},"returns":{"hasFunction":"Whether the module implements the function"}},"transferOwnership(address)":{"details":"Transfers ownership of the contract to a new account (`newOwner`). Can only be called by the current owner."},"unlockTokens(address)":{"details":"Unlock tokens for a wallet if the unlock time has passed","params":{"wallet":"Address of the wallet to unlock tokens for"},"returns":{"success":"Whether the tokens were successfully unlocked"}}},"title":"V4DistributionModule","version":1},"evm":{"bytecode":{"linkReferences":{},"object":"608080604052346100c1576000549060ff8260081c1661006f575060ff80821603610034575b60405161244190816100c78239f35b60ff90811916176000557f7f26b83ff96e1f2b6a682f133852f6798a09c465da95921460cefb3847402498602060405160ff8152a138610025565b62461bcd60e51b815260206004820152602760248201527f496e697469616c697a61626c653a20636f6e747261637420697320696e697469604482015266616c697a696e6760c81b6064820152608490fd5b600080fdfe61022080604052600436101561001457600080fd5b60003560e01c9081630b9349b914611a95575080630e022923146119565780631ca00f621461176857806321df0da71461173f578063715018a6146116e2578063862c19c8146114365780638da5cb5b1461140d578063a8a4b4c014611123578063be4644641461103a578063c58156e014610f19578063cb67f94814610c71578063cc6becc814610686578063d1f5789414610415578063f2fde38b14610386578063ff0ed114146101475763ffa1ad74146100d057600080fd5b346101425760003660031901126101425760405160408101908082106001600160401b0383111761012c576101289160405260058152640342e302e360dc1b6020820152604051918291602083526020830190611b07565b0390f35b634e487b7160e01b600052604160045260246000fd5b600080fd5b3461014257600036600319011261014257610160612167565b606a5460ff9061017360ff821615611d90565b606654918215610326576001809260ff191617606a5560005b8381106101d1577f219b165c65b7e1a5744d1a2543bb34326ac29d73e03bdac1abc7290ccd6c26106040856069549082519182526020820152a1602060405160018152f35b806000846101df8294612268565b9054600391821b1c6001600160a01b0390811680855260686020908152604086209384015490939190891686146102b65750909201546040516340c10f1960e01b92810192909252306024830152604482015261026e9161024d82606481015b03601f198101845283611c43565b606554169060405195868094819362ac0f6f60e71b83528560048401612145565b03925af19182156102aa578492610288575b505b0161018c565b6102a4903d806000833e61029c8183611c43565b8101906120d3565b50610280565b6040513d6000823e3d90fd5b9301546040516340c10f1960e01b938101939093526001600160a01b03909316602483015260448201929092526102f49161024d826064810161023f565b03925af19182156102aa57849261030c575b50610282565b610320903d806000833e61029c8183611c43565b50610306565b60405162461bcd60e51b815260206004820152603260248201527f5634446973747269627574696f6e4d6f64756c653a206e6f20616c6c6f636174604482015271696f6e7320746f206469737472696275746560701b6064820152608490fd5b346101425760203660031901126101425761039f611ace565b6103a7612167565b6001600160a01b038116156103c1576103bf906121bf565b005b60405162461bcd60e51b815260206004820152602660248201527f4f776e61626c653a206e6577206f776e657220697320746865207a65726f206160448201526564647265737360d01b6064820152608490fd5b346101425760403660031901126101425761042e611ace565b6024356001600160401b0381116101425761044d903690600401611b74565b90916000549160ff8360081c161592838094610679575b8015610662575b156106065760ff198116600117600055836105f4575b50602093848203610595573590848110610584575b50906104cd60018060a01b0380936104be60ff60005460081c166104b981612208565b612208565b6104c7336121bf565b166121bf565b168015610524576001600160601b0360a01b60655416176065556104ed57005b7f7f26b83ff96e1f2b6a682f133852f6798a09c465da95921460cefb38474024989061ff00196000541660005560405160018152a1005b60405162461bcd60e51b815260048101849052603260248201527f5634446973747269627574696f6e4d6f64756c653a20746f6b656e20616464726044820152716573732063616e6e6f74206265207a65726f60701b6064820152608490fd5b60001990850360031b1b1684610496565b60405162461bcd60e51b815260048101869052603160248201527f5634446973747269627574696f6e4d6f64756c653a20696e76616c696420696e604482015270697469616c697a6174696f6e206461746160781b6064820152608490fd5b61ffff19166101011760005584610481565b60405162461bcd60e51b815260206004820152602e60248201527f496e697469616c697a61626c653a20636f6e747261637420697320616c72656160448201526d191e481a5b9a5d1a585b1a5e995960921b6064820152608490fd5b50303b15801561046b5750600160ff82161461046b565b50600160ff821610610464565b346101425760a0366003190112610142576004356001600160401b038111610142576106b6903690600401611bf8565b61010052610200526024356001600160401b038111610142576106dd903690600401611bf8565b610120526101c0526044356001600160401b03811161014257610704903690600401611bf8565b610140526101e0526064356001600160401b0381116101425761072b903690600401611bf8565b6101a05260c0526084356001600160401b03811161014257610751903690600401611bf8565b6101605261018052610761612167565b61077060ff606a541615611d90565b61012051610100511480610c62575b80610c53575b80610c44575b15610be85760006080525b61010051608051106107ad57602060405160018152f35b6107da60018060a01b036107d26107cd6080516101005161020051612061565b612071565b161515611df8565b6107f86107f0608051610120516101c051612061565b351515611e60565b61083561082f60018060a01b0361081b6107cd6080516101005161020051612061565b166000526067602052604060002054151590565b15611ecb565b61084f61084a6080516101a05160c051612061565b612085565b610bc5575b61086a6107cd6080516101005161020051612061565b61090a610880608051610120516101c051612061565b3591610895608051610140516101e051612092565b92906108ac61084a6080516101a05160c051612061565b936108c261084a6080516101a05160c051612061565b15610bbd576108da6080516101605161018051612061565b35935b60405160a0526108ee60a051611c28565b60018060a01b031660a05152602060a051019586523691611fa5565b91604060a051019283521515606060a0510152608060a051015260018060a01b036109416107cd6080516101005161020051612061565b16600052606860205260406000209160018060a01b0360a05151166001600160601b0360a01b845416178355516001830155519081516001600160401b03811161012c576109926002830154611d15565b601f90818111610b80575b506020908211600114610b0b5781906109ce9394600092610b00575b50508160011b916000199060031b1c19161790565b60028201555b6109f5606060a05101511515600383019060ff801983541691151516179055565b6004608060a0510151910155610a2760018060a01b03610a216107cd6080516101005161020051612061565b1661229f565b50610a3b608051610120516101c051612061565b35610a496069918254611ff3565b9055610a616107cd6080516101005161020051612061565b7f3241139af5e2a8b260ac9c371bbcd5da66ac3ce01dfc401fb973a1f174a1bc07610aef610a98608051610120516101c051612061565b3592610aad608051610140516101e051612092565b610ac561084a6080959395516101a05160c051612061565b610ad86080516101605161018051612061565b359160405195869560018060a01b03169886612016565b0390a2600160805101608052610796565b0151905084806109b9565b60028301600052602060002060e05260005b601f1983168110610b6257506001929382601f19811610610b48575b5050811b0160028201556109d4565b015160001960f88360031b161c191660e051558380610b39565b90602081819287015160e05155600160e0510160e052019101610b1d565b610bae90600285016000526020600020600584808701821c83019360208810610bb4575b01901c0190611fdc565b8461099d565b93508293610ba4565b6000936108dd565b610be3610bdb6080516101605161018051612061565b354210611f33565b610854565b60405162461bcd60e51b815260206004820152602e60248201527f5634446973747269627574696f6e4d6f64756c653a206172726179206c656e6760448201526d0e8d0e640daeae6e840dac2e8c6d60931b6064820152608490fd5b5061016051610100511461078b565b506101a0516101005114610785565b5061014051610100511461077f565b346101425760208060031936011261014257610c8b611ace565b60ff606a541615610eb8576001600160a01b0381811660008181526067602052604090205490929190610cbf901515611cab565b82600052606884526040600020600381019160ff83541615610e5c5760048201544210610e0157606554600192909201805460405163a9059cbb60e01b8982019081526001600160a01b039790971660248201526044808201929092529081529094600093849316918390610d35606482611c43565b51925af13d15610dfc573d610d4981611c64565b90610d576040519283611c43565b81526000863d92013e5b15610da357805460ff19169055546040519081527fe7b379c6c1fa169e9079c25e9143b127637eef8ec8c9d5c06ddb4ab3e1195888908390a260405160018152f35b60405162461bcd60e51b815260048101859052602b60248201527f5634446973747269627574696f6e4d6f64756c653a20746f6b656e207472616e60448201526a1cd9995c8819985a5b195960aa1b6064820152608490fd5b610d61565b60405162461bcd60e51b815260048101879052602d60248201527f5634446973747269627574696f6e4d6f64756c653a20746f6b656e732061726560448201526c081cdd1a5b1b081b1bd8dad959609a1b6064820152608490fd5b60405162461bcd60e51b815260048101879052602e60248201527f5634446973747269627574696f6e4d6f64756c653a20616c6c6f636174696f6e60448201526d081a5cc81b9bdd081b1bd8dad95960921b6064820152608490fd5b60405162461bcd60e51b815260048101839052603360248201527f5634446973747269627574696f6e4d6f64756c653a20646973747269627574696044820152721bdb881b9bdd081e595d08195e1958dd5d1959606a1b6064820152608490fd5b34610142576020366003190112610142576020610f34611ace565b610f3c612167565b610f4b60ff606a541615611d90565b6001600160a01b0316600081815260676020526040902054610f6e901515611cab565b8060005260688252610f8a600160406000200154606954612054565b6069558060005260688252600060046040822082815582600182015560028101610fb48154611d15565b9081610ffe575b50508260038201550155610fce81612321565b50604051907f85f179d4205edd87e18c80df3160316df70c87a3c515d0650c32dae6ead80afd600080a260018152f35b81601f8693116001146110155750555b8580610fbb565b908083918252611033601f8a8420940160051c840160018501611fdc565b555561100e565b346101425760203660031901126101425760043563ffffffff60e01b8116809103610142576020906310c5833960e31b8114908115611112575b8115611101575b81156110f0575b81156110df575b81156110ce575b81156110ba575b81156110a9575b506040519015158152f35b63196cff2960e31b1490508261109e565b6001623c4bbb60e21b031981149150611097565b630e02292360e01b81149150611090565b630e5007b160e11b81149150611089565b6302a292d360e61b81149150611082565b63062c0ab760e51b8114915061107b565b63198d7d9960e31b81149150611074565b346101425761113136611ba1565b9061113d959295612167565b61114c60ff606a541615611d90565b6001600160a01b038316600090815260676020526040902054611170901515611cab565b8061117c861515611e60565b6113fd575b6111b0856111ab60695460018060a01b038716600052606860205260016040600020015490612054565b611ff3565b60695580156113f55781955b604051966111c988611c28565b6001600160a01b038516885260208801878152906111e8368489611fa5565b9060408a0191825284151560608b015260808a015260018060a01b038616600052606860205260406000209160018060a01b038a51166001600160601b0360a01b845416178355516001830155519788516001600160401b03811161012c576112546002840154611d15565b601f81116113b5575b506020601f8211600114611318576112ff96959493926112bc836004946080947fa3c835fcd4d2b819d5e8f590f6b36f796e7b73652831d08cfca45f22a6d43b7b9e9f60009261130d5750508160011b916000199060031b1c19161790565b60028501555b6112e160608201511515600386019060ff801983541691151516179055565b01519101556040516001600160a01b03909516979495869586612016565b0390a2602060405160018152f35b015190508f806109b9565b6002840160005260206000209a60005b601f198416811061139d5750926001837fa3c835fcd4d2b819d5e8f590f6b36f796e7b73652831d08cfca45f22a6d43b7b9c9d6080946112ff9b9a999897600497601f19811610611384575b505050811b0160028501556112c2565b015160001960f88460031b161c191690558e8080611374565b828201518d556001909c019b60209283019201611328565b6113e590600285016000526020600020601f840160051c810191602085106113eb575b601f0160051c0190611fdc565b8a61125d565b90915081906113d8565b6000956111bc565b611408428311611f33565b611181565b34610142576000366003190112610142576033546040516001600160a01b039091168152602090f35b346101425761144436611ba1565b9061145195929395612167565b61146060ff606a541615611d90565b6001600160a01b03936114768486161515611df8565b611481861515611e60565b8161149e61082f8787166000526067602052604060002054151590565b6116d2575b81156116ca5782965b604051976114b989611c28565b868616895260208901908882526114d1368585611fa5565b9060408b0191825285151560608c015260808b01528787166000526068602052604060002091888b51166001600160601b0360a01b845416178355516001830155519889516001600160401b03811161012c576115316002840154611d15565b601f8111611695575b5060209a601f82116001146115f9576112ff97969594939261159b836004947f3241139af5e2a8b260ac9c371bbcd5da66ac3ce01dfc401fb973a1f174a1bc079e9f6080956000926115ee5750508160011b916000199060031b1c19161790565b60028501555b6115c060608201511515600386019060ff801983541691151516179055565b01519101556115d087871661229f565b506115dd89606954611ff3565b606955604051968796169886612016565b0151905038806109b9565b601f198216906002850160005260206000209160005b81811061167d5750836080937f3241139af5e2a8b260ac9c371bbcd5da66ac3ce01dfc401fb973a1f174a1bc079e9f6112ff9c9b9a9998979460049760019510611664575b505050811b0160028501556115a1565b015160001960f88460031b161c191690558f8080611654565b828f0151845560209e8f019e6001909401930161160f565b6116c490600285016000526020600020601f840160051c810191602085106113eb57601f0160051c0190611fdc565b8b61153a565b6000966114ac565b6116dd428411611f33565b6114a3565b34610142576000366003190112610142576116fb612167565b603380546001600160a01b031981169091556000906001600160a01b03167f8be0079c531659141344cd1fd0a4f28419497f9722a3daafe3b4186f6b6457e08280a3005b34610142576000366003190112610142576065546040516001600160a01b039091168152602090f35b346101425760003660031901126101425760665461178581611d4f565b6117926040519182611c43565b81815261179e82611d4f565b60209290601f19018360005b8281106119405750600084845b80831061181c57604080518581528351818701819052600092600582901b830181019186890191899085015b8287106117f05785850386f35b90919293828061180c600193603f198a82030186528851611b2c565b96019201960195929190926117e3565b61182583612268565b939060018060a01b03809154600396871b1c166000526068865260406000206040519161185183611c28565b81541682526001808201548884015260028201886040519260009280549061187882611d15565b8087529183811690811561191c57506001146118df575b505050506001959697826118aa6004959460ff940382611c43565b60408601528201541615156060840152015460808201526118cb8286611d66565b526118d68185611d66565b500191906117b7565b909192935060005282600020916000925b8284106119095750505082010188826118aa600461188f565b80548685018601529284019281016118f0565b60ff1916858801525050151560051b84019091019150899050826118aa600461188f565b611948611c7f565b8282870101520184906117aa565b346101425760208060031936011261014257611970611ace565b611978611c7f565b506001600160a01b0390811660008181526067602052604090205461199e901515611cab565b60005260688252604060002091604051916119b883611c28565b835416825260019260018101548284015260028101604051906000958154916119e083611d15565b8085529260018116908115611a745750600114611a3a575b505050611a0b8160049495960382611c43565b604085015260ff6003820154161515606085015201546080830152610128604051928284938452830190611b2c565b60009081528581209097505b828810611a6157505050938401820193611a0b8160046119f8565b8054848901870152968501968101611a46565b60ff191685880152505050151560051b810183019450611a0b8160046119f8565b3461014257600036600319011261014257807f6e4379ad5abe51b1f38d7c717558b084ca50f05c182778be47e8aa04793cfe2d60209252f35b600435906001600160a01b038216820361014257565b60005b838110611af75750506000910152565b8181015183820152602001611ae7565b90602091611b2081518092818552858086019101611ae4565b601f01601f1916010190565b9060018060a01b03825116815260208201516020820152608080611b5f604085015160a0604086015260a0850190611b07565b93606081015115156060850152015191015290565b9181601f84011215610142578235916001600160401b038311610142576020838186019501011161014257565b60a0600319820112610142576004356001600160a01b0381168103610142579160243591604435906001600160401b03821161014257611be391600401611b74565b90916064358015158103610142579060843590565b9181601f84011215610142578235916001600160401b038311610142576020808501948460051b01011161014257565b60a081019081106001600160401b0382111761012c57604052565b90601f801991011681019081106001600160401b0382111761012c57604052565b6001600160401b03811161012c57601f01601f191660200190565b60405190611c8c82611c28565b6000608083828152826020820152606060408201528260608201520152565b15611cb257565b60405162461bcd60e51b815260206004820152603560248201527f5634446973747269627574696f6e4d6f64756c653a2077616c6c657420646f6560448201527439903737ba103430bb329030b63637b1b0ba34b7b760591b6064820152608490fd5b90600182811c92168015611d45575b6020831014611d2f57565b634e487b7160e01b600052602260045260246000fd5b91607f1691611d24565b6001600160401b03811161012c5760051b60200190565b8051821015611d7a5760209160051b010190565b634e487b7160e01b600052603260045260246000fd5b15611d9757565b60405162461bcd60e51b815260206004820152603360248201527f5634446973747269627574696f6e4d6f64756c653a20646973747269627574696044820152721bdb88185b1c9958591e48195e1958dd5d1959606a1b6064820152608490fd5b15611dff57565b60405162461bcd60e51b815260206004820152603360248201527f5634446973747269627574696f6e4d6f64756c653a2077616c6c65742063616e6044820152726e6f74206265207a65726f206164647265737360681b6064820152608490fd5b15611e6757565b60405162461bcd60e51b815260206004820152603660248201527f5634446973747269627574696f6e4d6f64756c653a20616d6f756e74206d7573604482015275742062652067726561746572207468616e207a65726f60501b6064820152608490fd5b15611ed257565b60405162461bcd60e51b815260206004820152603360248201527f5634446973747269627574696f6e4d6f64756c653a2077616c6c657420616c7260448201527232b0b23c903430b99030b63637b1b0ba34b7b760691b6064820152608490fd5b15611f3a57565b60405162461bcd60e51b815260206004820152603760248201527f5634446973747269627574696f6e4d6f64756c653a20756e6c6f636b2074696d60448201527f65206d75737420626520696e20746865206675747572650000000000000000006064820152608490fd5b929192611fb182611c64565b91611fbf6040519384611c43565b829481845281830111610142578281602093846000960137010152565b818110611fe7575050565b60008155600101611fdc565b9190820180921161200057565b634e487b7160e01b600052601160045260246000fd5b91928060609460a09398979698855260806020860152816080860152838501376000828285010152601f801991011682010194151560408201520152565b9190820391821161200057565b9190811015611d7a5760051b0190565b356001600160a01b03811681036101425790565b3580151581036101425790565b9190811015611d7a5760051b81013590601e19813603018212156101425701908135916001600160401b038311610142576020018236038113610142579190565b9190604083820312610142578251801515810361014257926020810151906001600160401b038211610142570181601f8201121561014257805161211681611c64565b926121246040519485611c43565b81845260208284010111610142576121429160208085019101611ae4565b90565b6001600160a01b03909116815260406020820181905261214292910190611b07565b6033546001600160a01b0316330361217b57565b606460405162461bcd60e51b815260206004820152602060248201527f4f776e61626c653a2063616c6c6572206973206e6f7420746865206f776e65726044820152fd5b603380546001600160a01b039283166001600160a01b0319821681179092559091167f8be0079c531659141344cd1fd0a4f28419497f9722a3daafe3b4186f6b6457e0600080a3565b1561220f57565b60405162461bcd60e51b815260206004820152602b60248201527f496e697469616c697a61626c653a20636f6e7472616374206973206e6f74206960448201526a6e697469616c697a696e6760a81b6064820152608490fd5b606654811015611d7a5760666000527f46501879b8ca8525e8c2fd519e2fbfcfa2ebea26501294aa02cbfcfb12e943540190600090565b60008181526067602052604081205461231c57606654680100000000000000008110156123085790826122f46122dd84600160409601606655612268565b819391549060031b91821b91600019901b19161790565b905560665492815260676020522055600190565b634e487b7160e01b82526041600452602482fd5b905090565b600081815260676020526040812054909190801561240657600019908082018181116123f257606654908382019182116123de578082036123aa575b50505060665480156123965781019061237582612268565b909182549160031b1b19169055606655815260676020526040812055600190565b634e487b7160e01b84526031600452602484fd5b6123c86123b96122dd93612268565b90549060031b1c928392612268565b905584526067602052604084205538808061235d565b634e487b7160e01b86526011600452602486fd5b634e487b7160e01b85526011600452602485fd5b50509056fea26469706673582212209fb21abd03cb4cdd256504bf010c90ab8f284cdcf1e646747c45edb882b321e364736f6c63430008160033","opcodes":"PUSH1 0x80 DUP1 PUSH1 0x40 MSTORE CALLVALUE PUSH2 0xC1 JUMPI PUSH1 0x0 SLOAD SWAP1 PUSH1 0xFF DUP3 PUSH1 0x8 SHR AND PUSH2 0x6F JUMPI POP PUSH1 0xFF DUP1 DUP3 AND SUB PUSH2 0x34 JUMPI JUMPDEST PUSH1 0x40 MLOAD PUSH2 0x2441 SWAP1 DUP2 PUSH2 0xC7 DUP3 CODECOPY RETURN JUMPDEST PUSH1 0xFF SWAP1 DUP2 NOT AND OR PUSH1 0x0 SSTORE PUSH32 0x7F26B83FF96E1F2B6A682F133852F6798A09C465DA95921460CEFB3847402498 PUSH1 0x20 PUSH1 0x40 MLOAD PUSH1 0xFF DUP2 MSTORE LOG1 CODESIZE PUSH2 0x25 JUMP JUMPDEST PUSH3 0x461BCD PUSH1 0xE5 SHL DUP2 MSTORE PUSH1 0x20 PUSH1 0x4 DUP3 ADD MSTORE PUSH1 0x27 PUSH1 0x24 DUP3 ADD MSTORE PUSH32 0x496E697469616C697A61626C653A20636F6E747261637420697320696E697469 PUSH1 0x44 DUP3 ADD MSTORE PUSH7 0x616C697A696E67 PUSH1 0xC8 SHL PUSH1 0x64 DUP3 ADD MSTORE PUSH1 0x84 SWAP1 REVERT JUMPDEST PUSH1 0x0 DUP1 REVERT INVALID PUSH2 0x220 DUP1 PUSH1 0x40 MSTORE PUSH1 0x4 CALLDATASIZE LT ISZERO PUSH2 0x14 JUMPI PUSH1 0x0 DUP1 REVERT JUMPDEST PUSH1 0x0 CALLDATALOAD PUSH1 0xE0 SHR SWAP1 DUP2 PUSH4 0xB9349B9 EQ PUSH2 0x1A95 JUMPI POP DUP1 PUSH4 0xE022923 EQ PUSH2 0x1956 JUMPI DUP1 PUSH4 0x1CA00F62 EQ PUSH2 0x1768 JUMPI DUP1 PUSH4 0x21DF0DA7 EQ PUSH2 0x173F JUMPI DUP1 PUSH4 0x715018A6 EQ PUSH2 0x16E2 JUMPI DUP1 PUSH4 0x862C19C8 EQ PUSH2 0x1436 JUMPI DUP1 PUSH4 0x8DA5CB5B EQ PUSH2 0x140D JUMPI DUP1 PUSH4 0xA8A4B4C0 EQ PUSH2 0x1123 JUMPI DUP1 PUSH4 0xBE464464 EQ PUSH2 0x103A JUMPI DUP1 PUSH4 0xC58156E0 EQ PUSH2 0xF19 JUMPI DUP1 PUSH4 0xCB67F948 EQ PUSH2 0xC71 JUMPI DUP1 PUSH4 0xCC6BECC8 EQ PUSH2 0x686 JUMPI DUP1 PUSH4 0xD1F57894 EQ PUSH2 0x415 JUMPI DUP1 PUSH4 0xF2FDE38B EQ PUSH2 0x386 JUMPI DUP1 PUSH4 0xFF0ED114 EQ PUSH2 0x147 JUMPI PUSH4 0xFFA1AD74 EQ PUSH2 0xD0 JUMPI PUSH1 0x0 DUP1 REVERT JUMPDEST CALLVALUE PUSH2 0x142 JUMPI PUSH1 0x0 CALLDATASIZE PUSH1 0x3 NOT ADD SLT PUSH2 0x142 JUMPI PUSH1 0x40 MLOAD PUSH1 0x40 DUP2 ADD SWAP1 DUP1 DUP3 LT PUSH1 0x1 PUSH1 0x1 PUSH1 0x40 SHL SUB DUP4 GT OR PUSH2 0x12C JUMPI PUSH2 0x128 SWAP2 PUSH1 0x40 MSTORE PUSH1 0x5 DUP2 MSTORE PUSH5 0x342E302E3 PUSH1 0xDC SHL PUSH1 0x20 DUP3 ADD MSTORE PUSH1 0x40 MLOAD SWAP2 DUP3 SWAP2 PUSH1 0x20 DUP4 MSTORE PUSH1 0x20 DUP4 ADD SWAP1 PUSH2 0x1B07 JUMP JUMPDEST SUB SWAP1 RETURN JUMPDEST PUSH4 0x4E487B71 PUSH1 0xE0 SHL PUSH1 0x0 MSTORE PUSH1 0x41 PUSH1 0x4 MSTORE PUSH1 0x24 PUSH1 0x0 REVERT JUMPDEST PUSH1 0x0 DUP1 REVERT JUMPDEST CALLVALUE PUSH2 0x142 JUMPI PUSH1 0x0 CALLDATASIZE PUSH1 0x3 NOT ADD SLT PUSH2 0x142 JUMPI PUSH2 0x160 PUSH2 0x2167 JUMP JUMPDEST PUSH1 0x6A SLOAD PUSH1 0xFF SWAP1 PUSH2 0x173 PUSH1 0xFF DUP3 AND ISZERO PUSH2 0x1D90 JUMP JUMPDEST PUSH1 0x66 SLOAD SWAP2 DUP3 ISZERO PUSH2 0x326 JUMPI PUSH1 0x1 DUP1 SWAP3 PUSH1 0xFF NOT AND OR PUSH1 0x6A SSTORE PUSH1 0x0 JUMPDEST DUP4 DUP2 LT PUSH2 0x1D1 JUMPI PUSH32 0x219B165C65B7E1A5744D1A2543BB34326AC29D73E03BDAC1ABC7290CCD6C2610 PUSH1 0x40 DUP6 PUSH1 0x69 SLOAD SWAP1 DUP3 MLOAD SWAP2 DUP3 MSTORE PUSH1 0x20 DUP3 ADD MSTORE LOG1 PUSH1 0x20 PUSH1 0x40 MLOAD PUSH1 0x1 DUP2 MSTORE RETURN JUMPDEST DUP1 PUSH1 0x0 DUP5 PUSH2 0x1DF DUP3 SWAP5 PUSH2 0x2268 JUMP JUMPDEST SWAP1 SLOAD PUSH1 0x3 SWAP2 DUP3 SHL SHR PUSH1 0x1 PUSH1 0x1 PUSH1 0xA0 SHL SUB SWAP1 DUP2 AND DUP1 DUP6 MSTORE PUSH1 0x68 PUSH1 0x20 SWAP1 DUP2 MSTORE PUSH1 0x40 DUP7 KECCAK256 SWAP4 DUP5 ADD SLOAD SWAP1 SWAP4 SWAP2 SWAP1 DUP10 AND DUP7 EQ PUSH2 0x2B6 JUMPI POP SWAP1 SWAP3 ADD SLOAD PUSH1 0x40 MLOAD PUSH4 0x40C10F19 PUSH1 0xE0 SHL SWAP3 DUP2 ADD SWAP3 SWAP1 SWAP3 MSTORE ADDRESS PUSH1 0x24 DUP4 ADD MSTORE PUSH1 0x44 DUP3 ADD MSTORE PUSH2 0x26E SWAP2 PUSH2 0x24D DUP3 PUSH1 0x64 DUP2 ADD JUMPDEST SUB PUSH1 0x1F NOT DUP2 ADD DUP5 MSTORE DUP4 PUSH2 0x1C43 JUMP JUMPDEST PUSH1 0x65 SLOAD AND SWAP1 PUSH1 0x40 MLOAD SWAP6 DUP7 DUP1 SWAP5 DUP2 SWAP4 PUSH3 0xAC0F6F PUSH1 0xE7 SHL DUP4 MSTORE DUP6 PUSH1 0x4 DUP5 ADD PUSH2 0x2145 JUMP JUMPDEST SUB SWAP3 GAS CALL SWAP2 DUP3 ISZERO PUSH2 0x2AA JUMPI DUP5 SWAP3 PUSH2 0x288 JUMPI JUMPDEST POP JUMPDEST ADD PUSH2 0x18C JUMP JUMPDEST PUSH2 0x2A4 SWAP1 RETURNDATASIZE DUP1 PUSH1 0x0 DUP4 RETURNDATACOPY PUSH2 0x29C DUP2 DUP4 PUSH2 0x1C43 JUMP JUMPDEST DUP2 ADD SWAP1 PUSH2 0x20D3 JUMP JUMPDEST POP PUSH2 0x280 JUMP JUMPDEST PUSH1 0x40 MLOAD RETURNDATASIZE PUSH1 0x0 DUP3 RETURNDATACOPY RETURNDATASIZE SWAP1 REVERT JUMPDEST SWAP4 ADD SLOAD PUSH1 0x40 MLOAD PUSH4 0x40C10F19 PUSH1 0xE0 SHL SWAP4 DUP2 ADD SWAP4 SWAP1 SWAP4 MSTORE PUSH1 0x1 PUSH1 0x1 PUSH1 0xA0 SHL SUB SWAP1 SWAP4 AND PUSH1 0x24 DUP4 ADD MSTORE PUSH1 0x44 DUP3 ADD SWAP3 SWAP1 SWAP3 MSTORE PUSH2 0x2F4 SWAP2 PUSH2 0x24D DUP3 PUSH1 0x64 DUP2 ADD PUSH2 0x23F JUMP JUMPDEST SUB SWAP3 GAS CALL SWAP2 DUP3 ISZERO PUSH2 0x2AA JUMPI DUP5 SWAP3 PUSH2 0x30C JUMPI JUMPDEST POP PUSH2 0x282 JUMP JUMPDEST PUSH2 0x320 SWAP1 RETURNDATASIZE DUP1 PUSH1 0x0 DUP4 RETURNDATACOPY PUSH2 0x29C DUP2 DUP4 PUSH2 0x1C43 JUMP JUMPDEST POP PUSH2 0x306 JUMP JUMPDEST PUSH1 0x40 MLOAD PUSH3 0x461BCD PUSH1 0xE5 SHL DUP2 MSTORE PUSH1 0x20 PUSH1 0x4 DUP3 ADD MSTORE PUSH1 0x32 PUSH1 0x24 DUP3 ADD MSTORE PUSH32 0x5634446973747269627574696F6E4D6F64756C653A206E6F20616C6C6F636174 PUSH1 0x44 DUP3 ADD MSTORE PUSH18 0x696F6E7320746F2064697374726962757465 PUSH1 0x70 SHL PUSH1 0x64 DUP3 ADD MSTORE PUSH1 0x84 SWAP1 REVERT JUMPDEST CALLVALUE PUSH2 0x142 JUMPI PUSH1 0x20 CALLDATASIZE PUSH1 0x3 NOT ADD SLT PUSH2 0x142 JUMPI PUSH2 0x39F PUSH2 0x1ACE JUMP JUMPDEST PUSH2 0x3A7 PUSH2 0x2167 JUMP JUMPDEST PUSH1 0x1 PUSH1 0x1 PUSH1 0xA0 SHL SUB DUP2 AND ISZERO PUSH2 0x3C1 JUMPI PUSH2 0x3BF SWAP1 PUSH2 0x21BF JUMP JUMPDEST STOP JUMPDEST PUSH1 0x40 MLOAD PUSH3 0x461BCD PUSH1 0xE5 SHL DUP2 MSTORE PUSH1 0x20 PUSH1 0x4 DUP3 ADD MSTORE PUSH1 0x26 PUSH1 0x24 DUP3 ADD MSTORE PUSH32 0x4F776E61626C653A206E6577206F776E657220697320746865207A65726F2061 PUSH1 0x44 DUP3 ADD MSTORE PUSH6 0x646472657373 PUSH1 0xD0 SHL PUSH1 0x64 DUP3 ADD MSTORE PUSH1 0x84 SWAP1 REVERT JUMPDEST CALLVALUE PUSH2 0x142 JUMPI PUSH1 0x40 CALLDATASIZE PUSH1 0x3 NOT ADD SLT PUSH2 0x142 JUMPI PUSH2 0x42E PUSH2 0x1ACE JUMP JUMPDEST PUSH1 0x24 CALLDATALOAD PUSH1 0x1 PUSH1 0x1 PUSH1 0x40 SHL SUB DUP2 GT PUSH2 0x142 JUMPI PUSH2 0x44D SWAP1 CALLDATASIZE SWAP1 PUSH1 0x4 ADD PUSH2 0x1B74 JUMP JUMPDEST SWAP1 SWAP2 PUSH1 0x0 SLOAD SWAP2 PUSH1 0xFF DUP4 PUSH1 0x8 SHR AND ISZERO SWAP3 DUP4 DUP1 SWAP5 PUSH2 0x679 JUMPI JUMPDEST DUP1 ISZERO PUSH2 0x662 JUMPI JUMPDEST ISZERO PUSH2 0x606 JUMPI PUSH1 0xFF NOT DUP2 AND PUSH1 0x1 OR PUSH1 0x0 SSTORE DUP4 PUSH2 0x5F4 JUMPI JUMPDEST POP PUSH1 0x20 SWAP4 DUP5 DUP3 SUB PUSH2 0x595 JUMPI CALLDATALOAD SWAP1 DUP5 DUP2 LT PUSH2 0x584 JUMPI JUMPDEST POP SWAP1 PUSH2 0x4CD PUSH1 0x1 DUP1 PUSH1 0xA0 SHL SUB DUP1 SWAP4 PUSH2 0x4BE PUSH1 0xFF PUSH1 0x0 SLOAD PUSH1 0x8 SHR AND PUSH2 0x4B9 DUP2 PUSH2 0x2208 JUMP JUMPDEST PUSH2 0x2208 JUMP JUMPDEST PUSH2 0x4C7 CALLER PUSH2 0x21BF JUMP JUMPDEST AND PUSH2 0x21BF JUMP JUMPDEST AND DUP1 ISZERO PUSH2 0x524 JUMPI PUSH1 0x1 PUSH1 0x1 PUSH1 0x60 SHL SUB PUSH1 0xA0 SHL PUSH1 0x65 SLOAD AND OR PUSH1 0x65 SSTORE PUSH2 0x4ED JUMPI STOP JUMPDEST PUSH32 0x7F26B83FF96E1F2B6A682F133852F6798A09C465DA95921460CEFB3847402498 SWAP1 PUSH2 0xFF00 NOT PUSH1 0x0 SLOAD AND PUSH1 0x0 SSTORE PUSH1 0x40 MLOAD PUSH1 0x1 DUP2 MSTORE LOG1 STOP JUMPDEST PUSH1 0x40 MLOAD PUSH3 0x461BCD PUSH1 0xE5 SHL DUP2 MSTORE PUSH1 0x4 DUP2 ADD DUP5 SWAP1 MSTORE PUSH1 0x32 PUSH1 0x24 DUP3 ADD MSTORE PUSH32 0x5634446973747269627574696F6E4D6F64756C653A20746F6B656E2061646472 PUSH1 0x44 DUP3 ADD MSTORE PUSH18 0x6573732063616E6E6F74206265207A65726F PUSH1 0x70 SHL PUSH1 0x64 DUP3 ADD MSTORE PUSH1 0x84 SWAP1 REVERT JUMPDEST PUSH1 0x0 NOT SWAP1 DUP6 SUB PUSH1 0x3 SHL SHL AND DUP5 PUSH2 0x496 JUMP JUMPDEST PUSH1 0x40 MLOAD PUSH3 0x461BCD PUSH1 0xE5 SHL DUP2 MSTORE PUSH1 0x4 DUP2 ADD DUP7 SWAP1 MSTORE PUSH1 0x31 PUSH1 0x24 DUP3 ADD MSTORE PUSH32 0x5634446973747269627574696F6E4D6F64756C653A20696E76616C696420696E PUSH1 0x44 DUP3 ADD MSTORE PUSH17 0x697469616C697A6174696F6E2064617461 PUSH1 0x78 SHL PUSH1 0x64 DUP3 ADD MSTORE PUSH1 0x84 SWAP1 REVERT JUMPDEST PUSH2 0xFFFF NOT AND PUSH2 0x101 OR PUSH1 0x0 SSTORE DUP5 PUSH2 0x481 JUMP JUMPDEST PUSH1 0x40 MLOAD PUSH3 0x461BCD PUSH1 0xE5 SHL DUP2 MSTORE PUSH1 0x20 PUSH1 0x4 DUP3 ADD MSTORE PUSH1 0x2E PUSH1 0x24 DUP3 ADD MSTORE PUSH32 0x496E697469616C697A61626C653A20636F6E747261637420697320616C726561 PUSH1 0x44 DUP3 ADD MSTORE PUSH14 0x191E481A5B9A5D1A585B1A5E9959 PUSH1 0x92 SHL PUSH1 0x64 DUP3 ADD MSTORE PUSH1 0x84 SWAP1 REVERT JUMPDEST POP ADDRESS EXTCODESIZE ISZERO DUP1 ISZERO PUSH2 0x46B JUMPI POP PUSH1 0x1 PUSH1 0xFF DUP3 AND EQ PUSH2 0x46B JUMP JUMPDEST POP PUSH1 0x1 PUSH1 0xFF DUP3 AND LT PUSH2 0x464 JUMP JUMPDEST CALLVALUE PUSH2 0x142 JUMPI PUSH1 0xA0 CALLDATASIZE PUSH1 0x3 NOT ADD SLT PUSH2 0x142 JUMPI PUSH1 0x4 CALLDATALOAD PUSH1 0x1 PUSH1 0x1 PUSH1 0x40 SHL SUB DUP2 GT PUSH2 0x142 JUMPI PUSH2 0x6B6 SWAP1 CALLDATASIZE SWAP1 PUSH1 0x4 ADD PUSH2 0x1BF8 JUMP JUMPDEST PUSH2 0x100 MSTORE PUSH2 0x200 MSTORE PUSH1 0x24 CALLDATALOAD PUSH1 0x1 PUSH1 0x1 PUSH1 0x40 SHL SUB DUP2 GT PUSH2 0x142 JUMPI PUSH2 0x6DD SWAP1 CALLDATASIZE SWAP1 PUSH1 0x4 ADD PUSH2 0x1BF8 JUMP JUMPDEST PUSH2 0x120 MSTORE PUSH2 0x1C0 MSTORE PUSH1 0x44 CALLDATALOAD PUSH1 0x1 PUSH1 0x1 PUSH1 0x40 SHL SUB DUP2 GT PUSH2 0x142 JUMPI PUSH2 0x704 SWAP1 CALLDATASIZE SWAP1 PUSH1 0x4 ADD PUSH2 0x1BF8 JUMP JUMPDEST PUSH2 0x140 MSTORE PUSH2 0x1E0 MSTORE PUSH1 0x64 CALLDATALOAD PUSH1 0x1 PUSH1 0x1 PUSH1 0x40 SHL SUB DUP2 GT PUSH2 0x142 JUMPI PUSH2 0x72B SWAP1 CALLDATASIZE SWAP1 PUSH1 0x4 ADD PUSH2 0x1BF8 JUMP JUMPDEST PUSH2 0x1A0 MSTORE PUSH1 0xC0 MSTORE PUSH1 0x84 CALLDATALOAD PUSH1 0x1 PUSH1 0x1 PUSH1 0x40 SHL SUB DUP2 GT PUSH2 0x142 JUMPI PUSH2 0x751 SWAP1 CALLDATASIZE SWAP1 PUSH1 0x4 ADD PUSH2 0x1BF8 JUMP JUMPDEST PUSH2 0x160 MSTORE PUSH2 0x180 MSTORE PUSH2 0x761 PUSH2 0x2167 JUMP JUMPDEST PUSH2 0x770 PUSH1 0xFF PUSH1 0x6A SLOAD AND ISZERO PUSH2 0x1D90 JUMP JUMPDEST PUSH2 0x120 MLOAD PUSH2 0x100 MLOAD EQ DUP1 PUSH2 0xC62 JUMPI JUMPDEST DUP1 PUSH2 0xC53 JUMPI JUMPDEST DUP1 PUSH2 0xC44 JUMPI JUMPDEST ISZERO PUSH2 0xBE8 JUMPI PUSH1 0x0 PUSH1 0x80 MSTORE JUMPDEST PUSH2 0x100 MLOAD PUSH1 0x80 MLOAD LT PUSH2 0x7AD JUMPI PUSH1 0x20 PUSH1 0x40 MLOAD PUSH1 0x1 DUP2 MSTORE RETURN JUMPDEST PUSH2 0x7DA PUSH1 0x1 DUP1 PUSH1 0xA0 SHL SUB PUSH2 0x7D2 PUSH2 0x7CD PUSH1 0x80 MLOAD PUSH2 0x100 MLOAD PUSH2 0x200 MLOAD PUSH2 0x2061 JUMP JUMPDEST PUSH2 0x2071 JUMP JUMPDEST AND ISZERO ISZERO PUSH2 0x1DF8 JUMP JUMPDEST PUSH2 0x7F8 PUSH2 0x7F0 PUSH1 0x80 MLOAD PUSH2 0x120 MLOAD PUSH2 0x1C0 MLOAD PUSH2 0x2061 JUMP JUMPDEST CALLDATALOAD ISZERO ISZERO PUSH2 0x1E60 JUMP JUMPDEST PUSH2 0x835 PUSH2 0x82F PUSH1 0x1 DUP1 PUSH1 0xA0 SHL SUB PUSH2 0x81B PUSH2 0x7CD PUSH1 0x80 MLOAD PUSH2 0x100 MLOAD PUSH2 0x200 MLOAD PUSH2 0x2061 JUMP JUMPDEST AND PUSH1 0x0 MSTORE PUSH1 0x67 PUSH1 0x20 MSTORE PUSH1 0x40 PUSH1 0x0 KECCAK256 SLOAD ISZERO ISZERO SWAP1 JUMP JUMPDEST ISZERO PUSH2 0x1ECB JUMP JUMPDEST PUSH2 0x84F PUSH2 0x84A PUSH1 0x80 MLOAD PUSH2 0x1A0 MLOAD PUSH1 0xC0 MLOAD PUSH2 0x2061 JUMP JUMPDEST PUSH2 0x2085 JUMP JUMPDEST PUSH2 0xBC5 JUMPI JUMPDEST PUSH2 0x86A PUSH2 0x7CD PUSH1 0x80 MLOAD PUSH2 0x100 MLOAD PUSH2 0x200 MLOAD PUSH2 0x2061 JUMP JUMPDEST PUSH2 0x90A PUSH2 0x880 PUSH1 0x80 MLOAD PUSH2 0x120 MLOAD PUSH2 0x1C0 MLOAD PUSH2 0x2061 JUMP JUMPDEST CALLDATALOAD SWAP2 PUSH2 0x895 PUSH1 0x80 MLOAD PUSH2 0x140 MLOAD PUSH2 0x1E0 MLOAD PUSH2 0x2092 JUMP JUMPDEST SWAP3 SWAP1 PUSH2 0x8AC PUSH2 0x84A PUSH1 0x80 MLOAD PUSH2 0x1A0 MLOAD PUSH1 0xC0 MLOAD PUSH2 0x2061 JUMP JUMPDEST SWAP4 PUSH2 0x8C2 PUSH2 0x84A PUSH1 0x80 MLOAD PUSH2 0x1A0 MLOAD PUSH1 0xC0 MLOAD PUSH2 0x2061 JUMP JUMPDEST ISZERO PUSH2 0xBBD JUMPI PUSH2 0x8DA PUSH1 0x80 MLOAD PUSH2 0x160 MLOAD PUSH2 0x180 MLOAD PUSH2 0x2061 JUMP JUMPDEST CALLDATALOAD SWAP4 JUMPDEST PUSH1 0x40 MLOAD PUSH1 0xA0 MSTORE PUSH2 0x8EE PUSH1 0xA0 MLOAD PUSH2 0x1C28 JUMP JUMPDEST PUSH1 0x1 DUP1 PUSH1 0xA0 SHL SUB AND PUSH1 0xA0 MLOAD MSTORE PUSH1 0x20 PUSH1 0xA0 MLOAD ADD SWAP6 DUP7 MSTORE CALLDATASIZE SWAP2 PUSH2 0x1FA5 JUMP JUMPDEST SWAP2 PUSH1 0x40 PUSH1 0xA0 MLOAD ADD SWAP3 DUP4 MSTORE ISZERO ISZERO PUSH1 0x60 PUSH1 0xA0 MLOAD ADD MSTORE PUSH1 0x80 PUSH1 0xA0 MLOAD ADD MSTORE PUSH1 0x1 DUP1 PUSH1 0xA0 SHL SUB PUSH2 0x941 PUSH2 0x7CD PUSH1 0x80 MLOAD PUSH2 0x100 MLOAD PUSH2 0x200 MLOAD PUSH2 0x2061 JUMP JUMPDEST AND PUSH1 0x0 MSTORE PUSH1 0x68 PUSH1 0x20 MSTORE PUSH1 0x40 PUSH1 0x0 KECCAK256 SWAP2 PUSH1 0x1 DUP1 PUSH1 0xA0 SHL SUB PUSH1 0xA0 MLOAD MLOAD AND PUSH1 0x1 PUSH1 0x1 PUSH1 0x60 SHL SUB PUSH1 0xA0 SHL DUP5 SLOAD AND OR DUP4 SSTORE MLOAD PUSH1 0x1 DUP4 ADD SSTORE MLOAD SWAP1 DUP2 MLOAD PUSH1 0x1 PUSH1 0x1 PUSH1 0x40 SHL SUB DUP2 GT PUSH2 0x12C JUMPI PUSH2 0x992 PUSH1 0x2 DUP4 ADD SLOAD PUSH2 0x1D15 JUMP JUMPDEST PUSH1 0x1F SWAP1 DUP2 DUP2 GT PUSH2 0xB80 JUMPI JUMPDEST POP PUSH1 0x20 SWAP1 DUP3 GT PUSH1 0x1 EQ PUSH2 0xB0B JUMPI DUP2 SWAP1 PUSH2 0x9CE SWAP4 SWAP5 PUSH1 0x0 SWAP3 PUSH2 0xB00 JUMPI JUMPDEST POP POP DUP2 PUSH1 0x1 SHL SWAP2 PUSH1 0x0 NOT SWAP1 PUSH1 0x3 SHL SHR NOT AND OR SWAP1 JUMP JUMPDEST PUSH1 0x2 DUP3 ADD SSTORE JUMPDEST PUSH2 0x9F5 PUSH1 0x60 PUSH1 0xA0 MLOAD ADD MLOAD ISZERO ISZERO PUSH1 0x3 DUP4 ADD SWAP1 PUSH1 0xFF DUP1 NOT DUP4 SLOAD AND SWAP2 ISZERO ISZERO AND OR SWAP1 SSTORE JUMP JUMPDEST PUSH1 0x4 PUSH1 0x80 PUSH1 0xA0 MLOAD ADD MLOAD SWAP2 ADD SSTORE PUSH2 0xA27 PUSH1 0x1 DUP1 PUSH1 0xA0 SHL SUB PUSH2 0xA21 PUSH2 0x7CD PUSH1 0x80 MLOAD PUSH2 0x100 MLOAD PUSH2 0x200 MLOAD PUSH2 0x2061 JUMP JUMPDEST AND PUSH2 0x229F JUMP JUMPDEST POP PUSH2 0xA3B PUSH1 0x80 MLOAD PUSH2 0x120 MLOAD PUSH2 0x1C0 MLOAD PUSH2 0x2061 JUMP JUMPDEST CALLDATALOAD PUSH2 0xA49 PUSH1 0x69 SWAP2 DUP3 SLOAD PUSH2 0x1FF3 JUMP JUMPDEST SWAP1 SSTORE PUSH2 0xA61 PUSH2 0x7CD PUSH1 0x80 MLOAD PUSH2 0x100 MLOAD PUSH2 0x200 MLOAD PUSH2 0x2061 JUMP JUMPDEST PUSH32 0x3241139AF5E2A8B260AC9C371BBCD5DA66AC3CE01DFC401FB973A1F174A1BC07 PUSH2 0xAEF PUSH2 0xA98 PUSH1 0x80 MLOAD PUSH2 0x120 MLOAD PUSH2 0x1C0 MLOAD PUSH2 0x2061 JUMP JUMPDEST CALLDATALOAD SWAP3 PUSH2 0xAAD PUSH1 0x80 MLOAD PUSH2 0x140 MLOAD PUSH2 0x1E0 MLOAD PUSH2 0x2092 JUMP JUMPDEST PUSH2 0xAC5 PUSH2 0x84A PUSH1 0x80 SWAP6 SWAP4 SWAP6 MLOAD PUSH2 0x1A0 MLOAD PUSH1 0xC0 MLOAD PUSH2 0x2061 JUMP JUMPDEST PUSH2 0xAD8 PUSH1 0x80 MLOAD PUSH2 0x160 MLOAD PUSH2 0x180 MLOAD PUSH2 0x2061 JUMP JUMPDEST CALLDATALOAD SWAP2 PUSH1 0x40 MLOAD SWAP6 DUP7 SWAP6 PUSH1 0x1 DUP1 PUSH1 0xA0 SHL SUB AND SWAP9 DUP7 PUSH2 0x2016 JUMP JUMPDEST SUB SWAP1 LOG2 PUSH1 0x1 PUSH1 0x80 MLOAD ADD PUSH1 0x80 MSTORE PUSH2 0x796 JUMP JUMPDEST ADD MLOAD SWAP1 POP DUP5 DUP1 PUSH2 0x9B9 JUMP JUMPDEST PUSH1 0x2 DUP4 ADD PUSH1 0x0 MSTORE PUSH1 0x20 PUSH1 0x0 KECCAK256 PUSH1 0xE0 MSTORE PUSH1 0x0 JUMPDEST PUSH1 0x1F NOT DUP4 AND DUP2 LT PUSH2 0xB62 JUMPI POP PUSH1 0x1 SWAP3 SWAP4 DUP3 PUSH1 0x1F NOT DUP2 AND LT PUSH2 0xB48 JUMPI JUMPDEST POP POP DUP2 SHL ADD PUSH1 0x2 DUP3 ADD SSTORE PUSH2 0x9D4 JUMP JUMPDEST ADD MLOAD PUSH1 0x0 NOT PUSH1 0xF8 DUP4 PUSH1 0x3 SHL AND SHR NOT AND PUSH1 0xE0 MLOAD SSTORE DUP4 DUP1 PUSH2 0xB39 JUMP JUMPDEST SWAP1 PUSH1 0x20 DUP2 DUP2 SWAP3 DUP8 ADD MLOAD PUSH1 0xE0 MLOAD SSTORE PUSH1 0x1 PUSH1 0xE0 MLOAD ADD PUSH1 0xE0 MSTORE ADD SWAP2 ADD PUSH2 0xB1D JUMP JUMPDEST PUSH2 0xBAE SWAP1 PUSH1 0x2 DUP6 ADD PUSH1 0x0 MSTORE PUSH1 0x20 PUSH1 0x0 KECCAK256 PUSH1 0x5 DUP5 DUP1 DUP8 ADD DUP3 SHR DUP4 ADD SWAP4 PUSH1 0x20 DUP9 LT PUSH2 0xBB4 JUMPI JUMPDEST ADD SWAP1 SHR ADD SWAP1 PUSH2 0x1FDC JUMP JUMPDEST DUP5 PUSH2 0x99D JUMP JUMPDEST SWAP4 POP DUP3 SWAP4 PUSH2 0xBA4 JUMP JUMPDEST PUSH1 0x0 SWAP4 PUSH2 0x8DD JUMP JUMPDEST PUSH2 0xBE3 PUSH2 0xBDB PUSH1 0x80 MLOAD PUSH2 0x160 MLOAD PUSH2 0x180 MLOAD PUSH2 0x2061 JUMP JUMPDEST CALLDATALOAD TIMESTAMP LT PUSH2 0x1F33 JUMP JUMPDEST PUSH2 0x854 JUMP JUMPDEST PUSH1 0x40 MLOAD PUSH3 0x461BCD PUSH1 0xE5 SHL DUP2 MSTORE PUSH1 0x20 PUSH1 0x4 DUP3 ADD MSTORE PUSH1 0x2E PUSH1 0x24 DUP3 ADD MSTORE PUSH32 0x5634446973747269627574696F6E4D6F64756C653A206172726179206C656E67 PUSH1 0x44 DUP3 ADD MSTORE PUSH14 0xE8D0E640DAEAE6E840DAC2E8C6D PUSH1 0x93 SHL PUSH1 0x64 DUP3 ADD MSTORE PUSH1 0x84 SWAP1 REVERT JUMPDEST POP PUSH2 0x160 MLOAD PUSH2 0x100 MLOAD EQ PUSH2 0x78B JUMP JUMPDEST POP PUSH2 0x1A0 MLOAD PUSH2 0x100 MLOAD EQ PUSH2 0x785 JUMP JUMPDEST POP PUSH2 0x140 MLOAD PUSH2 0x100 MLOAD EQ PUSH2 0x77F JUMP JUMPDEST CALLVALUE PUSH2 0x142 JUMPI PUSH1 0x20 DUP1 PUSH1 0x3 NOT CALLDATASIZE ADD SLT PUSH2 0x142 JUMPI PUSH2 0xC8B PUSH2 0x1ACE JUMP JUMPDEST PUSH1 0xFF PUSH1 0x6A SLOAD AND ISZERO PUSH2 0xEB8 JUMPI PUSH1 0x1 PUSH1 0x1 PUSH1 0xA0 SHL SUB DUP2 DUP2 AND PUSH1 0x0 DUP2 DUP2 MSTORE PUSH1 0x67 PUSH1 0x20 MSTORE PUSH1 0x40 SWAP1 KECCAK256 SLOAD SWAP1 SWAP3 SWAP2 SWAP1 PUSH2 0xCBF SWAP1 ISZERO ISZERO PUSH2 0x1CAB JUMP JUMPDEST DUP3 PUSH1 0x0 MSTORE PUSH1 0x68 DUP5 MSTORE PUSH1 0x40 PUSH1 0x0 KECCAK256 PUSH1 0x3 DUP2 ADD SWAP2 PUSH1 0xFF DUP4 SLOAD AND ISZERO PUSH2 0xE5C JUMPI PUSH1 0x4 DUP3 ADD SLOAD TIMESTAMP LT PUSH2 0xE01 JUMPI PUSH1 0x65 SLOAD PUSH1 0x1 SWAP3 SWAP1 SWAP3 ADD DUP1 SLOAD PUSH1 0x40 MLOAD PUSH4 0xA9059CBB PUSH1 0xE0 SHL DUP10 DUP3 ADD SWAP1 DUP2 MSTORE PUSH1 0x1 PUSH1 0x1 PUSH1 0xA0 SHL SUB SWAP8 SWAP1 SWAP8 AND PUSH1 0x24 DUP3 ADD MSTORE PUSH1 0x44 DUP1 DUP3 ADD SWAP3 SWAP1 SWAP3 MSTORE SWAP1 DUP2 MSTORE SWAP1 SWAP5 PUSH1 0x0 SWAP4 DUP5 SWAP4 AND SWAP2 DUP4 SWAP1 PUSH2 0xD35 PUSH1 0x64 DUP3 PUSH2 0x1C43 JUMP JUMPDEST MLOAD SWAP3 GAS CALL RETURNDATASIZE ISZERO PUSH2 0xDFC JUMPI RETURNDATASIZE PUSH2 0xD49 DUP2 PUSH2 0x1C64 JUMP JUMPDEST SWAP1 PUSH2 0xD57 PUSH1 0x40 MLOAD SWAP3 DUP4 PUSH2 0x1C43 JUMP JUMPDEST DUP2 MSTORE PUSH1 0x0 DUP7 RETURNDATASIZE SWAP3 ADD RETURNDATACOPY JUMPDEST ISZERO PUSH2 0xDA3 JUMPI DUP1 SLOAD PUSH1 0xFF NOT AND SWAP1 SSTORE SLOAD PUSH1 0x40 MLOAD SWAP1 DUP2 MSTORE PUSH32 0xE7B379C6C1FA169E9079C25E9143B127637EEF8EC8C9D5C06DDB4AB3E1195888 SWAP1 DUP4 SWAP1 LOG2 PUSH1 0x40 MLOAD PUSH1 0x1 DUP2 MSTORE RETURN JUMPDEST PUSH1 0x40 MLOAD PUSH3 0x461BCD PUSH1 0xE5 SHL DUP2 MSTORE PUSH1 0x4 DUP2 ADD DUP6 SWAP1 MSTORE PUSH1 0x2B PUSH1 0x24 DUP3 ADD MSTORE PUSH32 0x5634446973747269627574696F6E4D6F64756C653A20746F6B656E207472616E PUSH1 0x44 DUP3 ADD MSTORE PUSH11 0x1CD9995C8819985A5B1959 PUSH1 0xAA SHL PUSH1 0x64 DUP3 ADD MSTORE PUSH1 0x84 SWAP1 REVERT JUMPDEST PUSH2 0xD61 JUMP JUMPDEST PUSH1 0x40 MLOAD PUSH3 0x461BCD PUSH1 0xE5 SHL DUP2 MSTORE PUSH1 0x4 DUP2 ADD DUP8 SWAP1 MSTORE PUSH1 0x2D PUSH1 0x24 DUP3 ADD MSTORE PUSH32 0x5634446973747269627574696F6E4D6F64756C653A20746F6B656E7320617265 PUSH1 0x44 DUP3 ADD MSTORE PUSH13 0x81CDD1A5B1B081B1BD8DAD959 PUSH1 0x9A SHL PUSH1 0x64 DUP3 ADD MSTORE PUSH1 0x84 SWAP1 REVERT JUMPDEST PUSH1 0x40 MLOAD PUSH3 0x461BCD PUSH1 0xE5 SHL DUP2 MSTORE PUSH1 0x4 DUP2 ADD DUP8 SWAP1 MSTORE PUSH1 0x2E PUSH1 0x24 DUP3 ADD MSTORE PUSH32 0x5634446973747269627574696F6E4D6F64756C653A20616C6C6F636174696F6E PUSH1 0x44 DUP3 ADD MSTORE PUSH14 0x81A5CC81B9BDD081B1BD8DAD959 PUSH1 0x92 SHL PUSH1 0x64 DUP3 ADD MSTORE PUSH1 0x84 SWAP1 REVERT JUMPDEST PUSH1 0x40 MLOAD PUSH3 0x461BCD PUSH1 0xE5 SHL DUP2 MSTORE PUSH1 0x4 DUP2 ADD DUP4 SWAP1 MSTORE PUSH1 0x33 PUSH1 0x24 DUP3 ADD MSTORE PUSH32 0x5634446973747269627574696F6E4D6F64756C653A2064697374726962757469 PUSH1 0x44 DUP3 ADD MSTORE PUSH19 0x1BDB881B9BDD081E595D08195E1958DD5D1959 PUSH1 0x6A SHL PUSH1 0x64 DUP3 ADD MSTORE PUSH1 0x84 SWAP1 REVERT JUMPDEST CALLVALUE PUSH2 0x142 JUMPI PUSH1 0x20 CALLDATASIZE PUSH1 0x3 NOT ADD SLT PUSH2 0x142 JUMPI PUSH1 0x20 PUSH2 0xF34 PUSH2 0x1ACE JUMP JUMPDEST PUSH2 0xF3C PUSH2 0x2167 JUMP JUMPDEST PUSH2 0xF4B PUSH1 0xFF PUSH1 0x6A SLOAD AND ISZERO PUSH2 0x1D90 JUMP JUMPDEST PUSH1 0x1 PUSH1 0x1 PUSH1 0xA0 SHL SUB AND PUSH1 0x0 DUP2 DUP2 MSTORE PUSH1 0x67 PUSH1 0x20 MSTORE PUSH1 0x40 SWAP1 KECCAK256 SLOAD PUSH2 0xF6E SWAP1 ISZERO ISZERO PUSH2 0x1CAB JUMP JUMPDEST DUP1 PUSH1 0x0 MSTORE PUSH1 0x68 DUP3 MSTORE PUSH2 0xF8A PUSH1 0x1 PUSH1 0x40 PUSH1 0x0 KECCAK256 ADD SLOAD PUSH1 0x69 SLOAD PUSH2 0x2054 JUMP JUMPDEST PUSH1 0x69 SSTORE DUP1 PUSH1 0x0 MSTORE PUSH1 0x68 DUP3 MSTORE PUSH1 0x0 PUSH1 0x4 PUSH1 0x40 DUP3 KECCAK256 DUP3 DUP2 SSTORE DUP3 PUSH1 0x1 DUP3 ADD SSTORE PUSH1 0x2 DUP2 ADD PUSH2 0xFB4 DUP2 SLOAD PUSH2 0x1D15 JUMP JUMPDEST SWAP1 DUP2 PUSH2 0xFFE JUMPI JUMPDEST POP POP DUP3 PUSH1 0x3 DUP3 ADD SSTORE ADD SSTORE PUSH2 0xFCE DUP2 PUSH2 0x2321 JUMP JUMPDEST POP PUSH1 0x40 MLOAD SWAP1 PUSH32 0x85F179D4205EDD87E18C80DF3160316DF70C87A3C515D0650C32DAE6EAD80AFD PUSH1 0x0 DUP1 LOG2 PUSH1 0x1 DUP2 MSTORE RETURN JUMPDEST DUP2 PUSH1 0x1F DUP7 SWAP4 GT PUSH1 0x1 EQ PUSH2 0x1015 JUMPI POP SSTORE JUMPDEST DUP6 DUP1 PUSH2 0xFBB JUMP JUMPDEST SWAP1 DUP1 DUP4 SWAP2 DUP3 MSTORE PUSH2 0x1033 PUSH1 0x1F DUP11 DUP5 KECCAK256 SWAP5 ADD PUSH1 0x5 SHR DUP5 ADD PUSH1 0x1 DUP6 ADD PUSH2 0x1FDC JUMP JUMPDEST SSTORE SSTORE PUSH2 0x100E JUMP JUMPDEST CALLVALUE PUSH2 0x142 JUMPI PUSH1 0x20 CALLDATASIZE PUSH1 0x3 NOT ADD SLT PUSH2 0x142 JUMPI PUSH1 0x4 CALLDATALOAD PUSH4 0xFFFFFFFF PUSH1 0xE0 SHL DUP2 AND DUP1 SWAP2 SUB PUSH2 0x142 JUMPI PUSH1 0x20 SWAP1 PUSH4 0x10C58339 PUSH1 0xE3 SHL DUP2 EQ SWAP1 DUP2 ISZERO PUSH2 0x1112 JUMPI JUMPDEST DUP2 ISZERO PUSH2 0x1101 JUMPI JUMPDEST DUP2 ISZERO PUSH2 0x10F0 JUMPI JUMPDEST DUP2 ISZERO PUSH2 0x10DF JUMPI JUMPDEST DUP2 ISZERO PUSH2 0x10CE JUMPI JUMPDEST DUP2 ISZERO PUSH2 0x10BA JUMPI JUMPDEST DUP2 ISZERO PUSH2 0x10A9 JUMPI JUMPDEST POP PUSH1 0x40 MLOAD SWAP1 ISZERO ISZERO DUP2 MSTORE RETURN JUMPDEST PUSH4 0x196CFF29 PUSH1 0xE3 SHL EQ SWAP1 POP DUP3 PUSH2 0x109E JUMP JUMPDEST PUSH1 0x1 PUSH3 0x3C4BBB PUSH1 0xE2 SHL SUB NOT DUP2 EQ SWAP2 POP PUSH2 0x1097 JUMP JUMPDEST PUSH4 0xE022923 PUSH1 0xE0 SHL DUP2 EQ SWAP2 POP PUSH2 0x1090 JUMP JUMPDEST PUSH4 0xE5007B1 PUSH1 0xE1 SHL DUP2 EQ SWAP2 POP PUSH2 0x1089 JUMP JUMPDEST PUSH4 0x2A292D3 PUSH1 0xE6 SHL DUP2 EQ SWAP2 POP PUSH2 0x1082 JUMP JUMPDEST PUSH4 0x62C0AB7 PUSH1 0xE5 SHL DUP2 EQ SWAP2 POP PUSH2 0x107B JUMP JUMPDEST PUSH4 0x198D7D99 PUSH1 0xE3 SHL DUP2 EQ SWAP2 POP PUSH2 0x1074 JUMP JUMPDEST CALLVALUE PUSH2 0x142 JUMPI PUSH2 0x1131 CALLDATASIZE PUSH2 0x1BA1 JUMP JUMPDEST SWAP1 PUSH2 0x113D SWAP6 SWAP3 SWAP6 PUSH2 0x2167 JUMP JUMPDEST PUSH2 0x114C PUSH1 0xFF PUSH1 0x6A SLOAD AND ISZERO PUSH2 0x1D90 JUMP JUMPDEST PUSH1 0x1 PUSH1 0x1 PUSH1 0xA0 SHL SUB DUP4 AND PUSH1 0x0 SWAP1 DUP2 MSTORE PUSH1 0x67 PUSH1 0x20 MSTORE PUSH1 0x40 SWAP1 KECCAK256 SLOAD PUSH2 0x1170 SWAP1 ISZERO ISZERO PUSH2 0x1CAB JUMP JUMPDEST DUP1 PUSH2 0x117C DUP7 ISZERO ISZERO PUSH2 0x1E60 JUMP JUMPDEST PUSH2 0x13FD JUMPI JUMPDEST PUSH2 0x11B0 DUP6 PUSH2 0x11AB PUSH1 0x69 SLOAD PUSH1 0x1 DUP1 PUSH1 0xA0 SHL SUB DUP8 AND PUSH1 0x0 MSTORE PUSH1 0x68 PUSH1 0x20 MSTORE PUSH1 0x1 PUSH1 0x40 PUSH1 0x0 KECCAK256 ADD SLOAD SWAP1 PUSH2 0x2054 JUMP JUMPDEST PUSH2 0x1FF3 JUMP JUMPDEST PUSH1 0x69 SSTORE DUP1 ISZERO PUSH2 0x13F5 JUMPI DUP2 SWAP6 JUMPDEST PUSH1 0x40 MLOAD SWAP7 PUSH2 0x11C9 DUP9 PUSH2 0x1C28 JUMP JUMPDEST PUSH1 0x1 PUSH1 0x1 PUSH1 0xA0 SHL SUB DUP6 AND DUP9 MSTORE PUSH1 0x20 DUP9 ADD DUP8 DUP2 MSTORE SWAP1 PUSH2 0x11E8 CALLDATASIZE DUP5 DUP10 PUSH2 0x1FA5 JUMP JUMPDEST SWAP1 PUSH1 0x40 DUP11 ADD SWAP2 DUP3 MSTORE DUP5 ISZERO ISZERO PUSH1 0x60 DUP12 ADD MSTORE PUSH1 0x80 DUP11 ADD MSTORE PUSH1 0x1 DUP1 PUSH1 0xA0 SHL SUB DUP7 AND PUSH1 0x0 MSTORE PUSH1 0x68 PUSH1 0x20 MSTORE PUSH1 0x40 PUSH1 0x0 KECCAK256 SWAP2 PUSH1 0x1 DUP1 PUSH1 0xA0 SHL SUB DUP11 MLOAD AND PUSH1 0x1 PUSH1 0x1 PUSH1 0x60 SHL SUB PUSH1 0xA0 SHL DUP5 SLOAD AND OR DUP4 SSTORE MLOAD PUSH1 0x1 DUP4 ADD SSTORE MLOAD SWAP8 DUP9 MLOAD PUSH1 0x1 PUSH1 0x1 PUSH1 0x40 SHL SUB DUP2 GT PUSH2 0x12C JUMPI PUSH2 0x1254 PUSH1 0x2 DUP5 ADD SLOAD PUSH2 0x1D15 JUMP JUMPDEST PUSH1 0x1F DUP2 GT PUSH2 0x13B5 JUMPI JUMPDEST POP PUSH1 0x20 PUSH1 0x1F DUP3 GT PUSH1 0x1 EQ PUSH2 0x1318 JUMPI PUSH2 0x12FF SWAP7 SWAP6 SWAP5 SWAP4 SWAP3 PUSH2 0x12BC DUP4 PUSH1 0x4 SWAP5 PUSH1 0x80 SWAP5 PUSH32 0xA3C835FCD4D2B819D5E8F590F6B36F796E7B73652831D08CFCA45F22A6D43B7B SWAP15 SWAP16 PUSH1 0x0 SWAP3 PUSH2 0x130D JUMPI POP POP DUP2 PUSH1 0x1 SHL SWAP2 PUSH1 0x0 NOT SWAP1 PUSH1 0x3 SHL SHR NOT AND OR SWAP1 JUMP JUMPDEST PUSH1 0x2 DUP6 ADD SSTORE JUMPDEST PUSH2 0x12E1 PUSH1 0x60 DUP3 ADD MLOAD ISZERO ISZERO PUSH1 0x3 DUP7 ADD SWAP1 PUSH1 0xFF DUP1 NOT DUP4 SLOAD AND SWAP2 ISZERO ISZERO AND OR SWAP1 SSTORE JUMP JUMPDEST ADD MLOAD SWAP2 ADD SSTORE PUSH1 0x40 MLOAD PUSH1 0x1 PUSH1 0x1 PUSH1 0xA0 SHL SUB SWAP1 SWAP6 AND SWAP8 SWAP5 SWAP6 DUP7 SWAP6 DUP7 PUSH2 0x2016 JUMP JUMPDEST SUB SWAP1 LOG2 PUSH1 0x20 PUSH1 0x40 MLOAD PUSH1 0x1 DUP2 MSTORE RETURN JUMPDEST ADD MLOAD SWAP1 POP DUP16 DUP1 PUSH2 0x9B9 JUMP JUMPDEST PUSH1 0x2 DUP5 ADD PUSH1 0x0 MSTORE PUSH1 0x20 PUSH1 0x0 KECCAK256 SWAP11 PUSH1 0x0 JUMPDEST PUSH1 0x1F NOT DUP5 AND DUP2 LT PUSH2 0x139D JUMPI POP SWAP3 PUSH1 0x1 DUP4 PUSH32 0xA3C835FCD4D2B819D5E8F590F6B36F796E7B73652831D08CFCA45F22A6D43B7B SWAP13 SWAP14 PUSH1 0x80 SWAP5 PUSH2 0x12FF SWAP12 SWAP11 SWAP10 SWAP9 SWAP8 PUSH1 0x4 SWAP8 PUSH1 0x1F NOT DUP2 AND LT PUSH2 0x1384 JUMPI JUMPDEST POP POP POP DUP2 SHL ADD PUSH1 0x2 DUP6 ADD SSTORE PUSH2 0x12C2 JUMP JUMPDEST ADD MLOAD PUSH1 0x0 NOT PUSH1 0xF8 DUP5 PUSH1 0x3 SHL AND SHR NOT AND SWAP1 SSTORE DUP15 DUP1 DUP1 PUSH2 0x1374 JUMP JUMPDEST DUP3 DUP3 ADD MLOAD DUP14 SSTORE PUSH1 0x1 SWAP1 SWAP13 ADD SWAP12 PUSH1 0x20 SWAP3 DUP4 ADD SWAP3 ADD PUSH2 0x1328 JUMP JUMPDEST PUSH2 0x13E5 SWAP1 PUSH1 0x2 DUP6 ADD PUSH1 0x0 MSTORE PUSH1 0x20 PUSH1 0x0 KECCAK256 PUSH1 0x1F DUP5 ADD PUSH1 0x5 SHR DUP2 ADD SWAP2 PUSH1 0x20 DUP6 LT PUSH2 0x13EB JUMPI JUMPDEST PUSH1 0x1F ADD PUSH1 0x5 SHR ADD SWAP1 PUSH2 0x1FDC JUMP JUMPDEST DUP11 PUSH2 0x125D JUMP JUMPDEST SWAP1 SWAP2 POP DUP2 SWAP1 PUSH2 0x13D8 JUMP JUMPDEST PUSH1 0x0 SWAP6 PUSH2 0x11BC JUMP JUMPDEST PUSH2 0x1408 TIMESTAMP DUP4 GT PUSH2 0x1F33 JUMP JUMPDEST PUSH2 0x1181 JUMP JUMPDEST CALLVALUE PUSH2 0x142 JUMPI PUSH1 0x0 CALLDATASIZE PUSH1 0x3 NOT ADD SLT PUSH2 0x142 JUMPI PUSH1 0x33 SLOAD PUSH1 0x40 MLOAD PUSH1 0x1 PUSH1 0x1 PUSH1 0xA0 SHL SUB SWAP1 SWAP2 AND DUP2 MSTORE PUSH1 0x20 SWAP1 RETURN JUMPDEST CALLVALUE PUSH2 0x142 JUMPI PUSH2 0x1444 CALLDATASIZE PUSH2 0x1BA1 JUMP JUMPDEST SWAP1 PUSH2 0x1451 SWAP6 SWAP3 SWAP4 SWAP6 PUSH2 0x2167 JUMP JUMPDEST PUSH2 0x1460 PUSH1 0xFF PUSH1 0x6A SLOAD AND ISZERO PUSH2 0x1D90 JUMP JUMPDEST PUSH1 0x1 PUSH1 0x1 PUSH1 0xA0 SHL SUB SWAP4 PUSH2 0x1476 DUP5 DUP7 AND ISZERO ISZERO PUSH2 0x1DF8 JUMP JUMPDEST PUSH2 0x1481 DUP7 ISZERO ISZERO PUSH2 0x1E60 JUMP JUMPDEST DUP2 PUSH2 0x149E PUSH2 0x82F DUP8 DUP8 AND PUSH1 0x0 MSTORE PUSH1 0x67 PUSH1 0x20 MSTORE PUSH1 0x40 PUSH1 0x0 KECCAK256 SLOAD ISZERO ISZERO SWAP1 JUMP JUMPDEST PUSH2 0x16D2 JUMPI JUMPDEST DUP2 ISZERO PUSH2 0x16CA JUMPI DUP3 SWAP7 JUMPDEST PUSH1 0x40 MLOAD SWAP8 PUSH2 0x14B9 DUP10 PUSH2 0x1C28 JUMP JUMPDEST DUP7 DUP7 AND DUP10 MSTORE PUSH1 0x20 DUP10 ADD SWAP1 DUP9 DUP3 MSTORE PUSH2 0x14D1 CALLDATASIZE DUP6 DUP6 PUSH2 0x1FA5 JUMP JUMPDEST SWAP1 PUSH1 0x40 DUP12 ADD SWAP2 DUP3 MSTORE DUP6 ISZERO ISZERO PUSH1 0x60 DUP13 ADD MSTORE PUSH1 0x80 DUP12 ADD MSTORE DUP8 DUP8 AND PUSH1 0x0 MSTORE PUSH1 0x68 PUSH1 0x20 MSTORE PUSH1 0x40 PUSH1 0x0 KECCAK256 SWAP2 DUP9 DUP12 MLOAD AND PUSH1 0x1 PUSH1 0x1 PUSH1 0x60 SHL SUB PUSH1 0xA0 SHL DUP5 SLOAD AND OR DUP4 SSTORE MLOAD PUSH1 0x1 DUP4 ADD SSTORE MLOAD SWAP9 DUP10 MLOAD PUSH1 0x1 PUSH1 0x1 PUSH1 0x40 SHL SUB DUP2 GT PUSH2 0x12C JUMPI PUSH2 0x1531 PUSH1 0x2 DUP5 ADD SLOAD PUSH2 0x1D15 JUMP JUMPDEST PUSH1 0x1F DUP2 GT PUSH2 0x1695 JUMPI JUMPDEST POP PUSH1 0x20 SWAP11 PUSH1 0x1F DUP3 GT PUSH1 0x1 EQ PUSH2 0x15F9 JUMPI PUSH2 0x12FF SWAP8 SWAP7 SWAP6 SWAP5 SWAP4 SWAP3 PUSH2 0x159B DUP4 PUSH1 0x4 SWAP5 PUSH32 0x3241139AF5E2A8B260AC9C371BBCD5DA66AC3CE01DFC401FB973A1F174A1BC07 SWAP15 SWAP16 PUSH1 0x80 SWAP6 PUSH1 0x0 SWAP3 PUSH2 0x15EE JUMPI POP POP DUP2 PUSH1 0x1 SHL SWAP2 PUSH1 0x0 NOT SWAP1 PUSH1 0x3 SHL SHR NOT AND OR SWAP1 JUMP JUMPDEST PUSH1 0x2 DUP6 ADD SSTORE JUMPDEST PUSH2 0x15C0 PUSH1 0x60 DUP3 ADD MLOAD ISZERO ISZERO PUSH1 0x3 DUP7 ADD SWAP1 PUSH1 0xFF DUP1 NOT DUP4 SLOAD AND SWAP2 ISZERO ISZERO AND OR SWAP1 SSTORE JUMP JUMPDEST ADD MLOAD SWAP2 ADD SSTORE PUSH2 0x15D0 DUP8 DUP8 AND PUSH2 0x229F JUMP JUMPDEST POP PUSH2 0x15DD DUP10 PUSH1 0x69 SLOAD PUSH2 0x1FF3 JUMP JUMPDEST PUSH1 0x69 SSTORE PUSH1 0x40 MLOAD SWAP7 DUP8 SWAP7 AND SWAP9 DUP7 PUSH2 0x2016 JUMP JUMPDEST ADD MLOAD SWAP1 POP CODESIZE DUP1 PUSH2 0x9B9 JUMP JUMPDEST PUSH1 0x1F NOT DUP3 AND SWAP1 PUSH1 0x2 DUP6 ADD PUSH1 0x0 MSTORE PUSH1 0x20 PUSH1 0x0 KECCAK256 SWAP2 PUSH1 0x0 JUMPDEST DUP2 DUP2 LT PUSH2 0x167D JUMPI POP DUP4 PUSH1 0x80 SWAP4 PUSH32 0x3241139AF5E2A8B260AC9C371BBCD5DA66AC3CE01DFC401FB973A1F174A1BC07 SWAP15 SWAP16 PUSH2 0x12FF SWAP13 SWAP12 SWAP11 SWAP10 SWAP9 SWAP8 SWAP5 PUSH1 0x4 SWAP8 PUSH1 0x1 SWAP6 LT PUSH2 0x1664 JUMPI JUMPDEST POP POP POP DUP2 SHL ADD PUSH1 0x2 DUP6 ADD SSTORE PUSH2 0x15A1 JUMP JUMPDEST ADD MLOAD PUSH1 0x0 NOT PUSH1 0xF8 DUP5 PUSH1 0x3 SHL AND SHR NOT AND SWAP1 SSTORE DUP16 DUP1 DUP1 PUSH2 0x1654 JUMP JUMPDEST DUP3 DUP16 ADD MLOAD DUP5 SSTORE PUSH1 0x20 SWAP15 DUP16 ADD SWAP15 PUSH1 0x1 SWAP1 SWAP5 ADD SWAP4 ADD PUSH2 0x160F JUMP JUMPDEST PUSH2 0x16C4 SWAP1 PUSH1 0x2 DUP6 ADD PUSH1 0x0 MSTORE PUSH1 0x20 PUSH1 0x0 KECCAK256 PUSH1 0x1F DUP5 ADD PUSH1 0x5 SHR DUP2 ADD SWAP2 PUSH1 0x20 DUP6 LT PUSH2 0x13EB JUMPI PUSH1 0x1F ADD PUSH1 0x5 SHR ADD SWAP1 PUSH2 0x1FDC JUMP JUMPDEST DUP12 PUSH2 0x153A JUMP JUMPDEST PUSH1 0x0 SWAP7 PUSH2 0x14AC JUMP JUMPDEST PUSH2 0x16DD TIMESTAMP DUP5 GT PUSH2 0x1F33 JUMP JUMPDEST PUSH2 0x14A3 JUMP JUMPDEST CALLVALUE PUSH2 0x142 JUMPI PUSH1 0x0 CALLDATASIZE PUSH1 0x3 NOT ADD SLT PUSH2 0x142 JUMPI PUSH2 0x16FB PUSH2 0x2167 JUMP JUMPDEST PUSH1 0x33 DUP1 SLOAD PUSH1 0x1 PUSH1 0x1 PUSH1 0xA0 SHL SUB NOT DUP2 AND SWAP1 SWAP2 SSTORE PUSH1 0x0 SWAP1 PUSH1 0x1 PUSH1 0x1 PUSH1 0xA0 SHL SUB AND PUSH32 0x8BE0079C531659141344CD1FD0A4F28419497F9722A3DAAFE3B4186F6B6457E0 DUP3 DUP1 LOG3 STOP JUMPDEST CALLVALUE PUSH2 0x142 JUMPI PUSH1 0x0 CALLDATASIZE PUSH1 0x3 NOT ADD SLT PUSH2 0x142 JUMPI PUSH1 0x65 SLOAD PUSH1 0x40 MLOAD PUSH1 0x1 PUSH1 0x1 PUSH1 0xA0 SHL SUB SWAP1 SWAP2 AND DUP2 MSTORE PUSH1 0x20 SWAP1 RETURN JUMPDEST CALLVALUE PUSH2 0x142 JUMPI PUSH1 0x0 CALLDATASIZE PUSH1 0x3 NOT ADD SLT PUSH2 0x142 JUMPI PUSH1 0x66 SLOAD PUSH2 0x1785 DUP2 PUSH2 0x1D4F JUMP JUMPDEST PUSH2 0x1792 PUSH1 0x40 MLOAD SWAP2 DUP3 PUSH2 0x1C43 JUMP JUMPDEST DUP2 DUP2 MSTORE PUSH2 0x179E DUP3 PUSH2 0x1D4F JUMP JUMPDEST PUSH1 0x20 SWAP3 SWAP1 PUSH1 0x1F NOT ADD DUP4 PUSH1 0x0 JUMPDEST DUP3 DUP2 LT PUSH2 0x1940 JUMPI POP PUSH1 0x0 DUP5 DUP5 JUMPDEST DUP1 DUP4 LT PUSH2 0x181C JUMPI PUSH1 0x40 DUP1 MLOAD DUP6 DUP2 MSTORE DUP4 MLOAD DUP2 DUP8 ADD DUP2 SWAP1 MSTORE PUSH1 0x0 SWAP3 PUSH1 0x5 DUP3 SWAP1 SHL DUP4 ADD DUP2 ADD SWAP2 DUP7 DUP10 ADD SWAP2 DUP10 SWAP1 DUP6 ADD JUMPDEST DUP3 DUP8 LT PUSH2 0x17F0 JUMPI DUP6 DUP6 SUB DUP7 RETURN JUMPDEST SWAP1 SWAP2 SWAP3 SWAP4 DUP3 DUP1 PUSH2 0x180C PUSH1 0x1 SWAP4 PUSH1 0x3F NOT DUP11 DUP3 SUB ADD DUP7 MSTORE DUP9 MLOAD PUSH2 0x1B2C JUMP JUMPDEST SWAP7 ADD SWAP3 ADD SWAP7 ADD SWAP6 SWAP3 SWAP2 SWAP1 SWAP3 PUSH2 0x17E3 JUMP JUMPDEST PUSH2 0x1825 DUP4 PUSH2 0x2268 JUMP JUMPDEST SWAP4 SWAP1 PUSH1 0x1 DUP1 PUSH1 0xA0 SHL SUB DUP1 SWAP2 SLOAD PUSH1 0x3 SWAP7 DUP8 SHL SHR AND PUSH1 0x0 MSTORE PUSH1 0x68 DUP7 MSTORE PUSH1 0x40 PUSH1 0x0 KECCAK256 PUSH1 0x40 MLOAD SWAP2 PUSH2 0x1851 DUP4 PUSH2 0x1C28 JUMP JUMPDEST DUP2 SLOAD AND DUP3 MSTORE PUSH1 0x1 DUP1 DUP3 ADD SLOAD DUP9 DUP5 ADD MSTORE PUSH1 0x2 DUP3 ADD DUP9 PUSH1 0x40 MLOAD SWAP3 PUSH1 0x0 SWAP3 DUP1 SLOAD SWAP1 PUSH2 0x1878 DUP3 PUSH2 0x1D15 JUMP JUMPDEST DUP1 DUP8 MSTORE SWAP2 DUP4 DUP2 AND SWAP1 DUP2 ISZERO PUSH2 0x191C JUMPI POP PUSH1 0x1 EQ PUSH2 0x18DF JUMPI JUMPDEST POP POP POP POP PUSH1 0x1 SWAP6 SWAP7 SWAP8 DUP3 PUSH2 0x18AA PUSH1 0x4 SWAP6 SWAP5 PUSH1 0xFF SWAP5 SUB DUP3 PUSH2 0x1C43 JUMP JUMPDEST PUSH1 0x40 DUP7 ADD MSTORE DUP3 ADD SLOAD AND ISZERO ISZERO PUSH1 0x60 DUP5 ADD MSTORE ADD SLOAD PUSH1 0x80 DUP3 ADD MSTORE PUSH2 0x18CB DUP3 DUP7 PUSH2 0x1D66 JUMP JUMPDEST MSTORE PUSH2 0x18D6 DUP2 DUP6 PUSH2 0x1D66 JUMP JUMPDEST POP ADD SWAP2 SWAP1 PUSH2 0x17B7 JUMP JUMPDEST SWAP1 SWAP2 SWAP3 SWAP4 POP PUSH1 0x0 MSTORE DUP3 PUSH1 0x0 KECCAK256 SWAP2 PUSH1 0x0 SWAP3 JUMPDEST DUP3 DUP5 LT PUSH2 0x1909 JUMPI POP POP POP DUP3 ADD ADD DUP9 DUP3 PUSH2 0x18AA PUSH1 0x4 PUSH2 0x188F JUMP JUMPDEST DUP1 SLOAD DUP7 DUP6 ADD DUP7 ADD MSTORE SWAP3 DUP5 ADD SWAP3 DUP2 ADD PUSH2 0x18F0 JUMP JUMPDEST PUSH1 0xFF NOT AND DUP6 DUP9 ADD MSTORE POP POP ISZERO ISZERO PUSH1 0x5 SHL DUP5 ADD SWAP1 SWAP2 ADD SWAP2 POP DUP10 SWAP1 POP DUP3 PUSH2 0x18AA PUSH1 0x4 PUSH2 0x188F JUMP JUMPDEST PUSH2 0x1948 PUSH2 0x1C7F JUMP JUMPDEST DUP3 DUP3 DUP8 ADD ADD MSTORE ADD DUP5 SWAP1 PUSH2 0x17AA JUMP JUMPDEST CALLVALUE PUSH2 0x142 JUMPI PUSH1 0x20 DUP1 PUSH1 0x3 NOT CALLDATASIZE ADD SLT PUSH2 0x142 JUMPI PUSH2 0x1970 PUSH2 0x1ACE JUMP JUMPDEST PUSH2 0x1978 PUSH2 0x1C7F JUMP JUMPDEST POP PUSH1 0x1 PUSH1 0x1 PUSH1 0xA0 SHL SUB SWAP1 DUP2 AND PUSH1 0x0 DUP2 DUP2 MSTORE PUSH1 0x67 PUSH1 0x20 MSTORE PUSH1 0x40 SWAP1 KECCAK256 SLOAD PUSH2 0x199E SWAP1 ISZERO ISZERO PUSH2 0x1CAB JUMP JUMPDEST PUSH1 0x0 MSTORE PUSH1 0x68 DUP3 MSTORE PUSH1 0x40 PUSH1 0x0 KECCAK256 SWAP2 PUSH1 0x40 MLOAD SWAP2 PUSH2 0x19B8 DUP4 PUSH2 0x1C28 JUMP JUMPDEST DUP4 SLOAD AND DUP3 MSTORE PUSH1 0x1 SWAP3 PUSH1 0x1 DUP2 ADD SLOAD DUP3 DUP5 ADD MSTORE PUSH1 0x2 DUP2 ADD PUSH1 0x40 MLOAD SWAP1 PUSH1 0x0 SWAP6 DUP2 SLOAD SWAP2 PUSH2 0x19E0 DUP4 PUSH2 0x1D15 JUMP JUMPDEST DUP1 DUP6 MSTORE SWAP3 PUSH1 0x1 DUP2 AND SWAP1 DUP2 ISZERO PUSH2 0x1A74 JUMPI POP PUSH1 0x1 EQ PUSH2 0x1A3A JUMPI JUMPDEST POP POP POP PUSH2 0x1A0B DUP2 PUSH1 0x4 SWAP5 SWAP6 SWAP7 SUB DUP3 PUSH2 0x1C43 JUMP JUMPDEST PUSH1 0x40 DUP6 ADD MSTORE PUSH1 0xFF PUSH1 0x3 DUP3 ADD SLOAD AND ISZERO ISZERO PUSH1 0x60 DUP6 ADD MSTORE ADD SLOAD PUSH1 0x80 DUP4 ADD MSTORE PUSH2 0x128 PUSH1 0x40 MLOAD SWAP3 DUP3 DUP5 SWAP4 DUP5 MSTORE DUP4 ADD SWAP1 PUSH2 0x1B2C JUMP JUMPDEST PUSH1 0x0 SWAP1 DUP2 MSTORE DUP6 DUP2 KECCAK256 SWAP1 SWAP8 POP JUMPDEST DUP3 DUP9 LT PUSH2 0x1A61 JUMPI POP POP POP SWAP4 DUP5 ADD DUP3 ADD SWAP4 PUSH2 0x1A0B DUP2 PUSH1 0x4 PUSH2 0x19F8 JUMP JUMPDEST DUP1 SLOAD DUP5 DUP10 ADD DUP8 ADD MSTORE SWAP7 DUP6 ADD SWAP7 DUP2 ADD PUSH2 0x1A46 JUMP JUMPDEST PUSH1 0xFF NOT AND DUP6 DUP9 ADD MSTORE POP POP POP ISZERO ISZERO PUSH1 0x5 SHL DUP2 ADD DUP4 ADD SWAP5 POP PUSH2 0x1A0B DUP2 PUSH1 0x4 PUSH2 0x19F8 JUMP JUMPDEST CALLVALUE PUSH2 0x142 JUMPI PUSH1 0x0 CALLDATASIZE PUSH1 0x3 NOT ADD SLT PUSH2 0x142 JUMPI DUP1 PUSH32 0x6E4379AD5ABE51B1F38D7C717558B084CA50F05C182778BE47E8AA04793CFE2D PUSH1 0x20 SWAP3 MSTORE RETURN JUMPDEST PUSH1 0x4 CALLDATALOAD SWAP1 PUSH1 0x1 PUSH1 0x1 PUSH1 0xA0 SHL SUB DUP3 AND DUP3 SUB PUSH2 0x142 JUMPI JUMP JUMPDEST PUSH1 0x0 JUMPDEST DUP4 DUP2 LT PUSH2 0x1AF7 JUMPI POP POP PUSH1 0x0 SWAP2 ADD MSTORE JUMP JUMPDEST DUP2 DUP2 ADD MLOAD DUP4 DUP3 ADD MSTORE PUSH1 0x20 ADD PUSH2 0x1AE7 JUMP JUMPDEST SWAP1 PUSH1 0x20 SWAP2 PUSH2 0x1B20 DUP2 MLOAD DUP1 SWAP3 DUP2 DUP6 MSTORE DUP6 DUP1 DUP7 ADD SWAP2 ADD PUSH2 0x1AE4 JUMP JUMPDEST PUSH1 0x1F ADD PUSH1 0x1F NOT AND ADD ADD SWAP1 JUMP JUMPDEST SWAP1 PUSH1 0x1 DUP1 PUSH1 0xA0 SHL SUB DUP3 MLOAD AND DUP2 MSTORE PUSH1 0x20 DUP3 ADD MLOAD PUSH1 0x20 DUP3 ADD MSTORE PUSH1 0x80 DUP1 PUSH2 0x1B5F PUSH1 0x40 DUP6 ADD MLOAD PUSH1 0xA0 PUSH1 0x40 DUP7 ADD MSTORE PUSH1 0xA0 DUP6 ADD SWAP1 PUSH2 0x1B07 JUMP JUMPDEST SWAP4 PUSH1 0x60 DUP2 ADD MLOAD ISZERO ISZERO PUSH1 0x60 DUP6 ADD MSTORE ADD MLOAD SWAP2 ADD MSTORE SWAP1 JUMP JUMPDEST SWAP2 DUP2 PUSH1 0x1F DUP5 ADD SLT ISZERO PUSH2 0x142 JUMPI DUP3 CALLDATALOAD SWAP2 PUSH1 0x1 PUSH1 0x1 PUSH1 0x40 SHL SUB DUP4 GT PUSH2 0x142 JUMPI PUSH1 0x20 DUP4 DUP2 DUP7 ADD SWAP6 ADD ADD GT PUSH2 0x142 JUMPI JUMP JUMPDEST PUSH1 0xA0 PUSH1 0x3 NOT DUP3 ADD SLT PUSH2 0x142 JUMPI PUSH1 0x4 CALLDATALOAD PUSH1 0x1 PUSH1 0x1 PUSH1 0xA0 SHL SUB DUP2 AND DUP2 SUB PUSH2 0x142 JUMPI SWAP2 PUSH1 0x24 CALLDATALOAD SWAP2 PUSH1 0x44 CALLDATALOAD SWAP1 PUSH1 0x1 PUSH1 0x1 PUSH1 0x40 SHL SUB DUP3 GT PUSH2 0x142 JUMPI PUSH2 0x1BE3 SWAP2 PUSH1 0x4 ADD PUSH2 0x1B74 JUMP JUMPDEST SWAP1 SWAP2 PUSH1 0x64 CALLDATALOAD DUP1 ISZERO ISZERO DUP2 SUB PUSH2 0x142 JUMPI SWAP1 PUSH1 0x84 CALLDATALOAD SWAP1 JUMP JUMPDEST SWAP2 DUP2 PUSH1 0x1F DUP5 ADD SLT ISZERO PUSH2 0x142 JUMPI DUP3 CALLDATALOAD SWAP2 PUSH1 0x1 PUSH1 0x1 PUSH1 0x40 SHL SUB DUP4 GT PUSH2 0x142 JUMPI PUSH1 0x20 DUP1 DUP6 ADD SWAP5 DUP5 PUSH1 0x5 SHL ADD ADD GT PUSH2 0x142 JUMPI JUMP JUMPDEST PUSH1 0xA0 DUP2 ADD SWAP1 DUP2 LT PUSH1 0x1 PUSH1 0x1 PUSH1 0x40 SHL SUB DUP3 GT OR PUSH2 0x12C JUMPI PUSH1 0x40 MSTORE JUMP JUMPDEST SWAP1 PUSH1 0x1F DUP1 NOT SWAP2 ADD AND DUP2 ADD SWAP1 DUP2 LT PUSH1 0x1 PUSH1 0x1 PUSH1 0x40 SHL SUB DUP3 GT OR PUSH2 0x12C JUMPI PUSH1 0x40 MSTORE JUMP JUMPDEST PUSH1 0x1 PUSH1 0x1 PUSH1 0x40 SHL SUB DUP2 GT PUSH2 0x12C JUMPI PUSH1 0x1F ADD PUSH1 0x1F NOT AND PUSH1 0x20 ADD SWAP1 JUMP JUMPDEST PUSH1 0x40 MLOAD SWAP1 PUSH2 0x1C8C DUP3 PUSH2 0x1C28 JUMP JUMPDEST PUSH1 0x0 PUSH1 0x80 DUP4 DUP3 DUP2 MSTORE DUP3 PUSH1 0x20 DUP3 ADD MSTORE PUSH1 0x60 PUSH1 0x40 DUP3 ADD MSTORE DUP3 PUSH1 0x60 DUP3 ADD MSTORE ADD MSTORE JUMP JUMPDEST ISZERO PUSH2 0x1CB2 JUMPI JUMP JUMPDEST PUSH1 0x40 MLOAD PUSH3 0x461BCD PUSH1 0xE5 SHL DUP2 MSTORE PUSH1 0x20 PUSH1 0x4 DUP3 ADD MSTORE PUSH1 0x35 PUSH1 0x24 DUP3 ADD MSTORE PUSH32 0x5634446973747269627574696F6E4D6F64756C653A2077616C6C657420646F65 PUSH1 0x44 DUP3 ADD MSTORE PUSH21 0x39903737BA103430BB329030B63637B1B0BA34B7B7 PUSH1 0x59 SHL PUSH1 0x64 DUP3 ADD MSTORE PUSH1 0x84 SWAP1 REVERT JUMPDEST SWAP1 PUSH1 0x1 DUP3 DUP2 SHR SWAP3 AND DUP1 ISZERO PUSH2 0x1D45 JUMPI JUMPDEST PUSH1 0x20 DUP4 LT EQ PUSH2 0x1D2F JUMPI JUMP JUMPDEST PUSH4 0x4E487B71 PUSH1 0xE0 SHL PUSH1 0x0 MSTORE PUSH1 0x22 PUSH1 0x4 MSTORE PUSH1 0x24 PUSH1 0x0 REVERT JUMPDEST SWAP2 PUSH1 0x7F AND SWAP2 PUSH2 0x1D24 JUMP JUMPDEST PUSH1 0x1 PUSH1 0x1 PUSH1 0x40 SHL SUB DUP2 GT PUSH2 0x12C JUMPI PUSH1 0x5 SHL PUSH1 0x20 ADD SWAP1 JUMP JUMPDEST DUP1 MLOAD DUP3 LT ISZERO PUSH2 0x1D7A JUMPI PUSH1 0x20 SWAP2 PUSH1 0x5 SHL ADD ADD SWAP1 JUMP JUMPDEST PUSH4 0x4E487B71 PUSH1 0xE0 SHL PUSH1 0x0 MSTORE PUSH1 0x32 PUSH1 0x4 MSTORE PUSH1 0x24 PUSH1 0x0 REVERT JUMPDEST ISZERO PUSH2 0x1D97 JUMPI JUMP JUMPDEST PUSH1 0x40 MLOAD PUSH3 0x461BCD PUSH1 0xE5 SHL DUP2 MSTORE PUSH1 0x20 PUSH1 0x4 DUP3 ADD MSTORE PUSH1 0x33 PUSH1 0x24 DUP3 ADD MSTORE PUSH32 0x5634446973747269627574696F6E4D6F64756C653A2064697374726962757469 PUSH1 0x44 DUP3 ADD MSTORE PUSH19 0x1BDB88185B1C9958591E48195E1958DD5D1959 PUSH1 0x6A SHL PUSH1 0x64 DUP3 ADD MSTORE PUSH1 0x84 SWAP1 REVERT JUMPDEST ISZERO PUSH2 0x1DFF JUMPI JUMP JUMPDEST PUSH1 0x40 MLOAD PUSH3 0x461BCD PUSH1 0xE5 SHL DUP2 MSTORE PUSH1 0x20 PUSH1 0x4 DUP3 ADD MSTORE PUSH1 0x33 PUSH1 0x24 DUP3 ADD MSTORE PUSH32 0x5634446973747269627574696F6E4D6F64756C653A2077616C6C65742063616E PUSH1 0x44 DUP3 ADD MSTORE PUSH19 0x6E6F74206265207A65726F2061646472657373 PUSH1 0x68 SHL PUSH1 0x64 DUP3 ADD MSTORE PUSH1 0x84 SWAP1 REVERT JUMPDEST ISZERO PUSH2 0x1E67 JUMPI JUMP JUMPDEST PUSH1 0x40 MLOAD PUSH3 0x461BCD PUSH1 0xE5 SHL DUP2 MSTORE PUSH1 0x20 PUSH1 0x4 DUP3 ADD MSTORE PUSH1 0x36 PUSH1 0x24 DUP3 ADD MSTORE PUSH32 0x5634446973747269627574696F6E4D6F64756C653A20616D6F756E74206D7573 PUSH1 0x44 DUP3 ADD MSTORE PUSH22 0x742062652067726561746572207468616E207A65726F PUSH1 0x50 SHL PUSH1 0x64 DUP3 ADD MSTORE PUSH1 0x84 SWAP1 REVERT JUMPDEST ISZERO PUSH2 0x1ED2 JUMPI JUMP JUMPDEST PUSH1 0x40 MLOAD PUSH3 0x461BCD PUSH1 0xE5 SHL DUP2 MSTORE PUSH1 0x20 PUSH1 0x4 DUP3 ADD MSTORE PUSH1 0x33 PUSH1 0x24 DUP3 ADD MSTORE PUSH32 0x5634446973747269627574696F6E4D6F64756C653A2077616C6C657420616C72 PUSH1 0x44 DUP3 ADD MSTORE PUSH19 0x32B0B23C903430B99030B63637B1B0BA34B7B7 PUSH1 0x69 SHL PUSH1 0x64 DUP3 ADD MSTORE PUSH1 0x84 SWAP1 REVERT JUMPDEST ISZERO PUSH2 0x1F3A JUMPI JUMP JUMPDEST PUSH1 0x40 MLOAD PUSH3 0x461BCD PUSH1 0xE5 SHL DUP2 MSTORE PUSH1 0x20 PUSH1 0x4 DUP3 ADD MSTORE PUSH1 0x37 PUSH1 0x24 DUP3 ADD MSTORE PUSH32 0x5634446973747269627574696F6E4D6F64756C653A20756E6C6F636B2074696D PUSH1 0x44 DUP3 ADD MSTORE PUSH32 0x65206D75737420626520696E2074686520667574757265000000000000000000 PUSH1 0x64 DUP3 ADD MSTORE PUSH1 0x84 SWAP1 REVERT JUMPDEST SWAP3 SWAP2 SWAP3 PUSH2 0x1FB1 DUP3 PUSH2 0x1C64 JUMP JUMPDEST SWAP2 PUSH2 0x1FBF PUSH1 0x40 MLOAD SWAP4 DUP5 PUSH2 0x1C43 JUMP JUMPDEST DUP3 SWAP5 DUP2 DUP5 MSTORE DUP2 DUP4 ADD GT PUSH2 0x142 JUMPI DUP3 DUP2 PUSH1 0x20 SWAP4 DUP5 PUSH1 0x0 SWAP7 ADD CALLDATACOPY ADD ADD MSTORE JUMP JUMPDEST DUP2 DUP2 LT PUSH2 0x1FE7 JUMPI POP POP JUMP JUMPDEST PUSH1 0x0 DUP2 SSTORE PUSH1 0x1 ADD PUSH2 0x1FDC JUMP JUMPDEST SWAP2 SWAP1 DUP3 ADD DUP1 SWAP3 GT PUSH2 0x2000 JUMPI JUMP JUMPDEST PUSH4 0x4E487B71 PUSH1 0xE0 SHL PUSH1 0x0 MSTORE PUSH1 0x11 PUSH1 0x4 MSTORE PUSH1 0x24 PUSH1 0x0 REVERT JUMPDEST SWAP2 SWAP3 DUP1 PUSH1 0x60 SWAP5 PUSH1 0xA0 SWAP4 SWAP9 SWAP8 SWAP7 SWAP9 DUP6 MSTORE PUSH1 0x80 PUSH1 0x20 DUP7 ADD MSTORE DUP2 PUSH1 0x80 DUP7 ADD MSTORE DUP4 DUP6 ADD CALLDATACOPY PUSH1 0x0 DUP3 DUP3 DUP6 ADD ADD MSTORE PUSH1 0x1F DUP1 NOT SWAP2 ADD AND DUP3 ADD ADD SWAP5 ISZERO ISZERO PUSH1 0x40 DUP3 ADD MSTORE ADD MSTORE JUMP JUMPDEST SWAP2 SWAP1 DUP3 SUB SWAP2 DUP3 GT PUSH2 0x2000 JUMPI JUMP JUMPDEST SWAP2 SWAP1 DUP2 LT ISZERO PUSH2 0x1D7A JUMPI PUSH1 0x5 SHL ADD SWAP1 JUMP JUMPDEST CALLDATALOAD PUSH1 0x1 PUSH1 0x1 PUSH1 0xA0 SHL SUB DUP2 AND DUP2 SUB PUSH2 0x142 JUMPI SWAP1 JUMP JUMPDEST CALLDATALOAD DUP1 ISZERO ISZERO DUP2 SUB PUSH2 0x142 JUMPI SWAP1 JUMP JUMPDEST SWAP2 SWAP1 DUP2 LT ISZERO PUSH2 0x1D7A JUMPI PUSH1 0x5 SHL DUP2 ADD CALLDATALOAD SWAP1 PUSH1 0x1E NOT DUP2 CALLDATASIZE SUB ADD DUP3 SLT ISZERO PUSH2 0x142 JUMPI ADD SWAP1 DUP2 CALLDATALOAD SWAP2 PUSH1 0x1 PUSH1 0x1 PUSH1 0x40 SHL SUB DUP4 GT PUSH2 0x142 JUMPI PUSH1 0x20 ADD DUP3 CALLDATASIZE SUB DUP2 SGT PUSH2 0x142 JUMPI SWAP2 SWAP1 JUMP JUMPDEST SWAP2 SWAP1 PUSH1 0x40 DUP4 DUP3 SUB SLT PUSH2 0x142 JUMPI DUP3 MLOAD DUP1 ISZERO ISZERO DUP2 SUB PUSH2 0x142 JUMPI SWAP3 PUSH1 0x20 DUP2 ADD MLOAD SWAP1 PUSH1 0x1 PUSH1 0x1 PUSH1 0x40 SHL SUB DUP3 GT PUSH2 0x142 JUMPI ADD DUP2 PUSH1 0x1F DUP3 ADD SLT ISZERO PUSH2 0x142 JUMPI DUP1 MLOAD PUSH2 0x2116 DUP2 PUSH2 0x1C64 JUMP JUMPDEST SWAP3 PUSH2 0x2124 PUSH1 0x40 MLOAD SWAP5 DUP6 PUSH2 0x1C43 JUMP JUMPDEST DUP2 DUP5 MSTORE PUSH1 0x20 DUP3 DUP5 ADD ADD GT PUSH2 0x142 JUMPI PUSH2 0x2142 SWAP2 PUSH1 0x20 DUP1 DUP6 ADD SWAP2 ADD PUSH2 0x1AE4 JUMP JUMPDEST SWAP1 JUMP JUMPDEST PUSH1 0x1 PUSH1 0x1 PUSH1 0xA0 SHL SUB SWAP1 SWAP2 AND DUP2 MSTORE PUSH1 0x40 PUSH1 0x20 DUP3 ADD DUP2 SWAP1 MSTORE PUSH2 0x2142 SWAP3 SWAP2 ADD SWAP1 PUSH2 0x1B07 JUMP JUMPDEST PUSH1 0x33 SLOAD PUSH1 0x1 PUSH1 0x1 PUSH1 0xA0 SHL SUB AND CALLER SUB PUSH2 0x217B JUMPI JUMP JUMPDEST PUSH1 0x64 PUSH1 0x40 MLOAD PUSH3 0x461BCD PUSH1 0xE5 SHL DUP2 MSTORE PUSH1 0x20 PUSH1 0x4 DUP3 ADD MSTORE PUSH1 0x20 PUSH1 0x24 DUP3 ADD MSTORE PUSH32 0x4F776E61626C653A2063616C6C6572206973206E6F7420746865206F776E6572 PUSH1 0x44 DUP3 ADD MSTORE REVERT JUMPDEST PUSH1 0x33 DUP1 SLOAD PUSH1 0x1 PUSH1 0x1 PUSH1 0xA0 SHL SUB SWAP3 DUP4 AND PUSH1 0x1 PUSH1 0x1 PUSH1 0xA0 SHL SUB NOT DUP3 AND DUP2 OR SWAP1 SWAP3 SSTORE SWAP1 SWAP2 AND PUSH32 0x8BE0079C531659141344CD1FD0A4F28419497F9722A3DAAFE3B4186F6B6457E0 PUSH1 0x0 DUP1 LOG3 JUMP JUMPDEST ISZERO PUSH2 0x220F JUMPI JUMP JUMPDEST PUSH1 0x40 MLOAD PUSH3 0x461BCD PUSH1 0xE5 SHL DUP2 MSTORE PUSH1 0x20 PUSH1 0x4 DUP3 ADD MSTORE PUSH1 0x2B PUSH1 0x24 DUP3 ADD MSTORE PUSH32 0x496E697469616C697A61626C653A20636F6E7472616374206973206E6F742069 PUSH1 0x44 DUP3 ADD MSTORE PUSH11 0x6E697469616C697A696E67 PUSH1 0xA8 SHL PUSH1 0x64 DUP3 ADD MSTORE PUSH1 0x84 SWAP1 REVERT JUMPDEST PUSH1 0x66 SLOAD DUP2 LT ISZERO PUSH2 0x1D7A JUMPI PUSH1 0x66 PUSH1 0x0 MSTORE PUSH32 0x46501879B8CA8525E8C2FD519E2FBFCFA2EBEA26501294AA02CBFCFB12E94354 ADD SWAP1 PUSH1 0x0 SWAP1 JUMP JUMPDEST PUSH1 0x0 DUP2 DUP2 MSTORE PUSH1 0x67 PUSH1 0x20 MSTORE PUSH1 0x40 DUP2 KECCAK256 SLOAD PUSH2 0x231C JUMPI PUSH1 0x66 SLOAD PUSH9 0x10000000000000000 DUP2 LT ISZERO PUSH2 0x2308 JUMPI SWAP1 DUP3 PUSH2 0x22F4 PUSH2 0x22DD DUP5 PUSH1 0x1 PUSH1 0x40 SWAP7 ADD PUSH1 0x66 SSTORE PUSH2 0x2268 JUMP JUMPDEST DUP2 SWAP4 SWAP2 SLOAD SWAP1 PUSH1 0x3 SHL SWAP2 DUP3 SHL SWAP2 PUSH1 0x0 NOT SWAP1 SHL NOT AND OR SWAP1 JUMP JUMPDEST SWAP1 SSTORE PUSH1 0x66 SLOAD SWAP3 DUP2 MSTORE PUSH1 0x67 PUSH1 0x20 MSTORE KECCAK256 SSTORE PUSH1 0x1 SWAP1 JUMP JUMPDEST PUSH4 0x4E487B71 PUSH1 0xE0 SHL DUP3 MSTORE PUSH1 0x41 PUSH1 0x4 MSTORE PUSH1 0x24 DUP3 REVERT JUMPDEST SWAP1 POP SWAP1 JUMP JUMPDEST PUSH1 0x0 DUP2 DUP2 MSTORE PUSH1 0x67 PUSH1 0x20 MSTORE PUSH1 0x40 DUP2 KECCAK256 SLOAD SWAP1 SWAP2 SWAP1 DUP1 ISZERO PUSH2 0x2406 JUMPI PUSH1 0x0 NOT SWAP1 DUP1 DUP3 ADD DUP2 DUP2 GT PUSH2 0x23F2 JUMPI PUSH1 0x66 SLOAD SWAP1 DUP4 DUP3 ADD SWAP2 DUP3 GT PUSH2 0x23DE JUMPI DUP1 DUP3 SUB PUSH2 0x23AA JUMPI JUMPDEST POP POP POP PUSH1 0x66 SLOAD DUP1 ISZERO PUSH2 0x2396 JUMPI DUP2 ADD SWAP1 PUSH2 0x2375 DUP3 PUSH2 0x2268 JUMP JUMPDEST SWAP1 SWAP2 DUP3 SLOAD SWAP2 PUSH1 0x3 SHL SHL NOT AND SWAP1 SSTORE PUSH1 0x66 SSTORE DUP2 MSTORE PUSH1 0x67 PUSH1 0x20 MSTORE PUSH1 0x40 DUP2 KECCAK256 SSTORE PUSH1 0x1 SWAP1 JUMP JUMPDEST PUSH4 0x4E487B71 PUSH1 0xE0 SHL DUP5 MSTORE PUSH1 0x31 PUSH1 0x4 MSTORE PUSH1 0x24 DUP5 REVERT JUMPDEST PUSH2 0x23C8 PUSH2 0x23B9 PUSH2 0x22DD SWAP4 PUSH2 0x2268 JUMP JUMPDEST SWAP1 SLOAD SWAP1 PUSH1 0x3 SHL SHR SWAP3 DUP4 SWAP3 PUSH2 0x2268 JUMP JUMPDEST SWAP1 SSTORE DUP5 MSTORE PUSH1 0x67 PUSH1 0x20 MSTORE PUSH1 0x40 DUP5 KECCAK256 SSTORE CODESIZE DUP1 DUP1 PUSH2 0x235D JUMP JUMPDEST PUSH4 0x4E487B71 PUSH1 0xE0 SHL DUP7 MSTORE PUSH1 0x11 PUSH1 0x4 MSTORE PUSH1 0x24 DUP7 REVERT JUMPDEST PUSH4 0x4E487B71 PUSH1 0xE0 SHL DUP6 MSTORE PUSH1 0x11 PUSH1 0x4 MSTORE PUSH1 0x24 DUP6 REVERT JUMPDEST POP POP SWAP1 JUMP INVALID LOG2 PUSH5 0x6970667358 0x22 SLT KECCAK256 SWAP16 0xB2 BYTE 0xBD SUB 0xCB 0x4C 0xDD 0x25 PUSH6 0x4BF010C90AB DUP16 0x28 0x4C 0xDC CALL 0xE6 CHAINID PUSH21 0x7C45EDB882B321E364736F6C634300081600330000 "},"gasEstimates":{"creation":{"codeDepositCost":"1856200","executionCost":"27305","totalCost":"1883505"},"external":{"VERSION()":"infinite","addAllocation(address,uint256,string,bool,uint256)":"infinite","addMultipleAllocations(address[],uint256[],string[],bool[],uint256[])":"infinite","executeDistribution()":"infinite","getAllAllocations()":"infinite","getAllocation(address)":"infinite","getModuleType()":"189","getToken()":"2387","initialize(address,bytes)":"infinite","modifyAllocation(address,uint256,string,bool,uint256)":"infinite","owner()":"2453","removeAllocation(address)":"infinite","renounceOwnership()":"28151","supportsFunction(bytes4)":"815","transferOwnership(address)":"28501","unlockTokens(address)":"infinite"}},"methodIdentifiers":{"VERSION()":"ffa1ad74","addAllocation(address,uint256,string,bool,uint256)":"862c19c8","addMultipleAllocations(address[],uint256[],string[],bool[],uint256[])":"cc6becc8","executeDistribution()":"ff0ed114","getAllAllocations()":"1ca00f62","getAllocation(address)":"0e022923","getModuleType()":"0b9349b9","getToken()":"21df0da7","initialize(address,bytes)":"d1f57894","modifyAllocation(address,uint256,string,bool,uint256)":"a8a4b4c0","owner()":"8da5cb5b","removeAllocation(address)":"c58156e0","renounceOwnership()":"715018a6","supportsFunction(bytes4)":"be464464","transferOwnership(address)":"f2fde38b","unlockTokens(address)":"cb67f948"}},"storageLayout":{"storage":[{"astId":139,"contract":"src/contracts/V4DistributionModule.sol:V4DistributionModule","label":"_initialized","offset":0,"slot":"0","type":"t_uint8"},{"astId":142,"contract":"src/contracts/V4DistributionModule.sol:V4DistributionModule","label":"_initializing","offset":1,"slot":"0","type":"t_bool"},{"astId":1525,"contract":"src/contracts/V4DistributionModule.sol:V4DistributionModule","label":"__gap","offset":0,"slot":"1","type":"t_array(t_uint256)50_storage"},{"astId":11,"contract":"src/contracts/V4DistributionModule.sol:V4DistributionModule","label":"_owner","offset":0,"slot":"51","type":"t_address"},{"astId":131,"contract":"src/contracts/V4DistributionModule.sol:V4DistributionModule","label":"__gap","offset":0,"slot":"52","type":"t_array(t_uint256)49_storage"},{"astId":3283,"contract":"src/contracts/V4DistributionModule.sol:V4DistributionModule","label":"_token","offset":0,"slot":"101","type":"t_address"},{"astId":3286,"contract":"src/contracts/V4DistributionModule.sol:V4DistributionModule","label":"_allocationWallets","offset":0,"slot":"102","type":"t_struct(AddressSet)1852_storage"},{"astId":3291,"contract":"src/contracts/V4DistributionModule.sol:V4DistributionModule","label":"_allocations","offset":0,"slot":"104","type":"t_mapping(t_address,t_struct(Allocation)5242_storage)"},{"astId":3293,"contract":"src/contracts/V4DistributionModule.sol:V4DistributionModule","label":"_totalAllocated","offset":0,"slot":"105","type":"t_uint256"},{"astId":3295,"contract":"src/contracts/V4DistributionModule.sol:V4DistributionModule","label":"_distributionExecuted","offset":0,"slot":"106","type":"t_bool"}],"types":{"t_address":{"encoding":"inplace","label":"address","numberOfBytes":"20"},"t_array(t_bytes32)dyn_storage":{"base":"t_bytes32","encoding":"dynamic_array","label":"bytes32[]","numberOfBytes":"32"},"t_array(t_uint256)49_storage":{"base":"t_uint256","encoding":"inplace","label":"uint256[49]","numberOfBytes":"1568"},"t_array(t_uint256)50_storage":{"base":"t_uint256","encoding":"inplace","label":"uint256[50]","numberOfBytes":"1600"},"t_bool":{"encoding":"inplace","label":"bool","numberOfBytes":"1"},"t_bytes32":{"encoding":"inplace","label":"bytes32","numberOfBytes":"32"},"t_mapping(t_address,t_struct(Allocation)5242_storage)":{"encoding":"mapping","key":"t_address","label":"mapping(address => struct IV4DistributionModule.Allocation)","numberOfBytes":"32","value":"t_struct(Allocation)5242_storage"},"t_mapping(t_bytes32,t_uint256)":{"encoding":"mapping","key":"t_bytes32","label":"mapping(bytes32 => uint256)","numberOfBytes":"32","value":"t_uint256"},"t_string_storage":{"encoding":"bytes","label":"string","numberOfBytes":"32"},"t_struct(AddressSet)1852_storage":{"encoding":"inplace","label":"struct EnumerableSetUpgradeable.AddressSet","members":[{"astId":1851,"contract":"src/contracts/V4DistributionModule.sol:V4DistributionModule","label":"_inner","offset":0,"slot":"0","type":"t_struct(Set)1537_storage"}],"numberOfBytes":"64"},"t_struct(Allocation)5242_storage":{"encoding":"inplace","label":"struct IV4DistributionModule.Allocation","members":[{"astId":5233,"contract":"src/contracts/V4DistributionModule.sol:V4DistributionModule","label":"wallet","offset":0,"slot":"0","type":"t_address"},{"astId":5235,"contract":"src/contracts/V4DistributionModule.sol:V4DistributionModule","label":"amount","offset":0,"slot":"1","type":"t_uint256"},{"astId":5237,"contract":"src/contracts/V4DistributionModule.sol:V4DistributionModule","label":"label","offset":0,"slot":"2","type":"t_string_storage"},{"astId":5239,"contract":"src/contracts/V4DistributionModule.sol:V4DistributionModule","label":"locked","offset":0,"slot":"3","type":"t_bool"},{"astId":5241,"contract":"src/contracts/V4DistributionModule.sol:V4DistributionModule","label":"unlockTime","offset":0,"slot":"4","type":"t_uint256"}],"numberOfBytes":"160"},"t_struct(Set)1537_storage":{"encoding":"inplace","label":"struct EnumerableSetUpgradeable.Set","members":[{"astId":1532,"contract":"src/contracts/V4DistributionModule.sol:V4DistributionModule","label":"_values","offset":0,"slot":"0","type":"t_array(t_bytes32)dyn_storage"},{"astId":1536,"contract":"src/contracts/V4DistributionModule.sol:V4DistributionModule","label":"_indexes","offset":0,"slot":"1","type":"t_mapping(t_bytes32,t_uint256)"}],"numberOfBytes":"64"},"t_uint256":{"encoding":"inplace","label":"uint256","numberOfBytes":"32"},"t_uint8":{"encoding":"inplace","label":"uint8","numberOfBytes":"1"}}},"userdoc":{"kind":"user","methods":{},"version":1}}}}