{"src/contracts/V4Factory.sol":{"V4Factory":{"abi":[{"inputs":[{"internalType":"address","name":"owner_","type":"address"},{"internalType":"address","name":"tokenImpl_","type":"address"},{"internalType":"address","name":"securityModuleImpl_","type":"address"}],"stateMutability":"nonpayable","type":"constructor"},{"anonymous":false,"inputs":[{"indexed":true,"internalType":"address","name":"previousOwner","type":"address"},{"indexed":true,"internalType":"address","name":"newOwner","type":"address"}],"name":"OwnershipTransferred","type":"event"},{"anonymous":false,"inputs":[{"indexed":true,"internalType":"address","name":"tokenAddress","type":"address"},{"indexed":false,"internalType":"string","name":"name","type":"string"},{"indexed":false,"internalType":"string","name":"symbol","type":"string"},{"indexed":true,"internalType":"address","name":"owner","type":"address"}],"name":"TokenCreated","type":"event"},{"inputs":[{"internalType":"string","name":"name","type":"string"},{"internalType":"string","name":"symbol","type":"string"},{"internalType":"uint256","name":"initialSupply","type":"uint256"},{"internalType":"address","name":"owner","type":"address"}],"name":"createToken","outputs":[{"internalType":"address","name":"tokenAddress","type":"address"}],"stateMutability":"nonpayable","type":"function"},{"inputs":[],"name":"owner","outputs":[{"internalType":"address","name":"","type":"address"}],"stateMutability":"view","type":"function"},{"inputs":[],"name":"renounceOwnership","outputs":[],"stateMutability":"nonpayable","type":"function"},{"inputs":[],"name":"securityModuleBeacon","outputs":[{"internalType":"contract UpgradeableBeacon","name":"","type":"address"}],"stateMutability":"view","type":"function"},{"inputs":[],"name":"securityModuleImplementation","outputs":[{"internalType":"address","name":"","type":"address"}],"stateMutability":"view","type":"function"},{"inputs":[],"name":"tokenBeacon","outputs":[{"internalType":"contract UpgradeableBeacon","name":"","type":"address"}],"stateMutability":"view","type":"function"},{"inputs":[],"name":"tokenImplementation","outputs":[{"internalType":"address","name":"","type":"address"}],"stateMutability":"view","type":"function"},{"inputs":[{"internalType":"address","name":"newOwner","type":"address"}],"name":"transferOwnership","outputs":[],"stateMutability":"nonpayable","type":"function"}],"devdoc":{"details":"Factory for creating V4 tokens with modular architecture","kind":"dev","methods":{"constructor":{"details":"Initialize the factory with implementation contracts","params":{"owner_":"The owner of the factory","securityModuleImpl_":"The security module implementation address","tokenImpl_":"The token implementation address"}},"createToken(string,string,uint256,address)":{"details":"Create a new V4 token with default modules","params":{"initialSupply":"Initial supply to mint","name":"Token name","owner":"Owner of the new token","symbol":"Token symbol"},"returns":{"tokenAddress":"Address of the newly created token"}},"owner()":{"details":"Returns the address of the current owner."},"renounceOwnership()":{"details":"Leaves the contract without owner. It will not be possible to call `onlyOwner` functions. Can only be called by the current owner. NOTE: Renouncing ownership will leave the contract without an owner, thereby disabling any functionality that is only available to the owner."},"transferOwnership(address)":{"details":"Transfers ownership of the contract to a new account (`newOwner`). Can only be called by the current owner."}},"title":"V4Factory","version":1},"evm":{"bytecode":{"linkReferences":{},"object":"60803461020b57601f620014e638819003918201601f19168301926000926001600160401b0392838611838710176101f75781606092849260409889528339810103126101f35761004f81610239565b916100678561006060208501610239565b9301610239565b906100713361024d565b61007a8461024d565b60018060a01b03809316908360018060a01b0319938385600154161760015516836002541617600255865161045a90818101818110848211176101d557816020916200108c9685888439815203019088f080156101e957851684600354161760035584600254169088519381850193858510908511176101d557916020939185938439815203019085f080156101cb578216906004541617600455806003541690813b156101aa5784518481602481838663f2fde38b60e01b998a845216978860048401525af180156101c1576101ae575b506004541691823b156101aa5790602484928387519586948593845260048401525af180156101a057610189575b8251610df79081620002958239f35b6101938291610210565b61019d578061017a565b80fd5b83513d84823e3d90fd5b8380fd5b6101ba90949194610210565b923861014c565b86513d87823e3d90fd5b85513d86823e3d90fd5b634e487b7160e01b89526041600452602489fd5b88513d89823e3d90fd5b8280fd5b634e487b7160e01b85526041600452602485fd5b600080fd5b6001600160401b03811161022357604052565b634e487b7160e01b600052604160045260246000fd5b51906001600160a01b038216820361020b57565b600080546001600160a01b039283166001600160a01b03198216811783559216907f8be0079c531659141344cd1fd0a4f28419497f9722a3daafe3b4186f6b6457e09080a356fe60806040818152600490813610156200001757600080fd5b600092833560e01c9081632f3a3d5d14620005af5750806334f359f91462000266578063715018a614620002055780638008334c14620001da5780638da5cb5b14620001b05780639651d0a81462000186578063ccf5a77c14620001575763f2fde38b146200008557600080fd5b346200015357602036600319011262000153576001600160a01b038235818116939192908490036200014f57620000bb620006f6565b8315620000fd57505082546001600160a01b0319811683178455167f8be0079c531659141344cd1fd0a4f28419497f9722a3daafe3b4186f6b6457e08380a380f35b906020608492519162461bcd60e51b8352820152602660248201527f4f776e61626c653a206e6577206f776e657220697320746865207a65726f206160448201526564647265737360d01b6064820152fd5b8480fd5b8280fd5b838234620001825781600319360112620001825760035490516001600160a01b039091168152602090f35b5080fd5b50903462000153578260031936011262000153575490516001600160a01b03909116815260209150f35b8382346200018257816003193601126200018257905490516001600160a01b039091168152602090f35b838234620001825781600319360112620001825760025490516001600160a01b039091168152602090f35b8334620002635780600319360112620002635762000222620006f6565b80546001600160a01b03198116825581906001600160a01b03167f8be0079c531659141344cd1fd0a4f28419497f9722a3daafe3b4186f6b6457e08280a380f35b80fd5b50913462000263576080366003190112620002635767ffffffffffffffff92823584811162000153576200029e90369085016200062c565b9260249384358681116200014f57620002bb90369084016200062c565b6001600160a01b0395606435878116949190859003620005ab57855196602098635e9d09fb60e11b8a8a01526080838a01528a89620003156200030260a483018a6200068d565b828103602319016044840152886200068d565b6044356064830152896084830152039962000339601f199b8c810183528262000609565b8260035416908a5190610672928383019483861090861117620005995782916200036c91620007509686888639620006cf565b039085f080156200058f5790838d92169b8a8c51938401528d83526200039283620005d6565b8d8d8d5194859263347d5e2560e21b9084015289830191620003b492620006cf565b039081018352620003c6908362000609565b8d84885416918c519481860192868410908411176200057d5791620003f193918695938639620006cf565b039083f080156200052f571692818a620004368b8b518b848201528381526200041a81620005d6565b8c51948580948193630b74e9e360e21b83528c8a8401620006cf565b03925af18015620005735762000539575b50883b15620001825787519363f2fde38b60e01b85528185015281848481838d5af19a8b156200052f57899a9b99979899620004d7575b50505050507f6596c1670eb3390048d23721809c3da5d3f531375ac0e2cab0f77a808ed6433191620004ce620004c0928751938493898552898501906200068d565b908382038b8501526200068d565b0390a351908152f35b909192938095969750116200051f57505050845284919081620004ce620004c07f6596c1670eb3390048d23721809c3da5d3f531375ac0e2cab0f77a808ed64331386200047e565b634e487b7160e01b825260419052fd5b88513d84823e3d90fd5b8a81813d83116200056b575b62000551818362000609565b810103126200015357518015150362000182573862000447565b503d62000545565b89513d85823e3d90fd5b634e487b7160e01b885260418a528888fd5b8a513d86823e3d90fd5b634e487b7160e01b8752604189528787fd5b8680fd5b84903462000182578160031936011262000182576001546001600160a01b03168152602090f35b6040810190811067ffffffffffffffff821117620005f357604052565b634e487b7160e01b600052604160045260246000fd5b90601f8019910116810190811067ffffffffffffffff821117620005f357604052565b81601f82011215620006885780359067ffffffffffffffff8211620005f3576040519262000665601f8401601f19166020018562000609565b828452602083830101116200068857816000926020809301838601378301015290565b600080fd5b919082519283825260005b848110620006ba575050826000602080949584010152601f8019910116010190565b60208183018101518483018201520162000698565b6001600160a01b039091168152604060208201819052620006f3929101906200068d565b90565b6000546001600160a01b031633036200070b57565b606460405162461bcd60e51b815260206004820152602060248201527f4f776e61626c653a2063616c6c6572206973206e6f7420746865206f776e65726044820152fdfe60806040908082526106728038038091610019828561034d565b8339810190828183031261023f5761003081610370565b6020828101516001600160401b039391929184821161023f57019084601f8301121561023f5781519161006283610384565b9261006f8851948561034d565b8084528484019685828401011161023f57868561008c930161039f565b803b156102fb578551635c60da1b60e01b80825292916001600160a01b0316908481600481855afa9081156102f0576000916102bb575b503b1561025e577fa3f0ad74e5423aebfd80d3ef4346578335a9a72aeaee59ff6cb3582b35133d5080546001600160a01b03191682179055865192817f1cf3b03a6cf19fa2baba4df148e9dcabedea7f8a5c07840e207e5c089be95d3e600080a2825115801590610256575b610142575b87516101fc90816104768239f35b6004848693819382525afa91821561024b5760009261020f575b5085519360608501908111858210176101f9578652602784527f416464726573733a206c6f772d6c6576656c2064656c65676174652063616c6c83850152660819985a5b195960ca1b84870152516101e3946000918291845af4903d156101f0573d6101c781610384565b906101d48851928361034d565b8152600081943d92013e6103c2565b5038808080808080610134565b606092506103c2565b634e487b7160e01b600052604160045260246000fd5b9091508281813d8311610244575b610227818361034d565b8101031261023f5761023890610370565b903861015c565b600080fd5b503d61021d565b86513d6000823e3d90fd5b50600061012f565b865162461bcd60e51b815260048101859052603060248201527f455243313936373a20626561636f6e20696d706c656d656e746174696f6e206960448201526f1cc81b9bdd08184818dbdb9d1c9858dd60821b6064820152608490fd5b90508481813d83116102e9575b6102d2818361034d565b8101031261023f576102e390610370565b386100c3565b503d6102c8565b88513d6000823e3d90fd5b855162461bcd60e51b815260048101849052602560248201527f455243313936373a206e657720626561636f6e206973206e6f74206120636f6e6044820152641d1c9858dd60da1b6064820152608490fd5b601f909101601f19168101906001600160401b038211908210176101f957604052565b51906001600160a01b038216820361023f57565b6001600160401b0381116101f957601f01601f191660200190565b60005b8381106103b25750506000910152565b81810151838201526020016103a2565b9192901561042457508151156103d6575090565b3b156103df5790565b60405162461bcd60e51b815260206004820152601d60248201527f416464726573733a2063616c6c20746f206e6f6e2d636f6e74726163740000006044820152606490fd5b8251909150156104375750805190602001fd5b6044604051809262461bcd60e51b825260206004830152610467815180928160248601526020868601910161039f565b601f01601f19168101030190fdfe608080604052366100c7577fa3f0ad74e5423aebfd80d3ef4346578335a9a72aeaee59ff6cb3582b35133d5054635c60da1b60e01b8252602090829060049082906001600160a01b03165afa9081156100bb57600091610060575b506101a7565b905060203d6020116100b4575b601f8101601f191682019167ffffffffffffffff83118184101761009e576100989260405201610161565b3861005a565b634e487b7160e01b600052604160045260246000fd5b503d61006d565b6040513d6000823e3d90fd5b7fa3f0ad74e5423aebfd80d3ef4346578335a9a72aeaee59ff6cb3582b35133d5054604051635c60da1b60e01b815290602090829060049082906001600160a01b03165afa9081156100bb5760009161012057506101a7565b602091503d8211610159575b601f8201601f191681019167ffffffffffffffff83118284101761009e5761009892604052810190610188565b3d915061012c565b602090607f190112610183576080516001600160a01b03811681036101835790565b600080fd5b9081602091031261018357516001600160a01b03811681036101835790565b6000808092368280378136915af43d82803e156101c2573d90f35b3d90fdfea264697066735822122054f1b4463bccdc05c56deee162ca6730ff9d30ee0b3fc732b7a0d6a6da3ea58564736f6c63430008160033a2646970667358221220850cc53779db42882ce413ef85b141cbffdab9f9a7775c49e32d8935891a8b0864736f6c6343000816003360803461011a57601f61045a38819003918201601f19168301916001600160401b0383118484101761011f5780849260209460405283398101031261011a57516001600160a01b03808216919082820361011a576000549160018060a01b0319923384821617600055604051923391167f8be0079c531659141344cd1fd0a4f28419497f9722a3daafe3b4186f6b6457e0600080a33b156100b25750600154161760015560405161032490816101368239f35b62461bcd60e51b815260206004820152603360248201527f5570677261646561626c65426561636f6e3a20696d706c656d656e746174696f60448201527f6e206973206e6f74206120636f6e7472616374000000000000000000000000006064820152608490fd5b600080fd5b634e487b7160e01b600052604160045260246000fdfe6080604052600436101561001257600080fd5b6000803560e01c80633659cfe6146101c75780635c60da1b1461019e578063715018a6146101445780638da5cb5b1461011d5763f2fde38b1461005457600080fd5b3461011a57602036600319011261011a576004356001600160a01b038181169182900361011657610083610296565b81156100c25782546001600160a01b0319811683178455167f8be0079c531659141344cd1fd0a4f28419497f9722a3daafe3b4186f6b6457e08380a380f35b60405162461bcd60e51b815260206004820152602660248201527f4f776e61626c653a206e6577206f776e657220697320746865207a65726f206160448201526564647265737360d01b6064820152608490fd5b8280fd5b80fd5b503461011a578060031936011261011a57546040516001600160a01b039091168152602090f35b503461011a578060031936011261011a5761015d610296565b80546001600160a01b03198116825581906001600160a01b03167f8be0079c531659141344cd1fd0a4f28419497f9722a3daafe3b4186f6b6457e08280a380f35b503461011a578060031936011261011a576001546040516001600160a01b039091168152602090f35b503461011a57602036600319011261011a576004356001600160a01b03811690818103610116576101f6610296565b3b1561023557600180546001600160a01b031916821790557fbc7cd75a20ee27fd9adebab32041f755214dbc6bffa90cc0225b39da2e5c2d3b8280a280f35b60405162461bcd60e51b815260206004820152603360248201527f5570677261646561626c65426561636f6e3a20696d706c656d656e746174696f6044820152721b881a5cc81b9bdd08184818dbdb9d1c9858dd606a1b6064820152608490fd5b6000546001600160a01b031633036102aa57565b606460405162461bcd60e51b815260206004820152602060248201527f4f776e61626c653a2063616c6c6572206973206e6f7420746865206f776e65726044820152fdfea2646970667358221220c17a697fa218ab66e1832a9cb889fea738e8787d12399361a9390095dd8fa1f464736f6c63430008160033","opcodes":"PUSH1 0x80 CALLVALUE PUSH2 0x20B JUMPI PUSH1 0x1F PUSH3 0x14E6 CODESIZE DUP2 SWAP1 SUB SWAP2 DUP3 ADD PUSH1 0x1F NOT AND DUP4 ADD SWAP3 PUSH1 0x0 SWAP3 PUSH1 0x1 PUSH1 0x1 PUSH1 0x40 SHL SUB SWAP3 DUP4 DUP7 GT DUP4 DUP8 LT OR PUSH2 0x1F7 JUMPI DUP2 PUSH1 0x60 SWAP3 DUP5 SWAP3 PUSH1 0x40 SWAP9 DUP10 MSTORE DUP4 CODECOPY DUP2 ADD SUB SLT PUSH2 0x1F3 JUMPI PUSH2 0x4F DUP2 PUSH2 0x239 JUMP JUMPDEST SWAP2 PUSH2 0x67 DUP6 PUSH2 0x60 PUSH1 0x20 DUP6 ADD PUSH2 0x239 JUMP JUMPDEST SWAP4 ADD PUSH2 0x239 JUMP JUMPDEST SWAP1 PUSH2 0x71 CALLER PUSH2 0x24D JUMP JUMPDEST PUSH2 0x7A DUP5 PUSH2 0x24D JUMP JUMPDEST PUSH1 0x1 DUP1 PUSH1 0xA0 SHL SUB DUP1 SWAP4 AND SWAP1 DUP4 PUSH1 0x1 DUP1 PUSH1 0xA0 SHL SUB NOT SWAP4 DUP4 DUP6 PUSH1 0x1 SLOAD AND OR PUSH1 0x1 SSTORE AND DUP4 PUSH1 0x2 SLOAD AND OR PUSH1 0x2 SSTORE DUP7 MLOAD PUSH2 0x45A SWAP1 DUP2 DUP2 ADD DUP2 DUP2 LT DUP5 DUP3 GT OR PUSH2 0x1D5 JUMPI DUP2 PUSH1 0x20 SWAP2 PUSH3 0x108C SWAP7 DUP6 DUP9 DUP5 CODECOPY DUP2 MSTORE SUB ADD SWAP1 DUP9 CREATE DUP1 ISZERO PUSH2 0x1E9 JUMPI DUP6 AND DUP5 PUSH1 0x3 SLOAD AND OR PUSH1 0x3 SSTORE DUP5 PUSH1 0x2 SLOAD AND SWAP1 DUP9 MLOAD SWAP4 DUP2 DUP6 ADD SWAP4 DUP6 DUP6 LT SWAP1 DUP6 GT OR PUSH2 0x1D5 JUMPI SWAP2 PUSH1 0x20 SWAP4 SWAP2 DUP6 SWAP4 DUP5 CODECOPY DUP2 MSTORE SUB ADD SWAP1 DUP6 CREATE DUP1 ISZERO PUSH2 0x1CB JUMPI DUP3 AND SWAP1 PUSH1 0x4 SLOAD AND OR PUSH1 0x4 SSTORE DUP1 PUSH1 0x3 SLOAD AND SWAP1 DUP2 EXTCODESIZE ISZERO PUSH2 0x1AA JUMPI DUP5 MLOAD DUP5 DUP2 PUSH1 0x24 DUP2 DUP4 DUP7 PUSH4 0xF2FDE38B PUSH1 0xE0 SHL SWAP10 DUP11 DUP5 MSTORE AND SWAP8 DUP9 PUSH1 0x4 DUP5 ADD MSTORE GAS CALL DUP1 ISZERO PUSH2 0x1C1 JUMPI PUSH2 0x1AE JUMPI JUMPDEST POP PUSH1 0x4 SLOAD AND SWAP2 DUP3 EXTCODESIZE ISZERO PUSH2 0x1AA JUMPI SWAP1 PUSH1 0x24 DUP5 SWAP3 DUP4 DUP8 MLOAD SWAP6 DUP7 SWAP5 DUP6 SWAP4 DUP5 MSTORE PUSH1 0x4 DUP5 ADD MSTORE GAS CALL DUP1 ISZERO PUSH2 0x1A0 JUMPI PUSH2 0x189 JUMPI JUMPDEST DUP3 MLOAD PUSH2 0xDF7 SWAP1 DUP2 PUSH3 0x295 DUP3 CODECOPY RETURN JUMPDEST PUSH2 0x193 DUP3 SWAP2 PUSH2 0x210 JUMP JUMPDEST PUSH2 0x19D JUMPI DUP1 PUSH2 0x17A JUMP JUMPDEST DUP1 REVERT JUMPDEST DUP4 MLOAD RETURNDATASIZE DUP5 DUP3 RETURNDATACOPY RETURNDATASIZE SWAP1 REVERT JUMPDEST DUP4 DUP1 REVERT JUMPDEST PUSH2 0x1BA SWAP1 SWAP5 SWAP2 SWAP5 PUSH2 0x210 JUMP JUMPDEST SWAP3 CODESIZE PUSH2 0x14C JUMP JUMPDEST DUP7 MLOAD RETURNDATASIZE DUP8 DUP3 RETURNDATACOPY RETURNDATASIZE SWAP1 REVERT JUMPDEST DUP6 MLOAD RETURNDATASIZE DUP7 DUP3 RETURNDATACOPY RETURNDATASIZE SWAP1 REVERT JUMPDEST PUSH4 0x4E487B71 PUSH1 0xE0 SHL DUP10 MSTORE PUSH1 0x41 PUSH1 0x4 MSTORE PUSH1 0x24 DUP10 REVERT JUMPDEST DUP9 MLOAD RETURNDATASIZE DUP10 DUP3 RETURNDATACOPY RETURNDATASIZE SWAP1 REVERT JUMPDEST DUP3 DUP1 REVERT JUMPDEST PUSH4 0x4E487B71 PUSH1 0xE0 SHL DUP6 MSTORE PUSH1 0x41 PUSH1 0x4 MSTORE PUSH1 0x24 DUP6 REVERT JUMPDEST PUSH1 0x0 DUP1 REVERT JUMPDEST PUSH1 0x1 PUSH1 0x1 PUSH1 0x40 SHL SUB DUP2 GT PUSH2 0x223 JUMPI PUSH1 0x40 MSTORE JUMP JUMPDEST PUSH4 0x4E487B71 PUSH1 0xE0 SHL PUSH1 0x0 MSTORE PUSH1 0x41 PUSH1 0x4 MSTORE PUSH1 0x24 PUSH1 0x0 REVERT JUMPDEST MLOAD SWAP1 PUSH1 0x1 PUSH1 0x1 PUSH1 0xA0 SHL SUB DUP3 AND DUP3 SUB PUSH2 0x20B JUMPI JUMP JUMPDEST PUSH1 0x0 DUP1 SLOAD PUSH1 0x1 PUSH1 0x1 PUSH1 0xA0 SHL SUB SWAP3 DUP4 AND PUSH1 0x1 PUSH1 0x1 PUSH1 0xA0 SHL SUB NOT DUP3 AND DUP2 OR DUP4 SSTORE SWAP3 AND SWAP1 PUSH32 0x8BE0079C531659141344CD1FD0A4F28419497F9722A3DAAFE3B4186F6B6457E0 SWAP1 DUP1 LOG3 JUMP INVALID PUSH1 0x80 PUSH1 0x40 DUP2 DUP2 MSTORE PUSH1 0x4 SWAP1 DUP2 CALLDATASIZE LT ISZERO PUSH3 0x17 JUMPI PUSH1 0x0 DUP1 REVERT JUMPDEST PUSH1 0x0 SWAP3 DUP4 CALLDATALOAD PUSH1 0xE0 SHR SWAP1 DUP2 PUSH4 0x2F3A3D5D EQ PUSH3 0x5AF JUMPI POP DUP1 PUSH4 0x34F359F9 EQ PUSH3 0x266 JUMPI DUP1 PUSH4 0x715018A6 EQ PUSH3 0x205 JUMPI DUP1 PUSH4 0x8008334C EQ PUSH3 0x1DA JUMPI DUP1 PUSH4 0x8DA5CB5B EQ PUSH3 0x1B0 JUMPI DUP1 PUSH4 0x9651D0A8 EQ PUSH3 0x186 JUMPI DUP1 PUSH4 0xCCF5A77C EQ PUSH3 0x157 JUMPI PUSH4 0xF2FDE38B EQ PUSH3 0x85 JUMPI PUSH1 0x0 DUP1 REVERT JUMPDEST CALLVALUE PUSH3 0x153 JUMPI PUSH1 0x20 CALLDATASIZE PUSH1 0x3 NOT ADD SLT PUSH3 0x153 JUMPI PUSH1 0x1 PUSH1 0x1 PUSH1 0xA0 SHL SUB DUP3 CALLDATALOAD DUP2 DUP2 AND SWAP4 SWAP2 SWAP3 SWAP1 DUP5 SWAP1 SUB PUSH3 0x14F JUMPI PUSH3 0xBB PUSH3 0x6F6 JUMP JUMPDEST DUP4 ISZERO PUSH3 0xFD JUMPI POP POP DUP3 SLOAD PUSH1 0x1 PUSH1 0x1 PUSH1 0xA0 SHL SUB NOT DUP2 AND DUP4 OR DUP5 SSTORE AND PUSH32 0x8BE0079C531659141344CD1FD0A4F28419497F9722A3DAAFE3B4186F6B6457E0 DUP4 DUP1 LOG3 DUP1 RETURN JUMPDEST SWAP1 PUSH1 0x20 PUSH1 0x84 SWAP3 MLOAD SWAP2 PUSH3 0x461BCD PUSH1 0xE5 SHL DUP4 MSTORE DUP3 ADD MSTORE PUSH1 0x26 PUSH1 0x24 DUP3 ADD MSTORE PUSH32 0x4F776E61626C653A206E6577206F776E657220697320746865207A65726F2061 PUSH1 0x44 DUP3 ADD MSTORE PUSH6 0x646472657373 PUSH1 0xD0 SHL PUSH1 0x64 DUP3 ADD MSTORE REVERT JUMPDEST DUP5 DUP1 REVERT JUMPDEST DUP3 DUP1 REVERT JUMPDEST DUP4 DUP3 CALLVALUE PUSH3 0x182 JUMPI DUP2 PUSH1 0x3 NOT CALLDATASIZE ADD SLT PUSH3 0x182 JUMPI PUSH1 0x3 SLOAD SWAP1 MLOAD PUSH1 0x1 PUSH1 0x1 PUSH1 0xA0 SHL SUB SWAP1 SWAP2 AND DUP2 MSTORE PUSH1 0x20 SWAP1 RETURN JUMPDEST POP DUP1 REVERT JUMPDEST POP SWAP1 CALLVALUE PUSH3 0x153 JUMPI DUP3 PUSH1 0x3 NOT CALLDATASIZE ADD SLT PUSH3 0x153 JUMPI SLOAD SWAP1 MLOAD PUSH1 0x1 PUSH1 0x1 PUSH1 0xA0 SHL SUB SWAP1 SWAP2 AND DUP2 MSTORE PUSH1 0x20 SWAP2 POP RETURN JUMPDEST DUP4 DUP3 CALLVALUE PUSH3 0x182 JUMPI DUP2 PUSH1 0x3 NOT CALLDATASIZE ADD SLT PUSH3 0x182 JUMPI SWAP1 SLOAD SWAP1 MLOAD PUSH1 0x1 PUSH1 0x1 PUSH1 0xA0 SHL SUB SWAP1 SWAP2 AND DUP2 MSTORE PUSH1 0x20 SWAP1 RETURN JUMPDEST DUP4 DUP3 CALLVALUE PUSH3 0x182 JUMPI DUP2 PUSH1 0x3 NOT CALLDATASIZE ADD SLT PUSH3 0x182 JUMPI PUSH1 0x2 SLOAD SWAP1 MLOAD PUSH1 0x1 PUSH1 0x1 PUSH1 0xA0 SHL SUB SWAP1 SWAP2 AND DUP2 MSTORE PUSH1 0x20 SWAP1 RETURN JUMPDEST DUP4 CALLVALUE PUSH3 0x263 JUMPI DUP1 PUSH1 0x3 NOT CALLDATASIZE ADD SLT PUSH3 0x263 JUMPI PUSH3 0x222 PUSH3 0x6F6 JUMP JUMPDEST DUP1 SLOAD PUSH1 0x1 PUSH1 0x1 PUSH1 0xA0 SHL SUB NOT DUP2 AND DUP3 SSTORE DUP2 SWAP1 PUSH1 0x1 PUSH1 0x1 PUSH1 0xA0 SHL SUB AND PUSH32 0x8BE0079C531659141344CD1FD0A4F28419497F9722A3DAAFE3B4186F6B6457E0 DUP3 DUP1 LOG3 DUP1 RETURN JUMPDEST DUP1 REVERT JUMPDEST POP SWAP2 CALLVALUE PUSH3 0x263 JUMPI PUSH1 0x80 CALLDATASIZE PUSH1 0x3 NOT ADD SLT PUSH3 0x263 JUMPI PUSH8 0xFFFFFFFFFFFFFFFF SWAP3 DUP3 CALLDATALOAD DUP5 DUP2 GT PUSH3 0x153 JUMPI PUSH3 0x29E SWAP1 CALLDATASIZE SWAP1 DUP6 ADD PUSH3 0x62C JUMP JUMPDEST SWAP3 PUSH1 0x24 SWAP4 DUP5 CALLDATALOAD DUP7 DUP2 GT PUSH3 0x14F JUMPI PUSH3 0x2BB SWAP1 CALLDATASIZE SWAP1 DUP5 ADD PUSH3 0x62C JUMP JUMPDEST PUSH1 0x1 PUSH1 0x1 PUSH1 0xA0 SHL SUB SWAP6 PUSH1 0x64 CALLDATALOAD DUP8 DUP2 AND SWAP5 SWAP2 SWAP1 DUP6 SWAP1 SUB PUSH3 0x5AB JUMPI DUP6 MLOAD SWAP7 PUSH1 0x20 SWAP9 PUSH4 0x5E9D09FB PUSH1 0xE1 SHL DUP11 DUP11 ADD MSTORE PUSH1 0x80 DUP4 DUP11 ADD MSTORE DUP11 DUP10 PUSH3 0x315 PUSH3 0x302 PUSH1 0xA4 DUP4 ADD DUP11 PUSH3 0x68D JUMP JUMPDEST DUP3 DUP2 SUB PUSH1 0x23 NOT ADD PUSH1 0x44 DUP5 ADD MSTORE DUP9 PUSH3 0x68D JUMP JUMPDEST PUSH1 0x44 CALLDATALOAD PUSH1 0x64 DUP4 ADD MSTORE DUP10 PUSH1 0x84 DUP4 ADD MSTORE SUB SWAP10 PUSH3 0x339 PUSH1 0x1F NOT SWAP12 DUP13 DUP2 ADD DUP4 MSTORE DUP3 PUSH3 0x609 JUMP JUMPDEST DUP3 PUSH1 0x3 SLOAD AND SWAP1 DUP11 MLOAD SWAP1 PUSH2 0x672 SWAP3 DUP4 DUP4 ADD SWAP5 DUP4 DUP7 LT SWAP1 DUP7 GT OR PUSH3 0x599 JUMPI DUP3 SWAP2 PUSH3 0x36C SWAP2 PUSH3 0x750 SWAP7 DUP7 DUP9 DUP7 CODECOPY PUSH3 0x6CF JUMP JUMPDEST SUB SWAP1 DUP6 CREATE DUP1 ISZERO PUSH3 0x58F JUMPI SWAP1 DUP4 DUP14 SWAP3 AND SWAP12 DUP11 DUP13 MLOAD SWAP4 DUP5 ADD MSTORE DUP14 DUP4 MSTORE PUSH3 0x392 DUP4 PUSH3 0x5D6 JUMP JUMPDEST DUP14 DUP14 DUP14 MLOAD SWAP5 DUP6 SWAP3 PUSH4 0x347D5E25 PUSH1 0xE2 SHL SWAP1 DUP5 ADD MSTORE DUP10 DUP4 ADD SWAP2 PUSH3 0x3B4 SWAP3 PUSH3 0x6CF JUMP JUMPDEST SUB SWAP1 DUP2 ADD DUP4 MSTORE PUSH3 0x3C6 SWAP1 DUP4 PUSH3 0x609 JUMP JUMPDEST DUP14 DUP5 DUP9 SLOAD AND SWAP2 DUP13 MLOAD SWAP5 DUP2 DUP7 ADD SWAP3 DUP7 DUP5 LT SWAP1 DUP5 GT OR PUSH3 0x57D JUMPI SWAP2 PUSH3 0x3F1 SWAP4 SWAP2 DUP7 SWAP6 SWAP4 DUP7 CODECOPY PUSH3 0x6CF JUMP JUMPDEST SUB SWAP1 DUP4 CREATE DUP1 ISZERO PUSH3 0x52F JUMPI AND SWAP3 DUP2 DUP11 PUSH3 0x436 DUP12 DUP12 MLOAD DUP12 DUP5 DUP3 ADD MSTORE DUP4 DUP2 MSTORE PUSH3 0x41A DUP2 PUSH3 0x5D6 JUMP JUMPDEST DUP13 MLOAD SWAP5 DUP6 DUP1 SWAP5 DUP2 SWAP4 PUSH4 0xB74E9E3 PUSH1 0xE2 SHL DUP4 MSTORE DUP13 DUP11 DUP5 ADD PUSH3 0x6CF JUMP JUMPDEST SUB SWAP3 GAS CALL DUP1 ISZERO PUSH3 0x573 JUMPI PUSH3 0x539 JUMPI JUMPDEST POP DUP9 EXTCODESIZE ISZERO PUSH3 0x182 JUMPI DUP8 MLOAD SWAP4 PUSH4 0xF2FDE38B PUSH1 0xE0 SHL DUP6 MSTORE DUP2 DUP6 ADD MSTORE DUP2 DUP5 DUP5 DUP2 DUP4 DUP14 GAS CALL SWAP11 DUP12 ISZERO PUSH3 0x52F JUMPI DUP10 SWAP11 SWAP12 SWAP10 SWAP8 SWAP9 SWAP10 PUSH3 0x4D7 JUMPI JUMPDEST POP POP POP POP POP PUSH32 0x6596C1670EB3390048D23721809C3DA5D3F531375AC0E2CAB0F77A808ED64331 SWAP2 PUSH3 0x4CE PUSH3 0x4C0 SWAP3 DUP8 MLOAD SWAP4 DUP5 SWAP4 DUP10 DUP6 MSTORE DUP10 DUP6 ADD SWAP1 PUSH3 0x68D JUMP JUMPDEST SWAP1 DUP4 DUP3 SUB DUP12 DUP6 ADD MSTORE PUSH3 0x68D JUMP JUMPDEST SUB SWAP1 LOG3 MLOAD SWAP1 DUP2 MSTORE RETURN JUMPDEST SWAP1 SWAP2 SWAP3 SWAP4 DUP1 SWAP6 SWAP7 SWAP8 POP GT PUSH3 0x51F JUMPI POP POP POP DUP5 MSTORE DUP5 SWAP2 SWAP1 DUP2 PUSH3 0x4CE PUSH3 0x4C0 PUSH32 0x6596C1670EB3390048D23721809C3DA5D3F531375AC0E2CAB0F77A808ED64331 CODESIZE PUSH3 0x47E JUMP JUMPDEST PUSH4 0x4E487B71 PUSH1 0xE0 SHL DUP3 MSTORE PUSH1 0x41 SWAP1 MSTORE REVERT JUMPDEST DUP9 MLOAD RETURNDATASIZE DUP5 DUP3 RETURNDATACOPY RETURNDATASIZE SWAP1 REVERT JUMPDEST DUP11 DUP2 DUP2 RETURNDATASIZE DUP4 GT PUSH3 0x56B JUMPI JUMPDEST PUSH3 0x551 DUP2 DUP4 PUSH3 0x609 JUMP JUMPDEST DUP2 ADD SUB SLT PUSH3 0x153 JUMPI MLOAD DUP1 ISZERO ISZERO SUB PUSH3 0x182 JUMPI CODESIZE PUSH3 0x447 JUMP JUMPDEST POP RETURNDATASIZE PUSH3 0x545 JUMP JUMPDEST DUP10 MLOAD RETURNDATASIZE DUP6 DUP3 RETURNDATACOPY RETURNDATASIZE SWAP1 REVERT JUMPDEST PUSH4 0x4E487B71 PUSH1 0xE0 SHL DUP9 MSTORE PUSH1 0x41 DUP11 MSTORE DUP9 DUP9 REVERT JUMPDEST DUP11 MLOAD RETURNDATASIZE DUP7 DUP3 RETURNDATACOPY RETURNDATASIZE SWAP1 REVERT JUMPDEST PUSH4 0x4E487B71 PUSH1 0xE0 SHL DUP8 MSTORE PUSH1 0x41 DUP10 MSTORE DUP8 DUP8 REVERT JUMPDEST DUP7 DUP1 REVERT JUMPDEST DUP5 SWAP1 CALLVALUE PUSH3 0x182 JUMPI DUP2 PUSH1 0x3 NOT CALLDATASIZE ADD SLT PUSH3 0x182 JUMPI PUSH1 0x1 SLOAD PUSH1 0x1 PUSH1 0x1 PUSH1 0xA0 SHL SUB AND DUP2 MSTORE PUSH1 0x20 SWAP1 RETURN JUMPDEST PUSH1 0x40 DUP2 ADD SWAP1 DUP2 LT PUSH8 0xFFFFFFFFFFFFFFFF DUP3 GT OR PUSH3 0x5F3 JUMPI PUSH1 0x40 MSTORE JUMP JUMPDEST PUSH4 0x4E487B71 PUSH1 0xE0 SHL PUSH1 0x0 MSTORE PUSH1 0x41 PUSH1 0x4 MSTORE PUSH1 0x24 PUSH1 0x0 REVERT JUMPDEST SWAP1 PUSH1 0x1F DUP1 NOT SWAP2 ADD AND DUP2 ADD SWAP1 DUP2 LT PUSH8 0xFFFFFFFFFFFFFFFF DUP3 GT OR PUSH3 0x5F3 JUMPI PUSH1 0x40 MSTORE JUMP JUMPDEST DUP2 PUSH1 0x1F DUP3 ADD SLT ISZERO PUSH3 0x688 JUMPI DUP1 CALLDATALOAD SWAP1 PUSH8 0xFFFFFFFFFFFFFFFF DUP3 GT PUSH3 0x5F3 JUMPI PUSH1 0x40 MLOAD SWAP3 PUSH3 0x665 PUSH1 0x1F DUP5 ADD PUSH1 0x1F NOT AND PUSH1 0x20 ADD DUP6 PUSH3 0x609 JUMP JUMPDEST DUP3 DUP5 MSTORE PUSH1 0x20 DUP4 DUP4 ADD ADD GT PUSH3 0x688 JUMPI DUP2 PUSH1 0x0 SWAP3 PUSH1 0x20 DUP1 SWAP4 ADD DUP4 DUP7 ADD CALLDATACOPY DUP4 ADD ADD MSTORE SWAP1 JUMP JUMPDEST PUSH1 0x0 DUP1 REVERT JUMPDEST SWAP2 SWAP1 DUP3 MLOAD SWAP3 DUP4 DUP3 MSTORE PUSH1 0x0 JUMPDEST DUP5 DUP2 LT PUSH3 0x6BA JUMPI POP POP DUP3 PUSH1 0x0 PUSH1 0x20 DUP1 SWAP5 SWAP6 DUP5 ADD ADD MSTORE PUSH1 0x1F DUP1 NOT SWAP2 ADD AND ADD ADD SWAP1 JUMP JUMPDEST PUSH1 0x20 DUP2 DUP4 ADD DUP2 ADD MLOAD DUP5 DUP4 ADD DUP3 ADD MSTORE ADD PUSH3 0x698 JUMP JUMPDEST PUSH1 0x1 PUSH1 0x1 PUSH1 0xA0 SHL SUB SWAP1 SWAP2 AND DUP2 MSTORE PUSH1 0x40 PUSH1 0x20 DUP3 ADD DUP2 SWAP1 MSTORE PUSH3 0x6F3 SWAP3 SWAP2 ADD SWAP1 PUSH3 0x68D JUMP JUMPDEST SWAP1 JUMP JUMPDEST PUSH1 0x0 SLOAD PUSH1 0x1 PUSH1 0x1 PUSH1 0xA0 SHL SUB AND CALLER SUB PUSH3 0x70B JUMPI JUMP JUMPDEST PUSH1 0x64 PUSH1 0x40 MLOAD PUSH3 0x461BCD PUSH1 0xE5 SHL DUP2 MSTORE PUSH1 0x20 PUSH1 0x4 DUP3 ADD MSTORE PUSH1 0x20 PUSH1 0x24 DUP3 ADD MSTORE PUSH32 0x4F776E61626C653A2063616C6C6572206973206E6F7420746865206F776E6572 PUSH1 0x44 DUP3 ADD MSTORE REVERT INVALID PUSH1 0x80 PUSH1 0x40 SWAP1 DUP1 DUP3 MSTORE PUSH2 0x672 DUP1 CODESIZE SUB DUP1 SWAP2 PUSH2 0x19 DUP3 DUP6 PUSH2 0x34D JUMP JUMPDEST DUP4 CODECOPY DUP2 ADD SWAP1 DUP3 DUP2 DUP4 SUB SLT PUSH2 0x23F JUMPI PUSH2 0x30 DUP2 PUSH2 0x370 JUMP JUMPDEST PUSH1 0x20 DUP3 DUP2 ADD MLOAD PUSH1 0x1 PUSH1 0x1 PUSH1 0x40 SHL SUB SWAP4 SWAP2 SWAP3 SWAP2 DUP5 DUP3 GT PUSH2 0x23F JUMPI ADD SWAP1 DUP5 PUSH1 0x1F DUP4 ADD SLT ISZERO PUSH2 0x23F JUMPI DUP2 MLOAD SWAP2 PUSH2 0x62 DUP4 PUSH2 0x384 JUMP JUMPDEST SWAP3 PUSH2 0x6F DUP9 MLOAD SWAP5 DUP6 PUSH2 0x34D JUMP JUMPDEST DUP1 DUP5 MSTORE DUP5 DUP5 ADD SWAP7 DUP6 DUP3 DUP5 ADD ADD GT PUSH2 0x23F JUMPI DUP7 DUP6 PUSH2 0x8C SWAP4 ADD PUSH2 0x39F JUMP JUMPDEST DUP1 EXTCODESIZE ISZERO PUSH2 0x2FB JUMPI DUP6 MLOAD PUSH4 0x5C60DA1B PUSH1 0xE0 SHL DUP1 DUP3 MSTORE SWAP3 SWAP2 PUSH1 0x1 PUSH1 0x1 PUSH1 0xA0 SHL SUB AND SWAP1 DUP5 DUP2 PUSH1 0x4 DUP2 DUP6 GAS STATICCALL SWAP1 DUP2 ISZERO PUSH2 0x2F0 JUMPI PUSH1 0x0 SWAP2 PUSH2 0x2BB JUMPI JUMPDEST POP EXTCODESIZE ISZERO PUSH2 0x25E JUMPI PUSH32 0xA3F0AD74E5423AEBFD80D3EF4346578335A9A72AEAEE59FF6CB3582B35133D50 DUP1 SLOAD PUSH1 0x1 PUSH1 0x1 PUSH1 0xA0 SHL SUB NOT AND DUP3 OR SWAP1 SSTORE DUP7 MLOAD SWAP3 DUP2 PUSH32 0x1CF3B03A6CF19FA2BABA4DF148E9DCABEDEA7F8A5C07840E207E5C089BE95D3E PUSH1 0x0 DUP1 LOG2 DUP3 MLOAD ISZERO DUP1 ISZERO SWAP1 PUSH2 0x256 JUMPI JUMPDEST PUSH2 0x142 JUMPI JUMPDEST DUP8 MLOAD PUSH2 0x1FC SWAP1 DUP2 PUSH2 0x476 DUP3 CODECOPY RETURN JUMPDEST PUSH1 0x4 DUP5 DUP7 SWAP4 DUP2 SWAP4 DUP3 MSTORE GAS STATICCALL SWAP2 DUP3 ISZERO PUSH2 0x24B JUMPI PUSH1 0x0 SWAP3 PUSH2 0x20F JUMPI JUMPDEST POP DUP6 MLOAD SWAP4 PUSH1 0x60 DUP6 ADD SWAP1 DUP2 GT DUP6 DUP3 LT OR PUSH2 0x1F9 JUMPI DUP7 MSTORE PUSH1 0x27 DUP5 MSTORE PUSH32 0x416464726573733A206C6F772D6C6576656C2064656C65676174652063616C6C DUP4 DUP6 ADD MSTORE PUSH7 0x819985A5B1959 PUSH1 0xCA SHL DUP5 DUP8 ADD MSTORE MLOAD PUSH2 0x1E3 SWAP5 PUSH1 0x0 SWAP2 DUP3 SWAP2 DUP5 GAS DELEGATECALL SWAP1 RETURNDATASIZE ISZERO PUSH2 0x1F0 JUMPI RETURNDATASIZE PUSH2 0x1C7 DUP2 PUSH2 0x384 JUMP JUMPDEST SWAP1 PUSH2 0x1D4 DUP9 MLOAD SWAP3 DUP4 PUSH2 0x34D JUMP JUMPDEST DUP2 MSTORE PUSH1 0x0 DUP2 SWAP5 RETURNDATASIZE SWAP3 ADD RETURNDATACOPY PUSH2 0x3C2 JUMP JUMPDEST POP CODESIZE DUP1 DUP1 DUP1 DUP1 DUP1 DUP1 PUSH2 0x134 JUMP JUMPDEST PUSH1 0x60 SWAP3 POP PUSH2 0x3C2 JUMP JUMPDEST PUSH4 0x4E487B71 PUSH1 0xE0 SHL PUSH1 0x0 MSTORE PUSH1 0x41 PUSH1 0x4 MSTORE PUSH1 0x24 PUSH1 0x0 REVERT JUMPDEST SWAP1 SWAP2 POP DUP3 DUP2 DUP2 RETURNDATASIZE DUP4 GT PUSH2 0x244 JUMPI JUMPDEST PUSH2 0x227 DUP2 DUP4 PUSH2 0x34D JUMP JUMPDEST DUP2 ADD SUB SLT PUSH2 0x23F JUMPI PUSH2 0x238 SWAP1 PUSH2 0x370 JUMP JUMPDEST SWAP1 CODESIZE PUSH2 0x15C JUMP JUMPDEST PUSH1 0x0 DUP1 REVERT JUMPDEST POP RETURNDATASIZE PUSH2 0x21D JUMP JUMPDEST DUP7 MLOAD RETURNDATASIZE PUSH1 0x0 DUP3 RETURNDATACOPY RETURNDATASIZE SWAP1 REVERT JUMPDEST POP PUSH1 0x0 PUSH2 0x12F JUMP JUMPDEST DUP7 MLOAD PUSH3 0x461BCD PUSH1 0xE5 SHL DUP2 MSTORE PUSH1 0x4 DUP2 ADD DUP6 SWAP1 MSTORE PUSH1 0x30 PUSH1 0x24 DUP3 ADD MSTORE PUSH32 0x455243313936373A20626561636F6E20696D706C656D656E746174696F6E2069 PUSH1 0x44 DUP3 ADD MSTORE PUSH16 0x1CC81B9BDD08184818DBDB9D1C9858DD PUSH1 0x82 SHL PUSH1 0x64 DUP3 ADD MSTORE PUSH1 0x84 SWAP1 REVERT JUMPDEST SWAP1 POP DUP5 DUP2 DUP2 RETURNDATASIZE DUP4 GT PUSH2 0x2E9 JUMPI JUMPDEST PUSH2 0x2D2 DUP2 DUP4 PUSH2 0x34D JUMP JUMPDEST DUP2 ADD SUB SLT PUSH2 0x23F JUMPI PUSH2 0x2E3 SWAP1 PUSH2 0x370 JUMP JUMPDEST CODESIZE PUSH2 0xC3 JUMP JUMPDEST POP RETURNDATASIZE PUSH2 0x2C8 JUMP JUMPDEST DUP9 MLOAD RETURNDATASIZE PUSH1 0x0 DUP3 RETURNDATACOPY RETURNDATASIZE SWAP1 REVERT JUMPDEST DUP6 MLOAD PUSH3 0x461BCD PUSH1 0xE5 SHL DUP2 MSTORE PUSH1 0x4 DUP2 ADD DUP5 SWAP1 MSTORE PUSH1 0x25 PUSH1 0x24 DUP3 ADD MSTORE PUSH32 0x455243313936373A206E657720626561636F6E206973206E6F74206120636F6E PUSH1 0x44 DUP3 ADD MSTORE PUSH5 0x1D1C9858DD PUSH1 0xDA SHL PUSH1 0x64 DUP3 ADD MSTORE PUSH1 0x84 SWAP1 REVERT JUMPDEST PUSH1 0x1F SWAP1 SWAP2 ADD PUSH1 0x1F NOT AND DUP2 ADD SWAP1 PUSH1 0x1 PUSH1 0x1 PUSH1 0x40 SHL SUB DUP3 GT SWAP1 DUP3 LT OR PUSH2 0x1F9 JUMPI PUSH1 0x40 MSTORE JUMP JUMPDEST MLOAD SWAP1 PUSH1 0x1 PUSH1 0x1 PUSH1 0xA0 SHL SUB DUP3 AND DUP3 SUB PUSH2 0x23F JUMPI JUMP JUMPDEST PUSH1 0x1 PUSH1 0x1 PUSH1 0x40 SHL SUB DUP2 GT PUSH2 0x1F9 JUMPI PUSH1 0x1F ADD PUSH1 0x1F NOT AND PUSH1 0x20 ADD SWAP1 JUMP JUMPDEST PUSH1 0x0 JUMPDEST DUP4 DUP2 LT PUSH2 0x3B2 JUMPI POP POP PUSH1 0x0 SWAP2 ADD MSTORE JUMP JUMPDEST DUP2 DUP2 ADD MLOAD DUP4 DUP3 ADD MSTORE PUSH1 0x20 ADD PUSH2 0x3A2 JUMP JUMPDEST SWAP2 SWAP3 SWAP1 ISZERO PUSH2 0x424 JUMPI POP DUP2 MLOAD ISZERO PUSH2 0x3D6 JUMPI POP SWAP1 JUMP JUMPDEST EXTCODESIZE ISZERO PUSH2 0x3DF JUMPI SWAP1 JUMP JUMPDEST PUSH1 0x40 MLOAD PUSH3 0x461BCD PUSH1 0xE5 SHL DUP2 MSTORE PUSH1 0x20 PUSH1 0x4 DUP3 ADD MSTORE PUSH1 0x1D PUSH1 0x24 DUP3 ADD MSTORE PUSH32 0x416464726573733A2063616C6C20746F206E6F6E2D636F6E7472616374000000 PUSH1 0x44 DUP3 ADD MSTORE PUSH1 0x64 SWAP1 REVERT JUMPDEST DUP3 MLOAD SWAP1 SWAP2 POP ISZERO PUSH2 0x437 JUMPI POP DUP1 MLOAD SWAP1 PUSH1 0x20 ADD REVERT JUMPDEST PUSH1 0x44 PUSH1 0x40 MLOAD DUP1 SWAP3 PUSH3 0x461BCD PUSH1 0xE5 SHL DUP3 MSTORE PUSH1 0x20 PUSH1 0x4 DUP4 ADD MSTORE PUSH2 0x467 DUP2 MLOAD DUP1 SWAP3 DUP2 PUSH1 0x24 DUP7 ADD MSTORE PUSH1 0x20 DUP7 DUP7 ADD SWAP2 ADD PUSH2 0x39F JUMP JUMPDEST PUSH1 0x1F ADD PUSH1 0x1F NOT AND DUP2 ADD SUB ADD SWAP1 REVERT INVALID PUSH1 0x80 DUP1 PUSH1 0x40 MSTORE CALLDATASIZE PUSH2 0xC7 JUMPI PUSH32 0xA3F0AD74E5423AEBFD80D3EF4346578335A9A72AEAEE59FF6CB3582B35133D50 SLOAD PUSH4 0x5C60DA1B PUSH1 0xE0 SHL DUP3 MSTORE PUSH1 0x20 SWAP1 DUP3 SWAP1 PUSH1 0x4 SWAP1 DUP3 SWAP1 PUSH1 0x1 PUSH1 0x1 PUSH1 0xA0 SHL SUB AND GAS STATICCALL SWAP1 DUP2 ISZERO PUSH2 0xBB JUMPI PUSH1 0x0 SWAP2 PUSH2 0x60 JUMPI JUMPDEST POP PUSH2 0x1A7 JUMP JUMPDEST SWAP1 POP PUSH1 0x20 RETURNDATASIZE PUSH1 0x20 GT PUSH2 0xB4 JUMPI JUMPDEST PUSH1 0x1F DUP2 ADD PUSH1 0x1F NOT AND DUP3 ADD SWAP2 PUSH8 0xFFFFFFFFFFFFFFFF DUP4 GT DUP2 DUP5 LT OR PUSH2 0x9E JUMPI PUSH2 0x98 SWAP3 PUSH1 0x40 MSTORE ADD PUSH2 0x161 JUMP JUMPDEST CODESIZE PUSH2 0x5A JUMP JUMPDEST PUSH4 0x4E487B71 PUSH1 0xE0 SHL PUSH1 0x0 MSTORE PUSH1 0x41 PUSH1 0x4 MSTORE PUSH1 0x24 PUSH1 0x0 REVERT JUMPDEST POP RETURNDATASIZE PUSH2 0x6D JUMP JUMPDEST PUSH1 0x40 MLOAD RETURNDATASIZE PUSH1 0x0 DUP3 RETURNDATACOPY RETURNDATASIZE SWAP1 REVERT JUMPDEST PUSH32 0xA3F0AD74E5423AEBFD80D3EF4346578335A9A72AEAEE59FF6CB3582B35133D50 SLOAD PUSH1 0x40 MLOAD PUSH4 0x5C60DA1B PUSH1 0xE0 SHL DUP2 MSTORE SWAP1 PUSH1 0x20 SWAP1 DUP3 SWAP1 PUSH1 0x4 SWAP1 DUP3 SWAP1 PUSH1 0x1 PUSH1 0x1 PUSH1 0xA0 SHL SUB AND GAS STATICCALL SWAP1 DUP2 ISZERO PUSH2 0xBB JUMPI PUSH1 0x0 SWAP2 PUSH2 0x120 JUMPI POP PUSH2 0x1A7 JUMP JUMPDEST PUSH1 0x20 SWAP2 POP RETURNDATASIZE DUP3 GT PUSH2 0x159 JUMPI JUMPDEST PUSH1 0x1F DUP3 ADD PUSH1 0x1F NOT AND DUP2 ADD SWAP2 PUSH8 0xFFFFFFFFFFFFFFFF DUP4 GT DUP3 DUP5 LT OR PUSH2 0x9E JUMPI PUSH2 0x98 SWAP3 PUSH1 0x40 MSTORE DUP2 ADD SWAP1 PUSH2 0x188 JUMP JUMPDEST RETURNDATASIZE SWAP2 POP PUSH2 0x12C JUMP JUMPDEST PUSH1 0x20 SWAP1 PUSH1 0x7F NOT ADD SLT PUSH2 0x183 JUMPI PUSH1 0x80 MLOAD PUSH1 0x1 PUSH1 0x1 PUSH1 0xA0 SHL SUB DUP2 AND DUP2 SUB PUSH2 0x183 JUMPI SWAP1 JUMP JUMPDEST PUSH1 0x0 DUP1 REVERT JUMPDEST SWAP1 DUP2 PUSH1 0x20 SWAP2 SUB SLT PUSH2 0x183 JUMPI MLOAD PUSH1 0x1 PUSH1 0x1 PUSH1 0xA0 SHL SUB DUP2 AND DUP2 SUB PUSH2 0x183 JUMPI SWAP1 JUMP JUMPDEST PUSH1 0x0 DUP1 DUP1 SWAP3 CALLDATASIZE DUP3 DUP1 CALLDATACOPY DUP2 CALLDATASIZE SWAP2 GAS DELEGATECALL RETURNDATASIZE DUP3 DUP1 RETURNDATACOPY ISZERO PUSH2 0x1C2 JUMPI RETURNDATASIZE SWAP1 RETURN JUMPDEST RETURNDATASIZE SWAP1 REVERT INVALID LOG2 PUSH5 0x6970667358 0x22 SLT KECCAK256 SLOAD CALL 0xB4 CHAINID EXTCODESIZE 0xCC 0xDC SDIV 0xC5 PUSH14 0xEEE162CA6730FF9D30EE0B3FC732 0xB7 LOG0 0xD6 0xA6 0xDA RETURNDATACOPY 0xA5 DUP6 PUSH5 0x736F6C6343 STOP ADDMOD AND STOP CALLER LOG2 PUSH5 0x6970667358 0x22 SLT KECCAK256 DUP6 0xC 0xC5 CALLDATACOPY PUSH26 0xDB42882CE413EF85B141CBFFDAB9F9A7775C49E32D8935891A8B ADDMOD PUSH5 0x736F6C6343 STOP ADDMOD AND STOP CALLER PUSH1 0x80 CALLVALUE PUSH2 0x11A JUMPI PUSH1 0x1F PUSH2 0x45A CODESIZE DUP2 SWAP1 SUB SWAP2 DUP3 ADD PUSH1 0x1F NOT AND DUP4 ADD SWAP2 PUSH1 0x1 PUSH1 0x1 PUSH1 0x40 SHL SUB DUP4 GT DUP5 DUP5 LT OR PUSH2 0x11F JUMPI DUP1 DUP5 SWAP3 PUSH1 0x20 SWAP5 PUSH1 0x40 MSTORE DUP4 CODECOPY DUP2 ADD SUB SLT PUSH2 0x11A JUMPI MLOAD PUSH1 0x1 PUSH1 0x1 PUSH1 0xA0 SHL SUB DUP1 DUP3 AND SWAP2 SWAP1 DUP3 DUP3 SUB PUSH2 0x11A JUMPI PUSH1 0x0 SLOAD SWAP2 PUSH1 0x1 DUP1 PUSH1 0xA0 SHL SUB NOT SWAP3 CALLER DUP5 DUP3 AND OR PUSH1 0x0 SSTORE PUSH1 0x40 MLOAD SWAP3 CALLER SWAP2 AND PUSH32 0x8BE0079C531659141344CD1FD0A4F28419497F9722A3DAAFE3B4186F6B6457E0 PUSH1 0x0 DUP1 LOG3 EXTCODESIZE ISZERO PUSH2 0xB2 JUMPI POP PUSH1 0x1 SLOAD AND OR PUSH1 0x1 SSTORE PUSH1 0x40 MLOAD PUSH2 0x324 SWAP1 DUP2 PUSH2 0x136 DUP3 CODECOPY RETURN JUMPDEST PUSH3 0x461BCD PUSH1 0xE5 SHL DUP2 MSTORE PUSH1 0x20 PUSH1 0x4 DUP3 ADD MSTORE PUSH1 0x33 PUSH1 0x24 DUP3 ADD MSTORE PUSH32 0x5570677261646561626C65426561636F6E3A20696D706C656D656E746174696F PUSH1 0x44 DUP3 ADD MSTORE PUSH32 0x6E206973206E6F74206120636F6E747261637400000000000000000000000000 PUSH1 0x64 DUP3 ADD MSTORE PUSH1 0x84 SWAP1 REVERT JUMPDEST PUSH1 0x0 DUP1 REVERT JUMPDEST PUSH4 0x4E487B71 PUSH1 0xE0 SHL PUSH1 0x0 MSTORE PUSH1 0x41 PUSH1 0x4 MSTORE PUSH1 0x24 PUSH1 0x0 REVERT INVALID PUSH1 0x80 PUSH1 0x40 MSTORE PUSH1 0x4 CALLDATASIZE LT ISZERO PUSH2 0x12 JUMPI PUSH1 0x0 DUP1 REVERT JUMPDEST PUSH1 0x0 DUP1 CALLDATALOAD PUSH1 0xE0 SHR DUP1 PUSH4 0x3659CFE6 EQ PUSH2 0x1C7 JUMPI DUP1 PUSH4 0x5C60DA1B EQ PUSH2 0x19E JUMPI DUP1 PUSH4 0x715018A6 EQ PUSH2 0x144 JUMPI DUP1 PUSH4 0x8DA5CB5B EQ PUSH2 0x11D JUMPI PUSH4 0xF2FDE38B EQ PUSH2 0x54 JUMPI PUSH1 0x0 DUP1 REVERT JUMPDEST CALLVALUE PUSH2 0x11A JUMPI PUSH1 0x20 CALLDATASIZE PUSH1 0x3 NOT ADD SLT PUSH2 0x11A JUMPI PUSH1 0x4 CALLDATALOAD PUSH1 0x1 PUSH1 0x1 PUSH1 0xA0 SHL SUB DUP2 DUP2 AND SWAP2 DUP3 SWAP1 SUB PUSH2 0x116 JUMPI PUSH2 0x83 PUSH2 0x296 JUMP JUMPDEST DUP2 ISZERO PUSH2 0xC2 JUMPI DUP3 SLOAD PUSH1 0x1 PUSH1 0x1 PUSH1 0xA0 SHL SUB NOT DUP2 AND DUP4 OR DUP5 SSTORE AND PUSH32 0x8BE0079C531659141344CD1FD0A4F28419497F9722A3DAAFE3B4186F6B6457E0 DUP4 DUP1 LOG3 DUP1 RETURN JUMPDEST PUSH1 0x40 MLOAD PUSH3 0x461BCD PUSH1 0xE5 SHL DUP2 MSTORE PUSH1 0x20 PUSH1 0x4 DUP3 ADD MSTORE PUSH1 0x26 PUSH1 0x24 DUP3 ADD MSTORE PUSH32 0x4F776E61626C653A206E6577206F776E657220697320746865207A65726F2061 PUSH1 0x44 DUP3 ADD MSTORE PUSH6 0x646472657373 PUSH1 0xD0 SHL PUSH1 0x64 DUP3 ADD MSTORE PUSH1 0x84 SWAP1 REVERT JUMPDEST DUP3 DUP1 REVERT JUMPDEST DUP1 REVERT JUMPDEST POP CALLVALUE PUSH2 0x11A JUMPI DUP1 PUSH1 0x3 NOT CALLDATASIZE ADD SLT PUSH2 0x11A JUMPI SLOAD PUSH1 0x40 MLOAD PUSH1 0x1 PUSH1 0x1 PUSH1 0xA0 SHL SUB SWAP1 SWAP2 AND DUP2 MSTORE PUSH1 0x20 SWAP1 RETURN JUMPDEST POP CALLVALUE PUSH2 0x11A JUMPI DUP1 PUSH1 0x3 NOT CALLDATASIZE ADD SLT PUSH2 0x11A JUMPI PUSH2 0x15D PUSH2 0x296 JUMP JUMPDEST DUP1 SLOAD PUSH1 0x1 PUSH1 0x1 PUSH1 0xA0 SHL SUB NOT DUP2 AND DUP3 SSTORE DUP2 SWAP1 PUSH1 0x1 PUSH1 0x1 PUSH1 0xA0 SHL SUB AND PUSH32 0x8BE0079C531659141344CD1FD0A4F28419497F9722A3DAAFE3B4186F6B6457E0 DUP3 DUP1 LOG3 DUP1 RETURN JUMPDEST POP CALLVALUE PUSH2 0x11A JUMPI DUP1 PUSH1 0x3 NOT CALLDATASIZE ADD SLT PUSH2 0x11A JUMPI PUSH1 0x1 SLOAD PUSH1 0x40 MLOAD PUSH1 0x1 PUSH1 0x1 PUSH1 0xA0 SHL SUB SWAP1 SWAP2 AND DUP2 MSTORE PUSH1 0x20 SWAP1 RETURN JUMPDEST POP CALLVALUE PUSH2 0x11A JUMPI PUSH1 0x20 CALLDATASIZE PUSH1 0x3 NOT ADD SLT PUSH2 0x11A JUMPI PUSH1 0x4 CALLDATALOAD PUSH1 0x1 PUSH1 0x1 PUSH1 0xA0 SHL SUB DUP2 AND SWAP1 DUP2 DUP2 SUB PUSH2 0x116 JUMPI PUSH2 0x1F6 PUSH2 0x296 JUMP JUMPDEST EXTCODESIZE ISZERO PUSH2 0x235 JUMPI PUSH1 0x1 DUP1 SLOAD PUSH1 0x1 PUSH1 0x1 PUSH1 0xA0 SHL SUB NOT AND DUP3 OR SWAP1 SSTORE PUSH32 0xBC7CD75A20EE27FD9ADEBAB32041F755214DBC6BFFA90CC0225B39DA2E5C2D3B DUP3 DUP1 LOG2 DUP1 RETURN JUMPDEST PUSH1 0x40 MLOAD PUSH3 0x461BCD PUSH1 0xE5 SHL DUP2 MSTORE PUSH1 0x20 PUSH1 0x4 DUP3 ADD MSTORE PUSH1 0x33 PUSH1 0x24 DUP3 ADD MSTORE PUSH32 0x5570677261646561626C65426561636F6E3A20696D706C656D656E746174696F PUSH1 0x44 DUP3 ADD MSTORE PUSH19 0x1B881A5CC81B9BDD08184818DBDB9D1C9858DD PUSH1 0x6A SHL PUSH1 0x64 DUP3 ADD MSTORE PUSH1 0x84 SWAP1 REVERT JUMPDEST PUSH1 0x0 SLOAD PUSH1 0x1 PUSH1 0x1 PUSH1 0xA0 SHL SUB AND CALLER SUB PUSH2 0x2AA JUMPI JUMP JUMPDEST PUSH1 0x64 PUSH1 0x40 MLOAD PUSH3 0x461BCD PUSH1 0xE5 SHL DUP2 MSTORE PUSH1 0x20 PUSH1 0x4 DUP3 ADD MSTORE PUSH1 0x20 PUSH1 0x24 DUP3 ADD MSTORE PUSH32 0x4F776E61626C653A2063616C6C6572206973206E6F7420746865206F776E6572 PUSH1 0x44 DUP3 ADD MSTORE REVERT INVALID LOG2 PUSH5 0x6970667358 0x22 SLT KECCAK256 0xC1 PUSH27 0x697FA218AB66E1832A9CB889FEA738E8787D12399361A9390095DD DUP16 LOG1 DELEGATECALL PUSH5 0x736F6C6343 STOP ADDMOD AND STOP CALLER "},"gasEstimates":{"creation":{"codeDepositCost":"715000","executionCost":"infinite","totalCost":"infinite"},"external":{"createToken(string,string,uint256,address)":"infinite","owner()":"2391","renounceOwnership()":"28122","securityModuleBeacon()":"2411","securityModuleImplementation()":"2369","tokenBeacon()":"2435","tokenImplementation()":"2289","transferOwnership(address)":"28298"}},"methodIdentifiers":{"createToken(string,string,uint256,address)":"34f359f9","owner()":"8da5cb5b","renounceOwnership()":"715018a6","securityModuleBeacon()":"9651d0a8","securityModuleImplementation()":"8008334c","tokenBeacon()":"ccf5a77c","tokenImplementation()":"2f3a3d5d","transferOwnership(address)":"f2fde38b"}},"storageLayout":{"storage":[{"astId":2147,"contract":"src/contracts/V4Factory.sol:V4Factory","label":"_owner","offset":0,"slot":"0","type":"t_address"},{"astId":4182,"contract":"src/contracts/V4Factory.sol:V4Factory","label":"tokenImplementation","offset":0,"slot":"1","type":"t_address"},{"astId":4184,"contract":"src/contracts/V4Factory.sol:V4Factory","label":"securityModuleImplementation","offset":0,"slot":"2","type":"t_address"},{"astId":4187,"contract":"src/contracts/V4Factory.sol:V4Factory","label":"tokenBeacon","offset":0,"slot":"3","type":"t_contract(UpgradeableBeacon)2790"},{"astId":4190,"contract":"src/contracts/V4Factory.sol:V4Factory","label":"securityModuleBeacon","offset":0,"slot":"4","type":"t_contract(UpgradeableBeacon)2790"}],"types":{"t_address":{"encoding":"inplace","label":"address","numberOfBytes":"20"},"t_contract(UpgradeableBeacon)2790":{"encoding":"inplace","label":"contract UpgradeableBeacon","numberOfBytes":"20"}}},"userdoc":{"kind":"user","methods":{},"version":1}}}}