{"src/contracts/V4SecurityModule.sol":{"V4SecurityModule":{"abi":[{"anonymous":false,"inputs":[{"indexed":false,"internalType":"uint8","name":"version","type":"uint8"}],"name":"Initialized","type":"event"},{"anonymous":false,"inputs":[{"indexed":true,"internalType":"address","name":"previousOwner","type":"address"},{"indexed":true,"internalType":"address","name":"newOwner","type":"address"}],"name":"OwnershipTransferred","type":"event"},{"inputs":[{"internalType":"address","name":"signer","type":"address"}],"name":"addSigner","outputs":[{"internalType":"bool","name":"","type":"bool"}],"stateMutability":"nonpayable","type":"function"},{"inputs":[{"internalType":"bytes32","name":"","type":"bytes32"}],"name":"confirmOwnershipTransfer","outputs":[{"internalType":"bool","name":"","type":"bool"}],"stateMutability":"pure","type":"function"},{"inputs":[],"name":"emergencyPause","outputs":[{"internalType":"bool","name":"","type":"bool"}],"stateMutability":"nonpayable","type":"function"},{"inputs":[],"name":"emergencyUnpause","outputs":[{"internalType":"bool","name":"","type":"bool"}],"stateMutability":"nonpayable","type":"function"},{"inputs":[],"name":"getModuleType","outputs":[{"internalType":"bytes32","name":"","type":"bytes32"}],"stateMutability":"pure","type":"function"},{"inputs":[],"name":"getSigners","outputs":[{"internalType":"address[]","name":"","type":"address[]"}],"stateMutability":"view","type":"function"},{"inputs":[],"name":"getThreshold","outputs":[{"internalType":"uint256","name":"","type":"uint256"}],"stateMutability":"view","type":"function"},{"inputs":[],"name":"getToken","outputs":[{"internalType":"address","name":"","type":"address"}],"stateMutability":"view","type":"function"},{"inputs":[{"internalType":"address","name":"tokenAddress","type":"address"},{"internalType":"bytes","name":"data","type":"bytes"}],"name":"initialize","outputs":[],"stateMutability":"nonpayable","type":"function"},{"inputs":[{"internalType":"address","name":"account","type":"address"}],"name":"isSigner","outputs":[{"internalType":"bool","name":"","type":"bool"}],"stateMutability":"view","type":"function"},{"inputs":[],"name":"owner","outputs":[{"internalType":"address","name":"","type":"address"}],"stateMutability":"view","type":"function"},{"inputs":[{"internalType":"address","name":"newOwner","type":"address"}],"name":"proposeOwnershipTransfer","outputs":[{"internalType":"bytes32","name":"","type":"bytes32"}],"stateMutability":"nonpayable","type":"function"},{"inputs":[{"internalType":"address","name":"signer","type":"address"}],"name":"removeSigner","outputs":[{"internalType":"bool","name":"","type":"bool"}],"stateMutability":"nonpayable","type":"function"},{"inputs":[],"name":"renounceOwnership","outputs":[],"stateMutability":"nonpayable","type":"function"},{"inputs":[{"internalType":"uint256","name":"threshold","type":"uint256"}],"name":"setThreshold","outputs":[{"internalType":"bool","name":"","type":"bool"}],"stateMutability":"nonpayable","type":"function"},{"inputs":[{"internalType":"bytes4","name":"functionSig","type":"bytes4"}],"name":"supportsFunction","outputs":[{"internalType":"bool","name":"","type":"bool"}],"stateMutability":"pure","type":"function"},{"inputs":[{"internalType":"address","name":"newOwner","type":"address"}],"name":"transferOwnership","outputs":[],"stateMutability":"nonpayable","type":"function"}],"devdoc":{"details":"Implementation of security module with multi-sig capabilities","events":{"Initialized(uint8)":{"details":"Triggered when the contract has been initialized or reinitialized."}},"kind":"dev","methods":{"addSigner(address)":{"details":"Add a new signer to the multi-sig configuration","params":{"signer":"Address to add as a signer"},"returns":{"_0":"success Whether the signer was successfully added"}},"emergencyPause()":{"details":"Emergency pause for the token","returns":{"_0":"success Whether the pause was successful"}},"emergencyUnpause()":{"details":"Unpause the token after emergency","returns":{"_0":"success Whether the unpause was successful"}},"getModuleType()":{"details":"Get the type of this module","returns":{"_0":"moduleType Type identifier for this module"}},"getSigners()":{"details":"Get all current signers","returns":{"_0":"signers Array of current signer addresses"}},"getThreshold()":{"details":"Get the current signature threshold","returns":{"_0":"threshold The current signature threshold"}},"getToken()":{"details":"Get the token this module is attached to","returns":{"_0":"tokenAddress Address of the token"}},"initialize(address,bytes)":{"details":"Initialize the module","params":{"data":"Additional initialization data","tokenAddress":"Address of the token this module is attached to"}},"isSigner(address)":{"details":"Check if an address is a signer","params":{"account":"Address to check"},"returns":{"_0":"isSigner Whether the address is a signer"}},"owner()":{"details":"Returns the address of the current owner."},"proposeOwnershipTransfer(address)":{"details":"Propose a new owner (multi-sig process step 1)","params":{"newOwner":"Address of the proposed new owner"},"returns":{"_0":"proposalId Identifier for the ownership transfer proposal"}},"removeSigner(address)":{"details":"Remove a signer from the multi-sig configuration","params":{"signer":"Address to remove from signers"},"returns":{"_0":"success Whether the signer was successfully removed"}},"renounceOwnership()":{"details":"Leaves the contract without owner. It will not be possible to call `onlyOwner` functions. Can only be called by the current owner. NOTE: Renouncing ownership will leave the contract without an owner, thereby disabling any functionality that is only available to the owner."},"setThreshold(uint256)":{"details":"Set the required number of signatures for operations","params":{"threshold":"Number of required signatures"},"returns":{"_0":"success Whether the threshold was successfully set"}},"supportsFunction(bytes4)":{"details":"Check if this module has a specific function","params":{"functionSig":"Function signature to check for"},"returns":{"_0":"hasFunction Whether the module implements the function"}},"transferOwnership(address)":{"details":"Transfers ownership of the contract to a new account (`newOwner`). Can only be called by the current owner."}},"title":"V4SecurityModule","version":1},"evm":{"bytecode":{"linkReferences":{},"object":"608080604052346100165761121f908161001c8239f35b600080fdfe6080604081815260048036101561001557600080fd5b600092833560e01c9081630b9349b914610cde575080630e316ab714610b7457806321040fc314610a1657806321df0da7146109ed5780634a4e3bd51461099e57806351858e27146108db578063715018a61461087e5780637df73e27146108385780638da5cb5b1461080f57806394cf795e14610709578063960bfe041461061c578063be46446414610507578063d1f578941461026f578063e500680114610252578063e75235b81461022f578063eb12d61e146101725763f2fde38b146100de57600080fd5b3461016e57602036600319011261016e576100f7610d18565b91610100610f78565b6001600160a01b0383161561011c578361011984610f2f565b80f35b906020608492519162461bcd60e51b8352820152602660248201527f4f776e61626c653a206e6577206f776e657220697320746865207a65726f206160448201526564647265737360d01b6064820152fd5b8280fd5b50823461022c57602036600319011261022c575061018e610d18565b6033546001600160a01b0391906101a89083163314610d33565b16906101c1826000526067602052604060002054151590565b6101d9576020836101d18461117e565b505160018152f35b608490602084519162461bcd60e51b8352820152602760248201527f563453656375726974794d6f64756c653a207369676e657220616c72656164796044820152662065786973747360c81b6064820152fd5b80fd5b50503461024e578160031936011261024e576020906068549051908152f35b5080fd5b50503461024e57602036600319011261024e576020905160018152f35b503461016e578160031936011261016e57610288610d18565b9060249182359267ffffffffffffffff928385116105035736602386011215610503578481013593841161050357368285870101116105035786549360ff8560081c1615948580966104f6575b80156104df575b156104865760ff198116600117895585610475575b5060209586820361041d578301359086811061040c575b5087546001600160a01b0391821694906103309060081c60ff1661032b81610fd0565b610fd0565b61033933610f2f565b61034285610f2f565b169182156103b35750509061036e916bffffffffffffffffffffffff60a01b606554161760655561117e565b50600160685561037c578280f35b7f7f26b83ff96e1f2b6a682f133852f6798a09c465da95921460cefb38474024989161ff001984541684555160018152a138808280f35b865162461bcd60e51b8152918201869052602e908201527f563453656375726974794d6f64756c653a20746f6b656e20616464726573732060448201526d63616e6e6f74206265207a65726f60901b6064820152608490fd5b60001990870360031b1b1638610308565b875162461bcd60e51b8152808401889052602d818601527f563453656375726974794d6f64756c653a20696e76616c696420696e6974696160448201526c6c697a6174696f6e206461746160981b6064820152608490fd5b61ffff1916610101178855386102f1565b875162461bcd60e51b8152602081850152602e818601527f496e697469616c697a61626c653a20636f6e747261637420697320616c72656160448201526d191e481a5b9a5d1a585b1a5e995960921b6064820152608490fd5b50303b1580156102dc5750600160ff8216146102dc565b50600160ff8216106102d5565b8680fd5b503461016e57602036600319011261016e57359063ffffffff60e01b821680920361016e57602092506321040fc360e01b821491821561060b575b82156105fa575b82156105e9575b82156105d8575b82156105c7575b82156105b6575b82156105a5575b8215610594575b8215610583575b50519015158152f35b634a4e3bd560e01b1491503861057a565b6351858e2760e01b81149250610573565b634a67bcaf60e11b8114925061056c565b631cea46b760e31b81149250610565565b637df73e2760e01b8114925061055e565b632582ff8160e21b81149250610557565b630e316ab760e01b81149250610550565b6375896b0f60e11b81149250610549565b63e500680160e01b81149250610542565b50913461022c57602036600319011261022c5750813561064760018060a01b03603354163314610d33565b80156106b357606654811161066457602092506068555160018152f35b815162461bcd60e51b81526020818501526024808201527f563453656375726974794d6f64756c653a207468726573686f6c6420746f6f206044820152630d0d2ced60e31b6064820152608490fd5b815162461bcd60e51b8152602081850152602a60248201527f563453656375726974794d6f64756c653a207468726573686f6c642063616e6e6044820152696f74206265207a65726f60b01b6064820152608490fd5b5082903461024e578160031936011261024e5782906066926066549161072e83610f17565b9061073b85519283610dbf565b83825261074784610f17565b6020968388019591601f1901368737845b8281106107a7575050505083519485948186019282875251809352850193925b82811061078757505050500390f35b83516001600160a01b031685528695509381019392810192600101610778565b818695979899965260018060a01b03817f46501879b8ca8525e8c2fd519e2fbfcfa2ebea26501294aa02cbfcfb12e9435401541687518210156107fc57600582901b8801870152949796959394600101610758565b634e487b7160e01b865260328552602486fd5b50503461024e578160031936011261024e5760335490516001600160a01b039091168152602090f35b50503461024e57602036600319011261024e576020906108756001600160a01b03610861610d18565b166000526067602052604060002054151590565b90519015158152f35b833461022c578060031936011261022c57610897610f78565b603380546001600160a01b0319811690915581906001600160a01b03167f8be0079c531659141344cd1fd0a4f28419497f9722a3daafe3b4186f6b6457e08280a380f35b503461016e578260031936011261016e5791806109569361091161090c336000526067602052604060002054151590565b610ebc565b8351638456cb5960e01b602082015281815290829061092f83610d8d565b60018060a01b036065541691829187519889958694859362ac0f6f60e71b85528401610e81565b03925af192831561099257602093610972575b50505160018152f35b61098d913d8091833e6109858183610dbf565b810190610e04565b610969565b509051903d90823e3d90fd5b503461016e578260031936011261016e579180610956936109cf61090c336000526067602052604060002054151590565b8351631fa5d41d60e11b602082015281815290829061092f83610d8d565b50503461024e578160031936011261024e5760655490516001600160a01b039091168152602090f35b5091903461024e57602036600319011261024e57610a32610d18565b6033546001600160a01b0390610a4b9082163314610d33565b808216918215610b1657610a5e90610f2f565b82519163f2fde38b60e01b6020840152602483015260248252606082019482861067ffffffffffffffff871117610b03575084835260655462ac0f6f60e71b865284918691168183605f1986610ab8818660648201610e81565b0301925af1938415610af757602094610ad4575b505051908152f35b6060610af2923d908187853e610aea8285610dbf565b010190610e04565b610acc565b505051903d90823e3d90fd5b634e487b7160e01b855260419052602484fd5b835162461bcd60e51b8152602081880152603260248201527f563453656375726974794d6f64756c653a206e6577206f776e65722063616e6e6044820152716f74206265207a65726f206164647265737360701b6064820152608490fd5b50823461022c57602036600319011261022c5750610b90610d18565b6033546001600160a01b039081169291610bab338514610d33565b1691610bc4836000526067602052604060002054151590565b15610c8b576066546068541015610c38578214610be7576020836101d18461107d565b608490602084519162461bcd60e51b8352820152602560248201527f563453656375726974794d6f64756c653a2063616e6e6f742072656d6f76652060448201526437bbb732b960d91b6064820152fd5b835162461bcd60e51b8152602081840152602760248201527f563453656375726974794d6f64756c653a20776f756c6420627265616b2074686044820152661c995cda1bdb1960ca1b6064820152608490fd5b835162461bcd60e51b8152602081840152602760248201527f563453656375726974794d6f64756c653a207369676e657220646f6573206e6f6044820152661d08195e1a5cdd60ca1b6064820152608490fd5b84903461024e578160031936011261024e57807fe8dfd5edbafe3b1a04db54003f904cfc4610e36b1414906e3f2255bd826e13cf60209252f35b600435906001600160a01b0382168203610d2e57565b600080fd5b15610d3a57565b60405162461bcd60e51b815260206004820152602560248201527f563453656375726974794d6f64756c653a2063616c6c6572206973206e6f742060448201526437bbb732b960d91b6064820152608490fd5b6040810190811067ffffffffffffffff821117610da957604052565b634e487b7160e01b600052604160045260246000fd5b90601f8019910116810190811067ffffffffffffffff821117610da957604052565b60005b838110610df45750506000910152565b8181015183820152602001610de4565b9190604083820312610d2e5782518015158103610d2e5792602081015167ffffffffffffffff91828211610d2e57019082601f83011215610d2e578151908111610da95760405192610e60601f8301601f191660200185610dbf565b81845260208284010111610d2e57610e7e9160208085019101610de1565b90565b909160609260018060a01b0316825260406020830152610eb08151809281604086015260208686019101610de1565b601f01601f1916010190565b15610ec357565b60405162461bcd60e51b815260206004820152602660248201527f563453656375726974794d6f64756c653a2063616c6c6572206973206e6f742060448201526539b4b3b732b960d11b6064820152608490fd5b67ffffffffffffffff8111610da95760051b60200190565b603380546001600160a01b039283166001600160a01b0319821681179092559091167f8be0079c531659141344cd1fd0a4f28419497f9722a3daafe3b4186f6b6457e0600080a3565b6033546001600160a01b03163303610f8c57565b606460405162461bcd60e51b815260206004820152602060248201527f4f776e61626c653a2063616c6c6572206973206e6f7420746865206f776e65726044820152fd5b15610fd757565b60405162461bcd60e51b815260206004820152602b60248201527f496e697469616c697a61626c653a20636f6e7472616374206973206e6f74206960448201526a6e697469616c697a696e6760a81b6064820152608490fd5b6066548110156110675760666000527f46501879b8ca8525e8c2fd519e2fbfcfa2ebea26501294aa02cbfcfb12e943540190600090565b634e487b7160e01b600052603260045260246000fd5b60008181526067602052604081205490919080156111795760001990808201818111611165576066549083820191821161115157808203611106575b50505060665480156110f2578101906110d182611030565b909182549160031b1b19169055606655815260676020526040812055600190565b634e487b7160e01b84526031600452602484fd5b61113b61111561112493611030565b90549060031b1c928392611030565b819391549060031b91821b91600019901b19161790565b90558452606760205260408420553880806110b9565b634e487b7160e01b86526011600452602486fd5b634e487b7160e01b85526011600452602485fd5b505090565b6000818152606760205260408120546111e457606654680100000000000000008110156111d05790826111bc61112484600160409601606655611030565b905560665492815260676020522055600190565b634e487b7160e01b82526041600452602482fd5b90509056fea26469706673582212204bd81ed9ce4e5a70988ba4b423b3078ef511c0cc284fa2c15dd6bede12bf688864736f6c63430008160033","opcodes":"PUSH1 0x80 DUP1 PUSH1 0x40 MSTORE CALLVALUE PUSH2 0x16 JUMPI PUSH2 0x121F SWAP1 DUP2 PUSH2 0x1C DUP3 CODECOPY RETURN JUMPDEST PUSH1 0x0 DUP1 REVERT INVALID PUSH1 0x80 PUSH1 0x40 DUP2 DUP2 MSTORE PUSH1 0x4 DUP1 CALLDATASIZE LT ISZERO PUSH2 0x15 JUMPI PUSH1 0x0 DUP1 REVERT JUMPDEST PUSH1 0x0 SWAP3 DUP4 CALLDATALOAD PUSH1 0xE0 SHR SWAP1 DUP2 PUSH4 0xB9349B9 EQ PUSH2 0xCDE JUMPI POP DUP1 PUSH4 0xE316AB7 EQ PUSH2 0xB74 JUMPI DUP1 PUSH4 0x21040FC3 EQ PUSH2 0xA16 JUMPI DUP1 PUSH4 0x21DF0DA7 EQ PUSH2 0x9ED JUMPI DUP1 PUSH4 0x4A4E3BD5 EQ PUSH2 0x99E JUMPI DUP1 PUSH4 0x51858E27 EQ PUSH2 0x8DB JUMPI DUP1 PUSH4 0x715018A6 EQ PUSH2 0x87E JUMPI DUP1 PUSH4 0x7DF73E27 EQ PUSH2 0x838 JUMPI DUP1 PUSH4 0x8DA5CB5B EQ PUSH2 0x80F JUMPI DUP1 PUSH4 0x94CF795E EQ PUSH2 0x709 JUMPI DUP1 PUSH4 0x960BFE04 EQ PUSH2 0x61C JUMPI DUP1 PUSH4 0xBE464464 EQ PUSH2 0x507 JUMPI DUP1 PUSH4 0xD1F57894 EQ PUSH2 0x26F JUMPI DUP1 PUSH4 0xE5006801 EQ PUSH2 0x252 JUMPI DUP1 PUSH4 0xE75235B8 EQ PUSH2 0x22F JUMPI DUP1 PUSH4 0xEB12D61E EQ PUSH2 0x172 JUMPI PUSH4 0xF2FDE38B EQ PUSH2 0xDE JUMPI PUSH1 0x0 DUP1 REVERT JUMPDEST CALLVALUE PUSH2 0x16E JUMPI PUSH1 0x20 CALLDATASIZE PUSH1 0x3 NOT ADD SLT PUSH2 0x16E JUMPI PUSH2 0xF7 PUSH2 0xD18 JUMP JUMPDEST SWAP2 PUSH2 0x100 PUSH2 0xF78 JUMP JUMPDEST PUSH1 0x1 PUSH1 0x1 PUSH1 0xA0 SHL SUB DUP4 AND ISZERO PUSH2 0x11C JUMPI DUP4 PUSH2 0x119 DUP5 PUSH2 0xF2F JUMP JUMPDEST DUP1 RETURN JUMPDEST SWAP1 PUSH1 0x20 PUSH1 0x84 SWAP3 MLOAD SWAP2 PUSH3 0x461BCD PUSH1 0xE5 SHL DUP4 MSTORE DUP3 ADD MSTORE PUSH1 0x26 PUSH1 0x24 DUP3 ADD MSTORE PUSH32 0x4F776E61626C653A206E6577206F776E657220697320746865207A65726F2061 PUSH1 0x44 DUP3 ADD MSTORE PUSH6 0x646472657373 PUSH1 0xD0 SHL PUSH1 0x64 DUP3 ADD MSTORE REVERT JUMPDEST DUP3 DUP1 REVERT JUMPDEST POP DUP3 CALLVALUE PUSH2 0x22C JUMPI PUSH1 0x20 CALLDATASIZE PUSH1 0x3 NOT ADD SLT PUSH2 0x22C JUMPI POP PUSH2 0x18E PUSH2 0xD18 JUMP JUMPDEST PUSH1 0x33 SLOAD PUSH1 0x1 PUSH1 0x1 PUSH1 0xA0 SHL SUB SWAP2 SWAP1 PUSH2 0x1A8 SWAP1 DUP4 AND CALLER EQ PUSH2 0xD33 JUMP JUMPDEST AND SWAP1 PUSH2 0x1C1 DUP3 PUSH1 0x0 MSTORE PUSH1 0x67 PUSH1 0x20 MSTORE PUSH1 0x40 PUSH1 0x0 KECCAK256 SLOAD ISZERO ISZERO SWAP1 JUMP JUMPDEST PUSH2 0x1D9 JUMPI PUSH1 0x20 DUP4 PUSH2 0x1D1 DUP5 PUSH2 0x117E JUMP JUMPDEST POP MLOAD PUSH1 0x1 DUP2 MSTORE RETURN JUMPDEST PUSH1 0x84 SWAP1 PUSH1 0x20 DUP5 MLOAD SWAP2 PUSH3 0x461BCD PUSH1 0xE5 SHL DUP4 MSTORE DUP3 ADD MSTORE PUSH1 0x27 PUSH1 0x24 DUP3 ADD MSTORE PUSH32 0x563453656375726974794D6F64756C653A207369676E657220616C7265616479 PUSH1 0x44 DUP3 ADD MSTORE PUSH7 0x20657869737473 PUSH1 0xC8 SHL PUSH1 0x64 DUP3 ADD MSTORE REVERT JUMPDEST DUP1 REVERT JUMPDEST POP POP CALLVALUE PUSH2 0x24E JUMPI DUP2 PUSH1 0x3 NOT CALLDATASIZE ADD SLT PUSH2 0x24E JUMPI PUSH1 0x20 SWAP1 PUSH1 0x68 SLOAD SWAP1 MLOAD SWAP1 DUP2 MSTORE RETURN JUMPDEST POP DUP1 REVERT JUMPDEST POP POP CALLVALUE PUSH2 0x24E JUMPI PUSH1 0x20 CALLDATASIZE PUSH1 0x3 NOT ADD SLT PUSH2 0x24E JUMPI PUSH1 0x20 SWAP1 MLOAD PUSH1 0x1 DUP2 MSTORE RETURN JUMPDEST POP CALLVALUE PUSH2 0x16E JUMPI DUP2 PUSH1 0x3 NOT CALLDATASIZE ADD SLT PUSH2 0x16E JUMPI PUSH2 0x288 PUSH2 0xD18 JUMP JUMPDEST SWAP1 PUSH1 0x24 SWAP2 DUP3 CALLDATALOAD SWAP3 PUSH8 0xFFFFFFFFFFFFFFFF SWAP3 DUP4 DUP6 GT PUSH2 0x503 JUMPI CALLDATASIZE PUSH1 0x23 DUP7 ADD SLT ISZERO PUSH2 0x503 JUMPI DUP5 DUP2 ADD CALLDATALOAD SWAP4 DUP5 GT PUSH2 0x503 JUMPI CALLDATASIZE DUP3 DUP6 DUP8 ADD ADD GT PUSH2 0x503 JUMPI DUP7 SLOAD SWAP4 PUSH1 0xFF DUP6 PUSH1 0x8 SHR AND ISZERO SWAP5 DUP6 DUP1 SWAP7 PUSH2 0x4F6 JUMPI JUMPDEST DUP1 ISZERO PUSH2 0x4DF JUMPI JUMPDEST ISZERO PUSH2 0x486 JUMPI PUSH1 0xFF NOT DUP2 AND PUSH1 0x1 OR DUP10 SSTORE DUP6 PUSH2 0x475 JUMPI JUMPDEST POP PUSH1 0x20 SWAP6 DUP7 DUP3 SUB PUSH2 0x41D JUMPI DUP4 ADD CALLDATALOAD SWAP1 DUP7 DUP2 LT PUSH2 0x40C JUMPI JUMPDEST POP DUP8 SLOAD PUSH1 0x1 PUSH1 0x1 PUSH1 0xA0 SHL SUB SWAP2 DUP3 AND SWAP5 SWAP1 PUSH2 0x330 SWAP1 PUSH1 0x8 SHR PUSH1 0xFF AND PUSH2 0x32B DUP2 PUSH2 0xFD0 JUMP JUMPDEST PUSH2 0xFD0 JUMP JUMPDEST PUSH2 0x339 CALLER PUSH2 0xF2F JUMP JUMPDEST PUSH2 0x342 DUP6 PUSH2 0xF2F JUMP JUMPDEST AND SWAP2 DUP3 ISZERO PUSH2 0x3B3 JUMPI POP POP SWAP1 PUSH2 0x36E SWAP2 PUSH12 0xFFFFFFFFFFFFFFFFFFFFFFFF PUSH1 0xA0 SHL PUSH1 0x65 SLOAD AND OR PUSH1 0x65 SSTORE PUSH2 0x117E JUMP JUMPDEST POP PUSH1 0x1 PUSH1 0x68 SSTORE PUSH2 0x37C JUMPI DUP3 DUP1 RETURN JUMPDEST PUSH32 0x7F26B83FF96E1F2B6A682F133852F6798A09C465DA95921460CEFB3847402498 SWAP2 PUSH2 0xFF00 NOT DUP5 SLOAD AND DUP5 SSTORE MLOAD PUSH1 0x1 DUP2 MSTORE LOG1 CODESIZE DUP1 DUP3 DUP1 RETURN JUMPDEST DUP7 MLOAD PUSH3 0x461BCD PUSH1 0xE5 SHL DUP2 MSTORE SWAP2 DUP3 ADD DUP7 SWAP1 MSTORE PUSH1 0x2E SWAP1 DUP3 ADD MSTORE PUSH32 0x563453656375726974794D6F64756C653A20746F6B656E206164647265737320 PUSH1 0x44 DUP3 ADD MSTORE PUSH14 0x63616E6E6F74206265207A65726F PUSH1 0x90 SHL PUSH1 0x64 DUP3 ADD MSTORE PUSH1 0x84 SWAP1 REVERT JUMPDEST PUSH1 0x0 NOT SWAP1 DUP8 SUB PUSH1 0x3 SHL SHL AND CODESIZE PUSH2 0x308 JUMP JUMPDEST DUP8 MLOAD PUSH3 0x461BCD PUSH1 0xE5 SHL DUP2 MSTORE DUP1 DUP5 ADD DUP9 SWAP1 MSTORE PUSH1 0x2D DUP2 DUP7 ADD MSTORE PUSH32 0x563453656375726974794D6F64756C653A20696E76616C696420696E69746961 PUSH1 0x44 DUP3 ADD MSTORE PUSH13 0x6C697A6174696F6E2064617461 PUSH1 0x98 SHL PUSH1 0x64 DUP3 ADD MSTORE PUSH1 0x84 SWAP1 REVERT JUMPDEST PUSH2 0xFFFF NOT AND PUSH2 0x101 OR DUP9 SSTORE CODESIZE PUSH2 0x2F1 JUMP JUMPDEST DUP8 MLOAD PUSH3 0x461BCD PUSH1 0xE5 SHL DUP2 MSTORE PUSH1 0x20 DUP2 DUP6 ADD MSTORE PUSH1 0x2E DUP2 DUP7 ADD MSTORE PUSH32 0x496E697469616C697A61626C653A20636F6E747261637420697320616C726561 PUSH1 0x44 DUP3 ADD MSTORE PUSH14 0x191E481A5B9A5D1A585B1A5E9959 PUSH1 0x92 SHL PUSH1 0x64 DUP3 ADD MSTORE PUSH1 0x84 SWAP1 REVERT JUMPDEST POP ADDRESS EXTCODESIZE ISZERO DUP1 ISZERO PUSH2 0x2DC JUMPI POP PUSH1 0x1 PUSH1 0xFF DUP3 AND EQ PUSH2 0x2DC JUMP JUMPDEST POP PUSH1 0x1 PUSH1 0xFF DUP3 AND LT PUSH2 0x2D5 JUMP JUMPDEST DUP7 DUP1 REVERT JUMPDEST POP CALLVALUE PUSH2 0x16E JUMPI PUSH1 0x20 CALLDATASIZE PUSH1 0x3 NOT ADD SLT PUSH2 0x16E JUMPI CALLDATALOAD SWAP1 PUSH4 0xFFFFFFFF PUSH1 0xE0 SHL DUP3 AND DUP1 SWAP3 SUB PUSH2 0x16E JUMPI PUSH1 0x20 SWAP3 POP PUSH4 0x21040FC3 PUSH1 0xE0 SHL DUP3 EQ SWAP2 DUP3 ISZERO PUSH2 0x60B JUMPI JUMPDEST DUP3 ISZERO PUSH2 0x5FA JUMPI JUMPDEST DUP3 ISZERO PUSH2 0x5E9 JUMPI JUMPDEST DUP3 ISZERO PUSH2 0x5D8 JUMPI JUMPDEST DUP3 ISZERO PUSH2 0x5C7 JUMPI JUMPDEST DUP3 ISZERO PUSH2 0x5B6 JUMPI JUMPDEST DUP3 ISZERO PUSH2 0x5A5 JUMPI JUMPDEST DUP3 ISZERO PUSH2 0x594 JUMPI JUMPDEST DUP3 ISZERO PUSH2 0x583 JUMPI JUMPDEST POP MLOAD SWAP1 ISZERO ISZERO DUP2 MSTORE RETURN JUMPDEST PUSH4 0x4A4E3BD5 PUSH1 0xE0 SHL EQ SWAP2 POP CODESIZE PUSH2 0x57A JUMP JUMPDEST PUSH4 0x51858E27 PUSH1 0xE0 SHL DUP2 EQ SWAP3 POP PUSH2 0x573 JUMP JUMPDEST PUSH4 0x4A67BCAF PUSH1 0xE1 SHL DUP2 EQ SWAP3 POP PUSH2 0x56C JUMP JUMPDEST PUSH4 0x1CEA46B7 PUSH1 0xE3 SHL DUP2 EQ SWAP3 POP PUSH2 0x565 JUMP JUMPDEST PUSH4 0x7DF73E27 PUSH1 0xE0 SHL DUP2 EQ SWAP3 POP PUSH2 0x55E JUMP JUMPDEST PUSH4 0x2582FF81 PUSH1 0xE2 SHL DUP2 EQ SWAP3 POP PUSH2 0x557 JUMP JUMPDEST PUSH4 0xE316AB7 PUSH1 0xE0 SHL DUP2 EQ SWAP3 POP PUSH2 0x550 JUMP JUMPDEST PUSH4 0x75896B0F PUSH1 0xE1 SHL DUP2 EQ SWAP3 POP PUSH2 0x549 JUMP JUMPDEST PUSH4 0xE5006801 PUSH1 0xE0 SHL DUP2 EQ SWAP3 POP PUSH2 0x542 JUMP JUMPDEST POP SWAP2 CALLVALUE PUSH2 0x22C JUMPI PUSH1 0x20 CALLDATASIZE PUSH1 0x3 NOT ADD SLT PUSH2 0x22C JUMPI POP DUP2 CALLDATALOAD PUSH2 0x647 PUSH1 0x1 DUP1 PUSH1 0xA0 SHL SUB PUSH1 0x33 SLOAD AND CALLER EQ PUSH2 0xD33 JUMP JUMPDEST DUP1 ISZERO PUSH2 0x6B3 JUMPI PUSH1 0x66 SLOAD DUP2 GT PUSH2 0x664 JUMPI PUSH1 0x20 SWAP3 POP PUSH1 0x68 SSTORE MLOAD PUSH1 0x1 DUP2 MSTORE RETURN JUMPDEST DUP2 MLOAD PUSH3 0x461BCD PUSH1 0xE5 SHL DUP2 MSTORE PUSH1 0x20 DUP2 DUP6 ADD MSTORE PUSH1 0x24 DUP1 DUP3 ADD MSTORE PUSH32 0x563453656375726974794D6F64756C653A207468726573686F6C6420746F6F20 PUSH1 0x44 DUP3 ADD MSTORE PUSH4 0xD0D2CED PUSH1 0xE3 SHL PUSH1 0x64 DUP3 ADD MSTORE PUSH1 0x84 SWAP1 REVERT JUMPDEST DUP2 MLOAD PUSH3 0x461BCD PUSH1 0xE5 SHL DUP2 MSTORE PUSH1 0x20 DUP2 DUP6 ADD MSTORE PUSH1 0x2A PUSH1 0x24 DUP3 ADD MSTORE PUSH32 0x563453656375726974794D6F64756C653A207468726573686F6C642063616E6E PUSH1 0x44 DUP3 ADD MSTORE PUSH10 0x6F74206265207A65726F PUSH1 0xB0 SHL PUSH1 0x64 DUP3 ADD MSTORE PUSH1 0x84 SWAP1 REVERT JUMPDEST POP DUP3 SWAP1 CALLVALUE PUSH2 0x24E JUMPI DUP2 PUSH1 0x3 NOT CALLDATASIZE ADD SLT PUSH2 0x24E JUMPI DUP3 SWAP1 PUSH1 0x66 SWAP3 PUSH1 0x66 SLOAD SWAP2 PUSH2 0x72E DUP4 PUSH2 0xF17 JUMP JUMPDEST SWAP1 PUSH2 0x73B DUP6 MLOAD SWAP3 DUP4 PUSH2 0xDBF JUMP JUMPDEST DUP4 DUP3 MSTORE PUSH2 0x747 DUP5 PUSH2 0xF17 JUMP JUMPDEST PUSH1 0x20 SWAP7 DUP4 DUP9 ADD SWAP6 SWAP2 PUSH1 0x1F NOT ADD CALLDATASIZE DUP8 CALLDATACOPY DUP5 JUMPDEST DUP3 DUP2 LT PUSH2 0x7A7 JUMPI POP POP POP POP DUP4 MLOAD SWAP5 DUP6 SWAP5 DUP2 DUP7 ADD SWAP3 DUP3 DUP8 MSTORE MLOAD DUP1 SWAP4 MSTORE DUP6 ADD SWAP4 SWAP3 JUMPDEST DUP3 DUP2 LT PUSH2 0x787 JUMPI POP POP POP POP SUB SWAP1 RETURN JUMPDEST DUP4 MLOAD PUSH1 0x1 PUSH1 0x1 PUSH1 0xA0 SHL SUB AND DUP6 MSTORE DUP7 SWAP6 POP SWAP4 DUP2 ADD SWAP4 SWAP3 DUP2 ADD SWAP3 PUSH1 0x1 ADD PUSH2 0x778 JUMP JUMPDEST DUP2 DUP7 SWAP6 SWAP8 SWAP9 SWAP10 SWAP7 MSTORE PUSH1 0x1 DUP1 PUSH1 0xA0 SHL SUB DUP2 PUSH32 0x46501879B8CA8525E8C2FD519E2FBFCFA2EBEA26501294AA02CBFCFB12E94354 ADD SLOAD AND DUP8 MLOAD DUP3 LT ISZERO PUSH2 0x7FC JUMPI PUSH1 0x5 DUP3 SWAP1 SHL DUP9 ADD DUP8 ADD MSTORE SWAP5 SWAP8 SWAP7 SWAP6 SWAP4 SWAP5 PUSH1 0x1 ADD PUSH2 0x758 JUMP JUMPDEST PUSH4 0x4E487B71 PUSH1 0xE0 SHL DUP7 MSTORE PUSH1 0x32 DUP6 MSTORE PUSH1 0x24 DUP7 REVERT JUMPDEST POP POP CALLVALUE PUSH2 0x24E JUMPI DUP2 PUSH1 0x3 NOT CALLDATASIZE ADD SLT PUSH2 0x24E JUMPI PUSH1 0x33 SLOAD SWAP1 MLOAD PUSH1 0x1 PUSH1 0x1 PUSH1 0xA0 SHL SUB SWAP1 SWAP2 AND DUP2 MSTORE PUSH1 0x20 SWAP1 RETURN JUMPDEST POP POP CALLVALUE PUSH2 0x24E JUMPI PUSH1 0x20 CALLDATASIZE PUSH1 0x3 NOT ADD SLT PUSH2 0x24E JUMPI PUSH1 0x20 SWAP1 PUSH2 0x875 PUSH1 0x1 PUSH1 0x1 PUSH1 0xA0 SHL SUB PUSH2 0x861 PUSH2 0xD18 JUMP JUMPDEST AND PUSH1 0x0 MSTORE PUSH1 0x67 PUSH1 0x20 MSTORE PUSH1 0x40 PUSH1 0x0 KECCAK256 SLOAD ISZERO ISZERO SWAP1 JUMP JUMPDEST SWAP1 MLOAD SWAP1 ISZERO ISZERO DUP2 MSTORE RETURN JUMPDEST DUP4 CALLVALUE PUSH2 0x22C JUMPI DUP1 PUSH1 0x3 NOT CALLDATASIZE ADD SLT PUSH2 0x22C JUMPI PUSH2 0x897 PUSH2 0xF78 JUMP JUMPDEST PUSH1 0x33 DUP1 SLOAD PUSH1 0x1 PUSH1 0x1 PUSH1 0xA0 SHL SUB NOT DUP2 AND SWAP1 SWAP2 SSTORE DUP2 SWAP1 PUSH1 0x1 PUSH1 0x1 PUSH1 0xA0 SHL SUB AND PUSH32 0x8BE0079C531659141344CD1FD0A4F28419497F9722A3DAAFE3B4186F6B6457E0 DUP3 DUP1 LOG3 DUP1 RETURN JUMPDEST POP CALLVALUE PUSH2 0x16E JUMPI DUP3 PUSH1 0x3 NOT CALLDATASIZE ADD SLT PUSH2 0x16E JUMPI SWAP2 DUP1 PUSH2 0x956 SWAP4 PUSH2 0x911 PUSH2 0x90C CALLER PUSH1 0x0 MSTORE PUSH1 0x67 PUSH1 0x20 MSTORE PUSH1 0x40 PUSH1 0x0 KECCAK256 SLOAD ISZERO ISZERO SWAP1 JUMP JUMPDEST PUSH2 0xEBC JUMP JUMPDEST DUP4 MLOAD PUSH4 0x8456CB59 PUSH1 0xE0 SHL PUSH1 0x20 DUP3 ADD MSTORE DUP2 DUP2 MSTORE SWAP1 DUP3 SWAP1 PUSH2 0x92F DUP4 PUSH2 0xD8D JUMP JUMPDEST PUSH1 0x1 DUP1 PUSH1 0xA0 SHL SUB PUSH1 0x65 SLOAD AND SWAP2 DUP3 SWAP2 DUP8 MLOAD SWAP9 DUP10 SWAP6 DUP7 SWAP5 DUP6 SWAP4 PUSH3 0xAC0F6F PUSH1 0xE7 SHL DUP6 MSTORE DUP5 ADD PUSH2 0xE81 JUMP JUMPDEST SUB SWAP3 GAS CALL SWAP3 DUP4 ISZERO PUSH2 0x992 JUMPI PUSH1 0x20 SWAP4 PUSH2 0x972 JUMPI JUMPDEST POP POP MLOAD PUSH1 0x1 DUP2 MSTORE RETURN JUMPDEST PUSH2 0x98D SWAP2 RETURNDATASIZE DUP1 SWAP2 DUP4 RETURNDATACOPY PUSH2 0x985 DUP2 DUP4 PUSH2 0xDBF JUMP JUMPDEST DUP2 ADD SWAP1 PUSH2 0xE04 JUMP JUMPDEST PUSH2 0x969 JUMP JUMPDEST POP SWAP1 MLOAD SWAP1 RETURNDATASIZE SWAP1 DUP3 RETURNDATACOPY RETURNDATASIZE SWAP1 REVERT JUMPDEST POP CALLVALUE PUSH2 0x16E JUMPI DUP3 PUSH1 0x3 NOT CALLDATASIZE ADD SLT PUSH2 0x16E JUMPI SWAP2 DUP1 PUSH2 0x956 SWAP4 PUSH2 0x9CF PUSH2 0x90C CALLER PUSH1 0x0 MSTORE PUSH1 0x67 PUSH1 0x20 MSTORE PUSH1 0x40 PUSH1 0x0 KECCAK256 SLOAD ISZERO ISZERO SWAP1 JUMP JUMPDEST DUP4 MLOAD PUSH4 0x1FA5D41D PUSH1 0xE1 SHL PUSH1 0x20 DUP3 ADD MSTORE DUP2 DUP2 MSTORE SWAP1 DUP3 SWAP1 PUSH2 0x92F DUP4 PUSH2 0xD8D JUMP JUMPDEST POP POP CALLVALUE PUSH2 0x24E JUMPI DUP2 PUSH1 0x3 NOT CALLDATASIZE ADD SLT PUSH2 0x24E JUMPI PUSH1 0x65 SLOAD SWAP1 MLOAD PUSH1 0x1 PUSH1 0x1 PUSH1 0xA0 SHL SUB SWAP1 SWAP2 AND DUP2 MSTORE PUSH1 0x20 SWAP1 RETURN JUMPDEST POP SWAP2 SWAP1 CALLVALUE PUSH2 0x24E JUMPI PUSH1 0x20 CALLDATASIZE PUSH1 0x3 NOT ADD SLT PUSH2 0x24E JUMPI PUSH2 0xA32 PUSH2 0xD18 JUMP JUMPDEST PUSH1 0x33 SLOAD PUSH1 0x1 PUSH1 0x1 PUSH1 0xA0 SHL SUB SWAP1 PUSH2 0xA4B SWAP1 DUP3 AND CALLER EQ PUSH2 0xD33 JUMP JUMPDEST DUP1 DUP3 AND SWAP2 DUP3 ISZERO PUSH2 0xB16 JUMPI PUSH2 0xA5E SWAP1 PUSH2 0xF2F JUMP JUMPDEST DUP3 MLOAD SWAP2 PUSH4 0xF2FDE38B PUSH1 0xE0 SHL PUSH1 0x20 DUP5 ADD MSTORE PUSH1 0x24 DUP4 ADD MSTORE PUSH1 0x24 DUP3 MSTORE PUSH1 0x60 DUP3 ADD SWAP5 DUP3 DUP7 LT PUSH8 0xFFFFFFFFFFFFFFFF DUP8 GT OR PUSH2 0xB03 JUMPI POP DUP5 DUP4 MSTORE PUSH1 0x65 SLOAD PUSH3 0xAC0F6F PUSH1 0xE7 SHL DUP7 MSTORE DUP5 SWAP2 DUP7 SWAP2 AND DUP2 DUP4 PUSH1 0x5F NOT DUP7 PUSH2 0xAB8 DUP2 DUP7 PUSH1 0x64 DUP3 ADD PUSH2 0xE81 JUMP JUMPDEST SUB ADD SWAP3 GAS CALL SWAP4 DUP5 ISZERO PUSH2 0xAF7 JUMPI PUSH1 0x20 SWAP5 PUSH2 0xAD4 JUMPI JUMPDEST POP POP MLOAD SWAP1 DUP2 MSTORE RETURN JUMPDEST PUSH1 0x60 PUSH2 0xAF2 SWAP3 RETURNDATASIZE SWAP1 DUP2 DUP8 DUP6 RETURNDATACOPY PUSH2 0xAEA DUP3 DUP6 PUSH2 0xDBF JUMP JUMPDEST ADD ADD SWAP1 PUSH2 0xE04 JUMP JUMPDEST PUSH2 0xACC JUMP JUMPDEST POP POP MLOAD SWAP1 RETURNDATASIZE SWAP1 DUP3 RETURNDATACOPY RETURNDATASIZE SWAP1 REVERT JUMPDEST PUSH4 0x4E487B71 PUSH1 0xE0 SHL DUP6 MSTORE PUSH1 0x41 SWAP1 MSTORE PUSH1 0x24 DUP5 REVERT JUMPDEST DUP4 MLOAD PUSH3 0x461BCD PUSH1 0xE5 SHL DUP2 MSTORE PUSH1 0x20 DUP2 DUP9 ADD MSTORE PUSH1 0x32 PUSH1 0x24 DUP3 ADD MSTORE PUSH32 0x563453656375726974794D6F64756C653A206E6577206F776E65722063616E6E PUSH1 0x44 DUP3 ADD MSTORE PUSH18 0x6F74206265207A65726F2061646472657373 PUSH1 0x70 SHL PUSH1 0x64 DUP3 ADD MSTORE PUSH1 0x84 SWAP1 REVERT JUMPDEST POP DUP3 CALLVALUE PUSH2 0x22C JUMPI PUSH1 0x20 CALLDATASIZE PUSH1 0x3 NOT ADD SLT PUSH2 0x22C JUMPI POP PUSH2 0xB90 PUSH2 0xD18 JUMP JUMPDEST PUSH1 0x33 SLOAD PUSH1 0x1 PUSH1 0x1 PUSH1 0xA0 SHL SUB SWAP1 DUP2 AND SWAP3 SWAP2 PUSH2 0xBAB CALLER DUP6 EQ PUSH2 0xD33 JUMP JUMPDEST AND SWAP2 PUSH2 0xBC4 DUP4 PUSH1 0x0 MSTORE PUSH1 0x67 PUSH1 0x20 MSTORE PUSH1 0x40 PUSH1 0x0 KECCAK256 SLOAD ISZERO ISZERO SWAP1 JUMP JUMPDEST ISZERO PUSH2 0xC8B JUMPI PUSH1 0x66 SLOAD PUSH1 0x68 SLOAD LT ISZERO PUSH2 0xC38 JUMPI DUP3 EQ PUSH2 0xBE7 JUMPI PUSH1 0x20 DUP4 PUSH2 0x1D1 DUP5 PUSH2 0x107D JUMP JUMPDEST PUSH1 0x84 SWAP1 PUSH1 0x20 DUP5 MLOAD SWAP2 PUSH3 0x461BCD PUSH1 0xE5 SHL DUP4 MSTORE DUP3 ADD MSTORE PUSH1 0x25 PUSH1 0x24 DUP3 ADD MSTORE PUSH32 0x563453656375726974794D6F64756C653A2063616E6E6F742072656D6F766520 PUSH1 0x44 DUP3 ADD MSTORE PUSH5 0x37BBB732B9 PUSH1 0xD9 SHL PUSH1 0x64 DUP3 ADD MSTORE REVERT JUMPDEST DUP4 MLOAD PUSH3 0x461BCD PUSH1 0xE5 SHL DUP2 MSTORE PUSH1 0x20 DUP2 DUP5 ADD MSTORE PUSH1 0x27 PUSH1 0x24 DUP3 ADD MSTORE PUSH32 0x563453656375726974794D6F64756C653A20776F756C6420627265616B207468 PUSH1 0x44 DUP3 ADD MSTORE PUSH7 0x1C995CDA1BDB19 PUSH1 0xCA SHL PUSH1 0x64 DUP3 ADD MSTORE PUSH1 0x84 SWAP1 REVERT JUMPDEST DUP4 MLOAD PUSH3 0x461BCD PUSH1 0xE5 SHL DUP2 MSTORE PUSH1 0x20 DUP2 DUP5 ADD MSTORE PUSH1 0x27 PUSH1 0x24 DUP3 ADD MSTORE PUSH32 0x563453656375726974794D6F64756C653A207369676E657220646F6573206E6F PUSH1 0x44 DUP3 ADD MSTORE PUSH7 0x1D08195E1A5CDD PUSH1 0xCA SHL PUSH1 0x64 DUP3 ADD MSTORE PUSH1 0x84 SWAP1 REVERT JUMPDEST DUP5 SWAP1 CALLVALUE PUSH2 0x24E JUMPI DUP2 PUSH1 0x3 NOT CALLDATASIZE ADD SLT PUSH2 0x24E JUMPI DUP1 PUSH32 0xE8DFD5EDBAFE3B1A04DB54003F904CFC4610E36B1414906E3F2255BD826E13CF PUSH1 0x20 SWAP3 MSTORE RETURN JUMPDEST PUSH1 0x4 CALLDATALOAD SWAP1 PUSH1 0x1 PUSH1 0x1 PUSH1 0xA0 SHL SUB DUP3 AND DUP3 SUB PUSH2 0xD2E JUMPI JUMP JUMPDEST PUSH1 0x0 DUP1 REVERT JUMPDEST ISZERO PUSH2 0xD3A JUMPI JUMP JUMPDEST PUSH1 0x40 MLOAD PUSH3 0x461BCD PUSH1 0xE5 SHL DUP2 MSTORE PUSH1 0x20 PUSH1 0x4 DUP3 ADD MSTORE PUSH1 0x25 PUSH1 0x24 DUP3 ADD MSTORE PUSH32 0x563453656375726974794D6F64756C653A2063616C6C6572206973206E6F7420 PUSH1 0x44 DUP3 ADD MSTORE PUSH5 0x37BBB732B9 PUSH1 0xD9 SHL PUSH1 0x64 DUP3 ADD MSTORE PUSH1 0x84 SWAP1 REVERT JUMPDEST PUSH1 0x40 DUP2 ADD SWAP1 DUP2 LT PUSH8 0xFFFFFFFFFFFFFFFF DUP3 GT OR PUSH2 0xDA9 JUMPI PUSH1 0x40 MSTORE JUMP JUMPDEST PUSH4 0x4E487B71 PUSH1 0xE0 SHL PUSH1 0x0 MSTORE PUSH1 0x41 PUSH1 0x4 MSTORE PUSH1 0x24 PUSH1 0x0 REVERT JUMPDEST SWAP1 PUSH1 0x1F DUP1 NOT SWAP2 ADD AND DUP2 ADD SWAP1 DUP2 LT PUSH8 0xFFFFFFFFFFFFFFFF DUP3 GT OR PUSH2 0xDA9 JUMPI PUSH1 0x40 MSTORE JUMP JUMPDEST PUSH1 0x0 JUMPDEST DUP4 DUP2 LT PUSH2 0xDF4 JUMPI POP POP PUSH1 0x0 SWAP2 ADD MSTORE JUMP JUMPDEST DUP2 DUP2 ADD MLOAD DUP4 DUP3 ADD MSTORE PUSH1 0x20 ADD PUSH2 0xDE4 JUMP JUMPDEST SWAP2 SWAP1 PUSH1 0x40 DUP4 DUP3 SUB SLT PUSH2 0xD2E JUMPI DUP3 MLOAD DUP1 ISZERO ISZERO DUP2 SUB PUSH2 0xD2E JUMPI SWAP3 PUSH1 0x20 DUP2 ADD MLOAD PUSH8 0xFFFFFFFFFFFFFFFF SWAP2 DUP3 DUP3 GT PUSH2 0xD2E JUMPI ADD SWAP1 DUP3 PUSH1 0x1F DUP4 ADD SLT ISZERO PUSH2 0xD2E JUMPI DUP2 MLOAD SWAP1 DUP2 GT PUSH2 0xDA9 JUMPI PUSH1 0x40 MLOAD SWAP3 PUSH2 0xE60 PUSH1 0x1F DUP4 ADD PUSH1 0x1F NOT AND PUSH1 0x20 ADD DUP6 PUSH2 0xDBF JUMP JUMPDEST DUP2 DUP5 MSTORE PUSH1 0x20 DUP3 DUP5 ADD ADD GT PUSH2 0xD2E JUMPI PUSH2 0xE7E SWAP2 PUSH1 0x20 DUP1 DUP6 ADD SWAP2 ADD PUSH2 0xDE1 JUMP JUMPDEST SWAP1 JUMP JUMPDEST SWAP1 SWAP2 PUSH1 0x60 SWAP3 PUSH1 0x1 DUP1 PUSH1 0xA0 SHL SUB AND DUP3 MSTORE PUSH1 0x40 PUSH1 0x20 DUP4 ADD MSTORE PUSH2 0xEB0 DUP2 MLOAD DUP1 SWAP3 DUP2 PUSH1 0x40 DUP7 ADD MSTORE PUSH1 0x20 DUP7 DUP7 ADD SWAP2 ADD PUSH2 0xDE1 JUMP JUMPDEST PUSH1 0x1F ADD PUSH1 0x1F NOT AND ADD ADD SWAP1 JUMP JUMPDEST ISZERO PUSH2 0xEC3 JUMPI JUMP JUMPDEST PUSH1 0x40 MLOAD PUSH3 0x461BCD PUSH1 0xE5 SHL DUP2 MSTORE PUSH1 0x20 PUSH1 0x4 DUP3 ADD MSTORE PUSH1 0x26 PUSH1 0x24 DUP3 ADD MSTORE PUSH32 0x563453656375726974794D6F64756C653A2063616C6C6572206973206E6F7420 PUSH1 0x44 DUP3 ADD MSTORE PUSH6 0x39B4B3B732B9 PUSH1 0xD1 SHL PUSH1 0x64 DUP3 ADD MSTORE PUSH1 0x84 SWAP1 REVERT JUMPDEST PUSH8 0xFFFFFFFFFFFFFFFF DUP2 GT PUSH2 0xDA9 JUMPI PUSH1 0x5 SHL PUSH1 0x20 ADD SWAP1 JUMP JUMPDEST PUSH1 0x33 DUP1 SLOAD PUSH1 0x1 PUSH1 0x1 PUSH1 0xA0 SHL SUB SWAP3 DUP4 AND PUSH1 0x1 PUSH1 0x1 PUSH1 0xA0 SHL SUB NOT DUP3 AND DUP2 OR SWAP1 SWAP3 SSTORE SWAP1 SWAP2 AND PUSH32 0x8BE0079C531659141344CD1FD0A4F28419497F9722A3DAAFE3B4186F6B6457E0 PUSH1 0x0 DUP1 LOG3 JUMP JUMPDEST PUSH1 0x33 SLOAD PUSH1 0x1 PUSH1 0x1 PUSH1 0xA0 SHL SUB AND CALLER SUB PUSH2 0xF8C JUMPI JUMP JUMPDEST PUSH1 0x64 PUSH1 0x40 MLOAD PUSH3 0x461BCD PUSH1 0xE5 SHL DUP2 MSTORE PUSH1 0x20 PUSH1 0x4 DUP3 ADD MSTORE PUSH1 0x20 PUSH1 0x24 DUP3 ADD MSTORE PUSH32 0x4F776E61626C653A2063616C6C6572206973206E6F7420746865206F776E6572 PUSH1 0x44 DUP3 ADD MSTORE REVERT JUMPDEST ISZERO PUSH2 0xFD7 JUMPI JUMP JUMPDEST PUSH1 0x40 MLOAD PUSH3 0x461BCD PUSH1 0xE5 SHL DUP2 MSTORE PUSH1 0x20 PUSH1 0x4 DUP3 ADD MSTORE PUSH1 0x2B PUSH1 0x24 DUP3 ADD MSTORE PUSH32 0x496E697469616C697A61626C653A20636F6E7472616374206973206E6F742069 PUSH1 0x44 DUP3 ADD MSTORE PUSH11 0x6E697469616C697A696E67 PUSH1 0xA8 SHL PUSH1 0x64 DUP3 ADD MSTORE PUSH1 0x84 SWAP1 REVERT JUMPDEST PUSH1 0x66 SLOAD DUP2 LT ISZERO PUSH2 0x1067 JUMPI PUSH1 0x66 PUSH1 0x0 MSTORE PUSH32 0x46501879B8CA8525E8C2FD519E2FBFCFA2EBEA26501294AA02CBFCFB12E94354 ADD SWAP1 PUSH1 0x0 SWAP1 JUMP JUMPDEST PUSH4 0x4E487B71 PUSH1 0xE0 SHL PUSH1 0x0 MSTORE PUSH1 0x32 PUSH1 0x4 MSTORE PUSH1 0x24 PUSH1 0x0 REVERT JUMPDEST PUSH1 0x0 DUP2 DUP2 MSTORE PUSH1 0x67 PUSH1 0x20 MSTORE PUSH1 0x40 DUP2 KECCAK256 SLOAD SWAP1 SWAP2 SWAP1 DUP1 ISZERO PUSH2 0x1179 JUMPI PUSH1 0x0 NOT SWAP1 DUP1 DUP3 ADD DUP2 DUP2 GT PUSH2 0x1165 JUMPI PUSH1 0x66 SLOAD SWAP1 DUP4 DUP3 ADD SWAP2 DUP3 GT PUSH2 0x1151 JUMPI DUP1 DUP3 SUB PUSH2 0x1106 JUMPI JUMPDEST POP POP POP PUSH1 0x66 SLOAD DUP1 ISZERO PUSH2 0x10F2 JUMPI DUP2 ADD SWAP1 PUSH2 0x10D1 DUP3 PUSH2 0x1030 JUMP JUMPDEST SWAP1 SWAP2 DUP3 SLOAD SWAP2 PUSH1 0x3 SHL SHL NOT AND SWAP1 SSTORE PUSH1 0x66 SSTORE DUP2 MSTORE PUSH1 0x67 PUSH1 0x20 MSTORE PUSH1 0x40 DUP2 KECCAK256 SSTORE PUSH1 0x1 SWAP1 JUMP JUMPDEST PUSH4 0x4E487B71 PUSH1 0xE0 SHL DUP5 MSTORE PUSH1 0x31 PUSH1 0x4 MSTORE PUSH1 0x24 DUP5 REVERT JUMPDEST PUSH2 0x113B PUSH2 0x1115 PUSH2 0x1124 SWAP4 PUSH2 0x1030 JUMP JUMPDEST SWAP1 SLOAD SWAP1 PUSH1 0x3 SHL SHR SWAP3 DUP4 SWAP3 PUSH2 0x1030 JUMP JUMPDEST DUP2 SWAP4 SWAP2 SLOAD SWAP1 PUSH1 0x3 SHL SWAP2 DUP3 SHL SWAP2 PUSH1 0x0 NOT SWAP1 SHL NOT AND OR SWAP1 JUMP JUMPDEST SWAP1 SSTORE DUP5 MSTORE PUSH1 0x67 PUSH1 0x20 MSTORE PUSH1 0x40 DUP5 KECCAK256 SSTORE CODESIZE DUP1 DUP1 PUSH2 0x10B9 JUMP JUMPDEST PUSH4 0x4E487B71 PUSH1 0xE0 SHL DUP7 MSTORE PUSH1 0x11 PUSH1 0x4 MSTORE PUSH1 0x24 DUP7 REVERT JUMPDEST PUSH4 0x4E487B71 PUSH1 0xE0 SHL DUP6 MSTORE PUSH1 0x11 PUSH1 0x4 MSTORE PUSH1 0x24 DUP6 REVERT JUMPDEST POP POP SWAP1 JUMP JUMPDEST PUSH1 0x0 DUP2 DUP2 MSTORE PUSH1 0x67 PUSH1 0x20 MSTORE PUSH1 0x40 DUP2 KECCAK256 SLOAD PUSH2 0x11E4 JUMPI PUSH1 0x66 SLOAD PUSH9 0x10000000000000000 DUP2 LT ISZERO PUSH2 0x11D0 JUMPI SWAP1 DUP3 PUSH2 0x11BC PUSH2 0x1124 DUP5 PUSH1 0x1 PUSH1 0x40 SWAP7 ADD PUSH1 0x66 SSTORE PUSH2 0x1030 JUMP JUMPDEST SWAP1 SSTORE PUSH1 0x66 SLOAD SWAP3 DUP2 MSTORE PUSH1 0x67 PUSH1 0x20 MSTORE KECCAK256 SSTORE PUSH1 0x1 SWAP1 JUMP JUMPDEST PUSH4 0x4E487B71 PUSH1 0xE0 SHL DUP3 MSTORE PUSH1 0x41 PUSH1 0x4 MSTORE PUSH1 0x24 DUP3 REVERT JUMPDEST SWAP1 POP SWAP1 JUMP INVALID LOG2 PUSH5 0x6970667358 0x22 SLT KECCAK256 0x4B 0xD8 0x1E 0xD9 0xCE 0x4E GAS PUSH17 0x988BA4B423B3078EF511C0CC284FA2C15D 0xD6 0xBE 0xDE SLT 0xBF PUSH9 0x8864736F6C63430008 AND STOP CALLER "},"gasEstimates":{"creation":{"codeDepositCost":"927800","executionCost":"970","totalCost":"928770"},"external":{"addSigner(address)":"82135","confirmOwnershipTransfer(bytes32)":"457","emergencyPause()":"infinite","emergencyUnpause()":"infinite","getModuleType()":"168","getSigners()":"infinite","getThreshold()":"2585","getToken()":"2364","initialize(address,bytes)":"infinite","isSigner(address)":"2609","owner()":"2474","proposeOwnershipTransfer(address)":"infinite","removeSigner(address)":"51944","renounceOwnership()":"28213","setThreshold(uint256)":"26812","supportsFunction(bytes4)":"949","transferOwnership(address)":"28585"}},"methodIdentifiers":{"addSigner(address)":"eb12d61e","confirmOwnershipTransfer(bytes32)":"e5006801","emergencyPause()":"51858e27","emergencyUnpause()":"4a4e3bd5","getModuleType()":"0b9349b9","getSigners()":"94cf795e","getThreshold()":"e75235b8","getToken()":"21df0da7","initialize(address,bytes)":"d1f57894","isSigner(address)":"7df73e27","owner()":"8da5cb5b","proposeOwnershipTransfer(address)":"21040fc3","removeSigner(address)":"0e316ab7","renounceOwnership()":"715018a6","setThreshold(uint256)":"960bfe04","supportsFunction(bytes4)":"be464464","transferOwnership(address)":"f2fde38b"}},"storageLayout":{"storage":[{"astId":139,"contract":"src/contracts/V4SecurityModule.sol:V4SecurityModule","label":"_initialized","offset":0,"slot":"0","type":"t_uint8"},{"astId":142,"contract":"src/contracts/V4SecurityModule.sol:V4SecurityModule","label":"_initializing","offset":1,"slot":"0","type":"t_bool"},{"astId":1525,"contract":"src/contracts/V4SecurityModule.sol:V4SecurityModule","label":"__gap","offset":0,"slot":"1","type":"t_array(t_uint256)50_storage"},{"astId":11,"contract":"src/contracts/V4SecurityModule.sol:V4SecurityModule","label":"_owner","offset":0,"slot":"51","type":"t_address"},{"astId":131,"contract":"src/contracts/V4SecurityModule.sol:V4SecurityModule","label":"__gap","offset":0,"slot":"52","type":"t_array(t_uint256)49_storage"},{"astId":4409,"contract":"src/contracts/V4SecurityModule.sol:V4SecurityModule","label":"_token","offset":0,"slot":"101","type":"t_address"},{"astId":4412,"contract":"src/contracts/V4SecurityModule.sol:V4SecurityModule","label":"_signers","offset":0,"slot":"102","type":"t_struct(AddressSet)1852_storage"},{"astId":4414,"contract":"src/contracts/V4SecurityModule.sol:V4SecurityModule","label":"_threshold","offset":0,"slot":"104","type":"t_uint256"}],"types":{"t_address":{"encoding":"inplace","label":"address","numberOfBytes":"20"},"t_array(t_bytes32)dyn_storage":{"base":"t_bytes32","encoding":"dynamic_array","label":"bytes32[]","numberOfBytes":"32"},"t_array(t_uint256)49_storage":{"base":"t_uint256","encoding":"inplace","label":"uint256[49]","numberOfBytes":"1568"},"t_array(t_uint256)50_storage":{"base":"t_uint256","encoding":"inplace","label":"uint256[50]","numberOfBytes":"1600"},"t_bool":{"encoding":"inplace","label":"bool","numberOfBytes":"1"},"t_bytes32":{"encoding":"inplace","label":"bytes32","numberOfBytes":"32"},"t_mapping(t_bytes32,t_uint256)":{"encoding":"mapping","key":"t_bytes32","label":"mapping(bytes32 => uint256)","numberOfBytes":"32","value":"t_uint256"},"t_struct(AddressSet)1852_storage":{"encoding":"inplace","label":"struct EnumerableSetUpgradeable.AddressSet","members":[{"astId":1851,"contract":"src/contracts/V4SecurityModule.sol:V4SecurityModule","label":"_inner","offset":0,"slot":"0","type":"t_struct(Set)1537_storage"}],"numberOfBytes":"64"},"t_struct(Set)1537_storage":{"encoding":"inplace","label":"struct EnumerableSetUpgradeable.Set","members":[{"astId":1532,"contract":"src/contracts/V4SecurityModule.sol:V4SecurityModule","label":"_values","offset":0,"slot":"0","type":"t_array(t_bytes32)dyn_storage"},{"astId":1536,"contract":"src/contracts/V4SecurityModule.sol:V4SecurityModule","label":"_indexes","offset":0,"slot":"1","type":"t_mapping(t_bytes32,t_uint256)"}],"numberOfBytes":"64"},"t_uint256":{"encoding":"inplace","label":"uint256","numberOfBytes":"32"},"t_uint8":{"encoding":"inplace","label":"uint8","numberOfBytes":"1"}}},"userdoc":{"kind":"user","methods":{},"version":1}}}}