{"src/contracts/V4TokenBase.sol":{"V4TokenBase":{"abi":[{"inputs":[],"name":"ModuleDoesNotExist","type":"error"},{"inputs":[],"name":"ModuleExists","type":"error"},{"inputs":[],"name":"PermissionDenied","type":"error"},{"anonymous":false,"inputs":[{"indexed":true,"internalType":"address","name":"owner","type":"address"},{"indexed":true,"internalType":"address","name":"spender","type":"address"},{"indexed":false,"internalType":"uint256","name":"value","type":"uint256"}],"name":"Approval","type":"event"},{"anonymous":false,"inputs":[{"indexed":false,"internalType":"uint8","name":"version","type":"uint8"}],"name":"Initialized","type":"event"},{"anonymous":false,"inputs":[{"indexed":true,"internalType":"address","name":"previousOwner","type":"address"},{"indexed":true,"internalType":"address","name":"newOwner","type":"address"}],"name":"OwnershipTransferred","type":"event"},{"anonymous":false,"inputs":[{"indexed":false,"internalType":"address","name":"account","type":"address"}],"name":"Paused","type":"event"},{"anonymous":false,"inputs":[{"indexed":true,"internalType":"address","name":"from","type":"address"},{"indexed":true,"internalType":"address","name":"to","type":"address"},{"indexed":false,"internalType":"uint256","name":"value","type":"uint256"}],"name":"Transfer","type":"event"},{"anonymous":false,"inputs":[{"indexed":false,"internalType":"address","name":"account","type":"address"}],"name":"Unpaused","type":"event"},{"inputs":[{"internalType":"address","name":"moduleAddress","type":"address"},{"internalType":"bytes","name":"data","type":"bytes"}],"name":"addModule","outputs":[{"internalType":"bool","name":"","type":"bool"}],"stateMutability":"nonpayable","type":"function"},{"inputs":[{"internalType":"address","name":"owner","type":"address"},{"internalType":"address","name":"spender","type":"address"}],"name":"allowance","outputs":[{"internalType":"uint256","name":"","type":"uint256"}],"stateMutability":"view","type":"function"},{"inputs":[{"internalType":"address","name":"spender","type":"address"},{"internalType":"uint256","name":"amount","type":"uint256"}],"name":"approve","outputs":[{"internalType":"bool","name":"","type":"bool"}],"stateMutability":"nonpayable","type":"function"},{"inputs":[{"internalType":"address","name":"account","type":"address"}],"name":"balanceOf","outputs":[{"internalType":"uint256","name":"","type":"uint256"}],"stateMutability":"view","type":"function"},{"inputs":[],"name":"decimals","outputs":[{"internalType":"uint8","name":"","type":"uint8"}],"stateMutability":"view","type":"function"},{"inputs":[{"internalType":"address","name":"spender","type":"address"},{"internalType":"uint256","name":"subtractedValue","type":"uint256"}],"name":"decreaseAllowance","outputs":[{"internalType":"bool","name":"","type":"bool"}],"stateMutability":"nonpayable","type":"function"},{"inputs":[{"internalType":"address","name":"target","type":"address"},{"internalType":"bytes","name":"data","type":"bytes"}],"name":"executeFromModule","outputs":[{"internalType":"bool","name":"success","type":"bool"},{"internalType":"bytes","name":"returnData","type":"bytes"}],"stateMutability":"nonpayable","type":"function"},{"inputs":[],"name":"getModules","outputs":[{"internalType":"address[]","name":"","type":"address[]"}],"stateMutability":"view","type":"function"},{"inputs":[{"internalType":"address","name":"spender","type":"address"},{"internalType":"uint256","name":"addedValue","type":"uint256"}],"name":"increaseAllowance","outputs":[{"internalType":"bool","name":"","type":"bool"}],"stateMutability":"nonpayable","type":"function"},{"inputs":[{"internalType":"string","name":"name_","type":"string"},{"internalType":"string","name":"symbol_","type":"string"},{"internalType":"uint256","name":"initialSupply","type":"uint256"},{"internalType":"address","name":"owner_","type":"address"}],"name":"initialize","outputs":[],"stateMutability":"nonpayable","type":"function"},{"inputs":[{"internalType":"address","name":"moduleAddress","type":"address"}],"name":"isModuleActive","outputs":[{"internalType":"bool","name":"","type":"bool"}],"stateMutability":"view","type":"function"},{"inputs":[],"name":"name","outputs":[{"internalType":"string","name":"","type":"string"}],"stateMutability":"view","type":"function"},{"inputs":[],"name":"owner","outputs":[{"internalType":"address","name":"","type":"address"}],"stateMutability":"view","type":"function"},{"inputs":[],"name":"pause","outputs":[],"stateMutability":"nonpayable","type":"function"},{"inputs":[],"name":"paused","outputs":[{"internalType":"bool","name":"","type":"bool"}],"stateMutability":"view","type":"function"},{"inputs":[{"internalType":"address","name":"moduleAddress","type":"address"}],"name":"removeModule","outputs":[{"internalType":"bool","name":"","type":"bool"}],"stateMutability":"nonpayable","type":"function"},{"inputs":[],"name":"renounceOwnership","outputs":[],"stateMutability":"nonpayable","type":"function"},{"inputs":[],"name":"symbol","outputs":[{"internalType":"string","name":"","type":"string"}],"stateMutability":"view","type":"function"},{"inputs":[],"name":"totalSupply","outputs":[{"internalType":"uint256","name":"","type":"uint256"}],"stateMutability":"view","type":"function"},{"inputs":[{"internalType":"address","name":"to","type":"address"},{"internalType":"uint256","name":"amount","type":"uint256"}],"name":"transfer","outputs":[{"internalType":"bool","name":"","type":"bool"}],"stateMutability":"nonpayable","type":"function"},{"inputs":[{"internalType":"address","name":"from","type":"address"},{"internalType":"address","name":"to","type":"address"},{"internalType":"uint256","name":"amount","type":"uint256"}],"name":"transferFrom","outputs":[{"internalType":"bool","name":"","type":"bool"}],"stateMutability":"nonpayable","type":"function"},{"inputs":[{"internalType":"address","name":"newOwner","type":"address"}],"name":"transferOwnership","outputs":[],"stateMutability":"nonpayable","type":"function"},{"inputs":[],"name":"unpause","outputs":[],"stateMutability":"nonpayable","type":"function"}],"devdoc":{"details":"Base implementation for V4 tokens with modular architecture","events":{"Approval(address,address,uint256)":{"details":"Emitted when the allowance of a `spender` for an `owner` is set by a call to {approve}. `value` is the new allowance."},"Initialized(uint8)":{"details":"Triggered when the contract has been initialized or reinitialized."},"Paused(address)":{"details":"Emitted when the pause is triggered by `account`."},"Transfer(address,address,uint256)":{"details":"Emitted when `value` tokens are moved from one account (`from`) to another (`to`). Note that `value` may be zero."},"Unpaused(address)":{"details":"Emitted when the pause is lifted by `account`."}},"kind":"dev","methods":{"addModule(address,bytes)":{"details":"Add a module to the token","params":{"data":"Initialization data for the module","moduleAddress":"Address of the module to add"},"returns":{"_0":"success Whether the module was successfully added"}},"allowance(address,address)":{"details":"See {IERC20-allowance}."},"approve(address,uint256)":{"details":"See {IERC20-approve}. NOTE: If `amount` is the maximum `uint256`, the allowance is not updated on `transferFrom`. This is semantically equivalent to an infinite approval. Requirements: - `spender` cannot be the zero address."},"balanceOf(address)":{"details":"See {IERC20-balanceOf}."},"decimals()":{"details":"Returns the number of decimals used to get its user representation. For example, if `decimals` equals `2`, a balance of `505` tokens should be displayed to a user as `5.05` (`505 / 10 ** 2`). Tokens usually opt for a value of 18, imitating the relationship between Ether and Wei. This is the default value returned by this function, unless it's overridden. NOTE: This information is only used for _display_ purposes: it in no way affects any of the arithmetic of the contract, including {IERC20-balanceOf} and {IERC20-transfer}."},"decreaseAllowance(address,uint256)":{"details":"Atomically decreases the allowance granted to `spender` by the caller. This is an alternative to {approve} that can be used as a mitigation for problems described in {IERC20-approve}. Emits an {Approval} event indicating the updated allowance. Requirements: - `spender` cannot be the zero address. - `spender` must have allowance for the caller of at least `subtractedValue`."},"executeFromModule(address,bytes)":{"details":"Execute a function call from a module","params":{"data":"Call data","target":"Target address for the call"},"returns":{"returnData":"Data returned by the call","success":"Whether the call was successful"}},"getModules()":{"details":"Get all active modules","returns":{"_0":"modules Array of active module addresses"}},"increaseAllowance(address,uint256)":{"details":"Atomically increases the allowance granted to `spender` by the caller. This is an alternative to {approve} that can be used as a mitigation for problems described in {IERC20-approve}. Emits an {Approval} event indicating the updated allowance. Requirements: - `spender` cannot be the zero address."},"initialize(string,string,uint256,address)":{"details":"Initialize the token with basic parameters","params":{"initialSupply":"Initial supply to mint","name_":"Token name","owner_":"Address that will receive the initial supply and become the owner","symbol_":"Token symbol"}},"isModuleActive(address)":{"details":"Check if a module is active","params":{"moduleAddress":"Address of the module to check"},"returns":{"_0":"isActive Whether the module is active"}},"name()":{"details":"Returns the name of the token."},"pause()":{"details":"Pause the token"},"paused()":{"details":"Returns true if the contract is paused, and false otherwise."},"removeModule(address)":{"details":"Remove a module from the token","params":{"moduleAddress":"Address of the module to remove"},"returns":{"_0":"success Whether the module was successfully removed"}},"renounceOwnership()":{"details":"Leaves the contract without owner. It will not be possible to call `onlyOwner` functions. Can only be called by the current owner. NOTE: Renouncing ownership will leave the contract without an owner, thereby disabling any functionality that is only available to the owner."},"symbol()":{"details":"Returns the symbol of the token, usually a shorter version of the name."},"totalSupply()":{"details":"See {IERC20-totalSupply}."},"transfer(address,uint256)":{"details":"See {IERC20-transfer}. Requirements: - `to` cannot be the zero address. - the caller must have a balance of at least `amount`."},"transferFrom(address,address,uint256)":{"details":"See {IERC20-transferFrom}. Emits an {Approval} event indicating the updated allowance. This is not required by the EIP. See the note at the beginning of {ERC20}. NOTE: Does not update the allowance if the current allowance is the maximum `uint256`. Requirements: - `from` and `to` cannot be the zero address. - `from` must have a balance of at least `amount`. - the caller must have allowance for ``from``'s tokens of at least `amount`."},"unpause()":{"details":"Unpause the token"}},"title":"V4TokenBase","version":1},"evm":{"bytecode":{"linkReferences":{},"object":"608080604052346100165761178f908161001c8239f35b600080fdfe608080604052600436101561001357600080fd5b60003560e01c90816306fdde031461100157508063095ea7b314610fdb57806318160ddd14610fbd57806323b872dd14610eff5780632dd3a78c14610ed4578063313ce56714610eb85780633950935114610e675780633f4ba83a14610dc45780635607b78014610d355780635c975abb14610d1257806370a0823114610cd8578063715018a614610c7b5780638456cb5914610bc75780638da5cb5b14610b9e57806395d89b4114610ac9578063a063246114610978578063a457c2d7146108d1578063a9059cbb146108a0578063b2494df3146107d8578063bd3a13f614610248578063d21b9fbd14610209578063dd62ed3e146101b85763f2fde38b1461011c57600080fd5b346101b35760203660031901126101b3576101356110da565b61013d611618565b610145611618565b6001600160a01b0381161561015f5761015d90611670565b005b60405162461bcd60e51b815260206004820152602660248201527f4f776e61626c653a206e6577206f776e657220697320746865207a65726f206160448201526564647265737360d01b6064820152608490fd5b600080fd5b346101b35760403660031901126101b3576101d16110da565b6101d96110f0565b9060018060a01b038091166000526034602052604060002091166000526020526020604060002054604051908152f35b346101b35760203660031901126101b3576001600160a01b0361022a6110da565b1660005260c9602052602060ff604060002054166040519015158152f35b346101b35760803660031901126101b35760043567ffffffffffffffff81116101b3576102799036906004016111a1565b60243567ffffffffffffffff81116101b3576102999036906004016111a1565b6064356001600160a01b03811690036101b3576000549060ff8260081c1615918280936107cb575b80156107b4575b156107585760ff19811660011760005582610746575b506102f960ff60005460081c166102f4816116b9565b6116b9565b825167ffffffffffffffff8111610648576103156036546111e8565b601f81116106dd575b506020601f8211600114610669578192939460009261065e575b50508160011b916000199060031b1c1916176036555b80519067ffffffffffffffff821161064857819061036d6037546111e8565b601f81116105d1575b50602090601f83116001146105595760009261054e575b50508160011b916000199060031b1c1916176037555b6103b860ff60005460081c166102f4816116b9565b6103c133611670565b6103d660ff60005460081c166102f4816116b9565b60ff19609754166097556103eb606435611670565b604435610431575b6103f957005b61ff0019600054166000557f7f26b83ff96e1f2b6a682f133852f6798a09c465da95921460cefb3847402498602060405160018152a1005b6064356001600160a01b0316156105095760ff609754166104b35761045a60443560355461138f565b6035556064356001600160a01b03166000818152603360209081526040808320805460443590810190915590519081527fddf252ad1be2c89b69c2b068fc378daa952ba7f163c4a11628f55a4df523b3ef9190a36103f3565b60405162461bcd60e51b815260206004820152602860248201527f5634546f6b656e426173653a20746f6b656e207472616e73666572207768696c60448201526719481c185d5cd95960c21b6064820152608490fd5b60405162461bcd60e51b815260206004820152601f60248201527f45524332303a206d696e7420746f20746865207a65726f2061646472657373006044820152606490fd5b01519050838061038d565b9250603760005260008051602061173a833981519152906000935b601f19841685106105b6576001945083601f1981161061059d575b505050811b016037556103a3565b015160001960f88460031b161c1916905583808061058f565b81810151835560209485019460019093019290910190610574565b9091506037600052601f830160051c60008051602061173a833981519152019060208410610632575b90601f8493920160051c60008051602061173a83398151915201905b8181106106235750610376565b60008155849350600101610616565b60008051602061173a83398151915291506105fa565b634e487b7160e01b600052604160045260246000fd5b015190508480610338565b603660005260008051602061171a8339815191529060005b601f19841681106106c55750600193949583601f198116106106ac575b505050811b0160365561034e565b015160001960f88460031b161c1916905584808061069e565b9091602060018192858a015181550193019101610681565b6036600052601f820160051c60008051602061171a8339815191520160208310610731575b601f820160051c60008051602061171a833981519152018110610725575061031e565b60008155600101610702565b5060008051602061171a833981519152610702565b61ffff191661010117600055836102de565b60405162461bcd60e51b815260206004820152602e60248201527f496e697469616c697a61626c653a20636f6e747261637420697320616c72656160448201526d191e481a5b9a5d1a585b1a5e995960921b6064820152608490fd5b50303b1580156102c85750600160ff8216146102c8565b50600160ff8216106102c1565b346101b35760003660031901126101b3576040518060ca548083526020809301809160ca6000527f42d72674974f694b5f5159593243114d38a5c39c89d6b62fee061ff523240ee19060005b8682821061088357868661083a82880383611163565b604051928392818401908285525180915260408401929160005b82811061086357505050500390f35b83516001600160a01b031685528695509381019392810192600101610854565b83546001600160a01b031685529093019260019283019201610824565b346101b35760403660031901126101b3576108c66108bc6110da565b602435903361149e565b602060405160018152f35b346101b35760403660031901126101b3576108ea6110da565b60243590336000526034602052604060002060018060a01b03821660005260205260406000205491808310610925576108c69203903361139c565b60405162461bcd60e51b815260206004820152602560248201527f45524332303a2064656372656173656420616c6c6f77616e63652062656c6f77604482015264207a65726f60d81b6064820152608490fd5b346101b35760203660031901126101b3576109916110da565b610999611618565b6001600160a01b03908116600081815260c9602052604090205460ff1615610ab757600081815260c960205260408120805460ff19169055905b60ca9182549283821015610aad578493836109ed84611222565b979054600398891b1c1614610a0a575092935060010191506109d3565b9093925060001991828201918211610a9757610a3984610a2c610a5794611222565b905490891b1c1691611222565b90919060018060a01b038084549260031b9316831b921b1916179055565b82548015610a81570192610a6a84611222565b81939154921b1b1916905555602060405160018152f35b634e487b7160e01b600052603160045260246000fd5b634e487b7160e01b600052601160045260246000fd5b50505050506108c6565b604051630286c71d60e01b8152600490fd5b346101b35760003660031901126101b357604051603754600082610aec836111e8565b9182825260209360019085600182169182600014610b7e575050600114610b33575b50610b1b92500383611163565b610b2f60405192828493845283019061109a565b0390f35b849150603760005260008051602061173a833981519152906000915b858310610b66575050610b1b935082010185610b0e565b80548389018501528794508693909201918101610b4f565b60ff191685820152610b1b95151560051b8501019250879150610b0e9050565b346101b35760003660031901126101b3576065546040516001600160a01b039091168152602090f35b346101b35760003660031901126101b3573360005260c960205260ff6040600020541615610c695760975460ff8116610c315760019060ff1916176097557f62e78cea01bee320cd4e420270b5ea74000d11b0c9f74754ebdbfc544b05a2586020604051338152a1005b60405162461bcd60e51b815260206004820152601060248201526f14185d5cd8589b194e881c185d5cd95960821b6044820152606490fd5b604051630782484160e21b8152600490fd5b346101b35760003660031901126101b357610c94611618565b606580546001600160a01b031981169091556000906001600160a01b03167f8be0079c531659141344cd1fd0a4f28419497f9722a3daafe3b4186f6b6457e08280a3005b346101b35760203660031901126101b3576001600160a01b03610cf96110da565b1660005260336020526020604060002054604051908152f35b346101b35760003660031901126101b357602060ff609754166040519015158152f35b346101b357610d4336611106565b913360005260c960205260ff6040600020541615610c695782600080949381946040519384928337810182815203925af13d15610dbc573d90610d8582611185565b91610d936040519384611163565b82523d6000602084013e5b610b2f6040519283921515835260406020840152604083019061109a565b606090610d9e565b346101b35760003660031901126101b3573360005260c960205260ff6040600020541615610c695760975460ff811615610e2b5760ff19166097557f5db9ee0a495bf2e6ff9c91a7834c1ba4fdd244a5e8aa4e537bd38aeae4b073aa6020604051338152a1005b60405162461bcd60e51b815260206004820152601460248201527314185d5cd8589b194e881b9bdd081c185d5cd95960621b6044820152606490fd5b346101b35760403660031901126101b3576108c6610e836110da565b336000526034602052604060002060018060a01b038216600052602052610eb160243560406000205461138f565b903361139c565b346101b35760003660031901126101b357602060405160128152f35b346101b3576020610ef5610ee736611106565b91610ef0611618565b61126f565b6040519015158152f35b346101b35760603660031901126101b357610f186110da565b610f206110f0565b6044359060018060a01b0383166000526034602052604060002033600052602052604060002054926000198403610f5c575b6108c6935061149e565b828410610f7857610f73836108c69503338361139c565b610f52565b60405162461bcd60e51b815260206004820152601d60248201527f45524332303a20696e73756666696369656e7420616c6c6f77616e63650000006044820152606490fd5b346101b35760003660031901126101b3576020603554604051908152f35b346101b35760403660031901126101b3576108c6610ff76110da565b602435903361139c565b346101b35760003660031901126101b357603654600082611021836111e8565b9182825260209360019085600182169182600014610b7e57505060011461104f5750610b1b92500383611163565b849150603660005260008051602061171a833981519152906000915b858310611082575050610b1b935082010185610b0e565b8054838901850152879450869390920191810161106b565b919082519283825260005b8481106110c6575050826000602080949584010152601f8019910116010190565b6020818301810151848301820152016110a5565b600435906001600160a01b03821682036101b357565b602435906001600160a01b03821682036101b357565b60406003198201126101b3576004356001600160a01b03811681036101b3579160243567ffffffffffffffff928382116101b357806023830112156101b35781600401359384116101b357602484830101116101b3576024019190565b90601f8019910116810190811067ffffffffffffffff82111761064857604052565b67ffffffffffffffff811161064857601f01601f191660200190565b81601f820112156101b3578035906111b882611185565b926111c66040519485611163565b828452602083830101116101b357816000926020809301838601378301015290565b90600182811c92168015611218575b602083101461120257565b634e487b7160e01b600052602260045260246000fd5b91607f16916111f7565b60ca548110156112595760ca6000527f42d72674974f694b5f5159593243114d38a5c39c89d6b62fee061ff523240ee10190600090565b634e487b7160e01b600052603260045260246000fd5b6001600160a01b038116600081815260c960205260408082205493959194909360ff1661137e57823b1561137a5781606486928651948593849263347d5e2560e21b8452306004850152896024850152816044850152848401378181018301859052601f01601f1916810103018183865af1908161134b575b506112f4575050905090565b825260c96020528120805460ff1916600117905560ca549068010000000000000000821015611337575090610a39826001611332940160ca55611222565b600190565b634e487b7160e01b81526041600452602490fd5b67ffffffffffffffff819592951161136657835292386112e8565b634e487b7160e01b82526041600452602482fd5b8480fd5b835163bdf91dc160e01b8152600490fd5b91908201809211610a9757565b6001600160a01b0390811691821561144d57169182156113fd5760207f8c5be1e5ebec7d5bd14f71427d1e84f3dd0314c0f7b2291e5b200ac8c7c3b925918360005260348252604060002085600052825280604060002055604051908152a3565b60405162461bcd60e51b815260206004820152602260248201527f45524332303a20617070726f766520746f20746865207a65726f206164647265604482015261737360f01b6064820152608490fd5b60405162461bcd60e51b8152602060048201526024808201527f45524332303a20617070726f76652066726f6d20746865207a65726f206164646044820152637265737360e01b6064820152608490fd5b6001600160a01b039081169182156115c557169182156115745760ff609754166104b3576000828152603360205260408120549180831061152057604082827fddf252ad1be2c89b69c2b068fc378daa952ba7f163c4a11628f55a4df523b3ef95876020965260338652038282205586815220818154019055604051908152a3565b60405162461bcd60e51b815260206004820152602660248201527f45524332303a207472616e7366657220616d6f756e7420657863656564732062604482015265616c616e636560d01b6064820152608490fd5b60405162461bcd60e51b815260206004820152602360248201527f45524332303a207472616e7366657220746f20746865207a65726f206164647260448201526265737360e81b6064820152608490fd5b60405162461bcd60e51b815260206004820152602560248201527f45524332303a207472616e736665722066726f6d20746865207a65726f206164604482015264647265737360d81b6064820152608490fd5b6065546001600160a01b0316330361162c57565b606460405162461bcd60e51b815260206004820152602060248201527f4f776e61626c653a2063616c6c6572206973206e6f7420746865206f776e65726044820152fd5b606580546001600160a01b039283166001600160a01b0319821681179092559091167f8be0079c531659141344cd1fd0a4f28419497f9722a3daafe3b4186f6b6457e0600080a3565b156116c057565b60405162461bcd60e51b815260206004820152602b60248201527f496e697469616c697a61626c653a20636f6e7472616374206973206e6f74206960448201526a6e697469616c697a696e6760a81b6064820152608490fdfe4a11f94e20a93c79f6ec743a1954ec4fc2c08429ae2122118bf234b2185c81b842a7b7dd785cd69714a189dffb3fd7d7174edc9ece837694ce50f7078f7c31aea2646970667358221220a9006a5e4ba36a7c99d0e3a0717cba938d8c5f08a9b821ed0df07f2cdea2ffe664736f6c63430008160033","opcodes":"PUSH1 0x80 DUP1 PUSH1 0x40 MSTORE CALLVALUE PUSH2 0x16 JUMPI PUSH2 0x178F SWAP1 DUP2 PUSH2 0x1C DUP3 CODECOPY RETURN JUMPDEST PUSH1 0x0 DUP1 REVERT INVALID PUSH1 0x80 DUP1 PUSH1 0x40 MSTORE PUSH1 0x4 CALLDATASIZE LT ISZERO PUSH2 0x13 JUMPI PUSH1 0x0 DUP1 REVERT JUMPDEST PUSH1 0x0 CALLDATALOAD PUSH1 0xE0 SHR SWAP1 DUP2 PUSH4 0x6FDDE03 EQ PUSH2 0x1001 JUMPI POP DUP1 PUSH4 0x95EA7B3 EQ PUSH2 0xFDB JUMPI DUP1 PUSH4 0x18160DDD EQ PUSH2 0xFBD JUMPI DUP1 PUSH4 0x23B872DD EQ PUSH2 0xEFF JUMPI DUP1 PUSH4 0x2DD3A78C EQ PUSH2 0xED4 JUMPI DUP1 PUSH4 0x313CE567 EQ PUSH2 0xEB8 JUMPI DUP1 PUSH4 0x39509351 EQ PUSH2 0xE67 JUMPI DUP1 PUSH4 0x3F4BA83A EQ PUSH2 0xDC4 JUMPI DUP1 PUSH4 0x5607B780 EQ PUSH2 0xD35 JUMPI DUP1 PUSH4 0x5C975ABB EQ PUSH2 0xD12 JUMPI DUP1 PUSH4 0x70A08231 EQ PUSH2 0xCD8 JUMPI DUP1 PUSH4 0x715018A6 EQ PUSH2 0xC7B JUMPI DUP1 PUSH4 0x8456CB59 EQ PUSH2 0xBC7 JUMPI DUP1 PUSH4 0x8DA5CB5B EQ PUSH2 0xB9E JUMPI DUP1 PUSH4 0x95D89B41 EQ PUSH2 0xAC9 JUMPI DUP1 PUSH4 0xA0632461 EQ PUSH2 0x978 JUMPI DUP1 PUSH4 0xA457C2D7 EQ PUSH2 0x8D1 JUMPI DUP1 PUSH4 0xA9059CBB EQ PUSH2 0x8A0 JUMPI DUP1 PUSH4 0xB2494DF3 EQ PUSH2 0x7D8 JUMPI DUP1 PUSH4 0xBD3A13F6 EQ PUSH2 0x248 JUMPI DUP1 PUSH4 0xD21B9FBD EQ PUSH2 0x209 JUMPI DUP1 PUSH4 0xDD62ED3E EQ PUSH2 0x1B8 JUMPI PUSH4 0xF2FDE38B EQ PUSH2 0x11C JUMPI PUSH1 0x0 DUP1 REVERT JUMPDEST CALLVALUE PUSH2 0x1B3 JUMPI PUSH1 0x20 CALLDATASIZE PUSH1 0x3 NOT ADD SLT PUSH2 0x1B3 JUMPI PUSH2 0x135 PUSH2 0x10DA JUMP JUMPDEST PUSH2 0x13D PUSH2 0x1618 JUMP JUMPDEST PUSH2 0x145 PUSH2 0x1618 JUMP JUMPDEST PUSH1 0x1 PUSH1 0x1 PUSH1 0xA0 SHL SUB DUP2 AND ISZERO PUSH2 0x15F JUMPI PUSH2 0x15D SWAP1 PUSH2 0x1670 JUMP JUMPDEST STOP JUMPDEST PUSH1 0x40 MLOAD PUSH3 0x461BCD PUSH1 0xE5 SHL DUP2 MSTORE PUSH1 0x20 PUSH1 0x4 DUP3 ADD MSTORE PUSH1 0x26 PUSH1 0x24 DUP3 ADD MSTORE PUSH32 0x4F776E61626C653A206E6577206F776E657220697320746865207A65726F2061 PUSH1 0x44 DUP3 ADD MSTORE PUSH6 0x646472657373 PUSH1 0xD0 SHL PUSH1 0x64 DUP3 ADD MSTORE PUSH1 0x84 SWAP1 REVERT JUMPDEST PUSH1 0x0 DUP1 REVERT JUMPDEST CALLVALUE PUSH2 0x1B3 JUMPI PUSH1 0x40 CALLDATASIZE PUSH1 0x3 NOT ADD SLT PUSH2 0x1B3 JUMPI PUSH2 0x1D1 PUSH2 0x10DA JUMP JUMPDEST PUSH2 0x1D9 PUSH2 0x10F0 JUMP JUMPDEST SWAP1 PUSH1 0x1 DUP1 PUSH1 0xA0 SHL SUB DUP1 SWAP2 AND PUSH1 0x0 MSTORE PUSH1 0x34 PUSH1 0x20 MSTORE PUSH1 0x40 PUSH1 0x0 KECCAK256 SWAP2 AND PUSH1 0x0 MSTORE PUSH1 0x20 MSTORE PUSH1 0x20 PUSH1 0x40 PUSH1 0x0 KECCAK256 SLOAD PUSH1 0x40 MLOAD SWAP1 DUP2 MSTORE RETURN JUMPDEST CALLVALUE PUSH2 0x1B3 JUMPI PUSH1 0x20 CALLDATASIZE PUSH1 0x3 NOT ADD SLT PUSH2 0x1B3 JUMPI PUSH1 0x1 PUSH1 0x1 PUSH1 0xA0 SHL SUB PUSH2 0x22A PUSH2 0x10DA JUMP JUMPDEST AND PUSH1 0x0 MSTORE PUSH1 0xC9 PUSH1 0x20 MSTORE PUSH1 0x20 PUSH1 0xFF PUSH1 0x40 PUSH1 0x0 KECCAK256 SLOAD AND PUSH1 0x40 MLOAD SWAP1 ISZERO ISZERO DUP2 MSTORE RETURN JUMPDEST CALLVALUE PUSH2 0x1B3 JUMPI PUSH1 0x80 CALLDATASIZE PUSH1 0x3 NOT ADD SLT PUSH2 0x1B3 JUMPI PUSH1 0x4 CALLDATALOAD PUSH8 0xFFFFFFFFFFFFFFFF DUP2 GT PUSH2 0x1B3 JUMPI PUSH2 0x279 SWAP1 CALLDATASIZE SWAP1 PUSH1 0x4 ADD PUSH2 0x11A1 JUMP JUMPDEST PUSH1 0x24 CALLDATALOAD PUSH8 0xFFFFFFFFFFFFFFFF DUP2 GT PUSH2 0x1B3 JUMPI PUSH2 0x299 SWAP1 CALLDATASIZE SWAP1 PUSH1 0x4 ADD PUSH2 0x11A1 JUMP JUMPDEST PUSH1 0x64 CALLDATALOAD PUSH1 0x1 PUSH1 0x1 PUSH1 0xA0 SHL SUB DUP2 AND SWAP1 SUB PUSH2 0x1B3 JUMPI PUSH1 0x0 SLOAD SWAP1 PUSH1 0xFF DUP3 PUSH1 0x8 SHR AND ISZERO SWAP2 DUP3 DUP1 SWAP4 PUSH2 0x7CB JUMPI JUMPDEST DUP1 ISZERO PUSH2 0x7B4 JUMPI JUMPDEST ISZERO PUSH2 0x758 JUMPI PUSH1 0xFF NOT DUP2 AND PUSH1 0x1 OR PUSH1 0x0 SSTORE DUP3 PUSH2 0x746 JUMPI JUMPDEST POP PUSH2 0x2F9 PUSH1 0xFF PUSH1 0x0 SLOAD PUSH1 0x8 SHR AND PUSH2 0x2F4 DUP2 PUSH2 0x16B9 JUMP JUMPDEST PUSH2 0x16B9 JUMP JUMPDEST DUP3 MLOAD PUSH8 0xFFFFFFFFFFFFFFFF DUP2 GT PUSH2 0x648 JUMPI PUSH2 0x315 PUSH1 0x36 SLOAD PUSH2 0x11E8 JUMP JUMPDEST PUSH1 0x1F DUP2 GT PUSH2 0x6DD JUMPI JUMPDEST POP PUSH1 0x20 PUSH1 0x1F DUP3 GT PUSH1 0x1 EQ PUSH2 0x669 JUMPI DUP2 SWAP3 SWAP4 SWAP5 PUSH1 0x0 SWAP3 PUSH2 0x65E JUMPI JUMPDEST POP POP DUP2 PUSH1 0x1 SHL SWAP2 PUSH1 0x0 NOT SWAP1 PUSH1 0x3 SHL SHR NOT AND OR PUSH1 0x36 SSTORE JUMPDEST DUP1 MLOAD SWAP1 PUSH8 0xFFFFFFFFFFFFFFFF DUP3 GT PUSH2 0x648 JUMPI DUP2 SWAP1 PUSH2 0x36D PUSH1 0x37 SLOAD PUSH2 0x11E8 JUMP JUMPDEST PUSH1 0x1F DUP2 GT PUSH2 0x5D1 JUMPI JUMPDEST POP PUSH1 0x20 SWAP1 PUSH1 0x1F DUP4 GT PUSH1 0x1 EQ PUSH2 0x559 JUMPI PUSH1 0x0 SWAP3 PUSH2 0x54E JUMPI JUMPDEST POP POP DUP2 PUSH1 0x1 SHL SWAP2 PUSH1 0x0 NOT SWAP1 PUSH1 0x3 SHL SHR NOT AND OR PUSH1 0x37 SSTORE JUMPDEST PUSH2 0x3B8 PUSH1 0xFF PUSH1 0x0 SLOAD PUSH1 0x8 SHR AND PUSH2 0x2F4 DUP2 PUSH2 0x16B9 JUMP JUMPDEST PUSH2 0x3C1 CALLER PUSH2 0x1670 JUMP JUMPDEST PUSH2 0x3D6 PUSH1 0xFF PUSH1 0x0 SLOAD PUSH1 0x8 SHR AND PUSH2 0x2F4 DUP2 PUSH2 0x16B9 JUMP JUMPDEST PUSH1 0xFF NOT PUSH1 0x97 SLOAD AND PUSH1 0x97 SSTORE PUSH2 0x3EB PUSH1 0x64 CALLDATALOAD PUSH2 0x1670 JUMP JUMPDEST PUSH1 0x44 CALLDATALOAD PUSH2 0x431 JUMPI JUMPDEST PUSH2 0x3F9 JUMPI STOP JUMPDEST PUSH2 0xFF00 NOT PUSH1 0x0 SLOAD AND PUSH1 0x0 SSTORE PUSH32 0x7F26B83FF96E1F2B6A682F133852F6798A09C465DA95921460CEFB3847402498 PUSH1 0x20 PUSH1 0x40 MLOAD PUSH1 0x1 DUP2 MSTORE LOG1 STOP JUMPDEST PUSH1 0x64 CALLDATALOAD PUSH1 0x1 PUSH1 0x1 PUSH1 0xA0 SHL SUB AND ISZERO PUSH2 0x509 JUMPI PUSH1 0xFF PUSH1 0x97 SLOAD AND PUSH2 0x4B3 JUMPI PUSH2 0x45A PUSH1 0x44 CALLDATALOAD PUSH1 0x35 SLOAD PUSH2 0x138F JUMP JUMPDEST PUSH1 0x35 SSTORE PUSH1 0x64 CALLDATALOAD PUSH1 0x1 PUSH1 0x1 PUSH1 0xA0 SHL SUB AND PUSH1 0x0 DUP2 DUP2 MSTORE PUSH1 0x33 PUSH1 0x20 SWAP1 DUP2 MSTORE PUSH1 0x40 DUP1 DUP4 KECCAK256 DUP1 SLOAD PUSH1 0x44 CALLDATALOAD SWAP1 DUP2 ADD SWAP1 SWAP2 SSTORE SWAP1 MLOAD SWAP1 DUP2 MSTORE PUSH32 0xDDF252AD1BE2C89B69C2B068FC378DAA952BA7F163C4A11628F55A4DF523B3EF SWAP2 SWAP1 LOG3 PUSH2 0x3F3 JUMP JUMPDEST PUSH1 0x40 MLOAD PUSH3 0x461BCD PUSH1 0xE5 SHL DUP2 MSTORE PUSH1 0x20 PUSH1 0x4 DUP3 ADD MSTORE PUSH1 0x28 PUSH1 0x24 DUP3 ADD MSTORE PUSH32 0x5634546F6B656E426173653A20746F6B656E207472616E73666572207768696C PUSH1 0x44 DUP3 ADD MSTORE PUSH8 0x19481C185D5CD959 PUSH1 0xC2 SHL PUSH1 0x64 DUP3 ADD MSTORE PUSH1 0x84 SWAP1 REVERT JUMPDEST PUSH1 0x40 MLOAD PUSH3 0x461BCD PUSH1 0xE5 SHL DUP2 MSTORE PUSH1 0x20 PUSH1 0x4 DUP3 ADD MSTORE PUSH1 0x1F PUSH1 0x24 DUP3 ADD MSTORE PUSH32 0x45524332303A206D696E7420746F20746865207A65726F206164647265737300 PUSH1 0x44 DUP3 ADD MSTORE PUSH1 0x64 SWAP1 REVERT JUMPDEST ADD MLOAD SWAP1 POP DUP4 DUP1 PUSH2 0x38D JUMP JUMPDEST SWAP3 POP PUSH1 0x37 PUSH1 0x0 MSTORE PUSH1 0x0 DUP1 MLOAD PUSH1 0x20 PUSH2 0x173A DUP4 CODECOPY DUP2 MLOAD SWAP2 MSTORE SWAP1 PUSH1 0x0 SWAP4 JUMPDEST PUSH1 0x1F NOT DUP5 AND DUP6 LT PUSH2 0x5B6 JUMPI PUSH1 0x1 SWAP5 POP DUP4 PUSH1 0x1F NOT DUP2 AND LT PUSH2 0x59D JUMPI JUMPDEST POP POP POP DUP2 SHL ADD PUSH1 0x37 SSTORE PUSH2 0x3A3 JUMP JUMPDEST ADD MLOAD PUSH1 0x0 NOT PUSH1 0xF8 DUP5 PUSH1 0x3 SHL AND SHR NOT AND SWAP1 SSTORE DUP4 DUP1 DUP1 PUSH2 0x58F JUMP JUMPDEST DUP2 DUP2 ADD MLOAD DUP4 SSTORE PUSH1 0x20 SWAP5 DUP6 ADD SWAP5 PUSH1 0x1 SWAP1 SWAP4 ADD SWAP3 SWAP1 SWAP2 ADD SWAP1 PUSH2 0x574 JUMP JUMPDEST SWAP1 SWAP2 POP PUSH1 0x37 PUSH1 0x0 MSTORE PUSH1 0x1F DUP4 ADD PUSH1 0x5 SHR PUSH1 0x0 DUP1 MLOAD PUSH1 0x20 PUSH2 0x173A DUP4 CODECOPY DUP2 MLOAD SWAP2 MSTORE ADD SWAP1 PUSH1 0x20 DUP5 LT PUSH2 0x632 JUMPI JUMPDEST SWAP1 PUSH1 0x1F DUP5 SWAP4 SWAP3 ADD PUSH1 0x5 SHR PUSH1 0x0 DUP1 MLOAD PUSH1 0x20 PUSH2 0x173A DUP4 CODECOPY DUP2 MLOAD SWAP2 MSTORE ADD SWAP1 JUMPDEST DUP2 DUP2 LT PUSH2 0x623 JUMPI POP PUSH2 0x376 JUMP JUMPDEST PUSH1 0x0 DUP2 SSTORE DUP5 SWAP4 POP PUSH1 0x1 ADD PUSH2 0x616 JUMP JUMPDEST PUSH1 0x0 DUP1 MLOAD PUSH1 0x20 PUSH2 0x173A DUP4 CODECOPY DUP2 MLOAD SWAP2 MSTORE SWAP2 POP PUSH2 0x5FA JUMP JUMPDEST PUSH4 0x4E487B71 PUSH1 0xE0 SHL PUSH1 0x0 MSTORE PUSH1 0x41 PUSH1 0x4 MSTORE PUSH1 0x24 PUSH1 0x0 REVERT JUMPDEST ADD MLOAD SWAP1 POP DUP5 DUP1 PUSH2 0x338 JUMP JUMPDEST PUSH1 0x36 PUSH1 0x0 MSTORE PUSH1 0x0 DUP1 MLOAD PUSH1 0x20 PUSH2 0x171A DUP4 CODECOPY DUP2 MLOAD SWAP2 MSTORE SWAP1 PUSH1 0x0 JUMPDEST PUSH1 0x1F NOT DUP5 AND DUP2 LT PUSH2 0x6C5 JUMPI POP PUSH1 0x1 SWAP4 SWAP5 SWAP6 DUP4 PUSH1 0x1F NOT DUP2 AND LT PUSH2 0x6AC JUMPI JUMPDEST POP POP POP DUP2 SHL ADD PUSH1 0x36 SSTORE PUSH2 0x34E JUMP JUMPDEST ADD MLOAD PUSH1 0x0 NOT PUSH1 0xF8 DUP5 PUSH1 0x3 SHL AND SHR NOT AND SWAP1 SSTORE DUP5 DUP1 DUP1 PUSH2 0x69E JUMP JUMPDEST SWAP1 SWAP2 PUSH1 0x20 PUSH1 0x1 DUP2 SWAP3 DUP6 DUP11 ADD MLOAD DUP2 SSTORE ADD SWAP4 ADD SWAP2 ADD PUSH2 0x681 JUMP JUMPDEST PUSH1 0x36 PUSH1 0x0 MSTORE PUSH1 0x1F DUP3 ADD PUSH1 0x5 SHR PUSH1 0x0 DUP1 MLOAD PUSH1 0x20 PUSH2 0x171A DUP4 CODECOPY DUP2 MLOAD SWAP2 MSTORE ADD PUSH1 0x20 DUP4 LT PUSH2 0x731 JUMPI JUMPDEST PUSH1 0x1F DUP3 ADD PUSH1 0x5 SHR PUSH1 0x0 DUP1 MLOAD PUSH1 0x20 PUSH2 0x171A DUP4 CODECOPY DUP2 MLOAD SWAP2 MSTORE ADD DUP2 LT PUSH2 0x725 JUMPI POP PUSH2 0x31E JUMP JUMPDEST PUSH1 0x0 DUP2 SSTORE PUSH1 0x1 ADD PUSH2 0x702 JUMP JUMPDEST POP PUSH1 0x0 DUP1 MLOAD PUSH1 0x20 PUSH2 0x171A DUP4 CODECOPY DUP2 MLOAD SWAP2 MSTORE PUSH2 0x702 JUMP JUMPDEST PUSH2 0xFFFF NOT AND PUSH2 0x101 OR PUSH1 0x0 SSTORE DUP4 PUSH2 0x2DE JUMP JUMPDEST PUSH1 0x40 MLOAD PUSH3 0x461BCD PUSH1 0xE5 SHL DUP2 MSTORE PUSH1 0x20 PUSH1 0x4 DUP3 ADD MSTORE PUSH1 0x2E PUSH1 0x24 DUP3 ADD MSTORE PUSH32 0x496E697469616C697A61626C653A20636F6E747261637420697320616C726561 PUSH1 0x44 DUP3 ADD MSTORE PUSH14 0x191E481A5B9A5D1A585B1A5E9959 PUSH1 0x92 SHL PUSH1 0x64 DUP3 ADD MSTORE PUSH1 0x84 SWAP1 REVERT JUMPDEST POP ADDRESS EXTCODESIZE ISZERO DUP1 ISZERO PUSH2 0x2C8 JUMPI POP PUSH1 0x1 PUSH1 0xFF DUP3 AND EQ PUSH2 0x2C8 JUMP JUMPDEST POP PUSH1 0x1 PUSH1 0xFF DUP3 AND LT PUSH2 0x2C1 JUMP JUMPDEST CALLVALUE PUSH2 0x1B3 JUMPI PUSH1 0x0 CALLDATASIZE PUSH1 0x3 NOT ADD SLT PUSH2 0x1B3 JUMPI PUSH1 0x40 MLOAD DUP1 PUSH1 0xCA SLOAD DUP1 DUP4 MSTORE PUSH1 0x20 DUP1 SWAP4 ADD DUP1 SWAP2 PUSH1 0xCA PUSH1 0x0 MSTORE PUSH32 0x42D72674974F694B5F5159593243114D38A5C39C89D6B62FEE061FF523240EE1 SWAP1 PUSH1 0x0 JUMPDEST DUP7 DUP3 DUP3 LT PUSH2 0x883 JUMPI DUP7 DUP7 PUSH2 0x83A DUP3 DUP9 SUB DUP4 PUSH2 0x1163 JUMP JUMPDEST PUSH1 0x40 MLOAD SWAP3 DUP4 SWAP3 DUP2 DUP5 ADD SWAP1 DUP3 DUP6 MSTORE MLOAD DUP1 SWAP2 MSTORE PUSH1 0x40 DUP5 ADD SWAP3 SWAP2 PUSH1 0x0 JUMPDEST DUP3 DUP2 LT PUSH2 0x863 JUMPI POP POP POP POP SUB SWAP1 RETURN JUMPDEST DUP4 MLOAD PUSH1 0x1 PUSH1 0x1 PUSH1 0xA0 SHL SUB AND DUP6 MSTORE DUP7 SWAP6 POP SWAP4 DUP2 ADD SWAP4 SWAP3 DUP2 ADD SWAP3 PUSH1 0x1 ADD PUSH2 0x854 JUMP JUMPDEST DUP4 SLOAD PUSH1 0x1 PUSH1 0x1 PUSH1 0xA0 SHL SUB AND DUP6 MSTORE SWAP1 SWAP4 ADD SWAP3 PUSH1 0x1 SWAP3 DUP4 ADD SWAP3 ADD PUSH2 0x824 JUMP JUMPDEST CALLVALUE PUSH2 0x1B3 JUMPI PUSH1 0x40 CALLDATASIZE PUSH1 0x3 NOT ADD SLT PUSH2 0x1B3 JUMPI PUSH2 0x8C6 PUSH2 0x8BC PUSH2 0x10DA JUMP JUMPDEST PUSH1 0x24 CALLDATALOAD SWAP1 CALLER PUSH2 0x149E JUMP JUMPDEST PUSH1 0x20 PUSH1 0x40 MLOAD PUSH1 0x1 DUP2 MSTORE RETURN JUMPDEST CALLVALUE PUSH2 0x1B3 JUMPI PUSH1 0x40 CALLDATASIZE PUSH1 0x3 NOT ADD SLT PUSH2 0x1B3 JUMPI PUSH2 0x8EA PUSH2 0x10DA JUMP JUMPDEST PUSH1 0x24 CALLDATALOAD SWAP1 CALLER PUSH1 0x0 MSTORE PUSH1 0x34 PUSH1 0x20 MSTORE PUSH1 0x40 PUSH1 0x0 KECCAK256 PUSH1 0x1 DUP1 PUSH1 0xA0 SHL SUB DUP3 AND PUSH1 0x0 MSTORE PUSH1 0x20 MSTORE PUSH1 0x40 PUSH1 0x0 KECCAK256 SLOAD SWAP2 DUP1 DUP4 LT PUSH2 0x925 JUMPI PUSH2 0x8C6 SWAP3 SUB SWAP1 CALLER PUSH2 0x139C JUMP JUMPDEST PUSH1 0x40 MLOAD PUSH3 0x461BCD PUSH1 0xE5 SHL DUP2 MSTORE PUSH1 0x20 PUSH1 0x4 DUP3 ADD MSTORE PUSH1 0x25 PUSH1 0x24 DUP3 ADD MSTORE PUSH32 0x45524332303A2064656372656173656420616C6C6F77616E63652062656C6F77 PUSH1 0x44 DUP3 ADD MSTORE PUSH5 0x207A65726F PUSH1 0xD8 SHL PUSH1 0x64 DUP3 ADD MSTORE PUSH1 0x84 SWAP1 REVERT JUMPDEST CALLVALUE PUSH2 0x1B3 JUMPI PUSH1 0x20 CALLDATASIZE PUSH1 0x3 NOT ADD SLT PUSH2 0x1B3 JUMPI PUSH2 0x991 PUSH2 0x10DA JUMP JUMPDEST PUSH2 0x999 PUSH2 0x1618 JUMP JUMPDEST PUSH1 0x1 PUSH1 0x1 PUSH1 0xA0 SHL SUB SWAP1 DUP2 AND PUSH1 0x0 DUP2 DUP2 MSTORE PUSH1 0xC9 PUSH1 0x20 MSTORE PUSH1 0x40 SWAP1 KECCAK256 SLOAD PUSH1 0xFF AND ISZERO PUSH2 0xAB7 JUMPI PUSH1 0x0 DUP2 DUP2 MSTORE PUSH1 0xC9 PUSH1 0x20 MSTORE PUSH1 0x40 DUP2 KECCAK256 DUP1 SLOAD PUSH1 0xFF NOT AND SWAP1 SSTORE SWAP1 JUMPDEST PUSH1 0xCA SWAP2 DUP3 SLOAD SWAP3 DUP4 DUP3 LT ISZERO PUSH2 0xAAD JUMPI DUP5 SWAP4 DUP4 PUSH2 0x9ED DUP5 PUSH2 0x1222 JUMP JUMPDEST SWAP8 SWAP1 SLOAD PUSH1 0x3 SWAP9 DUP10 SHL SHR AND EQ PUSH2 0xA0A JUMPI POP SWAP3 SWAP4 POP PUSH1 0x1 ADD SWAP2 POP PUSH2 0x9D3 JUMP JUMPDEST SWAP1 SWAP4 SWAP3 POP PUSH1 0x0 NOT SWAP2 DUP3 DUP3 ADD SWAP2 DUP3 GT PUSH2 0xA97 JUMPI PUSH2 0xA39 DUP5 PUSH2 0xA2C PUSH2 0xA57 SWAP5 PUSH2 0x1222 JUMP JUMPDEST SWAP1 SLOAD SWAP1 DUP10 SHL SHR AND SWAP2 PUSH2 0x1222 JUMP JUMPDEST SWAP1 SWAP2 SWAP1 PUSH1 0x1 DUP1 PUSH1 0xA0 SHL SUB DUP1 DUP5 SLOAD SWAP3 PUSH1 0x3 SHL SWAP4 AND DUP4 SHL SWAP3 SHL NOT AND OR SWAP1 SSTORE JUMP JUMPDEST DUP3 SLOAD DUP1 ISZERO PUSH2 0xA81 JUMPI ADD SWAP3 PUSH2 0xA6A DUP5 PUSH2 0x1222 JUMP JUMPDEST DUP2 SWAP4 SWAP2 SLOAD SWAP3 SHL SHL NOT AND SWAP1 SSTORE SSTORE PUSH1 0x20 PUSH1 0x40 MLOAD PUSH1 0x1 DUP2 MSTORE RETURN JUMPDEST PUSH4 0x4E487B71 PUSH1 0xE0 SHL PUSH1 0x0 MSTORE PUSH1 0x31 PUSH1 0x4 MSTORE PUSH1 0x24 PUSH1 0x0 REVERT JUMPDEST PUSH4 0x4E487B71 PUSH1 0xE0 SHL PUSH1 0x0 MSTORE PUSH1 0x11 PUSH1 0x4 MSTORE PUSH1 0x24 PUSH1 0x0 REVERT JUMPDEST POP POP POP POP POP PUSH2 0x8C6 JUMP JUMPDEST PUSH1 0x40 MLOAD PUSH4 0x286C71D PUSH1 0xE0 SHL DUP2 MSTORE PUSH1 0x4 SWAP1 REVERT JUMPDEST CALLVALUE PUSH2 0x1B3 JUMPI PUSH1 0x0 CALLDATASIZE PUSH1 0x3 NOT ADD SLT PUSH2 0x1B3 JUMPI PUSH1 0x40 MLOAD PUSH1 0x37 SLOAD PUSH1 0x0 DUP3 PUSH2 0xAEC DUP4 PUSH2 0x11E8 JUMP JUMPDEST SWAP2 DUP3 DUP3 MSTORE PUSH1 0x20 SWAP4 PUSH1 0x1 SWAP1 DUP6 PUSH1 0x1 DUP3 AND SWAP2 DUP3 PUSH1 0x0 EQ PUSH2 0xB7E JUMPI POP POP PUSH1 0x1 EQ PUSH2 0xB33 JUMPI JUMPDEST POP PUSH2 0xB1B SWAP3 POP SUB DUP4 PUSH2 0x1163 JUMP JUMPDEST PUSH2 0xB2F PUSH1 0x40 MLOAD SWAP3 DUP3 DUP5 SWAP4 DUP5 MSTORE DUP4 ADD SWAP1 PUSH2 0x109A JUMP JUMPDEST SUB SWAP1 RETURN JUMPDEST DUP5 SWAP2 POP PUSH1 0x37 PUSH1 0x0 MSTORE PUSH1 0x0 DUP1 MLOAD PUSH1 0x20 PUSH2 0x173A DUP4 CODECOPY DUP2 MLOAD SWAP2 MSTORE SWAP1 PUSH1 0x0 SWAP2 JUMPDEST DUP6 DUP4 LT PUSH2 0xB66 JUMPI POP POP PUSH2 0xB1B SWAP4 POP DUP3 ADD ADD DUP6 PUSH2 0xB0E JUMP JUMPDEST DUP1 SLOAD DUP4 DUP10 ADD DUP6 ADD MSTORE DUP8 SWAP5 POP DUP7 SWAP4 SWAP1 SWAP3 ADD SWAP2 DUP2 ADD PUSH2 0xB4F JUMP JUMPDEST PUSH1 0xFF NOT AND DUP6 DUP3 ADD MSTORE PUSH2 0xB1B SWAP6 ISZERO ISZERO PUSH1 0x5 SHL DUP6 ADD ADD SWAP3 POP DUP8 SWAP2 POP PUSH2 0xB0E SWAP1 POP JUMP JUMPDEST CALLVALUE PUSH2 0x1B3 JUMPI PUSH1 0x0 CALLDATASIZE PUSH1 0x3 NOT ADD SLT PUSH2 0x1B3 JUMPI PUSH1 0x65 SLOAD PUSH1 0x40 MLOAD PUSH1 0x1 PUSH1 0x1 PUSH1 0xA0 SHL SUB SWAP1 SWAP2 AND DUP2 MSTORE PUSH1 0x20 SWAP1 RETURN JUMPDEST CALLVALUE PUSH2 0x1B3 JUMPI PUSH1 0x0 CALLDATASIZE PUSH1 0x3 NOT ADD SLT PUSH2 0x1B3 JUMPI CALLER PUSH1 0x0 MSTORE PUSH1 0xC9 PUSH1 0x20 MSTORE PUSH1 0xFF PUSH1 0x40 PUSH1 0x0 KECCAK256 SLOAD AND ISZERO PUSH2 0xC69 JUMPI PUSH1 0x97 SLOAD PUSH1 0xFF DUP2 AND PUSH2 0xC31 JUMPI PUSH1 0x1 SWAP1 PUSH1 0xFF NOT AND OR PUSH1 0x97 SSTORE PUSH32 0x62E78CEA01BEE320CD4E420270B5EA74000D11B0C9F74754EBDBFC544B05A258 PUSH1 0x20 PUSH1 0x40 MLOAD CALLER DUP2 MSTORE LOG1 STOP JUMPDEST PUSH1 0x40 MLOAD PUSH3 0x461BCD PUSH1 0xE5 SHL DUP2 MSTORE PUSH1 0x20 PUSH1 0x4 DUP3 ADD MSTORE PUSH1 0x10 PUSH1 0x24 DUP3 ADD MSTORE PUSH16 0x14185D5CD8589B194E881C185D5CD959 PUSH1 0x82 SHL PUSH1 0x44 DUP3 ADD MSTORE PUSH1 0x64 SWAP1 REVERT JUMPDEST PUSH1 0x40 MLOAD PUSH4 0x7824841 PUSH1 0xE2 SHL DUP2 MSTORE PUSH1 0x4 SWAP1 REVERT JUMPDEST CALLVALUE PUSH2 0x1B3 JUMPI PUSH1 0x0 CALLDATASIZE PUSH1 0x3 NOT ADD SLT PUSH2 0x1B3 JUMPI PUSH2 0xC94 PUSH2 0x1618 JUMP JUMPDEST PUSH1 0x65 DUP1 SLOAD PUSH1 0x1 PUSH1 0x1 PUSH1 0xA0 SHL SUB NOT DUP2 AND SWAP1 SWAP2 SSTORE PUSH1 0x0 SWAP1 PUSH1 0x1 PUSH1 0x1 PUSH1 0xA0 SHL SUB AND PUSH32 0x8BE0079C531659141344CD1FD0A4F28419497F9722A3DAAFE3B4186F6B6457E0 DUP3 DUP1 LOG3 STOP JUMPDEST CALLVALUE PUSH2 0x1B3 JUMPI PUSH1 0x20 CALLDATASIZE PUSH1 0x3 NOT ADD SLT PUSH2 0x1B3 JUMPI PUSH1 0x1 PUSH1 0x1 PUSH1 0xA0 SHL SUB PUSH2 0xCF9 PUSH2 0x10DA JUMP JUMPDEST AND PUSH1 0x0 MSTORE PUSH1 0x33 PUSH1 0x20 MSTORE PUSH1 0x20 PUSH1 0x40 PUSH1 0x0 KECCAK256 SLOAD PUSH1 0x40 MLOAD SWAP1 DUP2 MSTORE RETURN JUMPDEST CALLVALUE PUSH2 0x1B3 JUMPI PUSH1 0x0 CALLDATASIZE PUSH1 0x3 NOT ADD SLT PUSH2 0x1B3 JUMPI PUSH1 0x20 PUSH1 0xFF PUSH1 0x97 SLOAD AND PUSH1 0x40 MLOAD SWAP1 ISZERO ISZERO DUP2 MSTORE RETURN JUMPDEST CALLVALUE PUSH2 0x1B3 JUMPI PUSH2 0xD43 CALLDATASIZE PUSH2 0x1106 JUMP JUMPDEST SWAP2 CALLER PUSH1 0x0 MSTORE PUSH1 0xC9 PUSH1 0x20 MSTORE PUSH1 0xFF PUSH1 0x40 PUSH1 0x0 KECCAK256 SLOAD AND ISZERO PUSH2 0xC69 JUMPI DUP3 PUSH1 0x0 DUP1 SWAP5 SWAP4 DUP2 SWAP5 PUSH1 0x40 MLOAD SWAP4 DUP5 SWAP3 DUP4 CALLDATACOPY DUP2 ADD DUP3 DUP2 MSTORE SUB SWAP3 GAS CALL RETURNDATASIZE ISZERO PUSH2 0xDBC JUMPI RETURNDATASIZE SWAP1 PUSH2 0xD85 DUP3 PUSH2 0x1185 JUMP JUMPDEST SWAP2 PUSH2 0xD93 PUSH1 0x40 MLOAD SWAP4 DUP5 PUSH2 0x1163 JUMP JUMPDEST DUP3 MSTORE RETURNDATASIZE PUSH1 0x0 PUSH1 0x20 DUP5 ADD RETURNDATACOPY JUMPDEST PUSH2 0xB2F PUSH1 0x40 MLOAD SWAP3 DUP4 SWAP3 ISZERO ISZERO DUP4 MSTORE PUSH1 0x40 PUSH1 0x20 DUP5 ADD MSTORE PUSH1 0x40 DUP4 ADD SWAP1 PUSH2 0x109A JUMP JUMPDEST PUSH1 0x60 SWAP1 PUSH2 0xD9E JUMP JUMPDEST CALLVALUE PUSH2 0x1B3 JUMPI PUSH1 0x0 CALLDATASIZE PUSH1 0x3 NOT ADD SLT PUSH2 0x1B3 JUMPI CALLER PUSH1 0x0 MSTORE PUSH1 0xC9 PUSH1 0x20 MSTORE PUSH1 0xFF PUSH1 0x40 PUSH1 0x0 KECCAK256 SLOAD AND ISZERO PUSH2 0xC69 JUMPI PUSH1 0x97 SLOAD PUSH1 0xFF DUP2 AND ISZERO PUSH2 0xE2B JUMPI PUSH1 0xFF NOT AND PUSH1 0x97 SSTORE PUSH32 0x5DB9EE0A495BF2E6FF9C91A7834C1BA4FDD244A5E8AA4E537BD38AEAE4B073AA PUSH1 0x20 PUSH1 0x40 MLOAD CALLER DUP2 MSTORE LOG1 STOP JUMPDEST PUSH1 0x40 MLOAD PUSH3 0x461BCD PUSH1 0xE5 SHL DUP2 MSTORE PUSH1 0x20 PUSH1 0x4 DUP3 ADD MSTORE PUSH1 0x14 PUSH1 0x24 DUP3 ADD MSTORE PUSH20 0x14185D5CD8589B194E881B9BDD081C185D5CD959 PUSH1 0x62 SHL PUSH1 0x44 DUP3 ADD MSTORE PUSH1 0x64 SWAP1 REVERT JUMPDEST CALLVALUE PUSH2 0x1B3 JUMPI PUSH1 0x40 CALLDATASIZE PUSH1 0x3 NOT ADD SLT PUSH2 0x1B3 JUMPI PUSH2 0x8C6 PUSH2 0xE83 PUSH2 0x10DA JUMP JUMPDEST CALLER PUSH1 0x0 MSTORE PUSH1 0x34 PUSH1 0x20 MSTORE PUSH1 0x40 PUSH1 0x0 KECCAK256 PUSH1 0x1 DUP1 PUSH1 0xA0 SHL SUB DUP3 AND PUSH1 0x0 MSTORE PUSH1 0x20 MSTORE PUSH2 0xEB1 PUSH1 0x24 CALLDATALOAD PUSH1 0x40 PUSH1 0x0 KECCAK256 SLOAD PUSH2 0x138F JUMP JUMPDEST SWAP1 CALLER PUSH2 0x139C JUMP JUMPDEST CALLVALUE PUSH2 0x1B3 JUMPI PUSH1 0x0 CALLDATASIZE PUSH1 0x3 NOT ADD SLT PUSH2 0x1B3 JUMPI PUSH1 0x20 PUSH1 0x40 MLOAD PUSH1 0x12 DUP2 MSTORE RETURN JUMPDEST CALLVALUE PUSH2 0x1B3 JUMPI PUSH1 0x20 PUSH2 0xEF5 PUSH2 0xEE7 CALLDATASIZE PUSH2 0x1106 JUMP JUMPDEST SWAP2 PUSH2 0xEF0 PUSH2 0x1618 JUMP JUMPDEST PUSH2 0x126F JUMP JUMPDEST PUSH1 0x40 MLOAD SWAP1 ISZERO ISZERO DUP2 MSTORE RETURN JUMPDEST CALLVALUE PUSH2 0x1B3 JUMPI PUSH1 0x60 CALLDATASIZE PUSH1 0x3 NOT ADD SLT PUSH2 0x1B3 JUMPI PUSH2 0xF18 PUSH2 0x10DA JUMP JUMPDEST PUSH2 0xF20 PUSH2 0x10F0 JUMP JUMPDEST PUSH1 0x44 CALLDATALOAD SWAP1 PUSH1 0x1 DUP1 PUSH1 0xA0 SHL SUB DUP4 AND PUSH1 0x0 MSTORE PUSH1 0x34 PUSH1 0x20 MSTORE PUSH1 0x40 PUSH1 0x0 KECCAK256 CALLER PUSH1 0x0 MSTORE PUSH1 0x20 MSTORE PUSH1 0x40 PUSH1 0x0 KECCAK256 SLOAD SWAP3 PUSH1 0x0 NOT DUP5 SUB PUSH2 0xF5C JUMPI JUMPDEST PUSH2 0x8C6 SWAP4 POP PUSH2 0x149E JUMP JUMPDEST DUP3 DUP5 LT PUSH2 0xF78 JUMPI PUSH2 0xF73 DUP4 PUSH2 0x8C6 SWAP6 SUB CALLER DUP4 PUSH2 0x139C JUMP JUMPDEST PUSH2 0xF52 JUMP JUMPDEST PUSH1 0x40 MLOAD PUSH3 0x461BCD PUSH1 0xE5 SHL DUP2 MSTORE PUSH1 0x20 PUSH1 0x4 DUP3 ADD MSTORE PUSH1 0x1D PUSH1 0x24 DUP3 ADD MSTORE PUSH32 0x45524332303A20696E73756666696369656E7420616C6C6F77616E6365000000 PUSH1 0x44 DUP3 ADD MSTORE PUSH1 0x64 SWAP1 REVERT JUMPDEST CALLVALUE PUSH2 0x1B3 JUMPI PUSH1 0x0 CALLDATASIZE PUSH1 0x3 NOT ADD SLT PUSH2 0x1B3 JUMPI PUSH1 0x20 PUSH1 0x35 SLOAD PUSH1 0x40 MLOAD SWAP1 DUP2 MSTORE RETURN JUMPDEST CALLVALUE PUSH2 0x1B3 JUMPI PUSH1 0x40 CALLDATASIZE PUSH1 0x3 NOT ADD SLT PUSH2 0x1B3 JUMPI PUSH2 0x8C6 PUSH2 0xFF7 PUSH2 0x10DA JUMP JUMPDEST PUSH1 0x24 CALLDATALOAD SWAP1 CALLER PUSH2 0x139C JUMP JUMPDEST CALLVALUE PUSH2 0x1B3 JUMPI PUSH1 0x0 CALLDATASIZE PUSH1 0x3 NOT ADD SLT PUSH2 0x1B3 JUMPI PUSH1 0x36 SLOAD PUSH1 0x0 DUP3 PUSH2 0x1021 DUP4 PUSH2 0x11E8 JUMP JUMPDEST SWAP2 DUP3 DUP3 MSTORE PUSH1 0x20 SWAP4 PUSH1 0x1 SWAP1 DUP6 PUSH1 0x1 DUP3 AND SWAP2 DUP3 PUSH1 0x0 EQ PUSH2 0xB7E JUMPI POP POP PUSH1 0x1 EQ PUSH2 0x104F JUMPI POP PUSH2 0xB1B SWAP3 POP SUB DUP4 PUSH2 0x1163 JUMP JUMPDEST DUP5 SWAP2 POP PUSH1 0x36 PUSH1 0x0 MSTORE PUSH1 0x0 DUP1 MLOAD PUSH1 0x20 PUSH2 0x171A DUP4 CODECOPY DUP2 MLOAD SWAP2 MSTORE SWAP1 PUSH1 0x0 SWAP2 JUMPDEST DUP6 DUP4 LT PUSH2 0x1082 JUMPI POP POP PUSH2 0xB1B SWAP4 POP DUP3 ADD ADD DUP6 PUSH2 0xB0E JUMP JUMPDEST DUP1 SLOAD DUP4 DUP10 ADD DUP6 ADD MSTORE DUP8 SWAP5 POP DUP7 SWAP4 SWAP1 SWAP3 ADD SWAP2 DUP2 ADD PUSH2 0x106B JUMP JUMPDEST SWAP2 SWAP1 DUP3 MLOAD SWAP3 DUP4 DUP3 MSTORE PUSH1 0x0 JUMPDEST DUP5 DUP2 LT PUSH2 0x10C6 JUMPI POP POP DUP3 PUSH1 0x0 PUSH1 0x20 DUP1 SWAP5 SWAP6 DUP5 ADD ADD MSTORE PUSH1 0x1F DUP1 NOT SWAP2 ADD AND ADD ADD SWAP1 JUMP JUMPDEST PUSH1 0x20 DUP2 DUP4 ADD DUP2 ADD MLOAD DUP5 DUP4 ADD DUP3 ADD MSTORE ADD PUSH2 0x10A5 JUMP JUMPDEST PUSH1 0x4 CALLDATALOAD SWAP1 PUSH1 0x1 PUSH1 0x1 PUSH1 0xA0 SHL SUB DUP3 AND DUP3 SUB PUSH2 0x1B3 JUMPI JUMP JUMPDEST PUSH1 0x24 CALLDATALOAD SWAP1 PUSH1 0x1 PUSH1 0x1 PUSH1 0xA0 SHL SUB DUP3 AND DUP3 SUB PUSH2 0x1B3 JUMPI JUMP JUMPDEST PUSH1 0x40 PUSH1 0x3 NOT DUP3 ADD SLT PUSH2 0x1B3 JUMPI PUSH1 0x4 CALLDATALOAD PUSH1 0x1 PUSH1 0x1 PUSH1 0xA0 SHL SUB DUP2 AND DUP2 SUB PUSH2 0x1B3 JUMPI SWAP2 PUSH1 0x24 CALLDATALOAD PUSH8 0xFFFFFFFFFFFFFFFF SWAP3 DUP4 DUP3 GT PUSH2 0x1B3 JUMPI DUP1 PUSH1 0x23 DUP4 ADD SLT ISZERO PUSH2 0x1B3 JUMPI DUP2 PUSH1 0x4 ADD CALLDATALOAD SWAP4 DUP5 GT PUSH2 0x1B3 JUMPI PUSH1 0x24 DUP5 DUP4 ADD ADD GT PUSH2 0x1B3 JUMPI PUSH1 0x24 ADD SWAP2 SWAP1 JUMP JUMPDEST SWAP1 PUSH1 0x1F DUP1 NOT SWAP2 ADD AND DUP2 ADD SWAP1 DUP2 LT PUSH8 0xFFFFFFFFFFFFFFFF DUP3 GT OR PUSH2 0x648 JUMPI PUSH1 0x40 MSTORE JUMP JUMPDEST PUSH8 0xFFFFFFFFFFFFFFFF DUP2 GT PUSH2 0x648 JUMPI PUSH1 0x1F ADD PUSH1 0x1F NOT AND PUSH1 0x20 ADD SWAP1 JUMP JUMPDEST DUP2 PUSH1 0x1F DUP3 ADD SLT ISZERO PUSH2 0x1B3 JUMPI DUP1 CALLDATALOAD SWAP1 PUSH2 0x11B8 DUP3 PUSH2 0x1185 JUMP JUMPDEST SWAP3 PUSH2 0x11C6 PUSH1 0x40 MLOAD SWAP5 DUP6 PUSH2 0x1163 JUMP JUMPDEST DUP3 DUP5 MSTORE PUSH1 0x20 DUP4 DUP4 ADD ADD GT PUSH2 0x1B3 JUMPI DUP2 PUSH1 0x0 SWAP3 PUSH1 0x20 DUP1 SWAP4 ADD DUP4 DUP7 ADD CALLDATACOPY DUP4 ADD ADD MSTORE SWAP1 JUMP JUMPDEST SWAP1 PUSH1 0x1 DUP3 DUP2 SHR SWAP3 AND DUP1 ISZERO PUSH2 0x1218 JUMPI JUMPDEST PUSH1 0x20 DUP4 LT EQ PUSH2 0x1202 JUMPI JUMP JUMPDEST PUSH4 0x4E487B71 PUSH1 0xE0 SHL PUSH1 0x0 MSTORE PUSH1 0x22 PUSH1 0x4 MSTORE PUSH1 0x24 PUSH1 0x0 REVERT JUMPDEST SWAP2 PUSH1 0x7F AND SWAP2 PUSH2 0x11F7 JUMP JUMPDEST PUSH1 0xCA SLOAD DUP2 LT ISZERO PUSH2 0x1259 JUMPI PUSH1 0xCA PUSH1 0x0 MSTORE PUSH32 0x42D72674974F694B5F5159593243114D38A5C39C89D6B62FEE061FF523240EE1 ADD SWAP1 PUSH1 0x0 SWAP1 JUMP JUMPDEST PUSH4 0x4E487B71 PUSH1 0xE0 SHL PUSH1 0x0 MSTORE PUSH1 0x32 PUSH1 0x4 MSTORE PUSH1 0x24 PUSH1 0x0 REVERT JUMPDEST PUSH1 0x1 PUSH1 0x1 PUSH1 0xA0 SHL SUB DUP2 AND PUSH1 0x0 DUP2 DUP2 MSTORE PUSH1 0xC9 PUSH1 0x20 MSTORE PUSH1 0x40 DUP1 DUP3 KECCAK256 SLOAD SWAP4 SWAP6 SWAP2 SWAP5 SWAP1 SWAP4 PUSH1 0xFF AND PUSH2 0x137E JUMPI DUP3 EXTCODESIZE ISZERO PUSH2 0x137A JUMPI DUP2 PUSH1 0x64 DUP7 SWAP3 DUP7 MLOAD SWAP5 DUP6 SWAP4 DUP5 SWAP3 PUSH4 0x347D5E25 PUSH1 0xE2 SHL DUP5 MSTORE ADDRESS PUSH1 0x4 DUP6 ADD MSTORE DUP10 PUSH1 0x24 DUP6 ADD MSTORE DUP2 PUSH1 0x44 DUP6 ADD MSTORE DUP5 DUP5 ADD CALLDATACOPY DUP2 DUP2 ADD DUP4 ADD DUP6 SWAP1 MSTORE PUSH1 0x1F ADD PUSH1 0x1F NOT AND DUP2 ADD SUB ADD DUP2 DUP4 DUP7 GAS CALL SWAP1 DUP2 PUSH2 0x134B JUMPI JUMPDEST POP PUSH2 0x12F4 JUMPI POP POP SWAP1 POP SWAP1 JUMP JUMPDEST DUP3 MSTORE PUSH1 0xC9 PUSH1 0x20 MSTORE DUP2 KECCAK256 DUP1 SLOAD PUSH1 0xFF NOT AND PUSH1 0x1 OR SWAP1 SSTORE PUSH1 0xCA SLOAD SWAP1 PUSH9 0x10000000000000000 DUP3 LT ISZERO PUSH2 0x1337 JUMPI POP SWAP1 PUSH2 0xA39 DUP3 PUSH1 0x1 PUSH2 0x1332 SWAP5 ADD PUSH1 0xCA SSTORE PUSH2 0x1222 JUMP JUMPDEST PUSH1 0x1 SWAP1 JUMP JUMPDEST PUSH4 0x4E487B71 PUSH1 0xE0 SHL DUP2 MSTORE PUSH1 0x41 PUSH1 0x4 MSTORE PUSH1 0x24 SWAP1 REVERT JUMPDEST PUSH8 0xFFFFFFFFFFFFFFFF DUP2 SWAP6 SWAP3 SWAP6 GT PUSH2 0x1366 JUMPI DUP4 MSTORE SWAP3 CODESIZE PUSH2 0x12E8 JUMP JUMPDEST PUSH4 0x4E487B71 PUSH1 0xE0 SHL DUP3 MSTORE PUSH1 0x41 PUSH1 0x4 MSTORE PUSH1 0x24 DUP3 REVERT JUMPDEST DUP5 DUP1 REVERT JUMPDEST DUP4 MLOAD PUSH4 0xBDF91DC1 PUSH1 0xE0 SHL DUP2 MSTORE PUSH1 0x4 SWAP1 REVERT JUMPDEST SWAP2 SWAP1 DUP3 ADD DUP1 SWAP3 GT PUSH2 0xA97 JUMPI JUMP JUMPDEST PUSH1 0x1 PUSH1 0x1 PUSH1 0xA0 SHL SUB SWAP1 DUP2 AND SWAP2 DUP3 ISZERO PUSH2 0x144D JUMPI AND SWAP2 DUP3 ISZERO PUSH2 0x13FD JUMPI PUSH1 0x20 PUSH32 0x8C5BE1E5EBEC7D5BD14F71427D1E84F3DD0314C0F7B2291E5B200AC8C7C3B925 SWAP2 DUP4 PUSH1 0x0 MSTORE PUSH1 0x34 DUP3 MSTORE PUSH1 0x40 PUSH1 0x0 KECCAK256 DUP6 PUSH1 0x0 MSTORE DUP3 MSTORE DUP1 PUSH1 0x40 PUSH1 0x0 KECCAK256 SSTORE PUSH1 0x40 MLOAD SWAP1 DUP2 MSTORE LOG3 JUMP JUMPDEST PUSH1 0x40 MLOAD PUSH3 0x461BCD PUSH1 0xE5 SHL DUP2 MSTORE PUSH1 0x20 PUSH1 0x4 DUP3 ADD MSTORE PUSH1 0x22 PUSH1 0x24 DUP3 ADD MSTORE PUSH32 0x45524332303A20617070726F766520746F20746865207A65726F206164647265 PUSH1 0x44 DUP3 ADD MSTORE PUSH2 0x7373 PUSH1 0xF0 SHL PUSH1 0x64 DUP3 ADD MSTORE PUSH1 0x84 SWAP1 REVERT JUMPDEST PUSH1 0x40 MLOAD PUSH3 0x461BCD PUSH1 0xE5 SHL DUP2 MSTORE PUSH1 0x20 PUSH1 0x4 DUP3 ADD MSTORE PUSH1 0x24 DUP1 DUP3 ADD MSTORE PUSH32 0x45524332303A20617070726F76652066726F6D20746865207A65726F20616464 PUSH1 0x44 DUP3 ADD MSTORE PUSH4 0x72657373 PUSH1 0xE0 SHL PUSH1 0x64 DUP3 ADD MSTORE PUSH1 0x84 SWAP1 REVERT JUMPDEST PUSH1 0x1 PUSH1 0x1 PUSH1 0xA0 SHL SUB SWAP1 DUP2 AND SWAP2 DUP3 ISZERO PUSH2 0x15C5 JUMPI AND SWAP2 DUP3 ISZERO PUSH2 0x1574 JUMPI PUSH1 0xFF PUSH1 0x97 SLOAD AND PUSH2 0x4B3 JUMPI PUSH1 0x0 DUP3 DUP2 MSTORE PUSH1 0x33 PUSH1 0x20 MSTORE PUSH1 0x40 DUP2 KECCAK256 SLOAD SWAP2 DUP1 DUP4 LT PUSH2 0x1520 JUMPI PUSH1 0x40 DUP3 DUP3 PUSH32 0xDDF252AD1BE2C89B69C2B068FC378DAA952BA7F163C4A11628F55A4DF523B3EF SWAP6 DUP8 PUSH1 0x20 SWAP7 MSTORE PUSH1 0x33 DUP7 MSTORE SUB DUP3 DUP3 KECCAK256 SSTORE DUP7 DUP2 MSTORE KECCAK256 DUP2 DUP2 SLOAD ADD SWAP1 SSTORE PUSH1 0x40 MLOAD SWAP1 DUP2 MSTORE LOG3 JUMP JUMPDEST PUSH1 0x40 MLOAD PUSH3 0x461BCD PUSH1 0xE5 SHL DUP2 MSTORE PUSH1 0x20 PUSH1 0x4 DUP3 ADD MSTORE PUSH1 0x26 PUSH1 0x24 DUP3 ADD MSTORE PUSH32 0x45524332303A207472616E7366657220616D6F756E7420657863656564732062 PUSH1 0x44 DUP3 ADD MSTORE PUSH6 0x616C616E6365 PUSH1 0xD0 SHL PUSH1 0x64 DUP3 ADD MSTORE PUSH1 0x84 SWAP1 REVERT JUMPDEST PUSH1 0x40 MLOAD PUSH3 0x461BCD PUSH1 0xE5 SHL DUP2 MSTORE PUSH1 0x20 PUSH1 0x4 DUP3 ADD MSTORE PUSH1 0x23 PUSH1 0x24 DUP3 ADD MSTORE PUSH32 0x45524332303A207472616E7366657220746F20746865207A65726F2061646472 PUSH1 0x44 DUP3 ADD MSTORE PUSH3 0x657373 PUSH1 0xE8 SHL PUSH1 0x64 DUP3 ADD MSTORE PUSH1 0x84 SWAP1 REVERT JUMPDEST PUSH1 0x40 MLOAD PUSH3 0x461BCD PUSH1 0xE5 SHL DUP2 MSTORE PUSH1 0x20 PUSH1 0x4 DUP3 ADD MSTORE PUSH1 0x25 PUSH1 0x24 DUP3 ADD MSTORE PUSH32 0x45524332303A207472616E736665722066726F6D20746865207A65726F206164 PUSH1 0x44 DUP3 ADD MSTORE PUSH5 0x6472657373 PUSH1 0xD8 SHL PUSH1 0x64 DUP3 ADD MSTORE PUSH1 0x84 SWAP1 REVERT JUMPDEST PUSH1 0x65 SLOAD PUSH1 0x1 PUSH1 0x1 PUSH1 0xA0 SHL SUB AND CALLER SUB PUSH2 0x162C JUMPI JUMP JUMPDEST PUSH1 0x64 PUSH1 0x40 MLOAD PUSH3 0x461BCD PUSH1 0xE5 SHL DUP2 MSTORE PUSH1 0x20 PUSH1 0x4 DUP3 ADD MSTORE PUSH1 0x20 PUSH1 0x24 DUP3 ADD MSTORE PUSH32 0x4F776E61626C653A2063616C6C6572206973206E6F7420746865206F776E6572 PUSH1 0x44 DUP3 ADD MSTORE REVERT JUMPDEST PUSH1 0x65 DUP1 SLOAD PUSH1 0x1 PUSH1 0x1 PUSH1 0xA0 SHL SUB SWAP3 DUP4 AND PUSH1 0x1 PUSH1 0x1 PUSH1 0xA0 SHL SUB NOT DUP3 AND DUP2 OR SWAP1 SWAP3 SSTORE SWAP1 SWAP2 AND PUSH32 0x8BE0079C531659141344CD1FD0A4F28419497F9722A3DAAFE3B4186F6B6457E0 PUSH1 0x0 DUP1 LOG3 JUMP JUMPDEST ISZERO PUSH2 0x16C0 JUMPI JUMP JUMPDEST PUSH1 0x40 MLOAD PUSH3 0x461BCD PUSH1 0xE5 SHL DUP2 MSTORE PUSH1 0x20 PUSH1 0x4 DUP3 ADD MSTORE PUSH1 0x2B PUSH1 0x24 DUP3 ADD MSTORE PUSH32 0x496E697469616C697A61626C653A20636F6E7472616374206973206E6F742069 PUSH1 0x44 DUP3 ADD MSTORE PUSH11 0x6E697469616C697A696E67 PUSH1 0xA8 SHL PUSH1 0x64 DUP3 ADD MSTORE PUSH1 0x84 SWAP1 REVERT INVALID 0x4A GT 0xF9 0x4E KECCAK256 0xA9 EXTCODECOPY PUSH26 0xF6EC743A1954EC4FC2C08429AE2122118BF234B2185C81B842A7 0xB7 0xDD PUSH25 0x5CD69714A189DFFB3FD7D7174EDC9ECE837694CE50F7078F7C BALANCE 0xAE LOG2 PUSH5 0x6970667358 0x22 SLT KECCAK256 0xA9 STOP PUSH11 0x5E4BA36A7C99D0E3A0717C 0xBA SWAP4 DUP14 DUP13 PUSH0 ADDMOD 0xA9 0xB8 0x21 0xED 0xD CREATE PUSH32 0x2CDEA2FFE664736F6C6343000816003300000000000000000000000000000000 "},"gasEstimates":{"creation":{"codeDepositCost":"1206200","executionCost":"1263","totalCost":"1207463"},"external":{"addModule(address,bytes)":"infinite","allowance(address,address)":"3019","approve(address,uint256)":"24368","balanceOf(address)":"2629","decimals()":"265","decreaseAllowance(address,uint256)":"26978","executeFromModule(address,bytes)":"infinite","getModules()":"infinite","increaseAllowance(address,uint256)":"26782","initialize(string,string,uint256,address)":"infinite","isModuleActive(address)":"2861","name()":"infinite","owner()":"2568","pause()":"27860","paused()":"2468","removeModule(address)":"infinite","renounceOwnership()":"28305","symbol()":"infinite","totalSupply()":"2302","transfer(address,uint256)":"53245","transferFrom(address,address,uint256)":"79446","transferOwnership(address)":"infinite","unpause()":"27744"},"internal":{"_beforeTokenTransfer(address,address,uint256)":"infinite"}},"methodIdentifiers":{"addModule(address,bytes)":"2dd3a78c","allowance(address,address)":"dd62ed3e","approve(address,uint256)":"095ea7b3","balanceOf(address)":"70a08231","decimals()":"313ce567","decreaseAllowance(address,uint256)":"a457c2d7","executeFromModule(address,bytes)":"5607b780","getModules()":"b2494df3","increaseAllowance(address,uint256)":"39509351","initialize(string,string,uint256,address)":"bd3a13f6","isModuleActive(address)":"d21b9fbd","name()":"06fdde03","owner()":"8da5cb5b","pause()":"8456cb59","paused()":"5c975abb","removeModule(address)":"a0632461","renounceOwnership()":"715018a6","symbol()":"95d89b41","totalSupply()":"18160ddd","transfer(address,uint256)":"a9059cbb","transferFrom(address,address,uint256)":"23b872dd","transferOwnership(address)":"f2fde38b","unpause()":"3f4ba83a"}},"storageLayout":{"storage":[{"astId":139,"contract":"src/contracts/V4TokenBase.sol:V4TokenBase","label":"_initialized","offset":0,"slot":"0","type":"t_uint8"},{"astId":142,"contract":"src/contracts/V4TokenBase.sol:V4TokenBase","label":"_initializing","offset":1,"slot":"0","type":"t_bool"},{"astId":1525,"contract":"src/contracts/V4TokenBase.sol:V4TokenBase","label":"__gap","offset":0,"slot":"1","type":"t_array(t_uint256)50_storage"},{"astId":449,"contract":"src/contracts/V4TokenBase.sol:V4TokenBase","label":"_balances","offset":0,"slot":"51","type":"t_mapping(t_address,t_uint256)"},{"astId":455,"contract":"src/contracts/V4TokenBase.sol:V4TokenBase","label":"_allowances","offset":0,"slot":"52","type":"t_mapping(t_address,t_mapping(t_address,t_uint256))"},{"astId":457,"contract":"src/contracts/V4TokenBase.sol:V4TokenBase","label":"_totalSupply","offset":0,"slot":"53","type":"t_uint256"},{"astId":459,"contract":"src/contracts/V4TokenBase.sol:V4TokenBase","label":"_name","offset":0,"slot":"54","type":"t_string_storage"},{"astId":461,"contract":"src/contracts/V4TokenBase.sol:V4TokenBase","label":"_symbol","offset":0,"slot":"55","type":"t_string_storage"},{"astId":1041,"contract":"src/contracts/V4TokenBase.sol:V4TokenBase","label":"__gap","offset":0,"slot":"56","type":"t_array(t_uint256)45_storage"},{"astId":11,"contract":"src/contracts/V4TokenBase.sol:V4TokenBase","label":"_owner","offset":0,"slot":"101","type":"t_address"},{"astId":131,"contract":"src/contracts/V4TokenBase.sol:V4TokenBase","label":"__gap","offset":0,"slot":"102","type":"t_array(t_uint256)49_storage"},{"astId":323,"contract":"src/contracts/V4TokenBase.sol:V4TokenBase","label":"_paused","offset":0,"slot":"151","type":"t_bool"},{"astId":428,"contract":"src/contracts/V4TokenBase.sol:V4TokenBase","label":"__gap","offset":0,"slot":"152","type":"t_array(t_uint256)49_storage"},{"astId":4920,"contract":"src/contracts/V4TokenBase.sol:V4TokenBase","label":"_modules","offset":0,"slot":"201","type":"t_mapping(t_address,t_bool)"},{"astId":4923,"contract":"src/contracts/V4TokenBase.sol:V4TokenBase","label":"_moduleList","offset":0,"slot":"202","type":"t_array(t_address)dyn_storage"}],"types":{"t_address":{"encoding":"inplace","label":"address","numberOfBytes":"20"},"t_array(t_address)dyn_storage":{"base":"t_address","encoding":"dynamic_array","label":"address[]","numberOfBytes":"32"},"t_array(t_uint256)45_storage":{"base":"t_uint256","encoding":"inplace","label":"uint256[45]","numberOfBytes":"1440"},"t_array(t_uint256)49_storage":{"base":"t_uint256","encoding":"inplace","label":"uint256[49]","numberOfBytes":"1568"},"t_array(t_uint256)50_storage":{"base":"t_uint256","encoding":"inplace","label":"uint256[50]","numberOfBytes":"1600"},"t_bool":{"encoding":"inplace","label":"bool","numberOfBytes":"1"},"t_mapping(t_address,t_bool)":{"encoding":"mapping","key":"t_address","label":"mapping(address => bool)","numberOfBytes":"32","value":"t_bool"},"t_mapping(t_address,t_mapping(t_address,t_uint256))":{"encoding":"mapping","key":"t_address","label":"mapping(address => mapping(address => uint256))","numberOfBytes":"32","value":"t_mapping(t_address,t_uint256)"},"t_mapping(t_address,t_uint256)":{"encoding":"mapping","key":"t_address","label":"mapping(address => uint256)","numberOfBytes":"32","value":"t_uint256"},"t_string_storage":{"encoding":"bytes","label":"string","numberOfBytes":"32"},"t_uint256":{"encoding":"inplace","label":"uint256","numberOfBytes":"32"},"t_uint8":{"encoding":"inplace","label":"uint8","numberOfBytes":"1"}}},"userdoc":{"kind":"user","methods":{},"version":1}}}}