{"src/contracts/SplitToken.sol":{"SplitToken":{"abi":[{"inputs":[{"internalType":"string","name":"name","type":"string"},{"internalType":"string","name":"symbol","type":"string"},{"internalType":"uint256","name":"totalSupply","type":"uint256"},{"internalType":"address[]","name":"wallets","type":"address[]"},{"internalType":"uint256[]","name":"percentages","type":"uint256[]"}],"stateMutability":"nonpayable","type":"constructor"},{"anonymous":false,"inputs":[{"indexed":true,"internalType":"address","name":"owner","type":"address"},{"indexed":true,"internalType":"address","name":"spender","type":"address"},{"indexed":false,"internalType":"uint256","name":"value","type":"uint256"}],"name":"Approval","type":"event"},{"anonymous":false,"inputs":[{"indexed":true,"internalType":"address","name":"previousOwner","type":"address"},{"indexed":true,"internalType":"address","name":"newOwner","type":"address"}],"name":"OwnershipTransferred","type":"event"},{"anonymous":false,"inputs":[{"indexed":true,"internalType":"address","name":"from","type":"address"},{"indexed":true,"internalType":"address","name":"to","type":"address"},{"indexed":false,"internalType":"uint256","name":"value","type":"uint256"}],"name":"Transfer","type":"event"},{"inputs":[{"internalType":"address","name":"owner","type":"address"},{"internalType":"address","name":"spender","type":"address"}],"name":"allowance","outputs":[{"internalType":"uint256","name":"","type":"uint256"}],"stateMutability":"view","type":"function"},{"inputs":[{"internalType":"address","name":"spender","type":"address"},{"internalType":"uint256","name":"amount","type":"uint256"}],"name":"approve","outputs":[{"internalType":"bool","name":"","type":"bool"}],"stateMutability":"nonpayable","type":"function"},{"inputs":[{"internalType":"address","name":"account","type":"address"}],"name":"balanceOf","outputs":[{"internalType":"uint256","name":"","type":"uint256"}],"stateMutability":"view","type":"function"},{"inputs":[],"name":"decimals","outputs":[{"internalType":"uint8","name":"","type":"uint8"}],"stateMutability":"view","type":"function"},{"inputs":[{"internalType":"address","name":"spender","type":"address"},{"internalType":"uint256","name":"subtractedValue","type":"uint256"}],"name":"decreaseAllowance","outputs":[{"internalType":"bool","name":"","type":"bool"}],"stateMutability":"nonpayable","type":"function"},{"inputs":[{"internalType":"address","name":"spender","type":"address"},{"internalType":"uint256","name":"addedValue","type":"uint256"}],"name":"increaseAllowance","outputs":[{"internalType":"bool","name":"","type":"bool"}],"stateMutability":"nonpayable","type":"function"},{"inputs":[],"name":"name","outputs":[{"internalType":"string","name":"","type":"string"}],"stateMutability":"view","type":"function"},{"inputs":[],"name":"owner","outputs":[{"internalType":"address","name":"","type":"address"}],"stateMutability":"view","type":"function"},{"inputs":[],"name":"renounceOwnership","outputs":[],"stateMutability":"nonpayable","type":"function"},{"inputs":[],"name":"symbol","outputs":[{"internalType":"string","name":"","type":"string"}],"stateMutability":"view","type":"function"},{"inputs":[],"name":"totalSupply","outputs":[{"internalType":"uint256","name":"","type":"uint256"}],"stateMutability":"view","type":"function"},{"inputs":[{"internalType":"address","name":"to","type":"address"},{"internalType":"uint256","name":"amount","type":"uint256"}],"name":"transfer","outputs":[{"internalType":"bool","name":"","type":"bool"}],"stateMutability":"nonpayable","type":"function"},{"inputs":[{"internalType":"address","name":"from","type":"address"},{"internalType":"address","name":"to","type":"address"},{"internalType":"uint256","name":"amount","type":"uint256"}],"name":"transferFrom","outputs":[{"internalType":"bool","name":"","type":"bool"}],"stateMutability":"nonpayable","type":"function"},{"inputs":[{"internalType":"address","name":"newOwner","type":"address"}],"name":"transferOwnership","outputs":[],"stateMutability":"nonpayable","type":"function"}],"evm":{"bytecode":{"linkReferences":{},"object":"608060405234620000345762000022620000186200030d565b9392909262000572565b604051610cf462000bcc8239610cf490f35b600080fd5b634e487b7160e01b600052604160045260246000fd5b90601f01601f191681019081106001600160401b038211176200007157604052565b62000039565b906200008e6200008660405190565b92836200004f565b565b6001600160401b0381116200007157602090601f01601f19160190565b60005b838110620000c15750506000910152565b8181015183820152602001620000b0565b90929192620000eb620000e58262000090565b62000077565b938185528183011162000034576200008e916020850190620000ad565b9080601f83011215620000345781516200012592602001620000d2565b90565b805b036200003457565b905051906200008e8262000128565b6001600160401b038111620000715760208091020190565b6001600160a01b031690565b6200012a8162000159565b905051906200008e8262000165565b9092919262000192620000e58262000141565b93818552602080860192028301928184116200003457915b838310620001b85750505050565b60208091620001c8848662000170565b815201920191620001aa565b9080601f830112156200003457815162000125926020016200017f565b9092919262000204620000e58262000141565b93818552602080860192028301928184116200003457915b8383106200022a5750505050565b602080916200023a848662000132565b8152019201916200021c565b9080601f83011215620000345781516200012592602001620001f1565b91909160a081840312620000345780516001600160401b0381116200003457836200029091830162000108565b60208201519093906001600160401b038111620000345781620002b591840162000108565b92620002c5826040850162000132565b60608401519093906001600160401b038111620000345783620002ea918301620001d4565b60808201519093906001600160401b038111620000345762000125920162000246565b62000330620018c080380380620003248162000077565b92833981019062000263565b9091929394565b6200012562000125620001259290565b156200034f57565b60405162461bcd60e51b81528062000399600482016020808252818101527f4d7573742070726f76696465206174206c65617374206f6e652077616c6c6574604082015260600190565b0390fd5b15620003a557565b60405162461bcd60e51b815260206004820152602760248201527f57616c6c65747320616e642070657263656e7461676573206c656e677468206d6044820152660d2e6dac2e8c6d60cb1b6064820152608490fd5b634e487b7160e01b600052603260045260246000fd5b906200041a825190565b8110156200042c576020809102010190565b620003fa565b62000125905162000159565b6200015962000125620001259290565b62000125906200043e565b156200046157565b60405162461bcd60e51b815260206004820152601d60248201527f57616c6c65742063616e6e6f74206265207a65726f20616464726573730000006044820152606490fd5b634e487b7160e01b600052601160045260246000fd5b91908201809211620004ca57565b620004a6565b15620004d857565b60405162461bcd60e51b815260206004820152601f60248201527f546f74616c2070657263656e74616765206d75737420657175616c20313030006044820152606490fd5b91908203918211620004ca57565b81810292918115918404141715620004ca57565b634e487b7160e01b600052601260045260246000fd5b9062000560565b9190565b9081156200056c570490565b6200053f565b906200058291949392946200074e565b805190620005a26000926200059b6200055c8562000337565b1162000347565b620005c7620005af825190565b620005c06200055c62000125875190565b146200039d565b620005d28262000337565b94855b620005e262000125865190565b8710156200065e57620006506200065791620006356200060d620006078b8862000410565b62000432565b6200062d62000626620006208a6200044e565b62000159565b9162000159565b141562000459565b62000649620006458a8962000410565b5190565b90620004bc565b9660010190565b95620005d5565b955093909192620006826064966200067b6200055c606462000337565b14620004d0565b6200068e829462000337565b935b620006b462000125620006a1865190565b620006ad600162000337565b906200051d565b8510156200072657620007186200071f91620006f6620006e4620006dd620006458a8862000410565b876200052b565b620006ef8b62000337565b9062000555565b9062000712826200070c620006078b8b62000410565b62000a58565b6200051d565b9460010190565b9362000690565b935050506200008e929350620006076200070c9162000747620006a1825190565b9062000410565b906200075a9162000970565b6200008e3362000b6f565b634e487b7160e01b600052602260045260246000fd5b90600160028304921680156200079e575b60208310146200079857565b62000765565b91607f16916200078c565b9160001960089290920291821b911b5b9181191691161790565b9190620007d862000125620007e19362000337565b908354620007a9565b9055565b6200008e91600091620007c3565b818110620007ff575050565b806200080f6000600193620007e5565b01620007f3565b9190601f81116200082657505050565b6200083a6200008e93600052602060002090565b906020601f8401819004830193106200085e575b6020601f909101040190620007f3565b90915081906200084e565b9060001960089091021c191690565b81620008849162000869565b906002021790565b9062000896815190565b906001600160401b0382116200007157620008be82620008b785546200077b565b8562000816565b602090601f8311600114620008f157620007e1929160009183620008e5575b505062000878565b015190503880620008dd565b601f198316916200090785600052602060002090565b9260005b8181106200094b575091600293918560019694106200092e575b50505002019055565b62000940910151601f84169062000869565b905538808062000925565b919360206001819287870151815501950192016200090b565b906200008e916200088c565b90620009826200008e92600362000964565b600462000964565b156200099257565b60405162461bcd60e51b815260206004820152601f60248201527f45524332303a206d696e7420746f20746865207a65726f2061646472657373006044820152606490fd5b620001259081565b620001259054620009d7565b9060001990620007b9565b9062000a0a62000125620007e19262000337565b8254620009eb565b620001259062000159906001600160a01b031682565b620001259062000a12565b620001259062000a28565b9062000a4a9062000a33565b600052602052604060002090565b7fddf252ad1be2c89b69c2b068fc378daa952ba7f163c4a11628f55a4df523b3ef62000b2762000b0f62000b0862000a9160006200044e565b62000ab362000aa08262000159565b62000aab8862000159565b14156200098a565b62000ad662000ace8862000ac86002620009df565b620004bc565b6002620009f6565b62000b0262000ae787600062000a3e565b62000afb8962000af783620009df565b0190565b90620009f6565b62000a33565b9362000a33565b9362000b1a60405190565b9182918290815260200190565b0390a3565b620001259062000159565b62000125905462000b2c565b906001600160a01b0390620007b9565b9062000b6762000125620007e19262000a33565b825462000b43565b62000b9762000b9062000b83600562000b37565b62000b0284600562000b53565b9162000a33565b907f8be0079c531659141344cd1fd0a4f28419497f9722a3daafe3b4186f6b6457e062000bc360405190565b808062000b2756fe6080604052600436101561001257600080fd5b60003560e01c806306fdde03146100f2578063095ea7b3146100ed57806318160ddd146100e857806323b872dd146100e3578063313ce567146100de57806339509351146100d957806370a08231146100d4578063715018a6146100cf5780638da5cb5b146100ca57806395d89b41146100c5578063a457c2d7146100c0578063a9059cbb146100bb578063dd62ed3e146100b65763f2fde38b036100f75761040e565b6103f2565b6103b3565b610397565b61037c565b610355565b61031f565b610304565b6102d4565b6102a5565b610289565b610234565b610206565b610176565b600080fd5b60009103126100f757565b60005b83811061011a5750506000910152565b818101518382015260200161010a565b61014b61015460209361015e9361013f815190565b80835293849260200190565b95869101610107565b601f01601f191690565b0190565b60208082526101739291019061012a565b90565b346100f7576101863660046100fc565b61019d61019161055a565b60405191829182610162565b0390f35b6001600160a01b031690565b6101b6816101a1565b036100f757565b905035906101ca826101ad565b565b806101b6565b905035906101ca826101cc565b91906040838203126100f7576101739060206101fb82866101bd565b94016101d2565b9052565b346100f75761019d61022261021c3660046101df565b90610564565b60405191829182901515815260200190565b346100f7576102443660046100fc565b61019d61024f610585565b6040515b9182918290815260200190565b90916060828403126100f75761017361027984846101bd565b9360406101fb82602087016101bd565b346100f75761019d61022261029f366004610260565b9161058f565b346100f7576102b53660046100fc565b61019d6102c06105b8565b6040519182918260ff909116815260200190565b346100f75761019d6102226102ea3660046101df565b906105ea565b906020828203126100f757610173916101bd565b346100f75761019d61024f61031a3660046102f0565b610647565b346100f75761032f3660046100fc565b61033761069b565b604051005b610202906101a1565b6020810192916101ca919061033c565b346100f7576103653660046100fc565b61019d6103706106b6565b60405191829182610345565b346100f75761038c3660046100fc565b61019d6101916106c0565b346100f75761019d6102226103ad3660046101df565b90610728565b346100f75761019d6102226103c93660046101df565b9061074c565b91906040838203126100f7576101739060206103eb82866101bd565b94016101bd565b346100f75761019d61024f6104083660046103cf565b90610757565b346100f7576103376104213660046102f0565b61080c565b634e487b7160e01b600052602260045260246000fd5b906001600283049216801561045c575b602083101461045757565b610426565b91607f169161044c565b805460009392916104836104798361043c565b8085529360200190565b91600181169081156104d5575060011461049c57505050565b6104af9192939450600052602060002090565b916000925b8184106104c15750500190565b8054848401526020909301926001016104b4565b92949550505060ff1916825215156020020190565b9061017391610466565b634e487b7160e01b600052604160045260246000fd5b90601f01601f191681019081106001600160401b0382111761052b57604052565b6104f4565b906101ca61054a9261054160405190565b938480926104ea565b038361050a565b61017390610530565b6101736003610551565b61056f9190336108fc565b600190565b6101739081565b6101739054610574565b610173600261057b565b61056f9291906105a08333836109e1565b610b26565b6105b26101736101739290565b60ff1690565b61017360126105a5565b634e487b7160e01b600052601160045260246000fd5b919082018092116105e557565b6105c2565b61056f919061060333926105fe8385610757565b6105d8565b916108fc565b610173906101a1906001600160a01b031682565b61017390610609565b6101739061061d565b9061063990610626565b600052602052604060002090565b61065e61017391610656600090565b50600061062f565b61057b565b61066b610c22565b6101ca610689565b6101a16101736101739290565b61017390610673565b6101ca6106966000610680565b610c6b565b6101ca610663565b610173906101a1565b61017390546106a3565b61017360056106ac565b6101736004610551565b156106d157565b60405162461bcd60e51b815260206004820152602560248201527f45524332303a2064656372656173656420616c6c6f77616e63652062656c6f77604482015264207a65726f60d81b6064820152608490fd5b0390fd5b61056f9190610603339261073c8385610757565b610748828210156106ca565b0390565b61056f919033610b26565b6101739161077261065e9261076a600090565b50600161062f565b61062f565b6101ca90610783610c22565b6107e3565b1561078f57565b60405162461bcd60e51b815260206004820152602660248201527f4f776e61626c653a206e6577206f776e657220697320746865207a65726f206160448201526564647265737360d01b6064820152608490fd5b6101ca906106966107fc6107f76000610680565b6101a1565b610805836101a1565b1415610788565b6101ca90610777565b1561081c57565b60405162461bcd60e51b8152602060048201526024808201527f45524332303a20617070726f76652066726f6d20746865207a65726f206164646044820152637265737360e01b6064820152608490fd5b1561087457565b60405162461bcd60e51b815260206004820152602260248201527f45524332303a20617070726f766520746f20746865207a65726f206164647265604482015261737360f01b6064820152608490fd5b90600019905b9181191691161790565b6101736101736101739290565b906108f16101736108f8926108d4565b82546108c4565b9055565b6109906109866109807f8c5be1e5ebec7d5bd14f71427d1e84f3dd0314c0f7b2291e5b200ac8c7c3b925936109636109536109376000610680565b6107f7610943826101a1565b61094c866101a1565b1415610815565b61095c886101a1565b141561086d565b61097b876109768861077285600161062f565b6108e1565b610626565b93610626565b9361025360405190565b0390a3565b1561099c57565b60405162461bcd60e51b815260206004820152601d60248201527f45524332303a20696e73756666696369656e7420616c6c6f77616e63650000006044820152606490fd5b906109ec8183610757565b60001981036109fc575b50505050565b610a10936106039161074882821015610995565b388080806109f6565b15610a2057565b60405162461bcd60e51b815260206004820152602560248201527f45524332303a207472616e736665722066726f6d20746865207a65726f206164604482015264647265737360d81b6064820152608490fd5b15610a7a57565b60405162461bcd60e51b815260206004820152602360248201527f45524332303a207472616e7366657220746f20746865207a65726f206164647260448201526265737360e81b6064820152608490fd5b15610ad257565b60405162461bcd60e51b815260206004820152602660248201527f45524332303a207472616e7366657220616d6f756e7420657863656564732062604482015265616c616e636560d01b6064820152608490fd5b6109906109866109807fddf252ad1be2c89b69c2b068fc378daa952ba7f163c4a11628f55a4df523b3ef9361097b610bbf876000610b95610b85610b6983610680565b6107f7610b75826101a1565b610b7e8a6101a1565b1415610a19565b610b8e846101a1565b1415610a73565b610772610bb58c610ba961065e898661062f565b61074882821015610acb565b610976878461062f565b610bcc8961015e8361057b565b906108e1565b15610bd957565b60405162461bcd60e51b815280610724600482016020808252818101527f4f776e61626c653a2063616c6c6572206973206e6f7420746865206f776e6572604082015260600190565b6101ca610c2d6106b6565b610c3f610c39336101a1565b916101a1565b14610bd2565b906001600160a01b03906108ca565b90610c646101736108f892610626565b8254610c45565b610c8c610c86610c7b60056106ac565b61097b846005610c54565b91610626565b907f8be0079c531659141344cd1fd0a4f28419497f9722a3daafe3b4186f6b6457e0610cb760405190565b808061099056fea2646970667358221220f02a5dac4a27c57cdf93ba8f9d4c9c963dbf516af34752737645547a12f84a7264736f6c63430008160033","opcodes":"PUSH1 0x80 PUSH1 0x40 MSTORE CALLVALUE PUSH3 0x34 JUMPI PUSH3 0x22 PUSH3 0x18 PUSH3 0x30D JUMP JUMPDEST SWAP4 SWAP3 SWAP1 SWAP3 PUSH3 0x572 JUMP JUMPDEST PUSH1 0x40 MLOAD PUSH2 0xCF4 PUSH3 0xBCC DUP3 CODECOPY PUSH2 0xCF4 SWAP1 RETURN JUMPDEST PUSH1 0x0 DUP1 REVERT JUMPDEST PUSH4 0x4E487B71 PUSH1 0xE0 SHL PUSH1 0x0 MSTORE PUSH1 0x41 PUSH1 0x4 MSTORE PUSH1 0x24 PUSH1 0x0 REVERT JUMPDEST SWAP1 PUSH1 0x1F ADD PUSH1 0x1F NOT AND DUP2 ADD SWAP1 DUP2 LT PUSH1 0x1 PUSH1 0x1 PUSH1 0x40 SHL SUB DUP3 GT OR PUSH3 0x71 JUMPI PUSH1 0x40 MSTORE JUMP JUMPDEST PUSH3 0x39 JUMP JUMPDEST SWAP1 PUSH3 0x8E PUSH3 0x86 PUSH1 0x40 MLOAD SWAP1 JUMP JUMPDEST SWAP3 DUP4 PUSH3 0x4F JUMP JUMPDEST JUMP JUMPDEST PUSH1 0x1 PUSH1 0x1 PUSH1 0x40 SHL SUB DUP2 GT PUSH3 0x71 JUMPI PUSH1 0x20 SWAP1 PUSH1 0x1F ADD PUSH1 0x1F NOT AND ADD SWAP1 JUMP JUMPDEST PUSH1 0x0 JUMPDEST DUP4 DUP2 LT PUSH3 0xC1 JUMPI POP POP PUSH1 0x0 SWAP2 ADD MSTORE JUMP JUMPDEST DUP2 DUP2 ADD MLOAD DUP4 DUP3 ADD MSTORE PUSH1 0x20 ADD PUSH3 0xB0 JUMP JUMPDEST SWAP1 SWAP3 SWAP2 SWAP3 PUSH3 0xEB PUSH3 0xE5 DUP3 PUSH3 0x90 JUMP JUMPDEST PUSH3 0x77 JUMP JUMPDEST SWAP4 DUP2 DUP6 MSTORE DUP2 DUP4 ADD GT PUSH3 0x34 JUMPI PUSH3 0x8E SWAP2 PUSH1 0x20 DUP6 ADD SWAP1 PUSH3 0xAD JUMP JUMPDEST SWAP1 DUP1 PUSH1 0x1F DUP4 ADD SLT ISZERO PUSH3 0x34 JUMPI DUP2 MLOAD PUSH3 0x125 SWAP3 PUSH1 0x20 ADD PUSH3 0xD2 JUMP JUMPDEST SWAP1 JUMP JUMPDEST DUP1 JUMPDEST SUB PUSH3 0x34 JUMPI JUMP JUMPDEST SWAP1 POP MLOAD SWAP1 PUSH3 0x8E DUP3 PUSH3 0x128 JUMP JUMPDEST PUSH1 0x1 PUSH1 0x1 PUSH1 0x40 SHL SUB DUP2 GT PUSH3 0x71 JUMPI PUSH1 0x20 DUP1 SWAP2 MUL ADD SWAP1 JUMP JUMPDEST PUSH1 0x1 PUSH1 0x1 PUSH1 0xA0 SHL SUB AND SWAP1 JUMP JUMPDEST PUSH3 0x12A DUP2 PUSH3 0x159 JUMP JUMPDEST SWAP1 POP MLOAD SWAP1 PUSH3 0x8E DUP3 PUSH3 0x165 JUMP JUMPDEST SWAP1 SWAP3 SWAP2 SWAP3 PUSH3 0x192 PUSH3 0xE5 DUP3 PUSH3 0x141 JUMP JUMPDEST SWAP4 DUP2 DUP6 MSTORE PUSH1 0x20 DUP1 DUP7 ADD SWAP3 MUL DUP4 ADD SWAP3 DUP2 DUP5 GT PUSH3 0x34 JUMPI SWAP2 JUMPDEST DUP4 DUP4 LT PUSH3 0x1B8 JUMPI POP POP POP POP JUMP JUMPDEST PUSH1 0x20 DUP1 SWAP2 PUSH3 0x1C8 DUP5 DUP7 PUSH3 0x170 JUMP JUMPDEST DUP2 MSTORE ADD SWAP3 ADD SWAP2 PUSH3 0x1AA JUMP JUMPDEST SWAP1 DUP1 PUSH1 0x1F DUP4 ADD SLT ISZERO PUSH3 0x34 JUMPI DUP2 MLOAD PUSH3 0x125 SWAP3 PUSH1 0x20 ADD PUSH3 0x17F JUMP JUMPDEST SWAP1 SWAP3 SWAP2 SWAP3 PUSH3 0x204 PUSH3 0xE5 DUP3 PUSH3 0x141 JUMP JUMPDEST SWAP4 DUP2 DUP6 MSTORE PUSH1 0x20 DUP1 DUP7 ADD SWAP3 MUL DUP4 ADD SWAP3 DUP2 DUP5 GT PUSH3 0x34 JUMPI SWAP2 JUMPDEST DUP4 DUP4 LT PUSH3 0x22A JUMPI POP POP POP POP JUMP JUMPDEST PUSH1 0x20 DUP1 SWAP2 PUSH3 0x23A DUP5 DUP7 PUSH3 0x132 JUMP JUMPDEST DUP2 MSTORE ADD SWAP3 ADD SWAP2 PUSH3 0x21C JUMP JUMPDEST SWAP1 DUP1 PUSH1 0x1F DUP4 ADD SLT ISZERO PUSH3 0x34 JUMPI DUP2 MLOAD PUSH3 0x125 SWAP3 PUSH1 0x20 ADD PUSH3 0x1F1 JUMP JUMPDEST SWAP2 SWAP1 SWAP2 PUSH1 0xA0 DUP2 DUP5 SUB SLT PUSH3 0x34 JUMPI DUP1 MLOAD PUSH1 0x1 PUSH1 0x1 PUSH1 0x40 SHL SUB DUP2 GT PUSH3 0x34 JUMPI DUP4 PUSH3 0x290 SWAP2 DUP4 ADD PUSH3 0x108 JUMP JUMPDEST PUSH1 0x20 DUP3 ADD MLOAD SWAP1 SWAP4 SWAP1 PUSH1 0x1 PUSH1 0x1 PUSH1 0x40 SHL SUB DUP2 GT PUSH3 0x34 JUMPI DUP2 PUSH3 0x2B5 SWAP2 DUP5 ADD PUSH3 0x108 JUMP JUMPDEST SWAP3 PUSH3 0x2C5 DUP3 PUSH1 0x40 DUP6 ADD PUSH3 0x132 JUMP JUMPDEST PUSH1 0x60 DUP5 ADD MLOAD SWAP1 SWAP4 SWAP1 PUSH1 0x1 PUSH1 0x1 PUSH1 0x40 SHL SUB DUP2 GT PUSH3 0x34 JUMPI DUP4 PUSH3 0x2EA SWAP2 DUP4 ADD PUSH3 0x1D4 JUMP JUMPDEST PUSH1 0x80 DUP3 ADD MLOAD SWAP1 SWAP4 SWAP1 PUSH1 0x1 PUSH1 0x1 PUSH1 0x40 SHL SUB DUP2 GT PUSH3 0x34 JUMPI PUSH3 0x125 SWAP3 ADD PUSH3 0x246 JUMP JUMPDEST PUSH3 0x330 PUSH3 0x18C0 DUP1 CODESIZE SUB DUP1 PUSH3 0x324 DUP2 PUSH3 0x77 JUMP JUMPDEST SWAP3 DUP4 CODECOPY DUP2 ADD SWAP1 PUSH3 0x263 JUMP JUMPDEST SWAP1 SWAP2 SWAP3 SWAP4 SWAP5 JUMP JUMPDEST PUSH3 0x125 PUSH3 0x125 PUSH3 0x125 SWAP3 SWAP1 JUMP JUMPDEST ISZERO PUSH3 0x34F JUMPI JUMP JUMPDEST PUSH1 0x40 MLOAD PUSH3 0x461BCD PUSH1 0xE5 SHL DUP2 MSTORE DUP1 PUSH3 0x399 PUSH1 0x4 DUP3 ADD PUSH1 0x20 DUP1 DUP3 MSTORE DUP2 DUP2 ADD MSTORE PUSH32 0x4D7573742070726F76696465206174206C65617374206F6E652077616C6C6574 PUSH1 0x40 DUP3 ADD MSTORE PUSH1 0x60 ADD SWAP1 JUMP JUMPDEST SUB SWAP1 REVERT JUMPDEST ISZERO PUSH3 0x3A5 JUMPI JUMP JUMPDEST PUSH1 0x40 MLOAD PUSH3 0x461BCD PUSH1 0xE5 SHL DUP2 MSTORE PUSH1 0x20 PUSH1 0x4 DUP3 ADD MSTORE PUSH1 0x27 PUSH1 0x24 DUP3 ADD MSTORE PUSH32 0x57616C6C65747320616E642070657263656E7461676573206C656E677468206D PUSH1 0x44 DUP3 ADD MSTORE PUSH7 0xD2E6DAC2E8C6D PUSH1 0xCB SHL PUSH1 0x64 DUP3 ADD MSTORE PUSH1 0x84 SWAP1 REVERT JUMPDEST PUSH4 0x4E487B71 PUSH1 0xE0 SHL PUSH1 0x0 MSTORE PUSH1 0x32 PUSH1 0x4 MSTORE PUSH1 0x24 PUSH1 0x0 REVERT JUMPDEST SWAP1 PUSH3 0x41A DUP3 MLOAD SWAP1 JUMP JUMPDEST DUP2 LT ISZERO PUSH3 0x42C JUMPI PUSH1 0x20 DUP1 SWAP2 MUL ADD ADD SWAP1 JUMP JUMPDEST PUSH3 0x3FA JUMP JUMPDEST PUSH3 0x125 SWAP1 MLOAD PUSH3 0x159 JUMP JUMPDEST PUSH3 0x159 PUSH3 0x125 PUSH3 0x125 SWAP3 SWAP1 JUMP JUMPDEST PUSH3 0x125 SWAP1 PUSH3 0x43E JUMP JUMPDEST ISZERO PUSH3 0x461 JUMPI JUMP JUMPDEST PUSH1 0x40 MLOAD PUSH3 0x461BCD PUSH1 0xE5 SHL DUP2 MSTORE PUSH1 0x20 PUSH1 0x4 DUP3 ADD MSTORE PUSH1 0x1D PUSH1 0x24 DUP3 ADD MSTORE PUSH32 0x57616C6C65742063616E6E6F74206265207A65726F2061646472657373000000 PUSH1 0x44 DUP3 ADD MSTORE PUSH1 0x64 SWAP1 REVERT JUMPDEST PUSH4 0x4E487B71 PUSH1 0xE0 SHL PUSH1 0x0 MSTORE PUSH1 0x11 PUSH1 0x4 MSTORE PUSH1 0x24 PUSH1 0x0 REVERT JUMPDEST SWAP2 SWAP1 DUP3 ADD DUP1 SWAP3 GT PUSH3 0x4CA JUMPI JUMP JUMPDEST PUSH3 0x4A6 JUMP JUMPDEST ISZERO PUSH3 0x4D8 JUMPI JUMP JUMPDEST PUSH1 0x40 MLOAD PUSH3 0x461BCD PUSH1 0xE5 SHL DUP2 MSTORE PUSH1 0x20 PUSH1 0x4 DUP3 ADD MSTORE PUSH1 0x1F PUSH1 0x24 DUP3 ADD MSTORE PUSH32 0x546F74616C2070657263656E74616765206D75737420657175616C2031303000 PUSH1 0x44 DUP3 ADD MSTORE PUSH1 0x64 SWAP1 REVERT JUMPDEST SWAP2 SWAP1 DUP3 SUB SWAP2 DUP3 GT PUSH3 0x4CA JUMPI JUMP JUMPDEST DUP2 DUP2 MUL SWAP3 SWAP2 DUP2 ISZERO SWAP2 DUP5 DIV EQ OR ISZERO PUSH3 0x4CA JUMPI JUMP JUMPDEST PUSH4 0x4E487B71 PUSH1 0xE0 SHL PUSH1 0x0 MSTORE PUSH1 0x12 PUSH1 0x4 MSTORE PUSH1 0x24 PUSH1 0x0 REVERT JUMPDEST SWAP1 PUSH3 0x560 JUMP JUMPDEST SWAP2 SWAP1 JUMP JUMPDEST SWAP1 DUP2 ISZERO PUSH3 0x56C JUMPI DIV SWAP1 JUMP JUMPDEST PUSH3 0x53F JUMP JUMPDEST SWAP1 PUSH3 0x582 SWAP2 SWAP5 SWAP4 SWAP3 SWAP5 PUSH3 0x74E JUMP JUMPDEST DUP1 MLOAD SWAP1 PUSH3 0x5A2 PUSH1 0x0 SWAP3 PUSH3 0x59B PUSH3 0x55C DUP6 PUSH3 0x337 JUMP JUMPDEST GT PUSH3 0x347 JUMP JUMPDEST PUSH3 0x5C7 PUSH3 0x5AF DUP3 MLOAD SWAP1 JUMP JUMPDEST PUSH3 0x5C0 PUSH3 0x55C PUSH3 0x125 DUP8 MLOAD SWAP1 JUMP JUMPDEST EQ PUSH3 0x39D JUMP JUMPDEST PUSH3 0x5D2 DUP3 PUSH3 0x337 JUMP JUMPDEST SWAP5 DUP6 JUMPDEST PUSH3 0x5E2 PUSH3 0x125 DUP7 MLOAD SWAP1 JUMP JUMPDEST DUP8 LT ISZERO PUSH3 0x65E JUMPI PUSH3 0x650 PUSH3 0x657 SWAP2 PUSH3 0x635 PUSH3 0x60D PUSH3 0x607 DUP12 DUP9 PUSH3 0x410 JUMP JUMPDEST PUSH3 0x432 JUMP JUMPDEST PUSH3 0x62D PUSH3 0x626 PUSH3 0x620 DUP11 PUSH3 0x44E JUMP JUMPDEST PUSH3 0x159 JUMP JUMPDEST SWAP2 PUSH3 0x159 JUMP JUMPDEST EQ ISZERO PUSH3 0x459 JUMP JUMPDEST PUSH3 0x649 PUSH3 0x645 DUP11 DUP10 PUSH3 0x410 JUMP JUMPDEST MLOAD SWAP1 JUMP JUMPDEST SWAP1 PUSH3 0x4BC JUMP JUMPDEST SWAP7 PUSH1 0x1 ADD SWAP1 JUMP JUMPDEST SWAP6 PUSH3 0x5D5 JUMP JUMPDEST SWAP6 POP SWAP4 SWAP1 SWAP2 SWAP3 PUSH3 0x682 PUSH1 0x64 SWAP7 PUSH3 0x67B PUSH3 0x55C PUSH1 0x64 PUSH3 0x337 JUMP JUMPDEST EQ PUSH3 0x4D0 JUMP JUMPDEST PUSH3 0x68E DUP3 SWAP5 PUSH3 0x337 JUMP JUMPDEST SWAP4 JUMPDEST PUSH3 0x6B4 PUSH3 0x125 PUSH3 0x6A1 DUP7 MLOAD SWAP1 JUMP JUMPDEST PUSH3 0x6AD PUSH1 0x1 PUSH3 0x337 JUMP JUMPDEST SWAP1 PUSH3 0x51D JUMP JUMPDEST DUP6 LT ISZERO PUSH3 0x726 JUMPI PUSH3 0x718 PUSH3 0x71F SWAP2 PUSH3 0x6F6 PUSH3 0x6E4 PUSH3 0x6DD PUSH3 0x645 DUP11 DUP9 PUSH3 0x410 JUMP JUMPDEST DUP8 PUSH3 0x52B JUMP JUMPDEST PUSH3 0x6EF DUP12 PUSH3 0x337 JUMP JUMPDEST SWAP1 PUSH3 0x555 JUMP JUMPDEST SWAP1 PUSH3 0x712 DUP3 PUSH3 0x70C PUSH3 0x607 DUP12 DUP12 PUSH3 0x410 JUMP JUMPDEST PUSH3 0xA58 JUMP JUMPDEST PUSH3 0x51D JUMP JUMPDEST SWAP5 PUSH1 0x1 ADD SWAP1 JUMP JUMPDEST SWAP4 PUSH3 0x690 JUMP JUMPDEST SWAP4 POP POP POP PUSH3 0x8E SWAP3 SWAP4 POP PUSH3 0x607 PUSH3 0x70C SWAP2 PUSH3 0x747 PUSH3 0x6A1 DUP3 MLOAD SWAP1 JUMP JUMPDEST SWAP1 PUSH3 0x410 JUMP JUMPDEST SWAP1 PUSH3 0x75A SWAP2 PUSH3 0x970 JUMP JUMPDEST PUSH3 0x8E CALLER PUSH3 0xB6F JUMP JUMPDEST PUSH4 0x4E487B71 PUSH1 0xE0 SHL PUSH1 0x0 MSTORE PUSH1 0x22 PUSH1 0x4 MSTORE PUSH1 0x24 PUSH1 0x0 REVERT JUMPDEST SWAP1 PUSH1 0x1 PUSH1 0x2 DUP4 DIV SWAP3 AND DUP1 ISZERO PUSH3 0x79E JUMPI JUMPDEST PUSH1 0x20 DUP4 LT EQ PUSH3 0x798 JUMPI JUMP JUMPDEST PUSH3 0x765 JUMP JUMPDEST SWAP2 PUSH1 0x7F AND SWAP2 PUSH3 0x78C JUMP JUMPDEST SWAP2 PUSH1 0x0 NOT PUSH1 0x8 SWAP3 SWAP1 SWAP3 MUL SWAP2 DUP3 SHL SWAP2 SHL JUMPDEST SWAP2 DUP2 NOT AND SWAP2 AND OR SWAP1 JUMP JUMPDEST SWAP2 SWAP1 PUSH3 0x7D8 PUSH3 0x125 PUSH3 0x7E1 SWAP4 PUSH3 0x337 JUMP JUMPDEST SWAP1 DUP4 SLOAD PUSH3 0x7A9 JUMP JUMPDEST SWAP1 SSTORE JUMP JUMPDEST PUSH3 0x8E SWAP2 PUSH1 0x0 SWAP2 PUSH3 0x7C3 JUMP JUMPDEST DUP2 DUP2 LT PUSH3 0x7FF JUMPI POP POP JUMP JUMPDEST DUP1 PUSH3 0x80F PUSH1 0x0 PUSH1 0x1 SWAP4 PUSH3 0x7E5 JUMP JUMPDEST ADD PUSH3 0x7F3 JUMP JUMPDEST SWAP2 SWAP1 PUSH1 0x1F DUP2 GT PUSH3 0x826 JUMPI POP POP POP JUMP JUMPDEST PUSH3 0x83A PUSH3 0x8E SWAP4 PUSH1 0x0 MSTORE PUSH1 0x20 PUSH1 0x0 KECCAK256 SWAP1 JUMP JUMPDEST SWAP1 PUSH1 0x20 PUSH1 0x1F DUP5 ADD DUP2 SWAP1 DIV DUP4 ADD SWAP4 LT PUSH3 0x85E JUMPI JUMPDEST PUSH1 0x20 PUSH1 0x1F SWAP1 SWAP2 ADD DIV ADD SWAP1 PUSH3 0x7F3 JUMP JUMPDEST SWAP1 SWAP2 POP DUP2 SWAP1 PUSH3 0x84E JUMP JUMPDEST SWAP1 PUSH1 0x0 NOT PUSH1 0x8 SWAP1 SWAP2 MUL SHR NOT AND SWAP1 JUMP JUMPDEST DUP2 PUSH3 0x884 SWAP2 PUSH3 0x869 JUMP JUMPDEST SWAP1 PUSH1 0x2 MUL OR SWAP1 JUMP JUMPDEST SWAP1 PUSH3 0x896 DUP2 MLOAD SWAP1 JUMP JUMPDEST SWAP1 PUSH1 0x1 PUSH1 0x1 PUSH1 0x40 SHL SUB DUP3 GT PUSH3 0x71 JUMPI PUSH3 0x8BE DUP3 PUSH3 0x8B7 DUP6 SLOAD PUSH3 0x77B JUMP JUMPDEST DUP6 PUSH3 0x816 JUMP JUMPDEST PUSH1 0x20 SWAP1 PUSH1 0x1F DUP4 GT PUSH1 0x1 EQ PUSH3 0x8F1 JUMPI PUSH3 0x7E1 SWAP3 SWAP2 PUSH1 0x0 SWAP2 DUP4 PUSH3 0x8E5 JUMPI JUMPDEST POP POP PUSH3 0x878 JUMP JUMPDEST ADD MLOAD SWAP1 POP CODESIZE DUP1 PUSH3 0x8DD JUMP JUMPDEST PUSH1 0x1F NOT DUP4 AND SWAP2 PUSH3 0x907 DUP6 PUSH1 0x0 MSTORE PUSH1 0x20 PUSH1 0x0 KECCAK256 SWAP1 JUMP JUMPDEST SWAP3 PUSH1 0x0 JUMPDEST DUP2 DUP2 LT PUSH3 0x94B JUMPI POP SWAP2 PUSH1 0x2 SWAP4 SWAP2 DUP6 PUSH1 0x1 SWAP7 SWAP5 LT PUSH3 0x92E JUMPI JUMPDEST POP POP POP MUL ADD SWAP1 SSTORE JUMP JUMPDEST PUSH3 0x940 SWAP2 ADD MLOAD PUSH1 0x1F DUP5 AND SWAP1 PUSH3 0x869 JUMP JUMPDEST SWAP1 SSTORE CODESIZE DUP1 DUP1 PUSH3 0x925 JUMP JUMPDEST SWAP2 SWAP4 PUSH1 0x20 PUSH1 0x1 DUP2 SWAP3 DUP8 DUP8 ADD MLOAD DUP2 SSTORE ADD SWAP6 ADD SWAP3 ADD PUSH3 0x90B JUMP JUMPDEST SWAP1 PUSH3 0x8E SWAP2 PUSH3 0x88C JUMP JUMPDEST SWAP1 PUSH3 0x982 PUSH3 0x8E SWAP3 PUSH1 0x3 PUSH3 0x964 JUMP JUMPDEST PUSH1 0x4 PUSH3 0x964 JUMP JUMPDEST ISZERO PUSH3 0x992 JUMPI JUMP JUMPDEST PUSH1 0x40 MLOAD PUSH3 0x461BCD PUSH1 0xE5 SHL DUP2 MSTORE PUSH1 0x20 PUSH1 0x4 DUP3 ADD MSTORE PUSH1 0x1F PUSH1 0x24 DUP3 ADD MSTORE PUSH32 0x45524332303A206D696E7420746F20746865207A65726F206164647265737300 PUSH1 0x44 DUP3 ADD MSTORE PUSH1 0x64 SWAP1 REVERT JUMPDEST PUSH3 0x125 SWAP1 DUP2 JUMP JUMPDEST PUSH3 0x125 SWAP1 SLOAD PUSH3 0x9D7 JUMP JUMPDEST SWAP1 PUSH1 0x0 NOT SWAP1 PUSH3 0x7B9 JUMP JUMPDEST SWAP1 PUSH3 0xA0A PUSH3 0x125 PUSH3 0x7E1 SWAP3 PUSH3 0x337 JUMP JUMPDEST DUP3 SLOAD PUSH3 0x9EB JUMP JUMPDEST PUSH3 0x125 SWAP1 PUSH3 0x159 SWAP1 PUSH1 0x1 PUSH1 0x1 PUSH1 0xA0 SHL SUB AND DUP3 JUMP JUMPDEST PUSH3 0x125 SWAP1 PUSH3 0xA12 JUMP JUMPDEST PUSH3 0x125 SWAP1 PUSH3 0xA28 JUMP JUMPDEST SWAP1 PUSH3 0xA4A SWAP1 PUSH3 0xA33 JUMP JUMPDEST PUSH1 0x0 MSTORE PUSH1 0x20 MSTORE PUSH1 0x40 PUSH1 0x0 KECCAK256 SWAP1 JUMP JUMPDEST PUSH32 0xDDF252AD1BE2C89B69C2B068FC378DAA952BA7F163C4A11628F55A4DF523B3EF PUSH3 0xB27 PUSH3 0xB0F PUSH3 0xB08 PUSH3 0xA91 PUSH1 0x0 PUSH3 0x44E JUMP JUMPDEST PUSH3 0xAB3 PUSH3 0xAA0 DUP3 PUSH3 0x159 JUMP JUMPDEST PUSH3 0xAAB DUP9 PUSH3 0x159 JUMP JUMPDEST EQ ISZERO PUSH3 0x98A JUMP JUMPDEST PUSH3 0xAD6 PUSH3 0xACE DUP9 PUSH3 0xAC8 PUSH1 0x2 PUSH3 0x9DF JUMP JUMPDEST PUSH3 0x4BC JUMP JUMPDEST PUSH1 0x2 PUSH3 0x9F6 JUMP JUMPDEST PUSH3 0xB02 PUSH3 0xAE7 DUP8 PUSH1 0x0 PUSH3 0xA3E JUMP JUMPDEST PUSH3 0xAFB DUP10 PUSH3 0xAF7 DUP4 PUSH3 0x9DF JUMP JUMPDEST ADD SWAP1 JUMP JUMPDEST SWAP1 PUSH3 0x9F6 JUMP JUMPDEST PUSH3 0xA33 JUMP JUMPDEST SWAP4 PUSH3 0xA33 JUMP JUMPDEST SWAP4 PUSH3 0xB1A PUSH1 0x40 MLOAD SWAP1 JUMP JUMPDEST SWAP2 DUP3 SWAP2 DUP3 SWAP1 DUP2 MSTORE PUSH1 0x20 ADD SWAP1 JUMP JUMPDEST SUB SWAP1 LOG3 JUMP JUMPDEST PUSH3 0x125 SWAP1 PUSH3 0x159 JUMP JUMPDEST PUSH3 0x125 SWAP1 SLOAD PUSH3 0xB2C JUMP JUMPDEST SWAP1 PUSH1 0x1 PUSH1 0x1 PUSH1 0xA0 SHL SUB SWAP1 PUSH3 0x7B9 JUMP JUMPDEST SWAP1 PUSH3 0xB67 PUSH3 0x125 PUSH3 0x7E1 SWAP3 PUSH3 0xA33 JUMP JUMPDEST DUP3 SLOAD PUSH3 0xB43 JUMP JUMPDEST PUSH3 0xB97 PUSH3 0xB90 PUSH3 0xB83 PUSH1 0x5 PUSH3 0xB37 JUMP JUMPDEST PUSH3 0xB02 DUP5 PUSH1 0x5 PUSH3 0xB53 JUMP JUMPDEST SWAP2 PUSH3 0xA33 JUMP JUMPDEST SWAP1 PUSH32 0x8BE0079C531659141344CD1FD0A4F28419497F9722A3DAAFE3B4186F6B6457E0 PUSH3 0xBC3 PUSH1 0x40 MLOAD SWAP1 JUMP JUMPDEST DUP1 DUP1 PUSH3 0xB27 JUMP INVALID PUSH1 0x80 PUSH1 0x40 MSTORE PUSH1 0x4 CALLDATASIZE LT ISZERO PUSH2 0x12 JUMPI PUSH1 0x0 DUP1 REVERT JUMPDEST PUSH1 0x0 CALLDATALOAD PUSH1 0xE0 SHR DUP1 PUSH4 0x6FDDE03 EQ PUSH2 0xF2 JUMPI DUP1 PUSH4 0x95EA7B3 EQ PUSH2 0xED JUMPI DUP1 PUSH4 0x18160DDD EQ PUSH2 0xE8 JUMPI DUP1 PUSH4 0x23B872DD EQ PUSH2 0xE3 JUMPI DUP1 PUSH4 0x313CE567 EQ PUSH2 0xDE JUMPI DUP1 PUSH4 0x39509351 EQ PUSH2 0xD9 JUMPI DUP1 PUSH4 0x70A08231 EQ PUSH2 0xD4 JUMPI DUP1 PUSH4 0x715018A6 EQ PUSH2 0xCF JUMPI DUP1 PUSH4 0x8DA5CB5B EQ PUSH2 0xCA JUMPI DUP1 PUSH4 0x95D89B41 EQ PUSH2 0xC5 JUMPI DUP1 PUSH4 0xA457C2D7 EQ PUSH2 0xC0 JUMPI DUP1 PUSH4 0xA9059CBB EQ PUSH2 0xBB JUMPI DUP1 PUSH4 0xDD62ED3E EQ PUSH2 0xB6 JUMPI PUSH4 0xF2FDE38B SUB PUSH2 0xF7 JUMPI PUSH2 0x40E JUMP JUMPDEST PUSH2 0x3F2 JUMP JUMPDEST PUSH2 0x3B3 JUMP JUMPDEST PUSH2 0x397 JUMP JUMPDEST PUSH2 0x37C JUMP JUMPDEST PUSH2 0x355 JUMP JUMPDEST PUSH2 0x31F JUMP JUMPDEST PUSH2 0x304 JUMP JUMPDEST PUSH2 0x2D4 JUMP JUMPDEST PUSH2 0x2A5 JUMP JUMPDEST PUSH2 0x289 JUMP JUMPDEST PUSH2 0x234 JUMP JUMPDEST PUSH2 0x206 JUMP JUMPDEST PUSH2 0x176 JUMP JUMPDEST PUSH1 0x0 DUP1 REVERT JUMPDEST PUSH1 0x0 SWAP2 SUB SLT PUSH2 0xF7 JUMPI JUMP JUMPDEST PUSH1 0x0 JUMPDEST DUP4 DUP2 LT PUSH2 0x11A JUMPI POP POP PUSH1 0x0 SWAP2 ADD MSTORE JUMP JUMPDEST DUP2 DUP2 ADD MLOAD DUP4 DUP3 ADD MSTORE PUSH1 0x20 ADD PUSH2 0x10A JUMP JUMPDEST PUSH2 0x14B PUSH2 0x154 PUSH1 0x20 SWAP4 PUSH2 0x15E SWAP4 PUSH2 0x13F DUP2 MLOAD SWAP1 JUMP JUMPDEST DUP1 DUP4 MSTORE SWAP4 DUP5 SWAP3 PUSH1 0x20 ADD SWAP1 JUMP JUMPDEST SWAP6 DUP7 SWAP2 ADD PUSH2 0x107 JUMP JUMPDEST PUSH1 0x1F ADD PUSH1 0x1F NOT AND SWAP1 JUMP JUMPDEST ADD SWAP1 JUMP JUMPDEST PUSH1 0x20 DUP1 DUP3 MSTORE PUSH2 0x173 SWAP3 SWAP2 ADD SWAP1 PUSH2 0x12A JUMP JUMPDEST SWAP1 JUMP JUMPDEST CALLVALUE PUSH2 0xF7 JUMPI PUSH2 0x186 CALLDATASIZE PUSH1 0x4 PUSH2 0xFC JUMP JUMPDEST PUSH2 0x19D PUSH2 0x191 PUSH2 0x55A JUMP JUMPDEST PUSH1 0x40 MLOAD SWAP2 DUP3 SWAP2 DUP3 PUSH2 0x162 JUMP JUMPDEST SUB SWAP1 RETURN JUMPDEST PUSH1 0x1 PUSH1 0x1 PUSH1 0xA0 SHL SUB AND SWAP1 JUMP JUMPDEST PUSH2 0x1B6 DUP2 PUSH2 0x1A1 JUMP JUMPDEST SUB PUSH2 0xF7 JUMPI JUMP JUMPDEST SWAP1 POP CALLDATALOAD SWAP1 PUSH2 0x1CA DUP3 PUSH2 0x1AD JUMP JUMPDEST JUMP JUMPDEST DUP1 PUSH2 0x1B6 JUMP JUMPDEST SWAP1 POP CALLDATALOAD SWAP1 PUSH2 0x1CA DUP3 PUSH2 0x1CC JUMP JUMPDEST SWAP2 SWAP1 PUSH1 0x40 DUP4 DUP3 SUB SLT PUSH2 0xF7 JUMPI PUSH2 0x173 SWAP1 PUSH1 0x20 PUSH2 0x1FB DUP3 DUP7 PUSH2 0x1BD JUMP JUMPDEST SWAP5 ADD PUSH2 0x1D2 JUMP JUMPDEST SWAP1 MSTORE JUMP JUMPDEST CALLVALUE PUSH2 0xF7 JUMPI PUSH2 0x19D PUSH2 0x222 PUSH2 0x21C CALLDATASIZE PUSH1 0x4 PUSH2 0x1DF JUMP JUMPDEST SWAP1 PUSH2 0x564 JUMP JUMPDEST PUSH1 0x40 MLOAD SWAP2 DUP3 SWAP2 DUP3 SWAP1 ISZERO ISZERO DUP2 MSTORE PUSH1 0x20 ADD SWAP1 JUMP JUMPDEST CALLVALUE PUSH2 0xF7 JUMPI PUSH2 0x244 CALLDATASIZE PUSH1 0x4 PUSH2 0xFC JUMP JUMPDEST PUSH2 0x19D PUSH2 0x24F PUSH2 0x585 JUMP JUMPDEST PUSH1 0x40 MLOAD JUMPDEST SWAP2 DUP3 SWAP2 DUP3 SWAP1 DUP2 MSTORE PUSH1 0x20 ADD SWAP1 JUMP JUMPDEST SWAP1 SWAP2 PUSH1 0x60 DUP3 DUP5 SUB SLT PUSH2 0xF7 JUMPI PUSH2 0x173 PUSH2 0x279 DUP5 DUP5 PUSH2 0x1BD JUMP JUMPDEST SWAP4 PUSH1 0x40 PUSH2 0x1FB DUP3 PUSH1 0x20 DUP8 ADD PUSH2 0x1BD JUMP JUMPDEST CALLVALUE PUSH2 0xF7 JUMPI PUSH2 0x19D PUSH2 0x222 PUSH2 0x29F CALLDATASIZE PUSH1 0x4 PUSH2 0x260 JUMP JUMPDEST SWAP2 PUSH2 0x58F JUMP JUMPDEST CALLVALUE PUSH2 0xF7 JUMPI PUSH2 0x2B5 CALLDATASIZE PUSH1 0x4 PUSH2 0xFC JUMP JUMPDEST PUSH2 0x19D PUSH2 0x2C0 PUSH2 0x5B8 JUMP JUMPDEST PUSH1 0x40 MLOAD SWAP2 DUP3 SWAP2 DUP3 PUSH1 0xFF SWAP1 SWAP2 AND DUP2 MSTORE PUSH1 0x20 ADD SWAP1 JUMP JUMPDEST CALLVALUE PUSH2 0xF7 JUMPI PUSH2 0x19D PUSH2 0x222 PUSH2 0x2EA CALLDATASIZE PUSH1 0x4 PUSH2 0x1DF JUMP JUMPDEST SWAP1 PUSH2 0x5EA JUMP JUMPDEST SWAP1 PUSH1 0x20 DUP3 DUP3 SUB SLT PUSH2 0xF7 JUMPI PUSH2 0x173 SWAP2 PUSH2 0x1BD JUMP JUMPDEST CALLVALUE PUSH2 0xF7 JUMPI PUSH2 0x19D PUSH2 0x24F PUSH2 0x31A CALLDATASIZE PUSH1 0x4 PUSH2 0x2F0 JUMP JUMPDEST PUSH2 0x647 JUMP JUMPDEST CALLVALUE PUSH2 0xF7 JUMPI PUSH2 0x32F CALLDATASIZE PUSH1 0x4 PUSH2 0xFC JUMP JUMPDEST PUSH2 0x337 PUSH2 0x69B JUMP JUMPDEST PUSH1 0x40 MLOAD STOP JUMPDEST PUSH2 0x202 SWAP1 PUSH2 0x1A1 JUMP JUMPDEST PUSH1 0x20 DUP2 ADD SWAP3 SWAP2 PUSH2 0x1CA SWAP2 SWAP1 PUSH2 0x33C JUMP JUMPDEST CALLVALUE PUSH2 0xF7 JUMPI PUSH2 0x365 CALLDATASIZE PUSH1 0x4 PUSH2 0xFC JUMP JUMPDEST PUSH2 0x19D PUSH2 0x370 PUSH2 0x6B6 JUMP JUMPDEST PUSH1 0x40 MLOAD SWAP2 DUP3 SWAP2 DUP3 PUSH2 0x345 JUMP JUMPDEST CALLVALUE PUSH2 0xF7 JUMPI PUSH2 0x38C CALLDATASIZE PUSH1 0x4 PUSH2 0xFC JUMP JUMPDEST PUSH2 0x19D PUSH2 0x191 PUSH2 0x6C0 JUMP JUMPDEST CALLVALUE PUSH2 0xF7 JUMPI PUSH2 0x19D PUSH2 0x222 PUSH2 0x3AD CALLDATASIZE PUSH1 0x4 PUSH2 0x1DF JUMP JUMPDEST SWAP1 PUSH2 0x728 JUMP JUMPDEST CALLVALUE PUSH2 0xF7 JUMPI PUSH2 0x19D PUSH2 0x222 PUSH2 0x3C9 CALLDATASIZE PUSH1 0x4 PUSH2 0x1DF JUMP JUMPDEST SWAP1 PUSH2 0x74C JUMP JUMPDEST SWAP2 SWAP1 PUSH1 0x40 DUP4 DUP3 SUB SLT PUSH2 0xF7 JUMPI PUSH2 0x173 SWAP1 PUSH1 0x20 PUSH2 0x3EB DUP3 DUP7 PUSH2 0x1BD JUMP JUMPDEST SWAP5 ADD PUSH2 0x1BD JUMP JUMPDEST CALLVALUE PUSH2 0xF7 JUMPI PUSH2 0x19D PUSH2 0x24F PUSH2 0x408 CALLDATASIZE PUSH1 0x4 PUSH2 0x3CF JUMP JUMPDEST SWAP1 PUSH2 0x757 JUMP JUMPDEST CALLVALUE PUSH2 0xF7 JUMPI PUSH2 0x337 PUSH2 0x421 CALLDATASIZE PUSH1 0x4 PUSH2 0x2F0 JUMP JUMPDEST PUSH2 0x80C JUMP JUMPDEST PUSH4 0x4E487B71 PUSH1 0xE0 SHL PUSH1 0x0 MSTORE PUSH1 0x22 PUSH1 0x4 MSTORE PUSH1 0x24 PUSH1 0x0 REVERT JUMPDEST SWAP1 PUSH1 0x1 PUSH1 0x2 DUP4 DIV SWAP3 AND DUP1 ISZERO PUSH2 0x45C JUMPI JUMPDEST PUSH1 0x20 DUP4 LT EQ PUSH2 0x457 JUMPI JUMP JUMPDEST PUSH2 0x426 JUMP JUMPDEST SWAP2 PUSH1 0x7F AND SWAP2 PUSH2 0x44C JUMP JUMPDEST DUP1 SLOAD PUSH1 0x0 SWAP4 SWAP3 SWAP2 PUSH2 0x483 PUSH2 0x479 DUP4 PUSH2 0x43C JUMP JUMPDEST DUP1 DUP6 MSTORE SWAP4 PUSH1 0x20 ADD SWAP1 JUMP JUMPDEST SWAP2 PUSH1 0x1 DUP2 AND SWAP1 DUP2 ISZERO PUSH2 0x4D5 JUMPI POP PUSH1 0x1 EQ PUSH2 0x49C JUMPI POP POP POP JUMP JUMPDEST PUSH2 0x4AF SWAP2 SWAP3 SWAP4 SWAP5 POP PUSH1 0x0 MSTORE PUSH1 0x20 PUSH1 0x0 KECCAK256 SWAP1 JUMP JUMPDEST SWAP2 PUSH1 0x0 SWAP3 JUMPDEST DUP2 DUP5 LT PUSH2 0x4C1 JUMPI POP POP ADD SWAP1 JUMP JUMPDEST DUP1 SLOAD DUP5 DUP5 ADD MSTORE PUSH1 0x20 SWAP1 SWAP4 ADD SWAP3 PUSH1 0x1 ADD PUSH2 0x4B4 JUMP JUMPDEST SWAP3 SWAP5 SWAP6 POP POP POP PUSH1 0xFF NOT AND DUP3 MSTORE ISZERO ISZERO PUSH1 0x20 MUL ADD SWAP1 JUMP JUMPDEST SWAP1 PUSH2 0x173 SWAP2 PUSH2 0x466 JUMP JUMPDEST PUSH4 0x4E487B71 PUSH1 0xE0 SHL PUSH1 0x0 MSTORE PUSH1 0x41 PUSH1 0x4 MSTORE PUSH1 0x24 PUSH1 0x0 REVERT JUMPDEST SWAP1 PUSH1 0x1F ADD PUSH1 0x1F NOT AND DUP2 ADD SWAP1 DUP2 LT PUSH1 0x1 PUSH1 0x1 PUSH1 0x40 SHL SUB DUP3 GT OR PUSH2 0x52B JUMPI PUSH1 0x40 MSTORE JUMP JUMPDEST PUSH2 0x4F4 JUMP JUMPDEST SWAP1 PUSH2 0x1CA PUSH2 0x54A SWAP3 PUSH2 0x541 PUSH1 0x40 MLOAD SWAP1 JUMP JUMPDEST SWAP4 DUP5 DUP1 SWAP3 PUSH2 0x4EA JUMP JUMPDEST SUB DUP4 PUSH2 0x50A JUMP JUMPDEST PUSH2 0x173 SWAP1 PUSH2 0x530 JUMP JUMPDEST PUSH2 0x173 PUSH1 0x3 PUSH2 0x551 JUMP JUMPDEST PUSH2 0x56F SWAP2 SWAP1 CALLER PUSH2 0x8FC JUMP JUMPDEST PUSH1 0x1 SWAP1 JUMP JUMPDEST PUSH2 0x173 SWAP1 DUP2 JUMP JUMPDEST PUSH2 0x173 SWAP1 SLOAD PUSH2 0x574 JUMP JUMPDEST PUSH2 0x173 PUSH1 0x2 PUSH2 0x57B JUMP JUMPDEST PUSH2 0x56F SWAP3 SWAP2 SWAP1 PUSH2 0x5A0 DUP4 CALLER DUP4 PUSH2 0x9E1 JUMP JUMPDEST PUSH2 0xB26 JUMP JUMPDEST PUSH2 0x5B2 PUSH2 0x173 PUSH2 0x173 SWAP3 SWAP1 JUMP JUMPDEST PUSH1 0xFF AND SWAP1 JUMP JUMPDEST PUSH2 0x173 PUSH1 0x12 PUSH2 0x5A5 JUMP JUMPDEST PUSH4 0x4E487B71 PUSH1 0xE0 SHL PUSH1 0x0 MSTORE PUSH1 0x11 PUSH1 0x4 MSTORE PUSH1 0x24 PUSH1 0x0 REVERT JUMPDEST SWAP2 SWAP1 DUP3 ADD DUP1 SWAP3 GT PUSH2 0x5E5 JUMPI JUMP JUMPDEST PUSH2 0x5C2 JUMP JUMPDEST PUSH2 0x56F SWAP2 SWAP1 PUSH2 0x603 CALLER SWAP3 PUSH2 0x5FE DUP4 DUP6 PUSH2 0x757 JUMP JUMPDEST PUSH2 0x5D8 JUMP JUMPDEST SWAP2 PUSH2 0x8FC JUMP JUMPDEST PUSH2 0x173 SWAP1 PUSH2 0x1A1 SWAP1 PUSH1 0x1 PUSH1 0x1 PUSH1 0xA0 SHL SUB AND DUP3 JUMP JUMPDEST PUSH2 0x173 SWAP1 PUSH2 0x609 JUMP JUMPDEST PUSH2 0x173 SWAP1 PUSH2 0x61D JUMP JUMPDEST SWAP1 PUSH2 0x639 SWAP1 PUSH2 0x626 JUMP JUMPDEST PUSH1 0x0 MSTORE PUSH1 0x20 MSTORE PUSH1 0x40 PUSH1 0x0 KECCAK256 SWAP1 JUMP JUMPDEST PUSH2 0x65E PUSH2 0x173 SWAP2 PUSH2 0x656 PUSH1 0x0 SWAP1 JUMP JUMPDEST POP PUSH1 0x0 PUSH2 0x62F JUMP JUMPDEST PUSH2 0x57B JUMP JUMPDEST PUSH2 0x66B PUSH2 0xC22 JUMP JUMPDEST PUSH2 0x1CA PUSH2 0x689 JUMP JUMPDEST PUSH2 0x1A1 PUSH2 0x173 PUSH2 0x173 SWAP3 SWAP1 JUMP JUMPDEST PUSH2 0x173 SWAP1 PUSH2 0x673 JUMP JUMPDEST PUSH2 0x1CA PUSH2 0x696 PUSH1 0x0 PUSH2 0x680 JUMP JUMPDEST PUSH2 0xC6B JUMP JUMPDEST PUSH2 0x1CA PUSH2 0x663 JUMP JUMPDEST PUSH2 0x173 SWAP1 PUSH2 0x1A1 JUMP JUMPDEST PUSH2 0x173 SWAP1 SLOAD PUSH2 0x6A3 JUMP JUMPDEST PUSH2 0x173 PUSH1 0x5 PUSH2 0x6AC JUMP JUMPDEST PUSH2 0x173 PUSH1 0x4 PUSH2 0x551 JUMP JUMPDEST ISZERO PUSH2 0x6D1 JUMPI JUMP JUMPDEST PUSH1 0x40 MLOAD PUSH3 0x461BCD PUSH1 0xE5 SHL DUP2 MSTORE PUSH1 0x20 PUSH1 0x4 DUP3 ADD MSTORE PUSH1 0x25 PUSH1 0x24 DUP3 ADD MSTORE PUSH32 0x45524332303A2064656372656173656420616C6C6F77616E63652062656C6F77 PUSH1 0x44 DUP3 ADD MSTORE PUSH5 0x207A65726F PUSH1 0xD8 SHL PUSH1 0x64 DUP3 ADD MSTORE PUSH1 0x84 SWAP1 REVERT JUMPDEST SUB SWAP1 REVERT JUMPDEST PUSH2 0x56F SWAP2 SWAP1 PUSH2 0x603 CALLER SWAP3 PUSH2 0x73C DUP4 DUP6 PUSH2 0x757 JUMP JUMPDEST PUSH2 0x748 DUP3 DUP3 LT ISZERO PUSH2 0x6CA JUMP JUMPDEST SUB SWAP1 JUMP JUMPDEST PUSH2 0x56F SWAP2 SWAP1 CALLER PUSH2 0xB26 JUMP JUMPDEST PUSH2 0x173 SWAP2 PUSH2 0x772 PUSH2 0x65E SWAP3 PUSH2 0x76A PUSH1 0x0 SWAP1 JUMP JUMPDEST POP PUSH1 0x1 PUSH2 0x62F JUMP JUMPDEST PUSH2 0x62F JUMP JUMPDEST PUSH2 0x1CA SWAP1 PUSH2 0x783 PUSH2 0xC22 JUMP JUMPDEST PUSH2 0x7E3 JUMP JUMPDEST ISZERO PUSH2 0x78F JUMPI JUMP JUMPDEST PUSH1 0x40 MLOAD PUSH3 0x461BCD PUSH1 0xE5 SHL DUP2 MSTORE PUSH1 0x20 PUSH1 0x4 DUP3 ADD MSTORE PUSH1 0x26 PUSH1 0x24 DUP3 ADD MSTORE PUSH32 0x4F776E61626C653A206E6577206F776E657220697320746865207A65726F2061 PUSH1 0x44 DUP3 ADD MSTORE PUSH6 0x646472657373 PUSH1 0xD0 SHL PUSH1 0x64 DUP3 ADD MSTORE PUSH1 0x84 SWAP1 REVERT JUMPDEST PUSH2 0x1CA SWAP1 PUSH2 0x696 PUSH2 0x7FC PUSH2 0x7F7 PUSH1 0x0 PUSH2 0x680 JUMP JUMPDEST PUSH2 0x1A1 JUMP JUMPDEST PUSH2 0x805 DUP4 PUSH2 0x1A1 JUMP JUMPDEST EQ ISZERO PUSH2 0x788 JUMP JUMPDEST PUSH2 0x1CA SWAP1 PUSH2 0x777 JUMP JUMPDEST ISZERO PUSH2 0x81C JUMPI JUMP JUMPDEST PUSH1 0x40 MLOAD PUSH3 0x461BCD PUSH1 0xE5 SHL DUP2 MSTORE PUSH1 0x20 PUSH1 0x4 DUP3 ADD MSTORE PUSH1 0x24 DUP1 DUP3 ADD MSTORE PUSH32 0x45524332303A20617070726F76652066726F6D20746865207A65726F20616464 PUSH1 0x44 DUP3 ADD MSTORE PUSH4 0x72657373 PUSH1 0xE0 SHL PUSH1 0x64 DUP3 ADD MSTORE PUSH1 0x84 SWAP1 REVERT JUMPDEST ISZERO PUSH2 0x874 JUMPI JUMP JUMPDEST PUSH1 0x40 MLOAD PUSH3 0x461BCD PUSH1 0xE5 SHL DUP2 MSTORE PUSH1 0x20 PUSH1 0x4 DUP3 ADD MSTORE PUSH1 0x22 PUSH1 0x24 DUP3 ADD MSTORE PUSH32 0x45524332303A20617070726F766520746F20746865207A65726F206164647265 PUSH1 0x44 DUP3 ADD MSTORE PUSH2 0x7373 PUSH1 0xF0 SHL PUSH1 0x64 DUP3 ADD MSTORE PUSH1 0x84 SWAP1 REVERT JUMPDEST SWAP1 PUSH1 0x0 NOT SWAP1 JUMPDEST SWAP2 DUP2 NOT AND SWAP2 AND OR SWAP1 JUMP JUMPDEST PUSH2 0x173 PUSH2 0x173 PUSH2 0x173 SWAP3 SWAP1 JUMP JUMPDEST SWAP1 PUSH2 0x8F1 PUSH2 0x173 PUSH2 0x8F8 SWAP3 PUSH2 0x8D4 JUMP JUMPDEST DUP3 SLOAD PUSH2 0x8C4 JUMP JUMPDEST SWAP1 SSTORE JUMP JUMPDEST PUSH2 0x990 PUSH2 0x986 PUSH2 0x980 PUSH32 0x8C5BE1E5EBEC7D5BD14F71427D1E84F3DD0314C0F7B2291E5B200AC8C7C3B925 SWAP4 PUSH2 0x963 PUSH2 0x953 PUSH2 0x937 PUSH1 0x0 PUSH2 0x680 JUMP JUMPDEST PUSH2 0x7F7 PUSH2 0x943 DUP3 PUSH2 0x1A1 JUMP JUMPDEST PUSH2 0x94C DUP7 PUSH2 0x1A1 JUMP JUMPDEST EQ ISZERO PUSH2 0x815 JUMP JUMPDEST PUSH2 0x95C DUP9 PUSH2 0x1A1 JUMP JUMPDEST EQ ISZERO PUSH2 0x86D JUMP JUMPDEST PUSH2 0x97B DUP8 PUSH2 0x976 DUP9 PUSH2 0x772 DUP6 PUSH1 0x1 PUSH2 0x62F JUMP JUMPDEST PUSH2 0x8E1 JUMP JUMPDEST PUSH2 0x626 JUMP JUMPDEST SWAP4 PUSH2 0x626 JUMP JUMPDEST SWAP4 PUSH2 0x253 PUSH1 0x40 MLOAD SWAP1 JUMP JUMPDEST SUB SWAP1 LOG3 JUMP JUMPDEST ISZERO PUSH2 0x99C JUMPI JUMP JUMPDEST PUSH1 0x40 MLOAD PUSH3 0x461BCD PUSH1 0xE5 SHL DUP2 MSTORE PUSH1 0x20 PUSH1 0x4 DUP3 ADD MSTORE PUSH1 0x1D PUSH1 0x24 DUP3 ADD MSTORE PUSH32 0x45524332303A20696E73756666696369656E7420616C6C6F77616E6365000000 PUSH1 0x44 DUP3 ADD MSTORE PUSH1 0x64 SWAP1 REVERT JUMPDEST SWAP1 PUSH2 0x9EC DUP2 DUP4 PUSH2 0x757 JUMP JUMPDEST PUSH1 0x0 NOT DUP2 SUB PUSH2 0x9FC JUMPI JUMPDEST POP POP POP POP JUMP JUMPDEST PUSH2 0xA10 SWAP4 PUSH2 0x603 SWAP2 PUSH2 0x748 DUP3 DUP3 LT ISZERO PUSH2 0x995 JUMP JUMPDEST CODESIZE DUP1 DUP1 DUP1 PUSH2 0x9F6 JUMP JUMPDEST ISZERO PUSH2 0xA20 JUMPI JUMP JUMPDEST PUSH1 0x40 MLOAD PUSH3 0x461BCD PUSH1 0xE5 SHL DUP2 MSTORE PUSH1 0x20 PUSH1 0x4 DUP3 ADD MSTORE PUSH1 0x25 PUSH1 0x24 DUP3 ADD MSTORE PUSH32 0x45524332303A207472616E736665722066726F6D20746865207A65726F206164 PUSH1 0x44 DUP3 ADD MSTORE PUSH5 0x6472657373 PUSH1 0xD8 SHL PUSH1 0x64 DUP3 ADD MSTORE PUSH1 0x84 SWAP1 REVERT JUMPDEST ISZERO PUSH2 0xA7A JUMPI JUMP JUMPDEST PUSH1 0x40 MLOAD PUSH3 0x461BCD PUSH1 0xE5 SHL DUP2 MSTORE PUSH1 0x20 PUSH1 0x4 DUP3 ADD MSTORE PUSH1 0x23 PUSH1 0x24 DUP3 ADD MSTORE PUSH32 0x45524332303A207472616E7366657220746F20746865207A65726F2061646472 PUSH1 0x44 DUP3 ADD MSTORE PUSH3 0x657373 PUSH1 0xE8 SHL PUSH1 0x64 DUP3 ADD MSTORE PUSH1 0x84 SWAP1 REVERT JUMPDEST ISZERO PUSH2 0xAD2 JUMPI JUMP JUMPDEST PUSH1 0x40 MLOAD PUSH3 0x461BCD PUSH1 0xE5 SHL DUP2 MSTORE PUSH1 0x20 PUSH1 0x4 DUP3 ADD MSTORE PUSH1 0x26 PUSH1 0x24 DUP3 ADD MSTORE PUSH32 0x45524332303A207472616E7366657220616D6F756E7420657863656564732062 PUSH1 0x44 DUP3 ADD MSTORE PUSH6 0x616C616E6365 PUSH1 0xD0 SHL PUSH1 0x64 DUP3 ADD MSTORE PUSH1 0x84 SWAP1 REVERT JUMPDEST PUSH2 0x990 PUSH2 0x986 PUSH2 0x980 PUSH32 0xDDF252AD1BE2C89B69C2B068FC378DAA952BA7F163C4A11628F55A4DF523B3EF SWAP4 PUSH2 0x97B PUSH2 0xBBF DUP8 PUSH1 0x0 PUSH2 0xB95 PUSH2 0xB85 PUSH2 0xB69 DUP4 PUSH2 0x680 JUMP JUMPDEST PUSH2 0x7F7 PUSH2 0xB75 DUP3 PUSH2 0x1A1 JUMP JUMPDEST PUSH2 0xB7E DUP11 PUSH2 0x1A1 JUMP JUMPDEST EQ ISZERO PUSH2 0xA19 JUMP JUMPDEST PUSH2 0xB8E DUP5 PUSH2 0x1A1 JUMP JUMPDEST EQ ISZERO PUSH2 0xA73 JUMP JUMPDEST PUSH2 0x772 PUSH2 0xBB5 DUP13 PUSH2 0xBA9 PUSH2 0x65E DUP10 DUP7 PUSH2 0x62F JUMP JUMPDEST PUSH2 0x748 DUP3 DUP3 LT ISZERO PUSH2 0xACB JUMP JUMPDEST PUSH2 0x976 DUP8 DUP5 PUSH2 0x62F JUMP JUMPDEST PUSH2 0xBCC DUP10 PUSH2 0x15E DUP4 PUSH2 0x57B JUMP JUMPDEST SWAP1 PUSH2 0x8E1 JUMP JUMPDEST ISZERO PUSH2 0xBD9 JUMPI JUMP JUMPDEST PUSH1 0x40 MLOAD PUSH3 0x461BCD PUSH1 0xE5 SHL DUP2 MSTORE DUP1 PUSH2 0x724 PUSH1 0x4 DUP3 ADD PUSH1 0x20 DUP1 DUP3 MSTORE DUP2 DUP2 ADD MSTORE PUSH32 0x4F776E61626C653A2063616C6C6572206973206E6F7420746865206F776E6572 PUSH1 0x40 DUP3 ADD MSTORE PUSH1 0x60 ADD SWAP1 JUMP JUMPDEST PUSH2 0x1CA PUSH2 0xC2D PUSH2 0x6B6 JUMP JUMPDEST PUSH2 0xC3F PUSH2 0xC39 CALLER PUSH2 0x1A1 JUMP JUMPDEST SWAP2 PUSH2 0x1A1 JUMP JUMPDEST EQ PUSH2 0xBD2 JUMP JUMPDEST SWAP1 PUSH1 0x1 PUSH1 0x1 PUSH1 0xA0 SHL SUB SWAP1 PUSH2 0x8CA JUMP JUMPDEST SWAP1 PUSH2 0xC64 PUSH2 0x173 PUSH2 0x8F8 SWAP3 PUSH2 0x626 JUMP JUMPDEST DUP3 SLOAD PUSH2 0xC45 JUMP JUMPDEST PUSH2 0xC8C PUSH2 0xC86 PUSH2 0xC7B PUSH1 0x5 PUSH2 0x6AC JUMP JUMPDEST PUSH2 0x97B DUP5 PUSH1 0x5 PUSH2 0xC54 JUMP JUMPDEST SWAP2 PUSH2 0x626 JUMP JUMPDEST SWAP1 PUSH32 0x8BE0079C531659141344CD1FD0A4F28419497F9722A3DAAFE3B4186F6B6457E0 PUSH2 0xCB7 PUSH1 0x40 MLOAD SWAP1 JUMP JUMPDEST DUP1 DUP1 PUSH2 0x990 JUMP INVALID LOG2 PUSH5 0x6970667358 0x22 SLT KECCAK256 CREATE 0x2A 0x5D 0xAC 0x4A 0x27 0xC5 PUSH29 0xDF93BA8F9D4C9C963DBF516AF34752737645547A12F84A7264736F6C63 NUMBER STOP ADDMOD AND STOP CALLER "},"methodIdentifiers":{"allowance(address,address)":"dd62ed3e","approve(address,uint256)":"095ea7b3","balanceOf(address)":"70a08231","decimals()":"313ce567","decreaseAllowance(address,uint256)":"a457c2d7","increaseAllowance(address,uint256)":"39509351","name()":"06fdde03","owner()":"8da5cb5b","renounceOwnership()":"715018a6","symbol()":"95d89b41","totalSupply()":"18160ddd","transfer(address,uint256)":"a9059cbb","transferFrom(address,address,uint256)":"23b872dd","transferOwnership(address)":"f2fde38b"}}}}}