{"src/contracts/V4DistributionModule.sol":{"V4DistributionModule":{"abi":[{"inputs":[],"stateMutability":"nonpayable","type":"constructor"},{"anonymous":false,"inputs":[{"indexed":true,"internalType":"address","name":"wallet","type":"address"},{"indexed":false,"internalType":"uint256","name":"amount","type":"uint256"},{"indexed":false,"internalType":"string","name":"label","type":"string"},{"indexed":false,"internalType":"bool","name":"locked","type":"bool"},{"indexed":false,"internalType":"uint256","name":"unlockTime","type":"uint256"}],"name":"AllocationAdded","type":"event"},{"anonymous":false,"inputs":[{"indexed":true,"internalType":"address","name":"wallet","type":"address"},{"indexed":false,"internalType":"uint256","name":"amount","type":"uint256"},{"indexed":false,"internalType":"string","name":"label","type":"string"},{"indexed":false,"internalType":"bool","name":"locked","type":"bool"},{"indexed":false,"internalType":"uint256","name":"unlockTime","type":"uint256"}],"name":"AllocationModified","type":"event"},{"anonymous":false,"inputs":[{"indexed":true,"internalType":"address","name":"wallet","type":"address"}],"name":"AllocationRemoved","type":"event"},{"anonymous":false,"inputs":[{"indexed":false,"internalType":"uint256","name":"totalDistributed","type":"uint256"},{"indexed":false,"internalType":"uint256","name":"walletCount","type":"uint256"}],"name":"DistributionExecuted","type":"event"},{"anonymous":false,"inputs":[{"indexed":false,"internalType":"uint8","name":"version","type":"uint8"}],"name":"Initialized","type":"event"},{"anonymous":false,"inputs":[{"indexed":true,"internalType":"address","name":"previousOwner","type":"address"},{"indexed":true,"internalType":"address","name":"newOwner","type":"address"}],"name":"OwnershipTransferred","type":"event"},{"anonymous":false,"inputs":[{"indexed":true,"internalType":"uint256","name":"presetId","type":"uint256"},{"indexed":false,"internalType":"uint256","name":"totalSupply","type":"uint256"}],"name":"PresetApplied","type":"event"},{"anonymous":false,"inputs":[{"indexed":true,"internalType":"address","name":"wallet","type":"address"},{"indexed":false,"internalType":"uint256","name":"amount","type":"uint256"}],"name":"TokensUnlocked","type":"event"},{"inputs":[],"name":"VERSION","outputs":[{"internalType":"string","name":"","type":"string"}],"stateMutability":"view","type":"function"},{"inputs":[{"internalType":"address","name":"wallet","type":"address"},{"internalType":"uint256","name":"amount","type":"uint256"},{"internalType":"string","name":"label","type":"string"},{"internalType":"bool","name":"locked","type":"bool"},{"internalType":"uint256","name":"unlockTime","type":"uint256"}],"name":"addAllocation","outputs":[{"internalType":"bool","name":"success","type":"bool"}],"stateMutability":"nonpayable","type":"function"},{"inputs":[{"internalType":"address[]","name":"wallets","type":"address[]"},{"internalType":"uint256[]","name":"amounts","type":"uint256[]"},{"internalType":"string[]","name":"labels","type":"string[]"},{"internalType":"bool[]","name":"lockStatus","type":"bool[]"},{"internalType":"uint256[]","name":"unlockTimes","type":"uint256[]"}],"name":"addMultipleAllocations","outputs":[{"internalType":"bool","name":"success","type":"bool"}],"stateMutability":"nonpayable","type":"function"},{"inputs":[{"internalType":"uint256","name":"presetId","type":"uint256"},{"internalType":"uint256","name":"totalSupply","type":"uint256"}],"name":"applyPreset","outputs":[{"internalType":"bool","name":"success","type":"bool"}],"stateMutability":"nonpayable","type":"function"},{"inputs":[],"name":"executeDistribution","outputs":[{"internalType":"bool","name":"success","type":"bool"}],"stateMutability":"nonpayable","type":"function"},{"inputs":[],"name":"getAllAllocations","outputs":[{"components":[{"internalType":"address","name":"wallet","type":"address"},{"internalType":"uint256","name":"amount","type":"uint256"},{"internalType":"string","name":"label","type":"string"},{"internalType":"bool","name":"locked","type":"bool"},{"internalType":"uint256","name":"unlockTime","type":"uint256"}],"internalType":"struct IV4DistributionModule.Allocation[]","name":"allocations","type":"tuple[]"}],"stateMutability":"view","type":"function"},{"inputs":[{"internalType":"address","name":"wallet","type":"address"}],"name":"getAllocation","outputs":[{"components":[{"internalType":"address","name":"wallet","type":"address"},{"internalType":"uint256","name":"amount","type":"uint256"},{"internalType":"string","name":"label","type":"string"},{"internalType":"bool","name":"locked","type":"bool"},{"internalType":"uint256","name":"unlockTime","type":"uint256"}],"internalType":"struct IV4DistributionModule.Allocation","name":"allocation","type":"tuple"}],"stateMutability":"view","type":"function"},{"inputs":[],"name":"getAvailablePresets","outputs":[{"internalType":"uint256[]","name":"presetIds","type":"uint256[]"},{"internalType":"string[]","name":"presetNames","type":"string[]"}],"stateMutability":"view","type":"function"},{"inputs":[],"name":"getModuleType","outputs":[{"internalType":"bytes32","name":"moduleType","type":"bytes32"}],"stateMutability":"pure","type":"function"},{"inputs":[{"internalType":"uint256","name":"presetId","type":"uint256"}],"name":"getPresetDetails","outputs":[{"internalType":"uint256[]","name":"walletRatios","type":"uint256[]"},{"internalType":"string[]","name":"labels","type":"string[]"}],"stateMutability":"view","type":"function"},{"inputs":[],"name":"getToken","outputs":[{"internalType":"address","name":"tokenAddress","type":"address"}],"stateMutability":"view","type":"function"},{"inputs":[{"internalType":"address","name":"tokenAddress","type":"address"},{"internalType":"address","name":"owner","type":"address"}],"name":"initialize","outputs":[],"stateMutability":"nonpayable","type":"function"},{"inputs":[{"internalType":"address","name":"tokenAddress","type":"address"},{"internalType":"bytes","name":"data","type":"bytes"}],"name":"initialize","outputs":[],"stateMutability":"nonpayable","type":"function"},{"inputs":[{"internalType":"address","name":"wallet","type":"address"},{"internalType":"uint256","name":"amount","type":"uint256"},{"internalType":"string","name":"label","type":"string"},{"internalType":"bool","name":"locked","type":"bool"},{"internalType":"uint256","name":"unlockTime","type":"uint256"}],"name":"modifyAllocation","outputs":[{"internalType":"bool","name":"success","type":"bool"}],"stateMutability":"nonpayable","type":"function"},{"inputs":[],"name":"owner","outputs":[{"internalType":"address","name":"","type":"address"}],"stateMutability":"view","type":"function"},{"inputs":[{"internalType":"address","name":"wallet","type":"address"}],"name":"removeAllocation","outputs":[{"internalType":"bool","name":"success","type":"bool"}],"stateMutability":"nonpayable","type":"function"},{"inputs":[],"name":"renounceOwnership","outputs":[],"stateMutability":"nonpayable","type":"function"},{"inputs":[{"internalType":"bytes4","name":"functionSig","type":"bytes4"}],"name":"supportsFunction","outputs":[{"internalType":"bool","name":"hasFunction","type":"bool"}],"stateMutability":"pure","type":"function"},{"inputs":[{"internalType":"address","name":"newOwner","type":"address"}],"name":"transferOwnership","outputs":[],"stateMutability":"nonpayable","type":"function"},{"inputs":[{"internalType":"address","name":"wallet","type":"address"}],"name":"unlockTokens","outputs":[{"internalType":"bool","name":"success","type":"bool"}],"stateMutability":"nonpayable","type":"function"}],"devdoc":{"details":"Implementation of distribution module with allocation capabilities","events":{"Initialized(uint8)":{"details":"Triggered when the contract has been initialized or reinitialized."}},"kind":"dev","methods":{"addAllocation(address,uint256,string,bool,uint256)":{"details":"Add a new allocation","params":{"amount":"Amount of tokens to allocate","label":"Optional label for this allocation (e.g. \"Team\", \"Marketing\")","locked":"Whether the allocation should be time-locked","unlockTime":"Timestamp when tokens become unlocked (0 if not locked)","wallet":"Recipient wallet address"},"returns":{"success":"Whether the allocation was successfully added"}},"addMultipleAllocations(address[],uint256[],string[],bool[],uint256[])":{"details":"Add multiple allocations at once","params":{"amounts":"Array of token amounts","labels":"Array of labels","lockStatus":"Array of lock statuses","unlockTimes":"Array of unlock times","wallets":"Array of recipient wallet addresses"},"returns":{"success":"Whether all allocations were successfully added"}},"applyPreset(uint256,uint256)":{"details":"Apply a preset distribution","params":{"presetId":"Identifier for the distribution preset","totalSupply":"Total supply to distribute"},"returns":{"success":"Whether the preset was successfully applied"}},"constructor":{"details":"Constructor that disables initialization on the implementation contract"},"executeDistribution()":{"details":"Execute the distribution","returns":{"success":"Whether the distribution was successfully executed"}},"getAllAllocations()":{"details":"Get all allocations","returns":{"allocations":"Array of allocation details"}},"getAllocation(address)":{"details":"Get allocation for a specific wallet","params":{"wallet":"Recipient wallet address"},"returns":{"allocation":"The allocation details"}},"getAvailablePresets()":{"details":"Get available presets","returns":{"presetIds":"Array of preset IDs","presetNames":"Array of preset names"}},"getModuleType()":{"details":"Get the type of this module","returns":{"moduleType":"Type identifier for this module"}},"getPresetDetails(uint256)":{"details":"Get preset details","params":{"presetId":"Identifier for the preset"},"returns":{"labels":"Array of labels for the wallet types","walletRatios":"Array of ratios for different wallet types"}},"getToken()":{"details":"Get the token this module is attached to","returns":{"tokenAddress":"Address of the token"}},"initialize(address,address)":{"details":"Initialize the distribution module","params":{"owner":"Address of the initial owner","tokenAddress":"Address of the token this module is attached to"}},"initialize(address,bytes)":{"details":"Initialize the module","params":{"data":"Additional initialization data (owner address)","tokenAddress":"Address of the token this module is attached to"}},"modifyAllocation(address,uint256,string,bool,uint256)":{"details":"Modify an existing allocation","params":{"amount":"New amount of tokens","label":"New label","locked":"New lock status","unlockTime":"New unlock time","wallet":"Recipient wallet address"},"returns":{"success":"Whether the allocation was successfully modified"}},"owner()":{"details":"Returns the address of the current owner."},"removeAllocation(address)":{"details":"Remove an allocation","params":{"wallet":"Recipient wallet address to remove"},"returns":{"success":"Whether the allocation was successfully removed"}},"renounceOwnership()":{"details":"Leaves the contract without owner. It will not be possible to call `onlyOwner` functions. Can only be called by the current owner. NOTE: Renouncing ownership will leave the contract without an owner, thereby disabling any functionality that is only available to the owner."},"supportsFunction(bytes4)":{"details":"Check if this module has a specific function","params":{"functionSig":"Function signature to check for"},"returns":{"hasFunction":"Whether the module implements the function"}},"transferOwnership(address)":{"details":"Transfers ownership of the contract to a new account (`newOwner`). Can only be called by the current owner."},"unlockTokens(address)":{"details":"Unlock tokens for a wallet if the unlock time has passed","params":{"wallet":"Address of the wallet to unlock tokens for"},"returns":{"success":"Whether the tokens were successfully unlocked"}}},"title":"V4DistributionModule","version":1},"evm":{"bytecode":{"linkReferences":{},"object":"60808060405234620000c6576000549060ff8260081c1662000074575060ff8082160362000038575b604051615bdc9081620000cc8239f35b60ff90811916176000557f7f26b83ff96e1f2b6a682f133852f6798a09c465da95921460cefb3847402498602060405160ff8152a13862000028565b62461bcd60e51b815260206004820152602760248201527f496e697469616c697a61626c653a20636f6e747261637420697320696e697469604482015266616c697a696e6760c81b6064820152608490fd5b600080fdfe61022080604052600436101561001457600080fd5b60003560e01c9081630b9349b914614a75575080630e022923146149bd5780631ca00f621461485f57806321df0da714614836578063230c8a0e1461435e57806335b50f521461426d578063485cc95514612d65578063715018a614612d08578063862c19c814612abb5780638da5cb5b14612a925780639a7127a214612912578063a8a4b4c014612665578063be46446414612534578063c58156e014612472578063cb67f948146121ca578063cc6becc814611c2d578063d1f5789414610419578063f2fde38b1461038a578063ff0ed1141461014b5763ffa1ad74146100fc57600080fd5b346101465760003660031901126101465761014260405161011c81614cf3565b60058152640342e302e360dc1b6020820152604051918291602083526020830190614ae7565b0390f35b600080fd5b3461014657600036600319011261014657610164615686565b606a5460ff9061017760ff821615614f12565b60665491821561032a576001809260ff191617606a5560005b8381106101d5577f219b165c65b7e1a5744d1a2543bb34326ac29d73e03bdac1abc7290ccd6c26106040856069549082519182526020820152a1602060405160018152f35b806000846101e38294614fda565b9054600391821b1c6001600160a01b0390811680855260686020908152604086209384015490939190891686146102ba5750909201546040516340c10f1960e01b9281019290925230602483015260448201526102729161025182606481015b03601f198101845283614d45565b606554169060405195868094819362ac0f6f60e71b83528560048401615664565b03925af19182156102ae57849261028c575b505b01610190565b6102a8903d806000833e6102a08183614d45565b8101906155f2565b50610284565b6040513d6000823e3d90fd5b9301546040516340c10f1960e01b938101939093526001600160a01b03909316602483015260448201929092526102f8916102518260648101610243565b03925af19182156102ae578492610310575b50610286565b610324903d806000833e6102a08183614d45565b5061030a565b60405162461bcd60e51b815260206004820152603260248201527f5634446973747269627574696f6e4d6f64756c653a206e6f20616c6c6f636174604482015271696f6e7320746f206469737472696275746560701b6064820152608490fd5b34610146576020366003190112610146576103a3614aae565b6103ab615686565b6001600160a01b038116156103c5576103c39061573e565b005b60405162461bcd60e51b815260206004820152602660248201527f4f776e61626c653a206e6577206f776e657220697320746865207a65726f206160448201526564647265737360d01b6064820152608490fd5b3461014657604036600319011261014657610432614aae565b6024356001600160401b03811161014657610451903690600401614bee565b906000549260ff91828560081c161594858096611c21575b8015611c0b575b610479906151aa565b60ff198181166001176000559086611bf9575b5060208503611b9a5760019461050b92359060208110611b88575b506104fc868060a01b0395869360005490828260081c1615998a91829b8c93611b7d575b8015611b68575b6104db906151aa565b831617600055611b56575b5060005460081c166104f7816156de565b6156de565b6105053361573e565b1661573e565b168015611af6576001600160601b0360a01b606554161760655560405161053181614cd8565b6005815260a036602083013761054561543e565b6040519161055283614cbd565b60405161055e81614cf3565b600c81526b5374616e646172642049434f60a01b6020820152835260208301526040820152600160608201526001600052606b60205260406000209080518051906001600160401b038211611501576105c1826105bb8654614e17565b86615165565b602090601f8311600114611a8a576105f292916000918361157e575b50508160011b916000199060031b1c19161790565b82555b60208101518051906001600160401b03821161150157600160401b8211611501576020906001850154836001870155808410611a6a575b500160018401600052602060002060005b838110611a5657505050506040810151805190600160401b8211611501576002840154826002860155808310611a23575b5060200190600284016000526020600020916000905b82821061194b5787876106ad88600360608a0151151591019060ff801983541691151516179055565b6001600052606b6020526106ea6106d1600080516020615b27833981519152615011565b819291549060031b906032821b91600019901b19161790565b90556001600052606b602052610729610710600080516020615b27833981519152615026565b819291549060031b906014821b91600019901b19161790565b90556001600052606b60205261076861074f600080516020615b27833981519152615041565b819291549060031b90600f821b91600019901b19161790565b90556001600052606b6020526107a761078e600080516020615b2783398151915261505c565b819291549060031b90600a821b91600019901b19161790565b90556001600052606b6020526107e66107cd600080516020615b27833981519152615077565b819291549060031b906005821b91600019901b19161790565b90556001600052606b60205261081261080c600080516020615b87833981519152615011565b90615787565b6001600052606b60205261083c610836600080516020615b87833981519152615026565b906157af565b6001600052606b60205261085d600080516020615b87833981519152615041565b6114025761087461086e8254614e17565b8261513b565b600e665265736572766560c81b0190556001600052606b6020526108ae6108a8600080516020615b8783398151915261505c565b906157d0565b6001600052606b6020526108d86108d2600080516020615b87833981519152615077565b906157f6565b6108e061581b565b6040516108ec81614d0e565b6006815260c0366020830137610900615470565b6040519161090d83614cbd565b60405161091981614cf3565b601181527010dbdb5b5d5b9a5d1e48119bd8dd5cd959607a1b6020820152835260208301526040820152600160608201526002600052606b60205260406000209080518051906001600160401b0382116115015761097b826105bb8654614e17565b602090601f83116001146118df576109ab92916000918361157e5750508160011b916000199060031b1c19161790565b82555b60208101518051906001600160401b03821161150157600160401b82116115015760209060018501548360018701558084106118bf575b500160018401600052602060002060005b8381106118ab57505050506040810151805190600160401b8211611501576002840154826002860155808310611878575b5060200190600284016000526020600020916000905b8282106117a0578787610a6688600360608a0151151591019060ff801983541691151516179055565b6002600052606b602052610aa3610a8a600080516020615aa7833981519152615011565b819291549060031b906028821b91600019901b19161790565b90556002600052606b602052610ac9610710600080516020615aa7833981519152615026565b90556002600052606b602052610aef61074f600080516020615aa7833981519152615041565b90556002600052606b602052610b1561078e600080516020615aa783398151915261505c565b90556002600052606b602052610b3b61078e600080516020615aa7833981519152615077565b90556002600052606b602052610b616107cd600080516020615aa7833981519152615092565b90556002600052606b602052610b84600080516020615b07833981519152615011565b61140257610b9561086e8254614e17565b602270436f6d6d756e697479205265776172647360781b0190556002600052606b602052610bd361080c600080516020615b07833981519152615026565b6002600052606b602052610bf7610836600080516020615b07833981519152615041565b6002600052606b602052610c21610c1b600080516020615b0783398151915261505c565b906158f7565b6002600052606b602052610c456108a8600080516020615b07833981519152615077565b6002600052606b602052610c696108d2600080516020615b07833981519152615092565b610c71615852565b604051610c7d81614d29565b6007815260e0366020830137610c916154a2565b60405191610c9e83614cbd565b604051610caa81614cf3565b600c81526b1119519a48141c9bda9958dd60a21b6020820152835260208301526040820152600160608201526003600052606b60205260406000209080518051906001600160401b03821161150157610d07826105bb8654614e17565b602090601f831160011461173457610d3792916000918361157e5750508160011b916000199060031b1c19161790565b82555b60208101518051906001600160401b03821161150157600160401b8211611501576020906001850154836001870155808410611714575b500160018401600052602060002060005b83811061170057505050506040810151805190600160401b82116115015760028401548260028601558083106116cd575b5060200190600284016000526020600020916000905b8282106115f5578787610df288600360608a0151151591019060ff801983541691151516179055565b6003600052606b602052610e2f610e16600080516020615ac7833981519152615011565b819291549060031b90601e821b91600019901b19161790565b90556003600052606b602052610e6e610e55600080516020615ac7833981519152615026565b819291549060031b906019821b91600019901b19161790565b90556003600052606b602052610e9461074f600080516020615ac7833981519152615041565b90556003600052606b602052610eba61078e600080516020615ac783398151915261505c565b90556003600052606b602052610ee061078e600080516020615ac7833981519152615077565b90556003600052606b602052610f066107cd600080516020615ac7833981519152615092565b90556003600052606b602052610f2c6107cd600080516020615ac78339815191526150ad565b90556003600052606b602052610f4f600080516020615b67833981519152615011565b61140257610f6061086e8254614e17565b6026722634b8bab4b234ba3c90283937bb34b9b4b7b760691b0190556003600052606b602052610f9d600080516020615b67833981519152615026565b61140257610fae61086e8254614e17565b7f436f6d6d756e69747920496e63656e746976657300000000000000000000002890556003600052606b602052610ff5610836600080516020615b67833981519152615041565b6003600052606b60205261101961080c600080516020615b6783398151915261505c565b6003600052606b60205261103d610c1b600080516020615b67833981519152615077565b6003600052606b6020526110616108a8600080516020615b67833981519152615092565b6003600052606b602052611082600080516020615b678339815191526150ad565b6114025761109361086e8254614e17565b60186b506172746e6572736869707360a01b0190556110b0615889565b6040516110bc81614ca2565b6004815260803660208301376110d06154d4565b604051916110dd83614cbd565b6040516110e981614cf3565b601281527122b8bab0b6102234b9ba3934b13aba34b7b760711b6020820152835260208301526040820152600160608201526004600052606b60205260406000209080518051906001600160401b0382116115015761114c826105bb8654614e17565b602090601f83116001146115895761117c92916000918361157e5750508160011b916000199060031b1c19161790565b82555b60208101518051906001600160401b03821161150157600160401b821161150157602090600185015483600187015580841061155e575b500160018401600052602060002060005b83811061154a57505050506040810151805190600160401b8211611501576002840154826002860155808310611517575b5060200190600284016000526020600020916000905b82821061141857878761123788600360608a0151151591019060ff801983541691151516179055565b6004600052606b60205261125b610e55600080516020615a87833981519152615011565b90556004600052606b602052611281610e55600080516020615a87833981519152615026565b90556004600052606b6020526112a7610e55600080516020615a87833981519152615041565b90556004600052606b6020526112cd610e55600080516020615a8783398151915261505c565b90556004600052606b6020526112f0600080516020615b47833981519152615011565b6114025761130161086e8254614e17565b600c655075626c696360d01b0190556004600052606b602052611334610836600080516020615b47833981519152615026565b6004600052606b602052611358610c1b600080516020615b47833981519152615041565b6004600052606b60205261137c6108a8600080516020615b4783398151915261505c565b6113846158c0565b6113c7575b61138f57005b61ff0019600054166000557f7f26b83ff96e1f2b6a682f133852f6798a09c465da95921460cefb3847402498602060405160018152a1005b61ff0019600054166000557f7f26b83ff96e1f2b6a682f133852f6798a09c465da95921460cefb3847402498602060405160018152a1611389565b634e487b7160e01b600052600060045260246000fd5b80518051906001600160401b0382116115015761143f826114398854614e17565b88615165565b602090601f83116001146114915792611477836001959460209487966000926114865750508160011b916000199060031b1c19161790565b87555b0194019101909261120e565b015190508e806105dd565b908660005260206000209160005b601f19851681106114e9575083602093600196938796938794601f198116106114d0575b505050811b01875561147a565b015160001960f88460031b161c191690558d80806114c3565b9192602060018192868501518155019401920161149f565b634e487b7160e01b600052604160045260246000fd5b600285016000526020600020908382015b81830181106115385750506111f8565b80611544600192615513565b01611528565b6001906020845194019381840155016111c7565b611578906001870160005284846000209182019101615124565b876111b6565b0151905087806105dd565b9190846000526020600020906000935b601f19841685106115da576001945083601f198116106115c1575b505050811b01825561117f565b015160001960f88460031b161c191690558680806115b4565b81810151835560209485019460019093019290910190611599565b80518051906001600160401b03821161150157611616826114398854614e17565b602090601f831160011461165d579261164e836001959460209487966000926114865750508160011b916000199060031b1c19161790565b87555b01940191019092610dc9565b908660005260206000209160005b601f19851681106116b5575083602093600196938796938794601f1981161061169c575b505050811b018755611651565b015160001960f88460031b161c191690558d808061168f565b9192602060018192868501518155019401920161166b565b600285016000526020600020908382015b81830181106116ee575050610db3565b806116fa600192615513565b016116de565b600190602084519401938184015501610d82565b61172e906001870160005284846000209182019101615124565b87610d71565b9190846000526020600020906000935b601f1984168510611785576001945083601f1981161061176c575b505050811b018255610d3a565b015160001960f88460031b161c1916905586808061175f565b81810151835560209485019460019093019290910190611744565b80518051906001600160401b038211611501576117c1826114398854614e17565b602090601f831160011461180857926117f9836001959460209487966000926114865750508160011b916000199060031b1c19161790565b87555b01940191019092610a3d565b908660005260206000209160005b601f1985168110611860575083602093600196938796938794601f19811610611847575b505050811b0187556117fc565b015160001960f88460031b161c191690558d808061183a565b91926020600181928685015181550194019201611816565b600285016000526020600020908382015b8183018110611899575050610a27565b806118a5600192615513565b01611889565b6001906020845194019381840155016109f6565b6118d9906001870160005284846000209182019101615124565b876109e5565b9190846000526020600020906000935b601f1984168510611930576001945083601f19811610611917575b505050811b0182556109ae565b015160001960f88460031b161c1916905586808061190a565b818101518355602094850194600190930192909101906118ef565b80518051906001600160401b0382116115015761196c826114398854614e17565b602090601f83116001146119b357926119a4836001959460209487966000926114865750508160011b916000199060031b1c19161790565b87555b01940191019092610684565b908660005260206000209160005b601f1985168110611a0b575083602093600196938796938794601f198116106119f2575b505050811b0187556119a7565b015160001960f88460031b161c191690558d80806119e5565b919260206001819286850151815501940192016119c1565b600285016000526020600020908382015b8183018110611a4457505061066e565b80611a50600192615513565b01611a34565b60019060208451940193818401550161063d565b611a84906001870160005284846000209182019101615124565b8761062c565b9190846000526020600020906000935b601f1984168510611adb576001945083601f19811610611ac2575b505050811b0182556105f5565b015160001960f88460031b161c19169055868080611ab5565b81810151835560209485019460019093019290910190611a9a565b60405162461bcd60e51b815260206004820152603260248201527f5634446973747269627574696f6e4d6f64756c653a20746f6b656e20616464726044820152716573732063616e6e6f74206265207a65726f60701b6064820152608490fd5b61ffff191661010117600055896104e6565b50303b1580156104d2575083851682146104d2565b5081858516106104cb565b6000199060200360031b1b16876104a7565b60405162461bcd60e51b815260206004820152603160248201527f5634446973747269627574696f6e4d6f64756c653a20696e76616c696420696e604482015270697469616c697a6174696f6e206461746160781b6064820152608490fd5b61ffff1916610101176000558661048c565b50303b1580156104705750808416600114610470565b50600184821610610469565b346101465760a0366003190112610146576004356001600160401b03811161014657611c5d903690600401614c72565b61010052610200526024356001600160401b03811161014657611c84903690600401614c72565b610120526101c0526044356001600160401b03811161014657611cab903690600401614c72565b610140526101e0526064356001600160401b03811161014657611cd2903690600401614c72565b6101a05260c0526084356001600160401b03811161014657611cf8903690600401614c72565b6101605261018052611d08615686565b611d1760ff606a541615614f12565b610120516101005114806121bb575b806121ac575b8061219d575b156121415760006080525b6101005160805110611d5457602060405160018152f35b611d8160018060a01b03611d79611d746080516101005161020051615580565b615590565b16151561520d565b611d9f611d97608051610120516101c051615580565b351515615275565b611ddc611dd660018060a01b03611dc2611d746080516101005161020051615580565b166000526067602052604060002054151590565b156152e0565b611df6611df16080516101a05160c051615580565b6155a4565b61211e575b611e11611d746080516101005161020051615580565b611eb1611e27608051610120516101c051615580565b3591611e3c608051610140516101e0516155b1565b9290611e53611df16080516101a05160c051615580565b93611e69611df16080516101a05160c051615580565b1561211657611e816080516101605161018051615580565b35935b60405160a052611e9560a051614ca2565b60018060a01b031660a05152602060a0510195865236916153ba565b91604060a051019283521515606060a0510152608060a051015260018060a01b03611ee8611d746080516101005161020051615580565b16600052606860205260406000209160018060a01b0360a05151166001600160601b0360a01b845416178355516001830155519081516001600160401b03811161150157611f4681611f3d6002850154614e17565b60028501615165565b6020601f82116001146120a1578190611f7693946000926120965750508160011b916000199060031b1c19161790565b60028201555b611f9d606060a05101511515600383019060ff801983541691151516179055565b6004608060a0510151910155611fcf60018060a01b03611fc9611d746080516101005161020051615580565b1661591f565b50611fe3608051610120516101c051615580565b35611ff16069918254615117565b9055612009611d746080516101005161020051615580565b600080516020615ae783398151915261208561202e608051610120516101c051615580565b3592612043608051610140516101e0516155b1565b61205b611df16080959395516101a05160c051615580565b61206e6080516101605161018051615580565b359160405195869560018060a01b031698866153f1565b0390a2600160805101608052611d3d565b0151905084806105dd565b60028301600052602060002060e05260005b601f19831681106120f857506001929382601f198116106120de575b5050811b016002820155611f7c565b015160001960f88360031b161c191660e0515583806120cf565b90602081819287015160e05155600160e0510160e0520191016120b3565b600093611e84565b61213c6121346080516101605161018051615580565b354210615348565b611dfb565b60405162461bcd60e51b815260206004820152602e60248201527f5634446973747269627574696f6e4d6f64756c653a206172726179206c656e6760448201526d0e8d0e640daeae6e840dac2e8c6d60931b6064820152608490fd5b50610160516101005114611d32565b506101a0516101005114611d2c565b50610140516101005114611d26565b3461014657602080600319360112610146576121e4614aae565b60ff606a541615612411576001600160a01b0381811660008181526067602052604090205490929190612218901515614dad565b82600052606884526040600020600381019160ff835416156123b5576004820154421061235a57606554600192909201805460405163a9059cbb60e01b8982019081526001600160a01b03979097166024820152604480820192909252908152909460009384931691839061228e606482614d45565b51925af13d15612355573d6122a281614d66565b906122b06040519283614d45565b81526000863d92013e5b156122fc57805460ff19169055546040519081527fe7b379c6c1fa169e9079c25e9143b127637eef8ec8c9d5c06ddb4ab3e1195888908390a260405160018152f35b60405162461bcd60e51b815260048101859052602b60248201527f5634446973747269627574696f6e4d6f64756c653a20746f6b656e207472616e60448201526a1cd9995c8819985a5b195960aa1b6064820152608490fd5b6122ba565b60405162461bcd60e51b815260048101879052602d60248201527f5634446973747269627574696f6e4d6f64756c653a20746f6b656e732061726560448201526c081cdd1a5b1b081b1bd8dad959609a1b6064820152608490fd5b60405162461bcd60e51b815260048101879052602e60248201527f5634446973747269627574696f6e4d6f64756c653a20616c6c6f636174696f6e60448201526d081a5cc81b9bdd081b1bd8dad95960921b6064820152608490fd5b60405162461bcd60e51b815260048101839052603360248201527f5634446973747269627574696f6e4d6f64756c653a20646973747269627574696044820152721bdb881b9bdd081e595d08195e1958dd5d1959606a1b6064820152608490fd5b3461014657602036600319011261014657602061248d614aae565b612495615686565b6124a460ff606a541615614f12565b6001600160a01b03166000818152606760205260409020546124c7901515614dad565b80600052606882526124e3600160406000200154606954615506565b60695580600052606882526124fb604060002061555c565b6125048161599c565b50604051907f85f179d4205edd87e18c80df3160316df70c87a3c515d0650c32dae6ead80afd600080a260018152f35b346101465760203660031901126101465760043563ffffffff60e01b8116809103610146576020906310c5833960e31b8114908115612654575b8115612643575b8115612632575b8115612621575b8115612610575b81156125ff575b81156125ee575b81156125dd575b81156125c9575b81156125b8575b506040519015158152f35b63196cff2960e31b149050826125ad565b6001623c4bbb60e21b0319811491506125a6565b631ada87a960e11b8114915061259f565b634d3893d160e11b81149150612598565b630e02292360e01b81149150612591565b630e5007b160e11b8114915061258a565b6302a292d360e61b81149150612583565b63062c0ab760e51b8114915061257c565b631186450760e11b81149150612575565b63198d7d9960e31b8114915061256e565b346101465761267336614c1b565b9061267f959295615686565b61268e60ff606a541615614f12565b6001600160a01b0383166000908152606760205260409020546126b2901515614dad565b806126be861515615275565b612902575b6126f2856126ed60695460018060a01b038716600052606860205260016040600020015490615506565b615117565b60695580156128fa5781955b6040519661270b88614ca2565b6001600160a01b0385168852602088018781529061272a3684896153ba565b9060408a0191825284151560608b015260808a015260018060a01b038616600052606860205260406000209160018060a01b038a51166001600160601b0360a01b845416178355516001830155519788516001600160401b038111611501576127a38161279a6002860154614e17565b60028601615165565b6020601f821160011461285d576128449695949392612801836004946080947fa3c835fcd4d2b819d5e8f590f6b36f796e7b73652831d08cfca45f22a6d43b7b9e9f6000926128525750508160011b916000199060031b1c19161790565b60028501555b61282660608201511515600386019060ff801983541691151516179055565b01519101556040516001600160a01b039095169794958695866153f1565b0390a2602060405160018152f35b015190508f806105dd565b6002840160005260206000209a60005b601f19841681106128e25750926001837fa3c835fcd4d2b819d5e8f590f6b36f796e7b73652831d08cfca45f22a6d43b7b9c9d6080946128449b9a999897600497601f198116106128c9575b505050811b016002850155612807565b015160001960f88460031b161c191690558e80806128b9565b828201518d556001909c019b6020928301920161286d565b6000956126fe565b61290d428311615348565b6126c3565b3461014657600036600319011261014657600080606c54905b818110612a4e575061293c82614ee7565b9061294a6040519283614d45565b82825261295683614ee7565b602090601f19908101368584013761298661297086614ee7565b9561297e6040519788614d45565b808752614ee7565b018160005b828110612a3e575050506000805b8381106129af5760405180610142888883614b54565b6129b8816150c8565b9054600391821b1c8060005260ff606b9283875260406000200154166129e3575b5050600101612999565b92612a369184600194956129f7848b614efe565b526000528552612a14612a1b604060002060405192838092614e51565b0382614d45565b612a25828a614efe565b52612a308189614efe565b5061542f565b9190876129d9565b606082828901015201829061298b565b60ff612a59826150c8565b9054600391821b1c600052606b6020526040600020015416612a7e575b60010161292b565b91612a8a60019161542f565b929050612a76565b34610146576000366003190112610146576033546040516001600160a01b039091168152602090f35b3461014657612ac936614c1b565b90612ad695929395615686565b612ae560ff606a541615614f12565b6001600160a01b0393612afb848616151561520d565b612b06861515615275565b81612b23611dd68787166000526067602052604060002054151590565b612cf8575b8115612cf05782965b60405197612b3e89614ca2565b86861689526020890190888252612b563685856153ba565b9060408b0191825285151560608c015260808b01528787166000526068602052604060002091888b51166001600160601b0360a01b845416178355516001830155519889516001600160401b03811161150157612bba8161279a6002860154614e17565b60209a601f8211600114612c6657612844979695949392612c0883600494600080516020615ae78339815191529e9f608095600092612c5b5750508160011b916000199060031b1c19161790565b60028501555b612c2d60608201511515600386019060ff801983541691151516179055565b0151910155612c3d87871661591f565b50612c4a89606954615117565b6069556040519687961698866153f1565b0151905038806105dd565b601f198216906002850160005260206000209160005b818110612cd8575083608093600080516020615ae78339815191529e9f6128449c9b9a9998979460049760019510612cbf575b505050811b016002850155612c0e565b015160001960f88460031b161c191690558f8080612caf565b828f0151845560209e8f019e60019094019301612c7c565b600096612b31565b612d03428411615348565b612b28565b3461014657600036600319011261014657612d21615686565b603380546001600160a01b031981169091556000906001600160a01b03167f8be0079c531659141344cd1fd0a4f28419497f9722a3daafe3b4186f6b6457e08280a3005b3461014657604036600319011261014657612d7e614aae565b602435906001600160a01b0390818316830361014657612df16000549360ff8560081c161594858096614260575b8015614249575b612dbc906151aa565b60ff19811660011760005585614237575b50612de360ff60005460081c166104f7816156de565b612dec3361573e565b61573e565b168015611af6576001600160601b0360a01b606554161760655560405190612e1882614cd8565b6005825260a0366020840137612e2c61543e565b60405192612e3984614cbd565b604051612e4581614cf3565b600c81526b5374616e646172642049434f60a01b6020820152845260208401526040830152600160608301526001600052606b602052604060002082519283516001600160401b03811161150157612ea781612ea18554614e17565b85615165565b6020601f82116001146141ce578190612ed993949596600092613ccb5750508160011b916000199060031b1c19161790565b82555b60208101518051906001600160401b03821161150157600160401b82116115015760209060018501548360018701558084106141ae575b500160018401600052602060002060005b83811061419a57505050506040810151805190600160401b8211611501576002840154826002860155808310614167575b5060200190600284016000526020600020916000905b82821061408f5786612f938760036060890151151591019060ff801983541691151516179055565b6001600052606b602052612fb76106d1600080516020615b27833981519152615011565b90556001600052606b602052612fdd610710600080516020615b27833981519152615026565b90556001600052606b60205261300361074f600080516020615b27833981519152615041565b90556001600052606b60205261302961078e600080516020615b2783398151915261505c565b90556001600052606b60205261304f6107cd600080516020615b27833981519152615077565b90556001600052606b60205261307561080c600080516020615b87833981519152615011565b6001600052606b602052613099610836600080516020615b87833981519152615026565b6001600052606b6020526130ba600080516020615b87833981519152615041565b611402576130cb61086e8254614e17565b600e665265736572766560c81b0190556001600052606b6020526130ff6108a8600080516020615b8783398151915261505c565b6001600052606b6020526131236108d2600080516020615b87833981519152615077565b61312b61581b565b6040519061313882614d0e565b6006825260c036602084013761314c615470565b6040519261315984614cbd565b60405161316581614cf3565b601181527010dbdb5b5d5b9a5d1e48119bd8dd5cd959607a1b6020820152845260208401526040830152600160608301526002600052606b602052604060002082519283516001600160401b038111611501576131c681612ea18554614e17565b6020601f82116001146140265781906131f893949596600092613ccb5750508160011b916000199060031b1c19161790565b82555b60208101518051906001600160401b03821161150157600160401b8211611501576020906001850154836001870155808410614006575b500160018401600052602060002060005b838110613ff257505050506040810151805190600160401b8211611501576002840154826002860155808310613fbf575b5060200190600284016000526020600020916000905b828210613ee757866132b28760036060890151151591019060ff801983541691151516179055565b6002600052606b6020526132d6610a8a600080516020615aa7833981519152615011565b90556002600052606b6020526132fc610710600080516020615aa7833981519152615026565b90556002600052606b60205261332261074f600080516020615aa7833981519152615041565b90556002600052606b60205261334861078e600080516020615aa783398151915261505c565b90556002600052606b60205261336e61078e600080516020615aa7833981519152615077565b90556002600052606b6020526133946107cd600080516020615aa7833981519152615092565b90556002600052606b6020526133b7600080516020615b07833981519152615011565b611402576133c861086e8254614e17565b602270436f6d6d756e697479205265776172647360781b0190556002600052606b60205261340661080c600080516020615b07833981519152615026565b6002600052606b60205261342a610836600080516020615b07833981519152615041565b6002600052606b60205261344e610c1b600080516020615b0783398151915261505c565b6002600052606b6020526134726108a8600080516020615b07833981519152615077565b6002600052606b6020526134966108d2600080516020615b07833981519152615092565b61349e615852565b604051906134ab82614d29565b6007825260e03660208401376134bf6154a2565b604051926134cc84614cbd565b6040516134d881614cf3565b600c81526b1119519a48141c9bda9958dd60a21b6020820152845260208401526040830152600160608301526003600052606b602052604060002082519283516001600160401b0381116115015761353481612ea18554614e17565b6020601f8211600114613e7e57819061356693949596600092613ccb5750508160011b916000199060031b1c19161790565b82555b60208101518051906001600160401b03821161150157600160401b8211611501576020906001850154836001870155808410613e5e575b500160018401600052602060002060005b838110613e4a57505050506040810151805190600160401b8211611501576002840154826002860155808310613e17575b5060200190600284016000526020600020916000905b828210613d3f57866136208760036060890151151591019060ff801983541691151516179055565b6003600052606b602052613644610e16600080516020615ac7833981519152615011565b90556003600052606b60205261366a610e55600080516020615ac7833981519152615026565b90556003600052606b60205261369061074f600080516020615ac7833981519152615041565b90556003600052606b6020526136b661078e600080516020615ac783398151915261505c565b90556003600052606b6020526136dc61078e600080516020615ac7833981519152615077565b90556003600052606b6020526137026107cd600080516020615ac7833981519152615092565b90556003600052606b6020526137286107cd600080516020615ac78339815191526150ad565b90556003600052606b60205261374b600080516020615b67833981519152615011565b6114025761375c61086e8254614e17565b6026722634b8bab4b234ba3c90283937bb34b9b4b7b760691b0190556003600052606b602052613799600080516020615b67833981519152615026565b611402576137aa61086e8254614e17565b7f436f6d6d756e69747920496e63656e746976657300000000000000000000002890556003600052606b6020526137f1610836600080516020615b67833981519152615041565b6003600052606b60205261381561080c600080516020615b6783398151915261505c565b6003600052606b602052613839610c1b600080516020615b67833981519152615077565b6003600052606b60205261385d6108a8600080516020615b67833981519152615092565b6003600052606b60205261387e600080516020615b678339815191526150ad565b6114025761388f61086e8254614e17565b60186b506172746e6572736869707360a01b0190556138ac615889565b604051906138b982614ca2565b6004825260803660208401376138cd6154d4565b604051926138da84614cbd565b6040516138e681614cf3565b601281527122b8bab0b6102234b9ba3934b13aba34b7b760711b6020820152845260208401526040830152600160608301526004600052606b602052604060002082519283516001600160401b0381116115015761394881612ea18554614e17565b6020601f8211600114613cd657819061397a93949596600092613ccb5750508160011b916000199060031b1c19161790565b82555b60208101518051906001600160401b03821161150157600160401b8211611501576020906001850154836001870155808410613cab575b500160018401600052602060002060005b838110613c9757505050506040810151805190600160401b8211611501576002840154826002860155808310613c64575b5060200190600284016000526020600020916000905b828210613b815786613a348760036060890151151591019060ff801983541691151516179055565b6004600052606b602052613a58610e55600080516020615a87833981519152615011565b90556004600052606b602052613a7e610e55600080516020615a87833981519152615026565b90556004600052606b602052613aa4610e55600080516020615a87833981519152615041565b90556004600052606b602052613aca610e55600080516020615a8783398151915261505c565b90556004600052606b602052613aed600080516020615b47833981519152615011565b61140257613afe61086e8254614e17565b600c655075626c696360d01b0190556004600052606b602052613b31610836600080516020615b47833981519152615026565b6004600052606b602052613b55610c1b600080516020615b47833981519152615041565b6004600052606b602052613b796108a8600080516020615b4783398151915261505c565b6113896158c0565b80518051906001600160401b03821161150157613ba2826114398854614e17565b602090601f8311600114613bf45792613bda83600195946020948796600092613be95750508160011b916000199060031b1c19161790565b87555b01940191019092613a0c565b015190508d806105dd565b908660005260206000209160005b601f1985168110613c4c575083602093600196938796938794601f19811610613c33575b505050811b018755613bdd565b015160001960f88460031b161c191690558c8080613c26565b91926020600181928685015181550194019201613c02565b600285016000526020600020908382015b8183018110613c855750506139f6565b80613c91600192615513565b01613c75565b6001906020845194019381840155016139c5565b613cc5906001870160005284846000209182019101615124565b866139b4565b0151905086806105dd565b8360005260206000209060005b601f1984168110613d27575060019394959683601f19811610613d0e575b505050811b01825561397d565b015160001960f88460031b161c19169055858080613d01565b9091602060018192858b015181550193019101613ce3565b80518051906001600160401b03821161150157613d60826114398854614e17565b602090601f8311600114613da75792613d9883600195946020948796600092613be95750508160011b916000199060031b1c19161790565b87555b019401910190926135f8565b908660005260206000209160005b601f1985168110613dff575083602093600196938796938794601f19811610613de6575b505050811b018755613d9b565b015160001960f88460031b161c191690558c8080613dd9565b91926020600181928685015181550194019201613db5565b600285016000526020600020908382015b8183018110613e385750506135e2565b80613e44600192615513565b01613e28565b6001906020845194019381840155016135b1565b613e78906001870160005284846000209182019101615124565b866135a0565b8360005260206000209060005b601f1984168110613ecf575060019394959683601f19811610613eb6575b505050811b018255613569565b015160001960f88460031b161c19169055858080613ea9565b9091602060018192858b015181550193019101613e8b565b80518051906001600160401b03821161150157613f08826114398854614e17565b602090601f8311600114613f4f5792613f4083600195946020948796600092613be95750508160011b916000199060031b1c19161790565b87555b0194019101909261328a565b908660005260206000209160005b601f1985168110613fa7575083602093600196938796938794601f19811610613f8e575b505050811b018755613f43565b015160001960f88460031b161c191690558c8080613f81565b91926020600181928685015181550194019201613f5d565b600285016000526020600020908382015b8183018110613fe0575050613274565b80613fec600192615513565b01613fd0565b600190602084519401938184015501613243565b614020906001870160005284846000209182019101615124565b86613232565b8360005260206000209060005b601f1984168110614077575060019394959683601f1981161061405e575b505050811b0182556131fb565b015160001960f88460031b161c19169055858080614051565b9091602060018192858b015181550193019101614033565b80518051906001600160401b038211611501576140b0826114398854614e17565b602090601f83116001146140f757926140e883600195946020948796600092613be95750508160011b916000199060031b1c19161790565b87555b01940191019092612f6b565b908660005260206000209160005b601f198516811061414f575083602093600196938796938794601f19811610614136575b505050811b0187556140eb565b015160001960f88460031b161c191690558c8080614129565b91926020600181928685015181550194019201614105565b600285016000526020600020908382015b8183018110614188575050612f55565b80614194600192615513565b01614178565b600190602084519401938184015501612f24565b6141c8906001870160005284846000209182019101615124565b86612f13565b8360005260206000209060005b601f198416811061421f575060019394959683601f19811610614206575b505050811b018255612edc565b015160001960f88460031b161c191690558580806141f9565b9091602060018192858b0151815501930191016141db565b61ffff19166101011760005585612dcd565b50303b158015612db3575060ff8116600114612db3565b50600160ff821610612dac565b34610146576020806003193601126101465760043580600052606b825261429e60ff60036040600020015416614f7a565b600052606b8152604060002060016002600183019201604051808486829654938481520190600052866000209260005b868983831061434957505050506142e792500384614d45565b8054906142f382614ee7565b946143016040519687614d45565b82865260009182528082208187015b84841061432657604051806101428a8a83614b54565b8583819260405161433b81612a148189614e51565b815201920193019290614310565b865485529581019589955090930192016142ce565b3461014657604036600319011261014657614377615686565b61438660ff606a541615614f12565b600435600052606b6020526143a560ff60036040600020015416614f7a565b606680549060005b8281106147a2576000606955600435600052606b6020526040600020600090600060018201545b808210614779575050811561470e5760005b60018201548110156146d3576143ff81600184016150ff565b90549060031b1c156146cb5761441881600184016150ff565b90549060031b1c60243581602435020481146024351517156146b557831561469f576040516004356020820152826040820152604081528060608101106001600160401b03606083011117611501576060810160405280516020909101206001600160a01b039081169161448f84600287016150ff565b50916144c1604051936144a185614ca2565b8585526144c860208601918a866024350204835260405193848092614e51565b0383614d45565b6040850191825260006060860152600060808601528560005260686020526040600020928551166001600160601b0360a01b845416178355516001830155519283516001600160401b0381116115015788946145348261452b6002870154614e17565b60028701615165565b602090601f831160011461461057600080516020615ae783398151915295936145808460019b9a9997956004956080956000926128525750508160011b916000199060031b1c19161790565b60028501555b6145a560608201511515600386019060ff801983541691151516179055565b01519101556145b38461591f565b506145c682826024350204606954615117565b6069556145f86145d98660028a016150ff565b5060405193849360243502048352608060208401526080830190614e51565b60006040830152600060608301520390a25b016143e6565b9192939495506002850160005260206000209160005b601f198516811061468757508a94600185600080516020615ae78339815191529895600495608095849e9d9c99601f1981161061466e575b505050811b016002850155614586565b015160001960f88460031b161c191690558e808061465e565b81830151845560019093019260209283019201614626565b634e487b7160e01b600052601260045260246000fd5b634e487b7160e01b600052601160045260246000fd5b60019061460a565b60405160243581527f3bd40eae53b08abc7bb394225e1e7e99430a5c44cb02f4aa40f881074de8a38a602060043592a2602060405160018152f35b60405162461bcd60e51b815260206004820152603b60248201527f5634446973747269627574696f6e4d6f64756c653a20746f74616c207261746960448201527f6f206d7573742062652067726561746572207468616e207a65726f00000000006064820152608490fd5b909261479a60019161478d868487016150ff565b90549060031b1c90615117565b9301906143d4565b81541561482057600190818060a01b037f46501879b8ca8525e8c2fd519e2fbfcfa2ebea26501294aa02cbfcfb12e9435454168060005260686020526147eb604060002061555c565b6147f48161599c565b507f85f179d4205edd87e18c80df3160316df70c87a3c515d0650c32dae6ead80afd600080a2016143ad565b634e487b7160e01b600052603260045260246000fd5b34610146576000366003190112610146576065546040516001600160a01b039091168152602090f35b346101465760003660031901126101465760665461487c81614ee7565b6148896040519182614d45565b81815261489582614ee7565b60209290601f19018360005b8281106149a75750505060005b8181106149165750506040519082820192808352815180945260408301938160408260051b8601019301916000955b8287106148ea5785850386f35b909192938280614906600193603f198a82030186528851614b0c565b96019201960195929190926148dd565b806004614924600193614fda565b848060a09493941b03809354600392831b1c166000526068885260ff6040600020916040519461495386614ca2565b8354168552868301548a86015260405161497481612a148160028801614e51565b60408601528201541615156060840152015460808201526149958286614efe565b526149a08185614efe565b50016148ae565b6149af614d81565b8282870101520184906148a1565b34610146576020366003190112610146576101426149d9614aae565b6149e1614d81565b506001600160a01b03908116600081815260676020526040902054614a07901515614dad565b60005260686020526004604060002060405192614a2384614ca2565b815416835260018101546020840152604051614a4681612a148160028601614e51565b604084015260ff6003820154161515606084015201546080820152604051918291602083526020830190614b0c565b3461014657600036600319011261014657807f6e4379ad5abe51b1f38d7c717558b084ca50f05c182778be47e8aa04793cfe2d60209252f35b600435906001600160a01b038216820361014657565b60005b838110614ad75750506000910152565b8181015183820152602001614ac7565b90602091614b0081518092818552858086019101614ac4565b601f01601f1916010190565b9060018060a01b03825116815260208201516020820152608080614b3f604085015160a0604086015260a0850190614ae7565b93606081015115156060850152015191015290565b906040820191604081528151809352606081019260208093019060005b818110614bda57505050818184039101528251908183528083019281808460051b8301019501936000915b848310614bac5750505050505090565b9091929394958480614bca600193601f198682030187528a51614ae7565b9801930193019194939290614b9c565b825186529484019491840191600101614b71565b9181601f84011215610146578235916001600160401b038311610146576020838186019501011161014657565b60a0600319820112610146576004356001600160a01b0381168103610146579160243591604435906001600160401b03821161014657614c5d91600401614bee565b90916064358015158103610146579060843590565b9181601f84011215610146578235916001600160401b038311610146576020808501948460051b01011161014657565b60a081019081106001600160401b0382111761150157604052565b608081019081106001600160401b0382111761150157604052565b60c081019081106001600160401b0382111761150157604052565b604081019081106001600160401b0382111761150157604052565b60e081019081106001600160401b0382111761150157604052565b61010081019081106001600160401b0382111761150157604052565b90601f801991011681019081106001600160401b0382111761150157604052565b6001600160401b03811161150157601f01601f191660200190565b60405190614d8e82614ca2565b6000608083828152826020820152606060408201528260608201520152565b15614db457565b60405162461bcd60e51b815260206004820152603560248201527f5634446973747269627574696f6e4d6f64756c653a2077616c6c657420646f6560448201527439903737ba103430bb329030b63637b1b0ba34b7b760591b6064820152608490fd5b90600182811c92168015614e47575b6020831014614e3157565b634e487b7160e01b600052602260045260246000fd5b91607f1691614e26565b805460009392614e6082614e17565b91828252602093600191600181169081600014614ec85750600114614e87575b5050505050565b90939495506000929192528360002092846000945b838610614eb457505050500101903880808080614e80565b805485870183015294019385908201614e9c565b60ff19168685015250505090151560051b010191503880808080614e80565b6001600160401b0381116115015760051b60200190565b80518210156148205760209160051b010190565b15614f1957565b60405162461bcd60e51b815260206004820152603360248201527f5634446973747269627574696f6e4d6f64756c653a20646973747269627574696044820152721bdb88185b1c9958591e48195e1958dd5d1959606a1b6064820152608490fd5b15614f8157565b60405162461bcd60e51b815260206004820152602b60248201527f5634446973747269627574696f6e4d6f64756c653a2070726573657420646f6560448201526a1cc81b9bdd08195e1a5cdd60aa1b6064820152608490fd5b6066548110156148205760666000527f46501879b8ca8525e8c2fd519e2fbfcfa2ebea26501294aa02cbfcfb12e943540190600090565b80541561482057600052602060002090600090565b80546001101561482057600052600160206000200190600090565b80546002101561482057600052600260206000200190600090565b80546003101561482057600052600360206000200190600090565b80546004101561482057600052600460206000200190600090565b80546005101561482057600052600560206000200190600090565b80546006101561482057600052600660206000200190600090565b606c5481101561482057606c6000527f2b4a51ab505fc96a0952efda2ba61bcd3078d4c02c39a186ec16f21883fbe0160190600090565b80548210156148205760005260206000200190600090565b919082018092116146b557565b81811061512f575050565b60008155600101615124565b90601f8111615148575050565b61516391600052601f6020600020910160051c810190615124565b565b9190601f811161517457505050565b615163926000526020600020906020601f840160051c830193106151a0575b601f0160051c0190615124565b9091508190615193565b156151b157565b60405162461bcd60e51b815260206004820152602e60248201527f496e697469616c697a61626c653a20636f6e747261637420697320616c72656160448201526d191e481a5b9a5d1a585b1a5e995960921b6064820152608490fd5b1561521457565b60405162461bcd60e51b815260206004820152603360248201527f5634446973747269627574696f6e4d6f64756c653a2077616c6c65742063616e6044820152726e6f74206265207a65726f206164647265737360681b6064820152608490fd5b1561527c57565b60405162461bcd60e51b815260206004820152603660248201527f5634446973747269627574696f6e4d6f64756c653a20616d6f756e74206d7573604482015275742062652067726561746572207468616e207a65726f60501b6064820152608490fd5b156152e757565b60405162461bcd60e51b815260206004820152603360248201527f5634446973747269627574696f6e4d6f64756c653a2077616c6c657420616c7260448201527232b0b23c903430b99030b63637b1b0ba34b7b760691b6064820152608490fd5b1561534f57565b60405162461bcd60e51b815260206004820152603760248201527f5634446973747269627574696f6e4d6f64756c653a20756e6c6f636b2074696d60448201527f65206d75737420626520696e20746865206675747572650000000000000000006064820152608490fd5b9291926153c682614d66565b916153d46040519384614d45565b829481845281830111610146578281602093846000960137010152565b91928060609460a09398979698855260806020860152816080860152838501376000828285010152601f801991011682010194151560408201520152565b60001981146146b55760010190565b6040519061544b82614cd8565b600582528160005b60a0811061545f575050565b806060602080938501015201615453565b6040519061547d82614d0e565b600682528160005b60c08110615491575050565b806060602080938501015201615485565b604051906154af82614d29565b600782528160005b60e081106154c3575050565b8060606020809385010152016154b7565b604051906154e182614ca2565b600482528160005b608081106154f5575050565b8060606020809385010152016154e9565b919082039182116146b557565b61551d8154614e17565b9081615527575050565b81601f60009311600114615539575055565b908083918252615558601f60208420940160051c840160018501615124565b5555565b600460009182815582600182015561557660028201615513565b8260038201550155565b91908110156148205760051b0190565b356001600160a01b03811681036101465790565b3580151581036101465790565b91908110156148205760051b81013590601e19813603018212156101465701908135916001600160401b038311610146576020018236038113610146579190565b9190604083820312610146578251801515810361014657926020810151906001600160401b038211610146570181601f8201121561014657805161563581614d66565b926156436040519485614d45565b81845260208284010111610146576156619160208085019101614ac4565b90565b6001600160a01b03909116815260406020820181905261566192910190614ae7565b6033546001600160a01b0316330361569a57565b606460405162461bcd60e51b815260206004820152602060248201527f4f776e61626c653a2063616c6c6572206973206e6f7420746865206f776e65726044820152fd5b156156e557565b60405162461bcd60e51b815260206004820152602b60248201527f496e697469616c697a61626c653a20636f6e7472616374206973206e6f74206960448201526a6e697469616c697a696e6760a81b6064820152608490fd5b603380546001600160a01b039283166001600160a01b0319821681179092559091167f8be0079c531659141344cd1fd0a4f28419497f9722a3daafe3b4186f6b6457e0600080a3565b906114025761579961086e8254614e17565b60166a5075626c69632053616c6560a81b019055565b90611402576157c161086e8254614e17565b6008635465616d60e01b019055565b90611402576157e261086e8254614e17565b6012684d61726b6574696e6760b81b019055565b906114025761580861086e8254614e17565b60106741647669736f727360c01b019055565b606c54600160401b8110156115015780600161583a9201606c556150c8565b81549060031b906001821b91600019901b1916179055565b606c54600160401b811015611501578060016158719201606c556150c8565b81549060031b906002821b91600019901b1916179055565b606c54600160401b811015611501578060016158a89201606c556150c8565b81549060031b906003821b91600019901b1916179055565b606c54600160401b811015611501578060016158df9201606c556150c8565b81549060031b906004821b91600019901b1916179055565b906114025761590961086e8254614e17565b60166a11195d995b1bdc1b595b9d60aa1b019055565b60008181526067602052604081205461599757606654600160401b81101561598357908261596f61595884600160409601606655614fda565b819391549060031b91821b91600019901b19161790565b905560665492815260676020522055600190565b634e487b7160e01b82526041600452602482fd5b905090565b6000818152606760205260408120549091908015615a815760001990808201818111615a6d5760665490838201918211615a5957808203615a25575b5050506066548015615a11578101906159f082614fda565b909182549160031b1b19169055606655815260676020526040812055600190565b634e487b7160e01b84526031600452602484fd5b615a43615a3461595893614fda565b90549060031b1c928392614fda565b90558452606760205260408420553880806159d8565b634e487b7160e01b86526011600452602486fd5b634e487b7160e01b85526011600452602485fd5b50509056fef0ae10cbc4b7e5d41a3a6c7f530e4919b2e487e56976cad1b0bf6c5c77e67916b507b92927105c30ff6e8afc661972d5ba73e86e28bafa70cb531ddda52bdf054e5c7e8f4b1f6c9808b80aae6c41bbd046930d99f67f4e24136b55524acbcb0f3241139af5e2a8b260ac9c371bbcd5da66ac3ce01dfc401fb973a1f174a1bc07b507b92927105c30ff6e8afc661972d5ba73e86e28bafa70cb531ddda52bdf06a775687211c2b3346a0f5a2a0e7590e6c1838453e3785e6dd2a8efd6265ddf16f0ae10cbc4b7e5d41a3a6c7f530e4919b2e487e56976cad1b0bf6c5c77e679174e5c7e8f4b1f6c9808b80aae6c41bbd046930d99f67f4e24136b55524acbcb10a775687211c2b3346a0f5a2a0e7590e6c1838453e3785e6dd2a8efd6265ddf17a264697066735822122068f6e69992a4d3b92069ef2638cd687559d122b7773cbcd76b0d92d9996ff91364736f6c63430008160033","opcodes":"PUSH1 0x80 DUP1 PUSH1 0x40 MSTORE CALLVALUE PUSH3 0xC6 JUMPI PUSH1 0x0 SLOAD SWAP1 PUSH1 0xFF DUP3 PUSH1 0x8 SHR AND PUSH3 0x74 JUMPI POP PUSH1 0xFF DUP1 DUP3 AND SUB PUSH3 0x38 JUMPI JUMPDEST PUSH1 0x40 MLOAD PUSH2 0x5BDC SWAP1 DUP2 PUSH3 0xCC DUP3 CODECOPY RETURN JUMPDEST PUSH1 0xFF SWAP1 DUP2 NOT AND OR PUSH1 0x0 SSTORE PUSH32 0x7F26B83FF96E1F2B6A682F133852F6798A09C465DA95921460CEFB3847402498 PUSH1 0x20 PUSH1 0x40 MLOAD PUSH1 0xFF DUP2 MSTORE LOG1 CODESIZE PUSH3 0x28 JUMP JUMPDEST PUSH3 0x461BCD PUSH1 0xE5 SHL DUP2 MSTORE PUSH1 0x20 PUSH1 0x4 DUP3 ADD MSTORE PUSH1 0x27 PUSH1 0x24 DUP3 ADD MSTORE PUSH32 0x496E697469616C697A61626C653A20636F6E747261637420697320696E697469 PUSH1 0x44 DUP3 ADD MSTORE PUSH7 0x616C697A696E67 PUSH1 0xC8 SHL PUSH1 0x64 DUP3 ADD MSTORE PUSH1 0x84 SWAP1 REVERT JUMPDEST PUSH1 0x0 DUP1 REVERT INVALID PUSH2 0x220 DUP1 PUSH1 0x40 MSTORE PUSH1 0x4 CALLDATASIZE LT ISZERO PUSH2 0x14 JUMPI PUSH1 0x0 DUP1 REVERT JUMPDEST PUSH1 0x0 CALLDATALOAD PUSH1 0xE0 SHR SWAP1 DUP2 PUSH4 0xB9349B9 EQ PUSH2 0x4A75 JUMPI POP DUP1 PUSH4 0xE022923 EQ PUSH2 0x49BD JUMPI DUP1 PUSH4 0x1CA00F62 EQ PUSH2 0x485F JUMPI DUP1 PUSH4 0x21DF0DA7 EQ PUSH2 0x4836 JUMPI DUP1 PUSH4 0x230C8A0E EQ PUSH2 0x435E JUMPI DUP1 PUSH4 0x35B50F52 EQ PUSH2 0x426D JUMPI DUP1 PUSH4 0x485CC955 EQ PUSH2 0x2D65 JUMPI DUP1 PUSH4 0x715018A6 EQ PUSH2 0x2D08 JUMPI DUP1 PUSH4 0x862C19C8 EQ PUSH2 0x2ABB JUMPI DUP1 PUSH4 0x8DA5CB5B EQ PUSH2 0x2A92 JUMPI DUP1 PUSH4 0x9A7127A2 EQ PUSH2 0x2912 JUMPI DUP1 PUSH4 0xA8A4B4C0 EQ PUSH2 0x2665 JUMPI DUP1 PUSH4 0xBE464464 EQ PUSH2 0x2534 JUMPI DUP1 PUSH4 0xC58156E0 EQ PUSH2 0x2472 JUMPI DUP1 PUSH4 0xCB67F948 EQ PUSH2 0x21CA JUMPI DUP1 PUSH4 0xCC6BECC8 EQ PUSH2 0x1C2D JUMPI DUP1 PUSH4 0xD1F57894 EQ PUSH2 0x419 JUMPI DUP1 PUSH4 0xF2FDE38B EQ PUSH2 0x38A JUMPI DUP1 PUSH4 0xFF0ED114 EQ PUSH2 0x14B JUMPI PUSH4 0xFFA1AD74 EQ PUSH2 0xFC JUMPI PUSH1 0x0 DUP1 REVERT JUMPDEST CALLVALUE PUSH2 0x146 JUMPI PUSH1 0x0 CALLDATASIZE PUSH1 0x3 NOT ADD SLT PUSH2 0x146 JUMPI PUSH2 0x142 PUSH1 0x40 MLOAD PUSH2 0x11C DUP2 PUSH2 0x4CF3 JUMP JUMPDEST PUSH1 0x5 DUP2 MSTORE PUSH5 0x342E302E3 PUSH1 0xDC SHL PUSH1 0x20 DUP3 ADD MSTORE PUSH1 0x40 MLOAD SWAP2 DUP3 SWAP2 PUSH1 0x20 DUP4 MSTORE PUSH1 0x20 DUP4 ADD SWAP1 PUSH2 0x4AE7 JUMP JUMPDEST SUB SWAP1 RETURN JUMPDEST PUSH1 0x0 DUP1 REVERT JUMPDEST CALLVALUE PUSH2 0x146 JUMPI PUSH1 0x0 CALLDATASIZE PUSH1 0x3 NOT ADD SLT PUSH2 0x146 JUMPI PUSH2 0x164 PUSH2 0x5686 JUMP JUMPDEST PUSH1 0x6A SLOAD PUSH1 0xFF SWAP1 PUSH2 0x177 PUSH1 0xFF DUP3 AND ISZERO PUSH2 0x4F12 JUMP JUMPDEST PUSH1 0x66 SLOAD SWAP2 DUP3 ISZERO PUSH2 0x32A JUMPI PUSH1 0x1 DUP1 SWAP3 PUSH1 0xFF NOT AND OR PUSH1 0x6A SSTORE PUSH1 0x0 JUMPDEST DUP4 DUP2 LT PUSH2 0x1D5 JUMPI PUSH32 0x219B165C65B7E1A5744D1A2543BB34326AC29D73E03BDAC1ABC7290CCD6C2610 PUSH1 0x40 DUP6 PUSH1 0x69 SLOAD SWAP1 DUP3 MLOAD SWAP2 DUP3 MSTORE PUSH1 0x20 DUP3 ADD MSTORE LOG1 PUSH1 0x20 PUSH1 0x40 MLOAD PUSH1 0x1 DUP2 MSTORE RETURN JUMPDEST DUP1 PUSH1 0x0 DUP5 PUSH2 0x1E3 DUP3 SWAP5 PUSH2 0x4FDA JUMP JUMPDEST SWAP1 SLOAD PUSH1 0x3 SWAP2 DUP3 SHL SHR PUSH1 0x1 PUSH1 0x1 PUSH1 0xA0 SHL SUB SWAP1 DUP2 AND DUP1 DUP6 MSTORE PUSH1 0x68 PUSH1 0x20 SWAP1 DUP2 MSTORE PUSH1 0x40 DUP7 KECCAK256 SWAP4 DUP5 ADD SLOAD SWAP1 SWAP4 SWAP2 SWAP1 DUP10 AND DUP7 EQ PUSH2 0x2BA JUMPI POP SWAP1 SWAP3 ADD SLOAD PUSH1 0x40 MLOAD PUSH4 0x40C10F19 PUSH1 0xE0 SHL SWAP3 DUP2 ADD SWAP3 SWAP1 SWAP3 MSTORE ADDRESS PUSH1 0x24 DUP4 ADD MSTORE PUSH1 0x44 DUP3 ADD MSTORE PUSH2 0x272 SWAP2 PUSH2 0x251 DUP3 PUSH1 0x64 DUP2 ADD JUMPDEST SUB PUSH1 0x1F NOT DUP2 ADD DUP5 MSTORE DUP4 PUSH2 0x4D45 JUMP JUMPDEST PUSH1 0x65 SLOAD AND SWAP1 PUSH1 0x40 MLOAD SWAP6 DUP7 DUP1 SWAP5 DUP2 SWAP4 PUSH3 0xAC0F6F PUSH1 0xE7 SHL DUP4 MSTORE DUP6 PUSH1 0x4 DUP5 ADD PUSH2 0x5664 JUMP JUMPDEST SUB SWAP3 GAS CALL SWAP2 DUP3 ISZERO PUSH2 0x2AE JUMPI DUP5 SWAP3 PUSH2 0x28C JUMPI JUMPDEST POP JUMPDEST ADD PUSH2 0x190 JUMP JUMPDEST PUSH2 0x2A8 SWAP1 RETURNDATASIZE DUP1 PUSH1 0x0 DUP4 RETURNDATACOPY PUSH2 0x2A0 DUP2 DUP4 PUSH2 0x4D45 JUMP JUMPDEST DUP2 ADD SWAP1 PUSH2 0x55F2 JUMP JUMPDEST POP PUSH2 0x284 JUMP JUMPDEST PUSH1 0x40 MLOAD RETURNDATASIZE PUSH1 0x0 DUP3 RETURNDATACOPY RETURNDATASIZE SWAP1 REVERT JUMPDEST SWAP4 ADD SLOAD PUSH1 0x40 MLOAD PUSH4 0x40C10F19 PUSH1 0xE0 SHL SWAP4 DUP2 ADD SWAP4 SWAP1 SWAP4 MSTORE PUSH1 0x1 PUSH1 0x1 PUSH1 0xA0 SHL SUB SWAP1 SWAP4 AND PUSH1 0x24 DUP4 ADD MSTORE PUSH1 0x44 DUP3 ADD SWAP3 SWAP1 SWAP3 MSTORE PUSH2 0x2F8 SWAP2 PUSH2 0x251 DUP3 PUSH1 0x64 DUP2 ADD PUSH2 0x243 JUMP JUMPDEST SUB SWAP3 GAS CALL SWAP2 DUP3 ISZERO PUSH2 0x2AE JUMPI DUP5 SWAP3 PUSH2 0x310 JUMPI JUMPDEST POP PUSH2 0x286 JUMP JUMPDEST PUSH2 0x324 SWAP1 RETURNDATASIZE DUP1 PUSH1 0x0 DUP4 RETURNDATACOPY PUSH2 0x2A0 DUP2 DUP4 PUSH2 0x4D45 JUMP JUMPDEST POP PUSH2 0x30A JUMP JUMPDEST PUSH1 0x40 MLOAD PUSH3 0x461BCD PUSH1 0xE5 SHL DUP2 MSTORE PUSH1 0x20 PUSH1 0x4 DUP3 ADD MSTORE PUSH1 0x32 PUSH1 0x24 DUP3 ADD MSTORE PUSH32 0x5634446973747269627574696F6E4D6F64756C653A206E6F20616C6C6F636174 PUSH1 0x44 DUP3 ADD MSTORE PUSH18 0x696F6E7320746F2064697374726962757465 PUSH1 0x70 SHL PUSH1 0x64 DUP3 ADD MSTORE PUSH1 0x84 SWAP1 REVERT JUMPDEST CALLVALUE PUSH2 0x146 JUMPI PUSH1 0x20 CALLDATASIZE PUSH1 0x3 NOT ADD SLT PUSH2 0x146 JUMPI PUSH2 0x3A3 PUSH2 0x4AAE JUMP JUMPDEST PUSH2 0x3AB PUSH2 0x5686 JUMP JUMPDEST PUSH1 0x1 PUSH1 0x1 PUSH1 0xA0 SHL SUB DUP2 AND ISZERO PUSH2 0x3C5 JUMPI PUSH2 0x3C3 SWAP1 PUSH2 0x573E JUMP JUMPDEST STOP JUMPDEST PUSH1 0x40 MLOAD PUSH3 0x461BCD PUSH1 0xE5 SHL DUP2 MSTORE PUSH1 0x20 PUSH1 0x4 DUP3 ADD MSTORE PUSH1 0x26 PUSH1 0x24 DUP3 ADD MSTORE PUSH32 0x4F776E61626C653A206E6577206F776E657220697320746865207A65726F2061 PUSH1 0x44 DUP3 ADD MSTORE PUSH6 0x646472657373 PUSH1 0xD0 SHL PUSH1 0x64 DUP3 ADD MSTORE PUSH1 0x84 SWAP1 REVERT JUMPDEST CALLVALUE PUSH2 0x146 JUMPI PUSH1 0x40 CALLDATASIZE PUSH1 0x3 NOT ADD SLT PUSH2 0x146 JUMPI PUSH2 0x432 PUSH2 0x4AAE JUMP JUMPDEST PUSH1 0x24 CALLDATALOAD PUSH1 0x1 PUSH1 0x1 PUSH1 0x40 SHL SUB DUP2 GT PUSH2 0x146 JUMPI PUSH2 0x451 SWAP1 CALLDATASIZE SWAP1 PUSH1 0x4 ADD PUSH2 0x4BEE JUMP JUMPDEST SWAP1 PUSH1 0x0 SLOAD SWAP3 PUSH1 0xFF SWAP2 DUP3 DUP6 PUSH1 0x8 SHR AND ISZERO SWAP5 DUP6 DUP1 SWAP7 PUSH2 0x1C21 JUMPI JUMPDEST DUP1 ISZERO PUSH2 0x1C0B JUMPI JUMPDEST PUSH2 0x479 SWAP1 PUSH2 0x51AA JUMP JUMPDEST PUSH1 0xFF NOT DUP2 DUP2 AND PUSH1 0x1 OR PUSH1 0x0 SSTORE SWAP1 DUP7 PUSH2 0x1BF9 JUMPI JUMPDEST POP PUSH1 0x20 DUP6 SUB PUSH2 0x1B9A JUMPI PUSH1 0x1 SWAP5 PUSH2 0x50B SWAP3 CALLDATALOAD SWAP1 PUSH1 0x20 DUP2 LT PUSH2 0x1B88 JUMPI JUMPDEST POP PUSH2 0x4FC DUP7 DUP1 PUSH1 0xA0 SHL SUB SWAP6 DUP7 SWAP4 PUSH1 0x0 SLOAD SWAP1 DUP3 DUP3 PUSH1 0x8 SHR AND ISZERO SWAP10 DUP11 SWAP2 DUP3 SWAP12 DUP13 SWAP4 PUSH2 0x1B7D JUMPI JUMPDEST DUP1 ISZERO PUSH2 0x1B68 JUMPI JUMPDEST PUSH2 0x4DB SWAP1 PUSH2 0x51AA JUMP JUMPDEST DUP4 AND OR PUSH1 0x0 SSTORE PUSH2 0x1B56 JUMPI JUMPDEST POP PUSH1 0x0 SLOAD PUSH1 0x8 SHR AND PUSH2 0x4F7 DUP2 PUSH2 0x56DE JUMP JUMPDEST PUSH2 0x56DE JUMP JUMPDEST PUSH2 0x505 CALLER PUSH2 0x573E JUMP JUMPDEST AND PUSH2 0x573E JUMP JUMPDEST AND DUP1 ISZERO PUSH2 0x1AF6 JUMPI PUSH1 0x1 PUSH1 0x1 PUSH1 0x60 SHL SUB PUSH1 0xA0 SHL PUSH1 0x65 SLOAD AND OR PUSH1 0x65 SSTORE PUSH1 0x40 MLOAD PUSH2 0x531 DUP2 PUSH2 0x4CD8 JUMP JUMPDEST PUSH1 0x5 DUP2 MSTORE PUSH1 0xA0 CALLDATASIZE PUSH1 0x20 DUP4 ADD CALLDATACOPY PUSH2 0x545 PUSH2 0x543E JUMP JUMPDEST PUSH1 0x40 MLOAD SWAP2 PUSH2 0x552 DUP4 PUSH2 0x4CBD JUMP JUMPDEST PUSH1 0x40 MLOAD PUSH2 0x55E DUP2 PUSH2 0x4CF3 JUMP JUMPDEST PUSH1 0xC DUP2 MSTORE PUSH12 0x5374616E646172642049434F PUSH1 0xA0 SHL PUSH1 0x20 DUP3 ADD MSTORE DUP4 MSTORE PUSH1 0x20 DUP4 ADD MSTORE PUSH1 0x40 DUP3 ADD MSTORE PUSH1 0x1 PUSH1 0x60 DUP3 ADD MSTORE PUSH1 0x1 PUSH1 0x0 MSTORE PUSH1 0x6B PUSH1 0x20 MSTORE PUSH1 0x40 PUSH1 0x0 KECCAK256 SWAP1 DUP1 MLOAD DUP1 MLOAD SWAP1 PUSH1 0x1 PUSH1 0x1 PUSH1 0x40 SHL SUB DUP3 GT PUSH2 0x1501 JUMPI PUSH2 0x5C1 DUP3 PUSH2 0x5BB DUP7 SLOAD PUSH2 0x4E17 JUMP JUMPDEST DUP7 PUSH2 0x5165 JUMP JUMPDEST PUSH1 0x20 SWAP1 PUSH1 0x1F DUP4 GT PUSH1 0x1 EQ PUSH2 0x1A8A JUMPI PUSH2 0x5F2 SWAP3 SWAP2 PUSH1 0x0 SWAP2 DUP4 PUSH2 0x157E JUMPI JUMPDEST POP POP DUP2 PUSH1 0x1 SHL SWAP2 PUSH1 0x0 NOT SWAP1 PUSH1 0x3 SHL SHR NOT AND OR SWAP1 JUMP JUMPDEST DUP3 SSTORE JUMPDEST PUSH1 0x20 DUP2 ADD MLOAD DUP1 MLOAD SWAP1 PUSH1 0x1 PUSH1 0x1 PUSH1 0x40 SHL SUB DUP3 GT PUSH2 0x1501 JUMPI PUSH1 0x1 PUSH1 0x40 SHL DUP3 GT PUSH2 0x1501 JUMPI PUSH1 0x20 SWAP1 PUSH1 0x1 DUP6 ADD SLOAD DUP4 PUSH1 0x1 DUP8 ADD SSTORE DUP1 DUP5 LT PUSH2 0x1A6A JUMPI JUMPDEST POP ADD PUSH1 0x1 DUP5 ADD PUSH1 0x0 MSTORE PUSH1 0x20 PUSH1 0x0 KECCAK256 PUSH1 0x0 JUMPDEST DUP4 DUP2 LT PUSH2 0x1A56 JUMPI POP POP POP POP PUSH1 0x40 DUP2 ADD MLOAD DUP1 MLOAD SWAP1 PUSH1 0x1 PUSH1 0x40 SHL DUP3 GT PUSH2 0x1501 JUMPI PUSH1 0x2 DUP5 ADD SLOAD DUP3 PUSH1 0x2 DUP7 ADD SSTORE DUP1 DUP4 LT PUSH2 0x1A23 JUMPI JUMPDEST POP PUSH1 0x20 ADD SWAP1 PUSH1 0x2 DUP5 ADD PUSH1 0x0 MSTORE PUSH1 0x20 PUSH1 0x0 KECCAK256 SWAP2 PUSH1 0x0 SWAP1 JUMPDEST DUP3 DUP3 LT PUSH2 0x194B JUMPI DUP8 DUP8 PUSH2 0x6AD DUP9 PUSH1 0x3 PUSH1 0x60 DUP11 ADD MLOAD ISZERO ISZERO SWAP2 ADD SWAP1 PUSH1 0xFF DUP1 NOT DUP4 SLOAD AND SWAP2 ISZERO ISZERO AND OR SWAP1 SSTORE JUMP JUMPDEST PUSH1 0x1 PUSH1 0x0 MSTORE PUSH1 0x6B PUSH1 0x20 MSTORE PUSH2 0x6EA PUSH2 0x6D1 PUSH1 0x0 DUP1 MLOAD PUSH1 0x20 PUSH2 0x5B27 DUP4 CODECOPY DUP2 MLOAD SWAP2 MSTORE PUSH2 0x5011 JUMP JUMPDEST DUP2 SWAP3 SWAP2 SLOAD SWAP1 PUSH1 0x3 SHL SWAP1 PUSH1 0x32 DUP3 SHL SWAP2 PUSH1 0x0 NOT SWAP1 SHL NOT AND OR SWAP1 JUMP JUMPDEST SWAP1 SSTORE PUSH1 0x1 PUSH1 0x0 MSTORE PUSH1 0x6B PUSH1 0x20 MSTORE PUSH2 0x729 PUSH2 0x710 PUSH1 0x0 DUP1 MLOAD PUSH1 0x20 PUSH2 0x5B27 DUP4 CODECOPY DUP2 MLOAD SWAP2 MSTORE PUSH2 0x5026 JUMP JUMPDEST DUP2 SWAP3 SWAP2 SLOAD SWAP1 PUSH1 0x3 SHL SWAP1 PUSH1 0x14 DUP3 SHL SWAP2 PUSH1 0x0 NOT SWAP1 SHL NOT AND OR SWAP1 JUMP JUMPDEST SWAP1 SSTORE PUSH1 0x1 PUSH1 0x0 MSTORE PUSH1 0x6B PUSH1 0x20 MSTORE PUSH2 0x768 PUSH2 0x74F PUSH1 0x0 DUP1 MLOAD PUSH1 0x20 PUSH2 0x5B27 DUP4 CODECOPY DUP2 MLOAD SWAP2 MSTORE PUSH2 0x5041 JUMP JUMPDEST DUP2 SWAP3 SWAP2 SLOAD SWAP1 PUSH1 0x3 SHL SWAP1 PUSH1 0xF DUP3 SHL SWAP2 PUSH1 0x0 NOT SWAP1 SHL NOT AND OR SWAP1 JUMP JUMPDEST SWAP1 SSTORE PUSH1 0x1 PUSH1 0x0 MSTORE PUSH1 0x6B PUSH1 0x20 MSTORE PUSH2 0x7A7 PUSH2 0x78E PUSH1 0x0 DUP1 MLOAD PUSH1 0x20 PUSH2 0x5B27 DUP4 CODECOPY DUP2 MLOAD SWAP2 MSTORE PUSH2 0x505C JUMP JUMPDEST DUP2 SWAP3 SWAP2 SLOAD SWAP1 PUSH1 0x3 SHL SWAP1 PUSH1 0xA DUP3 SHL SWAP2 PUSH1 0x0 NOT SWAP1 SHL NOT AND OR SWAP1 JUMP JUMPDEST SWAP1 SSTORE PUSH1 0x1 PUSH1 0x0 MSTORE PUSH1 0x6B PUSH1 0x20 MSTORE PUSH2 0x7E6 PUSH2 0x7CD PUSH1 0x0 DUP1 MLOAD PUSH1 0x20 PUSH2 0x5B27 DUP4 CODECOPY DUP2 MLOAD SWAP2 MSTORE PUSH2 0x5077 JUMP JUMPDEST DUP2 SWAP3 SWAP2 SLOAD SWAP1 PUSH1 0x3 SHL SWAP1 PUSH1 0x5 DUP3 SHL SWAP2 PUSH1 0x0 NOT SWAP1 SHL NOT AND OR SWAP1 JUMP JUMPDEST SWAP1 SSTORE PUSH1 0x1 PUSH1 0x0 MSTORE PUSH1 0x6B PUSH1 0x20 MSTORE PUSH2 0x812 PUSH2 0x80C PUSH1 0x0 DUP1 MLOAD PUSH1 0x20 PUSH2 0x5B87 DUP4 CODECOPY DUP2 MLOAD SWAP2 MSTORE PUSH2 0x5011 JUMP JUMPDEST SWAP1 PUSH2 0x5787 JUMP JUMPDEST PUSH1 0x1 PUSH1 0x0 MSTORE PUSH1 0x6B PUSH1 0x20 MSTORE PUSH2 0x83C PUSH2 0x836 PUSH1 0x0 DUP1 MLOAD PUSH1 0x20 PUSH2 0x5B87 DUP4 CODECOPY DUP2 MLOAD SWAP2 MSTORE PUSH2 0x5026 JUMP JUMPDEST SWAP1 PUSH2 0x57AF JUMP JUMPDEST PUSH1 0x1 PUSH1 0x0 MSTORE PUSH1 0x6B PUSH1 0x20 MSTORE PUSH2 0x85D PUSH1 0x0 DUP1 MLOAD PUSH1 0x20 PUSH2 0x5B87 DUP4 CODECOPY DUP2 MLOAD SWAP2 MSTORE PUSH2 0x5041 JUMP JUMPDEST PUSH2 0x1402 JUMPI PUSH2 0x874 PUSH2 0x86E DUP3 SLOAD PUSH2 0x4E17 JUMP JUMPDEST DUP3 PUSH2 0x513B JUMP JUMPDEST PUSH1 0xE PUSH7 0x52657365727665 PUSH1 0xC8 SHL ADD SWAP1 SSTORE PUSH1 0x1 PUSH1 0x0 MSTORE PUSH1 0x6B PUSH1 0x20 MSTORE PUSH2 0x8AE PUSH2 0x8A8 PUSH1 0x0 DUP1 MLOAD PUSH1 0x20 PUSH2 0x5B87 DUP4 CODECOPY DUP2 MLOAD SWAP2 MSTORE PUSH2 0x505C JUMP JUMPDEST SWAP1 PUSH2 0x57D0 JUMP JUMPDEST PUSH1 0x1 PUSH1 0x0 MSTORE PUSH1 0x6B PUSH1 0x20 MSTORE PUSH2 0x8D8 PUSH2 0x8D2 PUSH1 0x0 DUP1 MLOAD PUSH1 0x20 PUSH2 0x5B87 DUP4 CODECOPY DUP2 MLOAD SWAP2 MSTORE PUSH2 0x5077 JUMP JUMPDEST SWAP1 PUSH2 0x57F6 JUMP JUMPDEST PUSH2 0x8E0 PUSH2 0x581B JUMP JUMPDEST PUSH1 0x40 MLOAD PUSH2 0x8EC DUP2 PUSH2 0x4D0E JUMP JUMPDEST PUSH1 0x6 DUP2 MSTORE PUSH1 0xC0 CALLDATASIZE PUSH1 0x20 DUP4 ADD CALLDATACOPY PUSH2 0x900 PUSH2 0x5470 JUMP JUMPDEST PUSH1 0x40 MLOAD SWAP2 PUSH2 0x90D DUP4 PUSH2 0x4CBD JUMP JUMPDEST PUSH1 0x40 MLOAD PUSH2 0x919 DUP2 PUSH2 0x4CF3 JUMP JUMPDEST PUSH1 0x11 DUP2 MSTORE PUSH17 0x10DBDB5B5D5B9A5D1E48119BD8DD5CD959 PUSH1 0x7A SHL PUSH1 0x20 DUP3 ADD MSTORE DUP4 MSTORE PUSH1 0x20 DUP4 ADD MSTORE PUSH1 0x40 DUP3 ADD MSTORE PUSH1 0x1 PUSH1 0x60 DUP3 ADD MSTORE PUSH1 0x2 PUSH1 0x0 MSTORE PUSH1 0x6B PUSH1 0x20 MSTORE PUSH1 0x40 PUSH1 0x0 KECCAK256 SWAP1 DUP1 MLOAD DUP1 MLOAD SWAP1 PUSH1 0x1 PUSH1 0x1 PUSH1 0x40 SHL SUB DUP3 GT PUSH2 0x1501 JUMPI PUSH2 0x97B DUP3 PUSH2 0x5BB DUP7 SLOAD PUSH2 0x4E17 JUMP JUMPDEST PUSH1 0x20 SWAP1 PUSH1 0x1F DUP4 GT PUSH1 0x1 EQ PUSH2 0x18DF JUMPI PUSH2 0x9AB SWAP3 SWAP2 PUSH1 0x0 SWAP2 DUP4 PUSH2 0x157E JUMPI POP POP DUP2 PUSH1 0x1 SHL SWAP2 PUSH1 0x0 NOT SWAP1 PUSH1 0x3 SHL SHR NOT AND OR SWAP1 JUMP JUMPDEST DUP3 SSTORE JUMPDEST PUSH1 0x20 DUP2 ADD MLOAD DUP1 MLOAD SWAP1 PUSH1 0x1 PUSH1 0x1 PUSH1 0x40 SHL SUB DUP3 GT PUSH2 0x1501 JUMPI PUSH1 0x1 PUSH1 0x40 SHL DUP3 GT PUSH2 0x1501 JUMPI PUSH1 0x20 SWAP1 PUSH1 0x1 DUP6 ADD SLOAD DUP4 PUSH1 0x1 DUP8 ADD SSTORE DUP1 DUP5 LT PUSH2 0x18BF JUMPI JUMPDEST POP ADD PUSH1 0x1 DUP5 ADD PUSH1 0x0 MSTORE PUSH1 0x20 PUSH1 0x0 KECCAK256 PUSH1 0x0 JUMPDEST DUP4 DUP2 LT PUSH2 0x18AB JUMPI POP POP POP POP PUSH1 0x40 DUP2 ADD MLOAD DUP1 MLOAD SWAP1 PUSH1 0x1 PUSH1 0x40 SHL DUP3 GT PUSH2 0x1501 JUMPI PUSH1 0x2 DUP5 ADD SLOAD DUP3 PUSH1 0x2 DUP7 ADD SSTORE DUP1 DUP4 LT PUSH2 0x1878 JUMPI JUMPDEST POP PUSH1 0x20 ADD SWAP1 PUSH1 0x2 DUP5 ADD PUSH1 0x0 MSTORE PUSH1 0x20 PUSH1 0x0 KECCAK256 SWAP2 PUSH1 0x0 SWAP1 JUMPDEST DUP3 DUP3 LT PUSH2 0x17A0 JUMPI DUP8 DUP8 PUSH2 0xA66 DUP9 PUSH1 0x3 PUSH1 0x60 DUP11 ADD MLOAD ISZERO ISZERO SWAP2 ADD SWAP1 PUSH1 0xFF DUP1 NOT DUP4 SLOAD AND SWAP2 ISZERO ISZERO AND OR SWAP1 SSTORE JUMP JUMPDEST PUSH1 0x2 PUSH1 0x0 MSTORE PUSH1 0x6B PUSH1 0x20 MSTORE PUSH2 0xAA3 PUSH2 0xA8A PUSH1 0x0 DUP1 MLOAD PUSH1 0x20 PUSH2 0x5AA7 DUP4 CODECOPY DUP2 MLOAD SWAP2 MSTORE PUSH2 0x5011 JUMP JUMPDEST DUP2 SWAP3 SWAP2 SLOAD SWAP1 PUSH1 0x3 SHL SWAP1 PUSH1 0x28 DUP3 SHL SWAP2 PUSH1 0x0 NOT SWAP1 SHL NOT AND OR SWAP1 JUMP JUMPDEST SWAP1 SSTORE PUSH1 0x2 PUSH1 0x0 MSTORE PUSH1 0x6B PUSH1 0x20 MSTORE PUSH2 0xAC9 PUSH2 0x710 PUSH1 0x0 DUP1 MLOAD PUSH1 0x20 PUSH2 0x5AA7 DUP4 CODECOPY DUP2 MLOAD SWAP2 MSTORE PUSH2 0x5026 JUMP JUMPDEST SWAP1 SSTORE PUSH1 0x2 PUSH1 0x0 MSTORE PUSH1 0x6B PUSH1 0x20 MSTORE PUSH2 0xAEF PUSH2 0x74F PUSH1 0x0 DUP1 MLOAD PUSH1 0x20 PUSH2 0x5AA7 DUP4 CODECOPY DUP2 MLOAD SWAP2 MSTORE PUSH2 0x5041 JUMP JUMPDEST SWAP1 SSTORE PUSH1 0x2 PUSH1 0x0 MSTORE PUSH1 0x6B PUSH1 0x20 MSTORE PUSH2 0xB15 PUSH2 0x78E PUSH1 0x0 DUP1 MLOAD PUSH1 0x20 PUSH2 0x5AA7 DUP4 CODECOPY DUP2 MLOAD SWAP2 MSTORE PUSH2 0x505C JUMP JUMPDEST SWAP1 SSTORE PUSH1 0x2 PUSH1 0x0 MSTORE PUSH1 0x6B PUSH1 0x20 MSTORE PUSH2 0xB3B PUSH2 0x78E PUSH1 0x0 DUP1 MLOAD PUSH1 0x20 PUSH2 0x5AA7 DUP4 CODECOPY DUP2 MLOAD SWAP2 MSTORE PUSH2 0x5077 JUMP JUMPDEST SWAP1 SSTORE PUSH1 0x2 PUSH1 0x0 MSTORE PUSH1 0x6B PUSH1 0x20 MSTORE PUSH2 0xB61 PUSH2 0x7CD PUSH1 0x0 DUP1 MLOAD PUSH1 0x20 PUSH2 0x5AA7 DUP4 CODECOPY DUP2 MLOAD SWAP2 MSTORE PUSH2 0x5092 JUMP JUMPDEST SWAP1 SSTORE PUSH1 0x2 PUSH1 0x0 MSTORE PUSH1 0x6B PUSH1 0x20 MSTORE PUSH2 0xB84 PUSH1 0x0 DUP1 MLOAD PUSH1 0x20 PUSH2 0x5B07 DUP4 CODECOPY DUP2 MLOAD SWAP2 MSTORE PUSH2 0x5011 JUMP JUMPDEST PUSH2 0x1402 JUMPI PUSH2 0xB95 PUSH2 0x86E DUP3 SLOAD PUSH2 0x4E17 JUMP JUMPDEST PUSH1 0x22 PUSH17 0x436F6D6D756E6974792052657761726473 PUSH1 0x78 SHL ADD SWAP1 SSTORE PUSH1 0x2 PUSH1 0x0 MSTORE PUSH1 0x6B PUSH1 0x20 MSTORE PUSH2 0xBD3 PUSH2 0x80C PUSH1 0x0 DUP1 MLOAD PUSH1 0x20 PUSH2 0x5B07 DUP4 CODECOPY DUP2 MLOAD SWAP2 MSTORE PUSH2 0x5026 JUMP JUMPDEST PUSH1 0x2 PUSH1 0x0 MSTORE PUSH1 0x6B PUSH1 0x20 MSTORE PUSH2 0xBF7 PUSH2 0x836 PUSH1 0x0 DUP1 MLOAD PUSH1 0x20 PUSH2 0x5B07 DUP4 CODECOPY DUP2 MLOAD SWAP2 MSTORE PUSH2 0x5041 JUMP JUMPDEST PUSH1 0x2 PUSH1 0x0 MSTORE PUSH1 0x6B PUSH1 0x20 MSTORE PUSH2 0xC21 PUSH2 0xC1B PUSH1 0x0 DUP1 MLOAD PUSH1 0x20 PUSH2 0x5B07 DUP4 CODECOPY DUP2 MLOAD SWAP2 MSTORE PUSH2 0x505C JUMP JUMPDEST SWAP1 PUSH2 0x58F7 JUMP JUMPDEST PUSH1 0x2 PUSH1 0x0 MSTORE PUSH1 0x6B PUSH1 0x20 MSTORE PUSH2 0xC45 PUSH2 0x8A8 PUSH1 0x0 DUP1 MLOAD PUSH1 0x20 PUSH2 0x5B07 DUP4 CODECOPY DUP2 MLOAD SWAP2 MSTORE PUSH2 0x5077 JUMP JUMPDEST PUSH1 0x2 PUSH1 0x0 MSTORE PUSH1 0x6B PUSH1 0x20 MSTORE PUSH2 0xC69 PUSH2 0x8D2 PUSH1 0x0 DUP1 MLOAD PUSH1 0x20 PUSH2 0x5B07 DUP4 CODECOPY DUP2 MLOAD SWAP2 MSTORE PUSH2 0x5092 JUMP JUMPDEST PUSH2 0xC71 PUSH2 0x5852 JUMP JUMPDEST PUSH1 0x40 MLOAD PUSH2 0xC7D DUP2 PUSH2 0x4D29 JUMP JUMPDEST PUSH1 0x7 DUP2 MSTORE PUSH1 0xE0 CALLDATASIZE PUSH1 0x20 DUP4 ADD CALLDATACOPY PUSH2 0xC91 PUSH2 0x54A2 JUMP JUMPDEST PUSH1 0x40 MLOAD SWAP2 PUSH2 0xC9E DUP4 PUSH2 0x4CBD JUMP JUMPDEST PUSH1 0x40 MLOAD PUSH2 0xCAA DUP2 PUSH2 0x4CF3 JUMP JUMPDEST PUSH1 0xC DUP2 MSTORE PUSH12 0x1119519A48141C9BDA9958DD PUSH1 0xA2 SHL PUSH1 0x20 DUP3 ADD MSTORE DUP4 MSTORE PUSH1 0x20 DUP4 ADD MSTORE PUSH1 0x40 DUP3 ADD MSTORE PUSH1 0x1 PUSH1 0x60 DUP3 ADD MSTORE PUSH1 0x3 PUSH1 0x0 MSTORE PUSH1 0x6B PUSH1 0x20 MSTORE PUSH1 0x40 PUSH1 0x0 KECCAK256 SWAP1 DUP1 MLOAD DUP1 MLOAD SWAP1 PUSH1 0x1 PUSH1 0x1 PUSH1 0x40 SHL SUB DUP3 GT PUSH2 0x1501 JUMPI PUSH2 0xD07 DUP3 PUSH2 0x5BB DUP7 SLOAD PUSH2 0x4E17 JUMP JUMPDEST PUSH1 0x20 SWAP1 PUSH1 0x1F DUP4 GT PUSH1 0x1 EQ PUSH2 0x1734 JUMPI PUSH2 0xD37 SWAP3 SWAP2 PUSH1 0x0 SWAP2 DUP4 PUSH2 0x157E JUMPI POP POP DUP2 PUSH1 0x1 SHL SWAP2 PUSH1 0x0 NOT SWAP1 PUSH1 0x3 SHL SHR NOT AND OR SWAP1 JUMP JUMPDEST DUP3 SSTORE JUMPDEST PUSH1 0x20 DUP2 ADD MLOAD DUP1 MLOAD SWAP1 PUSH1 0x1 PUSH1 0x1 PUSH1 0x40 SHL SUB DUP3 GT PUSH2 0x1501 JUMPI PUSH1 0x1 PUSH1 0x40 SHL DUP3 GT PUSH2 0x1501 JUMPI PUSH1 0x20 SWAP1 PUSH1 0x1 DUP6 ADD SLOAD DUP4 PUSH1 0x1 DUP8 ADD SSTORE DUP1 DUP5 LT PUSH2 0x1714 JUMPI JUMPDEST POP ADD PUSH1 0x1 DUP5 ADD PUSH1 0x0 MSTORE PUSH1 0x20 PUSH1 0x0 KECCAK256 PUSH1 0x0 JUMPDEST DUP4 DUP2 LT PUSH2 0x1700 JUMPI POP POP POP POP PUSH1 0x40 DUP2 ADD MLOAD DUP1 MLOAD SWAP1 PUSH1 0x1 PUSH1 0x40 SHL DUP3 GT PUSH2 0x1501 JUMPI PUSH1 0x2 DUP5 ADD SLOAD DUP3 PUSH1 0x2 DUP7 ADD SSTORE DUP1 DUP4 LT PUSH2 0x16CD JUMPI JUMPDEST POP PUSH1 0x20 ADD SWAP1 PUSH1 0x2 DUP5 ADD PUSH1 0x0 MSTORE PUSH1 0x20 PUSH1 0x0 KECCAK256 SWAP2 PUSH1 0x0 SWAP1 JUMPDEST DUP3 DUP3 LT PUSH2 0x15F5 JUMPI DUP8 DUP8 PUSH2 0xDF2 DUP9 PUSH1 0x3 PUSH1 0x60 DUP11 ADD MLOAD ISZERO ISZERO SWAP2 ADD SWAP1 PUSH1 0xFF DUP1 NOT DUP4 SLOAD AND SWAP2 ISZERO ISZERO AND OR SWAP1 SSTORE JUMP JUMPDEST PUSH1 0x3 PUSH1 0x0 MSTORE PUSH1 0x6B PUSH1 0x20 MSTORE PUSH2 0xE2F PUSH2 0xE16 PUSH1 0x0 DUP1 MLOAD PUSH1 0x20 PUSH2 0x5AC7 DUP4 CODECOPY DUP2 MLOAD SWAP2 MSTORE PUSH2 0x5011 JUMP JUMPDEST DUP2 SWAP3 SWAP2 SLOAD SWAP1 PUSH1 0x3 SHL SWAP1 PUSH1 0x1E DUP3 SHL SWAP2 PUSH1 0x0 NOT SWAP1 SHL NOT AND OR SWAP1 JUMP JUMPDEST SWAP1 SSTORE PUSH1 0x3 PUSH1 0x0 MSTORE PUSH1 0x6B PUSH1 0x20 MSTORE PUSH2 0xE6E PUSH2 0xE55 PUSH1 0x0 DUP1 MLOAD PUSH1 0x20 PUSH2 0x5AC7 DUP4 CODECOPY DUP2 MLOAD SWAP2 MSTORE PUSH2 0x5026 JUMP JUMPDEST DUP2 SWAP3 SWAP2 SLOAD SWAP1 PUSH1 0x3 SHL SWAP1 PUSH1 0x19 DUP3 SHL SWAP2 PUSH1 0x0 NOT SWAP1 SHL NOT AND OR SWAP1 JUMP JUMPDEST SWAP1 SSTORE PUSH1 0x3 PUSH1 0x0 MSTORE PUSH1 0x6B PUSH1 0x20 MSTORE PUSH2 0xE94 PUSH2 0x74F PUSH1 0x0 DUP1 MLOAD PUSH1 0x20 PUSH2 0x5AC7 DUP4 CODECOPY DUP2 MLOAD SWAP2 MSTORE PUSH2 0x5041 JUMP JUMPDEST SWAP1 SSTORE PUSH1 0x3 PUSH1 0x0 MSTORE PUSH1 0x6B PUSH1 0x20 MSTORE PUSH2 0xEBA PUSH2 0x78E PUSH1 0x0 DUP1 MLOAD PUSH1 0x20 PUSH2 0x5AC7 DUP4 CODECOPY DUP2 MLOAD SWAP2 MSTORE PUSH2 0x505C JUMP JUMPDEST SWAP1 SSTORE PUSH1 0x3 PUSH1 0x0 MSTORE PUSH1 0x6B PUSH1 0x20 MSTORE PUSH2 0xEE0 PUSH2 0x78E PUSH1 0x0 DUP1 MLOAD PUSH1 0x20 PUSH2 0x5AC7 DUP4 CODECOPY DUP2 MLOAD SWAP2 MSTORE PUSH2 0x5077 JUMP JUMPDEST SWAP1 SSTORE PUSH1 0x3 PUSH1 0x0 MSTORE PUSH1 0x6B PUSH1 0x20 MSTORE PUSH2 0xF06 PUSH2 0x7CD PUSH1 0x0 DUP1 MLOAD PUSH1 0x20 PUSH2 0x5AC7 DUP4 CODECOPY DUP2 MLOAD SWAP2 MSTORE PUSH2 0x5092 JUMP JUMPDEST SWAP1 SSTORE PUSH1 0x3 PUSH1 0x0 MSTORE PUSH1 0x6B PUSH1 0x20 MSTORE PUSH2 0xF2C PUSH2 0x7CD PUSH1 0x0 DUP1 MLOAD PUSH1 0x20 PUSH2 0x5AC7 DUP4 CODECOPY DUP2 MLOAD SWAP2 MSTORE PUSH2 0x50AD JUMP JUMPDEST SWAP1 SSTORE PUSH1 0x3 PUSH1 0x0 MSTORE PUSH1 0x6B PUSH1 0x20 MSTORE PUSH2 0xF4F PUSH1 0x0 DUP1 MLOAD PUSH1 0x20 PUSH2 0x5B67 DUP4 CODECOPY DUP2 MLOAD SWAP2 MSTORE PUSH2 0x5011 JUMP JUMPDEST PUSH2 0x1402 JUMPI PUSH2 0xF60 PUSH2 0x86E DUP3 SLOAD PUSH2 0x4E17 JUMP JUMPDEST PUSH1 0x26 PUSH19 0x2634B8BAB4B234BA3C90283937BB34B9B4B7B7 PUSH1 0x69 SHL ADD SWAP1 SSTORE PUSH1 0x3 PUSH1 0x0 MSTORE PUSH1 0x6B PUSH1 0x20 MSTORE PUSH2 0xF9D PUSH1 0x0 DUP1 MLOAD PUSH1 0x20 PUSH2 0x5B67 DUP4 CODECOPY DUP2 MLOAD SWAP2 MSTORE PUSH2 0x5026 JUMP JUMPDEST PUSH2 0x1402 JUMPI PUSH2 0xFAE PUSH2 0x86E DUP3 SLOAD PUSH2 0x4E17 JUMP JUMPDEST PUSH32 0x436F6D6D756E69747920496E63656E7469766573000000000000000000000028 SWAP1 SSTORE PUSH1 0x3 PUSH1 0x0 MSTORE PUSH1 0x6B PUSH1 0x20 MSTORE PUSH2 0xFF5 PUSH2 0x836 PUSH1 0x0 DUP1 MLOAD PUSH1 0x20 PUSH2 0x5B67 DUP4 CODECOPY DUP2 MLOAD SWAP2 MSTORE PUSH2 0x5041 JUMP JUMPDEST PUSH1 0x3 PUSH1 0x0 MSTORE PUSH1 0x6B PUSH1 0x20 MSTORE PUSH2 0x1019 PUSH2 0x80C PUSH1 0x0 DUP1 MLOAD PUSH1 0x20 PUSH2 0x5B67 DUP4 CODECOPY DUP2 MLOAD SWAP2 MSTORE PUSH2 0x505C JUMP JUMPDEST PUSH1 0x3 PUSH1 0x0 MSTORE PUSH1 0x6B PUSH1 0x20 MSTORE PUSH2 0x103D PUSH2 0xC1B PUSH1 0x0 DUP1 MLOAD PUSH1 0x20 PUSH2 0x5B67 DUP4 CODECOPY DUP2 MLOAD SWAP2 MSTORE PUSH2 0x5077 JUMP JUMPDEST PUSH1 0x3 PUSH1 0x0 MSTORE PUSH1 0x6B PUSH1 0x20 MSTORE PUSH2 0x1061 PUSH2 0x8A8 PUSH1 0x0 DUP1 MLOAD PUSH1 0x20 PUSH2 0x5B67 DUP4 CODECOPY DUP2 MLOAD SWAP2 MSTORE PUSH2 0x5092 JUMP JUMPDEST PUSH1 0x3 PUSH1 0x0 MSTORE PUSH1 0x6B PUSH1 0x20 MSTORE PUSH2 0x1082 PUSH1 0x0 DUP1 MLOAD PUSH1 0x20 PUSH2 0x5B67 DUP4 CODECOPY DUP2 MLOAD SWAP2 MSTORE PUSH2 0x50AD JUMP JUMPDEST PUSH2 0x1402 JUMPI PUSH2 0x1093 PUSH2 0x86E DUP3 SLOAD PUSH2 0x4E17 JUMP JUMPDEST PUSH1 0x18 PUSH12 0x506172746E65727368697073 PUSH1 0xA0 SHL ADD SWAP1 SSTORE PUSH2 0x10B0 PUSH2 0x5889 JUMP JUMPDEST PUSH1 0x40 MLOAD PUSH2 0x10BC DUP2 PUSH2 0x4CA2 JUMP JUMPDEST PUSH1 0x4 DUP2 MSTORE PUSH1 0x80 CALLDATASIZE PUSH1 0x20 DUP4 ADD CALLDATACOPY PUSH2 0x10D0 PUSH2 0x54D4 JUMP JUMPDEST PUSH1 0x40 MLOAD SWAP2 PUSH2 0x10DD DUP4 PUSH2 0x4CBD JUMP JUMPDEST PUSH1 0x40 MLOAD PUSH2 0x10E9 DUP2 PUSH2 0x4CF3 JUMP JUMPDEST PUSH1 0x12 DUP2 MSTORE PUSH18 0x22B8BAB0B6102234B9BA3934B13ABA34B7B7 PUSH1 0x71 SHL PUSH1 0x20 DUP3 ADD MSTORE DUP4 MSTORE PUSH1 0x20 DUP4 ADD MSTORE PUSH1 0x40 DUP3 ADD MSTORE PUSH1 0x1 PUSH1 0x60 DUP3 ADD MSTORE PUSH1 0x4 PUSH1 0x0 MSTORE PUSH1 0x6B PUSH1 0x20 MSTORE PUSH1 0x40 PUSH1 0x0 KECCAK256 SWAP1 DUP1 MLOAD DUP1 MLOAD SWAP1 PUSH1 0x1 PUSH1 0x1 PUSH1 0x40 SHL SUB DUP3 GT PUSH2 0x1501 JUMPI PUSH2 0x114C DUP3 PUSH2 0x5BB DUP7 SLOAD PUSH2 0x4E17 JUMP JUMPDEST PUSH1 0x20 SWAP1 PUSH1 0x1F DUP4 GT PUSH1 0x1 EQ PUSH2 0x1589 JUMPI PUSH2 0x117C SWAP3 SWAP2 PUSH1 0x0 SWAP2 DUP4 PUSH2 0x157E JUMPI POP POP DUP2 PUSH1 0x1 SHL SWAP2 PUSH1 0x0 NOT SWAP1 PUSH1 0x3 SHL SHR NOT AND OR SWAP1 JUMP JUMPDEST DUP3 SSTORE JUMPDEST PUSH1 0x20 DUP2 ADD MLOAD DUP1 MLOAD SWAP1 PUSH1 0x1 PUSH1 0x1 PUSH1 0x40 SHL SUB DUP3 GT PUSH2 0x1501 JUMPI PUSH1 0x1 PUSH1 0x40 SHL DUP3 GT PUSH2 0x1501 JUMPI PUSH1 0x20 SWAP1 PUSH1 0x1 DUP6 ADD SLOAD DUP4 PUSH1 0x1 DUP8 ADD SSTORE DUP1 DUP5 LT PUSH2 0x155E JUMPI JUMPDEST POP ADD PUSH1 0x1 DUP5 ADD PUSH1 0x0 MSTORE PUSH1 0x20 PUSH1 0x0 KECCAK256 PUSH1 0x0 JUMPDEST DUP4 DUP2 LT PUSH2 0x154A JUMPI POP POP POP POP PUSH1 0x40 DUP2 ADD MLOAD DUP1 MLOAD SWAP1 PUSH1 0x1 PUSH1 0x40 SHL DUP3 GT PUSH2 0x1501 JUMPI PUSH1 0x2 DUP5 ADD SLOAD DUP3 PUSH1 0x2 DUP7 ADD SSTORE DUP1 DUP4 LT PUSH2 0x1517 JUMPI JUMPDEST POP PUSH1 0x20 ADD SWAP1 PUSH1 0x2 DUP5 ADD PUSH1 0x0 MSTORE PUSH1 0x20 PUSH1 0x0 KECCAK256 SWAP2 PUSH1 0x0 SWAP1 JUMPDEST DUP3 DUP3 LT PUSH2 0x1418 JUMPI DUP8 DUP8 PUSH2 0x1237 DUP9 PUSH1 0x3 PUSH1 0x60 DUP11 ADD MLOAD ISZERO ISZERO SWAP2 ADD SWAP1 PUSH1 0xFF DUP1 NOT DUP4 SLOAD AND SWAP2 ISZERO ISZERO AND OR SWAP1 SSTORE JUMP JUMPDEST PUSH1 0x4 PUSH1 0x0 MSTORE PUSH1 0x6B PUSH1 0x20 MSTORE PUSH2 0x125B PUSH2 0xE55 PUSH1 0x0 DUP1 MLOAD PUSH1 0x20 PUSH2 0x5A87 DUP4 CODECOPY DUP2 MLOAD SWAP2 MSTORE PUSH2 0x5011 JUMP JUMPDEST SWAP1 SSTORE PUSH1 0x4 PUSH1 0x0 MSTORE PUSH1 0x6B PUSH1 0x20 MSTORE PUSH2 0x1281 PUSH2 0xE55 PUSH1 0x0 DUP1 MLOAD PUSH1 0x20 PUSH2 0x5A87 DUP4 CODECOPY DUP2 MLOAD SWAP2 MSTORE PUSH2 0x5026 JUMP JUMPDEST SWAP1 SSTORE PUSH1 0x4 PUSH1 0x0 MSTORE PUSH1 0x6B PUSH1 0x20 MSTORE PUSH2 0x12A7 PUSH2 0xE55 PUSH1 0x0 DUP1 MLOAD PUSH1 0x20 PUSH2 0x5A87 DUP4 CODECOPY DUP2 MLOAD SWAP2 MSTORE PUSH2 0x5041 JUMP JUMPDEST SWAP1 SSTORE PUSH1 0x4 PUSH1 0x0 MSTORE PUSH1 0x6B PUSH1 0x20 MSTORE PUSH2 0x12CD PUSH2 0xE55 PUSH1 0x0 DUP1 MLOAD PUSH1 0x20 PUSH2 0x5A87 DUP4 CODECOPY DUP2 MLOAD SWAP2 MSTORE PUSH2 0x505C JUMP JUMPDEST SWAP1 SSTORE PUSH1 0x4 PUSH1 0x0 MSTORE PUSH1 0x6B PUSH1 0x20 MSTORE PUSH2 0x12F0 PUSH1 0x0 DUP1 MLOAD PUSH1 0x20 PUSH2 0x5B47 DUP4 CODECOPY DUP2 MLOAD SWAP2 MSTORE PUSH2 0x5011 JUMP JUMPDEST PUSH2 0x1402 JUMPI PUSH2 0x1301 PUSH2 0x86E DUP3 SLOAD PUSH2 0x4E17 JUMP JUMPDEST PUSH1 0xC PUSH6 0x5075626C6963 PUSH1 0xD0 SHL ADD SWAP1 SSTORE PUSH1 0x4 PUSH1 0x0 MSTORE PUSH1 0x6B PUSH1 0x20 MSTORE PUSH2 0x1334 PUSH2 0x836 PUSH1 0x0 DUP1 MLOAD PUSH1 0x20 PUSH2 0x5B47 DUP4 CODECOPY DUP2 MLOAD SWAP2 MSTORE PUSH2 0x5026 JUMP JUMPDEST PUSH1 0x4 PUSH1 0x0 MSTORE PUSH1 0x6B PUSH1 0x20 MSTORE PUSH2 0x1358 PUSH2 0xC1B PUSH1 0x0 DUP1 MLOAD PUSH1 0x20 PUSH2 0x5B47 DUP4 CODECOPY DUP2 MLOAD SWAP2 MSTORE PUSH2 0x5041 JUMP JUMPDEST PUSH1 0x4 PUSH1 0x0 MSTORE PUSH1 0x6B PUSH1 0x20 MSTORE PUSH2 0x137C PUSH2 0x8A8 PUSH1 0x0 DUP1 MLOAD PUSH1 0x20 PUSH2 0x5B47 DUP4 CODECOPY DUP2 MLOAD SWAP2 MSTORE PUSH2 0x505C JUMP JUMPDEST PUSH2 0x1384 PUSH2 0x58C0 JUMP JUMPDEST PUSH2 0x13C7 JUMPI JUMPDEST PUSH2 0x138F JUMPI STOP JUMPDEST PUSH2 0xFF00 NOT PUSH1 0x0 SLOAD AND PUSH1 0x0 SSTORE PUSH32 0x7F26B83FF96E1F2B6A682F133852F6798A09C465DA95921460CEFB3847402498 PUSH1 0x20 PUSH1 0x40 MLOAD PUSH1 0x1 DUP2 MSTORE LOG1 STOP JUMPDEST PUSH2 0xFF00 NOT PUSH1 0x0 SLOAD AND PUSH1 0x0 SSTORE PUSH32 0x7F26B83FF96E1F2B6A682F133852F6798A09C465DA95921460CEFB3847402498 PUSH1 0x20 PUSH1 0x40 MLOAD PUSH1 0x1 DUP2 MSTORE LOG1 PUSH2 0x1389 JUMP JUMPDEST PUSH4 0x4E487B71 PUSH1 0xE0 SHL PUSH1 0x0 MSTORE PUSH1 0x0 PUSH1 0x4 MSTORE PUSH1 0x24 PUSH1 0x0 REVERT JUMPDEST DUP1 MLOAD DUP1 MLOAD SWAP1 PUSH1 0x1 PUSH1 0x1 PUSH1 0x40 SHL SUB DUP3 GT PUSH2 0x1501 JUMPI PUSH2 0x143F DUP3 PUSH2 0x1439 DUP9 SLOAD PUSH2 0x4E17 JUMP JUMPDEST DUP9 PUSH2 0x5165 JUMP JUMPDEST PUSH1 0x20 SWAP1 PUSH1 0x1F DUP4 GT PUSH1 0x1 EQ PUSH2 0x1491 JUMPI SWAP3 PUSH2 0x1477 DUP4 PUSH1 0x1 SWAP6 SWAP5 PUSH1 0x20 SWAP5 DUP8 SWAP7 PUSH1 0x0 SWAP3 PUSH2 0x1486 JUMPI POP POP DUP2 PUSH1 0x1 SHL SWAP2 PUSH1 0x0 NOT SWAP1 PUSH1 0x3 SHL SHR NOT AND OR SWAP1 JUMP JUMPDEST DUP8 SSTORE JUMPDEST ADD SWAP5 ADD SWAP2 ADD SWAP1 SWAP3 PUSH2 0x120E JUMP JUMPDEST ADD MLOAD SWAP1 POP DUP15 DUP1 PUSH2 0x5DD JUMP JUMPDEST SWAP1 DUP7 PUSH1 0x0 MSTORE PUSH1 0x20 PUSH1 0x0 KECCAK256 SWAP2 PUSH1 0x0 JUMPDEST PUSH1 0x1F NOT DUP6 AND DUP2 LT PUSH2 0x14E9 JUMPI POP DUP4 PUSH1 0x20 SWAP4 PUSH1 0x1 SWAP7 SWAP4 DUP8 SWAP7 SWAP4 DUP8 SWAP5 PUSH1 0x1F NOT DUP2 AND LT PUSH2 0x14D0 JUMPI JUMPDEST POP POP POP DUP2 SHL ADD DUP8 SSTORE PUSH2 0x147A JUMP JUMPDEST ADD MLOAD PUSH1 0x0 NOT PUSH1 0xF8 DUP5 PUSH1 0x3 SHL AND SHR NOT AND SWAP1 SSTORE DUP14 DUP1 DUP1 PUSH2 0x14C3 JUMP JUMPDEST SWAP2 SWAP3 PUSH1 0x20 PUSH1 0x1 DUP2 SWAP3 DUP7 DUP6 ADD MLOAD DUP2 SSTORE ADD SWAP5 ADD SWAP3 ADD PUSH2 0x149F JUMP JUMPDEST PUSH4 0x4E487B71 PUSH1 0xE0 SHL PUSH1 0x0 MSTORE PUSH1 0x41 PUSH1 0x4 MSTORE PUSH1 0x24 PUSH1 0x0 REVERT JUMPDEST PUSH1 0x2 DUP6 ADD PUSH1 0x0 MSTORE PUSH1 0x20 PUSH1 0x0 KECCAK256 SWAP1 DUP4 DUP3 ADD JUMPDEST DUP2 DUP4 ADD DUP2 LT PUSH2 0x1538 JUMPI POP POP PUSH2 0x11F8 JUMP JUMPDEST DUP1 PUSH2 0x1544 PUSH1 0x1 SWAP3 PUSH2 0x5513 JUMP JUMPDEST ADD PUSH2 0x1528 JUMP JUMPDEST PUSH1 0x1 SWAP1 PUSH1 0x20 DUP5 MLOAD SWAP5 ADD SWAP4 DUP2 DUP5 ADD SSTORE ADD PUSH2 0x11C7 JUMP JUMPDEST PUSH2 0x1578 SWAP1 PUSH1 0x1 DUP8 ADD PUSH1 0x0 MSTORE DUP5 DUP5 PUSH1 0x0 KECCAK256 SWAP2 DUP3 ADD SWAP2 ADD PUSH2 0x5124 JUMP JUMPDEST DUP8 PUSH2 0x11B6 JUMP JUMPDEST ADD MLOAD SWAP1 POP DUP8 DUP1 PUSH2 0x5DD JUMP JUMPDEST SWAP2 SWAP1 DUP5 PUSH1 0x0 MSTORE PUSH1 0x20 PUSH1 0x0 KECCAK256 SWAP1 PUSH1 0x0 SWAP4 JUMPDEST PUSH1 0x1F NOT DUP5 AND DUP6 LT PUSH2 0x15DA JUMPI PUSH1 0x1 SWAP5 POP DUP4 PUSH1 0x1F NOT DUP2 AND LT PUSH2 0x15C1 JUMPI JUMPDEST POP POP POP DUP2 SHL ADD DUP3 SSTORE PUSH2 0x117F JUMP JUMPDEST ADD MLOAD PUSH1 0x0 NOT PUSH1 0xF8 DUP5 PUSH1 0x3 SHL AND SHR NOT AND SWAP1 SSTORE DUP7 DUP1 DUP1 PUSH2 0x15B4 JUMP JUMPDEST DUP2 DUP2 ADD MLOAD DUP4 SSTORE PUSH1 0x20 SWAP5 DUP6 ADD SWAP5 PUSH1 0x1 SWAP1 SWAP4 ADD SWAP3 SWAP1 SWAP2 ADD SWAP1 PUSH2 0x1599 JUMP JUMPDEST DUP1 MLOAD DUP1 MLOAD SWAP1 PUSH1 0x1 PUSH1 0x1 PUSH1 0x40 SHL SUB DUP3 GT PUSH2 0x1501 JUMPI PUSH2 0x1616 DUP3 PUSH2 0x1439 DUP9 SLOAD PUSH2 0x4E17 JUMP JUMPDEST PUSH1 0x20 SWAP1 PUSH1 0x1F DUP4 GT PUSH1 0x1 EQ PUSH2 0x165D JUMPI SWAP3 PUSH2 0x164E DUP4 PUSH1 0x1 SWAP6 SWAP5 PUSH1 0x20 SWAP5 DUP8 SWAP7 PUSH1 0x0 SWAP3 PUSH2 0x1486 JUMPI POP POP DUP2 PUSH1 0x1 SHL SWAP2 PUSH1 0x0 NOT SWAP1 PUSH1 0x3 SHL SHR NOT AND OR SWAP1 JUMP JUMPDEST DUP8 SSTORE JUMPDEST ADD SWAP5 ADD SWAP2 ADD SWAP1 SWAP3 PUSH2 0xDC9 JUMP JUMPDEST SWAP1 DUP7 PUSH1 0x0 MSTORE PUSH1 0x20 PUSH1 0x0 KECCAK256 SWAP2 PUSH1 0x0 JUMPDEST PUSH1 0x1F NOT DUP6 AND DUP2 LT PUSH2 0x16B5 JUMPI POP DUP4 PUSH1 0x20 SWAP4 PUSH1 0x1 SWAP7 SWAP4 DUP8 SWAP7 SWAP4 DUP8 SWAP5 PUSH1 0x1F NOT DUP2 AND LT PUSH2 0x169C JUMPI JUMPDEST POP POP POP DUP2 SHL ADD DUP8 SSTORE PUSH2 0x1651 JUMP JUMPDEST ADD MLOAD PUSH1 0x0 NOT PUSH1 0xF8 DUP5 PUSH1 0x3 SHL AND SHR NOT AND SWAP1 SSTORE DUP14 DUP1 DUP1 PUSH2 0x168F JUMP JUMPDEST SWAP2 SWAP3 PUSH1 0x20 PUSH1 0x1 DUP2 SWAP3 DUP7 DUP6 ADD MLOAD DUP2 SSTORE ADD SWAP5 ADD SWAP3 ADD PUSH2 0x166B JUMP JUMPDEST PUSH1 0x2 DUP6 ADD PUSH1 0x0 MSTORE PUSH1 0x20 PUSH1 0x0 KECCAK256 SWAP1 DUP4 DUP3 ADD JUMPDEST DUP2 DUP4 ADD DUP2 LT PUSH2 0x16EE JUMPI POP POP PUSH2 0xDB3 JUMP JUMPDEST DUP1 PUSH2 0x16FA PUSH1 0x1 SWAP3 PUSH2 0x5513 JUMP JUMPDEST ADD PUSH2 0x16DE JUMP JUMPDEST PUSH1 0x1 SWAP1 PUSH1 0x20 DUP5 MLOAD SWAP5 ADD SWAP4 DUP2 DUP5 ADD SSTORE ADD PUSH2 0xD82 JUMP JUMPDEST PUSH2 0x172E SWAP1 PUSH1 0x1 DUP8 ADD PUSH1 0x0 MSTORE DUP5 DUP5 PUSH1 0x0 KECCAK256 SWAP2 DUP3 ADD SWAP2 ADD PUSH2 0x5124 JUMP JUMPDEST DUP8 PUSH2 0xD71 JUMP JUMPDEST SWAP2 SWAP1 DUP5 PUSH1 0x0 MSTORE PUSH1 0x20 PUSH1 0x0 KECCAK256 SWAP1 PUSH1 0x0 SWAP4 JUMPDEST PUSH1 0x1F NOT DUP5 AND DUP6 LT PUSH2 0x1785 JUMPI PUSH1 0x1 SWAP5 POP DUP4 PUSH1 0x1F NOT DUP2 AND LT PUSH2 0x176C JUMPI JUMPDEST POP POP POP DUP2 SHL ADD DUP3 SSTORE PUSH2 0xD3A JUMP JUMPDEST ADD MLOAD PUSH1 0x0 NOT PUSH1 0xF8 DUP5 PUSH1 0x3 SHL AND SHR NOT AND SWAP1 SSTORE DUP7 DUP1 DUP1 PUSH2 0x175F JUMP JUMPDEST DUP2 DUP2 ADD MLOAD DUP4 SSTORE PUSH1 0x20 SWAP5 DUP6 ADD SWAP5 PUSH1 0x1 SWAP1 SWAP4 ADD SWAP3 SWAP1 SWAP2 ADD SWAP1 PUSH2 0x1744 JUMP JUMPDEST DUP1 MLOAD DUP1 MLOAD SWAP1 PUSH1 0x1 PUSH1 0x1 PUSH1 0x40 SHL SUB DUP3 GT PUSH2 0x1501 JUMPI PUSH2 0x17C1 DUP3 PUSH2 0x1439 DUP9 SLOAD PUSH2 0x4E17 JUMP JUMPDEST PUSH1 0x20 SWAP1 PUSH1 0x1F DUP4 GT PUSH1 0x1 EQ PUSH2 0x1808 JUMPI SWAP3 PUSH2 0x17F9 DUP4 PUSH1 0x1 SWAP6 SWAP5 PUSH1 0x20 SWAP5 DUP8 SWAP7 PUSH1 0x0 SWAP3 PUSH2 0x1486 JUMPI POP POP DUP2 PUSH1 0x1 SHL SWAP2 PUSH1 0x0 NOT SWAP1 PUSH1 0x3 SHL SHR NOT AND OR SWAP1 JUMP JUMPDEST DUP8 SSTORE JUMPDEST ADD SWAP5 ADD SWAP2 ADD SWAP1 SWAP3 PUSH2 0xA3D JUMP JUMPDEST SWAP1 DUP7 PUSH1 0x0 MSTORE PUSH1 0x20 PUSH1 0x0 KECCAK256 SWAP2 PUSH1 0x0 JUMPDEST PUSH1 0x1F NOT DUP6 AND DUP2 LT PUSH2 0x1860 JUMPI POP DUP4 PUSH1 0x20 SWAP4 PUSH1 0x1 SWAP7 SWAP4 DUP8 SWAP7 SWAP4 DUP8 SWAP5 PUSH1 0x1F NOT DUP2 AND LT PUSH2 0x1847 JUMPI JUMPDEST POP POP POP DUP2 SHL ADD DUP8 SSTORE PUSH2 0x17FC JUMP JUMPDEST ADD MLOAD PUSH1 0x0 NOT PUSH1 0xF8 DUP5 PUSH1 0x3 SHL AND SHR NOT AND SWAP1 SSTORE DUP14 DUP1 DUP1 PUSH2 0x183A JUMP JUMPDEST SWAP2 SWAP3 PUSH1 0x20 PUSH1 0x1 DUP2 SWAP3 DUP7 DUP6 ADD MLOAD DUP2 SSTORE ADD SWAP5 ADD SWAP3 ADD PUSH2 0x1816 JUMP JUMPDEST PUSH1 0x2 DUP6 ADD PUSH1 0x0 MSTORE PUSH1 0x20 PUSH1 0x0 KECCAK256 SWAP1 DUP4 DUP3 ADD JUMPDEST DUP2 DUP4 ADD DUP2 LT PUSH2 0x1899 JUMPI POP POP PUSH2 0xA27 JUMP JUMPDEST DUP1 PUSH2 0x18A5 PUSH1 0x1 SWAP3 PUSH2 0x5513 JUMP JUMPDEST ADD PUSH2 0x1889 JUMP JUMPDEST PUSH1 0x1 SWAP1 PUSH1 0x20 DUP5 MLOAD SWAP5 ADD SWAP4 DUP2 DUP5 ADD SSTORE ADD PUSH2 0x9F6 JUMP JUMPDEST PUSH2 0x18D9 SWAP1 PUSH1 0x1 DUP8 ADD PUSH1 0x0 MSTORE DUP5 DUP5 PUSH1 0x0 KECCAK256 SWAP2 DUP3 ADD SWAP2 ADD PUSH2 0x5124 JUMP JUMPDEST DUP8 PUSH2 0x9E5 JUMP JUMPDEST SWAP2 SWAP1 DUP5 PUSH1 0x0 MSTORE PUSH1 0x20 PUSH1 0x0 KECCAK256 SWAP1 PUSH1 0x0 SWAP4 JUMPDEST PUSH1 0x1F NOT DUP5 AND DUP6 LT PUSH2 0x1930 JUMPI PUSH1 0x1 SWAP5 POP DUP4 PUSH1 0x1F NOT DUP2 AND LT PUSH2 0x1917 JUMPI JUMPDEST POP POP POP DUP2 SHL ADD DUP3 SSTORE PUSH2 0x9AE JUMP JUMPDEST ADD MLOAD PUSH1 0x0 NOT PUSH1 0xF8 DUP5 PUSH1 0x3 SHL AND SHR NOT AND SWAP1 SSTORE DUP7 DUP1 DUP1 PUSH2 0x190A JUMP JUMPDEST DUP2 DUP2 ADD MLOAD DUP4 SSTORE PUSH1 0x20 SWAP5 DUP6 ADD SWAP5 PUSH1 0x1 SWAP1 SWAP4 ADD SWAP3 SWAP1 SWAP2 ADD SWAP1 PUSH2 0x18EF JUMP JUMPDEST DUP1 MLOAD DUP1 MLOAD SWAP1 PUSH1 0x1 PUSH1 0x1 PUSH1 0x40 SHL SUB DUP3 GT PUSH2 0x1501 JUMPI PUSH2 0x196C DUP3 PUSH2 0x1439 DUP9 SLOAD PUSH2 0x4E17 JUMP JUMPDEST PUSH1 0x20 SWAP1 PUSH1 0x1F DUP4 GT PUSH1 0x1 EQ PUSH2 0x19B3 JUMPI SWAP3 PUSH2 0x19A4 DUP4 PUSH1 0x1 SWAP6 SWAP5 PUSH1 0x20 SWAP5 DUP8 SWAP7 PUSH1 0x0 SWAP3 PUSH2 0x1486 JUMPI POP POP DUP2 PUSH1 0x1 SHL SWAP2 PUSH1 0x0 NOT SWAP1 PUSH1 0x3 SHL SHR NOT AND OR SWAP1 JUMP JUMPDEST DUP8 SSTORE JUMPDEST ADD SWAP5 ADD SWAP2 ADD SWAP1 SWAP3 PUSH2 0x684 JUMP JUMPDEST SWAP1 DUP7 PUSH1 0x0 MSTORE PUSH1 0x20 PUSH1 0x0 KECCAK256 SWAP2 PUSH1 0x0 JUMPDEST PUSH1 0x1F NOT DUP6 AND DUP2 LT PUSH2 0x1A0B JUMPI POP DUP4 PUSH1 0x20 SWAP4 PUSH1 0x1 SWAP7 SWAP4 DUP8 SWAP7 SWAP4 DUP8 SWAP5 PUSH1 0x1F NOT DUP2 AND LT PUSH2 0x19F2 JUMPI JUMPDEST POP POP POP DUP2 SHL ADD DUP8 SSTORE PUSH2 0x19A7 JUMP JUMPDEST ADD MLOAD PUSH1 0x0 NOT PUSH1 0xF8 DUP5 PUSH1 0x3 SHL AND SHR NOT AND SWAP1 SSTORE DUP14 DUP1 DUP1 PUSH2 0x19E5 JUMP JUMPDEST SWAP2 SWAP3 PUSH1 0x20 PUSH1 0x1 DUP2 SWAP3 DUP7 DUP6 ADD MLOAD DUP2 SSTORE ADD SWAP5 ADD SWAP3 ADD PUSH2 0x19C1 JUMP JUMPDEST PUSH1 0x2 DUP6 ADD PUSH1 0x0 MSTORE PUSH1 0x20 PUSH1 0x0 KECCAK256 SWAP1 DUP4 DUP3 ADD JUMPDEST DUP2 DUP4 ADD DUP2 LT PUSH2 0x1A44 JUMPI POP POP PUSH2 0x66E JUMP JUMPDEST DUP1 PUSH2 0x1A50 PUSH1 0x1 SWAP3 PUSH2 0x5513 JUMP JUMPDEST ADD PUSH2 0x1A34 JUMP JUMPDEST PUSH1 0x1 SWAP1 PUSH1 0x20 DUP5 MLOAD SWAP5 ADD SWAP4 DUP2 DUP5 ADD SSTORE ADD PUSH2 0x63D JUMP JUMPDEST PUSH2 0x1A84 SWAP1 PUSH1 0x1 DUP8 ADD PUSH1 0x0 MSTORE DUP5 DUP5 PUSH1 0x0 KECCAK256 SWAP2 DUP3 ADD SWAP2 ADD PUSH2 0x5124 JUMP JUMPDEST DUP8 PUSH2 0x62C JUMP JUMPDEST SWAP2 SWAP1 DUP5 PUSH1 0x0 MSTORE PUSH1 0x20 PUSH1 0x0 KECCAK256 SWAP1 PUSH1 0x0 SWAP4 JUMPDEST PUSH1 0x1F NOT DUP5 AND DUP6 LT PUSH2 0x1ADB JUMPI PUSH1 0x1 SWAP5 POP DUP4 PUSH1 0x1F NOT DUP2 AND LT PUSH2 0x1AC2 JUMPI JUMPDEST POP POP POP DUP2 SHL ADD DUP3 SSTORE PUSH2 0x5F5 JUMP JUMPDEST ADD MLOAD PUSH1 0x0 NOT PUSH1 0xF8 DUP5 PUSH1 0x3 SHL AND SHR NOT AND SWAP1 SSTORE DUP7 DUP1 DUP1 PUSH2 0x1AB5 JUMP JUMPDEST DUP2 DUP2 ADD MLOAD DUP4 SSTORE PUSH1 0x20 SWAP5 DUP6 ADD SWAP5 PUSH1 0x1 SWAP1 SWAP4 ADD SWAP3 SWAP1 SWAP2 ADD SWAP1 PUSH2 0x1A9A JUMP JUMPDEST PUSH1 0x40 MLOAD PUSH3 0x461BCD PUSH1 0xE5 SHL DUP2 MSTORE PUSH1 0x20 PUSH1 0x4 DUP3 ADD MSTORE PUSH1 0x32 PUSH1 0x24 DUP3 ADD MSTORE PUSH32 0x5634446973747269627574696F6E4D6F64756C653A20746F6B656E2061646472 PUSH1 0x44 DUP3 ADD MSTORE PUSH18 0x6573732063616E6E6F74206265207A65726F PUSH1 0x70 SHL PUSH1 0x64 DUP3 ADD MSTORE PUSH1 0x84 SWAP1 REVERT JUMPDEST PUSH2 0xFFFF NOT AND PUSH2 0x101 OR PUSH1 0x0 SSTORE DUP10 PUSH2 0x4E6 JUMP JUMPDEST POP ADDRESS EXTCODESIZE ISZERO DUP1 ISZERO PUSH2 0x4D2 JUMPI POP DUP4 DUP6 AND DUP3 EQ PUSH2 0x4D2 JUMP JUMPDEST POP DUP2 DUP6 DUP6 AND LT PUSH2 0x4CB JUMP JUMPDEST PUSH1 0x0 NOT SWAP1 PUSH1 0x20 SUB PUSH1 0x3 SHL SHL AND DUP8 PUSH2 0x4A7 JUMP JUMPDEST PUSH1 0x40 MLOAD PUSH3 0x461BCD PUSH1 0xE5 SHL DUP2 MSTORE PUSH1 0x20 PUSH1 0x4 DUP3 ADD MSTORE PUSH1 0x31 PUSH1 0x24 DUP3 ADD MSTORE PUSH32 0x5634446973747269627574696F6E4D6F64756C653A20696E76616C696420696E PUSH1 0x44 DUP3 ADD MSTORE PUSH17 0x697469616C697A6174696F6E2064617461 PUSH1 0x78 SHL PUSH1 0x64 DUP3 ADD MSTORE PUSH1 0x84 SWAP1 REVERT JUMPDEST PUSH2 0xFFFF NOT AND PUSH2 0x101 OR PUSH1 0x0 SSTORE DUP7 PUSH2 0x48C JUMP JUMPDEST POP ADDRESS EXTCODESIZE ISZERO DUP1 ISZERO PUSH2 0x470 JUMPI POP DUP1 DUP5 AND PUSH1 0x1 EQ PUSH2 0x470 JUMP JUMPDEST POP PUSH1 0x1 DUP5 DUP3 AND LT PUSH2 0x469 JUMP JUMPDEST CALLVALUE PUSH2 0x146 JUMPI PUSH1 0xA0 CALLDATASIZE PUSH1 0x3 NOT ADD SLT PUSH2 0x146 JUMPI PUSH1 0x4 CALLDATALOAD PUSH1 0x1 PUSH1 0x1 PUSH1 0x40 SHL SUB DUP2 GT PUSH2 0x146 JUMPI PUSH2 0x1C5D SWAP1 CALLDATASIZE SWAP1 PUSH1 0x4 ADD PUSH2 0x4C72 JUMP JUMPDEST PUSH2 0x100 MSTORE PUSH2 0x200 MSTORE PUSH1 0x24 CALLDATALOAD PUSH1 0x1 PUSH1 0x1 PUSH1 0x40 SHL SUB DUP2 GT PUSH2 0x146 JUMPI PUSH2 0x1C84 SWAP1 CALLDATASIZE SWAP1 PUSH1 0x4 ADD PUSH2 0x4C72 JUMP JUMPDEST PUSH2 0x120 MSTORE PUSH2 0x1C0 MSTORE PUSH1 0x44 CALLDATALOAD PUSH1 0x1 PUSH1 0x1 PUSH1 0x40 SHL SUB DUP2 GT PUSH2 0x146 JUMPI PUSH2 0x1CAB SWAP1 CALLDATASIZE SWAP1 PUSH1 0x4 ADD PUSH2 0x4C72 JUMP JUMPDEST PUSH2 0x140 MSTORE PUSH2 0x1E0 MSTORE PUSH1 0x64 CALLDATALOAD PUSH1 0x1 PUSH1 0x1 PUSH1 0x40 SHL SUB DUP2 GT PUSH2 0x146 JUMPI PUSH2 0x1CD2 SWAP1 CALLDATASIZE SWAP1 PUSH1 0x4 ADD PUSH2 0x4C72 JUMP JUMPDEST PUSH2 0x1A0 MSTORE PUSH1 0xC0 MSTORE PUSH1 0x84 CALLDATALOAD PUSH1 0x1 PUSH1 0x1 PUSH1 0x40 SHL SUB DUP2 GT PUSH2 0x146 JUMPI PUSH2 0x1CF8 SWAP1 CALLDATASIZE SWAP1 PUSH1 0x4 ADD PUSH2 0x4C72 JUMP JUMPDEST PUSH2 0x160 MSTORE PUSH2 0x180 MSTORE PUSH2 0x1D08 PUSH2 0x5686 JUMP JUMPDEST PUSH2 0x1D17 PUSH1 0xFF PUSH1 0x6A SLOAD AND ISZERO PUSH2 0x4F12 JUMP JUMPDEST PUSH2 0x120 MLOAD PUSH2 0x100 MLOAD EQ DUP1 PUSH2 0x21BB JUMPI JUMPDEST DUP1 PUSH2 0x21AC JUMPI JUMPDEST DUP1 PUSH2 0x219D JUMPI JUMPDEST ISZERO PUSH2 0x2141 JUMPI PUSH1 0x0 PUSH1 0x80 MSTORE JUMPDEST PUSH2 0x100 MLOAD PUSH1 0x80 MLOAD LT PUSH2 0x1D54 JUMPI PUSH1 0x20 PUSH1 0x40 MLOAD PUSH1 0x1 DUP2 MSTORE RETURN JUMPDEST PUSH2 0x1D81 PUSH1 0x1 DUP1 PUSH1 0xA0 SHL SUB PUSH2 0x1D79 PUSH2 0x1D74 PUSH1 0x80 MLOAD PUSH2 0x100 MLOAD PUSH2 0x200 MLOAD PUSH2 0x5580 JUMP JUMPDEST PUSH2 0x5590 JUMP JUMPDEST AND ISZERO ISZERO PUSH2 0x520D JUMP JUMPDEST PUSH2 0x1D9F PUSH2 0x1D97 PUSH1 0x80 MLOAD PUSH2 0x120 MLOAD PUSH2 0x1C0 MLOAD PUSH2 0x5580 JUMP JUMPDEST CALLDATALOAD ISZERO ISZERO PUSH2 0x5275 JUMP JUMPDEST PUSH2 0x1DDC PUSH2 0x1DD6 PUSH1 0x1 DUP1 PUSH1 0xA0 SHL SUB PUSH2 0x1DC2 PUSH2 0x1D74 PUSH1 0x80 MLOAD PUSH2 0x100 MLOAD PUSH2 0x200 MLOAD PUSH2 0x5580 JUMP JUMPDEST AND PUSH1 0x0 MSTORE PUSH1 0x67 PUSH1 0x20 MSTORE PUSH1 0x40 PUSH1 0x0 KECCAK256 SLOAD ISZERO ISZERO SWAP1 JUMP JUMPDEST ISZERO PUSH2 0x52E0 JUMP JUMPDEST PUSH2 0x1DF6 PUSH2 0x1DF1 PUSH1 0x80 MLOAD PUSH2 0x1A0 MLOAD PUSH1 0xC0 MLOAD PUSH2 0x5580 JUMP JUMPDEST PUSH2 0x55A4 JUMP JUMPDEST PUSH2 0x211E JUMPI JUMPDEST PUSH2 0x1E11 PUSH2 0x1D74 PUSH1 0x80 MLOAD PUSH2 0x100 MLOAD PUSH2 0x200 MLOAD PUSH2 0x5580 JUMP JUMPDEST PUSH2 0x1EB1 PUSH2 0x1E27 PUSH1 0x80 MLOAD PUSH2 0x120 MLOAD PUSH2 0x1C0 MLOAD PUSH2 0x5580 JUMP JUMPDEST CALLDATALOAD SWAP2 PUSH2 0x1E3C PUSH1 0x80 MLOAD PUSH2 0x140 MLOAD PUSH2 0x1E0 MLOAD PUSH2 0x55B1 JUMP JUMPDEST SWAP3 SWAP1 PUSH2 0x1E53 PUSH2 0x1DF1 PUSH1 0x80 MLOAD PUSH2 0x1A0 MLOAD PUSH1 0xC0 MLOAD PUSH2 0x5580 JUMP JUMPDEST SWAP4 PUSH2 0x1E69 PUSH2 0x1DF1 PUSH1 0x80 MLOAD PUSH2 0x1A0 MLOAD PUSH1 0xC0 MLOAD PUSH2 0x5580 JUMP JUMPDEST ISZERO PUSH2 0x2116 JUMPI PUSH2 0x1E81 PUSH1 0x80 MLOAD PUSH2 0x160 MLOAD PUSH2 0x180 MLOAD PUSH2 0x5580 JUMP JUMPDEST CALLDATALOAD SWAP4 JUMPDEST PUSH1 0x40 MLOAD PUSH1 0xA0 MSTORE PUSH2 0x1E95 PUSH1 0xA0 MLOAD PUSH2 0x4CA2 JUMP JUMPDEST PUSH1 0x1 DUP1 PUSH1 0xA0 SHL SUB AND PUSH1 0xA0 MLOAD MSTORE PUSH1 0x20 PUSH1 0xA0 MLOAD ADD SWAP6 DUP7 MSTORE CALLDATASIZE SWAP2 PUSH2 0x53BA JUMP JUMPDEST SWAP2 PUSH1 0x40 PUSH1 0xA0 MLOAD ADD SWAP3 DUP4 MSTORE ISZERO ISZERO PUSH1 0x60 PUSH1 0xA0 MLOAD ADD MSTORE PUSH1 0x80 PUSH1 0xA0 MLOAD ADD MSTORE PUSH1 0x1 DUP1 PUSH1 0xA0 SHL SUB PUSH2 0x1EE8 PUSH2 0x1D74 PUSH1 0x80 MLOAD PUSH2 0x100 MLOAD PUSH2 0x200 MLOAD PUSH2 0x5580 JUMP JUMPDEST AND PUSH1 0x0 MSTORE PUSH1 0x68 PUSH1 0x20 MSTORE PUSH1 0x40 PUSH1 0x0 KECCAK256 SWAP2 PUSH1 0x1 DUP1 PUSH1 0xA0 SHL SUB PUSH1 0xA0 MLOAD MLOAD AND PUSH1 0x1 PUSH1 0x1 PUSH1 0x60 SHL SUB PUSH1 0xA0 SHL DUP5 SLOAD AND OR DUP4 SSTORE MLOAD PUSH1 0x1 DUP4 ADD SSTORE MLOAD SWAP1 DUP2 MLOAD PUSH1 0x1 PUSH1 0x1 PUSH1 0x40 SHL SUB DUP2 GT PUSH2 0x1501 JUMPI PUSH2 0x1F46 DUP2 PUSH2 0x1F3D PUSH1 0x2 DUP6 ADD SLOAD PUSH2 0x4E17 JUMP JUMPDEST PUSH1 0x2 DUP6 ADD PUSH2 0x5165 JUMP JUMPDEST PUSH1 0x20 PUSH1 0x1F DUP3 GT PUSH1 0x1 EQ PUSH2 0x20A1 JUMPI DUP2 SWAP1 PUSH2 0x1F76 SWAP4 SWAP5 PUSH1 0x0 SWAP3 PUSH2 0x2096 JUMPI POP POP DUP2 PUSH1 0x1 SHL SWAP2 PUSH1 0x0 NOT SWAP1 PUSH1 0x3 SHL SHR NOT AND OR SWAP1 JUMP JUMPDEST PUSH1 0x2 DUP3 ADD SSTORE JUMPDEST PUSH2 0x1F9D PUSH1 0x60 PUSH1 0xA0 MLOAD ADD MLOAD ISZERO ISZERO PUSH1 0x3 DUP4 ADD SWAP1 PUSH1 0xFF DUP1 NOT DUP4 SLOAD AND SWAP2 ISZERO ISZERO AND OR SWAP1 SSTORE JUMP JUMPDEST PUSH1 0x4 PUSH1 0x80 PUSH1 0xA0 MLOAD ADD MLOAD SWAP2 ADD SSTORE PUSH2 0x1FCF PUSH1 0x1 DUP1 PUSH1 0xA0 SHL SUB PUSH2 0x1FC9 PUSH2 0x1D74 PUSH1 0x80 MLOAD PUSH2 0x100 MLOAD PUSH2 0x200 MLOAD PUSH2 0x5580 JUMP JUMPDEST AND PUSH2 0x591F JUMP JUMPDEST POP PUSH2 0x1FE3 PUSH1 0x80 MLOAD PUSH2 0x120 MLOAD PUSH2 0x1C0 MLOAD PUSH2 0x5580 JUMP JUMPDEST CALLDATALOAD PUSH2 0x1FF1 PUSH1 0x69 SWAP2 DUP3 SLOAD PUSH2 0x5117 JUMP JUMPDEST SWAP1 SSTORE PUSH2 0x2009 PUSH2 0x1D74 PUSH1 0x80 MLOAD PUSH2 0x100 MLOAD PUSH2 0x200 MLOAD PUSH2 0x5580 JUMP JUMPDEST PUSH1 0x0 DUP1 MLOAD PUSH1 0x20 PUSH2 0x5AE7 DUP4 CODECOPY DUP2 MLOAD SWAP2 MSTORE PUSH2 0x2085 PUSH2 0x202E PUSH1 0x80 MLOAD PUSH2 0x120 MLOAD PUSH2 0x1C0 MLOAD PUSH2 0x5580 JUMP JUMPDEST CALLDATALOAD SWAP3 PUSH2 0x2043 PUSH1 0x80 MLOAD PUSH2 0x140 MLOAD PUSH2 0x1E0 MLOAD PUSH2 0x55B1 JUMP JUMPDEST PUSH2 0x205B PUSH2 0x1DF1 PUSH1 0x80 SWAP6 SWAP4 SWAP6 MLOAD PUSH2 0x1A0 MLOAD PUSH1 0xC0 MLOAD PUSH2 0x5580 JUMP JUMPDEST PUSH2 0x206E PUSH1 0x80 MLOAD PUSH2 0x160 MLOAD PUSH2 0x180 MLOAD PUSH2 0x5580 JUMP JUMPDEST CALLDATALOAD SWAP2 PUSH1 0x40 MLOAD SWAP6 DUP7 SWAP6 PUSH1 0x1 DUP1 PUSH1 0xA0 SHL SUB AND SWAP9 DUP7 PUSH2 0x53F1 JUMP JUMPDEST SUB SWAP1 LOG2 PUSH1 0x1 PUSH1 0x80 MLOAD ADD PUSH1 0x80 MSTORE PUSH2 0x1D3D JUMP JUMPDEST ADD MLOAD SWAP1 POP DUP5 DUP1 PUSH2 0x5DD JUMP JUMPDEST PUSH1 0x2 DUP4 ADD PUSH1 0x0 MSTORE PUSH1 0x20 PUSH1 0x0 KECCAK256 PUSH1 0xE0 MSTORE PUSH1 0x0 JUMPDEST PUSH1 0x1F NOT DUP4 AND DUP2 LT PUSH2 0x20F8 JUMPI POP PUSH1 0x1 SWAP3 SWAP4 DUP3 PUSH1 0x1F NOT DUP2 AND LT PUSH2 0x20DE JUMPI JUMPDEST POP POP DUP2 SHL ADD PUSH1 0x2 DUP3 ADD SSTORE PUSH2 0x1F7C JUMP JUMPDEST ADD MLOAD PUSH1 0x0 NOT PUSH1 0xF8 DUP4 PUSH1 0x3 SHL AND SHR NOT AND PUSH1 0xE0 MLOAD SSTORE DUP4 DUP1 PUSH2 0x20CF JUMP JUMPDEST SWAP1 PUSH1 0x20 DUP2 DUP2 SWAP3 DUP8 ADD MLOAD PUSH1 0xE0 MLOAD SSTORE PUSH1 0x1 PUSH1 0xE0 MLOAD ADD PUSH1 0xE0 MSTORE ADD SWAP2 ADD PUSH2 0x20B3 JUMP JUMPDEST PUSH1 0x0 SWAP4 PUSH2 0x1E84 JUMP JUMPDEST PUSH2 0x213C PUSH2 0x2134 PUSH1 0x80 MLOAD PUSH2 0x160 MLOAD PUSH2 0x180 MLOAD PUSH2 0x5580 JUMP JUMPDEST CALLDATALOAD TIMESTAMP LT PUSH2 0x5348 JUMP JUMPDEST PUSH2 0x1DFB JUMP JUMPDEST PUSH1 0x40 MLOAD PUSH3 0x461BCD PUSH1 0xE5 SHL DUP2 MSTORE PUSH1 0x20 PUSH1 0x4 DUP3 ADD MSTORE PUSH1 0x2E PUSH1 0x24 DUP3 ADD MSTORE PUSH32 0x5634446973747269627574696F6E4D6F64756C653A206172726179206C656E67 PUSH1 0x44 DUP3 ADD MSTORE PUSH14 0xE8D0E640DAEAE6E840DAC2E8C6D PUSH1 0x93 SHL PUSH1 0x64 DUP3 ADD MSTORE PUSH1 0x84 SWAP1 REVERT JUMPDEST POP PUSH2 0x160 MLOAD PUSH2 0x100 MLOAD EQ PUSH2 0x1D32 JUMP JUMPDEST POP PUSH2 0x1A0 MLOAD PUSH2 0x100 MLOAD EQ PUSH2 0x1D2C JUMP JUMPDEST POP PUSH2 0x140 MLOAD PUSH2 0x100 MLOAD EQ PUSH2 0x1D26 JUMP JUMPDEST CALLVALUE PUSH2 0x146 JUMPI PUSH1 0x20 DUP1 PUSH1 0x3 NOT CALLDATASIZE ADD SLT PUSH2 0x146 JUMPI PUSH2 0x21E4 PUSH2 0x4AAE JUMP JUMPDEST PUSH1 0xFF PUSH1 0x6A SLOAD AND ISZERO PUSH2 0x2411 JUMPI PUSH1 0x1 PUSH1 0x1 PUSH1 0xA0 SHL SUB DUP2 DUP2 AND PUSH1 0x0 DUP2 DUP2 MSTORE PUSH1 0x67 PUSH1 0x20 MSTORE PUSH1 0x40 SWAP1 KECCAK256 SLOAD SWAP1 SWAP3 SWAP2 SWAP1 PUSH2 0x2218 SWAP1 ISZERO ISZERO PUSH2 0x4DAD JUMP JUMPDEST DUP3 PUSH1 0x0 MSTORE PUSH1 0x68 DUP5 MSTORE PUSH1 0x40 PUSH1 0x0 KECCAK256 PUSH1 0x3 DUP2 ADD SWAP2 PUSH1 0xFF DUP4 SLOAD AND ISZERO PUSH2 0x23B5 JUMPI PUSH1 0x4 DUP3 ADD SLOAD TIMESTAMP LT PUSH2 0x235A JUMPI PUSH1 0x65 SLOAD PUSH1 0x1 SWAP3 SWAP1 SWAP3 ADD DUP1 SLOAD PUSH1 0x40 MLOAD PUSH4 0xA9059CBB PUSH1 0xE0 SHL DUP10 DUP3 ADD SWAP1 DUP2 MSTORE PUSH1 0x1 PUSH1 0x1 PUSH1 0xA0 SHL SUB SWAP8 SWAP1 SWAP8 AND PUSH1 0x24 DUP3 ADD MSTORE PUSH1 0x44 DUP1 DUP3 ADD SWAP3 SWAP1 SWAP3 MSTORE SWAP1 DUP2 MSTORE SWAP1 SWAP5 PUSH1 0x0 SWAP4 DUP5 SWAP4 AND SWAP2 DUP4 SWAP1 PUSH2 0x228E PUSH1 0x64 DUP3 PUSH2 0x4D45 JUMP JUMPDEST MLOAD SWAP3 GAS CALL RETURNDATASIZE ISZERO PUSH2 0x2355 JUMPI RETURNDATASIZE PUSH2 0x22A2 DUP2 PUSH2 0x4D66 JUMP JUMPDEST SWAP1 PUSH2 0x22B0 PUSH1 0x40 MLOAD SWAP3 DUP4 PUSH2 0x4D45 JUMP JUMPDEST DUP2 MSTORE PUSH1 0x0 DUP7 RETURNDATASIZE SWAP3 ADD RETURNDATACOPY JUMPDEST ISZERO PUSH2 0x22FC JUMPI DUP1 SLOAD PUSH1 0xFF NOT AND SWAP1 SSTORE SLOAD PUSH1 0x40 MLOAD SWAP1 DUP2 MSTORE PUSH32 0xE7B379C6C1FA169E9079C25E9143B127637EEF8EC8C9D5C06DDB4AB3E1195888 SWAP1 DUP4 SWAP1 LOG2 PUSH1 0x40 MLOAD PUSH1 0x1 DUP2 MSTORE RETURN JUMPDEST PUSH1 0x40 MLOAD PUSH3 0x461BCD PUSH1 0xE5 SHL DUP2 MSTORE PUSH1 0x4 DUP2 ADD DUP6 SWAP1 MSTORE PUSH1 0x2B PUSH1 0x24 DUP3 ADD MSTORE PUSH32 0x5634446973747269627574696F6E4D6F64756C653A20746F6B656E207472616E PUSH1 0x44 DUP3 ADD MSTORE PUSH11 0x1CD9995C8819985A5B1959 PUSH1 0xAA SHL PUSH1 0x64 DUP3 ADD MSTORE PUSH1 0x84 SWAP1 REVERT JUMPDEST PUSH2 0x22BA JUMP JUMPDEST PUSH1 0x40 MLOAD PUSH3 0x461BCD PUSH1 0xE5 SHL DUP2 MSTORE PUSH1 0x4 DUP2 ADD DUP8 SWAP1 MSTORE PUSH1 0x2D PUSH1 0x24 DUP3 ADD MSTORE PUSH32 0x5634446973747269627574696F6E4D6F64756C653A20746F6B656E7320617265 PUSH1 0x44 DUP3 ADD MSTORE PUSH13 0x81CDD1A5B1B081B1BD8DAD959 PUSH1 0x9A SHL PUSH1 0x64 DUP3 ADD MSTORE PUSH1 0x84 SWAP1 REVERT JUMPDEST PUSH1 0x40 MLOAD PUSH3 0x461BCD PUSH1 0xE5 SHL DUP2 MSTORE PUSH1 0x4 DUP2 ADD DUP8 SWAP1 MSTORE PUSH1 0x2E PUSH1 0x24 DUP3 ADD MSTORE PUSH32 0x5634446973747269627574696F6E4D6F64756C653A20616C6C6F636174696F6E PUSH1 0x44 DUP3 ADD MSTORE PUSH14 0x81A5CC81B9BDD081B1BD8DAD959 PUSH1 0x92 SHL PUSH1 0x64 DUP3 ADD MSTORE PUSH1 0x84 SWAP1 REVERT JUMPDEST PUSH1 0x40 MLOAD PUSH3 0x461BCD PUSH1 0xE5 SHL DUP2 MSTORE PUSH1 0x4 DUP2 ADD DUP4 SWAP1 MSTORE PUSH1 0x33 PUSH1 0x24 DUP3 ADD MSTORE PUSH32 0x5634446973747269627574696F6E4D6F64756C653A2064697374726962757469 PUSH1 0x44 DUP3 ADD MSTORE PUSH19 0x1BDB881B9BDD081E595D08195E1958DD5D1959 PUSH1 0x6A SHL PUSH1 0x64 DUP3 ADD MSTORE PUSH1 0x84 SWAP1 REVERT JUMPDEST CALLVALUE PUSH2 0x146 JUMPI PUSH1 0x20 CALLDATASIZE PUSH1 0x3 NOT ADD SLT PUSH2 0x146 JUMPI PUSH1 0x20 PUSH2 0x248D PUSH2 0x4AAE JUMP JUMPDEST PUSH2 0x2495 PUSH2 0x5686 JUMP JUMPDEST PUSH2 0x24A4 PUSH1 0xFF PUSH1 0x6A SLOAD AND ISZERO PUSH2 0x4F12 JUMP JUMPDEST PUSH1 0x1 PUSH1 0x1 PUSH1 0xA0 SHL SUB AND PUSH1 0x0 DUP2 DUP2 MSTORE PUSH1 0x67 PUSH1 0x20 MSTORE PUSH1 0x40 SWAP1 KECCAK256 SLOAD PUSH2 0x24C7 SWAP1 ISZERO ISZERO PUSH2 0x4DAD JUMP JUMPDEST DUP1 PUSH1 0x0 MSTORE PUSH1 0x68 DUP3 MSTORE PUSH2 0x24E3 PUSH1 0x1 PUSH1 0x40 PUSH1 0x0 KECCAK256 ADD SLOAD PUSH1 0x69 SLOAD PUSH2 0x5506 JUMP JUMPDEST PUSH1 0x69 SSTORE DUP1 PUSH1 0x0 MSTORE PUSH1 0x68 DUP3 MSTORE PUSH2 0x24FB PUSH1 0x40 PUSH1 0x0 KECCAK256 PUSH2 0x555C JUMP JUMPDEST PUSH2 0x2504 DUP2 PUSH2 0x599C JUMP JUMPDEST POP PUSH1 0x40 MLOAD SWAP1 PUSH32 0x85F179D4205EDD87E18C80DF3160316DF70C87A3C515D0650C32DAE6EAD80AFD PUSH1 0x0 DUP1 LOG2 PUSH1 0x1 DUP2 MSTORE RETURN JUMPDEST CALLVALUE PUSH2 0x146 JUMPI PUSH1 0x20 CALLDATASIZE PUSH1 0x3 NOT ADD SLT PUSH2 0x146 JUMPI PUSH1 0x4 CALLDATALOAD PUSH4 0xFFFFFFFF PUSH1 0xE0 SHL DUP2 AND DUP1 SWAP2 SUB PUSH2 0x146 JUMPI PUSH1 0x20 SWAP1 PUSH4 0x10C58339 PUSH1 0xE3 SHL DUP2 EQ SWAP1 DUP2 ISZERO PUSH2 0x2654 JUMPI JUMPDEST DUP2 ISZERO PUSH2 0x2643 JUMPI JUMPDEST DUP2 ISZERO PUSH2 0x2632 JUMPI JUMPDEST DUP2 ISZERO PUSH2 0x2621 JUMPI JUMPDEST DUP2 ISZERO PUSH2 0x2610 JUMPI JUMPDEST DUP2 ISZERO PUSH2 0x25FF JUMPI JUMPDEST DUP2 ISZERO PUSH2 0x25EE JUMPI JUMPDEST DUP2 ISZERO PUSH2 0x25DD JUMPI JUMPDEST DUP2 ISZERO PUSH2 0x25C9 JUMPI JUMPDEST DUP2 ISZERO PUSH2 0x25B8 JUMPI JUMPDEST POP PUSH1 0x40 MLOAD SWAP1 ISZERO ISZERO DUP2 MSTORE RETURN JUMPDEST PUSH4 0x196CFF29 PUSH1 0xE3 SHL EQ SWAP1 POP DUP3 PUSH2 0x25AD JUMP JUMPDEST PUSH1 0x1 PUSH3 0x3C4BBB PUSH1 0xE2 SHL SUB NOT DUP2 EQ SWAP2 POP PUSH2 0x25A6 JUMP JUMPDEST PUSH4 0x1ADA87A9 PUSH1 0xE1 SHL DUP2 EQ SWAP2 POP PUSH2 0x259F JUMP JUMPDEST PUSH4 0x4D3893D1 PUSH1 0xE1 SHL DUP2 EQ SWAP2 POP PUSH2 0x2598 JUMP JUMPDEST PUSH4 0xE022923 PUSH1 0xE0 SHL DUP2 EQ SWAP2 POP PUSH2 0x2591 JUMP JUMPDEST PUSH4 0xE5007B1 PUSH1 0xE1 SHL DUP2 EQ SWAP2 POP PUSH2 0x258A JUMP JUMPDEST PUSH4 0x2A292D3 PUSH1 0xE6 SHL DUP2 EQ SWAP2 POP PUSH2 0x2583 JUMP JUMPDEST PUSH4 0x62C0AB7 PUSH1 0xE5 SHL DUP2 EQ SWAP2 POP PUSH2 0x257C JUMP JUMPDEST PUSH4 0x11864507 PUSH1 0xE1 SHL DUP2 EQ SWAP2 POP PUSH2 0x2575 JUMP JUMPDEST PUSH4 0x198D7D99 PUSH1 0xE3 SHL DUP2 EQ SWAP2 POP PUSH2 0x256E JUMP JUMPDEST CALLVALUE PUSH2 0x146 JUMPI PUSH2 0x2673 CALLDATASIZE PUSH2 0x4C1B JUMP JUMPDEST SWAP1 PUSH2 0x267F SWAP6 SWAP3 SWAP6 PUSH2 0x5686 JUMP JUMPDEST PUSH2 0x268E PUSH1 0xFF PUSH1 0x6A SLOAD AND ISZERO PUSH2 0x4F12 JUMP JUMPDEST PUSH1 0x1 PUSH1 0x1 PUSH1 0xA0 SHL SUB DUP4 AND PUSH1 0x0 SWAP1 DUP2 MSTORE PUSH1 0x67 PUSH1 0x20 MSTORE PUSH1 0x40 SWAP1 KECCAK256 SLOAD PUSH2 0x26B2 SWAP1 ISZERO ISZERO PUSH2 0x4DAD JUMP JUMPDEST DUP1 PUSH2 0x26BE DUP7 ISZERO ISZERO PUSH2 0x5275 JUMP JUMPDEST PUSH2 0x2902 JUMPI JUMPDEST PUSH2 0x26F2 DUP6 PUSH2 0x26ED PUSH1 0x69 SLOAD PUSH1 0x1 DUP1 PUSH1 0xA0 SHL SUB DUP8 AND PUSH1 0x0 MSTORE PUSH1 0x68 PUSH1 0x20 MSTORE PUSH1 0x1 PUSH1 0x40 PUSH1 0x0 KECCAK256 ADD SLOAD SWAP1 PUSH2 0x5506 JUMP JUMPDEST PUSH2 0x5117 JUMP JUMPDEST PUSH1 0x69 SSTORE DUP1 ISZERO PUSH2 0x28FA JUMPI DUP2 SWAP6 JUMPDEST PUSH1 0x40 MLOAD SWAP7 PUSH2 0x270B DUP9 PUSH2 0x4CA2 JUMP JUMPDEST PUSH1 0x1 PUSH1 0x1 PUSH1 0xA0 SHL SUB DUP6 AND DUP9 MSTORE PUSH1 0x20 DUP9 ADD DUP8 DUP2 MSTORE SWAP1 PUSH2 0x272A CALLDATASIZE DUP5 DUP10 PUSH2 0x53BA JUMP JUMPDEST SWAP1 PUSH1 0x40 DUP11 ADD SWAP2 DUP3 MSTORE DUP5 ISZERO ISZERO PUSH1 0x60 DUP12 ADD MSTORE PUSH1 0x80 DUP11 ADD MSTORE PUSH1 0x1 DUP1 PUSH1 0xA0 SHL SUB DUP7 AND PUSH1 0x0 MSTORE PUSH1 0x68 PUSH1 0x20 MSTORE PUSH1 0x40 PUSH1 0x0 KECCAK256 SWAP2 PUSH1 0x1 DUP1 PUSH1 0xA0 SHL SUB DUP11 MLOAD AND PUSH1 0x1 PUSH1 0x1 PUSH1 0x60 SHL SUB PUSH1 0xA0 SHL DUP5 SLOAD AND OR DUP4 SSTORE MLOAD PUSH1 0x1 DUP4 ADD SSTORE MLOAD SWAP8 DUP9 MLOAD PUSH1 0x1 PUSH1 0x1 PUSH1 0x40 SHL SUB DUP2 GT PUSH2 0x1501 JUMPI PUSH2 0x27A3 DUP2 PUSH2 0x279A PUSH1 0x2 DUP7 ADD SLOAD PUSH2 0x4E17 JUMP JUMPDEST PUSH1 0x2 DUP7 ADD PUSH2 0x5165 JUMP JUMPDEST PUSH1 0x20 PUSH1 0x1F DUP3 GT PUSH1 0x1 EQ PUSH2 0x285D JUMPI PUSH2 0x2844 SWAP7 SWAP6 SWAP5 SWAP4 SWAP3 PUSH2 0x2801 DUP4 PUSH1 0x4 SWAP5 PUSH1 0x80 SWAP5 PUSH32 0xA3C835FCD4D2B819D5E8F590F6B36F796E7B73652831D08CFCA45F22A6D43B7B SWAP15 SWAP16 PUSH1 0x0 SWAP3 PUSH2 0x2852 JUMPI POP POP DUP2 PUSH1 0x1 SHL SWAP2 PUSH1 0x0 NOT SWAP1 PUSH1 0x3 SHL SHR NOT AND OR SWAP1 JUMP JUMPDEST PUSH1 0x2 DUP6 ADD SSTORE JUMPDEST PUSH2 0x2826 PUSH1 0x60 DUP3 ADD MLOAD ISZERO ISZERO PUSH1 0x3 DUP7 ADD SWAP1 PUSH1 0xFF DUP1 NOT DUP4 SLOAD AND SWAP2 ISZERO ISZERO AND OR SWAP1 SSTORE JUMP JUMPDEST ADD MLOAD SWAP2 ADD SSTORE PUSH1 0x40 MLOAD PUSH1 0x1 PUSH1 0x1 PUSH1 0xA0 SHL SUB SWAP1 SWAP6 AND SWAP8 SWAP5 SWAP6 DUP7 SWAP6 DUP7 PUSH2 0x53F1 JUMP JUMPDEST SUB SWAP1 LOG2 PUSH1 0x20 PUSH1 0x40 MLOAD PUSH1 0x1 DUP2 MSTORE RETURN JUMPDEST ADD MLOAD SWAP1 POP DUP16 DUP1 PUSH2 0x5DD JUMP JUMPDEST PUSH1 0x2 DUP5 ADD PUSH1 0x0 MSTORE PUSH1 0x20 PUSH1 0x0 KECCAK256 SWAP11 PUSH1 0x0 JUMPDEST PUSH1 0x1F NOT DUP5 AND DUP2 LT PUSH2 0x28E2 JUMPI POP SWAP3 PUSH1 0x1 DUP4 PUSH32 0xA3C835FCD4D2B819D5E8F590F6B36F796E7B73652831D08CFCA45F22A6D43B7B SWAP13 SWAP14 PUSH1 0x80 SWAP5 PUSH2 0x2844 SWAP12 SWAP11 SWAP10 SWAP9 SWAP8 PUSH1 0x4 SWAP8 PUSH1 0x1F NOT DUP2 AND LT PUSH2 0x28C9 JUMPI JUMPDEST POP POP POP DUP2 SHL ADD PUSH1 0x2 DUP6 ADD SSTORE PUSH2 0x2807 JUMP JUMPDEST ADD MLOAD PUSH1 0x0 NOT PUSH1 0xF8 DUP5 PUSH1 0x3 SHL AND SHR NOT AND SWAP1 SSTORE DUP15 DUP1 DUP1 PUSH2 0x28B9 JUMP JUMPDEST DUP3 DUP3 ADD MLOAD DUP14 SSTORE PUSH1 0x1 SWAP1 SWAP13 ADD SWAP12 PUSH1 0x20 SWAP3 DUP4 ADD SWAP3 ADD PUSH2 0x286D JUMP JUMPDEST PUSH1 0x0 SWAP6 PUSH2 0x26FE JUMP JUMPDEST PUSH2 0x290D TIMESTAMP DUP4 GT PUSH2 0x5348 JUMP JUMPDEST PUSH2 0x26C3 JUMP JUMPDEST CALLVALUE PUSH2 0x146 JUMPI PUSH1 0x0 CALLDATASIZE PUSH1 0x3 NOT ADD SLT PUSH2 0x146 JUMPI PUSH1 0x0 DUP1 PUSH1 0x6C SLOAD SWAP1 JUMPDEST DUP2 DUP2 LT PUSH2 0x2A4E JUMPI POP PUSH2 0x293C DUP3 PUSH2 0x4EE7 JUMP JUMPDEST SWAP1 PUSH2 0x294A PUSH1 0x40 MLOAD SWAP3 DUP4 PUSH2 0x4D45 JUMP JUMPDEST DUP3 DUP3 MSTORE PUSH2 0x2956 DUP4 PUSH2 0x4EE7 JUMP JUMPDEST PUSH1 0x20 SWAP1 PUSH1 0x1F NOT SWAP1 DUP2 ADD CALLDATASIZE DUP6 DUP5 ADD CALLDATACOPY PUSH2 0x2986 PUSH2 0x2970 DUP7 PUSH2 0x4EE7 JUMP JUMPDEST SWAP6 PUSH2 0x297E PUSH1 0x40 MLOAD SWAP8 DUP9 PUSH2 0x4D45 JUMP JUMPDEST DUP1 DUP8 MSTORE PUSH2 0x4EE7 JUMP JUMPDEST ADD DUP2 PUSH1 0x0 JUMPDEST DUP3 DUP2 LT PUSH2 0x2A3E JUMPI POP POP POP PUSH1 0x0 DUP1 JUMPDEST DUP4 DUP2 LT PUSH2 0x29AF JUMPI PUSH1 0x40 MLOAD DUP1 PUSH2 0x142 DUP9 DUP9 DUP4 PUSH2 0x4B54 JUMP JUMPDEST PUSH2 0x29B8 DUP2 PUSH2 0x50C8 JUMP JUMPDEST SWAP1 SLOAD PUSH1 0x3 SWAP2 DUP3 SHL SHR DUP1 PUSH1 0x0 MSTORE PUSH1 0xFF PUSH1 0x6B SWAP3 DUP4 DUP8 MSTORE PUSH1 0x40 PUSH1 0x0 KECCAK256 ADD SLOAD AND PUSH2 0x29E3 JUMPI JUMPDEST POP POP PUSH1 0x1 ADD PUSH2 0x2999 JUMP JUMPDEST SWAP3 PUSH2 0x2A36 SWAP2 DUP5 PUSH1 0x1 SWAP5 SWAP6 PUSH2 0x29F7 DUP5 DUP12 PUSH2 0x4EFE JUMP JUMPDEST MSTORE PUSH1 0x0 MSTORE DUP6 MSTORE PUSH2 0x2A14 PUSH2 0x2A1B PUSH1 0x40 PUSH1 0x0 KECCAK256 PUSH1 0x40 MLOAD SWAP3 DUP4 DUP1 SWAP3 PUSH2 0x4E51 JUMP JUMPDEST SUB DUP3 PUSH2 0x4D45 JUMP JUMPDEST PUSH2 0x2A25 DUP3 DUP11 PUSH2 0x4EFE JUMP JUMPDEST MSTORE PUSH2 0x2A30 DUP2 DUP10 PUSH2 0x4EFE JUMP JUMPDEST POP PUSH2 0x542F JUMP JUMPDEST SWAP2 SWAP1 DUP8 PUSH2 0x29D9 JUMP JUMPDEST PUSH1 0x60 DUP3 DUP3 DUP10 ADD ADD MSTORE ADD DUP3 SWAP1 PUSH2 0x298B JUMP JUMPDEST PUSH1 0xFF PUSH2 0x2A59 DUP3 PUSH2 0x50C8 JUMP JUMPDEST SWAP1 SLOAD PUSH1 0x3 SWAP2 DUP3 SHL SHR PUSH1 0x0 MSTORE PUSH1 0x6B PUSH1 0x20 MSTORE PUSH1 0x40 PUSH1 0x0 KECCAK256 ADD SLOAD AND PUSH2 0x2A7E JUMPI JUMPDEST PUSH1 0x1 ADD PUSH2 0x292B JUMP JUMPDEST SWAP2 PUSH2 0x2A8A PUSH1 0x1 SWAP2 PUSH2 0x542F JUMP JUMPDEST SWAP3 SWAP1 POP PUSH2 0x2A76 JUMP JUMPDEST CALLVALUE PUSH2 0x146 JUMPI PUSH1 0x0 CALLDATASIZE PUSH1 0x3 NOT ADD SLT PUSH2 0x146 JUMPI PUSH1 0x33 SLOAD PUSH1 0x40 MLOAD PUSH1 0x1 PUSH1 0x1 PUSH1 0xA0 SHL SUB SWAP1 SWAP2 AND DUP2 MSTORE PUSH1 0x20 SWAP1 RETURN JUMPDEST CALLVALUE PUSH2 0x146 JUMPI PUSH2 0x2AC9 CALLDATASIZE PUSH2 0x4C1B JUMP JUMPDEST SWAP1 PUSH2 0x2AD6 SWAP6 SWAP3 SWAP4 SWAP6 PUSH2 0x5686 JUMP JUMPDEST PUSH2 0x2AE5 PUSH1 0xFF PUSH1 0x6A SLOAD AND ISZERO PUSH2 0x4F12 JUMP JUMPDEST PUSH1 0x1 PUSH1 0x1 PUSH1 0xA0 SHL SUB SWAP4 PUSH2 0x2AFB DUP5 DUP7 AND ISZERO ISZERO PUSH2 0x520D JUMP JUMPDEST PUSH2 0x2B06 DUP7 ISZERO ISZERO PUSH2 0x5275 JUMP JUMPDEST DUP2 PUSH2 0x2B23 PUSH2 0x1DD6 DUP8 DUP8 AND PUSH1 0x0 MSTORE PUSH1 0x67 PUSH1 0x20 MSTORE PUSH1 0x40 PUSH1 0x0 KECCAK256 SLOAD ISZERO ISZERO SWAP1 JUMP JUMPDEST PUSH2 0x2CF8 JUMPI JUMPDEST DUP2 ISZERO PUSH2 0x2CF0 JUMPI DUP3 SWAP7 JUMPDEST PUSH1 0x40 MLOAD SWAP8 PUSH2 0x2B3E DUP10 PUSH2 0x4CA2 JUMP JUMPDEST DUP7 DUP7 AND DUP10 MSTORE PUSH1 0x20 DUP10 ADD SWAP1 DUP9 DUP3 MSTORE PUSH2 0x2B56 CALLDATASIZE DUP6 DUP6 PUSH2 0x53BA JUMP JUMPDEST SWAP1 PUSH1 0x40 DUP12 ADD SWAP2 DUP3 MSTORE DUP6 ISZERO ISZERO PUSH1 0x60 DUP13 ADD MSTORE PUSH1 0x80 DUP12 ADD MSTORE DUP8 DUP8 AND PUSH1 0x0 MSTORE PUSH1 0x68 PUSH1 0x20 MSTORE PUSH1 0x40 PUSH1 0x0 KECCAK256 SWAP2 DUP9 DUP12 MLOAD AND PUSH1 0x1 PUSH1 0x1 PUSH1 0x60 SHL SUB PUSH1 0xA0 SHL DUP5 SLOAD AND OR DUP4 SSTORE MLOAD PUSH1 0x1 DUP4 ADD SSTORE MLOAD SWAP9 DUP10 MLOAD PUSH1 0x1 PUSH1 0x1 PUSH1 0x40 SHL SUB DUP2 GT PUSH2 0x1501 JUMPI PUSH2 0x2BBA DUP2 PUSH2 0x279A PUSH1 0x2 DUP7 ADD SLOAD PUSH2 0x4E17 JUMP JUMPDEST PUSH1 0x20 SWAP11 PUSH1 0x1F DUP3 GT PUSH1 0x1 EQ PUSH2 0x2C66 JUMPI PUSH2 0x2844 SWAP8 SWAP7 SWAP6 SWAP5 SWAP4 SWAP3 PUSH2 0x2C08 DUP4 PUSH1 0x4 SWAP5 PUSH1 0x0 DUP1 MLOAD PUSH1 0x20 PUSH2 0x5AE7 DUP4 CODECOPY DUP2 MLOAD SWAP2 MSTORE SWAP15 SWAP16 PUSH1 0x80 SWAP6 PUSH1 0x0 SWAP3 PUSH2 0x2C5B JUMPI POP POP DUP2 PUSH1 0x1 SHL SWAP2 PUSH1 0x0 NOT SWAP1 PUSH1 0x3 SHL SHR NOT AND OR SWAP1 JUMP JUMPDEST PUSH1 0x2 DUP6 ADD SSTORE JUMPDEST PUSH2 0x2C2D PUSH1 0x60 DUP3 ADD MLOAD ISZERO ISZERO PUSH1 0x3 DUP7 ADD SWAP1 PUSH1 0xFF DUP1 NOT DUP4 SLOAD AND SWAP2 ISZERO ISZERO AND OR SWAP1 SSTORE JUMP JUMPDEST ADD MLOAD SWAP2 ADD SSTORE PUSH2 0x2C3D DUP8 DUP8 AND PUSH2 0x591F JUMP JUMPDEST POP PUSH2 0x2C4A DUP10 PUSH1 0x69 SLOAD PUSH2 0x5117 JUMP JUMPDEST PUSH1 0x69 SSTORE PUSH1 0x40 MLOAD SWAP7 DUP8 SWAP7 AND SWAP9 DUP7 PUSH2 0x53F1 JUMP JUMPDEST ADD MLOAD SWAP1 POP CODESIZE DUP1 PUSH2 0x5DD JUMP JUMPDEST PUSH1 0x1F NOT DUP3 AND SWAP1 PUSH1 0x2 DUP6 ADD PUSH1 0x0 MSTORE PUSH1 0x20 PUSH1 0x0 KECCAK256 SWAP2 PUSH1 0x0 JUMPDEST DUP2 DUP2 LT PUSH2 0x2CD8 JUMPI POP DUP4 PUSH1 0x80 SWAP4 PUSH1 0x0 DUP1 MLOAD PUSH1 0x20 PUSH2 0x5AE7 DUP4 CODECOPY DUP2 MLOAD SWAP2 MSTORE SWAP15 SWAP16 PUSH2 0x2844 SWAP13 SWAP12 SWAP11 SWAP10 SWAP9 SWAP8 SWAP5 PUSH1 0x4 SWAP8 PUSH1 0x1 SWAP6 LT PUSH2 0x2CBF JUMPI JUMPDEST POP POP POP DUP2 SHL ADD PUSH1 0x2 DUP6 ADD SSTORE PUSH2 0x2C0E JUMP JUMPDEST ADD MLOAD PUSH1 0x0 NOT PUSH1 0xF8 DUP5 PUSH1 0x3 SHL AND SHR NOT AND SWAP1 SSTORE DUP16 DUP1 DUP1 PUSH2 0x2CAF JUMP JUMPDEST DUP3 DUP16 ADD MLOAD DUP5 SSTORE PUSH1 0x20 SWAP15 DUP16 ADD SWAP15 PUSH1 0x1 SWAP1 SWAP5 ADD SWAP4 ADD PUSH2 0x2C7C JUMP JUMPDEST PUSH1 0x0 SWAP7 PUSH2 0x2B31 JUMP JUMPDEST PUSH2 0x2D03 TIMESTAMP DUP5 GT PUSH2 0x5348 JUMP JUMPDEST PUSH2 0x2B28 JUMP JUMPDEST CALLVALUE PUSH2 0x146 JUMPI PUSH1 0x0 CALLDATASIZE PUSH1 0x3 NOT ADD SLT PUSH2 0x146 JUMPI PUSH2 0x2D21 PUSH2 0x5686 JUMP JUMPDEST PUSH1 0x33 DUP1 SLOAD PUSH1 0x1 PUSH1 0x1 PUSH1 0xA0 SHL SUB NOT DUP2 AND SWAP1 SWAP2 SSTORE PUSH1 0x0 SWAP1 PUSH1 0x1 PUSH1 0x1 PUSH1 0xA0 SHL SUB AND PUSH32 0x8BE0079C531659141344CD1FD0A4F28419497F9722A3DAAFE3B4186F6B6457E0 DUP3 DUP1 LOG3 STOP JUMPDEST CALLVALUE PUSH2 0x146 JUMPI PUSH1 0x40 CALLDATASIZE PUSH1 0x3 NOT ADD SLT PUSH2 0x146 JUMPI PUSH2 0x2D7E PUSH2 0x4AAE JUMP JUMPDEST PUSH1 0x24 CALLDATALOAD SWAP1 PUSH1 0x1 PUSH1 0x1 PUSH1 0xA0 SHL SUB SWAP1 DUP2 DUP4 AND DUP4 SUB PUSH2 0x146 JUMPI PUSH2 0x2DF1 PUSH1 0x0 SLOAD SWAP4 PUSH1 0xFF DUP6 PUSH1 0x8 SHR AND ISZERO SWAP5 DUP6 DUP1 SWAP7 PUSH2 0x4260 JUMPI JUMPDEST DUP1 ISZERO PUSH2 0x4249 JUMPI JUMPDEST PUSH2 0x2DBC SWAP1 PUSH2 0x51AA JUMP JUMPDEST PUSH1 0xFF NOT DUP2 AND PUSH1 0x1 OR PUSH1 0x0 SSTORE DUP6 PUSH2 0x4237 JUMPI JUMPDEST POP PUSH2 0x2DE3 PUSH1 0xFF PUSH1 0x0 SLOAD PUSH1 0x8 SHR AND PUSH2 0x4F7 DUP2 PUSH2 0x56DE JUMP JUMPDEST PUSH2 0x2DEC CALLER PUSH2 0x573E JUMP JUMPDEST PUSH2 0x573E JUMP JUMPDEST AND DUP1 ISZERO PUSH2 0x1AF6 JUMPI PUSH1 0x1 PUSH1 0x1 PUSH1 0x60 SHL SUB PUSH1 0xA0 SHL PUSH1 0x65 SLOAD AND OR PUSH1 0x65 SSTORE PUSH1 0x40 MLOAD SWAP1 PUSH2 0x2E18 DUP3 PUSH2 0x4CD8 JUMP JUMPDEST PUSH1 0x5 DUP3 MSTORE PUSH1 0xA0 CALLDATASIZE PUSH1 0x20 DUP5 ADD CALLDATACOPY PUSH2 0x2E2C PUSH2 0x543E JUMP JUMPDEST PUSH1 0x40 MLOAD SWAP3 PUSH2 0x2E39 DUP5 PUSH2 0x4CBD JUMP JUMPDEST PUSH1 0x40 MLOAD PUSH2 0x2E45 DUP2 PUSH2 0x4CF3 JUMP JUMPDEST PUSH1 0xC DUP2 MSTORE PUSH12 0x5374616E646172642049434F PUSH1 0xA0 SHL PUSH1 0x20 DUP3 ADD MSTORE DUP5 MSTORE PUSH1 0x20 DUP5 ADD MSTORE PUSH1 0x40 DUP4 ADD MSTORE PUSH1 0x1 PUSH1 0x60 DUP4 ADD MSTORE PUSH1 0x1 PUSH1 0x0 MSTORE PUSH1 0x6B PUSH1 0x20 MSTORE PUSH1 0x40 PUSH1 0x0 KECCAK256 DUP3 MLOAD SWAP3 DUP4 MLOAD PUSH1 0x1 PUSH1 0x1 PUSH1 0x40 SHL SUB DUP2 GT PUSH2 0x1501 JUMPI PUSH2 0x2EA7 DUP2 PUSH2 0x2EA1 DUP6 SLOAD PUSH2 0x4E17 JUMP JUMPDEST DUP6 PUSH2 0x5165 JUMP JUMPDEST PUSH1 0x20 PUSH1 0x1F DUP3 GT PUSH1 0x1 EQ PUSH2 0x41CE JUMPI DUP2 SWAP1 PUSH2 0x2ED9 SWAP4 SWAP5 SWAP6 SWAP7 PUSH1 0x0 SWAP3 PUSH2 0x3CCB JUMPI POP POP DUP2 PUSH1 0x1 SHL SWAP2 PUSH1 0x0 NOT SWAP1 PUSH1 0x3 SHL SHR NOT AND OR SWAP1 JUMP JUMPDEST DUP3 SSTORE JUMPDEST PUSH1 0x20 DUP2 ADD MLOAD DUP1 MLOAD SWAP1 PUSH1 0x1 PUSH1 0x1 PUSH1 0x40 SHL SUB DUP3 GT PUSH2 0x1501 JUMPI PUSH1 0x1 PUSH1 0x40 SHL DUP3 GT PUSH2 0x1501 JUMPI PUSH1 0x20 SWAP1 PUSH1 0x1 DUP6 ADD SLOAD DUP4 PUSH1 0x1 DUP8 ADD SSTORE DUP1 DUP5 LT PUSH2 0x41AE JUMPI JUMPDEST POP ADD PUSH1 0x1 DUP5 ADD PUSH1 0x0 MSTORE PUSH1 0x20 PUSH1 0x0 KECCAK256 PUSH1 0x0 JUMPDEST DUP4 DUP2 LT PUSH2 0x419A JUMPI POP POP POP POP PUSH1 0x40 DUP2 ADD MLOAD DUP1 MLOAD SWAP1 PUSH1 0x1 PUSH1 0x40 SHL DUP3 GT PUSH2 0x1501 JUMPI PUSH1 0x2 DUP5 ADD SLOAD DUP3 PUSH1 0x2 DUP7 ADD SSTORE DUP1 DUP4 LT PUSH2 0x4167 JUMPI JUMPDEST POP PUSH1 0x20 ADD SWAP1 PUSH1 0x2 DUP5 ADD PUSH1 0x0 MSTORE PUSH1 0x20 PUSH1 0x0 KECCAK256 SWAP2 PUSH1 0x0 SWAP1 JUMPDEST DUP3 DUP3 LT PUSH2 0x408F JUMPI DUP7 PUSH2 0x2F93 DUP8 PUSH1 0x3 PUSH1 0x60 DUP10 ADD MLOAD ISZERO ISZERO SWAP2 ADD SWAP1 PUSH1 0xFF DUP1 NOT DUP4 SLOAD AND SWAP2 ISZERO ISZERO AND OR SWAP1 SSTORE JUMP JUMPDEST PUSH1 0x1 PUSH1 0x0 MSTORE PUSH1 0x6B PUSH1 0x20 MSTORE PUSH2 0x2FB7 PUSH2 0x6D1 PUSH1 0x0 DUP1 MLOAD PUSH1 0x20 PUSH2 0x5B27 DUP4 CODECOPY DUP2 MLOAD SWAP2 MSTORE PUSH2 0x5011 JUMP JUMPDEST SWAP1 SSTORE PUSH1 0x1 PUSH1 0x0 MSTORE PUSH1 0x6B PUSH1 0x20 MSTORE PUSH2 0x2FDD PUSH2 0x710 PUSH1 0x0 DUP1 MLOAD PUSH1 0x20 PUSH2 0x5B27 DUP4 CODECOPY DUP2 MLOAD SWAP2 MSTORE PUSH2 0x5026 JUMP JUMPDEST SWAP1 SSTORE PUSH1 0x1 PUSH1 0x0 MSTORE PUSH1 0x6B PUSH1 0x20 MSTORE PUSH2 0x3003 PUSH2 0x74F PUSH1 0x0 DUP1 MLOAD PUSH1 0x20 PUSH2 0x5B27 DUP4 CODECOPY DUP2 MLOAD SWAP2 MSTORE PUSH2 0x5041 JUMP JUMPDEST SWAP1 SSTORE PUSH1 0x1 PUSH1 0x0 MSTORE PUSH1 0x6B PUSH1 0x20 MSTORE PUSH2 0x3029 PUSH2 0x78E PUSH1 0x0 DUP1 MLOAD PUSH1 0x20 PUSH2 0x5B27 DUP4 CODECOPY DUP2 MLOAD SWAP2 MSTORE PUSH2 0x505C JUMP JUMPDEST SWAP1 SSTORE PUSH1 0x1 PUSH1 0x0 MSTORE PUSH1 0x6B PUSH1 0x20 MSTORE PUSH2 0x304F PUSH2 0x7CD PUSH1 0x0 DUP1 MLOAD PUSH1 0x20 PUSH2 0x5B27 DUP4 CODECOPY DUP2 MLOAD SWAP2 MSTORE PUSH2 0x5077 JUMP JUMPDEST SWAP1 SSTORE PUSH1 0x1 PUSH1 0x0 MSTORE PUSH1 0x6B PUSH1 0x20 MSTORE PUSH2 0x3075 PUSH2 0x80C PUSH1 0x0 DUP1 MLOAD PUSH1 0x20 PUSH2 0x5B87 DUP4 CODECOPY DUP2 MLOAD SWAP2 MSTORE PUSH2 0x5011 JUMP JUMPDEST PUSH1 0x1 PUSH1 0x0 MSTORE PUSH1 0x6B PUSH1 0x20 MSTORE PUSH2 0x3099 PUSH2 0x836 PUSH1 0x0 DUP1 MLOAD PUSH1 0x20 PUSH2 0x5B87 DUP4 CODECOPY DUP2 MLOAD SWAP2 MSTORE PUSH2 0x5026 JUMP JUMPDEST PUSH1 0x1 PUSH1 0x0 MSTORE PUSH1 0x6B PUSH1 0x20 MSTORE PUSH2 0x30BA PUSH1 0x0 DUP1 MLOAD PUSH1 0x20 PUSH2 0x5B87 DUP4 CODECOPY DUP2 MLOAD SWAP2 MSTORE PUSH2 0x5041 JUMP JUMPDEST PUSH2 0x1402 JUMPI PUSH2 0x30CB PUSH2 0x86E DUP3 SLOAD PUSH2 0x4E17 JUMP JUMPDEST PUSH1 0xE PUSH7 0x52657365727665 PUSH1 0xC8 SHL ADD SWAP1 SSTORE PUSH1 0x1 PUSH1 0x0 MSTORE PUSH1 0x6B PUSH1 0x20 MSTORE PUSH2 0x30FF PUSH2 0x8A8 PUSH1 0x0 DUP1 MLOAD PUSH1 0x20 PUSH2 0x5B87 DUP4 CODECOPY DUP2 MLOAD SWAP2 MSTORE PUSH2 0x505C JUMP JUMPDEST PUSH1 0x1 PUSH1 0x0 MSTORE PUSH1 0x6B PUSH1 0x20 MSTORE PUSH2 0x3123 PUSH2 0x8D2 PUSH1 0x0 DUP1 MLOAD PUSH1 0x20 PUSH2 0x5B87 DUP4 CODECOPY DUP2 MLOAD SWAP2 MSTORE PUSH2 0x5077 JUMP JUMPDEST PUSH2 0x312B PUSH2 0x581B JUMP JUMPDEST PUSH1 0x40 MLOAD SWAP1 PUSH2 0x3138 DUP3 PUSH2 0x4D0E JUMP JUMPDEST PUSH1 0x6 DUP3 MSTORE PUSH1 0xC0 CALLDATASIZE PUSH1 0x20 DUP5 ADD CALLDATACOPY PUSH2 0x314C PUSH2 0x5470 JUMP JUMPDEST PUSH1 0x40 MLOAD SWAP3 PUSH2 0x3159 DUP5 PUSH2 0x4CBD JUMP JUMPDEST PUSH1 0x40 MLOAD PUSH2 0x3165 DUP2 PUSH2 0x4CF3 JUMP JUMPDEST PUSH1 0x11 DUP2 MSTORE PUSH17 0x10DBDB5B5D5B9A5D1E48119BD8DD5CD959 PUSH1 0x7A SHL PUSH1 0x20 DUP3 ADD MSTORE DUP5 MSTORE PUSH1 0x20 DUP5 ADD MSTORE PUSH1 0x40 DUP4 ADD MSTORE PUSH1 0x1 PUSH1 0x60 DUP4 ADD MSTORE PUSH1 0x2 PUSH1 0x0 MSTORE PUSH1 0x6B PUSH1 0x20 MSTORE PUSH1 0x40 PUSH1 0x0 KECCAK256 DUP3 MLOAD SWAP3 DUP4 MLOAD PUSH1 0x1 PUSH1 0x1 PUSH1 0x40 SHL SUB DUP2 GT PUSH2 0x1501 JUMPI PUSH2 0x31C6 DUP2 PUSH2 0x2EA1 DUP6 SLOAD PUSH2 0x4E17 JUMP JUMPDEST PUSH1 0x20 PUSH1 0x1F DUP3 GT PUSH1 0x1 EQ PUSH2 0x4026 JUMPI DUP2 SWAP1 PUSH2 0x31F8 SWAP4 SWAP5 SWAP6 SWAP7 PUSH1 0x0 SWAP3 PUSH2 0x3CCB JUMPI POP POP DUP2 PUSH1 0x1 SHL SWAP2 PUSH1 0x0 NOT SWAP1 PUSH1 0x3 SHL SHR NOT AND OR SWAP1 JUMP JUMPDEST DUP3 SSTORE JUMPDEST PUSH1 0x20 DUP2 ADD MLOAD DUP1 MLOAD SWAP1 PUSH1 0x1 PUSH1 0x1 PUSH1 0x40 SHL SUB DUP3 GT PUSH2 0x1501 JUMPI PUSH1 0x1 PUSH1 0x40 SHL DUP3 GT PUSH2 0x1501 JUMPI PUSH1 0x20 SWAP1 PUSH1 0x1 DUP6 ADD SLOAD DUP4 PUSH1 0x1 DUP8 ADD SSTORE DUP1 DUP5 LT PUSH2 0x4006 JUMPI JUMPDEST POP ADD PUSH1 0x1 DUP5 ADD PUSH1 0x0 MSTORE PUSH1 0x20 PUSH1 0x0 KECCAK256 PUSH1 0x0 JUMPDEST DUP4 DUP2 LT PUSH2 0x3FF2 JUMPI POP POP POP POP PUSH1 0x40 DUP2 ADD MLOAD DUP1 MLOAD SWAP1 PUSH1 0x1 PUSH1 0x40 SHL DUP3 GT PUSH2 0x1501 JUMPI PUSH1 0x2 DUP5 ADD SLOAD DUP3 PUSH1 0x2 DUP7 ADD SSTORE DUP1 DUP4 LT PUSH2 0x3FBF JUMPI JUMPDEST POP PUSH1 0x20 ADD SWAP1 PUSH1 0x2 DUP5 ADD PUSH1 0x0 MSTORE PUSH1 0x20 PUSH1 0x0 KECCAK256 SWAP2 PUSH1 0x0 SWAP1 JUMPDEST DUP3 DUP3 LT PUSH2 0x3EE7 JUMPI DUP7 PUSH2 0x32B2 DUP8 PUSH1 0x3 PUSH1 0x60 DUP10 ADD MLOAD ISZERO ISZERO SWAP2 ADD SWAP1 PUSH1 0xFF DUP1 NOT DUP4 SLOAD AND SWAP2 ISZERO ISZERO AND OR SWAP1 SSTORE JUMP JUMPDEST PUSH1 0x2 PUSH1 0x0 MSTORE PUSH1 0x6B PUSH1 0x20 MSTORE PUSH2 0x32D6 PUSH2 0xA8A PUSH1 0x0 DUP1 MLOAD PUSH1 0x20 PUSH2 0x5AA7 DUP4 CODECOPY DUP2 MLOAD SWAP2 MSTORE PUSH2 0x5011 JUMP JUMPDEST SWAP1 SSTORE PUSH1 0x2 PUSH1 0x0 MSTORE PUSH1 0x6B PUSH1 0x20 MSTORE PUSH2 0x32FC PUSH2 0x710 PUSH1 0x0 DUP1 MLOAD PUSH1 0x20 PUSH2 0x5AA7 DUP4 CODECOPY DUP2 MLOAD SWAP2 MSTORE PUSH2 0x5026 JUMP JUMPDEST SWAP1 SSTORE PUSH1 0x2 PUSH1 0x0 MSTORE PUSH1 0x6B PUSH1 0x20 MSTORE PUSH2 0x3322 PUSH2 0x74F PUSH1 0x0 DUP1 MLOAD PUSH1 0x20 PUSH2 0x5AA7 DUP4 CODECOPY DUP2 MLOAD SWAP2 MSTORE PUSH2 0x5041 JUMP JUMPDEST SWAP1 SSTORE PUSH1 0x2 PUSH1 0x0 MSTORE PUSH1 0x6B PUSH1 0x20 MSTORE PUSH2 0x3348 PUSH2 0x78E PUSH1 0x0 DUP1 MLOAD PUSH1 0x20 PUSH2 0x5AA7 DUP4 CODECOPY DUP2 MLOAD SWAP2 MSTORE PUSH2 0x505C JUMP JUMPDEST SWAP1 SSTORE PUSH1 0x2 PUSH1 0x0 MSTORE PUSH1 0x6B PUSH1 0x20 MSTORE PUSH2 0x336E PUSH2 0x78E PUSH1 0x0 DUP1 MLOAD PUSH1 0x20 PUSH2 0x5AA7 DUP4 CODECOPY DUP2 MLOAD SWAP2 MSTORE PUSH2 0x5077 JUMP JUMPDEST SWAP1 SSTORE PUSH1 0x2 PUSH1 0x0 MSTORE PUSH1 0x6B PUSH1 0x20 MSTORE PUSH2 0x3394 PUSH2 0x7CD PUSH1 0x0 DUP1 MLOAD PUSH1 0x20 PUSH2 0x5AA7 DUP4 CODECOPY DUP2 MLOAD SWAP2 MSTORE PUSH2 0x5092 JUMP JUMPDEST SWAP1 SSTORE PUSH1 0x2 PUSH1 0x0 MSTORE PUSH1 0x6B PUSH1 0x20 MSTORE PUSH2 0x33B7 PUSH1 0x0 DUP1 MLOAD PUSH1 0x20 PUSH2 0x5B07 DUP4 CODECOPY DUP2 MLOAD SWAP2 MSTORE PUSH2 0x5011 JUMP JUMPDEST PUSH2 0x1402 JUMPI PUSH2 0x33C8 PUSH2 0x86E DUP3 SLOAD PUSH2 0x4E17 JUMP JUMPDEST PUSH1 0x22 PUSH17 0x436F6D6D756E6974792052657761726473 PUSH1 0x78 SHL ADD SWAP1 SSTORE PUSH1 0x2 PUSH1 0x0 MSTORE PUSH1 0x6B PUSH1 0x20 MSTORE PUSH2 0x3406 PUSH2 0x80C PUSH1 0x0 DUP1 MLOAD PUSH1 0x20 PUSH2 0x5B07 DUP4 CODECOPY DUP2 MLOAD SWAP2 MSTORE PUSH2 0x5026 JUMP JUMPDEST PUSH1 0x2 PUSH1 0x0 MSTORE PUSH1 0x6B PUSH1 0x20 MSTORE PUSH2 0x342A PUSH2 0x836 PUSH1 0x0 DUP1 MLOAD PUSH1 0x20 PUSH2 0x5B07 DUP4 CODECOPY DUP2 MLOAD SWAP2 MSTORE PUSH2 0x5041 JUMP JUMPDEST PUSH1 0x2 PUSH1 0x0 MSTORE PUSH1 0x6B PUSH1 0x20 MSTORE PUSH2 0x344E PUSH2 0xC1B PUSH1 0x0 DUP1 MLOAD PUSH1 0x20 PUSH2 0x5B07 DUP4 CODECOPY DUP2 MLOAD SWAP2 MSTORE PUSH2 0x505C JUMP JUMPDEST PUSH1 0x2 PUSH1 0x0 MSTORE PUSH1 0x6B PUSH1 0x20 MSTORE PUSH2 0x3472 PUSH2 0x8A8 PUSH1 0x0 DUP1 MLOAD PUSH1 0x20 PUSH2 0x5B07 DUP4 CODECOPY DUP2 MLOAD SWAP2 MSTORE PUSH2 0x5077 JUMP JUMPDEST PUSH1 0x2 PUSH1 0x0 MSTORE PUSH1 0x6B PUSH1 0x20 MSTORE PUSH2 0x3496 PUSH2 0x8D2 PUSH1 0x0 DUP1 MLOAD PUSH1 0x20 PUSH2 0x5B07 DUP4 CODECOPY DUP2 MLOAD SWAP2 MSTORE PUSH2 0x5092 JUMP JUMPDEST PUSH2 0x349E PUSH2 0x5852 JUMP JUMPDEST PUSH1 0x40 MLOAD SWAP1 PUSH2 0x34AB DUP3 PUSH2 0x4D29 JUMP JUMPDEST PUSH1 0x7 DUP3 MSTORE PUSH1 0xE0 CALLDATASIZE PUSH1 0x20 DUP5 ADD CALLDATACOPY PUSH2 0x34BF PUSH2 0x54A2 JUMP JUMPDEST PUSH1 0x40 MLOAD SWAP3 PUSH2 0x34CC DUP5 PUSH2 0x4CBD JUMP JUMPDEST PUSH1 0x40 MLOAD PUSH2 0x34D8 DUP2 PUSH2 0x4CF3 JUMP JUMPDEST PUSH1 0xC DUP2 MSTORE PUSH12 0x1119519A48141C9BDA9958DD PUSH1 0xA2 SHL PUSH1 0x20 DUP3 ADD MSTORE DUP5 MSTORE PUSH1 0x20 DUP5 ADD MSTORE PUSH1 0x40 DUP4 ADD MSTORE PUSH1 0x1 PUSH1 0x60 DUP4 ADD MSTORE PUSH1 0x3 PUSH1 0x0 MSTORE PUSH1 0x6B PUSH1 0x20 MSTORE PUSH1 0x40 PUSH1 0x0 KECCAK256 DUP3 MLOAD SWAP3 DUP4 MLOAD PUSH1 0x1 PUSH1 0x1 PUSH1 0x40 SHL SUB DUP2 GT PUSH2 0x1501 JUMPI PUSH2 0x3534 DUP2 PUSH2 0x2EA1 DUP6 SLOAD PUSH2 0x4E17 JUMP JUMPDEST PUSH1 0x20 PUSH1 0x1F DUP3 GT PUSH1 0x1 EQ PUSH2 0x3E7E JUMPI DUP2 SWAP1 PUSH2 0x3566 SWAP4 SWAP5 SWAP6 SWAP7 PUSH1 0x0 SWAP3 PUSH2 0x3CCB JUMPI POP POP DUP2 PUSH1 0x1 SHL SWAP2 PUSH1 0x0 NOT SWAP1 PUSH1 0x3 SHL SHR NOT AND OR SWAP1 JUMP JUMPDEST DUP3 SSTORE JUMPDEST PUSH1 0x20 DUP2 ADD MLOAD DUP1 MLOAD SWAP1 PUSH1 0x1 PUSH1 0x1 PUSH1 0x40 SHL SUB DUP3 GT PUSH2 0x1501 JUMPI PUSH1 0x1 PUSH1 0x40 SHL DUP3 GT PUSH2 0x1501 JUMPI PUSH1 0x20 SWAP1 PUSH1 0x1 DUP6 ADD SLOAD DUP4 PUSH1 0x1 DUP8 ADD SSTORE DUP1 DUP5 LT PUSH2 0x3E5E JUMPI JUMPDEST POP ADD PUSH1 0x1 DUP5 ADD PUSH1 0x0 MSTORE PUSH1 0x20 PUSH1 0x0 KECCAK256 PUSH1 0x0 JUMPDEST DUP4 DUP2 LT PUSH2 0x3E4A JUMPI POP POP POP POP PUSH1 0x40 DUP2 ADD MLOAD DUP1 MLOAD SWAP1 PUSH1 0x1 PUSH1 0x40 SHL DUP3 GT PUSH2 0x1501 JUMPI PUSH1 0x2 DUP5 ADD SLOAD DUP3 PUSH1 0x2 DUP7 ADD SSTORE DUP1 DUP4 LT PUSH2 0x3E17 JUMPI JUMPDEST POP PUSH1 0x20 ADD SWAP1 PUSH1 0x2 DUP5 ADD PUSH1 0x0 MSTORE PUSH1 0x20 PUSH1 0x0 KECCAK256 SWAP2 PUSH1 0x0 SWAP1 JUMPDEST DUP3 DUP3 LT PUSH2 0x3D3F JUMPI DUP7 PUSH2 0x3620 DUP8 PUSH1 0x3 PUSH1 0x60 DUP10 ADD MLOAD ISZERO ISZERO SWAP2 ADD SWAP1 PUSH1 0xFF DUP1 NOT DUP4 SLOAD AND SWAP2 ISZERO ISZERO AND OR SWAP1 SSTORE JUMP JUMPDEST PUSH1 0x3 PUSH1 0x0 MSTORE PUSH1 0x6B PUSH1 0x20 MSTORE PUSH2 0x3644 PUSH2 0xE16 PUSH1 0x0 DUP1 MLOAD PUSH1 0x20 PUSH2 0x5AC7 DUP4 CODECOPY DUP2 MLOAD SWAP2 MSTORE PUSH2 0x5011 JUMP JUMPDEST SWAP1 SSTORE PUSH1 0x3 PUSH1 0x0 MSTORE PUSH1 0x6B PUSH1 0x20 MSTORE PUSH2 0x366A PUSH2 0xE55 PUSH1 0x0 DUP1 MLOAD PUSH1 0x20 PUSH2 0x5AC7 DUP4 CODECOPY DUP2 MLOAD SWAP2 MSTORE PUSH2 0x5026 JUMP JUMPDEST SWAP1 SSTORE PUSH1 0x3 PUSH1 0x0 MSTORE PUSH1 0x6B PUSH1 0x20 MSTORE PUSH2 0x3690 PUSH2 0x74F PUSH1 0x0 DUP1 MLOAD PUSH1 0x20 PUSH2 0x5AC7 DUP4 CODECOPY DUP2 MLOAD SWAP2 MSTORE PUSH2 0x5041 JUMP JUMPDEST SWAP1 SSTORE PUSH1 0x3 PUSH1 0x0 MSTORE PUSH1 0x6B PUSH1 0x20 MSTORE PUSH2 0x36B6 PUSH2 0x78E PUSH1 0x0 DUP1 MLOAD PUSH1 0x20 PUSH2 0x5AC7 DUP4 CODECOPY DUP2 MLOAD SWAP2 MSTORE PUSH2 0x505C JUMP JUMPDEST SWAP1 SSTORE PUSH1 0x3 PUSH1 0x0 MSTORE PUSH1 0x6B PUSH1 0x20 MSTORE PUSH2 0x36DC PUSH2 0x78E PUSH1 0x0 DUP1 MLOAD PUSH1 0x20 PUSH2 0x5AC7 DUP4 CODECOPY DUP2 MLOAD SWAP2 MSTORE PUSH2 0x5077 JUMP JUMPDEST SWAP1 SSTORE PUSH1 0x3 PUSH1 0x0 MSTORE PUSH1 0x6B PUSH1 0x20 MSTORE PUSH2 0x3702 PUSH2 0x7CD PUSH1 0x0 DUP1 MLOAD PUSH1 0x20 PUSH2 0x5AC7 DUP4 CODECOPY DUP2 MLOAD SWAP2 MSTORE PUSH2 0x5092 JUMP JUMPDEST SWAP1 SSTORE PUSH1 0x3 PUSH1 0x0 MSTORE PUSH1 0x6B PUSH1 0x20 MSTORE PUSH2 0x3728 PUSH2 0x7CD PUSH1 0x0 DUP1 MLOAD PUSH1 0x20 PUSH2 0x5AC7 DUP4 CODECOPY DUP2 MLOAD SWAP2 MSTORE PUSH2 0x50AD JUMP JUMPDEST SWAP1 SSTORE PUSH1 0x3 PUSH1 0x0 MSTORE PUSH1 0x6B PUSH1 0x20 MSTORE PUSH2 0x374B PUSH1 0x0 DUP1 MLOAD PUSH1 0x20 PUSH2 0x5B67 DUP4 CODECOPY DUP2 MLOAD SWAP2 MSTORE PUSH2 0x5011 JUMP JUMPDEST PUSH2 0x1402 JUMPI PUSH2 0x375C PUSH2 0x86E DUP3 SLOAD PUSH2 0x4E17 JUMP JUMPDEST PUSH1 0x26 PUSH19 0x2634B8BAB4B234BA3C90283937BB34B9B4B7B7 PUSH1 0x69 SHL ADD SWAP1 SSTORE PUSH1 0x3 PUSH1 0x0 MSTORE PUSH1 0x6B PUSH1 0x20 MSTORE PUSH2 0x3799 PUSH1 0x0 DUP1 MLOAD PUSH1 0x20 PUSH2 0x5B67 DUP4 CODECOPY DUP2 MLOAD SWAP2 MSTORE PUSH2 0x5026 JUMP JUMPDEST PUSH2 0x1402 JUMPI PUSH2 0x37AA PUSH2 0x86E DUP3 SLOAD PUSH2 0x4E17 JUMP JUMPDEST PUSH32 0x436F6D6D756E69747920496E63656E7469766573000000000000000000000028 SWAP1 SSTORE PUSH1 0x3 PUSH1 0x0 MSTORE PUSH1 0x6B PUSH1 0x20 MSTORE PUSH2 0x37F1 PUSH2 0x836 PUSH1 0x0 DUP1 MLOAD PUSH1 0x20 PUSH2 0x5B67 DUP4 CODECOPY DUP2 MLOAD SWAP2 MSTORE PUSH2 0x5041 JUMP JUMPDEST PUSH1 0x3 PUSH1 0x0 MSTORE PUSH1 0x6B PUSH1 0x20 MSTORE PUSH2 0x3815 PUSH2 0x80C PUSH1 0x0 DUP1 MLOAD PUSH1 0x20 PUSH2 0x5B67 DUP4 CODECOPY DUP2 MLOAD SWAP2 MSTORE PUSH2 0x505C JUMP JUMPDEST PUSH1 0x3 PUSH1 0x0 MSTORE PUSH1 0x6B PUSH1 0x20 MSTORE PUSH2 0x3839 PUSH2 0xC1B PUSH1 0x0 DUP1 MLOAD PUSH1 0x20 PUSH2 0x5B67 DUP4 CODECOPY DUP2 MLOAD SWAP2 MSTORE PUSH2 0x5077 JUMP JUMPDEST PUSH1 0x3 PUSH1 0x0 MSTORE PUSH1 0x6B PUSH1 0x20 MSTORE PUSH2 0x385D PUSH2 0x8A8 PUSH1 0x0 DUP1 MLOAD PUSH1 0x20 PUSH2 0x5B67 DUP4 CODECOPY DUP2 MLOAD SWAP2 MSTORE PUSH2 0x5092 JUMP JUMPDEST PUSH1 0x3 PUSH1 0x0 MSTORE PUSH1 0x6B PUSH1 0x20 MSTORE PUSH2 0x387E PUSH1 0x0 DUP1 MLOAD PUSH1 0x20 PUSH2 0x5B67 DUP4 CODECOPY DUP2 MLOAD SWAP2 MSTORE PUSH2 0x50AD JUMP JUMPDEST PUSH2 0x1402 JUMPI PUSH2 0x388F PUSH2 0x86E DUP3 SLOAD PUSH2 0x4E17 JUMP JUMPDEST PUSH1 0x18 PUSH12 0x506172746E65727368697073 PUSH1 0xA0 SHL ADD SWAP1 SSTORE PUSH2 0x38AC PUSH2 0x5889 JUMP JUMPDEST PUSH1 0x40 MLOAD SWAP1 PUSH2 0x38B9 DUP3 PUSH2 0x4CA2 JUMP JUMPDEST PUSH1 0x4 DUP3 MSTORE PUSH1 0x80 CALLDATASIZE PUSH1 0x20 DUP5 ADD CALLDATACOPY PUSH2 0x38CD PUSH2 0x54D4 JUMP JUMPDEST PUSH1 0x40 MLOAD SWAP3 PUSH2 0x38DA DUP5 PUSH2 0x4CBD JUMP JUMPDEST PUSH1 0x40 MLOAD PUSH2 0x38E6 DUP2 PUSH2 0x4CF3 JUMP JUMPDEST PUSH1 0x12 DUP2 MSTORE PUSH18 0x22B8BAB0B6102234B9BA3934B13ABA34B7B7 PUSH1 0x71 SHL PUSH1 0x20 DUP3 ADD MSTORE DUP5 MSTORE PUSH1 0x20 DUP5 ADD MSTORE PUSH1 0x40 DUP4 ADD MSTORE PUSH1 0x1 PUSH1 0x60 DUP4 ADD MSTORE PUSH1 0x4 PUSH1 0x0 MSTORE PUSH1 0x6B PUSH1 0x20 MSTORE PUSH1 0x40 PUSH1 0x0 KECCAK256 DUP3 MLOAD SWAP3 DUP4 MLOAD PUSH1 0x1 PUSH1 0x1 PUSH1 0x40 SHL SUB DUP2 GT PUSH2 0x1501 JUMPI PUSH2 0x3948 DUP2 PUSH2 0x2EA1 DUP6 SLOAD PUSH2 0x4E17 JUMP JUMPDEST PUSH1 0x20 PUSH1 0x1F DUP3 GT PUSH1 0x1 EQ PUSH2 0x3CD6 JUMPI DUP2 SWAP1 PUSH2 0x397A SWAP4 SWAP5 SWAP6 SWAP7 PUSH1 0x0 SWAP3 PUSH2 0x3CCB JUMPI POP POP DUP2 PUSH1 0x1 SHL SWAP2 PUSH1 0x0 NOT SWAP1 PUSH1 0x3 SHL SHR NOT AND OR SWAP1 JUMP JUMPDEST DUP3 SSTORE JUMPDEST PUSH1 0x20 DUP2 ADD MLOAD DUP1 MLOAD SWAP1 PUSH1 0x1 PUSH1 0x1 PUSH1 0x40 SHL SUB DUP3 GT PUSH2 0x1501 JUMPI PUSH1 0x1 PUSH1 0x40 SHL DUP3 GT PUSH2 0x1501 JUMPI PUSH1 0x20 SWAP1 PUSH1 0x1 DUP6 ADD SLOAD DUP4 PUSH1 0x1 DUP8 ADD SSTORE DUP1 DUP5 LT PUSH2 0x3CAB JUMPI JUMPDEST POP ADD PUSH1 0x1 DUP5 ADD PUSH1 0x0 MSTORE PUSH1 0x20 PUSH1 0x0 KECCAK256 PUSH1 0x0 JUMPDEST DUP4 DUP2 LT PUSH2 0x3C97 JUMPI POP POP POP POP PUSH1 0x40 DUP2 ADD MLOAD DUP1 MLOAD SWAP1 PUSH1 0x1 PUSH1 0x40 SHL DUP3 GT PUSH2 0x1501 JUMPI PUSH1 0x2 DUP5 ADD SLOAD DUP3 PUSH1 0x2 DUP7 ADD SSTORE DUP1 DUP4 LT PUSH2 0x3C64 JUMPI JUMPDEST POP PUSH1 0x20 ADD SWAP1 PUSH1 0x2 DUP5 ADD PUSH1 0x0 MSTORE PUSH1 0x20 PUSH1 0x0 KECCAK256 SWAP2 PUSH1 0x0 SWAP1 JUMPDEST DUP3 DUP3 LT PUSH2 0x3B81 JUMPI DUP7 PUSH2 0x3A34 DUP8 PUSH1 0x3 PUSH1 0x60 DUP10 ADD MLOAD ISZERO ISZERO SWAP2 ADD SWAP1 PUSH1 0xFF DUP1 NOT DUP4 SLOAD AND SWAP2 ISZERO ISZERO AND OR SWAP1 SSTORE JUMP JUMPDEST PUSH1 0x4 PUSH1 0x0 MSTORE PUSH1 0x6B PUSH1 0x20 MSTORE PUSH2 0x3A58 PUSH2 0xE55 PUSH1 0x0 DUP1 MLOAD PUSH1 0x20 PUSH2 0x5A87 DUP4 CODECOPY DUP2 MLOAD SWAP2 MSTORE PUSH2 0x5011 JUMP JUMPDEST SWAP1 SSTORE PUSH1 0x4 PUSH1 0x0 MSTORE PUSH1 0x6B PUSH1 0x20 MSTORE PUSH2 0x3A7E PUSH2 0xE55 PUSH1 0x0 DUP1 MLOAD PUSH1 0x20 PUSH2 0x5A87 DUP4 CODECOPY DUP2 MLOAD SWAP2 MSTORE PUSH2 0x5026 JUMP JUMPDEST SWAP1 SSTORE PUSH1 0x4 PUSH1 0x0 MSTORE PUSH1 0x6B PUSH1 0x20 MSTORE PUSH2 0x3AA4 PUSH2 0xE55 PUSH1 0x0 DUP1 MLOAD PUSH1 0x20 PUSH2 0x5A87 DUP4 CODECOPY DUP2 MLOAD SWAP2 MSTORE PUSH2 0x5041 JUMP JUMPDEST SWAP1 SSTORE PUSH1 0x4 PUSH1 0x0 MSTORE PUSH1 0x6B PUSH1 0x20 MSTORE PUSH2 0x3ACA PUSH2 0xE55 PUSH1 0x0 DUP1 MLOAD PUSH1 0x20 PUSH2 0x5A87 DUP4 CODECOPY DUP2 MLOAD SWAP2 MSTORE PUSH2 0x505C JUMP JUMPDEST SWAP1 SSTORE PUSH1 0x4 PUSH1 0x0 MSTORE PUSH1 0x6B PUSH1 0x20 MSTORE PUSH2 0x3AED PUSH1 0x0 DUP1 MLOAD PUSH1 0x20 PUSH2 0x5B47 DUP4 CODECOPY DUP2 MLOAD SWAP2 MSTORE PUSH2 0x5011 JUMP JUMPDEST PUSH2 0x1402 JUMPI PUSH2 0x3AFE PUSH2 0x86E DUP3 SLOAD PUSH2 0x4E17 JUMP JUMPDEST PUSH1 0xC PUSH6 0x5075626C6963 PUSH1 0xD0 SHL ADD SWAP1 SSTORE PUSH1 0x4 PUSH1 0x0 MSTORE PUSH1 0x6B PUSH1 0x20 MSTORE PUSH2 0x3B31 PUSH2 0x836 PUSH1 0x0 DUP1 MLOAD PUSH1 0x20 PUSH2 0x5B47 DUP4 CODECOPY DUP2 MLOAD SWAP2 MSTORE PUSH2 0x5026 JUMP JUMPDEST PUSH1 0x4 PUSH1 0x0 MSTORE PUSH1 0x6B PUSH1 0x20 MSTORE PUSH2 0x3B55 PUSH2 0xC1B PUSH1 0x0 DUP1 MLOAD PUSH1 0x20 PUSH2 0x5B47 DUP4 CODECOPY DUP2 MLOAD SWAP2 MSTORE PUSH2 0x5041 JUMP JUMPDEST PUSH1 0x4 PUSH1 0x0 MSTORE PUSH1 0x6B PUSH1 0x20 MSTORE PUSH2 0x3B79 PUSH2 0x8A8 PUSH1 0x0 DUP1 MLOAD PUSH1 0x20 PUSH2 0x5B47 DUP4 CODECOPY DUP2 MLOAD SWAP2 MSTORE PUSH2 0x505C JUMP JUMPDEST PUSH2 0x1389 PUSH2 0x58C0 JUMP JUMPDEST DUP1 MLOAD DUP1 MLOAD SWAP1 PUSH1 0x1 PUSH1 0x1 PUSH1 0x40 SHL SUB DUP3 GT PUSH2 0x1501 JUMPI PUSH2 0x3BA2 DUP3 PUSH2 0x1439 DUP9 SLOAD PUSH2 0x4E17 JUMP JUMPDEST PUSH1 0x20 SWAP1 PUSH1 0x1F DUP4 GT PUSH1 0x1 EQ PUSH2 0x3BF4 JUMPI SWAP3 PUSH2 0x3BDA DUP4 PUSH1 0x1 SWAP6 SWAP5 PUSH1 0x20 SWAP5 DUP8 SWAP7 PUSH1 0x0 SWAP3 PUSH2 0x3BE9 JUMPI POP POP DUP2 PUSH1 0x1 SHL SWAP2 PUSH1 0x0 NOT SWAP1 PUSH1 0x3 SHL SHR NOT AND OR SWAP1 JUMP JUMPDEST DUP8 SSTORE JUMPDEST ADD SWAP5 ADD SWAP2 ADD SWAP1 SWAP3 PUSH2 0x3A0C JUMP JUMPDEST ADD MLOAD SWAP1 POP DUP14 DUP1 PUSH2 0x5DD JUMP JUMPDEST SWAP1 DUP7 PUSH1 0x0 MSTORE PUSH1 0x20 PUSH1 0x0 KECCAK256 SWAP2 PUSH1 0x0 JUMPDEST PUSH1 0x1F NOT DUP6 AND DUP2 LT PUSH2 0x3C4C JUMPI POP DUP4 PUSH1 0x20 SWAP4 PUSH1 0x1 SWAP7 SWAP4 DUP8 SWAP7 SWAP4 DUP8 SWAP5 PUSH1 0x1F NOT DUP2 AND LT PUSH2 0x3C33 JUMPI JUMPDEST POP POP POP DUP2 SHL ADD DUP8 SSTORE PUSH2 0x3BDD JUMP JUMPDEST ADD MLOAD PUSH1 0x0 NOT PUSH1 0xF8 DUP5 PUSH1 0x3 SHL AND SHR NOT AND SWAP1 SSTORE DUP13 DUP1 DUP1 PUSH2 0x3C26 JUMP JUMPDEST SWAP2 SWAP3 PUSH1 0x20 PUSH1 0x1 DUP2 SWAP3 DUP7 DUP6 ADD MLOAD DUP2 SSTORE ADD SWAP5 ADD SWAP3 ADD PUSH2 0x3C02 JUMP JUMPDEST PUSH1 0x2 DUP6 ADD PUSH1 0x0 MSTORE PUSH1 0x20 PUSH1 0x0 KECCAK256 SWAP1 DUP4 DUP3 ADD JUMPDEST DUP2 DUP4 ADD DUP2 LT PUSH2 0x3C85 JUMPI POP POP PUSH2 0x39F6 JUMP JUMPDEST DUP1 PUSH2 0x3C91 PUSH1 0x1 SWAP3 PUSH2 0x5513 JUMP JUMPDEST ADD PUSH2 0x3C75 JUMP JUMPDEST PUSH1 0x1 SWAP1 PUSH1 0x20 DUP5 MLOAD SWAP5 ADD SWAP4 DUP2 DUP5 ADD SSTORE ADD PUSH2 0x39C5 JUMP JUMPDEST PUSH2 0x3CC5 SWAP1 PUSH1 0x1 DUP8 ADD PUSH1 0x0 MSTORE DUP5 DUP5 PUSH1 0x0 KECCAK256 SWAP2 DUP3 ADD SWAP2 ADD PUSH2 0x5124 JUMP JUMPDEST DUP7 PUSH2 0x39B4 JUMP JUMPDEST ADD MLOAD SWAP1 POP DUP7 DUP1 PUSH2 0x5DD JUMP JUMPDEST DUP4 PUSH1 0x0 MSTORE PUSH1 0x20 PUSH1 0x0 KECCAK256 SWAP1 PUSH1 0x0 JUMPDEST PUSH1 0x1F NOT DUP5 AND DUP2 LT PUSH2 0x3D27 JUMPI POP PUSH1 0x1 SWAP4 SWAP5 SWAP6 SWAP7 DUP4 PUSH1 0x1F NOT DUP2 AND LT PUSH2 0x3D0E JUMPI JUMPDEST POP POP POP DUP2 SHL ADD DUP3 SSTORE PUSH2 0x397D JUMP JUMPDEST ADD MLOAD PUSH1 0x0 NOT PUSH1 0xF8 DUP5 PUSH1 0x3 SHL AND SHR NOT AND SWAP1 SSTORE DUP6 DUP1 DUP1 PUSH2 0x3D01 JUMP JUMPDEST SWAP1 SWAP2 PUSH1 0x20 PUSH1 0x1 DUP2 SWAP3 DUP6 DUP12 ADD MLOAD DUP2 SSTORE ADD SWAP4 ADD SWAP2 ADD PUSH2 0x3CE3 JUMP JUMPDEST DUP1 MLOAD DUP1 MLOAD SWAP1 PUSH1 0x1 PUSH1 0x1 PUSH1 0x40 SHL SUB DUP3 GT PUSH2 0x1501 JUMPI PUSH2 0x3D60 DUP3 PUSH2 0x1439 DUP9 SLOAD PUSH2 0x4E17 JUMP JUMPDEST PUSH1 0x20 SWAP1 PUSH1 0x1F DUP4 GT PUSH1 0x1 EQ PUSH2 0x3DA7 JUMPI SWAP3 PUSH2 0x3D98 DUP4 PUSH1 0x1 SWAP6 SWAP5 PUSH1 0x20 SWAP5 DUP8 SWAP7 PUSH1 0x0 SWAP3 PUSH2 0x3BE9 JUMPI POP POP DUP2 PUSH1 0x1 SHL SWAP2 PUSH1 0x0 NOT SWAP1 PUSH1 0x3 SHL SHR NOT AND OR SWAP1 JUMP JUMPDEST DUP8 SSTORE JUMPDEST ADD SWAP5 ADD SWAP2 ADD SWAP1 SWAP3 PUSH2 0x35F8 JUMP JUMPDEST SWAP1 DUP7 PUSH1 0x0 MSTORE PUSH1 0x20 PUSH1 0x0 KECCAK256 SWAP2 PUSH1 0x0 JUMPDEST PUSH1 0x1F NOT DUP6 AND DUP2 LT PUSH2 0x3DFF JUMPI POP DUP4 PUSH1 0x20 SWAP4 PUSH1 0x1 SWAP7 SWAP4 DUP8 SWAP7 SWAP4 DUP8 SWAP5 PUSH1 0x1F NOT DUP2 AND LT PUSH2 0x3DE6 JUMPI JUMPDEST POP POP POP DUP2 SHL ADD DUP8 SSTORE PUSH2 0x3D9B JUMP JUMPDEST ADD MLOAD PUSH1 0x0 NOT PUSH1 0xF8 DUP5 PUSH1 0x3 SHL AND SHR NOT AND SWAP1 SSTORE DUP13 DUP1 DUP1 PUSH2 0x3DD9 JUMP JUMPDEST SWAP2 SWAP3 PUSH1 0x20 PUSH1 0x1 DUP2 SWAP3 DUP7 DUP6 ADD MLOAD DUP2 SSTORE ADD SWAP5 ADD SWAP3 ADD PUSH2 0x3DB5 JUMP JUMPDEST PUSH1 0x2 DUP6 ADD PUSH1 0x0 MSTORE PUSH1 0x20 PUSH1 0x0 KECCAK256 SWAP1 DUP4 DUP3 ADD JUMPDEST DUP2 DUP4 ADD DUP2 LT PUSH2 0x3E38 JUMPI POP POP PUSH2 0x35E2 JUMP JUMPDEST DUP1 PUSH2 0x3E44 PUSH1 0x1 SWAP3 PUSH2 0x5513 JUMP JUMPDEST ADD PUSH2 0x3E28 JUMP JUMPDEST PUSH1 0x1 SWAP1 PUSH1 0x20 DUP5 MLOAD SWAP5 ADD SWAP4 DUP2 DUP5 ADD SSTORE ADD PUSH2 0x35B1 JUMP JUMPDEST PUSH2 0x3E78 SWAP1 PUSH1 0x1 DUP8 ADD PUSH1 0x0 MSTORE DUP5 DUP5 PUSH1 0x0 KECCAK256 SWAP2 DUP3 ADD SWAP2 ADD PUSH2 0x5124 JUMP JUMPDEST DUP7 PUSH2 0x35A0 JUMP JUMPDEST DUP4 PUSH1 0x0 MSTORE PUSH1 0x20 PUSH1 0x0 KECCAK256 SWAP1 PUSH1 0x0 JUMPDEST PUSH1 0x1F NOT DUP5 AND DUP2 LT PUSH2 0x3ECF JUMPI POP PUSH1 0x1 SWAP4 SWAP5 SWAP6 SWAP7 DUP4 PUSH1 0x1F NOT DUP2 AND LT PUSH2 0x3EB6 JUMPI JUMPDEST POP POP POP DUP2 SHL ADD DUP3 SSTORE PUSH2 0x3569 JUMP JUMPDEST ADD MLOAD PUSH1 0x0 NOT PUSH1 0xF8 DUP5 PUSH1 0x3 SHL AND SHR NOT AND SWAP1 SSTORE DUP6 DUP1 DUP1 PUSH2 0x3EA9 JUMP JUMPDEST SWAP1 SWAP2 PUSH1 0x20 PUSH1 0x1 DUP2 SWAP3 DUP6 DUP12 ADD MLOAD DUP2 SSTORE ADD SWAP4 ADD SWAP2 ADD PUSH2 0x3E8B JUMP JUMPDEST DUP1 MLOAD DUP1 MLOAD SWAP1 PUSH1 0x1 PUSH1 0x1 PUSH1 0x40 SHL SUB DUP3 GT PUSH2 0x1501 JUMPI PUSH2 0x3F08 DUP3 PUSH2 0x1439 DUP9 SLOAD PUSH2 0x4E17 JUMP JUMPDEST PUSH1 0x20 SWAP1 PUSH1 0x1F DUP4 GT PUSH1 0x1 EQ PUSH2 0x3F4F JUMPI SWAP3 PUSH2 0x3F40 DUP4 PUSH1 0x1 SWAP6 SWAP5 PUSH1 0x20 SWAP5 DUP8 SWAP7 PUSH1 0x0 SWAP3 PUSH2 0x3BE9 JUMPI POP POP DUP2 PUSH1 0x1 SHL SWAP2 PUSH1 0x0 NOT SWAP1 PUSH1 0x3 SHL SHR NOT AND OR SWAP1 JUMP JUMPDEST DUP8 SSTORE JUMPDEST ADD SWAP5 ADD SWAP2 ADD SWAP1 SWAP3 PUSH2 0x328A JUMP JUMPDEST SWAP1 DUP7 PUSH1 0x0 MSTORE PUSH1 0x20 PUSH1 0x0 KECCAK256 SWAP2 PUSH1 0x0 JUMPDEST PUSH1 0x1F NOT DUP6 AND DUP2 LT PUSH2 0x3FA7 JUMPI POP DUP4 PUSH1 0x20 SWAP4 PUSH1 0x1 SWAP7 SWAP4 DUP8 SWAP7 SWAP4 DUP8 SWAP5 PUSH1 0x1F NOT DUP2 AND LT PUSH2 0x3F8E JUMPI JUMPDEST POP POP POP DUP2 SHL ADD DUP8 SSTORE PUSH2 0x3F43 JUMP JUMPDEST ADD MLOAD PUSH1 0x0 NOT PUSH1 0xF8 DUP5 PUSH1 0x3 SHL AND SHR NOT AND SWAP1 SSTORE DUP13 DUP1 DUP1 PUSH2 0x3F81 JUMP JUMPDEST SWAP2 SWAP3 PUSH1 0x20 PUSH1 0x1 DUP2 SWAP3 DUP7 DUP6 ADD MLOAD DUP2 SSTORE ADD SWAP5 ADD SWAP3 ADD PUSH2 0x3F5D JUMP JUMPDEST PUSH1 0x2 DUP6 ADD PUSH1 0x0 MSTORE PUSH1 0x20 PUSH1 0x0 KECCAK256 SWAP1 DUP4 DUP3 ADD JUMPDEST DUP2 DUP4 ADD DUP2 LT PUSH2 0x3FE0 JUMPI POP POP PUSH2 0x3274 JUMP JUMPDEST DUP1 PUSH2 0x3FEC PUSH1 0x1 SWAP3 PUSH2 0x5513 JUMP JUMPDEST ADD PUSH2 0x3FD0 JUMP JUMPDEST PUSH1 0x1 SWAP1 PUSH1 0x20 DUP5 MLOAD SWAP5 ADD SWAP4 DUP2 DUP5 ADD SSTORE ADD PUSH2 0x3243 JUMP JUMPDEST PUSH2 0x4020 SWAP1 PUSH1 0x1 DUP8 ADD PUSH1 0x0 MSTORE DUP5 DUP5 PUSH1 0x0 KECCAK256 SWAP2 DUP3 ADD SWAP2 ADD PUSH2 0x5124 JUMP JUMPDEST DUP7 PUSH2 0x3232 JUMP JUMPDEST DUP4 PUSH1 0x0 MSTORE PUSH1 0x20 PUSH1 0x0 KECCAK256 SWAP1 PUSH1 0x0 JUMPDEST PUSH1 0x1F NOT DUP5 AND DUP2 LT PUSH2 0x4077 JUMPI POP PUSH1 0x1 SWAP4 SWAP5 SWAP6 SWAP7 DUP4 PUSH1 0x1F NOT DUP2 AND LT PUSH2 0x405E JUMPI JUMPDEST POP POP POP DUP2 SHL ADD DUP3 SSTORE PUSH2 0x31FB JUMP JUMPDEST ADD MLOAD PUSH1 0x0 NOT PUSH1 0xF8 DUP5 PUSH1 0x3 SHL AND SHR NOT AND SWAP1 SSTORE DUP6 DUP1 DUP1 PUSH2 0x4051 JUMP JUMPDEST SWAP1 SWAP2 PUSH1 0x20 PUSH1 0x1 DUP2 SWAP3 DUP6 DUP12 ADD MLOAD DUP2 SSTORE ADD SWAP4 ADD SWAP2 ADD PUSH2 0x4033 JUMP JUMPDEST DUP1 MLOAD DUP1 MLOAD SWAP1 PUSH1 0x1 PUSH1 0x1 PUSH1 0x40 SHL SUB DUP3 GT PUSH2 0x1501 JUMPI PUSH2 0x40B0 DUP3 PUSH2 0x1439 DUP9 SLOAD PUSH2 0x4E17 JUMP JUMPDEST PUSH1 0x20 SWAP1 PUSH1 0x1F DUP4 GT PUSH1 0x1 EQ PUSH2 0x40F7 JUMPI SWAP3 PUSH2 0x40E8 DUP4 PUSH1 0x1 SWAP6 SWAP5 PUSH1 0x20 SWAP5 DUP8 SWAP7 PUSH1 0x0 SWAP3 PUSH2 0x3BE9 JUMPI POP POP DUP2 PUSH1 0x1 SHL SWAP2 PUSH1 0x0 NOT SWAP1 PUSH1 0x3 SHL SHR NOT AND OR SWAP1 JUMP JUMPDEST DUP8 SSTORE JUMPDEST ADD SWAP5 ADD SWAP2 ADD SWAP1 SWAP3 PUSH2 0x2F6B JUMP JUMPDEST SWAP1 DUP7 PUSH1 0x0 MSTORE PUSH1 0x20 PUSH1 0x0 KECCAK256 SWAP2 PUSH1 0x0 JUMPDEST PUSH1 0x1F NOT DUP6 AND DUP2 LT PUSH2 0x414F JUMPI POP DUP4 PUSH1 0x20 SWAP4 PUSH1 0x1 SWAP7 SWAP4 DUP8 SWAP7 SWAP4 DUP8 SWAP5 PUSH1 0x1F NOT DUP2 AND LT PUSH2 0x4136 JUMPI JUMPDEST POP POP POP DUP2 SHL ADD DUP8 SSTORE PUSH2 0x40EB JUMP JUMPDEST ADD MLOAD PUSH1 0x0 NOT PUSH1 0xF8 DUP5 PUSH1 0x3 SHL AND SHR NOT AND SWAP1 SSTORE DUP13 DUP1 DUP1 PUSH2 0x4129 JUMP JUMPDEST SWAP2 SWAP3 PUSH1 0x20 PUSH1 0x1 DUP2 SWAP3 DUP7 DUP6 ADD MLOAD DUP2 SSTORE ADD SWAP5 ADD SWAP3 ADD PUSH2 0x4105 JUMP JUMPDEST PUSH1 0x2 DUP6 ADD PUSH1 0x0 MSTORE PUSH1 0x20 PUSH1 0x0 KECCAK256 SWAP1 DUP4 DUP3 ADD JUMPDEST DUP2 DUP4 ADD DUP2 LT PUSH2 0x4188 JUMPI POP POP PUSH2 0x2F55 JUMP JUMPDEST DUP1 PUSH2 0x4194 PUSH1 0x1 SWAP3 PUSH2 0x5513 JUMP JUMPDEST ADD PUSH2 0x4178 JUMP JUMPDEST PUSH1 0x1 SWAP1 PUSH1 0x20 DUP5 MLOAD SWAP5 ADD SWAP4 DUP2 DUP5 ADD SSTORE ADD PUSH2 0x2F24 JUMP JUMPDEST PUSH2 0x41C8 SWAP1 PUSH1 0x1 DUP8 ADD PUSH1 0x0 MSTORE DUP5 DUP5 PUSH1 0x0 KECCAK256 SWAP2 DUP3 ADD SWAP2 ADD PUSH2 0x5124 JUMP JUMPDEST DUP7 PUSH2 0x2F13 JUMP JUMPDEST DUP4 PUSH1 0x0 MSTORE PUSH1 0x20 PUSH1 0x0 KECCAK256 SWAP1 PUSH1 0x0 JUMPDEST PUSH1 0x1F NOT DUP5 AND DUP2 LT PUSH2 0x421F JUMPI POP PUSH1 0x1 SWAP4 SWAP5 SWAP6 SWAP7 DUP4 PUSH1 0x1F NOT DUP2 AND LT PUSH2 0x4206 JUMPI JUMPDEST POP POP POP DUP2 SHL ADD DUP3 SSTORE PUSH2 0x2EDC JUMP JUMPDEST ADD MLOAD PUSH1 0x0 NOT PUSH1 0xF8 DUP5 PUSH1 0x3 SHL AND SHR NOT AND SWAP1 SSTORE DUP6 DUP1 DUP1 PUSH2 0x41F9 JUMP JUMPDEST SWAP1 SWAP2 PUSH1 0x20 PUSH1 0x1 DUP2 SWAP3 DUP6 DUP12 ADD MLOAD DUP2 SSTORE ADD SWAP4 ADD SWAP2 ADD PUSH2 0x41DB JUMP JUMPDEST PUSH2 0xFFFF NOT AND PUSH2 0x101 OR PUSH1 0x0 SSTORE DUP6 PUSH2 0x2DCD JUMP JUMPDEST POP ADDRESS EXTCODESIZE ISZERO DUP1 ISZERO PUSH2 0x2DB3 JUMPI POP PUSH1 0xFF DUP2 AND PUSH1 0x1 EQ PUSH2 0x2DB3 JUMP JUMPDEST POP PUSH1 0x1 PUSH1 0xFF DUP3 AND LT PUSH2 0x2DAC JUMP JUMPDEST CALLVALUE PUSH2 0x146 JUMPI PUSH1 0x20 DUP1 PUSH1 0x3 NOT CALLDATASIZE ADD SLT PUSH2 0x146 JUMPI PUSH1 0x4 CALLDATALOAD DUP1 PUSH1 0x0 MSTORE PUSH1 0x6B DUP3 MSTORE PUSH2 0x429E PUSH1 0xFF PUSH1 0x3 PUSH1 0x40 PUSH1 0x0 KECCAK256 ADD SLOAD AND PUSH2 0x4F7A JUMP JUMPDEST PUSH1 0x0 MSTORE PUSH1 0x6B DUP2 MSTORE PUSH1 0x40 PUSH1 0x0 KECCAK256 PUSH1 0x1 PUSH1 0x2 PUSH1 0x1 DUP4 ADD SWAP3 ADD PUSH1 0x40 MLOAD DUP1 DUP5 DUP7 DUP3 SWAP7 SLOAD SWAP4 DUP5 DUP2 MSTORE ADD SWAP1 PUSH1 0x0 MSTORE DUP7 PUSH1 0x0 KECCAK256 SWAP3 PUSH1 0x0 JUMPDEST DUP7 DUP10 DUP4 DUP4 LT PUSH2 0x4349 JUMPI POP POP POP POP PUSH2 0x42E7 SWAP3 POP SUB DUP5 PUSH2 0x4D45 JUMP JUMPDEST DUP1 SLOAD SWAP1 PUSH2 0x42F3 DUP3 PUSH2 0x4EE7 JUMP JUMPDEST SWAP5 PUSH2 0x4301 PUSH1 0x40 MLOAD SWAP7 DUP8 PUSH2 0x4D45 JUMP JUMPDEST DUP3 DUP7 MSTORE PUSH1 0x0 SWAP2 DUP3 MSTORE DUP1 DUP3 KECCAK256 DUP2 DUP8 ADD JUMPDEST DUP5 DUP5 LT PUSH2 0x4326 JUMPI PUSH1 0x40 MLOAD DUP1 PUSH2 0x142 DUP11 DUP11 DUP4 PUSH2 0x4B54 JUMP JUMPDEST DUP6 DUP4 DUP2 SWAP3 PUSH1 0x40 MLOAD PUSH2 0x433B DUP2 PUSH2 0x2A14 DUP2 DUP10 PUSH2 0x4E51 JUMP JUMPDEST DUP2 MSTORE ADD SWAP3 ADD SWAP4 ADD SWAP3 SWAP1 PUSH2 0x4310 JUMP JUMPDEST DUP7 SLOAD DUP6 MSTORE SWAP6 DUP2 ADD SWAP6 DUP10 SWAP6 POP SWAP1 SWAP4 ADD SWAP3 ADD PUSH2 0x42CE JUMP JUMPDEST CALLVALUE PUSH2 0x146 JUMPI PUSH1 0x40 CALLDATASIZE PUSH1 0x3 NOT ADD SLT PUSH2 0x146 JUMPI PUSH2 0x4377 PUSH2 0x5686 JUMP JUMPDEST PUSH2 0x4386 PUSH1 0xFF PUSH1 0x6A SLOAD AND ISZERO PUSH2 0x4F12 JUMP JUMPDEST PUSH1 0x4 CALLDATALOAD PUSH1 0x0 MSTORE PUSH1 0x6B PUSH1 0x20 MSTORE PUSH2 0x43A5 PUSH1 0xFF PUSH1 0x3 PUSH1 0x40 PUSH1 0x0 KECCAK256 ADD SLOAD AND PUSH2 0x4F7A JUMP JUMPDEST PUSH1 0x66 DUP1 SLOAD SWAP1 PUSH1 0x0 JUMPDEST DUP3 DUP2 LT PUSH2 0x47A2 JUMPI PUSH1 0x0 PUSH1 0x69 SSTORE PUSH1 0x4 CALLDATALOAD PUSH1 0x0 MSTORE PUSH1 0x6B PUSH1 0x20 MSTORE PUSH1 0x40 PUSH1 0x0 KECCAK256 PUSH1 0x0 SWAP1 PUSH1 0x0 PUSH1 0x1 DUP3 ADD SLOAD JUMPDEST DUP1 DUP3 LT PUSH2 0x4779 JUMPI POP POP DUP2 ISZERO PUSH2 0x470E JUMPI PUSH1 0x0 JUMPDEST PUSH1 0x1 DUP3 ADD SLOAD DUP2 LT ISZERO PUSH2 0x46D3 JUMPI PUSH2 0x43FF DUP2 PUSH1 0x1 DUP5 ADD PUSH2 0x50FF JUMP JUMPDEST SWAP1 SLOAD SWAP1 PUSH1 0x3 SHL SHR ISZERO PUSH2 0x46CB JUMPI PUSH2 0x4418 DUP2 PUSH1 0x1 DUP5 ADD PUSH2 0x50FF JUMP JUMPDEST SWAP1 SLOAD SWAP1 PUSH1 0x3 SHL SHR PUSH1 0x24 CALLDATALOAD DUP2 PUSH1 0x24 CALLDATALOAD MUL DIV DUP2 EQ PUSH1 0x24 CALLDATALOAD ISZERO OR ISZERO PUSH2 0x46B5 JUMPI DUP4 ISZERO PUSH2 0x469F JUMPI PUSH1 0x40 MLOAD PUSH1 0x4 CALLDATALOAD PUSH1 0x20 DUP3 ADD MSTORE DUP3 PUSH1 0x40 DUP3 ADD MSTORE PUSH1 0x40 DUP2 MSTORE DUP1 PUSH1 0x60 DUP2 ADD LT PUSH1 0x1 PUSH1 0x1 PUSH1 0x40 SHL SUB PUSH1 0x60 DUP4 ADD GT OR PUSH2 0x1501 JUMPI PUSH1 0x60 DUP2 ADD PUSH1 0x40 MSTORE DUP1 MLOAD PUSH1 0x20 SWAP1 SWAP2 ADD KECCAK256 PUSH1 0x1 PUSH1 0x1 PUSH1 0xA0 SHL SUB SWAP1 DUP2 AND SWAP2 PUSH2 0x448F DUP5 PUSH1 0x2 DUP8 ADD PUSH2 0x50FF JUMP JUMPDEST POP SWAP2 PUSH2 0x44C1 PUSH1 0x40 MLOAD SWAP4 PUSH2 0x44A1 DUP6 PUSH2 0x4CA2 JUMP JUMPDEST DUP6 DUP6 MSTORE PUSH2 0x44C8 PUSH1 0x20 DUP7 ADD SWAP2 DUP11 DUP7 PUSH1 0x24 CALLDATALOAD MUL DIV DUP4 MSTORE PUSH1 0x40 MLOAD SWAP4 DUP5 DUP1 SWAP3 PUSH2 0x4E51 JUMP JUMPDEST SUB DUP4 PUSH2 0x4D45 JUMP JUMPDEST PUSH1 0x40 DUP6 ADD SWAP2 DUP3 MSTORE PUSH1 0x0 PUSH1 0x60 DUP7 ADD MSTORE PUSH1 0x0 PUSH1 0x80 DUP7 ADD MSTORE DUP6 PUSH1 0x0 MSTORE PUSH1 0x68 PUSH1 0x20 MSTORE PUSH1 0x40 PUSH1 0x0 KECCAK256 SWAP3 DUP6 MLOAD AND PUSH1 0x1 PUSH1 0x1 PUSH1 0x60 SHL SUB PUSH1 0xA0 SHL DUP5 SLOAD AND OR DUP4 SSTORE MLOAD PUSH1 0x1 DUP4 ADD SSTORE MLOAD SWAP3 DUP4 MLOAD PUSH1 0x1 PUSH1 0x1 PUSH1 0x40 SHL SUB DUP2 GT PUSH2 0x1501 JUMPI DUP9 SWAP5 PUSH2 0x4534 DUP3 PUSH2 0x452B PUSH1 0x2 DUP8 ADD SLOAD PUSH2 0x4E17 JUMP JUMPDEST PUSH1 0x2 DUP8 ADD PUSH2 0x5165 JUMP JUMPDEST PUSH1 0x20 SWAP1 PUSH1 0x1F DUP4 GT PUSH1 0x1 EQ PUSH2 0x4610 JUMPI PUSH1 0x0 DUP1 MLOAD PUSH1 0x20 PUSH2 0x5AE7 DUP4 CODECOPY DUP2 MLOAD SWAP2 MSTORE SWAP6 SWAP4 PUSH2 0x4580 DUP5 PUSH1 0x1 SWAP12 SWAP11 SWAP10 SWAP8 SWAP6 PUSH1 0x4 SWAP6 PUSH1 0x80 SWAP6 PUSH1 0x0 SWAP3 PUSH2 0x2852 JUMPI POP POP DUP2 PUSH1 0x1 SHL SWAP2 PUSH1 0x0 NOT SWAP1 PUSH1 0x3 SHL SHR NOT AND OR SWAP1 JUMP JUMPDEST PUSH1 0x2 DUP6 ADD SSTORE JUMPDEST PUSH2 0x45A5 PUSH1 0x60 DUP3 ADD MLOAD ISZERO ISZERO PUSH1 0x3 DUP7 ADD SWAP1 PUSH1 0xFF DUP1 NOT DUP4 SLOAD AND SWAP2 ISZERO ISZERO AND OR SWAP1 SSTORE JUMP JUMPDEST ADD MLOAD SWAP2 ADD SSTORE PUSH2 0x45B3 DUP5 PUSH2 0x591F JUMP JUMPDEST POP PUSH2 0x45C6 DUP3 DUP3 PUSH1 0x24 CALLDATALOAD MUL DIV PUSH1 0x69 SLOAD PUSH2 0x5117 JUMP JUMPDEST PUSH1 0x69 SSTORE PUSH2 0x45F8 PUSH2 0x45D9 DUP7 PUSH1 0x2 DUP11 ADD PUSH2 0x50FF JUMP JUMPDEST POP PUSH1 0x40 MLOAD SWAP4 DUP5 SWAP4 PUSH1 0x24 CALLDATALOAD MUL DIV DUP4 MSTORE PUSH1 0x80 PUSH1 0x20 DUP5 ADD MSTORE PUSH1 0x80 DUP4 ADD SWAP1 PUSH2 0x4E51 JUMP JUMPDEST PUSH1 0x0 PUSH1 0x40 DUP4 ADD MSTORE PUSH1 0x0 PUSH1 0x60 DUP4 ADD MSTORE SUB SWAP1 LOG2 JUMPDEST ADD PUSH2 0x43E6 JUMP JUMPDEST SWAP2 SWAP3 SWAP4 SWAP5 SWAP6 POP PUSH1 0x2 DUP6 ADD PUSH1 0x0 MSTORE PUSH1 0x20 PUSH1 0x0 KECCAK256 SWAP2 PUSH1 0x0 JUMPDEST PUSH1 0x1F NOT DUP6 AND DUP2 LT PUSH2 0x4687 JUMPI POP DUP11 SWAP5 PUSH1 0x1 DUP6 PUSH1 0x0 DUP1 MLOAD PUSH1 0x20 PUSH2 0x5AE7 DUP4 CODECOPY DUP2 MLOAD SWAP2 MSTORE SWAP9 SWAP6 PUSH1 0x4 SWAP6 PUSH1 0x80 SWAP6 DUP5 SWAP15 SWAP14 SWAP13 SWAP10 PUSH1 0x1F NOT DUP2 AND LT PUSH2 0x466E JUMPI JUMPDEST POP POP POP DUP2 SHL ADD PUSH1 0x2 DUP6 ADD SSTORE PUSH2 0x4586 JUMP JUMPDEST ADD MLOAD PUSH1 0x0 NOT PUSH1 0xF8 DUP5 PUSH1 0x3 SHL AND SHR NOT AND SWAP1 SSTORE DUP15 DUP1 DUP1 PUSH2 0x465E JUMP JUMPDEST DUP2 DUP4 ADD MLOAD DUP5 SSTORE PUSH1 0x1 SWAP1 SWAP4 ADD SWAP3 PUSH1 0x20 SWAP3 DUP4 ADD SWAP3 ADD PUSH2 0x4626 JUMP JUMPDEST PUSH4 0x4E487B71 PUSH1 0xE0 SHL PUSH1 0x0 MSTORE PUSH1 0x12 PUSH1 0x4 MSTORE PUSH1 0x24 PUSH1 0x0 REVERT JUMPDEST PUSH4 0x4E487B71 PUSH1 0xE0 SHL PUSH1 0x0 MSTORE PUSH1 0x11 PUSH1 0x4 MSTORE PUSH1 0x24 PUSH1 0x0 REVERT JUMPDEST PUSH1 0x1 SWAP1 PUSH2 0x460A JUMP JUMPDEST PUSH1 0x40 MLOAD PUSH1 0x24 CALLDATALOAD DUP2 MSTORE PUSH32 0x3BD40EAE53B08ABC7BB394225E1E7E99430A5C44CB02F4AA40F881074DE8A38A PUSH1 0x20 PUSH1 0x4 CALLDATALOAD SWAP3 LOG2 PUSH1 0x20 PUSH1 0x40 MLOAD PUSH1 0x1 DUP2 MSTORE RETURN JUMPDEST PUSH1 0x40 MLOAD PUSH3 0x461BCD PUSH1 0xE5 SHL DUP2 MSTORE PUSH1 0x20 PUSH1 0x4 DUP3 ADD MSTORE PUSH1 0x3B PUSH1 0x24 DUP3 ADD MSTORE PUSH32 0x5634446973747269627574696F6E4D6F64756C653A20746F74616C2072617469 PUSH1 0x44 DUP3 ADD MSTORE PUSH32 0x6F206D7573742062652067726561746572207468616E207A65726F0000000000 PUSH1 0x64 DUP3 ADD MSTORE PUSH1 0x84 SWAP1 REVERT JUMPDEST SWAP1 SWAP3 PUSH2 0x479A PUSH1 0x1 SWAP2 PUSH2 0x478D DUP7 DUP5 DUP8 ADD PUSH2 0x50FF JUMP JUMPDEST SWAP1 SLOAD SWAP1 PUSH1 0x3 SHL SHR SWAP1 PUSH2 0x5117 JUMP JUMPDEST SWAP4 ADD SWAP1 PUSH2 0x43D4 JUMP JUMPDEST DUP2 SLOAD ISZERO PUSH2 0x4820 JUMPI PUSH1 0x1 SWAP1 DUP2 DUP1 PUSH1 0xA0 SHL SUB PUSH32 0x46501879B8CA8525E8C2FD519E2FBFCFA2EBEA26501294AA02CBFCFB12E94354 SLOAD AND DUP1 PUSH1 0x0 MSTORE PUSH1 0x68 PUSH1 0x20 MSTORE PUSH2 0x47EB PUSH1 0x40 PUSH1 0x0 KECCAK256 PUSH2 0x555C JUMP JUMPDEST PUSH2 0x47F4 DUP2 PUSH2 0x599C JUMP JUMPDEST POP PUSH32 0x85F179D4205EDD87E18C80DF3160316DF70C87A3C515D0650C32DAE6EAD80AFD PUSH1 0x0 DUP1 LOG2 ADD PUSH2 0x43AD JUMP JUMPDEST PUSH4 0x4E487B71 PUSH1 0xE0 SHL PUSH1 0x0 MSTORE PUSH1 0x32 PUSH1 0x4 MSTORE PUSH1 0x24 PUSH1 0x0 REVERT JUMPDEST CALLVALUE PUSH2 0x146 JUMPI PUSH1 0x0 CALLDATASIZE PUSH1 0x3 NOT ADD SLT PUSH2 0x146 JUMPI PUSH1 0x65 SLOAD PUSH1 0x40 MLOAD PUSH1 0x1 PUSH1 0x1 PUSH1 0xA0 SHL SUB SWAP1 SWAP2 AND DUP2 MSTORE PUSH1 0x20 SWAP1 RETURN JUMPDEST CALLVALUE PUSH2 0x146 JUMPI PUSH1 0x0 CALLDATASIZE PUSH1 0x3 NOT ADD SLT PUSH2 0x146 JUMPI PUSH1 0x66 SLOAD PUSH2 0x487C DUP2 PUSH2 0x4EE7 JUMP JUMPDEST PUSH2 0x4889 PUSH1 0x40 MLOAD SWAP2 DUP3 PUSH2 0x4D45 JUMP JUMPDEST DUP2 DUP2 MSTORE PUSH2 0x4895 DUP3 PUSH2 0x4EE7 JUMP JUMPDEST PUSH1 0x20 SWAP3 SWAP1 PUSH1 0x1F NOT ADD DUP4 PUSH1 0x0 JUMPDEST DUP3 DUP2 LT PUSH2 0x49A7 JUMPI POP POP POP PUSH1 0x0 JUMPDEST DUP2 DUP2 LT PUSH2 0x4916 JUMPI POP POP PUSH1 0x40 MLOAD SWAP1 DUP3 DUP3 ADD SWAP3 DUP1 DUP4 MSTORE DUP2 MLOAD DUP1 SWAP5 MSTORE PUSH1 0x40 DUP4 ADD SWAP4 DUP2 PUSH1 0x40 DUP3 PUSH1 0x5 SHL DUP7 ADD ADD SWAP4 ADD SWAP2 PUSH1 0x0 SWAP6 JUMPDEST DUP3 DUP8 LT PUSH2 0x48EA JUMPI DUP6 DUP6 SUB DUP7 RETURN JUMPDEST SWAP1 SWAP2 SWAP3 SWAP4 DUP3 DUP1 PUSH2 0x4906 PUSH1 0x1 SWAP4 PUSH1 0x3F NOT DUP11 DUP3 SUB ADD DUP7 MSTORE DUP9 MLOAD PUSH2 0x4B0C JUMP JUMPDEST SWAP7 ADD SWAP3 ADD SWAP7 ADD SWAP6 SWAP3 SWAP2 SWAP1 SWAP3 PUSH2 0x48DD JUMP JUMPDEST DUP1 PUSH1 0x4 PUSH2 0x4924 PUSH1 0x1 SWAP4 PUSH2 0x4FDA JUMP JUMPDEST DUP5 DUP1 PUSH1 0xA0 SWAP5 SWAP4 SWAP5 SHL SUB DUP1 SWAP4 SLOAD PUSH1 0x3 SWAP3 DUP4 SHL SHR AND PUSH1 0x0 MSTORE PUSH1 0x68 DUP9 MSTORE PUSH1 0xFF PUSH1 0x40 PUSH1 0x0 KECCAK256 SWAP2 PUSH1 0x40 MLOAD SWAP5 PUSH2 0x4953 DUP7 PUSH2 0x4CA2 JUMP JUMPDEST DUP4 SLOAD AND DUP6 MSTORE DUP7 DUP4 ADD SLOAD DUP11 DUP7 ADD MSTORE PUSH1 0x40 MLOAD PUSH2 0x4974 DUP2 PUSH2 0x2A14 DUP2 PUSH1 0x2 DUP9 ADD PUSH2 0x4E51 JUMP JUMPDEST PUSH1 0x40 DUP7 ADD MSTORE DUP3 ADD SLOAD AND ISZERO ISZERO PUSH1 0x60 DUP5 ADD MSTORE ADD SLOAD PUSH1 0x80 DUP3 ADD MSTORE PUSH2 0x4995 DUP3 DUP7 PUSH2 0x4EFE JUMP JUMPDEST MSTORE PUSH2 0x49A0 DUP2 DUP6 PUSH2 0x4EFE JUMP JUMPDEST POP ADD PUSH2 0x48AE JUMP JUMPDEST PUSH2 0x49AF PUSH2 0x4D81 JUMP JUMPDEST DUP3 DUP3 DUP8 ADD ADD MSTORE ADD DUP5 SWAP1 PUSH2 0x48A1 JUMP JUMPDEST CALLVALUE PUSH2 0x146 JUMPI PUSH1 0x20 CALLDATASIZE PUSH1 0x3 NOT ADD SLT PUSH2 0x146 JUMPI PUSH2 0x142 PUSH2 0x49D9 PUSH2 0x4AAE JUMP JUMPDEST PUSH2 0x49E1 PUSH2 0x4D81 JUMP JUMPDEST POP PUSH1 0x1 PUSH1 0x1 PUSH1 0xA0 SHL SUB SWAP1 DUP2 AND PUSH1 0x0 DUP2 DUP2 MSTORE PUSH1 0x67 PUSH1 0x20 MSTORE PUSH1 0x40 SWAP1 KECCAK256 SLOAD PUSH2 0x4A07 SWAP1 ISZERO ISZERO PUSH2 0x4DAD JUMP JUMPDEST PUSH1 0x0 MSTORE PUSH1 0x68 PUSH1 0x20 MSTORE PUSH1 0x4 PUSH1 0x40 PUSH1 0x0 KECCAK256 PUSH1 0x40 MLOAD SWAP3 PUSH2 0x4A23 DUP5 PUSH2 0x4CA2 JUMP JUMPDEST DUP2 SLOAD AND DUP4 MSTORE PUSH1 0x1 DUP2 ADD SLOAD PUSH1 0x20 DUP5 ADD MSTORE PUSH1 0x40 MLOAD PUSH2 0x4A46 DUP2 PUSH2 0x2A14 DUP2 PUSH1 0x2 DUP7 ADD PUSH2 0x4E51 JUMP JUMPDEST PUSH1 0x40 DUP5 ADD MSTORE PUSH1 0xFF PUSH1 0x3 DUP3 ADD SLOAD AND ISZERO ISZERO PUSH1 0x60 DUP5 ADD MSTORE ADD SLOAD PUSH1 0x80 DUP3 ADD MSTORE PUSH1 0x40 MLOAD SWAP2 DUP3 SWAP2 PUSH1 0x20 DUP4 MSTORE PUSH1 0x20 DUP4 ADD SWAP1 PUSH2 0x4B0C JUMP JUMPDEST CALLVALUE PUSH2 0x146 JUMPI PUSH1 0x0 CALLDATASIZE PUSH1 0x3 NOT ADD SLT PUSH2 0x146 JUMPI DUP1 PUSH32 0x6E4379AD5ABE51B1F38D7C717558B084CA50F05C182778BE47E8AA04793CFE2D PUSH1 0x20 SWAP3 MSTORE RETURN JUMPDEST PUSH1 0x4 CALLDATALOAD SWAP1 PUSH1 0x1 PUSH1 0x1 PUSH1 0xA0 SHL SUB DUP3 AND DUP3 SUB PUSH2 0x146 JUMPI JUMP JUMPDEST PUSH1 0x0 JUMPDEST DUP4 DUP2 LT PUSH2 0x4AD7 JUMPI POP POP PUSH1 0x0 SWAP2 ADD MSTORE JUMP JUMPDEST DUP2 DUP2 ADD MLOAD DUP4 DUP3 ADD MSTORE PUSH1 0x20 ADD PUSH2 0x4AC7 JUMP JUMPDEST SWAP1 PUSH1 0x20 SWAP2 PUSH2 0x4B00 DUP2 MLOAD DUP1 SWAP3 DUP2 DUP6 MSTORE DUP6 DUP1 DUP7 ADD SWAP2 ADD PUSH2 0x4AC4 JUMP JUMPDEST PUSH1 0x1F ADD PUSH1 0x1F NOT AND ADD ADD SWAP1 JUMP JUMPDEST SWAP1 PUSH1 0x1 DUP1 PUSH1 0xA0 SHL SUB DUP3 MLOAD AND DUP2 MSTORE PUSH1 0x20 DUP3 ADD MLOAD PUSH1 0x20 DUP3 ADD MSTORE PUSH1 0x80 DUP1 PUSH2 0x4B3F PUSH1 0x40 DUP6 ADD MLOAD PUSH1 0xA0 PUSH1 0x40 DUP7 ADD MSTORE PUSH1 0xA0 DUP6 ADD SWAP1 PUSH2 0x4AE7 JUMP JUMPDEST SWAP4 PUSH1 0x60 DUP2 ADD MLOAD ISZERO ISZERO PUSH1 0x60 DUP6 ADD MSTORE ADD MLOAD SWAP2 ADD MSTORE SWAP1 JUMP JUMPDEST SWAP1 PUSH1 0x40 DUP3 ADD SWAP2 PUSH1 0x40 DUP2 MSTORE DUP2 MLOAD DUP1 SWAP4 MSTORE PUSH1 0x60 DUP2 ADD SWAP3 PUSH1 0x20 DUP1 SWAP4 ADD SWAP1 PUSH1 0x0 JUMPDEST DUP2 DUP2 LT PUSH2 0x4BDA JUMPI POP POP POP DUP2 DUP2 DUP5 SUB SWAP2 ADD MSTORE DUP3 MLOAD SWAP1 DUP2 DUP4 MSTORE DUP1 DUP4 ADD SWAP3 DUP2 DUP1 DUP5 PUSH1 0x5 SHL DUP4 ADD ADD SWAP6 ADD SWAP4 PUSH1 0x0 SWAP2 JUMPDEST DUP5 DUP4 LT PUSH2 0x4BAC JUMPI POP POP POP POP POP POP SWAP1 JUMP JUMPDEST SWAP1 SWAP2 SWAP3 SWAP4 SWAP5 SWAP6 DUP5 DUP1 PUSH2 0x4BCA PUSH1 0x1 SWAP4 PUSH1 0x1F NOT DUP7 DUP3 SUB ADD DUP8 MSTORE DUP11 MLOAD PUSH2 0x4AE7 JUMP JUMPDEST SWAP9 ADD SWAP4 ADD SWAP4 ADD SWAP2 SWAP5 SWAP4 SWAP3 SWAP1 PUSH2 0x4B9C JUMP JUMPDEST DUP3 MLOAD DUP7 MSTORE SWAP5 DUP5 ADD SWAP5 SWAP2 DUP5 ADD SWAP2 PUSH1 0x1 ADD PUSH2 0x4B71 JUMP JUMPDEST SWAP2 DUP2 PUSH1 0x1F DUP5 ADD SLT ISZERO PUSH2 0x146 JUMPI DUP3 CALLDATALOAD SWAP2 PUSH1 0x1 PUSH1 0x1 PUSH1 0x40 SHL SUB DUP4 GT PUSH2 0x146 JUMPI PUSH1 0x20 DUP4 DUP2 DUP7 ADD SWAP6 ADD ADD GT PUSH2 0x146 JUMPI JUMP JUMPDEST PUSH1 0xA0 PUSH1 0x3 NOT DUP3 ADD SLT PUSH2 0x146 JUMPI PUSH1 0x4 CALLDATALOAD PUSH1 0x1 PUSH1 0x1 PUSH1 0xA0 SHL SUB DUP2 AND DUP2 SUB PUSH2 0x146 JUMPI SWAP2 PUSH1 0x24 CALLDATALOAD SWAP2 PUSH1 0x44 CALLDATALOAD SWAP1 PUSH1 0x1 PUSH1 0x1 PUSH1 0x40 SHL SUB DUP3 GT PUSH2 0x146 JUMPI PUSH2 0x4C5D SWAP2 PUSH1 0x4 ADD PUSH2 0x4BEE JUMP JUMPDEST SWAP1 SWAP2 PUSH1 0x64 CALLDATALOAD DUP1 ISZERO ISZERO DUP2 SUB PUSH2 0x146 JUMPI SWAP1 PUSH1 0x84 CALLDATALOAD SWAP1 JUMP JUMPDEST SWAP2 DUP2 PUSH1 0x1F DUP5 ADD SLT ISZERO PUSH2 0x146 JUMPI DUP3 CALLDATALOAD SWAP2 PUSH1 0x1 PUSH1 0x1 PUSH1 0x40 SHL SUB DUP4 GT PUSH2 0x146 JUMPI PUSH1 0x20 DUP1 DUP6 ADD SWAP5 DUP5 PUSH1 0x5 SHL ADD ADD GT PUSH2 0x146 JUMPI JUMP JUMPDEST PUSH1 0xA0 DUP2 ADD SWAP1 DUP2 LT PUSH1 0x1 PUSH1 0x1 PUSH1 0x40 SHL SUB DUP3 GT OR PUSH2 0x1501 JUMPI PUSH1 0x40 MSTORE JUMP JUMPDEST PUSH1 0x80 DUP2 ADD SWAP1 DUP2 LT PUSH1 0x1 PUSH1 0x1 PUSH1 0x40 SHL SUB DUP3 GT OR PUSH2 0x1501 JUMPI PUSH1 0x40 MSTORE JUMP JUMPDEST PUSH1 0xC0 DUP2 ADD SWAP1 DUP2 LT PUSH1 0x1 PUSH1 0x1 PUSH1 0x40 SHL SUB DUP3 GT OR PUSH2 0x1501 JUMPI PUSH1 0x40 MSTORE JUMP JUMPDEST PUSH1 0x40 DUP2 ADD SWAP1 DUP2 LT PUSH1 0x1 PUSH1 0x1 PUSH1 0x40 SHL SUB DUP3 GT OR PUSH2 0x1501 JUMPI PUSH1 0x40 MSTORE JUMP JUMPDEST PUSH1 0xE0 DUP2 ADD SWAP1 DUP2 LT PUSH1 0x1 PUSH1 0x1 PUSH1 0x40 SHL SUB DUP3 GT OR PUSH2 0x1501 JUMPI PUSH1 0x40 MSTORE JUMP JUMPDEST PUSH2 0x100 DUP2 ADD SWAP1 DUP2 LT PUSH1 0x1 PUSH1 0x1 PUSH1 0x40 SHL SUB DUP3 GT OR PUSH2 0x1501 JUMPI PUSH1 0x40 MSTORE JUMP JUMPDEST SWAP1 PUSH1 0x1F DUP1 NOT SWAP2 ADD AND DUP2 ADD SWAP1 DUP2 LT PUSH1 0x1 PUSH1 0x1 PUSH1 0x40 SHL SUB DUP3 GT OR PUSH2 0x1501 JUMPI PUSH1 0x40 MSTORE JUMP JUMPDEST PUSH1 0x1 PUSH1 0x1 PUSH1 0x40 SHL SUB DUP2 GT PUSH2 0x1501 JUMPI PUSH1 0x1F ADD PUSH1 0x1F NOT AND PUSH1 0x20 ADD SWAP1 JUMP JUMPDEST PUSH1 0x40 MLOAD SWAP1 PUSH2 0x4D8E DUP3 PUSH2 0x4CA2 JUMP JUMPDEST PUSH1 0x0 PUSH1 0x80 DUP4 DUP3 DUP2 MSTORE DUP3 PUSH1 0x20 DUP3 ADD MSTORE PUSH1 0x60 PUSH1 0x40 DUP3 ADD MSTORE DUP3 PUSH1 0x60 DUP3 ADD MSTORE ADD MSTORE JUMP JUMPDEST ISZERO PUSH2 0x4DB4 JUMPI JUMP JUMPDEST PUSH1 0x40 MLOAD PUSH3 0x461BCD PUSH1 0xE5 SHL DUP2 MSTORE PUSH1 0x20 PUSH1 0x4 DUP3 ADD MSTORE PUSH1 0x35 PUSH1 0x24 DUP3 ADD MSTORE PUSH32 0x5634446973747269627574696F6E4D6F64756C653A2077616C6C657420646F65 PUSH1 0x44 DUP3 ADD MSTORE PUSH21 0x39903737BA103430BB329030B63637B1B0BA34B7B7 PUSH1 0x59 SHL PUSH1 0x64 DUP3 ADD MSTORE PUSH1 0x84 SWAP1 REVERT JUMPDEST SWAP1 PUSH1 0x1 DUP3 DUP2 SHR SWAP3 AND DUP1 ISZERO PUSH2 0x4E47 JUMPI JUMPDEST PUSH1 0x20 DUP4 LT EQ PUSH2 0x4E31 JUMPI JUMP JUMPDEST PUSH4 0x4E487B71 PUSH1 0xE0 SHL PUSH1 0x0 MSTORE PUSH1 0x22 PUSH1 0x4 MSTORE PUSH1 0x24 PUSH1 0x0 REVERT JUMPDEST SWAP2 PUSH1 0x7F AND SWAP2 PUSH2 0x4E26 JUMP JUMPDEST DUP1 SLOAD PUSH1 0x0 SWAP4 SWAP3 PUSH2 0x4E60 DUP3 PUSH2 0x4E17 JUMP JUMPDEST SWAP2 DUP3 DUP3 MSTORE PUSH1 0x20 SWAP4 PUSH1 0x1 SWAP2 PUSH1 0x1 DUP2 AND SWAP1 DUP2 PUSH1 0x0 EQ PUSH2 0x4EC8 JUMPI POP PUSH1 0x1 EQ PUSH2 0x4E87 JUMPI JUMPDEST POP POP POP POP POP JUMP JUMPDEST SWAP1 SWAP4 SWAP5 SWAP6 POP PUSH1 0x0 SWAP3 SWAP2 SWAP3 MSTORE DUP4 PUSH1 0x0 KECCAK256 SWAP3 DUP5 PUSH1 0x0 SWAP5 JUMPDEST DUP4 DUP7 LT PUSH2 0x4EB4 JUMPI POP POP POP POP ADD ADD SWAP1 CODESIZE DUP1 DUP1 DUP1 DUP1 PUSH2 0x4E80 JUMP JUMPDEST DUP1 SLOAD DUP6 DUP8 ADD DUP4 ADD MSTORE SWAP5 ADD SWAP4 DUP6 SWAP1 DUP3 ADD PUSH2 0x4E9C JUMP JUMPDEST PUSH1 0xFF NOT AND DUP7 DUP6 ADD MSTORE POP POP POP SWAP1 ISZERO ISZERO PUSH1 0x5 SHL ADD ADD SWAP2 POP CODESIZE DUP1 DUP1 DUP1 DUP1 PUSH2 0x4E80 JUMP JUMPDEST PUSH1 0x1 PUSH1 0x1 PUSH1 0x40 SHL SUB DUP2 GT PUSH2 0x1501 JUMPI PUSH1 0x5 SHL PUSH1 0x20 ADD SWAP1 JUMP JUMPDEST DUP1 MLOAD DUP3 LT ISZERO PUSH2 0x4820 JUMPI PUSH1 0x20 SWAP2 PUSH1 0x5 SHL ADD ADD SWAP1 JUMP JUMPDEST ISZERO PUSH2 0x4F19 JUMPI JUMP JUMPDEST PUSH1 0x40 MLOAD PUSH3 0x461BCD PUSH1 0xE5 SHL DUP2 MSTORE PUSH1 0x20 PUSH1 0x4 DUP3 ADD MSTORE PUSH1 0x33 PUSH1 0x24 DUP3 ADD MSTORE PUSH32 0x5634446973747269627574696F6E4D6F64756C653A2064697374726962757469 PUSH1 0x44 DUP3 ADD MSTORE PUSH19 0x1BDB88185B1C9958591E48195E1958DD5D1959 PUSH1 0x6A SHL PUSH1 0x64 DUP3 ADD MSTORE PUSH1 0x84 SWAP1 REVERT JUMPDEST ISZERO PUSH2 0x4F81 JUMPI JUMP JUMPDEST PUSH1 0x40 MLOAD PUSH3 0x461BCD PUSH1 0xE5 SHL DUP2 MSTORE PUSH1 0x20 PUSH1 0x4 DUP3 ADD MSTORE PUSH1 0x2B PUSH1 0x24 DUP3 ADD MSTORE PUSH32 0x5634446973747269627574696F6E4D6F64756C653A2070726573657420646F65 PUSH1 0x44 DUP3 ADD MSTORE PUSH11 0x1CC81B9BDD08195E1A5CDD PUSH1 0xAA SHL PUSH1 0x64 DUP3 ADD MSTORE PUSH1 0x84 SWAP1 REVERT JUMPDEST PUSH1 0x66 SLOAD DUP2 LT ISZERO PUSH2 0x4820 JUMPI PUSH1 0x66 PUSH1 0x0 MSTORE PUSH32 0x46501879B8CA8525E8C2FD519E2FBFCFA2EBEA26501294AA02CBFCFB12E94354 ADD SWAP1 PUSH1 0x0 SWAP1 JUMP JUMPDEST DUP1 SLOAD ISZERO PUSH2 0x4820 JUMPI PUSH1 0x0 MSTORE PUSH1 0x20 PUSH1 0x0 KECCAK256 SWAP1 PUSH1 0x0 SWAP1 JUMP JUMPDEST DUP1 SLOAD PUSH1 0x1 LT ISZERO PUSH2 0x4820 JUMPI PUSH1 0x0 MSTORE PUSH1 0x1 PUSH1 0x20 PUSH1 0x0 KECCAK256 ADD SWAP1 PUSH1 0x0 SWAP1 JUMP JUMPDEST DUP1 SLOAD PUSH1 0x2 LT ISZERO PUSH2 0x4820 JUMPI PUSH1 0x0 MSTORE PUSH1 0x2 PUSH1 0x20 PUSH1 0x0 KECCAK256 ADD SWAP1 PUSH1 0x0 SWAP1 JUMP JUMPDEST DUP1 SLOAD PUSH1 0x3 LT ISZERO PUSH2 0x4820 JUMPI PUSH1 0x0 MSTORE PUSH1 0x3 PUSH1 0x20 PUSH1 0x0 KECCAK256 ADD SWAP1 PUSH1 0x0 SWAP1 JUMP JUMPDEST DUP1 SLOAD PUSH1 0x4 LT ISZERO PUSH2 0x4820 JUMPI PUSH1 0x0 MSTORE PUSH1 0x4 PUSH1 0x20 PUSH1 0x0 KECCAK256 ADD SWAP1 PUSH1 0x0 SWAP1 JUMP JUMPDEST DUP1 SLOAD PUSH1 0x5 LT ISZERO PUSH2 0x4820 JUMPI PUSH1 0x0 MSTORE PUSH1 0x5 PUSH1 0x20 PUSH1 0x0 KECCAK256 ADD SWAP1 PUSH1 0x0 SWAP1 JUMP JUMPDEST DUP1 SLOAD PUSH1 0x6 LT ISZERO PUSH2 0x4820 JUMPI PUSH1 0x0 MSTORE PUSH1 0x6 PUSH1 0x20 PUSH1 0x0 KECCAK256 ADD SWAP1 PUSH1 0x0 SWAP1 JUMP JUMPDEST PUSH1 0x6C SLOAD DUP2 LT ISZERO PUSH2 0x4820 JUMPI PUSH1 0x6C PUSH1 0x0 MSTORE PUSH32 0x2B4A51AB505FC96A0952EFDA2BA61BCD3078D4C02C39A186EC16F21883FBE016 ADD SWAP1 PUSH1 0x0 SWAP1 JUMP JUMPDEST DUP1 SLOAD DUP3 LT ISZERO PUSH2 0x4820 JUMPI PUSH1 0x0 MSTORE PUSH1 0x20 PUSH1 0x0 KECCAK256 ADD SWAP1 PUSH1 0x0 SWAP1 JUMP JUMPDEST SWAP2 SWAP1 DUP3 ADD DUP1 SWAP3 GT PUSH2 0x46B5 JUMPI JUMP JUMPDEST DUP2 DUP2 LT PUSH2 0x512F JUMPI POP POP JUMP JUMPDEST PUSH1 0x0 DUP2 SSTORE PUSH1 0x1 ADD PUSH2 0x5124 JUMP JUMPDEST SWAP1 PUSH1 0x1F DUP2 GT PUSH2 0x5148 JUMPI POP POP JUMP JUMPDEST PUSH2 0x5163 SWAP2 PUSH1 0x0 MSTORE PUSH1 0x1F PUSH1 0x20 PUSH1 0x0 KECCAK256 SWAP2 ADD PUSH1 0x5 SHR DUP2 ADD SWAP1 PUSH2 0x5124 JUMP JUMPDEST JUMP JUMPDEST SWAP2 SWAP1 PUSH1 0x1F DUP2 GT PUSH2 0x5174 JUMPI POP POP POP JUMP JUMPDEST PUSH2 0x5163 SWAP3 PUSH1 0x0 MSTORE PUSH1 0x20 PUSH1 0x0 KECCAK256 SWAP1 PUSH1 0x20 PUSH1 0x1F DUP5 ADD PUSH1 0x5 SHR DUP4 ADD SWAP4 LT PUSH2 0x51A0 JUMPI JUMPDEST PUSH1 0x1F ADD PUSH1 0x5 SHR ADD SWAP1 PUSH2 0x5124 JUMP JUMPDEST SWAP1 SWAP2 POP DUP2 SWAP1 PUSH2 0x5193 JUMP JUMPDEST ISZERO PUSH2 0x51B1 JUMPI JUMP JUMPDEST PUSH1 0x40 MLOAD PUSH3 0x461BCD PUSH1 0xE5 SHL DUP2 MSTORE PUSH1 0x20 PUSH1 0x4 DUP3 ADD MSTORE PUSH1 0x2E PUSH1 0x24 DUP3 ADD MSTORE PUSH32 0x496E697469616C697A61626C653A20636F6E747261637420697320616C726561 PUSH1 0x44 DUP3 ADD MSTORE PUSH14 0x191E481A5B9A5D1A585B1A5E9959 PUSH1 0x92 SHL PUSH1 0x64 DUP3 ADD MSTORE PUSH1 0x84 SWAP1 REVERT JUMPDEST ISZERO PUSH2 0x5214 JUMPI JUMP JUMPDEST PUSH1 0x40 MLOAD PUSH3 0x461BCD PUSH1 0xE5 SHL DUP2 MSTORE PUSH1 0x20 PUSH1 0x4 DUP3 ADD MSTORE PUSH1 0x33 PUSH1 0x24 DUP3 ADD MSTORE PUSH32 0x5634446973747269627574696F6E4D6F64756C653A2077616C6C65742063616E PUSH1 0x44 DUP3 ADD MSTORE PUSH19 0x6E6F74206265207A65726F2061646472657373 PUSH1 0x68 SHL PUSH1 0x64 DUP3 ADD MSTORE PUSH1 0x84 SWAP1 REVERT JUMPDEST ISZERO PUSH2 0x527C JUMPI JUMP JUMPDEST PUSH1 0x40 MLOAD PUSH3 0x461BCD PUSH1 0xE5 SHL DUP2 MSTORE PUSH1 0x20 PUSH1 0x4 DUP3 ADD MSTORE PUSH1 0x36 PUSH1 0x24 DUP3 ADD MSTORE PUSH32 0x5634446973747269627574696F6E4D6F64756C653A20616D6F756E74206D7573 PUSH1 0x44 DUP3 ADD MSTORE PUSH22 0x742062652067726561746572207468616E207A65726F PUSH1 0x50 SHL PUSH1 0x64 DUP3 ADD MSTORE PUSH1 0x84 SWAP1 REVERT JUMPDEST ISZERO PUSH2 0x52E7 JUMPI JUMP JUMPDEST PUSH1 0x40 MLOAD PUSH3 0x461BCD PUSH1 0xE5 SHL DUP2 MSTORE PUSH1 0x20 PUSH1 0x4 DUP3 ADD MSTORE PUSH1 0x33 PUSH1 0x24 DUP3 ADD MSTORE PUSH32 0x5634446973747269627574696F6E4D6F64756C653A2077616C6C657420616C72 PUSH1 0x44 DUP3 ADD MSTORE PUSH19 0x32B0B23C903430B99030B63637B1B0BA34B7B7 PUSH1 0x69 SHL PUSH1 0x64 DUP3 ADD MSTORE PUSH1 0x84 SWAP1 REVERT JUMPDEST ISZERO PUSH2 0x534F JUMPI JUMP JUMPDEST PUSH1 0x40 MLOAD PUSH3 0x461BCD PUSH1 0xE5 SHL DUP2 MSTORE PUSH1 0x20 PUSH1 0x4 DUP3 ADD MSTORE PUSH1 0x37 PUSH1 0x24 DUP3 ADD MSTORE PUSH32 0x5634446973747269627574696F6E4D6F64756C653A20756E6C6F636B2074696D PUSH1 0x44 DUP3 ADD MSTORE PUSH32 0x65206D75737420626520696E2074686520667574757265000000000000000000 PUSH1 0x64 DUP3 ADD MSTORE PUSH1 0x84 SWAP1 REVERT JUMPDEST SWAP3 SWAP2 SWAP3 PUSH2 0x53C6 DUP3 PUSH2 0x4D66 JUMP JUMPDEST SWAP2 PUSH2 0x53D4 PUSH1 0x40 MLOAD SWAP4 DUP5 PUSH2 0x4D45 JUMP JUMPDEST DUP3 SWAP5 DUP2 DUP5 MSTORE DUP2 DUP4 ADD GT PUSH2 0x146 JUMPI DUP3 DUP2 PUSH1 0x20 SWAP4 DUP5 PUSH1 0x0 SWAP7 ADD CALLDATACOPY ADD ADD MSTORE JUMP JUMPDEST SWAP2 SWAP3 DUP1 PUSH1 0x60 SWAP5 PUSH1 0xA0 SWAP4 SWAP9 SWAP8 SWAP7 SWAP9 DUP6 MSTORE PUSH1 0x80 PUSH1 0x20 DUP7 ADD MSTORE DUP2 PUSH1 0x80 DUP7 ADD MSTORE DUP4 DUP6 ADD CALLDATACOPY PUSH1 0x0 DUP3 DUP3 DUP6 ADD ADD MSTORE PUSH1 0x1F DUP1 NOT SWAP2 ADD AND DUP3 ADD ADD SWAP5 ISZERO ISZERO PUSH1 0x40 DUP3 ADD MSTORE ADD MSTORE JUMP JUMPDEST PUSH1 0x0 NOT DUP2 EQ PUSH2 0x46B5 JUMPI PUSH1 0x1 ADD SWAP1 JUMP JUMPDEST PUSH1 0x40 MLOAD SWAP1 PUSH2 0x544B DUP3 PUSH2 0x4CD8 JUMP JUMPDEST PUSH1 0x5 DUP3 MSTORE DUP2 PUSH1 0x0 JUMPDEST PUSH1 0xA0 DUP2 LT PUSH2 0x545F JUMPI POP POP JUMP JUMPDEST DUP1 PUSH1 0x60 PUSH1 0x20 DUP1 SWAP4 DUP6 ADD ADD MSTORE ADD PUSH2 0x5453 JUMP JUMPDEST PUSH1 0x40 MLOAD SWAP1 PUSH2 0x547D DUP3 PUSH2 0x4D0E JUMP JUMPDEST PUSH1 0x6 DUP3 MSTORE DUP2 PUSH1 0x0 JUMPDEST PUSH1 0xC0 DUP2 LT PUSH2 0x5491 JUMPI POP POP JUMP JUMPDEST DUP1 PUSH1 0x60 PUSH1 0x20 DUP1 SWAP4 DUP6 ADD ADD MSTORE ADD PUSH2 0x5485 JUMP JUMPDEST PUSH1 0x40 MLOAD SWAP1 PUSH2 0x54AF DUP3 PUSH2 0x4D29 JUMP JUMPDEST PUSH1 0x7 DUP3 MSTORE DUP2 PUSH1 0x0 JUMPDEST PUSH1 0xE0 DUP2 LT PUSH2 0x54C3 JUMPI POP POP JUMP JUMPDEST DUP1 PUSH1 0x60 PUSH1 0x20 DUP1 SWAP4 DUP6 ADD ADD MSTORE ADD PUSH2 0x54B7 JUMP JUMPDEST PUSH1 0x40 MLOAD SWAP1 PUSH2 0x54E1 DUP3 PUSH2 0x4CA2 JUMP JUMPDEST PUSH1 0x4 DUP3 MSTORE DUP2 PUSH1 0x0 JUMPDEST PUSH1 0x80 DUP2 LT PUSH2 0x54F5 JUMPI POP POP JUMP JUMPDEST DUP1 PUSH1 0x60 PUSH1 0x20 DUP1 SWAP4 DUP6 ADD ADD MSTORE ADD PUSH2 0x54E9 JUMP JUMPDEST SWAP2 SWAP1 DUP3 SUB SWAP2 DUP3 GT PUSH2 0x46B5 JUMPI JUMP JUMPDEST PUSH2 0x551D DUP2 SLOAD PUSH2 0x4E17 JUMP JUMPDEST SWAP1 DUP2 PUSH2 0x5527 JUMPI POP POP JUMP JUMPDEST DUP2 PUSH1 0x1F PUSH1 0x0 SWAP4 GT PUSH1 0x1 EQ PUSH2 0x5539 JUMPI POP SSTORE JUMP JUMPDEST SWAP1 DUP1 DUP4 SWAP2 DUP3 MSTORE PUSH2 0x5558 PUSH1 0x1F PUSH1 0x20 DUP5 KECCAK256 SWAP5 ADD PUSH1 0x5 SHR DUP5 ADD PUSH1 0x1 DUP6 ADD PUSH2 0x5124 JUMP JUMPDEST SSTORE SSTORE JUMP JUMPDEST PUSH1 0x4 PUSH1 0x0 SWAP2 DUP3 DUP2 SSTORE DUP3 PUSH1 0x1 DUP3 ADD SSTORE PUSH2 0x5576 PUSH1 0x2 DUP3 ADD PUSH2 0x5513 JUMP JUMPDEST DUP3 PUSH1 0x3 DUP3 ADD SSTORE ADD SSTORE JUMP JUMPDEST SWAP2 SWAP1 DUP2 LT ISZERO PUSH2 0x4820 JUMPI PUSH1 0x5 SHL ADD SWAP1 JUMP JUMPDEST CALLDATALOAD PUSH1 0x1 PUSH1 0x1 PUSH1 0xA0 SHL SUB DUP2 AND DUP2 SUB PUSH2 0x146 JUMPI SWAP1 JUMP JUMPDEST CALLDATALOAD DUP1 ISZERO ISZERO DUP2 SUB PUSH2 0x146 JUMPI SWAP1 JUMP JUMPDEST SWAP2 SWAP1 DUP2 LT ISZERO PUSH2 0x4820 JUMPI PUSH1 0x5 SHL DUP2 ADD CALLDATALOAD SWAP1 PUSH1 0x1E NOT DUP2 CALLDATASIZE SUB ADD DUP3 SLT ISZERO PUSH2 0x146 JUMPI ADD SWAP1 DUP2 CALLDATALOAD SWAP2 PUSH1 0x1 PUSH1 0x1 PUSH1 0x40 SHL SUB DUP4 GT PUSH2 0x146 JUMPI PUSH1 0x20 ADD DUP3 CALLDATASIZE SUB DUP2 SGT PUSH2 0x146 JUMPI SWAP2 SWAP1 JUMP JUMPDEST SWAP2 SWAP1 PUSH1 0x40 DUP4 DUP3 SUB SLT PUSH2 0x146 JUMPI DUP3 MLOAD DUP1 ISZERO ISZERO DUP2 SUB PUSH2 0x146 JUMPI SWAP3 PUSH1 0x20 DUP2 ADD MLOAD SWAP1 PUSH1 0x1 PUSH1 0x1 PUSH1 0x40 SHL SUB DUP3 GT PUSH2 0x146 JUMPI ADD DUP2 PUSH1 0x1F DUP3 ADD SLT ISZERO PUSH2 0x146 JUMPI DUP1 MLOAD PUSH2 0x5635 DUP2 PUSH2 0x4D66 JUMP JUMPDEST SWAP3 PUSH2 0x5643 PUSH1 0x40 MLOAD SWAP5 DUP6 PUSH2 0x4D45 JUMP JUMPDEST DUP2 DUP5 MSTORE PUSH1 0x20 DUP3 DUP5 ADD ADD GT PUSH2 0x146 JUMPI PUSH2 0x5661 SWAP2 PUSH1 0x20 DUP1 DUP6 ADD SWAP2 ADD PUSH2 0x4AC4 JUMP JUMPDEST SWAP1 JUMP JUMPDEST PUSH1 0x1 PUSH1 0x1 PUSH1 0xA0 SHL SUB SWAP1 SWAP2 AND DUP2 MSTORE PUSH1 0x40 PUSH1 0x20 DUP3 ADD DUP2 SWAP1 MSTORE PUSH2 0x5661 SWAP3 SWAP2 ADD SWAP1 PUSH2 0x4AE7 JUMP JUMPDEST PUSH1 0x33 SLOAD PUSH1 0x1 PUSH1 0x1 PUSH1 0xA0 SHL SUB AND CALLER SUB PUSH2 0x569A JUMPI JUMP JUMPDEST PUSH1 0x64 PUSH1 0x40 MLOAD PUSH3 0x461BCD PUSH1 0xE5 SHL DUP2 MSTORE PUSH1 0x20 PUSH1 0x4 DUP3 ADD MSTORE PUSH1 0x20 PUSH1 0x24 DUP3 ADD MSTORE PUSH32 0x4F776E61626C653A2063616C6C6572206973206E6F7420746865206F776E6572 PUSH1 0x44 DUP3 ADD MSTORE REVERT JUMPDEST ISZERO PUSH2 0x56E5 JUMPI JUMP JUMPDEST PUSH1 0x40 MLOAD PUSH3 0x461BCD PUSH1 0xE5 SHL DUP2 MSTORE PUSH1 0x20 PUSH1 0x4 DUP3 ADD MSTORE PUSH1 0x2B PUSH1 0x24 DUP3 ADD MSTORE PUSH32 0x496E697469616C697A61626C653A20636F6E7472616374206973206E6F742069 PUSH1 0x44 DUP3 ADD MSTORE PUSH11 0x6E697469616C697A696E67 PUSH1 0xA8 SHL PUSH1 0x64 DUP3 ADD MSTORE PUSH1 0x84 SWAP1 REVERT JUMPDEST PUSH1 0x33 DUP1 SLOAD PUSH1 0x1 PUSH1 0x1 PUSH1 0xA0 SHL SUB SWAP3 DUP4 AND PUSH1 0x1 PUSH1 0x1 PUSH1 0xA0 SHL SUB NOT DUP3 AND DUP2 OR SWAP1 SWAP3 SSTORE SWAP1 SWAP2 AND PUSH32 0x8BE0079C531659141344CD1FD0A4F28419497F9722A3DAAFE3B4186F6B6457E0 PUSH1 0x0 DUP1 LOG3 JUMP JUMPDEST SWAP1 PUSH2 0x1402 JUMPI PUSH2 0x5799 PUSH2 0x86E DUP3 SLOAD PUSH2 0x4E17 JUMP JUMPDEST PUSH1 0x16 PUSH11 0x5075626C69632053616C65 PUSH1 0xA8 SHL ADD SWAP1 SSTORE JUMP JUMPDEST SWAP1 PUSH2 0x1402 JUMPI PUSH2 0x57C1 PUSH2 0x86E DUP3 SLOAD PUSH2 0x4E17 JUMP JUMPDEST PUSH1 0x8 PUSH4 0x5465616D PUSH1 0xE0 SHL ADD SWAP1 SSTORE JUMP JUMPDEST SWAP1 PUSH2 0x1402 JUMPI PUSH2 0x57E2 PUSH2 0x86E DUP3 SLOAD PUSH2 0x4E17 JUMP JUMPDEST PUSH1 0x12 PUSH9 0x4D61726B6574696E67 PUSH1 0xB8 SHL ADD SWAP1 SSTORE JUMP JUMPDEST SWAP1 PUSH2 0x1402 JUMPI PUSH2 0x5808 PUSH2 0x86E DUP3 SLOAD PUSH2 0x4E17 JUMP JUMPDEST PUSH1 0x10 PUSH8 0x41647669736F7273 PUSH1 0xC0 SHL ADD SWAP1 SSTORE JUMP JUMPDEST PUSH1 0x6C SLOAD PUSH1 0x1 PUSH1 0x40 SHL DUP2 LT ISZERO PUSH2 0x1501 JUMPI DUP1 PUSH1 0x1 PUSH2 0x583A SWAP3 ADD PUSH1 0x6C SSTORE PUSH2 0x50C8 JUMP JUMPDEST DUP2 SLOAD SWAP1 PUSH1 0x3 SHL SWAP1 PUSH1 0x1 DUP3 SHL SWAP2 PUSH1 0x0 NOT SWAP1 SHL NOT AND OR SWAP1 SSTORE JUMP JUMPDEST PUSH1 0x6C SLOAD PUSH1 0x1 PUSH1 0x40 SHL DUP2 LT ISZERO PUSH2 0x1501 JUMPI DUP1 PUSH1 0x1 PUSH2 0x5871 SWAP3 ADD PUSH1 0x6C SSTORE PUSH2 0x50C8 JUMP JUMPDEST DUP2 SLOAD SWAP1 PUSH1 0x3 SHL SWAP1 PUSH1 0x2 DUP3 SHL SWAP2 PUSH1 0x0 NOT SWAP1 SHL NOT AND OR SWAP1 SSTORE JUMP JUMPDEST PUSH1 0x6C SLOAD PUSH1 0x1 PUSH1 0x40 SHL DUP2 LT ISZERO PUSH2 0x1501 JUMPI DUP1 PUSH1 0x1 PUSH2 0x58A8 SWAP3 ADD PUSH1 0x6C SSTORE PUSH2 0x50C8 JUMP JUMPDEST DUP2 SLOAD SWAP1 PUSH1 0x3 SHL SWAP1 PUSH1 0x3 DUP3 SHL SWAP2 PUSH1 0x0 NOT SWAP1 SHL NOT AND OR SWAP1 SSTORE JUMP JUMPDEST PUSH1 0x6C SLOAD PUSH1 0x1 PUSH1 0x40 SHL DUP2 LT ISZERO PUSH2 0x1501 JUMPI DUP1 PUSH1 0x1 PUSH2 0x58DF SWAP3 ADD PUSH1 0x6C SSTORE PUSH2 0x50C8 JUMP JUMPDEST DUP2 SLOAD SWAP1 PUSH1 0x3 SHL SWAP1 PUSH1 0x4 DUP3 SHL SWAP2 PUSH1 0x0 NOT SWAP1 SHL NOT AND OR SWAP1 SSTORE JUMP JUMPDEST SWAP1 PUSH2 0x1402 JUMPI PUSH2 0x5909 PUSH2 0x86E DUP3 SLOAD PUSH2 0x4E17 JUMP JUMPDEST PUSH1 0x16 PUSH11 0x11195D995B1BDC1B595B9D PUSH1 0xAA SHL ADD SWAP1 SSTORE JUMP JUMPDEST PUSH1 0x0 DUP2 DUP2 MSTORE PUSH1 0x67 PUSH1 0x20 MSTORE PUSH1 0x40 DUP2 KECCAK256 SLOAD PUSH2 0x5997 JUMPI PUSH1 0x66 SLOAD PUSH1 0x1 PUSH1 0x40 SHL DUP2 LT ISZERO PUSH2 0x5983 JUMPI SWAP1 DUP3 PUSH2 0x596F PUSH2 0x5958 DUP5 PUSH1 0x1 PUSH1 0x40 SWAP7 ADD PUSH1 0x66 SSTORE PUSH2 0x4FDA JUMP JUMPDEST DUP2 SWAP4 SWAP2 SLOAD SWAP1 PUSH1 0x3 SHL SWAP2 DUP3 SHL SWAP2 PUSH1 0x0 NOT SWAP1 SHL NOT AND OR SWAP1 JUMP JUMPDEST SWAP1 SSTORE PUSH1 0x66 SLOAD SWAP3 DUP2 MSTORE PUSH1 0x67 PUSH1 0x20 MSTORE KECCAK256 SSTORE PUSH1 0x1 SWAP1 JUMP JUMPDEST PUSH4 0x4E487B71 PUSH1 0xE0 SHL DUP3 MSTORE PUSH1 0x41 PUSH1 0x4 MSTORE PUSH1 0x24 DUP3 REVERT JUMPDEST SWAP1 POP SWAP1 JUMP JUMPDEST PUSH1 0x0 DUP2 DUP2 MSTORE PUSH1 0x67 PUSH1 0x20 MSTORE PUSH1 0x40 DUP2 KECCAK256 SLOAD SWAP1 SWAP2 SWAP1 DUP1 ISZERO PUSH2 0x5A81 JUMPI PUSH1 0x0 NOT SWAP1 DUP1 DUP3 ADD DUP2 DUP2 GT PUSH2 0x5A6D JUMPI PUSH1 0x66 SLOAD SWAP1 DUP4 DUP3 ADD SWAP2 DUP3 GT PUSH2 0x5A59 JUMPI DUP1 DUP3 SUB PUSH2 0x5A25 JUMPI JUMPDEST POP POP POP PUSH1 0x66 SLOAD DUP1 ISZERO PUSH2 0x5A11 JUMPI DUP2 ADD SWAP1 PUSH2 0x59F0 DUP3 PUSH2 0x4FDA JUMP JUMPDEST SWAP1 SWAP2 DUP3 SLOAD SWAP2 PUSH1 0x3 SHL SHL NOT AND SWAP1 SSTORE PUSH1 0x66 SSTORE DUP2 MSTORE PUSH1 0x67 PUSH1 0x20 MSTORE PUSH1 0x40 DUP2 KECCAK256 SSTORE PUSH1 0x1 SWAP1 JUMP JUMPDEST PUSH4 0x4E487B71 PUSH1 0xE0 SHL DUP5 MSTORE PUSH1 0x31 PUSH1 0x4 MSTORE PUSH1 0x24 DUP5 REVERT JUMPDEST PUSH2 0x5A43 PUSH2 0x5A34 PUSH2 0x5958 SWAP4 PUSH2 0x4FDA JUMP JUMPDEST SWAP1 SLOAD SWAP1 PUSH1 0x3 SHL SHR SWAP3 DUP4 SWAP3 PUSH2 0x4FDA JUMP JUMPDEST SWAP1 SSTORE DUP5 MSTORE PUSH1 0x67 PUSH1 0x20 MSTORE PUSH1 0x40 DUP5 KECCAK256 SSTORE CODESIZE DUP1 DUP1 PUSH2 0x59D8 JUMP JUMPDEST PUSH4 0x4E487B71 PUSH1 0xE0 SHL DUP7 MSTORE PUSH1 0x11 PUSH1 0x4 MSTORE PUSH1 0x24 DUP7 REVERT JUMPDEST PUSH4 0x4E487B71 PUSH1 0xE0 SHL DUP6 MSTORE PUSH1 0x11 PUSH1 0x4 MSTORE PUSH1 0x24 DUP6 REVERT JUMPDEST POP POP SWAP1 JUMP INVALID CREATE 0xAE LT 0xCB 0xC4 0xB7 0xE5 0xD4 BYTE GASPRICE PUSH13 0x7F530E4919B2E487E56976CAD1 0xB0 0xBF PUSH13 0x5C77E67916B507B92927105C30 SELFDESTRUCT PUSH15 0x8AFC661972D5BA73E86E28BAFA70CB MSTORE8 SAR 0xDD 0xA5 0x2B 0xDF SDIV 0x4E 0x5C PUSH31 0x8F4B1F6C9808B80AAE6C41BBD046930D99F67F4E24136B55524ACBCB0F3241 SGT SWAP11 CREATE2 0xE2 0xA8 0xB2 PUSH1 0xAC SWAP13 CALLDATACOPY SHL 0xBC 0xD5 0xDA PUSH7 0xAC3CE01DFC401F 0xB9 PUSH20 0xA1F174A1BC07B507B92927105C30FF6E8AFC6619 PUSH19 0xD5BA73E86E28BAFA70CB531DDDA52BDF06A775 PUSH9 0x7211C2B3346A0F5A2A 0xE PUSH22 0x90E6C1838453E3785E6DD2A8EFD6265DDF16F0AE10CB 0xC4 0xB7 0xE5 0xD4 BYTE GASPRICE PUSH13 0x7F530E4919B2E487E56976CAD1 0xB0 0xBF PUSH13 0x5C77E679174E5C7E8F4B1F6C98 ADDMOD 0xB8 EXP 0xAE PUSH13 0x41BBD046930D99F67F4E24136B SSTORE MSTORE 0x4A 0xCB 0xCB LT 0xA7 PUSH22 0x687211C2B3346A0F5A2A0E7590E6C1838453E3785E6D 0xD2 0xA8 0xEF 0xD6 0x26 0x5D 0xDF OR LOG2 PUSH5 0x6970667358 0x22 SLT KECCAK256 PUSH9 0xF6E69992A4D3B92069 0xEF 0x26 CODESIZE 0xCD PUSH9 0x7559D122B7773CBCD7 PUSH12 0xD92D9996FF91364736F6C63 NUMBER STOP ADDMOD AND STOP CALLER "},"gasEstimates":{"creation":{"codeDepositCost":"4703200","executionCost":"30866","totalCost":"4734066"},"external":{"VERSION()":"infinite","addAllocation(address,uint256,string,bool,uint256)":"infinite","addMultipleAllocations(address[],uint256[],string[],bool[],uint256[])":"infinite","applyPreset(uint256,uint256)":"infinite","executeDistribution()":"infinite","getAllAllocations()":"infinite","getAllocation(address)":"infinite","getAvailablePresets()":"infinite","getModuleType()":"189","getPresetDetails(uint256)":"infinite","getToken()":"2387","initialize(address,address)":"infinite","initialize(address,bytes)":"infinite","modifyAllocation(address,uint256,string,bool,uint256)":"infinite","owner()":"2519","removeAllocation(address)":"infinite","renounceOwnership()":"28217","supportsFunction(bytes4)":"1059","transferOwnership(address)":"28589","unlockTokens(address)":"infinite"},"internal":{"_clearAllocations()":"infinite","_initializePresets()":"infinite"}},"methodIdentifiers":{"VERSION()":"ffa1ad74","addAllocation(address,uint256,string,bool,uint256)":"862c19c8","addMultipleAllocations(address[],uint256[],string[],bool[],uint256[])":"cc6becc8","applyPreset(uint256,uint256)":"230c8a0e","executeDistribution()":"ff0ed114","getAllAllocations()":"1ca00f62","getAllocation(address)":"0e022923","getAvailablePresets()":"9a7127a2","getModuleType()":"0b9349b9","getPresetDetails(uint256)":"35b50f52","getToken()":"21df0da7","initialize(address,address)":"485cc955","initialize(address,bytes)":"d1f57894","modifyAllocation(address,uint256,string,bool,uint256)":"a8a4b4c0","owner()":"8da5cb5b","removeAllocation(address)":"c58156e0","renounceOwnership()":"715018a6","supportsFunction(bytes4)":"be464464","transferOwnership(address)":"f2fde38b","unlockTokens(address)":"cb67f948"}},"storageLayout":{"storage":[{"astId":139,"contract":"src/contracts/V4DistributionModule.sol:V4DistributionModule","label":"_initialized","offset":0,"slot":"0","type":"t_uint8"},{"astId":142,"contract":"src/contracts/V4DistributionModule.sol:V4DistributionModule","label":"_initializing","offset":1,"slot":"0","type":"t_bool"},{"astId":1525,"contract":"src/contracts/V4DistributionModule.sol:V4DistributionModule","label":"__gap","offset":0,"slot":"1","type":"t_array(t_uint256)50_storage"},{"astId":11,"contract":"src/contracts/V4DistributionModule.sol:V4DistributionModule","label":"_owner","offset":0,"slot":"51","type":"t_address"},{"astId":131,"contract":"src/contracts/V4DistributionModule.sol:V4DistributionModule","label":"__gap","offset":0,"slot":"52","type":"t_array(t_uint256)49_storage"},{"astId":3283,"contract":"src/contracts/V4DistributionModule.sol:V4DistributionModule","label":"_token","offset":0,"slot":"101","type":"t_address"},{"astId":3286,"contract":"src/contracts/V4DistributionModule.sol:V4DistributionModule","label":"_allocationWallets","offset":0,"slot":"102","type":"t_struct(AddressSet)1852_storage"},{"astId":3291,"contract":"src/contracts/V4DistributionModule.sol:V4DistributionModule","label":"_allocations","offset":0,"slot":"104","type":"t_mapping(t_address,t_struct(Allocation)6786_storage)"},{"astId":3293,"contract":"src/contracts/V4DistributionModule.sol:V4DistributionModule","label":"_totalAllocated","offset":0,"slot":"105","type":"t_uint256"},{"astId":3295,"contract":"src/contracts/V4DistributionModule.sol:V4DistributionModule","label":"_distributionExecuted","offset":0,"slot":"106","type":"t_bool"},{"astId":3311,"contract":"src/contracts/V4DistributionModule.sol:V4DistributionModule","label":"_presets","offset":0,"slot":"107","type":"t_mapping(t_uint256,t_struct(Preset)3306_storage)"},{"astId":3314,"contract":"src/contracts/V4DistributionModule.sol:V4DistributionModule","label":"_presetIds","offset":0,"slot":"108","type":"t_array(t_uint256)dyn_storage"}],"types":{"t_address":{"encoding":"inplace","label":"address","numberOfBytes":"20"},"t_array(t_bytes32)dyn_storage":{"base":"t_bytes32","encoding":"dynamic_array","label":"bytes32[]","numberOfBytes":"32"},"t_array(t_string_storage)dyn_storage":{"base":"t_string_storage","encoding":"dynamic_array","label":"string[]","numberOfBytes":"32"},"t_array(t_uint256)49_storage":{"base":"t_uint256","encoding":"inplace","label":"uint256[49]","numberOfBytes":"1568"},"t_array(t_uint256)50_storage":{"base":"t_uint256","encoding":"inplace","label":"uint256[50]","numberOfBytes":"1600"},"t_array(t_uint256)dyn_storage":{"base":"t_uint256","encoding":"dynamic_array","label":"uint256[]","numberOfBytes":"32"},"t_bool":{"encoding":"inplace","label":"bool","numberOfBytes":"1"},"t_bytes32":{"encoding":"inplace","label":"bytes32","numberOfBytes":"32"},"t_mapping(t_address,t_struct(Allocation)6786_storage)":{"encoding":"mapping","key":"t_address","label":"mapping(address => struct IV4DistributionModule.Allocation)","numberOfBytes":"32","value":"t_struct(Allocation)6786_storage"},"t_mapping(t_bytes32,t_uint256)":{"encoding":"mapping","key":"t_bytes32","label":"mapping(bytes32 => uint256)","numberOfBytes":"32","value":"t_uint256"},"t_mapping(t_uint256,t_struct(Preset)3306_storage)":{"encoding":"mapping","key":"t_uint256","label":"mapping(uint256 => struct V4DistributionModule.Preset)","numberOfBytes":"32","value":"t_struct(Preset)3306_storage"},"t_string_storage":{"encoding":"bytes","label":"string","numberOfBytes":"32"},"t_struct(AddressSet)1852_storage":{"encoding":"inplace","label":"struct EnumerableSetUpgradeable.AddressSet","members":[{"astId":1851,"contract":"src/contracts/V4DistributionModule.sol:V4DistributionModule","label":"_inner","offset":0,"slot":"0","type":"t_struct(Set)1537_storage"}],"numberOfBytes":"64"},"t_struct(Allocation)6786_storage":{"encoding":"inplace","label":"struct IV4DistributionModule.Allocation","members":[{"astId":6777,"contract":"src/contracts/V4DistributionModule.sol:V4DistributionModule","label":"wallet","offset":0,"slot":"0","type":"t_address"},{"astId":6779,"contract":"src/contracts/V4DistributionModule.sol:V4DistributionModule","label":"amount","offset":0,"slot":"1","type":"t_uint256"},{"astId":6781,"contract":"src/contracts/V4DistributionModule.sol:V4DistributionModule","label":"label","offset":0,"slot":"2","type":"t_string_storage"},{"astId":6783,"contract":"src/contracts/V4DistributionModule.sol:V4DistributionModule","label":"locked","offset":0,"slot":"3","type":"t_bool"},{"astId":6785,"contract":"src/contracts/V4DistributionModule.sol:V4DistributionModule","label":"unlockTime","offset":0,"slot":"4","type":"t_uint256"}],"numberOfBytes":"160"},"t_struct(Preset)3306_storage":{"encoding":"inplace","label":"struct V4DistributionModule.Preset","members":[{"astId":3297,"contract":"src/contracts/V4DistributionModule.sol:V4DistributionModule","label":"name","offset":0,"slot":"0","type":"t_string_storage"},{"astId":3300,"contract":"src/contracts/V4DistributionModule.sol:V4DistributionModule","label":"ratios","offset":0,"slot":"1","type":"t_array(t_uint256)dyn_storage"},{"astId":3303,"contract":"src/contracts/V4DistributionModule.sol:V4DistributionModule","label":"labels","offset":0,"slot":"2","type":"t_array(t_string_storage)dyn_storage"},{"astId":3305,"contract":"src/contracts/V4DistributionModule.sol:V4DistributionModule","label":"active","offset":0,"slot":"3","type":"t_bool"}],"numberOfBytes":"128"},"t_struct(Set)1537_storage":{"encoding":"inplace","label":"struct EnumerableSetUpgradeable.Set","members":[{"astId":1532,"contract":"src/contracts/V4DistributionModule.sol:V4DistributionModule","label":"_values","offset":0,"slot":"0","type":"t_array(t_bytes32)dyn_storage"},{"astId":1536,"contract":"src/contracts/V4DistributionModule.sol:V4DistributionModule","label":"_indexes","offset":0,"slot":"1","type":"t_mapping(t_bytes32,t_uint256)"}],"numberOfBytes":"64"},"t_uint256":{"encoding":"inplace","label":"uint256","numberOfBytes":"32"},"t_uint8":{"encoding":"inplace","label":"uint8","numberOfBytes":"1"}}},"userdoc":{"kind":"user","methods":{},"version":1}}}}