{"src/contracts/V4TokenBase.sol":{"V4TokenBase":{"abi":[{"inputs":[],"stateMutability":"nonpayable","type":"constructor"},{"inputs":[],"name":"CoreModuleRequired","type":"error"},{"inputs":[],"name":"InvalidModule","type":"error"},{"inputs":[],"name":"ModuleDoesNotExist","type":"error"},{"inputs":[],"name":"ModuleExecutionFailed","type":"error"},{"inputs":[],"name":"ModuleExists","type":"error"},{"inputs":[],"name":"PermissionDenied","type":"error"},{"anonymous":false,"inputs":[{"indexed":true,"internalType":"address","name":"owner","type":"address"},{"indexed":true,"internalType":"address","name":"spender","type":"address"},{"indexed":false,"internalType":"uint256","name":"value","type":"uint256"}],"name":"Approval","type":"event"},{"anonymous":false,"inputs":[{"indexed":false,"internalType":"uint8","name":"version","type":"uint8"}],"name":"Initialized","type":"event"},{"anonymous":false,"inputs":[{"indexed":true,"internalType":"address","name":"moduleAddress","type":"address"},{"indexed":true,"internalType":"bytes32","name":"moduleType","type":"bytes32"}],"name":"ModuleAdded","type":"event"},{"anonymous":false,"inputs":[{"indexed":true,"internalType":"address","name":"moduleAddress","type":"address"},{"indexed":true,"internalType":"address","name":"target","type":"address"},{"indexed":false,"internalType":"bool","name":"success","type":"bool"}],"name":"ModuleExecution","type":"event"},{"anonymous":false,"inputs":[{"indexed":true,"internalType":"address","name":"moduleAddress","type":"address"},{"indexed":true,"internalType":"bytes32","name":"moduleType","type":"bytes32"}],"name":"ModuleRemoved","type":"event"},{"anonymous":false,"inputs":[{"indexed":true,"internalType":"address","name":"previousOwner","type":"address"},{"indexed":true,"internalType":"address","name":"newOwner","type":"address"}],"name":"OwnershipTransferred","type":"event"},{"anonymous":false,"inputs":[{"indexed":false,"internalType":"address","name":"account","type":"address"}],"name":"Paused","type":"event"},{"anonymous":false,"inputs":[{"indexed":true,"internalType":"address","name":"from","type":"address"},{"indexed":true,"internalType":"address","name":"to","type":"address"},{"indexed":false,"internalType":"uint256","name":"value","type":"uint256"}],"name":"Transfer","type":"event"},{"anonymous":false,"inputs":[{"indexed":false,"internalType":"address","name":"account","type":"address"}],"name":"Unpaused","type":"event"},{"inputs":[],"name":"VERSION","outputs":[{"internalType":"string","name":"","type":"string"}],"stateMutability":"view","type":"function"},{"inputs":[{"internalType":"address","name":"moduleAddress","type":"address"},{"internalType":"bytes","name":"data","type":"bytes"}],"name":"addModule","outputs":[{"internalType":"bool","name":"success","type":"bool"}],"stateMutability":"nonpayable","type":"function"},{"inputs":[{"internalType":"address","name":"owner","type":"address"},{"internalType":"address","name":"spender","type":"address"}],"name":"allowance","outputs":[{"internalType":"uint256","name":"","type":"uint256"}],"stateMutability":"view","type":"function"},{"inputs":[{"internalType":"address","name":"spender","type":"address"},{"internalType":"uint256","name":"amount","type":"uint256"}],"name":"approve","outputs":[{"internalType":"bool","name":"","type":"bool"}],"stateMutability":"nonpayable","type":"function"},{"inputs":[{"internalType":"address","name":"account","type":"address"}],"name":"balanceOf","outputs":[{"internalType":"uint256","name":"","type":"uint256"}],"stateMutability":"view","type":"function"},{"inputs":[],"name":"decimals","outputs":[{"internalType":"uint8","name":"","type":"uint8"}],"stateMutability":"view","type":"function"},{"inputs":[{"internalType":"address","name":"spender","type":"address"},{"internalType":"uint256","name":"subtractedValue","type":"uint256"}],"name":"decreaseAllowance","outputs":[{"internalType":"bool","name":"","type":"bool"}],"stateMutability":"nonpayable","type":"function"},{"inputs":[{"internalType":"address","name":"target","type":"address"},{"internalType":"bytes","name":"data","type":"bytes"}],"name":"executeFromModule","outputs":[{"internalType":"bool","name":"success","type":"bool"},{"internalType":"bytes","name":"returnData","type":"bytes"}],"stateMutability":"nonpayable","type":"function"},{"inputs":[{"internalType":"bytes32","name":"moduleType","type":"bytes32"}],"name":"getModuleByType","outputs":[{"internalType":"address","name":"moduleAddress","type":"address"}],"stateMutability":"view","type":"function"},{"inputs":[],"name":"getModules","outputs":[{"internalType":"address[]","name":"modules","type":"address[]"}],"stateMutability":"view","type":"function"},{"inputs":[{"internalType":"address","name":"spender","type":"address"},{"internalType":"uint256","name":"addedValue","type":"uint256"}],"name":"increaseAllowance","outputs":[{"internalType":"bool","name":"","type":"bool"}],"stateMutability":"nonpayable","type":"function"},{"inputs":[{"internalType":"string","name":"name_","type":"string"},{"internalType":"string","name":"symbol_","type":"string"},{"internalType":"uint256","name":"initialSupply","type":"uint256"},{"internalType":"address","name":"owner_","type":"address"}],"name":"initialize","outputs":[],"stateMutability":"nonpayable","type":"function"},{"inputs":[{"internalType":"address","name":"moduleAddress","type":"address"}],"name":"isModuleActive","outputs":[{"internalType":"bool","name":"isActive","type":"bool"}],"stateMutability":"view","type":"function"},{"inputs":[],"name":"name","outputs":[{"internalType":"string","name":"","type":"string"}],"stateMutability":"view","type":"function"},{"inputs":[],"name":"owner","outputs":[{"internalType":"address","name":"","type":"address"}],"stateMutability":"view","type":"function"},{"inputs":[],"name":"pause","outputs":[],"stateMutability":"nonpayable","type":"function"},{"inputs":[],"name":"paused","outputs":[{"internalType":"bool","name":"","type":"bool"}],"stateMutability":"view","type":"function"},{"inputs":[{"internalType":"address","name":"moduleAddress","type":"address"}],"name":"removeModule","outputs":[{"internalType":"bool","name":"success","type":"bool"}],"stateMutability":"nonpayable","type":"function"},{"inputs":[],"name":"renounceOwnership","outputs":[],"stateMutability":"nonpayable","type":"function"},{"inputs":[],"name":"symbol","outputs":[{"internalType":"string","name":"","type":"string"}],"stateMutability":"view","type":"function"},{"inputs":[],"name":"totalSupply","outputs":[{"internalType":"uint256","name":"","type":"uint256"}],"stateMutability":"view","type":"function"},{"inputs":[{"internalType":"address","name":"to","type":"address"},{"internalType":"uint256","name":"amount","type":"uint256"}],"name":"transfer","outputs":[{"internalType":"bool","name":"","type":"bool"}],"stateMutability":"nonpayable","type":"function"},{"inputs":[{"internalType":"address","name":"from","type":"address"},{"internalType":"address","name":"to","type":"address"},{"internalType":"uint256","name":"amount","type":"uint256"}],"name":"transferFrom","outputs":[{"internalType":"bool","name":"","type":"bool"}],"stateMutability":"nonpayable","type":"function"},{"inputs":[{"internalType":"address","name":"newOwner","type":"address"}],"name":"transferOwnership","outputs":[],"stateMutability":"nonpayable","type":"function"},{"inputs":[],"name":"unpause","outputs":[],"stateMutability":"nonpayable","type":"function"}],"devdoc":{"details":"Base implementation for V4 tokens with modular architecture","events":{"Approval(address,address,uint256)":{"details":"Emitted when the allowance of a `spender` for an `owner` is set by a call to {approve}. `value` is the new allowance."},"Initialized(uint8)":{"details":"Triggered when the contract has been initialized or reinitialized."},"Paused(address)":{"details":"Emitted when the pause is triggered by `account`."},"Transfer(address,address,uint256)":{"details":"Emitted when `value` tokens are moved from one account (`from`) to another (`to`). Note that `value` may be zero."},"Unpaused(address)":{"details":"Emitted when the pause is lifted by `account`."}},"kind":"dev","methods":{"addModule(address,bytes)":{"details":"Add a module to the token","params":{"data":"Initialization data for the module","moduleAddress":"Address of the module to add"},"returns":{"success":"Whether the module was successfully added"}},"allowance(address,address)":{"details":"See {IERC20-allowance}."},"approve(address,uint256)":{"details":"See {IERC20-approve}. NOTE: If `amount` is the maximum `uint256`, the allowance is not updated on `transferFrom`. This is semantically equivalent to an infinite approval. Requirements: - `spender` cannot be the zero address."},"balanceOf(address)":{"details":"See {IERC20-balanceOf}."},"constructor":{"details":"Constructor that disables initialization on the implementation contract"},"decimals()":{"details":"Returns the number of decimals used to get its user representation. For example, if `decimals` equals `2`, a balance of `505` tokens should be displayed to a user as `5.05` (`505 / 10 ** 2`). Tokens usually opt for a value of 18, imitating the relationship between Ether and Wei. This is the default value returned by this function, unless it's overridden. NOTE: This information is only used for _display_ purposes: it in no way affects any of the arithmetic of the contract, including {IERC20-balanceOf} and {IERC20-transfer}."},"decreaseAllowance(address,uint256)":{"details":"Atomically decreases the allowance granted to `spender` by the caller. This is an alternative to {approve} that can be used as a mitigation for problems described in {IERC20-approve}. Emits an {Approval} event indicating the updated allowance. Requirements: - `spender` cannot be the zero address. - `spender` must have allowance for the caller of at least `subtractedValue`."},"executeFromModule(address,bytes)":{"details":"Execute a function call from a module","params":{"data":"Call data","target":"Target address for the call"},"returns":{"returnData":"Data returned by the call","success":"Whether the call was successful"}},"getModuleByType(bytes32)":{"details":"Find a module by its type","params":{"moduleType":"Type of module to find"},"returns":{"moduleAddress":"Address of the module, or address(0) if not found"}},"getModules()":{"details":"Get all active modules","returns":{"modules":"Array of active module addresses"}},"increaseAllowance(address,uint256)":{"details":"Atomically increases the allowance granted to `spender` by the caller. This is an alternative to {approve} that can be used as a mitigation for problems described in {IERC20-approve}. Emits an {Approval} event indicating the updated allowance. Requirements: - `spender` cannot be the zero address."},"initialize(string,string,uint256,address)":{"details":"Initialize the token with basic parameters","params":{"initialSupply":"Initial supply to mint","name_":"Token name","owner_":"Address that will receive the initial supply and become the owner","symbol_":"Token symbol"}},"isModuleActive(address)":{"details":"Check if a module is active","params":{"moduleAddress":"Address of the module to check"},"returns":{"isActive":"Whether the module is active"}},"name()":{"details":"Returns the name of the token."},"owner()":{"details":"Returns the address of the current owner."},"pause()":{"details":"Pause the token"},"paused()":{"details":"Returns true if the contract is paused, and false otherwise."},"removeModule(address)":{"details":"Remove a module from the token","params":{"moduleAddress":"Address of the module to remove"},"returns":{"success":"Whether the module was successfully removed"}},"renounceOwnership()":{"details":"Leaves the contract without owner. It will not be possible to call `onlyOwner` functions. Can only be called by the current owner. NOTE: Renouncing ownership will leave the contract without an owner, thereby disabling any functionality that is only available to the owner."},"symbol()":{"details":"Returns the symbol of the token, usually a shorter version of the name."},"totalSupply()":{"details":"See {IERC20-totalSupply}."},"transfer(address,uint256)":{"details":"See {IERC20-transfer}. Requirements: - `to` cannot be the zero address. - the caller must have a balance of at least `amount`."},"transferFrom(address,address,uint256)":{"details":"See {IERC20-transferFrom}. Emits an {Approval} event indicating the updated allowance. This is not required by the EIP. See the note at the beginning of {ERC20}. NOTE: Does not update the allowance if the current allowance is the maximum `uint256`. Requirements: - `from` and `to` cannot be the zero address. - `from` must have a balance of at least `amount`. - the caller must have allowance for ``from``'s tokens of at least `amount`."},"unpause()":{"details":"Unpause the token"}},"title":"V4TokenBase","version":1},"evm":{"bytecode":{"linkReferences":{},"object":"608080604052346100c1576000549060ff8260081c1661006f575060ff80821603610034575b604051611acf90816100c78239f35b60ff90811916176000557f7f26b83ff96e1f2b6a682f133852f6798a09c465da95921460cefb3847402498602060405160ff8152a138610025565b62461bcd60e51b815260206004820152602760248201527f496e697469616c697a61626c653a20636f6e747261637420697320696e697469604482015266616c697a696e6760c81b6064820152608490fd5b600080fdfe608080604052600436101561001357600080fd5b60003560e01c90816306fdde031461113a57508063095ea7b31461111457806318160ddd146110f657806323b872dd14611038578063291153cb146110045780632dd3a78c14610fe3578063313ce56714610fc75780633950935114610f765780633f4ba83a14610ece5780635607b78014610de95780635c975abb14610dc657806370a0823114610d8c578063715018a614610d2f5780638456cb5914610c765780638da5cb5b14610c4d57806395d89b4114610b7c578063a063246114610a24578063a457c2d71461097d578063a9059cbb1461094c578063b2494df31461084d578063bd3a13f6146102d6578063d21b9fbd14610292578063dd62ed3e14610241578063f2fde38b146101aa5763ffa1ad741461013257600080fd5b346101a55760003660031901126101a557604051604081019080821067ffffffffffffffff83111761018f5761018b9160405260058152640342e302e360dc1b60208201526040519182916020835260208301906111d3565b0390f35b634e487b7160e01b600052604160045260246000fd5b600080fd5b346101a55760203660031901126101a5576101c3611213565b6101cb6117c9565b6101d36117c9565b6001600160a01b038116156101ed576101eb90611821565b005b60405162461bcd60e51b815260206004820152602660248201527f4f776e61626c653a206e6577206f776e657220697320746865207a65726f206160448201526564647265737360d01b6064820152608490fd5b346101a55760403660031901126101a55761025a611213565b610262611229565b9060018060a01b038091166000526034602052604060002091166000526020526020604060002054604051908152f35b346101a55760203660031901126101a55760206102cc6001600160a01b036102b8611213565b1660005260ca602052604060002054151590565b6040519015158152f35b346101a55760803660031901126101a55760043567ffffffffffffffff81116101a5576103079036906004016112da565b60243567ffffffffffffffff81116101a5576103279036906004016112da565b6064356001600160a01b03811690036101a5576000549060ff8260081c161591828093610840575b8015610829575b156107cd5760ff198116600117600055826107bb575b5061038760ff60005460081c166103828161186a565b61186a565b825167ffffffffffffffff811161018f576103a3603654611321565b601f8111610752575b506020601f82116001146106de57819293946000926106d3575b50508160011b916000199060031b1c1916176036555b80519067ffffffffffffffff821161018f5781906103fb603754611321565b601f811161065c575b50602090601f83116001146105e4576000926105d9575b50508160011b916000199060031b1c1916176037555b61046260ff60005460081c166104468161186a565b61044f8161186a565b60ff19606554166065556103828161186a565b61046b33611821565b610476606435611821565b6044356104bc575b61048457005b61ff0019600054166000557f7f26b83ff96e1f2b6a682f133852f6798a09c465da95921460cefb3847402498602060405160018152a1005b6064356001600160a01b0316156105945760ff6065541661053e576104e5604435603554611512565b6035556064356001600160a01b03166000818152603360209081526040808320805460443590810190915590519081527fddf252ad1be2c89b69c2b068fc378daa952ba7f163c4a11628f55a4df523b3ef9190a361047e565b60405162461bcd60e51b815260206004820152602860248201527f5634546f6b656e426173653a20746f6b656e207472616e73666572207768696c60448201526719481c185d5cd95960c21b6064820152608490fd5b60405162461bcd60e51b815260206004820152601f60248201527f45524332303a206d696e7420746f20746865207a65726f2061646472657373006044820152606490fd5b01519050838061041b565b92506037600052600080516020611a7a833981519152906000935b601f1984168510610641576001945083601f19811610610628575b505050811b01603755610431565b015160001960f88460031b161c1916905583808061061a565b818101518355602094850194600190930192909101906105ff565b9091506037600052601f830160051c600080516020611a7a8339815191520190602084106106bd575b90601f8493920160051c600080516020611a7a83398151915201905b8181106106ae5750610404565b600081558493506001016106a1565b600080516020611a7a8339815191529150610685565b0151905084806103c6565b6036600052600080516020611a5a8339815191529060005b601f198416811061073a5750600193949583601f19811610610721575b505050811b016036556103dc565b015160001960f88460031b161c19169055848080610713565b9091602060018192858a0151815501930191016106f6565b6036600052601f820160051c600080516020611a5a83398151915201602083106107a6575b601f820160051c600080516020611a5a83398151915201811061079a57506103ac565b60008155600101610777565b50600080516020611a5a833981519152610777565b61ffff1916610101176000558361036c565b60405162461bcd60e51b815260206004820152602e60248201527f496e697469616c697a61626c653a20636f6e747261637420697320616c72656160448201526d191e481a5b9a5d1a585b1a5e995960921b6064820152608490fd5b50303b1580156103565750600160ff821614610356565b50600160ff82161061034f565b346101a55760003660031901126101a55760c9805461086b81611535565b610878604051918261129c565b81815261088482611535565b6020938285019391601f190136853760005b8281106108ea5750505090604051928392818401908285525180915260408401929160005b8281106108ca57505050500390f35b83516001600160a01b0316855286955093810193928101926001016108bb565b8160005260018060a01b03817f66be4f155c5ef2ebd3772b228f2f00681e4ed5826cdb3b1943cc11ad15ad1d2801541690845181101561093657600191878260051b8701015201610896565b634e487b7160e01b600052603260045260246000fd5b346101a55760403660031901126101a557610972610968611213565b602435903361164f565b602060405160018152f35b346101a55760403660031901126101a557610996611213565b60243590336000526034602052604060002060018060a01b038216600052602052604060002054918083106109d1576109729203903361154d565b60405162461bcd60e51b815260206004820152602560248201527f45524332303a2064656372656173656420616c6c6f77616e63652062656c6f77604482015264207a65726f60d81b6064820152608490fd5b346101a5576020806003193601126101a557610a3e611213565b610a466117c9565b6001600160a01b03908116600081815260ca602052604090205490919015610b6a57604051630b9349b960e01b8152908382600481865afa918215610b5e57600092610b2f575b507fe8dfd5edbafe3b1a04db54003f904cfc4610e36b1414906e3f2255bd826e13cf8214610b1d57610abe8361196f565b508160005260cb845260406000209083825491821614610b0a575b5050604051917f6c091f3748fc70f06d78ed2feef8684b81e8361030e52045ec5435680bc21404600080a360018152f35b6001600160a01b03191690558380610ad9565b604051631b0098fb60e31b8152600490fd5b9091508381813d8311610b57575b610b47818361129c565b810103126101a557519084610a8d565b503d610b3d565b6040513d6000823e3d90fd5b604051630286c71d60e01b8152600490fd5b346101a55760003660031901126101a557604051603754600082610b9f83611321565b9182825260209360019085600182169182600014610c2d575050600114610be2575b50610bce9250038361129c565b61018b6040519282849384528301906111d3565b8491506037600052600080516020611a7a833981519152906000915b858310610c15575050610bce935082010185610bc1565b80548389018501528794508693909201918101610bfe565b60ff191685820152610bce95151560051b8501019250879150610bc19050565b346101a55760003660031901126101a5576097546040516001600160a01b039091168152602090f35b346101a55760003660031901126101a557610c9e3360005260ca602052604060002054151590565b15610d1d5760655460ff8116610ce55760019060ff1916176065557f62e78cea01bee320cd4e420270b5ea74000d11b0c9f74754ebdbfc544b05a2586020604051338152a1005b60405162461bcd60e51b815260206004820152601060248201526f14185d5cd8589b194e881c185d5cd95960821b6044820152606490fd5b604051630782484160e21b8152600490fd5b346101a55760003660031901126101a557610d486117c9565b609780546001600160a01b031981169091556000906001600160a01b03167f8be0079c531659141344cd1fd0a4f28419497f9722a3daafe3b4186f6b6457e08280a3005b346101a55760203660031901126101a5576001600160a01b03610dad611213565b1660005260336020526020604060002054604051908152f35b346101a55760003660031901126101a557602060ff606554166040519015158152f35b346101a557610df73661123f565b90610e0f3360005260ca602052604060002054151590565b15610d1d578160009291839260405192839283378101838152039082855af1903d15610ec6573d91610e40836112be565b92610e4e604051948561129c565b83523d6000602085013e5b60405190159081159283825260018060a01b0316907f1c8d244835e4726493aa10820e21ebb79793d86f6acd3d226a03327329efa5cc60203392a3610eb45761018b60405192839283526040602084015260408301906111d3565b604051636670a33360e11b8152600490fd5b606091610e59565b346101a55760003660031901126101a557610ef63360005260ca602052604060002054151590565b15610d1d5760655460ff811615610f3a5760ff19166065557f5db9ee0a495bf2e6ff9c91a7834c1ba4fdd244a5e8aa4e537bd38aeae4b073aa6020604051338152a1005b60405162461bcd60e51b815260206004820152601460248201527314185d5cd8589b194e881b9bdd081c185d5cd95960621b6044820152606490fd5b346101a55760403660031901126101a557610972610f92611213565b336000526034602052604060002060018060a01b038216600052602052610fc0602435604060002054611512565b903361154d565b346101a55760003660031901126101a557602060405160128152f35b346101a55760206102cc610ff63661123f565b91610fff6117c9565b61135b565b346101a55760203660031901126101a55760043560005260cb602052602060018060a01b0360406000205416604051908152f35b346101a55760603660031901126101a557611051611213565b611059611229565b6044359060018060a01b0383166000526034602052604060002033600052602052604060002054926000198403611095575b610972935061164f565b8284106110b1576110ac836109729503338361154d565b61108b565b60405162461bcd60e51b815260206004820152601d60248201527f45524332303a20696e73756666696369656e7420616c6c6f77616e63650000006044820152606490fd5b346101a55760003660031901126101a5576020603554604051908152f35b346101a55760403660031901126101a557610972611130611213565b602435903361154d565b346101a55760003660031901126101a55760365460008261115a83611321565b9182825260209360019085600182169182600014610c2d5750506001146111885750610bce9250038361129c565b8491506036600052600080516020611a5a833981519152906000915b8583106111bb575050610bce935082010185610bc1565b805483890185015287945086939092019181016111a4565b919082519283825260005b8481106111ff575050826000602080949584010152601f8019910116010190565b6020818301810151848301820152016111de565b600435906001600160a01b03821682036101a557565b602435906001600160a01b03821682036101a557565b60406003198201126101a5576004356001600160a01b03811681036101a5579160243567ffffffffffffffff928382116101a557806023830112156101a55781600401359384116101a557602484830101116101a5576024019190565b90601f8019910116810190811067ffffffffffffffff82111761018f57604052565b67ffffffffffffffff811161018f57601f01601f191660200190565b81601f820112156101a5578035906112f1826112be565b926112ff604051948561129c565b828452602083830101116101a557816000926020809301838601378301015290565b90600182811c92168015611351575b602083101461133b57565b634e487b7160e01b600052602260045260246000fd5b91607f1691611330565b90916001600160a01b039182169060008215611500576113888360005260ca602052604060002054151590565b6114ee57823b156114eb57808260646040978851958693849263347d5e2560e21b84523060048501528b6024850152816044850152848401378181018301859052601f01601f1916810103018183875af191826114c0575b50906113f7578351631bb2296560e31b8152600490fd5b8351630b9349b960e01b815292602084600481865afa9384156114b6578294611480575b508280949561144a7ff04a3787b1d3e800ff66635a9faba83984d3c3f6de65820a0c87c7b0f8f34cf995611901565b5086845260cb60205283209182549081161561146b575b50505080a3600190565b6001600160a01b031916179055388381611461565b9293506020833d6020116114ae575b8161149c6020938361129c565b810103126101a557915192918261141b565b3d915061148f565b85513d84823e3d90fd5b67ffffffffffffffff81116114d7578552386113e0565b634e487b7160e01b82526041600452602482fd5b80fd5b60405163bdf91dc160e01b8152600490fd5b604051631bb2296560e31b8152600490fd5b9190820180921161151f57565b634e487b7160e01b600052601160045260246000fd5b67ffffffffffffffff811161018f5760051b60200190565b6001600160a01b039081169182156115fe57169182156115ae5760207f8c5be1e5ebec7d5bd14f71427d1e84f3dd0314c0f7b2291e5b200ac8c7c3b925918360005260348252604060002085600052825280604060002055604051908152a3565b60405162461bcd60e51b815260206004820152602260248201527f45524332303a20617070726f766520746f20746865207a65726f206164647265604482015261737360f01b6064820152608490fd5b60405162461bcd60e51b8152602060048201526024808201527f45524332303a20617070726f76652066726f6d20746865207a65726f206164646044820152637265737360e01b6064820152608490fd5b6001600160a01b0390811691821561177657169182156117255760ff6065541661053e57600082815260336020526040812054918083106116d157604082827fddf252ad1be2c89b69c2b068fc378daa952ba7f163c4a11628f55a4df523b3ef95876020965260338652038282205586815220818154019055604051908152a3565b60405162461bcd60e51b815260206004820152602660248201527f45524332303a207472616e7366657220616d6f756e7420657863656564732062604482015265616c616e636560d01b6064820152608490fd5b60405162461bcd60e51b815260206004820152602360248201527f45524332303a207472616e7366657220746f20746865207a65726f206164647260448201526265737360e81b6064820152608490fd5b60405162461bcd60e51b815260206004820152602560248201527f45524332303a207472616e736665722066726f6d20746865207a65726f206164604482015264647265737360d81b6064820152608490fd5b6097546001600160a01b031633036117dd57565b606460405162461bcd60e51b815260206004820152602060248201527f4f776e61626c653a2063616c6c6572206973206e6f7420746865206f776e65726044820152fd5b609780546001600160a01b039283166001600160a01b0319821681179092559091167f8be0079c531659141344cd1fd0a4f28419497f9722a3daafe3b4186f6b6457e0600080a3565b1561187157565b60405162461bcd60e51b815260206004820152602b60248201527f496e697469616c697a61626c653a20636f6e7472616374206973206e6f74206960448201526a6e697469616c697a696e6760a81b6064820152608490fd5b60c9548110156109365760c96000527f66be4f155c5ef2ebd3772b228f2f00681e4ed5826cdb3b1943cc11ad15ad1d280190600090565b600081815260ca602052604081205461196a5760c954680100000000000000008110156114d757908261195661193f8460016040960160c9556118ca565b819391549060031b91821b91600019901b19161790565b905560c95492815260ca6020522055600190565b905090565b600081815260ca60205260408120549091908015611a545760001990808201818111611a405760c95490838201918211611a2c578082036119f8575b50505060c95480156119e4578101906119c3826118ca565b909182549160031b1b1916905560c955815260ca6020526040812055600190565b634e487b7160e01b84526031600452602484fd5b611a16611a0761193f936118ca565b90549060031b1c9283926118ca565b9055845260ca60205260408420553880806119ab565b634e487b7160e01b86526011600452602486fd5b634e487b7160e01b85526011600452602485fd5b50509056fe4a11f94e20a93c79f6ec743a1954ec4fc2c08429ae2122118bf234b2185c81b842a7b7dd785cd69714a189dffb3fd7d7174edc9ece837694ce50f7078f7c31aea26469706673582212201434a623ed7de3cffc1a99b3ca0b9b95b16414e7703a241e628bb22c1148cfef64736f6c63430008160033","opcodes":"PUSH1 0x80 DUP1 PUSH1 0x40 MSTORE CALLVALUE PUSH2 0xC1 JUMPI PUSH1 0x0 SLOAD SWAP1 PUSH1 0xFF DUP3 PUSH1 0x8 SHR AND PUSH2 0x6F JUMPI POP PUSH1 0xFF DUP1 DUP3 AND SUB PUSH2 0x34 JUMPI JUMPDEST PUSH1 0x40 MLOAD PUSH2 0x1ACF SWAP1 DUP2 PUSH2 0xC7 DUP3 CODECOPY RETURN JUMPDEST PUSH1 0xFF SWAP1 DUP2 NOT AND OR PUSH1 0x0 SSTORE PUSH32 0x7F26B83FF96E1F2B6A682F133852F6798A09C465DA95921460CEFB3847402498 PUSH1 0x20 PUSH1 0x40 MLOAD PUSH1 0xFF DUP2 MSTORE LOG1 CODESIZE PUSH2 0x25 JUMP JUMPDEST PUSH3 0x461BCD PUSH1 0xE5 SHL DUP2 MSTORE PUSH1 0x20 PUSH1 0x4 DUP3 ADD MSTORE PUSH1 0x27 PUSH1 0x24 DUP3 ADD MSTORE PUSH32 0x496E697469616C697A61626C653A20636F6E747261637420697320696E697469 PUSH1 0x44 DUP3 ADD MSTORE PUSH7 0x616C697A696E67 PUSH1 0xC8 SHL PUSH1 0x64 DUP3 ADD MSTORE PUSH1 0x84 SWAP1 REVERT JUMPDEST PUSH1 0x0 DUP1 REVERT INVALID PUSH1 0x80 DUP1 PUSH1 0x40 MSTORE PUSH1 0x4 CALLDATASIZE LT ISZERO PUSH2 0x13 JUMPI PUSH1 0x0 DUP1 REVERT JUMPDEST PUSH1 0x0 CALLDATALOAD PUSH1 0xE0 SHR SWAP1 DUP2 PUSH4 0x6FDDE03 EQ PUSH2 0x113A JUMPI POP DUP1 PUSH4 0x95EA7B3 EQ PUSH2 0x1114 JUMPI DUP1 PUSH4 0x18160DDD EQ PUSH2 0x10F6 JUMPI DUP1 PUSH4 0x23B872DD EQ PUSH2 0x1038 JUMPI DUP1 PUSH4 0x291153CB EQ PUSH2 0x1004 JUMPI DUP1 PUSH4 0x2DD3A78C EQ PUSH2 0xFE3 JUMPI DUP1 PUSH4 0x313CE567 EQ PUSH2 0xFC7 JUMPI DUP1 PUSH4 0x39509351 EQ PUSH2 0xF76 JUMPI DUP1 PUSH4 0x3F4BA83A EQ PUSH2 0xECE JUMPI DUP1 PUSH4 0x5607B780 EQ PUSH2 0xDE9 JUMPI DUP1 PUSH4 0x5C975ABB EQ PUSH2 0xDC6 JUMPI DUP1 PUSH4 0x70A08231 EQ PUSH2 0xD8C JUMPI DUP1 PUSH4 0x715018A6 EQ PUSH2 0xD2F JUMPI DUP1 PUSH4 0x8456CB59 EQ PUSH2 0xC76 JUMPI DUP1 PUSH4 0x8DA5CB5B EQ PUSH2 0xC4D JUMPI DUP1 PUSH4 0x95D89B41 EQ PUSH2 0xB7C JUMPI DUP1 PUSH4 0xA0632461 EQ PUSH2 0xA24 JUMPI DUP1 PUSH4 0xA457C2D7 EQ PUSH2 0x97D JUMPI DUP1 PUSH4 0xA9059CBB EQ PUSH2 0x94C JUMPI DUP1 PUSH4 0xB2494DF3 EQ PUSH2 0x84D JUMPI DUP1 PUSH4 0xBD3A13F6 EQ PUSH2 0x2D6 JUMPI DUP1 PUSH4 0xD21B9FBD EQ PUSH2 0x292 JUMPI DUP1 PUSH4 0xDD62ED3E EQ PUSH2 0x241 JUMPI DUP1 PUSH4 0xF2FDE38B EQ PUSH2 0x1AA JUMPI PUSH4 0xFFA1AD74 EQ PUSH2 0x132 JUMPI PUSH1 0x0 DUP1 REVERT JUMPDEST CALLVALUE PUSH2 0x1A5 JUMPI PUSH1 0x0 CALLDATASIZE PUSH1 0x3 NOT ADD SLT PUSH2 0x1A5 JUMPI PUSH1 0x40 MLOAD PUSH1 0x40 DUP2 ADD SWAP1 DUP1 DUP3 LT PUSH8 0xFFFFFFFFFFFFFFFF DUP4 GT OR PUSH2 0x18F JUMPI PUSH2 0x18B SWAP2 PUSH1 0x40 MSTORE PUSH1 0x5 DUP2 MSTORE PUSH5 0x342E302E3 PUSH1 0xDC SHL PUSH1 0x20 DUP3 ADD MSTORE PUSH1 0x40 MLOAD SWAP2 DUP3 SWAP2 PUSH1 0x20 DUP4 MSTORE PUSH1 0x20 DUP4 ADD SWAP1 PUSH2 0x11D3 JUMP JUMPDEST SUB SWAP1 RETURN JUMPDEST PUSH4 0x4E487B71 PUSH1 0xE0 SHL PUSH1 0x0 MSTORE PUSH1 0x41 PUSH1 0x4 MSTORE PUSH1 0x24 PUSH1 0x0 REVERT JUMPDEST PUSH1 0x0 DUP1 REVERT JUMPDEST CALLVALUE PUSH2 0x1A5 JUMPI PUSH1 0x20 CALLDATASIZE PUSH1 0x3 NOT ADD SLT PUSH2 0x1A5 JUMPI PUSH2 0x1C3 PUSH2 0x1213 JUMP JUMPDEST PUSH2 0x1CB PUSH2 0x17C9 JUMP JUMPDEST PUSH2 0x1D3 PUSH2 0x17C9 JUMP JUMPDEST PUSH1 0x1 PUSH1 0x1 PUSH1 0xA0 SHL SUB DUP2 AND ISZERO PUSH2 0x1ED JUMPI PUSH2 0x1EB SWAP1 PUSH2 0x1821 JUMP JUMPDEST STOP JUMPDEST PUSH1 0x40 MLOAD PUSH3 0x461BCD PUSH1 0xE5 SHL DUP2 MSTORE PUSH1 0x20 PUSH1 0x4 DUP3 ADD MSTORE PUSH1 0x26 PUSH1 0x24 DUP3 ADD MSTORE PUSH32 0x4F776E61626C653A206E6577206F776E657220697320746865207A65726F2061 PUSH1 0x44 DUP3 ADD MSTORE PUSH6 0x646472657373 PUSH1 0xD0 SHL PUSH1 0x64 DUP3 ADD MSTORE PUSH1 0x84 SWAP1 REVERT JUMPDEST CALLVALUE PUSH2 0x1A5 JUMPI PUSH1 0x40 CALLDATASIZE PUSH1 0x3 NOT ADD SLT PUSH2 0x1A5 JUMPI PUSH2 0x25A PUSH2 0x1213 JUMP JUMPDEST PUSH2 0x262 PUSH2 0x1229 JUMP JUMPDEST SWAP1 PUSH1 0x1 DUP1 PUSH1 0xA0 SHL SUB DUP1 SWAP2 AND PUSH1 0x0 MSTORE PUSH1 0x34 PUSH1 0x20 MSTORE PUSH1 0x40 PUSH1 0x0 KECCAK256 SWAP2 AND PUSH1 0x0 MSTORE PUSH1 0x20 MSTORE PUSH1 0x20 PUSH1 0x40 PUSH1 0x0 KECCAK256 SLOAD PUSH1 0x40 MLOAD SWAP1 DUP2 MSTORE RETURN JUMPDEST CALLVALUE PUSH2 0x1A5 JUMPI PUSH1 0x20 CALLDATASIZE PUSH1 0x3 NOT ADD SLT PUSH2 0x1A5 JUMPI PUSH1 0x20 PUSH2 0x2CC PUSH1 0x1 PUSH1 0x1 PUSH1 0xA0 SHL SUB PUSH2 0x2B8 PUSH2 0x1213 JUMP JUMPDEST AND PUSH1 0x0 MSTORE PUSH1 0xCA PUSH1 0x20 MSTORE PUSH1 0x40 PUSH1 0x0 KECCAK256 SLOAD ISZERO ISZERO SWAP1 JUMP JUMPDEST PUSH1 0x40 MLOAD SWAP1 ISZERO ISZERO DUP2 MSTORE RETURN JUMPDEST CALLVALUE PUSH2 0x1A5 JUMPI PUSH1 0x80 CALLDATASIZE PUSH1 0x3 NOT ADD SLT PUSH2 0x1A5 JUMPI PUSH1 0x4 CALLDATALOAD PUSH8 0xFFFFFFFFFFFFFFFF DUP2 GT PUSH2 0x1A5 JUMPI PUSH2 0x307 SWAP1 CALLDATASIZE SWAP1 PUSH1 0x4 ADD PUSH2 0x12DA JUMP JUMPDEST PUSH1 0x24 CALLDATALOAD PUSH8 0xFFFFFFFFFFFFFFFF DUP2 GT PUSH2 0x1A5 JUMPI PUSH2 0x327 SWAP1 CALLDATASIZE SWAP1 PUSH1 0x4 ADD PUSH2 0x12DA JUMP JUMPDEST PUSH1 0x64 CALLDATALOAD PUSH1 0x1 PUSH1 0x1 PUSH1 0xA0 SHL SUB DUP2 AND SWAP1 SUB PUSH2 0x1A5 JUMPI PUSH1 0x0 SLOAD SWAP1 PUSH1 0xFF DUP3 PUSH1 0x8 SHR AND ISZERO SWAP2 DUP3 DUP1 SWAP4 PUSH2 0x840 JUMPI JUMPDEST DUP1 ISZERO PUSH2 0x829 JUMPI JUMPDEST ISZERO PUSH2 0x7CD JUMPI PUSH1 0xFF NOT DUP2 AND PUSH1 0x1 OR PUSH1 0x0 SSTORE DUP3 PUSH2 0x7BB JUMPI JUMPDEST POP PUSH2 0x387 PUSH1 0xFF PUSH1 0x0 SLOAD PUSH1 0x8 SHR AND PUSH2 0x382 DUP2 PUSH2 0x186A JUMP JUMPDEST PUSH2 0x186A JUMP JUMPDEST DUP3 MLOAD PUSH8 0xFFFFFFFFFFFFFFFF DUP2 GT PUSH2 0x18F JUMPI PUSH2 0x3A3 PUSH1 0x36 SLOAD PUSH2 0x1321 JUMP JUMPDEST PUSH1 0x1F DUP2 GT PUSH2 0x752 JUMPI JUMPDEST POP PUSH1 0x20 PUSH1 0x1F DUP3 GT PUSH1 0x1 EQ PUSH2 0x6DE JUMPI DUP2 SWAP3 SWAP4 SWAP5 PUSH1 0x0 SWAP3 PUSH2 0x6D3 JUMPI JUMPDEST POP POP DUP2 PUSH1 0x1 SHL SWAP2 PUSH1 0x0 NOT SWAP1 PUSH1 0x3 SHL SHR NOT AND OR PUSH1 0x36 SSTORE JUMPDEST DUP1 MLOAD SWAP1 PUSH8 0xFFFFFFFFFFFFFFFF DUP3 GT PUSH2 0x18F JUMPI DUP2 SWAP1 PUSH2 0x3FB PUSH1 0x37 SLOAD PUSH2 0x1321 JUMP JUMPDEST PUSH1 0x1F DUP2 GT PUSH2 0x65C JUMPI JUMPDEST POP PUSH1 0x20 SWAP1 PUSH1 0x1F DUP4 GT PUSH1 0x1 EQ PUSH2 0x5E4 JUMPI PUSH1 0x0 SWAP3 PUSH2 0x5D9 JUMPI JUMPDEST POP POP DUP2 PUSH1 0x1 SHL SWAP2 PUSH1 0x0 NOT SWAP1 PUSH1 0x3 SHL SHR NOT AND OR PUSH1 0x37 SSTORE JUMPDEST PUSH2 0x462 PUSH1 0xFF PUSH1 0x0 SLOAD PUSH1 0x8 SHR AND PUSH2 0x446 DUP2 PUSH2 0x186A JUMP JUMPDEST PUSH2 0x44F DUP2 PUSH2 0x186A JUMP JUMPDEST PUSH1 0xFF NOT PUSH1 0x65 SLOAD AND PUSH1 0x65 SSTORE PUSH2 0x382 DUP2 PUSH2 0x186A JUMP JUMPDEST PUSH2 0x46B CALLER PUSH2 0x1821 JUMP JUMPDEST PUSH2 0x476 PUSH1 0x64 CALLDATALOAD PUSH2 0x1821 JUMP JUMPDEST PUSH1 0x44 CALLDATALOAD PUSH2 0x4BC JUMPI JUMPDEST PUSH2 0x484 JUMPI STOP JUMPDEST PUSH2 0xFF00 NOT PUSH1 0x0 SLOAD AND PUSH1 0x0 SSTORE PUSH32 0x7F26B83FF96E1F2B6A682F133852F6798A09C465DA95921460CEFB3847402498 PUSH1 0x20 PUSH1 0x40 MLOAD PUSH1 0x1 DUP2 MSTORE LOG1 STOP JUMPDEST PUSH1 0x64 CALLDATALOAD PUSH1 0x1 PUSH1 0x1 PUSH1 0xA0 SHL SUB AND ISZERO PUSH2 0x594 JUMPI PUSH1 0xFF PUSH1 0x65 SLOAD AND PUSH2 0x53E JUMPI PUSH2 0x4E5 PUSH1 0x44 CALLDATALOAD PUSH1 0x35 SLOAD PUSH2 0x1512 JUMP JUMPDEST PUSH1 0x35 SSTORE PUSH1 0x64 CALLDATALOAD PUSH1 0x1 PUSH1 0x1 PUSH1 0xA0 SHL SUB AND PUSH1 0x0 DUP2 DUP2 MSTORE PUSH1 0x33 PUSH1 0x20 SWAP1 DUP2 MSTORE PUSH1 0x40 DUP1 DUP4 KECCAK256 DUP1 SLOAD PUSH1 0x44 CALLDATALOAD SWAP1 DUP2 ADD SWAP1 SWAP2 SSTORE SWAP1 MLOAD SWAP1 DUP2 MSTORE PUSH32 0xDDF252AD1BE2C89B69C2B068FC378DAA952BA7F163C4A11628F55A4DF523B3EF SWAP2 SWAP1 LOG3 PUSH2 0x47E JUMP JUMPDEST PUSH1 0x40 MLOAD PUSH3 0x461BCD PUSH1 0xE5 SHL DUP2 MSTORE PUSH1 0x20 PUSH1 0x4 DUP3 ADD MSTORE PUSH1 0x28 PUSH1 0x24 DUP3 ADD MSTORE PUSH32 0x5634546F6B656E426173653A20746F6B656E207472616E73666572207768696C PUSH1 0x44 DUP3 ADD MSTORE PUSH8 0x19481C185D5CD959 PUSH1 0xC2 SHL PUSH1 0x64 DUP3 ADD MSTORE PUSH1 0x84 SWAP1 REVERT JUMPDEST PUSH1 0x40 MLOAD PUSH3 0x461BCD PUSH1 0xE5 SHL DUP2 MSTORE PUSH1 0x20 PUSH1 0x4 DUP3 ADD MSTORE PUSH1 0x1F PUSH1 0x24 DUP3 ADD MSTORE PUSH32 0x45524332303A206D696E7420746F20746865207A65726F206164647265737300 PUSH1 0x44 DUP3 ADD MSTORE PUSH1 0x64 SWAP1 REVERT JUMPDEST ADD MLOAD SWAP1 POP DUP4 DUP1 PUSH2 0x41B JUMP JUMPDEST SWAP3 POP PUSH1 0x37 PUSH1 0x0 MSTORE PUSH1 0x0 DUP1 MLOAD PUSH1 0x20 PUSH2 0x1A7A DUP4 CODECOPY DUP2 MLOAD SWAP2 MSTORE SWAP1 PUSH1 0x0 SWAP4 JUMPDEST PUSH1 0x1F NOT DUP5 AND DUP6 LT PUSH2 0x641 JUMPI PUSH1 0x1 SWAP5 POP DUP4 PUSH1 0x1F NOT DUP2 AND LT PUSH2 0x628 JUMPI JUMPDEST POP POP POP DUP2 SHL ADD PUSH1 0x37 SSTORE PUSH2 0x431 JUMP JUMPDEST ADD MLOAD PUSH1 0x0 NOT PUSH1 0xF8 DUP5 PUSH1 0x3 SHL AND SHR NOT AND SWAP1 SSTORE DUP4 DUP1 DUP1 PUSH2 0x61A JUMP JUMPDEST DUP2 DUP2 ADD MLOAD DUP4 SSTORE PUSH1 0x20 SWAP5 DUP6 ADD SWAP5 PUSH1 0x1 SWAP1 SWAP4 ADD SWAP3 SWAP1 SWAP2 ADD SWAP1 PUSH2 0x5FF JUMP JUMPDEST SWAP1 SWAP2 POP PUSH1 0x37 PUSH1 0x0 MSTORE PUSH1 0x1F DUP4 ADD PUSH1 0x5 SHR PUSH1 0x0 DUP1 MLOAD PUSH1 0x20 PUSH2 0x1A7A DUP4 CODECOPY DUP2 MLOAD SWAP2 MSTORE ADD SWAP1 PUSH1 0x20 DUP5 LT PUSH2 0x6BD JUMPI JUMPDEST SWAP1 PUSH1 0x1F DUP5 SWAP4 SWAP3 ADD PUSH1 0x5 SHR PUSH1 0x0 DUP1 MLOAD PUSH1 0x20 PUSH2 0x1A7A DUP4 CODECOPY DUP2 MLOAD SWAP2 MSTORE ADD SWAP1 JUMPDEST DUP2 DUP2 LT PUSH2 0x6AE JUMPI POP PUSH2 0x404 JUMP JUMPDEST PUSH1 0x0 DUP2 SSTORE DUP5 SWAP4 POP PUSH1 0x1 ADD PUSH2 0x6A1 JUMP JUMPDEST PUSH1 0x0 DUP1 MLOAD PUSH1 0x20 PUSH2 0x1A7A DUP4 CODECOPY DUP2 MLOAD SWAP2 MSTORE SWAP2 POP PUSH2 0x685 JUMP JUMPDEST ADD MLOAD SWAP1 POP DUP5 DUP1 PUSH2 0x3C6 JUMP JUMPDEST PUSH1 0x36 PUSH1 0x0 MSTORE PUSH1 0x0 DUP1 MLOAD PUSH1 0x20 PUSH2 0x1A5A DUP4 CODECOPY DUP2 MLOAD SWAP2 MSTORE SWAP1 PUSH1 0x0 JUMPDEST PUSH1 0x1F NOT DUP5 AND DUP2 LT PUSH2 0x73A JUMPI POP PUSH1 0x1 SWAP4 SWAP5 SWAP6 DUP4 PUSH1 0x1F NOT DUP2 AND LT PUSH2 0x721 JUMPI JUMPDEST POP POP POP DUP2 SHL ADD PUSH1 0x36 SSTORE PUSH2 0x3DC JUMP JUMPDEST ADD MLOAD PUSH1 0x0 NOT PUSH1 0xF8 DUP5 PUSH1 0x3 SHL AND SHR NOT AND SWAP1 SSTORE DUP5 DUP1 DUP1 PUSH2 0x713 JUMP JUMPDEST SWAP1 SWAP2 PUSH1 0x20 PUSH1 0x1 DUP2 SWAP3 DUP6 DUP11 ADD MLOAD DUP2 SSTORE ADD SWAP4 ADD SWAP2 ADD PUSH2 0x6F6 JUMP JUMPDEST PUSH1 0x36 PUSH1 0x0 MSTORE PUSH1 0x1F DUP3 ADD PUSH1 0x5 SHR PUSH1 0x0 DUP1 MLOAD PUSH1 0x20 PUSH2 0x1A5A DUP4 CODECOPY DUP2 MLOAD SWAP2 MSTORE ADD PUSH1 0x20 DUP4 LT PUSH2 0x7A6 JUMPI JUMPDEST PUSH1 0x1F DUP3 ADD PUSH1 0x5 SHR PUSH1 0x0 DUP1 MLOAD PUSH1 0x20 PUSH2 0x1A5A DUP4 CODECOPY DUP2 MLOAD SWAP2 MSTORE ADD DUP2 LT PUSH2 0x79A JUMPI POP PUSH2 0x3AC JUMP JUMPDEST PUSH1 0x0 DUP2 SSTORE PUSH1 0x1 ADD PUSH2 0x777 JUMP JUMPDEST POP PUSH1 0x0 DUP1 MLOAD PUSH1 0x20 PUSH2 0x1A5A DUP4 CODECOPY DUP2 MLOAD SWAP2 MSTORE PUSH2 0x777 JUMP JUMPDEST PUSH2 0xFFFF NOT AND PUSH2 0x101 OR PUSH1 0x0 SSTORE DUP4 PUSH2 0x36C JUMP JUMPDEST PUSH1 0x40 MLOAD PUSH3 0x461BCD PUSH1 0xE5 SHL DUP2 MSTORE PUSH1 0x20 PUSH1 0x4 DUP3 ADD MSTORE PUSH1 0x2E PUSH1 0x24 DUP3 ADD MSTORE PUSH32 0x496E697469616C697A61626C653A20636F6E747261637420697320616C726561 PUSH1 0x44 DUP3 ADD MSTORE PUSH14 0x191E481A5B9A5D1A585B1A5E9959 PUSH1 0x92 SHL PUSH1 0x64 DUP3 ADD MSTORE PUSH1 0x84 SWAP1 REVERT JUMPDEST POP ADDRESS EXTCODESIZE ISZERO DUP1 ISZERO PUSH2 0x356 JUMPI POP PUSH1 0x1 PUSH1 0xFF DUP3 AND EQ PUSH2 0x356 JUMP JUMPDEST POP PUSH1 0x1 PUSH1 0xFF DUP3 AND LT PUSH2 0x34F JUMP JUMPDEST CALLVALUE PUSH2 0x1A5 JUMPI PUSH1 0x0 CALLDATASIZE PUSH1 0x3 NOT ADD SLT PUSH2 0x1A5 JUMPI PUSH1 0xC9 DUP1 SLOAD PUSH2 0x86B DUP2 PUSH2 0x1535 JUMP JUMPDEST PUSH2 0x878 PUSH1 0x40 MLOAD SWAP2 DUP3 PUSH2 0x129C JUMP JUMPDEST DUP2 DUP2 MSTORE PUSH2 0x884 DUP3 PUSH2 0x1535 JUMP JUMPDEST PUSH1 0x20 SWAP4 DUP3 DUP6 ADD SWAP4 SWAP2 PUSH1 0x1F NOT ADD CALLDATASIZE DUP6 CALLDATACOPY PUSH1 0x0 JUMPDEST DUP3 DUP2 LT PUSH2 0x8EA JUMPI POP POP POP SWAP1 PUSH1 0x40 MLOAD SWAP3 DUP4 SWAP3 DUP2 DUP5 ADD SWAP1 DUP3 DUP6 MSTORE MLOAD DUP1 SWAP2 MSTORE PUSH1 0x40 DUP5 ADD SWAP3 SWAP2 PUSH1 0x0 JUMPDEST DUP3 DUP2 LT PUSH2 0x8CA JUMPI POP POP POP POP SUB SWAP1 RETURN JUMPDEST DUP4 MLOAD PUSH1 0x1 PUSH1 0x1 PUSH1 0xA0 SHL SUB AND DUP6 MSTORE DUP7 SWAP6 POP SWAP4 DUP2 ADD SWAP4 SWAP3 DUP2 ADD SWAP3 PUSH1 0x1 ADD PUSH2 0x8BB JUMP JUMPDEST DUP2 PUSH1 0x0 MSTORE PUSH1 0x1 DUP1 PUSH1 0xA0 SHL SUB DUP2 PUSH32 0x66BE4F155C5EF2EBD3772B228F2F00681E4ED5826CDB3B1943CC11AD15AD1D28 ADD SLOAD AND SWAP1 DUP5 MLOAD DUP2 LT ISZERO PUSH2 0x936 JUMPI PUSH1 0x1 SWAP2 DUP8 DUP3 PUSH1 0x5 SHL DUP8 ADD ADD MSTORE ADD PUSH2 0x896 JUMP JUMPDEST PUSH4 0x4E487B71 PUSH1 0xE0 SHL PUSH1 0x0 MSTORE PUSH1 0x32 PUSH1 0x4 MSTORE PUSH1 0x24 PUSH1 0x0 REVERT JUMPDEST CALLVALUE PUSH2 0x1A5 JUMPI PUSH1 0x40 CALLDATASIZE PUSH1 0x3 NOT ADD SLT PUSH2 0x1A5 JUMPI PUSH2 0x972 PUSH2 0x968 PUSH2 0x1213 JUMP JUMPDEST PUSH1 0x24 CALLDATALOAD SWAP1 CALLER PUSH2 0x164F JUMP JUMPDEST PUSH1 0x20 PUSH1 0x40 MLOAD PUSH1 0x1 DUP2 MSTORE RETURN JUMPDEST CALLVALUE PUSH2 0x1A5 JUMPI PUSH1 0x40 CALLDATASIZE PUSH1 0x3 NOT ADD SLT PUSH2 0x1A5 JUMPI PUSH2 0x996 PUSH2 0x1213 JUMP JUMPDEST PUSH1 0x24 CALLDATALOAD SWAP1 CALLER PUSH1 0x0 MSTORE PUSH1 0x34 PUSH1 0x20 MSTORE PUSH1 0x40 PUSH1 0x0 KECCAK256 PUSH1 0x1 DUP1 PUSH1 0xA0 SHL SUB DUP3 AND PUSH1 0x0 MSTORE PUSH1 0x20 MSTORE PUSH1 0x40 PUSH1 0x0 KECCAK256 SLOAD SWAP2 DUP1 DUP4 LT PUSH2 0x9D1 JUMPI PUSH2 0x972 SWAP3 SUB SWAP1 CALLER PUSH2 0x154D JUMP JUMPDEST PUSH1 0x40 MLOAD PUSH3 0x461BCD PUSH1 0xE5 SHL DUP2 MSTORE PUSH1 0x20 PUSH1 0x4 DUP3 ADD MSTORE PUSH1 0x25 PUSH1 0x24 DUP3 ADD MSTORE PUSH32 0x45524332303A2064656372656173656420616C6C6F77616E63652062656C6F77 PUSH1 0x44 DUP3 ADD MSTORE PUSH5 0x207A65726F PUSH1 0xD8 SHL PUSH1 0x64 DUP3 ADD MSTORE PUSH1 0x84 SWAP1 REVERT JUMPDEST CALLVALUE PUSH2 0x1A5 JUMPI PUSH1 0x20 DUP1 PUSH1 0x3 NOT CALLDATASIZE ADD SLT PUSH2 0x1A5 JUMPI PUSH2 0xA3E PUSH2 0x1213 JUMP JUMPDEST PUSH2 0xA46 PUSH2 0x17C9 JUMP JUMPDEST PUSH1 0x1 PUSH1 0x1 PUSH1 0xA0 SHL SUB SWAP1 DUP2 AND PUSH1 0x0 DUP2 DUP2 MSTORE PUSH1 0xCA PUSH1 0x20 MSTORE PUSH1 0x40 SWAP1 KECCAK256 SLOAD SWAP1 SWAP2 SWAP1 ISZERO PUSH2 0xB6A JUMPI PUSH1 0x40 MLOAD PUSH4 0xB9349B9 PUSH1 0xE0 SHL DUP2 MSTORE SWAP1 DUP4 DUP3 PUSH1 0x4 DUP2 DUP7 GAS STATICCALL SWAP2 DUP3 ISZERO PUSH2 0xB5E JUMPI PUSH1 0x0 SWAP3 PUSH2 0xB2F JUMPI JUMPDEST POP PUSH32 0xE8DFD5EDBAFE3B1A04DB54003F904CFC4610E36B1414906E3F2255BD826E13CF DUP3 EQ PUSH2 0xB1D JUMPI PUSH2 0xABE DUP4 PUSH2 0x196F JUMP JUMPDEST POP DUP2 PUSH1 0x0 MSTORE PUSH1 0xCB DUP5 MSTORE PUSH1 0x40 PUSH1 0x0 KECCAK256 SWAP1 DUP4 DUP3 SLOAD SWAP2 DUP3 AND EQ PUSH2 0xB0A JUMPI JUMPDEST POP POP PUSH1 0x40 MLOAD SWAP2 PUSH32 0x6C091F3748FC70F06D78ED2FEEF8684B81E8361030E52045EC5435680BC21404 PUSH1 0x0 DUP1 LOG3 PUSH1 0x1 DUP2 MSTORE RETURN JUMPDEST PUSH1 0x1 PUSH1 0x1 PUSH1 0xA0 SHL SUB NOT AND SWAP1 SSTORE DUP4 DUP1 PUSH2 0xAD9 JUMP JUMPDEST PUSH1 0x40 MLOAD PUSH4 0x1B0098FB PUSH1 0xE3 SHL DUP2 MSTORE PUSH1 0x4 SWAP1 REVERT JUMPDEST SWAP1 SWAP2 POP DUP4 DUP2 DUP2 RETURNDATASIZE DUP4 GT PUSH2 0xB57 JUMPI JUMPDEST PUSH2 0xB47 DUP2 DUP4 PUSH2 0x129C JUMP JUMPDEST DUP2 ADD SUB SLT PUSH2 0x1A5 JUMPI MLOAD SWAP1 DUP5 PUSH2 0xA8D JUMP JUMPDEST POP RETURNDATASIZE PUSH2 0xB3D JUMP JUMPDEST PUSH1 0x40 MLOAD RETURNDATASIZE PUSH1 0x0 DUP3 RETURNDATACOPY RETURNDATASIZE SWAP1 REVERT JUMPDEST PUSH1 0x40 MLOAD PUSH4 0x286C71D PUSH1 0xE0 SHL DUP2 MSTORE PUSH1 0x4 SWAP1 REVERT JUMPDEST CALLVALUE PUSH2 0x1A5 JUMPI PUSH1 0x0 CALLDATASIZE PUSH1 0x3 NOT ADD SLT PUSH2 0x1A5 JUMPI PUSH1 0x40 MLOAD PUSH1 0x37 SLOAD PUSH1 0x0 DUP3 PUSH2 0xB9F DUP4 PUSH2 0x1321 JUMP JUMPDEST SWAP2 DUP3 DUP3 MSTORE PUSH1 0x20 SWAP4 PUSH1 0x1 SWAP1 DUP6 PUSH1 0x1 DUP3 AND SWAP2 DUP3 PUSH1 0x0 EQ PUSH2 0xC2D JUMPI POP POP PUSH1 0x1 EQ PUSH2 0xBE2 JUMPI JUMPDEST POP PUSH2 0xBCE SWAP3 POP SUB DUP4 PUSH2 0x129C JUMP JUMPDEST PUSH2 0x18B PUSH1 0x40 MLOAD SWAP3 DUP3 DUP5 SWAP4 DUP5 MSTORE DUP4 ADD SWAP1 PUSH2 0x11D3 JUMP JUMPDEST DUP5 SWAP2 POP PUSH1 0x37 PUSH1 0x0 MSTORE PUSH1 0x0 DUP1 MLOAD PUSH1 0x20 PUSH2 0x1A7A DUP4 CODECOPY DUP2 MLOAD SWAP2 MSTORE SWAP1 PUSH1 0x0 SWAP2 JUMPDEST DUP6 DUP4 LT PUSH2 0xC15 JUMPI POP POP PUSH2 0xBCE SWAP4 POP DUP3 ADD ADD DUP6 PUSH2 0xBC1 JUMP JUMPDEST DUP1 SLOAD DUP4 DUP10 ADD DUP6 ADD MSTORE DUP8 SWAP5 POP DUP7 SWAP4 SWAP1 SWAP3 ADD SWAP2 DUP2 ADD PUSH2 0xBFE JUMP JUMPDEST PUSH1 0xFF NOT AND DUP6 DUP3 ADD MSTORE PUSH2 0xBCE SWAP6 ISZERO ISZERO PUSH1 0x5 SHL DUP6 ADD ADD SWAP3 POP DUP8 SWAP2 POP PUSH2 0xBC1 SWAP1 POP JUMP JUMPDEST CALLVALUE PUSH2 0x1A5 JUMPI PUSH1 0x0 CALLDATASIZE PUSH1 0x3 NOT ADD SLT PUSH2 0x1A5 JUMPI PUSH1 0x97 SLOAD PUSH1 0x40 MLOAD PUSH1 0x1 PUSH1 0x1 PUSH1 0xA0 SHL SUB SWAP1 SWAP2 AND DUP2 MSTORE PUSH1 0x20 SWAP1 RETURN JUMPDEST CALLVALUE PUSH2 0x1A5 JUMPI PUSH1 0x0 CALLDATASIZE PUSH1 0x3 NOT ADD SLT PUSH2 0x1A5 JUMPI PUSH2 0xC9E CALLER PUSH1 0x0 MSTORE PUSH1 0xCA PUSH1 0x20 MSTORE PUSH1 0x40 PUSH1 0x0 KECCAK256 SLOAD ISZERO ISZERO SWAP1 JUMP JUMPDEST ISZERO PUSH2 0xD1D JUMPI PUSH1 0x65 SLOAD PUSH1 0xFF DUP2 AND PUSH2 0xCE5 JUMPI PUSH1 0x1 SWAP1 PUSH1 0xFF NOT AND OR PUSH1 0x65 SSTORE PUSH32 0x62E78CEA01BEE320CD4E420270B5EA74000D11B0C9F74754EBDBFC544B05A258 PUSH1 0x20 PUSH1 0x40 MLOAD CALLER DUP2 MSTORE LOG1 STOP JUMPDEST PUSH1 0x40 MLOAD PUSH3 0x461BCD PUSH1 0xE5 SHL DUP2 MSTORE PUSH1 0x20 PUSH1 0x4 DUP3 ADD MSTORE PUSH1 0x10 PUSH1 0x24 DUP3 ADD MSTORE PUSH16 0x14185D5CD8589B194E881C185D5CD959 PUSH1 0x82 SHL PUSH1 0x44 DUP3 ADD MSTORE PUSH1 0x64 SWAP1 REVERT JUMPDEST PUSH1 0x40 MLOAD PUSH4 0x7824841 PUSH1 0xE2 SHL DUP2 MSTORE PUSH1 0x4 SWAP1 REVERT JUMPDEST CALLVALUE PUSH2 0x1A5 JUMPI PUSH1 0x0 CALLDATASIZE PUSH1 0x3 NOT ADD SLT PUSH2 0x1A5 JUMPI PUSH2 0xD48 PUSH2 0x17C9 JUMP JUMPDEST PUSH1 0x97 DUP1 SLOAD PUSH1 0x1 PUSH1 0x1 PUSH1 0xA0 SHL SUB NOT DUP2 AND SWAP1 SWAP2 SSTORE PUSH1 0x0 SWAP1 PUSH1 0x1 PUSH1 0x1 PUSH1 0xA0 SHL SUB AND PUSH32 0x8BE0079C531659141344CD1FD0A4F28419497F9722A3DAAFE3B4186F6B6457E0 DUP3 DUP1 LOG3 STOP JUMPDEST CALLVALUE PUSH2 0x1A5 JUMPI PUSH1 0x20 CALLDATASIZE PUSH1 0x3 NOT ADD SLT PUSH2 0x1A5 JUMPI PUSH1 0x1 PUSH1 0x1 PUSH1 0xA0 SHL SUB PUSH2 0xDAD PUSH2 0x1213 JUMP JUMPDEST AND PUSH1 0x0 MSTORE PUSH1 0x33 PUSH1 0x20 MSTORE PUSH1 0x20 PUSH1 0x40 PUSH1 0x0 KECCAK256 SLOAD PUSH1 0x40 MLOAD SWAP1 DUP2 MSTORE RETURN JUMPDEST CALLVALUE PUSH2 0x1A5 JUMPI PUSH1 0x0 CALLDATASIZE PUSH1 0x3 NOT ADD SLT PUSH2 0x1A5 JUMPI PUSH1 0x20 PUSH1 0xFF PUSH1 0x65 SLOAD AND PUSH1 0x40 MLOAD SWAP1 ISZERO ISZERO DUP2 MSTORE RETURN JUMPDEST CALLVALUE PUSH2 0x1A5 JUMPI PUSH2 0xDF7 CALLDATASIZE PUSH2 0x123F JUMP JUMPDEST SWAP1 PUSH2 0xE0F CALLER PUSH1 0x0 MSTORE PUSH1 0xCA PUSH1 0x20 MSTORE PUSH1 0x40 PUSH1 0x0 KECCAK256 SLOAD ISZERO ISZERO SWAP1 JUMP JUMPDEST ISZERO PUSH2 0xD1D JUMPI DUP2 PUSH1 0x0 SWAP3 SWAP2 DUP4 SWAP3 PUSH1 0x40 MLOAD SWAP3 DUP4 SWAP3 DUP4 CALLDATACOPY DUP2 ADD DUP4 DUP2 MSTORE SUB SWAP1 DUP3 DUP6 GAS CALL SWAP1 RETURNDATASIZE ISZERO PUSH2 0xEC6 JUMPI RETURNDATASIZE SWAP2 PUSH2 0xE40 DUP4 PUSH2 0x12BE JUMP JUMPDEST SWAP3 PUSH2 0xE4E PUSH1 0x40 MLOAD SWAP5 DUP6 PUSH2 0x129C JUMP JUMPDEST DUP4 MSTORE RETURNDATASIZE PUSH1 0x0 PUSH1 0x20 DUP6 ADD RETURNDATACOPY JUMPDEST PUSH1 0x40 MLOAD SWAP1 ISZERO SWAP1 DUP2 ISZERO SWAP3 DUP4 DUP3 MSTORE PUSH1 0x1 DUP1 PUSH1 0xA0 SHL SUB AND SWAP1 PUSH32 0x1C8D244835E4726493AA10820E21EBB79793D86F6ACD3D226A03327329EFA5CC PUSH1 0x20 CALLER SWAP3 LOG3 PUSH2 0xEB4 JUMPI PUSH2 0x18B PUSH1 0x40 MLOAD SWAP3 DUP4 SWAP3 DUP4 MSTORE PUSH1 0x40 PUSH1 0x20 DUP5 ADD MSTORE PUSH1 0x40 DUP4 ADD SWAP1 PUSH2 0x11D3 JUMP JUMPDEST PUSH1 0x40 MLOAD PUSH4 0x6670A333 PUSH1 0xE1 SHL DUP2 MSTORE PUSH1 0x4 SWAP1 REVERT JUMPDEST PUSH1 0x60 SWAP2 PUSH2 0xE59 JUMP JUMPDEST CALLVALUE PUSH2 0x1A5 JUMPI PUSH1 0x0 CALLDATASIZE PUSH1 0x3 NOT ADD SLT PUSH2 0x1A5 JUMPI PUSH2 0xEF6 CALLER PUSH1 0x0 MSTORE PUSH1 0xCA PUSH1 0x20 MSTORE PUSH1 0x40 PUSH1 0x0 KECCAK256 SLOAD ISZERO ISZERO SWAP1 JUMP JUMPDEST ISZERO PUSH2 0xD1D JUMPI PUSH1 0x65 SLOAD PUSH1 0xFF DUP2 AND ISZERO PUSH2 0xF3A JUMPI PUSH1 0xFF NOT AND PUSH1 0x65 SSTORE PUSH32 0x5DB9EE0A495BF2E6FF9C91A7834C1BA4FDD244A5E8AA4E537BD38AEAE4B073AA PUSH1 0x20 PUSH1 0x40 MLOAD CALLER DUP2 MSTORE LOG1 STOP JUMPDEST PUSH1 0x40 MLOAD PUSH3 0x461BCD PUSH1 0xE5 SHL DUP2 MSTORE PUSH1 0x20 PUSH1 0x4 DUP3 ADD MSTORE PUSH1 0x14 PUSH1 0x24 DUP3 ADD MSTORE PUSH20 0x14185D5CD8589B194E881B9BDD081C185D5CD959 PUSH1 0x62 SHL PUSH1 0x44 DUP3 ADD MSTORE PUSH1 0x64 SWAP1 REVERT JUMPDEST CALLVALUE PUSH2 0x1A5 JUMPI PUSH1 0x40 CALLDATASIZE PUSH1 0x3 NOT ADD SLT PUSH2 0x1A5 JUMPI PUSH2 0x972 PUSH2 0xF92 PUSH2 0x1213 JUMP JUMPDEST CALLER PUSH1 0x0 MSTORE PUSH1 0x34 PUSH1 0x20 MSTORE PUSH1 0x40 PUSH1 0x0 KECCAK256 PUSH1 0x1 DUP1 PUSH1 0xA0 SHL SUB DUP3 AND PUSH1 0x0 MSTORE PUSH1 0x20 MSTORE PUSH2 0xFC0 PUSH1 0x24 CALLDATALOAD PUSH1 0x40 PUSH1 0x0 KECCAK256 SLOAD PUSH2 0x1512 JUMP JUMPDEST SWAP1 CALLER PUSH2 0x154D JUMP JUMPDEST CALLVALUE PUSH2 0x1A5 JUMPI PUSH1 0x0 CALLDATASIZE PUSH1 0x3 NOT ADD SLT PUSH2 0x1A5 JUMPI PUSH1 0x20 PUSH1 0x40 MLOAD PUSH1 0x12 DUP2 MSTORE RETURN JUMPDEST CALLVALUE PUSH2 0x1A5 JUMPI PUSH1 0x20 PUSH2 0x2CC PUSH2 0xFF6 CALLDATASIZE PUSH2 0x123F JUMP JUMPDEST SWAP2 PUSH2 0xFFF PUSH2 0x17C9 JUMP JUMPDEST PUSH2 0x135B JUMP JUMPDEST CALLVALUE PUSH2 0x1A5 JUMPI PUSH1 0x20 CALLDATASIZE PUSH1 0x3 NOT ADD SLT PUSH2 0x1A5 JUMPI PUSH1 0x4 CALLDATALOAD PUSH1 0x0 MSTORE PUSH1 0xCB PUSH1 0x20 MSTORE PUSH1 0x20 PUSH1 0x1 DUP1 PUSH1 0xA0 SHL SUB PUSH1 0x40 PUSH1 0x0 KECCAK256 SLOAD AND PUSH1 0x40 MLOAD SWAP1 DUP2 MSTORE RETURN JUMPDEST CALLVALUE PUSH2 0x1A5 JUMPI PUSH1 0x60 CALLDATASIZE PUSH1 0x3 NOT ADD SLT PUSH2 0x1A5 JUMPI PUSH2 0x1051 PUSH2 0x1213 JUMP JUMPDEST PUSH2 0x1059 PUSH2 0x1229 JUMP JUMPDEST PUSH1 0x44 CALLDATALOAD SWAP1 PUSH1 0x1 DUP1 PUSH1 0xA0 SHL SUB DUP4 AND PUSH1 0x0 MSTORE PUSH1 0x34 PUSH1 0x20 MSTORE PUSH1 0x40 PUSH1 0x0 KECCAK256 CALLER PUSH1 0x0 MSTORE PUSH1 0x20 MSTORE PUSH1 0x40 PUSH1 0x0 KECCAK256 SLOAD SWAP3 PUSH1 0x0 NOT DUP5 SUB PUSH2 0x1095 JUMPI JUMPDEST PUSH2 0x972 SWAP4 POP PUSH2 0x164F JUMP JUMPDEST DUP3 DUP5 LT PUSH2 0x10B1 JUMPI PUSH2 0x10AC DUP4 PUSH2 0x972 SWAP6 SUB CALLER DUP4 PUSH2 0x154D JUMP JUMPDEST PUSH2 0x108B JUMP JUMPDEST PUSH1 0x40 MLOAD PUSH3 0x461BCD PUSH1 0xE5 SHL DUP2 MSTORE PUSH1 0x20 PUSH1 0x4 DUP3 ADD MSTORE PUSH1 0x1D PUSH1 0x24 DUP3 ADD MSTORE PUSH32 0x45524332303A20696E73756666696369656E7420616C6C6F77616E6365000000 PUSH1 0x44 DUP3 ADD MSTORE PUSH1 0x64 SWAP1 REVERT JUMPDEST CALLVALUE PUSH2 0x1A5 JUMPI PUSH1 0x0 CALLDATASIZE PUSH1 0x3 NOT ADD SLT PUSH2 0x1A5 JUMPI PUSH1 0x20 PUSH1 0x35 SLOAD PUSH1 0x40 MLOAD SWAP1 DUP2 MSTORE RETURN JUMPDEST CALLVALUE PUSH2 0x1A5 JUMPI PUSH1 0x40 CALLDATASIZE PUSH1 0x3 NOT ADD SLT PUSH2 0x1A5 JUMPI PUSH2 0x972 PUSH2 0x1130 PUSH2 0x1213 JUMP JUMPDEST PUSH1 0x24 CALLDATALOAD SWAP1 CALLER PUSH2 0x154D JUMP JUMPDEST CALLVALUE PUSH2 0x1A5 JUMPI PUSH1 0x0 CALLDATASIZE PUSH1 0x3 NOT ADD SLT PUSH2 0x1A5 JUMPI PUSH1 0x36 SLOAD PUSH1 0x0 DUP3 PUSH2 0x115A DUP4 PUSH2 0x1321 JUMP JUMPDEST SWAP2 DUP3 DUP3 MSTORE PUSH1 0x20 SWAP4 PUSH1 0x1 SWAP1 DUP6 PUSH1 0x1 DUP3 AND SWAP2 DUP3 PUSH1 0x0 EQ PUSH2 0xC2D JUMPI POP POP PUSH1 0x1 EQ PUSH2 0x1188 JUMPI POP PUSH2 0xBCE SWAP3 POP SUB DUP4 PUSH2 0x129C JUMP JUMPDEST DUP5 SWAP2 POP PUSH1 0x36 PUSH1 0x0 MSTORE PUSH1 0x0 DUP1 MLOAD PUSH1 0x20 PUSH2 0x1A5A DUP4 CODECOPY DUP2 MLOAD SWAP2 MSTORE SWAP1 PUSH1 0x0 SWAP2 JUMPDEST DUP6 DUP4 LT PUSH2 0x11BB JUMPI POP POP PUSH2 0xBCE SWAP4 POP DUP3 ADD ADD DUP6 PUSH2 0xBC1 JUMP JUMPDEST DUP1 SLOAD DUP4 DUP10 ADD DUP6 ADD MSTORE DUP8 SWAP5 POP DUP7 SWAP4 SWAP1 SWAP3 ADD SWAP2 DUP2 ADD PUSH2 0x11A4 JUMP JUMPDEST SWAP2 SWAP1 DUP3 MLOAD SWAP3 DUP4 DUP3 MSTORE PUSH1 0x0 JUMPDEST DUP5 DUP2 LT PUSH2 0x11FF JUMPI POP POP DUP3 PUSH1 0x0 PUSH1 0x20 DUP1 SWAP5 SWAP6 DUP5 ADD ADD MSTORE PUSH1 0x1F DUP1 NOT SWAP2 ADD AND ADD ADD SWAP1 JUMP JUMPDEST PUSH1 0x20 DUP2 DUP4 ADD DUP2 ADD MLOAD DUP5 DUP4 ADD DUP3 ADD MSTORE ADD PUSH2 0x11DE JUMP JUMPDEST PUSH1 0x4 CALLDATALOAD SWAP1 PUSH1 0x1 PUSH1 0x1 PUSH1 0xA0 SHL SUB DUP3 AND DUP3 SUB PUSH2 0x1A5 JUMPI JUMP JUMPDEST PUSH1 0x24 CALLDATALOAD SWAP1 PUSH1 0x1 PUSH1 0x1 PUSH1 0xA0 SHL SUB DUP3 AND DUP3 SUB PUSH2 0x1A5 JUMPI JUMP JUMPDEST PUSH1 0x40 PUSH1 0x3 NOT DUP3 ADD SLT PUSH2 0x1A5 JUMPI PUSH1 0x4 CALLDATALOAD PUSH1 0x1 PUSH1 0x1 PUSH1 0xA0 SHL SUB DUP2 AND DUP2 SUB PUSH2 0x1A5 JUMPI SWAP2 PUSH1 0x24 CALLDATALOAD PUSH8 0xFFFFFFFFFFFFFFFF SWAP3 DUP4 DUP3 GT PUSH2 0x1A5 JUMPI DUP1 PUSH1 0x23 DUP4 ADD SLT ISZERO PUSH2 0x1A5 JUMPI DUP2 PUSH1 0x4 ADD CALLDATALOAD SWAP4 DUP5 GT PUSH2 0x1A5 JUMPI PUSH1 0x24 DUP5 DUP4 ADD ADD GT PUSH2 0x1A5 JUMPI PUSH1 0x24 ADD SWAP2 SWAP1 JUMP JUMPDEST SWAP1 PUSH1 0x1F DUP1 NOT SWAP2 ADD AND DUP2 ADD SWAP1 DUP2 LT PUSH8 0xFFFFFFFFFFFFFFFF DUP3 GT OR PUSH2 0x18F JUMPI PUSH1 0x40 MSTORE JUMP JUMPDEST PUSH8 0xFFFFFFFFFFFFFFFF DUP2 GT PUSH2 0x18F JUMPI PUSH1 0x1F ADD PUSH1 0x1F NOT AND PUSH1 0x20 ADD SWAP1 JUMP JUMPDEST DUP2 PUSH1 0x1F DUP3 ADD SLT ISZERO PUSH2 0x1A5 JUMPI DUP1 CALLDATALOAD SWAP1 PUSH2 0x12F1 DUP3 PUSH2 0x12BE JUMP JUMPDEST SWAP3 PUSH2 0x12FF PUSH1 0x40 MLOAD SWAP5 DUP6 PUSH2 0x129C JUMP JUMPDEST DUP3 DUP5 MSTORE PUSH1 0x20 DUP4 DUP4 ADD ADD GT PUSH2 0x1A5 JUMPI DUP2 PUSH1 0x0 SWAP3 PUSH1 0x20 DUP1 SWAP4 ADD DUP4 DUP7 ADD CALLDATACOPY DUP4 ADD ADD MSTORE SWAP1 JUMP JUMPDEST SWAP1 PUSH1 0x1 DUP3 DUP2 SHR SWAP3 AND DUP1 ISZERO PUSH2 0x1351 JUMPI JUMPDEST PUSH1 0x20 DUP4 LT EQ PUSH2 0x133B JUMPI JUMP JUMPDEST PUSH4 0x4E487B71 PUSH1 0xE0 SHL PUSH1 0x0 MSTORE PUSH1 0x22 PUSH1 0x4 MSTORE PUSH1 0x24 PUSH1 0x0 REVERT JUMPDEST SWAP2 PUSH1 0x7F AND SWAP2 PUSH2 0x1330 JUMP JUMPDEST SWAP1 SWAP2 PUSH1 0x1 PUSH1 0x1 PUSH1 0xA0 SHL SUB SWAP2 DUP3 AND SWAP1 PUSH1 0x0 DUP3 ISZERO PUSH2 0x1500 JUMPI PUSH2 0x1388 DUP4 PUSH1 0x0 MSTORE PUSH1 0xCA PUSH1 0x20 MSTORE PUSH1 0x40 PUSH1 0x0 KECCAK256 SLOAD ISZERO ISZERO SWAP1 JUMP JUMPDEST PUSH2 0x14EE JUMPI DUP3 EXTCODESIZE ISZERO PUSH2 0x14EB JUMPI DUP1 DUP3 PUSH1 0x64 PUSH1 0x40 SWAP8 DUP9 MLOAD SWAP6 DUP7 SWAP4 DUP5 SWAP3 PUSH4 0x347D5E25 PUSH1 0xE2 SHL DUP5 MSTORE ADDRESS PUSH1 0x4 DUP6 ADD MSTORE DUP12 PUSH1 0x24 DUP6 ADD MSTORE DUP2 PUSH1 0x44 DUP6 ADD MSTORE DUP5 DUP5 ADD CALLDATACOPY DUP2 DUP2 ADD DUP4 ADD DUP6 SWAP1 MSTORE PUSH1 0x1F ADD PUSH1 0x1F NOT AND DUP2 ADD SUB ADD DUP2 DUP4 DUP8 GAS CALL SWAP2 DUP3 PUSH2 0x14C0 JUMPI JUMPDEST POP SWAP1 PUSH2 0x13F7 JUMPI DUP4 MLOAD PUSH4 0x1BB22965 PUSH1 0xE3 SHL DUP2 MSTORE PUSH1 0x4 SWAP1 REVERT JUMPDEST DUP4 MLOAD PUSH4 0xB9349B9 PUSH1 0xE0 SHL DUP2 MSTORE SWAP3 PUSH1 0x20 DUP5 PUSH1 0x4 DUP2 DUP7 GAS STATICCALL SWAP4 DUP5 ISZERO PUSH2 0x14B6 JUMPI DUP3 SWAP5 PUSH2 0x1480 JUMPI JUMPDEST POP DUP3 DUP1 SWAP5 SWAP6 PUSH2 0x144A PUSH32 0xF04A3787B1D3E800FF66635A9FABA83984D3C3F6DE65820A0C87C7B0F8F34CF9 SWAP6 PUSH2 0x1901 JUMP JUMPDEST POP DUP7 DUP5 MSTORE PUSH1 0xCB PUSH1 0x20 MSTORE DUP4 KECCAK256 SWAP2 DUP3 SLOAD SWAP1 DUP2 AND ISZERO PUSH2 0x146B JUMPI JUMPDEST POP POP POP DUP1 LOG3 PUSH1 0x1 SWAP1 JUMP JUMPDEST PUSH1 0x1 PUSH1 0x1 PUSH1 0xA0 SHL SUB NOT AND OR SWAP1 SSTORE CODESIZE DUP4 DUP2 PUSH2 0x1461 JUMP JUMPDEST SWAP3 SWAP4 POP PUSH1 0x20 DUP4 RETURNDATASIZE PUSH1 0x20 GT PUSH2 0x14AE JUMPI JUMPDEST DUP2 PUSH2 0x149C PUSH1 0x20 SWAP4 DUP4 PUSH2 0x129C JUMP JUMPDEST DUP2 ADD SUB SLT PUSH2 0x1A5 JUMPI SWAP2 MLOAD SWAP3 SWAP2 DUP3 PUSH2 0x141B JUMP JUMPDEST RETURNDATASIZE SWAP2 POP PUSH2 0x148F JUMP JUMPDEST DUP6 MLOAD RETURNDATASIZE DUP5 DUP3 RETURNDATACOPY RETURNDATASIZE SWAP1 REVERT JUMPDEST PUSH8 0xFFFFFFFFFFFFFFFF DUP2 GT PUSH2 0x14D7 JUMPI DUP6 MSTORE CODESIZE PUSH2 0x13E0 JUMP JUMPDEST PUSH4 0x4E487B71 PUSH1 0xE0 SHL DUP3 MSTORE PUSH1 0x41 PUSH1 0x4 MSTORE PUSH1 0x24 DUP3 REVERT JUMPDEST DUP1 REVERT JUMPDEST PUSH1 0x40 MLOAD PUSH4 0xBDF91DC1 PUSH1 0xE0 SHL DUP2 MSTORE PUSH1 0x4 SWAP1 REVERT JUMPDEST PUSH1 0x40 MLOAD PUSH4 0x1BB22965 PUSH1 0xE3 SHL DUP2 MSTORE PUSH1 0x4 SWAP1 REVERT JUMPDEST SWAP2 SWAP1 DUP3 ADD DUP1 SWAP3 GT PUSH2 0x151F JUMPI JUMP JUMPDEST PUSH4 0x4E487B71 PUSH1 0xE0 SHL PUSH1 0x0 MSTORE PUSH1 0x11 PUSH1 0x4 MSTORE PUSH1 0x24 PUSH1 0x0 REVERT JUMPDEST PUSH8 0xFFFFFFFFFFFFFFFF DUP2 GT PUSH2 0x18F JUMPI PUSH1 0x5 SHL PUSH1 0x20 ADD SWAP1 JUMP JUMPDEST PUSH1 0x1 PUSH1 0x1 PUSH1 0xA0 SHL SUB SWAP1 DUP2 AND SWAP2 DUP3 ISZERO PUSH2 0x15FE JUMPI AND SWAP2 DUP3 ISZERO PUSH2 0x15AE JUMPI PUSH1 0x20 PUSH32 0x8C5BE1E5EBEC7D5BD14F71427D1E84F3DD0314C0F7B2291E5B200AC8C7C3B925 SWAP2 DUP4 PUSH1 0x0 MSTORE PUSH1 0x34 DUP3 MSTORE PUSH1 0x40 PUSH1 0x0 KECCAK256 DUP6 PUSH1 0x0 MSTORE DUP3 MSTORE DUP1 PUSH1 0x40 PUSH1 0x0 KECCAK256 SSTORE PUSH1 0x40 MLOAD SWAP1 DUP2 MSTORE LOG3 JUMP JUMPDEST PUSH1 0x40 MLOAD PUSH3 0x461BCD PUSH1 0xE5 SHL DUP2 MSTORE PUSH1 0x20 PUSH1 0x4 DUP3 ADD MSTORE PUSH1 0x22 PUSH1 0x24 DUP3 ADD MSTORE PUSH32 0x45524332303A20617070726F766520746F20746865207A65726F206164647265 PUSH1 0x44 DUP3 ADD MSTORE PUSH2 0x7373 PUSH1 0xF0 SHL PUSH1 0x64 DUP3 ADD MSTORE PUSH1 0x84 SWAP1 REVERT JUMPDEST PUSH1 0x40 MLOAD PUSH3 0x461BCD PUSH1 0xE5 SHL DUP2 MSTORE PUSH1 0x20 PUSH1 0x4 DUP3 ADD MSTORE PUSH1 0x24 DUP1 DUP3 ADD MSTORE PUSH32 0x45524332303A20617070726F76652066726F6D20746865207A65726F20616464 PUSH1 0x44 DUP3 ADD MSTORE PUSH4 0x72657373 PUSH1 0xE0 SHL PUSH1 0x64 DUP3 ADD MSTORE PUSH1 0x84 SWAP1 REVERT JUMPDEST PUSH1 0x1 PUSH1 0x1 PUSH1 0xA0 SHL SUB SWAP1 DUP2 AND SWAP2 DUP3 ISZERO PUSH2 0x1776 JUMPI AND SWAP2 DUP3 ISZERO PUSH2 0x1725 JUMPI PUSH1 0xFF PUSH1 0x65 SLOAD AND PUSH2 0x53E JUMPI PUSH1 0x0 DUP3 DUP2 MSTORE PUSH1 0x33 PUSH1 0x20 MSTORE PUSH1 0x40 DUP2 KECCAK256 SLOAD SWAP2 DUP1 DUP4 LT PUSH2 0x16D1 JUMPI PUSH1 0x40 DUP3 DUP3 PUSH32 0xDDF252AD1BE2C89B69C2B068FC378DAA952BA7F163C4A11628F55A4DF523B3EF SWAP6 DUP8 PUSH1 0x20 SWAP7 MSTORE PUSH1 0x33 DUP7 MSTORE SUB DUP3 DUP3 KECCAK256 SSTORE DUP7 DUP2 MSTORE KECCAK256 DUP2 DUP2 SLOAD ADD SWAP1 SSTORE PUSH1 0x40 MLOAD SWAP1 DUP2 MSTORE LOG3 JUMP JUMPDEST PUSH1 0x40 MLOAD PUSH3 0x461BCD PUSH1 0xE5 SHL DUP2 MSTORE PUSH1 0x20 PUSH1 0x4 DUP3 ADD MSTORE PUSH1 0x26 PUSH1 0x24 DUP3 ADD MSTORE PUSH32 0x45524332303A207472616E7366657220616D6F756E7420657863656564732062 PUSH1 0x44 DUP3 ADD MSTORE PUSH6 0x616C616E6365 PUSH1 0xD0 SHL PUSH1 0x64 DUP3 ADD MSTORE PUSH1 0x84 SWAP1 REVERT JUMPDEST PUSH1 0x40 MLOAD PUSH3 0x461BCD PUSH1 0xE5 SHL DUP2 MSTORE PUSH1 0x20 PUSH1 0x4 DUP3 ADD MSTORE PUSH1 0x23 PUSH1 0x24 DUP3 ADD MSTORE PUSH32 0x45524332303A207472616E7366657220746F20746865207A65726F2061646472 PUSH1 0x44 DUP3 ADD MSTORE PUSH3 0x657373 PUSH1 0xE8 SHL PUSH1 0x64 DUP3 ADD MSTORE PUSH1 0x84 SWAP1 REVERT JUMPDEST PUSH1 0x40 MLOAD PUSH3 0x461BCD PUSH1 0xE5 SHL DUP2 MSTORE PUSH1 0x20 PUSH1 0x4 DUP3 ADD MSTORE PUSH1 0x25 PUSH1 0x24 DUP3 ADD MSTORE PUSH32 0x45524332303A207472616E736665722066726F6D20746865207A65726F206164 PUSH1 0x44 DUP3 ADD MSTORE PUSH5 0x6472657373 PUSH1 0xD8 SHL PUSH1 0x64 DUP3 ADD MSTORE PUSH1 0x84 SWAP1 REVERT JUMPDEST PUSH1 0x97 SLOAD PUSH1 0x1 PUSH1 0x1 PUSH1 0xA0 SHL SUB AND CALLER SUB PUSH2 0x17DD JUMPI JUMP JUMPDEST PUSH1 0x64 PUSH1 0x40 MLOAD PUSH3 0x461BCD PUSH1 0xE5 SHL DUP2 MSTORE PUSH1 0x20 PUSH1 0x4 DUP3 ADD MSTORE PUSH1 0x20 PUSH1 0x24 DUP3 ADD MSTORE PUSH32 0x4F776E61626C653A2063616C6C6572206973206E6F7420746865206F776E6572 PUSH1 0x44 DUP3 ADD MSTORE REVERT JUMPDEST PUSH1 0x97 DUP1 SLOAD PUSH1 0x1 PUSH1 0x1 PUSH1 0xA0 SHL SUB SWAP3 DUP4 AND PUSH1 0x1 PUSH1 0x1 PUSH1 0xA0 SHL SUB NOT DUP3 AND DUP2 OR SWAP1 SWAP3 SSTORE SWAP1 SWAP2 AND PUSH32 0x8BE0079C531659141344CD1FD0A4F28419497F9722A3DAAFE3B4186F6B6457E0 PUSH1 0x0 DUP1 LOG3 JUMP JUMPDEST ISZERO PUSH2 0x1871 JUMPI JUMP JUMPDEST PUSH1 0x40 MLOAD PUSH3 0x461BCD PUSH1 0xE5 SHL DUP2 MSTORE PUSH1 0x20 PUSH1 0x4 DUP3 ADD MSTORE PUSH1 0x2B PUSH1 0x24 DUP3 ADD MSTORE PUSH32 0x496E697469616C697A61626C653A20636F6E7472616374206973206E6F742069 PUSH1 0x44 DUP3 ADD MSTORE PUSH11 0x6E697469616C697A696E67 PUSH1 0xA8 SHL PUSH1 0x64 DUP3 ADD MSTORE PUSH1 0x84 SWAP1 REVERT JUMPDEST PUSH1 0xC9 SLOAD DUP2 LT ISZERO PUSH2 0x936 JUMPI PUSH1 0xC9 PUSH1 0x0 MSTORE PUSH32 0x66BE4F155C5EF2EBD3772B228F2F00681E4ED5826CDB3B1943CC11AD15AD1D28 ADD SWAP1 PUSH1 0x0 SWAP1 JUMP JUMPDEST PUSH1 0x0 DUP2 DUP2 MSTORE PUSH1 0xCA PUSH1 0x20 MSTORE PUSH1 0x40 DUP2 KECCAK256 SLOAD PUSH2 0x196A JUMPI PUSH1 0xC9 SLOAD PUSH9 0x10000000000000000 DUP2 LT ISZERO PUSH2 0x14D7 JUMPI SWAP1 DUP3 PUSH2 0x1956 PUSH2 0x193F DUP5 PUSH1 0x1 PUSH1 0x40 SWAP7 ADD PUSH1 0xC9 SSTORE PUSH2 0x18CA JUMP JUMPDEST DUP2 SWAP4 SWAP2 SLOAD SWAP1 PUSH1 0x3 SHL SWAP2 DUP3 SHL SWAP2 PUSH1 0x0 NOT SWAP1 SHL NOT AND OR SWAP1 JUMP JUMPDEST SWAP1 SSTORE PUSH1 0xC9 SLOAD SWAP3 DUP2 MSTORE PUSH1 0xCA PUSH1 0x20 MSTORE KECCAK256 SSTORE PUSH1 0x1 SWAP1 JUMP JUMPDEST SWAP1 POP SWAP1 JUMP JUMPDEST PUSH1 0x0 DUP2 DUP2 MSTORE PUSH1 0xCA PUSH1 0x20 MSTORE PUSH1 0x40 DUP2 KECCAK256 SLOAD SWAP1 SWAP2 SWAP1 DUP1 ISZERO PUSH2 0x1A54 JUMPI PUSH1 0x0 NOT SWAP1 DUP1 DUP3 ADD DUP2 DUP2 GT PUSH2 0x1A40 JUMPI PUSH1 0xC9 SLOAD SWAP1 DUP4 DUP3 ADD SWAP2 DUP3 GT PUSH2 0x1A2C JUMPI DUP1 DUP3 SUB PUSH2 0x19F8 JUMPI JUMPDEST POP POP POP PUSH1 0xC9 SLOAD DUP1 ISZERO PUSH2 0x19E4 JUMPI DUP2 ADD SWAP1 PUSH2 0x19C3 DUP3 PUSH2 0x18CA JUMP JUMPDEST SWAP1 SWAP2 DUP3 SLOAD SWAP2 PUSH1 0x3 SHL SHL NOT AND SWAP1 SSTORE PUSH1 0xC9 SSTORE DUP2 MSTORE PUSH1 0xCA PUSH1 0x20 MSTORE PUSH1 0x40 DUP2 KECCAK256 SSTORE PUSH1 0x1 SWAP1 JUMP JUMPDEST PUSH4 0x4E487B71 PUSH1 0xE0 SHL DUP5 MSTORE PUSH1 0x31 PUSH1 0x4 MSTORE PUSH1 0x24 DUP5 REVERT JUMPDEST PUSH2 0x1A16 PUSH2 0x1A07 PUSH2 0x193F SWAP4 PUSH2 0x18CA JUMP JUMPDEST SWAP1 SLOAD SWAP1 PUSH1 0x3 SHL SHR SWAP3 DUP4 SWAP3 PUSH2 0x18CA JUMP JUMPDEST SWAP1 SSTORE DUP5 MSTORE PUSH1 0xCA PUSH1 0x20 MSTORE PUSH1 0x40 DUP5 KECCAK256 SSTORE CODESIZE DUP1 DUP1 PUSH2 0x19AB JUMP JUMPDEST PUSH4 0x4E487B71 PUSH1 0xE0 SHL DUP7 MSTORE PUSH1 0x11 PUSH1 0x4 MSTORE PUSH1 0x24 DUP7 REVERT JUMPDEST PUSH4 0x4E487B71 PUSH1 0xE0 SHL DUP6 MSTORE PUSH1 0x11 PUSH1 0x4 MSTORE PUSH1 0x24 DUP6 REVERT JUMPDEST POP POP SWAP1 JUMP INVALID 0x4A GT 0xF9 0x4E KECCAK256 0xA9 EXTCODECOPY PUSH26 0xF6EC743A1954EC4FC2C08429AE2122118BF234B2185C81B842A7 0xB7 0xDD PUSH25 0x5CD69714A189DFFB3FD7D7174EDC9ECE837694CE50F7078F7C BALANCE 0xAE LOG2 PUSH5 0x6970667358 0x22 SLT KECCAK256 EQ CALLVALUE 0xA6 0x23 0xED PUSH30 0xE3CFFC1A99B3CA0B9B95B16414E7703A241E628BB22C1148CFEF64736F6C PUSH4 0x43000816 STOP CALLER "},"gasEstimates":{"creation":{"codeDepositCost":"1372600","executionCost":"26773","totalCost":"1399373"},"external":{"VERSION()":"infinite","addModule(address,bytes)":"infinite","allowance(address,address)":"3041","approve(address,uint256)":"24368","balanceOf(address)":"2651","decimals()":"287","decreaseAllowance(address,uint256)":"27000","executeFromModule(address,bytes)":"infinite","getModuleByType(bytes32)":"2430","getModules()":"infinite","increaseAllowance(address,uint256)":"26804","initialize(string,string,uint256,address)":"infinite","isModuleActive(address)":"2898","name()":"infinite","owner()":"2590","pause()":"27897","paused()":"2490","removeModule(address)":"infinite","renounceOwnership()":"28327","symbol()":"infinite","totalSupply()":"2302","transfer(address,uint256)":"53267","transferFrom(address,address,uint256)":"79446","transferOwnership(address)":"infinite","unpause()":"27781"},"internal":{"_beforeTokenTransfer(address,address,uint256)":"infinite"}},"methodIdentifiers":{"VERSION()":"ffa1ad74","addModule(address,bytes)":"2dd3a78c","allowance(address,address)":"dd62ed3e","approve(address,uint256)":"095ea7b3","balanceOf(address)":"70a08231","decimals()":"313ce567","decreaseAllowance(address,uint256)":"a457c2d7","executeFromModule(address,bytes)":"5607b780","getModuleByType(bytes32)":"291153cb","getModules()":"b2494df3","increaseAllowance(address,uint256)":"39509351","initialize(string,string,uint256,address)":"bd3a13f6","isModuleActive(address)":"d21b9fbd","name()":"06fdde03","owner()":"8da5cb5b","pause()":"8456cb59","paused()":"5c975abb","removeModule(address)":"a0632461","renounceOwnership()":"715018a6","symbol()":"95d89b41","totalSupply()":"18160ddd","transfer(address,uint256)":"a9059cbb","transferFrom(address,address,uint256)":"23b872dd","transferOwnership(address)":"f2fde38b","unpause()":"3f4ba83a"}},"storageLayout":{"storage":[{"astId":139,"contract":"src/contracts/V4TokenBase.sol:V4TokenBase","label":"_initialized","offset":0,"slot":"0","type":"t_uint8"},{"astId":142,"contract":"src/contracts/V4TokenBase.sol:V4TokenBase","label":"_initializing","offset":1,"slot":"0","type":"t_bool"},{"astId":1525,"contract":"src/contracts/V4TokenBase.sol:V4TokenBase","label":"__gap","offset":0,"slot":"1","type":"t_array(t_uint256)50_storage"},{"astId":449,"contract":"src/contracts/V4TokenBase.sol:V4TokenBase","label":"_balances","offset":0,"slot":"51","type":"t_mapping(t_address,t_uint256)"},{"astId":455,"contract":"src/contracts/V4TokenBase.sol:V4TokenBase","label":"_allowances","offset":0,"slot":"52","type":"t_mapping(t_address,t_mapping(t_address,t_uint256))"},{"astId":457,"contract":"src/contracts/V4TokenBase.sol:V4TokenBase","label":"_totalSupply","offset":0,"slot":"53","type":"t_uint256"},{"astId":459,"contract":"src/contracts/V4TokenBase.sol:V4TokenBase","label":"_name","offset":0,"slot":"54","type":"t_string_storage"},{"astId":461,"contract":"src/contracts/V4TokenBase.sol:V4TokenBase","label":"_symbol","offset":0,"slot":"55","type":"t_string_storage"},{"astId":1041,"contract":"src/contracts/V4TokenBase.sol:V4TokenBase","label":"__gap","offset":0,"slot":"56","type":"t_array(t_uint256)45_storage"},{"astId":323,"contract":"src/contracts/V4TokenBase.sol:V4TokenBase","label":"_paused","offset":0,"slot":"101","type":"t_bool"},{"astId":428,"contract":"src/contracts/V4TokenBase.sol:V4TokenBase","label":"__gap","offset":0,"slot":"102","type":"t_array(t_uint256)49_storage"},{"astId":11,"contract":"src/contracts/V4TokenBase.sol:V4TokenBase","label":"_owner","offset":0,"slot":"151","type":"t_address"},{"astId":131,"contract":"src/contracts/V4TokenBase.sol:V4TokenBase","label":"__gap","offset":0,"slot":"152","type":"t_array(t_uint256)49_storage"},{"astId":6333,"contract":"src/contracts/V4TokenBase.sol:V4TokenBase","label":"_modules","offset":0,"slot":"201","type":"t_struct(AddressSet)1852_storage"},{"astId":6337,"contract":"src/contracts/V4TokenBase.sol:V4TokenBase","label":"_moduleByType","offset":0,"slot":"203","type":"t_mapping(t_bytes32,t_address)"}],"types":{"t_address":{"encoding":"inplace","label":"address","numberOfBytes":"20"},"t_array(t_bytes32)dyn_storage":{"base":"t_bytes32","encoding":"dynamic_array","label":"bytes32[]","numberOfBytes":"32"},"t_array(t_uint256)45_storage":{"base":"t_uint256","encoding":"inplace","label":"uint256[45]","numberOfBytes":"1440"},"t_array(t_uint256)49_storage":{"base":"t_uint256","encoding":"inplace","label":"uint256[49]","numberOfBytes":"1568"},"t_array(t_uint256)50_storage":{"base":"t_uint256","encoding":"inplace","label":"uint256[50]","numberOfBytes":"1600"},"t_bool":{"encoding":"inplace","label":"bool","numberOfBytes":"1"},"t_bytes32":{"encoding":"inplace","label":"bytes32","numberOfBytes":"32"},"t_mapping(t_address,t_mapping(t_address,t_uint256))":{"encoding":"mapping","key":"t_address","label":"mapping(address => mapping(address => uint256))","numberOfBytes":"32","value":"t_mapping(t_address,t_uint256)"},"t_mapping(t_address,t_uint256)":{"encoding":"mapping","key":"t_address","label":"mapping(address => uint256)","numberOfBytes":"32","value":"t_uint256"},"t_mapping(t_bytes32,t_address)":{"encoding":"mapping","key":"t_bytes32","label":"mapping(bytes32 => address)","numberOfBytes":"32","value":"t_address"},"t_mapping(t_bytes32,t_uint256)":{"encoding":"mapping","key":"t_bytes32","label":"mapping(bytes32 => uint256)","numberOfBytes":"32","value":"t_uint256"},"t_string_storage":{"encoding":"bytes","label":"string","numberOfBytes":"32"},"t_struct(AddressSet)1852_storage":{"encoding":"inplace","label":"struct EnumerableSetUpgradeable.AddressSet","members":[{"astId":1851,"contract":"src/contracts/V4TokenBase.sol:V4TokenBase","label":"_inner","offset":0,"slot":"0","type":"t_struct(Set)1537_storage"}],"numberOfBytes":"64"},"t_struct(Set)1537_storage":{"encoding":"inplace","label":"struct EnumerableSetUpgradeable.Set","members":[{"astId":1532,"contract":"src/contracts/V4TokenBase.sol:V4TokenBase","label":"_values","offset":0,"slot":"0","type":"t_array(t_bytes32)dyn_storage"},{"astId":1536,"contract":"src/contracts/V4TokenBase.sol:V4TokenBase","label":"_indexes","offset":0,"slot":"1","type":"t_mapping(t_bytes32,t_uint256)"}],"numberOfBytes":"64"},"t_uint256":{"encoding":"inplace","label":"uint256","numberOfBytes":"32"},"t_uint8":{"encoding":"inplace","label":"uint8","numberOfBytes":"1"}}},"userdoc":{"kind":"user","methods":{},"version":1}}}}