{"src/contracts/V4SecurityModule.sol":{"V4SecurityModule":{"abi":[{"inputs":[],"stateMutability":"nonpayable","type":"constructor"},{"anonymous":false,"inputs":[{"indexed":false,"internalType":"address","name":"trigger","type":"address"}],"name":"EmergencyPaused","type":"event"},{"anonymous":false,"inputs":[{"indexed":false,"internalType":"address","name":"trigger","type":"address"}],"name":"EmergencyUnpaused","type":"event"},{"anonymous":false,"inputs":[{"indexed":false,"internalType":"uint8","name":"version","type":"uint8"}],"name":"Initialized","type":"event"},{"anonymous":false,"inputs":[{"indexed":true,"internalType":"bytes32","name":"proposalId","type":"bytes32"},{"indexed":true,"internalType":"address","name":"signer","type":"address"}],"name":"OwnershipTransferConfirmed","type":"event"},{"anonymous":false,"inputs":[{"indexed":true,"internalType":"bytes32","name":"proposalId","type":"bytes32"},{"indexed":true,"internalType":"address","name":"proposedOwner","type":"address"}],"name":"OwnershipTransferProposed","type":"event"},{"anonymous":false,"inputs":[{"indexed":true,"internalType":"address","name":"previousOwner","type":"address"},{"indexed":true,"internalType":"address","name":"newOwner","type":"address"}],"name":"OwnershipTransferred","type":"event"},{"anonymous":false,"inputs":[{"indexed":true,"internalType":"address","name":"signer","type":"address"}],"name":"SignerAdded","type":"event"},{"anonymous":false,"inputs":[{"indexed":true,"internalType":"address","name":"signer","type":"address"}],"name":"SignerRemoved","type":"event"},{"anonymous":false,"inputs":[{"indexed":false,"internalType":"uint256","name":"oldThreshold","type":"uint256"},{"indexed":false,"internalType":"uint256","name":"newThreshold","type":"uint256"}],"name":"ThresholdChanged","type":"event"},{"inputs":[],"name":"VERSION","outputs":[{"internalType":"string","name":"","type":"string"}],"stateMutability":"view","type":"function"},{"inputs":[{"internalType":"address","name":"signer","type":"address"}],"name":"addSigner","outputs":[{"internalType":"bool","name":"success","type":"bool"}],"stateMutability":"nonpayable","type":"function"},{"inputs":[{"internalType":"bytes32","name":"proposalId","type":"bytes32"}],"name":"confirmOwnershipTransfer","outputs":[{"internalType":"bool","name":"success","type":"bool"}],"stateMutability":"nonpayable","type":"function"},{"inputs":[],"name":"emergencyPause","outputs":[{"internalType":"bool","name":"success","type":"bool"}],"stateMutability":"nonpayable","type":"function"},{"inputs":[],"name":"emergencyUnpause","outputs":[{"internalType":"bool","name":"success","type":"bool"}],"stateMutability":"nonpayable","type":"function"},{"inputs":[],"name":"getModuleType","outputs":[{"internalType":"bytes32","name":"moduleType","type":"bytes32"}],"stateMutability":"pure","type":"function"},{"inputs":[],"name":"getSigners","outputs":[{"internalType":"address[]","name":"signers","type":"address[]"}],"stateMutability":"view","type":"function"},{"inputs":[],"name":"getThreshold","outputs":[{"internalType":"uint256","name":"threshold","type":"uint256"}],"stateMutability":"view","type":"function"},{"inputs":[],"name":"getToken","outputs":[{"internalType":"address","name":"tokenAddress","type":"address"}],"stateMutability":"view","type":"function"},{"inputs":[{"internalType":"address","name":"tokenAddress","type":"address"},{"internalType":"address","name":"owner","type":"address"}],"name":"initialize","outputs":[],"stateMutability":"nonpayable","type":"function"},{"inputs":[{"internalType":"address","name":"tokenAddress","type":"address"},{"internalType":"bytes","name":"data","type":"bytes"}],"name":"initialize","outputs":[],"stateMutability":"nonpayable","type":"function"},{"inputs":[{"internalType":"address","name":"account","type":"address"}],"name":"isSigner","outputs":[{"internalType":"bool","name":"isSigner","type":"bool"}],"stateMutability":"view","type":"function"},{"inputs":[],"name":"owner","outputs":[{"internalType":"address","name":"","type":"address"}],"stateMutability":"view","type":"function"},{"inputs":[{"internalType":"address","name":"newOwner","type":"address"}],"name":"proposeOwnershipTransfer","outputs":[{"internalType":"bytes32","name":"proposalId","type":"bytes32"}],"stateMutability":"nonpayable","type":"function"},{"inputs":[{"internalType":"address","name":"signer","type":"address"}],"name":"removeSigner","outputs":[{"internalType":"bool","name":"success","type":"bool"}],"stateMutability":"nonpayable","type":"function"},{"inputs":[],"name":"renounceOwnership","outputs":[],"stateMutability":"nonpayable","type":"function"},{"inputs":[{"internalType":"uint256","name":"threshold","type":"uint256"}],"name":"setThreshold","outputs":[{"internalType":"bool","name":"success","type":"bool"}],"stateMutability":"nonpayable","type":"function"},{"inputs":[{"internalType":"bytes4","name":"functionSig","type":"bytes4"}],"name":"supportsFunction","outputs":[{"internalType":"bool","name":"hasFunction","type":"bool"}],"stateMutability":"pure","type":"function"},{"inputs":[{"internalType":"address","name":"newOwner","type":"address"}],"name":"transferOwnership","outputs":[],"stateMutability":"nonpayable","type":"function"}],"devdoc":{"details":"Implementation of security module with multi-sig capabilities","events":{"Initialized(uint8)":{"details":"Triggered when the contract has been initialized or reinitialized."}},"kind":"dev","methods":{"addSigner(address)":{"details":"Add a new signer to the multi-sig configuration","params":{"signer":"Address to add as a signer"},"returns":{"success":"Whether the signer was successfully added"}},"confirmOwnershipTransfer(bytes32)":{"details":"Confirm an ownership transfer proposal (multi-sig process step 2)","params":{"proposalId":"Identifier of the proposal to confirm"},"returns":{"success":"Whether the ownership was successfully transferred"}},"constructor":{"details":"Constructor that disables initialization on the implementation contract"},"emergencyPause()":{"details":"Emergency pause for the token","returns":{"success":"Whether the pause was successful"}},"emergencyUnpause()":{"details":"Unpause the token after emergency","returns":{"success":"Whether the unpause was successful"}},"getModuleType()":{"details":"Get the type of this module","returns":{"moduleType":"Type identifier for this module"}},"getSigners()":{"details":"Get all current signers","returns":{"signers":"Array of current signer addresses"}},"getThreshold()":{"details":"Get the current signature threshold","returns":{"threshold":"The current signature threshold"}},"getToken()":{"details":"Get the token this module is attached to","returns":{"tokenAddress":"Address of the token"}},"initialize(address,address)":{"details":"Initialize the security module","params":{"owner":"Address of the initial owner","tokenAddress":"Address of the token this module is attached to"}},"initialize(address,bytes)":{"details":"Initialize the module","params":{"data":"Additional initialization data (owner address)","tokenAddress":"Address of the token this module is attached to"}},"isSigner(address)":{"details":"Check if an address is a signer","params":{"account":"Address to check"},"returns":{"isSigner":"Whether the address is a signer"}},"owner()":{"details":"Returns the address of the current owner."},"proposeOwnershipTransfer(address)":{"details":"Propose a new owner (multi-sig process step 1)","params":{"newOwner":"Address of the proposed new owner"},"returns":{"proposalId":"Identifier for the ownership transfer proposal"}},"removeSigner(address)":{"details":"Remove a signer from the multi-sig configuration","params":{"signer":"Address to remove from signers"},"returns":{"success":"Whether the signer was successfully removed"}},"renounceOwnership()":{"details":"Leaves the contract without owner. It will not be possible to call `onlyOwner` functions. Can only be called by the current owner. NOTE: Renouncing ownership will leave the contract without an owner, thereby disabling any functionality that is only available to the owner."},"setThreshold(uint256)":{"details":"Set the required number of signatures for operations","params":{"threshold":"Number of required signatures"},"returns":{"success":"Whether the threshold was successfully set"}},"supportsFunction(bytes4)":{"details":"Check if this module has a specific function","params":{"functionSig":"Function signature to check for"},"returns":{"hasFunction":"Whether the module implements the function"}},"transferOwnership(address)":{"details":"Transfers ownership of the contract to a new account (`newOwner`). Can only be called by the current owner."}},"title":"V4SecurityModule","version":1},"evm":{"bytecode":{"linkReferences":{},"object":"608080604052346100c1576000549060ff8260081c1661006f575060ff80821603610034575b6040516118ad90816100c78239f35b60ff90811916176000557f7f26b83ff96e1f2b6a682f133852f6798a09c465da95921460cefb3847402498602060405160ff8152a138610025565b62461bcd60e51b815260206004820152602760248201527f496e697469616c697a61626c653a20636f6e747261637420697320696e697469604482015266616c697a696e6760c81b6064820152608490fd5b600080fdfe608060408181526004918236101561001657600080fd5b600092833560e01c9182630b9349b914611235575081630e316ab7146110b357816321040fc314610f0457816321df0da714610edb578163485cc95514610d535781634a4e3bd514610ca757816351858e2714610bc0578163715018a614610b635781637df73e2714610b1d5781638da5cb5b14610af457816394cf795e146109ee578163960bfe04146108db578163be464464146107c5578163d1f57894146104d9578163e50068011461032c578163e75235b81461030d578163eb12d61e146101d7578163f2fde38b14610141575063ffa1ad74146100f657600080fd5b3461013d578160031936011261013d578051610139916101158261128a565b60058252640342e302e360dc1b602083015251918291602083526020830190611301565b0390f35b5080fd5b9050346101d35760203660031901126101d35761015c61126f565b9161016561149d565b6001600160a01b03831615610181578361017e84611675565b80f35b906020608492519162461bcd60e51b8352820152602660248201527f4f776e61626c653a206e6577206f776e657220697320746865207a65726f206160448201526564647265737360d01b6064820152fd5b8280fd5b8391503461013d57602036600319011261013d576101f361126f565b6101fb61149d565b6001600160a01b03169081156102b257610222826000526067602052604060002054151590565b61025f57507f47d1c22a25bb3a5d4e481b9b1e6944c2eade3181a0a20b495ed61d35b5323f246020936102548361180c565b50519280a260018152f35b608490602085519162461bcd60e51b8352820152602760248201527f563453656375726974794d6f64756c653a207369676e657220616c72656164796044820152662065786973747360c81b6064820152fd5b608490602085519162461bcd60e51b8352820152602f60248201527f563453656375726974794d6f64756c653a207369676e65722063616e6e6f742060448201526e6265207a65726f206164647265737360881b6064820152fd5b50503461013d578160031936011261013d576020906068549051908152f35b9050346101d357602092836003193601126104d65781359161036361035e336000526067602052604060002054151590565b611326565b82825260698552838220546001600160a01b03161561048157828252606a8552838220338352855260ff848320541661043257828252606a85528382203383528552838220600160ff19825416179055828252606b85528382208054916001830180931161041f575055829033837fdf80324d9a2671f608ad6f7256bf79df613191679b5509c808735b25fbc378968380a3828152606b855220546068541115610410575b505160018152f35b610419906114f5565b38610408565b634e487b7160e01b845260119052602483fd5b835162461bcd60e51b8152908101859052602360248201527f563453656375726974794d6f64756c653a20616c726561647920636f6e6669726044820152621b595960ea1b6064820152608490fd5b835162461bcd60e51b8152908101859052602960248201527f563453656375726974794d6f64756c653a2070726f706f73616c20646f6573206044820152681b9bdd08195e1a5cdd60ba1b6064820152608490fd5b80fd5b9050346101d357816003193601126101d3576104f361126f565b906024359167ffffffffffffffff918284116107c157366023850112156107c157838101359283116107c15736602484860101116107c15785549060ff93848360081c1615938480956107b5575b801561079f575b61055190611383565b60019560ff19948688878316178c5561078e575b506020978884036107355790602488969594939201359289811061071f575b508a54600881901c821615966001600160a01b03948516966105dd93929189918f91908380610714575b80156106ff575b6105be90611383565b84161790556106ee575b508b5460081c166105d881611615565b611615565b6105e633611675565b6105ef84611675565b16908115610694575090610615916001600160601b0360a01b606554161760655561180c565b508260685561065e575b610627578380f35b7f7f26b83ff96e1f2b6a682f133852f6798a09c465da95921460cefb38474024989261ff0019855416855551908152a13880808380f35b61ff001985541685557f7f26b83ff96e1f2b6a682f133852f6798a09c465da95921460cefb3847402498838551848152a161061f565b875162461bcd60e51b8152908101879052602e60248201527f563453656375726974794d6f64756c653a20746f6b656e20616464726573732060448201526d63616e6e6f74206265207a65726f60901b6064820152608490fd5b61ffff1916610101178c55386105c8565b50303b1580156105b5575084861682146105b5565b5081868616106105ae565b600019908a0360031b1b909216916105dd610584565b895162461bcd60e51b81528086018a9052602d60248201527f563453656375726974794d6f64756c653a20696e76616c696420696e6974696160448201526c6c697a6174696f6e206461746160981b6064820152608490fd5b61ffff1916610101178a5538610565565b50303b1580156105485750838616600114610548565b50600186851610610541565b8580fd5b9050346101d35760203660031901126101d357359063ffffffff60e01b82168092036101d357602092506321040fc360e01b82149182156108ca575b82156108b9575b82156108a8575b8215610897575b8215610886575b8215610875575b8215610864575b8215610853575b8215610842575b50519015158152f35b634a4e3bd560e01b14915038610839565b6351858e2760e01b81149250610832565b634a67bcaf60e11b8114925061082b565b631cea46b760e31b81149250610824565b637df73e2760e01b8114925061081d565b632582ff8160e21b81149250610816565b630e316ab760e01b8114925061080f565b6375896b0f60e11b81149250610808565b63e500680160e01b81149250610801565b905082346104d65760203660031901126104d657508035906108fb61149d565b8115610998576066548211610949576020837f3164947cf0f49f08dd0cd80e671535b1e11590d347c55dcaa97ba3c24a96b33a81856068549080606855825191825285820152a15160018152f35b608490602084519162461bcd60e51b83528201526024808201527f563453656375726974794d6f64756c653a207468726573686f6c6420746f6f206044820152630d0d2ced60e31b6064820152fd5b608490602084519162461bcd60e51b8352820152602a60248201527f563453656375726974794d6f64756c653a207468726573686f6c642063616e6e6044820152696f74206265207a65726f60b01b6064820152fd5b8391503461013d578160031936011261013d57829060669260665491610a1383611485565b90610a20855192836112bc565b838252610a2c84611485565b6020968388019591601f1901368737845b828110610a8c575050505083519485948186019282875251809352850193925b828110610a6c57505050500390f35b83516001600160a01b031685528695509381019392810192600101610a5d565b818695979899965260018060a01b03817f46501879b8ca8525e8c2fd519e2fbfcfa2ebea26501294aa02cbfcfb12e943540154168751821015610ae157600582901b8801870152949796959394600101610a3d565b634e487b7160e01b865260328552602486fd5b50503461013d578160031936011261013d5760335490516001600160a01b039091168152602090f35b50503461013d57602036600319011261013d57602090610b5a6001600160a01b03610b4661126f565b166000526067602052604060002054151590565b90519015158152f35b83346104d657806003193601126104d657610b7c61149d565b603380546001600160a01b0319811690915581906001600160a01b03167f8be0079c531659141344cd1fd0a4f28419497f9722a3daafe3b4186f6b6457e08280a380f35b9050346101d357826003193601126101d3579180610c3793610bf261035e336000526067602052604060002054151590565b8351638456cb5960e01b6020820152818152908290610c108361128a565b60018060a01b036065541691829187519889958694859362ac0f6f60e71b85528401611463565b03925af1928315610c9b57602093610c7b575b50507fb8fad2fa0ed7a383e747c309ef2c4391d7b65592a48893e57ccc1fab70791456828251338152a15160018152f35b610c96913d8091833e610c8e81836112bc565b8101906113e6565b610c4a565b509051903d90823e3d90fd5b9050346101d357826003193601126101d3579180610cf793610cd961035e336000526067602052604060002054151590565b8351631fa5d41d60e11b6020820152818152908290610c108361128a565b03925af1928315610c9b57602093610d3b575b50507ff5cbf596165cc457b2cd92e8d8450827ee314968160a5696402d75766fc52caf828251338152a15160018152f35b610d4e913d8091833e610c8e81836112bc565b610d0a565b9050346101d357816003193601126101d357610d6d61126f565b602435916001600160a01b0380841692838503610ed757610dde87549560ff8760081c161596878098610eca575b8015610eb3575b610dab90611383565b60ff1981166001178a5587610ea2575b50610dd060ff8a5460081c166105d881611615565b610dd933611675565b611675565b16908115610e48575090610e04916001600160601b0360a01b606554161760655561180c565b506001606855610e12575080f35b60207f7f26b83ff96e1f2b6a682f133852f6798a09c465da95921460cefb38474024989161ff001984541684555160018152a180f35b608490602086519162461bcd60e51b8352820152602e60248201527f563453656375726974794d6f64756c653a20746f6b656e20616464726573732060448201526d63616e6e6f74206265207a65726f60901b6064820152fd5b61ffff191661010117895538610dbb565b50303b158015610da2575060ff8116600114610da2565b50600160ff821610610d9b565b8680fd5b50503461013d578160031936011261013d5760655490516001600160a01b039091168152602090f35b919050346101d357602092836003193601126104d657610f2261126f565b610f3c61035e336000526067602052604060002054151590565b6001600160a01b03811693841561105557835190868201926001600160601b03199060601b1683524260348301523360601b605483015260488252608082019082821067ffffffffffffffff831117611042575084525190208082526069855282822080546001600160a01b03191685179055606a85528282203383528552828220805460ff19166001908117909155818352606b86528383205592837fe5a786f1012d2dba581f6365afd7fc150ac07bff2dfac303ecdd70f090d79cda8380a3827fdf80324d9a2671f608ad6f7256bf79df613191679b5509c808735b25fbc37896339280a3600160685414611034575b51908152f35b61103d826114f5565b61102e565b634e487b7160e01b855260419052602484fd5b835162461bcd60e51b8152908101869052603260248201527f563453656375726974794d6f64756c653a206e6577206f776e65722063616e6e6044820152716f74206265207a65726f206164647265737360701b6064820152608490fd5b8391503461013d57602036600319011261013d576110cf61126f565b906110d861149d565b6001600160a01b03918216600081815260676020526040902054909290156111e257606654606854101561118f5760335416821461113e57507f3525e22824a8a7df2c9a6029941c824cf95b6447f1e13d5128fd3826d35afe8b6020936102548361170b565b608490602085519162461bcd60e51b8352820152602560248201527f563453656375726974794d6f64756c653a2063616e6e6f742072656d6f76652060448201526437bbb732b960d91b6064820152fd5b845162461bcd60e51b8152602081840152602760248201527f563453656375726974794d6f64756c653a20776f756c6420627265616b2074686044820152661c995cda1bdb1960ca1b6064820152608490fd5b845162461bcd60e51b8152602081840152602760248201527f563453656375726974794d6f64756c653a207369676e657220646f6573206e6f6044820152661d08195e1a5cdd60ca1b6064820152608490fd5b84903461013d578160031936011261013d57807fe8dfd5edbafe3b1a04db54003f904cfc4610e36b1414906e3f2255bd826e13cf60209252f35b600435906001600160a01b038216820361128557565b600080fd5b6040810190811067ffffffffffffffff8211176112a657604052565b634e487b7160e01b600052604160045260246000fd5b90601f8019910116810190811067ffffffffffffffff8211176112a657604052565b60005b8381106112f15750506000910152565b81810151838201526020016112e1565b9060209161131a815180928185528580860191016112de565b601f01601f1916010190565b1561132d57565b60405162461bcd60e51b815260206004820152602860248201527f563453656375726974794d6f64756c653a2063616c6c6572206973206e6f7420604482015267309039b4b3b732b960c11b6064820152608490fd5b1561138a57565b60405162461bcd60e51b815260206004820152602e60248201527f496e697469616c697a61626c653a20636f6e747261637420697320616c72656160448201526d191e481a5b9a5d1a585b1a5e995960921b6064820152608490fd5b919060408382031261128557825180151581036112855792602081015167ffffffffffffffff9182821161128557019082601f830112156112855781519081116112a65760405192611442601f8301601f1916602001856112bc565b818452602082840101116112855761146091602080850191016112de565b90565b6001600160a01b03909116815260406020820181905261146092910190611301565b67ffffffffffffffff81116112a65760051b60200190565b6033546001600160a01b031633036114b157565b606460405162461bcd60e51b815260206004820152602060248201527f4f776e61626c653a2063616c6c6572206973206e6f7420746865206f776e65726044820152fd5b6000818152606960205260408120546033546001600160a01b039493918516929085169161152284611675565b60405163f2fde38b60e01b602082015260248082018690528152606081019667ffffffffffffffff88118289101761160157604088905260655462ac0f6f60e71b895284918991168183605f198661157e818660648201611463565b0301925af19687156115f6577f8be0079c531659141344cd1fd0a4f28419497f9722a3daafe3b4186f6b6457e0949596976115d3575b5050815260696020526040812080546001600160a01b031916905580a3565b60606115f1923d908187853e6115e982856112bc565b0101906113e6565b6115b4565b6040513d85823e3d90fd5b634e487b7160e01b84526041600452602484fd5b1561161c57565b60405162461bcd60e51b815260206004820152602b60248201527f496e697469616c697a61626c653a20636f6e7472616374206973206e6f74206960448201526a6e697469616c697a696e6760a81b6064820152608490fd5b603380546001600160a01b039283166001600160a01b0319821681179092559091167f8be0079c531659141344cd1fd0a4f28419497f9722a3daafe3b4186f6b6457e0600080a3565b6066548110156116f55760666000527f46501879b8ca8525e8c2fd519e2fbfcfa2ebea26501294aa02cbfcfb12e943540190600090565b634e487b7160e01b600052603260045260246000fd5b600081815260676020526040812054909190801561180757600019908082018181116117f357606654908382019182116117df57808203611794575b50505060665480156117805781019061175f826116be565b909182549160031b1b19169055606655815260676020526040812055600190565b634e487b7160e01b84526031600452602484fd5b6117c96117a36117b2936116be565b90549060031b1c9283926116be565b819391549060031b91821b91600019901b19161790565b9055845260676020526040842055388080611747565b634e487b7160e01b86526011600452602486fd5b634e487b7160e01b85526011600452602485fd5b505090565b600081815260676020526040812054611872576066546801000000000000000081101561185e57908261184a6117b2846001604096016066556116be565b905560665492815260676020522055600190565b634e487b7160e01b82526041600452602482fd5b90509056fea2646970667358221220000a4f9a715dd47e8a1e81a93cd83fc3ca6bf6d8773cf2eae8426dad7a13824b64736f6c63430008160033","opcodes":"PUSH1 0x80 DUP1 PUSH1 0x40 MSTORE CALLVALUE PUSH2 0xC1 JUMPI PUSH1 0x0 SLOAD SWAP1 PUSH1 0xFF DUP3 PUSH1 0x8 SHR AND PUSH2 0x6F JUMPI POP PUSH1 0xFF DUP1 DUP3 AND SUB PUSH2 0x34 JUMPI JUMPDEST PUSH1 0x40 MLOAD PUSH2 0x18AD SWAP1 DUP2 PUSH2 0xC7 DUP3 CODECOPY RETURN JUMPDEST PUSH1 0xFF SWAP1 DUP2 NOT AND OR PUSH1 0x0 SSTORE PUSH32 0x7F26B83FF96E1F2B6A682F133852F6798A09C465DA95921460CEFB3847402498 PUSH1 0x20 PUSH1 0x40 MLOAD PUSH1 0xFF DUP2 MSTORE LOG1 CODESIZE PUSH2 0x25 JUMP JUMPDEST PUSH3 0x461BCD PUSH1 0xE5 SHL DUP2 MSTORE PUSH1 0x20 PUSH1 0x4 DUP3 ADD MSTORE PUSH1 0x27 PUSH1 0x24 DUP3 ADD MSTORE PUSH32 0x496E697469616C697A61626C653A20636F6E747261637420697320696E697469 PUSH1 0x44 DUP3 ADD MSTORE PUSH7 0x616C697A696E67 PUSH1 0xC8 SHL PUSH1 0x64 DUP3 ADD MSTORE PUSH1 0x84 SWAP1 REVERT JUMPDEST PUSH1 0x0 DUP1 REVERT INVALID PUSH1 0x80 PUSH1 0x40 DUP2 DUP2 MSTORE PUSH1 0x4 SWAP2 DUP3 CALLDATASIZE LT ISZERO PUSH2 0x16 JUMPI PUSH1 0x0 DUP1 REVERT JUMPDEST PUSH1 0x0 SWAP3 DUP4 CALLDATALOAD PUSH1 0xE0 SHR SWAP2 DUP3 PUSH4 0xB9349B9 EQ PUSH2 0x1235 JUMPI POP DUP2 PUSH4 0xE316AB7 EQ PUSH2 0x10B3 JUMPI DUP2 PUSH4 0x21040FC3 EQ PUSH2 0xF04 JUMPI DUP2 PUSH4 0x21DF0DA7 EQ PUSH2 0xEDB JUMPI DUP2 PUSH4 0x485CC955 EQ PUSH2 0xD53 JUMPI DUP2 PUSH4 0x4A4E3BD5 EQ PUSH2 0xCA7 JUMPI DUP2 PUSH4 0x51858E27 EQ PUSH2 0xBC0 JUMPI DUP2 PUSH4 0x715018A6 EQ PUSH2 0xB63 JUMPI DUP2 PUSH4 0x7DF73E27 EQ PUSH2 0xB1D JUMPI DUP2 PUSH4 0x8DA5CB5B EQ PUSH2 0xAF4 JUMPI DUP2 PUSH4 0x94CF795E EQ PUSH2 0x9EE JUMPI DUP2 PUSH4 0x960BFE04 EQ PUSH2 0x8DB JUMPI DUP2 PUSH4 0xBE464464 EQ PUSH2 0x7C5 JUMPI DUP2 PUSH4 0xD1F57894 EQ PUSH2 0x4D9 JUMPI DUP2 PUSH4 0xE5006801 EQ PUSH2 0x32C JUMPI DUP2 PUSH4 0xE75235B8 EQ PUSH2 0x30D JUMPI DUP2 PUSH4 0xEB12D61E EQ PUSH2 0x1D7 JUMPI DUP2 PUSH4 0xF2FDE38B EQ PUSH2 0x141 JUMPI POP PUSH4 0xFFA1AD74 EQ PUSH2 0xF6 JUMPI PUSH1 0x0 DUP1 REVERT JUMPDEST CALLVALUE PUSH2 0x13D JUMPI DUP2 PUSH1 0x3 NOT CALLDATASIZE ADD SLT PUSH2 0x13D JUMPI DUP1 MLOAD PUSH2 0x139 SWAP2 PUSH2 0x115 DUP3 PUSH2 0x128A JUMP JUMPDEST PUSH1 0x5 DUP3 MSTORE PUSH5 0x342E302E3 PUSH1 0xDC SHL PUSH1 0x20 DUP4 ADD MSTORE MLOAD SWAP2 DUP3 SWAP2 PUSH1 0x20 DUP4 MSTORE PUSH1 0x20 DUP4 ADD SWAP1 PUSH2 0x1301 JUMP JUMPDEST SUB SWAP1 RETURN JUMPDEST POP DUP1 REVERT JUMPDEST SWAP1 POP CALLVALUE PUSH2 0x1D3 JUMPI PUSH1 0x20 CALLDATASIZE PUSH1 0x3 NOT ADD SLT PUSH2 0x1D3 JUMPI PUSH2 0x15C PUSH2 0x126F JUMP JUMPDEST SWAP2 PUSH2 0x165 PUSH2 0x149D JUMP JUMPDEST PUSH1 0x1 PUSH1 0x1 PUSH1 0xA0 SHL SUB DUP4 AND ISZERO PUSH2 0x181 JUMPI DUP4 PUSH2 0x17E DUP5 PUSH2 0x1675 JUMP JUMPDEST DUP1 RETURN JUMPDEST SWAP1 PUSH1 0x20 PUSH1 0x84 SWAP3 MLOAD SWAP2 PUSH3 0x461BCD PUSH1 0xE5 SHL DUP4 MSTORE DUP3 ADD MSTORE PUSH1 0x26 PUSH1 0x24 DUP3 ADD MSTORE PUSH32 0x4F776E61626C653A206E6577206F776E657220697320746865207A65726F2061 PUSH1 0x44 DUP3 ADD MSTORE PUSH6 0x646472657373 PUSH1 0xD0 SHL PUSH1 0x64 DUP3 ADD MSTORE REVERT JUMPDEST DUP3 DUP1 REVERT JUMPDEST DUP4 SWAP2 POP CALLVALUE PUSH2 0x13D JUMPI PUSH1 0x20 CALLDATASIZE PUSH1 0x3 NOT ADD SLT PUSH2 0x13D JUMPI PUSH2 0x1F3 PUSH2 0x126F JUMP JUMPDEST PUSH2 0x1FB PUSH2 0x149D JUMP JUMPDEST PUSH1 0x1 PUSH1 0x1 PUSH1 0xA0 SHL SUB AND SWAP1 DUP2 ISZERO PUSH2 0x2B2 JUMPI PUSH2 0x222 DUP3 PUSH1 0x0 MSTORE PUSH1 0x67 PUSH1 0x20 MSTORE PUSH1 0x40 PUSH1 0x0 KECCAK256 SLOAD ISZERO ISZERO SWAP1 JUMP JUMPDEST PUSH2 0x25F JUMPI POP PUSH32 0x47D1C22A25BB3A5D4E481B9B1E6944C2EADE3181A0A20B495ED61D35B5323F24 PUSH1 0x20 SWAP4 PUSH2 0x254 DUP4 PUSH2 0x180C JUMP JUMPDEST POP MLOAD SWAP3 DUP1 LOG2 PUSH1 0x1 DUP2 MSTORE RETURN JUMPDEST PUSH1 0x84 SWAP1 PUSH1 0x20 DUP6 MLOAD SWAP2 PUSH3 0x461BCD PUSH1 0xE5 SHL DUP4 MSTORE DUP3 ADD MSTORE PUSH1 0x27 PUSH1 0x24 DUP3 ADD MSTORE PUSH32 0x563453656375726974794D6F64756C653A207369676E657220616C7265616479 PUSH1 0x44 DUP3 ADD MSTORE PUSH7 0x20657869737473 PUSH1 0xC8 SHL PUSH1 0x64 DUP3 ADD MSTORE REVERT JUMPDEST PUSH1 0x84 SWAP1 PUSH1 0x20 DUP6 MLOAD SWAP2 PUSH3 0x461BCD PUSH1 0xE5 SHL DUP4 MSTORE DUP3 ADD MSTORE PUSH1 0x2F PUSH1 0x24 DUP3 ADD MSTORE PUSH32 0x563453656375726974794D6F64756C653A207369676E65722063616E6E6F7420 PUSH1 0x44 DUP3 ADD MSTORE PUSH15 0x6265207A65726F2061646472657373 PUSH1 0x88 SHL PUSH1 0x64 DUP3 ADD MSTORE REVERT JUMPDEST POP POP CALLVALUE PUSH2 0x13D JUMPI DUP2 PUSH1 0x3 NOT CALLDATASIZE ADD SLT PUSH2 0x13D JUMPI PUSH1 0x20 SWAP1 PUSH1 0x68 SLOAD SWAP1 MLOAD SWAP1 DUP2 MSTORE RETURN JUMPDEST SWAP1 POP CALLVALUE PUSH2 0x1D3 JUMPI PUSH1 0x20 SWAP3 DUP4 PUSH1 0x3 NOT CALLDATASIZE ADD SLT PUSH2 0x4D6 JUMPI DUP2 CALLDATALOAD SWAP2 PUSH2 0x363 PUSH2 0x35E CALLER PUSH1 0x0 MSTORE PUSH1 0x67 PUSH1 0x20 MSTORE PUSH1 0x40 PUSH1 0x0 KECCAK256 SLOAD ISZERO ISZERO SWAP1 JUMP JUMPDEST PUSH2 0x1326 JUMP JUMPDEST DUP3 DUP3 MSTORE PUSH1 0x69 DUP6 MSTORE DUP4 DUP3 KECCAK256 SLOAD PUSH1 0x1 PUSH1 0x1 PUSH1 0xA0 SHL SUB AND ISZERO PUSH2 0x481 JUMPI DUP3 DUP3 MSTORE PUSH1 0x6A DUP6 MSTORE DUP4 DUP3 KECCAK256 CALLER DUP4 MSTORE DUP6 MSTORE PUSH1 0xFF DUP5 DUP4 KECCAK256 SLOAD AND PUSH2 0x432 JUMPI DUP3 DUP3 MSTORE PUSH1 0x6A DUP6 MSTORE DUP4 DUP3 KECCAK256 CALLER DUP4 MSTORE DUP6 MSTORE DUP4 DUP3 KECCAK256 PUSH1 0x1 PUSH1 0xFF NOT DUP3 SLOAD AND OR SWAP1 SSTORE DUP3 DUP3 MSTORE PUSH1 0x6B DUP6 MSTORE DUP4 DUP3 KECCAK256 DUP1 SLOAD SWAP2 PUSH1 0x1 DUP4 ADD DUP1 SWAP4 GT PUSH2 0x41F JUMPI POP SSTORE DUP3 SWAP1 CALLER DUP4 PUSH32 0xDF80324D9A2671F608AD6F7256BF79DF613191679B5509C808735B25FBC37896 DUP4 DUP1 LOG3 DUP3 DUP2 MSTORE PUSH1 0x6B DUP6 MSTORE KECCAK256 SLOAD PUSH1 0x68 SLOAD GT ISZERO PUSH2 0x410 JUMPI JUMPDEST POP MLOAD PUSH1 0x1 DUP2 MSTORE RETURN JUMPDEST PUSH2 0x419 SWAP1 PUSH2 0x14F5 JUMP JUMPDEST CODESIZE PUSH2 0x408 JUMP JUMPDEST PUSH4 0x4E487B71 PUSH1 0xE0 SHL DUP5 MSTORE PUSH1 0x11 SWAP1 MSTORE PUSH1 0x24 DUP4 REVERT JUMPDEST DUP4 MLOAD PUSH3 0x461BCD PUSH1 0xE5 SHL DUP2 MSTORE SWAP1 DUP2 ADD DUP6 SWAP1 MSTORE PUSH1 0x23 PUSH1 0x24 DUP3 ADD MSTORE PUSH32 0x563453656375726974794D6F64756C653A20616C726561647920636F6E666972 PUSH1 0x44 DUP3 ADD MSTORE PUSH3 0x1B5959 PUSH1 0xEA SHL PUSH1 0x64 DUP3 ADD MSTORE PUSH1 0x84 SWAP1 REVERT JUMPDEST DUP4 MLOAD PUSH3 0x461BCD PUSH1 0xE5 SHL DUP2 MSTORE SWAP1 DUP2 ADD DUP6 SWAP1 MSTORE PUSH1 0x29 PUSH1 0x24 DUP3 ADD MSTORE PUSH32 0x563453656375726974794D6F64756C653A2070726F706F73616C20646F657320 PUSH1 0x44 DUP3 ADD MSTORE PUSH9 0x1B9BDD08195E1A5CDD PUSH1 0xBA SHL PUSH1 0x64 DUP3 ADD MSTORE PUSH1 0x84 SWAP1 REVERT JUMPDEST DUP1 REVERT JUMPDEST SWAP1 POP CALLVALUE PUSH2 0x1D3 JUMPI DUP2 PUSH1 0x3 NOT CALLDATASIZE ADD SLT PUSH2 0x1D3 JUMPI PUSH2 0x4F3 PUSH2 0x126F JUMP JUMPDEST SWAP1 PUSH1 0x24 CALLDATALOAD SWAP2 PUSH8 0xFFFFFFFFFFFFFFFF SWAP2 DUP3 DUP5 GT PUSH2 0x7C1 JUMPI CALLDATASIZE PUSH1 0x23 DUP6 ADD SLT ISZERO PUSH2 0x7C1 JUMPI DUP4 DUP2 ADD CALLDATALOAD SWAP3 DUP4 GT PUSH2 0x7C1 JUMPI CALLDATASIZE PUSH1 0x24 DUP5 DUP7 ADD ADD GT PUSH2 0x7C1 JUMPI DUP6 SLOAD SWAP1 PUSH1 0xFF SWAP4 DUP5 DUP4 PUSH1 0x8 SHR AND ISZERO SWAP4 DUP5 DUP1 SWAP6 PUSH2 0x7B5 JUMPI JUMPDEST DUP1 ISZERO PUSH2 0x79F JUMPI JUMPDEST PUSH2 0x551 SWAP1 PUSH2 0x1383 JUMP JUMPDEST PUSH1 0x1 SWAP6 PUSH1 0xFF NOT SWAP5 DUP7 DUP9 DUP8 DUP4 AND OR DUP13 SSTORE PUSH2 0x78E JUMPI JUMPDEST POP PUSH1 0x20 SWAP8 DUP9 DUP5 SUB PUSH2 0x735 JUMPI SWAP1 PUSH1 0x24 DUP9 SWAP7 SWAP6 SWAP5 SWAP4 SWAP3 ADD CALLDATALOAD SWAP3 DUP10 DUP2 LT PUSH2 0x71F JUMPI JUMPDEST POP DUP11 SLOAD PUSH1 0x8 DUP2 SWAP1 SHR DUP3 AND ISZERO SWAP7 PUSH1 0x1 PUSH1 0x1 PUSH1 0xA0 SHL SUB SWAP5 DUP6 AND SWAP7 PUSH2 0x5DD SWAP4 SWAP3 SWAP2 DUP10 SWAP2 DUP16 SWAP2 SWAP1 DUP4 DUP1 PUSH2 0x714 JUMPI JUMPDEST DUP1 ISZERO PUSH2 0x6FF JUMPI JUMPDEST PUSH2 0x5BE SWAP1 PUSH2 0x1383 JUMP JUMPDEST DUP5 AND OR SWAP1 SSTORE PUSH2 0x6EE JUMPI JUMPDEST POP DUP12 SLOAD PUSH1 0x8 SHR AND PUSH2 0x5D8 DUP2 PUSH2 0x1615 JUMP JUMPDEST PUSH2 0x1615 JUMP JUMPDEST PUSH2 0x5E6 CALLER PUSH2 0x1675 JUMP JUMPDEST PUSH2 0x5EF DUP5 PUSH2 0x1675 JUMP JUMPDEST AND SWAP1 DUP2 ISZERO PUSH2 0x694 JUMPI POP SWAP1 PUSH2 0x615 SWAP2 PUSH1 0x1 PUSH1 0x1 PUSH1 0x60 SHL SUB PUSH1 0xA0 SHL PUSH1 0x65 SLOAD AND OR PUSH1 0x65 SSTORE PUSH2 0x180C JUMP JUMPDEST POP DUP3 PUSH1 0x68 SSTORE PUSH2 0x65E JUMPI JUMPDEST PUSH2 0x627 JUMPI DUP4 DUP1 RETURN JUMPDEST PUSH32 0x7F26B83FF96E1F2B6A682F133852F6798A09C465DA95921460CEFB3847402498 SWAP3 PUSH2 0xFF00 NOT DUP6 SLOAD AND DUP6 SSTORE MLOAD SWAP1 DUP2 MSTORE LOG1 CODESIZE DUP1 DUP1 DUP4 DUP1 RETURN JUMPDEST PUSH2 0xFF00 NOT DUP6 SLOAD AND DUP6 SSTORE PUSH32 0x7F26B83FF96E1F2B6A682F133852F6798A09C465DA95921460CEFB3847402498 DUP4 DUP6 MLOAD DUP5 DUP2 MSTORE LOG1 PUSH2 0x61F JUMP JUMPDEST DUP8 MLOAD PUSH3 0x461BCD PUSH1 0xE5 SHL DUP2 MSTORE SWAP1 DUP2 ADD DUP8 SWAP1 MSTORE PUSH1 0x2E PUSH1 0x24 DUP3 ADD MSTORE PUSH32 0x563453656375726974794D6F64756C653A20746F6B656E206164647265737320 PUSH1 0x44 DUP3 ADD MSTORE PUSH14 0x63616E6E6F74206265207A65726F PUSH1 0x90 SHL PUSH1 0x64 DUP3 ADD MSTORE PUSH1 0x84 SWAP1 REVERT JUMPDEST PUSH2 0xFFFF NOT AND PUSH2 0x101 OR DUP13 SSTORE CODESIZE PUSH2 0x5C8 JUMP JUMPDEST POP ADDRESS EXTCODESIZE ISZERO DUP1 ISZERO PUSH2 0x5B5 JUMPI POP DUP5 DUP7 AND DUP3 EQ PUSH2 0x5B5 JUMP JUMPDEST POP DUP2 DUP7 DUP7 AND LT PUSH2 0x5AE JUMP JUMPDEST PUSH1 0x0 NOT SWAP1 DUP11 SUB PUSH1 0x3 SHL SHL SWAP1 SWAP3 AND SWAP2 PUSH2 0x5DD PUSH2 0x584 JUMP JUMPDEST DUP10 MLOAD PUSH3 0x461BCD PUSH1 0xE5 SHL DUP2 MSTORE DUP1 DUP7 ADD DUP11 SWAP1 MSTORE PUSH1 0x2D PUSH1 0x24 DUP3 ADD MSTORE PUSH32 0x563453656375726974794D6F64756C653A20696E76616C696420696E69746961 PUSH1 0x44 DUP3 ADD MSTORE PUSH13 0x6C697A6174696F6E2064617461 PUSH1 0x98 SHL PUSH1 0x64 DUP3 ADD MSTORE PUSH1 0x84 SWAP1 REVERT JUMPDEST PUSH2 0xFFFF NOT AND PUSH2 0x101 OR DUP11 SSTORE CODESIZE PUSH2 0x565 JUMP JUMPDEST POP ADDRESS EXTCODESIZE ISZERO DUP1 ISZERO PUSH2 0x548 JUMPI POP DUP4 DUP7 AND PUSH1 0x1 EQ PUSH2 0x548 JUMP JUMPDEST POP PUSH1 0x1 DUP7 DUP6 AND LT PUSH2 0x541 JUMP JUMPDEST DUP6 DUP1 REVERT JUMPDEST SWAP1 POP CALLVALUE PUSH2 0x1D3 JUMPI PUSH1 0x20 CALLDATASIZE PUSH1 0x3 NOT ADD SLT PUSH2 0x1D3 JUMPI CALLDATALOAD SWAP1 PUSH4 0xFFFFFFFF PUSH1 0xE0 SHL DUP3 AND DUP1 SWAP3 SUB PUSH2 0x1D3 JUMPI PUSH1 0x20 SWAP3 POP PUSH4 0x21040FC3 PUSH1 0xE0 SHL DUP3 EQ SWAP2 DUP3 ISZERO PUSH2 0x8CA JUMPI JUMPDEST DUP3 ISZERO PUSH2 0x8B9 JUMPI JUMPDEST DUP3 ISZERO PUSH2 0x8A8 JUMPI JUMPDEST DUP3 ISZERO PUSH2 0x897 JUMPI JUMPDEST DUP3 ISZERO PUSH2 0x886 JUMPI JUMPDEST DUP3 ISZERO PUSH2 0x875 JUMPI JUMPDEST DUP3 ISZERO PUSH2 0x864 JUMPI JUMPDEST DUP3 ISZERO PUSH2 0x853 JUMPI JUMPDEST DUP3 ISZERO PUSH2 0x842 JUMPI JUMPDEST POP MLOAD SWAP1 ISZERO ISZERO DUP2 MSTORE RETURN JUMPDEST PUSH4 0x4A4E3BD5 PUSH1 0xE0 SHL EQ SWAP2 POP CODESIZE PUSH2 0x839 JUMP JUMPDEST PUSH4 0x51858E27 PUSH1 0xE0 SHL DUP2 EQ SWAP3 POP PUSH2 0x832 JUMP JUMPDEST PUSH4 0x4A67BCAF PUSH1 0xE1 SHL DUP2 EQ SWAP3 POP PUSH2 0x82B JUMP JUMPDEST PUSH4 0x1CEA46B7 PUSH1 0xE3 SHL DUP2 EQ SWAP3 POP PUSH2 0x824 JUMP JUMPDEST PUSH4 0x7DF73E27 PUSH1 0xE0 SHL DUP2 EQ SWAP3 POP PUSH2 0x81D JUMP JUMPDEST PUSH4 0x2582FF81 PUSH1 0xE2 SHL DUP2 EQ SWAP3 POP PUSH2 0x816 JUMP JUMPDEST PUSH4 0xE316AB7 PUSH1 0xE0 SHL DUP2 EQ SWAP3 POP PUSH2 0x80F JUMP JUMPDEST PUSH4 0x75896B0F PUSH1 0xE1 SHL DUP2 EQ SWAP3 POP PUSH2 0x808 JUMP JUMPDEST PUSH4 0xE5006801 PUSH1 0xE0 SHL DUP2 EQ SWAP3 POP PUSH2 0x801 JUMP JUMPDEST SWAP1 POP DUP3 CALLVALUE PUSH2 0x4D6 JUMPI PUSH1 0x20 CALLDATASIZE PUSH1 0x3 NOT ADD SLT PUSH2 0x4D6 JUMPI POP DUP1 CALLDATALOAD SWAP1 PUSH2 0x8FB PUSH2 0x149D JUMP JUMPDEST DUP2 ISZERO PUSH2 0x998 JUMPI PUSH1 0x66 SLOAD DUP3 GT PUSH2 0x949 JUMPI PUSH1 0x20 DUP4 PUSH32 0x3164947CF0F49F08DD0CD80E671535B1E11590D347C55DCAA97BA3C24A96B33A DUP2 DUP6 PUSH1 0x68 SLOAD SWAP1 DUP1 PUSH1 0x68 SSTORE DUP3 MLOAD SWAP2 DUP3 MSTORE DUP6 DUP3 ADD MSTORE LOG1 MLOAD PUSH1 0x1 DUP2 MSTORE RETURN JUMPDEST PUSH1 0x84 SWAP1 PUSH1 0x20 DUP5 MLOAD SWAP2 PUSH3 0x461BCD PUSH1 0xE5 SHL DUP4 MSTORE DUP3 ADD MSTORE PUSH1 0x24 DUP1 DUP3 ADD MSTORE PUSH32 0x563453656375726974794D6F64756C653A207468726573686F6C6420746F6F20 PUSH1 0x44 DUP3 ADD MSTORE PUSH4 0xD0D2CED PUSH1 0xE3 SHL PUSH1 0x64 DUP3 ADD MSTORE REVERT JUMPDEST PUSH1 0x84 SWAP1 PUSH1 0x20 DUP5 MLOAD SWAP2 PUSH3 0x461BCD PUSH1 0xE5 SHL DUP4 MSTORE DUP3 ADD MSTORE PUSH1 0x2A PUSH1 0x24 DUP3 ADD MSTORE PUSH32 0x563453656375726974794D6F64756C653A207468726573686F6C642063616E6E PUSH1 0x44 DUP3 ADD MSTORE PUSH10 0x6F74206265207A65726F PUSH1 0xB0 SHL PUSH1 0x64 DUP3 ADD MSTORE REVERT JUMPDEST DUP4 SWAP2 POP CALLVALUE PUSH2 0x13D JUMPI DUP2 PUSH1 0x3 NOT CALLDATASIZE ADD SLT PUSH2 0x13D JUMPI DUP3 SWAP1 PUSH1 0x66 SWAP3 PUSH1 0x66 SLOAD SWAP2 PUSH2 0xA13 DUP4 PUSH2 0x1485 JUMP JUMPDEST SWAP1 PUSH2 0xA20 DUP6 MLOAD SWAP3 DUP4 PUSH2 0x12BC JUMP JUMPDEST DUP4 DUP3 MSTORE PUSH2 0xA2C DUP5 PUSH2 0x1485 JUMP JUMPDEST PUSH1 0x20 SWAP7 DUP4 DUP9 ADD SWAP6 SWAP2 PUSH1 0x1F NOT ADD CALLDATASIZE DUP8 CALLDATACOPY DUP5 JUMPDEST DUP3 DUP2 LT PUSH2 0xA8C JUMPI POP POP POP POP DUP4 MLOAD SWAP5 DUP6 SWAP5 DUP2 DUP7 ADD SWAP3 DUP3 DUP8 MSTORE MLOAD DUP1 SWAP4 MSTORE DUP6 ADD SWAP4 SWAP3 JUMPDEST DUP3 DUP2 LT PUSH2 0xA6C JUMPI POP POP POP POP SUB SWAP1 RETURN JUMPDEST DUP4 MLOAD PUSH1 0x1 PUSH1 0x1 PUSH1 0xA0 SHL SUB AND DUP6 MSTORE DUP7 SWAP6 POP SWAP4 DUP2 ADD SWAP4 SWAP3 DUP2 ADD SWAP3 PUSH1 0x1 ADD PUSH2 0xA5D JUMP JUMPDEST DUP2 DUP7 SWAP6 SWAP8 SWAP9 SWAP10 SWAP7 MSTORE PUSH1 0x1 DUP1 PUSH1 0xA0 SHL SUB DUP2 PUSH32 0x46501879B8CA8525E8C2FD519E2FBFCFA2EBEA26501294AA02CBFCFB12E94354 ADD SLOAD AND DUP8 MLOAD DUP3 LT ISZERO PUSH2 0xAE1 JUMPI PUSH1 0x5 DUP3 SWAP1 SHL DUP9 ADD DUP8 ADD MSTORE SWAP5 SWAP8 SWAP7 SWAP6 SWAP4 SWAP5 PUSH1 0x1 ADD PUSH2 0xA3D JUMP JUMPDEST PUSH4 0x4E487B71 PUSH1 0xE0 SHL DUP7 MSTORE PUSH1 0x32 DUP6 MSTORE PUSH1 0x24 DUP7 REVERT JUMPDEST POP POP CALLVALUE PUSH2 0x13D JUMPI DUP2 PUSH1 0x3 NOT CALLDATASIZE ADD SLT PUSH2 0x13D JUMPI PUSH1 0x33 SLOAD SWAP1 MLOAD PUSH1 0x1 PUSH1 0x1 PUSH1 0xA0 SHL SUB SWAP1 SWAP2 AND DUP2 MSTORE PUSH1 0x20 SWAP1 RETURN JUMPDEST POP POP CALLVALUE PUSH2 0x13D JUMPI PUSH1 0x20 CALLDATASIZE PUSH1 0x3 NOT ADD SLT PUSH2 0x13D JUMPI PUSH1 0x20 SWAP1 PUSH2 0xB5A PUSH1 0x1 PUSH1 0x1 PUSH1 0xA0 SHL SUB PUSH2 0xB46 PUSH2 0x126F JUMP JUMPDEST AND PUSH1 0x0 MSTORE PUSH1 0x67 PUSH1 0x20 MSTORE PUSH1 0x40 PUSH1 0x0 KECCAK256 SLOAD ISZERO ISZERO SWAP1 JUMP JUMPDEST SWAP1 MLOAD SWAP1 ISZERO ISZERO DUP2 MSTORE RETURN JUMPDEST DUP4 CALLVALUE PUSH2 0x4D6 JUMPI DUP1 PUSH1 0x3 NOT CALLDATASIZE ADD SLT PUSH2 0x4D6 JUMPI PUSH2 0xB7C PUSH2 0x149D JUMP JUMPDEST PUSH1 0x33 DUP1 SLOAD PUSH1 0x1 PUSH1 0x1 PUSH1 0xA0 SHL SUB NOT DUP2 AND SWAP1 SWAP2 SSTORE DUP2 SWAP1 PUSH1 0x1 PUSH1 0x1 PUSH1 0xA0 SHL SUB AND PUSH32 0x8BE0079C531659141344CD1FD0A4F28419497F9722A3DAAFE3B4186F6B6457E0 DUP3 DUP1 LOG3 DUP1 RETURN JUMPDEST SWAP1 POP CALLVALUE PUSH2 0x1D3 JUMPI DUP3 PUSH1 0x3 NOT CALLDATASIZE ADD SLT PUSH2 0x1D3 JUMPI SWAP2 DUP1 PUSH2 0xC37 SWAP4 PUSH2 0xBF2 PUSH2 0x35E CALLER PUSH1 0x0 MSTORE PUSH1 0x67 PUSH1 0x20 MSTORE PUSH1 0x40 PUSH1 0x0 KECCAK256 SLOAD ISZERO ISZERO SWAP1 JUMP JUMPDEST DUP4 MLOAD PUSH4 0x8456CB59 PUSH1 0xE0 SHL PUSH1 0x20 DUP3 ADD MSTORE DUP2 DUP2 MSTORE SWAP1 DUP3 SWAP1 PUSH2 0xC10 DUP4 PUSH2 0x128A JUMP JUMPDEST PUSH1 0x1 DUP1 PUSH1 0xA0 SHL SUB PUSH1 0x65 SLOAD AND SWAP2 DUP3 SWAP2 DUP8 MLOAD SWAP9 DUP10 SWAP6 DUP7 SWAP5 DUP6 SWAP4 PUSH3 0xAC0F6F PUSH1 0xE7 SHL DUP6 MSTORE DUP5 ADD PUSH2 0x1463 JUMP JUMPDEST SUB SWAP3 GAS CALL SWAP3 DUP4 ISZERO PUSH2 0xC9B JUMPI PUSH1 0x20 SWAP4 PUSH2 0xC7B JUMPI JUMPDEST POP POP PUSH32 0xB8FAD2FA0ED7A383E747C309EF2C4391D7B65592A48893E57CCC1FAB70791456 DUP3 DUP3 MLOAD CALLER DUP2 MSTORE LOG1 MLOAD PUSH1 0x1 DUP2 MSTORE RETURN JUMPDEST PUSH2 0xC96 SWAP2 RETURNDATASIZE DUP1 SWAP2 DUP4 RETURNDATACOPY PUSH2 0xC8E DUP2 DUP4 PUSH2 0x12BC JUMP JUMPDEST DUP2 ADD SWAP1 PUSH2 0x13E6 JUMP JUMPDEST PUSH2 0xC4A JUMP JUMPDEST POP SWAP1 MLOAD SWAP1 RETURNDATASIZE SWAP1 DUP3 RETURNDATACOPY RETURNDATASIZE SWAP1 REVERT JUMPDEST SWAP1 POP CALLVALUE PUSH2 0x1D3 JUMPI DUP3 PUSH1 0x3 NOT CALLDATASIZE ADD SLT PUSH2 0x1D3 JUMPI SWAP2 DUP1 PUSH2 0xCF7 SWAP4 PUSH2 0xCD9 PUSH2 0x35E CALLER PUSH1 0x0 MSTORE PUSH1 0x67 PUSH1 0x20 MSTORE PUSH1 0x40 PUSH1 0x0 KECCAK256 SLOAD ISZERO ISZERO SWAP1 JUMP JUMPDEST DUP4 MLOAD PUSH4 0x1FA5D41D PUSH1 0xE1 SHL PUSH1 0x20 DUP3 ADD MSTORE DUP2 DUP2 MSTORE SWAP1 DUP3 SWAP1 PUSH2 0xC10 DUP4 PUSH2 0x128A JUMP JUMPDEST SUB SWAP3 GAS CALL SWAP3 DUP4 ISZERO PUSH2 0xC9B JUMPI PUSH1 0x20 SWAP4 PUSH2 0xD3B JUMPI JUMPDEST POP POP PUSH32 0xF5CBF596165CC457B2CD92E8D8450827EE314968160A5696402D75766FC52CAF DUP3 DUP3 MLOAD CALLER DUP2 MSTORE LOG1 MLOAD PUSH1 0x1 DUP2 MSTORE RETURN JUMPDEST PUSH2 0xD4E SWAP2 RETURNDATASIZE DUP1 SWAP2 DUP4 RETURNDATACOPY PUSH2 0xC8E DUP2 DUP4 PUSH2 0x12BC JUMP JUMPDEST PUSH2 0xD0A JUMP JUMPDEST SWAP1 POP CALLVALUE PUSH2 0x1D3 JUMPI DUP2 PUSH1 0x3 NOT CALLDATASIZE ADD SLT PUSH2 0x1D3 JUMPI PUSH2 0xD6D PUSH2 0x126F JUMP JUMPDEST PUSH1 0x24 CALLDATALOAD SWAP2 PUSH1 0x1 PUSH1 0x1 PUSH1 0xA0 SHL SUB DUP1 DUP5 AND SWAP3 DUP4 DUP6 SUB PUSH2 0xED7 JUMPI PUSH2 0xDDE DUP8 SLOAD SWAP6 PUSH1 0xFF DUP8 PUSH1 0x8 SHR AND ISZERO SWAP7 DUP8 DUP1 SWAP9 PUSH2 0xECA JUMPI JUMPDEST DUP1 ISZERO PUSH2 0xEB3 JUMPI JUMPDEST PUSH2 0xDAB SWAP1 PUSH2 0x1383 JUMP JUMPDEST PUSH1 0xFF NOT DUP2 AND PUSH1 0x1 OR DUP11 SSTORE DUP8 PUSH2 0xEA2 JUMPI JUMPDEST POP PUSH2 0xDD0 PUSH1 0xFF DUP11 SLOAD PUSH1 0x8 SHR AND PUSH2 0x5D8 DUP2 PUSH2 0x1615 JUMP JUMPDEST PUSH2 0xDD9 CALLER PUSH2 0x1675 JUMP JUMPDEST PUSH2 0x1675 JUMP JUMPDEST AND SWAP1 DUP2 ISZERO PUSH2 0xE48 JUMPI POP SWAP1 PUSH2 0xE04 SWAP2 PUSH1 0x1 PUSH1 0x1 PUSH1 0x60 SHL SUB PUSH1 0xA0 SHL PUSH1 0x65 SLOAD AND OR PUSH1 0x65 SSTORE PUSH2 0x180C JUMP JUMPDEST POP PUSH1 0x1 PUSH1 0x68 SSTORE PUSH2 0xE12 JUMPI POP DUP1 RETURN JUMPDEST PUSH1 0x20 PUSH32 0x7F26B83FF96E1F2B6A682F133852F6798A09C465DA95921460CEFB3847402498 SWAP2 PUSH2 0xFF00 NOT DUP5 SLOAD AND DUP5 SSTORE MLOAD PUSH1 0x1 DUP2 MSTORE LOG1 DUP1 RETURN JUMPDEST PUSH1 0x84 SWAP1 PUSH1 0x20 DUP7 MLOAD SWAP2 PUSH3 0x461BCD PUSH1 0xE5 SHL DUP4 MSTORE DUP3 ADD MSTORE PUSH1 0x2E PUSH1 0x24 DUP3 ADD MSTORE PUSH32 0x563453656375726974794D6F64756C653A20746F6B656E206164647265737320 PUSH1 0x44 DUP3 ADD MSTORE PUSH14 0x63616E6E6F74206265207A65726F PUSH1 0x90 SHL PUSH1 0x64 DUP3 ADD MSTORE REVERT JUMPDEST PUSH2 0xFFFF NOT AND PUSH2 0x101 OR DUP10 SSTORE CODESIZE PUSH2 0xDBB JUMP JUMPDEST POP ADDRESS EXTCODESIZE ISZERO DUP1 ISZERO PUSH2 0xDA2 JUMPI POP PUSH1 0xFF DUP2 AND PUSH1 0x1 EQ PUSH2 0xDA2 JUMP JUMPDEST POP PUSH1 0x1 PUSH1 0xFF DUP3 AND LT PUSH2 0xD9B JUMP JUMPDEST DUP7 DUP1 REVERT JUMPDEST POP POP CALLVALUE PUSH2 0x13D JUMPI DUP2 PUSH1 0x3 NOT CALLDATASIZE ADD SLT PUSH2 0x13D JUMPI PUSH1 0x65 SLOAD SWAP1 MLOAD PUSH1 0x1 PUSH1 0x1 PUSH1 0xA0 SHL SUB SWAP1 SWAP2 AND DUP2 MSTORE PUSH1 0x20 SWAP1 RETURN JUMPDEST SWAP2 SWAP1 POP CALLVALUE PUSH2 0x1D3 JUMPI PUSH1 0x20 SWAP3 DUP4 PUSH1 0x3 NOT CALLDATASIZE ADD SLT PUSH2 0x4D6 JUMPI PUSH2 0xF22 PUSH2 0x126F JUMP JUMPDEST PUSH2 0xF3C PUSH2 0x35E CALLER PUSH1 0x0 MSTORE PUSH1 0x67 PUSH1 0x20 MSTORE PUSH1 0x40 PUSH1 0x0 KECCAK256 SLOAD ISZERO ISZERO SWAP1 JUMP JUMPDEST PUSH1 0x1 PUSH1 0x1 PUSH1 0xA0 SHL SUB DUP2 AND SWAP4 DUP5 ISZERO PUSH2 0x1055 JUMPI DUP4 MLOAD SWAP1 DUP7 DUP3 ADD SWAP3 PUSH1 0x1 PUSH1 0x1 PUSH1 0x60 SHL SUB NOT SWAP1 PUSH1 0x60 SHL AND DUP4 MSTORE TIMESTAMP PUSH1 0x34 DUP4 ADD MSTORE CALLER PUSH1 0x60 SHL PUSH1 0x54 DUP4 ADD MSTORE PUSH1 0x48 DUP3 MSTORE PUSH1 0x80 DUP3 ADD SWAP1 DUP3 DUP3 LT PUSH8 0xFFFFFFFFFFFFFFFF DUP4 GT OR PUSH2 0x1042 JUMPI POP DUP5 MSTORE MLOAD SWAP1 KECCAK256 DUP1 DUP3 MSTORE PUSH1 0x69 DUP6 MSTORE DUP3 DUP3 KECCAK256 DUP1 SLOAD PUSH1 0x1 PUSH1 0x1 PUSH1 0xA0 SHL SUB NOT AND DUP6 OR SWAP1 SSTORE PUSH1 0x6A DUP6 MSTORE DUP3 DUP3 KECCAK256 CALLER DUP4 MSTORE DUP6 MSTORE DUP3 DUP3 KECCAK256 DUP1 SLOAD PUSH1 0xFF NOT AND PUSH1 0x1 SWAP1 DUP2 OR SWAP1 SWAP2 SSTORE DUP2 DUP4 MSTORE PUSH1 0x6B DUP7 MSTORE DUP4 DUP4 KECCAK256 SSTORE SWAP3 DUP4 PUSH32 0xE5A786F1012D2DBA581F6365AFD7FC150AC07BFF2DFAC303ECDD70F090D79CDA DUP4 DUP1 LOG3 DUP3 PUSH32 0xDF80324D9A2671F608AD6F7256BF79DF613191679B5509C808735B25FBC37896 CALLER SWAP3 DUP1 LOG3 PUSH1 0x1 PUSH1 0x68 SLOAD EQ PUSH2 0x1034 JUMPI JUMPDEST MLOAD SWAP1 DUP2 MSTORE RETURN JUMPDEST PUSH2 0x103D DUP3 PUSH2 0x14F5 JUMP JUMPDEST PUSH2 0x102E JUMP JUMPDEST PUSH4 0x4E487B71 PUSH1 0xE0 SHL DUP6 MSTORE PUSH1 0x41 SWAP1 MSTORE PUSH1 0x24 DUP5 REVERT JUMPDEST DUP4 MLOAD PUSH3 0x461BCD PUSH1 0xE5 SHL DUP2 MSTORE SWAP1 DUP2 ADD DUP7 SWAP1 MSTORE PUSH1 0x32 PUSH1 0x24 DUP3 ADD MSTORE PUSH32 0x563453656375726974794D6F64756C653A206E6577206F776E65722063616E6E PUSH1 0x44 DUP3 ADD MSTORE PUSH18 0x6F74206265207A65726F2061646472657373 PUSH1 0x70 SHL PUSH1 0x64 DUP3 ADD MSTORE PUSH1 0x84 SWAP1 REVERT JUMPDEST DUP4 SWAP2 POP CALLVALUE PUSH2 0x13D JUMPI PUSH1 0x20 CALLDATASIZE PUSH1 0x3 NOT ADD SLT PUSH2 0x13D JUMPI PUSH2 0x10CF PUSH2 0x126F JUMP JUMPDEST SWAP1 PUSH2 0x10D8 PUSH2 0x149D JUMP JUMPDEST PUSH1 0x1 PUSH1 0x1 PUSH1 0xA0 SHL SUB SWAP2 DUP3 AND PUSH1 0x0 DUP2 DUP2 MSTORE PUSH1 0x67 PUSH1 0x20 MSTORE PUSH1 0x40 SWAP1 KECCAK256 SLOAD SWAP1 SWAP3 SWAP1 ISZERO PUSH2 0x11E2 JUMPI PUSH1 0x66 SLOAD PUSH1 0x68 SLOAD LT ISZERO PUSH2 0x118F JUMPI PUSH1 0x33 SLOAD AND DUP3 EQ PUSH2 0x113E JUMPI POP PUSH32 0x3525E22824A8A7DF2C9A6029941C824CF95B6447F1E13D5128FD3826D35AFE8B PUSH1 0x20 SWAP4 PUSH2 0x254 DUP4 PUSH2 0x170B JUMP JUMPDEST PUSH1 0x84 SWAP1 PUSH1 0x20 DUP6 MLOAD SWAP2 PUSH3 0x461BCD PUSH1 0xE5 SHL DUP4 MSTORE DUP3 ADD MSTORE PUSH1 0x25 PUSH1 0x24 DUP3 ADD MSTORE PUSH32 0x563453656375726974794D6F64756C653A2063616E6E6F742072656D6F766520 PUSH1 0x44 DUP3 ADD MSTORE PUSH5 0x37BBB732B9 PUSH1 0xD9 SHL PUSH1 0x64 DUP3 ADD MSTORE REVERT JUMPDEST DUP5 MLOAD PUSH3 0x461BCD PUSH1 0xE5 SHL DUP2 MSTORE PUSH1 0x20 DUP2 DUP5 ADD MSTORE PUSH1 0x27 PUSH1 0x24 DUP3 ADD MSTORE PUSH32 0x563453656375726974794D6F64756C653A20776F756C6420627265616B207468 PUSH1 0x44 DUP3 ADD MSTORE PUSH7 0x1C995CDA1BDB19 PUSH1 0xCA SHL PUSH1 0x64 DUP3 ADD MSTORE PUSH1 0x84 SWAP1 REVERT JUMPDEST DUP5 MLOAD PUSH3 0x461BCD PUSH1 0xE5 SHL DUP2 MSTORE PUSH1 0x20 DUP2 DUP5 ADD MSTORE PUSH1 0x27 PUSH1 0x24 DUP3 ADD MSTORE PUSH32 0x563453656375726974794D6F64756C653A207369676E657220646F6573206E6F PUSH1 0x44 DUP3 ADD MSTORE PUSH7 0x1D08195E1A5CDD PUSH1 0xCA SHL PUSH1 0x64 DUP3 ADD MSTORE PUSH1 0x84 SWAP1 REVERT JUMPDEST DUP5 SWAP1 CALLVALUE PUSH2 0x13D JUMPI DUP2 PUSH1 0x3 NOT CALLDATASIZE ADD SLT PUSH2 0x13D JUMPI DUP1 PUSH32 0xE8DFD5EDBAFE3B1A04DB54003F904CFC4610E36B1414906E3F2255BD826E13CF PUSH1 0x20 SWAP3 MSTORE RETURN JUMPDEST PUSH1 0x4 CALLDATALOAD SWAP1 PUSH1 0x1 PUSH1 0x1 PUSH1 0xA0 SHL SUB DUP3 AND DUP3 SUB PUSH2 0x1285 JUMPI JUMP JUMPDEST PUSH1 0x0 DUP1 REVERT JUMPDEST PUSH1 0x40 DUP2 ADD SWAP1 DUP2 LT PUSH8 0xFFFFFFFFFFFFFFFF DUP3 GT OR PUSH2 0x12A6 JUMPI PUSH1 0x40 MSTORE JUMP JUMPDEST PUSH4 0x4E487B71 PUSH1 0xE0 SHL PUSH1 0x0 MSTORE PUSH1 0x41 PUSH1 0x4 MSTORE PUSH1 0x24 PUSH1 0x0 REVERT JUMPDEST SWAP1 PUSH1 0x1F DUP1 NOT SWAP2 ADD AND DUP2 ADD SWAP1 DUP2 LT PUSH8 0xFFFFFFFFFFFFFFFF DUP3 GT OR PUSH2 0x12A6 JUMPI PUSH1 0x40 MSTORE JUMP JUMPDEST PUSH1 0x0 JUMPDEST DUP4 DUP2 LT PUSH2 0x12F1 JUMPI POP POP PUSH1 0x0 SWAP2 ADD MSTORE JUMP JUMPDEST DUP2 DUP2 ADD MLOAD DUP4 DUP3 ADD MSTORE PUSH1 0x20 ADD PUSH2 0x12E1 JUMP JUMPDEST SWAP1 PUSH1 0x20 SWAP2 PUSH2 0x131A DUP2 MLOAD DUP1 SWAP3 DUP2 DUP6 MSTORE DUP6 DUP1 DUP7 ADD SWAP2 ADD PUSH2 0x12DE JUMP JUMPDEST PUSH1 0x1F ADD PUSH1 0x1F NOT AND ADD ADD SWAP1 JUMP JUMPDEST ISZERO PUSH2 0x132D JUMPI JUMP JUMPDEST PUSH1 0x40 MLOAD PUSH3 0x461BCD PUSH1 0xE5 SHL DUP2 MSTORE PUSH1 0x20 PUSH1 0x4 DUP3 ADD MSTORE PUSH1 0x28 PUSH1 0x24 DUP3 ADD MSTORE PUSH32 0x563453656375726974794D6F64756C653A2063616C6C6572206973206E6F7420 PUSH1 0x44 DUP3 ADD MSTORE PUSH8 0x309039B4B3B732B9 PUSH1 0xC1 SHL PUSH1 0x64 DUP3 ADD MSTORE PUSH1 0x84 SWAP1 REVERT JUMPDEST ISZERO PUSH2 0x138A JUMPI JUMP JUMPDEST PUSH1 0x40 MLOAD PUSH3 0x461BCD PUSH1 0xE5 SHL DUP2 MSTORE PUSH1 0x20 PUSH1 0x4 DUP3 ADD MSTORE PUSH1 0x2E PUSH1 0x24 DUP3 ADD MSTORE PUSH32 0x496E697469616C697A61626C653A20636F6E747261637420697320616C726561 PUSH1 0x44 DUP3 ADD MSTORE PUSH14 0x191E481A5B9A5D1A585B1A5E9959 PUSH1 0x92 SHL PUSH1 0x64 DUP3 ADD MSTORE PUSH1 0x84 SWAP1 REVERT JUMPDEST SWAP2 SWAP1 PUSH1 0x40 DUP4 DUP3 SUB SLT PUSH2 0x1285 JUMPI DUP3 MLOAD DUP1 ISZERO ISZERO DUP2 SUB PUSH2 0x1285 JUMPI SWAP3 PUSH1 0x20 DUP2 ADD MLOAD PUSH8 0xFFFFFFFFFFFFFFFF SWAP2 DUP3 DUP3 GT PUSH2 0x1285 JUMPI ADD SWAP1 DUP3 PUSH1 0x1F DUP4 ADD SLT ISZERO PUSH2 0x1285 JUMPI DUP2 MLOAD SWAP1 DUP2 GT PUSH2 0x12A6 JUMPI PUSH1 0x40 MLOAD SWAP3 PUSH2 0x1442 PUSH1 0x1F DUP4 ADD PUSH1 0x1F NOT AND PUSH1 0x20 ADD DUP6 PUSH2 0x12BC JUMP JUMPDEST DUP2 DUP5 MSTORE PUSH1 0x20 DUP3 DUP5 ADD ADD GT PUSH2 0x1285 JUMPI PUSH2 0x1460 SWAP2 PUSH1 0x20 DUP1 DUP6 ADD SWAP2 ADD PUSH2 0x12DE JUMP JUMPDEST SWAP1 JUMP JUMPDEST PUSH1 0x1 PUSH1 0x1 PUSH1 0xA0 SHL SUB SWAP1 SWAP2 AND DUP2 MSTORE PUSH1 0x40 PUSH1 0x20 DUP3 ADD DUP2 SWAP1 MSTORE PUSH2 0x1460 SWAP3 SWAP2 ADD SWAP1 PUSH2 0x1301 JUMP JUMPDEST PUSH8 0xFFFFFFFFFFFFFFFF DUP2 GT PUSH2 0x12A6 JUMPI PUSH1 0x5 SHL PUSH1 0x20 ADD SWAP1 JUMP JUMPDEST PUSH1 0x33 SLOAD PUSH1 0x1 PUSH1 0x1 PUSH1 0xA0 SHL SUB AND CALLER SUB PUSH2 0x14B1 JUMPI JUMP JUMPDEST PUSH1 0x64 PUSH1 0x40 MLOAD PUSH3 0x461BCD PUSH1 0xE5 SHL DUP2 MSTORE PUSH1 0x20 PUSH1 0x4 DUP3 ADD MSTORE PUSH1 0x20 PUSH1 0x24 DUP3 ADD MSTORE PUSH32 0x4F776E61626C653A2063616C6C6572206973206E6F7420746865206F776E6572 PUSH1 0x44 DUP3 ADD MSTORE REVERT JUMPDEST PUSH1 0x0 DUP2 DUP2 MSTORE PUSH1 0x69 PUSH1 0x20 MSTORE PUSH1 0x40 DUP2 KECCAK256 SLOAD PUSH1 0x33 SLOAD PUSH1 0x1 PUSH1 0x1 PUSH1 0xA0 SHL SUB SWAP5 SWAP4 SWAP2 DUP6 AND SWAP3 SWAP1 DUP6 AND SWAP2 PUSH2 0x1522 DUP5 PUSH2 0x1675 JUMP JUMPDEST PUSH1 0x40 MLOAD PUSH4 0xF2FDE38B PUSH1 0xE0 SHL PUSH1 0x20 DUP3 ADD MSTORE PUSH1 0x24 DUP1 DUP3 ADD DUP7 SWAP1 MSTORE DUP2 MSTORE PUSH1 0x60 DUP2 ADD SWAP7 PUSH8 0xFFFFFFFFFFFFFFFF DUP9 GT DUP3 DUP10 LT OR PUSH2 0x1601 JUMPI PUSH1 0x40 DUP9 SWAP1 MSTORE PUSH1 0x65 SLOAD PUSH3 0xAC0F6F PUSH1 0xE7 SHL DUP10 MSTORE DUP5 SWAP2 DUP10 SWAP2 AND DUP2 DUP4 PUSH1 0x5F NOT DUP7 PUSH2 0x157E DUP2 DUP7 PUSH1 0x64 DUP3 ADD PUSH2 0x1463 JUMP JUMPDEST SUB ADD SWAP3 GAS CALL SWAP7 DUP8 ISZERO PUSH2 0x15F6 JUMPI PUSH32 0x8BE0079C531659141344CD1FD0A4F28419497F9722A3DAAFE3B4186F6B6457E0 SWAP5 SWAP6 SWAP7 SWAP8 PUSH2 0x15D3 JUMPI JUMPDEST POP POP DUP2 MSTORE PUSH1 0x69 PUSH1 0x20 MSTORE PUSH1 0x40 DUP2 KECCAK256 DUP1 SLOAD PUSH1 0x1 PUSH1 0x1 PUSH1 0xA0 SHL SUB NOT AND SWAP1 SSTORE DUP1 LOG3 JUMP JUMPDEST PUSH1 0x60 PUSH2 0x15F1 SWAP3 RETURNDATASIZE SWAP1 DUP2 DUP8 DUP6 RETURNDATACOPY PUSH2 0x15E9 DUP3 DUP6 PUSH2 0x12BC JUMP JUMPDEST ADD ADD SWAP1 PUSH2 0x13E6 JUMP JUMPDEST PUSH2 0x15B4 JUMP JUMPDEST PUSH1 0x40 MLOAD RETURNDATASIZE DUP6 DUP3 RETURNDATACOPY RETURNDATASIZE SWAP1 REVERT JUMPDEST PUSH4 0x4E487B71 PUSH1 0xE0 SHL DUP5 MSTORE PUSH1 0x41 PUSH1 0x4 MSTORE PUSH1 0x24 DUP5 REVERT JUMPDEST ISZERO PUSH2 0x161C JUMPI JUMP JUMPDEST PUSH1 0x40 MLOAD PUSH3 0x461BCD PUSH1 0xE5 SHL DUP2 MSTORE PUSH1 0x20 PUSH1 0x4 DUP3 ADD MSTORE PUSH1 0x2B PUSH1 0x24 DUP3 ADD MSTORE PUSH32 0x496E697469616C697A61626C653A20636F6E7472616374206973206E6F742069 PUSH1 0x44 DUP3 ADD MSTORE PUSH11 0x6E697469616C697A696E67 PUSH1 0xA8 SHL PUSH1 0x64 DUP3 ADD MSTORE PUSH1 0x84 SWAP1 REVERT JUMPDEST PUSH1 0x33 DUP1 SLOAD PUSH1 0x1 PUSH1 0x1 PUSH1 0xA0 SHL SUB SWAP3 DUP4 AND PUSH1 0x1 PUSH1 0x1 PUSH1 0xA0 SHL SUB NOT DUP3 AND DUP2 OR SWAP1 SWAP3 SSTORE SWAP1 SWAP2 AND PUSH32 0x8BE0079C531659141344CD1FD0A4F28419497F9722A3DAAFE3B4186F6B6457E0 PUSH1 0x0 DUP1 LOG3 JUMP JUMPDEST PUSH1 0x66 SLOAD DUP2 LT ISZERO PUSH2 0x16F5 JUMPI PUSH1 0x66 PUSH1 0x0 MSTORE PUSH32 0x46501879B8CA8525E8C2FD519E2FBFCFA2EBEA26501294AA02CBFCFB12E94354 ADD SWAP1 PUSH1 0x0 SWAP1 JUMP JUMPDEST PUSH4 0x4E487B71 PUSH1 0xE0 SHL PUSH1 0x0 MSTORE PUSH1 0x32 PUSH1 0x4 MSTORE PUSH1 0x24 PUSH1 0x0 REVERT JUMPDEST PUSH1 0x0 DUP2 DUP2 MSTORE PUSH1 0x67 PUSH1 0x20 MSTORE PUSH1 0x40 DUP2 KECCAK256 SLOAD SWAP1 SWAP2 SWAP1 DUP1 ISZERO PUSH2 0x1807 JUMPI PUSH1 0x0 NOT SWAP1 DUP1 DUP3 ADD DUP2 DUP2 GT PUSH2 0x17F3 JUMPI PUSH1 0x66 SLOAD SWAP1 DUP4 DUP3 ADD SWAP2 DUP3 GT PUSH2 0x17DF JUMPI DUP1 DUP3 SUB PUSH2 0x1794 JUMPI JUMPDEST POP POP POP PUSH1 0x66 SLOAD DUP1 ISZERO PUSH2 0x1780 JUMPI DUP2 ADD SWAP1 PUSH2 0x175F DUP3 PUSH2 0x16BE JUMP JUMPDEST SWAP1 SWAP2 DUP3 SLOAD SWAP2 PUSH1 0x3 SHL SHL NOT AND SWAP1 SSTORE PUSH1 0x66 SSTORE DUP2 MSTORE PUSH1 0x67 PUSH1 0x20 MSTORE PUSH1 0x40 DUP2 KECCAK256 SSTORE PUSH1 0x1 SWAP1 JUMP JUMPDEST PUSH4 0x4E487B71 PUSH1 0xE0 SHL DUP5 MSTORE PUSH1 0x31 PUSH1 0x4 MSTORE PUSH1 0x24 DUP5 REVERT JUMPDEST PUSH2 0x17C9 PUSH2 0x17A3 PUSH2 0x17B2 SWAP4 PUSH2 0x16BE JUMP JUMPDEST SWAP1 SLOAD SWAP1 PUSH1 0x3 SHL SHR SWAP3 DUP4 SWAP3 PUSH2 0x16BE JUMP JUMPDEST DUP2 SWAP4 SWAP2 SLOAD SWAP1 PUSH1 0x3 SHL SWAP2 DUP3 SHL SWAP2 PUSH1 0x0 NOT SWAP1 SHL NOT AND OR SWAP1 JUMP JUMPDEST SWAP1 SSTORE DUP5 MSTORE PUSH1 0x67 PUSH1 0x20 MSTORE PUSH1 0x40 DUP5 KECCAK256 SSTORE CODESIZE DUP1 DUP1 PUSH2 0x1747 JUMP JUMPDEST PUSH4 0x4E487B71 PUSH1 0xE0 SHL DUP7 MSTORE PUSH1 0x11 PUSH1 0x4 MSTORE PUSH1 0x24 DUP7 REVERT JUMPDEST PUSH4 0x4E487B71 PUSH1 0xE0 SHL DUP6 MSTORE PUSH1 0x11 PUSH1 0x4 MSTORE PUSH1 0x24 DUP6 REVERT JUMPDEST POP POP SWAP1 JUMP JUMPDEST PUSH1 0x0 DUP2 DUP2 MSTORE PUSH1 0x67 PUSH1 0x20 MSTORE PUSH1 0x40 DUP2 KECCAK256 SLOAD PUSH2 0x1872 JUMPI PUSH1 0x66 SLOAD PUSH9 0x10000000000000000 DUP2 LT ISZERO PUSH2 0x185E JUMPI SWAP1 DUP3 PUSH2 0x184A PUSH2 0x17B2 DUP5 PUSH1 0x1 PUSH1 0x40 SWAP7 ADD PUSH1 0x66 SSTORE PUSH2 0x16BE JUMP JUMPDEST SWAP1 SSTORE PUSH1 0x66 SLOAD SWAP3 DUP2 MSTORE PUSH1 0x67 PUSH1 0x20 MSTORE KECCAK256 SSTORE PUSH1 0x1 SWAP1 JUMP JUMPDEST PUSH4 0x4E487B71 PUSH1 0xE0 SHL DUP3 MSTORE PUSH1 0x41 PUSH1 0x4 MSTORE PUSH1 0x24 DUP3 REVERT JUMPDEST SWAP1 POP SWAP1 JUMP INVALID LOG2 PUSH5 0x6970667358 0x22 SLT KECCAK256 STOP EXP 0x4F SWAP11 PUSH18 0x5DD47E8A1E81A93CD83FC3CA6BF6D8773CF2 0xEA 0xE8 TIMESTAMP PUSH14 0xAD7A13824B64736F6C6343000816 STOP CALLER "},"gasEstimates":{"creation":{"codeDepositCost":"1263400","executionCost":"26657","totalCost":"1290057"},"external":{"VERSION()":"infinite","addSigner(address)":"83316","confirmOwnershipTransfer(bytes32)":"infinite","emergencyPause()":"infinite","emergencyUnpause()":"infinite","getModuleType()":"171","getSigners()":"infinite","getThreshold()":"2610","getToken()":"2367","initialize(address,address)":"infinite","initialize(address,bytes)":"infinite","isSigner(address)":"2634","owner()":"2499","proposeOwnershipTransfer(address)":"infinite","removeSigner(address)":"55184","renounceOwnership()":"28238","setThreshold(uint256)":"30248","supportsFunction(bytes4)":"977","transferOwnership(address)":"28618"},"internal":{"_executeOwnershipTransfer(bytes32)":"infinite"}},"methodIdentifiers":{"VERSION()":"ffa1ad74","addSigner(address)":"eb12d61e","confirmOwnershipTransfer(bytes32)":"e5006801","emergencyPause()":"51858e27","emergencyUnpause()":"4a4e3bd5","getModuleType()":"0b9349b9","getSigners()":"94cf795e","getThreshold()":"e75235b8","getToken()":"21df0da7","initialize(address,address)":"485cc955","initialize(address,bytes)":"d1f57894","isSigner(address)":"7df73e27","owner()":"8da5cb5b","proposeOwnershipTransfer(address)":"21040fc3","removeSigner(address)":"0e316ab7","renounceOwnership()":"715018a6","setThreshold(uint256)":"960bfe04","supportsFunction(bytes4)":"be464464","transferOwnership(address)":"f2fde38b"}},"storageLayout":{"storage":[{"astId":139,"contract":"src/contracts/V4SecurityModule.sol:V4SecurityModule","label":"_initialized","offset":0,"slot":"0","type":"t_uint8"},{"astId":142,"contract":"src/contracts/V4SecurityModule.sol:V4SecurityModule","label":"_initializing","offset":1,"slot":"0","type":"t_bool"},{"astId":1525,"contract":"src/contracts/V4SecurityModule.sol:V4SecurityModule","label":"__gap","offset":0,"slot":"1","type":"t_array(t_uint256)50_storage"},{"astId":11,"contract":"src/contracts/V4SecurityModule.sol:V4SecurityModule","label":"_owner","offset":0,"slot":"51","type":"t_address"},{"astId":131,"contract":"src/contracts/V4SecurityModule.sol:V4SecurityModule","label":"__gap","offset":0,"slot":"52","type":"t_array(t_uint256)49_storage"},{"astId":5579,"contract":"src/contracts/V4SecurityModule.sol:V4SecurityModule","label":"_token","offset":0,"slot":"101","type":"t_address"},{"astId":5582,"contract":"src/contracts/V4SecurityModule.sol:V4SecurityModule","label":"_signers","offset":0,"slot":"102","type":"t_struct(AddressSet)1852_storage"},{"astId":5584,"contract":"src/contracts/V4SecurityModule.sol:V4SecurityModule","label":"_threshold","offset":0,"slot":"104","type":"t_uint256"},{"astId":5588,"contract":"src/contracts/V4SecurityModule.sol:V4SecurityModule","label":"_ownershipProposals","offset":0,"slot":"105","type":"t_mapping(t_bytes32,t_address)"},{"astId":5594,"contract":"src/contracts/V4SecurityModule.sol:V4SecurityModule","label":"_confirmations","offset":0,"slot":"106","type":"t_mapping(t_bytes32,t_mapping(t_address,t_bool))"},{"astId":5598,"contract":"src/contracts/V4SecurityModule.sol:V4SecurityModule","label":"_confirmationCounts","offset":0,"slot":"107","type":"t_mapping(t_bytes32,t_uint256)"}],"types":{"t_address":{"encoding":"inplace","label":"address","numberOfBytes":"20"},"t_array(t_bytes32)dyn_storage":{"base":"t_bytes32","encoding":"dynamic_array","label":"bytes32[]","numberOfBytes":"32"},"t_array(t_uint256)49_storage":{"base":"t_uint256","encoding":"inplace","label":"uint256[49]","numberOfBytes":"1568"},"t_array(t_uint256)50_storage":{"base":"t_uint256","encoding":"inplace","label":"uint256[50]","numberOfBytes":"1600"},"t_bool":{"encoding":"inplace","label":"bool","numberOfBytes":"1"},"t_bytes32":{"encoding":"inplace","label":"bytes32","numberOfBytes":"32"},"t_mapping(t_address,t_bool)":{"encoding":"mapping","key":"t_address","label":"mapping(address => bool)","numberOfBytes":"32","value":"t_bool"},"t_mapping(t_bytes32,t_address)":{"encoding":"mapping","key":"t_bytes32","label":"mapping(bytes32 => address)","numberOfBytes":"32","value":"t_address"},"t_mapping(t_bytes32,t_mapping(t_address,t_bool))":{"encoding":"mapping","key":"t_bytes32","label":"mapping(bytes32 => mapping(address => bool))","numberOfBytes":"32","value":"t_mapping(t_address,t_bool)"},"t_mapping(t_bytes32,t_uint256)":{"encoding":"mapping","key":"t_bytes32","label":"mapping(bytes32 => uint256)","numberOfBytes":"32","value":"t_uint256"},"t_struct(AddressSet)1852_storage":{"encoding":"inplace","label":"struct EnumerableSetUpgradeable.AddressSet","members":[{"astId":1851,"contract":"src/contracts/V4SecurityModule.sol:V4SecurityModule","label":"_inner","offset":0,"slot":"0","type":"t_struct(Set)1537_storage"}],"numberOfBytes":"64"},"t_struct(Set)1537_storage":{"encoding":"inplace","label":"struct EnumerableSetUpgradeable.Set","members":[{"astId":1532,"contract":"src/contracts/V4SecurityModule.sol:V4SecurityModule","label":"_values","offset":0,"slot":"0","type":"t_array(t_bytes32)dyn_storage"},{"astId":1536,"contract":"src/contracts/V4SecurityModule.sol:V4SecurityModule","label":"_indexes","offset":0,"slot":"1","type":"t_mapping(t_bytes32,t_uint256)"}],"numberOfBytes":"64"},"t_uint256":{"encoding":"inplace","label":"uint256","numberOfBytes":"32"},"t_uint8":{"encoding":"inplace","label":"uint8","numberOfBytes":"1"}}},"userdoc":{"kind":"user","methods":{},"version":1}}}}