{"src/contracts/TokenTemplate_v3.sol":{"TokenTemplate_v3":{"abi":[{"inputs":[],"stateMutability":"nonpayable","type":"constructor"},{"anonymous":false,"inputs":[{"indexed":true,"internalType":"address","name":"owner","type":"address"},{"indexed":true,"internalType":"address","name":"spender","type":"address"},{"indexed":false,"internalType":"uint256","name":"value","type":"uint256"}],"name":"Approval","type":"event"},{"anonymous":false,"inputs":[{"indexed":true,"internalType":"address","name":"account","type":"address"},{"indexed":false,"internalType":"bool","name":"status","type":"bool"}],"name":"BlacklistUpdated","type":"event"},{"anonymous":false,"inputs":[{"indexed":true,"internalType":"address","name":"pair","type":"address"},{"indexed":false,"internalType":"uint256","name":"tokensAdded","type":"uint256"},{"indexed":false,"internalType":"uint256","name":"ethAdded","type":"uint256"}],"name":"LiquidityAdded","type":"event"},{"anonymous":false,"inputs":[{"indexed":true,"internalType":"address","name":"previousOwner","type":"address"},{"indexed":true,"internalType":"address","name":"newOwner","type":"address"}],"name":"OwnershipTransferred","type":"event"},{"anonymous":false,"inputs":[],"name":"Paused","type":"event"},{"anonymous":false,"inputs":[{"indexed":false,"internalType":"uint256","name":"totalRaised","type":"uint256"}],"name":"PresaleEnded","type":"event"},{"anonymous":false,"inputs":[{"indexed":false,"internalType":"uint256","name":"startTime","type":"uint256"},{"indexed":false,"internalType":"uint256","name":"endTime","type":"uint256"}],"name":"PresaleStarted","type":"event"},{"anonymous":false,"inputs":[{"indexed":true,"internalType":"address","name":"account","type":"address"},{"indexed":false,"internalType":"uint256","name":"timestamp","type":"uint256"}],"name":"TimeLockSet","type":"event"},{"anonymous":false,"inputs":[{"indexed":true,"internalType":"address","name":"wallet","type":"address"},{"indexed":false,"internalType":"uint256","name":"amount","type":"uint256"}],"name":"TokensClaimed","type":"event"},{"anonymous":false,"inputs":[{"indexed":true,"internalType":"address","name":"from","type":"address"},{"indexed":true,"internalType":"address","name":"to","type":"address"},{"indexed":false,"internalType":"uint256","name":"value","type":"uint256"}],"name":"Transfer","type":"event"},{"anonymous":false,"inputs":[],"name":"Unpaused","type":"event"},{"inputs":[{"internalType":"address","name":"owner","type":"address"},{"internalType":"address","name":"spender","type":"address"}],"name":"allowance","outputs":[{"internalType":"uint256","name":"","type":"uint256"}],"stateMutability":"view","type":"function"},{"inputs":[{"internalType":"address","name":"spender","type":"address"},{"internalType":"uint256","name":"amount","type":"uint256"}],"name":"approve","outputs":[{"internalType":"bool","name":"","type":"bool"}],"stateMutability":"nonpayable","type":"function"},{"inputs":[{"internalType":"address","name":"account","type":"address"}],"name":"balanceOf","outputs":[{"internalType":"uint256","name":"","type":"uint256"}],"stateMutability":"view","type":"function"},{"inputs":[],"name":"blacklistEnabled","outputs":[{"internalType":"bool","name":"","type":"bool"}],"stateMutability":"view","type":"function"},{"inputs":[{"internalType":"uint256","name":"amount","type":"uint256"}],"name":"burn","outputs":[],"stateMutability":"nonpayable","type":"function"},{"inputs":[{"internalType":"address","name":"account","type":"address"},{"internalType":"uint256","name":"amount","type":"uint256"}],"name":"burnFrom","outputs":[],"stateMutability":"nonpayable","type":"function"},{"inputs":[],"name":"claimVestedTokens","outputs":[],"stateMutability":"nonpayable","type":"function"},{"inputs":[{"internalType":"address","name":"","type":"address"}],"name":"claimedAmount","outputs":[{"internalType":"uint256","name":"","type":"uint256"}],"stateMutability":"view","type":"function"},{"inputs":[],"name":"decimals","outputs":[{"internalType":"uint8","name":"","type":"uint8"}],"stateMutability":"view","type":"function"},{"inputs":[{"internalType":"address","name":"spender","type":"address"},{"internalType":"uint256","name":"subtractedValue","type":"uint256"}],"name":"decreaseAllowance","outputs":[{"internalType":"bool","name":"","type":"bool"}],"stateMutability":"nonpayable","type":"function"},{"inputs":[],"name":"endTime","outputs":[{"internalType":"uint256","name":"","type":"uint256"}],"stateMutability":"view","type":"function"},{"inputs":[{"internalType":"address","name":"wallet","type":"address"}],"name":"getClaimedAmount","outputs":[{"internalType":"uint256","name":"","type":"uint256"}],"stateMutability":"view","type":"function"},{"inputs":[{"internalType":"address","name":"account","type":"address"}],"name":"getUnlockTime","outputs":[{"internalType":"uint256","name":"","type":"uint256"}],"stateMutability":"view","type":"function"},{"inputs":[{"internalType":"address","name":"wallet","type":"address"}],"name":"getVestedAmount","outputs":[{"internalType":"uint256","name":"","type":"uint256"}],"stateMutability":"view","type":"function"},{"inputs":[],"name":"getWalletAllocations","outputs":[{"components":[{"internalType":"address","name":"wallet","type":"address"},{"internalType":"uint256","name":"percentage","type":"uint256"},{"internalType":"bool","name":"vestingEnabled","type":"bool"},{"internalType":"uint256","name":"vestingDuration","type":"uint256"},{"internalType":"uint256","name":"cliffDuration","type":"uint256"},{"internalType":"uint256","name":"vestingStartTime","type":"uint256"}],"internalType":"struct TokenTemplate_v3.WalletAllocation[]","name":"","type":"tuple[]"}],"stateMutability":"view","type":"function"},{"inputs":[],"name":"hardCap","outputs":[{"internalType":"uint256","name":"","type":"uint256"}],"stateMutability":"view","type":"function"},{"inputs":[{"internalType":"address","name":"spender","type":"address"},{"internalType":"uint256","name":"addedValue","type":"uint256"}],"name":"increaseAllowance","outputs":[{"internalType":"bool","name":"","type":"bool"}],"stateMutability":"nonpayable","type":"function"},{"inputs":[{"components":[{"internalType":"string","name":"name","type":"string"},{"internalType":"string","name":"symbol","type":"string"},{"internalType":"uint256","name":"initialSupply","type":"uint256"},{"internalType":"uint256","name":"maxSupply","type":"uint256"},{"internalType":"address","name":"owner","type":"address"},{"internalType":"bool","name":"enableBlacklist","type":"bool"},{"internalType":"bool","name":"enableTimeLock","type":"bool"},{"internalType":"uint256","name":"presaleRate","type":"uint256"},{"internalType":"uint256","name":"softCap","type":"uint256"},{"internalType":"uint256","name":"hardCap","type":"uint256"},{"internalType":"uint256","name":"minContribution","type":"uint256"},{"internalType":"uint256","name":"maxContribution","type":"uint256"},{"internalType":"uint256","name":"startTime","type":"uint256"},{"internalType":"uint256","name":"endTime","type":"uint256"},{"internalType":"uint256","name":"presalePercentage","type":"uint256"},{"internalType":"uint256","name":"liquidityPercentage","type":"uint256"},{"internalType":"uint256","name":"liquidityLockDuration","type":"uint256"},{"components":[{"internalType":"address","name":"wallet","type":"address"},{"internalType":"uint256","name":"percentage","type":"uint256"},{"internalType":"bool","name":"vestingEnabled","type":"bool"},{"internalType":"uint256","name":"vestingDuration","type":"uint256"},{"internalType":"uint256","name":"cliffDuration","type":"uint256"},{"internalType":"uint256","name":"vestingStartTime","type":"uint256"}],"internalType":"struct TokenTemplate_v3.WalletAllocation[]","name":"walletAllocations","type":"tuple[]"},{"internalType":"uint256","name":"maxActivePresales","type":"uint256"},{"internalType":"bool","name":"presaleEnabled","type":"bool"}],"internalType":"struct TokenTemplate_v3.InitParams","name":"params","type":"tuple"}],"name":"initialize","outputs":[],"stateMutability":"nonpayable","type":"function"},{"inputs":[{"internalType":"address","name":"account","type":"address"}],"name":"isBlacklisted","outputs":[{"internalType":"bool","name":"","type":"bool"}],"stateMutability":"view","type":"function"},{"inputs":[],"name":"liquidityLockDuration","outputs":[{"internalType":"uint256","name":"","type":"uint256"}],"stateMutability":"view","type":"function"},{"inputs":[],"name":"liquidityPercentage","outputs":[{"internalType":"uint256","name":"","type":"uint256"}],"stateMutability":"view","type":"function"},{"inputs":[],"name":"maxActivePresales","outputs":[{"internalType":"uint256","name":"","type":"uint256"}],"stateMutability":"view","type":"function"},{"inputs":[],"name":"maxContribution","outputs":[{"internalType":"uint256","name":"","type":"uint256"}],"stateMutability":"view","type":"function"},{"inputs":[],"name":"maxSupply","outputs":[{"internalType":"uint256","name":"","type":"uint256"}],"stateMutability":"view","type":"function"},{"inputs":[],"name":"minContribution","outputs":[{"internalType":"uint256","name":"","type":"uint256"}],"stateMutability":"view","type":"function"},{"inputs":[],"name":"name","outputs":[{"internalType":"string","name":"","type":"string"}],"stateMutability":"view","type":"function"},{"inputs":[],"name":"owner","outputs":[{"internalType":"address","name":"","type":"address"}],"stateMutability":"view","type":"function"},{"inputs":[],"name":"pause","outputs":[],"stateMutability":"nonpayable","type":"function"},{"inputs":[],"name":"paused","outputs":[{"internalType":"bool","name":"","type":"bool"}],"stateMutability":"view","type":"function"},{"inputs":[],"name":"presaleEnabled","outputs":[{"internalType":"bool","name":"","type":"bool"}],"stateMutability":"view","type":"function"},{"inputs":[],"name":"presalePercentage","outputs":[{"internalType":"uint256","name":"","type":"uint256"}],"stateMutability":"view","type":"function"},{"inputs":[],"name":"presaleRate","outputs":[{"internalType":"uint256","name":"","type":"uint256"}],"stateMutability":"view","type":"function"},{"inputs":[],"name":"renounceOwnership","outputs":[],"stateMutability":"nonpayable","type":"function"},{"inputs":[{"internalType":"address","name":"account","type":"address"},{"internalType":"bool","name":"status","type":"bool"}],"name":"setBlacklist","outputs":[],"stateMutability":"nonpayable","type":"function"},{"inputs":[{"internalType":"address","name":"account","type":"address"},{"internalType":"uint256","name":"unlockTime","type":"uint256"}],"name":"setTimeLock","outputs":[],"stateMutability":"nonpayable","type":"function"},{"inputs":[],"name":"softCap","outputs":[{"internalType":"uint256","name":"","type":"uint256"}],"stateMutability":"view","type":"function"},{"inputs":[],"name":"startTime","outputs":[{"internalType":"uint256","name":"","type":"uint256"}],"stateMutability":"view","type":"function"},{"inputs":[],"name":"symbol","outputs":[{"internalType":"string","name":"","type":"string"}],"stateMutability":"view","type":"function"},{"inputs":[],"name":"timeLockEnabled","outputs":[{"internalType":"bool","name":"","type":"bool"}],"stateMutability":"view","type":"function"},{"inputs":[],"name":"totalSupply","outputs":[{"internalType":"uint256","name":"","type":"uint256"}],"stateMutability":"view","type":"function"},{"inputs":[{"internalType":"address","name":"to","type":"address"},{"internalType":"uint256","name":"amount","type":"uint256"}],"name":"transfer","outputs":[{"internalType":"bool","name":"","type":"bool"}],"stateMutability":"nonpayable","type":"function"},{"inputs":[{"internalType":"address","name":"from","type":"address"},{"internalType":"address","name":"to","type":"address"},{"internalType":"uint256","name":"amount","type":"uint256"}],"name":"transferFrom","outputs":[{"internalType":"bool","name":"","type":"bool"}],"stateMutability":"nonpayable","type":"function"},{"inputs":[{"internalType":"address","name":"newOwner","type":"address"}],"name":"transferOwnership","outputs":[],"stateMutability":"nonpayable","type":"function"},{"inputs":[],"name":"unpause","outputs":[],"stateMutability":"nonpayable","type":"function"},{"inputs":[{"internalType":"address","name":"","type":"address"}],"name":"vestedAmount","outputs":[{"internalType":"uint256","name":"","type":"uint256"}],"stateMutability":"view","type":"function"},{"inputs":[{"internalType":"address","name":"","type":"address"}],"name":"vestingStartTime","outputs":[{"internalType":"uint256","name":"","type":"uint256"}],"stateMutability":"view","type":"function"},{"inputs":[{"internalType":"uint256","name":"","type":"uint256"}],"name":"walletAllocations","outputs":[{"internalType":"address","name":"wallet","type":"address"},{"internalType":"uint256","name":"percentage","type":"uint256"},{"internalType":"bool","name":"vestingEnabled","type":"bool"},{"internalType":"uint256","name":"vestingDuration","type":"uint256"},{"internalType":"uint256","name":"cliffDuration","type":"uint256"},{"internalType":"uint256","name":"vestingStartTime","type":"uint256"}],"stateMutability":"view","type":"function"}],"devdoc":{"events":{"Approval(address,address,uint256)":{"details":"Emitted when the allowance of a `spender` for an `owner` is set by a call to {approve}. `value` is the new allowance."},"Transfer(address,address,uint256)":{"details":"Emitted when `value` tokens are moved from one account (`from`) to another (`to`). Note that `value` may be zero."}},"kind":"dev","methods":{"allowance(address,address)":{"details":"See {IERC20-allowance}."},"approve(address,uint256)":{"details":"See {IERC20-approve}. NOTE: If `amount` is the maximum `uint256`, the allowance is not updated on `transferFrom`. This is semantically equivalent to an infinite approval. Requirements: - `spender` cannot be the zero address."},"balanceOf(address)":{"details":"See {IERC20-balanceOf}."},"burn(uint256)":{"details":"Destroys `amount` tokens from the caller. See {ERC20-_burn}."},"burnFrom(address,uint256)":{"details":"Destroys `amount` tokens from `account`, deducting from the caller's allowance. See {ERC20-_burn} and {ERC20-allowance}. Requirements: - the caller must have allowance for ``accounts``'s tokens of at least `amount`."},"decimals()":{"details":"Returns the number of decimals used to get its user representation. For example, if `decimals` equals `2`, a balance of `505` tokens should be displayed to a user as `5.05` (`505 / 10 ** 2`). Tokens usually opt for a value of 18, imitating the relationship between Ether and Wei. This is the default value returned by this function, unless it's overridden. NOTE: This information is only used for _display_ purposes: it in no way affects any of the arithmetic of the contract, including {IERC20-balanceOf} and {IERC20-transfer}."},"decreaseAllowance(address,uint256)":{"details":"Atomically decreases the allowance granted to `spender` by the caller. This is an alternative to {approve} that can be used as a mitigation for problems described in {IERC20-approve}. Emits an {Approval} event indicating the updated allowance. Requirements: - `spender` cannot be the zero address. - `spender` must have allowance for the caller of at least `subtractedValue`."},"increaseAllowance(address,uint256)":{"details":"Atomically increases the allowance granted to `spender` by the caller. This is an alternative to {approve} that can be used as a mitigation for problems described in {IERC20-approve}. Emits an {Approval} event indicating the updated allowance. Requirements: - `spender` cannot be the zero address."},"name()":{"details":"Returns the name of the token."},"owner()":{"details":"Returns the address of the current owner."},"renounceOwnership()":{"details":"Leaves the contract without owner. It will not be possible to call `onlyOwner` functions. Can only be called by the current owner. NOTE: Renouncing ownership will leave the contract without an owner, thereby disabling any functionality that is only available to the owner."},"symbol()":{"details":"Returns the symbol of the token, usually a shorter version of the name."},"totalSupply()":{"details":"See {IERC20-totalSupply}."},"transfer(address,uint256)":{"details":"See {IERC20-transfer}. Requirements: - `to` cannot be the zero address. - the caller must have a balance of at least `amount`."},"transferFrom(address,address,uint256)":{"details":"See {IERC20-transferFrom}. Emits an {Approval} event indicating the updated allowance. This is not required by the EIP. See the note at the beginning of {ERC20}. NOTE: Does not update the allowance if the current allowance is the maximum `uint256`. Requirements: - `from` and `to` cannot be the zero address. - `from` must have a balance of at least `amount`. - the caller must have allowance for ``from``'s tokens of at least `amount`."},"transferOwnership(address)":{"details":"Transfers ownership of the contract to a new account (`newOwner`). Can only be called by the current owner."}},"version":1},"evm":{"bytecode":{"linkReferences":{},"object":"6080604052346200032557620000146200032a565b6200001e6200032a565b815190916001600160401b038083116200022557600380546001948582811c92169485156200031a575b6020958684101462000304578190601f93848111620002ae575b50869084831160011462000247576000926200023b575b505060001982851b1c191690861b1782555b8551928311620002255760049384548681811c911680156200021a575b828210146200020557828111620001ba575b50809184116001146200014c57508293949560009362000140575b505082851b92600019911b1c19161790555b60058054336001600160a01b0319821681179092556040519291906001600160a01b03167f8be0079c531659141344cd1fd0a4f28419497f9722a3daafe3b4186f6b6457e0600080a360065561202990816200034f8239f35b015191503880620000d5565b9190601f198416968560005283600020936000905b898210620001a25750508487989796971062000187575b50505050811b019055620000e7565b01519060f884600019921b161c191690553880808062000178565b80898597829496860151815501960193019062000161565b85600052816000208380870160051c820192848810620001fb575b0160051c019087905b828110620001ee575050620000ba565b60008155018790620001de565b92508192620001d5565b602286634e487b7160e01b6000525260246000fd5b90607f1690620000a8565b634e487b7160e01b600052604160045260246000fd5b01519050388062000079565b90889350601f1983169186600052886000209260005b8a8282106200029757505084116200027e575b505050811b0182556200008b565b015160001983871b60f8161c1916905538808062000270565b8385015186558c979095019493840193016200025d565b90915084600052866000208480850160051c820192898610620002fa575b918a91869594930160051c01915b828110620002ea57505062000062565b600081558594508a9101620002da565b92508192620002cc565b634e487b7160e01b600052602260045260246000fd5b91607f169162000048565b600080fd5b60405190602082016001600160401b0381118382101762000225576040526000825256fe608060408181526004918236101561001657600080fd5b600092833560e01c918263048b87ba1461176b5750816304e8690314610edc57816306fdde0314611674578163095ea7b31461164a578163143b237f14611626578163153b0d1e1461155057816318160ddd1461153157816323b872dd146114f4578163313ce567146114d85781633197cbb6146114b957816332b47fac1461132e578163384711cc146106fb57816339509351146112de5781633f4ba83a146112925781633fd50eb81461121b57816342966c68146111fd57816342f39381146111de5781634ae01d52146111bf5781635c975abb14611198578163644fab741461109057816370a0823114611059578163715018a614610ffc57816378e9792514610fdd57816379cc679014610fad5781638456cb5914610f5c5781638d3d657614610f3d5781638da5cb5b14610f145781638df40be814610edc578163906a26e014610ebd57816395d89b4114610db8578163a457c2d714610d10578163a9059cbb14610cdf578163aaffadf314610cc0578163b8caa4aa14610ca1578163bffb691d14610c7d578163c64b2f8c1461075a578163cba4cbd314610733578163d5a73fdd146106fb578163d5abeb01146106dc578163dbed1e881461068b578163dd62ed3e14610642578163de8af79114610623578163e74f3fbb1461036e578163ea63fb2614610336578163f2fde38b146102a057508063fb86a404146102825763fe575a871461022a57600080fd5b3461027e57602036600319011261027e5790602091610247611787565b9160ff60085416928361025f575b5050519015158152f35b6001600160a01b03168152601984528190205460ff1691503880610255565b5080fd5b503461027e578160031936011261027e57602090600b549051908152f35b905034610332576020366003190112610332576102bb611787565b916102c4611a36565b6001600160a01b038316156102e057836102dd84611faa565b80f35b906020608492519162461bcd60e51b8352820152602660248201527f4f776e61626c653a206e6577206f776e657220697320746865207a65726f206160448201526564647265737360d01b6064820152fd5b8280fd5b50503461027e57602036600319011261027e5760209181906001600160a01b0361035e611787565b1681526018845220549051908152f35b919050346103325782600319360112610332576002906002600654146105e15760026006553384526016926020926016845282862054156105aa5785948691601554925b83811061045a575b5050505083156104195750907f896e034966eaaf1adc54acc0f257056febbd300c9e47182cf761982cf1f5e43091338552601782528085206103fd85825461188a565b905561040a843330611b26565b519283523392a2600160065580f35b82606492519162461bcd60e51b8352820152601c60248201527f4e6f20746f6b656e7320617661696c61626c6520746f20636c61696d000000006044820152fd5b61046381611801565b50546001600160a01b0316331480610594575b610482576001016103b2565b92505091945033865260188085526104aa84882054876104a185611801565b5001549061188a565b421061055a5733875284526104c28387205442611927565b6104cb82611801565b5060039081015490919081106105035750505033855282526104f881852054601784528286205490611927565b925b388080806103ba565b61051b90610521929394338a52875285892054611914565b92611801565b500154801561054757906105419133875260178552838720549104611927565b926104fa565b634e487b7160e01b865260128552602486fd5b606486848787519262461bcd60e51b845283015260248201527510db1a5999881c195c9a5bd9081b9bdd08195b99195960521b6044820152fd5b5060ff826105a183611801565b50015416610476565b5082606492519162461bcd60e51b835282015260126024820152714e6f20746f6b656e7320746f20636c61696d60701b6044820152fd5b5162461bcd60e51b8152602081840152601f60248201527f5265656e7472616e637947756172643a207265656e7472616e742063616c6c006044820152606490fd5b50503461027e578160031936011261027e576020906010549051908152f35b50503461027e578060031936011261027e5780602092610660611787565b6106686117a2565b6001600160a01b0391821683526001865283832091168252845220549051908152f35b50503461027e57602036600319011261027e57806020926106aa611787565b60ff60085460081c166000146106d3576001600160a01b03168152601a84522054905b51908152f35b509050906106cd565b50503461027e578160031936011261027e576020906007549051908152f35b50503461027e57602036600319011261027e5760209181906001600160a01b03610723611787565b1681526016845220549051908152f35b50503461027e578160031936011261027e5760209060ff60085460081c1690519015158152f35b90503461033257602091600319908382360112610c795782359367ffffffffffffffff8511610c7557610280858501938636030112610c755760029360025480610c3d576044870135903015610bfa576008549060ff91828160101c16610bb757828181869316610b47575b60081c16610af3575b6107d89161188a565b6002553089528884528489208281540190558451828152897fddf252ad1be2c89b69c2b068fc378daa952ba7f163c4a11628f55a4df523b3ef863093a3606490606489013560075561082c60a48a016118ad565b1515898261ff0061084260c460085494016118ad565b151560081b1692169061ffff1916171760085560e4890135600955610104890135600a55610124890135600b55610144890135600c55610164890135600d55610184890135600e556101a4890135600f556101c48901356010556101e48901356011556102048901356012556102448901356013556108c46102648a016118ad565b15159060ff19601454169116176014556102248801916108e483886118ba565b9050610900575b896102dd6108fb60848c01611900565b611faa565b89959697995b610910848a6118ba565b9050811015610ad75761092d81610927868c6118ba565b906118f0565b601590815468010000000000000000811015610ac457610954906001938482019055611801565b610ab25791888c928f948c96958e600160a01b60019003958661097686611900565b85546001600160a01b0319169116178455848601359084015561099a9084016118ad565b908201906109b3919060ff801983541691151516179055565b6060820135600382015560808201358b82015560a0809201359060050155848d8a8a82846109e1848b6118ba565b6109eb92916118f0565b016109f5906118ad565b60019a9015610a6e57610a5c968961092795610a55938b610a36610a318b6109278b610a319f610a2984610927848d6118ba565b0135986118ba565b611900565b168152601884522055610a4d86610927868d6118ba565b01358c611914565b04966118ba565b16895260168852898920555b01610906565b50949290879650610aa59450610a9d925080610a97610a318461092761092795610aad9d6118ba565b976118ba565b013587611914565b049030611b26565b610a68565b634e487b7160e01b8a5289885260248afd5b634e487b7160e01b8a526041885260248afd5b505050505050935050506108fb60846102dd38808080806108eb565b50898052601a8552858a20544210610b0b57826107cf565b855162461bcd60e51b81528085018690526016602482015275151bdad95b9cc8185c99481d1a5b594b5b1bd8dad95960521b6044820152606490fd5b9150508a80526019865282878c2054161580610ba7575b15610b6b578284916107c6565b865162461bcd60e51b815280860187905260166024820152751059191c995cdcc81a5cc8189b1858dadb1a5cdd195960521b6044820152606490fd5b50308b5282878c20541615610b5e565b865162461bcd60e51b8152808601879052601b60248201527f546f6b656e207472616e73666572207768696c652070617573656400000000006044820152606490fd5b845162461bcd60e51b8152808401859052601f60248201527f45524332303a206d696e7420746f20746865207a65726f2061646472657373006044820152606490fd5b50915162461bcd60e51b8152918201526013602482015272105b1c9958591e481a5b9a5d1a585b1a5e9959606a1b6044820152606490fd5b8580fd5b8480fd5b50503461027e578160031936011261027e5760209060ff6008541690519015158152f35b50503461027e578160031936011261027e576020906013549051908152f35b50503461027e578160031936011261027e57602090600c549051908152f35b50503461027e578060031936011261027e57602090610d09610cff611787565b6024359033611b26565b5160018152f35b90508234610db55782600319360112610db557610d2b611787565b918360243592338152600160205281812060018060a01b0386168252602052205490828210610d6457602085610d098585038733611934565b608490602086519162461bcd60e51b8352820152602560248201527f45524332303a2064656372656173656420616c6c6f77616e63652062656c6f77604482015264207a65726f60d81b6064820152fd5b80fd5b83833461027e578160031936011261027e5780519180938054916001908360011c9260018516948515610eb3575b6020958686108114610ea057858952908115610e7c5750600114610e24575b610e208787610e16828c0383611852565b51918291826117b8565b0390f35b81529295507f8a35acfbc15ff81a39ae7d344fd709f28e8600b4aa8c65c6b64bfe7fe36bd19b5b828410610e695750505082610e2094610e1692820101948680610e05565b8054868501880152928601928101610e4b565b60ff19168887015250505050151560051b8301019250610e1682610e208680610e05565b634e487b7160e01b845260228352602484fd5b93607f1693610de6565b50503461027e578160031936011261027e57602090600a549051908152f35b50503461027e57602036600319011261027e5760209181906001600160a01b03610f04611787565b1681526017845220549051908152f35b50503461027e578160031936011261027e5760055490516001600160a01b039091168152602090f35b50503461027e578160031936011261027e57602090600d549051908152f35b8334610db55780600319360112610db557610f75611a36565b6201000062ff00001960085416176008557f9e87fac88ff661f02d44f95383c817fece4bce600a3dab7a54406878b965e7528180a180f35b50503461027e57366003190112610db5576102dd610fc9611787565b60243590610fd8823383611a8e565b611dbe565b50503461027e578160031936011261027e57602090600e549051908152f35b8334610db55780600319360112610db557611015611a36565b600580546001600160a01b0319811690915581906001600160a01b03167f8be0079c531659141344cd1fd0a4f28419497f9722a3daafe3b4186f6b6457e08280a380f35b50503461027e57602036600319011261027e5760209181906001600160a01b03611081611787565b16815280845220549051908152f35b9050346103325781600319360112610332576110aa611787565b602435916110b6611a36565b60ff60085460081c1615611155574283111561111257506001600160a01b0316808452601a60209081528385208390559251918252917fa9353e70f07f31e7f4e16464f45e189cbd22826780a5abe4da8303652a86960a91a280f35b606490602085519162461bcd60e51b8352820152601d60248201527f556e6c6f636b2074696d65206d75737420626520696e206675747572650000006044820152fd5b606490602085519162461bcd60e51b8352820152601860248201527f54696d65206c6f636b206973206e6f7420656e61626c656400000000000000006044820152fd5b50503461027e578160031936011261027e5760209060ff60085460101c1690519015158152f35b50503461027e578160031936011261027e576020906012549051908152f35b50503461027e578160031936011261027e576020906009549051908152f35b83903461027e57602036600319011261027e576102dd903533611dbe565b9190503461033257602036600319011261033257813592601554841015610db5575061124860c093611801565b5060018060a01b038154169260018201549260ff600284015416600560038501549385015494015494825196875260208701521515908501526060840152608083015260a0820152f35b8334610db55780600319360112610db5576112ab611a36565b62ff000019600854166008557fa45f47fdea8a1efdd9029a5691c7f759c32b7c698632b563573e155625d169338180a180f35b50503461027e578060031936011261027e57610d09602092611327611301611787565b338352600186528483206001600160a01b0382168452865291849020546024359061188a565b9033611934565b8391503461027e578160031936011261027e576015549067ffffffffffffffff908183116114a6579290602093600593865192611370878360051b0185611852565b818452868401908196601587527f55f448fdea98c4d29eb340757ef0a66cd03dbb9538908a6a81d96026b71ec4759187935b8585106114225750505050505050845193808501918186525180925285850193925b8281106113d15785850386f35b835180516001600160a01b03168652808301518684015287810151151588870152606080820151908701526080808201519087015260a0908101519086015260c090940193928101926001016113c4565b8b9a97989a5160c0810181811084821117611493578d5284546001600160a01b031681526001808601548a830152600286015460ff161515828f0152600386015460608301528886015460808301528486015460a0830152908252979a989794909401936006909301928a016113a2565b634e487b7160e01b8d526041895260248dfd5b634e487b7160e01b845260419052602483fd5b50503461027e578160031936011261027e57602090600f549051908152f35b50503461027e578160031936011261027e576020905160128152f35b50503461027e57606036600319011261027e57602090610d09611515611787565b61151d6117a2565b6044359161152c833383611a8e565b611b26565b50503461027e578160031936011261027e576020906002549051908152f35b90503461033257816003193601126103325761156a611787565b916024359283151592838503610c7557611582611a36565b60ff60085416156115e35750916020916115db7f6a12b3df6cba4203bd7fd06b816789f87de8c594299aed5717ae070fac781bac9460018060a01b031695868852601985528288209060ff801983541691151516179055565b51908152a280f35b606490602084519162461bcd60e51b8352820152601860248201527f426c61636b6c697374206973206e6f7420656e61626c656400000000000000006044820152fd5b50503461027e578160031936011261027e5760209060ff6014541690519015158152f35b50503461027e578060031936011261027e57602090610d0961166a611787565b6024359033611934565b9190503461033257826003193601126103325780519183600354906001908260011c92600181168015611761575b602095868610821461174e575084885290811561172c57506001146116d3575b610e208686610e16828b0383611852565b929550600383527fc2575a0e9e593c00f959f8c92f12db2869c3395a3b0502d05e2516446f71f85b5b8284106117195750505082610e2094610e169282010194386116c2565b80548685018801529286019281016116fc565b60ff191687860152505050151560051b8301019250610e1682610e20386116c2565b634e487b7160e01b845260229052602483fd5b93607f16936116a2565b84903461027e578160031936011261027e576020906011548152f35b600435906001600160a01b038216820361179d57565b600080fd5b602435906001600160a01b038216820361179d57565b6020808252825181830181905290939260005b8281106117ed57505060409293506000838284010152601f8019910116010190565b8181018601518482016040015285016117cb565b60155481101561183c576006906015600052027f55f448fdea98c4d29eb340757ef0a66cd03dbb9538908a6a81d96026b71ec4750190600090565b634e487b7160e01b600052603260045260246000fd5b90601f8019910116810190811067ffffffffffffffff82111761187457604052565b634e487b7160e01b600052604160045260246000fd5b9190820180921161189757565b634e487b7160e01b600052601160045260246000fd5b35801515810361179d5790565b903590601e198136030182121561179d570180359067ffffffffffffffff821161179d576020019160c082023603831361179d57565b919081101561183c5760c0020190565b356001600160a01b038116810361179d5790565b8181029291811591840414171561189757565b9190820391821161189757565b6001600160a01b039081169182156119e557169182156119955760207f8c5be1e5ebec7d5bd14f71427d1e84f3dd0314c0f7b2291e5b200ac8c7c3b925918360005260018252604060002085600052825280604060002055604051908152a3565b60405162461bcd60e51b815260206004820152602260248201527f45524332303a20617070726f766520746f20746865207a65726f206164647265604482015261737360f01b6064820152608490fd5b60405162461bcd60e51b8152602060048201526024808201527f45524332303a20617070726f76652066726f6d20746865207a65726f206164646044820152637265737360e01b6064820152608490fd5b6005546001600160a01b03163303611a4a57565b606460405162461bcd60e51b815260206004820152602060248201527f4f776e61626c653a2063616c6c6572206973206e6f7420746865206f776e65726044820152fd5b9060018060a01b0380831660005260016020526040600020908216600052602052604060002054926000198403611ac6575b50505050565b808410611ae157611ad8930391611934565b38808080611ac0565b60405162461bcd60e51b815260206004820152601d60248201527f45524332303a20696e73756666696369656e7420616c6c6f77616e63650000006044820152606490fd5b6001600160a01b03908116918215611d6b5716918215611d1a5760085460ff8160101c16611cd55760ff8116611c66575b60081c60ff16611c12575b600082815280602052604081205491808310611bbe57604082827fddf252ad1be2c89b69c2b068fc378daa952ba7f163c4a11628f55a4df523b3ef958760209652828652038282205586815220818154019055604051908152a3565b60405162461bcd60e51b815260206004820152602660248201527f45524332303a207472616e7366657220616d6f756e7420657863656564732062604482015265616c616e636560d01b6064820152608490fd5b81600052601a602052604060002054421015611b625760405162461bcd60e51b8152602060048201526016602482015275151bdad95b9cc8185c99481d1a5b594b5b1bd8dad95960521b6044820152606490fd5b82600052601960205260ff604060002054161580611cc1575b611b575760405162461bcd60e51b81526020600482015260166024820152751059191c995cdcc81a5cc8189b1858dadb1a5cdd195960521b6044820152606490fd5b508360005260ff6040600020541615611c7f565b60405162461bcd60e51b815260206004820152601b60248201527f546f6b656e207472616e73666572207768696c652070617573656400000000006044820152606490fd5b60405162461bcd60e51b815260206004820152602360248201527f45524332303a207472616e7366657220746f20746865207a65726f206164647260448201526265737360e81b6064820152608490fd5b60405162461bcd60e51b815260206004820152602560248201527f45524332303a207472616e736665722066726f6d20746865207a65726f206164604482015264647265737360d81b6064820152608490fd5b6001600160a01b03168015611f5b5760085460ff8160101c16611cd55760ff8116611eec575b60081c60ff16611e98575b600091818352826020526040832054818110611e4857817fddf252ad1be2c89b69c2b068fc378daa952ba7f163c4a11628f55a4df523b3ef926020928587528684520360408620558060025403600255604051908152a3565b60405162461bcd60e51b815260206004820152602260248201527f45524332303a206275726e20616d6f756e7420657863656564732062616c616e604482015261636560f01b6064820152608490fd5b80600052601a602052604060002054421015611def5760405162461bcd60e51b8152602060048201526016602482015275151bdad95b9cc8185c99481d1a5b594b5b1bd8dad95960521b6044820152606490fd5b81600052601960205260ff604060002054161580611f47575b611de45760405162461bcd60e51b81526020600482015260166024820152751059191c995cdcc81a5cc8189b1858dadb1a5cdd195960521b6044820152606490fd5b506000805260ff6040600020541615611f05565b60405162461bcd60e51b815260206004820152602160248201527f45524332303a206275726e2066726f6d20746865207a65726f206164647265736044820152607360f81b6064820152608490fd5b600580546001600160a01b039283166001600160a01b0319821681179092559091167f8be0079c531659141344cd1fd0a4f28419497f9722a3daafe3b4186f6b6457e0600080a356fea264697066735822122030830218cb5f23912194226e851275ec8454b41382f781a16f1e6858ce1cd3c664736f6c63430008160033","opcodes":"PUSH1 0x80 PUSH1 0x40 MSTORE CALLVALUE PUSH3 0x325 JUMPI PUSH3 0x14 PUSH3 0x32A JUMP JUMPDEST PUSH3 0x1E PUSH3 0x32A JUMP JUMPDEST DUP2 MLOAD SWAP1 SWAP2 PUSH1 0x1 PUSH1 0x1 PUSH1 0x40 SHL SUB DUP1 DUP4 GT PUSH3 0x225 JUMPI PUSH1 0x3 DUP1 SLOAD PUSH1 0x1 SWAP5 DUP6 DUP3 DUP2 SHR SWAP3 AND SWAP5 DUP6 ISZERO PUSH3 0x31A JUMPI JUMPDEST PUSH1 0x20 SWAP6 DUP7 DUP5 LT EQ PUSH3 0x304 JUMPI DUP2 SWAP1 PUSH1 0x1F SWAP4 DUP5 DUP2 GT PUSH3 0x2AE JUMPI JUMPDEST POP DUP7 SWAP1 DUP5 DUP4 GT PUSH1 0x1 EQ PUSH3 0x247 JUMPI PUSH1 0x0 SWAP3 PUSH3 0x23B JUMPI JUMPDEST POP POP PUSH1 0x0 NOT DUP3 DUP6 SHL SHR NOT AND SWAP1 DUP7 SHL OR DUP3 SSTORE JUMPDEST DUP6 MLOAD SWAP3 DUP4 GT PUSH3 0x225 JUMPI PUSH1 0x4 SWAP4 DUP5 SLOAD DUP7 DUP2 DUP2 SHR SWAP2 AND DUP1 ISZERO PUSH3 0x21A JUMPI JUMPDEST DUP3 DUP3 LT EQ PUSH3 0x205 JUMPI DUP3 DUP2 GT PUSH3 0x1BA JUMPI JUMPDEST POP DUP1 SWAP2 DUP5 GT PUSH1 0x1 EQ PUSH3 0x14C JUMPI POP DUP3 SWAP4 SWAP5 SWAP6 PUSH1 0x0 SWAP4 PUSH3 0x140 JUMPI JUMPDEST POP POP DUP3 DUP6 SHL SWAP3 PUSH1 0x0 NOT SWAP2 SHL SHR NOT AND OR SWAP1 SSTORE JUMPDEST PUSH1 0x5 DUP1 SLOAD CALLER PUSH1 0x1 PUSH1 0x1 PUSH1 0xA0 SHL SUB NOT DUP3 AND DUP2 OR SWAP1 SWAP3 SSTORE PUSH1 0x40 MLOAD SWAP3 SWAP2 SWAP1 PUSH1 0x1 PUSH1 0x1 PUSH1 0xA0 SHL SUB AND PUSH32 0x8BE0079C531659141344CD1FD0A4F28419497F9722A3DAAFE3B4186F6B6457E0 PUSH1 0x0 DUP1 LOG3 PUSH1 0x6 SSTORE PUSH2 0x2029 SWAP1 DUP2 PUSH3 0x34F DUP3 CODECOPY RETURN JUMPDEST ADD MLOAD SWAP2 POP CODESIZE DUP1 PUSH3 0xD5 JUMP JUMPDEST SWAP2 SWAP1 PUSH1 0x1F NOT DUP5 AND SWAP7 DUP6 PUSH1 0x0 MSTORE DUP4 PUSH1 0x0 KECCAK256 SWAP4 PUSH1 0x0 SWAP1 JUMPDEST DUP10 DUP3 LT PUSH3 0x1A2 JUMPI POP POP DUP5 DUP8 SWAP9 SWAP8 SWAP7 SWAP8 LT PUSH3 0x187 JUMPI JUMPDEST POP POP POP POP DUP2 SHL ADD SWAP1 SSTORE PUSH3 0xE7 JUMP JUMPDEST ADD MLOAD SWAP1 PUSH1 0xF8 DUP5 PUSH1 0x0 NOT SWAP3 SHL AND SHR NOT AND SWAP1 SSTORE CODESIZE DUP1 DUP1 DUP1 PUSH3 0x178 JUMP JUMPDEST DUP1 DUP10 DUP6 SWAP8 DUP3 SWAP5 SWAP7 DUP7 ADD MLOAD DUP2 SSTORE ADD SWAP7 ADD SWAP4 ADD SWAP1 PUSH3 0x161 JUMP JUMPDEST DUP6 PUSH1 0x0 MSTORE DUP2 PUSH1 0x0 KECCAK256 DUP4 DUP1 DUP8 ADD PUSH1 0x5 SHR DUP3 ADD SWAP3 DUP5 DUP9 LT PUSH3 0x1FB JUMPI JUMPDEST ADD PUSH1 0x5 SHR ADD SWAP1 DUP8 SWAP1 JUMPDEST DUP3 DUP2 LT PUSH3 0x1EE JUMPI POP POP PUSH3 0xBA JUMP JUMPDEST PUSH1 0x0 DUP2 SSTORE ADD DUP8 SWAP1 PUSH3 0x1DE JUMP JUMPDEST SWAP3 POP DUP2 SWAP3 PUSH3 0x1D5 JUMP JUMPDEST PUSH1 0x22 DUP7 PUSH4 0x4E487B71 PUSH1 0xE0 SHL PUSH1 0x0 MSTORE MSTORE PUSH1 0x24 PUSH1 0x0 REVERT JUMPDEST SWAP1 PUSH1 0x7F AND SWAP1 PUSH3 0xA8 JUMP JUMPDEST PUSH4 0x4E487B71 PUSH1 0xE0 SHL PUSH1 0x0 MSTORE PUSH1 0x41 PUSH1 0x4 MSTORE PUSH1 0x24 PUSH1 0x0 REVERT JUMPDEST ADD MLOAD SWAP1 POP CODESIZE DUP1 PUSH3 0x79 JUMP JUMPDEST SWAP1 DUP9 SWAP4 POP PUSH1 0x1F NOT DUP4 AND SWAP2 DUP7 PUSH1 0x0 MSTORE DUP9 PUSH1 0x0 KECCAK256 SWAP3 PUSH1 0x0 JUMPDEST DUP11 DUP3 DUP3 LT PUSH3 0x297 JUMPI POP POP DUP5 GT PUSH3 0x27E JUMPI JUMPDEST POP POP POP DUP2 SHL ADD DUP3 SSTORE PUSH3 0x8B JUMP JUMPDEST ADD MLOAD PUSH1 0x0 NOT DUP4 DUP8 SHL PUSH1 0xF8 AND SHR NOT AND SWAP1 SSTORE CODESIZE DUP1 DUP1 PUSH3 0x270 JUMP JUMPDEST DUP4 DUP6 ADD MLOAD DUP7 SSTORE DUP13 SWAP8 SWAP1 SWAP6 ADD SWAP5 SWAP4 DUP5 ADD SWAP4 ADD PUSH3 0x25D JUMP JUMPDEST SWAP1 SWAP2 POP DUP5 PUSH1 0x0 MSTORE DUP7 PUSH1 0x0 KECCAK256 DUP5 DUP1 DUP6 ADD PUSH1 0x5 SHR DUP3 ADD SWAP3 DUP10 DUP7 LT PUSH3 0x2FA JUMPI JUMPDEST SWAP2 DUP11 SWAP2 DUP7 SWAP6 SWAP5 SWAP4 ADD PUSH1 0x5 SHR ADD SWAP2 JUMPDEST DUP3 DUP2 LT PUSH3 0x2EA JUMPI POP POP PUSH3 0x62 JUMP JUMPDEST PUSH1 0x0 DUP2 SSTORE DUP6 SWAP5 POP DUP11 SWAP2 ADD PUSH3 0x2DA JUMP JUMPDEST SWAP3 POP DUP2 SWAP3 PUSH3 0x2CC JUMP JUMPDEST PUSH4 0x4E487B71 PUSH1 0xE0 SHL PUSH1 0x0 MSTORE PUSH1 0x22 PUSH1 0x4 MSTORE PUSH1 0x24 PUSH1 0x0 REVERT JUMPDEST SWAP2 PUSH1 0x7F AND SWAP2 PUSH3 0x48 JUMP JUMPDEST PUSH1 0x0 DUP1 REVERT JUMPDEST PUSH1 0x40 MLOAD SWAP1 PUSH1 0x20 DUP3 ADD PUSH1 0x1 PUSH1 0x1 PUSH1 0x40 SHL SUB DUP2 GT DUP4 DUP3 LT OR PUSH3 0x225 JUMPI PUSH1 0x40 MSTORE PUSH1 0x0 DUP3 MSTORE JUMP INVALID PUSH1 0x80 PUSH1 0x40 DUP2 DUP2 MSTORE PUSH1 0x4 SWAP2 DUP3 CALLDATASIZE LT ISZERO PUSH2 0x16 JUMPI PUSH1 0x0 DUP1 REVERT JUMPDEST PUSH1 0x0 SWAP3 DUP4 CALLDATALOAD PUSH1 0xE0 SHR SWAP2 DUP3 PUSH4 0x48B87BA EQ PUSH2 0x176B JUMPI POP DUP2 PUSH4 0x4E86903 EQ PUSH2 0xEDC JUMPI DUP2 PUSH4 0x6FDDE03 EQ PUSH2 0x1674 JUMPI DUP2 PUSH4 0x95EA7B3 EQ PUSH2 0x164A JUMPI DUP2 PUSH4 0x143B237F EQ PUSH2 0x1626 JUMPI DUP2 PUSH4 0x153B0D1E EQ PUSH2 0x1550 JUMPI DUP2 PUSH4 0x18160DDD EQ PUSH2 0x1531 JUMPI DUP2 PUSH4 0x23B872DD EQ PUSH2 0x14F4 JUMPI DUP2 PUSH4 0x313CE567 EQ PUSH2 0x14D8 JUMPI DUP2 PUSH4 0x3197CBB6 EQ PUSH2 0x14B9 JUMPI DUP2 PUSH4 0x32B47FAC EQ PUSH2 0x132E JUMPI DUP2 PUSH4 0x384711CC EQ PUSH2 0x6FB JUMPI DUP2 PUSH4 0x39509351 EQ PUSH2 0x12DE JUMPI DUP2 PUSH4 0x3F4BA83A EQ PUSH2 0x1292 JUMPI DUP2 PUSH4 0x3FD50EB8 EQ PUSH2 0x121B JUMPI DUP2 PUSH4 0x42966C68 EQ PUSH2 0x11FD JUMPI DUP2 PUSH4 0x42F39381 EQ PUSH2 0x11DE JUMPI DUP2 PUSH4 0x4AE01D52 EQ PUSH2 0x11BF JUMPI DUP2 PUSH4 0x5C975ABB EQ PUSH2 0x1198 JUMPI DUP2 PUSH4 0x644FAB74 EQ PUSH2 0x1090 JUMPI DUP2 PUSH4 0x70A08231 EQ PUSH2 0x1059 JUMPI DUP2 PUSH4 0x715018A6 EQ PUSH2 0xFFC JUMPI DUP2 PUSH4 0x78E97925 EQ PUSH2 0xFDD JUMPI DUP2 PUSH4 0x79CC6790 EQ PUSH2 0xFAD JUMPI DUP2 PUSH4 0x8456CB59 EQ PUSH2 0xF5C JUMPI DUP2 PUSH4 0x8D3D6576 EQ PUSH2 0xF3D JUMPI DUP2 PUSH4 0x8DA5CB5B EQ PUSH2 0xF14 JUMPI DUP2 PUSH4 0x8DF40BE8 EQ PUSH2 0xEDC JUMPI DUP2 PUSH4 0x906A26E0 EQ PUSH2 0xEBD JUMPI DUP2 PUSH4 0x95D89B41 EQ PUSH2 0xDB8 JUMPI DUP2 PUSH4 0xA457C2D7 EQ PUSH2 0xD10 JUMPI DUP2 PUSH4 0xA9059CBB EQ PUSH2 0xCDF JUMPI DUP2 PUSH4 0xAAFFADF3 EQ PUSH2 0xCC0 JUMPI DUP2 PUSH4 0xB8CAA4AA EQ PUSH2 0xCA1 JUMPI DUP2 PUSH4 0xBFFB691D EQ PUSH2 0xC7D JUMPI DUP2 PUSH4 0xC64B2F8C EQ PUSH2 0x75A JUMPI DUP2 PUSH4 0xCBA4CBD3 EQ PUSH2 0x733 JUMPI DUP2 PUSH4 0xD5A73FDD EQ PUSH2 0x6FB JUMPI DUP2 PUSH4 0xD5ABEB01 EQ PUSH2 0x6DC JUMPI DUP2 PUSH4 0xDBED1E88 EQ PUSH2 0x68B JUMPI DUP2 PUSH4 0xDD62ED3E EQ PUSH2 0x642 JUMPI DUP2 PUSH4 0xDE8AF791 EQ PUSH2 0x623 JUMPI DUP2 PUSH4 0xE74F3FBB EQ PUSH2 0x36E JUMPI DUP2 PUSH4 0xEA63FB26 EQ PUSH2 0x336 JUMPI DUP2 PUSH4 0xF2FDE38B EQ PUSH2 0x2A0 JUMPI POP DUP1 PUSH4 0xFB86A404 EQ PUSH2 0x282 JUMPI PUSH4 0xFE575A87 EQ PUSH2 0x22A JUMPI PUSH1 0x0 DUP1 REVERT JUMPDEST CALLVALUE PUSH2 0x27E JUMPI PUSH1 0x20 CALLDATASIZE PUSH1 0x3 NOT ADD SLT PUSH2 0x27E JUMPI SWAP1 PUSH1 0x20 SWAP2 PUSH2 0x247 PUSH2 0x1787 JUMP JUMPDEST SWAP2 PUSH1 0xFF PUSH1 0x8 SLOAD AND SWAP3 DUP4 PUSH2 0x25F JUMPI JUMPDEST POP POP MLOAD SWAP1 ISZERO ISZERO DUP2 MSTORE RETURN JUMPDEST PUSH1 0x1 PUSH1 0x1 PUSH1 0xA0 SHL SUB AND DUP2 MSTORE PUSH1 0x19 DUP5 MSTORE DUP2 SWAP1 KECCAK256 SLOAD PUSH1 0xFF AND SWAP2 POP CODESIZE DUP1 PUSH2 0x255 JUMP JUMPDEST POP DUP1 REVERT JUMPDEST POP CALLVALUE PUSH2 0x27E JUMPI DUP2 PUSH1 0x3 NOT CALLDATASIZE ADD SLT PUSH2 0x27E JUMPI PUSH1 0x20 SWAP1 PUSH1 0xB SLOAD SWAP1 MLOAD SWAP1 DUP2 MSTORE RETURN JUMPDEST SWAP1 POP CALLVALUE PUSH2 0x332 JUMPI PUSH1 0x20 CALLDATASIZE PUSH1 0x3 NOT ADD SLT PUSH2 0x332 JUMPI PUSH2 0x2BB PUSH2 0x1787 JUMP JUMPDEST SWAP2 PUSH2 0x2C4 PUSH2 0x1A36 JUMP JUMPDEST PUSH1 0x1 PUSH1 0x1 PUSH1 0xA0 SHL SUB DUP4 AND ISZERO PUSH2 0x2E0 JUMPI DUP4 PUSH2 0x2DD DUP5 PUSH2 0x1FAA JUMP JUMPDEST DUP1 RETURN JUMPDEST SWAP1 PUSH1 0x20 PUSH1 0x84 SWAP3 MLOAD SWAP2 PUSH3 0x461BCD PUSH1 0xE5 SHL DUP4 MSTORE DUP3 ADD MSTORE PUSH1 0x26 PUSH1 0x24 DUP3 ADD MSTORE PUSH32 0x4F776E61626C653A206E6577206F776E657220697320746865207A65726F2061 PUSH1 0x44 DUP3 ADD MSTORE PUSH6 0x646472657373 PUSH1 0xD0 SHL PUSH1 0x64 DUP3 ADD MSTORE REVERT JUMPDEST DUP3 DUP1 REVERT JUMPDEST POP POP CALLVALUE PUSH2 0x27E JUMPI PUSH1 0x20 CALLDATASIZE PUSH1 0x3 NOT ADD SLT PUSH2 0x27E JUMPI PUSH1 0x20 SWAP2 DUP2 SWAP1 PUSH1 0x1 PUSH1 0x1 PUSH1 0xA0 SHL SUB PUSH2 0x35E PUSH2 0x1787 JUMP JUMPDEST AND DUP2 MSTORE PUSH1 0x18 DUP5 MSTORE KECCAK256 SLOAD SWAP1 MLOAD SWAP1 DUP2 MSTORE RETURN JUMPDEST SWAP2 SWAP1 POP CALLVALUE PUSH2 0x332 JUMPI DUP3 PUSH1 0x3 NOT CALLDATASIZE ADD SLT PUSH2 0x332 JUMPI PUSH1 0x2 SWAP1 PUSH1 0x2 PUSH1 0x6 SLOAD EQ PUSH2 0x5E1 JUMPI PUSH1 0x2 PUSH1 0x6 SSTORE CALLER DUP5 MSTORE PUSH1 0x16 SWAP3 PUSH1 0x20 SWAP3 PUSH1 0x16 DUP5 MSTORE DUP3 DUP7 KECCAK256 SLOAD ISZERO PUSH2 0x5AA JUMPI DUP6 SWAP5 DUP7 SWAP2 PUSH1 0x15 SLOAD SWAP3 JUMPDEST DUP4 DUP2 LT PUSH2 0x45A JUMPI JUMPDEST POP POP POP POP DUP4 ISZERO PUSH2 0x419 JUMPI POP SWAP1 PUSH32 0x896E034966EAAF1ADC54ACC0F257056FEBBD300C9E47182CF761982CF1F5E430 SWAP2 CALLER DUP6 MSTORE PUSH1 0x17 DUP3 MSTORE DUP1 DUP6 KECCAK256 PUSH2 0x3FD DUP6 DUP3 SLOAD PUSH2 0x188A JUMP JUMPDEST SWAP1 SSTORE PUSH2 0x40A DUP5 CALLER ADDRESS PUSH2 0x1B26 JUMP JUMPDEST MLOAD SWAP3 DUP4 MSTORE CALLER SWAP3 LOG2 PUSH1 0x1 PUSH1 0x6 SSTORE DUP1 RETURN JUMPDEST DUP3 PUSH1 0x64 SWAP3 MLOAD SWAP2 PUSH3 0x461BCD PUSH1 0xE5 SHL DUP4 MSTORE DUP3 ADD MSTORE PUSH1 0x1C PUSH1 0x24 DUP3 ADD MSTORE PUSH32 0x4E6F20746F6B656E7320617661696C61626C6520746F20636C61696D00000000 PUSH1 0x44 DUP3 ADD MSTORE REVERT JUMPDEST PUSH2 0x463 DUP2 PUSH2 0x1801 JUMP JUMPDEST POP SLOAD PUSH1 0x1 PUSH1 0x1 PUSH1 0xA0 SHL SUB AND CALLER EQ DUP1 PUSH2 0x594 JUMPI JUMPDEST PUSH2 0x482 JUMPI PUSH1 0x1 ADD PUSH2 0x3B2 JUMP JUMPDEST SWAP3 POP POP SWAP2 SWAP5 POP CALLER DUP7 MSTORE PUSH1 0x18 DUP1 DUP6 MSTORE PUSH2 0x4AA DUP5 DUP9 KECCAK256 SLOAD DUP8 PUSH2 0x4A1 DUP6 PUSH2 0x1801 JUMP JUMPDEST POP ADD SLOAD SWAP1 PUSH2 0x188A JUMP JUMPDEST TIMESTAMP LT PUSH2 0x55A JUMPI CALLER DUP8 MSTORE DUP5 MSTORE PUSH2 0x4C2 DUP4 DUP8 KECCAK256 SLOAD TIMESTAMP PUSH2 0x1927 JUMP JUMPDEST PUSH2 0x4CB DUP3 PUSH2 0x1801 JUMP JUMPDEST POP PUSH1 0x3 SWAP1 DUP2 ADD SLOAD SWAP1 SWAP2 SWAP1 DUP2 LT PUSH2 0x503 JUMPI POP POP POP CALLER DUP6 MSTORE DUP3 MSTORE PUSH2 0x4F8 DUP2 DUP6 KECCAK256 SLOAD PUSH1 0x17 DUP5 MSTORE DUP3 DUP7 KECCAK256 SLOAD SWAP1 PUSH2 0x1927 JUMP JUMPDEST SWAP3 JUMPDEST CODESIZE DUP1 DUP1 DUP1 PUSH2 0x3BA JUMP JUMPDEST PUSH2 0x51B SWAP1 PUSH2 0x521 SWAP3 SWAP4 SWAP5 CALLER DUP11 MSTORE DUP8 MSTORE DUP6 DUP10 KECCAK256 SLOAD PUSH2 0x1914 JUMP JUMPDEST SWAP3 PUSH2 0x1801 JUMP JUMPDEST POP ADD SLOAD DUP1 ISZERO PUSH2 0x547 JUMPI SWAP1 PUSH2 0x541 SWAP2 CALLER DUP8 MSTORE PUSH1 0x17 DUP6 MSTORE DUP4 DUP8 KECCAK256 SLOAD SWAP2 DIV PUSH2 0x1927 JUMP JUMPDEST SWAP3 PUSH2 0x4FA JUMP JUMPDEST PUSH4 0x4E487B71 PUSH1 0xE0 SHL DUP7 MSTORE PUSH1 0x12 DUP6 MSTORE PUSH1 0x24 DUP7 REVERT JUMPDEST PUSH1 0x64 DUP7 DUP5 DUP8 DUP8 MLOAD SWAP3 PUSH3 0x461BCD PUSH1 0xE5 SHL DUP5 MSTORE DUP4 ADD MSTORE PUSH1 0x24 DUP3 ADD MSTORE PUSH22 0x10DB1A5999881C195C9A5BD9081B9BDD08195B991959 PUSH1 0x52 SHL PUSH1 0x44 DUP3 ADD MSTORE REVERT JUMPDEST POP PUSH1 0xFF DUP3 PUSH2 0x5A1 DUP4 PUSH2 0x1801 JUMP JUMPDEST POP ADD SLOAD AND PUSH2 0x476 JUMP JUMPDEST POP DUP3 PUSH1 0x64 SWAP3 MLOAD SWAP2 PUSH3 0x461BCD PUSH1 0xE5 SHL DUP4 MSTORE DUP3 ADD MSTORE PUSH1 0x12 PUSH1 0x24 DUP3 ADD MSTORE PUSH18 0x4E6F20746F6B656E7320746F20636C61696D PUSH1 0x70 SHL PUSH1 0x44 DUP3 ADD MSTORE REVERT JUMPDEST MLOAD PUSH3 0x461BCD PUSH1 0xE5 SHL DUP2 MSTORE PUSH1 0x20 DUP2 DUP5 ADD MSTORE PUSH1 0x1F PUSH1 0x24 DUP3 ADD MSTORE PUSH32 0x5265656E7472616E637947756172643A207265656E7472616E742063616C6C00 PUSH1 0x44 DUP3 ADD MSTORE PUSH1 0x64 SWAP1 REVERT JUMPDEST POP POP CALLVALUE PUSH2 0x27E JUMPI DUP2 PUSH1 0x3 NOT CALLDATASIZE ADD SLT PUSH2 0x27E JUMPI PUSH1 0x20 SWAP1 PUSH1 0x10 SLOAD SWAP1 MLOAD SWAP1 DUP2 MSTORE RETURN JUMPDEST POP POP CALLVALUE PUSH2 0x27E JUMPI DUP1 PUSH1 0x3 NOT CALLDATASIZE ADD SLT PUSH2 0x27E JUMPI DUP1 PUSH1 0x20 SWAP3 PUSH2 0x660 PUSH2 0x1787 JUMP JUMPDEST PUSH2 0x668 PUSH2 0x17A2 JUMP JUMPDEST PUSH1 0x1 PUSH1 0x1 PUSH1 0xA0 SHL SUB SWAP2 DUP3 AND DUP4 MSTORE PUSH1 0x1 DUP7 MSTORE DUP4 DUP4 KECCAK256 SWAP2 AND DUP3 MSTORE DUP5 MSTORE KECCAK256 SLOAD SWAP1 MLOAD SWAP1 DUP2 MSTORE RETURN JUMPDEST POP POP CALLVALUE PUSH2 0x27E JUMPI PUSH1 0x20 CALLDATASIZE PUSH1 0x3 NOT ADD SLT PUSH2 0x27E JUMPI DUP1 PUSH1 0x20 SWAP3 PUSH2 0x6AA PUSH2 0x1787 JUMP JUMPDEST PUSH1 0xFF PUSH1 0x8 SLOAD PUSH1 0x8 SHR AND PUSH1 0x0 EQ PUSH2 0x6D3 JUMPI PUSH1 0x1 PUSH1 0x1 PUSH1 0xA0 SHL SUB AND DUP2 MSTORE PUSH1 0x1A DUP5 MSTORE KECCAK256 SLOAD SWAP1 JUMPDEST MLOAD SWAP1 DUP2 MSTORE RETURN JUMPDEST POP SWAP1 POP SWAP1 PUSH2 0x6CD JUMP JUMPDEST POP POP CALLVALUE PUSH2 0x27E JUMPI DUP2 PUSH1 0x3 NOT CALLDATASIZE ADD SLT PUSH2 0x27E JUMPI PUSH1 0x20 SWAP1 PUSH1 0x7 SLOAD SWAP1 MLOAD SWAP1 DUP2 MSTORE RETURN JUMPDEST POP POP CALLVALUE PUSH2 0x27E JUMPI PUSH1 0x20 CALLDATASIZE PUSH1 0x3 NOT ADD SLT PUSH2 0x27E JUMPI PUSH1 0x20 SWAP2 DUP2 SWAP1 PUSH1 0x1 PUSH1 0x1 PUSH1 0xA0 SHL SUB PUSH2 0x723 PUSH2 0x1787 JUMP JUMPDEST AND DUP2 MSTORE PUSH1 0x16 DUP5 MSTORE KECCAK256 SLOAD SWAP1 MLOAD SWAP1 DUP2 MSTORE RETURN JUMPDEST POP POP CALLVALUE PUSH2 0x27E JUMPI DUP2 PUSH1 0x3 NOT CALLDATASIZE ADD SLT PUSH2 0x27E JUMPI PUSH1 0x20 SWAP1 PUSH1 0xFF PUSH1 0x8 SLOAD PUSH1 0x8 SHR AND SWAP1 MLOAD SWAP1 ISZERO ISZERO DUP2 MSTORE RETURN JUMPDEST SWAP1 POP CALLVALUE PUSH2 0x332 JUMPI PUSH1 0x20 SWAP2 PUSH1 0x3 NOT SWAP1 DUP4 DUP3 CALLDATASIZE ADD SLT PUSH2 0xC79 JUMPI DUP3 CALLDATALOAD SWAP4 PUSH8 0xFFFFFFFFFFFFFFFF DUP6 GT PUSH2 0xC75 JUMPI PUSH2 0x280 DUP6 DUP6 ADD SWAP4 DUP7 CALLDATASIZE SUB ADD SLT PUSH2 0xC75 JUMPI PUSH1 0x2 SWAP4 PUSH1 0x2 SLOAD DUP1 PUSH2 0xC3D JUMPI PUSH1 0x44 DUP8 ADD CALLDATALOAD SWAP1 ADDRESS ISZERO PUSH2 0xBFA JUMPI PUSH1 0x8 SLOAD SWAP1 PUSH1 0xFF SWAP2 DUP3 DUP2 PUSH1 0x10 SHR AND PUSH2 0xBB7 JUMPI DUP3 DUP2 DUP2 DUP7 SWAP4 AND PUSH2 0xB47 JUMPI JUMPDEST PUSH1 0x8 SHR AND PUSH2 0xAF3 JUMPI JUMPDEST PUSH2 0x7D8 SWAP2 PUSH2 0x188A JUMP JUMPDEST PUSH1 0x2 SSTORE ADDRESS DUP10 MSTORE DUP9 DUP5 MSTORE DUP5 DUP10 KECCAK256 DUP3 DUP2 SLOAD ADD SWAP1 SSTORE DUP5 MLOAD DUP3 DUP2 MSTORE DUP10 PUSH32 0xDDF252AD1BE2C89B69C2B068FC378DAA952BA7F163C4A11628F55A4DF523B3EF DUP7 ADDRESS SWAP4 LOG3 PUSH1 0x64 SWAP1 PUSH1 0x64 DUP10 ADD CALLDATALOAD PUSH1 0x7 SSTORE PUSH2 0x82C PUSH1 0xA4 DUP11 ADD PUSH2 0x18AD JUMP JUMPDEST ISZERO ISZERO DUP10 DUP3 PUSH2 0xFF00 PUSH2 0x842 PUSH1 0xC4 PUSH1 0x8 SLOAD SWAP5 ADD PUSH2 0x18AD JUMP JUMPDEST ISZERO ISZERO PUSH1 0x8 SHL AND SWAP3 AND SWAP1 PUSH2 0xFFFF NOT AND OR OR PUSH1 0x8 SSTORE PUSH1 0xE4 DUP10 ADD CALLDATALOAD PUSH1 0x9 SSTORE PUSH2 0x104 DUP10 ADD CALLDATALOAD PUSH1 0xA SSTORE PUSH2 0x124 DUP10 ADD CALLDATALOAD PUSH1 0xB SSTORE PUSH2 0x144 DUP10 ADD CALLDATALOAD PUSH1 0xC SSTORE PUSH2 0x164 DUP10 ADD CALLDATALOAD PUSH1 0xD SSTORE PUSH2 0x184 DUP10 ADD CALLDATALOAD PUSH1 0xE SSTORE PUSH2 0x1A4 DUP10 ADD CALLDATALOAD PUSH1 0xF SSTORE PUSH2 0x1C4 DUP10 ADD CALLDATALOAD PUSH1 0x10 SSTORE PUSH2 0x1E4 DUP10 ADD CALLDATALOAD PUSH1 0x11 SSTORE PUSH2 0x204 DUP10 ADD CALLDATALOAD PUSH1 0x12 SSTORE PUSH2 0x244 DUP10 ADD CALLDATALOAD PUSH1 0x13 SSTORE PUSH2 0x8C4 PUSH2 0x264 DUP11 ADD PUSH2 0x18AD JUMP JUMPDEST ISZERO ISZERO SWAP1 PUSH1 0xFF NOT PUSH1 0x14 SLOAD AND SWAP2 AND OR PUSH1 0x14 SSTORE PUSH2 0x224 DUP9 ADD SWAP2 PUSH2 0x8E4 DUP4 DUP9 PUSH2 0x18BA JUMP JUMPDEST SWAP1 POP PUSH2 0x900 JUMPI JUMPDEST DUP10 PUSH2 0x2DD PUSH2 0x8FB PUSH1 0x84 DUP13 ADD PUSH2 0x1900 JUMP JUMPDEST PUSH2 0x1FAA JUMP JUMPDEST DUP10 SWAP6 SWAP7 SWAP8 SWAP10 JUMPDEST PUSH2 0x910 DUP5 DUP11 PUSH2 0x18BA JUMP JUMPDEST SWAP1 POP DUP2 LT ISZERO PUSH2 0xAD7 JUMPI PUSH2 0x92D DUP2 PUSH2 0x927 DUP7 DUP13 PUSH2 0x18BA JUMP JUMPDEST SWAP1 PUSH2 0x18F0 JUMP JUMPDEST PUSH1 0x15 SWAP1 DUP2 SLOAD PUSH9 0x10000000000000000 DUP2 LT ISZERO PUSH2 0xAC4 JUMPI PUSH2 0x954 SWAP1 PUSH1 0x1 SWAP4 DUP5 DUP3 ADD SWAP1 SSTORE PUSH2 0x1801 JUMP JUMPDEST PUSH2 0xAB2 JUMPI SWAP2 DUP9 DUP13 SWAP3 DUP16 SWAP5 DUP13 SWAP7 SWAP6 DUP15 PUSH1 0x1 PUSH1 0xA0 SHL PUSH1 0x1 SWAP1 SUB SWAP6 DUP7 PUSH2 0x976 DUP7 PUSH2 0x1900 JUMP JUMPDEST DUP6 SLOAD PUSH1 0x1 PUSH1 0x1 PUSH1 0xA0 SHL SUB NOT AND SWAP2 AND OR DUP5 SSTORE DUP5 DUP7 ADD CALLDATALOAD SWAP1 DUP5 ADD SSTORE PUSH2 0x99A SWAP1 DUP5 ADD PUSH2 0x18AD JUMP JUMPDEST SWAP1 DUP3 ADD SWAP1 PUSH2 0x9B3 SWAP2 SWAP1 PUSH1 0xFF DUP1 NOT DUP4 SLOAD AND SWAP2 ISZERO ISZERO AND OR SWAP1 SSTORE JUMP JUMPDEST PUSH1 0x60 DUP3 ADD CALLDATALOAD PUSH1 0x3 DUP3 ADD SSTORE PUSH1 0x80 DUP3 ADD CALLDATALOAD DUP12 DUP3 ADD SSTORE PUSH1 0xA0 DUP1 SWAP3 ADD CALLDATALOAD SWAP1 PUSH1 0x5 ADD SSTORE DUP5 DUP14 DUP11 DUP11 DUP3 DUP5 PUSH2 0x9E1 DUP5 DUP12 PUSH2 0x18BA JUMP JUMPDEST PUSH2 0x9EB SWAP3 SWAP2 PUSH2 0x18F0 JUMP JUMPDEST ADD PUSH2 0x9F5 SWAP1 PUSH2 0x18AD JUMP JUMPDEST PUSH1 0x1 SWAP11 SWAP1 ISZERO PUSH2 0xA6E JUMPI PUSH2 0xA5C SWAP7 DUP10 PUSH2 0x927 SWAP6 PUSH2 0xA55 SWAP4 DUP12 PUSH2 0xA36 PUSH2 0xA31 DUP12 PUSH2 0x927 DUP12 PUSH2 0xA31 SWAP16 PUSH2 0xA29 DUP5 PUSH2 0x927 DUP5 DUP14 PUSH2 0x18BA JUMP JUMPDEST ADD CALLDATALOAD SWAP9 PUSH2 0x18BA JUMP JUMPDEST PUSH2 0x1900 JUMP JUMPDEST AND DUP2 MSTORE PUSH1 0x18 DUP5 MSTORE KECCAK256 SSTORE PUSH2 0xA4D DUP7 PUSH2 0x927 DUP7 DUP14 PUSH2 0x18BA JUMP JUMPDEST ADD CALLDATALOAD DUP13 PUSH2 0x1914 JUMP JUMPDEST DIV SWAP7 PUSH2 0x18BA JUMP JUMPDEST AND DUP10 MSTORE PUSH1 0x16 DUP9 MSTORE DUP10 DUP10 KECCAK256 SSTORE JUMPDEST ADD PUSH2 0x906 JUMP JUMPDEST POP SWAP5 SWAP3 SWAP1 DUP8 SWAP7 POP PUSH2 0xAA5 SWAP5 POP PUSH2 0xA9D SWAP3 POP DUP1 PUSH2 0xA97 PUSH2 0xA31 DUP5 PUSH2 0x927 PUSH2 0x927 SWAP6 PUSH2 0xAAD SWAP14 PUSH2 0x18BA JUMP JUMPDEST SWAP8 PUSH2 0x18BA JUMP JUMPDEST ADD CALLDATALOAD DUP8 PUSH2 0x1914 JUMP JUMPDEST DIV SWAP1 ADDRESS PUSH2 0x1B26 JUMP JUMPDEST PUSH2 0xA68 JUMP JUMPDEST PUSH4 0x4E487B71 PUSH1 0xE0 SHL DUP11 MSTORE DUP10 DUP9 MSTORE PUSH1 0x24 DUP11 REVERT JUMPDEST PUSH4 0x4E487B71 PUSH1 0xE0 SHL DUP11 MSTORE PUSH1 0x41 DUP9 MSTORE PUSH1 0x24 DUP11 REVERT JUMPDEST POP POP POP POP POP POP SWAP4 POP POP POP PUSH2 0x8FB PUSH1 0x84 PUSH2 0x2DD CODESIZE DUP1 DUP1 DUP1 DUP1 PUSH2 0x8EB JUMP JUMPDEST POP DUP10 DUP1 MSTORE PUSH1 0x1A DUP6 MSTORE DUP6 DUP11 KECCAK256 SLOAD TIMESTAMP LT PUSH2 0xB0B JUMPI DUP3 PUSH2 0x7CF JUMP JUMPDEST DUP6 MLOAD PUSH3 0x461BCD PUSH1 0xE5 SHL DUP2 MSTORE DUP1 DUP6 ADD DUP7 SWAP1 MSTORE PUSH1 0x16 PUSH1 0x24 DUP3 ADD MSTORE PUSH22 0x151BDAD95B9CC8185C99481D1A5B594B5B1BD8DAD959 PUSH1 0x52 SHL PUSH1 0x44 DUP3 ADD MSTORE PUSH1 0x64 SWAP1 REVERT JUMPDEST SWAP2 POP POP DUP11 DUP1 MSTORE PUSH1 0x19 DUP7 MSTORE DUP3 DUP8 DUP13 KECCAK256 SLOAD AND ISZERO DUP1 PUSH2 0xBA7 JUMPI JUMPDEST ISZERO PUSH2 0xB6B JUMPI DUP3 DUP5 SWAP2 PUSH2 0x7C6 JUMP JUMPDEST DUP7 MLOAD PUSH3 0x461BCD PUSH1 0xE5 SHL DUP2 MSTORE DUP1 DUP7 ADD DUP8 SWAP1 MSTORE PUSH1 0x16 PUSH1 0x24 DUP3 ADD MSTORE PUSH22 0x1059191C995CDCC81A5CC8189B1858DADB1A5CDD1959 PUSH1 0x52 SHL PUSH1 0x44 DUP3 ADD MSTORE PUSH1 0x64 SWAP1 REVERT JUMPDEST POP ADDRESS DUP12 MSTORE DUP3 DUP8 DUP13 KECCAK256 SLOAD AND ISZERO PUSH2 0xB5E JUMP JUMPDEST DUP7 MLOAD PUSH3 0x461BCD PUSH1 0xE5 SHL DUP2 MSTORE DUP1 DUP7 ADD DUP8 SWAP1 MSTORE PUSH1 0x1B PUSH1 0x24 DUP3 ADD MSTORE PUSH32 0x546F6B656E207472616E73666572207768696C65207061757365640000000000 PUSH1 0x44 DUP3 ADD MSTORE PUSH1 0x64 SWAP1 REVERT JUMPDEST DUP5 MLOAD PUSH3 0x461BCD PUSH1 0xE5 SHL DUP2 MSTORE DUP1 DUP5 ADD DUP6 SWAP1 MSTORE PUSH1 0x1F PUSH1 0x24 DUP3 ADD MSTORE PUSH32 0x45524332303A206D696E7420746F20746865207A65726F206164647265737300 PUSH1 0x44 DUP3 ADD MSTORE PUSH1 0x64 SWAP1 REVERT JUMPDEST POP SWAP2 MLOAD PUSH3 0x461BCD PUSH1 0xE5 SHL DUP2 MSTORE SWAP2 DUP3 ADD MSTORE PUSH1 0x13 PUSH1 0x24 DUP3 ADD MSTORE PUSH19 0x105B1C9958591E481A5B9A5D1A585B1A5E9959 PUSH1 0x6A SHL PUSH1 0x44 DUP3 ADD MSTORE PUSH1 0x64 SWAP1 REVERT JUMPDEST DUP6 DUP1 REVERT JUMPDEST DUP5 DUP1 REVERT JUMPDEST POP POP CALLVALUE PUSH2 0x27E JUMPI DUP2 PUSH1 0x3 NOT CALLDATASIZE ADD SLT PUSH2 0x27E JUMPI PUSH1 0x20 SWAP1 PUSH1 0xFF PUSH1 0x8 SLOAD AND SWAP1 MLOAD SWAP1 ISZERO ISZERO DUP2 MSTORE RETURN JUMPDEST POP POP CALLVALUE PUSH2 0x27E JUMPI DUP2 PUSH1 0x3 NOT CALLDATASIZE ADD SLT PUSH2 0x27E JUMPI PUSH1 0x20 SWAP1 PUSH1 0x13 SLOAD SWAP1 MLOAD SWAP1 DUP2 MSTORE RETURN JUMPDEST POP POP CALLVALUE PUSH2 0x27E JUMPI DUP2 PUSH1 0x3 NOT CALLDATASIZE ADD SLT PUSH2 0x27E JUMPI PUSH1 0x20 SWAP1 PUSH1 0xC SLOAD SWAP1 MLOAD SWAP1 DUP2 MSTORE RETURN JUMPDEST POP POP CALLVALUE PUSH2 0x27E JUMPI DUP1 PUSH1 0x3 NOT CALLDATASIZE ADD SLT PUSH2 0x27E JUMPI PUSH1 0x20 SWAP1 PUSH2 0xD09 PUSH2 0xCFF PUSH2 0x1787 JUMP JUMPDEST PUSH1 0x24 CALLDATALOAD SWAP1 CALLER PUSH2 0x1B26 JUMP JUMPDEST MLOAD PUSH1 0x1 DUP2 MSTORE RETURN JUMPDEST SWAP1 POP DUP3 CALLVALUE PUSH2 0xDB5 JUMPI DUP3 PUSH1 0x3 NOT CALLDATASIZE ADD SLT PUSH2 0xDB5 JUMPI PUSH2 0xD2B PUSH2 0x1787 JUMP JUMPDEST SWAP2 DUP4 PUSH1 0x24 CALLDATALOAD SWAP3 CALLER DUP2 MSTORE PUSH1 0x1 PUSH1 0x20 MSTORE DUP2 DUP2 KECCAK256 PUSH1 0x1 DUP1 PUSH1 0xA0 SHL SUB DUP7 AND DUP3 MSTORE PUSH1 0x20 MSTORE KECCAK256 SLOAD SWAP1 DUP3 DUP3 LT PUSH2 0xD64 JUMPI PUSH1 0x20 DUP6 PUSH2 0xD09 DUP6 DUP6 SUB DUP8 CALLER PUSH2 0x1934 JUMP JUMPDEST PUSH1 0x84 SWAP1 PUSH1 0x20 DUP7 MLOAD SWAP2 PUSH3 0x461BCD PUSH1 0xE5 SHL DUP4 MSTORE DUP3 ADD MSTORE PUSH1 0x25 PUSH1 0x24 DUP3 ADD MSTORE PUSH32 0x45524332303A2064656372656173656420616C6C6F77616E63652062656C6F77 PUSH1 0x44 DUP3 ADD MSTORE PUSH5 0x207A65726F PUSH1 0xD8 SHL PUSH1 0x64 DUP3 ADD MSTORE REVERT JUMPDEST DUP1 REVERT JUMPDEST DUP4 DUP4 CALLVALUE PUSH2 0x27E JUMPI DUP2 PUSH1 0x3 NOT CALLDATASIZE ADD SLT PUSH2 0x27E JUMPI DUP1 MLOAD SWAP2 DUP1 SWAP4 DUP1 SLOAD SWAP2 PUSH1 0x1 SWAP1 DUP4 PUSH1 0x1 SHR SWAP3 PUSH1 0x1 DUP6 AND SWAP5 DUP6 ISZERO PUSH2 0xEB3 JUMPI JUMPDEST PUSH1 0x20 SWAP6 DUP7 DUP7 LT DUP2 EQ PUSH2 0xEA0 JUMPI DUP6 DUP10 MSTORE SWAP1 DUP2 ISZERO PUSH2 0xE7C JUMPI POP PUSH1 0x1 EQ PUSH2 0xE24 JUMPI JUMPDEST PUSH2 0xE20 DUP8 DUP8 PUSH2 0xE16 DUP3 DUP13 SUB DUP4 PUSH2 0x1852 JUMP JUMPDEST MLOAD SWAP2 DUP3 SWAP2 DUP3 PUSH2 0x17B8 JUMP JUMPDEST SUB SWAP1 RETURN JUMPDEST DUP2 MSTORE SWAP3 SWAP6 POP PUSH32 0x8A35ACFBC15FF81A39AE7D344FD709F28E8600B4AA8C65C6B64BFE7FE36BD19B JUMPDEST DUP3 DUP5 LT PUSH2 0xE69 JUMPI POP POP POP DUP3 PUSH2 0xE20 SWAP5 PUSH2 0xE16 SWAP3 DUP3 ADD ADD SWAP5 DUP7 DUP1 PUSH2 0xE05 JUMP JUMPDEST DUP1 SLOAD DUP7 DUP6 ADD DUP9 ADD MSTORE SWAP3 DUP7 ADD SWAP3 DUP2 ADD PUSH2 0xE4B JUMP JUMPDEST PUSH1 0xFF NOT AND DUP9 DUP8 ADD MSTORE POP POP POP POP ISZERO ISZERO PUSH1 0x5 SHL DUP4 ADD ADD SWAP3 POP PUSH2 0xE16 DUP3 PUSH2 0xE20 DUP7 DUP1 PUSH2 0xE05 JUMP JUMPDEST PUSH4 0x4E487B71 PUSH1 0xE0 SHL DUP5 MSTORE PUSH1 0x22 DUP4 MSTORE PUSH1 0x24 DUP5 REVERT JUMPDEST SWAP4 PUSH1 0x7F AND SWAP4 PUSH2 0xDE6 JUMP JUMPDEST POP POP CALLVALUE PUSH2 0x27E JUMPI DUP2 PUSH1 0x3 NOT CALLDATASIZE ADD SLT PUSH2 0x27E JUMPI PUSH1 0x20 SWAP1 PUSH1 0xA SLOAD SWAP1 MLOAD SWAP1 DUP2 MSTORE RETURN JUMPDEST POP POP CALLVALUE PUSH2 0x27E JUMPI PUSH1 0x20 CALLDATASIZE PUSH1 0x3 NOT ADD SLT PUSH2 0x27E JUMPI PUSH1 0x20 SWAP2 DUP2 SWAP1 PUSH1 0x1 PUSH1 0x1 PUSH1 0xA0 SHL SUB PUSH2 0xF04 PUSH2 0x1787 JUMP JUMPDEST AND DUP2 MSTORE PUSH1 0x17 DUP5 MSTORE KECCAK256 SLOAD SWAP1 MLOAD SWAP1 DUP2 MSTORE RETURN JUMPDEST POP POP CALLVALUE PUSH2 0x27E JUMPI DUP2 PUSH1 0x3 NOT CALLDATASIZE ADD SLT PUSH2 0x27E JUMPI PUSH1 0x5 SLOAD SWAP1 MLOAD PUSH1 0x1 PUSH1 0x1 PUSH1 0xA0 SHL SUB SWAP1 SWAP2 AND DUP2 MSTORE PUSH1 0x20 SWAP1 RETURN JUMPDEST POP POP CALLVALUE PUSH2 0x27E JUMPI DUP2 PUSH1 0x3 NOT CALLDATASIZE ADD SLT PUSH2 0x27E JUMPI PUSH1 0x20 SWAP1 PUSH1 0xD SLOAD SWAP1 MLOAD SWAP1 DUP2 MSTORE RETURN JUMPDEST DUP4 CALLVALUE PUSH2 0xDB5 JUMPI DUP1 PUSH1 0x3 NOT CALLDATASIZE ADD SLT PUSH2 0xDB5 JUMPI PUSH2 0xF75 PUSH2 0x1A36 JUMP JUMPDEST PUSH3 0x10000 PUSH3 0xFF0000 NOT PUSH1 0x8 SLOAD AND OR PUSH1 0x8 SSTORE PUSH32 0x9E87FAC88FF661F02D44F95383C817FECE4BCE600A3DAB7A54406878B965E752 DUP2 DUP1 LOG1 DUP1 RETURN JUMPDEST POP POP CALLVALUE PUSH2 0x27E JUMPI CALLDATASIZE PUSH1 0x3 NOT ADD SLT PUSH2 0xDB5 JUMPI PUSH2 0x2DD PUSH2 0xFC9 PUSH2 0x1787 JUMP JUMPDEST PUSH1 0x24 CALLDATALOAD SWAP1 PUSH2 0xFD8 DUP3 CALLER DUP4 PUSH2 0x1A8E JUMP JUMPDEST PUSH2 0x1DBE JUMP JUMPDEST POP POP CALLVALUE PUSH2 0x27E JUMPI DUP2 PUSH1 0x3 NOT CALLDATASIZE ADD SLT PUSH2 0x27E JUMPI PUSH1 0x20 SWAP1 PUSH1 0xE SLOAD SWAP1 MLOAD SWAP1 DUP2 MSTORE RETURN JUMPDEST DUP4 CALLVALUE PUSH2 0xDB5 JUMPI DUP1 PUSH1 0x3 NOT CALLDATASIZE ADD SLT PUSH2 0xDB5 JUMPI PUSH2 0x1015 PUSH2 0x1A36 JUMP JUMPDEST PUSH1 0x5 DUP1 SLOAD PUSH1 0x1 PUSH1 0x1 PUSH1 0xA0 SHL SUB NOT DUP2 AND SWAP1 SWAP2 SSTORE DUP2 SWAP1 PUSH1 0x1 PUSH1 0x1 PUSH1 0xA0 SHL SUB AND PUSH32 0x8BE0079C531659141344CD1FD0A4F28419497F9722A3DAAFE3B4186F6B6457E0 DUP3 DUP1 LOG3 DUP1 RETURN JUMPDEST POP POP CALLVALUE PUSH2 0x27E JUMPI PUSH1 0x20 CALLDATASIZE PUSH1 0x3 NOT ADD SLT PUSH2 0x27E JUMPI PUSH1 0x20 SWAP2 DUP2 SWAP1 PUSH1 0x1 PUSH1 0x1 PUSH1 0xA0 SHL SUB PUSH2 0x1081 PUSH2 0x1787 JUMP JUMPDEST AND DUP2 MSTORE DUP1 DUP5 MSTORE KECCAK256 SLOAD SWAP1 MLOAD SWAP1 DUP2 MSTORE RETURN JUMPDEST SWAP1 POP CALLVALUE PUSH2 0x332 JUMPI DUP2 PUSH1 0x3 NOT CALLDATASIZE ADD SLT PUSH2 0x332 JUMPI PUSH2 0x10AA PUSH2 0x1787 JUMP JUMPDEST PUSH1 0x24 CALLDATALOAD SWAP2 PUSH2 0x10B6 PUSH2 0x1A36 JUMP JUMPDEST PUSH1 0xFF PUSH1 0x8 SLOAD PUSH1 0x8 SHR AND ISZERO PUSH2 0x1155 JUMPI TIMESTAMP DUP4 GT ISZERO PUSH2 0x1112 JUMPI POP PUSH1 0x1 PUSH1 0x1 PUSH1 0xA0 SHL SUB AND DUP1 DUP5 MSTORE PUSH1 0x1A PUSH1 0x20 SWAP1 DUP2 MSTORE DUP4 DUP6 KECCAK256 DUP4 SWAP1 SSTORE SWAP3 MLOAD SWAP2 DUP3 MSTORE SWAP2 PUSH32 0xA9353E70F07F31E7F4E16464F45E189CBD22826780A5ABE4DA8303652A86960A SWAP2 LOG2 DUP1 RETURN JUMPDEST PUSH1 0x64 SWAP1 PUSH1 0x20 DUP6 MLOAD SWAP2 PUSH3 0x461BCD PUSH1 0xE5 SHL DUP4 MSTORE DUP3 ADD MSTORE PUSH1 0x1D PUSH1 0x24 DUP3 ADD MSTORE PUSH32 0x556E6C6F636B2074696D65206D75737420626520696E20667574757265000000 PUSH1 0x44 DUP3 ADD MSTORE REVERT JUMPDEST PUSH1 0x64 SWAP1 PUSH1 0x20 DUP6 MLOAD SWAP2 PUSH3 0x461BCD PUSH1 0xE5 SHL DUP4 MSTORE DUP3 ADD MSTORE PUSH1 0x18 PUSH1 0x24 DUP3 ADD MSTORE PUSH32 0x54696D65206C6F636B206973206E6F7420656E61626C65640000000000000000 PUSH1 0x44 DUP3 ADD MSTORE REVERT JUMPDEST POP POP CALLVALUE PUSH2 0x27E JUMPI DUP2 PUSH1 0x3 NOT CALLDATASIZE ADD SLT PUSH2 0x27E JUMPI PUSH1 0x20 SWAP1 PUSH1 0xFF PUSH1 0x8 SLOAD PUSH1 0x10 SHR AND SWAP1 MLOAD SWAP1 ISZERO ISZERO DUP2 MSTORE RETURN JUMPDEST POP POP CALLVALUE PUSH2 0x27E JUMPI DUP2 PUSH1 0x3 NOT CALLDATASIZE ADD SLT PUSH2 0x27E JUMPI PUSH1 0x20 SWAP1 PUSH1 0x12 SLOAD SWAP1 MLOAD SWAP1 DUP2 MSTORE RETURN JUMPDEST POP POP CALLVALUE PUSH2 0x27E JUMPI DUP2 PUSH1 0x3 NOT CALLDATASIZE ADD SLT PUSH2 0x27E JUMPI PUSH1 0x20 SWAP1 PUSH1 0x9 SLOAD SWAP1 MLOAD SWAP1 DUP2 MSTORE RETURN JUMPDEST DUP4 SWAP1 CALLVALUE PUSH2 0x27E JUMPI PUSH1 0x20 CALLDATASIZE PUSH1 0x3 NOT ADD SLT PUSH2 0x27E JUMPI PUSH2 0x2DD SWAP1 CALLDATALOAD CALLER PUSH2 0x1DBE JUMP JUMPDEST SWAP2 SWAP1 POP CALLVALUE PUSH2 0x332 JUMPI PUSH1 0x20 CALLDATASIZE PUSH1 0x3 NOT ADD SLT PUSH2 0x332 JUMPI DUP2 CALLDATALOAD SWAP3 PUSH1 0x15 SLOAD DUP5 LT ISZERO PUSH2 0xDB5 JUMPI POP PUSH2 0x1248 PUSH1 0xC0 SWAP4 PUSH2 0x1801 JUMP JUMPDEST POP PUSH1 0x1 DUP1 PUSH1 0xA0 SHL SUB DUP2 SLOAD AND SWAP3 PUSH1 0x1 DUP3 ADD SLOAD SWAP3 PUSH1 0xFF PUSH1 0x2 DUP5 ADD SLOAD AND PUSH1 0x5 PUSH1 0x3 DUP6 ADD SLOAD SWAP4 DUP6 ADD SLOAD SWAP5 ADD SLOAD SWAP5 DUP3 MLOAD SWAP7 DUP8 MSTORE PUSH1 0x20 DUP8 ADD MSTORE ISZERO ISZERO SWAP1 DUP6 ADD MSTORE PUSH1 0x60 DUP5 ADD MSTORE PUSH1 0x80 DUP4 ADD MSTORE PUSH1 0xA0 DUP3 ADD MSTORE RETURN JUMPDEST DUP4 CALLVALUE PUSH2 0xDB5 JUMPI DUP1 PUSH1 0x3 NOT CALLDATASIZE ADD SLT PUSH2 0xDB5 JUMPI PUSH2 0x12AB PUSH2 0x1A36 JUMP JUMPDEST PUSH3 0xFF0000 NOT PUSH1 0x8 SLOAD AND PUSH1 0x8 SSTORE PUSH32 0xA45F47FDEA8A1EFDD9029A5691C7F759C32B7C698632B563573E155625D16933 DUP2 DUP1 LOG1 DUP1 RETURN JUMPDEST POP POP CALLVALUE PUSH2 0x27E JUMPI DUP1 PUSH1 0x3 NOT CALLDATASIZE ADD SLT PUSH2 0x27E JUMPI PUSH2 0xD09 PUSH1 0x20 SWAP3 PUSH2 0x1327 PUSH2 0x1301 PUSH2 0x1787 JUMP JUMPDEST CALLER DUP4 MSTORE PUSH1 0x1 DUP7 MSTORE DUP5 DUP4 KECCAK256 PUSH1 0x1 PUSH1 0x1 PUSH1 0xA0 SHL SUB DUP3 AND DUP5 MSTORE DUP7 MSTORE SWAP2 DUP5 SWAP1 KECCAK256 SLOAD PUSH1 0x24 CALLDATALOAD SWAP1 PUSH2 0x188A JUMP JUMPDEST SWAP1 CALLER PUSH2 0x1934 JUMP JUMPDEST DUP4 SWAP2 POP CALLVALUE PUSH2 0x27E JUMPI DUP2 PUSH1 0x3 NOT CALLDATASIZE ADD SLT PUSH2 0x27E JUMPI PUSH1 0x15 SLOAD SWAP1 PUSH8 0xFFFFFFFFFFFFFFFF SWAP1 DUP2 DUP4 GT PUSH2 0x14A6 JUMPI SWAP3 SWAP1 PUSH1 0x20 SWAP4 PUSH1 0x5 SWAP4 DUP7 MLOAD SWAP3 PUSH2 0x1370 DUP8 DUP4 PUSH1 0x5 SHL ADD DUP6 PUSH2 0x1852 JUMP JUMPDEST DUP2 DUP5 MSTORE DUP7 DUP5 ADD SWAP1 DUP2 SWAP7 PUSH1 0x15 DUP8 MSTORE PUSH32 0x55F448FDEA98C4D29EB340757EF0A66CD03DBB9538908A6A81D96026B71EC475 SWAP2 DUP8 SWAP4 JUMPDEST DUP6 DUP6 LT PUSH2 0x1422 JUMPI POP POP POP POP POP POP POP DUP5 MLOAD SWAP4 DUP1 DUP6 ADD SWAP2 DUP2 DUP7 MSTORE MLOAD DUP1 SWAP3 MSTORE DUP6 DUP6 ADD SWAP4 SWAP3 JUMPDEST DUP3 DUP2 LT PUSH2 0x13D1 JUMPI DUP6 DUP6 SUB DUP7 RETURN JUMPDEST DUP4 MLOAD DUP1 MLOAD PUSH1 0x1 PUSH1 0x1 PUSH1 0xA0 SHL SUB AND DUP7 MSTORE DUP1 DUP4 ADD MLOAD DUP7 DUP5 ADD MSTORE DUP8 DUP2 ADD MLOAD ISZERO ISZERO DUP9 DUP8 ADD MSTORE PUSH1 0x60 DUP1 DUP3 ADD MLOAD SWAP1 DUP8 ADD MSTORE PUSH1 0x80 DUP1 DUP3 ADD MLOAD SWAP1 DUP8 ADD MSTORE PUSH1 0xA0 SWAP1 DUP2 ADD MLOAD SWAP1 DUP7 ADD MSTORE PUSH1 0xC0 SWAP1 SWAP5 ADD SWAP4 SWAP3 DUP2 ADD SWAP3 PUSH1 0x1 ADD PUSH2 0x13C4 JUMP JUMPDEST DUP12 SWAP11 SWAP8 SWAP9 SWAP11 MLOAD PUSH1 0xC0 DUP2 ADD DUP2 DUP2 LT DUP5 DUP3 GT OR PUSH2 0x1493 JUMPI DUP14 MSTORE DUP5 SLOAD PUSH1 0x1 PUSH1 0x1 PUSH1 0xA0 SHL SUB AND DUP2 MSTORE PUSH1 0x1 DUP1 DUP7 ADD SLOAD DUP11 DUP4 ADD MSTORE PUSH1 0x2 DUP7 ADD SLOAD PUSH1 0xFF AND ISZERO ISZERO DUP3 DUP16 ADD MSTORE PUSH1 0x3 DUP7 ADD SLOAD PUSH1 0x60 DUP4 ADD MSTORE DUP9 DUP7 ADD SLOAD PUSH1 0x80 DUP4 ADD MSTORE DUP5 DUP7 ADD SLOAD PUSH1 0xA0 DUP4 ADD MSTORE SWAP1 DUP3 MSTORE SWAP8 SWAP11 SWAP9 SWAP8 SWAP5 SWAP1 SWAP5 ADD SWAP4 PUSH1 0x6 SWAP1 SWAP4 ADD SWAP3 DUP11 ADD PUSH2 0x13A2 JUMP JUMPDEST PUSH4 0x4E487B71 PUSH1 0xE0 SHL DUP14 MSTORE PUSH1 0x41 DUP10 MSTORE PUSH1 0x24 DUP14 REVERT JUMPDEST PUSH4 0x4E487B71 PUSH1 0xE0 SHL DUP5 MSTORE PUSH1 0x41 SWAP1 MSTORE PUSH1 0x24 DUP4 REVERT JUMPDEST POP POP CALLVALUE PUSH2 0x27E JUMPI DUP2 PUSH1 0x3 NOT CALLDATASIZE ADD SLT PUSH2 0x27E JUMPI PUSH1 0x20 SWAP1 PUSH1 0xF SLOAD SWAP1 MLOAD SWAP1 DUP2 MSTORE RETURN JUMPDEST POP POP CALLVALUE PUSH2 0x27E JUMPI DUP2 PUSH1 0x3 NOT CALLDATASIZE ADD SLT PUSH2 0x27E JUMPI PUSH1 0x20 SWAP1 MLOAD PUSH1 0x12 DUP2 MSTORE RETURN JUMPDEST POP POP CALLVALUE PUSH2 0x27E JUMPI PUSH1 0x60 CALLDATASIZE PUSH1 0x3 NOT ADD SLT PUSH2 0x27E JUMPI PUSH1 0x20 SWAP1 PUSH2 0xD09 PUSH2 0x1515 PUSH2 0x1787 JUMP JUMPDEST PUSH2 0x151D PUSH2 0x17A2 JUMP JUMPDEST PUSH1 0x44 CALLDATALOAD SWAP2 PUSH2 0x152C DUP4 CALLER DUP4 PUSH2 0x1A8E JUMP JUMPDEST PUSH2 0x1B26 JUMP JUMPDEST POP POP CALLVALUE PUSH2 0x27E JUMPI DUP2 PUSH1 0x3 NOT CALLDATASIZE ADD SLT PUSH2 0x27E JUMPI PUSH1 0x20 SWAP1 PUSH1 0x2 SLOAD SWAP1 MLOAD SWAP1 DUP2 MSTORE RETURN JUMPDEST SWAP1 POP CALLVALUE PUSH2 0x332 JUMPI DUP2 PUSH1 0x3 NOT CALLDATASIZE ADD SLT PUSH2 0x332 JUMPI PUSH2 0x156A PUSH2 0x1787 JUMP JUMPDEST SWAP2 PUSH1 0x24 CALLDATALOAD SWAP3 DUP4 ISZERO ISZERO SWAP3 DUP4 DUP6 SUB PUSH2 0xC75 JUMPI PUSH2 0x1582 PUSH2 0x1A36 JUMP JUMPDEST PUSH1 0xFF PUSH1 0x8 SLOAD AND ISZERO PUSH2 0x15E3 JUMPI POP SWAP2 PUSH1 0x20 SWAP2 PUSH2 0x15DB PUSH32 0x6A12B3DF6CBA4203BD7FD06B816789F87DE8C594299AED5717AE070FAC781BAC SWAP5 PUSH1 0x1 DUP1 PUSH1 0xA0 SHL SUB AND SWAP6 DUP7 DUP9 MSTORE PUSH1 0x19 DUP6 MSTORE DUP3 DUP9 KECCAK256 SWAP1 PUSH1 0xFF DUP1 NOT DUP4 SLOAD AND SWAP2 ISZERO ISZERO AND OR SWAP1 SSTORE JUMP JUMPDEST MLOAD SWAP1 DUP2 MSTORE LOG2 DUP1 RETURN JUMPDEST PUSH1 0x64 SWAP1 PUSH1 0x20 DUP5 MLOAD SWAP2 PUSH3 0x461BCD PUSH1 0xE5 SHL DUP4 MSTORE DUP3 ADD MSTORE PUSH1 0x18 PUSH1 0x24 DUP3 ADD MSTORE PUSH32 0x426C61636B6C697374206973206E6F7420656E61626C65640000000000000000 PUSH1 0x44 DUP3 ADD MSTORE REVERT JUMPDEST POP POP CALLVALUE PUSH2 0x27E JUMPI DUP2 PUSH1 0x3 NOT CALLDATASIZE ADD SLT PUSH2 0x27E JUMPI PUSH1 0x20 SWAP1 PUSH1 0xFF PUSH1 0x14 SLOAD AND SWAP1 MLOAD SWAP1 ISZERO ISZERO DUP2 MSTORE RETURN JUMPDEST POP POP CALLVALUE PUSH2 0x27E JUMPI DUP1 PUSH1 0x3 NOT CALLDATASIZE ADD SLT PUSH2 0x27E JUMPI PUSH1 0x20 SWAP1 PUSH2 0xD09 PUSH2 0x166A PUSH2 0x1787 JUMP JUMPDEST PUSH1 0x24 CALLDATALOAD SWAP1 CALLER PUSH2 0x1934 JUMP JUMPDEST SWAP2 SWAP1 POP CALLVALUE PUSH2 0x332 JUMPI DUP3 PUSH1 0x3 NOT CALLDATASIZE ADD SLT PUSH2 0x332 JUMPI DUP1 MLOAD SWAP2 DUP4 PUSH1 0x3 SLOAD SWAP1 PUSH1 0x1 SWAP1 DUP3 PUSH1 0x1 SHR SWAP3 PUSH1 0x1 DUP2 AND DUP1 ISZERO PUSH2 0x1761 JUMPI JUMPDEST PUSH1 0x20 SWAP6 DUP7 DUP7 LT DUP3 EQ PUSH2 0x174E JUMPI POP DUP5 DUP9 MSTORE SWAP1 DUP2 ISZERO PUSH2 0x172C JUMPI POP PUSH1 0x1 EQ PUSH2 0x16D3 JUMPI JUMPDEST PUSH2 0xE20 DUP7 DUP7 PUSH2 0xE16 DUP3 DUP12 SUB DUP4 PUSH2 0x1852 JUMP JUMPDEST SWAP3 SWAP6 POP PUSH1 0x3 DUP4 MSTORE PUSH32 0xC2575A0E9E593C00F959F8C92F12DB2869C3395A3B0502D05E2516446F71F85B JUMPDEST DUP3 DUP5 LT PUSH2 0x1719 JUMPI POP POP POP DUP3 PUSH2 0xE20 SWAP5 PUSH2 0xE16 SWAP3 DUP3 ADD ADD SWAP5 CODESIZE PUSH2 0x16C2 JUMP JUMPDEST DUP1 SLOAD DUP7 DUP6 ADD DUP9 ADD MSTORE SWAP3 DUP7 ADD SWAP3 DUP2 ADD PUSH2 0x16FC JUMP JUMPDEST PUSH1 0xFF NOT AND DUP8 DUP7 ADD MSTORE POP POP POP ISZERO ISZERO PUSH1 0x5 SHL DUP4 ADD ADD SWAP3 POP PUSH2 0xE16 DUP3 PUSH2 0xE20 CODESIZE PUSH2 0x16C2 JUMP JUMPDEST PUSH4 0x4E487B71 PUSH1 0xE0 SHL DUP5 MSTORE PUSH1 0x22 SWAP1 MSTORE PUSH1 0x24 DUP4 REVERT JUMPDEST SWAP4 PUSH1 0x7F AND SWAP4 PUSH2 0x16A2 JUMP JUMPDEST DUP5 SWAP1 CALLVALUE PUSH2 0x27E JUMPI DUP2 PUSH1 0x3 NOT CALLDATASIZE ADD SLT PUSH2 0x27E JUMPI PUSH1 0x20 SWAP1 PUSH1 0x11 SLOAD DUP2 MSTORE RETURN JUMPDEST PUSH1 0x4 CALLDATALOAD SWAP1 PUSH1 0x1 PUSH1 0x1 PUSH1 0xA0 SHL SUB DUP3 AND DUP3 SUB PUSH2 0x179D JUMPI JUMP JUMPDEST PUSH1 0x0 DUP1 REVERT JUMPDEST PUSH1 0x24 CALLDATALOAD SWAP1 PUSH1 0x1 PUSH1 0x1 PUSH1 0xA0 SHL SUB DUP3 AND DUP3 SUB PUSH2 0x179D JUMPI JUMP JUMPDEST PUSH1 0x20 DUP1 DUP3 MSTORE DUP3 MLOAD DUP2 DUP4 ADD DUP2 SWAP1 MSTORE SWAP1 SWAP4 SWAP3 PUSH1 0x0 JUMPDEST DUP3 DUP2 LT PUSH2 0x17ED JUMPI POP POP PUSH1 0x40 SWAP3 SWAP4 POP PUSH1 0x0 DUP4 DUP3 DUP5 ADD ADD MSTORE PUSH1 0x1F DUP1 NOT SWAP2 ADD AND ADD ADD SWAP1 JUMP JUMPDEST DUP2 DUP2 ADD DUP7 ADD MLOAD DUP5 DUP3 ADD PUSH1 0x40 ADD MSTORE DUP6 ADD PUSH2 0x17CB JUMP JUMPDEST PUSH1 0x15 SLOAD DUP2 LT ISZERO PUSH2 0x183C JUMPI PUSH1 0x6 SWAP1 PUSH1 0x15 PUSH1 0x0 MSTORE MUL PUSH32 0x55F448FDEA98C4D29EB340757EF0A66CD03DBB9538908A6A81D96026B71EC475 ADD SWAP1 PUSH1 0x0 SWAP1 JUMP JUMPDEST PUSH4 0x4E487B71 PUSH1 0xE0 SHL PUSH1 0x0 MSTORE PUSH1 0x32 PUSH1 0x4 MSTORE PUSH1 0x24 PUSH1 0x0 REVERT JUMPDEST SWAP1 PUSH1 0x1F DUP1 NOT SWAP2 ADD AND DUP2 ADD SWAP1 DUP2 LT PUSH8 0xFFFFFFFFFFFFFFFF DUP3 GT OR PUSH2 0x1874 JUMPI PUSH1 0x40 MSTORE JUMP JUMPDEST PUSH4 0x4E487B71 PUSH1 0xE0 SHL PUSH1 0x0 MSTORE PUSH1 0x41 PUSH1 0x4 MSTORE PUSH1 0x24 PUSH1 0x0 REVERT JUMPDEST SWAP2 SWAP1 DUP3 ADD DUP1 SWAP3 GT PUSH2 0x1897 JUMPI JUMP JUMPDEST PUSH4 0x4E487B71 PUSH1 0xE0 SHL PUSH1 0x0 MSTORE PUSH1 0x11 PUSH1 0x4 MSTORE PUSH1 0x24 PUSH1 0x0 REVERT JUMPDEST CALLDATALOAD DUP1 ISZERO ISZERO DUP2 SUB PUSH2 0x179D JUMPI SWAP1 JUMP JUMPDEST SWAP1 CALLDATALOAD SWAP1 PUSH1 0x1E NOT DUP2 CALLDATASIZE SUB ADD DUP3 SLT ISZERO PUSH2 0x179D JUMPI ADD DUP1 CALLDATALOAD SWAP1 PUSH8 0xFFFFFFFFFFFFFFFF DUP3 GT PUSH2 0x179D JUMPI PUSH1 0x20 ADD SWAP2 PUSH1 0xC0 DUP3 MUL CALLDATASIZE SUB DUP4 SGT PUSH2 0x179D JUMPI JUMP JUMPDEST SWAP2 SWAP1 DUP2 LT ISZERO PUSH2 0x183C JUMPI PUSH1 0xC0 MUL ADD SWAP1 JUMP JUMPDEST CALLDATALOAD PUSH1 0x1 PUSH1 0x1 PUSH1 0xA0 SHL SUB DUP2 AND DUP2 SUB PUSH2 0x179D JUMPI SWAP1 JUMP JUMPDEST DUP2 DUP2 MUL SWAP3 SWAP2 DUP2 ISZERO SWAP2 DUP5 DIV EQ OR ISZERO PUSH2 0x1897 JUMPI JUMP JUMPDEST SWAP2 SWAP1 DUP3 SUB SWAP2 DUP3 GT PUSH2 0x1897 JUMPI JUMP JUMPDEST PUSH1 0x1 PUSH1 0x1 PUSH1 0xA0 SHL SUB SWAP1 DUP2 AND SWAP2 DUP3 ISZERO PUSH2 0x19E5 JUMPI AND SWAP2 DUP3 ISZERO PUSH2 0x1995 JUMPI PUSH1 0x20 PUSH32 0x8C5BE1E5EBEC7D5BD14F71427D1E84F3DD0314C0F7B2291E5B200AC8C7C3B925 SWAP2 DUP4 PUSH1 0x0 MSTORE PUSH1 0x1 DUP3 MSTORE PUSH1 0x40 PUSH1 0x0 KECCAK256 DUP6 PUSH1 0x0 MSTORE DUP3 MSTORE DUP1 PUSH1 0x40 PUSH1 0x0 KECCAK256 SSTORE PUSH1 0x40 MLOAD SWAP1 DUP2 MSTORE LOG3 JUMP JUMPDEST PUSH1 0x40 MLOAD PUSH3 0x461BCD PUSH1 0xE5 SHL DUP2 MSTORE PUSH1 0x20 PUSH1 0x4 DUP3 ADD MSTORE PUSH1 0x22 PUSH1 0x24 DUP3 ADD MSTORE PUSH32 0x45524332303A20617070726F766520746F20746865207A65726F206164647265 PUSH1 0x44 DUP3 ADD MSTORE PUSH2 0x7373 PUSH1 0xF0 SHL PUSH1 0x64 DUP3 ADD MSTORE PUSH1 0x84 SWAP1 REVERT JUMPDEST PUSH1 0x40 MLOAD PUSH3 0x461BCD PUSH1 0xE5 SHL DUP2 MSTORE PUSH1 0x20 PUSH1 0x4 DUP3 ADD MSTORE PUSH1 0x24 DUP1 DUP3 ADD MSTORE PUSH32 0x45524332303A20617070726F76652066726F6D20746865207A65726F20616464 PUSH1 0x44 DUP3 ADD MSTORE PUSH4 0x72657373 PUSH1 0xE0 SHL PUSH1 0x64 DUP3 ADD MSTORE PUSH1 0x84 SWAP1 REVERT JUMPDEST PUSH1 0x5 SLOAD PUSH1 0x1 PUSH1 0x1 PUSH1 0xA0 SHL SUB AND CALLER SUB PUSH2 0x1A4A JUMPI JUMP JUMPDEST PUSH1 0x64 PUSH1 0x40 MLOAD PUSH3 0x461BCD PUSH1 0xE5 SHL DUP2 MSTORE PUSH1 0x20 PUSH1 0x4 DUP3 ADD MSTORE PUSH1 0x20 PUSH1 0x24 DUP3 ADD MSTORE PUSH32 0x4F776E61626C653A2063616C6C6572206973206E6F7420746865206F776E6572 PUSH1 0x44 DUP3 ADD MSTORE REVERT JUMPDEST SWAP1 PUSH1 0x1 DUP1 PUSH1 0xA0 SHL SUB DUP1 DUP4 AND PUSH1 0x0 MSTORE PUSH1 0x1 PUSH1 0x20 MSTORE PUSH1 0x40 PUSH1 0x0 KECCAK256 SWAP1 DUP3 AND PUSH1 0x0 MSTORE PUSH1 0x20 MSTORE PUSH1 0x40 PUSH1 0x0 KECCAK256 SLOAD SWAP3 PUSH1 0x0 NOT DUP5 SUB PUSH2 0x1AC6 JUMPI JUMPDEST POP POP POP POP JUMP JUMPDEST DUP1 DUP5 LT PUSH2 0x1AE1 JUMPI PUSH2 0x1AD8 SWAP4 SUB SWAP2 PUSH2 0x1934 JUMP JUMPDEST CODESIZE DUP1 DUP1 DUP1 PUSH2 0x1AC0 JUMP JUMPDEST PUSH1 0x40 MLOAD PUSH3 0x461BCD PUSH1 0xE5 SHL DUP2 MSTORE PUSH1 0x20 PUSH1 0x4 DUP3 ADD MSTORE PUSH1 0x1D PUSH1 0x24 DUP3 ADD MSTORE PUSH32 0x45524332303A20696E73756666696369656E7420616C6C6F77616E6365000000 PUSH1 0x44 DUP3 ADD MSTORE PUSH1 0x64 SWAP1 REVERT JUMPDEST PUSH1 0x1 PUSH1 0x1 PUSH1 0xA0 SHL SUB SWAP1 DUP2 AND SWAP2 DUP3 ISZERO PUSH2 0x1D6B JUMPI AND SWAP2 DUP3 ISZERO PUSH2 0x1D1A JUMPI PUSH1 0x8 SLOAD PUSH1 0xFF DUP2 PUSH1 0x10 SHR AND PUSH2 0x1CD5 JUMPI PUSH1 0xFF DUP2 AND PUSH2 0x1C66 JUMPI JUMPDEST PUSH1 0x8 SHR PUSH1 0xFF AND PUSH2 0x1C12 JUMPI JUMPDEST PUSH1 0x0 DUP3 DUP2 MSTORE DUP1 PUSH1 0x20 MSTORE PUSH1 0x40 DUP2 KECCAK256 SLOAD SWAP2 DUP1 DUP4 LT PUSH2 0x1BBE JUMPI PUSH1 0x40 DUP3 DUP3 PUSH32 0xDDF252AD1BE2C89B69C2B068FC378DAA952BA7F163C4A11628F55A4DF523B3EF SWAP6 DUP8 PUSH1 0x20 SWAP7 MSTORE DUP3 DUP7 MSTORE SUB DUP3 DUP3 KECCAK256 SSTORE DUP7 DUP2 MSTORE KECCAK256 DUP2 DUP2 SLOAD ADD SWAP1 SSTORE PUSH1 0x40 MLOAD SWAP1 DUP2 MSTORE LOG3 JUMP JUMPDEST PUSH1 0x40 MLOAD PUSH3 0x461BCD PUSH1 0xE5 SHL DUP2 MSTORE PUSH1 0x20 PUSH1 0x4 DUP3 ADD MSTORE PUSH1 0x26 PUSH1 0x24 DUP3 ADD MSTORE PUSH32 0x45524332303A207472616E7366657220616D6F756E7420657863656564732062 PUSH1 0x44 DUP3 ADD MSTORE PUSH6 0x616C616E6365 PUSH1 0xD0 SHL PUSH1 0x64 DUP3 ADD MSTORE PUSH1 0x84 SWAP1 REVERT JUMPDEST DUP2 PUSH1 0x0 MSTORE PUSH1 0x1A PUSH1 0x20 MSTORE PUSH1 0x40 PUSH1 0x0 KECCAK256 SLOAD TIMESTAMP LT ISZERO PUSH2 0x1B62 JUMPI PUSH1 0x40 MLOAD PUSH3 0x461BCD PUSH1 0xE5 SHL DUP2 MSTORE PUSH1 0x20 PUSH1 0x4 DUP3 ADD MSTORE PUSH1 0x16 PUSH1 0x24 DUP3 ADD MSTORE PUSH22 0x151BDAD95B9CC8185C99481D1A5B594B5B1BD8DAD959 PUSH1 0x52 SHL PUSH1 0x44 DUP3 ADD MSTORE PUSH1 0x64 SWAP1 REVERT JUMPDEST DUP3 PUSH1 0x0 MSTORE PUSH1 0x19 PUSH1 0x20 MSTORE PUSH1 0xFF PUSH1 0x40 PUSH1 0x0 KECCAK256 SLOAD AND ISZERO DUP1 PUSH2 0x1CC1 JUMPI JUMPDEST PUSH2 0x1B57 JUMPI PUSH1 0x40 MLOAD PUSH3 0x461BCD PUSH1 0xE5 SHL DUP2 MSTORE PUSH1 0x20 PUSH1 0x4 DUP3 ADD MSTORE PUSH1 0x16 PUSH1 0x24 DUP3 ADD MSTORE PUSH22 0x1059191C995CDCC81A5CC8189B1858DADB1A5CDD1959 PUSH1 0x52 SHL PUSH1 0x44 DUP3 ADD MSTORE PUSH1 0x64 SWAP1 REVERT JUMPDEST POP DUP4 PUSH1 0x0 MSTORE PUSH1 0xFF PUSH1 0x40 PUSH1 0x0 KECCAK256 SLOAD AND ISZERO PUSH2 0x1C7F JUMP JUMPDEST PUSH1 0x40 MLOAD PUSH3 0x461BCD PUSH1 0xE5 SHL DUP2 MSTORE PUSH1 0x20 PUSH1 0x4 DUP3 ADD MSTORE PUSH1 0x1B PUSH1 0x24 DUP3 ADD MSTORE PUSH32 0x546F6B656E207472616E73666572207768696C65207061757365640000000000 PUSH1 0x44 DUP3 ADD MSTORE PUSH1 0x64 SWAP1 REVERT JUMPDEST PUSH1 0x40 MLOAD PUSH3 0x461BCD PUSH1 0xE5 SHL DUP2 MSTORE PUSH1 0x20 PUSH1 0x4 DUP3 ADD MSTORE PUSH1 0x23 PUSH1 0x24 DUP3 ADD MSTORE PUSH32 0x45524332303A207472616E7366657220746F20746865207A65726F2061646472 PUSH1 0x44 DUP3 ADD MSTORE PUSH3 0x657373 PUSH1 0xE8 SHL PUSH1 0x64 DUP3 ADD MSTORE PUSH1 0x84 SWAP1 REVERT JUMPDEST PUSH1 0x40 MLOAD PUSH3 0x461BCD PUSH1 0xE5 SHL DUP2 MSTORE PUSH1 0x20 PUSH1 0x4 DUP3 ADD MSTORE PUSH1 0x25 PUSH1 0x24 DUP3 ADD MSTORE PUSH32 0x45524332303A207472616E736665722066726F6D20746865207A65726F206164 PUSH1 0x44 DUP3 ADD MSTORE PUSH5 0x6472657373 PUSH1 0xD8 SHL PUSH1 0x64 DUP3 ADD MSTORE PUSH1 0x84 SWAP1 REVERT JUMPDEST PUSH1 0x1 PUSH1 0x1 PUSH1 0xA0 SHL SUB AND DUP1 ISZERO PUSH2 0x1F5B JUMPI PUSH1 0x8 SLOAD PUSH1 0xFF DUP2 PUSH1 0x10 SHR AND PUSH2 0x1CD5 JUMPI PUSH1 0xFF DUP2 AND PUSH2 0x1EEC JUMPI JUMPDEST PUSH1 0x8 SHR PUSH1 0xFF AND PUSH2 0x1E98 JUMPI JUMPDEST PUSH1 0x0 SWAP2 DUP2 DUP4 MSTORE DUP3 PUSH1 0x20 MSTORE PUSH1 0x40 DUP4 KECCAK256 SLOAD DUP2 DUP2 LT PUSH2 0x1E48 JUMPI DUP2 PUSH32 0xDDF252AD1BE2C89B69C2B068FC378DAA952BA7F163C4A11628F55A4DF523B3EF SWAP3 PUSH1 0x20 SWAP3 DUP6 DUP8 MSTORE DUP7 DUP5 MSTORE SUB PUSH1 0x40 DUP7 KECCAK256 SSTORE DUP1 PUSH1 0x2 SLOAD SUB PUSH1 0x2 SSTORE PUSH1 0x40 MLOAD SWAP1 DUP2 MSTORE LOG3 JUMP JUMPDEST PUSH1 0x40 MLOAD PUSH3 0x461BCD PUSH1 0xE5 SHL DUP2 MSTORE PUSH1 0x20 PUSH1 0x4 DUP3 ADD MSTORE PUSH1 0x22 PUSH1 0x24 DUP3 ADD MSTORE PUSH32 0x45524332303A206275726E20616D6F756E7420657863656564732062616C616E PUSH1 0x44 DUP3 ADD MSTORE PUSH2 0x6365 PUSH1 0xF0 SHL PUSH1 0x64 DUP3 ADD MSTORE PUSH1 0x84 SWAP1 REVERT JUMPDEST DUP1 PUSH1 0x0 MSTORE PUSH1 0x1A PUSH1 0x20 MSTORE PUSH1 0x40 PUSH1 0x0 KECCAK256 SLOAD TIMESTAMP LT ISZERO PUSH2 0x1DEF JUMPI PUSH1 0x40 MLOAD PUSH3 0x461BCD PUSH1 0xE5 SHL DUP2 MSTORE PUSH1 0x20 PUSH1 0x4 DUP3 ADD MSTORE PUSH1 0x16 PUSH1 0x24 DUP3 ADD MSTORE PUSH22 0x151BDAD95B9CC8185C99481D1A5B594B5B1BD8DAD959 PUSH1 0x52 SHL PUSH1 0x44 DUP3 ADD MSTORE PUSH1 0x64 SWAP1 REVERT JUMPDEST DUP2 PUSH1 0x0 MSTORE PUSH1 0x19 PUSH1 0x20 MSTORE PUSH1 0xFF PUSH1 0x40 PUSH1 0x0 KECCAK256 SLOAD AND ISZERO DUP1 PUSH2 0x1F47 JUMPI JUMPDEST PUSH2 0x1DE4 JUMPI PUSH1 0x40 MLOAD PUSH3 0x461BCD PUSH1 0xE5 SHL DUP2 MSTORE PUSH1 0x20 PUSH1 0x4 DUP3 ADD MSTORE PUSH1 0x16 PUSH1 0x24 DUP3 ADD MSTORE PUSH22 0x1059191C995CDCC81A5CC8189B1858DADB1A5CDD1959 PUSH1 0x52 SHL PUSH1 0x44 DUP3 ADD MSTORE PUSH1 0x64 SWAP1 REVERT JUMPDEST POP PUSH1 0x0 DUP1 MSTORE PUSH1 0xFF PUSH1 0x40 PUSH1 0x0 KECCAK256 SLOAD AND ISZERO PUSH2 0x1F05 JUMP JUMPDEST PUSH1 0x40 MLOAD PUSH3 0x461BCD PUSH1 0xE5 SHL DUP2 MSTORE PUSH1 0x20 PUSH1 0x4 DUP3 ADD MSTORE PUSH1 0x21 PUSH1 0x24 DUP3 ADD MSTORE PUSH32 0x45524332303A206275726E2066726F6D20746865207A65726F20616464726573 PUSH1 0x44 DUP3 ADD MSTORE PUSH1 0x73 PUSH1 0xF8 SHL PUSH1 0x64 DUP3 ADD MSTORE PUSH1 0x84 SWAP1 REVERT JUMPDEST PUSH1 0x5 DUP1 SLOAD PUSH1 0x1 PUSH1 0x1 PUSH1 0xA0 SHL SUB SWAP3 DUP4 AND PUSH1 0x1 PUSH1 0x1 PUSH1 0xA0 SHL SUB NOT DUP3 AND DUP2 OR SWAP1 SWAP3 SSTORE SWAP1 SWAP2 AND PUSH32 0x8BE0079C531659141344CD1FD0A4F28419497F9722A3DAAFE3B4186F6B6457E0 PUSH1 0x0 DUP1 LOG3 JUMP INVALID LOG2 PUSH5 0x6970667358 0x22 SLT KECCAK256 ADDRESS DUP4 MUL XOR 0xCB PUSH0 0x23 SWAP2 0x21 SWAP5 0x22 PUSH15 0x851275EC8454B41382F781A16F1E68 PC 0xCE SHR 0xD3 0xC6 PUSH5 0x736F6C6343 STOP ADDMOD AND STOP CALLER "},"gasEstimates":{"creation":{"codeDepositCost":"1646600","executionCost":"infinite","totalCost":"infinite"},"external":{"allowance(address,address)":"3453","approve(address,uint256)":"24431","balanceOf(address)":"2871","blacklistEnabled()":"3040","burn(uint256)":"59675","burnFrom(address,uint256)":"86409","claimVestedTokens()":"infinite","claimedAmount(address)":"2453","decimals()":"350","decreaseAllowance(address,uint256)":"27312","endTime()":"2478","getClaimedAmount(address)":"3025","getUnlockTime(address)":"5421","getVestedAmount(address)":"3245","getWalletAllocations()":"infinite","hardCap()":"3270","increaseAllowance(address,uint256)":"26939","initialize((string,string,uint256,uint256,address,bool,bool,uint256,uint256,uint256,uint256,uint256,uint256,uint256,uint256,uint256,uint256,(address,uint256,bool,uint256,uint256,uint256)[],uint256,bool))":"infinite","isBlacklisted(address)":"5608","liquidityLockDuration()":"2654","liquidityPercentage()":"2271","maxActivePresales()":"3006","maxContribution()":"2830","maxSupply()":"3116","minContribution()":"2984","name()":"infinite","owner()":"2873","pause()":"27823","paused()":"2694","presaleEnabled()":"2380","presalePercentage()":"3182","presaleRate()":"2632","renounceOwnership()":"28546","setBlacklist(address,bool)":"30422","setTimeLock(address,uint256)":"28581","softCap()":"2896","startTime()":"2764","symbol()":"infinite","timeLockEnabled()":"3090","totalSupply()":"2412","transfer(address,uint256)":"60204","transferFrom(address,address,uint256)":"86236","transferOwnership(address)":"29212","unpause()":"27575","vestedAmount(address)":"2673","vestingStartTime(address)":"3377","walletAllocations(uint256)":"17573"},"internal":{"_beforeTokenTransfer(address,address,uint256)":"infinite"}},"methodIdentifiers":{"allowance(address,address)":"dd62ed3e","approve(address,uint256)":"095ea7b3","balanceOf(address)":"70a08231","blacklistEnabled()":"bffb691d","burn(uint256)":"42966c68","burnFrom(address,uint256)":"79cc6790","claimVestedTokens()":"e74f3fbb","claimedAmount(address)":"04e86903","decimals()":"313ce567","decreaseAllowance(address,uint256)":"a457c2d7","endTime()":"3197cbb6","getClaimedAmount(address)":"8df40be8","getUnlockTime(address)":"dbed1e88","getVestedAmount(address)":"d5a73fdd","getWalletAllocations()":"32b47fac","hardCap()":"fb86a404","increaseAllowance(address,uint256)":"39509351","initialize((string,string,uint256,uint256,address,bool,bool,uint256,uint256,uint256,uint256,uint256,uint256,uint256,uint256,uint256,uint256,(address,uint256,bool,uint256,uint256,uint256)[],uint256,bool))":"c64b2f8c","isBlacklisted(address)":"fe575a87","liquidityLockDuration()":"4ae01d52","liquidityPercentage()":"048b87ba","maxActivePresales()":"b8caa4aa","maxContribution()":"8d3d6576","maxSupply()":"d5abeb01","minContribution()":"aaffadf3","name()":"06fdde03","owner()":"8da5cb5b","pause()":"8456cb59","paused()":"5c975abb","presaleEnabled()":"143b237f","presalePercentage()":"de8af791","presaleRate()":"42f39381","renounceOwnership()":"715018a6","setBlacklist(address,bool)":"153b0d1e","setTimeLock(address,uint256)":"644fab74","softCap()":"906a26e0","startTime()":"78e97925","symbol()":"95d89b41","timeLockEnabled()":"cba4cbd3","totalSupply()":"18160ddd","transfer(address,uint256)":"a9059cbb","transferFrom(address,address,uint256)":"23b872dd","transferOwnership(address)":"f2fde38b","unpause()":"3f4ba83a","vestedAmount(address)":"384711cc","vestingStartTime(address)":"ea63fb26","walletAllocations(uint256)":"3fd50eb8"}},"storageLayout":{"storage":[{"astId":301,"contract":"src/contracts/TokenTemplate_v3.sol:TokenTemplate_v3","label":"_balances","offset":0,"slot":"0","type":"t_mapping(t_address,t_uint256)"},{"astId":307,"contract":"src/contracts/TokenTemplate_v3.sol:TokenTemplate_v3","label":"_allowances","offset":0,"slot":"1","type":"t_mapping(t_address,t_mapping(t_address,t_uint256))"},{"astId":309,"contract":"src/contracts/TokenTemplate_v3.sol:TokenTemplate_v3","label":"_totalSupply","offset":0,"slot":"2","type":"t_uint256"},{"astId":311,"contract":"src/contracts/TokenTemplate_v3.sol:TokenTemplate_v3","label":"_name","offset":0,"slot":"3","type":"t_string_storage"},{"astId":313,"contract":"src/contracts/TokenTemplate_v3.sol:TokenTemplate_v3","label":"_symbol","offset":0,"slot":"4","type":"t_string_storage"},{"astId":7,"contract":"src/contracts/TokenTemplate_v3.sol:TokenTemplate_v3","label":"_owner","offset":0,"slot":"5","type":"t_address"},{"astId":231,"contract":"src/contracts/TokenTemplate_v3.sol:TokenTemplate_v3","label":"_status","offset":0,"slot":"6","type":"t_uint256"},{"astId":2025,"contract":"src/contracts/TokenTemplate_v3.sol:TokenTemplate_v3","label":"maxSupply","offset":0,"slot":"7","type":"t_uint256"},{"astId":2027,"contract":"src/contracts/TokenTemplate_v3.sol:TokenTemplate_v3","label":"blacklistEnabled","offset":0,"slot":"8","type":"t_bool"},{"astId":2029,"contract":"src/contracts/TokenTemplate_v3.sol:TokenTemplate_v3","label":"timeLockEnabled","offset":1,"slot":"8","type":"t_bool"},{"astId":2031,"contract":"src/contracts/TokenTemplate_v3.sol:TokenTemplate_v3","label":"paused","offset":2,"slot":"8","type":"t_bool"},{"astId":2033,"contract":"src/contracts/TokenTemplate_v3.sol:TokenTemplate_v3","label":"presaleRate","offset":0,"slot":"9","type":"t_uint256"},{"astId":2035,"contract":"src/contracts/TokenTemplate_v3.sol:TokenTemplate_v3","label":"softCap","offset":0,"slot":"10","type":"t_uint256"},{"astId":2037,"contract":"src/contracts/TokenTemplate_v3.sol:TokenTemplate_v3","label":"hardCap","offset":0,"slot":"11","type":"t_uint256"},{"astId":2039,"contract":"src/contracts/TokenTemplate_v3.sol:TokenTemplate_v3","label":"minContribution","offset":0,"slot":"12","type":"t_uint256"},{"astId":2041,"contract":"src/contracts/TokenTemplate_v3.sol:TokenTemplate_v3","label":"maxContribution","offset":0,"slot":"13","type":"t_uint256"},{"astId":2043,"contract":"src/contracts/TokenTemplate_v3.sol:TokenTemplate_v3","label":"startTime","offset":0,"slot":"14","type":"t_uint256"},{"astId":2045,"contract":"src/contracts/TokenTemplate_v3.sol:TokenTemplate_v3","label":"endTime","offset":0,"slot":"15","type":"t_uint256"},{"astId":2047,"contract":"src/contracts/TokenTemplate_v3.sol:TokenTemplate_v3","label":"presalePercentage","offset":0,"slot":"16","type":"t_uint256"},{"astId":2049,"contract":"src/contracts/TokenTemplate_v3.sol:TokenTemplate_v3","label":"liquidityPercentage","offset":0,"slot":"17","type":"t_uint256"},{"astId":2051,"contract":"src/contracts/TokenTemplate_v3.sol:TokenTemplate_v3","label":"liquidityLockDuration","offset":0,"slot":"18","type":"t_uint256"},{"astId":2053,"contract":"src/contracts/TokenTemplate_v3.sol:TokenTemplate_v3","label":"maxActivePresales","offset":0,"slot":"19","type":"t_uint256"},{"astId":2055,"contract":"src/contracts/TokenTemplate_v3.sol:TokenTemplate_v3","label":"presaleEnabled","offset":0,"slot":"20","type":"t_bool"},{"astId":2115,"contract":"src/contracts/TokenTemplate_v3.sol:TokenTemplate_v3","label":"walletAllocations","offset":0,"slot":"21","type":"t_array(t_struct(WalletAllocation)2068_storage)dyn_storage"},{"astId":2119,"contract":"src/contracts/TokenTemplate_v3.sol:TokenTemplate_v3","label":"vestedAmount","offset":0,"slot":"22","type":"t_mapping(t_address,t_uint256)"},{"astId":2123,"contract":"src/contracts/TokenTemplate_v3.sol:TokenTemplate_v3","label":"claimedAmount","offset":0,"slot":"23","type":"t_mapping(t_address,t_uint256)"},{"astId":2127,"contract":"src/contracts/TokenTemplate_v3.sol:TokenTemplate_v3","label":"vestingStartTime","offset":0,"slot":"24","type":"t_mapping(t_address,t_uint256)"},{"astId":2131,"contract":"src/contracts/TokenTemplate_v3.sol:TokenTemplate_v3","label":"_blacklist","offset":0,"slot":"25","type":"t_mapping(t_address,t_bool)"},{"astId":2135,"contract":"src/contracts/TokenTemplate_v3.sol:TokenTemplate_v3","label":"_lockTime","offset":0,"slot":"26","type":"t_mapping(t_address,t_uint256)"}],"types":{"t_address":{"encoding":"inplace","label":"address","numberOfBytes":"20"},"t_array(t_struct(WalletAllocation)2068_storage)dyn_storage":{"base":"t_struct(WalletAllocation)2068_storage","encoding":"dynamic_array","label":"struct TokenTemplate_v3.WalletAllocation[]","numberOfBytes":"32"},"t_bool":{"encoding":"inplace","label":"bool","numberOfBytes":"1"},"t_mapping(t_address,t_bool)":{"encoding":"mapping","key":"t_address","label":"mapping(address => bool)","numberOfBytes":"32","value":"t_bool"},"t_mapping(t_address,t_mapping(t_address,t_uint256))":{"encoding":"mapping","key":"t_address","label":"mapping(address => mapping(address => uint256))","numberOfBytes":"32","value":"t_mapping(t_address,t_uint256)"},"t_mapping(t_address,t_uint256)":{"encoding":"mapping","key":"t_address","label":"mapping(address => uint256)","numberOfBytes":"32","value":"t_uint256"},"t_string_storage":{"encoding":"bytes","label":"string","numberOfBytes":"32"},"t_struct(WalletAllocation)2068_storage":{"encoding":"inplace","label":"struct TokenTemplate_v3.WalletAllocation","members":[{"astId":2057,"contract":"src/contracts/TokenTemplate_v3.sol:TokenTemplate_v3","label":"wallet","offset":0,"slot":"0","type":"t_address"},{"astId":2059,"contract":"src/contracts/TokenTemplate_v3.sol:TokenTemplate_v3","label":"percentage","offset":0,"slot":"1","type":"t_uint256"},{"astId":2061,"contract":"src/contracts/TokenTemplate_v3.sol:TokenTemplate_v3","label":"vestingEnabled","offset":0,"slot":"2","type":"t_bool"},{"astId":2063,"contract":"src/contracts/TokenTemplate_v3.sol:TokenTemplate_v3","label":"vestingDuration","offset":0,"slot":"3","type":"t_uint256"},{"astId":2065,"contract":"src/contracts/TokenTemplate_v3.sol:TokenTemplate_v3","label":"cliffDuration","offset":0,"slot":"4","type":"t_uint256"},{"astId":2067,"contract":"src/contracts/TokenTemplate_v3.sol:TokenTemplate_v3","label":"vestingStartTime","offset":0,"slot":"5","type":"t_uint256"}],"numberOfBytes":"192"},"t_uint256":{"encoding":"inplace","label":"uint256","numberOfBytes":"32"}}},"userdoc":{"kind":"user","methods":{},"version":1}}}}