{"src/contracts/TokenFactory_v2_DirectDEX_TwoStep.sol":{"TokenFactory_v2_DirectDEX_TwoStep":{"abi":[{"inputs":[{"internalType":"uint256","name":"_listingFee","type":"uint256"}],"stateMutability":"nonpayable","type":"constructor"},{"inputs":[{"internalType":"string","name":"dexName","type":"string"}],"name":"DEXNotAvailable","type":"error"},{"inputs":[{"internalType":"uint256","name":"required","type":"uint256"},{"internalType":"uint256","name":"provided","type":"uint256"}],"name":"InsufficientETH","type":"error"},{"inputs":[{"internalType":"uint256","name":"required","type":"uint256"},{"internalType":"uint256","name":"provided","type":"uint256"}],"name":"InsufficientTokenAllowance","type":"error"},{"inputs":[{"internalType":"address","name":"token","type":"address"},{"internalType":"uint256","name":"ethAmount","type":"uint256"},{"internalType":"uint256","name":"tokenAmount","type":"uint256"}],"name":"LiquidityAdditionFailed","type":"error"},{"inputs":[{"internalType":"address","name":"token","type":"address"},{"internalType":"address","name":"caller","type":"address"}],"name":"NotTokenOwner","type":"error"},{"inputs":[{"internalType":"address","name":"token","type":"address"},{"internalType":"address","name":"router","type":"address"}],"name":"PairCreationFailed","type":"error"},{"inputs":[{"internalType":"address","name":"token","type":"address"}],"name":"TokenAlreadyListed","type":"error"},{"inputs":[{"internalType":"address","name":"token","type":"address"}],"name":"TokenNotFound","type":"error"},{"anonymous":false,"inputs":[{"indexed":false,"internalType":"string","name":"name","type":"string"},{"indexed":false,"internalType":"address","name":"router","type":"address"}],"name":"DEXAdded","type":"event"},{"anonymous":false,"inputs":[{"indexed":false,"internalType":"string","name":"name","type":"string"},{"indexed":false,"internalType":"address","name":"router","type":"address"},{"indexed":false,"internalType":"bool","name":"isActive","type":"bool"}],"name":"DEXUpdated","type":"event"},{"anonymous":false,"inputs":[{"indexed":true,"internalType":"address","name":"previousOwner","type":"address"},{"indexed":true,"internalType":"address","name":"newOwner","type":"address"}],"name":"OwnershipTransferred","type":"event"},{"anonymous":false,"inputs":[{"indexed":true,"internalType":"address","name":"token","type":"address"},{"indexed":true,"internalType":"address","name":"owner","type":"address"},{"indexed":false,"internalType":"string","name":"name","type":"string"},{"indexed":false,"internalType":"string","name":"symbol","type":"string"},{"indexed":false,"internalType":"uint256","name":"totalSupply","type":"uint256"},{"indexed":false,"internalType":"uint256","name":"creationTime","type":"uint256"}],"name":"TokenCreated","type":"event"},{"anonymous":false,"inputs":[{"indexed":true,"internalType":"address","name":"token","type":"address"},{"indexed":true,"internalType":"address","name":"owner","type":"address"},{"indexed":false,"internalType":"string","name":"dexName","type":"string"},{"indexed":false,"internalType":"uint256","name":"initialLiquidity","type":"uint256"},{"indexed":false,"internalType":"uint256","name":"listingPrice","type":"uint256"},{"indexed":false,"internalType":"uint256","name":"listingTime","type":"uint256"}],"name":"TokenListed","type":"event"},{"inputs":[],"name":"VERSION","outputs":[{"internalType":"string","name":"","type":"string"}],"stateMutability":"view","type":"function"},{"inputs":[],"name":"VERSION_HASH","outputs":[{"internalType":"bytes32","name":"","type":"bytes32"}],"stateMutability":"view","type":"function"},{"inputs":[{"internalType":"string","name":"name","type":"string"},{"internalType":"address","name":"router","type":"address"}],"name":"addDEX","outputs":[],"stateMutability":"nonpayable","type":"function"},{"inputs":[{"internalType":"uint256","name":"","type":"uint256"}],"name":"allTokens","outputs":[{"internalType":"address","name":"","type":"address"}],"stateMutability":"view","type":"function"},{"inputs":[{"components":[{"internalType":"string","name":"name","type":"string"},{"internalType":"string","name":"symbol","type":"string"},{"internalType":"uint256","name":"totalSupply","type":"uint256"},{"internalType":"uint256","name":"maxTxAmount","type":"uint256"},{"internalType":"uint256","name":"maxWalletAmount","type":"uint256"},{"internalType":"bool","name":"enableTrading","type":"bool"},{"internalType":"uint256","name":"tradingStartTime","type":"uint256"},{"internalType":"uint256","name":"marketingFeePercentage","type":"uint256"},{"internalType":"address","name":"marketingWallet","type":"address"},{"internalType":"uint256","name":"developmentFeePercentage","type":"uint256"},{"internalType":"address","name":"developmentWallet","type":"address"},{"internalType":"uint256","name":"autoLiquidityFeePercentage","type":"uint256"},{"internalType":"bool","name":"enableBuyFees","type":"bool"},{"internalType":"bool","name":"enableSellFees","type":"bool"}],"internalType":"struct TokenFactory_v2_DirectDEX_TwoStep.TokenCreationParams","name":"params","type":"tuple"}],"name":"createToken","outputs":[{"internalType":"address","name":"","type":"address"}],"stateMutability":"nonpayable","type":"function"},{"inputs":[{"internalType":"string","name":"","type":"string"}],"name":"dexRouters","outputs":[{"internalType":"string","name":"name","type":"string"},{"internalType":"address","name":"router","type":"address"},{"internalType":"bool","name":"isActive","type":"bool"}],"stateMutability":"view","type":"function"},{"inputs":[],"name":"getAllTokens","outputs":[{"internalType":"address[]","name":"","type":"address[]"}],"stateMutability":"view","type":"function"},{"inputs":[{"internalType":"string","name":"dexName","type":"string"}],"name":"getDEXRouter","outputs":[{"components":[{"internalType":"string","name":"name","type":"string"},{"internalType":"address","name":"router","type":"address"},{"internalType":"bool","name":"isActive","type":"bool"}],"internalType":"struct TokenFactory_v2_DirectDEX_TwoStep.DEXRouter","name":"","type":"tuple"}],"stateMutability":"view","type":"function"},{"inputs":[],"name":"getListingFee","outputs":[{"internalType":"uint256","name":"","type":"uint256"}],"stateMutability":"view","type":"function"},{"inputs":[],"name":"getSupportedDEXes","outputs":[{"internalType":"string[]","name":"","type":"string[]"}],"stateMutability":"view","type":"function"},{"inputs":[{"internalType":"address","name":"token","type":"address"}],"name":"getTokenInfo","outputs":[{"components":[{"internalType":"address","name":"token","type":"address"},{"internalType":"address","name":"owner","type":"address"},{"internalType":"bool","name":"isListed","type":"bool"},{"internalType":"string","name":"dexName","type":"string"},{"internalType":"uint256","name":"creationTime","type":"uint256"},{"internalType":"uint256","name":"listingTime","type":"uint256"}],"internalType":"struct TokenFactory_v2_DirectDEX_TwoStep.TokenInfo","name":"","type":"tuple"}],"stateMutability":"view","type":"function"},{"inputs":[{"internalType":"address","name":"token","type":"address"}],"name":"isListed","outputs":[{"internalType":"bool","name":"","type":"bool"}],"stateMutability":"view","type":"function"},{"inputs":[{"internalType":"address","name":"tokenAddress","type":"address"},{"internalType":"uint256","name":"initialLiquidityInETH","type":"uint256"},{"internalType":"uint256","name":"listingPriceInETH","type":"uint256"},{"internalType":"string","name":"dexName","type":"string"}],"name":"listTokenOnDEX","outputs":[],"stateMutability":"payable","type":"function"},{"inputs":[],"name":"listingFee","outputs":[{"internalType":"uint256","name":"","type":"uint256"}],"stateMutability":"view","type":"function"},{"inputs":[],"name":"owner","outputs":[{"internalType":"address","name":"","type":"address"}],"stateMutability":"view","type":"function"},{"inputs":[],"name":"renounceOwnership","outputs":[],"stateMutability":"nonpayable","type":"function"},{"inputs":[{"internalType":"uint256","name":"_newFee","type":"uint256"}],"name":"setListingFee","outputs":[],"stateMutability":"nonpayable","type":"function"},{"inputs":[{"internalType":"uint256","name":"","type":"uint256"}],"name":"supportedDEXes","outputs":[{"internalType":"string","name":"","type":"string"}],"stateMutability":"view","type":"function"},{"inputs":[{"internalType":"address","name":"","type":"address"}],"name":"tokenInfo","outputs":[{"internalType":"address","name":"token","type":"address"},{"internalType":"address","name":"owner","type":"address"},{"internalType":"bool","name":"isListed","type":"bool"},{"internalType":"string","name":"dexName","type":"string"},{"internalType":"uint256","name":"creationTime","type":"uint256"},{"internalType":"uint256","name":"listingTime","type":"uint256"}],"stateMutability":"view","type":"function"},{"inputs":[{"internalType":"address","name":"newOwner","type":"address"}],"name":"transferOwnership","outputs":[],"stateMutability":"nonpayable","type":"function"},{"inputs":[{"internalType":"string","name":"name","type":"string"},{"internalType":"address","name":"router","type":"address"},{"internalType":"bool","name":"isActive","type":"bool"}],"name":"updateDEX","outputs":[],"stateMutability":"nonpayable","type":"function"},{"inputs":[],"name":"withdrawFees","outputs":[],"stateMutability":"nonpayable","type":"function"}],"devdoc":{"kind":"dev","methods":{"owner()":{"details":"Returns the address of the current owner."},"renounceOwnership()":{"details":"Leaves the contract without owner. It will not be possible to call `onlyOwner` functions. Can only be called by the current owner. NOTE: Renouncing ownership will leave the contract without an owner, thereby disabling any functionality that is only available to the owner."},"transferOwnership(address)":{"details":"Transfers ownership of the contract to a new account (`newOwner`). Can only be called by the current owner."}},"version":1},"evm":{"bytecode":{"linkReferences":{},"object":"60803461009b57601f61482d38819003918201601f19168301916001600160401b038311848410176100a05780849260209460405283398101031261009b575160008054336001600160a01b0319821681178355604051939290916001600160a01b0316907f8be0079c531659141344cd1fd0a4f28419497f9722a3daafe3b4186f6b6457e09080a36001805560065561477690816100b78239f35b600080fd5b634e487b7160e01b600052604160045260246000fdfe608060405260043610156200001357600080fd5b6000803560e01c8063131dbd091462001b315780631f69565f1462001a2757806324b2982f14620017e95780632a5c792a146200171b578063386e07bf1462001609578063476343ee14620015b35780634caf81f5146200155b5780635066a84214620010475780635e7ffa671462000f90578063634282af1462000f475780636a1b7ecc1462000316578063715018a61462000ee957806378e3399d1462000e1057806381e090df146200067c5780638da5cb5b146200065357806396186770146200038d5780639e4e73181462000336578063b8fe6abe1462000316578063f2fde38b1462000244578063f5dab71114620001ac578063f794062e14620001625763ffa1ad74146200012657600080fd5b346200015f57806003193601126200015f576200015b6200014662001e49565b60405191829160208352602083019062001bb0565b0390f35b80fd5b50346200015f5760203660031901126200015f5760209060ff906001906040906001600160a01b036200019462001b58565b1681526004855220015460a01c166040519015158152f35b50346200015f5760203660031901126200015f576001600160a01b039060409082620001d762001b58565b1681526004602052208181541690600181015462000235620001fc6002840162001d4e565b60ff600460038601549501549360405197889788528116602088015260a01c161515604086015260c0606086015260c085019062001bb0565b91608084015260a08301520390f35b50346200015f5760203660031901126200015f576200026262001b58565b6200026c6200207e565b6001600160a01b03908116908115620002c257600054826bffffffffffffffffffffffff60a01b821617600055167f8be0079c531659141344cd1fd0a4f28419497f9722a3daafe3b4186f6b6457e0600080a380f35b60405162461bcd60e51b815260206004820152602660248201527f4f776e61626c653a206e6577206f776e657220697320746865207a65726f206160448201526564647265737360d01b6064820152608490fd5b50346200015f57806003193601126200015f576020600654604051908152f35b50346200015f57806003193601126200015f5760206200035562001e49565b6040516200038283828162000374818301968781519384920162001b8b565b810103808452018262001d2c565b519020604051908152f35b50346200015f5760403660031901126200015f576001600160401b03906004358281116200064f57620003c590369060040162001bd7565b620003cf62001b74565b93620003da6200207e565b604051809183858337838201966002885260018060a01b03809860019485916020978891030190200154166200061557604051620004188162001cfc565b6200042536878962001dff565b8152888582019216988983526040820191858352604051888a823787818a8101600281520301902090518051958611620006015790869162000474876200046d845462001c8d565b8462001e7b565b88908c601f89116001146200059657620004e798620004ab939092836200058a575b50508160011b916000199060031b1c19161790565b81555b019251166bffffffffffffffffffffffff60a01b83541617825551151581549060ff60a01b90151560a01b169060ff60a01b1916179055565b60035490600160401b82101562000576578101600355620005089062001c07565b95909562000562576200053f83857fdc80caac0fc930b05b1b5c1f27f1b45d60b2fa42a563cfaa28619f76da9efccc979862001fae565b6200055860405194859460408652604086019162001ed6565b918301520390a180f35b634e487b7160e01b85526004859052602485fd5b634e487b7160e01b86526041600452602486fd5b01519050388062000496565b9190601f1989168484528b8420935b8c828210620005ea575050918593918a620004e79b9410620005d0575b505050811b018155620004ae565b015160001960f88460031b161c19169055388080620005c2565b8385015186558c97909501949384019301620005a5565b634e487b7160e01b8b52604160045260248bfd5b60405162461bcd60e51b815260048101859052601260248201527144455820616c72656164792065786973747360701b6044820152606490fd5b5080fd5b50346200015f57806003193601126200015f57546040516001600160a01b039091168152602090f35b5060803660031901126200015f576200069462001b58565b6064356001600160401b03811162000e0c57620006b690369060040162001bd7565b620006c3939193620020d7565b6001600160a01b0383811683526004602052604083208054909591161562000deb57600185015460ff8160a01c1662000dca57336001600160a01b039091160362000da357600654620007198160243562001f4f565b341062000d79575060ff6001604051848482376020818681016002815203019020015460a01c161562000d52576040518282823760028184019081528190036020908101909120600101546040516318160ddd60e01b815296916001600160a01b0391821691889060049082908a165afa96871562000d4757859762000d0d575b508660148102046014148715171562000cf957604051636eb1769f60e11b81523360048201523060248201526020816044816001600160a01b038b165afa90811562000b8357869162000cc1575b5060646014890204811062000c9d57506040516323b872dd60e01b81523360048201523060248201526064601489028190046044830152602090829081896001600160a01b038c165af1801562000b835762000c79575b5060405163c45a015560e01b8152602081600481855afa90811562000b8357869162000c55575b506040516315ab88c960e31b815290602082600481865afa91821562000bc05791602091620008cf93899262000c31575b506040516364e329cb60e11b81526001600160a01b03808c1660048301529092166024830152909283919082908a9082906044820190565b03926001600160a01b03165af190811562000b8357869162000bfb575b506001600160a01b0316801562000bcb576001600160a01b0387163b1562000ba65760405163c0d7865560e01b8152600481018390528681602481836001600160a01b038d165af1801562000bc05762000baa575b506001600160a01b0387163b1562000ba6576040516340c3fa8b60e11b815260048101919091528581602481836001600160a01b038c165af1801562000b835790869162000b8e575b505060405163095ea7b360e01b815260048101829052606460148902046024820152602081604481896001600160a01b038c165af1801562000b835762000b4d575b5061012c420180421162000b39578760c4886014946060946064604051978896879563f305d71960e01b875260018060a01b03166004870152020460248401528a60448401528a606484015230608484015260a4830152602435905af1908162000b04575b5062000a6c57604051630baff61160e21b81526001600160a01b03861660048201526024803590820152606460148802819004604483015290fd5b60018101805460ff60a01b1916600160a01b1790558492917f52b537b7efd09a072d62379791a3f242c784095aa9e11dbba910b624ecec68b89162000ad5919062000abc85836002840162001fae565b6004429101556040519360808552608085019162001ed6565b6024356020840152604435604084015242606084015233936001600160a01b0316929081900390a36001805580f35b606090813d831162000b31575b62000b1d818362001d2c565b8101031262000b2d573862000a31565b8480fd5b503d62000b11565b634e487b7160e01b86526011600452602486fd5b62000b739060203d60201162000b7b575b62000b6a818362001d2c565b81019062001f73565b5038620009cc565b503d62000b5e565b6040513d88823e3d90fd5b62000b999062001d18565b62000b2d5784386200098a565b8580fd5b62000bb89096919662001d18565b943862000941565b6040513d89823e3d90fd5b50604051634fe1e92b60e11b81526001600160a01b038781166004830152919091166024820152604490fd5b0390fd5b62000c22915060203d60201162000c29575b62000c19818362001d2c565b81019062001f8d565b38620008ec565b503d62000c0d565b62000c4d919250833d851162000c295762000c19818362001d2c565b903862000897565b62000c72915060203d60201162000c295762000c19818362001d2c565b3862000866565b62000c959060203d60201162000b7b5762000b6a818362001d2c565b50386200083f565b87604491606460146040519363dc98d7bb60e01b8552020460048301526024820152fd5b90506020813d60201162000cf0575b8162000cdf6020938362001d2c565b8101031262000ba6575138620007e8565b3d915062000cd0565b634e487b7160e01b85526011600452602485fd5b9096506020813d60201162000d3e575b8162000d2c6020938362001d2c565b8101031262000b2d575195386200079a565b3d915062000d1d565b6040513d87823e3d90fd5b6040516379370a7560e01b81526020600482015291829162000bf791602484019162001ed6565b62000d8960449160243562001f4f565b6040519062fdf57560e51b82526004820152346024820152fd5b604051630e9ea65f60e21b81526001600160a01b0385166004820152336024820152604490fd5b604051633fb6e97160e01b81526001600160a01b0386166004820152602490fd5b60405163de6137d160e01b81526001600160a01b0385166004820152602490fd5b8280fd5b50346200015f576020806003193601126200064f576004356001600160401b03811162000e0c57918162000e4b606094369060040162001bd7565b926040805162000e5b8162001cfc565b87815282858201520152826040519384928337810160028152030190209060016040519262000e8a8462001cfc565b62000e958162001d4e565b8452015460018060a01b0362000ed583850193828416855260ff604087019460a01c16151584526040519687968288525191870152608086019062001bb0565b925116604084015251151560608301520390f35b50346200015f57806003193601126200015f5762000f066200207e565b80546001600160a01b03198116825581906001600160a01b03167f8be0079c531659141344cd1fd0a4f28419497f9722a3daafe3b4186f6b6457e08280a380f35b50346200015f5760203660031901126200015f57600435906005548210156200015f57602062000f778362001c55565b905460405160039290921b1c6001600160a01b03168152f35b50346200015f5760203660031901126200015f57600435906001600160401b0382116200015f57366023830112156200015f576200102662000ff5602062000fe13660048701356024880162001dff565b816040519382858094519384920162001b8b565b8101600281520301902060016200100c8262001d4e565b91015460ff60405193849360608552606085019062001bb0565b6001600160a01b038316602085015260a09290921c16151560408301520390f35b50346200015f576003196020368201126200064f576001600160401b03600435116200064f576101c090600435360301126200015f5762001087620020d7565b6200109760048035018062001ef7565b620010b060246004949394350160043560040162001ef7565b9093620010c260a46004350162001f2c565b91620010d46101046004350162001f3a565b620010e56101446004350162001f3a565b90620010f76101846004350162001f2c565b92620011096101a46004350162001f2c565b9460405197886126128101106001600160401b036126128b01111762001547579162001153899a9b926200116a946126126200212f8d396102006126128d01818152019162001ed6565b916126128a01830360206126128c01015262001ed6565b600435604481013561261289016040810191909152606482013560608201526084820135608082015296151560a088015260c481013560c088015260e087018a905260e481013561010088015261012481013561012088015261016401356101408701526001600160a01b039182166101608701529116610180850152306101a08501529015156101c08401529015156101e090920191909152039082f080156200153a576040516200121d8162001cca565b60018060a01b0382168152336020820152826040820152604051602081018181106001600160401b0382111762001526576040908152848252606083019190915242608083015260a08083018590526001600160a01b03848116865260046020908152838720855181546001600160a01b03191690841617815590850151600182018054958701516001600160a81b0319909616919093161793151590921b60ff60a01b16929092179091559060608101518051906001600160401b0382116200057657620012ff82620012f5600287015462001c8d565b6002870162001e7b565b602090601f8311600114620014af578260a0936004959362001337938a926200058a5750508160011b916000199060031b1c19161790565b60028501555b608081015160038501550151910155600554600160401b8110156200149b578060016200136e920160055562001c55565b81546001600160a01b0384811660039390931b83811b91901b19909116179091553b156200064f5760405163f2fde38b60e01b81523360048201528281602481836001600160a01b0387165af180156200149057602093506200147e575b5062001421620013e160048035018062001ef7565b919062001413620013fd60246004350160043560040162001ef7565b9190926040519560808752608087019162001ed6565b918483038786015262001ed6565b60043560440135604083015242606083015233916001600160a01b038416917fc12630d761ddbf18b9530f31d91e67493535a2b635711bcff59fded8bf381cce919081900390a3600180556040516001600160a01b039091168152f35b620014899062001d18565b38620013cc565b6040513d85823e3d90fd5b634e487b7160e01b83526041600452602483fd5b906002850187526020872091875b601f19851681106200150d5750926004949260019260a09583601f19811610620014f3575b505050811b0160028501556200133d565b015160001960f88460031b161c19169055388080620014e2565b91926020600181928685015181550194019201620014bd565b634e487b7160e01b85526041600452602485fd5b50604051903d90823e3d90fd5b634e487b7160e01b8a52604160045260248afd5b50346200015f5760203660031901126200015f576004356003548110156200064f57620015889062001c07565b9190916200159f576200015b620001468362001d4e565b634e487b7160e01b81526004819052602490fd5b50346200015f57806003193601126200015f57620015d06200207e565b8080808060018060a01b038154164790828215620015ff575bf115620015f35780f35b604051903d90823e3d90fd5b506108fc620015e9565b50346200015f57806003193601126200015f576003546001600160401b0381116200170757906020916040519162001647848360051b018462001d2c565b8183526003815283830191817fc2575a0e9e593c00f959f8c92f12db2869c3395a3b0502d05e2516446f71f85b845b838310620016e05750505050604051928484019085855251809152604084019460408260051b8601019392955b828710620016b15785850386f35b909192938280620016cf600193603f198a8203018652885162001bb0565b9601920196019592919092620016a3565b6001888192620016f4859b9a989b62001d4e565b8152019201920191909693959662001676565b634e487b7160e01b82526041600452602482fd5b50346200015f57806003193601126200015f5760405180916005549081835260208093018092600583527f036b6384b5eca791c62761152d0c79bb0604c104a5fb6f4eb0703f3154bb3db090835b818110620017cb57505050846200178291038562001d2c565b60405193838594850191818652518092526040850193925b828110620017aa57505050500390f35b83516001600160a01b0316855286955093810193928101926001016200179a565b82546001600160a01b03168452928601926001928301920162001769565b50346200015f5760603660031901126200015f576001600160401b03906004358281116200064f576200182190369060040162001bd7565b6200182b62001b74565b9360443580151580910362000b2d57620018446200207e565b6040519183858437838301966002885260018060a01b0380600186819b60209889910301902001541615620019f257604051620018818162001cfc565b6200188e36888a62001dff565b815281868201931693848452604082019a868c52604051898b823788818b8101600281520301902092518051928311620019de57620018da83620018d3865462001c8d565b8662001e7b565b8891601f841160011462001963575092620004ab836200193b9796948e9f96947ffcc670ef83a2ab18fa316fd1535402582ad1c325995f34b0f96faeb21d0ef9eb9f95600196926200058a5750508160011b916000199060031b1c19161790565b6200195460405195869560608752606087019162001ed6565b9284015260408301520390a180f35b848d52898d20929190601f198516908e905b828210620019c6575050936001937ffcc670ef83a2ab18fa316fd1535402582ad1c325995f34b0f96faeb21d0ef9eb9e9f96938593836200193b9b9a9810620005d057505050811b018155620004ae565b83850151865594850194938c0193908c019062001975565b634e487b7160e01b8c52604160045260248cfd5b60405162461bcd60e51b815260048101869052600d60248201526c111156081b9bdd08199bdd5b99609a1b6044820152606490fd5b50346200015f576020806003193601126200064f57604062001a4862001b58565b928060a0835162001a598162001cca565b8281528581018390528481018390526060808201526080810183905201526001600160a01b03938416815260048352206040519162001a988362001cca565b83825416835262001b20600183015482850190868116825260ff604087019160a01c16151581528662001ace6002870162001d4e565b9260608801938452600460038801549760808a0198895201549560a08901968752604051998a99828b525116908901525116604087015251151560608601525160c0608086015260e085019062001bb0565b915160a08401525160c08301520390f35b50346200015f5760203660031901126200015f5762001b4f6200207e565b60043560065580f35b600435906001600160a01b038216820362001b6f57565b600080fd5b602435906001600160a01b038216820362001b6f57565b60005b83811062001b9f5750506000910152565b818101518382015260200162001b8e565b9060209162001bcb8151809281855285808601910162001b8b565b601f01601f1916010190565b9181601f8401121562001b6f578235916001600160401b03831162001b6f576020838186019501011162001b6f57565b60035481101562001c3f5760036000527fc2575a0e9e593c00f959f8c92f12db2869c3395a3b0502d05e2516446f71f85b0190600090565b634e487b7160e01b600052603260045260246000fd5b60055481101562001c3f5760056000527f036b6384b5eca791c62761152d0c79bb0604c104a5fb6f4eb0703f3154bb3db00190600090565b90600182811c9216801562001cbf575b602083101462001ca957565b634e487b7160e01b600052602260045260246000fd5b91607f169162001c9d565b60c081019081106001600160401b0382111762001ce657604052565b634e487b7160e01b600052604160045260246000fd5b606081019081106001600160401b0382111762001ce657604052565b6001600160401b03811162001ce657604052565b90601f801991011681019081106001600160401b0382111762001ce657604052565b9060405191826000825462001d638162001c8d565b9081845260209460019160018116908160001462001ddb575060011462001d98575b50505062001d969250038362001d2c565b565b600090815285812095935091905b81831062001dc257505062001d96935082010138808062001d85565b8554888401850152948501948794509183019162001da6565b9250505062001d9694925060ff191682840152151560051b82010138808062001d85565b9291926001600160401b03821162001ce6576040519162001e2b601f8201601f19166020018462001d2c565b82948184528183011162001b6f578281602093846000960137010152565b60405190604082018281106001600160401b0382111762001ce65760405260058252640322e322e360dc1b6020830152565b90601f811162001e8a57505050565b6000916000526020600020906020601f850160051c8301941062001ecb575b601f0160051c01915b82811062001ebf57505050565b81815560010162001eb2565b909250829062001ea9565b908060209392818452848401376000828201840152601f01601f1916010190565b903590601e198136030182121562001b6f57018035906001600160401b03821162001b6f5760200191813603831362001b6f57565b35801515810362001b6f5790565b356001600160a01b038116810362001b6f5790565b9190820180921162001f5d57565b634e487b7160e01b600052601160045260246000fd5b9081602091031262001b6f5751801515810362001b6f5790565b9081602091031262001b6f57516001600160a01b038116810362001b6f5790565b9092916001600160401b03811162001ce65762001fd1816200046d845462001c8d565b6000601f82116001146200201557819062002005939495600092620020095750508160011b916000199060031b1c19161790565b9055565b01359050388062000496565b601f19821694838252602091602081209281905b88821062002065575050836001959697106200204a575b505050811b019055565b0135600019600384901b60f8161c1916905538808062002040565b8060018496829495870135815501950192019062002029565b6000546001600160a01b031633036200209357565b606460405162461bcd60e51b815260206004820152602060248201527f4f776e61626c653a2063616c6c6572206973206e6f7420746865206f776e65726044820152fd5b600260015414620020e9576002600155565b60405162461bcd60e51b815260206004820152601f60248201527f5265656e7472616e637947756172643a207265656e7472616e742063616c6c006044820152606490fdfe60406080815234620009135762002612803803806200001e8162000918565b928339810161020082820312620009135781516001600160401b0381116200091357816200004e9184016200093e565b602083015190916001600160401b0382116200091357620000719184016200093e565b908383015190606084015160808501516200008f60a08701620009b0565b9260c087015196620000a460e08201620009be565b97610100820151906101208301519961014084015191620000c96101608601620009be565b96620000d96101808701620009be565b98620000e96101a08801620009be565b9c620001086101e0620001006101c08b01620009b0565b9901620009b0565b895190996001600160401b038211620007e55760035490600182811c9216801562000908575b6020831014620007c45781601f84931162000896575b50602090601f83116001146200080757600092620007fb575b50508160011b916000199060031b1c1916176003555b8051906001600160401b038211620007e55760045490600182811c92168015620007da575b6020831014620007c45781601f8493116200074f575b50602090601f8311600114620006c057600092620006b4575b50508160011b916000199060031b1c1916176004555b620001e83362000a87565b60016006558b1562000664578b811162000606578b8211620005ad5760196200021e8f6200021888918a620009d3565b620009d3565b1162000569576001600160a01b0389161562000515576001600160a01b038a1615620004bf576001600160a01b038d16156200046657600955600a556007805499151560ff1660ff199a8b16179055600855600b80546001600160a01b03199081166001600160a01b03938416908117909255600d94909455600e9b909b55600f919091556010805483169582169586179055601180549092169581169586179091556012805492151560a01b60ff60a01b166001600160b01b03199093169189169182179290921792151560a81b60ff60a81b16929092179055336000908152601360205288812080548616600190811790915530825289822080548716821790559281528881208054861684179055928352878320805485168317905582528682208054841682179055858252908690208054909216179055601481810290828204900362000450576064900490818103908111620004505762000389620003909284620009e1565b33620009e1565b811562000401576001600160a01b03166000818152600160209081528482208483528152908490206000199081905584519081527f8c5be1e5ebec7d5bd14f71427d1e84f3dd0314c0f7b2291e5b200ac8c7c3b9259190a3620003f33362000a87565b51611b41908162000ad18239f35b825162461bcd60e51b815260206004820152602260248201527f45524332303a20617070726f766520746f20746865207a65726f206164647265604482015261737360f01b6064820152608490fd5b634e487b7160e01b600052601160045260246000fd5b8e5162461bcd60e51b815260206004820152602c60248201527f4175746f2d6c69717569646974792077616c6c65742063616e6e6f742062652060448201526b7a65726f206164647265737360a01b6064820152608490fd5b8e5162461bcd60e51b815260206004820152602960248201527f446576656c6f706d656e742077616c6c65742063616e6e6f74206265207a65726044820152686f206164647265737360b81b6064820152608490fd5b8e5162461bcd60e51b815260206004820152602760248201527f4d61726b6574696e672077616c6c65742063616e6e6f74206265207a65726f206044820152666164647265737360c81b6064820152608490fd5b8e5162461bcd60e51b815260206004820152601c60248201527f546f74616c20666565732063616e6e6f742065786365656420323525000000006044820152606490fd5b8e5162461bcd60e51b815260206004820152602c60248201527f4d61782077616c6c657420616d6f756e742063616e6e6f74206578636565642060448201526b746f74616c20737570706c7960a01b6064820152608490fd5b8e5162461bcd60e51b815260206004820152603160248201527f4d6178207472616e73616374696f6e20616d6f756e742063616e6e6f742065786044820152706365656420746f74616c20737570706c7960781b6064820152608490fd5b8e5162461bcd60e51b815260206004820152602360248201527f546f74616c20737570706c79206d75737420626520677265617465722074686160448201526206e20360ec1b6064820152608490fd5b015190503880620001c7565b6004600090815293507f8a35acfbc15ff81a39ae7d344fd709f28e8600b4aa8c65c6b64bfe7fe36bd19b91905b601f198416851062000733576001945083601f1981161062000719575b505050811b01600455620001dd565b015160001960f88460031b161c191690553880806200070a565b81810151835560209485019460019093019290910190620006ed565b60046000529091507f8a35acfbc15ff81a39ae7d344fd709f28e8600b4aa8c65c6b64bfe7fe36bd19b601f840160051c81019160208510620007b9575b90601f859493920160051c01905b818110620007a95750620001ae565b600081558493506001016200079a565b90915081906200078c565b634e487b7160e01b600052602260045260246000fd5b91607f169162000198565b634e487b7160e01b600052604160045260246000fd5b0151905038806200015d565b6003600090815293507fc2575a0e9e593c00f959f8c92f12db2869c3395a3b0502d05e2516446f71f85b91905b601f19841685106200087a576001945083601f1981161062000860575b505050811b0160035562000173565b015160001960f88460031b161c1916905538808062000851565b8181015183556020948501946001909301929091019062000834565b60036000529091507fc2575a0e9e593c00f959f8c92f12db2869c3395a3b0502d05e2516446f71f85b601f840160051c81016020851062000900575b90849392915b601f830160051c82018110620008f057505062000144565b60008155859450600101620008d8565b5080620008d2565b91607f16916200012e565b600080fd5b6040519190601f01601f191682016001600160401b03811183821017620007e557604052565b919080601f84011215620009135782516001600160401b038111620007e55760209062000974601f8201601f1916830162000918565b92818452828287010111620009135760005b8181106200099c57508260009394955001015290565b858101830151848201840152820162000986565b519081151582036200091357565b51906001600160a01b03821682036200091357565b919082018092116200045057565b6001600160a01b031690811562000a42577fddf252ad1be2c89b69c2b068fc378daa952ba7f163c4a11628f55a4df523b3ef60208262000a26600094600254620009d3565b60025584845283825260408420818154019055604051908152a3565b60405162461bcd60e51b815260206004820152601f60248201527f45524332303a206d696e7420746f20746865207a65726f2061646472657373006044820152606490fd5b600580546001600160a01b039283166001600160a01b0319821681179092559091167f8be0079c531659141344cd1fd0a4f28419497f9722a3daafe3b4186f6b6457e0600080a356fe608060408181526004918236101561001657600080fd5b600092833560e01c91826306fdde0314611080575081630758d92414611057578163095ea7b31461102d5781630c439f9314611004578163153b0d1e14610f7257816318160ddd14610f5357816323b872dd14610e8957816327a14fc214610e225781632bf2b11b14610dfb578163313ce56714610ddf5781633950935114610d8f5781633dfc97e114610d4d5781634ada218b14610d295781635e29879014610d0a578163606e1b8114610ced57816370a0823114610caa57816370b7b80c14610c8b578163715018a614610c2e57816375cb1bd114610b5657816375f0a87414610b2d57816380ada68a14610b0e5781638187f51614610a2f57816381f5a25b146109ed5781638a8c523c146109365781638c0b5e22146109175781638da5cb5b146108ee57816395d89b41146107e95781639e4e7318146107ae5781639f7b0ed514610759578163a457c2d7146106b1578163a9059cbb14610680578163aa4bde2814610661578163bcc178fd1461063a578163c04a541414610611578163c0d7865514610530578163c1a68121146104f2578163dd62ed3e146104a9578163de37610e1461048a578163e9dae5ed146103bf578163ec28438a14610358578163f242ab411461032f578163f2fde38b1461026457508063fe575a87146102275763ffa1ad741461020957600080fd5b346102235781600319360112610223576020905160028152f35b5080fd5b50346102235760203660031901126102235760209160ff9082906001600160a01b036102516111be565b1681526014855220541690519015158152f35b90503461032b57602036600319011261032b5761027f6111be565b9061028861144a565b6001600160a01b039182169283156102d9575050600554826001600160601b0360a01b821617600555167f8be0079c531659141344cd1fd0a4f28419497f9722a3daafe3b4186f6b6457e08380a380f35b906020608492519162461bcd60e51b8352820152602660248201527f4f776e61626c653a206e6577206f776e657220697320746865207a65726f206160448201526564647265737360d01b6064820152fd5b8280fd5b505034610223578160031936011261022357600c5490516001600160a01b039091168152602090f35b90503461032b57602036600319011261032b577f947f344d56e1e8c70dc492fb94c4ddddd490c016aab685f5e7e47b2e85cb44cf91602091359061039a61144a565b6103a5821515611283565b6103b36002548311156112cf565b8160095551908152a180f35b8391503461022357606036600319011261022357803560243590604435926103e561144a565b60196103fa856103f58686611325565b611325565b11610447575061043e7f08a9cbb7bd5bab504d3fc44931790235ee0c3011feecaa62967a37e3f934146b936103f5602094848995600d5581600e5583600f55611325565b9051908152a180f35b606490602087519162461bcd60e51b8352820152601c60248201527f546f74616c20666565732063616e6e6f742065786365656420323525000000006044820152fd5b505034610223578160031936011261022357602090600f549051908152f35b505034610223578060031936011261022357806020926104c76111be565b6104cf6111d9565b6001600160a01b0391821683526001865283832091168252845220549051908152f35b5050346102235760203660031901126102235760209160ff9082906001600160a01b0361051d6111be565b1681526013855220541690519015158152f35b90503461032b57602036600319011261032b5761054b6111be565b6012546001600160a01b039190821633036105ce57600b549282841661059657501680916001600160601b0360a01b1617600b55825260136020528120600160ff1982541617905580f35b606490602086519162461bcd60e51b83528201526012602482015271149bdd5d195c88185b1c9958591e481cd95d60721b6044820152fd5b835162461bcd60e51b8152602081850152601b60248201527f4f6e6c7920666163746f72792063616e2073657420726f7574657200000000006044820152606490fd5b50503461022357816003193601126102235760115490516001600160a01b039091168152602090f35b50503461022357816003193601126102235760209060ff60125460a81c1690519015158152f35b505034610223578160031936011261022357602090600a549051908152f35b5050346102235780600319360112610223576020906106aa6106a06111be565b60243590336114b5565b5160018152f35b905082346107565782600319360112610756576106cc6111be565b918360243592338152600160205281812060018060a01b0386168252602052205490828210610705576020856106aa8585038733611348565b608490602086519162461bcd60e51b8352820152602560248201527f45524332303a2064656372656173656420616c6c6f77616e63652062656c6f77604482015264207a65726f60d81b6064820152fd5b80fd5b5050346102235780600319360112610223576107ab906107776111be565b906107806111ef565b9161078961144a565b60018060a01b03168452601360205283209060ff801983541691151516179055565b80f35b505034610223578160031936011261022357602090517f97831d354a6f8b80f2034ecb74ded90addda670141f845b47bcbb8c109be18a28152f35b83833461022357816003193601126102235780519180938054916001908360011c92600185169485156108e4575b60209586861081146108d1578589529081156108ad5750600114610855575b6108518787610847828c038361120d565b5191829182611175565b0390f35b81529295507f8a35acfbc15ff81a39ae7d344fd709f28e8600b4aa8c65c6b64bfe7fe36bd19b5b82841061089a57505050826108519461084792820101948680610836565b805486850188015292860192810161087c565b60ff19168887015250505050151560051b8301019250610847826108518680610836565b634e487b7160e01b845260228352602484fd5b93607f1693610817565b50503461022357816003193601126102235760055490516001600160a01b039091168152602090f35b5050346102235781600319360112610223576020906009549051908152f35b90503461032b578260031936011261032b5761095061144a565b6007549060ff82166109aa575060ff19166001176007556008547fb3da2db3dfc3778f99852546c6e9ab39ec253f9de7b0847afec61bd27878e92391602091156109a1575b6008549051908152a180f35b42600855610995565b606490602084519162461bcd60e51b8352820152601760248201527f54726164696e6720616c726561647920656e61626c65640000000000000000006044820152fd5b833461075657602036600319011261075657610a076111fe565b610a0f61144a565b6012805460ff60a01b191691151560a01b60ff60a01b1691909117905580f35b90503461032b57602036600319011261032b57610a4a6111be565b6012546001600160a01b03919082163303610acb57600c5492828416610a9557501680916001600160601b0360a01b1617600c55825260136020528120600160ff1982541617905580f35b606490602086519162461bcd60e51b8352820152601060248201526f14185a5c88185b1c9958591e481cd95d60821b6044820152fd5b835162461bcd60e51b8152602081850152601960248201527f4f6e6c7920666163746f72792063616e207365742070616972000000000000006044820152606490fd5b505034610223578160031936011261022357602090600d549051908152f35b50503461022357816003193601126102235760105490516001600160a01b039091168152602090f35b50503461022357606036600319011261022357610b716111be565b610b796111d9565b916001600160a01b03906044358281169190829003610c2a577f2d4c6aa48812a0ea09474a961613c1a3ae652d39a1580cb1ac46ff277e6d385d948284606096610bc161144a565b169485151580610c1f575b80610c16575b610bdb90611245565b6001600160601b0360a01b9286846010541617601055169182816011541617601155601254161760125581519384526020840152820152a180f35b50811515610bd2565b508083161515610bcc565b8580fd5b8334610756578060031936011261075657610c4761144a565b600580546001600160a01b0319811690915581906001600160a01b03167f8be0079c531659141344cd1fd0a4f28419497f9722a3daafe3b4186f6b6457e08280a380f35b5050346102235781600319360112610223576020906008549051908152f35b50503461022357602036600319011261022357602090610ce6610ccb6111be565b6001600160a01b031660009081526020819052604090205490565b9051908152f35b505034610223578160031936011261022357602090516103e88152f35b505034610223578160031936011261022357602090600e549051908152f35b50503461022357816003193601126102235760209060ff6007541690519015158152f35b833461075657602036600319011261075657610d676111fe565b610d6f61144a565b6012805460ff60a81b191691151560a81b60ff60a81b1691909117905580f35b5050346102235780600319360112610223576106aa602092610dd8610db26111be565b338352600186528483206001600160a01b03821684528652918490205460243590611325565b9033611348565b5050346102235781600319360112610223576020905160128152f35b50503461022357816003193601126102235760209060ff60125460a01c1690519015158152f35b90503461032b57602036600319011261032b577f4b39c36d20c57d220f61fd25c4349d4435cc03ef6c2a680942f15333c3c3e001916020913590610e6461144a565b610e6f821515611283565b610e7d6002548311156112cf565b81600a5551908152a180f35b8391503461022357606036600319011261022357610ea56111be565b610ead6111d9565b91846044359460018060a01b038416815260016020528181203382526020522054906000198203610ee7575b6020866106aa8787876114b5565b848210610f105750918391610f05602096956106aa95033383611348565b919394819350610ed9565b606490602087519162461bcd60e51b8352820152601d60248201527f45524332303a20696e73756666696369656e7420616c6c6f77616e63650000006044820152fd5b5050346102235781600319360112610223576020906002549051908152f35b5050346102235780600319360112610223577f6a12b3df6cba4203bd7fd06b816789f87de8c594299aed5717ae070fac781bac90610fae6111be565b610fb66111ef565b90610fbf61144a565b6001600160a01b031690610fd4821515611245565b8185526014602052610ff4818487209060ff801983541691151516179055565b825191825215156020820152a180f35b50503461022357816003193601126102235760125490516001600160a01b039091168152602090f35b5050346102235780600319360112610223576020906106aa61104d6111be565b6024359033611348565b505034610223578160031936011261022357600b5490516001600160a01b039091168152602090f35b92915034611171578360031936011261117157600354600181811c9186908281168015611167575b6020958686108214611154575084885290811561113257506001146110d9575b6108518686610847828b038361120d565b929550600383527fc2575a0e9e593c00f959f8c92f12db2869c3395a3b0502d05e2516446f71f85b5b82841061111f5750505082610851946108479282010194386110c8565b8054868501880152928601928101611102565b60ff191687860152505050151560051b830101925061084782610851386110c8565b634e487b7160e01b845260229052602483fd5b93607f16936110a8565b8380fd5b6020808252825181830181905290939260005b8281106111aa57505060409293506000838284010152601f8019910116010190565b818101860151848201604001528501611188565b600435906001600160a01b03821682036111d457565b600080fd5b602435906001600160a01b03821682036111d457565b6024359081151582036111d457565b6004359081151582036111d457565b90601f8019910116810190811067ffffffffffffffff82111761122f57604052565b634e487b7160e01b600052604160045260246000fd5b1561124c57565b60405162461bcd60e51b815260206004820152600f60248201526e496e76616c6964206164647265737360881b6044820152606490fd5b1561128a57565b60405162461bcd60e51b815260206004820152601d60248201527f416d6f756e74206d7573742062652067726561746572207468616e20300000006044820152606490fd5b156112d657565b60405162461bcd60e51b815260206004820152602160248201527f416d6f756e742063616e6e6f742065786365656420746f74616c20737570706c6044820152607960f81b6064820152608490fd5b9190820180921161133257565b634e487b7160e01b600052601160045260246000fd5b6001600160a01b039081169182156113f957169182156113a95760207f8c5be1e5ebec7d5bd14f71427d1e84f3dd0314c0f7b2291e5b200ac8c7c3b925918360005260018252604060002085600052825280604060002055604051908152a3565b60405162461bcd60e51b815260206004820152602260248201527f45524332303a20617070726f766520746f20746865207a65726f206164647265604482015261737360f01b6064820152608490fd5b60405162461bcd60e51b8152602060048201526024808201527f45524332303a20617070726f76652066726f6d20746865207a65726f206164646044820152637265737360e01b6064820152608490fd5b6005546001600160a01b0316330361145e57565b606460405162461bcd60e51b815260206004820152602060248201527f4f776e61626c653a2063616c6c6572206973206e6f7420746865206f776e65726044820152fd5b8181029291811591840414171561133257565b919060018060a01b03928381166000948186526020906014825260ff60409381858a205416158061198b575b15611951578089526013845281858a2054168015611940575b8015611923575b6119145781600754168015611907575b80156118f8575b156118be5760085480611878575b5060095480611828575b50600a5480151580611812575b6117ae575b5082600c5416808489161480156117a5575b61156b575b505050505050611569935061199d565b565b811480928193611796575b8115611776575b50611589575b80611559565b6064611597600d548a6114a2565b0460646115a6600e548b6114a2565b049160646115b6600f548c6114a2565b04956115c6876103f58686611325565b91826115d55750505050611583565b8c9b949699979a9395989b528b8152838b8d205410611729575082039182116117155790611603918561199d565b80611700575b50806116eb575b508361161f575b505050505050565b8361162f9184601254169061199d565b15806116bf575b611642575b8080611617565b6012541690813b15611171578391604483928551968793849263d3f2036b60e01b845230600485015260011c60248401525af180156116b357611686575b8061163b565b67ffffffffffffffff831161169f575052388080611680565b634e487b7160e01b81526041600452602490fd5b509051903d90823e3d90fd5b506103e86116e4826012541660018060a01b0316600052600060205260406000205490565b1015611636565b6116fa9084601154168361199d565b38611610565b61170f9085601054168461199d565b38611609565b634e487b7160e01b8a52601160045260248afd5b6084908b519062461bcd60e51b82526004820152602160248201527f496e73756666696369656e742062616c616e636520666f72207472616e7366656044820152603960f91b6064820152fd5b8315915081611787575b503861157d565b905060125460a81c1638611780565b60125460a01c81169150611576565b50808214611554565b8388168a528985526117c389878c2054611325565b116117ce5738611542565b845162461bcd60e51b815260048101859052601960248201527f45786365656473206d61782077616c6c657420616d6f756e74000000000000006044820152606490fd5b508388168a526013855282868b2054161561153d565b88116118345738611530565b845162461bcd60e51b815260048101859052601e60248201527f45786365656473206d6178207472616e73616374696f6e20616d6f756e7400006044820152606490fd5b42106118845738611526565b845162461bcd60e51b8152600481018590526013602482015272151c98591a5b99c81b9bdd081cdd185c9d1959606a1b6044820152606490fd5b845162461bcd60e51b8152600481018590526013602482015272151c98591a5b99c81b9bdd08195b98589b1959606a1b6044820152606490fd5b50826005541683881614611518565b5082600554168114611511565b5050505050611569935061199d565b508260055416811480156115015750826012541683881614611501565b50828716895281858a2054166114fa565b845162461bcd60e51b8152600481018590526013602482015272426c61636b6c6973746564206164647265737360681b6044820152606490fd5b50828716895281858a205416156114e1565b6001600160a01b03908116918215611ab85716918215611a6757600082815280602052604081205491808310611a1357604082827fddf252ad1be2c89b69c2b068fc378daa952ba7f163c4a11628f55a4df523b3ef958760209652828652038282205586815220818154019055604051908152a3565b60405162461bcd60e51b815260206004820152602660248201527f45524332303a207472616e7366657220616d6f756e7420657863656564732062604482015265616c616e636560d01b6064820152608490fd5b60405162461bcd60e51b815260206004820152602360248201527f45524332303a207472616e7366657220746f20746865207a65726f206164647260448201526265737360e81b6064820152608490fd5b60405162461bcd60e51b815260206004820152602560248201527f45524332303a207472616e736665722066726f6d20746865207a65726f206164604482015264647265737360d81b6064820152608490fdfea2646970667358221220fcdfcdb42675a673fac17e00df72106a54fd5ebdfa0d56d314b7044add66eb6364736f6c63430008160033a264697066735822122033687486fe0aceb2a335b8582bdb315f96078b35ad6c627910ac813f2adfa1ad64736f6c63430008160033","opcodes":"PUSH1 0x80 CALLVALUE PUSH2 0x9B JUMPI PUSH1 0x1F PUSH2 0x482D CODESIZE DUP2 SWAP1 SUB SWAP2 DUP3 ADD PUSH1 0x1F NOT AND DUP4 ADD SWAP2 PUSH1 0x1 PUSH1 0x1 PUSH1 0x40 SHL SUB DUP4 GT DUP5 DUP5 LT OR PUSH2 0xA0 JUMPI DUP1 DUP5 SWAP3 PUSH1 0x20 SWAP5 PUSH1 0x40 MSTORE DUP4 CODECOPY DUP2 ADD SUB SLT PUSH2 0x9B JUMPI MLOAD PUSH1 0x0 DUP1 SLOAD CALLER PUSH1 0x1 PUSH1 0x1 PUSH1 0xA0 SHL SUB NOT DUP3 AND DUP2 OR DUP4 SSTORE PUSH1 0x40 MLOAD SWAP4 SWAP3 SWAP1 SWAP2 PUSH1 0x1 PUSH1 0x1 PUSH1 0xA0 SHL SUB AND SWAP1 PUSH32 0x8BE0079C531659141344CD1FD0A4F28419497F9722A3DAAFE3B4186F6B6457E0 SWAP1 DUP1 LOG3 PUSH1 0x1 DUP1 SSTORE PUSH1 0x6 SSTORE PUSH2 0x4776 SWAP1 DUP2 PUSH2 0xB7 DUP3 CODECOPY RETURN JUMPDEST PUSH1 0x0 DUP1 REVERT JUMPDEST PUSH4 0x4E487B71 PUSH1 0xE0 SHL PUSH1 0x0 MSTORE PUSH1 0x41 PUSH1 0x4 MSTORE PUSH1 0x24 PUSH1 0x0 REVERT INVALID PUSH1 0x80 PUSH1 0x40 MSTORE PUSH1 0x4 CALLDATASIZE LT ISZERO PUSH3 0x13 JUMPI PUSH1 0x0 DUP1 REVERT JUMPDEST PUSH1 0x0 DUP1 CALLDATALOAD PUSH1 0xE0 SHR DUP1 PUSH4 0x131DBD09 EQ PUSH3 0x1B31 JUMPI DUP1 PUSH4 0x1F69565F EQ PUSH3 0x1A27 JUMPI DUP1 PUSH4 0x24B2982F EQ PUSH3 0x17E9 JUMPI DUP1 PUSH4 0x2A5C792A EQ PUSH3 0x171B JUMPI DUP1 PUSH4 0x386E07BF EQ PUSH3 0x1609 JUMPI DUP1 PUSH4 0x476343EE EQ PUSH3 0x15B3 JUMPI DUP1 PUSH4 0x4CAF81F5 EQ PUSH3 0x155B JUMPI DUP1 PUSH4 0x5066A842 EQ PUSH3 0x1047 JUMPI DUP1 PUSH4 0x5E7FFA67 EQ PUSH3 0xF90 JUMPI DUP1 PUSH4 0x634282AF EQ PUSH3 0xF47 JUMPI DUP1 PUSH4 0x6A1B7ECC EQ PUSH3 0x316 JUMPI DUP1 PUSH4 0x715018A6 EQ PUSH3 0xEE9 JUMPI DUP1 PUSH4 0x78E3399D EQ PUSH3 0xE10 JUMPI DUP1 PUSH4 0x81E090DF EQ PUSH3 0x67C JUMPI DUP1 PUSH4 0x8DA5CB5B EQ PUSH3 0x653 JUMPI DUP1 PUSH4 0x96186770 EQ PUSH3 0x38D JUMPI DUP1 PUSH4 0x9E4E7318 EQ PUSH3 0x336 JUMPI DUP1 PUSH4 0xB8FE6ABE EQ PUSH3 0x316 JUMPI DUP1 PUSH4 0xF2FDE38B EQ PUSH3 0x244 JUMPI DUP1 PUSH4 0xF5DAB711 EQ PUSH3 0x1AC JUMPI DUP1 PUSH4 0xF794062E EQ PUSH3 0x162 JUMPI PUSH4 0xFFA1AD74 EQ PUSH3 0x126 JUMPI PUSH1 0x0 DUP1 REVERT JUMPDEST CALLVALUE PUSH3 0x15F JUMPI DUP1 PUSH1 0x3 NOT CALLDATASIZE ADD SLT PUSH3 0x15F JUMPI PUSH3 0x15B PUSH3 0x146 PUSH3 0x1E49 JUMP JUMPDEST PUSH1 0x40 MLOAD SWAP2 DUP3 SWAP2 PUSH1 0x20 DUP4 MSTORE PUSH1 0x20 DUP4 ADD SWAP1 PUSH3 0x1BB0 JUMP JUMPDEST SUB SWAP1 RETURN JUMPDEST DUP1 REVERT JUMPDEST POP CALLVALUE PUSH3 0x15F JUMPI PUSH1 0x20 CALLDATASIZE PUSH1 0x3 NOT ADD SLT PUSH3 0x15F JUMPI PUSH1 0x20 SWAP1 PUSH1 0xFF SWAP1 PUSH1 0x1 SWAP1 PUSH1 0x40 SWAP1 PUSH1 0x1 PUSH1 0x1 PUSH1 0xA0 SHL SUB PUSH3 0x194 PUSH3 0x1B58 JUMP JUMPDEST AND DUP2 MSTORE PUSH1 0x4 DUP6 MSTORE KECCAK256 ADD SLOAD PUSH1 0xA0 SHR AND PUSH1 0x40 MLOAD SWAP1 ISZERO ISZERO DUP2 MSTORE RETURN JUMPDEST POP CALLVALUE PUSH3 0x15F JUMPI PUSH1 0x20 CALLDATASIZE PUSH1 0x3 NOT ADD SLT PUSH3 0x15F JUMPI PUSH1 0x1 PUSH1 0x1 PUSH1 0xA0 SHL SUB SWAP1 PUSH1 0x40 SWAP1 DUP3 PUSH3 0x1D7 PUSH3 0x1B58 JUMP JUMPDEST AND DUP2 MSTORE PUSH1 0x4 PUSH1 0x20 MSTORE KECCAK256 DUP2 DUP2 SLOAD AND SWAP1 PUSH1 0x1 DUP2 ADD SLOAD PUSH3 0x235 PUSH3 0x1FC PUSH1 0x2 DUP5 ADD PUSH3 0x1D4E JUMP JUMPDEST PUSH1 0xFF PUSH1 0x4 PUSH1 0x3 DUP7 ADD SLOAD SWAP6 ADD SLOAD SWAP4 PUSH1 0x40 MLOAD SWAP8 DUP9 SWAP8 DUP9 MSTORE DUP2 AND PUSH1 0x20 DUP9 ADD MSTORE PUSH1 0xA0 SHR AND ISZERO ISZERO PUSH1 0x40 DUP7 ADD MSTORE PUSH1 0xC0 PUSH1 0x60 DUP7 ADD MSTORE PUSH1 0xC0 DUP6 ADD SWAP1 PUSH3 0x1BB0 JUMP JUMPDEST SWAP2 PUSH1 0x80 DUP5 ADD MSTORE PUSH1 0xA0 DUP4 ADD MSTORE SUB SWAP1 RETURN JUMPDEST POP CALLVALUE PUSH3 0x15F JUMPI PUSH1 0x20 CALLDATASIZE PUSH1 0x3 NOT ADD SLT PUSH3 0x15F JUMPI PUSH3 0x262 PUSH3 0x1B58 JUMP JUMPDEST PUSH3 0x26C PUSH3 0x207E JUMP JUMPDEST PUSH1 0x1 PUSH1 0x1 PUSH1 0xA0 SHL SUB SWAP1 DUP2 AND SWAP1 DUP2 ISZERO PUSH3 0x2C2 JUMPI PUSH1 0x0 SLOAD DUP3 PUSH12 0xFFFFFFFFFFFFFFFFFFFFFFFF PUSH1 0xA0 SHL DUP3 AND OR PUSH1 0x0 SSTORE AND PUSH32 0x8BE0079C531659141344CD1FD0A4F28419497F9722A3DAAFE3B4186F6B6457E0 PUSH1 0x0 DUP1 LOG3 DUP1 RETURN JUMPDEST PUSH1 0x40 MLOAD PUSH3 0x461BCD PUSH1 0xE5 SHL DUP2 MSTORE PUSH1 0x20 PUSH1 0x4 DUP3 ADD MSTORE PUSH1 0x26 PUSH1 0x24 DUP3 ADD MSTORE PUSH32 0x4F776E61626C653A206E6577206F776E657220697320746865207A65726F2061 PUSH1 0x44 DUP3 ADD MSTORE PUSH6 0x646472657373 PUSH1 0xD0 SHL PUSH1 0x64 DUP3 ADD MSTORE PUSH1 0x84 SWAP1 REVERT JUMPDEST POP CALLVALUE PUSH3 0x15F JUMPI DUP1 PUSH1 0x3 NOT CALLDATASIZE ADD SLT PUSH3 0x15F JUMPI PUSH1 0x20 PUSH1 0x6 SLOAD PUSH1 0x40 MLOAD SWAP1 DUP2 MSTORE RETURN JUMPDEST POP CALLVALUE PUSH3 0x15F JUMPI DUP1 PUSH1 0x3 NOT CALLDATASIZE ADD SLT PUSH3 0x15F JUMPI PUSH1 0x20 PUSH3 0x355 PUSH3 0x1E49 JUMP JUMPDEST PUSH1 0x40 MLOAD PUSH3 0x382 DUP4 DUP3 DUP2 PUSH3 0x374 DUP2 DUP4 ADD SWAP7 DUP8 DUP2 MLOAD SWAP4 DUP5 SWAP3 ADD PUSH3 0x1B8B JUMP JUMPDEST DUP2 ADD SUB DUP1 DUP5 MSTORE ADD DUP3 PUSH3 0x1D2C JUMP JUMPDEST MLOAD SWAP1 KECCAK256 PUSH1 0x40 MLOAD SWAP1 DUP2 MSTORE RETURN JUMPDEST POP CALLVALUE PUSH3 0x15F JUMPI PUSH1 0x40 CALLDATASIZE PUSH1 0x3 NOT ADD SLT PUSH3 0x15F JUMPI PUSH1 0x1 PUSH1 0x1 PUSH1 0x40 SHL SUB SWAP1 PUSH1 0x4 CALLDATALOAD DUP3 DUP2 GT PUSH3 0x64F JUMPI PUSH3 0x3C5 SWAP1 CALLDATASIZE SWAP1 PUSH1 0x4 ADD PUSH3 0x1BD7 JUMP JUMPDEST PUSH3 0x3CF PUSH3 0x1B74 JUMP JUMPDEST SWAP4 PUSH3 0x3DA PUSH3 0x207E JUMP JUMPDEST PUSH1 0x40 MLOAD DUP1 SWAP2 DUP4 DUP6 DUP4 CALLDATACOPY DUP4 DUP3 ADD SWAP7 PUSH1 0x2 DUP9 MSTORE PUSH1 0x1 DUP1 PUSH1 0xA0 SHL SUB DUP1 SWAP9 PUSH1 0x1 SWAP5 DUP6 SWAP2 PUSH1 0x20 SWAP8 DUP9 SWAP2 SUB ADD SWAP1 KECCAK256 ADD SLOAD AND PUSH3 0x615 JUMPI PUSH1 0x40 MLOAD PUSH3 0x418 DUP2 PUSH3 0x1CFC JUMP JUMPDEST PUSH3 0x425 CALLDATASIZE DUP8 DUP10 PUSH3 0x1DFF JUMP JUMPDEST DUP2 MSTORE DUP9 DUP6 DUP3 ADD SWAP3 AND SWAP9 DUP10 DUP4 MSTORE PUSH1 0x40 DUP3 ADD SWAP2 DUP6 DUP4 MSTORE PUSH1 0x40 MLOAD DUP9 DUP11 DUP3 CALLDATACOPY DUP8 DUP2 DUP11 DUP2 ADD PUSH1 0x2 DUP2 MSTORE SUB ADD SWAP1 KECCAK256 SWAP1 MLOAD DUP1 MLOAD SWAP6 DUP7 GT PUSH3 0x601 JUMPI SWAP1 DUP7 SWAP2 PUSH3 0x474 DUP8 PUSH3 0x46D DUP5 SLOAD PUSH3 0x1C8D JUMP JUMPDEST DUP5 PUSH3 0x1E7B JUMP JUMPDEST DUP9 SWAP1 DUP13 PUSH1 0x1F DUP10 GT PUSH1 0x1 EQ PUSH3 0x596 JUMPI PUSH3 0x4E7 SWAP9 PUSH3 0x4AB SWAP4 SWAP1 SWAP3 DUP4 PUSH3 0x58A JUMPI JUMPDEST POP POP DUP2 PUSH1 0x1 SHL SWAP2 PUSH1 0x0 NOT SWAP1 PUSH1 0x3 SHL SHR NOT AND OR SWAP1 JUMP JUMPDEST DUP2 SSTORE JUMPDEST ADD SWAP3 MLOAD AND PUSH12 0xFFFFFFFFFFFFFFFFFFFFFFFF PUSH1 0xA0 SHL DUP4 SLOAD AND OR DUP3 SSTORE MLOAD ISZERO ISZERO DUP2 SLOAD SWAP1 PUSH1 0xFF PUSH1 0xA0 SHL SWAP1 ISZERO ISZERO PUSH1 0xA0 SHL AND SWAP1 PUSH1 0xFF PUSH1 0xA0 SHL NOT AND OR SWAP1 SSTORE JUMP JUMPDEST PUSH1 0x3 SLOAD SWAP1 PUSH1 0x1 PUSH1 0x40 SHL DUP3 LT ISZERO PUSH3 0x576 JUMPI DUP2 ADD PUSH1 0x3 SSTORE PUSH3 0x508 SWAP1 PUSH3 0x1C07 JUMP JUMPDEST SWAP6 SWAP1 SWAP6 PUSH3 0x562 JUMPI PUSH3 0x53F DUP4 DUP6 PUSH32 0xDC80CAAC0FC930B05B1B5C1F27F1B45D60B2FA42A563CFAA28619F76DA9EFCCC SWAP8 SWAP9 PUSH3 0x1FAE JUMP JUMPDEST PUSH3 0x558 PUSH1 0x40 MLOAD SWAP5 DUP6 SWAP5 PUSH1 0x40 DUP7 MSTORE PUSH1 0x40 DUP7 ADD SWAP2 PUSH3 0x1ED6 JUMP JUMPDEST SWAP2 DUP4 ADD MSTORE SUB SWAP1 LOG1 DUP1 RETURN JUMPDEST PUSH4 0x4E487B71 PUSH1 0xE0 SHL DUP6 MSTORE PUSH1 0x4 DUP6 SWAP1 MSTORE PUSH1 0x24 DUP6 REVERT JUMPDEST PUSH4 0x4E487B71 PUSH1 0xE0 SHL DUP7 MSTORE PUSH1 0x41 PUSH1 0x4 MSTORE PUSH1 0x24 DUP7 REVERT JUMPDEST ADD MLOAD SWAP1 POP CODESIZE DUP1 PUSH3 0x496 JUMP JUMPDEST SWAP2 SWAP1 PUSH1 0x1F NOT DUP10 AND DUP5 DUP5 MSTORE DUP12 DUP5 KECCAK256 SWAP4 JUMPDEST DUP13 DUP3 DUP3 LT PUSH3 0x5EA JUMPI POP POP SWAP2 DUP6 SWAP4 SWAP2 DUP11 PUSH3 0x4E7 SWAP12 SWAP5 LT PUSH3 0x5D0 JUMPI JUMPDEST POP POP POP DUP2 SHL ADD DUP2 SSTORE PUSH3 0x4AE JUMP JUMPDEST ADD MLOAD PUSH1 0x0 NOT PUSH1 0xF8 DUP5 PUSH1 0x3 SHL AND SHR NOT AND SWAP1 SSTORE CODESIZE DUP1 DUP1 PUSH3 0x5C2 JUMP JUMPDEST DUP4 DUP6 ADD MLOAD DUP7 SSTORE DUP13 SWAP8 SWAP1 SWAP6 ADD SWAP5 SWAP4 DUP5 ADD SWAP4 ADD PUSH3 0x5A5 JUMP JUMPDEST PUSH4 0x4E487B71 PUSH1 0xE0 SHL DUP12 MSTORE PUSH1 0x41 PUSH1 0x4 MSTORE PUSH1 0x24 DUP12 REVERT JUMPDEST PUSH1 0x40 MLOAD PUSH3 0x461BCD PUSH1 0xE5 SHL DUP2 MSTORE PUSH1 0x4 DUP2 ADD DUP6 SWAP1 MSTORE PUSH1 0x12 PUSH1 0x24 DUP3 ADD MSTORE PUSH18 0x44455820616C726561647920657869737473 PUSH1 0x70 SHL PUSH1 0x44 DUP3 ADD MSTORE PUSH1 0x64 SWAP1 REVERT JUMPDEST POP DUP1 REVERT JUMPDEST POP CALLVALUE PUSH3 0x15F JUMPI DUP1 PUSH1 0x3 NOT CALLDATASIZE ADD SLT PUSH3 0x15F JUMPI SLOAD PUSH1 0x40 MLOAD PUSH1 0x1 PUSH1 0x1 PUSH1 0xA0 SHL SUB SWAP1 SWAP2 AND DUP2 MSTORE PUSH1 0x20 SWAP1 RETURN JUMPDEST POP PUSH1 0x80 CALLDATASIZE PUSH1 0x3 NOT ADD SLT PUSH3 0x15F JUMPI PUSH3 0x694 PUSH3 0x1B58 JUMP JUMPDEST PUSH1 0x64 CALLDATALOAD PUSH1 0x1 PUSH1 0x1 PUSH1 0x40 SHL SUB DUP2 GT PUSH3 0xE0C JUMPI PUSH3 0x6B6 SWAP1 CALLDATASIZE SWAP1 PUSH1 0x4 ADD PUSH3 0x1BD7 JUMP JUMPDEST PUSH3 0x6C3 SWAP4 SWAP2 SWAP4 PUSH3 0x20D7 JUMP JUMPDEST PUSH1 0x1 PUSH1 0x1 PUSH1 0xA0 SHL SUB DUP4 DUP2 AND DUP4 MSTORE PUSH1 0x4 PUSH1 0x20 MSTORE PUSH1 0x40 DUP4 KECCAK256 DUP1 SLOAD SWAP1 SWAP6 SWAP2 AND ISZERO PUSH3 0xDEB JUMPI PUSH1 0x1 DUP6 ADD SLOAD PUSH1 0xFF DUP2 PUSH1 0xA0 SHR AND PUSH3 0xDCA JUMPI CALLER PUSH1 0x1 PUSH1 0x1 PUSH1 0xA0 SHL SUB SWAP1 SWAP2 AND SUB PUSH3 0xDA3 JUMPI PUSH1 0x6 SLOAD PUSH3 0x719 DUP2 PUSH1 0x24 CALLDATALOAD PUSH3 0x1F4F JUMP JUMPDEST CALLVALUE LT PUSH3 0xD79 JUMPI POP PUSH1 0xFF PUSH1 0x1 PUSH1 0x40 MLOAD DUP5 DUP5 DUP3 CALLDATACOPY PUSH1 0x20 DUP2 DUP7 DUP2 ADD PUSH1 0x2 DUP2 MSTORE SUB ADD SWAP1 KECCAK256 ADD SLOAD PUSH1 0xA0 SHR AND ISZERO PUSH3 0xD52 JUMPI PUSH1 0x40 MLOAD DUP3 DUP3 DUP3 CALLDATACOPY PUSH1 0x2 DUP2 DUP5 ADD SWAP1 DUP2 MSTORE DUP2 SWAP1 SUB PUSH1 0x20 SWAP1 DUP2 ADD SWAP1 SWAP2 KECCAK256 PUSH1 0x1 ADD SLOAD PUSH1 0x40 MLOAD PUSH4 0x18160DDD PUSH1 0xE0 SHL DUP2 MSTORE SWAP7 SWAP2 PUSH1 0x1 PUSH1 0x1 PUSH1 0xA0 SHL SUB SWAP2 DUP3 AND SWAP2 DUP9 SWAP1 PUSH1 0x4 SWAP1 DUP3 SWAP1 DUP11 AND GAS STATICCALL SWAP7 DUP8 ISZERO PUSH3 0xD47 JUMPI DUP6 SWAP8 PUSH3 0xD0D JUMPI JUMPDEST POP DUP7 PUSH1 0x14 DUP2 MUL DIV PUSH1 0x14 EQ DUP8 ISZERO OR ISZERO PUSH3 0xCF9 JUMPI PUSH1 0x40 MLOAD PUSH4 0x6EB1769F PUSH1 0xE1 SHL DUP2 MSTORE CALLER PUSH1 0x4 DUP3 ADD MSTORE ADDRESS PUSH1 0x24 DUP3 ADD MSTORE PUSH1 0x20 DUP2 PUSH1 0x44 DUP2 PUSH1 0x1 PUSH1 0x1 PUSH1 0xA0 SHL SUB DUP12 AND GAS STATICCALL SWAP1 DUP2 ISZERO PUSH3 0xB83 JUMPI DUP7 SWAP2 PUSH3 0xCC1 JUMPI JUMPDEST POP PUSH1 0x64 PUSH1 0x14 DUP10 MUL DIV DUP2 LT PUSH3 0xC9D JUMPI POP PUSH1 0x40 MLOAD PUSH4 0x23B872DD PUSH1 0xE0 SHL DUP2 MSTORE CALLER PUSH1 0x4 DUP3 ADD MSTORE ADDRESS PUSH1 0x24 DUP3 ADD MSTORE PUSH1 0x64 PUSH1 0x14 DUP10 MUL DUP2 SWAP1 DIV PUSH1 0x44 DUP4 ADD MSTORE PUSH1 0x20 SWAP1 DUP3 SWAP1 DUP2 DUP10 PUSH1 0x1 PUSH1 0x1 PUSH1 0xA0 SHL SUB DUP13 AND GAS CALL DUP1 ISZERO PUSH3 0xB83 JUMPI PUSH3 0xC79 JUMPI JUMPDEST POP PUSH1 0x40 MLOAD PUSH4 0xC45A0155 PUSH1 0xE0 SHL DUP2 MSTORE PUSH1 0x20 DUP2 PUSH1 0x4 DUP2 DUP6 GAS STATICCALL SWAP1 DUP2 ISZERO PUSH3 0xB83 JUMPI DUP7 SWAP2 PUSH3 0xC55 JUMPI JUMPDEST POP PUSH1 0x40 MLOAD PUSH4 0x15AB88C9 PUSH1 0xE3 SHL DUP2 MSTORE SWAP1 PUSH1 0x20 DUP3 PUSH1 0x4 DUP2 DUP7 GAS STATICCALL SWAP2 DUP3 ISZERO PUSH3 0xBC0 JUMPI SWAP2 PUSH1 0x20 SWAP2 PUSH3 0x8CF SWAP4 DUP10 SWAP3 PUSH3 0xC31 JUMPI JUMPDEST POP PUSH1 0x40 MLOAD PUSH4 0x64E329CB PUSH1 0xE1 SHL DUP2 MSTORE PUSH1 0x1 PUSH1 0x1 PUSH1 0xA0 SHL SUB DUP1 DUP13 AND PUSH1 0x4 DUP4 ADD MSTORE SWAP1 SWAP3 AND PUSH1 0x24 DUP4 ADD MSTORE SWAP1 SWAP3 DUP4 SWAP2 SWAP1 DUP3 SWAP1 DUP11 SWAP1 DUP3 SWAP1 PUSH1 0x44 DUP3 ADD SWAP1 JUMP JUMPDEST SUB SWAP3 PUSH1 0x1 PUSH1 0x1 PUSH1 0xA0 SHL SUB AND GAS CALL SWAP1 DUP2 ISZERO PUSH3 0xB83 JUMPI DUP7 SWAP2 PUSH3 0xBFB JUMPI JUMPDEST POP PUSH1 0x1 PUSH1 0x1 PUSH1 0xA0 SHL SUB AND DUP1 ISZERO PUSH3 0xBCB JUMPI PUSH1 0x1 PUSH1 0x1 PUSH1 0xA0 SHL SUB DUP8 AND EXTCODESIZE ISZERO PUSH3 0xBA6 JUMPI PUSH1 0x40 MLOAD PUSH4 0xC0D78655 PUSH1 0xE0 SHL DUP2 MSTORE PUSH1 0x4 DUP2 ADD DUP4 SWAP1 MSTORE DUP7 DUP2 PUSH1 0x24 DUP2 DUP4 PUSH1 0x1 PUSH1 0x1 PUSH1 0xA0 SHL SUB DUP14 AND GAS CALL DUP1 ISZERO PUSH3 0xBC0 JUMPI PUSH3 0xBAA JUMPI JUMPDEST POP PUSH1 0x1 PUSH1 0x1 PUSH1 0xA0 SHL SUB DUP8 AND EXTCODESIZE ISZERO PUSH3 0xBA6 JUMPI PUSH1 0x40 MLOAD PUSH4 0x40C3FA8B PUSH1 0xE1 SHL DUP2 MSTORE PUSH1 0x4 DUP2 ADD SWAP2 SWAP1 SWAP2 MSTORE DUP6 DUP2 PUSH1 0x24 DUP2 DUP4 PUSH1 0x1 PUSH1 0x1 PUSH1 0xA0 SHL SUB DUP13 AND GAS CALL DUP1 ISZERO PUSH3 0xB83 JUMPI SWAP1 DUP7 SWAP2 PUSH3 0xB8E JUMPI JUMPDEST POP POP PUSH1 0x40 MLOAD PUSH4 0x95EA7B3 PUSH1 0xE0 SHL DUP2 MSTORE PUSH1 0x4 DUP2 ADD DUP3 SWAP1 MSTORE PUSH1 0x64 PUSH1 0x14 DUP10 MUL DIV PUSH1 0x24 DUP3 ADD MSTORE PUSH1 0x20 DUP2 PUSH1 0x44 DUP2 DUP10 PUSH1 0x1 PUSH1 0x1 PUSH1 0xA0 SHL SUB DUP13 AND GAS CALL DUP1 ISZERO PUSH3 0xB83 JUMPI PUSH3 0xB4D JUMPI JUMPDEST POP PUSH2 0x12C TIMESTAMP ADD DUP1 TIMESTAMP GT PUSH3 0xB39 JUMPI DUP8 PUSH1 0xC4 DUP9 PUSH1 0x14 SWAP5 PUSH1 0x60 SWAP5 PUSH1 0x64 PUSH1 0x40 MLOAD SWAP8 DUP9 SWAP7 DUP8 SWAP6 PUSH4 0xF305D719 PUSH1 0xE0 SHL DUP8 MSTORE PUSH1 0x1 DUP1 PUSH1 0xA0 SHL SUB AND PUSH1 0x4 DUP8 ADD MSTORE MUL DIV PUSH1 0x24 DUP5 ADD MSTORE DUP11 PUSH1 0x44 DUP5 ADD MSTORE DUP11 PUSH1 0x64 DUP5 ADD MSTORE ADDRESS PUSH1 0x84 DUP5 ADD MSTORE PUSH1 0xA4 DUP4 ADD MSTORE PUSH1 0x24 CALLDATALOAD SWAP1 GAS CALL SWAP1 DUP2 PUSH3 0xB04 JUMPI JUMPDEST POP PUSH3 0xA6C JUMPI PUSH1 0x40 MLOAD PUSH4 0xBAFF611 PUSH1 0xE2 SHL DUP2 MSTORE PUSH1 0x1 PUSH1 0x1 PUSH1 0xA0 SHL SUB DUP7 AND PUSH1 0x4 DUP3 ADD MSTORE PUSH1 0x24 DUP1 CALLDATALOAD SWAP1 DUP3 ADD MSTORE PUSH1 0x64 PUSH1 0x14 DUP9 MUL DUP2 SWAP1 DIV PUSH1 0x44 DUP4 ADD MSTORE SWAP1 REVERT JUMPDEST PUSH1 0x1 DUP2 ADD DUP1 SLOAD PUSH1 0xFF PUSH1 0xA0 SHL NOT AND PUSH1 0x1 PUSH1 0xA0 SHL OR SWAP1 SSTORE DUP5 SWAP3 SWAP2 PUSH32 0x52B537B7EFD09A072D62379791A3F242C784095AA9E11DBBA910B624ECEC68B8 SWAP2 PUSH3 0xAD5 SWAP2 SWAP1 PUSH3 0xABC DUP6 DUP4 PUSH1 0x2 DUP5 ADD PUSH3 0x1FAE JUMP JUMPDEST PUSH1 0x4 TIMESTAMP SWAP2 ADD SSTORE PUSH1 0x40 MLOAD SWAP4 PUSH1 0x80 DUP6 MSTORE PUSH1 0x80 DUP6 ADD SWAP2 PUSH3 0x1ED6 JUMP JUMPDEST PUSH1 0x24 CALLDATALOAD PUSH1 0x20 DUP5 ADD MSTORE PUSH1 0x44 CALLDATALOAD PUSH1 0x40 DUP5 ADD MSTORE TIMESTAMP PUSH1 0x60 DUP5 ADD MSTORE CALLER SWAP4 PUSH1 0x1 PUSH1 0x1 PUSH1 0xA0 SHL SUB AND SWAP3 SWAP1 DUP2 SWAP1 SUB SWAP1 LOG3 PUSH1 0x1 DUP1 SSTORE DUP1 RETURN JUMPDEST PUSH1 0x60 SWAP1 DUP2 RETURNDATASIZE DUP4 GT PUSH3 0xB31 JUMPI JUMPDEST PUSH3 0xB1D DUP2 DUP4 PUSH3 0x1D2C JUMP JUMPDEST DUP2 ADD SUB SLT PUSH3 0xB2D JUMPI CODESIZE PUSH3 0xA31 JUMP JUMPDEST DUP5 DUP1 REVERT JUMPDEST POP RETURNDATASIZE PUSH3 0xB11 JUMP JUMPDEST PUSH4 0x4E487B71 PUSH1 0xE0 SHL DUP7 MSTORE PUSH1 0x11 PUSH1 0x4 MSTORE PUSH1 0x24 DUP7 REVERT JUMPDEST PUSH3 0xB73 SWAP1 PUSH1 0x20 RETURNDATASIZE PUSH1 0x20 GT PUSH3 0xB7B JUMPI JUMPDEST PUSH3 0xB6A DUP2 DUP4 PUSH3 0x1D2C JUMP JUMPDEST DUP2 ADD SWAP1 PUSH3 0x1F73 JUMP JUMPDEST POP CODESIZE PUSH3 0x9CC JUMP JUMPDEST POP RETURNDATASIZE PUSH3 0xB5E JUMP JUMPDEST PUSH1 0x40 MLOAD RETURNDATASIZE DUP9 DUP3 RETURNDATACOPY RETURNDATASIZE SWAP1 REVERT JUMPDEST PUSH3 0xB99 SWAP1 PUSH3 0x1D18 JUMP JUMPDEST PUSH3 0xB2D JUMPI DUP5 CODESIZE PUSH3 0x98A JUMP JUMPDEST DUP6 DUP1 REVERT JUMPDEST PUSH3 0xBB8 SWAP1 SWAP7 SWAP2 SWAP7 PUSH3 0x1D18 JUMP JUMPDEST SWAP5 CODESIZE PUSH3 0x941 JUMP JUMPDEST PUSH1 0x40 MLOAD RETURNDATASIZE DUP10 DUP3 RETURNDATACOPY RETURNDATASIZE SWAP1 REVERT JUMPDEST POP PUSH1 0x40 MLOAD PUSH4 0x4FE1E92B PUSH1 0xE1 SHL DUP2 MSTORE PUSH1 0x1 PUSH1 0x1 PUSH1 0xA0 SHL SUB DUP8 DUP2 AND PUSH1 0x4 DUP4 ADD MSTORE SWAP2 SWAP1 SWAP2 AND PUSH1 0x24 DUP3 ADD MSTORE PUSH1 0x44 SWAP1 REVERT JUMPDEST SUB SWAP1 REVERT JUMPDEST PUSH3 0xC22 SWAP2 POP PUSH1 0x20 RETURNDATASIZE PUSH1 0x20 GT PUSH3 0xC29 JUMPI JUMPDEST PUSH3 0xC19 DUP2 DUP4 PUSH3 0x1D2C JUMP JUMPDEST DUP2 ADD SWAP1 PUSH3 0x1F8D JUMP JUMPDEST CODESIZE PUSH3 0x8EC JUMP JUMPDEST POP RETURNDATASIZE PUSH3 0xC0D JUMP JUMPDEST PUSH3 0xC4D SWAP2 SWAP3 POP DUP4 RETURNDATASIZE DUP6 GT PUSH3 0xC29 JUMPI PUSH3 0xC19 DUP2 DUP4 PUSH3 0x1D2C JUMP JUMPDEST SWAP1 CODESIZE PUSH3 0x897 JUMP JUMPDEST PUSH3 0xC72 SWAP2 POP PUSH1 0x20 RETURNDATASIZE PUSH1 0x20 GT PUSH3 0xC29 JUMPI PUSH3 0xC19 DUP2 DUP4 PUSH3 0x1D2C JUMP JUMPDEST CODESIZE PUSH3 0x866 JUMP JUMPDEST PUSH3 0xC95 SWAP1 PUSH1 0x20 RETURNDATASIZE PUSH1 0x20 GT PUSH3 0xB7B JUMPI PUSH3 0xB6A DUP2 DUP4 PUSH3 0x1D2C JUMP JUMPDEST POP CODESIZE PUSH3 0x83F JUMP JUMPDEST DUP8 PUSH1 0x44 SWAP2 PUSH1 0x64 PUSH1 0x14 PUSH1 0x40 MLOAD SWAP4 PUSH4 0xDC98D7BB PUSH1 0xE0 SHL DUP6 MSTORE MUL DIV PUSH1 0x4 DUP4 ADD MSTORE PUSH1 0x24 DUP3 ADD MSTORE REVERT JUMPDEST SWAP1 POP PUSH1 0x20 DUP2 RETURNDATASIZE PUSH1 0x20 GT PUSH3 0xCF0 JUMPI JUMPDEST DUP2 PUSH3 0xCDF PUSH1 0x20 SWAP4 DUP4 PUSH3 0x1D2C JUMP JUMPDEST DUP2 ADD SUB SLT PUSH3 0xBA6 JUMPI MLOAD CODESIZE PUSH3 0x7E8 JUMP JUMPDEST RETURNDATASIZE SWAP2 POP PUSH3 0xCD0 JUMP JUMPDEST PUSH4 0x4E487B71 PUSH1 0xE0 SHL DUP6 MSTORE PUSH1 0x11 PUSH1 0x4 MSTORE PUSH1 0x24 DUP6 REVERT JUMPDEST SWAP1 SWAP7 POP PUSH1 0x20 DUP2 RETURNDATASIZE PUSH1 0x20 GT PUSH3 0xD3E JUMPI JUMPDEST DUP2 PUSH3 0xD2C PUSH1 0x20 SWAP4 DUP4 PUSH3 0x1D2C JUMP JUMPDEST DUP2 ADD SUB SLT PUSH3 0xB2D JUMPI MLOAD SWAP6 CODESIZE PUSH3 0x79A JUMP JUMPDEST RETURNDATASIZE SWAP2 POP PUSH3 0xD1D JUMP JUMPDEST PUSH1 0x40 MLOAD RETURNDATASIZE DUP8 DUP3 RETURNDATACOPY RETURNDATASIZE SWAP1 REVERT JUMPDEST PUSH1 0x40 MLOAD PUSH4 0x79370A75 PUSH1 0xE0 SHL DUP2 MSTORE PUSH1 0x20 PUSH1 0x4 DUP3 ADD MSTORE SWAP2 DUP3 SWAP2 PUSH3 0xBF7 SWAP2 PUSH1 0x24 DUP5 ADD SWAP2 PUSH3 0x1ED6 JUMP JUMPDEST PUSH3 0xD89 PUSH1 0x44 SWAP2 PUSH1 0x24 CALLDATALOAD PUSH3 0x1F4F JUMP JUMPDEST PUSH1 0x40 MLOAD SWAP1 PUSH3 0xFDF575 PUSH1 0xE5 SHL DUP3 MSTORE PUSH1 0x4 DUP3 ADD MSTORE CALLVALUE PUSH1 0x24 DUP3 ADD MSTORE REVERT JUMPDEST PUSH1 0x40 MLOAD PUSH4 0xE9EA65F PUSH1 0xE2 SHL DUP2 MSTORE PUSH1 0x1 PUSH1 0x1 PUSH1 0xA0 SHL SUB DUP6 AND PUSH1 0x4 DUP3 ADD MSTORE CALLER PUSH1 0x24 DUP3 ADD MSTORE PUSH1 0x44 SWAP1 REVERT JUMPDEST PUSH1 0x40 MLOAD PUSH4 0x3FB6E971 PUSH1 0xE0 SHL DUP2 MSTORE PUSH1 0x1 PUSH1 0x1 PUSH1 0xA0 SHL SUB DUP7 AND PUSH1 0x4 DUP3 ADD MSTORE PUSH1 0x24 SWAP1 REVERT JUMPDEST PUSH1 0x40 MLOAD PUSH4 0xDE6137D1 PUSH1 0xE0 SHL DUP2 MSTORE PUSH1 0x1 PUSH1 0x1 PUSH1 0xA0 SHL SUB DUP6 AND PUSH1 0x4 DUP3 ADD MSTORE PUSH1 0x24 SWAP1 REVERT JUMPDEST DUP3 DUP1 REVERT JUMPDEST POP CALLVALUE PUSH3 0x15F JUMPI PUSH1 0x20 DUP1 PUSH1 0x3 NOT CALLDATASIZE ADD SLT PUSH3 0x64F JUMPI PUSH1 0x4 CALLDATALOAD PUSH1 0x1 PUSH1 0x1 PUSH1 0x40 SHL SUB DUP2 GT PUSH3 0xE0C JUMPI SWAP2 DUP2 PUSH3 0xE4B PUSH1 0x60 SWAP5 CALLDATASIZE SWAP1 PUSH1 0x4 ADD PUSH3 0x1BD7 JUMP JUMPDEST SWAP3 PUSH1 0x40 DUP1 MLOAD PUSH3 0xE5B DUP2 PUSH3 0x1CFC JUMP JUMPDEST DUP8 DUP2 MSTORE DUP3 DUP6 DUP3 ADD MSTORE ADD MSTORE DUP3 PUSH1 0x40 MLOAD SWAP4 DUP5 SWAP3 DUP4 CALLDATACOPY DUP2 ADD PUSH1 0x2 DUP2 MSTORE SUB ADD SWAP1 KECCAK256 SWAP1 PUSH1 0x1 PUSH1 0x40 MLOAD SWAP3 PUSH3 0xE8A DUP5 PUSH3 0x1CFC JUMP JUMPDEST PUSH3 0xE95 DUP2 PUSH3 0x1D4E JUMP JUMPDEST DUP5 MSTORE ADD SLOAD PUSH1 0x1 DUP1 PUSH1 0xA0 SHL SUB PUSH3 0xED5 DUP4 DUP6 ADD SWAP4 DUP3 DUP5 AND DUP6 MSTORE PUSH1 0xFF PUSH1 0x40 DUP8 ADD SWAP5 PUSH1 0xA0 SHR AND ISZERO ISZERO DUP5 MSTORE PUSH1 0x40 MLOAD SWAP7 DUP8 SWAP7 DUP3 DUP9 MSTORE MLOAD SWAP2 DUP8 ADD MSTORE PUSH1 0x80 DUP7 ADD SWAP1 PUSH3 0x1BB0 JUMP JUMPDEST SWAP3 MLOAD AND PUSH1 0x40 DUP5 ADD MSTORE MLOAD ISZERO ISZERO PUSH1 0x60 DUP4 ADD MSTORE SUB SWAP1 RETURN JUMPDEST POP CALLVALUE PUSH3 0x15F JUMPI DUP1 PUSH1 0x3 NOT CALLDATASIZE ADD SLT PUSH3 0x15F JUMPI PUSH3 0xF06 PUSH3 0x207E JUMP JUMPDEST DUP1 SLOAD PUSH1 0x1 PUSH1 0x1 PUSH1 0xA0 SHL SUB NOT DUP2 AND DUP3 SSTORE DUP2 SWAP1 PUSH1 0x1 PUSH1 0x1 PUSH1 0xA0 SHL SUB AND PUSH32 0x8BE0079C531659141344CD1FD0A4F28419497F9722A3DAAFE3B4186F6B6457E0 DUP3 DUP1 LOG3 DUP1 RETURN JUMPDEST POP CALLVALUE PUSH3 0x15F JUMPI PUSH1 0x20 CALLDATASIZE PUSH1 0x3 NOT ADD SLT PUSH3 0x15F JUMPI PUSH1 0x4 CALLDATALOAD SWAP1 PUSH1 0x5 SLOAD DUP3 LT ISZERO PUSH3 0x15F JUMPI PUSH1 0x20 PUSH3 0xF77 DUP4 PUSH3 0x1C55 JUMP JUMPDEST SWAP1 SLOAD PUSH1 0x40 MLOAD PUSH1 0x3 SWAP3 SWAP1 SWAP3 SHL SHR PUSH1 0x1 PUSH1 0x1 PUSH1 0xA0 SHL SUB AND DUP2 MSTORE RETURN JUMPDEST POP CALLVALUE PUSH3 0x15F JUMPI PUSH1 0x20 CALLDATASIZE PUSH1 0x3 NOT ADD SLT PUSH3 0x15F JUMPI PUSH1 0x4 CALLDATALOAD SWAP1 PUSH1 0x1 PUSH1 0x1 PUSH1 0x40 SHL SUB DUP3 GT PUSH3 0x15F JUMPI CALLDATASIZE PUSH1 0x23 DUP4 ADD SLT ISZERO PUSH3 0x15F JUMPI PUSH3 0x1026 PUSH3 0xFF5 PUSH1 0x20 PUSH3 0xFE1 CALLDATASIZE PUSH1 0x4 DUP8 ADD CALLDATALOAD PUSH1 0x24 DUP9 ADD PUSH3 0x1DFF JUMP JUMPDEST DUP2 PUSH1 0x40 MLOAD SWAP4 DUP3 DUP6 DUP1 SWAP5 MLOAD SWAP4 DUP5 SWAP3 ADD PUSH3 0x1B8B JUMP JUMPDEST DUP2 ADD PUSH1 0x2 DUP2 MSTORE SUB ADD SWAP1 KECCAK256 PUSH1 0x1 PUSH3 0x100C DUP3 PUSH3 0x1D4E JUMP JUMPDEST SWAP2 ADD SLOAD PUSH1 0xFF PUSH1 0x40 MLOAD SWAP4 DUP5 SWAP4 PUSH1 0x60 DUP6 MSTORE PUSH1 0x60 DUP6 ADD SWAP1 PUSH3 0x1BB0 JUMP JUMPDEST PUSH1 0x1 PUSH1 0x1 PUSH1 0xA0 SHL SUB DUP4 AND PUSH1 0x20 DUP6 ADD MSTORE PUSH1 0xA0 SWAP3 SWAP1 SWAP3 SHR AND ISZERO ISZERO PUSH1 0x40 DUP4 ADD MSTORE SUB SWAP1 RETURN JUMPDEST POP CALLVALUE PUSH3 0x15F JUMPI PUSH1 0x3 NOT PUSH1 0x20 CALLDATASIZE DUP3 ADD SLT PUSH3 0x64F JUMPI PUSH1 0x1 PUSH1 0x1 PUSH1 0x40 SHL SUB PUSH1 0x4 CALLDATALOAD GT PUSH3 0x64F JUMPI PUSH2 0x1C0 SWAP1 PUSH1 0x4 CALLDATALOAD CALLDATASIZE SUB ADD SLT PUSH3 0x15F JUMPI PUSH3 0x1087 PUSH3 0x20D7 JUMP JUMPDEST PUSH3 0x1097 PUSH1 0x4 DUP1 CALLDATALOAD ADD DUP1 PUSH3 0x1EF7 JUMP JUMPDEST PUSH3 0x10B0 PUSH1 0x24 PUSH1 0x4 SWAP5 SWAP4 SWAP5 CALLDATALOAD ADD PUSH1 0x4 CALLDATALOAD PUSH1 0x4 ADD PUSH3 0x1EF7 JUMP JUMPDEST SWAP1 SWAP4 PUSH3 0x10C2 PUSH1 0xA4 PUSH1 0x4 CALLDATALOAD ADD PUSH3 0x1F2C JUMP JUMPDEST SWAP2 PUSH3 0x10D4 PUSH2 0x104 PUSH1 0x4 CALLDATALOAD ADD PUSH3 0x1F3A JUMP JUMPDEST PUSH3 0x10E5 PUSH2 0x144 PUSH1 0x4 CALLDATALOAD ADD PUSH3 0x1F3A JUMP JUMPDEST SWAP1 PUSH3 0x10F7 PUSH2 0x184 PUSH1 0x4 CALLDATALOAD ADD PUSH3 0x1F2C JUMP JUMPDEST SWAP3 PUSH3 0x1109 PUSH2 0x1A4 PUSH1 0x4 CALLDATALOAD ADD PUSH3 0x1F2C JUMP JUMPDEST SWAP5 PUSH1 0x40 MLOAD SWAP8 DUP9 PUSH2 0x2612 DUP2 ADD LT PUSH1 0x1 PUSH1 0x1 PUSH1 0x40 SHL SUB PUSH2 0x2612 DUP12 ADD GT OR PUSH3 0x1547 JUMPI SWAP2 PUSH3 0x1153 DUP10 SWAP11 SWAP12 SWAP3 PUSH3 0x116A SWAP5 PUSH2 0x2612 PUSH3 0x212F DUP14 CODECOPY PUSH2 0x200 PUSH2 0x2612 DUP14 ADD DUP2 DUP2 MSTORE ADD SWAP2 PUSH3 0x1ED6 JUMP JUMPDEST SWAP2 PUSH2 0x2612 DUP11 ADD DUP4 SUB PUSH1 0x20 PUSH2 0x2612 DUP13 ADD ADD MSTORE PUSH3 0x1ED6 JUMP JUMPDEST PUSH1 0x4 CALLDATALOAD PUSH1 0x44 DUP2 ADD CALLDATALOAD PUSH2 0x2612 DUP10 ADD PUSH1 0x40 DUP2 ADD SWAP2 SWAP1 SWAP2 MSTORE PUSH1 0x64 DUP3 ADD CALLDATALOAD PUSH1 0x60 DUP3 ADD MSTORE PUSH1 0x84 DUP3 ADD CALLDATALOAD PUSH1 0x80 DUP3 ADD MSTORE SWAP7 ISZERO ISZERO PUSH1 0xA0 DUP9 ADD MSTORE PUSH1 0xC4 DUP2 ADD CALLDATALOAD PUSH1 0xC0 DUP9 ADD MSTORE PUSH1 0xE0 DUP8 ADD DUP11 SWAP1 MSTORE PUSH1 0xE4 DUP2 ADD CALLDATALOAD PUSH2 0x100 DUP9 ADD MSTORE PUSH2 0x124 DUP2 ADD CALLDATALOAD PUSH2 0x120 DUP9 ADD MSTORE PUSH2 0x164 ADD CALLDATALOAD PUSH2 0x140 DUP8 ADD MSTORE PUSH1 0x1 PUSH1 0x1 PUSH1 0xA0 SHL SUB SWAP2 DUP3 AND PUSH2 0x160 DUP8 ADD MSTORE SWAP2 AND PUSH2 0x180 DUP6 ADD MSTORE ADDRESS PUSH2 0x1A0 DUP6 ADD MSTORE SWAP1 ISZERO ISZERO PUSH2 0x1C0 DUP5 ADD MSTORE SWAP1 ISZERO ISZERO PUSH2 0x1E0 SWAP1 SWAP3 ADD SWAP2 SWAP1 SWAP2 MSTORE SUB SWAP1 DUP3 CREATE DUP1 ISZERO PUSH3 0x153A JUMPI PUSH1 0x40 MLOAD PUSH3 0x121D DUP2 PUSH3 0x1CCA JUMP JUMPDEST PUSH1 0x1 DUP1 PUSH1 0xA0 SHL SUB DUP3 AND DUP2 MSTORE CALLER PUSH1 0x20 DUP3 ADD MSTORE DUP3 PUSH1 0x40 DUP3 ADD MSTORE PUSH1 0x40 MLOAD PUSH1 0x20 DUP2 ADD DUP2 DUP2 LT PUSH1 0x1 PUSH1 0x1 PUSH1 0x40 SHL SUB DUP3 GT OR PUSH3 0x1526 JUMPI PUSH1 0x40 SWAP1 DUP2 MSTORE DUP5 DUP3 MSTORE PUSH1 0x60 DUP4 ADD SWAP2 SWAP1 SWAP2 MSTORE TIMESTAMP PUSH1 0x80 DUP4 ADD MSTORE PUSH1 0xA0 DUP1 DUP4 ADD DUP6 SWAP1 MSTORE PUSH1 0x1 PUSH1 0x1 PUSH1 0xA0 SHL SUB DUP5 DUP2 AND DUP7 MSTORE PUSH1 0x4 PUSH1 0x20 SWAP1 DUP2 MSTORE DUP4 DUP8 KECCAK256 DUP6 MLOAD DUP2 SLOAD PUSH1 0x1 PUSH1 0x1 PUSH1 0xA0 SHL SUB NOT AND SWAP1 DUP5 AND OR DUP2 SSTORE SWAP1 DUP6 ADD MLOAD PUSH1 0x1 DUP3 ADD DUP1 SLOAD SWAP6 DUP8 ADD MLOAD PUSH1 0x1 PUSH1 0x1 PUSH1 0xA8 SHL SUB NOT SWAP1 SWAP7 AND SWAP2 SWAP1 SWAP4 AND OR SWAP4 ISZERO ISZERO SWAP1 SWAP3 SHL PUSH1 0xFF PUSH1 0xA0 SHL AND SWAP3 SWAP1 SWAP3 OR SWAP1 SWAP2 SSTORE SWAP1 PUSH1 0x60 DUP2 ADD MLOAD DUP1 MLOAD SWAP1 PUSH1 0x1 PUSH1 0x1 PUSH1 0x40 SHL SUB DUP3 GT PUSH3 0x576 JUMPI PUSH3 0x12FF DUP3 PUSH3 0x12F5 PUSH1 0x2 DUP8 ADD SLOAD PUSH3 0x1C8D JUMP JUMPDEST PUSH1 0x2 DUP8 ADD PUSH3 0x1E7B JUMP JUMPDEST PUSH1 0x20 SWAP1 PUSH1 0x1F DUP4 GT PUSH1 0x1 EQ PUSH3 0x14AF JUMPI DUP3 PUSH1 0xA0 SWAP4 PUSH1 0x4 SWAP6 SWAP4 PUSH3 0x1337 SWAP4 DUP11 SWAP3 PUSH3 0x58A JUMPI POP POP DUP2 PUSH1 0x1 SHL SWAP2 PUSH1 0x0 NOT SWAP1 PUSH1 0x3 SHL SHR NOT AND OR SWAP1 JUMP JUMPDEST PUSH1 0x2 DUP6 ADD SSTORE JUMPDEST PUSH1 0x80 DUP2 ADD MLOAD PUSH1 0x3 DUP6 ADD SSTORE ADD MLOAD SWAP2 ADD SSTORE PUSH1 0x5 SLOAD PUSH1 0x1 PUSH1 0x40 SHL DUP2 LT ISZERO PUSH3 0x149B JUMPI DUP1 PUSH1 0x1 PUSH3 0x136E SWAP3 ADD PUSH1 0x5 SSTORE PUSH3 0x1C55 JUMP JUMPDEST DUP2 SLOAD PUSH1 0x1 PUSH1 0x1 PUSH1 0xA0 SHL SUB DUP5 DUP2 AND PUSH1 0x3 SWAP4 SWAP1 SWAP4 SHL DUP4 DUP2 SHL SWAP2 SWAP1 SHL NOT SWAP1 SWAP2 AND OR SWAP1 SWAP2 SSTORE EXTCODESIZE ISZERO PUSH3 0x64F JUMPI PUSH1 0x40 MLOAD PUSH4 0xF2FDE38B PUSH1 0xE0 SHL DUP2 MSTORE CALLER PUSH1 0x4 DUP3 ADD MSTORE DUP3 DUP2 PUSH1 0x24 DUP2 DUP4 PUSH1 0x1 PUSH1 0x1 PUSH1 0xA0 SHL SUB DUP8 AND GAS CALL DUP1 ISZERO PUSH3 0x1490 JUMPI PUSH1 0x20 SWAP4 POP PUSH3 0x147E JUMPI JUMPDEST POP PUSH3 0x1421 PUSH3 0x13E1 PUSH1 0x4 DUP1 CALLDATALOAD ADD DUP1 PUSH3 0x1EF7 JUMP JUMPDEST SWAP2 SWAP1 PUSH3 0x1413 PUSH3 0x13FD PUSH1 0x24 PUSH1 0x4 CALLDATALOAD ADD PUSH1 0x4 CALLDATALOAD PUSH1 0x4 ADD PUSH3 0x1EF7 JUMP JUMPDEST SWAP2 SWAP1 SWAP3 PUSH1 0x40 MLOAD SWAP6 PUSH1 0x80 DUP8 MSTORE PUSH1 0x80 DUP8 ADD SWAP2 PUSH3 0x1ED6 JUMP JUMPDEST SWAP2 DUP5 DUP4 SUB DUP8 DUP7 ADD MSTORE PUSH3 0x1ED6 JUMP JUMPDEST PUSH1 0x4 CALLDATALOAD PUSH1 0x44 ADD CALLDATALOAD PUSH1 0x40 DUP4 ADD MSTORE TIMESTAMP PUSH1 0x60 DUP4 ADD MSTORE CALLER SWAP2 PUSH1 0x1 PUSH1 0x1 PUSH1 0xA0 SHL SUB DUP5 AND SWAP2 PUSH32 0xC12630D761DDBF18B9530F31D91E67493535A2B635711BCFF59FDED8BF381CCE SWAP2 SWAP1 DUP2 SWAP1 SUB SWAP1 LOG3 PUSH1 0x1 DUP1 SSTORE PUSH1 0x40 MLOAD PUSH1 0x1 PUSH1 0x1 PUSH1 0xA0 SHL SUB SWAP1 SWAP2 AND DUP2 MSTORE RETURN JUMPDEST PUSH3 0x1489 SWAP1 PUSH3 0x1D18 JUMP JUMPDEST CODESIZE PUSH3 0x13CC JUMP JUMPDEST PUSH1 0x40 MLOAD RETURNDATASIZE DUP6 DUP3 RETURNDATACOPY RETURNDATASIZE SWAP1 REVERT JUMPDEST PUSH4 0x4E487B71 PUSH1 0xE0 SHL DUP4 MSTORE PUSH1 0x41 PUSH1 0x4 MSTORE PUSH1 0x24 DUP4 REVERT JUMPDEST SWAP1 PUSH1 0x2 DUP6 ADD DUP8 MSTORE PUSH1 0x20 DUP8 KECCAK256 SWAP2 DUP8 JUMPDEST PUSH1 0x1F NOT DUP6 AND DUP2 LT PUSH3 0x150D JUMPI POP SWAP3 PUSH1 0x4 SWAP5 SWAP3 PUSH1 0x1 SWAP3 PUSH1 0xA0 SWAP6 DUP4 PUSH1 0x1F NOT DUP2 AND LT PUSH3 0x14F3 JUMPI JUMPDEST POP POP POP DUP2 SHL ADD PUSH1 0x2 DUP6 ADD SSTORE PUSH3 0x133D JUMP JUMPDEST ADD MLOAD PUSH1 0x0 NOT PUSH1 0xF8 DUP5 PUSH1 0x3 SHL AND SHR NOT AND SWAP1 SSTORE CODESIZE DUP1 DUP1 PUSH3 0x14E2 JUMP JUMPDEST SWAP2 SWAP3 PUSH1 0x20 PUSH1 0x1 DUP2 SWAP3 DUP7 DUP6 ADD MLOAD DUP2 SSTORE ADD SWAP5 ADD SWAP3 ADD PUSH3 0x14BD JUMP JUMPDEST PUSH4 0x4E487B71 PUSH1 0xE0 SHL DUP6 MSTORE PUSH1 0x41 PUSH1 0x4 MSTORE PUSH1 0x24 DUP6 REVERT JUMPDEST POP PUSH1 0x40 MLOAD SWAP1 RETURNDATASIZE SWAP1 DUP3 RETURNDATACOPY RETURNDATASIZE SWAP1 REVERT JUMPDEST PUSH4 0x4E487B71 PUSH1 0xE0 SHL DUP11 MSTORE PUSH1 0x41 PUSH1 0x4 MSTORE PUSH1 0x24 DUP11 REVERT JUMPDEST POP CALLVALUE PUSH3 0x15F JUMPI PUSH1 0x20 CALLDATASIZE PUSH1 0x3 NOT ADD SLT PUSH3 0x15F JUMPI PUSH1 0x4 CALLDATALOAD PUSH1 0x3 SLOAD DUP2 LT ISZERO PUSH3 0x64F JUMPI PUSH3 0x1588 SWAP1 PUSH3 0x1C07 JUMP JUMPDEST SWAP2 SWAP1 SWAP2 PUSH3 0x159F JUMPI PUSH3 0x15B PUSH3 0x146 DUP4 PUSH3 0x1D4E JUMP JUMPDEST PUSH4 0x4E487B71 PUSH1 0xE0 SHL DUP2 MSTORE PUSH1 0x4 DUP2 SWAP1 MSTORE PUSH1 0x24 SWAP1 REVERT JUMPDEST POP CALLVALUE PUSH3 0x15F JUMPI DUP1 PUSH1 0x3 NOT CALLDATASIZE ADD SLT PUSH3 0x15F JUMPI PUSH3 0x15D0 PUSH3 0x207E JUMP JUMPDEST DUP1 DUP1 DUP1 DUP1 PUSH1 0x1 DUP1 PUSH1 0xA0 SHL SUB DUP2 SLOAD AND SELFBALANCE SWAP1 DUP3 DUP3 ISZERO PUSH3 0x15FF JUMPI JUMPDEST CALL ISZERO PUSH3 0x15F3 JUMPI DUP1 RETURN JUMPDEST PUSH1 0x40 MLOAD SWAP1 RETURNDATASIZE SWAP1 DUP3 RETURNDATACOPY RETURNDATASIZE SWAP1 REVERT JUMPDEST POP PUSH2 0x8FC PUSH3 0x15E9 JUMP JUMPDEST POP CALLVALUE PUSH3 0x15F JUMPI DUP1 PUSH1 0x3 NOT CALLDATASIZE ADD SLT PUSH3 0x15F JUMPI PUSH1 0x3 SLOAD PUSH1 0x1 PUSH1 0x1 PUSH1 0x40 SHL SUB DUP2 GT PUSH3 0x1707 JUMPI SWAP1 PUSH1 0x20 SWAP2 PUSH1 0x40 MLOAD SWAP2 PUSH3 0x1647 DUP5 DUP4 PUSH1 0x5 SHL ADD DUP5 PUSH3 0x1D2C JUMP JUMPDEST DUP2 DUP4 MSTORE PUSH1 0x3 DUP2 MSTORE DUP4 DUP4 ADD SWAP2 DUP2 PUSH32 0xC2575A0E9E593C00F959F8C92F12DB2869C3395A3B0502D05E2516446F71F85B DUP5 JUMPDEST DUP4 DUP4 LT PUSH3 0x16E0 JUMPI POP POP POP POP PUSH1 0x40 MLOAD SWAP3 DUP5 DUP5 ADD SWAP1 DUP6 DUP6 MSTORE MLOAD DUP1 SWAP2 MSTORE PUSH1 0x40 DUP5 ADD SWAP5 PUSH1 0x40 DUP3 PUSH1 0x5 SHL DUP7 ADD ADD SWAP4 SWAP3 SWAP6 JUMPDEST DUP3 DUP8 LT PUSH3 0x16B1 JUMPI DUP6 DUP6 SUB DUP7 RETURN JUMPDEST SWAP1 SWAP2 SWAP3 SWAP4 DUP3 DUP1 PUSH3 0x16CF PUSH1 0x1 SWAP4 PUSH1 0x3F NOT DUP11 DUP3 SUB ADD DUP7 MSTORE DUP9 MLOAD PUSH3 0x1BB0 JUMP JUMPDEST SWAP7 ADD SWAP3 ADD SWAP7 ADD SWAP6 SWAP3 SWAP2 SWAP1 SWAP3 PUSH3 0x16A3 JUMP JUMPDEST PUSH1 0x1 DUP9 DUP2 SWAP3 PUSH3 0x16F4 DUP6 SWAP12 SWAP11 SWAP9 SWAP12 PUSH3 0x1D4E JUMP JUMPDEST DUP2 MSTORE ADD SWAP3 ADD SWAP3 ADD SWAP2 SWAP1 SWAP7 SWAP4 SWAP6 SWAP7 PUSH3 0x1676 JUMP JUMPDEST PUSH4 0x4E487B71 PUSH1 0xE0 SHL DUP3 MSTORE PUSH1 0x41 PUSH1 0x4 MSTORE PUSH1 0x24 DUP3 REVERT JUMPDEST POP CALLVALUE PUSH3 0x15F JUMPI DUP1 PUSH1 0x3 NOT CALLDATASIZE ADD SLT PUSH3 0x15F JUMPI PUSH1 0x40 MLOAD DUP1 SWAP2 PUSH1 0x5 SLOAD SWAP1 DUP2 DUP4 MSTORE PUSH1 0x20 DUP1 SWAP4 ADD DUP1 SWAP3 PUSH1 0x5 DUP4 MSTORE PUSH32 0x36B6384B5ECA791C62761152D0C79BB0604C104A5FB6F4EB0703F3154BB3DB0 SWAP1 DUP4 JUMPDEST DUP2 DUP2 LT PUSH3 0x17CB JUMPI POP POP POP DUP5 PUSH3 0x1782 SWAP2 SUB DUP6 PUSH3 0x1D2C JUMP JUMPDEST PUSH1 0x40 MLOAD SWAP4 DUP4 DUP6 SWAP5 DUP6 ADD SWAP2 DUP2 DUP7 MSTORE MLOAD DUP1 SWAP3 MSTORE PUSH1 0x40 DUP6 ADD SWAP4 SWAP3 JUMPDEST DUP3 DUP2 LT PUSH3 0x17AA JUMPI POP POP POP POP SUB SWAP1 RETURN JUMPDEST DUP4 MLOAD PUSH1 0x1 PUSH1 0x1 PUSH1 0xA0 SHL SUB AND DUP6 MSTORE DUP7 SWAP6 POP SWAP4 DUP2 ADD SWAP4 SWAP3 DUP2 ADD SWAP3 PUSH1 0x1 ADD PUSH3 0x179A JUMP JUMPDEST DUP3 SLOAD PUSH1 0x1 PUSH1 0x1 PUSH1 0xA0 SHL SUB AND DUP5 MSTORE SWAP3 DUP7 ADD SWAP3 PUSH1 0x1 SWAP3 DUP4 ADD SWAP3 ADD PUSH3 0x1769 JUMP JUMPDEST POP CALLVALUE PUSH3 0x15F JUMPI PUSH1 0x60 CALLDATASIZE PUSH1 0x3 NOT ADD SLT PUSH3 0x15F JUMPI PUSH1 0x1 PUSH1 0x1 PUSH1 0x40 SHL SUB SWAP1 PUSH1 0x4 CALLDATALOAD DUP3 DUP2 GT PUSH3 0x64F JUMPI PUSH3 0x1821 SWAP1 CALLDATASIZE SWAP1 PUSH1 0x4 ADD PUSH3 0x1BD7 JUMP JUMPDEST PUSH3 0x182B PUSH3 0x1B74 JUMP JUMPDEST SWAP4 PUSH1 0x44 CALLDATALOAD DUP1 ISZERO ISZERO DUP1 SWAP2 SUB PUSH3 0xB2D JUMPI PUSH3 0x1844 PUSH3 0x207E JUMP JUMPDEST PUSH1 0x40 MLOAD SWAP2 DUP4 DUP6 DUP5 CALLDATACOPY DUP4 DUP4 ADD SWAP7 PUSH1 0x2 DUP9 MSTORE PUSH1 0x1 DUP1 PUSH1 0xA0 SHL SUB DUP1 PUSH1 0x1 DUP7 DUP2 SWAP12 PUSH1 0x20 SWAP9 DUP10 SWAP2 SUB ADD SWAP1 KECCAK256 ADD SLOAD AND ISZERO PUSH3 0x19F2 JUMPI PUSH1 0x40 MLOAD PUSH3 0x1881 DUP2 PUSH3 0x1CFC JUMP JUMPDEST PUSH3 0x188E CALLDATASIZE DUP9 DUP11 PUSH3 0x1DFF JUMP JUMPDEST DUP2 MSTORE DUP2 DUP7 DUP3 ADD SWAP4 AND SWAP4 DUP5 DUP5 MSTORE PUSH1 0x40 DUP3 ADD SWAP11 DUP7 DUP13 MSTORE PUSH1 0x40 MLOAD DUP10 DUP12 DUP3 CALLDATACOPY DUP9 DUP2 DUP12 DUP2 ADD PUSH1 0x2 DUP2 MSTORE SUB ADD SWAP1 KECCAK256 SWAP3 MLOAD DUP1 MLOAD SWAP3 DUP4 GT PUSH3 0x19DE JUMPI PUSH3 0x18DA DUP4 PUSH3 0x18D3 DUP7 SLOAD PUSH3 0x1C8D JUMP JUMPDEST DUP7 PUSH3 0x1E7B JUMP JUMPDEST DUP9 SWAP2 PUSH1 0x1F DUP5 GT PUSH1 0x1 EQ PUSH3 0x1963 JUMPI POP SWAP3 PUSH3 0x4AB DUP4 PUSH3 0x193B SWAP8 SWAP7 SWAP5 DUP15 SWAP16 SWAP7 SWAP5 PUSH32 0xFCC670EF83A2AB18FA316FD1535402582AD1C325995F34B0F96FAEB21D0EF9EB SWAP16 SWAP6 PUSH1 0x1 SWAP7 SWAP3 PUSH3 0x58A JUMPI POP POP DUP2 PUSH1 0x1 SHL SWAP2 PUSH1 0x0 NOT SWAP1 PUSH1 0x3 SHL SHR NOT AND OR SWAP1 JUMP JUMPDEST PUSH3 0x1954 PUSH1 0x40 MLOAD SWAP6 DUP7 SWAP6 PUSH1 0x60 DUP8 MSTORE PUSH1 0x60 DUP8 ADD SWAP2 PUSH3 0x1ED6 JUMP JUMPDEST SWAP3 DUP5 ADD MSTORE PUSH1 0x40 DUP4 ADD MSTORE SUB SWAP1 LOG1 DUP1 RETURN JUMPDEST DUP5 DUP14 MSTORE DUP10 DUP14 KECCAK256 SWAP3 SWAP2 SWAP1 PUSH1 0x1F NOT DUP6 AND SWAP1 DUP15 SWAP1 JUMPDEST DUP3 DUP3 LT PUSH3 0x19C6 JUMPI POP POP SWAP4 PUSH1 0x1 SWAP4 PUSH32 0xFCC670EF83A2AB18FA316FD1535402582AD1C325995F34B0F96FAEB21D0EF9EB SWAP15 SWAP16 SWAP7 SWAP4 DUP6 SWAP4 DUP4 PUSH3 0x193B SWAP12 SWAP11 SWAP9 LT PUSH3 0x5D0 JUMPI POP POP POP DUP2 SHL ADD DUP2 SSTORE PUSH3 0x4AE JUMP JUMPDEST DUP4 DUP6 ADD MLOAD DUP7 SSTORE SWAP5 DUP6 ADD SWAP5 SWAP4 DUP13 ADD SWAP4 SWAP1 DUP13 ADD SWAP1 PUSH3 0x1975 JUMP JUMPDEST PUSH4 0x4E487B71 PUSH1 0xE0 SHL DUP13 MSTORE PUSH1 0x41 PUSH1 0x4 MSTORE PUSH1 0x24 DUP13 REVERT JUMPDEST PUSH1 0x40 MLOAD PUSH3 0x461BCD PUSH1 0xE5 SHL DUP2 MSTORE PUSH1 0x4 DUP2 ADD DUP7 SWAP1 MSTORE PUSH1 0xD PUSH1 0x24 DUP3 ADD MSTORE PUSH13 0x111156081B9BDD08199BDD5B99 PUSH1 0x9A SHL PUSH1 0x44 DUP3 ADD MSTORE PUSH1 0x64 SWAP1 REVERT JUMPDEST POP CALLVALUE PUSH3 0x15F JUMPI PUSH1 0x20 DUP1 PUSH1 0x3 NOT CALLDATASIZE ADD SLT PUSH3 0x64F JUMPI PUSH1 0x40 PUSH3 0x1A48 PUSH3 0x1B58 JUMP JUMPDEST SWAP3 DUP1 PUSH1 0xA0 DUP4 MLOAD PUSH3 0x1A59 DUP2 PUSH3 0x1CCA JUMP JUMPDEST DUP3 DUP2 MSTORE DUP6 DUP2 ADD DUP4 SWAP1 MSTORE DUP5 DUP2 ADD DUP4 SWAP1 MSTORE PUSH1 0x60 DUP1 DUP3 ADD MSTORE PUSH1 0x80 DUP2 ADD DUP4 SWAP1 MSTORE ADD MSTORE PUSH1 0x1 PUSH1 0x1 PUSH1 0xA0 SHL SUB SWAP4 DUP5 AND DUP2 MSTORE PUSH1 0x4 DUP4 MSTORE KECCAK256 PUSH1 0x40 MLOAD SWAP2 PUSH3 0x1A98 DUP4 PUSH3 0x1CCA JUMP JUMPDEST DUP4 DUP3 SLOAD AND DUP4 MSTORE PUSH3 0x1B20 PUSH1 0x1 DUP4 ADD SLOAD DUP3 DUP6 ADD SWAP1 DUP7 DUP2 AND DUP3 MSTORE PUSH1 0xFF PUSH1 0x40 DUP8 ADD SWAP2 PUSH1 0xA0 SHR AND ISZERO ISZERO DUP2 MSTORE DUP7 PUSH3 0x1ACE PUSH1 0x2 DUP8 ADD PUSH3 0x1D4E JUMP JUMPDEST SWAP3 PUSH1 0x60 DUP9 ADD SWAP4 DUP5 MSTORE PUSH1 0x4 PUSH1 0x3 DUP9 ADD SLOAD SWAP8 PUSH1 0x80 DUP11 ADD SWAP9 DUP10 MSTORE ADD SLOAD SWAP6 PUSH1 0xA0 DUP10 ADD SWAP7 DUP8 MSTORE PUSH1 0x40 MLOAD SWAP10 DUP11 SWAP10 DUP3 DUP12 MSTORE MLOAD AND SWAP1 DUP10 ADD MSTORE MLOAD AND PUSH1 0x40 DUP8 ADD MSTORE MLOAD ISZERO ISZERO PUSH1 0x60 DUP7 ADD MSTORE MLOAD PUSH1 0xC0 PUSH1 0x80 DUP7 ADD MSTORE PUSH1 0xE0 DUP6 ADD SWAP1 PUSH3 0x1BB0 JUMP JUMPDEST SWAP2 MLOAD PUSH1 0xA0 DUP5 ADD MSTORE MLOAD PUSH1 0xC0 DUP4 ADD MSTORE SUB SWAP1 RETURN JUMPDEST POP CALLVALUE PUSH3 0x15F JUMPI PUSH1 0x20 CALLDATASIZE PUSH1 0x3 NOT ADD SLT PUSH3 0x15F JUMPI PUSH3 0x1B4F PUSH3 0x207E JUMP JUMPDEST PUSH1 0x4 CALLDATALOAD PUSH1 0x6 SSTORE DUP1 RETURN JUMPDEST PUSH1 0x4 CALLDATALOAD SWAP1 PUSH1 0x1 PUSH1 0x1 PUSH1 0xA0 SHL SUB DUP3 AND DUP3 SUB PUSH3 0x1B6F JUMPI JUMP JUMPDEST PUSH1 0x0 DUP1 REVERT JUMPDEST PUSH1 0x24 CALLDATALOAD SWAP1 PUSH1 0x1 PUSH1 0x1 PUSH1 0xA0 SHL SUB DUP3 AND DUP3 SUB PUSH3 0x1B6F JUMPI JUMP JUMPDEST PUSH1 0x0 JUMPDEST DUP4 DUP2 LT PUSH3 0x1B9F JUMPI POP POP PUSH1 0x0 SWAP2 ADD MSTORE JUMP JUMPDEST DUP2 DUP2 ADD MLOAD DUP4 DUP3 ADD MSTORE PUSH1 0x20 ADD PUSH3 0x1B8E JUMP JUMPDEST SWAP1 PUSH1 0x20 SWAP2 PUSH3 0x1BCB DUP2 MLOAD DUP1 SWAP3 DUP2 DUP6 MSTORE DUP6 DUP1 DUP7 ADD SWAP2 ADD PUSH3 0x1B8B JUMP JUMPDEST PUSH1 0x1F ADD PUSH1 0x1F NOT AND ADD ADD SWAP1 JUMP JUMPDEST SWAP2 DUP2 PUSH1 0x1F DUP5 ADD SLT ISZERO PUSH3 0x1B6F JUMPI DUP3 CALLDATALOAD SWAP2 PUSH1 0x1 PUSH1 0x1 PUSH1 0x40 SHL SUB DUP4 GT PUSH3 0x1B6F JUMPI PUSH1 0x20 DUP4 DUP2 DUP7 ADD SWAP6 ADD ADD GT PUSH3 0x1B6F JUMPI JUMP JUMPDEST PUSH1 0x3 SLOAD DUP2 LT ISZERO PUSH3 0x1C3F JUMPI PUSH1 0x3 PUSH1 0x0 MSTORE PUSH32 0xC2575A0E9E593C00F959F8C92F12DB2869C3395A3B0502D05E2516446F71F85B ADD SWAP1 PUSH1 0x0 SWAP1 JUMP JUMPDEST PUSH4 0x4E487B71 PUSH1 0xE0 SHL PUSH1 0x0 MSTORE PUSH1 0x32 PUSH1 0x4 MSTORE PUSH1 0x24 PUSH1 0x0 REVERT JUMPDEST PUSH1 0x5 SLOAD DUP2 LT ISZERO PUSH3 0x1C3F JUMPI PUSH1 0x5 PUSH1 0x0 MSTORE PUSH32 0x36B6384B5ECA791C62761152D0C79BB0604C104A5FB6F4EB0703F3154BB3DB0 ADD SWAP1 PUSH1 0x0 SWAP1 JUMP JUMPDEST SWAP1 PUSH1 0x1 DUP3 DUP2 SHR SWAP3 AND DUP1 ISZERO PUSH3 0x1CBF JUMPI JUMPDEST PUSH1 0x20 DUP4 LT EQ PUSH3 0x1CA9 JUMPI JUMP JUMPDEST PUSH4 0x4E487B71 PUSH1 0xE0 SHL PUSH1 0x0 MSTORE PUSH1 0x22 PUSH1 0x4 MSTORE PUSH1 0x24 PUSH1 0x0 REVERT JUMPDEST SWAP2 PUSH1 0x7F AND SWAP2 PUSH3 0x1C9D JUMP JUMPDEST PUSH1 0xC0 DUP2 ADD SWAP1 DUP2 LT PUSH1 0x1 PUSH1 0x1 PUSH1 0x40 SHL SUB DUP3 GT OR PUSH3 0x1CE6 JUMPI PUSH1 0x40 MSTORE JUMP JUMPDEST PUSH4 0x4E487B71 PUSH1 0xE0 SHL PUSH1 0x0 MSTORE PUSH1 0x41 PUSH1 0x4 MSTORE PUSH1 0x24 PUSH1 0x0 REVERT JUMPDEST PUSH1 0x60 DUP2 ADD SWAP1 DUP2 LT PUSH1 0x1 PUSH1 0x1 PUSH1 0x40 SHL SUB DUP3 GT OR PUSH3 0x1CE6 JUMPI PUSH1 0x40 MSTORE JUMP JUMPDEST PUSH1 0x1 PUSH1 0x1 PUSH1 0x40 SHL SUB DUP2 GT PUSH3 0x1CE6 JUMPI PUSH1 0x40 MSTORE JUMP JUMPDEST SWAP1 PUSH1 0x1F DUP1 NOT SWAP2 ADD AND DUP2 ADD SWAP1 DUP2 LT PUSH1 0x1 PUSH1 0x1 PUSH1 0x40 SHL SUB DUP3 GT OR PUSH3 0x1CE6 JUMPI PUSH1 0x40 MSTORE JUMP JUMPDEST SWAP1 PUSH1 0x40 MLOAD SWAP2 DUP3 PUSH1 0x0 DUP3 SLOAD PUSH3 0x1D63 DUP2 PUSH3 0x1C8D JUMP JUMPDEST SWAP1 DUP2 DUP5 MSTORE PUSH1 0x20 SWAP5 PUSH1 0x1 SWAP2 PUSH1 0x1 DUP2 AND SWAP1 DUP2 PUSH1 0x0 EQ PUSH3 0x1DDB JUMPI POP PUSH1 0x1 EQ PUSH3 0x1D98 JUMPI JUMPDEST POP POP POP PUSH3 0x1D96 SWAP3 POP SUB DUP4 PUSH3 0x1D2C JUMP JUMPDEST JUMP JUMPDEST PUSH1 0x0 SWAP1 DUP2 MSTORE DUP6 DUP2 KECCAK256 SWAP6 SWAP4 POP SWAP2 SWAP1 JUMPDEST DUP2 DUP4 LT PUSH3 0x1DC2 JUMPI POP POP PUSH3 0x1D96 SWAP4 POP DUP3 ADD ADD CODESIZE DUP1 DUP1 PUSH3 0x1D85 JUMP JUMPDEST DUP6 SLOAD DUP9 DUP5 ADD DUP6 ADD MSTORE SWAP5 DUP6 ADD SWAP5 DUP8 SWAP5 POP SWAP2 DUP4 ADD SWAP2 PUSH3 0x1DA6 JUMP JUMPDEST SWAP3 POP POP POP PUSH3 0x1D96 SWAP5 SWAP3 POP PUSH1 0xFF NOT AND DUP3 DUP5 ADD MSTORE ISZERO ISZERO PUSH1 0x5 SHL DUP3 ADD ADD CODESIZE DUP1 DUP1 PUSH3 0x1D85 JUMP JUMPDEST SWAP3 SWAP2 SWAP3 PUSH1 0x1 PUSH1 0x1 PUSH1 0x40 SHL SUB DUP3 GT PUSH3 0x1CE6 JUMPI PUSH1 0x40 MLOAD SWAP2 PUSH3 0x1E2B PUSH1 0x1F DUP3 ADD PUSH1 0x1F NOT AND PUSH1 0x20 ADD DUP5 PUSH3 0x1D2C JUMP JUMPDEST DUP3 SWAP5 DUP2 DUP5 MSTORE DUP2 DUP4 ADD GT PUSH3 0x1B6F JUMPI DUP3 DUP2 PUSH1 0x20 SWAP4 DUP5 PUSH1 0x0 SWAP7 ADD CALLDATACOPY ADD ADD MSTORE JUMP JUMPDEST PUSH1 0x40 MLOAD SWAP1 PUSH1 0x40 DUP3 ADD DUP3 DUP2 LT PUSH1 0x1 PUSH1 0x1 PUSH1 0x40 SHL SUB DUP3 GT OR PUSH3 0x1CE6 JUMPI PUSH1 0x40 MSTORE PUSH1 0x5 DUP3 MSTORE PUSH5 0x322E322E3 PUSH1 0xDC SHL PUSH1 0x20 DUP4 ADD MSTORE JUMP JUMPDEST SWAP1 PUSH1 0x1F DUP2 GT PUSH3 0x1E8A JUMPI POP POP POP JUMP JUMPDEST PUSH1 0x0 SWAP2 PUSH1 0x0 MSTORE PUSH1 0x20 PUSH1 0x0 KECCAK256 SWAP1 PUSH1 0x20 PUSH1 0x1F DUP6 ADD PUSH1 0x5 SHR DUP4 ADD SWAP5 LT PUSH3 0x1ECB JUMPI JUMPDEST PUSH1 0x1F ADD PUSH1 0x5 SHR ADD SWAP2 JUMPDEST DUP3 DUP2 LT PUSH3 0x1EBF JUMPI POP POP POP JUMP JUMPDEST DUP2 DUP2 SSTORE PUSH1 0x1 ADD PUSH3 0x1EB2 JUMP JUMPDEST SWAP1 SWAP3 POP DUP3 SWAP1 PUSH3 0x1EA9 JUMP JUMPDEST SWAP1 DUP1 PUSH1 0x20 SWAP4 SWAP3 DUP2 DUP5 MSTORE DUP5 DUP5 ADD CALLDATACOPY PUSH1 0x0 DUP3 DUP3 ADD DUP5 ADD MSTORE PUSH1 0x1F ADD PUSH1 0x1F NOT AND ADD ADD SWAP1 JUMP JUMPDEST SWAP1 CALLDATALOAD SWAP1 PUSH1 0x1E NOT DUP2 CALLDATASIZE SUB ADD DUP3 SLT ISZERO PUSH3 0x1B6F JUMPI ADD DUP1 CALLDATALOAD SWAP1 PUSH1 0x1 PUSH1 0x1 PUSH1 0x40 SHL SUB DUP3 GT PUSH3 0x1B6F JUMPI PUSH1 0x20 ADD SWAP2 DUP2 CALLDATASIZE SUB DUP4 SGT PUSH3 0x1B6F JUMPI JUMP JUMPDEST CALLDATALOAD DUP1 ISZERO ISZERO DUP2 SUB PUSH3 0x1B6F JUMPI SWAP1 JUMP JUMPDEST CALLDATALOAD PUSH1 0x1 PUSH1 0x1 PUSH1 0xA0 SHL SUB DUP2 AND DUP2 SUB PUSH3 0x1B6F JUMPI SWAP1 JUMP JUMPDEST SWAP2 SWAP1 DUP3 ADD DUP1 SWAP3 GT PUSH3 0x1F5D JUMPI JUMP JUMPDEST PUSH4 0x4E487B71 PUSH1 0xE0 SHL PUSH1 0x0 MSTORE PUSH1 0x11 PUSH1 0x4 MSTORE PUSH1 0x24 PUSH1 0x0 REVERT JUMPDEST SWAP1 DUP2 PUSH1 0x20 SWAP2 SUB SLT PUSH3 0x1B6F JUMPI MLOAD DUP1 ISZERO ISZERO DUP2 SUB PUSH3 0x1B6F JUMPI SWAP1 JUMP JUMPDEST SWAP1 DUP2 PUSH1 0x20 SWAP2 SUB SLT PUSH3 0x1B6F JUMPI MLOAD PUSH1 0x1 PUSH1 0x1 PUSH1 0xA0 SHL SUB DUP2 AND DUP2 SUB PUSH3 0x1B6F JUMPI SWAP1 JUMP JUMPDEST SWAP1 SWAP3 SWAP2 PUSH1 0x1 PUSH1 0x1 PUSH1 0x40 SHL SUB DUP2 GT PUSH3 0x1CE6 JUMPI PUSH3 0x1FD1 DUP2 PUSH3 0x46D DUP5 SLOAD PUSH3 0x1C8D JUMP JUMPDEST PUSH1 0x0 PUSH1 0x1F DUP3 GT PUSH1 0x1 EQ PUSH3 0x2015 JUMPI DUP2 SWAP1 PUSH3 0x2005 SWAP4 SWAP5 SWAP6 PUSH1 0x0 SWAP3 PUSH3 0x2009 JUMPI POP POP DUP2 PUSH1 0x1 SHL SWAP2 PUSH1 0x0 NOT SWAP1 PUSH1 0x3 SHL SHR NOT AND OR SWAP1 JUMP JUMPDEST SWAP1 SSTORE JUMP JUMPDEST ADD CALLDATALOAD SWAP1 POP CODESIZE DUP1 PUSH3 0x496 JUMP JUMPDEST PUSH1 0x1F NOT DUP3 AND SWAP5 DUP4 DUP3 MSTORE PUSH1 0x20 SWAP2 PUSH1 0x20 DUP2 KECCAK256 SWAP3 DUP2 SWAP1 JUMPDEST DUP9 DUP3 LT PUSH3 0x2065 JUMPI POP POP DUP4 PUSH1 0x1 SWAP6 SWAP7 SWAP8 LT PUSH3 0x204A JUMPI JUMPDEST POP POP POP DUP2 SHL ADD SWAP1 SSTORE JUMP JUMPDEST ADD CALLDATALOAD PUSH1 0x0 NOT PUSH1 0x3 DUP5 SWAP1 SHL PUSH1 0xF8 AND SHR NOT AND SWAP1 SSTORE CODESIZE DUP1 DUP1 PUSH3 0x2040 JUMP JUMPDEST DUP1 PUSH1 0x1 DUP5 SWAP7 DUP3 SWAP5 SWAP6 DUP8 ADD CALLDATALOAD DUP2 SSTORE ADD SWAP6 ADD SWAP3 ADD SWAP1 PUSH3 0x2029 JUMP JUMPDEST PUSH1 0x0 SLOAD PUSH1 0x1 PUSH1 0x1 PUSH1 0xA0 SHL SUB AND CALLER SUB PUSH3 0x2093 JUMPI JUMP JUMPDEST PUSH1 0x64 PUSH1 0x40 MLOAD PUSH3 0x461BCD PUSH1 0xE5 SHL DUP2 MSTORE PUSH1 0x20 PUSH1 0x4 DUP3 ADD MSTORE PUSH1 0x20 PUSH1 0x24 DUP3 ADD MSTORE PUSH32 0x4F776E61626C653A2063616C6C6572206973206E6F7420746865206F776E6572 PUSH1 0x44 DUP3 ADD MSTORE REVERT JUMPDEST PUSH1 0x2 PUSH1 0x1 SLOAD EQ PUSH3 0x20E9 JUMPI PUSH1 0x2 PUSH1 0x1 SSTORE JUMP JUMPDEST PUSH1 0x40 MLOAD PUSH3 0x461BCD PUSH1 0xE5 SHL DUP2 MSTORE PUSH1 0x20 PUSH1 0x4 DUP3 ADD MSTORE PUSH1 0x1F PUSH1 0x24 DUP3 ADD MSTORE PUSH32 0x5265656E7472616E637947756172643A207265656E7472616E742063616C6C00 PUSH1 0x44 DUP3 ADD MSTORE PUSH1 0x64 SWAP1 REVERT INVALID PUSH1 0x40 PUSH1 0x80 DUP2 MSTORE CALLVALUE PUSH3 0x913 JUMPI PUSH3 0x2612 DUP1 CODESIZE SUB DUP1 PUSH3 0x1E DUP2 PUSH3 0x918 JUMP JUMPDEST SWAP3 DUP4 CODECOPY DUP2 ADD PUSH2 0x200 DUP3 DUP3 SUB SLT PUSH3 0x913 JUMPI DUP2 MLOAD PUSH1 0x1 PUSH1 0x1 PUSH1 0x40 SHL SUB DUP2 GT PUSH3 0x913 JUMPI DUP2 PUSH3 0x4E SWAP2 DUP5 ADD PUSH3 0x93E JUMP JUMPDEST PUSH1 0x20 DUP4 ADD MLOAD SWAP1 SWAP2 PUSH1 0x1 PUSH1 0x1 PUSH1 0x40 SHL SUB DUP3 GT PUSH3 0x913 JUMPI PUSH3 0x71 SWAP2 DUP5 ADD PUSH3 0x93E JUMP JUMPDEST SWAP1 DUP4 DUP4 ADD MLOAD SWAP1 PUSH1 0x60 DUP5 ADD MLOAD PUSH1 0x80 DUP6 ADD MLOAD PUSH3 0x8F PUSH1 0xA0 DUP8 ADD PUSH3 0x9B0 JUMP JUMPDEST SWAP3 PUSH1 0xC0 DUP8 ADD MLOAD SWAP7 PUSH3 0xA4 PUSH1 0xE0 DUP3 ADD PUSH3 0x9BE JUMP JUMPDEST SWAP8 PUSH2 0x100 DUP3 ADD MLOAD SWAP1 PUSH2 0x120 DUP4 ADD MLOAD SWAP10 PUSH2 0x140 DUP5 ADD MLOAD SWAP2 PUSH3 0xC9 PUSH2 0x160 DUP7 ADD PUSH3 0x9BE JUMP JUMPDEST SWAP7 PUSH3 0xD9 PUSH2 0x180 DUP8 ADD PUSH3 0x9BE JUMP JUMPDEST SWAP9 PUSH3 0xE9 PUSH2 0x1A0 DUP9 ADD PUSH3 0x9BE JUMP JUMPDEST SWAP13 PUSH3 0x108 PUSH2 0x1E0 PUSH3 0x100 PUSH2 0x1C0 DUP12 ADD PUSH3 0x9B0 JUMP JUMPDEST SWAP10 ADD PUSH3 0x9B0 JUMP JUMPDEST DUP10 MLOAD SWAP1 SWAP10 PUSH1 0x1 PUSH1 0x1 PUSH1 0x40 SHL SUB DUP3 GT PUSH3 0x7E5 JUMPI PUSH1 0x3 SLOAD SWAP1 PUSH1 0x1 DUP3 DUP2 SHR SWAP3 AND DUP1 ISZERO PUSH3 0x908 JUMPI JUMPDEST PUSH1 0x20 DUP4 LT EQ PUSH3 0x7C4 JUMPI DUP2 PUSH1 0x1F DUP5 SWAP4 GT PUSH3 0x896 JUMPI JUMPDEST POP PUSH1 0x20 SWAP1 PUSH1 0x1F DUP4 GT PUSH1 0x1 EQ PUSH3 0x807 JUMPI PUSH1 0x0 SWAP3 PUSH3 0x7FB JUMPI JUMPDEST POP POP DUP2 PUSH1 0x1 SHL SWAP2 PUSH1 0x0 NOT SWAP1 PUSH1 0x3 SHL SHR NOT AND OR PUSH1 0x3 SSTORE JUMPDEST DUP1 MLOAD SWAP1 PUSH1 0x1 PUSH1 0x1 PUSH1 0x40 SHL SUB DUP3 GT PUSH3 0x7E5 JUMPI PUSH1 0x4 SLOAD SWAP1 PUSH1 0x1 DUP3 DUP2 SHR SWAP3 AND DUP1 ISZERO PUSH3 0x7DA JUMPI JUMPDEST PUSH1 0x20 DUP4 LT EQ PUSH3 0x7C4 JUMPI DUP2 PUSH1 0x1F DUP5 SWAP4 GT PUSH3 0x74F JUMPI JUMPDEST POP PUSH1 0x20 SWAP1 PUSH1 0x1F DUP4 GT PUSH1 0x1 EQ PUSH3 0x6C0 JUMPI PUSH1 0x0 SWAP3 PUSH3 0x6B4 JUMPI JUMPDEST POP POP DUP2 PUSH1 0x1 SHL SWAP2 PUSH1 0x0 NOT SWAP1 PUSH1 0x3 SHL SHR NOT AND OR PUSH1 0x4 SSTORE JUMPDEST PUSH3 0x1E8 CALLER PUSH3 0xA87 JUMP JUMPDEST PUSH1 0x1 PUSH1 0x6 SSTORE DUP12 ISZERO PUSH3 0x664 JUMPI DUP12 DUP2 GT PUSH3 0x606 JUMPI DUP12 DUP3 GT PUSH3 0x5AD JUMPI PUSH1 0x19 PUSH3 0x21E DUP16 PUSH3 0x218 DUP9 SWAP2 DUP11 PUSH3 0x9D3 JUMP JUMPDEST PUSH3 0x9D3 JUMP JUMPDEST GT PUSH3 0x569 JUMPI PUSH1 0x1 PUSH1 0x1 PUSH1 0xA0 SHL SUB DUP10 AND ISZERO PUSH3 0x515 JUMPI PUSH1 0x1 PUSH1 0x1 PUSH1 0xA0 SHL SUB DUP11 AND ISZERO PUSH3 0x4BF JUMPI PUSH1 0x1 PUSH1 0x1 PUSH1 0xA0 SHL SUB DUP14 AND ISZERO PUSH3 0x466 JUMPI PUSH1 0x9 SSTORE PUSH1 0xA SSTORE PUSH1 0x7 DUP1 SLOAD SWAP10 ISZERO ISZERO PUSH1 0xFF AND PUSH1 0xFF NOT SWAP11 DUP12 AND OR SWAP1 SSTORE PUSH1 0x8 SSTORE PUSH1 0xB DUP1 SLOAD PUSH1 0x1 PUSH1 0x1 PUSH1 0xA0 SHL SUB NOT SWAP1 DUP2 AND PUSH1 0x1 PUSH1 0x1 PUSH1 0xA0 SHL SUB SWAP4 DUP5 AND SWAP1 DUP2 OR SWAP1 SWAP3 SSTORE PUSH1 0xD SWAP5 SWAP1 SWAP5 SSTORE PUSH1 0xE SWAP12 SWAP1 SWAP12 SSTORE PUSH1 0xF SWAP2 SWAP1 SWAP2 SSTORE PUSH1 0x10 DUP1 SLOAD DUP4 AND SWAP6 DUP3 AND SWAP6 DUP7 OR SWAP1 SSTORE PUSH1 0x11 DUP1 SLOAD SWAP1 SWAP3 AND SWAP6 DUP2 AND SWAP6 DUP7 OR SWAP1 SWAP2 SSTORE PUSH1 0x12 DUP1 SLOAD SWAP3 ISZERO ISZERO PUSH1 0xA0 SHL PUSH1 0xFF PUSH1 0xA0 SHL AND PUSH1 0x1 PUSH1 0x1 PUSH1 0xB0 SHL SUB NOT SWAP1 SWAP4 AND SWAP2 DUP10 AND SWAP2 DUP3 OR SWAP3 SWAP1 SWAP3 OR SWAP3 ISZERO ISZERO PUSH1 0xA8 SHL PUSH1 0xFF PUSH1 0xA8 SHL AND SWAP3 SWAP1 SWAP3 OR SWAP1 SSTORE CALLER PUSH1 0x0 SWAP1 DUP2 MSTORE PUSH1 0x13 PUSH1 0x20 MSTORE DUP9 DUP2 KECCAK256 DUP1 SLOAD DUP7 AND PUSH1 0x1 SWAP1 DUP2 OR SWAP1 SWAP2 SSTORE ADDRESS DUP3 MSTORE DUP10 DUP3 KECCAK256 DUP1 SLOAD DUP8 AND DUP3 OR SWAP1 SSTORE SWAP3 DUP2 MSTORE DUP9 DUP2 KECCAK256 DUP1 SLOAD DUP7 AND DUP5 OR SWAP1 SSTORE SWAP3 DUP4 MSTORE DUP8 DUP4 KECCAK256 DUP1 SLOAD DUP6 AND DUP4 OR SWAP1 SSTORE DUP3 MSTORE DUP7 DUP3 KECCAK256 DUP1 SLOAD DUP5 AND DUP3 OR SWAP1 SSTORE DUP6 DUP3 MSTORE SWAP1 DUP7 SWAP1 KECCAK256 DUP1 SLOAD SWAP1 SWAP3 AND OR SWAP1 SSTORE PUSH1 0x14 DUP2 DUP2 MUL SWAP1 DUP3 DUP3 DIV SWAP1 SUB PUSH3 0x450 JUMPI PUSH1 0x64 SWAP1 DIV SWAP1 DUP2 DUP2 SUB SWAP1 DUP2 GT PUSH3 0x450 JUMPI PUSH3 0x389 PUSH3 0x390 SWAP3 DUP5 PUSH3 0x9E1 JUMP JUMPDEST CALLER PUSH3 0x9E1 JUMP JUMPDEST DUP2 ISZERO PUSH3 0x401 JUMPI PUSH1 0x1 PUSH1 0x1 PUSH1 0xA0 SHL SUB AND PUSH1 0x0 DUP2 DUP2 MSTORE PUSH1 0x1 PUSH1 0x20 SWAP1 DUP2 MSTORE DUP5 DUP3 KECCAK256 DUP5 DUP4 MSTORE DUP2 MSTORE SWAP1 DUP5 SWAP1 KECCAK256 PUSH1 0x0 NOT SWAP1 DUP2 SWAP1 SSTORE DUP5 MLOAD SWAP1 DUP2 MSTORE PUSH32 0x8C5BE1E5EBEC7D5BD14F71427D1E84F3DD0314C0F7B2291E5B200AC8C7C3B925 SWAP2 SWAP1 LOG3 PUSH3 0x3F3 CALLER PUSH3 0xA87 JUMP JUMPDEST MLOAD PUSH2 0x1B41 SWAP1 DUP2 PUSH3 0xAD1 DUP3 CODECOPY RETURN JUMPDEST DUP3 MLOAD PUSH3 0x461BCD PUSH1 0xE5 SHL DUP2 MSTORE PUSH1 0x20 PUSH1 0x4 DUP3 ADD MSTORE PUSH1 0x22 PUSH1 0x24 DUP3 ADD MSTORE PUSH32 0x45524332303A20617070726F766520746F20746865207A65726F206164647265 PUSH1 0x44 DUP3 ADD MSTORE PUSH2 0x7373 PUSH1 0xF0 SHL PUSH1 0x64 DUP3 ADD MSTORE PUSH1 0x84 SWAP1 REVERT JUMPDEST PUSH4 0x4E487B71 PUSH1 0xE0 SHL PUSH1 0x0 MSTORE PUSH1 0x11 PUSH1 0x4 MSTORE PUSH1 0x24 PUSH1 0x0 REVERT JUMPDEST DUP15 MLOAD PUSH3 0x461BCD PUSH1 0xE5 SHL DUP2 MSTORE PUSH1 0x20 PUSH1 0x4 DUP3 ADD MSTORE PUSH1 0x2C PUSH1 0x24 DUP3 ADD MSTORE PUSH32 0x4175746F2D6C69717569646974792077616C6C65742063616E6E6F7420626520 PUSH1 0x44 DUP3 ADD MSTORE PUSH12 0x7A65726F2061646472657373 PUSH1 0xA0 SHL PUSH1 0x64 DUP3 ADD MSTORE PUSH1 0x84 SWAP1 REVERT JUMPDEST DUP15 MLOAD PUSH3 0x461BCD PUSH1 0xE5 SHL DUP2 MSTORE PUSH1 0x20 PUSH1 0x4 DUP3 ADD MSTORE PUSH1 0x29 PUSH1 0x24 DUP3 ADD MSTORE PUSH32 0x446576656C6F706D656E742077616C6C65742063616E6E6F74206265207A6572 PUSH1 0x44 DUP3 ADD MSTORE PUSH9 0x6F2061646472657373 PUSH1 0xB8 SHL PUSH1 0x64 DUP3 ADD MSTORE PUSH1 0x84 SWAP1 REVERT JUMPDEST DUP15 MLOAD PUSH3 0x461BCD PUSH1 0xE5 SHL DUP2 MSTORE PUSH1 0x20 PUSH1 0x4 DUP3 ADD MSTORE PUSH1 0x27 PUSH1 0x24 DUP3 ADD MSTORE PUSH32 0x4D61726B6574696E672077616C6C65742063616E6E6F74206265207A65726F20 PUSH1 0x44 DUP3 ADD MSTORE PUSH7 0x61646472657373 PUSH1 0xC8 SHL PUSH1 0x64 DUP3 ADD MSTORE PUSH1 0x84 SWAP1 REVERT JUMPDEST DUP15 MLOAD PUSH3 0x461BCD PUSH1 0xE5 SHL DUP2 MSTORE PUSH1 0x20 PUSH1 0x4 DUP3 ADD MSTORE PUSH1 0x1C PUSH1 0x24 DUP3 ADD MSTORE PUSH32 0x546F74616C20666565732063616E6E6F74206578636565642032352500000000 PUSH1 0x44 DUP3 ADD MSTORE PUSH1 0x64 SWAP1 REVERT JUMPDEST DUP15 MLOAD PUSH3 0x461BCD PUSH1 0xE5 SHL DUP2 MSTORE PUSH1 0x20 PUSH1 0x4 DUP3 ADD MSTORE PUSH1 0x2C PUSH1 0x24 DUP3 ADD MSTORE PUSH32 0x4D61782077616C6C657420616D6F756E742063616E6E6F742065786365656420 PUSH1 0x44 DUP3 ADD MSTORE PUSH12 0x746F74616C20737570706C79 PUSH1 0xA0 SHL PUSH1 0x64 DUP3 ADD MSTORE PUSH1 0x84 SWAP1 REVERT JUMPDEST DUP15 MLOAD PUSH3 0x461BCD PUSH1 0xE5 SHL DUP2 MSTORE PUSH1 0x20 PUSH1 0x4 DUP3 ADD MSTORE PUSH1 0x31 PUSH1 0x24 DUP3 ADD MSTORE PUSH32 0x4D6178207472616E73616374696F6E20616D6F756E742063616E6E6F74206578 PUSH1 0x44 DUP3 ADD MSTORE PUSH17 0x6365656420746F74616C20737570706C79 PUSH1 0x78 SHL PUSH1 0x64 DUP3 ADD MSTORE PUSH1 0x84 SWAP1 REVERT JUMPDEST DUP15 MLOAD PUSH3 0x461BCD PUSH1 0xE5 SHL DUP2 MSTORE PUSH1 0x20 PUSH1 0x4 DUP3 ADD MSTORE PUSH1 0x23 PUSH1 0x24 DUP3 ADD MSTORE PUSH32 0x546F74616C20737570706C79206D757374206265206772656174657220746861 PUSH1 0x44 DUP3 ADD MSTORE PUSH3 0x6E203 PUSH1 0xEC SHL PUSH1 0x64 DUP3 ADD MSTORE PUSH1 0x84 SWAP1 REVERT JUMPDEST ADD MLOAD SWAP1 POP CODESIZE DUP1 PUSH3 0x1C7 JUMP JUMPDEST PUSH1 0x4 PUSH1 0x0 SWAP1 DUP2 MSTORE SWAP4 POP PUSH32 0x8A35ACFBC15FF81A39AE7D344FD709F28E8600B4AA8C65C6B64BFE7FE36BD19B SWAP2 SWAP1 JUMPDEST PUSH1 0x1F NOT DUP5 AND DUP6 LT PUSH3 0x733 JUMPI PUSH1 0x1 SWAP5 POP DUP4 PUSH1 0x1F NOT DUP2 AND LT PUSH3 0x719 JUMPI JUMPDEST POP POP POP DUP2 SHL ADD PUSH1 0x4 SSTORE PUSH3 0x1DD JUMP JUMPDEST ADD MLOAD PUSH1 0x0 NOT PUSH1 0xF8 DUP5 PUSH1 0x3 SHL AND SHR NOT AND SWAP1 SSTORE CODESIZE DUP1 DUP1 PUSH3 0x70A JUMP JUMPDEST DUP2 DUP2 ADD MLOAD DUP4 SSTORE PUSH1 0x20 SWAP5 DUP6 ADD SWAP5 PUSH1 0x1 SWAP1 SWAP4 ADD SWAP3 SWAP1 SWAP2 ADD SWAP1 PUSH3 0x6ED JUMP JUMPDEST PUSH1 0x4 PUSH1 0x0 MSTORE SWAP1 SWAP2 POP PUSH32 0x8A35ACFBC15FF81A39AE7D344FD709F28E8600B4AA8C65C6B64BFE7FE36BD19B PUSH1 0x1F DUP5 ADD PUSH1 0x5 SHR DUP2 ADD SWAP2 PUSH1 0x20 DUP6 LT PUSH3 0x7B9 JUMPI JUMPDEST SWAP1 PUSH1 0x1F DUP6 SWAP5 SWAP4 SWAP3 ADD PUSH1 0x5 SHR ADD SWAP1 JUMPDEST DUP2 DUP2 LT PUSH3 0x7A9 JUMPI POP PUSH3 0x1AE JUMP JUMPDEST PUSH1 0x0 DUP2 SSTORE DUP5 SWAP4 POP PUSH1 0x1 ADD PUSH3 0x79A JUMP JUMPDEST SWAP1 SWAP2 POP DUP2 SWAP1 PUSH3 0x78C JUMP JUMPDEST PUSH4 0x4E487B71 PUSH1 0xE0 SHL PUSH1 0x0 MSTORE PUSH1 0x22 PUSH1 0x4 MSTORE PUSH1 0x24 PUSH1 0x0 REVERT JUMPDEST SWAP2 PUSH1 0x7F AND SWAP2 PUSH3 0x198 JUMP JUMPDEST PUSH4 0x4E487B71 PUSH1 0xE0 SHL PUSH1 0x0 MSTORE PUSH1 0x41 PUSH1 0x4 MSTORE PUSH1 0x24 PUSH1 0x0 REVERT JUMPDEST ADD MLOAD SWAP1 POP CODESIZE DUP1 PUSH3 0x15D JUMP JUMPDEST PUSH1 0x3 PUSH1 0x0 SWAP1 DUP2 MSTORE SWAP4 POP PUSH32 0xC2575A0E9E593C00F959F8C92F12DB2869C3395A3B0502D05E2516446F71F85B SWAP2 SWAP1 JUMPDEST PUSH1 0x1F NOT DUP5 AND DUP6 LT PUSH3 0x87A JUMPI PUSH1 0x1 SWAP5 POP DUP4 PUSH1 0x1F NOT DUP2 AND LT PUSH3 0x860 JUMPI JUMPDEST POP POP POP DUP2 SHL ADD PUSH1 0x3 SSTORE PUSH3 0x173 JUMP JUMPDEST ADD MLOAD PUSH1 0x0 NOT PUSH1 0xF8 DUP5 PUSH1 0x3 SHL AND SHR NOT AND SWAP1 SSTORE CODESIZE DUP1 DUP1 PUSH3 0x851 JUMP JUMPDEST DUP2 DUP2 ADD MLOAD DUP4 SSTORE PUSH1 0x20 SWAP5 DUP6 ADD SWAP5 PUSH1 0x1 SWAP1 SWAP4 ADD SWAP3 SWAP1 SWAP2 ADD SWAP1 PUSH3 0x834 JUMP JUMPDEST PUSH1 0x3 PUSH1 0x0 MSTORE SWAP1 SWAP2 POP PUSH32 0xC2575A0E9E593C00F959F8C92F12DB2869C3395A3B0502D05E2516446F71F85B PUSH1 0x1F DUP5 ADD PUSH1 0x5 SHR DUP2 ADD PUSH1 0x20 DUP6 LT PUSH3 0x900 JUMPI JUMPDEST SWAP1 DUP5 SWAP4 SWAP3 SWAP2 JUMPDEST PUSH1 0x1F DUP4 ADD PUSH1 0x5 SHR DUP3 ADD DUP2 LT PUSH3 0x8F0 JUMPI POP POP PUSH3 0x144 JUMP JUMPDEST PUSH1 0x0 DUP2 SSTORE DUP6 SWAP5 POP PUSH1 0x1 ADD PUSH3 0x8D8 JUMP JUMPDEST POP DUP1 PUSH3 0x8D2 JUMP JUMPDEST SWAP2 PUSH1 0x7F AND SWAP2 PUSH3 0x12E JUMP JUMPDEST PUSH1 0x0 DUP1 REVERT JUMPDEST PUSH1 0x40 MLOAD SWAP2 SWAP1 PUSH1 0x1F ADD PUSH1 0x1F NOT AND DUP3 ADD PUSH1 0x1 PUSH1 0x1 PUSH1 0x40 SHL SUB DUP2 GT DUP4 DUP3 LT OR PUSH3 0x7E5 JUMPI PUSH1 0x40 MSTORE JUMP JUMPDEST SWAP2 SWAP1 DUP1 PUSH1 0x1F DUP5 ADD SLT ISZERO PUSH3 0x913 JUMPI DUP3 MLOAD PUSH1 0x1 PUSH1 0x1 PUSH1 0x40 SHL SUB DUP2 GT PUSH3 0x7E5 JUMPI PUSH1 0x20 SWAP1 PUSH3 0x974 PUSH1 0x1F DUP3 ADD PUSH1 0x1F NOT AND DUP4 ADD PUSH3 0x918 JUMP JUMPDEST SWAP3 DUP2 DUP5 MSTORE DUP3 DUP3 DUP8 ADD ADD GT PUSH3 0x913 JUMPI PUSH1 0x0 JUMPDEST DUP2 DUP2 LT PUSH3 0x99C JUMPI POP DUP3 PUSH1 0x0 SWAP4 SWAP5 SWAP6 POP ADD ADD MSTORE SWAP1 JUMP JUMPDEST DUP6 DUP2 ADD DUP4 ADD MLOAD DUP5 DUP3 ADD DUP5 ADD MSTORE DUP3 ADD PUSH3 0x986 JUMP JUMPDEST MLOAD SWAP1 DUP2 ISZERO ISZERO DUP3 SUB PUSH3 0x913 JUMPI JUMP JUMPDEST MLOAD SWAP1 PUSH1 0x1 PUSH1 0x1 PUSH1 0xA0 SHL SUB DUP3 AND DUP3 SUB PUSH3 0x913 JUMPI JUMP JUMPDEST SWAP2 SWAP1 DUP3 ADD DUP1 SWAP3 GT PUSH3 0x450 JUMPI JUMP JUMPDEST PUSH1 0x1 PUSH1 0x1 PUSH1 0xA0 SHL SUB AND SWAP1 DUP2 ISZERO PUSH3 0xA42 JUMPI PUSH32 0xDDF252AD1BE2C89B69C2B068FC378DAA952BA7F163C4A11628F55A4DF523B3EF PUSH1 0x20 DUP3 PUSH3 0xA26 PUSH1 0x0 SWAP5 PUSH1 0x2 SLOAD PUSH3 0x9D3 JUMP JUMPDEST PUSH1 0x2 SSTORE DUP5 DUP5 MSTORE DUP4 DUP3 MSTORE PUSH1 0x40 DUP5 KECCAK256 DUP2 DUP2 SLOAD ADD SWAP1 SSTORE PUSH1 0x40 MLOAD SWAP1 DUP2 MSTORE LOG3 JUMP JUMPDEST PUSH1 0x40 MLOAD PUSH3 0x461BCD PUSH1 0xE5 SHL DUP2 MSTORE PUSH1 0x20 PUSH1 0x4 DUP3 ADD MSTORE PUSH1 0x1F PUSH1 0x24 DUP3 ADD MSTORE PUSH32 0x45524332303A206D696E7420746F20746865207A65726F206164647265737300 PUSH1 0x44 DUP3 ADD MSTORE PUSH1 0x64 SWAP1 REVERT JUMPDEST PUSH1 0x5 DUP1 SLOAD PUSH1 0x1 PUSH1 0x1 PUSH1 0xA0 SHL SUB SWAP3 DUP4 AND PUSH1 0x1 PUSH1 0x1 PUSH1 0xA0 SHL SUB NOT DUP3 AND DUP2 OR SWAP1 SWAP3 SSTORE SWAP1 SWAP2 AND PUSH32 0x8BE0079C531659141344CD1FD0A4F28419497F9722A3DAAFE3B4186F6B6457E0 PUSH1 0x0 DUP1 LOG3 JUMP INVALID PUSH1 0x80 PUSH1 0x40 DUP2 DUP2 MSTORE PUSH1 0x4 SWAP2 DUP3 CALLDATASIZE LT ISZERO PUSH2 0x16 JUMPI PUSH1 0x0 DUP1 REVERT JUMPDEST PUSH1 0x0 SWAP3 DUP4 CALLDATALOAD PUSH1 0xE0 SHR SWAP2 DUP3 PUSH4 0x6FDDE03 EQ PUSH2 0x1080 JUMPI POP DUP2 PUSH4 0x758D924 EQ PUSH2 0x1057 JUMPI DUP2 PUSH4 0x95EA7B3 EQ PUSH2 0x102D JUMPI DUP2 PUSH4 0xC439F93 EQ PUSH2 0x1004 JUMPI DUP2 PUSH4 0x153B0D1E EQ PUSH2 0xF72 JUMPI DUP2 PUSH4 0x18160DDD EQ PUSH2 0xF53 JUMPI DUP2 PUSH4 0x23B872DD EQ PUSH2 0xE89 JUMPI DUP2 PUSH4 0x27A14FC2 EQ PUSH2 0xE22 JUMPI DUP2 PUSH4 0x2BF2B11B EQ PUSH2 0xDFB JUMPI DUP2 PUSH4 0x313CE567 EQ PUSH2 0xDDF JUMPI DUP2 PUSH4 0x39509351 EQ PUSH2 0xD8F JUMPI DUP2 PUSH4 0x3DFC97E1 EQ PUSH2 0xD4D JUMPI DUP2 PUSH4 0x4ADA218B EQ PUSH2 0xD29 JUMPI DUP2 PUSH4 0x5E298790 EQ PUSH2 0xD0A JUMPI DUP2 PUSH4 0x606E1B81 EQ PUSH2 0xCED JUMPI DUP2 PUSH4 0x70A08231 EQ PUSH2 0xCAA JUMPI DUP2 PUSH4 0x70B7B80C EQ PUSH2 0xC8B JUMPI DUP2 PUSH4 0x715018A6 EQ PUSH2 0xC2E JUMPI DUP2 PUSH4 0x75CB1BD1 EQ PUSH2 0xB56 JUMPI DUP2 PUSH4 0x75F0A874 EQ PUSH2 0xB2D JUMPI DUP2 PUSH4 0x80ADA68A EQ PUSH2 0xB0E JUMPI DUP2 PUSH4 0x8187F516 EQ PUSH2 0xA2F JUMPI DUP2 PUSH4 0x81F5A25B EQ PUSH2 0x9ED JUMPI DUP2 PUSH4 0x8A8C523C EQ PUSH2 0x936 JUMPI DUP2 PUSH4 0x8C0B5E22 EQ PUSH2 0x917 JUMPI DUP2 PUSH4 0x8DA5CB5B EQ PUSH2 0x8EE JUMPI DUP2 PUSH4 0x95D89B41 EQ PUSH2 0x7E9 JUMPI DUP2 PUSH4 0x9E4E7318 EQ PUSH2 0x7AE JUMPI DUP2 PUSH4 0x9F7B0ED5 EQ PUSH2 0x759 JUMPI DUP2 PUSH4 0xA457C2D7 EQ PUSH2 0x6B1 JUMPI DUP2 PUSH4 0xA9059CBB EQ PUSH2 0x680 JUMPI DUP2 PUSH4 0xAA4BDE28 EQ PUSH2 0x661 JUMPI DUP2 PUSH4 0xBCC178FD EQ PUSH2 0x63A JUMPI DUP2 PUSH4 0xC04A5414 EQ PUSH2 0x611 JUMPI DUP2 PUSH4 0xC0D78655 EQ PUSH2 0x530 JUMPI DUP2 PUSH4 0xC1A68121 EQ PUSH2 0x4F2 JUMPI DUP2 PUSH4 0xDD62ED3E EQ PUSH2 0x4A9 JUMPI DUP2 PUSH4 0xDE37610E EQ PUSH2 0x48A JUMPI DUP2 PUSH4 0xE9DAE5ED EQ PUSH2 0x3BF JUMPI DUP2 PUSH4 0xEC28438A EQ PUSH2 0x358 JUMPI DUP2 PUSH4 0xF242AB41 EQ PUSH2 0x32F JUMPI DUP2 PUSH4 0xF2FDE38B EQ PUSH2 0x264 JUMPI POP DUP1 PUSH4 0xFE575A87 EQ PUSH2 0x227 JUMPI PUSH4 0xFFA1AD74 EQ PUSH2 0x209 JUMPI PUSH1 0x0 DUP1 REVERT JUMPDEST CALLVALUE PUSH2 0x223 JUMPI DUP2 PUSH1 0x3 NOT CALLDATASIZE ADD SLT PUSH2 0x223 JUMPI PUSH1 0x20 SWAP1 MLOAD PUSH1 0x2 DUP2 MSTORE RETURN JUMPDEST POP DUP1 REVERT JUMPDEST POP CALLVALUE PUSH2 0x223 JUMPI PUSH1 0x20 CALLDATASIZE PUSH1 0x3 NOT ADD SLT PUSH2 0x223 JUMPI PUSH1 0x20 SWAP2 PUSH1 0xFF SWAP1 DUP3 SWAP1 PUSH1 0x1 PUSH1 0x1 PUSH1 0xA0 SHL SUB PUSH2 0x251 PUSH2 0x11BE JUMP JUMPDEST AND DUP2 MSTORE PUSH1 0x14 DUP6 MSTORE KECCAK256 SLOAD AND SWAP1 MLOAD SWAP1 ISZERO ISZERO DUP2 MSTORE RETURN JUMPDEST SWAP1 POP CALLVALUE PUSH2 0x32B JUMPI PUSH1 0x20 CALLDATASIZE PUSH1 0x3 NOT ADD SLT PUSH2 0x32B JUMPI PUSH2 0x27F PUSH2 0x11BE JUMP JUMPDEST SWAP1 PUSH2 0x288 PUSH2 0x144A JUMP JUMPDEST PUSH1 0x1 PUSH1 0x1 PUSH1 0xA0 SHL SUB SWAP2 DUP3 AND SWAP3 DUP4 ISZERO PUSH2 0x2D9 JUMPI POP POP PUSH1 0x5 SLOAD DUP3 PUSH1 0x1 PUSH1 0x1 PUSH1 0x60 SHL SUB PUSH1 0xA0 SHL DUP3 AND OR PUSH1 0x5 SSTORE AND PUSH32 0x8BE0079C531659141344CD1FD0A4F28419497F9722A3DAAFE3B4186F6B6457E0 DUP4 DUP1 LOG3 DUP1 RETURN JUMPDEST SWAP1 PUSH1 0x20 PUSH1 0x84 SWAP3 MLOAD SWAP2 PUSH3 0x461BCD PUSH1 0xE5 SHL DUP4 MSTORE DUP3 ADD MSTORE PUSH1 0x26 PUSH1 0x24 DUP3 ADD MSTORE PUSH32 0x4F776E61626C653A206E6577206F776E657220697320746865207A65726F2061 PUSH1 0x44 DUP3 ADD MSTORE PUSH6 0x646472657373 PUSH1 0xD0 SHL PUSH1 0x64 DUP3 ADD MSTORE REVERT JUMPDEST DUP3 DUP1 REVERT JUMPDEST POP POP CALLVALUE PUSH2 0x223 JUMPI DUP2 PUSH1 0x3 NOT CALLDATASIZE ADD SLT PUSH2 0x223 JUMPI PUSH1 0xC SLOAD SWAP1 MLOAD PUSH1 0x1 PUSH1 0x1 PUSH1 0xA0 SHL SUB SWAP1 SWAP2 AND DUP2 MSTORE PUSH1 0x20 SWAP1 RETURN JUMPDEST SWAP1 POP CALLVALUE PUSH2 0x32B JUMPI PUSH1 0x20 CALLDATASIZE PUSH1 0x3 NOT ADD SLT PUSH2 0x32B JUMPI PUSH32 0x947F344D56E1E8C70DC492FB94C4DDDDD490C016AAB685F5E7E47B2E85CB44CF SWAP2 PUSH1 0x20 SWAP2 CALLDATALOAD SWAP1 PUSH2 0x39A PUSH2 0x144A JUMP JUMPDEST PUSH2 0x3A5 DUP3 ISZERO ISZERO PUSH2 0x1283 JUMP JUMPDEST PUSH2 0x3B3 PUSH1 0x2 SLOAD DUP4 GT ISZERO PUSH2 0x12CF JUMP JUMPDEST DUP2 PUSH1 0x9 SSTORE MLOAD SWAP1 DUP2 MSTORE LOG1 DUP1 RETURN JUMPDEST DUP4 SWAP2 POP CALLVALUE PUSH2 0x223 JUMPI PUSH1 0x60 CALLDATASIZE PUSH1 0x3 NOT ADD SLT PUSH2 0x223 JUMPI DUP1 CALLDATALOAD PUSH1 0x24 CALLDATALOAD SWAP1 PUSH1 0x44 CALLDATALOAD SWAP3 PUSH2 0x3E5 PUSH2 0x144A JUMP JUMPDEST PUSH1 0x19 PUSH2 0x3FA DUP6 PUSH2 0x3F5 DUP7 DUP7 PUSH2 0x1325 JUMP JUMPDEST PUSH2 0x1325 JUMP JUMPDEST GT PUSH2 0x447 JUMPI POP PUSH2 0x43E PUSH32 0x8A9CBB7BD5BAB504D3FC44931790235EE0C3011FEECAA62967A37E3F934146B SWAP4 PUSH2 0x3F5 PUSH1 0x20 SWAP5 DUP5 DUP10 SWAP6 PUSH1 0xD SSTORE DUP2 PUSH1 0xE SSTORE DUP4 PUSH1 0xF SSTORE PUSH2 0x1325 JUMP JUMPDEST SWAP1 MLOAD SWAP1 DUP2 MSTORE LOG1 DUP1 RETURN JUMPDEST PUSH1 0x64 SWAP1 PUSH1 0x20 DUP8 MLOAD SWAP2 PUSH3 0x461BCD PUSH1 0xE5 SHL DUP4 MSTORE DUP3 ADD MSTORE PUSH1 0x1C PUSH1 0x24 DUP3 ADD MSTORE PUSH32 0x546F74616C20666565732063616E6E6F74206578636565642032352500000000 PUSH1 0x44 DUP3 ADD MSTORE REVERT JUMPDEST POP POP CALLVALUE PUSH2 0x223 JUMPI DUP2 PUSH1 0x3 NOT CALLDATASIZE ADD SLT PUSH2 0x223 JUMPI PUSH1 0x20 SWAP1 PUSH1 0xF SLOAD SWAP1 MLOAD SWAP1 DUP2 MSTORE RETURN JUMPDEST POP POP CALLVALUE PUSH2 0x223 JUMPI DUP1 PUSH1 0x3 NOT CALLDATASIZE ADD SLT PUSH2 0x223 JUMPI DUP1 PUSH1 0x20 SWAP3 PUSH2 0x4C7 PUSH2 0x11BE JUMP JUMPDEST PUSH2 0x4CF PUSH2 0x11D9 JUMP JUMPDEST PUSH1 0x1 PUSH1 0x1 PUSH1 0xA0 SHL SUB SWAP2 DUP3 AND DUP4 MSTORE PUSH1 0x1 DUP7 MSTORE DUP4 DUP4 KECCAK256 SWAP2 AND DUP3 MSTORE DUP5 MSTORE KECCAK256 SLOAD SWAP1 MLOAD SWAP1 DUP2 MSTORE RETURN JUMPDEST POP POP CALLVALUE PUSH2 0x223 JUMPI PUSH1 0x20 CALLDATASIZE PUSH1 0x3 NOT ADD SLT PUSH2 0x223 JUMPI PUSH1 0x20 SWAP2 PUSH1 0xFF SWAP1 DUP3 SWAP1 PUSH1 0x1 PUSH1 0x1 PUSH1 0xA0 SHL SUB PUSH2 0x51D PUSH2 0x11BE JUMP JUMPDEST AND DUP2 MSTORE PUSH1 0x13 DUP6 MSTORE KECCAK256 SLOAD AND SWAP1 MLOAD SWAP1 ISZERO ISZERO DUP2 MSTORE RETURN JUMPDEST SWAP1 POP CALLVALUE PUSH2 0x32B JUMPI PUSH1 0x20 CALLDATASIZE PUSH1 0x3 NOT ADD SLT PUSH2 0x32B JUMPI PUSH2 0x54B PUSH2 0x11BE JUMP JUMPDEST PUSH1 0x12 SLOAD PUSH1 0x1 PUSH1 0x1 PUSH1 0xA0 SHL SUB SWAP2 SWAP1 DUP3 AND CALLER SUB PUSH2 0x5CE JUMPI PUSH1 0xB SLOAD SWAP3 DUP3 DUP5 AND PUSH2 0x596 JUMPI POP AND DUP1 SWAP2 PUSH1 0x1 PUSH1 0x1 PUSH1 0x60 SHL SUB PUSH1 0xA0 SHL AND OR PUSH1 0xB SSTORE DUP3 MSTORE PUSH1 0x13 PUSH1 0x20 MSTORE DUP2 KECCAK256 PUSH1 0x1 PUSH1 0xFF NOT DUP3 SLOAD AND OR SWAP1 SSTORE DUP1 RETURN JUMPDEST PUSH1 0x64 SWAP1 PUSH1 0x20 DUP7 MLOAD SWAP2 PUSH3 0x461BCD PUSH1 0xE5 SHL DUP4 MSTORE DUP3 ADD MSTORE PUSH1 0x12 PUSH1 0x24 DUP3 ADD MSTORE PUSH18 0x149BDD5D195C88185B1C9958591E481CD95D PUSH1 0x72 SHL PUSH1 0x44 DUP3 ADD MSTORE REVERT JUMPDEST DUP4 MLOAD PUSH3 0x461BCD PUSH1 0xE5 SHL DUP2 MSTORE PUSH1 0x20 DUP2 DUP6 ADD MSTORE PUSH1 0x1B PUSH1 0x24 DUP3 ADD MSTORE PUSH32 0x4F6E6C7920666163746F72792063616E2073657420726F757465720000000000 PUSH1 0x44 DUP3 ADD MSTORE PUSH1 0x64 SWAP1 REVERT JUMPDEST POP POP CALLVALUE PUSH2 0x223 JUMPI DUP2 PUSH1 0x3 NOT CALLDATASIZE ADD SLT PUSH2 0x223 JUMPI PUSH1 0x11 SLOAD SWAP1 MLOAD PUSH1 0x1 PUSH1 0x1 PUSH1 0xA0 SHL SUB SWAP1 SWAP2 AND DUP2 MSTORE PUSH1 0x20 SWAP1 RETURN JUMPDEST POP POP CALLVALUE PUSH2 0x223 JUMPI DUP2 PUSH1 0x3 NOT CALLDATASIZE ADD SLT PUSH2 0x223 JUMPI PUSH1 0x20 SWAP1 PUSH1 0xFF PUSH1 0x12 SLOAD PUSH1 0xA8 SHR AND SWAP1 MLOAD SWAP1 ISZERO ISZERO DUP2 MSTORE RETURN JUMPDEST POP POP CALLVALUE PUSH2 0x223 JUMPI DUP2 PUSH1 0x3 NOT CALLDATASIZE ADD SLT PUSH2 0x223 JUMPI PUSH1 0x20 SWAP1 PUSH1 0xA SLOAD SWAP1 MLOAD SWAP1 DUP2 MSTORE RETURN JUMPDEST POP POP CALLVALUE PUSH2 0x223 JUMPI DUP1 PUSH1 0x3 NOT CALLDATASIZE ADD SLT PUSH2 0x223 JUMPI PUSH1 0x20 SWAP1 PUSH2 0x6AA PUSH2 0x6A0 PUSH2 0x11BE JUMP JUMPDEST PUSH1 0x24 CALLDATALOAD SWAP1 CALLER PUSH2 0x14B5 JUMP JUMPDEST MLOAD PUSH1 0x1 DUP2 MSTORE RETURN JUMPDEST SWAP1 POP DUP3 CALLVALUE PUSH2 0x756 JUMPI DUP3 PUSH1 0x3 NOT CALLDATASIZE ADD SLT PUSH2 0x756 JUMPI PUSH2 0x6CC PUSH2 0x11BE JUMP JUMPDEST SWAP2 DUP4 PUSH1 0x24 CALLDATALOAD SWAP3 CALLER DUP2 MSTORE PUSH1 0x1 PUSH1 0x20 MSTORE DUP2 DUP2 KECCAK256 PUSH1 0x1 DUP1 PUSH1 0xA0 SHL SUB DUP7 AND DUP3 MSTORE PUSH1 0x20 MSTORE KECCAK256 SLOAD SWAP1 DUP3 DUP3 LT PUSH2 0x705 JUMPI PUSH1 0x20 DUP6 PUSH2 0x6AA DUP6 DUP6 SUB DUP8 CALLER PUSH2 0x1348 JUMP JUMPDEST PUSH1 0x84 SWAP1 PUSH1 0x20 DUP7 MLOAD SWAP2 PUSH3 0x461BCD PUSH1 0xE5 SHL DUP4 MSTORE DUP3 ADD MSTORE PUSH1 0x25 PUSH1 0x24 DUP3 ADD MSTORE PUSH32 0x45524332303A2064656372656173656420616C6C6F77616E63652062656C6F77 PUSH1 0x44 DUP3 ADD MSTORE PUSH5 0x207A65726F PUSH1 0xD8 SHL PUSH1 0x64 DUP3 ADD MSTORE REVERT JUMPDEST DUP1 REVERT JUMPDEST POP POP CALLVALUE PUSH2 0x223 JUMPI DUP1 PUSH1 0x3 NOT CALLDATASIZE ADD SLT PUSH2 0x223 JUMPI PUSH2 0x7AB SWAP1 PUSH2 0x777 PUSH2 0x11BE JUMP JUMPDEST SWAP1 PUSH2 0x780 PUSH2 0x11EF JUMP JUMPDEST SWAP2 PUSH2 0x789 PUSH2 0x144A JUMP JUMPDEST PUSH1 0x1 DUP1 PUSH1 0xA0 SHL SUB AND DUP5 MSTORE PUSH1 0x13 PUSH1 0x20 MSTORE DUP4 KECCAK256 SWAP1 PUSH1 0xFF DUP1 NOT DUP4 SLOAD AND SWAP2 ISZERO ISZERO AND OR SWAP1 SSTORE JUMP JUMPDEST DUP1 RETURN JUMPDEST POP POP CALLVALUE PUSH2 0x223 JUMPI DUP2 PUSH1 0x3 NOT CALLDATASIZE ADD SLT PUSH2 0x223 JUMPI PUSH1 0x20 SWAP1 MLOAD PUSH32 0x97831D354A6F8B80F2034ECB74DED90ADDDA670141F845B47BCBB8C109BE18A2 DUP2 MSTORE RETURN JUMPDEST DUP4 DUP4 CALLVALUE PUSH2 0x223 JUMPI DUP2 PUSH1 0x3 NOT CALLDATASIZE ADD SLT PUSH2 0x223 JUMPI DUP1 MLOAD SWAP2 DUP1 SWAP4 DUP1 SLOAD SWAP2 PUSH1 0x1 SWAP1 DUP4 PUSH1 0x1 SHR SWAP3 PUSH1 0x1 DUP6 AND SWAP5 DUP6 ISZERO PUSH2 0x8E4 JUMPI JUMPDEST PUSH1 0x20 SWAP6 DUP7 DUP7 LT DUP2 EQ PUSH2 0x8D1 JUMPI DUP6 DUP10 MSTORE SWAP1 DUP2 ISZERO PUSH2 0x8AD JUMPI POP PUSH1 0x1 EQ PUSH2 0x855 JUMPI JUMPDEST PUSH2 0x851 DUP8 DUP8 PUSH2 0x847 DUP3 DUP13 SUB DUP4 PUSH2 0x120D JUMP JUMPDEST MLOAD SWAP2 DUP3 SWAP2 DUP3 PUSH2 0x1175 JUMP JUMPDEST SUB SWAP1 RETURN JUMPDEST DUP2 MSTORE SWAP3 SWAP6 POP PUSH32 0x8A35ACFBC15FF81A39AE7D344FD709F28E8600B4AA8C65C6B64BFE7FE36BD19B JUMPDEST DUP3 DUP5 LT PUSH2 0x89A JUMPI POP POP POP DUP3 PUSH2 0x851 SWAP5 PUSH2 0x847 SWAP3 DUP3 ADD ADD SWAP5 DUP7 DUP1 PUSH2 0x836 JUMP JUMPDEST DUP1 SLOAD DUP7 DUP6 ADD DUP9 ADD MSTORE SWAP3 DUP7 ADD SWAP3 DUP2 ADD PUSH2 0x87C JUMP JUMPDEST PUSH1 0xFF NOT AND DUP9 DUP8 ADD MSTORE POP POP POP POP ISZERO ISZERO PUSH1 0x5 SHL DUP4 ADD ADD SWAP3 POP PUSH2 0x847 DUP3 PUSH2 0x851 DUP7 DUP1 PUSH2 0x836 JUMP JUMPDEST PUSH4 0x4E487B71 PUSH1 0xE0 SHL DUP5 MSTORE PUSH1 0x22 DUP4 MSTORE PUSH1 0x24 DUP5 REVERT JUMPDEST SWAP4 PUSH1 0x7F AND SWAP4 PUSH2 0x817 JUMP JUMPDEST POP POP CALLVALUE PUSH2 0x223 JUMPI DUP2 PUSH1 0x3 NOT CALLDATASIZE ADD SLT PUSH2 0x223 JUMPI PUSH1 0x5 SLOAD SWAP1 MLOAD PUSH1 0x1 PUSH1 0x1 PUSH1 0xA0 SHL SUB SWAP1 SWAP2 AND DUP2 MSTORE PUSH1 0x20 SWAP1 RETURN JUMPDEST POP POP CALLVALUE PUSH2 0x223 JUMPI DUP2 PUSH1 0x3 NOT CALLDATASIZE ADD SLT PUSH2 0x223 JUMPI PUSH1 0x20 SWAP1 PUSH1 0x9 SLOAD SWAP1 MLOAD SWAP1 DUP2 MSTORE RETURN JUMPDEST SWAP1 POP CALLVALUE PUSH2 0x32B JUMPI DUP3 PUSH1 0x3 NOT CALLDATASIZE ADD SLT PUSH2 0x32B JUMPI PUSH2 0x950 PUSH2 0x144A JUMP JUMPDEST PUSH1 0x7 SLOAD SWAP1 PUSH1 0xFF DUP3 AND PUSH2 0x9AA JUMPI POP PUSH1 0xFF NOT AND PUSH1 0x1 OR PUSH1 0x7 SSTORE PUSH1 0x8 SLOAD PUSH32 0xB3DA2DB3DFC3778F99852546C6E9AB39EC253F9DE7B0847AFEC61BD27878E923 SWAP2 PUSH1 0x20 SWAP2 ISZERO PUSH2 0x9A1 JUMPI JUMPDEST PUSH1 0x8 SLOAD SWAP1 MLOAD SWAP1 DUP2 MSTORE LOG1 DUP1 RETURN JUMPDEST TIMESTAMP PUSH1 0x8 SSTORE PUSH2 0x995 JUMP JUMPDEST PUSH1 0x64 SWAP1 PUSH1 0x20 DUP5 MLOAD SWAP2 PUSH3 0x461BCD PUSH1 0xE5 SHL DUP4 MSTORE DUP3 ADD MSTORE PUSH1 0x17 PUSH1 0x24 DUP3 ADD MSTORE PUSH32 0x54726164696E6720616C726561647920656E61626C6564000000000000000000 PUSH1 0x44 DUP3 ADD MSTORE REVERT JUMPDEST DUP4 CALLVALUE PUSH2 0x756 JUMPI PUSH1 0x20 CALLDATASIZE PUSH1 0x3 NOT ADD SLT PUSH2 0x756 JUMPI PUSH2 0xA07 PUSH2 0x11FE JUMP JUMPDEST PUSH2 0xA0F PUSH2 0x144A JUMP JUMPDEST PUSH1 0x12 DUP1 SLOAD PUSH1 0xFF PUSH1 0xA0 SHL NOT AND SWAP2 ISZERO ISZERO PUSH1 0xA0 SHL PUSH1 0xFF PUSH1 0xA0 SHL AND SWAP2 SWAP1 SWAP2 OR SWAP1 SSTORE DUP1 RETURN JUMPDEST SWAP1 POP CALLVALUE PUSH2 0x32B JUMPI PUSH1 0x20 CALLDATASIZE PUSH1 0x3 NOT ADD SLT PUSH2 0x32B JUMPI PUSH2 0xA4A PUSH2 0x11BE JUMP JUMPDEST PUSH1 0x12 SLOAD PUSH1 0x1 PUSH1 0x1 PUSH1 0xA0 SHL SUB SWAP2 SWAP1 DUP3 AND CALLER SUB PUSH2 0xACB JUMPI PUSH1 0xC SLOAD SWAP3 DUP3 DUP5 AND PUSH2 0xA95 JUMPI POP AND DUP1 SWAP2 PUSH1 0x1 PUSH1 0x1 PUSH1 0x60 SHL SUB PUSH1 0xA0 SHL AND OR PUSH1 0xC SSTORE DUP3 MSTORE PUSH1 0x13 PUSH1 0x20 MSTORE DUP2 KECCAK256 PUSH1 0x1 PUSH1 0xFF NOT DUP3 SLOAD AND OR SWAP1 SSTORE DUP1 RETURN JUMPDEST PUSH1 0x64 SWAP1 PUSH1 0x20 DUP7 MLOAD SWAP2 PUSH3 0x461BCD PUSH1 0xE5 SHL DUP4 MSTORE DUP3 ADD MSTORE PUSH1 0x10 PUSH1 0x24 DUP3 ADD MSTORE PUSH16 0x14185A5C88185B1C9958591E481CD95D PUSH1 0x82 SHL PUSH1 0x44 DUP3 ADD MSTORE REVERT JUMPDEST DUP4 MLOAD PUSH3 0x461BCD PUSH1 0xE5 SHL DUP2 MSTORE PUSH1 0x20 DUP2 DUP6 ADD MSTORE PUSH1 0x19 PUSH1 0x24 DUP3 ADD MSTORE PUSH32 0x4F6E6C7920666163746F72792063616E20736574207061697200000000000000 PUSH1 0x44 DUP3 ADD MSTORE PUSH1 0x64 SWAP1 REVERT JUMPDEST POP POP CALLVALUE PUSH2 0x223 JUMPI DUP2 PUSH1 0x3 NOT CALLDATASIZE ADD SLT PUSH2 0x223 JUMPI PUSH1 0x20 SWAP1 PUSH1 0xD SLOAD SWAP1 MLOAD SWAP1 DUP2 MSTORE RETURN JUMPDEST POP POP CALLVALUE PUSH2 0x223 JUMPI DUP2 PUSH1 0x3 NOT CALLDATASIZE ADD SLT PUSH2 0x223 JUMPI PUSH1 0x10 SLOAD SWAP1 MLOAD PUSH1 0x1 PUSH1 0x1 PUSH1 0xA0 SHL SUB SWAP1 SWAP2 AND DUP2 MSTORE PUSH1 0x20 SWAP1 RETURN JUMPDEST POP POP CALLVALUE PUSH2 0x223 JUMPI PUSH1 0x60 CALLDATASIZE PUSH1 0x3 NOT ADD SLT PUSH2 0x223 JUMPI PUSH2 0xB71 PUSH2 0x11BE JUMP JUMPDEST PUSH2 0xB79 PUSH2 0x11D9 JUMP JUMPDEST SWAP2 PUSH1 0x1 PUSH1 0x1 PUSH1 0xA0 SHL SUB SWAP1 PUSH1 0x44 CALLDATALOAD DUP3 DUP2 AND SWAP2 SWAP1 DUP3 SWAP1 SUB PUSH2 0xC2A JUMPI PUSH32 0x2D4C6AA48812A0EA09474A961613C1A3AE652D39A1580CB1AC46FF277E6D385D SWAP5 DUP3 DUP5 PUSH1 0x60 SWAP7 PUSH2 0xBC1 PUSH2 0x144A JUMP JUMPDEST AND SWAP5 DUP6 ISZERO ISZERO DUP1 PUSH2 0xC1F JUMPI JUMPDEST DUP1 PUSH2 0xC16 JUMPI JUMPDEST PUSH2 0xBDB SWAP1 PUSH2 0x1245 JUMP JUMPDEST PUSH1 0x1 PUSH1 0x1 PUSH1 0x60 SHL SUB PUSH1 0xA0 SHL SWAP3 DUP7 DUP5 PUSH1 0x10 SLOAD AND OR PUSH1 0x10 SSTORE AND SWAP2 DUP3 DUP2 PUSH1 0x11 SLOAD AND OR PUSH1 0x11 SSTORE PUSH1 0x12 SLOAD AND OR PUSH1 0x12 SSTORE DUP2 MLOAD SWAP4 DUP5 MSTORE PUSH1 0x20 DUP5 ADD MSTORE DUP3 ADD MSTORE LOG1 DUP1 RETURN JUMPDEST POP DUP2 ISZERO ISZERO PUSH2 0xBD2 JUMP JUMPDEST POP DUP1 DUP4 AND ISZERO ISZERO PUSH2 0xBCC JUMP JUMPDEST DUP6 DUP1 REVERT JUMPDEST DUP4 CALLVALUE PUSH2 0x756 JUMPI DUP1 PUSH1 0x3 NOT CALLDATASIZE ADD SLT PUSH2 0x756 JUMPI PUSH2 0xC47 PUSH2 0x144A JUMP JUMPDEST PUSH1 0x5 DUP1 SLOAD PUSH1 0x1 PUSH1 0x1 PUSH1 0xA0 SHL SUB NOT DUP2 AND SWAP1 SWAP2 SSTORE DUP2 SWAP1 PUSH1 0x1 PUSH1 0x1 PUSH1 0xA0 SHL SUB AND PUSH32 0x8BE0079C531659141344CD1FD0A4F28419497F9722A3DAAFE3B4186F6B6457E0 DUP3 DUP1 LOG3 DUP1 RETURN JUMPDEST POP POP CALLVALUE PUSH2 0x223 JUMPI DUP2 PUSH1 0x3 NOT CALLDATASIZE ADD SLT PUSH2 0x223 JUMPI PUSH1 0x20 SWAP1 PUSH1 0x8 SLOAD SWAP1 MLOAD SWAP1 DUP2 MSTORE RETURN JUMPDEST POP POP CALLVALUE PUSH2 0x223 JUMPI PUSH1 0x20 CALLDATASIZE PUSH1 0x3 NOT ADD SLT PUSH2 0x223 JUMPI PUSH1 0x20 SWAP1 PUSH2 0xCE6 PUSH2 0xCCB PUSH2 0x11BE JUMP JUMPDEST PUSH1 0x1 PUSH1 0x1 PUSH1 0xA0 SHL SUB AND PUSH1 0x0 SWAP1 DUP2 MSTORE PUSH1 0x20 DUP2 SWAP1 MSTORE PUSH1 0x40 SWAP1 KECCAK256 SLOAD SWAP1 JUMP JUMPDEST SWAP1 MLOAD SWAP1 DUP2 MSTORE RETURN JUMPDEST POP POP CALLVALUE PUSH2 0x223 JUMPI DUP2 PUSH1 0x3 NOT CALLDATASIZE ADD SLT PUSH2 0x223 JUMPI PUSH1 0x20 SWAP1 MLOAD PUSH2 0x3E8 DUP2 MSTORE RETURN JUMPDEST POP POP CALLVALUE PUSH2 0x223 JUMPI DUP2 PUSH1 0x3 NOT CALLDATASIZE ADD SLT PUSH2 0x223 JUMPI PUSH1 0x20 SWAP1 PUSH1 0xE SLOAD SWAP1 MLOAD SWAP1 DUP2 MSTORE RETURN JUMPDEST POP POP CALLVALUE PUSH2 0x223 JUMPI DUP2 PUSH1 0x3 NOT CALLDATASIZE ADD SLT PUSH2 0x223 JUMPI PUSH1 0x20 SWAP1 PUSH1 0xFF PUSH1 0x7 SLOAD AND SWAP1 MLOAD SWAP1 ISZERO ISZERO DUP2 MSTORE RETURN JUMPDEST DUP4 CALLVALUE PUSH2 0x756 JUMPI PUSH1 0x20 CALLDATASIZE PUSH1 0x3 NOT ADD SLT PUSH2 0x756 JUMPI PUSH2 0xD67 PUSH2 0x11FE JUMP JUMPDEST PUSH2 0xD6F PUSH2 0x144A JUMP JUMPDEST PUSH1 0x12 DUP1 SLOAD PUSH1 0xFF PUSH1 0xA8 SHL NOT AND SWAP2 ISZERO ISZERO PUSH1 0xA8 SHL PUSH1 0xFF PUSH1 0xA8 SHL AND SWAP2 SWAP1 SWAP2 OR SWAP1 SSTORE DUP1 RETURN JUMPDEST POP POP CALLVALUE PUSH2 0x223 JUMPI DUP1 PUSH1 0x3 NOT CALLDATASIZE ADD SLT PUSH2 0x223 JUMPI PUSH2 0x6AA PUSH1 0x20 SWAP3 PUSH2 0xDD8 PUSH2 0xDB2 PUSH2 0x11BE JUMP JUMPDEST CALLER DUP4 MSTORE PUSH1 0x1 DUP7 MSTORE DUP5 DUP4 KECCAK256 PUSH1 0x1 PUSH1 0x1 PUSH1 0xA0 SHL SUB DUP3 AND DUP5 MSTORE DUP7 MSTORE SWAP2 DUP5 SWAP1 KECCAK256 SLOAD PUSH1 0x24 CALLDATALOAD SWAP1 PUSH2 0x1325 JUMP JUMPDEST SWAP1 CALLER PUSH2 0x1348 JUMP JUMPDEST POP POP CALLVALUE PUSH2 0x223 JUMPI DUP2 PUSH1 0x3 NOT CALLDATASIZE ADD SLT PUSH2 0x223 JUMPI PUSH1 0x20 SWAP1 MLOAD PUSH1 0x12 DUP2 MSTORE RETURN JUMPDEST POP POP CALLVALUE PUSH2 0x223 JUMPI DUP2 PUSH1 0x3 NOT CALLDATASIZE ADD SLT PUSH2 0x223 JUMPI PUSH1 0x20 SWAP1 PUSH1 0xFF PUSH1 0x12 SLOAD PUSH1 0xA0 SHR AND SWAP1 MLOAD SWAP1 ISZERO ISZERO DUP2 MSTORE RETURN JUMPDEST SWAP1 POP CALLVALUE PUSH2 0x32B JUMPI PUSH1 0x20 CALLDATASIZE PUSH1 0x3 NOT ADD SLT PUSH2 0x32B JUMPI PUSH32 0x4B39C36D20C57D220F61FD25C4349D4435CC03EF6C2A680942F15333C3C3E001 SWAP2 PUSH1 0x20 SWAP2 CALLDATALOAD SWAP1 PUSH2 0xE64 PUSH2 0x144A JUMP JUMPDEST PUSH2 0xE6F DUP3 ISZERO ISZERO PUSH2 0x1283 JUMP JUMPDEST PUSH2 0xE7D PUSH1 0x2 SLOAD DUP4 GT ISZERO PUSH2 0x12CF JUMP JUMPDEST DUP2 PUSH1 0xA SSTORE MLOAD SWAP1 DUP2 MSTORE LOG1 DUP1 RETURN JUMPDEST DUP4 SWAP2 POP CALLVALUE PUSH2 0x223 JUMPI PUSH1 0x60 CALLDATASIZE PUSH1 0x3 NOT ADD SLT PUSH2 0x223 JUMPI PUSH2 0xEA5 PUSH2 0x11BE JUMP JUMPDEST PUSH2 0xEAD PUSH2 0x11D9 JUMP JUMPDEST SWAP2 DUP5 PUSH1 0x44 CALLDATALOAD SWAP5 PUSH1 0x1 DUP1 PUSH1 0xA0 SHL SUB DUP5 AND DUP2 MSTORE PUSH1 0x1 PUSH1 0x20 MSTORE DUP2 DUP2 KECCAK256 CALLER DUP3 MSTORE PUSH1 0x20 MSTORE KECCAK256 SLOAD SWAP1 PUSH1 0x0 NOT DUP3 SUB PUSH2 0xEE7 JUMPI JUMPDEST PUSH1 0x20 DUP7 PUSH2 0x6AA DUP8 DUP8 DUP8 PUSH2 0x14B5 JUMP JUMPDEST DUP5 DUP3 LT PUSH2 0xF10 JUMPI POP SWAP2 DUP4 SWAP2 PUSH2 0xF05 PUSH1 0x20 SWAP7 SWAP6 PUSH2 0x6AA SWAP6 SUB CALLER DUP4 PUSH2 0x1348 JUMP JUMPDEST SWAP2 SWAP4 SWAP5 DUP2 SWAP4 POP PUSH2 0xED9 JUMP JUMPDEST PUSH1 0x64 SWAP1 PUSH1 0x20 DUP8 MLOAD SWAP2 PUSH3 0x461BCD PUSH1 0xE5 SHL DUP4 MSTORE DUP3 ADD MSTORE PUSH1 0x1D PUSH1 0x24 DUP3 ADD MSTORE PUSH32 0x45524332303A20696E73756666696369656E7420616C6C6F77616E6365000000 PUSH1 0x44 DUP3 ADD MSTORE REVERT JUMPDEST POP POP CALLVALUE PUSH2 0x223 JUMPI DUP2 PUSH1 0x3 NOT CALLDATASIZE ADD SLT PUSH2 0x223 JUMPI PUSH1 0x20 SWAP1 PUSH1 0x2 SLOAD SWAP1 MLOAD SWAP1 DUP2 MSTORE RETURN JUMPDEST POP POP CALLVALUE PUSH2 0x223 JUMPI DUP1 PUSH1 0x3 NOT CALLDATASIZE ADD SLT PUSH2 0x223 JUMPI PUSH32 0x6A12B3DF6CBA4203BD7FD06B816789F87DE8C594299AED5717AE070FAC781BAC SWAP1 PUSH2 0xFAE PUSH2 0x11BE JUMP JUMPDEST PUSH2 0xFB6 PUSH2 0x11EF JUMP JUMPDEST SWAP1 PUSH2 0xFBF PUSH2 0x144A JUMP JUMPDEST PUSH1 0x1 PUSH1 0x1 PUSH1 0xA0 SHL SUB AND SWAP1 PUSH2 0xFD4 DUP3 ISZERO ISZERO PUSH2 0x1245 JUMP JUMPDEST DUP2 DUP6 MSTORE PUSH1 0x14 PUSH1 0x20 MSTORE PUSH2 0xFF4 DUP2 DUP5 DUP8 KECCAK256 SWAP1 PUSH1 0xFF DUP1 NOT DUP4 SLOAD AND SWAP2 ISZERO ISZERO AND OR SWAP1 SSTORE JUMP JUMPDEST DUP3 MLOAD SWAP2 DUP3 MSTORE ISZERO ISZERO PUSH1 0x20 DUP3 ADD MSTORE LOG1 DUP1 RETURN JUMPDEST POP POP CALLVALUE PUSH2 0x223 JUMPI DUP2 PUSH1 0x3 NOT CALLDATASIZE ADD SLT PUSH2 0x223 JUMPI PUSH1 0x12 SLOAD SWAP1 MLOAD PUSH1 0x1 PUSH1 0x1 PUSH1 0xA0 SHL SUB SWAP1 SWAP2 AND DUP2 MSTORE PUSH1 0x20 SWAP1 RETURN JUMPDEST POP POP CALLVALUE PUSH2 0x223 JUMPI DUP1 PUSH1 0x3 NOT CALLDATASIZE ADD SLT PUSH2 0x223 JUMPI PUSH1 0x20 SWAP1 PUSH2 0x6AA PUSH2 0x104D PUSH2 0x11BE JUMP JUMPDEST PUSH1 0x24 CALLDATALOAD SWAP1 CALLER PUSH2 0x1348 JUMP JUMPDEST POP POP CALLVALUE PUSH2 0x223 JUMPI DUP2 PUSH1 0x3 NOT CALLDATASIZE ADD SLT PUSH2 0x223 JUMPI PUSH1 0xB SLOAD SWAP1 MLOAD PUSH1 0x1 PUSH1 0x1 PUSH1 0xA0 SHL SUB SWAP1 SWAP2 AND DUP2 MSTORE PUSH1 0x20 SWAP1 RETURN JUMPDEST SWAP3 SWAP2 POP CALLVALUE PUSH2 0x1171 JUMPI DUP4 PUSH1 0x3 NOT CALLDATASIZE ADD SLT PUSH2 0x1171 JUMPI PUSH1 0x3 SLOAD PUSH1 0x1 DUP2 DUP2 SHR SWAP2 DUP7 SWAP1 DUP3 DUP2 AND DUP1 ISZERO PUSH2 0x1167 JUMPI JUMPDEST PUSH1 0x20 SWAP6 DUP7 DUP7 LT DUP3 EQ PUSH2 0x1154 JUMPI POP DUP5 DUP9 MSTORE SWAP1 DUP2 ISZERO PUSH2 0x1132 JUMPI POP PUSH1 0x1 EQ PUSH2 0x10D9 JUMPI JUMPDEST PUSH2 0x851 DUP7 DUP7 PUSH2 0x847 DUP3 DUP12 SUB DUP4 PUSH2 0x120D JUMP JUMPDEST SWAP3 SWAP6 POP PUSH1 0x3 DUP4 MSTORE PUSH32 0xC2575A0E9E593C00F959F8C92F12DB2869C3395A3B0502D05E2516446F71F85B JUMPDEST DUP3 DUP5 LT PUSH2 0x111F JUMPI POP POP POP DUP3 PUSH2 0x851 SWAP5 PUSH2 0x847 SWAP3 DUP3 ADD ADD SWAP5 CODESIZE PUSH2 0x10C8 JUMP JUMPDEST DUP1 SLOAD DUP7 DUP6 ADD DUP9 ADD MSTORE SWAP3 DUP7 ADD SWAP3 DUP2 ADD PUSH2 0x1102 JUMP JUMPDEST PUSH1 0xFF NOT AND DUP8 DUP7 ADD MSTORE POP POP POP ISZERO ISZERO PUSH1 0x5 SHL DUP4 ADD ADD SWAP3 POP PUSH2 0x847 DUP3 PUSH2 0x851 CODESIZE PUSH2 0x10C8 JUMP JUMPDEST PUSH4 0x4E487B71 PUSH1 0xE0 SHL DUP5 MSTORE PUSH1 0x22 SWAP1 MSTORE PUSH1 0x24 DUP4 REVERT JUMPDEST SWAP4 PUSH1 0x7F AND SWAP4 PUSH2 0x10A8 JUMP JUMPDEST DUP4 DUP1 REVERT JUMPDEST PUSH1 0x20 DUP1 DUP3 MSTORE DUP3 MLOAD DUP2 DUP4 ADD DUP2 SWAP1 MSTORE SWAP1 SWAP4 SWAP3 PUSH1 0x0 JUMPDEST DUP3 DUP2 LT PUSH2 0x11AA JUMPI POP POP PUSH1 0x40 SWAP3 SWAP4 POP PUSH1 0x0 DUP4 DUP3 DUP5 ADD ADD MSTORE PUSH1 0x1F DUP1 NOT SWAP2 ADD AND ADD ADD SWAP1 JUMP JUMPDEST DUP2 DUP2 ADD DUP7 ADD MLOAD DUP5 DUP3 ADD PUSH1 0x40 ADD MSTORE DUP6 ADD PUSH2 0x1188 JUMP JUMPDEST PUSH1 0x4 CALLDATALOAD SWAP1 PUSH1 0x1 PUSH1 0x1 PUSH1 0xA0 SHL SUB DUP3 AND DUP3 SUB PUSH2 0x11D4 JUMPI JUMP JUMPDEST PUSH1 0x0 DUP1 REVERT JUMPDEST PUSH1 0x24 CALLDATALOAD SWAP1 PUSH1 0x1 PUSH1 0x1 PUSH1 0xA0 SHL SUB DUP3 AND DUP3 SUB PUSH2 0x11D4 JUMPI JUMP JUMPDEST PUSH1 0x24 CALLDATALOAD SWAP1 DUP2 ISZERO ISZERO DUP3 SUB PUSH2 0x11D4 JUMPI JUMP JUMPDEST PUSH1 0x4 CALLDATALOAD SWAP1 DUP2 ISZERO ISZERO DUP3 SUB PUSH2 0x11D4 JUMPI JUMP JUMPDEST SWAP1 PUSH1 0x1F DUP1 NOT SWAP2 ADD AND DUP2 ADD SWAP1 DUP2 LT PUSH8 0xFFFFFFFFFFFFFFFF DUP3 GT OR PUSH2 0x122F JUMPI PUSH1 0x40 MSTORE JUMP JUMPDEST PUSH4 0x4E487B71 PUSH1 0xE0 SHL PUSH1 0x0 MSTORE PUSH1 0x41 PUSH1 0x4 MSTORE PUSH1 0x24 PUSH1 0x0 REVERT JUMPDEST ISZERO PUSH2 0x124C JUMPI JUMP JUMPDEST PUSH1 0x40 MLOAD PUSH3 0x461BCD PUSH1 0xE5 SHL DUP2 MSTORE PUSH1 0x20 PUSH1 0x4 DUP3 ADD MSTORE PUSH1 0xF PUSH1 0x24 DUP3 ADD MSTORE PUSH15 0x496E76616C69642061646472657373 PUSH1 0x88 SHL PUSH1 0x44 DUP3 ADD MSTORE PUSH1 0x64 SWAP1 REVERT JUMPDEST ISZERO PUSH2 0x128A JUMPI JUMP JUMPDEST PUSH1 0x40 MLOAD PUSH3 0x461BCD PUSH1 0xE5 SHL DUP2 MSTORE PUSH1 0x20 PUSH1 0x4 DUP3 ADD MSTORE PUSH1 0x1D PUSH1 0x24 DUP3 ADD MSTORE PUSH32 0x416D6F756E74206D7573742062652067726561746572207468616E2030000000 PUSH1 0x44 DUP3 ADD MSTORE PUSH1 0x64 SWAP1 REVERT JUMPDEST ISZERO PUSH2 0x12D6 JUMPI JUMP JUMPDEST PUSH1 0x40 MLOAD PUSH3 0x461BCD PUSH1 0xE5 SHL DUP2 MSTORE PUSH1 0x20 PUSH1 0x4 DUP3 ADD MSTORE PUSH1 0x21 PUSH1 0x24 DUP3 ADD MSTORE PUSH32 0x416D6F756E742063616E6E6F742065786365656420746F74616C20737570706C PUSH1 0x44 DUP3 ADD MSTORE PUSH1 0x79 PUSH1 0xF8 SHL PUSH1 0x64 DUP3 ADD MSTORE PUSH1 0x84 SWAP1 REVERT JUMPDEST SWAP2 SWAP1 DUP3 ADD DUP1 SWAP3 GT PUSH2 0x1332 JUMPI JUMP JUMPDEST PUSH4 0x4E487B71 PUSH1 0xE0 SHL PUSH1 0x0 MSTORE PUSH1 0x11 PUSH1 0x4 MSTORE PUSH1 0x24 PUSH1 0x0 REVERT JUMPDEST PUSH1 0x1 PUSH1 0x1 PUSH1 0xA0 SHL SUB SWAP1 DUP2 AND SWAP2 DUP3 ISZERO PUSH2 0x13F9 JUMPI AND SWAP2 DUP3 ISZERO PUSH2 0x13A9 JUMPI PUSH1 0x20 PUSH32 0x8C5BE1E5EBEC7D5BD14F71427D1E84F3DD0314C0F7B2291E5B200AC8C7C3B925 SWAP2 DUP4 PUSH1 0x0 MSTORE PUSH1 0x1 DUP3 MSTORE PUSH1 0x40 PUSH1 0x0 KECCAK256 DUP6 PUSH1 0x0 MSTORE DUP3 MSTORE DUP1 PUSH1 0x40 PUSH1 0x0 KECCAK256 SSTORE PUSH1 0x40 MLOAD SWAP1 DUP2 MSTORE LOG3 JUMP JUMPDEST PUSH1 0x40 MLOAD PUSH3 0x461BCD PUSH1 0xE5 SHL DUP2 MSTORE PUSH1 0x20 PUSH1 0x4 DUP3 ADD MSTORE PUSH1 0x22 PUSH1 0x24 DUP3 ADD MSTORE PUSH32 0x45524332303A20617070726F766520746F20746865207A65726F206164647265 PUSH1 0x44 DUP3 ADD MSTORE PUSH2 0x7373 PUSH1 0xF0 SHL PUSH1 0x64 DUP3 ADD MSTORE PUSH1 0x84 SWAP1 REVERT JUMPDEST PUSH1 0x40 MLOAD PUSH3 0x461BCD PUSH1 0xE5 SHL DUP2 MSTORE PUSH1 0x20 PUSH1 0x4 DUP3 ADD MSTORE PUSH1 0x24 DUP1 DUP3 ADD MSTORE PUSH32 0x45524332303A20617070726F76652066726F6D20746865207A65726F20616464 PUSH1 0x44 DUP3 ADD MSTORE PUSH4 0x72657373 PUSH1 0xE0 SHL PUSH1 0x64 DUP3 ADD MSTORE PUSH1 0x84 SWAP1 REVERT JUMPDEST PUSH1 0x5 SLOAD PUSH1 0x1 PUSH1 0x1 PUSH1 0xA0 SHL SUB AND CALLER SUB PUSH2 0x145E JUMPI JUMP JUMPDEST PUSH1 0x64 PUSH1 0x40 MLOAD PUSH3 0x461BCD PUSH1 0xE5 SHL DUP2 MSTORE PUSH1 0x20 PUSH1 0x4 DUP3 ADD MSTORE PUSH1 0x20 PUSH1 0x24 DUP3 ADD MSTORE PUSH32 0x4F776E61626C653A2063616C6C6572206973206E6F7420746865206F776E6572 PUSH1 0x44 DUP3 ADD MSTORE REVERT JUMPDEST DUP2 DUP2 MUL SWAP3 SWAP2 DUP2 ISZERO SWAP2 DUP5 DIV EQ OR ISZERO PUSH2 0x1332 JUMPI JUMP JUMPDEST SWAP2 SWAP1 PUSH1 0x1 DUP1 PUSH1 0xA0 SHL SUB SWAP3 DUP4 DUP2 AND PUSH1 0x0 SWAP5 DUP2 DUP7 MSTORE PUSH1 0x20 SWAP1 PUSH1 0x14 DUP3 MSTORE PUSH1 0xFF PUSH1 0x40 SWAP4 DUP2 DUP6 DUP11 KECCAK256 SLOAD AND ISZERO DUP1 PUSH2 0x198B JUMPI JUMPDEST ISZERO PUSH2 0x1951 JUMPI DUP1 DUP10 MSTORE PUSH1 0x13 DUP5 MSTORE DUP2 DUP6 DUP11 KECCAK256 SLOAD AND DUP1 ISZERO PUSH2 0x1940 JUMPI JUMPDEST DUP1 ISZERO PUSH2 0x1923 JUMPI JUMPDEST PUSH2 0x1914 JUMPI DUP2 PUSH1 0x7 SLOAD AND DUP1 ISZERO PUSH2 0x1907 JUMPI JUMPDEST DUP1 ISZERO PUSH2 0x18F8 JUMPI JUMPDEST ISZERO PUSH2 0x18BE JUMPI PUSH1 0x8 SLOAD DUP1 PUSH2 0x1878 JUMPI JUMPDEST POP PUSH1 0x9 SLOAD DUP1 PUSH2 0x1828 JUMPI JUMPDEST POP PUSH1 0xA SLOAD DUP1 ISZERO ISZERO DUP1 PUSH2 0x1812 JUMPI JUMPDEST PUSH2 0x17AE JUMPI JUMPDEST POP DUP3 PUSH1 0xC SLOAD AND DUP1 DUP5 DUP10 AND EQ DUP1 ISZERO PUSH2 0x17A5 JUMPI JUMPDEST PUSH2 0x156B JUMPI JUMPDEST POP POP POP POP POP POP PUSH2 0x1569 SWAP4 POP PUSH2 0x199D JUMP JUMPDEST JUMP JUMPDEST DUP2 EQ DUP1 SWAP3 DUP2 SWAP4 PUSH2 0x1796 JUMPI JUMPDEST DUP2 ISZERO PUSH2 0x1776 JUMPI JUMPDEST POP PUSH2 0x1589 JUMPI JUMPDEST DUP1 PUSH2 0x1559 JUMP JUMPDEST PUSH1 0x64 PUSH2 0x1597 PUSH1 0xD SLOAD DUP11 PUSH2 0x14A2 JUMP JUMPDEST DIV PUSH1 0x64 PUSH2 0x15A6 PUSH1 0xE SLOAD DUP12 PUSH2 0x14A2 JUMP JUMPDEST DIV SWAP2 PUSH1 0x64 PUSH2 0x15B6 PUSH1 0xF SLOAD DUP13 PUSH2 0x14A2 JUMP JUMPDEST DIV SWAP6 PUSH2 0x15C6 DUP8 PUSH2 0x3F5 DUP7 DUP7 PUSH2 0x1325 JUMP JUMPDEST SWAP2 DUP3 PUSH2 0x15D5 JUMPI POP POP POP POP PUSH2 0x1583 JUMP JUMPDEST DUP13 SWAP12 SWAP5 SWAP7 SWAP10 SWAP8 SWAP11 SWAP4 SWAP6 SWAP9 SWAP12 MSTORE DUP12 DUP2 MSTORE DUP4 DUP12 DUP14 KECCAK256 SLOAD LT PUSH2 0x1729 JUMPI POP DUP3 SUB SWAP2 DUP3 GT PUSH2 0x1715 JUMPI SWAP1 PUSH2 0x1603 SWAP2 DUP6 PUSH2 0x199D JUMP JUMPDEST DUP1 PUSH2 0x1700 JUMPI JUMPDEST POP DUP1 PUSH2 0x16EB JUMPI JUMPDEST POP DUP4 PUSH2 0x161F JUMPI JUMPDEST POP POP POP POP POP POP JUMP JUMPDEST DUP4 PUSH2 0x162F SWAP2 DUP5 PUSH1 0x12 SLOAD AND SWAP1 PUSH2 0x199D JUMP JUMPDEST ISZERO DUP1 PUSH2 0x16BF JUMPI JUMPDEST PUSH2 0x1642 JUMPI JUMPDEST DUP1 DUP1 PUSH2 0x1617 JUMP JUMPDEST PUSH1 0x12 SLOAD AND SWAP1 DUP2 EXTCODESIZE ISZERO PUSH2 0x1171 JUMPI DUP4 SWAP2 PUSH1 0x44 DUP4 SWAP3 DUP6 MLOAD SWAP7 DUP8 SWAP4 DUP5 SWAP3 PUSH4 0xD3F2036B PUSH1 0xE0 SHL DUP5 MSTORE ADDRESS PUSH1 0x4 DUP6 ADD MSTORE PUSH1 0x1 SHR PUSH1 0x24 DUP5 ADD MSTORE GAS CALL DUP1 ISZERO PUSH2 0x16B3 JUMPI PUSH2 0x1686 JUMPI JUMPDEST DUP1 PUSH2 0x163B JUMP JUMPDEST PUSH8 0xFFFFFFFFFFFFFFFF DUP4 GT PUSH2 0x169F JUMPI POP MSTORE CODESIZE DUP1 DUP1 PUSH2 0x1680 JUMP JUMPDEST PUSH4 0x4E487B71 PUSH1 0xE0 SHL DUP2 MSTORE PUSH1 0x41 PUSH1 0x4 MSTORE PUSH1 0x24 SWAP1 REVERT JUMPDEST POP SWAP1 MLOAD SWAP1 RETURNDATASIZE SWAP1 DUP3 RETURNDATACOPY RETURNDATASIZE SWAP1 REVERT JUMPDEST POP PUSH2 0x3E8 PUSH2 0x16E4 DUP3 PUSH1 0x12 SLOAD AND PUSH1 0x1 DUP1 PUSH1 0xA0 SHL SUB AND PUSH1 0x0 MSTORE PUSH1 0x0 PUSH1 0x20 MSTORE PUSH1 0x40 PUSH1 0x0 KECCAK256 SLOAD SWAP1 JUMP JUMPDEST LT ISZERO PUSH2 0x1636 JUMP JUMPDEST PUSH2 0x16FA SWAP1 DUP5 PUSH1 0x11 SLOAD AND DUP4 PUSH2 0x199D JUMP JUMPDEST CODESIZE PUSH2 0x1610 JUMP JUMPDEST PUSH2 0x170F SWAP1 DUP6 PUSH1 0x10 SLOAD AND DUP5 PUSH2 0x199D JUMP JUMPDEST CODESIZE PUSH2 0x1609 JUMP JUMPDEST PUSH4 0x4E487B71 PUSH1 0xE0 SHL DUP11 MSTORE PUSH1 0x11 PUSH1 0x4 MSTORE PUSH1 0x24 DUP11 REVERT JUMPDEST PUSH1 0x84 SWAP1 DUP12 MLOAD SWAP1 PUSH3 0x461BCD PUSH1 0xE5 SHL DUP3 MSTORE PUSH1 0x4 DUP3 ADD MSTORE PUSH1 0x21 PUSH1 0x24 DUP3 ADD MSTORE PUSH32 0x496E73756666696369656E742062616C616E636520666F72207472616E736665 PUSH1 0x44 DUP3 ADD MSTORE PUSH1 0x39 PUSH1 0xF9 SHL PUSH1 0x64 DUP3 ADD MSTORE REVERT JUMPDEST DUP4 ISZERO SWAP2 POP DUP2 PUSH2 0x1787 JUMPI JUMPDEST POP CODESIZE PUSH2 0x157D JUMP JUMPDEST SWAP1 POP PUSH1 0x12 SLOAD PUSH1 0xA8 SHR AND CODESIZE PUSH2 0x1780 JUMP JUMPDEST PUSH1 0x12 SLOAD PUSH1 0xA0 SHR DUP2 AND SWAP2 POP PUSH2 0x1576 JUMP JUMPDEST POP DUP1 DUP3 EQ PUSH2 0x1554 JUMP JUMPDEST DUP4 DUP9 AND DUP11 MSTORE DUP10 DUP6 MSTORE PUSH2 0x17C3 DUP10 DUP8 DUP13 KECCAK256 SLOAD PUSH2 0x1325 JUMP JUMPDEST GT PUSH2 0x17CE JUMPI CODESIZE PUSH2 0x1542 JUMP JUMPDEST DUP5 MLOAD PUSH3 0x461BCD PUSH1 0xE5 SHL DUP2 MSTORE PUSH1 0x4 DUP2 ADD DUP6 SWAP1 MSTORE PUSH1 0x19 PUSH1 0x24 DUP3 ADD MSTORE PUSH32 0x45786365656473206D61782077616C6C657420616D6F756E7400000000000000 PUSH1 0x44 DUP3 ADD MSTORE PUSH1 0x64 SWAP1 REVERT JUMPDEST POP DUP4 DUP9 AND DUP11 MSTORE PUSH1 0x13 DUP6 MSTORE DUP3 DUP7 DUP12 KECCAK256 SLOAD AND ISZERO PUSH2 0x153D JUMP JUMPDEST DUP9 GT PUSH2 0x1834 JUMPI CODESIZE PUSH2 0x1530 JUMP JUMPDEST DUP5 MLOAD PUSH3 0x461BCD PUSH1 0xE5 SHL DUP2 MSTORE PUSH1 0x4 DUP2 ADD DUP6 SWAP1 MSTORE PUSH1 0x1E PUSH1 0x24 DUP3 ADD MSTORE PUSH32 0x45786365656473206D6178207472616E73616374696F6E20616D6F756E740000 PUSH1 0x44 DUP3 ADD MSTORE PUSH1 0x64 SWAP1 REVERT JUMPDEST TIMESTAMP LT PUSH2 0x1884 JUMPI CODESIZE PUSH2 0x1526 JUMP JUMPDEST DUP5 MLOAD PUSH3 0x461BCD PUSH1 0xE5 SHL DUP2 MSTORE PUSH1 0x4 DUP2 ADD DUP6 SWAP1 MSTORE PUSH1 0x13 PUSH1 0x24 DUP3 ADD MSTORE PUSH19 0x151C98591A5B99C81B9BDD081CDD185C9D1959 PUSH1 0x6A SHL PUSH1 0x44 DUP3 ADD MSTORE PUSH1 0x64 SWAP1 REVERT JUMPDEST DUP5 MLOAD PUSH3 0x461BCD PUSH1 0xE5 SHL DUP2 MSTORE PUSH1 0x4 DUP2 ADD DUP6 SWAP1 MSTORE PUSH1 0x13 PUSH1 0x24 DUP3 ADD MSTORE PUSH19 0x151C98591A5B99C81B9BDD08195B98589B1959 PUSH1 0x6A SHL PUSH1 0x44 DUP3 ADD MSTORE PUSH1 0x64 SWAP1 REVERT JUMPDEST POP DUP3 PUSH1 0x5 SLOAD AND DUP4 DUP9 AND EQ PUSH2 0x1518 JUMP JUMPDEST POP DUP3 PUSH1 0x5 SLOAD AND DUP2 EQ PUSH2 0x1511 JUMP JUMPDEST POP POP POP POP POP PUSH2 0x1569 SWAP4 POP PUSH2 0x199D JUMP JUMPDEST POP DUP3 PUSH1 0x5 SLOAD AND DUP2 EQ DUP1 ISZERO PUSH2 0x1501 JUMPI POP DUP3 PUSH1 0x12 SLOAD AND DUP4 DUP9 AND EQ PUSH2 0x1501 JUMP JUMPDEST POP DUP3 DUP8 AND DUP10 MSTORE DUP2 DUP6 DUP11 KECCAK256 SLOAD AND PUSH2 0x14FA JUMP JUMPDEST DUP5 MLOAD PUSH3 0x461BCD PUSH1 0xE5 SHL DUP2 MSTORE PUSH1 0x4 DUP2 ADD DUP6 SWAP1 MSTORE PUSH1 0x13 PUSH1 0x24 DUP3 ADD MSTORE PUSH19 0x426C61636B6C69737465642061646472657373 PUSH1 0x68 SHL PUSH1 0x44 DUP3 ADD MSTORE PUSH1 0x64 SWAP1 REVERT JUMPDEST POP DUP3 DUP8 AND DUP10 MSTORE DUP2 DUP6 DUP11 KECCAK256 SLOAD AND ISZERO PUSH2 0x14E1 JUMP JUMPDEST PUSH1 0x1 PUSH1 0x1 PUSH1 0xA0 SHL SUB SWAP1 DUP2 AND SWAP2 DUP3 ISZERO PUSH2 0x1AB8 JUMPI AND SWAP2 DUP3 ISZERO PUSH2 0x1A67 JUMPI PUSH1 0x0 DUP3 DUP2 MSTORE DUP1 PUSH1 0x20 MSTORE PUSH1 0x40 DUP2 KECCAK256 SLOAD SWAP2 DUP1 DUP4 LT PUSH2 0x1A13 JUMPI PUSH1 0x40 DUP3 DUP3 PUSH32 0xDDF252AD1BE2C89B69C2B068FC378DAA952BA7F163C4A11628F55A4DF523B3EF SWAP6 DUP8 PUSH1 0x20 SWAP7 MSTORE DUP3 DUP7 MSTORE SUB DUP3 DUP3 KECCAK256 SSTORE DUP7 DUP2 MSTORE KECCAK256 DUP2 DUP2 SLOAD ADD SWAP1 SSTORE PUSH1 0x40 MLOAD SWAP1 DUP2 MSTORE LOG3 JUMP JUMPDEST PUSH1 0x40 MLOAD PUSH3 0x461BCD PUSH1 0xE5 SHL DUP2 MSTORE PUSH1 0x20 PUSH1 0x4 DUP3 ADD MSTORE PUSH1 0x26 PUSH1 0x24 DUP3 ADD MSTORE PUSH32 0x45524332303A207472616E7366657220616D6F756E7420657863656564732062 PUSH1 0x44 DUP3 ADD MSTORE PUSH6 0x616C616E6365 PUSH1 0xD0 SHL PUSH1 0x64 DUP3 ADD MSTORE PUSH1 0x84 SWAP1 REVERT JUMPDEST PUSH1 0x40 MLOAD PUSH3 0x461BCD PUSH1 0xE5 SHL DUP2 MSTORE PUSH1 0x20 PUSH1 0x4 DUP3 ADD MSTORE PUSH1 0x23 PUSH1 0x24 DUP3 ADD MSTORE PUSH32 0x45524332303A207472616E7366657220746F20746865207A65726F2061646472 PUSH1 0x44 DUP3 ADD MSTORE PUSH3 0x657373 PUSH1 0xE8 SHL PUSH1 0x64 DUP3 ADD MSTORE PUSH1 0x84 SWAP1 REVERT JUMPDEST PUSH1 0x40 MLOAD PUSH3 0x461BCD PUSH1 0xE5 SHL DUP2 MSTORE PUSH1 0x20 PUSH1 0x4 DUP3 ADD MSTORE PUSH1 0x25 PUSH1 0x24 DUP3 ADD MSTORE PUSH32 0x45524332303A207472616E736665722066726F6D20746865207A65726F206164 PUSH1 0x44 DUP3 ADD MSTORE PUSH5 0x6472657373 PUSH1 0xD8 SHL PUSH1 0x64 DUP3 ADD MSTORE PUSH1 0x84 SWAP1 REVERT INVALID LOG2 PUSH5 0x6970667358 0x22 SLT KECCAK256 0xFC 0xDF 0xCD 0xB4 0x26 PUSH22 0xA673FAC17E00DF72106A54FD5EBDFA0D56D314B7044A 0xDD PUSH7 0xEB6364736F6C63 NUMBER STOP ADDMOD AND STOP CALLER LOG2 PUSH5 0x6970667358 0x22 SLT KECCAK256 CALLER PUSH9 0x7486FE0ACEB2A335B8 PC 0x2B 0xDB BALANCE PUSH0 SWAP7 SMOD DUP12 CALLDATALOAD 0xAD PUSH13 0x627910AC813F2ADFA1AD64736F PUSH13 0x63430008160033000000000000 "},"gasEstimates":{"creation":{"codeDepositCost":"3658800","executionCost":"infinite","totalCost":"infinite"},"external":{"VERSION()":"infinite","VERSION_HASH()":"infinite","addDEX(string,address)":"infinite","allTokens(uint256)":"6796","createToken((string,string,uint256,uint256,uint256,bool,uint256,uint256,address,uint256,address,uint256,bool,bool))":"infinite","dexRouters(string)":"infinite","getAllTokens()":"infinite","getDEXRouter(string)":"infinite","getListingFee()":"2629","getSupportedDEXes()":"infinite","getTokenInfo(address)":"infinite","isListed(address)":"2879","listTokenOnDEX(address,uint256,uint256,string)":"infinite","listingFee()":"2475","owner()":"2584","renounceOwnership()":"28299","setListingFee(uint256)":"24403","supportedDEXes(uint256)":"infinite","tokenInfo(address)":"infinite","transferOwnership(address)":"28548","updateDEX(string,address,bool)":"infinite","withdrawFees()":"infinite"}},"methodIdentifiers":{"VERSION()":"ffa1ad74","VERSION_HASH()":"9e4e7318","addDEX(string,address)":"96186770","allTokens(uint256)":"634282af","createToken((string,string,uint256,uint256,uint256,bool,uint256,uint256,address,uint256,address,uint256,bool,bool))":"5066a842","dexRouters(string)":"5e7ffa67","getAllTokens()":"2a5c792a","getDEXRouter(string)":"78e3399d","getListingFee()":"b8fe6abe","getSupportedDEXes()":"386e07bf","getTokenInfo(address)":"1f69565f","isListed(address)":"f794062e","listTokenOnDEX(address,uint256,uint256,string)":"81e090df","listingFee()":"6a1b7ecc","owner()":"8da5cb5b","renounceOwnership()":"715018a6","setListingFee(uint256)":"131dbd09","supportedDEXes(uint256)":"4caf81f5","tokenInfo(address)":"f5dab711","transferOwnership(address)":"f2fde38b","updateDEX(string,address,bool)":"24b2982f","withdrawFees()":"476343ee"}},"storageLayout":{"storage":[{"astId":7,"contract":"src/contracts/TokenFactory_v2_DirectDEX_TwoStep.sol:TokenFactory_v2_DirectDEX_TwoStep","label":"_owner","offset":0,"slot":"0","type":"t_address"},{"astId":123,"contract":"src/contracts/TokenFactory_v2_DirectDEX_TwoStep.sol:TokenFactory_v2_DirectDEX_TwoStep","label":"_status","offset":0,"slot":"1","type":"t_uint256"},{"astId":2409,"contract":"src/contracts/TokenFactory_v2_DirectDEX_TwoStep.sol:TokenFactory_v2_DirectDEX_TwoStep","label":"dexRouters","offset":0,"slot":"2","type":"t_mapping(t_string_memory_ptr,t_struct(DEXRouter)2353_storage)"},{"astId":2412,"contract":"src/contracts/TokenFactory_v2_DirectDEX_TwoStep.sol:TokenFactory_v2_DirectDEX_TwoStep","label":"supportedDEXes","offset":0,"slot":"3","type":"t_array(t_string_storage)dyn_storage"},{"astId":2417,"contract":"src/contracts/TokenFactory_v2_DirectDEX_TwoStep.sol:TokenFactory_v2_DirectDEX_TwoStep","label":"tokenInfo","offset":0,"slot":"4","type":"t_mapping(t_address,t_struct(TokenInfo)2404_storage)"},{"astId":2420,"contract":"src/contracts/TokenFactory_v2_DirectDEX_TwoStep.sol:TokenFactory_v2_DirectDEX_TwoStep","label":"allTokens","offset":0,"slot":"5","type":"t_array(t_address)dyn_storage"},{"astId":2422,"contract":"src/contracts/TokenFactory_v2_DirectDEX_TwoStep.sol:TokenFactory_v2_DirectDEX_TwoStep","label":"listingFee","offset":0,"slot":"6","type":"t_uint256"}],"types":{"t_address":{"encoding":"inplace","label":"address","numberOfBytes":"20"},"t_array(t_address)dyn_storage":{"base":"t_address","encoding":"dynamic_array","label":"address[]","numberOfBytes":"32"},"t_array(t_string_storage)dyn_storage":{"base":"t_string_storage","encoding":"dynamic_array","label":"string[]","numberOfBytes":"32"},"t_bool":{"encoding":"inplace","label":"bool","numberOfBytes":"1"},"t_mapping(t_address,t_struct(TokenInfo)2404_storage)":{"encoding":"mapping","key":"t_address","label":"mapping(address => struct TokenFactory_v2_DirectDEX_TwoStep.TokenInfo)","numberOfBytes":"32","value":"t_struct(TokenInfo)2404_storage"},"t_mapping(t_string_memory_ptr,t_struct(DEXRouter)2353_storage)":{"encoding":"mapping","key":"t_string_memory_ptr","label":"mapping(string => struct TokenFactory_v2_DirectDEX_TwoStep.DEXRouter)","numberOfBytes":"32","value":"t_struct(DEXRouter)2353_storage"},"t_string_memory_ptr":{"encoding":"bytes","label":"string","numberOfBytes":"32"},"t_string_storage":{"encoding":"bytes","label":"string","numberOfBytes":"32"},"t_struct(DEXRouter)2353_storage":{"encoding":"inplace","label":"struct TokenFactory_v2_DirectDEX_TwoStep.DEXRouter","members":[{"astId":2348,"contract":"src/contracts/TokenFactory_v2_DirectDEX_TwoStep.sol:TokenFactory_v2_DirectDEX_TwoStep","label":"name","offset":0,"slot":"0","type":"t_string_storage"},{"astId":2350,"contract":"src/contracts/TokenFactory_v2_DirectDEX_TwoStep.sol:TokenFactory_v2_DirectDEX_TwoStep","label":"router","offset":0,"slot":"1","type":"t_address"},{"astId":2352,"contract":"src/contracts/TokenFactory_v2_DirectDEX_TwoStep.sol:TokenFactory_v2_DirectDEX_TwoStep","label":"isActive","offset":20,"slot":"1","type":"t_bool"}],"numberOfBytes":"64"},"t_struct(TokenInfo)2404_storage":{"encoding":"inplace","label":"struct TokenFactory_v2_DirectDEX_TwoStep.TokenInfo","members":[{"astId":2393,"contract":"src/contracts/TokenFactory_v2_DirectDEX_TwoStep.sol:TokenFactory_v2_DirectDEX_TwoStep","label":"token","offset":0,"slot":"0","type":"t_address"},{"astId":2395,"contract":"src/contracts/TokenFactory_v2_DirectDEX_TwoStep.sol:TokenFactory_v2_DirectDEX_TwoStep","label":"owner","offset":0,"slot":"1","type":"t_address"},{"astId":2397,"contract":"src/contracts/TokenFactory_v2_DirectDEX_TwoStep.sol:TokenFactory_v2_DirectDEX_TwoStep","label":"isListed","offset":20,"slot":"1","type":"t_bool"},{"astId":2399,"contract":"src/contracts/TokenFactory_v2_DirectDEX_TwoStep.sol:TokenFactory_v2_DirectDEX_TwoStep","label":"dexName","offset":0,"slot":"2","type":"t_string_storage"},{"astId":2401,"contract":"src/contracts/TokenFactory_v2_DirectDEX_TwoStep.sol:TokenFactory_v2_DirectDEX_TwoStep","label":"creationTime","offset":0,"slot":"3","type":"t_uint256"},{"astId":2403,"contract":"src/contracts/TokenFactory_v2_DirectDEX_TwoStep.sol:TokenFactory_v2_DirectDEX_TwoStep","label":"listingTime","offset":0,"slot":"4","type":"t_uint256"}],"numberOfBytes":"160"},"t_uint256":{"encoding":"inplace","label":"uint256","numberOfBytes":"32"}}},"userdoc":{"kind":"user","methods":{},"version":1}}}}