{"src/contracts/TokenFactory_v2_Bake.sol":{"TokenFactory_v2_Bake":{"abi":[{"inputs":[{"internalType":"uint256","name":"_listingFee","type":"uint256"}],"stateMutability":"nonpayable","type":"constructor"},{"inputs":[{"internalType":"string","name":"dexName","type":"string"}],"name":"DEXNotAvailable","type":"error"},{"inputs":[{"internalType":"uint256","name":"required","type":"uint256"},{"internalType":"uint256","name":"provided","type":"uint256"}],"name":"InsufficientETH","type":"error"},{"inputs":[{"internalType":"uint256","name":"required","type":"uint256"},{"internalType":"uint256","name":"provided","type":"uint256"}],"name":"InsufficientTokenAllowance","type":"error"},{"inputs":[{"internalType":"address","name":"token","type":"address"},{"internalType":"uint256","name":"ethAmount","type":"uint256"},{"internalType":"uint256","name":"tokenAmount","type":"uint256"}],"name":"LiquidityAdditionFailed","type":"error"},{"inputs":[{"internalType":"address","name":"token","type":"address"},{"internalType":"address","name":"router","type":"address"}],"name":"PairCreationFailed","type":"error"},{"inputs":[{"internalType":"address","name":"token","type":"address"}],"name":"TokenAlreadyListed","type":"error"},{"anonymous":false,"inputs":[{"indexed":false,"internalType":"string","name":"name","type":"string"},{"indexed":false,"internalType":"address","name":"router","type":"address"}],"name":"DEXAdded","type":"event"},{"anonymous":false,"inputs":[{"indexed":false,"internalType":"string","name":"name","type":"string"},{"indexed":false,"internalType":"address","name":"router","type":"address"},{"indexed":false,"internalType":"bool","name":"isActive","type":"bool"}],"name":"DEXUpdated","type":"event"},{"anonymous":false,"inputs":[{"indexed":true,"internalType":"address","name":"previousOwner","type":"address"},{"indexed":true,"internalType":"address","name":"newOwner","type":"address"}],"name":"OwnershipTransferred","type":"event"},{"anonymous":false,"inputs":[{"indexed":true,"internalType":"address","name":"token","type":"address"},{"indexed":true,"internalType":"address","name":"owner","type":"address"},{"indexed":false,"internalType":"string","name":"dexName","type":"string"},{"indexed":false,"internalType":"uint256","name":"initialLiquidity","type":"uint256"},{"indexed":false,"internalType":"uint256","name":"listingPrice","type":"uint256"},{"indexed":false,"internalType":"uint256","name":"listingTime","type":"uint256"}],"name":"TokenListed","type":"event"},{"inputs":[],"name":"VERSION","outputs":[{"internalType":"string","name":"","type":"string"}],"stateMutability":"view","type":"function"},{"inputs":[{"internalType":"string","name":"name","type":"string"},{"internalType":"address","name":"router","type":"address"}],"name":"addDEX","outputs":[],"stateMutability":"nonpayable","type":"function"},{"inputs":[{"internalType":"string","name":"","type":"string"}],"name":"dexRouters","outputs":[{"internalType":"string","name":"name","type":"string"},{"internalType":"address","name":"router","type":"address"},{"internalType":"bool","name":"isActive","type":"bool"}],"stateMutability":"view","type":"function"},{"inputs":[{"internalType":"string","name":"dexName","type":"string"}],"name":"getDEXRouter","outputs":[{"components":[{"internalType":"string","name":"name","type":"string"},{"internalType":"address","name":"router","type":"address"},{"internalType":"bool","name":"isActive","type":"bool"}],"internalType":"struct TokenFactory_v2_Bake.DEXRouter","name":"","type":"tuple"}],"stateMutability":"view","type":"function"},{"inputs":[],"name":"getListedTokens","outputs":[{"internalType":"address[]","name":"","type":"address[]"}],"stateMutability":"view","type":"function"},{"inputs":[],"name":"getListingFee","outputs":[{"internalType":"uint256","name":"","type":"uint256"}],"stateMutability":"view","type":"function"},{"inputs":[],"name":"getSupportedDEXes","outputs":[{"internalType":"string[]","name":"","type":"string[]"}],"stateMutability":"view","type":"function"},{"inputs":[{"internalType":"address","name":"token","type":"address"}],"name":"getTokenInfo","outputs":[{"components":[{"internalType":"address","name":"token","type":"address"},{"internalType":"address","name":"owner","type":"address"},{"internalType":"bool","name":"isListed","type":"bool"},{"internalType":"string","name":"dexName","type":"string"},{"internalType":"uint256","name":"listingTime","type":"uint256"}],"internalType":"struct TokenFactory_v2_Bake.TokenInfo","name":"","type":"tuple"}],"stateMutability":"view","type":"function"},{"inputs":[{"internalType":"address","name":"token","type":"address"}],"name":"isListed","outputs":[{"internalType":"bool","name":"","type":"bool"}],"stateMutability":"view","type":"function"},{"inputs":[{"internalType":"address","name":"tokenAddress","type":"address"},{"internalType":"uint256","name":"initialLiquidityInETH","type":"uint256"},{"internalType":"uint256","name":"listingPriceInETH","type":"uint256"},{"internalType":"string","name":"dexName","type":"string"}],"name":"listTokenOnDEX","outputs":[],"stateMutability":"payable","type":"function"},{"inputs":[{"internalType":"uint256","name":"","type":"uint256"}],"name":"listedTokens","outputs":[{"internalType":"address","name":"","type":"address"}],"stateMutability":"view","type":"function"},{"inputs":[],"name":"listingFee","outputs":[{"internalType":"uint256","name":"","type":"uint256"}],"stateMutability":"view","type":"function"},{"inputs":[],"name":"owner","outputs":[{"internalType":"address","name":"","type":"address"}],"stateMutability":"view","type":"function"},{"inputs":[],"name":"renounceOwnership","outputs":[],"stateMutability":"nonpayable","type":"function"},{"inputs":[{"internalType":"uint256","name":"_newFee","type":"uint256"}],"name":"setListingFee","outputs":[],"stateMutability":"nonpayable","type":"function"},{"inputs":[{"internalType":"uint256","name":"","type":"uint256"}],"name":"supportedDEXes","outputs":[{"internalType":"string","name":"","type":"string"}],"stateMutability":"view","type":"function"},{"inputs":[{"internalType":"address","name":"","type":"address"}],"name":"tokenInfo","outputs":[{"internalType":"address","name":"token","type":"address"},{"internalType":"address","name":"owner","type":"address"},{"internalType":"bool","name":"isListed","type":"bool"},{"internalType":"string","name":"dexName","type":"string"},{"internalType":"uint256","name":"listingTime","type":"uint256"}],"stateMutability":"view","type":"function"},{"inputs":[{"internalType":"address","name":"newOwner","type":"address"}],"name":"transferOwnership","outputs":[],"stateMutability":"nonpayable","type":"function"},{"inputs":[{"internalType":"string","name":"name","type":"string"},{"internalType":"address","name":"router","type":"address"},{"internalType":"bool","name":"isActive","type":"bool"}],"name":"updateDEX","outputs":[],"stateMutability":"nonpayable","type":"function"},{"inputs":[],"name":"withdrawFees","outputs":[],"stateMutability":"nonpayable","type":"function"}],"devdoc":{"kind":"dev","methods":{"owner()":{"details":"Returns the address of the current owner."},"renounceOwnership()":{"details":"Leaves the contract without owner. It will not be possible to call `onlyOwner` functions. Can only be called by the current owner. NOTE: Renouncing ownership will leave the contract without an owner, thereby disabling any functionality that is only available to the owner."},"transferOwnership(address)":{"details":"Transfers ownership of the contract to a new account (`newOwner`). Can only be called by the current owner."}},"version":1},"evm":{"bytecode":{"linkReferences":{},"object":"60803461009b57601f611cfd38819003918201601f19168301916001600160401b038311848410176100a05780849260209460405283398101031261009b575160008054336001600160a01b0319821681178355604051939290916001600160a01b0316907f8be0079c531659141344cd1fd0a4f28419497f9722a3daafe3b4186f6b6457e09080a360018055600655611c4690816100b78239f35b600080fd5b634e487b7160e01b600052604160045260246000fdfe60a0604052600436101561001257600080fd5b6000803560e01c8063131dbd091461180b5780631f69565f1461172657806324b2982f146114b65780632ba996a5146113f0578063386e07bf146112eb578063476343ee1461129c5780634caf81f5146112395780635a9d1ac3146111f55780635e7ffa671461114a5780636a1b7ecc14610300578063715018a6146110f057806378e3399d1461102057806381e090df146106d85780638da5cb5b146106b1578063961867701461031e578063b8fe6abe14610300578063f2fde38b1461023a578063f5dab711146101b3578063f794062e1461016d5763ffa1ad74146100f957600080fd5b3461016a578060031936011261016a5760405160408101908082106001600160401b03831117610154576101509160405260058152640322e302e360dc1b6020820152604051918291602083526020830190611882565b0390f35b634e487b7160e01b600052604160045260246000fd5b80fd5b503461016a57602036600319011261016a5760209060ff906001906040906001600160a01b0361019b61182e565b1681526004855220015460a01c166040519015158152f35b503461016a57602036600319011261016a576001600160a01b0390604090826101da61182e565b168152600460205220818154169061023060018201549160ff6003610201600284016119fc565b9201549360405196879687528116602087015260a01c161515604085015260a0606085015260a0840190611882565b9060808301520390f35b503461016a57602036600319011261016a5761025461182e565b61025c611bb8565b6001600160a01b039081169081156102ac57600054826001600160601b0360a01b821617600055167f8be0079c531659141344cd1fd0a4f28419497f9722a3daafe3b4186f6b6457e0600080a380f35b60405162461bcd60e51b815260206004820152602660248201527f4f776e61626c653a206e6577206f776e657220697320746865207a65726f206160448201526564647265737360d01b6064820152608490fd5b503461016a578060031936011261016a576020600654604051908152f35b503461016a57604036600319011261016a576001600160401b036004358181116106ad576103509036906004016118a7565b929061035a611849565b93610363611bb8565b6040518183823760028183019081526001608081905290829003602090810190922001546001600160a01b0390811661067357604051966103a3886119ad565b6103ae368587611aa1565b8852818389019116918282526040890190608051825260405186888237858188810160028152030190209951998a518a811161065f576103f8816103f28454611958565b84611ae7565b86601f82116001146105f3579080610430928c9d9e61046a999a9b9c9d926105e8575b50508160011b916000199060031b1c19161790565b81555b608051019251166001600160601b0360a01b83541617825551151581549060ff60a01b90151560a01b169060ff60a01b1916179055565b600354600160401b8110156105d45761048a9060805181016003556118d4565b9690966105c05783116105ac576104ab836104a58854611958565b88611ae7565b8495601f841160011461052a576104fb848088997fdc80caac0fc930b05b1b5c1f27f1b45d60b2fa42a563cfaa28619f76da9efccc999161051f575b508160011b916000199060031b1c19161790565b90555b610515604051948594604086526040860191611b3d565b918301520390a180f35b9050870135386104e7565b808652828620601f19851697875b8981106105945750857fdc80caac0fc930b05b1b5c1f27f1b45d60b2fa42a563cfaa28619f76da9efccc98991061057a575b505060805184811b0190556104fe565b860135600019600387901b60f8161c19169055388061056a565b9091858091848a013581556080510193019101610538565b634e487b7160e01b85526041600452602485fd5b634e487b7160e01b86526004869052602486fd5b634e487b7160e01b86526041600452602486fd5b01519050388061041b565b828b52878b2090601f1983168c5b81811061064757509d8361046a999a9b9c9d9e9f1061062e575b505050608051906080511b018155610433565b015160001960f88460031b161c1916905538808061061b565b8f830151845560805190930192918a01918a01610601565b634e487b7160e01b8a52604160045260248afd5b60405162461bcd60e51b815260048101839052601260248201527144455820616c72656164792065786973747360701b6044820152606490fd5b8280fd5b503461016a578060031936011261016a57546040516001600160a01b039091168152602090f35b50608036600319011261016a576106ed61182e565b6064356001600160401b0381116106ad5761070c9036906004016118a7565b600260019492945414610fdb57600260019081556001600160a01b0384168352600460205260408320015460a01c60ff16610fba5760065461075081602435611b5e565b3410610f92575060ff6001604051838782376020818581016002815203019020015460a01c1615610f6c57604051638da5cb5b60e01b81526020816004816001600160a01b0388165afa908115610f61578391610f42575b50336001600160a01b0390911603610f0b576040518185823760028183019081528190036020908101909120600101546040516318160ddd60e01b815295916001600160a01b03918216918790600490829089165afa958615610f00578496610ecc575b5085601481020460141486151715610d3857604051636eb1769f60e11b81523360048201523060248201526020816044816001600160a01b038a165afa908115610d7b578591610e9a575b50606460148802048110610e7657506040516323b872dd60e01b81523360048201523060248201526064601488028190046044830152602090829081886001600160a01b038b165af18015610d7b57610e57575b5060405163c45a015560e01b8152602081600481855afa908115610d7b578591610e38575b506040516315ab88c960e31b8152602081600481865afa908115610db1578692602092610933928591610e1b575b506040516364e329cb60e11b81526001600160a01b03808c166004830152909116602482015293849283919082906044820190565b03926001600160a01b03165af1908115610d7b578591610dec575b506001600160a01b03168015610dbc576001600160a01b0386163b15610d9a5760405163c0d7865560e01b8152600481018390528581602481836001600160a01b038c165af18015610db157610d9e575b506001600160a01b0386163b15610d9a576040516340c3fa8b60e11b815260048101919091528481602481836001600160a01b038b165af18015610d7b57908591610d86575b505060405163095ea7b360e01b815260048101829052606460148802046024820152602081604481886001600160a01b038b165af18015610d7b57610d4c575b5061012c42014211610d3857606060c4916040519283809263f305d71960e01b825260018060a01b038a166004830152606460148c0204602483015288604483015288606483015230608483015261012c420160a4830152602435905af19081610d09575b50610ac457604051630baff61160e21b81526001600160a01b03851660048201526024803590820152606460148702819004604483015290fd5b604093929351610ad381611992565b6001600160a01b038416815233602082019081526001604083019081529190610b6a610b00368787611aa1565b606084019081524260808501526001600160a01b038881168a52600460205260408a20855181546001600160a01b031916908316178155935160018501805497516001600160a81b0319909816919092161795151560a01b60ff60a01b1695909517909455909290565b518051906001600160401b038211610cf557610b9682610b8d6002870154611958565b60028701611ae7565b602090601f8311600114610c84578260809360039593610bcb938c92610c795750508160011b916000199060031b1c19161790565b60028501555b0151910155600554600160401b8110156105ac577f52b537b7efd09a072d62379791a3f242c784095aa9e11dbba910b624ecec68b891610c1a826001610c4a9401600555611921565b81546001600160a01b0388811660039390931b92831b921b19161790556040516080808252909490850191611b3d565b6024356020840152604435604084015242606084015233936001600160a01b0316929081900390a36001805580f35b015190508b8061041b565b906002850189526020892091895b601f1985168110610cdd5750926003949260019260809583601f19811610610cc5575b505050811b016002850155610bd1565b015160001983881b60f8161c191690558a8080610cb5565b91926020600181928685015181550194019201610c92565b634e487b7160e01b88526041600452602488fd5b606090813d8311610d31575b610d1f81836119db565b81010312610d2d5738610a8a565b8380fd5b503d610d15565b634e487b7160e01b84526011600452602484fd5b610d6d9060203d602011610d74575b610d6581836119db565b810190611ba0565b5038610a25565b503d610d5b565b6040513d87823e3d90fd5b610d8f906119c8565b610d2d5783386109e5565b8480fd5b610daa909591956119c8565b933861099f565b6040513d88823e3d90fd5b50604051634fe1e92b60e11b81526001600160a01b038681166004830152919091166024820152604490fd5b0390fd5b610e0e915060203d602011610e14575b610e0681836119db565b810190611b81565b3861094e565b503d610dfc565b610e329150843d8611610e1457610e0681836119db565b386108fe565b610e51915060203d602011610e1457610e0681836119db565b386108d0565b610e6f9060203d602011610d7457610d6581836119db565b50386108ab565b86604491606460146040519363dc98d7bb60e01b8552020460048301526024820152fd5b90506020813d602011610ec4575b81610eb5602093836119db565b81010312610d9a575138610857565b3d9150610ea8565b9095506020813d602011610ef8575b81610ee8602093836119db565b81010312610d2d5751943861080c565b3d9150610edb565b6040513d86823e3d90fd5b60405162461bcd60e51b815260206004820152600f60248201526e2737ba103a37b5b2b71037bbb732b960891b6044820152606490fd5b610f5b915060203d602011610e1457610e0681836119db565b386107a8565b6040513d85823e3d90fd5b6040516379370a7560e01b815260206004820152908190610de890602483019087611b3d565b610fa0604491602435611b5e565b6040519062fdf57560e51b82526004820152346024820152fd5b604051633fb6e97160e01b81526001600160a01b0384166004820152602490fd5b60405162461bcd60e51b815260206004820152601f60248201527f5265656e7472616e637947756172643a207265656e7472616e742063616c6c006044820152606490fd5b503461016a576020806003193601126110ec576004356001600160401b0381116106ad57918161105660609436906004016118a7565b9260408051611064816119ad565b878152828582015201528260405193849283378101600281520301902090600160405192611091846119ad565b61109a816119fc565b8452015460018060a01b036110d883850193828416855260ff604087019460a01c161515845260405196879682885251918701526080860190611882565b925116604084015251151560608301520390f35b5080fd5b503461016a578060031936011261016a57611109611bb8565b80546001600160a01b03198116825581906001600160a01b03167f8be0079c531659141344cd1fd0a4f28419497f9722a3daafe3b4186f6b6457e08280a380f35b503461016a57602036600319011261016a57600435906001600160401b03821161016a573660238301121561016a576111d46111a6602061119336600487013560248801611aa1565b816040519382858094519384920161185f565b8101600281520301902060016111bb826119fc565b91015460ff604051938493606085526060850190611882565b6001600160a01b038316602085015260a09290921c16151560408301520390f35b503461016a57602036600319011261016a576004359060055482101561016a57602061122083611921565b905460405160039290921b1c6001600160a01b03168152f35b503461016a57602036600319011261016a576004356003548110156110ec57611261906118d4565b91909161128857610150611274836119fc565b604051918291602083526020830190611882565b634e487b7160e01b81526004819052602490fd5b503461016a578060031936011261016a576112b5611bb8565b8080808060018060a01b0381541647908282156112e2575bf1156112d65780f35b604051903d90823e3d90fd5b506108fc6112cd565b503461016a578060031936011261016a576003546001600160401b0381116113dc579060209160405191611324848360051b01846119db565b8183526003815283830191817fc2575a0e9e593c00f959f8c92f12db2869c3395a3b0502d05e2516446f71f85b845b8383106113b85750505050604051928484019085855251809152604084019460408260051b8601019392955b82871061138c5785850386f35b9091929382806113a8600193603f198a82030186528851611882565b960192019601959291909261137f565b60018881926113ca859b9a989b6119fc565b81520192019201919096939596611353565b634e487b7160e01b82526041600452602482fd5b503461016a578060031936011261016a5760405180916005549081835260208093018092600583527f036b6384b5eca791c62761152d0c79bb0604c104a5fb6f4eb0703f3154bb3db090835b81811061149957505050846114529103856119db565b60405193838594850191818652518092526040850193925b82811061147957505050500390f35b83516001600160a01b03168552869550938101939281019260010161146a565b82546001600160a01b03168452928601926001928301920161143c565b503461016a57606036600319011261016a576001600160401b03906004358281116110ec576114e99036906004016118a7565b6114f1611849565b93604435801515809103610d9a57611507611bb8565b6040519183858437838301966002885260018060a01b0380600186819b602098899103019020015416156116f157604051611541816119ad565b61154c36888a611aa1565b815281868201931693848452604082019a868c52604051898b823788818b81016002815203019020925180519283116116dd576115938361158d8654611958565b86611ae7565b8891601f841160011461164d5750926115f0836116279796948e9f96947ffcc670ef83a2ab18fa316fd1535402582ad1c325995f34b0f96faeb21d0ef9eb9f95600196926105e85750508160011b916000199060031b1c19161790565b81555b019251166001600160601b0360a01b83541617825551151581549060ff60a01b90151560a01b169060ff60a01b1916179055565b61163e604051958695606087526060870191611b3d565b9284015260408301520390a180f35b848d52898d20929190601f198516908e905b8282106116c6575050936001937ffcc670ef83a2ab18fa316fd1535402582ad1c325995f34b0f96faeb21d0ef9eb9e9f96938593836116279b9a98106116ad575b505050811b0181556115f3565b015160001960f88460031b161c191690553880806116a0565b83850151865594850194938c0193908c019061165f565b634e487b7160e01b8c52604160045260248cfd5b60405162461bcd60e51b815260048101869052600d60248201526c111156081b9bdd08199bdd5b99609a1b6044820152606490fd5b503461016a576020806003193601126110ec57604061174361182e565b92806080835161175281611992565b82815285810183905284810183905260608082015201526001600160a01b039384168152600483522060405191906118009061178d84611992565b848154168452600181015485848601818316815260ff604088019360a01c161515835260036117be600286016119fc565b946060890195865201549560808801968752604051988998828a525116908801525116604086015251151560608501525160a0608085015260c0840190611882565b905160a08301520390f35b503461016a57602036600319011261016a57611825611bb8565b60043560065580f35b600435906001600160a01b038216820361184457565b600080fd5b602435906001600160a01b038216820361184457565b60005b8381106118725750506000910152565b8181015183820152602001611862565b9060209161189b8151809281855285808601910161185f565b601f01601f1916010190565b9181601f84011215611844578235916001600160401b038311611844576020838186019501011161184457565b60035481101561190b5760036000527fc2575a0e9e593c00f959f8c92f12db2869c3395a3b0502d05e2516446f71f85b0190600090565b634e487b7160e01b600052603260045260246000fd5b60055481101561190b5760056000527f036b6384b5eca791c62761152d0c79bb0604c104a5fb6f4eb0703f3154bb3db00190600090565b90600182811c92168015611988575b602083101461197257565b634e487b7160e01b600052602260045260246000fd5b91607f1691611967565b60a081019081106001600160401b0382111761015457604052565b606081019081106001600160401b0382111761015457604052565b6001600160401b03811161015457604052565b90601f801991011681019081106001600160401b0382111761015457604052565b90604051918260008254611a0f81611958565b90818452602094600191600181169081600014611a7f5750600114611a40575b505050611a3e925003836119db565b565b600090815285812095935091905b818310611a67575050611a3e9350820101388080611a2f565b85548884018501529485019487945091830191611a4e565b92505050611a3e94925060ff191682840152151560051b820101388080611a2f565b9291926001600160401b0382116101545760405191611aca601f8201601f1916602001846119db565b829481845281830111611844578281602093846000960137010152565b90601f8111611af557505050565b6000916000526020600020906020601f850160051c83019410611b33575b601f0160051c01915b828110611b2857505050565b818155600101611b1c565b9092508290611b13565b908060209392818452848401376000828201840152601f01601f1916010190565b91908201809211611b6b57565b634e487b7160e01b600052601160045260246000fd5b9081602091031261184457516001600160a01b03811681036118445790565b90816020910312611844575180151581036118445790565b6000546001600160a01b03163303611bcc57565b606460405162461bcd60e51b815260206004820152602060248201527f4f776e61626c653a2063616c6c6572206973206e6f7420746865206f776e65726044820152fdfea2646970667358221220b901624017c381bc8a0431c08bcd2fc7c1e5efccb1df37f53e925ebf0eaa4c8264736f6c63430008160033","opcodes":"PUSH1 0x80 CALLVALUE PUSH2 0x9B JUMPI PUSH1 0x1F PUSH2 0x1CFD CODESIZE DUP2 SWAP1 SUB SWAP2 DUP3 ADD PUSH1 0x1F NOT AND DUP4 ADD SWAP2 PUSH1 0x1 PUSH1 0x1 PUSH1 0x40 SHL SUB DUP4 GT DUP5 DUP5 LT OR PUSH2 0xA0 JUMPI DUP1 DUP5 SWAP3 PUSH1 0x20 SWAP5 PUSH1 0x40 MSTORE DUP4 CODECOPY DUP2 ADD SUB SLT PUSH2 0x9B JUMPI MLOAD PUSH1 0x0 DUP1 SLOAD CALLER PUSH1 0x1 PUSH1 0x1 PUSH1 0xA0 SHL SUB NOT DUP3 AND DUP2 OR DUP4 SSTORE PUSH1 0x40 MLOAD SWAP4 SWAP3 SWAP1 SWAP2 PUSH1 0x1 PUSH1 0x1 PUSH1 0xA0 SHL SUB AND SWAP1 PUSH32 0x8BE0079C531659141344CD1FD0A4F28419497F9722A3DAAFE3B4186F6B6457E0 SWAP1 DUP1 LOG3 PUSH1 0x1 DUP1 SSTORE PUSH1 0x6 SSTORE PUSH2 0x1C46 SWAP1 DUP2 PUSH2 0xB7 DUP3 CODECOPY RETURN JUMPDEST PUSH1 0x0 DUP1 REVERT JUMPDEST PUSH4 0x4E487B71 PUSH1 0xE0 SHL PUSH1 0x0 MSTORE PUSH1 0x41 PUSH1 0x4 MSTORE PUSH1 0x24 PUSH1 0x0 REVERT INVALID PUSH1 0xA0 PUSH1 0x40 MSTORE PUSH1 0x4 CALLDATASIZE LT ISZERO PUSH2 0x12 JUMPI PUSH1 0x0 DUP1 REVERT JUMPDEST PUSH1 0x0 DUP1 CALLDATALOAD PUSH1 0xE0 SHR DUP1 PUSH4 0x131DBD09 EQ PUSH2 0x180B JUMPI DUP1 PUSH4 0x1F69565F EQ PUSH2 0x1726 JUMPI DUP1 PUSH4 0x24B2982F EQ PUSH2 0x14B6 JUMPI DUP1 PUSH4 0x2BA996A5 EQ PUSH2 0x13F0 JUMPI DUP1 PUSH4 0x386E07BF EQ PUSH2 0x12EB JUMPI DUP1 PUSH4 0x476343EE EQ PUSH2 0x129C JUMPI DUP1 PUSH4 0x4CAF81F5 EQ PUSH2 0x1239 JUMPI DUP1 PUSH4 0x5A9D1AC3 EQ PUSH2 0x11F5 JUMPI DUP1 PUSH4 0x5E7FFA67 EQ PUSH2 0x114A JUMPI DUP1 PUSH4 0x6A1B7ECC EQ PUSH2 0x300 JUMPI DUP1 PUSH4 0x715018A6 EQ PUSH2 0x10F0 JUMPI DUP1 PUSH4 0x78E3399D EQ PUSH2 0x1020 JUMPI DUP1 PUSH4 0x81E090DF EQ PUSH2 0x6D8 JUMPI DUP1 PUSH4 0x8DA5CB5B EQ PUSH2 0x6B1 JUMPI DUP1 PUSH4 0x96186770 EQ PUSH2 0x31E JUMPI DUP1 PUSH4 0xB8FE6ABE EQ PUSH2 0x300 JUMPI DUP1 PUSH4 0xF2FDE38B EQ PUSH2 0x23A JUMPI DUP1 PUSH4 0xF5DAB711 EQ PUSH2 0x1B3 JUMPI DUP1 PUSH4 0xF794062E EQ PUSH2 0x16D JUMPI PUSH4 0xFFA1AD74 EQ PUSH2 0xF9 JUMPI PUSH1 0x0 DUP1 REVERT JUMPDEST CALLVALUE PUSH2 0x16A JUMPI DUP1 PUSH1 0x3 NOT CALLDATASIZE ADD SLT PUSH2 0x16A JUMPI PUSH1 0x40 MLOAD PUSH1 0x40 DUP2 ADD SWAP1 DUP1 DUP3 LT PUSH1 0x1 PUSH1 0x1 PUSH1 0x40 SHL SUB DUP4 GT OR PUSH2 0x154 JUMPI PUSH2 0x150 SWAP2 PUSH1 0x40 MSTORE PUSH1 0x5 DUP2 MSTORE PUSH5 0x322E302E3 PUSH1 0xDC SHL PUSH1 0x20 DUP3 ADD MSTORE PUSH1 0x40 MLOAD SWAP2 DUP3 SWAP2 PUSH1 0x20 DUP4 MSTORE PUSH1 0x20 DUP4 ADD SWAP1 PUSH2 0x1882 JUMP JUMPDEST SUB SWAP1 RETURN JUMPDEST PUSH4 0x4E487B71 PUSH1 0xE0 SHL PUSH1 0x0 MSTORE PUSH1 0x41 PUSH1 0x4 MSTORE PUSH1 0x24 PUSH1 0x0 REVERT JUMPDEST DUP1 REVERT JUMPDEST POP CALLVALUE PUSH2 0x16A JUMPI PUSH1 0x20 CALLDATASIZE PUSH1 0x3 NOT ADD SLT PUSH2 0x16A JUMPI PUSH1 0x20 SWAP1 PUSH1 0xFF SWAP1 PUSH1 0x1 SWAP1 PUSH1 0x40 SWAP1 PUSH1 0x1 PUSH1 0x1 PUSH1 0xA0 SHL SUB PUSH2 0x19B PUSH2 0x182E JUMP JUMPDEST AND DUP2 MSTORE PUSH1 0x4 DUP6 MSTORE KECCAK256 ADD SLOAD PUSH1 0xA0 SHR AND PUSH1 0x40 MLOAD SWAP1 ISZERO ISZERO DUP2 MSTORE RETURN JUMPDEST POP CALLVALUE PUSH2 0x16A JUMPI PUSH1 0x20 CALLDATASIZE PUSH1 0x3 NOT ADD SLT PUSH2 0x16A JUMPI PUSH1 0x1 PUSH1 0x1 PUSH1 0xA0 SHL SUB SWAP1 PUSH1 0x40 SWAP1 DUP3 PUSH2 0x1DA PUSH2 0x182E JUMP JUMPDEST AND DUP2 MSTORE PUSH1 0x4 PUSH1 0x20 MSTORE KECCAK256 DUP2 DUP2 SLOAD AND SWAP1 PUSH2 0x230 PUSH1 0x1 DUP3 ADD SLOAD SWAP2 PUSH1 0xFF PUSH1 0x3 PUSH2 0x201 PUSH1 0x2 DUP5 ADD PUSH2 0x19FC JUMP JUMPDEST SWAP3 ADD SLOAD SWAP4 PUSH1 0x40 MLOAD SWAP7 DUP8 SWAP7 DUP8 MSTORE DUP2 AND PUSH1 0x20 DUP8 ADD MSTORE PUSH1 0xA0 SHR AND ISZERO ISZERO PUSH1 0x40 DUP6 ADD MSTORE PUSH1 0xA0 PUSH1 0x60 DUP6 ADD MSTORE PUSH1 0xA0 DUP5 ADD SWAP1 PUSH2 0x1882 JUMP JUMPDEST SWAP1 PUSH1 0x80 DUP4 ADD MSTORE SUB SWAP1 RETURN JUMPDEST POP CALLVALUE PUSH2 0x16A JUMPI PUSH1 0x20 CALLDATASIZE PUSH1 0x3 NOT ADD SLT PUSH2 0x16A JUMPI PUSH2 0x254 PUSH2 0x182E JUMP JUMPDEST PUSH2 0x25C PUSH2 0x1BB8 JUMP JUMPDEST PUSH1 0x1 PUSH1 0x1 PUSH1 0xA0 SHL SUB SWAP1 DUP2 AND SWAP1 DUP2 ISZERO PUSH2 0x2AC JUMPI PUSH1 0x0 SLOAD DUP3 PUSH1 0x1 PUSH1 0x1 PUSH1 0x60 SHL SUB PUSH1 0xA0 SHL DUP3 AND OR PUSH1 0x0 SSTORE AND PUSH32 0x8BE0079C531659141344CD1FD0A4F28419497F9722A3DAAFE3B4186F6B6457E0 PUSH1 0x0 DUP1 LOG3 DUP1 RETURN JUMPDEST PUSH1 0x40 MLOAD PUSH3 0x461BCD PUSH1 0xE5 SHL DUP2 MSTORE PUSH1 0x20 PUSH1 0x4 DUP3 ADD MSTORE PUSH1 0x26 PUSH1 0x24 DUP3 ADD MSTORE PUSH32 0x4F776E61626C653A206E6577206F776E657220697320746865207A65726F2061 PUSH1 0x44 DUP3 ADD MSTORE PUSH6 0x646472657373 PUSH1 0xD0 SHL PUSH1 0x64 DUP3 ADD MSTORE PUSH1 0x84 SWAP1 REVERT JUMPDEST POP CALLVALUE PUSH2 0x16A JUMPI DUP1 PUSH1 0x3 NOT CALLDATASIZE ADD SLT PUSH2 0x16A JUMPI PUSH1 0x20 PUSH1 0x6 SLOAD PUSH1 0x40 MLOAD SWAP1 DUP2 MSTORE RETURN JUMPDEST POP CALLVALUE PUSH2 0x16A JUMPI PUSH1 0x40 CALLDATASIZE PUSH1 0x3 NOT ADD SLT PUSH2 0x16A JUMPI PUSH1 0x1 PUSH1 0x1 PUSH1 0x40 SHL SUB PUSH1 0x4 CALLDATALOAD DUP2 DUP2 GT PUSH2 0x6AD JUMPI PUSH2 0x350 SWAP1 CALLDATASIZE SWAP1 PUSH1 0x4 ADD PUSH2 0x18A7 JUMP JUMPDEST SWAP3 SWAP1 PUSH2 0x35A PUSH2 0x1849 JUMP JUMPDEST SWAP4 PUSH2 0x363 PUSH2 0x1BB8 JUMP JUMPDEST PUSH1 0x40 MLOAD DUP2 DUP4 DUP3 CALLDATACOPY PUSH1 0x2 DUP2 DUP4 ADD SWAP1 DUP2 MSTORE PUSH1 0x1 PUSH1 0x80 DUP2 SWAP1 MSTORE SWAP1 DUP3 SWAP1 SUB PUSH1 0x20 SWAP1 DUP2 ADD SWAP1 SWAP3 KECCAK256 ADD SLOAD PUSH1 0x1 PUSH1 0x1 PUSH1 0xA0 SHL SUB SWAP1 DUP2 AND PUSH2 0x673 JUMPI PUSH1 0x40 MLOAD SWAP7 PUSH2 0x3A3 DUP9 PUSH2 0x19AD JUMP JUMPDEST PUSH2 0x3AE CALLDATASIZE DUP6 DUP8 PUSH2 0x1AA1 JUMP JUMPDEST DUP9 MSTORE DUP2 DUP4 DUP10 ADD SWAP2 AND SWAP2 DUP3 DUP3 MSTORE PUSH1 0x40 DUP10 ADD SWAP1 PUSH1 0x80 MLOAD DUP3 MSTORE PUSH1 0x40 MLOAD DUP7 DUP9 DUP3 CALLDATACOPY DUP6 DUP2 DUP9 DUP2 ADD PUSH1 0x2 DUP2 MSTORE SUB ADD SWAP1 KECCAK256 SWAP10 MLOAD SWAP10 DUP11 MLOAD DUP11 DUP2 GT PUSH2 0x65F JUMPI PUSH2 0x3F8 DUP2 PUSH2 0x3F2 DUP5 SLOAD PUSH2 0x1958 JUMP JUMPDEST DUP5 PUSH2 0x1AE7 JUMP JUMPDEST DUP7 PUSH1 0x1F DUP3 GT PUSH1 0x1 EQ PUSH2 0x5F3 JUMPI SWAP1 DUP1 PUSH2 0x430 SWAP3 DUP13 SWAP14 SWAP15 PUSH2 0x46A SWAP10 SWAP11 SWAP12 SWAP13 SWAP14 SWAP3 PUSH2 0x5E8 JUMPI JUMPDEST POP POP DUP2 PUSH1 0x1 SHL SWAP2 PUSH1 0x0 NOT SWAP1 PUSH1 0x3 SHL SHR NOT AND OR SWAP1 JUMP JUMPDEST DUP2 SSTORE JUMPDEST PUSH1 0x80 MLOAD ADD SWAP3 MLOAD AND PUSH1 0x1 PUSH1 0x1 PUSH1 0x60 SHL SUB PUSH1 0xA0 SHL DUP4 SLOAD AND OR DUP3 SSTORE MLOAD ISZERO ISZERO DUP2 SLOAD SWAP1 PUSH1 0xFF PUSH1 0xA0 SHL SWAP1 ISZERO ISZERO PUSH1 0xA0 SHL AND SWAP1 PUSH1 0xFF PUSH1 0xA0 SHL NOT AND OR SWAP1 SSTORE JUMP JUMPDEST PUSH1 0x3 SLOAD PUSH1 0x1 PUSH1 0x40 SHL DUP2 LT ISZERO PUSH2 0x5D4 JUMPI PUSH2 0x48A SWAP1 PUSH1 0x80 MLOAD DUP2 ADD PUSH1 0x3 SSTORE PUSH2 0x18D4 JUMP JUMPDEST SWAP7 SWAP1 SWAP7 PUSH2 0x5C0 JUMPI DUP4 GT PUSH2 0x5AC JUMPI PUSH2 0x4AB DUP4 PUSH2 0x4A5 DUP9 SLOAD PUSH2 0x1958 JUMP JUMPDEST DUP9 PUSH2 0x1AE7 JUMP JUMPDEST DUP5 SWAP6 PUSH1 0x1F DUP5 GT PUSH1 0x1 EQ PUSH2 0x52A JUMPI PUSH2 0x4FB DUP5 DUP1 DUP9 SWAP10 PUSH32 0xDC80CAAC0FC930B05B1B5C1F27F1B45D60B2FA42A563CFAA28619F76DA9EFCCC SWAP10 SWAP2 PUSH2 0x51F JUMPI JUMPDEST POP DUP2 PUSH1 0x1 SHL SWAP2 PUSH1 0x0 NOT SWAP1 PUSH1 0x3 SHL SHR NOT AND OR SWAP1 JUMP JUMPDEST SWAP1 SSTORE JUMPDEST PUSH2 0x515 PUSH1 0x40 MLOAD SWAP5 DUP6 SWAP5 PUSH1 0x40 DUP7 MSTORE PUSH1 0x40 DUP7 ADD SWAP2 PUSH2 0x1B3D JUMP JUMPDEST SWAP2 DUP4 ADD MSTORE SUB SWAP1 LOG1 DUP1 RETURN JUMPDEST SWAP1 POP DUP8 ADD CALLDATALOAD CODESIZE PUSH2 0x4E7 JUMP JUMPDEST DUP1 DUP7 MSTORE DUP3 DUP7 KECCAK256 PUSH1 0x1F NOT DUP6 AND SWAP8 DUP8 JUMPDEST DUP10 DUP2 LT PUSH2 0x594 JUMPI POP DUP6 PUSH32 0xDC80CAAC0FC930B05B1B5C1F27F1B45D60B2FA42A563CFAA28619F76DA9EFCCC SWAP9 SWAP10 LT PUSH2 0x57A JUMPI JUMPDEST POP POP PUSH1 0x80 MLOAD DUP5 DUP2 SHL ADD SWAP1 SSTORE PUSH2 0x4FE JUMP JUMPDEST DUP7 ADD CALLDATALOAD PUSH1 0x0 NOT PUSH1 0x3 DUP8 SWAP1 SHL PUSH1 0xF8 AND SHR NOT AND SWAP1 SSTORE CODESIZE DUP1 PUSH2 0x56A JUMP JUMPDEST SWAP1 SWAP2 DUP6 DUP1 SWAP2 DUP5 DUP11 ADD CALLDATALOAD DUP2 SSTORE PUSH1 0x80 MLOAD ADD SWAP4 ADD SWAP2 ADD PUSH2 0x538 JUMP JUMPDEST PUSH4 0x4E487B71 PUSH1 0xE0 SHL DUP6 MSTORE PUSH1 0x41 PUSH1 0x4 MSTORE PUSH1 0x24 DUP6 REVERT JUMPDEST PUSH4 0x4E487B71 PUSH1 0xE0 SHL DUP7 MSTORE PUSH1 0x4 DUP7 SWAP1 MSTORE PUSH1 0x24 DUP7 REVERT JUMPDEST PUSH4 0x4E487B71 PUSH1 0xE0 SHL DUP7 MSTORE PUSH1 0x41 PUSH1 0x4 MSTORE PUSH1 0x24 DUP7 REVERT JUMPDEST ADD MLOAD SWAP1 POP CODESIZE DUP1 PUSH2 0x41B JUMP JUMPDEST DUP3 DUP12 MSTORE DUP8 DUP12 KECCAK256 SWAP1 PUSH1 0x1F NOT DUP4 AND DUP13 JUMPDEST DUP2 DUP2 LT PUSH2 0x647 JUMPI POP SWAP14 DUP4 PUSH2 0x46A SWAP10 SWAP11 SWAP12 SWAP13 SWAP14 SWAP15 SWAP16 LT PUSH2 0x62E JUMPI JUMPDEST POP POP POP PUSH1 0x80 MLOAD SWAP1 PUSH1 0x80 MLOAD SHL ADD DUP2 SSTORE PUSH2 0x433 JUMP JUMPDEST ADD MLOAD PUSH1 0x0 NOT PUSH1 0xF8 DUP5 PUSH1 0x3 SHL AND SHR NOT AND SWAP1 SSTORE CODESIZE DUP1 DUP1 PUSH2 0x61B JUMP JUMPDEST DUP16 DUP4 ADD MLOAD DUP5 SSTORE PUSH1 0x80 MLOAD SWAP1 SWAP4 ADD SWAP3 SWAP2 DUP11 ADD SWAP2 DUP11 ADD PUSH2 0x601 JUMP JUMPDEST PUSH4 0x4E487B71 PUSH1 0xE0 SHL DUP11 MSTORE PUSH1 0x41 PUSH1 0x4 MSTORE PUSH1 0x24 DUP11 REVERT JUMPDEST PUSH1 0x40 MLOAD PUSH3 0x461BCD PUSH1 0xE5 SHL DUP2 MSTORE PUSH1 0x4 DUP2 ADD DUP4 SWAP1 MSTORE PUSH1 0x12 PUSH1 0x24 DUP3 ADD MSTORE PUSH18 0x44455820616C726561647920657869737473 PUSH1 0x70 SHL PUSH1 0x44 DUP3 ADD MSTORE PUSH1 0x64 SWAP1 REVERT JUMPDEST DUP3 DUP1 REVERT JUMPDEST POP CALLVALUE PUSH2 0x16A JUMPI DUP1 PUSH1 0x3 NOT CALLDATASIZE ADD SLT PUSH2 0x16A JUMPI SLOAD PUSH1 0x40 MLOAD PUSH1 0x1 PUSH1 0x1 PUSH1 0xA0 SHL SUB SWAP1 SWAP2 AND DUP2 MSTORE PUSH1 0x20 SWAP1 RETURN JUMPDEST POP PUSH1 0x80 CALLDATASIZE PUSH1 0x3 NOT ADD SLT PUSH2 0x16A JUMPI PUSH2 0x6ED PUSH2 0x182E JUMP JUMPDEST PUSH1 0x64 CALLDATALOAD PUSH1 0x1 PUSH1 0x1 PUSH1 0x40 SHL SUB DUP2 GT PUSH2 0x6AD JUMPI PUSH2 0x70C SWAP1 CALLDATASIZE SWAP1 PUSH1 0x4 ADD PUSH2 0x18A7 JUMP JUMPDEST PUSH1 0x2 PUSH1 0x1 SWAP5 SWAP3 SWAP5 SLOAD EQ PUSH2 0xFDB JUMPI PUSH1 0x2 PUSH1 0x1 SWAP1 DUP2 SSTORE PUSH1 0x1 PUSH1 0x1 PUSH1 0xA0 SHL SUB DUP5 AND DUP4 MSTORE PUSH1 0x4 PUSH1 0x20 MSTORE PUSH1 0x40 DUP4 KECCAK256 ADD SLOAD PUSH1 0xA0 SHR PUSH1 0xFF AND PUSH2 0xFBA JUMPI PUSH1 0x6 SLOAD PUSH2 0x750 DUP2 PUSH1 0x24 CALLDATALOAD PUSH2 0x1B5E JUMP JUMPDEST CALLVALUE LT PUSH2 0xF92 JUMPI POP PUSH1 0xFF PUSH1 0x1 PUSH1 0x40 MLOAD DUP4 DUP8 DUP3 CALLDATACOPY PUSH1 0x20 DUP2 DUP6 DUP2 ADD PUSH1 0x2 DUP2 MSTORE SUB ADD SWAP1 KECCAK256 ADD SLOAD PUSH1 0xA0 SHR AND ISZERO PUSH2 0xF6C JUMPI PUSH1 0x40 MLOAD PUSH4 0x8DA5CB5B PUSH1 0xE0 SHL DUP2 MSTORE PUSH1 0x20 DUP2 PUSH1 0x4 DUP2 PUSH1 0x1 PUSH1 0x1 PUSH1 0xA0 SHL SUB DUP9 AND GAS STATICCALL SWAP1 DUP2 ISZERO PUSH2 0xF61 JUMPI DUP4 SWAP2 PUSH2 0xF42 JUMPI JUMPDEST POP CALLER PUSH1 0x1 PUSH1 0x1 PUSH1 0xA0 SHL SUB SWAP1 SWAP2 AND SUB PUSH2 0xF0B JUMPI PUSH1 0x40 MLOAD DUP2 DUP6 DUP3 CALLDATACOPY PUSH1 0x2 DUP2 DUP4 ADD SWAP1 DUP2 MSTORE DUP2 SWAP1 SUB PUSH1 0x20 SWAP1 DUP2 ADD SWAP1 SWAP2 KECCAK256 PUSH1 0x1 ADD SLOAD PUSH1 0x40 MLOAD PUSH4 0x18160DDD PUSH1 0xE0 SHL DUP2 MSTORE SWAP6 SWAP2 PUSH1 0x1 PUSH1 0x1 PUSH1 0xA0 SHL SUB SWAP2 DUP3 AND SWAP2 DUP8 SWAP1 PUSH1 0x4 SWAP1 DUP3 SWAP1 DUP10 AND GAS STATICCALL SWAP6 DUP7 ISZERO PUSH2 0xF00 JUMPI DUP5 SWAP7 PUSH2 0xECC JUMPI JUMPDEST POP DUP6 PUSH1 0x14 DUP2 MUL DIV PUSH1 0x14 EQ DUP7 ISZERO OR ISZERO PUSH2 0xD38 JUMPI PUSH1 0x40 MLOAD PUSH4 0x6EB1769F PUSH1 0xE1 SHL DUP2 MSTORE CALLER PUSH1 0x4 DUP3 ADD MSTORE ADDRESS PUSH1 0x24 DUP3 ADD MSTORE PUSH1 0x20 DUP2 PUSH1 0x44 DUP2 PUSH1 0x1 PUSH1 0x1 PUSH1 0xA0 SHL SUB DUP11 AND GAS STATICCALL SWAP1 DUP2 ISZERO PUSH2 0xD7B JUMPI DUP6 SWAP2 PUSH2 0xE9A JUMPI JUMPDEST POP PUSH1 0x64 PUSH1 0x14 DUP9 MUL DIV DUP2 LT PUSH2 0xE76 JUMPI POP PUSH1 0x40 MLOAD PUSH4 0x23B872DD PUSH1 0xE0 SHL DUP2 MSTORE CALLER PUSH1 0x4 DUP3 ADD MSTORE ADDRESS PUSH1 0x24 DUP3 ADD MSTORE PUSH1 0x64 PUSH1 0x14 DUP9 MUL DUP2 SWAP1 DIV PUSH1 0x44 DUP4 ADD MSTORE PUSH1 0x20 SWAP1 DUP3 SWAP1 DUP2 DUP9 PUSH1 0x1 PUSH1 0x1 PUSH1 0xA0 SHL SUB DUP12 AND GAS CALL DUP1 ISZERO PUSH2 0xD7B JUMPI PUSH2 0xE57 JUMPI JUMPDEST POP PUSH1 0x40 MLOAD PUSH4 0xC45A0155 PUSH1 0xE0 SHL DUP2 MSTORE PUSH1 0x20 DUP2 PUSH1 0x4 DUP2 DUP6 GAS STATICCALL SWAP1 DUP2 ISZERO PUSH2 0xD7B JUMPI DUP6 SWAP2 PUSH2 0xE38 JUMPI JUMPDEST POP PUSH1 0x40 MLOAD PUSH4 0x15AB88C9 PUSH1 0xE3 SHL DUP2 MSTORE PUSH1 0x20 DUP2 PUSH1 0x4 DUP2 DUP7 GAS STATICCALL SWAP1 DUP2 ISZERO PUSH2 0xDB1 JUMPI DUP7 SWAP3 PUSH1 0x20 SWAP3 PUSH2 0x933 SWAP3 DUP6 SWAP2 PUSH2 0xE1B JUMPI JUMPDEST POP PUSH1 0x40 MLOAD PUSH4 0x64E329CB PUSH1 0xE1 SHL DUP2 MSTORE PUSH1 0x1 PUSH1 0x1 PUSH1 0xA0 SHL SUB DUP1 DUP13 AND PUSH1 0x4 DUP4 ADD MSTORE SWAP1 SWAP2 AND PUSH1 0x24 DUP3 ADD MSTORE SWAP4 DUP5 SWAP3 DUP4 SWAP2 SWAP1 DUP3 SWAP1 PUSH1 0x44 DUP3 ADD SWAP1 JUMP JUMPDEST SUB SWAP3 PUSH1 0x1 PUSH1 0x1 PUSH1 0xA0 SHL SUB AND GAS CALL SWAP1 DUP2 ISZERO PUSH2 0xD7B JUMPI DUP6 SWAP2 PUSH2 0xDEC JUMPI JUMPDEST POP PUSH1 0x1 PUSH1 0x1 PUSH1 0xA0 SHL SUB AND DUP1 ISZERO PUSH2 0xDBC JUMPI PUSH1 0x1 PUSH1 0x1 PUSH1 0xA0 SHL SUB DUP7 AND EXTCODESIZE ISZERO PUSH2 0xD9A JUMPI PUSH1 0x40 MLOAD PUSH4 0xC0D78655 PUSH1 0xE0 SHL DUP2 MSTORE PUSH1 0x4 DUP2 ADD DUP4 SWAP1 MSTORE DUP6 DUP2 PUSH1 0x24 DUP2 DUP4 PUSH1 0x1 PUSH1 0x1 PUSH1 0xA0 SHL SUB DUP13 AND GAS CALL DUP1 ISZERO PUSH2 0xDB1 JUMPI PUSH2 0xD9E JUMPI JUMPDEST POP PUSH1 0x1 PUSH1 0x1 PUSH1 0xA0 SHL SUB DUP7 AND EXTCODESIZE ISZERO PUSH2 0xD9A JUMPI PUSH1 0x40 MLOAD PUSH4 0x40C3FA8B PUSH1 0xE1 SHL DUP2 MSTORE PUSH1 0x4 DUP2 ADD SWAP2 SWAP1 SWAP2 MSTORE DUP5 DUP2 PUSH1 0x24 DUP2 DUP4 PUSH1 0x1 PUSH1 0x1 PUSH1 0xA0 SHL SUB DUP12 AND GAS CALL DUP1 ISZERO PUSH2 0xD7B JUMPI SWAP1 DUP6 SWAP2 PUSH2 0xD86 JUMPI JUMPDEST POP POP PUSH1 0x40 MLOAD PUSH4 0x95EA7B3 PUSH1 0xE0 SHL DUP2 MSTORE PUSH1 0x4 DUP2 ADD DUP3 SWAP1 MSTORE PUSH1 0x64 PUSH1 0x14 DUP9 MUL DIV PUSH1 0x24 DUP3 ADD MSTORE PUSH1 0x20 DUP2 PUSH1 0x44 DUP2 DUP9 PUSH1 0x1 PUSH1 0x1 PUSH1 0xA0 SHL SUB DUP12 AND GAS CALL DUP1 ISZERO PUSH2 0xD7B JUMPI PUSH2 0xD4C JUMPI JUMPDEST POP PUSH2 0x12C TIMESTAMP ADD TIMESTAMP GT PUSH2 0xD38 JUMPI PUSH1 0x60 PUSH1 0xC4 SWAP2 PUSH1 0x40 MLOAD SWAP3 DUP4 DUP1 SWAP3 PUSH4 0xF305D719 PUSH1 0xE0 SHL DUP3 MSTORE PUSH1 0x1 DUP1 PUSH1 0xA0 SHL SUB DUP11 AND PUSH1 0x4 DUP4 ADD MSTORE PUSH1 0x64 PUSH1 0x14 DUP13 MUL DIV PUSH1 0x24 DUP4 ADD MSTORE DUP9 PUSH1 0x44 DUP4 ADD MSTORE DUP9 PUSH1 0x64 DUP4 ADD MSTORE ADDRESS PUSH1 0x84 DUP4 ADD MSTORE PUSH2 0x12C TIMESTAMP ADD PUSH1 0xA4 DUP4 ADD MSTORE PUSH1 0x24 CALLDATALOAD SWAP1 GAS CALL SWAP1 DUP2 PUSH2 0xD09 JUMPI JUMPDEST POP PUSH2 0xAC4 JUMPI PUSH1 0x40 MLOAD PUSH4 0xBAFF611 PUSH1 0xE2 SHL DUP2 MSTORE PUSH1 0x1 PUSH1 0x1 PUSH1 0xA0 SHL SUB DUP6 AND PUSH1 0x4 DUP3 ADD MSTORE PUSH1 0x24 DUP1 CALLDATALOAD SWAP1 DUP3 ADD MSTORE PUSH1 0x64 PUSH1 0x14 DUP8 MUL DUP2 SWAP1 DIV PUSH1 0x44 DUP4 ADD MSTORE SWAP1 REVERT JUMPDEST PUSH1 0x40 SWAP4 SWAP3 SWAP4 MLOAD PUSH2 0xAD3 DUP2 PUSH2 0x1992 JUMP JUMPDEST PUSH1 0x1 PUSH1 0x1 PUSH1 0xA0 SHL SUB DUP5 AND DUP2 MSTORE CALLER PUSH1 0x20 DUP3 ADD SWAP1 DUP2 MSTORE PUSH1 0x1 PUSH1 0x40 DUP4 ADD SWAP1 DUP2 MSTORE SWAP2 SWAP1 PUSH2 0xB6A PUSH2 0xB00 CALLDATASIZE DUP8 DUP8 PUSH2 0x1AA1 JUMP JUMPDEST PUSH1 0x60 DUP5 ADD SWAP1 DUP2 MSTORE TIMESTAMP PUSH1 0x80 DUP6 ADD MSTORE PUSH1 0x1 PUSH1 0x1 PUSH1 0xA0 SHL SUB DUP9 DUP2 AND DUP11 MSTORE PUSH1 0x4 PUSH1 0x20 MSTORE PUSH1 0x40 DUP11 KECCAK256 DUP6 MLOAD DUP2 SLOAD PUSH1 0x1 PUSH1 0x1 PUSH1 0xA0 SHL SUB NOT AND SWAP1 DUP4 AND OR DUP2 SSTORE SWAP4 MLOAD PUSH1 0x1 DUP6 ADD DUP1 SLOAD SWAP8 MLOAD PUSH1 0x1 PUSH1 0x1 PUSH1 0xA8 SHL SUB NOT SWAP1 SWAP9 AND SWAP2 SWAP1 SWAP3 AND OR SWAP6 ISZERO ISZERO PUSH1 0xA0 SHL PUSH1 0xFF PUSH1 0xA0 SHL AND SWAP6 SWAP1 SWAP6 OR SWAP1 SWAP5 SSTORE SWAP1 SWAP3 SWAP1 JUMP JUMPDEST MLOAD DUP1 MLOAD SWAP1 PUSH1 0x1 PUSH1 0x1 PUSH1 0x40 SHL SUB DUP3 GT PUSH2 0xCF5 JUMPI PUSH2 0xB96 DUP3 PUSH2 0xB8D PUSH1 0x2 DUP8 ADD SLOAD PUSH2 0x1958 JUMP JUMPDEST PUSH1 0x2 DUP8 ADD PUSH2 0x1AE7 JUMP JUMPDEST PUSH1 0x20 SWAP1 PUSH1 0x1F DUP4 GT PUSH1 0x1 EQ PUSH2 0xC84 JUMPI DUP3 PUSH1 0x80 SWAP4 PUSH1 0x3 SWAP6 SWAP4 PUSH2 0xBCB SWAP4 DUP13 SWAP3 PUSH2 0xC79 JUMPI POP POP DUP2 PUSH1 0x1 SHL SWAP2 PUSH1 0x0 NOT SWAP1 PUSH1 0x3 SHL SHR NOT AND OR SWAP1 JUMP JUMPDEST PUSH1 0x2 DUP6 ADD SSTORE JUMPDEST ADD MLOAD SWAP2 ADD SSTORE PUSH1 0x5 SLOAD PUSH1 0x1 PUSH1 0x40 SHL DUP2 LT ISZERO PUSH2 0x5AC JUMPI PUSH32 0x52B537B7EFD09A072D62379791A3F242C784095AA9E11DBBA910B624ECEC68B8 SWAP2 PUSH2 0xC1A DUP3 PUSH1 0x1 PUSH2 0xC4A SWAP5 ADD PUSH1 0x5 SSTORE PUSH2 0x1921 JUMP JUMPDEST DUP2 SLOAD PUSH1 0x1 PUSH1 0x1 PUSH1 0xA0 SHL SUB DUP9 DUP2 AND PUSH1 0x3 SWAP4 SWAP1 SWAP4 SHL SWAP3 DUP4 SHL SWAP3 SHL NOT AND OR SWAP1 SSTORE PUSH1 0x40 MLOAD PUSH1 0x80 DUP1 DUP3 MSTORE SWAP1 SWAP5 SWAP1 DUP6 ADD SWAP2 PUSH2 0x1B3D JUMP JUMPDEST PUSH1 0x24 CALLDATALOAD PUSH1 0x20 DUP5 ADD MSTORE PUSH1 0x44 CALLDATALOAD PUSH1 0x40 DUP5 ADD MSTORE TIMESTAMP PUSH1 0x60 DUP5 ADD MSTORE CALLER SWAP4 PUSH1 0x1 PUSH1 0x1 PUSH1 0xA0 SHL SUB AND SWAP3 SWAP1 DUP2 SWAP1 SUB SWAP1 LOG3 PUSH1 0x1 DUP1 SSTORE DUP1 RETURN JUMPDEST ADD MLOAD SWAP1 POP DUP12 DUP1 PUSH2 0x41B JUMP JUMPDEST SWAP1 PUSH1 0x2 DUP6 ADD DUP10 MSTORE PUSH1 0x20 DUP10 KECCAK256 SWAP2 DUP10 JUMPDEST PUSH1 0x1F NOT DUP6 AND DUP2 LT PUSH2 0xCDD JUMPI POP SWAP3 PUSH1 0x3 SWAP5 SWAP3 PUSH1 0x1 SWAP3 PUSH1 0x80 SWAP6 DUP4 PUSH1 0x1F NOT DUP2 AND LT PUSH2 0xCC5 JUMPI JUMPDEST POP POP POP DUP2 SHL ADD PUSH1 0x2 DUP6 ADD SSTORE PUSH2 0xBD1 JUMP JUMPDEST ADD MLOAD PUSH1 0x0 NOT DUP4 DUP9 SHL PUSH1 0xF8 AND SHR NOT AND SWAP1 SSTORE DUP11 DUP1 DUP1 PUSH2 0xCB5 JUMP JUMPDEST SWAP2 SWAP3 PUSH1 0x20 PUSH1 0x1 DUP2 SWAP3 DUP7 DUP6 ADD MLOAD DUP2 SSTORE ADD SWAP5 ADD SWAP3 ADD PUSH2 0xC92 JUMP JUMPDEST PUSH4 0x4E487B71 PUSH1 0xE0 SHL DUP9 MSTORE PUSH1 0x41 PUSH1 0x4 MSTORE PUSH1 0x24 DUP9 REVERT JUMPDEST PUSH1 0x60 SWAP1 DUP2 RETURNDATASIZE DUP4 GT PUSH2 0xD31 JUMPI JUMPDEST PUSH2 0xD1F DUP2 DUP4 PUSH2 0x19DB JUMP JUMPDEST DUP2 ADD SUB SLT PUSH2 0xD2D JUMPI CODESIZE PUSH2 0xA8A JUMP JUMPDEST DUP4 DUP1 REVERT JUMPDEST POP RETURNDATASIZE PUSH2 0xD15 JUMP JUMPDEST PUSH4 0x4E487B71 PUSH1 0xE0 SHL DUP5 MSTORE PUSH1 0x11 PUSH1 0x4 MSTORE PUSH1 0x24 DUP5 REVERT JUMPDEST PUSH2 0xD6D SWAP1 PUSH1 0x20 RETURNDATASIZE PUSH1 0x20 GT PUSH2 0xD74 JUMPI JUMPDEST PUSH2 0xD65 DUP2 DUP4 PUSH2 0x19DB JUMP JUMPDEST DUP2 ADD SWAP1 PUSH2 0x1BA0 JUMP JUMPDEST POP CODESIZE PUSH2 0xA25 JUMP JUMPDEST POP RETURNDATASIZE PUSH2 0xD5B JUMP JUMPDEST PUSH1 0x40 MLOAD RETURNDATASIZE DUP8 DUP3 RETURNDATACOPY RETURNDATASIZE SWAP1 REVERT JUMPDEST PUSH2 0xD8F SWAP1 PUSH2 0x19C8 JUMP JUMPDEST PUSH2 0xD2D JUMPI DUP4 CODESIZE PUSH2 0x9E5 JUMP JUMPDEST DUP5 DUP1 REVERT JUMPDEST PUSH2 0xDAA SWAP1 SWAP6 SWAP2 SWAP6 PUSH2 0x19C8 JUMP JUMPDEST SWAP4 CODESIZE PUSH2 0x99F JUMP JUMPDEST PUSH1 0x40 MLOAD RETURNDATASIZE DUP9 DUP3 RETURNDATACOPY RETURNDATASIZE SWAP1 REVERT JUMPDEST POP PUSH1 0x40 MLOAD PUSH4 0x4FE1E92B PUSH1 0xE1 SHL DUP2 MSTORE PUSH1 0x1 PUSH1 0x1 PUSH1 0xA0 SHL SUB DUP7 DUP2 AND PUSH1 0x4 DUP4 ADD MSTORE SWAP2 SWAP1 SWAP2 AND PUSH1 0x24 DUP3 ADD MSTORE PUSH1 0x44 SWAP1 REVERT JUMPDEST SUB SWAP1 REVERT JUMPDEST PUSH2 0xE0E SWAP2 POP PUSH1 0x20 RETURNDATASIZE PUSH1 0x20 GT PUSH2 0xE14 JUMPI JUMPDEST PUSH2 0xE06 DUP2 DUP4 PUSH2 0x19DB JUMP JUMPDEST DUP2 ADD SWAP1 PUSH2 0x1B81 JUMP JUMPDEST CODESIZE PUSH2 0x94E JUMP JUMPDEST POP RETURNDATASIZE PUSH2 0xDFC JUMP JUMPDEST PUSH2 0xE32 SWAP2 POP DUP5 RETURNDATASIZE DUP7 GT PUSH2 0xE14 JUMPI PUSH2 0xE06 DUP2 DUP4 PUSH2 0x19DB JUMP JUMPDEST CODESIZE PUSH2 0x8FE JUMP JUMPDEST PUSH2 0xE51 SWAP2 POP PUSH1 0x20 RETURNDATASIZE PUSH1 0x20 GT PUSH2 0xE14 JUMPI PUSH2 0xE06 DUP2 DUP4 PUSH2 0x19DB JUMP JUMPDEST CODESIZE PUSH2 0x8D0 JUMP JUMPDEST PUSH2 0xE6F SWAP1 PUSH1 0x20 RETURNDATASIZE PUSH1 0x20 GT PUSH2 0xD74 JUMPI PUSH2 0xD65 DUP2 DUP4 PUSH2 0x19DB JUMP JUMPDEST POP CODESIZE PUSH2 0x8AB JUMP JUMPDEST DUP7 PUSH1 0x44 SWAP2 PUSH1 0x64 PUSH1 0x14 PUSH1 0x40 MLOAD SWAP4 PUSH4 0xDC98D7BB PUSH1 0xE0 SHL DUP6 MSTORE MUL DIV PUSH1 0x4 DUP4 ADD MSTORE PUSH1 0x24 DUP3 ADD MSTORE REVERT JUMPDEST SWAP1 POP PUSH1 0x20 DUP2 RETURNDATASIZE PUSH1 0x20 GT PUSH2 0xEC4 JUMPI JUMPDEST DUP2 PUSH2 0xEB5 PUSH1 0x20 SWAP4 DUP4 PUSH2 0x19DB JUMP JUMPDEST DUP2 ADD SUB SLT PUSH2 0xD9A JUMPI MLOAD CODESIZE PUSH2 0x857 JUMP JUMPDEST RETURNDATASIZE SWAP2 POP PUSH2 0xEA8 JUMP JUMPDEST SWAP1 SWAP6 POP PUSH1 0x20 DUP2 RETURNDATASIZE PUSH1 0x20 GT PUSH2 0xEF8 JUMPI JUMPDEST DUP2 PUSH2 0xEE8 PUSH1 0x20 SWAP4 DUP4 PUSH2 0x19DB JUMP JUMPDEST DUP2 ADD SUB SLT PUSH2 0xD2D JUMPI MLOAD SWAP5 CODESIZE PUSH2 0x80C JUMP JUMPDEST RETURNDATASIZE SWAP2 POP PUSH2 0xEDB JUMP JUMPDEST PUSH1 0x40 MLOAD RETURNDATASIZE DUP7 DUP3 RETURNDATACOPY RETURNDATASIZE SWAP1 REVERT JUMPDEST PUSH1 0x40 MLOAD PUSH3 0x461BCD PUSH1 0xE5 SHL DUP2 MSTORE PUSH1 0x20 PUSH1 0x4 DUP3 ADD MSTORE PUSH1 0xF PUSH1 0x24 DUP3 ADD MSTORE PUSH15 0x2737BA103A37B5B2B71037BBB732B9 PUSH1 0x89 SHL PUSH1 0x44 DUP3 ADD MSTORE PUSH1 0x64 SWAP1 REVERT JUMPDEST PUSH2 0xF5B SWAP2 POP PUSH1 0x20 RETURNDATASIZE PUSH1 0x20 GT PUSH2 0xE14 JUMPI PUSH2 0xE06 DUP2 DUP4 PUSH2 0x19DB JUMP JUMPDEST CODESIZE PUSH2 0x7A8 JUMP JUMPDEST PUSH1 0x40 MLOAD RETURNDATASIZE DUP6 DUP3 RETURNDATACOPY RETURNDATASIZE SWAP1 REVERT JUMPDEST PUSH1 0x40 MLOAD PUSH4 0x79370A75 PUSH1 0xE0 SHL DUP2 MSTORE PUSH1 0x20 PUSH1 0x4 DUP3 ADD MSTORE SWAP1 DUP2 SWAP1 PUSH2 0xDE8 SWAP1 PUSH1 0x24 DUP4 ADD SWAP1 DUP8 PUSH2 0x1B3D JUMP JUMPDEST PUSH2 0xFA0 PUSH1 0x44 SWAP2 PUSH1 0x24 CALLDATALOAD PUSH2 0x1B5E JUMP JUMPDEST PUSH1 0x40 MLOAD SWAP1 PUSH3 0xFDF575 PUSH1 0xE5 SHL DUP3 MSTORE PUSH1 0x4 DUP3 ADD MSTORE CALLVALUE PUSH1 0x24 DUP3 ADD MSTORE REVERT JUMPDEST PUSH1 0x40 MLOAD PUSH4 0x3FB6E971 PUSH1 0xE0 SHL DUP2 MSTORE PUSH1 0x1 PUSH1 0x1 PUSH1 0xA0 SHL SUB DUP5 AND PUSH1 0x4 DUP3 ADD MSTORE PUSH1 0x24 SWAP1 REVERT JUMPDEST PUSH1 0x40 MLOAD PUSH3 0x461BCD PUSH1 0xE5 SHL DUP2 MSTORE PUSH1 0x20 PUSH1 0x4 DUP3 ADD MSTORE PUSH1 0x1F PUSH1 0x24 DUP3 ADD MSTORE PUSH32 0x5265656E7472616E637947756172643A207265656E7472616E742063616C6C00 PUSH1 0x44 DUP3 ADD MSTORE PUSH1 0x64 SWAP1 REVERT JUMPDEST POP CALLVALUE PUSH2 0x16A JUMPI PUSH1 0x20 DUP1 PUSH1 0x3 NOT CALLDATASIZE ADD SLT PUSH2 0x10EC JUMPI PUSH1 0x4 CALLDATALOAD PUSH1 0x1 PUSH1 0x1 PUSH1 0x40 SHL SUB DUP2 GT PUSH2 0x6AD JUMPI SWAP2 DUP2 PUSH2 0x1056 PUSH1 0x60 SWAP5 CALLDATASIZE SWAP1 PUSH1 0x4 ADD PUSH2 0x18A7 JUMP JUMPDEST SWAP3 PUSH1 0x40 DUP1 MLOAD PUSH2 0x1064 DUP2 PUSH2 0x19AD JUMP JUMPDEST DUP8 DUP2 MSTORE DUP3 DUP6 DUP3 ADD MSTORE ADD MSTORE DUP3 PUSH1 0x40 MLOAD SWAP4 DUP5 SWAP3 DUP4 CALLDATACOPY DUP2 ADD PUSH1 0x2 DUP2 MSTORE SUB ADD SWAP1 KECCAK256 SWAP1 PUSH1 0x1 PUSH1 0x40 MLOAD SWAP3 PUSH2 0x1091 DUP5 PUSH2 0x19AD JUMP JUMPDEST PUSH2 0x109A DUP2 PUSH2 0x19FC JUMP JUMPDEST DUP5 MSTORE ADD SLOAD PUSH1 0x1 DUP1 PUSH1 0xA0 SHL SUB PUSH2 0x10D8 DUP4 DUP6 ADD SWAP4 DUP3 DUP5 AND DUP6 MSTORE PUSH1 0xFF PUSH1 0x40 DUP8 ADD SWAP5 PUSH1 0xA0 SHR AND ISZERO ISZERO DUP5 MSTORE PUSH1 0x40 MLOAD SWAP7 DUP8 SWAP7 DUP3 DUP9 MSTORE MLOAD SWAP2 DUP8 ADD MSTORE PUSH1 0x80 DUP7 ADD SWAP1 PUSH2 0x1882 JUMP JUMPDEST SWAP3 MLOAD AND PUSH1 0x40 DUP5 ADD MSTORE MLOAD ISZERO ISZERO PUSH1 0x60 DUP4 ADD MSTORE SUB SWAP1 RETURN JUMPDEST POP DUP1 REVERT JUMPDEST POP CALLVALUE PUSH2 0x16A JUMPI DUP1 PUSH1 0x3 NOT CALLDATASIZE ADD SLT PUSH2 0x16A JUMPI PUSH2 0x1109 PUSH2 0x1BB8 JUMP JUMPDEST DUP1 SLOAD PUSH1 0x1 PUSH1 0x1 PUSH1 0xA0 SHL SUB NOT DUP2 AND DUP3 SSTORE DUP2 SWAP1 PUSH1 0x1 PUSH1 0x1 PUSH1 0xA0 SHL SUB AND PUSH32 0x8BE0079C531659141344CD1FD0A4F28419497F9722A3DAAFE3B4186F6B6457E0 DUP3 DUP1 LOG3 DUP1 RETURN JUMPDEST POP CALLVALUE PUSH2 0x16A JUMPI PUSH1 0x20 CALLDATASIZE PUSH1 0x3 NOT ADD SLT PUSH2 0x16A JUMPI PUSH1 0x4 CALLDATALOAD SWAP1 PUSH1 0x1 PUSH1 0x1 PUSH1 0x40 SHL SUB DUP3 GT PUSH2 0x16A JUMPI CALLDATASIZE PUSH1 0x23 DUP4 ADD SLT ISZERO PUSH2 0x16A JUMPI PUSH2 0x11D4 PUSH2 0x11A6 PUSH1 0x20 PUSH2 0x1193 CALLDATASIZE PUSH1 0x4 DUP8 ADD CALLDATALOAD PUSH1 0x24 DUP9 ADD PUSH2 0x1AA1 JUMP JUMPDEST DUP2 PUSH1 0x40 MLOAD SWAP4 DUP3 DUP6 DUP1 SWAP5 MLOAD SWAP4 DUP5 SWAP3 ADD PUSH2 0x185F JUMP JUMPDEST DUP2 ADD PUSH1 0x2 DUP2 MSTORE SUB ADD SWAP1 KECCAK256 PUSH1 0x1 PUSH2 0x11BB DUP3 PUSH2 0x19FC JUMP JUMPDEST SWAP2 ADD SLOAD PUSH1 0xFF PUSH1 0x40 MLOAD SWAP4 DUP5 SWAP4 PUSH1 0x60 DUP6 MSTORE PUSH1 0x60 DUP6 ADD SWAP1 PUSH2 0x1882 JUMP JUMPDEST PUSH1 0x1 PUSH1 0x1 PUSH1 0xA0 SHL SUB DUP4 AND PUSH1 0x20 DUP6 ADD MSTORE PUSH1 0xA0 SWAP3 SWAP1 SWAP3 SHR AND ISZERO ISZERO PUSH1 0x40 DUP4 ADD MSTORE SUB SWAP1 RETURN JUMPDEST POP CALLVALUE PUSH2 0x16A JUMPI PUSH1 0x20 CALLDATASIZE PUSH1 0x3 NOT ADD SLT PUSH2 0x16A JUMPI PUSH1 0x4 CALLDATALOAD SWAP1 PUSH1 0x5 SLOAD DUP3 LT ISZERO PUSH2 0x16A JUMPI PUSH1 0x20 PUSH2 0x1220 DUP4 PUSH2 0x1921 JUMP JUMPDEST SWAP1 SLOAD PUSH1 0x40 MLOAD PUSH1 0x3 SWAP3 SWAP1 SWAP3 SHL SHR PUSH1 0x1 PUSH1 0x1 PUSH1 0xA0 SHL SUB AND DUP2 MSTORE RETURN JUMPDEST POP CALLVALUE PUSH2 0x16A JUMPI PUSH1 0x20 CALLDATASIZE PUSH1 0x3 NOT ADD SLT PUSH2 0x16A JUMPI PUSH1 0x4 CALLDATALOAD PUSH1 0x3 SLOAD DUP2 LT ISZERO PUSH2 0x10EC JUMPI PUSH2 0x1261 SWAP1 PUSH2 0x18D4 JUMP JUMPDEST SWAP2 SWAP1 SWAP2 PUSH2 0x1288 JUMPI PUSH2 0x150 PUSH2 0x1274 DUP4 PUSH2 0x19FC JUMP JUMPDEST PUSH1 0x40 MLOAD SWAP2 DUP3 SWAP2 PUSH1 0x20 DUP4 MSTORE PUSH1 0x20 DUP4 ADD SWAP1 PUSH2 0x1882 JUMP JUMPDEST PUSH4 0x4E487B71 PUSH1 0xE0 SHL DUP2 MSTORE PUSH1 0x4 DUP2 SWAP1 MSTORE PUSH1 0x24 SWAP1 REVERT JUMPDEST POP CALLVALUE PUSH2 0x16A JUMPI DUP1 PUSH1 0x3 NOT CALLDATASIZE ADD SLT PUSH2 0x16A JUMPI PUSH2 0x12B5 PUSH2 0x1BB8 JUMP JUMPDEST DUP1 DUP1 DUP1 DUP1 PUSH1 0x1 DUP1 PUSH1 0xA0 SHL SUB DUP2 SLOAD AND SELFBALANCE SWAP1 DUP3 DUP3 ISZERO PUSH2 0x12E2 JUMPI JUMPDEST CALL ISZERO PUSH2 0x12D6 JUMPI DUP1 RETURN JUMPDEST PUSH1 0x40 MLOAD SWAP1 RETURNDATASIZE SWAP1 DUP3 RETURNDATACOPY RETURNDATASIZE SWAP1 REVERT JUMPDEST POP PUSH2 0x8FC PUSH2 0x12CD JUMP JUMPDEST POP CALLVALUE PUSH2 0x16A JUMPI DUP1 PUSH1 0x3 NOT CALLDATASIZE ADD SLT PUSH2 0x16A JUMPI PUSH1 0x3 SLOAD PUSH1 0x1 PUSH1 0x1 PUSH1 0x40 SHL SUB DUP2 GT PUSH2 0x13DC JUMPI SWAP1 PUSH1 0x20 SWAP2 PUSH1 0x40 MLOAD SWAP2 PUSH2 0x1324 DUP5 DUP4 PUSH1 0x5 SHL ADD DUP5 PUSH2 0x19DB JUMP JUMPDEST DUP2 DUP4 MSTORE PUSH1 0x3 DUP2 MSTORE DUP4 DUP4 ADD SWAP2 DUP2 PUSH32 0xC2575A0E9E593C00F959F8C92F12DB2869C3395A3B0502D05E2516446F71F85B DUP5 JUMPDEST DUP4 DUP4 LT PUSH2 0x13B8 JUMPI POP POP POP POP PUSH1 0x40 MLOAD SWAP3 DUP5 DUP5 ADD SWAP1 DUP6 DUP6 MSTORE MLOAD DUP1 SWAP2 MSTORE PUSH1 0x40 DUP5 ADD SWAP5 PUSH1 0x40 DUP3 PUSH1 0x5 SHL DUP7 ADD ADD SWAP4 SWAP3 SWAP6 JUMPDEST DUP3 DUP8 LT PUSH2 0x138C JUMPI DUP6 DUP6 SUB DUP7 RETURN JUMPDEST SWAP1 SWAP2 SWAP3 SWAP4 DUP3 DUP1 PUSH2 0x13A8 PUSH1 0x1 SWAP4 PUSH1 0x3F NOT DUP11 DUP3 SUB ADD DUP7 MSTORE DUP9 MLOAD PUSH2 0x1882 JUMP JUMPDEST SWAP7 ADD SWAP3 ADD SWAP7 ADD SWAP6 SWAP3 SWAP2 SWAP1 SWAP3 PUSH2 0x137F JUMP JUMPDEST PUSH1 0x1 DUP9 DUP2 SWAP3 PUSH2 0x13CA DUP6 SWAP12 SWAP11 SWAP9 SWAP12 PUSH2 0x19FC JUMP JUMPDEST DUP2 MSTORE ADD SWAP3 ADD SWAP3 ADD SWAP2 SWAP1 SWAP7 SWAP4 SWAP6 SWAP7 PUSH2 0x1353 JUMP JUMPDEST PUSH4 0x4E487B71 PUSH1 0xE0 SHL DUP3 MSTORE PUSH1 0x41 PUSH1 0x4 MSTORE PUSH1 0x24 DUP3 REVERT JUMPDEST POP CALLVALUE PUSH2 0x16A JUMPI DUP1 PUSH1 0x3 NOT CALLDATASIZE ADD SLT PUSH2 0x16A JUMPI PUSH1 0x40 MLOAD DUP1 SWAP2 PUSH1 0x5 SLOAD SWAP1 DUP2 DUP4 MSTORE PUSH1 0x20 DUP1 SWAP4 ADD DUP1 SWAP3 PUSH1 0x5 DUP4 MSTORE PUSH32 0x36B6384B5ECA791C62761152D0C79BB0604C104A5FB6F4EB0703F3154BB3DB0 SWAP1 DUP4 JUMPDEST DUP2 DUP2 LT PUSH2 0x1499 JUMPI POP POP POP DUP5 PUSH2 0x1452 SWAP2 SUB DUP6 PUSH2 0x19DB JUMP JUMPDEST PUSH1 0x40 MLOAD SWAP4 DUP4 DUP6 SWAP5 DUP6 ADD SWAP2 DUP2 DUP7 MSTORE MLOAD DUP1 SWAP3 MSTORE PUSH1 0x40 DUP6 ADD SWAP4 SWAP3 JUMPDEST DUP3 DUP2 LT PUSH2 0x1479 JUMPI POP POP POP POP SUB SWAP1 RETURN JUMPDEST DUP4 MLOAD PUSH1 0x1 PUSH1 0x1 PUSH1 0xA0 SHL SUB AND DUP6 MSTORE DUP7 SWAP6 POP SWAP4 DUP2 ADD SWAP4 SWAP3 DUP2 ADD SWAP3 PUSH1 0x1 ADD PUSH2 0x146A JUMP JUMPDEST DUP3 SLOAD PUSH1 0x1 PUSH1 0x1 PUSH1 0xA0 SHL SUB AND DUP5 MSTORE SWAP3 DUP7 ADD SWAP3 PUSH1 0x1 SWAP3 DUP4 ADD SWAP3 ADD PUSH2 0x143C JUMP JUMPDEST POP CALLVALUE PUSH2 0x16A JUMPI PUSH1 0x60 CALLDATASIZE PUSH1 0x3 NOT ADD SLT PUSH2 0x16A JUMPI PUSH1 0x1 PUSH1 0x1 PUSH1 0x40 SHL SUB SWAP1 PUSH1 0x4 CALLDATALOAD DUP3 DUP2 GT PUSH2 0x10EC JUMPI PUSH2 0x14E9 SWAP1 CALLDATASIZE SWAP1 PUSH1 0x4 ADD PUSH2 0x18A7 JUMP JUMPDEST PUSH2 0x14F1 PUSH2 0x1849 JUMP JUMPDEST SWAP4 PUSH1 0x44 CALLDATALOAD DUP1 ISZERO ISZERO DUP1 SWAP2 SUB PUSH2 0xD9A JUMPI PUSH2 0x1507 PUSH2 0x1BB8 JUMP JUMPDEST PUSH1 0x40 MLOAD SWAP2 DUP4 DUP6 DUP5 CALLDATACOPY DUP4 DUP4 ADD SWAP7 PUSH1 0x2 DUP9 MSTORE PUSH1 0x1 DUP1 PUSH1 0xA0 SHL SUB DUP1 PUSH1 0x1 DUP7 DUP2 SWAP12 PUSH1 0x20 SWAP9 DUP10 SWAP2 SUB ADD SWAP1 KECCAK256 ADD SLOAD AND ISZERO PUSH2 0x16F1 JUMPI PUSH1 0x40 MLOAD PUSH2 0x1541 DUP2 PUSH2 0x19AD JUMP JUMPDEST PUSH2 0x154C CALLDATASIZE DUP9 DUP11 PUSH2 0x1AA1 JUMP JUMPDEST DUP2 MSTORE DUP2 DUP7 DUP3 ADD SWAP4 AND SWAP4 DUP5 DUP5 MSTORE PUSH1 0x40 DUP3 ADD SWAP11 DUP7 DUP13 MSTORE PUSH1 0x40 MLOAD DUP10 DUP12 DUP3 CALLDATACOPY DUP9 DUP2 DUP12 DUP2 ADD PUSH1 0x2 DUP2 MSTORE SUB ADD SWAP1 KECCAK256 SWAP3 MLOAD DUP1 MLOAD SWAP3 DUP4 GT PUSH2 0x16DD JUMPI PUSH2 0x1593 DUP4 PUSH2 0x158D DUP7 SLOAD PUSH2 0x1958 JUMP JUMPDEST DUP7 PUSH2 0x1AE7 JUMP JUMPDEST DUP9 SWAP2 PUSH1 0x1F DUP5 GT PUSH1 0x1 EQ PUSH2 0x164D JUMPI POP SWAP3 PUSH2 0x15F0 DUP4 PUSH2 0x1627 SWAP8 SWAP7 SWAP5 DUP15 SWAP16 SWAP7 SWAP5 PUSH32 0xFCC670EF83A2AB18FA316FD1535402582AD1C325995F34B0F96FAEB21D0EF9EB SWAP16 SWAP6 PUSH1 0x1 SWAP7 SWAP3 PUSH2 0x5E8 JUMPI POP POP DUP2 PUSH1 0x1 SHL SWAP2 PUSH1 0x0 NOT SWAP1 PUSH1 0x3 SHL SHR NOT AND OR SWAP1 JUMP JUMPDEST DUP2 SSTORE JUMPDEST ADD SWAP3 MLOAD AND PUSH1 0x1 PUSH1 0x1 PUSH1 0x60 SHL SUB PUSH1 0xA0 SHL DUP4 SLOAD AND OR DUP3 SSTORE MLOAD ISZERO ISZERO DUP2 SLOAD SWAP1 PUSH1 0xFF PUSH1 0xA0 SHL SWAP1 ISZERO ISZERO PUSH1 0xA0 SHL AND SWAP1 PUSH1 0xFF PUSH1 0xA0 SHL NOT AND OR SWAP1 SSTORE JUMP JUMPDEST PUSH2 0x163E PUSH1 0x40 MLOAD SWAP6 DUP7 SWAP6 PUSH1 0x60 DUP8 MSTORE PUSH1 0x60 DUP8 ADD SWAP2 PUSH2 0x1B3D JUMP JUMPDEST SWAP3 DUP5 ADD MSTORE PUSH1 0x40 DUP4 ADD MSTORE SUB SWAP1 LOG1 DUP1 RETURN JUMPDEST DUP5 DUP14 MSTORE DUP10 DUP14 KECCAK256 SWAP3 SWAP2 SWAP1 PUSH1 0x1F NOT DUP6 AND SWAP1 DUP15 SWAP1 JUMPDEST DUP3 DUP3 LT PUSH2 0x16C6 JUMPI POP POP SWAP4 PUSH1 0x1 SWAP4 PUSH32 0xFCC670EF83A2AB18FA316FD1535402582AD1C325995F34B0F96FAEB21D0EF9EB SWAP15 SWAP16 SWAP7 SWAP4 DUP6 SWAP4 DUP4 PUSH2 0x1627 SWAP12 SWAP11 SWAP9 LT PUSH2 0x16AD JUMPI JUMPDEST POP POP POP DUP2 SHL ADD DUP2 SSTORE PUSH2 0x15F3 JUMP JUMPDEST ADD MLOAD PUSH1 0x0 NOT PUSH1 0xF8 DUP5 PUSH1 0x3 SHL AND SHR NOT AND SWAP1 SSTORE CODESIZE DUP1 DUP1 PUSH2 0x16A0 JUMP JUMPDEST DUP4 DUP6 ADD MLOAD DUP7 SSTORE SWAP5 DUP6 ADD SWAP5 SWAP4 DUP13 ADD SWAP4 SWAP1 DUP13 ADD SWAP1 PUSH2 0x165F JUMP JUMPDEST PUSH4 0x4E487B71 PUSH1 0xE0 SHL DUP13 MSTORE PUSH1 0x41 PUSH1 0x4 MSTORE PUSH1 0x24 DUP13 REVERT JUMPDEST PUSH1 0x40 MLOAD PUSH3 0x461BCD PUSH1 0xE5 SHL DUP2 MSTORE PUSH1 0x4 DUP2 ADD DUP7 SWAP1 MSTORE PUSH1 0xD PUSH1 0x24 DUP3 ADD MSTORE PUSH13 0x111156081B9BDD08199BDD5B99 PUSH1 0x9A SHL PUSH1 0x44 DUP3 ADD MSTORE PUSH1 0x64 SWAP1 REVERT JUMPDEST POP CALLVALUE PUSH2 0x16A JUMPI PUSH1 0x20 DUP1 PUSH1 0x3 NOT CALLDATASIZE ADD SLT PUSH2 0x10EC JUMPI PUSH1 0x40 PUSH2 0x1743 PUSH2 0x182E JUMP JUMPDEST SWAP3 DUP1 PUSH1 0x80 DUP4 MLOAD PUSH2 0x1752 DUP2 PUSH2 0x1992 JUMP JUMPDEST DUP3 DUP2 MSTORE DUP6 DUP2 ADD DUP4 SWAP1 MSTORE DUP5 DUP2 ADD DUP4 SWAP1 MSTORE PUSH1 0x60 DUP1 DUP3 ADD MSTORE ADD MSTORE PUSH1 0x1 PUSH1 0x1 PUSH1 0xA0 SHL SUB SWAP4 DUP5 AND DUP2 MSTORE PUSH1 0x4 DUP4 MSTORE KECCAK256 PUSH1 0x40 MLOAD SWAP2 SWAP1 PUSH2 0x1800 SWAP1 PUSH2 0x178D DUP5 PUSH2 0x1992 JUMP JUMPDEST DUP5 DUP2 SLOAD AND DUP5 MSTORE PUSH1 0x1 DUP2 ADD SLOAD DUP6 DUP5 DUP7 ADD DUP2 DUP4 AND DUP2 MSTORE PUSH1 0xFF PUSH1 0x40 DUP9 ADD SWAP4 PUSH1 0xA0 SHR AND ISZERO ISZERO DUP4 MSTORE PUSH1 0x3 PUSH2 0x17BE PUSH1 0x2 DUP7 ADD PUSH2 0x19FC JUMP JUMPDEST SWAP5 PUSH1 0x60 DUP10 ADD SWAP6 DUP7 MSTORE ADD SLOAD SWAP6 PUSH1 0x80 DUP9 ADD SWAP7 DUP8 MSTORE PUSH1 0x40 MLOAD SWAP9 DUP10 SWAP9 DUP3 DUP11 MSTORE MLOAD AND SWAP1 DUP9 ADD MSTORE MLOAD AND PUSH1 0x40 DUP7 ADD MSTORE MLOAD ISZERO ISZERO PUSH1 0x60 DUP6 ADD MSTORE MLOAD PUSH1 0xA0 PUSH1 0x80 DUP6 ADD MSTORE PUSH1 0xC0 DUP5 ADD SWAP1 PUSH2 0x1882 JUMP JUMPDEST SWAP1 MLOAD PUSH1 0xA0 DUP4 ADD MSTORE SUB SWAP1 RETURN JUMPDEST POP CALLVALUE PUSH2 0x16A JUMPI PUSH1 0x20 CALLDATASIZE PUSH1 0x3 NOT ADD SLT PUSH2 0x16A JUMPI PUSH2 0x1825 PUSH2 0x1BB8 JUMP JUMPDEST PUSH1 0x4 CALLDATALOAD PUSH1 0x6 SSTORE DUP1 RETURN JUMPDEST PUSH1 0x4 CALLDATALOAD SWAP1 PUSH1 0x1 PUSH1 0x1 PUSH1 0xA0 SHL SUB DUP3 AND DUP3 SUB PUSH2 0x1844 JUMPI JUMP JUMPDEST PUSH1 0x0 DUP1 REVERT JUMPDEST PUSH1 0x24 CALLDATALOAD SWAP1 PUSH1 0x1 PUSH1 0x1 PUSH1 0xA0 SHL SUB DUP3 AND DUP3 SUB PUSH2 0x1844 JUMPI JUMP JUMPDEST PUSH1 0x0 JUMPDEST DUP4 DUP2 LT PUSH2 0x1872 JUMPI POP POP PUSH1 0x0 SWAP2 ADD MSTORE JUMP JUMPDEST DUP2 DUP2 ADD MLOAD DUP4 DUP3 ADD MSTORE PUSH1 0x20 ADD PUSH2 0x1862 JUMP JUMPDEST SWAP1 PUSH1 0x20 SWAP2 PUSH2 0x189B DUP2 MLOAD DUP1 SWAP3 DUP2 DUP6 MSTORE DUP6 DUP1 DUP7 ADD SWAP2 ADD PUSH2 0x185F JUMP JUMPDEST PUSH1 0x1F ADD PUSH1 0x1F NOT AND ADD ADD SWAP1 JUMP JUMPDEST SWAP2 DUP2 PUSH1 0x1F DUP5 ADD SLT ISZERO PUSH2 0x1844 JUMPI DUP3 CALLDATALOAD SWAP2 PUSH1 0x1 PUSH1 0x1 PUSH1 0x40 SHL SUB DUP4 GT PUSH2 0x1844 JUMPI PUSH1 0x20 DUP4 DUP2 DUP7 ADD SWAP6 ADD ADD GT PUSH2 0x1844 JUMPI JUMP JUMPDEST PUSH1 0x3 SLOAD DUP2 LT ISZERO PUSH2 0x190B JUMPI PUSH1 0x3 PUSH1 0x0 MSTORE PUSH32 0xC2575A0E9E593C00F959F8C92F12DB2869C3395A3B0502D05E2516446F71F85B ADD SWAP1 PUSH1 0x0 SWAP1 JUMP JUMPDEST PUSH4 0x4E487B71 PUSH1 0xE0 SHL PUSH1 0x0 MSTORE PUSH1 0x32 PUSH1 0x4 MSTORE PUSH1 0x24 PUSH1 0x0 REVERT JUMPDEST PUSH1 0x5 SLOAD DUP2 LT ISZERO PUSH2 0x190B JUMPI PUSH1 0x5 PUSH1 0x0 MSTORE PUSH32 0x36B6384B5ECA791C62761152D0C79BB0604C104A5FB6F4EB0703F3154BB3DB0 ADD SWAP1 PUSH1 0x0 SWAP1 JUMP JUMPDEST SWAP1 PUSH1 0x1 DUP3 DUP2 SHR SWAP3 AND DUP1 ISZERO PUSH2 0x1988 JUMPI JUMPDEST PUSH1 0x20 DUP4 LT EQ PUSH2 0x1972 JUMPI JUMP JUMPDEST PUSH4 0x4E487B71 PUSH1 0xE0 SHL PUSH1 0x0 MSTORE PUSH1 0x22 PUSH1 0x4 MSTORE PUSH1 0x24 PUSH1 0x0 REVERT JUMPDEST SWAP2 PUSH1 0x7F AND SWAP2 PUSH2 0x1967 JUMP JUMPDEST PUSH1 0xA0 DUP2 ADD SWAP1 DUP2 LT PUSH1 0x1 PUSH1 0x1 PUSH1 0x40 SHL SUB DUP3 GT OR PUSH2 0x154 JUMPI PUSH1 0x40 MSTORE JUMP JUMPDEST PUSH1 0x60 DUP2 ADD SWAP1 DUP2 LT PUSH1 0x1 PUSH1 0x1 PUSH1 0x40 SHL SUB DUP3 GT OR PUSH2 0x154 JUMPI PUSH1 0x40 MSTORE JUMP JUMPDEST PUSH1 0x1 PUSH1 0x1 PUSH1 0x40 SHL SUB DUP2 GT PUSH2 0x154 JUMPI PUSH1 0x40 MSTORE JUMP JUMPDEST SWAP1 PUSH1 0x1F DUP1 NOT SWAP2 ADD AND DUP2 ADD SWAP1 DUP2 LT PUSH1 0x1 PUSH1 0x1 PUSH1 0x40 SHL SUB DUP3 GT OR PUSH2 0x154 JUMPI PUSH1 0x40 MSTORE JUMP JUMPDEST SWAP1 PUSH1 0x40 MLOAD SWAP2 DUP3 PUSH1 0x0 DUP3 SLOAD PUSH2 0x1A0F DUP2 PUSH2 0x1958 JUMP JUMPDEST SWAP1 DUP2 DUP5 MSTORE PUSH1 0x20 SWAP5 PUSH1 0x1 SWAP2 PUSH1 0x1 DUP2 AND SWAP1 DUP2 PUSH1 0x0 EQ PUSH2 0x1A7F JUMPI POP PUSH1 0x1 EQ PUSH2 0x1A40 JUMPI JUMPDEST POP POP POP PUSH2 0x1A3E SWAP3 POP SUB DUP4 PUSH2 0x19DB JUMP JUMPDEST JUMP JUMPDEST PUSH1 0x0 SWAP1 DUP2 MSTORE DUP6 DUP2 KECCAK256 SWAP6 SWAP4 POP SWAP2 SWAP1 JUMPDEST DUP2 DUP4 LT PUSH2 0x1A67 JUMPI POP POP PUSH2 0x1A3E SWAP4 POP DUP3 ADD ADD CODESIZE DUP1 DUP1 PUSH2 0x1A2F JUMP JUMPDEST DUP6 SLOAD DUP9 DUP5 ADD DUP6 ADD MSTORE SWAP5 DUP6 ADD SWAP5 DUP8 SWAP5 POP SWAP2 DUP4 ADD SWAP2 PUSH2 0x1A4E JUMP JUMPDEST SWAP3 POP POP POP PUSH2 0x1A3E SWAP5 SWAP3 POP PUSH1 0xFF NOT AND DUP3 DUP5 ADD MSTORE ISZERO ISZERO PUSH1 0x5 SHL DUP3 ADD ADD CODESIZE DUP1 DUP1 PUSH2 0x1A2F JUMP JUMPDEST SWAP3 SWAP2 SWAP3 PUSH1 0x1 PUSH1 0x1 PUSH1 0x40 SHL SUB DUP3 GT PUSH2 0x154 JUMPI PUSH1 0x40 MLOAD SWAP2 PUSH2 0x1ACA PUSH1 0x1F DUP3 ADD PUSH1 0x1F NOT AND PUSH1 0x20 ADD DUP5 PUSH2 0x19DB JUMP JUMPDEST DUP3 SWAP5 DUP2 DUP5 MSTORE DUP2 DUP4 ADD GT PUSH2 0x1844 JUMPI DUP3 DUP2 PUSH1 0x20 SWAP4 DUP5 PUSH1 0x0 SWAP7 ADD CALLDATACOPY ADD ADD MSTORE JUMP JUMPDEST SWAP1 PUSH1 0x1F DUP2 GT PUSH2 0x1AF5 JUMPI POP POP POP JUMP JUMPDEST PUSH1 0x0 SWAP2 PUSH1 0x0 MSTORE PUSH1 0x20 PUSH1 0x0 KECCAK256 SWAP1 PUSH1 0x20 PUSH1 0x1F DUP6 ADD PUSH1 0x5 SHR DUP4 ADD SWAP5 LT PUSH2 0x1B33 JUMPI JUMPDEST PUSH1 0x1F ADD PUSH1 0x5 SHR ADD SWAP2 JUMPDEST DUP3 DUP2 LT PUSH2 0x1B28 JUMPI POP POP POP JUMP JUMPDEST DUP2 DUP2 SSTORE PUSH1 0x1 ADD PUSH2 0x1B1C JUMP JUMPDEST SWAP1 SWAP3 POP DUP3 SWAP1 PUSH2 0x1B13 JUMP JUMPDEST SWAP1 DUP1 PUSH1 0x20 SWAP4 SWAP3 DUP2 DUP5 MSTORE DUP5 DUP5 ADD CALLDATACOPY PUSH1 0x0 DUP3 DUP3 ADD DUP5 ADD MSTORE PUSH1 0x1F ADD PUSH1 0x1F NOT AND ADD ADD SWAP1 JUMP JUMPDEST SWAP2 SWAP1 DUP3 ADD DUP1 SWAP3 GT PUSH2 0x1B6B JUMPI JUMP JUMPDEST PUSH4 0x4E487B71 PUSH1 0xE0 SHL PUSH1 0x0 MSTORE PUSH1 0x11 PUSH1 0x4 MSTORE PUSH1 0x24 PUSH1 0x0 REVERT JUMPDEST SWAP1 DUP2 PUSH1 0x20 SWAP2 SUB SLT PUSH2 0x1844 JUMPI MLOAD PUSH1 0x1 PUSH1 0x1 PUSH1 0xA0 SHL SUB DUP2 AND DUP2 SUB PUSH2 0x1844 JUMPI SWAP1 JUMP JUMPDEST SWAP1 DUP2 PUSH1 0x20 SWAP2 SUB SLT PUSH2 0x1844 JUMPI MLOAD DUP1 ISZERO ISZERO DUP2 SUB PUSH2 0x1844 JUMPI SWAP1 JUMP JUMPDEST PUSH1 0x0 SLOAD PUSH1 0x1 PUSH1 0x1 PUSH1 0xA0 SHL SUB AND CALLER SUB PUSH2 0x1BCC JUMPI JUMP JUMPDEST PUSH1 0x64 PUSH1 0x40 MLOAD PUSH3 0x461BCD PUSH1 0xE5 SHL DUP2 MSTORE PUSH1 0x20 PUSH1 0x4 DUP3 ADD MSTORE PUSH1 0x20 PUSH1 0x24 DUP3 ADD MSTORE PUSH32 0x4F776E61626C653A2063616C6C6572206973206E6F7420746865206F776E6572 PUSH1 0x44 DUP3 ADD MSTORE REVERT INVALID LOG2 PUSH5 0x6970667358 0x22 SLT KECCAK256 0xB9 ADD PUSH3 0x4017C3 DUP2 0xBC DUP11 DIV BALANCE 0xC0 DUP12 0xCD 0x2F 0xC7 0xC1 0xE5 0xEF 0xCC 0xB1 0xDF CALLDATACOPY CREATE2 RETURNDATACOPY SWAP3 0x5E 0xBF 0xE 0xAA 0x4C DUP3 PUSH5 0x736F6C6343 STOP ADDMOD AND STOP CALLER "},"gasEstimates":{"creation":{"codeDepositCost":"1447600","executionCost":"infinite","totalCost":"infinite"},"external":{"VERSION()":"infinite","addDEX(string,address)":"infinite","dexRouters(string)":"infinite","getDEXRouter(string)":"infinite","getListedTokens()":"infinite","getListingFee()":"2588","getSupportedDEXes()":"infinite","getTokenInfo(address)":"infinite","isListed(address)":"2838","listTokenOnDEX(address,uint256,uint256,string)":"infinite","listedTokens(uint256)":"6755","listingFee()":"2456","owner()":"2565","renounceOwnership()":"28277","setListingFee(uint256)":"24403","supportedDEXes(uint256)":"infinite","tokenInfo(address)":"infinite","transferOwnership(address)":"28516","updateDEX(string,address,bool)":"infinite","withdrawFees()":"infinite"}},"methodIdentifiers":{"VERSION()":"ffa1ad74","addDEX(string,address)":"96186770","dexRouters(string)":"5e7ffa67","getDEXRouter(string)":"78e3399d","getListedTokens()":"2ba996a5","getListingFee()":"b8fe6abe","getSupportedDEXes()":"386e07bf","getTokenInfo(address)":"1f69565f","isListed(address)":"f794062e","listTokenOnDEX(address,uint256,uint256,string)":"81e090df","listedTokens(uint256)":"5a9d1ac3","listingFee()":"6a1b7ecc","owner()":"8da5cb5b","renounceOwnership()":"715018a6","setListingFee(uint256)":"131dbd09","supportedDEXes(uint256)":"4caf81f5","tokenInfo(address)":"f5dab711","transferOwnership(address)":"f2fde38b","updateDEX(string,address,bool)":"24b2982f","withdrawFees()":"476343ee"}},"storageLayout":{"storage":[{"astId":7,"contract":"src/contracts/TokenFactory_v2_Bake.sol:TokenFactory_v2_Bake","label":"_owner","offset":0,"slot":"0","type":"t_address"},{"astId":123,"contract":"src/contracts/TokenFactory_v2_Bake.sol:TokenFactory_v2_Bake","label":"_status","offset":0,"slot":"1","type":"t_uint256"},{"astId":1789,"contract":"src/contracts/TokenFactory_v2_Bake.sol:TokenFactory_v2_Bake","label":"dexRouters","offset":0,"slot":"2","type":"t_mapping(t_string_memory_ptr,t_struct(DEXRouter)1764_storage)"},{"astId":1792,"contract":"src/contracts/TokenFactory_v2_Bake.sol:TokenFactory_v2_Bake","label":"supportedDEXes","offset":0,"slot":"3","type":"t_array(t_string_storage)dyn_storage"},{"astId":1797,"contract":"src/contracts/TokenFactory_v2_Bake.sol:TokenFactory_v2_Bake","label":"tokenInfo","offset":0,"slot":"4","type":"t_mapping(t_address,t_struct(TokenInfo)1784_storage)"},{"astId":1800,"contract":"src/contracts/TokenFactory_v2_Bake.sol:TokenFactory_v2_Bake","label":"listedTokens","offset":0,"slot":"5","type":"t_array(t_address)dyn_storage"},{"astId":1802,"contract":"src/contracts/TokenFactory_v2_Bake.sol:TokenFactory_v2_Bake","label":"listingFee","offset":0,"slot":"6","type":"t_uint256"}],"types":{"t_address":{"encoding":"inplace","label":"address","numberOfBytes":"20"},"t_array(t_address)dyn_storage":{"base":"t_address","encoding":"dynamic_array","label":"address[]","numberOfBytes":"32"},"t_array(t_string_storage)dyn_storage":{"base":"t_string_storage","encoding":"dynamic_array","label":"string[]","numberOfBytes":"32"},"t_bool":{"encoding":"inplace","label":"bool","numberOfBytes":"1"},"t_mapping(t_address,t_struct(TokenInfo)1784_storage)":{"encoding":"mapping","key":"t_address","label":"mapping(address => struct TokenFactory_v2_Bake.TokenInfo)","numberOfBytes":"32","value":"t_struct(TokenInfo)1784_storage"},"t_mapping(t_string_memory_ptr,t_struct(DEXRouter)1764_storage)":{"encoding":"mapping","key":"t_string_memory_ptr","label":"mapping(string => struct TokenFactory_v2_Bake.DEXRouter)","numberOfBytes":"32","value":"t_struct(DEXRouter)1764_storage"},"t_string_memory_ptr":{"encoding":"bytes","label":"string","numberOfBytes":"32"},"t_string_storage":{"encoding":"bytes","label":"string","numberOfBytes":"32"},"t_struct(DEXRouter)1764_storage":{"encoding":"inplace","label":"struct TokenFactory_v2_Bake.DEXRouter","members":[{"astId":1759,"contract":"src/contracts/TokenFactory_v2_Bake.sol:TokenFactory_v2_Bake","label":"name","offset":0,"slot":"0","type":"t_string_storage"},{"astId":1761,"contract":"src/contracts/TokenFactory_v2_Bake.sol:TokenFactory_v2_Bake","label":"router","offset":0,"slot":"1","type":"t_address"},{"astId":1763,"contract":"src/contracts/TokenFactory_v2_Bake.sol:TokenFactory_v2_Bake","label":"isActive","offset":20,"slot":"1","type":"t_bool"}],"numberOfBytes":"64"},"t_struct(TokenInfo)1784_storage":{"encoding":"inplace","label":"struct TokenFactory_v2_Bake.TokenInfo","members":[{"astId":1775,"contract":"src/contracts/TokenFactory_v2_Bake.sol:TokenFactory_v2_Bake","label":"token","offset":0,"slot":"0","type":"t_address"},{"astId":1777,"contract":"src/contracts/TokenFactory_v2_Bake.sol:TokenFactory_v2_Bake","label":"owner","offset":0,"slot":"1","type":"t_address"},{"astId":1779,"contract":"src/contracts/TokenFactory_v2_Bake.sol:TokenFactory_v2_Bake","label":"isListed","offset":20,"slot":"1","type":"t_bool"},{"astId":1781,"contract":"src/contracts/TokenFactory_v2_Bake.sol:TokenFactory_v2_Bake","label":"dexName","offset":0,"slot":"2","type":"t_string_storage"},{"astId":1783,"contract":"src/contracts/TokenFactory_v2_Bake.sol:TokenFactory_v2_Bake","label":"listingTime","offset":0,"slot":"3","type":"t_uint256"}],"numberOfBytes":"128"},"t_uint256":{"encoding":"inplace","label":"uint256","numberOfBytes":"32"}}},"userdoc":{"kind":"user","methods":{},"version":1}}}}