{"src/contracts/TokenTemplate_v3.sol":{"TokenTemplate_v3":{"abi":[{"anonymous":false,"inputs":[{"indexed":false,"internalType":"address","name":"previousAdmin","type":"address"},{"indexed":false,"internalType":"address","name":"newAdmin","type":"address"}],"name":"AdminChanged","type":"event"},{"anonymous":false,"inputs":[{"indexed":true,"internalType":"address","name":"owner","type":"address"},{"indexed":true,"internalType":"address","name":"spender","type":"address"},{"indexed":false,"internalType":"uint256","name":"value","type":"uint256"}],"name":"Approval","type":"event"},{"anonymous":false,"inputs":[{"indexed":true,"internalType":"address","name":"beacon","type":"address"}],"name":"BeaconUpgraded","type":"event"},{"anonymous":false,"inputs":[{"indexed":true,"internalType":"address","name":"account","type":"address"},{"indexed":false,"internalType":"bool","name":"blacklisted","type":"bool"}],"name":"BlacklistUpdated","type":"event"},{"anonymous":false,"inputs":[{"indexed":false,"internalType":"uint8","name":"version","type":"uint8"}],"name":"Initialized","type":"event"},{"anonymous":false,"inputs":[{"indexed":false,"internalType":"uint256","name":"amount","type":"uint256"},{"indexed":false,"internalType":"uint256","name":"unlockTime","type":"uint256"}],"name":"LiquidityLocked","type":"event"},{"anonymous":false,"inputs":[{"indexed":false,"internalType":"uint256","name":"amount","type":"uint256"}],"name":"LiquidityUnlocked","type":"event"},{"anonymous":false,"inputs":[{"indexed":true,"internalType":"address","name":"previousOwner","type":"address"},{"indexed":true,"internalType":"address","name":"newOwner","type":"address"}],"name":"OwnershipTransferred","type":"event"},{"anonymous":false,"inputs":[{"indexed":true,"internalType":"address","name":"contributor","type":"address"},{"indexed":false,"internalType":"uint256","name":"amount","type":"uint256"}],"name":"PresaleContribution","type":"event"},{"anonymous":false,"inputs":[{"indexed":false,"internalType":"uint256","name":"totalRaised","type":"uint256"},{"indexed":false,"internalType":"uint256","name":"totalTokensSold","type":"uint256"}],"name":"PresaleFinalized","type":"event"},{"anonymous":false,"inputs":[{"indexed":true,"internalType":"address","name":"account","type":"address"},{"indexed":false,"internalType":"uint256","name":"duration","type":"uint256"}],"name":"TimeLockSet","type":"event"},{"anonymous":false,"inputs":[{"indexed":true,"internalType":"address","name":"beneficiary","type":"address"},{"indexed":false,"internalType":"uint256","name":"amount","type":"uint256"}],"name":"TokensVested","type":"event"},{"anonymous":false,"inputs":[{"indexed":true,"internalType":"address","name":"from","type":"address"},{"indexed":true,"internalType":"address","name":"to","type":"address"},{"indexed":false,"internalType":"uint256","name":"value","type":"uint256"}],"name":"Transfer","type":"event"},{"anonymous":false,"inputs":[{"indexed":true,"internalType":"address","name":"implementation","type":"address"}],"name":"Upgraded","type":"event"},{"anonymous":false,"inputs":[{"indexed":false,"internalType":"string","name":"walletName","type":"string"},{"indexed":true,"internalType":"address","name":"beneficiary","type":"address"},{"indexed":false,"internalType":"uint256","name":"amount","type":"uint256"},{"indexed":false,"internalType":"uint256","name":"period","type":"uint256"}],"name":"VestingScheduleAdded","type":"event"},{"anonymous":false,"inputs":[{"indexed":true,"internalType":"address","name":"beneficiary","type":"address"},{"indexed":false,"internalType":"uint256","name":"scheduleIndex","type":"uint256"},{"indexed":false,"internalType":"uint256","name":"amount","type":"uint256"}],"name":"VestingTokensClaimed","type":"event"},{"inputs":[{"internalType":"string","name":"walletName","type":"string"},{"internalType":"uint256","name":"amount","type":"uint256"},{"internalType":"uint256","name":"period","type":"uint256"},{"internalType":"address","name":"beneficiary","type":"address"}],"name":"addVestingSchedule","outputs":[],"stateMutability":"nonpayable","type":"function"},{"inputs":[{"internalType":"address","name":"owner","type":"address"},{"internalType":"address","name":"spender","type":"address"}],"name":"allowance","outputs":[{"internalType":"uint256","name":"","type":"uint256"}],"stateMutability":"view","type":"function"},{"inputs":[{"internalType":"address","name":"spender","type":"address"},{"internalType":"uint256","name":"amount","type":"uint256"}],"name":"approve","outputs":[{"internalType":"bool","name":"","type":"bool"}],"stateMutability":"nonpayable","type":"function"},{"inputs":[{"internalType":"address","name":"account","type":"address"}],"name":"balanceOf","outputs":[{"internalType":"uint256","name":"","type":"uint256"}],"stateMutability":"view","type":"function"},{"inputs":[],"name":"blacklistEnabled","outputs":[{"internalType":"bool","name":"","type":"bool"}],"stateMutability":"view","type":"function"},{"inputs":[{"internalType":"address","name":"","type":"address"}],"name":"blacklisted","outputs":[{"internalType":"bool","name":"","type":"bool"}],"stateMutability":"view","type":"function"},{"inputs":[],"name":"claimPlatformFeeTokens","outputs":[],"stateMutability":"nonpayable","type":"function"},{"inputs":[{"internalType":"uint256","name":"scheduleIndex","type":"uint256"}],"name":"claimVestedTokens","outputs":[],"stateMutability":"nonpayable","type":"function"},{"inputs":[],"name":"contribute","outputs":[],"stateMutability":"payable","type":"function"},{"inputs":[{"internalType":"address","name":"","type":"address"}],"name":"contributions","outputs":[{"internalType":"uint256","name":"","type":"uint256"}],"stateMutability":"view","type":"function"},{"inputs":[],"name":"decimals","outputs":[{"internalType":"uint8","name":"","type":"uint8"}],"stateMutability":"view","type":"function"},{"inputs":[{"internalType":"address","name":"spender","type":"address"},{"internalType":"uint256","name":"subtractedValue","type":"uint256"}],"name":"decreaseAllowance","outputs":[{"internalType":"bool","name":"","type":"bool"}],"stateMutability":"nonpayable","type":"function"},{"inputs":[],"name":"finalizePresale","outputs":[],"stateMutability":"nonpayable","type":"function"},{"inputs":[{"internalType":"uint256","name":"scheduleIndex","type":"uint256"}],"name":"getClaimableAmount","outputs":[{"internalType":"uint256","name":"","type":"uint256"}],"stateMutability":"view","type":"function"},{"inputs":[{"internalType":"uint256","name":"index","type":"uint256"}],"name":"getVestingSchedule","outputs":[{"internalType":"string","name":"walletName","type":"string"},{"internalType":"uint256","name":"amount","type":"uint256"},{"internalType":"uint256","name":"period","type":"uint256"},{"internalType":"address","name":"beneficiary","type":"address"},{"internalType":"uint256","name":"claimed","type":"uint256"},{"internalType":"uint256","name":"startTime","type":"uint256"}],"stateMutability":"view","type":"function"},{"inputs":[],"name":"getVestingSchedulesCount","outputs":[{"internalType":"uint256","name":"","type":"uint256"}],"stateMutability":"view","type":"function"},{"inputs":[{"internalType":"address","name":"spender","type":"address"},{"internalType":"uint256","name":"addedValue","type":"uint256"}],"name":"increaseAllowance","outputs":[{"internalType":"bool","name":"","type":"bool"}],"stateMutability":"nonpayable","type":"function"},{"inputs":[{"components":[{"internalType":"string","name":"name","type":"string"},{"internalType":"string","name":"symbol","type":"string"},{"internalType":"uint256","name":"initialSupply","type":"uint256"},{"internalType":"uint256","name":"maxSupply","type":"uint256"},{"internalType":"address","name":"owner","type":"address"},{"internalType":"bool","name":"enableBlacklist","type":"bool"},{"internalType":"bool","name":"enableTimeLock","type":"bool"},{"internalType":"uint256","name":"presaleRate","type":"uint256"},{"internalType":"uint256","name":"minContribution","type":"uint256"},{"internalType":"uint256","name":"maxContribution","type":"uint256"},{"internalType":"uint256","name":"presaleCap","type":"uint256"},{"internalType":"uint256","name":"startTime","type":"uint256"},{"internalType":"uint256","name":"endTime","type":"uint256"},{"internalType":"uint256","name":"liquidityPercentage","type":"uint256"},{"internalType":"uint256","name":"liquidityLockDuration","type":"uint256"},{"internalType":"address","name":"platformFeeRecipient","type":"address"},{"internalType":"uint256","name":"platformFeeTokens","type":"uint256"},{"internalType":"bool","name":"platformFeeVestingEnabled","type":"bool"},{"internalType":"uint256","name":"platformFeeVestingDuration","type":"uint256"},{"internalType":"uint256","name":"platformFeeCliffDuration","type":"uint256"}],"internalType":"struct TokenTemplate_v3.InitParams","name":"params","type":"tuple"}],"name":"initialize","outputs":[],"stateMutability":"nonpayable","type":"function"},{"inputs":[],"name":"liquidityInfo","outputs":[{"internalType":"uint256","name":"percentage","type":"uint256"},{"internalType":"uint256","name":"lockDuration","type":"uint256"},{"internalType":"uint256","name":"unlockTime","type":"uint256"},{"internalType":"bool","name":"locked","type":"bool"}],"stateMutability":"view","type":"function"},{"inputs":[],"name":"maxSupply","outputs":[{"internalType":"uint256","name":"","type":"uint256"}],"stateMutability":"view","type":"function"},{"inputs":[],"name":"name","outputs":[{"internalType":"string","name":"","type":"string"}],"stateMutability":"view","type":"function"},{"inputs":[],"name":"owner","outputs":[{"internalType":"address","name":"","type":"address"}],"stateMutability":"view","type":"function"},{"inputs":[],"name":"platformFee","outputs":[{"internalType":"address","name":"recipient","type":"address"},{"internalType":"uint256","name":"totalTokens","type":"uint256"},{"internalType":"bool","name":"vestingEnabled","type":"bool"},{"internalType":"uint256","name":"vestingDuration","type":"uint256"},{"internalType":"uint256","name":"cliffDuration","type":"uint256"},{"internalType":"uint256","name":"vestingStart","type":"uint256"},{"internalType":"uint256","name":"tokensClaimed","type":"uint256"}],"stateMutability":"view","type":"function"},{"inputs":[],"name":"presaleInfo","outputs":[{"internalType":"uint256","name":"softCap","type":"uint256"},{"internalType":"uint256","name":"hardCap","type":"uint256"},{"internalType":"uint256","name":"minContribution","type":"uint256"},{"internalType":"uint256","name":"maxContribution","type":"uint256"},{"internalType":"uint256","name":"presaleRate","type":"uint256"},{"internalType":"uint256","name":"startTime","type":"uint256"},{"internalType":"uint256","name":"endTime","type":"uint256"},{"internalType":"bool","name":"whitelistEnabled","type":"bool"},{"internalType":"bool","name":"finalized","type":"bool"},{"internalType":"uint256","name":"totalContributed","type":"uint256"},{"internalType":"uint256","name":"totalTokensSold","type":"uint256"}],"stateMutability":"view","type":"function"},{"inputs":[],"name":"proxiableUUID","outputs":[{"internalType":"bytes32","name":"","type":"bytes32"}],"stateMutability":"view","type":"function"},{"inputs":[],"name":"renounceOwnership","outputs":[],"stateMutability":"nonpayable","type":"function"},{"inputs":[{"internalType":"address","name":"account","type":"address"},{"internalType":"bool","name":"isBlacklisted","type":"bool"}],"name":"setBlacklist","outputs":[],"stateMutability":"nonpayable","type":"function"},{"inputs":[{"internalType":"address","name":"account","type":"address"},{"internalType":"uint256","name":"duration","type":"uint256"}],"name":"setTimeLock","outputs":[],"stateMutability":"nonpayable","type":"function"},{"inputs":[{"internalType":"address","name":"account","type":"address"},{"internalType":"bool","name":"status","type":"bool"}],"name":"setWhitelistStatus","outputs":[],"stateMutability":"nonpayable","type":"function"},{"inputs":[],"name":"symbol","outputs":[{"internalType":"string","name":"","type":"string"}],"stateMutability":"view","type":"function"},{"inputs":[],"name":"timeLockEnabled","outputs":[{"internalType":"bool","name":"","type":"bool"}],"stateMutability":"view","type":"function"},{"inputs":[{"internalType":"address","name":"","type":"address"}],"name":"timeLocks","outputs":[{"internalType":"uint256","name":"","type":"uint256"}],"stateMutability":"view","type":"function"},{"inputs":[],"name":"totalSupply","outputs":[{"internalType":"uint256","name":"","type":"uint256"}],"stateMutability":"view","type":"function"},{"inputs":[{"internalType":"address","name":"to","type":"address"},{"internalType":"uint256","name":"amount","type":"uint256"}],"name":"transfer","outputs":[{"internalType":"bool","name":"","type":"bool"}],"stateMutability":"nonpayable","type":"function"},{"inputs":[{"internalType":"address","name":"from","type":"address"},{"internalType":"address","name":"to","type":"address"},{"internalType":"uint256","name":"amount","type":"uint256"}],"name":"transferFrom","outputs":[{"internalType":"bool","name":"","type":"bool"}],"stateMutability":"nonpayable","type":"function"},{"inputs":[{"internalType":"address","name":"newOwner","type":"address"}],"name":"transferOwnership","outputs":[],"stateMutability":"nonpayable","type":"function"},{"inputs":[{"internalType":"address","name":"newImplementation","type":"address"}],"name":"upgradeTo","outputs":[],"stateMutability":"nonpayable","type":"function"},{"inputs":[{"internalType":"address","name":"newImplementation","type":"address"},{"internalType":"bytes","name":"data","type":"bytes"}],"name":"upgradeToAndCall","outputs":[],"stateMutability":"payable","type":"function"},{"inputs":[{"internalType":"uint256","name":"","type":"uint256"},{"internalType":"address","name":"","type":"address"}],"name":"vestingClaims","outputs":[{"internalType":"uint256","name":"","type":"uint256"}],"stateMutability":"view","type":"function"},{"inputs":[{"internalType":"uint256","name":"","type":"uint256"}],"name":"vestingSchedules","outputs":[{"internalType":"string","name":"walletName","type":"string"},{"internalType":"uint256","name":"amount","type":"uint256"},{"internalType":"uint256","name":"period","type":"uint256"},{"internalType":"address","name":"beneficiary","type":"address"},{"internalType":"uint256","name":"claimed","type":"uint256"},{"internalType":"uint256","name":"startTime","type":"uint256"}],"stateMutability":"view","type":"function"},{"inputs":[{"internalType":"address","name":"","type":"address"}],"name":"whitelist","outputs":[{"internalType":"bool","name":"","type":"bool"}],"stateMutability":"view","type":"function"},{"inputs":[],"name":"withdrawPresaleFunds","outputs":[],"stateMutability":"nonpayable","type":"function"}],"evm":{"bytecode":{"linkReferences":{},"object":"60a0604052346200003657620000146200003b565b604051613e9762000093823960805181818161132b01526114e80152613e9790f35b600080fd5b6200004562000082565b565b6200005d9062000060906001600160a01b031682565b90565b6001600160a01b031690565b6200005d9062000047565b6200005d906200006c565b6200008d3062000077565b60805256fe6080604052600436101561001257600080fd5b60003560e01c806306fdde03146102b2578063095ea7b3146102ad5780630c424284146102a857806313083617146102a3578063153b0d1e1461029e57806318160ddd1461029957806323b872dd1461029457806326232a2e1461028f5780632edf08691461028a578063313ce567146102855780633659cfe614610280578063395093511461027b57806342e94c90146102765780634f1ef2861461027157806352d1902d1461026c578063644fab741461026757806364a88d68146102625780636d3cbe211461025d57806370a0823114610258578063715018a6146102535780637935510b1461024e5780637d8ca242146102495780637f76b223146102445780638bacf0141461023f5780638bdc444d1461023a5780638da5cb5b1461023557806391ed25961461023057806395d89b411461022b5780639b19251a14610226578063a0a6e94014610221578063a457c2d71461021c578063a9059cbb14610217578063beb8f88314610212578063bffb691d1461020d578063cba4cbd314610208578063d4ef85cc14610203578063d5abeb01146101fe578063d7bb99ba146101f9578063dbac26e9146101f4578063dd62ed3e146101ef578063f1e0699d146101ea5763f2fde38b036102b757610ff2565b610fda565b610f8a565b610f53565b610f2f565b610f14565b610ed6565b610e53565b610e2b565b610e03565b610de7565b610dcb565b610db3565b610d98565b610d4f565b610d33565b610cbf565b610c97565b610c7b565b610c12565b610be6565b610bce565b610bb6565b610b9b565b610b67565b61095c565b610943565b610928565b610914565b610802565b61077c565b610764565b610721565b6106e7565b6105bf565b6104d6565b610492565b610479565b61044b565b61042d565b6103c6565b610336565b600080fd5b60009103126102b757565b60005b8381106102da5750506000910152565b81810151838201526020016102ca565b61030b61031460209361031e936102ff815190565b80835293849260200190565b958691016102c7565b601f01601f191690565b0190565b6020808252610333929101906102ea565b90565b346102b7576103463660046102bc565b61035d610351611013565b60405191829182610322565b0390f35b6001600160a01b031690565b61037681610361565b036102b757565b9050359061038a8261036d565b565b80610376565b9050359061038a8261038c565b91906040838203126102b7576103339060206103bb828661037d565b9401610392565b9052565b346102b75761035d6103e26103dc36600461039f565b9061101d565b6040515b91829182901515815260200190565b801515610376565b9050359061038a826103f5565b91906040838203126102b757610333906020610426828661037d565b94016103fd565b346102b75761044661044036600461040a565b9061107e565b604051005b346102b75761045b3660046102bc565b61035d6104686101315490565b6040515b9182918290815260200190565b346102b75761044661048c36600461040a565b90611141565b346102b7576104a23660046102bc565b61035d61046861114b565b90916060828403126102b7576103336104c6848461037d565b9360406103bb826020870161037d565b346102b75761035d6103e26104ec3660046104ad565b91611254565b6103339054610361565b6103339081565b61033390546104fc565b610333905b60ff1690565b610333905461050d565b61013f61052e816104f2565b9161053b60018301610503565b9161054860028201610518565b9161055560038301610503565b9161056260048201610503565b91610333600661057460058501610503565b9301610503565b6103c290610361565b949290979695939160e08601986000870161059e9161057b565b6020860152151560408501526060840152608083015260a082015260c00152565b346102b7576105cf3660046102bc565b61035d6105da610522565b936105ea97959793919360405190565b97889788610584565b6103339060081c610512565b61033390546105f3565b61013361061581610503565b9161062260018301610503565b9161062f60028201610503565b9161063c60038301610503565b9161064960048201610503565b9161065660058301610503565b9161066360068201610503565b9161067060078301610518565b9161067d600782016105ff565b91610333600961057460088501610503565b98969492909b9a99979593916101608a019c60008b016106ad919052565b60208a015260408901526060880152608087015260a086015260c0850152151560e084015215156101008301526101208201526101400152565b346102b7576106f73660046102bc565b61035d610702610609565b976107189b999b97919796929695939560405190565b9b8c9b8c61068f565b346102b7576107313660046102bc565b61035d61073c61126e565b6040519182918260ff909116815260200190565b906020828203126102b7576103339161037d565b346102b757610446610777366004610750565b6113e3565b346102b75761035d6103e261079236600461039f565b90611414565b61033390610361906001600160a01b031682565b61033390610798565b610333906107ac565b906107c8906107b5565b600052602052604060002090565b610333916008021c81565b9061033391546107d6565b60006107fd6103339261013d6107be565b6107e1565b346102b75761035d610468610818366004610750565b6107ec565b634e487b7160e01b600052604160045260246000fd5b90601f01601f191681019081106001600160401b0382111761085457604052565b61081d565b9061038a61086660405190565b9283610833565b6001600160401b03811161085457602090601f01601f19160190565b90826000939282370152565b909291926108aa6108a58261086d565b610859565b93818552818301116102b75761038a916020850190610889565b9080601f830112156102b75781602061033393359101610895565b9190916040818403126102b7576108f6838261037d565b9260208201356001600160401b0381116102b75761033392016108c4565b6104466109223660046108df565b90611459565b346102b7576109383660046102bc565b61035d610468611549565b346102b75761044661095636600461039f565b9061162d565b346102b75761096c3660046102bc565b610446611796565b906020828203126102b75761033391610392565b634e487b7160e01b600052603260045260246000fd5b80548210156109c1576109b8600691600052602060002090565b91020190600090565b610988565b634e487b7160e01b600052602260045260246000fd5b90600160028304921680156109fc575b60208310146109f757565b6109c6565b91607f16916109ec565b80546000939291610a23610a19836109dc565b8085529360200190565b9160018116908115610a755750600114610a3c57505050565b610a4f9192939450600052602060002090565b916000925b818410610a615750500190565b805484840152602090930192600101610a54565b92949550505060ff1916825215156020020190565b9061033391610a06565b9061038a610aae92610aa560405190565b93848092610a8a565b0383610833565b61013190610ac1825490565b8110156102b757610ad19161099e565b5090610adc82610a94565b91610ae960018201610503565b91610af660028301610503565b91610b03600382016104f2565b91610333600561057460048501610503565b9196959394610b5c61038a96610b5260a096610b4b610b43610b639760c08a01908a820360008c01526102ea565b9c6020890152565b6040870152565b606085019061057b565b6080830152565b0152565b346102b75761035d610b82610b7d366004610974565b610ab5565b92610b9296949692919260405190565b96879687610b15565b346102b75761035d610468610bb1366004610750565b61179e565b346102b757610bc63660046102bc565b6104466117ed565b346102b757610446610be1366004610974565b6119c0565b346102b75761035d610468610bfc366004610974565b611ab4565b60006107fd610333926101306107be565b346102b75761035d610468610c28366004610750565b610c01565b6080818303126102b75780356001600160401b0381116102b75782610c539183016108c4565b92610333610c648460208501610392565b936060610c748260408701610392565b940161037d565b346102b757610446610c8e366004610c2d565b92919091611ff4565b346102b757610ca73660046102bc565b6104466121ff565b60208101929161038a919061057b565b346102b757610ccf3660046102bc565b61035d610cda612207565b60405191829182610caf565b91906040838203126102b757610333906020610c748286610392565b6103336103336103339290565b906107c890610d02565b6107fd61033392610d2e600093610132610d0f565b6107be565b346102b75761035d610468610d49366004610ce6565b90610d19565b346102b757610d5f3660046102bc565b61035d610351612211565b610333916008021c610512565b906103339154610d6a565b6000610d936103339261013e6107be565b610d77565b346102b75761035d6103e2610dae366004610750565b610d82565b346102b757610dc33660046102bc565b6104466124a5565b346102b75761035d6103e2610de136600461039f565b90612507565b346102b75761035d6103e2610dfd36600461039f565b9061257c565b346102b75761035d610b82610e19366004610974565b6125c4565b610333600061012e610d77565b346102b757610e3b3660046102bc565b61035d6103e2610e1e565b610333600161012e610d77565b346102b757610e633660046102bc565b61035d6103e2610e46565b61014690610e7b82610503565b91610e8860018201610503565b916103336003610e9a60028501610503565b9301610518565b610ece61038a94610ec7606094989795610ec0608086019a6000870152565b6020850152565b6040830152565b019015159052565b346102b757610ee63660046102bc565b61035d610ef1610e6e565b90610efe94929460405190565b94859485610ea1565b610333600061012d6107e1565b346102b757610f243660046102bc565b61035d610468610f07565b610f3a3660046102bc565b610446612a55565b6000610d936103339261012f6107be565b346102b75761035d6103e2610f69366004610750565b610f42565b91906040838203126102b757610333906020610c74828661037d565b346102b75761035d610468610fa0366004610f6e565b90612a5d565b90816102809103126102b75790565b906020828203126102b75781356001600160401b0381116102b7576103339201610fa6565b346102b757610446610fed366004610fb5565b613273565b346102b757610446611005366004610750565b61330c565b61033390610a94565b610333603661100a565b6110289190336133c4565b600190565b9061038a9161103a6134a3565b611069565b9060ff905b9181191691161790565b9061105e61033361106592151590565b825461103f565b9055565b9061107961038a9261013e6107be565b61104e565b9061038a9161102d565b9061038a916110956134a3565b6110e2565b156110a157565b60405162461bcd60e51b8152602060048201526015602482015274109b1858dadb1a5cdd081b9bdd08195b98589b1959605a1b6044820152606490fd5b0390fd5b61113c6111327f6a12b3df6cba4203bd7fd06b816789f87de8c594299aed5717ae070fac781bac9261111d61111861012e610518565b61109a565b61112d856110798361012f6107be565b6107b5565b926103e660405190565b0390a2565b9061038a91611088565b6103336035610503565b1561115c57565b60405162461bcd60e51b81526020600482015260166024820152751059191c995cdcc81a5cc8189b1858dadb1a5cdd195960521b6044820152606490fd5b610333939291906111c46111bf6111bb6111b63361012f6107be565b610518565b1590565b611155565b61120f565b156111d057565b60405162461bcd60e51b8152602060048201526017602482015276151c985b9cd9995c881a5cc81d1a5b594b5b1bd8dad959604a1b6044820152606490fd5b9061033393929161122161012e6105ff565b156112485761124861124061033361123b336101306107be565b610503565b4210156111c9565b506103339291906134c0565b610333929190600061119a565b6105126103336103339290565b6103336012611261565b1561127f57565b60405162461bcd60e51b815260206004820152602c6024820152600080516020613e2283398151915260448201526b19195b1959d85d1958d85b1b60a21b6064820152608490fd5b156112ce57565b60405162461bcd60e51b815260206004820152602c6024820152600080516020613e2283398151915260448201526b6163746976652070726f787960a01b6064820152608490fd5b61038a9061137e611326306107b5565b6113647f00000000000000000000000000000000000000000000000000000000000000009161135d61135784610361565b91610361565b1415611278565b6113786113576113726134d6565b92610361565b146112c7565b6113bd565b906113906108a58361086d565b918252565b369037565b9061038a6113b06113aa84611383565b9361086d565b601f190160208401611395565b600061038a916113cc816134f5565b6113dd6113d883610d02565b61139a565b906135a6565b61038a90611316565b634e487b7160e01b600052601160045260246000fd5b9190820180921161140f57565b6113ec565b611028919061142d33926114288385612a5d565b611402565b916133c4565b9061038a91611444611326306107b5565b61038a91600191611454816134f5565b6135a6565b9061038a91611433565b1561146a57565b60405162461bcd60e51b815260206004820152603860248201527f555550535570677261646561626c653a206d757374206e6f742062652063616c6044820152771b1959081d1a1c9bdd59da0819195b1959d85d1958d85b1b60421b6064820152608490fd5b610333906115126114e0306107b5565b61150c6113577f0000000000000000000000000000000000000000000000000000000000000000610361565b14611463565b611540565b6103337f360894a13ba1a3210667c828492db98dca3e2076cc3735a920a3ca505d382bbc610d02565b50610333611517565b61033360006114d0565b9061038a916115606134a3565b6115ca565b1561156c57565b60405162461bcd60e51b8152602060048201526015602482015274151a5b59481b1bd8dac81b9bdd08195b98589b1959605a1b6044820152606490fd5b9060001990611044565b906115c361033361106592610d02565b82546115a9565b61113c6116237fa9353e70f07f31e7f4e16464f45e189cbd22826780a5abe4da8303652a86960a9261160561160061012e6105ff565b611565565b61112d6116128642611402565b61161e836101306107be565b6115b3565b9261046c60405190565b9061038a91611553565b61163f6134a3565b61038a61172b565b1561164e57565b60405162461bcd60e51b8152602060048201526015602482015274141c995cd85b19481b9bdd08199a5b985b1a5e9959605a1b6044820152606490fd5b1561169257565b60405162461bcd60e51b81526020600482015260146024820152734e6f2066756e647320746f20776974686472617760601b6044820152606490fd5b3d156116e8576116dd3d611383565b903d6000602084013e565b606090565b156116f457565b60405162461bcd60e51b815260206004820152600f60248201526e151c985b9cd9995c8819985a5b1959608a1b6044820152606490fd5b61173e61173961013a6105ff565b611647565b61038a60008061174d306107b5565b611768813161176261175e85610d02565b9190565b1161168b565b61177661112d61112d612207565b903161178160405190565b90818003925af16117906116ce565b506116ed565b61038a611637565b61123b610333916117ad600090565b5060336107be565b6117bd6134a3565b61038a6117db565b6103616103336103339290565b610333906117c5565b61038a6117e860006117d2565b6136b5565b61038a6117b5565b6118069061180161375e565b6118e6565b61038a613790565b1561181557565b60405162461bcd60e51b8152602060048201526016602482015275092dcecc2d8d2c840e6c6d0cac8ead8ca40d2dcc8caf60531b6044820152606490fd5b1561185a57565b60405162461bcd60e51b815260206004820152600f60248201526e4e6f742062656e656669636961727960881b6044820152606490fd5b1561189857565b60405162461bcd60e51b81526020600482015260136024820152724e6f20746f6b656e7320636c61696d61626c6560681b6044820152606490fd5b90815260408101929161038a9160200152565b7f42106f9c7b551eea618b396312146946940a732a68f7b8f3c80514e30cc81cc161192f61192b8361013161192661191f610333835490565b831061180e565b61099e565b5090565b611955611946611941600384016104f2565b610361565b61194f33610361565b14611853565b61198d600461196385611ab4565b926119796119716000610d02565b855b11611891565b016119878361142883610503565b906115b3565b6119a18161199a306107b5565b33906138a8565b6119aa336107b5565b9261113c6119b760405190565b928392836118d3565b61038a906117f5565b906103c290610361565b61033360c0610859565b9061038a611a5f60056119ee6119d3565b946119ff6119fb82610a94565b8752565b611a15611a0e60018301610503565b6020880152565b611a2b611a2460028301610503565b6040880152565b611a43611a3a600383016104f2565b606088016119c9565b611a59611a5260048301610503565b6080880152565b01610503565b60a0840152565b610333906119dd565b9190820391821161140f57565b8181029291811591840414171561140f57565b634e487b7160e01b600052601260045260246000fd5b8115611aaf570490565b611a8f565b611acc611ad291611ac3600090565b5061013161099e565b50611a66565b60a08101611ae1610333825190565b4210611b645751611af3905b42611a6f565b90611b14611b02604083015190565b611b0e62015180610d02565b90611a7c565b9182811015611b4e576080611b4261033394611b3d611b4894611b38602088015190565b611a7c565b611aa5565b92015190565b90611a6f565b506103339150611b486080611b42602084015190565b50506103336000610d02565b9061038a939291611b7f6134a3565b611f13565b15611b8b57565b60405162461bcd60e51b8152602060048201526013602482015272496e76616c69642062656e656669636961727960681b6044820152606490fd5b15611bcd57565b60405162461bcd60e51b81526020600482015260126024820152710416d6f756e74206d757374206265203e20360741b6044820152606490fd5b15611c0e57565b60405162461bcd60e51b81526020600482015260126024820152710506572696f64206d757374206265203e20360741b6044820152606490fd5b634e487b7160e01b600052600060045260246000fd5b9160001960089290920291821b911b611044565b9190611c8361033361106593610d02565b908354611c5e565b61038a91600091611c72565b818110611ca2575050565b80611cb06000600193611c8b565b01611c97565b9190601f8111611cc557505050565b611cd761038a93600052602060002090565b906020601f840181900483019310611cf9575b6020601f909101040190611c97565b9091508190611cea565b9060001960089091021c191690565b81611d1c91611d03565b906002021790565b90611d2d815190565b906001600160401b03821161085457611d5082611d4a85546109dc565b85611cb6565b602090601f8311600114611d7e57611065929160009183611d73575b5050611d12565b015190503880611d6c565b601f19831691611d9385600052602060002090565b9260005b818110611dd257509160029391856001969410611db8575b50505002019055565b611dc8910151601f841690611d03565b9055388080611daf565b91936020600181928787015181550195019201611d97565b9061038a91611d24565b6103339051610361565b906001600160a01b0390611044565b90611e1d610333611065926107b5565b8254611dfe565b6005611ea560a061038a94611e43611e3d600083015190565b86611dea565b611e5a611e51602083015190565b600187016115b3565b611e71611e68604083015190565b600287016115b3565b611e89611e8060608301611df4565b60038701611e0d565b611ea0611e97608083015190565b600487016115b3565b015190565b91016115b3565b9190611ebb5761038a91611e24565b611c48565b80549190600160401b8310156108545782611ee391600161038a9501815561099e565b90611eac565b604090610b63611f0b61038a95979694606084019084820360008601526102ea565b966020830152565b61113c611fe17f586635f20887672497479579f6f76516cd0f238e8d01245d26e6b971cec91847949561112d6000611f60611f50611941836117d2565b611f5985610361565b1415611b84565b611f73611f6c82610d02565b8811611bc6565b611f86611f7f82610d02565b8a11611c07565b610131611fd1611fca611f976119d3565b93611fa28a82870152565b611fad8b6020870152565b611fb88d6040870152565b611fc587606087016119c9565b610d02565b6080840152565b611fdc4260a0840152565b611ec0565b94611feb60405190565b93849384611ee9565b9061038a939291611b70565b61200861375e565b6118066120d6565b1561201757565b60405162461bcd60e51b8152602060048201526011602482015270139bdd08199959481c9958da5c1a595b9d607a1b6044820152606490fd5b1561205757565b60405162461bcd60e51b8152602060048201526012602482015271105b1b081d1bdad95b9cc818db185a5b595960721b6044820152606490fd5b1561209857565b60405162461bcd60e51b815260206004820152601660248201527510db1a5999881c195c9a5bd9081b9bdd08195b99195960521b6044820152606490fd5b61038a61013f6120fa6120eb611941836104f2565b6120f433610361565b14612010565b6121c0600682019161210b83610503565b90612129600182019261212361175e61033386610503565b10612050565b61213560028201610518565b156121f2576003612172611aed6005840161123b61216a61033361215884610503565b61216460048a01610503565b90611402565b421015612091565b91019061218161033383610503565b81106121c957505061219561219e91610503565b611b4884610503565b915b6121b36121ad6000610d02565b84611973565b6119878361142883610503565b61199a306107b5565b906121e66121e061219593611b386121ec96610503565b91610503565b90611aa5565b916121a0565b506121956121ec91610503565b61038a612000565b61033360656104f2565b610333603761100a565b6122236134a3565b61038a612314565b1561223257565b60405162461bcd60e51b815260206004820152601360248201527210d85b9b9bdd08199a5b985b1a5e99481e595d606a1b6044820152606490fd5b1561227457565b60405162461bcd60e51b8152602060048201526011602482015270105b1c9958591e48199a5b985b1a5e9959607a1b6044820152606490fd5b156122b457565b60405162461bcd60e51b815260206004820152601460248201527314dbd99d0818d85c081b9bdd081c995858da195960621b6044820152606490fd5b9061ff009060081b611044565b9061230d61033361106592151590565b82546122f0565b7fedfde254cb8ed39d650c9a34251c59d6817fae4cc876cc2ce76669976cf102ee610133612346610333610139610503565b4211801561247a575b6123589061222b565b6123d560096123ce600784016123786123736111bb836105ff565b61226d565b6123a9600160088701926123a461238e85610503565b61239d61175e6103338c610503565b10156122ad565b6122fd565b6101466123b581610503565b6123c261175e6000610d02565b116123e7575b50610503565b9201610503565b906123e26119b760405190565b0390a1565b7fcb75aa8347c098d414422e8cafbbe4e2c1a229f5b27bf425984b2b9792aa787a9061246461243061242661241d888b01610503565b611b0e85610503565b6121e66064610d02565b9161123b6001600361244f612449611b02848701610503565b42611402565b9361245e6002820195866115b3565b0161104e565b906124716119b760405190565b0390a1386123c8565b5061235861248a60088301610503565b61249c61175e61033360018601610503565b1015905061234f565b61038a61221b565b156124b457565b60405162461bcd60e51b815260206004820152602560248201527f45524332303a2064656372656173656420616c6c6f77616e63652062656c6f77604482015264207a65726f60d81b6064820152608490fd5b611028919061142d339261251b8385612a5d565b612527828210156124ad565b0390565b6103339291906125466111bf6111bb6111b63361012f6107be565b90610333929161255761012e6105ff565b156125715761257161124061033361123b336101306107be565b50610333919061393d565b6103339190600061252b565b1561258f57565b60405162461bcd60e51b815260206004820152600d60248201526c092dcecc2d8d2c840d2dcc8caf609b1b6044820152606490fd5b611acc6125ec916125d3606090565b506101316119266125e5610333835490565b8310612588565b805190916125fb602084015190565b92612607604082015190565b9261261460608301611df4565b9261262b60a0612625608086015190565b94015190565b91959493929190565b1561263b57565b60405162461bcd60e51b8152602060048201526013602482015272141c995cd85b19481b9bdd081cdd185c9d1959606a1b6044820152606490fd5b1561267d57565b60405162461bcd60e51b815260206004820152600d60248201526c141c995cd85b1948195b991959609a1b6044820152606490fd5b156126b957565b60405162461bcd60e51b8152602060048201526011602482015270141c995cd85b1948199a5b985b1a5e9959607a1b6044820152606490fd5b61273e6127396111bb6007610133612719612711610333610138610503565b421015612634565b61273361272b61033360068401610503565b421115612676565b016105ff565b6126b2565b61038a6127566111bf6111bb6111b63361012f6107be565b61038a61276161375e565b6118066128fb565b1561277057565b60405162461bcd60e51b81526020600482015260166024820152752132b637bb9036b4b71031b7b73a3934b13aba34b7b760511b6044820152606490fd5b156127b557565b60405162461bcd60e51b815260206004820152601660248201527520b137bb329036b0bc1031b7b73a3934b13aba34b7b760511b6044820152606490fd5b156127fa57565b60405162461bcd60e51b815260206004820152601060248201526f12185c990818d85c081c995858da195960821b6044820152606490fd5b1561283957565b60405162461bcd60e51b815260206004820152600f60248201526e139bdd081dda1a5d195b1a5cdd1959608a1b6044820152606490fd5b1561287757565b60405162461bcd60e51b8152602060048201526014602482015273125b9d985b1a59081d1bdad95b88185b5bdd5b9d60621b6044820152606490fd5b156128ba57565b60405162461bcd60e51b815260206004820152601960248201527813585e0818dbdb9d1c9a589d5d1a5bdb88195e18d959591959603a1b6044820152606490fd5b6129f961013361291a612912610333610135610503565b341015612769565b6119876009600383019261293b61293361033386610503565b3411156127ae565b6129ee6008820161297161295861295183610503565b3490611402565b61296a61175e61033360018801610503565b11156127f3565b61297d60078401610518565b612a39575b6129ce61299a61299460048601610503565b34611a7c565b966129af6129a86000610d02565b8911612870565b6129e761175e6103336129e161123b61013d6129da6129ce33836107be565b61198761295182610503565b33906107be565b93610503565b11156128b3565b019161142883610503565b612a02336107b5565b7f3d0ab7e8209f975ae8d4c319005ac3a64cf3b4ee6503d416abb001d442eb1abc612a2c60405190565b348152806020810161113c565b612a50612a4b6111b63361013e6107be565b612832565b612982565b61038a6126f2565b61033391610d2e61123b92612a70600090565b5060346107be565b15612a7f57565b60405162461bcd60e51b815260206004820152602e60248201527f496e697469616c697a61626c653a20636f6e747261637420697320616c72656160448201526d191e481a5b9a5d1a585b1a5e995960921b6064820152608490fd5b6105126103336103339260ff1690565b9061105e61033361106592612adb565b6103c290611261565b60208101929161038a9190612afb565b612b5a612b246111bb60006105ff565b918280612bf7575b8015612bb2575b612b3c90612a78565b82612b51612b4a6001611261565b6000612aeb565b612ba157612f71565b612b6057565b612b6b6000806122fd565b7f7f26b83ff96e1f2b6a682f133852f6798a09c465da95921460cefb3847402498612b9560405190565b806123e2600182612b04565b612bad600160006122fd565b612f71565b50612bc76111bb612bc2306107b5565b613948565b8015612b335750612b3c612bdb6000610518565b612bef612be86001611261565b9160ff1690565b149050612b33565b50612c026000610518565b612c0f612be86001611261565b10612b2c565b903590601e1936829003018212156102b757018035906001600160401b0382116102b757602001913682900383136102b757565b610333913691610895565b356103338161038c565b15612c6557565b60405162461bcd60e51b8152602060048201526024808201527f4d617820737570706c79206d757374206265203e3d20696e697469616c20737560448201526370706c7960e01b6064820152608490fd5b15612cbd57565b60405162461bcd60e51b8152602060048201526014602482015273496e76616c69642070726573616c65207261746560601b6044820152606490fd5b15612d0057565b60405162461bcd60e51b815260206004820152601c60248201527b53746172742074696d65206d75737420626520696e2066757475726560201b6044820152606490fd5b15612d4b57565b60405162461bcd60e51b815260206004820152602160248201527f456e642074696d65206d7573742062652061667465722073746172742074696d6044820152606560f81b6064820152608490fd5b35610333816103f5565b610333610160610859565b6009611ea561014061038a94612dcf612dc9600083015190565b866115b3565b612ddd611e51602083015190565b612deb611e68604083015190565b612e02612df9606083015190565b600387016115b3565b612e10611e97608083015190565b612e27612e1e60a083015190565b600587016115b3565b612e3e612e3560c083015190565b600687016115b3565b612e6960078601612e5b612e5560e0850151151590565b8261104e565b6101008301511515906122fd565b611ea0612e7861012083015190565b600887016115b3565b9061038a91612daf565b6103336080610859565b6003612ed1606061038a94612eae612dc9600083015190565b612ebc611e51602083015190565b612eca611e68604083015190565b0151151590565b910161104e565b9061038a91612e95565b356103338161036d565b61033360e0610859565b6006611ea560c061038a94612f16612f1060008301611df4565b86611e0d565b612f24611e51602083015190565b612f3d612f346040830151151590565b6002870161104e565b612f4b612df9606083015190565b612f59611e97608083015190565b611ea0612e1e60a083015190565b9061038a91612ef6565b612f7b8180612c15565b90612f896020840184612c15565b92612f949192612c49565b91612f9e91612c49565b612fa7916139db565b612faf6139fd565b612fb7613a1d565b612fbf613a32565b60608101612fcc81612c54565b906040830191612fdb83612c54565b1115612fe690612c5e565b60e0830190612ff482612c54565b9160009261300184610d02565b1061300b90612cb6565b61016085019061301a82612c54565b421061302590612cf9565b61018086019261303484612c54565b61303d84612c54565b1061304790612d44565b61305090612c54565b61305c9061012d6115b3565b61306860a08701612d9a565b6130749061012e61104e565b61308060c08701612d9a565b61308c9061012e6122fd565b61014086019261309b84612c54565b6130a56002610d02565b6130ae91611aa5565b936130b890612c54565b916130c66101008901612c54565b906130d46101208a01612c54565b906130de90612c54565b916130e886612c54565b936130f290612c54565b946130fb612da4565b97613106908a8a0152565b602088015260408701526060860152608085015260a084015260c083015282151560e0830181905261010083015261313d83610d02565b9161314a83610120830152565b61315683610140830152565b61316290610133612e81565b61316f6101a08601612c54565b61317c6101c08701612c54565b613184612e8b565b9161318f9086840152565b602082015261319f836040830152565b83151560608201526131b390610146612ed8565b6131c06101e08601612ee2565b906131ce6102008701612c54565b6131db6102208801612d9a565b6131e86102408901612c54565b916131f66102608a01612c54565b9361320090612c54565b94613209612eec565b97880190613216916119c9565b6020870152151560408601526060850152608084015260a083015260c08201526132429061013f612f67565b61324b306107b5565b9061325590612c54565b61325e91613a86565b60800161326a90612ee2565b61038a906136b5565b61038a90612b14565b61038a906132886134a3565b6132e8565b1561329457565b60405162461bcd60e51b815260206004820152602660248201527f4f776e61626c653a206e6577206f776e657220697320746865207a65726f206160448201526564647265737360d01b6064820152608490fd5b61038a906117e86132fc61194160006117d2565b61330583610361565b141561328d565b61038a9061327c565b1561331c57565b60405162461bcd60e51b8152602060048201526024808201527f45524332303a20617070726f76652066726f6d20746865207a65726f206164646044820152637265737360e01b6064820152608490fd5b1561337457565b60405162461bcd60e51b815260206004820152602260248201527f45524332303a20617070726f766520746f20746865207a65726f206164647265604482015261737360f01b6064820152608490fd5b61344e61344461343e7f8c5be1e5ebec7d5bd14f71427d1e84f3dd0314c0f7b2291e5b200ac8c7c3b9259361342b61341b6133ff60006117d2565b61194161340b82610361565b61341486610361565b1415613315565b61342488610361565b141561336d565b61112d8761161e88610d2e8560346107be565b936107b5565b9361046c60405190565b0390a3565b1561345a57565b60405162461bcd60e51b8152806110de600482016020808252818101527f4f776e61626c653a2063616c6c6572206973206e6f7420746865206f776e6572604082015260600190565b61038a6134ae612207565b6134ba61135733610361565b14613453565b6110289291906134d1833383613b36565b6138a8565b61033360006134e6610333611517565b016104f2565b5061038a6134a3565b61038a906134ec565b6103337f4910fdfa16fed3260ed0e7147f7cc6da11a60208b5b9406d12a635614ffd9143610d02565b9050519061038a8261038c565b906020828203126102b75761033391613527565b1561354f57565b60405162461bcd60e51b815260206004820152602960248201527f45524331393637557067726164653a20756e737570706f727465642070726f786044820152681a58589b195555525160ba1b6064820152608490fd5b91906135be60006135b86103336134fe565b01610518565b156135ce57505061038a90613c0f565b6135da61112d846107b5565b9260206135e660405190565b6352d1902d60e01b815294859060049082905afa60009481613684575b506136645760405162461bcd60e51b815260206004820152602e60248201527f45524331393637557067726164653a206e657720696d706c656d656e7461746960448201526d6f6e206973206e6f74205555505360901b6064820152608490fd5b61367f61038a9461367961175e610333611517565b14613548565b613b6e565b6136a791955060203d6020116136ae575b61369f8183610833565b810190613534565b9338613603565b503d613695565b6136d66136d06136c560656104f2565b61112d846065611e0d565b916107b5565b907f8be0079c531659141344cd1fd0a4f28419497f9722a3daafe3b4186f6b6457e061370160405190565b808061344e565b6103336002610d02565b1561371957565b60405162461bcd60e51b815260206004820152601f60248201527f5265656e7472616e637947756172643a207265656e7472616e742063616c6c006044820152606490fd5b61038a61376b6097610503565b61377f613776613708565b91821415613712565b60976115b3565b6103336001610d02565b61038a61377f613786565b156137a257565b60405162461bcd60e51b815260206004820152602560248201527f45524332303a207472616e736665722066726f6d20746865207a65726f206164604482015264647265737360d81b6064820152608490fd5b156137fc57565b60405162461bcd60e51b815260206004820152602360248201527f45524332303a207472616e7366657220746f20746865207a65726f206164647260448201526265737360e81b6064820152608490fd5b1561385457565b60405162461bcd60e51b815260206004820152602660248201527f45524332303a207472616e7366657220616d6f756e7420657863656564732062604482015265616c616e636560d01b6064820152608490fd5b61344e61344461343e600080516020613e42833981519152936138fd6138ed6138d160006117d2565b6119416138dd82610361565b6138e686610361565b141561379b565b6138f688610361565b14156137f5565b61112d613930876033610d2e6139268c61391a61123b89866107be565b6125278282101561384d565b61161e87846107be565b6119878961031e83610503565b6110289190336138a8565b3b61395661175e6000610d02565b1190565b1561396157565b60405162461bcd60e51b815260206004820152602b60248201527f496e697469616c697a61626c653a20636f6e7472616374206973206e6f74206960448201526a6e697469616c697a696e6760a81b6064820152608490fd5b9061038a916139d16139cc60006105ff565b61395a565b9061038a91613c5f565b9061038a916139ba565b6139f26139cc60006105ff565b61038a61038a613c80565b61038a6139e5565b613a126139cc60006105ff565b61038a61038a613c95565b61038a613a05565b61038a6139cc60006105ff565b61038a613a25565b15613a4157565b60405162461bcd60e51b815260206004820152601f60248201527f45524332303a206d696e7420746f20746865207a65726f2061646472657373006044820152606490fd5b600080516020613e4283398151915261344e61344461343e613aa860006117d2565b613ac4613ab482610361565b613abd88610361565b1415613a3a565b613adc613ad5886114286035610503565b60356115b3565b61112d6139308760336107be565b15613af157565b60405162461bcd60e51b815260206004820152601d60248201527f45524332303a20696e73756666696369656e7420616c6c6f77616e63650000006044820152606490fd5b90613b418183612a5d565b6000198103613b51575b50505050565b613b659361142d9161252782821015613aea565b38808080613b4b565b91613b7883613c9d565b8151613b8761175e6000610d02565b11908115613ba5575b50613b99575050565b613ba291613d26565b50565b905038613b90565b15613bb457565b60405162461bcd60e51b815260206004820152602d60248201527f455243313936373a206e657720696d706c656d656e746174696f6e206973206e60448201526c1bdd08184818dbdb9d1c9858dd609a1b6064820152608490fd5b61038a90613c24613c1f82613948565b613bad565b6000613c31610333611517565b01611e0d565b9061038a91613c496139cc60006105ff565b90613c5861038a926036611dea565b6037611dea565b9061038a91613c37565b613c766139cc60006105ff565b61038a80336136b5565b61038a613c69565b6118066139cc60006105ff565b61038a613c88565b613caa9061112d81613c0f565b7fbc7cd75a20ee27fd9adebab32041f755214dbc6bffa90cc0225b39da2e5c2d3b613cd460405190565b808061113c565b613ce56027611383565b7f416464726573733a206c6f772d6c6576656c2064656c65676174652063616c6c6020820152660819985a5b195960ca1b604082015290565b610333613cdb565b61033391613d32613d1e565b916000806103339493613d43606090565b50602081519101845af4613d556116ce565b91613da7565b15613d6257565b60405162461bcd60e51b815260206004820152601d60248201527f416464726573733a2063616c6c20746f206e6f6e2d636f6e74726163740000006044820152606490fd5b91929015613dd957508151613dbf61175e6000610d02565b14613dc8575090565b613dd461033391613948565b613d5b565b8290613de3825190565b613df061175e6000610d02565b1115613dff5750805190602001fd5b6110de90613e0c60405190565b62461bcd60e51b81529182916004830161032256fe46756e6374696f6e206d7573742062652063616c6c6564207468726f75676820ddf252ad1be2c89b69c2b068fc378daa952ba7f163c4a11628f55a4df523b3efa2646970667358221220c2a5890512ae7fcd50c000810d9db294cc4730db623393f6b517feddfc6fcad464736f6c63430008160033","opcodes":"PUSH1 0xA0 PUSH1 0x40 MSTORE CALLVALUE PUSH3 0x36 JUMPI PUSH3 0x14 PUSH3 0x3B JUMP JUMPDEST PUSH1 0x40 MLOAD PUSH2 0x3E97 PUSH3 0x93 DUP3 CODECOPY PUSH1 0x80 MLOAD DUP2 DUP2 DUP2 PUSH2 0x132B ADD MSTORE PUSH2 0x14E8 ADD MSTORE PUSH2 0x3E97 SWAP1 RETURN JUMPDEST PUSH1 0x0 DUP1 REVERT JUMPDEST PUSH3 0x45 PUSH3 0x82 JUMP JUMPDEST JUMP JUMPDEST PUSH3 0x5D SWAP1 PUSH3 0x60 SWAP1 PUSH1 0x1 PUSH1 0x1 PUSH1 0xA0 SHL SUB AND DUP3 JUMP JUMPDEST SWAP1 JUMP JUMPDEST PUSH1 0x1 PUSH1 0x1 PUSH1 0xA0 SHL SUB AND SWAP1 JUMP JUMPDEST PUSH3 0x5D SWAP1 PUSH3 0x47 JUMP JUMPDEST PUSH3 0x5D SWAP1 PUSH3 0x6C JUMP JUMPDEST PUSH3 0x8D ADDRESS PUSH3 0x77 JUMP JUMPDEST PUSH1 0x80 MSTORE JUMP INVALID PUSH1 0x80 PUSH1 0x40 MSTORE PUSH1 0x4 CALLDATASIZE LT ISZERO PUSH2 0x12 JUMPI PUSH1 0x0 DUP1 REVERT JUMPDEST PUSH1 0x0 CALLDATALOAD PUSH1 0xE0 SHR DUP1 PUSH4 0x6FDDE03 EQ PUSH2 0x2B2 JUMPI DUP1 PUSH4 0x95EA7B3 EQ PUSH2 0x2AD JUMPI DUP1 PUSH4 0xC424284 EQ PUSH2 0x2A8 JUMPI DUP1 PUSH4 0x13083617 EQ PUSH2 0x2A3 JUMPI DUP1 PUSH4 0x153B0D1E EQ PUSH2 0x29E JUMPI DUP1 PUSH4 0x18160DDD EQ PUSH2 0x299 JUMPI DUP1 PUSH4 0x23B872DD EQ PUSH2 0x294 JUMPI DUP1 PUSH4 0x26232A2E EQ PUSH2 0x28F JUMPI DUP1 PUSH4 0x2EDF0869 EQ PUSH2 0x28A JUMPI DUP1 PUSH4 0x313CE567 EQ PUSH2 0x285 JUMPI DUP1 PUSH4 0x3659CFE6 EQ PUSH2 0x280 JUMPI DUP1 PUSH4 0x39509351 EQ PUSH2 0x27B JUMPI DUP1 PUSH4 0x42E94C90 EQ PUSH2 0x276 JUMPI DUP1 PUSH4 0x4F1EF286 EQ PUSH2 0x271 JUMPI DUP1 PUSH4 0x52D1902D EQ PUSH2 0x26C JUMPI DUP1 PUSH4 0x644FAB74 EQ PUSH2 0x267 JUMPI DUP1 PUSH4 0x64A88D68 EQ PUSH2 0x262 JUMPI DUP1 PUSH4 0x6D3CBE21 EQ PUSH2 0x25D JUMPI DUP1 PUSH4 0x70A08231 EQ PUSH2 0x258 JUMPI DUP1 PUSH4 0x715018A6 EQ PUSH2 0x253 JUMPI DUP1 PUSH4 0x7935510B EQ PUSH2 0x24E JUMPI DUP1 PUSH4 0x7D8CA242 EQ PUSH2 0x249 JUMPI DUP1 PUSH4 0x7F76B223 EQ PUSH2 0x244 JUMPI DUP1 PUSH4 0x8BACF014 EQ PUSH2 0x23F JUMPI DUP1 PUSH4 0x8BDC444D EQ PUSH2 0x23A JUMPI DUP1 PUSH4 0x8DA5CB5B EQ PUSH2 0x235 JUMPI DUP1 PUSH4 0x91ED2596 EQ PUSH2 0x230 JUMPI DUP1 PUSH4 0x95D89B41 EQ PUSH2 0x22B JUMPI DUP1 PUSH4 0x9B19251A EQ PUSH2 0x226 JUMPI DUP1 PUSH4 0xA0A6E940 EQ PUSH2 0x221 JUMPI DUP1 PUSH4 0xA457C2D7 EQ PUSH2 0x21C JUMPI DUP1 PUSH4 0xA9059CBB EQ PUSH2 0x217 JUMPI DUP1 PUSH4 0xBEB8F883 EQ PUSH2 0x212 JUMPI DUP1 PUSH4 0xBFFB691D EQ PUSH2 0x20D JUMPI DUP1 PUSH4 0xCBA4CBD3 EQ PUSH2 0x208 JUMPI DUP1 PUSH4 0xD4EF85CC EQ PUSH2 0x203 JUMPI DUP1 PUSH4 0xD5ABEB01 EQ PUSH2 0x1FE JUMPI DUP1 PUSH4 0xD7BB99BA EQ PUSH2 0x1F9 JUMPI DUP1 PUSH4 0xDBAC26E9 EQ PUSH2 0x1F4 JUMPI DUP1 PUSH4 0xDD62ED3E EQ PUSH2 0x1EF JUMPI DUP1 PUSH4 0xF1E0699D EQ PUSH2 0x1EA JUMPI PUSH4 0xF2FDE38B SUB PUSH2 0x2B7 JUMPI PUSH2 0xFF2 JUMP JUMPDEST PUSH2 0xFDA JUMP JUMPDEST PUSH2 0xF8A JUMP JUMPDEST PUSH2 0xF53 JUMP JUMPDEST PUSH2 0xF2F JUMP JUMPDEST PUSH2 0xF14 JUMP JUMPDEST PUSH2 0xED6 JUMP JUMPDEST PUSH2 0xE53 JUMP JUMPDEST PUSH2 0xE2B JUMP JUMPDEST PUSH2 0xE03 JUMP JUMPDEST PUSH2 0xDE7 JUMP JUMPDEST PUSH2 0xDCB JUMP JUMPDEST PUSH2 0xDB3 JUMP JUMPDEST PUSH2 0xD98 JUMP JUMPDEST PUSH2 0xD4F JUMP JUMPDEST PUSH2 0xD33 JUMP JUMPDEST PUSH2 0xCBF JUMP JUMPDEST PUSH2 0xC97 JUMP JUMPDEST PUSH2 0xC7B JUMP JUMPDEST PUSH2 0xC12 JUMP JUMPDEST PUSH2 0xBE6 JUMP JUMPDEST PUSH2 0xBCE JUMP JUMPDEST PUSH2 0xBB6 JUMP JUMPDEST PUSH2 0xB9B JUMP JUMPDEST PUSH2 0xB67 JUMP JUMPDEST PUSH2 0x95C JUMP JUMPDEST PUSH2 0x943 JUMP JUMPDEST PUSH2 0x928 JUMP JUMPDEST PUSH2 0x914 JUMP JUMPDEST PUSH2 0x802 JUMP JUMPDEST PUSH2 0x77C JUMP JUMPDEST PUSH2 0x764 JUMP JUMPDEST PUSH2 0x721 JUMP JUMPDEST PUSH2 0x6E7 JUMP JUMPDEST PUSH2 0x5BF JUMP JUMPDEST PUSH2 0x4D6 JUMP JUMPDEST PUSH2 0x492 JUMP JUMPDEST PUSH2 0x479 JUMP JUMPDEST PUSH2 0x44B JUMP JUMPDEST PUSH2 0x42D JUMP JUMPDEST PUSH2 0x3C6 JUMP JUMPDEST PUSH2 0x336 JUMP JUMPDEST PUSH1 0x0 DUP1 REVERT JUMPDEST PUSH1 0x0 SWAP2 SUB SLT PUSH2 0x2B7 JUMPI JUMP JUMPDEST PUSH1 0x0 JUMPDEST DUP4 DUP2 LT PUSH2 0x2DA JUMPI POP POP PUSH1 0x0 SWAP2 ADD MSTORE JUMP JUMPDEST DUP2 DUP2 ADD MLOAD DUP4 DUP3 ADD MSTORE PUSH1 0x20 ADD PUSH2 0x2CA JUMP JUMPDEST PUSH2 0x30B PUSH2 0x314 PUSH1 0x20 SWAP4 PUSH2 0x31E SWAP4 PUSH2 0x2FF DUP2 MLOAD SWAP1 JUMP JUMPDEST DUP1 DUP4 MSTORE SWAP4 DUP5 SWAP3 PUSH1 0x20 ADD SWAP1 JUMP JUMPDEST SWAP6 DUP7 SWAP2 ADD PUSH2 0x2C7 JUMP JUMPDEST PUSH1 0x1F ADD PUSH1 0x1F NOT AND SWAP1 JUMP JUMPDEST ADD SWAP1 JUMP JUMPDEST PUSH1 0x20 DUP1 DUP3 MSTORE PUSH2 0x333 SWAP3 SWAP2 ADD SWAP1 PUSH2 0x2EA JUMP JUMPDEST SWAP1 JUMP JUMPDEST CALLVALUE PUSH2 0x2B7 JUMPI PUSH2 0x346 CALLDATASIZE PUSH1 0x4 PUSH2 0x2BC JUMP JUMPDEST PUSH2 0x35D PUSH2 0x351 PUSH2 0x1013 JUMP JUMPDEST PUSH1 0x40 MLOAD SWAP2 DUP3 SWAP2 DUP3 PUSH2 0x322 JUMP JUMPDEST SUB SWAP1 RETURN JUMPDEST PUSH1 0x1 PUSH1 0x1 PUSH1 0xA0 SHL SUB AND SWAP1 JUMP JUMPDEST PUSH2 0x376 DUP2 PUSH2 0x361 JUMP JUMPDEST SUB PUSH2 0x2B7 JUMPI JUMP JUMPDEST SWAP1 POP CALLDATALOAD SWAP1 PUSH2 0x38A DUP3 PUSH2 0x36D JUMP JUMPDEST JUMP JUMPDEST DUP1 PUSH2 0x376 JUMP JUMPDEST SWAP1 POP CALLDATALOAD SWAP1 PUSH2 0x38A DUP3 PUSH2 0x38C JUMP JUMPDEST SWAP2 SWAP1 PUSH1 0x40 DUP4 DUP3 SUB SLT PUSH2 0x2B7 JUMPI PUSH2 0x333 SWAP1 PUSH1 0x20 PUSH2 0x3BB DUP3 DUP7 PUSH2 0x37D JUMP JUMPDEST SWAP5 ADD PUSH2 0x392 JUMP JUMPDEST SWAP1 MSTORE JUMP JUMPDEST CALLVALUE PUSH2 0x2B7 JUMPI PUSH2 0x35D PUSH2 0x3E2 PUSH2 0x3DC CALLDATASIZE PUSH1 0x4 PUSH2 0x39F JUMP JUMPDEST SWAP1 PUSH2 0x101D JUMP JUMPDEST PUSH1 0x40 MLOAD JUMPDEST SWAP2 DUP3 SWAP2 DUP3 SWAP1 ISZERO ISZERO DUP2 MSTORE PUSH1 0x20 ADD SWAP1 JUMP JUMPDEST DUP1 ISZERO ISZERO PUSH2 0x376 JUMP JUMPDEST SWAP1 POP CALLDATALOAD SWAP1 PUSH2 0x38A DUP3 PUSH2 0x3F5 JUMP JUMPDEST SWAP2 SWAP1 PUSH1 0x40 DUP4 DUP3 SUB SLT PUSH2 0x2B7 JUMPI PUSH2 0x333 SWAP1 PUSH1 0x20 PUSH2 0x426 DUP3 DUP7 PUSH2 0x37D JUMP JUMPDEST SWAP5 ADD PUSH2 0x3FD JUMP JUMPDEST CALLVALUE PUSH2 0x2B7 JUMPI PUSH2 0x446 PUSH2 0x440 CALLDATASIZE PUSH1 0x4 PUSH2 0x40A JUMP JUMPDEST SWAP1 PUSH2 0x107E JUMP JUMPDEST PUSH1 0x40 MLOAD STOP JUMPDEST CALLVALUE PUSH2 0x2B7 JUMPI PUSH2 0x45B CALLDATASIZE PUSH1 0x4 PUSH2 0x2BC JUMP JUMPDEST PUSH2 0x35D PUSH2 0x468 PUSH2 0x131 SLOAD SWAP1 JUMP JUMPDEST PUSH1 0x40 MLOAD JUMPDEST SWAP2 DUP3 SWAP2 DUP3 SWAP1 DUP2 MSTORE PUSH1 0x20 ADD SWAP1 JUMP JUMPDEST CALLVALUE PUSH2 0x2B7 JUMPI PUSH2 0x446 PUSH2 0x48C CALLDATASIZE PUSH1 0x4 PUSH2 0x40A JUMP JUMPDEST SWAP1 PUSH2 0x1141 JUMP JUMPDEST CALLVALUE PUSH2 0x2B7 JUMPI PUSH2 0x4A2 CALLDATASIZE PUSH1 0x4 PUSH2 0x2BC JUMP JUMPDEST PUSH2 0x35D PUSH2 0x468 PUSH2 0x114B JUMP JUMPDEST SWAP1 SWAP2 PUSH1 0x60 DUP3 DUP5 SUB SLT PUSH2 0x2B7 JUMPI PUSH2 0x333 PUSH2 0x4C6 DUP5 DUP5 PUSH2 0x37D JUMP JUMPDEST SWAP4 PUSH1 0x40 PUSH2 0x3BB DUP3 PUSH1 0x20 DUP8 ADD PUSH2 0x37D JUMP JUMPDEST CALLVALUE PUSH2 0x2B7 JUMPI PUSH2 0x35D PUSH2 0x3E2 PUSH2 0x4EC CALLDATASIZE PUSH1 0x4 PUSH2 0x4AD JUMP JUMPDEST SWAP2 PUSH2 0x1254 JUMP JUMPDEST PUSH2 0x333 SWAP1 SLOAD PUSH2 0x361 JUMP JUMPDEST PUSH2 0x333 SWAP1 DUP2 JUMP JUMPDEST PUSH2 0x333 SWAP1 SLOAD PUSH2 0x4FC JUMP JUMPDEST PUSH2 0x333 SWAP1 JUMPDEST PUSH1 0xFF AND SWAP1 JUMP JUMPDEST PUSH2 0x333 SWAP1 SLOAD PUSH2 0x50D JUMP JUMPDEST PUSH2 0x13F PUSH2 0x52E DUP2 PUSH2 0x4F2 JUMP JUMPDEST SWAP2 PUSH2 0x53B PUSH1 0x1 DUP4 ADD PUSH2 0x503 JUMP JUMPDEST SWAP2 PUSH2 0x548 PUSH1 0x2 DUP3 ADD PUSH2 0x518 JUMP JUMPDEST SWAP2 PUSH2 0x555 PUSH1 0x3 DUP4 ADD PUSH2 0x503 JUMP JUMPDEST SWAP2 PUSH2 0x562 PUSH1 0x4 DUP3 ADD PUSH2 0x503 JUMP JUMPDEST SWAP2 PUSH2 0x333 PUSH1 0x6 PUSH2 0x574 PUSH1 0x5 DUP6 ADD PUSH2 0x503 JUMP JUMPDEST SWAP4 ADD PUSH2 0x503 JUMP JUMPDEST PUSH2 0x3C2 SWAP1 PUSH2 0x361 JUMP JUMPDEST SWAP5 SWAP3 SWAP1 SWAP8 SWAP7 SWAP6 SWAP4 SWAP2 PUSH1 0xE0 DUP7 ADD SWAP9 PUSH1 0x0 DUP8 ADD PUSH2 0x59E SWAP2 PUSH2 0x57B JUMP JUMPDEST PUSH1 0x20 DUP7 ADD MSTORE ISZERO ISZERO PUSH1 0x40 DUP6 ADD MSTORE PUSH1 0x60 DUP5 ADD MSTORE PUSH1 0x80 DUP4 ADD MSTORE PUSH1 0xA0 DUP3 ADD MSTORE PUSH1 0xC0 ADD MSTORE JUMP JUMPDEST CALLVALUE PUSH2 0x2B7 JUMPI PUSH2 0x5CF CALLDATASIZE PUSH1 0x4 PUSH2 0x2BC JUMP JUMPDEST PUSH2 0x35D PUSH2 0x5DA PUSH2 0x522 JUMP JUMPDEST SWAP4 PUSH2 0x5EA SWAP8 SWAP6 SWAP8 SWAP4 SWAP2 SWAP4 PUSH1 0x40 MLOAD SWAP1 JUMP JUMPDEST SWAP8 DUP9 SWAP8 DUP9 PUSH2 0x584 JUMP JUMPDEST PUSH2 0x333 SWAP1 PUSH1 0x8 SHR PUSH2 0x512 JUMP JUMPDEST PUSH2 0x333 SWAP1 SLOAD PUSH2 0x5F3 JUMP JUMPDEST PUSH2 0x133 PUSH2 0x615 DUP2 PUSH2 0x503 JUMP JUMPDEST SWAP2 PUSH2 0x622 PUSH1 0x1 DUP4 ADD PUSH2 0x503 JUMP JUMPDEST SWAP2 PUSH2 0x62F PUSH1 0x2 DUP3 ADD PUSH2 0x503 JUMP JUMPDEST SWAP2 PUSH2 0x63C PUSH1 0x3 DUP4 ADD PUSH2 0x503 JUMP JUMPDEST SWAP2 PUSH2 0x649 PUSH1 0x4 DUP3 ADD PUSH2 0x503 JUMP JUMPDEST SWAP2 PUSH2 0x656 PUSH1 0x5 DUP4 ADD PUSH2 0x503 JUMP JUMPDEST SWAP2 PUSH2 0x663 PUSH1 0x6 DUP3 ADD PUSH2 0x503 JUMP JUMPDEST SWAP2 PUSH2 0x670 PUSH1 0x7 DUP4 ADD PUSH2 0x518 JUMP JUMPDEST SWAP2 PUSH2 0x67D PUSH1 0x7 DUP3 ADD PUSH2 0x5FF JUMP JUMPDEST SWAP2 PUSH2 0x333 PUSH1 0x9 PUSH2 0x574 PUSH1 0x8 DUP6 ADD PUSH2 0x503 JUMP JUMPDEST SWAP9 SWAP7 SWAP5 SWAP3 SWAP1 SWAP12 SWAP11 SWAP10 SWAP8 SWAP6 SWAP4 SWAP2 PUSH2 0x160 DUP11 ADD SWAP13 PUSH1 0x0 DUP12 ADD PUSH2 0x6AD SWAP2 SWAP1 MSTORE JUMP JUMPDEST PUSH1 0x20 DUP11 ADD MSTORE PUSH1 0x40 DUP10 ADD MSTORE PUSH1 0x60 DUP9 ADD MSTORE PUSH1 0x80 DUP8 ADD MSTORE PUSH1 0xA0 DUP7 ADD MSTORE PUSH1 0xC0 DUP6 ADD MSTORE ISZERO ISZERO PUSH1 0xE0 DUP5 ADD MSTORE ISZERO ISZERO PUSH2 0x100 DUP4 ADD MSTORE PUSH2 0x120 DUP3 ADD MSTORE PUSH2 0x140 ADD MSTORE JUMP JUMPDEST CALLVALUE PUSH2 0x2B7 JUMPI PUSH2 0x6F7 CALLDATASIZE PUSH1 0x4 PUSH2 0x2BC JUMP JUMPDEST PUSH2 0x35D PUSH2 0x702 PUSH2 0x609 JUMP JUMPDEST SWAP8 PUSH2 0x718 SWAP12 SWAP10 SWAP12 SWAP8 SWAP2 SWAP8 SWAP7 SWAP3 SWAP7 SWAP6 SWAP4 SWAP6 PUSH1 0x40 MLOAD SWAP1 JUMP JUMPDEST SWAP12 DUP13 SWAP12 DUP13 PUSH2 0x68F JUMP JUMPDEST CALLVALUE PUSH2 0x2B7 JUMPI PUSH2 0x731 CALLDATASIZE PUSH1 0x4 PUSH2 0x2BC JUMP JUMPDEST PUSH2 0x35D PUSH2 0x73C PUSH2 0x126E JUMP JUMPDEST PUSH1 0x40 MLOAD SWAP2 DUP3 SWAP2 DUP3 PUSH1 0xFF SWAP1 SWAP2 AND DUP2 MSTORE PUSH1 0x20 ADD SWAP1 JUMP JUMPDEST SWAP1 PUSH1 0x20 DUP3 DUP3 SUB SLT PUSH2 0x2B7 JUMPI PUSH2 0x333 SWAP2 PUSH2 0x37D JUMP JUMPDEST CALLVALUE PUSH2 0x2B7 JUMPI PUSH2 0x446 PUSH2 0x777 CALLDATASIZE PUSH1 0x4 PUSH2 0x750 JUMP JUMPDEST PUSH2 0x13E3 JUMP JUMPDEST CALLVALUE PUSH2 0x2B7 JUMPI PUSH2 0x35D PUSH2 0x3E2 PUSH2 0x792 CALLDATASIZE PUSH1 0x4 PUSH2 0x39F JUMP JUMPDEST SWAP1 PUSH2 0x1414 JUMP JUMPDEST PUSH2 0x333 SWAP1 PUSH2 0x361 SWAP1 PUSH1 0x1 PUSH1 0x1 PUSH1 0xA0 SHL SUB AND DUP3 JUMP JUMPDEST PUSH2 0x333 SWAP1 PUSH2 0x798 JUMP JUMPDEST PUSH2 0x333 SWAP1 PUSH2 0x7AC JUMP JUMPDEST SWAP1 PUSH2 0x7C8 SWAP1 PUSH2 0x7B5 JUMP JUMPDEST PUSH1 0x0 MSTORE PUSH1 0x20 MSTORE PUSH1 0x40 PUSH1 0x0 KECCAK256 SWAP1 JUMP JUMPDEST PUSH2 0x333 SWAP2 PUSH1 0x8 MUL SHR DUP2 JUMP JUMPDEST SWAP1 PUSH2 0x333 SWAP2 SLOAD PUSH2 0x7D6 JUMP JUMPDEST PUSH1 0x0 PUSH2 0x7FD PUSH2 0x333 SWAP3 PUSH2 0x13D PUSH2 0x7BE JUMP JUMPDEST PUSH2 0x7E1 JUMP JUMPDEST CALLVALUE PUSH2 0x2B7 JUMPI PUSH2 0x35D PUSH2 0x468 PUSH2 0x818 CALLDATASIZE PUSH1 0x4 PUSH2 0x750 JUMP JUMPDEST PUSH2 0x7EC JUMP JUMPDEST PUSH4 0x4E487B71 PUSH1 0xE0 SHL PUSH1 0x0 MSTORE PUSH1 0x41 PUSH1 0x4 MSTORE PUSH1 0x24 PUSH1 0x0 REVERT JUMPDEST SWAP1 PUSH1 0x1F ADD PUSH1 0x1F NOT AND DUP2 ADD SWAP1 DUP2 LT PUSH1 0x1 PUSH1 0x1 PUSH1 0x40 SHL SUB DUP3 GT OR PUSH2 0x854 JUMPI PUSH1 0x40 MSTORE JUMP JUMPDEST PUSH2 0x81D JUMP JUMPDEST SWAP1 PUSH2 0x38A PUSH2 0x866 PUSH1 0x40 MLOAD SWAP1 JUMP JUMPDEST SWAP3 DUP4 PUSH2 0x833 JUMP JUMPDEST PUSH1 0x1 PUSH1 0x1 PUSH1 0x40 SHL SUB DUP2 GT PUSH2 0x854 JUMPI PUSH1 0x20 SWAP1 PUSH1 0x1F ADD PUSH1 0x1F NOT AND ADD SWAP1 JUMP JUMPDEST SWAP1 DUP3 PUSH1 0x0 SWAP4 SWAP3 DUP3 CALLDATACOPY ADD MSTORE JUMP JUMPDEST SWAP1 SWAP3 SWAP2 SWAP3 PUSH2 0x8AA PUSH2 0x8A5 DUP3 PUSH2 0x86D JUMP JUMPDEST PUSH2 0x859 JUMP JUMPDEST SWAP4 DUP2 DUP6 MSTORE DUP2 DUP4 ADD GT PUSH2 0x2B7 JUMPI PUSH2 0x38A SWAP2 PUSH1 0x20 DUP6 ADD SWAP1 PUSH2 0x889 JUMP JUMPDEST SWAP1 DUP1 PUSH1 0x1F DUP4 ADD SLT ISZERO PUSH2 0x2B7 JUMPI DUP2 PUSH1 0x20 PUSH2 0x333 SWAP4 CALLDATALOAD SWAP2 ADD PUSH2 0x895 JUMP JUMPDEST SWAP2 SWAP1 SWAP2 PUSH1 0x40 DUP2 DUP5 SUB SLT PUSH2 0x2B7 JUMPI PUSH2 0x8F6 DUP4 DUP3 PUSH2 0x37D JUMP JUMPDEST SWAP3 PUSH1 0x20 DUP3 ADD CALLDATALOAD PUSH1 0x1 PUSH1 0x1 PUSH1 0x40 SHL SUB DUP2 GT PUSH2 0x2B7 JUMPI PUSH2 0x333 SWAP3 ADD PUSH2 0x8C4 JUMP JUMPDEST PUSH2 0x446 PUSH2 0x922 CALLDATASIZE PUSH1 0x4 PUSH2 0x8DF JUMP JUMPDEST SWAP1 PUSH2 0x1459 JUMP JUMPDEST CALLVALUE PUSH2 0x2B7 JUMPI PUSH2 0x938 CALLDATASIZE PUSH1 0x4 PUSH2 0x2BC JUMP JUMPDEST PUSH2 0x35D PUSH2 0x468 PUSH2 0x1549 JUMP JUMPDEST CALLVALUE PUSH2 0x2B7 JUMPI PUSH2 0x446 PUSH2 0x956 CALLDATASIZE PUSH1 0x4 PUSH2 0x39F JUMP JUMPDEST SWAP1 PUSH2 0x162D JUMP JUMPDEST CALLVALUE PUSH2 0x2B7 JUMPI PUSH2 0x96C CALLDATASIZE PUSH1 0x4 PUSH2 0x2BC JUMP JUMPDEST PUSH2 0x446 PUSH2 0x1796 JUMP JUMPDEST SWAP1 PUSH1 0x20 DUP3 DUP3 SUB SLT PUSH2 0x2B7 JUMPI PUSH2 0x333 SWAP2 PUSH2 0x392 JUMP JUMPDEST PUSH4 0x4E487B71 PUSH1 0xE0 SHL PUSH1 0x0 MSTORE PUSH1 0x32 PUSH1 0x4 MSTORE PUSH1 0x24 PUSH1 0x0 REVERT JUMPDEST DUP1 SLOAD DUP3 LT ISZERO PUSH2 0x9C1 JUMPI PUSH2 0x9B8 PUSH1 0x6 SWAP2 PUSH1 0x0 MSTORE PUSH1 0x20 PUSH1 0x0 KECCAK256 SWAP1 JUMP JUMPDEST SWAP2 MUL ADD SWAP1 PUSH1 0x0 SWAP1 JUMP JUMPDEST PUSH2 0x988 JUMP JUMPDEST PUSH4 0x4E487B71 PUSH1 0xE0 SHL PUSH1 0x0 MSTORE PUSH1 0x22 PUSH1 0x4 MSTORE PUSH1 0x24 PUSH1 0x0 REVERT JUMPDEST SWAP1 PUSH1 0x1 PUSH1 0x2 DUP4 DIV SWAP3 AND DUP1 ISZERO PUSH2 0x9FC JUMPI JUMPDEST PUSH1 0x20 DUP4 LT EQ PUSH2 0x9F7 JUMPI JUMP JUMPDEST PUSH2 0x9C6 JUMP JUMPDEST SWAP2 PUSH1 0x7F AND SWAP2 PUSH2 0x9EC JUMP JUMPDEST DUP1 SLOAD PUSH1 0x0 SWAP4 SWAP3 SWAP2 PUSH2 0xA23 PUSH2 0xA19 DUP4 PUSH2 0x9DC JUMP JUMPDEST DUP1 DUP6 MSTORE SWAP4 PUSH1 0x20 ADD SWAP1 JUMP JUMPDEST SWAP2 PUSH1 0x1 DUP2 AND SWAP1 DUP2 ISZERO PUSH2 0xA75 JUMPI POP PUSH1 0x1 EQ PUSH2 0xA3C JUMPI POP POP POP JUMP JUMPDEST PUSH2 0xA4F SWAP2 SWAP3 SWAP4 SWAP5 POP PUSH1 0x0 MSTORE PUSH1 0x20 PUSH1 0x0 KECCAK256 SWAP1 JUMP JUMPDEST SWAP2 PUSH1 0x0 SWAP3 JUMPDEST DUP2 DUP5 LT PUSH2 0xA61 JUMPI POP POP ADD SWAP1 JUMP JUMPDEST DUP1 SLOAD DUP5 DUP5 ADD MSTORE PUSH1 0x20 SWAP1 SWAP4 ADD SWAP3 PUSH1 0x1 ADD PUSH2 0xA54 JUMP JUMPDEST SWAP3 SWAP5 SWAP6 POP POP POP PUSH1 0xFF NOT AND DUP3 MSTORE ISZERO ISZERO PUSH1 0x20 MUL ADD SWAP1 JUMP JUMPDEST SWAP1 PUSH2 0x333 SWAP2 PUSH2 0xA06 JUMP JUMPDEST SWAP1 PUSH2 0x38A PUSH2 0xAAE SWAP3 PUSH2 0xAA5 PUSH1 0x40 MLOAD SWAP1 JUMP JUMPDEST SWAP4 DUP5 DUP1 SWAP3 PUSH2 0xA8A JUMP JUMPDEST SUB DUP4 PUSH2 0x833 JUMP JUMPDEST PUSH2 0x131 SWAP1 PUSH2 0xAC1 DUP3 SLOAD SWAP1 JUMP JUMPDEST DUP2 LT ISZERO PUSH2 0x2B7 JUMPI PUSH2 0xAD1 SWAP2 PUSH2 0x99E JUMP JUMPDEST POP SWAP1 PUSH2 0xADC DUP3 PUSH2 0xA94 JUMP JUMPDEST SWAP2 PUSH2 0xAE9 PUSH1 0x1 DUP3 ADD PUSH2 0x503 JUMP JUMPDEST SWAP2 PUSH2 0xAF6 PUSH1 0x2 DUP4 ADD PUSH2 0x503 JUMP JUMPDEST SWAP2 PUSH2 0xB03 PUSH1 0x3 DUP3 ADD PUSH2 0x4F2 JUMP JUMPDEST SWAP2 PUSH2 0x333 PUSH1 0x5 PUSH2 0x574 PUSH1 0x4 DUP6 ADD PUSH2 0x503 JUMP JUMPDEST SWAP2 SWAP7 SWAP6 SWAP4 SWAP5 PUSH2 0xB5C PUSH2 0x38A SWAP7 PUSH2 0xB52 PUSH1 0xA0 SWAP7 PUSH2 0xB4B PUSH2 0xB43 PUSH2 0xB63 SWAP8 PUSH1 0xC0 DUP11 ADD SWAP1 DUP11 DUP3 SUB PUSH1 0x0 DUP13 ADD MSTORE PUSH2 0x2EA JUMP JUMPDEST SWAP13 PUSH1 0x20 DUP10 ADD MSTORE JUMP JUMPDEST PUSH1 0x40 DUP8 ADD MSTORE JUMP JUMPDEST PUSH1 0x60 DUP6 ADD SWAP1 PUSH2 0x57B JUMP JUMPDEST PUSH1 0x80 DUP4 ADD MSTORE JUMP JUMPDEST ADD MSTORE JUMP JUMPDEST CALLVALUE PUSH2 0x2B7 JUMPI PUSH2 0x35D PUSH2 0xB82 PUSH2 0xB7D CALLDATASIZE PUSH1 0x4 PUSH2 0x974 JUMP JUMPDEST PUSH2 0xAB5 JUMP JUMPDEST SWAP3 PUSH2 0xB92 SWAP7 SWAP5 SWAP7 SWAP3 SWAP2 SWAP3 PUSH1 0x40 MLOAD SWAP1 JUMP JUMPDEST SWAP7 DUP8 SWAP7 DUP8 PUSH2 0xB15 JUMP JUMPDEST CALLVALUE PUSH2 0x2B7 JUMPI PUSH2 0x35D PUSH2 0x468 PUSH2 0xBB1 CALLDATASIZE PUSH1 0x4 PUSH2 0x750 JUMP JUMPDEST PUSH2 0x179E JUMP JUMPDEST CALLVALUE PUSH2 0x2B7 JUMPI PUSH2 0xBC6 CALLDATASIZE PUSH1 0x4 PUSH2 0x2BC JUMP JUMPDEST PUSH2 0x446 PUSH2 0x17ED JUMP JUMPDEST CALLVALUE PUSH2 0x2B7 JUMPI PUSH2 0x446 PUSH2 0xBE1 CALLDATASIZE PUSH1 0x4 PUSH2 0x974 JUMP JUMPDEST PUSH2 0x19C0 JUMP JUMPDEST CALLVALUE PUSH2 0x2B7 JUMPI PUSH2 0x35D PUSH2 0x468 PUSH2 0xBFC CALLDATASIZE PUSH1 0x4 PUSH2 0x974 JUMP JUMPDEST PUSH2 0x1AB4 JUMP JUMPDEST PUSH1 0x0 PUSH2 0x7FD PUSH2 0x333 SWAP3 PUSH2 0x130 PUSH2 0x7BE JUMP JUMPDEST CALLVALUE PUSH2 0x2B7 JUMPI PUSH2 0x35D PUSH2 0x468 PUSH2 0xC28 CALLDATASIZE PUSH1 0x4 PUSH2 0x750 JUMP JUMPDEST PUSH2 0xC01 JUMP JUMPDEST PUSH1 0x80 DUP2 DUP4 SUB SLT PUSH2 0x2B7 JUMPI DUP1 CALLDATALOAD PUSH1 0x1 PUSH1 0x1 PUSH1 0x40 SHL SUB DUP2 GT PUSH2 0x2B7 JUMPI DUP3 PUSH2 0xC53 SWAP2 DUP4 ADD PUSH2 0x8C4 JUMP JUMPDEST SWAP3 PUSH2 0x333 PUSH2 0xC64 DUP5 PUSH1 0x20 DUP6 ADD PUSH2 0x392 JUMP JUMPDEST SWAP4 PUSH1 0x60 PUSH2 0xC74 DUP3 PUSH1 0x40 DUP8 ADD PUSH2 0x392 JUMP JUMPDEST SWAP5 ADD PUSH2 0x37D JUMP JUMPDEST CALLVALUE PUSH2 0x2B7 JUMPI PUSH2 0x446 PUSH2 0xC8E CALLDATASIZE PUSH1 0x4 PUSH2 0xC2D JUMP JUMPDEST SWAP3 SWAP2 SWAP1 SWAP2 PUSH2 0x1FF4 JUMP JUMPDEST CALLVALUE PUSH2 0x2B7 JUMPI PUSH2 0xCA7 CALLDATASIZE PUSH1 0x4 PUSH2 0x2BC JUMP JUMPDEST PUSH2 0x446 PUSH2 0x21FF JUMP JUMPDEST PUSH1 0x20 DUP2 ADD SWAP3 SWAP2 PUSH2 0x38A SWAP2 SWAP1 PUSH2 0x57B JUMP JUMPDEST CALLVALUE PUSH2 0x2B7 JUMPI PUSH2 0xCCF CALLDATASIZE PUSH1 0x4 PUSH2 0x2BC JUMP JUMPDEST PUSH2 0x35D PUSH2 0xCDA PUSH2 0x2207 JUMP JUMPDEST PUSH1 0x40 MLOAD SWAP2 DUP3 SWAP2 DUP3 PUSH2 0xCAF JUMP JUMPDEST SWAP2 SWAP1 PUSH1 0x40 DUP4 DUP3 SUB SLT PUSH2 0x2B7 JUMPI PUSH2 0x333 SWAP1 PUSH1 0x20 PUSH2 0xC74 DUP3 DUP7 PUSH2 0x392 JUMP JUMPDEST PUSH2 0x333 PUSH2 0x333 PUSH2 0x333 SWAP3 SWAP1 JUMP JUMPDEST SWAP1 PUSH2 0x7C8 SWAP1 PUSH2 0xD02 JUMP JUMPDEST PUSH2 0x7FD PUSH2 0x333 SWAP3 PUSH2 0xD2E PUSH1 0x0 SWAP4 PUSH2 0x132 PUSH2 0xD0F JUMP JUMPDEST PUSH2 0x7BE JUMP JUMPDEST CALLVALUE PUSH2 0x2B7 JUMPI PUSH2 0x35D PUSH2 0x468 PUSH2 0xD49 CALLDATASIZE PUSH1 0x4 PUSH2 0xCE6 JUMP JUMPDEST SWAP1 PUSH2 0xD19 JUMP JUMPDEST CALLVALUE PUSH2 0x2B7 JUMPI PUSH2 0xD5F CALLDATASIZE PUSH1 0x4 PUSH2 0x2BC JUMP JUMPDEST PUSH2 0x35D PUSH2 0x351 PUSH2 0x2211 JUMP JUMPDEST PUSH2 0x333 SWAP2 PUSH1 0x8 MUL SHR PUSH2 0x512 JUMP JUMPDEST SWAP1 PUSH2 0x333 SWAP2 SLOAD PUSH2 0xD6A JUMP JUMPDEST PUSH1 0x0 PUSH2 0xD93 PUSH2 0x333 SWAP3 PUSH2 0x13E PUSH2 0x7BE JUMP JUMPDEST PUSH2 0xD77 JUMP JUMPDEST CALLVALUE PUSH2 0x2B7 JUMPI PUSH2 0x35D PUSH2 0x3E2 PUSH2 0xDAE CALLDATASIZE PUSH1 0x4 PUSH2 0x750 JUMP JUMPDEST PUSH2 0xD82 JUMP JUMPDEST CALLVALUE PUSH2 0x2B7 JUMPI PUSH2 0xDC3 CALLDATASIZE PUSH1 0x4 PUSH2 0x2BC JUMP JUMPDEST PUSH2 0x446 PUSH2 0x24A5 JUMP JUMPDEST CALLVALUE PUSH2 0x2B7 JUMPI PUSH2 0x35D PUSH2 0x3E2 PUSH2 0xDE1 CALLDATASIZE PUSH1 0x4 PUSH2 0x39F JUMP JUMPDEST SWAP1 PUSH2 0x2507 JUMP JUMPDEST CALLVALUE PUSH2 0x2B7 JUMPI PUSH2 0x35D PUSH2 0x3E2 PUSH2 0xDFD CALLDATASIZE PUSH1 0x4 PUSH2 0x39F JUMP JUMPDEST SWAP1 PUSH2 0x257C JUMP JUMPDEST CALLVALUE PUSH2 0x2B7 JUMPI PUSH2 0x35D PUSH2 0xB82 PUSH2 0xE19 CALLDATASIZE PUSH1 0x4 PUSH2 0x974 JUMP JUMPDEST PUSH2 0x25C4 JUMP JUMPDEST PUSH2 0x333 PUSH1 0x0 PUSH2 0x12E PUSH2 0xD77 JUMP JUMPDEST CALLVALUE PUSH2 0x2B7 JUMPI PUSH2 0xE3B CALLDATASIZE PUSH1 0x4 PUSH2 0x2BC JUMP JUMPDEST PUSH2 0x35D PUSH2 0x3E2 PUSH2 0xE1E JUMP JUMPDEST PUSH2 0x333 PUSH1 0x1 PUSH2 0x12E PUSH2 0xD77 JUMP JUMPDEST CALLVALUE PUSH2 0x2B7 JUMPI PUSH2 0xE63 CALLDATASIZE PUSH1 0x4 PUSH2 0x2BC JUMP JUMPDEST PUSH2 0x35D PUSH2 0x3E2 PUSH2 0xE46 JUMP JUMPDEST PUSH2 0x146 SWAP1 PUSH2 0xE7B DUP3 PUSH2 0x503 JUMP JUMPDEST SWAP2 PUSH2 0xE88 PUSH1 0x1 DUP3 ADD PUSH2 0x503 JUMP JUMPDEST SWAP2 PUSH2 0x333 PUSH1 0x3 PUSH2 0xE9A PUSH1 0x2 DUP6 ADD PUSH2 0x503 JUMP JUMPDEST SWAP4 ADD PUSH2 0x518 JUMP JUMPDEST PUSH2 0xECE PUSH2 0x38A SWAP5 PUSH2 0xEC7 PUSH1 0x60 SWAP5 SWAP9 SWAP8 SWAP6 PUSH2 0xEC0 PUSH1 0x80 DUP7 ADD SWAP11 PUSH1 0x0 DUP8 ADD MSTORE JUMP JUMPDEST PUSH1 0x20 DUP6 ADD MSTORE JUMP JUMPDEST PUSH1 0x40 DUP4 ADD MSTORE JUMP JUMPDEST ADD SWAP1 ISZERO ISZERO SWAP1 MSTORE JUMP JUMPDEST CALLVALUE PUSH2 0x2B7 JUMPI PUSH2 0xEE6 CALLDATASIZE PUSH1 0x4 PUSH2 0x2BC JUMP JUMPDEST PUSH2 0x35D PUSH2 0xEF1 PUSH2 0xE6E JUMP JUMPDEST SWAP1 PUSH2 0xEFE SWAP5 SWAP3 SWAP5 PUSH1 0x40 MLOAD SWAP1 JUMP JUMPDEST SWAP5 DUP6 SWAP5 DUP6 PUSH2 0xEA1 JUMP JUMPDEST PUSH2 0x333 PUSH1 0x0 PUSH2 0x12D PUSH2 0x7E1 JUMP JUMPDEST CALLVALUE PUSH2 0x2B7 JUMPI PUSH2 0xF24 CALLDATASIZE PUSH1 0x4 PUSH2 0x2BC JUMP JUMPDEST PUSH2 0x35D PUSH2 0x468 PUSH2 0xF07 JUMP JUMPDEST PUSH2 0xF3A CALLDATASIZE PUSH1 0x4 PUSH2 0x2BC JUMP JUMPDEST PUSH2 0x446 PUSH2 0x2A55 JUMP JUMPDEST PUSH1 0x0 PUSH2 0xD93 PUSH2 0x333 SWAP3 PUSH2 0x12F PUSH2 0x7BE JUMP JUMPDEST CALLVALUE PUSH2 0x2B7 JUMPI PUSH2 0x35D PUSH2 0x3E2 PUSH2 0xF69 CALLDATASIZE PUSH1 0x4 PUSH2 0x750 JUMP JUMPDEST PUSH2 0xF42 JUMP JUMPDEST SWAP2 SWAP1 PUSH1 0x40 DUP4 DUP3 SUB SLT PUSH2 0x2B7 JUMPI PUSH2 0x333 SWAP1 PUSH1 0x20 PUSH2 0xC74 DUP3 DUP7 PUSH2 0x37D JUMP JUMPDEST CALLVALUE PUSH2 0x2B7 JUMPI PUSH2 0x35D PUSH2 0x468 PUSH2 0xFA0 CALLDATASIZE PUSH1 0x4 PUSH2 0xF6E JUMP JUMPDEST SWAP1 PUSH2 0x2A5D JUMP JUMPDEST SWAP1 DUP2 PUSH2 0x280 SWAP2 SUB SLT PUSH2 0x2B7 JUMPI SWAP1 JUMP JUMPDEST SWAP1 PUSH1 0x20 DUP3 DUP3 SUB SLT PUSH2 0x2B7 JUMPI DUP2 CALLDATALOAD PUSH1 0x1 PUSH1 0x1 PUSH1 0x40 SHL SUB DUP2 GT PUSH2 0x2B7 JUMPI PUSH2 0x333 SWAP3 ADD PUSH2 0xFA6 JUMP JUMPDEST CALLVALUE PUSH2 0x2B7 JUMPI PUSH2 0x446 PUSH2 0xFED CALLDATASIZE PUSH1 0x4 PUSH2 0xFB5 JUMP JUMPDEST PUSH2 0x3273 JUMP JUMPDEST CALLVALUE PUSH2 0x2B7 JUMPI PUSH2 0x446 PUSH2 0x1005 CALLDATASIZE PUSH1 0x4 PUSH2 0x750 JUMP JUMPDEST PUSH2 0x330C JUMP JUMPDEST PUSH2 0x333 SWAP1 PUSH2 0xA94 JUMP JUMPDEST PUSH2 0x333 PUSH1 0x36 PUSH2 0x100A JUMP JUMPDEST PUSH2 0x1028 SWAP2 SWAP1 CALLER PUSH2 0x33C4 JUMP JUMPDEST PUSH1 0x1 SWAP1 JUMP JUMPDEST SWAP1 PUSH2 0x38A SWAP2 PUSH2 0x103A PUSH2 0x34A3 JUMP JUMPDEST PUSH2 0x1069 JUMP JUMPDEST SWAP1 PUSH1 0xFF SWAP1 JUMPDEST SWAP2 DUP2 NOT AND SWAP2 AND OR SWAP1 JUMP JUMPDEST SWAP1 PUSH2 0x105E PUSH2 0x333 PUSH2 0x1065 SWAP3 ISZERO ISZERO SWAP1 JUMP JUMPDEST DUP3 SLOAD PUSH2 0x103F JUMP JUMPDEST SWAP1 SSTORE JUMP JUMPDEST SWAP1 PUSH2 0x1079 PUSH2 0x38A SWAP3 PUSH2 0x13E PUSH2 0x7BE JUMP JUMPDEST PUSH2 0x104E JUMP JUMPDEST SWAP1 PUSH2 0x38A SWAP2 PUSH2 0x102D JUMP JUMPDEST SWAP1 PUSH2 0x38A SWAP2 PUSH2 0x1095 PUSH2 0x34A3 JUMP JUMPDEST PUSH2 0x10E2 JUMP JUMPDEST ISZERO PUSH2 0x10A1 JUMPI JUMP JUMPDEST PUSH1 0x40 MLOAD PUSH3 0x461BCD PUSH1 0xE5 SHL DUP2 MSTORE PUSH1 0x20 PUSH1 0x4 DUP3 ADD MSTORE PUSH1 0x15 PUSH1 0x24 DUP3 ADD MSTORE PUSH21 0x109B1858DADB1A5CDD081B9BDD08195B98589B1959 PUSH1 0x5A SHL PUSH1 0x44 DUP3 ADD MSTORE PUSH1 0x64 SWAP1 REVERT JUMPDEST SUB SWAP1 REVERT JUMPDEST PUSH2 0x113C PUSH2 0x1132 PUSH32 0x6A12B3DF6CBA4203BD7FD06B816789F87DE8C594299AED5717AE070FAC781BAC SWAP3 PUSH2 0x111D PUSH2 0x1118 PUSH2 0x12E PUSH2 0x518 JUMP JUMPDEST PUSH2 0x109A JUMP JUMPDEST PUSH2 0x112D DUP6 PUSH2 0x1079 DUP4 PUSH2 0x12F PUSH2 0x7BE JUMP JUMPDEST PUSH2 0x7B5 JUMP JUMPDEST SWAP3 PUSH2 0x3E6 PUSH1 0x40 MLOAD SWAP1 JUMP JUMPDEST SUB SWAP1 LOG2 JUMP JUMPDEST SWAP1 PUSH2 0x38A SWAP2 PUSH2 0x1088 JUMP JUMPDEST PUSH2 0x333 PUSH1 0x35 PUSH2 0x503 JUMP JUMPDEST ISZERO PUSH2 0x115C JUMPI JUMP JUMPDEST PUSH1 0x40 MLOAD PUSH3 0x461BCD PUSH1 0xE5 SHL DUP2 MSTORE PUSH1 0x20 PUSH1 0x4 DUP3 ADD MSTORE PUSH1 0x16 PUSH1 0x24 DUP3 ADD MSTORE PUSH22 0x1059191C995CDCC81A5CC8189B1858DADB1A5CDD1959 PUSH1 0x52 SHL PUSH1 0x44 DUP3 ADD MSTORE PUSH1 0x64 SWAP1 REVERT JUMPDEST PUSH2 0x333 SWAP4 SWAP3 SWAP2 SWAP1 PUSH2 0x11C4 PUSH2 0x11BF PUSH2 0x11BB PUSH2 0x11B6 CALLER PUSH2 0x12F PUSH2 0x7BE JUMP JUMPDEST PUSH2 0x518 JUMP JUMPDEST ISZERO SWAP1 JUMP JUMPDEST PUSH2 0x1155 JUMP JUMPDEST PUSH2 0x120F JUMP JUMPDEST ISZERO PUSH2 0x11D0 JUMPI JUMP JUMPDEST PUSH1 0x40 MLOAD PUSH3 0x461BCD PUSH1 0xE5 SHL DUP2 MSTORE PUSH1 0x20 PUSH1 0x4 DUP3 ADD MSTORE PUSH1 0x17 PUSH1 0x24 DUP3 ADD MSTORE PUSH23 0x151C985B9CD9995C881A5CC81D1A5B594B5B1BD8DAD959 PUSH1 0x4A SHL PUSH1 0x44 DUP3 ADD MSTORE PUSH1 0x64 SWAP1 REVERT JUMPDEST SWAP1 PUSH2 0x333 SWAP4 SWAP3 SWAP2 PUSH2 0x1221 PUSH2 0x12E PUSH2 0x5FF JUMP JUMPDEST ISZERO PUSH2 0x1248 JUMPI PUSH2 0x1248 PUSH2 0x1240 PUSH2 0x333 PUSH2 0x123B CALLER PUSH2 0x130 PUSH2 0x7BE JUMP JUMPDEST PUSH2 0x503 JUMP JUMPDEST TIMESTAMP LT ISZERO PUSH2 0x11C9 JUMP JUMPDEST POP PUSH2 0x333 SWAP3 SWAP2 SWAP1 PUSH2 0x34C0 JUMP JUMPDEST PUSH2 0x333 SWAP3 SWAP2 SWAP1 PUSH1 0x0 PUSH2 0x119A JUMP JUMPDEST PUSH2 0x512 PUSH2 0x333 PUSH2 0x333 SWAP3 SWAP1 JUMP JUMPDEST PUSH2 0x333 PUSH1 0x12 PUSH2 0x1261 JUMP JUMPDEST ISZERO PUSH2 0x127F JUMPI JUMP JUMPDEST PUSH1 0x40 MLOAD PUSH3 0x461BCD PUSH1 0xE5 SHL DUP2 MSTORE PUSH1 0x20 PUSH1 0x4 DUP3 ADD MSTORE PUSH1 0x2C PUSH1 0x24 DUP3 ADD MSTORE PUSH1 0x0 DUP1 MLOAD PUSH1 0x20 PUSH2 0x3E22 DUP4 CODECOPY DUP2 MLOAD SWAP2 MSTORE PUSH1 0x44 DUP3 ADD MSTORE PUSH12 0x19195B1959D85D1958D85B1B PUSH1 0xA2 SHL PUSH1 0x64 DUP3 ADD MSTORE PUSH1 0x84 SWAP1 REVERT JUMPDEST ISZERO PUSH2 0x12CE JUMPI JUMP JUMPDEST PUSH1 0x40 MLOAD PUSH3 0x461BCD PUSH1 0xE5 SHL DUP2 MSTORE PUSH1 0x20 PUSH1 0x4 DUP3 ADD MSTORE PUSH1 0x2C PUSH1 0x24 DUP3 ADD MSTORE PUSH1 0x0 DUP1 MLOAD PUSH1 0x20 PUSH2 0x3E22 DUP4 CODECOPY DUP2 MLOAD SWAP2 MSTORE PUSH1 0x44 DUP3 ADD MSTORE PUSH12 0x6163746976652070726F7879 PUSH1 0xA0 SHL PUSH1 0x64 DUP3 ADD MSTORE PUSH1 0x84 SWAP1 REVERT JUMPDEST PUSH2 0x38A SWAP1 PUSH2 0x137E PUSH2 0x1326 ADDRESS PUSH2 0x7B5 JUMP JUMPDEST PUSH2 0x1364 PUSH32 0x0 SWAP2 PUSH2 0x135D PUSH2 0x1357 DUP5 PUSH2 0x361 JUMP JUMPDEST SWAP2 PUSH2 0x361 JUMP JUMPDEST EQ ISZERO PUSH2 0x1278 JUMP JUMPDEST PUSH2 0x1378 PUSH2 0x1357 PUSH2 0x1372 PUSH2 0x34D6 JUMP JUMPDEST SWAP3 PUSH2 0x361 JUMP JUMPDEST EQ PUSH2 0x12C7 JUMP JUMPDEST PUSH2 0x13BD JUMP JUMPDEST SWAP1 PUSH2 0x1390 PUSH2 0x8A5 DUP4 PUSH2 0x86D JUMP JUMPDEST SWAP2 DUP3 MSTORE JUMP JUMPDEST CALLDATASIZE SWAP1 CALLDATACOPY JUMP JUMPDEST SWAP1 PUSH2 0x38A PUSH2 0x13B0 PUSH2 0x13AA DUP5 PUSH2 0x1383 JUMP JUMPDEST SWAP4 PUSH2 0x86D JUMP JUMPDEST PUSH1 0x1F NOT ADD PUSH1 0x20 DUP5 ADD PUSH2 0x1395 JUMP JUMPDEST PUSH1 0x0 PUSH2 0x38A SWAP2 PUSH2 0x13CC DUP2 PUSH2 0x34F5 JUMP JUMPDEST PUSH2 0x13DD PUSH2 0x13D8 DUP4 PUSH2 0xD02 JUMP JUMPDEST PUSH2 0x139A JUMP JUMPDEST SWAP1 PUSH2 0x35A6 JUMP JUMPDEST PUSH2 0x38A SWAP1 PUSH2 0x1316 JUMP JUMPDEST PUSH4 0x4E487B71 PUSH1 0xE0 SHL PUSH1 0x0 MSTORE PUSH1 0x11 PUSH1 0x4 MSTORE PUSH1 0x24 PUSH1 0x0 REVERT JUMPDEST SWAP2 SWAP1 DUP3 ADD DUP1 SWAP3 GT PUSH2 0x140F JUMPI JUMP JUMPDEST PUSH2 0x13EC JUMP JUMPDEST PUSH2 0x1028 SWAP2 SWAP1 PUSH2 0x142D CALLER SWAP3 PUSH2 0x1428 DUP4 DUP6 PUSH2 0x2A5D JUMP JUMPDEST PUSH2 0x1402 JUMP JUMPDEST SWAP2 PUSH2 0x33C4 JUMP JUMPDEST SWAP1 PUSH2 0x38A SWAP2 PUSH2 0x1444 PUSH2 0x1326 ADDRESS PUSH2 0x7B5 JUMP JUMPDEST PUSH2 0x38A SWAP2 PUSH1 0x1 SWAP2 PUSH2 0x1454 DUP2 PUSH2 0x34F5 JUMP JUMPDEST PUSH2 0x35A6 JUMP JUMPDEST SWAP1 PUSH2 0x38A SWAP2 PUSH2 0x1433 JUMP JUMPDEST ISZERO PUSH2 0x146A JUMPI JUMP JUMPDEST PUSH1 0x40 MLOAD PUSH3 0x461BCD PUSH1 0xE5 SHL DUP2 MSTORE PUSH1 0x20 PUSH1 0x4 DUP3 ADD MSTORE PUSH1 0x38 PUSH1 0x24 DUP3 ADD MSTORE PUSH32 0x555550535570677261646561626C653A206D757374206E6F742062652063616C PUSH1 0x44 DUP3 ADD MSTORE PUSH24 0x1B1959081D1A1C9BDD59DA0819195B1959D85D1958D85B1B PUSH1 0x42 SHL PUSH1 0x64 DUP3 ADD MSTORE PUSH1 0x84 SWAP1 REVERT JUMPDEST PUSH2 0x333 SWAP1 PUSH2 0x1512 PUSH2 0x14E0 ADDRESS PUSH2 0x7B5 JUMP JUMPDEST PUSH2 0x150C PUSH2 0x1357 PUSH32 0x0 PUSH2 0x361 JUMP JUMPDEST EQ PUSH2 0x1463 JUMP JUMPDEST PUSH2 0x1540 JUMP JUMPDEST PUSH2 0x333 PUSH32 0x360894A13BA1A3210667C828492DB98DCA3E2076CC3735A920A3CA505D382BBC PUSH2 0xD02 JUMP JUMPDEST POP PUSH2 0x333 PUSH2 0x1517 JUMP JUMPDEST PUSH2 0x333 PUSH1 0x0 PUSH2 0x14D0 JUMP JUMPDEST SWAP1 PUSH2 0x38A SWAP2 PUSH2 0x1560 PUSH2 0x34A3 JUMP JUMPDEST PUSH2 0x15CA JUMP JUMPDEST ISZERO PUSH2 0x156C JUMPI JUMP JUMPDEST PUSH1 0x40 MLOAD PUSH3 0x461BCD PUSH1 0xE5 SHL DUP2 MSTORE PUSH1 0x20 PUSH1 0x4 DUP3 ADD MSTORE PUSH1 0x15 PUSH1 0x24 DUP3 ADD MSTORE PUSH21 0x151A5B59481B1BD8DAC81B9BDD08195B98589B1959 PUSH1 0x5A SHL PUSH1 0x44 DUP3 ADD MSTORE PUSH1 0x64 SWAP1 REVERT JUMPDEST SWAP1 PUSH1 0x0 NOT SWAP1 PUSH2 0x1044 JUMP JUMPDEST SWAP1 PUSH2 0x15C3 PUSH2 0x333 PUSH2 0x1065 SWAP3 PUSH2 0xD02 JUMP JUMPDEST DUP3 SLOAD PUSH2 0x15A9 JUMP JUMPDEST PUSH2 0x113C PUSH2 0x1623 PUSH32 0xA9353E70F07F31E7F4E16464F45E189CBD22826780A5ABE4DA8303652A86960A SWAP3 PUSH2 0x1605 PUSH2 0x1600 PUSH2 0x12E PUSH2 0x5FF JUMP JUMPDEST PUSH2 0x1565 JUMP JUMPDEST PUSH2 0x112D PUSH2 0x1612 DUP7 TIMESTAMP PUSH2 0x1402 JUMP JUMPDEST PUSH2 0x161E DUP4 PUSH2 0x130 PUSH2 0x7BE JUMP JUMPDEST PUSH2 0x15B3 JUMP JUMPDEST SWAP3 PUSH2 0x46C PUSH1 0x40 MLOAD SWAP1 JUMP JUMPDEST SWAP1 PUSH2 0x38A SWAP2 PUSH2 0x1553 JUMP JUMPDEST PUSH2 0x163F PUSH2 0x34A3 JUMP JUMPDEST PUSH2 0x38A PUSH2 0x172B JUMP JUMPDEST ISZERO PUSH2 0x164E JUMPI JUMP JUMPDEST PUSH1 0x40 MLOAD PUSH3 0x461BCD PUSH1 0xE5 SHL DUP2 MSTORE PUSH1 0x20 PUSH1 0x4 DUP3 ADD MSTORE PUSH1 0x15 PUSH1 0x24 DUP3 ADD MSTORE PUSH21 0x141C995CD85B19481B9BDD08199A5B985B1A5E9959 PUSH1 0x5A SHL PUSH1 0x44 DUP3 ADD MSTORE PUSH1 0x64 SWAP1 REVERT JUMPDEST ISZERO PUSH2 0x1692 JUMPI JUMP JUMPDEST PUSH1 0x40 MLOAD PUSH3 0x461BCD PUSH1 0xE5 SHL DUP2 MSTORE PUSH1 0x20 PUSH1 0x4 DUP3 ADD MSTORE PUSH1 0x14 PUSH1 0x24 DUP3 ADD MSTORE PUSH20 0x4E6F2066756E647320746F207769746864726177 PUSH1 0x60 SHL PUSH1 0x44 DUP3 ADD MSTORE PUSH1 0x64 SWAP1 REVERT JUMPDEST RETURNDATASIZE ISZERO PUSH2 0x16E8 JUMPI PUSH2 0x16DD RETURNDATASIZE PUSH2 0x1383 JUMP JUMPDEST SWAP1 RETURNDATASIZE PUSH1 0x0 PUSH1 0x20 DUP5 ADD RETURNDATACOPY JUMP JUMPDEST PUSH1 0x60 SWAP1 JUMP JUMPDEST ISZERO PUSH2 0x16F4 JUMPI JUMP JUMPDEST PUSH1 0x40 MLOAD PUSH3 0x461BCD PUSH1 0xE5 SHL DUP2 MSTORE PUSH1 0x20 PUSH1 0x4 DUP3 ADD MSTORE PUSH1 0xF PUSH1 0x24 DUP3 ADD MSTORE PUSH15 0x151C985B9CD9995C8819985A5B1959 PUSH1 0x8A SHL PUSH1 0x44 DUP3 ADD MSTORE PUSH1 0x64 SWAP1 REVERT JUMPDEST PUSH2 0x173E PUSH2 0x1739 PUSH2 0x13A PUSH2 0x5FF JUMP JUMPDEST PUSH2 0x1647 JUMP JUMPDEST PUSH2 0x38A PUSH1 0x0 DUP1 PUSH2 0x174D ADDRESS PUSH2 0x7B5 JUMP JUMPDEST PUSH2 0x1768 DUP2 BALANCE PUSH2 0x1762 PUSH2 0x175E DUP6 PUSH2 0xD02 JUMP JUMPDEST SWAP2 SWAP1 JUMP JUMPDEST GT PUSH2 0x168B JUMP JUMPDEST PUSH2 0x1776 PUSH2 0x112D PUSH2 0x112D PUSH2 0x2207 JUMP JUMPDEST SWAP1 BALANCE PUSH2 0x1781 PUSH1 0x40 MLOAD SWAP1 JUMP JUMPDEST SWAP1 DUP2 DUP1 SUB SWAP3 GAS CALL PUSH2 0x1790 PUSH2 0x16CE JUMP JUMPDEST POP PUSH2 0x16ED JUMP JUMPDEST PUSH2 0x38A PUSH2 0x1637 JUMP JUMPDEST PUSH2 0x123B PUSH2 0x333 SWAP2 PUSH2 0x17AD PUSH1 0x0 SWAP1 JUMP JUMPDEST POP PUSH1 0x33 PUSH2 0x7BE JUMP JUMPDEST PUSH2 0x17BD PUSH2 0x34A3 JUMP JUMPDEST PUSH2 0x38A PUSH2 0x17DB JUMP JUMPDEST PUSH2 0x361 PUSH2 0x333 PUSH2 0x333 SWAP3 SWAP1 JUMP JUMPDEST PUSH2 0x333 SWAP1 PUSH2 0x17C5 JUMP JUMPDEST PUSH2 0x38A PUSH2 0x17E8 PUSH1 0x0 PUSH2 0x17D2 JUMP JUMPDEST PUSH2 0x36B5 JUMP JUMPDEST PUSH2 0x38A PUSH2 0x17B5 JUMP JUMPDEST PUSH2 0x1806 SWAP1 PUSH2 0x1801 PUSH2 0x375E JUMP JUMPDEST PUSH2 0x18E6 JUMP JUMPDEST PUSH2 0x38A PUSH2 0x3790 JUMP JUMPDEST ISZERO PUSH2 0x1815 JUMPI JUMP JUMPDEST PUSH1 0x40 MLOAD PUSH3 0x461BCD PUSH1 0xE5 SHL DUP2 MSTORE PUSH1 0x20 PUSH1 0x4 DUP3 ADD MSTORE PUSH1 0x16 PUSH1 0x24 DUP3 ADD MSTORE PUSH22 0x92DCECC2D8D2C840E6C6D0CAC8EAD8CA40D2DCC8CAF PUSH1 0x53 SHL PUSH1 0x44 DUP3 ADD MSTORE PUSH1 0x64 SWAP1 REVERT JUMPDEST ISZERO PUSH2 0x185A JUMPI JUMP JUMPDEST PUSH1 0x40 MLOAD PUSH3 0x461BCD PUSH1 0xE5 SHL DUP2 MSTORE PUSH1 0x20 PUSH1 0x4 DUP3 ADD MSTORE PUSH1 0xF PUSH1 0x24 DUP3 ADD MSTORE PUSH15 0x4E6F742062656E6566696369617279 PUSH1 0x88 SHL PUSH1 0x44 DUP3 ADD MSTORE PUSH1 0x64 SWAP1 REVERT JUMPDEST ISZERO PUSH2 0x1898 JUMPI JUMP JUMPDEST PUSH1 0x40 MLOAD PUSH3 0x461BCD PUSH1 0xE5 SHL DUP2 MSTORE PUSH1 0x20 PUSH1 0x4 DUP3 ADD MSTORE PUSH1 0x13 PUSH1 0x24 DUP3 ADD MSTORE PUSH19 0x4E6F20746F6B656E7320636C61696D61626C65 PUSH1 0x68 SHL PUSH1 0x44 DUP3 ADD MSTORE PUSH1 0x64 SWAP1 REVERT JUMPDEST SWAP1 DUP2 MSTORE PUSH1 0x40 DUP2 ADD SWAP3 SWAP2 PUSH2 0x38A SWAP2 PUSH1 0x20 ADD MSTORE JUMP JUMPDEST PUSH32 0x42106F9C7B551EEA618B396312146946940A732A68F7B8F3C80514E30CC81CC1 PUSH2 0x192F PUSH2 0x192B DUP4 PUSH2 0x131 PUSH2 0x1926 PUSH2 0x191F PUSH2 0x333 DUP4 SLOAD SWAP1 JUMP JUMPDEST DUP4 LT PUSH2 0x180E JUMP JUMPDEST PUSH2 0x99E JUMP JUMPDEST POP SWAP1 JUMP JUMPDEST PUSH2 0x1955 PUSH2 0x1946 PUSH2 0x1941 PUSH1 0x3 DUP5 ADD PUSH2 0x4F2 JUMP JUMPDEST PUSH2 0x361 JUMP JUMPDEST PUSH2 0x194F CALLER PUSH2 0x361 JUMP JUMPDEST EQ PUSH2 0x1853 JUMP JUMPDEST PUSH2 0x198D PUSH1 0x4 PUSH2 0x1963 DUP6 PUSH2 0x1AB4 JUMP JUMPDEST SWAP3 PUSH2 0x1979 PUSH2 0x1971 PUSH1 0x0 PUSH2 0xD02 JUMP JUMPDEST DUP6 JUMPDEST GT PUSH2 0x1891 JUMP JUMPDEST ADD PUSH2 0x1987 DUP4 PUSH2 0x1428 DUP4 PUSH2 0x503 JUMP JUMPDEST SWAP1 PUSH2 0x15B3 JUMP JUMPDEST PUSH2 0x19A1 DUP2 PUSH2 0x199A ADDRESS PUSH2 0x7B5 JUMP JUMPDEST CALLER SWAP1 PUSH2 0x38A8 JUMP JUMPDEST PUSH2 0x19AA CALLER PUSH2 0x7B5 JUMP JUMPDEST SWAP3 PUSH2 0x113C PUSH2 0x19B7 PUSH1 0x40 MLOAD SWAP1 JUMP JUMPDEST SWAP3 DUP4 SWAP3 DUP4 PUSH2 0x18D3 JUMP JUMPDEST PUSH2 0x38A SWAP1 PUSH2 0x17F5 JUMP JUMPDEST SWAP1 PUSH2 0x3C2 SWAP1 PUSH2 0x361 JUMP JUMPDEST PUSH2 0x333 PUSH1 0xC0 PUSH2 0x859 JUMP JUMPDEST SWAP1 PUSH2 0x38A PUSH2 0x1A5F PUSH1 0x5 PUSH2 0x19EE PUSH2 0x19D3 JUMP JUMPDEST SWAP5 PUSH2 0x19FF PUSH2 0x19FB DUP3 PUSH2 0xA94 JUMP JUMPDEST DUP8 MSTORE JUMP JUMPDEST PUSH2 0x1A15 PUSH2 0x1A0E PUSH1 0x1 DUP4 ADD PUSH2 0x503 JUMP JUMPDEST PUSH1 0x20 DUP9 ADD MSTORE JUMP JUMPDEST PUSH2 0x1A2B PUSH2 0x1A24 PUSH1 0x2 DUP4 ADD PUSH2 0x503 JUMP JUMPDEST PUSH1 0x40 DUP9 ADD MSTORE JUMP JUMPDEST PUSH2 0x1A43 PUSH2 0x1A3A PUSH1 0x3 DUP4 ADD PUSH2 0x4F2 JUMP JUMPDEST PUSH1 0x60 DUP9 ADD PUSH2 0x19C9 JUMP JUMPDEST PUSH2 0x1A59 PUSH2 0x1A52 PUSH1 0x4 DUP4 ADD PUSH2 0x503 JUMP JUMPDEST PUSH1 0x80 DUP9 ADD MSTORE JUMP JUMPDEST ADD PUSH2 0x503 JUMP JUMPDEST PUSH1 0xA0 DUP5 ADD MSTORE JUMP JUMPDEST PUSH2 0x333 SWAP1 PUSH2 0x19DD JUMP JUMPDEST SWAP2 SWAP1 DUP3 SUB SWAP2 DUP3 GT PUSH2 0x140F JUMPI JUMP JUMPDEST DUP2 DUP2 MUL SWAP3 SWAP2 DUP2 ISZERO SWAP2 DUP5 DIV EQ OR ISZERO PUSH2 0x140F JUMPI JUMP JUMPDEST PUSH4 0x4E487B71 PUSH1 0xE0 SHL PUSH1 0x0 MSTORE PUSH1 0x12 PUSH1 0x4 MSTORE PUSH1 0x24 PUSH1 0x0 REVERT JUMPDEST DUP2 ISZERO PUSH2 0x1AAF JUMPI DIV SWAP1 JUMP JUMPDEST PUSH2 0x1A8F JUMP JUMPDEST PUSH2 0x1ACC PUSH2 0x1AD2 SWAP2 PUSH2 0x1AC3 PUSH1 0x0 SWAP1 JUMP JUMPDEST POP PUSH2 0x131 PUSH2 0x99E JUMP JUMPDEST POP PUSH2 0x1A66 JUMP JUMPDEST PUSH1 0xA0 DUP2 ADD PUSH2 0x1AE1 PUSH2 0x333 DUP3 MLOAD SWAP1 JUMP JUMPDEST TIMESTAMP LT PUSH2 0x1B64 JUMPI MLOAD PUSH2 0x1AF3 SWAP1 JUMPDEST TIMESTAMP PUSH2 0x1A6F JUMP JUMPDEST SWAP1 PUSH2 0x1B14 PUSH2 0x1B02 PUSH1 0x40 DUP4 ADD MLOAD SWAP1 JUMP JUMPDEST PUSH2 0x1B0E PUSH3 0x15180 PUSH2 0xD02 JUMP JUMPDEST SWAP1 PUSH2 0x1A7C JUMP JUMPDEST SWAP2 DUP3 DUP2 LT ISZERO PUSH2 0x1B4E JUMPI PUSH1 0x80 PUSH2 0x1B42 PUSH2 0x333 SWAP5 PUSH2 0x1B3D PUSH2 0x1B48 SWAP5 PUSH2 0x1B38 PUSH1 0x20 DUP9 ADD MLOAD SWAP1 JUMP JUMPDEST PUSH2 0x1A7C JUMP JUMPDEST PUSH2 0x1AA5 JUMP JUMPDEST SWAP3 ADD MLOAD SWAP1 JUMP JUMPDEST SWAP1 PUSH2 0x1A6F JUMP JUMPDEST POP PUSH2 0x333 SWAP2 POP PUSH2 0x1B48 PUSH1 0x80 PUSH2 0x1B42 PUSH1 0x20 DUP5 ADD MLOAD SWAP1 JUMP JUMPDEST POP POP PUSH2 0x333 PUSH1 0x0 PUSH2 0xD02 JUMP JUMPDEST SWAP1 PUSH2 0x38A SWAP4 SWAP3 SWAP2 PUSH2 0x1B7F PUSH2 0x34A3 JUMP JUMPDEST PUSH2 0x1F13 JUMP JUMPDEST ISZERO PUSH2 0x1B8B JUMPI JUMP JUMPDEST PUSH1 0x40 MLOAD PUSH3 0x461BCD PUSH1 0xE5 SHL DUP2 MSTORE PUSH1 0x20 PUSH1 0x4 DUP3 ADD MSTORE PUSH1 0x13 PUSH1 0x24 DUP3 ADD MSTORE PUSH19 0x496E76616C69642062656E6566696369617279 PUSH1 0x68 SHL PUSH1 0x44 DUP3 ADD MSTORE PUSH1 0x64 SWAP1 REVERT JUMPDEST ISZERO PUSH2 0x1BCD JUMPI JUMP JUMPDEST PUSH1 0x40 MLOAD PUSH3 0x461BCD PUSH1 0xE5 SHL DUP2 MSTORE PUSH1 0x20 PUSH1 0x4 DUP3 ADD MSTORE PUSH1 0x12 PUSH1 0x24 DUP3 ADD MSTORE PUSH18 0x416D6F756E74206D757374206265203E203 PUSH1 0x74 SHL PUSH1 0x44 DUP3 ADD MSTORE PUSH1 0x64 SWAP1 REVERT JUMPDEST ISZERO PUSH2 0x1C0E JUMPI JUMP JUMPDEST PUSH1 0x40 MLOAD PUSH3 0x461BCD PUSH1 0xE5 SHL DUP2 MSTORE PUSH1 0x20 PUSH1 0x4 DUP3 ADD MSTORE PUSH1 0x12 PUSH1 0x24 DUP3 ADD MSTORE PUSH18 0x506572696F64206D757374206265203E203 PUSH1 0x74 SHL PUSH1 0x44 DUP3 ADD MSTORE PUSH1 0x64 SWAP1 REVERT JUMPDEST PUSH4 0x4E487B71 PUSH1 0xE0 SHL PUSH1 0x0 MSTORE PUSH1 0x0 PUSH1 0x4 MSTORE PUSH1 0x24 PUSH1 0x0 REVERT JUMPDEST SWAP2 PUSH1 0x0 NOT PUSH1 0x8 SWAP3 SWAP1 SWAP3 MUL SWAP2 DUP3 SHL SWAP2 SHL PUSH2 0x1044 JUMP JUMPDEST SWAP2 SWAP1 PUSH2 0x1C83 PUSH2 0x333 PUSH2 0x1065 SWAP4 PUSH2 0xD02 JUMP JUMPDEST SWAP1 DUP4 SLOAD PUSH2 0x1C5E JUMP JUMPDEST PUSH2 0x38A SWAP2 PUSH1 0x0 SWAP2 PUSH2 0x1C72 JUMP JUMPDEST DUP2 DUP2 LT PUSH2 0x1CA2 JUMPI POP POP JUMP JUMPDEST DUP1 PUSH2 0x1CB0 PUSH1 0x0 PUSH1 0x1 SWAP4 PUSH2 0x1C8B JUMP JUMPDEST ADD PUSH2 0x1C97 JUMP JUMPDEST SWAP2 SWAP1 PUSH1 0x1F DUP2 GT PUSH2 0x1CC5 JUMPI POP POP POP JUMP JUMPDEST PUSH2 0x1CD7 PUSH2 0x38A SWAP4 PUSH1 0x0 MSTORE PUSH1 0x20 PUSH1 0x0 KECCAK256 SWAP1 JUMP JUMPDEST SWAP1 PUSH1 0x20 PUSH1 0x1F DUP5 ADD DUP2 SWAP1 DIV DUP4 ADD SWAP4 LT PUSH2 0x1CF9 JUMPI JUMPDEST PUSH1 0x20 PUSH1 0x1F SWAP1 SWAP2 ADD DIV ADD SWAP1 PUSH2 0x1C97 JUMP JUMPDEST SWAP1 SWAP2 POP DUP2 SWAP1 PUSH2 0x1CEA JUMP JUMPDEST SWAP1 PUSH1 0x0 NOT PUSH1 0x8 SWAP1 SWAP2 MUL SHR NOT AND SWAP1 JUMP JUMPDEST DUP2 PUSH2 0x1D1C SWAP2 PUSH2 0x1D03 JUMP JUMPDEST SWAP1 PUSH1 0x2 MUL OR SWAP1 JUMP JUMPDEST SWAP1 PUSH2 0x1D2D DUP2 MLOAD SWAP1 JUMP JUMPDEST SWAP1 PUSH1 0x1 PUSH1 0x1 PUSH1 0x40 SHL SUB DUP3 GT PUSH2 0x854 JUMPI PUSH2 0x1D50 DUP3 PUSH2 0x1D4A DUP6 SLOAD PUSH2 0x9DC JUMP JUMPDEST DUP6 PUSH2 0x1CB6 JUMP JUMPDEST PUSH1 0x20 SWAP1 PUSH1 0x1F DUP4 GT PUSH1 0x1 EQ PUSH2 0x1D7E JUMPI PUSH2 0x1065 SWAP3 SWAP2 PUSH1 0x0 SWAP2 DUP4 PUSH2 0x1D73 JUMPI JUMPDEST POP POP PUSH2 0x1D12 JUMP JUMPDEST ADD MLOAD SWAP1 POP CODESIZE DUP1 PUSH2 0x1D6C JUMP JUMPDEST PUSH1 0x1F NOT DUP4 AND SWAP2 PUSH2 0x1D93 DUP6 PUSH1 0x0 MSTORE PUSH1 0x20 PUSH1 0x0 KECCAK256 SWAP1 JUMP JUMPDEST SWAP3 PUSH1 0x0 JUMPDEST DUP2 DUP2 LT PUSH2 0x1DD2 JUMPI POP SWAP2 PUSH1 0x2 SWAP4 SWAP2 DUP6 PUSH1 0x1 SWAP7 SWAP5 LT PUSH2 0x1DB8 JUMPI JUMPDEST POP POP POP MUL ADD SWAP1 SSTORE JUMP JUMPDEST PUSH2 0x1DC8 SWAP2 ADD MLOAD PUSH1 0x1F DUP5 AND SWAP1 PUSH2 0x1D03 JUMP JUMPDEST SWAP1 SSTORE CODESIZE DUP1 DUP1 PUSH2 0x1DAF JUMP JUMPDEST SWAP2 SWAP4 PUSH1 0x20 PUSH1 0x1 DUP2 SWAP3 DUP8 DUP8 ADD MLOAD DUP2 SSTORE ADD SWAP6 ADD SWAP3 ADD PUSH2 0x1D97 JUMP JUMPDEST SWAP1 PUSH2 0x38A SWAP2 PUSH2 0x1D24 JUMP JUMPDEST PUSH2 0x333 SWAP1 MLOAD PUSH2 0x361 JUMP JUMPDEST SWAP1 PUSH1 0x1 PUSH1 0x1 PUSH1 0xA0 SHL SUB SWAP1 PUSH2 0x1044 JUMP JUMPDEST SWAP1 PUSH2 0x1E1D PUSH2 0x333 PUSH2 0x1065 SWAP3 PUSH2 0x7B5 JUMP JUMPDEST DUP3 SLOAD PUSH2 0x1DFE JUMP JUMPDEST PUSH1 0x5 PUSH2 0x1EA5 PUSH1 0xA0 PUSH2 0x38A SWAP5 PUSH2 0x1E43 PUSH2 0x1E3D PUSH1 0x0 DUP4 ADD MLOAD SWAP1 JUMP JUMPDEST DUP7 PUSH2 0x1DEA JUMP JUMPDEST PUSH2 0x1E5A PUSH2 0x1E51 PUSH1 0x20 DUP4 ADD MLOAD SWAP1 JUMP JUMPDEST PUSH1 0x1 DUP8 ADD PUSH2 0x15B3 JUMP JUMPDEST PUSH2 0x1E71 PUSH2 0x1E68 PUSH1 0x40 DUP4 ADD MLOAD SWAP1 JUMP JUMPDEST PUSH1 0x2 DUP8 ADD PUSH2 0x15B3 JUMP JUMPDEST PUSH2 0x1E89 PUSH2 0x1E80 PUSH1 0x60 DUP4 ADD PUSH2 0x1DF4 JUMP JUMPDEST PUSH1 0x3 DUP8 ADD PUSH2 0x1E0D JUMP JUMPDEST PUSH2 0x1EA0 PUSH2 0x1E97 PUSH1 0x80 DUP4 ADD MLOAD SWAP1 JUMP JUMPDEST PUSH1 0x4 DUP8 ADD PUSH2 0x15B3 JUMP JUMPDEST ADD MLOAD SWAP1 JUMP JUMPDEST SWAP2 ADD PUSH2 0x15B3 JUMP JUMPDEST SWAP2 SWAP1 PUSH2 0x1EBB JUMPI PUSH2 0x38A SWAP2 PUSH2 0x1E24 JUMP JUMPDEST PUSH2 0x1C48 JUMP JUMPDEST DUP1 SLOAD SWAP2 SWAP1 PUSH1 0x1 PUSH1 0x40 SHL DUP4 LT ISZERO PUSH2 0x854 JUMPI DUP3 PUSH2 0x1EE3 SWAP2 PUSH1 0x1 PUSH2 0x38A SWAP6 ADD DUP2 SSTORE PUSH2 0x99E JUMP JUMPDEST SWAP1 PUSH2 0x1EAC JUMP JUMPDEST PUSH1 0x40 SWAP1 PUSH2 0xB63 PUSH2 0x1F0B PUSH2 0x38A SWAP6 SWAP8 SWAP7 SWAP5 PUSH1 0x60 DUP5 ADD SWAP1 DUP5 DUP3 SUB PUSH1 0x0 DUP7 ADD MSTORE PUSH2 0x2EA JUMP JUMPDEST SWAP7 PUSH1 0x20 DUP4 ADD MSTORE JUMP JUMPDEST PUSH2 0x113C PUSH2 0x1FE1 PUSH32 0x586635F20887672497479579F6F76516CD0F238E8D01245D26E6B971CEC91847 SWAP5 SWAP6 PUSH2 0x112D PUSH1 0x0 PUSH2 0x1F60 PUSH2 0x1F50 PUSH2 0x1941 DUP4 PUSH2 0x17D2 JUMP JUMPDEST PUSH2 0x1F59 DUP6 PUSH2 0x361 JUMP JUMPDEST EQ ISZERO PUSH2 0x1B84 JUMP JUMPDEST PUSH2 0x1F73 PUSH2 0x1F6C DUP3 PUSH2 0xD02 JUMP JUMPDEST DUP9 GT PUSH2 0x1BC6 JUMP JUMPDEST PUSH2 0x1F86 PUSH2 0x1F7F DUP3 PUSH2 0xD02 JUMP JUMPDEST DUP11 GT PUSH2 0x1C07 JUMP JUMPDEST PUSH2 0x131 PUSH2 0x1FD1 PUSH2 0x1FCA PUSH2 0x1F97 PUSH2 0x19D3 JUMP JUMPDEST SWAP4 PUSH2 0x1FA2 DUP11 DUP3 DUP8 ADD MSTORE JUMP JUMPDEST PUSH2 0x1FAD DUP12 PUSH1 0x20 DUP8 ADD MSTORE JUMP JUMPDEST PUSH2 0x1FB8 DUP14 PUSH1 0x40 DUP8 ADD MSTORE JUMP JUMPDEST PUSH2 0x1FC5 DUP8 PUSH1 0x60 DUP8 ADD PUSH2 0x19C9 JUMP JUMPDEST PUSH2 0xD02 JUMP JUMPDEST PUSH1 0x80 DUP5 ADD MSTORE JUMP JUMPDEST PUSH2 0x1FDC TIMESTAMP PUSH1 0xA0 DUP5 ADD MSTORE JUMP JUMPDEST PUSH2 0x1EC0 JUMP JUMPDEST SWAP5 PUSH2 0x1FEB PUSH1 0x40 MLOAD SWAP1 JUMP JUMPDEST SWAP4 DUP5 SWAP4 DUP5 PUSH2 0x1EE9 JUMP JUMPDEST SWAP1 PUSH2 0x38A SWAP4 SWAP3 SWAP2 PUSH2 0x1B70 JUMP JUMPDEST PUSH2 0x2008 PUSH2 0x375E JUMP JUMPDEST PUSH2 0x1806 PUSH2 0x20D6 JUMP JUMPDEST ISZERO PUSH2 0x2017 JUMPI JUMP JUMPDEST PUSH1 0x40 MLOAD PUSH3 0x461BCD PUSH1 0xE5 SHL DUP2 MSTORE PUSH1 0x20 PUSH1 0x4 DUP3 ADD MSTORE PUSH1 0x11 PUSH1 0x24 DUP3 ADD MSTORE PUSH17 0x139BDD08199959481C9958DA5C1A595B9D PUSH1 0x7A SHL PUSH1 0x44 DUP3 ADD MSTORE PUSH1 0x64 SWAP1 REVERT JUMPDEST ISZERO PUSH2 0x2057 JUMPI JUMP JUMPDEST PUSH1 0x40 MLOAD PUSH3 0x461BCD PUSH1 0xE5 SHL DUP2 MSTORE PUSH1 0x20 PUSH1 0x4 DUP3 ADD MSTORE PUSH1 0x12 PUSH1 0x24 DUP3 ADD MSTORE PUSH18 0x105B1B081D1BDAD95B9CC818DB185A5B5959 PUSH1 0x72 SHL PUSH1 0x44 DUP3 ADD MSTORE PUSH1 0x64 SWAP1 REVERT JUMPDEST ISZERO PUSH2 0x2098 JUMPI JUMP JUMPDEST PUSH1 0x40 MLOAD PUSH3 0x461BCD PUSH1 0xE5 SHL DUP2 MSTORE PUSH1 0x20 PUSH1 0x4 DUP3 ADD MSTORE PUSH1 0x16 PUSH1 0x24 DUP3 ADD MSTORE PUSH22 0x10DB1A5999881C195C9A5BD9081B9BDD08195B991959 PUSH1 0x52 SHL PUSH1 0x44 DUP3 ADD MSTORE PUSH1 0x64 SWAP1 REVERT JUMPDEST PUSH2 0x38A PUSH2 0x13F PUSH2 0x20FA PUSH2 0x20EB PUSH2 0x1941 DUP4 PUSH2 0x4F2 JUMP JUMPDEST PUSH2 0x20F4 CALLER PUSH2 0x361 JUMP JUMPDEST EQ PUSH2 0x2010 JUMP JUMPDEST PUSH2 0x21C0 PUSH1 0x6 DUP3 ADD SWAP2 PUSH2 0x210B DUP4 PUSH2 0x503 JUMP JUMPDEST SWAP1 PUSH2 0x2129 PUSH1 0x1 DUP3 ADD SWAP3 PUSH2 0x2123 PUSH2 0x175E PUSH2 0x333 DUP7 PUSH2 0x503 JUMP JUMPDEST LT PUSH2 0x2050 JUMP JUMPDEST PUSH2 0x2135 PUSH1 0x2 DUP3 ADD PUSH2 0x518 JUMP JUMPDEST ISZERO PUSH2 0x21F2 JUMPI PUSH1 0x3 PUSH2 0x2172 PUSH2 0x1AED PUSH1 0x5 DUP5 ADD PUSH2 0x123B PUSH2 0x216A PUSH2 0x333 PUSH2 0x2158 DUP5 PUSH2 0x503 JUMP JUMPDEST PUSH2 0x2164 PUSH1 0x4 DUP11 ADD PUSH2 0x503 JUMP JUMPDEST SWAP1 PUSH2 0x1402 JUMP JUMPDEST TIMESTAMP LT ISZERO PUSH2 0x2091 JUMP JUMPDEST SWAP2 ADD SWAP1 PUSH2 0x2181 PUSH2 0x333 DUP4 PUSH2 0x503 JUMP JUMPDEST DUP2 LT PUSH2 0x21C9 JUMPI POP POP PUSH2 0x2195 PUSH2 0x219E SWAP2 PUSH2 0x503 JUMP JUMPDEST PUSH2 0x1B48 DUP5 PUSH2 0x503 JUMP JUMPDEST SWAP2 JUMPDEST PUSH2 0x21B3 PUSH2 0x21AD PUSH1 0x0 PUSH2 0xD02 JUMP JUMPDEST DUP5 PUSH2 0x1973 JUMP JUMPDEST PUSH2 0x1987 DUP4 PUSH2 0x1428 DUP4 PUSH2 0x503 JUMP JUMPDEST PUSH2 0x199A ADDRESS PUSH2 0x7B5 JUMP JUMPDEST SWAP1 PUSH2 0x21E6 PUSH2 0x21E0 PUSH2 0x2195 SWAP4 PUSH2 0x1B38 PUSH2 0x21EC SWAP7 PUSH2 0x503 JUMP JUMPDEST SWAP2 PUSH2 0x503 JUMP JUMPDEST SWAP1 PUSH2 0x1AA5 JUMP JUMPDEST SWAP2 PUSH2 0x21A0 JUMP JUMPDEST POP PUSH2 0x2195 PUSH2 0x21EC SWAP2 PUSH2 0x503 JUMP JUMPDEST PUSH2 0x38A PUSH2 0x2000 JUMP JUMPDEST PUSH2 0x333 PUSH1 0x65 PUSH2 0x4F2 JUMP JUMPDEST PUSH2 0x333 PUSH1 0x37 PUSH2 0x100A JUMP JUMPDEST PUSH2 0x2223 PUSH2 0x34A3 JUMP JUMPDEST PUSH2 0x38A PUSH2 0x2314 JUMP JUMPDEST ISZERO PUSH2 0x2232 JUMPI JUMP JUMPDEST PUSH1 0x40 MLOAD PUSH3 0x461BCD PUSH1 0xE5 SHL DUP2 MSTORE PUSH1 0x20 PUSH1 0x4 DUP3 ADD MSTORE PUSH1 0x13 PUSH1 0x24 DUP3 ADD MSTORE PUSH19 0x10D85B9B9BDD08199A5B985B1A5E99481E595D PUSH1 0x6A SHL PUSH1 0x44 DUP3 ADD MSTORE PUSH1 0x64 SWAP1 REVERT JUMPDEST ISZERO PUSH2 0x2274 JUMPI JUMP JUMPDEST PUSH1 0x40 MLOAD PUSH3 0x461BCD PUSH1 0xE5 SHL DUP2 MSTORE PUSH1 0x20 PUSH1 0x4 DUP3 ADD MSTORE PUSH1 0x11 PUSH1 0x24 DUP3 ADD MSTORE PUSH17 0x105B1C9958591E48199A5B985B1A5E9959 PUSH1 0x7A SHL PUSH1 0x44 DUP3 ADD MSTORE PUSH1 0x64 SWAP1 REVERT JUMPDEST ISZERO PUSH2 0x22B4 JUMPI JUMP JUMPDEST PUSH1 0x40 MLOAD PUSH3 0x461BCD PUSH1 0xE5 SHL DUP2 MSTORE PUSH1 0x20 PUSH1 0x4 DUP3 ADD MSTORE PUSH1 0x14 PUSH1 0x24 DUP3 ADD MSTORE PUSH20 0x14DBD99D0818D85C081B9BDD081C995858DA1959 PUSH1 0x62 SHL PUSH1 0x44 DUP3 ADD MSTORE PUSH1 0x64 SWAP1 REVERT JUMPDEST SWAP1 PUSH2 0xFF00 SWAP1 PUSH1 0x8 SHL PUSH2 0x1044 JUMP JUMPDEST SWAP1 PUSH2 0x230D PUSH2 0x333 PUSH2 0x1065 SWAP3 ISZERO ISZERO SWAP1 JUMP JUMPDEST DUP3 SLOAD PUSH2 0x22F0 JUMP JUMPDEST PUSH32 0xEDFDE254CB8ED39D650C9A34251C59D6817FAE4CC876CC2CE76669976CF102EE PUSH2 0x133 PUSH2 0x2346 PUSH2 0x333 PUSH2 0x139 PUSH2 0x503 JUMP JUMPDEST TIMESTAMP GT DUP1 ISZERO PUSH2 0x247A JUMPI JUMPDEST PUSH2 0x2358 SWAP1 PUSH2 0x222B JUMP JUMPDEST PUSH2 0x23D5 PUSH1 0x9 PUSH2 0x23CE PUSH1 0x7 DUP5 ADD PUSH2 0x2378 PUSH2 0x2373 PUSH2 0x11BB DUP4 PUSH2 0x5FF JUMP JUMPDEST PUSH2 0x226D JUMP JUMPDEST PUSH2 0x23A9 PUSH1 0x1 PUSH1 0x8 DUP8 ADD SWAP3 PUSH2 0x23A4 PUSH2 0x238E DUP6 PUSH2 0x503 JUMP JUMPDEST PUSH2 0x239D PUSH2 0x175E PUSH2 0x333 DUP13 PUSH2 0x503 JUMP JUMPDEST LT ISZERO PUSH2 0x22AD JUMP JUMPDEST PUSH2 0x22FD JUMP JUMPDEST PUSH2 0x146 PUSH2 0x23B5 DUP2 PUSH2 0x503 JUMP JUMPDEST PUSH2 0x23C2 PUSH2 0x175E PUSH1 0x0 PUSH2 0xD02 JUMP JUMPDEST GT PUSH2 0x23E7 JUMPI JUMPDEST POP PUSH2 0x503 JUMP JUMPDEST SWAP3 ADD PUSH2 0x503 JUMP JUMPDEST SWAP1 PUSH2 0x23E2 PUSH2 0x19B7 PUSH1 0x40 MLOAD SWAP1 JUMP JUMPDEST SUB SWAP1 LOG1 JUMP JUMPDEST PUSH32 0xCB75AA8347C098D414422E8CAFBBE4E2C1A229F5B27BF425984B2B9792AA787A SWAP1 PUSH2 0x2464 PUSH2 0x2430 PUSH2 0x2426 PUSH2 0x241D DUP9 DUP12 ADD PUSH2 0x503 JUMP JUMPDEST PUSH2 0x1B0E DUP6 PUSH2 0x503 JUMP JUMPDEST PUSH2 0x21E6 PUSH1 0x64 PUSH2 0xD02 JUMP JUMPDEST SWAP2 PUSH2 0x123B PUSH1 0x1 PUSH1 0x3 PUSH2 0x244F PUSH2 0x2449 PUSH2 0x1B02 DUP5 DUP8 ADD PUSH2 0x503 JUMP JUMPDEST TIMESTAMP PUSH2 0x1402 JUMP JUMPDEST SWAP4 PUSH2 0x245E PUSH1 0x2 DUP3 ADD SWAP6 DUP7 PUSH2 0x15B3 JUMP JUMPDEST ADD PUSH2 0x104E JUMP JUMPDEST SWAP1 PUSH2 0x2471 PUSH2 0x19B7 PUSH1 0x40 MLOAD SWAP1 JUMP JUMPDEST SUB SWAP1 LOG1 CODESIZE PUSH2 0x23C8 JUMP JUMPDEST POP PUSH2 0x2358 PUSH2 0x248A PUSH1 0x8 DUP4 ADD PUSH2 0x503 JUMP JUMPDEST PUSH2 0x249C PUSH2 0x175E PUSH2 0x333 PUSH1 0x1 DUP7 ADD PUSH2 0x503 JUMP JUMPDEST LT ISZERO SWAP1 POP PUSH2 0x234F JUMP JUMPDEST PUSH2 0x38A PUSH2 0x221B JUMP JUMPDEST ISZERO PUSH2 0x24B4 JUMPI JUMP JUMPDEST PUSH1 0x40 MLOAD PUSH3 0x461BCD PUSH1 0xE5 SHL DUP2 MSTORE PUSH1 0x20 PUSH1 0x4 DUP3 ADD MSTORE PUSH1 0x25 PUSH1 0x24 DUP3 ADD MSTORE PUSH32 0x45524332303A2064656372656173656420616C6C6F77616E63652062656C6F77 PUSH1 0x44 DUP3 ADD MSTORE PUSH5 0x207A65726F PUSH1 0xD8 SHL PUSH1 0x64 DUP3 ADD MSTORE PUSH1 0x84 SWAP1 REVERT JUMPDEST PUSH2 0x1028 SWAP2 SWAP1 PUSH2 0x142D CALLER SWAP3 PUSH2 0x251B DUP4 DUP6 PUSH2 0x2A5D JUMP JUMPDEST PUSH2 0x2527 DUP3 DUP3 LT ISZERO PUSH2 0x24AD JUMP JUMPDEST SUB SWAP1 JUMP JUMPDEST PUSH2 0x333 SWAP3 SWAP2 SWAP1 PUSH2 0x2546 PUSH2 0x11BF PUSH2 0x11BB PUSH2 0x11B6 CALLER PUSH2 0x12F PUSH2 0x7BE JUMP JUMPDEST SWAP1 PUSH2 0x333 SWAP3 SWAP2 PUSH2 0x2557 PUSH2 0x12E PUSH2 0x5FF JUMP JUMPDEST ISZERO PUSH2 0x2571 JUMPI PUSH2 0x2571 PUSH2 0x1240 PUSH2 0x333 PUSH2 0x123B CALLER PUSH2 0x130 PUSH2 0x7BE JUMP JUMPDEST POP PUSH2 0x333 SWAP2 SWAP1 PUSH2 0x393D JUMP JUMPDEST PUSH2 0x333 SWAP2 SWAP1 PUSH1 0x0 PUSH2 0x252B JUMP JUMPDEST ISZERO PUSH2 0x258F JUMPI JUMP JUMPDEST PUSH1 0x40 MLOAD PUSH3 0x461BCD PUSH1 0xE5 SHL DUP2 MSTORE PUSH1 0x20 PUSH1 0x4 DUP3 ADD MSTORE PUSH1 0xD PUSH1 0x24 DUP3 ADD MSTORE PUSH13 0x92DCECC2D8D2C840D2DCC8CAF PUSH1 0x9B SHL PUSH1 0x44 DUP3 ADD MSTORE PUSH1 0x64 SWAP1 REVERT JUMPDEST PUSH2 0x1ACC PUSH2 0x25EC SWAP2 PUSH2 0x25D3 PUSH1 0x60 SWAP1 JUMP JUMPDEST POP PUSH2 0x131 PUSH2 0x1926 PUSH2 0x25E5 PUSH2 0x333 DUP4 SLOAD SWAP1 JUMP JUMPDEST DUP4 LT PUSH2 0x2588 JUMP JUMPDEST DUP1 MLOAD SWAP1 SWAP2 PUSH2 0x25FB PUSH1 0x20 DUP5 ADD MLOAD SWAP1 JUMP JUMPDEST SWAP3 PUSH2 0x2607 PUSH1 0x40 DUP3 ADD MLOAD SWAP1 JUMP JUMPDEST SWAP3 PUSH2 0x2614 PUSH1 0x60 DUP4 ADD PUSH2 0x1DF4 JUMP JUMPDEST SWAP3 PUSH2 0x262B PUSH1 0xA0 PUSH2 0x2625 PUSH1 0x80 DUP7 ADD MLOAD SWAP1 JUMP JUMPDEST SWAP5 ADD MLOAD SWAP1 JUMP JUMPDEST SWAP2 SWAP6 SWAP5 SWAP4 SWAP3 SWAP2 SWAP1 JUMP JUMPDEST ISZERO PUSH2 0x263B JUMPI JUMP JUMPDEST PUSH1 0x40 MLOAD PUSH3 0x461BCD PUSH1 0xE5 SHL DUP2 MSTORE PUSH1 0x20 PUSH1 0x4 DUP3 ADD MSTORE PUSH1 0x13 PUSH1 0x24 DUP3 ADD MSTORE PUSH19 0x141C995CD85B19481B9BDD081CDD185C9D1959 PUSH1 0x6A SHL PUSH1 0x44 DUP3 ADD MSTORE PUSH1 0x64 SWAP1 REVERT JUMPDEST ISZERO PUSH2 0x267D JUMPI JUMP JUMPDEST PUSH1 0x40 MLOAD PUSH3 0x461BCD PUSH1 0xE5 SHL DUP2 MSTORE PUSH1 0x20 PUSH1 0x4 DUP3 ADD MSTORE PUSH1 0xD PUSH1 0x24 DUP3 ADD MSTORE PUSH13 0x141C995CD85B1948195B991959 PUSH1 0x9A SHL PUSH1 0x44 DUP3 ADD MSTORE PUSH1 0x64 SWAP1 REVERT JUMPDEST ISZERO PUSH2 0x26B9 JUMPI JUMP JUMPDEST PUSH1 0x40 MLOAD PUSH3 0x461BCD PUSH1 0xE5 SHL DUP2 MSTORE PUSH1 0x20 PUSH1 0x4 DUP3 ADD MSTORE PUSH1 0x11 PUSH1 0x24 DUP3 ADD MSTORE PUSH17 0x141C995CD85B1948199A5B985B1A5E9959 PUSH1 0x7A SHL PUSH1 0x44 DUP3 ADD MSTORE PUSH1 0x64 SWAP1 REVERT JUMPDEST PUSH2 0x273E PUSH2 0x2739 PUSH2 0x11BB PUSH1 0x7 PUSH2 0x133 PUSH2 0x2719 PUSH2 0x2711 PUSH2 0x333 PUSH2 0x138 PUSH2 0x503 JUMP JUMPDEST TIMESTAMP LT ISZERO PUSH2 0x2634 JUMP JUMPDEST PUSH2 0x2733 PUSH2 0x272B PUSH2 0x333 PUSH1 0x6 DUP5 ADD PUSH2 0x503 JUMP JUMPDEST TIMESTAMP GT ISZERO PUSH2 0x2676 JUMP JUMPDEST ADD PUSH2 0x5FF JUMP JUMPDEST PUSH2 0x26B2 JUMP JUMPDEST PUSH2 0x38A PUSH2 0x2756 PUSH2 0x11BF PUSH2 0x11BB PUSH2 0x11B6 CALLER PUSH2 0x12F PUSH2 0x7BE JUMP JUMPDEST PUSH2 0x38A PUSH2 0x2761 PUSH2 0x375E JUMP JUMPDEST PUSH2 0x1806 PUSH2 0x28FB JUMP JUMPDEST ISZERO PUSH2 0x2770 JUMPI JUMP JUMPDEST PUSH1 0x40 MLOAD PUSH3 0x461BCD PUSH1 0xE5 SHL DUP2 MSTORE PUSH1 0x20 PUSH1 0x4 DUP3 ADD MSTORE PUSH1 0x16 PUSH1 0x24 DUP3 ADD MSTORE PUSH22 0x2132B637BB9036B4B71031B7B73A3934B13ABA34B7B7 PUSH1 0x51 SHL PUSH1 0x44 DUP3 ADD MSTORE PUSH1 0x64 SWAP1 REVERT JUMPDEST ISZERO PUSH2 0x27B5 JUMPI JUMP JUMPDEST PUSH1 0x40 MLOAD PUSH3 0x461BCD PUSH1 0xE5 SHL DUP2 MSTORE PUSH1 0x20 PUSH1 0x4 DUP3 ADD MSTORE PUSH1 0x16 PUSH1 0x24 DUP3 ADD MSTORE PUSH22 0x20B137BB329036B0BC1031B7B73A3934B13ABA34B7B7 PUSH1 0x51 SHL PUSH1 0x44 DUP3 ADD MSTORE PUSH1 0x64 SWAP1 REVERT JUMPDEST ISZERO PUSH2 0x27FA JUMPI JUMP JUMPDEST PUSH1 0x40 MLOAD PUSH3 0x461BCD PUSH1 0xE5 SHL DUP2 MSTORE PUSH1 0x20 PUSH1 0x4 DUP3 ADD MSTORE PUSH1 0x10 PUSH1 0x24 DUP3 ADD MSTORE PUSH16 0x12185C990818D85C081C995858DA1959 PUSH1 0x82 SHL PUSH1 0x44 DUP3 ADD MSTORE PUSH1 0x64 SWAP1 REVERT JUMPDEST ISZERO PUSH2 0x2839 JUMPI JUMP JUMPDEST PUSH1 0x40 MLOAD PUSH3 0x461BCD PUSH1 0xE5 SHL DUP2 MSTORE PUSH1 0x20 PUSH1 0x4 DUP3 ADD MSTORE PUSH1 0xF PUSH1 0x24 DUP3 ADD MSTORE PUSH15 0x139BDD081DDA1A5D195B1A5CDD1959 PUSH1 0x8A SHL PUSH1 0x44 DUP3 ADD MSTORE PUSH1 0x64 SWAP1 REVERT JUMPDEST ISZERO PUSH2 0x2877 JUMPI JUMP JUMPDEST PUSH1 0x40 MLOAD PUSH3 0x461BCD PUSH1 0xE5 SHL DUP2 MSTORE PUSH1 0x20 PUSH1 0x4 DUP3 ADD MSTORE PUSH1 0x14 PUSH1 0x24 DUP3 ADD MSTORE PUSH20 0x125B9D985B1A59081D1BDAD95B88185B5BDD5B9D PUSH1 0x62 SHL PUSH1 0x44 DUP3 ADD MSTORE PUSH1 0x64 SWAP1 REVERT JUMPDEST ISZERO PUSH2 0x28BA JUMPI JUMP JUMPDEST PUSH1 0x40 MLOAD PUSH3 0x461BCD PUSH1 0xE5 SHL DUP2 MSTORE PUSH1 0x20 PUSH1 0x4 DUP3 ADD MSTORE PUSH1 0x19 PUSH1 0x24 DUP3 ADD MSTORE PUSH25 0x13585E0818DBDB9D1C9A589D5D1A5BDB88195E18D959591959 PUSH1 0x3A SHL PUSH1 0x44 DUP3 ADD MSTORE PUSH1 0x64 SWAP1 REVERT JUMPDEST PUSH2 0x29F9 PUSH2 0x133 PUSH2 0x291A PUSH2 0x2912 PUSH2 0x333 PUSH2 0x135 PUSH2 0x503 JUMP JUMPDEST CALLVALUE LT ISZERO PUSH2 0x2769 JUMP JUMPDEST PUSH2 0x1987 PUSH1 0x9 PUSH1 0x3 DUP4 ADD SWAP3 PUSH2 0x293B PUSH2 0x2933 PUSH2 0x333 DUP7 PUSH2 0x503 JUMP JUMPDEST CALLVALUE GT ISZERO PUSH2 0x27AE JUMP JUMPDEST PUSH2 0x29EE PUSH1 0x8 DUP3 ADD PUSH2 0x2971 PUSH2 0x2958 PUSH2 0x2951 DUP4 PUSH2 0x503 JUMP JUMPDEST CALLVALUE SWAP1 PUSH2 0x1402 JUMP JUMPDEST PUSH2 0x296A PUSH2 0x175E PUSH2 0x333 PUSH1 0x1 DUP9 ADD PUSH2 0x503 JUMP JUMPDEST GT ISZERO PUSH2 0x27F3 JUMP JUMPDEST PUSH2 0x297D PUSH1 0x7 DUP5 ADD PUSH2 0x518 JUMP JUMPDEST PUSH2 0x2A39 JUMPI JUMPDEST PUSH2 0x29CE PUSH2 0x299A PUSH2 0x2994 PUSH1 0x4 DUP7 ADD PUSH2 0x503 JUMP JUMPDEST CALLVALUE PUSH2 0x1A7C JUMP JUMPDEST SWAP7 PUSH2 0x29AF PUSH2 0x29A8 PUSH1 0x0 PUSH2 0xD02 JUMP JUMPDEST DUP10 GT PUSH2 0x2870 JUMP JUMPDEST PUSH2 0x29E7 PUSH2 0x175E PUSH2 0x333 PUSH2 0x29E1 PUSH2 0x123B PUSH2 0x13D PUSH2 0x29DA PUSH2 0x29CE CALLER DUP4 PUSH2 0x7BE JUMP JUMPDEST PUSH2 0x1987 PUSH2 0x2951 DUP3 PUSH2 0x503 JUMP JUMPDEST CALLER SWAP1 PUSH2 0x7BE JUMP JUMPDEST SWAP4 PUSH2 0x503 JUMP JUMPDEST GT ISZERO PUSH2 0x28B3 JUMP JUMPDEST ADD SWAP2 PUSH2 0x1428 DUP4 PUSH2 0x503 JUMP JUMPDEST PUSH2 0x2A02 CALLER PUSH2 0x7B5 JUMP JUMPDEST PUSH32 0x3D0AB7E8209F975AE8D4C319005AC3A64CF3B4EE6503D416ABB001D442EB1ABC PUSH2 0x2A2C PUSH1 0x40 MLOAD SWAP1 JUMP JUMPDEST CALLVALUE DUP2 MSTORE DUP1 PUSH1 0x20 DUP2 ADD PUSH2 0x113C JUMP JUMPDEST PUSH2 0x2A50 PUSH2 0x2A4B PUSH2 0x11B6 CALLER PUSH2 0x13E PUSH2 0x7BE JUMP JUMPDEST PUSH2 0x2832 JUMP JUMPDEST PUSH2 0x2982 JUMP JUMPDEST PUSH2 0x38A PUSH2 0x26F2 JUMP JUMPDEST PUSH2 0x333 SWAP2 PUSH2 0xD2E PUSH2 0x123B SWAP3 PUSH2 0x2A70 PUSH1 0x0 SWAP1 JUMP JUMPDEST POP PUSH1 0x34 PUSH2 0x7BE JUMP JUMPDEST ISZERO PUSH2 0x2A7F JUMPI JUMP JUMPDEST PUSH1 0x40 MLOAD PUSH3 0x461BCD PUSH1 0xE5 SHL DUP2 MSTORE PUSH1 0x20 PUSH1 0x4 DUP3 ADD MSTORE PUSH1 0x2E PUSH1 0x24 DUP3 ADD MSTORE PUSH32 0x496E697469616C697A61626C653A20636F6E747261637420697320616C726561 PUSH1 0x44 DUP3 ADD MSTORE PUSH14 0x191E481A5B9A5D1A585B1A5E9959 PUSH1 0x92 SHL PUSH1 0x64 DUP3 ADD MSTORE PUSH1 0x84 SWAP1 REVERT JUMPDEST PUSH2 0x512 PUSH2 0x333 PUSH2 0x333 SWAP3 PUSH1 0xFF AND SWAP1 JUMP JUMPDEST SWAP1 PUSH2 0x105E PUSH2 0x333 PUSH2 0x1065 SWAP3 PUSH2 0x2ADB JUMP JUMPDEST PUSH2 0x3C2 SWAP1 PUSH2 0x1261 JUMP JUMPDEST PUSH1 0x20 DUP2 ADD SWAP3 SWAP2 PUSH2 0x38A SWAP2 SWAP1 PUSH2 0x2AFB JUMP JUMPDEST PUSH2 0x2B5A PUSH2 0x2B24 PUSH2 0x11BB PUSH1 0x0 PUSH2 0x5FF JUMP JUMPDEST SWAP2 DUP3 DUP1 PUSH2 0x2BF7 JUMPI JUMPDEST DUP1 ISZERO PUSH2 0x2BB2 JUMPI JUMPDEST PUSH2 0x2B3C SWAP1 PUSH2 0x2A78 JUMP JUMPDEST DUP3 PUSH2 0x2B51 PUSH2 0x2B4A PUSH1 0x1 PUSH2 0x1261 JUMP JUMPDEST PUSH1 0x0 PUSH2 0x2AEB JUMP JUMPDEST PUSH2 0x2BA1 JUMPI PUSH2 0x2F71 JUMP JUMPDEST PUSH2 0x2B60 JUMPI JUMP JUMPDEST PUSH2 0x2B6B PUSH1 0x0 DUP1 PUSH2 0x22FD JUMP JUMPDEST PUSH32 0x7F26B83FF96E1F2B6A682F133852F6798A09C465DA95921460CEFB3847402498 PUSH2 0x2B95 PUSH1 0x40 MLOAD SWAP1 JUMP JUMPDEST DUP1 PUSH2 0x23E2 PUSH1 0x1 DUP3 PUSH2 0x2B04 JUMP JUMPDEST PUSH2 0x2BAD PUSH1 0x1 PUSH1 0x0 PUSH2 0x22FD JUMP JUMPDEST PUSH2 0x2F71 JUMP JUMPDEST POP PUSH2 0x2BC7 PUSH2 0x11BB PUSH2 0x2BC2 ADDRESS PUSH2 0x7B5 JUMP JUMPDEST PUSH2 0x3948 JUMP JUMPDEST DUP1 ISZERO PUSH2 0x2B33 JUMPI POP PUSH2 0x2B3C PUSH2 0x2BDB PUSH1 0x0 PUSH2 0x518 JUMP JUMPDEST PUSH2 0x2BEF PUSH2 0x2BE8 PUSH1 0x1 PUSH2 0x1261 JUMP JUMPDEST SWAP2 PUSH1 0xFF AND SWAP1 JUMP JUMPDEST EQ SWAP1 POP PUSH2 0x2B33 JUMP JUMPDEST POP PUSH2 0x2C02 PUSH1 0x0 PUSH2 0x518 JUMP JUMPDEST PUSH2 0x2C0F PUSH2 0x2BE8 PUSH1 0x1 PUSH2 0x1261 JUMP JUMPDEST LT PUSH2 0x2B2C JUMP JUMPDEST SWAP1 CALLDATALOAD SWAP1 PUSH1 0x1E NOT CALLDATASIZE DUP3 SWAP1 SUB ADD DUP3 SLT ISZERO PUSH2 0x2B7 JUMPI ADD DUP1 CALLDATALOAD SWAP1 PUSH1 0x1 PUSH1 0x1 PUSH1 0x40 SHL SUB DUP3 GT PUSH2 0x2B7 JUMPI PUSH1 0x20 ADD SWAP2 CALLDATASIZE DUP3 SWAP1 SUB DUP4 SGT PUSH2 0x2B7 JUMPI JUMP JUMPDEST PUSH2 0x333 SWAP2 CALLDATASIZE SWAP2 PUSH2 0x895 JUMP JUMPDEST CALLDATALOAD PUSH2 0x333 DUP2 PUSH2 0x38C JUMP JUMPDEST ISZERO PUSH2 0x2C65 JUMPI JUMP JUMPDEST PUSH1 0x40 MLOAD PUSH3 0x461BCD PUSH1 0xE5 SHL DUP2 MSTORE PUSH1 0x20 PUSH1 0x4 DUP3 ADD MSTORE PUSH1 0x24 DUP1 DUP3 ADD MSTORE PUSH32 0x4D617820737570706C79206D757374206265203E3D20696E697469616C207375 PUSH1 0x44 DUP3 ADD MSTORE PUSH4 0x70706C79 PUSH1 0xE0 SHL PUSH1 0x64 DUP3 ADD MSTORE PUSH1 0x84 SWAP1 REVERT JUMPDEST ISZERO PUSH2 0x2CBD JUMPI JUMP JUMPDEST PUSH1 0x40 MLOAD PUSH3 0x461BCD PUSH1 0xE5 SHL DUP2 MSTORE PUSH1 0x20 PUSH1 0x4 DUP3 ADD MSTORE PUSH1 0x14 PUSH1 0x24 DUP3 ADD MSTORE PUSH20 0x496E76616C69642070726573616C652072617465 PUSH1 0x60 SHL PUSH1 0x44 DUP3 ADD MSTORE PUSH1 0x64 SWAP1 REVERT JUMPDEST ISZERO PUSH2 0x2D00 JUMPI JUMP JUMPDEST PUSH1 0x40 MLOAD PUSH3 0x461BCD PUSH1 0xE5 SHL DUP2 MSTORE PUSH1 0x20 PUSH1 0x4 DUP3 ADD MSTORE PUSH1 0x1C PUSH1 0x24 DUP3 ADD MSTORE PUSH28 0x53746172742074696D65206D75737420626520696E20667574757265 PUSH1 0x20 SHL PUSH1 0x44 DUP3 ADD MSTORE PUSH1 0x64 SWAP1 REVERT JUMPDEST ISZERO PUSH2 0x2D4B JUMPI JUMP JUMPDEST PUSH1 0x40 MLOAD PUSH3 0x461BCD PUSH1 0xE5 SHL DUP2 MSTORE PUSH1 0x20 PUSH1 0x4 DUP3 ADD MSTORE PUSH1 0x21 PUSH1 0x24 DUP3 ADD MSTORE PUSH32 0x456E642074696D65206D7573742062652061667465722073746172742074696D PUSH1 0x44 DUP3 ADD MSTORE PUSH1 0x65 PUSH1 0xF8 SHL PUSH1 0x64 DUP3 ADD MSTORE PUSH1 0x84 SWAP1 REVERT JUMPDEST CALLDATALOAD PUSH2 0x333 DUP2 PUSH2 0x3F5 JUMP JUMPDEST PUSH2 0x333 PUSH2 0x160 PUSH2 0x859 JUMP JUMPDEST PUSH1 0x9 PUSH2 0x1EA5 PUSH2 0x140 PUSH2 0x38A SWAP5 PUSH2 0x2DCF PUSH2 0x2DC9 PUSH1 0x0 DUP4 ADD MLOAD SWAP1 JUMP JUMPDEST DUP7 PUSH2 0x15B3 JUMP JUMPDEST PUSH2 0x2DDD PUSH2 0x1E51 PUSH1 0x20 DUP4 ADD MLOAD SWAP1 JUMP JUMPDEST PUSH2 0x2DEB PUSH2 0x1E68 PUSH1 0x40 DUP4 ADD MLOAD SWAP1 JUMP JUMPDEST PUSH2 0x2E02 PUSH2 0x2DF9 PUSH1 0x60 DUP4 ADD MLOAD SWAP1 JUMP JUMPDEST PUSH1 0x3 DUP8 ADD PUSH2 0x15B3 JUMP JUMPDEST PUSH2 0x2E10 PUSH2 0x1E97 PUSH1 0x80 DUP4 ADD MLOAD SWAP1 JUMP JUMPDEST PUSH2 0x2E27 PUSH2 0x2E1E PUSH1 0xA0 DUP4 ADD MLOAD SWAP1 JUMP JUMPDEST PUSH1 0x5 DUP8 ADD PUSH2 0x15B3 JUMP JUMPDEST PUSH2 0x2E3E PUSH2 0x2E35 PUSH1 0xC0 DUP4 ADD MLOAD SWAP1 JUMP JUMPDEST PUSH1 0x6 DUP8 ADD PUSH2 0x15B3 JUMP JUMPDEST PUSH2 0x2E69 PUSH1 0x7 DUP7 ADD PUSH2 0x2E5B PUSH2 0x2E55 PUSH1 0xE0 DUP6 ADD MLOAD ISZERO ISZERO SWAP1 JUMP JUMPDEST DUP3 PUSH2 0x104E JUMP JUMPDEST PUSH2 0x100 DUP4 ADD MLOAD ISZERO ISZERO SWAP1 PUSH2 0x22FD JUMP JUMPDEST PUSH2 0x1EA0 PUSH2 0x2E78 PUSH2 0x120 DUP4 ADD MLOAD SWAP1 JUMP JUMPDEST PUSH1 0x8 DUP8 ADD PUSH2 0x15B3 JUMP JUMPDEST SWAP1 PUSH2 0x38A SWAP2 PUSH2 0x2DAF JUMP JUMPDEST PUSH2 0x333 PUSH1 0x80 PUSH2 0x859 JUMP JUMPDEST PUSH1 0x3 PUSH2 0x2ED1 PUSH1 0x60 PUSH2 0x38A SWAP5 PUSH2 0x2EAE PUSH2 0x2DC9 PUSH1 0x0 DUP4 ADD MLOAD SWAP1 JUMP JUMPDEST PUSH2 0x2EBC PUSH2 0x1E51 PUSH1 0x20 DUP4 ADD MLOAD SWAP1 JUMP JUMPDEST PUSH2 0x2ECA PUSH2 0x1E68 PUSH1 0x40 DUP4 ADD MLOAD SWAP1 JUMP JUMPDEST ADD MLOAD ISZERO ISZERO SWAP1 JUMP JUMPDEST SWAP2 ADD PUSH2 0x104E JUMP JUMPDEST SWAP1 PUSH2 0x38A SWAP2 PUSH2 0x2E95 JUMP JUMPDEST CALLDATALOAD PUSH2 0x333 DUP2 PUSH2 0x36D JUMP JUMPDEST PUSH2 0x333 PUSH1 0xE0 PUSH2 0x859 JUMP JUMPDEST PUSH1 0x6 PUSH2 0x1EA5 PUSH1 0xC0 PUSH2 0x38A SWAP5 PUSH2 0x2F16 PUSH2 0x2F10 PUSH1 0x0 DUP4 ADD PUSH2 0x1DF4 JUMP JUMPDEST DUP7 PUSH2 0x1E0D JUMP JUMPDEST PUSH2 0x2F24 PUSH2 0x1E51 PUSH1 0x20 DUP4 ADD MLOAD SWAP1 JUMP JUMPDEST PUSH2 0x2F3D PUSH2 0x2F34 PUSH1 0x40 DUP4 ADD MLOAD ISZERO ISZERO SWAP1 JUMP JUMPDEST PUSH1 0x2 DUP8 ADD PUSH2 0x104E JUMP JUMPDEST PUSH2 0x2F4B PUSH2 0x2DF9 PUSH1 0x60 DUP4 ADD MLOAD SWAP1 JUMP JUMPDEST PUSH2 0x2F59 PUSH2 0x1E97 PUSH1 0x80 DUP4 ADD MLOAD SWAP1 JUMP JUMPDEST PUSH2 0x1EA0 PUSH2 0x2E1E PUSH1 0xA0 DUP4 ADD MLOAD SWAP1 JUMP JUMPDEST SWAP1 PUSH2 0x38A SWAP2 PUSH2 0x2EF6 JUMP JUMPDEST PUSH2 0x2F7B DUP2 DUP1 PUSH2 0x2C15 JUMP JUMPDEST SWAP1 PUSH2 0x2F89 PUSH1 0x20 DUP5 ADD DUP5 PUSH2 0x2C15 JUMP JUMPDEST SWAP3 PUSH2 0x2F94 SWAP2 SWAP3 PUSH2 0x2C49 JUMP JUMPDEST SWAP2 PUSH2 0x2F9E SWAP2 PUSH2 0x2C49 JUMP JUMPDEST PUSH2 0x2FA7 SWAP2 PUSH2 0x39DB JUMP JUMPDEST PUSH2 0x2FAF PUSH2 0x39FD JUMP JUMPDEST PUSH2 0x2FB7 PUSH2 0x3A1D JUMP JUMPDEST PUSH2 0x2FBF PUSH2 0x3A32 JUMP JUMPDEST PUSH1 0x60 DUP2 ADD PUSH2 0x2FCC DUP2 PUSH2 0x2C54 JUMP JUMPDEST SWAP1 PUSH1 0x40 DUP4 ADD SWAP2 PUSH2 0x2FDB DUP4 PUSH2 0x2C54 JUMP JUMPDEST GT ISZERO PUSH2 0x2FE6 SWAP1 PUSH2 0x2C5E JUMP JUMPDEST PUSH1 0xE0 DUP4 ADD SWAP1 PUSH2 0x2FF4 DUP3 PUSH2 0x2C54 JUMP JUMPDEST SWAP2 PUSH1 0x0 SWAP3 PUSH2 0x3001 DUP5 PUSH2 0xD02 JUMP JUMPDEST LT PUSH2 0x300B SWAP1 PUSH2 0x2CB6 JUMP JUMPDEST PUSH2 0x160 DUP6 ADD SWAP1 PUSH2 0x301A DUP3 PUSH2 0x2C54 JUMP JUMPDEST TIMESTAMP LT PUSH2 0x3025 SWAP1 PUSH2 0x2CF9 JUMP JUMPDEST PUSH2 0x180 DUP7 ADD SWAP3 PUSH2 0x3034 DUP5 PUSH2 0x2C54 JUMP JUMPDEST PUSH2 0x303D DUP5 PUSH2 0x2C54 JUMP JUMPDEST LT PUSH2 0x3047 SWAP1 PUSH2 0x2D44 JUMP JUMPDEST PUSH2 0x3050 SWAP1 PUSH2 0x2C54 JUMP JUMPDEST PUSH2 0x305C SWAP1 PUSH2 0x12D PUSH2 0x15B3 JUMP JUMPDEST PUSH2 0x3068 PUSH1 0xA0 DUP8 ADD PUSH2 0x2D9A JUMP JUMPDEST PUSH2 0x3074 SWAP1 PUSH2 0x12E PUSH2 0x104E JUMP JUMPDEST PUSH2 0x3080 PUSH1 0xC0 DUP8 ADD PUSH2 0x2D9A JUMP JUMPDEST PUSH2 0x308C SWAP1 PUSH2 0x12E PUSH2 0x22FD JUMP JUMPDEST PUSH2 0x140 DUP7 ADD SWAP3 PUSH2 0x309B DUP5 PUSH2 0x2C54 JUMP JUMPDEST PUSH2 0x30A5 PUSH1 0x2 PUSH2 0xD02 JUMP JUMPDEST PUSH2 0x30AE SWAP2 PUSH2 0x1AA5 JUMP JUMPDEST SWAP4 PUSH2 0x30B8 SWAP1 PUSH2 0x2C54 JUMP JUMPDEST SWAP2 PUSH2 0x30C6 PUSH2 0x100 DUP10 ADD PUSH2 0x2C54 JUMP JUMPDEST SWAP1 PUSH2 0x30D4 PUSH2 0x120 DUP11 ADD PUSH2 0x2C54 JUMP JUMPDEST SWAP1 PUSH2 0x30DE SWAP1 PUSH2 0x2C54 JUMP JUMPDEST SWAP2 PUSH2 0x30E8 DUP7 PUSH2 0x2C54 JUMP JUMPDEST SWAP4 PUSH2 0x30F2 SWAP1 PUSH2 0x2C54 JUMP JUMPDEST SWAP5 PUSH2 0x30FB PUSH2 0x2DA4 JUMP JUMPDEST SWAP8 PUSH2 0x3106 SWAP1 DUP11 DUP11 ADD MSTORE JUMP JUMPDEST PUSH1 0x20 DUP9 ADD MSTORE PUSH1 0x40 DUP8 ADD MSTORE PUSH1 0x60 DUP7 ADD MSTORE PUSH1 0x80 DUP6 ADD MSTORE PUSH1 0xA0 DUP5 ADD MSTORE PUSH1 0xC0 DUP4 ADD MSTORE DUP3 ISZERO ISZERO PUSH1 0xE0 DUP4 ADD DUP2 SWAP1 MSTORE PUSH2 0x100 DUP4 ADD MSTORE PUSH2 0x313D DUP4 PUSH2 0xD02 JUMP JUMPDEST SWAP2 PUSH2 0x314A DUP4 PUSH2 0x120 DUP4 ADD MSTORE JUMP JUMPDEST PUSH2 0x3156 DUP4 PUSH2 0x140 DUP4 ADD MSTORE JUMP JUMPDEST PUSH2 0x3162 SWAP1 PUSH2 0x133 PUSH2 0x2E81 JUMP JUMPDEST PUSH2 0x316F PUSH2 0x1A0 DUP7 ADD PUSH2 0x2C54 JUMP JUMPDEST PUSH2 0x317C PUSH2 0x1C0 DUP8 ADD PUSH2 0x2C54 JUMP JUMPDEST PUSH2 0x3184 PUSH2 0x2E8B JUMP JUMPDEST SWAP2 PUSH2 0x318F SWAP1 DUP7 DUP5 ADD MSTORE JUMP JUMPDEST PUSH1 0x20 DUP3 ADD MSTORE PUSH2 0x319F DUP4 PUSH1 0x40 DUP4 ADD MSTORE JUMP JUMPDEST DUP4 ISZERO ISZERO PUSH1 0x60 DUP3 ADD MSTORE PUSH2 0x31B3 SWAP1 PUSH2 0x146 PUSH2 0x2ED8 JUMP JUMPDEST PUSH2 0x31C0 PUSH2 0x1E0 DUP7 ADD PUSH2 0x2EE2 JUMP JUMPDEST SWAP1 PUSH2 0x31CE PUSH2 0x200 DUP8 ADD PUSH2 0x2C54 JUMP JUMPDEST PUSH2 0x31DB PUSH2 0x220 DUP9 ADD PUSH2 0x2D9A JUMP JUMPDEST PUSH2 0x31E8 PUSH2 0x240 DUP10 ADD PUSH2 0x2C54 JUMP JUMPDEST SWAP2 PUSH2 0x31F6 PUSH2 0x260 DUP11 ADD PUSH2 0x2C54 JUMP JUMPDEST SWAP4 PUSH2 0x3200 SWAP1 PUSH2 0x2C54 JUMP JUMPDEST SWAP5 PUSH2 0x3209 PUSH2 0x2EEC JUMP JUMPDEST SWAP8 DUP9 ADD SWAP1 PUSH2 0x3216 SWAP2 PUSH2 0x19C9 JUMP JUMPDEST PUSH1 0x20 DUP8 ADD MSTORE ISZERO ISZERO PUSH1 0x40 DUP7 ADD MSTORE PUSH1 0x60 DUP6 ADD MSTORE PUSH1 0x80 DUP5 ADD MSTORE PUSH1 0xA0 DUP4 ADD MSTORE PUSH1 0xC0 DUP3 ADD MSTORE PUSH2 0x3242 SWAP1 PUSH2 0x13F PUSH2 0x2F67 JUMP JUMPDEST PUSH2 0x324B ADDRESS PUSH2 0x7B5 JUMP JUMPDEST SWAP1 PUSH2 0x3255 SWAP1 PUSH2 0x2C54 JUMP JUMPDEST PUSH2 0x325E SWAP2 PUSH2 0x3A86 JUMP JUMPDEST PUSH1 0x80 ADD PUSH2 0x326A SWAP1 PUSH2 0x2EE2 JUMP JUMPDEST PUSH2 0x38A SWAP1 PUSH2 0x36B5 JUMP JUMPDEST PUSH2 0x38A SWAP1 PUSH2 0x2B14 JUMP JUMPDEST PUSH2 0x38A SWAP1 PUSH2 0x3288 PUSH2 0x34A3 JUMP JUMPDEST PUSH2 0x32E8 JUMP JUMPDEST ISZERO PUSH2 0x3294 JUMPI JUMP JUMPDEST PUSH1 0x40 MLOAD PUSH3 0x461BCD PUSH1 0xE5 SHL DUP2 MSTORE PUSH1 0x20 PUSH1 0x4 DUP3 ADD MSTORE PUSH1 0x26 PUSH1 0x24 DUP3 ADD MSTORE PUSH32 0x4F776E61626C653A206E6577206F776E657220697320746865207A65726F2061 PUSH1 0x44 DUP3 ADD MSTORE PUSH6 0x646472657373 PUSH1 0xD0 SHL PUSH1 0x64 DUP3 ADD MSTORE PUSH1 0x84 SWAP1 REVERT JUMPDEST PUSH2 0x38A SWAP1 PUSH2 0x17E8 PUSH2 0x32FC PUSH2 0x1941 PUSH1 0x0 PUSH2 0x17D2 JUMP JUMPDEST PUSH2 0x3305 DUP4 PUSH2 0x361 JUMP JUMPDEST EQ ISZERO PUSH2 0x328D JUMP JUMPDEST PUSH2 0x38A SWAP1 PUSH2 0x327C JUMP JUMPDEST ISZERO PUSH2 0x331C JUMPI JUMP JUMPDEST PUSH1 0x40 MLOAD PUSH3 0x461BCD PUSH1 0xE5 SHL DUP2 MSTORE PUSH1 0x20 PUSH1 0x4 DUP3 ADD MSTORE PUSH1 0x24 DUP1 DUP3 ADD MSTORE PUSH32 0x45524332303A20617070726F76652066726F6D20746865207A65726F20616464 PUSH1 0x44 DUP3 ADD MSTORE PUSH4 0x72657373 PUSH1 0xE0 SHL PUSH1 0x64 DUP3 ADD MSTORE PUSH1 0x84 SWAP1 REVERT JUMPDEST ISZERO PUSH2 0x3374 JUMPI JUMP JUMPDEST PUSH1 0x40 MLOAD PUSH3 0x461BCD PUSH1 0xE5 SHL DUP2 MSTORE PUSH1 0x20 PUSH1 0x4 DUP3 ADD MSTORE PUSH1 0x22 PUSH1 0x24 DUP3 ADD MSTORE PUSH32 0x45524332303A20617070726F766520746F20746865207A65726F206164647265 PUSH1 0x44 DUP3 ADD MSTORE PUSH2 0x7373 PUSH1 0xF0 SHL PUSH1 0x64 DUP3 ADD MSTORE PUSH1 0x84 SWAP1 REVERT JUMPDEST PUSH2 0x344E PUSH2 0x3444 PUSH2 0x343E PUSH32 0x8C5BE1E5EBEC7D5BD14F71427D1E84F3DD0314C0F7B2291E5B200AC8C7C3B925 SWAP4 PUSH2 0x342B PUSH2 0x341B PUSH2 0x33FF PUSH1 0x0 PUSH2 0x17D2 JUMP JUMPDEST PUSH2 0x1941 PUSH2 0x340B DUP3 PUSH2 0x361 JUMP JUMPDEST PUSH2 0x3414 DUP7 PUSH2 0x361 JUMP JUMPDEST EQ ISZERO PUSH2 0x3315 JUMP JUMPDEST PUSH2 0x3424 DUP9 PUSH2 0x361 JUMP JUMPDEST EQ ISZERO PUSH2 0x336D JUMP JUMPDEST PUSH2 0x112D DUP8 PUSH2 0x161E DUP9 PUSH2 0xD2E DUP6 PUSH1 0x34 PUSH2 0x7BE JUMP JUMPDEST SWAP4 PUSH2 0x7B5 JUMP JUMPDEST SWAP4 PUSH2 0x46C PUSH1 0x40 MLOAD SWAP1 JUMP JUMPDEST SUB SWAP1 LOG3 JUMP JUMPDEST ISZERO PUSH2 0x345A JUMPI JUMP JUMPDEST PUSH1 0x40 MLOAD PUSH3 0x461BCD PUSH1 0xE5 SHL DUP2 MSTORE DUP1 PUSH2 0x10DE PUSH1 0x4 DUP3 ADD PUSH1 0x20 DUP1 DUP3 MSTORE DUP2 DUP2 ADD MSTORE PUSH32 0x4F776E61626C653A2063616C6C6572206973206E6F7420746865206F776E6572 PUSH1 0x40 DUP3 ADD MSTORE PUSH1 0x60 ADD SWAP1 JUMP JUMPDEST PUSH2 0x38A PUSH2 0x34AE PUSH2 0x2207 JUMP JUMPDEST PUSH2 0x34BA PUSH2 0x1357 CALLER PUSH2 0x361 JUMP JUMPDEST EQ PUSH2 0x3453 JUMP JUMPDEST PUSH2 0x1028 SWAP3 SWAP2 SWAP1 PUSH2 0x34D1 DUP4 CALLER DUP4 PUSH2 0x3B36 JUMP JUMPDEST PUSH2 0x38A8 JUMP JUMPDEST PUSH2 0x333 PUSH1 0x0 PUSH2 0x34E6 PUSH2 0x333 PUSH2 0x1517 JUMP JUMPDEST ADD PUSH2 0x4F2 JUMP JUMPDEST POP PUSH2 0x38A PUSH2 0x34A3 JUMP JUMPDEST PUSH2 0x38A SWAP1 PUSH2 0x34EC JUMP JUMPDEST PUSH2 0x333 PUSH32 0x4910FDFA16FED3260ED0E7147F7CC6DA11A60208B5B9406D12A635614FFD9143 PUSH2 0xD02 JUMP JUMPDEST SWAP1 POP MLOAD SWAP1 PUSH2 0x38A DUP3 PUSH2 0x38C JUMP JUMPDEST SWAP1 PUSH1 0x20 DUP3 DUP3 SUB SLT PUSH2 0x2B7 JUMPI PUSH2 0x333 SWAP2 PUSH2 0x3527 JUMP JUMPDEST ISZERO PUSH2 0x354F JUMPI JUMP JUMPDEST PUSH1 0x40 MLOAD PUSH3 0x461BCD PUSH1 0xE5 SHL DUP2 MSTORE PUSH1 0x20 PUSH1 0x4 DUP3 ADD MSTORE PUSH1 0x29 PUSH1 0x24 DUP3 ADD MSTORE PUSH32 0x45524331393637557067726164653A20756E737570706F727465642070726F78 PUSH1 0x44 DUP3 ADD MSTORE PUSH9 0x1A58589B1955555251 PUSH1 0xBA SHL PUSH1 0x64 DUP3 ADD MSTORE PUSH1 0x84 SWAP1 REVERT JUMPDEST SWAP2 SWAP1 PUSH2 0x35BE PUSH1 0x0 PUSH2 0x35B8 PUSH2 0x333 PUSH2 0x34FE JUMP JUMPDEST ADD PUSH2 0x518 JUMP JUMPDEST ISZERO PUSH2 0x35CE JUMPI POP POP PUSH2 0x38A SWAP1 PUSH2 0x3C0F JUMP JUMPDEST PUSH2 0x35DA PUSH2 0x112D DUP5 PUSH2 0x7B5 JUMP JUMPDEST SWAP3 PUSH1 0x20 PUSH2 0x35E6 PUSH1 0x40 MLOAD SWAP1 JUMP JUMPDEST PUSH4 0x52D1902D PUSH1 0xE0 SHL DUP2 MSTORE SWAP5 DUP6 SWAP1 PUSH1 0x4 SWAP1 DUP3 SWAP1 GAS STATICCALL PUSH1 0x0 SWAP5 DUP2 PUSH2 0x3684 JUMPI JUMPDEST POP PUSH2 0x3664 JUMPI PUSH1 0x40 MLOAD PUSH3 0x461BCD PUSH1 0xE5 SHL DUP2 MSTORE PUSH1 0x20 PUSH1 0x4 DUP3 ADD MSTORE PUSH1 0x2E PUSH1 0x24 DUP3 ADD MSTORE PUSH32 0x45524331393637557067726164653A206E657720696D706C656D656E74617469 PUSH1 0x44 DUP3 ADD MSTORE PUSH14 0x6F6E206973206E6F742055555053 PUSH1 0x90 SHL PUSH1 0x64 DUP3 ADD MSTORE PUSH1 0x84 SWAP1 REVERT JUMPDEST PUSH2 0x367F PUSH2 0x38A SWAP5 PUSH2 0x3679 PUSH2 0x175E PUSH2 0x333 PUSH2 0x1517 JUMP JUMPDEST EQ PUSH2 0x3548 JUMP JUMPDEST PUSH2 0x3B6E JUMP JUMPDEST PUSH2 0x36A7 SWAP2 SWAP6 POP PUSH1 0x20 RETURNDATASIZE PUSH1 0x20 GT PUSH2 0x36AE JUMPI JUMPDEST PUSH2 0x369F DUP2 DUP4 PUSH2 0x833 JUMP JUMPDEST DUP2 ADD SWAP1 PUSH2 0x3534 JUMP JUMPDEST SWAP4 CODESIZE PUSH2 0x3603 JUMP JUMPDEST POP RETURNDATASIZE PUSH2 0x3695 JUMP JUMPDEST PUSH2 0x36D6 PUSH2 0x36D0 PUSH2 0x36C5 PUSH1 0x65 PUSH2 0x4F2 JUMP JUMPDEST PUSH2 0x112D DUP5 PUSH1 0x65 PUSH2 0x1E0D JUMP JUMPDEST SWAP2 PUSH2 0x7B5 JUMP JUMPDEST SWAP1 PUSH32 0x8BE0079C531659141344CD1FD0A4F28419497F9722A3DAAFE3B4186F6B6457E0 PUSH2 0x3701 PUSH1 0x40 MLOAD SWAP1 JUMP JUMPDEST DUP1 DUP1 PUSH2 0x344E JUMP JUMPDEST PUSH2 0x333 PUSH1 0x2 PUSH2 0xD02 JUMP JUMPDEST ISZERO PUSH2 0x3719 JUMPI JUMP JUMPDEST PUSH1 0x40 MLOAD PUSH3 0x461BCD PUSH1 0xE5 SHL DUP2 MSTORE PUSH1 0x20 PUSH1 0x4 DUP3 ADD MSTORE PUSH1 0x1F PUSH1 0x24 DUP3 ADD MSTORE PUSH32 0x5265656E7472616E637947756172643A207265656E7472616E742063616C6C00 PUSH1 0x44 DUP3 ADD MSTORE PUSH1 0x64 SWAP1 REVERT JUMPDEST PUSH2 0x38A PUSH2 0x376B PUSH1 0x97 PUSH2 0x503 JUMP JUMPDEST PUSH2 0x377F PUSH2 0x3776 PUSH2 0x3708 JUMP JUMPDEST SWAP2 DUP3 EQ ISZERO PUSH2 0x3712 JUMP JUMPDEST PUSH1 0x97 PUSH2 0x15B3 JUMP JUMPDEST PUSH2 0x333 PUSH1 0x1 PUSH2 0xD02 JUMP JUMPDEST PUSH2 0x38A PUSH2 0x377F PUSH2 0x3786 JUMP JUMPDEST ISZERO PUSH2 0x37A2 JUMPI JUMP JUMPDEST PUSH1 0x40 MLOAD PUSH3 0x461BCD PUSH1 0xE5 SHL DUP2 MSTORE PUSH1 0x20 PUSH1 0x4 DUP3 ADD MSTORE PUSH1 0x25 PUSH1 0x24 DUP3 ADD MSTORE PUSH32 0x45524332303A207472616E736665722066726F6D20746865207A65726F206164 PUSH1 0x44 DUP3 ADD MSTORE PUSH5 0x6472657373 PUSH1 0xD8 SHL PUSH1 0x64 DUP3 ADD MSTORE PUSH1 0x84 SWAP1 REVERT JUMPDEST ISZERO PUSH2 0x37FC JUMPI JUMP JUMPDEST PUSH1 0x40 MLOAD PUSH3 0x461BCD PUSH1 0xE5 SHL DUP2 MSTORE PUSH1 0x20 PUSH1 0x4 DUP3 ADD MSTORE PUSH1 0x23 PUSH1 0x24 DUP3 ADD MSTORE PUSH32 0x45524332303A207472616E7366657220746F20746865207A65726F2061646472 PUSH1 0x44 DUP3 ADD MSTORE PUSH3 0x657373 PUSH1 0xE8 SHL PUSH1 0x64 DUP3 ADD MSTORE PUSH1 0x84 SWAP1 REVERT JUMPDEST ISZERO PUSH2 0x3854 JUMPI JUMP JUMPDEST PUSH1 0x40 MLOAD PUSH3 0x461BCD PUSH1 0xE5 SHL DUP2 MSTORE PUSH1 0x20 PUSH1 0x4 DUP3 ADD MSTORE PUSH1 0x26 PUSH1 0x24 DUP3 ADD MSTORE PUSH32 0x45524332303A207472616E7366657220616D6F756E7420657863656564732062 PUSH1 0x44 DUP3 ADD MSTORE PUSH6 0x616C616E6365 PUSH1 0xD0 SHL PUSH1 0x64 DUP3 ADD MSTORE PUSH1 0x84 SWAP1 REVERT JUMPDEST PUSH2 0x344E PUSH2 0x3444 PUSH2 0x343E PUSH1 0x0 DUP1 MLOAD PUSH1 0x20 PUSH2 0x3E42 DUP4 CODECOPY DUP2 MLOAD SWAP2 MSTORE SWAP4 PUSH2 0x38FD PUSH2 0x38ED PUSH2 0x38D1 PUSH1 0x0 PUSH2 0x17D2 JUMP JUMPDEST PUSH2 0x1941 PUSH2 0x38DD DUP3 PUSH2 0x361 JUMP JUMPDEST PUSH2 0x38E6 DUP7 PUSH2 0x361 JUMP JUMPDEST EQ ISZERO PUSH2 0x379B JUMP JUMPDEST PUSH2 0x38F6 DUP9 PUSH2 0x361 JUMP JUMPDEST EQ ISZERO PUSH2 0x37F5 JUMP JUMPDEST PUSH2 0x112D PUSH2 0x3930 DUP8 PUSH1 0x33 PUSH2 0xD2E PUSH2 0x3926 DUP13 PUSH2 0x391A PUSH2 0x123B DUP10 DUP7 PUSH2 0x7BE JUMP JUMPDEST PUSH2 0x2527 DUP3 DUP3 LT ISZERO PUSH2 0x384D JUMP JUMPDEST PUSH2 0x161E DUP8 DUP5 PUSH2 0x7BE JUMP JUMPDEST PUSH2 0x1987 DUP10 PUSH2 0x31E DUP4 PUSH2 0x503 JUMP JUMPDEST PUSH2 0x1028 SWAP2 SWAP1 CALLER PUSH2 0x38A8 JUMP JUMPDEST EXTCODESIZE PUSH2 0x3956 PUSH2 0x175E PUSH1 0x0 PUSH2 0xD02 JUMP JUMPDEST GT SWAP1 JUMP JUMPDEST ISZERO PUSH2 0x3961 JUMPI JUMP JUMPDEST PUSH1 0x40 MLOAD PUSH3 0x461BCD PUSH1 0xE5 SHL DUP2 MSTORE PUSH1 0x20 PUSH1 0x4 DUP3 ADD MSTORE PUSH1 0x2B PUSH1 0x24 DUP3 ADD MSTORE PUSH32 0x496E697469616C697A61626C653A20636F6E7472616374206973206E6F742069 PUSH1 0x44 DUP3 ADD MSTORE PUSH11 0x6E697469616C697A696E67 PUSH1 0xA8 SHL PUSH1 0x64 DUP3 ADD MSTORE PUSH1 0x84 SWAP1 REVERT JUMPDEST SWAP1 PUSH2 0x38A SWAP2 PUSH2 0x39D1 PUSH2 0x39CC PUSH1 0x0 PUSH2 0x5FF JUMP JUMPDEST PUSH2 0x395A JUMP JUMPDEST SWAP1 PUSH2 0x38A SWAP2 PUSH2 0x3C5F JUMP JUMPDEST SWAP1 PUSH2 0x38A SWAP2 PUSH2 0x39BA JUMP JUMPDEST PUSH2 0x39F2 PUSH2 0x39CC PUSH1 0x0 PUSH2 0x5FF JUMP JUMPDEST PUSH2 0x38A PUSH2 0x38A PUSH2 0x3C80 JUMP JUMPDEST PUSH2 0x38A PUSH2 0x39E5 JUMP JUMPDEST PUSH2 0x3A12 PUSH2 0x39CC PUSH1 0x0 PUSH2 0x5FF JUMP JUMPDEST PUSH2 0x38A PUSH2 0x38A PUSH2 0x3C95 JUMP JUMPDEST PUSH2 0x38A PUSH2 0x3A05 JUMP JUMPDEST PUSH2 0x38A PUSH2 0x39CC PUSH1 0x0 PUSH2 0x5FF JUMP JUMPDEST PUSH2 0x38A PUSH2 0x3A25 JUMP JUMPDEST ISZERO PUSH2 0x3A41 JUMPI JUMP JUMPDEST PUSH1 0x40 MLOAD PUSH3 0x461BCD PUSH1 0xE5 SHL DUP2 MSTORE PUSH1 0x20 PUSH1 0x4 DUP3 ADD MSTORE PUSH1 0x1F PUSH1 0x24 DUP3 ADD MSTORE PUSH32 0x45524332303A206D696E7420746F20746865207A65726F206164647265737300 PUSH1 0x44 DUP3 ADD MSTORE PUSH1 0x64 SWAP1 REVERT JUMPDEST PUSH1 0x0 DUP1 MLOAD PUSH1 0x20 PUSH2 0x3E42 DUP4 CODECOPY DUP2 MLOAD SWAP2 MSTORE PUSH2 0x344E PUSH2 0x3444 PUSH2 0x343E PUSH2 0x3AA8 PUSH1 0x0 PUSH2 0x17D2 JUMP JUMPDEST PUSH2 0x3AC4 PUSH2 0x3AB4 DUP3 PUSH2 0x361 JUMP JUMPDEST PUSH2 0x3ABD DUP9 PUSH2 0x361 JUMP JUMPDEST EQ ISZERO PUSH2 0x3A3A JUMP JUMPDEST PUSH2 0x3ADC PUSH2 0x3AD5 DUP9 PUSH2 0x1428 PUSH1 0x35 PUSH2 0x503 JUMP JUMPDEST PUSH1 0x35 PUSH2 0x15B3 JUMP JUMPDEST PUSH2 0x112D PUSH2 0x3930 DUP8 PUSH1 0x33 PUSH2 0x7BE JUMP JUMPDEST ISZERO PUSH2 0x3AF1 JUMPI JUMP JUMPDEST PUSH1 0x40 MLOAD PUSH3 0x461BCD PUSH1 0xE5 SHL DUP2 MSTORE PUSH1 0x20 PUSH1 0x4 DUP3 ADD MSTORE PUSH1 0x1D PUSH1 0x24 DUP3 ADD MSTORE PUSH32 0x45524332303A20696E73756666696369656E7420616C6C6F77616E6365000000 PUSH1 0x44 DUP3 ADD MSTORE PUSH1 0x64 SWAP1 REVERT JUMPDEST SWAP1 PUSH2 0x3B41 DUP2 DUP4 PUSH2 0x2A5D JUMP JUMPDEST PUSH1 0x0 NOT DUP2 SUB PUSH2 0x3B51 JUMPI JUMPDEST POP POP POP POP JUMP JUMPDEST PUSH2 0x3B65 SWAP4 PUSH2 0x142D SWAP2 PUSH2 0x2527 DUP3 DUP3 LT ISZERO PUSH2 0x3AEA JUMP JUMPDEST CODESIZE DUP1 DUP1 DUP1 PUSH2 0x3B4B JUMP JUMPDEST SWAP2 PUSH2 0x3B78 DUP4 PUSH2 0x3C9D JUMP JUMPDEST DUP2 MLOAD PUSH2 0x3B87 PUSH2 0x175E PUSH1 0x0 PUSH2 0xD02 JUMP JUMPDEST GT SWAP1 DUP2 ISZERO PUSH2 0x3BA5 JUMPI JUMPDEST POP PUSH2 0x3B99 JUMPI POP POP JUMP JUMPDEST PUSH2 0x3BA2 SWAP2 PUSH2 0x3D26 JUMP JUMPDEST POP JUMP JUMPDEST SWAP1 POP CODESIZE PUSH2 0x3B90 JUMP JUMPDEST ISZERO PUSH2 0x3BB4 JUMPI JUMP JUMPDEST PUSH1 0x40 MLOAD PUSH3 0x461BCD PUSH1 0xE5 SHL DUP2 MSTORE PUSH1 0x20 PUSH1 0x4 DUP3 ADD MSTORE PUSH1 0x2D PUSH1 0x24 DUP3 ADD MSTORE PUSH32 0x455243313936373A206E657720696D706C656D656E746174696F6E206973206E PUSH1 0x44 DUP3 ADD MSTORE PUSH13 0x1BDD08184818DBDB9D1C9858DD PUSH1 0x9A SHL PUSH1 0x64 DUP3 ADD MSTORE PUSH1 0x84 SWAP1 REVERT JUMPDEST PUSH2 0x38A SWAP1 PUSH2 0x3C24 PUSH2 0x3C1F DUP3 PUSH2 0x3948 JUMP JUMPDEST PUSH2 0x3BAD JUMP JUMPDEST PUSH1 0x0 PUSH2 0x3C31 PUSH2 0x333 PUSH2 0x1517 JUMP JUMPDEST ADD PUSH2 0x1E0D JUMP JUMPDEST SWAP1 PUSH2 0x38A SWAP2 PUSH2 0x3C49 PUSH2 0x39CC PUSH1 0x0 PUSH2 0x5FF JUMP JUMPDEST SWAP1 PUSH2 0x3C58 PUSH2 0x38A SWAP3 PUSH1 0x36 PUSH2 0x1DEA JUMP JUMPDEST PUSH1 0x37 PUSH2 0x1DEA JUMP JUMPDEST SWAP1 PUSH2 0x38A SWAP2 PUSH2 0x3C37 JUMP JUMPDEST PUSH2 0x3C76 PUSH2 0x39CC PUSH1 0x0 PUSH2 0x5FF JUMP JUMPDEST PUSH2 0x38A DUP1 CALLER PUSH2 0x36B5 JUMP JUMPDEST PUSH2 0x38A PUSH2 0x3C69 JUMP JUMPDEST PUSH2 0x1806 PUSH2 0x39CC PUSH1 0x0 PUSH2 0x5FF JUMP JUMPDEST PUSH2 0x38A PUSH2 0x3C88 JUMP JUMPDEST PUSH2 0x3CAA SWAP1 PUSH2 0x112D DUP2 PUSH2 0x3C0F JUMP JUMPDEST PUSH32 0xBC7CD75A20EE27FD9ADEBAB32041F755214DBC6BFFA90CC0225B39DA2E5C2D3B PUSH2 0x3CD4 PUSH1 0x40 MLOAD SWAP1 JUMP JUMPDEST DUP1 DUP1 PUSH2 0x113C JUMP JUMPDEST PUSH2 0x3CE5 PUSH1 0x27 PUSH2 0x1383 JUMP JUMPDEST PUSH32 0x416464726573733A206C6F772D6C6576656C2064656C65676174652063616C6C PUSH1 0x20 DUP3 ADD MSTORE PUSH7 0x819985A5B1959 PUSH1 0xCA SHL PUSH1 0x40 DUP3 ADD MSTORE SWAP1 JUMP JUMPDEST PUSH2 0x333 PUSH2 0x3CDB JUMP JUMPDEST PUSH2 0x333 SWAP2 PUSH2 0x3D32 PUSH2 0x3D1E JUMP JUMPDEST SWAP2 PUSH1 0x0 DUP1 PUSH2 0x333 SWAP5 SWAP4 PUSH2 0x3D43 PUSH1 0x60 SWAP1 JUMP JUMPDEST POP PUSH1 0x20 DUP2 MLOAD SWAP2 ADD DUP5 GAS DELEGATECALL PUSH2 0x3D55 PUSH2 0x16CE JUMP JUMPDEST SWAP2 PUSH2 0x3DA7 JUMP JUMPDEST ISZERO PUSH2 0x3D62 JUMPI JUMP JUMPDEST PUSH1 0x40 MLOAD PUSH3 0x461BCD PUSH1 0xE5 SHL DUP2 MSTORE PUSH1 0x20 PUSH1 0x4 DUP3 ADD MSTORE PUSH1 0x1D PUSH1 0x24 DUP3 ADD MSTORE PUSH32 0x416464726573733A2063616C6C20746F206E6F6E2D636F6E7472616374000000 PUSH1 0x44 DUP3 ADD MSTORE PUSH1 0x64 SWAP1 REVERT JUMPDEST SWAP2 SWAP3 SWAP1 ISZERO PUSH2 0x3DD9 JUMPI POP DUP2 MLOAD PUSH2 0x3DBF PUSH2 0x175E PUSH1 0x0 PUSH2 0xD02 JUMP JUMPDEST EQ PUSH2 0x3DC8 JUMPI POP SWAP1 JUMP JUMPDEST PUSH2 0x3DD4 PUSH2 0x333 SWAP2 PUSH2 0x3948 JUMP JUMPDEST PUSH2 0x3D5B JUMP JUMPDEST DUP3 SWAP1 PUSH2 0x3DE3 DUP3 MLOAD SWAP1 JUMP JUMPDEST PUSH2 0x3DF0 PUSH2 0x175E PUSH1 0x0 PUSH2 0xD02 JUMP JUMPDEST GT ISZERO PUSH2 0x3DFF JUMPI POP DUP1 MLOAD SWAP1 PUSH1 0x20 ADD REVERT JUMPDEST PUSH2 0x10DE SWAP1 PUSH2 0x3E0C PUSH1 0x40 MLOAD SWAP1 JUMP JUMPDEST PUSH3 0x461BCD PUSH1 0xE5 SHL DUP2 MSTORE SWAP2 DUP3 SWAP2 PUSH1 0x4 DUP4 ADD PUSH2 0x322 JUMP INVALID CHAINID PUSH22 0x6E6374696F6E206D7573742062652063616C6C656420 PUSH21 0x68726F75676820DDF252AD1BE2C89B69C2B068FC37 DUP14 0xAA SWAP6 0x2B 0xA7 CALL PUSH4 0xC4A11628 CREATE2 GAS 0x4D CREATE2 0x23 0xB3 0xEF LOG2 PUSH5 0x6970667358 0x22 SLT KECCAK256 0xC2 0xA5 DUP10 SDIV SLT 0xAE PUSH32 0xCD50C000810D9DB294CC4730DB623393F6B517FEDDFC6FCAD464736F6C634300 ADDMOD AND STOP CALLER "},"methodIdentifiers":{"addVestingSchedule(string,uint256,uint256,address)":"8bacf014","allowance(address,address)":"dd62ed3e","approve(address,uint256)":"095ea7b3","balanceOf(address)":"70a08231","blacklistEnabled()":"bffb691d","blacklisted(address)":"dbac26e9","claimPlatformFeeTokens()":"8bdc444d","claimVestedTokens(uint256)":"7935510b","contribute()":"d7bb99ba","contributions(address)":"42e94c90","decimals()":"313ce567","decreaseAllowance(address,uint256)":"a457c2d7","finalizePresale()":"a0a6e940","getClaimableAmount(uint256)":"7d8ca242","getVestingSchedule(uint256)":"beb8f883","getVestingSchedulesCount()":"13083617","increaseAllowance(address,uint256)":"39509351","initialize((string,string,uint256,uint256,address,bool,bool,uint256,uint256,uint256,uint256,uint256,uint256,uint256,uint256,address,uint256,bool,uint256,uint256))":"f1e0699d","liquidityInfo()":"d4ef85cc","maxSupply()":"d5abeb01","name()":"06fdde03","owner()":"8da5cb5b","platformFee()":"26232a2e","presaleInfo()":"2edf0869","proxiableUUID()":"52d1902d","renounceOwnership()":"715018a6","setBlacklist(address,bool)":"153b0d1e","setTimeLock(address,uint256)":"644fab74","setWhitelistStatus(address,bool)":"0c424284","symbol()":"95d89b41","timeLockEnabled()":"cba4cbd3","timeLocks(address)":"7f76b223","totalSupply()":"18160ddd","transfer(address,uint256)":"a9059cbb","transferFrom(address,address,uint256)":"23b872dd","transferOwnership(address)":"f2fde38b","upgradeTo(address)":"3659cfe6","upgradeToAndCall(address,bytes)":"4f1ef286","vestingClaims(uint256,address)":"91ed2596","vestingSchedules(uint256)":"6d3cbe21","whitelist(address)":"9b19251a","withdrawPresaleFunds()":"64a88d68"}}}}}