{"src/contracts/TokenFactory_v3.sol":{"TokenFactory_v3":{"abi":[{"inputs":[{"internalType":"address","name":"_implementation","type":"address"}],"stateMutability":"nonpayable","type":"constructor"},{"anonymous":false,"inputs":[{"indexed":false,"internalType":"address","name":"previousAdmin","type":"address"},{"indexed":false,"internalType":"address","name":"newAdmin","type":"address"}],"name":"AdminChanged","type":"event"},{"anonymous":false,"inputs":[{"indexed":true,"internalType":"address","name":"beacon","type":"address"}],"name":"BeaconUpgraded","type":"event"},{"anonymous":false,"inputs":[{"indexed":true,"internalType":"address","name":"user","type":"address"},{"indexed":false,"internalType":"uint256","name":"fee","type":"uint256"}],"name":"CustomDeploymentFeeSet","type":"event"},{"anonymous":false,"inputs":[{"indexed":false,"internalType":"uint256","name":"newFee","type":"uint256"}],"name":"DeploymentFeeUpdated","type":"event"},{"anonymous":false,"inputs":[{"indexed":false,"internalType":"uint8","name":"version","type":"uint8"}],"name":"Initialized","type":"event"},{"anonymous":false,"inputs":[{"indexed":false,"internalType":"uint256","name":"percentage","type":"uint256"},{"indexed":false,"internalType":"uint256","name":"lockDuration","type":"uint256"}],"name":"LiquidityConfigUpdated","type":"event"},{"anonymous":false,"inputs":[{"indexed":true,"internalType":"address","name":"previousOwner","type":"address"},{"indexed":true,"internalType":"address","name":"newOwner","type":"address"}],"name":"OwnershipTransferred","type":"event"},{"anonymous":false,"inputs":[{"indexed":false,"internalType":"address","name":"newRecipient","type":"address"}],"name":"PlatformFeeRecipientUpdated","type":"event"},{"anonymous":false,"inputs":[{"indexed":false,"internalType":"uint256","name":"newPercentage","type":"uint256"}],"name":"PlatformFeeUpdated","type":"event"},{"anonymous":false,"inputs":[{"indexed":false,"internalType":"uint256","name":"vestingDuration","type":"uint256"},{"indexed":false,"internalType":"uint256","name":"cliffDuration","type":"uint256"},{"indexed":false,"internalType":"bool","name":"enabled","type":"bool"}],"name":"PlatformFeeVestingConfigured","type":"event"},{"anonymous":false,"inputs":[{"indexed":true,"internalType":"address","name":"token","type":"address"},{"indexed":false,"internalType":"string","name":"name","type":"string"},{"indexed":false,"internalType":"string","name":"symbol","type":"string"},{"indexed":true,"internalType":"address","name":"owner","type":"address"},{"indexed":false,"internalType":"uint256","name":"startTime","type":"uint256"},{"indexed":false,"internalType":"uint256","name":"endTime","type":"uint256"},{"indexed":false,"internalType":"uint256","name":"initialSupply","type":"uint256"},{"indexed":false,"internalType":"uint256","name":"maxSupply","type":"uint256"}],"name":"TokenCreated","type":"event"},{"anonymous":false,"inputs":[{"indexed":true,"internalType":"address","name":"implementation","type":"address"}],"name":"Upgraded","type":"event"},{"inputs":[],"name":"VERSION","outputs":[{"internalType":"string","name":"","type":"string"}],"stateMutability":"view","type":"function"},{"inputs":[{"internalType":"uint256","name":"_percentage","type":"uint256"},{"internalType":"uint256","name":"_lockDuration","type":"uint256"}],"name":"configureLiquidityDefaults","outputs":[],"stateMutability":"nonpayable","type":"function"},{"inputs":[{"internalType":"uint256","name":"_vestingDuration","type":"uint256"},{"internalType":"uint256","name":"_cliffDuration","type":"uint256"},{"internalType":"bool","name":"_enabled","type":"bool"}],"name":"configurePlatformFeeVesting","outputs":[],"stateMutability":"nonpayable","type":"function"},{"inputs":[{"components":[{"internalType":"string","name":"name","type":"string"},{"internalType":"string","name":"symbol","type":"string"},{"internalType":"uint256","name":"initialSupply","type":"uint256"},{"internalType":"uint256","name":"maxSupply","type":"uint256"},{"internalType":"address","name":"owner","type":"address"},{"internalType":"bool","name":"enableBlacklist","type":"bool"},{"internalType":"bool","name":"enableTimeLock","type":"bool"},{"internalType":"uint256","name":"presaleRate","type":"uint256"},{"internalType":"uint256","name":"minContribution","type":"uint256"},{"internalType":"uint256","name":"maxContribution","type":"uint256"},{"internalType":"uint256","name":"presaleCap","type":"uint256"},{"internalType":"uint256","name":"startTime","type":"uint256"},{"internalType":"uint256","name":"endTime","type":"uint256"},{"internalType":"uint256","name":"presalePercentage","type":"uint256"},{"internalType":"uint256","name":"liquidityPercentage","type":"uint256"},{"internalType":"uint256","name":"liquidityLockDuration","type":"uint256"}],"internalType":"struct TokenCreationParams","name":"params","type":"tuple"}],"name":"createToken","outputs":[{"internalType":"address","name":"","type":"address"}],"stateMutability":"payable","type":"function"},{"inputs":[{"internalType":"address","name":"","type":"address"}],"name":"customDeploymentFees","outputs":[{"internalType":"uint256","name":"","type":"uint256"}],"stateMutability":"view","type":"function"},{"inputs":[],"name":"defaultLiquidityLockDuration","outputs":[{"internalType":"uint256","name":"","type":"uint256"}],"stateMutability":"view","type":"function"},{"inputs":[],"name":"defaultLiquidityPercentage","outputs":[{"internalType":"uint256","name":"","type":"uint256"}],"stateMutability":"view","type":"function"},{"inputs":[{"internalType":"uint256","name":"","type":"uint256"}],"name":"deployedTokens","outputs":[{"internalType":"address","name":"","type":"address"}],"stateMutability":"view","type":"function"},{"inputs":[],"name":"deploymentFee","outputs":[{"internalType":"uint256","name":"","type":"uint256"}],"stateMutability":"view","type":"function"},{"inputs":[],"name":"getDeployedTokensCount","outputs":[{"internalType":"uint256","name":"","type":"uint256"}],"stateMutability":"view","type":"function"},{"inputs":[{"internalType":"address","name":"_user","type":"address"}],"name":"getDeploymentFee","outputs":[{"internalType":"uint256","name":"","type":"uint256"}],"stateMutability":"view","type":"function"},{"inputs":[],"name":"getTemplateImplementation","outputs":[{"internalType":"address","name":"","type":"address"}],"stateMutability":"view","type":"function"},{"inputs":[{"internalType":"address","name":"token","type":"address"}],"name":"getTokenVersion","outputs":[{"internalType":"string","name":"","type":"string"}],"stateMutability":"view","type":"function"},{"inputs":[{"internalType":"uint256","name":"_deploymentFee","type":"uint256"}],"name":"initialize","outputs":[],"stateMutability":"nonpayable","type":"function"},{"inputs":[],"name":"owner","outputs":[{"internalType":"address","name":"","type":"address"}],"stateMutability":"view","type":"function"},{"inputs":[],"name":"platformFeeCliffDuration","outputs":[{"internalType":"uint256","name":"","type":"uint256"}],"stateMutability":"view","type":"function"},{"inputs":[],"name":"platformFeePercentage","outputs":[{"internalType":"uint256","name":"","type":"uint256"}],"stateMutability":"view","type":"function"},{"inputs":[],"name":"platformFeeRecipient","outputs":[{"internalType":"address","name":"","type":"address"}],"stateMutability":"view","type":"function"},{"inputs":[],"name":"platformFeeVestingDuration","outputs":[{"internalType":"uint256","name":"","type":"uint256"}],"stateMutability":"view","type":"function"},{"inputs":[],"name":"platformFeeVestingEnabled","outputs":[{"internalType":"bool","name":"","type":"bool"}],"stateMutability":"view","type":"function"},{"inputs":[],"name":"proxiableUUID","outputs":[{"internalType":"bytes32","name":"","type":"bytes32"}],"stateMutability":"view","type":"function"},{"inputs":[],"name":"renounceOwnership","outputs":[],"stateMutability":"nonpayable","type":"function"},{"inputs":[{"internalType":"address","name":"_user","type":"address"},{"internalType":"uint256","name":"_fee","type":"uint256"}],"name":"setCustomDeploymentFee","outputs":[],"stateMutability":"nonpayable","type":"function"},{"inputs":[{"internalType":"uint256","name":"_fee","type":"uint256"}],"name":"setDeploymentFee","outputs":[],"stateMutability":"nonpayable","type":"function"},{"inputs":[{"internalType":"uint256","name":"_percentage","type":"uint256"}],"name":"setPlatformFeePercentage","outputs":[],"stateMutability":"nonpayable","type":"function"},{"inputs":[{"internalType":"address","name":"_recipient","type":"address"}],"name":"setPlatformFeeRecipient","outputs":[],"stateMutability":"nonpayable","type":"function"},{"inputs":[],"name":"tokenImplementation","outputs":[{"internalType":"contract TokenTemplate_v3","name":"","type":"address"}],"stateMutability":"view","type":"function"},{"inputs":[{"internalType":"address","name":"","type":"address"}],"name":"tokenVersions","outputs":[{"internalType":"string","name":"","type":"string"}],"stateMutability":"view","type":"function"},{"inputs":[{"internalType":"address","name":"newOwner","type":"address"}],"name":"transferOwnership","outputs":[],"stateMutability":"nonpayable","type":"function"},{"inputs":[{"internalType":"address","name":"newImplementation","type":"address"}],"name":"upgradeTo","outputs":[],"stateMutability":"nonpayable","type":"function"},{"inputs":[{"internalType":"address","name":"newImplementation","type":"address"},{"internalType":"bytes","name":"data","type":"bytes"}],"name":"upgradeToAndCall","outputs":[],"stateMutability":"payable","type":"function"}],"evm":{"bytecode":{"linkReferences":{},"object":"60c06040523462000057576200001e62000018620000fb565b6200014a565b60405161365d620001798239608051818181610f5f0152611f5a015260a05181818161041a01528181610cbf0152611c7b015261365d90f35b600080fd5b634e487b7160e01b600052604160045260246000fd5b90601f01601f191681019081106001600160401b038211176200009457604052565b6200005c565b90620000b1620000a960405190565b928362000072565b565b6001600160a01b031690565b90565b620000cd81620000b3565b036200005757565b90505190620000b182620000c2565b906020828203126200005757620000bf91620000d5565b620000bf620037d68038038062000112816200009a565b928339810190620000e4565b620000bf90620000b3906001600160a01b031682565b620000bf906200011e565b620000bf9062000134565b6200015f906200015962000164565b6200013f565b60a052565b620000b162000173306200013f565b60805256fe6101c060405260043610156200001457600080fd5b60003560e01c80630d1ded891462000241578063113d478b146200023b5780631652da4214620002355780631871e243146200022f57806325f1be1f14620002295780632f3a3d5d14620002235780633659cfe6146200021d578063420fc2101462000217578063424d9ede14620002115780634f1ef286146200020b57806352d1902d1462000205578063545e734814620001ff578063715018a614620001f95780638333903e14620001f35780638da5cb5b14620001ed578063a2afdb9914620001e7578063a78fae8e14620001e1578063b619377514620001db578063c05ddda814620001d5578063cbf1208f14620001cf578063cdd78cfc14620001c9578063d002462b14620001c3578063d534014114620001bd578063e379dcaf14620001b7578063eb13554f14620001b1578063ec81aadb14620001ab578063f2cff57f14620001a5578063f2fde38b146200019f578063fadcac271462000199578063fe4b84df14620001935763ffa1ad7403620002475762000c98565b62000c2b565b62000bf8565b62000baf565b62000b8e565b62000b5f565b62000ad9565b62000a8e565b62000a61565b620009f5565b620009d4565b620009a8565b62000967565b6200092d565b620008fd565b620008df565b62000896565b62000879565b6200082f565b62000801565b62000609565b620005f1565b620004c5565b6200046b565b62000440565b620003fd565b62000392565b62000370565b6200034f565b620002e4565b6200028a565b600080fd5b60009103126200024757565b6001600160a01b031690565b90565b620002729062000258565b9052565b60208101929162000288919062000267565b565b3462000247576200029d3660046200024c565b620002b8620002ab62000cb9565b6040519182918262000276565b0390f35b62000264916008021c81565b90620002649154620002bc565b620002646000610100620002c8565b346200024757620002f73660046200024c565b620002b862000305620002d5565b6040515b9182918290815260200190565b620003218162000258565b036200024757565b90503590620002888262000316565b906020828203126200024757620002649162000329565b346200024757620002b8620003056200036a36600462000338565b62000d08565b3462000247576200038d6200038736600462000338565b62000e98565b604051005b346200024757620003a53660046200024c565b620002b8620003056101045490565b620002649062000258906001600160a01b031682565b6200026490620003b4565b6200026490620003ca565b6200027290620003d5565b602081019291620002889190620003e0565b346200024757620004103660046200024c565b60405180620002b87f000000000000000000000000000000000000000000000000000000000000000082620003eb565b3462000247576200038d6200045736600462000338565b6200101f565b62000264600060ff620002c8565b3462000247576200047e3660046200024c565b620002b8620003056200045d565b9081610200910312620002475790565b90602082820312620002475781356001600160401b03811162000247576200026492016200048c565b620002b8620002ab620004da3660046200049c565b62001e87565b634e487b7160e01b600052604160045260246000fd5b90601f01601f191681019081106001600160401b038211176200051857604052565b620004e0565b90620002886200052d60405190565b9283620004f6565b6001600160401b0381116200051857602090601f01601f19160190565b0190565b90826000939282370152565b909291926200057b620005758262000535565b6200051e565b938185528183011162000247576200028891602085019062000556565b9080601f830112156200024757816020620002649335910162000562565b9190916040818403126200024757620005d0838262000329565b9260208201356001600160401b038111620002475762000264920162000598565b6200038d62000602366004620005b6565b9062001ec2565b3462000247576200061c3660046200024c565b620002b86200030562001fc2565b906200063690620003d5565b600052602052604060002090565b634e487b7160e01b600052600060045260246000fd5b634e487b7160e01b600052602260045260246000fd5b906001600283049216801562000693575b60208310146200068d57565b6200065a565b91607f169162000681565b80546000939291620006be620006b48362000670565b8085529360200190565b9160018116908115620007155750600114620006d957505050565b620006ed9192939450600052602060002090565b916000925b818410620007005750500190565b805484840152602090930192600101620006f2565b92949550505060ff1916825215156020020190565b9062000264916200069e565b906200028862000754926200074a60405190565b938480926200072a565b0383620004f6565b906000106200077057620002649062000736565b62000644565b60006200078a62000264926101056200062a565b6200075c565b60005b838110620007a45750506000910152565b818101518382015260200162000793565b620007da620007e46020936200055293620007ce815190565b80835293849260200190565b9586910162000790565b601f01601f191690565b60208082526200026492910190620007b5565b346200024757620002b8620008226200081c36600462000338565b62000776565b60405191829182620007ee565b346200024757620008423660046200024c565b6200038d62001ff2565b8062000321565b9050359062000288826200084c565b906020828203126200024757620002649162000853565b3462000247576200038d6200089036600462000862565b620020ba565b346200024757620008a93660046200024c565b620002b8620002ab620020c5565b9190604083820312620002475762000264906020620008d7828662000853565b940162000853565b3462000247576200038d620008f6366004620008b7565b906200219d565b346200024757620002b8620008226200091836600462000338565b620021b4565b620002646000610103620002c8565b346200024757620009403660046200024c565b620002b8620003056200091e565b600062000961620002649260fc6200062a565b620002c8565b346200024757620002b8620003056200098236600462000338565b6200094e565b9190604083820312620002475762000264906020620008d7828662000329565b3462000247576200038d620009bf36600462000988565b906200223e565b62000264600060fd620002c8565b346200024757620009e73660046200024c565b620002b862000305620009c6565b3462000247576200038d62000a0c36600462000862565b6200227b565b80151562000321565b90503590620002888262000a12565b909160608284031262000247576200026462000a47848462000853565b93604062000a59826020870162000853565b940162000a1b565b3462000247576200038d62000a7836600462000a2a565b9162002392565b620002646000610102620002c8565b34620002475762000aa13660046200024c565b620002b86200030562000a7f565b62000264916008021c62000258565b9062000264915462000aaf565b62000264600060fe62000abe565b34620002475762000aec3660046200024c565b620002b8620002ab62000acb565b634e487b7160e01b600052603260045260246000fd5b805482101562000b355762000b2c600191600052602060002090565b91020190600090565b62000afa565b61010480548210156200024757620002649162000b589162000b10565b9062000abe565b346200024757620002b8620002ab62000b7a36600462000862565b62000b3b565b62000264600060fb620002c8565b34620002475762000ba13660046200024c565b620002b86200030562000b80565b3462000247576200038d62000bc636600462000338565b6200243c565b62000264916008021c5b60ff1690565b9062000264915462000bcc565b62000264600061010162000bdc565b34620002475762000c0b3660046200024c565b620002b862000c1962000be9565b60405191829182901515815260200190565b3462000247576200038d62000c4236600462000862565b62002817565b9062000c58620005758362000535565b918252565b62000c69600562000c48565b640332e302e360dc1b602082015290565b6200026462000c5d565b6200026462000c7a565b6200026462000c84565b34620002475762000cab3660046200024c565b620002b86200082262000c8e565b620002647f0000000000000000000000000000000000000000000000000000000000000000620003d5565b620002649081565b62000264905462000ce4565b6200026462000264620002649290565b62000d1f62000d198260fc6200062a565b62000cec565b9062000d2c600062000cf8565b821190811562000d4a575b506200026457506200026460fb62000cec565b905062000d58600062000cf8565b8214908162000d6a575b503862000d37565b62000d7d915062000d199060fc6200062a565b62000d9162000d8d600062000cf8565b9190565b14153862000d62565b620002889062000da962002874565b62000e44565b6200025862000264620002649290565b620002649062000daf565b1562000dd257565b60405162461bcd60e51b8152602060048201526011602482015270125b9d985b1a59081c9958da5c1a595b9d607a1b6044820152606490fd5b0390fd5b906001600160a01b03905b9181191691161790565b9062000e386200026462000e4092620003d5565b825462000e0f565b9055565b62000e93600080516020620035888339815191529162000e8662000e7362000e6d600062000dbf565b62000258565b62000e7e8362000258565b141562000dca565b620002ab8160fe62000e24565b0390a1565b620002889062000d9a565b1562000eab57565b60405162461bcd60e51b815260206004820152602c6024820152600080516020620035e883398151915260448201526b19195b1959d85d1958d85b1b60a21b6064820152608490fd5b1562000efc57565b60405162461bcd60e51b815260206004820152602c6024820152600080516020620035e883398151915260448201526b6163746976652070726f787960a01b6064820152608490fd5b620002889062000fbd62000f5930620003d5565b62000f9d7f00000000000000000000000000000000000000000000000000000000000000009162000f9562000f8e8462000258565b9162000258565b141562000ea3565b62000fb662000f8e62000faf62002898565b9262000258565b1462000ef4565b62000ff1565b369037565b906200028862000fe362000fdc8462000c48565b9362000535565b601f19016020840162000fc3565b600062000288916200100381620028be565b62001018620010128362000cf8565b62000fc8565b9062002979565b620002889062000f45565b9062001040916200103a62002afe565b620017b0565b906200028862002b3a565b156200105357565b60405162461bcd60e51b815260206004820152601b60248201527a496e73756666696369656e74206465706c6f796d656e742066656560281b6044820152606490fd5b3562000264816200084c565b15620010aa57565b60405162461bcd60e51b8152602060048201526014602482015273496e697469616c203e206d617820737570706c7960601b6044820152606490fd5b15620010ee57565b60405162461bcd60e51b8152602060048201526014602482015273496e76616c69642070726573616c65207261746560601b6044820152606490fd5b156200113257565b60405162461bcd60e51b815260206004820152601960248201527853746172742074696d65206d7573742062652066757475726560381b6044820152606490fd5b156200117b57565b60405162461bcd60e51b815260206004820152601c60248201527b115b99081d1a5b59481b5d5cdd0818994818599d195c881cdd185c9d60221b6044820152606490fd5b15620011c757565b60405162461bcd60e51b8152602060048201526013602482015272496e76616c6964206c6971756964697479202560681b6044820152606490fd5b634e487b7160e01b600052601160045260246000fd5b919082018092116200122657565b62001202565b156200123457565b60405162461bcd60e51b8152602060048201526014602482015273496e76616c696420616c6c6f636174696f6e202560601b6044820152606490fd5b818102929181159184041417156200122657565b634e487b7160e01b600052601260045260246000fd5b8115620012a5570490565b62001284565b919082039182116200122657565b903590601e1936829003018212156200024757018035906001600160401b0382116200024757602001913682900383136200024757565b35620002648162000316565b35620002648162000a12565b620002649062000258565b62000264905462001308565b620002649062000bd6565b6200026490546200131f565b620002646102806200051e565b6200026491369162000562565b90620002729062000258565b906200026490610260806200139962001386610280850160008801518682036000880152620007b5565b60208701518582036020870152620007b5565b94620013aa60408201516040860152565b620013ba60608201516060860152565b620013ce6080820151608086019062000267565b60a08181015115159085015260c081810151151590850152620013f660e082015160e0860152565b62001408610100820151610100860152565b6200141a610120820151610120860152565b6200142c610140820151610140860152565b6200143e610160820151610160860152565b62001450610180820151610180860152565b620014626101a08201516101a0860152565b620014746101c08201516101c0860152565b6200148a6101e08201516101e086019062000267565b6200149c610200820151610200860152565b61022081810151151590850152620014bb610240820151610240860152565b0151910152565b602080825262000264929101906200135c565b916200026492620014ef6040820193600083019062000267565b6020818403910152620007b5565b6040513d6000823e3d90fd5b916001600160a01b0360089290920291821b911b62000e1a565b9190620015386200026462000e4093620003d5565b90835462001509565b80549190600160401b83101562000518578262001568916001620002889501815562000b10565b9062001523565b9160001960089290920291821b911b62000e1a565b9190620015996200026462000e409362000cf8565b9083546200156f565b620002889160009162001584565b818110620015bc575050565b80620015cc6000600193620015a2565b01620015b0565b9190601f8111620015e357505050565b620015f76200028893600052602060002090565b906020601f8401819004830193106200161b575b6020601f909101040190620015b0565b90915081906200160b565b9060001960089091021c191690565b81620016419162001626565b906002021790565b9062001653815190565b906001600160401b03821162000518576200167b8262001674855462000670565b85620015d3565b602090601f8311600114620016ae5762000e40929160009183620016a2575b505062001635565b0151905038806200169a565b601f19831691620016c485600052602060002090565b9260005b8181106200170857509160029391856001969410620016eb575b50505002019055565b620016fd910151601f84169062001626565b9055388080620016e2565b91936020600181928787015181550195019201620016c8565b90620002889162001649565b9190620007e4816200174781620005529560209181520190565b809562000556565b93956200179e62001796620017ac9560a0989c9b9962001787620017a596620002889d9860c08c01918c60008185039101526200172d565b9189830360208b01526200172d565b9a6040870152565b6060850152565b6080830152565b0152565b50620017cd620017c4620002643362000d08565b3410156200104b565b620017fd620017df6040830162001096565b620017f562000d8d620002646060860162001096565b1115620010a2565b620018266200180f60e0830162001096565b6200181f62000d8d600062000cf8565b11620010e6565b6200184162001839610160830162001096565b42106200112a565b6200187262001854610180830162001096565b6200186b62000d8d62000264610160860162001096565b1162001173565b6200191f620018856101c0830162001096565b620018a4612710916200189c62000d8d8462000cf8565b1115620011bf565b620018e8620018d1620018bb6101a0860162001096565b620018ca6101c0870162001096565b9062001218565b620018e062000d8d8462000cf8565b11156200122c565b6200191862001911620018fe6040860162001096565b6200190a60fd62000cec565b9062001270565b9162000cf8565b906200129a565b6101205262001940620019356040830162001096565b6101205190620012ab565b6200194c8280620012b9565b9061010052620019606020840184620012b9565b610160526101a052620019766060840162001096565b906200198560808501620012f0565b9262001992600062000dbf565b93620019a262000f8e8662000258565b0362001e725784335b620019b960a08301620012fc565b92620019c860c08401620012fc565b95620019d760e0850162001096565b95620019e7610100860162001096565b92620019f7610120870162001096565b62001a06610140880162001096565b9262001a16610160890162001096565b9562001a356101c062001a2d6101808c0162001096565b9a0162001096565b62001a4562000d8d600062000cf8565b0362001e19578d62001a5961010262000cec565b9b62001b8962001bce9e62001b7c62001bc49e62001b7062001bba9e62001b6462001bb09e62001b5b62001ba69e62001b3362001b2d62001b9c9f6101e062001b929f5b0162001aa98162001096565b62001ab962000d8d600062000cf8565b60006080520362001e05575062001ad261010362000cec565b6080525b62001ae260fe62001313565b60c05262001af26101016200132a565b6101805262001b0260ff62000cec565b6101405262001b1361010062000cec565b60e05262001b2062001336565b60a0526101005162001343565b60a05152565b62001b5262001b49610160516101a05162001343565b602060a0510152565b604060a0510152565b606060a0510152565b608060a0510162001350565b60a08051019015159052565b60c060a051019015159052565b60e060a0510152565b61010060a0510152565b61012060a0510152565b61014060a0510152565b61016060a0510152565b61018060a0510152565b6101a060a0510152565b62001bdf6080516101c060a0510152565b62001bf360c0516101e060a0510162001350565b62001c056101205161020060a0510152565b62001c1b6101805161022060a051019015159052565b62001c2d6101405161024060a0510152565b62001c3e60e05161026060a0510152565b60405162001c758162001c6560046020830163f1e0699d60e01b81520160a05190620014c2565b60208201810382520382620004f6565b62001ca07f0000000000000000000000000000000000000000000000000000000000000000620003d5565b604051916105e98301906001600160401b038211848310176200051857839262001cd3926105e962002f7f8639620014d5565b03906000f0801562001dff5762001cea90620003d5565b9162001cf98361010462001541565b62001d1b62001d0762000c84565b62001d15856101056200062a565b62001721565b7fe8efce311593e7a13e7f21c806bf0105a4437c35bf6a1940106e62c5a6f5be8462001d488280620012b9565b9062001de462001d5c6020860186620012b9565b909662001d7462000f8e62000faf60808a01620012f0565b0362001dea5733955b62001d8c610160820162001096565b62001d9b610180830162001096565b9062001db8606062001db06040860162001096565b940162001096565b9362001dcf62001dc88d620003d5565b9a620003d5565b9a62001dda60405190565b988998896200174f565b0390a390565b62001df860808701620012f0565b9562001d7d565b620014fd565b62001e109062001096565b60805262001ad6565b8d62001e296101c0820162001096565b9b62001b8962001bce9e62001b7c62001bc49e62001b7062001bba9e62001b6462001bb09e62001b5b62001ba69e62001b3362001b2d62001b9c9f6101e062001b929f62001a9d565b8462001e8160808201620012f0565b620019ab565b620002649060006200102a565b90620002889162001ea962000f5930620003d5565b620002889160019162001ebc81620028be565b62002979565b90620002889162001e94565b1562001ed657565b60405162461bcd60e51b815260206004820152603860248201527f555550535570677261646561626c653a206d757374206e6f742062652063616c6044820152771b1959081d1a1c9bdd59da0819195b1959d85d1958d85b1b60421b6064820152608490fd5b620002649062001f8662001f5030620003d5565b62001f7f62000f8e7f000000000000000000000000000000000000000000000000000000000000000062000258565b1462001ece565b62001fb7565b620002647f360894a13ba1a3210667c828492db98dca3e2076cc3735a920a3ca505d382bbc62000cf8565b506200026462001f8c565b62000264600062001f3c565b62001fd862002874565b620002886200028862001fec600062000dbf565b62002b48565b6200028862001fce565b62000288906200200b62002874565b6200207e565b156200201957565b60405162461bcd60e51b81526020600482015260166024820152754665652063616e6e6f7420657863656564203130302560501b6044820152606490fd5b906000199062000e1a565b90620020766200026462000e409262000cf8565b825462002057565b62000e93600080516020620035a883398151915291620020ad620020a461271062000cf8565b82111562002011565b620003058160fd62002062565b620002889062001ffc565b62000264603362001313565b906200028891620020e162002874565b6200213d565b15620020ef57565b60405162461bcd60e51b8152602060048201526012602482015271496e76616c69642070657263656e7461676560701b6044820152606490fd5b908152604081019291620002889160200152565b906000805160206200356883398151915291620021696200216061271062000cf8565b821115620020e7565b620021778161010262002062565b620021858261010362002062565b62000e936200219360405190565b9283928362002129565b906200028891620020d1565b620002649062000736565b620021d06200026491620021c6606090565b506101056200062a565b620021a9565b906200028891620021e662002874565b620022396200222e7f035250ff587e06567c2fa9d4b3191805958a937530b0e88cfce4c9c4dcdef1b3926200222885620022228360fc6200062a565b62002062565b620003d5565b926200030960405190565b0390a2565b906200028891620021d6565b62000288906200225962002874565b62000e93600080516020620035c883398151915291620003058160fb62002062565b62000288906200224a565b906200028892916200229762002874565b62002332565b15620022a557565b60405162461bcd60e51b8152602060048201526019602482015278436c696666206c6f6e676572207468616e2076657374696e6760381b6044820152606490fd5b9060ff9062000e1a565b90620023036200026462000e4092151590565b8254620022e6565b908152606081019392620002889290916040916200232a906020830152565b019015159052565b62000e9360008051602062003608833981519152936200235c620023538490565b8511156200229d565b620023698360ff62002062565b620023778461010062002062565b6200238581610101620022f0565b604051938493846200230b565b9062000288929162002286565b6200028890620023ae62002874565b62002410565b15620023bc57565b60405162461bcd60e51b815260206004820152602660248201527f4f776e61626c653a206e6577206f776e657220697320746865207a65726f206160448201526564647265737360d01b6064820152608490fd5b620002889062001fec6200242962000e6d600062000dbf565b620024348362000258565b1415620023b4565b62000288906200239f565b620002649060081c62000bd6565b62000264905462002447565b62000bd662000264620002649290565b156200247957565b60405162461bcd60e51b815260206004820152602e60248201527f496e697469616c697a61626c653a20636f6e747261637420697320616c72656160448201526d191e481a5b9a5d1a585b1a5e995960921b6064820152608490fd5b62000bd662000264620002649260ff1690565b90620023036200026462000e4092620024d5565b9061ff009060081b62000e1a565b906200251d6200026462000e4092151590565b8254620024fc565b620002729062002461565b60208101929162000288919062002525565b6200259a6200255a62002556600062002455565b1590565b9182806200264d575b8015620025fb575b620025769062002471565b826200258f62002587600162002461565b6000620024e8565b620025e75762002671565b620025a157565b620025ae6000806200250a565b7f7f26b83ff96e1f2b6a682f133852f6798a09c465da95921460cefb3847402498620025d960405190565b8062000e9360018262002530565b620025f5600160006200250a565b62002671565b5062002615620025566200260f30620003d5565b62002ba2565b80156200256b5750620025766200262d60006200132a565b620026446200263d600162002461565b9160ff1690565b1490506200256b565b506200265a60006200132a565b6200266a6200263d600162002461565b1062002563565b62002757600080516020620035c8833981519152916200269062002c3c565b6200269a62002c56565b620026a462002c7e565b620026b18160fb62002062565b620026ca620026c26101f462000cf8565b60fd62002062565b620026e0620026d8620020c5565b60fe62000e24565b620026fa620026f262ed4e0062000cf8565b60ff62002062565b620027156200270c62278d0062000cf8565b61010062002062565b620027246001610101620022f0565b6200273e62002735610bb862000cf8565b61010262002062565b620003056200274e60b462000cf8565b61010362002062565b0390a1600080516020620035a88339815191526200277a6200030560fd62000cec565b0390a1600080516020620035888339815191526200279d620002ab60fe62001313565b0390a160008051602062003608833981519152620027bc60ff62000cec565b620027c961010062000cec565b90620027db620023856101016200132a565b0390a160008051602062003568833981519152620027fb61010262000cec565b6200280861010362000cec565b9062000e936200219360405190565b620002889062002542565b156200282a57565b60405162461bcd60e51b81528062000e0b600482016020808252818101527f4f776e61626c653a2063616c6c6572206973206e6f7420746865206f776e6572604082015260600190565b6200028862002882620020c5565b6200289162000f8e3362000258565b1462002822565b620002646000620028ac6200026462001f8c565b0162001313565b506200028862002874565b6200028890620028b3565b620002647f4910fdfa16fed3260ed0e7147f7cc6da11a60208b5b9406d12a635614ffd914362000cf8565b9050519062000288826200084c565b9060208282031262000247576200026491620028f4565b156200292257565b60405162461bcd60e51b815260206004820152602960248201527f45524331393637557067726164653a20756e737570706f727465642070726f786044820152681a58589b195555525160ba1b6064820152608490fd5b91906200299660006200298f62000264620028c9565b016200132a565b15620029a9575050620002889062002d34565b620029b86200222884620003d5565b926020620029c560405190565b6352d1902d60e01b815294859060049082905afa6000948162002a6d575b5062002a455760405162461bcd60e51b815260206004820152602e60248201527f45524331393637557067726164653a206e657720696d706c656d656e7461746960448201526d6f6e206973206e6f74205555505360901b6064820152608490fd5b62002a67620002889462002a6062000d8d6200026462001f8c565b146200291a565b62002c88565b62002a9591955060203d60201162002a9d575b62002a8c8183620004f6565b81019062002903565b9338620029e3565b503d62002a80565b62000264600262000cf8565b1562002ab957565b60405162461bcd60e51b815260206004820152601f60248201527f5265656e7472616e637947756172643a207265656e7472616e742063616c6c006044820152606490fd5b6200028862002b0e60c962000cec565b62002b2662002b1c62002aa5565b9182141562002ab1565b60c962002062565b62000264600162000cf8565b6200028862002b2662002b2e565b62002b7062002b6962002b5c603362001313565b6200222884603362000e24565b91620003d5565b907f8be0079c531659141344cd1fd0a4f28419497f9722a3daafe3b4186f6b6457e062002b9c60405190565b600090a3565b3b62002bb362000d8d600062000cf8565b1190565b1562002bbf57565b60405162461bcd60e51b815260206004820152602b60248201527f496e697469616c697a61626c653a20636f6e7472616374206973206e6f74206960448201526a6e697469616c697a696e6760a81b6064820152608490fd5b62002c2e62002c28600062002455565b62002bb7565b620002886200028862002d81565b6200028862002c18565b6200028862002c28600062002455565b6200028862002c46565b62002c7062002c28600062002455565b620002886200028862002da5565b6200028862002c60565b9162002c948362002daf565b815162002ca662000d8d600062000cf8565b1190811562002cc8575b5062002cba575050565b62002cc59162002e41565b50565b90503862002cb0565b1562002cd957565b60405162461bcd60e51b815260206004820152602d60248201527f455243313936373a206e657720696d706c656d656e746174696f6e206973206e60448201526c1bdd08184818dbdb9d1c9858dd609a1b6064820152608490fd5b620002889062002d4e62002d488262002ba2565b62002cd1565b600062002d5e6200026462001f8c565b0162000e24565b62002d7562002c28600062002455565b62000288803362002b48565b6200028862002d65565b62002d9b62002c28600062002455565b6200028862002b3a565b6200028862002d8b565b62002dbf90620022288162002d34565b7fbc7cd75a20ee27fd9adebab32041f755214dbc6bffa90cc0225b39da2e5c2d3b62002dea60405190565b808062002239565b62002dfe602762000c48565b7f416464726573733a206c6f772d6c6576656c2064656c65676174652063616c6c6020820152660819985a5b195960ca1b604082015290565b6200026462002df2565b620002649162002e5062002e37565b9162002e79565b3d1562002e745762002e693d62000c48565b903d6000602084013e565b606090565b60008062000264949362002e8b606090565b50602081519101845af462002e9f62002e57565b9162002ef3565b1562002eae57565b60405162461bcd60e51b815260206004820152601d60248201527f416464726573733a2063616c6c20746f206e6f6e2d636f6e74726163740000006044820152606490fd5b9192901562002f2e5750815162002f0f62000d8d600062000cf8565b1462002f19575090565b62002f28620002649162002ba2565b62002ea6565b829062002f39825190565b62002f4962000d8d600062000cf8565b111562002f595750805190602001fd5b62000e0b9062002f6860405190565b62461bcd60e51b815291829160048301620007ee56fe608060405261001561000f61016a565b9061018c565b60405160c3610526823960c390f35b634e487b7160e01b600052604160045260246000fd5b90601f01601f191681019081106001600160401b0382111761005b57604052565b610024565b9061007461006d60405190565b928361003a565b565b6001600160a01b031690565b90565b61008e81610076565b0361009557565b600080fd5b9050519061007482610085565b6001600160401b03811161005b57602090601f01601f19160190565b0190565b60005b8381106100da5750506000910152565b81810151838201526020016100ca565b909291926100ff6100fa826100a7565b610060565b9381855281830111610095576100749160208501906100c7565b9080601f83011215610095578151610082926020016100ea565b9190916040818403126100955761014a838261009a565b60208201519093906001600160401b038111610095576100829201610119565b6101886105e98038038061017d81610060565b928339810190610133565b9091565b610074916000916101a5565b6100826100826100829290565b916101af8361020e565b81516101c26101be6000610198565b9190565b119081156101e0575b506101d4575050565b6101dd916102ad565b50565b9050386101cb565b61008290610076906001600160a01b031682565b610082906101e8565b610082906101fc565b6102209061021b81610389565b610205565b7fbc7cd75a20ee27fd9adebab32041f755214dbc6bffa90cc0225b39da2e5c2d3b61024a60405190565b600090a2565b9061025d6100fa836100a7565b918252565b61026c6027610250565b7f416464726573733a206c6f772d6c6576656c2064656c65676174652063616c6c6020820152660819985a5b195960ca1b604082015290565b610082610262565b610082916102b96102a5565b916103d0565b6020808252602d908201527f455243313936373a206e657720696d706c656d656e746174696f6e206973206e60408201526c1bdd08184818dbdb9d1c9858dd609a1b606082015260800190565b1561031357565b60405162461bcd60e51b81528061032c600482016102bf565b0390fd5b6100827f360894a13ba1a3210667c828492db98dca3e2076cc3735a920a3ca505d382bbc610198565b9061036961008261038592610205565b82546001600160a01b0319166001600160a01b03919091161790565b9055565b6100749061039e610399826103f8565b61030c565b60006103ab610082610330565b01610359565b3d156103cb576103c03d610250565b903d6000602084013e565b606090565b60008061008294936103e0606090565b50602081519101845af46103f26103b1565b91610461565b3b6104066101be6000610198565b1190565b6020808252601d908201527f416464726573733a2063616c6c20746f206e6f6e2d636f6e7472616374000000604082015260600190565b1561044857565b60405162461bcd60e51b81528061032c6004820161040a565b91929015610493575081516104796101be6000610198565b14610482575090565b61048e610082916103f8565b610441565b826104de565b6104ba6104c36020936100c3936104ae815190565b80835293849260200190565b958691016100c7565b601f01601f191690565b602080825261008292910190610499565b906104e7825190565b6104f46101be6000610198565b11156105035750805190602001fd5b61032c9061051060405190565b62461bcd60e51b8152918291600483016104cd56fe6080604052600a600e565b6017565b6014607c565b90565b60008091368280378136915af43d6000803e156032573d6000f35b3d6000fd5b6014601460149290565b60147f360894a13ba1a3210667c828492db98dca3e2076cc3735a920a3ca505d382bbc6037565b6001600160a01b031690565b601490546068565b60146000608860146041565b01607456fea26469706673582212200ad4ac51629ce32ff36896c3191fd47fcb9b0a0892e6281467f168c50548841064736f6c634300081600338eedee044a0c1105ee117058ab923ddc4cd0f612ebd41812a5b17b81093df4cbba887708e7d4436dd36b62187bdced03e0b9abe66caf392a66dd84386641b20945610d581145924dd7090a5017e5f2b1d6f42213bb2e95707ff86846bbfcb1ca40bd824d588484917db8fa4fc894c1e0feae5a75885290ba7b97521cebf82a8046756e6374696f6e206d7573742062652063616c6c6564207468726f75676820d7ff7274b03e3eff3f5e3f308cc4b76fd937a992c26cb91a80e328dce4ab3338a2646970667358221220bfa847ddcd0f2ecc30a5d106bf029ea731ced0d0c26bc91710403bb9c44831a064736f6c63430008160033","opcodes":"PUSH1 0xC0 PUSH1 0x40 MSTORE CALLVALUE PUSH3 0x57 JUMPI PUSH3 0x1E PUSH3 0x18 PUSH3 0xFB JUMP JUMPDEST PUSH3 0x14A JUMP JUMPDEST PUSH1 0x40 MLOAD PUSH2 0x365D PUSH3 0x179 DUP3 CODECOPY PUSH1 0x80 MLOAD DUP2 DUP2 DUP2 PUSH2 0xF5F ADD MSTORE PUSH2 0x1F5A ADD MSTORE PUSH1 0xA0 MLOAD DUP2 DUP2 DUP2 PUSH2 0x41A ADD MSTORE DUP2 DUP2 PUSH2 0xCBF ADD MSTORE PUSH2 0x1C7B ADD MSTORE PUSH2 0x365D SWAP1 RETURN JUMPDEST PUSH1 0x0 DUP1 REVERT JUMPDEST PUSH4 0x4E487B71 PUSH1 0xE0 SHL PUSH1 0x0 MSTORE PUSH1 0x41 PUSH1 0x4 MSTORE PUSH1 0x24 PUSH1 0x0 REVERT JUMPDEST SWAP1 PUSH1 0x1F ADD PUSH1 0x1F NOT AND DUP2 ADD SWAP1 DUP2 LT PUSH1 0x1 PUSH1 0x1 PUSH1 0x40 SHL SUB DUP3 GT OR PUSH3 0x94 JUMPI PUSH1 0x40 MSTORE JUMP JUMPDEST PUSH3 0x5C JUMP JUMPDEST SWAP1 PUSH3 0xB1 PUSH3 0xA9 PUSH1 0x40 MLOAD SWAP1 JUMP JUMPDEST SWAP3 DUP4 PUSH3 0x72 JUMP JUMPDEST JUMP JUMPDEST PUSH1 0x1 PUSH1 0x1 PUSH1 0xA0 SHL SUB AND SWAP1 JUMP JUMPDEST SWAP1 JUMP JUMPDEST PUSH3 0xCD DUP2 PUSH3 0xB3 JUMP JUMPDEST SUB PUSH3 0x57 JUMPI JUMP JUMPDEST SWAP1 POP MLOAD SWAP1 PUSH3 0xB1 DUP3 PUSH3 0xC2 JUMP JUMPDEST SWAP1 PUSH1 0x20 DUP3 DUP3 SUB SLT PUSH3 0x57 JUMPI PUSH3 0xBF SWAP2 PUSH3 0xD5 JUMP JUMPDEST PUSH3 0xBF PUSH3 0x37D6 DUP1 CODESIZE SUB DUP1 PUSH3 0x112 DUP2 PUSH3 0x9A JUMP JUMPDEST SWAP3 DUP4 CODECOPY DUP2 ADD SWAP1 PUSH3 0xE4 JUMP JUMPDEST PUSH3 0xBF SWAP1 PUSH3 0xB3 SWAP1 PUSH1 0x1 PUSH1 0x1 PUSH1 0xA0 SHL SUB AND DUP3 JUMP JUMPDEST PUSH3 0xBF SWAP1 PUSH3 0x11E JUMP JUMPDEST PUSH3 0xBF SWAP1 PUSH3 0x134 JUMP JUMPDEST PUSH3 0x15F SWAP1 PUSH3 0x159 PUSH3 0x164 JUMP JUMPDEST PUSH3 0x13F JUMP JUMPDEST PUSH1 0xA0 MSTORE JUMP JUMPDEST PUSH3 0xB1 PUSH3 0x173 ADDRESS PUSH3 0x13F JUMP JUMPDEST PUSH1 0x80 MSTORE JUMP INVALID PUSH2 0x1C0 PUSH1 0x40 MSTORE PUSH1 0x4 CALLDATASIZE LT ISZERO PUSH3 0x14 JUMPI PUSH1 0x0 DUP1 REVERT JUMPDEST PUSH1 0x0 CALLDATALOAD PUSH1 0xE0 SHR DUP1 PUSH4 0xD1DED89 EQ PUSH3 0x241 JUMPI DUP1 PUSH4 0x113D478B EQ PUSH3 0x23B JUMPI DUP1 PUSH4 0x1652DA42 EQ PUSH3 0x235 JUMPI DUP1 PUSH4 0x1871E243 EQ PUSH3 0x22F JUMPI DUP1 PUSH4 0x25F1BE1F EQ PUSH3 0x229 JUMPI DUP1 PUSH4 0x2F3A3D5D EQ PUSH3 0x223 JUMPI DUP1 PUSH4 0x3659CFE6 EQ PUSH3 0x21D JUMPI DUP1 PUSH4 0x420FC210 EQ PUSH3 0x217 JUMPI DUP1 PUSH4 0x424D9EDE EQ PUSH3 0x211 JUMPI DUP1 PUSH4 0x4F1EF286 EQ PUSH3 0x20B JUMPI DUP1 PUSH4 0x52D1902D EQ PUSH3 0x205 JUMPI DUP1 PUSH4 0x545E7348 EQ PUSH3 0x1FF JUMPI DUP1 PUSH4 0x715018A6 EQ PUSH3 0x1F9 JUMPI DUP1 PUSH4 0x8333903E EQ PUSH3 0x1F3 JUMPI DUP1 PUSH4 0x8DA5CB5B EQ PUSH3 0x1ED JUMPI DUP1 PUSH4 0xA2AFDB99 EQ PUSH3 0x1E7 JUMPI DUP1 PUSH4 0xA78FAE8E EQ PUSH3 0x1E1 JUMPI DUP1 PUSH4 0xB6193775 EQ PUSH3 0x1DB JUMPI DUP1 PUSH4 0xC05DDDA8 EQ PUSH3 0x1D5 JUMPI DUP1 PUSH4 0xCBF1208F EQ PUSH3 0x1CF JUMPI DUP1 PUSH4 0xCDD78CFC EQ PUSH3 0x1C9 JUMPI DUP1 PUSH4 0xD002462B EQ PUSH3 0x1C3 JUMPI DUP1 PUSH4 0xD5340141 EQ PUSH3 0x1BD JUMPI DUP1 PUSH4 0xE379DCAF EQ PUSH3 0x1B7 JUMPI DUP1 PUSH4 0xEB13554F EQ PUSH3 0x1B1 JUMPI DUP1 PUSH4 0xEC81AADB EQ PUSH3 0x1AB JUMPI DUP1 PUSH4 0xF2CFF57F EQ PUSH3 0x1A5 JUMPI DUP1 PUSH4 0xF2FDE38B EQ PUSH3 0x19F JUMPI DUP1 PUSH4 0xFADCAC27 EQ PUSH3 0x199 JUMPI DUP1 PUSH4 0xFE4B84DF EQ PUSH3 0x193 JUMPI PUSH4 0xFFA1AD74 SUB PUSH3 0x247 JUMPI PUSH3 0xC98 JUMP JUMPDEST PUSH3 0xC2B JUMP JUMPDEST PUSH3 0xBF8 JUMP JUMPDEST PUSH3 0xBAF JUMP JUMPDEST PUSH3 0xB8E JUMP JUMPDEST PUSH3 0xB5F JUMP JUMPDEST PUSH3 0xAD9 JUMP JUMPDEST PUSH3 0xA8E JUMP JUMPDEST PUSH3 0xA61 JUMP JUMPDEST PUSH3 0x9F5 JUMP JUMPDEST PUSH3 0x9D4 JUMP JUMPDEST PUSH3 0x9A8 JUMP JUMPDEST PUSH3 0x967 JUMP JUMPDEST PUSH3 0x92D JUMP JUMPDEST PUSH3 0x8FD JUMP JUMPDEST PUSH3 0x8DF JUMP JUMPDEST PUSH3 0x896 JUMP JUMPDEST PUSH3 0x879 JUMP JUMPDEST PUSH3 0x82F JUMP JUMPDEST PUSH3 0x801 JUMP JUMPDEST PUSH3 0x609 JUMP JUMPDEST PUSH3 0x5F1 JUMP JUMPDEST PUSH3 0x4C5 JUMP JUMPDEST PUSH3 0x46B JUMP JUMPDEST PUSH3 0x440 JUMP JUMPDEST PUSH3 0x3FD JUMP JUMPDEST PUSH3 0x392 JUMP JUMPDEST PUSH3 0x370 JUMP JUMPDEST PUSH3 0x34F JUMP JUMPDEST PUSH3 0x2E4 JUMP JUMPDEST PUSH3 0x28A JUMP JUMPDEST PUSH1 0x0 DUP1 REVERT JUMPDEST PUSH1 0x0 SWAP2 SUB SLT PUSH3 0x247 JUMPI JUMP JUMPDEST PUSH1 0x1 PUSH1 0x1 PUSH1 0xA0 SHL SUB AND SWAP1 JUMP JUMPDEST SWAP1 JUMP JUMPDEST PUSH3 0x272 SWAP1 PUSH3 0x258 JUMP JUMPDEST SWAP1 MSTORE JUMP JUMPDEST PUSH1 0x20 DUP2 ADD SWAP3 SWAP2 PUSH3 0x288 SWAP2 SWAP1 PUSH3 0x267 JUMP JUMPDEST JUMP JUMPDEST CALLVALUE PUSH3 0x247 JUMPI PUSH3 0x29D CALLDATASIZE PUSH1 0x4 PUSH3 0x24C JUMP JUMPDEST PUSH3 0x2B8 PUSH3 0x2AB PUSH3 0xCB9 JUMP JUMPDEST PUSH1 0x40 MLOAD SWAP2 DUP3 SWAP2 DUP3 PUSH3 0x276 JUMP JUMPDEST SUB SWAP1 RETURN JUMPDEST PUSH3 0x264 SWAP2 PUSH1 0x8 MUL SHR DUP2 JUMP JUMPDEST SWAP1 PUSH3 0x264 SWAP2 SLOAD PUSH3 0x2BC JUMP JUMPDEST PUSH3 0x264 PUSH1 0x0 PUSH2 0x100 PUSH3 0x2C8 JUMP JUMPDEST CALLVALUE PUSH3 0x247 JUMPI PUSH3 0x2F7 CALLDATASIZE PUSH1 0x4 PUSH3 0x24C JUMP JUMPDEST PUSH3 0x2B8 PUSH3 0x305 PUSH3 0x2D5 JUMP JUMPDEST PUSH1 0x40 MLOAD JUMPDEST SWAP2 DUP3 SWAP2 DUP3 SWAP1 DUP2 MSTORE PUSH1 0x20 ADD SWAP1 JUMP JUMPDEST PUSH3 0x321 DUP2 PUSH3 0x258 JUMP JUMPDEST SUB PUSH3 0x247 JUMPI JUMP JUMPDEST SWAP1 POP CALLDATALOAD SWAP1 PUSH3 0x288 DUP3 PUSH3 0x316 JUMP JUMPDEST SWAP1 PUSH1 0x20 DUP3 DUP3 SUB SLT PUSH3 0x247 JUMPI PUSH3 0x264 SWAP2 PUSH3 0x329 JUMP JUMPDEST CALLVALUE PUSH3 0x247 JUMPI PUSH3 0x2B8 PUSH3 0x305 PUSH3 0x36A CALLDATASIZE PUSH1 0x4 PUSH3 0x338 JUMP JUMPDEST PUSH3 0xD08 JUMP JUMPDEST CALLVALUE PUSH3 0x247 JUMPI PUSH3 0x38D PUSH3 0x387 CALLDATASIZE PUSH1 0x4 PUSH3 0x338 JUMP JUMPDEST PUSH3 0xE98 JUMP JUMPDEST PUSH1 0x40 MLOAD STOP JUMPDEST CALLVALUE PUSH3 0x247 JUMPI PUSH3 0x3A5 CALLDATASIZE PUSH1 0x4 PUSH3 0x24C JUMP JUMPDEST PUSH3 0x2B8 PUSH3 0x305 PUSH2 0x104 SLOAD SWAP1 JUMP JUMPDEST PUSH3 0x264 SWAP1 PUSH3 0x258 SWAP1 PUSH1 0x1 PUSH1 0x1 PUSH1 0xA0 SHL SUB AND DUP3 JUMP JUMPDEST PUSH3 0x264 SWAP1 PUSH3 0x3B4 JUMP JUMPDEST PUSH3 0x264 SWAP1 PUSH3 0x3CA JUMP JUMPDEST PUSH3 0x272 SWAP1 PUSH3 0x3D5 JUMP JUMPDEST PUSH1 0x20 DUP2 ADD SWAP3 SWAP2 PUSH3 0x288 SWAP2 SWAP1 PUSH3 0x3E0 JUMP JUMPDEST CALLVALUE PUSH3 0x247 JUMPI PUSH3 0x410 CALLDATASIZE PUSH1 0x4 PUSH3 0x24C JUMP JUMPDEST PUSH1 0x40 MLOAD DUP1 PUSH3 0x2B8 PUSH32 0x0 DUP3 PUSH3 0x3EB JUMP JUMPDEST CALLVALUE PUSH3 0x247 JUMPI PUSH3 0x38D PUSH3 0x457 CALLDATASIZE PUSH1 0x4 PUSH3 0x338 JUMP JUMPDEST PUSH3 0x101F JUMP JUMPDEST PUSH3 0x264 PUSH1 0x0 PUSH1 0xFF PUSH3 0x2C8 JUMP JUMPDEST CALLVALUE PUSH3 0x247 JUMPI PUSH3 0x47E CALLDATASIZE PUSH1 0x4 PUSH3 0x24C JUMP JUMPDEST PUSH3 0x2B8 PUSH3 0x305 PUSH3 0x45D JUMP JUMPDEST SWAP1 DUP2 PUSH2 0x200 SWAP2 SUB SLT PUSH3 0x247 JUMPI SWAP1 JUMP JUMPDEST SWAP1 PUSH1 0x20 DUP3 DUP3 SUB SLT PUSH3 0x247 JUMPI DUP2 CALLDATALOAD PUSH1 0x1 PUSH1 0x1 PUSH1 0x40 SHL SUB DUP2 GT PUSH3 0x247 JUMPI PUSH3 0x264 SWAP3 ADD PUSH3 0x48C JUMP JUMPDEST PUSH3 0x2B8 PUSH3 0x2AB PUSH3 0x4DA CALLDATASIZE PUSH1 0x4 PUSH3 0x49C JUMP JUMPDEST PUSH3 0x1E87 JUMP JUMPDEST PUSH4 0x4E487B71 PUSH1 0xE0 SHL PUSH1 0x0 MSTORE PUSH1 0x41 PUSH1 0x4 MSTORE PUSH1 0x24 PUSH1 0x0 REVERT JUMPDEST SWAP1 PUSH1 0x1F ADD PUSH1 0x1F NOT AND DUP2 ADD SWAP1 DUP2 LT PUSH1 0x1 PUSH1 0x1 PUSH1 0x40 SHL SUB DUP3 GT OR PUSH3 0x518 JUMPI PUSH1 0x40 MSTORE JUMP JUMPDEST PUSH3 0x4E0 JUMP JUMPDEST SWAP1 PUSH3 0x288 PUSH3 0x52D PUSH1 0x40 MLOAD SWAP1 JUMP JUMPDEST SWAP3 DUP4 PUSH3 0x4F6 JUMP JUMPDEST PUSH1 0x1 PUSH1 0x1 PUSH1 0x40 SHL SUB DUP2 GT PUSH3 0x518 JUMPI PUSH1 0x20 SWAP1 PUSH1 0x1F ADD PUSH1 0x1F NOT AND ADD SWAP1 JUMP JUMPDEST ADD SWAP1 JUMP JUMPDEST SWAP1 DUP3 PUSH1 0x0 SWAP4 SWAP3 DUP3 CALLDATACOPY ADD MSTORE JUMP JUMPDEST SWAP1 SWAP3 SWAP2 SWAP3 PUSH3 0x57B PUSH3 0x575 DUP3 PUSH3 0x535 JUMP JUMPDEST PUSH3 0x51E JUMP JUMPDEST SWAP4 DUP2 DUP6 MSTORE DUP2 DUP4 ADD GT PUSH3 0x247 JUMPI PUSH3 0x288 SWAP2 PUSH1 0x20 DUP6 ADD SWAP1 PUSH3 0x556 JUMP JUMPDEST SWAP1 DUP1 PUSH1 0x1F DUP4 ADD SLT ISZERO PUSH3 0x247 JUMPI DUP2 PUSH1 0x20 PUSH3 0x264 SWAP4 CALLDATALOAD SWAP2 ADD PUSH3 0x562 JUMP JUMPDEST SWAP2 SWAP1 SWAP2 PUSH1 0x40 DUP2 DUP5 SUB SLT PUSH3 0x247 JUMPI PUSH3 0x5D0 DUP4 DUP3 PUSH3 0x329 JUMP JUMPDEST SWAP3 PUSH1 0x20 DUP3 ADD CALLDATALOAD PUSH1 0x1 PUSH1 0x1 PUSH1 0x40 SHL SUB DUP2 GT PUSH3 0x247 JUMPI PUSH3 0x264 SWAP3 ADD PUSH3 0x598 JUMP JUMPDEST PUSH3 0x38D PUSH3 0x602 CALLDATASIZE PUSH1 0x4 PUSH3 0x5B6 JUMP JUMPDEST SWAP1 PUSH3 0x1EC2 JUMP JUMPDEST CALLVALUE PUSH3 0x247 JUMPI PUSH3 0x61C CALLDATASIZE PUSH1 0x4 PUSH3 0x24C JUMP JUMPDEST PUSH3 0x2B8 PUSH3 0x305 PUSH3 0x1FC2 JUMP JUMPDEST SWAP1 PUSH3 0x636 SWAP1 PUSH3 0x3D5 JUMP JUMPDEST PUSH1 0x0 MSTORE PUSH1 0x20 MSTORE PUSH1 0x40 PUSH1 0x0 KECCAK256 SWAP1 JUMP JUMPDEST PUSH4 0x4E487B71 PUSH1 0xE0 SHL PUSH1 0x0 MSTORE PUSH1 0x0 PUSH1 0x4 MSTORE PUSH1 0x24 PUSH1 0x0 REVERT JUMPDEST PUSH4 0x4E487B71 PUSH1 0xE0 SHL PUSH1 0x0 MSTORE PUSH1 0x22 PUSH1 0x4 MSTORE PUSH1 0x24 PUSH1 0x0 REVERT JUMPDEST SWAP1 PUSH1 0x1 PUSH1 0x2 DUP4 DIV SWAP3 AND DUP1 ISZERO PUSH3 0x693 JUMPI JUMPDEST PUSH1 0x20 DUP4 LT EQ PUSH3 0x68D JUMPI JUMP JUMPDEST PUSH3 0x65A JUMP JUMPDEST SWAP2 PUSH1 0x7F AND SWAP2 PUSH3 0x681 JUMP JUMPDEST DUP1 SLOAD PUSH1 0x0 SWAP4 SWAP3 SWAP2 PUSH3 0x6BE PUSH3 0x6B4 DUP4 PUSH3 0x670 JUMP JUMPDEST DUP1 DUP6 MSTORE SWAP4 PUSH1 0x20 ADD SWAP1 JUMP JUMPDEST SWAP2 PUSH1 0x1 DUP2 AND SWAP1 DUP2 ISZERO PUSH3 0x715 JUMPI POP PUSH1 0x1 EQ PUSH3 0x6D9 JUMPI POP POP POP JUMP JUMPDEST PUSH3 0x6ED SWAP2 SWAP3 SWAP4 SWAP5 POP PUSH1 0x0 MSTORE PUSH1 0x20 PUSH1 0x0 KECCAK256 SWAP1 JUMP JUMPDEST SWAP2 PUSH1 0x0 SWAP3 JUMPDEST DUP2 DUP5 LT PUSH3 0x700 JUMPI POP POP ADD SWAP1 JUMP JUMPDEST DUP1 SLOAD DUP5 DUP5 ADD MSTORE PUSH1 0x20 SWAP1 SWAP4 ADD SWAP3 PUSH1 0x1 ADD PUSH3 0x6F2 JUMP JUMPDEST SWAP3 SWAP5 SWAP6 POP POP POP PUSH1 0xFF NOT AND DUP3 MSTORE ISZERO ISZERO PUSH1 0x20 MUL ADD SWAP1 JUMP JUMPDEST SWAP1 PUSH3 0x264 SWAP2 PUSH3 0x69E JUMP JUMPDEST SWAP1 PUSH3 0x288 PUSH3 0x754 SWAP3 PUSH3 0x74A PUSH1 0x40 MLOAD SWAP1 JUMP JUMPDEST SWAP4 DUP5 DUP1 SWAP3 PUSH3 0x72A JUMP JUMPDEST SUB DUP4 PUSH3 0x4F6 JUMP JUMPDEST SWAP1 PUSH1 0x0 LT PUSH3 0x770 JUMPI PUSH3 0x264 SWAP1 PUSH3 0x736 JUMP JUMPDEST PUSH3 0x644 JUMP JUMPDEST PUSH1 0x0 PUSH3 0x78A PUSH3 0x264 SWAP3 PUSH2 0x105 PUSH3 0x62A JUMP JUMPDEST PUSH3 0x75C JUMP JUMPDEST PUSH1 0x0 JUMPDEST DUP4 DUP2 LT PUSH3 0x7A4 JUMPI POP POP PUSH1 0x0 SWAP2 ADD MSTORE JUMP JUMPDEST DUP2 DUP2 ADD MLOAD DUP4 DUP3 ADD MSTORE PUSH1 0x20 ADD PUSH3 0x793 JUMP JUMPDEST PUSH3 0x7DA PUSH3 0x7E4 PUSH1 0x20 SWAP4 PUSH3 0x552 SWAP4 PUSH3 0x7CE DUP2 MLOAD SWAP1 JUMP JUMPDEST DUP1 DUP4 MSTORE SWAP4 DUP5 SWAP3 PUSH1 0x20 ADD SWAP1 JUMP JUMPDEST SWAP6 DUP7 SWAP2 ADD PUSH3 0x790 JUMP JUMPDEST PUSH1 0x1F ADD PUSH1 0x1F NOT AND SWAP1 JUMP JUMPDEST PUSH1 0x20 DUP1 DUP3 MSTORE PUSH3 0x264 SWAP3 SWAP2 ADD SWAP1 PUSH3 0x7B5 JUMP JUMPDEST CALLVALUE PUSH3 0x247 JUMPI PUSH3 0x2B8 PUSH3 0x822 PUSH3 0x81C CALLDATASIZE PUSH1 0x4 PUSH3 0x338 JUMP JUMPDEST PUSH3 0x776 JUMP JUMPDEST PUSH1 0x40 MLOAD SWAP2 DUP3 SWAP2 DUP3 PUSH3 0x7EE JUMP JUMPDEST CALLVALUE PUSH3 0x247 JUMPI PUSH3 0x842 CALLDATASIZE PUSH1 0x4 PUSH3 0x24C JUMP JUMPDEST PUSH3 0x38D PUSH3 0x1FF2 JUMP JUMPDEST DUP1 PUSH3 0x321 JUMP JUMPDEST SWAP1 POP CALLDATALOAD SWAP1 PUSH3 0x288 DUP3 PUSH3 0x84C JUMP JUMPDEST SWAP1 PUSH1 0x20 DUP3 DUP3 SUB SLT PUSH3 0x247 JUMPI PUSH3 0x264 SWAP2 PUSH3 0x853 JUMP JUMPDEST CALLVALUE PUSH3 0x247 JUMPI PUSH3 0x38D PUSH3 0x890 CALLDATASIZE PUSH1 0x4 PUSH3 0x862 JUMP JUMPDEST PUSH3 0x20BA JUMP JUMPDEST CALLVALUE PUSH3 0x247 JUMPI PUSH3 0x8A9 CALLDATASIZE PUSH1 0x4 PUSH3 0x24C JUMP JUMPDEST PUSH3 0x2B8 PUSH3 0x2AB PUSH3 0x20C5 JUMP JUMPDEST SWAP2 SWAP1 PUSH1 0x40 DUP4 DUP3 SUB SLT PUSH3 0x247 JUMPI PUSH3 0x264 SWAP1 PUSH1 0x20 PUSH3 0x8D7 DUP3 DUP7 PUSH3 0x853 JUMP JUMPDEST SWAP5 ADD PUSH3 0x853 JUMP JUMPDEST CALLVALUE PUSH3 0x247 JUMPI PUSH3 0x38D PUSH3 0x8F6 CALLDATASIZE PUSH1 0x4 PUSH3 0x8B7 JUMP JUMPDEST SWAP1 PUSH3 0x219D JUMP JUMPDEST CALLVALUE PUSH3 0x247 JUMPI PUSH3 0x2B8 PUSH3 0x822 PUSH3 0x918 CALLDATASIZE PUSH1 0x4 PUSH3 0x338 JUMP JUMPDEST PUSH3 0x21B4 JUMP JUMPDEST PUSH3 0x264 PUSH1 0x0 PUSH2 0x103 PUSH3 0x2C8 JUMP JUMPDEST CALLVALUE PUSH3 0x247 JUMPI PUSH3 0x940 CALLDATASIZE PUSH1 0x4 PUSH3 0x24C JUMP JUMPDEST PUSH3 0x2B8 PUSH3 0x305 PUSH3 0x91E JUMP JUMPDEST PUSH1 0x0 PUSH3 0x961 PUSH3 0x264 SWAP3 PUSH1 0xFC PUSH3 0x62A JUMP JUMPDEST PUSH3 0x2C8 JUMP JUMPDEST CALLVALUE PUSH3 0x247 JUMPI PUSH3 0x2B8 PUSH3 0x305 PUSH3 0x982 CALLDATASIZE PUSH1 0x4 PUSH3 0x338 JUMP JUMPDEST PUSH3 0x94E JUMP JUMPDEST SWAP2 SWAP1 PUSH1 0x40 DUP4 DUP3 SUB SLT PUSH3 0x247 JUMPI PUSH3 0x264 SWAP1 PUSH1 0x20 PUSH3 0x8D7 DUP3 DUP7 PUSH3 0x329 JUMP JUMPDEST CALLVALUE PUSH3 0x247 JUMPI PUSH3 0x38D PUSH3 0x9BF CALLDATASIZE PUSH1 0x4 PUSH3 0x988 JUMP JUMPDEST SWAP1 PUSH3 0x223E JUMP JUMPDEST PUSH3 0x264 PUSH1 0x0 PUSH1 0xFD PUSH3 0x2C8 JUMP JUMPDEST CALLVALUE PUSH3 0x247 JUMPI PUSH3 0x9E7 CALLDATASIZE PUSH1 0x4 PUSH3 0x24C JUMP JUMPDEST PUSH3 0x2B8 PUSH3 0x305 PUSH3 0x9C6 JUMP JUMPDEST CALLVALUE PUSH3 0x247 JUMPI PUSH3 0x38D PUSH3 0xA0C CALLDATASIZE PUSH1 0x4 PUSH3 0x862 JUMP JUMPDEST PUSH3 0x227B JUMP JUMPDEST DUP1 ISZERO ISZERO PUSH3 0x321 JUMP JUMPDEST SWAP1 POP CALLDATALOAD SWAP1 PUSH3 0x288 DUP3 PUSH3 0xA12 JUMP JUMPDEST SWAP1 SWAP2 PUSH1 0x60 DUP3 DUP5 SUB SLT PUSH3 0x247 JUMPI PUSH3 0x264 PUSH3 0xA47 DUP5 DUP5 PUSH3 0x853 JUMP JUMPDEST SWAP4 PUSH1 0x40 PUSH3 0xA59 DUP3 PUSH1 0x20 DUP8 ADD PUSH3 0x853 JUMP JUMPDEST SWAP5 ADD PUSH3 0xA1B JUMP JUMPDEST CALLVALUE PUSH3 0x247 JUMPI PUSH3 0x38D PUSH3 0xA78 CALLDATASIZE PUSH1 0x4 PUSH3 0xA2A JUMP JUMPDEST SWAP2 PUSH3 0x2392 JUMP JUMPDEST PUSH3 0x264 PUSH1 0x0 PUSH2 0x102 PUSH3 0x2C8 JUMP JUMPDEST CALLVALUE PUSH3 0x247 JUMPI PUSH3 0xAA1 CALLDATASIZE PUSH1 0x4 PUSH3 0x24C JUMP JUMPDEST PUSH3 0x2B8 PUSH3 0x305 PUSH3 0xA7F JUMP JUMPDEST PUSH3 0x264 SWAP2 PUSH1 0x8 MUL SHR PUSH3 0x258 JUMP JUMPDEST SWAP1 PUSH3 0x264 SWAP2 SLOAD PUSH3 0xAAF JUMP JUMPDEST PUSH3 0x264 PUSH1 0x0 PUSH1 0xFE PUSH3 0xABE JUMP JUMPDEST CALLVALUE PUSH3 0x247 JUMPI PUSH3 0xAEC CALLDATASIZE PUSH1 0x4 PUSH3 0x24C JUMP JUMPDEST PUSH3 0x2B8 PUSH3 0x2AB PUSH3 0xACB JUMP JUMPDEST PUSH4 0x4E487B71 PUSH1 0xE0 SHL PUSH1 0x0 MSTORE PUSH1 0x32 PUSH1 0x4 MSTORE PUSH1 0x24 PUSH1 0x0 REVERT JUMPDEST DUP1 SLOAD DUP3 LT ISZERO PUSH3 0xB35 JUMPI PUSH3 0xB2C PUSH1 0x1 SWAP2 PUSH1 0x0 MSTORE PUSH1 0x20 PUSH1 0x0 KECCAK256 SWAP1 JUMP JUMPDEST SWAP2 MUL ADD SWAP1 PUSH1 0x0 SWAP1 JUMP JUMPDEST PUSH3 0xAFA JUMP JUMPDEST PUSH2 0x104 DUP1 SLOAD DUP3 LT ISZERO PUSH3 0x247 JUMPI PUSH3 0x264 SWAP2 PUSH3 0xB58 SWAP2 PUSH3 0xB10 JUMP JUMPDEST SWAP1 PUSH3 0xABE JUMP JUMPDEST CALLVALUE PUSH3 0x247 JUMPI PUSH3 0x2B8 PUSH3 0x2AB PUSH3 0xB7A CALLDATASIZE PUSH1 0x4 PUSH3 0x862 JUMP JUMPDEST PUSH3 0xB3B JUMP JUMPDEST PUSH3 0x264 PUSH1 0x0 PUSH1 0xFB PUSH3 0x2C8 JUMP JUMPDEST CALLVALUE PUSH3 0x247 JUMPI PUSH3 0xBA1 CALLDATASIZE PUSH1 0x4 PUSH3 0x24C JUMP JUMPDEST PUSH3 0x2B8 PUSH3 0x305 PUSH3 0xB80 JUMP JUMPDEST CALLVALUE PUSH3 0x247 JUMPI PUSH3 0x38D PUSH3 0xBC6 CALLDATASIZE PUSH1 0x4 PUSH3 0x338 JUMP JUMPDEST PUSH3 0x243C JUMP JUMPDEST PUSH3 0x264 SWAP2 PUSH1 0x8 MUL SHR JUMPDEST PUSH1 0xFF AND SWAP1 JUMP JUMPDEST SWAP1 PUSH3 0x264 SWAP2 SLOAD PUSH3 0xBCC JUMP JUMPDEST PUSH3 0x264 PUSH1 0x0 PUSH2 0x101 PUSH3 0xBDC JUMP JUMPDEST CALLVALUE PUSH3 0x247 JUMPI PUSH3 0xC0B CALLDATASIZE PUSH1 0x4 PUSH3 0x24C JUMP JUMPDEST PUSH3 0x2B8 PUSH3 0xC19 PUSH3 0xBE9 JUMP JUMPDEST PUSH1 0x40 MLOAD SWAP2 DUP3 SWAP2 DUP3 SWAP1 ISZERO ISZERO DUP2 MSTORE PUSH1 0x20 ADD SWAP1 JUMP JUMPDEST CALLVALUE PUSH3 0x247 JUMPI PUSH3 0x38D PUSH3 0xC42 CALLDATASIZE PUSH1 0x4 PUSH3 0x862 JUMP JUMPDEST PUSH3 0x2817 JUMP JUMPDEST SWAP1 PUSH3 0xC58 PUSH3 0x575 DUP4 PUSH3 0x535 JUMP JUMPDEST SWAP2 DUP3 MSTORE JUMP JUMPDEST PUSH3 0xC69 PUSH1 0x5 PUSH3 0xC48 JUMP JUMPDEST PUSH5 0x332E302E3 PUSH1 0xDC SHL PUSH1 0x20 DUP3 ADD MSTORE SWAP1 JUMP JUMPDEST PUSH3 0x264 PUSH3 0xC5D JUMP JUMPDEST PUSH3 0x264 PUSH3 0xC7A JUMP JUMPDEST PUSH3 0x264 PUSH3 0xC84 JUMP JUMPDEST CALLVALUE PUSH3 0x247 JUMPI PUSH3 0xCAB CALLDATASIZE PUSH1 0x4 PUSH3 0x24C JUMP JUMPDEST PUSH3 0x2B8 PUSH3 0x822 PUSH3 0xC8E JUMP JUMPDEST PUSH3 0x264 PUSH32 0x0 PUSH3 0x3D5 JUMP JUMPDEST PUSH3 0x264 SWAP1 DUP2 JUMP JUMPDEST PUSH3 0x264 SWAP1 SLOAD PUSH3 0xCE4 JUMP JUMPDEST PUSH3 0x264 PUSH3 0x264 PUSH3 0x264 SWAP3 SWAP1 JUMP JUMPDEST PUSH3 0xD1F PUSH3 0xD19 DUP3 PUSH1 0xFC PUSH3 0x62A JUMP JUMPDEST PUSH3 0xCEC JUMP JUMPDEST SWAP1 PUSH3 0xD2C PUSH1 0x0 PUSH3 0xCF8 JUMP JUMPDEST DUP3 GT SWAP1 DUP2 ISZERO PUSH3 0xD4A JUMPI JUMPDEST POP PUSH3 0x264 JUMPI POP PUSH3 0x264 PUSH1 0xFB PUSH3 0xCEC JUMP JUMPDEST SWAP1 POP PUSH3 0xD58 PUSH1 0x0 PUSH3 0xCF8 JUMP JUMPDEST DUP3 EQ SWAP1 DUP2 PUSH3 0xD6A JUMPI JUMPDEST POP CODESIZE PUSH3 0xD37 JUMP JUMPDEST PUSH3 0xD7D SWAP2 POP PUSH3 0xD19 SWAP1 PUSH1 0xFC PUSH3 0x62A JUMP JUMPDEST PUSH3 0xD91 PUSH3 0xD8D PUSH1 0x0 PUSH3 0xCF8 JUMP JUMPDEST SWAP2 SWAP1 JUMP JUMPDEST EQ ISZERO CODESIZE PUSH3 0xD62 JUMP JUMPDEST PUSH3 0x288 SWAP1 PUSH3 0xDA9 PUSH3 0x2874 JUMP JUMPDEST PUSH3 0xE44 JUMP JUMPDEST PUSH3 0x258 PUSH3 0x264 PUSH3 0x264 SWAP3 SWAP1 JUMP JUMPDEST PUSH3 0x264 SWAP1 PUSH3 0xDAF JUMP JUMPDEST ISZERO PUSH3 0xDD2 JUMPI JUMP JUMPDEST PUSH1 0x40 MLOAD PUSH3 0x461BCD PUSH1 0xE5 SHL DUP2 MSTORE PUSH1 0x20 PUSH1 0x4 DUP3 ADD MSTORE PUSH1 0x11 PUSH1 0x24 DUP3 ADD MSTORE PUSH17 0x125B9D985B1A59081C9958DA5C1A595B9D PUSH1 0x7A SHL PUSH1 0x44 DUP3 ADD MSTORE PUSH1 0x64 SWAP1 REVERT JUMPDEST SUB SWAP1 REVERT JUMPDEST SWAP1 PUSH1 0x1 PUSH1 0x1 PUSH1 0xA0 SHL SUB SWAP1 JUMPDEST SWAP2 DUP2 NOT AND SWAP2 AND OR SWAP1 JUMP JUMPDEST SWAP1 PUSH3 0xE38 PUSH3 0x264 PUSH3 0xE40 SWAP3 PUSH3 0x3D5 JUMP JUMPDEST DUP3 SLOAD PUSH3 0xE0F JUMP JUMPDEST SWAP1 SSTORE JUMP JUMPDEST PUSH3 0xE93 PUSH1 0x0 DUP1 MLOAD PUSH1 0x20 PUSH3 0x3588 DUP4 CODECOPY DUP2 MLOAD SWAP2 MSTORE SWAP2 PUSH3 0xE86 PUSH3 0xE73 PUSH3 0xE6D PUSH1 0x0 PUSH3 0xDBF JUMP JUMPDEST PUSH3 0x258 JUMP JUMPDEST PUSH3 0xE7E DUP4 PUSH3 0x258 JUMP JUMPDEST EQ ISZERO PUSH3 0xDCA JUMP JUMPDEST PUSH3 0x2AB DUP2 PUSH1 0xFE PUSH3 0xE24 JUMP JUMPDEST SUB SWAP1 LOG1 JUMP JUMPDEST PUSH3 0x288 SWAP1 PUSH3 0xD9A JUMP JUMPDEST ISZERO PUSH3 0xEAB JUMPI JUMP JUMPDEST PUSH1 0x40 MLOAD PUSH3 0x461BCD PUSH1 0xE5 SHL DUP2 MSTORE PUSH1 0x20 PUSH1 0x4 DUP3 ADD MSTORE PUSH1 0x2C PUSH1 0x24 DUP3 ADD MSTORE PUSH1 0x0 DUP1 MLOAD PUSH1 0x20 PUSH3 0x35E8 DUP4 CODECOPY DUP2 MLOAD SWAP2 MSTORE PUSH1 0x44 DUP3 ADD MSTORE PUSH12 0x19195B1959D85D1958D85B1B PUSH1 0xA2 SHL PUSH1 0x64 DUP3 ADD MSTORE PUSH1 0x84 SWAP1 REVERT JUMPDEST ISZERO PUSH3 0xEFC JUMPI JUMP JUMPDEST PUSH1 0x40 MLOAD PUSH3 0x461BCD PUSH1 0xE5 SHL DUP2 MSTORE PUSH1 0x20 PUSH1 0x4 DUP3 ADD MSTORE PUSH1 0x2C PUSH1 0x24 DUP3 ADD MSTORE PUSH1 0x0 DUP1 MLOAD PUSH1 0x20 PUSH3 0x35E8 DUP4 CODECOPY DUP2 MLOAD SWAP2 MSTORE PUSH1 0x44 DUP3 ADD MSTORE PUSH12 0x6163746976652070726F7879 PUSH1 0xA0 SHL PUSH1 0x64 DUP3 ADD MSTORE PUSH1 0x84 SWAP1 REVERT JUMPDEST PUSH3 0x288 SWAP1 PUSH3 0xFBD PUSH3 0xF59 ADDRESS PUSH3 0x3D5 JUMP JUMPDEST PUSH3 0xF9D PUSH32 0x0 SWAP2 PUSH3 0xF95 PUSH3 0xF8E DUP5 PUSH3 0x258 JUMP JUMPDEST SWAP2 PUSH3 0x258 JUMP JUMPDEST EQ ISZERO PUSH3 0xEA3 JUMP JUMPDEST PUSH3 0xFB6 PUSH3 0xF8E PUSH3 0xFAF PUSH3 0x2898 JUMP JUMPDEST SWAP3 PUSH3 0x258 JUMP JUMPDEST EQ PUSH3 0xEF4 JUMP JUMPDEST PUSH3 0xFF1 JUMP JUMPDEST CALLDATASIZE SWAP1 CALLDATACOPY JUMP JUMPDEST SWAP1 PUSH3 0x288 PUSH3 0xFE3 PUSH3 0xFDC DUP5 PUSH3 0xC48 JUMP JUMPDEST SWAP4 PUSH3 0x535 JUMP JUMPDEST PUSH1 0x1F NOT ADD PUSH1 0x20 DUP5 ADD PUSH3 0xFC3 JUMP JUMPDEST PUSH1 0x0 PUSH3 0x288 SWAP2 PUSH3 0x1003 DUP2 PUSH3 0x28BE JUMP JUMPDEST PUSH3 0x1018 PUSH3 0x1012 DUP4 PUSH3 0xCF8 JUMP JUMPDEST PUSH3 0xFC8 JUMP JUMPDEST SWAP1 PUSH3 0x2979 JUMP JUMPDEST PUSH3 0x288 SWAP1 PUSH3 0xF45 JUMP JUMPDEST SWAP1 PUSH3 0x1040 SWAP2 PUSH3 0x103A PUSH3 0x2AFE JUMP JUMPDEST PUSH3 0x17B0 JUMP JUMPDEST SWAP1 PUSH3 0x288 PUSH3 0x2B3A JUMP JUMPDEST ISZERO PUSH3 0x1053 JUMPI JUMP JUMPDEST PUSH1 0x40 MLOAD PUSH3 0x461BCD PUSH1 0xE5 SHL DUP2 MSTORE PUSH1 0x20 PUSH1 0x4 DUP3 ADD MSTORE PUSH1 0x1B PUSH1 0x24 DUP3 ADD MSTORE PUSH27 0x496E73756666696369656E74206465706C6F796D656E7420666565 PUSH1 0x28 SHL PUSH1 0x44 DUP3 ADD MSTORE PUSH1 0x64 SWAP1 REVERT JUMPDEST CALLDATALOAD PUSH3 0x264 DUP2 PUSH3 0x84C JUMP JUMPDEST ISZERO PUSH3 0x10AA JUMPI JUMP JUMPDEST PUSH1 0x40 MLOAD PUSH3 0x461BCD PUSH1 0xE5 SHL DUP2 MSTORE PUSH1 0x20 PUSH1 0x4 DUP3 ADD MSTORE PUSH1 0x14 PUSH1 0x24 DUP3 ADD MSTORE PUSH20 0x496E697469616C203E206D617820737570706C79 PUSH1 0x60 SHL PUSH1 0x44 DUP3 ADD MSTORE PUSH1 0x64 SWAP1 REVERT JUMPDEST ISZERO PUSH3 0x10EE JUMPI JUMP JUMPDEST PUSH1 0x40 MLOAD PUSH3 0x461BCD PUSH1 0xE5 SHL DUP2 MSTORE PUSH1 0x20 PUSH1 0x4 DUP3 ADD MSTORE PUSH1 0x14 PUSH1 0x24 DUP3 ADD MSTORE PUSH20 0x496E76616C69642070726573616C652072617465 PUSH1 0x60 SHL PUSH1 0x44 DUP3 ADD MSTORE PUSH1 0x64 SWAP1 REVERT JUMPDEST ISZERO PUSH3 0x1132 JUMPI JUMP JUMPDEST PUSH1 0x40 MLOAD PUSH3 0x461BCD PUSH1 0xE5 SHL DUP2 MSTORE PUSH1 0x20 PUSH1 0x4 DUP3 ADD MSTORE PUSH1 0x19 PUSH1 0x24 DUP3 ADD MSTORE PUSH25 0x53746172742074696D65206D75737420626520667574757265 PUSH1 0x38 SHL PUSH1 0x44 DUP3 ADD MSTORE PUSH1 0x64 SWAP1 REVERT JUMPDEST ISZERO PUSH3 0x117B JUMPI JUMP JUMPDEST PUSH1 0x40 MLOAD PUSH3 0x461BCD PUSH1 0xE5 SHL DUP2 MSTORE PUSH1 0x20 PUSH1 0x4 DUP3 ADD MSTORE PUSH1 0x1C PUSH1 0x24 DUP3 ADD MSTORE PUSH28 0x115B99081D1A5B59481B5D5CDD0818994818599D195C881CDD185C9D PUSH1 0x22 SHL PUSH1 0x44 DUP3 ADD MSTORE PUSH1 0x64 SWAP1 REVERT JUMPDEST ISZERO PUSH3 0x11C7 JUMPI JUMP JUMPDEST PUSH1 0x40 MLOAD PUSH3 0x461BCD PUSH1 0xE5 SHL DUP2 MSTORE PUSH1 0x20 PUSH1 0x4 DUP3 ADD MSTORE PUSH1 0x13 PUSH1 0x24 DUP3 ADD MSTORE PUSH19 0x496E76616C6964206C69717569646974792025 PUSH1 0x68 SHL PUSH1 0x44 DUP3 ADD MSTORE PUSH1 0x64 SWAP1 REVERT JUMPDEST PUSH4 0x4E487B71 PUSH1 0xE0 SHL PUSH1 0x0 MSTORE PUSH1 0x11 PUSH1 0x4 MSTORE PUSH1 0x24 PUSH1 0x0 REVERT JUMPDEST SWAP2 SWAP1 DUP3 ADD DUP1 SWAP3 GT PUSH3 0x1226 JUMPI JUMP JUMPDEST PUSH3 0x1202 JUMP JUMPDEST ISZERO PUSH3 0x1234 JUMPI JUMP JUMPDEST PUSH1 0x40 MLOAD PUSH3 0x461BCD PUSH1 0xE5 SHL DUP2 MSTORE PUSH1 0x20 PUSH1 0x4 DUP3 ADD MSTORE PUSH1 0x14 PUSH1 0x24 DUP3 ADD MSTORE PUSH20 0x496E76616C696420616C6C6F636174696F6E2025 PUSH1 0x60 SHL PUSH1 0x44 DUP3 ADD MSTORE PUSH1 0x64 SWAP1 REVERT JUMPDEST DUP2 DUP2 MUL SWAP3 SWAP2 DUP2 ISZERO SWAP2 DUP5 DIV EQ OR ISZERO PUSH3 0x1226 JUMPI JUMP JUMPDEST PUSH4 0x4E487B71 PUSH1 0xE0 SHL PUSH1 0x0 MSTORE PUSH1 0x12 PUSH1 0x4 MSTORE PUSH1 0x24 PUSH1 0x0 REVERT JUMPDEST DUP2 ISZERO PUSH3 0x12A5 JUMPI DIV SWAP1 JUMP JUMPDEST PUSH3 0x1284 JUMP JUMPDEST SWAP2 SWAP1 DUP3 SUB SWAP2 DUP3 GT PUSH3 0x1226 JUMPI JUMP JUMPDEST SWAP1 CALLDATALOAD SWAP1 PUSH1 0x1E NOT CALLDATASIZE DUP3 SWAP1 SUB ADD DUP3 SLT ISZERO PUSH3 0x247 JUMPI ADD DUP1 CALLDATALOAD SWAP1 PUSH1 0x1 PUSH1 0x1 PUSH1 0x40 SHL SUB DUP3 GT PUSH3 0x247 JUMPI PUSH1 0x20 ADD SWAP2 CALLDATASIZE DUP3 SWAP1 SUB DUP4 SGT PUSH3 0x247 JUMPI JUMP JUMPDEST CALLDATALOAD PUSH3 0x264 DUP2 PUSH3 0x316 JUMP JUMPDEST CALLDATALOAD PUSH3 0x264 DUP2 PUSH3 0xA12 JUMP JUMPDEST PUSH3 0x264 SWAP1 PUSH3 0x258 JUMP JUMPDEST PUSH3 0x264 SWAP1 SLOAD PUSH3 0x1308 JUMP JUMPDEST PUSH3 0x264 SWAP1 PUSH3 0xBD6 JUMP JUMPDEST PUSH3 0x264 SWAP1 SLOAD PUSH3 0x131F JUMP JUMPDEST PUSH3 0x264 PUSH2 0x280 PUSH3 0x51E JUMP JUMPDEST PUSH3 0x264 SWAP2 CALLDATASIZE SWAP2 PUSH3 0x562 JUMP JUMPDEST SWAP1 PUSH3 0x272 SWAP1 PUSH3 0x258 JUMP JUMPDEST SWAP1 PUSH3 0x264 SWAP1 PUSH2 0x260 DUP1 PUSH3 0x1399 PUSH3 0x1386 PUSH2 0x280 DUP6 ADD PUSH1 0x0 DUP9 ADD MLOAD DUP7 DUP3 SUB PUSH1 0x0 DUP9 ADD MSTORE PUSH3 0x7B5 JUMP JUMPDEST PUSH1 0x20 DUP8 ADD MLOAD DUP6 DUP3 SUB PUSH1 0x20 DUP8 ADD MSTORE PUSH3 0x7B5 JUMP JUMPDEST SWAP5 PUSH3 0x13AA PUSH1 0x40 DUP3 ADD MLOAD PUSH1 0x40 DUP7 ADD MSTORE JUMP JUMPDEST PUSH3 0x13BA PUSH1 0x60 DUP3 ADD MLOAD PUSH1 0x60 DUP7 ADD MSTORE JUMP JUMPDEST PUSH3 0x13CE PUSH1 0x80 DUP3 ADD MLOAD PUSH1 0x80 DUP7 ADD SWAP1 PUSH3 0x267 JUMP JUMPDEST PUSH1 0xA0 DUP2 DUP2 ADD MLOAD ISZERO ISZERO SWAP1 DUP6 ADD MSTORE PUSH1 0xC0 DUP2 DUP2 ADD MLOAD ISZERO ISZERO SWAP1 DUP6 ADD MSTORE PUSH3 0x13F6 PUSH1 0xE0 DUP3 ADD MLOAD PUSH1 0xE0 DUP7 ADD MSTORE JUMP JUMPDEST PUSH3 0x1408 PUSH2 0x100 DUP3 ADD MLOAD PUSH2 0x100 DUP7 ADD MSTORE JUMP JUMPDEST PUSH3 0x141A PUSH2 0x120 DUP3 ADD MLOAD PUSH2 0x120 DUP7 ADD MSTORE JUMP JUMPDEST PUSH3 0x142C PUSH2 0x140 DUP3 ADD MLOAD PUSH2 0x140 DUP7 ADD MSTORE JUMP JUMPDEST PUSH3 0x143E PUSH2 0x160 DUP3 ADD MLOAD PUSH2 0x160 DUP7 ADD MSTORE JUMP JUMPDEST PUSH3 0x1450 PUSH2 0x180 DUP3 ADD MLOAD PUSH2 0x180 DUP7 ADD MSTORE JUMP JUMPDEST PUSH3 0x1462 PUSH2 0x1A0 DUP3 ADD MLOAD PUSH2 0x1A0 DUP7 ADD MSTORE JUMP JUMPDEST PUSH3 0x1474 PUSH2 0x1C0 DUP3 ADD MLOAD PUSH2 0x1C0 DUP7 ADD MSTORE JUMP JUMPDEST PUSH3 0x148A PUSH2 0x1E0 DUP3 ADD MLOAD PUSH2 0x1E0 DUP7 ADD SWAP1 PUSH3 0x267 JUMP JUMPDEST PUSH3 0x149C PUSH2 0x200 DUP3 ADD MLOAD PUSH2 0x200 DUP7 ADD MSTORE JUMP JUMPDEST PUSH2 0x220 DUP2 DUP2 ADD MLOAD ISZERO ISZERO SWAP1 DUP6 ADD MSTORE PUSH3 0x14BB PUSH2 0x240 DUP3 ADD MLOAD PUSH2 0x240 DUP7 ADD MSTORE JUMP JUMPDEST ADD MLOAD SWAP2 ADD MSTORE JUMP JUMPDEST PUSH1 0x20 DUP1 DUP3 MSTORE PUSH3 0x264 SWAP3 SWAP2 ADD SWAP1 PUSH3 0x135C JUMP JUMPDEST SWAP2 PUSH3 0x264 SWAP3 PUSH3 0x14EF PUSH1 0x40 DUP3 ADD SWAP4 PUSH1 0x0 DUP4 ADD SWAP1 PUSH3 0x267 JUMP JUMPDEST PUSH1 0x20 DUP2 DUP5 SUB SWAP2 ADD MSTORE PUSH3 0x7B5 JUMP JUMPDEST PUSH1 0x40 MLOAD RETURNDATASIZE PUSH1 0x0 DUP3 RETURNDATACOPY RETURNDATASIZE SWAP1 REVERT JUMPDEST SWAP2 PUSH1 0x1 PUSH1 0x1 PUSH1 0xA0 SHL SUB PUSH1 0x8 SWAP3 SWAP1 SWAP3 MUL SWAP2 DUP3 SHL SWAP2 SHL PUSH3 0xE1A JUMP JUMPDEST SWAP2 SWAP1 PUSH3 0x1538 PUSH3 0x264 PUSH3 0xE40 SWAP4 PUSH3 0x3D5 JUMP JUMPDEST SWAP1 DUP4 SLOAD PUSH3 0x1509 JUMP JUMPDEST DUP1 SLOAD SWAP2 SWAP1 PUSH1 0x1 PUSH1 0x40 SHL DUP4 LT ISZERO PUSH3 0x518 JUMPI DUP3 PUSH3 0x1568 SWAP2 PUSH1 0x1 PUSH3 0x288 SWAP6 ADD DUP2 SSTORE PUSH3 0xB10 JUMP JUMPDEST SWAP1 PUSH3 0x1523 JUMP JUMPDEST SWAP2 PUSH1 0x0 NOT PUSH1 0x8 SWAP3 SWAP1 SWAP3 MUL SWAP2 DUP3 SHL SWAP2 SHL PUSH3 0xE1A JUMP JUMPDEST SWAP2 SWAP1 PUSH3 0x1599 PUSH3 0x264 PUSH3 0xE40 SWAP4 PUSH3 0xCF8 JUMP JUMPDEST SWAP1 DUP4 SLOAD PUSH3 0x156F JUMP JUMPDEST PUSH3 0x288 SWAP2 PUSH1 0x0 SWAP2 PUSH3 0x1584 JUMP JUMPDEST DUP2 DUP2 LT PUSH3 0x15BC JUMPI POP POP JUMP JUMPDEST DUP1 PUSH3 0x15CC PUSH1 0x0 PUSH1 0x1 SWAP4 PUSH3 0x15A2 JUMP JUMPDEST ADD PUSH3 0x15B0 JUMP JUMPDEST SWAP2 SWAP1 PUSH1 0x1F DUP2 GT PUSH3 0x15E3 JUMPI POP POP POP JUMP JUMPDEST PUSH3 0x15F7 PUSH3 0x288 SWAP4 PUSH1 0x0 MSTORE PUSH1 0x20 PUSH1 0x0 KECCAK256 SWAP1 JUMP JUMPDEST SWAP1 PUSH1 0x20 PUSH1 0x1F DUP5 ADD DUP2 SWAP1 DIV DUP4 ADD SWAP4 LT PUSH3 0x161B JUMPI JUMPDEST PUSH1 0x20 PUSH1 0x1F SWAP1 SWAP2 ADD DIV ADD SWAP1 PUSH3 0x15B0 JUMP JUMPDEST SWAP1 SWAP2 POP DUP2 SWAP1 PUSH3 0x160B JUMP JUMPDEST SWAP1 PUSH1 0x0 NOT PUSH1 0x8 SWAP1 SWAP2 MUL SHR NOT AND SWAP1 JUMP JUMPDEST DUP2 PUSH3 0x1641 SWAP2 PUSH3 0x1626 JUMP JUMPDEST SWAP1 PUSH1 0x2 MUL OR SWAP1 JUMP JUMPDEST SWAP1 PUSH3 0x1653 DUP2 MLOAD SWAP1 JUMP JUMPDEST SWAP1 PUSH1 0x1 PUSH1 0x1 PUSH1 0x40 SHL SUB DUP3 GT PUSH3 0x518 JUMPI PUSH3 0x167B DUP3 PUSH3 0x1674 DUP6 SLOAD PUSH3 0x670 JUMP JUMPDEST DUP6 PUSH3 0x15D3 JUMP JUMPDEST PUSH1 0x20 SWAP1 PUSH1 0x1F DUP4 GT PUSH1 0x1 EQ PUSH3 0x16AE JUMPI PUSH3 0xE40 SWAP3 SWAP2 PUSH1 0x0 SWAP2 DUP4 PUSH3 0x16A2 JUMPI JUMPDEST POP POP PUSH3 0x1635 JUMP JUMPDEST ADD MLOAD SWAP1 POP CODESIZE DUP1 PUSH3 0x169A JUMP JUMPDEST PUSH1 0x1F NOT DUP4 AND SWAP2 PUSH3 0x16C4 DUP6 PUSH1 0x0 MSTORE PUSH1 0x20 PUSH1 0x0 KECCAK256 SWAP1 JUMP JUMPDEST SWAP3 PUSH1 0x0 JUMPDEST DUP2 DUP2 LT PUSH3 0x1708 JUMPI POP SWAP2 PUSH1 0x2 SWAP4 SWAP2 DUP6 PUSH1 0x1 SWAP7 SWAP5 LT PUSH3 0x16EB JUMPI JUMPDEST POP POP POP MUL ADD SWAP1 SSTORE JUMP JUMPDEST PUSH3 0x16FD SWAP2 ADD MLOAD PUSH1 0x1F DUP5 AND SWAP1 PUSH3 0x1626 JUMP JUMPDEST SWAP1 SSTORE CODESIZE DUP1 DUP1 PUSH3 0x16E2 JUMP JUMPDEST SWAP2 SWAP4 PUSH1 0x20 PUSH1 0x1 DUP2 SWAP3 DUP8 DUP8 ADD MLOAD DUP2 SSTORE ADD SWAP6 ADD SWAP3 ADD PUSH3 0x16C8 JUMP JUMPDEST SWAP1 PUSH3 0x288 SWAP2 PUSH3 0x1649 JUMP JUMPDEST SWAP2 SWAP1 PUSH3 0x7E4 DUP2 PUSH3 0x1747 DUP2 PUSH3 0x552 SWAP6 PUSH1 0x20 SWAP2 DUP2 MSTORE ADD SWAP1 JUMP JUMPDEST DUP1 SWAP6 PUSH3 0x556 JUMP JUMPDEST SWAP4 SWAP6 PUSH3 0x179E PUSH3 0x1796 PUSH3 0x17AC SWAP6 PUSH1 0xA0 SWAP9 SWAP13 SWAP12 SWAP10 PUSH3 0x1787 PUSH3 0x17A5 SWAP7 PUSH3 0x288 SWAP14 SWAP9 PUSH1 0xC0 DUP13 ADD SWAP2 DUP13 PUSH1 0x0 DUP2 DUP6 SUB SWAP2 ADD MSTORE PUSH3 0x172D JUMP JUMPDEST SWAP2 DUP10 DUP4 SUB PUSH1 0x20 DUP12 ADD MSTORE PUSH3 0x172D JUMP JUMPDEST SWAP11 PUSH1 0x40 DUP8 ADD MSTORE JUMP JUMPDEST PUSH1 0x60 DUP6 ADD MSTORE JUMP JUMPDEST PUSH1 0x80 DUP4 ADD MSTORE JUMP JUMPDEST ADD MSTORE JUMP JUMPDEST POP PUSH3 0x17CD PUSH3 0x17C4 PUSH3 0x264 CALLER PUSH3 0xD08 JUMP JUMPDEST CALLVALUE LT ISZERO PUSH3 0x104B JUMP JUMPDEST PUSH3 0x17FD PUSH3 0x17DF PUSH1 0x40 DUP4 ADD PUSH3 0x1096 JUMP JUMPDEST PUSH3 0x17F5 PUSH3 0xD8D PUSH3 0x264 PUSH1 0x60 DUP7 ADD PUSH3 0x1096 JUMP JUMPDEST GT ISZERO PUSH3 0x10A2 JUMP JUMPDEST PUSH3 0x1826 PUSH3 0x180F PUSH1 0xE0 DUP4 ADD PUSH3 0x1096 JUMP JUMPDEST PUSH3 0x181F PUSH3 0xD8D PUSH1 0x0 PUSH3 0xCF8 JUMP JUMPDEST GT PUSH3 0x10E6 JUMP JUMPDEST PUSH3 0x1841 PUSH3 0x1839 PUSH2 0x160 DUP4 ADD PUSH3 0x1096 JUMP JUMPDEST TIMESTAMP LT PUSH3 0x112A JUMP JUMPDEST PUSH3 0x1872 PUSH3 0x1854 PUSH2 0x180 DUP4 ADD PUSH3 0x1096 JUMP JUMPDEST PUSH3 0x186B PUSH3 0xD8D PUSH3 0x264 PUSH2 0x160 DUP7 ADD PUSH3 0x1096 JUMP JUMPDEST GT PUSH3 0x1173 JUMP JUMPDEST PUSH3 0x191F PUSH3 0x1885 PUSH2 0x1C0 DUP4 ADD PUSH3 0x1096 JUMP JUMPDEST PUSH3 0x18A4 PUSH2 0x2710 SWAP2 PUSH3 0x189C PUSH3 0xD8D DUP5 PUSH3 0xCF8 JUMP JUMPDEST GT ISZERO PUSH3 0x11BF JUMP JUMPDEST PUSH3 0x18E8 PUSH3 0x18D1 PUSH3 0x18BB PUSH2 0x1A0 DUP7 ADD PUSH3 0x1096 JUMP JUMPDEST PUSH3 0x18CA PUSH2 0x1C0 DUP8 ADD PUSH3 0x1096 JUMP JUMPDEST SWAP1 PUSH3 0x1218 JUMP JUMPDEST PUSH3 0x18E0 PUSH3 0xD8D DUP5 PUSH3 0xCF8 JUMP JUMPDEST GT ISZERO PUSH3 0x122C JUMP JUMPDEST PUSH3 0x1918 PUSH3 0x1911 PUSH3 0x18FE PUSH1 0x40 DUP7 ADD PUSH3 0x1096 JUMP JUMPDEST PUSH3 0x190A PUSH1 0xFD PUSH3 0xCEC JUMP JUMPDEST SWAP1 PUSH3 0x1270 JUMP JUMPDEST SWAP2 PUSH3 0xCF8 JUMP JUMPDEST SWAP1 PUSH3 0x129A JUMP JUMPDEST PUSH2 0x120 MSTORE PUSH3 0x1940 PUSH3 0x1935 PUSH1 0x40 DUP4 ADD PUSH3 0x1096 JUMP JUMPDEST PUSH2 0x120 MLOAD SWAP1 PUSH3 0x12AB JUMP JUMPDEST PUSH3 0x194C DUP3 DUP1 PUSH3 0x12B9 JUMP JUMPDEST SWAP1 PUSH2 0x100 MSTORE PUSH3 0x1960 PUSH1 0x20 DUP5 ADD DUP5 PUSH3 0x12B9 JUMP JUMPDEST PUSH2 0x160 MSTORE PUSH2 0x1A0 MSTORE PUSH3 0x1976 PUSH1 0x60 DUP5 ADD PUSH3 0x1096 JUMP JUMPDEST SWAP1 PUSH3 0x1985 PUSH1 0x80 DUP6 ADD PUSH3 0x12F0 JUMP JUMPDEST SWAP3 PUSH3 0x1992 PUSH1 0x0 PUSH3 0xDBF JUMP JUMPDEST SWAP4 PUSH3 0x19A2 PUSH3 0xF8E DUP7 PUSH3 0x258 JUMP JUMPDEST SUB PUSH3 0x1E72 JUMPI DUP5 CALLER JUMPDEST PUSH3 0x19B9 PUSH1 0xA0 DUP4 ADD PUSH3 0x12FC JUMP JUMPDEST SWAP3 PUSH3 0x19C8 PUSH1 0xC0 DUP5 ADD PUSH3 0x12FC JUMP JUMPDEST SWAP6 PUSH3 0x19D7 PUSH1 0xE0 DUP6 ADD PUSH3 0x1096 JUMP JUMPDEST SWAP6 PUSH3 0x19E7 PUSH2 0x100 DUP7 ADD PUSH3 0x1096 JUMP JUMPDEST SWAP3 PUSH3 0x19F7 PUSH2 0x120 DUP8 ADD PUSH3 0x1096 JUMP JUMPDEST PUSH3 0x1A06 PUSH2 0x140 DUP9 ADD PUSH3 0x1096 JUMP JUMPDEST SWAP3 PUSH3 0x1A16 PUSH2 0x160 DUP10 ADD PUSH3 0x1096 JUMP JUMPDEST SWAP6 PUSH3 0x1A35 PUSH2 0x1C0 PUSH3 0x1A2D PUSH2 0x180 DUP13 ADD PUSH3 0x1096 JUMP JUMPDEST SWAP11 ADD PUSH3 0x1096 JUMP JUMPDEST PUSH3 0x1A45 PUSH3 0xD8D PUSH1 0x0 PUSH3 0xCF8 JUMP JUMPDEST SUB PUSH3 0x1E19 JUMPI DUP14 PUSH3 0x1A59 PUSH2 0x102 PUSH3 0xCEC JUMP JUMPDEST SWAP12 PUSH3 0x1B89 PUSH3 0x1BCE SWAP15 PUSH3 0x1B7C PUSH3 0x1BC4 SWAP15 PUSH3 0x1B70 PUSH3 0x1BBA SWAP15 PUSH3 0x1B64 PUSH3 0x1BB0 SWAP15 PUSH3 0x1B5B PUSH3 0x1BA6 SWAP15 PUSH3 0x1B33 PUSH3 0x1B2D PUSH3 0x1B9C SWAP16 PUSH2 0x1E0 PUSH3 0x1B92 SWAP16 JUMPDEST ADD PUSH3 0x1AA9 DUP2 PUSH3 0x1096 JUMP JUMPDEST PUSH3 0x1AB9 PUSH3 0xD8D PUSH1 0x0 PUSH3 0xCF8 JUMP JUMPDEST PUSH1 0x0 PUSH1 0x80 MSTORE SUB PUSH3 0x1E05 JUMPI POP PUSH3 0x1AD2 PUSH2 0x103 PUSH3 0xCEC JUMP JUMPDEST PUSH1 0x80 MSTORE JUMPDEST PUSH3 0x1AE2 PUSH1 0xFE PUSH3 0x1313 JUMP JUMPDEST PUSH1 0xC0 MSTORE PUSH3 0x1AF2 PUSH2 0x101 PUSH3 0x132A JUMP JUMPDEST PUSH2 0x180 MSTORE PUSH3 0x1B02 PUSH1 0xFF PUSH3 0xCEC JUMP JUMPDEST PUSH2 0x140 MSTORE PUSH3 0x1B13 PUSH2 0x100 PUSH3 0xCEC JUMP JUMPDEST PUSH1 0xE0 MSTORE PUSH3 0x1B20 PUSH3 0x1336 JUMP JUMPDEST PUSH1 0xA0 MSTORE PUSH2 0x100 MLOAD PUSH3 0x1343 JUMP JUMPDEST PUSH1 0xA0 MLOAD MSTORE JUMP JUMPDEST PUSH3 0x1B52 PUSH3 0x1B49 PUSH2 0x160 MLOAD PUSH2 0x1A0 MLOAD PUSH3 0x1343 JUMP JUMPDEST PUSH1 0x20 PUSH1 0xA0 MLOAD ADD MSTORE JUMP JUMPDEST PUSH1 0x40 PUSH1 0xA0 MLOAD ADD MSTORE JUMP JUMPDEST PUSH1 0x60 PUSH1 0xA0 MLOAD ADD MSTORE JUMP JUMPDEST PUSH1 0x80 PUSH1 0xA0 MLOAD ADD PUSH3 0x1350 JUMP JUMPDEST PUSH1 0xA0 DUP1 MLOAD ADD SWAP1 ISZERO ISZERO SWAP1 MSTORE JUMP JUMPDEST PUSH1 0xC0 PUSH1 0xA0 MLOAD ADD SWAP1 ISZERO ISZERO SWAP1 MSTORE JUMP JUMPDEST PUSH1 0xE0 PUSH1 0xA0 MLOAD ADD MSTORE JUMP JUMPDEST PUSH2 0x100 PUSH1 0xA0 MLOAD ADD MSTORE JUMP JUMPDEST PUSH2 0x120 PUSH1 0xA0 MLOAD ADD MSTORE JUMP JUMPDEST PUSH2 0x140 PUSH1 0xA0 MLOAD ADD MSTORE JUMP JUMPDEST PUSH2 0x160 PUSH1 0xA0 MLOAD ADD MSTORE JUMP JUMPDEST PUSH2 0x180 PUSH1 0xA0 MLOAD ADD MSTORE JUMP JUMPDEST PUSH2 0x1A0 PUSH1 0xA0 MLOAD ADD MSTORE JUMP JUMPDEST PUSH3 0x1BDF PUSH1 0x80 MLOAD PUSH2 0x1C0 PUSH1 0xA0 MLOAD ADD MSTORE JUMP JUMPDEST PUSH3 0x1BF3 PUSH1 0xC0 MLOAD PUSH2 0x1E0 PUSH1 0xA0 MLOAD ADD PUSH3 0x1350 JUMP JUMPDEST PUSH3 0x1C05 PUSH2 0x120 MLOAD PUSH2 0x200 PUSH1 0xA0 MLOAD ADD MSTORE JUMP JUMPDEST PUSH3 0x1C1B PUSH2 0x180 MLOAD PUSH2 0x220 PUSH1 0xA0 MLOAD ADD SWAP1 ISZERO ISZERO SWAP1 MSTORE JUMP JUMPDEST PUSH3 0x1C2D PUSH2 0x140 MLOAD PUSH2 0x240 PUSH1 0xA0 MLOAD ADD MSTORE JUMP JUMPDEST PUSH3 0x1C3E PUSH1 0xE0 MLOAD PUSH2 0x260 PUSH1 0xA0 MLOAD ADD MSTORE JUMP JUMPDEST PUSH1 0x40 MLOAD PUSH3 0x1C75 DUP2 PUSH3 0x1C65 PUSH1 0x4 PUSH1 0x20 DUP4 ADD PUSH4 0xF1E0699D PUSH1 0xE0 SHL DUP2 MSTORE ADD PUSH1 0xA0 MLOAD SWAP1 PUSH3 0x14C2 JUMP JUMPDEST PUSH1 0x20 DUP3 ADD DUP2 SUB DUP3 MSTORE SUB DUP3 PUSH3 0x4F6 JUMP JUMPDEST PUSH3 0x1CA0 PUSH32 0x0 PUSH3 0x3D5 JUMP JUMPDEST PUSH1 0x40 MLOAD SWAP2 PUSH2 0x5E9 DUP4 ADD SWAP1 PUSH1 0x1 PUSH1 0x1 PUSH1 0x40 SHL SUB DUP3 GT DUP5 DUP4 LT OR PUSH3 0x518 JUMPI DUP4 SWAP3 PUSH3 0x1CD3 SWAP3 PUSH2 0x5E9 PUSH3 0x2F7F DUP7 CODECOPY PUSH3 0x14D5 JUMP JUMPDEST SUB SWAP1 PUSH1 0x0 CREATE DUP1 ISZERO PUSH3 0x1DFF JUMPI PUSH3 0x1CEA SWAP1 PUSH3 0x3D5 JUMP JUMPDEST SWAP2 PUSH3 0x1CF9 DUP4 PUSH2 0x104 PUSH3 0x1541 JUMP JUMPDEST PUSH3 0x1D1B PUSH3 0x1D07 PUSH3 0xC84 JUMP JUMPDEST PUSH3 0x1D15 DUP6 PUSH2 0x105 PUSH3 0x62A JUMP JUMPDEST PUSH3 0x1721 JUMP JUMPDEST PUSH32 0xE8EFCE311593E7A13E7F21C806BF0105A4437C35BF6A1940106E62C5A6F5BE84 PUSH3 0x1D48 DUP3 DUP1 PUSH3 0x12B9 JUMP JUMPDEST SWAP1 PUSH3 0x1DE4 PUSH3 0x1D5C PUSH1 0x20 DUP7 ADD DUP7 PUSH3 0x12B9 JUMP JUMPDEST SWAP1 SWAP7 PUSH3 0x1D74 PUSH3 0xF8E PUSH3 0xFAF PUSH1 0x80 DUP11 ADD PUSH3 0x12F0 JUMP JUMPDEST SUB PUSH3 0x1DEA JUMPI CALLER SWAP6 JUMPDEST PUSH3 0x1D8C PUSH2 0x160 DUP3 ADD PUSH3 0x1096 JUMP JUMPDEST PUSH3 0x1D9B PUSH2 0x180 DUP4 ADD PUSH3 0x1096 JUMP JUMPDEST SWAP1 PUSH3 0x1DB8 PUSH1 0x60 PUSH3 0x1DB0 PUSH1 0x40 DUP7 ADD PUSH3 0x1096 JUMP JUMPDEST SWAP5 ADD PUSH3 0x1096 JUMP JUMPDEST SWAP4 PUSH3 0x1DCF PUSH3 0x1DC8 DUP14 PUSH3 0x3D5 JUMP JUMPDEST SWAP11 PUSH3 0x3D5 JUMP JUMPDEST SWAP11 PUSH3 0x1DDA PUSH1 0x40 MLOAD SWAP1 JUMP JUMPDEST SWAP9 DUP10 SWAP9 DUP10 PUSH3 0x174F JUMP JUMPDEST SUB SWAP1 LOG3 SWAP1 JUMP JUMPDEST PUSH3 0x1DF8 PUSH1 0x80 DUP8 ADD PUSH3 0x12F0 JUMP JUMPDEST SWAP6 PUSH3 0x1D7D JUMP JUMPDEST PUSH3 0x14FD JUMP JUMPDEST PUSH3 0x1E10 SWAP1 PUSH3 0x1096 JUMP JUMPDEST PUSH1 0x80 MSTORE PUSH3 0x1AD6 JUMP JUMPDEST DUP14 PUSH3 0x1E29 PUSH2 0x1C0 DUP3 ADD PUSH3 0x1096 JUMP JUMPDEST SWAP12 PUSH3 0x1B89 PUSH3 0x1BCE SWAP15 PUSH3 0x1B7C PUSH3 0x1BC4 SWAP15 PUSH3 0x1B70 PUSH3 0x1BBA SWAP15 PUSH3 0x1B64 PUSH3 0x1BB0 SWAP15 PUSH3 0x1B5B PUSH3 0x1BA6 SWAP15 PUSH3 0x1B33 PUSH3 0x1B2D PUSH3 0x1B9C SWAP16 PUSH2 0x1E0 PUSH3 0x1B92 SWAP16 PUSH3 0x1A9D JUMP JUMPDEST DUP5 PUSH3 0x1E81 PUSH1 0x80 DUP3 ADD PUSH3 0x12F0 JUMP JUMPDEST PUSH3 0x19AB JUMP JUMPDEST PUSH3 0x264 SWAP1 PUSH1 0x0 PUSH3 0x102A JUMP JUMPDEST SWAP1 PUSH3 0x288 SWAP2 PUSH3 0x1EA9 PUSH3 0xF59 ADDRESS PUSH3 0x3D5 JUMP JUMPDEST PUSH3 0x288 SWAP2 PUSH1 0x1 SWAP2 PUSH3 0x1EBC DUP2 PUSH3 0x28BE JUMP JUMPDEST PUSH3 0x2979 JUMP JUMPDEST SWAP1 PUSH3 0x288 SWAP2 PUSH3 0x1E94 JUMP JUMPDEST ISZERO PUSH3 0x1ED6 JUMPI JUMP JUMPDEST PUSH1 0x40 MLOAD PUSH3 0x461BCD PUSH1 0xE5 SHL DUP2 MSTORE PUSH1 0x20 PUSH1 0x4 DUP3 ADD MSTORE PUSH1 0x38 PUSH1 0x24 DUP3 ADD MSTORE PUSH32 0x555550535570677261646561626C653A206D757374206E6F742062652063616C PUSH1 0x44 DUP3 ADD MSTORE PUSH24 0x1B1959081D1A1C9BDD59DA0819195B1959D85D1958D85B1B PUSH1 0x42 SHL PUSH1 0x64 DUP3 ADD MSTORE PUSH1 0x84 SWAP1 REVERT JUMPDEST PUSH3 0x264 SWAP1 PUSH3 0x1F86 PUSH3 0x1F50 ADDRESS PUSH3 0x3D5 JUMP JUMPDEST PUSH3 0x1F7F PUSH3 0xF8E PUSH32 0x0 PUSH3 0x258 JUMP JUMPDEST EQ PUSH3 0x1ECE JUMP JUMPDEST PUSH3 0x1FB7 JUMP JUMPDEST PUSH3 0x264 PUSH32 0x360894A13BA1A3210667C828492DB98DCA3E2076CC3735A920A3CA505D382BBC PUSH3 0xCF8 JUMP JUMPDEST POP PUSH3 0x264 PUSH3 0x1F8C JUMP JUMPDEST PUSH3 0x264 PUSH1 0x0 PUSH3 0x1F3C JUMP JUMPDEST PUSH3 0x1FD8 PUSH3 0x2874 JUMP JUMPDEST PUSH3 0x288 PUSH3 0x288 PUSH3 0x1FEC PUSH1 0x0 PUSH3 0xDBF JUMP JUMPDEST PUSH3 0x2B48 JUMP JUMPDEST PUSH3 0x288 PUSH3 0x1FCE JUMP JUMPDEST PUSH3 0x288 SWAP1 PUSH3 0x200B PUSH3 0x2874 JUMP JUMPDEST PUSH3 0x207E JUMP JUMPDEST ISZERO PUSH3 0x2019 JUMPI JUMP JUMPDEST PUSH1 0x40 MLOAD PUSH3 0x461BCD PUSH1 0xE5 SHL DUP2 MSTORE PUSH1 0x20 PUSH1 0x4 DUP3 ADD MSTORE PUSH1 0x16 PUSH1 0x24 DUP3 ADD MSTORE PUSH22 0x4665652063616E6E6F74206578636565642031303025 PUSH1 0x50 SHL PUSH1 0x44 DUP3 ADD MSTORE PUSH1 0x64 SWAP1 REVERT JUMPDEST SWAP1 PUSH1 0x0 NOT SWAP1 PUSH3 0xE1A JUMP JUMPDEST SWAP1 PUSH3 0x2076 PUSH3 0x264 PUSH3 0xE40 SWAP3 PUSH3 0xCF8 JUMP JUMPDEST DUP3 SLOAD PUSH3 0x2057 JUMP JUMPDEST PUSH3 0xE93 PUSH1 0x0 DUP1 MLOAD PUSH1 0x20 PUSH3 0x35A8 DUP4 CODECOPY DUP2 MLOAD SWAP2 MSTORE SWAP2 PUSH3 0x20AD PUSH3 0x20A4 PUSH2 0x2710 PUSH3 0xCF8 JUMP JUMPDEST DUP3 GT ISZERO PUSH3 0x2011 JUMP JUMPDEST PUSH3 0x305 DUP2 PUSH1 0xFD PUSH3 0x2062 JUMP JUMPDEST PUSH3 0x288 SWAP1 PUSH3 0x1FFC JUMP JUMPDEST PUSH3 0x264 PUSH1 0x33 PUSH3 0x1313 JUMP JUMPDEST SWAP1 PUSH3 0x288 SWAP2 PUSH3 0x20E1 PUSH3 0x2874 JUMP JUMPDEST PUSH3 0x213D JUMP JUMPDEST ISZERO PUSH3 0x20EF JUMPI JUMP JUMPDEST PUSH1 0x40 MLOAD PUSH3 0x461BCD PUSH1 0xE5 SHL DUP2 MSTORE PUSH1 0x20 PUSH1 0x4 DUP3 ADD MSTORE PUSH1 0x12 PUSH1 0x24 DUP3 ADD MSTORE PUSH18 0x496E76616C69642070657263656E74616765 PUSH1 0x70 SHL PUSH1 0x44 DUP3 ADD MSTORE PUSH1 0x64 SWAP1 REVERT JUMPDEST SWAP1 DUP2 MSTORE PUSH1 0x40 DUP2 ADD SWAP3 SWAP2 PUSH3 0x288 SWAP2 PUSH1 0x20 ADD MSTORE JUMP JUMPDEST SWAP1 PUSH1 0x0 DUP1 MLOAD PUSH1 0x20 PUSH3 0x3568 DUP4 CODECOPY DUP2 MLOAD SWAP2 MSTORE SWAP2 PUSH3 0x2169 PUSH3 0x2160 PUSH2 0x2710 PUSH3 0xCF8 JUMP JUMPDEST DUP3 GT ISZERO PUSH3 0x20E7 JUMP JUMPDEST PUSH3 0x2177 DUP2 PUSH2 0x102 PUSH3 0x2062 JUMP JUMPDEST PUSH3 0x2185 DUP3 PUSH2 0x103 PUSH3 0x2062 JUMP JUMPDEST PUSH3 0xE93 PUSH3 0x2193 PUSH1 0x40 MLOAD SWAP1 JUMP JUMPDEST SWAP3 DUP4 SWAP3 DUP4 PUSH3 0x2129 JUMP JUMPDEST SWAP1 PUSH3 0x288 SWAP2 PUSH3 0x20D1 JUMP JUMPDEST PUSH3 0x264 SWAP1 PUSH3 0x736 JUMP JUMPDEST PUSH3 0x21D0 PUSH3 0x264 SWAP2 PUSH3 0x21C6 PUSH1 0x60 SWAP1 JUMP JUMPDEST POP PUSH2 0x105 PUSH3 0x62A JUMP JUMPDEST PUSH3 0x21A9 JUMP JUMPDEST SWAP1 PUSH3 0x288 SWAP2 PUSH3 0x21E6 PUSH3 0x2874 JUMP JUMPDEST PUSH3 0x2239 PUSH3 0x222E PUSH32 0x35250FF587E06567C2FA9D4B3191805958A937530B0E88CFCE4C9C4DCDEF1B3 SWAP3 PUSH3 0x2228 DUP6 PUSH3 0x2222 DUP4 PUSH1 0xFC PUSH3 0x62A JUMP JUMPDEST PUSH3 0x2062 JUMP JUMPDEST PUSH3 0x3D5 JUMP JUMPDEST SWAP3 PUSH3 0x309 PUSH1 0x40 MLOAD SWAP1 JUMP JUMPDEST SUB SWAP1 LOG2 JUMP JUMPDEST SWAP1 PUSH3 0x288 SWAP2 PUSH3 0x21D6 JUMP JUMPDEST PUSH3 0x288 SWAP1 PUSH3 0x2259 PUSH3 0x2874 JUMP JUMPDEST PUSH3 0xE93 PUSH1 0x0 DUP1 MLOAD PUSH1 0x20 PUSH3 0x35C8 DUP4 CODECOPY DUP2 MLOAD SWAP2 MSTORE SWAP2 PUSH3 0x305 DUP2 PUSH1 0xFB PUSH3 0x2062 JUMP JUMPDEST PUSH3 0x288 SWAP1 PUSH3 0x224A JUMP JUMPDEST SWAP1 PUSH3 0x288 SWAP3 SWAP2 PUSH3 0x2297 PUSH3 0x2874 JUMP JUMPDEST PUSH3 0x2332 JUMP JUMPDEST ISZERO PUSH3 0x22A5 JUMPI JUMP JUMPDEST PUSH1 0x40 MLOAD PUSH3 0x461BCD PUSH1 0xE5 SHL DUP2 MSTORE PUSH1 0x20 PUSH1 0x4 DUP3 ADD MSTORE PUSH1 0x19 PUSH1 0x24 DUP3 ADD MSTORE PUSH25 0x436C696666206C6F6E676572207468616E2076657374696E67 PUSH1 0x38 SHL PUSH1 0x44 DUP3 ADD MSTORE PUSH1 0x64 SWAP1 REVERT JUMPDEST SWAP1 PUSH1 0xFF SWAP1 PUSH3 0xE1A JUMP JUMPDEST SWAP1 PUSH3 0x2303 PUSH3 0x264 PUSH3 0xE40 SWAP3 ISZERO ISZERO SWAP1 JUMP JUMPDEST DUP3 SLOAD PUSH3 0x22E6 JUMP JUMPDEST SWAP1 DUP2 MSTORE PUSH1 0x60 DUP2 ADD SWAP4 SWAP3 PUSH3 0x288 SWAP3 SWAP1 SWAP2 PUSH1 0x40 SWAP2 PUSH3 0x232A SWAP1 PUSH1 0x20 DUP4 ADD MSTORE JUMP JUMPDEST ADD SWAP1 ISZERO ISZERO SWAP1 MSTORE JUMP JUMPDEST PUSH3 0xE93 PUSH1 0x0 DUP1 MLOAD PUSH1 0x20 PUSH3 0x3608 DUP4 CODECOPY DUP2 MLOAD SWAP2 MSTORE SWAP4 PUSH3 0x235C PUSH3 0x2353 DUP5 SWAP1 JUMP JUMPDEST DUP6 GT ISZERO PUSH3 0x229D JUMP JUMPDEST PUSH3 0x2369 DUP4 PUSH1 0xFF PUSH3 0x2062 JUMP JUMPDEST PUSH3 0x2377 DUP5 PUSH2 0x100 PUSH3 0x2062 JUMP JUMPDEST PUSH3 0x2385 DUP2 PUSH2 0x101 PUSH3 0x22F0 JUMP JUMPDEST PUSH1 0x40 MLOAD SWAP4 DUP5 SWAP4 DUP5 PUSH3 0x230B JUMP JUMPDEST SWAP1 PUSH3 0x288 SWAP3 SWAP2 PUSH3 0x2286 JUMP JUMPDEST PUSH3 0x288 SWAP1 PUSH3 0x23AE PUSH3 0x2874 JUMP JUMPDEST PUSH3 0x2410 JUMP JUMPDEST ISZERO PUSH3 0x23BC JUMPI JUMP JUMPDEST PUSH1 0x40 MLOAD PUSH3 0x461BCD PUSH1 0xE5 SHL DUP2 MSTORE PUSH1 0x20 PUSH1 0x4 DUP3 ADD MSTORE PUSH1 0x26 PUSH1 0x24 DUP3 ADD MSTORE PUSH32 0x4F776E61626C653A206E6577206F776E657220697320746865207A65726F2061 PUSH1 0x44 DUP3 ADD MSTORE PUSH6 0x646472657373 PUSH1 0xD0 SHL PUSH1 0x64 DUP3 ADD MSTORE PUSH1 0x84 SWAP1 REVERT JUMPDEST PUSH3 0x288 SWAP1 PUSH3 0x1FEC PUSH3 0x2429 PUSH3 0xE6D PUSH1 0x0 PUSH3 0xDBF JUMP JUMPDEST PUSH3 0x2434 DUP4 PUSH3 0x258 JUMP JUMPDEST EQ ISZERO PUSH3 0x23B4 JUMP JUMPDEST PUSH3 0x288 SWAP1 PUSH3 0x239F JUMP JUMPDEST PUSH3 0x264 SWAP1 PUSH1 0x8 SHR PUSH3 0xBD6 JUMP JUMPDEST PUSH3 0x264 SWAP1 SLOAD PUSH3 0x2447 JUMP JUMPDEST PUSH3 0xBD6 PUSH3 0x264 PUSH3 0x264 SWAP3 SWAP1 JUMP JUMPDEST ISZERO PUSH3 0x2479 JUMPI JUMP JUMPDEST PUSH1 0x40 MLOAD PUSH3 0x461BCD PUSH1 0xE5 SHL DUP2 MSTORE PUSH1 0x20 PUSH1 0x4 DUP3 ADD MSTORE PUSH1 0x2E PUSH1 0x24 DUP3 ADD MSTORE PUSH32 0x496E697469616C697A61626C653A20636F6E747261637420697320616C726561 PUSH1 0x44 DUP3 ADD MSTORE PUSH14 0x191E481A5B9A5D1A585B1A5E9959 PUSH1 0x92 SHL PUSH1 0x64 DUP3 ADD MSTORE PUSH1 0x84 SWAP1 REVERT JUMPDEST PUSH3 0xBD6 PUSH3 0x264 PUSH3 0x264 SWAP3 PUSH1 0xFF AND SWAP1 JUMP JUMPDEST SWAP1 PUSH3 0x2303 PUSH3 0x264 PUSH3 0xE40 SWAP3 PUSH3 0x24D5 JUMP JUMPDEST SWAP1 PUSH2 0xFF00 SWAP1 PUSH1 0x8 SHL PUSH3 0xE1A JUMP JUMPDEST SWAP1 PUSH3 0x251D PUSH3 0x264 PUSH3 0xE40 SWAP3 ISZERO ISZERO SWAP1 JUMP JUMPDEST DUP3 SLOAD PUSH3 0x24FC JUMP JUMPDEST PUSH3 0x272 SWAP1 PUSH3 0x2461 JUMP JUMPDEST PUSH1 0x20 DUP2 ADD SWAP3 SWAP2 PUSH3 0x288 SWAP2 SWAP1 PUSH3 0x2525 JUMP JUMPDEST PUSH3 0x259A PUSH3 0x255A PUSH3 0x2556 PUSH1 0x0 PUSH3 0x2455 JUMP JUMPDEST ISZERO SWAP1 JUMP JUMPDEST SWAP2 DUP3 DUP1 PUSH3 0x264D JUMPI JUMPDEST DUP1 ISZERO PUSH3 0x25FB JUMPI JUMPDEST PUSH3 0x2576 SWAP1 PUSH3 0x2471 JUMP JUMPDEST DUP3 PUSH3 0x258F PUSH3 0x2587 PUSH1 0x1 PUSH3 0x2461 JUMP JUMPDEST PUSH1 0x0 PUSH3 0x24E8 JUMP JUMPDEST PUSH3 0x25E7 JUMPI PUSH3 0x2671 JUMP JUMPDEST PUSH3 0x25A1 JUMPI JUMP JUMPDEST PUSH3 0x25AE PUSH1 0x0 DUP1 PUSH3 0x250A JUMP JUMPDEST PUSH32 0x7F26B83FF96E1F2B6A682F133852F6798A09C465DA95921460CEFB3847402498 PUSH3 0x25D9 PUSH1 0x40 MLOAD SWAP1 JUMP JUMPDEST DUP1 PUSH3 0xE93 PUSH1 0x1 DUP3 PUSH3 0x2530 JUMP JUMPDEST PUSH3 0x25F5 PUSH1 0x1 PUSH1 0x0 PUSH3 0x250A JUMP JUMPDEST PUSH3 0x2671 JUMP JUMPDEST POP PUSH3 0x2615 PUSH3 0x2556 PUSH3 0x260F ADDRESS PUSH3 0x3D5 JUMP JUMPDEST PUSH3 0x2BA2 JUMP JUMPDEST DUP1 ISZERO PUSH3 0x256B JUMPI POP PUSH3 0x2576 PUSH3 0x262D PUSH1 0x0 PUSH3 0x132A JUMP JUMPDEST PUSH3 0x2644 PUSH3 0x263D PUSH1 0x1 PUSH3 0x2461 JUMP JUMPDEST SWAP2 PUSH1 0xFF AND SWAP1 JUMP JUMPDEST EQ SWAP1 POP PUSH3 0x256B JUMP JUMPDEST POP PUSH3 0x265A PUSH1 0x0 PUSH3 0x132A JUMP JUMPDEST PUSH3 0x266A PUSH3 0x263D PUSH1 0x1 PUSH3 0x2461 JUMP JUMPDEST LT PUSH3 0x2563 JUMP JUMPDEST PUSH3 0x2757 PUSH1 0x0 DUP1 MLOAD PUSH1 0x20 PUSH3 0x35C8 DUP4 CODECOPY DUP2 MLOAD SWAP2 MSTORE SWAP2 PUSH3 0x2690 PUSH3 0x2C3C JUMP JUMPDEST PUSH3 0x269A PUSH3 0x2C56 JUMP JUMPDEST PUSH3 0x26A4 PUSH3 0x2C7E JUMP JUMPDEST PUSH3 0x26B1 DUP2 PUSH1 0xFB PUSH3 0x2062 JUMP JUMPDEST PUSH3 0x26CA PUSH3 0x26C2 PUSH2 0x1F4 PUSH3 0xCF8 JUMP JUMPDEST PUSH1 0xFD PUSH3 0x2062 JUMP JUMPDEST PUSH3 0x26E0 PUSH3 0x26D8 PUSH3 0x20C5 JUMP JUMPDEST PUSH1 0xFE PUSH3 0xE24 JUMP JUMPDEST PUSH3 0x26FA PUSH3 0x26F2 PUSH3 0xED4E00 PUSH3 0xCF8 JUMP JUMPDEST PUSH1 0xFF PUSH3 0x2062 JUMP JUMPDEST PUSH3 0x2715 PUSH3 0x270C PUSH3 0x278D00 PUSH3 0xCF8 JUMP JUMPDEST PUSH2 0x100 PUSH3 0x2062 JUMP JUMPDEST PUSH3 0x2724 PUSH1 0x1 PUSH2 0x101 PUSH3 0x22F0 JUMP JUMPDEST PUSH3 0x273E PUSH3 0x2735 PUSH2 0xBB8 PUSH3 0xCF8 JUMP JUMPDEST PUSH2 0x102 PUSH3 0x2062 JUMP JUMPDEST PUSH3 0x305 PUSH3 0x274E PUSH1 0xB4 PUSH3 0xCF8 JUMP JUMPDEST PUSH2 0x103 PUSH3 0x2062 JUMP JUMPDEST SUB SWAP1 LOG1 PUSH1 0x0 DUP1 MLOAD PUSH1 0x20 PUSH3 0x35A8 DUP4 CODECOPY DUP2 MLOAD SWAP2 MSTORE PUSH3 0x277A PUSH3 0x305 PUSH1 0xFD PUSH3 0xCEC JUMP JUMPDEST SUB SWAP1 LOG1 PUSH1 0x0 DUP1 MLOAD PUSH1 0x20 PUSH3 0x3588 DUP4 CODECOPY DUP2 MLOAD SWAP2 MSTORE PUSH3 0x279D PUSH3 0x2AB PUSH1 0xFE PUSH3 0x1313 JUMP JUMPDEST SUB SWAP1 LOG1 PUSH1 0x0 DUP1 MLOAD PUSH1 0x20 PUSH3 0x3608 DUP4 CODECOPY DUP2 MLOAD SWAP2 MSTORE PUSH3 0x27BC PUSH1 0xFF PUSH3 0xCEC JUMP JUMPDEST PUSH3 0x27C9 PUSH2 0x100 PUSH3 0xCEC JUMP JUMPDEST SWAP1 PUSH3 0x27DB PUSH3 0x2385 PUSH2 0x101 PUSH3 0x132A JUMP JUMPDEST SUB SWAP1 LOG1 PUSH1 0x0 DUP1 MLOAD PUSH1 0x20 PUSH3 0x3568 DUP4 CODECOPY DUP2 MLOAD SWAP2 MSTORE PUSH3 0x27FB PUSH2 0x102 PUSH3 0xCEC JUMP JUMPDEST PUSH3 0x2808 PUSH2 0x103 PUSH3 0xCEC JUMP JUMPDEST SWAP1 PUSH3 0xE93 PUSH3 0x2193 PUSH1 0x40 MLOAD SWAP1 JUMP JUMPDEST PUSH3 0x288 SWAP1 PUSH3 0x2542 JUMP JUMPDEST ISZERO PUSH3 0x282A JUMPI JUMP JUMPDEST PUSH1 0x40 MLOAD PUSH3 0x461BCD PUSH1 0xE5 SHL DUP2 MSTORE DUP1 PUSH3 0xE0B PUSH1 0x4 DUP3 ADD PUSH1 0x20 DUP1 DUP3 MSTORE DUP2 DUP2 ADD MSTORE PUSH32 0x4F776E61626C653A2063616C6C6572206973206E6F7420746865206F776E6572 PUSH1 0x40 DUP3 ADD MSTORE PUSH1 0x60 ADD SWAP1 JUMP JUMPDEST PUSH3 0x288 PUSH3 0x2882 PUSH3 0x20C5 JUMP JUMPDEST PUSH3 0x2891 PUSH3 0xF8E CALLER PUSH3 0x258 JUMP JUMPDEST EQ PUSH3 0x2822 JUMP JUMPDEST PUSH3 0x264 PUSH1 0x0 PUSH3 0x28AC PUSH3 0x264 PUSH3 0x1F8C JUMP JUMPDEST ADD PUSH3 0x1313 JUMP JUMPDEST POP PUSH3 0x288 PUSH3 0x2874 JUMP JUMPDEST PUSH3 0x288 SWAP1 PUSH3 0x28B3 JUMP JUMPDEST PUSH3 0x264 PUSH32 0x4910FDFA16FED3260ED0E7147F7CC6DA11A60208B5B9406D12A635614FFD9143 PUSH3 0xCF8 JUMP JUMPDEST SWAP1 POP MLOAD SWAP1 PUSH3 0x288 DUP3 PUSH3 0x84C JUMP JUMPDEST SWAP1 PUSH1 0x20 DUP3 DUP3 SUB SLT PUSH3 0x247 JUMPI PUSH3 0x264 SWAP2 PUSH3 0x28F4 JUMP JUMPDEST ISZERO PUSH3 0x2922 JUMPI JUMP JUMPDEST PUSH1 0x40 MLOAD PUSH3 0x461BCD PUSH1 0xE5 SHL DUP2 MSTORE PUSH1 0x20 PUSH1 0x4 DUP3 ADD MSTORE PUSH1 0x29 PUSH1 0x24 DUP3 ADD MSTORE PUSH32 0x45524331393637557067726164653A20756E737570706F727465642070726F78 PUSH1 0x44 DUP3 ADD MSTORE PUSH9 0x1A58589B1955555251 PUSH1 0xBA SHL PUSH1 0x64 DUP3 ADD MSTORE PUSH1 0x84 SWAP1 REVERT JUMPDEST SWAP2 SWAP1 PUSH3 0x2996 PUSH1 0x0 PUSH3 0x298F PUSH3 0x264 PUSH3 0x28C9 JUMP JUMPDEST ADD PUSH3 0x132A JUMP JUMPDEST ISZERO PUSH3 0x29A9 JUMPI POP POP PUSH3 0x288 SWAP1 PUSH3 0x2D34 JUMP JUMPDEST PUSH3 0x29B8 PUSH3 0x2228 DUP5 PUSH3 0x3D5 JUMP JUMPDEST SWAP3 PUSH1 0x20 PUSH3 0x29C5 PUSH1 0x40 MLOAD SWAP1 JUMP JUMPDEST PUSH4 0x52D1902D PUSH1 0xE0 SHL DUP2 MSTORE SWAP5 DUP6 SWAP1 PUSH1 0x4 SWAP1 DUP3 SWAP1 GAS STATICCALL PUSH1 0x0 SWAP5 DUP2 PUSH3 0x2A6D JUMPI JUMPDEST POP PUSH3 0x2A45 JUMPI PUSH1 0x40 MLOAD PUSH3 0x461BCD PUSH1 0xE5 SHL DUP2 MSTORE PUSH1 0x20 PUSH1 0x4 DUP3 ADD MSTORE PUSH1 0x2E PUSH1 0x24 DUP3 ADD MSTORE PUSH32 0x45524331393637557067726164653A206E657720696D706C656D656E74617469 PUSH1 0x44 DUP3 ADD MSTORE PUSH14 0x6F6E206973206E6F742055555053 PUSH1 0x90 SHL PUSH1 0x64 DUP3 ADD MSTORE PUSH1 0x84 SWAP1 REVERT JUMPDEST PUSH3 0x2A67 PUSH3 0x288 SWAP5 PUSH3 0x2A60 PUSH3 0xD8D PUSH3 0x264 PUSH3 0x1F8C JUMP JUMPDEST EQ PUSH3 0x291A JUMP JUMPDEST PUSH3 0x2C88 JUMP JUMPDEST PUSH3 0x2A95 SWAP2 SWAP6 POP PUSH1 0x20 RETURNDATASIZE PUSH1 0x20 GT PUSH3 0x2A9D JUMPI JUMPDEST PUSH3 0x2A8C DUP2 DUP4 PUSH3 0x4F6 JUMP JUMPDEST DUP2 ADD SWAP1 PUSH3 0x2903 JUMP JUMPDEST SWAP4 CODESIZE PUSH3 0x29E3 JUMP JUMPDEST POP RETURNDATASIZE PUSH3 0x2A80 JUMP JUMPDEST PUSH3 0x264 PUSH1 0x2 PUSH3 0xCF8 JUMP JUMPDEST ISZERO PUSH3 0x2AB9 JUMPI JUMP JUMPDEST PUSH1 0x40 MLOAD PUSH3 0x461BCD PUSH1 0xE5 SHL DUP2 MSTORE PUSH1 0x20 PUSH1 0x4 DUP3 ADD MSTORE PUSH1 0x1F PUSH1 0x24 DUP3 ADD MSTORE PUSH32 0x5265656E7472616E637947756172643A207265656E7472616E742063616C6C00 PUSH1 0x44 DUP3 ADD MSTORE PUSH1 0x64 SWAP1 REVERT JUMPDEST PUSH3 0x288 PUSH3 0x2B0E PUSH1 0xC9 PUSH3 0xCEC JUMP JUMPDEST PUSH3 0x2B26 PUSH3 0x2B1C PUSH3 0x2AA5 JUMP JUMPDEST SWAP2 DUP3 EQ ISZERO PUSH3 0x2AB1 JUMP JUMPDEST PUSH1 0xC9 PUSH3 0x2062 JUMP JUMPDEST PUSH3 0x264 PUSH1 0x1 PUSH3 0xCF8 JUMP JUMPDEST PUSH3 0x288 PUSH3 0x2B26 PUSH3 0x2B2E JUMP JUMPDEST PUSH3 0x2B70 PUSH3 0x2B69 PUSH3 0x2B5C PUSH1 0x33 PUSH3 0x1313 JUMP JUMPDEST PUSH3 0x2228 DUP5 PUSH1 0x33 PUSH3 0xE24 JUMP JUMPDEST SWAP2 PUSH3 0x3D5 JUMP JUMPDEST SWAP1 PUSH32 0x8BE0079C531659141344CD1FD0A4F28419497F9722A3DAAFE3B4186F6B6457E0 PUSH3 0x2B9C PUSH1 0x40 MLOAD SWAP1 JUMP JUMPDEST PUSH1 0x0 SWAP1 LOG3 JUMP JUMPDEST EXTCODESIZE PUSH3 0x2BB3 PUSH3 0xD8D PUSH1 0x0 PUSH3 0xCF8 JUMP JUMPDEST GT SWAP1 JUMP JUMPDEST ISZERO PUSH3 0x2BBF JUMPI JUMP JUMPDEST PUSH1 0x40 MLOAD PUSH3 0x461BCD PUSH1 0xE5 SHL DUP2 MSTORE PUSH1 0x20 PUSH1 0x4 DUP3 ADD MSTORE PUSH1 0x2B PUSH1 0x24 DUP3 ADD MSTORE PUSH32 0x496E697469616C697A61626C653A20636F6E7472616374206973206E6F742069 PUSH1 0x44 DUP3 ADD MSTORE PUSH11 0x6E697469616C697A696E67 PUSH1 0xA8 SHL PUSH1 0x64 DUP3 ADD MSTORE PUSH1 0x84 SWAP1 REVERT JUMPDEST PUSH3 0x2C2E PUSH3 0x2C28 PUSH1 0x0 PUSH3 0x2455 JUMP JUMPDEST PUSH3 0x2BB7 JUMP JUMPDEST PUSH3 0x288 PUSH3 0x288 PUSH3 0x2D81 JUMP JUMPDEST PUSH3 0x288 PUSH3 0x2C18 JUMP JUMPDEST PUSH3 0x288 PUSH3 0x2C28 PUSH1 0x0 PUSH3 0x2455 JUMP JUMPDEST PUSH3 0x288 PUSH3 0x2C46 JUMP JUMPDEST PUSH3 0x2C70 PUSH3 0x2C28 PUSH1 0x0 PUSH3 0x2455 JUMP JUMPDEST PUSH3 0x288 PUSH3 0x288 PUSH3 0x2DA5 JUMP JUMPDEST PUSH3 0x288 PUSH3 0x2C60 JUMP JUMPDEST SWAP2 PUSH3 0x2C94 DUP4 PUSH3 0x2DAF JUMP JUMPDEST DUP2 MLOAD PUSH3 0x2CA6 PUSH3 0xD8D PUSH1 0x0 PUSH3 0xCF8 JUMP JUMPDEST GT SWAP1 DUP2 ISZERO PUSH3 0x2CC8 JUMPI JUMPDEST POP PUSH3 0x2CBA JUMPI POP POP JUMP JUMPDEST PUSH3 0x2CC5 SWAP2 PUSH3 0x2E41 JUMP JUMPDEST POP JUMP JUMPDEST SWAP1 POP CODESIZE PUSH3 0x2CB0 JUMP JUMPDEST ISZERO PUSH3 0x2CD9 JUMPI JUMP JUMPDEST PUSH1 0x40 MLOAD PUSH3 0x461BCD PUSH1 0xE5 SHL DUP2 MSTORE PUSH1 0x20 PUSH1 0x4 DUP3 ADD MSTORE PUSH1 0x2D PUSH1 0x24 DUP3 ADD MSTORE PUSH32 0x455243313936373A206E657720696D706C656D656E746174696F6E206973206E PUSH1 0x44 DUP3 ADD MSTORE PUSH13 0x1BDD08184818DBDB9D1C9858DD PUSH1 0x9A SHL PUSH1 0x64 DUP3 ADD MSTORE PUSH1 0x84 SWAP1 REVERT JUMPDEST PUSH3 0x288 SWAP1 PUSH3 0x2D4E PUSH3 0x2D48 DUP3 PUSH3 0x2BA2 JUMP JUMPDEST PUSH3 0x2CD1 JUMP JUMPDEST PUSH1 0x0 PUSH3 0x2D5E PUSH3 0x264 PUSH3 0x1F8C JUMP JUMPDEST ADD PUSH3 0xE24 JUMP JUMPDEST PUSH3 0x2D75 PUSH3 0x2C28 PUSH1 0x0 PUSH3 0x2455 JUMP JUMPDEST PUSH3 0x288 DUP1 CALLER PUSH3 0x2B48 JUMP JUMPDEST PUSH3 0x288 PUSH3 0x2D65 JUMP JUMPDEST PUSH3 0x2D9B PUSH3 0x2C28 PUSH1 0x0 PUSH3 0x2455 JUMP JUMPDEST PUSH3 0x288 PUSH3 0x2B3A JUMP JUMPDEST PUSH3 0x288 PUSH3 0x2D8B JUMP JUMPDEST PUSH3 0x2DBF SWAP1 PUSH3 0x2228 DUP2 PUSH3 0x2D34 JUMP JUMPDEST PUSH32 0xBC7CD75A20EE27FD9ADEBAB32041F755214DBC6BFFA90CC0225B39DA2E5C2D3B PUSH3 0x2DEA PUSH1 0x40 MLOAD SWAP1 JUMP JUMPDEST DUP1 DUP1 PUSH3 0x2239 JUMP JUMPDEST PUSH3 0x2DFE PUSH1 0x27 PUSH3 0xC48 JUMP JUMPDEST PUSH32 0x416464726573733A206C6F772D6C6576656C2064656C65676174652063616C6C PUSH1 0x20 DUP3 ADD MSTORE PUSH7 0x819985A5B1959 PUSH1 0xCA SHL PUSH1 0x40 DUP3 ADD MSTORE SWAP1 JUMP JUMPDEST PUSH3 0x264 PUSH3 0x2DF2 JUMP JUMPDEST PUSH3 0x264 SWAP2 PUSH3 0x2E50 PUSH3 0x2E37 JUMP JUMPDEST SWAP2 PUSH3 0x2E79 JUMP JUMPDEST RETURNDATASIZE ISZERO PUSH3 0x2E74 JUMPI PUSH3 0x2E69 RETURNDATASIZE PUSH3 0xC48 JUMP JUMPDEST SWAP1 RETURNDATASIZE PUSH1 0x0 PUSH1 0x20 DUP5 ADD RETURNDATACOPY JUMP JUMPDEST PUSH1 0x60 SWAP1 JUMP JUMPDEST PUSH1 0x0 DUP1 PUSH3 0x264 SWAP5 SWAP4 PUSH3 0x2E8B PUSH1 0x60 SWAP1 JUMP JUMPDEST POP PUSH1 0x20 DUP2 MLOAD SWAP2 ADD DUP5 GAS DELEGATECALL PUSH3 0x2E9F PUSH3 0x2E57 JUMP JUMPDEST SWAP2 PUSH3 0x2EF3 JUMP JUMPDEST ISZERO PUSH3 0x2EAE JUMPI JUMP JUMPDEST PUSH1 0x40 MLOAD PUSH3 0x461BCD PUSH1 0xE5 SHL DUP2 MSTORE PUSH1 0x20 PUSH1 0x4 DUP3 ADD MSTORE PUSH1 0x1D PUSH1 0x24 DUP3 ADD MSTORE PUSH32 0x416464726573733A2063616C6C20746F206E6F6E2D636F6E7472616374000000 PUSH1 0x44 DUP3 ADD MSTORE PUSH1 0x64 SWAP1 REVERT JUMPDEST SWAP2 SWAP3 SWAP1 ISZERO PUSH3 0x2F2E JUMPI POP DUP2 MLOAD PUSH3 0x2F0F PUSH3 0xD8D PUSH1 0x0 PUSH3 0xCF8 JUMP JUMPDEST EQ PUSH3 0x2F19 JUMPI POP SWAP1 JUMP JUMPDEST PUSH3 0x2F28 PUSH3 0x264 SWAP2 PUSH3 0x2BA2 JUMP JUMPDEST PUSH3 0x2EA6 JUMP JUMPDEST DUP3 SWAP1 PUSH3 0x2F39 DUP3 MLOAD SWAP1 JUMP JUMPDEST PUSH3 0x2F49 PUSH3 0xD8D PUSH1 0x0 PUSH3 0xCF8 JUMP JUMPDEST GT ISZERO PUSH3 0x2F59 JUMPI POP DUP1 MLOAD SWAP1 PUSH1 0x20 ADD REVERT JUMPDEST PUSH3 0xE0B SWAP1 PUSH3 0x2F68 PUSH1 0x40 MLOAD SWAP1 JUMP JUMPDEST PUSH3 0x461BCD PUSH1 0xE5 SHL DUP2 MSTORE SWAP2 DUP3 SWAP2 PUSH1 0x4 DUP4 ADD PUSH3 0x7EE JUMP INVALID PUSH1 0x80 PUSH1 0x40 MSTORE PUSH2 0x15 PUSH2 0xF PUSH2 0x16A JUMP JUMPDEST SWAP1 PUSH2 0x18C JUMP JUMPDEST PUSH1 0x40 MLOAD PUSH1 0xC3 PUSH2 0x526 DUP3 CODECOPY PUSH1 0xC3 SWAP1 RETURN JUMPDEST PUSH4 0x4E487B71 PUSH1 0xE0 SHL PUSH1 0x0 MSTORE PUSH1 0x41 PUSH1 0x4 MSTORE PUSH1 0x24 PUSH1 0x0 REVERT JUMPDEST SWAP1 PUSH1 0x1F ADD PUSH1 0x1F NOT AND DUP2 ADD SWAP1 DUP2 LT PUSH1 0x1 PUSH1 0x1 PUSH1 0x40 SHL SUB DUP3 GT OR PUSH2 0x5B JUMPI PUSH1 0x40 MSTORE JUMP JUMPDEST PUSH2 0x24 JUMP JUMPDEST SWAP1 PUSH2 0x74 PUSH2 0x6D PUSH1 0x40 MLOAD SWAP1 JUMP JUMPDEST SWAP3 DUP4 PUSH2 0x3A JUMP JUMPDEST JUMP JUMPDEST PUSH1 0x1 PUSH1 0x1 PUSH1 0xA0 SHL SUB AND SWAP1 JUMP JUMPDEST SWAP1 JUMP JUMPDEST PUSH2 0x8E DUP2 PUSH2 0x76 JUMP JUMPDEST SUB PUSH2 0x95 JUMPI JUMP JUMPDEST PUSH1 0x0 DUP1 REVERT JUMPDEST SWAP1 POP MLOAD SWAP1 PUSH2 0x74 DUP3 PUSH2 0x85 JUMP JUMPDEST PUSH1 0x1 PUSH1 0x1 PUSH1 0x40 SHL SUB DUP2 GT PUSH2 0x5B JUMPI PUSH1 0x20 SWAP1 PUSH1 0x1F ADD PUSH1 0x1F NOT AND ADD SWAP1 JUMP JUMPDEST ADD SWAP1 JUMP JUMPDEST PUSH1 0x0 JUMPDEST DUP4 DUP2 LT PUSH2 0xDA JUMPI POP POP PUSH1 0x0 SWAP2 ADD MSTORE JUMP JUMPDEST DUP2 DUP2 ADD MLOAD DUP4 DUP3 ADD MSTORE PUSH1 0x20 ADD PUSH2 0xCA JUMP JUMPDEST SWAP1 SWAP3 SWAP2 SWAP3 PUSH2 0xFF PUSH2 0xFA DUP3 PUSH2 0xA7 JUMP JUMPDEST PUSH2 0x60 JUMP JUMPDEST SWAP4 DUP2 DUP6 MSTORE DUP2 DUP4 ADD GT PUSH2 0x95 JUMPI PUSH2 0x74 SWAP2 PUSH1 0x20 DUP6 ADD SWAP1 PUSH2 0xC7 JUMP JUMPDEST SWAP1 DUP1 PUSH1 0x1F DUP4 ADD SLT ISZERO PUSH2 0x95 JUMPI DUP2 MLOAD PUSH2 0x82 SWAP3 PUSH1 0x20 ADD PUSH2 0xEA JUMP JUMPDEST SWAP2 SWAP1 SWAP2 PUSH1 0x40 DUP2 DUP5 SUB SLT PUSH2 0x95 JUMPI PUSH2 0x14A DUP4 DUP3 PUSH2 0x9A JUMP JUMPDEST PUSH1 0x20 DUP3 ADD MLOAD SWAP1 SWAP4 SWAP1 PUSH1 0x1 PUSH1 0x1 PUSH1 0x40 SHL SUB DUP2 GT PUSH2 0x95 JUMPI PUSH2 0x82 SWAP3 ADD PUSH2 0x119 JUMP JUMPDEST PUSH2 0x188 PUSH2 0x5E9 DUP1 CODESIZE SUB DUP1 PUSH2 0x17D DUP2 PUSH2 0x60 JUMP JUMPDEST SWAP3 DUP4 CODECOPY DUP2 ADD SWAP1 PUSH2 0x133 JUMP JUMPDEST SWAP1 SWAP2 JUMP JUMPDEST PUSH2 0x74 SWAP2 PUSH1 0x0 SWAP2 PUSH2 0x1A5 JUMP JUMPDEST PUSH2 0x82 PUSH2 0x82 PUSH2 0x82 SWAP3 SWAP1 JUMP JUMPDEST SWAP2 PUSH2 0x1AF DUP4 PUSH2 0x20E JUMP JUMPDEST DUP2 MLOAD PUSH2 0x1C2 PUSH2 0x1BE PUSH1 0x0 PUSH2 0x198 JUMP JUMPDEST SWAP2 SWAP1 JUMP JUMPDEST GT SWAP1 DUP2 ISZERO PUSH2 0x1E0 JUMPI JUMPDEST POP PUSH2 0x1D4 JUMPI POP POP JUMP JUMPDEST PUSH2 0x1DD SWAP2 PUSH2 0x2AD JUMP JUMPDEST POP JUMP JUMPDEST SWAP1 POP CODESIZE PUSH2 0x1CB JUMP JUMPDEST PUSH2 0x82 SWAP1 PUSH2 0x76 SWAP1 PUSH1 0x1 PUSH1 0x1 PUSH1 0xA0 SHL SUB AND DUP3 JUMP JUMPDEST PUSH2 0x82 SWAP1 PUSH2 0x1E8 JUMP JUMPDEST PUSH2 0x82 SWAP1 PUSH2 0x1FC JUMP JUMPDEST PUSH2 0x220 SWAP1 PUSH2 0x21B DUP2 PUSH2 0x389 JUMP JUMPDEST PUSH2 0x205 JUMP JUMPDEST PUSH32 0xBC7CD75A20EE27FD9ADEBAB32041F755214DBC6BFFA90CC0225B39DA2E5C2D3B PUSH2 0x24A PUSH1 0x40 MLOAD SWAP1 JUMP JUMPDEST PUSH1 0x0 SWAP1 LOG2 JUMP JUMPDEST SWAP1 PUSH2 0x25D PUSH2 0xFA DUP4 PUSH2 0xA7 JUMP JUMPDEST SWAP2 DUP3 MSTORE JUMP JUMPDEST PUSH2 0x26C PUSH1 0x27 PUSH2 0x250 JUMP JUMPDEST PUSH32 0x416464726573733A206C6F772D6C6576656C2064656C65676174652063616C6C PUSH1 0x20 DUP3 ADD MSTORE PUSH7 0x819985A5B1959 PUSH1 0xCA SHL PUSH1 0x40 DUP3 ADD MSTORE SWAP1 JUMP JUMPDEST PUSH2 0x82 PUSH2 0x262 JUMP JUMPDEST PUSH2 0x82 SWAP2 PUSH2 0x2B9 PUSH2 0x2A5 JUMP JUMPDEST SWAP2 PUSH2 0x3D0 JUMP JUMPDEST PUSH1 0x20 DUP1 DUP3 MSTORE PUSH1 0x2D SWAP1 DUP3 ADD MSTORE PUSH32 0x455243313936373A206E657720696D706C656D656E746174696F6E206973206E PUSH1 0x40 DUP3 ADD MSTORE PUSH13 0x1BDD08184818DBDB9D1C9858DD PUSH1 0x9A SHL PUSH1 0x60 DUP3 ADD MSTORE PUSH1 0x80 ADD SWAP1 JUMP JUMPDEST ISZERO PUSH2 0x313 JUMPI JUMP JUMPDEST PUSH1 0x40 MLOAD PUSH3 0x461BCD PUSH1 0xE5 SHL DUP2 MSTORE DUP1 PUSH2 0x32C PUSH1 0x4 DUP3 ADD PUSH2 0x2BF JUMP JUMPDEST SUB SWAP1 REVERT JUMPDEST PUSH2 0x82 PUSH32 0x360894A13BA1A3210667C828492DB98DCA3E2076CC3735A920A3CA505D382BBC PUSH2 0x198 JUMP JUMPDEST SWAP1 PUSH2 0x369 PUSH2 0x82 PUSH2 0x385 SWAP3 PUSH2 0x205 JUMP JUMPDEST DUP3 SLOAD PUSH1 0x1 PUSH1 0x1 PUSH1 0xA0 SHL SUB NOT AND PUSH1 0x1 PUSH1 0x1 PUSH1 0xA0 SHL SUB SWAP2 SWAP1 SWAP2 AND OR SWAP1 JUMP JUMPDEST SWAP1 SSTORE JUMP JUMPDEST PUSH2 0x74 SWAP1 PUSH2 0x39E PUSH2 0x399 DUP3 PUSH2 0x3F8 JUMP JUMPDEST PUSH2 0x30C JUMP JUMPDEST PUSH1 0x0 PUSH2 0x3AB PUSH2 0x82 PUSH2 0x330 JUMP JUMPDEST ADD PUSH2 0x359 JUMP JUMPDEST RETURNDATASIZE ISZERO PUSH2 0x3CB JUMPI PUSH2 0x3C0 RETURNDATASIZE PUSH2 0x250 JUMP JUMPDEST SWAP1 RETURNDATASIZE PUSH1 0x0 PUSH1 0x20 DUP5 ADD RETURNDATACOPY JUMP JUMPDEST PUSH1 0x60 SWAP1 JUMP JUMPDEST PUSH1 0x0 DUP1 PUSH2 0x82 SWAP5 SWAP4 PUSH2 0x3E0 PUSH1 0x60 SWAP1 JUMP JUMPDEST POP PUSH1 0x20 DUP2 MLOAD SWAP2 ADD DUP5 GAS DELEGATECALL PUSH2 0x3F2 PUSH2 0x3B1 JUMP JUMPDEST SWAP2 PUSH2 0x461 JUMP JUMPDEST EXTCODESIZE PUSH2 0x406 PUSH2 0x1BE PUSH1 0x0 PUSH2 0x198 JUMP JUMPDEST GT SWAP1 JUMP JUMPDEST PUSH1 0x20 DUP1 DUP3 MSTORE PUSH1 0x1D SWAP1 DUP3 ADD MSTORE PUSH32 0x416464726573733A2063616C6C20746F206E6F6E2D636F6E7472616374000000 PUSH1 0x40 DUP3 ADD MSTORE PUSH1 0x60 ADD SWAP1 JUMP JUMPDEST ISZERO PUSH2 0x448 JUMPI JUMP JUMPDEST PUSH1 0x40 MLOAD PUSH3 0x461BCD PUSH1 0xE5 SHL DUP2 MSTORE DUP1 PUSH2 0x32C PUSH1 0x4 DUP3 ADD PUSH2 0x40A JUMP JUMPDEST SWAP2 SWAP3 SWAP1 ISZERO PUSH2 0x493 JUMPI POP DUP2 MLOAD PUSH2 0x479 PUSH2 0x1BE PUSH1 0x0 PUSH2 0x198 JUMP JUMPDEST EQ PUSH2 0x482 JUMPI POP SWAP1 JUMP JUMPDEST PUSH2 0x48E PUSH2 0x82 SWAP2 PUSH2 0x3F8 JUMP JUMPDEST PUSH2 0x441 JUMP JUMPDEST DUP3 PUSH2 0x4DE JUMP JUMPDEST PUSH2 0x4BA PUSH2 0x4C3 PUSH1 0x20 SWAP4 PUSH2 0xC3 SWAP4 PUSH2 0x4AE DUP2 MLOAD SWAP1 JUMP JUMPDEST DUP1 DUP4 MSTORE SWAP4 DUP5 SWAP3 PUSH1 0x20 ADD SWAP1 JUMP JUMPDEST SWAP6 DUP7 SWAP2 ADD PUSH2 0xC7 JUMP JUMPDEST PUSH1 0x1F ADD PUSH1 0x1F NOT AND SWAP1 JUMP JUMPDEST PUSH1 0x20 DUP1 DUP3 MSTORE PUSH2 0x82 SWAP3 SWAP2 ADD SWAP1 PUSH2 0x499 JUMP JUMPDEST SWAP1 PUSH2 0x4E7 DUP3 MLOAD SWAP1 JUMP JUMPDEST PUSH2 0x4F4 PUSH2 0x1BE PUSH1 0x0 PUSH2 0x198 JUMP JUMPDEST GT ISZERO PUSH2 0x503 JUMPI POP DUP1 MLOAD SWAP1 PUSH1 0x20 ADD REVERT JUMPDEST PUSH2 0x32C SWAP1 PUSH2 0x510 PUSH1 0x40 MLOAD SWAP1 JUMP JUMPDEST PUSH3 0x461BCD PUSH1 0xE5 SHL DUP2 MSTORE SWAP2 DUP3 SWAP2 PUSH1 0x4 DUP4 ADD PUSH2 0x4CD JUMP INVALID PUSH1 0x80 PUSH1 0x40 MSTORE PUSH1 0xA PUSH1 0xE JUMP JUMPDEST PUSH1 0x17 JUMP JUMPDEST PUSH1 0x14 PUSH1 0x7C JUMP JUMPDEST SWAP1 JUMP JUMPDEST PUSH1 0x0 DUP1 SWAP2 CALLDATASIZE DUP3 DUP1 CALLDATACOPY DUP2 CALLDATASIZE SWAP2 GAS DELEGATECALL RETURNDATASIZE PUSH1 0x0 DUP1 RETURNDATACOPY ISZERO PUSH1 0x32 JUMPI RETURNDATASIZE PUSH1 0x0 RETURN JUMPDEST RETURNDATASIZE PUSH1 0x0 REVERT JUMPDEST PUSH1 0x14 PUSH1 0x14 PUSH1 0x14 SWAP3 SWAP1 JUMP JUMPDEST PUSH1 0x14 PUSH32 0x360894A13BA1A3210667C828492DB98DCA3E2076CC3735A920A3CA505D382BBC PUSH1 0x37 JUMP JUMPDEST PUSH1 0x1 PUSH1 0x1 PUSH1 0xA0 SHL SUB AND SWAP1 JUMP JUMPDEST PUSH1 0x14 SWAP1 SLOAD PUSH1 0x68 JUMP JUMPDEST PUSH1 0x14 PUSH1 0x0 PUSH1 0x88 PUSH1 0x14 PUSH1 0x41 JUMP JUMPDEST ADD PUSH1 0x74 JUMP INVALID LOG2 PUSH5 0x6970667358 0x22 SLT KECCAK256 EXP 0xD4 0xAC MLOAD PUSH3 0x9CE32F RETURN PUSH9 0x96C3191FD47FCB9B0A ADDMOD SWAP3 0xE6 0x28 EQ PUSH8 0xF168C50548841064 PUSH20 0x6F6C634300081600338EEDEE044A0C1105EE1170 PC 0xAB SWAP3 RETURNDATASIZE 0xDC 0x4C 0xD0 0xF6 SLT 0xEB 0xD4 XOR SLT 0xA5 0xB1 PUSH28 0x81093DF4CBBA887708E7D4436DD36B62187BDCED03E0B9ABE66CAF39 0x2A PUSH7 0xDD84386641B209 GASLIMIT PUSH2 0xD58 GT GASLIMIT SWAP3 0x4D 0xD7 MULMOD EXP POP OR 0xE5 CALLCODE 0xB1 0xD6 DELEGATECALL 0x22 SGT 0xBB 0x2E SWAP6 PUSH17 0x7FF86846BBFCB1CA40BD824D588484917D 0xB8 STATICCALL 0x4F 0xC8 SWAP5 0xC1 0xE0 INVALID 0xAE GAS PUSH22 0x885290BA7B97521CEBF82A8046756E6374696F6E206D PUSH22 0x73742062652063616C6C6564207468726F75676820D7 SELFDESTRUCT PUSH19 0x74B03E3EFF3F5E3F308CC4B76FD937A992C26C 0xB9 BYTE DUP1 0xE3 0x28 0xDC 0xE4 0xAB CALLER CODESIZE LOG2 PUSH5 0x6970667358 0x22 SLT KECCAK256 0xBF 0xA8 SELFBALANCE 0xDD 0xCD 0xF 0x2E 0xCC ADDRESS 0xA5 0xD1 MOD 0xBF MUL SWAP15 0xA7 BALANCE 0xCE 0xD0 0xD0 0xC2 PUSH12 0xC91710403BB9C44831A06473 PUSH16 0x6C634300081600330000000000000000 "},"methodIdentifiers":{"VERSION()":"ffa1ad74","configureLiquidityDefaults(uint256,uint256)":"a2afdb99","configurePlatformFeeVesting(uint256,uint256,bool)":"d5340141","createToken((string,string,uint256,uint256,address,bool,bool,uint256,uint256,uint256,uint256,uint256,uint256,uint256,uint256,uint256))":"424d9ede","customDeploymentFees(address)":"c05ddda8","defaultLiquidityLockDuration()":"b6193775","defaultLiquidityPercentage()":"e379dcaf","deployedTokens(uint256)":"ec81aadb","deploymentFee()":"f2cff57f","getDeployedTokensCount()":"25f1be1f","getDeploymentFee(address)":"1652da42","getTemplateImplementation()":"0d1ded89","getTokenVersion(address)":"a78fae8e","initialize(uint256)":"fe4b84df","owner()":"8da5cb5b","platformFeeCliffDuration()":"113d478b","platformFeePercentage()":"cdd78cfc","platformFeeRecipient()":"eb13554f","platformFeeVestingDuration()":"420fc210","platformFeeVestingEnabled()":"fadcac27","proxiableUUID()":"52d1902d","renounceOwnership()":"715018a6","setCustomDeploymentFee(address,uint256)":"cbf1208f","setDeploymentFee(uint256)":"d002462b","setPlatformFeePercentage(uint256)":"8333903e","setPlatformFeeRecipient(address)":"1871e243","tokenImplementation()":"2f3a3d5d","tokenVersions(address)":"545e7348","transferOwnership(address)":"f2fde38b","upgradeTo(address)":"3659cfe6","upgradeToAndCall(address,bytes)":"4f1ef286"}}}}}