{"src/contracts/TokenTemplate_v3.sol":{"TokenTemplate_v3":{"abi":[{"anonymous":false,"inputs":[{"indexed":false,"internalType":"address","name":"previousAdmin","type":"address"},{"indexed":false,"internalType":"address","name":"newAdmin","type":"address"}],"name":"AdminChanged","type":"event"},{"anonymous":false,"inputs":[{"indexed":true,"internalType":"address","name":"owner","type":"address"},{"indexed":true,"internalType":"address","name":"spender","type":"address"},{"indexed":false,"internalType":"uint256","name":"value","type":"uint256"}],"name":"Approval","type":"event"},{"anonymous":false,"inputs":[{"indexed":true,"internalType":"address","name":"beacon","type":"address"}],"name":"BeaconUpgraded","type":"event"},{"anonymous":false,"inputs":[{"indexed":true,"internalType":"address","name":"account","type":"address"},{"indexed":false,"internalType":"bool","name":"blacklisted","type":"bool"}],"name":"BlacklistUpdated","type":"event"},{"anonymous":false,"inputs":[{"indexed":false,"internalType":"string","name":"message","type":"string"},{"indexed":false,"internalType":"uint256","name":"value","type":"uint256"}],"name":"DebugAllocation","type":"event"},{"anonymous":false,"inputs":[{"indexed":false,"internalType":"string","name":"message","type":"string"},{"indexed":false,"internalType":"uint256","name":"value","type":"uint256"}],"name":"DebugInit","type":"event"},{"anonymous":false,"inputs":[{"indexed":false,"internalType":"string","name":"step","type":"string"},{"indexed":false,"internalType":"address","name":"value","type":"address"}],"name":"DebugInitAddress","type":"event"},{"anonymous":false,"inputs":[{"indexed":false,"internalType":"string","name":"step","type":"string"},{"indexed":false,"internalType":"string","name":"message","type":"string"}],"name":"DebugInitStep","type":"event"},{"anonymous":false,"inputs":[{"indexed":false,"internalType":"string","name":"message","type":"string"},{"indexed":false,"internalType":"string","name":"value","type":"string"}],"name":"DebugInitString","type":"event"},{"anonymous":false,"inputs":[{"indexed":false,"internalType":"string","name":"step","type":"string"},{"indexed":false,"internalType":"uint256","name":"value","type":"uint256"}],"name":"DebugInitValue","type":"event"},{"anonymous":false,"inputs":[{"indexed":false,"internalType":"string","name":"message","type":"string"},{"indexed":false,"internalType":"uint256","name":"presaleTokens","type":"uint256"},{"indexed":false,"internalType":"uint256","name":"presaleRate","type":"uint256"},{"indexed":false,"internalType":"uint256","name":"requiredCap","type":"uint256"},{"indexed":false,"internalType":"uint256","name":"providedCap","type":"uint256"}],"name":"DebugPresale","type":"event"},{"anonymous":false,"inputs":[{"indexed":false,"internalType":"uint8","name":"version","type":"uint8"}],"name":"Initialized","type":"event"},{"anonymous":false,"inputs":[{"indexed":false,"internalType":"uint256","name":"amount","type":"uint256"},{"indexed":false,"internalType":"uint256","name":"unlockTime","type":"uint256"}],"name":"LiquidityLocked","type":"event"},{"anonymous":false,"inputs":[{"indexed":false,"internalType":"uint256","name":"amount","type":"uint256"}],"name":"LiquidityUnlocked","type":"event"},{"anonymous":false,"inputs":[{"indexed":true,"internalType":"address","name":"previousOwner","type":"address"},{"indexed":true,"internalType":"address","name":"newOwner","type":"address"}],"name":"OwnershipTransferred","type":"event"},{"anonymous":false,"inputs":[{"indexed":true,"internalType":"address","name":"contributor","type":"address"},{"indexed":false,"internalType":"uint256","name":"amount","type":"uint256"}],"name":"PresaleContribution","type":"event"},{"anonymous":false,"inputs":[{"indexed":false,"internalType":"uint256","name":"totalRaised","type":"uint256"},{"indexed":false,"internalType":"uint256","name":"totalTokensSold","type":"uint256"}],"name":"PresaleFinalized","type":"event"},{"anonymous":false,"inputs":[{"indexed":true,"internalType":"address","name":"account","type":"address"},{"indexed":false,"internalType":"uint256","name":"duration","type":"uint256"}],"name":"TimeLockSet","type":"event"},{"anonymous":false,"inputs":[{"indexed":true,"internalType":"address","name":"beneficiary","type":"address"},{"indexed":false,"internalType":"uint256","name":"amount","type":"uint256"}],"name":"TokensVested","type":"event"},{"anonymous":false,"inputs":[{"indexed":true,"internalType":"address","name":"from","type":"address"},{"indexed":true,"internalType":"address","name":"to","type":"address"},{"indexed":false,"internalType":"uint256","name":"value","type":"uint256"}],"name":"Transfer","type":"event"},{"anonymous":false,"inputs":[{"indexed":true,"internalType":"address","name":"implementation","type":"address"}],"name":"Upgraded","type":"event"},{"anonymous":false,"inputs":[{"indexed":false,"internalType":"string","name":"walletName","type":"string"},{"indexed":true,"internalType":"address","name":"beneficiary","type":"address"},{"indexed":false,"internalType":"uint256","name":"amount","type":"uint256"},{"indexed":false,"internalType":"uint256","name":"period","type":"uint256"}],"name":"VestingScheduleAdded","type":"event"},{"anonymous":false,"inputs":[{"indexed":true,"internalType":"address","name":"beneficiary","type":"address"},{"indexed":false,"internalType":"uint256","name":"scheduleIndex","type":"uint256"},{"indexed":false,"internalType":"uint256","name":"amount","type":"uint256"}],"name":"VestingTokensClaimed","type":"event"},{"inputs":[{"internalType":"string","name":"walletName","type":"string"},{"internalType":"uint256","name":"amount","type":"uint256"},{"internalType":"uint256","name":"period","type":"uint256"},{"internalType":"address","name":"beneficiary","type":"address"}],"name":"addVestingSchedule","outputs":[],"stateMutability":"nonpayable","type":"function"},{"inputs":[{"internalType":"address","name":"owner","type":"address"},{"internalType":"address","name":"spender","type":"address"}],"name":"allowance","outputs":[{"internalType":"uint256","name":"","type":"uint256"}],"stateMutability":"view","type":"function"},{"inputs":[{"internalType":"address","name":"spender","type":"address"},{"internalType":"uint256","name":"amount","type":"uint256"}],"name":"approve","outputs":[{"internalType":"bool","name":"","type":"bool"}],"stateMutability":"nonpayable","type":"function"},{"inputs":[{"internalType":"address","name":"account","type":"address"}],"name":"balanceOf","outputs":[{"internalType":"uint256","name":"","type":"uint256"}],"stateMutability":"view","type":"function"},{"inputs":[],"name":"blacklistEnabled","outputs":[{"internalType":"bool","name":"","type":"bool"}],"stateMutability":"view","type":"function"},{"inputs":[{"internalType":"address","name":"","type":"address"}],"name":"blacklisted","outputs":[{"internalType":"bool","name":"","type":"bool"}],"stateMutability":"view","type":"function"},{"inputs":[],"name":"claimPlatformFeeTokens","outputs":[],"stateMutability":"nonpayable","type":"function"},{"inputs":[{"internalType":"uint256","name":"scheduleIndex","type":"uint256"}],"name":"claimVestedTokens","outputs":[],"stateMutability":"nonpayable","type":"function"},{"inputs":[],"name":"contribute","outputs":[],"stateMutability":"payable","type":"function"},{"inputs":[{"internalType":"address","name":"","type":"address"}],"name":"contributions","outputs":[{"internalType":"uint256","name":"","type":"uint256"}],"stateMutability":"view","type":"function"},{"inputs":[],"name":"decimals","outputs":[{"internalType":"uint8","name":"","type":"uint8"}],"stateMutability":"view","type":"function"},{"inputs":[{"internalType":"address","name":"spender","type":"address"},{"internalType":"uint256","name":"subtractedValue","type":"uint256"}],"name":"decreaseAllowance","outputs":[{"internalType":"bool","name":"","type":"bool"}],"stateMutability":"nonpayable","type":"function"},{"inputs":[],"name":"developmentAllocation","outputs":[{"internalType":"uint256","name":"","type":"uint256"}],"stateMutability":"view","type":"function"},{"inputs":[],"name":"finalizePresale","outputs":[],"stateMutability":"nonpayable","type":"function"},{"inputs":[{"internalType":"uint256","name":"scheduleIndex","type":"uint256"}],"name":"getClaimableAmount","outputs":[{"internalType":"uint256","name":"","type":"uint256"}],"stateMutability":"view","type":"function"},{"inputs":[{"internalType":"uint256","name":"index","type":"uint256"}],"name":"getVestingSchedule","outputs":[{"internalType":"string","name":"walletName","type":"string"},{"internalType":"uint256","name":"amount","type":"uint256"},{"internalType":"uint256","name":"period","type":"uint256"},{"internalType":"address","name":"beneficiary","type":"address"},{"internalType":"uint256","name":"claimed","type":"uint256"},{"internalType":"uint256","name":"startTime","type":"uint256"}],"stateMutability":"view","type":"function"},{"inputs":[],"name":"getVestingSchedulesCount","outputs":[{"internalType":"uint256","name":"","type":"uint256"}],"stateMutability":"view","type":"function"},{"inputs":[{"internalType":"address","name":"spender","type":"address"},{"internalType":"uint256","name":"addedValue","type":"uint256"}],"name":"increaseAllowance","outputs":[{"internalType":"bool","name":"","type":"bool"}],"stateMutability":"nonpayable","type":"function"},{"inputs":[{"components":[{"internalType":"string","name":"name","type":"string"},{"internalType":"string","name":"symbol","type":"string"},{"internalType":"uint256","name":"initialSupply","type":"uint256"},{"internalType":"uint256","name":"maxSupply","type":"uint256"},{"internalType":"address","name":"owner","type":"address"},{"internalType":"bool","name":"enableBlacklist","type":"bool"},{"internalType":"bool","name":"enableTimeLock","type":"bool"},{"internalType":"uint256","name":"tokensPerEth","type":"uint256"},{"internalType":"uint256","name":"minContribution","type":"uint256"},{"internalType":"uint256","name":"maxContribution","type":"uint256"},{"internalType":"uint256","name":"presaleCap","type":"uint256"},{"internalType":"uint256","name":"startTime","type":"uint256"},{"internalType":"uint256","name":"endTime","type":"uint256"},{"internalType":"uint256","name":"liquidityPercentage","type":"uint256"},{"internalType":"uint256","name":"liquidityLockDuration","type":"uint256"},{"internalType":"address","name":"platformFeeRecipient","type":"address"},{"internalType":"uint256","name":"platformFeeTokens","type":"uint256"},{"internalType":"bool","name":"platformFeeVestingEnabled","type":"bool"},{"internalType":"uint256","name":"platformFeeVestingDuration","type":"uint256"},{"internalType":"uint256","name":"platformFeeCliffDuration","type":"uint256"},{"internalType":"uint256","name":"teamPercentage","type":"uint256"},{"internalType":"uint256","name":"marketingPercentage","type":"uint256"},{"internalType":"uint256","name":"developmentPercentage","type":"uint256"},{"internalType":"uint256","name":"presalePercentage","type":"uint256"}],"internalType":"struct TokenTemplate_v3.InitParams","name":"params","type":"tuple"}],"name":"initialize","outputs":[],"stateMutability":"nonpayable","type":"function"},{"inputs":[],"name":"liquidityInfo","outputs":[{"internalType":"uint256","name":"percentage","type":"uint256"},{"internalType":"uint256","name":"lockDuration","type":"uint256"},{"internalType":"uint256","name":"unlockTime","type":"uint256"},{"internalType":"bool","name":"locked","type":"bool"}],"stateMutability":"view","type":"function"},{"inputs":[],"name":"marketingAllocation","outputs":[{"internalType":"uint256","name":"","type":"uint256"}],"stateMutability":"view","type":"function"},{"inputs":[],"name":"maxSupply","outputs":[{"internalType":"uint256","name":"","type":"uint256"}],"stateMutability":"view","type":"function"},{"inputs":[],"name":"name","outputs":[{"internalType":"string","name":"","type":"string"}],"stateMutability":"view","type":"function"},{"inputs":[],"name":"owner","outputs":[{"internalType":"address","name":"","type":"address"}],"stateMutability":"view","type":"function"},{"inputs":[],"name":"platformFee","outputs":[{"internalType":"address","name":"recipient","type":"address"},{"internalType":"uint256","name":"totalTokens","type":"uint256"},{"internalType":"bool","name":"vestingEnabled","type":"bool"},{"internalType":"uint256","name":"vestingDuration","type":"uint256"},{"internalType":"uint256","name":"cliffDuration","type":"uint256"},{"internalType":"uint256","name":"vestingStart","type":"uint256"},{"internalType":"uint256","name":"tokensClaimed","type":"uint256"}],"stateMutability":"view","type":"function"},{"inputs":[],"name":"presaleInfo","outputs":[{"internalType":"uint256","name":"softCap","type":"uint256"},{"internalType":"uint256","name":"hardCap","type":"uint256"},{"internalType":"uint256","name":"minContribution","type":"uint256"},{"internalType":"uint256","name":"maxContribution","type":"uint256"},{"internalType":"uint256","name":"tokensPerEth","type":"uint256"},{"internalType":"uint256","name":"startTime","type":"uint256"},{"internalType":"uint256","name":"endTime","type":"uint256"},{"internalType":"bool","name":"whitelistEnabled","type":"bool"},{"internalType":"bool","name":"finalized","type":"bool"},{"internalType":"uint256","name":"totalContributed","type":"uint256"},{"internalType":"uint256","name":"totalTokensSold","type":"uint256"}],"stateMutability":"view","type":"function"},{"inputs":[],"name":"proxiableUUID","outputs":[{"internalType":"bytes32","name":"","type":"bytes32"}],"stateMutability":"view","type":"function"},{"inputs":[],"name":"renounceOwnership","outputs":[],"stateMutability":"nonpayable","type":"function"},{"inputs":[{"internalType":"address","name":"account","type":"address"},{"internalType":"bool","name":"isBlacklisted","type":"bool"}],"name":"setBlacklist","outputs":[],"stateMutability":"nonpayable","type":"function"},{"inputs":[{"internalType":"address","name":"account","type":"address"},{"internalType":"uint256","name":"duration","type":"uint256"}],"name":"setTimeLock","outputs":[],"stateMutability":"nonpayable","type":"function"},{"inputs":[{"internalType":"address","name":"account","type":"address"},{"internalType":"bool","name":"status","type":"bool"}],"name":"setWhitelistStatus","outputs":[],"stateMutability":"nonpayable","type":"function"},{"inputs":[],"name":"symbol","outputs":[{"internalType":"string","name":"","type":"string"}],"stateMutability":"view","type":"function"},{"inputs":[],"name":"teamAllocation","outputs":[{"internalType":"uint256","name":"","type":"uint256"}],"stateMutability":"view","type":"function"},{"inputs":[],"name":"timeLockEnabled","outputs":[{"internalType":"bool","name":"","type":"bool"}],"stateMutability":"view","type":"function"},{"inputs":[{"internalType":"address","name":"","type":"address"}],"name":"timeLocks","outputs":[{"internalType":"uint256","name":"","type":"uint256"}],"stateMutability":"view","type":"function"},{"inputs":[],"name":"totalSupply","outputs":[{"internalType":"uint256","name":"","type":"uint256"}],"stateMutability":"view","type":"function"},{"inputs":[{"internalType":"address","name":"to","type":"address"},{"internalType":"uint256","name":"amount","type":"uint256"}],"name":"transfer","outputs":[{"internalType":"bool","name":"","type":"bool"}],"stateMutability":"nonpayable","type":"function"},{"inputs":[{"internalType":"address","name":"from","type":"address"},{"internalType":"address","name":"to","type":"address"},{"internalType":"uint256","name":"amount","type":"uint256"}],"name":"transferFrom","outputs":[{"internalType":"bool","name":"","type":"bool"}],"stateMutability":"nonpayable","type":"function"},{"inputs":[{"internalType":"address","name":"newOwner","type":"address"}],"name":"transferOwnership","outputs":[],"stateMutability":"nonpayable","type":"function"},{"inputs":[{"internalType":"address","name":"newImplementation","type":"address"}],"name":"upgradeTo","outputs":[],"stateMutability":"nonpayable","type":"function"},{"inputs":[{"internalType":"address","name":"newImplementation","type":"address"},{"internalType":"bytes","name":"data","type":"bytes"}],"name":"upgradeToAndCall","outputs":[],"stateMutability":"payable","type":"function"},{"inputs":[{"internalType":"uint256","name":"","type":"uint256"},{"internalType":"address","name":"","type":"address"}],"name":"vestingClaims","outputs":[{"internalType":"uint256","name":"","type":"uint256"}],"stateMutability":"view","type":"function"},{"inputs":[{"internalType":"uint256","name":"","type":"uint256"}],"name":"vestingSchedules","outputs":[{"internalType":"string","name":"walletName","type":"string"},{"internalType":"uint256","name":"amount","type":"uint256"},{"internalType":"uint256","name":"period","type":"uint256"},{"internalType":"address","name":"beneficiary","type":"address"},{"internalType":"uint256","name":"claimed","type":"uint256"},{"internalType":"uint256","name":"startTime","type":"uint256"}],"stateMutability":"view","type":"function"},{"inputs":[{"internalType":"address","name":"","type":"address"}],"name":"whitelist","outputs":[{"internalType":"bool","name":"","type":"bool"}],"stateMutability":"view","type":"function"},{"inputs":[],"name":"withdrawPresaleFunds","outputs":[],"stateMutability":"nonpayable","type":"function"}],"evm":{"bytecode":{"linkReferences":{},"object":"60a0604052346200003657620000146200003b565b604051614e916200009382396080518181816113d301526115900152614e9190f35b600080fd5b6200004562000082565b565b6200005d9062000060906001600160a01b031682565b90565b6001600160a01b031690565b6200005d9062000047565b6200005d906200006c565b6200008d3062000077565b60805256fe6080604052600436101561001257600080fd5b60003560e01c806306fdde03146102e2578063095ea7b3146102dd5780630c424284146102d857806313083617146102d3578063153b0d1e146102ce57806315f0c220146102c957806318160ddd146102c457806323b872dd146102bf57806326232a2e146102ba5780632c80a89c146102b55780632edf0869146102b0578063313ce567146102ab5780633659cfe6146102a657806339509351146102a157806342e94c901461029c5780634f1ef2861461029757806352d1902d1461029257806356f3e2371461028d578063644fab741461028857806364a88d68146102835780636816521a1461027e5780636d3cbe211461027957806370a0823114610274578063715018a61461026f5780637935510b1461026a5780637d8ca242146102655780637f76b223146102605780638bacf0141461025b5780638bdc444d146102565780638da5cb5b1461025157806391ed25961461024c57806395d89b41146102475780639b19251a14610242578063a0a6e9401461023d578063a457c2d714610238578063a9059cbb14610233578063beb8f8831461022e578063bffb691d14610229578063cba4cbd314610224578063d4ef85cc1461021f578063d5abeb011461021a578063d7bb99ba14610215578063dbac26e914610210578063dd62ed3e1461020b5763f2fde38b036102e75761109a565b61107e565b611047565b611023565b611008565b610fca565b610f47565b610f1f565b610ef7565b610edb565b610ebf565b610ea7565b610e8c565b610e43565b610e27565b610db3565b610d8b565b610d6f565b610d06565b610cda565b610cc2565b610caa565b610c8f565b610c5b565b610a4d565b610a28565b610a0f565b6109f7565b6109a8565b610994565b610882565b610812565b6107fa565b6107b7565b61077d565b61066e565b61062d565b610544565b610500565b6104e5565b6104a9565b61047b565b61045d565b6103f6565b610366565b600080fd5b60009103126102e757565b60005b83811061030a5750506000910152565b81810151838201526020016102fa565b61033b61034460209361034e9361032f815190565b80835293849260200190565b958691016102f7565b601f01601f191690565b0190565b60208082526103639291019061031a565b90565b346102e7576103763660046102ec565b61038d6103816110bb565b60405191829182610352565b0390f35b6001600160a01b031690565b6103a681610391565b036102e757565b905035906103ba8261039d565b565b806103a6565b905035906103ba826103bc565b91906040838203126102e7576103639060206103eb82866103ad565b94016103c2565b9052565b346102e75761038d61041261040c3660046103cf565b906110c5565b6040515b91829182901515815260200190565b8015156103a6565b905035906103ba82610425565b91906040838203126102e75761036390602061045682866103ad565b940161042d565b346102e75761047661047036600461043a565b90611126565b604051005b346102e75761048b3660046102ec565b61038d6104986101345490565b6040515b9182918290815260200190565b346102e7576104766104bc36600461043a565b906111e9565b610363916008021c81565b9061036391546104c2565b61036360006101306104cd565b346102e7576104f53660046102ec565b61038d6104986104d8565b346102e7576105103660046102ec565b61038d6104986111f3565b90916060828403126102e75761036361053484846103ad565b9360406103eb82602087016103ad565b346102e75761038d61041261055a36600461051b565b916112fc565b6103639054610391565b6103639081565b610363905461056a565b610363905b60ff1690565b610363905461057b565b61014261059c81610560565b916105a960018301610571565b916105b660028201610586565b916105c360038301610571565b916105d060048201610571565b9161036360066105e260058501610571565b9301610571565b6103f290610391565b949290979695939160e08601986000870161060c916105e9565b6020860152151560408501526060840152608083015260a082015260c00152565b346102e75761063d3660046102ec565b61038d610648610590565b9361065897959793919360405190565b978897886105f2565b61036360006101316104cd565b346102e75761067e3660046102ec565b61038d610498610661565b6103639060081c610580565b6103639054610689565b6101366106ab81610571565b916106b860018301610571565b916106c560028201610571565b916106d260038301610571565b916106df60048201610571565b916106ec60058301610571565b916106f960068201610571565b9161070660078301610586565b9161071360078201610695565b9161036360096105e260088501610571565b98969492909b9a99979593916101608a019c60008b01610743919052565b60208a015260408901526060880152608087015260a086015260c0850152151560e084015215156101008301526101208201526101400152565b346102e75761078d3660046102ec565b61038d61079861069f565b976107ae9b999b97919796929695939560405190565b9b8c9b8c610725565b346102e7576107c73660046102ec565b61038d6107d2611316565b6040519182918260ff909116815260200190565b906020828203126102e757610363916103ad565b346102e75761047661080d3660046107e6565b61148b565b346102e75761038d6104126108283660046103cf565b906114bc565b61036390610391906001600160a01b031682565b6103639061082e565b61036390610842565b9061085e9061084b565b600052602052604060002090565b600061087d61036392610140610854565b6104cd565b346102e75761038d6104986108983660046107e6565b61086c565b634e487b7160e01b600052604160045260246000fd5b90601f01601f191681019081106001600160401b038211176108d457604052565b61089d565b906103ba6108e660405190565b92836108b3565b6001600160401b0381116108d457602090601f01601f19160190565b90826000939282370152565b9092919261092a610925826108ed565b6108d9565b93818552818301116102e7576103ba916020850190610909565b9080601f830112156102e75781602061036393359101610915565b9190916040818403126102e75761097683826103ad565b9260208201356001600160401b0381116102e7576103639201610944565b6104766109a236600461095f565b90611501565b346102e7576109b83660046102ec565b61038d6104986115f1565b90816103009103126102e75790565b906020828203126102e75781356001600160401b0381116102e75761036392016109c3565b346102e757610476610a0a3660046109d2565b612f8b565b346102e757610476610a223660046103cf565b9061304d565b346102e757610a383660046102ec565b6104766131b2565b610363600061012f6104cd565b346102e757610a5d3660046102ec565b61038d610498610a40565b906020828203126102e757610363916103c2565b634e487b7160e01b600052603260045260246000fd5b8054821015610ab557610aac600691600052602060002090565b91020190600090565b610a7c565b634e487b7160e01b600052602260045260246000fd5b9060016002830492168015610af0575b6020831014610aeb57565b610aba565b91607f1691610ae0565b80546000939291610b17610b0d83610ad0565b8085529360200190565b9160018116908115610b695750600114610b3057505050565b610b439192939450600052602060002090565b916000925b818410610b555750500190565b805484840152602090930192600101610b48565b92949550505060ff1916825215156020020190565b9061036391610afa565b906103ba610ba292610b9960405190565b93848092610b7e565b03836108b3565b61013490610bb5825490565b8110156102e757610bc591610a92565b5090610bd082610b88565b91610bdd60018201610571565b91610bea60028301610571565b91610bf760038201610560565b9161036360056105e260048501610571565b9196959394610c506103ba96610c4660a096610c3f610c37610c579760c08a01908a820360008c015261031a565b9c6020890152565b6040870152565b60608501906105e9565b6080830152565b0152565b346102e75761038d610c76610c71366004610a68565b610ba9565b92610c8696949692919260405190565b96879687610c09565b346102e75761038d610498610ca53660046107e6565b6131ba565b346102e757610cba3660046102ec565b610476613204565b346102e757610476610cd5366004610a68565b6133d7565b346102e75761038d610498610cf0366004610a68565b613461565b600061087d61036392610133610854565b346102e75761038d610498610d1c3660046107e6565b610cf5565b6080818303126102e75780356001600160401b0381116102e75782610d47918301610944565b92610363610d5884602085016103c2565b936060610d6882604087016103c2565b94016103ad565b346102e757610476610d82366004610d21565b929190916136fb565b346102e757610d9b3660046102ec565b610476613906565b6020810192916103ba91906105e9565b346102e757610dc33660046102ec565b61038d610dce61390e565b60405191829182610da3565b91906040838203126102e757610363906020610d6882866103c2565b6103636103636103639290565b9061085e90610df6565b61087d61036392610e22600093610135610e03565b610854565b346102e75761038d610498610e3d366004610dda565b90610e0d565b346102e757610e533660046102ec565b61038d610381613918565b610363916008021c610580565b906103639154610e5e565b6000610e8761036392610141610854565b610e6b565b346102e75761038d610412610ea23660046107e6565b610e76565b346102e757610eb73660046102ec565b610476613b83565b346102e75761038d610412610ed53660046103cf565b90613be5565b346102e75761038d610412610ef13660046103cf565b90613c5a565b346102e75761038d610c76610f0d366004610a68565b613ca2565b610363600061012e610e6b565b346102e757610f2f3660046102ec565b61038d610412610f12565b610363600161012e610e6b565b346102e757610f573660046102ec565b61038d610412610f3a565b61014990610f6f82610571565b91610f7c60018201610571565b916103636003610f8e60028501610571565b9301610586565b610fc26103ba94610fbb606094989795610fb4608086019a6000870152565b6020850152565b6040830152565b019015159052565b346102e757610fda3660046102ec565b61038d610fe5610f62565b90610ff294929460405190565b94859485610f95565b610363600061012d6104cd565b346102e7576110183660046102ec565b61038d610498610ffb565b61102e3660046102ec565b610476614253565b6000610e8761036392610132610854565b346102e75761038d61041261105d3660046107e6565b611036565b91906040838203126102e757610363906020610d6882866103ad565b346102e75761038d610498611094366004611062565b9061425b565b346102e7576104766110ad3660046107e6565b614306565b61036390610b88565b61036360366110b2565b6110d09190336143be565b600190565b906103ba916110e261449d565b611111565b9060ff905b9181191691161790565b9061110661036361110d92151590565b82546110e7565b9055565b906111216103ba92610141610854565b6110f6565b906103ba916110d5565b906103ba9161113d61449d565b61118a565b1561114957565b60405162461bcd60e51b8152602060048201526015602482015274109b1858dadb1a5cdd081b9bdd08195b98589b1959605a1b6044820152606490fd5b0390fd5b6111e46111da7f6a12b3df6cba4203bd7fd06b816789f87de8c594299aed5717ae070fac781bac926111c56111c061012e610586565b611142565b6111d58561112183610132610854565b61084b565b9261041660405190565b0390a2565b906103ba91611130565b6103636035610571565b1561120457565b60405162461bcd60e51b81526020600482015260166024820152751059191c995cdcc81a5cc8189b1858dadb1a5cdd195960521b6044820152606490fd5b6103639392919061126c61126761126361125e33610132610854565b610586565b1590565b6111fd565b6112b7565b1561127857565b60405162461bcd60e51b8152602060048201526017602482015276151c985b9cd9995c881a5cc81d1a5b594b5b1bd8dad959604a1b6044820152606490fd5b906103639392916112c961012e610695565b156112f0576112f06112e86103636112e333610133610854565b610571565b421015611271565b506103639291906144ba565b6103639291906000611242565b6105806103636103639290565b6103636012611309565b1561132757565b60405162461bcd60e51b815260206004820152602c6024820152600080516020614e1c83398151915260448201526b19195b1959d85d1958d85b1b60a21b6064820152608490fd5b1561137657565b60405162461bcd60e51b815260206004820152602c6024820152600080516020614e1c83398151915260448201526b6163746976652070726f787960a01b6064820152608490fd5b6103ba906114266113ce3061084b565b61140c7f0000000000000000000000000000000000000000000000000000000000000000916114056113ff84610391565b91610391565b1415611320565b6114206113ff61141a6144d0565b92610391565b1461136f565b611465565b90611438610925836108ed565b918252565b369037565b906103ba6114586114528461142b565b936108ed565b601f19016020840161143d565b60006103ba91611474816144ef565b61148561148083610df6565b611442565b906145a0565b6103ba906113be565b634e487b7160e01b600052601160045260246000fd5b919082018092116114b757565b611494565b6110d091906114d533926114d0838561425b565b6114aa565b916143be565b906103ba916114ec6113ce3061084b565b6103ba916001916114fc816144ef565b6145a0565b906103ba916114db565b1561151257565b60405162461bcd60e51b815260206004820152603860248201527f555550535570677261646561626c653a206d757374206e6f742062652063616c6044820152771b1959081d1a1c9bdd59da0819195b1959d85d1958d85b1b60421b6064820152608490fd5b610363906115ba6115883061084b565b6115b46113ff7f0000000000000000000000000000000000000000000000000000000000000000610391565b1461150b565b6115e8565b6103637f360894a13ba1a3210667c828492db98dca3e2076cc3735a920a3ca505d382bbc610df6565b506103636115bf565b6103636000611578565b1561160257565b60405162461bcd60e51b815260206004820152602e60248201527f496e697469616c697a61626c653a20636f6e747261637420697320616c72656160448201526d191e481a5b9a5d1a585b1a5e995960921b6064820152608490fd5b6105806103636103639260ff1690565b9061110661036361110d9261165e565b9061ff009060081b6110ec565b9061169b61036361110d92151590565b825461167e565b6103f290611309565b6020810192916103ba91906116a2565b6117016116cb6112636000610695565b9182806117a3575b801561175e575b6116e3906115fb565b826116f86116f16001611309565b600061166e565b61174d57612547565b61170757565b61171260008061168b565b7f7f26b83ff96e1f2b6a682f133852f6798a09c465da95921460cefb384740249861173c60405190565b806117486001826116ab565b0390a1565b6117596001600061168b565b612547565b5061177361126361176e3061084b565b6146af565b80156116da57506116e36117876000610586565b61179b6117946001611309565b9160ff1690565b1490506116da565b506117ae6000610586565b6117bb6117946001611309565b106116d3565b903590601e1936829003018212156102e757018035906001600160401b0382116102e757602001913682900383136102e757565b610363913691610915565b9190610344816118178161034e9560209181520190565b8095610909565b6040808252600490820152634e616d6560e01b6060820152610363929091608083015b926020818503910152611800565b60408082526006908201526514de5b589bdb60d21b606082015261036392909160808301611841565b35610363816103bc565b6040808252600e908201526d496e697469616c20537570706c7960901b606082015291906103ba90602060808501940152565b6040808252600a90820152694d617820537570706c7960b01b606082015291906103ba90602060808501940152565b6040808252600c908201526b50726573616c65205261746560a01b606082015291906103ba90602060808501940152565b356103638161039d565b60408082526005908201526427bbb732b960d91b606082015291906103ba906020608085015b9401906105e9565b604080825260169082015275141b185d199bdc9b4811995948149958da5c1a595b9d60521b606082015291906103ba90602060808501611945565b600a8152692b30b634b230ba34b7b760b11b602082015260400190565b604080825261036391906119ba908201611988565b9060208183039101526011815270436865636b696e6720737570706c69657360781b602082015260400190565b156119ee57565b60405162461bcd60e51b8152602060048201526024808201527f4d617820737570706c79206d757374206265203e3d20696e697469616c20737560448201526370706c7960e01b6064820152608490fd5b60408082526103639190611a54908201611988565b9060208183039101526015815274436865636b696e672070726573616c65207261746560581b602082015260400190565b15611a8c57565b60405162461bcd60e51b8152602060048201526014602482015273496e76616c69642070726573616c65207261746560601b6044820152606490fd5b60408082526103639190611add908201611988565b906020818303910152600e81526d436865636b696e672074696d657360901b602082015260400190565b15611b0e57565b60405162461bcd60e51b815260206004820152601c60248201527b53746172742074696d65206d75737420626520696e2066757475726560201b6044820152606490fd5b15611b5957565b60405162461bcd60e51b815260206004820152602160248201527f456e642074696d65206d7573742062652061667465722073746172742074696d6044820152606560f81b6064820152608490fd5b600b81526a21b0b631bab630ba34b7b760a91b602082015260400190565b60408082526103639190611bdb908201611ba8565b9060208183039101526018815277436f6d707574696e672070726573616c6520746f6b656e7360401b602082015260400190565b818102929181159184041417156114b757565b634e487b7160e01b600052601260045260246000fd5b90611c42565b9190565b908115611c4d570490565b611c22565b6040808252600e908201526d50726573616c6520546f6b656e7360901b606082015291906103ba90602060808501940152565b60408082526103639190611c9a908201611ba8565b906020818303910152601e81527f436f6d707574696e672072657175697265642070726573616c65206361700000602082015260400190565b604080825260149082015273052657175697265642050726573616c65204361760641b606082015291906103ba90602060808501940152565b604080825260149082015273050726f76696465642050726573616c65204361760641b606082015291906103ba90602060808501940152565b15611d4c57565b60405162461bcd60e51b815260206004820152602860248201527f50726573616c652063617020746f6f206c6f7720666f7220746f6b656e20616c6044820152673637b1b0ba34b7b760c11b6064820152608490fd5b600d81526c21b7b73334b3bab930ba34b7b760991b602082015260400190565b60408082526103639190611dd7908201611da2565b906020818303910152601881527753657474696e6720746f6b656e20706172616d657465727360401b602082015260400190565b90600019906110ec565b90611e2561036361110d92610df6565b8254611e0b565b3561036381610425565b60408082526103639190611e4b908201611da2565b906020818303910152601a81527953657474696e672070726573616c6520706172616d657465727360301b602082015260400190565b6103636101606108d9565b634e487b7160e01b600052600060045260246000fd5b6009611f946101406103ba94611ec2611ebc600083015190565b86611e15565b611ed9611ed0602083015190565b60018701611e15565b611ef0611ee7604083015190565b60028701611e15565b611f07611efe606083015190565b60038701611e15565b611f1e611f15608083015190565b60048701611e15565b611f35611f2c60a083015190565b60058701611e15565b611f4c611f4360c083015190565b60068701611e15565b611f7760078601611f69611f6360e0850151151590565b826110f6565b61010083015115159061168b565b611f8f611f8661012083015190565b60088701611e15565b015190565b9101611e15565b906103ba91611ea2565b60408082526103639190611fba908201611da2565b906020818303910152601c81527b53657474696e67206c697175696469747920706172616d657465727360201b602082015260400190565b61036360806108d9565b600361203860606103ba94612015611ebc600083015190565b612023611ed0602083015190565b612031611ee7604083015190565b0151151590565b91016110f6565b906103ba91611ffc565b6040808252610363919061205e908201611da2565b906020818303910152601f81527f53657474696e6720706c6174666f726d2066656520706172616d657465727300602082015260400190565b61036360e06108d9565b906103f290610391565b6103639051610391565b906001600160a01b03906110ec565b906120d461036361110d9261084b565b82546120b5565b6006611f9460c06103ba946120fb6120f5600083016120ab565b866120c4565b612109611ed0602083015190565b6121226121196040830151151590565b600287016110f6565b612130611efe606083015190565b61213e611f15608083015190565b611f8f611f2c60a083015190565b906103ba916120db565b6040808252610363919061216b908201611ba8565b906020818303910152601b81527a436f6d707574696e6720746f6b656e20616c6c6f636174696f6e7360281b602082015260400190565b6040808252600f908201526e2a32b0b69020b63637b1b0ba34b7b760891b606082015291906103ba90602060808501940152565b60408082526014908201527326b0b935b2ba34b7339020b63637b1b0ba34b7b760611b606082015291906103ba90602060808501940152565b6040808252601690820152752232bb32b637b836b2b73a1020b63637b1b0ba34b7b760511b606082015291906103ba90602060808501940152565b6040808252610363919061225f908201611da2565b906020818303910152601c81527b53657474696e672075702076657374696e67207363686564756c657360201b602082015260400190565b61036360c06108d9565b6122ab600461142b565b635465616d60e01b602082015290565b6103636122a1565b9160001960089290920291821b911b6110ec565b91906122e861036361110d93610df6565b9083546122c3565b6103ba916000916122d7565b818110612307575050565b8061231560006001936122f0565b016122fc565b9190601f811161232a57505050565b61233c6103ba93600052602060002090565b906020601f84018190048301931061235e575b6020601f9091010401906122fc565b909150819061234f565b9060001960089091021c191690565b8161238191612368565b906002021790565b90612392815190565b906001600160401b0382116108d4576123b5826123af8554610ad0565b8561231b565b602090601f83116001146123e35761110d9291600091836123d8575b5050612377565b0151905038806123d1565b601f198316916123f885600052602060002090565b9260005b8181106124375750916002939185600196941061241d575b50505002019055565b61242d910151601f841690612368565b9055388080612414565b919360206001819287870151815501950192016123fc565b906103ba91612389565b6005611f9460a06103ba94612478612472600083015190565b8661244f565b612486611ed0602083015190565b612494611ee7604083015190565b6124ac6124a3606083016120ab565b600387016120c4565b611f8f611f15608083015190565b91906124c9576103ba91612459565b611e8c565b80549190600160401b8310156108d457826124f19160016103ba95018155610a92565b906124ba565b612501600961142b565b684d61726b6574696e6760b81b602082015290565b6103636124f7565b612528600b61142b565b6a11195d995b1bdc1b595b9d60aa1b602082015290565b61036361251e565b7ff506dd1f37a395cd46449e11ae828cb6812f8b31ad36afbeb191da78d153a574908161257360405190565b60408082526005908201526414dd185c9d60da1b6060820152608060208201819052601890820152772132b3b4b73734b7339034b734ba34b0b634bd30ba34b7b760411b60a082015260c090a1806125cb81806117c1565b6020840192916125db84866117c1565b926125e691926117f5565b916125f0916117f5565b6125f991614742565b612601614764565b612609614784565b612611614799565b61261b90836117c1565b7ff0cbeeb2353f6efdd2e429c8d7d2f4de6d1e80fcb80e2b25087503a13d9af33a9291839161264960405190565b918291612656918361181e565b0390a161266390836117c1565b604051918291612673918361184f565b0390a1604081019061268482611878565b907f74cd6951a31b2a871b7ae11be2f888702548cfa1d9cc6a9fdb5eddc4e340e06080926126b160405190565b6126bc819282611882565b0390a16060810190826126ce83611878565b6040516126dc8192826118b5565b0390a160e0810192806126ee85611878565b6040516126fc8192826118e4565b0390a1608082019261270d84611915565b927f09bf9b59d553e3363dcba6c1a6a6b896c7b93040e0f4cb5dcb97c43f37ad5e53809461273a60405190565b61274581928261191f565b0390a16101e081019361275785611915565b60405161276581928261194d565b0390a18761277260405190565b8061277c816119a5565b0390a161278882611878565b61279188611878565b111561279c906119e7565b876127a660405190565b806127b081611a3f565b0390a16127bc86611878565b966000976127c989610df6565b106127d390611a85565b886127dd60405190565b806127e781611ac8565b0390a1876101608301956127fa87611878565b421061280590611b07565b61018084019461281486611878565b61281d89611878565b1061282790611b52565b8b61283160405190565b8061283b81611bc6565b0390a161284784611878565b6128546102e08701611878565b61285d91611c0f565b956127109661286b88610df6565b61287491611c38565b8861287e60405190565b806128898482611c52565b0390a18d61289660405190565b806128a081611c85565b0390a16128b4670de0b6b3a7640000610df6565b6128bd91611c0f565b6128c68c611878565b6128cf91611c38565b91886128da60405190565b806128e58682611cd3565b0390a1610140870192896128f885611878565b604051612906819282611d0c565b0390a161291284611878565b101561291d90611d45565b8d61292760405190565b8061293181611dc2565b0390a161293d90611878565b6129499061012d611e15565b61295560a08701611e2c565b6129619061012e6110f6565b61296d60c08701611e2c565b6129799061012e61168b565b8c61298360405190565b8061298d81611e36565b0390a161299982611878565b6129a36002610df6565b6129ac91611c38565b916129b690611878565b9a6129c46101008801611878565b906129d26101208901611878565b906129dc90611878565b916129e68c611878565b936129f090611878565b946129f9611e81565b9e8f91612a06908a840152565b60208201526040015260608d015260808c015260a08b015260c08a015281151560e08a018190526101008a0152612a3c82610df6565b98612a498a610120830152565b612a558a610140830152565b612a6190610136611f9b565b8a612a6b60405190565b80612a7581611fa5565b0390a1612a856101a08501611878565b612a926101c08601611878565b612a9a611ff2565b91612aa59085840152565b6020820152612ab58a6040830152565b8215156060820152612ac99061014961203f565b8a612ad360405190565b80612add81612049565b0390a1612ae990611915565b612af66102008501611878565b612b036102208601611e2c565b612b106102408701611878565b90612b1e6102608801611878565b92612b288b611878565b94612b31612097565b96870190612b3e916120a1565b6020860152151560408501526060840152608083015260a0820152612b648860c0830152565b612b709061014261214c565b88612b7a60405190565b6040808252600790820152664d696e74696e6760c81b6060820152608060208201819052601790820152764372656174696e6720696e697469616c20737570706c7960481b60a082015260c090a1612bd13061084b565b612bda82611878565b612be3916147ed565b88612bed60405190565b80612bf781612156565b0390a1612c0381611878565b612c106102808401611878565b612c1991611c0f565b612c2284610df6565b612c2b91611c38565b612c379061012f611e15565b612c4081611878565b612c4d6102a08401611878565b612c5691611c0f565b612c5f84610df6565b612c6891611c38565b612c7490610130611e15565b612c7d90611878565b906102c001612c8b90611878565b612c9491611c0f565b90612c9e90610df6565b612ca791611c38565b612cb390610131611e15565b80612cbf61012f610571565b604051612ccd8192826121a2565b0390a180612cdc610130610571565b604051612cea8192826121d6565b0390a1612cf8610131610571565b604051612d0681928261220f565b0390a184612d1360405190565b80612d1d8161224a565b0390a182612d2c61012f610571565b1193612dc993612dce95612f36575b80612d4a610363610130610571565b11612eba575b80612d5f610363610131610571565b11612e27575b50505083612d7260405190565b6040808252600c908201526b2334b730b634bd30ba34b7b760a11b60608201526080602082018190526016908201527505472616e7366657272696e67206f776e6572736869760541b60a082015260c090a1611915565b61485e565b6040518061174881604080825260089082015267436f6d706c65746560c01b606082015260806020820181905260179082015276125b9a5d1a585b1a5e985d1a5bdb88199a5b9a5cda1959604a1b60a082015260c00190565b612ead612eb293612ea6612e3a61013490565b93612e9f612e49610131610571565b93612e81612e5f612e598c611915565b92611878565b95612e7a612e6b612297565b9a612e7461253f565b908c0152565b60208a0152565b612e96612e8f61016d610df6565b60408a0152565b606088016120a1565b6080860152565b60a0840152565b6124ce565b388080612d65565b612f31610134612ecb610130610571565b90612ead612ed888611915565b612f26612ee489611878565b91612f09612ef0612297565b96612f02612efc612516565b8c8a0152565b6020880152565b612f1d612f1660b4610df6565b6040880152565b606086016120a1565b612ea6866080860152565b612d50565b612f86610134612f4761012f610571565b90612ead612f5488611915565b612f26612f6089611878565b91612f78612f6c612297565b96612f02612efc6122bb565b612f1d612f1661016d610df6565b612d3b565b6103ba906116bb565b906103ba91612fa161449d565b612fea565b15612fad57565b60405162461bcd60e51b8152602060048201526015602482015274151a5b59481b1bd8dac81b9bdd08195b98589b1959605a1b6044820152606490fd5b6111e46130437fa9353e70f07f31e7f4e16464f45e189cbd22826780a5abe4da8303652a86960a9261302561302061012e610695565b612fa6565b6111d561303286426114aa565b61303e83610133610854565b611e15565b9261049c60405190565b906103ba91612f94565b61305f61449d565b6103ba61314b565b1561306e57565b60405162461bcd60e51b8152602060048201526015602482015274141c995cd85b19481b9bdd08199a5b985b1a5e9959605a1b6044820152606490fd5b156130b257565b60405162461bcd60e51b81526020600482015260146024820152734e6f2066756e647320746f20776974686472617760601b6044820152606490fd5b3d15613108576130fd3d61142b565b903d6000602084013e565b606090565b1561311457565b60405162461bcd60e51b815260206004820152600f60248201526e151c985b9cd9995c8819985a5b1959608a1b6044820152606490fd5b61315e61315961013d610695565b613067565b6103ba60008061316d3061084b565b613184813161317e611c3e85610df6565b116130ab565b6131926111d56111d561390e565b903161319d60405190565b90818003925af16131ac6130ee565b5061310d565b6103ba613057565b6112e3610363916131c9600090565b506033610854565b6131d961449d565b6103ba6131f7565b6103916103636103639290565b610363906131e1565b6103ba612dc960006131ee565b6103ba6131d1565b61321d90613218614907565b6132fd565b6103ba614939565b1561322c57565b60405162461bcd60e51b8152602060048201526016602482015275092dcecc2d8d2c840e6c6d0cac8ead8ca40d2dcc8caf60531b6044820152606490fd5b1561327157565b60405162461bcd60e51b815260206004820152600f60248201526e4e6f742062656e656669636961727960881b6044820152606490fd5b156132af57565b60405162461bcd60e51b81526020600482015260136024820152724e6f20746f6b656e7320636c61696d61626c6560681b6044820152606490fd5b9081526040810192916103ba9160200152565b7f42106f9c7b551eea618b396312146946940a732a68f7b8f3c80514e30cc81cc16133466133428361013461333d613336610363835490565b8310613225565b610a92565b5090565b61336c61335d61335860038401610560565b610391565b61336633610391565b1461326a565b6133a4600461337a85613461565b926133906133886000610df6565b855b116132a8565b0161339e836114d083610571565b90611e15565b6133b8816133b13061084b565b3390614a51565b6133c13361084b565b926111e46133ce60405190565b928392836132ea565b6103ba9061320c565b906103ba612ea660056133f1612297565b946134026133fe82610b88565b8752565b613411612f0260018301610571565b613420612f1660028301610571565b61342f612e9660038301610560565b61344561343e60048301610571565b6080880152565b01610571565b610363906133e0565b919082039182116114b757565b61347961347f91613470600090565b50610134610a92565b5061344b565b60a0810161348e610363825190565b421061351157516134a0905b42613454565b906134c16134af604083015190565b6134bb62015180610df6565b90611c0f565b91828110156134fb5760806134ef610363946134ea6134f5946134e5602088015190565b611c0f565b611c38565b92015190565b90613454565b5061036391506134f560806134ef602084015190565b50506103636000610df6565b906103ba93929161352c61449d565b61361f565b1561353857565b60405162461bcd60e51b8152602060048201526013602482015272496e76616c69642062656e656669636961727960681b6044820152606490fd5b1561357a57565b60405162461bcd60e51b81526020600482015260126024820152710416d6f756e74206d757374206265203e20360741b6044820152606490fd5b156135bb57565b60405162461bcd60e51b81526020600482015260126024820152710506572696f64206d757374206265203e20360741b6044820152606490fd5b604090610c576136176103ba959796946060840190848203600086015261031a565b966020830152565b6111e46136e87f586635f20887672497479579f6f76516cd0f238e8d01245d26e6b971cec9184794956111d5600061366c61365c613358836131ee565b61366585610391565b1415613531565b61367f61367882610df6565b8811613573565b61369261368b82610df6565b8a116135b4565b6101346136dd6136d66136a3612297565b936136ae8a82870152565b6136b98b6020870152565b6136c48d6040870152565b6136d187606087016120a1565b610df6565b6080840152565b612ead4260a0840152565b946136f260405190565b938493846135f5565b906103ba93929161351d565b61370f614907565b61321d6137dd565b1561371e57565b60405162461bcd60e51b8152602060048201526011602482015270139bdd08199959481c9958da5c1a595b9d607a1b6044820152606490fd5b1561375e57565b60405162461bcd60e51b8152602060048201526012602482015271105b1b081d1bdad95b9cc818db185a5b595960721b6044820152606490fd5b1561379f57565b60405162461bcd60e51b815260206004820152601660248201527510db1a5999881c195c9a5bd9081b9bdd08195b99195960521b6044820152606490fd5b6103ba6101426138016137f261335883610560565b6137fb33610391565b14613717565b6138c7600682019161381283610571565b90613830600182019261382a611c3e61036386610571565b10613757565b61383c60028201610586565b156138f957600361387961349a600584016112e361387161036361385f84610571565b61386b60048a01610571565b906114aa565b421015613798565b91019061388861036383610571565b81106138d057505061389c6138a591610571565b6134f584610571565b915b6138ba6138b46000610df6565b8461338a565b61339e836114d083610571565b6133b13061084b565b906138ed6138e761389c936134e56138f396610571565b91610571565b90611c38565b916138a7565b5061389c6138f391610571565b6103ba613707565b6103636065610560565b61036360376110b2565b61392a61449d565b6103ba6139f7565b1561393957565b60405162461bcd60e51b815260206004820152601360248201527210d85b9b9bdd08199a5b985b1a5e99481e595d606a1b6044820152606490fd5b1561397b57565b60405162461bcd60e51b8152602060048201526011602482015270105b1c9958591e48199a5b985b1a5e9959607a1b6044820152606490fd5b156139bb57565b60405162461bcd60e51b815260206004820152601460248201527314dbd99d0818d85c081b9bdd081c995858da195960621b6044820152606490fd5b7fedfde254cb8ed39d650c9a34251c59d6817fae4cc876cc2ce76669976cf102ee610136613a2961036361013c610571565b42118015613b58575b613a3b90613932565b613ab86009613ab160078401613a5b613a5661126383610695565b613974565b613a8c60016008870192613a87613a7185610571565b613a80611c3e6103638c610571565b10156139b4565b61168b565b610149613a9881610571565b613aa5611c3e6000610df6565b11613ac5575b50610571565b9201610571565b906117486133ce60405190565b7fcb75aa8347c098d414422e8cafbbe4e2c1a229f5b27bf425984b2b9792aa787a90613b42613b0e613b04613afb888b01610571565b6134bb85610571565b6138ed6064610df6565b916112e360016003613b2d613b276134af848701610571565b426114aa565b93613b3c600282019586611e15565b016110f6565b90613b4f6133ce60405190565b0390a138613aab565b50613a3b613b6860088301610571565b613b7a611c3e61036360018601610571565b10159050613a32565b6103ba613922565b15613b9257565b60405162461bcd60e51b815260206004820152602560248201527f45524332303a2064656372656173656420616c6c6f77616e63652062656c6f77604482015264207a65726f60d81b6064820152608490fd5b6110d091906114d53392613bf9838561425b565b613c0582821015613b8b565b0390565b610363929190613c2461126761126361125e33610132610854565b906103639291613c3561012e610695565b15613c4f57613c4f6112e86103636112e333610133610854565b506103639190614ad9565b61036391906000613c09565b15613c6d57565b60405162461bcd60e51b815260206004820152600d60248201526c092dcecc2d8d2c840d2dcc8caf609b1b6044820152606490fd5b613479613cca91613cb1606090565b5061013461333d613cc3610363835490565b8310613c66565b80519091613cd9602084015190565b92613ce5604082015190565b92613cf2606083016120ab565b92613d0960a0613d03608086015190565b94015190565b91959493929190565b15613d1957565b60405162461bcd60e51b8152602060048201526013602482015272141c995cd85b19481b9bdd081cdd185c9d1959606a1b6044820152606490fd5b15613d5b57565b60405162461bcd60e51b815260206004820152600d60248201526c141c995cd85b1948195b991959609a1b6044820152606490fd5b15613d9757565b60405162461bcd60e51b8152602060048201526011602482015270141c995cd85b1948199a5b985b1a5e9959607a1b6044820152606490fd5b613e1c613e176112636007610136613df7613def61036361013b610571565b421015613d12565b613e11613e0961036360068401610571565b421115613d54565b01610695565b613d90565b6103ba613e3461126761126361125e33610132610854565b6103ba613e3f614907565b61321d614083565b15613e4e57565b60405162461bcd60e51b81526020600482015260166024820152752132b637bb9036b4b71031b7b73a3934b13aba34b7b760511b6044820152606490fd5b15613e9357565b60405162461bcd60e51b815260206004820152601660248201527520b137bb329036b0bc1031b7b73a3934b13aba34b7b760511b6044820152606490fd5b15613ed857565b60405162461bcd60e51b815260206004820152601060248201526f12185c990818d85c081c995858da195960821b6044820152606490fd5b15613f1757565b60405162461bcd60e51b815260206004820152600f60248201526e139bdd081dda1a5d195b1a5cdd1959608a1b6044820152606490fd5b610c576103ba94613faf608094989795613fa8613fa060a087018781036000890152601f81527f43616c63756c6174696e6720636f6e747269627574696f6e20746f6b656e7300602082015260400190565b9a6020870152565b6040850152565b6060830152565b15613fbd57565b60405162461bcd60e51b8152602060048201526014602482015273125b9d985b1a59081d1bdad95b88185b5bdd5b9d60621b6044820152606490fd5b1561400057565b60405162461bcd60e51b8152602060048201526013602482015272496e73756666696369656e7420746f6b656e7360681b6044820152606490fd5b1561404257565b60405162461bcd60e51b815260206004820152601960248201527813585e0818dbdb9d1c9a589d5d1a5bdb88195e18d959591959603a1b6044820152606490fd5b6141f76101366140a261409a610363610138610571565b341015613e47565b61339e60038201916140c16140b961036385610571565b341115613e8c565b6141ee600882016141ce60096140e06140d984610571565b34906114aa565b946140ff60018201966140f8611c3e6103638a610571565b1115613ed1565b61410b60078201610586565b614237575b7fd76bfb75ff00c93b613b0c6bba32b0deadca4aa295ce325fdba1312379a7682760048201966141546138e761414e6141488b610571565b34611c0f565b99610571565b9061416d61416160405190565b92839234908c85613f4e565b0390a161418461417d6000610df6565b8711613fb6565b01956141af614196866114d08a610571565b6141a8611c3e610363610ca53061084b565b1115613ff9565b6141e7611c3e6103636141e16112e36101406141da6141ce3383610854565b61339e6140d982610571565b3390610854565b93610571565b111561403b565b6114d083610571565b6142003361084b565b7f3d0ab7e8209f975ae8d4c319005ac3a64cf3b4ee6503d416abb001d442eb1abc61422a60405190565b34815280602081016111e4565b61424e61424961125e33610141610854565b613f10565b614110565b6103ba613dd0565b61036391610e226112e39261426e600090565b506034610854565b6103ba9061428261449d565b6142e2565b1561428e57565b60405162461bcd60e51b815260206004820152602660248201527f4f776e61626c653a206e6577206f776e657220697320746865207a65726f206160448201526564647265737360d01b6064820152608490fd5b6103ba90612dc96142f661335860006131ee565b6142ff83610391565b1415614287565b6103ba90614276565b1561431657565b60405162461bcd60e51b8152602060048201526024808201527f45524332303a20617070726f76652066726f6d20746865207a65726f206164646044820152637265737360e01b6064820152608490fd5b1561436e57565b60405162461bcd60e51b815260206004820152602260248201527f45524332303a20617070726f766520746f20746865207a65726f206164647265604482015261737360f01b6064820152608490fd5b61444861443e6144387f8c5be1e5ebec7d5bd14f71427d1e84f3dd0314c0f7b2291e5b200ac8c7c3b925936144256144156143f960006131ee565b61335861440582610391565b61440e86610391565b141561430f565b61441e88610391565b1415614367565b6111d58761303e88610e22856034610854565b9361084b565b9361049c60405190565b0390a3565b1561445457565b60405162461bcd60e51b815280611186600482016020808252818101527f4f776e61626c653a2063616c6c6572206973206e6f7420746865206f776e6572604082015260600190565b6103ba6144a861390e565b6144b46113ff33610391565b1461444d565b6110d09291906144cb833383614b30565b614a51565b61036360006144e06103636115bf565b01610560565b506103ba61449d565b6103ba906144e6565b6103637f4910fdfa16fed3260ed0e7147f7cc6da11a60208b5b9406d12a635614ffd9143610df6565b905051906103ba826103bc565b906020828203126102e75761036391614521565b1561454957565b60405162461bcd60e51b815260206004820152602960248201527f45524331393637557067726164653a20756e737570706f727465642070726f786044820152681a58589b195555525160ba1b6064820152608490fd5b91906145b860006145b26103636144f8565b01610586565b156145c85750506103ba90614c09565b6145d46111d58461084b565b9260206145e060405190565b6352d1902d60e01b815294859060049082905afa6000948161467e575b5061465e5760405162461bcd60e51b815260206004820152602e60248201527f45524331393637557067726164653a206e657720696d706c656d656e7461746960448201526d6f6e206973206e6f74205555505360901b6064820152608490fd5b6146796103ba94614673611c3e6103636115bf565b14614542565b614b68565b6146a191955060203d6020116146a8575b61469981836108b3565b81019061452e565b93386145fd565b503d61468f565b3b6146bd611c3e6000610df6565b1190565b156146c857565b60405162461bcd60e51b815260206004820152602b60248201527f496e697469616c697a61626c653a20636f6e7472616374206973206e6f74206960448201526a6e697469616c697a696e6760a81b6064820152608490fd5b906103ba916147386147336000610695565b6146c1565b906103ba91614c59565b906103ba91614721565b6147596147336000610695565b6103ba6103ba614c7a565b6103ba61474c565b6147796147336000610695565b6103ba6103ba614c8f565b6103ba61476c565b6103ba6147336000610695565b6103ba61478c565b156147a857565b60405162461bcd60e51b815260206004820152601f60248201527f45524332303a206d696e7420746f20746865207a65726f2061646472657373006044820152606490fd5b600080516020614e3c83398151915261444861443e61443861480f60006131ee565b61482b61481b82610391565b61482488610391565b14156147a1565b61484361483c886114d06035610571565b6035611e15565b6111d5614851876033610854565b61339e8961034e83610571565b61487f61487961486e6065610560565b6111d58460656120c4565b9161084b565b907f8be0079c531659141344cd1fd0a4f28419497f9722a3daafe3b4186f6b6457e06148aa60405190565b8080614448565b6103636002610df6565b156148c257565b60405162461bcd60e51b815260206004820152601f60248201527f5265656e7472616e637947756172643a207265656e7472616e742063616c6c006044820152606490fd5b6103ba6149146097610571565b61492861491f6148b1565b918214156148bb565b6097611e15565b6103636001610df6565b6103ba61492861492f565b1561494b57565b60405162461bcd60e51b815260206004820152602560248201527f45524332303a207472616e736665722066726f6d20746865207a65726f206164604482015264647265737360d81b6064820152608490fd5b156149a557565b60405162461bcd60e51b815260206004820152602360248201527f45524332303a207472616e7366657220746f20746865207a65726f206164647260448201526265737360e81b6064820152608490fd5b156149fd57565b60405162461bcd60e51b815260206004820152602660248201527f45524332303a207472616e7366657220616d6f756e7420657863656564732062604482015265616c616e636560d01b6064820152608490fd5b61444861443e614438600080516020614e3c83398151915293614aa6614a96614a7a60006131ee565b613358614a8682610391565b614a8f86610391565b1415614944565b614a9f88610391565b141561499e565b6111d5614851876033610e22614acf8c614ac36112e38986610854565b613c05828210156149f6565b61303e8784610854565b6110d0919033614a51565b15614aeb57565b60405162461bcd60e51b815260206004820152601d60248201527f45524332303a20696e73756666696369656e7420616c6c6f77616e63650000006044820152606490fd5b90614b3b818361425b565b6000198103614b4b575b50505050565b614b5f936114d591613c0582821015614ae4565b38808080614b45565b91614b7283614c97565b8151614b81611c3e6000610df6565b11908115614b9f575b50614b93575050565b614b9c91614d20565b50565b905038614b8a565b15614bae57565b60405162461bcd60e51b815260206004820152602d60248201527f455243313936373a206e657720696d706c656d656e746174696f6e206973206e60448201526c1bdd08184818dbdb9d1c9858dd609a1b6064820152608490fd5b6103ba90614c1e614c19826146af565b614ba7565b6000614c2b6103636115bf565b016120c4565b906103ba91614c436147336000610695565b90614c526103ba92603661244f565b603761244f565b906103ba91614c31565b614c706147336000610695565b6103ba803361485e565b6103ba614c63565b61321d6147336000610695565b6103ba614c82565b614ca4906111d581614c09565b7fbc7cd75a20ee27fd9adebab32041f755214dbc6bffa90cc0225b39da2e5c2d3b614cce60405190565b80806111e4565b614cdf602761142b565b7f416464726573733a206c6f772d6c6576656c2064656c65676174652063616c6c6020820152660819985a5b195960ca1b604082015290565b610363614cd5565b61036391614d2c614d18565b916000806103639493614d3d606090565b50602081519101845af4614d4f6130ee565b91614da1565b15614d5c57565b60405162461bcd60e51b815260206004820152601d60248201527f416464726573733a2063616c6c20746f206e6f6e2d636f6e74726163740000006044820152606490fd5b91929015614dd357508151614db9611c3e6000610df6565b14614dc2575090565b614dce610363916146af565b614d55565b8290614ddd825190565b614dea611c3e6000610df6565b1115614df95750805190602001fd5b61118690614e0660405190565b62461bcd60e51b81529182916004830161035256fe46756e6374696f6e206d7573742062652063616c6c6564207468726f75676820ddf252ad1be2c89b69c2b068fc378daa952ba7f163c4a11628f55a4df523b3efa2646970667358221220143813a470fb3a1be41c05b42b4dce577edf2f9111fefb163cdab0852a4292dc64736f6c63430008160033","opcodes":"PUSH1 0xA0 PUSH1 0x40 MSTORE CALLVALUE PUSH3 0x36 JUMPI PUSH3 0x14 PUSH3 0x3B JUMP JUMPDEST PUSH1 0x40 MLOAD PUSH2 0x4E91 PUSH3 0x93 DUP3 CODECOPY PUSH1 0x80 MLOAD DUP2 DUP2 DUP2 PUSH2 0x13D3 ADD MSTORE PUSH2 0x1590 ADD MSTORE PUSH2 0x4E91 SWAP1 RETURN JUMPDEST PUSH1 0x0 DUP1 REVERT JUMPDEST PUSH3 0x45 PUSH3 0x82 JUMP JUMPDEST JUMP JUMPDEST PUSH3 0x5D SWAP1 PUSH3 0x60 SWAP1 PUSH1 0x1 PUSH1 0x1 PUSH1 0xA0 SHL SUB AND DUP3 JUMP JUMPDEST SWAP1 JUMP JUMPDEST PUSH1 0x1 PUSH1 0x1 PUSH1 0xA0 SHL SUB AND SWAP1 JUMP JUMPDEST PUSH3 0x5D SWAP1 PUSH3 0x47 JUMP JUMPDEST PUSH3 0x5D SWAP1 PUSH3 0x6C JUMP JUMPDEST PUSH3 0x8D ADDRESS PUSH3 0x77 JUMP JUMPDEST PUSH1 0x80 MSTORE JUMP INVALID PUSH1 0x80 PUSH1 0x40 MSTORE PUSH1 0x4 CALLDATASIZE LT ISZERO PUSH2 0x12 JUMPI PUSH1 0x0 DUP1 REVERT JUMPDEST PUSH1 0x0 CALLDATALOAD PUSH1 0xE0 SHR DUP1 PUSH4 0x6FDDE03 EQ PUSH2 0x2E2 JUMPI DUP1 PUSH4 0x95EA7B3 EQ PUSH2 0x2DD JUMPI DUP1 PUSH4 0xC424284 EQ PUSH2 0x2D8 JUMPI DUP1 PUSH4 0x13083617 EQ PUSH2 0x2D3 JUMPI DUP1 PUSH4 0x153B0D1E EQ PUSH2 0x2CE JUMPI DUP1 PUSH4 0x15F0C220 EQ PUSH2 0x2C9 JUMPI DUP1 PUSH4 0x18160DDD EQ PUSH2 0x2C4 JUMPI DUP1 PUSH4 0x23B872DD EQ PUSH2 0x2BF JUMPI DUP1 PUSH4 0x26232A2E EQ PUSH2 0x2BA JUMPI DUP1 PUSH4 0x2C80A89C EQ PUSH2 0x2B5 JUMPI DUP1 PUSH4 0x2EDF0869 EQ PUSH2 0x2B0 JUMPI DUP1 PUSH4 0x313CE567 EQ PUSH2 0x2AB JUMPI DUP1 PUSH4 0x3659CFE6 EQ PUSH2 0x2A6 JUMPI DUP1 PUSH4 0x39509351 EQ PUSH2 0x2A1 JUMPI DUP1 PUSH4 0x42E94C90 EQ PUSH2 0x29C JUMPI DUP1 PUSH4 0x4F1EF286 EQ PUSH2 0x297 JUMPI DUP1 PUSH4 0x52D1902D EQ PUSH2 0x292 JUMPI DUP1 PUSH4 0x56F3E237 EQ PUSH2 0x28D JUMPI DUP1 PUSH4 0x644FAB74 EQ PUSH2 0x288 JUMPI DUP1 PUSH4 0x64A88D68 EQ PUSH2 0x283 JUMPI DUP1 PUSH4 0x6816521A EQ PUSH2 0x27E JUMPI DUP1 PUSH4 0x6D3CBE21 EQ PUSH2 0x279 JUMPI DUP1 PUSH4 0x70A08231 EQ PUSH2 0x274 JUMPI DUP1 PUSH4 0x715018A6 EQ PUSH2 0x26F JUMPI DUP1 PUSH4 0x7935510B EQ PUSH2 0x26A JUMPI DUP1 PUSH4 0x7D8CA242 EQ PUSH2 0x265 JUMPI DUP1 PUSH4 0x7F76B223 EQ PUSH2 0x260 JUMPI DUP1 PUSH4 0x8BACF014 EQ PUSH2 0x25B JUMPI DUP1 PUSH4 0x8BDC444D EQ PUSH2 0x256 JUMPI DUP1 PUSH4 0x8DA5CB5B EQ PUSH2 0x251 JUMPI DUP1 PUSH4 0x91ED2596 EQ PUSH2 0x24C JUMPI DUP1 PUSH4 0x95D89B41 EQ PUSH2 0x247 JUMPI DUP1 PUSH4 0x9B19251A EQ PUSH2 0x242 JUMPI DUP1 PUSH4 0xA0A6E940 EQ PUSH2 0x23D JUMPI DUP1 PUSH4 0xA457C2D7 EQ PUSH2 0x238 JUMPI DUP1 PUSH4 0xA9059CBB EQ PUSH2 0x233 JUMPI DUP1 PUSH4 0xBEB8F883 EQ PUSH2 0x22E JUMPI DUP1 PUSH4 0xBFFB691D EQ PUSH2 0x229 JUMPI DUP1 PUSH4 0xCBA4CBD3 EQ PUSH2 0x224 JUMPI DUP1 PUSH4 0xD4EF85CC EQ PUSH2 0x21F JUMPI DUP1 PUSH4 0xD5ABEB01 EQ PUSH2 0x21A JUMPI DUP1 PUSH4 0xD7BB99BA EQ PUSH2 0x215 JUMPI DUP1 PUSH4 0xDBAC26E9 EQ PUSH2 0x210 JUMPI DUP1 PUSH4 0xDD62ED3E EQ PUSH2 0x20B JUMPI PUSH4 0xF2FDE38B SUB PUSH2 0x2E7 JUMPI PUSH2 0x109A JUMP JUMPDEST PUSH2 0x107E JUMP JUMPDEST PUSH2 0x1047 JUMP JUMPDEST PUSH2 0x1023 JUMP JUMPDEST PUSH2 0x1008 JUMP JUMPDEST PUSH2 0xFCA JUMP JUMPDEST PUSH2 0xF47 JUMP JUMPDEST PUSH2 0xF1F JUMP JUMPDEST PUSH2 0xEF7 JUMP JUMPDEST PUSH2 0xEDB JUMP JUMPDEST PUSH2 0xEBF JUMP JUMPDEST PUSH2 0xEA7 JUMP JUMPDEST PUSH2 0xE8C JUMP JUMPDEST PUSH2 0xE43 JUMP JUMPDEST PUSH2 0xE27 JUMP JUMPDEST PUSH2 0xDB3 JUMP JUMPDEST PUSH2 0xD8B JUMP JUMPDEST PUSH2 0xD6F JUMP JUMPDEST PUSH2 0xD06 JUMP JUMPDEST PUSH2 0xCDA JUMP JUMPDEST PUSH2 0xCC2 JUMP JUMPDEST PUSH2 0xCAA JUMP JUMPDEST PUSH2 0xC8F JUMP JUMPDEST PUSH2 0xC5B JUMP JUMPDEST PUSH2 0xA4D JUMP JUMPDEST PUSH2 0xA28 JUMP JUMPDEST PUSH2 0xA0F JUMP JUMPDEST PUSH2 0x9F7 JUMP JUMPDEST PUSH2 0x9A8 JUMP JUMPDEST PUSH2 0x994 JUMP JUMPDEST PUSH2 0x882 JUMP JUMPDEST PUSH2 0x812 JUMP JUMPDEST PUSH2 0x7FA JUMP JUMPDEST PUSH2 0x7B7 JUMP JUMPDEST PUSH2 0x77D JUMP JUMPDEST PUSH2 0x66E JUMP JUMPDEST PUSH2 0x62D JUMP JUMPDEST PUSH2 0x544 JUMP JUMPDEST PUSH2 0x500 JUMP JUMPDEST PUSH2 0x4E5 JUMP JUMPDEST PUSH2 0x4A9 JUMP JUMPDEST PUSH2 0x47B JUMP JUMPDEST PUSH2 0x45D JUMP JUMPDEST PUSH2 0x3F6 JUMP JUMPDEST PUSH2 0x366 JUMP JUMPDEST PUSH1 0x0 DUP1 REVERT JUMPDEST PUSH1 0x0 SWAP2 SUB SLT PUSH2 0x2E7 JUMPI JUMP JUMPDEST PUSH1 0x0 JUMPDEST DUP4 DUP2 LT PUSH2 0x30A JUMPI POP POP PUSH1 0x0 SWAP2 ADD MSTORE JUMP JUMPDEST DUP2 DUP2 ADD MLOAD DUP4 DUP3 ADD MSTORE PUSH1 0x20 ADD PUSH2 0x2FA JUMP JUMPDEST PUSH2 0x33B PUSH2 0x344 PUSH1 0x20 SWAP4 PUSH2 0x34E SWAP4 PUSH2 0x32F DUP2 MLOAD SWAP1 JUMP JUMPDEST DUP1 DUP4 MSTORE SWAP4 DUP5 SWAP3 PUSH1 0x20 ADD SWAP1 JUMP JUMPDEST SWAP6 DUP7 SWAP2 ADD PUSH2 0x2F7 JUMP JUMPDEST PUSH1 0x1F ADD PUSH1 0x1F NOT AND SWAP1 JUMP JUMPDEST ADD SWAP1 JUMP JUMPDEST PUSH1 0x20 DUP1 DUP3 MSTORE PUSH2 0x363 SWAP3 SWAP2 ADD SWAP1 PUSH2 0x31A JUMP JUMPDEST SWAP1 JUMP JUMPDEST CALLVALUE PUSH2 0x2E7 JUMPI PUSH2 0x376 CALLDATASIZE PUSH1 0x4 PUSH2 0x2EC JUMP JUMPDEST PUSH2 0x38D PUSH2 0x381 PUSH2 0x10BB JUMP JUMPDEST PUSH1 0x40 MLOAD SWAP2 DUP3 SWAP2 DUP3 PUSH2 0x352 JUMP JUMPDEST SUB SWAP1 RETURN JUMPDEST PUSH1 0x1 PUSH1 0x1 PUSH1 0xA0 SHL SUB AND SWAP1 JUMP JUMPDEST PUSH2 0x3A6 DUP2 PUSH2 0x391 JUMP JUMPDEST SUB PUSH2 0x2E7 JUMPI JUMP JUMPDEST SWAP1 POP CALLDATALOAD SWAP1 PUSH2 0x3BA DUP3 PUSH2 0x39D JUMP JUMPDEST JUMP JUMPDEST DUP1 PUSH2 0x3A6 JUMP JUMPDEST SWAP1 POP CALLDATALOAD SWAP1 PUSH2 0x3BA DUP3 PUSH2 0x3BC JUMP JUMPDEST SWAP2 SWAP1 PUSH1 0x40 DUP4 DUP3 SUB SLT PUSH2 0x2E7 JUMPI PUSH2 0x363 SWAP1 PUSH1 0x20 PUSH2 0x3EB DUP3 DUP7 PUSH2 0x3AD JUMP JUMPDEST SWAP5 ADD PUSH2 0x3C2 JUMP JUMPDEST SWAP1 MSTORE JUMP JUMPDEST CALLVALUE PUSH2 0x2E7 JUMPI PUSH2 0x38D PUSH2 0x412 PUSH2 0x40C CALLDATASIZE PUSH1 0x4 PUSH2 0x3CF JUMP JUMPDEST SWAP1 PUSH2 0x10C5 JUMP JUMPDEST PUSH1 0x40 MLOAD JUMPDEST SWAP2 DUP3 SWAP2 DUP3 SWAP1 ISZERO ISZERO DUP2 MSTORE PUSH1 0x20 ADD SWAP1 JUMP JUMPDEST DUP1 ISZERO ISZERO PUSH2 0x3A6 JUMP JUMPDEST SWAP1 POP CALLDATALOAD SWAP1 PUSH2 0x3BA DUP3 PUSH2 0x425 JUMP JUMPDEST SWAP2 SWAP1 PUSH1 0x40 DUP4 DUP3 SUB SLT PUSH2 0x2E7 JUMPI PUSH2 0x363 SWAP1 PUSH1 0x20 PUSH2 0x456 DUP3 DUP7 PUSH2 0x3AD JUMP JUMPDEST SWAP5 ADD PUSH2 0x42D JUMP JUMPDEST CALLVALUE PUSH2 0x2E7 JUMPI PUSH2 0x476 PUSH2 0x470 CALLDATASIZE PUSH1 0x4 PUSH2 0x43A JUMP JUMPDEST SWAP1 PUSH2 0x1126 JUMP JUMPDEST PUSH1 0x40 MLOAD STOP JUMPDEST CALLVALUE PUSH2 0x2E7 JUMPI PUSH2 0x48B CALLDATASIZE PUSH1 0x4 PUSH2 0x2EC JUMP JUMPDEST PUSH2 0x38D PUSH2 0x498 PUSH2 0x134 SLOAD SWAP1 JUMP JUMPDEST PUSH1 0x40 MLOAD JUMPDEST SWAP2 DUP3 SWAP2 DUP3 SWAP1 DUP2 MSTORE PUSH1 0x20 ADD SWAP1 JUMP JUMPDEST CALLVALUE PUSH2 0x2E7 JUMPI PUSH2 0x476 PUSH2 0x4BC CALLDATASIZE PUSH1 0x4 PUSH2 0x43A JUMP JUMPDEST SWAP1 PUSH2 0x11E9 JUMP JUMPDEST PUSH2 0x363 SWAP2 PUSH1 0x8 MUL SHR DUP2 JUMP JUMPDEST SWAP1 PUSH2 0x363 SWAP2 SLOAD PUSH2 0x4C2 JUMP JUMPDEST PUSH2 0x363 PUSH1 0x0 PUSH2 0x130 PUSH2 0x4CD JUMP JUMPDEST CALLVALUE PUSH2 0x2E7 JUMPI PUSH2 0x4F5 CALLDATASIZE PUSH1 0x4 PUSH2 0x2EC JUMP JUMPDEST PUSH2 0x38D PUSH2 0x498 PUSH2 0x4D8 JUMP JUMPDEST CALLVALUE PUSH2 0x2E7 JUMPI PUSH2 0x510 CALLDATASIZE PUSH1 0x4 PUSH2 0x2EC JUMP JUMPDEST PUSH2 0x38D PUSH2 0x498 PUSH2 0x11F3 JUMP JUMPDEST SWAP1 SWAP2 PUSH1 0x60 DUP3 DUP5 SUB SLT PUSH2 0x2E7 JUMPI PUSH2 0x363 PUSH2 0x534 DUP5 DUP5 PUSH2 0x3AD JUMP JUMPDEST SWAP4 PUSH1 0x40 PUSH2 0x3EB DUP3 PUSH1 0x20 DUP8 ADD PUSH2 0x3AD JUMP JUMPDEST CALLVALUE PUSH2 0x2E7 JUMPI PUSH2 0x38D PUSH2 0x412 PUSH2 0x55A CALLDATASIZE PUSH1 0x4 PUSH2 0x51B JUMP JUMPDEST SWAP2 PUSH2 0x12FC JUMP JUMPDEST PUSH2 0x363 SWAP1 SLOAD PUSH2 0x391 JUMP JUMPDEST PUSH2 0x363 SWAP1 DUP2 JUMP JUMPDEST PUSH2 0x363 SWAP1 SLOAD PUSH2 0x56A JUMP JUMPDEST PUSH2 0x363 SWAP1 JUMPDEST PUSH1 0xFF AND SWAP1 JUMP JUMPDEST PUSH2 0x363 SWAP1 SLOAD PUSH2 0x57B JUMP JUMPDEST PUSH2 0x142 PUSH2 0x59C DUP2 PUSH2 0x560 JUMP JUMPDEST SWAP2 PUSH2 0x5A9 PUSH1 0x1 DUP4 ADD PUSH2 0x571 JUMP JUMPDEST SWAP2 PUSH2 0x5B6 PUSH1 0x2 DUP3 ADD PUSH2 0x586 JUMP JUMPDEST SWAP2 PUSH2 0x5C3 PUSH1 0x3 DUP4 ADD PUSH2 0x571 JUMP JUMPDEST SWAP2 PUSH2 0x5D0 PUSH1 0x4 DUP3 ADD PUSH2 0x571 JUMP JUMPDEST SWAP2 PUSH2 0x363 PUSH1 0x6 PUSH2 0x5E2 PUSH1 0x5 DUP6 ADD PUSH2 0x571 JUMP JUMPDEST SWAP4 ADD PUSH2 0x571 JUMP JUMPDEST PUSH2 0x3F2 SWAP1 PUSH2 0x391 JUMP JUMPDEST SWAP5 SWAP3 SWAP1 SWAP8 SWAP7 SWAP6 SWAP4 SWAP2 PUSH1 0xE0 DUP7 ADD SWAP9 PUSH1 0x0 DUP8 ADD PUSH2 0x60C SWAP2 PUSH2 0x5E9 JUMP JUMPDEST PUSH1 0x20 DUP7 ADD MSTORE ISZERO ISZERO PUSH1 0x40 DUP6 ADD MSTORE PUSH1 0x60 DUP5 ADD MSTORE PUSH1 0x80 DUP4 ADD MSTORE PUSH1 0xA0 DUP3 ADD MSTORE PUSH1 0xC0 ADD MSTORE JUMP JUMPDEST CALLVALUE PUSH2 0x2E7 JUMPI PUSH2 0x63D CALLDATASIZE PUSH1 0x4 PUSH2 0x2EC JUMP JUMPDEST PUSH2 0x38D PUSH2 0x648 PUSH2 0x590 JUMP JUMPDEST SWAP4 PUSH2 0x658 SWAP8 SWAP6 SWAP8 SWAP4 SWAP2 SWAP4 PUSH1 0x40 MLOAD SWAP1 JUMP JUMPDEST SWAP8 DUP9 SWAP8 DUP9 PUSH2 0x5F2 JUMP JUMPDEST PUSH2 0x363 PUSH1 0x0 PUSH2 0x131 PUSH2 0x4CD JUMP JUMPDEST CALLVALUE PUSH2 0x2E7 JUMPI PUSH2 0x67E CALLDATASIZE PUSH1 0x4 PUSH2 0x2EC JUMP JUMPDEST PUSH2 0x38D PUSH2 0x498 PUSH2 0x661 JUMP JUMPDEST PUSH2 0x363 SWAP1 PUSH1 0x8 SHR PUSH2 0x580 JUMP JUMPDEST PUSH2 0x363 SWAP1 SLOAD PUSH2 0x689 JUMP JUMPDEST PUSH2 0x136 PUSH2 0x6AB DUP2 PUSH2 0x571 JUMP JUMPDEST SWAP2 PUSH2 0x6B8 PUSH1 0x1 DUP4 ADD PUSH2 0x571 JUMP JUMPDEST SWAP2 PUSH2 0x6C5 PUSH1 0x2 DUP3 ADD PUSH2 0x571 JUMP JUMPDEST SWAP2 PUSH2 0x6D2 PUSH1 0x3 DUP4 ADD PUSH2 0x571 JUMP JUMPDEST SWAP2 PUSH2 0x6DF PUSH1 0x4 DUP3 ADD PUSH2 0x571 JUMP JUMPDEST SWAP2 PUSH2 0x6EC PUSH1 0x5 DUP4 ADD PUSH2 0x571 JUMP JUMPDEST SWAP2 PUSH2 0x6F9 PUSH1 0x6 DUP3 ADD PUSH2 0x571 JUMP JUMPDEST SWAP2 PUSH2 0x706 PUSH1 0x7 DUP4 ADD PUSH2 0x586 JUMP JUMPDEST SWAP2 PUSH2 0x713 PUSH1 0x7 DUP3 ADD PUSH2 0x695 JUMP JUMPDEST SWAP2 PUSH2 0x363 PUSH1 0x9 PUSH2 0x5E2 PUSH1 0x8 DUP6 ADD PUSH2 0x571 JUMP JUMPDEST SWAP9 SWAP7 SWAP5 SWAP3 SWAP1 SWAP12 SWAP11 SWAP10 SWAP8 SWAP6 SWAP4 SWAP2 PUSH2 0x160 DUP11 ADD SWAP13 PUSH1 0x0 DUP12 ADD PUSH2 0x743 SWAP2 SWAP1 MSTORE JUMP JUMPDEST PUSH1 0x20 DUP11 ADD MSTORE PUSH1 0x40 DUP10 ADD MSTORE PUSH1 0x60 DUP9 ADD MSTORE PUSH1 0x80 DUP8 ADD MSTORE PUSH1 0xA0 DUP7 ADD MSTORE PUSH1 0xC0 DUP6 ADD MSTORE ISZERO ISZERO PUSH1 0xE0 DUP5 ADD MSTORE ISZERO ISZERO PUSH2 0x100 DUP4 ADD MSTORE PUSH2 0x120 DUP3 ADD MSTORE PUSH2 0x140 ADD MSTORE JUMP JUMPDEST CALLVALUE PUSH2 0x2E7 JUMPI PUSH2 0x78D CALLDATASIZE PUSH1 0x4 PUSH2 0x2EC JUMP JUMPDEST PUSH2 0x38D PUSH2 0x798 PUSH2 0x69F JUMP JUMPDEST SWAP8 PUSH2 0x7AE SWAP12 SWAP10 SWAP12 SWAP8 SWAP2 SWAP8 SWAP7 SWAP3 SWAP7 SWAP6 SWAP4 SWAP6 PUSH1 0x40 MLOAD SWAP1 JUMP JUMPDEST SWAP12 DUP13 SWAP12 DUP13 PUSH2 0x725 JUMP JUMPDEST CALLVALUE PUSH2 0x2E7 JUMPI PUSH2 0x7C7 CALLDATASIZE PUSH1 0x4 PUSH2 0x2EC JUMP JUMPDEST PUSH2 0x38D PUSH2 0x7D2 PUSH2 0x1316 JUMP JUMPDEST PUSH1 0x40 MLOAD SWAP2 DUP3 SWAP2 DUP3 PUSH1 0xFF SWAP1 SWAP2 AND DUP2 MSTORE PUSH1 0x20 ADD SWAP1 JUMP JUMPDEST SWAP1 PUSH1 0x20 DUP3 DUP3 SUB SLT PUSH2 0x2E7 JUMPI PUSH2 0x363 SWAP2 PUSH2 0x3AD JUMP JUMPDEST CALLVALUE PUSH2 0x2E7 JUMPI PUSH2 0x476 PUSH2 0x80D CALLDATASIZE PUSH1 0x4 PUSH2 0x7E6 JUMP JUMPDEST PUSH2 0x148B JUMP JUMPDEST CALLVALUE PUSH2 0x2E7 JUMPI PUSH2 0x38D PUSH2 0x412 PUSH2 0x828 CALLDATASIZE PUSH1 0x4 PUSH2 0x3CF JUMP JUMPDEST SWAP1 PUSH2 0x14BC JUMP JUMPDEST PUSH2 0x363 SWAP1 PUSH2 0x391 SWAP1 PUSH1 0x1 PUSH1 0x1 PUSH1 0xA0 SHL SUB AND DUP3 JUMP JUMPDEST PUSH2 0x363 SWAP1 PUSH2 0x82E JUMP JUMPDEST PUSH2 0x363 SWAP1 PUSH2 0x842 JUMP JUMPDEST SWAP1 PUSH2 0x85E SWAP1 PUSH2 0x84B JUMP JUMPDEST PUSH1 0x0 MSTORE PUSH1 0x20 MSTORE PUSH1 0x40 PUSH1 0x0 KECCAK256 SWAP1 JUMP JUMPDEST PUSH1 0x0 PUSH2 0x87D PUSH2 0x363 SWAP3 PUSH2 0x140 PUSH2 0x854 JUMP JUMPDEST PUSH2 0x4CD JUMP JUMPDEST CALLVALUE PUSH2 0x2E7 JUMPI PUSH2 0x38D PUSH2 0x498 PUSH2 0x898 CALLDATASIZE PUSH1 0x4 PUSH2 0x7E6 JUMP JUMPDEST PUSH2 0x86C JUMP JUMPDEST PUSH4 0x4E487B71 PUSH1 0xE0 SHL PUSH1 0x0 MSTORE PUSH1 0x41 PUSH1 0x4 MSTORE PUSH1 0x24 PUSH1 0x0 REVERT JUMPDEST SWAP1 PUSH1 0x1F ADD PUSH1 0x1F NOT AND DUP2 ADD SWAP1 DUP2 LT PUSH1 0x1 PUSH1 0x1 PUSH1 0x40 SHL SUB DUP3 GT OR PUSH2 0x8D4 JUMPI PUSH1 0x40 MSTORE JUMP JUMPDEST PUSH2 0x89D JUMP JUMPDEST SWAP1 PUSH2 0x3BA PUSH2 0x8E6 PUSH1 0x40 MLOAD SWAP1 JUMP JUMPDEST SWAP3 DUP4 PUSH2 0x8B3 JUMP JUMPDEST PUSH1 0x1 PUSH1 0x1 PUSH1 0x40 SHL SUB DUP2 GT PUSH2 0x8D4 JUMPI PUSH1 0x20 SWAP1 PUSH1 0x1F ADD PUSH1 0x1F NOT AND ADD SWAP1 JUMP JUMPDEST SWAP1 DUP3 PUSH1 0x0 SWAP4 SWAP3 DUP3 CALLDATACOPY ADD MSTORE JUMP JUMPDEST SWAP1 SWAP3 SWAP2 SWAP3 PUSH2 0x92A PUSH2 0x925 DUP3 PUSH2 0x8ED JUMP JUMPDEST PUSH2 0x8D9 JUMP JUMPDEST SWAP4 DUP2 DUP6 MSTORE DUP2 DUP4 ADD GT PUSH2 0x2E7 JUMPI PUSH2 0x3BA SWAP2 PUSH1 0x20 DUP6 ADD SWAP1 PUSH2 0x909 JUMP JUMPDEST SWAP1 DUP1 PUSH1 0x1F DUP4 ADD SLT ISZERO PUSH2 0x2E7 JUMPI DUP2 PUSH1 0x20 PUSH2 0x363 SWAP4 CALLDATALOAD SWAP2 ADD PUSH2 0x915 JUMP JUMPDEST SWAP2 SWAP1 SWAP2 PUSH1 0x40 DUP2 DUP5 SUB SLT PUSH2 0x2E7 JUMPI PUSH2 0x976 DUP4 DUP3 PUSH2 0x3AD JUMP JUMPDEST SWAP3 PUSH1 0x20 DUP3 ADD CALLDATALOAD PUSH1 0x1 PUSH1 0x1 PUSH1 0x40 SHL SUB DUP2 GT PUSH2 0x2E7 JUMPI PUSH2 0x363 SWAP3 ADD PUSH2 0x944 JUMP JUMPDEST PUSH2 0x476 PUSH2 0x9A2 CALLDATASIZE PUSH1 0x4 PUSH2 0x95F JUMP JUMPDEST SWAP1 PUSH2 0x1501 JUMP JUMPDEST CALLVALUE PUSH2 0x2E7 JUMPI PUSH2 0x9B8 CALLDATASIZE PUSH1 0x4 PUSH2 0x2EC JUMP JUMPDEST PUSH2 0x38D PUSH2 0x498 PUSH2 0x15F1 JUMP JUMPDEST SWAP1 DUP2 PUSH2 0x300 SWAP2 SUB SLT PUSH2 0x2E7 JUMPI SWAP1 JUMP JUMPDEST SWAP1 PUSH1 0x20 DUP3 DUP3 SUB SLT PUSH2 0x2E7 JUMPI DUP2 CALLDATALOAD PUSH1 0x1 PUSH1 0x1 PUSH1 0x40 SHL SUB DUP2 GT PUSH2 0x2E7 JUMPI PUSH2 0x363 SWAP3 ADD PUSH2 0x9C3 JUMP JUMPDEST CALLVALUE PUSH2 0x2E7 JUMPI PUSH2 0x476 PUSH2 0xA0A CALLDATASIZE PUSH1 0x4 PUSH2 0x9D2 JUMP JUMPDEST PUSH2 0x2F8B JUMP JUMPDEST CALLVALUE PUSH2 0x2E7 JUMPI PUSH2 0x476 PUSH2 0xA22 CALLDATASIZE PUSH1 0x4 PUSH2 0x3CF JUMP JUMPDEST SWAP1 PUSH2 0x304D JUMP JUMPDEST CALLVALUE PUSH2 0x2E7 JUMPI PUSH2 0xA38 CALLDATASIZE PUSH1 0x4 PUSH2 0x2EC JUMP JUMPDEST PUSH2 0x476 PUSH2 0x31B2 JUMP JUMPDEST PUSH2 0x363 PUSH1 0x0 PUSH2 0x12F PUSH2 0x4CD JUMP JUMPDEST CALLVALUE PUSH2 0x2E7 JUMPI PUSH2 0xA5D CALLDATASIZE PUSH1 0x4 PUSH2 0x2EC JUMP JUMPDEST PUSH2 0x38D PUSH2 0x498 PUSH2 0xA40 JUMP JUMPDEST SWAP1 PUSH1 0x20 DUP3 DUP3 SUB SLT PUSH2 0x2E7 JUMPI PUSH2 0x363 SWAP2 PUSH2 0x3C2 JUMP JUMPDEST PUSH4 0x4E487B71 PUSH1 0xE0 SHL PUSH1 0x0 MSTORE PUSH1 0x32 PUSH1 0x4 MSTORE PUSH1 0x24 PUSH1 0x0 REVERT JUMPDEST DUP1 SLOAD DUP3 LT ISZERO PUSH2 0xAB5 JUMPI PUSH2 0xAAC PUSH1 0x6 SWAP2 PUSH1 0x0 MSTORE PUSH1 0x20 PUSH1 0x0 KECCAK256 SWAP1 JUMP JUMPDEST SWAP2 MUL ADD SWAP1 PUSH1 0x0 SWAP1 JUMP JUMPDEST PUSH2 0xA7C JUMP JUMPDEST PUSH4 0x4E487B71 PUSH1 0xE0 SHL PUSH1 0x0 MSTORE PUSH1 0x22 PUSH1 0x4 MSTORE PUSH1 0x24 PUSH1 0x0 REVERT JUMPDEST SWAP1 PUSH1 0x1 PUSH1 0x2 DUP4 DIV SWAP3 AND DUP1 ISZERO PUSH2 0xAF0 JUMPI JUMPDEST PUSH1 0x20 DUP4 LT EQ PUSH2 0xAEB JUMPI JUMP JUMPDEST PUSH2 0xABA JUMP JUMPDEST SWAP2 PUSH1 0x7F AND SWAP2 PUSH2 0xAE0 JUMP JUMPDEST DUP1 SLOAD PUSH1 0x0 SWAP4 SWAP3 SWAP2 PUSH2 0xB17 PUSH2 0xB0D DUP4 PUSH2 0xAD0 JUMP JUMPDEST DUP1 DUP6 MSTORE SWAP4 PUSH1 0x20 ADD SWAP1 JUMP JUMPDEST SWAP2 PUSH1 0x1 DUP2 AND SWAP1 DUP2 ISZERO PUSH2 0xB69 JUMPI POP PUSH1 0x1 EQ PUSH2 0xB30 JUMPI POP POP POP JUMP JUMPDEST PUSH2 0xB43 SWAP2 SWAP3 SWAP4 SWAP5 POP PUSH1 0x0 MSTORE PUSH1 0x20 PUSH1 0x0 KECCAK256 SWAP1 JUMP JUMPDEST SWAP2 PUSH1 0x0 SWAP3 JUMPDEST DUP2 DUP5 LT PUSH2 0xB55 JUMPI POP POP ADD SWAP1 JUMP JUMPDEST DUP1 SLOAD DUP5 DUP5 ADD MSTORE PUSH1 0x20 SWAP1 SWAP4 ADD SWAP3 PUSH1 0x1 ADD PUSH2 0xB48 JUMP JUMPDEST SWAP3 SWAP5 SWAP6 POP POP POP PUSH1 0xFF NOT AND DUP3 MSTORE ISZERO ISZERO PUSH1 0x20 MUL ADD SWAP1 JUMP JUMPDEST SWAP1 PUSH2 0x363 SWAP2 PUSH2 0xAFA JUMP JUMPDEST SWAP1 PUSH2 0x3BA PUSH2 0xBA2 SWAP3 PUSH2 0xB99 PUSH1 0x40 MLOAD SWAP1 JUMP JUMPDEST SWAP4 DUP5 DUP1 SWAP3 PUSH2 0xB7E JUMP JUMPDEST SUB DUP4 PUSH2 0x8B3 JUMP JUMPDEST PUSH2 0x134 SWAP1 PUSH2 0xBB5 DUP3 SLOAD SWAP1 JUMP JUMPDEST DUP2 LT ISZERO PUSH2 0x2E7 JUMPI PUSH2 0xBC5 SWAP2 PUSH2 0xA92 JUMP JUMPDEST POP SWAP1 PUSH2 0xBD0 DUP3 PUSH2 0xB88 JUMP JUMPDEST SWAP2 PUSH2 0xBDD PUSH1 0x1 DUP3 ADD PUSH2 0x571 JUMP JUMPDEST SWAP2 PUSH2 0xBEA PUSH1 0x2 DUP4 ADD PUSH2 0x571 JUMP JUMPDEST SWAP2 PUSH2 0xBF7 PUSH1 0x3 DUP3 ADD PUSH2 0x560 JUMP JUMPDEST SWAP2 PUSH2 0x363 PUSH1 0x5 PUSH2 0x5E2 PUSH1 0x4 DUP6 ADD PUSH2 0x571 JUMP JUMPDEST SWAP2 SWAP7 SWAP6 SWAP4 SWAP5 PUSH2 0xC50 PUSH2 0x3BA SWAP7 PUSH2 0xC46 PUSH1 0xA0 SWAP7 PUSH2 0xC3F PUSH2 0xC37 PUSH2 0xC57 SWAP8 PUSH1 0xC0 DUP11 ADD SWAP1 DUP11 DUP3 SUB PUSH1 0x0 DUP13 ADD MSTORE PUSH2 0x31A JUMP JUMPDEST SWAP13 PUSH1 0x20 DUP10 ADD MSTORE JUMP JUMPDEST PUSH1 0x40 DUP8 ADD MSTORE JUMP JUMPDEST PUSH1 0x60 DUP6 ADD SWAP1 PUSH2 0x5E9 JUMP JUMPDEST PUSH1 0x80 DUP4 ADD MSTORE JUMP JUMPDEST ADD MSTORE JUMP JUMPDEST CALLVALUE PUSH2 0x2E7 JUMPI PUSH2 0x38D PUSH2 0xC76 PUSH2 0xC71 CALLDATASIZE PUSH1 0x4 PUSH2 0xA68 JUMP JUMPDEST PUSH2 0xBA9 JUMP JUMPDEST SWAP3 PUSH2 0xC86 SWAP7 SWAP5 SWAP7 SWAP3 SWAP2 SWAP3 PUSH1 0x40 MLOAD SWAP1 JUMP JUMPDEST SWAP7 DUP8 SWAP7 DUP8 PUSH2 0xC09 JUMP JUMPDEST CALLVALUE PUSH2 0x2E7 JUMPI PUSH2 0x38D PUSH2 0x498 PUSH2 0xCA5 CALLDATASIZE PUSH1 0x4 PUSH2 0x7E6 JUMP JUMPDEST PUSH2 0x31BA JUMP JUMPDEST CALLVALUE PUSH2 0x2E7 JUMPI PUSH2 0xCBA CALLDATASIZE PUSH1 0x4 PUSH2 0x2EC JUMP JUMPDEST PUSH2 0x476 PUSH2 0x3204 JUMP JUMPDEST CALLVALUE PUSH2 0x2E7 JUMPI PUSH2 0x476 PUSH2 0xCD5 CALLDATASIZE PUSH1 0x4 PUSH2 0xA68 JUMP JUMPDEST PUSH2 0x33D7 JUMP JUMPDEST CALLVALUE PUSH2 0x2E7 JUMPI PUSH2 0x38D PUSH2 0x498 PUSH2 0xCF0 CALLDATASIZE PUSH1 0x4 PUSH2 0xA68 JUMP JUMPDEST PUSH2 0x3461 JUMP JUMPDEST PUSH1 0x0 PUSH2 0x87D PUSH2 0x363 SWAP3 PUSH2 0x133 PUSH2 0x854 JUMP JUMPDEST CALLVALUE PUSH2 0x2E7 JUMPI PUSH2 0x38D PUSH2 0x498 PUSH2 0xD1C CALLDATASIZE PUSH1 0x4 PUSH2 0x7E6 JUMP JUMPDEST PUSH2 0xCF5 JUMP JUMPDEST PUSH1 0x80 DUP2 DUP4 SUB SLT PUSH2 0x2E7 JUMPI DUP1 CALLDATALOAD PUSH1 0x1 PUSH1 0x1 PUSH1 0x40 SHL SUB DUP2 GT PUSH2 0x2E7 JUMPI DUP3 PUSH2 0xD47 SWAP2 DUP4 ADD PUSH2 0x944 JUMP JUMPDEST SWAP3 PUSH2 0x363 PUSH2 0xD58 DUP5 PUSH1 0x20 DUP6 ADD PUSH2 0x3C2 JUMP JUMPDEST SWAP4 PUSH1 0x60 PUSH2 0xD68 DUP3 PUSH1 0x40 DUP8 ADD PUSH2 0x3C2 JUMP JUMPDEST SWAP5 ADD PUSH2 0x3AD JUMP JUMPDEST CALLVALUE PUSH2 0x2E7 JUMPI PUSH2 0x476 PUSH2 0xD82 CALLDATASIZE PUSH1 0x4 PUSH2 0xD21 JUMP JUMPDEST SWAP3 SWAP2 SWAP1 SWAP2 PUSH2 0x36FB JUMP JUMPDEST CALLVALUE PUSH2 0x2E7 JUMPI PUSH2 0xD9B CALLDATASIZE PUSH1 0x4 PUSH2 0x2EC JUMP JUMPDEST PUSH2 0x476 PUSH2 0x3906 JUMP JUMPDEST PUSH1 0x20 DUP2 ADD SWAP3 SWAP2 PUSH2 0x3BA SWAP2 SWAP1 PUSH2 0x5E9 JUMP JUMPDEST CALLVALUE PUSH2 0x2E7 JUMPI PUSH2 0xDC3 CALLDATASIZE PUSH1 0x4 PUSH2 0x2EC JUMP JUMPDEST PUSH2 0x38D PUSH2 0xDCE PUSH2 0x390E JUMP JUMPDEST PUSH1 0x40 MLOAD SWAP2 DUP3 SWAP2 DUP3 PUSH2 0xDA3 JUMP JUMPDEST SWAP2 SWAP1 PUSH1 0x40 DUP4 DUP3 SUB SLT PUSH2 0x2E7 JUMPI PUSH2 0x363 SWAP1 PUSH1 0x20 PUSH2 0xD68 DUP3 DUP7 PUSH2 0x3C2 JUMP JUMPDEST PUSH2 0x363 PUSH2 0x363 PUSH2 0x363 SWAP3 SWAP1 JUMP JUMPDEST SWAP1 PUSH2 0x85E SWAP1 PUSH2 0xDF6 JUMP JUMPDEST PUSH2 0x87D PUSH2 0x363 SWAP3 PUSH2 0xE22 PUSH1 0x0 SWAP4 PUSH2 0x135 PUSH2 0xE03 JUMP JUMPDEST PUSH2 0x854 JUMP JUMPDEST CALLVALUE PUSH2 0x2E7 JUMPI PUSH2 0x38D PUSH2 0x498 PUSH2 0xE3D CALLDATASIZE PUSH1 0x4 PUSH2 0xDDA JUMP JUMPDEST SWAP1 PUSH2 0xE0D JUMP JUMPDEST CALLVALUE PUSH2 0x2E7 JUMPI PUSH2 0xE53 CALLDATASIZE PUSH1 0x4 PUSH2 0x2EC JUMP JUMPDEST PUSH2 0x38D PUSH2 0x381 PUSH2 0x3918 JUMP JUMPDEST PUSH2 0x363 SWAP2 PUSH1 0x8 MUL SHR PUSH2 0x580 JUMP JUMPDEST SWAP1 PUSH2 0x363 SWAP2 SLOAD PUSH2 0xE5E JUMP JUMPDEST PUSH1 0x0 PUSH2 0xE87 PUSH2 0x363 SWAP3 PUSH2 0x141 PUSH2 0x854 JUMP JUMPDEST PUSH2 0xE6B JUMP JUMPDEST CALLVALUE PUSH2 0x2E7 JUMPI PUSH2 0x38D PUSH2 0x412 PUSH2 0xEA2 CALLDATASIZE PUSH1 0x4 PUSH2 0x7E6 JUMP JUMPDEST PUSH2 0xE76 JUMP JUMPDEST CALLVALUE PUSH2 0x2E7 JUMPI PUSH2 0xEB7 CALLDATASIZE PUSH1 0x4 PUSH2 0x2EC JUMP JUMPDEST PUSH2 0x476 PUSH2 0x3B83 JUMP JUMPDEST CALLVALUE PUSH2 0x2E7 JUMPI PUSH2 0x38D PUSH2 0x412 PUSH2 0xED5 CALLDATASIZE PUSH1 0x4 PUSH2 0x3CF JUMP JUMPDEST SWAP1 PUSH2 0x3BE5 JUMP JUMPDEST CALLVALUE PUSH2 0x2E7 JUMPI PUSH2 0x38D PUSH2 0x412 PUSH2 0xEF1 CALLDATASIZE PUSH1 0x4 PUSH2 0x3CF JUMP JUMPDEST SWAP1 PUSH2 0x3C5A JUMP JUMPDEST CALLVALUE PUSH2 0x2E7 JUMPI PUSH2 0x38D PUSH2 0xC76 PUSH2 0xF0D CALLDATASIZE PUSH1 0x4 PUSH2 0xA68 JUMP JUMPDEST PUSH2 0x3CA2 JUMP JUMPDEST PUSH2 0x363 PUSH1 0x0 PUSH2 0x12E PUSH2 0xE6B JUMP JUMPDEST CALLVALUE PUSH2 0x2E7 JUMPI PUSH2 0xF2F CALLDATASIZE PUSH1 0x4 PUSH2 0x2EC JUMP JUMPDEST PUSH2 0x38D PUSH2 0x412 PUSH2 0xF12 JUMP JUMPDEST PUSH2 0x363 PUSH1 0x1 PUSH2 0x12E PUSH2 0xE6B JUMP JUMPDEST CALLVALUE PUSH2 0x2E7 JUMPI PUSH2 0xF57 CALLDATASIZE PUSH1 0x4 PUSH2 0x2EC JUMP JUMPDEST PUSH2 0x38D PUSH2 0x412 PUSH2 0xF3A JUMP JUMPDEST PUSH2 0x149 SWAP1 PUSH2 0xF6F DUP3 PUSH2 0x571 JUMP JUMPDEST SWAP2 PUSH2 0xF7C PUSH1 0x1 DUP3 ADD PUSH2 0x571 JUMP JUMPDEST SWAP2 PUSH2 0x363 PUSH1 0x3 PUSH2 0xF8E PUSH1 0x2 DUP6 ADD PUSH2 0x571 JUMP JUMPDEST SWAP4 ADD PUSH2 0x586 JUMP JUMPDEST PUSH2 0xFC2 PUSH2 0x3BA SWAP5 PUSH2 0xFBB PUSH1 0x60 SWAP5 SWAP9 SWAP8 SWAP6 PUSH2 0xFB4 PUSH1 0x80 DUP7 ADD SWAP11 PUSH1 0x0 DUP8 ADD MSTORE JUMP JUMPDEST PUSH1 0x20 DUP6 ADD MSTORE JUMP JUMPDEST PUSH1 0x40 DUP4 ADD MSTORE JUMP JUMPDEST ADD SWAP1 ISZERO ISZERO SWAP1 MSTORE JUMP JUMPDEST CALLVALUE PUSH2 0x2E7 JUMPI PUSH2 0xFDA CALLDATASIZE PUSH1 0x4 PUSH2 0x2EC JUMP JUMPDEST PUSH2 0x38D PUSH2 0xFE5 PUSH2 0xF62 JUMP JUMPDEST SWAP1 PUSH2 0xFF2 SWAP5 SWAP3 SWAP5 PUSH1 0x40 MLOAD SWAP1 JUMP JUMPDEST SWAP5 DUP6 SWAP5 DUP6 PUSH2 0xF95 JUMP JUMPDEST PUSH2 0x363 PUSH1 0x0 PUSH2 0x12D PUSH2 0x4CD JUMP JUMPDEST CALLVALUE PUSH2 0x2E7 JUMPI PUSH2 0x1018 CALLDATASIZE PUSH1 0x4 PUSH2 0x2EC JUMP JUMPDEST PUSH2 0x38D PUSH2 0x498 PUSH2 0xFFB JUMP JUMPDEST PUSH2 0x102E CALLDATASIZE PUSH1 0x4 PUSH2 0x2EC JUMP JUMPDEST PUSH2 0x476 PUSH2 0x4253 JUMP JUMPDEST PUSH1 0x0 PUSH2 0xE87 PUSH2 0x363 SWAP3 PUSH2 0x132 PUSH2 0x854 JUMP JUMPDEST CALLVALUE PUSH2 0x2E7 JUMPI PUSH2 0x38D PUSH2 0x412 PUSH2 0x105D CALLDATASIZE PUSH1 0x4 PUSH2 0x7E6 JUMP JUMPDEST PUSH2 0x1036 JUMP JUMPDEST SWAP2 SWAP1 PUSH1 0x40 DUP4 DUP3 SUB SLT PUSH2 0x2E7 JUMPI PUSH2 0x363 SWAP1 PUSH1 0x20 PUSH2 0xD68 DUP3 DUP7 PUSH2 0x3AD JUMP JUMPDEST CALLVALUE PUSH2 0x2E7 JUMPI PUSH2 0x38D PUSH2 0x498 PUSH2 0x1094 CALLDATASIZE PUSH1 0x4 PUSH2 0x1062 JUMP JUMPDEST SWAP1 PUSH2 0x425B JUMP JUMPDEST CALLVALUE PUSH2 0x2E7 JUMPI PUSH2 0x476 PUSH2 0x10AD CALLDATASIZE PUSH1 0x4 PUSH2 0x7E6 JUMP JUMPDEST PUSH2 0x4306 JUMP JUMPDEST PUSH2 0x363 SWAP1 PUSH2 0xB88 JUMP JUMPDEST PUSH2 0x363 PUSH1 0x36 PUSH2 0x10B2 JUMP JUMPDEST PUSH2 0x10D0 SWAP2 SWAP1 CALLER PUSH2 0x43BE JUMP JUMPDEST PUSH1 0x1 SWAP1 JUMP JUMPDEST SWAP1 PUSH2 0x3BA SWAP2 PUSH2 0x10E2 PUSH2 0x449D JUMP JUMPDEST PUSH2 0x1111 JUMP JUMPDEST SWAP1 PUSH1 0xFF SWAP1 JUMPDEST SWAP2 DUP2 NOT AND SWAP2 AND OR SWAP1 JUMP JUMPDEST SWAP1 PUSH2 0x1106 PUSH2 0x363 PUSH2 0x110D SWAP3 ISZERO ISZERO SWAP1 JUMP JUMPDEST DUP3 SLOAD PUSH2 0x10E7 JUMP JUMPDEST SWAP1 SSTORE JUMP JUMPDEST SWAP1 PUSH2 0x1121 PUSH2 0x3BA SWAP3 PUSH2 0x141 PUSH2 0x854 JUMP JUMPDEST PUSH2 0x10F6 JUMP JUMPDEST SWAP1 PUSH2 0x3BA SWAP2 PUSH2 0x10D5 JUMP JUMPDEST SWAP1 PUSH2 0x3BA SWAP2 PUSH2 0x113D PUSH2 0x449D JUMP JUMPDEST PUSH2 0x118A JUMP JUMPDEST ISZERO PUSH2 0x1149 JUMPI JUMP JUMPDEST PUSH1 0x40 MLOAD PUSH3 0x461BCD PUSH1 0xE5 SHL DUP2 MSTORE PUSH1 0x20 PUSH1 0x4 DUP3 ADD MSTORE PUSH1 0x15 PUSH1 0x24 DUP3 ADD MSTORE PUSH21 0x109B1858DADB1A5CDD081B9BDD08195B98589B1959 PUSH1 0x5A SHL PUSH1 0x44 DUP3 ADD MSTORE PUSH1 0x64 SWAP1 REVERT JUMPDEST SUB SWAP1 REVERT JUMPDEST PUSH2 0x11E4 PUSH2 0x11DA PUSH32 0x6A12B3DF6CBA4203BD7FD06B816789F87DE8C594299AED5717AE070FAC781BAC SWAP3 PUSH2 0x11C5 PUSH2 0x11C0 PUSH2 0x12E PUSH2 0x586 JUMP JUMPDEST PUSH2 0x1142 JUMP JUMPDEST PUSH2 0x11D5 DUP6 PUSH2 0x1121 DUP4 PUSH2 0x132 PUSH2 0x854 JUMP JUMPDEST PUSH2 0x84B JUMP JUMPDEST SWAP3 PUSH2 0x416 PUSH1 0x40 MLOAD SWAP1 JUMP JUMPDEST SUB SWAP1 LOG2 JUMP JUMPDEST SWAP1 PUSH2 0x3BA SWAP2 PUSH2 0x1130 JUMP JUMPDEST PUSH2 0x363 PUSH1 0x35 PUSH2 0x571 JUMP JUMPDEST ISZERO PUSH2 0x1204 JUMPI JUMP JUMPDEST PUSH1 0x40 MLOAD PUSH3 0x461BCD PUSH1 0xE5 SHL DUP2 MSTORE PUSH1 0x20 PUSH1 0x4 DUP3 ADD MSTORE PUSH1 0x16 PUSH1 0x24 DUP3 ADD MSTORE PUSH22 0x1059191C995CDCC81A5CC8189B1858DADB1A5CDD1959 PUSH1 0x52 SHL PUSH1 0x44 DUP3 ADD MSTORE PUSH1 0x64 SWAP1 REVERT JUMPDEST PUSH2 0x363 SWAP4 SWAP3 SWAP2 SWAP1 PUSH2 0x126C PUSH2 0x1267 PUSH2 0x1263 PUSH2 0x125E CALLER PUSH2 0x132 PUSH2 0x854 JUMP JUMPDEST PUSH2 0x586 JUMP JUMPDEST ISZERO SWAP1 JUMP JUMPDEST PUSH2 0x11FD JUMP JUMPDEST PUSH2 0x12B7 JUMP JUMPDEST ISZERO PUSH2 0x1278 JUMPI JUMP JUMPDEST PUSH1 0x40 MLOAD PUSH3 0x461BCD PUSH1 0xE5 SHL DUP2 MSTORE PUSH1 0x20 PUSH1 0x4 DUP3 ADD MSTORE PUSH1 0x17 PUSH1 0x24 DUP3 ADD MSTORE PUSH23 0x151C985B9CD9995C881A5CC81D1A5B594B5B1BD8DAD959 PUSH1 0x4A SHL PUSH1 0x44 DUP3 ADD MSTORE PUSH1 0x64 SWAP1 REVERT JUMPDEST SWAP1 PUSH2 0x363 SWAP4 SWAP3 SWAP2 PUSH2 0x12C9 PUSH2 0x12E PUSH2 0x695 JUMP JUMPDEST ISZERO PUSH2 0x12F0 JUMPI PUSH2 0x12F0 PUSH2 0x12E8 PUSH2 0x363 PUSH2 0x12E3 CALLER PUSH2 0x133 PUSH2 0x854 JUMP JUMPDEST PUSH2 0x571 JUMP JUMPDEST TIMESTAMP LT ISZERO PUSH2 0x1271 JUMP JUMPDEST POP PUSH2 0x363 SWAP3 SWAP2 SWAP1 PUSH2 0x44BA JUMP JUMPDEST PUSH2 0x363 SWAP3 SWAP2 SWAP1 PUSH1 0x0 PUSH2 0x1242 JUMP JUMPDEST PUSH2 0x580 PUSH2 0x363 PUSH2 0x363 SWAP3 SWAP1 JUMP JUMPDEST PUSH2 0x363 PUSH1 0x12 PUSH2 0x1309 JUMP JUMPDEST ISZERO PUSH2 0x1327 JUMPI JUMP JUMPDEST PUSH1 0x40 MLOAD PUSH3 0x461BCD PUSH1 0xE5 SHL DUP2 MSTORE PUSH1 0x20 PUSH1 0x4 DUP3 ADD MSTORE PUSH1 0x2C PUSH1 0x24 DUP3 ADD MSTORE PUSH1 0x0 DUP1 MLOAD PUSH1 0x20 PUSH2 0x4E1C DUP4 CODECOPY DUP2 MLOAD SWAP2 MSTORE PUSH1 0x44 DUP3 ADD MSTORE PUSH12 0x19195B1959D85D1958D85B1B PUSH1 0xA2 SHL PUSH1 0x64 DUP3 ADD MSTORE PUSH1 0x84 SWAP1 REVERT JUMPDEST ISZERO PUSH2 0x1376 JUMPI JUMP JUMPDEST PUSH1 0x40 MLOAD PUSH3 0x461BCD PUSH1 0xE5 SHL DUP2 MSTORE PUSH1 0x20 PUSH1 0x4 DUP3 ADD MSTORE PUSH1 0x2C PUSH1 0x24 DUP3 ADD MSTORE PUSH1 0x0 DUP1 MLOAD PUSH1 0x20 PUSH2 0x4E1C DUP4 CODECOPY DUP2 MLOAD SWAP2 MSTORE PUSH1 0x44 DUP3 ADD MSTORE PUSH12 0x6163746976652070726F7879 PUSH1 0xA0 SHL PUSH1 0x64 DUP3 ADD MSTORE PUSH1 0x84 SWAP1 REVERT JUMPDEST PUSH2 0x3BA SWAP1 PUSH2 0x1426 PUSH2 0x13CE ADDRESS PUSH2 0x84B JUMP JUMPDEST PUSH2 0x140C PUSH32 0x0 SWAP2 PUSH2 0x1405 PUSH2 0x13FF DUP5 PUSH2 0x391 JUMP JUMPDEST SWAP2 PUSH2 0x391 JUMP JUMPDEST EQ ISZERO PUSH2 0x1320 JUMP JUMPDEST PUSH2 0x1420 PUSH2 0x13FF PUSH2 0x141A PUSH2 0x44D0 JUMP JUMPDEST SWAP3 PUSH2 0x391 JUMP JUMPDEST EQ PUSH2 0x136F JUMP JUMPDEST PUSH2 0x1465 JUMP JUMPDEST SWAP1 PUSH2 0x1438 PUSH2 0x925 DUP4 PUSH2 0x8ED JUMP JUMPDEST SWAP2 DUP3 MSTORE JUMP JUMPDEST CALLDATASIZE SWAP1 CALLDATACOPY JUMP JUMPDEST SWAP1 PUSH2 0x3BA PUSH2 0x1458 PUSH2 0x1452 DUP5 PUSH2 0x142B JUMP JUMPDEST SWAP4 PUSH2 0x8ED JUMP JUMPDEST PUSH1 0x1F NOT ADD PUSH1 0x20 DUP5 ADD PUSH2 0x143D JUMP JUMPDEST PUSH1 0x0 PUSH2 0x3BA SWAP2 PUSH2 0x1474 DUP2 PUSH2 0x44EF JUMP JUMPDEST PUSH2 0x1485 PUSH2 0x1480 DUP4 PUSH2 0xDF6 JUMP JUMPDEST PUSH2 0x1442 JUMP JUMPDEST SWAP1 PUSH2 0x45A0 JUMP JUMPDEST PUSH2 0x3BA SWAP1 PUSH2 0x13BE JUMP JUMPDEST PUSH4 0x4E487B71 PUSH1 0xE0 SHL PUSH1 0x0 MSTORE PUSH1 0x11 PUSH1 0x4 MSTORE PUSH1 0x24 PUSH1 0x0 REVERT JUMPDEST SWAP2 SWAP1 DUP3 ADD DUP1 SWAP3 GT PUSH2 0x14B7 JUMPI JUMP JUMPDEST PUSH2 0x1494 JUMP JUMPDEST PUSH2 0x10D0 SWAP2 SWAP1 PUSH2 0x14D5 CALLER SWAP3 PUSH2 0x14D0 DUP4 DUP6 PUSH2 0x425B JUMP JUMPDEST PUSH2 0x14AA JUMP JUMPDEST SWAP2 PUSH2 0x43BE JUMP JUMPDEST SWAP1 PUSH2 0x3BA SWAP2 PUSH2 0x14EC PUSH2 0x13CE ADDRESS PUSH2 0x84B JUMP JUMPDEST PUSH2 0x3BA SWAP2 PUSH1 0x1 SWAP2 PUSH2 0x14FC DUP2 PUSH2 0x44EF JUMP JUMPDEST PUSH2 0x45A0 JUMP JUMPDEST SWAP1 PUSH2 0x3BA SWAP2 PUSH2 0x14DB JUMP JUMPDEST ISZERO PUSH2 0x1512 JUMPI JUMP JUMPDEST PUSH1 0x40 MLOAD PUSH3 0x461BCD PUSH1 0xE5 SHL DUP2 MSTORE PUSH1 0x20 PUSH1 0x4 DUP3 ADD MSTORE PUSH1 0x38 PUSH1 0x24 DUP3 ADD MSTORE PUSH32 0x555550535570677261646561626C653A206D757374206E6F742062652063616C PUSH1 0x44 DUP3 ADD MSTORE PUSH24 0x1B1959081D1A1C9BDD59DA0819195B1959D85D1958D85B1B PUSH1 0x42 SHL PUSH1 0x64 DUP3 ADD MSTORE PUSH1 0x84 SWAP1 REVERT JUMPDEST PUSH2 0x363 SWAP1 PUSH2 0x15BA PUSH2 0x1588 ADDRESS PUSH2 0x84B JUMP JUMPDEST PUSH2 0x15B4 PUSH2 0x13FF PUSH32 0x0 PUSH2 0x391 JUMP JUMPDEST EQ PUSH2 0x150B JUMP JUMPDEST PUSH2 0x15E8 JUMP JUMPDEST PUSH2 0x363 PUSH32 0x360894A13BA1A3210667C828492DB98DCA3E2076CC3735A920A3CA505D382BBC PUSH2 0xDF6 JUMP JUMPDEST POP PUSH2 0x363 PUSH2 0x15BF JUMP JUMPDEST PUSH2 0x363 PUSH1 0x0 PUSH2 0x1578 JUMP JUMPDEST ISZERO PUSH2 0x1602 JUMPI JUMP JUMPDEST PUSH1 0x40 MLOAD PUSH3 0x461BCD PUSH1 0xE5 SHL DUP2 MSTORE PUSH1 0x20 PUSH1 0x4 DUP3 ADD MSTORE PUSH1 0x2E PUSH1 0x24 DUP3 ADD MSTORE PUSH32 0x496E697469616C697A61626C653A20636F6E747261637420697320616C726561 PUSH1 0x44 DUP3 ADD MSTORE PUSH14 0x191E481A5B9A5D1A585B1A5E9959 PUSH1 0x92 SHL PUSH1 0x64 DUP3 ADD MSTORE PUSH1 0x84 SWAP1 REVERT JUMPDEST PUSH2 0x580 PUSH2 0x363 PUSH2 0x363 SWAP3 PUSH1 0xFF AND SWAP1 JUMP JUMPDEST SWAP1 PUSH2 0x1106 PUSH2 0x363 PUSH2 0x110D SWAP3 PUSH2 0x165E JUMP JUMPDEST SWAP1 PUSH2 0xFF00 SWAP1 PUSH1 0x8 SHL PUSH2 0x10EC JUMP JUMPDEST SWAP1 PUSH2 0x169B PUSH2 0x363 PUSH2 0x110D SWAP3 ISZERO ISZERO SWAP1 JUMP JUMPDEST DUP3 SLOAD PUSH2 0x167E JUMP JUMPDEST PUSH2 0x3F2 SWAP1 PUSH2 0x1309 JUMP JUMPDEST PUSH1 0x20 DUP2 ADD SWAP3 SWAP2 PUSH2 0x3BA SWAP2 SWAP1 PUSH2 0x16A2 JUMP JUMPDEST PUSH2 0x1701 PUSH2 0x16CB PUSH2 0x1263 PUSH1 0x0 PUSH2 0x695 JUMP JUMPDEST SWAP2 DUP3 DUP1 PUSH2 0x17A3 JUMPI JUMPDEST DUP1 ISZERO PUSH2 0x175E JUMPI JUMPDEST PUSH2 0x16E3 SWAP1 PUSH2 0x15FB JUMP JUMPDEST DUP3 PUSH2 0x16F8 PUSH2 0x16F1 PUSH1 0x1 PUSH2 0x1309 JUMP JUMPDEST PUSH1 0x0 PUSH2 0x166E JUMP JUMPDEST PUSH2 0x174D JUMPI PUSH2 0x2547 JUMP JUMPDEST PUSH2 0x1707 JUMPI JUMP JUMPDEST PUSH2 0x1712 PUSH1 0x0 DUP1 PUSH2 0x168B JUMP JUMPDEST PUSH32 0x7F26B83FF96E1F2B6A682F133852F6798A09C465DA95921460CEFB3847402498 PUSH2 0x173C PUSH1 0x40 MLOAD SWAP1 JUMP JUMPDEST DUP1 PUSH2 0x1748 PUSH1 0x1 DUP3 PUSH2 0x16AB JUMP JUMPDEST SUB SWAP1 LOG1 JUMP JUMPDEST PUSH2 0x1759 PUSH1 0x1 PUSH1 0x0 PUSH2 0x168B JUMP JUMPDEST PUSH2 0x2547 JUMP JUMPDEST POP PUSH2 0x1773 PUSH2 0x1263 PUSH2 0x176E ADDRESS PUSH2 0x84B JUMP JUMPDEST PUSH2 0x46AF JUMP JUMPDEST DUP1 ISZERO PUSH2 0x16DA JUMPI POP PUSH2 0x16E3 PUSH2 0x1787 PUSH1 0x0 PUSH2 0x586 JUMP JUMPDEST PUSH2 0x179B PUSH2 0x1794 PUSH1 0x1 PUSH2 0x1309 JUMP JUMPDEST SWAP2 PUSH1 0xFF AND SWAP1 JUMP JUMPDEST EQ SWAP1 POP PUSH2 0x16DA JUMP JUMPDEST POP PUSH2 0x17AE PUSH1 0x0 PUSH2 0x586 JUMP JUMPDEST PUSH2 0x17BB PUSH2 0x1794 PUSH1 0x1 PUSH2 0x1309 JUMP JUMPDEST LT PUSH2 0x16D3 JUMP JUMPDEST SWAP1 CALLDATALOAD SWAP1 PUSH1 0x1E NOT CALLDATASIZE DUP3 SWAP1 SUB ADD DUP3 SLT ISZERO PUSH2 0x2E7 JUMPI ADD DUP1 CALLDATALOAD SWAP1 PUSH1 0x1 PUSH1 0x1 PUSH1 0x40 SHL SUB DUP3 GT PUSH2 0x2E7 JUMPI PUSH1 0x20 ADD SWAP2 CALLDATASIZE DUP3 SWAP1 SUB DUP4 SGT PUSH2 0x2E7 JUMPI JUMP JUMPDEST PUSH2 0x363 SWAP2 CALLDATASIZE SWAP2 PUSH2 0x915 JUMP JUMPDEST SWAP2 SWAP1 PUSH2 0x344 DUP2 PUSH2 0x1817 DUP2 PUSH2 0x34E SWAP6 PUSH1 0x20 SWAP2 DUP2 MSTORE ADD SWAP1 JUMP JUMPDEST DUP1 SWAP6 PUSH2 0x909 JUMP JUMPDEST PUSH1 0x40 DUP1 DUP3 MSTORE PUSH1 0x4 SWAP1 DUP3 ADD MSTORE PUSH4 0x4E616D65 PUSH1 0xE0 SHL PUSH1 0x60 DUP3 ADD MSTORE PUSH2 0x363 SWAP3 SWAP1 SWAP2 PUSH1 0x80 DUP4 ADD JUMPDEST SWAP3 PUSH1 0x20 DUP2 DUP6 SUB SWAP2 ADD MSTORE PUSH2 0x1800 JUMP JUMPDEST PUSH1 0x40 DUP1 DUP3 MSTORE PUSH1 0x6 SWAP1 DUP3 ADD MSTORE PUSH6 0x14DE5B589BDB PUSH1 0xD2 SHL PUSH1 0x60 DUP3 ADD MSTORE PUSH2 0x363 SWAP3 SWAP1 SWAP2 PUSH1 0x80 DUP4 ADD PUSH2 0x1841 JUMP JUMPDEST CALLDATALOAD PUSH2 0x363 DUP2 PUSH2 0x3BC JUMP JUMPDEST PUSH1 0x40 DUP1 DUP3 MSTORE PUSH1 0xE SWAP1 DUP3 ADD MSTORE PUSH14 0x496E697469616C20537570706C79 PUSH1 0x90 SHL PUSH1 0x60 DUP3 ADD MSTORE SWAP2 SWAP1 PUSH2 0x3BA SWAP1 PUSH1 0x20 PUSH1 0x80 DUP6 ADD SWAP5 ADD MSTORE JUMP JUMPDEST PUSH1 0x40 DUP1 DUP3 MSTORE PUSH1 0xA SWAP1 DUP3 ADD MSTORE PUSH10 0x4D617820537570706C79 PUSH1 0xB0 SHL PUSH1 0x60 DUP3 ADD MSTORE SWAP2 SWAP1 PUSH2 0x3BA SWAP1 PUSH1 0x20 PUSH1 0x80 DUP6 ADD SWAP5 ADD MSTORE JUMP JUMPDEST PUSH1 0x40 DUP1 DUP3 MSTORE PUSH1 0xC SWAP1 DUP3 ADD MSTORE PUSH12 0x50726573616C652052617465 PUSH1 0xA0 SHL PUSH1 0x60 DUP3 ADD MSTORE SWAP2 SWAP1 PUSH2 0x3BA SWAP1 PUSH1 0x20 PUSH1 0x80 DUP6 ADD SWAP5 ADD MSTORE JUMP JUMPDEST CALLDATALOAD PUSH2 0x363 DUP2 PUSH2 0x39D JUMP JUMPDEST PUSH1 0x40 DUP1 DUP3 MSTORE PUSH1 0x5 SWAP1 DUP3 ADD MSTORE PUSH5 0x27BBB732B9 PUSH1 0xD9 SHL PUSH1 0x60 DUP3 ADD MSTORE SWAP2 SWAP1 PUSH2 0x3BA SWAP1 PUSH1 0x20 PUSH1 0x80 DUP6 ADD JUMPDEST SWAP5 ADD SWAP1 PUSH2 0x5E9 JUMP JUMPDEST PUSH1 0x40 DUP1 DUP3 MSTORE PUSH1 0x16 SWAP1 DUP3 ADD MSTORE PUSH22 0x141B185D199BDC9B4811995948149958DA5C1A595B9D PUSH1 0x52 SHL PUSH1 0x60 DUP3 ADD MSTORE SWAP2 SWAP1 PUSH2 0x3BA SWAP1 PUSH1 0x20 PUSH1 0x80 DUP6 ADD PUSH2 0x1945 JUMP JUMPDEST PUSH1 0xA DUP2 MSTORE PUSH10 0x2B30B634B230BA34B7B7 PUSH1 0xB1 SHL PUSH1 0x20 DUP3 ADD MSTORE PUSH1 0x40 ADD SWAP1 JUMP JUMPDEST PUSH1 0x40 DUP1 DUP3 MSTORE PUSH2 0x363 SWAP2 SWAP1 PUSH2 0x19BA SWAP1 DUP3 ADD PUSH2 0x1988 JUMP JUMPDEST SWAP1 PUSH1 0x20 DUP2 DUP4 SUB SWAP2 ADD MSTORE PUSH1 0x11 DUP2 MSTORE PUSH17 0x436865636B696E6720737570706C696573 PUSH1 0x78 SHL PUSH1 0x20 DUP3 ADD MSTORE PUSH1 0x40 ADD SWAP1 JUMP JUMPDEST ISZERO PUSH2 0x19EE JUMPI JUMP JUMPDEST PUSH1 0x40 MLOAD PUSH3 0x461BCD PUSH1 0xE5 SHL DUP2 MSTORE PUSH1 0x20 PUSH1 0x4 DUP3 ADD MSTORE PUSH1 0x24 DUP1 DUP3 ADD MSTORE PUSH32 0x4D617820737570706C79206D757374206265203E3D20696E697469616C207375 PUSH1 0x44 DUP3 ADD MSTORE PUSH4 0x70706C79 PUSH1 0xE0 SHL PUSH1 0x64 DUP3 ADD MSTORE PUSH1 0x84 SWAP1 REVERT JUMPDEST PUSH1 0x40 DUP1 DUP3 MSTORE PUSH2 0x363 SWAP2 SWAP1 PUSH2 0x1A54 SWAP1 DUP3 ADD PUSH2 0x1988 JUMP JUMPDEST SWAP1 PUSH1 0x20 DUP2 DUP4 SUB SWAP2 ADD MSTORE PUSH1 0x15 DUP2 MSTORE PUSH21 0x436865636B696E672070726573616C652072617465 PUSH1 0x58 SHL PUSH1 0x20 DUP3 ADD MSTORE PUSH1 0x40 ADD SWAP1 JUMP JUMPDEST ISZERO PUSH2 0x1A8C JUMPI JUMP JUMPDEST PUSH1 0x40 MLOAD PUSH3 0x461BCD PUSH1 0xE5 SHL DUP2 MSTORE PUSH1 0x20 PUSH1 0x4 DUP3 ADD MSTORE PUSH1 0x14 PUSH1 0x24 DUP3 ADD MSTORE PUSH20 0x496E76616C69642070726573616C652072617465 PUSH1 0x60 SHL PUSH1 0x44 DUP3 ADD MSTORE PUSH1 0x64 SWAP1 REVERT JUMPDEST PUSH1 0x40 DUP1 DUP3 MSTORE PUSH2 0x363 SWAP2 SWAP1 PUSH2 0x1ADD SWAP1 DUP3 ADD PUSH2 0x1988 JUMP JUMPDEST SWAP1 PUSH1 0x20 DUP2 DUP4 SUB SWAP2 ADD MSTORE PUSH1 0xE DUP2 MSTORE PUSH14 0x436865636B696E672074696D6573 PUSH1 0x90 SHL PUSH1 0x20 DUP3 ADD MSTORE PUSH1 0x40 ADD SWAP1 JUMP JUMPDEST ISZERO PUSH2 0x1B0E JUMPI JUMP JUMPDEST PUSH1 0x40 MLOAD PUSH3 0x461BCD PUSH1 0xE5 SHL DUP2 MSTORE PUSH1 0x20 PUSH1 0x4 DUP3 ADD MSTORE PUSH1 0x1C PUSH1 0x24 DUP3 ADD MSTORE PUSH28 0x53746172742074696D65206D75737420626520696E20667574757265 PUSH1 0x20 SHL PUSH1 0x44 DUP3 ADD MSTORE PUSH1 0x64 SWAP1 REVERT JUMPDEST ISZERO PUSH2 0x1B59 JUMPI JUMP JUMPDEST PUSH1 0x40 MLOAD PUSH3 0x461BCD PUSH1 0xE5 SHL DUP2 MSTORE PUSH1 0x20 PUSH1 0x4 DUP3 ADD MSTORE PUSH1 0x21 PUSH1 0x24 DUP3 ADD MSTORE PUSH32 0x456E642074696D65206D7573742062652061667465722073746172742074696D PUSH1 0x44 DUP3 ADD MSTORE PUSH1 0x65 PUSH1 0xF8 SHL PUSH1 0x64 DUP3 ADD MSTORE PUSH1 0x84 SWAP1 REVERT JUMPDEST PUSH1 0xB DUP2 MSTORE PUSH11 0x21B0B631BAB630BA34B7B7 PUSH1 0xA9 SHL PUSH1 0x20 DUP3 ADD MSTORE PUSH1 0x40 ADD SWAP1 JUMP JUMPDEST PUSH1 0x40 DUP1 DUP3 MSTORE PUSH2 0x363 SWAP2 SWAP1 PUSH2 0x1BDB SWAP1 DUP3 ADD PUSH2 0x1BA8 JUMP JUMPDEST SWAP1 PUSH1 0x20 DUP2 DUP4 SUB SWAP2 ADD MSTORE PUSH1 0x18 DUP2 MSTORE PUSH24 0x436F6D707574696E672070726573616C6520746F6B656E73 PUSH1 0x40 SHL PUSH1 0x20 DUP3 ADD MSTORE PUSH1 0x40 ADD SWAP1 JUMP JUMPDEST DUP2 DUP2 MUL SWAP3 SWAP2 DUP2 ISZERO SWAP2 DUP5 DIV EQ OR ISZERO PUSH2 0x14B7 JUMPI JUMP JUMPDEST PUSH4 0x4E487B71 PUSH1 0xE0 SHL PUSH1 0x0 MSTORE PUSH1 0x12 PUSH1 0x4 MSTORE PUSH1 0x24 PUSH1 0x0 REVERT JUMPDEST SWAP1 PUSH2 0x1C42 JUMP JUMPDEST SWAP2 SWAP1 JUMP JUMPDEST SWAP1 DUP2 ISZERO PUSH2 0x1C4D JUMPI DIV SWAP1 JUMP JUMPDEST PUSH2 0x1C22 JUMP JUMPDEST PUSH1 0x40 DUP1 DUP3 MSTORE PUSH1 0xE SWAP1 DUP3 ADD MSTORE PUSH14 0x50726573616C6520546F6B656E73 PUSH1 0x90 SHL PUSH1 0x60 DUP3 ADD MSTORE SWAP2 SWAP1 PUSH2 0x3BA SWAP1 PUSH1 0x20 PUSH1 0x80 DUP6 ADD SWAP5 ADD MSTORE JUMP JUMPDEST PUSH1 0x40 DUP1 DUP3 MSTORE PUSH2 0x363 SWAP2 SWAP1 PUSH2 0x1C9A SWAP1 DUP3 ADD PUSH2 0x1BA8 JUMP JUMPDEST SWAP1 PUSH1 0x20 DUP2 DUP4 SUB SWAP2 ADD MSTORE PUSH1 0x1E DUP2 MSTORE PUSH32 0x436F6D707574696E672072657175697265642070726573616C65206361700000 PUSH1 0x20 DUP3 ADD MSTORE PUSH1 0x40 ADD SWAP1 JUMP JUMPDEST PUSH1 0x40 DUP1 DUP3 MSTORE PUSH1 0x14 SWAP1 DUP3 ADD MSTORE PUSH20 0x52657175697265642050726573616C652043617 PUSH1 0x64 SHL PUSH1 0x60 DUP3 ADD MSTORE SWAP2 SWAP1 PUSH2 0x3BA SWAP1 PUSH1 0x20 PUSH1 0x80 DUP6 ADD SWAP5 ADD MSTORE JUMP JUMPDEST PUSH1 0x40 DUP1 DUP3 MSTORE PUSH1 0x14 SWAP1 DUP3 ADD MSTORE PUSH20 0x50726F76696465642050726573616C652043617 PUSH1 0x64 SHL PUSH1 0x60 DUP3 ADD MSTORE SWAP2 SWAP1 PUSH2 0x3BA SWAP1 PUSH1 0x20 PUSH1 0x80 DUP6 ADD SWAP5 ADD MSTORE JUMP JUMPDEST ISZERO PUSH2 0x1D4C JUMPI JUMP JUMPDEST PUSH1 0x40 MLOAD PUSH3 0x461BCD PUSH1 0xE5 SHL DUP2 MSTORE PUSH1 0x20 PUSH1 0x4 DUP3 ADD MSTORE PUSH1 0x28 PUSH1 0x24 DUP3 ADD MSTORE PUSH32 0x50726573616C652063617020746F6F206C6F7720666F7220746F6B656E20616C PUSH1 0x44 DUP3 ADD MSTORE PUSH8 0x3637B1B0BA34B7B7 PUSH1 0xC1 SHL PUSH1 0x64 DUP3 ADD MSTORE PUSH1 0x84 SWAP1 REVERT JUMPDEST PUSH1 0xD DUP2 MSTORE PUSH13 0x21B7B73334B3BAB930BA34B7B7 PUSH1 0x99 SHL PUSH1 0x20 DUP3 ADD MSTORE PUSH1 0x40 ADD SWAP1 JUMP JUMPDEST PUSH1 0x40 DUP1 DUP3 MSTORE PUSH2 0x363 SWAP2 SWAP1 PUSH2 0x1DD7 SWAP1 DUP3 ADD PUSH2 0x1DA2 JUMP JUMPDEST SWAP1 PUSH1 0x20 DUP2 DUP4 SUB SWAP2 ADD MSTORE PUSH1 0x18 DUP2 MSTORE PUSH24 0x53657474696E6720746F6B656E20706172616D6574657273 PUSH1 0x40 SHL PUSH1 0x20 DUP3 ADD MSTORE PUSH1 0x40 ADD SWAP1 JUMP JUMPDEST SWAP1 PUSH1 0x0 NOT SWAP1 PUSH2 0x10EC JUMP JUMPDEST SWAP1 PUSH2 0x1E25 PUSH2 0x363 PUSH2 0x110D SWAP3 PUSH2 0xDF6 JUMP JUMPDEST DUP3 SLOAD PUSH2 0x1E0B JUMP JUMPDEST CALLDATALOAD PUSH2 0x363 DUP2 PUSH2 0x425 JUMP JUMPDEST PUSH1 0x40 DUP1 DUP3 MSTORE PUSH2 0x363 SWAP2 SWAP1 PUSH2 0x1E4B SWAP1 DUP3 ADD PUSH2 0x1DA2 JUMP JUMPDEST SWAP1 PUSH1 0x20 DUP2 DUP4 SUB SWAP2 ADD MSTORE PUSH1 0x1A DUP2 MSTORE PUSH26 0x53657474696E672070726573616C6520706172616D6574657273 PUSH1 0x30 SHL PUSH1 0x20 DUP3 ADD MSTORE PUSH1 0x40 ADD SWAP1 JUMP JUMPDEST PUSH2 0x363 PUSH2 0x160 PUSH2 0x8D9 JUMP JUMPDEST PUSH4 0x4E487B71 PUSH1 0xE0 SHL PUSH1 0x0 MSTORE PUSH1 0x0 PUSH1 0x4 MSTORE PUSH1 0x24 PUSH1 0x0 REVERT JUMPDEST PUSH1 0x9 PUSH2 0x1F94 PUSH2 0x140 PUSH2 0x3BA SWAP5 PUSH2 0x1EC2 PUSH2 0x1EBC PUSH1 0x0 DUP4 ADD MLOAD SWAP1 JUMP JUMPDEST DUP7 PUSH2 0x1E15 JUMP JUMPDEST PUSH2 0x1ED9 PUSH2 0x1ED0 PUSH1 0x20 DUP4 ADD MLOAD SWAP1 JUMP JUMPDEST PUSH1 0x1 DUP8 ADD PUSH2 0x1E15 JUMP JUMPDEST PUSH2 0x1EF0 PUSH2 0x1EE7 PUSH1 0x40 DUP4 ADD MLOAD SWAP1 JUMP JUMPDEST PUSH1 0x2 DUP8 ADD PUSH2 0x1E15 JUMP JUMPDEST PUSH2 0x1F07 PUSH2 0x1EFE PUSH1 0x60 DUP4 ADD MLOAD SWAP1 JUMP JUMPDEST PUSH1 0x3 DUP8 ADD PUSH2 0x1E15 JUMP JUMPDEST PUSH2 0x1F1E PUSH2 0x1F15 PUSH1 0x80 DUP4 ADD MLOAD SWAP1 JUMP JUMPDEST PUSH1 0x4 DUP8 ADD PUSH2 0x1E15 JUMP JUMPDEST PUSH2 0x1F35 PUSH2 0x1F2C PUSH1 0xA0 DUP4 ADD MLOAD SWAP1 JUMP JUMPDEST PUSH1 0x5 DUP8 ADD PUSH2 0x1E15 JUMP JUMPDEST PUSH2 0x1F4C PUSH2 0x1F43 PUSH1 0xC0 DUP4 ADD MLOAD SWAP1 JUMP JUMPDEST PUSH1 0x6 DUP8 ADD PUSH2 0x1E15 JUMP JUMPDEST PUSH2 0x1F77 PUSH1 0x7 DUP7 ADD PUSH2 0x1F69 PUSH2 0x1F63 PUSH1 0xE0 DUP6 ADD MLOAD ISZERO ISZERO SWAP1 JUMP JUMPDEST DUP3 PUSH2 0x10F6 JUMP JUMPDEST PUSH2 0x100 DUP4 ADD MLOAD ISZERO ISZERO SWAP1 PUSH2 0x168B JUMP JUMPDEST PUSH2 0x1F8F PUSH2 0x1F86 PUSH2 0x120 DUP4 ADD MLOAD SWAP1 JUMP JUMPDEST PUSH1 0x8 DUP8 ADD PUSH2 0x1E15 JUMP JUMPDEST ADD MLOAD SWAP1 JUMP JUMPDEST SWAP2 ADD PUSH2 0x1E15 JUMP JUMPDEST SWAP1 PUSH2 0x3BA SWAP2 PUSH2 0x1EA2 JUMP JUMPDEST PUSH1 0x40 DUP1 DUP3 MSTORE PUSH2 0x363 SWAP2 SWAP1 PUSH2 0x1FBA SWAP1 DUP3 ADD PUSH2 0x1DA2 JUMP JUMPDEST SWAP1 PUSH1 0x20 DUP2 DUP4 SUB SWAP2 ADD MSTORE PUSH1 0x1C DUP2 MSTORE PUSH28 0x53657474696E67206C697175696469747920706172616D6574657273 PUSH1 0x20 SHL PUSH1 0x20 DUP3 ADD MSTORE PUSH1 0x40 ADD SWAP1 JUMP JUMPDEST PUSH2 0x363 PUSH1 0x80 PUSH2 0x8D9 JUMP JUMPDEST PUSH1 0x3 PUSH2 0x2038 PUSH1 0x60 PUSH2 0x3BA SWAP5 PUSH2 0x2015 PUSH2 0x1EBC PUSH1 0x0 DUP4 ADD MLOAD SWAP1 JUMP JUMPDEST PUSH2 0x2023 PUSH2 0x1ED0 PUSH1 0x20 DUP4 ADD MLOAD SWAP1 JUMP JUMPDEST PUSH2 0x2031 PUSH2 0x1EE7 PUSH1 0x40 DUP4 ADD MLOAD SWAP1 JUMP JUMPDEST ADD MLOAD ISZERO ISZERO SWAP1 JUMP JUMPDEST SWAP2 ADD PUSH2 0x10F6 JUMP JUMPDEST SWAP1 PUSH2 0x3BA SWAP2 PUSH2 0x1FFC JUMP JUMPDEST PUSH1 0x40 DUP1 DUP3 MSTORE PUSH2 0x363 SWAP2 SWAP1 PUSH2 0x205E SWAP1 DUP3 ADD PUSH2 0x1DA2 JUMP JUMPDEST SWAP1 PUSH1 0x20 DUP2 DUP4 SUB SWAP2 ADD MSTORE PUSH1 0x1F DUP2 MSTORE PUSH32 0x53657474696E6720706C6174666F726D2066656520706172616D657465727300 PUSH1 0x20 DUP3 ADD MSTORE PUSH1 0x40 ADD SWAP1 JUMP JUMPDEST PUSH2 0x363 PUSH1 0xE0 PUSH2 0x8D9 JUMP JUMPDEST SWAP1 PUSH2 0x3F2 SWAP1 PUSH2 0x391 JUMP JUMPDEST PUSH2 0x363 SWAP1 MLOAD PUSH2 0x391 JUMP JUMPDEST SWAP1 PUSH1 0x1 PUSH1 0x1 PUSH1 0xA0 SHL SUB SWAP1 PUSH2 0x10EC JUMP JUMPDEST SWAP1 PUSH2 0x20D4 PUSH2 0x363 PUSH2 0x110D SWAP3 PUSH2 0x84B JUMP JUMPDEST DUP3 SLOAD PUSH2 0x20B5 JUMP JUMPDEST PUSH1 0x6 PUSH2 0x1F94 PUSH1 0xC0 PUSH2 0x3BA SWAP5 PUSH2 0x20FB PUSH2 0x20F5 PUSH1 0x0 DUP4 ADD PUSH2 0x20AB JUMP JUMPDEST DUP7 PUSH2 0x20C4 JUMP JUMPDEST PUSH2 0x2109 PUSH2 0x1ED0 PUSH1 0x20 DUP4 ADD MLOAD SWAP1 JUMP JUMPDEST PUSH2 0x2122 PUSH2 0x2119 PUSH1 0x40 DUP4 ADD MLOAD ISZERO ISZERO SWAP1 JUMP JUMPDEST PUSH1 0x2 DUP8 ADD PUSH2 0x10F6 JUMP JUMPDEST PUSH2 0x2130 PUSH2 0x1EFE PUSH1 0x60 DUP4 ADD MLOAD SWAP1 JUMP JUMPDEST PUSH2 0x213E PUSH2 0x1F15 PUSH1 0x80 DUP4 ADD MLOAD SWAP1 JUMP JUMPDEST PUSH2 0x1F8F PUSH2 0x1F2C PUSH1 0xA0 DUP4 ADD MLOAD SWAP1 JUMP JUMPDEST SWAP1 PUSH2 0x3BA SWAP2 PUSH2 0x20DB JUMP JUMPDEST PUSH1 0x40 DUP1 DUP3 MSTORE PUSH2 0x363 SWAP2 SWAP1 PUSH2 0x216B SWAP1 DUP3 ADD PUSH2 0x1BA8 JUMP JUMPDEST SWAP1 PUSH1 0x20 DUP2 DUP4 SUB SWAP2 ADD MSTORE PUSH1 0x1B DUP2 MSTORE PUSH27 0x436F6D707574696E6720746F6B656E20616C6C6F636174696F6E73 PUSH1 0x28 SHL PUSH1 0x20 DUP3 ADD MSTORE PUSH1 0x40 ADD SWAP1 JUMP JUMPDEST PUSH1 0x40 DUP1 DUP3 MSTORE PUSH1 0xF SWAP1 DUP3 ADD MSTORE PUSH15 0x2A32B0B69020B63637B1B0BA34B7B7 PUSH1 0x89 SHL PUSH1 0x60 DUP3 ADD MSTORE SWAP2 SWAP1 PUSH2 0x3BA SWAP1 PUSH1 0x20 PUSH1 0x80 DUP6 ADD SWAP5 ADD MSTORE JUMP JUMPDEST PUSH1 0x40 DUP1 DUP3 MSTORE PUSH1 0x14 SWAP1 DUP3 ADD MSTORE PUSH20 0x26B0B935B2BA34B7339020B63637B1B0BA34B7B7 PUSH1 0x61 SHL PUSH1 0x60 DUP3 ADD MSTORE SWAP2 SWAP1 PUSH2 0x3BA SWAP1 PUSH1 0x20 PUSH1 0x80 DUP6 ADD SWAP5 ADD MSTORE JUMP JUMPDEST PUSH1 0x40 DUP1 DUP3 MSTORE PUSH1 0x16 SWAP1 DUP3 ADD MSTORE PUSH22 0x2232BB32B637B836B2B73A1020B63637B1B0BA34B7B7 PUSH1 0x51 SHL PUSH1 0x60 DUP3 ADD MSTORE SWAP2 SWAP1 PUSH2 0x3BA SWAP1 PUSH1 0x20 PUSH1 0x80 DUP6 ADD SWAP5 ADD MSTORE JUMP JUMPDEST PUSH1 0x40 DUP1 DUP3 MSTORE PUSH2 0x363 SWAP2 SWAP1 PUSH2 0x225F SWAP1 DUP3 ADD PUSH2 0x1DA2 JUMP JUMPDEST SWAP1 PUSH1 0x20 DUP2 DUP4 SUB SWAP2 ADD MSTORE PUSH1 0x1C DUP2 MSTORE PUSH28 0x53657474696E672075702076657374696E67207363686564756C6573 PUSH1 0x20 SHL PUSH1 0x20 DUP3 ADD MSTORE PUSH1 0x40 ADD SWAP1 JUMP JUMPDEST PUSH2 0x363 PUSH1 0xC0 PUSH2 0x8D9 JUMP JUMPDEST PUSH2 0x22AB PUSH1 0x4 PUSH2 0x142B JUMP JUMPDEST PUSH4 0x5465616D PUSH1 0xE0 SHL PUSH1 0x20 DUP3 ADD MSTORE SWAP1 JUMP JUMPDEST PUSH2 0x363 PUSH2 0x22A1 JUMP JUMPDEST SWAP2 PUSH1 0x0 NOT PUSH1 0x8 SWAP3 SWAP1 SWAP3 MUL SWAP2 DUP3 SHL SWAP2 SHL PUSH2 0x10EC JUMP JUMPDEST SWAP2 SWAP1 PUSH2 0x22E8 PUSH2 0x363 PUSH2 0x110D SWAP4 PUSH2 0xDF6 JUMP JUMPDEST SWAP1 DUP4 SLOAD PUSH2 0x22C3 JUMP JUMPDEST PUSH2 0x3BA SWAP2 PUSH1 0x0 SWAP2 PUSH2 0x22D7 JUMP JUMPDEST DUP2 DUP2 LT PUSH2 0x2307 JUMPI POP POP JUMP JUMPDEST DUP1 PUSH2 0x2315 PUSH1 0x0 PUSH1 0x1 SWAP4 PUSH2 0x22F0 JUMP JUMPDEST ADD PUSH2 0x22FC JUMP JUMPDEST SWAP2 SWAP1 PUSH1 0x1F DUP2 GT PUSH2 0x232A JUMPI POP POP POP JUMP JUMPDEST PUSH2 0x233C PUSH2 0x3BA SWAP4 PUSH1 0x0 MSTORE PUSH1 0x20 PUSH1 0x0 KECCAK256 SWAP1 JUMP JUMPDEST SWAP1 PUSH1 0x20 PUSH1 0x1F DUP5 ADD DUP2 SWAP1 DIV DUP4 ADD SWAP4 LT PUSH2 0x235E JUMPI JUMPDEST PUSH1 0x20 PUSH1 0x1F SWAP1 SWAP2 ADD DIV ADD SWAP1 PUSH2 0x22FC JUMP JUMPDEST SWAP1 SWAP2 POP DUP2 SWAP1 PUSH2 0x234F JUMP JUMPDEST SWAP1 PUSH1 0x0 NOT PUSH1 0x8 SWAP1 SWAP2 MUL SHR NOT AND SWAP1 JUMP JUMPDEST DUP2 PUSH2 0x2381 SWAP2 PUSH2 0x2368 JUMP JUMPDEST SWAP1 PUSH1 0x2 MUL OR SWAP1 JUMP JUMPDEST SWAP1 PUSH2 0x2392 DUP2 MLOAD SWAP1 JUMP JUMPDEST SWAP1 PUSH1 0x1 PUSH1 0x1 PUSH1 0x40 SHL SUB DUP3 GT PUSH2 0x8D4 JUMPI PUSH2 0x23B5 DUP3 PUSH2 0x23AF DUP6 SLOAD PUSH2 0xAD0 JUMP JUMPDEST DUP6 PUSH2 0x231B JUMP JUMPDEST PUSH1 0x20 SWAP1 PUSH1 0x1F DUP4 GT PUSH1 0x1 EQ PUSH2 0x23E3 JUMPI PUSH2 0x110D SWAP3 SWAP2 PUSH1 0x0 SWAP2 DUP4 PUSH2 0x23D8 JUMPI JUMPDEST POP POP PUSH2 0x2377 JUMP JUMPDEST ADD MLOAD SWAP1 POP CODESIZE DUP1 PUSH2 0x23D1 JUMP JUMPDEST PUSH1 0x1F NOT DUP4 AND SWAP2 PUSH2 0x23F8 DUP6 PUSH1 0x0 MSTORE PUSH1 0x20 PUSH1 0x0 KECCAK256 SWAP1 JUMP JUMPDEST SWAP3 PUSH1 0x0 JUMPDEST DUP2 DUP2 LT PUSH2 0x2437 JUMPI POP SWAP2 PUSH1 0x2 SWAP4 SWAP2 DUP6 PUSH1 0x1 SWAP7 SWAP5 LT PUSH2 0x241D JUMPI JUMPDEST POP POP POP MUL ADD SWAP1 SSTORE JUMP JUMPDEST PUSH2 0x242D SWAP2 ADD MLOAD PUSH1 0x1F DUP5 AND SWAP1 PUSH2 0x2368 JUMP JUMPDEST SWAP1 SSTORE CODESIZE DUP1 DUP1 PUSH2 0x2414 JUMP JUMPDEST SWAP2 SWAP4 PUSH1 0x20 PUSH1 0x1 DUP2 SWAP3 DUP8 DUP8 ADD MLOAD DUP2 SSTORE ADD SWAP6 ADD SWAP3 ADD PUSH2 0x23FC JUMP JUMPDEST SWAP1 PUSH2 0x3BA SWAP2 PUSH2 0x2389 JUMP JUMPDEST PUSH1 0x5 PUSH2 0x1F94 PUSH1 0xA0 PUSH2 0x3BA SWAP5 PUSH2 0x2478 PUSH2 0x2472 PUSH1 0x0 DUP4 ADD MLOAD SWAP1 JUMP JUMPDEST DUP7 PUSH2 0x244F JUMP JUMPDEST PUSH2 0x2486 PUSH2 0x1ED0 PUSH1 0x20 DUP4 ADD MLOAD SWAP1 JUMP JUMPDEST PUSH2 0x2494 PUSH2 0x1EE7 PUSH1 0x40 DUP4 ADD MLOAD SWAP1 JUMP JUMPDEST PUSH2 0x24AC PUSH2 0x24A3 PUSH1 0x60 DUP4 ADD PUSH2 0x20AB JUMP JUMPDEST PUSH1 0x3 DUP8 ADD PUSH2 0x20C4 JUMP JUMPDEST PUSH2 0x1F8F PUSH2 0x1F15 PUSH1 0x80 DUP4 ADD MLOAD SWAP1 JUMP JUMPDEST SWAP2 SWAP1 PUSH2 0x24C9 JUMPI PUSH2 0x3BA SWAP2 PUSH2 0x2459 JUMP JUMPDEST PUSH2 0x1E8C JUMP JUMPDEST DUP1 SLOAD SWAP2 SWAP1 PUSH1 0x1 PUSH1 0x40 SHL DUP4 LT ISZERO PUSH2 0x8D4 JUMPI DUP3 PUSH2 0x24F1 SWAP2 PUSH1 0x1 PUSH2 0x3BA SWAP6 ADD DUP2 SSTORE PUSH2 0xA92 JUMP JUMPDEST SWAP1 PUSH2 0x24BA JUMP JUMPDEST PUSH2 0x2501 PUSH1 0x9 PUSH2 0x142B JUMP JUMPDEST PUSH9 0x4D61726B6574696E67 PUSH1 0xB8 SHL PUSH1 0x20 DUP3 ADD MSTORE SWAP1 JUMP JUMPDEST PUSH2 0x363 PUSH2 0x24F7 JUMP JUMPDEST PUSH2 0x2528 PUSH1 0xB PUSH2 0x142B JUMP JUMPDEST PUSH11 0x11195D995B1BDC1B595B9D PUSH1 0xAA SHL PUSH1 0x20 DUP3 ADD MSTORE SWAP1 JUMP JUMPDEST PUSH2 0x363 PUSH2 0x251E JUMP JUMPDEST PUSH32 0xF506DD1F37A395CD46449E11AE828CB6812F8B31AD36AFBEB191DA78D153A574 SWAP1 DUP2 PUSH2 0x2573 PUSH1 0x40 MLOAD SWAP1 JUMP JUMPDEST PUSH1 0x40 DUP1 DUP3 MSTORE PUSH1 0x5 SWAP1 DUP3 ADD MSTORE PUSH5 0x14DD185C9D PUSH1 0xDA SHL PUSH1 0x60 DUP3 ADD MSTORE PUSH1 0x80 PUSH1 0x20 DUP3 ADD DUP2 SWAP1 MSTORE PUSH1 0x18 SWAP1 DUP3 ADD MSTORE PUSH24 0x2132B3B4B73734B7339034B734BA34B0B634BD30BA34B7B7 PUSH1 0x41 SHL PUSH1 0xA0 DUP3 ADD MSTORE PUSH1 0xC0 SWAP1 LOG1 DUP1 PUSH2 0x25CB DUP2 DUP1 PUSH2 0x17C1 JUMP JUMPDEST PUSH1 0x20 DUP5 ADD SWAP3 SWAP2 PUSH2 0x25DB DUP5 DUP7 PUSH2 0x17C1 JUMP JUMPDEST SWAP3 PUSH2 0x25E6 SWAP2 SWAP3 PUSH2 0x17F5 JUMP JUMPDEST SWAP2 PUSH2 0x25F0 SWAP2 PUSH2 0x17F5 JUMP JUMPDEST PUSH2 0x25F9 SWAP2 PUSH2 0x4742 JUMP JUMPDEST PUSH2 0x2601 PUSH2 0x4764 JUMP JUMPDEST PUSH2 0x2609 PUSH2 0x4784 JUMP JUMPDEST PUSH2 0x2611 PUSH2 0x4799 JUMP JUMPDEST PUSH2 0x261B SWAP1 DUP4 PUSH2 0x17C1 JUMP JUMPDEST PUSH32 0xF0CBEEB2353F6EFDD2E429C8D7D2F4DE6D1E80FCB80E2B25087503A13D9AF33A SWAP3 SWAP2 DUP4 SWAP2 PUSH2 0x2649 PUSH1 0x40 MLOAD SWAP1 JUMP JUMPDEST SWAP2 DUP3 SWAP2 PUSH2 0x2656 SWAP2 DUP4 PUSH2 0x181E JUMP JUMPDEST SUB SWAP1 LOG1 PUSH2 0x2663 SWAP1 DUP4 PUSH2 0x17C1 JUMP JUMPDEST PUSH1 0x40 MLOAD SWAP2 DUP3 SWAP2 PUSH2 0x2673 SWAP2 DUP4 PUSH2 0x184F JUMP JUMPDEST SUB SWAP1 LOG1 PUSH1 0x40 DUP2 ADD SWAP1 PUSH2 0x2684 DUP3 PUSH2 0x1878 JUMP JUMPDEST SWAP1 PUSH32 0x74CD6951A31B2A871B7AE11BE2F888702548CFA1D9CC6A9FDB5EDDC4E340E060 DUP1 SWAP3 PUSH2 0x26B1 PUSH1 0x40 MLOAD SWAP1 JUMP JUMPDEST PUSH2 0x26BC DUP2 SWAP3 DUP3 PUSH2 0x1882 JUMP JUMPDEST SUB SWAP1 LOG1 PUSH1 0x60 DUP2 ADD SWAP1 DUP3 PUSH2 0x26CE DUP4 PUSH2 0x1878 JUMP JUMPDEST PUSH1 0x40 MLOAD PUSH2 0x26DC DUP2 SWAP3 DUP3 PUSH2 0x18B5 JUMP JUMPDEST SUB SWAP1 LOG1 PUSH1 0xE0 DUP2 ADD SWAP3 DUP1 PUSH2 0x26EE DUP6 PUSH2 0x1878 JUMP JUMPDEST PUSH1 0x40 MLOAD PUSH2 0x26FC DUP2 SWAP3 DUP3 PUSH2 0x18E4 JUMP JUMPDEST SUB SWAP1 LOG1 PUSH1 0x80 DUP3 ADD SWAP3 PUSH2 0x270D DUP5 PUSH2 0x1915 JUMP JUMPDEST SWAP3 PUSH32 0x9BF9B59D553E3363DCBA6C1A6A6B896C7B93040E0F4CB5DCB97C43F37AD5E53 DUP1 SWAP5 PUSH2 0x273A PUSH1 0x40 MLOAD SWAP1 JUMP JUMPDEST PUSH2 0x2745 DUP2 SWAP3 DUP3 PUSH2 0x191F JUMP JUMPDEST SUB SWAP1 LOG1 PUSH2 0x1E0 DUP2 ADD SWAP4 PUSH2 0x2757 DUP6 PUSH2 0x1915 JUMP JUMPDEST PUSH1 0x40 MLOAD PUSH2 0x2765 DUP2 SWAP3 DUP3 PUSH2 0x194D JUMP JUMPDEST SUB SWAP1 LOG1 DUP8 PUSH2 0x2772 PUSH1 0x40 MLOAD SWAP1 JUMP JUMPDEST DUP1 PUSH2 0x277C DUP2 PUSH2 0x19A5 JUMP JUMPDEST SUB SWAP1 LOG1 PUSH2 0x2788 DUP3 PUSH2 0x1878 JUMP JUMPDEST PUSH2 0x2791 DUP9 PUSH2 0x1878 JUMP JUMPDEST GT ISZERO PUSH2 0x279C SWAP1 PUSH2 0x19E7 JUMP JUMPDEST DUP8 PUSH2 0x27A6 PUSH1 0x40 MLOAD SWAP1 JUMP JUMPDEST DUP1 PUSH2 0x27B0 DUP2 PUSH2 0x1A3F JUMP JUMPDEST SUB SWAP1 LOG1 PUSH2 0x27BC DUP7 PUSH2 0x1878 JUMP JUMPDEST SWAP7 PUSH1 0x0 SWAP8 PUSH2 0x27C9 DUP10 PUSH2 0xDF6 JUMP JUMPDEST LT PUSH2 0x27D3 SWAP1 PUSH2 0x1A85 JUMP JUMPDEST DUP9 PUSH2 0x27DD PUSH1 0x40 MLOAD SWAP1 JUMP JUMPDEST DUP1 PUSH2 0x27E7 DUP2 PUSH2 0x1AC8 JUMP JUMPDEST SUB SWAP1 LOG1 DUP8 PUSH2 0x160 DUP4 ADD SWAP6 PUSH2 0x27FA DUP8 PUSH2 0x1878 JUMP JUMPDEST TIMESTAMP LT PUSH2 0x2805 SWAP1 PUSH2 0x1B07 JUMP JUMPDEST PUSH2 0x180 DUP5 ADD SWAP5 PUSH2 0x2814 DUP7 PUSH2 0x1878 JUMP JUMPDEST PUSH2 0x281D DUP10 PUSH2 0x1878 JUMP JUMPDEST LT PUSH2 0x2827 SWAP1 PUSH2 0x1B52 JUMP JUMPDEST DUP12 PUSH2 0x2831 PUSH1 0x40 MLOAD SWAP1 JUMP JUMPDEST DUP1 PUSH2 0x283B DUP2 PUSH2 0x1BC6 JUMP JUMPDEST SUB SWAP1 LOG1 PUSH2 0x2847 DUP5 PUSH2 0x1878 JUMP JUMPDEST PUSH2 0x2854 PUSH2 0x2E0 DUP8 ADD PUSH2 0x1878 JUMP JUMPDEST PUSH2 0x285D SWAP2 PUSH2 0x1C0F JUMP JUMPDEST SWAP6 PUSH2 0x2710 SWAP7 PUSH2 0x286B DUP9 PUSH2 0xDF6 JUMP JUMPDEST PUSH2 0x2874 SWAP2 PUSH2 0x1C38 JUMP JUMPDEST DUP9 PUSH2 0x287E PUSH1 0x40 MLOAD SWAP1 JUMP JUMPDEST DUP1 PUSH2 0x2889 DUP5 DUP3 PUSH2 0x1C52 JUMP JUMPDEST SUB SWAP1 LOG1 DUP14 PUSH2 0x2896 PUSH1 0x40 MLOAD SWAP1 JUMP JUMPDEST DUP1 PUSH2 0x28A0 DUP2 PUSH2 0x1C85 JUMP JUMPDEST SUB SWAP1 LOG1 PUSH2 0x28B4 PUSH8 0xDE0B6B3A7640000 PUSH2 0xDF6 JUMP JUMPDEST PUSH2 0x28BD SWAP2 PUSH2 0x1C0F JUMP JUMPDEST PUSH2 0x28C6 DUP13 PUSH2 0x1878 JUMP JUMPDEST PUSH2 0x28CF SWAP2 PUSH2 0x1C38 JUMP JUMPDEST SWAP2 DUP9 PUSH2 0x28DA PUSH1 0x40 MLOAD SWAP1 JUMP JUMPDEST DUP1 PUSH2 0x28E5 DUP7 DUP3 PUSH2 0x1CD3 JUMP JUMPDEST SUB SWAP1 LOG1 PUSH2 0x140 DUP8 ADD SWAP3 DUP10 PUSH2 0x28F8 DUP6 PUSH2 0x1878 JUMP JUMPDEST PUSH1 0x40 MLOAD PUSH2 0x2906 DUP2 SWAP3 DUP3 PUSH2 0x1D0C JUMP JUMPDEST SUB SWAP1 LOG1 PUSH2 0x2912 DUP5 PUSH2 0x1878 JUMP JUMPDEST LT ISZERO PUSH2 0x291D SWAP1 PUSH2 0x1D45 JUMP JUMPDEST DUP14 PUSH2 0x2927 PUSH1 0x40 MLOAD SWAP1 JUMP JUMPDEST DUP1 PUSH2 0x2931 DUP2 PUSH2 0x1DC2 JUMP JUMPDEST SUB SWAP1 LOG1 PUSH2 0x293D SWAP1 PUSH2 0x1878 JUMP JUMPDEST PUSH2 0x2949 SWAP1 PUSH2 0x12D PUSH2 0x1E15 JUMP JUMPDEST PUSH2 0x2955 PUSH1 0xA0 DUP8 ADD PUSH2 0x1E2C JUMP JUMPDEST PUSH2 0x2961 SWAP1 PUSH2 0x12E PUSH2 0x10F6 JUMP JUMPDEST PUSH2 0x296D PUSH1 0xC0 DUP8 ADD PUSH2 0x1E2C JUMP JUMPDEST PUSH2 0x2979 SWAP1 PUSH2 0x12E PUSH2 0x168B JUMP JUMPDEST DUP13 PUSH2 0x2983 PUSH1 0x40 MLOAD SWAP1 JUMP JUMPDEST DUP1 PUSH2 0x298D DUP2 PUSH2 0x1E36 JUMP JUMPDEST SUB SWAP1 LOG1 PUSH2 0x2999 DUP3 PUSH2 0x1878 JUMP JUMPDEST PUSH2 0x29A3 PUSH1 0x2 PUSH2 0xDF6 JUMP JUMPDEST PUSH2 0x29AC SWAP2 PUSH2 0x1C38 JUMP JUMPDEST SWAP2 PUSH2 0x29B6 SWAP1 PUSH2 0x1878 JUMP JUMPDEST SWAP11 PUSH2 0x29C4 PUSH2 0x100 DUP9 ADD PUSH2 0x1878 JUMP JUMPDEST SWAP1 PUSH2 0x29D2 PUSH2 0x120 DUP10 ADD PUSH2 0x1878 JUMP JUMPDEST SWAP1 PUSH2 0x29DC SWAP1 PUSH2 0x1878 JUMP JUMPDEST SWAP2 PUSH2 0x29E6 DUP13 PUSH2 0x1878 JUMP JUMPDEST SWAP4 PUSH2 0x29F0 SWAP1 PUSH2 0x1878 JUMP JUMPDEST SWAP5 PUSH2 0x29F9 PUSH2 0x1E81 JUMP JUMPDEST SWAP15 DUP16 SWAP2 PUSH2 0x2A06 SWAP1 DUP11 DUP5 ADD MSTORE JUMP JUMPDEST PUSH1 0x20 DUP3 ADD MSTORE PUSH1 0x40 ADD MSTORE PUSH1 0x60 DUP14 ADD MSTORE PUSH1 0x80 DUP13 ADD MSTORE PUSH1 0xA0 DUP12 ADD MSTORE PUSH1 0xC0 DUP11 ADD MSTORE DUP2 ISZERO ISZERO PUSH1 0xE0 DUP11 ADD DUP2 SWAP1 MSTORE PUSH2 0x100 DUP11 ADD MSTORE PUSH2 0x2A3C DUP3 PUSH2 0xDF6 JUMP JUMPDEST SWAP9 PUSH2 0x2A49 DUP11 PUSH2 0x120 DUP4 ADD MSTORE JUMP JUMPDEST PUSH2 0x2A55 DUP11 PUSH2 0x140 DUP4 ADD MSTORE JUMP JUMPDEST PUSH2 0x2A61 SWAP1 PUSH2 0x136 PUSH2 0x1F9B JUMP JUMPDEST DUP11 PUSH2 0x2A6B PUSH1 0x40 MLOAD SWAP1 JUMP JUMPDEST DUP1 PUSH2 0x2A75 DUP2 PUSH2 0x1FA5 JUMP JUMPDEST SUB SWAP1 LOG1 PUSH2 0x2A85 PUSH2 0x1A0 DUP6 ADD PUSH2 0x1878 JUMP JUMPDEST PUSH2 0x2A92 PUSH2 0x1C0 DUP7 ADD PUSH2 0x1878 JUMP JUMPDEST PUSH2 0x2A9A PUSH2 0x1FF2 JUMP JUMPDEST SWAP2 PUSH2 0x2AA5 SWAP1 DUP6 DUP5 ADD MSTORE JUMP JUMPDEST PUSH1 0x20 DUP3 ADD MSTORE PUSH2 0x2AB5 DUP11 PUSH1 0x40 DUP4 ADD MSTORE JUMP JUMPDEST DUP3 ISZERO ISZERO PUSH1 0x60 DUP3 ADD MSTORE PUSH2 0x2AC9 SWAP1 PUSH2 0x149 PUSH2 0x203F JUMP JUMPDEST DUP11 PUSH2 0x2AD3 PUSH1 0x40 MLOAD SWAP1 JUMP JUMPDEST DUP1 PUSH2 0x2ADD DUP2 PUSH2 0x2049 JUMP JUMPDEST SUB SWAP1 LOG1 PUSH2 0x2AE9 SWAP1 PUSH2 0x1915 JUMP JUMPDEST PUSH2 0x2AF6 PUSH2 0x200 DUP6 ADD PUSH2 0x1878 JUMP JUMPDEST PUSH2 0x2B03 PUSH2 0x220 DUP7 ADD PUSH2 0x1E2C JUMP JUMPDEST PUSH2 0x2B10 PUSH2 0x240 DUP8 ADD PUSH2 0x1878 JUMP JUMPDEST SWAP1 PUSH2 0x2B1E PUSH2 0x260 DUP9 ADD PUSH2 0x1878 JUMP JUMPDEST SWAP3 PUSH2 0x2B28 DUP12 PUSH2 0x1878 JUMP JUMPDEST SWAP5 PUSH2 0x2B31 PUSH2 0x2097 JUMP JUMPDEST SWAP7 DUP8 ADD SWAP1 PUSH2 0x2B3E SWAP2 PUSH2 0x20A1 JUMP JUMPDEST PUSH1 0x20 DUP7 ADD MSTORE ISZERO ISZERO PUSH1 0x40 DUP6 ADD MSTORE PUSH1 0x60 DUP5 ADD MSTORE PUSH1 0x80 DUP4 ADD MSTORE PUSH1 0xA0 DUP3 ADD MSTORE PUSH2 0x2B64 DUP9 PUSH1 0xC0 DUP4 ADD MSTORE JUMP JUMPDEST PUSH2 0x2B70 SWAP1 PUSH2 0x142 PUSH2 0x214C JUMP JUMPDEST DUP9 PUSH2 0x2B7A PUSH1 0x40 MLOAD SWAP1 JUMP JUMPDEST PUSH1 0x40 DUP1 DUP3 MSTORE PUSH1 0x7 SWAP1 DUP3 ADD MSTORE PUSH7 0x4D696E74696E67 PUSH1 0xC8 SHL PUSH1 0x60 DUP3 ADD MSTORE PUSH1 0x80 PUSH1 0x20 DUP3 ADD DUP2 SWAP1 MSTORE PUSH1 0x17 SWAP1 DUP3 ADD MSTORE PUSH23 0x4372656174696E6720696E697469616C20737570706C79 PUSH1 0x48 SHL PUSH1 0xA0 DUP3 ADD MSTORE PUSH1 0xC0 SWAP1 LOG1 PUSH2 0x2BD1 ADDRESS PUSH2 0x84B JUMP JUMPDEST PUSH2 0x2BDA DUP3 PUSH2 0x1878 JUMP JUMPDEST PUSH2 0x2BE3 SWAP2 PUSH2 0x47ED JUMP JUMPDEST DUP9 PUSH2 0x2BED PUSH1 0x40 MLOAD SWAP1 JUMP JUMPDEST DUP1 PUSH2 0x2BF7 DUP2 PUSH2 0x2156 JUMP JUMPDEST SUB SWAP1 LOG1 PUSH2 0x2C03 DUP2 PUSH2 0x1878 JUMP JUMPDEST PUSH2 0x2C10 PUSH2 0x280 DUP5 ADD PUSH2 0x1878 JUMP JUMPDEST PUSH2 0x2C19 SWAP2 PUSH2 0x1C0F JUMP JUMPDEST PUSH2 0x2C22 DUP5 PUSH2 0xDF6 JUMP JUMPDEST PUSH2 0x2C2B SWAP2 PUSH2 0x1C38 JUMP JUMPDEST PUSH2 0x2C37 SWAP1 PUSH2 0x12F PUSH2 0x1E15 JUMP JUMPDEST PUSH2 0x2C40 DUP2 PUSH2 0x1878 JUMP JUMPDEST PUSH2 0x2C4D PUSH2 0x2A0 DUP5 ADD PUSH2 0x1878 JUMP JUMPDEST PUSH2 0x2C56 SWAP2 PUSH2 0x1C0F JUMP JUMPDEST PUSH2 0x2C5F DUP5 PUSH2 0xDF6 JUMP JUMPDEST PUSH2 0x2C68 SWAP2 PUSH2 0x1C38 JUMP JUMPDEST PUSH2 0x2C74 SWAP1 PUSH2 0x130 PUSH2 0x1E15 JUMP JUMPDEST PUSH2 0x2C7D SWAP1 PUSH2 0x1878 JUMP JUMPDEST SWAP1 PUSH2 0x2C0 ADD PUSH2 0x2C8B SWAP1 PUSH2 0x1878 JUMP JUMPDEST PUSH2 0x2C94 SWAP2 PUSH2 0x1C0F JUMP JUMPDEST SWAP1 PUSH2 0x2C9E SWAP1 PUSH2 0xDF6 JUMP JUMPDEST PUSH2 0x2CA7 SWAP2 PUSH2 0x1C38 JUMP JUMPDEST PUSH2 0x2CB3 SWAP1 PUSH2 0x131 PUSH2 0x1E15 JUMP JUMPDEST DUP1 PUSH2 0x2CBF PUSH2 0x12F PUSH2 0x571 JUMP JUMPDEST PUSH1 0x40 MLOAD PUSH2 0x2CCD DUP2 SWAP3 DUP3 PUSH2 0x21A2 JUMP JUMPDEST SUB SWAP1 LOG1 DUP1 PUSH2 0x2CDC PUSH2 0x130 PUSH2 0x571 JUMP JUMPDEST PUSH1 0x40 MLOAD PUSH2 0x2CEA DUP2 SWAP3 DUP3 PUSH2 0x21D6 JUMP JUMPDEST SUB SWAP1 LOG1 PUSH2 0x2CF8 PUSH2 0x131 PUSH2 0x571 JUMP JUMPDEST PUSH1 0x40 MLOAD PUSH2 0x2D06 DUP2 SWAP3 DUP3 PUSH2 0x220F JUMP JUMPDEST SUB SWAP1 LOG1 DUP5 PUSH2 0x2D13 PUSH1 0x40 MLOAD SWAP1 JUMP JUMPDEST DUP1 PUSH2 0x2D1D DUP2 PUSH2 0x224A JUMP JUMPDEST SUB SWAP1 LOG1 DUP3 PUSH2 0x2D2C PUSH2 0x12F PUSH2 0x571 JUMP JUMPDEST GT SWAP4 PUSH2 0x2DC9 SWAP4 PUSH2 0x2DCE SWAP6 PUSH2 0x2F36 JUMPI JUMPDEST DUP1 PUSH2 0x2D4A PUSH2 0x363 PUSH2 0x130 PUSH2 0x571 JUMP JUMPDEST GT PUSH2 0x2EBA JUMPI JUMPDEST DUP1 PUSH2 0x2D5F PUSH2 0x363 PUSH2 0x131 PUSH2 0x571 JUMP JUMPDEST GT PUSH2 0x2E27 JUMPI JUMPDEST POP POP POP DUP4 PUSH2 0x2D72 PUSH1 0x40 MLOAD SWAP1 JUMP JUMPDEST PUSH1 0x40 DUP1 DUP3 MSTORE PUSH1 0xC SWAP1 DUP3 ADD MSTORE PUSH12 0x2334B730B634BD30BA34B7B7 PUSH1 0xA1 SHL PUSH1 0x60 DUP3 ADD MSTORE PUSH1 0x80 PUSH1 0x20 DUP3 ADD DUP2 SWAP1 MSTORE PUSH1 0x16 SWAP1 DUP3 ADD MSTORE PUSH22 0x5472616E7366657272696E67206F776E65727368697 PUSH1 0x54 SHL PUSH1 0xA0 DUP3 ADD MSTORE PUSH1 0xC0 SWAP1 LOG1 PUSH2 0x1915 JUMP JUMPDEST PUSH2 0x485E JUMP JUMPDEST PUSH1 0x40 MLOAD DUP1 PUSH2 0x1748 DUP2 PUSH1 0x40 DUP1 DUP3 MSTORE PUSH1 0x8 SWAP1 DUP3 ADD MSTORE PUSH8 0x436F6D706C657465 PUSH1 0xC0 SHL PUSH1 0x60 DUP3 ADD MSTORE PUSH1 0x80 PUSH1 0x20 DUP3 ADD DUP2 SWAP1 MSTORE PUSH1 0x17 SWAP1 DUP3 ADD MSTORE PUSH23 0x125B9A5D1A585B1A5E985D1A5BDB88199A5B9A5CDA1959 PUSH1 0x4A SHL PUSH1 0xA0 DUP3 ADD MSTORE PUSH1 0xC0 ADD SWAP1 JUMP JUMPDEST PUSH2 0x2EAD PUSH2 0x2EB2 SWAP4 PUSH2 0x2EA6 PUSH2 0x2E3A PUSH2 0x134 SWAP1 JUMP JUMPDEST SWAP4 PUSH2 0x2E9F PUSH2 0x2E49 PUSH2 0x131 PUSH2 0x571 JUMP JUMPDEST SWAP4 PUSH2 0x2E81 PUSH2 0x2E5F PUSH2 0x2E59 DUP13 PUSH2 0x1915 JUMP JUMPDEST SWAP3 PUSH2 0x1878 JUMP JUMPDEST SWAP6 PUSH2 0x2E7A PUSH2 0x2E6B PUSH2 0x2297 JUMP JUMPDEST SWAP11 PUSH2 0x2E74 PUSH2 0x253F JUMP JUMPDEST SWAP1 DUP13 ADD MSTORE JUMP JUMPDEST PUSH1 0x20 DUP11 ADD MSTORE JUMP JUMPDEST PUSH2 0x2E96 PUSH2 0x2E8F PUSH2 0x16D PUSH2 0xDF6 JUMP JUMPDEST PUSH1 0x40 DUP11 ADD MSTORE JUMP JUMPDEST PUSH1 0x60 DUP9 ADD PUSH2 0x20A1 JUMP JUMPDEST PUSH1 0x80 DUP7 ADD MSTORE JUMP JUMPDEST PUSH1 0xA0 DUP5 ADD MSTORE JUMP JUMPDEST PUSH2 0x24CE JUMP JUMPDEST CODESIZE DUP1 DUP1 PUSH2 0x2D65 JUMP JUMPDEST PUSH2 0x2F31 PUSH2 0x134 PUSH2 0x2ECB PUSH2 0x130 PUSH2 0x571 JUMP JUMPDEST SWAP1 PUSH2 0x2EAD PUSH2 0x2ED8 DUP9 PUSH2 0x1915 JUMP JUMPDEST PUSH2 0x2F26 PUSH2 0x2EE4 DUP10 PUSH2 0x1878 JUMP JUMPDEST SWAP2 PUSH2 0x2F09 PUSH2 0x2EF0 PUSH2 0x2297 JUMP JUMPDEST SWAP7 PUSH2 0x2F02 PUSH2 0x2EFC PUSH2 0x2516 JUMP JUMPDEST DUP13 DUP11 ADD MSTORE JUMP JUMPDEST PUSH1 0x20 DUP9 ADD MSTORE JUMP JUMPDEST PUSH2 0x2F1D PUSH2 0x2F16 PUSH1 0xB4 PUSH2 0xDF6 JUMP JUMPDEST PUSH1 0x40 DUP9 ADD MSTORE JUMP JUMPDEST PUSH1 0x60 DUP7 ADD PUSH2 0x20A1 JUMP JUMPDEST PUSH2 0x2EA6 DUP7 PUSH1 0x80 DUP7 ADD MSTORE JUMP JUMPDEST PUSH2 0x2D50 JUMP JUMPDEST PUSH2 0x2F86 PUSH2 0x134 PUSH2 0x2F47 PUSH2 0x12F PUSH2 0x571 JUMP JUMPDEST SWAP1 PUSH2 0x2EAD PUSH2 0x2F54 DUP9 PUSH2 0x1915 JUMP JUMPDEST PUSH2 0x2F26 PUSH2 0x2F60 DUP10 PUSH2 0x1878 JUMP JUMPDEST SWAP2 PUSH2 0x2F78 PUSH2 0x2F6C PUSH2 0x2297 JUMP JUMPDEST SWAP7 PUSH2 0x2F02 PUSH2 0x2EFC PUSH2 0x22BB JUMP JUMPDEST PUSH2 0x2F1D PUSH2 0x2F16 PUSH2 0x16D PUSH2 0xDF6 JUMP JUMPDEST PUSH2 0x2D3B JUMP JUMPDEST PUSH2 0x3BA SWAP1 PUSH2 0x16BB JUMP JUMPDEST SWAP1 PUSH2 0x3BA SWAP2 PUSH2 0x2FA1 PUSH2 0x449D JUMP JUMPDEST PUSH2 0x2FEA JUMP JUMPDEST ISZERO PUSH2 0x2FAD JUMPI JUMP JUMPDEST PUSH1 0x40 MLOAD PUSH3 0x461BCD PUSH1 0xE5 SHL DUP2 MSTORE PUSH1 0x20 PUSH1 0x4 DUP3 ADD MSTORE PUSH1 0x15 PUSH1 0x24 DUP3 ADD MSTORE PUSH21 0x151A5B59481B1BD8DAC81B9BDD08195B98589B1959 PUSH1 0x5A SHL PUSH1 0x44 DUP3 ADD MSTORE PUSH1 0x64 SWAP1 REVERT JUMPDEST PUSH2 0x11E4 PUSH2 0x3043 PUSH32 0xA9353E70F07F31E7F4E16464F45E189CBD22826780A5ABE4DA8303652A86960A SWAP3 PUSH2 0x3025 PUSH2 0x3020 PUSH2 0x12E PUSH2 0x695 JUMP JUMPDEST PUSH2 0x2FA6 JUMP JUMPDEST PUSH2 0x11D5 PUSH2 0x3032 DUP7 TIMESTAMP PUSH2 0x14AA JUMP JUMPDEST PUSH2 0x303E DUP4 PUSH2 0x133 PUSH2 0x854 JUMP JUMPDEST PUSH2 0x1E15 JUMP JUMPDEST SWAP3 PUSH2 0x49C PUSH1 0x40 MLOAD SWAP1 JUMP JUMPDEST SWAP1 PUSH2 0x3BA SWAP2 PUSH2 0x2F94 JUMP JUMPDEST PUSH2 0x305F PUSH2 0x449D JUMP JUMPDEST PUSH2 0x3BA PUSH2 0x314B JUMP JUMPDEST ISZERO PUSH2 0x306E JUMPI JUMP JUMPDEST PUSH1 0x40 MLOAD PUSH3 0x461BCD PUSH1 0xE5 SHL DUP2 MSTORE PUSH1 0x20 PUSH1 0x4 DUP3 ADD MSTORE PUSH1 0x15 PUSH1 0x24 DUP3 ADD MSTORE PUSH21 0x141C995CD85B19481B9BDD08199A5B985B1A5E9959 PUSH1 0x5A SHL PUSH1 0x44 DUP3 ADD MSTORE PUSH1 0x64 SWAP1 REVERT JUMPDEST ISZERO PUSH2 0x30B2 JUMPI JUMP JUMPDEST PUSH1 0x40 MLOAD PUSH3 0x461BCD PUSH1 0xE5 SHL DUP2 MSTORE PUSH1 0x20 PUSH1 0x4 DUP3 ADD MSTORE PUSH1 0x14 PUSH1 0x24 DUP3 ADD MSTORE PUSH20 0x4E6F2066756E647320746F207769746864726177 PUSH1 0x60 SHL PUSH1 0x44 DUP3 ADD MSTORE PUSH1 0x64 SWAP1 REVERT JUMPDEST RETURNDATASIZE ISZERO PUSH2 0x3108 JUMPI PUSH2 0x30FD RETURNDATASIZE PUSH2 0x142B JUMP JUMPDEST SWAP1 RETURNDATASIZE PUSH1 0x0 PUSH1 0x20 DUP5 ADD RETURNDATACOPY JUMP JUMPDEST PUSH1 0x60 SWAP1 JUMP JUMPDEST ISZERO PUSH2 0x3114 JUMPI JUMP JUMPDEST PUSH1 0x40 MLOAD PUSH3 0x461BCD PUSH1 0xE5 SHL DUP2 MSTORE PUSH1 0x20 PUSH1 0x4 DUP3 ADD MSTORE PUSH1 0xF PUSH1 0x24 DUP3 ADD MSTORE PUSH15 0x151C985B9CD9995C8819985A5B1959 PUSH1 0x8A SHL PUSH1 0x44 DUP3 ADD MSTORE PUSH1 0x64 SWAP1 REVERT JUMPDEST PUSH2 0x315E PUSH2 0x3159 PUSH2 0x13D PUSH2 0x695 JUMP JUMPDEST PUSH2 0x3067 JUMP JUMPDEST PUSH2 0x3BA PUSH1 0x0 DUP1 PUSH2 0x316D ADDRESS PUSH2 0x84B JUMP JUMPDEST PUSH2 0x3184 DUP2 BALANCE PUSH2 0x317E PUSH2 0x1C3E DUP6 PUSH2 0xDF6 JUMP JUMPDEST GT PUSH2 0x30AB JUMP JUMPDEST PUSH2 0x3192 PUSH2 0x11D5 PUSH2 0x11D5 PUSH2 0x390E JUMP JUMPDEST SWAP1 BALANCE PUSH2 0x319D PUSH1 0x40 MLOAD SWAP1 JUMP JUMPDEST SWAP1 DUP2 DUP1 SUB SWAP3 GAS CALL PUSH2 0x31AC PUSH2 0x30EE JUMP JUMPDEST POP PUSH2 0x310D JUMP JUMPDEST PUSH2 0x3BA PUSH2 0x3057 JUMP JUMPDEST PUSH2 0x12E3 PUSH2 0x363 SWAP2 PUSH2 0x31C9 PUSH1 0x0 SWAP1 JUMP JUMPDEST POP PUSH1 0x33 PUSH2 0x854 JUMP JUMPDEST PUSH2 0x31D9 PUSH2 0x449D JUMP JUMPDEST PUSH2 0x3BA PUSH2 0x31F7 JUMP JUMPDEST PUSH2 0x391 PUSH2 0x363 PUSH2 0x363 SWAP3 SWAP1 JUMP JUMPDEST PUSH2 0x363 SWAP1 PUSH2 0x31E1 JUMP JUMPDEST PUSH2 0x3BA PUSH2 0x2DC9 PUSH1 0x0 PUSH2 0x31EE JUMP JUMPDEST PUSH2 0x3BA PUSH2 0x31D1 JUMP JUMPDEST PUSH2 0x321D SWAP1 PUSH2 0x3218 PUSH2 0x4907 JUMP JUMPDEST PUSH2 0x32FD JUMP JUMPDEST PUSH2 0x3BA PUSH2 0x4939 JUMP JUMPDEST ISZERO PUSH2 0x322C JUMPI JUMP JUMPDEST PUSH1 0x40 MLOAD PUSH3 0x461BCD PUSH1 0xE5 SHL DUP2 MSTORE PUSH1 0x20 PUSH1 0x4 DUP3 ADD MSTORE PUSH1 0x16 PUSH1 0x24 DUP3 ADD MSTORE PUSH22 0x92DCECC2D8D2C840E6C6D0CAC8EAD8CA40D2DCC8CAF PUSH1 0x53 SHL PUSH1 0x44 DUP3 ADD MSTORE PUSH1 0x64 SWAP1 REVERT JUMPDEST ISZERO PUSH2 0x3271 JUMPI JUMP JUMPDEST PUSH1 0x40 MLOAD PUSH3 0x461BCD PUSH1 0xE5 SHL DUP2 MSTORE PUSH1 0x20 PUSH1 0x4 DUP3 ADD MSTORE PUSH1 0xF PUSH1 0x24 DUP3 ADD MSTORE PUSH15 0x4E6F742062656E6566696369617279 PUSH1 0x88 SHL PUSH1 0x44 DUP3 ADD MSTORE PUSH1 0x64 SWAP1 REVERT JUMPDEST ISZERO PUSH2 0x32AF JUMPI JUMP JUMPDEST PUSH1 0x40 MLOAD PUSH3 0x461BCD PUSH1 0xE5 SHL DUP2 MSTORE PUSH1 0x20 PUSH1 0x4 DUP3 ADD MSTORE PUSH1 0x13 PUSH1 0x24 DUP3 ADD MSTORE PUSH19 0x4E6F20746F6B656E7320636C61696D61626C65 PUSH1 0x68 SHL PUSH1 0x44 DUP3 ADD MSTORE PUSH1 0x64 SWAP1 REVERT JUMPDEST SWAP1 DUP2 MSTORE PUSH1 0x40 DUP2 ADD SWAP3 SWAP2 PUSH2 0x3BA SWAP2 PUSH1 0x20 ADD MSTORE JUMP JUMPDEST PUSH32 0x42106F9C7B551EEA618B396312146946940A732A68F7B8F3C80514E30CC81CC1 PUSH2 0x3346 PUSH2 0x3342 DUP4 PUSH2 0x134 PUSH2 0x333D PUSH2 0x3336 PUSH2 0x363 DUP4 SLOAD SWAP1 JUMP JUMPDEST DUP4 LT PUSH2 0x3225 JUMP JUMPDEST PUSH2 0xA92 JUMP JUMPDEST POP SWAP1 JUMP JUMPDEST PUSH2 0x336C PUSH2 0x335D PUSH2 0x3358 PUSH1 0x3 DUP5 ADD PUSH2 0x560 JUMP JUMPDEST PUSH2 0x391 JUMP JUMPDEST PUSH2 0x3366 CALLER PUSH2 0x391 JUMP JUMPDEST EQ PUSH2 0x326A JUMP JUMPDEST PUSH2 0x33A4 PUSH1 0x4 PUSH2 0x337A DUP6 PUSH2 0x3461 JUMP JUMPDEST SWAP3 PUSH2 0x3390 PUSH2 0x3388 PUSH1 0x0 PUSH2 0xDF6 JUMP JUMPDEST DUP6 JUMPDEST GT PUSH2 0x32A8 JUMP JUMPDEST ADD PUSH2 0x339E DUP4 PUSH2 0x14D0 DUP4 PUSH2 0x571 JUMP JUMPDEST SWAP1 PUSH2 0x1E15 JUMP JUMPDEST PUSH2 0x33B8 DUP2 PUSH2 0x33B1 ADDRESS PUSH2 0x84B JUMP JUMPDEST CALLER SWAP1 PUSH2 0x4A51 JUMP JUMPDEST PUSH2 0x33C1 CALLER PUSH2 0x84B JUMP JUMPDEST SWAP3 PUSH2 0x11E4 PUSH2 0x33CE PUSH1 0x40 MLOAD SWAP1 JUMP JUMPDEST SWAP3 DUP4 SWAP3 DUP4 PUSH2 0x32EA JUMP JUMPDEST PUSH2 0x3BA SWAP1 PUSH2 0x320C JUMP JUMPDEST SWAP1 PUSH2 0x3BA PUSH2 0x2EA6 PUSH1 0x5 PUSH2 0x33F1 PUSH2 0x2297 JUMP JUMPDEST SWAP5 PUSH2 0x3402 PUSH2 0x33FE DUP3 PUSH2 0xB88 JUMP JUMPDEST DUP8 MSTORE JUMP JUMPDEST PUSH2 0x3411 PUSH2 0x2F02 PUSH1 0x1 DUP4 ADD PUSH2 0x571 JUMP JUMPDEST PUSH2 0x3420 PUSH2 0x2F16 PUSH1 0x2 DUP4 ADD PUSH2 0x571 JUMP JUMPDEST PUSH2 0x342F PUSH2 0x2E96 PUSH1 0x3 DUP4 ADD PUSH2 0x560 JUMP JUMPDEST PUSH2 0x3445 PUSH2 0x343E PUSH1 0x4 DUP4 ADD PUSH2 0x571 JUMP JUMPDEST PUSH1 0x80 DUP9 ADD MSTORE JUMP JUMPDEST ADD PUSH2 0x571 JUMP JUMPDEST PUSH2 0x363 SWAP1 PUSH2 0x33E0 JUMP JUMPDEST SWAP2 SWAP1 DUP3 SUB SWAP2 DUP3 GT PUSH2 0x14B7 JUMPI JUMP JUMPDEST PUSH2 0x3479 PUSH2 0x347F SWAP2 PUSH2 0x3470 PUSH1 0x0 SWAP1 JUMP JUMPDEST POP PUSH2 0x134 PUSH2 0xA92 JUMP JUMPDEST POP PUSH2 0x344B JUMP JUMPDEST PUSH1 0xA0 DUP2 ADD PUSH2 0x348E PUSH2 0x363 DUP3 MLOAD SWAP1 JUMP JUMPDEST TIMESTAMP LT PUSH2 0x3511 JUMPI MLOAD PUSH2 0x34A0 SWAP1 JUMPDEST TIMESTAMP PUSH2 0x3454 JUMP JUMPDEST SWAP1 PUSH2 0x34C1 PUSH2 0x34AF PUSH1 0x40 DUP4 ADD MLOAD SWAP1 JUMP JUMPDEST PUSH2 0x34BB PUSH3 0x15180 PUSH2 0xDF6 JUMP JUMPDEST SWAP1 PUSH2 0x1C0F JUMP JUMPDEST SWAP2 DUP3 DUP2 LT ISZERO PUSH2 0x34FB JUMPI PUSH1 0x80 PUSH2 0x34EF PUSH2 0x363 SWAP5 PUSH2 0x34EA PUSH2 0x34F5 SWAP5 PUSH2 0x34E5 PUSH1 0x20 DUP9 ADD MLOAD SWAP1 JUMP JUMPDEST PUSH2 0x1C0F JUMP JUMPDEST PUSH2 0x1C38 JUMP JUMPDEST SWAP3 ADD MLOAD SWAP1 JUMP JUMPDEST SWAP1 PUSH2 0x3454 JUMP JUMPDEST POP PUSH2 0x363 SWAP2 POP PUSH2 0x34F5 PUSH1 0x80 PUSH2 0x34EF PUSH1 0x20 DUP5 ADD MLOAD SWAP1 JUMP JUMPDEST POP POP PUSH2 0x363 PUSH1 0x0 PUSH2 0xDF6 JUMP JUMPDEST SWAP1 PUSH2 0x3BA SWAP4 SWAP3 SWAP2 PUSH2 0x352C PUSH2 0x449D JUMP JUMPDEST PUSH2 0x361F JUMP JUMPDEST ISZERO PUSH2 0x3538 JUMPI JUMP JUMPDEST PUSH1 0x40 MLOAD PUSH3 0x461BCD PUSH1 0xE5 SHL DUP2 MSTORE PUSH1 0x20 PUSH1 0x4 DUP3 ADD MSTORE PUSH1 0x13 PUSH1 0x24 DUP3 ADD MSTORE PUSH19 0x496E76616C69642062656E6566696369617279 PUSH1 0x68 SHL PUSH1 0x44 DUP3 ADD MSTORE PUSH1 0x64 SWAP1 REVERT JUMPDEST ISZERO PUSH2 0x357A JUMPI JUMP JUMPDEST PUSH1 0x40 MLOAD PUSH3 0x461BCD PUSH1 0xE5 SHL DUP2 MSTORE PUSH1 0x20 PUSH1 0x4 DUP3 ADD MSTORE PUSH1 0x12 PUSH1 0x24 DUP3 ADD MSTORE PUSH18 0x416D6F756E74206D757374206265203E203 PUSH1 0x74 SHL PUSH1 0x44 DUP3 ADD MSTORE PUSH1 0x64 SWAP1 REVERT JUMPDEST ISZERO PUSH2 0x35BB JUMPI JUMP JUMPDEST PUSH1 0x40 MLOAD PUSH3 0x461BCD PUSH1 0xE5 SHL DUP2 MSTORE PUSH1 0x20 PUSH1 0x4 DUP3 ADD MSTORE PUSH1 0x12 PUSH1 0x24 DUP3 ADD MSTORE PUSH18 0x506572696F64206D757374206265203E203 PUSH1 0x74 SHL PUSH1 0x44 DUP3 ADD MSTORE PUSH1 0x64 SWAP1 REVERT JUMPDEST PUSH1 0x40 SWAP1 PUSH2 0xC57 PUSH2 0x3617 PUSH2 0x3BA SWAP6 SWAP8 SWAP7 SWAP5 PUSH1 0x60 DUP5 ADD SWAP1 DUP5 DUP3 SUB PUSH1 0x0 DUP7 ADD MSTORE PUSH2 0x31A JUMP JUMPDEST SWAP7 PUSH1 0x20 DUP4 ADD MSTORE JUMP JUMPDEST PUSH2 0x11E4 PUSH2 0x36E8 PUSH32 0x586635F20887672497479579F6F76516CD0F238E8D01245D26E6B971CEC91847 SWAP5 SWAP6 PUSH2 0x11D5 PUSH1 0x0 PUSH2 0x366C PUSH2 0x365C PUSH2 0x3358 DUP4 PUSH2 0x31EE JUMP JUMPDEST PUSH2 0x3665 DUP6 PUSH2 0x391 JUMP JUMPDEST EQ ISZERO PUSH2 0x3531 JUMP JUMPDEST PUSH2 0x367F PUSH2 0x3678 DUP3 PUSH2 0xDF6 JUMP JUMPDEST DUP9 GT PUSH2 0x3573 JUMP JUMPDEST PUSH2 0x3692 PUSH2 0x368B DUP3 PUSH2 0xDF6 JUMP JUMPDEST DUP11 GT PUSH2 0x35B4 JUMP JUMPDEST PUSH2 0x134 PUSH2 0x36DD PUSH2 0x36D6 PUSH2 0x36A3 PUSH2 0x2297 JUMP JUMPDEST SWAP4 PUSH2 0x36AE DUP11 DUP3 DUP8 ADD MSTORE JUMP JUMPDEST PUSH2 0x36B9 DUP12 PUSH1 0x20 DUP8 ADD MSTORE JUMP JUMPDEST PUSH2 0x36C4 DUP14 PUSH1 0x40 DUP8 ADD MSTORE JUMP JUMPDEST PUSH2 0x36D1 DUP8 PUSH1 0x60 DUP8 ADD PUSH2 0x20A1 JUMP JUMPDEST PUSH2 0xDF6 JUMP JUMPDEST PUSH1 0x80 DUP5 ADD MSTORE JUMP JUMPDEST PUSH2 0x2EAD TIMESTAMP PUSH1 0xA0 DUP5 ADD MSTORE JUMP JUMPDEST SWAP5 PUSH2 0x36F2 PUSH1 0x40 MLOAD SWAP1 JUMP JUMPDEST SWAP4 DUP5 SWAP4 DUP5 PUSH2 0x35F5 JUMP JUMPDEST SWAP1 PUSH2 0x3BA SWAP4 SWAP3 SWAP2 PUSH2 0x351D JUMP JUMPDEST PUSH2 0x370F PUSH2 0x4907 JUMP JUMPDEST PUSH2 0x321D PUSH2 0x37DD JUMP JUMPDEST ISZERO PUSH2 0x371E JUMPI JUMP JUMPDEST PUSH1 0x40 MLOAD PUSH3 0x461BCD PUSH1 0xE5 SHL DUP2 MSTORE PUSH1 0x20 PUSH1 0x4 DUP3 ADD MSTORE PUSH1 0x11 PUSH1 0x24 DUP3 ADD MSTORE PUSH17 0x139BDD08199959481C9958DA5C1A595B9D PUSH1 0x7A SHL PUSH1 0x44 DUP3 ADD MSTORE PUSH1 0x64 SWAP1 REVERT JUMPDEST ISZERO PUSH2 0x375E JUMPI JUMP JUMPDEST PUSH1 0x40 MLOAD PUSH3 0x461BCD PUSH1 0xE5 SHL DUP2 MSTORE PUSH1 0x20 PUSH1 0x4 DUP3 ADD MSTORE PUSH1 0x12 PUSH1 0x24 DUP3 ADD MSTORE PUSH18 0x105B1B081D1BDAD95B9CC818DB185A5B5959 PUSH1 0x72 SHL PUSH1 0x44 DUP3 ADD MSTORE PUSH1 0x64 SWAP1 REVERT JUMPDEST ISZERO PUSH2 0x379F JUMPI JUMP JUMPDEST PUSH1 0x40 MLOAD PUSH3 0x461BCD PUSH1 0xE5 SHL DUP2 MSTORE PUSH1 0x20 PUSH1 0x4 DUP3 ADD MSTORE PUSH1 0x16 PUSH1 0x24 DUP3 ADD MSTORE PUSH22 0x10DB1A5999881C195C9A5BD9081B9BDD08195B991959 PUSH1 0x52 SHL PUSH1 0x44 DUP3 ADD MSTORE PUSH1 0x64 SWAP1 REVERT JUMPDEST PUSH2 0x3BA PUSH2 0x142 PUSH2 0x3801 PUSH2 0x37F2 PUSH2 0x3358 DUP4 PUSH2 0x560 JUMP JUMPDEST PUSH2 0x37FB CALLER PUSH2 0x391 JUMP JUMPDEST EQ PUSH2 0x3717 JUMP JUMPDEST PUSH2 0x38C7 PUSH1 0x6 DUP3 ADD SWAP2 PUSH2 0x3812 DUP4 PUSH2 0x571 JUMP JUMPDEST SWAP1 PUSH2 0x3830 PUSH1 0x1 DUP3 ADD SWAP3 PUSH2 0x382A PUSH2 0x1C3E PUSH2 0x363 DUP7 PUSH2 0x571 JUMP JUMPDEST LT PUSH2 0x3757 JUMP JUMPDEST PUSH2 0x383C PUSH1 0x2 DUP3 ADD PUSH2 0x586 JUMP JUMPDEST ISZERO PUSH2 0x38F9 JUMPI PUSH1 0x3 PUSH2 0x3879 PUSH2 0x349A PUSH1 0x5 DUP5 ADD PUSH2 0x12E3 PUSH2 0x3871 PUSH2 0x363 PUSH2 0x385F DUP5 PUSH2 0x571 JUMP JUMPDEST PUSH2 0x386B PUSH1 0x4 DUP11 ADD PUSH2 0x571 JUMP JUMPDEST SWAP1 PUSH2 0x14AA JUMP JUMPDEST TIMESTAMP LT ISZERO PUSH2 0x3798 JUMP JUMPDEST SWAP2 ADD SWAP1 PUSH2 0x3888 PUSH2 0x363 DUP4 PUSH2 0x571 JUMP JUMPDEST DUP2 LT PUSH2 0x38D0 JUMPI POP POP PUSH2 0x389C PUSH2 0x38A5 SWAP2 PUSH2 0x571 JUMP JUMPDEST PUSH2 0x34F5 DUP5 PUSH2 0x571 JUMP JUMPDEST SWAP2 JUMPDEST PUSH2 0x38BA PUSH2 0x38B4 PUSH1 0x0 PUSH2 0xDF6 JUMP JUMPDEST DUP5 PUSH2 0x338A JUMP JUMPDEST PUSH2 0x339E DUP4 PUSH2 0x14D0 DUP4 PUSH2 0x571 JUMP JUMPDEST PUSH2 0x33B1 ADDRESS PUSH2 0x84B JUMP JUMPDEST SWAP1 PUSH2 0x38ED PUSH2 0x38E7 PUSH2 0x389C SWAP4 PUSH2 0x34E5 PUSH2 0x38F3 SWAP7 PUSH2 0x571 JUMP JUMPDEST SWAP2 PUSH2 0x571 JUMP JUMPDEST SWAP1 PUSH2 0x1C38 JUMP JUMPDEST SWAP2 PUSH2 0x38A7 JUMP JUMPDEST POP PUSH2 0x389C PUSH2 0x38F3 SWAP2 PUSH2 0x571 JUMP JUMPDEST PUSH2 0x3BA PUSH2 0x3707 JUMP JUMPDEST PUSH2 0x363 PUSH1 0x65 PUSH2 0x560 JUMP JUMPDEST PUSH2 0x363 PUSH1 0x37 PUSH2 0x10B2 JUMP JUMPDEST PUSH2 0x392A PUSH2 0x449D JUMP JUMPDEST PUSH2 0x3BA PUSH2 0x39F7 JUMP JUMPDEST ISZERO PUSH2 0x3939 JUMPI JUMP JUMPDEST PUSH1 0x40 MLOAD PUSH3 0x461BCD PUSH1 0xE5 SHL DUP2 MSTORE PUSH1 0x20 PUSH1 0x4 DUP3 ADD MSTORE PUSH1 0x13 PUSH1 0x24 DUP3 ADD MSTORE PUSH19 0x10D85B9B9BDD08199A5B985B1A5E99481E595D PUSH1 0x6A SHL PUSH1 0x44 DUP3 ADD MSTORE PUSH1 0x64 SWAP1 REVERT JUMPDEST ISZERO PUSH2 0x397B JUMPI JUMP JUMPDEST PUSH1 0x40 MLOAD PUSH3 0x461BCD PUSH1 0xE5 SHL DUP2 MSTORE PUSH1 0x20 PUSH1 0x4 DUP3 ADD MSTORE PUSH1 0x11 PUSH1 0x24 DUP3 ADD MSTORE PUSH17 0x105B1C9958591E48199A5B985B1A5E9959 PUSH1 0x7A SHL PUSH1 0x44 DUP3 ADD MSTORE PUSH1 0x64 SWAP1 REVERT JUMPDEST ISZERO PUSH2 0x39BB JUMPI JUMP JUMPDEST PUSH1 0x40 MLOAD PUSH3 0x461BCD PUSH1 0xE5 SHL DUP2 MSTORE PUSH1 0x20 PUSH1 0x4 DUP3 ADD MSTORE PUSH1 0x14 PUSH1 0x24 DUP3 ADD MSTORE PUSH20 0x14DBD99D0818D85C081B9BDD081C995858DA1959 PUSH1 0x62 SHL PUSH1 0x44 DUP3 ADD MSTORE PUSH1 0x64 SWAP1 REVERT JUMPDEST PUSH32 0xEDFDE254CB8ED39D650C9A34251C59D6817FAE4CC876CC2CE76669976CF102EE PUSH2 0x136 PUSH2 0x3A29 PUSH2 0x363 PUSH2 0x13C PUSH2 0x571 JUMP JUMPDEST TIMESTAMP GT DUP1 ISZERO PUSH2 0x3B58 JUMPI JUMPDEST PUSH2 0x3A3B SWAP1 PUSH2 0x3932 JUMP JUMPDEST PUSH2 0x3AB8 PUSH1 0x9 PUSH2 0x3AB1 PUSH1 0x7 DUP5 ADD PUSH2 0x3A5B PUSH2 0x3A56 PUSH2 0x1263 DUP4 PUSH2 0x695 JUMP JUMPDEST PUSH2 0x3974 JUMP JUMPDEST PUSH2 0x3A8C PUSH1 0x1 PUSH1 0x8 DUP8 ADD SWAP3 PUSH2 0x3A87 PUSH2 0x3A71 DUP6 PUSH2 0x571 JUMP JUMPDEST PUSH2 0x3A80 PUSH2 0x1C3E PUSH2 0x363 DUP13 PUSH2 0x571 JUMP JUMPDEST LT ISZERO PUSH2 0x39B4 JUMP JUMPDEST PUSH2 0x168B JUMP JUMPDEST PUSH2 0x149 PUSH2 0x3A98 DUP2 PUSH2 0x571 JUMP JUMPDEST PUSH2 0x3AA5 PUSH2 0x1C3E PUSH1 0x0 PUSH2 0xDF6 JUMP JUMPDEST GT PUSH2 0x3AC5 JUMPI JUMPDEST POP PUSH2 0x571 JUMP JUMPDEST SWAP3 ADD PUSH2 0x571 JUMP JUMPDEST SWAP1 PUSH2 0x1748 PUSH2 0x33CE PUSH1 0x40 MLOAD SWAP1 JUMP JUMPDEST PUSH32 0xCB75AA8347C098D414422E8CAFBBE4E2C1A229F5B27BF425984B2B9792AA787A SWAP1 PUSH2 0x3B42 PUSH2 0x3B0E PUSH2 0x3B04 PUSH2 0x3AFB DUP9 DUP12 ADD PUSH2 0x571 JUMP JUMPDEST PUSH2 0x34BB DUP6 PUSH2 0x571 JUMP JUMPDEST PUSH2 0x38ED PUSH1 0x64 PUSH2 0xDF6 JUMP JUMPDEST SWAP2 PUSH2 0x12E3 PUSH1 0x1 PUSH1 0x3 PUSH2 0x3B2D PUSH2 0x3B27 PUSH2 0x34AF DUP5 DUP8 ADD PUSH2 0x571 JUMP JUMPDEST TIMESTAMP PUSH2 0x14AA JUMP JUMPDEST SWAP4 PUSH2 0x3B3C PUSH1 0x2 DUP3 ADD SWAP6 DUP7 PUSH2 0x1E15 JUMP JUMPDEST ADD PUSH2 0x10F6 JUMP JUMPDEST SWAP1 PUSH2 0x3B4F PUSH2 0x33CE PUSH1 0x40 MLOAD SWAP1 JUMP JUMPDEST SUB SWAP1 LOG1 CODESIZE PUSH2 0x3AAB JUMP JUMPDEST POP PUSH2 0x3A3B PUSH2 0x3B68 PUSH1 0x8 DUP4 ADD PUSH2 0x571 JUMP JUMPDEST PUSH2 0x3B7A PUSH2 0x1C3E PUSH2 0x363 PUSH1 0x1 DUP7 ADD PUSH2 0x571 JUMP JUMPDEST LT ISZERO SWAP1 POP PUSH2 0x3A32 JUMP JUMPDEST PUSH2 0x3BA PUSH2 0x3922 JUMP JUMPDEST ISZERO PUSH2 0x3B92 JUMPI JUMP JUMPDEST PUSH1 0x40 MLOAD PUSH3 0x461BCD PUSH1 0xE5 SHL DUP2 MSTORE PUSH1 0x20 PUSH1 0x4 DUP3 ADD MSTORE PUSH1 0x25 PUSH1 0x24 DUP3 ADD MSTORE PUSH32 0x45524332303A2064656372656173656420616C6C6F77616E63652062656C6F77 PUSH1 0x44 DUP3 ADD MSTORE PUSH5 0x207A65726F PUSH1 0xD8 SHL PUSH1 0x64 DUP3 ADD MSTORE PUSH1 0x84 SWAP1 REVERT JUMPDEST PUSH2 0x10D0 SWAP2 SWAP1 PUSH2 0x14D5 CALLER SWAP3 PUSH2 0x3BF9 DUP4 DUP6 PUSH2 0x425B JUMP JUMPDEST PUSH2 0x3C05 DUP3 DUP3 LT ISZERO PUSH2 0x3B8B JUMP JUMPDEST SUB SWAP1 JUMP JUMPDEST PUSH2 0x363 SWAP3 SWAP2 SWAP1 PUSH2 0x3C24 PUSH2 0x1267 PUSH2 0x1263 PUSH2 0x125E CALLER PUSH2 0x132 PUSH2 0x854 JUMP JUMPDEST SWAP1 PUSH2 0x363 SWAP3 SWAP2 PUSH2 0x3C35 PUSH2 0x12E PUSH2 0x695 JUMP JUMPDEST ISZERO PUSH2 0x3C4F JUMPI PUSH2 0x3C4F PUSH2 0x12E8 PUSH2 0x363 PUSH2 0x12E3 CALLER PUSH2 0x133 PUSH2 0x854 JUMP JUMPDEST POP PUSH2 0x363 SWAP2 SWAP1 PUSH2 0x4AD9 JUMP JUMPDEST PUSH2 0x363 SWAP2 SWAP1 PUSH1 0x0 PUSH2 0x3C09 JUMP JUMPDEST ISZERO PUSH2 0x3C6D JUMPI JUMP JUMPDEST PUSH1 0x40 MLOAD PUSH3 0x461BCD PUSH1 0xE5 SHL DUP2 MSTORE PUSH1 0x20 PUSH1 0x4 DUP3 ADD MSTORE PUSH1 0xD PUSH1 0x24 DUP3 ADD MSTORE PUSH13 0x92DCECC2D8D2C840D2DCC8CAF PUSH1 0x9B SHL PUSH1 0x44 DUP3 ADD MSTORE PUSH1 0x64 SWAP1 REVERT JUMPDEST PUSH2 0x3479 PUSH2 0x3CCA SWAP2 PUSH2 0x3CB1 PUSH1 0x60 SWAP1 JUMP JUMPDEST POP PUSH2 0x134 PUSH2 0x333D PUSH2 0x3CC3 PUSH2 0x363 DUP4 SLOAD SWAP1 JUMP JUMPDEST DUP4 LT PUSH2 0x3C66 JUMP JUMPDEST DUP1 MLOAD SWAP1 SWAP2 PUSH2 0x3CD9 PUSH1 0x20 DUP5 ADD MLOAD SWAP1 JUMP JUMPDEST SWAP3 PUSH2 0x3CE5 PUSH1 0x40 DUP3 ADD MLOAD SWAP1 JUMP JUMPDEST SWAP3 PUSH2 0x3CF2 PUSH1 0x60 DUP4 ADD PUSH2 0x20AB JUMP JUMPDEST SWAP3 PUSH2 0x3D09 PUSH1 0xA0 PUSH2 0x3D03 PUSH1 0x80 DUP7 ADD MLOAD SWAP1 JUMP JUMPDEST SWAP5 ADD MLOAD SWAP1 JUMP JUMPDEST SWAP2 SWAP6 SWAP5 SWAP4 SWAP3 SWAP2 SWAP1 JUMP JUMPDEST ISZERO PUSH2 0x3D19 JUMPI JUMP JUMPDEST PUSH1 0x40 MLOAD PUSH3 0x461BCD PUSH1 0xE5 SHL DUP2 MSTORE PUSH1 0x20 PUSH1 0x4 DUP3 ADD MSTORE PUSH1 0x13 PUSH1 0x24 DUP3 ADD MSTORE PUSH19 0x141C995CD85B19481B9BDD081CDD185C9D1959 PUSH1 0x6A SHL PUSH1 0x44 DUP3 ADD MSTORE PUSH1 0x64 SWAP1 REVERT JUMPDEST ISZERO PUSH2 0x3D5B JUMPI JUMP JUMPDEST PUSH1 0x40 MLOAD PUSH3 0x461BCD PUSH1 0xE5 SHL DUP2 MSTORE PUSH1 0x20 PUSH1 0x4 DUP3 ADD MSTORE PUSH1 0xD PUSH1 0x24 DUP3 ADD MSTORE PUSH13 0x141C995CD85B1948195B991959 PUSH1 0x9A SHL PUSH1 0x44 DUP3 ADD MSTORE PUSH1 0x64 SWAP1 REVERT JUMPDEST ISZERO PUSH2 0x3D97 JUMPI JUMP JUMPDEST PUSH1 0x40 MLOAD PUSH3 0x461BCD PUSH1 0xE5 SHL DUP2 MSTORE PUSH1 0x20 PUSH1 0x4 DUP3 ADD MSTORE PUSH1 0x11 PUSH1 0x24 DUP3 ADD MSTORE PUSH17 0x141C995CD85B1948199A5B985B1A5E9959 PUSH1 0x7A SHL PUSH1 0x44 DUP3 ADD MSTORE PUSH1 0x64 SWAP1 REVERT JUMPDEST PUSH2 0x3E1C PUSH2 0x3E17 PUSH2 0x1263 PUSH1 0x7 PUSH2 0x136 PUSH2 0x3DF7 PUSH2 0x3DEF PUSH2 0x363 PUSH2 0x13B PUSH2 0x571 JUMP JUMPDEST TIMESTAMP LT ISZERO PUSH2 0x3D12 JUMP JUMPDEST PUSH2 0x3E11 PUSH2 0x3E09 PUSH2 0x363 PUSH1 0x6 DUP5 ADD PUSH2 0x571 JUMP JUMPDEST TIMESTAMP GT ISZERO PUSH2 0x3D54 JUMP JUMPDEST ADD PUSH2 0x695 JUMP JUMPDEST PUSH2 0x3D90 JUMP JUMPDEST PUSH2 0x3BA PUSH2 0x3E34 PUSH2 0x1267 PUSH2 0x1263 PUSH2 0x125E CALLER PUSH2 0x132 PUSH2 0x854 JUMP JUMPDEST PUSH2 0x3BA PUSH2 0x3E3F PUSH2 0x4907 JUMP JUMPDEST PUSH2 0x321D PUSH2 0x4083 JUMP JUMPDEST ISZERO PUSH2 0x3E4E JUMPI JUMP JUMPDEST PUSH1 0x40 MLOAD PUSH3 0x461BCD PUSH1 0xE5 SHL DUP2 MSTORE PUSH1 0x20 PUSH1 0x4 DUP3 ADD MSTORE PUSH1 0x16 PUSH1 0x24 DUP3 ADD MSTORE PUSH22 0x2132B637BB9036B4B71031B7B73A3934B13ABA34B7B7 PUSH1 0x51 SHL PUSH1 0x44 DUP3 ADD MSTORE PUSH1 0x64 SWAP1 REVERT JUMPDEST ISZERO PUSH2 0x3E93 JUMPI JUMP JUMPDEST PUSH1 0x40 MLOAD PUSH3 0x461BCD PUSH1 0xE5 SHL DUP2 MSTORE PUSH1 0x20 PUSH1 0x4 DUP3 ADD MSTORE PUSH1 0x16 PUSH1 0x24 DUP3 ADD MSTORE PUSH22 0x20B137BB329036B0BC1031B7B73A3934B13ABA34B7B7 PUSH1 0x51 SHL PUSH1 0x44 DUP3 ADD MSTORE PUSH1 0x64 SWAP1 REVERT JUMPDEST ISZERO PUSH2 0x3ED8 JUMPI JUMP JUMPDEST PUSH1 0x40 MLOAD PUSH3 0x461BCD PUSH1 0xE5 SHL DUP2 MSTORE PUSH1 0x20 PUSH1 0x4 DUP3 ADD MSTORE PUSH1 0x10 PUSH1 0x24 DUP3 ADD MSTORE PUSH16 0x12185C990818D85C081C995858DA1959 PUSH1 0x82 SHL PUSH1 0x44 DUP3 ADD MSTORE PUSH1 0x64 SWAP1 REVERT JUMPDEST ISZERO PUSH2 0x3F17 JUMPI JUMP JUMPDEST PUSH1 0x40 MLOAD PUSH3 0x461BCD PUSH1 0xE5 SHL DUP2 MSTORE PUSH1 0x20 PUSH1 0x4 DUP3 ADD MSTORE PUSH1 0xF PUSH1 0x24 DUP3 ADD MSTORE PUSH15 0x139BDD081DDA1A5D195B1A5CDD1959 PUSH1 0x8A SHL PUSH1 0x44 DUP3 ADD MSTORE PUSH1 0x64 SWAP1 REVERT JUMPDEST PUSH2 0xC57 PUSH2 0x3BA SWAP5 PUSH2 0x3FAF PUSH1 0x80 SWAP5 SWAP9 SWAP8 SWAP6 PUSH2 0x3FA8 PUSH2 0x3FA0 PUSH1 0xA0 DUP8 ADD DUP8 DUP2 SUB PUSH1 0x0 DUP10 ADD MSTORE PUSH1 0x1F DUP2 MSTORE PUSH32 0x43616C63756C6174696E6720636F6E747269627574696F6E20746F6B656E7300 PUSH1 0x20 DUP3 ADD MSTORE PUSH1 0x40 ADD SWAP1 JUMP JUMPDEST SWAP11 PUSH1 0x20 DUP8 ADD MSTORE JUMP JUMPDEST PUSH1 0x40 DUP6 ADD MSTORE JUMP JUMPDEST PUSH1 0x60 DUP4 ADD MSTORE JUMP JUMPDEST ISZERO PUSH2 0x3FBD JUMPI JUMP JUMPDEST PUSH1 0x40 MLOAD PUSH3 0x461BCD PUSH1 0xE5 SHL DUP2 MSTORE PUSH1 0x20 PUSH1 0x4 DUP3 ADD MSTORE PUSH1 0x14 PUSH1 0x24 DUP3 ADD MSTORE PUSH20 0x125B9D985B1A59081D1BDAD95B88185B5BDD5B9D PUSH1 0x62 SHL PUSH1 0x44 DUP3 ADD MSTORE PUSH1 0x64 SWAP1 REVERT JUMPDEST ISZERO PUSH2 0x4000 JUMPI JUMP JUMPDEST PUSH1 0x40 MLOAD PUSH3 0x461BCD PUSH1 0xE5 SHL DUP2 MSTORE PUSH1 0x20 PUSH1 0x4 DUP3 ADD MSTORE PUSH1 0x13 PUSH1 0x24 DUP3 ADD MSTORE PUSH19 0x496E73756666696369656E7420746F6B656E73 PUSH1 0x68 SHL PUSH1 0x44 DUP3 ADD MSTORE PUSH1 0x64 SWAP1 REVERT JUMPDEST ISZERO PUSH2 0x4042 JUMPI JUMP JUMPDEST PUSH1 0x40 MLOAD PUSH3 0x461BCD PUSH1 0xE5 SHL DUP2 MSTORE PUSH1 0x20 PUSH1 0x4 DUP3 ADD MSTORE PUSH1 0x19 PUSH1 0x24 DUP3 ADD MSTORE PUSH25 0x13585E0818DBDB9D1C9A589D5D1A5BDB88195E18D959591959 PUSH1 0x3A SHL PUSH1 0x44 DUP3 ADD MSTORE PUSH1 0x64 SWAP1 REVERT JUMPDEST PUSH2 0x41F7 PUSH2 0x136 PUSH2 0x40A2 PUSH2 0x409A PUSH2 0x363 PUSH2 0x138 PUSH2 0x571 JUMP JUMPDEST CALLVALUE LT ISZERO PUSH2 0x3E47 JUMP JUMPDEST PUSH2 0x339E PUSH1 0x3 DUP3 ADD SWAP2 PUSH2 0x40C1 PUSH2 0x40B9 PUSH2 0x363 DUP6 PUSH2 0x571 JUMP JUMPDEST CALLVALUE GT ISZERO PUSH2 0x3E8C JUMP JUMPDEST PUSH2 0x41EE PUSH1 0x8 DUP3 ADD PUSH2 0x41CE PUSH1 0x9 PUSH2 0x40E0 PUSH2 0x40D9 DUP5 PUSH2 0x571 JUMP JUMPDEST CALLVALUE SWAP1 PUSH2 0x14AA JUMP JUMPDEST SWAP5 PUSH2 0x40FF PUSH1 0x1 DUP3 ADD SWAP7 PUSH2 0x40F8 PUSH2 0x1C3E PUSH2 0x363 DUP11 PUSH2 0x571 JUMP JUMPDEST GT ISZERO PUSH2 0x3ED1 JUMP JUMPDEST PUSH2 0x410B PUSH1 0x7 DUP3 ADD PUSH2 0x586 JUMP JUMPDEST PUSH2 0x4237 JUMPI JUMPDEST PUSH32 0xD76BFB75FF00C93B613B0C6BBA32B0DEADCA4AA295CE325FDBA1312379A76827 PUSH1 0x4 DUP3 ADD SWAP7 PUSH2 0x4154 PUSH2 0x38E7 PUSH2 0x414E PUSH2 0x4148 DUP12 PUSH2 0x571 JUMP JUMPDEST CALLVALUE PUSH2 0x1C0F JUMP JUMPDEST SWAP10 PUSH2 0x571 JUMP JUMPDEST SWAP1 PUSH2 0x416D PUSH2 0x4161 PUSH1 0x40 MLOAD SWAP1 JUMP JUMPDEST SWAP3 DUP4 SWAP3 CALLVALUE SWAP1 DUP13 DUP6 PUSH2 0x3F4E JUMP JUMPDEST SUB SWAP1 LOG1 PUSH2 0x4184 PUSH2 0x417D PUSH1 0x0 PUSH2 0xDF6 JUMP JUMPDEST DUP8 GT PUSH2 0x3FB6 JUMP JUMPDEST ADD SWAP6 PUSH2 0x41AF PUSH2 0x4196 DUP7 PUSH2 0x14D0 DUP11 PUSH2 0x571 JUMP JUMPDEST PUSH2 0x41A8 PUSH2 0x1C3E PUSH2 0x363 PUSH2 0xCA5 ADDRESS PUSH2 0x84B JUMP JUMPDEST GT ISZERO PUSH2 0x3FF9 JUMP JUMPDEST PUSH2 0x41E7 PUSH2 0x1C3E PUSH2 0x363 PUSH2 0x41E1 PUSH2 0x12E3 PUSH2 0x140 PUSH2 0x41DA PUSH2 0x41CE CALLER DUP4 PUSH2 0x854 JUMP JUMPDEST PUSH2 0x339E PUSH2 0x40D9 DUP3 PUSH2 0x571 JUMP JUMPDEST CALLER SWAP1 PUSH2 0x854 JUMP JUMPDEST SWAP4 PUSH2 0x571 JUMP JUMPDEST GT ISZERO PUSH2 0x403B JUMP JUMPDEST PUSH2 0x14D0 DUP4 PUSH2 0x571 JUMP JUMPDEST PUSH2 0x4200 CALLER PUSH2 0x84B JUMP JUMPDEST PUSH32 0x3D0AB7E8209F975AE8D4C319005AC3A64CF3B4EE6503D416ABB001D442EB1ABC PUSH2 0x422A PUSH1 0x40 MLOAD SWAP1 JUMP JUMPDEST CALLVALUE DUP2 MSTORE DUP1 PUSH1 0x20 DUP2 ADD PUSH2 0x11E4 JUMP JUMPDEST PUSH2 0x424E PUSH2 0x4249 PUSH2 0x125E CALLER PUSH2 0x141 PUSH2 0x854 JUMP JUMPDEST PUSH2 0x3F10 JUMP JUMPDEST PUSH2 0x4110 JUMP JUMPDEST PUSH2 0x3BA PUSH2 0x3DD0 JUMP JUMPDEST PUSH2 0x363 SWAP2 PUSH2 0xE22 PUSH2 0x12E3 SWAP3 PUSH2 0x426E PUSH1 0x0 SWAP1 JUMP JUMPDEST POP PUSH1 0x34 PUSH2 0x854 JUMP JUMPDEST PUSH2 0x3BA SWAP1 PUSH2 0x4282 PUSH2 0x449D JUMP JUMPDEST PUSH2 0x42E2 JUMP JUMPDEST ISZERO PUSH2 0x428E JUMPI JUMP JUMPDEST PUSH1 0x40 MLOAD PUSH3 0x461BCD PUSH1 0xE5 SHL DUP2 MSTORE PUSH1 0x20 PUSH1 0x4 DUP3 ADD MSTORE PUSH1 0x26 PUSH1 0x24 DUP3 ADD MSTORE PUSH32 0x4F776E61626C653A206E6577206F776E657220697320746865207A65726F2061 PUSH1 0x44 DUP3 ADD MSTORE PUSH6 0x646472657373 PUSH1 0xD0 SHL PUSH1 0x64 DUP3 ADD MSTORE PUSH1 0x84 SWAP1 REVERT JUMPDEST PUSH2 0x3BA SWAP1 PUSH2 0x2DC9 PUSH2 0x42F6 PUSH2 0x3358 PUSH1 0x0 PUSH2 0x31EE JUMP JUMPDEST PUSH2 0x42FF DUP4 PUSH2 0x391 JUMP JUMPDEST EQ ISZERO PUSH2 0x4287 JUMP JUMPDEST PUSH2 0x3BA SWAP1 PUSH2 0x4276 JUMP JUMPDEST ISZERO PUSH2 0x4316 JUMPI JUMP JUMPDEST PUSH1 0x40 MLOAD PUSH3 0x461BCD PUSH1 0xE5 SHL DUP2 MSTORE PUSH1 0x20 PUSH1 0x4 DUP3 ADD MSTORE PUSH1 0x24 DUP1 DUP3 ADD MSTORE PUSH32 0x45524332303A20617070726F76652066726F6D20746865207A65726F20616464 PUSH1 0x44 DUP3 ADD MSTORE PUSH4 0x72657373 PUSH1 0xE0 SHL PUSH1 0x64 DUP3 ADD MSTORE PUSH1 0x84 SWAP1 REVERT JUMPDEST ISZERO PUSH2 0x436E JUMPI JUMP JUMPDEST PUSH1 0x40 MLOAD PUSH3 0x461BCD PUSH1 0xE5 SHL DUP2 MSTORE PUSH1 0x20 PUSH1 0x4 DUP3 ADD MSTORE PUSH1 0x22 PUSH1 0x24 DUP3 ADD MSTORE PUSH32 0x45524332303A20617070726F766520746F20746865207A65726F206164647265 PUSH1 0x44 DUP3 ADD MSTORE PUSH2 0x7373 PUSH1 0xF0 SHL PUSH1 0x64 DUP3 ADD MSTORE PUSH1 0x84 SWAP1 REVERT JUMPDEST PUSH2 0x4448 PUSH2 0x443E PUSH2 0x4438 PUSH32 0x8C5BE1E5EBEC7D5BD14F71427D1E84F3DD0314C0F7B2291E5B200AC8C7C3B925 SWAP4 PUSH2 0x4425 PUSH2 0x4415 PUSH2 0x43F9 PUSH1 0x0 PUSH2 0x31EE JUMP JUMPDEST PUSH2 0x3358 PUSH2 0x4405 DUP3 PUSH2 0x391 JUMP JUMPDEST PUSH2 0x440E DUP7 PUSH2 0x391 JUMP JUMPDEST EQ ISZERO PUSH2 0x430F JUMP JUMPDEST PUSH2 0x441E DUP9 PUSH2 0x391 JUMP JUMPDEST EQ ISZERO PUSH2 0x4367 JUMP JUMPDEST PUSH2 0x11D5 DUP8 PUSH2 0x303E DUP9 PUSH2 0xE22 DUP6 PUSH1 0x34 PUSH2 0x854 JUMP JUMPDEST SWAP4 PUSH2 0x84B JUMP JUMPDEST SWAP4 PUSH2 0x49C PUSH1 0x40 MLOAD SWAP1 JUMP JUMPDEST SUB SWAP1 LOG3 JUMP JUMPDEST ISZERO PUSH2 0x4454 JUMPI JUMP JUMPDEST PUSH1 0x40 MLOAD PUSH3 0x461BCD PUSH1 0xE5 SHL DUP2 MSTORE DUP1 PUSH2 0x1186 PUSH1 0x4 DUP3 ADD PUSH1 0x20 DUP1 DUP3 MSTORE DUP2 DUP2 ADD MSTORE PUSH32 0x4F776E61626C653A2063616C6C6572206973206E6F7420746865206F776E6572 PUSH1 0x40 DUP3 ADD MSTORE PUSH1 0x60 ADD SWAP1 JUMP JUMPDEST PUSH2 0x3BA PUSH2 0x44A8 PUSH2 0x390E JUMP JUMPDEST PUSH2 0x44B4 PUSH2 0x13FF CALLER PUSH2 0x391 JUMP JUMPDEST EQ PUSH2 0x444D JUMP JUMPDEST PUSH2 0x10D0 SWAP3 SWAP2 SWAP1 PUSH2 0x44CB DUP4 CALLER DUP4 PUSH2 0x4B30 JUMP JUMPDEST PUSH2 0x4A51 JUMP JUMPDEST PUSH2 0x363 PUSH1 0x0 PUSH2 0x44E0 PUSH2 0x363 PUSH2 0x15BF JUMP JUMPDEST ADD PUSH2 0x560 JUMP JUMPDEST POP PUSH2 0x3BA PUSH2 0x449D JUMP JUMPDEST PUSH2 0x3BA SWAP1 PUSH2 0x44E6 JUMP JUMPDEST PUSH2 0x363 PUSH32 0x4910FDFA16FED3260ED0E7147F7CC6DA11A60208B5B9406D12A635614FFD9143 PUSH2 0xDF6 JUMP JUMPDEST SWAP1 POP MLOAD SWAP1 PUSH2 0x3BA DUP3 PUSH2 0x3BC JUMP JUMPDEST SWAP1 PUSH1 0x20 DUP3 DUP3 SUB SLT PUSH2 0x2E7 JUMPI PUSH2 0x363 SWAP2 PUSH2 0x4521 JUMP JUMPDEST ISZERO PUSH2 0x4549 JUMPI JUMP JUMPDEST PUSH1 0x40 MLOAD PUSH3 0x461BCD PUSH1 0xE5 SHL DUP2 MSTORE PUSH1 0x20 PUSH1 0x4 DUP3 ADD MSTORE PUSH1 0x29 PUSH1 0x24 DUP3 ADD MSTORE PUSH32 0x45524331393637557067726164653A20756E737570706F727465642070726F78 PUSH1 0x44 DUP3 ADD MSTORE PUSH9 0x1A58589B1955555251 PUSH1 0xBA SHL PUSH1 0x64 DUP3 ADD MSTORE PUSH1 0x84 SWAP1 REVERT JUMPDEST SWAP2 SWAP1 PUSH2 0x45B8 PUSH1 0x0 PUSH2 0x45B2 PUSH2 0x363 PUSH2 0x44F8 JUMP JUMPDEST ADD PUSH2 0x586 JUMP JUMPDEST ISZERO PUSH2 0x45C8 JUMPI POP POP PUSH2 0x3BA SWAP1 PUSH2 0x4C09 JUMP JUMPDEST PUSH2 0x45D4 PUSH2 0x11D5 DUP5 PUSH2 0x84B JUMP JUMPDEST SWAP3 PUSH1 0x20 PUSH2 0x45E0 PUSH1 0x40 MLOAD SWAP1 JUMP JUMPDEST PUSH4 0x52D1902D PUSH1 0xE0 SHL DUP2 MSTORE SWAP5 DUP6 SWAP1 PUSH1 0x4 SWAP1 DUP3 SWAP1 GAS STATICCALL PUSH1 0x0 SWAP5 DUP2 PUSH2 0x467E JUMPI JUMPDEST POP PUSH2 0x465E JUMPI PUSH1 0x40 MLOAD PUSH3 0x461BCD PUSH1 0xE5 SHL DUP2 MSTORE PUSH1 0x20 PUSH1 0x4 DUP3 ADD MSTORE PUSH1 0x2E PUSH1 0x24 DUP3 ADD MSTORE PUSH32 0x45524331393637557067726164653A206E657720696D706C656D656E74617469 PUSH1 0x44 DUP3 ADD MSTORE PUSH14 0x6F6E206973206E6F742055555053 PUSH1 0x90 SHL PUSH1 0x64 DUP3 ADD MSTORE PUSH1 0x84 SWAP1 REVERT JUMPDEST PUSH2 0x4679 PUSH2 0x3BA SWAP5 PUSH2 0x4673 PUSH2 0x1C3E PUSH2 0x363 PUSH2 0x15BF JUMP JUMPDEST EQ PUSH2 0x4542 JUMP JUMPDEST PUSH2 0x4B68 JUMP JUMPDEST PUSH2 0x46A1 SWAP2 SWAP6 POP PUSH1 0x20 RETURNDATASIZE PUSH1 0x20 GT PUSH2 0x46A8 JUMPI JUMPDEST PUSH2 0x4699 DUP2 DUP4 PUSH2 0x8B3 JUMP JUMPDEST DUP2 ADD SWAP1 PUSH2 0x452E JUMP JUMPDEST SWAP4 CODESIZE PUSH2 0x45FD JUMP JUMPDEST POP RETURNDATASIZE PUSH2 0x468F JUMP JUMPDEST EXTCODESIZE PUSH2 0x46BD PUSH2 0x1C3E PUSH1 0x0 PUSH2 0xDF6 JUMP JUMPDEST GT SWAP1 JUMP JUMPDEST ISZERO PUSH2 0x46C8 JUMPI JUMP JUMPDEST PUSH1 0x40 MLOAD PUSH3 0x461BCD PUSH1 0xE5 SHL DUP2 MSTORE PUSH1 0x20 PUSH1 0x4 DUP3 ADD MSTORE PUSH1 0x2B PUSH1 0x24 DUP3 ADD MSTORE PUSH32 0x496E697469616C697A61626C653A20636F6E7472616374206973206E6F742069 PUSH1 0x44 DUP3 ADD MSTORE PUSH11 0x6E697469616C697A696E67 PUSH1 0xA8 SHL PUSH1 0x64 DUP3 ADD MSTORE PUSH1 0x84 SWAP1 REVERT JUMPDEST SWAP1 PUSH2 0x3BA SWAP2 PUSH2 0x4738 PUSH2 0x4733 PUSH1 0x0 PUSH2 0x695 JUMP JUMPDEST PUSH2 0x46C1 JUMP JUMPDEST SWAP1 PUSH2 0x3BA SWAP2 PUSH2 0x4C59 JUMP JUMPDEST SWAP1 PUSH2 0x3BA SWAP2 PUSH2 0x4721 JUMP JUMPDEST PUSH2 0x4759 PUSH2 0x4733 PUSH1 0x0 PUSH2 0x695 JUMP JUMPDEST PUSH2 0x3BA PUSH2 0x3BA PUSH2 0x4C7A JUMP JUMPDEST PUSH2 0x3BA PUSH2 0x474C JUMP JUMPDEST PUSH2 0x4779 PUSH2 0x4733 PUSH1 0x0 PUSH2 0x695 JUMP JUMPDEST PUSH2 0x3BA PUSH2 0x3BA PUSH2 0x4C8F JUMP JUMPDEST PUSH2 0x3BA PUSH2 0x476C JUMP JUMPDEST PUSH2 0x3BA PUSH2 0x4733 PUSH1 0x0 PUSH2 0x695 JUMP JUMPDEST PUSH2 0x3BA PUSH2 0x478C JUMP JUMPDEST ISZERO PUSH2 0x47A8 JUMPI JUMP JUMPDEST PUSH1 0x40 MLOAD PUSH3 0x461BCD PUSH1 0xE5 SHL DUP2 MSTORE PUSH1 0x20 PUSH1 0x4 DUP3 ADD MSTORE PUSH1 0x1F PUSH1 0x24 DUP3 ADD MSTORE PUSH32 0x45524332303A206D696E7420746F20746865207A65726F206164647265737300 PUSH1 0x44 DUP3 ADD MSTORE PUSH1 0x64 SWAP1 REVERT JUMPDEST PUSH1 0x0 DUP1 MLOAD PUSH1 0x20 PUSH2 0x4E3C DUP4 CODECOPY DUP2 MLOAD SWAP2 MSTORE PUSH2 0x4448 PUSH2 0x443E PUSH2 0x4438 PUSH2 0x480F PUSH1 0x0 PUSH2 0x31EE JUMP JUMPDEST PUSH2 0x482B PUSH2 0x481B DUP3 PUSH2 0x391 JUMP JUMPDEST PUSH2 0x4824 DUP9 PUSH2 0x391 JUMP JUMPDEST EQ ISZERO PUSH2 0x47A1 JUMP JUMPDEST PUSH2 0x4843 PUSH2 0x483C DUP9 PUSH2 0x14D0 PUSH1 0x35 PUSH2 0x571 JUMP JUMPDEST PUSH1 0x35 PUSH2 0x1E15 JUMP JUMPDEST PUSH2 0x11D5 PUSH2 0x4851 DUP8 PUSH1 0x33 PUSH2 0x854 JUMP JUMPDEST PUSH2 0x339E DUP10 PUSH2 0x34E DUP4 PUSH2 0x571 JUMP JUMPDEST PUSH2 0x487F PUSH2 0x4879 PUSH2 0x486E PUSH1 0x65 PUSH2 0x560 JUMP JUMPDEST PUSH2 0x11D5 DUP5 PUSH1 0x65 PUSH2 0x20C4 JUMP JUMPDEST SWAP2 PUSH2 0x84B JUMP JUMPDEST SWAP1 PUSH32 0x8BE0079C531659141344CD1FD0A4F28419497F9722A3DAAFE3B4186F6B6457E0 PUSH2 0x48AA PUSH1 0x40 MLOAD SWAP1 JUMP JUMPDEST DUP1 DUP1 PUSH2 0x4448 JUMP JUMPDEST PUSH2 0x363 PUSH1 0x2 PUSH2 0xDF6 JUMP JUMPDEST ISZERO PUSH2 0x48C2 JUMPI JUMP JUMPDEST PUSH1 0x40 MLOAD PUSH3 0x461BCD PUSH1 0xE5 SHL DUP2 MSTORE PUSH1 0x20 PUSH1 0x4 DUP3 ADD MSTORE PUSH1 0x1F PUSH1 0x24 DUP3 ADD MSTORE PUSH32 0x5265656E7472616E637947756172643A207265656E7472616E742063616C6C00 PUSH1 0x44 DUP3 ADD MSTORE PUSH1 0x64 SWAP1 REVERT JUMPDEST PUSH2 0x3BA PUSH2 0x4914 PUSH1 0x97 PUSH2 0x571 JUMP JUMPDEST PUSH2 0x4928 PUSH2 0x491F PUSH2 0x48B1 JUMP JUMPDEST SWAP2 DUP3 EQ ISZERO PUSH2 0x48BB JUMP JUMPDEST PUSH1 0x97 PUSH2 0x1E15 JUMP JUMPDEST PUSH2 0x363 PUSH1 0x1 PUSH2 0xDF6 JUMP JUMPDEST PUSH2 0x3BA PUSH2 0x4928 PUSH2 0x492F JUMP JUMPDEST ISZERO PUSH2 0x494B JUMPI JUMP JUMPDEST PUSH1 0x40 MLOAD PUSH3 0x461BCD PUSH1 0xE5 SHL DUP2 MSTORE PUSH1 0x20 PUSH1 0x4 DUP3 ADD MSTORE PUSH1 0x25 PUSH1 0x24 DUP3 ADD MSTORE PUSH32 0x45524332303A207472616E736665722066726F6D20746865207A65726F206164 PUSH1 0x44 DUP3 ADD MSTORE PUSH5 0x6472657373 PUSH1 0xD8 SHL PUSH1 0x64 DUP3 ADD MSTORE PUSH1 0x84 SWAP1 REVERT JUMPDEST ISZERO PUSH2 0x49A5 JUMPI JUMP JUMPDEST PUSH1 0x40 MLOAD PUSH3 0x461BCD PUSH1 0xE5 SHL DUP2 MSTORE PUSH1 0x20 PUSH1 0x4 DUP3 ADD MSTORE PUSH1 0x23 PUSH1 0x24 DUP3 ADD MSTORE PUSH32 0x45524332303A207472616E7366657220746F20746865207A65726F2061646472 PUSH1 0x44 DUP3 ADD MSTORE PUSH3 0x657373 PUSH1 0xE8 SHL PUSH1 0x64 DUP3 ADD MSTORE PUSH1 0x84 SWAP1 REVERT JUMPDEST ISZERO PUSH2 0x49FD JUMPI JUMP JUMPDEST PUSH1 0x40 MLOAD PUSH3 0x461BCD PUSH1 0xE5 SHL DUP2 MSTORE PUSH1 0x20 PUSH1 0x4 DUP3 ADD MSTORE PUSH1 0x26 PUSH1 0x24 DUP3 ADD MSTORE PUSH32 0x45524332303A207472616E7366657220616D6F756E7420657863656564732062 PUSH1 0x44 DUP3 ADD MSTORE PUSH6 0x616C616E6365 PUSH1 0xD0 SHL PUSH1 0x64 DUP3 ADD MSTORE PUSH1 0x84 SWAP1 REVERT JUMPDEST PUSH2 0x4448 PUSH2 0x443E PUSH2 0x4438 PUSH1 0x0 DUP1 MLOAD PUSH1 0x20 PUSH2 0x4E3C DUP4 CODECOPY DUP2 MLOAD SWAP2 MSTORE SWAP4 PUSH2 0x4AA6 PUSH2 0x4A96 PUSH2 0x4A7A PUSH1 0x0 PUSH2 0x31EE JUMP JUMPDEST PUSH2 0x3358 PUSH2 0x4A86 DUP3 PUSH2 0x391 JUMP JUMPDEST PUSH2 0x4A8F DUP7 PUSH2 0x391 JUMP JUMPDEST EQ ISZERO PUSH2 0x4944 JUMP JUMPDEST PUSH2 0x4A9F DUP9 PUSH2 0x391 JUMP JUMPDEST EQ ISZERO PUSH2 0x499E JUMP JUMPDEST PUSH2 0x11D5 PUSH2 0x4851 DUP8 PUSH1 0x33 PUSH2 0xE22 PUSH2 0x4ACF DUP13 PUSH2 0x4AC3 PUSH2 0x12E3 DUP10 DUP7 PUSH2 0x854 JUMP JUMPDEST PUSH2 0x3C05 DUP3 DUP3 LT ISZERO PUSH2 0x49F6 JUMP JUMPDEST PUSH2 0x303E DUP8 DUP5 PUSH2 0x854 JUMP JUMPDEST PUSH2 0x10D0 SWAP2 SWAP1 CALLER PUSH2 0x4A51 JUMP JUMPDEST ISZERO PUSH2 0x4AEB JUMPI JUMP JUMPDEST PUSH1 0x40 MLOAD PUSH3 0x461BCD PUSH1 0xE5 SHL DUP2 MSTORE PUSH1 0x20 PUSH1 0x4 DUP3 ADD MSTORE PUSH1 0x1D PUSH1 0x24 DUP3 ADD MSTORE PUSH32 0x45524332303A20696E73756666696369656E7420616C6C6F77616E6365000000 PUSH1 0x44 DUP3 ADD MSTORE PUSH1 0x64 SWAP1 REVERT JUMPDEST SWAP1 PUSH2 0x4B3B DUP2 DUP4 PUSH2 0x425B JUMP JUMPDEST PUSH1 0x0 NOT DUP2 SUB PUSH2 0x4B4B JUMPI JUMPDEST POP POP POP POP JUMP JUMPDEST PUSH2 0x4B5F SWAP4 PUSH2 0x14D5 SWAP2 PUSH2 0x3C05 DUP3 DUP3 LT ISZERO PUSH2 0x4AE4 JUMP JUMPDEST CODESIZE DUP1 DUP1 DUP1 PUSH2 0x4B45 JUMP JUMPDEST SWAP2 PUSH2 0x4B72 DUP4 PUSH2 0x4C97 JUMP JUMPDEST DUP2 MLOAD PUSH2 0x4B81 PUSH2 0x1C3E PUSH1 0x0 PUSH2 0xDF6 JUMP JUMPDEST GT SWAP1 DUP2 ISZERO PUSH2 0x4B9F JUMPI JUMPDEST POP PUSH2 0x4B93 JUMPI POP POP JUMP JUMPDEST PUSH2 0x4B9C SWAP2 PUSH2 0x4D20 JUMP JUMPDEST POP JUMP JUMPDEST SWAP1 POP CODESIZE PUSH2 0x4B8A JUMP JUMPDEST ISZERO PUSH2 0x4BAE JUMPI JUMP JUMPDEST PUSH1 0x40 MLOAD PUSH3 0x461BCD PUSH1 0xE5 SHL DUP2 MSTORE PUSH1 0x20 PUSH1 0x4 DUP3 ADD MSTORE PUSH1 0x2D PUSH1 0x24 DUP3 ADD MSTORE PUSH32 0x455243313936373A206E657720696D706C656D656E746174696F6E206973206E PUSH1 0x44 DUP3 ADD MSTORE PUSH13 0x1BDD08184818DBDB9D1C9858DD PUSH1 0x9A SHL PUSH1 0x64 DUP3 ADD MSTORE PUSH1 0x84 SWAP1 REVERT JUMPDEST PUSH2 0x3BA SWAP1 PUSH2 0x4C1E PUSH2 0x4C19 DUP3 PUSH2 0x46AF JUMP JUMPDEST PUSH2 0x4BA7 JUMP JUMPDEST PUSH1 0x0 PUSH2 0x4C2B PUSH2 0x363 PUSH2 0x15BF JUMP JUMPDEST ADD PUSH2 0x20C4 JUMP JUMPDEST SWAP1 PUSH2 0x3BA SWAP2 PUSH2 0x4C43 PUSH2 0x4733 PUSH1 0x0 PUSH2 0x695 JUMP JUMPDEST SWAP1 PUSH2 0x4C52 PUSH2 0x3BA SWAP3 PUSH1 0x36 PUSH2 0x244F JUMP JUMPDEST PUSH1 0x37 PUSH2 0x244F JUMP JUMPDEST SWAP1 PUSH2 0x3BA SWAP2 PUSH2 0x4C31 JUMP JUMPDEST PUSH2 0x4C70 PUSH2 0x4733 PUSH1 0x0 PUSH2 0x695 JUMP JUMPDEST PUSH2 0x3BA DUP1 CALLER PUSH2 0x485E JUMP JUMPDEST PUSH2 0x3BA PUSH2 0x4C63 JUMP JUMPDEST PUSH2 0x321D PUSH2 0x4733 PUSH1 0x0 PUSH2 0x695 JUMP JUMPDEST PUSH2 0x3BA PUSH2 0x4C82 JUMP JUMPDEST PUSH2 0x4CA4 SWAP1 PUSH2 0x11D5 DUP2 PUSH2 0x4C09 JUMP JUMPDEST PUSH32 0xBC7CD75A20EE27FD9ADEBAB32041F755214DBC6BFFA90CC0225B39DA2E5C2D3B PUSH2 0x4CCE PUSH1 0x40 MLOAD SWAP1 JUMP JUMPDEST DUP1 DUP1 PUSH2 0x11E4 JUMP JUMPDEST PUSH2 0x4CDF PUSH1 0x27 PUSH2 0x142B JUMP JUMPDEST PUSH32 0x416464726573733A206C6F772D6C6576656C2064656C65676174652063616C6C PUSH1 0x20 DUP3 ADD MSTORE PUSH7 0x819985A5B1959 PUSH1 0xCA SHL PUSH1 0x40 DUP3 ADD MSTORE SWAP1 JUMP JUMPDEST PUSH2 0x363 PUSH2 0x4CD5 JUMP JUMPDEST PUSH2 0x363 SWAP2 PUSH2 0x4D2C PUSH2 0x4D18 JUMP JUMPDEST SWAP2 PUSH1 0x0 DUP1 PUSH2 0x363 SWAP5 SWAP4 PUSH2 0x4D3D PUSH1 0x60 SWAP1 JUMP JUMPDEST POP PUSH1 0x20 DUP2 MLOAD SWAP2 ADD DUP5 GAS DELEGATECALL PUSH2 0x4D4F PUSH2 0x30EE JUMP JUMPDEST SWAP2 PUSH2 0x4DA1 JUMP JUMPDEST ISZERO PUSH2 0x4D5C JUMPI JUMP JUMPDEST PUSH1 0x40 MLOAD PUSH3 0x461BCD PUSH1 0xE5 SHL DUP2 MSTORE PUSH1 0x20 PUSH1 0x4 DUP3 ADD MSTORE PUSH1 0x1D PUSH1 0x24 DUP3 ADD MSTORE PUSH32 0x416464726573733A2063616C6C20746F206E6F6E2D636F6E7472616374000000 PUSH1 0x44 DUP3 ADD MSTORE PUSH1 0x64 SWAP1 REVERT JUMPDEST SWAP2 SWAP3 SWAP1 ISZERO PUSH2 0x4DD3 JUMPI POP DUP2 MLOAD PUSH2 0x4DB9 PUSH2 0x1C3E PUSH1 0x0 PUSH2 0xDF6 JUMP JUMPDEST EQ PUSH2 0x4DC2 JUMPI POP SWAP1 JUMP JUMPDEST PUSH2 0x4DCE PUSH2 0x363 SWAP2 PUSH2 0x46AF JUMP JUMPDEST PUSH2 0x4D55 JUMP JUMPDEST DUP3 SWAP1 PUSH2 0x4DDD DUP3 MLOAD SWAP1 JUMP JUMPDEST PUSH2 0x4DEA PUSH2 0x1C3E PUSH1 0x0 PUSH2 0xDF6 JUMP JUMPDEST GT ISZERO PUSH2 0x4DF9 JUMPI POP DUP1 MLOAD SWAP1 PUSH1 0x20 ADD REVERT JUMPDEST PUSH2 0x1186 SWAP1 PUSH2 0x4E06 PUSH1 0x40 MLOAD SWAP1 JUMP JUMPDEST PUSH3 0x461BCD PUSH1 0xE5 SHL DUP2 MSTORE SWAP2 DUP3 SWAP2 PUSH1 0x4 DUP4 ADD PUSH2 0x352 JUMP INVALID CHAINID PUSH22 0x6E6374696F6E206D7573742062652063616C6C656420 PUSH21 0x68726F75676820DDF252AD1BE2C89B69C2B068FC37 DUP14 0xAA SWAP6 0x2B 0xA7 CALL PUSH4 0xC4A11628 CREATE2 GAS 0x4D CREATE2 0x23 0xB3 0xEF LOG2 PUSH5 0x6970667358 0x22 SLT KECCAK256 EQ CODESIZE SGT LOG4 PUSH17 0xFB3A1BE41C05B42B4DCE577EDF2F9111FE 0xFB AND EXTCODECOPY 0xDA 0xB0 DUP6 0x2A TIMESTAMP SWAP3 0xDC PUSH5 0x736F6C6343 STOP ADDMOD AND STOP CALLER "},"methodIdentifiers":{"addVestingSchedule(string,uint256,uint256,address)":"8bacf014","allowance(address,address)":"dd62ed3e","approve(address,uint256)":"095ea7b3","balanceOf(address)":"70a08231","blacklistEnabled()":"bffb691d","blacklisted(address)":"dbac26e9","claimPlatformFeeTokens()":"8bdc444d","claimVestedTokens(uint256)":"7935510b","contribute()":"d7bb99ba","contributions(address)":"42e94c90","decimals()":"313ce567","decreaseAllowance(address,uint256)":"a457c2d7","developmentAllocation()":"2c80a89c","finalizePresale()":"a0a6e940","getClaimableAmount(uint256)":"7d8ca242","getVestingSchedule(uint256)":"beb8f883","getVestingSchedulesCount()":"13083617","increaseAllowance(address,uint256)":"39509351","initialize((string,string,uint256,uint256,address,bool,bool,uint256,uint256,uint256,uint256,uint256,uint256,uint256,uint256,address,uint256,bool,uint256,uint256,uint256,uint256,uint256,uint256))":"56f3e237","liquidityInfo()":"d4ef85cc","marketingAllocation()":"15f0c220","maxSupply()":"d5abeb01","name()":"06fdde03","owner()":"8da5cb5b","platformFee()":"26232a2e","presaleInfo()":"2edf0869","proxiableUUID()":"52d1902d","renounceOwnership()":"715018a6","setBlacklist(address,bool)":"153b0d1e","setTimeLock(address,uint256)":"644fab74","setWhitelistStatus(address,bool)":"0c424284","symbol()":"95d89b41","teamAllocation()":"6816521a","timeLockEnabled()":"cba4cbd3","timeLocks(address)":"7f76b223","totalSupply()":"18160ddd","transfer(address,uint256)":"a9059cbb","transferFrom(address,address,uint256)":"23b872dd","transferOwnership(address)":"f2fde38b","upgradeTo(address)":"3659cfe6","upgradeToAndCall(address,bytes)":"4f1ef286","vestingClaims(uint256,address)":"91ed2596","vestingSchedules(uint256)":"6d3cbe21","whitelist(address)":"9b19251a","withdrawPresaleFunds()":"64a88d68"}}}}}