{"src/contracts/TokenFactory_v3.sol":{"TokenFactory_v3":{"abi":[{"inputs":[{"internalType":"address","name":"_implementation","type":"address"}],"stateMutability":"nonpayable","type":"constructor"},{"anonymous":false,"inputs":[{"indexed":false,"internalType":"address","name":"previousAdmin","type":"address"},{"indexed":false,"internalType":"address","name":"newAdmin","type":"address"}],"name":"AdminChanged","type":"event"},{"anonymous":false,"inputs":[{"indexed":true,"internalType":"address","name":"beacon","type":"address"}],"name":"BeaconUpgraded","type":"event"},{"anonymous":false,"inputs":[{"indexed":true,"internalType":"address","name":"user","type":"address"},{"indexed":false,"internalType":"uint256","name":"fee","type":"uint256"}],"name":"CustomDeploymentFeeSet","type":"event"},{"anonymous":false,"inputs":[{"indexed":false,"internalType":"string","name":"message","type":"string"},{"indexed":false,"internalType":"uint256","name":"value","type":"uint256"}],"name":"DebugAllocation","type":"event"},{"anonymous":false,"inputs":[{"indexed":false,"internalType":"string","name":"step","type":"string"},{"indexed":false,"internalType":"string","name":"message","type":"string"}],"name":"DebugInitStep","type":"event"},{"anonymous":false,"inputs":[{"indexed":false,"internalType":"string","name":"message","type":"string"},{"indexed":false,"internalType":"uint256","name":"presaleTokens","type":"uint256"},{"indexed":false,"internalType":"uint256","name":"presaleRate","type":"uint256"},{"indexed":false,"internalType":"uint256","name":"requiredCap","type":"uint256"},{"indexed":false,"internalType":"uint256","name":"providedCap","type":"uint256"}],"name":"DebugPresale","type":"event"},{"anonymous":false,"inputs":[{"indexed":false,"internalType":"string","name":"message","type":"string"},{"indexed":false,"internalType":"uint256","name":"currentTime","type":"uint256"},{"indexed":false,"internalType":"uint256","name":"startTime","type":"uint256"},{"indexed":false,"internalType":"uint256","name":"endTime","type":"uint256"}],"name":"DebugTime","type":"event"},{"anonymous":false,"inputs":[{"indexed":false,"internalType":"string","name":"message","type":"string"},{"indexed":false,"internalType":"uint256","name":"value","type":"uint256"}],"name":"DebugValidation","type":"event"},{"anonymous":false,"inputs":[{"indexed":false,"internalType":"uint256","name":"newFee","type":"uint256"}],"name":"DeploymentFeeUpdated","type":"event"},{"anonymous":false,"inputs":[{"indexed":false,"internalType":"uint8","name":"version","type":"uint8"}],"name":"Initialized","type":"event"},{"anonymous":false,"inputs":[{"indexed":false,"internalType":"uint256","name":"percentage","type":"uint256"},{"indexed":false,"internalType":"uint256","name":"lockDuration","type":"uint256"}],"name":"LiquidityConfigUpdated","type":"event"},{"anonymous":false,"inputs":[{"indexed":true,"internalType":"address","name":"previousOwner","type":"address"},{"indexed":true,"internalType":"address","name":"newOwner","type":"address"}],"name":"OwnershipTransferred","type":"event"},{"anonymous":false,"inputs":[{"indexed":false,"internalType":"address","name":"newRecipient","type":"address"}],"name":"PlatformFeeRecipientUpdated","type":"event"},{"anonymous":false,"inputs":[{"indexed":false,"internalType":"uint256","name":"newPercentage","type":"uint256"}],"name":"PlatformFeeUpdated","type":"event"},{"anonymous":false,"inputs":[{"indexed":false,"internalType":"uint256","name":"vestingDuration","type":"uint256"},{"indexed":false,"internalType":"uint256","name":"cliffDuration","type":"uint256"},{"indexed":false,"internalType":"bool","name":"enabled","type":"bool"}],"name":"PlatformFeeVestingConfigured","type":"event"},{"anonymous":false,"inputs":[{"indexed":true,"internalType":"address","name":"token","type":"address"},{"indexed":false,"internalType":"string","name":"name","type":"string"},{"indexed":false,"internalType":"string","name":"symbol","type":"string"},{"indexed":true,"internalType":"address","name":"owner","type":"address"},{"indexed":false,"internalType":"uint256","name":"startTime","type":"uint256"},{"indexed":false,"internalType":"uint256","name":"endTime","type":"uint256"},{"indexed":false,"internalType":"uint256","name":"initialSupply","type":"uint256"},{"indexed":false,"internalType":"uint256","name":"maxSupply","type":"uint256"}],"name":"TokenCreated","type":"event"},{"anonymous":false,"inputs":[{"indexed":true,"internalType":"address","name":"implementation","type":"address"}],"name":"Upgraded","type":"event"},{"inputs":[],"name":"VERSION","outputs":[{"internalType":"string","name":"","type":"string"}],"stateMutability":"view","type":"function"},{"inputs":[{"internalType":"uint256","name":"_percentage","type":"uint256"},{"internalType":"uint256","name":"_lockDuration","type":"uint256"}],"name":"configureLiquidityDefaults","outputs":[],"stateMutability":"nonpayable","type":"function"},{"inputs":[{"internalType":"uint256","name":"_vestingDuration","type":"uint256"},{"internalType":"uint256","name":"_cliffDuration","type":"uint256"},{"internalType":"bool","name":"_enabled","type":"bool"}],"name":"configurePlatformFeeVesting","outputs":[],"stateMutability":"nonpayable","type":"function"},{"inputs":[{"components":[{"internalType":"string","name":"name","type":"string"},{"internalType":"string","name":"symbol","type":"string"},{"internalType":"uint256","name":"initialSupply","type":"uint256"},{"internalType":"uint256","name":"maxSupply","type":"uint256"},{"internalType":"address","name":"owner","type":"address"},{"internalType":"bool","name":"enableBlacklist","type":"bool"},{"internalType":"bool","name":"enableTimeLock","type":"bool"},{"internalType":"uint256","name":"tokensPerEth","type":"uint256"},{"internalType":"uint256","name":"minContribution","type":"uint256"},{"internalType":"uint256","name":"maxContribution","type":"uint256"},{"internalType":"uint256","name":"presaleCap","type":"uint256"},{"internalType":"uint256","name":"startTime","type":"uint256"},{"internalType":"uint256","name":"endTime","type":"uint256"},{"internalType":"uint256","name":"presalePercentage","type":"uint256"},{"internalType":"uint256","name":"liquidityPercentage","type":"uint256"},{"internalType":"uint256","name":"liquidityLockDuration","type":"uint256"},{"internalType":"uint256","name":"teamPercentage","type":"uint256"},{"internalType":"uint256","name":"marketingPercentage","type":"uint256"},{"internalType":"uint256","name":"developmentPercentage","type":"uint256"}],"internalType":"struct TokenCreationParams","name":"params","type":"tuple"}],"name":"createToken","outputs":[{"internalType":"address","name":"","type":"address"}],"stateMutability":"payable","type":"function"},{"inputs":[{"internalType":"address","name":"","type":"address"}],"name":"customDeploymentFees","outputs":[{"internalType":"uint256","name":"","type":"uint256"}],"stateMutability":"view","type":"function"},{"inputs":[],"name":"defaultLiquidityLockDuration","outputs":[{"internalType":"uint256","name":"","type":"uint256"}],"stateMutability":"view","type":"function"},{"inputs":[],"name":"defaultLiquidityPercentage","outputs":[{"internalType":"uint256","name":"","type":"uint256"}],"stateMutability":"view","type":"function"},{"inputs":[{"internalType":"uint256","name":"","type":"uint256"}],"name":"deployedTokens","outputs":[{"internalType":"address","name":"","type":"address"}],"stateMutability":"view","type":"function"},{"inputs":[],"name":"deploymentFee","outputs":[{"internalType":"uint256","name":"","type":"uint256"}],"stateMutability":"view","type":"function"},{"inputs":[],"name":"getDeployedTokensCount","outputs":[{"internalType":"uint256","name":"","type":"uint256"}],"stateMutability":"view","type":"function"},{"inputs":[{"internalType":"address","name":"_user","type":"address"}],"name":"getDeploymentFee","outputs":[{"internalType":"uint256","name":"","type":"uint256"}],"stateMutability":"view","type":"function"},{"inputs":[],"name":"getTemplateImplementation","outputs":[{"internalType":"address","name":"","type":"address"}],"stateMutability":"view","type":"function"},{"inputs":[{"internalType":"address","name":"token","type":"address"}],"name":"getTokenVersion","outputs":[{"internalType":"string","name":"","type":"string"}],"stateMutability":"view","type":"function"},{"inputs":[{"internalType":"uint256","name":"_deploymentFee","type":"uint256"}],"name":"initialize","outputs":[],"stateMutability":"nonpayable","type":"function"},{"inputs":[],"name":"owner","outputs":[{"internalType":"address","name":"","type":"address"}],"stateMutability":"view","type":"function"},{"inputs":[],"name":"platformFeeCliffDuration","outputs":[{"internalType":"uint256","name":"","type":"uint256"}],"stateMutability":"view","type":"function"},{"inputs":[],"name":"platformFeePercentage","outputs":[{"internalType":"uint256","name":"","type":"uint256"}],"stateMutability":"view","type":"function"},{"inputs":[],"name":"platformFeeRecipient","outputs":[{"internalType":"address","name":"","type":"address"}],"stateMutability":"view","type":"function"},{"inputs":[],"name":"platformFeeVestingDuration","outputs":[{"internalType":"uint256","name":"","type":"uint256"}],"stateMutability":"view","type":"function"},{"inputs":[],"name":"platformFeeVestingEnabled","outputs":[{"internalType":"bool","name":"","type":"bool"}],"stateMutability":"view","type":"function"},{"inputs":[],"name":"proxiableUUID","outputs":[{"internalType":"bytes32","name":"","type":"bytes32"}],"stateMutability":"view","type":"function"},{"inputs":[],"name":"renounceOwnership","outputs":[],"stateMutability":"nonpayable","type":"function"},{"inputs":[{"internalType":"address","name":"_user","type":"address"},{"internalType":"uint256","name":"_fee","type":"uint256"}],"name":"setCustomDeploymentFee","outputs":[],"stateMutability":"nonpayable","type":"function"},{"inputs":[{"internalType":"uint256","name":"_fee","type":"uint256"}],"name":"setDeploymentFee","outputs":[],"stateMutability":"nonpayable","type":"function"},{"inputs":[{"internalType":"uint256","name":"_percentage","type":"uint256"}],"name":"setPlatformFeePercentage","outputs":[],"stateMutability":"nonpayable","type":"function"},{"inputs":[{"internalType":"address","name":"_recipient","type":"address"}],"name":"setPlatformFeeRecipient","outputs":[],"stateMutability":"nonpayable","type":"function"},{"inputs":[],"name":"tokenImplementation","outputs":[{"internalType":"contract TokenTemplate_v3","name":"","type":"address"}],"stateMutability":"view","type":"function"},{"inputs":[{"internalType":"address","name":"","type":"address"}],"name":"tokenVersions","outputs":[{"internalType":"string","name":"","type":"string"}],"stateMutability":"view","type":"function"},{"inputs":[{"internalType":"address","name":"newOwner","type":"address"}],"name":"transferOwnership","outputs":[],"stateMutability":"nonpayable","type":"function"},{"inputs":[{"internalType":"address","name":"newImplementation","type":"address"}],"name":"upgradeTo","outputs":[],"stateMutability":"nonpayable","type":"function"},{"inputs":[{"internalType":"address","name":"newImplementation","type":"address"},{"internalType":"bytes","name":"data","type":"bytes"}],"name":"upgradeToAndCall","outputs":[],"stateMutability":"payable","type":"function"}],"evm":{"bytecode":{"linkReferences":{},"object":"60c06040523462000057576200001e62000018620000fb565b6200014a565b604051613f3a620001798239608051818181610f5f01526110f0015260a05181818161041a01528181610cbf0152612a3c0152613f3a90f35b600080fd5b634e487b7160e01b600052604160045260246000fd5b90601f01601f191681019081106001600160401b038211176200009457604052565b6200005c565b90620000b1620000a960405190565b928362000072565b565b6001600160a01b031690565b90565b620000cd81620000b3565b036200005757565b90505190620000b182620000c2565b906020828203126200005757620000bf91620000d5565b620000bf620040b38038038062000112816200009a565b928339810190620000e4565b620000bf90620000b3906001600160a01b031682565b620000bf906200011e565b620000bf9062000134565b6200015f906200015962000164565b6200013f565b60a052565b620000b162000173306200013f565b60805256fe61026060405260043610156200001457600080fd5b60003560e01c80630d1ded891462000241578063113d478b146200023b5780631652da4214620002355780631871e243146200022f57806325f1be1f14620002295780632f3a3d5d14620002235780633659cfe6146200021d578063420fc21014620002175780634f1ef286146200021157806352d1902d146200020b578063545e73481462000205578063715018a614620001ff5780638333903e14620001f95780638da5cb5b14620001f3578063a2afdb9914620001ed578063a78fae8e14620001e7578063b619377514620001e1578063c05ddda814620001db578063cbf1208f14620001d5578063cdd78cfc14620001cf578063d002462b14620001c9578063d534014114620001c3578063e379dcaf14620001bd578063e37fce8c14620001b7578063eb13554f14620001b1578063ec81aadb14620001ab578063f2cff57f14620001a5578063f2fde38b146200019f578063fadcac271462000199578063fe4b84df14620001935763ffa1ad7403620002475762000c98565b62000c2b565b62000bf8565b62000baf565b62000b8e565b62000b5f565b62000ad9565b62000a94565b62000a3a565b62000a0d565b620009a1565b62000980565b62000954565b62000913565b620008d9565b620008a9565b6200088b565b62000842565b62000825565b620007db565b620007ad565b620005b5565b6200059d565b6200046b565b62000440565b620003fd565b62000392565b62000370565b6200034f565b620002e4565b6200028a565b600080fd5b60009103126200024757565b6001600160a01b031690565b90565b620002729062000258565b9052565b60208101929162000288919062000267565b565b3462000247576200029d3660046200024c565b620002b8620002ab62000cb9565b6040519182918262000276565b0390f35b62000264916008021c81565b90620002649154620002bc565b620002646000610100620002c8565b346200024757620002f73660046200024c565b620002b862000305620002d5565b6040515b9182918290815260200190565b620003218162000258565b036200024757565b90503590620002888262000316565b906020828203126200024757620002649162000329565b346200024757620002b8620003056200036a36600462000338565b62000d08565b3462000247576200038d6200038736600462000338565b62000e98565b604051005b346200024757620003a53660046200024c565b620002b8620003056101045490565b620002649062000258906001600160a01b031682565b6200026490620003b4565b6200026490620003ca565b6200027290620003d5565b602081019291620002889190620003e0565b346200024757620004103660046200024c565b60405180620002b87f000000000000000000000000000000000000000000000000000000000000000082620003eb565b3462000247576200038d6200045736600462000338565b6200101f565b62000264600060ff620002c8565b3462000247576200047e3660046200024c565b620002b8620003056200045d565b634e487b7160e01b600052604160045260246000fd5b90601f01601f191681019081106001600160401b03821117620004c457604052565b6200048c565b9062000288620004d960405190565b9283620004a2565b6001600160401b038111620004c457602090601f01601f19160190565b0190565b90826000939282370152565b90929192620005276200052182620004e1565b620004ca565b938185528183011162000247576200028891602085019062000502565b9080601f83011215620002475781602062000264933591016200050e565b91909160408184031262000247576200057c838262000329565b9260208201356001600160401b038111620002475762000264920162000544565b6200038d620005ae36600462000562565b9062001058565b346200024757620005c83660046200024c565b620002b86200030562001158565b90620005e290620003d5565b600052602052604060002090565b634e487b7160e01b600052600060045260246000fd5b634e487b7160e01b600052602260045260246000fd5b90600160028304921680156200063f575b60208310146200063957565b62000606565b91607f16916200062d565b805460009392916200066a62000660836200061c565b8085529360200190565b9160018116908115620006c157506001146200068557505050565b620006999192939450600052602060002090565b916000925b818410620006ac5750500190565b8054848401526020909301926001016200069e565b92949550505060ff1916825215156020020190565b9062000264916200064a565b90620002886200070092620006f660405190565b93848092620006d6565b0383620004a2565b906000106200071c576200026490620006e2565b620005f0565b6000620007366200026492610105620005d6565b62000708565b60005b838110620007505750506000910152565b81810151838201526020016200073f565b6200078662000790602093620004fe936200077a815190565b80835293849260200190565b958691016200073c565b601f01601f191690565b6020808252620002649291019062000761565b346200024757620002b8620007ce620007c836600462000338565b62000722565b604051918291826200079a565b346200024757620007ee3660046200024c565b6200038d62001188565b8062000321565b905035906200028882620007f8565b9060208282031262000247576200026491620007ff565b3462000247576200038d6200083c3660046200080e565b62001250565b346200024757620008553660046200024c565b620002b8620002ab62001272565b9190604083820312620002475762000264906020620008838286620007ff565b9401620007ff565b3462000247576200038d620008a236600462000863565b906200134e565b346200024757620002b8620007ce620008c436600462000338565b62001365565b620002646000610103620002c8565b346200024757620008ec3660046200024c565b620002b862000305620008ca565b60006200090d620002649260fc620005d6565b620002c8565b346200024757620002b8620003056200092e36600462000338565b620008fa565b919060408382031262000247576200026490602062000883828662000329565b3462000247576200038d6200096b36600462000934565b90620013ef565b62000264600060fd620002c8565b346200024757620009933660046200024c565b620002b86200030562000972565b3462000247576200038d620009b83660046200080e565b6200142c565b80151562000321565b905035906200028882620009be565b9091606082840312620002475762000264620009f38484620007ff565b93604062000a058260208701620007ff565b9401620009c7565b3462000247576200038d62000a24366004620009d6565b9162001543565b620002646000610102620002c8565b34620002475762000a4d3660046200024c565b620002b86200030562000a2b565b9081610260910312620002475790565b90602082820312620002475781356001600160401b038111620002475762000264920162000a5b565b620002b8620002ab62000aa936600462000a6b565b62002c6f565b62000264916008021c62000258565b9062000264915462000aaf565b62000264600060fe62000abe565b34620002475762000aec3660046200024c565b620002b8620002ab62000acb565b634e487b7160e01b600052603260045260246000fd5b805482101562000b355762000b2c600191600052602060002090565b91020190600090565b62000afa565b61010480548210156200024757620002649162000b589162000b10565b9062000abe565b346200024757620002b8620002ab62000b7a3660046200080e565b62000b3b565b62000264600060fb620002c8565b34620002475762000ba13660046200024c565b620002b86200030562000b80565b3462000247576200038d62000bc636600462000338565b62002d19565b62000264916008021c5b60ff1690565b9062000264915462000bcc565b62000264600061010162000bdc565b34620002475762000c0b3660046200024c565b620002b862000c1962000be9565b60405191829182901515815260200190565b3462000247576200038d62000c423660046200080e565b620030f4565b9062000c586200052183620004e1565b918252565b62000c69600562000c48565b640332e302e360dc1b602082015290565b6200026462000c5d565b6200026462000c7a565b6200026462000c84565b34620002475762000cab3660046200024c565b620002b8620007ce62000c8e565b620002647f0000000000000000000000000000000000000000000000000000000000000000620003d5565b620002649081565b62000264905462000ce4565b6200026462000264620002649290565b62000d1f62000d198260fc620005d6565b62000cec565b9062000d2c600062000cf8565b821190811562000d4a575b506200026457506200026460fb62000cec565b905062000d58600062000cf8565b8214908162000d6a575b503862000d37565b62000d7d915062000d199060fc620005d6565b62000d9162000d8d600062000cf8565b9190565b14153862000d62565b620002889062000da962003151565b62000e44565b6200025862000264620002649290565b620002649062000daf565b1562000dd257565b60405162461bcd60e51b8152602060048201526011602482015270125b9d985b1a59081c9958da5c1a595b9d607a1b6044820152606490fd5b0390fd5b906001600160a01b03905b9181191691161790565b9062000e386200026462000e4092620003d5565b825462000e0f565b9055565b62000e9360008051602062003e658339815191529162000e8662000e7362000e6d600062000dbf565b62000258565b62000e7e8362000258565b141562000dca565b620002ab8160fe62000e24565b0390a1565b620002889062000d9a565b1562000eab57565b60405162461bcd60e51b815260206004820152602c602482015260008051602062003ec583398151915260448201526b19195b1959d85d1958d85b1b60a21b6064820152608490fd5b1562000efc57565b60405162461bcd60e51b815260206004820152602c602482015260008051602062003ec583398151915260448201526b6163746976652070726f787960a01b6064820152608490fd5b620002889062000fbd62000f5930620003d5565b62000f9d7f00000000000000000000000000000000000000000000000000000000000000009162000f9562000f8e8462000258565b9162000258565b141562000ea3565b62000fb662000f8e62000faf62003175565b9262000258565b1462000ef4565b62000ff1565b369037565b906200028862000fe362000fdc8462000c48565b93620004e1565b601f19016020840162000fc3565b6000620002889162001003816200319b565b62001018620010128362000cf8565b62000fc8565b9062003256565b620002889062000f45565b9062000288916200103f62000f5930620003d5565b620002889160019162001052816200319b565b62003256565b9062000288916200102a565b156200106c57565b60405162461bcd60e51b815260206004820152603860248201527f555550535570677261646561626c653a206d757374206e6f742062652063616c6044820152771b1959081d1a1c9bdd59da0819195b1959d85d1958d85b1b60421b6064820152608490fd5b62000264906200111c620010e630620003d5565b6200111562000f8e7f000000000000000000000000000000000000000000000000000000000000000062000258565b1462001064565b6200114d565b620002647f360894a13ba1a3210667c828492db98dca3e2076cc3735a920a3ca505d382bbc62000cf8565b506200026462001122565b620002646000620010d2565b6200116e62003151565b620002886200028862001182600062000dbf565b62003382565b6200028862001164565b6200028890620011a162003151565b62001214565b15620011af57565b60405162461bcd60e51b81526020600482015260166024820152754665652063616e6e6f7420657863656564203130302560501b6044820152606490fd5b906000199062000e1a565b906200120c6200026462000e409262000cf8565b8254620011ed565b62000e9360008051602062003e8583398151915291620012436200123a61271062000cf8565b821115620011a7565b620003058160fd620011f8565b620002889062001192565b620002649062000258565b6200026490546200125b565b62000264603362001266565b9062000288916200128e62003151565b620012ee565b156200129c57565b60405162461bcd60e51b8152602060048201526012602482015271496e76616c69642070657263656e7461676560701b6044820152606490fd5b908152604081019291620002889160200152565b0152565b9060008051602062003e45833981519152916200131a6200131161271062000cf8565b82111562001294565b6200132881610102620011f8565b6200133682610103620011f8565b62000e936200134460405190565b92839283620012d6565b9062000288916200127e565b6200026490620006e2565b62001381620002649162001377606090565b50610105620005d6565b6200135a565b9062000288916200139762003151565b620013ea620013df7f035250ff587e06567c2fa9d4b3191805958a937530b0e88cfce4c9c4dcdef1b392620013d985620013d38360fc620005d6565b620011f8565b620003d5565b926200030960405190565b0390a2565b90620002889162001387565b62000288906200140a62003151565b62000e9360008051602062003ea583398151915291620003058160fb620011f8565b6200028890620013fb565b906200028892916200144862003151565b620014e3565b156200145657565b60405162461bcd60e51b8152602060048201526019602482015278436c696666206c6f6e676572207468616e2076657374696e6760381b6044820152606490fd5b9060ff9062000e1a565b90620014b46200026462000e4092151590565b825462001497565b90815260608101939262000288929091604091620014db906020830152565b019015159052565b62000e9360008051602062003ee5833981519152936200150d620015048490565b8511156200144e565b6200151a8360ff620011f8565b6200152884610100620011f8565b6200153681610101620014a1565b60405193849384620014bc565b9062000288929162001437565b9062001566916200156062003435565b62002096565b906200028862003471565b604080825260179082015276436865636b696e67206465706c6f796d656e742066656560481b606082015291906200028890602060808501940152565b15620015b657565b60405162461bcd60e51b815260206004820152601b60248201527a496e73756666696369656e74206465706c6f796d656e742066656560281b6044820152606490fd5b356200026481620007f8565b604080825260119082015270436865636b696e6720737570706c69657360781b606082015291906200028890602060808501940152565b156200164457565b60405162461bcd60e51b8152602060048201526014602482015273496e697469616c203e206d617820737570706c7960601b6044820152606490fd5b604080825260179082015276086d0cac6d6d2dcce40e8ded6cadce640e0cae4408aa89604b1b606082015291906200028890602060808501940152565b15620016c557565b60405162461bcd60e51b8152602060048201526016602482015275092dcecc2d8d2c840e8ded6cadce640e0cae4408aa8960531b6044820152606490fd5b6080808252601a908201527956616c69646174696e672074696d6520706172616d657465727360301b60a082015290939262000288929091606091620012ea906200175360c08401986020850152565b6040830152565b156200176257565b60405162461bcd60e51b815260206004820152601960248201527853746172742074696d65206d7573742062652066757475726560381b6044820152606490fd5b15620017ab57565b60405162461bcd60e51b815260206004820152601c60248201527b115b99081d1a5b59481b5d5cdd0818994818599d195c881cdd185c9d60221b6044820152606490fd5b6040808252601d908201527f436865636b696e67206c69717569646974792070657263656e74616765000000606082015291906200028890602060808501940152565b156200183a57565b60405162461bcd60e51b8152602060048201526013602482015272496e76616c6964206c6971756964697479202560681b6044820152606490fd5b634e487b7160e01b600052601160045260246000fd5b919062001897565b9290565b8201809211620018a357565b62001875565b6040808252601c908201527b21b0b631bab630ba34b733903a37ba30b61030b63637b1b0ba34b7b760211b606082015291906200028890602060808501940152565b6040808252600c908201526b506c6174666f726d2066656560a01b606082015291906200028890602060808501940152565b60408082526007908201526650726573616c6560c81b606082015291906200028890602060808501940152565b6040808252600990820152684c697175696469747960b81b606082015291906200028890602060808501940152565b6040808252600490820152635465616d60e01b606082015291906200028890602060808501940152565b6040808252600990820152684d61726b6574696e6760b81b606082015291906200028890602060808501940152565b6040808252600b908201526a11195d995b1bdc1b595b9d60aa1b606082015291906200028890602060808501940152565b1562001a0b57565b60405162461bcd60e51b815260206004820152601b60248201527a416c6c6f636174696f6e73206d75737420746f74616c203130302560281b6044820152606490fd5b81810292918115918404141715620018a357565b634e487b7160e01b600052601260045260246000fd5b811562001a83570490565b62001a62565b620012ea620002889462001aef60809498979562001ae862001ae060a087018781036000890152601d81527f56616c69646174696e672070726573616c6520706172616d6574657273000000602082015260400190565b9a6020870152565b6040850152565b6060830152565b1562001afe57565b60405162461bcd60e51b815260206004820152601360248201527250726573616c652063617020746f6f206c6f7760681b6044820152606490fd5b604080825260139082015272506c6174666f726d2066656520746f6b656e7360681b606082015291906200028890602060808501940152565b903590601e1936829003018212156200024757018035906001600160401b0382116200024757602001913682900383136200024757565b35620002648162000316565b356200026481620009be565b620002649062000bd6565b62000264905462001bc1565b62000264610300620004ca565b620002649136916200050e565b90620002729062000258565b9062000264906102e08062001c3b62001c2861030085016000880151868203600088015262000761565b6020870151858203602087015262000761565b9462001c4c60408201516040860152565b62001c5c60608201516060860152565b62001c706080820151608086019062000267565b60a08181015115159085015260c08181015115159085015262001c9860e082015160e0860152565b62001caa610100820151610100860152565b62001cbc610120820151610120860152565b62001cce610140820151610140860152565b62001ce0610160820151610160860152565b62001cf2610180820151610180860152565b62001d046101a08201516101a0860152565b62001d166101c08201516101c0860152565b62001d2c6101e08201516101e086019062000267565b62001d3e610200820151610200860152565b6102208181015115159085015262001d5d610240820151610240860152565b62001d6f610260820151610260860152565b62001d81610280820151610280860152565b62001d936102a08201516102a0860152565b62001da56102c08201516102c0860152565b0151910152565b6020808252620002649291019062001bfe565b91620002649262001dd96040820193600083019062000267565b602081840391015262000761565b6040513d6000823e3d90fd5b916001600160a01b0360089290920291821b911b62000e1a565b919062001e226200026462000e4093620003d5565b90835462001df3565b80549190600160401b831015620004c4578262001e52916001620002889501815562000b10565b9062001e0d565b9160001960089290920291821b911b62000e1a565b919062001e836200026462000e409362000cf8565b90835462001e59565b620002889160009162001e6e565b81811062001ea6575050565b8062001eb6600060019362001e8c565b0162001e9a565b9190601f811162001ecd57505050565b62001ee16200028893600052602060002090565b906020601f84018190048301931062001f05575b6020601f90910104019062001e9a565b909150819062001ef5565b9060001960089091021c191690565b8162001f2b9162001f10565b906002021790565b9062001f3d815190565b906001600160401b038211620004c45762001f658262001f5e85546200061c565b8562001ebd565b602090601f831160011462001f985762000e4092916000918362001f8c575b505062001f1f565b01519050388062001f84565b601f1983169162001fae85600052602060002090565b9260005b81811062001ff25750916002939185600196941062001fd5575b50505002019055565b62001fe7910151601f84169062001f10565b905538808062001fcc565b9193602060018192878701518155019501920162001fb2565b90620002889162001f33565b919062000790816200203181620004fe9560209181520190565b809562000502565b93956200208862002080620012ea9560a0989c9b99620020716200208f96620002889d9860c08c01918c600081850391015262002017565b9189830360208b015262002017565b9a6040870152565b6060850152565b6080830152565b5061020052620020a63362000d08565b620020f7620020ee7f845ca1d214077eb31d1b8e7d499b0b0b57c303a5c5b9e169e3499d300d3e91929283620020db60405190565b80620020e8848262001571565b0390a190565b341015620015ae565b806200211a6200210d60406102005101620015f9565b6040519182918262001605565b0390a1620021536200213260406102005101620015f9565b6200214b62000d8d6200026460606102005101620015f9565b11156200163c565b80620021766200216960e06102005101620015f9565b6040519182918262001680565b0390a1620021a56200218e60e06102005101620015f9565b6200219e62000d8d600062000cf8565b11620016bd565b7f17b8909dcd543b78e764cdf5a6c5e2433ee6de6498b5b277a28eb1e04195fb6d620021d86101606102005101620015f9565b620021ea6101806102005101620015f9565b9062002204620021f960405190565b928392428462001703565b0390a1620022256200221d6101606102005101620015f9565b42106200175a565b6200225c6200223b6101806102005101620015f9565b6200225562000d8d620002646101606102005101620015f9565b11620017a3565b8062002280620022736101c06102005101620015f9565b60405191829182620017ef565b0390a162002582620022996101c06102005101620015f9565b620022b861271091620022b062000d8d8462000cf8565b111562001832565b6200246e6200233b620023296200231762002307620022f5620022dc60fd62000cec565b620022ee6101a06102005101620015f9565b906200188b565b620022ee6101c06102005101620015f9565b620022ee610200805101620015f9565b620022ee6102206102005101620015f9565b620022ee6102406102005101620015f9565b7f93b6f88656850ef11da78796806c3b11e9ff3a0f037e0fac9e49a6111dd85a25806200236760405190565b80620023748582620018a9565b0390a180620023956200238860fd62000cec565b60405191829182620018eb565b0390a180620023bc620023af6101a06102005101620015f9565b604051918291826200191d565b0390a180620023e3620023d66101c06102005101620015f9565b604051918291826200194a565b0390a18062002408620023fb610200805101620015f9565b6040519182918262001979565b0390a1806200242f620024226102206102005101620015f9565b60405191829182620019a3565b0390a162002455620024486102406102005101620015f9565b60405191829182620019d2565b0390a16200246762000d8d8462000cf8565b1462001a03565b62002556620024b6620024a46200248b60406102005101620015f9565b6200249d6101a06102005101620015f9565b9062001a4e565b620024af8462000cf8565b9062001a78565b7fd76bfb75ff00c93b613b0c6bba32b0deadca4aa295ce325fdba1312379a76827620024f3620024ec60e06102005101620015f9565b8362001a78565b916200250560e06102005101620015f9565b90620025316200251c6101406102005101620015f9565b856200252760405190565b9485948562001a89565b0390a16200254e62000d8d620018936101406102005101620015f9565b101562001af6565b620024af6200257b6200256f60406102005101620015f9565b6200249d60fd62000cec565b9162000cf8565b6101c05260405180620025996101c0518262001b39565b0390a17ff506dd1f37a395cd46449e11ae828cb6812f8b31ad36afbeb191da78d153a574620025c760405190565b6040808252600e908201526d4372656174696e672070726f787960901b6060820152608060208201819052601d908201527f507265706172696e6720696e697469616c697a6174696f6e206461746100000060a082015260c090a16102005162002632908062001b72565b90610100526200264c602061020051016102005162001b72565b61014052610240526200266560406102005101620015f9565b906200267760606102005101620015f9565b90620026896080610200510162001ba9565b9262002696600062000dbf565b93620026a662000f8e8662000258565b0362002c575733925b620026c060a0610200510162001bb5565b620026d160c0610200510162001bb5565b92620026e360e06102005101620015f9565b95620026f66101006102005101620015f9565b93620027096101206102005101620015f9565b906200271c6101406102005101620015f9565b916200272f6101606102005101620015f9565b94620027426101806102005101620015f9565b97620027556101c06102005101620015f9565b6200276562000d8d600062000cf8565b0362002bfe576200277861010262000cec565b9a620029479c620029026200293d9c620028f5620029339c620028e9620029299c620028dd6200291f9c620028d4620029159c620028ac620028a66200290b9d5b6101e06102005101620027cc81620015f9565b620027dc62000d8d600062000cf8565b60006080520362002bea5750620027f561010362000cec565b6080525b6200280560fe62001266565b60c0526200281561010162001bcc565b610220526200282560ff62000cec565b6101e0526200283661010062000cec565b6101a0526200284a610200805101620015f9565b61018052620028606102206102005101620015f9565b61016052620028766102406102005101620015f9565b610120526200288c6101a06102005101620015f9565b60e0526200289962001bd8565b60a0526101005162001be5565b60a05152565b620028cb620028c2610140516102405162001be5565b602060a0510152565b604060a0510152565b606060a0510152565b608060a0510162001bf2565b60a08051019015159052565b60c060a051019015159052565b60e060a0510152565b61010060a0510152565b61012060a0510152565b61014060a0510152565b61016060a0510152565b61018060a0510152565b6101a060a0510152565b620029586080516101c060a0510152565b6200296c60c0516101e060a0510162001bf2565b6200297e6101c05161020060a0510152565b620029946102205161022060a051019015159052565b620029a66101e05161024060a0510152565b620029b86101a05161026060a0510152565b620029ca6101805161028060a0510152565b620029dc610160516102a060a0510152565b620029ee610120516102c060a0510152565b620029ff60e0516102e060a0510152565b60405162002a368162002a266004602083016356f3e23760e01b81520160a0519062001dac565b60208201810382520382620004a2565b62002a617f0000000000000000000000000000000000000000000000000000000000000000620003d5565b604051916105e98301906001600160401b03821184831017620004c457839262002a94926105e96200385c863962001dbf565b03906000f0801562002be45762002aab90620003d5565b9062002aba8261010462001e2b565b62002adc62002ac862000c84565b62002ad684610105620005d6565b6200200b565b610200517fe8efce311593e7a13e7f21c806bf0105a4437c35bf6a1940106e62c5a6f5be849062002b0e908062001b72565b62002b26602061020094939451016102005162001b72565b93909462002b4262000f8e62000faf6080610200510162001ba9565b0362002bc85762002bc233945b62002b616101606102005101620015f9565b62002b736101806102005101620015f9565b62002b8460406102005101620015f9565b9162002b9660606102005101620015f9565b9362002bad62002ba68d620003d5565b9a620003d5565b9a62002bb860405190565b9889988962002039565b0390a390565b62002bc262002bdd6080610200510162001ba9565b9462002b4f565b62001de7565b62002bf590620015f9565b608052620027f9565b610200516101c00162002c1190620015f9565b9a620029479c620029026200293d9c620028f5620029339c620028e9620029299c620028dd6200291f9c620028d4620029159c620028ac620028a66200290b9d620027b9565b62002c686080610200510162001ba9565b92620026af565b6200026490600062001550565b620002889062002c8b62003151565b62002ced565b1562002c9957565b60405162461bcd60e51b815260206004820152602660248201527f4f776e61626c653a206e6577206f776e657220697320746865207a65726f206160448201526564647265737360d01b6064820152608490fd5b62000288906200118262002d0662000e6d600062000dbf565b62002d118362000258565b141562002c91565b620002889062002c7c565b620002649060081c62000bd6565b62000264905462002d24565b62000bd662000264620002649290565b1562002d5657565b60405162461bcd60e51b815260206004820152602e60248201527f496e697469616c697a61626c653a20636f6e747261637420697320616c72656160448201526d191e481a5b9a5d1a585b1a5e995960921b6064820152608490fd5b62000bd662000264620002649260ff1690565b90620014b46200026462000e409262002db2565b9061ff009060081b62000e1a565b9062002dfa6200026462000e4092151590565b825462002dd9565b620002729062002d3e565b60208101929162000288919062002e02565b62002e7762002e3762002e33600062002d32565b1590565b91828062002f2a575b801562002ed8575b62002e539062002d4e565b8262002e6c62002e64600162002d3e565b600062002dc5565b62002ec45762002f4e565b62002e7e57565b62002e8b60008062002de7565b7f7f26b83ff96e1f2b6a682f133852f6798a09c465da95921460cefb384740249862002eb660405190565b8062000e9360018262002e0d565b62002ed26001600062002de7565b62002f4e565b5062002ef262002e3362002eec30620003d5565b6200347f565b801562002e48575062002e5362002f0a600062001bcc565b62002f2162002f1a600162002d3e565b9160ff1690565b14905062002e48565b5062002f37600062001bcc565b62002f4762002f1a600162002d3e565b1062002e40565b6200303460008051602062003ea58339815191529162002f6d62003519565b62002f7762003533565b62002f816200355b565b62002f8e8160fb620011f8565b62002fa762002f9f6101f462000cf8565b60fd620011f8565b62002fbd62002fb562001272565b60fe62000e24565b62002fd762002fcf62ed4e0062000cf8565b60ff620011f8565b62002ff262002fe962278d0062000cf8565b610100620011f8565b620030016001610101620014a1565b6200301b62003012610bb862000cf8565b610102620011f8565b620003056200302b60b462000cf8565b610103620011f8565b0390a160008051602062003e85833981519152620030576200030560fd62000cec565b0390a160008051602062003e658339815191526200307a620002ab60fe62001266565b0390a160008051602062003ee58339815191526200309960ff62000cec565b620030a661010062000cec565b90620030b86200153661010162001bcc565b0390a160008051602062003e45833981519152620030d861010262000cec565b620030e561010362000cec565b9062000e936200134460405190565b620002889062002e1f565b156200310757565b60405162461bcd60e51b81528062000e0b600482016020808252818101527f4f776e61626c653a2063616c6c6572206973206e6f7420746865206f776e6572604082015260600190565b620002886200315f62001272565b6200316e62000f8e3362000258565b14620030ff565b620002646000620031896200026462001122565b0162001266565b506200028862003151565b620002889062003190565b620002647f4910fdfa16fed3260ed0e7147f7cc6da11a60208b5b9406d12a635614ffd914362000cf8565b905051906200028882620007f8565b9060208282031262000247576200026491620031d1565b15620031ff57565b60405162461bcd60e51b815260206004820152602960248201527f45524331393637557067726164653a20756e737570706f727465642070726f786044820152681a58589b195555525160ba1b6064820152608490fd5b91906200327360006200326c62000264620031a6565b0162001bcc565b1562003286575050620002889062003611565b62003295620013d984620003d5565b926020620032a260405190565b6352d1902d60e01b815294859060049082905afa600094816200334a575b50620033225760405162461bcd60e51b815260206004820152602e60248201527f45524331393637557067726164653a206e657720696d706c656d656e7461746960448201526d6f6e206973206e6f74205555505360901b6064820152608490fd5b6200334462000288946200333d62000d8d6200026462001122565b14620031f7565b62003565565b6200337291955060203d6020116200337a575b620033698183620004a2565b810190620031e0565b9338620032c0565b503d6200335d565b620033aa620033a362003396603362001266565b620013d984603362000e24565b91620003d5565b907f8be0079c531659141344cd1fd0a4f28419497f9722a3daafe3b4186f6b6457e0620033d660405190565b600090a3565b62000264600262000cf8565b15620033f057565b60405162461bcd60e51b815260206004820152601f60248201527f5265656e7472616e637947756172643a207265656e7472616e742063616c6c006044820152606490fd5b620002886200344560c962000cec565b6200345d62003453620033dc565b91821415620033e8565b60c9620011f8565b62000264600162000cf8565b620002886200345d62003465565b3b6200349062000d8d600062000cf8565b1190565b156200349c57565b60405162461bcd60e51b815260206004820152602b60248201527f496e697469616c697a61626c653a20636f6e7472616374206973206e6f74206960448201526a6e697469616c697a696e6760a81b6064820152608490fd5b6200350b62003505600062002d32565b62003494565b62000288620002886200365e565b62000288620034f5565b6200028862003505600062002d32565b6200028862003523565b6200354d62003505600062002d32565b620002886200028862003682565b620002886200353d565b9162003571836200368c565b81516200358362000d8d600062000cf8565b11908115620035a5575b5062003597575050565b620035a2916200371e565b50565b9050386200358d565b15620035b657565b60405162461bcd60e51b815260206004820152602d60248201527f455243313936373a206e657720696d706c656d656e746174696f6e206973206e60448201526c1bdd08184818dbdb9d1c9858dd609a1b6064820152608490fd5b62000288906200362b62003625826200347f565b620035ae565b60006200363b6200026462001122565b0162000e24565b6200365262003505600062002d32565b62000288803362003382565b6200028862003642565b6200367862003505600062002d32565b6200028862003471565b6200028862003668565b6200369c90620013d98162003611565b7fbc7cd75a20ee27fd9adebab32041f755214dbc6bffa90cc0225b39da2e5c2d3b620036c760405190565b8080620013ea565b620036db602762000c48565b7f416464726573733a206c6f772d6c6576656c2064656c65676174652063616c6c6020820152660819985a5b195960ca1b604082015290565b62000264620036cf565b62000264916200372d62003714565b9162003756565b3d156200375157620037463d62000c48565b903d6000602084013e565b606090565b60008062000264949362003768606090565b50602081519101845af46200377c62003734565b91620037d0565b156200378b57565b60405162461bcd60e51b815260206004820152601d60248201527f416464726573733a2063616c6c20746f206e6f6e2d636f6e74726163740000006044820152606490fd5b919290156200380b57508151620037ec62000d8d600062000cf8565b14620037f6575090565b6200380562000264916200347f565b62003783565b829062003816825190565b6200382662000d8d600062000cf8565b1115620038365750805190602001fd5b62000e0b906200384560405190565b62461bcd60e51b8152918291600483016200079a56fe608060405261001561000f61016a565b9061018c565b60405160c3610526823960c390f35b634e487b7160e01b600052604160045260246000fd5b90601f01601f191681019081106001600160401b0382111761005b57604052565b610024565b9061007461006d60405190565b928361003a565b565b6001600160a01b031690565b90565b61008e81610076565b0361009557565b600080fd5b9050519061007482610085565b6001600160401b03811161005b57602090601f01601f19160190565b0190565b60005b8381106100da5750506000910152565b81810151838201526020016100ca565b909291926100ff6100fa826100a7565b610060565b9381855281830111610095576100749160208501906100c7565b9080601f83011215610095578151610082926020016100ea565b9190916040818403126100955761014a838261009a565b60208201519093906001600160401b038111610095576100829201610119565b6101886105e98038038061017d81610060565b928339810190610133565b9091565b610074916000916101a5565b6100826100826100829290565b916101af8361020e565b81516101c26101be6000610198565b9190565b119081156101e0575b506101d4575050565b6101dd916102ad565b50565b9050386101cb565b61008290610076906001600160a01b031682565b610082906101e8565b610082906101fc565b6102209061021b81610389565b610205565b7fbc7cd75a20ee27fd9adebab32041f755214dbc6bffa90cc0225b39da2e5c2d3b61024a60405190565b600090a2565b9061025d6100fa836100a7565b918252565b61026c6027610250565b7f416464726573733a206c6f772d6c6576656c2064656c65676174652063616c6c6020820152660819985a5b195960ca1b604082015290565b610082610262565b610082916102b96102a5565b916103d0565b6020808252602d908201527f455243313936373a206e657720696d706c656d656e746174696f6e206973206e60408201526c1bdd08184818dbdb9d1c9858dd609a1b606082015260800190565b1561031357565b60405162461bcd60e51b81528061032c600482016102bf565b0390fd5b6100827f360894a13ba1a3210667c828492db98dca3e2076cc3735a920a3ca505d382bbc610198565b9061036961008261038592610205565b82546001600160a01b0319166001600160a01b03919091161790565b9055565b6100749061039e610399826103f8565b61030c565b60006103ab610082610330565b01610359565b3d156103cb576103c03d610250565b903d6000602084013e565b606090565b60008061008294936103e0606090565b50602081519101845af46103f26103b1565b91610461565b3b6104066101be6000610198565b1190565b6020808252601d908201527f416464726573733a2063616c6c20746f206e6f6e2d636f6e7472616374000000604082015260600190565b1561044857565b60405162461bcd60e51b81528061032c6004820161040a565b91929015610493575081516104796101be6000610198565b14610482575090565b61048e610082916103f8565b610441565b826104de565b6104ba6104c36020936100c3936104ae815190565b80835293849260200190565b958691016100c7565b601f01601f191690565b602080825261008292910190610499565b906104e7825190565b6104f46101be6000610198565b11156105035750805190602001fd5b61032c9061051060405190565b62461bcd60e51b8152918291600483016104cd56fe6080604052600a600e565b6017565b6014607c565b90565b60008091368280378136915af43d6000803e156032573d6000f35b3d6000fd5b6014601460149290565b60147f360894a13ba1a3210667c828492db98dca3e2076cc3735a920a3ca505d382bbc6037565b6001600160a01b031690565b601490546068565b60146000608860146041565b01607456fea26469706673582212200ad4ac51629ce32ff36896c3191fd47fcb9b0a0892e6281467f168c50548841064736f6c634300081600338eedee044a0c1105ee117058ab923ddc4cd0f612ebd41812a5b17b81093df4cbba887708e7d4436dd36b62187bdced03e0b9abe66caf392a66dd84386641b20945610d581145924dd7090a5017e5f2b1d6f42213bb2e95707ff86846bbfcb1ca40bd824d588484917db8fa4fc894c1e0feae5a75885290ba7b97521cebf82a8046756e6374696f6e206d7573742062652063616c6c6564207468726f75676820d7ff7274b03e3eff3f5e3f308cc4b76fd937a992c26cb91a80e328dce4ab3338a26469706673582212205f70f06b736694c6a1287404c97b9f43f5fe3a29243a5ee816c111d5cba7c0e764736f6c63430008160033","opcodes":"PUSH1 0xC0 PUSH1 0x40 MSTORE CALLVALUE PUSH3 0x57 JUMPI PUSH3 0x1E PUSH3 0x18 PUSH3 0xFB JUMP JUMPDEST PUSH3 0x14A JUMP JUMPDEST PUSH1 0x40 MLOAD PUSH2 0x3F3A PUSH3 0x179 DUP3 CODECOPY PUSH1 0x80 MLOAD DUP2 DUP2 DUP2 PUSH2 0xF5F ADD MSTORE PUSH2 0x10F0 ADD MSTORE PUSH1 0xA0 MLOAD DUP2 DUP2 DUP2 PUSH2 0x41A ADD MSTORE DUP2 DUP2 PUSH2 0xCBF ADD MSTORE PUSH2 0x2A3C ADD MSTORE PUSH2 0x3F3A SWAP1 RETURN JUMPDEST PUSH1 0x0 DUP1 REVERT JUMPDEST PUSH4 0x4E487B71 PUSH1 0xE0 SHL PUSH1 0x0 MSTORE PUSH1 0x41 PUSH1 0x4 MSTORE PUSH1 0x24 PUSH1 0x0 REVERT JUMPDEST SWAP1 PUSH1 0x1F ADD PUSH1 0x1F NOT AND DUP2 ADD SWAP1 DUP2 LT PUSH1 0x1 PUSH1 0x1 PUSH1 0x40 SHL SUB DUP3 GT OR PUSH3 0x94 JUMPI PUSH1 0x40 MSTORE JUMP JUMPDEST PUSH3 0x5C JUMP JUMPDEST SWAP1 PUSH3 0xB1 PUSH3 0xA9 PUSH1 0x40 MLOAD SWAP1 JUMP JUMPDEST SWAP3 DUP4 PUSH3 0x72 JUMP JUMPDEST JUMP JUMPDEST PUSH1 0x1 PUSH1 0x1 PUSH1 0xA0 SHL SUB AND SWAP1 JUMP JUMPDEST SWAP1 JUMP JUMPDEST PUSH3 0xCD DUP2 PUSH3 0xB3 JUMP JUMPDEST SUB PUSH3 0x57 JUMPI JUMP JUMPDEST SWAP1 POP MLOAD SWAP1 PUSH3 0xB1 DUP3 PUSH3 0xC2 JUMP JUMPDEST SWAP1 PUSH1 0x20 DUP3 DUP3 SUB SLT PUSH3 0x57 JUMPI PUSH3 0xBF SWAP2 PUSH3 0xD5 JUMP JUMPDEST PUSH3 0xBF PUSH3 0x40B3 DUP1 CODESIZE SUB DUP1 PUSH3 0x112 DUP2 PUSH3 0x9A JUMP JUMPDEST SWAP3 DUP4 CODECOPY DUP2 ADD SWAP1 PUSH3 0xE4 JUMP JUMPDEST PUSH3 0xBF SWAP1 PUSH3 0xB3 SWAP1 PUSH1 0x1 PUSH1 0x1 PUSH1 0xA0 SHL SUB AND DUP3 JUMP JUMPDEST PUSH3 0xBF SWAP1 PUSH3 0x11E JUMP JUMPDEST PUSH3 0xBF SWAP1 PUSH3 0x134 JUMP JUMPDEST PUSH3 0x15F SWAP1 PUSH3 0x159 PUSH3 0x164 JUMP JUMPDEST PUSH3 0x13F JUMP JUMPDEST PUSH1 0xA0 MSTORE JUMP JUMPDEST PUSH3 0xB1 PUSH3 0x173 ADDRESS PUSH3 0x13F JUMP JUMPDEST PUSH1 0x80 MSTORE JUMP INVALID PUSH2 0x260 PUSH1 0x40 MSTORE PUSH1 0x4 CALLDATASIZE LT ISZERO PUSH3 0x14 JUMPI PUSH1 0x0 DUP1 REVERT JUMPDEST PUSH1 0x0 CALLDATALOAD PUSH1 0xE0 SHR DUP1 PUSH4 0xD1DED89 EQ PUSH3 0x241 JUMPI DUP1 PUSH4 0x113D478B EQ PUSH3 0x23B JUMPI DUP1 PUSH4 0x1652DA42 EQ PUSH3 0x235 JUMPI DUP1 PUSH4 0x1871E243 EQ PUSH3 0x22F JUMPI DUP1 PUSH4 0x25F1BE1F EQ PUSH3 0x229 JUMPI DUP1 PUSH4 0x2F3A3D5D EQ PUSH3 0x223 JUMPI DUP1 PUSH4 0x3659CFE6 EQ PUSH3 0x21D JUMPI DUP1 PUSH4 0x420FC210 EQ PUSH3 0x217 JUMPI DUP1 PUSH4 0x4F1EF286 EQ PUSH3 0x211 JUMPI DUP1 PUSH4 0x52D1902D EQ PUSH3 0x20B JUMPI DUP1 PUSH4 0x545E7348 EQ PUSH3 0x205 JUMPI DUP1 PUSH4 0x715018A6 EQ PUSH3 0x1FF JUMPI DUP1 PUSH4 0x8333903E EQ PUSH3 0x1F9 JUMPI DUP1 PUSH4 0x8DA5CB5B EQ PUSH3 0x1F3 JUMPI DUP1 PUSH4 0xA2AFDB99 EQ PUSH3 0x1ED JUMPI DUP1 PUSH4 0xA78FAE8E EQ PUSH3 0x1E7 JUMPI DUP1 PUSH4 0xB6193775 EQ PUSH3 0x1E1 JUMPI DUP1 PUSH4 0xC05DDDA8 EQ PUSH3 0x1DB JUMPI DUP1 PUSH4 0xCBF1208F EQ PUSH3 0x1D5 JUMPI DUP1 PUSH4 0xCDD78CFC EQ PUSH3 0x1CF JUMPI DUP1 PUSH4 0xD002462B EQ PUSH3 0x1C9 JUMPI DUP1 PUSH4 0xD5340141 EQ PUSH3 0x1C3 JUMPI DUP1 PUSH4 0xE379DCAF EQ PUSH3 0x1BD JUMPI DUP1 PUSH4 0xE37FCE8C EQ PUSH3 0x1B7 JUMPI DUP1 PUSH4 0xEB13554F EQ PUSH3 0x1B1 JUMPI DUP1 PUSH4 0xEC81AADB EQ PUSH3 0x1AB JUMPI DUP1 PUSH4 0xF2CFF57F EQ PUSH3 0x1A5 JUMPI DUP1 PUSH4 0xF2FDE38B EQ PUSH3 0x19F JUMPI DUP1 PUSH4 0xFADCAC27 EQ PUSH3 0x199 JUMPI DUP1 PUSH4 0xFE4B84DF EQ PUSH3 0x193 JUMPI PUSH4 0xFFA1AD74 SUB PUSH3 0x247 JUMPI PUSH3 0xC98 JUMP JUMPDEST PUSH3 0xC2B JUMP JUMPDEST PUSH3 0xBF8 JUMP JUMPDEST PUSH3 0xBAF JUMP JUMPDEST PUSH3 0xB8E JUMP JUMPDEST PUSH3 0xB5F JUMP JUMPDEST PUSH3 0xAD9 JUMP JUMPDEST PUSH3 0xA94 JUMP JUMPDEST PUSH3 0xA3A JUMP JUMPDEST PUSH3 0xA0D JUMP JUMPDEST PUSH3 0x9A1 JUMP JUMPDEST PUSH3 0x980 JUMP JUMPDEST PUSH3 0x954 JUMP JUMPDEST PUSH3 0x913 JUMP JUMPDEST PUSH3 0x8D9 JUMP JUMPDEST PUSH3 0x8A9 JUMP JUMPDEST PUSH3 0x88B JUMP JUMPDEST PUSH3 0x842 JUMP JUMPDEST PUSH3 0x825 JUMP JUMPDEST PUSH3 0x7DB JUMP JUMPDEST PUSH3 0x7AD JUMP JUMPDEST PUSH3 0x5B5 JUMP JUMPDEST PUSH3 0x59D JUMP JUMPDEST PUSH3 0x46B JUMP JUMPDEST PUSH3 0x440 JUMP JUMPDEST PUSH3 0x3FD JUMP JUMPDEST PUSH3 0x392 JUMP JUMPDEST PUSH3 0x370 JUMP JUMPDEST PUSH3 0x34F JUMP JUMPDEST PUSH3 0x2E4 JUMP JUMPDEST PUSH3 0x28A JUMP JUMPDEST PUSH1 0x0 DUP1 REVERT JUMPDEST PUSH1 0x0 SWAP2 SUB SLT PUSH3 0x247 JUMPI JUMP JUMPDEST PUSH1 0x1 PUSH1 0x1 PUSH1 0xA0 SHL SUB AND SWAP1 JUMP JUMPDEST SWAP1 JUMP JUMPDEST PUSH3 0x272 SWAP1 PUSH3 0x258 JUMP JUMPDEST SWAP1 MSTORE JUMP JUMPDEST PUSH1 0x20 DUP2 ADD SWAP3 SWAP2 PUSH3 0x288 SWAP2 SWAP1 PUSH3 0x267 JUMP JUMPDEST JUMP JUMPDEST CALLVALUE PUSH3 0x247 JUMPI PUSH3 0x29D CALLDATASIZE PUSH1 0x4 PUSH3 0x24C JUMP JUMPDEST PUSH3 0x2B8 PUSH3 0x2AB PUSH3 0xCB9 JUMP JUMPDEST PUSH1 0x40 MLOAD SWAP2 DUP3 SWAP2 DUP3 PUSH3 0x276 JUMP JUMPDEST SUB SWAP1 RETURN JUMPDEST PUSH3 0x264 SWAP2 PUSH1 0x8 MUL SHR DUP2 JUMP JUMPDEST SWAP1 PUSH3 0x264 SWAP2 SLOAD PUSH3 0x2BC JUMP JUMPDEST PUSH3 0x264 PUSH1 0x0 PUSH2 0x100 PUSH3 0x2C8 JUMP JUMPDEST CALLVALUE PUSH3 0x247 JUMPI PUSH3 0x2F7 CALLDATASIZE PUSH1 0x4 PUSH3 0x24C JUMP JUMPDEST PUSH3 0x2B8 PUSH3 0x305 PUSH3 0x2D5 JUMP JUMPDEST PUSH1 0x40 MLOAD JUMPDEST SWAP2 DUP3 SWAP2 DUP3 SWAP1 DUP2 MSTORE PUSH1 0x20 ADD SWAP1 JUMP JUMPDEST PUSH3 0x321 DUP2 PUSH3 0x258 JUMP JUMPDEST SUB PUSH3 0x247 JUMPI JUMP JUMPDEST SWAP1 POP CALLDATALOAD SWAP1 PUSH3 0x288 DUP3 PUSH3 0x316 JUMP JUMPDEST SWAP1 PUSH1 0x20 DUP3 DUP3 SUB SLT PUSH3 0x247 JUMPI PUSH3 0x264 SWAP2 PUSH3 0x329 JUMP JUMPDEST CALLVALUE PUSH3 0x247 JUMPI PUSH3 0x2B8 PUSH3 0x305 PUSH3 0x36A CALLDATASIZE PUSH1 0x4 PUSH3 0x338 JUMP JUMPDEST PUSH3 0xD08 JUMP JUMPDEST CALLVALUE PUSH3 0x247 JUMPI PUSH3 0x38D PUSH3 0x387 CALLDATASIZE PUSH1 0x4 PUSH3 0x338 JUMP JUMPDEST PUSH3 0xE98 JUMP JUMPDEST PUSH1 0x40 MLOAD STOP JUMPDEST CALLVALUE PUSH3 0x247 JUMPI PUSH3 0x3A5 CALLDATASIZE PUSH1 0x4 PUSH3 0x24C JUMP JUMPDEST PUSH3 0x2B8 PUSH3 0x305 PUSH2 0x104 SLOAD SWAP1 JUMP JUMPDEST PUSH3 0x264 SWAP1 PUSH3 0x258 SWAP1 PUSH1 0x1 PUSH1 0x1 PUSH1 0xA0 SHL SUB AND DUP3 JUMP JUMPDEST PUSH3 0x264 SWAP1 PUSH3 0x3B4 JUMP JUMPDEST PUSH3 0x264 SWAP1 PUSH3 0x3CA JUMP JUMPDEST PUSH3 0x272 SWAP1 PUSH3 0x3D5 JUMP JUMPDEST PUSH1 0x20 DUP2 ADD SWAP3 SWAP2 PUSH3 0x288 SWAP2 SWAP1 PUSH3 0x3E0 JUMP JUMPDEST CALLVALUE PUSH3 0x247 JUMPI PUSH3 0x410 CALLDATASIZE PUSH1 0x4 PUSH3 0x24C JUMP JUMPDEST PUSH1 0x40 MLOAD DUP1 PUSH3 0x2B8 PUSH32 0x0 DUP3 PUSH3 0x3EB JUMP JUMPDEST CALLVALUE PUSH3 0x247 JUMPI PUSH3 0x38D PUSH3 0x457 CALLDATASIZE PUSH1 0x4 PUSH3 0x338 JUMP JUMPDEST PUSH3 0x101F JUMP JUMPDEST PUSH3 0x264 PUSH1 0x0 PUSH1 0xFF PUSH3 0x2C8 JUMP JUMPDEST CALLVALUE PUSH3 0x247 JUMPI PUSH3 0x47E CALLDATASIZE PUSH1 0x4 PUSH3 0x24C JUMP JUMPDEST PUSH3 0x2B8 PUSH3 0x305 PUSH3 0x45D JUMP JUMPDEST PUSH4 0x4E487B71 PUSH1 0xE0 SHL PUSH1 0x0 MSTORE PUSH1 0x41 PUSH1 0x4 MSTORE PUSH1 0x24 PUSH1 0x0 REVERT JUMPDEST SWAP1 PUSH1 0x1F ADD PUSH1 0x1F NOT AND DUP2 ADD SWAP1 DUP2 LT PUSH1 0x1 PUSH1 0x1 PUSH1 0x40 SHL SUB DUP3 GT OR PUSH3 0x4C4 JUMPI PUSH1 0x40 MSTORE JUMP JUMPDEST PUSH3 0x48C JUMP JUMPDEST SWAP1 PUSH3 0x288 PUSH3 0x4D9 PUSH1 0x40 MLOAD SWAP1 JUMP JUMPDEST SWAP3 DUP4 PUSH3 0x4A2 JUMP JUMPDEST PUSH1 0x1 PUSH1 0x1 PUSH1 0x40 SHL SUB DUP2 GT PUSH3 0x4C4 JUMPI PUSH1 0x20 SWAP1 PUSH1 0x1F ADD PUSH1 0x1F NOT AND ADD SWAP1 JUMP JUMPDEST ADD SWAP1 JUMP JUMPDEST SWAP1 DUP3 PUSH1 0x0 SWAP4 SWAP3 DUP3 CALLDATACOPY ADD MSTORE JUMP JUMPDEST SWAP1 SWAP3 SWAP2 SWAP3 PUSH3 0x527 PUSH3 0x521 DUP3 PUSH3 0x4E1 JUMP JUMPDEST PUSH3 0x4CA JUMP JUMPDEST SWAP4 DUP2 DUP6 MSTORE DUP2 DUP4 ADD GT PUSH3 0x247 JUMPI PUSH3 0x288 SWAP2 PUSH1 0x20 DUP6 ADD SWAP1 PUSH3 0x502 JUMP JUMPDEST SWAP1 DUP1 PUSH1 0x1F DUP4 ADD SLT ISZERO PUSH3 0x247 JUMPI DUP2 PUSH1 0x20 PUSH3 0x264 SWAP4 CALLDATALOAD SWAP2 ADD PUSH3 0x50E JUMP JUMPDEST SWAP2 SWAP1 SWAP2 PUSH1 0x40 DUP2 DUP5 SUB SLT PUSH3 0x247 JUMPI PUSH3 0x57C DUP4 DUP3 PUSH3 0x329 JUMP JUMPDEST SWAP3 PUSH1 0x20 DUP3 ADD CALLDATALOAD PUSH1 0x1 PUSH1 0x1 PUSH1 0x40 SHL SUB DUP2 GT PUSH3 0x247 JUMPI PUSH3 0x264 SWAP3 ADD PUSH3 0x544 JUMP JUMPDEST PUSH3 0x38D PUSH3 0x5AE CALLDATASIZE PUSH1 0x4 PUSH3 0x562 JUMP JUMPDEST SWAP1 PUSH3 0x1058 JUMP JUMPDEST CALLVALUE PUSH3 0x247 JUMPI PUSH3 0x5C8 CALLDATASIZE PUSH1 0x4 PUSH3 0x24C JUMP JUMPDEST PUSH3 0x2B8 PUSH3 0x305 PUSH3 0x1158 JUMP JUMPDEST SWAP1 PUSH3 0x5E2 SWAP1 PUSH3 0x3D5 JUMP JUMPDEST PUSH1 0x0 MSTORE PUSH1 0x20 MSTORE PUSH1 0x40 PUSH1 0x0 KECCAK256 SWAP1 JUMP JUMPDEST PUSH4 0x4E487B71 PUSH1 0xE0 SHL PUSH1 0x0 MSTORE PUSH1 0x0 PUSH1 0x4 MSTORE PUSH1 0x24 PUSH1 0x0 REVERT JUMPDEST PUSH4 0x4E487B71 PUSH1 0xE0 SHL PUSH1 0x0 MSTORE PUSH1 0x22 PUSH1 0x4 MSTORE PUSH1 0x24 PUSH1 0x0 REVERT JUMPDEST SWAP1 PUSH1 0x1 PUSH1 0x2 DUP4 DIV SWAP3 AND DUP1 ISZERO PUSH3 0x63F JUMPI JUMPDEST PUSH1 0x20 DUP4 LT EQ PUSH3 0x639 JUMPI JUMP JUMPDEST PUSH3 0x606 JUMP JUMPDEST SWAP2 PUSH1 0x7F AND SWAP2 PUSH3 0x62D JUMP JUMPDEST DUP1 SLOAD PUSH1 0x0 SWAP4 SWAP3 SWAP2 PUSH3 0x66A PUSH3 0x660 DUP4 PUSH3 0x61C JUMP JUMPDEST DUP1 DUP6 MSTORE SWAP4 PUSH1 0x20 ADD SWAP1 JUMP JUMPDEST SWAP2 PUSH1 0x1 DUP2 AND SWAP1 DUP2 ISZERO PUSH3 0x6C1 JUMPI POP PUSH1 0x1 EQ PUSH3 0x685 JUMPI POP POP POP JUMP JUMPDEST PUSH3 0x699 SWAP2 SWAP3 SWAP4 SWAP5 POP PUSH1 0x0 MSTORE PUSH1 0x20 PUSH1 0x0 KECCAK256 SWAP1 JUMP JUMPDEST SWAP2 PUSH1 0x0 SWAP3 JUMPDEST DUP2 DUP5 LT PUSH3 0x6AC JUMPI POP POP ADD SWAP1 JUMP JUMPDEST DUP1 SLOAD DUP5 DUP5 ADD MSTORE PUSH1 0x20 SWAP1 SWAP4 ADD SWAP3 PUSH1 0x1 ADD PUSH3 0x69E JUMP JUMPDEST SWAP3 SWAP5 SWAP6 POP POP POP PUSH1 0xFF NOT AND DUP3 MSTORE ISZERO ISZERO PUSH1 0x20 MUL ADD SWAP1 JUMP JUMPDEST SWAP1 PUSH3 0x264 SWAP2 PUSH3 0x64A JUMP JUMPDEST SWAP1 PUSH3 0x288 PUSH3 0x700 SWAP3 PUSH3 0x6F6 PUSH1 0x40 MLOAD SWAP1 JUMP JUMPDEST SWAP4 DUP5 DUP1 SWAP3 PUSH3 0x6D6 JUMP JUMPDEST SUB DUP4 PUSH3 0x4A2 JUMP JUMPDEST SWAP1 PUSH1 0x0 LT PUSH3 0x71C JUMPI PUSH3 0x264 SWAP1 PUSH3 0x6E2 JUMP JUMPDEST PUSH3 0x5F0 JUMP JUMPDEST PUSH1 0x0 PUSH3 0x736 PUSH3 0x264 SWAP3 PUSH2 0x105 PUSH3 0x5D6 JUMP JUMPDEST PUSH3 0x708 JUMP JUMPDEST PUSH1 0x0 JUMPDEST DUP4 DUP2 LT PUSH3 0x750 JUMPI POP POP PUSH1 0x0 SWAP2 ADD MSTORE JUMP JUMPDEST DUP2 DUP2 ADD MLOAD DUP4 DUP3 ADD MSTORE PUSH1 0x20 ADD PUSH3 0x73F JUMP JUMPDEST PUSH3 0x786 PUSH3 0x790 PUSH1 0x20 SWAP4 PUSH3 0x4FE SWAP4 PUSH3 0x77A DUP2 MLOAD SWAP1 JUMP JUMPDEST DUP1 DUP4 MSTORE SWAP4 DUP5 SWAP3 PUSH1 0x20 ADD SWAP1 JUMP JUMPDEST SWAP6 DUP7 SWAP2 ADD PUSH3 0x73C JUMP JUMPDEST PUSH1 0x1F ADD PUSH1 0x1F NOT AND SWAP1 JUMP JUMPDEST PUSH1 0x20 DUP1 DUP3 MSTORE PUSH3 0x264 SWAP3 SWAP2 ADD SWAP1 PUSH3 0x761 JUMP JUMPDEST CALLVALUE PUSH3 0x247 JUMPI PUSH3 0x2B8 PUSH3 0x7CE PUSH3 0x7C8 CALLDATASIZE PUSH1 0x4 PUSH3 0x338 JUMP JUMPDEST PUSH3 0x722 JUMP JUMPDEST PUSH1 0x40 MLOAD SWAP2 DUP3 SWAP2 DUP3 PUSH3 0x79A JUMP JUMPDEST CALLVALUE PUSH3 0x247 JUMPI PUSH3 0x7EE CALLDATASIZE PUSH1 0x4 PUSH3 0x24C JUMP JUMPDEST PUSH3 0x38D PUSH3 0x1188 JUMP JUMPDEST DUP1 PUSH3 0x321 JUMP JUMPDEST SWAP1 POP CALLDATALOAD SWAP1 PUSH3 0x288 DUP3 PUSH3 0x7F8 JUMP JUMPDEST SWAP1 PUSH1 0x20 DUP3 DUP3 SUB SLT PUSH3 0x247 JUMPI PUSH3 0x264 SWAP2 PUSH3 0x7FF JUMP JUMPDEST CALLVALUE PUSH3 0x247 JUMPI PUSH3 0x38D PUSH3 0x83C CALLDATASIZE PUSH1 0x4 PUSH3 0x80E JUMP JUMPDEST PUSH3 0x1250 JUMP JUMPDEST CALLVALUE PUSH3 0x247 JUMPI PUSH3 0x855 CALLDATASIZE PUSH1 0x4 PUSH3 0x24C JUMP JUMPDEST PUSH3 0x2B8 PUSH3 0x2AB PUSH3 0x1272 JUMP JUMPDEST SWAP2 SWAP1 PUSH1 0x40 DUP4 DUP3 SUB SLT PUSH3 0x247 JUMPI PUSH3 0x264 SWAP1 PUSH1 0x20 PUSH3 0x883 DUP3 DUP7 PUSH3 0x7FF JUMP JUMPDEST SWAP5 ADD PUSH3 0x7FF JUMP JUMPDEST CALLVALUE PUSH3 0x247 JUMPI PUSH3 0x38D PUSH3 0x8A2 CALLDATASIZE PUSH1 0x4 PUSH3 0x863 JUMP JUMPDEST SWAP1 PUSH3 0x134E JUMP JUMPDEST CALLVALUE PUSH3 0x247 JUMPI PUSH3 0x2B8 PUSH3 0x7CE PUSH3 0x8C4 CALLDATASIZE PUSH1 0x4 PUSH3 0x338 JUMP JUMPDEST PUSH3 0x1365 JUMP JUMPDEST PUSH3 0x264 PUSH1 0x0 PUSH2 0x103 PUSH3 0x2C8 JUMP JUMPDEST CALLVALUE PUSH3 0x247 JUMPI PUSH3 0x8EC CALLDATASIZE PUSH1 0x4 PUSH3 0x24C JUMP JUMPDEST PUSH3 0x2B8 PUSH3 0x305 PUSH3 0x8CA JUMP JUMPDEST PUSH1 0x0 PUSH3 0x90D PUSH3 0x264 SWAP3 PUSH1 0xFC PUSH3 0x5D6 JUMP JUMPDEST PUSH3 0x2C8 JUMP JUMPDEST CALLVALUE PUSH3 0x247 JUMPI PUSH3 0x2B8 PUSH3 0x305 PUSH3 0x92E CALLDATASIZE PUSH1 0x4 PUSH3 0x338 JUMP JUMPDEST PUSH3 0x8FA JUMP JUMPDEST SWAP2 SWAP1 PUSH1 0x40 DUP4 DUP3 SUB SLT PUSH3 0x247 JUMPI PUSH3 0x264 SWAP1 PUSH1 0x20 PUSH3 0x883 DUP3 DUP7 PUSH3 0x329 JUMP JUMPDEST CALLVALUE PUSH3 0x247 JUMPI PUSH3 0x38D PUSH3 0x96B CALLDATASIZE PUSH1 0x4 PUSH3 0x934 JUMP JUMPDEST SWAP1 PUSH3 0x13EF JUMP JUMPDEST PUSH3 0x264 PUSH1 0x0 PUSH1 0xFD PUSH3 0x2C8 JUMP JUMPDEST CALLVALUE PUSH3 0x247 JUMPI PUSH3 0x993 CALLDATASIZE PUSH1 0x4 PUSH3 0x24C JUMP JUMPDEST PUSH3 0x2B8 PUSH3 0x305 PUSH3 0x972 JUMP JUMPDEST CALLVALUE PUSH3 0x247 JUMPI PUSH3 0x38D PUSH3 0x9B8 CALLDATASIZE PUSH1 0x4 PUSH3 0x80E JUMP JUMPDEST PUSH3 0x142C JUMP JUMPDEST DUP1 ISZERO ISZERO PUSH3 0x321 JUMP JUMPDEST SWAP1 POP CALLDATALOAD SWAP1 PUSH3 0x288 DUP3 PUSH3 0x9BE JUMP JUMPDEST SWAP1 SWAP2 PUSH1 0x60 DUP3 DUP5 SUB SLT PUSH3 0x247 JUMPI PUSH3 0x264 PUSH3 0x9F3 DUP5 DUP5 PUSH3 0x7FF JUMP JUMPDEST SWAP4 PUSH1 0x40 PUSH3 0xA05 DUP3 PUSH1 0x20 DUP8 ADD PUSH3 0x7FF JUMP JUMPDEST SWAP5 ADD PUSH3 0x9C7 JUMP JUMPDEST CALLVALUE PUSH3 0x247 JUMPI PUSH3 0x38D PUSH3 0xA24 CALLDATASIZE PUSH1 0x4 PUSH3 0x9D6 JUMP JUMPDEST SWAP2 PUSH3 0x1543 JUMP JUMPDEST PUSH3 0x264 PUSH1 0x0 PUSH2 0x102 PUSH3 0x2C8 JUMP JUMPDEST CALLVALUE PUSH3 0x247 JUMPI PUSH3 0xA4D CALLDATASIZE PUSH1 0x4 PUSH3 0x24C JUMP JUMPDEST PUSH3 0x2B8 PUSH3 0x305 PUSH3 0xA2B JUMP JUMPDEST SWAP1 DUP2 PUSH2 0x260 SWAP2 SUB SLT PUSH3 0x247 JUMPI SWAP1 JUMP JUMPDEST SWAP1 PUSH1 0x20 DUP3 DUP3 SUB SLT PUSH3 0x247 JUMPI DUP2 CALLDATALOAD PUSH1 0x1 PUSH1 0x1 PUSH1 0x40 SHL SUB DUP2 GT PUSH3 0x247 JUMPI PUSH3 0x264 SWAP3 ADD PUSH3 0xA5B JUMP JUMPDEST PUSH3 0x2B8 PUSH3 0x2AB PUSH3 0xAA9 CALLDATASIZE PUSH1 0x4 PUSH3 0xA6B JUMP JUMPDEST PUSH3 0x2C6F JUMP JUMPDEST PUSH3 0x264 SWAP2 PUSH1 0x8 MUL SHR PUSH3 0x258 JUMP JUMPDEST SWAP1 PUSH3 0x264 SWAP2 SLOAD PUSH3 0xAAF JUMP JUMPDEST PUSH3 0x264 PUSH1 0x0 PUSH1 0xFE PUSH3 0xABE JUMP JUMPDEST CALLVALUE PUSH3 0x247 JUMPI PUSH3 0xAEC CALLDATASIZE PUSH1 0x4 PUSH3 0x24C JUMP JUMPDEST PUSH3 0x2B8 PUSH3 0x2AB PUSH3 0xACB JUMP JUMPDEST PUSH4 0x4E487B71 PUSH1 0xE0 SHL PUSH1 0x0 MSTORE PUSH1 0x32 PUSH1 0x4 MSTORE PUSH1 0x24 PUSH1 0x0 REVERT JUMPDEST DUP1 SLOAD DUP3 LT ISZERO PUSH3 0xB35 JUMPI PUSH3 0xB2C PUSH1 0x1 SWAP2 PUSH1 0x0 MSTORE PUSH1 0x20 PUSH1 0x0 KECCAK256 SWAP1 JUMP JUMPDEST SWAP2 MUL ADD SWAP1 PUSH1 0x0 SWAP1 JUMP JUMPDEST PUSH3 0xAFA JUMP JUMPDEST PUSH2 0x104 DUP1 SLOAD DUP3 LT ISZERO PUSH3 0x247 JUMPI PUSH3 0x264 SWAP2 PUSH3 0xB58 SWAP2 PUSH3 0xB10 JUMP JUMPDEST SWAP1 PUSH3 0xABE JUMP JUMPDEST CALLVALUE PUSH3 0x247 JUMPI PUSH3 0x2B8 PUSH3 0x2AB PUSH3 0xB7A CALLDATASIZE PUSH1 0x4 PUSH3 0x80E JUMP JUMPDEST PUSH3 0xB3B JUMP JUMPDEST PUSH3 0x264 PUSH1 0x0 PUSH1 0xFB PUSH3 0x2C8 JUMP JUMPDEST CALLVALUE PUSH3 0x247 JUMPI PUSH3 0xBA1 CALLDATASIZE PUSH1 0x4 PUSH3 0x24C JUMP JUMPDEST PUSH3 0x2B8 PUSH3 0x305 PUSH3 0xB80 JUMP JUMPDEST CALLVALUE PUSH3 0x247 JUMPI PUSH3 0x38D PUSH3 0xBC6 CALLDATASIZE PUSH1 0x4 PUSH3 0x338 JUMP JUMPDEST PUSH3 0x2D19 JUMP JUMPDEST PUSH3 0x264 SWAP2 PUSH1 0x8 MUL SHR JUMPDEST PUSH1 0xFF AND SWAP1 JUMP JUMPDEST SWAP1 PUSH3 0x264 SWAP2 SLOAD PUSH3 0xBCC JUMP JUMPDEST PUSH3 0x264 PUSH1 0x0 PUSH2 0x101 PUSH3 0xBDC JUMP JUMPDEST CALLVALUE PUSH3 0x247 JUMPI PUSH3 0xC0B CALLDATASIZE PUSH1 0x4 PUSH3 0x24C JUMP JUMPDEST PUSH3 0x2B8 PUSH3 0xC19 PUSH3 0xBE9 JUMP JUMPDEST PUSH1 0x40 MLOAD SWAP2 DUP3 SWAP2 DUP3 SWAP1 ISZERO ISZERO DUP2 MSTORE PUSH1 0x20 ADD SWAP1 JUMP JUMPDEST CALLVALUE PUSH3 0x247 JUMPI PUSH3 0x38D PUSH3 0xC42 CALLDATASIZE PUSH1 0x4 PUSH3 0x80E JUMP JUMPDEST PUSH3 0x30F4 JUMP JUMPDEST SWAP1 PUSH3 0xC58 PUSH3 0x521 DUP4 PUSH3 0x4E1 JUMP JUMPDEST SWAP2 DUP3 MSTORE JUMP JUMPDEST PUSH3 0xC69 PUSH1 0x5 PUSH3 0xC48 JUMP JUMPDEST PUSH5 0x332E302E3 PUSH1 0xDC SHL PUSH1 0x20 DUP3 ADD MSTORE SWAP1 JUMP JUMPDEST PUSH3 0x264 PUSH3 0xC5D JUMP JUMPDEST PUSH3 0x264 PUSH3 0xC7A JUMP JUMPDEST PUSH3 0x264 PUSH3 0xC84 JUMP JUMPDEST CALLVALUE PUSH3 0x247 JUMPI PUSH3 0xCAB CALLDATASIZE PUSH1 0x4 PUSH3 0x24C JUMP JUMPDEST PUSH3 0x2B8 PUSH3 0x7CE PUSH3 0xC8E JUMP JUMPDEST PUSH3 0x264 PUSH32 0x0 PUSH3 0x3D5 JUMP JUMPDEST PUSH3 0x264 SWAP1 DUP2 JUMP JUMPDEST PUSH3 0x264 SWAP1 SLOAD PUSH3 0xCE4 JUMP JUMPDEST PUSH3 0x264 PUSH3 0x264 PUSH3 0x264 SWAP3 SWAP1 JUMP JUMPDEST PUSH3 0xD1F PUSH3 0xD19 DUP3 PUSH1 0xFC PUSH3 0x5D6 JUMP JUMPDEST PUSH3 0xCEC JUMP JUMPDEST SWAP1 PUSH3 0xD2C PUSH1 0x0 PUSH3 0xCF8 JUMP JUMPDEST DUP3 GT SWAP1 DUP2 ISZERO PUSH3 0xD4A JUMPI JUMPDEST POP PUSH3 0x264 JUMPI POP PUSH3 0x264 PUSH1 0xFB PUSH3 0xCEC JUMP JUMPDEST SWAP1 POP PUSH3 0xD58 PUSH1 0x0 PUSH3 0xCF8 JUMP JUMPDEST DUP3 EQ SWAP1 DUP2 PUSH3 0xD6A JUMPI JUMPDEST POP CODESIZE PUSH3 0xD37 JUMP JUMPDEST PUSH3 0xD7D SWAP2 POP PUSH3 0xD19 SWAP1 PUSH1 0xFC PUSH3 0x5D6 JUMP JUMPDEST PUSH3 0xD91 PUSH3 0xD8D PUSH1 0x0 PUSH3 0xCF8 JUMP JUMPDEST SWAP2 SWAP1 JUMP JUMPDEST EQ ISZERO CODESIZE PUSH3 0xD62 JUMP JUMPDEST PUSH3 0x288 SWAP1 PUSH3 0xDA9 PUSH3 0x3151 JUMP JUMPDEST PUSH3 0xE44 JUMP JUMPDEST PUSH3 0x258 PUSH3 0x264 PUSH3 0x264 SWAP3 SWAP1 JUMP JUMPDEST PUSH3 0x264 SWAP1 PUSH3 0xDAF JUMP JUMPDEST ISZERO PUSH3 0xDD2 JUMPI JUMP JUMPDEST PUSH1 0x40 MLOAD PUSH3 0x461BCD PUSH1 0xE5 SHL DUP2 MSTORE PUSH1 0x20 PUSH1 0x4 DUP3 ADD MSTORE PUSH1 0x11 PUSH1 0x24 DUP3 ADD MSTORE PUSH17 0x125B9D985B1A59081C9958DA5C1A595B9D PUSH1 0x7A SHL PUSH1 0x44 DUP3 ADD MSTORE PUSH1 0x64 SWAP1 REVERT JUMPDEST SUB SWAP1 REVERT JUMPDEST SWAP1 PUSH1 0x1 PUSH1 0x1 PUSH1 0xA0 SHL SUB SWAP1 JUMPDEST SWAP2 DUP2 NOT AND SWAP2 AND OR SWAP1 JUMP JUMPDEST SWAP1 PUSH3 0xE38 PUSH3 0x264 PUSH3 0xE40 SWAP3 PUSH3 0x3D5 JUMP JUMPDEST DUP3 SLOAD PUSH3 0xE0F JUMP JUMPDEST SWAP1 SSTORE JUMP JUMPDEST PUSH3 0xE93 PUSH1 0x0 DUP1 MLOAD PUSH1 0x20 PUSH3 0x3E65 DUP4 CODECOPY DUP2 MLOAD SWAP2 MSTORE SWAP2 PUSH3 0xE86 PUSH3 0xE73 PUSH3 0xE6D PUSH1 0x0 PUSH3 0xDBF JUMP JUMPDEST PUSH3 0x258 JUMP JUMPDEST PUSH3 0xE7E DUP4 PUSH3 0x258 JUMP JUMPDEST EQ ISZERO PUSH3 0xDCA JUMP JUMPDEST PUSH3 0x2AB DUP2 PUSH1 0xFE PUSH3 0xE24 JUMP JUMPDEST SUB SWAP1 LOG1 JUMP JUMPDEST PUSH3 0x288 SWAP1 PUSH3 0xD9A JUMP JUMPDEST ISZERO PUSH3 0xEAB JUMPI JUMP JUMPDEST PUSH1 0x40 MLOAD PUSH3 0x461BCD PUSH1 0xE5 SHL DUP2 MSTORE PUSH1 0x20 PUSH1 0x4 DUP3 ADD MSTORE PUSH1 0x2C PUSH1 0x24 DUP3 ADD MSTORE PUSH1 0x0 DUP1 MLOAD PUSH1 0x20 PUSH3 0x3EC5 DUP4 CODECOPY DUP2 MLOAD SWAP2 MSTORE PUSH1 0x44 DUP3 ADD MSTORE PUSH12 0x19195B1959D85D1958D85B1B PUSH1 0xA2 SHL PUSH1 0x64 DUP3 ADD MSTORE PUSH1 0x84 SWAP1 REVERT JUMPDEST ISZERO PUSH3 0xEFC JUMPI JUMP JUMPDEST PUSH1 0x40 MLOAD PUSH3 0x461BCD PUSH1 0xE5 SHL DUP2 MSTORE PUSH1 0x20 PUSH1 0x4 DUP3 ADD MSTORE PUSH1 0x2C PUSH1 0x24 DUP3 ADD MSTORE PUSH1 0x0 DUP1 MLOAD PUSH1 0x20 PUSH3 0x3EC5 DUP4 CODECOPY DUP2 MLOAD SWAP2 MSTORE PUSH1 0x44 DUP3 ADD MSTORE PUSH12 0x6163746976652070726F7879 PUSH1 0xA0 SHL PUSH1 0x64 DUP3 ADD MSTORE PUSH1 0x84 SWAP1 REVERT JUMPDEST PUSH3 0x288 SWAP1 PUSH3 0xFBD PUSH3 0xF59 ADDRESS PUSH3 0x3D5 JUMP JUMPDEST PUSH3 0xF9D PUSH32 0x0 SWAP2 PUSH3 0xF95 PUSH3 0xF8E DUP5 PUSH3 0x258 JUMP JUMPDEST SWAP2 PUSH3 0x258 JUMP JUMPDEST EQ ISZERO PUSH3 0xEA3 JUMP JUMPDEST PUSH3 0xFB6 PUSH3 0xF8E PUSH3 0xFAF PUSH3 0x3175 JUMP JUMPDEST SWAP3 PUSH3 0x258 JUMP JUMPDEST EQ PUSH3 0xEF4 JUMP JUMPDEST PUSH3 0xFF1 JUMP JUMPDEST CALLDATASIZE SWAP1 CALLDATACOPY JUMP JUMPDEST SWAP1 PUSH3 0x288 PUSH3 0xFE3 PUSH3 0xFDC DUP5 PUSH3 0xC48 JUMP JUMPDEST SWAP4 PUSH3 0x4E1 JUMP JUMPDEST PUSH1 0x1F NOT ADD PUSH1 0x20 DUP5 ADD PUSH3 0xFC3 JUMP JUMPDEST PUSH1 0x0 PUSH3 0x288 SWAP2 PUSH3 0x1003 DUP2 PUSH3 0x319B JUMP JUMPDEST PUSH3 0x1018 PUSH3 0x1012 DUP4 PUSH3 0xCF8 JUMP JUMPDEST PUSH3 0xFC8 JUMP JUMPDEST SWAP1 PUSH3 0x3256 JUMP JUMPDEST PUSH3 0x288 SWAP1 PUSH3 0xF45 JUMP JUMPDEST SWAP1 PUSH3 0x288 SWAP2 PUSH3 0x103F PUSH3 0xF59 ADDRESS PUSH3 0x3D5 JUMP JUMPDEST PUSH3 0x288 SWAP2 PUSH1 0x1 SWAP2 PUSH3 0x1052 DUP2 PUSH3 0x319B JUMP JUMPDEST PUSH3 0x3256 JUMP JUMPDEST SWAP1 PUSH3 0x288 SWAP2 PUSH3 0x102A JUMP JUMPDEST ISZERO PUSH3 0x106C JUMPI JUMP JUMPDEST PUSH1 0x40 MLOAD PUSH3 0x461BCD PUSH1 0xE5 SHL DUP2 MSTORE PUSH1 0x20 PUSH1 0x4 DUP3 ADD MSTORE PUSH1 0x38 PUSH1 0x24 DUP3 ADD MSTORE PUSH32 0x555550535570677261646561626C653A206D757374206E6F742062652063616C PUSH1 0x44 DUP3 ADD MSTORE PUSH24 0x1B1959081D1A1C9BDD59DA0819195B1959D85D1958D85B1B PUSH1 0x42 SHL PUSH1 0x64 DUP3 ADD MSTORE PUSH1 0x84 SWAP1 REVERT JUMPDEST PUSH3 0x264 SWAP1 PUSH3 0x111C PUSH3 0x10E6 ADDRESS PUSH3 0x3D5 JUMP JUMPDEST PUSH3 0x1115 PUSH3 0xF8E PUSH32 0x0 PUSH3 0x258 JUMP JUMPDEST EQ PUSH3 0x1064 JUMP JUMPDEST PUSH3 0x114D JUMP JUMPDEST PUSH3 0x264 PUSH32 0x360894A13BA1A3210667C828492DB98DCA3E2076CC3735A920A3CA505D382BBC PUSH3 0xCF8 JUMP JUMPDEST POP PUSH3 0x264 PUSH3 0x1122 JUMP JUMPDEST PUSH3 0x264 PUSH1 0x0 PUSH3 0x10D2 JUMP JUMPDEST PUSH3 0x116E PUSH3 0x3151 JUMP JUMPDEST PUSH3 0x288 PUSH3 0x288 PUSH3 0x1182 PUSH1 0x0 PUSH3 0xDBF JUMP JUMPDEST PUSH3 0x3382 JUMP JUMPDEST PUSH3 0x288 PUSH3 0x1164 JUMP JUMPDEST PUSH3 0x288 SWAP1 PUSH3 0x11A1 PUSH3 0x3151 JUMP JUMPDEST PUSH3 0x1214 JUMP JUMPDEST ISZERO PUSH3 0x11AF JUMPI JUMP JUMPDEST PUSH1 0x40 MLOAD PUSH3 0x461BCD PUSH1 0xE5 SHL DUP2 MSTORE PUSH1 0x20 PUSH1 0x4 DUP3 ADD MSTORE PUSH1 0x16 PUSH1 0x24 DUP3 ADD MSTORE PUSH22 0x4665652063616E6E6F74206578636565642031303025 PUSH1 0x50 SHL PUSH1 0x44 DUP3 ADD MSTORE PUSH1 0x64 SWAP1 REVERT JUMPDEST SWAP1 PUSH1 0x0 NOT SWAP1 PUSH3 0xE1A JUMP JUMPDEST SWAP1 PUSH3 0x120C PUSH3 0x264 PUSH3 0xE40 SWAP3 PUSH3 0xCF8 JUMP JUMPDEST DUP3 SLOAD PUSH3 0x11ED JUMP JUMPDEST PUSH3 0xE93 PUSH1 0x0 DUP1 MLOAD PUSH1 0x20 PUSH3 0x3E85 DUP4 CODECOPY DUP2 MLOAD SWAP2 MSTORE SWAP2 PUSH3 0x1243 PUSH3 0x123A PUSH2 0x2710 PUSH3 0xCF8 JUMP JUMPDEST DUP3 GT ISZERO PUSH3 0x11A7 JUMP JUMPDEST PUSH3 0x305 DUP2 PUSH1 0xFD PUSH3 0x11F8 JUMP JUMPDEST PUSH3 0x288 SWAP1 PUSH3 0x1192 JUMP JUMPDEST PUSH3 0x264 SWAP1 PUSH3 0x258 JUMP JUMPDEST PUSH3 0x264 SWAP1 SLOAD PUSH3 0x125B JUMP JUMPDEST PUSH3 0x264 PUSH1 0x33 PUSH3 0x1266 JUMP JUMPDEST SWAP1 PUSH3 0x288 SWAP2 PUSH3 0x128E PUSH3 0x3151 JUMP JUMPDEST PUSH3 0x12EE JUMP JUMPDEST ISZERO PUSH3 0x129C JUMPI JUMP JUMPDEST PUSH1 0x40 MLOAD PUSH3 0x461BCD PUSH1 0xE5 SHL DUP2 MSTORE PUSH1 0x20 PUSH1 0x4 DUP3 ADD MSTORE PUSH1 0x12 PUSH1 0x24 DUP3 ADD MSTORE PUSH18 0x496E76616C69642070657263656E74616765 PUSH1 0x70 SHL PUSH1 0x44 DUP3 ADD MSTORE PUSH1 0x64 SWAP1 REVERT JUMPDEST SWAP1 DUP2 MSTORE PUSH1 0x40 DUP2 ADD SWAP3 SWAP2 PUSH3 0x288 SWAP2 PUSH1 0x20 ADD MSTORE JUMP JUMPDEST ADD MSTORE JUMP JUMPDEST SWAP1 PUSH1 0x0 DUP1 MLOAD PUSH1 0x20 PUSH3 0x3E45 DUP4 CODECOPY DUP2 MLOAD SWAP2 MSTORE SWAP2 PUSH3 0x131A PUSH3 0x1311 PUSH2 0x2710 PUSH3 0xCF8 JUMP JUMPDEST DUP3 GT ISZERO PUSH3 0x1294 JUMP JUMPDEST PUSH3 0x1328 DUP2 PUSH2 0x102 PUSH3 0x11F8 JUMP JUMPDEST PUSH3 0x1336 DUP3 PUSH2 0x103 PUSH3 0x11F8 JUMP JUMPDEST PUSH3 0xE93 PUSH3 0x1344 PUSH1 0x40 MLOAD SWAP1 JUMP JUMPDEST SWAP3 DUP4 SWAP3 DUP4 PUSH3 0x12D6 JUMP JUMPDEST SWAP1 PUSH3 0x288 SWAP2 PUSH3 0x127E JUMP JUMPDEST PUSH3 0x264 SWAP1 PUSH3 0x6E2 JUMP JUMPDEST PUSH3 0x1381 PUSH3 0x264 SWAP2 PUSH3 0x1377 PUSH1 0x60 SWAP1 JUMP JUMPDEST POP PUSH2 0x105 PUSH3 0x5D6 JUMP JUMPDEST PUSH3 0x135A JUMP JUMPDEST SWAP1 PUSH3 0x288 SWAP2 PUSH3 0x1397 PUSH3 0x3151 JUMP JUMPDEST PUSH3 0x13EA PUSH3 0x13DF PUSH32 0x35250FF587E06567C2FA9D4B3191805958A937530B0E88CFCE4C9C4DCDEF1B3 SWAP3 PUSH3 0x13D9 DUP6 PUSH3 0x13D3 DUP4 PUSH1 0xFC PUSH3 0x5D6 JUMP JUMPDEST PUSH3 0x11F8 JUMP JUMPDEST PUSH3 0x3D5 JUMP JUMPDEST SWAP3 PUSH3 0x309 PUSH1 0x40 MLOAD SWAP1 JUMP JUMPDEST SUB SWAP1 LOG2 JUMP JUMPDEST SWAP1 PUSH3 0x288 SWAP2 PUSH3 0x1387 JUMP JUMPDEST PUSH3 0x288 SWAP1 PUSH3 0x140A PUSH3 0x3151 JUMP JUMPDEST PUSH3 0xE93 PUSH1 0x0 DUP1 MLOAD PUSH1 0x20 PUSH3 0x3EA5 DUP4 CODECOPY DUP2 MLOAD SWAP2 MSTORE SWAP2 PUSH3 0x305 DUP2 PUSH1 0xFB PUSH3 0x11F8 JUMP JUMPDEST PUSH3 0x288 SWAP1 PUSH3 0x13FB JUMP JUMPDEST SWAP1 PUSH3 0x288 SWAP3 SWAP2 PUSH3 0x1448 PUSH3 0x3151 JUMP JUMPDEST PUSH3 0x14E3 JUMP JUMPDEST ISZERO PUSH3 0x1456 JUMPI JUMP JUMPDEST PUSH1 0x40 MLOAD PUSH3 0x461BCD PUSH1 0xE5 SHL DUP2 MSTORE PUSH1 0x20 PUSH1 0x4 DUP3 ADD MSTORE PUSH1 0x19 PUSH1 0x24 DUP3 ADD MSTORE PUSH25 0x436C696666206C6F6E676572207468616E2076657374696E67 PUSH1 0x38 SHL PUSH1 0x44 DUP3 ADD MSTORE PUSH1 0x64 SWAP1 REVERT JUMPDEST SWAP1 PUSH1 0xFF SWAP1 PUSH3 0xE1A JUMP JUMPDEST SWAP1 PUSH3 0x14B4 PUSH3 0x264 PUSH3 0xE40 SWAP3 ISZERO ISZERO SWAP1 JUMP JUMPDEST DUP3 SLOAD PUSH3 0x1497 JUMP JUMPDEST SWAP1 DUP2 MSTORE PUSH1 0x60 DUP2 ADD SWAP4 SWAP3 PUSH3 0x288 SWAP3 SWAP1 SWAP2 PUSH1 0x40 SWAP2 PUSH3 0x14DB SWAP1 PUSH1 0x20 DUP4 ADD MSTORE JUMP JUMPDEST ADD SWAP1 ISZERO ISZERO SWAP1 MSTORE JUMP JUMPDEST PUSH3 0xE93 PUSH1 0x0 DUP1 MLOAD PUSH1 0x20 PUSH3 0x3EE5 DUP4 CODECOPY DUP2 MLOAD SWAP2 MSTORE SWAP4 PUSH3 0x150D PUSH3 0x1504 DUP5 SWAP1 JUMP JUMPDEST DUP6 GT ISZERO PUSH3 0x144E JUMP JUMPDEST PUSH3 0x151A DUP4 PUSH1 0xFF PUSH3 0x11F8 JUMP JUMPDEST PUSH3 0x1528 DUP5 PUSH2 0x100 PUSH3 0x11F8 JUMP JUMPDEST PUSH3 0x1536 DUP2 PUSH2 0x101 PUSH3 0x14A1 JUMP JUMPDEST PUSH1 0x40 MLOAD SWAP4 DUP5 SWAP4 DUP5 PUSH3 0x14BC JUMP JUMPDEST SWAP1 PUSH3 0x288 SWAP3 SWAP2 PUSH3 0x1437 JUMP JUMPDEST SWAP1 PUSH3 0x1566 SWAP2 PUSH3 0x1560 PUSH3 0x3435 JUMP JUMPDEST PUSH3 0x2096 JUMP JUMPDEST SWAP1 PUSH3 0x288 PUSH3 0x3471 JUMP JUMPDEST PUSH1 0x40 DUP1 DUP3 MSTORE PUSH1 0x17 SWAP1 DUP3 ADD MSTORE PUSH23 0x436865636B696E67206465706C6F796D656E7420666565 PUSH1 0x48 SHL PUSH1 0x60 DUP3 ADD MSTORE SWAP2 SWAP1 PUSH3 0x288 SWAP1 PUSH1 0x20 PUSH1 0x80 DUP6 ADD SWAP5 ADD MSTORE JUMP JUMPDEST ISZERO PUSH3 0x15B6 JUMPI JUMP JUMPDEST PUSH1 0x40 MLOAD PUSH3 0x461BCD PUSH1 0xE5 SHL DUP2 MSTORE PUSH1 0x20 PUSH1 0x4 DUP3 ADD MSTORE PUSH1 0x1B PUSH1 0x24 DUP3 ADD MSTORE PUSH27 0x496E73756666696369656E74206465706C6F796D656E7420666565 PUSH1 0x28 SHL PUSH1 0x44 DUP3 ADD MSTORE PUSH1 0x64 SWAP1 REVERT JUMPDEST CALLDATALOAD PUSH3 0x264 DUP2 PUSH3 0x7F8 JUMP JUMPDEST PUSH1 0x40 DUP1 DUP3 MSTORE PUSH1 0x11 SWAP1 DUP3 ADD MSTORE PUSH17 0x436865636B696E6720737570706C696573 PUSH1 0x78 SHL PUSH1 0x60 DUP3 ADD MSTORE SWAP2 SWAP1 PUSH3 0x288 SWAP1 PUSH1 0x20 PUSH1 0x80 DUP6 ADD SWAP5 ADD MSTORE JUMP JUMPDEST ISZERO PUSH3 0x1644 JUMPI JUMP JUMPDEST PUSH1 0x40 MLOAD PUSH3 0x461BCD PUSH1 0xE5 SHL DUP2 MSTORE PUSH1 0x20 PUSH1 0x4 DUP3 ADD MSTORE PUSH1 0x14 PUSH1 0x24 DUP3 ADD MSTORE PUSH20 0x496E697469616C203E206D617820737570706C79 PUSH1 0x60 SHL PUSH1 0x44 DUP3 ADD MSTORE PUSH1 0x64 SWAP1 REVERT JUMPDEST PUSH1 0x40 DUP1 DUP3 MSTORE PUSH1 0x17 SWAP1 DUP3 ADD MSTORE PUSH23 0x86D0CAC6D6D2DCCE40E8DED6CADCE640E0CAE4408AA89 PUSH1 0x4B SHL PUSH1 0x60 DUP3 ADD MSTORE SWAP2 SWAP1 PUSH3 0x288 SWAP1 PUSH1 0x20 PUSH1 0x80 DUP6 ADD SWAP5 ADD MSTORE JUMP JUMPDEST ISZERO PUSH3 0x16C5 JUMPI JUMP JUMPDEST PUSH1 0x40 MLOAD PUSH3 0x461BCD PUSH1 0xE5 SHL DUP2 MSTORE PUSH1 0x20 PUSH1 0x4 DUP3 ADD MSTORE PUSH1 0x16 PUSH1 0x24 DUP3 ADD MSTORE PUSH22 0x92DCECC2D8D2C840E8DED6CADCE640E0CAE4408AA89 PUSH1 0x53 SHL PUSH1 0x44 DUP3 ADD MSTORE PUSH1 0x64 SWAP1 REVERT JUMPDEST PUSH1 0x80 DUP1 DUP3 MSTORE PUSH1 0x1A SWAP1 DUP3 ADD MSTORE PUSH26 0x56616C69646174696E672074696D6520706172616D6574657273 PUSH1 0x30 SHL PUSH1 0xA0 DUP3 ADD MSTORE SWAP1 SWAP4 SWAP3 PUSH3 0x288 SWAP3 SWAP1 SWAP2 PUSH1 0x60 SWAP2 PUSH3 0x12EA SWAP1 PUSH3 0x1753 PUSH1 0xC0 DUP5 ADD SWAP9 PUSH1 0x20 DUP6 ADD MSTORE JUMP JUMPDEST PUSH1 0x40 DUP4 ADD MSTORE JUMP JUMPDEST ISZERO PUSH3 0x1762 JUMPI JUMP JUMPDEST PUSH1 0x40 MLOAD PUSH3 0x461BCD PUSH1 0xE5 SHL DUP2 MSTORE PUSH1 0x20 PUSH1 0x4 DUP3 ADD MSTORE PUSH1 0x19 PUSH1 0x24 DUP3 ADD MSTORE PUSH25 0x53746172742074696D65206D75737420626520667574757265 PUSH1 0x38 SHL PUSH1 0x44 DUP3 ADD MSTORE PUSH1 0x64 SWAP1 REVERT JUMPDEST ISZERO PUSH3 0x17AB JUMPI JUMP JUMPDEST PUSH1 0x40 MLOAD PUSH3 0x461BCD PUSH1 0xE5 SHL DUP2 MSTORE PUSH1 0x20 PUSH1 0x4 DUP3 ADD MSTORE PUSH1 0x1C PUSH1 0x24 DUP3 ADD MSTORE PUSH28 0x115B99081D1A5B59481B5D5CDD0818994818599D195C881CDD185C9D PUSH1 0x22 SHL PUSH1 0x44 DUP3 ADD MSTORE PUSH1 0x64 SWAP1 REVERT JUMPDEST PUSH1 0x40 DUP1 DUP3 MSTORE PUSH1 0x1D SWAP1 DUP3 ADD MSTORE PUSH32 0x436865636B696E67206C69717569646974792070657263656E74616765000000 PUSH1 0x60 DUP3 ADD MSTORE SWAP2 SWAP1 PUSH3 0x288 SWAP1 PUSH1 0x20 PUSH1 0x80 DUP6 ADD SWAP5 ADD MSTORE JUMP JUMPDEST ISZERO PUSH3 0x183A JUMPI JUMP JUMPDEST PUSH1 0x40 MLOAD PUSH3 0x461BCD PUSH1 0xE5 SHL DUP2 MSTORE PUSH1 0x20 PUSH1 0x4 DUP3 ADD MSTORE PUSH1 0x13 PUSH1 0x24 DUP3 ADD MSTORE PUSH19 0x496E76616C6964206C69717569646974792025 PUSH1 0x68 SHL PUSH1 0x44 DUP3 ADD MSTORE PUSH1 0x64 SWAP1 REVERT JUMPDEST PUSH4 0x4E487B71 PUSH1 0xE0 SHL PUSH1 0x0 MSTORE PUSH1 0x11 PUSH1 0x4 MSTORE PUSH1 0x24 PUSH1 0x0 REVERT JUMPDEST SWAP2 SWAP1 PUSH3 0x1897 JUMP JUMPDEST SWAP3 SWAP1 JUMP JUMPDEST DUP3 ADD DUP1 SWAP3 GT PUSH3 0x18A3 JUMPI JUMP JUMPDEST PUSH3 0x1875 JUMP JUMPDEST PUSH1 0x40 DUP1 DUP3 MSTORE PUSH1 0x1C SWAP1 DUP3 ADD MSTORE PUSH28 0x21B0B631BAB630BA34B733903A37BA30B61030B63637B1B0BA34B7B7 PUSH1 0x21 SHL PUSH1 0x60 DUP3 ADD MSTORE SWAP2 SWAP1 PUSH3 0x288 SWAP1 PUSH1 0x20 PUSH1 0x80 DUP6 ADD SWAP5 ADD MSTORE JUMP JUMPDEST PUSH1 0x40 DUP1 DUP3 MSTORE PUSH1 0xC SWAP1 DUP3 ADD MSTORE PUSH12 0x506C6174666F726D20666565 PUSH1 0xA0 SHL PUSH1 0x60 DUP3 ADD MSTORE SWAP2 SWAP1 PUSH3 0x288 SWAP1 PUSH1 0x20 PUSH1 0x80 DUP6 ADD SWAP5 ADD MSTORE JUMP JUMPDEST PUSH1 0x40 DUP1 DUP3 MSTORE PUSH1 0x7 SWAP1 DUP3 ADD MSTORE PUSH7 0x50726573616C65 PUSH1 0xC8 SHL PUSH1 0x60 DUP3 ADD MSTORE SWAP2 SWAP1 PUSH3 0x288 SWAP1 PUSH1 0x20 PUSH1 0x80 DUP6 ADD SWAP5 ADD MSTORE JUMP JUMPDEST PUSH1 0x40 DUP1 DUP3 MSTORE PUSH1 0x9 SWAP1 DUP3 ADD MSTORE PUSH9 0x4C6971756964697479 PUSH1 0xB8 SHL PUSH1 0x60 DUP3 ADD MSTORE SWAP2 SWAP1 PUSH3 0x288 SWAP1 PUSH1 0x20 PUSH1 0x80 DUP6 ADD SWAP5 ADD MSTORE JUMP JUMPDEST PUSH1 0x40 DUP1 DUP3 MSTORE PUSH1 0x4 SWAP1 DUP3 ADD MSTORE PUSH4 0x5465616D PUSH1 0xE0 SHL PUSH1 0x60 DUP3 ADD MSTORE SWAP2 SWAP1 PUSH3 0x288 SWAP1 PUSH1 0x20 PUSH1 0x80 DUP6 ADD SWAP5 ADD MSTORE JUMP JUMPDEST PUSH1 0x40 DUP1 DUP3 MSTORE PUSH1 0x9 SWAP1 DUP3 ADD MSTORE PUSH9 0x4D61726B6574696E67 PUSH1 0xB8 SHL PUSH1 0x60 DUP3 ADD MSTORE SWAP2 SWAP1 PUSH3 0x288 SWAP1 PUSH1 0x20 PUSH1 0x80 DUP6 ADD SWAP5 ADD MSTORE JUMP JUMPDEST PUSH1 0x40 DUP1 DUP3 MSTORE PUSH1 0xB SWAP1 DUP3 ADD MSTORE PUSH11 0x11195D995B1BDC1B595B9D PUSH1 0xAA SHL PUSH1 0x60 DUP3 ADD MSTORE SWAP2 SWAP1 PUSH3 0x288 SWAP1 PUSH1 0x20 PUSH1 0x80 DUP6 ADD SWAP5 ADD MSTORE JUMP JUMPDEST ISZERO PUSH3 0x1A0B JUMPI JUMP JUMPDEST PUSH1 0x40 MLOAD PUSH3 0x461BCD PUSH1 0xE5 SHL DUP2 MSTORE PUSH1 0x20 PUSH1 0x4 DUP3 ADD MSTORE PUSH1 0x1B PUSH1 0x24 DUP3 ADD MSTORE PUSH27 0x416C6C6F636174696F6E73206D75737420746F74616C2031303025 PUSH1 0x28 SHL PUSH1 0x44 DUP3 ADD MSTORE PUSH1 0x64 SWAP1 REVERT JUMPDEST DUP2 DUP2 MUL SWAP3 SWAP2 DUP2 ISZERO SWAP2 DUP5 DIV EQ OR ISZERO PUSH3 0x18A3 JUMPI JUMP JUMPDEST PUSH4 0x4E487B71 PUSH1 0xE0 SHL PUSH1 0x0 MSTORE PUSH1 0x12 PUSH1 0x4 MSTORE PUSH1 0x24 PUSH1 0x0 REVERT JUMPDEST DUP2 ISZERO PUSH3 0x1A83 JUMPI DIV SWAP1 JUMP JUMPDEST PUSH3 0x1A62 JUMP JUMPDEST PUSH3 0x12EA PUSH3 0x288 SWAP5 PUSH3 0x1AEF PUSH1 0x80 SWAP5 SWAP9 SWAP8 SWAP6 PUSH3 0x1AE8 PUSH3 0x1AE0 PUSH1 0xA0 DUP8 ADD DUP8 DUP2 SUB PUSH1 0x0 DUP10 ADD MSTORE PUSH1 0x1D DUP2 MSTORE PUSH32 0x56616C69646174696E672070726573616C6520706172616D6574657273000000 PUSH1 0x20 DUP3 ADD MSTORE PUSH1 0x40 ADD SWAP1 JUMP JUMPDEST SWAP11 PUSH1 0x20 DUP8 ADD MSTORE JUMP JUMPDEST PUSH1 0x40 DUP6 ADD MSTORE JUMP JUMPDEST PUSH1 0x60 DUP4 ADD MSTORE JUMP JUMPDEST ISZERO PUSH3 0x1AFE JUMPI JUMP JUMPDEST PUSH1 0x40 MLOAD PUSH3 0x461BCD PUSH1 0xE5 SHL DUP2 MSTORE PUSH1 0x20 PUSH1 0x4 DUP3 ADD MSTORE PUSH1 0x13 PUSH1 0x24 DUP3 ADD MSTORE PUSH19 0x50726573616C652063617020746F6F206C6F77 PUSH1 0x68 SHL PUSH1 0x44 DUP3 ADD MSTORE PUSH1 0x64 SWAP1 REVERT JUMPDEST PUSH1 0x40 DUP1 DUP3 MSTORE PUSH1 0x13 SWAP1 DUP3 ADD MSTORE PUSH19 0x506C6174666F726D2066656520746F6B656E73 PUSH1 0x68 SHL PUSH1 0x60 DUP3 ADD MSTORE SWAP2 SWAP1 PUSH3 0x288 SWAP1 PUSH1 0x20 PUSH1 0x80 DUP6 ADD SWAP5 ADD MSTORE JUMP JUMPDEST SWAP1 CALLDATALOAD SWAP1 PUSH1 0x1E NOT CALLDATASIZE DUP3 SWAP1 SUB ADD DUP3 SLT ISZERO PUSH3 0x247 JUMPI ADD DUP1 CALLDATALOAD SWAP1 PUSH1 0x1 PUSH1 0x1 PUSH1 0x40 SHL SUB DUP3 GT PUSH3 0x247 JUMPI PUSH1 0x20 ADD SWAP2 CALLDATASIZE DUP3 SWAP1 SUB DUP4 SGT PUSH3 0x247 JUMPI JUMP JUMPDEST CALLDATALOAD PUSH3 0x264 DUP2 PUSH3 0x316 JUMP JUMPDEST CALLDATALOAD PUSH3 0x264 DUP2 PUSH3 0x9BE JUMP JUMPDEST PUSH3 0x264 SWAP1 PUSH3 0xBD6 JUMP JUMPDEST PUSH3 0x264 SWAP1 SLOAD PUSH3 0x1BC1 JUMP JUMPDEST PUSH3 0x264 PUSH2 0x300 PUSH3 0x4CA JUMP JUMPDEST PUSH3 0x264 SWAP2 CALLDATASIZE SWAP2 PUSH3 0x50E JUMP JUMPDEST SWAP1 PUSH3 0x272 SWAP1 PUSH3 0x258 JUMP JUMPDEST SWAP1 PUSH3 0x264 SWAP1 PUSH2 0x2E0 DUP1 PUSH3 0x1C3B PUSH3 0x1C28 PUSH2 0x300 DUP6 ADD PUSH1 0x0 DUP9 ADD MLOAD DUP7 DUP3 SUB PUSH1 0x0 DUP9 ADD MSTORE PUSH3 0x761 JUMP JUMPDEST PUSH1 0x20 DUP8 ADD MLOAD DUP6 DUP3 SUB PUSH1 0x20 DUP8 ADD MSTORE PUSH3 0x761 JUMP JUMPDEST SWAP5 PUSH3 0x1C4C PUSH1 0x40 DUP3 ADD MLOAD PUSH1 0x40 DUP7 ADD MSTORE JUMP JUMPDEST PUSH3 0x1C5C PUSH1 0x60 DUP3 ADD MLOAD PUSH1 0x60 DUP7 ADD MSTORE JUMP JUMPDEST PUSH3 0x1C70 PUSH1 0x80 DUP3 ADD MLOAD PUSH1 0x80 DUP7 ADD SWAP1 PUSH3 0x267 JUMP JUMPDEST PUSH1 0xA0 DUP2 DUP2 ADD MLOAD ISZERO ISZERO SWAP1 DUP6 ADD MSTORE PUSH1 0xC0 DUP2 DUP2 ADD MLOAD ISZERO ISZERO SWAP1 DUP6 ADD MSTORE PUSH3 0x1C98 PUSH1 0xE0 DUP3 ADD MLOAD PUSH1 0xE0 DUP7 ADD MSTORE JUMP JUMPDEST PUSH3 0x1CAA PUSH2 0x100 DUP3 ADD MLOAD PUSH2 0x100 DUP7 ADD MSTORE JUMP JUMPDEST PUSH3 0x1CBC PUSH2 0x120 DUP3 ADD MLOAD PUSH2 0x120 DUP7 ADD MSTORE JUMP JUMPDEST PUSH3 0x1CCE PUSH2 0x140 DUP3 ADD MLOAD PUSH2 0x140 DUP7 ADD MSTORE JUMP JUMPDEST PUSH3 0x1CE0 PUSH2 0x160 DUP3 ADD MLOAD PUSH2 0x160 DUP7 ADD MSTORE JUMP JUMPDEST PUSH3 0x1CF2 PUSH2 0x180 DUP3 ADD MLOAD PUSH2 0x180 DUP7 ADD MSTORE JUMP JUMPDEST PUSH3 0x1D04 PUSH2 0x1A0 DUP3 ADD MLOAD PUSH2 0x1A0 DUP7 ADD MSTORE JUMP JUMPDEST PUSH3 0x1D16 PUSH2 0x1C0 DUP3 ADD MLOAD PUSH2 0x1C0 DUP7 ADD MSTORE JUMP JUMPDEST PUSH3 0x1D2C PUSH2 0x1E0 DUP3 ADD MLOAD PUSH2 0x1E0 DUP7 ADD SWAP1 PUSH3 0x267 JUMP JUMPDEST PUSH3 0x1D3E PUSH2 0x200 DUP3 ADD MLOAD PUSH2 0x200 DUP7 ADD MSTORE JUMP JUMPDEST PUSH2 0x220 DUP2 DUP2 ADD MLOAD ISZERO ISZERO SWAP1 DUP6 ADD MSTORE PUSH3 0x1D5D PUSH2 0x240 DUP3 ADD MLOAD PUSH2 0x240 DUP7 ADD MSTORE JUMP JUMPDEST PUSH3 0x1D6F PUSH2 0x260 DUP3 ADD MLOAD PUSH2 0x260 DUP7 ADD MSTORE JUMP JUMPDEST PUSH3 0x1D81 PUSH2 0x280 DUP3 ADD MLOAD PUSH2 0x280 DUP7 ADD MSTORE JUMP JUMPDEST PUSH3 0x1D93 PUSH2 0x2A0 DUP3 ADD MLOAD PUSH2 0x2A0 DUP7 ADD MSTORE JUMP JUMPDEST PUSH3 0x1DA5 PUSH2 0x2C0 DUP3 ADD MLOAD PUSH2 0x2C0 DUP7 ADD MSTORE JUMP JUMPDEST ADD MLOAD SWAP2 ADD MSTORE JUMP JUMPDEST PUSH1 0x20 DUP1 DUP3 MSTORE PUSH3 0x264 SWAP3 SWAP2 ADD SWAP1 PUSH3 0x1BFE JUMP JUMPDEST SWAP2 PUSH3 0x264 SWAP3 PUSH3 0x1DD9 PUSH1 0x40 DUP3 ADD SWAP4 PUSH1 0x0 DUP4 ADD SWAP1 PUSH3 0x267 JUMP JUMPDEST PUSH1 0x20 DUP2 DUP5 SUB SWAP2 ADD MSTORE PUSH3 0x761 JUMP JUMPDEST PUSH1 0x40 MLOAD RETURNDATASIZE PUSH1 0x0 DUP3 RETURNDATACOPY RETURNDATASIZE SWAP1 REVERT JUMPDEST SWAP2 PUSH1 0x1 PUSH1 0x1 PUSH1 0xA0 SHL SUB PUSH1 0x8 SWAP3 SWAP1 SWAP3 MUL SWAP2 DUP3 SHL SWAP2 SHL PUSH3 0xE1A JUMP JUMPDEST SWAP2 SWAP1 PUSH3 0x1E22 PUSH3 0x264 PUSH3 0xE40 SWAP4 PUSH3 0x3D5 JUMP JUMPDEST SWAP1 DUP4 SLOAD PUSH3 0x1DF3 JUMP JUMPDEST DUP1 SLOAD SWAP2 SWAP1 PUSH1 0x1 PUSH1 0x40 SHL DUP4 LT ISZERO PUSH3 0x4C4 JUMPI DUP3 PUSH3 0x1E52 SWAP2 PUSH1 0x1 PUSH3 0x288 SWAP6 ADD DUP2 SSTORE PUSH3 0xB10 JUMP JUMPDEST SWAP1 PUSH3 0x1E0D JUMP JUMPDEST SWAP2 PUSH1 0x0 NOT PUSH1 0x8 SWAP3 SWAP1 SWAP3 MUL SWAP2 DUP3 SHL SWAP2 SHL PUSH3 0xE1A JUMP JUMPDEST SWAP2 SWAP1 PUSH3 0x1E83 PUSH3 0x264 PUSH3 0xE40 SWAP4 PUSH3 0xCF8 JUMP JUMPDEST SWAP1 DUP4 SLOAD PUSH3 0x1E59 JUMP JUMPDEST PUSH3 0x288 SWAP2 PUSH1 0x0 SWAP2 PUSH3 0x1E6E JUMP JUMPDEST DUP2 DUP2 LT PUSH3 0x1EA6 JUMPI POP POP JUMP JUMPDEST DUP1 PUSH3 0x1EB6 PUSH1 0x0 PUSH1 0x1 SWAP4 PUSH3 0x1E8C JUMP JUMPDEST ADD PUSH3 0x1E9A JUMP JUMPDEST SWAP2 SWAP1 PUSH1 0x1F DUP2 GT PUSH3 0x1ECD JUMPI POP POP POP JUMP JUMPDEST PUSH3 0x1EE1 PUSH3 0x288 SWAP4 PUSH1 0x0 MSTORE PUSH1 0x20 PUSH1 0x0 KECCAK256 SWAP1 JUMP JUMPDEST SWAP1 PUSH1 0x20 PUSH1 0x1F DUP5 ADD DUP2 SWAP1 DIV DUP4 ADD SWAP4 LT PUSH3 0x1F05 JUMPI JUMPDEST PUSH1 0x20 PUSH1 0x1F SWAP1 SWAP2 ADD DIV ADD SWAP1 PUSH3 0x1E9A JUMP JUMPDEST SWAP1 SWAP2 POP DUP2 SWAP1 PUSH3 0x1EF5 JUMP JUMPDEST SWAP1 PUSH1 0x0 NOT PUSH1 0x8 SWAP1 SWAP2 MUL SHR NOT AND SWAP1 JUMP JUMPDEST DUP2 PUSH3 0x1F2B SWAP2 PUSH3 0x1F10 JUMP JUMPDEST SWAP1 PUSH1 0x2 MUL OR SWAP1 JUMP JUMPDEST SWAP1 PUSH3 0x1F3D DUP2 MLOAD SWAP1 JUMP JUMPDEST SWAP1 PUSH1 0x1 PUSH1 0x1 PUSH1 0x40 SHL SUB DUP3 GT PUSH3 0x4C4 JUMPI PUSH3 0x1F65 DUP3 PUSH3 0x1F5E DUP6 SLOAD PUSH3 0x61C JUMP JUMPDEST DUP6 PUSH3 0x1EBD JUMP JUMPDEST PUSH1 0x20 SWAP1 PUSH1 0x1F DUP4 GT PUSH1 0x1 EQ PUSH3 0x1F98 JUMPI PUSH3 0xE40 SWAP3 SWAP2 PUSH1 0x0 SWAP2 DUP4 PUSH3 0x1F8C JUMPI JUMPDEST POP POP PUSH3 0x1F1F JUMP JUMPDEST ADD MLOAD SWAP1 POP CODESIZE DUP1 PUSH3 0x1F84 JUMP JUMPDEST PUSH1 0x1F NOT DUP4 AND SWAP2 PUSH3 0x1FAE DUP6 PUSH1 0x0 MSTORE PUSH1 0x20 PUSH1 0x0 KECCAK256 SWAP1 JUMP JUMPDEST SWAP3 PUSH1 0x0 JUMPDEST DUP2 DUP2 LT PUSH3 0x1FF2 JUMPI POP SWAP2 PUSH1 0x2 SWAP4 SWAP2 DUP6 PUSH1 0x1 SWAP7 SWAP5 LT PUSH3 0x1FD5 JUMPI JUMPDEST POP POP POP MUL ADD SWAP1 SSTORE JUMP JUMPDEST PUSH3 0x1FE7 SWAP2 ADD MLOAD PUSH1 0x1F DUP5 AND SWAP1 PUSH3 0x1F10 JUMP JUMPDEST SWAP1 SSTORE CODESIZE DUP1 DUP1 PUSH3 0x1FCC JUMP JUMPDEST SWAP2 SWAP4 PUSH1 0x20 PUSH1 0x1 DUP2 SWAP3 DUP8 DUP8 ADD MLOAD DUP2 SSTORE ADD SWAP6 ADD SWAP3 ADD PUSH3 0x1FB2 JUMP JUMPDEST SWAP1 PUSH3 0x288 SWAP2 PUSH3 0x1F33 JUMP JUMPDEST SWAP2 SWAP1 PUSH3 0x790 DUP2 PUSH3 0x2031 DUP2 PUSH3 0x4FE SWAP6 PUSH1 0x20 SWAP2 DUP2 MSTORE ADD SWAP1 JUMP JUMPDEST DUP1 SWAP6 PUSH3 0x502 JUMP JUMPDEST SWAP4 SWAP6 PUSH3 0x2088 PUSH3 0x2080 PUSH3 0x12EA SWAP6 PUSH1 0xA0 SWAP9 SWAP13 SWAP12 SWAP10 PUSH3 0x2071 PUSH3 0x208F SWAP7 PUSH3 0x288 SWAP14 SWAP9 PUSH1 0xC0 DUP13 ADD SWAP2 DUP13 PUSH1 0x0 DUP2 DUP6 SUB SWAP2 ADD MSTORE PUSH3 0x2017 JUMP JUMPDEST SWAP2 DUP10 DUP4 SUB PUSH1 0x20 DUP12 ADD MSTORE PUSH3 0x2017 JUMP JUMPDEST SWAP11 PUSH1 0x40 DUP8 ADD MSTORE JUMP JUMPDEST PUSH1 0x60 DUP6 ADD MSTORE JUMP JUMPDEST PUSH1 0x80 DUP4 ADD MSTORE JUMP JUMPDEST POP PUSH2 0x200 MSTORE PUSH3 0x20A6 CALLER PUSH3 0xD08 JUMP JUMPDEST PUSH3 0x20F7 PUSH3 0x20EE PUSH32 0x845CA1D214077EB31D1B8E7D499B0B0B57C303A5C5B9E169E3499D300D3E9192 SWAP3 DUP4 PUSH3 0x20DB PUSH1 0x40 MLOAD SWAP1 JUMP JUMPDEST DUP1 PUSH3 0x20E8 DUP5 DUP3 PUSH3 0x1571 JUMP JUMPDEST SUB SWAP1 LOG1 SWAP1 JUMP JUMPDEST CALLVALUE LT ISZERO PUSH3 0x15AE JUMP JUMPDEST DUP1 PUSH3 0x211A PUSH3 0x210D PUSH1 0x40 PUSH2 0x200 MLOAD ADD PUSH3 0x15F9 JUMP JUMPDEST PUSH1 0x40 MLOAD SWAP2 DUP3 SWAP2 DUP3 PUSH3 0x1605 JUMP JUMPDEST SUB SWAP1 LOG1 PUSH3 0x2153 PUSH3 0x2132 PUSH1 0x40 PUSH2 0x200 MLOAD ADD PUSH3 0x15F9 JUMP JUMPDEST PUSH3 0x214B PUSH3 0xD8D PUSH3 0x264 PUSH1 0x60 PUSH2 0x200 MLOAD ADD PUSH3 0x15F9 JUMP JUMPDEST GT ISZERO PUSH3 0x163C JUMP JUMPDEST DUP1 PUSH3 0x2176 PUSH3 0x2169 PUSH1 0xE0 PUSH2 0x200 MLOAD ADD PUSH3 0x15F9 JUMP JUMPDEST PUSH1 0x40 MLOAD SWAP2 DUP3 SWAP2 DUP3 PUSH3 0x1680 JUMP JUMPDEST SUB SWAP1 LOG1 PUSH3 0x21A5 PUSH3 0x218E PUSH1 0xE0 PUSH2 0x200 MLOAD ADD PUSH3 0x15F9 JUMP JUMPDEST PUSH3 0x219E PUSH3 0xD8D PUSH1 0x0 PUSH3 0xCF8 JUMP JUMPDEST GT PUSH3 0x16BD JUMP JUMPDEST PUSH32 0x17B8909DCD543B78E764CDF5A6C5E2433EE6DE6498B5B277A28EB1E04195FB6D PUSH3 0x21D8 PUSH2 0x160 PUSH2 0x200 MLOAD ADD PUSH3 0x15F9 JUMP JUMPDEST PUSH3 0x21EA PUSH2 0x180 PUSH2 0x200 MLOAD ADD PUSH3 0x15F9 JUMP JUMPDEST SWAP1 PUSH3 0x2204 PUSH3 0x21F9 PUSH1 0x40 MLOAD SWAP1 JUMP JUMPDEST SWAP3 DUP4 SWAP3 TIMESTAMP DUP5 PUSH3 0x1703 JUMP JUMPDEST SUB SWAP1 LOG1 PUSH3 0x2225 PUSH3 0x221D PUSH2 0x160 PUSH2 0x200 MLOAD ADD PUSH3 0x15F9 JUMP JUMPDEST TIMESTAMP LT PUSH3 0x175A JUMP JUMPDEST PUSH3 0x225C PUSH3 0x223B PUSH2 0x180 PUSH2 0x200 MLOAD ADD PUSH3 0x15F9 JUMP JUMPDEST PUSH3 0x2255 PUSH3 0xD8D PUSH3 0x264 PUSH2 0x160 PUSH2 0x200 MLOAD ADD PUSH3 0x15F9 JUMP JUMPDEST GT PUSH3 0x17A3 JUMP JUMPDEST DUP1 PUSH3 0x2280 PUSH3 0x2273 PUSH2 0x1C0 PUSH2 0x200 MLOAD ADD PUSH3 0x15F9 JUMP JUMPDEST PUSH1 0x40 MLOAD SWAP2 DUP3 SWAP2 DUP3 PUSH3 0x17EF JUMP JUMPDEST SUB SWAP1 LOG1 PUSH3 0x2582 PUSH3 0x2299 PUSH2 0x1C0 PUSH2 0x200 MLOAD ADD PUSH3 0x15F9 JUMP JUMPDEST PUSH3 0x22B8 PUSH2 0x2710 SWAP2 PUSH3 0x22B0 PUSH3 0xD8D DUP5 PUSH3 0xCF8 JUMP JUMPDEST GT ISZERO PUSH3 0x1832 JUMP JUMPDEST PUSH3 0x246E PUSH3 0x233B PUSH3 0x2329 PUSH3 0x2317 PUSH3 0x2307 PUSH3 0x22F5 PUSH3 0x22DC PUSH1 0xFD PUSH3 0xCEC JUMP JUMPDEST PUSH3 0x22EE PUSH2 0x1A0 PUSH2 0x200 MLOAD ADD PUSH3 0x15F9 JUMP JUMPDEST SWAP1 PUSH3 0x188B JUMP JUMPDEST PUSH3 0x22EE PUSH2 0x1C0 PUSH2 0x200 MLOAD ADD PUSH3 0x15F9 JUMP JUMPDEST PUSH3 0x22EE PUSH2 0x200 DUP1 MLOAD ADD PUSH3 0x15F9 JUMP JUMPDEST PUSH3 0x22EE PUSH2 0x220 PUSH2 0x200 MLOAD ADD PUSH3 0x15F9 JUMP JUMPDEST PUSH3 0x22EE PUSH2 0x240 PUSH2 0x200 MLOAD ADD PUSH3 0x15F9 JUMP JUMPDEST PUSH32 0x93B6F88656850EF11DA78796806C3B11E9FF3A0F037E0FAC9E49A6111DD85A25 DUP1 PUSH3 0x2367 PUSH1 0x40 MLOAD SWAP1 JUMP JUMPDEST DUP1 PUSH3 0x2374 DUP6 DUP3 PUSH3 0x18A9 JUMP JUMPDEST SUB SWAP1 LOG1 DUP1 PUSH3 0x2395 PUSH3 0x2388 PUSH1 0xFD PUSH3 0xCEC JUMP JUMPDEST PUSH1 0x40 MLOAD SWAP2 DUP3 SWAP2 DUP3 PUSH3 0x18EB JUMP JUMPDEST SUB SWAP1 LOG1 DUP1 PUSH3 0x23BC PUSH3 0x23AF PUSH2 0x1A0 PUSH2 0x200 MLOAD ADD PUSH3 0x15F9 JUMP JUMPDEST PUSH1 0x40 MLOAD SWAP2 DUP3 SWAP2 DUP3 PUSH3 0x191D JUMP JUMPDEST SUB SWAP1 LOG1 DUP1 PUSH3 0x23E3 PUSH3 0x23D6 PUSH2 0x1C0 PUSH2 0x200 MLOAD ADD PUSH3 0x15F9 JUMP JUMPDEST PUSH1 0x40 MLOAD SWAP2 DUP3 SWAP2 DUP3 PUSH3 0x194A JUMP JUMPDEST SUB SWAP1 LOG1 DUP1 PUSH3 0x2408 PUSH3 0x23FB PUSH2 0x200 DUP1 MLOAD ADD PUSH3 0x15F9 JUMP JUMPDEST PUSH1 0x40 MLOAD SWAP2 DUP3 SWAP2 DUP3 PUSH3 0x1979 JUMP JUMPDEST SUB SWAP1 LOG1 DUP1 PUSH3 0x242F PUSH3 0x2422 PUSH2 0x220 PUSH2 0x200 MLOAD ADD PUSH3 0x15F9 JUMP JUMPDEST PUSH1 0x40 MLOAD SWAP2 DUP3 SWAP2 DUP3 PUSH3 0x19A3 JUMP JUMPDEST SUB SWAP1 LOG1 PUSH3 0x2455 PUSH3 0x2448 PUSH2 0x240 PUSH2 0x200 MLOAD ADD PUSH3 0x15F9 JUMP JUMPDEST PUSH1 0x40 MLOAD SWAP2 DUP3 SWAP2 DUP3 PUSH3 0x19D2 JUMP JUMPDEST SUB SWAP1 LOG1 PUSH3 0x2467 PUSH3 0xD8D DUP5 PUSH3 0xCF8 JUMP JUMPDEST EQ PUSH3 0x1A03 JUMP JUMPDEST PUSH3 0x2556 PUSH3 0x24B6 PUSH3 0x24A4 PUSH3 0x248B PUSH1 0x40 PUSH2 0x200 MLOAD ADD PUSH3 0x15F9 JUMP JUMPDEST PUSH3 0x249D PUSH2 0x1A0 PUSH2 0x200 MLOAD ADD PUSH3 0x15F9 JUMP JUMPDEST SWAP1 PUSH3 0x1A4E JUMP JUMPDEST PUSH3 0x24AF DUP5 PUSH3 0xCF8 JUMP JUMPDEST SWAP1 PUSH3 0x1A78 JUMP JUMPDEST PUSH32 0xD76BFB75FF00C93B613B0C6BBA32B0DEADCA4AA295CE325FDBA1312379A76827 PUSH3 0x24F3 PUSH3 0x24EC PUSH1 0xE0 PUSH2 0x200 MLOAD ADD PUSH3 0x15F9 JUMP JUMPDEST DUP4 PUSH3 0x1A78 JUMP JUMPDEST SWAP2 PUSH3 0x2505 PUSH1 0xE0 PUSH2 0x200 MLOAD ADD PUSH3 0x15F9 JUMP JUMPDEST SWAP1 PUSH3 0x2531 PUSH3 0x251C PUSH2 0x140 PUSH2 0x200 MLOAD ADD PUSH3 0x15F9 JUMP JUMPDEST DUP6 PUSH3 0x2527 PUSH1 0x40 MLOAD SWAP1 JUMP JUMPDEST SWAP5 DUP6 SWAP5 DUP6 PUSH3 0x1A89 JUMP JUMPDEST SUB SWAP1 LOG1 PUSH3 0x254E PUSH3 0xD8D PUSH3 0x1893 PUSH2 0x140 PUSH2 0x200 MLOAD ADD PUSH3 0x15F9 JUMP JUMPDEST LT ISZERO PUSH3 0x1AF6 JUMP JUMPDEST PUSH3 0x24AF PUSH3 0x257B PUSH3 0x256F PUSH1 0x40 PUSH2 0x200 MLOAD ADD PUSH3 0x15F9 JUMP JUMPDEST PUSH3 0x249D PUSH1 0xFD PUSH3 0xCEC JUMP JUMPDEST SWAP2 PUSH3 0xCF8 JUMP JUMPDEST PUSH2 0x1C0 MSTORE PUSH1 0x40 MLOAD DUP1 PUSH3 0x2599 PUSH2 0x1C0 MLOAD DUP3 PUSH3 0x1B39 JUMP JUMPDEST SUB SWAP1 LOG1 PUSH32 0xF506DD1F37A395CD46449E11AE828CB6812F8B31AD36AFBEB191DA78D153A574 PUSH3 0x25C7 PUSH1 0x40 MLOAD SWAP1 JUMP JUMPDEST PUSH1 0x40 DUP1 DUP3 MSTORE PUSH1 0xE SWAP1 DUP3 ADD MSTORE PUSH14 0x4372656174696E672070726F7879 PUSH1 0x90 SHL PUSH1 0x60 DUP3 ADD MSTORE PUSH1 0x80 PUSH1 0x20 DUP3 ADD DUP2 SWAP1 MSTORE PUSH1 0x1D SWAP1 DUP3 ADD MSTORE PUSH32 0x507265706172696E6720696E697469616C697A6174696F6E2064617461000000 PUSH1 0xA0 DUP3 ADD MSTORE PUSH1 0xC0 SWAP1 LOG1 PUSH2 0x200 MLOAD PUSH3 0x2632 SWAP1 DUP1 PUSH3 0x1B72 JUMP JUMPDEST SWAP1 PUSH2 0x100 MSTORE PUSH3 0x264C PUSH1 0x20 PUSH2 0x200 MLOAD ADD PUSH2 0x200 MLOAD PUSH3 0x1B72 JUMP JUMPDEST PUSH2 0x140 MSTORE PUSH2 0x240 MSTORE PUSH3 0x2665 PUSH1 0x40 PUSH2 0x200 MLOAD ADD PUSH3 0x15F9 JUMP JUMPDEST SWAP1 PUSH3 0x2677 PUSH1 0x60 PUSH2 0x200 MLOAD ADD PUSH3 0x15F9 JUMP JUMPDEST SWAP1 PUSH3 0x2689 PUSH1 0x80 PUSH2 0x200 MLOAD ADD PUSH3 0x1BA9 JUMP JUMPDEST SWAP3 PUSH3 0x2696 PUSH1 0x0 PUSH3 0xDBF JUMP JUMPDEST SWAP4 PUSH3 0x26A6 PUSH3 0xF8E DUP7 PUSH3 0x258 JUMP JUMPDEST SUB PUSH3 0x2C57 JUMPI CALLER SWAP3 JUMPDEST PUSH3 0x26C0 PUSH1 0xA0 PUSH2 0x200 MLOAD ADD PUSH3 0x1BB5 JUMP JUMPDEST PUSH3 0x26D1 PUSH1 0xC0 PUSH2 0x200 MLOAD ADD PUSH3 0x1BB5 JUMP JUMPDEST SWAP3 PUSH3 0x26E3 PUSH1 0xE0 PUSH2 0x200 MLOAD ADD PUSH3 0x15F9 JUMP JUMPDEST SWAP6 PUSH3 0x26F6 PUSH2 0x100 PUSH2 0x200 MLOAD ADD PUSH3 0x15F9 JUMP JUMPDEST SWAP4 PUSH3 0x2709 PUSH2 0x120 PUSH2 0x200 MLOAD ADD PUSH3 0x15F9 JUMP JUMPDEST SWAP1 PUSH3 0x271C PUSH2 0x140 PUSH2 0x200 MLOAD ADD PUSH3 0x15F9 JUMP JUMPDEST SWAP2 PUSH3 0x272F PUSH2 0x160 PUSH2 0x200 MLOAD ADD PUSH3 0x15F9 JUMP JUMPDEST SWAP5 PUSH3 0x2742 PUSH2 0x180 PUSH2 0x200 MLOAD ADD PUSH3 0x15F9 JUMP JUMPDEST SWAP8 PUSH3 0x2755 PUSH2 0x1C0 PUSH2 0x200 MLOAD ADD PUSH3 0x15F9 JUMP JUMPDEST PUSH3 0x2765 PUSH3 0xD8D PUSH1 0x0 PUSH3 0xCF8 JUMP JUMPDEST SUB PUSH3 0x2BFE JUMPI PUSH3 0x2778 PUSH2 0x102 PUSH3 0xCEC JUMP JUMPDEST SWAP11 PUSH3 0x2947 SWAP13 PUSH3 0x2902 PUSH3 0x293D SWAP13 PUSH3 0x28F5 PUSH3 0x2933 SWAP13 PUSH3 0x28E9 PUSH3 0x2929 SWAP13 PUSH3 0x28DD PUSH3 0x291F SWAP13 PUSH3 0x28D4 PUSH3 0x2915 SWAP13 PUSH3 0x28AC PUSH3 0x28A6 PUSH3 0x290B SWAP14 JUMPDEST PUSH2 0x1E0 PUSH2 0x200 MLOAD ADD PUSH3 0x27CC DUP2 PUSH3 0x15F9 JUMP JUMPDEST PUSH3 0x27DC PUSH3 0xD8D PUSH1 0x0 PUSH3 0xCF8 JUMP JUMPDEST PUSH1 0x0 PUSH1 0x80 MSTORE SUB PUSH3 0x2BEA JUMPI POP PUSH3 0x27F5 PUSH2 0x103 PUSH3 0xCEC JUMP JUMPDEST PUSH1 0x80 MSTORE JUMPDEST PUSH3 0x2805 PUSH1 0xFE PUSH3 0x1266 JUMP JUMPDEST PUSH1 0xC0 MSTORE PUSH3 0x2815 PUSH2 0x101 PUSH3 0x1BCC JUMP JUMPDEST PUSH2 0x220 MSTORE PUSH3 0x2825 PUSH1 0xFF PUSH3 0xCEC JUMP JUMPDEST PUSH2 0x1E0 MSTORE PUSH3 0x2836 PUSH2 0x100 PUSH3 0xCEC JUMP JUMPDEST PUSH2 0x1A0 MSTORE PUSH3 0x284A PUSH2 0x200 DUP1 MLOAD ADD PUSH3 0x15F9 JUMP JUMPDEST PUSH2 0x180 MSTORE PUSH3 0x2860 PUSH2 0x220 PUSH2 0x200 MLOAD ADD PUSH3 0x15F9 JUMP JUMPDEST PUSH2 0x160 MSTORE PUSH3 0x2876 PUSH2 0x240 PUSH2 0x200 MLOAD ADD PUSH3 0x15F9 JUMP JUMPDEST PUSH2 0x120 MSTORE PUSH3 0x288C PUSH2 0x1A0 PUSH2 0x200 MLOAD ADD PUSH3 0x15F9 JUMP JUMPDEST PUSH1 0xE0 MSTORE PUSH3 0x2899 PUSH3 0x1BD8 JUMP JUMPDEST PUSH1 0xA0 MSTORE PUSH2 0x100 MLOAD PUSH3 0x1BE5 JUMP JUMPDEST PUSH1 0xA0 MLOAD MSTORE JUMP JUMPDEST PUSH3 0x28CB PUSH3 0x28C2 PUSH2 0x140 MLOAD PUSH2 0x240 MLOAD PUSH3 0x1BE5 JUMP JUMPDEST PUSH1 0x20 PUSH1 0xA0 MLOAD ADD MSTORE JUMP JUMPDEST PUSH1 0x40 PUSH1 0xA0 MLOAD ADD MSTORE JUMP JUMPDEST PUSH1 0x60 PUSH1 0xA0 MLOAD ADD MSTORE JUMP JUMPDEST PUSH1 0x80 PUSH1 0xA0 MLOAD ADD PUSH3 0x1BF2 JUMP JUMPDEST PUSH1 0xA0 DUP1 MLOAD ADD SWAP1 ISZERO ISZERO SWAP1 MSTORE JUMP JUMPDEST PUSH1 0xC0 PUSH1 0xA0 MLOAD ADD SWAP1 ISZERO ISZERO SWAP1 MSTORE JUMP JUMPDEST PUSH1 0xE0 PUSH1 0xA0 MLOAD ADD MSTORE JUMP JUMPDEST PUSH2 0x100 PUSH1 0xA0 MLOAD ADD MSTORE JUMP JUMPDEST PUSH2 0x120 PUSH1 0xA0 MLOAD ADD MSTORE JUMP JUMPDEST PUSH2 0x140 PUSH1 0xA0 MLOAD ADD MSTORE JUMP JUMPDEST PUSH2 0x160 PUSH1 0xA0 MLOAD ADD MSTORE JUMP JUMPDEST PUSH2 0x180 PUSH1 0xA0 MLOAD ADD MSTORE JUMP JUMPDEST PUSH2 0x1A0 PUSH1 0xA0 MLOAD ADD MSTORE JUMP JUMPDEST PUSH3 0x2958 PUSH1 0x80 MLOAD PUSH2 0x1C0 PUSH1 0xA0 MLOAD ADD MSTORE JUMP JUMPDEST PUSH3 0x296C PUSH1 0xC0 MLOAD PUSH2 0x1E0 PUSH1 0xA0 MLOAD ADD PUSH3 0x1BF2 JUMP JUMPDEST PUSH3 0x297E PUSH2 0x1C0 MLOAD PUSH2 0x200 PUSH1 0xA0 MLOAD ADD MSTORE JUMP JUMPDEST PUSH3 0x2994 PUSH2 0x220 MLOAD PUSH2 0x220 PUSH1 0xA0 MLOAD ADD SWAP1 ISZERO ISZERO SWAP1 MSTORE JUMP JUMPDEST PUSH3 0x29A6 PUSH2 0x1E0 MLOAD PUSH2 0x240 PUSH1 0xA0 MLOAD ADD MSTORE JUMP JUMPDEST PUSH3 0x29B8 PUSH2 0x1A0 MLOAD PUSH2 0x260 PUSH1 0xA0 MLOAD ADD MSTORE JUMP JUMPDEST PUSH3 0x29CA PUSH2 0x180 MLOAD PUSH2 0x280 PUSH1 0xA0 MLOAD ADD MSTORE JUMP JUMPDEST PUSH3 0x29DC PUSH2 0x160 MLOAD PUSH2 0x2A0 PUSH1 0xA0 MLOAD ADD MSTORE JUMP JUMPDEST PUSH3 0x29EE PUSH2 0x120 MLOAD PUSH2 0x2C0 PUSH1 0xA0 MLOAD ADD MSTORE JUMP JUMPDEST PUSH3 0x29FF PUSH1 0xE0 MLOAD PUSH2 0x2E0 PUSH1 0xA0 MLOAD ADD MSTORE JUMP JUMPDEST PUSH1 0x40 MLOAD PUSH3 0x2A36 DUP2 PUSH3 0x2A26 PUSH1 0x4 PUSH1 0x20 DUP4 ADD PUSH4 0x56F3E237 PUSH1 0xE0 SHL DUP2 MSTORE ADD PUSH1 0xA0 MLOAD SWAP1 PUSH3 0x1DAC JUMP JUMPDEST PUSH1 0x20 DUP3 ADD DUP2 SUB DUP3 MSTORE SUB DUP3 PUSH3 0x4A2 JUMP JUMPDEST PUSH3 0x2A61 PUSH32 0x0 PUSH3 0x3D5 JUMP JUMPDEST PUSH1 0x40 MLOAD SWAP2 PUSH2 0x5E9 DUP4 ADD SWAP1 PUSH1 0x1 PUSH1 0x1 PUSH1 0x40 SHL SUB DUP3 GT DUP5 DUP4 LT OR PUSH3 0x4C4 JUMPI DUP4 SWAP3 PUSH3 0x2A94 SWAP3 PUSH2 0x5E9 PUSH3 0x385C DUP7 CODECOPY PUSH3 0x1DBF JUMP JUMPDEST SUB SWAP1 PUSH1 0x0 CREATE DUP1 ISZERO PUSH3 0x2BE4 JUMPI PUSH3 0x2AAB SWAP1 PUSH3 0x3D5 JUMP JUMPDEST SWAP1 PUSH3 0x2ABA DUP3 PUSH2 0x104 PUSH3 0x1E2B JUMP JUMPDEST PUSH3 0x2ADC PUSH3 0x2AC8 PUSH3 0xC84 JUMP JUMPDEST PUSH3 0x2AD6 DUP5 PUSH2 0x105 PUSH3 0x5D6 JUMP JUMPDEST PUSH3 0x200B JUMP JUMPDEST PUSH2 0x200 MLOAD PUSH32 0xE8EFCE311593E7A13E7F21C806BF0105A4437C35BF6A1940106E62C5A6F5BE84 SWAP1 PUSH3 0x2B0E SWAP1 DUP1 PUSH3 0x1B72 JUMP JUMPDEST PUSH3 0x2B26 PUSH1 0x20 PUSH2 0x200 SWAP5 SWAP4 SWAP5 MLOAD ADD PUSH2 0x200 MLOAD PUSH3 0x1B72 JUMP JUMPDEST SWAP4 SWAP1 SWAP5 PUSH3 0x2B42 PUSH3 0xF8E PUSH3 0xFAF PUSH1 0x80 PUSH2 0x200 MLOAD ADD PUSH3 0x1BA9 JUMP JUMPDEST SUB PUSH3 0x2BC8 JUMPI PUSH3 0x2BC2 CALLER SWAP5 JUMPDEST PUSH3 0x2B61 PUSH2 0x160 PUSH2 0x200 MLOAD ADD PUSH3 0x15F9 JUMP JUMPDEST PUSH3 0x2B73 PUSH2 0x180 PUSH2 0x200 MLOAD ADD PUSH3 0x15F9 JUMP JUMPDEST PUSH3 0x2B84 PUSH1 0x40 PUSH2 0x200 MLOAD ADD PUSH3 0x15F9 JUMP JUMPDEST SWAP2 PUSH3 0x2B96 PUSH1 0x60 PUSH2 0x200 MLOAD ADD PUSH3 0x15F9 JUMP JUMPDEST SWAP4 PUSH3 0x2BAD PUSH3 0x2BA6 DUP14 PUSH3 0x3D5 JUMP JUMPDEST SWAP11 PUSH3 0x3D5 JUMP JUMPDEST SWAP11 PUSH3 0x2BB8 PUSH1 0x40 MLOAD SWAP1 JUMP JUMPDEST SWAP9 DUP10 SWAP9 DUP10 PUSH3 0x2039 JUMP JUMPDEST SUB SWAP1 LOG3 SWAP1 JUMP JUMPDEST PUSH3 0x2BC2 PUSH3 0x2BDD PUSH1 0x80 PUSH2 0x200 MLOAD ADD PUSH3 0x1BA9 JUMP JUMPDEST SWAP5 PUSH3 0x2B4F JUMP JUMPDEST PUSH3 0x1DE7 JUMP JUMPDEST PUSH3 0x2BF5 SWAP1 PUSH3 0x15F9 JUMP JUMPDEST PUSH1 0x80 MSTORE PUSH3 0x27F9 JUMP JUMPDEST PUSH2 0x200 MLOAD PUSH2 0x1C0 ADD PUSH3 0x2C11 SWAP1 PUSH3 0x15F9 JUMP JUMPDEST SWAP11 PUSH3 0x2947 SWAP13 PUSH3 0x2902 PUSH3 0x293D SWAP13 PUSH3 0x28F5 PUSH3 0x2933 SWAP13 PUSH3 0x28E9 PUSH3 0x2929 SWAP13 PUSH3 0x28DD PUSH3 0x291F SWAP13 PUSH3 0x28D4 PUSH3 0x2915 SWAP13 PUSH3 0x28AC PUSH3 0x28A6 PUSH3 0x290B SWAP14 PUSH3 0x27B9 JUMP JUMPDEST PUSH3 0x2C68 PUSH1 0x80 PUSH2 0x200 MLOAD ADD PUSH3 0x1BA9 JUMP JUMPDEST SWAP3 PUSH3 0x26AF JUMP JUMPDEST PUSH3 0x264 SWAP1 PUSH1 0x0 PUSH3 0x1550 JUMP JUMPDEST PUSH3 0x288 SWAP1 PUSH3 0x2C8B PUSH3 0x3151 JUMP JUMPDEST PUSH3 0x2CED JUMP JUMPDEST ISZERO PUSH3 0x2C99 JUMPI JUMP JUMPDEST PUSH1 0x40 MLOAD PUSH3 0x461BCD PUSH1 0xE5 SHL DUP2 MSTORE PUSH1 0x20 PUSH1 0x4 DUP3 ADD MSTORE PUSH1 0x26 PUSH1 0x24 DUP3 ADD MSTORE PUSH32 0x4F776E61626C653A206E6577206F776E657220697320746865207A65726F2061 PUSH1 0x44 DUP3 ADD MSTORE PUSH6 0x646472657373 PUSH1 0xD0 SHL PUSH1 0x64 DUP3 ADD MSTORE PUSH1 0x84 SWAP1 REVERT JUMPDEST PUSH3 0x288 SWAP1 PUSH3 0x1182 PUSH3 0x2D06 PUSH3 0xE6D PUSH1 0x0 PUSH3 0xDBF JUMP JUMPDEST PUSH3 0x2D11 DUP4 PUSH3 0x258 JUMP JUMPDEST EQ ISZERO PUSH3 0x2C91 JUMP JUMPDEST PUSH3 0x288 SWAP1 PUSH3 0x2C7C JUMP JUMPDEST PUSH3 0x264 SWAP1 PUSH1 0x8 SHR PUSH3 0xBD6 JUMP JUMPDEST PUSH3 0x264 SWAP1 SLOAD PUSH3 0x2D24 JUMP JUMPDEST PUSH3 0xBD6 PUSH3 0x264 PUSH3 0x264 SWAP3 SWAP1 JUMP JUMPDEST ISZERO PUSH3 0x2D56 JUMPI JUMP JUMPDEST PUSH1 0x40 MLOAD PUSH3 0x461BCD PUSH1 0xE5 SHL DUP2 MSTORE PUSH1 0x20 PUSH1 0x4 DUP3 ADD MSTORE PUSH1 0x2E PUSH1 0x24 DUP3 ADD MSTORE PUSH32 0x496E697469616C697A61626C653A20636F6E747261637420697320616C726561 PUSH1 0x44 DUP3 ADD MSTORE PUSH14 0x191E481A5B9A5D1A585B1A5E9959 PUSH1 0x92 SHL PUSH1 0x64 DUP3 ADD MSTORE PUSH1 0x84 SWAP1 REVERT JUMPDEST PUSH3 0xBD6 PUSH3 0x264 PUSH3 0x264 SWAP3 PUSH1 0xFF AND SWAP1 JUMP JUMPDEST SWAP1 PUSH3 0x14B4 PUSH3 0x264 PUSH3 0xE40 SWAP3 PUSH3 0x2DB2 JUMP JUMPDEST SWAP1 PUSH2 0xFF00 SWAP1 PUSH1 0x8 SHL PUSH3 0xE1A JUMP JUMPDEST SWAP1 PUSH3 0x2DFA PUSH3 0x264 PUSH3 0xE40 SWAP3 ISZERO ISZERO SWAP1 JUMP JUMPDEST DUP3 SLOAD PUSH3 0x2DD9 JUMP JUMPDEST PUSH3 0x272 SWAP1 PUSH3 0x2D3E JUMP JUMPDEST PUSH1 0x20 DUP2 ADD SWAP3 SWAP2 PUSH3 0x288 SWAP2 SWAP1 PUSH3 0x2E02 JUMP JUMPDEST PUSH3 0x2E77 PUSH3 0x2E37 PUSH3 0x2E33 PUSH1 0x0 PUSH3 0x2D32 JUMP JUMPDEST ISZERO SWAP1 JUMP JUMPDEST SWAP2 DUP3 DUP1 PUSH3 0x2F2A JUMPI JUMPDEST DUP1 ISZERO PUSH3 0x2ED8 JUMPI JUMPDEST PUSH3 0x2E53 SWAP1 PUSH3 0x2D4E JUMP JUMPDEST DUP3 PUSH3 0x2E6C PUSH3 0x2E64 PUSH1 0x1 PUSH3 0x2D3E JUMP JUMPDEST PUSH1 0x0 PUSH3 0x2DC5 JUMP JUMPDEST PUSH3 0x2EC4 JUMPI PUSH3 0x2F4E JUMP JUMPDEST PUSH3 0x2E7E JUMPI JUMP JUMPDEST PUSH3 0x2E8B PUSH1 0x0 DUP1 PUSH3 0x2DE7 JUMP JUMPDEST PUSH32 0x7F26B83FF96E1F2B6A682F133852F6798A09C465DA95921460CEFB3847402498 PUSH3 0x2EB6 PUSH1 0x40 MLOAD SWAP1 JUMP JUMPDEST DUP1 PUSH3 0xE93 PUSH1 0x1 DUP3 PUSH3 0x2E0D JUMP JUMPDEST PUSH3 0x2ED2 PUSH1 0x1 PUSH1 0x0 PUSH3 0x2DE7 JUMP JUMPDEST PUSH3 0x2F4E JUMP JUMPDEST POP PUSH3 0x2EF2 PUSH3 0x2E33 PUSH3 0x2EEC ADDRESS PUSH3 0x3D5 JUMP JUMPDEST PUSH3 0x347F JUMP JUMPDEST DUP1 ISZERO PUSH3 0x2E48 JUMPI POP PUSH3 0x2E53 PUSH3 0x2F0A PUSH1 0x0 PUSH3 0x1BCC JUMP JUMPDEST PUSH3 0x2F21 PUSH3 0x2F1A PUSH1 0x1 PUSH3 0x2D3E JUMP JUMPDEST SWAP2 PUSH1 0xFF AND SWAP1 JUMP JUMPDEST EQ SWAP1 POP PUSH3 0x2E48 JUMP JUMPDEST POP PUSH3 0x2F37 PUSH1 0x0 PUSH3 0x1BCC JUMP JUMPDEST PUSH3 0x2F47 PUSH3 0x2F1A PUSH1 0x1 PUSH3 0x2D3E JUMP JUMPDEST LT PUSH3 0x2E40 JUMP JUMPDEST PUSH3 0x3034 PUSH1 0x0 DUP1 MLOAD PUSH1 0x20 PUSH3 0x3EA5 DUP4 CODECOPY DUP2 MLOAD SWAP2 MSTORE SWAP2 PUSH3 0x2F6D PUSH3 0x3519 JUMP JUMPDEST PUSH3 0x2F77 PUSH3 0x3533 JUMP JUMPDEST PUSH3 0x2F81 PUSH3 0x355B JUMP JUMPDEST PUSH3 0x2F8E DUP2 PUSH1 0xFB PUSH3 0x11F8 JUMP JUMPDEST PUSH3 0x2FA7 PUSH3 0x2F9F PUSH2 0x1F4 PUSH3 0xCF8 JUMP JUMPDEST PUSH1 0xFD PUSH3 0x11F8 JUMP JUMPDEST PUSH3 0x2FBD PUSH3 0x2FB5 PUSH3 0x1272 JUMP JUMPDEST PUSH1 0xFE PUSH3 0xE24 JUMP JUMPDEST PUSH3 0x2FD7 PUSH3 0x2FCF PUSH3 0xED4E00 PUSH3 0xCF8 JUMP JUMPDEST PUSH1 0xFF PUSH3 0x11F8 JUMP JUMPDEST PUSH3 0x2FF2 PUSH3 0x2FE9 PUSH3 0x278D00 PUSH3 0xCF8 JUMP JUMPDEST PUSH2 0x100 PUSH3 0x11F8 JUMP JUMPDEST PUSH3 0x3001 PUSH1 0x1 PUSH2 0x101 PUSH3 0x14A1 JUMP JUMPDEST PUSH3 0x301B PUSH3 0x3012 PUSH2 0xBB8 PUSH3 0xCF8 JUMP JUMPDEST PUSH2 0x102 PUSH3 0x11F8 JUMP JUMPDEST PUSH3 0x305 PUSH3 0x302B PUSH1 0xB4 PUSH3 0xCF8 JUMP JUMPDEST PUSH2 0x103 PUSH3 0x11F8 JUMP JUMPDEST SUB SWAP1 LOG1 PUSH1 0x0 DUP1 MLOAD PUSH1 0x20 PUSH3 0x3E85 DUP4 CODECOPY DUP2 MLOAD SWAP2 MSTORE PUSH3 0x3057 PUSH3 0x305 PUSH1 0xFD PUSH3 0xCEC JUMP JUMPDEST SUB SWAP1 LOG1 PUSH1 0x0 DUP1 MLOAD PUSH1 0x20 PUSH3 0x3E65 DUP4 CODECOPY DUP2 MLOAD SWAP2 MSTORE PUSH3 0x307A PUSH3 0x2AB PUSH1 0xFE PUSH3 0x1266 JUMP JUMPDEST SUB SWAP1 LOG1 PUSH1 0x0 DUP1 MLOAD PUSH1 0x20 PUSH3 0x3EE5 DUP4 CODECOPY DUP2 MLOAD SWAP2 MSTORE PUSH3 0x3099 PUSH1 0xFF PUSH3 0xCEC JUMP JUMPDEST PUSH3 0x30A6 PUSH2 0x100 PUSH3 0xCEC JUMP JUMPDEST SWAP1 PUSH3 0x30B8 PUSH3 0x1536 PUSH2 0x101 PUSH3 0x1BCC JUMP JUMPDEST SUB SWAP1 LOG1 PUSH1 0x0 DUP1 MLOAD PUSH1 0x20 PUSH3 0x3E45 DUP4 CODECOPY DUP2 MLOAD SWAP2 MSTORE PUSH3 0x30D8 PUSH2 0x102 PUSH3 0xCEC JUMP JUMPDEST PUSH3 0x30E5 PUSH2 0x103 PUSH3 0xCEC JUMP JUMPDEST SWAP1 PUSH3 0xE93 PUSH3 0x1344 PUSH1 0x40 MLOAD SWAP1 JUMP JUMPDEST PUSH3 0x288 SWAP1 PUSH3 0x2E1F JUMP JUMPDEST ISZERO PUSH3 0x3107 JUMPI JUMP JUMPDEST PUSH1 0x40 MLOAD PUSH3 0x461BCD PUSH1 0xE5 SHL DUP2 MSTORE DUP1 PUSH3 0xE0B PUSH1 0x4 DUP3 ADD PUSH1 0x20 DUP1 DUP3 MSTORE DUP2 DUP2 ADD MSTORE PUSH32 0x4F776E61626C653A2063616C6C6572206973206E6F7420746865206F776E6572 PUSH1 0x40 DUP3 ADD MSTORE PUSH1 0x60 ADD SWAP1 JUMP JUMPDEST PUSH3 0x288 PUSH3 0x315F PUSH3 0x1272 JUMP JUMPDEST PUSH3 0x316E PUSH3 0xF8E CALLER PUSH3 0x258 JUMP JUMPDEST EQ PUSH3 0x30FF JUMP JUMPDEST PUSH3 0x264 PUSH1 0x0 PUSH3 0x3189 PUSH3 0x264 PUSH3 0x1122 JUMP JUMPDEST ADD PUSH3 0x1266 JUMP JUMPDEST POP PUSH3 0x288 PUSH3 0x3151 JUMP JUMPDEST PUSH3 0x288 SWAP1 PUSH3 0x3190 JUMP JUMPDEST PUSH3 0x264 PUSH32 0x4910FDFA16FED3260ED0E7147F7CC6DA11A60208B5B9406D12A635614FFD9143 PUSH3 0xCF8 JUMP JUMPDEST SWAP1 POP MLOAD SWAP1 PUSH3 0x288 DUP3 PUSH3 0x7F8 JUMP JUMPDEST SWAP1 PUSH1 0x20 DUP3 DUP3 SUB SLT PUSH3 0x247 JUMPI PUSH3 0x264 SWAP2 PUSH3 0x31D1 JUMP JUMPDEST ISZERO PUSH3 0x31FF JUMPI JUMP JUMPDEST PUSH1 0x40 MLOAD PUSH3 0x461BCD PUSH1 0xE5 SHL DUP2 MSTORE PUSH1 0x20 PUSH1 0x4 DUP3 ADD MSTORE PUSH1 0x29 PUSH1 0x24 DUP3 ADD MSTORE PUSH32 0x45524331393637557067726164653A20756E737570706F727465642070726F78 PUSH1 0x44 DUP3 ADD MSTORE PUSH9 0x1A58589B1955555251 PUSH1 0xBA SHL PUSH1 0x64 DUP3 ADD MSTORE PUSH1 0x84 SWAP1 REVERT JUMPDEST SWAP2 SWAP1 PUSH3 0x3273 PUSH1 0x0 PUSH3 0x326C PUSH3 0x264 PUSH3 0x31A6 JUMP JUMPDEST ADD PUSH3 0x1BCC JUMP JUMPDEST ISZERO PUSH3 0x3286 JUMPI POP POP PUSH3 0x288 SWAP1 PUSH3 0x3611 JUMP JUMPDEST PUSH3 0x3295 PUSH3 0x13D9 DUP5 PUSH3 0x3D5 JUMP JUMPDEST SWAP3 PUSH1 0x20 PUSH3 0x32A2 PUSH1 0x40 MLOAD SWAP1 JUMP JUMPDEST PUSH4 0x52D1902D PUSH1 0xE0 SHL DUP2 MSTORE SWAP5 DUP6 SWAP1 PUSH1 0x4 SWAP1 DUP3 SWAP1 GAS STATICCALL PUSH1 0x0 SWAP5 DUP2 PUSH3 0x334A JUMPI JUMPDEST POP PUSH3 0x3322 JUMPI PUSH1 0x40 MLOAD PUSH3 0x461BCD PUSH1 0xE5 SHL DUP2 MSTORE PUSH1 0x20 PUSH1 0x4 DUP3 ADD MSTORE PUSH1 0x2E PUSH1 0x24 DUP3 ADD MSTORE PUSH32 0x45524331393637557067726164653A206E657720696D706C656D656E74617469 PUSH1 0x44 DUP3 ADD MSTORE PUSH14 0x6F6E206973206E6F742055555053 PUSH1 0x90 SHL PUSH1 0x64 DUP3 ADD MSTORE PUSH1 0x84 SWAP1 REVERT JUMPDEST PUSH3 0x3344 PUSH3 0x288 SWAP5 PUSH3 0x333D PUSH3 0xD8D PUSH3 0x264 PUSH3 0x1122 JUMP JUMPDEST EQ PUSH3 0x31F7 JUMP JUMPDEST PUSH3 0x3565 JUMP JUMPDEST PUSH3 0x3372 SWAP2 SWAP6 POP PUSH1 0x20 RETURNDATASIZE PUSH1 0x20 GT PUSH3 0x337A JUMPI JUMPDEST PUSH3 0x3369 DUP2 DUP4 PUSH3 0x4A2 JUMP JUMPDEST DUP2 ADD SWAP1 PUSH3 0x31E0 JUMP JUMPDEST SWAP4 CODESIZE PUSH3 0x32C0 JUMP JUMPDEST POP RETURNDATASIZE PUSH3 0x335D JUMP JUMPDEST PUSH3 0x33AA PUSH3 0x33A3 PUSH3 0x3396 PUSH1 0x33 PUSH3 0x1266 JUMP JUMPDEST PUSH3 0x13D9 DUP5 PUSH1 0x33 PUSH3 0xE24 JUMP JUMPDEST SWAP2 PUSH3 0x3D5 JUMP JUMPDEST SWAP1 PUSH32 0x8BE0079C531659141344CD1FD0A4F28419497F9722A3DAAFE3B4186F6B6457E0 PUSH3 0x33D6 PUSH1 0x40 MLOAD SWAP1 JUMP JUMPDEST PUSH1 0x0 SWAP1 LOG3 JUMP JUMPDEST PUSH3 0x264 PUSH1 0x2 PUSH3 0xCF8 JUMP JUMPDEST ISZERO PUSH3 0x33F0 JUMPI JUMP JUMPDEST PUSH1 0x40 MLOAD PUSH3 0x461BCD PUSH1 0xE5 SHL DUP2 MSTORE PUSH1 0x20 PUSH1 0x4 DUP3 ADD MSTORE PUSH1 0x1F PUSH1 0x24 DUP3 ADD MSTORE PUSH32 0x5265656E7472616E637947756172643A207265656E7472616E742063616C6C00 PUSH1 0x44 DUP3 ADD MSTORE PUSH1 0x64 SWAP1 REVERT JUMPDEST PUSH3 0x288 PUSH3 0x3445 PUSH1 0xC9 PUSH3 0xCEC JUMP JUMPDEST PUSH3 0x345D PUSH3 0x3453 PUSH3 0x33DC JUMP JUMPDEST SWAP2 DUP3 EQ ISZERO PUSH3 0x33E8 JUMP JUMPDEST PUSH1 0xC9 PUSH3 0x11F8 JUMP JUMPDEST PUSH3 0x264 PUSH1 0x1 PUSH3 0xCF8 JUMP JUMPDEST PUSH3 0x288 PUSH3 0x345D PUSH3 0x3465 JUMP JUMPDEST EXTCODESIZE PUSH3 0x3490 PUSH3 0xD8D PUSH1 0x0 PUSH3 0xCF8 JUMP JUMPDEST GT SWAP1 JUMP JUMPDEST ISZERO PUSH3 0x349C JUMPI JUMP JUMPDEST PUSH1 0x40 MLOAD PUSH3 0x461BCD PUSH1 0xE5 SHL DUP2 MSTORE PUSH1 0x20 PUSH1 0x4 DUP3 ADD MSTORE PUSH1 0x2B PUSH1 0x24 DUP3 ADD MSTORE PUSH32 0x496E697469616C697A61626C653A20636F6E7472616374206973206E6F742069 PUSH1 0x44 DUP3 ADD MSTORE PUSH11 0x6E697469616C697A696E67 PUSH1 0xA8 SHL PUSH1 0x64 DUP3 ADD MSTORE PUSH1 0x84 SWAP1 REVERT JUMPDEST PUSH3 0x350B PUSH3 0x3505 PUSH1 0x0 PUSH3 0x2D32 JUMP JUMPDEST PUSH3 0x3494 JUMP JUMPDEST PUSH3 0x288 PUSH3 0x288 PUSH3 0x365E JUMP JUMPDEST PUSH3 0x288 PUSH3 0x34F5 JUMP JUMPDEST PUSH3 0x288 PUSH3 0x3505 PUSH1 0x0 PUSH3 0x2D32 JUMP JUMPDEST PUSH3 0x288 PUSH3 0x3523 JUMP JUMPDEST PUSH3 0x354D PUSH3 0x3505 PUSH1 0x0 PUSH3 0x2D32 JUMP JUMPDEST PUSH3 0x288 PUSH3 0x288 PUSH3 0x3682 JUMP JUMPDEST PUSH3 0x288 PUSH3 0x353D JUMP JUMPDEST SWAP2 PUSH3 0x3571 DUP4 PUSH3 0x368C JUMP JUMPDEST DUP2 MLOAD PUSH3 0x3583 PUSH3 0xD8D PUSH1 0x0 PUSH3 0xCF8 JUMP JUMPDEST GT SWAP1 DUP2 ISZERO PUSH3 0x35A5 JUMPI JUMPDEST POP PUSH3 0x3597 JUMPI POP POP JUMP JUMPDEST PUSH3 0x35A2 SWAP2 PUSH3 0x371E JUMP JUMPDEST POP JUMP JUMPDEST SWAP1 POP CODESIZE PUSH3 0x358D JUMP JUMPDEST ISZERO PUSH3 0x35B6 JUMPI JUMP JUMPDEST PUSH1 0x40 MLOAD PUSH3 0x461BCD PUSH1 0xE5 SHL DUP2 MSTORE PUSH1 0x20 PUSH1 0x4 DUP3 ADD MSTORE PUSH1 0x2D PUSH1 0x24 DUP3 ADD MSTORE PUSH32 0x455243313936373A206E657720696D706C656D656E746174696F6E206973206E PUSH1 0x44 DUP3 ADD MSTORE PUSH13 0x1BDD08184818DBDB9D1C9858DD PUSH1 0x9A SHL PUSH1 0x64 DUP3 ADD MSTORE PUSH1 0x84 SWAP1 REVERT JUMPDEST PUSH3 0x288 SWAP1 PUSH3 0x362B PUSH3 0x3625 DUP3 PUSH3 0x347F JUMP JUMPDEST PUSH3 0x35AE JUMP JUMPDEST PUSH1 0x0 PUSH3 0x363B PUSH3 0x264 PUSH3 0x1122 JUMP JUMPDEST ADD PUSH3 0xE24 JUMP JUMPDEST PUSH3 0x3652 PUSH3 0x3505 PUSH1 0x0 PUSH3 0x2D32 JUMP JUMPDEST PUSH3 0x288 DUP1 CALLER PUSH3 0x3382 JUMP JUMPDEST PUSH3 0x288 PUSH3 0x3642 JUMP JUMPDEST PUSH3 0x3678 PUSH3 0x3505 PUSH1 0x0 PUSH3 0x2D32 JUMP JUMPDEST PUSH3 0x288 PUSH3 0x3471 JUMP JUMPDEST PUSH3 0x288 PUSH3 0x3668 JUMP JUMPDEST PUSH3 0x369C SWAP1 PUSH3 0x13D9 DUP2 PUSH3 0x3611 JUMP JUMPDEST PUSH32 0xBC7CD75A20EE27FD9ADEBAB32041F755214DBC6BFFA90CC0225B39DA2E5C2D3B PUSH3 0x36C7 PUSH1 0x40 MLOAD SWAP1 JUMP JUMPDEST DUP1 DUP1 PUSH3 0x13EA JUMP JUMPDEST PUSH3 0x36DB PUSH1 0x27 PUSH3 0xC48 JUMP JUMPDEST PUSH32 0x416464726573733A206C6F772D6C6576656C2064656C65676174652063616C6C PUSH1 0x20 DUP3 ADD MSTORE PUSH7 0x819985A5B1959 PUSH1 0xCA SHL PUSH1 0x40 DUP3 ADD MSTORE SWAP1 JUMP JUMPDEST PUSH3 0x264 PUSH3 0x36CF JUMP JUMPDEST PUSH3 0x264 SWAP2 PUSH3 0x372D PUSH3 0x3714 JUMP JUMPDEST SWAP2 PUSH3 0x3756 JUMP JUMPDEST RETURNDATASIZE ISZERO PUSH3 0x3751 JUMPI PUSH3 0x3746 RETURNDATASIZE PUSH3 0xC48 JUMP JUMPDEST SWAP1 RETURNDATASIZE PUSH1 0x0 PUSH1 0x20 DUP5 ADD RETURNDATACOPY JUMP JUMPDEST PUSH1 0x60 SWAP1 JUMP JUMPDEST PUSH1 0x0 DUP1 PUSH3 0x264 SWAP5 SWAP4 PUSH3 0x3768 PUSH1 0x60 SWAP1 JUMP JUMPDEST POP PUSH1 0x20 DUP2 MLOAD SWAP2 ADD DUP5 GAS DELEGATECALL PUSH3 0x377C PUSH3 0x3734 JUMP JUMPDEST SWAP2 PUSH3 0x37D0 JUMP JUMPDEST ISZERO PUSH3 0x378B JUMPI JUMP JUMPDEST PUSH1 0x40 MLOAD PUSH3 0x461BCD PUSH1 0xE5 SHL DUP2 MSTORE PUSH1 0x20 PUSH1 0x4 DUP3 ADD MSTORE PUSH1 0x1D PUSH1 0x24 DUP3 ADD MSTORE PUSH32 0x416464726573733A2063616C6C20746F206E6F6E2D636F6E7472616374000000 PUSH1 0x44 DUP3 ADD MSTORE PUSH1 0x64 SWAP1 REVERT JUMPDEST SWAP2 SWAP3 SWAP1 ISZERO PUSH3 0x380B JUMPI POP DUP2 MLOAD PUSH3 0x37EC PUSH3 0xD8D PUSH1 0x0 PUSH3 0xCF8 JUMP JUMPDEST EQ PUSH3 0x37F6 JUMPI POP SWAP1 JUMP JUMPDEST PUSH3 0x3805 PUSH3 0x264 SWAP2 PUSH3 0x347F JUMP JUMPDEST PUSH3 0x3783 JUMP JUMPDEST DUP3 SWAP1 PUSH3 0x3816 DUP3 MLOAD SWAP1 JUMP JUMPDEST PUSH3 0x3826 PUSH3 0xD8D PUSH1 0x0 PUSH3 0xCF8 JUMP JUMPDEST GT ISZERO PUSH3 0x3836 JUMPI POP DUP1 MLOAD SWAP1 PUSH1 0x20 ADD REVERT JUMPDEST PUSH3 0xE0B SWAP1 PUSH3 0x3845 PUSH1 0x40 MLOAD SWAP1 JUMP JUMPDEST PUSH3 0x461BCD PUSH1 0xE5 SHL DUP2 MSTORE SWAP2 DUP3 SWAP2 PUSH1 0x4 DUP4 ADD PUSH3 0x79A JUMP INVALID PUSH1 0x80 PUSH1 0x40 MSTORE PUSH2 0x15 PUSH2 0xF PUSH2 0x16A JUMP JUMPDEST SWAP1 PUSH2 0x18C JUMP JUMPDEST PUSH1 0x40 MLOAD PUSH1 0xC3 PUSH2 0x526 DUP3 CODECOPY PUSH1 0xC3 SWAP1 RETURN JUMPDEST PUSH4 0x4E487B71 PUSH1 0xE0 SHL PUSH1 0x0 MSTORE PUSH1 0x41 PUSH1 0x4 MSTORE PUSH1 0x24 PUSH1 0x0 REVERT JUMPDEST SWAP1 PUSH1 0x1F ADD PUSH1 0x1F NOT AND DUP2 ADD SWAP1 DUP2 LT PUSH1 0x1 PUSH1 0x1 PUSH1 0x40 SHL SUB DUP3 GT OR PUSH2 0x5B JUMPI PUSH1 0x40 MSTORE JUMP JUMPDEST PUSH2 0x24 JUMP JUMPDEST SWAP1 PUSH2 0x74 PUSH2 0x6D PUSH1 0x40 MLOAD SWAP1 JUMP JUMPDEST SWAP3 DUP4 PUSH2 0x3A JUMP JUMPDEST JUMP JUMPDEST PUSH1 0x1 PUSH1 0x1 PUSH1 0xA0 SHL SUB AND SWAP1 JUMP JUMPDEST SWAP1 JUMP JUMPDEST PUSH2 0x8E DUP2 PUSH2 0x76 JUMP JUMPDEST SUB PUSH2 0x95 JUMPI JUMP JUMPDEST PUSH1 0x0 DUP1 REVERT JUMPDEST SWAP1 POP MLOAD SWAP1 PUSH2 0x74 DUP3 PUSH2 0x85 JUMP JUMPDEST PUSH1 0x1 PUSH1 0x1 PUSH1 0x40 SHL SUB DUP2 GT PUSH2 0x5B JUMPI PUSH1 0x20 SWAP1 PUSH1 0x1F ADD PUSH1 0x1F NOT AND ADD SWAP1 JUMP JUMPDEST ADD SWAP1 JUMP JUMPDEST PUSH1 0x0 JUMPDEST DUP4 DUP2 LT PUSH2 0xDA JUMPI POP POP PUSH1 0x0 SWAP2 ADD MSTORE JUMP JUMPDEST DUP2 DUP2 ADD MLOAD DUP4 DUP3 ADD MSTORE PUSH1 0x20 ADD PUSH2 0xCA JUMP JUMPDEST SWAP1 SWAP3 SWAP2 SWAP3 PUSH2 0xFF PUSH2 0xFA DUP3 PUSH2 0xA7 JUMP JUMPDEST PUSH2 0x60 JUMP JUMPDEST SWAP4 DUP2 DUP6 MSTORE DUP2 DUP4 ADD GT PUSH2 0x95 JUMPI PUSH2 0x74 SWAP2 PUSH1 0x20 DUP6 ADD SWAP1 PUSH2 0xC7 JUMP JUMPDEST SWAP1 DUP1 PUSH1 0x1F DUP4 ADD SLT ISZERO PUSH2 0x95 JUMPI DUP2 MLOAD PUSH2 0x82 SWAP3 PUSH1 0x20 ADD PUSH2 0xEA JUMP JUMPDEST SWAP2 SWAP1 SWAP2 PUSH1 0x40 DUP2 DUP5 SUB SLT PUSH2 0x95 JUMPI PUSH2 0x14A DUP4 DUP3 PUSH2 0x9A JUMP JUMPDEST PUSH1 0x20 DUP3 ADD MLOAD SWAP1 SWAP4 SWAP1 PUSH1 0x1 PUSH1 0x1 PUSH1 0x40 SHL SUB DUP2 GT PUSH2 0x95 JUMPI PUSH2 0x82 SWAP3 ADD PUSH2 0x119 JUMP JUMPDEST PUSH2 0x188 PUSH2 0x5E9 DUP1 CODESIZE SUB DUP1 PUSH2 0x17D DUP2 PUSH2 0x60 JUMP JUMPDEST SWAP3 DUP4 CODECOPY DUP2 ADD SWAP1 PUSH2 0x133 JUMP JUMPDEST SWAP1 SWAP2 JUMP JUMPDEST PUSH2 0x74 SWAP2 PUSH1 0x0 SWAP2 PUSH2 0x1A5 JUMP JUMPDEST PUSH2 0x82 PUSH2 0x82 PUSH2 0x82 SWAP3 SWAP1 JUMP JUMPDEST SWAP2 PUSH2 0x1AF DUP4 PUSH2 0x20E JUMP JUMPDEST DUP2 MLOAD PUSH2 0x1C2 PUSH2 0x1BE PUSH1 0x0 PUSH2 0x198 JUMP JUMPDEST SWAP2 SWAP1 JUMP JUMPDEST GT SWAP1 DUP2 ISZERO PUSH2 0x1E0 JUMPI JUMPDEST POP PUSH2 0x1D4 JUMPI POP POP JUMP JUMPDEST PUSH2 0x1DD SWAP2 PUSH2 0x2AD JUMP JUMPDEST POP JUMP JUMPDEST SWAP1 POP CODESIZE PUSH2 0x1CB JUMP JUMPDEST PUSH2 0x82 SWAP1 PUSH2 0x76 SWAP1 PUSH1 0x1 PUSH1 0x1 PUSH1 0xA0 SHL SUB AND DUP3 JUMP JUMPDEST PUSH2 0x82 SWAP1 PUSH2 0x1E8 JUMP JUMPDEST PUSH2 0x82 SWAP1 PUSH2 0x1FC JUMP JUMPDEST PUSH2 0x220 SWAP1 PUSH2 0x21B DUP2 PUSH2 0x389 JUMP JUMPDEST PUSH2 0x205 JUMP JUMPDEST PUSH32 0xBC7CD75A20EE27FD9ADEBAB32041F755214DBC6BFFA90CC0225B39DA2E5C2D3B PUSH2 0x24A PUSH1 0x40 MLOAD SWAP1 JUMP JUMPDEST PUSH1 0x0 SWAP1 LOG2 JUMP JUMPDEST SWAP1 PUSH2 0x25D PUSH2 0xFA DUP4 PUSH2 0xA7 JUMP JUMPDEST SWAP2 DUP3 MSTORE JUMP JUMPDEST PUSH2 0x26C PUSH1 0x27 PUSH2 0x250 JUMP JUMPDEST PUSH32 0x416464726573733A206C6F772D6C6576656C2064656C65676174652063616C6C PUSH1 0x20 DUP3 ADD MSTORE PUSH7 0x819985A5B1959 PUSH1 0xCA SHL PUSH1 0x40 DUP3 ADD MSTORE SWAP1 JUMP JUMPDEST PUSH2 0x82 PUSH2 0x262 JUMP JUMPDEST PUSH2 0x82 SWAP2 PUSH2 0x2B9 PUSH2 0x2A5 JUMP JUMPDEST SWAP2 PUSH2 0x3D0 JUMP JUMPDEST PUSH1 0x20 DUP1 DUP3 MSTORE PUSH1 0x2D SWAP1 DUP3 ADD MSTORE PUSH32 0x455243313936373A206E657720696D706C656D656E746174696F6E206973206E PUSH1 0x40 DUP3 ADD MSTORE PUSH13 0x1BDD08184818DBDB9D1C9858DD PUSH1 0x9A SHL PUSH1 0x60 DUP3 ADD MSTORE PUSH1 0x80 ADD SWAP1 JUMP JUMPDEST ISZERO PUSH2 0x313 JUMPI JUMP JUMPDEST PUSH1 0x40 MLOAD PUSH3 0x461BCD PUSH1 0xE5 SHL DUP2 MSTORE DUP1 PUSH2 0x32C PUSH1 0x4 DUP3 ADD PUSH2 0x2BF JUMP JUMPDEST SUB SWAP1 REVERT JUMPDEST PUSH2 0x82 PUSH32 0x360894A13BA1A3210667C828492DB98DCA3E2076CC3735A920A3CA505D382BBC PUSH2 0x198 JUMP JUMPDEST SWAP1 PUSH2 0x369 PUSH2 0x82 PUSH2 0x385 SWAP3 PUSH2 0x205 JUMP JUMPDEST DUP3 SLOAD PUSH1 0x1 PUSH1 0x1 PUSH1 0xA0 SHL SUB NOT AND PUSH1 0x1 PUSH1 0x1 PUSH1 0xA0 SHL SUB SWAP2 SWAP1 SWAP2 AND OR SWAP1 JUMP JUMPDEST SWAP1 SSTORE JUMP JUMPDEST PUSH2 0x74 SWAP1 PUSH2 0x39E PUSH2 0x399 DUP3 PUSH2 0x3F8 JUMP JUMPDEST PUSH2 0x30C JUMP JUMPDEST PUSH1 0x0 PUSH2 0x3AB PUSH2 0x82 PUSH2 0x330 JUMP JUMPDEST ADD PUSH2 0x359 JUMP JUMPDEST RETURNDATASIZE ISZERO PUSH2 0x3CB JUMPI PUSH2 0x3C0 RETURNDATASIZE PUSH2 0x250 JUMP JUMPDEST SWAP1 RETURNDATASIZE PUSH1 0x0 PUSH1 0x20 DUP5 ADD RETURNDATACOPY JUMP JUMPDEST PUSH1 0x60 SWAP1 JUMP JUMPDEST PUSH1 0x0 DUP1 PUSH2 0x82 SWAP5 SWAP4 PUSH2 0x3E0 PUSH1 0x60 SWAP1 JUMP JUMPDEST POP PUSH1 0x20 DUP2 MLOAD SWAP2 ADD DUP5 GAS DELEGATECALL PUSH2 0x3F2 PUSH2 0x3B1 JUMP JUMPDEST SWAP2 PUSH2 0x461 JUMP JUMPDEST EXTCODESIZE PUSH2 0x406 PUSH2 0x1BE PUSH1 0x0 PUSH2 0x198 JUMP JUMPDEST GT SWAP1 JUMP JUMPDEST PUSH1 0x20 DUP1 DUP3 MSTORE PUSH1 0x1D SWAP1 DUP3 ADD MSTORE PUSH32 0x416464726573733A2063616C6C20746F206E6F6E2D636F6E7472616374000000 PUSH1 0x40 DUP3 ADD MSTORE PUSH1 0x60 ADD SWAP1 JUMP JUMPDEST ISZERO PUSH2 0x448 JUMPI JUMP JUMPDEST PUSH1 0x40 MLOAD PUSH3 0x461BCD PUSH1 0xE5 SHL DUP2 MSTORE DUP1 PUSH2 0x32C PUSH1 0x4 DUP3 ADD PUSH2 0x40A JUMP JUMPDEST SWAP2 SWAP3 SWAP1 ISZERO PUSH2 0x493 JUMPI POP DUP2 MLOAD PUSH2 0x479 PUSH2 0x1BE PUSH1 0x0 PUSH2 0x198 JUMP JUMPDEST EQ PUSH2 0x482 JUMPI POP SWAP1 JUMP JUMPDEST PUSH2 0x48E PUSH2 0x82 SWAP2 PUSH2 0x3F8 JUMP JUMPDEST PUSH2 0x441 JUMP JUMPDEST DUP3 PUSH2 0x4DE JUMP JUMPDEST PUSH2 0x4BA PUSH2 0x4C3 PUSH1 0x20 SWAP4 PUSH2 0xC3 SWAP4 PUSH2 0x4AE DUP2 MLOAD SWAP1 JUMP JUMPDEST DUP1 DUP4 MSTORE SWAP4 DUP5 SWAP3 PUSH1 0x20 ADD SWAP1 JUMP JUMPDEST SWAP6 DUP7 SWAP2 ADD PUSH2 0xC7 JUMP JUMPDEST PUSH1 0x1F ADD PUSH1 0x1F NOT AND SWAP1 JUMP JUMPDEST PUSH1 0x20 DUP1 DUP3 MSTORE PUSH2 0x82 SWAP3 SWAP2 ADD SWAP1 PUSH2 0x499 JUMP JUMPDEST SWAP1 PUSH2 0x4E7 DUP3 MLOAD SWAP1 JUMP JUMPDEST PUSH2 0x4F4 PUSH2 0x1BE PUSH1 0x0 PUSH2 0x198 JUMP JUMPDEST GT ISZERO PUSH2 0x503 JUMPI POP DUP1 MLOAD SWAP1 PUSH1 0x20 ADD REVERT JUMPDEST PUSH2 0x32C SWAP1 PUSH2 0x510 PUSH1 0x40 MLOAD SWAP1 JUMP JUMPDEST PUSH3 0x461BCD PUSH1 0xE5 SHL DUP2 MSTORE SWAP2 DUP3 SWAP2 PUSH1 0x4 DUP4 ADD PUSH2 0x4CD JUMP INVALID PUSH1 0x80 PUSH1 0x40 MSTORE PUSH1 0xA PUSH1 0xE JUMP JUMPDEST PUSH1 0x17 JUMP JUMPDEST PUSH1 0x14 PUSH1 0x7C JUMP JUMPDEST SWAP1 JUMP JUMPDEST PUSH1 0x0 DUP1 SWAP2 CALLDATASIZE DUP3 DUP1 CALLDATACOPY DUP2 CALLDATASIZE SWAP2 GAS DELEGATECALL RETURNDATASIZE PUSH1 0x0 DUP1 RETURNDATACOPY ISZERO PUSH1 0x32 JUMPI RETURNDATASIZE PUSH1 0x0 RETURN JUMPDEST RETURNDATASIZE PUSH1 0x0 REVERT JUMPDEST PUSH1 0x14 PUSH1 0x14 PUSH1 0x14 SWAP3 SWAP1 JUMP JUMPDEST PUSH1 0x14 PUSH32 0x360894A13BA1A3210667C828492DB98DCA3E2076CC3735A920A3CA505D382BBC PUSH1 0x37 JUMP JUMPDEST PUSH1 0x1 PUSH1 0x1 PUSH1 0xA0 SHL SUB AND SWAP1 JUMP JUMPDEST PUSH1 0x14 SWAP1 SLOAD PUSH1 0x68 JUMP JUMPDEST PUSH1 0x14 PUSH1 0x0 PUSH1 0x88 PUSH1 0x14 PUSH1 0x41 JUMP JUMPDEST ADD PUSH1 0x74 JUMP INVALID LOG2 PUSH5 0x6970667358 0x22 SLT KECCAK256 EXP 0xD4 0xAC MLOAD PUSH3 0x9CE32F RETURN PUSH9 0x96C3191FD47FCB9B0A ADDMOD SWAP3 0xE6 0x28 EQ PUSH8 0xF168C50548841064 PUSH20 0x6F6C634300081600338EEDEE044A0C1105EE1170 PC 0xAB SWAP3 RETURNDATASIZE 0xDC 0x4C 0xD0 0xF6 SLT 0xEB 0xD4 XOR SLT 0xA5 0xB1 PUSH28 0x81093DF4CBBA887708E7D4436DD36B62187BDCED03E0B9ABE66CAF39 0x2A PUSH7 0xDD84386641B209 GASLIMIT PUSH2 0xD58 GT GASLIMIT SWAP3 0x4D 0xD7 MULMOD EXP POP OR 0xE5 CALLCODE 0xB1 0xD6 DELEGATECALL 0x22 SGT 0xBB 0x2E SWAP6 PUSH17 0x7FF86846BBFCB1CA40BD824D588484917D 0xB8 STATICCALL 0x4F 0xC8 SWAP5 0xC1 0xE0 INVALID 0xAE GAS PUSH22 0x885290BA7B97521CEBF82A8046756E6374696F6E206D PUSH22 0x73742062652063616C6C6564207468726F75676820D7 SELFDESTRUCT PUSH19 0x74B03E3EFF3F5E3F308CC4B76FD937A992C26C 0xB9 BYTE DUP1 0xE3 0x28 0xDC 0xE4 0xAB CALLER CODESIZE LOG2 PUSH5 0x6970667358 0x22 SLT KECCAK256 PUSH0 PUSH17 0xF06B736694C6A1287404C97B9F43F5FE3A 0x29 0x24 GASPRICE 0x5E 0xE8 AND 0xC1 GT 0xD5 0xCB 0xA7 0xC0 0xE7 PUSH5 0x736F6C6343 STOP ADDMOD AND STOP CALLER "},"methodIdentifiers":{"VERSION()":"ffa1ad74","configureLiquidityDefaults(uint256,uint256)":"a2afdb99","configurePlatformFeeVesting(uint256,uint256,bool)":"d5340141","createToken((string,string,uint256,uint256,address,bool,bool,uint256,uint256,uint256,uint256,uint256,uint256,uint256,uint256,uint256,uint256,uint256,uint256))":"e37fce8c","customDeploymentFees(address)":"c05ddda8","defaultLiquidityLockDuration()":"b6193775","defaultLiquidityPercentage()":"e379dcaf","deployedTokens(uint256)":"ec81aadb","deploymentFee()":"f2cff57f","getDeployedTokensCount()":"25f1be1f","getDeploymentFee(address)":"1652da42","getTemplateImplementation()":"0d1ded89","getTokenVersion(address)":"a78fae8e","initialize(uint256)":"fe4b84df","owner()":"8da5cb5b","platformFeeCliffDuration()":"113d478b","platformFeePercentage()":"cdd78cfc","platformFeeRecipient()":"eb13554f","platformFeeVestingDuration()":"420fc210","platformFeeVestingEnabled()":"fadcac27","proxiableUUID()":"52d1902d","renounceOwnership()":"715018a6","setCustomDeploymentFee(address,uint256)":"cbf1208f","setDeploymentFee(uint256)":"d002462b","setPlatformFeePercentage(uint256)":"8333903e","setPlatformFeeRecipient(address)":"1871e243","tokenImplementation()":"2f3a3d5d","tokenVersions(address)":"545e7348","transferOwnership(address)":"f2fde38b","upgradeTo(address)":"3659cfe6","upgradeToAndCall(address,bytes)":"4f1ef286"}}}}}