{
  "_format": "hh-sol-artifact-1",
  "contractName": "FairLaunch_v1",
  "sourceName": "src/contracts/FairLaunch_v1.sol",
  "abi": [
    {
      "inputs": [
        {
          "internalType": "address",
          "name": "_token",
          "type": "address"
        },
        {
          "internalType": "uint256",
          "name": "_totalSellingAmount",
          "type": "uint256"
        },
        {
          "internalType": "uint256",
          "name": "_softCap",
          "type": "uint256"
        },
        {
          "internalType": "uint256",
          "name": "_maxContributionPerUser",
          "type": "uint256"
        },
        {
          "internalType": "uint256",
          "name": "_liquidityPercent",
          "type": "uint256"
        },
        {
          "internalType": "uint256",
          "name": "_startTime",
          "type": "uint256"
        },
        {
          "internalType": "uint256",
          "name": "_endTime",
          "type": "uint256"
        },
        {
          "internalType": "uint256",
          "name": "_liquidityLockTime",
          "type": "uint256"
        },
        {
          "internalType": "address",
          "name": "_router",
          "type": "address"
        }
      ],
      "stateMutability": "nonpayable",
      "type": "constructor"
    },
    {
      "anonymous": false,
      "inputs": [
        {
          "indexed": true,
          "internalType": "address",
          "name": "user",
          "type": "address"
        },
        {
          "indexed": false,
          "internalType": "uint256",
          "name": "amount",
          "type": "uint256"
        }
      ],
      "name": "Contributed",
      "type": "event"
    },
    {
      "anonymous": false,
      "inputs": [
        {
          "indexed": true,
          "internalType": "address",
          "name": "token",
          "type": "address"
        },
        {
          "indexed": false,
          "internalType": "uint256",
          "name": "totalSellingAmount",
          "type": "uint256"
        },
        {
          "indexed": false,
          "internalType": "uint256",
          "name": "softCap",
          "type": "uint256"
        },
        {
          "indexed": false,
          "internalType": "uint256",
          "name": "startTime",
          "type": "uint256"
        },
        {
          "indexed": false,
          "internalType": "uint256",
          "name": "endTime",
          "type": "uint256"
        }
      ],
      "name": "FairLaunchCreated",
      "type": "event"
    },
    {
      "anonymous": false,
      "inputs": [
        {
          "indexed": false,
          "internalType": "uint256",
          "name": "totalRaised",
          "type": "uint256"
        },
        {
          "indexed": false,
          "internalType": "uint256",
          "name": "liquidityAdded",
          "type": "uint256"
        }
      ],
      "name": "Finalized",
      "type": "event"
    },
    {
      "anonymous": false,
      "inputs": [
        {
          "indexed": true,
          "internalType": "address",
          "name": "previousOwner",
          "type": "address"
        },
        {
          "indexed": true,
          "internalType": "address",
          "name": "newOwner",
          "type": "address"
        }
      ],
      "name": "OwnershipTransferred",
      "type": "event"
    },
    {
      "anonymous": false,
      "inputs": [
        {
          "indexed": false,
          "internalType": "address",
          "name": "account",
          "type": "address"
        }
      ],
      "name": "Paused",
      "type": "event"
    },
    {
      "anonymous": false,
      "inputs": [
        {
          "indexed": true,
          "internalType": "address",
          "name": "user",
          "type": "address"
        },
        {
          "indexed": false,
          "internalType": "uint256",
          "name": "amount",
          "type": "uint256"
        }
      ],
      "name": "Refunded",
      "type": "event"
    },
    {
      "anonymous": false,
      "inputs": [
        {
          "indexed": false,
          "internalType": "address",
          "name": "account",
          "type": "address"
        }
      ],
      "name": "Unpaused",
      "type": "event"
    },
    {
      "inputs": [],
      "name": "claimRefund",
      "outputs": [],
      "stateMutability": "nonpayable",
      "type": "function"
    },
    {
      "inputs": [],
      "name": "contribute",
      "outputs": [],
      "stateMutability": "payable",
      "type": "function"
    },
    {
      "inputs": [
        {
          "internalType": "address",
          "name": "",
          "type": "address"
        }
      ],
      "name": "contributions",
      "outputs": [
        {
          "internalType": "uint256",
          "name": "",
          "type": "uint256"
        }
      ],
      "stateMutability": "view",
      "type": "function"
    },
    {
      "inputs": [],
      "name": "emergencyWithdraw",
      "outputs": [],
      "stateMutability": "nonpayable",
      "type": "function"
    },
    {
      "inputs": [
        {
          "internalType": "address",
          "name": "token",
          "type": "address"
        }
      ],
      "name": "emergencyWithdrawToken",
      "outputs": [],
      "stateMutability": "nonpayable",
      "type": "function"
    },
    {
      "inputs": [],
      "name": "fairLaunchInfo",
      "outputs": [
        {
          "internalType": "contract IERC20",
          "name": "token",
          "type": "address"
        },
        {
          "internalType": "uint256",
          "name": "totalSellingAmount",
          "type": "uint256"
        },
        {
          "internalType": "uint256",
          "name": "softCap",
          "type": "uint256"
        },
        {
          "internalType": "uint256",
          "name": "maxContributionPerUser",
          "type": "uint256"
        },
        {
          "internalType": "uint256",
          "name": "liquidityPercent",
          "type": "uint256"
        },
        {
          "internalType": "uint256",
          "name": "startTime",
          "type": "uint256"
        },
        {
          "internalType": "uint256",
          "name": "endTime",
          "type": "uint256"
        },
        {
          "internalType": "uint256",
          "name": "liquidityLockTime",
          "type": "uint256"
        },
        {
          "internalType": "bool",
          "name": "finalized",
          "type": "bool"
        },
        {
          "internalType": "uint256",
          "name": "totalContributed",
          "type": "uint256"
        },
        {
          "internalType": "address",
          "name": "router",
          "type": "address"
        }
      ],
      "stateMutability": "view",
      "type": "function"
    },
    {
      "inputs": [],
      "name": "finalize",
      "outputs": [],
      "stateMutability": "nonpayable",
      "type": "function"
    },
    {
      "inputs": [],
      "name": "owner",
      "outputs": [
        {
          "internalType": "address",
          "name": "",
          "type": "address"
        }
      ],
      "stateMutability": "view",
      "type": "function"
    },
    {
      "inputs": [],
      "name": "pause",
      "outputs": [],
      "stateMutability": "nonpayable",
      "type": "function"
    },
    {
      "inputs": [],
      "name": "paused",
      "outputs": [
        {
          "internalType": "bool",
          "name": "",
          "type": "bool"
        }
      ],
      "stateMutability": "view",
      "type": "function"
    },
    {
      "inputs": [],
      "name": "renounceOwnership",
      "outputs": [],
      "stateMutability": "nonpayable",
      "type": "function"
    },
    {
      "inputs": [
        {
          "internalType": "address",
          "name": "newOwner",
          "type": "address"
        }
      ],
      "name": "transferOwnership",
      "outputs": [],
      "stateMutability": "nonpayable",
      "type": "function"
    },
    {
      "inputs": [],
      "name": "unpause",
      "outputs": [],
      "stateMutability": "nonpayable",
      "type": "function"
    }
  ],
  "bytecode": "0x60803461031a576001600160401b0390601f610ffd38819003918201601f19168301918483118484101761020c578084926101209460405283398101031261031a5761004a8161031f565b9160208201519260408301519260608101519060808101519460a08201519160c08101519361008161010060e0840151930161031f565b916001600055600154604051903360018060a01b0382167f8be0079c531659141344cd1fd0a4f28419497f9722a3daafe3b4186f6b6457e0600080a36001600160a81b0319163360ff60a01b19161760015560198a10158061030f575b156102cd575042851115610293578486111561025b578015610222576040519788610160810110906101608a01111761020c577f998e2f8323861e03bd815862a29c32494f89196f6be3b60e5b146892590b318d98886101409461016060809b0160405260018060a01b038a1682528c6020830152866040830152846060830152828b8301528760a08301528860c08301528360e08301526000610100830152600061012083015260018060a01b0316948591015260018060a01b03199260018060a01b0389168460025416176002558b60035585600455600555600655846007558560085560095560ff19600a5416600a556000600b55600c541617600c5560405196875260208701526040860152606085015260018060a01b031692a2604051610cc990816103348239f35b634e487b7160e01b600052604160045260246000fd5b60405162461bcd60e51b8152602060048201526011602482015270496e76616c6964206c6f636b2074696d6560781b6044820152606490fd5b60405162461bcd60e51b815260206004820152601060248201526f496e76616c696420656e642074696d6560801b6044820152606490fd5b60405162461bcd60e51b8152602060048201526012602482015271496e76616c69642073746172742074696d6560701b6044820152606490fd5b62461bcd60e51b815260206004820152601960248201527f496e76616c6964206c69717569646974792070657263656e74000000000000006044820152606490fd5b5060648a11156100de565b600080fd5b51906001600160a01b038216820361031a5756fe60406080815260048036101561001457600080fd5b600091823560e01c8381631af0320314610978575080632f7ad55f146108f15780633f4ba83a1461085557806342e94c901461081b5780634bb278f3146105be5780635c975abb14610597578063715018a6146105375780638456cb59146104d65780638da5cb5b146104ad578063b5545a3c1461036c578063d7bb99ba146101e9578063db2e21bc146101865763f2fde38b146100b157600080fd5b34610182576020366003190112610182576001600160a01b0382358181169391929084900361017e576100e2610b9e565b831561012c575050600154826bffffffffffffffffffffffff60a01b821617600155167f8be0079c531659141344cd1fd0a4f28419497f9722a3daafe3b4186f6b6457e08380a380f35b906020608492519162461bcd60e51b8352820152602660248201527f4f776e61626c653a206e6577206f776e657220697320746865207a65726f206160448201526564647265737360d01b6064820152fd5b8480fd5b8280fd5b8382346101e557816003193601126101e5576101a0610b9e565b6101af60ff600a541615610a9b565b8180808060018060a01b036001541647908282156101dc575bf1156101d2575080f35b51903d90823e3d90fd5b506108fc6101c8565b5080fd5b509082600319360112610182576101fe610bf6565b610206610c4c565b600754421061033c5760085442116103125761022760ff600a541615610b66565b34156102dc57338352600d6020526102423483852054610b59565b9060055482116102995750338352600d6020528183205561026534600b54610b59565b600b55513481527f62722348256371b5147820d6cad90c40fd2da1ccee18c3ed52c0bca5a61dbbab60203392a26001815580f35b606490602084519162461bcd60e51b8352820152601860248201527f45786365656473206d617820636f6e747269627574696f6e00000000000000006044820152fd5b6020606492519162461bcd60e51b835282015260116024820152702d32b9379031b7b73a3934b13aba34b7b760791b6044820152fd5b6020606492519162461bcd60e51b83528201526005602482015264115b99195960da1b6044820152fd5b6020606492519162461bcd60e51b8352820152600b60248201526a139bdd081cdd185c9d195960aa1b6044820152fd5b5034610182578260031936011261018257610385610bf6565b60085442111561047e5761039e60ff600a541615610b66565b600b548254111561044957338352600d602052808320549182156104135750338352600d602052828181205582808080853382f11561040857519081527fd7dee2702d63ad89917b6a4da9981c90c4d24f8c2bdfd64c604ecae57d8d065160203392a26001815580f35b51913d9150823e3d90fd5b6020606492519162461bcd60e51b83528201526011602482015270139bdd1a1a5b99c81d1bc81c99599d5b99607a1b6044820152fd5b906020606492519162461bcd60e51b8352820152600f60248201526e14dbd99d18d85c081c995858da1959608a1b6044820152fd5b906020606492519162461bcd60e51b83528201526009602482015268139bdd08195b99195960ba1b6044820152fd5b8382346101e557816003193601126101e55760015490516001600160a01b039091168152602090f35b8382346101e557816003193601126101e55760207f62e78cea01bee320cd4e420270b5ea74000d11b0c9f74754ebdbfc544b05a25891610514610b9e565b61051c610c4c565b6001805460ff60a01b1916600160a01b17905551338152a180f35b8334610594578060031936011261059457610550610b9e565b600180546001600160a01b0319811690915581906001600160a01b03167f8be0079c531659141344cd1fd0a4f28419497f9722a3daafe3b4186f6b6457e08280a380f35b80fd5b8382346101e557816003193601126101e55760209060ff60015460a01c1690519015158152f35b50346101825782600319360112610182576105d7610bf6565b6105df610b9e565b6008544211801561080d575b156107d457600a549161060160ff841615610a9b565b600b54928154841061079b5760019060ff191617600a5560646106358161062b6006548097610b30565b0494600354610b30565b600c54600254855163095ea7b360e01b81526001600160a01b039283168187018181529590940460208681018290529096949591929091839185169082908c90829060400103925af1801561079157610762575b50600254169161012c420180421161074f57918660c492606095948851978896879563f305d71960e01b875286015260248501528a60448501528a606485015230608485015260a48401525af180156107455761071a575b507fb968440accd1ce5fa60b00de8bb8d8487eb2fda3c3701fb30fea3f69aa910a4891600b549082519182526020820152a16001815580f35b606090813d831161073e575b6107308183610adb565b8101031261018257386106e1565b503d610726565b82513d86823e3d90fd5b634e487b7160e01b885260118352602488fd5b6107839060203d60201161078a575b61077b8183610adb565b810190610b13565b5038610689565b503d610771565b86513d8a823e3d90fd5b506020606492519162461bcd60e51b8352820152601360248201527214dbd99d18d85c081b9bdd081c995858da1959606a1b6044820152fd5b906020606492519162461bcd60e51b8352820152601360248201527210d85b9b9bdd08199a5b985b1a5e99481e595d606a1b6044820152fd5b50600b5460035411156105eb565b50903461018257602036600319011261018257356001600160a01b038116908190036101825782829160209452600d845220549051908152f35b50903461018257826003193601126101825761086f610b9e565b6001549060ff8260a01c16156108b7575060ff60a01b1916600155513381527f5db9ee0a495bf2e6ff9c91a7834c1ba4fdd244a5e8aa4e537bd38aeae4b073aa90602090a180f35b606490602084519162461bcd60e51b8352820152601460248201527314185d5cd8589b194e881b9bdd081c185d5cd95960621b6044820152fd5b509034610182578260031936011261018257610160925060018060a01b03806002541692600354925460055460065460075490600854926009549460ff600a541696600b5498600c54169981519b8c5260208c01528a01526060890152608088015260a087015260c086015260e08501521515610100840152610120830152610140820152f35b919050346101e557602092836003193601126101825780356001600160a01b038181169182900361017e576109ab610b9e565b6109ba60ff600a541615610a9b565b600154168351926370a0823160e01b845230818501528684602481865afa938415610a91579087949392918794610a58575b50855163a9059cbb60e01b81526001600160a01b03909216908201908152602081019390935294859283919082906040015b03925af1908115610a4f5750610a32578280f35b81610a4892903d1061078a5761077b8183610adb565b5038808280f35b513d85823e3d90fd5b8581969295503d8311610a8a575b610a708183610adb565b81010312610a8657925186939092610a1e6109ec565b8580fd5b503d610a66565b85513d88823e3d90fd5b15610aa257565b60405162461bcd60e51b8152602060048201526011602482015270105b1c9958591e48199a5b985b1a5e9959607a1b6044820152606490fd5b90601f8019910116810190811067ffffffffffffffff821117610afd57604052565b634e487b7160e01b600052604160045260246000fd5b90816020910312610b2b57518015158103610b2b5790565b600080fd5b81810292918115918404141715610b4357565b634e487b7160e01b600052601160045260246000fd5b91908201809211610b4357565b15610b6d57565b60405162461bcd60e51b8152602060048201526009602482015268119a5b985b1a5e995960ba1b6044820152606490fd5b6001546001600160a01b03163303610bb257565b606460405162461bcd60e51b815260206004820152602060248201527f4f776e61626c653a2063616c6c6572206973206e6f7420746865206f776e65726044820152fd5b600260005414610c07576002600055565b60405162461bcd60e51b815260206004820152601f60248201527f5265656e7472616e637947756172643a207265656e7472616e742063616c6c006044820152606490fd5b60ff60015460a01c16610c5b57565b60405162461bcd60e51b815260206004820152601060248201526f14185d5cd8589b194e881c185d5cd95960821b6044820152606490fdfea26469706673582212208204ae794c44ef53e0eb75529fc58bab7554f7f87f973f519d52aff1a6e3d27e64736f6c63430008160033",
  "linkReferences": {},
  "deployedLinkReferences": {}
}