{
  "_format": "hh-sol-artifact-1",
  "contractName": "LoanPoolFactory",
  "sourceName": "contracts/defi/LoanPoolFactory.sol",
  "abi": [
    {
      "inputs": [
        {
          "internalType": "address",
          "name": "_implementation",
          "type": "address"
        },
        {
          "internalType": "address",
          "name": "_priceOracle",
          "type": "address"
        },
        {
          "internalType": "address",
          "name": "_interestRateModel",
          "type": "address"
        },
        {
          "internalType": "address",
          "name": "_feeCollector",
          "type": "address"
        }
      ],
      "stateMutability": "nonpayable",
      "type": "constructor"
    },
    {
      "anonymous": false,
      "inputs": [
        {
          "indexed": false,
          "internalType": "string",
          "name": "message",
          "type": "string"
        },
        {
          "indexed": false,
          "internalType": "address",
          "name": "sender",
          "type": "address"
        },
        {
          "indexed": false,
          "internalType": "address",
          "name": "owner",
          "type": "address"
        }
      ],
      "name": "DebugLog",
      "type": "event"
    },
    {
      "anonymous": false,
      "inputs": [
        {
          "indexed": true,
          "internalType": "address",
          "name": "oldModel",
          "type": "address"
        },
        {
          "indexed": true,
          "internalType": "address",
          "name": "newModel",
          "type": "address"
        }
      ],
      "name": "InterestRateModelUpdated",
      "type": "event"
    },
    {
      "anonymous": false,
      "inputs": [
        {
          "indexed": true,
          "internalType": "address",
          "name": "previousOwner",
          "type": "address"
        },
        {
          "indexed": true,
          "internalType": "address",
          "name": "newOwner",
          "type": "address"
        }
      ],
      "name": "OwnershipTransferred",
      "type": "event"
    },
    {
      "anonymous": false,
      "inputs": [
        {
          "indexed": true,
          "internalType": "address",
          "name": "asset",
          "type": "address"
        },
        {
          "indexed": true,
          "internalType": "address",
          "name": "pool",
          "type": "address"
        },
        {
          "indexed": false,
          "internalType": "string",
          "name": "name",
          "type": "string"
        },
        {
          "indexed": false,
          "internalType": "string",
          "name": "symbol",
          "type": "string"
        }
      ],
      "name": "PoolCreated",
      "type": "event"
    },
    {
      "anonymous": false,
      "inputs": [
        {
          "indexed": true,
          "internalType": "address",
          "name": "oldOracle",
          "type": "address"
        },
        {
          "indexed": true,
          "internalType": "address",
          "name": "newOracle",
          "type": "address"
        }
      ],
      "name": "PriceOracleUpdated",
      "type": "event"
    },
    {
      "inputs": [
        {
          "internalType": "uint256",
          "name": "",
          "type": "uint256"
        }
      ],
      "name": "allPools",
      "outputs": [
        {
          "internalType": "address",
          "name": "",
          "type": "address"
        }
      ],
      "stateMutability": "view",
      "type": "function"
    },
    {
      "inputs": [
        {
          "internalType": "address",
          "name": "",
          "type": "address"
        }
      ],
      "name": "assetToPools",
      "outputs": [
        {
          "internalType": "address",
          "name": "",
          "type": "address"
        }
      ],
      "stateMutability": "view",
      "type": "function"
    },
    {
      "inputs": [
        {
          "internalType": "address",
          "name": "_asset",
          "type": "address"
        },
        {
          "internalType": "string",
          "name": "_name",
          "type": "string"
        },
        {
          "internalType": "string",
          "name": "_symbol",
          "type": "string"
        },
        {
          "internalType": "uint256",
          "name": "_collateralFactorBps",
          "type": "uint256"
        },
        {
          "internalType": "uint256",
          "name": "_reserveFactorBps",
          "type": "uint256"
        }
      ],
      "name": "createLendingPool",
      "outputs": [
        {
          "internalType": "address",
          "name": "",
          "type": "address"
        }
      ],
      "stateMutability": "payable",
      "type": "function"
    },
    {
      "inputs": [],
      "name": "feeCollector",
      "outputs": [
        {
          "internalType": "address",
          "name": "",
          "type": "address"
        }
      ],
      "stateMutability": "view",
      "type": "function"
    },
    {
      "inputs": [],
      "name": "getAllPools",
      "outputs": [
        {
          "internalType": "address[]",
          "name": "",
          "type": "address[]"
        }
      ],
      "stateMutability": "view",
      "type": "function"
    },
    {
      "inputs": [],
      "name": "getPoolCount",
      "outputs": [
        {
          "internalType": "uint256",
          "name": "",
          "type": "uint256"
        }
      ],
      "stateMutability": "view",
      "type": "function"
    },
    {
      "inputs": [],
      "name": "implementation",
      "outputs": [
        {
          "internalType": "address",
          "name": "",
          "type": "address"
        }
      ],
      "stateMutability": "view",
      "type": "function"
    },
    {
      "inputs": [],
      "name": "interestRateModel",
      "outputs": [
        {
          "internalType": "address",
          "name": "",
          "type": "address"
        }
      ],
      "stateMutability": "view",
      "type": "function"
    },
    {
      "inputs": [],
      "name": "owner",
      "outputs": [
        {
          "internalType": "address",
          "name": "",
          "type": "address"
        }
      ],
      "stateMutability": "view",
      "type": "function"
    },
    {
      "inputs": [],
      "name": "priceOracle",
      "outputs": [
        {
          "internalType": "address",
          "name": "",
          "type": "address"
        }
      ],
      "stateMutability": "view",
      "type": "function"
    },
    {
      "inputs": [],
      "name": "renounceOwnership",
      "outputs": [],
      "stateMutability": "nonpayable",
      "type": "function"
    },
    {
      "inputs": [
        {
          "internalType": "address",
          "name": "_newModel",
          "type": "address"
        }
      ],
      "name": "setInterestRateModel",
      "outputs": [],
      "stateMutability": "nonpayable",
      "type": "function"
    },
    {
      "inputs": [
        {
          "internalType": "address",
          "name": "_newOracle",
          "type": "address"
        }
      ],
      "name": "setPriceOracle",
      "outputs": [],
      "stateMutability": "nonpayable",
      "type": "function"
    },
    {
      "inputs": [
        {
          "internalType": "address",
          "name": "newOwner",
          "type": "address"
        }
      ],
      "name": "transferOwnership",
      "outputs": [],
      "stateMutability": "nonpayable",
      "type": "function"
    }
  ],
  "bytecode": "0x60a03461021057601f6110d438819003918201601f191683019291906001600160401b038411838510176102155781608092849260409687528339810103126102105761004b8161022b565b906100586020820161022b565b90610070606061006986840161022b565b920161022b565b600080546001600160a01b0319808216339081178455885191969495946001600160a01b039490938516907f8be0079c531659141344cd1fd0a4f28419497f9722a3daafe3b4186f6b6457e09080a3828716156101ce57508116918215610199578116928315610160571693841561011c57608052826003541617600355816004541617600455600554161760055551610e94908161024082396080518181816105040152610b440152f35b855162461bcd60e51b815260206004820152601560248201527f496e76616c69642066656520636f6c6c6563746f7200000000000000000000006044820152606490fd5b865162461bcd60e51b8152602060048201526012602482015271125b9d985b1a59081c985d19481b5bd9195b60721b6044820152606490fd5b865162461bcd60e51b815260206004820152600e60248201526d496e76616c6964206f7261636c6560901b6044820152606490fd5b62461bcd60e51b815260206004820152601660248201527f496e76616c696420696d706c656d656e746174696f6e000000000000000000006044820152606490fd5b600080fd5b634e487b7160e01b600052604160045260246000fd5b51906001600160a01b03821682036102105756fe608080604052600436101561001357600080fd5b600090813560e01c9081632630c12f14610c665750806341d1de9714610c22578063530e784f14610b735780635c60da1b14610b2e578063715018a614610ad45780638807694e146103ca5780638bcd40161461031c5780638da5cb5b146102f55780638eec5d70146102d75780639c3798c81461029b578063c415b95c14610272578063d88ff1f4146101ac578063f2fde38b146100e65763f3fdb15a146100bb57600080fd5b346100e357806003193601126100e3576004546040516001600160a01b039091168152602090f35b80fd5b50346100e35760203660031901126100e357610100610cdc565b610108610de6565b6001600160a01b0390811690811561015857600054826001600160601b0360a01b821617600055167f8be0079c531659141344cd1fd0a4f28419497f9722a3daafe3b4186f6b6457e0600080a380f35b60405162461bcd60e51b815260206004820152602660248201527f4f776e61626c653a206e6577206f776e657220697320746865207a65726f206160448201526564647265737360d01b6064820152608490fd5b50346100e357806003193601126100e35760405180916002549081835260208093018092600283527f405787fa12a823e0f2b7631cc41b3ba8828b3321ca811111fa75cd3aa3bb5ace90835b818110610255575050508461020e910385610d21565b60405193838594850191818652518092526040850193925b82811061023557505050500390f35b83516001600160a01b031685528695509381019392810192600101610226565b82546001600160a01b0316845292860192600192830192016101f8565b50346100e357806003193601126100e3576005546040516001600160a01b039091168152602090f35b50346100e35760203660031901126100e3576020906001600160a01b0390604090826102c5610cdc565b16815260018452205416604051908152f35b50346100e357806003193601126100e3576020600254604051908152f35b50346100e357806003193601126100e357546040516001600160a01b039091168152602090f35b50346100e35760203660031901126100e357610336610cdc565b61033e610de6565b6001600160a01b0390811690811561038d57600454826001600160601b0360a01b821617600455167fdace1576ba731b4c76870b86217414c265c1ae95c55027d50dc19dab5feb99198380a380f35b60405162461bcd60e51b8152602060048201526015602482015274496e76616c6964206d6f64656c206164647265737360581b6044820152606490fd5b5060a03660031901126100e3576103df610cdc565b9067ffffffffffffffff602435818111610ad057610401903690600401610d5f565b90604435908111610ad05761041a903690600401610d5f565b92610423610de6565b600080516020610e3f83398151915260a0600180821b038554166040519060608252600d60608301526c10dc99585d1a5b99c81c1bdbdb609a1b60808301523360208301526040820152a16001600160a01b0381811684526001602052604084205416610a95576001600160a01b03811615610a58576127108060643511610a1357608435116109d557600554604051636b2e841d60e01b8152906001600160a01b0316602082600481845afa91821561095a5785926109a1575b50813410610969578161091d575b503481340311610909578084913403610892575b50507f0000000000000000000000000000000000000000000000000000000000000000608881901c62ffffff16763d602d80600a3d3981f3363d3d373d3d3d363d7300000017845260781b6e5af43d82803e903d91602b57fd5bf3176020526001600160a01b036037600985f01692831561085457600080516020610e3f83398151915260a0600180821b038354166040519060608252600b60608301526a141bdbdb0818db1bdb995960aa1b60808301523360208301526040820152a16003546004546005546001600160a01b03928316929081169116863b15610850576040516336f9323960e01b81526001600160a01b0386166004820152610100602482015292849284928392919061062f61061d61010486018c610da6565b8581036003190160448701528d610da6565b926064356064860152608435608486015260a485015260c484015260e4830152038183895af180156108315790829161083c575b5050600080516020610e3f83398151915260a0600180821b038354166040519060608252601060608301526f141bdbdb081a5b9a5d1a585b1a5e995960821b60808301523360208301526040820152a1833b156100e35760405163f2fde38b60e01b8152336004820152818160248183895af180156108315790829161081d575b5050600080516020610e3f83398151915260a0600180821b038354166040519060608252601a60608301527f506f6f6c206f776e657273686970207472616e7366657272656400000000000060808301523360208301526040820152a16001600160a01b038216815260016020526040812080546001600160a01b03191685179055600254906801000000000000000082101561080957506107e684936107fe602097946107b98560017f02e6c36b9d8c15cf5bdbf15aab788b11e1ffa8a4617731758ea3b1ef6d7754db9701600255610c8f565b81549060031b9089821b9160018060a01b03901b1916179055604051938493604085526040850190610da6565b8381038a8501526001600160a01b0390911695610da6565b0390a3604051908152f35b634e487b7160e01b81526041600452602490fd5b61082690610cf7565b6100e35780386106e4565b6040513d84823e3d90fd5b61084590610cf7565b6100e3578038610663565b8380fd5b60405162461bcd60e51b8152602060048201526016602482015275115490cc4c4d8dce8818dc99585d194819985a5b195960521b6044820152606490fd5b818080923403335af13d15610904573d6108ab81610d43565b906108b96040519283610d21565b81528460203d92013e5b156108cf578238610500565b60405162461bcd60e51b815260206004820152600d60248201526c1499599d5b990819985a5b1959609a1b6044820152606490fd5b6108c3565b634e487b7160e01b84526011600452602484fd5b803b15610965578482916004604051809481936301cb26bf60e61b83525af1801561095a57156104ec5761095390949194610cf7565b92386104ec565b6040513d87823e3d90fd5b8480fd5b60405162461bcd60e51b815260206004820152601060248201526f496e73756666696369656e742066656560801b6044820152606490fd5b9091506020813d6020116109cd575b816109bd60209383610d21565b81010312610965575190386104de565b3d91506109b0565b60405162461bcd60e51b815260206004820152601660248201527524b73b30b634b2103932b9b2b93b32903330b1ba37b960511b6044820152606490fd5b60405162461bcd60e51b815260206004820152601960248201527f496e76616c696420636f6c6c61746572616c20666163746f72000000000000006044820152606490fd5b60405162461bcd60e51b8152602060048201526015602482015274496e76616c6964206173736574206164647265737360581b6044820152606490fd5b60405162461bcd60e51b8152602060048201526013602482015272506f6f6c20616c72656164792065786973747360681b6044820152606490fd5b8280fd5b50346100e357806003193601126100e357610aed610de6565b80546001600160a01b03198116825581906001600160a01b03167f8be0079c531659141344cd1fd0a4f28419497f9722a3daafe3b4186f6b6457e08280a380f35b50346100e357806003193601126100e3576040517f00000000000000000000000000000000000000000000000000000000000000006001600160a01b03168152602090f35b50346100e35760203660031901126100e357610b8d610cdc565b610b95610de6565b6001600160a01b03908116908115610be457600354826001600160601b0360a01b821617600355167f56b5f80d8cac1479698aa7d01605fd6111e90b15fc4d2b377417f46034876cbd8380a380f35b60405162461bcd60e51b8152602060048201526016602482015275496e76616c6964206f7261636c65206164647265737360501b6044820152606490fd5b50346100e35760203660031901126100e357600435906002548210156100e3576020610c4d83610c8f565b905460405160039290921b1c6001600160a01b03168152f35b905034610c8b5781600319360112610c8b576003546001600160a01b03168152602090f35b5080fd5b600254811015610cc65760026000527f405787fa12a823e0f2b7631cc41b3ba8828b3321ca811111fa75cd3aa3bb5ace0190600090565b634e487b7160e01b600052603260045260246000fd5b600435906001600160a01b0382168203610cf257565b600080fd5b67ffffffffffffffff8111610d0b57604052565b634e487b7160e01b600052604160045260246000fd5b90601f8019910116810190811067ffffffffffffffff821117610d0b57604052565b67ffffffffffffffff8111610d0b57601f01601f191660200190565b81601f82011215610cf257803590610d7682610d43565b92610d846040519485610d21565b82845260208383010111610cf257816000926020809301838601378301015290565b919082519283825260005b848110610dd2575050826000602080949584010152601f8019910116010190565b602081830181015184830182015201610db1565b6000546001600160a01b03163303610dfa57565b606460405162461bcd60e51b815260206004820152602060248201527f4f776e61626c653a2063616c6c6572206973206e6f7420746865206f776e65726044820152fdfeabd72141767f72cfd7c24dd6bead76fe5bbb725957b4568000c0597f4caace5ba2646970667358221220f61519e218ce987c0414719556c338aaaba685c687dc252d9536442293e47bc164736f6c63430008160033",
  "linkReferences": {},
  "deployedLinkReferences": {}
}