{
  "_format": "hh-sol-artifact-1",
  "contractName": "V4FactoryWithLiquidityFixedV4",
  "sourceName": "contracts/V4FactoryWithLiquidityFixedV4.sol",
  "abi": [
    {
      "inputs": [
        {
          "internalType": "address",
          "name": "owner_",
          "type": "address"
        },
        {
          "internalType": "address",
          "name": "tokenImpl_",
          "type": "address"
        },
        {
          "internalType": "address",
          "name": "securityModuleImpl_",
          "type": "address"
        },
        {
          "internalType": "address",
          "name": "distributionModuleImpl_",
          "type": "address"
        },
        {
          "internalType": "address",
          "name": "liquidityModuleImpl_",
          "type": "address"
        }
      ],
      "stateMutability": "nonpayable",
      "type": "constructor"
    },
    {
      "anonymous": false,
      "inputs": [
        {
          "indexed": false,
          "internalType": "string",
          "name": "error",
          "type": "string"
        },
        {
          "indexed": false,
          "internalType": "address",
          "name": "sender",
          "type": "address"
        }
      ],
      "name": "DeploymentError",
      "type": "event"
    },
    {
      "anonymous": false,
      "inputs": [
        {
          "indexed": true,
          "internalType": "address",
          "name": "previousOwner",
          "type": "address"
        },
        {
          "indexed": true,
          "internalType": "address",
          "name": "newOwner",
          "type": "address"
        }
      ],
      "name": "OwnershipTransferred",
      "type": "event"
    },
    {
      "anonymous": false,
      "inputs": [
        {
          "indexed": true,
          "internalType": "address",
          "name": "tokenAddress",
          "type": "address"
        },
        {
          "indexed": false,
          "internalType": "string",
          "name": "name",
          "type": "string"
        },
        {
          "indexed": false,
          "internalType": "string",
          "name": "symbol",
          "type": "string"
        },
        {
          "indexed": true,
          "internalType": "address",
          "name": "owner",
          "type": "address"
        }
      ],
      "name": "TokenCreated",
      "type": "event"
    },
    {
      "inputs": [
        {
          "internalType": "string",
          "name": "name",
          "type": "string"
        },
        {
          "internalType": "string",
          "name": "symbol",
          "type": "string"
        },
        {
          "internalType": "uint256",
          "name": "initialSupply",
          "type": "uint256"
        },
        {
          "internalType": "address",
          "name": "owner",
          "type": "address"
        }
      ],
      "name": "createToken",
      "outputs": [
        {
          "internalType": "address",
          "name": "tokenAddress",
          "type": "address"
        }
      ],
      "stateMutability": "nonpayable",
      "type": "function"
    },
    {
      "inputs": [
        {
          "internalType": "string",
          "name": "name",
          "type": "string"
        },
        {
          "internalType": "string",
          "name": "symbol",
          "type": "string"
        },
        {
          "internalType": "uint256",
          "name": "initialSupply",
          "type": "uint256"
        },
        {
          "internalType": "address",
          "name": "owner",
          "type": "address"
        }
      ],
      "name": "createTokenBasic",
      "outputs": [
        {
          "internalType": "address",
          "name": "tokenAddress",
          "type": "address"
        }
      ],
      "stateMutability": "nonpayable",
      "type": "function"
    },
    {
      "inputs": [
        {
          "internalType": "string",
          "name": "name",
          "type": "string"
        },
        {
          "internalType": "string",
          "name": "symbol",
          "type": "string"
        },
        {
          "internalType": "uint256",
          "name": "initialSupply",
          "type": "uint256"
        },
        {
          "internalType": "address",
          "name": "owner",
          "type": "address"
        },
        {
          "internalType": "bool",
          "name": "includeDistribution",
          "type": "bool"
        }
      ],
      "name": "createTokenForWeb",
      "outputs": [
        {
          "internalType": "address",
          "name": "tokenAddress",
          "type": "address"
        }
      ],
      "stateMutability": "nonpayable",
      "type": "function"
    },
    {
      "inputs": [
        {
          "internalType": "string",
          "name": "name",
          "type": "string"
        },
        {
          "internalType": "string",
          "name": "symbol",
          "type": "string"
        },
        {
          "internalType": "uint256",
          "name": "initialSupply",
          "type": "uint256"
        },
        {
          "internalType": "address",
          "name": "owner",
          "type": "address"
        },
        {
          "internalType": "bool",
          "name": "includeDistribution",
          "type": "bool"
        },
        {
          "components": [
            {
              "internalType": "address",
              "name": "wallet",
              "type": "address"
            },
            {
              "internalType": "uint256",
              "name": "percentage",
              "type": "uint256"
            },
            {
              "internalType": "string",
              "name": "label",
              "type": "string"
            },
            {
              "internalType": "bool",
              "name": "vesting",
              "type": "bool"
            },
            {
              "internalType": "uint256",
              "name": "vestingDuration",
              "type": "uint256"
            },
            {
              "internalType": "uint256",
              "name": "cliffDuration",
              "type": "uint256"
            }
          ],
          "internalType": "struct V4FactoryWithLiquidityFixedV4.WalletAllocation[]",
          "name": "walletAllocations",
          "type": "tuple[]"
        }
      ],
      "name": "createTokenWithDistribution",
      "outputs": [
        {
          "internalType": "address",
          "name": "tokenAddress",
          "type": "address"
        }
      ],
      "stateMutability": "nonpayable",
      "type": "function"
    },
    {
      "inputs": [],
      "name": "distributionModuleBeacon",
      "outputs": [
        {
          "internalType": "contract UpgradeableBeacon",
          "name": "",
          "type": "address"
        }
      ],
      "stateMutability": "view",
      "type": "function"
    },
    {
      "inputs": [],
      "name": "distributionModuleImplementation",
      "outputs": [
        {
          "internalType": "address",
          "name": "",
          "type": "address"
        }
      ],
      "stateMutability": "view",
      "type": "function"
    },
    {
      "inputs": [],
      "name": "getAddresses",
      "outputs": [
        {
          "internalType": "address",
          "name": "_tokenImpl",
          "type": "address"
        },
        {
          "internalType": "address",
          "name": "_securityModuleImpl",
          "type": "address"
        },
        {
          "internalType": "address",
          "name": "_distributionModuleImpl",
          "type": "address"
        },
        {
          "internalType": "address",
          "name": "_liquidityModuleImpl",
          "type": "address"
        },
        {
          "internalType": "address",
          "name": "_tokenBeacon",
          "type": "address"
        },
        {
          "internalType": "address",
          "name": "_securityModuleBeacon",
          "type": "address"
        },
        {
          "internalType": "address",
          "name": "_distributionModuleBeacon",
          "type": "address"
        },
        {
          "internalType": "address",
          "name": "_liquidityModuleBeacon",
          "type": "address"
        }
      ],
      "stateMutability": "view",
      "type": "function"
    },
    {
      "inputs": [],
      "name": "lastError",
      "outputs": [
        {
          "internalType": "string",
          "name": "",
          "type": "string"
        }
      ],
      "stateMutability": "view",
      "type": "function"
    },
    {
      "inputs": [],
      "name": "liquidityModuleBeacon",
      "outputs": [
        {
          "internalType": "contract UpgradeableBeacon",
          "name": "",
          "type": "address"
        }
      ],
      "stateMutability": "view",
      "type": "function"
    },
    {
      "inputs": [],
      "name": "liquidityModuleImplementation",
      "outputs": [
        {
          "internalType": "address",
          "name": "",
          "type": "address"
        }
      ],
      "stateMutability": "view",
      "type": "function"
    },
    {
      "inputs": [],
      "name": "owner",
      "outputs": [
        {
          "internalType": "address",
          "name": "",
          "type": "address"
        }
      ],
      "stateMutability": "view",
      "type": "function"
    },
    {
      "inputs": [],
      "name": "renounceOwnership",
      "outputs": [],
      "stateMutability": "nonpayable",
      "type": "function"
    },
    {
      "inputs": [],
      "name": "securityModuleBeacon",
      "outputs": [
        {
          "internalType": "contract UpgradeableBeacon",
          "name": "",
          "type": "address"
        }
      ],
      "stateMutability": "view",
      "type": "function"
    },
    {
      "inputs": [],
      "name": "securityModuleImplementation",
      "outputs": [
        {
          "internalType": "address",
          "name": "",
          "type": "address"
        }
      ],
      "stateMutability": "view",
      "type": "function"
    },
    {
      "inputs": [
        {
          "internalType": "address",
          "name": "newDistributionModuleImpl",
          "type": "address"
        }
      ],
      "name": "setDistributionModuleImplementation",
      "outputs": [],
      "stateMutability": "nonpayable",
      "type": "function"
    },
    {
      "inputs": [
        {
          "internalType": "address",
          "name": "newLiquidityModuleImpl",
          "type": "address"
        }
      ],
      "name": "setLiquidityModuleImplementation",
      "outputs": [],
      "stateMutability": "nonpayable",
      "type": "function"
    },
    {
      "inputs": [
        {
          "internalType": "address",
          "name": "newSecurityModuleImpl",
          "type": "address"
        }
      ],
      "name": "setSecurityModuleImplementation",
      "outputs": [],
      "stateMutability": "nonpayable",
      "type": "function"
    },
    {
      "inputs": [
        {
          "internalType": "address",
          "name": "newTokenImpl",
          "type": "address"
        }
      ],
      "name": "setTokenImplementation",
      "outputs": [],
      "stateMutability": "nonpayable",
      "type": "function"
    },
    {
      "inputs": [],
      "name": "tokenBeacon",
      "outputs": [
        {
          "internalType": "contract UpgradeableBeacon",
          "name": "",
          "type": "address"
        }
      ],
      "stateMutability": "view",
      "type": "function"
    },
    {
      "inputs": [],
      "name": "tokenImplementation",
      "outputs": [
        {
          "internalType": "address",
          "name": "",
          "type": "address"
        }
      ],
      "stateMutability": "view",
      "type": "function"
    },
    {
      "inputs": [
        {
          "internalType": "address",
          "name": "newOwner",
          "type": "address"
        }
      ],
      "name": "transferOwnership",
      "outputs": [],
      "stateMutability": "nonpayable",
      "type": "function"
    }
  ],
  "bytecode": "0x6080346200053157601f6200468c38819003918201601f191683019260009290916001600160401b039190828611848710176200051d578160a092859260409889528339810103126200051957620000578262000560565b6020926200006784820162000560565b936200007587830162000560565b906200009260806200008a6060860162000560565b940162000560565b946200009e3362000575565b6001600160a01b03968716928315620004c157871693841562000457578716958615620003ed5787169586156200038357620000da8662000575565b60018060a01b0319948486600154161760015585600254161760025584600354161760035560049584875416178655885161045a9081810181811084821117620003535781859162004232978589843981520301908af080156200036657881685600554161760055587600254168a519082820190828210858311176200037057859183918589843981520301908af080156200036657881685600654161760065587600354168a519082820190828210858311176200037057859183918589843981520301908af080156200036657881685600754161760075587875416908a51948186019386851090851117620003535790859392918439815203019086f0801562000349578416906008541617600855826005541692833b15620002f15785518581602481838663f2fde38b60e01b9889845216998a8a8401525af180156200030d5762000333575b508060065416803b15620003175785809160248951809481938883528a8a8401525af180156200030d579086916200031b575b50508060075416803b15620003175785809160248951809481938883528a8a8401525af180156200030d57908691620002f5575b505060085416803b15620002f157849291836024928851968795869485528401525af18015620002e757620002cc575b8251613c759081620005bd8239f35b620002d8829162000536565b620002e45780620002bd565b80fd5b83513d84823e3d90fd5b8480fd5b620003009062000536565b620002f15784386200028d565b87513d88823e3d90fd5b8580fd5b620003269062000536565b620002f157843862000259565b620003419095919562000536565b933862000226565b86513d87823e3d90fd5b634e487b7160e01b8b526041895260248bfd5b8a513d8b823e3d90fd5b634e487b7160e01b8c5260418a5260248cfd5b895162461bcd60e51b815260048101849052603660248201527f4c6971756964697479206d6f64756c6520696d706c656d656e746174696f6e2060448201527f63616e6e6f74206265207a65726f2061646472657373000000000000000000006064820152608490fd5b895162461bcd60e51b815260048101849052603960248201527f446973747269627574696f6e206d6f64756c6520696d706c656d656e7461746960448201527f6f6e2063616e6e6f74206265207a65726f2061646472657373000000000000006064820152608490fd5b895162461bcd60e51b815260048101849052603560248201527f5365637572697479206d6f64756c6520696d706c656d656e746174696f6e206360448201527f616e6e6f74206265207a65726f206164647265737300000000000000000000006064820152608490fd5b895162461bcd60e51b815260048101849052602b60248201527f546f6b656e20696d706c656d656e746174696f6e2063616e6e6f74206265207a60448201526a65726f206164647265737360a81b6064820152608490fd5b8280fd5b634e487b7160e01b85526041600452602485fd5b600080fd5b6001600160401b0381116200054a57604052565b634e487b7160e01b600052604160045260246000fd5b51906001600160a01b03821682036200053157565b600080546001600160a01b039283166001600160a01b03198216811783559216907f8be0079c531659141344cd1fd0a4f28419497f9722a3daafe3b4186f6b6457e09080a356fe6080806040526004803610156200001557600080fd5b600091823560e01c9081630edf632a1462000cd3575080631c480db31462000ca8578063203c61cf1462000ba057806329f0de3f1462000ab95780632f3a3d5d1462000a8e57806333aeb63c146200093957806334f359f914620009175780635fdb2a0e1462000713578063715018a614620006b55780638008334c146200068a57806388282e2a146200058c5780638da5cb5b14620005635780639651d0a814620005385780639ab10b79146200050d5780639f59163514620004e2578063a39fac12146200046a578063bf2fb7c91462000362578063c39874711462000251578063ccf5a77c1462000226578063f2f68e3a14620001ef5763f2fde38b146200011f57600080fd5b34620001eb576020366003190112620001eb576200013c62000cfa565b6200014662001fc7565b6001600160a01b03908116918215620001985750600054826001600160601b0360a01b821617600055167f8be0079c531659141344cd1fd0a4f28419497f9722a3daafe3b4186f6b6457e0600080a380f35b60849060206040519162461bcd60e51b8352820152602660248201527f4f776e61626c653a206e6577206f776e657220697320746865207a65726f206160448201526564647265737360d01b6064820152fd5b5080fd5b82346200022357602062000211620002073662000eae565b9291909162001ce6565b6040516001600160a01b039091168152f35b80fd5b823462000223578060031936011262000223576005546040516001600160a01b039091168152602090f35b5034620001eb576020366003190112620001eb576200026f62000cfa565b6200027962001fc7565b6001600160a01b03908116908115620002ff57839060085416803b15620001eb57818091602460405180948193631b2ce7f360e11b8352888a8401525af18015620002f457620002d8575b505081546001600160a01b03191617905580f35b620002e39062000d65565b620002f0578238620002c4565b8280fd5b6040513d84823e3d90fd5b60405162461bcd60e51b8152602081850152603660248201527f4c6971756964697479206d6f64756c6520696d706c656d656e746174696f6e2060448201527563616e6e6f74206265207a65726f206164647265737360501b6064820152608490fd5b5034620001eb576020366003190112620001eb576200038062000cfa565b906200038b62001fc7565b6001600160a01b0391821691821562000408579083916006541690813b15620002f0578360248492836040519586948593631b2ce7f360e11b85528401525af18015620002f457620003f0575b50506001600160601b0360a01b600254161760025580f35b620003fb9062000d65565b620001eb578138620003d8565b60405162461bcd60e51b8152602081840152603560248201527f5365637572697479206d6f64756c6520696d706c656d656e746174696f6e2063604482015274616e6e6f74206265207a65726f206164647265737360581b6064820152608490fd5b5034620001eb5781600319360112620001eb576001546002546003549254600554600654600754600854604080516001600160a01b03988916815296881660208801529787169786019790975292851660608501529084166080840152831660a0830152821660c0820152911660e082015261010090f35b823462000223578060031936011262000223576003546040516001600160a01b039091168152602090f35b823462000223578060031936011262000223576007546040516001600160a01b039091168152602090f35b823462000223578060031936011262000223576006546040516001600160a01b039091168152602090f35b82346200022357806003193601126200022357546040516001600160a01b039091168152602090f35b5034620001eb576020366003190112620001eb57620005aa62000cfa565b90620005b562001fc7565b6001600160a01b0391821691821562000632579083916005541690813b15620002f0578360248492836040519586948593631b2ce7f360e11b85528401525af18015620002f4576200061a575b50506001600160601b0360a01b600154161760015580f35b620006259062000d65565b620001eb57813862000602565b60405162461bcd60e51b8152602081840152602b60248201527f546f6b656e20696d706c656d656e746174696f6e2063616e6e6f74206265207a60448201526a65726f206164647265737360a81b6064820152608490fd5b823462000223578060031936011262000223576002546040516001600160a01b039091168152602090f35b82346200022357806003193601126200022357620006d262001fc7565b600080546001600160a01b0319811682556001600160a01b03167f8be0079c531659141344cd1fd0a4f28419497f9722a3daafe3b4186f6b6457e08280a380f35b509034620002235760c0366003190112620002235781356001600160401b038111620001eb5762000748903690840162000e51565b6024356001600160401b038111620002f05762000769903690850162000e51565b906200077462000d11565b916200077f62000e9e565b936001600160401b0360a43511620002235736602360a43501121562000223576001600160401b0360a43587013511620009025760405195620007ce602060a43583013560051b018862000dc7565b60a4358181013580895260208901913660059290921b0160240111620002f057602460a43501905b60a4358381013560051b0160240182106200081f576020620002118a8a8a6044358a8c62002020565b8135906001600160401b038211620008fe5760c060a435830136036023190112620008fe5760405191620008538362000d8f565b60a4358101602401356001600160a01b0381168103620008f557835260a4358101604481013560208501526001600160401b0360649091013511620008fa57620008ab3660a435830160648101350160240162000e51565b604084015260848160a435010135918215158303620008f557606084019290925260a4803590910190810135608084015260c4013560a083015290815260209182019101620007f6565b600080fd5b8580fd5b8480fd5b604186634e487b7160e01b6000525260246000fd5b823462000223576020620002116200092f3662000eae565b92919091620012f1565b5034620001eb5760a080600319360112620002f0576001600160401b03918035838111620008fe5762000970903690830162000e51565b92602435908111620008fe57602094916200098e9136910162000e51565b906200099962000d11565b90620009a462000e9e565b60405192620009b38462000dab565b60018452825b8880821015620009ff576040518a9291620009d48262000d8f565b8682528681830152866060806040850152830152866080830152868a830152828801015201620009b9565b898562000a858887878e8d60405162000a188162000d8f565b6001600160a01b03848116825260648a83015260405190989062000a3c8162000dab565b600581526427bbb732b960d91b8b820152604083015280606083015280608083015260a082015262000a6e8662000f14565b5262000a7a8562000f14565b506044359162002020565b60405191168152f35b823462000223578060031936011262000223576001546040516001600160a01b039091168152602090f35b823462000223578060031936011262000223576040519080826009549162000ae18362000d28565b928383526020946001918660018216918260001462000b7c57505060011462000b2f575b505062000b159250038362000dc7565b62000b2b60405192828493845283019062000e0e565b0390f35b908592506009825260008051602062003c208339815191525b85831062000b6357505062000b159350820101858062000b05565b8054838901850152879450869390920191810162000b48565b925093505062000b1594915060ff191682840152151560051b820101858062000b05565b50903462000223576020366003190112620002235762000bbf62000cfa565b9162000bca62001fc7565b6001600160a01b0392831692831562000c3e576007541690813b15620002f0578360248492836040519586948593631b2ce7f360e11b85528401525af18015620002f45762000c2c575b50906001600160601b0360a01b600354161760035580f35b62000c379062000d65565b3862000c14565b60405162461bcd60e51b8152602081840152603960248201527f446973747269627574696f6e206d6f64756c6520696d706c656d656e7461746960448201527f6f6e2063616e6e6f74206265207a65726f2061646472657373000000000000006064820152608490fd5b823462000223578060031936011262000223576008546040516001600160a01b039091168152602090f35b91905034620002f05782600319360112620002f057546001600160a01b0316815260209150f35b600435906001600160a01b0382168203620008f557565b606435906001600160a01b0382168203620008f557565b90600182811c9216801562000d5a575b602083101462000d4457565b634e487b7160e01b600052602260045260246000fd5b91607f169162000d38565b6001600160401b03811162000d7957604052565b634e487b7160e01b600052604160045260246000fd5b60c081019081106001600160401b0382111762000d7957604052565b604081019081106001600160401b0382111762000d7957604052565b90601f801991011681019081106001600160401b0382111762000d7957604052565b60005b83811062000dfd5750506000910152565b818101518382015260200162000dec565b9060209162000e298151809281855285808601910162000de9565b601f01601f1916010190565b6001600160401b03811162000d7957601f01601f191660200190565b81601f82011215620008f55780359062000e6b8262000e35565b9262000e7b604051948562000dc7565b82845260208383010111620008f557816000926020809301838601378301015290565b608435908115158203620008f557565b906080600319830112620008f5576001600160401b03600435818111620008f5578362000ede9160040162000e51565b92602435918211620008f55762000ef89160040162000e51565b90604435906064356001600160a01b0381168103620008f55790565b80511562000f225760200190565b634e487b7160e01b600052603260045260246000fd5b9294939060609262000f5762000f669260808752608087019062000e0e565b90858203602087015262000e0e565b60408401959095526001600160a01b0316910152565b6001600160a01b03909116815260406020820181905262000fa09291019062000e0e565b90565b90816020910312620008f557518015158103620008f55790565b909162000fd762000fa09360408452604084019062000e0e565b91602081840391015262000e0e565b601f811162000ff25750565b60006009600052601f60008051602062003c20833981519152920160051c8201915b8281106200102157505050565b81815560010162001014565b601f81116200103a575050565b600090600960005260008051602062003c20833981519152906020601f850160051c8301941062001088575b601f0160051c01915b8281106200107c57505050565b8181556001016200106f565b909250829062001066565b601f81116200109f5750565b601f60009160096000520160051c60008051602062003c2083398151915201907f6e1540171b6c0c960b71a7020d9f60077f6af931a8bbf590da0223dacf75c7b15b828110620010ee57505050565b818155600101620010e1565b60009060033d116200110857565b905060046000803e60005160e01c90565b600060443d1062000fa057604051600319913d83016004833e81516001600160401b03918282113d6024840111176200117c5781840194855193841162001184573d850101602084870101116200117c575062000fa09291016020019062000dc7565b949350505050565b50949350505050565b600954600092916200119f8262000d28565b80825291602090600190818116908115620012125750600114620011c4575b50505050565b92939450600960005260008051602062003c20833981519152926000935b858510620011fe575050506020925001019038808080620011be565b8054858501840152938201938101620011e2565b92505050602093945060ff929192191683830152151560051b01019038808080620011be565b600954600092916200124a8262000d28565b808252916020906001908181169081156200121257506001146200126e5750505050565b92939450600960005260008051602062003c20833981519152926000935b858510620012a8575050506020925001019038808080620011be565b80548585018401529382019381016200128c565b3d15620012ec573d90620012d08262000e35565b91620012e0604051938462000dc7565b82523d6000602084013e565b606090565b9390929192604091825190602094635e9d09fb60e11b86840152826200131f82602499878c8c860162000f38565b039362001335601f199586810186528562000dc7565b600554865160009a6001600160401b039690926001600160a01b0392610672928382018a81118382101762001cd2578f90928f93620013888f9a99989796948392896200358e978a898739169062000f7c565b0391f08d8162001607575050505050505050505050620013a7620010fa565b6308c379a01462001486575b50506200148290600985620013c7620012bc565b50620013de620013d8835462000d28565b62001093565b60458255527f556e6b6e6f776e206572726f72206372656174696e6720746f6b656e2070726f60008051602062003c208339815191525561787960f01b7f6e1540171b6c0c960b71a7020d9f60077f6af931a8bbf590da0223dacf75c7b05560008051602062003c00833981519152815182815280620014608482016200118d565b33878301520390a15192839262461bcd60e51b8452600484015282016200118d565b0390fd5b6200149062001119565b91826200149e5750620013b3565b909195620014f5603c855180997f4572726f72206372656174696e6720746f6b656e2070726f78793a200000000089830152620014e4815180928b868601910162000de9565b810103601c81018a52018862000dc7565b8651928311620015f45762001517836200151160095462000d28565b6200102d565b8491601f84116001146200157a57509062001482949596836200156e575b50508160011b916000199060031b1c1916176009555b60008051602062003c00833981519152815182815280620014608482016200118d565b01519050388062001535565b83979197166009885260008051602062003c20833981519152975b818110620015dc5750916200148295969791846001959410620015c2575b505050811b016009556200154b565b015160001960f88460031b161c19169055388080620015b3565b83830151895560019098019792860192860162001595565b634e487b7160e01b815260416004528590fd5b6200164586806200165294169b16998b8151918c858401528483526200162d8362000dab565b5196879463347d5e2560e21b90860152840162000f7c565b038c810184528362000dc7565b8360065416908c5193808501918583108d84111762001cbc57916200167d9391869593863962000f7c565b03908df0908c82620018c8578c8c8c8c8c62001698620010fa565b6308c379a01462001755575b50506200148290600985620016b8620012bc565b50620016c9620013d8835462000d28565b60598255527f556e6b6e6f776e206572726f72206372656174696e672073656375726974792060008051602062003c20833981519152556b6d6f64756c652070726f787960a01b7f6e1540171b6c0c960b71a7020d9f60077f6af931a8bbf590da0223dacf75c7b05560008051602062003c00833981519152815182815280620014608482016200118d565b6200175f62001119565b91826200176d5750620016a4565b909195620017d26046855180997f4572726f72206372656174696e67207365637572697479206d6f64756c652070898301526503937bc3c9d160d51b88830152620017c1815180928b868601910162000de9565b810103602681018a52018862000dc7565b8651928311620015f457620017ee836200151160095462000d28565b8491601f84116001146200184f5750906200148294959683620018435750508160011b916000199060031b1c19161760095560008051602062003c00833981519152815182815280620014608482016200118d565b01519050868062001535565b83979197166009885260008051602062003c20833981519152975b818110620018b057509162001482959697918460019594106200189657505050811b016009556200154b565b015160001960f88460031b161c19169055868080620015b3565b8383015189556001909801979286019286016200186a565b8b8b6200190792819f9d9e9c9e51918984840152838352620018ea8362000dab565b518080958194630b74e9e360e21b8352888a166004840162000f7c565b03918b5af1908162001c88575b5062001a7957505050505050506200192b620010fa565b6308c379a01462001941575b84513d87823e3d90fd5b6200194b62001119565b938462001959575062001937565b90859187620019a960358551809974022b93937b91030b23234b7339036b7b23ab6329d1605d1b8983015262001998815180928b868601910162000de9565b810103601581018a52018862000dc7565b8651928311620015f457620019c5836200151160095462000d28565b8491601f841160011462001a1a5750906200148294959683620018435750508160011b916000199060031b1c19161760095560008051602062003c00833981519152815182815280620014608482016200118d565b83979197166009885260008051602062003c20833981519152975b81811062001a6157509162001482959697918460019594106200189657505050811b016009556200154b565b83830151895560019098019792860192860162001a35565b853b1562001c84578b5163f2fde38b60e01b8152911660048201528b818a8183895af1908162001c6e575b5062001c0e57505050505062001ab9620010fa565b6308c379a01462001ace5784513d87823e3d90fd5b62001ad862001119565b938462001ae6575062001937565b9085918762001b3e603e855180997f4572726f72207472616e7366657272696e67206f776e6572736869703a2000008983015262001b2d815180928b868601910162000de9565b810103601e81018a52018862000dc7565b8651928311620015f45762001b5a836200151160095462000d28565b8491601f841160011462001baf5750906200148294959683620018435750508160011b916000199060031b1c19161760095560008051602062003c00833981519152815182815280620014608482016200118d565b83979197166009885260008051602062003c20833981519152975b81811062001bf657509162001482959697918460019594106200189657505050811b016009556200154b565b83830151895560019098019792860192860162001bca565b93995093509550958694507f6596c1670eb3390048d23721809c3da5d3f531375ac0e2cab0f77a808ed64331935062001c4c90519283928362000fbd565b0390a362001c6662001c6060095462000d28565b62000fe6565b600060095590565b62001c7c909c919c62000d65565b9a3862001aa4565b8c80fd5b62001cac908b3d8d1162001cb4575b62001ca3818362000dc7565b81019062000fa3565b503862001914565b503d62001c97565b5050508d8f634e487b7160e01b81526041600452fd5b50634e487b7160e01b8f5260416004528d8ffd5b92909391936040928351918262001d1285602099635e9d09fb60e11b8b850152848a6024860162000f38565b039562001d28601f199788810186528562000dc7565b60055486516001600160401b039690956001600160a01b039261067280890192909185168a84118a85101762000d7957899362001d6b936200358e863962000f7c565b0360009687f08062001f855750505050505062001d87620010fa565b6308c379a01462001e20575b848362001d9f620012bc565b5062001db162001c6060095462000d28565b7f556e6b6e6f776e206572726f72206372656174696e6720746f6b656e00000038600955805181815260008051602062003c00833981519152908062001df98185016200118d565b33868301520390a1519062461bcd60e51b825260048201528062001482602482016200118d565b62001e2a62001119565b8062001e37575062001d93565b62001e8460368551809375022b93937b91031b932b0ba34b733903a37b5b2b71d160551b8a83015262001e73815180928c868601910162000de9565b810103601681018452018262000dc7565b805192831162001f715762001ea0836200151160095462000d28565b8591601f841160011462001efe57839495509262001ef2575b50508160011b916000199060031b1c1916176009555b60008051602062003c0083398151915281518281528062001df98482016200118d565b01519050388062001eb9565b9190948316946009835260008051602062003c20833981519152925b8787821062001f5a57505083600195961062001f40575b505050811b0160095562001ecf565b015160001960f88460031b161c1916905538808062001f31565b600184958293958501518155019401920162001f1a565b634e487b7160e01b82526041600452602482fd5b97519499509681169750909516948694507f6596c1670eb3390048d23721809c3da5d3f531375ac0e2cab0f77a808ed643319350829162001c4c918362000fbd565b6000546001600160a01b0316330362001fdc57565b606460405162461bcd60e51b815260206004820152602060248201527f4f776e61626c653a2063616c6c6572206973206e6f7420746865206f776e65726044820152fd5b604051635e9d09fb60e11b602082015260009796939591949190620020608162002051308a888b6024860162000f38565b03601f19810183528262000dc7565b60055460405191906001600160a01b03166106726001600160401b0381850190811190851117620031b95791620020a2918385946200358e8639840162000f7c565b039089f080620022a2575050505050505090620020be620010fa565b6308c379a0146200213f575b620020d4620012bc565b50620020e662001c6060095462000d28565b60387f556e6b6e6f776e206572726f72206372656174696e6720746f6b656e000000000160095560008051602062003c008339815191526040516040815280620021336040820162001238565b3360208301520390a190565b6200214962001119565b80620021565750620020ca565b9190620021a86036604051809575022b93937b91031b932b0ba34b733903a37b5b2b71d160551b602083015262002197815180926020868601910162000de9565b810103601681018652018462000dc7565b82516001600160401b03811162001f7157620021cb816200151160095462000d28565b6020601f82116001146200222d5782939482939262002221575b50508160011b916000199060031b1c1916176009555b60008051602062003c008339815191526040516040815280620021336040820162001238565b015190503880620021e5565b6009835260008051602062003c2083398151915290601f198316845b81811062002289575095836001959697106200226f575b505050811b01600955620021fb565b015160001960f88460031b161c1916905538808062002260565b9192602060018192868b01518155019401920162002249565b6006546040516001600160a01b03928316988b939092620022f8929116620022ca8262000dab565b600f82526e7365637572697479206d6f64756c6560881b60208301526001600160a01b038716908b620031cd565b956001600160a01b03871615620031ae578362003148575b6008546040516200235e916001600160a01b03166200232f8262000dab565b601082526f6c6971756964697479206d6f64756c6560801b60208301526001600160a01b038816908c620031cd565b936001600160a01b038516156200313c57620023b460208d8c8b6040519260018060a01b038c1685850152848452620023978462000dab565b604051809681958294630b74e9e360e21b84526004840162000f7c565b03926001600160a01b03165af1908162003118575b50620025675750505050505050505050620023e3620010fa565b6308c379a014620023fc575b50604051903d90823e3d90fd5b6200240662001119565b9081620024145750620023ef565b90916200246d603e60405180957f4572726f7220616464696e67207365637572697479206d6f64756c653a20000060208301526200245c815180926020868601910162000de9565b810103601e81018652018462000dc7565b82516001600160401b03811162001f715762002490816200151160095462000d28565b6020601f8211600114620024f257829394829392620024e6575b50508160011b916000199060031b1c1916176009555b60008051602062003c00833981519152604051604081528062002133604082016200118d565b015190503880620024aa565b6009835260008051602062003c2083398151915290601f198316845b8181106200254e5750958360019596971062002534575b505050811b01600955620024c0565b015160001960f88460031b161c1916905538808062002525565b9192602060018192868b0151815501940192016200250e565b8062003105575b6200295d575b5050506020620025b9916040519060018060a01b038516838301528282526200259d8262000dab565b604051630b74e9e360e21b815293849283926004840162000f7c565b03818b6001600160a01b038b165af1908162002939575b506200273f575050505050620025e5620010fa565b6308c379a014620025fd5750604051903d90823e3d90fd5b6200260762001119565b9081620026155750620023ef565b90916200266e603f60405180957f4572726f7220616464696e67206c6971756964697479206d6f64756c653a200060208301526200265d815180926020868601910162000de9565b810103601f81018652018462000dc7565b82516001600160401b03811162001f715762002691816200151160095462000d28565b6020601f8211600114620026e557829394829392620022215750508160011b916000199060031b1c19161760095560008051602062003c008339815191526040516040815280620021336040820162001238565b6009835260008051602062003c2083398151915290601f198316845b81811062002726575095836001959697106200226f57505050811b01600955620021fb565b9192602060018192868b01518155019401920162002701565b6001600160a01b03851692833b15620029355760405163f2fde38b60e01b81526001600160a01b039091166004820152878160248183885af190816200291f575b50620028de57505050505062002795620010fa565b6308c379a014620027ad5750604051903d90823e3d90fd5b620027b762001119565b9081620027c55750620023ef565b90916200280d603e60405180957f4572726f72207472616e7366657272696e67206f776e6572736869703a20000060208301526200245c815180926020868601910162000de9565b82516001600160401b03811162001f715762002830816200151160095462000d28565b6020601f82116001146200288457829394829392620022215750508160011b916000199060031b1c19161760095560008051602062003c008339815191526040516040815280620021336040820162001238565b6009835260008051602062003c2083398151915290601f198316845b818110620028c5575095836001959697106200226f57505050811b01600955620021fb565b9192602060018192868b015181550194019201620028a0565b7f6596c1670eb3390048d23721809c3da5d3f531375ac0e2cab0f77a808ed6433192939495965062001c4c60405192839260018060a01b0316968362000fbd565b6200292d9098919862000d65565b963862002780565b8780fd5b620029559060203d60201162001cb45762001ca3818362000dc7565b5038620025d0565b9490959196929793620029a8602060405160018060a01b03841682820152818152620029898162000dab565b8d8b604051809581948293630b74e9e360e21b84526004840162000f7c565b03916001600160a01b038b165af19081620030e1575b5062002b3c57505050505050505050620029d7620010fa565b6308c379a014620029ef5750604051903d90823e3d90fd5b620029f962001119565b908162002a075750620023ef565b909162002a6b604260405180957f4572726f7220616464696e6720646973747269627574696f6e206d6f64756c6560208301526101d160f51b604083015262002a5a815180926020868601910162000de9565b810103602281018652018462000dc7565b82516001600160401b03811162001f715762002a8e816200151160095462000d28565b6020601f821160011462002ae257829394829392620022215750508160011b916000199060031b1c19161760095560008051602062003c008339815191526040516040815280620021336040820162001238565b6009835260008051602062003c2083398151915290601f198316845b81811062002b23575095836001959697106200226f57505050811b01600955620021fb565b9192602060018192868b01518155019401920162002afe565b8a9995969798995b8b885182101562002ea7575060208160051b8901015160208101518a8181020481148b15171562002e93578b8b8f6064848302041562002e85578094606081015162002e2d575b91602093916064959360018060a01b0381511690604081019862002be460608b519301511515926040519a8b998a9889976310c5833960e31b895260048901520204602486015260a0604486015260a485019062000e0e565b6064840192909252608483015203926001600160a01b03165af1908162002e09575b5062002dff5760019062002c19620010fa565b6308c379a01462002c41575b5062002c36576001905b0162002b44565b6040513d8d823e3d90fd5b8d62002c4c62001119565b908162002c5c575b505062002c25565b62002cdd91929350925160405180937f4572726f7220616464696e6720616c6c6f636174696f6e20666f72200000000060208301526101d160f51b603c9362002caf815180926020888801910162000de9565b830193840152603e9262002ccd825180936020878501910162000de9565b0103601e81018452018262000dc7565b8051906001600160401b03821162002deb578e829162002d04836200151160095462000d28565b602091601f841160011462002d74579262002d68575b50508160011b916000199060031b1c1916176009555b60008051602062003c00833981519152604051604081528062002d566040820162001238565b3360208301520390a138808e62002c54565b01519050388062002d1a565b6009815260008051602062003c208339815191529350601f198516905b81811062002dd2575090846001959493921062002db8575b505050811b0160095562002d30565b015160001960f88460031b161c1916905538808062002da9565b9293602060018192878601518155019501930162002d91565b634e487b7160e01b8f52604160045260248ffd5b5060019062002c2f565b62002e259060203d60201162001cb45762001ca3818362000dc7565b503862002c06565b94505050506080820151620151809081810291818304149015171562002e7157804201421162002e71576064918f8d8f916020944201969193955091935062002b8b565b634e487b7160e01b8f52601160045260248ffd5b505050505060019062002c2f565b634e487b7160e01b8e52601160045260248efd5b9397505093976020919599939750600460405180948193633fc3b44560e21b835260018060a01b03165af19081620030bd575b50620030b057600162002eec620010fa565b6308c379a01462002f18575b62002f0d576020620025b9915b913862002574565b6040513d89823e3d90fd5b62002f2262001119565b8062002f30575b5062002ef8565b9050889062002f8b603e60405180937f4572726f7220657865637574696e6720646973747269627574696f6e3a200000602083015262002f7a815180926020868601910162000de9565b810103601e81018452018262000dc7565b8051906001600160401b0382116200309c57819062002fb1826200151160095462000d28565b602090601f831160011462003020578c9262003014575b50508160011b916000199060031b1c1916176009555b60008051602062003c008339815191526040516040815280620030046040820162001238565b3360208301520390a13862002f29565b01519050388062002fc8565b925060098c5260008051602062003c20833981519152908c935b601f198416851062003080576001945083601f1981161062003066575b505050811b0160095562002fde565b015160001960f88460031b161c1916905538808062003057565b818101518355602094850194600190930192909101906200303a565b634e487b7160e01b8b52604160045260248bfd5b6020620025b99162002f05565b620030d99060203d60201162001cb45762001ca3818362000dc7565b503862002eda565b620030fd9060203d60201162001cb45762001ca3818362000dc7565b5038620029be565b506001600160a01b03831615156200256e565b620031349060203d60201162001cb45762001ca3818362000dc7565b5038620023c9565b50505050505050505050565b6007546040519193506200319d91906001600160a01b03166200316b8262000dab565b6013825272646973747269627574696f6e206d6f64756c6560681b60208301526001600160a01b038716908b620031cd565b916001600160a01b03831662002310575b505050505050505050565b634e487b7160e01b8c52604160045260248cfd5b9291909260409283519160209384840152838352620031ec8362000dab565b6200320b855193849263347d5e2560e21b878501526024840162000f7c565b039062003221601f199283810185528462000dc7565b8451956001600160401b03936001600160a01b039161067291828a018781118b82101762000d7957846200325f938c956200358e8739169062000f7c565b0360009788f0806200358257505062003277620010fa565b6308c379a0146200341b575b6200328d620012bc565b50620032f2603d865180937f556e6b6e6f776e206572726f72206372656174696e672000000000000000000088830152620032d2815180928a60378601910162000de9565b8101652070726f787960d01b603782015203601d81018452018262000dc7565b805192831162003407576200330e836200151160095462000d28565b8391601f84116001146200337d5750918062003365949260008051602062003c008339815191529694889262003371575b50508160011b916000199060031b1c1916176009555b8151928284938452830162001238565b9033908301520390a190565b0151905038806200333f565b6009875260008051602062003c208339815191529291908416875b818110620033ef575092600192859260008051602062003c00833981519152989662003365989610620033d5575b505050811b0160095562003355565b015160001960f88460031b161c19169055388080620033c6565b92938660018192878601518155019501930162003398565b634e487b7160e01b86526041600452602486fd5b6200342562001119565b8062003432575062003283565b906037620034a29187519384916e022b93937b91031b932b0ba34b7339608d1b898401526200346b815180928b602f8701910162000de9565b820167010383937bc3c9d160c51b602f82015262003492825180938b878501910162000de9565b0103601781018452018262000dc7565b80519283116200340757620034be836200151160095462000d28565b8391601f8411600114620035135750918062003365949260008051602062003c0083398151915296948892620033715750508160011b916000199060031b1c1916176009558151928284938452830162001238565b6009875260008051602062003c208339815191529291908416875b8181106200356a575092600192859260008051602062003c00833981519152989662003365989610620033d557505050811b0160095562003355565b9293866001819287860151815501950193016200352e565b16969550505050505056fe60806040908082526106728038038091610019828561034d565b8339810190828183031261023f5761003081610370565b6020828101516001600160401b039391929184821161023f57019084601f8301121561023f5781519161006283610384565b9261006f8851948561034d565b8084528484019685828401011161023f57868561008c930161039f565b803b156102fb578551635c60da1b60e01b80825292916001600160a01b0316908481600481855afa9081156102f0576000916102bb575b503b1561025e577fa3f0ad74e5423aebfd80d3ef4346578335a9a72aeaee59ff6cb3582b35133d5080546001600160a01b03191682179055865192817f1cf3b03a6cf19fa2baba4df148e9dcabedea7f8a5c07840e207e5c089be95d3e600080a2825115801590610256575b610142575b87516101fc90816104768239f35b6004848693819382525afa91821561024b5760009261020f575b5085519360608501908111858210176101f9578652602784527f416464726573733a206c6f772d6c6576656c2064656c65676174652063616c6c83850152660819985a5b195960ca1b84870152516101e3946000918291845af4903d156101f0573d6101c781610384565b906101d48851928361034d565b8152600081943d92013e6103c2565b5038808080808080610134565b606092506103c2565b634e487b7160e01b600052604160045260246000fd5b9091508281813d8311610244575b610227818361034d565b8101031261023f5761023890610370565b903861015c565b600080fd5b503d61021d565b86513d6000823e3d90fd5b50600061012f565b865162461bcd60e51b815260048101859052603060248201527f455243313936373a20626561636f6e20696d706c656d656e746174696f6e206960448201526f1cc81b9bdd08184818dbdb9d1c9858dd60821b6064820152608490fd5b90508481813d83116102e9575b6102d2818361034d565b8101031261023f576102e390610370565b386100c3565b503d6102c8565b88513d6000823e3d90fd5b855162461bcd60e51b815260048101849052602560248201527f455243313936373a206e657720626561636f6e206973206e6f74206120636f6e6044820152641d1c9858dd60da1b6064820152608490fd5b601f909101601f19168101906001600160401b038211908210176101f957604052565b51906001600160a01b038216820361023f57565b6001600160401b0381116101f957601f01601f191660200190565b60005b8381106103b25750506000910152565b81810151838201526020016103a2565b9192901561042457508151156103d6575090565b3b156103df5790565b60405162461bcd60e51b815260206004820152601d60248201527f416464726573733a2063616c6c20746f206e6f6e2d636f6e74726163740000006044820152606490fd5b8251909150156104375750805190602001fd5b6044604051809262461bcd60e51b825260206004830152610467815180928160248601526020868601910161039f565b601f01601f19168101030190fdfe608080604052366100c7577fa3f0ad74e5423aebfd80d3ef4346578335a9a72aeaee59ff6cb3582b35133d5054635c60da1b60e01b8252602090829060049082906001600160a01b03165afa9081156100bb57600091610060575b506101a7565b905060203d6020116100b4575b601f8101601f191682019167ffffffffffffffff83118184101761009e576100989260405201610161565b3861005a565b634e487b7160e01b600052604160045260246000fd5b503d61006d565b6040513d6000823e3d90fd5b7fa3f0ad74e5423aebfd80d3ef4346578335a9a72aeaee59ff6cb3582b35133d5054604051635c60da1b60e01b815290602090829060049082906001600160a01b03165afa9081156100bb5760009161012057506101a7565b602091503d8211610159575b601f8201601f191681019167ffffffffffffffff83118284101761009e5761009892604052810190610188565b3d915061012c565b602090607f190112610183576080516001600160a01b03811681036101835790565b600080fd5b9081602091031261018357516001600160a01b03811681036101835790565b6000808092368280378136915af43d82803e156101c2573d90f35b3d90fdfea264697066735822122055fbd96e33b80d64199b9943c5791120941f50472e3a8ea3832c0c2bbc01d04c64736f6c63430008160033609b6c5a1c9a8a0155f177b91e093957168ca7de93871803b59597d7d54de3fa6e1540171b6c0c960b71a7020d9f60077f6af931a8bbf590da0223dacf75c7afa264697066735822122010d99b3e77fadd36b176946dfc4caef96f5d6a31e2c54c7f53fc8026ac90ce9764736f6c6343000816003360803461011a57601f61045a38819003918201601f19168301916001600160401b0383118484101761011f5780849260209460405283398101031261011a57516001600160a01b03808216919082820361011a576000549160018060a01b0319923384821617600055604051923391167f8be0079c531659141344cd1fd0a4f28419497f9722a3daafe3b4186f6b6457e0600080a33b156100b25750600154161760015560405161032490816101368239f35b62461bcd60e51b815260206004820152603360248201527f5570677261646561626c65426561636f6e3a20696d706c656d656e746174696f60448201527f6e206973206e6f74206120636f6e7472616374000000000000000000000000006064820152608490fd5b600080fd5b634e487b7160e01b600052604160045260246000fdfe6080604052600436101561001257600080fd5b6000803560e01c80633659cfe6146101c75780635c60da1b1461019e578063715018a6146101445780638da5cb5b1461011d5763f2fde38b1461005457600080fd5b3461011a57602036600319011261011a576004356001600160a01b038181169182900361011657610083610296565b81156100c25782546001600160a01b0319811683178455167f8be0079c531659141344cd1fd0a4f28419497f9722a3daafe3b4186f6b6457e08380a380f35b60405162461bcd60e51b815260206004820152602660248201527f4f776e61626c653a206e6577206f776e657220697320746865207a65726f206160448201526564647265737360d01b6064820152608490fd5b8280fd5b80fd5b503461011a578060031936011261011a57546040516001600160a01b039091168152602090f35b503461011a578060031936011261011a5761015d610296565b80546001600160a01b03198116825581906001600160a01b03167f8be0079c531659141344cd1fd0a4f28419497f9722a3daafe3b4186f6b6457e08280a380f35b503461011a578060031936011261011a576001546040516001600160a01b039091168152602090f35b503461011a57602036600319011261011a576004356001600160a01b03811690818103610116576101f6610296565b3b1561023557600180546001600160a01b031916821790557fbc7cd75a20ee27fd9adebab32041f755214dbc6bffa90cc0225b39da2e5c2d3b8280a280f35b60405162461bcd60e51b815260206004820152603360248201527f5570677261646561626c65426561636f6e3a20696d706c656d656e746174696f6044820152721b881a5cc81b9bdd08184818dbdb9d1c9858dd606a1b6064820152608490fd5b6000546001600160a01b031633036102aa57565b606460405162461bcd60e51b815260206004820152602060248201527f4f776e61626c653a2063616c6c6572206973206e6f7420746865206f776e65726044820152fdfea2646970667358221220df6ab73b1dff0a8ef9b5ef6df200574135fbb4c8346dced2b18f2800c3bc189564736f6c63430008160033",
  "linkReferences": {},
  "deployedLinkReferences": {}
}