{
  "_format": "hh-sol-artifact-1",
  "contractName": "TestFactory",
  "sourceName": "src/contracts/test/TestFactory.sol",
  "abi": [
    {
      "inputs": [],
      "stateMutability": "nonpayable",
      "type": "constructor"
    },
    {
      "anonymous": false,
      "inputs": [
        {
          "indexed": true,
          "internalType": "address",
          "name": "tokenAddress",
          "type": "address"
        },
        {
          "indexed": false,
          "internalType": "string",
          "name": "name",
          "type": "string"
        },
        {
          "indexed": false,
          "internalType": "string",
          "name": "symbol",
          "type": "string"
        }
      ],
      "name": "TokenCreated",
      "type": "event"
    },
    {
      "inputs": [
        {
          "internalType": "string",
          "name": "name",
          "type": "string"
        },
        {
          "internalType": "string",
          "name": "symbol",
          "type": "string"
        },
        {
          "internalType": "uint256",
          "name": "initialSupply",
          "type": "uint256"
        }
      ],
      "name": "createToken",
      "outputs": [
        {
          "internalType": "address",
          "name": "",
          "type": "address"
        }
      ],
      "stateMutability": "nonpayable",
      "type": "function"
    },
    {
      "inputs": [],
      "name": "tokenBeacon",
      "outputs": [
        {
          "internalType": "contract TestBeacon",
          "name": "",
          "type": "address"
        }
      ],
      "stateMutability": "view",
      "type": "function"
    }
  ],
  "bytecode": "0x6080604090808252346100e35761116d818101916001600160401b0391828411828510176100cd576113fb82396060835260a08160009485606082015260806020820152856080820152858782015203019083f080156100af5783516001600160a01b03929091610ffc808401928311848410176100b957918484926020946103ff853916815203019083f080156100af5782546001600160a01b03191691161790555161031690816100e98239f35b83513d84823e3d90fd5b634e487b7160e01b86526041600452602486fd5b634e487b7160e01b600052604160045260246000fd5b600080fdfe604060808152600436101561001357600080fd5b600090813560e01c80635b0605301461005f5763ccf5a77c1461003557600080fd5b3461005b578160031936011261005b57905490516001600160a01b039091168152602090f35b5080fd5b5090346101f25760603660031901126101f25767ffffffffffffffff9160043583811161020857610094903690600401610244565b92602435908111610208576100ad903690600401610244565b815160209363588ca48760e11b8583015260606024830152610101826100eb6100d9608483018a6102a0565b828103602319016044840152866102a0565b604435606483015203601f19810184528361020c565b808561013560018060a01b039485845416908851958680948193638f295d5960e01b835287600484015260248301906102a0565b03925af19182156101fc57819261019f575b505061019694957fffc04f682c7b287e4b552dacd4b833d7c33dc0549cd6da84388408e4830c05629261018992169586948651938493888552888501906102a0565b908382038a8501526102a0565b0390a251908152f35b9091508581813d83116101f5575b6101b7818361020c565b8101031261005b57519082821682036101f25750857fffc04f682c7b287e4b552dacd4b833d7c33dc0549cd6da84388408e4830c0562610147565b80fd5b503d6101ad565b508451903d90823e3d90fd5b8280fd5b90601f8019910116810190811067ffffffffffffffff82111761022e57604052565b634e487b7160e01b600052604160045260246000fd5b81601f8201121561029b5780359067ffffffffffffffff821161022e5760405192610279601f8401601f19166020018561020c565b8284526020838301011161029b57816000926020809301838601378301015290565b600080fd5b919082519283825260005b8481106102cc575050826000602080949584010152601f8019910116010190565b6020818301810151848301820152016102ab56fea2646970667358221220040390aef27107895417a3b12798bd00016e7ab3e2ff3faca44a948ab1fb91de64736f6c6343000816003360803461016457601f610ffc38819003918201601f19168301926001600160401b039290918385118386101761016957816020928492604097885283398101031261016457516001600160a01b0391908281169081900361016457600080546001600160a01b031980821633908117845587519396919491939284167f8be0079c531659141344cd1fd0a4f28419497f9722a3daafe3b4186f6b6457e08880a361045a90818301918383108784111761015057918391602093610ba28439815203019085f08015610146571680916001541617600155803b156101425790828092602486518096819363f2fde38b60e01b83523360048401525af1801561013857610113575b8351610a2290816101808239f35b821161012457508152388080610105565b634e487b7160e01b81526041600452602490fd5b84513d84823e3d90fd5b8280fd5b85513d86823e3d90fd5b634e487b7160e01b88526041600452602488fd5b600080fd5b634e487b7160e01b600052604160045260246000fdfe608060408181526004908136101561001657600080fd5b600092833560e01c90816359659e90146102fd57508063715018a6146102a05780638da5cb5b146102785780638f295d59146101275763f2fde38b1461005b57600080fd5b34610123576020366003190112610123576001600160a01b0382358181169391929084900361011f5761008c610322565b83156100cd57505082546001600160a01b0319811683178455167f8be0079c531659141344cd1fd0a4f28419497f9722a3daafe3b4186f6b6457e08380a380f35b906020608492519162461bcd60e51b8352820152602660248201527f4f776e61626c653a206e6577206f776e657220697320746865207a65726f206160448201526564647265737360d01b6064820152fd5b8480fd5b8280fd5b5091903461027457602092836003193601126101235781359167ffffffffffffffff80841161011f573660238501121561011f578382013581811161026157601f199084519582603f81601f850116011687018781108582111761024e578652818752366024838301011161024a5781889260248b9301838a01378701015260018060a01b039485600154168551946106729081870195878710908711176102375750908593929161037b853984528589850152805190818786015289895b8381106102205750505090601f828960608795819801015201160103019084f092831561021557505191168152f35b9051903d90823e3d90fd5b8083018201518782016060015287955081016101e6565b634e487b7160e01b8a5260419052602489fd5b8780fd5b634e487b7160e01b895260418652602489fd5b634e487b7160e01b865260418352602486fd5b5080fd5b838234610274578160031936011261027457905490516001600160a01b039091168152602090f35b83346102fa57806003193601126102fa576102b9610322565b80546001600160a01b03198116825581906001600160a01b03167f8be0079c531659141344cd1fd0a4f28419497f9722a3daafe3b4186f6b6457e08280a380f35b80fd5b8490346102745781600319360112610274576001546001600160a01b03168152602090f35b6000546001600160a01b0316330361033657565b606460405162461bcd60e51b815260206004820152602060248201527f4f776e61626c653a2063616c6c6572206973206e6f7420746865206f776e65726044820152fdfe60806040908082526106728038038091610019828561034d565b8339810190828183031261023f5761003081610370565b6020828101516001600160401b039391929184821161023f57019084601f8301121561023f5781519161006283610384565b9261006f8851948561034d565b8084528484019685828401011161023f57868561008c930161039f565b803b156102fb578551635c60da1b60e01b80825292916001600160a01b0316908481600481855afa9081156102f0576000916102bb575b503b1561025e577fa3f0ad74e5423aebfd80d3ef4346578335a9a72aeaee59ff6cb3582b35133d5080546001600160a01b03191682179055865192817f1cf3b03a6cf19fa2baba4df148e9dcabedea7f8a5c07840e207e5c089be95d3e600080a2825115801590610256575b610142575b87516101fc90816104768239f35b6004848693819382525afa91821561024b5760009261020f575b5085519360608501908111858210176101f9578652602784527f416464726573733a206c6f772d6c6576656c2064656c65676174652063616c6c83850152660819985a5b195960ca1b84870152516101e3946000918291845af4903d156101f0573d6101c781610384565b906101d48851928361034d565b8152600081943d92013e6103c2565b5038808080808080610134565b606092506103c2565b634e487b7160e01b600052604160045260246000fd5b9091508281813d8311610244575b610227818361034d565b8101031261023f5761023890610370565b903861015c565b600080fd5b503d61021d565b86513d6000823e3d90fd5b50600061012f565b865162461bcd60e51b815260048101859052603060248201527f455243313936373a20626561636f6e20696d706c656d656e746174696f6e206960448201526f1cc81b9bdd08184818dbdb9d1c9858dd60821b6064820152608490fd5b90508481813d83116102e9575b6102d2818361034d565b8101031261023f576102e390610370565b386100c3565b503d6102c8565b88513d6000823e3d90fd5b855162461bcd60e51b815260048101849052602560248201527f455243313936373a206e657720626561636f6e206973206e6f74206120636f6e6044820152641d1c9858dd60da1b6064820152608490fd5b601f909101601f19168101906001600160401b038211908210176101f957604052565b51906001600160a01b038216820361023f57565b6001600160401b0381116101f957601f01601f191660200190565b60005b8381106103b25750506000910152565b81810151838201526020016103a2565b9192901561042457508151156103d6575090565b3b156103df5790565b60405162461bcd60e51b815260206004820152601d60248201527f416464726573733a2063616c6c20746f206e6f6e2d636f6e74726163740000006044820152606490fd5b8251909150156104375750805190602001fd5b6044604051809262461bcd60e51b825260206004830152610467815180928160248601526020868601910161039f565b601f01601f19168101030190fdfe608080604052366100c7577fa3f0ad74e5423aebfd80d3ef4346578335a9a72aeaee59ff6cb3582b35133d5054635c60da1b60e01b8252602090829060049082906001600160a01b03165afa9081156100bb57600091610060575b506101a7565b905060203d6020116100b4575b601f8101601f191682019167ffffffffffffffff83118184101761009e576100989260405201610161565b3861005a565b634e487b7160e01b600052604160045260246000fd5b503d61006d565b6040513d6000823e3d90fd5b7fa3f0ad74e5423aebfd80d3ef4346578335a9a72aeaee59ff6cb3582b35133d5054604051635c60da1b60e01b815290602090829060049082906001600160a01b03165afa9081156100bb5760009161012057506101a7565b602091503d8211610159575b601f8201601f191681019167ffffffffffffffff83118284101761009e5761009892604052810190610188565b3d915061012c565b602090607f190112610183576080516001600160a01b03811681036101835790565b600080fd5b9081602091031261018357516001600160a01b03811681036101835790565b6000808092368280378136915af43d82803e156101c2573d90f35b3d90fdfea264697066735822122054f1b4463bccdc05c56deee162ca6730ff9d30ee0b3fc732b7a0d6a6da3ea58564736f6c63430008160033a2646970667358221220857d8f61788b4135c506484a6fe3d3000ed962e7fc000683eee8337cedb8278064736f6c6343000816003360803461011a57601f61045a38819003918201601f19168301916001600160401b0383118484101761011f5780849260209460405283398101031261011a57516001600160a01b03808216919082820361011a576000549160018060a01b0319923384821617600055604051923391167f8be0079c531659141344cd1fd0a4f28419497f9722a3daafe3b4186f6b6457e0600080a33b156100b25750600154161760015560405161032490816101368239f35b62461bcd60e51b815260206004820152603360248201527f5570677261646561626c65426561636f6e3a20696d706c656d656e746174696f60448201527f6e206973206e6f74206120636f6e7472616374000000000000000000000000006064820152608490fd5b600080fd5b634e487b7160e01b600052604160045260246000fdfe6080604052600436101561001257600080fd5b6000803560e01c80633659cfe6146101c75780635c60da1b1461019e578063715018a6146101445780638da5cb5b1461011d5763f2fde38b1461005457600080fd5b3461011a57602036600319011261011a576004356001600160a01b038181169182900361011657610083610296565b81156100c25782546001600160a01b0319811683178455167f8be0079c531659141344cd1fd0a4f28419497f9722a3daafe3b4186f6b6457e08380a380f35b60405162461bcd60e51b815260206004820152602660248201527f4f776e61626c653a206e6577206f776e657220697320746865207a65726f206160448201526564647265737360d01b6064820152608490fd5b8280fd5b80fd5b503461011a578060031936011261011a57546040516001600160a01b039091168152602090f35b503461011a578060031936011261011a5761015d610296565b80546001600160a01b03198116825581906001600160a01b03167f8be0079c531659141344cd1fd0a4f28419497f9722a3daafe3b4186f6b6457e08280a380f35b503461011a578060031936011261011a576001546040516001600160a01b039091168152602090f35b503461011a57602036600319011261011a576004356001600160a01b03811690818103610116576101f6610296565b3b1561023557600180546001600160a01b031916821790557fbc7cd75a20ee27fd9adebab32041f755214dbc6bffa90cc0225b39da2e5c2d3b8280a280f35b60405162461bcd60e51b815260206004820152603360248201527f5570677261646561626c65426561636f6e3a20696d706c656d656e746174696f6044820152721b881a5cc81b9bdd08184818dbdb9d1c9858dd606a1b6064820152608490fd5b6000546001600160a01b031633036102aa57565b606460405162461bcd60e51b815260206004820152602060248201527f4f776e61626c653a2063616c6c6572206973206e6f7420746865206f776e65726044820152fdfea2646970667358221220c17a697fa218ab66e1832a9cb889fea738e8787d12399361a9390095dd8fa1f464736f6c6343000816003360806040523462000362576200116d803803806200001d8162000367565b928339810190606081830312620003625780516001600160401b03908181116200036257836200004f9184016200038d565b916020938482015183811162000362576200006b92016200038d565b825182811162000262576003918254916001958684811c9416801562000357575b8885101462000341578190601f94858111620002eb575b508890858311600114620002845760009262000278575b505060001982861b1c191690861b1783555b8051938411620002625760049586548681811c9116801562000257575b828210146200024257838111620001f7575b50809285116001146200018957509383949184926000956200017d575b50501b92600019911b1c19161790555b60058054336001600160a01b03198216811790925560405191906001600160a01b03167f8be0079c531659141344cd1fd0a4f28419497f9722a3daafe3b4186f6b6457e0600080a3610d6d9081620004008239f35b01519350388062000118565b92919084601f1981168860005285600020956000905b89838310620001dc5750505010620001c1575b50505050811b01905562000128565b01519060f884600019921b161c1916905538808080620001b2565b8587015189559097019694850194889350908101906200019f565b87600052816000208480880160051c82019284891062000238575b0160051c019087905b8281106200022b575050620000fb565b600081550187906200021b565b9250819262000212565b602288634e487b7160e01b6000525260246000fd5b90607f1690620000e9565b634e487b7160e01b600052604160045260246000fd5b015190503880620000ba565b90889350601f19831691876000528a6000209260005b8c828210620002d45750508411620002bb575b505050811b018355620000cc565b015160001983881b60f8161c19169055388080620002ad565b8385015186558c979095019493840193016200029a565b90915085600052886000208580850160051c8201928b861062000337575b918a91869594930160051c01915b82811062000327575050620000a3565b600081558594508a910162000317565b9250819262000309565b634e487b7160e01b600052602260045260246000fd5b93607f16936200008c565b600080fd5b6040519190601f01601f191682016001600160401b038111838210176200026257604052565b919080601f84011215620003625782516001600160401b0381116200026257602090620003c3601f8201601f1916830162000367565b92818452828287010111620003625760005b818110620003eb57508260009394955001015290565b8581018301518482018401528201620003d556fe6080604081815260048036101561001557600080fd5b600092833560e01c90816306fdde03146107ae57508063095ea7b31461078457806318160ddd1461076557806323b872dd1461069b578063313ce5671461067f578063395093511461062f57806340c10f19146105ff57806370a08231146105c8578063715018a61461056b5780638da5cb5b1461054257806395d89b411461043c578063a457c2d714610395578063a9059cbb14610364578063b119490e146101ee578063dd62ed3e146101a15763f2fde38b146100d357600080fd5b3461019d57602036600319011261019d576100ec6108e9565b906100f5610c3c565b6001600160a01b0391821692831561014b575050600554826bffffffffffffffffffffffff60a01b821617600555167f8be0079c531659141344cd1fd0a4f28419497f9722a3daafe3b4186f6b6457e08380a380f35b906020608492519162461bcd60e51b8352820152602660248201527f4f776e61626c653a206e6577206f776e657220697320746865207a65726f206160448201526564647265737360d01b6064820152fd5b8280fd5b5050346101ea57806003193601126101ea57806020926101bf6108e9565b6101c7610904565b6001600160a01b0391821683526001865283832091168252845220549051908152f35b5080fd5b503461019d57606036600319011261019d5767ffffffffffffffff81358181116103605761021f9036908401610952565b5060243590811161035c576102379036908301610952565b5060055460ff8160a81c16159182809361034c575b8015610332575b156102d8575060ff60a01b198116600160a01b17600555816102c0575b5061027d60443533610c94565b610285575080f35b6005805460ff60a81b1916905551600181527f7f26b83ff96e1f2b6a682f133852f6798a09c465da95921460cefb384740249890602090a180f35b61ffff60a01b191661010160a01b1760055538610270565b608490602085519162461bcd60e51b8352820152602e60248201527f496e697469616c697a61626c653a20636f6e747261637420697320616c72656160448201526d191e481a5b9a5d1a585b1a5e995960921b6064820152fd5b50303b1580156102535750600160ff8360a01c1614610253565b50600160ff8360a01c161061024c565b8380fd5b8480fd5b5050346101ea57806003193601126101ea5760209061038e6103846108e9565b6024359033610ace565b5160018152f35b5082346104395782600319360112610439576103af6108e9565b918360243592338152600160205281812060018060a01b03861682526020522054908282106103e85760208561038e85850387336109cc565b608490602086519162461bcd60e51b8352820152602560248201527f45524332303a2064656372656173656420616c6c6f77616e63652062656c6f77604482015264207a65726f60d81b6064820152fd5b80fd5b509190346101ea57816003193601126101ea5780519180938054916001908360011c9260018516948515610538575b60209586861081146105255785895290811561050157506001146104a9575b6104a5878761049b828c038361091a565b51918291826108a0565b0390f35b81529295507f8a35acfbc15ff81a39ae7d344fd709f28e8600b4aa8c65c6b64bfe7fe36bd19b5b8284106104ee57505050826104a59461049b9282010194388061048a565b80548685018801529286019281016104d0565b60ff19168887015250505050151560051b830101925061049b826104a5388061048a565b634e487b7160e01b845260228352602484fd5b93607f169361046b565b5050346101ea57816003193601126101ea5760055490516001600160a01b039091168152602090f35b8334610439578060031936011261043957610584610c3c565b600580546001600160a01b0319811690915581906001600160a01b03167f8be0079c531659141344cd1fd0a4f28419497f9722a3daafe3b4186f6b6457e08280a380f35b5050346101ea5760203660031901126101ea5760209181906001600160a01b036105f06108e9565b16815280845220549051908152f35b5050346101ea573660031901126104395761062c61061b6108e9565b610623610c3c565b60243590610c94565b80f35b5050346101ea57806003193601126101ea5761038e6020926106786106526108e9565b338352600186528483206001600160a01b038216845286529184902054602435906109a9565b90336109cc565b5050346101ea57816003193601126101ea576020905160128152f35b508290346101ea5760603660031901126101ea576106b76108e9565b6106bf610904565b91846044359460018060a01b0384168152600160205281812033825260205220549060001982036106f9575b60208661038e878787610ace565b84821061072257509183916107176020969561038e950333836109cc565b9193948193506106eb565b606490602087519162461bcd60e51b8352820152601d60248201527f45524332303a20696e73756666696369656e7420616c6c6f77616e63650000006044820152fd5b5050346101ea57816003193601126101ea576020906002549051908152f35b5050346101ea57806003193601126101ea5760209061038e6107a46108e9565b60243590336109cc565b929190503461035c578360031936011261035c57600354600181811c9186908281168015610896575b602095868610821461088357508488529081156108615750600114610808575b6104a5868661049b828b038361091a565b929550600383527fc2575a0e9e593c00f959f8c92f12db2869c3395a3b0502d05e2516446f71f85b5b82841061084e57505050826104a59461049b9282010194386107f7565b8054868501880152928601928101610831565b60ff191687860152505050151560051b830101925061049b826104a5386107f7565b634e487b7160e01b845260229052602483fd5b93607f16936107d7565b6020808252825181830181905290939260005b8281106108d557505060409293506000838284010152601f8019910116010190565b8181018601518482016040015285016108b3565b600435906001600160a01b03821682036108ff57565b600080fd5b602435906001600160a01b03821682036108ff57565b90601f8019910116810190811067ffffffffffffffff82111761093c57604052565b634e487b7160e01b600052604160045260246000fd5b81601f820112156108ff5780359067ffffffffffffffff821161093c5760405192610987601f8401601f19166020018561091a565b828452602083830101116108ff57816000926020809301838601378301015290565b919082018092116109b657565b634e487b7160e01b600052601160045260246000fd5b6001600160a01b03908116918215610a7d5716918215610a2d5760207f8c5be1e5ebec7d5bd14f71427d1e84f3dd0314c0f7b2291e5b200ac8c7c3b925918360005260018252604060002085600052825280604060002055604051908152a3565b60405162461bcd60e51b815260206004820152602260248201527f45524332303a20617070726f766520746f20746865207a65726f206164647265604482015261737360f01b6064820152608490fd5b60405162461bcd60e51b8152602060048201526024808201527f45524332303a20617070726f76652066726f6d20746865207a65726f206164646044820152637265737360e01b6064820152608490fd5b6001600160a01b03908116918215610be95716918215610b9857600082815280602052604081205491808310610b4457604082827fddf252ad1be2c89b69c2b068fc378daa952ba7f163c4a11628f55a4df523b3ef958760209652828652038282205586815220818154019055604051908152a3565b60405162461bcd60e51b815260206004820152602660248201527f45524332303a207472616e7366657220616d6f756e7420657863656564732062604482015265616c616e636560d01b6064820152608490fd5b60405162461bcd60e51b815260206004820152602360248201527f45524332303a207472616e7366657220746f20746865207a65726f206164647260448201526265737360e81b6064820152608490fd5b60405162461bcd60e51b815260206004820152602560248201527f45524332303a207472616e736665722066726f6d20746865207a65726f206164604482015264647265737360d81b6064820152608490fd5b6005546001600160a01b03163303610c5057565b606460405162461bcd60e51b815260206004820152602060248201527f4f776e61626c653a2063616c6c6572206973206e6f7420746865206f776e65726044820152fd5b6001600160a01b0316908115610cf2577fddf252ad1be2c89b69c2b068fc378daa952ba7f163c4a11628f55a4df523b3ef602082610cd66000946002546109a9565b60025584845283825260408420818154019055604051908152a3565b60405162461bcd60e51b815260206004820152601f60248201527f45524332303a206d696e7420746f20746865207a65726f2061646472657373006044820152606490fdfea2646970667358221220dce378a3815ba87016176626f641d356daa9fdf3b00bea366a5c8204bb40850264736f6c63430008160033",
  "linkReferences": {},
  "deployedLinkReferences": {}
}