{
  "_format": "hh-sol-artifact-1",
  "contractName": "TokenTemplate_v2_1_0",
  "sourceName": "src/contracts/TokenTemplate_v2.1.0.sol",
  "abi": [
    {
      "inputs": [],
      "stateMutability": "nonpayable",
      "type": "constructor"
    },
    {
      "anonymous": false,
      "inputs": [
        {
          "indexed": false,
          "internalType": "address",
          "name": "previousAdmin",
          "type": "address"
        },
        {
          "indexed": false,
          "internalType": "address",
          "name": "newAdmin",
          "type": "address"
        }
      ],
      "name": "AdminChanged",
      "type": "event"
    },
    {
      "anonymous": false,
      "inputs": [
        {
          "indexed": true,
          "internalType": "address",
          "name": "owner",
          "type": "address"
        },
        {
          "indexed": true,
          "internalType": "address",
          "name": "spender",
          "type": "address"
        },
        {
          "indexed": false,
          "internalType": "uint256",
          "name": "value",
          "type": "uint256"
        }
      ],
      "name": "Approval",
      "type": "event"
    },
    {
      "anonymous": false,
      "inputs": [
        {
          "indexed": true,
          "internalType": "address",
          "name": "beacon",
          "type": "address"
        }
      ],
      "name": "BeaconUpgraded",
      "type": "event"
    },
    {
      "anonymous": false,
      "inputs": [
        {
          "indexed": false,
          "internalType": "address[]",
          "name": "addresses",
          "type": "address[]"
        },
        {
          "indexed": false,
          "internalType": "bool",
          "name": "status",
          "type": "bool"
        }
      ],
      "name": "BlacklistUpdated",
      "type": "event"
    },
    {
      "anonymous": false,
      "inputs": [
        {
          "indexed": false,
          "internalType": "address",
          "name": "contributor",
          "type": "address"
        },
        {
          "indexed": false,
          "internalType": "uint256",
          "name": "amount",
          "type": "uint256"
        }
      ],
      "name": "ContributionReceived",
      "type": "event"
    },
    {
      "anonymous": false,
      "inputs": [
        {
          "indexed": false,
          "internalType": "address",
          "name": "contributor",
          "type": "address"
        },
        {
          "indexed": false,
          "internalType": "uint256",
          "name": "amount",
          "type": "uint256"
        }
      ],
      "name": "ContributionRefunded",
      "type": "event"
    },
    {
      "anonymous": false,
      "inputs": [
        {
          "indexed": false,
          "internalType": "uint8",
          "name": "version",
          "type": "uint8"
        }
      ],
      "name": "Initialized",
      "type": "event"
    },
    {
      "anonymous": false,
      "inputs": [
        {
          "indexed": true,
          "internalType": "address",
          "name": "previousOwner",
          "type": "address"
        },
        {
          "indexed": true,
          "internalType": "address",
          "name": "newOwner",
          "type": "address"
        }
      ],
      "name": "OwnershipTransferred",
      "type": "event"
    },
    {
      "anonymous": false,
      "inputs": [
        {
          "indexed": false,
          "internalType": "address",
          "name": "account",
          "type": "address"
        }
      ],
      "name": "Paused",
      "type": "event"
    },
    {
      "anonymous": false,
      "inputs": [
        {
          "indexed": false,
          "internalType": "uint256",
          "name": "totalContributed",
          "type": "uint256"
        },
        {
          "indexed": false,
          "internalType": "uint256",
          "name": "tokensDistributed",
          "type": "uint256"
        }
      ],
      "name": "PresaleFinalized",
      "type": "event"
    },
    {
      "anonymous": false,
      "inputs": [
        {
          "indexed": false,
          "internalType": "uint256",
          "name": "softCap",
          "type": "uint256"
        },
        {
          "indexed": false,
          "internalType": "uint256",
          "name": "hardCap",
          "type": "uint256"
        },
        {
          "indexed": false,
          "internalType": "uint256",
          "name": "startTime",
          "type": "uint256"
        },
        {
          "indexed": false,
          "internalType": "uint256",
          "name": "endTime",
          "type": "uint256"
        },
        {
          "indexed": false,
          "internalType": "uint256",
          "name": "presaleRate",
          "type": "uint256"
        }
      ],
      "name": "PresaleStarted",
      "type": "event"
    },
    {
      "anonymous": false,
      "inputs": [
        {
          "indexed": false,
          "internalType": "address",
          "name": "account",
          "type": "address"
        },
        {
          "indexed": false,
          "internalType": "uint256",
          "name": "unlockTime",
          "type": "uint256"
        }
      ],
      "name": "TimeLockSet",
      "type": "event"
    },
    {
      "anonymous": false,
      "inputs": [
        {
          "indexed": true,
          "internalType": "address",
          "name": "from",
          "type": "address"
        },
        {
          "indexed": true,
          "internalType": "address",
          "name": "to",
          "type": "address"
        },
        {
          "indexed": false,
          "internalType": "uint256",
          "name": "value",
          "type": "uint256"
        }
      ],
      "name": "Transfer",
      "type": "event"
    },
    {
      "anonymous": false,
      "inputs": [
        {
          "indexed": false,
          "internalType": "address",
          "name": "account",
          "type": "address"
        }
      ],
      "name": "Unpaused",
      "type": "event"
    },
    {
      "anonymous": false,
      "inputs": [
        {
          "indexed": true,
          "internalType": "address",
          "name": "implementation",
          "type": "address"
        }
      ],
      "name": "Upgraded",
      "type": "event"
    },
    {
      "anonymous": false,
      "inputs": [
        {
          "indexed": false,
          "internalType": "address[]",
          "name": "addresses",
          "type": "address[]"
        },
        {
          "indexed": false,
          "internalType": "bool",
          "name": "status",
          "type": "bool"
        }
      ],
      "name": "WhitelistUpdated",
      "type": "event"
    },
    {
      "inputs": [],
      "name": "VERSION",
      "outputs": [
        {
          "internalType": "string",
          "name": "",
          "type": "string"
        }
      ],
      "stateMutability": "view",
      "type": "function"
    },
    {
      "inputs": [],
      "name": "VERSION_HASH",
      "outputs": [
        {
          "internalType": "bytes32",
          "name": "",
          "type": "bytes32"
        }
      ],
      "stateMutability": "view",
      "type": "function"
    },
    {
      "inputs": [
        {
          "internalType": "address",
          "name": "owner",
          "type": "address"
        },
        {
          "internalType": "address",
          "name": "spender",
          "type": "address"
        }
      ],
      "name": "allowance",
      "outputs": [
        {
          "internalType": "uint256",
          "name": "",
          "type": "uint256"
        }
      ],
      "stateMutability": "view",
      "type": "function"
    },
    {
      "inputs": [
        {
          "internalType": "address",
          "name": "spender",
          "type": "address"
        },
        {
          "internalType": "uint256",
          "name": "amount",
          "type": "uint256"
        }
      ],
      "name": "approve",
      "outputs": [
        {
          "internalType": "bool",
          "name": "",
          "type": "bool"
        }
      ],
      "stateMutability": "nonpayable",
      "type": "function"
    },
    {
      "inputs": [
        {
          "internalType": "address",
          "name": "account",
          "type": "address"
        }
      ],
      "name": "balanceOf",
      "outputs": [
        {
          "internalType": "uint256",
          "name": "",
          "type": "uint256"
        }
      ],
      "stateMutability": "view",
      "type": "function"
    },
    {
      "inputs": [
        {
          "internalType": "address",
          "name": "",
          "type": "address"
        }
      ],
      "name": "blacklist",
      "outputs": [
        {
          "internalType": "bool",
          "name": "",
          "type": "bool"
        }
      ],
      "stateMutability": "view",
      "type": "function"
    },
    {
      "inputs": [],
      "name": "blacklistEnabled",
      "outputs": [
        {
          "internalType": "bool",
          "name": "",
          "type": "bool"
        }
      ],
      "stateMutability": "view",
      "type": "function"
    },
    {
      "inputs": [
        {
          "internalType": "uint256",
          "name": "amount",
          "type": "uint256"
        }
      ],
      "name": "burn",
      "outputs": [],
      "stateMutability": "nonpayable",
      "type": "function"
    },
    {
      "inputs": [
        {
          "internalType": "address",
          "name": "account",
          "type": "address"
        },
        {
          "internalType": "uint256",
          "name": "amount",
          "type": "uint256"
        }
      ],
      "name": "burnFrom",
      "outputs": [],
      "stateMutability": "nonpayable",
      "type": "function"
    },
    {
      "inputs": [],
      "name": "claimRefund",
      "outputs": [],
      "stateMutability": "nonpayable",
      "type": "function"
    },
    {
      "inputs": [],
      "name": "contribute",
      "outputs": [],
      "stateMutability": "payable",
      "type": "function"
    },
    {
      "inputs": [
        {
          "internalType": "address",
          "name": "",
          "type": "address"
        }
      ],
      "name": "contributions",
      "outputs": [
        {
          "internalType": "uint256",
          "name": "",
          "type": "uint256"
        }
      ],
      "stateMutability": "view",
      "type": "function"
    },
    {
      "inputs": [],
      "name": "decimals",
      "outputs": [
        {
          "internalType": "uint8",
          "name": "",
          "type": "uint8"
        }
      ],
      "stateMutability": "view",
      "type": "function"
    },
    {
      "inputs": [
        {
          "internalType": "address",
          "name": "spender",
          "type": "address"
        },
        {
          "internalType": "uint256",
          "name": "subtractedValue",
          "type": "uint256"
        }
      ],
      "name": "decreaseAllowance",
      "outputs": [
        {
          "internalType": "bool",
          "name": "",
          "type": "bool"
        }
      ],
      "stateMutability": "nonpayable",
      "type": "function"
    },
    {
      "inputs": [],
      "name": "finalize",
      "outputs": [],
      "stateMutability": "nonpayable",
      "type": "function"
    },
    {
      "inputs": [
        {
          "internalType": "address",
          "name": "contributor",
          "type": "address"
        }
      ],
      "name": "getContribution",
      "outputs": [
        {
          "internalType": "uint256",
          "name": "",
          "type": "uint256"
        }
      ],
      "stateMutability": "view",
      "type": "function"
    },
    {
      "inputs": [],
      "name": "getPresaleStatus",
      "outputs": [
        {
          "internalType": "uint256",
          "name": "softCap",
          "type": "uint256"
        },
        {
          "internalType": "uint256",
          "name": "hardCap",
          "type": "uint256"
        },
        {
          "internalType": "uint256",
          "name": "minContribution",
          "type": "uint256"
        },
        {
          "internalType": "uint256",
          "name": "maxContribution",
          "type": "uint256"
        },
        {
          "internalType": "uint256",
          "name": "startTime",
          "type": "uint256"
        },
        {
          "internalType": "uint256",
          "name": "endTime",
          "type": "uint256"
        },
        {
          "internalType": "uint256",
          "name": "presaleRate",
          "type": "uint256"
        },
        {
          "internalType": "bool",
          "name": "whitelistEnabled",
          "type": "bool"
        },
        {
          "internalType": "bool",
          "name": "finalized",
          "type": "bool"
        },
        {
          "internalType": "uint256",
          "name": "totalContributed",
          "type": "uint256"
        }
      ],
      "stateMutability": "view",
      "type": "function"
    },
    {
      "inputs": [
        {
          "internalType": "address",
          "name": "account",
          "type": "address"
        }
      ],
      "name": "getTimeLock",
      "outputs": [
        {
          "internalType": "uint256",
          "name": "",
          "type": "uint256"
        }
      ],
      "stateMutability": "view",
      "type": "function"
    },
    {
      "inputs": [
        {
          "internalType": "address",
          "name": "spender",
          "type": "address"
        },
        {
          "internalType": "uint256",
          "name": "addedValue",
          "type": "uint256"
        }
      ],
      "name": "increaseAllowance",
      "outputs": [
        {
          "internalType": "bool",
          "name": "",
          "type": "bool"
        }
      ],
      "stateMutability": "nonpayable",
      "type": "function"
    },
    {
      "inputs": [
        {
          "components": [
            {
              "internalType": "string",
              "name": "name",
              "type": "string"
            },
            {
              "internalType": "string",
              "name": "symbol",
              "type": "string"
            },
            {
              "internalType": "uint256",
              "name": "initialSupply",
              "type": "uint256"
            },
            {
              "internalType": "uint256",
              "name": "maxSupply",
              "type": "uint256"
            },
            {
              "internalType": "address",
              "name": "owner",
              "type": "address"
            },
            {
              "internalType": "bool",
              "name": "enableBlacklist",
              "type": "bool"
            },
            {
              "internalType": "bool",
              "name": "enableTimeLock",
              "type": "bool"
            },
            {
              "internalType": "uint256",
              "name": "presaleRate",
              "type": "uint256"
            },
            {
              "internalType": "uint256",
              "name": "minContribution",
              "type": "uint256"
            },
            {
              "internalType": "uint256",
              "name": "maxContribution",
              "type": "uint256"
            },
            {
              "internalType": "uint256",
              "name": "presaleCap",
              "type": "uint256"
            },
            {
              "internalType": "uint256",
              "name": "startTime",
              "type": "uint256"
            },
            {
              "internalType": "uint256",
              "name": "endTime",
              "type": "uint256"
            }
          ],
          "internalType": "struct TokenTemplate_v2_1_0.InitParams",
          "name": "params",
          "type": "tuple"
        }
      ],
      "name": "initialize",
      "outputs": [],
      "stateMutability": "nonpayable",
      "type": "function"
    },
    {
      "inputs": [
        {
          "internalType": "address",
          "name": "account",
          "type": "address"
        }
      ],
      "name": "isBlacklisted",
      "outputs": [
        {
          "internalType": "bool",
          "name": "",
          "type": "bool"
        }
      ],
      "stateMutability": "view",
      "type": "function"
    },
    {
      "inputs": [
        {
          "internalType": "address",
          "name": "account",
          "type": "address"
        }
      ],
      "name": "isWhitelisted",
      "outputs": [
        {
          "internalType": "bool",
          "name": "",
          "type": "bool"
        }
      ],
      "stateMutability": "view",
      "type": "function"
    },
    {
      "inputs": [],
      "name": "maxSupply",
      "outputs": [
        {
          "internalType": "uint256",
          "name": "",
          "type": "uint256"
        }
      ],
      "stateMutability": "view",
      "type": "function"
    },
    {
      "inputs": [],
      "name": "name",
      "outputs": [
        {
          "internalType": "string",
          "name": "",
          "type": "string"
        }
      ],
      "stateMutability": "view",
      "type": "function"
    },
    {
      "inputs": [],
      "name": "owner",
      "outputs": [
        {
          "internalType": "address",
          "name": "",
          "type": "address"
        }
      ],
      "stateMutability": "view",
      "type": "function"
    },
    {
      "inputs": [],
      "name": "pause",
      "outputs": [],
      "stateMutability": "nonpayable",
      "type": "function"
    },
    {
      "inputs": [],
      "name": "paused",
      "outputs": [
        {
          "internalType": "bool",
          "name": "",
          "type": "bool"
        }
      ],
      "stateMutability": "view",
      "type": "function"
    },
    {
      "inputs": [],
      "name": "presaleInfo",
      "outputs": [
        {
          "internalType": "uint256",
          "name": "softCap",
          "type": "uint256"
        },
        {
          "internalType": "uint256",
          "name": "hardCap",
          "type": "uint256"
        },
        {
          "internalType": "uint256",
          "name": "minContribution",
          "type": "uint256"
        },
        {
          "internalType": "uint256",
          "name": "maxContribution",
          "type": "uint256"
        },
        {
          "internalType": "uint256",
          "name": "startTime",
          "type": "uint256"
        },
        {
          "internalType": "uint256",
          "name": "endTime",
          "type": "uint256"
        },
        {
          "internalType": "uint256",
          "name": "presaleRate",
          "type": "uint256"
        },
        {
          "internalType": "bool",
          "name": "whitelistEnabled",
          "type": "bool"
        },
        {
          "internalType": "bool",
          "name": "finalized",
          "type": "bool"
        },
        {
          "internalType": "uint256",
          "name": "totalContributed",
          "type": "uint256"
        }
      ],
      "stateMutability": "view",
      "type": "function"
    },
    {
      "inputs": [],
      "name": "proxiableUUID",
      "outputs": [
        {
          "internalType": "bytes32",
          "name": "",
          "type": "bytes32"
        }
      ],
      "stateMutability": "view",
      "type": "function"
    },
    {
      "inputs": [],
      "name": "renounceOwnership",
      "outputs": [],
      "stateMutability": "nonpayable",
      "type": "function"
    },
    {
      "inputs": [
        {
          "internalType": "address",
          "name": "account",
          "type": "address"
        },
        {
          "internalType": "uint256",
          "name": "unlockTime",
          "type": "uint256"
        }
      ],
      "name": "setTimeLock",
      "outputs": [],
      "stateMutability": "nonpayable",
      "type": "function"
    },
    {
      "inputs": [],
      "name": "symbol",
      "outputs": [
        {
          "internalType": "string",
          "name": "",
          "type": "string"
        }
      ],
      "stateMutability": "view",
      "type": "function"
    },
    {
      "inputs": [],
      "name": "timeLockEnabled",
      "outputs": [
        {
          "internalType": "bool",
          "name": "",
          "type": "bool"
        }
      ],
      "stateMutability": "view",
      "type": "function"
    },
    {
      "inputs": [
        {
          "internalType": "address",
          "name": "",
          "type": "address"
        }
      ],
      "name": "timeLocks",
      "outputs": [
        {
          "internalType": "uint256",
          "name": "",
          "type": "uint256"
        }
      ],
      "stateMutability": "view",
      "type": "function"
    },
    {
      "inputs": [],
      "name": "totalSupply",
      "outputs": [
        {
          "internalType": "uint256",
          "name": "",
          "type": "uint256"
        }
      ],
      "stateMutability": "view",
      "type": "function"
    },
    {
      "inputs": [
        {
          "internalType": "address",
          "name": "to",
          "type": "address"
        },
        {
          "internalType": "uint256",
          "name": "amount",
          "type": "uint256"
        }
      ],
      "name": "transfer",
      "outputs": [
        {
          "internalType": "bool",
          "name": "",
          "type": "bool"
        }
      ],
      "stateMutability": "nonpayable",
      "type": "function"
    },
    {
      "inputs": [
        {
          "internalType": "address",
          "name": "from",
          "type": "address"
        },
        {
          "internalType": "address",
          "name": "to",
          "type": "address"
        },
        {
          "internalType": "uint256",
          "name": "amount",
          "type": "uint256"
        }
      ],
      "name": "transferFrom",
      "outputs": [
        {
          "internalType": "bool",
          "name": "",
          "type": "bool"
        }
      ],
      "stateMutability": "nonpayable",
      "type": "function"
    },
    {
      "inputs": [
        {
          "internalType": "address",
          "name": "newOwner",
          "type": "address"
        }
      ],
      "name": "transferOwnership",
      "outputs": [],
      "stateMutability": "nonpayable",
      "type": "function"
    },
    {
      "inputs": [],
      "name": "unpause",
      "outputs": [],
      "stateMutability": "nonpayable",
      "type": "function"
    },
    {
      "inputs": [
        {
          "internalType": "address[]",
          "name": "addresses",
          "type": "address[]"
        },
        {
          "internalType": "bool",
          "name": "status",
          "type": "bool"
        }
      ],
      "name": "updateBlacklist",
      "outputs": [],
      "stateMutability": "nonpayable",
      "type": "function"
    },
    {
      "inputs": [
        {
          "internalType": "address[]",
          "name": "addresses",
          "type": "address[]"
        },
        {
          "internalType": "bool",
          "name": "status",
          "type": "bool"
        }
      ],
      "name": "updateWhitelist",
      "outputs": [],
      "stateMutability": "nonpayable",
      "type": "function"
    },
    {
      "inputs": [
        {
          "internalType": "address",
          "name": "newImplementation",
          "type": "address"
        }
      ],
      "name": "upgradeTo",
      "outputs": [],
      "stateMutability": "nonpayable",
      "type": "function"
    },
    {
      "inputs": [
        {
          "internalType": "address",
          "name": "newImplementation",
          "type": "address"
        },
        {
          "internalType": "bytes",
          "name": "data",
          "type": "bytes"
        }
      ],
      "name": "upgradeToAndCall",
      "outputs": [],
      "stateMutability": "payable",
      "type": "function"
    },
    {
      "inputs": [
        {
          "internalType": "address",
          "name": "",
          "type": "address"
        }
      ],
      "name": "whitelist",
      "outputs": [
        {
          "internalType": "bool",
          "name": "",
          "type": "bool"
        }
      ],
      "stateMutability": "view",
      "type": "function"
    }
  ],
  "bytecode": "0x60a0604052346200003657620000146200003b565b604051613921620001fc8239608051818181610fa70152611b95015261392190f35b600080fd5b6200004562000051565b6200004f62000181565b565b6200004f62000096565b620000719062000074906001600160a01b031682565b90565b6001600160a01b031690565b62000071906200005b565b620000719062000080565b620000a1306200008b565b608052565b620000719060081c5b60ff1690565b620000719054620000a6565b60208082526027908201527f496e697469616c697a61626c653a20636f6e747261637420697320696e697469604082015266616c697a696e6760c81b606082015260800190565b156200011057565b60405162461bcd60e51b8152806200012b60048201620000c1565b0390fd5b6200007190620000af565b6200007190546200012f565b620000af62000071620000719260ff1690565b906200016d620000716200017d9262000146565b825460ff191660ff919091161790565b9055565b6200019f62000199620001956000620000b5565b1590565b62000108565b620001ab60006200013a565b60ff90811603620001b857565b620001c660ff600062000159565b7f7f26b83ff96e1f2b6a682f133852f6798a09c465da95921460cefb3847402498620001f160405190565b60ff8152602090a156fe6080604052600436101561001257600080fd5b60003560e01c806306fdde03146102d2578063095ea7b3146102cd57806318160ddd146102c857806321eff7fc146102c357806323b872dd146102be5780632edf0869146102b9578063313ce567146102b45780633659cfe6146102af57806336f234ac146102aa57806339509351146102a55780633af32abf146102a05780633f4ba83a1461029b57806342966c681461029657806342e94c90146102915780634bb278f31461028c5780634f1ef2861461028757806352d1902d146102825780635c975abb1461027d578063644fab741461027857806370a0823114610273578063715018a61461026e578063748f70981461026957806379cc6790146102645780637f76b2231461025f5780638456cb591461025a5780638da5cb5b1461025557806395d89b41146102505780639b19251a1461024b5780639e4e731814610246578063a457c2d714610241578063a9059cbb1461023c578063aff177ca14610237578063b5545a3c14610232578063bb0e69e81461022d578063bffb691d14610228578063cba4cbd314610223578063d5abeb011461021e578063d7517caa14610219578063d7bb99ba14610214578063dd62ed3e1461020f578063f2fde38b1461020a578063f9f92be414610205578063fe575a87146102005763ffa1ad74036102d757610d6e565b610d4b565b610d30565b610d07565b610ceb565b610cb5565b610c9a565b610c7f565b610c57565b610c2f565b610c09565b610bf1565b610bd8565b610b42565b610b26565b610b0b565b610a3b565b6109f2565b6109cb565b61099a565b61097f565b610955565b61093a565b610922565b610907565b6108ee565b6108d3565b6108b8565b6108a4565b610795565b61077a565b6106f8565b6106cc565b6106b1565b610695565b61067d565b61062c565b6105fd565b6105c3565b610498565b610454565b610414565b6103e6565b610356565b600080fd5b60009103126102d757565b60005b8381106102fa5750506000910152565b81810151838201526020016102ea565b61032b61033460209361033e9361031f815190565b80835293849260200190565b958691016102e7565b601f01601f191690565b0190565b60208082526103539291019061030a565b90565b346102d7576103663660046102dc565b61037d610371610e81565b60405191829182610342565b0390f35b6001600160a01b031690565b61039681610381565b036102d757565b905035906103aa8261038d565b565b80610396565b905035906103aa826103ac565b91906040838203126102d7576103539060206103db828661039d565b94016103b2565b9052565b346102d75761037d6104026103fc3660046103bf565b90610e8b565b60405191829182901515815260200190565b346102d7576104243660046102dc565b61037d61042f610e9b565b6040515b9182918290815260200190565b906020828203126102d7576103539161039d565b346102d75761037d61042f61046a366004610440565b610ea5565b90916060828403126102d757610353610488848461039d565b9360406103db826020870161039d565b346102d75761037d6104026104ae36600461046f565b91610ec2565b6103539081565b61035390546104b4565b610353905b60ff1690565b61035390546104c5565b6103539060081c6104ca565b61035390546104da565b6101c3906104fd826104bb565b9161050a600182016104bb565b91610517600283016104bb565b91610524600382016104bb565b91610531600483016104bb565b9161053e600582016104bb565b9161054b600683016104bb565b91610558600782016104d0565b91610353600861056a600785016104e6565b93016104bb565b979593919a9998969492909a61014089019b60008a0161058f919052565b602089015260408801526060870152608086015260a085015260c0840152151560e083015215156101008201526101200152565b346102d7576105d33660046102dc565b61037d6105de6104f0565b966105f49a989a96919695929594939460405190565b9a8b9a8b610571565b346102d75761060d3660046102dc565b61037d610618610ee6565b6040519182918260ff909116815260200190565b346102d75761064461063f366004610440565b61105a565b604051005b90816101a09103126102d75790565b906020828203126102d75781356001600160401b0381116102d7576103539201610649565b346102d757610644610690366004610658565b6117fb565b346102d75761037d6104026106ab3660046103bf565b90611816565b346102d75761037d6104026106c7366004610440565b611835565b346102d7576106dc3660046102dc565b610644611865565b906020828203126102d757610353916103b2565b346102d75761064461070b3660046106e4565b61186d565b61035390610381906001600160a01b031682565b61035390610710565b61035390610724565b906107409061072d565b600052602052604060002090565b610353916008021c81565b90610353915461074e565b6000610775610353926101cd610736565b610759565b346102d75761037d61042f610790366004610440565b610764565b346102d7576107a53660046102dc565b610644611ad8565b634e487b7160e01b600052604160045260246000fd5b90601f01601f191681019081106001600160401b038211176107e457604052565b6107ad565b906103aa6107f660405190565b92836107c3565b6001600160401b0381116107e457602090601f01601f19160190565b90826000939282370152565b9092919261083a610835826107fd565b6107e9565b93818552818301116102d7576103aa916020850190610819565b9080601f830112156102d75781602061035393359101610825565b9190916040818403126102d757610886838261039d565b9260208201356001600160401b0381116102d7576103539201610854565b6106446108b236600461086f565b90611b06565b346102d7576108c83660046102dc565b61037d61042f611bf6565b346102d7576108e33660046102dc565b61037d610402611c00565b346102d7576106446109013660046103bf565b90611d32565b346102d75761037d61042f61091d366004610440565b611d3c565b346102d7576109323660046102dc565b610644611d6b565b346102d75761037d61042f610950366004610440565b611d73565b346102d7576106446109683660046103bf565b90611d8b565b6000610775610353926101d1610736565b346102d75761037d61042f610995366004610440565b61096e565b346102d7576109aa3660046102dc565b610644611dad565b6103e290610381565b6020810192916103aa91906109b2565b346102d7576109db3660046102dc565b61037d6109e6611dc8565b604051918291826109bb565b346102d757610a023660046102dc565b61037d610371611dd2565b610353916008021c6104ca565b906103539154610a0d565b6000610a36610353926101cc610736565b610a1a565b346102d75761037d610402610a51366004610440565b610a25565b90610a63610835836107fd565b918252565b610a726005610a56565b640322e312e360dc1b602082015290565b610353610a68565b610353610a83565b61033e610aab92602092610aa5815190565b94859290565b938491016102e7565b61035391610a93565b610ac5610a8b565b610aed610ad160405190565b8092610ae1602083019182610ab4565b908103825203826107c3565b610aff610af8825190565b9160200190565b2090565b610353610abd565b346102d757610b1b3660046102dc565b61037d61042f610b03565b346102d75761037d610402610b3c3660046103bf565b90611e36565b346102d75761037d610402610b583660046103bf565b90611e5a565b909182601f830112156102d7578135916001600160401b0383116102d75760200192602083028401116102d757565b801515610396565b905035906103aa82610b8d565b916040838303126102d75782356001600160401b0381116102d75782610bcf602094610353938701610b5e565b94909501610b95565b346102d757610644610beb366004610ba2565b91612009565b346102d757610c013660046102dc565b610644612210565b346102d757610644610c1c366004610ba2565b916122e6565b61035360006101cf610a1a565b346102d757610c3f3660046102dc565b61037d610402610c22565b61035360016101cf610a1a565b346102d757610c673660046102dc565b61037d610402610c4a565b61035360006101ce610759565b346102d757610c8f3660046102dc565b61037d61042f610c72565b346102d757610caa3660046102dc565b61037d6105de6122f1565b610cc03660046102dc565b6106446126a7565b91906040838203126102d757610353906020610ce4828661039d565b940161039d565b346102d75761037d61042f610d01366004610cc8565b906126af565b346102d757610644610d1a366004610440565b61275f565b6000610a36610353926101d0610736565b346102d75761037d610402610d46366004610440565b610d1f565b346102d75761037d610402610d61366004610440565b612768565b610353610a8b565b346102d757610d7e3660046102dc565b61037d610371610d66565b634e487b7160e01b600052602260045260246000fd5b9060016002830492168015610dbf575b6020831014610dba57565b610d89565b91607f1691610daf565b80546000939291610de6610ddc83610d9f565b8085529360200190565b9160018116908115610e385750600114610dff57505050565b610e129192939450600052602060002090565b916000925b818410610e245750500190565b805484840152602090930192600101610e17565b92949550505060ff1916825215156020020190565b9061035391610dc9565b906103aa610e7192610e6860405190565b93848092610e4d565b03836107c3565b61035390610e57565b6103536036610e78565b610e9691903361282f565b600190565b61035360356104bb565b610ebd61035391610eb4600090565b506101cd610736565b6104bb565b610e96929190610ed483335b8361290f565b612a54565b6104ca6103536103539290565b6103536012610ed9565b15610ef757565b60405162461bcd60e51b815260206004820152602c60248201526000805160206138ac83398151915260448201526b19195b1959d85d1958d85b1b60a21b6064820152608490fd5b0390fd5b15610f4a57565b60405162461bcd60e51b815260206004820152602c60248201526000805160206138ac83398151915260448201526b6163746976652070726f787960a01b6064820152608490fd5b6103aa90610ffa610fa23061072d565b610fe07f000000000000000000000000000000000000000000000000000000000000000091610fd9610fd384610381565b91610381565b1415610ef0565b610ff4610fd3610fee612af4565b92610381565b14610f43565b611034565b6103536103536103539290565b369037565b906103aa61102761102184610a56565b936107fd565b601f19016020840161100c565b60006103aa9161104381612b13565b61105461104f83610fff565b611011565b90612bc4565b6103aa90610f92565b1561106a57565b60405162461bcd60e51b815260206004820152602e60248201527f496e697469616c697a61626c653a20636f6e747261637420697320616c72656160448201526d191e481a5b9a5d1a585b1a5e995960921b6064820152608490fd5b9060ff905b9181191691161790565b6104ca6103536103539260ff1690565b906110f56103536110fc926110d5565b82546110c6565b9055565b9061ff009060081b6110cb565b9061111d6103536110fc92151590565b8254611100565b6103e290610ed9565b6020810192916103aa9190611124565b61118761115161114d60006104e6565b1590565b918280611229575b80156111e4575b61116990611063565b8261117e6111776001610ed9565b60006110e5565b6111d35761155d565b61118d57565b61119860008061110d565b7f7f26b83ff96e1f2b6a682f133852f6798a09c465da95921460cefb38474024986111c260405190565b806111ce60018261112d565b0390a1565b6111df6001600061110d565b61155d565b506111f961114d6111f43061072d565b612cd3565b8015611160575061116961120d60006104d0565b61122161121a6001610ed9565b9160ff1690565b149050611160565b5061123460006104d0565b61124161121a6001610ed9565b10611159565b903590601e1936829003018212156102d757018035906001600160401b0382116102d757602001913682900383136102d757565b610353913691610825565b356103538161038d565b6103816103536103539290565b61035390611290565b35610353816103ac565b156112b757565b60405162461bcd60e51b8152602060048201526024808201527f4d617820737570706c79206d757374206265203e3d20696e697469616c20737560448201526370706c7960e01b6064820152608490fd5b1561130f57565b60405162461bcd60e51b815260206004820152601c60248201527b53746172742074696d65206d75737420626520696e2066757475726560201b6044820152606490fd5b1561135a57565b60405162461bcd60e51b815260206004820152602160248201527f456e642074696d65206d7573742062652061667465722073746172742074696d6044820152606560f81b6064820152608490fd5b90600019906110cb565b906113c36103536110fc92610fff565b82546113a9565b3561035381610b8d565b906110f56103536110fc92151590565b634e487b7160e01b600052601260045260246000fd5b634e487b7160e01b600052601160045260246000fd5b9061141a565b9190565b908115611425570490565b6113e4565b6103536101406107e9565b600861150f6101206103aa9461145561144f600083015190565b866113b3565b61146c611463602083015190565b600187016113b3565b61148361147a604083015190565b600287016113b3565b61149a611491606083015190565b600387016113b3565b6114b16114a8608083015190565b600487016113b3565b6114c86114bf60a083015190565b600587016113b3565b6114df6114d660c083015190565b600687016113b3565b61150a600786016114fc6114f660e0850151151590565b826113d4565b61010083015115159061110d565b015190565b91016113b3565b906103aa91611435565b909594926103aa946115526115599261154b60809661154460a088019c6000890152565b6020870152565b6040850152565b6060830152565b0152565b61159461158e61156d8380611247565b6115886115806020879594950187611247565b92909461127b565b9261127b565b90612d66565b61159c612d7d565b6115a4612d9d565b6115ac612dbd565b6115b4612ddd565b6115bc612d7d565b608081016115c981611286565b6000906115e0610fd36115db8461129d565b610381565b036117e5575b60608301926115f4846112a6565b6040820190611602826112a6565b111561160d906112b0565b61016082019361161c856112a6565b421061162790611308565b610180830195611636876112a6565b61163f876112a6565b1061164990611353565b611652906112a6565b61165e906101ce6113b3565b61166a60a084016113ca565b611676906101cf6113d4565b61168260c084016113ca565b61168e906101cf61110d565b61169790611286565b906116a1906112a6565b6116aa91612eaa565b61014081016116b8816112a6565b6116c26002610fff565b6116cb91611410565b906116d5906112a6565b6116e261010084016112a6565b926116f061012082016112a6565b6116f9876112a6565b90611703896112a6565b9260e00195611711876112a6565b9461171a61142a565b96611725908a890152565b602087015260408601526060850152608084015260a083015260c082015282151560e0820181905261010082015261175c83610fff565b61012082015261176e906101c3611516565b6101c391820161177d906104bb565b9160010161178a906104bb565b92611794906112a6565b9361179e906112a6565b906117a8906112a6565b906117b260405190565b9485946117bf9486611520565b037f363312020dbba28eb1464ec7d5f963ebe389e1b00dab8dd54d46e2e2f2e6326191a1565b6117f66117f183611286565b612e0b565b6115e6565b6103aa9061113d565b9190820180921161181157565b6113fa565b610e96919061182f339261182a83856126af565b611804565b9161282f565b61184d61035391611844600090565b506101cc610736565b6104d0565b61185a612f69565b6103aa6103aa612fc7565b6103aa611852565b6103aa903361307c565b61307c565b611884612f69565b6103aa61188f613159565b6118976119e5565b6103aa61318d565b156118a657565b60405162461bcd60e51b8152602060048201526011602482015270141c995cd85b19481b9bdd08195b991959607a1b6044820152606490fd5b156118e657565b60405162461bcd60e51b8152602060048201526011602482015270105b1c9958591e48199a5b985b1a5e9959607a1b6044820152606490fd5b1561192657565b60405162461bcd60e51b815260206004820152601460248201527314dbd99d0818d85c081b9bdd081c995858da195960621b6044820152606490fd5b8181029291811591840414171561181157565b3d1561198f576119843d610a56565b903d6000602084013e565b606090565b1561199b57565b60405162461bcd60e51b815260206004820152600f60248201526e151c985b9cd9995c8819985a5b1959608a1b6044820152606490fd5b9081526040810192916103aa9160200152565b7fedfde254cb8ed39d650c9a34251c59d6817fae4cc876cc2ce76669976cf102ee6101c3611a21611a1a6103536101c86104bb565b421161189f565b611ac3611a8c6007830192611a40611a3b61114d866104e6565b6118df565b611a7160016008830195611a6c611a56886104bb565b611a65611416610353886104bb565b101561191f565b61110d565b611a866006611a7f866104bb565b92016104bb565b90611962565b91610ebd600080611a9b611dc8565b611aa43061072d565b31611aae60405190565b90818003925af1611abd611975565b50611994565b6111ce611acf60405190565b928392836119d2565b6103aa61187c565b906103aa91611af1610fa23061072d565b6103aa91600191611b0181612b13565b612bc4565b906103aa91611ae0565b15611b1757565b60405162461bcd60e51b815260206004820152603860248201527f555550535570677261646561626c653a206d757374206e6f742062652063616c6044820152771b1959081d1a1c9bdd59da0819195b1959d85d1958d85b1b60421b6064820152608490fd5b61035390611bbf611b8d3061072d565b611bb9610fd37f0000000000000000000000000000000000000000000000000000000000000000610381565b14611b10565b611bed565b6103537f360894a13ba1a3210667c828492db98dca3e2076cc3735a920a3ca505d382bbc610fff565b50610353611bc4565b6103536000611b7d565b61035360976104d0565b906103aa91611c17612f69565b611cc7565b15611c2357565b60405162461bcd60e51b8152602060048201526015602482015274151a5b59481b1bd8dac81b9bdd08195b98589b1959605a1b6044820152606490fd5b15611c6757565b60405162461bcd60e51b815260206004820152601d60248201527f556e6c6f636b2074696d65206d75737420626520696e206675747572650000006044820152606490fd5b9160206103aa929493611559604082019660008301906109b2565b907fa9353e70f07f31e7f4e16464f45e189cbd22826780a5abe4da8303652a86960a91611cfd611cf86101cf6104e6565b611c1c565b611d08428311611c60565b611d1d82611d18836101d1610736565b6113b3565b6111ce611d2960405190565b92839283611cac565b906103aa91611c0a565b610ebd61035391611d4b600090565b506033610736565b611d5b612f69565b6103aa6103aa6117f1600061129d565b6103aa611d53565b610ebd61035391611d82600090565b506101d1610736565b6103aa91906118778233610ece565b611da2612f69565b6103aa6103aa6131d9565b6103aa611d9a565b61035390610381565b6103539054611db5565b61035360fb611dbe565b6103536037610e78565b15611de357565b60405162461bcd60e51b815260206004820152602560248201527f45524332303a2064656372656173656420616c6c6f77616e63652062656c6f77604482015264207a65726f60d81b6064820152608490fd5b610e96919061182f3392611e4a83856126af565b611e5682821015611ddc565b0390565b610e96919033612a54565b906103aa9291611e73612f69565b611f73565b15611e7f57565b60405162461bcd60e51b815260206004820152601560248201527415da1a5d195b1a5cdd081b9bdd08195b98589b1959605a1b6044820152606490fd5b634e487b7160e01b600052603260045260246000fd5b9190811015611ee2576020020190565b611ebc565b9061033e816020936109b2565b5061035390602081019061039d565b818352602090920191906000825b828210611f1f575050505090565b90919293611f42611f3b600192611f368886611ef4565b611ee7565b9560200190565b93920190611f11565b939290611f6a6020916103aa94604088019188830360008a0152611f03565b94019015159052565b90611f87611f826101ca6104d0565b611e78565b611f916000610fff565b81811015611fd057611fcb90611fc585611fc06101cc611fba611fb586898b611ed2565b611286565b90610736565b6113d4565b60010190565b611f91565b50906111ce7fa091d95aa3f4b3529e12c57e1e9e10580edde8a7ac6fd51dd3c8e824c332dbe09361200060405190565b93849384611f4b565b906103aa9291611e65565b61201c613159565b61189761211d565b1561202b57565b60405162461bcd60e51b8152602060048201526011602482015270141c995cd85b1948199a5b985b1a5e9959607a1b6044820152606490fd5b1561206b57565b60405162461bcd60e51b815260206004820152601060248201526f14dbd99d0818d85c081c995858da195960821b6044820152606490fd5b156120aa57565b60405162461bcd60e51b815260206004820152600f60248201526e27379031b7b73a3934b13aba34b7b760891b6044820152606490fd5b156120e857565b60405162461bcd60e51b815260206004820152600d60248201526c1499599d5b990819985a5b1959609a1b6044820152606490fd5b61216f6101c3612134611a1a6103536101c86104bb565b61214b61214661114d600784016104e6565b612024565b6121696114166103536000612162600886016104bb565b94016104bb565b10612064565b7f2ef47cadc7e07ee6cea296446c8ca85ff6955693411d8868f7a04b6850034f086111ce6101cd6121b96121a6610ebd3384610736565b6121b36114166000610fff565b116120a3565b6121df6121c9610ebd3384610736565b91611d186121d76000610fff565b913390610736565b6122036000806121ee60405190565b60009085335af16121fd611975565b506120e1565b6040519182913383611cac565b6103aa612014565b906103aa9291612226612f69565b61226f565b1561223257565b60405162461bcd60e51b8152602060048201526015602482015274109b1858dadb1a5cdd081b9bdd08195b98589b1959605a1b6044820152606490fd5b9061228361227e6101cf6104d0565b61222b565b61228d6000610fff565b818110156122b6576122b190611fc585611fc06101d0611fba611fb586898b611ed2565b61228d565b50906111ce7f11d4d128e8f89ae2e8815168b9eba079dd6668b75f1e3a9dd96ac6192a7c4dcb9361200060405190565b906103aa9291612218565b6101c36122fd816104bb565b612309600183016104bb565b92612316600284016104bb565b92612323600382016104bb565b92612330600483016104bb565b9261233d600584016104bb565b9261234a600682016104bb565b9260078201926123676008612162612361876104d0565b966104e6565b9199989796959493929190565b61237c613159565b611897612555565b1561238b57565b60405162461bcd60e51b8152602060048201526013602482015272141c995cd85b19481b9bdd081cdd185c9d1959606a1b6044820152606490fd5b156123cd57565b60405162461bcd60e51b815260206004820152600d60248201526c141c995cd85b1948195b991959609a1b6044820152606490fd5b1561240957565b60405162461bcd60e51b81526020600482015260166024820152752132b637bb9036b4b71031b7b73a3934b13aba34b7b760511b6044820152606490fd5b1561244e57565b60405162461bcd60e51b815260206004820152601660248201527520b137bb329036b0bc1031b7b73a3934b13aba34b7b760511b6044820152606490fd5b1561249357565b60405162461bcd60e51b815260206004820152601060248201526f12185c990818d85c081c995858da195960821b6044820152606490fd5b156124d257565b60405162461bcd60e51b815260206004820152600f60248201526e139bdd081dda1a5d195b1a5cdd1959608a1b6044820152606490fd5b1561251057565b60405162461bcd60e51b815260206004820152601d60248201527f576f756c6420657863656564206d617820636f6e747269627574696f6e0000006044820152606490fd5b6126556101c361257461256c6103536101c76104bb565b421015612384565b61258e612586610353600584016104bb565b4211156123c6565b612643600782016125a461214661114d836104e6565b6125be6125b6610353600286016104bb565b341015612402565b61260a60038401916125dd6125d5610353856104bb565b341115612447565b61184d600886019561260361141661035360016121626125fc8c6104bb565b3490611804565b111561248c565b61268b575b611d186101cd61263c61263461035361262e6125fc610ebd3387610736565b956104bb565b841115612509565b3390610736565b61264f6125fc826104bb565b906113b3565b7f1bb460ccaaf70fbacfec17a376f8acbd278c1405590ffcc8ebe4b88daf4f64ad61267f60405190565b806111ce343383611cac565b6126a261269d61184d336101cc610736565b6124cb565b61260f565b6103aa612374565b610353916126ca610ebd926126c2600090565b506034610736565b610736565b6103aa906126db612f69565b61273b565b156126e757565b60405162461bcd60e51b815260206004820152602660248201527f4f776e61626c653a206e6577206f776e657220697320746865207a65726f206160448201526564647265737360d01b6064820152608490fd5b6103aa906117f161274f6115db600061129d565b61275883610381565b14156126e0565b6103aa906126cf565b61184d61035391612777600090565b506101d0610736565b1561278757565b60405162461bcd60e51b8152602060048201526024808201527f45524332303a20617070726f76652066726f6d20746865207a65726f206164646044820152637265737360e01b6064820152608490fd5b156127df57565b60405162461bcd60e51b815260206004820152602260248201527f45524332303a20617070726f766520746f20746865207a65726f206164647265604482015261737360f01b6064820152608490fd5b6128be6128b46128ae7f8c5be1e5ebec7d5bd14f71427d1e84f3dd0314c0f7b2291e5b200ac8c7c3b9259361289661288661286a600061129d565b6115db61287682610381565b61287f86610381565b1415612780565b61288f88610381565b14156127d8565b6128a987611d18886126ca856034610736565b61072d565b9361072d565b9361043360405190565b0390a3565b156128ca57565b60405162461bcd60e51b815260206004820152601d60248201527f45524332303a20696e73756666696369656e7420616c6c6f77616e63650000006044820152606490fd5b9061291a81836126af565b600019810361292a575b50505050565b61293e9361182f91611e56828210156128c3565b38808080612924565b1561294e57565b60405162461bcd60e51b815260206004820152602560248201527f45524332303a207472616e736665722066726f6d20746865207a65726f206164604482015264647265737360d81b6064820152608490fd5b156129a857565b60405162461bcd60e51b815260206004820152602360248201527f45524332303a207472616e7366657220746f20746865207a65726f206164647260448201526265737360e81b6064820152608490fd5b15612a0057565b60405162461bcd60e51b815260206004820152602660248201527f45524332303a207472616e7366657220616d6f756e7420657863656564732062604482015265616c616e636560d01b6064820152608490fd5b6128be6128b46128ae6000805160206138cc83398151915293612aa9612a99612a7d600061129d565b6115db612a8982610381565b612a9286610381565b1415612947565b612aa288610381565b14156129a1565b612ab487878361326b565b6128a9612ae78760336126ca612add8c612ad1610ebd8986610736565b611e56828210156129f9565b611d188784610736565b61264f8961033e836104bb565b6103536000612b04610353611bc4565b01611dbe565b506103aa612f69565b6103aa90612b0a565b6103537f4910fdfa16fed3260ed0e7147f7cc6da11a60208b5b9406d12a635614ffd9143610fff565b905051906103aa826103ac565b906020828203126102d75761035391612b45565b15612b6d57565b60405162461bcd60e51b815260206004820152602960248201527f45524331393637557067726164653a20756e737570706f727465642070726f786044820152681a58589b195555525160ba1b6064820152608490fd5b9190612bdc6000612bd6610353612b1c565b016104d0565b15612bec5750506103aa906133c1565b612bf86128a98461072d565b926020612c0460405190565b6352d1902d60e01b815294859060049082905afa60009481612ca2575b50612c825760405162461bcd60e51b815260206004820152602e60248201527f45524331393637557067726164653a206e657720696d706c656d656e7461746960448201526d6f6e206973206e6f74205555505360901b6064820152608490fd5b612c9d6103aa94612c97611416610353611bc4565b14612b66565b613320565b612cc591955060203d602011612ccc575b612cbd81836107c3565b810190612b52565b9338612c21565b503d612cb3565b3b612ce16114166000610fff565b1190565b15612cec57565b60405162461bcd60e51b815260206004820152602b60248201527f496e697469616c697a61626c653a20636f6e7472616374206973206e6f74206960448201526a6e697469616c697a696e6760a81b6064820152608490fd5b906103aa91612d5c612d5760006104e6565b612ce5565b906103aa916135ac565b906103aa91612d45565b6103aa612d5760006104e6565b6103aa612d70565b612d92612d5760006104e6565b6103aa6103aa6135d2565b6103aa612d85565b612db2612d5760006104e6565b6103aa6103aa6135f1565b6103aa612da5565b612dd2612d5760006104e6565b6103aa6103aa613606565b6103aa612dc5565b906001600160a01b03906110cb565b90612e046103536110fc9261072d565b8254612de5565b612e2c612e26612e1b60fb611dbe565b6128a98460fb612df4565b9161072d565b907f8be0079c531659141344cd1fd0a4f28419497f9722a3daafe3b4186f6b6457e0612e5760405190565b80806128be565b15612e6557565b60405162461bcd60e51b815260206004820152601f60248201527f45524332303a206d696e7420746f20746865207a65726f2061646472657373006044820152606490fd5b6000805160206138cc8339815191526128be6128b46128ae612ecc600061129d565b612ee8612ed882610381565b612ee188610381565b1415612e5e565b612ef387878361326b565b612f0b612f048861182a60356104bb565b60356113b3565b6128a9612ae7876033610736565b15612f2057565b60405162461bcd60e51b815280610f3f600482016020808252818101527f4f776e61626c653a2063616c6c6572206973206e6f7420746865206f776e6572604082015260600190565b6103aa612f74611dc8565b612f80610fd333610381565b14612f19565b612f8e613651565b6103aa612f9d600060976113d4565b7f5db9ee0a495bf2e6ff9c91a7834c1ba4fdd244a5e8aa4e537bd38aeae4b073aa6111ce336109e6565b6103aa612f86565b15612fd657565b60405162461bcd60e51b815260206004820152602160248201527f45524332303a206275726e2066726f6d20746865207a65726f206164647265736044820152607360f81b6064820152608490fd5b1561302c57565b60405162461bcd60e51b815260206004820152602260248201527f45524332303a206275726e20616d6f756e7420657863656564732062616c616e604482015261636560f01b6064820152608490fd5b6000805160206138cc8339815191526128be6128b46128ae61309e600061129d565b946130bb6130ab87610381565b6130b483610381565b1415612fcf565b6130c687878361326b565b6130f26130e7886130db610ebd856033610736565b611e5682821015613025565b611d18836033610736565b6128a9612f0488611e5660356104bb565b6103536002610fff565b1561311457565b60405162461bcd60e51b815260206004820152601f60248201527f5265656e7472616e637947756172643a207265656e7472616e742063616c6c006044820152606490fd5b6103aa6131676101916104bb565b61317b613172613103565b9182141561310d565b6101916113b3565b6103536001610fff565b6103aa61317b613183565b6131a06136a0565b6103aa6131af600160976113d4565b7f62e78cea01bee320cd4e420270b5ea74000d11b0c9f74754ebdbfc544b05a2586111ce336109e6565b6103aa613198565b156131e857565b60405162461bcd60e51b81526020600482015260166024820152751059191c995cdcc81a5cc8189b1858dadb1a5cdd195960521b6044820152606490fd5b1561322d57565b60405162461bcd60e51b8152602060048201526016602482015275151bdad95b9cc8185c99481d1a5b594b5b1bd8dad95960521b6044820152606490fd5b91613277908284613712565b6132826101cf6104d0565b6132db575b506132936101cf6104e6565b806132bd575b6132a05750565b6132b5610353610ebd6103aa936101d1610736565b421015613226565b506132cb6115db600061129d565b6132d482610381565b1415613299565b613301906101d0906132f361114d61184d8685610736565b9182613307575b50506131e1565b38613287565b613319925061114d9161184d91610736565b38806132fa565b9161332a83613728565b81516133396114166000610fff565b11908115613357575b5061334b575050565b613354916137b0565b50565b905038613342565b1561336657565b60405162461bcd60e51b815260206004820152602d60248201527f455243313936373a206e657720696d706c656d656e746174696f6e206973206e60448201526c1bdd08184818dbdb9d1c9858dd609a1b6064820152608490fd5b6103aa906133d66133d182612cd3565b61335f565b60006133e3610353611bc4565b01612df4565b906103aa916133fb612d5760006104e6565b613596565b9160001960089290920291821b911b6110cb565b91906134256103536110fc93610fff565b908354613400565b6103aa91600091613414565b818110613444575050565b80613452600060019361342d565b01613439565b9190601f811161346757505050565b6134796103aa93600052602060002090565b906020601f84018190048301931061349b575b6020601f909101040190613439565b909150819061348c565b9060001960089091021c191690565b816134be916134a5565b906002021790565b906134cf815190565b906001600160401b0382116107e4576134f2826134ec8554610d9f565b85613458565b602090601f8311600114613520576110fc929160009183613515575b50506134b4565b01519050388061350e565b601f1983169161353585600052602060002090565b9260005b8181106135745750916002939185600196941061355a575b50505002019055565b61356a910151601f8416906134a5565b9055388080613551565b91936020600181928787015181550195019201613539565b906103aa916134c6565b906135a56103aa92603661358c565b603761358c565b906103aa916133e9565b6135c3612d5760006104e6565b6103aa6103aa600060976113d4565b6103aa6135b6565b6135e7612d5760006104e6565b6103aa8033612e0b565b6103aa6135da565b611897612d5760006104e6565b6103aa6135f9565b1561361557565b60405162461bcd60e51b815260206004820152601460248201527314185d5cd8589b194e881b9bdd081c185d5cd95960621b6044820152606490fd5b6103aa61365c611c00565b61360e565b1561366857565b60405162461bcd60e51b815260206004820152601060248201526f14185d5cd8589b194e881c185d5cd95960821b6044820152606490fd5b6103aa6136ae61114d611c00565b613661565b156136ba57565b60405162461bcd60e51b815260206004820152602a60248201527f45524332305061757361626c653a20746f6b656e207472616e736665722077686044820152691a5b19481c185d5cd95960b21b6064820152608490fd5b5050506103aa61372361114d611c00565b6136b3565b613735906128a9816133c1565b7fbc7cd75a20ee27fd9adebab32041f755214dbc6bffa90cc0225b39da2e5c2d3b61375f60405190565b600090a2565b61376f6027610a56565b7f416464726573733a206c6f772d6c6576656c2064656c65676174652063616c6c6020820152660819985a5b195960ca1b604082015290565b610353613765565b610353916137bc6137a8565b9160008061035394936137cd606090565b50602081519101845af46137df611975565b91613831565b156137ec57565b60405162461bcd60e51b815260206004820152601d60248201527f416464726573733a2063616c6c20746f206e6f6e2d636f6e74726163740000006044820152606490fd5b91929015613863575081516138496114166000610fff565b14613852575090565b61385e61035391612cd3565b6137e5565b829061386d825190565b61387a6114166000610fff565b11156138895750805190602001fd5b610f3f9061389660405190565b62461bcd60e51b81529182916004830161034256fe46756e6374696f6e206d7573742062652063616c6c6564207468726f75676820ddf252ad1be2c89b69c2b068fc378daa952ba7f163c4a11628f55a4df523b3efa26469706673582212200b350b1fe8710b533228a215ecbe02abc22a629a126369290b4db0f7f2b0d02864736f6c63430008160033",
  "linkReferences": {},
  "deployedLinkReferences": {}
}