{
  "_format": "hh-sol-artifact-1",
  "contractName": "V4DistributionModule",
  "sourceName": "src/contracts/V4DistributionModule.sol",
  "abi": [
    {
      "inputs": [],
      "stateMutability": "nonpayable",
      "type": "constructor"
    },
    {
      "anonymous": false,
      "inputs": [
        {
          "indexed": true,
          "internalType": "address",
          "name": "wallet",
          "type": "address"
        },
        {
          "indexed": false,
          "internalType": "uint256",
          "name": "amount",
          "type": "uint256"
        },
        {
          "indexed": false,
          "internalType": "string",
          "name": "label",
          "type": "string"
        },
        {
          "indexed": false,
          "internalType": "bool",
          "name": "locked",
          "type": "bool"
        },
        {
          "indexed": false,
          "internalType": "uint256",
          "name": "unlockTime",
          "type": "uint256"
        }
      ],
      "name": "AllocationAdded",
      "type": "event"
    },
    {
      "anonymous": false,
      "inputs": [
        {
          "indexed": true,
          "internalType": "address",
          "name": "wallet",
          "type": "address"
        },
        {
          "indexed": false,
          "internalType": "uint256",
          "name": "amount",
          "type": "uint256"
        },
        {
          "indexed": false,
          "internalType": "string",
          "name": "label",
          "type": "string"
        },
        {
          "indexed": false,
          "internalType": "bool",
          "name": "locked",
          "type": "bool"
        },
        {
          "indexed": false,
          "internalType": "uint256",
          "name": "unlockTime",
          "type": "uint256"
        }
      ],
      "name": "AllocationModified",
      "type": "event"
    },
    {
      "anonymous": false,
      "inputs": [
        {
          "indexed": true,
          "internalType": "address",
          "name": "wallet",
          "type": "address"
        }
      ],
      "name": "AllocationRemoved",
      "type": "event"
    },
    {
      "anonymous": false,
      "inputs": [
        {
          "indexed": false,
          "internalType": "uint256",
          "name": "totalDistributed",
          "type": "uint256"
        },
        {
          "indexed": false,
          "internalType": "uint256",
          "name": "walletCount",
          "type": "uint256"
        }
      ],
      "name": "DistributionExecuted",
      "type": "event"
    },
    {
      "anonymous": false,
      "inputs": [
        {
          "indexed": false,
          "internalType": "uint8",
          "name": "version",
          "type": "uint8"
        }
      ],
      "name": "Initialized",
      "type": "event"
    },
    {
      "anonymous": false,
      "inputs": [
        {
          "indexed": true,
          "internalType": "address",
          "name": "previousOwner",
          "type": "address"
        },
        {
          "indexed": true,
          "internalType": "address",
          "name": "newOwner",
          "type": "address"
        }
      ],
      "name": "OwnershipTransferred",
      "type": "event"
    },
    {
      "anonymous": false,
      "inputs": [
        {
          "indexed": true,
          "internalType": "uint256",
          "name": "presetId",
          "type": "uint256"
        },
        {
          "indexed": false,
          "internalType": "uint256",
          "name": "totalSupply",
          "type": "uint256"
        }
      ],
      "name": "PresetApplied",
      "type": "event"
    },
    {
      "anonymous": false,
      "inputs": [
        {
          "indexed": true,
          "internalType": "address",
          "name": "wallet",
          "type": "address"
        },
        {
          "indexed": false,
          "internalType": "uint256",
          "name": "amount",
          "type": "uint256"
        }
      ],
      "name": "TokensUnlocked",
      "type": "event"
    },
    {
      "inputs": [],
      "name": "VERSION",
      "outputs": [
        {
          "internalType": "string",
          "name": "",
          "type": "string"
        }
      ],
      "stateMutability": "view",
      "type": "function"
    },
    {
      "inputs": [
        {
          "internalType": "address",
          "name": "wallet",
          "type": "address"
        },
        {
          "internalType": "uint256",
          "name": "amount",
          "type": "uint256"
        },
        {
          "internalType": "string",
          "name": "label",
          "type": "string"
        },
        {
          "internalType": "bool",
          "name": "locked",
          "type": "bool"
        },
        {
          "internalType": "uint256",
          "name": "unlockTime",
          "type": "uint256"
        }
      ],
      "name": "addAllocation",
      "outputs": [
        {
          "internalType": "bool",
          "name": "success",
          "type": "bool"
        }
      ],
      "stateMutability": "nonpayable",
      "type": "function"
    },
    {
      "inputs": [
        {
          "internalType": "address[]",
          "name": "wallets",
          "type": "address[]"
        },
        {
          "internalType": "uint256[]",
          "name": "amounts",
          "type": "uint256[]"
        },
        {
          "internalType": "string[]",
          "name": "labels",
          "type": "string[]"
        },
        {
          "internalType": "bool[]",
          "name": "lockStatus",
          "type": "bool[]"
        },
        {
          "internalType": "uint256[]",
          "name": "unlockTimes",
          "type": "uint256[]"
        }
      ],
      "name": "addMultipleAllocations",
      "outputs": [
        {
          "internalType": "bool",
          "name": "success",
          "type": "bool"
        }
      ],
      "stateMutability": "nonpayable",
      "type": "function"
    },
    {
      "inputs": [
        {
          "internalType": "uint256",
          "name": "presetId",
          "type": "uint256"
        },
        {
          "internalType": "uint256",
          "name": "totalSupply",
          "type": "uint256"
        }
      ],
      "name": "applyPreset",
      "outputs": [
        {
          "internalType": "bool",
          "name": "success",
          "type": "bool"
        }
      ],
      "stateMutability": "nonpayable",
      "type": "function"
    },
    {
      "inputs": [],
      "name": "executeDistribution",
      "outputs": [
        {
          "internalType": "bool",
          "name": "success",
          "type": "bool"
        }
      ],
      "stateMutability": "nonpayable",
      "type": "function"
    },
    {
      "inputs": [],
      "name": "getAllAllocations",
      "outputs": [
        {
          "components": [
            {
              "internalType": "address",
              "name": "wallet",
              "type": "address"
            },
            {
              "internalType": "uint256",
              "name": "amount",
              "type": "uint256"
            },
            {
              "internalType": "string",
              "name": "label",
              "type": "string"
            },
            {
              "internalType": "bool",
              "name": "locked",
              "type": "bool"
            },
            {
              "internalType": "uint256",
              "name": "unlockTime",
              "type": "uint256"
            }
          ],
          "internalType": "struct IV4DistributionModule.Allocation[]",
          "name": "allocations",
          "type": "tuple[]"
        }
      ],
      "stateMutability": "view",
      "type": "function"
    },
    {
      "inputs": [
        {
          "internalType": "address",
          "name": "wallet",
          "type": "address"
        }
      ],
      "name": "getAllocation",
      "outputs": [
        {
          "components": [
            {
              "internalType": "address",
              "name": "wallet",
              "type": "address"
            },
            {
              "internalType": "uint256",
              "name": "amount",
              "type": "uint256"
            },
            {
              "internalType": "string",
              "name": "label",
              "type": "string"
            },
            {
              "internalType": "bool",
              "name": "locked",
              "type": "bool"
            },
            {
              "internalType": "uint256",
              "name": "unlockTime",
              "type": "uint256"
            }
          ],
          "internalType": "struct IV4DistributionModule.Allocation",
          "name": "allocation",
          "type": "tuple"
        }
      ],
      "stateMutability": "view",
      "type": "function"
    },
    {
      "inputs": [],
      "name": "getAvailablePresets",
      "outputs": [
        {
          "internalType": "uint256[]",
          "name": "presetIds",
          "type": "uint256[]"
        },
        {
          "internalType": "string[]",
          "name": "presetNames",
          "type": "string[]"
        }
      ],
      "stateMutability": "view",
      "type": "function"
    },
    {
      "inputs": [],
      "name": "getModuleType",
      "outputs": [
        {
          "internalType": "bytes32",
          "name": "moduleType",
          "type": "bytes32"
        }
      ],
      "stateMutability": "pure",
      "type": "function"
    },
    {
      "inputs": [
        {
          "internalType": "uint256",
          "name": "presetId",
          "type": "uint256"
        }
      ],
      "name": "getPresetDetails",
      "outputs": [
        {
          "internalType": "uint256[]",
          "name": "walletRatios",
          "type": "uint256[]"
        },
        {
          "internalType": "string[]",
          "name": "labels",
          "type": "string[]"
        }
      ],
      "stateMutability": "view",
      "type": "function"
    },
    {
      "inputs": [],
      "name": "getToken",
      "outputs": [
        {
          "internalType": "address",
          "name": "tokenAddress",
          "type": "address"
        }
      ],
      "stateMutability": "view",
      "type": "function"
    },
    {
      "inputs": [
        {
          "internalType": "address",
          "name": "tokenAddress",
          "type": "address"
        },
        {
          "internalType": "address",
          "name": "owner",
          "type": "address"
        }
      ],
      "name": "initialize",
      "outputs": [],
      "stateMutability": "nonpayable",
      "type": "function"
    },
    {
      "inputs": [
        {
          "internalType": "address",
          "name": "tokenAddress",
          "type": "address"
        },
        {
          "internalType": "bytes",
          "name": "data",
          "type": "bytes"
        }
      ],
      "name": "initialize",
      "outputs": [],
      "stateMutability": "nonpayable",
      "type": "function"
    },
    {
      "inputs": [
        {
          "internalType": "address",
          "name": "wallet",
          "type": "address"
        },
        {
          "internalType": "uint256",
          "name": "amount",
          "type": "uint256"
        },
        {
          "internalType": "string",
          "name": "label",
          "type": "string"
        },
        {
          "internalType": "bool",
          "name": "locked",
          "type": "bool"
        },
        {
          "internalType": "uint256",
          "name": "unlockTime",
          "type": "uint256"
        }
      ],
      "name": "modifyAllocation",
      "outputs": [
        {
          "internalType": "bool",
          "name": "success",
          "type": "bool"
        }
      ],
      "stateMutability": "nonpayable",
      "type": "function"
    },
    {
      "inputs": [],
      "name": "owner",
      "outputs": [
        {
          "internalType": "address",
          "name": "",
          "type": "address"
        }
      ],
      "stateMutability": "view",
      "type": "function"
    },
    {
      "inputs": [
        {
          "internalType": "address",
          "name": "wallet",
          "type": "address"
        }
      ],
      "name": "removeAllocation",
      "outputs": [
        {
          "internalType": "bool",
          "name": "success",
          "type": "bool"
        }
      ],
      "stateMutability": "nonpayable",
      "type": "function"
    },
    {
      "inputs": [],
      "name": "renounceOwnership",
      "outputs": [],
      "stateMutability": "nonpayable",
      "type": "function"
    },
    {
      "inputs": [
        {
          "internalType": "bytes4",
          "name": "functionSig",
          "type": "bytes4"
        }
      ],
      "name": "supportsFunction",
      "outputs": [
        {
          "internalType": "bool",
          "name": "hasFunction",
          "type": "bool"
        }
      ],
      "stateMutability": "pure",
      "type": "function"
    },
    {
      "inputs": [
        {
          "internalType": "address",
          "name": "newOwner",
          "type": "address"
        }
      ],
      "name": "transferOwnership",
      "outputs": [],
      "stateMutability": "nonpayable",
      "type": "function"
    },
    {
      "inputs": [
        {
          "internalType": "address",
          "name": "wallet",
          "type": "address"
        }
      ],
      "name": "unlockTokens",
      "outputs": [
        {
          "internalType": "bool",
          "name": "success",
          "type": "bool"
        }
      ],
      "stateMutability": "nonpayable",
      "type": "function"
    }
  ],
  "bytecode": "0x60808060405234620000c6576000549060ff8260081c1662000074575060ff8082160362000038575b604051615bdc9081620000cc8239f35b60ff90811916176000557f7f26b83ff96e1f2b6a682f133852f6798a09c465da95921460cefb3847402498602060405160ff8152a13862000028565b62461bcd60e51b815260206004820152602760248201527f496e697469616c697a61626c653a20636f6e747261637420697320696e697469604482015266616c697a696e6760c81b6064820152608490fd5b600080fdfe61022080604052600436101561001457600080fd5b60003560e01c9081630b9349b914614a75575080630e022923146149bd5780631ca00f621461485f57806321df0da714614836578063230c8a0e1461435e57806335b50f521461426d578063485cc95514612d65578063715018a614612d08578063862c19c814612abb5780638da5cb5b14612a925780639a7127a214612912578063a8a4b4c014612665578063be46446414612534578063c58156e014612472578063cb67f948146121ca578063cc6becc814611c2d578063d1f5789414610419578063f2fde38b1461038a578063ff0ed1141461014b5763ffa1ad74146100fc57600080fd5b346101465760003660031901126101465761014260405161011c81614cf3565b60058152640342e302e360dc1b6020820152604051918291602083526020830190614ae7565b0390f35b600080fd5b3461014657600036600319011261014657610164615686565b606a5460ff9061017760ff821615614f12565b60665491821561032a576001809260ff191617606a5560005b8381106101d5577f219b165c65b7e1a5744d1a2543bb34326ac29d73e03bdac1abc7290ccd6c26106040856069549082519182526020820152a1602060405160018152f35b806000846101e38294614fda565b9054600391821b1c6001600160a01b0390811680855260686020908152604086209384015490939190891686146102ba5750909201546040516340c10f1960e01b9281019290925230602483015260448201526102729161025182606481015b03601f198101845283614d45565b606554169060405195868094819362ac0f6f60e71b83528560048401615664565b03925af19182156102ae57849261028c575b505b01610190565b6102a8903d806000833e6102a08183614d45565b8101906155f2565b50610284565b6040513d6000823e3d90fd5b9301546040516340c10f1960e01b938101939093526001600160a01b03909316602483015260448201929092526102f8916102518260648101610243565b03925af19182156102ae578492610310575b50610286565b610324903d806000833e6102a08183614d45565b5061030a565b60405162461bcd60e51b815260206004820152603260248201527f5634446973747269627574696f6e4d6f64756c653a206e6f20616c6c6f636174604482015271696f6e7320746f206469737472696275746560701b6064820152608490fd5b34610146576020366003190112610146576103a3614aae565b6103ab615686565b6001600160a01b038116156103c5576103c39061573e565b005b60405162461bcd60e51b815260206004820152602660248201527f4f776e61626c653a206e6577206f776e657220697320746865207a65726f206160448201526564647265737360d01b6064820152608490fd5b3461014657604036600319011261014657610432614aae565b6024356001600160401b03811161014657610451903690600401614bee565b906000549260ff91828560081c161594858096611c21575b8015611c0b575b610479906151aa565b60ff198181166001176000559086611bf9575b5060208503611b9a5760019461050b92359060208110611b88575b506104fc868060a01b0395869360005490828260081c1615998a91829b8c93611b7d575b8015611b68575b6104db906151aa565b831617600055611b56575b5060005460081c166104f7816156de565b6156de565b6105053361573e565b1661573e565b168015611af6576001600160601b0360a01b606554161760655560405161053181614cd8565b6005815260a036602083013761054561543e565b6040519161055283614cbd565b60405161055e81614cf3565b600c81526b5374616e646172642049434f60a01b6020820152835260208301526040820152600160608201526001600052606b60205260406000209080518051906001600160401b038211611501576105c1826105bb8654614e17565b86615165565b602090601f8311600114611a8a576105f292916000918361157e575b50508160011b916000199060031b1c19161790565b82555b60208101518051906001600160401b03821161150157600160401b8211611501576020906001850154836001870155808410611a6a575b500160018401600052602060002060005b838110611a5657505050506040810151805190600160401b8211611501576002840154826002860155808310611a23575b5060200190600284016000526020600020916000905b82821061194b5787876106ad88600360608a0151151591019060ff801983541691151516179055565b6001600052606b6020526106ea6106d1600080516020615b27833981519152615011565b819291549060031b906032821b91600019901b19161790565b90556001600052606b602052610729610710600080516020615b27833981519152615026565b819291549060031b906014821b91600019901b19161790565b90556001600052606b60205261076861074f600080516020615b27833981519152615041565b819291549060031b90600f821b91600019901b19161790565b90556001600052606b6020526107a761078e600080516020615b2783398151915261505c565b819291549060031b90600a821b91600019901b19161790565b90556001600052606b6020526107e66107cd600080516020615b27833981519152615077565b819291549060031b906005821b91600019901b19161790565b90556001600052606b60205261081261080c600080516020615b87833981519152615011565b90615787565b6001600052606b60205261083c610836600080516020615b87833981519152615026565b906157af565b6001600052606b60205261085d600080516020615b87833981519152615041565b6114025761087461086e8254614e17565b8261513b565b600e665265736572766560c81b0190556001600052606b6020526108ae6108a8600080516020615b8783398151915261505c565b906157d0565b6001600052606b6020526108d86108d2600080516020615b87833981519152615077565b906157f6565b6108e061581b565b6040516108ec81614d0e565b6006815260c0366020830137610900615470565b6040519161090d83614cbd565b60405161091981614cf3565b601181527010dbdb5b5d5b9a5d1e48119bd8dd5cd959607a1b6020820152835260208301526040820152600160608201526002600052606b60205260406000209080518051906001600160401b0382116115015761097b826105bb8654614e17565b602090601f83116001146118df576109ab92916000918361157e5750508160011b916000199060031b1c19161790565b82555b60208101518051906001600160401b03821161150157600160401b82116115015760209060018501548360018701558084106118bf575b500160018401600052602060002060005b8381106118ab57505050506040810151805190600160401b8211611501576002840154826002860155808310611878575b5060200190600284016000526020600020916000905b8282106117a0578787610a6688600360608a0151151591019060ff801983541691151516179055565b6002600052606b602052610aa3610a8a600080516020615aa7833981519152615011565b819291549060031b906028821b91600019901b19161790565b90556002600052606b602052610ac9610710600080516020615aa7833981519152615026565b90556002600052606b602052610aef61074f600080516020615aa7833981519152615041565b90556002600052606b602052610b1561078e600080516020615aa783398151915261505c565b90556002600052606b602052610b3b61078e600080516020615aa7833981519152615077565b90556002600052606b602052610b616107cd600080516020615aa7833981519152615092565b90556002600052606b602052610b84600080516020615b07833981519152615011565b61140257610b9561086e8254614e17565b602270436f6d6d756e697479205265776172647360781b0190556002600052606b602052610bd361080c600080516020615b07833981519152615026565b6002600052606b602052610bf7610836600080516020615b07833981519152615041565b6002600052606b602052610c21610c1b600080516020615b0783398151915261505c565b906158f7565b6002600052606b602052610c456108a8600080516020615b07833981519152615077565b6002600052606b602052610c696108d2600080516020615b07833981519152615092565b610c71615852565b604051610c7d81614d29565b6007815260e0366020830137610c916154a2565b60405191610c9e83614cbd565b604051610caa81614cf3565b600c81526b1119519a48141c9bda9958dd60a21b6020820152835260208301526040820152600160608201526003600052606b60205260406000209080518051906001600160401b03821161150157610d07826105bb8654614e17565b602090601f831160011461173457610d3792916000918361157e5750508160011b916000199060031b1c19161790565b82555b60208101518051906001600160401b03821161150157600160401b8211611501576020906001850154836001870155808410611714575b500160018401600052602060002060005b83811061170057505050506040810151805190600160401b82116115015760028401548260028601558083106116cd575b5060200190600284016000526020600020916000905b8282106115f5578787610df288600360608a0151151591019060ff801983541691151516179055565b6003600052606b602052610e2f610e16600080516020615ac7833981519152615011565b819291549060031b90601e821b91600019901b19161790565b90556003600052606b602052610e6e610e55600080516020615ac7833981519152615026565b819291549060031b906019821b91600019901b19161790565b90556003600052606b602052610e9461074f600080516020615ac7833981519152615041565b90556003600052606b602052610eba61078e600080516020615ac783398151915261505c565b90556003600052606b602052610ee061078e600080516020615ac7833981519152615077565b90556003600052606b602052610f066107cd600080516020615ac7833981519152615092565b90556003600052606b602052610f2c6107cd600080516020615ac78339815191526150ad565b90556003600052606b602052610f4f600080516020615b67833981519152615011565b61140257610f6061086e8254614e17565b6026722634b8bab4b234ba3c90283937bb34b9b4b7b760691b0190556003600052606b602052610f9d600080516020615b67833981519152615026565b61140257610fae61086e8254614e17565b7f436f6d6d756e69747920496e63656e746976657300000000000000000000002890556003600052606b602052610ff5610836600080516020615b67833981519152615041565b6003600052606b60205261101961080c600080516020615b6783398151915261505c565b6003600052606b60205261103d610c1b600080516020615b67833981519152615077565b6003600052606b6020526110616108a8600080516020615b67833981519152615092565b6003600052606b602052611082600080516020615b678339815191526150ad565b6114025761109361086e8254614e17565b60186b506172746e6572736869707360a01b0190556110b0615889565b6040516110bc81614ca2565b6004815260803660208301376110d06154d4565b604051916110dd83614cbd565b6040516110e981614cf3565b601281527122b8bab0b6102234b9ba3934b13aba34b7b760711b6020820152835260208301526040820152600160608201526004600052606b60205260406000209080518051906001600160401b0382116115015761114c826105bb8654614e17565b602090601f83116001146115895761117c92916000918361157e5750508160011b916000199060031b1c19161790565b82555b60208101518051906001600160401b03821161150157600160401b821161150157602090600185015483600187015580841061155e575b500160018401600052602060002060005b83811061154a57505050506040810151805190600160401b8211611501576002840154826002860155808310611517575b5060200190600284016000526020600020916000905b82821061141857878761123788600360608a0151151591019060ff801983541691151516179055565b6004600052606b60205261125b610e55600080516020615a87833981519152615011565b90556004600052606b602052611281610e55600080516020615a87833981519152615026565b90556004600052606b6020526112a7610e55600080516020615a87833981519152615041565b90556004600052606b6020526112cd610e55600080516020615a8783398151915261505c565b90556004600052606b6020526112f0600080516020615b47833981519152615011565b6114025761130161086e8254614e17565b600c655075626c696360d01b0190556004600052606b602052611334610836600080516020615b47833981519152615026565b6004600052606b602052611358610c1b600080516020615b47833981519152615041565b6004600052606b60205261137c6108a8600080516020615b4783398151915261505c565b6113846158c0565b6113c7575b61138f57005b61ff0019600054166000557f7f26b83ff96e1f2b6a682f133852f6798a09c465da95921460cefb3847402498602060405160018152a1005b61ff0019600054166000557f7f26b83ff96e1f2b6a682f133852f6798a09c465da95921460cefb3847402498602060405160018152a1611389565b634e487b7160e01b600052600060045260246000fd5b80518051906001600160401b0382116115015761143f826114398854614e17565b88615165565b602090601f83116001146114915792611477836001959460209487966000926114865750508160011b916000199060031b1c19161790565b87555b0194019101909261120e565b015190508e806105dd565b908660005260206000209160005b601f19851681106114e9575083602093600196938796938794601f198116106114d0575b505050811b01875561147a565b015160001960f88460031b161c191690558d80806114c3565b9192602060018192868501518155019401920161149f565b634e487b7160e01b600052604160045260246000fd5b600285016000526020600020908382015b81830181106115385750506111f8565b80611544600192615513565b01611528565b6001906020845194019381840155016111c7565b611578906001870160005284846000209182019101615124565b876111b6565b0151905087806105dd565b9190846000526020600020906000935b601f19841685106115da576001945083601f198116106115c1575b505050811b01825561117f565b015160001960f88460031b161c191690558680806115b4565b81810151835560209485019460019093019290910190611599565b80518051906001600160401b03821161150157611616826114398854614e17565b602090601f831160011461165d579261164e836001959460209487966000926114865750508160011b916000199060031b1c19161790565b87555b01940191019092610dc9565b908660005260206000209160005b601f19851681106116b5575083602093600196938796938794601f1981161061169c575b505050811b018755611651565b015160001960f88460031b161c191690558d808061168f565b9192602060018192868501518155019401920161166b565b600285016000526020600020908382015b81830181106116ee575050610db3565b806116fa600192615513565b016116de565b600190602084519401938184015501610d82565b61172e906001870160005284846000209182019101615124565b87610d71565b9190846000526020600020906000935b601f1984168510611785576001945083601f1981161061176c575b505050811b018255610d3a565b015160001960f88460031b161c1916905586808061175f565b81810151835560209485019460019093019290910190611744565b80518051906001600160401b038211611501576117c1826114398854614e17565b602090601f831160011461180857926117f9836001959460209487966000926114865750508160011b916000199060031b1c19161790565b87555b01940191019092610a3d565b908660005260206000209160005b601f1985168110611860575083602093600196938796938794601f19811610611847575b505050811b0187556117fc565b015160001960f88460031b161c191690558d808061183a565b91926020600181928685015181550194019201611816565b600285016000526020600020908382015b8183018110611899575050610a27565b806118a5600192615513565b01611889565b6001906020845194019381840155016109f6565b6118d9906001870160005284846000209182019101615124565b876109e5565b9190846000526020600020906000935b601f1984168510611930576001945083601f19811610611917575b505050811b0182556109ae565b015160001960f88460031b161c1916905586808061190a565b818101518355602094850194600190930192909101906118ef565b80518051906001600160401b0382116115015761196c826114398854614e17565b602090601f83116001146119b357926119a4836001959460209487966000926114865750508160011b916000199060031b1c19161790565b87555b01940191019092610684565b908660005260206000209160005b601f1985168110611a0b575083602093600196938796938794601f198116106119f2575b505050811b0187556119a7565b015160001960f88460031b161c191690558d80806119e5565b919260206001819286850151815501940192016119c1565b600285016000526020600020908382015b8183018110611a4457505061066e565b80611a50600192615513565b01611a34565b60019060208451940193818401550161063d565b611a84906001870160005284846000209182019101615124565b8761062c565b9190846000526020600020906000935b601f1984168510611adb576001945083601f19811610611ac2575b505050811b0182556105f5565b015160001960f88460031b161c19169055868080611ab5565b81810151835560209485019460019093019290910190611a9a565b60405162461bcd60e51b815260206004820152603260248201527f5634446973747269627574696f6e4d6f64756c653a20746f6b656e20616464726044820152716573732063616e6e6f74206265207a65726f60701b6064820152608490fd5b61ffff191661010117600055896104e6565b50303b1580156104d2575083851682146104d2565b5081858516106104cb565b6000199060200360031b1b16876104a7565b60405162461bcd60e51b815260206004820152603160248201527f5634446973747269627574696f6e4d6f64756c653a20696e76616c696420696e604482015270697469616c697a6174696f6e206461746160781b6064820152608490fd5b61ffff1916610101176000558661048c565b50303b1580156104705750808416600114610470565b50600184821610610469565b346101465760a0366003190112610146576004356001600160401b03811161014657611c5d903690600401614c72565b61010052610200526024356001600160401b03811161014657611c84903690600401614c72565b610120526101c0526044356001600160401b03811161014657611cab903690600401614c72565b610140526101e0526064356001600160401b03811161014657611cd2903690600401614c72565b6101a05260c0526084356001600160401b03811161014657611cf8903690600401614c72565b6101605261018052611d08615686565b611d1760ff606a541615614f12565b610120516101005114806121bb575b806121ac575b8061219d575b156121415760006080525b6101005160805110611d5457602060405160018152f35b611d8160018060a01b03611d79611d746080516101005161020051615580565b615590565b16151561520d565b611d9f611d97608051610120516101c051615580565b351515615275565b611ddc611dd660018060a01b03611dc2611d746080516101005161020051615580565b166000526067602052604060002054151590565b156152e0565b611df6611df16080516101a05160c051615580565b6155a4565b61211e575b611e11611d746080516101005161020051615580565b611eb1611e27608051610120516101c051615580565b3591611e3c608051610140516101e0516155b1565b9290611e53611df16080516101a05160c051615580565b93611e69611df16080516101a05160c051615580565b1561211657611e816080516101605161018051615580565b35935b60405160a052611e9560a051614ca2565b60018060a01b031660a05152602060a0510195865236916153ba565b91604060a051019283521515606060a0510152608060a051015260018060a01b03611ee8611d746080516101005161020051615580565b16600052606860205260406000209160018060a01b0360a05151166001600160601b0360a01b845416178355516001830155519081516001600160401b03811161150157611f4681611f3d6002850154614e17565b60028501615165565b6020601f82116001146120a1578190611f7693946000926120965750508160011b916000199060031b1c19161790565b60028201555b611f9d606060a05101511515600383019060ff801983541691151516179055565b6004608060a0510151910155611fcf60018060a01b03611fc9611d746080516101005161020051615580565b1661591f565b50611fe3608051610120516101c051615580565b35611ff16069918254615117565b9055612009611d746080516101005161020051615580565b600080516020615ae783398151915261208561202e608051610120516101c051615580565b3592612043608051610140516101e0516155b1565b61205b611df16080959395516101a05160c051615580565b61206e6080516101605161018051615580565b359160405195869560018060a01b031698866153f1565b0390a2600160805101608052611d3d565b0151905084806105dd565b60028301600052602060002060e05260005b601f19831681106120f857506001929382601f198116106120de575b5050811b016002820155611f7c565b015160001960f88360031b161c191660e0515583806120cf565b90602081819287015160e05155600160e0510160e0520191016120b3565b600093611e84565b61213c6121346080516101605161018051615580565b354210615348565b611dfb565b60405162461bcd60e51b815260206004820152602e60248201527f5634446973747269627574696f6e4d6f64756c653a206172726179206c656e6760448201526d0e8d0e640daeae6e840dac2e8c6d60931b6064820152608490fd5b50610160516101005114611d32565b506101a0516101005114611d2c565b50610140516101005114611d26565b3461014657602080600319360112610146576121e4614aae565b60ff606a541615612411576001600160a01b0381811660008181526067602052604090205490929190612218901515614dad565b82600052606884526040600020600381019160ff835416156123b5576004820154421061235a57606554600192909201805460405163a9059cbb60e01b8982019081526001600160a01b03979097166024820152604480820192909252908152909460009384931691839061228e606482614d45565b51925af13d15612355573d6122a281614d66565b906122b06040519283614d45565b81526000863d92013e5b156122fc57805460ff19169055546040519081527fe7b379c6c1fa169e9079c25e9143b127637eef8ec8c9d5c06ddb4ab3e1195888908390a260405160018152f35b60405162461bcd60e51b815260048101859052602b60248201527f5634446973747269627574696f6e4d6f64756c653a20746f6b656e207472616e60448201526a1cd9995c8819985a5b195960aa1b6064820152608490fd5b6122ba565b60405162461bcd60e51b815260048101879052602d60248201527f5634446973747269627574696f6e4d6f64756c653a20746f6b656e732061726560448201526c081cdd1a5b1b081b1bd8dad959609a1b6064820152608490fd5b60405162461bcd60e51b815260048101879052602e60248201527f5634446973747269627574696f6e4d6f64756c653a20616c6c6f636174696f6e60448201526d081a5cc81b9bdd081b1bd8dad95960921b6064820152608490fd5b60405162461bcd60e51b815260048101839052603360248201527f5634446973747269627574696f6e4d6f64756c653a20646973747269627574696044820152721bdb881b9bdd081e595d08195e1958dd5d1959606a1b6064820152608490fd5b3461014657602036600319011261014657602061248d614aae565b612495615686565b6124a460ff606a541615614f12565b6001600160a01b03166000818152606760205260409020546124c7901515614dad565b80600052606882526124e3600160406000200154606954615506565b60695580600052606882526124fb604060002061555c565b6125048161599c565b50604051907f85f179d4205edd87e18c80df3160316df70c87a3c515d0650c32dae6ead80afd600080a260018152f35b346101465760203660031901126101465760043563ffffffff60e01b8116809103610146576020906310c5833960e31b8114908115612654575b8115612643575b8115612632575b8115612621575b8115612610575b81156125ff575b81156125ee575b81156125dd575b81156125c9575b81156125b8575b506040519015158152f35b63196cff2960e31b149050826125ad565b6001623c4bbb60e21b0319811491506125a6565b631ada87a960e11b8114915061259f565b634d3893d160e11b81149150612598565b630e02292360e01b81149150612591565b630e5007b160e11b8114915061258a565b6302a292d360e61b81149150612583565b63062c0ab760e51b8114915061257c565b631186450760e11b81149150612575565b63198d7d9960e31b8114915061256e565b346101465761267336614c1b565b9061267f959295615686565b61268e60ff606a541615614f12565b6001600160a01b0383166000908152606760205260409020546126b2901515614dad565b806126be861515615275565b612902575b6126f2856126ed60695460018060a01b038716600052606860205260016040600020015490615506565b615117565b60695580156128fa5781955b6040519661270b88614ca2565b6001600160a01b0385168852602088018781529061272a3684896153ba565b9060408a0191825284151560608b015260808a015260018060a01b038616600052606860205260406000209160018060a01b038a51166001600160601b0360a01b845416178355516001830155519788516001600160401b038111611501576127a38161279a6002860154614e17565b60028601615165565b6020601f821160011461285d576128449695949392612801836004946080947fa3c835fcd4d2b819d5e8f590f6b36f796e7b73652831d08cfca45f22a6d43b7b9e9f6000926128525750508160011b916000199060031b1c19161790565b60028501555b61282660608201511515600386019060ff801983541691151516179055565b01519101556040516001600160a01b039095169794958695866153f1565b0390a2602060405160018152f35b015190508f806105dd565b6002840160005260206000209a60005b601f19841681106128e25750926001837fa3c835fcd4d2b819d5e8f590f6b36f796e7b73652831d08cfca45f22a6d43b7b9c9d6080946128449b9a999897600497601f198116106128c9575b505050811b016002850155612807565b015160001960f88460031b161c191690558e80806128b9565b828201518d556001909c019b6020928301920161286d565b6000956126fe565b61290d428311615348565b6126c3565b3461014657600036600319011261014657600080606c54905b818110612a4e575061293c82614ee7565b9061294a6040519283614d45565b82825261295683614ee7565b602090601f19908101368584013761298661297086614ee7565b9561297e6040519788614d45565b808752614ee7565b018160005b828110612a3e575050506000805b8381106129af5760405180610142888883614b54565b6129b8816150c8565b9054600391821b1c8060005260ff606b9283875260406000200154166129e3575b5050600101612999565b92612a369184600194956129f7848b614efe565b526000528552612a14612a1b604060002060405192838092614e51565b0382614d45565b612a25828a614efe565b52612a308189614efe565b5061542f565b9190876129d9565b606082828901015201829061298b565b60ff612a59826150c8565b9054600391821b1c600052606b6020526040600020015416612a7e575b60010161292b565b91612a8a60019161542f565b929050612a76565b34610146576000366003190112610146576033546040516001600160a01b039091168152602090f35b3461014657612ac936614c1b565b90612ad695929395615686565b612ae560ff606a541615614f12565b6001600160a01b0393612afb848616151561520d565b612b06861515615275565b81612b23611dd68787166000526067602052604060002054151590565b612cf8575b8115612cf05782965b60405197612b3e89614ca2565b86861689526020890190888252612b563685856153ba565b9060408b0191825285151560608c015260808b01528787166000526068602052604060002091888b51166001600160601b0360a01b845416178355516001830155519889516001600160401b03811161150157612bba8161279a6002860154614e17565b60209a601f8211600114612c6657612844979695949392612c0883600494600080516020615ae78339815191529e9f608095600092612c5b5750508160011b916000199060031b1c19161790565b60028501555b612c2d60608201511515600386019060ff801983541691151516179055565b0151910155612c3d87871661591f565b50612c4a89606954615117565b6069556040519687961698866153f1565b0151905038806105dd565b601f198216906002850160005260206000209160005b818110612cd8575083608093600080516020615ae78339815191529e9f6128449c9b9a9998979460049760019510612cbf575b505050811b016002850155612c0e565b015160001960f88460031b161c191690558f8080612caf565b828f0151845560209e8f019e60019094019301612c7c565b600096612b31565b612d03428411615348565b612b28565b3461014657600036600319011261014657612d21615686565b603380546001600160a01b031981169091556000906001600160a01b03167f8be0079c531659141344cd1fd0a4f28419497f9722a3daafe3b4186f6b6457e08280a3005b3461014657604036600319011261014657612d7e614aae565b602435906001600160a01b0390818316830361014657612df16000549360ff8560081c161594858096614260575b8015614249575b612dbc906151aa565b60ff19811660011760005585614237575b50612de360ff60005460081c166104f7816156de565b612dec3361573e565b61573e565b168015611af6576001600160601b0360a01b606554161760655560405190612e1882614cd8565b6005825260a0366020840137612e2c61543e565b60405192612e3984614cbd565b604051612e4581614cf3565b600c81526b5374616e646172642049434f60a01b6020820152845260208401526040830152600160608301526001600052606b602052604060002082519283516001600160401b03811161150157612ea781612ea18554614e17565b85615165565b6020601f82116001146141ce578190612ed993949596600092613ccb5750508160011b916000199060031b1c19161790565b82555b60208101518051906001600160401b03821161150157600160401b82116115015760209060018501548360018701558084106141ae575b500160018401600052602060002060005b83811061419a57505050506040810151805190600160401b8211611501576002840154826002860155808310614167575b5060200190600284016000526020600020916000905b82821061408f5786612f938760036060890151151591019060ff801983541691151516179055565b6001600052606b602052612fb76106d1600080516020615b27833981519152615011565b90556001600052606b602052612fdd610710600080516020615b27833981519152615026565b90556001600052606b60205261300361074f600080516020615b27833981519152615041565b90556001600052606b60205261302961078e600080516020615b2783398151915261505c565b90556001600052606b60205261304f6107cd600080516020615b27833981519152615077565b90556001600052606b60205261307561080c600080516020615b87833981519152615011565b6001600052606b602052613099610836600080516020615b87833981519152615026565b6001600052606b6020526130ba600080516020615b87833981519152615041565b611402576130cb61086e8254614e17565b600e665265736572766560c81b0190556001600052606b6020526130ff6108a8600080516020615b8783398151915261505c565b6001600052606b6020526131236108d2600080516020615b87833981519152615077565b61312b61581b565b6040519061313882614d0e565b6006825260c036602084013761314c615470565b6040519261315984614cbd565b60405161316581614cf3565b601181527010dbdb5b5d5b9a5d1e48119bd8dd5cd959607a1b6020820152845260208401526040830152600160608301526002600052606b602052604060002082519283516001600160401b038111611501576131c681612ea18554614e17565b6020601f82116001146140265781906131f893949596600092613ccb5750508160011b916000199060031b1c19161790565b82555b60208101518051906001600160401b03821161150157600160401b8211611501576020906001850154836001870155808410614006575b500160018401600052602060002060005b838110613ff257505050506040810151805190600160401b8211611501576002840154826002860155808310613fbf575b5060200190600284016000526020600020916000905b828210613ee757866132b28760036060890151151591019060ff801983541691151516179055565b6002600052606b6020526132d6610a8a600080516020615aa7833981519152615011565b90556002600052606b6020526132fc610710600080516020615aa7833981519152615026565b90556002600052606b60205261332261074f600080516020615aa7833981519152615041565b90556002600052606b60205261334861078e600080516020615aa783398151915261505c565b90556002600052606b60205261336e61078e600080516020615aa7833981519152615077565b90556002600052606b6020526133946107cd600080516020615aa7833981519152615092565b90556002600052606b6020526133b7600080516020615b07833981519152615011565b611402576133c861086e8254614e17565b602270436f6d6d756e697479205265776172647360781b0190556002600052606b60205261340661080c600080516020615b07833981519152615026565b6002600052606b60205261342a610836600080516020615b07833981519152615041565b6002600052606b60205261344e610c1b600080516020615b0783398151915261505c565b6002600052606b6020526134726108a8600080516020615b07833981519152615077565b6002600052606b6020526134966108d2600080516020615b07833981519152615092565b61349e615852565b604051906134ab82614d29565b6007825260e03660208401376134bf6154a2565b604051926134cc84614cbd565b6040516134d881614cf3565b600c81526b1119519a48141c9bda9958dd60a21b6020820152845260208401526040830152600160608301526003600052606b602052604060002082519283516001600160401b0381116115015761353481612ea18554614e17565b6020601f8211600114613e7e57819061356693949596600092613ccb5750508160011b916000199060031b1c19161790565b82555b60208101518051906001600160401b03821161150157600160401b8211611501576020906001850154836001870155808410613e5e575b500160018401600052602060002060005b838110613e4a57505050506040810151805190600160401b8211611501576002840154826002860155808310613e17575b5060200190600284016000526020600020916000905b828210613d3f57866136208760036060890151151591019060ff801983541691151516179055565b6003600052606b602052613644610e16600080516020615ac7833981519152615011565b90556003600052606b60205261366a610e55600080516020615ac7833981519152615026565b90556003600052606b60205261369061074f600080516020615ac7833981519152615041565b90556003600052606b6020526136b661078e600080516020615ac783398151915261505c565b90556003600052606b6020526136dc61078e600080516020615ac7833981519152615077565b90556003600052606b6020526137026107cd600080516020615ac7833981519152615092565b90556003600052606b6020526137286107cd600080516020615ac78339815191526150ad565b90556003600052606b60205261374b600080516020615b67833981519152615011565b6114025761375c61086e8254614e17565b6026722634b8bab4b234ba3c90283937bb34b9b4b7b760691b0190556003600052606b602052613799600080516020615b67833981519152615026565b611402576137aa61086e8254614e17565b7f436f6d6d756e69747920496e63656e746976657300000000000000000000002890556003600052606b6020526137f1610836600080516020615b67833981519152615041565b6003600052606b60205261381561080c600080516020615b6783398151915261505c565b6003600052606b602052613839610c1b600080516020615b67833981519152615077565b6003600052606b60205261385d6108a8600080516020615b67833981519152615092565b6003600052606b60205261387e600080516020615b678339815191526150ad565b6114025761388f61086e8254614e17565b60186b506172746e6572736869707360a01b0190556138ac615889565b604051906138b982614ca2565b6004825260803660208401376138cd6154d4565b604051926138da84614cbd565b6040516138e681614cf3565b601281527122b8bab0b6102234b9ba3934b13aba34b7b760711b6020820152845260208401526040830152600160608301526004600052606b602052604060002082519283516001600160401b0381116115015761394881612ea18554614e17565b6020601f8211600114613cd657819061397a93949596600092613ccb5750508160011b916000199060031b1c19161790565b82555b60208101518051906001600160401b03821161150157600160401b8211611501576020906001850154836001870155808410613cab575b500160018401600052602060002060005b838110613c9757505050506040810151805190600160401b8211611501576002840154826002860155808310613c64575b5060200190600284016000526020600020916000905b828210613b815786613a348760036060890151151591019060ff801983541691151516179055565b6004600052606b602052613a58610e55600080516020615a87833981519152615011565b90556004600052606b602052613a7e610e55600080516020615a87833981519152615026565b90556004600052606b602052613aa4610e55600080516020615a87833981519152615041565b90556004600052606b602052613aca610e55600080516020615a8783398151915261505c565b90556004600052606b602052613aed600080516020615b47833981519152615011565b61140257613afe61086e8254614e17565b600c655075626c696360d01b0190556004600052606b602052613b31610836600080516020615b47833981519152615026565b6004600052606b602052613b55610c1b600080516020615b47833981519152615041565b6004600052606b602052613b796108a8600080516020615b4783398151915261505c565b6113896158c0565b80518051906001600160401b03821161150157613ba2826114398854614e17565b602090601f8311600114613bf45792613bda83600195946020948796600092613be95750508160011b916000199060031b1c19161790565b87555b01940191019092613a0c565b015190508d806105dd565b908660005260206000209160005b601f1985168110613c4c575083602093600196938796938794601f19811610613c33575b505050811b018755613bdd565b015160001960f88460031b161c191690558c8080613c26565b91926020600181928685015181550194019201613c02565b600285016000526020600020908382015b8183018110613c855750506139f6565b80613c91600192615513565b01613c75565b6001906020845194019381840155016139c5565b613cc5906001870160005284846000209182019101615124565b866139b4565b0151905086806105dd565b8360005260206000209060005b601f1984168110613d27575060019394959683601f19811610613d0e575b505050811b01825561397d565b015160001960f88460031b161c19169055858080613d01565b9091602060018192858b015181550193019101613ce3565b80518051906001600160401b03821161150157613d60826114398854614e17565b602090601f8311600114613da75792613d9883600195946020948796600092613be95750508160011b916000199060031b1c19161790565b87555b019401910190926135f8565b908660005260206000209160005b601f1985168110613dff575083602093600196938796938794601f19811610613de6575b505050811b018755613d9b565b015160001960f88460031b161c191690558c8080613dd9565b91926020600181928685015181550194019201613db5565b600285016000526020600020908382015b8183018110613e385750506135e2565b80613e44600192615513565b01613e28565b6001906020845194019381840155016135b1565b613e78906001870160005284846000209182019101615124565b866135a0565b8360005260206000209060005b601f1984168110613ecf575060019394959683601f19811610613eb6575b505050811b018255613569565b015160001960f88460031b161c19169055858080613ea9565b9091602060018192858b015181550193019101613e8b565b80518051906001600160401b03821161150157613f08826114398854614e17565b602090601f8311600114613f4f5792613f4083600195946020948796600092613be95750508160011b916000199060031b1c19161790565b87555b0194019101909261328a565b908660005260206000209160005b601f1985168110613fa7575083602093600196938796938794601f19811610613f8e575b505050811b018755613f43565b015160001960f88460031b161c191690558c8080613f81565b91926020600181928685015181550194019201613f5d565b600285016000526020600020908382015b8183018110613fe0575050613274565b80613fec600192615513565b01613fd0565b600190602084519401938184015501613243565b614020906001870160005284846000209182019101615124565b86613232565b8360005260206000209060005b601f1984168110614077575060019394959683601f1981161061405e575b505050811b0182556131fb565b015160001960f88460031b161c19169055858080614051565b9091602060018192858b015181550193019101614033565b80518051906001600160401b038211611501576140b0826114398854614e17565b602090601f83116001146140f757926140e883600195946020948796600092613be95750508160011b916000199060031b1c19161790565b87555b01940191019092612f6b565b908660005260206000209160005b601f198516811061414f575083602093600196938796938794601f19811610614136575b505050811b0187556140eb565b015160001960f88460031b161c191690558c8080614129565b91926020600181928685015181550194019201614105565b600285016000526020600020908382015b8183018110614188575050612f55565b80614194600192615513565b01614178565b600190602084519401938184015501612f24565b6141c8906001870160005284846000209182019101615124565b86612f13565b8360005260206000209060005b601f198416811061421f575060019394959683601f19811610614206575b505050811b018255612edc565b015160001960f88460031b161c191690558580806141f9565b9091602060018192858b0151815501930191016141db565b61ffff19166101011760005585612dcd565b50303b158015612db3575060ff8116600114612db3565b50600160ff821610612dac565b34610146576020806003193601126101465760043580600052606b825261429e60ff60036040600020015416614f7a565b600052606b8152604060002060016002600183019201604051808486829654938481520190600052866000209260005b868983831061434957505050506142e792500384614d45565b8054906142f382614ee7565b946143016040519687614d45565b82865260009182528082208187015b84841061432657604051806101428a8a83614b54565b8583819260405161433b81612a148189614e51565b815201920193019290614310565b865485529581019589955090930192016142ce565b3461014657604036600319011261014657614377615686565b61438660ff606a541615614f12565b600435600052606b6020526143a560ff60036040600020015416614f7a565b606680549060005b8281106147a2576000606955600435600052606b6020526040600020600090600060018201545b808210614779575050811561470e5760005b60018201548110156146d3576143ff81600184016150ff565b90549060031b1c156146cb5761441881600184016150ff565b90549060031b1c60243581602435020481146024351517156146b557831561469f576040516004356020820152826040820152604081528060608101106001600160401b03606083011117611501576060810160405280516020909101206001600160a01b039081169161448f84600287016150ff565b50916144c1604051936144a185614ca2565b8585526144c860208601918a866024350204835260405193848092614e51565b0383614d45565b6040850191825260006060860152600060808601528560005260686020526040600020928551166001600160601b0360a01b845416178355516001830155519283516001600160401b0381116115015788946145348261452b6002870154614e17565b60028701615165565b602090601f831160011461461057600080516020615ae783398151915295936145808460019b9a9997956004956080956000926128525750508160011b916000199060031b1c19161790565b60028501555b6145a560608201511515600386019060ff801983541691151516179055565b01519101556145b38461591f565b506145c682826024350204606954615117565b6069556145f86145d98660028a016150ff565b5060405193849360243502048352608060208401526080830190614e51565b60006040830152600060608301520390a25b016143e6565b9192939495506002850160005260206000209160005b601f198516811061468757508a94600185600080516020615ae78339815191529895600495608095849e9d9c99601f1981161061466e575b505050811b016002850155614586565b015160001960f88460031b161c191690558e808061465e565b81830151845560019093019260209283019201614626565b634e487b7160e01b600052601260045260246000fd5b634e487b7160e01b600052601160045260246000fd5b60019061460a565b60405160243581527f3bd40eae53b08abc7bb394225e1e7e99430a5c44cb02f4aa40f881074de8a38a602060043592a2602060405160018152f35b60405162461bcd60e51b815260206004820152603b60248201527f5634446973747269627574696f6e4d6f64756c653a20746f74616c207261746960448201527f6f206d7573742062652067726561746572207468616e207a65726f00000000006064820152608490fd5b909261479a60019161478d868487016150ff565b90549060031b1c90615117565b9301906143d4565b81541561482057600190818060a01b037f46501879b8ca8525e8c2fd519e2fbfcfa2ebea26501294aa02cbfcfb12e9435454168060005260686020526147eb604060002061555c565b6147f48161599c565b507f85f179d4205edd87e18c80df3160316df70c87a3c515d0650c32dae6ead80afd600080a2016143ad565b634e487b7160e01b600052603260045260246000fd5b34610146576000366003190112610146576065546040516001600160a01b039091168152602090f35b346101465760003660031901126101465760665461487c81614ee7565b6148896040519182614d45565b81815261489582614ee7565b60209290601f19018360005b8281106149a75750505060005b8181106149165750506040519082820192808352815180945260408301938160408260051b8601019301916000955b8287106148ea5785850386f35b909192938280614906600193603f198a82030186528851614b0c565b96019201960195929190926148dd565b806004614924600193614fda565b848060a09493941b03809354600392831b1c166000526068885260ff6040600020916040519461495386614ca2565b8354168552868301548a86015260405161497481612a148160028801614e51565b60408601528201541615156060840152015460808201526149958286614efe565b526149a08185614efe565b50016148ae565b6149af614d81565b8282870101520184906148a1565b34610146576020366003190112610146576101426149d9614aae565b6149e1614d81565b506001600160a01b03908116600081815260676020526040902054614a07901515614dad565b60005260686020526004604060002060405192614a2384614ca2565b815416835260018101546020840152604051614a4681612a148160028601614e51565b604084015260ff6003820154161515606084015201546080820152604051918291602083526020830190614b0c565b3461014657600036600319011261014657807f6e4379ad5abe51b1f38d7c717558b084ca50f05c182778be47e8aa04793cfe2d60209252f35b600435906001600160a01b038216820361014657565b60005b838110614ad75750506000910152565b8181015183820152602001614ac7565b90602091614b0081518092818552858086019101614ac4565b601f01601f1916010190565b9060018060a01b03825116815260208201516020820152608080614b3f604085015160a0604086015260a0850190614ae7565b93606081015115156060850152015191015290565b906040820191604081528151809352606081019260208093019060005b818110614bda57505050818184039101528251908183528083019281808460051b8301019501936000915b848310614bac5750505050505090565b9091929394958480614bca600193601f198682030187528a51614ae7565b9801930193019194939290614b9c565b825186529484019491840191600101614b71565b9181601f84011215610146578235916001600160401b038311610146576020838186019501011161014657565b60a0600319820112610146576004356001600160a01b0381168103610146579160243591604435906001600160401b03821161014657614c5d91600401614bee565b90916064358015158103610146579060843590565b9181601f84011215610146578235916001600160401b038311610146576020808501948460051b01011161014657565b60a081019081106001600160401b0382111761150157604052565b608081019081106001600160401b0382111761150157604052565b60c081019081106001600160401b0382111761150157604052565b604081019081106001600160401b0382111761150157604052565b60e081019081106001600160401b0382111761150157604052565b61010081019081106001600160401b0382111761150157604052565b90601f801991011681019081106001600160401b0382111761150157604052565b6001600160401b03811161150157601f01601f191660200190565b60405190614d8e82614ca2565b6000608083828152826020820152606060408201528260608201520152565b15614db457565b60405162461bcd60e51b815260206004820152603560248201527f5634446973747269627574696f6e4d6f64756c653a2077616c6c657420646f6560448201527439903737ba103430bb329030b63637b1b0ba34b7b760591b6064820152608490fd5b90600182811c92168015614e47575b6020831014614e3157565b634e487b7160e01b600052602260045260246000fd5b91607f1691614e26565b805460009392614e6082614e17565b91828252602093600191600181169081600014614ec85750600114614e87575b5050505050565b90939495506000929192528360002092846000945b838610614eb457505050500101903880808080614e80565b805485870183015294019385908201614e9c565b60ff19168685015250505090151560051b010191503880808080614e80565b6001600160401b0381116115015760051b60200190565b80518210156148205760209160051b010190565b15614f1957565b60405162461bcd60e51b815260206004820152603360248201527f5634446973747269627574696f6e4d6f64756c653a20646973747269627574696044820152721bdb88185b1c9958591e48195e1958dd5d1959606a1b6064820152608490fd5b15614f8157565b60405162461bcd60e51b815260206004820152602b60248201527f5634446973747269627574696f6e4d6f64756c653a2070726573657420646f6560448201526a1cc81b9bdd08195e1a5cdd60aa1b6064820152608490fd5b6066548110156148205760666000527f46501879b8ca8525e8c2fd519e2fbfcfa2ebea26501294aa02cbfcfb12e943540190600090565b80541561482057600052602060002090600090565b80546001101561482057600052600160206000200190600090565b80546002101561482057600052600260206000200190600090565b80546003101561482057600052600360206000200190600090565b80546004101561482057600052600460206000200190600090565b80546005101561482057600052600560206000200190600090565b80546006101561482057600052600660206000200190600090565b606c5481101561482057606c6000527f2b4a51ab505fc96a0952efda2ba61bcd3078d4c02c39a186ec16f21883fbe0160190600090565b80548210156148205760005260206000200190600090565b919082018092116146b557565b81811061512f575050565b60008155600101615124565b90601f8111615148575050565b61516391600052601f6020600020910160051c810190615124565b565b9190601f811161517457505050565b615163926000526020600020906020601f840160051c830193106151a0575b601f0160051c0190615124565b9091508190615193565b156151b157565b60405162461bcd60e51b815260206004820152602e60248201527f496e697469616c697a61626c653a20636f6e747261637420697320616c72656160448201526d191e481a5b9a5d1a585b1a5e995960921b6064820152608490fd5b1561521457565b60405162461bcd60e51b815260206004820152603360248201527f5634446973747269627574696f6e4d6f64756c653a2077616c6c65742063616e6044820152726e6f74206265207a65726f206164647265737360681b6064820152608490fd5b1561527c57565b60405162461bcd60e51b815260206004820152603660248201527f5634446973747269627574696f6e4d6f64756c653a20616d6f756e74206d7573604482015275742062652067726561746572207468616e207a65726f60501b6064820152608490fd5b156152e757565b60405162461bcd60e51b815260206004820152603360248201527f5634446973747269627574696f6e4d6f64756c653a2077616c6c657420616c7260448201527232b0b23c903430b99030b63637b1b0ba34b7b760691b6064820152608490fd5b1561534f57565b60405162461bcd60e51b815260206004820152603760248201527f5634446973747269627574696f6e4d6f64756c653a20756e6c6f636b2074696d60448201527f65206d75737420626520696e20746865206675747572650000000000000000006064820152608490fd5b9291926153c682614d66565b916153d46040519384614d45565b829481845281830111610146578281602093846000960137010152565b91928060609460a09398979698855260806020860152816080860152838501376000828285010152601f801991011682010194151560408201520152565b60001981146146b55760010190565b6040519061544b82614cd8565b600582528160005b60a0811061545f575050565b806060602080938501015201615453565b6040519061547d82614d0e565b600682528160005b60c08110615491575050565b806060602080938501015201615485565b604051906154af82614d29565b600782528160005b60e081106154c3575050565b8060606020809385010152016154b7565b604051906154e182614ca2565b600482528160005b608081106154f5575050565b8060606020809385010152016154e9565b919082039182116146b557565b61551d8154614e17565b9081615527575050565b81601f60009311600114615539575055565b908083918252615558601f60208420940160051c840160018501615124565b5555565b600460009182815582600182015561557660028201615513565b8260038201550155565b91908110156148205760051b0190565b356001600160a01b03811681036101465790565b3580151581036101465790565b91908110156148205760051b81013590601e19813603018212156101465701908135916001600160401b038311610146576020018236038113610146579190565b9190604083820312610146578251801515810361014657926020810151906001600160401b038211610146570181601f8201121561014657805161563581614d66565b926156436040519485614d45565b81845260208284010111610146576156619160208085019101614ac4565b90565b6001600160a01b03909116815260406020820181905261566192910190614ae7565b6033546001600160a01b0316330361569a57565b606460405162461bcd60e51b815260206004820152602060248201527f4f776e61626c653a2063616c6c6572206973206e6f7420746865206f776e65726044820152fd5b156156e557565b60405162461bcd60e51b815260206004820152602b60248201527f496e697469616c697a61626c653a20636f6e7472616374206973206e6f74206960448201526a6e697469616c697a696e6760a81b6064820152608490fd5b603380546001600160a01b039283166001600160a01b0319821681179092559091167f8be0079c531659141344cd1fd0a4f28419497f9722a3daafe3b4186f6b6457e0600080a3565b906114025761579961086e8254614e17565b60166a5075626c69632053616c6560a81b019055565b90611402576157c161086e8254614e17565b6008635465616d60e01b019055565b90611402576157e261086e8254614e17565b6012684d61726b6574696e6760b81b019055565b906114025761580861086e8254614e17565b60106741647669736f727360c01b019055565b606c54600160401b8110156115015780600161583a9201606c556150c8565b81549060031b906001821b91600019901b1916179055565b606c54600160401b811015611501578060016158719201606c556150c8565b81549060031b906002821b91600019901b1916179055565b606c54600160401b811015611501578060016158a89201606c556150c8565b81549060031b906003821b91600019901b1916179055565b606c54600160401b811015611501578060016158df9201606c556150c8565b81549060031b906004821b91600019901b1916179055565b906114025761590961086e8254614e17565b60166a11195d995b1bdc1b595b9d60aa1b019055565b60008181526067602052604081205461599757606654600160401b81101561598357908261596f61595884600160409601606655614fda565b819391549060031b91821b91600019901b19161790565b905560665492815260676020522055600190565b634e487b7160e01b82526041600452602482fd5b905090565b6000818152606760205260408120549091908015615a815760001990808201818111615a6d5760665490838201918211615a5957808203615a25575b5050506066548015615a11578101906159f082614fda565b909182549160031b1b19169055606655815260676020526040812055600190565b634e487b7160e01b84526031600452602484fd5b615a43615a3461595893614fda565b90549060031b1c928392614fda565b90558452606760205260408420553880806159d8565b634e487b7160e01b86526011600452602486fd5b634e487b7160e01b85526011600452602485fd5b50509056fef0ae10cbc4b7e5d41a3a6c7f530e4919b2e487e56976cad1b0bf6c5c77e67916b507b92927105c30ff6e8afc661972d5ba73e86e28bafa70cb531ddda52bdf054e5c7e8f4b1f6c9808b80aae6c41bbd046930d99f67f4e24136b55524acbcb0f3241139af5e2a8b260ac9c371bbcd5da66ac3ce01dfc401fb973a1f174a1bc07b507b92927105c30ff6e8afc661972d5ba73e86e28bafa70cb531ddda52bdf06a775687211c2b3346a0f5a2a0e7590e6c1838453e3785e6dd2a8efd6265ddf16f0ae10cbc4b7e5d41a3a6c7f530e4919b2e487e56976cad1b0bf6c5c77e679174e5c7e8f4b1f6c9808b80aae6c41bbd046930d99f67f4e24136b55524acbcb10a775687211c2b3346a0f5a2a0e7590e6c1838453e3785e6dd2a8efd6265ddf17a264697066735822122068f6e69992a4d3b92069ef2638cd687559d122b7773cbcd76b0d92d9996ff91364736f6c63430008160033",
  "linkReferences": {},
  "deployedLinkReferences": {}
}