{
  "_format": "hh-sol-artifact-1",
  "contractName": "V4DistributionModule",
  "sourceName": "src/contracts/V4DistributionModule.sol",
  "abi": [
    {
      "inputs": [],
      "stateMutability": "nonpayable",
      "type": "constructor"
    },
    {
      "anonymous": false,
      "inputs": [
        {
          "indexed": true,
          "internalType": "address",
          "name": "wallet",
          "type": "address"
        },
        {
          "indexed": false,
          "internalType": "uint256",
          "name": "amount",
          "type": "uint256"
        },
        {
          "indexed": false,
          "internalType": "string",
          "name": "label",
          "type": "string"
        },
        {
          "indexed": false,
          "internalType": "bool",
          "name": "locked",
          "type": "bool"
        },
        {
          "indexed": false,
          "internalType": "uint256",
          "name": "unlockTime",
          "type": "uint256"
        }
      ],
      "name": "AllocationAdded",
      "type": "event"
    },
    {
      "anonymous": false,
      "inputs": [
        {
          "indexed": true,
          "internalType": "address",
          "name": "wallet",
          "type": "address"
        },
        {
          "indexed": false,
          "internalType": "uint256",
          "name": "amount",
          "type": "uint256"
        },
        {
          "indexed": false,
          "internalType": "string",
          "name": "label",
          "type": "string"
        },
        {
          "indexed": false,
          "internalType": "bool",
          "name": "locked",
          "type": "bool"
        },
        {
          "indexed": false,
          "internalType": "uint256",
          "name": "unlockTime",
          "type": "uint256"
        }
      ],
      "name": "AllocationModified",
      "type": "event"
    },
    {
      "anonymous": false,
      "inputs": [
        {
          "indexed": true,
          "internalType": "address",
          "name": "wallet",
          "type": "address"
        }
      ],
      "name": "AllocationRemoved",
      "type": "event"
    },
    {
      "anonymous": false,
      "inputs": [
        {
          "indexed": false,
          "internalType": "uint256",
          "name": "totalDistributed",
          "type": "uint256"
        },
        {
          "indexed": false,
          "internalType": "uint256",
          "name": "walletCount",
          "type": "uint256"
        }
      ],
      "name": "DistributionExecuted",
      "type": "event"
    },
    {
      "anonymous": false,
      "inputs": [
        {
          "indexed": false,
          "internalType": "uint8",
          "name": "version",
          "type": "uint8"
        }
      ],
      "name": "Initialized",
      "type": "event"
    },
    {
      "anonymous": false,
      "inputs": [
        {
          "indexed": true,
          "internalType": "address",
          "name": "previousOwner",
          "type": "address"
        },
        {
          "indexed": true,
          "internalType": "address",
          "name": "newOwner",
          "type": "address"
        }
      ],
      "name": "OwnershipTransferred",
      "type": "event"
    },
    {
      "anonymous": false,
      "inputs": [
        {
          "indexed": true,
          "internalType": "address",
          "name": "wallet",
          "type": "address"
        },
        {
          "indexed": false,
          "internalType": "uint256",
          "name": "amount",
          "type": "uint256"
        }
      ],
      "name": "TokensUnlocked",
      "type": "event"
    },
    {
      "inputs": [],
      "name": "VERSION",
      "outputs": [
        {
          "internalType": "string",
          "name": "",
          "type": "string"
        }
      ],
      "stateMutability": "view",
      "type": "function"
    },
    {
      "inputs": [
        {
          "internalType": "address",
          "name": "wallet",
          "type": "address"
        },
        {
          "internalType": "uint256",
          "name": "amount",
          "type": "uint256"
        },
        {
          "internalType": "string",
          "name": "label",
          "type": "string"
        },
        {
          "internalType": "bool",
          "name": "locked",
          "type": "bool"
        },
        {
          "internalType": "uint256",
          "name": "unlockTime",
          "type": "uint256"
        }
      ],
      "name": "addAllocation",
      "outputs": [
        {
          "internalType": "bool",
          "name": "success",
          "type": "bool"
        }
      ],
      "stateMutability": "nonpayable",
      "type": "function"
    },
    {
      "inputs": [
        {
          "internalType": "address[]",
          "name": "wallets",
          "type": "address[]"
        },
        {
          "internalType": "uint256[]",
          "name": "amounts",
          "type": "uint256[]"
        },
        {
          "internalType": "string[]",
          "name": "labels",
          "type": "string[]"
        },
        {
          "internalType": "bool[]",
          "name": "lockStatus",
          "type": "bool[]"
        },
        {
          "internalType": "uint256[]",
          "name": "unlockTimes",
          "type": "uint256[]"
        }
      ],
      "name": "addMultipleAllocations",
      "outputs": [
        {
          "internalType": "bool",
          "name": "success",
          "type": "bool"
        }
      ],
      "stateMutability": "nonpayable",
      "type": "function"
    },
    {
      "inputs": [],
      "name": "executeDistribution",
      "outputs": [
        {
          "internalType": "bool",
          "name": "success",
          "type": "bool"
        }
      ],
      "stateMutability": "nonpayable",
      "type": "function"
    },
    {
      "inputs": [],
      "name": "getAllAllocations",
      "outputs": [
        {
          "components": [
            {
              "internalType": "address",
              "name": "wallet",
              "type": "address"
            },
            {
              "internalType": "uint256",
              "name": "amount",
              "type": "uint256"
            },
            {
              "internalType": "string",
              "name": "label",
              "type": "string"
            },
            {
              "internalType": "bool",
              "name": "locked",
              "type": "bool"
            },
            {
              "internalType": "uint256",
              "name": "unlockTime",
              "type": "uint256"
            }
          ],
          "internalType": "struct IV4DistributionModule.Allocation[]",
          "name": "allocations",
          "type": "tuple[]"
        }
      ],
      "stateMutability": "view",
      "type": "function"
    },
    {
      "inputs": [
        {
          "internalType": "address",
          "name": "wallet",
          "type": "address"
        }
      ],
      "name": "getAllocation",
      "outputs": [
        {
          "components": [
            {
              "internalType": "address",
              "name": "wallet",
              "type": "address"
            },
            {
              "internalType": "uint256",
              "name": "amount",
              "type": "uint256"
            },
            {
              "internalType": "string",
              "name": "label",
              "type": "string"
            },
            {
              "internalType": "bool",
              "name": "locked",
              "type": "bool"
            },
            {
              "internalType": "uint256",
              "name": "unlockTime",
              "type": "uint256"
            }
          ],
          "internalType": "struct IV4DistributionModule.Allocation",
          "name": "allocation",
          "type": "tuple"
        }
      ],
      "stateMutability": "view",
      "type": "function"
    },
    {
      "inputs": [],
      "name": "getModuleType",
      "outputs": [
        {
          "internalType": "bytes32",
          "name": "moduleType",
          "type": "bytes32"
        }
      ],
      "stateMutability": "pure",
      "type": "function"
    },
    {
      "inputs": [],
      "name": "getToken",
      "outputs": [
        {
          "internalType": "address",
          "name": "tokenAddress",
          "type": "address"
        }
      ],
      "stateMutability": "view",
      "type": "function"
    },
    {
      "inputs": [
        {
          "internalType": "address",
          "name": "tokenAddress",
          "type": "address"
        },
        {
          "internalType": "bytes",
          "name": "data",
          "type": "bytes"
        }
      ],
      "name": "initialize",
      "outputs": [],
      "stateMutability": "nonpayable",
      "type": "function"
    },
    {
      "inputs": [
        {
          "internalType": "address",
          "name": "wallet",
          "type": "address"
        },
        {
          "internalType": "uint256",
          "name": "amount",
          "type": "uint256"
        },
        {
          "internalType": "string",
          "name": "label",
          "type": "string"
        },
        {
          "internalType": "bool",
          "name": "locked",
          "type": "bool"
        },
        {
          "internalType": "uint256",
          "name": "unlockTime",
          "type": "uint256"
        }
      ],
      "name": "modifyAllocation",
      "outputs": [
        {
          "internalType": "bool",
          "name": "success",
          "type": "bool"
        }
      ],
      "stateMutability": "nonpayable",
      "type": "function"
    },
    {
      "inputs": [],
      "name": "owner",
      "outputs": [
        {
          "internalType": "address",
          "name": "",
          "type": "address"
        }
      ],
      "stateMutability": "view",
      "type": "function"
    },
    {
      "inputs": [
        {
          "internalType": "address",
          "name": "wallet",
          "type": "address"
        }
      ],
      "name": "removeAllocation",
      "outputs": [
        {
          "internalType": "bool",
          "name": "success",
          "type": "bool"
        }
      ],
      "stateMutability": "nonpayable",
      "type": "function"
    },
    {
      "inputs": [],
      "name": "renounceOwnership",
      "outputs": [],
      "stateMutability": "nonpayable",
      "type": "function"
    },
    {
      "inputs": [
        {
          "internalType": "bytes4",
          "name": "functionSig",
          "type": "bytes4"
        }
      ],
      "name": "supportsFunction",
      "outputs": [
        {
          "internalType": "bool",
          "name": "hasFunction",
          "type": "bool"
        }
      ],
      "stateMutability": "pure",
      "type": "function"
    },
    {
      "inputs": [
        {
          "internalType": "address",
          "name": "newOwner",
          "type": "address"
        }
      ],
      "name": "transferOwnership",
      "outputs": [],
      "stateMutability": "nonpayable",
      "type": "function"
    },
    {
      "inputs": [
        {
          "internalType": "address",
          "name": "wallet",
          "type": "address"
        }
      ],
      "name": "unlockTokens",
      "outputs": [
        {
          "internalType": "bool",
          "name": "success",
          "type": "bool"
        }
      ],
      "stateMutability": "nonpayable",
      "type": "function"
    }
  ],
  "bytecode": "0x608080604052346100c1576000549060ff8260081c1661006f575060ff80821603610034575b60405161244190816100c78239f35b60ff90811916176000557f7f26b83ff96e1f2b6a682f133852f6798a09c465da95921460cefb3847402498602060405160ff8152a138610025565b62461bcd60e51b815260206004820152602760248201527f496e697469616c697a61626c653a20636f6e747261637420697320696e697469604482015266616c697a696e6760c81b6064820152608490fd5b600080fdfe61022080604052600436101561001457600080fd5b60003560e01c9081630b9349b914611a95575080630e022923146119565780631ca00f621461176857806321df0da71461173f578063715018a6146116e2578063862c19c8146114365780638da5cb5b1461140d578063a8a4b4c014611123578063be4644641461103a578063c58156e014610f19578063cb67f94814610c71578063cc6becc814610686578063d1f5789414610415578063f2fde38b14610386578063ff0ed114146101475763ffa1ad74146100d057600080fd5b346101425760003660031901126101425760405160408101908082106001600160401b0383111761012c576101289160405260058152640342e302e360dc1b6020820152604051918291602083526020830190611b07565b0390f35b634e487b7160e01b600052604160045260246000fd5b600080fd5b3461014257600036600319011261014257610160612167565b606a5460ff9061017360ff821615611d90565b606654918215610326576001809260ff191617606a5560005b8381106101d1577f219b165c65b7e1a5744d1a2543bb34326ac29d73e03bdac1abc7290ccd6c26106040856069549082519182526020820152a1602060405160018152f35b806000846101df8294612268565b9054600391821b1c6001600160a01b0390811680855260686020908152604086209384015490939190891686146102b65750909201546040516340c10f1960e01b92810192909252306024830152604482015261026e9161024d82606481015b03601f198101845283611c43565b606554169060405195868094819362ac0f6f60e71b83528560048401612145565b03925af19182156102aa578492610288575b505b0161018c565b6102a4903d806000833e61029c8183611c43565b8101906120d3565b50610280565b6040513d6000823e3d90fd5b9301546040516340c10f1960e01b938101939093526001600160a01b03909316602483015260448201929092526102f49161024d826064810161023f565b03925af19182156102aa57849261030c575b50610282565b610320903d806000833e61029c8183611c43565b50610306565b60405162461bcd60e51b815260206004820152603260248201527f5634446973747269627574696f6e4d6f64756c653a206e6f20616c6c6f636174604482015271696f6e7320746f206469737472696275746560701b6064820152608490fd5b346101425760203660031901126101425761039f611ace565b6103a7612167565b6001600160a01b038116156103c1576103bf906121bf565b005b60405162461bcd60e51b815260206004820152602660248201527f4f776e61626c653a206e6577206f776e657220697320746865207a65726f206160448201526564647265737360d01b6064820152608490fd5b346101425760403660031901126101425761042e611ace565b6024356001600160401b0381116101425761044d903690600401611b74565b90916000549160ff8360081c161592838094610679575b8015610662575b156106065760ff198116600117600055836105f4575b50602093848203610595573590848110610584575b50906104cd60018060a01b0380936104be60ff60005460081c166104b981612208565b612208565b6104c7336121bf565b166121bf565b168015610524576001600160601b0360a01b60655416176065556104ed57005b7f7f26b83ff96e1f2b6a682f133852f6798a09c465da95921460cefb38474024989061ff00196000541660005560405160018152a1005b60405162461bcd60e51b815260048101849052603260248201527f5634446973747269627574696f6e4d6f64756c653a20746f6b656e20616464726044820152716573732063616e6e6f74206265207a65726f60701b6064820152608490fd5b60001990850360031b1b1684610496565b60405162461bcd60e51b815260048101869052603160248201527f5634446973747269627574696f6e4d6f64756c653a20696e76616c696420696e604482015270697469616c697a6174696f6e206461746160781b6064820152608490fd5b61ffff19166101011760005584610481565b60405162461bcd60e51b815260206004820152602e60248201527f496e697469616c697a61626c653a20636f6e747261637420697320616c72656160448201526d191e481a5b9a5d1a585b1a5e995960921b6064820152608490fd5b50303b15801561046b5750600160ff82161461046b565b50600160ff821610610464565b346101425760a0366003190112610142576004356001600160401b038111610142576106b6903690600401611bf8565b61010052610200526024356001600160401b038111610142576106dd903690600401611bf8565b610120526101c0526044356001600160401b03811161014257610704903690600401611bf8565b610140526101e0526064356001600160401b0381116101425761072b903690600401611bf8565b6101a05260c0526084356001600160401b03811161014257610751903690600401611bf8565b6101605261018052610761612167565b61077060ff606a541615611d90565b61012051610100511480610c62575b80610c53575b80610c44575b15610be85760006080525b61010051608051106107ad57602060405160018152f35b6107da60018060a01b036107d26107cd6080516101005161020051612061565b612071565b161515611df8565b6107f86107f0608051610120516101c051612061565b351515611e60565b61083561082f60018060a01b0361081b6107cd6080516101005161020051612061565b166000526067602052604060002054151590565b15611ecb565b61084f61084a6080516101a05160c051612061565b612085565b610bc5575b61086a6107cd6080516101005161020051612061565b61090a610880608051610120516101c051612061565b3591610895608051610140516101e051612092565b92906108ac61084a6080516101a05160c051612061565b936108c261084a6080516101a05160c051612061565b15610bbd576108da6080516101605161018051612061565b35935b60405160a0526108ee60a051611c28565b60018060a01b031660a05152602060a051019586523691611fa5565b91604060a051019283521515606060a0510152608060a051015260018060a01b036109416107cd6080516101005161020051612061565b16600052606860205260406000209160018060a01b0360a05151166001600160601b0360a01b845416178355516001830155519081516001600160401b03811161012c576109926002830154611d15565b601f90818111610b80575b506020908211600114610b0b5781906109ce9394600092610b00575b50508160011b916000199060031b1c19161790565b60028201555b6109f5606060a05101511515600383019060ff801983541691151516179055565b6004608060a0510151910155610a2760018060a01b03610a216107cd6080516101005161020051612061565b1661229f565b50610a3b608051610120516101c051612061565b35610a496069918254611ff3565b9055610a616107cd6080516101005161020051612061565b7f3241139af5e2a8b260ac9c371bbcd5da66ac3ce01dfc401fb973a1f174a1bc07610aef610a98608051610120516101c051612061565b3592610aad608051610140516101e051612092565b610ac561084a6080959395516101a05160c051612061565b610ad86080516101605161018051612061565b359160405195869560018060a01b03169886612016565b0390a2600160805101608052610796565b0151905084806109b9565b60028301600052602060002060e05260005b601f1983168110610b6257506001929382601f19811610610b48575b5050811b0160028201556109d4565b015160001960f88360031b161c191660e051558380610b39565b90602081819287015160e05155600160e0510160e052019101610b1d565b610bae90600285016000526020600020600584808701821c83019360208810610bb4575b01901c0190611fdc565b8461099d565b93508293610ba4565b6000936108dd565b610be3610bdb6080516101605161018051612061565b354210611f33565b610854565b60405162461bcd60e51b815260206004820152602e60248201527f5634446973747269627574696f6e4d6f64756c653a206172726179206c656e6760448201526d0e8d0e640daeae6e840dac2e8c6d60931b6064820152608490fd5b5061016051610100511461078b565b506101a0516101005114610785565b5061014051610100511461077f565b346101425760208060031936011261014257610c8b611ace565b60ff606a541615610eb8576001600160a01b0381811660008181526067602052604090205490929190610cbf901515611cab565b82600052606884526040600020600381019160ff83541615610e5c5760048201544210610e0157606554600192909201805460405163a9059cbb60e01b8982019081526001600160a01b039790971660248201526044808201929092529081529094600093849316918390610d35606482611c43565b51925af13d15610dfc573d610d4981611c64565b90610d576040519283611c43565b81526000863d92013e5b15610da357805460ff19169055546040519081527fe7b379c6c1fa169e9079c25e9143b127637eef8ec8c9d5c06ddb4ab3e1195888908390a260405160018152f35b60405162461bcd60e51b815260048101859052602b60248201527f5634446973747269627574696f6e4d6f64756c653a20746f6b656e207472616e60448201526a1cd9995c8819985a5b195960aa1b6064820152608490fd5b610d61565b60405162461bcd60e51b815260048101879052602d60248201527f5634446973747269627574696f6e4d6f64756c653a20746f6b656e732061726560448201526c081cdd1a5b1b081b1bd8dad959609a1b6064820152608490fd5b60405162461bcd60e51b815260048101879052602e60248201527f5634446973747269627574696f6e4d6f64756c653a20616c6c6f636174696f6e60448201526d081a5cc81b9bdd081b1bd8dad95960921b6064820152608490fd5b60405162461bcd60e51b815260048101839052603360248201527f5634446973747269627574696f6e4d6f64756c653a20646973747269627574696044820152721bdb881b9bdd081e595d08195e1958dd5d1959606a1b6064820152608490fd5b34610142576020366003190112610142576020610f34611ace565b610f3c612167565b610f4b60ff606a541615611d90565b6001600160a01b0316600081815260676020526040902054610f6e901515611cab565b8060005260688252610f8a600160406000200154606954612054565b6069558060005260688252600060046040822082815582600182015560028101610fb48154611d15565b9081610ffe575b50508260038201550155610fce81612321565b50604051907f85f179d4205edd87e18c80df3160316df70c87a3c515d0650c32dae6ead80afd600080a260018152f35b81601f8693116001146110155750555b8580610fbb565b908083918252611033601f8a8420940160051c840160018501611fdc565b555561100e565b346101425760203660031901126101425760043563ffffffff60e01b8116809103610142576020906310c5833960e31b8114908115611112575b8115611101575b81156110f0575b81156110df575b81156110ce575b81156110ba575b81156110a9575b506040519015158152f35b63196cff2960e31b1490508261109e565b6001623c4bbb60e21b031981149150611097565b630e02292360e01b81149150611090565b630e5007b160e11b81149150611089565b6302a292d360e61b81149150611082565b63062c0ab760e51b8114915061107b565b63198d7d9960e31b81149150611074565b346101425761113136611ba1565b9061113d959295612167565b61114c60ff606a541615611d90565b6001600160a01b038316600090815260676020526040902054611170901515611cab565b8061117c861515611e60565b6113fd575b6111b0856111ab60695460018060a01b038716600052606860205260016040600020015490612054565b611ff3565b60695580156113f55781955b604051966111c988611c28565b6001600160a01b038516885260208801878152906111e8368489611fa5565b9060408a0191825284151560608b015260808a015260018060a01b038616600052606860205260406000209160018060a01b038a51166001600160601b0360a01b845416178355516001830155519788516001600160401b03811161012c576112546002840154611d15565b601f81116113b5575b506020601f8211600114611318576112ff96959493926112bc836004946080947fa3c835fcd4d2b819d5e8f590f6b36f796e7b73652831d08cfca45f22a6d43b7b9e9f60009261130d5750508160011b916000199060031b1c19161790565b60028501555b6112e160608201511515600386019060ff801983541691151516179055565b01519101556040516001600160a01b03909516979495869586612016565b0390a2602060405160018152f35b015190508f806109b9565b6002840160005260206000209a60005b601f198416811061139d5750926001837fa3c835fcd4d2b819d5e8f590f6b36f796e7b73652831d08cfca45f22a6d43b7b9c9d6080946112ff9b9a999897600497601f19811610611384575b505050811b0160028501556112c2565b015160001960f88460031b161c191690558e8080611374565b828201518d556001909c019b60209283019201611328565b6113e590600285016000526020600020601f840160051c810191602085106113eb575b601f0160051c0190611fdc565b8a61125d565b90915081906113d8565b6000956111bc565b611408428311611f33565b611181565b34610142576000366003190112610142576033546040516001600160a01b039091168152602090f35b346101425761144436611ba1565b9061145195929395612167565b61146060ff606a541615611d90565b6001600160a01b03936114768486161515611df8565b611481861515611e60565b8161149e61082f8787166000526067602052604060002054151590565b6116d2575b81156116ca5782965b604051976114b989611c28565b868616895260208901908882526114d1368585611fa5565b9060408b0191825285151560608c015260808b01528787166000526068602052604060002091888b51166001600160601b0360a01b845416178355516001830155519889516001600160401b03811161012c576115316002840154611d15565b601f8111611695575b5060209a601f82116001146115f9576112ff97969594939261159b836004947f3241139af5e2a8b260ac9c371bbcd5da66ac3ce01dfc401fb973a1f174a1bc079e9f6080956000926115ee5750508160011b916000199060031b1c19161790565b60028501555b6115c060608201511515600386019060ff801983541691151516179055565b01519101556115d087871661229f565b506115dd89606954611ff3565b606955604051968796169886612016565b0151905038806109b9565b601f198216906002850160005260206000209160005b81811061167d5750836080937f3241139af5e2a8b260ac9c371bbcd5da66ac3ce01dfc401fb973a1f174a1bc079e9f6112ff9c9b9a9998979460049760019510611664575b505050811b0160028501556115a1565b015160001960f88460031b161c191690558f8080611654565b828f0151845560209e8f019e6001909401930161160f565b6116c490600285016000526020600020601f840160051c810191602085106113eb57601f0160051c0190611fdc565b8b61153a565b6000966114ac565b6116dd428411611f33565b6114a3565b34610142576000366003190112610142576116fb612167565b603380546001600160a01b031981169091556000906001600160a01b03167f8be0079c531659141344cd1fd0a4f28419497f9722a3daafe3b4186f6b6457e08280a3005b34610142576000366003190112610142576065546040516001600160a01b039091168152602090f35b346101425760003660031901126101425760665461178581611d4f565b6117926040519182611c43565b81815261179e82611d4f565b60209290601f19018360005b8281106119405750600084845b80831061181c57604080518581528351818701819052600092600582901b830181019186890191899085015b8287106117f05785850386f35b90919293828061180c600193603f198a82030186528851611b2c565b96019201960195929190926117e3565b61182583612268565b939060018060a01b03809154600396871b1c166000526068865260406000206040519161185183611c28565b81541682526001808201548884015260028201886040519260009280549061187882611d15565b8087529183811690811561191c57506001146118df575b505050506001959697826118aa6004959460ff940382611c43565b60408601528201541615156060840152015460808201526118cb8286611d66565b526118d68185611d66565b500191906117b7565b909192935060005282600020916000925b8284106119095750505082010188826118aa600461188f565b80548685018601529284019281016118f0565b60ff1916858801525050151560051b84019091019150899050826118aa600461188f565b611948611c7f565b8282870101520184906117aa565b346101425760208060031936011261014257611970611ace565b611978611c7f565b506001600160a01b0390811660008181526067602052604090205461199e901515611cab565b60005260688252604060002091604051916119b883611c28565b835416825260019260018101548284015260028101604051906000958154916119e083611d15565b8085529260018116908115611a745750600114611a3a575b505050611a0b8160049495960382611c43565b604085015260ff6003820154161515606085015201546080830152610128604051928284938452830190611b2c565b60009081528581209097505b828810611a6157505050938401820193611a0b8160046119f8565b8054848901870152968501968101611a46565b60ff191685880152505050151560051b810183019450611a0b8160046119f8565b3461014257600036600319011261014257807f6e4379ad5abe51b1f38d7c717558b084ca50f05c182778be47e8aa04793cfe2d60209252f35b600435906001600160a01b038216820361014257565b60005b838110611af75750506000910152565b8181015183820152602001611ae7565b90602091611b2081518092818552858086019101611ae4565b601f01601f1916010190565b9060018060a01b03825116815260208201516020820152608080611b5f604085015160a0604086015260a0850190611b07565b93606081015115156060850152015191015290565b9181601f84011215610142578235916001600160401b038311610142576020838186019501011161014257565b60a0600319820112610142576004356001600160a01b0381168103610142579160243591604435906001600160401b03821161014257611be391600401611b74565b90916064358015158103610142579060843590565b9181601f84011215610142578235916001600160401b038311610142576020808501948460051b01011161014257565b60a081019081106001600160401b0382111761012c57604052565b90601f801991011681019081106001600160401b0382111761012c57604052565b6001600160401b03811161012c57601f01601f191660200190565b60405190611c8c82611c28565b6000608083828152826020820152606060408201528260608201520152565b15611cb257565b60405162461bcd60e51b815260206004820152603560248201527f5634446973747269627574696f6e4d6f64756c653a2077616c6c657420646f6560448201527439903737ba103430bb329030b63637b1b0ba34b7b760591b6064820152608490fd5b90600182811c92168015611d45575b6020831014611d2f57565b634e487b7160e01b600052602260045260246000fd5b91607f1691611d24565b6001600160401b03811161012c5760051b60200190565b8051821015611d7a5760209160051b010190565b634e487b7160e01b600052603260045260246000fd5b15611d9757565b60405162461bcd60e51b815260206004820152603360248201527f5634446973747269627574696f6e4d6f64756c653a20646973747269627574696044820152721bdb88185b1c9958591e48195e1958dd5d1959606a1b6064820152608490fd5b15611dff57565b60405162461bcd60e51b815260206004820152603360248201527f5634446973747269627574696f6e4d6f64756c653a2077616c6c65742063616e6044820152726e6f74206265207a65726f206164647265737360681b6064820152608490fd5b15611e6757565b60405162461bcd60e51b815260206004820152603660248201527f5634446973747269627574696f6e4d6f64756c653a20616d6f756e74206d7573604482015275742062652067726561746572207468616e207a65726f60501b6064820152608490fd5b15611ed257565b60405162461bcd60e51b815260206004820152603360248201527f5634446973747269627574696f6e4d6f64756c653a2077616c6c657420616c7260448201527232b0b23c903430b99030b63637b1b0ba34b7b760691b6064820152608490fd5b15611f3a57565b60405162461bcd60e51b815260206004820152603760248201527f5634446973747269627574696f6e4d6f64756c653a20756e6c6f636b2074696d60448201527f65206d75737420626520696e20746865206675747572650000000000000000006064820152608490fd5b929192611fb182611c64565b91611fbf6040519384611c43565b829481845281830111610142578281602093846000960137010152565b818110611fe7575050565b60008155600101611fdc565b9190820180921161200057565b634e487b7160e01b600052601160045260246000fd5b91928060609460a09398979698855260806020860152816080860152838501376000828285010152601f801991011682010194151560408201520152565b9190820391821161200057565b9190811015611d7a5760051b0190565b356001600160a01b03811681036101425790565b3580151581036101425790565b9190811015611d7a5760051b81013590601e19813603018212156101425701908135916001600160401b038311610142576020018236038113610142579190565b9190604083820312610142578251801515810361014257926020810151906001600160401b038211610142570181601f8201121561014257805161211681611c64565b926121246040519485611c43565b81845260208284010111610142576121429160208085019101611ae4565b90565b6001600160a01b03909116815260406020820181905261214292910190611b07565b6033546001600160a01b0316330361217b57565b606460405162461bcd60e51b815260206004820152602060248201527f4f776e61626c653a2063616c6c6572206973206e6f7420746865206f776e65726044820152fd5b603380546001600160a01b039283166001600160a01b0319821681179092559091167f8be0079c531659141344cd1fd0a4f28419497f9722a3daafe3b4186f6b6457e0600080a3565b1561220f57565b60405162461bcd60e51b815260206004820152602b60248201527f496e697469616c697a61626c653a20636f6e7472616374206973206e6f74206960448201526a6e697469616c697a696e6760a81b6064820152608490fd5b606654811015611d7a5760666000527f46501879b8ca8525e8c2fd519e2fbfcfa2ebea26501294aa02cbfcfb12e943540190600090565b60008181526067602052604081205461231c57606654680100000000000000008110156123085790826122f46122dd84600160409601606655612268565b819391549060031b91821b91600019901b19161790565b905560665492815260676020522055600190565b634e487b7160e01b82526041600452602482fd5b905090565b600081815260676020526040812054909190801561240657600019908082018181116123f257606654908382019182116123de578082036123aa575b50505060665480156123965781019061237582612268565b909182549160031b1b19169055606655815260676020526040812055600190565b634e487b7160e01b84526031600452602484fd5b6123c86123b96122dd93612268565b90549060031b1c928392612268565b905584526067602052604084205538808061235d565b634e487b7160e01b86526011600452602486fd5b634e487b7160e01b85526011600452602485fd5b50509056fea26469706673582212209fb21abd03cb4cdd256504bf010c90ab8f284cdcf1e646747c45edb882b321e364736f6c63430008160033",
  "linkReferences": {},
  "deployedLinkReferences": {}
}