{
  "_format": "hh-sol-artifact-1",
  "contractName": "TokenFactory_v3_Updated",
  "sourceName": "contracts/TokenFactory_v3_Updated.sol",
  "abi": [
    {
      "inputs": [
        {
          "internalType": "address",
          "name": "_router",
          "type": "address"
        }
      ],
      "stateMutability": "nonpayable",
      "type": "constructor"
    },
    {
      "anonymous": false,
      "inputs": [
        {
          "indexed": false,
          "internalType": "uint256",
          "name": "oldFee",
          "type": "uint256"
        },
        {
          "indexed": false,
          "internalType": "uint256",
          "name": "newFee",
          "type": "uint256"
        },
        {
          "indexed": true,
          "internalType": "address",
          "name": "admin",
          "type": "address"
        }
      ],
      "name": "DeploymentFeeUpdated",
      "type": "event"
    },
    {
      "anonymous": false,
      "inputs": [
        {
          "indexed": true,
          "internalType": "address",
          "name": "admin",
          "type": "address"
        },
        {
          "indexed": false,
          "internalType": "uint256",
          "name": "amount",
          "type": "uint256"
        },
        {
          "indexed": false,
          "internalType": "uint256",
          "name": "timestamp",
          "type": "uint256"
        }
      ],
      "name": "EmergencyWithdraw",
      "type": "event"
    },
    {
      "anonymous": false,
      "inputs": [
        {
          "indexed": true,
          "internalType": "address",
          "name": "previousOwner",
          "type": "address"
        },
        {
          "indexed": true,
          "internalType": "address",
          "name": "newOwner",
          "type": "address"
        }
      ],
      "name": "OwnershipTransferred",
      "type": "event"
    },
    {
      "anonymous": false,
      "inputs": [
        {
          "indexed": false,
          "internalType": "address",
          "name": "account",
          "type": "address"
        }
      ],
      "name": "Paused",
      "type": "event"
    },
    {
      "anonymous": false,
      "inputs": [
        {
          "indexed": true,
          "internalType": "address",
          "name": "creator",
          "type": "address"
        },
        {
          "indexed": true,
          "internalType": "address",
          "name": "tokenAddress",
          "type": "address"
        },
        {
          "indexed": false,
          "internalType": "string",
          "name": "name",
          "type": "string"
        },
        {
          "indexed": false,
          "internalType": "string",
          "name": "symbol",
          "type": "string"
        },
        {
          "indexed": false,
          "internalType": "uint256",
          "name": "initialSupply",
          "type": "uint256"
        },
        {
          "indexed": false,
          "internalType": "uint256",
          "name": "maxSupply",
          "type": "uint256"
        },
        {
          "indexed": false,
          "internalType": "bool",
          "name": "presaleEnabled",
          "type": "bool"
        }
      ],
      "name": "TokenCreated",
      "type": "event"
    },
    {
      "anonymous": false,
      "inputs": [
        {
          "indexed": false,
          "internalType": "address",
          "name": "account",
          "type": "address"
        }
      ],
      "name": "Unpaused",
      "type": "event"
    },
    {
      "anonymous": false,
      "inputs": [
        {
          "indexed": true,
          "internalType": "address",
          "name": "wallet",
          "type": "address"
        },
        {
          "indexed": false,
          "internalType": "uint256",
          "name": "percentage",
          "type": "uint256"
        },
        {
          "indexed": false,
          "internalType": "bool",
          "name": "vestingEnabled",
          "type": "bool"
        }
      ],
      "name": "VestingSetup",
      "type": "event"
    },
    {
      "inputs": [],
      "name": "VERSION",
      "outputs": [
        {
          "internalType": "uint256",
          "name": "",
          "type": "uint256"
        }
      ],
      "stateMutability": "view",
      "type": "function"
    },
    {
      "inputs": [
        {
          "internalType": "address",
          "name": "tokenAddress",
          "type": "address"
        }
      ],
      "name": "addLiquidityToToken",
      "outputs": [],
      "stateMutability": "payable",
      "type": "function"
    },
    {
      "inputs": [
        {
          "components": [
            {
              "internalType": "string",
              "name": "name",
              "type": "string"
            },
            {
              "internalType": "string",
              "name": "symbol",
              "type": "string"
            },
            {
              "internalType": "uint256",
              "name": "initialSupply",
              "type": "uint256"
            },
            {
              "internalType": "uint256",
              "name": "maxSupply",
              "type": "uint256"
            },
            {
              "internalType": "address",
              "name": "owner",
              "type": "address"
            },
            {
              "internalType": "bool",
              "name": "enableBlacklist",
              "type": "bool"
            },
            {
              "internalType": "bool",
              "name": "enableTimeLock",
              "type": "bool"
            },
            {
              "internalType": "uint256",
              "name": "presaleRate",
              "type": "uint256"
            },
            {
              "internalType": "uint256",
              "name": "softCap",
              "type": "uint256"
            },
            {
              "internalType": "uint256",
              "name": "hardCap",
              "type": "uint256"
            },
            {
              "internalType": "uint256",
              "name": "minContribution",
              "type": "uint256"
            },
            {
              "internalType": "uint256",
              "name": "maxContribution",
              "type": "uint256"
            },
            {
              "internalType": "uint256",
              "name": "startTime",
              "type": "uint256"
            },
            {
              "internalType": "uint256",
              "name": "endTime",
              "type": "uint256"
            },
            {
              "internalType": "uint256",
              "name": "presalePercentage",
              "type": "uint256"
            },
            {
              "internalType": "uint256",
              "name": "liquidityPercentage",
              "type": "uint256"
            },
            {
              "internalType": "uint256",
              "name": "liquidityLockDuration",
              "type": "uint256"
            },
            {
              "components": [
                {
                  "internalType": "address",
                  "name": "wallet",
                  "type": "address"
                },
                {
                  "internalType": "uint256",
                  "name": "percentage",
                  "type": "uint256"
                },
                {
                  "internalType": "bool",
                  "name": "vestingEnabled",
                  "type": "bool"
                },
                {
                  "internalType": "uint256",
                  "name": "vestingDuration",
                  "type": "uint256"
                },
                {
                  "internalType": "uint256",
                  "name": "cliffDuration",
                  "type": "uint256"
                },
                {
                  "internalType": "uint256",
                  "name": "vestingStartTime",
                  "type": "uint256"
                }
              ],
              "internalType": "struct ITokenTypes.WalletAllocation[]",
              "name": "walletAllocations",
              "type": "tuple[]"
            },
            {
              "internalType": "uint256",
              "name": "maxActivePresales",
              "type": "uint256"
            },
            {
              "internalType": "bool",
              "name": "presaleEnabled",
              "type": "bool"
            }
          ],
          "internalType": "struct TokenFactory_v3_Updated.TokenParams",
          "name": "params",
          "type": "tuple"
        }
      ],
      "name": "createToken",
      "outputs": [
        {
          "internalType": "address",
          "name": "",
          "type": "address"
        }
      ],
      "stateMutability": "payable",
      "type": "function"
    },
    {
      "inputs": [],
      "name": "deploymentFee",
      "outputs": [
        {
          "internalType": "uint256",
          "name": "",
          "type": "uint256"
        }
      ],
      "stateMutability": "view",
      "type": "function"
    },
    {
      "inputs": [],
      "name": "emergencyWithdraw",
      "outputs": [],
      "stateMutability": "nonpayable",
      "type": "function"
    },
    {
      "inputs": [
        {
          "internalType": "address",
          "name": "user",
          "type": "address"
        }
      ],
      "name": "getTokenCount",
      "outputs": [
        {
          "internalType": "uint256",
          "name": "",
          "type": "uint256"
        }
      ],
      "stateMutability": "view",
      "type": "function"
    },
    {
      "inputs": [
        {
          "internalType": "address",
          "name": "user",
          "type": "address"
        }
      ],
      "name": "getUserTokens",
      "outputs": [
        {
          "internalType": "address[]",
          "name": "",
          "type": "address[]"
        }
      ],
      "stateMutability": "view",
      "type": "function"
    },
    {
      "inputs": [],
      "name": "owner",
      "outputs": [
        {
          "internalType": "address",
          "name": "",
          "type": "address"
        }
      ],
      "stateMutability": "view",
      "type": "function"
    },
    {
      "inputs": [],
      "name": "pause",
      "outputs": [],
      "stateMutability": "nonpayable",
      "type": "function"
    },
    {
      "inputs": [],
      "name": "paused",
      "outputs": [
        {
          "internalType": "bool",
          "name": "",
          "type": "bool"
        }
      ],
      "stateMutability": "view",
      "type": "function"
    },
    {
      "inputs": [],
      "name": "renounceOwnership",
      "outputs": [],
      "stateMutability": "nonpayable",
      "type": "function"
    },
    {
      "inputs": [],
      "name": "routerAddress",
      "outputs": [
        {
          "internalType": "address",
          "name": "",
          "type": "address"
        }
      ],
      "stateMutability": "view",
      "type": "function"
    },
    {
      "inputs": [
        {
          "internalType": "uint256",
          "name": "newFee",
          "type": "uint256"
        }
      ],
      "name": "setDeploymentFee",
      "outputs": [],
      "stateMutability": "nonpayable",
      "type": "function"
    },
    {
      "inputs": [],
      "name": "totalTokensCreated",
      "outputs": [
        {
          "internalType": "uint256",
          "name": "",
          "type": "uint256"
        }
      ],
      "stateMutability": "view",
      "type": "function"
    },
    {
      "inputs": [
        {
          "internalType": "address",
          "name": "newOwner",
          "type": "address"
        }
      ],
      "name": "transferOwnership",
      "outputs": [],
      "stateMutability": "nonpayable",
      "type": "function"
    },
    {
      "inputs": [],
      "name": "unpause",
      "outputs": [],
      "stateMutability": "nonpayable",
      "type": "function"
    },
    {
      "inputs": [
        {
          "internalType": "address",
          "name": "",
          "type": "address"
        }
      ],
      "name": "userTokenCount",
      "outputs": [
        {
          "internalType": "uint256",
          "name": "",
          "type": "uint256"
        }
      ],
      "stateMutability": "view",
      "type": "function"
    },
    {
      "inputs": [
        {
          "internalType": "address",
          "name": "",
          "type": "address"
        },
        {
          "internalType": "uint256",
          "name": "",
          "type": "uint256"
        }
      ],
      "name": "userTokens",
      "outputs": [
        {
          "internalType": "address",
          "name": "",
          "type": "address"
        }
      ],
      "stateMutability": "view",
      "type": "function"
    },
    {
      "stateMutability": "payable",
      "type": "receive"
    }
  ],
  "bytecode": "0x60803461013c57601f614f4638819003918201601f19168301916001600160401b038311848410176101415780849260209460405283398101031261013c57516001600160a01b03908181169081900361013c576000549060018060a01b0319913383821617600055604051933391167f8be0079c531659141344cd1fd0a4f28419497f9722a3daafe3b4186f6b6457e0600080a36001805560025466038d7ea4c6800060035560ff19169181156100fa57600193506007541617600755176002557f62e78cea01bee320cd4e420270b5ea74000d11b0c9f74754ebdbfc544b05a2586020604051338152a1604051614dee90816101588239f35b62461bcd60e51b845260206004850152601660248501527f496e76616c696420726f757465722061646472657373000000000000000000006044850152606484fd5b600080fd5b634e487b7160e01b600052604160045260246000fdfe60808060405260043610156200001f575b5036156200001d57600080fd5b005b600090813560e01c9081633268cc561462001922575080633f4ba83a1462001888578063519dc8d214620017cf5780635c975abb14620017aa57806362acbf4b14620006ac578063715018a6146200064e57806376727fa3146200027457806379a107f5146200052b5780638456cb5914620004ca5780638da5cb5b14620004a1578063abb2b6821462000481578063d002462b14620003e6578063db2e21bc14620002b1578063dc0274381462000274578063f2cff57f1462000254578063f2fde38b1462000182578063f9f411d814620001205763ffa1ad74036200001057346200011d57806003193601126200011d57602060405160038152f35b80fd5b50346200011d5760403660031901126200011d576200013e62001949565b6001600160a01b039081168252600660205260408220805460243593908410156200011d5750602092620001729162001965565b9190546040519260031b1c168152f35b50346200011d5760203660031901126200011d57620001a062001949565b620001aa62001b33565b6001600160a01b039081169081156200020057600054826bffffffffffffffffffffffff60a01b821617600055167f8be0079c531659141344cd1fd0a4f28419497f9722a3daafe3b4186f6b6457e0600080a380f35b60405162461bcd60e51b815260206004820152602660248201527f4f776e61626c653a206e6577206f776e657220697320746865207a65726f206160448201526564647265737360d01b6064820152608490fd5b50346200011d57806003193601126200011d576020600354604051908152f35b50346200011d5760203660031901126200011d576020906040906001600160a01b03620002a062001949565b168152600583522054604051908152f35b50346200011d57806003193601126200011d57620002ce62001b33565b478015620003a8578180808084335af13d15620003a2573d67ffffffffffffffff81116200038e576040519062000310601f8201601f191660200183620019dc565b81528360203d92013e5b1562000355576040519081524260208201527fbb757047c2b5f3974fe26b7c10f732e7bce710b0952a71082702781e62ae059560403392a280f35b60405162461bcd60e51b815260206004820152601160248201527015da5d1a191c985dd85b0819985a5b1959607a1b6044820152606490fd5b634e487b7160e01b84526041600452602484fd5b6200031a565b60405162461bcd60e51b81526020600482015260166024820152754e6f2062616c616e636520746f20776974686472617760501b6044820152606490fd5b50346200011d5760203660031901126200011d576004356200040762001b33565b80156200044a57600354908060035560405191825260208201527f5fef22877ec39cf41fc0da2ffe7d5cbec5e4cfef13a588fbe364005da02d87c560403392a280f35b60405162461bcd60e51b815260206004820152600f60248201526e0466565206d757374206265203e203608c1b6044820152606490fd5b50346200011d57806003193601126200011d576020600454604051908152f35b50346200011d57806003193601126200011d57546040516001600160a01b039091168152602090f35b50346200011d57806003193601126200011d57620004e762001b33565b620004f162001be3565b600160ff1960025416176002557f62e78cea01bee320cd4e420270b5ea74000d11b0c9f74754ebdbfc544b05a2586020604051338152a180f35b5060203660031901126200011d576200054362001949565b6200054d62001b8c565b6200055762001be3565b6001600160a01b0316801562000611573415620005cc578082913b15620005c957816004916040519283809263ffcab31160e01b825234905af18015620005be57620005a6575b506001805580f35b620005b190620019c7565b6200011d5780386200059e565b6040513d84823e3d90fd5b50fd5b60405162461bcd60e51b815260206004820152601b60248201527f4d7573742073656e642045544820666f72206c697175696469747900000000006044820152606490fd5b60405162461bcd60e51b8152602060048201526015602482015274496e76616c696420746f6b656e206164647265737360581b6044820152606490fd5b50346200011d57806003193601126200011d576200066b62001b33565b600080546001600160a01b0319811682556001600160a01b03167f8be0079c531659141344cd1fd0a4f28419497f9722a3daafe3b4186f6b6457e08280a380f35b5060031960203682011262000cdd5767ffffffffffffffff6004351162000cdd5761028090600435360301126200011d57620006e762001b8c565b620006f162001be3565b600354341062001765576200070b600480350180620019ff565b905015620017305762000729602460043501600435600401620019ff565b905015620016f9576044600435013515620016b45760446004350135606460043501351062001663576001600160a01b036200076a60043560840162001a35565b16156200162657620007826102646004350162001a4a565b15620015635760056101c46004350135036200151e5760e4600435013515620014d95761010460043501358015159081620014c7575b501562001493576101446004350135801515908162001481575b50156200143c57610184600435013542811190816200142a575b5015620013ed5761024460043501351562001382575b806200081a6102246004350160043560040162001a58565b1515905062000eb457506040519081604081011067ffffffffffffffff60408401111762000cb1576040820160405260018252805b6020811062000e765750816200086a60846004350162001a35565b6101c46004350135806064036064811162000e62576101e4600435013582016064031162000e4e5791620009829160649360405191620008aa8362001994565b60018060a01b031682526101e4600435013501840360208201528460408201528460608201528460808201528460a0820152620008e78262001abb565b52620008f38162001abb565b506020620009018262001abb565b510151907f617f3de0292d24c1cc81ea5a9791d50c682ef9caa56c1d5d431e01f22d99868a60406020620009456200093e60846004350162001a35565b9462001abb565b5101518151908152602081018890526001600160a01b0390931692a25b6200097c6101e460043501356101c4600435013562001ade565b62001ade565b0362000e095762000998600480350180620019ff565b620009b1602460049593953501600435600401620019ff565b9094620009c360846004350162001a35565b91620009d460a46004350162001a4a565b620009e460c46004350162001a4a565b91620009f66102646004350162001a4a565b93604051968761319081011067ffffffffffffffff6131908a01111762000df5579162000a4288999a9b9262000a599461319062001c298c396101206131908c01818152019162001b02565b916131908901830360206131908b01015262001b02565b600435604481013561319088016040810191909152606482013560608201526001600160a01b03909616608087015291151560a086015291151560c085015291151560e08401526102449091013561010090920191909152039083f0908115620005be5762000ace6102646004350162001a4a565b62000d3e575b6001600160a01b0382163b1562000d3a578290604051906389877c7f60e01b8252608482016101c4600435013560048401526101e46004350135602484015261020460043501356044840152608060648401528151809152602060a48401920190845b81811062000ce157508492849250829003905081836001600160a01b0388165af18015620005be5762000cc5575b505033825260056020526040822062000b7f815462001b23565b90553382526006602052604082208054926801000000000000000084101562000cb157508262000bb791600160209501815562001965565b81546001600160a01b0384811660039390931b92831b921b191617905560045462000be29062001b23565b600490815562000bf69080350180620019ff565b9062000c4862000c11602460043501600435600401620019ff565b62000c3a62000c266102646004350162001a4a565b946040519660a0885260a088019162001b02565b918583038887015262001b02565b6004356044810135604085015260640135606084015290151560808301526001600160a01b0383169133917fb379cea1460f8b6977b0b4e66df53c4ed102439ac2a67c644660f66981e21e8d919081900390a3600180556040516001600160a01b039091168152f35b634e487b7160e01b81526041600452602490fd5b62000cd090620019c7565b62000cdd57813862000b65565b5080fd5b9193945091602060c060019260a087518580831b03815116835284810151858401526040810151151560408401526060810151606084015260808101516080840152015160a08201520194019101918694939262000b37565b8280fd5b6001600160a01b0382163b1562000d3a57604051630bb9463560e01b81526004803560e48181013592840192909252610104810135602484015261012481013560448401526101448101356064840152610164810135608484015261018481013560a48401526101a4013560c48301528490829081836001600160a01b0388165af1801562000dea5762000dd4575b5062000ad4565b62000de290939193620019c7565b913862000dcd565b6040513d86823e3d90fd5b634e487b7160e01b8a52604160045260248afd5b60405162461bcd60e51b815260206004820152601d60248201527f546f74616c20616c6c6f636174696f6e206d75737420626520313030250000006044820152606490fd5b634e487b7160e01b84526011600452602484fd5b634e487b7160e01b85526011600452602485fd5b60209060405162000e878162001994565b83815283838201528360408201528360608201528360808201528360a0820152828286010152016200084f565b62000ecb6102246004350160043560040162001a58565b92905062000ed98362001a91565b9262000ee96040519485620019dc565b80845262000efa601f199162001a91565b01815b81811062001344575050829181905b62000f236102246004350160043560040162001a58565b905082101562001332578162000f6362000f5d62000f4d6102246004350160043560040162001a58565b6001600160a01b03949162001aaa565b62001a35565b1615620012f457602062000f8f8362000f886102246004350160043560040162001a58565b9062001aaa565b013515620012af5762000fb38262000f886102246004350160043560040162001a58565b60c081360312620012ab576040519062000fcd8262001994565b80356001600160a01b0381169003620012a757803582526020808201359083015260408101358015159003620012a7579060a08260406200106c9594013560408401526060810135606084015260808101356080840152013560a082015262001037848862001ac9565b5262001044838762001ac9565b506020620010638462000f886102246004350160043560040162001a58565b01359062001ade565b906200109660406200108f8362000f886102246004350160043560040162001a58565b0162001a4a565b15620011f0576060620010ba8262000f886102246004350160043560040162001a58565b013515620011ab5760a0620010e08262000f886102246004350160043560040162001a58565b01354210156200116e57806200110d62000f5d60019362000f886102246004350160043560040162001a58565b7f617f3de0292d24c1cc81ea5a9791d50c682ef9caa56c1d5d431e01f22d99868a604060206200114e8562000f886102246004350160043560040162001a58565b0135928151938452856020850152858060a01b031692a25b019062000f0c565b60405162461bcd60e51b8152602060048201526015602482015274125b9d985b1a59081d995cdd1a5b99c81cdd185c9d605a1b6044820152606490fd5b60405162461bcd60e51b815260206004820152601860248201527f496e76616c69642076657374696e67206475726174696f6e00000000000000006044820152606490fd5b80836060620012026001948962001ac9565b51015283608062001214838962001ac9565b5101528360a062001226838962001ac9565b5101526200124962000f5d8262000f886102246004350160043560040162001a58565b7f617f3de0292d24c1cc81ea5a9791d50c682ef9caa56c1d5d431e01f22d99868a604060206200128a8562000f886102246004350160043560040162001a58565b0135928151938452876020850152858060a01b031692a262001166565b8480fd5b8380fd5b60405162461bcd60e51b815260206004820152601d60248201527f57616c6c65742070657263656e74616765206d757374206265203e20300000006044820152606490fd5b60405162461bcd60e51b8152602060048201526016602482015275496e76616c69642077616c6c6574206164647265737360501b6044820152606490fd5b60649293945062000982915062000962565b602090604051620013558162001994565b84815284838201528460408201528460608201528460808201528460a08201528282880101520162000efd565b60405162461bcd60e51b815260206004820152603760248201527f4d6178206163746976652070726573616c6573206d757374206265203e20302060448201527f7768656e2070726573616c6520697320656e61626c65640000000000000000006064820152608490fd5b60405162461bcd60e51b8152602060048201526015602482015274496e76616c69642070726573616c652074696d657360581b6044820152606490fd5b90506101a460043501351138620007ec565b60405162461bcd60e51b815260206004820152601b60248201527f496e76616c696420636f6e747269627574696f6e206c696d69747300000000006044820152606490fd5b905061016460043501351138620007d2565b60405162461bcd60e51b815260206004820152600c60248201526b496e76616c6964206361707360a01b6044820152606490fd5b905061012460043501351138620007b8565b60405162461bcd60e51b815260206004820152601860248201527f50726573616c652072617465206d757374206265203e203000000000000000006044820152606490fd5b60405162461bcd60e51b815260206004820152601f60248201527f50726573616c65206d757374206265203525207768656e20656e61626c6564006044820152606490fd5b6101c46004350135620015e257610244600435013515620008025760405162461bcd60e51b815260206004820152603660248201527f4d6178206163746976652070726573616c6573206d7573742062652030207768604482015275195b881c1c995cd85b19481a5cc8191a5cd8589b195960521b6064820152608490fd5b606460405162461bcd60e51b815260206004820152602060248201527f50726573616c65206d757374206265203025207768656e2064697361626c65646044820152fd5b60405162461bcd60e51b8152602060048201526015602482015274496e76616c6964206f776e6572206164647265737360581b6044820152606490fd5b60405162461bcd60e51b8152602060048201526024808201527f4d617820737570706c79206d757374206265203e3d20696e697469616c20737560448201526370706c7960e01b6064820152608490fd5b60405162461bcd60e51b815260206004820152601a60248201527f496e697469616c20737570706c79206d757374206265203e20300000000000006044820152606490fd5b60405162461bcd60e51b815260206004820152600f60248201526e14de5b589bdb081c995c5d5a5c9959608a1b6044820152606490fd5b60405162461bcd60e51b815260206004820152600d60248201526c13985b59481c995c5d5a5c9959609a1b6044820152606490fd5b60405162461bcd60e51b815260206004820152601b60248201527f496e73756666696369656e74206465706c6f796d656e742066656500000000006044820152606490fd5b50346200011d57806003193601126200011d57602060ff600254166040519015158152f35b50346200011d57602090816003193601126200011d576001600160a01b03919082620017fa62001949565b168152600682526040812090604051808484549182815201908194845285842090845b81811062001871575050508162001836910382620019dc565b6040519380850191818652518092526040850193925b8281106200185a5785850386f35b83518716855293810193928101926001016200184c565b82548916845292870192600192830192016200181d565b50346200011d57806003193601126200011d57620018a562001b33565b60025460ff811615620018e65760ff19166002557f5db9ee0a495bf2e6ff9c91a7834c1ba4fdd244a5e8aa4e537bd38aeae4b073aa6020604051338152a180f35b60405162461bcd60e51b815260206004820152601460248201527314185d5cd8589b194e881b9bdd081c185d5cd95960621b6044820152606490fd5b90503462000cdd578160031936011262000cdd576007546001600160a01b03168152602090f35b600435906001600160a01b03821682036200196057565b600080fd5b80548210156200197e5760005260206000200190600090565b634e487b7160e01b600052603260045260246000fd5b60c0810190811067ffffffffffffffff821117620019b157604052565b634e487b7160e01b600052604160045260246000fd5b67ffffffffffffffff8111620019b157604052565b90601f8019910116810190811067ffffffffffffffff821117620019b157604052565b903590601e198136030182121562001960570180359067ffffffffffffffff821162001960576020019181360383136200196057565b356001600160a01b0381168103620019605790565b358015158103620019605790565b903590601e198136030182121562001960570180359067ffffffffffffffff821162001960576020019160c08202360383136200196057565b67ffffffffffffffff8111620019b15760051b60200190565b91908110156200197e5760c0020190565b8051156200197e5760200190565b80518210156200197e5760209160051b010190565b9190820180921162001aec57565b634e487b7160e01b600052601160045260246000fd5b908060209392818452848401376000828201840152601f01601f1916010190565b600019811462001aec5760010190565b6000546001600160a01b0316330362001b4857565b606460405162461bcd60e51b815260206004820152602060248201527f4f776e61626c653a2063616c6c6572206973206e6f7420746865206f776e65726044820152fd5b60026001541462001b9e576002600155565b60405162461bcd60e51b815260206004820152601f60248201527f5265656e7472616e637947756172643a207265656e7472616e742063616c6c006044820152606490fd5b60ff6002541662001bf057565b60405162461bcd60e51b815260206004820152601060248201526f14185d5cd8589b194e881c185d5cd95960821b6044820152606490fdfe60a0604090808252346200034c576200319080380380916200002282856200071c565b8339810190610120818303126200034c5780516001600160401b0381116200034c57826200005291830162000740565b602082015190926001600160401b0382116200034c576200007591830162000740565b83820151926060830151906200008e60808501620007b6565b936200009d60a08201620007cb565b620000ab60c08301620007cb565b94610100620000bd60e08501620007cb565b930151845190946001600160401b038211620005f25760035490600182811c9216801562000711575b6020831014620005d15781601f8493116200069f575b50602090601f8311600114620006145760009262000608575b50508160011b916000199060031b1c1916176003555b8051906001600160401b038211620005f257600454600181811c91168015620005e7575b6020821014620005d157601f811162000567575b50602090601f8311600114620004f05761ff00959493929160009183620004e4575b50508160011b916000199060031b1c1916176004555b60ff19948560055416600555620001b233620007d9565b600160065560075560085460ff96878093151516958691151560081b169161ffff1916171794856008556014541691151516176014556013553015620004a05782600554166200044957620003d5575b60081c166200037b575b600254918083018093116200036557620002699260025530600052600060205283600020818154019055835190815260007fddf252ad1be2c89b69c2b068fc378daa952ba7f163c4a11628f55a4df523b3ef60203093a3620007d9565b8051631934662b60e11b8152602081600481335afa9081156200035a5760009162000313575b506001600160a01b03168015620002cf576080525161295a90816200083682396080518181816102c7015281816115c001528181611e7c01526128250152f35b815162461bcd60e51b815260206004820152601660248201527f496e76616c696420726f757465722061646472657373000000000000000000006044820152606490fd5b90506020813d60201162000351575b8162000331602093836200071c565b810103126200034c576200034590620007b6565b386200028f565b600080fd5b3d915062000322565b82513d6000823e3d90fd5b634e487b7160e01b600052601160045260246000fd5b60008052601760205282600020544210156200020c57825162461bcd60e51b815260206004820152601660248201527f546f6b656e73206172652074696d652d6c6f636b6564000000000000000000006044820152606490fd5b60008052601660205281856000205416158062000436575b6200020257845162461bcd60e51b815260206004820152601660248201527f4164647265737320697320626c61636b6c6973746564000000000000000000006044820152606490fd5b50306000528185600020541615620003ed565b855162461bcd60e51b815260206004820152602a60248201527f45524332305061757361626c653a20746f6b656e207472616e736665722077686044820152691a5b19481c185d5cd95960b21b6064820152608490fd5b855162461bcd60e51b815260206004820152601f60248201527f45524332303a206d696e7420746f20746865207a65726f2061646472657373006044820152606490fd5b01519050388062000185565b90600460005260206000209160005b601f19851681106200054e575091839160019361ff0098979695601f1981161062000534575b505050811b016004556200019b565b015160001960f88460031b161c1916905538808062000525565b91926020600181928685015181550194019201620004ff565b60046000527f8a35acfbc15ff81a39ae7d344fd709f28e8600b4aa8c65c6b64bfe7fe36bd19b601f840160051c81019160208510620005c6575b601f0160051c01905b818110620005b9575062000163565b60008155600101620005aa565b9091508190620005a1565b634e487b7160e01b600052602260045260246000fd5b90607f16906200014f565b634e487b7160e01b600052604160045260246000fd5b01519050388062000115565b600360009081527fc2575a0e9e593c00f959f8c92f12db2869c3395a3b0502d05e2516446f71f85b9350601f198516905b8181106200068657509084600195949392106200066c575b505050811b016003556200012b565b015160001960f88460031b161c191690553880806200065d565b9293602060018192878601518155019501930162000645565b60036000529091507fc2575a0e9e593c00f959f8c92f12db2869c3395a3b0502d05e2516446f71f85b601f840160051c81016020851062000709575b90849392915b601f830160051c82018110620006f9575050620000fc565b60008155859450600101620006e1565b5080620006db565b91607f1691620000e6565b601f909101601f19168101906001600160401b03821190821017620005f257604052565b919080601f840112156200034c5782516001600160401b038111620005f257602090604051926200077b83601f19601f85011601856200071c565b8184528282870101116200034c5760005b818110620007a257508260009394955001015290565b85810183015184820184015282016200078c565b51906001600160a01b03821682036200034c57565b519081151582036200034c57565b60058054610100600160a81b03198116600884811b610100600160a81b0316919091179092556001600160a01b0392831692911c167f8be0079c531659141344cd1fd0a4f28419497f9722a3daafe3b4186f6b6457e0600080a356fe608060408181526004908136101561001657600080fd5b600092833560e01c908163048b87ba1461188a5750806306fdde0314611795578063095ea7b31461176b5780630bb94635146116e1578063143b237f146116bd578063153b0d1e146115ef5780631694505e146115ab57806318160ddd1461158c57806323b872dd1461154f578063313ce567146115335780633197cbb61461151457806339509351146114c45780633f4ba83a1461142e57806342966c681461141057806342f39381146113f157806349bd5a5e146113c85780634ae01d52146113a9578063569ea4fa1461114757806357376198146110475780635c975abb14611023578063644fab7414610f1b57806370a0823114610edf578063715018a614610e7e57806378e9792514610e5f57806379cc679014610e2f5780638456cb5914610d9b57806389877c7f14610c5e5780638bb1cde914610c335780638d3d657614610c145780638da5cb5b14610be7578063906a26e014610bc857806395d89b4114610ac2578063a457c2d714610a1b578063a9059cbb146109ea578063aaffadf3146109cb578063b8caa4aa146109ac578063bffb691d14610988578063cba4cbd314610961578063d5abeb0114610942578063dbed1e88146108f1578063dd62ed3e146108a8578063de8af79114610889578063e12f3a611461085c578063e74f3fbb14610682578063f2fde38b146105a9578063fb86a4041461058a578063fb897ce4146104ff578063fe575a87146104a55763ffcab3111461023f57600080fd5b826003193601126104a157610252612292565b341561045e573083526020908382528084205415610425573084528382528084205461027e348261281a565b6018546001600160a01b0390818116156102b9575b506000805160206128e5833981519152939450601854169382519182523490820152a280f35b835163c45a015560e01b81527f0000000000000000000000000000000000000000000000000000000000000000831686828981845afa9182156103fc57889188918b94610406575b5087516315ab88c960e31b8152998a9182905afa9788156103fc5791610361989188938b936103dd575b50875163e6a4390560e01b8152309181019182526001600160a01b03909316602082015291988992839187918391604090910190565b0392165afa9586156103d3576000805160206128e58339815191529596839189916103a6575b5016906bffffffffffffffffffffffff60a01b16176018558493610293565b6103c69150883d8a116103cc575b6103be8183611983565b810190611a81565b38610387565b503d6103b4565b84513d89823e3d90fd5b6103f5919350843d86116103cc576103be8183611983565b913861032b565b86513d8b823e3d90fd5b61041e919450823d84116103cc576103be8183611983565b9238610301565b5162461bcd60e51b8152918201526015602482015274139bc81d1bdad95b9cc81a5b8818dbdb9d1c9858dd605a1b604482015260649150fd5b906020606492519162461bcd60e51b8352820152601b60248201527f4d7573742073656e642045544820666f72206c697175696469747900000000006044820152fd5b8280fd5b8382346104fb5760203660031901126104fb57906020916104c46118ef565b9160ff6008541692836104dc575b5050519015158152f35b6001600160a01b03168152601684528190205460ff16915083806104d2565b5080fd5b5090346104a15760203660031901126104a15760a0926080919083906001600160a01b0361052b6118ef565b1681526015602052209083519361054185611951565b8254948581526001840154908160208201526002850154938484830152600386015495866060840152015495869101528151958652602086015284015260608301526080820152f35b8382346104fb57816003193601126104fb57602090600b549051908152f35b5090346104a15760203660031901126104a1576105c46118ef565b6105cc612292565b6001600160a01b0381811693909290841561063057505060058054610100600160a81b03198116600893841b610100600160a81b031617909155901c167f8be0079c531659141344cd1fd0a4f28419497f9722a3daafe3b4186f6b6457e08380a380f35b906020608492519162461bcd60e51b8352820152602660248201527f4f776e61626c653a206e6577206f776e657220697320746865207a65726f206160448201526564647265737360d01b6064820152fd5b50346104a157826003193601126104a1576002600654146108195760026006553383526015602052808320805480156107e05760028201546106c785840154826119a5565b42106107a4576106d790426120b6565b600383015490919080831061077e57506106f791506001830154906120b6565b925b831561073b575060010161070e8382546119a5565b905561071b823330612385565b5190815260008051602061290583398151915260203392a2600160065580f35b606490602084519162461bcd60e51b8352820152601c60248201527f4e6f20746f6b656e7320617661696c61626c6520746f20636c61696d000000006044820152fd5b61078e61079e9361079393611a3a565b611a4d565b6001830154906120b6565b926106f9565b835162461bcd60e51b8152602081870152601660248201527510db1a5999881c195c9a5bd9081b9bdd08195b99195960521b6044820152606490fd5b825162461bcd60e51b815260208186015260136024820152724e6f2076657374696e67207363686564756c6560681b6044820152606490fd5b906020606492519162461bcd60e51b8352820152601f60248201527f5265656e7472616e637947756172643a207265656e7472616e742063616c6c006044820152fd5b8382346104fb5760203660031901126104fb5760209061088261087d6118ef565b6120c3565b9051908152f35b8382346104fb57816003193601126104fb576020906010549051908152f35b8382346104fb57806003193601126104fb57806020926108c66118ef565b6108ce61190a565b6001600160a01b0391821683526001865283832091168252845220549051908152f35b8382346104fb5760203660031901126104fb57806020926109106118ef565b60ff60085460081c16600014610939576001600160a01b03168152601784522054905b51908152f35b50905090610933565b8382346104fb57816003193601126104fb576020906007549051908152f35b8382346104fb57816003193601126104fb5760209060ff60085460081c1690519015158152f35b8382346104fb57816003193601126104fb5760209060ff6008541690519015158152f35b8382346104fb57816003193601126104fb576020906013549051908152f35b8382346104fb57816003193601126104fb57602090600c549051908152f35b8382346104fb57806003193601126104fb57602090610a14610a0a6118ef565b6024359033612385565b5160018152f35b509134610abf5782600319360112610abf57610a356118ef565b918360243592338152600160205281812060018060a01b0386168252602052205490828210610a6e57602085610a148585038733612190565b608490602086519162461bcd60e51b8352820152602560248201527f45524332303a2064656372656173656420616c6c6f77616e63652062656c6f77604482015264207a65726f60d81b6064820152fd5b80fd5b508290346104fb57816003193601126104fb5780519180938054916001908360011c9260018516948515610bbe575b6020958686108114610bab57858952908115610b875750600114610b2f575b610b2b8787610b21828c0383611983565b51918291826118a6565b0390f35b81529295507f8a35acfbc15ff81a39ae7d344fd709f28e8600b4aa8c65c6b64bfe7fe36bd19b5b828410610b745750505082610b2b94610b2192820101948680610b10565b8054868501880152928601928101610b56565b60ff19168887015250505050151560051b8301019250610b2182610b2b8680610b10565b634e487b7160e01b845260228352602484fd5b93607f1693610af1565b8382346104fb57816003193601126104fb57602090600a549051908152f35b8382346104fb57816003193601126104fb57600554905160089190911c6001600160a01b03168152602090f35b8382346104fb57816003193601126104fb57602090600d549051908152f35b8382346104fb57816003193601126104fb573060009081526020818152604090912054909190610882565b50829060809260806003193601126104a15760249360643567ffffffffffffffff91828211610d975736602383011215610d97578184013592808411610d8457602091865196610cb460208760051b0189611983565b8588526020880192602460c080980287010195368711610d8057602401935b868510610cf9578a610cf68b8b610ce8612292565b604435906024359035611aa0565b80f35b8785360312610d8057825188810181811084821117610d6e57845285356001600160a01b0381168103610d6a5781528686013587820152838601358015158103610d6a578482015260608681013590820152848601358582015260a080870135908201528152938701938501610cd3565b8c80fd5b634e487b7160e01b8d5260418b528d8dfd5b8a80fd5b634e487b7160e01b875260418552602487fd5b8580fd5b5090346104a157826003193601126104a157610db5612292565b6005549060ff8216610df9575060ff1916600117600555513381527f62e78cea01bee320cd4e420270b5ea74000d11b0c9f74754ebdbfc544b05a25890602090a180f35b606490602084519162461bcd60e51b8352820152601060248201526f14185d5cd8589b194e881c185d5cd95960821b6044820152fd5b8382346104fb57366003190112610abf57610cf6610e4b6118ef565b60243590610e5a8233836122ed565b61262f565b8382346104fb57816003193601126104fb57602090600e549051908152f35b8334610abf5780600319360112610abf57610e97612292565b60058054610100600160a81b03198116909155819060081c6001600160a01b03167f8be0079c531659141344cd1fd0a4f28419497f9722a3daafe3b4186f6b6457e08280a380f35b8382346104fb5760203660031901126104fb57602090610882610f006118ef565b6001600160a01b031660009081526020819052604090205490565b5090346104a157816003193601126104a157610f356118ef565b60243591610f41612292565b60ff60085460081c1615610fe05742831115610f9d57506001600160a01b0316808452601760209081528385208390559251918252917fa9353e70f07f31e7f4e16464f45e189cbd22826780a5abe4da8303652a86960a91a280f35b606490602085519162461bcd60e51b8352820152601d60248201527f556e6c6f636b2074696d65206d75737420626520696e206675747572650000006044820152fd5b606490602085519162461bcd60e51b8352820152601860248201527f54696d65206c6f636b206973206e6f7420656e61626c656400000000000000006044820152fd5b8382346104fb57816003193601126104fb5760209060ff6005541690519015158152f35b50346104a157806003193601126104a1576110606118ef565b906024359161106d612292565b6001600160a01b038116936110838515156119ee565b831561110457308652856020528286205484116110c15750916020916110b9826000805160206129058339815191529530612385565b51908152a280f35b606490602084519162461bcd60e51b8352820152601d60248201527f496e73756666696369656e7420636f6e74726163742062616c616e63650000006044820152fd5b606490602084519162461bcd60e51b8352820152602060248201527f416d6f756e74206d7573742062652067726561746572207468616e207a65726f6044820152fd5b50346104a157806003193601126104a15767ffffffffffffffff9082358281116113a5576111789036908501611920565b9092602435908111610d97576111919036908601611920565b61119c939193612292565b821561135657808303611300578690875b8181106112e05750606480920361129d5730885260209388602052838920549788156112645750885b8181106111e1578980f35b6111ec81838a6119c8565b35906001600160a01b0382168083036112605760019288876112268e61121f878f8c9061121a8a15156119ee565b6119c8565b3590611a3a565b0480611237575b50505050016111d6565b611251816000805160206129058339815191529430612385565b8951908152a23880888161122d565b8b80fd5b606490602086519162461bcd60e51b835282015260136024820152724e6f20746f6b656e7320746f2072657363756560681b6044820152fd5b825162461bcd60e51b8152602081890152601d60248201527f546f74616c2070657263656e74616765206d75737420626520313030250000006044820152606490fd5b916112f96001916112f285858a6119c8565b35906119a5565b92016111ad565b815162461bcd60e51b8152602081880152602a60248201527f526563697069656e747320616e642070657263656e7461676573206c656e67746044820152690d040dad2e6dac2e8c6d60b31b6064820152608490fd5b815162461bcd60e51b8152602081880152602360248201527f4d7573742070726f76696465206174206c65617374206f6e6520726563697069604482015262195b9d60ea1b6064820152608490fd5b8480fd5b8382346104fb57816003193601126104fb576020906012549051908152f35b8382346104fb57816003193601126104fb5760185490516001600160a01b039091168152602090f35b8382346104fb57816003193601126104fb576020906009549051908152f35b5050346104fb5760203660031901126104fb57610cf690353361262f565b5090346104a157826003193601126104a157611448612292565b6005549060ff82161561148a575060ff1916600555513381527f5db9ee0a495bf2e6ff9c91a7834c1ba4fdd244a5e8aa4e537bd38aeae4b073aa90602090a180f35b606490602084519162461bcd60e51b8352820152601460248201527314185d5cd8589b194e881b9bdd081c185d5cd95960621b6044820152fd5b8382346104fb57806003193601126104fb57610a1460209261150d6114e76118ef565b338352600186528483206001600160a01b038216845286529184902054602435906119a5565b9033612190565b8382346104fb57816003193601126104fb57602090600f549051908152f35b8382346104fb57816003193601126104fb576020905160128152f35b8382346104fb5760603660031901126104fb57602090610a146115706118ef565b61157861190a565b604435916115878333836122ed565b612385565b8382346104fb57816003193601126104fb576020906002549051908152f35b8382346104fb57816003193601126104fb57517f00000000000000000000000000000000000000000000000000000000000000006001600160a01b03168152602090f35b5090346104a157816003193601126104a1576116096118ef565b602435918215158093036113a55761161f612292565b60ff600854161561167a57506001600160a01b031680845260166020908152838520805460ff191660ff85161790559251918252917f6a12b3df6cba4203bd7fd06b816789f87de8c594299aed5717ae070fac781bac91a280f35b606490602085519162461bcd60e51b8352820152601860248201527f426c61636b6c697374206973206e6f7420656e61626c656400000000000000006044820152fd5b8382346104fb57816003193601126104fb5760209060ff6014541690519015158152f35b50346104a15760e03660031901126104a1576116fb612292565b60ff6014541615611732575035600955602435600a55604435600b55606435600c55608435600d5560a435600e5560c435600f5580f35b906020606492519162461bcd60e51b83528201526013602482015272141c995cd85b19481b9bdd08195b98589b1959606a1b6044820152fd5b8382346104fb57806003193601126104fb57602090610a1461178b6118ef565b6024359033612190565b50346104a157826003193601126104a15780519183600354906001908260011c92600181168015611880575b602095868610821461186d575084885290811561184b57506001146117f2575b610b2b8686610b21828b0383611983565b929550600383527fc2575a0e9e593c00f959f8c92f12db2869c3395a3b0502d05e2516446f71f85b5b8284106118385750505082610b2b94610b219282010194386117e1565b805486850188015292860192810161181b565b60ff191687860152505050151560051b8301019250610b2182610b2b386117e1565b634e487b7160e01b845260229052602483fd5b93607f16936117c1565b8490346104fb57816003193601126104fb576020906011548152f35b6020808252825181830181905290939260005b8281106118db57505060409293506000838284010152601f8019910116010190565b8181018601518482016040015285016118b9565b600435906001600160a01b038216820361190557565b600080fd5b602435906001600160a01b038216820361190557565b9181601f840112156119055782359167ffffffffffffffff8311611905576020808501948460051b01011161190557565b60a0810190811067ffffffffffffffff82111761196d57604052565b634e487b7160e01b600052604160045260246000fd5b90601f8019910116810190811067ffffffffffffffff82111761196d57604052565b919082018092116119b257565b634e487b7160e01b600052601160045260246000fd5b91908110156119d85760051b0190565b634e487b7160e01b600052603260045260246000fd5b156119f557565b60405162461bcd60e51b815260206004820152601b60248201527f43616e6e6f742073656e6420746f207a65726f206164647265737300000000006044820152606490fd5b818102929181159184041417156119b257565b8115611a57570490565b634e487b7160e01b600052601260045260246000fd5b80518210156119d85760209160051b010190565b9081602091031261190557516001600160a01b03811681036119055790565b909181601055826011556012556002906002549060009560ff601454166120a1575b60649182611adc81611ad48988611a3a565b04809a6119a5565b96885115928361208d575b5050506120845785511561202c5760005b8651811015611e07576001600160a01b0380611b14838a611a6d565b51511615611dca5760209687611b2a848b611a6d565b51015115611d8d5786611b5686611b4e8b611b45888f611a6d565b5101518a611a3a565b0480936119a5565b986040938b8686611b678284611a6d565b51015115159182611d73575b82611d59575b505015611c88578560a0958d87611b908483611a6d565b51015160609485611ba18685611a6d565b51015191608098899384611bb58988611a6d565b51015191875193611bc585611951565b8d85528b8501600081528986019182528b860193845287860194855286611bec8c8b611a6d565b51511660005260158d5289600020955186555160018601555190840155516003830155519060040155611c1f8584611a6d565b51511698611c2d8584611a6d565b5101519185611c3c8683611a6d565b51015194611c4991611a6d565b5101519482519788528701528501528301527f47d46f58c7d60d60571092cff5715b8c8c5bc1347db2bb9890e639bf3680ba7b91a26001905b01611af8565b90929150611c96858c611a6d565b515116928315611d1e5783600052600083528060002054611cb8838630612385565b846000526000845281600020541115611cea5751908152600193929160008051602061290583398151915291a2611c82565b5162461bcd60e51b815260048101839052600f60248201526e151c985b9cd9995c8819985a5b1959608a1b60448201528690fd5b5162461bcd60e51b815260048101839052601660248201527516995c9bc81859191c995cdcc81c9958da5c1a595b9d60521b60448201528690fd5b60a0925090611d6791611a6d565b5101514210868d611b79565b6060925090611d8191611a6d565b5101511515868d611b73565b60405162461bcd60e51b8152600481018990526016602482015275050657263656e74616765206d757374206265203e20360541b60448201528590fd5b60405162461bcd60e51b8152602060048201526016602482015275496e76616c69642077616c6c6574206164647265737360501b60448201528490fd5b5095945092039050611fdd575034151580611fd4575b611e245750565b611e2e348261281a565b6018546001600160a01b039081811615611e69575b5060406000805160206128e58339815191529160185416928151908152346020820152a2565b6040805163c45a015560e01b81526020907f00000000000000000000000000000000000000000000000000000000000000008516908281600481855afa908115611fa9578390600092611fb4575b5084516315ab88c960e31b81529192829060049082905afa908115611fa9578392879492611f1992600091611f8c575b50865163e6a4390560e01b81523060048201526001600160a01b03909116602482015294859283919082906044820190565b0392165afa928315611f825750938092604094926000805160206128e583398151915296600092611f65575b505016906bffffffffffffffffffffffff60a01b16176018559150611e43565b611f7b9250803d106103cc576103be8183611983565b3880611f45565b513d6000823e3d90fd5b611fa39150843d86116103cc576103be8183611983565b38611ee7565b84513d6000823e3d90fd5b60049250611fce90823d84116103cc576103be8183611983565b91611eb7565b50801515611e1d565b608490616c7960f01b6040519162461bcd60e51b835260206004840152602260248401527f546f74616c20616c6c6f636174696f6e206d75737420657175616c20737570706044840152820152fd5b60405162461bcd60e51b815260206004820152602b60248201527f4d7573742070726f76696465206174206c65617374206f6e652077616c6c657460448201526a1030b63637b1b0ba34b7b760a91b81840152608490fd5b95505050505050565b6120989293506119a5565b14823880611ae7565b955060646120af8284611a3a565b0495611ac2565b919082039182116119b257565b60018060a01b031660005260156020526040600020604051906120e582611951565b80549081835260018101549160208401928352600282015460408501918183526004600385015494606088019586520154908160808801521591821561217d575b5050612174576121379051426120b6565b8151811015612165579061215261215a926121629551611a3a565b905190611a4d565b9051906120b6565b90565b505061216291519051906120b6565b50505050600090565b61218792506119a5565b42103880612126565b6001600160a01b0390811691821561224157169182156121f15760207f8c5be1e5ebec7d5bd14f71427d1e84f3dd0314c0f7b2291e5b200ac8c7c3b925918360005260018252604060002085600052825280604060002055604051908152a3565b60405162461bcd60e51b815260206004820152602260248201527f45524332303a20617070726f766520746f20746865207a65726f206164647265604482015261737360f01b6064820152608490fd5b60405162461bcd60e51b8152602060048201526024808201527f45524332303a20617070726f76652066726f6d20746865207a65726f206164646044820152637265737360e01b6064820152608490fd5b60055460081c6001600160a01b031633036122a957565b606460405162461bcd60e51b815260206004820152602060248201527f4f776e61626c653a2063616c6c6572206973206e6f7420746865206f776e65726044820152fd5b9060018060a01b0380831660005260016020526040600020908216600052602052604060002054926000198403612325575b50505050565b80841061234057612337930391612190565b3880808061231f565b60405162461bcd60e51b815260206004820152601d60248201527f45524332303a20696e73756666696369656e7420616c6c6f77616e63650000006044820152606490fd5b6001600160a01b039081169182156125dc571691821561258b5760ff600554166125335760085460ff81166124c4575b60081c60ff16612470575b60008281528060205260408120549180831061241c57604082827fddf252ad1be2c89b69c2b068fc378daa952ba7f163c4a11628f55a4df523b3ef958760209652828652038282205586815220818154019055604051908152a3565b60405162461bcd60e51b815260206004820152602660248201527f45524332303a207472616e7366657220616d6f756e7420657863656564732062604482015265616c616e636560d01b6064820152608490fd5b8160005260176020526040600020544210156123c05760405162461bcd60e51b8152602060048201526016602482015275151bdad95b9cc8185c99481d1a5b594b5b1bd8dad95960521b6044820152606490fd5b82600052601660205260ff60406000205416158061251f575b6123b55760405162461bcd60e51b81526020600482015260166024820152751059191c995cdcc81a5cc8189b1858dadb1a5cdd195960521b6044820152606490fd5b508360005260ff60406000205416156124dd565b60405162461bcd60e51b815260206004820152602a60248201527f45524332305061757361626c653a20746f6b656e207472616e736665722077686044820152691a5b19481c185d5cd95960b21b6064820152608490fd5b60405162461bcd60e51b815260206004820152602360248201527f45524332303a207472616e7366657220746f20746865207a65726f206164647260448201526265737360e81b6064820152608490fd5b60405162461bcd60e51b815260206004820152602560248201527f45524332303a207472616e736665722066726f6d20746865207a65726f206164604482015264647265737360d81b6064820152608490fd5b6001600160a01b031680156127cb5760ff600554166125335760085460ff811661275c575b60081c60ff16612708575b6000918183528260205260408320548181106126b857817fddf252ad1be2c89b69c2b068fc378daa952ba7f163c4a11628f55a4df523b3ef926020928587528684520360408620558060025403600255604051908152a3565b60405162461bcd60e51b815260206004820152602260248201527f45524332303a206275726e20616d6f756e7420657863656564732062616c616e604482015261636560f01b6064820152608490fd5b80600052601760205260406000205442101561265f5760405162461bcd60e51b8152602060048201526016602482015275151bdad95b9cc8185c99481d1a5b594b5b1bd8dad95960521b6044820152606490fd5b81600052601660205260ff6040600020541615806127b7575b6126545760405162461bcd60e51b81526020600482015260166024820152751059191c995cdcc81a5cc8189b1858dadb1a5cdd195960521b6044820152606490fd5b506000805260ff6040600020541615612775565b60405162461bcd60e51b815260206004820152602160248201527f45524332303a206275726e2066726f6d20746865207a65726f206164647265736044820152607360f81b6064820152608490fd5b906001600160a01b037f0000000000000000000000000000000000000000000000000000000000000000811690612852848330612190565b60055460081c169061012c4201938442116119b25760609360c492604051968795869463f305d71960e01b865230600487015260248601526000604486015260006064860152608485015260a48401525af180156128d8576128b15750565b606090813d83116128d1575b6128c78183611983565b8101031261190557565b503d6128bd565b6040513d6000823e3d90fdfeac1d76749e5447b7b16f5ab61447e1bd502f3bb4807af3b28e620d1700a6ee45896e034966eaaf1adc54acc0f257056febbd300c9e47182cf761982cf1f5e430a2646970667358221220a8963357744afee41aba95b90e4bf48276234f653deb650afb59b70190f5d20c64736f6c63430008160033a264697066735822122038b1ad329fb2e8558cfbacd7dda98a80469bf42779a6956c74a61b80bef26a0264736f6c63430008160033",
  "linkReferences": {},
  "deployedLinkReferences": {}
}