{
  "_format": "hh-sol-artifact-1",
  "contractName": "TokenFactory_v2",
  "sourceName": "src/contracts/TokenFactory_v2.sol",
  "abi": [
    {
      "inputs": [
        {
          "internalType": "address",
          "name": "_implementation",
          "type": "address"
        }
      ],
      "stateMutability": "nonpayable",
      "type": "constructor"
    },
    {
      "anonymous": false,
      "inputs": [
        {
          "indexed": false,
          "internalType": "address",
          "name": "previousAdmin",
          "type": "address"
        },
        {
          "indexed": false,
          "internalType": "address",
          "name": "newAdmin",
          "type": "address"
        }
      ],
      "name": "AdminChanged",
      "type": "event"
    },
    {
      "anonymous": false,
      "inputs": [
        {
          "indexed": true,
          "internalType": "address",
          "name": "beacon",
          "type": "address"
        }
      ],
      "name": "BeaconUpgraded",
      "type": "event"
    },
    {
      "anonymous": false,
      "inputs": [
        {
          "indexed": true,
          "internalType": "address",
          "name": "user",
          "type": "address"
        },
        {
          "indexed": false,
          "internalType": "uint256",
          "name": "fee",
          "type": "uint256"
        }
      ],
      "name": "CustomDeploymentFeeSet",
      "type": "event"
    },
    {
      "anonymous": false,
      "inputs": [
        {
          "indexed": false,
          "internalType": "uint256",
          "name": "newFee",
          "type": "uint256"
        }
      ],
      "name": "DeploymentFeeUpdated",
      "type": "event"
    },
    {
      "anonymous": false,
      "inputs": [
        {
          "indexed": false,
          "internalType": "uint8",
          "name": "version",
          "type": "uint8"
        }
      ],
      "name": "Initialized",
      "type": "event"
    },
    {
      "anonymous": false,
      "inputs": [
        {
          "indexed": true,
          "internalType": "address",
          "name": "previousOwner",
          "type": "address"
        },
        {
          "indexed": true,
          "internalType": "address",
          "name": "newOwner",
          "type": "address"
        }
      ],
      "name": "OwnershipTransferred",
      "type": "event"
    },
    {
      "anonymous": false,
      "inputs": [
        {
          "indexed": false,
          "internalType": "address",
          "name": "newRecipient",
          "type": "address"
        }
      ],
      "name": "PlatformFeeRecipientUpdated",
      "type": "event"
    },
    {
      "anonymous": false,
      "inputs": [
        {
          "indexed": false,
          "internalType": "uint256",
          "name": "newPercentage",
          "type": "uint256"
        }
      ],
      "name": "PlatformFeeUpdated",
      "type": "event"
    },
    {
      "anonymous": false,
      "inputs": [
        {
          "indexed": false,
          "internalType": "uint256",
          "name": "vestingDuration",
          "type": "uint256"
        },
        {
          "indexed": false,
          "internalType": "uint256",
          "name": "cliffDuration",
          "type": "uint256"
        },
        {
          "indexed": false,
          "internalType": "bool",
          "name": "enabled",
          "type": "bool"
        }
      ],
      "name": "PlatformFeeVestingConfigured",
      "type": "event"
    },
    {
      "anonymous": false,
      "inputs": [
        {
          "indexed": false,
          "internalType": "address",
          "name": "token",
          "type": "address"
        },
        {
          "indexed": false,
          "internalType": "string",
          "name": "name",
          "type": "string"
        },
        {
          "indexed": false,
          "internalType": "string",
          "name": "symbol",
          "type": "string"
        },
        {
          "indexed": false,
          "internalType": "address",
          "name": "owner",
          "type": "address"
        },
        {
          "indexed": false,
          "internalType": "uint256",
          "name": "startTime",
          "type": "uint256"
        },
        {
          "indexed": false,
          "internalType": "uint256",
          "name": "endTime",
          "type": "uint256"
        }
      ],
      "name": "TokenCreated",
      "type": "event"
    },
    {
      "anonymous": false,
      "inputs": [
        {
          "indexed": true,
          "internalType": "address",
          "name": "implementation",
          "type": "address"
        }
      ],
      "name": "Upgraded",
      "type": "event"
    },
    {
      "inputs": [],
      "name": "VERSION",
      "outputs": [
        {
          "internalType": "string",
          "name": "",
          "type": "string"
        }
      ],
      "stateMutability": "view",
      "type": "function"
    },
    {
      "inputs": [
        {
          "internalType": "uint256",
          "name": "_vestingDuration",
          "type": "uint256"
        },
        {
          "internalType": "uint256",
          "name": "_cliffDuration",
          "type": "uint256"
        },
        {
          "internalType": "bool",
          "name": "_enabled",
          "type": "bool"
        }
      ],
      "name": "configurePlatformFeeVesting",
      "outputs": [],
      "stateMutability": "nonpayable",
      "type": "function"
    },
    {
      "inputs": [
        {
          "internalType": "string",
          "name": "name",
          "type": "string"
        },
        {
          "internalType": "string",
          "name": "symbol",
          "type": "string"
        },
        {
          "internalType": "uint256",
          "name": "initialSupply",
          "type": "uint256"
        },
        {
          "internalType": "uint256",
          "name": "maxSupply",
          "type": "uint256"
        },
        {
          "internalType": "bool",
          "name": "enableBlacklist",
          "type": "bool"
        },
        {
          "internalType": "bool",
          "name": "enableTimeLock",
          "type": "bool"
        },
        {
          "internalType": "uint256",
          "name": "presaleRate",
          "type": "uint256"
        },
        {
          "internalType": "uint256",
          "name": "minContribution",
          "type": "uint256"
        },
        {
          "internalType": "uint256",
          "name": "maxContribution",
          "type": "uint256"
        },
        {
          "internalType": "uint256",
          "name": "presaleCap",
          "type": "uint256"
        },
        {
          "internalType": "uint256",
          "name": "startTime",
          "type": "uint256"
        },
        {
          "internalType": "uint256",
          "name": "endTime",
          "type": "uint256"
        }
      ],
      "name": "createToken",
      "outputs": [
        {
          "internalType": "address",
          "name": "",
          "type": "address"
        }
      ],
      "stateMutability": "payable",
      "type": "function"
    },
    {
      "inputs": [
        {
          "internalType": "address",
          "name": "",
          "type": "address"
        }
      ],
      "name": "customDeploymentFees",
      "outputs": [
        {
          "internalType": "uint256",
          "name": "",
          "type": "uint256"
        }
      ],
      "stateMutability": "view",
      "type": "function"
    },
    {
      "inputs": [
        {
          "internalType": "uint256",
          "name": "",
          "type": "uint256"
        }
      ],
      "name": "deployedTokens",
      "outputs": [
        {
          "internalType": "address",
          "name": "",
          "type": "address"
        }
      ],
      "stateMutability": "view",
      "type": "function"
    },
    {
      "inputs": [],
      "name": "deploymentFee",
      "outputs": [
        {
          "internalType": "uint256",
          "name": "",
          "type": "uint256"
        }
      ],
      "stateMutability": "view",
      "type": "function"
    },
    {
      "inputs": [],
      "name": "getDeployedTokens",
      "outputs": [
        {
          "internalType": "address[]",
          "name": "",
          "type": "address[]"
        }
      ],
      "stateMutability": "view",
      "type": "function"
    },
    {
      "inputs": [
        {
          "internalType": "address",
          "name": "_user",
          "type": "address"
        }
      ],
      "name": "getDeploymentFee",
      "outputs": [
        {
          "internalType": "uint256",
          "name": "",
          "type": "uint256"
        }
      ],
      "stateMutability": "view",
      "type": "function"
    },
    {
      "inputs": [],
      "name": "getTemplateImplementation",
      "outputs": [
        {
          "internalType": "address",
          "name": "",
          "type": "address"
        }
      ],
      "stateMutability": "view",
      "type": "function"
    },
    {
      "inputs": [
        {
          "internalType": "address",
          "name": "token",
          "type": "address"
        }
      ],
      "name": "getTokenCreator",
      "outputs": [
        {
          "internalType": "address",
          "name": "",
          "type": "address"
        }
      ],
      "stateMutability": "view",
      "type": "function"
    },
    {
      "inputs": [
        {
          "internalType": "address",
          "name": "user",
          "type": "address"
        }
      ],
      "name": "getUserCreatedTokens",
      "outputs": [
        {
          "internalType": "address[]",
          "name": "",
          "type": "address[]"
        }
      ],
      "stateMutability": "view",
      "type": "function"
    },
    {
      "inputs": [
        {
          "internalType": "address",
          "name": "user",
          "type": "address"
        }
      ],
      "name": "getUserTokenCount",
      "outputs": [
        {
          "internalType": "uint256",
          "name": "",
          "type": "uint256"
        }
      ],
      "stateMutability": "view",
      "type": "function"
    },
    {
      "inputs": [
        {
          "internalType": "uint256",
          "name": "_deploymentFee",
          "type": "uint256"
        }
      ],
      "name": "initialize",
      "outputs": [],
      "stateMutability": "nonpayable",
      "type": "function"
    },
    {
      "inputs": [
        {
          "internalType": "address",
          "name": "user",
          "type": "address"
        },
        {
          "internalType": "address",
          "name": "token",
          "type": "address"
        }
      ],
      "name": "isTokenCreator",
      "outputs": [
        {
          "internalType": "bool",
          "name": "",
          "type": "bool"
        }
      ],
      "stateMutability": "view",
      "type": "function"
    },
    {
      "inputs": [],
      "name": "owner",
      "outputs": [
        {
          "internalType": "address",
          "name": "",
          "type": "address"
        }
      ],
      "stateMutability": "view",
      "type": "function"
    },
    {
      "inputs": [],
      "name": "platformFeeCliffDuration",
      "outputs": [
        {
          "internalType": "uint256",
          "name": "",
          "type": "uint256"
        }
      ],
      "stateMutability": "view",
      "type": "function"
    },
    {
      "inputs": [],
      "name": "platformFeePercentage",
      "outputs": [
        {
          "internalType": "uint256",
          "name": "",
          "type": "uint256"
        }
      ],
      "stateMutability": "view",
      "type": "function"
    },
    {
      "inputs": [],
      "name": "platformFeeRecipient",
      "outputs": [
        {
          "internalType": "address",
          "name": "",
          "type": "address"
        }
      ],
      "stateMutability": "view",
      "type": "function"
    },
    {
      "inputs": [],
      "name": "platformFeeVestingDuration",
      "outputs": [
        {
          "internalType": "uint256",
          "name": "",
          "type": "uint256"
        }
      ],
      "stateMutability": "view",
      "type": "function"
    },
    {
      "inputs": [],
      "name": "platformFeeVestingEnabled",
      "outputs": [
        {
          "internalType": "bool",
          "name": "",
          "type": "bool"
        }
      ],
      "stateMutability": "view",
      "type": "function"
    },
    {
      "inputs": [],
      "name": "proxiableUUID",
      "outputs": [
        {
          "internalType": "bytes32",
          "name": "",
          "type": "bytes32"
        }
      ],
      "stateMutability": "view",
      "type": "function"
    },
    {
      "inputs": [],
      "name": "renounceOwnership",
      "outputs": [],
      "stateMutability": "nonpayable",
      "type": "function"
    },
    {
      "inputs": [
        {
          "internalType": "address",
          "name": "_user",
          "type": "address"
        },
        {
          "internalType": "uint256",
          "name": "_fee",
          "type": "uint256"
        }
      ],
      "name": "setCustomDeploymentFee",
      "outputs": [],
      "stateMutability": "nonpayable",
      "type": "function"
    },
    {
      "inputs": [
        {
          "internalType": "uint256",
          "name": "_fee",
          "type": "uint256"
        }
      ],
      "name": "setDeploymentFee",
      "outputs": [],
      "stateMutability": "nonpayable",
      "type": "function"
    },
    {
      "inputs": [
        {
          "internalType": "uint256",
          "name": "_percentage",
          "type": "uint256"
        }
      ],
      "name": "setPlatformFeePercentage",
      "outputs": [],
      "stateMutability": "nonpayable",
      "type": "function"
    },
    {
      "inputs": [
        {
          "internalType": "address",
          "name": "_recipient",
          "type": "address"
        }
      ],
      "name": "setPlatformFeeRecipient",
      "outputs": [],
      "stateMutability": "nonpayable",
      "type": "function"
    },
    {
      "inputs": [],
      "name": "tokenImplementation",
      "outputs": [
        {
          "internalType": "contract TokenTemplate_v2",
          "name": "",
          "type": "address"
        }
      ],
      "stateMutability": "view",
      "type": "function"
    },
    {
      "inputs": [
        {
          "internalType": "address",
          "name": "newOwner",
          "type": "address"
        }
      ],
      "name": "transferOwnership",
      "outputs": [],
      "stateMutability": "nonpayable",
      "type": "function"
    },
    {
      "inputs": [
        {
          "internalType": "address",
          "name": "newImplementation",
          "type": "address"
        }
      ],
      "name": "upgradeTo",
      "outputs": [],
      "stateMutability": "nonpayable",
      "type": "function"
    },
    {
      "inputs": [
        {
          "internalType": "address",
          "name": "newImplementation",
          "type": "address"
        },
        {
          "internalType": "bytes",
          "name": "data",
          "type": "bytes"
        }
      ],
      "name": "upgradeToAndCall",
      "outputs": [],
      "stateMutability": "payable",
      "type": "function"
    },
    {
      "inputs": [],
      "name": "withdrawFees",
      "outputs": [],
      "stateMutability": "nonpayable",
      "type": "function"
    }
  ],
  "bytecode": "0x60c03461009557601f61227638819003918201601f19168301916001600160401b0383118484101761009a5780849260209460405283398101031261009557516001600160a01b03811690819003610095573060805260a0526040516121c590816100b182396080518181816110520152818161115c0152611477015260a051818181610cf20152818161170e01526118550152f35b600080fd5b634e487b7160e01b600052604160045260246000fdfe60808060405260043610156200001457600080fd5b60003560e01c9081630d1ded89146200184057508063113d478b146200181f5780631652da4214620017ee5780631871e243146200173d5780632f3a3d5d14620016f65780633659cfe6146200144f578063420fc210146200142f578063476343ee14620013bf5780634f1ef286146200110557806352d1902d146200103d578063622ae7aa1462000fb2578063715018a61462000f5157806376b2de011462000a0b5780638333903e14620009725780638da5cb5b1462000947578063ae6862ff14620008e7578063b8a6f40214620008a8578063c00be1a01462000813578063c05ddda814620007d5578063c78418b91462000795578063cbf1208f1462000724578063cdd78cfc1462000704578063d002462b14620006b4578063d534014114620005e4578063eb13554f14620005b9578063ec81aadb146200055b578063f2cff57f146200053b578063f2fde38b14620004a3578063fadcac27146200047d578063fe4b84df14620002115763ffa1ad74146200019457600080fd5b346200020c5760003660031901126200020c57604051604081019080821067ffffffffffffffff831117620001f657620001f29160405260058152640322e302e360dc1b60208201526040519182916020835260208301906200199c565b0390f35b634e487b7160e01b600052604160045260246000fd5b600080fd5b346200020c576020806003193601126200020c576004359060005460ff808260081c16159182809362000470575b801562000458575b15620003fc577fd7ff7274b03e3eff3f5e3f308cc4b76fd937a992c26cb91a80e328dce4ab33389160609160ff199085600183831617600055620003e9575b50620002a48260005460081c166200029e8162001bc3565b62001bc3565b620002af3362001b7a565b7fba887708e7d4436dd36b62187bdced03e0b9abe66caf392a66dd84386641b2098660005498620002f5858b60081c16620002ea8162001bc3565b6200029e8162001bc3565b600160c9558060fb557f45610d581145924dd7090a5017e5f2b1d6f42213bb2e95707ff86846bbfcb1ca826101f48060fd557f40bd824d588484917db8fa4fc894c1e0feae5a75885290ba7b97521cebf82a808260018060a01b036033541695866001600160601b0360a01b60fe54161760fe556301e13380809b556276a700998a61010055600161010191825416179055604051908152a1604051908152a1604051908152a16040519182528582015260016040820152a1620003b557005b7f7f26b83ff96e1f2b6a682f133852f6798a09c465da95921460cefb38474024989161ff00191660005560405160018152a1005b61ffff1916610101176000558762000286565b60405162461bcd60e51b815260048101859052602e60248201527f496e697469616c697a61626c653a20636f6e747261637420697320616c72656160448201526d191e481a5b9a5d1a585b1a5e995960921b6064820152608490fd5b50303b15801562000247575060018282161462000247565b506001828216106200023f565b346200020c5760003660031901126200020c57602060ff61010154166040519015158152f35b346200020c5760203660031901126200020c57620004c062001884565b620004ca62001b21565b6001600160a01b03811615620004e757620004e59062001b7a565b005b60405162461bcd60e51b815260206004820152602660248201527f4f776e61626c653a206e6577206f776e657220697320746865207a65726f206160448201526564647265737360d01b6064820152608490fd5b346200020c5760003660031901126200020c57602060fb54604051908152f35b346200020c5760203660031901126200020c576004356101029081548110156200020c5760209160005260018060a01b03907f93bdaa6a4190909b7c3fbe8d42169ffe1cab19f51dfc8db24c71abf849eced4a015416604051908152f35b346200020c5760003660031901126200020c5760fe546040516001600160a01b039091168152602090f35b346200020c5760603660031901126200020c57600435602435604435918215158093036200020c576200061662001b21565b8082116200066f577fd7ff7274b03e3eff3f5e3f308cc4b76fd937a992c26cb91a80e328dce4ab3338926060928260ff55806101005561010160ff1981541660ff841617905560405192835260208301526040820152a1005b60405162461bcd60e51b815260206004820152601960248201527f436c696666206c6f6e676572207468616e2076657374696e67000000000000006044820152606490fd5b346200020c5760203660031901126200020c577f40bd824d588484917db8fa4fc894c1e0feae5a75885290ba7b97521cebf82a806020600435620006f762001b21565b8060fb55604051908152a1005b346200020c5760003660031901126200020c57602060fd54604051908152f35b346200020c5760403660031901126200020c576200074162001884565b7f035250ff587e06567c2fa9d4b3191805958a937530b0e88cfce4c9c4dcdef1b36020602435926200077262001b21565b6001600160a01b0316600081815260fc83526040908190208590555193845292a2005b346200020c5760203660031901126200020c5760206001600160a01b0380620007bd62001884565b16600052610105825260406000205416604051908152f35b346200020c5760203660031901126200020c576001600160a01b03620007fa62001884565b1660005260fc6020526020604060002054604051908152f35b346200020c576020806003193601126200020c576001600160a01b03806200083a62001884565b166000526101036020526040600020916040518092602085549283815201946000526020600020926000915b8383106200088e57620001f28662000881818a0382620018b8565b6040519182918262001934565b845481168752958101956001948501949092019162000866565b346200020c5760203660031901126200020c576001600160a01b03620008cd62001884565b166000526101036020526020604060002054604051908152f35b346200020c5760403660031901126200020c576200090462001884565b6001600160a01b0360243581811692908390036200020c5716600052610104602052604060002090600052602052602060ff604060002054166040519015158152f35b346200020c5760003660031901126200020c576033546040516001600160a01b039091168152602090f35b346200020c5760203660031901126200020c576004356200099262001b21565b6127108111620009cd576020817f45610d581145924dd7090a5017e5f2b1d6f42213bb2e95707ff86846bbfcb1ca9260fd55604051908152a1005b60405162461bcd60e51b81526020600482015260166024820152754665652063616e6e6f7420657863656564203130302560501b6044820152606490fd5b6101803660031901126200020c5760043567ffffffffffffffff81116200020c5762000a3c9036906004016200197b565b60243567ffffffffffffffff81116200020c5762000a5f9036906004016200197b565b9060843580151581036200020c5760a4359081151582036200020c57600260c9541462000f0c57600260c95562000a9633620019de565b341062000ec75760fd5460443580820291811591830414171562000eb157604435612710820481031162000eb15760018060a01b0360fe54169160ff61010154169060ff54926101005494604051968761024081011067ffffffffffffffff6102408a011117620001f6576127109361024089016040528989528a60208a01528484046044350360408a015260643560608a01523360808a0152151560a0890152151560c088015260c43560e088015260e435610100880152610104356101208801526101243561014088015261014435610160880152610164356101808801526101a0870152046101c085015215156101e084015261020083015261022082015262000cc160405180926394cf687360e01b60208301526020602483015261022062000bed62000bd6835161024060448701526102848601906200199c565b60208401518582036043190160648701526200199c565b60408301516084850152606083015160a485015260808301516001600160a01b0390811660c486015260a0840151151560e486015260c0840151151561010486015260e08401516101248601526101008401516101448601526101208401516101648601526101408401516101848601526101608401516101a48601526101808401516101c48601526101a0840151166101e48501526101c08301516102048501526101e0830151151561022485015261020083015161024485015291015161026483015203601f198101835282620018b8565b60405190610416908183019083821067ffffffffffffffff831117620001f657604062000d2b92859462001d5a86397f00000000000000000000000000000000000000000000000000000000000000006001600160a01b031681526020810182905201906200199c565b03906000f0801562000ea55760018060a01b0316906101028054680100000000000000009182821015620001f6576001820180915581101562000e8f577f93bdaa6a4190909b7c3fbe8d42169ffe1cab19f51dfc8db24c71abf849eced4a01916001600160601b0360a01b928484825416179055336000526101036020526040600020805492831015620001f6576001830180825583101562000e8f576020957f42bbfbb52e42e649ec7c181638a6969b047f19faae102187a8957860d5284b7a9462000e589462000e67936000528860002001878282541617905533600052610104885260406000208760005288526040600020600160ff198254161790556101058852604060002090339082541617905560405193849387855260c08986015260c08501906200199c565b9083820360408501526200199c565b3360608301526101443560808301526101643560a08301520390a1600160c955604051908152f35b634e487b7160e01b600052603260045260246000fd5b6040513d6000823e3d90fd5b634e487b7160e01b600052601160045260246000fd5b60405162461bcd60e51b815260206004820152601b60248201527f496e73756666696369656e74206465706c6f796d656e742066656500000000006044820152606490fd5b60405162461bcd60e51b815260206004820152601f60248201527f5265656e7472616e637947756172643a207265656e7472616e742063616c6c006044820152606490fd5b346200020c5760003660031901126200020c5762000f6e62001b21565b603380546001600160a01b031981169091556000906001600160a01b03167f8be0079c531659141344cd1fd0a4f28419497f9722a3daafe3b4186f6b6457e08280a3005b346200020c5760003660031901126200020c57604051806101029182548082526020809201936000527f93bdaa6a4190909b7c3fbe8d42169ffe1cab19f51dfc8db24c71abf849eced4a916000905b8282106200101c57620001f2856200088181890382620018b8565b83546001600160a01b03168652948501946001938401939091019062001001565b346200020c5760003660031901126200020c577f00000000000000000000000000000000000000000000000000000000000000006001600160a01b031630036200109a576020604051600080516020620021708339815191528152f35b60405162461bcd60e51b815260206004820152603860248201527f555550535570677261646561626c653a206d757374206e6f742062652063616c60448201527f6c6564207468726f7567682064656c656761746563616c6c00000000000000006064820152608490fd5b60403660031901126200020c576200111c62001884565b60243567ffffffffffffffff81116200020c57366023820112156200020c5762001151903690602481600401359101620018f8565b906001600160a01b037f00000000000000000000000000000000000000000000000000000000000000008116906200118c3083141562001a28565b620011ac6000805160206200217083398151915292828454161462001a8a565b620011b662001b21565b7f4910fdfa16fed3260ed0e7147f7cc6da11a60208b5b9406d12a635614ffd91435460ff1615620011ef575050620004e5915062001c24565b6040516352d1902d60e01b81526020939291831691908481600481865afa600091816200138a575b50620012795760405162461bcd60e51b815260048101869052602e60248201527f45524331393637557067726164653a206e657720696d706c656d656e7461746960448201526d6f6e206973206e6f74205555505360901b6064820152608490fd5b0362001333576200128a8262001c24565b7fbc7cd75a20ee27fd9adebab32041f755214dbc6bffa90cc0225b39da2e5c2d3b600080a28251158015906200132a575b620012c257005b600080620004e59460405194620012d9866200189b565b602786527f416464726573733a206c6f772d6c6576656c2064656c65676174652063616c6c81870152660819985a5b195960ca1b604087015281519101845af46200132362001aec565b9162001cb6565b506001620012bb565b60405162461bcd60e51b815260048101849052602960248201527f45524331393637557067726164653a20756e737570706f727465642070726f786044820152681a58589b195555525160ba1b6064820152608490fd5b9091508581813d8311620013b7575b620013a58183620018b8565b810103126200020c5751908762001217565b503d62001399565b346200020c5760003660031901126200020c57620013dc62001b21565b600080808047335af1620013ef62001aec565b5015620013f857005b60405162461bcd60e51b815260206004820152600f60248201526e151c985b9cd9995c8819985a5b1959608a1b6044820152606490fd5b346200020c5760003660031901126200020c57602060ff54604051908152f35b346200020c576020806003193601126200020c576200146d62001884565b6001600160a01b037f000000000000000000000000000000000000000000000000000000000000000081169290620014a83085141562001a28565b620014c86000805160206200217083398151915294828654161462001a8a565b620014d262001b21565b604051938285019185831067ffffffffffffffff841117620001f657826040526000865260ff7f4910fdfa16fed3260ed0e7147f7cc6da11a60208b5b9406d12a635614ffd91435416600014620015335750505050620004e5915062001c24565b84939416906040516352d1902d60e01b81528581600481865afa60009181620016c1575b50620015b95760405162461bcd60e51b815260048101879052602e60248201527f45524331393637557067726164653a206e657720696d706c656d656e7461746960448201526d6f6e206973206e6f74205555505360901b6064820152608490fd5b036200166a57620015ca8362001c24565b7fbc7cd75a20ee27fd9adebab32041f755214dbc6bffa90cc0225b39da2e5c2d3b600080a283511580159062001661575b6200160257005b60008091620004e5957f416464726573733a206c6f772d6c6576656c2064656c65676174652063616c6c604051966200163b886200189b565b60278852870152660819985a5b195960ca1b60408701525190845af46200132362001aec565b506000620015fb565b60405162461bcd60e51b815260048101859052602960248201527f45524331393637557067726164653a20756e737570706f727465642070726f786044820152681a58589b195555525160ba1b6064820152608490fd5b9091508681813d8311620016ee575b620016dc8183620018b8565b810103126200020c5751908862001557565b503d620016d0565b346200020c5760003660031901126200020c576040517f00000000000000000000000000000000000000000000000000000000000000006001600160a01b03168152602090f35b346200020c5760203660031901126200020c576200175a62001884565b6200176462001b21565b6001600160a01b03168015620017b5576020817fba887708e7d4436dd36b62187bdced03e0b9abe66caf392a66dd84386641b209926001600160601b0360a01b60fe54161760fe55604051908152a1005b60405162461bcd60e51b8152602060048201526011602482015270125b9d985b1a59081c9958da5c1a595b9d607a1b6044820152606490fd5b346200020c5760203660031901126200020c576020620018176200181162001884565b620019de565b604051908152f35b346200020c5760003660031901126200020c57602061010054604051908152f35b346200020c5760003660031901126200020c577f00000000000000000000000000000000000000000000000000000000000000006001600160a01b03168152602090f35b600435906001600160a01b03821682036200020c57565b6060810190811067ffffffffffffffff821117620001f657604052565b90601f8019910116810190811067ffffffffffffffff821117620001f657604052565b67ffffffffffffffff8111620001f657601f01601f191660200190565b9291926200190682620018db565b91620019166040519384620018b8565b8294818452818301116200020c578281602093846000960137010152565b602090602060408183019282815285518094520193019160005b8281106200195d575050505090565b83516001600160a01b0316855293810193928101926001016200194e565b9080601f830112156200020c578160206200199993359101620018f8565b90565b919082519283825260005b848110620019c9575050826000602080949584010152601f8019910116010190565b602081830181015184830182015201620019a7565b6001600160a01b0316600090815260fc602052604090205480158015908062001a0f575b5062001999575060fb5490565b908162001a1f575b503862001a02565b90503862001a17565b1562001a3057565b60405162461bcd60e51b815260206004820152602c60248201527f46756e6374696f6e206d7573742062652063616c6c6564207468726f7567682060448201526b19195b1959d85d1958d85b1b60a21b6064820152608490fd5b1562001a9257565b60405162461bcd60e51b815260206004820152602c60248201527f46756e6374696f6e206d7573742062652063616c6c6564207468726f7567682060448201526b6163746976652070726f787960a01b6064820152608490fd5b3d1562001b1c573d9062001b0082620018db565b9162001b106040519384620018b8565b82523d6000602084013e565b606090565b6033546001600160a01b0316330362001b3657565b606460405162461bcd60e51b815260206004820152602060248201527f4f776e61626c653a2063616c6c6572206973206e6f7420746865206f776e65726044820152fd5b603380546001600160a01b039283166001600160a01b0319821681179092559091167f8be0079c531659141344cd1fd0a4f28419497f9722a3daafe3b4186f6b6457e0600080a3565b1562001bcb57565b60405162461bcd60e51b815260206004820152602b60248201527f496e697469616c697a61626c653a20636f6e7472616374206973206e6f74206960448201526a6e697469616c697a696e6760a81b6064820152608490fd5b803b1562001c5b576000805160206200217083398151915280546001600160a01b0319166001600160a01b03909216919091179055565b60405162461bcd60e51b815260206004820152602d60248201527f455243313936373a206e657720696d706c656d656e746174696f6e206973206e60448201526c1bdd08184818dbdb9d1c9858dd609a1b6064820152608490fd5b9192901562001d1b575081511562001ccc575090565b3b1562001cd65790565b60405162461bcd60e51b815260206004820152601d60248201527f416464726573733a2063616c6c20746f206e6f6e2d636f6e74726163740000006044820152606490fd5b82519091501562001d2f5750805190602001fd5b60405162461bcd60e51b81526020600482015290819062001d559060248301906200199c565b0390fdfe604060808152610416908138038061001681610218565b93843982019181818403126102135780516001600160a01b038116808203610213576020838101516001600160401b0394919391858211610213570186601f820112156102135780519061007161006c83610253565b610218565b918083528583019886828401011161021357888661008f930161026e565b813b156101b9577f360894a13ba1a3210667c828492db98dca3e2076cc3735a920a3ca505d382bbc80546001600160a01b031916841790556000927fbc7cd75a20ee27fd9adebab32041f755214dbc6bffa90cc0225b39da2e5c2d3b8480a28051158015906101b2575b61010b575b855160d190816103458239f35b855194606086019081118682101761019e578697849283926101889952602788527f416464726573733a206c6f772d6c6576656c2064656c65676174652063616c6c87890152660819985a5b195960ca1b8a8901525190845af4913d15610194573d9061017a61006c83610253565b91825281943d92013e610291565b508038808080806100fe565b5060609250610291565b634e487b7160e01b84526041600452602484fd5b50826100f9565b855162461bcd60e51b815260048101859052602d60248201527f455243313936373a206e657720696d706c656d656e746174696f6e206973206e60448201526c1bdd08184818dbdb9d1c9858dd609a1b6064820152608490fd5b600080fd5b6040519190601f01601f191682016001600160401b0381118382101761023d57604052565b634e487b7160e01b600052604160045260246000fd5b6001600160401b03811161023d57601f01601f191660200190565b60005b8381106102815750506000910152565b8181015183820152602001610271565b919290156102f357508151156102a5575090565b3b156102ae5790565b60405162461bcd60e51b815260206004820152601d60248201527f416464726573733a2063616c6c20746f206e6f6e2d636f6e74726163740000006044820152606490fd5b8251909150156103065750805190602001fd5b6044604051809262461bcd60e51b825260206004830152610336815180928160248601526020868601910161026e565b601f01601f19168101030190fdfe608060405236156054577f360894a13ba1a3210667c828492db98dca3e2076cc3735a920a3ca505d382bbc54600090819081906001600160a01b0316368280378136915af43d82803e156050573d90f35b3d90fd5b7f360894a13ba1a3210667c828492db98dca3e2076cc3735a920a3ca505d382bbc54600090819081906001600160a01b0316368280378136915af43d82803e156050573d90f3fea264697066735822122030ade24792416a57d4529afbb56817b4411c22cc00ef8c3e8e9dd6ea015f4e2564736f6c63430008160033360894a13ba1a3210667c828492db98dca3e2076cc3735a920a3ca505d382bbca2646970667358221220d7a73ab9b6c5f4a0673cea151ed565781d47bea11f1425ea23d4301a0c8cf2f464736f6c63430008160033",
  "linkReferences": {},
  "deployedLinkReferences": {}
}