{
  "_format": "hh-sol-artifact-1",
  "contractName": "TokenFactory_v2",
  "sourceName": "src/contracts/TokenFactory_v2.sol",
  "abi": [
    {
      "inputs": [
        {
          "internalType": "address",
          "name": "_implementation",
          "type": "address"
        }
      ],
      "stateMutability": "nonpayable",
      "type": "constructor"
    },
    {
      "anonymous": false,
      "inputs": [
        {
          "indexed": false,
          "internalType": "address",
          "name": "previousAdmin",
          "type": "address"
        },
        {
          "indexed": false,
          "internalType": "address",
          "name": "newAdmin",
          "type": "address"
        }
      ],
      "name": "AdminChanged",
      "type": "event"
    },
    {
      "anonymous": false,
      "inputs": [
        {
          "indexed": true,
          "internalType": "address",
          "name": "beacon",
          "type": "address"
        }
      ],
      "name": "BeaconUpgraded",
      "type": "event"
    },
    {
      "anonymous": false,
      "inputs": [
        {
          "indexed": true,
          "internalType": "address",
          "name": "user",
          "type": "address"
        },
        {
          "indexed": false,
          "internalType": "uint256",
          "name": "fee",
          "type": "uint256"
        }
      ],
      "name": "CustomDeploymentFeeSet",
      "type": "event"
    },
    {
      "anonymous": false,
      "inputs": [
        {
          "indexed": false,
          "internalType": "uint256",
          "name": "newFee",
          "type": "uint256"
        }
      ],
      "name": "DeploymentFeeUpdated",
      "type": "event"
    },
    {
      "anonymous": false,
      "inputs": [
        {
          "indexed": false,
          "internalType": "uint8",
          "name": "version",
          "type": "uint8"
        }
      ],
      "name": "Initialized",
      "type": "event"
    },
    {
      "anonymous": false,
      "inputs": [
        {
          "indexed": true,
          "internalType": "address",
          "name": "previousOwner",
          "type": "address"
        },
        {
          "indexed": true,
          "internalType": "address",
          "name": "newOwner",
          "type": "address"
        }
      ],
      "name": "OwnershipTransferred",
      "type": "event"
    },
    {
      "anonymous": false,
      "inputs": [
        {
          "indexed": false,
          "internalType": "address",
          "name": "newRecipient",
          "type": "address"
        }
      ],
      "name": "PlatformFeeRecipientUpdated",
      "type": "event"
    },
    {
      "anonymous": false,
      "inputs": [
        {
          "indexed": false,
          "internalType": "uint256",
          "name": "newPercentage",
          "type": "uint256"
        }
      ],
      "name": "PlatformFeeUpdated",
      "type": "event"
    },
    {
      "anonymous": false,
      "inputs": [
        {
          "indexed": false,
          "internalType": "uint256",
          "name": "vestingDuration",
          "type": "uint256"
        },
        {
          "indexed": false,
          "internalType": "uint256",
          "name": "cliffDuration",
          "type": "uint256"
        },
        {
          "indexed": false,
          "internalType": "bool",
          "name": "enabled",
          "type": "bool"
        }
      ],
      "name": "PlatformFeeVestingConfigured",
      "type": "event"
    },
    {
      "anonymous": false,
      "inputs": [
        {
          "indexed": false,
          "internalType": "address",
          "name": "token",
          "type": "address"
        },
        {
          "indexed": false,
          "internalType": "string",
          "name": "name",
          "type": "string"
        },
        {
          "indexed": false,
          "internalType": "string",
          "name": "symbol",
          "type": "string"
        },
        {
          "indexed": false,
          "internalType": "address",
          "name": "owner",
          "type": "address"
        },
        {
          "indexed": false,
          "internalType": "uint256",
          "name": "startTime",
          "type": "uint256"
        },
        {
          "indexed": false,
          "internalType": "uint256",
          "name": "endTime",
          "type": "uint256"
        }
      ],
      "name": "TokenCreated",
      "type": "event"
    },
    {
      "anonymous": false,
      "inputs": [
        {
          "indexed": true,
          "internalType": "address",
          "name": "implementation",
          "type": "address"
        }
      ],
      "name": "Upgraded",
      "type": "event"
    },
    {
      "inputs": [],
      "name": "VERSION",
      "outputs": [
        {
          "internalType": "string",
          "name": "",
          "type": "string"
        }
      ],
      "stateMutability": "view",
      "type": "function"
    },
    {
      "inputs": [
        {
          "internalType": "uint256",
          "name": "_vestingDuration",
          "type": "uint256"
        },
        {
          "internalType": "uint256",
          "name": "_cliffDuration",
          "type": "uint256"
        },
        {
          "internalType": "bool",
          "name": "_enabled",
          "type": "bool"
        }
      ],
      "name": "configurePlatformFeeVesting",
      "outputs": [],
      "stateMutability": "nonpayable",
      "type": "function"
    },
    {
      "inputs": [
        {
          "internalType": "string",
          "name": "name",
          "type": "string"
        },
        {
          "internalType": "string",
          "name": "symbol",
          "type": "string"
        },
        {
          "internalType": "uint256",
          "name": "initialSupply",
          "type": "uint256"
        },
        {
          "internalType": "uint256",
          "name": "maxSupply",
          "type": "uint256"
        },
        {
          "internalType": "bool",
          "name": "enableBlacklist",
          "type": "bool"
        },
        {
          "internalType": "bool",
          "name": "enableTimeLock",
          "type": "bool"
        },
        {
          "internalType": "uint256",
          "name": "presaleRate",
          "type": "uint256"
        },
        {
          "internalType": "uint256",
          "name": "minContribution",
          "type": "uint256"
        },
        {
          "internalType": "uint256",
          "name": "maxContribution",
          "type": "uint256"
        },
        {
          "internalType": "uint256",
          "name": "presaleCap",
          "type": "uint256"
        },
        {
          "internalType": "uint256",
          "name": "startTime",
          "type": "uint256"
        },
        {
          "internalType": "uint256",
          "name": "endTime",
          "type": "uint256"
        }
      ],
      "name": "createToken",
      "outputs": [
        {
          "internalType": "address",
          "name": "",
          "type": "address"
        }
      ],
      "stateMutability": "payable",
      "type": "function"
    },
    {
      "inputs": [
        {
          "internalType": "address",
          "name": "",
          "type": "address"
        }
      ],
      "name": "customDeploymentFees",
      "outputs": [
        {
          "internalType": "uint256",
          "name": "",
          "type": "uint256"
        }
      ],
      "stateMutability": "view",
      "type": "function"
    },
    {
      "inputs": [
        {
          "internalType": "uint256",
          "name": "",
          "type": "uint256"
        }
      ],
      "name": "deployedTokens",
      "outputs": [
        {
          "internalType": "address",
          "name": "",
          "type": "address"
        }
      ],
      "stateMutability": "view",
      "type": "function"
    },
    {
      "inputs": [],
      "name": "deploymentFee",
      "outputs": [
        {
          "internalType": "uint256",
          "name": "",
          "type": "uint256"
        }
      ],
      "stateMutability": "view",
      "type": "function"
    },
    {
      "inputs": [],
      "name": "getDeployedTokens",
      "outputs": [
        {
          "internalType": "address[]",
          "name": "",
          "type": "address[]"
        }
      ],
      "stateMutability": "view",
      "type": "function"
    },
    {
      "inputs": [
        {
          "internalType": "address",
          "name": "_user",
          "type": "address"
        }
      ],
      "name": "getDeploymentFee",
      "outputs": [
        {
          "internalType": "uint256",
          "name": "",
          "type": "uint256"
        }
      ],
      "stateMutability": "view",
      "type": "function"
    },
    {
      "inputs": [],
      "name": "getTemplateImplementation",
      "outputs": [
        {
          "internalType": "address",
          "name": "",
          "type": "address"
        }
      ],
      "stateMutability": "view",
      "type": "function"
    },
    {
      "inputs": [
        {
          "internalType": "uint256",
          "name": "_deploymentFee",
          "type": "uint256"
        }
      ],
      "name": "initialize",
      "outputs": [],
      "stateMutability": "nonpayable",
      "type": "function"
    },
    {
      "inputs": [],
      "name": "owner",
      "outputs": [
        {
          "internalType": "address",
          "name": "",
          "type": "address"
        }
      ],
      "stateMutability": "view",
      "type": "function"
    },
    {
      "inputs": [],
      "name": "platformFeeCliffDuration",
      "outputs": [
        {
          "internalType": "uint256",
          "name": "",
          "type": "uint256"
        }
      ],
      "stateMutability": "view",
      "type": "function"
    },
    {
      "inputs": [],
      "name": "platformFeePercentage",
      "outputs": [
        {
          "internalType": "uint256",
          "name": "",
          "type": "uint256"
        }
      ],
      "stateMutability": "view",
      "type": "function"
    },
    {
      "inputs": [],
      "name": "platformFeeRecipient",
      "outputs": [
        {
          "internalType": "address",
          "name": "",
          "type": "address"
        }
      ],
      "stateMutability": "view",
      "type": "function"
    },
    {
      "inputs": [],
      "name": "platformFeeVestingDuration",
      "outputs": [
        {
          "internalType": "uint256",
          "name": "",
          "type": "uint256"
        }
      ],
      "stateMutability": "view",
      "type": "function"
    },
    {
      "inputs": [],
      "name": "platformFeeVestingEnabled",
      "outputs": [
        {
          "internalType": "bool",
          "name": "",
          "type": "bool"
        }
      ],
      "stateMutability": "view",
      "type": "function"
    },
    {
      "inputs": [],
      "name": "proxiableUUID",
      "outputs": [
        {
          "internalType": "bytes32",
          "name": "",
          "type": "bytes32"
        }
      ],
      "stateMutability": "view",
      "type": "function"
    },
    {
      "inputs": [],
      "name": "renounceOwnership",
      "outputs": [],
      "stateMutability": "nonpayable",
      "type": "function"
    },
    {
      "inputs": [
        {
          "internalType": "address",
          "name": "_user",
          "type": "address"
        },
        {
          "internalType": "uint256",
          "name": "_fee",
          "type": "uint256"
        }
      ],
      "name": "setCustomDeploymentFee",
      "outputs": [],
      "stateMutability": "nonpayable",
      "type": "function"
    },
    {
      "inputs": [
        {
          "internalType": "uint256",
          "name": "_fee",
          "type": "uint256"
        }
      ],
      "name": "setDeploymentFee",
      "outputs": [],
      "stateMutability": "nonpayable",
      "type": "function"
    },
    {
      "inputs": [
        {
          "internalType": "uint256",
          "name": "_percentage",
          "type": "uint256"
        }
      ],
      "name": "setPlatformFeePercentage",
      "outputs": [],
      "stateMutability": "nonpayable",
      "type": "function"
    },
    {
      "inputs": [
        {
          "internalType": "address",
          "name": "_recipient",
          "type": "address"
        }
      ],
      "name": "setPlatformFeeRecipient",
      "outputs": [],
      "stateMutability": "nonpayable",
      "type": "function"
    },
    {
      "inputs": [],
      "name": "tokenImplementation",
      "outputs": [
        {
          "internalType": "contract TokenTemplate_v2",
          "name": "",
          "type": "address"
        }
      ],
      "stateMutability": "view",
      "type": "function"
    },
    {
      "inputs": [
        {
          "internalType": "address",
          "name": "newOwner",
          "type": "address"
        }
      ],
      "name": "transferOwnership",
      "outputs": [],
      "stateMutability": "nonpayable",
      "type": "function"
    },
    {
      "inputs": [
        {
          "internalType": "address",
          "name": "newImplementation",
          "type": "address"
        }
      ],
      "name": "upgradeTo",
      "outputs": [],
      "stateMutability": "nonpayable",
      "type": "function"
    },
    {
      "inputs": [
        {
          "internalType": "address",
          "name": "newImplementation",
          "type": "address"
        },
        {
          "internalType": "bytes",
          "name": "data",
          "type": "bytes"
        }
      ],
      "name": "upgradeToAndCall",
      "outputs": [],
      "stateMutability": "payable",
      "type": "function"
    },
    {
      "inputs": [],
      "name": "withdrawFees",
      "outputs": [],
      "stateMutability": "nonpayable",
      "type": "function"
    }
  ],
  "bytecode": "0x60c06040523462000057576200001e62000018620000fb565b6200014a565b604051612c47620001798239608051818181610e510152611095015260a0518181816103af01528181610bb101526116c90152612c4790f35b600080fd5b634e487b7160e01b600052604160045260246000fd5b90601f01601f191681019081106001600160401b038211176200009457604052565b6200005c565b90620000b1620000a960405190565b928362000072565b565b6001600160a01b031690565b90565b620000cd81620000b3565b036200005757565b90505190620000b182620000c2565b906020828203126200005757620000bf91620000d5565b620000bf62002dc08038038062000112816200009a565b928339810190620000e4565b620000bf90620000b3906001600160a01b031682565b620000bf906200011e565b620000bf9062000134565b6200015f906200015962000164565b6200013f565b60a052565b620000b162000173306200013f565b60805256fe608060405260043610156200001357600080fd5b60003560e01c80630d1ded8914620001f8578063113d478b14620001f25780631652da4214620001ec5780631871e24314620001e65780632f3a3d5d14620001e05780633659cfe614620001da578063420fc21014620001d4578063476343ee14620001ce5780634f1ef28614620001c857806352d1902d14620001c2578063622ae7aa14620001bc578063715018a614620001b657806376b2de0114620001b05780638333903e14620001aa5780638da5cb5b14620001a4578063c05ddda8146200019e578063cbf1208f1462000198578063cdd78cfc1462000192578063d002462b146200018c578063d53401411462000186578063eb13554f1462000180578063ec81aadb146200017a578063f2cff57f1462000174578063f2fde38b146200016e578063fadcac271462000168578063fe4b84df14620001625763ffa1ad7403620001fe5762000b7d565b62000a9f565b62000a6c565b62000a23565b62000a02565b620009d3565b6200094d565b62000905565b620008b1565b62000890565b62000864565b62000823565b620007cf565b620007b2565b62000770565b62000633565b62000605565b62000567565b6200054f565b62000421565b62000400565b620003d5565b62000392565b62000327565b62000306565b6200029b565b62000241565b600080fd5b6000910312620001fe57565b6001600160a01b031690565b90565b62000229906200020f565b9052565b6020810192916200023f91906200021e565b565b34620001fe576200025436600462000203565b6200026f6200026262000bab565b604051918291826200022d565b0390f35b6200021b916008021c81565b906200021b915462000273565b6200021b60006101006200027f565b34620001fe57620002ae36600462000203565b6200026f620002bc6200028c565b6040515b9182918290815260200190565b620002d8816200020f565b03620001fe57565b905035906200023f82620002cd565b90602082820312620001fe576200021b91620002e0565b34620001fe576200026f620002bc62000321366004620002ef565b62000bfa565b34620001fe57620003446200033e366004620002ef565b62000d8a565b604051005b6200021b906200020f906001600160a01b031682565b6200021b9062000349565b6200021b906200035f565b62000229906200036a565b6020810192916200023f919062000375565b34620001fe57620003a536600462000203565b604051806200026f7f00000000000000000000000000000000000000000000000000000000000000008262000380565b34620001fe5762000344620003ec366004620002ef565b62000f11565b6200021b600060ff6200027f565b34620001fe576200041336600462000203565b6200026f620002bc620003f2565b34620001fe576200043436600462000203565b6200034462000fc5565b634e487b7160e01b600052604160045260246000fd5b90601f01601f191681019081106001600160401b038211176200047657604052565b6200043e565b906200023f6200048b60405190565b928362000454565b6001600160401b0381116200047657602090601f01601f19160190565b0190565b90826000939282370152565b90929192620004d9620004d38262000493565b6200047c565b9381855281830111620001fe576200023f916020850190620004b4565b9080601f83011215620001fe578160206200021b93359101620004c0565b919091604081840312620001fe576200052e8382620002e0565b9260208201356001600160401b038111620001fe576200021b9201620004f6565b620003446200056036600462000514565b9062000ffd565b34620001fe576200057a36600462000203565b6200026f620002bc620010fd565b90620004b0816020936200021e565b90620005ba620005b3620005a9845190565b8084529260200190565b9260200190565b9060005b818110620005cc5750505090565b909192620005e9620005e2600192865162000588565b9460200190565b929101620005be565b60208082526200021b9291019062000597565b34620001fe576200061836600462000203565b6200026f62000626620011bc565b60405191829182620005f2565b34620001fe576200064636600462000203565b62000344620011ed565b80620002d8565b905035906200023f8262000650565b801515620002d8565b905035906200023f8262000666565b909161018082840312620001fe5781356001600160401b038111620001fe5783620006ab918401620004f6565b9260208301356001600160401b038111620001fe5781620006ce918501620004f6565b92620006de826040830162000657565b92620006ee836060840162000657565b92620006fe81608085016200066f565b926200070e8260a083016200066f565b926200071e8360c0840162000657565b926200072e8160e0850162000657565b926200073f82610100830162000657565b926200021b6200075484610120850162000657565b936101606200076882610140870162000657565b940162000657565b6200026f62000262620007853660046200067e565b9a99909998919897929796939695949562001789565b90602082820312620001fe576200021b9162000657565b34620001fe5762000344620007c93660046200079b565b6200185f565b34620001fe57620007e236600462000203565b6200026f620002626200186a565b90620007fc906200036a565b600052602052604060002090565b60006200081d6200021b9260fc620007f0565b6200027f565b34620001fe576200026f620002bc6200083e366004620002ef565b6200080a565b9190604083820312620001fe576200021b906020620007688286620002e0565b34620001fe57620003446200087b36600462000844565b90620018de565b6200021b600060fd6200027f565b34620001fe57620008a336600462000203565b6200026f620002bc62000882565b34620001fe5762000344620008c83660046200079b565b6200191b565b9091606082840312620001fe576200021b620008eb848462000657565b936040620008fd826020870162000657565b94016200066f565b34620001fe57620003446200091c366004620008ce565b9162001a32565b6200021b916008021c6200020f565b906200021b915462000923565b6200021b600060fe62000932565b34620001fe576200096036600462000203565b6200026f620002626200093f565b634e487b7160e01b600052603260045260246000fd5b8054821015620009a957620009a0600191600052602060002090565b91020190600090565b6200096e565b6101028054821015620001fe576200021b91620009cc9162000984565b9062000932565b34620001fe576200026f62000262620009ee3660046200079b565b620009af565b6200021b600060fb6200027f565b34620001fe5762000a1536600462000203565b6200026f620002bc620009f4565b34620001fe576200034462000a3a366004620002ef565b62001adc565b6200021b916008021c5b60ff1690565b906200021b915462000a40565b6200021b600061010162000a50565b34620001fe5762000a7f36600462000203565b6200026f62000a8d62000a5d565b60405191829182901515815260200190565b34620001fe576200034462000ab63660046200079b565b62001e49565b9062000acc620004d38362000493565b918252565b62000add600562000abc565b640322e302e360dc1b602082015290565b6200021b62000ad1565b6200021b62000aee565b6200021b62000af8565b60005b83811062000b205750506000910152565b818101518382015260200162000b0f565b62000b5662000b60602093620004b09362000b4a815190565b80835293849260200190565b9586910162000b0c565b601f01601f191690565b60208082526200021b9291019062000b31565b34620001fe5762000b9036600462000203565b6200026f62000b9e62000b02565b6040519182918262000b6a565b6200021b7f00000000000000000000000000000000000000000000000000000000000000006200036a565b6200021b9081565b6200021b905462000bd6565b6200021b6200021b6200021b9290565b62000c1162000c0b8260fc620007f0565b62000bde565b9062000c1e600062000bea565b821190811562000c3c575b506200021b57506200021b60fb62000bde565b905062000c4a600062000bea565b8214908162000c5c575b503862000c29565b62000c6f915062000c0b9060fc620007f0565b62000c8362000c7f600062000bea565b9190565b14153862000c54565b6200023f9062000c9b62001ea6565b62000d36565b6200020f6200021b6200021b9290565b6200021b9062000ca1565b1562000cc457565b60405162461bcd60e51b8152602060048201526011602482015270125b9d985b1a59081c9958da5c1a595b9d607a1b6044820152606490fd5b0390fd5b906001600160a01b03905b9181191691161790565b9062000d2a6200021b62000d32926200036a565b825462000d01565b9055565b62000d8560008051602062002b728339815191529162000d7862000d6562000d5f600062000cb1565b6200020f565b62000d70836200020f565b141562000cbc565b620002628160fe62000d16565b0390a1565b6200023f9062000c8c565b1562000d9d57565b60405162461bcd60e51b815260206004820152602c602482015260008051602062002bd283398151915260448201526b19195b1959d85d1958d85b1b60a21b6064820152608490fd5b1562000dee57565b60405162461bcd60e51b815260206004820152602c602482015260008051602062002bd283398151915260448201526b6163746976652070726f787960a01b6064820152608490fd5b6200023f9062000eaf62000e4b306200036a565b62000e8f7f00000000000000000000000000000000000000000000000000000000000000009162000e8762000e80846200020f565b916200020f565b141562000d95565b62000ea862000e8062000ea162001eca565b926200020f565b1462000de6565b62000ee3565b369037565b906200023f62000ed562000ece8462000abc565b9362000493565b601f19016020840162000eb5565b60006200023f9162000ef58162001ef0565b62000f0a62000f048362000bea565b62000eba565b9062001fab565b6200023f9062000e37565b62000f2662001ea6565b6200023f62000f91565b3d1562000f4d5762000f423d62000abc565b903d6000602084013e565b606090565b1562000f5a57565b60405162461bcd60e51b815260206004820152600f60248201526e151c985b9cd9995c8819985a5b1959608a1b6044820152606490fd5b6200023f60008062000fa3306200036a565b3162000fae60405190565b600091335af162000fbe62000f30565b5062000f52565b6200023f62000f1c565b906200023f9162000fe462000e4b306200036a565b6200023f9160019162000ff78162001ef0565b62001fab565b906200023f9162000fcf565b156200101157565b60405162461bcd60e51b815260206004820152603860248201527f555550535570677261646561626c653a206d757374206e6f742062652063616c6044820152771b1959081d1a1c9bdd59da0819195b1959d85d1958d85b1b60421b6064820152608490fd5b6200021b90620010c16200108b306200036a565b620010ba62000e807f00000000000000000000000000000000000000000000000000000000000000006200020f565b1462001009565b620010f2565b6200021b7f360894a13ba1a3210667c828492db98dca3e2076cc3735a920a3ca505d382bbc62000bea565b506200021b620010c7565b6200021b600062001077565b6200021b906200020f565b6200021b905462001109565b906200113e62001132620005a9845490565b92600052602060002090565b9060005b818110620011505750505090565b909192620011766200116f600192620011698762001114565b62000588565b9460010190565b92910162001142565b906200021b9162001120565b906200023f620011a9926200119f60405190565b938480926200117f565b038362000454565b6200021b906200118b565b6200021b610102620011b1565b620011d362001ea6565b6200023f6200023f620011e7600062000cb1565b620020d7565b6200023f620011c9565b90620012189c9b9a999897969594939291620012126200218a565b62001559565b906200023f620021c6565b156200122b57565b60405162461bcd60e51b815260206004820152601b60248201527a496e73756666696369656e74206465706c6f796d656e742066656560281b6044820152606490fd5b634e487b7160e01b600052601160045260246000fd5b818102929181159184041417156200129857565b6200126e565b634e487b7160e01b600052601260045260246000fd5b8115620012bf570490565b6200129e565b919082039182116200129857565b6200021b9062000a4a565b6200021b9054620012d3565b6200021b6102406200047c565b9062000229906200020f565b906200021b9061022080620013406200132d61024085016000880151868203600088015262000b31565b6020870151858203602087015262000b31565b946200135160408201516040860152565b6200136160608201516060860152565b62001375608082015160808601906200021e565b60a08181015115159085015260c0818101511515908501526200139d60e082015160e0860152565b620013af610100820151610100860152565b620013c1610120820151610120860152565b620013d3610140820151610140860152565b620013e5610160820151610160860152565b620013f7610180820151610180860152565b6200140d6101a08201516101a08601906200021e565b6200141f6101c08201516101c0860152565b6101e0818101511515908501526200143e610200820151610200860152565b0151910152565b60208082526200021b9291019062001303565b916200021b9262001472604082019360008301906200021e565b602081840391015262000b31565b6040513d6000823e3d90fd5b916001600160a01b0360089290920291821b911b62000d0c565b9190620014bb6200021b62000d32936200036a565b9083546200148c565b80549190600160401b831015620004765782620014eb9160016200023f9501815562000984565b90620014a6565b91946200154e6200154260a0956200153362001555956200023f9a9c9b999c6200152560c08a019260008b01906200021e565b88820360208a015262000b31565b90868203604088015262000b31565b9860608501906200021e565b6080830152565b0152565b50999a9998909788978a9794959394620015733362000bfa565b341015620015819062001223565b6200158d60fd62000bde565b62001599908762001284565b620015a661271062000bea565b620015b191620012b4565b9586620015be91620012c5565b97620015cb60fe62001114565b95620015d9610101620012de565b98620015e660ff62000bde565b9a620015f461010062000bde565b9c620015ff620012ea565b908152602081019e909e5260408e015260608d0152620016233360808e01620012f7565b151560a08c0152151560c08b015260e08a0152610100890152610120880152610140870152620016558a610160880152565b6200166289610180880152565b62001672906101a08701620012f7565b6101c085015215156101e08401526102008301526102208201526040516394cf687360e01b6020820152908190620016ae906024830162001445565b602082018103825203620016c3908262000454565b620016ee7f00000000000000000000000000000000000000000000000000000000000000006200036a565b604051916105e98301906001600160401b038211848310176200047657839262001721926105e962002589863962001458565b03906000f0801562001783577f42bbfbb52e42e649ec7c181638a6969b047f19faae102187a8957860d5284b7a936200175e6200177d926200036a565b956200176d87610102620014c4565b60405194859433918987620014f2565b0390a190565b62001480565b6200021b9b9a999897969594939291906000620011f7565b6200023f90620017b062001ea6565b62001823565b15620017be57565b60405162461bcd60e51b81526020600482015260166024820152754665652063616e6e6f7420657863656564203130302560501b6044820152606490fd5b906000199062000d0c565b906200181b6200021b62000d329262000bea565b8254620017fc565b62000d8560008051602062002b9283398151915291620018526200184961271062000bea565b821115620017b6565b620002bc8160fd62001807565b6200023f90620017a1565b6200021b603362001114565b906200023f916200188662001ea6565b620018d9620018ce7f035250ff587e06567c2fa9d4b3191805958a937530b0e88cfce4c9c4dcdef1b392620018c885620018c28360fc620007f0565b62001807565b6200036a565b92620002c060405190565b0390a2565b906200023f9162001876565b6200023f90620018f962001ea6565b62000d8560008051602062002bb283398151915291620002bc8160fb62001807565b6200023f90620018ea565b906200023f92916200193762001ea6565b620019d2565b156200194557565b60405162461bcd60e51b8152602060048201526019602482015278436c696666206c6f6e676572207468616e2076657374696e6760381b6044820152606490fd5b9060ff9062000d0c565b90620019a36200021b62000d3292151590565b825462001986565b9081526060810193926200023f929091604091620019ca906020830152565b019015159052565b62000d8560008051602062002bf283398151915293620019fc620019f38490565b8511156200193d565b62001a098360ff62001807565b62001a178461010062001807565b62001a258161010162001990565b60405193849384620019ab565b906200023f929162001926565b6200023f9062001a4e62001ea6565b62001ab0565b1562001a5c57565b60405162461bcd60e51b815260206004820152602660248201527f4f776e61626c653a206e6577206f776e657220697320746865207a65726f206160448201526564647265737360d01b6064820152608490fd5b6200023f90620011e762001ac962000d5f600062000cb1565b62001ad4836200020f565b141562001a54565b6200023f9062001a3f565b6200021b9060081c62000a4a565b6200021b905462001ae7565b62000a4a6200021b6200021b9290565b1562001b1957565b60405162461bcd60e51b815260206004820152602e60248201527f496e697469616c697a61626c653a20636f6e747261637420697320616c72656160448201526d191e481a5b9a5d1a585b1a5e995960921b6064820152608490fd5b62000a4a6200021b6200021b9260ff1690565b90620019a36200021b62000d329262001b75565b9061ff009060081b62000d0c565b9062001bbd6200021b62000d3292151590565b825462001b9c565b620002299062001b01565b6020810192916200023f919062001bc5565b62001c3a62001bfa62001bf6600062001af5565b1590565b91828062001ced575b801562001c9b575b62001c169062001b11565b8262001c2f62001c27600162001b01565b600062001b88565b62001c875762001d11565b62001c4157565b62001c4e60008062001baa565b7f7f26b83ff96e1f2b6a682f133852f6798a09c465da95921460cefb384740249862001c7960405190565b8062000d8560018262001bd0565b62001c956001600062001baa565b62001d11565b5062001cb562001bf662001caf306200036a565b620021d4565b801562001c0b575062001c1662001ccd6000620012de565b62001ce462001cdd600162001b01565b9160ff1690565b14905062001c0b565b5062001cfa6000620012de565b62001d0a62001cdd600162001b01565b1062001c03565b62001dc560008051602062002bb28339815191529162001d306200226e565b62001d3a62002288565b62001d44620022b0565b62001d518160fb62001807565b62001d6a62001d626101f462000bea565b60fd62001807565b62001d8062001d786200186a565b60fe62000d16565b62001d9b62001d936301e1338062000bea565b60ff62001807565b62001db662001dad6276a70062000bea565b61010062001807565b620002bc600161010162001990565b0390a160008051602062002b9283398151915262001de8620002bc60fd62000bde565b0390a160008051602062002b7283398151915262001e0b6200026260fe62001114565b0390a160008051602062002bf283398151915262001e2a60ff62000bde565b62001e3761010062000bde565b9062000d8562001a25610101620012de565b6200023f9062001be2565b1562001e5c57565b60405162461bcd60e51b81528062000cfd600482016020808252818101527f4f776e61626c653a2063616c6c6572206973206e6f7420746865206f776e6572604082015260600190565b6200023f62001eb46200186a565b62001ec362000e80336200020f565b1462001e54565b6200021b600062001ede6200021b620010c7565b0162001114565b506200023f62001ea6565b6200023f9062001ee5565b6200021b7f4910fdfa16fed3260ed0e7147f7cc6da11a60208b5b9406d12a635614ffd914362000bea565b905051906200023f8262000650565b90602082820312620001fe576200021b9162001f26565b1562001f5457565b60405162461bcd60e51b815260206004820152602960248201527f45524331393637557067726164653a20756e737570706f727465642070726f786044820152681a58589b195555525160ba1b6064820152608490fd5b919062001fc8600062001fc16200021b62001efb565b01620012de565b1562001fdb5750506200023f9062002366565b62001fea620018c8846200036a565b92602062001ff760405190565b6352d1902d60e01b815294859060049082905afa600094816200209f575b50620020775760405162461bcd60e51b815260206004820152602e60248201527f45524331393637557067726164653a206e657720696d706c656d656e7461746960448201526d6f6e206973206e6f74205555505360901b6064820152608490fd5b620020996200023f946200209262000c7f6200021b620010c7565b1462001f4c565b620022ba565b620020c791955060203d602011620020cf575b620020be818362000454565b81019062001f35565b933862002015565b503d620020b2565b620020ff620020f8620020eb603362001114565b620018c884603362000d16565b916200036a565b907f8be0079c531659141344cd1fd0a4f28419497f9722a3daafe3b4186f6b6457e06200212b60405190565b600090a3565b6200021b600262000bea565b156200214557565b60405162461bcd60e51b815260206004820152601f60248201527f5265656e7472616e637947756172643a207265656e7472616e742063616c6c006044820152606490fd5b6200023f6200219a60c962000bde565b620021b2620021a862002131565b918214156200213d565b60c962001807565b6200021b600162000bea565b6200023f620021b2620021ba565b3b620021e562000c7f600062000bea565b1190565b15620021f157565b60405162461bcd60e51b815260206004820152602b60248201527f496e697469616c697a61626c653a20636f6e7472616374206973206e6f74206960448201526a6e697469616c697a696e6760a81b6064820152608490fd5b620022606200225a600062001af5565b620021e9565b6200023f6200023f620023b3565b6200023f6200224a565b6200023f6200225a600062001af5565b6200023f62002278565b620022a26200225a600062001af5565b6200023f6200023f620023d7565b6200023f62002292565b91620022c683620023e1565b8151620022d862000c7f600062000bea565b11908115620022fa575b50620022ec575050565b620022f79162002473565b50565b905038620022e2565b156200230b57565b60405162461bcd60e51b815260206004820152602d60248201527f455243313936373a206e657720696d706c656d656e746174696f6e206973206e60448201526c1bdd08184818dbdb9d1c9858dd609a1b6064820152608490fd5b6200023f90620023806200237a82620021d4565b62002303565b6000620023906200021b620010c7565b0162000d16565b620023a76200225a600062001af5565b6200023f8033620020d7565b6200023f62002397565b620023cd6200225a600062001af5565b6200023f620021c6565b6200023f620023bd565b620023f190620018c88162002366565b7fbc7cd75a20ee27fd9adebab32041f755214dbc6bffa90cc0225b39da2e5c2d3b6200241c60405190565b8080620018d9565b62002430602762000abc565b7f416464726573733a206c6f772d6c6576656c2064656c65676174652063616c6c6020820152660819985a5b195960ca1b604082015290565b6200021b62002424565b6200021b916200248262002469565b916000806200021b949362002495606090565b50602081519101845af4620024a962000f30565b91620024fd565b15620024b857565b60405162461bcd60e51b815260206004820152601d60248201527f416464726573733a2063616c6c20746f206e6f6e2d636f6e74726163740000006044820152606490fd5b9192901562002538575081516200251962000c7f600062000bea565b1462002523575090565b620025326200021b91620021d4565b620024b0565b829062002543825190565b6200255362000c7f600062000bea565b1115620025635750805190602001fd5b62000cfd906200257260405190565b62461bcd60e51b81529182916004830162000b6a56fe608060405261001561000f61016a565b9061018c565b60405160c3610526823960c390f35b634e487b7160e01b600052604160045260246000fd5b90601f01601f191681019081106001600160401b0382111761005b57604052565b610024565b9061007461006d60405190565b928361003a565b565b6001600160a01b031690565b90565b61008e81610076565b0361009557565b600080fd5b9050519061007482610085565b6001600160401b03811161005b57602090601f01601f19160190565b0190565b60005b8381106100da5750506000910152565b81810151838201526020016100ca565b909291926100ff6100fa826100a7565b610060565b9381855281830111610095576100749160208501906100c7565b9080601f83011215610095578151610082926020016100ea565b9190916040818403126100955761014a838261009a565b60208201519093906001600160401b038111610095576100829201610119565b6101886105e98038038061017d81610060565b928339810190610133565b9091565b610074916000916101a5565b6100826100826100829290565b916101af8361020e565b81516101c26101be6000610198565b9190565b119081156101e0575b506101d4575050565b6101dd916102ad565b50565b9050386101cb565b61008290610076906001600160a01b031682565b610082906101e8565b610082906101fc565b6102209061021b81610389565b610205565b7fbc7cd75a20ee27fd9adebab32041f755214dbc6bffa90cc0225b39da2e5c2d3b61024a60405190565b600090a2565b9061025d6100fa836100a7565b918252565b61026c6027610250565b7f416464726573733a206c6f772d6c6576656c2064656c65676174652063616c6c6020820152660819985a5b195960ca1b604082015290565b610082610262565b610082916102b96102a5565b916103d0565b6020808252602d908201527f455243313936373a206e657720696d706c656d656e746174696f6e206973206e60408201526c1bdd08184818dbdb9d1c9858dd609a1b606082015260800190565b1561031357565b60405162461bcd60e51b81528061032c600482016102bf565b0390fd5b6100827f360894a13ba1a3210667c828492db98dca3e2076cc3735a920a3ca505d382bbc610198565b9061036961008261038592610205565b82546001600160a01b0319166001600160a01b03919091161790565b9055565b6100749061039e610399826103f8565b61030c565b60006103ab610082610330565b01610359565b3d156103cb576103c03d610250565b903d6000602084013e565b606090565b60008061008294936103e0606090565b50602081519101845af46103f26103b1565b91610461565b3b6104066101be6000610198565b1190565b6020808252601d908201527f416464726573733a2063616c6c20746f206e6f6e2d636f6e7472616374000000604082015260600190565b1561044857565b60405162461bcd60e51b81528061032c6004820161040a565b91929015610493575081516104796101be6000610198565b14610482575090565b61048e610082916103f8565b610441565b826104de565b6104ba6104c36020936100c3936104ae815190565b80835293849260200190565b958691016100c7565b601f01601f191690565b602080825261008292910190610499565b906104e7825190565b6104f46101be6000610198565b11156105035750805190602001fd5b61032c9061051060405190565b62461bcd60e51b8152918291600483016104cd56fe6080604052600a600e565b6017565b6014607c565b90565b60008091368280378136915af43d6000803e156032573d6000f35b3d6000fd5b6014601460149290565b60147f360894a13ba1a3210667c828492db98dca3e2076cc3735a920a3ca505d382bbc6037565b6001600160a01b031690565b601490546068565b60146000608860146041565b01607456fea26469706673582212200ad4ac51629ce32ff36896c3191fd47fcb9b0a0892e6281467f168c50548841064736f6c63430008160033ba887708e7d4436dd36b62187bdced03e0b9abe66caf392a66dd84386641b20945610d581145924dd7090a5017e5f2b1d6f42213bb2e95707ff86846bbfcb1ca40bd824d588484917db8fa4fc894c1e0feae5a75885290ba7b97521cebf82a8046756e6374696f6e206d7573742062652063616c6c6564207468726f75676820d7ff7274b03e3eff3f5e3f308cc4b76fd937a992c26cb91a80e328dce4ab3338a26469706673582212202ae6f3821b60ad0049f11d8c85b9eb83e2a609f7f3d144f0e0d1e5a3efe7227b64736f6c63430008160033",
  "linkReferences": {},
  "deployedLinkReferences": {}
}