{
  "_format": "hh-sol-artifact-1",
  "contractName": "TokenFactory_v2",
  "sourceName": "src/contracts/TokenFactory_v2.sol",
  "abi": [
    {
      "inputs": [
        {
          "internalType": "address",
          "name": "_implementation",
          "type": "address"
        }
      ],
      "stateMutability": "nonpayable",
      "type": "constructor"
    },
    {
      "anonymous": false,
      "inputs": [
        {
          "indexed": false,
          "internalType": "address",
          "name": "previousAdmin",
          "type": "address"
        },
        {
          "indexed": false,
          "internalType": "address",
          "name": "newAdmin",
          "type": "address"
        }
      ],
      "name": "AdminChanged",
      "type": "event"
    },
    {
      "anonymous": false,
      "inputs": [
        {
          "indexed": true,
          "internalType": "address",
          "name": "beacon",
          "type": "address"
        }
      ],
      "name": "BeaconUpgraded",
      "type": "event"
    },
    {
      "anonymous": false,
      "inputs": [
        {
          "indexed": true,
          "internalType": "address",
          "name": "user",
          "type": "address"
        },
        {
          "indexed": false,
          "internalType": "uint256",
          "name": "fee",
          "type": "uint256"
        }
      ],
      "name": "CustomDeploymentFeeSet",
      "type": "event"
    },
    {
      "anonymous": false,
      "inputs": [
        {
          "indexed": false,
          "internalType": "uint256",
          "name": "newFee",
          "type": "uint256"
        }
      ],
      "name": "DeploymentFeeUpdated",
      "type": "event"
    },
    {
      "anonymous": false,
      "inputs": [
        {
          "indexed": false,
          "internalType": "uint8",
          "name": "version",
          "type": "uint8"
        }
      ],
      "name": "Initialized",
      "type": "event"
    },
    {
      "anonymous": false,
      "inputs": [
        {
          "indexed": true,
          "internalType": "address",
          "name": "previousOwner",
          "type": "address"
        },
        {
          "indexed": true,
          "internalType": "address",
          "name": "newOwner",
          "type": "address"
        }
      ],
      "name": "OwnershipTransferred",
      "type": "event"
    },
    {
      "anonymous": false,
      "inputs": [
        {
          "indexed": false,
          "internalType": "address",
          "name": "newRecipient",
          "type": "address"
        }
      ],
      "name": "PlatformFeeRecipientUpdated",
      "type": "event"
    },
    {
      "anonymous": false,
      "inputs": [
        {
          "indexed": false,
          "internalType": "uint256",
          "name": "newPercentage",
          "type": "uint256"
        }
      ],
      "name": "PlatformFeeUpdated",
      "type": "event"
    },
    {
      "anonymous": false,
      "inputs": [
        {
          "indexed": false,
          "internalType": "uint256",
          "name": "vestingDuration",
          "type": "uint256"
        },
        {
          "indexed": false,
          "internalType": "uint256",
          "name": "cliffDuration",
          "type": "uint256"
        },
        {
          "indexed": false,
          "internalType": "bool",
          "name": "enabled",
          "type": "bool"
        }
      ],
      "name": "PlatformFeeVestingConfigured",
      "type": "event"
    },
    {
      "anonymous": false,
      "inputs": [
        {
          "indexed": false,
          "internalType": "address",
          "name": "token",
          "type": "address"
        },
        {
          "indexed": false,
          "internalType": "string",
          "name": "name",
          "type": "string"
        },
        {
          "indexed": false,
          "internalType": "string",
          "name": "symbol",
          "type": "string"
        },
        {
          "indexed": false,
          "internalType": "address",
          "name": "owner",
          "type": "address"
        },
        {
          "indexed": false,
          "internalType": "uint256",
          "name": "startTime",
          "type": "uint256"
        },
        {
          "indexed": false,
          "internalType": "uint256",
          "name": "endTime",
          "type": "uint256"
        }
      ],
      "name": "TokenCreated",
      "type": "event"
    },
    {
      "anonymous": false,
      "inputs": [
        {
          "indexed": true,
          "internalType": "address",
          "name": "implementation",
          "type": "address"
        }
      ],
      "name": "Upgraded",
      "type": "event"
    },
    {
      "inputs": [],
      "name": "VERSION",
      "outputs": [
        {
          "internalType": "string",
          "name": "",
          "type": "string"
        }
      ],
      "stateMutability": "view",
      "type": "function"
    },
    {
      "inputs": [
        {
          "internalType": "uint256",
          "name": "_vestingDuration",
          "type": "uint256"
        },
        {
          "internalType": "uint256",
          "name": "_cliffDuration",
          "type": "uint256"
        },
        {
          "internalType": "bool",
          "name": "_enabled",
          "type": "bool"
        }
      ],
      "name": "configurePlatformFeeVesting",
      "outputs": [],
      "stateMutability": "nonpayable",
      "type": "function"
    },
    {
      "inputs": [
        {
          "internalType": "string",
          "name": "name",
          "type": "string"
        },
        {
          "internalType": "string",
          "name": "symbol",
          "type": "string"
        },
        {
          "internalType": "uint256",
          "name": "initialSupply",
          "type": "uint256"
        },
        {
          "internalType": "uint256",
          "name": "maxSupply",
          "type": "uint256"
        },
        {
          "internalType": "bool",
          "name": "enableBlacklist",
          "type": "bool"
        },
        {
          "internalType": "bool",
          "name": "enableTimeLock",
          "type": "bool"
        },
        {
          "internalType": "uint256",
          "name": "presaleRate",
          "type": "uint256"
        },
        {
          "internalType": "uint256",
          "name": "minContribution",
          "type": "uint256"
        },
        {
          "internalType": "uint256",
          "name": "maxContribution",
          "type": "uint256"
        },
        {
          "internalType": "uint256",
          "name": "presaleCap",
          "type": "uint256"
        },
        {
          "internalType": "uint256",
          "name": "startTime",
          "type": "uint256"
        },
        {
          "internalType": "uint256",
          "name": "endTime",
          "type": "uint256"
        }
      ],
      "name": "createToken",
      "outputs": [
        {
          "internalType": "address",
          "name": "",
          "type": "address"
        }
      ],
      "stateMutability": "payable",
      "type": "function"
    },
    {
      "inputs": [
        {
          "internalType": "address",
          "name": "",
          "type": "address"
        }
      ],
      "name": "customDeploymentFees",
      "outputs": [
        {
          "internalType": "uint256",
          "name": "",
          "type": "uint256"
        }
      ],
      "stateMutability": "view",
      "type": "function"
    },
    {
      "inputs": [
        {
          "internalType": "uint256",
          "name": "",
          "type": "uint256"
        }
      ],
      "name": "deployedTokens",
      "outputs": [
        {
          "internalType": "address",
          "name": "",
          "type": "address"
        }
      ],
      "stateMutability": "view",
      "type": "function"
    },
    {
      "inputs": [],
      "name": "deploymentFee",
      "outputs": [
        {
          "internalType": "uint256",
          "name": "",
          "type": "uint256"
        }
      ],
      "stateMutability": "view",
      "type": "function"
    },
    {
      "inputs": [],
      "name": "getDeployedTokens",
      "outputs": [
        {
          "internalType": "address[]",
          "name": "",
          "type": "address[]"
        }
      ],
      "stateMutability": "view",
      "type": "function"
    },
    {
      "inputs": [
        {
          "internalType": "address",
          "name": "_user",
          "type": "address"
        }
      ],
      "name": "getDeploymentFee",
      "outputs": [
        {
          "internalType": "uint256",
          "name": "",
          "type": "uint256"
        }
      ],
      "stateMutability": "view",
      "type": "function"
    },
    {
      "inputs": [],
      "name": "getTemplateImplementation",
      "outputs": [
        {
          "internalType": "address",
          "name": "",
          "type": "address"
        }
      ],
      "stateMutability": "view",
      "type": "function"
    },
    {
      "inputs": [
        {
          "internalType": "uint256",
          "name": "_deploymentFee",
          "type": "uint256"
        }
      ],
      "name": "initialize",
      "outputs": [],
      "stateMutability": "nonpayable",
      "type": "function"
    },
    {
      "inputs": [],
      "name": "owner",
      "outputs": [
        {
          "internalType": "address",
          "name": "",
          "type": "address"
        }
      ],
      "stateMutability": "view",
      "type": "function"
    },
    {
      "inputs": [],
      "name": "platformFeeCliffDuration",
      "outputs": [
        {
          "internalType": "uint256",
          "name": "",
          "type": "uint256"
        }
      ],
      "stateMutability": "view",
      "type": "function"
    },
    {
      "inputs": [],
      "name": "platformFeePercentage",
      "outputs": [
        {
          "internalType": "uint256",
          "name": "",
          "type": "uint256"
        }
      ],
      "stateMutability": "view",
      "type": "function"
    },
    {
      "inputs": [],
      "name": "platformFeeRecipient",
      "outputs": [
        {
          "internalType": "address",
          "name": "",
          "type": "address"
        }
      ],
      "stateMutability": "view",
      "type": "function"
    },
    {
      "inputs": [],
      "name": "platformFeeVestingDuration",
      "outputs": [
        {
          "internalType": "uint256",
          "name": "",
          "type": "uint256"
        }
      ],
      "stateMutability": "view",
      "type": "function"
    },
    {
      "inputs": [],
      "name": "platformFeeVestingEnabled",
      "outputs": [
        {
          "internalType": "bool",
          "name": "",
          "type": "bool"
        }
      ],
      "stateMutability": "view",
      "type": "function"
    },
    {
      "inputs": [],
      "name": "proxiableUUID",
      "outputs": [
        {
          "internalType": "bytes32",
          "name": "",
          "type": "bytes32"
        }
      ],
      "stateMutability": "view",
      "type": "function"
    },
    {
      "inputs": [],
      "name": "renounceOwnership",
      "outputs": [],
      "stateMutability": "nonpayable",
      "type": "function"
    },
    {
      "inputs": [
        {
          "internalType": "address",
          "name": "_user",
          "type": "address"
        },
        {
          "internalType": "uint256",
          "name": "_fee",
          "type": "uint256"
        }
      ],
      "name": "setCustomDeploymentFee",
      "outputs": [],
      "stateMutability": "nonpayable",
      "type": "function"
    },
    {
      "inputs": [
        {
          "internalType": "uint256",
          "name": "_fee",
          "type": "uint256"
        }
      ],
      "name": "setDeploymentFee",
      "outputs": [],
      "stateMutability": "nonpayable",
      "type": "function"
    },
    {
      "inputs": [
        {
          "internalType": "uint256",
          "name": "_percentage",
          "type": "uint256"
        }
      ],
      "name": "setPlatformFeePercentage",
      "outputs": [],
      "stateMutability": "nonpayable",
      "type": "function"
    },
    {
      "inputs": [
        {
          "internalType": "address",
          "name": "_recipient",
          "type": "address"
        }
      ],
      "name": "setPlatformFeeRecipient",
      "outputs": [],
      "stateMutability": "nonpayable",
      "type": "function"
    },
    {
      "inputs": [],
      "name": "tokenImplementation",
      "outputs": [
        {
          "internalType": "contract TokenTemplate_v2",
          "name": "",
          "type": "address"
        }
      ],
      "stateMutability": "view",
      "type": "function"
    },
    {
      "inputs": [
        {
          "internalType": "address",
          "name": "newOwner",
          "type": "address"
        }
      ],
      "name": "transferOwnership",
      "outputs": [],
      "stateMutability": "nonpayable",
      "type": "function"
    },
    {
      "inputs": [
        {
          "internalType": "address",
          "name": "newImplementation",
          "type": "address"
        }
      ],
      "name": "upgradeTo",
      "outputs": [],
      "stateMutability": "nonpayable",
      "type": "function"
    },
    {
      "inputs": [
        {
          "internalType": "address",
          "name": "newImplementation",
          "type": "address"
        },
        {
          "internalType": "bytes",
          "name": "data",
          "type": "bytes"
        }
      ],
      "name": "upgradeToAndCall",
      "outputs": [],
      "stateMutability": "payable",
      "type": "function"
    },
    {
      "inputs": [],
      "name": "withdrawFees",
      "outputs": [],
      "stateMutability": "nonpayable",
      "type": "function"
    }
  ],
  "bytecode": "0x60c03461009557601f61206d38819003918201601f19168301916001600160401b0383118484101761009a5780849260209460405283398101031261009557516001600160a01b03811690819003610095573060805260a052604051611fbc90816100b18239608051818181610e3d01528181610f470152611262015260a051818181610b3c015281816114f901526116450152f35b600080fd5b634e487b7160e01b600052604160045260246000fdfe60808060405260043610156200001457600080fd5b60003560e01c9081630d1ded89146200163057508063113d478b146200160f5780631652da4214620015de5780631871e24314620015285780632f3a3d5d14620014e15780633659cfe6146200123a578063420fc210146200121a578063476343ee14620011aa5780634f1ef2861462000ef057806352d1902d1462000e28578063622ae7aa1462000d57578063715018a61462000cf657806376b2de0114620008565780638333903e14620007bd5780638da5cb5b1462000792578063c05ddda81462000754578063cbf1208f14620006e3578063cdd78cfc14620006c3578063d002462b1462000673578063d534014114620005a3578063eb13554f1462000578578063ec81aadb1462000530578063f2cff57f1462000510578063f2fde38b1462000478578063fadcac271462000452578063fe4b84df14620001e15763ffa1ad74146200016457600080fd5b34620001dc576000366003190112620001dc57604051604081019080821067ffffffffffffffff831117620001c657620001c29160405260058152640322e302e360dc1b602082015260405191829160208352602083019062001793565b0390f35b634e487b7160e01b600052604160045260246000fd5b600080fd5b34620001dc57602080600319360112620001dc576004359060005460ff808260081c16159182809362000445575b80156200042d575b15620003d1577fd7ff7274b03e3eff3f5e3f308cc4b76fd937a992c26cb91a80e328dce4ab33389160609160ff199085600183831617600055620003be575b50620002748260005460081c166200026e81620019ba565b620019ba565b6200027f3362001971565b7fba887708e7d4436dd36b62187bdced03e0b9abe66caf392a66dd84386641b2098660005498620002c5858b60081c16620002ba81620019ba565b6200026e81620019ba565b600160c9558060fb557f45610d581145924dd7090a5017e5f2b1d6f42213bb2e95707ff86846bbfcb1ca826101f48060fd557f40bd824d588484917db8fa4fc894c1e0feae5a75885290ba7b97521cebf82a808260018060a01b036033541695866bffffffffffffffffffffffff60a01b60fe54161760fe556301e13380809b556276a700998a61010055600161010191825416179055604051908152a1604051908152a1604051908152a16040519182528582015260016040820152a16200038a57005b7f7f26b83ff96e1f2b6a682f133852f6798a09c465da95921460cefb38474024989161ff00191660005560405160018152a1005b61ffff1916610101176000558762000256565b60405162461bcd60e51b815260048101859052602e60248201527f496e697469616c697a61626c653a20636f6e747261637420697320616c72656160448201526d191e481a5b9a5d1a585b1a5e995960921b6064820152608490fd5b50303b15801562000217575060018282161462000217565b506001828216106200020f565b34620001dc576000366003190112620001dc57602060ff61010154166040519015158152f35b34620001dc576020366003190112620001dc576200049562001674565b6200049f62001918565b6001600160a01b03811615620004bc57620004ba9062001971565b005b60405162461bcd60e51b815260206004820152602660248201527f4f776e61626c653a206e6577206f776e657220697320746865207a65726f206160448201526564647265737360d01b6064820152608490fd5b34620001dc576000366003190112620001dc57602060fb54604051908152f35b34620001dc576020366003190112620001dc5760043561010254811015620001dc576200055f60209162001745565b905460405160039290921b1c6001600160a01b03168152f35b34620001dc576000366003190112620001dc5760fe546040516001600160a01b039091168152602090f35b34620001dc576060366003190112620001dc5760043560243560443591821515809303620001dc57620005d562001918565b8082116200062e577fd7ff7274b03e3eff3f5e3f308cc4b76fd937a992c26cb91a80e328dce4ab3338926060928260ff55806101005561010160ff1981541660ff841617905560405192835260208301526040820152a1005b60405162461bcd60e51b815260206004820152601960248201527f436c696666206c6f6e676572207468616e2076657374696e67000000000000006044820152606490fd5b34620001dc576020366003190112620001dc577f40bd824d588484917db8fa4fc894c1e0feae5a75885290ba7b97521cebf82a806020600435620006b662001918565b8060fb55604051908152a1005b34620001dc576000366003190112620001dc57602060fd54604051908152f35b34620001dc576040366003190112620001dc576200070062001674565b7f035250ff587e06567c2fa9d4b3191805958a937530b0e88cfce4c9c4dcdef1b36020602435926200073162001918565b6001600160a01b0316600081815260fc83526040908190208590555193845292a2005b34620001dc576020366003190112620001dc576001600160a01b036200077962001674565b1660005260fc6020526020604060002054604051908152f35b34620001dc576000366003190112620001dc576033546040516001600160a01b039091168152602090f35b34620001dc576020366003190112620001dc57600435620007dd62001918565b612710811162000818576020817f45610d581145924dd7090a5017e5f2b1d6f42213bb2e95707ff86846bbfcb1ca9260fd55604051908152a1005b60405162461bcd60e51b81526020600482015260166024820152754665652063616e6e6f7420657863656564203130302560501b6044820152606490fd5b610180366003190112620001dc5760043567ffffffffffffffff8111620001dc576200088790369060040162001724565b60243567ffffffffffffffff8111620001dc57620008aa90369060040162001724565b6084358015158103620001dc5760a435908115158203620001dc57600260c9541462000cb157600260c955620008e033620017d5565b341062000c6c5760fd5460443580820291811591830414171562000c5657604435612710820481031162000c565760018060a01b0360fe54169160ff61010154169060ff54926101005494604051968761024081011067ffffffffffffffff6102408a011117620001c6576127109361024089016040528a89528960208a01528484046044350360408a015260643560608a01523360808a0152151560a0890152151560c088015260c43560e088015260e435610100880152610104356101208801526101243561014088015261014435610160880152610164356101808801526101a0870152046101c085015215156101e084015261020083015261022082015262000b0b60405180926394cf687360e01b60208301526020602483015261022062000a3762000a208351610240604487015261028486019062001793565b602084015185820360431901606487015262001793565b60408301516084850152606083015160a485015260808301516001600160a01b0390811660c486015260a0840151151560e486015260c0840151151561010486015260e08401516101248601526101008401516101448601526101208401516101648601526101408401516101848601526101608401516101a48601526101808401516101c48601526101a0840151166101e48501526101c08301516102048501526101e0830151151561022485015261020083015161024485015291015161026483015203601f198101835282620016a8565b60405190610416908183019083821067ffffffffffffffff831117620001c657604062000b7592859462001b5186397f00000000000000000000000000000000000000000000000000000000000000006001600160a01b0316815260208101829052019062001793565b03906000f0801562000c4a5760018060a01b03169061010280549368010000000000000000851015620001c65762000c227f42bbfbb52e42e649ec7c181638a6969b047f19faae102187a8957860d5284b7a9362000be08762000c1395600160209a01905562001745565b81549060031b9088821b9160018060a01b03901b191617905560405193849387855260c08986015260c085019062001793565b90838203604085015262001793565b3360608301526101443560808301526101643560a08301520390a1600160c955604051908152f35b6040513d6000823e3d90fd5b634e487b7160e01b600052601160045260246000fd5b60405162461bcd60e51b815260206004820152601b60248201527f496e73756666696369656e74206465706c6f796d656e742066656500000000006044820152606490fd5b60405162461bcd60e51b815260206004820152601f60248201527f5265656e7472616e637947756172643a207265656e7472616e742063616c6c006044820152606490fd5b34620001dc576000366003190112620001dc5762000d1362001918565b603380546001600160a01b031981169091556000906001600160a01b03167f8be0079c531659141344cd1fd0a4f28419497f9722a3daafe3b4186f6b6457e08280a3005b34620001dc576000366003190112620001dc5760405180610102805480845260208094019081926000527f93bdaa6a4190909b7c3fbe8d42169ffe1cab19f51dfc8db24c71abf849eced4a9060005b8682821062000e0a57868662000dbf82880383620016a8565b604051928392818401908285525180915260408401929160005b82811062000de957505050500390f35b83516001600160a01b03168552869550938101939281019260010162000dd9565b83546001600160a01b03168552909301926001928301920162000da6565b34620001dc576000366003190112620001dc577f00000000000000000000000000000000000000000000000000000000000000006001600160a01b0316300362000e8557602060405160008051602062001f678339815191528152f35b60405162461bcd60e51b815260206004820152603860248201527f555550535570677261646561626c653a206d757374206e6f742062652063616c60448201527f6c6564207468726f7567682064656c656761746563616c6c00000000000000006064820152608490fd5b6040366003190112620001dc5762000f0762001674565b60243567ffffffffffffffff8111620001dc5736602382011215620001dc5762000f3c903690602481600401359101620016e8565b906001600160a01b037f000000000000000000000000000000000000000000000000000000000000000081169062000f77308314156200181f565b62000f9760008051602062001f6783398151915292828454161462001881565b62000fa162001918565b7f4910fdfa16fed3260ed0e7147f7cc6da11a60208b5b9406d12a635614ffd91435460ff161562000fda575050620004ba915062001a1b565b6040516352d1902d60e01b81526020939291831691908481600481865afa6000918162001175575b50620010645760405162461bcd60e51b815260048101869052602e60248201527f45524331393637557067726164653a206e657720696d706c656d656e7461746960448201526d6f6e206973206e6f74205555505360901b6064820152608490fd5b036200111e57620010758262001a1b565b7fbc7cd75a20ee27fd9adebab32041f755214dbc6bffa90cc0225b39da2e5c2d3b600080a282511580159062001115575b620010ad57005b600080620004ba9460405194620010c4866200168b565b602786527f416464726573733a206c6f772d6c6576656c2064656c65676174652063616c6c81870152660819985a5b195960ca1b604087015281519101845af46200110e620018e3565b9162001aad565b506001620010a6565b60405162461bcd60e51b815260048101849052602960248201527f45524331393637557067726164653a20756e737570706f727465642070726f786044820152681a58589b195555525160ba1b6064820152608490fd5b9091508581813d8311620011a2575b620011908183620016a8565b81010312620001dc5751908762001002565b503d62001184565b34620001dc576000366003190112620001dc57620011c762001918565b600080808047335af1620011da620018e3565b5015620011e357005b60405162461bcd60e51b815260206004820152600f60248201526e151c985b9cd9995c8819985a5b1959608a1b6044820152606490fd5b34620001dc576000366003190112620001dc57602060ff54604051908152f35b34620001dc57602080600319360112620001dc576200125862001674565b6001600160a01b037f00000000000000000000000000000000000000000000000000000000000000008116929062001293308514156200181f565b620012b360008051602062001f6783398151915294828654161462001881565b620012bd62001918565b604051938285019185831067ffffffffffffffff841117620001c657826040526000865260ff7f4910fdfa16fed3260ed0e7147f7cc6da11a60208b5b9406d12a635614ffd914354166000146200131e5750505050620004ba915062001a1b565b84939416906040516352d1902d60e01b81528581600481865afa60009181620014ac575b50620013a45760405162461bcd60e51b815260048101879052602e60248201527f45524331393637557067726164653a206e657720696d706c656d656e7461746960448201526d6f6e206973206e6f74205555505360901b6064820152608490fd5b036200145557620013b58362001a1b565b7fbc7cd75a20ee27fd9adebab32041f755214dbc6bffa90cc0225b39da2e5c2d3b600080a28351158015906200144c575b620013ed57005b60008091620004ba957f416464726573733a206c6f772d6c6576656c2064656c65676174652063616c6c6040519662001426886200168b565b60278852870152660819985a5b195960ca1b60408701525190845af46200110e620018e3565b506000620013e6565b60405162461bcd60e51b815260048101859052602960248201527f45524331393637557067726164653a20756e737570706f727465642070726f786044820152681a58589b195555525160ba1b6064820152608490fd5b9091508681813d8311620014d9575b620014c78183620016a8565b81010312620001dc5751908862001342565b503d620014bb565b34620001dc576000366003190112620001dc576040517f00000000000000000000000000000000000000000000000000000000000000006001600160a01b03168152602090f35b34620001dc576020366003190112620001dc576200154562001674565b6200154f62001918565b6001600160a01b03168015620015a5576020817fba887708e7d4436dd36b62187bdced03e0b9abe66caf392a66dd84386641b209926bffffffffffffffffffffffff60a01b60fe54161760fe55604051908152a1005b60405162461bcd60e51b8152602060048201526011602482015270125b9d985b1a59081c9958da5c1a595b9d607a1b6044820152606490fd5b34620001dc576020366003190112620001dc576020620016076200160162001674565b620017d5565b604051908152f35b34620001dc576000366003190112620001dc57602061010054604051908152f35b34620001dc576000366003190112620001dc577f00000000000000000000000000000000000000000000000000000000000000006001600160a01b03168152602090f35b600435906001600160a01b0382168203620001dc57565b6060810190811067ffffffffffffffff821117620001c657604052565b90601f8019910116810190811067ffffffffffffffff821117620001c657604052565b67ffffffffffffffff8111620001c657601f01601f191660200190565b929192620016f682620016cb565b91620017066040519384620016a8565b829481845281830111620001dc578281602093846000960137010152565b9080601f83011215620001dc578160206200174293359101620016e8565b90565b61010280548210156200177d576000527f93bdaa6a4190909b7c3fbe8d42169ffe1cab19f51dfc8db24c71abf849eced4a0190600090565b634e487b7160e01b600052603260045260246000fd5b919082519283825260005b848110620017c0575050826000602080949584010152601f8019910116010190565b6020818301810151848301820152016200179e565b6001600160a01b0316600090815260fc602052604090205480158015908062001806575b5062001742575060fb5490565b908162001816575b5038620017f9565b9050386200180e565b156200182757565b60405162461bcd60e51b815260206004820152602c60248201527f46756e6374696f6e206d7573742062652063616c6c6564207468726f7567682060448201526b19195b1959d85d1958d85b1b60a21b6064820152608490fd5b156200188957565b60405162461bcd60e51b815260206004820152602c60248201527f46756e6374696f6e206d7573742062652063616c6c6564207468726f7567682060448201526b6163746976652070726f787960a01b6064820152608490fd5b3d1562001913573d90620018f782620016cb565b91620019076040519384620016a8565b82523d6000602084013e565b606090565b6033546001600160a01b031633036200192d57565b606460405162461bcd60e51b815260206004820152602060248201527f4f776e61626c653a2063616c6c6572206973206e6f7420746865206f776e65726044820152fd5b603380546001600160a01b039283166001600160a01b0319821681179092559091167f8be0079c531659141344cd1fd0a4f28419497f9722a3daafe3b4186f6b6457e0600080a3565b15620019c257565b60405162461bcd60e51b815260206004820152602b60248201527f496e697469616c697a61626c653a20636f6e7472616374206973206e6f74206960448201526a6e697469616c697a696e6760a81b6064820152608490fd5b803b1562001a525760008051602062001f6783398151915280546001600160a01b0319166001600160a01b03909216919091179055565b60405162461bcd60e51b815260206004820152602d60248201527f455243313936373a206e657720696d706c656d656e746174696f6e206973206e60448201526c1bdd08184818dbdb9d1c9858dd609a1b6064820152608490fd5b9192901562001b12575081511562001ac3575090565b3b1562001acd5790565b60405162461bcd60e51b815260206004820152601d60248201527f416464726573733a2063616c6c20746f206e6f6e2d636f6e74726163740000006044820152606490fd5b82519091501562001b265750805190602001fd5b60405162461bcd60e51b81526020600482015290819062001b4c90602483019062001793565b0390fdfe604060808152610416908138038061001681610218565b93843982019181818403126102135780516001600160a01b038116808203610213576020838101516001600160401b0394919391858211610213570186601f820112156102135780519061007161006c83610253565b610218565b918083528583019886828401011161021357888661008f930161026e565b813b156101b9577f360894a13ba1a3210667c828492db98dca3e2076cc3735a920a3ca505d382bbc80546001600160a01b031916841790556000927fbc7cd75a20ee27fd9adebab32041f755214dbc6bffa90cc0225b39da2e5c2d3b8480a28051158015906101b2575b61010b575b855160d190816103458239f35b855194606086019081118682101761019e578697849283926101889952602788527f416464726573733a206c6f772d6c6576656c2064656c65676174652063616c6c87890152660819985a5b195960ca1b8a8901525190845af4913d15610194573d9061017a61006c83610253565b91825281943d92013e610291565b508038808080806100fe565b5060609250610291565b634e487b7160e01b84526041600452602484fd5b50826100f9565b855162461bcd60e51b815260048101859052602d60248201527f455243313936373a206e657720696d706c656d656e746174696f6e206973206e60448201526c1bdd08184818dbdb9d1c9858dd609a1b6064820152608490fd5b600080fd5b6040519190601f01601f191682016001600160401b0381118382101761023d57604052565b634e487b7160e01b600052604160045260246000fd5b6001600160401b03811161023d57601f01601f191660200190565b60005b8381106102815750506000910152565b8181015183820152602001610271565b919290156102f357508151156102a5575090565b3b156102ae5790565b60405162461bcd60e51b815260206004820152601d60248201527f416464726573733a2063616c6c20746f206e6f6e2d636f6e74726163740000006044820152606490fd5b8251909150156103065750805190602001fd5b6044604051809262461bcd60e51b825260206004830152610336815180928160248601526020868601910161026e565b601f01601f19168101030190fdfe608060405236156054577f360894a13ba1a3210667c828492db98dca3e2076cc3735a920a3ca505d382bbc54600090819081906001600160a01b0316368280378136915af43d82803e156050573d90f35b3d90fd5b7f360894a13ba1a3210667c828492db98dca3e2076cc3735a920a3ca505d382bbc54600090819081906001600160a01b0316368280378136915af43d82803e156050573d90f3fea264697066735822122030ade24792416a57d4529afbb56817b4411c22cc00ef8c3e8e9dd6ea015f4e2564736f6c63430008160033360894a13ba1a3210667c828492db98dca3e2076cc3735a920a3ca505d382bbca264697066735822122099469bedf153554b267fe2561f282b4accf985e3ce748f7afa6d91981401811164736f6c63430008160033",
  "linkReferences": {},
  "deployedLinkReferences": {}
}