{
  "_format": "hh-sol-artifact-1",
  "contractName": "MockPriceOracle",
  "sourceName": "contracts/mocks/MockPriceOracle.sol",
  "abi": [
    {
      "inputs": [],
      "stateMutability": "nonpayable",
      "type": "constructor"
    },
    {
      "anonymous": false,
      "inputs": [
        {
          "indexed": true,
          "internalType": "address",
          "name": "previousOwner",
          "type": "address"
        },
        {
          "indexed": true,
          "internalType": "address",
          "name": "newOwner",
          "type": "address"
        }
      ],
      "name": "OwnershipTransferred",
      "type": "event"
    },
    {
      "anonymous": false,
      "inputs": [
        {
          "indexed": true,
          "internalType": "address",
          "name": "asset",
          "type": "address"
        },
        {
          "indexed": false,
          "internalType": "uint256",
          "name": "price",
          "type": "uint256"
        }
      ],
      "name": "PriceSet",
      "type": "event"
    },
    {
      "inputs": [
        {
          "internalType": "address",
          "name": "asset",
          "type": "address"
        }
      ],
      "name": "getPrice",
      "outputs": [
        {
          "internalType": "uint256",
          "name": "",
          "type": "uint256"
        }
      ],
      "stateMutability": "view",
      "type": "function"
    },
    {
      "inputs": [
        {
          "internalType": "address[]",
          "name": "assets",
          "type": "address[]"
        }
      ],
      "name": "getPrices",
      "outputs": [
        {
          "internalType": "uint256[]",
          "name": "",
          "type": "uint256[]"
        }
      ],
      "stateMutability": "view",
      "type": "function"
    },
    {
      "inputs": [
        {
          "internalType": "address",
          "name": "asset",
          "type": "address"
        }
      ],
      "name": "hasPrice",
      "outputs": [
        {
          "internalType": "bool",
          "name": "",
          "type": "bool"
        }
      ],
      "stateMutability": "view",
      "type": "function"
    },
    {
      "inputs": [],
      "name": "owner",
      "outputs": [
        {
          "internalType": "address",
          "name": "",
          "type": "address"
        }
      ],
      "stateMutability": "view",
      "type": "function"
    },
    {
      "inputs": [],
      "name": "renounceOwnership",
      "outputs": [],
      "stateMutability": "nonpayable",
      "type": "function"
    },
    {
      "inputs": [
        {
          "internalType": "address[]",
          "name": "assets",
          "type": "address[]"
        },
        {
          "internalType": "uint256[]",
          "name": "prices",
          "type": "uint256[]"
        }
      ],
      "name": "setBulkPrices",
      "outputs": [],
      "stateMutability": "nonpayable",
      "type": "function"
    },
    {
      "inputs": [
        {
          "internalType": "address",
          "name": "asset",
          "type": "address"
        },
        {
          "internalType": "uint256",
          "name": "price",
          "type": "uint256"
        }
      ],
      "name": "setPrice",
      "outputs": [],
      "stateMutability": "nonpayable",
      "type": "function"
    },
    {
      "inputs": [
        {
          "internalType": "address",
          "name": "newOwner",
          "type": "address"
        }
      ],
      "name": "transferOwnership",
      "outputs": [],
      "stateMutability": "nonpayable",
      "type": "function"
    }
  ],
  "bytecode": "0x60808060405234610028576100133361002d565b61001c3361002d565b6106c190816100758239f35b600080fd5b600080546001600160a01b039283166001600160a01b03198216811783559216907f8be0079c531659141344cd1fd0a4f28419497f9722a3daafe3b4186f6b6457e09080a356fe6040608081526004908136101561001557600080fd5b600091823560e01c8062e4768b146104c757806341976e091461049a57806352202ac21461036d578063715018a6146103105780638da5cb5b146102e85780638fb5a4821461017b578063c4164cd41461013d5763f2fde38b1461007857600080fd5b346101395760203660031901126101395761009161052f565b9061009a610633565b6001600160a01b039182169283156100e757505082546001600160a01b0319811683178455167f8be0079c531659141344cd1fd0a4f28419497f9722a3daafe3b4186f6b6457e08380a380f35b906020608492519162461bcd60e51b8352820152602660248201527f4f776e61626c653a206e6577206f776e657220697320746865207a65726f206160448201526564647265737360d01b6064820152fd5b8280fd5b5050346101775760203660031901126101775760209181906001600160a01b0361016561052f565b16815260018452205415159051908152f35b5080fd5b508290346101775760208060031936011261013957813567ffffffffffffffff81116102e45782846101b187933690840161054a565b926101bb8461061b565b916101c8865193846105e3565b8483526101d48561061b565b8388019590601f1901368737845b818110610228575050505083519485948186019282875251809352850193925b82811061021157505050500390f35b835185528695509381019392810192600101610202565b61024161023c8284869c99989a9b9c6105a9565b6105cf565b89516341976e0960e01b81526001600160a01b0390911685820152602487828281305afa9182156102da5787926102a7575b5088518310156102965750600582901b88018701529497969593946001016101e2565b634e487b7160e01b87526032865286fd5b9091508781813d83116102d3575b6102bf81836105e3565b810103126102cf5751908b610273565b8680fd5b503d6102b5565b8b513d89823e3d90fd5b8380fd5b505034610177578160031936011261017757905490516001600160a01b039091168152602090f35b833461036a578060031936011261036a57610329610633565b80546001600160a01b03198116825581906001600160a01b03167f8be0079c531659141344cd1fd0a4f28419497f9722a3daafe3b4186f6b6457e08280a380f35b80fd5b50903461013957806003193601126101395767ffffffffffffffff9180358381116104965761039f903690830161054a565b9093602435908111610492576103b8903690840161054a565b9190926103c3610633565b8282036104565750855b8181106103d8578680f35b80827ff9a09e2869a1f88523f00504328d7965866201bafe501573db2e114e3375a08661040860019487896105a9565b358961041f61023c86888060a01b039687946105a9565b168b52602090858252898c205561043a61023c85888d6105a9565b9261044685898b6105a9565b35938a519485521692a2016103cd565b606490602086519162461bcd60e51b83528201526016602482015275082e4e4c2f2e640d8cadccee8d040dad2e6dac2e8c6d60531b6044820152fd5b8580fd5b8480fd5b505034610177576020366003190112610177576020906104c06104bb61052f565b61057b565b9051908152f35b5050346101775780600319360112610177577ff9a09e2869a1f88523f00504328d7965866201bafe501573db2e114e3375a086602061050461052f565b60243590610510610633565b6001600160a01b0316808652600183528486208290559351908152a280f35b600435906001600160a01b038216820361054557565b600080fd5b9181601f840112156105455782359167ffffffffffffffff8311610545576020808501948460051b01011161054557565b6001600160a01b0316600090815260016020526040902054801561059c5790565b50670de0b6b3a764000090565b91908110156105b95760051b0190565b634e487b7160e01b600052603260045260246000fd5b356001600160a01b03811681036105455790565b90601f8019910116810190811067ffffffffffffffff82111761060557604052565b634e487b7160e01b600052604160045260246000fd5b67ffffffffffffffff81116106055760051b60200190565b6000546001600160a01b0316330361064757565b606460405162461bcd60e51b815260206004820152602060248201527f4f776e61626c653a2063616c6c6572206973206e6f7420746865206f776e65726044820152fdfea26469706673582212201722a8a8c2d03c89ed4d681d3e9151335f628173928a4585069f686e35ba98b764736f6c63430008160033",
  "linkReferences": {},
  "deployedLinkReferences": {}
}