{
  "_format": "hh-sol-artifact-1",
  "contractName": "TokenFactory_v2_1_0",
  "sourceName": "src/contracts/TokenFactory_v2.1.0.sol",
  "abi": [
    {
      "inputs": [
        {
          "internalType": "address",
          "name": "_implementation",
          "type": "address"
        }
      ],
      "stateMutability": "nonpayable",
      "type": "constructor"
    },
    {
      "anonymous": false,
      "inputs": [
        {
          "indexed": false,
          "internalType": "address",
          "name": "previousAdmin",
          "type": "address"
        },
        {
          "indexed": false,
          "internalType": "address",
          "name": "newAdmin",
          "type": "address"
        }
      ],
      "name": "AdminChanged",
      "type": "event"
    },
    {
      "anonymous": false,
      "inputs": [
        {
          "indexed": true,
          "internalType": "address",
          "name": "beacon",
          "type": "address"
        }
      ],
      "name": "BeaconUpgraded",
      "type": "event"
    },
    {
      "anonymous": false,
      "inputs": [
        {
          "indexed": true,
          "internalType": "address",
          "name": "user",
          "type": "address"
        },
        {
          "indexed": false,
          "internalType": "uint256",
          "name": "fee",
          "type": "uint256"
        }
      ],
      "name": "CustomDeploymentFeeSet",
      "type": "event"
    },
    {
      "anonymous": false,
      "inputs": [
        {
          "indexed": false,
          "internalType": "uint256",
          "name": "newFee",
          "type": "uint256"
        }
      ],
      "name": "DeploymentFeeUpdated",
      "type": "event"
    },
    {
      "anonymous": false,
      "inputs": [
        {
          "indexed": false,
          "internalType": "uint8",
          "name": "version",
          "type": "uint8"
        }
      ],
      "name": "Initialized",
      "type": "event"
    },
    {
      "anonymous": false,
      "inputs": [
        {
          "indexed": true,
          "internalType": "address",
          "name": "previousOwner",
          "type": "address"
        },
        {
          "indexed": true,
          "internalType": "address",
          "name": "newOwner",
          "type": "address"
        }
      ],
      "name": "OwnershipTransferred",
      "type": "event"
    },
    {
      "anonymous": false,
      "inputs": [
        {
          "indexed": false,
          "internalType": "address",
          "name": "token",
          "type": "address"
        },
        {
          "indexed": false,
          "internalType": "string",
          "name": "name",
          "type": "string"
        },
        {
          "indexed": false,
          "internalType": "string",
          "name": "symbol",
          "type": "string"
        },
        {
          "indexed": false,
          "internalType": "address",
          "name": "owner",
          "type": "address"
        },
        {
          "indexed": false,
          "internalType": "uint256",
          "name": "startTime",
          "type": "uint256"
        },
        {
          "indexed": false,
          "internalType": "uint256",
          "name": "endTime",
          "type": "uint256"
        }
      ],
      "name": "TokenCreated",
      "type": "event"
    },
    {
      "anonymous": false,
      "inputs": [
        {
          "indexed": true,
          "internalType": "address",
          "name": "implementation",
          "type": "address"
        }
      ],
      "name": "Upgraded",
      "type": "event"
    },
    {
      "inputs": [],
      "name": "VERSION",
      "outputs": [
        {
          "internalType": "string",
          "name": "",
          "type": "string"
        }
      ],
      "stateMutability": "view",
      "type": "function"
    },
    {
      "inputs": [
        {
          "internalType": "string",
          "name": "name",
          "type": "string"
        },
        {
          "internalType": "string",
          "name": "symbol",
          "type": "string"
        },
        {
          "internalType": "uint256",
          "name": "initialSupply",
          "type": "uint256"
        },
        {
          "internalType": "uint256",
          "name": "maxSupply",
          "type": "uint256"
        },
        {
          "internalType": "bool",
          "name": "enableBlacklist",
          "type": "bool"
        },
        {
          "internalType": "bool",
          "name": "enableTimeLock",
          "type": "bool"
        },
        {
          "internalType": "uint256",
          "name": "presaleRate",
          "type": "uint256"
        },
        {
          "internalType": "uint256",
          "name": "minContribution",
          "type": "uint256"
        },
        {
          "internalType": "uint256",
          "name": "maxContribution",
          "type": "uint256"
        },
        {
          "internalType": "uint256",
          "name": "presaleCap",
          "type": "uint256"
        },
        {
          "internalType": "uint256",
          "name": "startTime",
          "type": "uint256"
        },
        {
          "internalType": "uint256",
          "name": "endTime",
          "type": "uint256"
        }
      ],
      "name": "createToken",
      "outputs": [
        {
          "internalType": "address",
          "name": "",
          "type": "address"
        }
      ],
      "stateMutability": "payable",
      "type": "function"
    },
    {
      "inputs": [
        {
          "internalType": "address",
          "name": "",
          "type": "address"
        }
      ],
      "name": "customDeploymentFees",
      "outputs": [
        {
          "internalType": "uint256",
          "name": "",
          "type": "uint256"
        }
      ],
      "stateMutability": "view",
      "type": "function"
    },
    {
      "inputs": [
        {
          "internalType": "uint256",
          "name": "",
          "type": "uint256"
        }
      ],
      "name": "deployedTokens",
      "outputs": [
        {
          "internalType": "address",
          "name": "",
          "type": "address"
        }
      ],
      "stateMutability": "view",
      "type": "function"
    },
    {
      "inputs": [],
      "name": "deploymentFee",
      "outputs": [
        {
          "internalType": "uint256",
          "name": "",
          "type": "uint256"
        }
      ],
      "stateMutability": "view",
      "type": "function"
    },
    {
      "inputs": [],
      "name": "getDeployedTokens",
      "outputs": [
        {
          "internalType": "address[]",
          "name": "",
          "type": "address[]"
        }
      ],
      "stateMutability": "view",
      "type": "function"
    },
    {
      "inputs": [
        {
          "internalType": "address",
          "name": "_user",
          "type": "address"
        }
      ],
      "name": "getDeploymentFee",
      "outputs": [
        {
          "internalType": "uint256",
          "name": "",
          "type": "uint256"
        }
      ],
      "stateMutability": "view",
      "type": "function"
    },
    {
      "inputs": [],
      "name": "getTemplateImplementation",
      "outputs": [
        {
          "internalType": "address",
          "name": "",
          "type": "address"
        }
      ],
      "stateMutability": "view",
      "type": "function"
    },
    {
      "inputs": [
        {
          "internalType": "uint256",
          "name": "_deploymentFee",
          "type": "uint256"
        }
      ],
      "name": "initialize",
      "outputs": [],
      "stateMutability": "nonpayable",
      "type": "function"
    },
    {
      "inputs": [],
      "name": "owner",
      "outputs": [
        {
          "internalType": "address",
          "name": "",
          "type": "address"
        }
      ],
      "stateMutability": "view",
      "type": "function"
    },
    {
      "inputs": [],
      "name": "proxiableUUID",
      "outputs": [
        {
          "internalType": "bytes32",
          "name": "",
          "type": "bytes32"
        }
      ],
      "stateMutability": "view",
      "type": "function"
    },
    {
      "inputs": [],
      "name": "renounceOwnership",
      "outputs": [],
      "stateMutability": "nonpayable",
      "type": "function"
    },
    {
      "inputs": [
        {
          "internalType": "address",
          "name": "_user",
          "type": "address"
        },
        {
          "internalType": "uint256",
          "name": "_fee",
          "type": "uint256"
        }
      ],
      "name": "setCustomDeploymentFee",
      "outputs": [],
      "stateMutability": "nonpayable",
      "type": "function"
    },
    {
      "inputs": [
        {
          "internalType": "uint256",
          "name": "_fee",
          "type": "uint256"
        }
      ],
      "name": "setDeploymentFee",
      "outputs": [],
      "stateMutability": "nonpayable",
      "type": "function"
    },
    {
      "inputs": [],
      "name": "tokenImplementation",
      "outputs": [
        {
          "internalType": "contract TokenTemplate_v2_1_0",
          "name": "",
          "type": "address"
        }
      ],
      "stateMutability": "view",
      "type": "function"
    },
    {
      "inputs": [
        {
          "internalType": "address",
          "name": "newOwner",
          "type": "address"
        }
      ],
      "name": "transferOwnership",
      "outputs": [],
      "stateMutability": "nonpayable",
      "type": "function"
    },
    {
      "inputs": [
        {
          "internalType": "address",
          "name": "newImplementation",
          "type": "address"
        }
      ],
      "name": "upgradeTo",
      "outputs": [],
      "stateMutability": "nonpayable",
      "type": "function"
    },
    {
      "inputs": [
        {
          "internalType": "address",
          "name": "newImplementation",
          "type": "address"
        },
        {
          "internalType": "bytes",
          "name": "data",
          "type": "bytes"
        }
      ],
      "name": "upgradeToAndCall",
      "outputs": [],
      "stateMutability": "payable",
      "type": "function"
    },
    {
      "inputs": [],
      "name": "withdrawFees",
      "outputs": [],
      "stateMutability": "nonpayable",
      "type": "function"
    }
  ],
  "bytecode": "0x60c06040523462000057576200001e62000018620000fb565b6200014a565b604051612518620001798239608051818181610b100152610d54015260a0518181816102b4015281816109750152611247015261251890f35b600080fd5b634e487b7160e01b600052604160045260246000fd5b90601f01601f191681019081106001600160401b038211176200009457604052565b6200005c565b90620000b1620000a960405190565b928362000072565b565b6001600160a01b031690565b90565b620000cd81620000b3565b036200005757565b90505190620000b182620000c2565b906020828203126200005757620000bf91620000d5565b620000bf620026918038038062000112816200009a565b928339810190620000e4565b620000bf90620000b3906001600160a01b031682565b620000bf906200011e565b620000bf9062000134565b6200015f906200015962000164565b6200013f565b60a052565b620000b162000173306200013f565b60805256fe608060405260043610156200001357600080fd5b60003560e01c80630d1ded8914620001685780631652da4214620001625780632f3a3d5d146200015c5780633659cfe61462000156578063476343ee14620001505780634f1ef286146200014a57806352d1902d1462000144578063622ae7aa146200013e578063715018a6146200013857806376b2de0114620001325780638da5cb5b146200012c578063c05ddda81462000126578063cbf1208f1462000120578063d002462b146200011a578063ec81aadb1462000114578063f2cff57f146200010e578063f2fde38b1462000108578063fe4b84df14620001025763ffa1ad74036200016e5762000941565b62000863565b62000846565b62000825565b620007f6565b62000759565b62000724565b620006e3565b62000676565b6200064b565b6200050e565b620004e0565b62000442565b6200042a565b620002fc565b620002da565b62000297565b6200021c565b620001b1565b600080fd5b60009103126200016e57565b6001600160a01b031690565b90565b62000199906200017f565b9052565b602081019291620001af91906200018e565b565b346200016e57620001c436600462000173565b620001df620001d26200096f565b604051918291826200019d565b0390f35b620001ee816200017f565b036200016e57565b90503590620001af82620001e3565b906020828203126200016e576200018b91620001f6565b346200016e57620001df6200023d6200023736600462000205565b620009be565b6040515b9182918290815260200190565b6200018b906200017f906001600160a01b031682565b6200018b906200024e565b6200018b9062000264565b62000199906200026f565b602081019291620001af91906200027a565b346200016e57620002aa36600462000173565b60405180620001df7f00000000000000000000000000000000000000000000000000000000000000008262000285565b346200016e57620002f7620002f136600462000205565b62000bd0565b604051005b346200016e576200030f36600462000173565b620002f762000c84565b634e487b7160e01b600052604160045260246000fd5b90601f01601f191681019081106001600160401b038211176200035157604052565b62000319565b90620001af6200036660405190565b92836200032f565b6001600160401b0381116200035157602090601f01601f19160190565b0190565b90826000939282370152565b90929192620003b4620003ae826200036e565b62000357565b93818552818301116200016e57620001af9160208501906200038f565b9080601f830112156200016e578160206200018b933591016200039b565b9190916040818403126200016e57620004098382620001f6565b9260208201356001600160401b0381116200016e576200018b9201620003d1565b620002f76200043b366004620003ef565b9062000cbc565b346200016e576200045536600462000173565b620001df6200023d62000dbc565b906200038b816020936200018e565b90620004956200048e62000484845190565b8084529260200190565b9260200190565b9060005b818110620004a75750505090565b909192620004c4620004bd600192865162000463565b9460200190565b92910162000499565b60208082526200018b9291019062000472565b346200016e57620004f336600462000173565b620001df6200050162000e7b565b60405191829182620004cd565b346200016e576200052136600462000173565b620002f762000ecc565b80620001ee565b90503590620001af826200052b565b801515620001ee565b90503590620001af8262000541565b9091610180828403126200016e5781356001600160401b0381116200016e578362000586918401620003d1565b9260208301356001600160401b0381116200016e5781620005a9918501620003d1565b92620005b9826040830162000532565b92620005c9836060840162000532565b92620005d981608085016200054a565b92620005e98260a083016200054a565b92620005f98360c0840162000532565b92620006098160e0850162000532565b926200061a82610100830162000532565b926200018b6200062f84610120850162000532565b936101606200064382610140870162000532565b940162000532565b620001df620001d26200066036600462000559565b9a99909998919897929796939695949562001306565b346200016e576200068936600462000173565b620001df620001d26200131e565b90620006a3906200026f565b600052602052604060002090565b6200018b916008021c81565b906200018b9154620006b1565b6000620006dd6200018b9260fc62000697565b620006bd565b346200016e57620001df6200023d620006fe36600462000205565b620006ca565b91906040838203126200016e576200018b906020620006438286620001f6565b346200016e57620002f76200073b36600462000704565b90620013bf565b906020828203126200016e576200018b9162000532565b346200016e57620002f76200077036600462000742565b62001401565b634e487b7160e01b600052603260045260246000fd5b8054821015620007b157620007a8600191600052602060002090565b91020190600090565b62000776565b6200018b916008021c6200017f565b906200018b9154620007b7565b60fd548110156200016e57620007ef6200018b9160fd6200078c565b90620007c6565b346200016e57620001df620001d26200081136600462000742565b620007d3565b6200018b600060fb620006bd565b346200016e576200083836600462000173565b620001df6200023d62000817565b346200016e57620002f76200085d36600462000205565b620014af565b346200016e57620002f76200087a36600462000742565b6200174e565b9062000890620003ae836200036e565b918252565b620008a1600562000880565b640322e312e360dc1b602082015290565b6200018b62000895565b6200018b620008b2565b6200018b620008bc565b60005b838110620008e45750506000910152565b8181015183820152602001620008d3565b6200091a620009246020936200038b936200090e815190565b80835293849260200190565b95869101620008d0565b601f01601f191690565b60208082526200018b92910190620008f5565b346200016e576200095436600462000173565b620001df62000962620008c6565b604051918291826200092e565b6200018b7f00000000000000000000000000000000000000000000000000000000000000006200026f565b6200018b9081565b6200018b90546200099a565b6200018b6200018b6200018b9290565b620009d5620009cf8260fc62000697565b620009a2565b90620009e26000620009ae565b821190811562000a00575b506200018b57506200018b60fb620009a2565b905062000a0e6000620009ae565b8214908162000a20575b5038620009ed565b62000a339150620009cf9060fc62000697565b62000a4762000a436000620009ae565b9190565b14153862000a18565b1562000a5857565b60405162461bcd60e51b815260206004820152602c6024820152600080516020620024c383398151915260448201526b19195b1959d85d1958d85b1b60a21b6064820152608490fd5b0390fd5b1562000aad57565b60405162461bcd60e51b815260206004820152602c6024820152600080516020620024c383398151915260448201526b6163746976652070726f787960a01b6064820152608490fd5b620001af9062000b6e62000b0a306200026f565b62000b4e7f00000000000000000000000000000000000000000000000000000000000000009162000b4662000b3f846200017f565b916200017f565b141562000a50565b62000b6762000b3f62000b6062001759565b926200017f565b1462000aa5565b62000ba2565b369037565b90620001af62000b9462000b8d8462000880565b936200036e565b601f19016020840162000b74565b6000620001af9162000bb4816200177f565b62000bc962000bc383620009ae565b62000b79565b906200183a565b620001af9062000af6565b62000be5620019b8565b620001af62000c50565b3d1562000c0c5762000c013d62000880565b903d6000602084013e565b606090565b1562000c1957565b60405162461bcd60e51b815260206004820152600f60248201526e151c985b9cd9995c8819985a5b1959608a1b6044820152606490fd5b620001af60008062000c62306200026f565b3162000c6d60405190565b600091335af162000c7d62000bef565b5062000c11565b620001af62000bdb565b90620001af9162000ca362000b0a306200026f565b620001af9160019162000cb6816200177f565b6200183a565b90620001af9162000c8e565b1562000cd057565b60405162461bcd60e51b815260206004820152603860248201527f555550535570677261646561626c653a206d757374206e6f742062652063616c6044820152771b1959081d1a1c9bdd59da0819195b1959d85d1958d85b1b60421b6064820152608490fd5b6200018b9062000d8062000d4a306200026f565b62000d7962000b3f7f00000000000000000000000000000000000000000000000000000000000000006200017f565b1462000cc8565b62000db1565b6200018b7f360894a13ba1a3210667c828492db98dca3e2076cc3735a920a3ca505d382bbc620009ae565b506200018b62000d86565b6200018b600062000d36565b6200018b906200017f565b6200018b905462000dc8565b9062000dfd62000df162000484845490565b92600052602060002090565b9060005b81811062000e0f5750505090565b90919262000e3562000e2e60019262000e288762000dd3565b62000463565b9460010190565b92910162000e01565b906200018b9162000ddf565b90620001af62000e689262000e5e60405190565b9384809262000e3e565b03836200032f565b6200018b9062000e4a565b6200018b60fd62000e70565b62000e91620019b8565b620001af62000eb6565b6200017f6200018b6200018b9290565b6200018b9062000e9b565b620001af62000ec6600062000eab565b62001a08565b620001af62000e87565b9062000ef79c9b9a99989796959493929162000ef162001abb565b6200116c565b90620001af62001af7565b1562000f0a57565b60405162461bcd60e51b815260206004820152601b60248201527a496e73756666696369656e74206465706c6f796d656e742066656560281b6044820152606490fd5b6200018b6101a062000357565b9062000199906200017f565b906200018b906101808062000fa362000f906101a0850160008801518682036000880152620008f5565b60208701518582036020870152620008f5565b9462000fb460408201516040860152565b62000fc460608201516060860152565b62000fd8608082015160808601906200018e565b60a08181015115159085015260c0818101511515908501526200100060e082015160e0860152565b62001012610100820151610100860152565b62001024610120820151610120860152565b62001036610140820151610140860152565b62001048610160820151610160860152565b0151910152565b60208082526200018b9291019062000f66565b916200018b926200107c604082019360008301906200018e565b6020818403910152620008f5565b6040513d6000823e3d90fd5b916001600160a01b0360089290920291821b911b5b9181191691161790565b9190620010ca6200018b620010d3936200026f565b90835462001096565b9055565b80549190600160401b831015620003515782620010fe916001620001af950181556200078c565b90620010b5565b9194620011616200115560a095620011466200116895620001af9a9c9b999c6200113860c08a019260008b01906200018e565b88820360208a0152620008f5565b908682036040880152620008f5565b9860608501906200018e565b6080830152565b0152565b9b9a9b99969390999895929794919850336200118890620009be565b341015620011969062000f02565b620011a062000f4d565b8a815297602089018a9052620011b79060408a0152565b6060880152620011cb336080890162000f5a565b151560a0870152151560c086015260e0850152610100840152610120830152610140820152620011fd85610160830152565b6200120a84610180830152565b604051630dbc8d2b60e21b60208201529081906200122c90602483016200104f565b6020820181038252036200124190826200032f565b6200126c7f00000000000000000000000000000000000000000000000000000000000000006200026f565b604051916105e98301906001600160401b03821184831017620003515783926200129f926105e962001eba863962001062565b03906000f0801562001300577f42bbfbb52e42e649ec7c181638a6969b047f19faae102187a8957860d5284b7a93620012dc620012fa926200026f565b95620012ea8760fd620010d7565b6040519485943391898762001105565b0390a190565b6200108a565b6200018b9b9a99989796959493929190600062000ed6565b6200018b603362000dd3565b90620001af916200133a620019b8565b62001367565b9060001990620010ab565b906200135f6200018b620010d392620009ae565b825462001340565b620013ba620013af7f035250ff587e06567c2fa9d4b3191805958a937530b0e88cfce4c9c4dcdef1b392620013a985620013a38360fc62000697565b6200134b565b6200026f565b926200024160405190565b0390a2565b90620001af916200132a565b620001af90620013da620019b8565b620013fc600080516020620024a3833981519152916200023d8160fb6200134b565b0390a1565b620001af90620013cb565b620001af906200141b620019b8565b6200147d565b156200142957565b60405162461bcd60e51b815260206004820152602660248201527f4f776e61626c653a206e6577206f776e657220697320746865207a65726f206160448201526564647265737360d01b6064820152608490fd5b620001af9062000ec66200149c62001496600062000eab565b6200017f565b620014a7836200017f565b141562001421565b620001af906200140c565b6200018b9060081c5b60ff1690565b6200018b9054620014ba565b6200018b90620014c3565b6200018b9054620014d5565b620014c36200018b6200018b9290565b156200150457565b60405162461bcd60e51b815260206004820152602e60248201527f496e697469616c697a61626c653a20636f6e747261637420697320616c72656160448201526d191e481a5b9a5d1a585b1a5e995960921b6064820152608490fd5b9060ff90620010ab565b620014c36200018b6200018b9260ff1690565b90620015916200018b620010d3926200156a565b825462001560565b9061ff009060081b620010ab565b90620015ba6200018b620010d392151590565b825462001599565b6200019990620014ec565b602081019291620001af9190620015c2565b62001637620015f7620015f36000620014c9565b1590565b918280620016ea575b801562001698575b6200161390620014fc565b826200162c620016246001620014ec565b60006200157d565b62001684576200170e565b6200163e57565b6200164b600080620015a7565b7f7f26b83ff96e1f2b6a682f133852f6798a09c465da95921460cefb38474024986200167660405190565b80620013fc600182620015cd565b6200169260016000620015a7565b6200170e565b50620016b2620015f3620016ac306200026f565b62001b05565b801562001608575062001613620016ca6000620014e0565b620016e1620016da6001620014ec565b9160ff1690565b14905062001608565b50620016f76000620014e0565b62001707620016da6001620014ec565b1062001600565b620013fc600080516020620024a3833981519152916200172d62001b9f565b6200173762001bb9565b6200174162001be1565b6200023d8160fb6200134b565b620001af90620015df565b6200018b60006200176d6200018b62000d86565b0162000dd3565b50620001af620019b8565b620001af9062001774565b6200018b7f4910fdfa16fed3260ed0e7147f7cc6da11a60208b5b9406d12a635614ffd9143620009ae565b90505190620001af826200052b565b906020828203126200016e576200018b91620017b5565b15620017e357565b60405162461bcd60e51b815260206004820152602960248201527f45524331393637557067726164653a20756e737570706f727465642070726f786044820152681a58589b195555525160ba1b6064820152608490fd5b9190620018576000620018506200018b6200178a565b01620014e0565b156200186a575050620001af9062001c97565b62001879620013a9846200026f565b9260206200188660405190565b6352d1902d60e01b815294859060049082905afa600094816200192e575b50620019065760405162461bcd60e51b815260206004820152602e60248201527f45524331393637557067726164653a206e657720696d706c656d656e7461746960448201526d6f6e206973206e6f74205555505360901b6064820152608490fd5b62001928620001af946200192162000a436200018b62000d86565b14620017db565b62001beb565b6200195691955060203d6020116200195e575b6200194d81836200032f565b810190620017c4565b9338620018a4565b503d62001941565b156200196e57565b60405162461bcd60e51b81528062000aa1600482016020808252818101527f4f776e61626c653a2063616c6c6572206973206e6f7420746865206f776e6572604082015260600190565b620001af620019c66200131e565b620019d562000b3f336200017f565b1462001966565b906001600160a01b0390620010ab565b9062001a006200018b620010d3926200026f565b8254620019dc565b62001a3062001a2962001a1c603362000dd3565b620013a9846033620019ec565b916200026f565b907f8be0079c531659141344cd1fd0a4f28419497f9722a3daafe3b4186f6b6457e062001a5c60405190565b600090a3565b6200018b6002620009ae565b1562001a7657565b60405162461bcd60e51b815260206004820152601f60248201527f5265656e7472616e637947756172643a207265656e7472616e742063616c6c006044820152606490fd5b620001af62001acb60c9620009a2565b62001ae362001ad962001a62565b9182141562001a6e565b60c96200134b565b6200018b6001620009ae565b620001af62001ae362001aeb565b3b62001b1662000a436000620009ae565b1190565b1562001b2257565b60405162461bcd60e51b815260206004820152602b60248201527f496e697469616c697a61626c653a20636f6e7472616374206973206e6f74206960448201526a6e697469616c697a696e6760a81b6064820152608490fd5b62001b9162001b8b6000620014c9565b62001b1a565b620001af620001af62001ce4565b620001af62001b7b565b620001af62001b8b6000620014c9565b620001af62001ba9565b62001bd362001b8b6000620014c9565b620001af620001af62001d08565b620001af62001bc3565b9162001bf78362001d12565b815162001c0962000a436000620009ae565b1190811562001c2b575b5062001c1d575050565b62001c289162001da4565b50565b90503862001c13565b1562001c3c57565b60405162461bcd60e51b815260206004820152602d60248201527f455243313936373a206e657720696d706c656d656e746174696f6e206973206e60448201526c1bdd08184818dbdb9d1c9858dd609a1b6064820152608490fd5b620001af9062001cb162001cab8262001b05565b62001c34565b600062001cc16200018b62000d86565b01620019ec565b62001cd862001b8b6000620014c9565b620001af803362001a08565b620001af62001cc8565b62001cfe62001b8b6000620014c9565b620001af62001af7565b620001af62001cee565b62001d2290620013a98162001c97565b7fbc7cd75a20ee27fd9adebab32041f755214dbc6bffa90cc0225b39da2e5c2d3b62001d4d60405190565b8080620013ba565b62001d61602762000880565b7f416464726573733a206c6f772d6c6576656c2064656c65676174652063616c6c6020820152660819985a5b195960ca1b604082015290565b6200018b62001d55565b6200018b9162001db362001d9a565b916000806200018b949362001dc6606090565b50602081519101845af462001dda62000bef565b9162001e2e565b1562001de957565b60405162461bcd60e51b815260206004820152601d60248201527f416464726573733a2063616c6c20746f206e6f6e2d636f6e74726163740000006044820152606490fd5b9192901562001e695750815162001e4a62000a436000620009ae565b1462001e54575090565b62001e636200018b9162001b05565b62001de1565b829062001e74825190565b62001e8462000a436000620009ae565b111562001e945750805190602001fd5b62000aa19062001ea360405190565b62461bcd60e51b8152918291600483016200092e56fe608060405261001561000f61016a565b9061018c565b60405160c3610526823960c390f35b634e487b7160e01b600052604160045260246000fd5b90601f01601f191681019081106001600160401b0382111761005b57604052565b610024565b9061007461006d60405190565b928361003a565b565b6001600160a01b031690565b90565b61008e81610076565b0361009557565b600080fd5b9050519061007482610085565b6001600160401b03811161005b57602090601f01601f19160190565b0190565b60005b8381106100da5750506000910152565b81810151838201526020016100ca565b909291926100ff6100fa826100a7565b610060565b9381855281830111610095576100749160208501906100c7565b9080601f83011215610095578151610082926020016100ea565b9190916040818403126100955761014a838261009a565b60208201519093906001600160401b038111610095576100829201610119565b6101886105e98038038061017d81610060565b928339810190610133565b9091565b610074916000916101a5565b6100826100826100829290565b916101af8361020e565b81516101c26101be6000610198565b9190565b119081156101e0575b506101d4575050565b6101dd916102ad565b50565b9050386101cb565b61008290610076906001600160a01b031682565b610082906101e8565b610082906101fc565b6102209061021b81610389565b610205565b7fbc7cd75a20ee27fd9adebab32041f755214dbc6bffa90cc0225b39da2e5c2d3b61024a60405190565b600090a2565b9061025d6100fa836100a7565b918252565b61026c6027610250565b7f416464726573733a206c6f772d6c6576656c2064656c65676174652063616c6c6020820152660819985a5b195960ca1b604082015290565b610082610262565b610082916102b96102a5565b916103d0565b6020808252602d908201527f455243313936373a206e657720696d706c656d656e746174696f6e206973206e60408201526c1bdd08184818dbdb9d1c9858dd609a1b606082015260800190565b1561031357565b60405162461bcd60e51b81528061032c600482016102bf565b0390fd5b6100827f360894a13ba1a3210667c828492db98dca3e2076cc3735a920a3ca505d382bbc610198565b9061036961008261038592610205565b82546001600160a01b0319166001600160a01b03919091161790565b9055565b6100749061039e610399826103f8565b61030c565b60006103ab610082610330565b01610359565b3d156103cb576103c03d610250565b903d6000602084013e565b606090565b60008061008294936103e0606090565b50602081519101845af46103f26103b1565b91610461565b3b6104066101be6000610198565b1190565b6020808252601d908201527f416464726573733a2063616c6c20746f206e6f6e2d636f6e7472616374000000604082015260600190565b1561044857565b60405162461bcd60e51b81528061032c6004820161040a565b91929015610493575081516104796101be6000610198565b14610482575090565b61048e610082916103f8565b610441565b826104de565b6104ba6104c36020936100c3936104ae815190565b80835293849260200190565b958691016100c7565b601f01601f191690565b602080825261008292910190610499565b906104e7825190565b6104f46101be6000610198565b11156105035750805190602001fd5b61032c9061051060405190565b62461bcd60e51b8152918291600483016104cd56fe6080604052600a600e565b6017565b6014607c565b90565b60008091368280378136915af43d6000803e156032573d6000f35b3d6000fd5b6014601460149290565b60147f360894a13ba1a3210667c828492db98dca3e2076cc3735a920a3ca505d382bbc6037565b6001600160a01b031690565b601490546068565b60146000608860146041565b01607456fea26469706673582212200ad4ac51629ce32ff36896c3191fd47fcb9b0a0892e6281467f168c50548841064736f6c6343000816003340bd824d588484917db8fa4fc894c1e0feae5a75885290ba7b97521cebf82a8046756e6374696f6e206d7573742062652063616c6c6564207468726f75676820a26469706673582212208f657e07b69df7c5553669ad3c6a3cc8a8d1d97ed73edb3400d41198330a74bb64736f6c63430008160033",
  "linkReferences": {},
  "deployedLinkReferences": {}
}