{
  "_format": "hh-sol-artifact-1",
  "contractName": "LiquidityMining",
  "sourceName": "contracts/defi/LiquidityMining.sol",
  "abi": [
    {
      "inputs": [],
      "stateMutability": "nonpayable",
      "type": "constructor"
    },
    {
      "anonymous": false,
      "inputs": [
        {
          "indexed": true,
          "internalType": "address",
          "name": "previousOwner",
          "type": "address"
        },
        {
          "indexed": true,
          "internalType": "address",
          "name": "newOwner",
          "type": "address"
        }
      ],
      "name": "OwnershipTransferred",
      "type": "event"
    },
    {
      "anonymous": false,
      "inputs": [
        {
          "indexed": true,
          "internalType": "address",
          "name": "pool",
          "type": "address"
        },
        {
          "indexed": false,
          "internalType": "uint256",
          "name": "rewardRate",
          "type": "uint256"
        }
      ],
      "name": "PoolAdded",
      "type": "event"
    },
    {
      "anonymous": false,
      "inputs": [
        {
          "indexed": true,
          "internalType": "address",
          "name": "pool",
          "type": "address"
        },
        {
          "indexed": false,
          "internalType": "uint256",
          "name": "rewardRate",
          "type": "uint256"
        }
      ],
      "name": "PoolRewardRateUpdated",
      "type": "event"
    },
    {
      "anonymous": false,
      "inputs": [
        {
          "indexed": true,
          "internalType": "address",
          "name": "user",
          "type": "address"
        },
        {
          "indexed": true,
          "internalType": "address",
          "name": "pool",
          "type": "address"
        },
        {
          "indexed": false,
          "internalType": "uint256",
          "name": "reward",
          "type": "uint256"
        }
      ],
      "name": "RewardPaid",
      "type": "event"
    },
    {
      "anonymous": false,
      "inputs": [
        {
          "indexed": true,
          "internalType": "address",
          "name": "user",
          "type": "address"
        },
        {
          "indexed": true,
          "internalType": "address",
          "name": "pool",
          "type": "address"
        },
        {
          "indexed": false,
          "internalType": "uint256",
          "name": "amount",
          "type": "uint256"
        }
      ],
      "name": "Staked",
      "type": "event"
    },
    {
      "anonymous": false,
      "inputs": [
        {
          "indexed": true,
          "internalType": "address",
          "name": "user",
          "type": "address"
        },
        {
          "indexed": true,
          "internalType": "address",
          "name": "pool",
          "type": "address"
        },
        {
          "indexed": false,
          "internalType": "uint256",
          "name": "amount",
          "type": "uint256"
        }
      ],
      "name": "Withdrawn",
      "type": "event"
    },
    {
      "inputs": [
        {
          "internalType": "uint256",
          "name": "",
          "type": "uint256"
        }
      ],
      "name": "activePools",
      "outputs": [
        {
          "internalType": "address",
          "name": "",
          "type": "address"
        }
      ],
      "stateMutability": "view",
      "type": "function"
    },
    {
      "inputs": [
        {
          "internalType": "address",
          "name": "_pool",
          "type": "address"
        },
        {
          "internalType": "uint256",
          "name": "_rewardRate",
          "type": "uint256"
        }
      ],
      "name": "addPool",
      "outputs": [],
      "stateMutability": "nonpayable",
      "type": "function"
    },
    {
      "inputs": [
        {
          "internalType": "address",
          "name": "_pool",
          "type": "address"
        }
      ],
      "name": "claim",
      "outputs": [],
      "stateMutability": "nonpayable",
      "type": "function"
    },
    {
      "inputs": [
        {
          "internalType": "address",
          "name": "_rewardToken",
          "type": "address"
        }
      ],
      "name": "initialize",
      "outputs": [],
      "stateMutability": "nonpayable",
      "type": "function"
    },
    {
      "inputs": [],
      "name": "owner",
      "outputs": [
        {
          "internalType": "address",
          "name": "",
          "type": "address"
        }
      ],
      "stateMutability": "view",
      "type": "function"
    },
    {
      "inputs": [
        {
          "internalType": "address",
          "name": "_pool",
          "type": "address"
        },
        {
          "internalType": "address",
          "name": "_user",
          "type": "address"
        }
      ],
      "name": "pendingRewards",
      "outputs": [
        {
          "internalType": "uint256",
          "name": "",
          "type": "uint256"
        }
      ],
      "stateMutability": "view",
      "type": "function"
    },
    {
      "inputs": [],
      "name": "poolLength",
      "outputs": [
        {
          "internalType": "uint256",
          "name": "",
          "type": "uint256"
        }
      ],
      "stateMutability": "view",
      "type": "function"
    },
    {
      "inputs": [],
      "name": "renounceOwnership",
      "outputs": [],
      "stateMutability": "nonpayable",
      "type": "function"
    },
    {
      "inputs": [
        {
          "internalType": "address",
          "name": "",
          "type": "address"
        }
      ],
      "name": "rewardPools",
      "outputs": [
        {
          "internalType": "uint256",
          "name": "rewardRate",
          "type": "uint256"
        },
        {
          "internalType": "uint256",
          "name": "rewardPerShareStored",
          "type": "uint256"
        },
        {
          "internalType": "uint256",
          "name": "lastUpdateTime",
          "type": "uint256"
        },
        {
          "internalType": "uint256",
          "name": "totalStaked",
          "type": "uint256"
        }
      ],
      "stateMutability": "view",
      "type": "function"
    },
    {
      "inputs": [],
      "name": "rewardToken",
      "outputs": [
        {
          "internalType": "contract RewardToken",
          "name": "",
          "type": "address"
        }
      ],
      "stateMutability": "view",
      "type": "function"
    },
    {
      "inputs": [
        {
          "internalType": "address",
          "name": "_pool",
          "type": "address"
        },
        {
          "internalType": "uint256",
          "name": "_rewardRate",
          "type": "uint256"
        }
      ],
      "name": "setRewardRate",
      "outputs": [],
      "stateMutability": "nonpayable",
      "type": "function"
    },
    {
      "inputs": [
        {
          "internalType": "address",
          "name": "_pool",
          "type": "address"
        },
        {
          "internalType": "uint256",
          "name": "_amount",
          "type": "uint256"
        }
      ],
      "name": "stake",
      "outputs": [],
      "stateMutability": "nonpayable",
      "type": "function"
    },
    {
      "inputs": [
        {
          "internalType": "address",
          "name": "newOwner",
          "type": "address"
        }
      ],
      "name": "transferOwnership",
      "outputs": [],
      "stateMutability": "nonpayable",
      "type": "function"
    },
    {
      "inputs": [
        {
          "internalType": "address",
          "name": "_pool",
          "type": "address"
        }
      ],
      "name": "updatePool",
      "outputs": [],
      "stateMutability": "nonpayable",
      "type": "function"
    },
    {
      "inputs": [
        {
          "internalType": "address",
          "name": "",
          "type": "address"
        },
        {
          "internalType": "address",
          "name": "",
          "type": "address"
        }
      ],
      "name": "userInfo",
      "outputs": [
        {
          "internalType": "uint256",
          "name": "staked",
          "type": "uint256"
        },
        {
          "internalType": "uint256",
          "name": "rewardPerSharePaid",
          "type": "uint256"
        },
        {
          "internalType": "uint256",
          "name": "rewards",
          "type": "uint256"
        }
      ],
      "stateMutability": "view",
      "type": "function"
    },
    {
      "inputs": [
        {
          "internalType": "address",
          "name": "_pool",
          "type": "address"
        },
        {
          "internalType": "uint256",
          "name": "_amount",
          "type": "uint256"
        }
      ],
      "name": "withdraw",
      "outputs": [],
      "stateMutability": "nonpayable",
      "type": "function"
    }
  ],
  "bytecode": "0x6080806040523461005f5760008054336001600160a01b0319821681178355916001600160a01b03909116907f8be0079c531659141344cd1fd0a4f28419497f9722a3daafe3b4186f6b6457e09080a36001805561115990816100658239f35b600080fdfe6080604081815260048036101561001557600080fd5b600092833560e01c908163081e3eda14610c4b575080630f208beb14610bed5780631e83409a14610aa757806332a9caba14610907578063372d9448146108ad578063715018a6146108535780637b46c54f1461083157806380ac82281461070d578063812a71d51461064e5780638da5cb5b14610626578063adc9772e1461044e578063c4d66de81461037b578063f2fde38b146102ea578063f3fef3a314610146578063f7c618c1146101195763f87793ad146100d357600080fd5b3461011557602036600319011261011557359160055483101561011257506100fc602092610c98565b905491519160018060a01b039160031b1c168152f35b80fd5b8280fd5b50503461014257816003193601126101425760025490516001600160a01b039091168152602090f35b5080fd5b509034610115578060031936011261011557610160610c67565b6024359161016c610e0a565b82156102b45760018060a01b0382169384865260209281845282872033600052845282600020918583541061027157507fd1c19fbcd4551a5edfb66d43d2e337c04837afda3482b42bdf569a8fccdae5fb9392916101cb600392610d80565b86885281845282882090805490600183019061021d89835494670de0b6b3a76400006102066102006001870198895490610ce5565b83610d08565b0461021660028601918254610d3b565b9055610ce5565b90555490550161022e858254610ce5565b9055805163a9059cbb60e01b83820152336024820152604480820186905281526102639061025d606482610d48565b86610eff565b519283523392a36001805580f35b835162461bcd60e51b8152908101859052601a60248201527f496e73756666696369656e74207374616b656420616d6f756e740000000000006044820152606490fd5b5162461bcd60e51b81526020818501526011602482015270043616e6e6f74207769746864726177203607c1b6044820152606490fd5b503461011557602036600319011261011557610304610c67565b9161030d610e60565b6001600160a01b03831615610329578361032684610eb8565b80f35b906020608492519162461bcd60e51b8352820152602660248201527f4f776e61626c653a206e6577206f776e657220697320746865207a65726f206160448201526564647265737360d01b6064820152fd5b5082903461014257602036600319011261014257610397610c67565b906006549160ff8316610415576001600160a01b03169081156103db5750600280546001600160a01b031916909117905560ff191660011760065561032633610eb8565b606490602086519162461bcd60e51b8352820152601460248201527324b73b30b634b2103932bbb0b932103a37b5b2b760611b6044820152fd5b845162461bcd60e51b81526020818401526013602482015272105b1c9958591e481a5b9a5d1a585b1a5e9959606a1b6044820152606490fd5b509034610115578060031936011261011557610468610c67565b60243591610474610e0a565b82156105f35760018060a01b038216938486526020926003845260028388200154156105bf576104a390610d80565b84865260038352818620908084528287203360005284528260002090815480610581575b5083516323b872dd60e01b86820152336024820152306044820152606480820188905281529060a082019067ffffffffffffffff82118383101761056c57509161053a8594926003947f5dac0c1b1112564a045ba943c9d50270893e8e826c49be8e7073adc713ab7bd798975289610eff565b610545878254610d3b565b81556001808301549101550161055c858254610d3b565b9055519283523392a36001805580f35b604190634e487b7160e01b6000525260246000fd5b6105a7670de0b6b3a7640000916105a16001870154600187015490610ce5565b90610d08565b046105b760028401918254610d3b565b9055386104c7565b5082606492519162461bcd60e51b8352820152600f60248201526e506f6f6c206e6f742061637469766560881b6044820152fd5b5162461bcd60e51b8152602081850152600e60248201526d043616e6e6f74207374616b6520360941b6044820152606490fd5b505034610142578160031936011261014257905490516001600160a01b039091168152602090f35b509034610115578060031936011261011557610668610c67565b9060243591610675610e60565b6001600160a01b038116808652600360205282862060020154909490156106d95750916020916106c57f7fed494c3ce40876961e67e61b9a4e29c2291b68c03dad6f53ad35f16cc642e894610d80565b84865260038352818187205551908152a280f35b606490602084519162461bcd60e51b8352820152600e60248201526d141bdbdb081b9bdd08185919195960921b6044820152fd5b509134610112578160031936011261011257610727610c67565b61072f610c82565b60018060a01b0380921683526003602052838320918560205284842091166000526020528260002091600182015491600281015480421180610824575b6107a9575b6020866107a2876002670de0b6b3a76400006107988a6105a1855491600187015490610ce5565b0491015490610d3b565b9051908152f35b6107b66107be9142610ce5565b825490610d08565b91670de0b6b3a7640000928381029381850414901517156108115750602095506107986108096107a295946108036002956003670de0b6b3a764000096015490610d1b565b90610d3b565b939450610771565b634e487b7160e01b815260118752602490fd5b506003820154151561076c565b83346101125760203660031901126101125761032661084e610c67565b610d80565b833461011257806003193601126101125761086c610e60565b600080546001600160a01b0319811682556001600160a01b03167f8be0079c531659141344cd1fd0a4f28419497f9722a3daafe3b4186f6b6457e08280a380f35b5050346101425760203660031901126101425760809181906001600160a01b036108d5610c67565b168152600360205220908154916001810154916003600283015492015492815194855260208501528301526060820152f35b509034610115578060031936011261011557610921610c67565b906024359161092e610e60565b6001600160a01b03908116938415610a6d57848652600360205260028387200154610a355782516080810181811067ffffffffffffffff821117610a2057845284815260036020820188815285830142815260608401918a8352898b5283602052878b2094518555516001850155516002840155519101556005549068010000000000000000821015610a0d5750917f0c98febfffcec480c66a977e13f14bafdb5199ea9603591a0715b0cabe0c3ae293916109f284600160209601600555610c98565b819291549060031b9188831b921b191617905551908152a280f35b634e487b7160e01b875260419052602486fd5b604183634e487b7160e01b6000525260246000fd5b606490602084519162461bcd60e51b83528201526012602482015271141bdbdb08185b1c9958591e48185919195960721b6044820152fd5b606490602084519162461bcd60e51b83528201526014602482015273496e76616c696420706f6f6c206164647265737360601b6044820152fd5b50903461011557602036600319011261011557610ac2610c67565b90610acb610e0a565b610ad482610d80565b60018060a01b0380921692838552600360205281852092816020528286203387526020528286209360018554910187610b326002670de0b6b3a7640000610b278554966105a160018d0198895490610ce5565b049801978854610d3b565b96555490556002541690813b15610be95782516340c10f1960e01b815233828201908152602081018690529092879184919082908490829060400103925af18015610bdf57610baf575b5050519081527f540798df468d7b23d11f156fdb954cb19ad414d150722a7b6d55ba369dea792e60203392a36001805580f35b67ffffffffffffffff8296939611610bcc57508452923880610b7c565b634e487b7160e01b835260419052602482fd5b83513d88823e3d90fd5b8580fd5b50346101155781600319360112610115576060928291610c0b610c67565b610c13610c82565b9160018060a01b0380921684526020528383209116825260205220805491600260018301549201549181519384526020840152820152f35b8490346101425781600319360112610142576020906005548152f35b600435906001600160a01b0382168203610c7d57565b600080fd5b602435906001600160a01b0382168203610c7d57565b600554811015610ccf5760056000527f036b6384b5eca791c62761152d0c79bb0604c104a5fb6f4eb0703f3154bb3db00190600090565b634e487b7160e01b600052603260045260246000fd5b91908203918211610cf257565b634e487b7160e01b600052601160045260246000fd5b81810292918115918404141715610cf257565b8115610d25570490565b634e487b7160e01b600052601260045260246000fd5b91908201809211610cf257565b90601f8019910116810190811067ffffffffffffffff821117610d6a57604052565b634e487b7160e01b600052604160045260246000fd5b60018060a01b03166000526003602052604060002060028101908154421115610e065760038101548015610dff57610dc4610dbc845442610ce5565b835490610d08565b90670de0b6b3a764000091828102928184041490151715610cf257610dee600191610df893610d1b565b9201918254610d3b565b9055429055565b5050429055565b5050565b600260015414610e1b576002600155565b60405162461bcd60e51b815260206004820152601f60248201527f5265656e7472616e637947756172643a207265656e7472616e742063616c6c006044820152606490fd5b6000546001600160a01b03163303610e7457565b606460405162461bcd60e51b815260206004820152602060248201527f4f776e61626c653a2063616c6c6572206973206e6f7420746865206f776e65726044820152fd5b600080546001600160a01b039283166001600160a01b03198216811783559216907f8be0079c531659141344cd1fd0a4f28419497f9722a3daafe3b4186f6b6457e09080a3565b60018060a01b0316906040516040810167ffffffffffffffff9082811082821117610d6a576040526020938483527f5361666545524332303a206c6f772d6c6576656c2063616c6c206661696c6564858401526000808587829751910182855af1903d15611044573d9283116110305790610f9a93929160405192610f8d88601f19601f8401160185610d48565b83523d868885013e61104f565b80519182159184831561100c575b505050905015610fb55750565b6084906040519062461bcd60e51b82526004820152602a60248201527f5361666545524332303a204552433230206f7065726174696f6e20646964206e6044820152691bdd081cdd58d8d9595960b21b6064820152fd5b91938180945001031261014257820151908115158203610112575080388084610fa8565b634e487b7160e01b85526041600452602485fd5b90610f9a9392506060915b919290156110b15750815115611063575090565b3b1561106c5790565b60405162461bcd60e51b815260206004820152601d60248201527f416464726573733a2063616c6c20746f206e6f6e2d636f6e74726163740000006044820152606490fd5b8251909150156110c45750805190602001fd5b6040519062461bcd60e51b82528160208060048301528251908160248401526000935b82851061110a575050604492506000838284010152601f80199101168101030190fd5b84810182015186860160440152938101938593506110e756fea2646970667358221220186cbc8e8c82fa87e0e3081e25c8c11e68a7ce993a0027e9192dfc5cb79be5cd64736f6c63430008160033",
  "linkReferences": {},
  "deployedLinkReferences": {}
}