{
  "_format": "hh-sol-artifact-1",
  "contractName": "V4TokenBase",
  "sourceName": "src/contracts/V4TokenBase.sol",
  "abi": [
    {
      "inputs": [],
      "stateMutability": "nonpayable",
      "type": "constructor"
    },
    {
      "inputs": [],
      "name": "CoreModuleRequired",
      "type": "error"
    },
    {
      "inputs": [],
      "name": "InvalidModule",
      "type": "error"
    },
    {
      "inputs": [],
      "name": "ModuleDoesNotExist",
      "type": "error"
    },
    {
      "inputs": [],
      "name": "ModuleExecutionFailed",
      "type": "error"
    },
    {
      "inputs": [],
      "name": "ModuleExists",
      "type": "error"
    },
    {
      "inputs": [],
      "name": "PermissionDenied",
      "type": "error"
    },
    {
      "anonymous": false,
      "inputs": [
        {
          "indexed": true,
          "internalType": "address",
          "name": "owner",
          "type": "address"
        },
        {
          "indexed": true,
          "internalType": "address",
          "name": "spender",
          "type": "address"
        },
        {
          "indexed": false,
          "internalType": "uint256",
          "name": "value",
          "type": "uint256"
        }
      ],
      "name": "Approval",
      "type": "event"
    },
    {
      "anonymous": false,
      "inputs": [
        {
          "indexed": false,
          "internalType": "uint8",
          "name": "version",
          "type": "uint8"
        }
      ],
      "name": "Initialized",
      "type": "event"
    },
    {
      "anonymous": false,
      "inputs": [
        {
          "indexed": true,
          "internalType": "address",
          "name": "moduleAddress",
          "type": "address"
        },
        {
          "indexed": true,
          "internalType": "bytes32",
          "name": "moduleType",
          "type": "bytes32"
        }
      ],
      "name": "ModuleAdded",
      "type": "event"
    },
    {
      "anonymous": false,
      "inputs": [
        {
          "indexed": true,
          "internalType": "address",
          "name": "moduleAddress",
          "type": "address"
        },
        {
          "indexed": true,
          "internalType": "address",
          "name": "target",
          "type": "address"
        },
        {
          "indexed": false,
          "internalType": "bool",
          "name": "success",
          "type": "bool"
        }
      ],
      "name": "ModuleExecution",
      "type": "event"
    },
    {
      "anonymous": false,
      "inputs": [
        {
          "indexed": true,
          "internalType": "address",
          "name": "moduleAddress",
          "type": "address"
        },
        {
          "indexed": true,
          "internalType": "bytes32",
          "name": "moduleType",
          "type": "bytes32"
        }
      ],
      "name": "ModuleRemoved",
      "type": "event"
    },
    {
      "anonymous": false,
      "inputs": [
        {
          "indexed": true,
          "internalType": "address",
          "name": "previousOwner",
          "type": "address"
        },
        {
          "indexed": true,
          "internalType": "address",
          "name": "newOwner",
          "type": "address"
        }
      ],
      "name": "OwnershipTransferred",
      "type": "event"
    },
    {
      "anonymous": false,
      "inputs": [
        {
          "indexed": false,
          "internalType": "address",
          "name": "account",
          "type": "address"
        }
      ],
      "name": "Paused",
      "type": "event"
    },
    {
      "anonymous": false,
      "inputs": [
        {
          "indexed": true,
          "internalType": "address",
          "name": "from",
          "type": "address"
        },
        {
          "indexed": true,
          "internalType": "address",
          "name": "to",
          "type": "address"
        },
        {
          "indexed": false,
          "internalType": "uint256",
          "name": "value",
          "type": "uint256"
        }
      ],
      "name": "Transfer",
      "type": "event"
    },
    {
      "anonymous": false,
      "inputs": [
        {
          "indexed": false,
          "internalType": "address",
          "name": "account",
          "type": "address"
        }
      ],
      "name": "Unpaused",
      "type": "event"
    },
    {
      "inputs": [],
      "name": "VERSION",
      "outputs": [
        {
          "internalType": "string",
          "name": "",
          "type": "string"
        }
      ],
      "stateMutability": "view",
      "type": "function"
    },
    {
      "inputs": [
        {
          "internalType": "address",
          "name": "moduleAddress",
          "type": "address"
        },
        {
          "internalType": "bytes",
          "name": "data",
          "type": "bytes"
        }
      ],
      "name": "addModule",
      "outputs": [
        {
          "internalType": "bool",
          "name": "success",
          "type": "bool"
        }
      ],
      "stateMutability": "nonpayable",
      "type": "function"
    },
    {
      "inputs": [
        {
          "internalType": "address",
          "name": "owner",
          "type": "address"
        },
        {
          "internalType": "address",
          "name": "spender",
          "type": "address"
        }
      ],
      "name": "allowance",
      "outputs": [
        {
          "internalType": "uint256",
          "name": "",
          "type": "uint256"
        }
      ],
      "stateMutability": "view",
      "type": "function"
    },
    {
      "inputs": [
        {
          "internalType": "address",
          "name": "spender",
          "type": "address"
        },
        {
          "internalType": "uint256",
          "name": "amount",
          "type": "uint256"
        }
      ],
      "name": "approve",
      "outputs": [
        {
          "internalType": "bool",
          "name": "",
          "type": "bool"
        }
      ],
      "stateMutability": "nonpayable",
      "type": "function"
    },
    {
      "inputs": [
        {
          "internalType": "address",
          "name": "account",
          "type": "address"
        }
      ],
      "name": "balanceOf",
      "outputs": [
        {
          "internalType": "uint256",
          "name": "",
          "type": "uint256"
        }
      ],
      "stateMutability": "view",
      "type": "function"
    },
    {
      "inputs": [],
      "name": "decimals",
      "outputs": [
        {
          "internalType": "uint8",
          "name": "",
          "type": "uint8"
        }
      ],
      "stateMutability": "view",
      "type": "function"
    },
    {
      "inputs": [
        {
          "internalType": "address",
          "name": "spender",
          "type": "address"
        },
        {
          "internalType": "uint256",
          "name": "subtractedValue",
          "type": "uint256"
        }
      ],
      "name": "decreaseAllowance",
      "outputs": [
        {
          "internalType": "bool",
          "name": "",
          "type": "bool"
        }
      ],
      "stateMutability": "nonpayable",
      "type": "function"
    },
    {
      "inputs": [
        {
          "internalType": "address",
          "name": "target",
          "type": "address"
        },
        {
          "internalType": "bytes",
          "name": "data",
          "type": "bytes"
        }
      ],
      "name": "executeFromModule",
      "outputs": [
        {
          "internalType": "bool",
          "name": "success",
          "type": "bool"
        },
        {
          "internalType": "bytes",
          "name": "returnData",
          "type": "bytes"
        }
      ],
      "stateMutability": "nonpayable",
      "type": "function"
    },
    {
      "inputs": [
        {
          "internalType": "bytes32",
          "name": "moduleType",
          "type": "bytes32"
        }
      ],
      "name": "getModuleByType",
      "outputs": [
        {
          "internalType": "address",
          "name": "moduleAddress",
          "type": "address"
        }
      ],
      "stateMutability": "view",
      "type": "function"
    },
    {
      "inputs": [],
      "name": "getModules",
      "outputs": [
        {
          "internalType": "address[]",
          "name": "modules",
          "type": "address[]"
        }
      ],
      "stateMutability": "view",
      "type": "function"
    },
    {
      "inputs": [
        {
          "internalType": "address",
          "name": "spender",
          "type": "address"
        },
        {
          "internalType": "uint256",
          "name": "addedValue",
          "type": "uint256"
        }
      ],
      "name": "increaseAllowance",
      "outputs": [
        {
          "internalType": "bool",
          "name": "",
          "type": "bool"
        }
      ],
      "stateMutability": "nonpayable",
      "type": "function"
    },
    {
      "inputs": [
        {
          "internalType": "string",
          "name": "name_",
          "type": "string"
        },
        {
          "internalType": "string",
          "name": "symbol_",
          "type": "string"
        },
        {
          "internalType": "uint256",
          "name": "initialSupply",
          "type": "uint256"
        },
        {
          "internalType": "address",
          "name": "owner_",
          "type": "address"
        }
      ],
      "name": "initialize",
      "outputs": [],
      "stateMutability": "nonpayable",
      "type": "function"
    },
    {
      "inputs": [
        {
          "internalType": "address",
          "name": "moduleAddress",
          "type": "address"
        }
      ],
      "name": "isModuleActive",
      "outputs": [
        {
          "internalType": "bool",
          "name": "isActive",
          "type": "bool"
        }
      ],
      "stateMutability": "view",
      "type": "function"
    },
    {
      "inputs": [],
      "name": "name",
      "outputs": [
        {
          "internalType": "string",
          "name": "",
          "type": "string"
        }
      ],
      "stateMutability": "view",
      "type": "function"
    },
    {
      "inputs": [],
      "name": "owner",
      "outputs": [
        {
          "internalType": "address",
          "name": "",
          "type": "address"
        }
      ],
      "stateMutability": "view",
      "type": "function"
    },
    {
      "inputs": [],
      "name": "pause",
      "outputs": [],
      "stateMutability": "nonpayable",
      "type": "function"
    },
    {
      "inputs": [],
      "name": "paused",
      "outputs": [
        {
          "internalType": "bool",
          "name": "",
          "type": "bool"
        }
      ],
      "stateMutability": "view",
      "type": "function"
    },
    {
      "inputs": [
        {
          "internalType": "address",
          "name": "moduleAddress",
          "type": "address"
        }
      ],
      "name": "removeModule",
      "outputs": [
        {
          "internalType": "bool",
          "name": "success",
          "type": "bool"
        }
      ],
      "stateMutability": "nonpayable",
      "type": "function"
    },
    {
      "inputs": [],
      "name": "renounceOwnership",
      "outputs": [],
      "stateMutability": "nonpayable",
      "type": "function"
    },
    {
      "inputs": [],
      "name": "symbol",
      "outputs": [
        {
          "internalType": "string",
          "name": "",
          "type": "string"
        }
      ],
      "stateMutability": "view",
      "type": "function"
    },
    {
      "inputs": [],
      "name": "totalSupply",
      "outputs": [
        {
          "internalType": "uint256",
          "name": "",
          "type": "uint256"
        }
      ],
      "stateMutability": "view",
      "type": "function"
    },
    {
      "inputs": [
        {
          "internalType": "address",
          "name": "to",
          "type": "address"
        },
        {
          "internalType": "uint256",
          "name": "amount",
          "type": "uint256"
        }
      ],
      "name": "transfer",
      "outputs": [
        {
          "internalType": "bool",
          "name": "",
          "type": "bool"
        }
      ],
      "stateMutability": "nonpayable",
      "type": "function"
    },
    {
      "inputs": [
        {
          "internalType": "address",
          "name": "from",
          "type": "address"
        },
        {
          "internalType": "address",
          "name": "to",
          "type": "address"
        },
        {
          "internalType": "uint256",
          "name": "amount",
          "type": "uint256"
        }
      ],
      "name": "transferFrom",
      "outputs": [
        {
          "internalType": "bool",
          "name": "",
          "type": "bool"
        }
      ],
      "stateMutability": "nonpayable",
      "type": "function"
    },
    {
      "inputs": [
        {
          "internalType": "address",
          "name": "newOwner",
          "type": "address"
        }
      ],
      "name": "transferOwnership",
      "outputs": [],
      "stateMutability": "nonpayable",
      "type": "function"
    },
    {
      "inputs": [],
      "name": "unpause",
      "outputs": [],
      "stateMutability": "nonpayable",
      "type": "function"
    }
  ],
  "bytecode": "0x608080604052346100c1576000549060ff8260081c1661006f575060ff80821603610034575b604051611acf90816100c78239f35b60ff90811916176000557f7f26b83ff96e1f2b6a682f133852f6798a09c465da95921460cefb3847402498602060405160ff8152a138610025565b62461bcd60e51b815260206004820152602760248201527f496e697469616c697a61626c653a20636f6e747261637420697320696e697469604482015266616c697a696e6760c81b6064820152608490fd5b600080fdfe608080604052600436101561001357600080fd5b60003560e01c90816306fdde031461113a57508063095ea7b31461111457806318160ddd146110f657806323b872dd14611038578063291153cb146110045780632dd3a78c14610fe3578063313ce56714610fc75780633950935114610f765780633f4ba83a14610ece5780635607b78014610de95780635c975abb14610dc657806370a0823114610d8c578063715018a614610d2f5780638456cb5914610c765780638da5cb5b14610c4d57806395d89b4114610b7c578063a063246114610a24578063a457c2d71461097d578063a9059cbb1461094c578063b2494df31461084d578063bd3a13f6146102d6578063d21b9fbd14610292578063dd62ed3e14610241578063f2fde38b146101aa5763ffa1ad741461013257600080fd5b346101a55760003660031901126101a557604051604081019080821067ffffffffffffffff83111761018f5761018b9160405260058152640342e302e360dc1b60208201526040519182916020835260208301906111d3565b0390f35b634e487b7160e01b600052604160045260246000fd5b600080fd5b346101a55760203660031901126101a5576101c3611213565b6101cb6117c9565b6101d36117c9565b6001600160a01b038116156101ed576101eb90611821565b005b60405162461bcd60e51b815260206004820152602660248201527f4f776e61626c653a206e6577206f776e657220697320746865207a65726f206160448201526564647265737360d01b6064820152608490fd5b346101a55760403660031901126101a55761025a611213565b610262611229565b9060018060a01b038091166000526034602052604060002091166000526020526020604060002054604051908152f35b346101a55760203660031901126101a55760206102cc6001600160a01b036102b8611213565b1660005260ca602052604060002054151590565b6040519015158152f35b346101a55760803660031901126101a55760043567ffffffffffffffff81116101a5576103079036906004016112da565b60243567ffffffffffffffff81116101a5576103279036906004016112da565b6064356001600160a01b03811690036101a5576000549060ff8260081c161591828093610840575b8015610829575b156107cd5760ff198116600117600055826107bb575b5061038760ff60005460081c166103828161186a565b61186a565b825167ffffffffffffffff811161018f576103a3603654611321565b601f8111610752575b506020601f82116001146106de57819293946000926106d3575b50508160011b916000199060031b1c1916176036555b80519067ffffffffffffffff821161018f5781906103fb603754611321565b601f811161065c575b50602090601f83116001146105e4576000926105d9575b50508160011b916000199060031b1c1916176037555b61046260ff60005460081c166104468161186a565b61044f8161186a565b60ff19606554166065556103828161186a565b61046b33611821565b610476606435611821565b6044356104bc575b61048457005b61ff0019600054166000557f7f26b83ff96e1f2b6a682f133852f6798a09c465da95921460cefb3847402498602060405160018152a1005b6064356001600160a01b0316156105945760ff6065541661053e576104e5604435603554611512565b6035556064356001600160a01b03166000818152603360209081526040808320805460443590810190915590519081527fddf252ad1be2c89b69c2b068fc378daa952ba7f163c4a11628f55a4df523b3ef9190a361047e565b60405162461bcd60e51b815260206004820152602860248201527f5634546f6b656e426173653a20746f6b656e207472616e73666572207768696c60448201526719481c185d5cd95960c21b6064820152608490fd5b60405162461bcd60e51b815260206004820152601f60248201527f45524332303a206d696e7420746f20746865207a65726f2061646472657373006044820152606490fd5b01519050838061041b565b92506037600052600080516020611a7a833981519152906000935b601f1984168510610641576001945083601f19811610610628575b505050811b01603755610431565b015160001960f88460031b161c1916905583808061061a565b818101518355602094850194600190930192909101906105ff565b9091506037600052601f830160051c600080516020611a7a8339815191520190602084106106bd575b90601f8493920160051c600080516020611a7a83398151915201905b8181106106ae5750610404565b600081558493506001016106a1565b600080516020611a7a8339815191529150610685565b0151905084806103c6565b6036600052600080516020611a5a8339815191529060005b601f198416811061073a5750600193949583601f19811610610721575b505050811b016036556103dc565b015160001960f88460031b161c19169055848080610713565b9091602060018192858a0151815501930191016106f6565b6036600052601f820160051c600080516020611a5a83398151915201602083106107a6575b601f820160051c600080516020611a5a83398151915201811061079a57506103ac565b60008155600101610777565b50600080516020611a5a833981519152610777565b61ffff1916610101176000558361036c565b60405162461bcd60e51b815260206004820152602e60248201527f496e697469616c697a61626c653a20636f6e747261637420697320616c72656160448201526d191e481a5b9a5d1a585b1a5e995960921b6064820152608490fd5b50303b1580156103565750600160ff821614610356565b50600160ff82161061034f565b346101a55760003660031901126101a55760c9805461086b81611535565b610878604051918261129c565b81815261088482611535565b6020938285019391601f190136853760005b8281106108ea5750505090604051928392818401908285525180915260408401929160005b8281106108ca57505050500390f35b83516001600160a01b0316855286955093810193928101926001016108bb565b8160005260018060a01b03817f66be4f155c5ef2ebd3772b228f2f00681e4ed5826cdb3b1943cc11ad15ad1d2801541690845181101561093657600191878260051b8701015201610896565b634e487b7160e01b600052603260045260246000fd5b346101a55760403660031901126101a557610972610968611213565b602435903361164f565b602060405160018152f35b346101a55760403660031901126101a557610996611213565b60243590336000526034602052604060002060018060a01b038216600052602052604060002054918083106109d1576109729203903361154d565b60405162461bcd60e51b815260206004820152602560248201527f45524332303a2064656372656173656420616c6c6f77616e63652062656c6f77604482015264207a65726f60d81b6064820152608490fd5b346101a5576020806003193601126101a557610a3e611213565b610a466117c9565b6001600160a01b03908116600081815260ca602052604090205490919015610b6a57604051630b9349b960e01b8152908382600481865afa918215610b5e57600092610b2f575b507fe8dfd5edbafe3b1a04db54003f904cfc4610e36b1414906e3f2255bd826e13cf8214610b1d57610abe8361196f565b508160005260cb845260406000209083825491821614610b0a575b5050604051917f6c091f3748fc70f06d78ed2feef8684b81e8361030e52045ec5435680bc21404600080a360018152f35b6001600160a01b03191690558380610ad9565b604051631b0098fb60e31b8152600490fd5b9091508381813d8311610b57575b610b47818361129c565b810103126101a557519084610a8d565b503d610b3d565b6040513d6000823e3d90fd5b604051630286c71d60e01b8152600490fd5b346101a55760003660031901126101a557604051603754600082610b9f83611321565b9182825260209360019085600182169182600014610c2d575050600114610be2575b50610bce9250038361129c565b61018b6040519282849384528301906111d3565b8491506037600052600080516020611a7a833981519152906000915b858310610c15575050610bce935082010185610bc1565b80548389018501528794508693909201918101610bfe565b60ff191685820152610bce95151560051b8501019250879150610bc19050565b346101a55760003660031901126101a5576097546040516001600160a01b039091168152602090f35b346101a55760003660031901126101a557610c9e3360005260ca602052604060002054151590565b15610d1d5760655460ff8116610ce55760019060ff1916176065557f62e78cea01bee320cd4e420270b5ea74000d11b0c9f74754ebdbfc544b05a2586020604051338152a1005b60405162461bcd60e51b815260206004820152601060248201526f14185d5cd8589b194e881c185d5cd95960821b6044820152606490fd5b604051630782484160e21b8152600490fd5b346101a55760003660031901126101a557610d486117c9565b609780546001600160a01b031981169091556000906001600160a01b03167f8be0079c531659141344cd1fd0a4f28419497f9722a3daafe3b4186f6b6457e08280a3005b346101a55760203660031901126101a5576001600160a01b03610dad611213565b1660005260336020526020604060002054604051908152f35b346101a55760003660031901126101a557602060ff606554166040519015158152f35b346101a557610df73661123f565b90610e0f3360005260ca602052604060002054151590565b15610d1d578160009291839260405192839283378101838152039082855af1903d15610ec6573d91610e40836112be565b92610e4e604051948561129c565b83523d6000602085013e5b60405190159081159283825260018060a01b0316907f1c8d244835e4726493aa10820e21ebb79793d86f6acd3d226a03327329efa5cc60203392a3610eb45761018b60405192839283526040602084015260408301906111d3565b604051636670a33360e11b8152600490fd5b606091610e59565b346101a55760003660031901126101a557610ef63360005260ca602052604060002054151590565b15610d1d5760655460ff811615610f3a5760ff19166065557f5db9ee0a495bf2e6ff9c91a7834c1ba4fdd244a5e8aa4e537bd38aeae4b073aa6020604051338152a1005b60405162461bcd60e51b815260206004820152601460248201527314185d5cd8589b194e881b9bdd081c185d5cd95960621b6044820152606490fd5b346101a55760403660031901126101a557610972610f92611213565b336000526034602052604060002060018060a01b038216600052602052610fc0602435604060002054611512565b903361154d565b346101a55760003660031901126101a557602060405160128152f35b346101a55760206102cc610ff63661123f565b91610fff6117c9565b61135b565b346101a55760203660031901126101a55760043560005260cb602052602060018060a01b0360406000205416604051908152f35b346101a55760603660031901126101a557611051611213565b611059611229565b6044359060018060a01b0383166000526034602052604060002033600052602052604060002054926000198403611095575b610972935061164f565b8284106110b1576110ac836109729503338361154d565b61108b565b60405162461bcd60e51b815260206004820152601d60248201527f45524332303a20696e73756666696369656e7420616c6c6f77616e63650000006044820152606490fd5b346101a55760003660031901126101a5576020603554604051908152f35b346101a55760403660031901126101a557610972611130611213565b602435903361154d565b346101a55760003660031901126101a55760365460008261115a83611321565b9182825260209360019085600182169182600014610c2d5750506001146111885750610bce9250038361129c565b8491506036600052600080516020611a5a833981519152906000915b8583106111bb575050610bce935082010185610bc1565b805483890185015287945086939092019181016111a4565b919082519283825260005b8481106111ff575050826000602080949584010152601f8019910116010190565b6020818301810151848301820152016111de565b600435906001600160a01b03821682036101a557565b602435906001600160a01b03821682036101a557565b60406003198201126101a5576004356001600160a01b03811681036101a5579160243567ffffffffffffffff928382116101a557806023830112156101a55781600401359384116101a557602484830101116101a5576024019190565b90601f8019910116810190811067ffffffffffffffff82111761018f57604052565b67ffffffffffffffff811161018f57601f01601f191660200190565b81601f820112156101a5578035906112f1826112be565b926112ff604051948561129c565b828452602083830101116101a557816000926020809301838601378301015290565b90600182811c92168015611351575b602083101461133b57565b634e487b7160e01b600052602260045260246000fd5b91607f1691611330565b90916001600160a01b039182169060008215611500576113888360005260ca602052604060002054151590565b6114ee57823b156114eb57808260646040978851958693849263347d5e2560e21b84523060048501528b6024850152816044850152848401378181018301859052601f01601f1916810103018183875af191826114c0575b50906113f7578351631bb2296560e31b8152600490fd5b8351630b9349b960e01b815292602084600481865afa9384156114b6578294611480575b508280949561144a7ff04a3787b1d3e800ff66635a9faba83984d3c3f6de65820a0c87c7b0f8f34cf995611901565b5086845260cb60205283209182549081161561146b575b50505080a3600190565b6001600160a01b031916179055388381611461565b9293506020833d6020116114ae575b8161149c6020938361129c565b810103126101a557915192918261141b565b3d915061148f565b85513d84823e3d90fd5b67ffffffffffffffff81116114d7578552386113e0565b634e487b7160e01b82526041600452602482fd5b80fd5b60405163bdf91dc160e01b8152600490fd5b604051631bb2296560e31b8152600490fd5b9190820180921161151f57565b634e487b7160e01b600052601160045260246000fd5b67ffffffffffffffff811161018f5760051b60200190565b6001600160a01b039081169182156115fe57169182156115ae5760207f8c5be1e5ebec7d5bd14f71427d1e84f3dd0314c0f7b2291e5b200ac8c7c3b925918360005260348252604060002085600052825280604060002055604051908152a3565b60405162461bcd60e51b815260206004820152602260248201527f45524332303a20617070726f766520746f20746865207a65726f206164647265604482015261737360f01b6064820152608490fd5b60405162461bcd60e51b8152602060048201526024808201527f45524332303a20617070726f76652066726f6d20746865207a65726f206164646044820152637265737360e01b6064820152608490fd5b6001600160a01b0390811691821561177657169182156117255760ff6065541661053e57600082815260336020526040812054918083106116d157604082827fddf252ad1be2c89b69c2b068fc378daa952ba7f163c4a11628f55a4df523b3ef95876020965260338652038282205586815220818154019055604051908152a3565b60405162461bcd60e51b815260206004820152602660248201527f45524332303a207472616e7366657220616d6f756e7420657863656564732062604482015265616c616e636560d01b6064820152608490fd5b60405162461bcd60e51b815260206004820152602360248201527f45524332303a207472616e7366657220746f20746865207a65726f206164647260448201526265737360e81b6064820152608490fd5b60405162461bcd60e51b815260206004820152602560248201527f45524332303a207472616e736665722066726f6d20746865207a65726f206164604482015264647265737360d81b6064820152608490fd5b6097546001600160a01b031633036117dd57565b606460405162461bcd60e51b815260206004820152602060248201527f4f776e61626c653a2063616c6c6572206973206e6f7420746865206f776e65726044820152fd5b609780546001600160a01b039283166001600160a01b0319821681179092559091167f8be0079c531659141344cd1fd0a4f28419497f9722a3daafe3b4186f6b6457e0600080a3565b1561187157565b60405162461bcd60e51b815260206004820152602b60248201527f496e697469616c697a61626c653a20636f6e7472616374206973206e6f74206960448201526a6e697469616c697a696e6760a81b6064820152608490fd5b60c9548110156109365760c96000527f66be4f155c5ef2ebd3772b228f2f00681e4ed5826cdb3b1943cc11ad15ad1d280190600090565b600081815260ca602052604081205461196a5760c954680100000000000000008110156114d757908261195661193f8460016040960160c9556118ca565b819391549060031b91821b91600019901b19161790565b905560c95492815260ca6020522055600190565b905090565b600081815260ca60205260408120549091908015611a545760001990808201818111611a405760c95490838201918211611a2c578082036119f8575b50505060c95480156119e4578101906119c3826118ca565b909182549160031b1b1916905560c955815260ca6020526040812055600190565b634e487b7160e01b84526031600452602484fd5b611a16611a0761193f936118ca565b90549060031b1c9283926118ca565b9055845260ca60205260408420553880806119ab565b634e487b7160e01b86526011600452602486fd5b634e487b7160e01b85526011600452602485fd5b50509056fe4a11f94e20a93c79f6ec743a1954ec4fc2c08429ae2122118bf234b2185c81b842a7b7dd785cd69714a189dffb3fd7d7174edc9ece837694ce50f7078f7c31aea26469706673582212201434a623ed7de3cffc1a99b3ca0b9b95b16414e7703a241e628bb22c1148cfef64736f6c63430008160033",
  "linkReferences": {},
  "deployedLinkReferences": {}
}