{
  "_format": "hh-sol-artifact-1",
  "contractName": "AmoyTokenFactory",
  "sourceName": "contracts/AmoyTokenFactory.sol",
  "abi": [
    {
      "inputs": [
        {
          "internalType": "uint256",
          "name": "_deploymentFee",
          "type": "uint256"
        }
      ],
      "stateMutability": "nonpayable",
      "type": "constructor"
    },
    {
      "anonymous": false,
      "inputs": [
        {
          "indexed": true,
          "internalType": "address",
          "name": "tokenAddress",
          "type": "address"
        },
        {
          "indexed": true,
          "internalType": "address",
          "name": "creator",
          "type": "address"
        }
      ],
      "name": "TokenCreated",
      "type": "event"
    },
    {
      "inputs": [
        {
          "internalType": "string",
          "name": "name",
          "type": "string"
        },
        {
          "internalType": "string",
          "name": "symbol",
          "type": "string"
        },
        {
          "internalType": "uint256",
          "name": "initialSupply",
          "type": "uint256"
        }
      ],
      "name": "createToken",
      "outputs": [
        {
          "internalType": "address",
          "name": "",
          "type": "address"
        }
      ],
      "stateMutability": "payable",
      "type": "function"
    },
    {
      "inputs": [],
      "name": "deploymentFee",
      "outputs": [
        {
          "internalType": "uint256",
          "name": "",
          "type": "uint256"
        }
      ],
      "stateMutability": "view",
      "type": "function"
    },
    {
      "inputs": [
        {
          "internalType": "address",
          "name": "user",
          "type": "address"
        }
      ],
      "name": "getTokensByUser",
      "outputs": [
        {
          "internalType": "address[]",
          "name": "",
          "type": "address[]"
        }
      ],
      "stateMutability": "view",
      "type": "function"
    },
    {
      "inputs": [
        {
          "internalType": "address",
          "name": "",
          "type": "address"
        }
      ],
      "name": "isTokenFromFactory",
      "outputs": [
        {
          "internalType": "bool",
          "name": "",
          "type": "bool"
        }
      ],
      "stateMutability": "view",
      "type": "function"
    },
    {
      "inputs": [],
      "name": "owner",
      "outputs": [
        {
          "internalType": "address",
          "name": "",
          "type": "address"
        }
      ],
      "stateMutability": "view",
      "type": "function"
    },
    {
      "inputs": [
        {
          "internalType": "uint256",
          "name": "newFee",
          "type": "uint256"
        }
      ],
      "name": "setDeploymentFee",
      "outputs": [],
      "stateMutability": "nonpayable",
      "type": "function"
    },
    {
      "inputs": [
        {
          "internalType": "address",
          "name": "newOwner",
          "type": "address"
        }
      ],
      "name": "transferOwnership",
      "outputs": [],
      "stateMutability": "nonpayable",
      "type": "function"
    },
    {
      "inputs": [],
      "name": "withdraw",
      "outputs": [],
      "stateMutability": "nonpayable",
      "type": "function"
    }
  ],
  "bytecode": "0x60803461006357601f61121238819003918201601f19168301916001600160401b03831184841017610068578084926020946040528339810103126100635751600080546001600160a01b03191633179055600155604051611193908161007f8239f35b600080fd5b634e487b7160e01b600052604160045260246000fdfe6040608081526004803610156200001557600080fd5b600091823560e01c80633ccfd60b14620004545780635b06053014620002905780638037007514620001d55780638da5cb5b14620001ab578063d002462b1462000179578063dbd593061462000137578063f2cff57f14620001125763f2fde38b146200008157600080fd5b346200010e5760203660031901126200010e576001600160a01b038235818116939192908490036200010a57620000be85549384163314620005e7565b8315620000d75750506001600160a01b03191617815580f35b906020606492519162461bcd60e51b8352820152600d60248201526c24b73b30b634b21037bbb732b960991b6044820152fd5b8480fd5b8280fd5b83823462000133578160031936011262000133576020906001549051908152f35b5080fd5b5090346200010e5760203660031901126200010e57356001600160a01b038116908190036200010e57818360ff92602095526003855220541690519015158152f35b505034620001335760203660031901126200013357620001a460018060a01b038354163314620005e7565b3560015580f35b8382346200013357816003193601126200013357905490516001600160a01b039091168152602090f35b5090346200010e57602090816003193601126200028c576001600160a01b0393903584811690819003620001335781526002825282812091835190818185549182815201908195855282852090855b8181106200027557505050826200023d9103836200053f565b8451948186019282875251809352850193925b8281106200025e5785850386f35b835187168552938101939281019260010162000250565b82548a168452928401926001928301920162000224565b8380fd5b5082906060366003190112620001335767ffffffffffffffff83358181116200028c57620002c2903690860162000595565b906024358181116200010a57620002dd903690870162000595565b60015434106200041e57835192610afa808501938411858510176200040b57916200031e6200032d9286959462000664873960608552606085019062000621565b90838203602085015262000621565b9084604435910152039083f08015620004005760018060a01b031690338352600260205280832080549068010000000000000000821015620003ed5760018201808255821015620003da5760209550845284842001826bffffffffffffffffffffffff60a01b82541617905581835260038452808320600160ff198254161790555191817fd5f9bdf12adf29dab0248c349842c3822d53ae2bb4f36352f301630d018c8139339280a38152f35b634e487b7160e01b855260328652602485fd5b634e487b7160e01b855260418652602485fd5b5051903d90823e3d90fd5b634e487b7160e01b875260418852602487fd5b835162461bcd60e51b8152602081880152601060248201526f496e73756666696369656e742066656560801b6044820152606490fd5b50346200010e57826003193601126200010e5782546001600160a01b03166200047f338214620005e7565b4790811562000503578480809381935af13d15620004fd573d620004a38162000578565b90620004b2845192836200053f565b81528460203d92013e5b15620004c6578280f35b906020606492519162461bcd60e51b8352820152601160248201527015da5d1a191c985dd85b0819985a5b1959607a1b6044820152fd5b620004bc565b825162461bcd60e51b815260208186015260166024820152754e6f2062616c616e636520746f20776974686472617760501b6044820152606490fd5b90601f8019910116810190811067ffffffffffffffff8211176200056257604052565b634e487b7160e01b600052604160045260246000fd5b67ffffffffffffffff81116200056257601f01601f191660200190565b81601f82011215620005e257803590620005af8262000578565b92620005bf60405194856200053f565b82845260208383010111620005e257816000926020809301838601378301015290565b600080fd5b15620005ef57565b60405162461bcd60e51b815260206004820152600a60248201526927b7363c9037bbb732b960b11b6044820152606490fd5b919082519283825260005b8481106200064e575050826000602080949584010152601f8019910116010190565b6020818301810151848301820152016200062c56fe608060405234620003c35762000afa803803806200001d81620003c8565b928339810190606081830312620003c35780516001600160401b039290838111620003c3578162000050918401620003ee565b60209182840151858111620003c3576040916200006f918601620003ee565b93015193601260ff1960025416176002558151818111620003ad576000948554916001948584811c94168015620003a2575b878510146200038e578190601f948581116200033b575b508790858311600114620002d7578992620002cb575b5050600019600383901b1c191690851b1786555b8051928311620002b75783548481811c91168015620002ac575b8682101462000298579081838594931162000243575b5085918311600114620001df578692620001d3575b5050600019600383901b1c191690821b1790555b60ff60025416604d8111620001bf57600a0a92838102938185041490151715620001ab577fddf252ad1be2c89b69c2b068fc378daa952ba7f163c4a11628f55a4df523b3ef9033835260048152836040842055836003556040519384523393a36040516106999081620004618239f35b634e487b7160e01b82526011600452602482fd5b634e487b7160e01b83526011600452602483fd5b01519050388062000127565b8487528587208594509190601f198416885b888282106200022c575050841162000212575b505050811b0190556200013b565b015160001960f88460031b161c1916905538808062000204565b8385015186558897909501949384019301620001f1565b909192508487528587208380860160051c8201928887106200028e575b91869588929594930160051c01915b8281106200027f57505062000112565b8981558695508791016200026f565b9250819262000260565b634e487b7160e01b87526022600452602487fd5b90607f1690620000fc565b634e487b7160e01b86526041600452602486fd5b015190503880620000ce565b898052888a208894509190601f1984168b5b8b8282106200032457505084116200030a575b505050811b018655620000e2565b015160001960f88460031b161c19169055388080620002fc565b8385015186558b97909501949384019301620002e9565b9091508880528789208580850160051c8201928a861062000384575b918991869594930160051c01915b82811062000375575050620000b8565b8b815585945089910162000365565b9250819262000357565b634e487b7160e01b88526022600452602488fd5b93607f1693620000a1565b634e487b7160e01b600052604160045260246000fd5b600080fd5b6040519190601f01601f191682016001600160401b03811183821017620003ad57604052565b919080601f84011215620003c35782516001600160401b038111620003ad5760209062000424601f8201601f19168301620003c8565b92818452828287010111620003c35760005b8181106200044c57508260009394955001015290565b85810183015184820184015282016200043656fe608060408181526004918236101561001657600080fd5b600092833560e01c91826306fdde031461049e57508163095ea7b31461042d57816318160ddd1461040e57816323b872dd146102f0578163313ce567146102ce57816370a082311461029857816395d89b4114610175578163a9059cbb146100d3575063dd62ed3e1461008857600080fd5b346100cf57806003193601126100cf57806020926100a46105bf565b6100ac6105da565b6001600160a01b0391821683526005865283832091168252845220549051908152f35b5080fd5b905034610171578160031936011261017157602092826100f16105bf565b916024359233825284875261010b848484205410156105f0565b33825284875282822061011f858254610633565b90556001600160a01b031680825293865220805461013e908390610656565b905582519081527fddf252ad1be2c89b69c2b068fc378daa952ba7f163c4a11628f55a4df523b3ef843392a35160018152f35b8280fd5b8383346100cf57816003193601126100cf578051908260018054908160011c906001831692831561028e575b602093848410811461027b5783885290811561025f5750600114610209575b505050829003601f01601f191682019267ffffffffffffffff8411838510176101f657508291826101f2925282610576565b0390f35b634e487b7160e01b815260418552602490fd5b600187529192508591837fb10e2d527612073b26eecdfd717e6a320cf44b4afac2b0732d9fcbe2b7fa0cf65b83851061024b57505050508301018580806101c0565b805488860183015293019284908201610235565b60ff1916878501525050151560051b84010190508580806101c0565b634e487b7160e01b895260228a52602489fd5b91607f16916101a1565b9050346101715760203660031901126101715760209282916001600160a01b036102c06105bf565b168252845220549051908152f35b5050346100cf57816003193601126100cf5760209060ff600254169051908152f35b9050346101715760603660031901126101715761030b6105bf565b6103136105da565b936044359060018060a01b038093169283825260209685885261033b848885205410156105f0565b8483526005885286832033845288528387842054106103d257827fddf252ad1be2c89b69c2b068fc378daa952ba7f163c4a11628f55a4df523b3ef94928892878b965288865283832061038f868254610633565b9055169687825284528181206103a6848254610656565b9055858152600584528181203382528452206103c3828254610633565b90558551908152a35160018152f35b865162461bcd60e51b81528087018990526016602482015275496e73756666696369656e7420616c6c6f77616e636560501b6044820152606490fd5b5050346100cf57816003193601126100cf576020906003549051908152f35b5050346100cf57806003193601126100cf576020918161044b6105bf565b91602435918291338152600587528181209460018060a01b0316948582528752205582519081527f8c5be1e5ebec7d5bd14f71427d1e84f3dd0314c0f7b2291e5b200ac8c7c3b925843392a35160018152f35b8490843461017157826003193601126101715782835460018160011c906001831692831561056c575b602093848410811461027b5783885290811561025f575060011461051757505050829003601f01601f191682019267ffffffffffffffff8411838510176101f657508291826101f2925282610576565b8680529192508591837f290decd9548b62a8d60345a988386fc84ba6bc95484008f6362f93160ef3e5635b83851061055857505050508301018580806101c0565b805488860183015293019284908201610542565b91607f16916104c7565b6020808252825181830181905290939260005b8281106105ab57505060409293506000838284010152601f8019910116010190565b818101860151848201604001528501610589565b600435906001600160a01b03821682036105d557565b600080fd5b602435906001600160a01b03821682036105d557565b156105f757565b60405162461bcd60e51b8152602060048201526014602482015273496e73756666696369656e742062616c616e636560601b6044820152606490fd5b9190820391821161064057565b634e487b7160e01b600052601160045260246000fd5b919082018092116106405756fea264697066735822122036fb89fbd46f49c8aa6ead33ab41e0fdfe657eafdb486446c3182ec7a72e64bc64736f6c63430008160033a26469706673582212209e337cead266cc7350d684a90d0690985da2beec01e5f6a66d222e9dc0b66ead64736f6c63430008160033",
  "linkReferences": {},
  "deployedLinkReferences": {}
}