{
  "_format": "hh-sol-artifact-1",
  "contractName": "V4FactoryWithLiquidity",
  "sourceName": "contracts/V4FactoryWithLiquidity.sol",
  "abi": [
    {
      "inputs": [
        {
          "internalType": "address",
          "name": "owner_",
          "type": "address"
        },
        {
          "internalType": "address",
          "name": "tokenImpl_",
          "type": "address"
        },
        {
          "internalType": "address",
          "name": "securityModuleImpl_",
          "type": "address"
        },
        {
          "internalType": "address",
          "name": "distributionModuleImpl_",
          "type": "address"
        },
        {
          "internalType": "address",
          "name": "liquidityModuleImpl_",
          "type": "address"
        }
      ],
      "stateMutability": "nonpayable",
      "type": "constructor"
    },
    {
      "anonymous": false,
      "inputs": [
        {
          "indexed": false,
          "internalType": "string",
          "name": "error",
          "type": "string"
        },
        {
          "indexed": false,
          "internalType": "address",
          "name": "sender",
          "type": "address"
        }
      ],
      "name": "DeploymentError",
      "type": "event"
    },
    {
      "anonymous": false,
      "inputs": [
        {
          "indexed": true,
          "internalType": "address",
          "name": "previousOwner",
          "type": "address"
        },
        {
          "indexed": true,
          "internalType": "address",
          "name": "newOwner",
          "type": "address"
        }
      ],
      "name": "OwnershipTransferred",
      "type": "event"
    },
    {
      "anonymous": false,
      "inputs": [
        {
          "indexed": true,
          "internalType": "address",
          "name": "tokenAddress",
          "type": "address"
        },
        {
          "indexed": false,
          "internalType": "string",
          "name": "name",
          "type": "string"
        },
        {
          "indexed": false,
          "internalType": "string",
          "name": "symbol",
          "type": "string"
        },
        {
          "indexed": true,
          "internalType": "address",
          "name": "owner",
          "type": "address"
        }
      ],
      "name": "TokenCreated",
      "type": "event"
    },
    {
      "inputs": [
        {
          "internalType": "string",
          "name": "name",
          "type": "string"
        },
        {
          "internalType": "string",
          "name": "symbol",
          "type": "string"
        },
        {
          "internalType": "uint256",
          "name": "initialSupply",
          "type": "uint256"
        },
        {
          "internalType": "address",
          "name": "owner",
          "type": "address"
        }
      ],
      "name": "createToken",
      "outputs": [
        {
          "internalType": "address",
          "name": "tokenAddress",
          "type": "address"
        }
      ],
      "stateMutability": "nonpayable",
      "type": "function"
    },
    {
      "inputs": [
        {
          "internalType": "string",
          "name": "name",
          "type": "string"
        },
        {
          "internalType": "string",
          "name": "symbol",
          "type": "string"
        },
        {
          "internalType": "uint256",
          "name": "initialSupply",
          "type": "uint256"
        },
        {
          "internalType": "address",
          "name": "owner",
          "type": "address"
        }
      ],
      "name": "createTokenBasic",
      "outputs": [
        {
          "internalType": "address",
          "name": "tokenAddress",
          "type": "address"
        }
      ],
      "stateMutability": "nonpayable",
      "type": "function"
    },
    {
      "inputs": [
        {
          "internalType": "string",
          "name": "name",
          "type": "string"
        },
        {
          "internalType": "string",
          "name": "symbol",
          "type": "string"
        },
        {
          "internalType": "uint256",
          "name": "initialSupply",
          "type": "uint256"
        },
        {
          "internalType": "address",
          "name": "owner",
          "type": "address"
        },
        {
          "internalType": "bool",
          "name": "includeDistribution",
          "type": "bool"
        }
      ],
      "name": "createTokenForWeb",
      "outputs": [
        {
          "internalType": "address",
          "name": "tokenAddress",
          "type": "address"
        }
      ],
      "stateMutability": "nonpayable",
      "type": "function"
    },
    {
      "inputs": [],
      "name": "distributionModuleBeacon",
      "outputs": [
        {
          "internalType": "contract UpgradeableBeacon",
          "name": "",
          "type": "address"
        }
      ],
      "stateMutability": "view",
      "type": "function"
    },
    {
      "inputs": [],
      "name": "distributionModuleImplementation",
      "outputs": [
        {
          "internalType": "address",
          "name": "",
          "type": "address"
        }
      ],
      "stateMutability": "view",
      "type": "function"
    },
    {
      "inputs": [],
      "name": "getAddresses",
      "outputs": [
        {
          "internalType": "address",
          "name": "_tokenImpl",
          "type": "address"
        },
        {
          "internalType": "address",
          "name": "_securityModuleImpl",
          "type": "address"
        },
        {
          "internalType": "address",
          "name": "_distributionModuleImpl",
          "type": "address"
        },
        {
          "internalType": "address",
          "name": "_liquidityModuleImpl",
          "type": "address"
        },
        {
          "internalType": "address",
          "name": "_tokenBeacon",
          "type": "address"
        },
        {
          "internalType": "address",
          "name": "_securityModuleBeacon",
          "type": "address"
        },
        {
          "internalType": "address",
          "name": "_distributionModuleBeacon",
          "type": "address"
        },
        {
          "internalType": "address",
          "name": "_liquidityModuleBeacon",
          "type": "address"
        }
      ],
      "stateMutability": "view",
      "type": "function"
    },
    {
      "inputs": [],
      "name": "lastError",
      "outputs": [
        {
          "internalType": "string",
          "name": "",
          "type": "string"
        }
      ],
      "stateMutability": "view",
      "type": "function"
    },
    {
      "inputs": [],
      "name": "liquidityModuleBeacon",
      "outputs": [
        {
          "internalType": "contract UpgradeableBeacon",
          "name": "",
          "type": "address"
        }
      ],
      "stateMutability": "view",
      "type": "function"
    },
    {
      "inputs": [],
      "name": "liquidityModuleImplementation",
      "outputs": [
        {
          "internalType": "address",
          "name": "",
          "type": "address"
        }
      ],
      "stateMutability": "view",
      "type": "function"
    },
    {
      "inputs": [],
      "name": "owner",
      "outputs": [
        {
          "internalType": "address",
          "name": "",
          "type": "address"
        }
      ],
      "stateMutability": "view",
      "type": "function"
    },
    {
      "inputs": [],
      "name": "renounceOwnership",
      "outputs": [],
      "stateMutability": "nonpayable",
      "type": "function"
    },
    {
      "inputs": [],
      "name": "securityModuleBeacon",
      "outputs": [
        {
          "internalType": "contract UpgradeableBeacon",
          "name": "",
          "type": "address"
        }
      ],
      "stateMutability": "view",
      "type": "function"
    },
    {
      "inputs": [],
      "name": "securityModuleImplementation",
      "outputs": [
        {
          "internalType": "address",
          "name": "",
          "type": "address"
        }
      ],
      "stateMutability": "view",
      "type": "function"
    },
    {
      "inputs": [
        {
          "internalType": "address",
          "name": "newDistributionModuleImpl",
          "type": "address"
        }
      ],
      "name": "setDistributionModuleImplementation",
      "outputs": [],
      "stateMutability": "nonpayable",
      "type": "function"
    },
    {
      "inputs": [
        {
          "internalType": "address",
          "name": "newLiquidityModuleImpl",
          "type": "address"
        }
      ],
      "name": "setLiquidityModuleImplementation",
      "outputs": [],
      "stateMutability": "nonpayable",
      "type": "function"
    },
    {
      "inputs": [
        {
          "internalType": "address",
          "name": "newSecurityModuleImpl",
          "type": "address"
        }
      ],
      "name": "setSecurityModuleImplementation",
      "outputs": [],
      "stateMutability": "nonpayable",
      "type": "function"
    },
    {
      "inputs": [
        {
          "internalType": "address",
          "name": "newTokenImpl",
          "type": "address"
        }
      ],
      "name": "setTokenImplementation",
      "outputs": [],
      "stateMutability": "nonpayable",
      "type": "function"
    },
    {
      "inputs": [],
      "name": "tokenBeacon",
      "outputs": [
        {
          "internalType": "contract UpgradeableBeacon",
          "name": "",
          "type": "address"
        }
      ],
      "stateMutability": "view",
      "type": "function"
    },
    {
      "inputs": [],
      "name": "tokenImplementation",
      "outputs": [
        {
          "internalType": "address",
          "name": "",
          "type": "address"
        }
      ],
      "stateMutability": "view",
      "type": "function"
    },
    {
      "inputs": [
        {
          "internalType": "address",
          "name": "newOwner",
          "type": "address"
        }
      ],
      "name": "transferOwnership",
      "outputs": [],
      "stateMutability": "nonpayable",
      "type": "function"
    }
  ],
  "bytecode": "0x6080346200053157601f62003d2338819003918201601f191683019260009290916001600160401b039190828611848710176200051d578160a092859260409889528339810103126200051957620000578262000560565b6020926200006784820162000560565b936200007587830162000560565b906200009260806200008a6060860162000560565b940162000560565b946200009e3362000575565b6001600160a01b03968716928315620004c157871693841562000457578716958615620003ed5787169586156200038357620000da8662000575565b60018060a01b0319948486600154161760015585600254161760025584600354161760035560049584875416178655885161045a90818101818110848211176200035357818591620038c9978589843981520301908af080156200036657881685600554161760055587600254168a519082820190828210858311176200037057859183918589843981520301908af080156200036657881685600654161760065587600354168a519082820190828210858311176200037057859183918589843981520301908af080156200036657881685600754161760075587875416908a51948186019386851090851117620003535790859392918439815203019086f0801562000349578416906008541617600855826005541692833b15620002f15785518581602481838663f2fde38b60e01b9889845216998a8a8401525af180156200030d5762000333575b508060065416803b15620003175785809160248951809481938883528a8a8401525af180156200030d579086916200031b575b50508060075416803b15620003175785809160248951809481938883528a8a8401525af180156200030d57908691620002f5575b505060085416803b15620002f157849291836024928851968795869485528401525af18015620002e757620002cc575b825161330c9081620005bd8239f35b620002d8829162000536565b620002e45780620002bd565b80fd5b83513d84823e3d90fd5b8480fd5b620003009062000536565b620002f15784386200028d565b87513d88823e3d90fd5b8580fd5b620003269062000536565b620002f157843862000259565b620003419095919562000536565b933862000226565b86513d87823e3d90fd5b634e487b7160e01b8b526041895260248bfd5b8a513d8b823e3d90fd5b634e487b7160e01b8c5260418a5260248cfd5b895162461bcd60e51b815260048101849052603660248201527f4c6971756964697479206d6f64756c6520696d706c656d656e746174696f6e2060448201527f63616e6e6f74206265207a65726f2061646472657373000000000000000000006064820152608490fd5b895162461bcd60e51b815260048101849052603960248201527f446973747269627574696f6e206d6f64756c6520696d706c656d656e7461746960448201527f6f6e2063616e6e6f74206265207a65726f2061646472657373000000000000006064820152608490fd5b895162461bcd60e51b815260048101849052603560248201527f5365637572697479206d6f64756c6520696d706c656d656e746174696f6e206360448201527f616e6e6f74206265207a65726f206164647265737300000000000000000000006064820152608490fd5b895162461bcd60e51b815260048101849052602b60248201527f546f6b656e20696d706c656d656e746174696f6e2063616e6e6f74206265207a60448201526a65726f206164647265737360a81b6064820152608490fd5b8280fd5b634e487b7160e01b85526041600452602485fd5b600080fd5b6001600160401b0381116200054a57604052565b634e487b7160e01b600052604160045260246000fd5b51906001600160a01b03821682036200053157565b600080546001600160a01b039283166001600160a01b03198216811783559216907f8be0079c531659141344cd1fd0a4f28419497f9722a3daafe3b4186f6b6457e09080a356fe608060408181526004803610156200001657600080fd5b600092833560e01c9081630edf632a1462000a1e575080631c480db314620009f3578063203c61cf14620008ea57806329f0de3f14620007fb5780632f3a3d5d14620007d057806333aeb63c146200073557806334f359f91462000711578063715018a614620006b05780638008334c146200068557806388282e2a14620005865780638da5cb5b146200055c5780639651d0a814620005315780639ab10b7914620005065780639f59163514620004db578063a39fac121462000465578063bf2fb7c91462000358578063c39874711462000249578063ccf5a77c146200021e578063f2f68e3a14620001e55763f2fde38b146200011457600080fd5b34620001e1576020366003190112620001e1576200013162000a45565b906200013c6200280a565b6001600160a01b039182169283156200018f575050600054826001600160601b0360a01b821617600055167f8be0079c531659141344cd1fd0a4f28419497f9722a3daafe3b4186f6b6457e0600080a380f35b906020608492519162461bcd60e51b8352820152602660248201527f4f776e61626c653a206e6577206f776e657220697320746865207a65726f206160448201526564647265737360d01b6064820152fd5b8280fd5b5050346200021a5760209062000209620001ff3662000bba565b9291909162002528565b90516001600160a01b039091168152f35b5080fd5b5050346200021a57816003193601126200021a5760055490516001600160a01b039091168152602090f35b509034620001e1576020366003190112620001e1576200026862000a45565b90620002736200280a565b6001600160a01b03918216918215620002f6579084916008541690813b15620001e1578280926024835180958193631b2ce7f360e11b8352898b8401525af1908115620002ed5750620002d5575b505081546001600160a01b03191617905580f35b620002e09062000a99565b620001e1578238620002c1565b513d84823e3d90fd5b815162461bcd60e51b8152602081860152603660248201527f4c6971756964697479206d6f64756c6520696d706c656d656e746174696f6e2060448201527563616e6e6f74206265207a65726f206164647265737360501b6064820152608490fd5b5034620001e1576020366003190112620001e1576200037662000a45565b91620003816200280a565b6001600160a01b039283169283156200040457908492916006541691823b15620004005784602485928385519687948593631b2ce7f360e11b85528401525af1908115620002ed5750620003e8575b50506001600160601b0360a01b600254161760025580f35b620003f39062000a99565b6200021a578138620003d0565b8380fd5b815162461bcd60e51b8152602081850152603560248201527f5365637572697479206d6f64756c6520696d706c656d656e746174696f6e2063604482015274616e6e6f74206265207a65726f206164647265737360581b6064820152608490fd5b5034620001e15782600319360112620001e157600154600254600354925460055460065460075460085488516001600160a01b039788168152958716602087015296861697850197909752918416606084015283166080830152821660a082015292811660c08401521660e08201526101009150f35b5050346200021a57816003193601126200021a5760035490516001600160a01b039091168152602090f35b5050346200021a57816003193601126200021a5760075490516001600160a01b039091168152602090f35b5050346200021a57816003193601126200021a5760065490516001600160a01b039091168152602090f35b5050346200021a57816003193601126200021a57905490516001600160a01b039091168152602090f35b5034620001e1576020366003190112620001e157620005a462000a45565b91620005af6200280a565b6001600160a01b039283169283156200062e57908492916005541691823b15620004005784602485928385519687948593631b2ce7f360e11b85528401525af1908115620002ed575062000616575b50506001600160601b0360a01b600154161760015580f35b620006219062000a99565b6200021a578138620005fe565b815162461bcd60e51b8152602081850152602b60248201527f546f6b656e20696d706c656d656e746174696f6e2063616e6e6f74206265207a60448201526a65726f206164647265737360a81b6064820152608490fd5b5050346200021a57816003193601126200021a5760025490516001600160a01b039091168152602090f35b83346200070e57806003193601126200070e57620006cd6200280a565b600080546001600160a01b0319811682556001600160a01b03167f8be0079c531659141344cd1fd0a4f28419497f9722a3daafe3b4186f6b6457e08280a380f35b80fd5b5050346200021a57602090620002096200072b3662000bba565b9291909162001b6c565b5034620001e15760a0366003190112620001e15767ffffffffffffffff8135818111620007cc576200076b903690840162000b6d565b91602435918211620007cc57620007859136910162000b6d565b6001600160a01b0391606435918383168303620007c7576084359586151587036200070e57509160209591620007bf936044359162000f57565b915191168152f35b600080fd5b8480fd5b5050346200021a57816003193601126200021a5760015490516001600160a01b039091168152602090f35b8284346200070e57806003193601126200070e578151918282600954620008228162000a5c565b9081845260209560019187600182169182600014620008c057505060011462000870575b5050506200086c92916200085c91038562000ae1565b5192828493845283019062000b29565b0390f35b919086935060098352600080516020620032b78339815191525b828410620008a757505050820101816200085c6200086c62000846565b8054848a0186015288955087949093019281016200088a565b60ff19168782015293151560051b860190930193508492506200085c91506200086c905062000846565b508290346200021a5760203660031901126200021a576200090a62000a45565b92620009156200280a565b6001600160a01b039384169384156200098a576007541691823b15620004005784602485928385519687948593631b2ce7f360e11b85528401525af1908115620002ed575062000978575b50906001600160601b0360a01b600354161760035580f35b620009839062000a99565b8262000960565b815162461bcd60e51b8152602081850152603960248201527f446973747269627574696f6e206d6f64756c6520696d706c656d656e7461746960448201527f6f6e2063616e6e6f74206265207a65726f2061646472657373000000000000006064820152608490fd5b5050346200021a57816003193601126200021a5760085490516001600160a01b039091168152602090f35b92505034620001e15782600319360112620001e157546001600160a01b0316815260209150f35b600435906001600160a01b0382168203620007c757565b90600182811c9216801562000a8e575b602083101462000a7857565b634e487b7160e01b600052602260045260246000fd5b91607f169162000a6c565b67ffffffffffffffff811162000aae57604052565b634e487b7160e01b600052604160045260246000fd5b6040810190811067ffffffffffffffff82111762000aae57604052565b90601f8019910116810190811067ffffffffffffffff82111762000aae57604052565b60005b83811062000b185750506000910152565b818101518382015260200162000b07565b9060209162000b448151809281855285808601910162000b04565b601f01601f1916010190565b67ffffffffffffffff811162000aae57601f01601f191660200190565b81601f82011215620007c75780359062000b878262000b50565b9262000b97604051948562000ae1565b82845260208383010111620007c757816000926020809301838601378301015290565b906080600319830112620007c75767ffffffffffffffff600435818111620007c7578362000beb9160040162000b6d565b92602435918211620007c75762000c059160040162000b6d565b90604435906064356001600160a01b0381168103620007c75790565b9294939060609262000c4062000c4f9260808752608087019062000b29565b90858203602087015262000b29565b60408401959095526001600160a01b0316910152565b6001600160a01b03909116815260406020820181905262000c899291019062000b29565b90565b90816020910312620007c757518015158103620007c75790565b60009060033d1162000cb457565b905060046000803e60005160e01c90565b600060443d1062000c8957604051600319913d83016004833e815167ffffffffffffffff918282113d60248401111762000d295781840194855193841162000d31573d8501016020848701011162000d29575062000c899291016020019062000ae1565b949350505050565b50949350505050565b601f811162000d47575050565b6000906009600052600080516020620032b7833981519152906020601f850160051c8301941062000d95575b601f0160051c01915b82811062000d8957505050565b81815560010162000d7c565b909250829062000d73565b601f811162000dac5750565b60006009600052601f600080516020620032b7833981519152920160051c8201915b82811062000ddb57505050565b81815560010162000dce565b601f811162000df35750565b601f60009160096000520160051c600080516020620032b783398151915201907f6e1540171b6c0c960b71a7020d9f60077f6af931a8bbf590da0223dacf75c7b15b82811062000e4257505050565b81815560010162000e35565b6009546000929162000e608262000a5c565b8082529160209060019081811690811562000ed3575060011462000e85575b50505050565b929394506009600052600080516020620032b7833981519152926000935b85851062000ebf57505050602092500101903880808062000e7f565b805485850184015293820193810162000ea3565b92505050602093945060ff929192191683830152151560051b0101903880808062000e7f565b909162000f1362000c899360408452604084019062000b29565b91602081840391015262000b29565b3d1562000f52573d9062000f368262000b50565b9162000f46604051938462000ae1565b82523d6000602084013e565b606090565b604051635e9d09fb60e11b60208201529195946000949293849062000f849030908a866024860162000c21565b039662000f9a601f199889810187528662000ae1565b60055460405167ffffffffffffffff9690916001600160a01b0316610672808401908982118583101762001b58579184939162000fdd9362002c25863962000c65565b039087f080620011f657505050505062000ff662000ca6565b6308c379a01462001081575b509091506200101062000f22565b50620010286200102260095462000a5c565b62000da0565b60387f556e6b6e6f776e206572726f72206372656174696e6720746f6b656e0000000001600955600080516020620032978339815191526040516040815280620010756040820162000e4e565b3360208301520390a190565b6200108b62000cc5565b938462001099575062001002565b620010e96036604051809775022b93937b91031b932b0ba34b733903a37b5b2b71d160551b6020830152620010d8815180926020868601910162000b04565b810103601681018852018662000ae1565b8451918211620011e2576200110b826200110560095462000a5c565b62000d3a565b602090601f83116001146200116f575082939482939262001163575b50508160011b916000199060031b1c1916176009555b600080516020620032978339815191526040516040815280620010756040820162000e4e565b01519050388062001127565b82169060098452600080516020620032b783398151915291845b818110620011c957509583600195969710620011af575b505050811b016009556200113d565b015160001960f88460031b161c19169055388080620011a0565b9192602060018192868b01518155019401920162001189565b634e487b7160e01b83526041600452602483fd5b600654604051979998976001600160a01b03928316968b959093909262001252929116620012248262000ac4565b600f82526e7365637572697479206d6f64756c6560881b60208301526001600160a01b038516908962002863565b936001600160a01b0385161562001b4b578162001ae9575b600854604051620012b8916001600160a01b0316620012898262000ac4565b601082526f6c6971756964697479206d6f64756c6560801b60208301526001600160a01b038616908a62002863565b916001600160a01b0383161562001adb576040516001600160a01b03851660208281019190915280825262001310918e620012f38262000ac4565b6040518080958194630b74e9e360e21b83528d6004840162000c65565b03916001600160a01b038e165af1908162001ab7575b50620014925750505050505050506200133e62000ca6565b6308c379a01462001355575b6040513d85823e3d90fd5b6200135f62000cc5565b92836200136d57506200134a565b620013c8603e6040969495965180977f4572726f7220616464696e67207365637572697479206d6f64756c653a2000006020830152620013b7815180926020868601910162000b04565b810103601e81018852018662000ae1565b8451918211620011e257620013e4826200110560095462000a5c565b602090601f83116001146200143a5750829394829392620011635750508160011b916000199060031b1c191617600955600080516020620032978339815191526040516040815280620010756040820162000e4e565b82169060098452600080516020620032b783398151915291845b8181106200147957509583600195969710620011af57505050811b016009556200113d565b9192602060018192868b01518155019401920162001454565b8062001aa4575b620018aa575b506020620014e2916040519060018060a01b03851683830152828252620014c68262000ac4565b604051630b74e9e360e21b815293849283926004840162000c65565b03818d6001600160a01b038b165af1908162001874575b50620016615750505050506200150e62000ca6565b6308c379a01462001524576040513d85823e3d90fd5b6200152e62000cc5565b92836200153c57506200134a565b62001597603f6040969495965180977f4572726f7220616464696e67206c6971756964697479206d6f64756c653a2000602083015262001586815180926020868601910162000b04565b810103601f81018852018662000ae1565b8451918211620011e257620015b3826200110560095462000a5c565b602090601f8311600114620016095750829394829392620011635750508160011b916000199060031b1c191617600955600080516020620032978339815191526040516040815280620010756040820162000e4e565b82169060098452600080516020620032b783398151915291845b8181106200164857509583600195969710620011af57505050811b016009556200113d565b9192602060018192868b01518155019401920162001623565b6001600160a01b03851692833b15620018705760405163f2fde38b60e01b81526001600160a01b039091166004820152898160248183885af190816200185a575b50620017f9575050505050620016b762000ca6565b6308c379a014620016cd576040513d85823e3d90fd5b620016d762000cc5565b9283620016e557506200134a565b6200172f603e6040969495965180977f4572726f72207472616e7366657272696e67206f776e6572736869703a2000006020830152620013b7815180926020868601910162000b04565b8451918211620011e2576200174b826200110560095462000a5c565b602090601f8311600114620017a15750829394829392620011635750508160011b916000199060031b1c191617600955600080516020620032978339815191526040516040815280620010756040820162000e4e565b82169060098452600080516020620032b783398151915291845b818110620017e057509583600195969710620011af57505050811b016009556200113d565b9192602060018192868b015181550194019201620017bb565b919450919496507f6596c1670eb3390048d23721809c3da5d3f531375ac0e2cab0f77a808ed643319295506200183e60405192839260018060a01b0316968362000ef9565b0390a3620018526200102260095462000a5c565b600060095590565b62001868909a919a62000a99565b9838620016a2565b8980fd5b6200189a9060203d602011620018a2575b62001891818362000ae1565b81019062000c8c565b5038620014f9565b503d62001885565b6020620018ee918c6040519160018060a01b03871684840152838352620018d18362000ac4565b604051809581948293630b74e9e360e21b84526004840162000c65565b03916001600160a01b038c165af1908162001a80575b5062001a78575050505050506200191a62000ca6565b6308c379a01462001930576040513d85823e3d90fd5b6200193a62000cc5565b92836200194857506200134a565b620019ae60426040969495965180977f4572726f7220616464696e6720646973747269627574696f6e206d6f64756c6560208301526101d160f51b60408301526200199d815180926020868601910162000b04565b810103602281018852018662000ae1565b8451918211620011e257620019ca826200110560095462000a5c565b602090601f831160011462001a205750829394829392620011635750508160011b916000199060031b1c191617600955600080516020620032978339815191526040516040815280620010756040820162000e4e565b82169060098452600080516020620032b783398151915291845b81811062001a5f57509583600195969710620011af57505050811b016009556200113d565b9192602060018192868b01518155019401920162001a3a565b60206200149f565b62001a9c9060203d602011620018a25762001891818362000ae1565b503862001904565b506001600160a01b038116151562001499565b62001ad39060203d602011620018a25762001891818362000ae1565b503862001326565b509798505050505050505050565b5060075460405162001b3b916001600160a01b031662001b098262000ac4565b6013825272646973747269627574696f6e206d6f64756c6560681b60208301526001600160a01b038516908962002863565b6001600160a01b0381166200126a575b5096975050505050505050565b634e487b7160e01b8b52604160045260248bfd5b9390929192604091825190602094635e9d09fb60e11b868401528262001b9a82602499878c8c860162000c21565b039362001bb0601f199586810186528562000ae1565b600554865160009a67ffffffffffffffff9690926001600160a01b0392610672928382018a81118382101762002514578f90928f9362001c048f9a999897969483928962002c25978a898739169062000c65565b0391f08d8162001e7d57505050505050505050505062001c2362000ca6565b6308c379a01462001d02575b505062001cfe9060098562001c4362000f22565b5062001c5a62001c54835462000a5c565b62000de7565b60458255527f556e6b6e6f776e206572726f72206372656174696e6720746f6b656e2070726f600080516020620032b78339815191525561787960f01b7f6e1540171b6c0c960b71a7020d9f60077f6af931a8bbf590da0223dacf75c7b0556000805160206200329783398151915281518281528062001cdc84820162000e4e565b33878301520390a15192839262461bcd60e51b84526004840152820162000e4e565b0390fd5b62001d0c62000cc5565b918262001d1a575062001c2f565b90919562001d71603c855180997f4572726f72206372656174696e6720746f6b656e2070726f78793a20000000008983015262001d60815180928b868601910162000b04565b810103601c81018a52018862000ae1565b865192831162001e6a5762001d8d836200110560095462000a5c565b8491601f841160011462001df057509062001cfe9495968362001de4575b50508160011b916000199060031b1c1916176009555b6000805160206200329783398151915281518281528062001cdc84820162000e4e565b01519050388062001dab565b839791971660098852600080516020620032b7833981519152975b81811062001e5257509162001cfe9596979184600195941062001e38575b505050811b0160095562001dc1565b015160001960f88460031b161c1916905538808062001e29565b83830151895560019098019792860192860162001e0b565b634e487b7160e01b815260416004528590fd5b62001ebb868062001ec894169b16998b8151918c8584015284835262001ea38362000ac4565b5196879463347d5e2560e21b90860152840162000c65565b038c810184528362000ae1565b8360065416908c5193808501918583108d841117620024fe579162001ef39391869593863962000c65565b03908df0908c826200213e578c8c8c8c8c62001f0e62000ca6565b6308c379a01462001fcb575b505062001cfe9060098562001f2e62000f22565b5062001f3f62001c54835462000a5c565b60598255527f556e6b6e6f776e206572726f72206372656174696e6720736563757269747920600080516020620032b7833981519152556b6d6f64756c652070726f787960a01b7f6e1540171b6c0c960b71a7020d9f60077f6af931a8bbf590da0223dacf75c7b0556000805160206200329783398151915281518281528062001cdc84820162000e4e565b62001fd562000cc5565b918262001fe3575062001f1a565b909195620020486046855180997f4572726f72206372656174696e67207365637572697479206d6f64756c652070898301526503937bc3c9d160d51b8883015262002037815180928b868601910162000b04565b810103602681018a52018862000ae1565b865192831162001e6a5762002064836200110560095462000a5c565b8491601f8411600114620020c557509062001cfe94959683620020b95750508160011b916000199060031b1c1916176009556000805160206200329783398151915281518281528062001cdc84820162000e4e565b01519050868062001dab565b839791971660098852600080516020620032b7833981519152975b8181106200212657509162001cfe959697918460019594106200210c57505050811b0160095562001dc1565b015160001960f88460031b161c1916905586808062001e29565b838301518955600190980197928601928601620020e0565b8b8b6200217d92819f9d9e9c9e51918984840152838352620021608362000ac4565b518080958194630b74e9e360e21b8352888a166004840162000c65565b03918b5af19081620024dc575b50620022ef5750505050505050620021a162000ca6565b6308c379a014620021b7575b84513d87823e3d90fd5b620021c162000cc5565b9384620021cf5750620021ad565b908591876200221f60358551809974022b93937b91030b23234b7339036b7b23ab6329d1605d1b898301526200220e815180928b868601910162000b04565b810103601581018a52018862000ae1565b865192831162001e6a576200223b836200110560095462000a5c565b8491601f84116001146200229057509062001cfe94959683620020b95750508160011b916000199060031b1c1916176009556000805160206200329783398151915281518281528062001cdc84820162000e4e565b839791971660098852600080516020620032b7833981519152975b818110620022d757509162001cfe959697918460019594106200210c57505050811b0160095562001dc1565b838301518955600190980197928601928601620022ab565b853b15620024d8578b5163f2fde38b60e01b8152911660048201528b818a8183895af19081620024c2575b50620024845750505050506200232f62000ca6565b6308c379a014620023445784513d87823e3d90fd5b6200234e62000cc5565b93846200235c5750620021ad565b90859187620023b4603e855180997f4572726f72207472616e7366657272696e67206f776e6572736869703a20000089830152620023a3815180928b868601910162000b04565b810103601e81018a52018862000ae1565b865192831162001e6a57620023d0836200110560095462000a5c565b8491601f84116001146200242557509062001cfe94959683620020b95750508160011b916000199060031b1c1916176009556000805160206200329783398151915281518281528062001cdc84820162000e4e565b839791971660098852600080516020620032b7833981519152975b8181106200246c57509162001cfe959697918460019594106200210c57505050811b0160095562001dc1565b83830151895560019098019792860192860162002440565b93995093509550958694507f6596c1670eb3390048d23721809c3da5d3f531375ac0e2cab0f77a808ed6433193506200183e90519283928362000ef9565b620024d0909c919c62000a99565b9a386200231a565b8c80fd5b620024f6908b3d8d11620018a25762001891818362000ae1565b50386200218a565b5050508d8f634e487b7160e01b81526041600452fd5b50634e487b7160e01b8f5260416004528d8ffd5b9290939193604092835191826200255485602099635e9d09fb60e11b8b850152848a6024860162000c21565b03956200256a601f199788810186528562000ae1565b600554865167ffffffffffffffff9690956001600160a01b039261067280890192909185168a84118a85101762000aae578993620025ae9362002c25863962000c65565b0360009687f080620027c857505050505050620025ca62000ca6565b6308c379a01462002663575b8483620025e262000f22565b50620025f46200102260095462000a5c565b7f556e6b6e6f776e206572726f72206372656174696e6720746f6b656e0000003860095580518181526000805160206200329783398151915290806200263c81850162000e4e565b33868301520390a1519062461bcd60e51b825260048201528062001cfe6024820162000e4e565b6200266d62000cc5565b806200267a5750620025d6565b620026c760368551809375022b93937b91031b932b0ba34b733903a37b5b2b71d160551b8a830152620026b6815180928c868601910162000b04565b810103601681018452018262000ae1565b8051928311620027b457620026e3836200110560095462000a5c565b8591601f84116001146200274157839495509262002735575b50508160011b916000199060031b1c1916176009555b600080516020620032978339815191528151828152806200263c84820162000e4e565b015190503880620026fc565b91909483169460098352600080516020620032b7833981519152925b878782106200279d57505083600195961062002783575b505050811b0160095562002712565b015160001960f88460031b161c1916905538808062002774565b60018495829395850151815501940192016200275d565b634e487b7160e01b82526041600452602482fd5b97519499509681169750909516948694507f6596c1670eb3390048d23721809c3da5d3f531375ac0e2cab0f77a808ed64331935082916200183e918362000ef9565b6000546001600160a01b031633036200281f57565b606460405162461bcd60e51b815260206004820152602060248201527f4f776e61626c653a2063616c6c6572206973206e6f7420746865206f776e65726044820152fd5b9291909260409283519160209384840152838352620028828362000ac4565b620028a1855193849263347d5e2560e21b878501526024840162000c65565b0390620028b7601f199283810185528462000ae1565b84519567ffffffffffffffff936001600160a01b039161067291828a018781118b82101762000aae5784620028f6938c9562002c258739169062000c65565b0360009788f08062002c195750506200290e62000ca6565b6308c379a01462002ab2575b6200292462000f22565b5062002989603d865180937f556e6b6e6f776e206572726f72206372656174696e67200000000000000000008883015262002969815180928a60378601910162000b04565b8101652070726f787960d01b603782015203601d81018452018262000ae1565b805192831162002a9e57620029a5836200110560095462000a5c565b8391601f841160011462002a1457509180620029fc9492600080516020620032978339815191529694889262002a08575b50508160011b916000199060031b1c1916176009555b8151928284938452830162000e4e565b9033908301520390a190565b015190503880620029d6565b60098752600080516020620032b78339815191529291908416875b81811062002a865750926001928592600080516020620032978339815191529896620029fc98961062002a6c575b505050811b01600955620029ec565b015160001960f88460031b161c1916905538808062002a5d565b92938660018192878601518155019501930162002a2f565b634e487b7160e01b86526041600452602486fd5b62002abc62000cc5565b8062002ac957506200291a565b90603762002b399187519384916e022b93937b91031b932b0ba34b7339608d1b8984015262002b02815180928b602f8701910162000b04565b820167010383937bc3c9d160c51b602f82015262002b29825180938b878501910162000b04565b0103601781018452018262000ae1565b805192831162002a9e5762002b55836200110560095462000a5c565b8391601f841160011462002baa57509180620029fc9492600080516020620032978339815191529694889262002a085750508160011b916000199060031b1c1916176009558151928284938452830162000e4e565b60098752600080516020620032b78339815191529291908416875b81811062002c015750926001928592600080516020620032978339815191529896620029fc98961062002a6c57505050811b01600955620029ec565b92938660018192878601518155019501930162002bc5565b16969550505050505056fe60806040908082526106728038038091610019828561034d565b8339810190828183031261023f5761003081610370565b6020828101516001600160401b039391929184821161023f57019084601f8301121561023f5781519161006283610384565b9261006f8851948561034d565b8084528484019685828401011161023f57868561008c930161039f565b803b156102fb578551635c60da1b60e01b80825292916001600160a01b0316908481600481855afa9081156102f0576000916102bb575b503b1561025e577fa3f0ad74e5423aebfd80d3ef4346578335a9a72aeaee59ff6cb3582b35133d5080546001600160a01b03191682179055865192817f1cf3b03a6cf19fa2baba4df148e9dcabedea7f8a5c07840e207e5c089be95d3e600080a2825115801590610256575b610142575b87516101fc90816104768239f35b6004848693819382525afa91821561024b5760009261020f575b5085519360608501908111858210176101f9578652602784527f416464726573733a206c6f772d6c6576656c2064656c65676174652063616c6c83850152660819985a5b195960ca1b84870152516101e3946000918291845af4903d156101f0573d6101c781610384565b906101d48851928361034d565b8152600081943d92013e6103c2565b5038808080808080610134565b606092506103c2565b634e487b7160e01b600052604160045260246000fd5b9091508281813d8311610244575b610227818361034d565b8101031261023f5761023890610370565b903861015c565b600080fd5b503d61021d565b86513d6000823e3d90fd5b50600061012f565b865162461bcd60e51b815260048101859052603060248201527f455243313936373a20626561636f6e20696d706c656d656e746174696f6e206960448201526f1cc81b9bdd08184818dbdb9d1c9858dd60821b6064820152608490fd5b90508481813d83116102e9575b6102d2818361034d565b8101031261023f576102e390610370565b386100c3565b503d6102c8565b88513d6000823e3d90fd5b855162461bcd60e51b815260048101849052602560248201527f455243313936373a206e657720626561636f6e206973206e6f74206120636f6e6044820152641d1c9858dd60da1b6064820152608490fd5b601f909101601f19168101906001600160401b038211908210176101f957604052565b51906001600160a01b038216820361023f57565b6001600160401b0381116101f957601f01601f191660200190565b60005b8381106103b25750506000910152565b81810151838201526020016103a2565b9192901561042457508151156103d6575090565b3b156103df5790565b60405162461bcd60e51b815260206004820152601d60248201527f416464726573733a2063616c6c20746f206e6f6e2d636f6e74726163740000006044820152606490fd5b8251909150156104375750805190602001fd5b6044604051809262461bcd60e51b825260206004830152610467815180928160248601526020868601910161039f565b601f01601f19168101030190fdfe608080604052366100c7577fa3f0ad74e5423aebfd80d3ef4346578335a9a72aeaee59ff6cb3582b35133d5054635c60da1b60e01b8252602090829060049082906001600160a01b03165afa9081156100bb57600091610060575b506101a7565b905060203d6020116100b4575b601f8101601f191682019167ffffffffffffffff83118184101761009e576100989260405201610161565b3861005a565b634e487b7160e01b600052604160045260246000fd5b503d61006d565b6040513d6000823e3d90fd5b7fa3f0ad74e5423aebfd80d3ef4346578335a9a72aeaee59ff6cb3582b35133d5054604051635c60da1b60e01b815290602090829060049082906001600160a01b03165afa9081156100bb5760009161012057506101a7565b602091503d8211610159575b601f8201601f191681019167ffffffffffffffff83118284101761009e5761009892604052810190610188565b3d915061012c565b602090607f190112610183576080516001600160a01b03811681036101835790565b600080fd5b9081602091031261018357516001600160a01b03811681036101835790565b6000808092368280378136915af43d82803e156101c2573d90f35b3d90fdfea264697066735822122055fbd96e33b80d64199b9943c5791120941f50472e3a8ea3832c0c2bbc01d04c64736f6c63430008160033609b6c5a1c9a8a0155f177b91e093957168ca7de93871803b59597d7d54de3fa6e1540171b6c0c960b71a7020d9f60077f6af931a8bbf590da0223dacf75c7afa2646970667358221220c93965e4ac8d209ba1478ddcc7d27a42d9bf01699a200acedf0cd6061ada07b764736f6c6343000816003360803461011a57601f61045a38819003918201601f19168301916001600160401b0383118484101761011f5780849260209460405283398101031261011a57516001600160a01b03808216919082820361011a576000549160018060a01b0319923384821617600055604051923391167f8be0079c531659141344cd1fd0a4f28419497f9722a3daafe3b4186f6b6457e0600080a33b156100b25750600154161760015560405161032490816101368239f35b62461bcd60e51b815260206004820152603360248201527f5570677261646561626c65426561636f6e3a20696d706c656d656e746174696f60448201527f6e206973206e6f74206120636f6e7472616374000000000000000000000000006064820152608490fd5b600080fd5b634e487b7160e01b600052604160045260246000fdfe6080604052600436101561001257600080fd5b6000803560e01c80633659cfe6146101c75780635c60da1b1461019e578063715018a6146101445780638da5cb5b1461011d5763f2fde38b1461005457600080fd5b3461011a57602036600319011261011a576004356001600160a01b038181169182900361011657610083610296565b81156100c25782546001600160a01b0319811683178455167f8be0079c531659141344cd1fd0a4f28419497f9722a3daafe3b4186f6b6457e08380a380f35b60405162461bcd60e51b815260206004820152602660248201527f4f776e61626c653a206e6577206f776e657220697320746865207a65726f206160448201526564647265737360d01b6064820152608490fd5b8280fd5b80fd5b503461011a578060031936011261011a57546040516001600160a01b039091168152602090f35b503461011a578060031936011261011a5761015d610296565b80546001600160a01b03198116825581906001600160a01b03167f8be0079c531659141344cd1fd0a4f28419497f9722a3daafe3b4186f6b6457e08280a380f35b503461011a578060031936011261011a576001546040516001600160a01b039091168152602090f35b503461011a57602036600319011261011a576004356001600160a01b03811690818103610116576101f6610296565b3b1561023557600180546001600160a01b031916821790557fbc7cd75a20ee27fd9adebab32041f755214dbc6bffa90cc0225b39da2e5c2d3b8280a280f35b60405162461bcd60e51b815260206004820152603360248201527f5570677261646561626c65426561636f6e3a20696d706c656d656e746174696f6044820152721b881a5cc81b9bdd08184818dbdb9d1c9858dd606a1b6064820152608490fd5b6000546001600160a01b031633036102aa57565b606460405162461bcd60e51b815260206004820152602060248201527f4f776e61626c653a2063616c6c6572206973206e6f7420746865206f776e65726044820152fdfea2646970667358221220df6ab73b1dff0a8ef9b5ef6df200574135fbb4c8346dced2b18f2800c3bc189564736f6c63430008160033",
  "linkReferences": {},
  "deployedLinkReferences": {}
}