{
  "_format": "hh-sol-artifact-1",
  "contractName": "SplitTokenFactory",
  "sourceName": "src/contracts/SplitTokenFactory.sol",
  "abi": [
    {
      "anonymous": false,
      "inputs": [
        {
          "indexed": false,
          "internalType": "address",
          "name": "tokenAddress",
          "type": "address"
        },
        {
          "indexed": false,
          "internalType": "string",
          "name": "name",
          "type": "string"
        },
        {
          "indexed": false,
          "internalType": "string",
          "name": "symbol",
          "type": "string"
        },
        {
          "indexed": false,
          "internalType": "uint256",
          "name": "totalSupply",
          "type": "uint256"
        },
        {
          "indexed": false,
          "internalType": "address[]",
          "name": "wallets",
          "type": "address[]"
        },
        {
          "indexed": false,
          "internalType": "uint256[]",
          "name": "percentages",
          "type": "uint256[]"
        }
      ],
      "name": "TokenCreated",
      "type": "event"
    },
    {
      "inputs": [
        {
          "internalType": "string",
          "name": "name",
          "type": "string"
        },
        {
          "internalType": "string",
          "name": "symbol",
          "type": "string"
        },
        {
          "internalType": "uint256",
          "name": "totalSupply",
          "type": "uint256"
        },
        {
          "internalType": "address[]",
          "name": "wallets",
          "type": "address[]"
        },
        {
          "internalType": "uint256[]",
          "name": "percentages",
          "type": "uint256[]"
        }
      ],
      "name": "createToken",
      "outputs": [
        {
          "internalType": "address",
          "name": "",
          "type": "address"
        }
      ],
      "stateMutability": "nonpayable",
      "type": "function"
    }
  ],
  "bytecode": "0x60806040523461001a57604051611f296100208239611f2990f35b600080fdfe608060405260043610156200001357600080fd5b60003560e01c63b4dd41f21462000307575b600080fd5b634e487b7160e01b600052604160045260246000fd5b90601f01601f191681019081106001600160401b038211176200006257604052565b6200002a565b906200007f6200007760405190565b928362000040565b565b6001600160401b0381116200006257602090601f01601f19160190565b0190565b90826000939282370152565b90929192620000c7620000c18262000081565b62000068565b938185528183011162000025576200007f916020850190620000a2565b9080601f8301121562000025578160206200010293359101620000ae565b90565b805b036200002557565b905035906200007f8262000105565b6001600160401b038111620000625760208091020190565b6001600160a01b031690565b620001078162000136565b905035906200007f8262000142565b909291926200016f620000c1826200011e565b93818552602080860192028301928184116200002557915b838310620001955750505050565b60208091620001a584866200014d565b81520192019162000187565b9080601f83011215620000255781602062000102933591016200015c565b90929192620001e2620000c1826200011e565b93818552602080860192028301928184116200002557915b838310620002085750505050565b602080916200021884866200010f565b815201920191620001fa565b9080601f8301121562000025578160206200010293359101620001cf565b91909160a081840312620000255780356001600160401b0381116200002557836200026f918301620000e4565b9260208201356001600160401b03811162000025578162000292918401620000e4565b92620002a282604085016200010f565b9260608101356001600160401b038111620000255783620002c5918301620001b1565b9260808201356001600160401b038111620000255762000102920162000224565b620002f19062000136565b9052565b6020810192916200007f9190620002e6565b346200002557620003396200032c6200032236600462000242565b9392909262000553565b60405191829182620002f5565b0390f35b60005b838110620003515750506000910152565b818101518382015260200162000340565b62000387620003916020936200009e936200037b815190565b80835293849260200190565b958691016200033d565b601f01601f191690565b906200009e81602093620002e6565b90620003cd620003c6620003bc845190565b8084529260200190565b9260200190565b9060005b818110620003df5750505090565b909192620003fc620003f560019286516200039b565b9460200190565b929101620003d1565b9062000417620003c6620003bc845190565b9060005b818110620004295750505090565b90919262000441620003f56001928651815260200190565b9291016200041b565b936200048d620004856200049b94620004766200010299979560a08a01908a820360008c015262000362565b9088820360208a015262000362565b926040870152565b8482036060860152620003aa565b91608081840391015262000405565b6040513d6000823e3d90fd5b620001029062000136906001600160a01b031682565b6200010290620004b6565b6200010290620004cc565b94906200052e62000544946200051f6200053693620001029a98966200051160c08c019260008d0190620002e6565b8a820360208c015262000362565b9088820360408a015262000362565b926060870152565b8482036080860152620003aa565b9160a081840391015262000405565b9091936200055f600090565b506040516118fe81016001600160401b03811182821017620000625762000595838789888887966118fe620005f689396200044a565b03906000f0908115620005ef577f03b5a2fa49271b60b1c4cad2bb8888b01f7c3bf838af0b8749d983879103ce1f94620005d3620005e993620004d7565b96620005de60405190565b9586958987620004e2565b0390a190565b620004aa56fe608060405234620000345762000022620000186200030d565b939290926200058c565b604051610cf462000c0a8239610cf490f35b600080fd5b634e487b7160e01b600052604160045260246000fd5b90601f01601f191681019081106001600160401b038211176200007157604052565b62000039565b906200008e6200008660405190565b92836200004f565b565b6001600160401b0381116200007157602090601f01601f19160190565b60005b838110620000c15750506000910152565b8181015183820152602001620000b0565b90929192620000eb620000e58262000090565b62000077565b938185528183011162000034576200008e916020850190620000ad565b9080601f83011215620000345781516200012592602001620000d2565b90565b805b036200003457565b905051906200008e8262000128565b6001600160401b038111620000715760208091020190565b6001600160a01b031690565b6200012a8162000159565b905051906200008e8262000165565b9092919262000192620000e58262000141565b93818552602080860192028301928184116200003457915b838310620001b85750505050565b60208091620001c8848662000170565b815201920191620001aa565b9080601f830112156200003457815162000125926020016200017f565b9092919262000204620000e58262000141565b93818552602080860192028301928184116200003457915b8383106200022a5750505050565b602080916200023a848662000132565b8152019201916200021c565b9080601f83011215620000345781516200012592602001620001f1565b91909160a081840312620000345780516001600160401b0381116200003457836200029091830162000108565b60208201519093906001600160401b038111620000345781620002b591840162000108565b92620002c5826040850162000132565b60608401519093906001600160401b038111620000345783620002ea918301620001d4565b60808201519093906001600160401b038111620000345762000125920162000246565b62000330620018fe80380380620003248162000077565b92833981019062000263565b9091929394565b6200012562000125620001259290565b156200034f57565b60405162461bcd60e51b81528062000399600482016020808252818101527f4d7573742070726f76696465206174206c65617374206f6e652077616c6c6574604082015260600190565b0390fd5b15620003a557565b60405162461bcd60e51b815260206004820152602760248201527f57616c6c65747320616e642070657263656e7461676573206c656e677468206d6044820152660d2e6dac2e8c6d60cb1b6064820152608490fd5b634e487b7160e01b600052603260045260246000fd5b906200041a825190565b8110156200042c576020809102010190565b620003fa565b62000125905162000159565b6200015962000125620001259290565b62000125906200043e565b156200046157565b60405162461bcd60e51b815260206004820152601d60248201527f57616c6c65742063616e6e6f74206265207a65726f20616464726573730000006044820152606490fd5b634e487b7160e01b600052601160045260246000fd5b91908201809211620004ca57565b620004a6565b15620004d857565b60405162461bcd60e51b815260206004820152603160248201527f546f74616c2070657263656e74616765206d75737420657175616c203935252060448201527028352520706c6174666f726d206665652960781b6064820152608490fd5b81810292918115918404141715620004ca57565b634e487b7160e01b600052601260045260246000fd5b906200056c565b9190565b90811562000578570490565b6200054b565b91908203918211620004ca57565b906200059c91949392946200078c565b805190620005bc600092620005b5620005688562000337565b1162000347565b620005e1620005c9825190565b620005da6200056862000125875190565b146200039d565b620005ec8262000337565b94855b620005fc62000125865190565b87101562000678576200066a62000671916200064f62000627620006218b8862000410565b62000432565b62000647620006406200063a8a6200044e565b62000159565b9162000159565b141562000459565b620006636200065f8a8962000410565b5190565b90620004bc565b9660010190565b95620005ef565b955093620006db620006e29194929394620006a6605f986200069f62000568605f62000337565b14620004d0565b620006d4620006c1620006ba600562000337565b8362000537565b620006cd606462000337565b9062000561565b906200057e565b9362000337565b925b6200070162000125620006f5855190565b620006d4600162000337565b8410156200076557620007576200075e91620007356200072a620006ba6200065f898862000410565b620006cd8a62000337565b9062000751826200074b620006218a8a62000410565b62000a96565b6200057e565b9360010190565b92620006e4565b9250506200008e929350620006216200074b9162000785620006f5825190565b9062000410565b906200079891620009ae565b6200008e3362000bad565b634e487b7160e01b600052602260045260246000fd5b9060016002830492168015620007dc575b6020831014620007d657565b620007a3565b91607f1691620007ca565b9160001960089290920291821b911b5b9181191691161790565b919062000816620001256200081f9362000337565b908354620007e7565b9055565b6200008e9160009162000801565b8181106200083d575050565b806200084d600060019362000823565b0162000831565b9190601f81116200086457505050565b620008786200008e93600052602060002090565b906020601f8401819004830193106200089c575b6020601f90910104019062000831565b90915081906200088c565b9060001960089091021c191690565b81620008c291620008a7565b906002021790565b90620008d4815190565b906001600160401b0382116200007157620008fc82620008f58554620007b9565b8562000854565b602090601f83116001146200092f576200081f92916000918362000923575b5050620008b6565b0151905038806200091b565b601f198316916200094585600052602060002090565b9260005b81811062000989575091600293918560019694106200096c575b50505002019055565b6200097e910151601f841690620008a7565b905538808062000963565b9193602060018192878701518155019501920162000949565b906200008e91620008ca565b90620009c06200008e926003620009a2565b6004620009a2565b15620009d057565b60405162461bcd60e51b815260206004820152601f60248201527f45524332303a206d696e7420746f20746865207a65726f2061646472657373006044820152606490fd5b620001259081565b62000125905462000a15565b9060001990620007f7565b9062000a48620001256200081f9262000337565b825462000a29565b620001259062000159906001600160a01b031682565b620001259062000a50565b620001259062000a66565b9062000a889062000a71565b600052602052604060002090565b7fddf252ad1be2c89b69c2b068fc378daa952ba7f163c4a11628f55a4df523b3ef62000b6562000b4d62000b4662000acf60006200044e565b62000af162000ade8262000159565b62000ae98862000159565b1415620009c8565b62000b1462000b0c8862000b06600262000a1d565b620004bc565b600262000a34565b62000b4062000b2587600062000a7c565b62000b398962000b358362000a1d565b0190565b9062000a34565b62000a71565b9362000a71565b9362000b5860405190565b9182918290815260200190565b0390a3565b620001259062000159565b62000125905462000b6a565b906001600160a01b0390620007f7565b9062000ba5620001256200081f9262000a71565b825462000b81565b62000bd562000bce62000bc1600562000b75565b62000b4084600562000b91565b9162000a71565b907f8be0079c531659141344cd1fd0a4f28419497f9722a3daafe3b4186f6b6457e062000c0160405190565b808062000b6556fe6080604052600436101561001257600080fd5b60003560e01c806306fdde03146100f2578063095ea7b3146100ed57806318160ddd146100e857806323b872dd146100e3578063313ce567146100de57806339509351146100d957806370a08231146100d4578063715018a6146100cf5780638da5cb5b146100ca57806395d89b41146100c5578063a457c2d7146100c0578063a9059cbb146100bb578063dd62ed3e146100b65763f2fde38b036100f75761040e565b6103f2565b6103b3565b610397565b61037c565b610355565b61031f565b610304565b6102d4565b6102a5565b610289565b610234565b610206565b610176565b600080fd5b60009103126100f757565b60005b83811061011a5750506000910152565b818101518382015260200161010a565b61014b61015460209361015e9361013f815190565b80835293849260200190565b95869101610107565b601f01601f191690565b0190565b60208082526101739291019061012a565b90565b346100f7576101863660046100fc565b61019d61019161055a565b60405191829182610162565b0390f35b6001600160a01b031690565b6101b6816101a1565b036100f757565b905035906101ca826101ad565b565b806101b6565b905035906101ca826101cc565b91906040838203126100f7576101739060206101fb82866101bd565b94016101d2565b9052565b346100f75761019d61022261021c3660046101df565b90610564565b60405191829182901515815260200190565b346100f7576102443660046100fc565b61019d61024f610585565b6040515b9182918290815260200190565b90916060828403126100f75761017361027984846101bd565b9360406101fb82602087016101bd565b346100f75761019d61022261029f366004610260565b9161058f565b346100f7576102b53660046100fc565b61019d6102c06105b8565b6040519182918260ff909116815260200190565b346100f75761019d6102226102ea3660046101df565b906105ea565b906020828203126100f757610173916101bd565b346100f75761019d61024f61031a3660046102f0565b610647565b346100f75761032f3660046100fc565b61033761069b565b604051005b610202906101a1565b6020810192916101ca919061033c565b346100f7576103653660046100fc565b61019d6103706106b6565b60405191829182610345565b346100f75761038c3660046100fc565b61019d6101916106c0565b346100f75761019d6102226103ad3660046101df565b90610728565b346100f75761019d6102226103c93660046101df565b9061074c565b91906040838203126100f7576101739060206103eb82866101bd565b94016101bd565b346100f75761019d61024f6104083660046103cf565b90610757565b346100f7576103376104213660046102f0565b61080c565b634e487b7160e01b600052602260045260246000fd5b906001600283049216801561045c575b602083101461045757565b610426565b91607f169161044c565b805460009392916104836104798361043c565b8085529360200190565b91600181169081156104d5575060011461049c57505050565b6104af9192939450600052602060002090565b916000925b8184106104c15750500190565b8054848401526020909301926001016104b4565b92949550505060ff1916825215156020020190565b9061017391610466565b634e487b7160e01b600052604160045260246000fd5b90601f01601f191681019081106001600160401b0382111761052b57604052565b6104f4565b906101ca61054a9261054160405190565b938480926104ea565b038361050a565b61017390610530565b6101736003610551565b61056f9190336108fc565b600190565b6101739081565b6101739054610574565b610173600261057b565b61056f9291906105a08333836109e1565b610b26565b6105b26101736101739290565b60ff1690565b61017360126105a5565b634e487b7160e01b600052601160045260246000fd5b919082018092116105e557565b6105c2565b61056f919061060333926105fe8385610757565b6105d8565b916108fc565b610173906101a1906001600160a01b031682565b61017390610609565b6101739061061d565b9061063990610626565b600052602052604060002090565b61065e61017391610656600090565b50600061062f565b61057b565b61066b610c22565b6101ca610689565b6101a16101736101739290565b61017390610673565b6101ca6106966000610680565b610c6b565b6101ca610663565b610173906101a1565b61017390546106a3565b61017360056106ac565b6101736004610551565b156106d157565b60405162461bcd60e51b815260206004820152602560248201527f45524332303a2064656372656173656420616c6c6f77616e63652062656c6f77604482015264207a65726f60d81b6064820152608490fd5b0390fd5b61056f9190610603339261073c8385610757565b610748828210156106ca565b0390565b61056f919033610b26565b6101739161077261065e9261076a600090565b50600161062f565b61062f565b6101ca90610783610c22565b6107e3565b1561078f57565b60405162461bcd60e51b815260206004820152602660248201527f4f776e61626c653a206e6577206f776e657220697320746865207a65726f206160448201526564647265737360d01b6064820152608490fd5b6101ca906106966107fc6107f76000610680565b6101a1565b610805836101a1565b1415610788565b6101ca90610777565b1561081c57565b60405162461bcd60e51b8152602060048201526024808201527f45524332303a20617070726f76652066726f6d20746865207a65726f206164646044820152637265737360e01b6064820152608490fd5b1561087457565b60405162461bcd60e51b815260206004820152602260248201527f45524332303a20617070726f766520746f20746865207a65726f206164647265604482015261737360f01b6064820152608490fd5b90600019905b9181191691161790565b6101736101736101739290565b906108f16101736108f8926108d4565b82546108c4565b9055565b6109906109866109807f8c5be1e5ebec7d5bd14f71427d1e84f3dd0314c0f7b2291e5b200ac8c7c3b925936109636109536109376000610680565b6107f7610943826101a1565b61094c866101a1565b1415610815565b61095c886101a1565b141561086d565b61097b876109768861077285600161062f565b6108e1565b610626565b93610626565b9361025360405190565b0390a3565b1561099c57565b60405162461bcd60e51b815260206004820152601d60248201527f45524332303a20696e73756666696369656e7420616c6c6f77616e63650000006044820152606490fd5b906109ec8183610757565b60001981036109fc575b50505050565b610a10936106039161074882821015610995565b388080806109f6565b15610a2057565b60405162461bcd60e51b815260206004820152602560248201527f45524332303a207472616e736665722066726f6d20746865207a65726f206164604482015264647265737360d81b6064820152608490fd5b15610a7a57565b60405162461bcd60e51b815260206004820152602360248201527f45524332303a207472616e7366657220746f20746865207a65726f206164647260448201526265737360e81b6064820152608490fd5b15610ad257565b60405162461bcd60e51b815260206004820152602660248201527f45524332303a207472616e7366657220616d6f756e7420657863656564732062604482015265616c616e636560d01b6064820152608490fd5b6109906109866109807fddf252ad1be2c89b69c2b068fc378daa952ba7f163c4a11628f55a4df523b3ef9361097b610bbf876000610b95610b85610b6983610680565b6107f7610b75826101a1565b610b7e8a6101a1565b1415610a19565b610b8e846101a1565b1415610a73565b610772610bb58c610ba961065e898661062f565b61074882821015610acb565b610976878461062f565b610bcc8961015e8361057b565b906108e1565b15610bd957565b60405162461bcd60e51b815280610724600482016020808252818101527f4f776e61626c653a2063616c6c6572206973206e6f7420746865206f776e6572604082015260600190565b6101ca610c2d6106b6565b610c3f610c39336101a1565b916101a1565b14610bd2565b906001600160a01b03906108ca565b90610c646101736108f892610626565b8254610c45565b610c8c610c86610c7b60056106ac565b61097b846005610c54565b91610626565b907f8be0079c531659141344cd1fd0a4f28419497f9722a3daafe3b4186f6b6457e0610cb760405190565b808061099056fea26469706673582212200e249fccba4b9523f332f24c52256f21d29f4eef4df9f92407f2aae1d2d90fe264736f6c63430008160033a2646970667358221220fda65dd7a211a5ade5d120ad07bea0d30106853cd332f1d9954de632228dda0064736f6c63430008160033",
  "linkReferences": {},
  "deployedLinkReferences": {}
}