{
  "_format": "hh-sol-artifact-1",
  "contractName": "V4FactoryWithLiquidityFixedV3",
  "sourceName": "contracts/V4FactoryWithLiquidityFixedV3.sol",
  "abi": [
    {
      "inputs": [
        {
          "internalType": "address",
          "name": "owner_",
          "type": "address"
        },
        {
          "internalType": "address",
          "name": "tokenImpl_",
          "type": "address"
        },
        {
          "internalType": "address",
          "name": "securityModuleImpl_",
          "type": "address"
        },
        {
          "internalType": "address",
          "name": "distributionModuleImpl_",
          "type": "address"
        },
        {
          "internalType": "address",
          "name": "liquidityModuleImpl_",
          "type": "address"
        }
      ],
      "stateMutability": "nonpayable",
      "type": "constructor"
    },
    {
      "anonymous": false,
      "inputs": [
        {
          "indexed": false,
          "internalType": "string",
          "name": "error",
          "type": "string"
        },
        {
          "indexed": false,
          "internalType": "address",
          "name": "sender",
          "type": "address"
        }
      ],
      "name": "DeploymentError",
      "type": "event"
    },
    {
      "anonymous": false,
      "inputs": [
        {
          "indexed": true,
          "internalType": "address",
          "name": "previousOwner",
          "type": "address"
        },
        {
          "indexed": true,
          "internalType": "address",
          "name": "newOwner",
          "type": "address"
        }
      ],
      "name": "OwnershipTransferred",
      "type": "event"
    },
    {
      "anonymous": false,
      "inputs": [
        {
          "indexed": true,
          "internalType": "address",
          "name": "tokenAddress",
          "type": "address"
        },
        {
          "indexed": false,
          "internalType": "string",
          "name": "name",
          "type": "string"
        },
        {
          "indexed": false,
          "internalType": "string",
          "name": "symbol",
          "type": "string"
        },
        {
          "indexed": true,
          "internalType": "address",
          "name": "owner",
          "type": "address"
        }
      ],
      "name": "TokenCreated",
      "type": "event"
    },
    {
      "inputs": [
        {
          "internalType": "string",
          "name": "name",
          "type": "string"
        },
        {
          "internalType": "string",
          "name": "symbol",
          "type": "string"
        },
        {
          "internalType": "uint256",
          "name": "initialSupply",
          "type": "uint256"
        },
        {
          "internalType": "address",
          "name": "owner",
          "type": "address"
        }
      ],
      "name": "createToken",
      "outputs": [
        {
          "internalType": "address",
          "name": "tokenAddress",
          "type": "address"
        }
      ],
      "stateMutability": "nonpayable",
      "type": "function"
    },
    {
      "inputs": [
        {
          "internalType": "string",
          "name": "name",
          "type": "string"
        },
        {
          "internalType": "string",
          "name": "symbol",
          "type": "string"
        },
        {
          "internalType": "uint256",
          "name": "initialSupply",
          "type": "uint256"
        },
        {
          "internalType": "address",
          "name": "owner",
          "type": "address"
        }
      ],
      "name": "createTokenBasic",
      "outputs": [
        {
          "internalType": "address",
          "name": "tokenAddress",
          "type": "address"
        }
      ],
      "stateMutability": "nonpayable",
      "type": "function"
    },
    {
      "inputs": [
        {
          "internalType": "string",
          "name": "name",
          "type": "string"
        },
        {
          "internalType": "string",
          "name": "symbol",
          "type": "string"
        },
        {
          "internalType": "uint256",
          "name": "initialSupply",
          "type": "uint256"
        },
        {
          "internalType": "address",
          "name": "owner",
          "type": "address"
        },
        {
          "internalType": "bool",
          "name": "includeDistribution",
          "type": "bool"
        }
      ],
      "name": "createTokenForWeb",
      "outputs": [
        {
          "internalType": "address",
          "name": "tokenAddress",
          "type": "address"
        }
      ],
      "stateMutability": "nonpayable",
      "type": "function"
    },
    {
      "inputs": [],
      "name": "distributionModuleBeacon",
      "outputs": [
        {
          "internalType": "contract UpgradeableBeacon",
          "name": "",
          "type": "address"
        }
      ],
      "stateMutability": "view",
      "type": "function"
    },
    {
      "inputs": [],
      "name": "distributionModuleImplementation",
      "outputs": [
        {
          "internalType": "address",
          "name": "",
          "type": "address"
        }
      ],
      "stateMutability": "view",
      "type": "function"
    },
    {
      "inputs": [],
      "name": "getAddresses",
      "outputs": [
        {
          "internalType": "address",
          "name": "_tokenImpl",
          "type": "address"
        },
        {
          "internalType": "address",
          "name": "_securityModuleImpl",
          "type": "address"
        },
        {
          "internalType": "address",
          "name": "_distributionModuleImpl",
          "type": "address"
        },
        {
          "internalType": "address",
          "name": "_liquidityModuleImpl",
          "type": "address"
        },
        {
          "internalType": "address",
          "name": "_tokenBeacon",
          "type": "address"
        },
        {
          "internalType": "address",
          "name": "_securityModuleBeacon",
          "type": "address"
        },
        {
          "internalType": "address",
          "name": "_distributionModuleBeacon",
          "type": "address"
        },
        {
          "internalType": "address",
          "name": "_liquidityModuleBeacon",
          "type": "address"
        }
      ],
      "stateMutability": "view",
      "type": "function"
    },
    {
      "inputs": [],
      "name": "lastError",
      "outputs": [
        {
          "internalType": "string",
          "name": "",
          "type": "string"
        }
      ],
      "stateMutability": "view",
      "type": "function"
    },
    {
      "inputs": [],
      "name": "liquidityModuleBeacon",
      "outputs": [
        {
          "internalType": "contract UpgradeableBeacon",
          "name": "",
          "type": "address"
        }
      ],
      "stateMutability": "view",
      "type": "function"
    },
    {
      "inputs": [],
      "name": "liquidityModuleImplementation",
      "outputs": [
        {
          "internalType": "address",
          "name": "",
          "type": "address"
        }
      ],
      "stateMutability": "view",
      "type": "function"
    },
    {
      "inputs": [],
      "name": "owner",
      "outputs": [
        {
          "internalType": "address",
          "name": "",
          "type": "address"
        }
      ],
      "stateMutability": "view",
      "type": "function"
    },
    {
      "inputs": [],
      "name": "renounceOwnership",
      "outputs": [],
      "stateMutability": "nonpayable",
      "type": "function"
    },
    {
      "inputs": [],
      "name": "securityModuleBeacon",
      "outputs": [
        {
          "internalType": "contract UpgradeableBeacon",
          "name": "",
          "type": "address"
        }
      ],
      "stateMutability": "view",
      "type": "function"
    },
    {
      "inputs": [],
      "name": "securityModuleImplementation",
      "outputs": [
        {
          "internalType": "address",
          "name": "",
          "type": "address"
        }
      ],
      "stateMutability": "view",
      "type": "function"
    },
    {
      "inputs": [
        {
          "internalType": "address",
          "name": "newDistributionModuleImpl",
          "type": "address"
        }
      ],
      "name": "setDistributionModuleImplementation",
      "outputs": [],
      "stateMutability": "nonpayable",
      "type": "function"
    },
    {
      "inputs": [
        {
          "internalType": "address",
          "name": "newLiquidityModuleImpl",
          "type": "address"
        }
      ],
      "name": "setLiquidityModuleImplementation",
      "outputs": [],
      "stateMutability": "nonpayable",
      "type": "function"
    },
    {
      "inputs": [
        {
          "internalType": "address",
          "name": "newSecurityModuleImpl",
          "type": "address"
        }
      ],
      "name": "setSecurityModuleImplementation",
      "outputs": [],
      "stateMutability": "nonpayable",
      "type": "function"
    },
    {
      "inputs": [
        {
          "internalType": "address",
          "name": "newTokenImpl",
          "type": "address"
        }
      ],
      "name": "setTokenImplementation",
      "outputs": [],
      "stateMutability": "nonpayable",
      "type": "function"
    },
    {
      "inputs": [],
      "name": "tokenBeacon",
      "outputs": [
        {
          "internalType": "contract UpgradeableBeacon",
          "name": "",
          "type": "address"
        }
      ],
      "stateMutability": "view",
      "type": "function"
    },
    {
      "inputs": [],
      "name": "tokenImplementation",
      "outputs": [
        {
          "internalType": "address",
          "name": "",
          "type": "address"
        }
      ],
      "stateMutability": "view",
      "type": "function"
    },
    {
      "inputs": [
        {
          "internalType": "address",
          "name": "newOwner",
          "type": "address"
        }
      ],
      "name": "transferOwnership",
      "outputs": [],
      "stateMutability": "nonpayable",
      "type": "function"
    }
  ],
  "bytecode": "0x6080346200053157601f6200490438819003918201601f191683019260009290916001600160401b039190828611848710176200051d578160a092859260409889528339810103126200051957620000578262000560565b6020926200006784820162000560565b936200007587830162000560565b906200009260806200008a6060860162000560565b940162000560565b946200009e3362000575565b6001600160a01b03968716928315620004c157871693841562000457578716958615620003ed5787169586156200038357620000da8662000575565b60018060a01b0319948486600154161760015585600254161760025584600354161760035560049584875416178655885161045a90818101818110848211176200035357818591620044aa978589843981520301908af080156200036657881685600554161760055587600254168a519082820190828210858311176200037057859183918589843981520301908af080156200036657881685600654161760065587600354168a519082820190828210858311176200037057859183918589843981520301908af080156200036657881685600754161760075587875416908a51948186019386851090851117620003535790859392918439815203019086f0801562000349578416906008541617600855826005541692833b15620002f15785518581602481838663f2fde38b60e01b9889845216998a8a8401525af180156200030d5762000333575b508060065416803b15620003175785809160248951809481938883528a8a8401525af180156200030d579086916200031b575b50508060075416803b15620003175785809160248951809481938883528a8a8401525af180156200030d57908691620002f5575b505060085416803b15620002f157849291836024928851968795869485528401525af18015620002e757620002cc575b8251613eed9081620005bd8239f35b620002d8829162000536565b620002e45780620002bd565b80fd5b83513d84823e3d90fd5b8480fd5b620003009062000536565b620002f15784386200028d565b87513d88823e3d90fd5b8580fd5b620003269062000536565b620002f157843862000259565b620003419095919562000536565b933862000226565b86513d87823e3d90fd5b634e487b7160e01b8b526041895260248bfd5b8a513d8b823e3d90fd5b634e487b7160e01b8c5260418a5260248cfd5b895162461bcd60e51b815260048101849052603660248201527f4c6971756964697479206d6f64756c6520696d706c656d656e746174696f6e2060448201527f63616e6e6f74206265207a65726f2061646472657373000000000000000000006064820152608490fd5b895162461bcd60e51b815260048101849052603960248201527f446973747269627574696f6e206d6f64756c6520696d706c656d656e7461746960448201527f6f6e2063616e6e6f74206265207a65726f2061646472657373000000000000006064820152608490fd5b895162461bcd60e51b815260048101849052603560248201527f5365637572697479206d6f64756c6520696d706c656d656e746174696f6e206360448201527f616e6e6f74206265207a65726f206164647265737300000000000000000000006064820152608490fd5b895162461bcd60e51b815260048101849052602b60248201527f546f6b656e20696d706c656d656e746174696f6e2063616e6e6f74206265207a60448201526a65726f206164647265737360a81b6064820152608490fd5b8280fd5b634e487b7160e01b85526041600452602485fd5b600080fd5b6001600160401b0381116200054a57604052565b634e487b7160e01b600052604160045260246000fd5b51906001600160a01b03821682036200053157565b600080546001600160a01b039283166001600160a01b03198216811783559216907f8be0079c531659141344cd1fd0a4f28419497f9722a3daafe3b4186f6b6457e09080a356fe608060408181526004803610156200001657600080fd5b600092833560e01c9081630edf632a1462000a1d575080631c480db314620009f2578063203c61cf14620008e957806329f0de3f14620007fa5780632f3a3d5d14620007cf57806333aeb63c146200073557806334f359f91462000711578063715018a614620006b05780638008334c146200068557806388282e2a14620005865780638da5cb5b146200055c5780639651d0a814620005315780639ab10b7914620005065780639f59163514620004db578063a39fac121462000465578063bf2fb7c91462000358578063c39874711462000249578063ccf5a77c146200021e578063f2f68e3a14620001e55763f2fde38b146200011457600080fd5b34620001e1576020366003190112620001e1576200013162000a44565b906200013c620033ec565b6001600160a01b039182169283156200018f575050600054826001600160601b0360a01b821617600055167f8be0079c531659141344cd1fd0a4f28419497f9722a3daafe3b4186f6b6457e0600080a380f35b906020608492519162461bcd60e51b8352820152602660248201527f4f776e61626c653a206e6577206f776e657220697320746865207a65726f206160448201526564647265737360d01b6064820152fd5b8280fd5b5050346200021a5760209062000209620001ff3662000bb5565b929190916200311f565b90516001600160a01b039091168152f35b5080fd5b5050346200021a57816003193601126200021a5760055490516001600160a01b039091168152602090f35b509034620001e1576020366003190112620001e1576200026862000a44565b9062000273620033ec565b6001600160a01b03918216918215620002f6579084916008541690813b15620001e1578280926024835180958193631b2ce7f360e11b8352898b8401525af1908115620002ed5750620002d5575b505081546001600160a01b03191617905580f35b620002e09062000a98565b620001e1578238620002c1565b513d84823e3d90fd5b815162461bcd60e51b8152602081860152603660248201527f4c6971756964697479206d6f64756c6520696d706c656d656e746174696f6e2060448201527563616e6e6f74206265207a65726f206164647265737360501b6064820152608490fd5b5034620001e1576020366003190112620001e1576200037662000a44565b9162000381620033ec565b6001600160a01b039283169283156200040457908492916006541691823b15620004005784602485928385519687948593631b2ce7f360e11b85528401525af1908115620002ed5750620003e8575b50506001600160601b0360a01b600254161760025580f35b620003f39062000a98565b6200021a578138620003d0565b8380fd5b815162461bcd60e51b8152602081850152603560248201527f5365637572697479206d6f64756c6520696d706c656d656e746174696f6e2063604482015274616e6e6f74206265207a65726f206164647265737360581b6064820152608490fd5b5034620001e15782600319360112620001e157600154600254600354925460055460065460075460085488516001600160a01b039788168152958716602087015296861697850197909752918416606084015283166080830152821660a082015292811660c08401521660e08201526101009150f35b5050346200021a57816003193601126200021a5760035490516001600160a01b039091168152602090f35b5050346200021a57816003193601126200021a5760075490516001600160a01b039091168152602090f35b5050346200021a57816003193601126200021a5760065490516001600160a01b039091168152602090f35b5050346200021a57816003193601126200021a57905490516001600160a01b039091168152602090f35b5034620001e1576020366003190112620001e157620005a462000a44565b91620005af620033ec565b6001600160a01b039283169283156200062e57908492916005541691823b15620004005784602485928385519687948593631b2ce7f360e11b85528401525af1908115620002ed575062000616575b50506001600160601b0360a01b600154161760015580f35b620006219062000a98565b6200021a578138620005fe565b815162461bcd60e51b8152602081850152602b60248201527f546f6b656e20696d706c656d656e746174696f6e2063616e6e6f74206265207a60448201526a65726f206164647265737360a81b6064820152608490fd5b5050346200021a57816003193601126200021a5760025490516001600160a01b039091168152602090f35b83346200070e57806003193601126200070e57620006cd620033ec565b600080546001600160a01b0319811682556001600160a01b03167f8be0079c531659141344cd1fd0a4f28419497f9722a3daafe3b4186f6b6457e08280a380f35b80fd5b5050346200021a57602090620002096200072b3662000bb5565b9291909162002764565b5034620001e15760a0366003190112620001e1576001600160401b038135818111620007cb576200076a903690840162000b68565b91602435918211620007cb57620007849136910162000b68565b6001600160a01b0391606435918383168303620007c6576084359586151587036200070e57509160209591620007be936044359162000f50565b915191168152f35b600080fd5b8480fd5b5050346200021a57816003193601126200021a5760015490516001600160a01b039091168152602090f35b8284346200070e57806003193601126200070e578151918282600954620008218162000a5b565b9081845260209560019187600182169182600014620008bf5750506001146200086f575b5050506200086b92916200085b91038562000ade565b5192828493845283019062000b25565b0390f35b91908693506009835260008051602062003e988339815191525b828410620008a657505050820101816200085b6200086b62000845565b8054848a01860152889550879490930192810162000889565b60ff19168782015293151560051b860190930193508492506200085b91506200086b905062000845565b508290346200021a5760203660031901126200021a576200090962000a44565b9262000914620033ec565b6001600160a01b0393841693841562000989576007541691823b15620004005784602485928385519687948593631b2ce7f360e11b85528401525af1908115620002ed575062000977575b50906001600160601b0360a01b600354161760035580f35b620009829062000a98565b826200095f565b815162461bcd60e51b8152602081850152603960248201527f446973747269627574696f6e206d6f64756c6520696d706c656d656e7461746960448201527f6f6e2063616e6e6f74206265207a65726f2061646472657373000000000000006064820152608490fd5b5050346200021a57816003193601126200021a5760085490516001600160a01b039091168152602090f35b92505034620001e15782600319360112620001e157546001600160a01b0316815260209150f35b600435906001600160a01b0382168203620007c657565b90600182811c9216801562000a8d575b602083101462000a7757565b634e487b7160e01b600052602260045260246000fd5b91607f169162000a6b565b6001600160401b03811162000aac57604052565b634e487b7160e01b600052604160045260246000fd5b604081019081106001600160401b0382111762000aac57604052565b90601f801991011681019081106001600160401b0382111762000aac57604052565b60005b83811062000b145750506000910152565b818101518382015260200162000b03565b9060209162000b408151809281855285808601910162000b00565b601f01601f1916010190565b6001600160401b03811162000aac57601f01601f191660200190565b81601f82011215620007c65780359062000b828262000b4c565b9262000b92604051948562000ade565b82845260208383010111620007c657816000926020809301838601378301015290565b906080600319830112620007c6576001600160401b03600435818111620007c6578362000be59160040162000b68565b92602435918211620007c65762000bff9160040162000b68565b90604435906064356001600160a01b0381168103620007c65790565b9294939060609262000c3a62000c499260808752608087019062000b25565b90858203602087015262000b25565b60408401959095526001600160a01b0316910152565b6001600160a01b03909116815260406020820181905262000c839291019062000b25565b90565b90816020910312620007c657518015158103620007c65790565b60009060033d1162000cae57565b905060046000803e60005160e01c90565b600060443d1062000c8357604051600319913d83016004833e81516001600160401b03918282113d60248401111762000d225781840194855193841162000d2a573d8501016020848701011162000d22575062000c839291016020019062000ade565b949350505050565b50949350505050565b601f811162000d40575050565b600090600960005260008051602062003e98833981519152906020601f850160051c8301941062000d8e575b601f0160051c01915b82811062000d8257505050565b81815560010162000d75565b909250829062000d6c565b601f811162000da55750565b60006009600052601f60008051602062003e98833981519152920160051c8201915b82811062000dd457505050565b81815560010162000dc7565b601f811162000dec5750565b601f60009160096000520160051c60008051602062003e9883398151915201907f6e1540171b6c0c960b71a7020d9f60077f6af931a8bbf590da0223dacf75c7b15b82811062000e3b57505050565b81815560010162000e2e565b6009546000929162000e598262000a5b565b8082529160209060019081811690811562000ecc575060011462000e7e575b50505050565b92939450600960005260008051602062003e98833981519152926000935b85851062000eb857505050602092500101903880808062000e78565b805485850184015293820193810162000e9c565b92505050602093945060ff929192191683830152151560051b0101903880808062000e78565b909162000f0c62000c839360408452604084019062000b25565b91602081840391015262000b25565b3d1562000f4b573d9062000f2f8262000b4c565b9162000f3f604051938462000ade565b82523d6000602084013e565b606090565b604051635e9d09fb60e11b60208201526000969594919392919062000f908162000f813087878a6024860162000c1b565b03601f19810183528262000ade565b60055460405191906001600160a01b03166001600160401b036106728401908111908411176200275057829162000fd591610672620038068539610672840162000c5f565b039088f080620011f4575050505050509062000ff062000ca0565b6308c379a01462001077575b6200100662000f1b565b506200101e6200101860095462000a5b565b62000d99565b60387f556e6b6e6f776e206572726f72206372656174696e6720746f6b656e000000000160095560008051602062003e7883398151915260405160408152806200106b6040820162000e47565b3360208301520390a190565b6200108162000cbf565b806200108e575062000ffc565b9190620010e06036604051809575022b93937b91031b932b0ba34b733903a37b5b2b71d160551b6020830152620010cf815180926020868601910162000b00565b810103601681018652018462000ade565b82516001600160401b038111620011e05762001109816200110360095462000a5b565b62000d33565b6020601f82116001146200116b578293948293926200115f575b50508160011b916000199060031b1c1916176009555b60008051602062003e7883398151915260405160408152806200106b6040820162000e47565b01519050388062001123565b6009835260008051602062003e9883398151915290601f198316845b818110620011c757509583600195969710620011ad575b505050811b0160095562001139565b015160001960f88460031b161c191690553880806200119e565b9192602060018192868b01518155019401920162001187565b634e487b7160e01b82526041600452602482fd5b6006546040516001600160a01b0392831697928a92620012499291166200121b8262000ac2565b600f82526e7365637572697479206d6f64756c6560881b60208301526001600160a01b038616908a62003445565b946001600160a01b03861615620027465782620026e0575b600854604051620012af916001600160a01b0316620012808262000ac2565b601082526f6c6971756964697479206d6f64756c6560801b60208301526001600160a01b038716908b62003445565b926001600160a01b03841615620026d5576040516001600160a01b03861660208281019190915280825262001309918b8a8f620012ec8462000ac2565b604051809681958294630b74e9e360e21b84526004840162000c5f565b03926001600160a01b03165af19081620026b1575b5062001492575050505050505050506200133762000ca0565b6308c379a01462001350575b50604051903d90823e3d90fd5b6200135a62000cbf565b908162001368575062001343565b9091620013c1603e60405180957f4572726f7220616464696e67207365637572697479206d6f64756c653a2000006020830152620013b0815180926020868601910162000b00565b810103601e81018652018462000ade565b82516001600160401b038111620011e057620013e4816200110360095462000a5b565b6020601f821160011462001438578293948293926200115f5750508160011b916000199060031b1c19161760095560008051602062003e7883398151915260405160408152806200106b6040820162000e47565b6009835260008051602062003e9883398151915290601f198316845b8181106200147957509583600195969710620011ad57505050811b0160095562001139565b9192602060018192868b01518155019401920162001454565b806200269e575b620018b5575b50506020620014e3916040519060018060a01b03851683830152828252620014c78262000ac2565b604051630b74e9e360e21b815293849283926004840162000c5f565b03818b6001600160a01b038b165af190816200187f575b50620016695750505050506200150f62000ca0565b6308c379a014620015275750604051903d90823e3d90fd5b6200153162000cbf565b90816200153f575062001343565b909162001598603f60405180957f4572726f7220616464696e67206c6971756964697479206d6f64756c653a2000602083015262001587815180926020868601910162000b00565b810103601f81018652018462000ade565b82516001600160401b038111620011e057620015bb816200110360095462000a5b565b6020601f82116001146200160f578293948293926200115f5750508160011b916000199060031b1c19161760095560008051602062003e7883398151915260405160408152806200106b6040820162000e47565b6009835260008051602062003e9883398151915290601f198316845b8181106200165057509583600195969710620011ad57505050811b0160095562001139565b9192602060018192868b0151815501940192016200162b565b6001600160a01b03851692833b156200187b5760405163f2fde38b60e01b81526001600160a01b039091166004820152878160248183885af1908162001865575b5062001808575050505050620016bf62000ca0565b6308c379a014620016d75750604051903d90823e3d90fd5b620016e162000cbf565b9081620016ef575062001343565b909162001737603e60405180957f4572726f72207472616e7366657272696e67206f776e6572736869703a2000006020830152620013b0815180926020868601910162000b00565b82516001600160401b038111620011e0576200175a816200110360095462000a5b565b6020601f8211600114620017ae578293948293926200115f5750508160011b916000199060031b1c19161760095560008051602062003e7883398151915260405160408152806200106b6040820162000e47565b6009835260008051602062003e9883398151915290601f198316845b818110620017ef57509583600195969710620011ad57505050811b0160095562001139565b9192602060018192868b015181550194019201620017ca565b7f6596c1670eb3390048d23721809c3da5d3f531375ac0e2cab0f77a808ed643319293949596506200184960405192839260018060a01b0316968362000ef2565b0390a36200185d6200101860095462000a5b565b600060095590565b620018739098919862000a98565b9638620016aa565b8780fd5b620018a59060203d602011620018ad575b6200189c818362000ade565b81019062000c86565b5038620014fa565b503d62001890565b620018f7602060405160018060a01b03871682820152818152620018d98162000ac2565b8c6040518080958194630b74e9e360e21b8352896004840162000c5f565b03916001600160a01b038e165af190816200267a575b5062001a8a5750505050505050506200192562000ca0565b6308c379a0146200193d5750604051903d90823e3d90fd5b6200194762000cbf565b908162001955575062001343565b9091620019b9604260405180957f4572726f7220616464696e6720646973747269627574696f6e206d6f64756c6560208301526101d160f51b6040830152620019a8815180926020868601910162000b00565b810103602281018652018462000ade565b82516001600160401b038111620011e057620019dc816200110360095462000a5b565b6020601f821160011462001a30578293948293926200115f5750508160011b916000199060031b1c19161760095560008051602062003e7883398151915260405160408152806200106b6040820162000e47565b6009835260008051602062003e9883398151915290601f198316845b81811062001a7157509583600195969710620011ad57505050811b0160095562001139565b9192602060018192868b01518155019401920162001a4c565b8060328102046032148115171562002145576040516310c5833960e31b81526001600160a01b038581166004830152606460328402819004602484015260a06044840152601060a48401526f27bbb732b91020b63637b1b0ba34b7b760811b60c484015282018c9052608482018c9052602090829060e49082908f9088165af1908162002656575b506200265057600162001b2462000ca0565b6308c379a014620024cd575b62002159575b80601481020460141481151715620021455762ed4e0042014211620021455760e460208b604051928380926310c5833960e31b825260018060a01b038a16600483015260646014880204602483015260a06044830152600460a4830152635465616d60e01b60c48301526001606483015262ed4e004201608483015260018060a01b0388165af19081620024a9575b50620024a357600162001bd762000ca0565b6308c379a01462002331575b62002159575b80600f810204600f148115171562002145576040516310c5833960e31b81526001600160a01b0385811660048301526064600f8402819004602484015260a06044840152600960a4840152684d61726b6574696e6760b81b60c484015282018c9052608482018c9052602090829060e49082908f9088165af190816200230d575b506200230757600162001c7c62000ca0565b6308c379a01462002164575b62002159575b6276a7004201421162002145579089916064600f604051926310c5833960e31b845260018060a01b03881660048501520204602482015260a06044820152600b60a48201526a11195d995b1bdc1b595b9d60aa1b60c4820152600160648201526276a7004201608482015260208160e4818660018060a01b0387165af1908162002121575b506200211857600162001d2562000ca0565b6308c379a01462001f6b575b62001343576020905b6040516001623c4bbb60e21b0319815292839160049183916001600160a01b03165af1908162001f47575b5062001f3a57600162001d7762000ca0565b6308c379a01462001da2575b62001d97576020620014e3915b916200149f565b6040513d89823e3d90fd5b62001dac62000cbf565b8062001dba575b5062001d83565b9050889062001e15603e60405180937f4572726f7220657865637574696e6720646973747269627574696f6e3a200000602083015262001e04815180926020868601910162000b00565b810103601e81018452018262000ade565b8051906001600160401b03821162001f2657819062001e3b826200110360095462000a5b565b602090601f831160011462001eaa578c9262001e9e575b50508160011b916000199060031b1c1916176009555b60008051602062003e78833981519152604051604081528062001e8e6040820162000e47565b3360208301520390a13862001db3565b01519050388062001e52565b925060098c5260008051602062003e98833981519152908c935b601f198416851062001f0a576001945083601f1981161062001ef0575b505050811b0160095562001e68565b015160001960f88460031b161c1916905538808062001ee1565b8181015183556020948501946001909301929091019062001ec4565b634e487b7160e01b8b52604160045260248bfd5b6020620014e39162001d90565b62001f639060203d602011620018ad576200189c818362000ade565b503862001d65565b62001f7562000cbf565b8062001f83575b5062001d31565b919290509062001fed604560405180937f4572726f7220616464696e6720646576656c6f706d656e7420616c6c6f636174602083015264034b7b71d160dd1b604083015262001fdc815180926020868601910162000b00565b810103602581018452018262000ade565b8051906001600160401b0382116200210457908b93929162002016826200110360095462000a5b565b602090601f83116001146200208757859190836200207b575b50508160011b916000199060031b1c1916176009555b60008051602062003e7883398151915260405160408152806200206b6040820162000e47565b3360208301520390a13862001f7c565b0151905038806200202f565b906009865260008051602062003e9883398151915291865b601f1985168110620020e8575090839291600194601f19811610620020ce575b505050811b0160095562002045565b015160001960f88460031b161c19169055388080620020bf565b8183015184558f9750600190930192602092830192016200209f565b634e487b7160e01b8c52604160045260248cfd5b60209062001d3a565b6200213d9060203d602011620018ad576200189c818362000ade565b503862001d13565b634e487b7160e01b8a52601160045260248afd5b6040513d8b823e3d90fd5b6200216e62000cbf565b806200217c575b5062001c88565b90508a90620021e3604360405180937f4572726f7220616464696e67206d61726b6574696e6720616c6c6f636174696f6020830152620371d160ed1b6040830152620021d2815180926020868601910162000b00565b810103602381018452018262000ade565b8051906001600160401b038211620022f3578c82916200220a836200110360095462000a5b565b602091601f84116001146200227857926200226c575b50508160011b916000199060031b1c1916176009555b60008051602062003e7883398151915260405160408152806200225c6040820162000e47565b3360208301520390a13862002175565b01519050388062002220565b60098152935060008051602062003e9883398151915291905b601f1984168510620022d7576001945083601f19811610620022bd575b505050811b0160095562002236565b015160001960f88460031b161c19169055388080620022ae565b8181015183556020948501946001909301929091019062002291565b634e487b7160e01b8d52604160045260248dfd5b62001c8e565b620023299060203d602011620018ad576200189c818362000ade565b503862001c6a565b6200233b62000cbf565b8062002349575b5062001be3565b90508a9062002393603e60405180937f4572726f7220616464696e67207465616d20616c6c6f636174696f6e3a200000602083015262001e04815180926020868601910162000b00565b8051906001600160401b038211620022f3578c8291620023ba836200110360095462000a5b565b602091601f84116001146200242857926200241c575b50508160011b916000199060031b1c1916176009555b60008051602062003e7883398151915260405160408152806200240c6040820162000e47565b3360208301520390a13862002342565b015190503880620023d0565b60098152935060008051602062003e9883398151915291905b601f198416851062002487576001945083601f198116106200246d575b505050811b01600955620023e6565b015160001960f88460031b161c191690553880806200245e565b8181015183556020948501946001909301929091019062002441565b62001be9565b620024c59060203d602011620018ad576200189c818362000ade565b503862001bc5565b620024d762000cbf565b80620024e5575b5062001b30565b90508a9062002540603f60405180937f4572726f7220616464696e67206f776e657220616c6c6f636174696f6e3a200060208301526200252f815180926020868601910162000b00565b810103601f81018452018262000ade565b8051906001600160401b038211620022f3578c829162002567836200110360095462000a5b565b602091601f8411600114620025d55792620025c9575b50508160011b916000199060031b1c1916176009555b60008051602062003e788339815191526040516040815280620025b96040820162000e47565b3360208301520390a138620024de565b0151905038806200257d565b60098152935060008051602062003e9883398151915291905b601f198416851062002634576001945083601f198116106200261a575b505050811b0160095562002593565b015160001960f88460031b161c191690553880806200260b565b81810151835560209485019460019093019290910190620025ee565b62001b36565b620026729060203d602011620018ad576200189c818362000ade565b503862001b12565b620026969060203d602011620018ad576200189c818362000ade565b50386200190d565b506001600160a01b038216151562001499565b620026cd9060203d602011620018ad576200189c818362000ade565b50386200131e565b505050505050505050565b6007546040519192506200273591906001600160a01b0316620027038262000ac2565b6013825272646973747269627574696f6e206d6f64756c6560681b60208301526001600160a01b038616908a62003445565b906001600160a01b03821662001261575b5050505050505050565b634e487b7160e01b8a52604160045260248afd5b9390929192604091825190602094635e9d09fb60e11b86840152826200279282602499878c8c860162000c1b565b0393620027a8601f199586810186528562000ade565b600554865160009a6001600160401b039690926001600160a01b0392610672928382018a8111838210176200310b578f90928f93620027fb8f9a999897969483928962003806978a898739169062000c5f565b0391f08d8162002a745750505050505050505050506200281a62000ca0565b6308c379a014620028f9575b5050620028f5906009856200283a62000f1b565b50620028516200284b835462000a5b565b62000de0565b60458255527f556e6b6e6f776e206572726f72206372656174696e6720746f6b656e2070726f60008051602062003e988339815191525561787960f01b7f6e1540171b6c0c960b71a7020d9f60077f6af931a8bbf590da0223dacf75c7b05560008051602062003e78833981519152815182815280620028d384820162000e47565b33878301520390a15192839262461bcd60e51b84526004840152820162000e47565b0390fd5b6200290362000cbf565b918262002911575062002826565b90919562002968603c855180997f4572726f72206372656174696e6720746f6b656e2070726f78793a20000000008983015262002957815180928b868601910162000b00565b810103601c81018a52018862000ade565b865192831162002a615762002984836200110360095462000a5b565b8491601f8411600114620029e7575090620028f594959683620029db575b50508160011b916000199060031b1c1916176009555b60008051602062003e78833981519152815182815280620028d384820162000e47565b015190503880620029a2565b83979197166009885260008051602062003e98833981519152975b81811062002a49575091620028f59596979184600195941062002a2f575b505050811b01600955620029b8565b015160001960f88460031b161c1916905538808062002a20565b83830151895560019098019792860192860162002a02565b634e487b7160e01b815260416004528590fd5b62002ab2868062002abf94169b16998b8151918c8584015284835262002a9a8362000ac2565b5196879463347d5e2560e21b90860152840162000c5f565b038c810184528362000ade565b8360065416908c5193808501918583108d841117620030f5579162002aea9391869593863962000c5f565b03908df0908c8262002d35578c8c8c8c8c62002b0562000ca0565b6308c379a01462002bc2575b5050620028f59060098562002b2562000f1b565b5062002b366200284b835462000a5b565b60598255527f556e6b6e6f776e206572726f72206372656174696e672073656375726974792060008051602062003e98833981519152556b6d6f64756c652070726f787960a01b7f6e1540171b6c0c960b71a7020d9f60077f6af931a8bbf590da0223dacf75c7b05560008051602062003e78833981519152815182815280620028d384820162000e47565b62002bcc62000cbf565b918262002bda575062002b11565b90919562002c3f6046855180997f4572726f72206372656174696e67207365637572697479206d6f64756c652070898301526503937bc3c9d160d51b8883015262002c2e815180928b868601910162000b00565b810103602681018a52018862000ade565b865192831162002a615762002c5b836200110360095462000a5b565b8491601f841160011462002cbc575090620028f59495968362002cb05750508160011b916000199060031b1c19161760095560008051602062003e78833981519152815182815280620028d384820162000e47565b015190508680620029a2565b83979197166009885260008051602062003e98833981519152975b81811062002d1d575091620028f59596979184600195941062002d0357505050811b01600955620029b8565b015160001960f88460031b161c1916905586808062002a20565b83830151895560019098019792860192860162002cd7565b8b8b62002d7492819f9d9e9c9e5191898484015283835262002d578362000ac2565b518080958194630b74e9e360e21b8352888a166004840162000c5f565b03918b5af19081620030d3575b5062002ee6575050505050505062002d9862000ca0565b6308c379a01462002dae575b84513d87823e3d90fd5b62002db862000cbf565b938462002dc6575062002da4565b9085918762002e1660358551809974022b93937b91030b23234b7339036b7b23ab6329d1605d1b8983015262002e05815180928b868601910162000b00565b810103601581018a52018862000ade565b865192831162002a615762002e32836200110360095462000a5b565b8491601f841160011462002e87575090620028f59495968362002cb05750508160011b916000199060031b1c19161760095560008051602062003e78833981519152815182815280620028d384820162000e47565b83979197166009885260008051602062003e98833981519152975b81811062002ece575091620028f59596979184600195941062002d0357505050811b01600955620029b8565b83830151895560019098019792860192860162002ea2565b853b15620030cf578b5163f2fde38b60e01b8152911660048201528b818a8183895af19081620030b9575b506200307b57505050505062002f2662000ca0565b6308c379a01462002f3b5784513d87823e3d90fd5b62002f4562000cbf565b938462002f53575062002da4565b9085918762002fab603e855180997f4572726f72207472616e7366657272696e67206f776e6572736869703a2000008983015262002f9a815180928b868601910162000b00565b810103601e81018a52018862000ade565b865192831162002a615762002fc7836200110360095462000a5b565b8491601f84116001146200301c575090620028f59495968362002cb05750508160011b916000199060031b1c19161760095560008051602062003e78833981519152815182815280620028d384820162000e47565b83979197166009885260008051602062003e98833981519152975b81811062003063575091620028f59596979184600195941062002d0357505050811b01600955620029b8565b83830151895560019098019792860192860162003037565b93995093509550958694507f6596c1670eb3390048d23721809c3da5d3f531375ac0e2cab0f77a808ed6433193506200184990519283928362000ef2565b620030c7909c919c62000a98565b9a3862002f11565b8c80fd5b620030ed908b3d8d11620018ad576200189c818362000ade565b503862002d81565b5050508d8f634e487b7160e01b81526041600452fd5b50634e487b7160e01b8f5260416004528d8ffd5b9290939193604092835191826200314b85602099635e9d09fb60e11b8b850152848a6024860162000c1b565b039562003161601f199788810186528562000ade565b60055486516001600160401b039690956001600160a01b039261067280890192909185168a84118a85101762000aac578993620031a49362003806863962000c5f565b0360009687f080620033aa57505050505050620031c062000ca0565b6308c379a01462003259575b8483620031d862000f1b565b50620031ea6200101860095462000a5b565b7f556e6b6e6f776e206572726f72206372656174696e6720746f6b656e00000038600955805181815260008051602062003e7883398151915290806200323281850162000e47565b33868301520390a1519062461bcd60e51b8252600482015280620028f56024820162000e47565b6200326362000cbf565b80620032705750620031cc565b620032bd60368551809375022b93937b91031b932b0ba34b733903a37b5b2b71d160551b8a830152620032ac815180928c868601910162000b00565b810103601681018452018262000ade565b8051928311620011e057620032d9836200110360095462000a5b565b8591601f8411600114620033375783949550926200332b575b50508160011b916000199060031b1c1916176009555b60008051602062003e788339815191528151828152806200323284820162000e47565b015190503880620032f2565b9190948316946009835260008051602062003e98833981519152925b878782106200339357505083600195961062003379575b505050811b0160095562003308565b015160001960f88460031b161c191690553880806200336a565b600184958293958501518155019401920162003353565b97519499509681169750909516948694507f6596c1670eb3390048d23721809c3da5d3f531375ac0e2cab0f77a808ed643319350829162001849918362000ef2565b6000546001600160a01b031633036200340157565b606460405162461bcd60e51b815260206004820152602060248201527f4f776e61626c653a2063616c6c6572206973206e6f7420746865206f776e65726044820152fd5b9291909260409283519160209384840152838352620034648362000ac2565b62003483855193849263347d5e2560e21b878501526024840162000c5f565b039062003499601f199283810185528462000ade565b8451956001600160401b03936001600160a01b039161067291828a018781118b82101762000aac5784620034d7938c95620038068739169062000c5f565b0360009788f080620037fa575050620034ef62000ca0565b6308c379a01462003693575b6200350562000f1b565b506200356a603d865180937f556e6b6e6f776e206572726f72206372656174696e6720000000000000000000888301526200354a815180928a60378601910162000b00565b8101652070726f787960d01b603782015203601d81018452018262000ade565b80519283116200367f5762003586836200110360095462000a5b565b8391601f8411600114620035f557509180620035dd949260008051602062003e7883398151915296948892620035e9575b50508160011b916000199060031b1c1916176009555b8151928284938452830162000e47565b9033908301520390a190565b015190503880620035b7565b6009875260008051602062003e988339815191529291908416875b81811062003667575092600192859260008051602062003e788339815191529896620035dd9896106200364d575b505050811b01600955620035cd565b015160001960f88460031b161c191690553880806200363e565b92938660018192878601518155019501930162003610565b634e487b7160e01b86526041600452602486fd5b6200369d62000cbf565b80620036aa5750620034fb565b9060376200371a9187519384916e022b93937b91031b932b0ba34b7339608d1b89840152620036e3815180928b602f8701910162000b00565b820167010383937bc3c9d160c51b602f8201526200370a825180938b878501910162000b00565b0103601781018452018262000ade565b80519283116200367f5762003736836200110360095462000a5b565b8391601f84116001146200378b57509180620035dd949260008051602062003e7883398151915296948892620035e95750508160011b916000199060031b1c1916176009558151928284938452830162000e47565b6009875260008051602062003e988339815191529291908416875b818110620037e2575092600192859260008051602062003e788339815191529896620035dd9896106200364d57505050811b01600955620035cd565b929386600181928786015181550195019301620037a6565b16969550505050505056fe60806040908082526106728038038091610019828561034d565b8339810190828183031261023f5761003081610370565b6020828101516001600160401b039391929184821161023f57019084601f8301121561023f5781519161006283610384565b9261006f8851948561034d565b8084528484019685828401011161023f57868561008c930161039f565b803b156102fb578551635c60da1b60e01b80825292916001600160a01b0316908481600481855afa9081156102f0576000916102bb575b503b1561025e577fa3f0ad74e5423aebfd80d3ef4346578335a9a72aeaee59ff6cb3582b35133d5080546001600160a01b03191682179055865192817f1cf3b03a6cf19fa2baba4df148e9dcabedea7f8a5c07840e207e5c089be95d3e600080a2825115801590610256575b610142575b87516101fc90816104768239f35b6004848693819382525afa91821561024b5760009261020f575b5085519360608501908111858210176101f9578652602784527f416464726573733a206c6f772d6c6576656c2064656c65676174652063616c6c83850152660819985a5b195960ca1b84870152516101e3946000918291845af4903d156101f0573d6101c781610384565b906101d48851928361034d565b8152600081943d92013e6103c2565b5038808080808080610134565b606092506103c2565b634e487b7160e01b600052604160045260246000fd5b9091508281813d8311610244575b610227818361034d565b8101031261023f5761023890610370565b903861015c565b600080fd5b503d61021d565b86513d6000823e3d90fd5b50600061012f565b865162461bcd60e51b815260048101859052603060248201527f455243313936373a20626561636f6e20696d706c656d656e746174696f6e206960448201526f1cc81b9bdd08184818dbdb9d1c9858dd60821b6064820152608490fd5b90508481813d83116102e9575b6102d2818361034d565b8101031261023f576102e390610370565b386100c3565b503d6102c8565b88513d6000823e3d90fd5b855162461bcd60e51b815260048101849052602560248201527f455243313936373a206e657720626561636f6e206973206e6f74206120636f6e6044820152641d1c9858dd60da1b6064820152608490fd5b601f909101601f19168101906001600160401b038211908210176101f957604052565b51906001600160a01b038216820361023f57565b6001600160401b0381116101f957601f01601f191660200190565b60005b8381106103b25750506000910152565b81810151838201526020016103a2565b9192901561042457508151156103d6575090565b3b156103df5790565b60405162461bcd60e51b815260206004820152601d60248201527f416464726573733a2063616c6c20746f206e6f6e2d636f6e74726163740000006044820152606490fd5b8251909150156104375750805190602001fd5b6044604051809262461bcd60e51b825260206004830152610467815180928160248601526020868601910161039f565b601f01601f19168101030190fdfe608080604052366100c7577fa3f0ad74e5423aebfd80d3ef4346578335a9a72aeaee59ff6cb3582b35133d5054635c60da1b60e01b8252602090829060049082906001600160a01b03165afa9081156100bb57600091610060575b506101a7565b905060203d6020116100b4575b601f8101601f191682019167ffffffffffffffff83118184101761009e576100989260405201610161565b3861005a565b634e487b7160e01b600052604160045260246000fd5b503d61006d565b6040513d6000823e3d90fd5b7fa3f0ad74e5423aebfd80d3ef4346578335a9a72aeaee59ff6cb3582b35133d5054604051635c60da1b60e01b815290602090829060049082906001600160a01b03165afa9081156100bb5760009161012057506101a7565b602091503d8211610159575b601f8201601f191681019167ffffffffffffffff83118284101761009e5761009892604052810190610188565b3d915061012c565b602090607f190112610183576080516001600160a01b03811681036101835790565b600080fd5b9081602091031261018357516001600160a01b03811681036101835790565b6000808092368280378136915af43d82803e156101c2573d90f35b3d90fdfea264697066735822122055fbd96e33b80d64199b9943c5791120941f50472e3a8ea3832c0c2bbc01d04c64736f6c63430008160033609b6c5a1c9a8a0155f177b91e093957168ca7de93871803b59597d7d54de3fa6e1540171b6c0c960b71a7020d9f60077f6af931a8bbf590da0223dacf75c7afa26469706673582212207e7e522c1f9660b63f6217a35af291ec069185523758d516d6ea0a60296b13ef64736f6c6343000816003360803461011a57601f61045a38819003918201601f19168301916001600160401b0383118484101761011f5780849260209460405283398101031261011a57516001600160a01b03808216919082820361011a576000549160018060a01b0319923384821617600055604051923391167f8be0079c531659141344cd1fd0a4f28419497f9722a3daafe3b4186f6b6457e0600080a33b156100b25750600154161760015560405161032490816101368239f35b62461bcd60e51b815260206004820152603360248201527f5570677261646561626c65426561636f6e3a20696d706c656d656e746174696f60448201527f6e206973206e6f74206120636f6e7472616374000000000000000000000000006064820152608490fd5b600080fd5b634e487b7160e01b600052604160045260246000fdfe6080604052600436101561001257600080fd5b6000803560e01c80633659cfe6146101c75780635c60da1b1461019e578063715018a6146101445780638da5cb5b1461011d5763f2fde38b1461005457600080fd5b3461011a57602036600319011261011a576004356001600160a01b038181169182900361011657610083610296565b81156100c25782546001600160a01b0319811683178455167f8be0079c531659141344cd1fd0a4f28419497f9722a3daafe3b4186f6b6457e08380a380f35b60405162461bcd60e51b815260206004820152602660248201527f4f776e61626c653a206e6577206f776e657220697320746865207a65726f206160448201526564647265737360d01b6064820152608490fd5b8280fd5b80fd5b503461011a578060031936011261011a57546040516001600160a01b039091168152602090f35b503461011a578060031936011261011a5761015d610296565b80546001600160a01b03198116825581906001600160a01b03167f8be0079c531659141344cd1fd0a4f28419497f9722a3daafe3b4186f6b6457e08280a380f35b503461011a578060031936011261011a576001546040516001600160a01b039091168152602090f35b503461011a57602036600319011261011a576004356001600160a01b03811690818103610116576101f6610296565b3b1561023557600180546001600160a01b031916821790557fbc7cd75a20ee27fd9adebab32041f755214dbc6bffa90cc0225b39da2e5c2d3b8280a280f35b60405162461bcd60e51b815260206004820152603360248201527f5570677261646561626c65426561636f6e3a20696d706c656d656e746174696f6044820152721b881a5cc81b9bdd08184818dbdb9d1c9858dd606a1b6064820152608490fd5b6000546001600160a01b031633036102aa57565b606460405162461bcd60e51b815260206004820152602060248201527f4f776e61626c653a2063616c6c6572206973206e6f7420746865206f776e65726044820152fdfea2646970667358221220df6ab73b1dff0a8ef9b5ef6df200574135fbb4c8346dced2b18f2800c3bc189564736f6c63430008160033",
  "linkReferences": {},
  "deployedLinkReferences": {}
}