{
  "_format": "hh-sol-artifact-1",
  "contractName": "TokenFactory_v1",
  "sourceName": "contracts/TokenFactory_v1.sol",
  "abi": [
    {
      "inputs": [
        {
          "internalType": "uint256",
          "name": "initialFee",
          "type": "uint256"
        }
      ],
      "stateMutability": "nonpayable",
      "type": "constructor"
    },
    {
      "inputs": [
        {
          "internalType": "address",
          "name": "owner",
          "type": "address"
        }
      ],
      "name": "OwnableInvalidOwner",
      "type": "error"
    },
    {
      "inputs": [
        {
          "internalType": "address",
          "name": "account",
          "type": "address"
        }
      ],
      "name": "OwnableUnauthorizedAccount",
      "type": "error"
    },
    {
      "inputs": [],
      "name": "ReentrancyGuardReentrantCall",
      "type": "error"
    },
    {
      "anonymous": false,
      "inputs": [
        {
          "indexed": false,
          "internalType": "uint256",
          "name": "newFee",
          "type": "uint256"
        }
      ],
      "name": "DeploymentFeeUpdated",
      "type": "event"
    },
    {
      "anonymous": false,
      "inputs": [
        {
          "indexed": true,
          "internalType": "address",
          "name": "previousOwner",
          "type": "address"
        },
        {
          "indexed": true,
          "internalType": "address",
          "name": "newOwner",
          "type": "address"
        }
      ],
      "name": "OwnershipTransferred",
      "type": "event"
    },
    {
      "anonymous": false,
      "inputs": [
        {
          "indexed": true,
          "internalType": "address",
          "name": "tokenAddress",
          "type": "address"
        },
        {
          "indexed": false,
          "internalType": "string",
          "name": "name",
          "type": "string"
        },
        {
          "indexed": false,
          "internalType": "string",
          "name": "symbol",
          "type": "string"
        },
        {
          "indexed": true,
          "internalType": "address",
          "name": "owner",
          "type": "address"
        },
        {
          "indexed": false,
          "internalType": "uint256",
          "name": "initialSupply",
          "type": "uint256"
        },
        {
          "indexed": false,
          "internalType": "uint256",
          "name": "maxSupply",
          "type": "uint256"
        },
        {
          "indexed": false,
          "internalType": "bool",
          "name": "blacklistEnabled",
          "type": "bool"
        },
        {
          "indexed": false,
          "internalType": "bool",
          "name": "timeLockEnabled",
          "type": "bool"
        }
      ],
      "name": "TokenCreated",
      "type": "event"
    },
    {
      "inputs": [],
      "name": "VERSION",
      "outputs": [
        {
          "internalType": "string",
          "name": "",
          "type": "string"
        }
      ],
      "stateMutability": "view",
      "type": "function"
    },
    {
      "inputs": [],
      "name": "VERSION_HASH",
      "outputs": [
        {
          "internalType": "bytes32",
          "name": "",
          "type": "bytes32"
        }
      ],
      "stateMutability": "view",
      "type": "function"
    },
    {
      "inputs": [
        {
          "internalType": "string",
          "name": "name",
          "type": "string"
        },
        {
          "internalType": "string",
          "name": "symbol",
          "type": "string"
        },
        {
          "internalType": "uint256",
          "name": "initialSupply",
          "type": "uint256"
        },
        {
          "internalType": "uint256",
          "name": "maxSupply",
          "type": "uint256"
        },
        {
          "internalType": "bool",
          "name": "enableBlacklist",
          "type": "bool"
        },
        {
          "internalType": "bool",
          "name": "enableTimeLock",
          "type": "bool"
        }
      ],
      "name": "createToken",
      "outputs": [],
      "stateMutability": "payable",
      "type": "function"
    },
    {
      "inputs": [],
      "name": "deploymentFee",
      "outputs": [
        {
          "internalType": "uint256",
          "name": "",
          "type": "uint256"
        }
      ],
      "stateMutability": "view",
      "type": "function"
    },
    {
      "inputs": [
        {
          "internalType": "address",
          "name": "tokenAddress",
          "type": "address"
        }
      ],
      "name": "getTokenInfo",
      "outputs": [
        {
          "components": [
            {
              "internalType": "address",
              "name": "tokenAddress",
              "type": "address"
            },
            {
              "internalType": "string",
              "name": "name",
              "type": "string"
            },
            {
              "internalType": "string",
              "name": "symbol",
              "type": "string"
            },
            {
              "internalType": "address",
              "name": "owner",
              "type": "address"
            },
            {
              "internalType": "uint256",
              "name": "initialSupply",
              "type": "uint256"
            },
            {
              "internalType": "uint256",
              "name": "maxSupply",
              "type": "uint256"
            },
            {
              "internalType": "bool",
              "name": "blacklistEnabled",
              "type": "bool"
            },
            {
              "internalType": "bool",
              "name": "timeLockEnabled",
              "type": "bool"
            },
            {
              "internalType": "uint256",
              "name": "createdAt",
              "type": "uint256"
            }
          ],
          "internalType": "struct TokenFactory_v1.TokenInfo",
          "name": "",
          "type": "tuple"
        }
      ],
      "stateMutability": "view",
      "type": "function"
    },
    {
      "inputs": [
        {
          "internalType": "address",
          "name": "user",
          "type": "address"
        }
      ],
      "name": "getTokensByUser",
      "outputs": [
        {
          "internalType": "address[]",
          "name": "",
          "type": "address[]"
        }
      ],
      "stateMutability": "view",
      "type": "function"
    },
    {
      "inputs": [],
      "name": "owner",
      "outputs": [
        {
          "internalType": "address",
          "name": "",
          "type": "address"
        }
      ],
      "stateMutability": "view",
      "type": "function"
    },
    {
      "inputs": [],
      "name": "renounceOwnership",
      "outputs": [],
      "stateMutability": "nonpayable",
      "type": "function"
    },
    {
      "inputs": [
        {
          "internalType": "uint256",
          "name": "newFee",
          "type": "uint256"
        }
      ],
      "name": "setDeploymentFee",
      "outputs": [],
      "stateMutability": "nonpayable",
      "type": "function"
    },
    {
      "inputs": [],
      "name": "tokenImplementation",
      "outputs": [
        {
          "internalType": "contract TokenTemplate_v1",
          "name": "",
          "type": "address"
        }
      ],
      "stateMutability": "view",
      "type": "function"
    },
    {
      "inputs": [
        {
          "internalType": "address",
          "name": "",
          "type": "address"
        }
      ],
      "name": "tokens",
      "outputs": [
        {
          "internalType": "address",
          "name": "tokenAddress",
          "type": "address"
        },
        {
          "internalType": "string",
          "name": "name",
          "type": "string"
        },
        {
          "internalType": "string",
          "name": "symbol",
          "type": "string"
        },
        {
          "internalType": "address",
          "name": "owner",
          "type": "address"
        },
        {
          "internalType": "uint256",
          "name": "initialSupply",
          "type": "uint256"
        },
        {
          "internalType": "uint256",
          "name": "maxSupply",
          "type": "uint256"
        },
        {
          "internalType": "bool",
          "name": "blacklistEnabled",
          "type": "bool"
        },
        {
          "internalType": "bool",
          "name": "timeLockEnabled",
          "type": "bool"
        },
        {
          "internalType": "uint256",
          "name": "createdAt",
          "type": "uint256"
        }
      ],
      "stateMutability": "view",
      "type": "function"
    },
    {
      "inputs": [],
      "name": "tokensCreated",
      "outputs": [
        {
          "internalType": "uint256",
          "name": "",
          "type": "uint256"
        }
      ],
      "stateMutability": "view",
      "type": "function"
    },
    {
      "inputs": [
        {
          "internalType": "address",
          "name": "newOwner",
          "type": "address"
        }
      ],
      "name": "transferOwnership",
      "outputs": [],
      "stateMutability": "nonpayable",
      "type": "function"
    },
    {
      "inputs": [
        {
          "internalType": "address",
          "name": "",
          "type": "address"
        },
        {
          "internalType": "uint256",
          "name": "",
          "type": "uint256"
        }
      ],
      "name": "userTokens",
      "outputs": [
        {
          "internalType": "address",
          "name": "",
          "type": "address"
        }
      ],
      "stateMutability": "view",
      "type": "function"
    },
    {
      "inputs": [],
      "name": "withdrawFees",
      "outputs": [],
      "stateMutability": "nonpayable",
      "type": "function"
    }
  ],
  "bytecode": "0x60a060405234801561001057600080fd5b50604051620031ae380380620031ae83398101604081905261003191610103565b338061005757604051631e4fbdf760e01b81526000600482015260240160405180910390fd5b610060816100a5565b50600180556002819055604051610076906100f5565b604051809103906000f080158015610092573d6000803e3d6000fd5b506001600160a01b03166080525061011c565b600080546001600160a01b038381166001600160a01b0319831681178455604051919092169283917f8be0079c531659141344cd1fd0a4f28419497f9722a3daafe3b4186f6b6457e09190a35050565b611891806200191d83390190565b60006020828403121561011557600080fd5b5051919050565b6080516117de6200013f60003960008181610151015261075b01526117de6000f3fe608060405260043610620000fb5760003560e01c80638da5cb5b1162000095578063f2cff57f1162000060578063f2cff57f14620002c9578063f2fde38b14620002e1578063f9f411d81462000306578063ffa1ad74146200032b57600080fd5b80638da5cb5b14620002305780639e4e73181462000250578063d002462b1462000268578063e4860339146200028d57600080fd5b8063476343ee11620000d6578063476343ee14620001b3578063715018a614620001cd5780637c9b544514620001e55780638037007514620001fc57600080fd5b80631f69565f14620001005780632f3a3d5d146200013d57806342750020146200018c575b600080fd5b3480156200010d57600080fd5b50620001256200011f36600462000d5f565b6200036d565b60405162000134919062000dd8565b60405180910390f35b3480156200014a57600080fd5b50620001737f000000000000000000000000000000000000000000000000000000000000000081565b6040516001600160a01b03909116815260200162000134565b3480156200019957600080fd5b50620001a460035481565b60405190815260200162000134565b348015620001c057600080fd5b50620001cb62000592565b005b348015620001da57600080fd5b50620001cb62000683565b620001cb620001f636600462000f5d565b6200069b565b3480156200020957600080fd5b50620002216200021b36600462000d5f565b62000984565b60405162000134919062000fff565b3480156200023d57600080fd5b506000546001600160a01b031662000173565b3480156200025d57600080fd5b50620001a4620009fc565b3480156200027557600080fd5b50620001cb620002873660046200104e565b62000a45565b3480156200029a57600080fd5b50620002b2620002ac36600462000d5f565b62000a8a565b604051620001349998979695949392919062001068565b348015620002d657600080fd5b50620001a460025481565b348015620002ee57600080fd5b50620001cb6200030036600462000d5f565b62000c0d565b3480156200031357600080fd5b506200017362000325366004620010dc565b62000c51565b3480156200033857600080fd5b506200035e604051806040016040528060058152602001640312e302e360dc1b81525081565b60405162000134919062001109565b620003d360405180610120016040528060006001600160a01b03168152602001606081526020016060815260200160006001600160a01b031681526020016000815260200160008152602001600015158152602001600015158152602001600081525090565b6001600160a01b0380831660009081526004602090815260409182902082516101208101909352805490931682526001830180549293929184019162000419906200111e565b80601f016020809104026020016040519081016040528092919081815260200182805462000447906200111e565b8015620004985780601f106200046c5761010080835404028352916020019162000498565b820191906000526020600020905b8154815290600101906020018083116200047a57829003601f168201915b50505050508152602001600282018054620004b3906200111e565b80601f0160208091040260200160405190810160405280929190818152602001828054620004e1906200111e565b8015620005325780601f10620005065761010080835404028352916020019162000532565b820191906000526020600020905b8154815290600101906020018083116200051457829003601f168201915b505050918352505060038201546001600160a01b031660208201526004820154604082015260058201546060820152600682015460ff8082161515608084015261010090910416151560a082015260079091015460c09091015292915050565b6200059c62000c8a565b4780620005e65760405162461bcd60e51b81526020600482015260136024820152724e6f206665657320746f20776974686472617760681b60448201526064015b60405180910390fd5b600080546040516001600160a01b039091169083908381818185875af1925050503d806000811462000635576040519150601f19603f3d011682016040523d82523d6000602084013e6200063a565b606091505b50509050806200067f5760405162461bcd60e51b815260206004820152600f60248201526e151c985b9cd9995c8819985a5b1959608a1b6044820152606401620005dd565b5050565b6200068d62000c8a565b62000699600062000cb9565b565b620006a562000d09565b600254341015620006f95760405162461bcd60e51b815260206004820152601b60248201527f496e73756666696369656e74206465706c6f796d656e742066656500000000006044820152606401620005dd565b600063d6a35ca060e01b878787873388886040516024016200072297969594939291906200115a565b604051602081830303815290604052906001600160e01b0319166020820180516001600160e01b038381831617835250505050905060007f000000000000000000000000000000000000000000000000000000000000000082604051620007899062000d34565b62000796929190620011bb565b604051809103906000f080158015620007b3573d6000803e3d6000fd5b5060408051610120810182526001600160a01b0383811680835260208084018e81528486018e9052336060860152608085018d905260a085018c90528a151560c086015289151560e08601524261010086015260009283526004909152939020825181546001600160a01b03191692169190911781559151929350839290919060018201906200084490826200123a565b50604082015160028201906200085b90826200123a565b506060820151600382810180546001600160a01b03199081166001600160a01b03948516179091556080850151600485015560a085015160058086019190915560c086015160068601805460e089015161ffff1990911692151561ff001916929092176101009215158302179055909501516007909401939093553360009081526020948552604081208054600181018255908252948120909401805490931691851691909117909155805491620009138362001307565b9190505550336001600160a01b0316816001600160a01b03167fb38ddbc4ef742c0e78e5952eaa808b0f7d0ee342b4d96309fe45e9cbb58e1e788b8b8b8b8b8b60405162000967969594939291906200132f565b60405180910390a35050506200097c60018055565b505050505050565b6001600160a01b038116600090815260056020908152604091829020805483518184028101840190945280845260609392830182828015620009f057602002820191906000526020600020905b81546001600160a01b03168152600190910190602001808311620009d1575b50505050509050919050565b604051806040016040528060058152602001640312e302e360dc1b81525060405160200162000a2c919062001380565b6040516020818303038152906040528051906020012081565b62000a4f62000c8a565b60028190556040518181527f40bd824d588484917db8fa4fc894c1e0feae5a75885290ba7b97521cebf82a809060200160405180910390a150565b600460205260009081526040902080546001820180546001600160a01b03909216929162000ab8906200111e565b80601f016020809104026020016040519081016040528092919081815260200182805462000ae6906200111e565b801562000b375780601f1062000b0b5761010080835404028352916020019162000b37565b820191906000526020600020905b81548152906001019060200180831162000b1957829003601f168201915b50505050509080600201805462000b4e906200111e565b80601f016020809104026020016040519081016040528092919081815260200182805462000b7c906200111e565b801562000bcd5780601f1062000ba15761010080835404028352916020019162000bcd565b820191906000526020600020905b81548152906001019060200180831162000baf57829003601f168201915b505050600384015460048501546005860154600687015460079097015495966001600160a01b0390931695919450925060ff808316926101009004169089565b62000c1762000c8a565b6001600160a01b03811662000c4357604051631e4fbdf760e01b815260006004820152602401620005dd565b62000c4e8162000cb9565b50565b6005602052816000526040600020818154811062000c6e57600080fd5b6000918252602090912001546001600160a01b03169150829050565b6000546001600160a01b03163314620006995760405163118cdaa760e01b8152336004820152602401620005dd565b600080546001600160a01b038381166001600160a01b0319831681178455604051919092169283917f8be0079c531659141344cd1fd0a4f28419497f9722a3daafe3b4186f6b6457e09190a35050565b60026001540362000d2d57604051633ee5aeb560e01b815260040160405180910390fd5b6002600155565b61040a806200139f83390190565b80356001600160a01b038116811462000d5a57600080fd5b919050565b60006020828403121562000d7257600080fd5b62000d7d8262000d42565b9392505050565b60005b8381101562000da157818101518382015260200162000d87565b50506000910152565b6000815180845262000dc481602086016020860162000d84565b601f01601f19169290920160200192915050565b6020815262000df36020820183516001600160a01b03169052565b6000602083015161012080604085015262000e1361014085018362000daa565b91506040850151601f1985840301606086015262000e32838262000daa565b925050606085015162000e5060808601826001600160a01b03169052565b50608085015160a085015260a085015160c085015260c085015162000e7960e086018215159052565b5060e085015161010062000e908187018315159052565b959095015193019290925250919050565b634e487b7160e01b600052604160045260246000fd5b600082601f83011262000ec957600080fd5b813567ffffffffffffffff8082111562000ee75762000ee762000ea1565b604051601f8301601f19908116603f0116810190828211818310171562000f125762000f1262000ea1565b8160405283815286602085880101111562000f2c57600080fd5b836020870160208301376000602085830101528094505050505092915050565b8035801515811462000d5a57600080fd5b60008060008060008060c0878903121562000f7757600080fd5b863567ffffffffffffffff8082111562000f9057600080fd5b62000f9e8a838b0162000eb7565b9750602089013591508082111562000fb557600080fd5b5062000fc489828a0162000eb7565b955050604087013593506060870135925062000fe36080880162000f4c565b915062000ff360a0880162000f4c565b90509295509295509295565b6020808252825182820181905260009190848201906040850190845b81811015620010425783516001600160a01b0316835292840192918401916001016200101b565b50909695505050505050565b6000602082840312156200106157600080fd5b5035919050565b6001600160a01b038a8116825261012060208301819052600091620010908483018d62000daa565b91508382036040850152620010a6828c62000daa565b991660608401525050608081019590955260a085019390935290151560c0840152151560e0830152610100909101529392505050565b60008060408385031215620010f057600080fd5b620010fb8362000d42565b946020939093013593505050565b60208152600062000d7d602083018462000daa565b600181811c908216806200113357607f821691505b6020821081036200115457634e487b7160e01b600052602260045260246000fd5b50919050565b60e0815260006200116f60e083018a62000daa565b828103602084015262001183818a62000daa565b6040840198909852505060608101949094526001600160a01b03929092166080840152151560a0830152151560c09091015292915050565b6001600160a01b0383168152604060208201819052600090620011e19083018462000daa565b949350505050565b601f82111562001235576000816000526020600020601f850160051c81016020861015620012145750805b601f850160051c820191505b818110156200097c5782815560010162001220565b505050565b815167ffffffffffffffff81111562001257576200125762000ea1565b6200126f816200126884546200111e565b84620011e9565b602080601f831160018114620012a757600084156200128e5750858301515b600019600386901b1c1916600185901b1785556200097c565b600085815260208120601f198616915b82811015620012d857888601518255948401946001909101908401620012b7565b5085821015620012f75787850151600019600388901b60f8161c191681555b5050505050600190811b01905550565b6000600182016200132857634e487b7160e01b600052601160045260246000fd5b5060010190565b60c0815260006200134460c083018962000daa565b828103602084015262001358818962000daa565b6040840197909752505060608101939093529015156080830152151560a09091015292915050565b600082516200139481846020870162000d84565b919091019291505056fe608060405260405161040a38038061040a83398101604081905261002291610268565b61002c8282610033565b5050610352565b61003c82610092565b6040516001600160a01b038316907fbc7cd75a20ee27fd9adebab32041f755214dbc6bffa90cc0225b39da2e5c2d3b90600090a280511561008657610081828261010e565b505050565b61008e610185565b5050565b806001600160a01b03163b6000036100cd57604051634c9c8ce360e01b81526001600160a01b03821660048201526024015b60405180910390fd5b7f360894a13ba1a3210667c828492db98dca3e2076cc3735a920a3ca505d382bbc80546001600160a01b0319166001600160a01b0392909216919091179055565b6060600080846001600160a01b03168460405161012b9190610336565b600060405180830381855af49150503d8060008114610166576040519150601f19603f3d011682016040523d82523d6000602084013e61016b565b606091505b50909250905061017c8583836101a6565b95945050505050565b34156101a45760405163b398979f60e01b815260040160405180910390fd5b565b6060826101bb576101b682610205565b6101fe565b81511580156101d257506001600160a01b0384163b155b156101fb57604051639996b31560e01b81526001600160a01b03851660048201526024016100c4565b50805b9392505050565b8051156102155780518082602001fd5b60405163d6bda27560e01b815260040160405180910390fd5b634e487b7160e01b600052604160045260246000fd5b60005b8381101561025f578181015183820152602001610247565b50506000910152565b6000806040838503121561027b57600080fd5b82516001600160a01b038116811461029257600080fd5b60208401519092506001600160401b03808211156102af57600080fd5b818501915085601f8301126102c357600080fd5b8151818111156102d5576102d561022e565b604051601f8201601f19908116603f011681019083821181831017156102fd576102fd61022e565b8160405282815288602084870101111561031657600080fd5b610327836020830160208801610244565b80955050505050509250929050565b60008251610348818460208701610244565b9190910192915050565b60aa806103606000396000f3fe6080604052600a600c565b005b60186014601a565b6051565b565b6000604c7f360894a13ba1a3210667c828492db98dca3e2076cc3735a920a3ca505d382bbc546001600160a01b031690565b905090565b3660008037600080366000845af43d6000803e808015606f573d6000f35b3d6000fdfea26469706673582212201d1e675cd71e57bb3f08113f3040612bee9b14a06a3515aeb6fc806b55a6323764736f6c63430008160033a2646970667358221220967b2cf8610db8e7ac2ec86ebd99a9b47d179dd1ef040aa4a09eb3a14b028c0d64736f6c63430008160033608060405234801561001057600080fd5b5061001961001e565b6100d0565b7ff0c57e16840df040f15088dc2f81fe391c3923bec73e23a9662efc9c229c6a00805468010000000000000000900460ff161561006e5760405163f92ee8a960e01b815260040160405180910390fd5b80546001600160401b03908116146100cd5780546001600160401b0319166001600160401b0390811782556040519081527fc7f505b2f371ae2175ee4913f4499e1f2633a7b5936321eed1cdaeb6115181d29060200160405180910390a15b50565b6117b2806100df6000396000f3fe608060405234801561001057600080fd5b50600436106101c45760003560e01c80638da5cb5b116100f9578063d5abeb0111610097578063ebba564411610071578063ebba5644146103e4578063f2fde38b146103f7578063fe575a871461040a578063ffa1ad741461041d57600080fd5b8063d5abeb01146103b6578063d6a35ca0146103be578063dd62ed3e146103d157600080fd5b8063a9059cbb116100d3578063a9059cbb1461035b578063aa31aee81461036e578063bffb691d14610397578063cba4cbd3146103a457600080fd5b80638da5cb5b1461031157806395d89b411461034b5780639e4e73181461035357600080fd5b806340c10f191161016657806370a082311161014057806370a08231146102b8578063715018a6146102ee5780637572a9db146102f65780638456cb591461030957600080fd5b806340c10f191461027a5780634a492d531461028d5780635c975abb146102a057600080fd5b806318160ddd116101a257806318160ddd1461021f57806323b872dd14610250578063313ce567146102635780633f4ba83a1461027257600080fd5b806303d29d28146101c957806306fdde03146101de578063095ea7b3146101fc575b600080fd5b6101dc6101d7366004611312565b610441565b005b6101e6610500565b6040516101f39190611369565b60405180910390f35b61020f61020a36600461139c565b6105c3565b60405190151581526020016101f3565b7f52c63247e1f47db19d5ce0460030c497f067ca4cebf71ba98eeadabe20bace02545b6040519081526020016101f3565b61020f61025e3660046113c6565b6105dd565b604051601281526020016101f3565b6101dc610601565b6101dc61028836600461139c565b610613565b6101dc61029b366004611402565b6106a2565b60008051602061175d8339815191525460ff1661020f565b6102426102c6366004611424565b6001600160a01b0316600090815260008051602061173d833981519152602052604090205490565b6101dc61071f565b6101dc610304366004611402565b610731565b6101dc61079f565b7f9016d09d72d40fdae2fd8ceac6b6234c7706214fd39c1cd1e609a0528c199300546040516001600160a01b0390911681526020016101f3565b6101e66107af565b6102426107ee565b61020f61036936600461139c565b610835565b61024261037c366004611424565b6001600160a01b031660009081526002602052604090205490565b60035461020f9060ff1681565b60035461020f90610100900460ff1681565b600054610242565b6101dc6103cc3660046114e2565b610843565b6102426103df36600461158b565b610a0f565b6101dc6103f236600461139c565b610a59565b6101dc610405366004611424565b610b54565b61020f610418366004611424565b610b92565b6101e6604051806040016040528060058152602001640312e302e360dc1b81525081565b610449610bc1565b60035460ff166104a05760405162461bcd60e51b815260206004820152601d60248201527f426c61636b6c6973742066656174757265206e6f7420656e61626c656400000060448201526064015b60405180910390fd5b6001600160a01b038216600081815260016020908152604091829020805460ff191685151590811790915591519182527f6a12b3df6cba4203bd7fd06b816789f87de8c594299aed5717ae070fac781bac91015b60405180910390a25050565b7f52c63247e1f47db19d5ce0460030c497f067ca4cebf71ba98eeadabe20bace03805460609160008051602061173d8339815191529161053f906115b5565b80601f016020809104026020016040519081016040528092919081815260200182805461056b906115b5565b80156105b85780601f1061058d576101008083540402835291602001916105b8565b820191906000526020600020905b81548152906001019060200180831161059b57829003601f168201915b505050505091505090565b6000336105d1818585610c1c565b60019150505b92915050565b6000336105eb858285610c2e565b6105f6858585610c95565b506001949350505050565b610609610bc1565b610611610cf4565b565b61061b610bc1565b600054816106477f52c63247e1f47db19d5ce0460030c497f067ca4cebf71ba98eeadabe20bace025490565b61065191906115ef565b11156106945760405162461bcd60e51b815260206004820152601260248201527145786365656473206d617820737570706c7960701b6044820152606401610497565b61069e8282610d4e565b5050565b6106aa610bc1565b600380548215156101000261ff00199091161790556040517f43a0148be74197659be43bacdac4e492c6e55291225e29fd4f098868ff304fc19061071490839060408082526008908201526774696d656c6f636b60c01b6060820152901515602082015260800190565b60405180910390a150565b610727610bc1565b6106116000610d84565b610739610bc1565b6003805482151560ff199091161790556040517f43a0148be74197659be43bacdac4e492c6e55291225e29fd4f098868ff304fc190610714908390604080825260099082015268189b1858dadb1a5cdd60ba1b6060820152901515602082015260800190565b6107a7610bc1565b610611610df5565b7f52c63247e1f47db19d5ce0460030c497f067ca4cebf71ba98eeadabe20bace04805460609160008051602061173d8339815191529161053f906115b5565b604051806040016040528060058152602001640312e302e360dc1b81525060405160200161081c9190611610565b6040516020818303038152906040528051906020012081565b6000336105d1818585610c95565b7ff0c57e16840df040f15088dc2f81fe391c3923bec73e23a9662efc9c229c6a008054600160401b810460ff16159067ffffffffffffffff166000811580156108895750825b905060008267ffffffffffffffff1660011480156108a65750303b155b9050811580156108b4575080155b156108d25760405163f92ee8a960e01b815260040160405180910390fd5b845467ffffffffffffffff1916600117855583156108fc57845460ff60401b1916600160401b1785555b6109068c8c610e3e565b61090e610e50565b61091788610e60565b8815806109245750898910155b6109825760405162461bcd60e51b815260206004820152602960248201527f4d617820737570706c79206d7573742062652030206f72203e3d20696e697469604482015268616c20737570706c7960b81b6064820152608401610497565b881561098e5788610992565b6000195b6000556003805461ffff191688151561ff00191617610100881515021790556109bb888b610d4e565b8315610a0157845460ff60401b19168555604051600181527fc7f505b2f371ae2175ee4913f4499e1f2633a7b5936321eed1cdaeb6115181d29060200160405180910390a15b505050505050505050505050565b6001600160a01b0391821660009081527f52c63247e1f47db19d5ce0460030c497f067ca4cebf71ba98eeadabe20bace016020908152604080832093909416825291909152205490565b610a61610bc1565b600354610100900460ff16610ab85760405162461bcd60e51b815260206004820152601d60248201527f54696d65206c6f636b2066656174757265206e6f7420656e61626c65640000006044820152606401610497565b428111610b075760405162461bcd60e51b815260206004820152601b60248201527f4c6f636b2074696d65206d75737420626520696e2066757475726500000000006044820152606401610497565b6001600160a01b03821660008181526002602052604090819020839055517fa9353e70f07f31e7f4e16464f45e189cbd22826780a5abe4da8303652a86960a906104f49084815260200190565b610b5c610bc1565b6001600160a01b038116610b8657604051631e4fbdf760e01b815260006004820152602401610497565b610b8f81610d84565b50565b60035460009060ff1680156105d75750506001600160a01b031660009081526001602052604090205460ff1690565b33610bf37f9016d09d72d40fdae2fd8ceac6b6234c7706214fd39c1cd1e609a0528c199300546001600160a01b031690565b6001600160a01b0316146106115760405163118cdaa760e01b8152336004820152602401610497565b610c298383836001610e71565b505050565b6000610c3a8484610a0f565b9050600019811015610c8f5781811015610c8057604051637dc7a0d960e11b81526001600160a01b03841660048201526024810182905260448101839052606401610497565b610c8f84848484036000610e71565b50505050565b6001600160a01b038316610cbf57604051634b637e8f60e11b815260006004820152602401610497565b6001600160a01b038216610ce95760405163ec442f0560e01b815260006004820152602401610497565b610c29838383610f59565b610cfc611076565b60008051602061175d833981519152805460ff191681557f5db9ee0a495bf2e6ff9c91a7834c1ba4fdd244a5e8aa4e537bd38aeae4b073aa335b6040516001600160a01b039091168152602001610714565b6001600160a01b038216610d785760405163ec442f0560e01b815260006004820152602401610497565b61069e60008383610f59565b7f9016d09d72d40fdae2fd8ceac6b6234c7706214fd39c1cd1e609a0528c19930080546001600160a01b031981166001600160a01b03848116918217845560405192169182907f8be0079c531659141344cd1fd0a4f28419497f9722a3daafe3b4186f6b6457e090600090a3505050565b610dfd6110a6565b60008051602061175d833981519152805460ff191660011781557f62e78cea01bee320cd4e420270b5ea74000d11b0c9f74754ebdbfc544b05a25833610d36565b610e466110d7565b61069e8282611120565b610e586110d7565b610611611171565b610e686110d7565b610b8f81611192565b60008051602061173d8339815191526001600160a01b038516610eaa5760405163e602df0560e01b815260006004820152602401610497565b6001600160a01b038416610ed457604051634a1406b160e11b815260006004820152602401610497565b6001600160a01b03808616600090815260018301602090815260408083209388168352929052208390558115610f5257836001600160a01b0316856001600160a01b03167f8c5be1e5ebec7d5bd14f71427d1e84f3dd0314c0f7b2291e5b200ac8c7c3b92585604051610f4991815260200190565b60405180910390a35b5050505050565b60035460ff1615610feb576001600160a01b03831660009081526001602052604090205460ff16158015610fa657506001600160a01b03821660009081526001602052604090205460ff16155b610feb5760405162461bcd60e51b81526020600482015260166024820152751059191c995cdcc81a5cc8189b1858dadb1a5cdd195960521b6044820152606401610497565b600354610100900460ff16801561100a57506001600160a01b03831615155b1561106b576001600160a01b03831660009081526002602052604090205442101561106b5760405162461bcd60e51b8152602060048201526011602482015270151bdad95b9cc8185c99481b1bd8dad959607a1b6044820152606401610497565b610c2983838361119a565b60008051602061175d8339815191525460ff1661061157604051638dfc202b60e01b815260040160405180910390fd5b60008051602061175d8339815191525460ff16156106115760405163d93c066560e01b815260040160405180910390fd5b7ff0c57e16840df040f15088dc2f81fe391c3923bec73e23a9662efc9c229c6a0054600160401b900460ff1661061157604051631afcd79f60e31b815260040160405180910390fd5b6111286110d7565b60008051602061173d8339815191527f52c63247e1f47db19d5ce0460030c497f067ca4cebf71ba98eeadabe20bace03611162848261167c565b5060048101610c8f838261167c565b6111796110d7565b60008051602061175d833981519152805460ff19169055565b610b5c6110d7565b6111a26110a6565b610c2983838360008051602061173d8339815191526001600160a01b0384166111e457818160020160008282546111d991906115ef565b909155506112569050565b6001600160a01b038416600090815260208290526040902054828110156112375760405163391434e360e21b81526001600160a01b03861660048201526024810182905260448101849052606401610497565b6001600160a01b03851660009081526020839052604090209083900390555b6001600160a01b038316611274576002810180548390039055611293565b6001600160a01b03831660009081526020829052604090208054830190555b826001600160a01b0316846001600160a01b03167fddf252ad1be2c89b69c2b068fc378daa952ba7f163c4a11628f55a4df523b3ef846040516112d891815260200190565b60405180910390a350505050565b80356001600160a01b03811681146112fd57600080fd5b919050565b803580151581146112fd57600080fd5b6000806040838503121561132557600080fd5b61132e836112e6565b915061133c60208401611302565b90509250929050565b60005b83811015611360578181015183820152602001611348565b50506000910152565b6020815260008251806020840152611388816040850160208701611345565b601f01601f19169190910160400192915050565b600080604083850312156113af57600080fd5b6113b8836112e6565b946020939093013593505050565b6000806000606084860312156113db57600080fd5b6113e4846112e6565b92506113f2602085016112e6565b9150604084013590509250925092565b60006020828403121561141457600080fd5b61141d82611302565b9392505050565b60006020828403121561143657600080fd5b61141d826112e6565b634e487b7160e01b600052604160045260246000fd5b600082601f83011261146657600080fd5b813567ffffffffffffffff808211156114815761148161143f565b604051601f8301601f19908116603f011681019082821181831017156114a9576114a961143f565b816040528381528660208588010111156114c257600080fd5b836020870160208301376000602085830101528094505050505092915050565b600080600080600080600060e0888a0312156114fd57600080fd5b873567ffffffffffffffff8082111561151557600080fd5b6115218b838c01611455565b985060208a013591508082111561153757600080fd5b506115448a828b01611455565b9650506040880135945060608801359350611561608089016112e6565b925061156f60a08901611302565b915061157d60c08901611302565b905092959891949750929550565b6000806040838503121561159e57600080fd5b6115a7836112e6565b915061133c602084016112e6565b600181811c908216806115c957607f821691505b6020821081036115e957634e487b7160e01b600052602260045260246000fd5b50919050565b808201808211156105d757634e487b7160e01b600052601160045260246000fd5b60008251611622818460208701611345565b9190910192915050565b601f821115610c29576000816000526020600020601f850160051c810160208610156116555750805b601f850160051c820191505b8181101561167457828155600101611661565b505050505050565b815167ffffffffffffffff8111156116965761169661143f565b6116aa816116a484546115b5565b8461162c565b602080601f8311600181146116df57600084156116c75750858301515b600019600386901b1c1916600185901b178555611674565b600085815260208120601f198616915b8281101561170e578886015182559484019460019091019084016116ef565b508582101561172c5787850151600019600388901b60f8161c191681555b5050505050600190811b0190555056fe52c63247e1f47db19d5ce0460030c497f067ca4cebf71ba98eeadabe20bace00cd5ed15c6e187e77e9aee88184c21f4f2182ab5827cb3b7e07fbedcd63f03300a2646970667358221220b6210d277422241902b944b0d0fdcbfca66883c1e5ab98f69d6c0023b6591e7664736f6c63430008160033",
  "linkReferences": {},
  "deployedLinkReferences": {}
}