{
  "_format": "hh-sol-artifact-1",
  "contractName": "TokenTemplate_v1",
  "sourceName": "contracts/TokenTemplate_v1.sol",
  "abi": [
    {
      "inputs": [],
      "stateMutability": "nonpayable",
      "type": "constructor"
    },
    {
      "inputs": [
        {
          "internalType": "address",
          "name": "spender",
          "type": "address"
        },
        {
          "internalType": "uint256",
          "name": "allowance",
          "type": "uint256"
        },
        {
          "internalType": "uint256",
          "name": "needed",
          "type": "uint256"
        }
      ],
      "name": "ERC20InsufficientAllowance",
      "type": "error"
    },
    {
      "inputs": [
        {
          "internalType": "address",
          "name": "sender",
          "type": "address"
        },
        {
          "internalType": "uint256",
          "name": "balance",
          "type": "uint256"
        },
        {
          "internalType": "uint256",
          "name": "needed",
          "type": "uint256"
        }
      ],
      "name": "ERC20InsufficientBalance",
      "type": "error"
    },
    {
      "inputs": [
        {
          "internalType": "address",
          "name": "approver",
          "type": "address"
        }
      ],
      "name": "ERC20InvalidApprover",
      "type": "error"
    },
    {
      "inputs": [
        {
          "internalType": "address",
          "name": "receiver",
          "type": "address"
        }
      ],
      "name": "ERC20InvalidReceiver",
      "type": "error"
    },
    {
      "inputs": [
        {
          "internalType": "address",
          "name": "sender",
          "type": "address"
        }
      ],
      "name": "ERC20InvalidSender",
      "type": "error"
    },
    {
      "inputs": [
        {
          "internalType": "address",
          "name": "spender",
          "type": "address"
        }
      ],
      "name": "ERC20InvalidSpender",
      "type": "error"
    },
    {
      "inputs": [],
      "name": "EnforcedPause",
      "type": "error"
    },
    {
      "inputs": [],
      "name": "ExpectedPause",
      "type": "error"
    },
    {
      "inputs": [],
      "name": "InvalidInitialization",
      "type": "error"
    },
    {
      "inputs": [],
      "name": "NotInitializing",
      "type": "error"
    },
    {
      "inputs": [
        {
          "internalType": "address",
          "name": "owner",
          "type": "address"
        }
      ],
      "name": "OwnableInvalidOwner",
      "type": "error"
    },
    {
      "inputs": [
        {
          "internalType": "address",
          "name": "account",
          "type": "address"
        }
      ],
      "name": "OwnableUnauthorizedAccount",
      "type": "error"
    },
    {
      "anonymous": false,
      "inputs": [
        {
          "indexed": true,
          "internalType": "address",
          "name": "owner",
          "type": "address"
        },
        {
          "indexed": true,
          "internalType": "address",
          "name": "spender",
          "type": "address"
        },
        {
          "indexed": false,
          "internalType": "uint256",
          "name": "value",
          "type": "uint256"
        }
      ],
      "name": "Approval",
      "type": "event"
    },
    {
      "anonymous": false,
      "inputs": [
        {
          "indexed": true,
          "internalType": "address",
          "name": "account",
          "type": "address"
        },
        {
          "indexed": false,
          "internalType": "bool",
          "name": "status",
          "type": "bool"
        }
      ],
      "name": "BlacklistUpdated",
      "type": "event"
    },
    {
      "anonymous": false,
      "inputs": [
        {
          "indexed": false,
          "internalType": "string",
          "name": "feature",
          "type": "string"
        },
        {
          "indexed": false,
          "internalType": "bool",
          "name": "status",
          "type": "bool"
        }
      ],
      "name": "FeatureToggled",
      "type": "event"
    },
    {
      "anonymous": false,
      "inputs": [
        {
          "indexed": false,
          "internalType": "uint64",
          "name": "version",
          "type": "uint64"
        }
      ],
      "name": "Initialized",
      "type": "event"
    },
    {
      "anonymous": false,
      "inputs": [
        {
          "indexed": true,
          "internalType": "address",
          "name": "previousOwner",
          "type": "address"
        },
        {
          "indexed": true,
          "internalType": "address",
          "name": "newOwner",
          "type": "address"
        }
      ],
      "name": "OwnershipTransferred",
      "type": "event"
    },
    {
      "anonymous": false,
      "inputs": [
        {
          "indexed": false,
          "internalType": "address",
          "name": "account",
          "type": "address"
        }
      ],
      "name": "Paused",
      "type": "event"
    },
    {
      "anonymous": false,
      "inputs": [
        {
          "indexed": true,
          "internalType": "address",
          "name": "account",
          "type": "address"
        },
        {
          "indexed": false,
          "internalType": "uint256",
          "name": "timestamp",
          "type": "uint256"
        }
      ],
      "name": "TimeLockSet",
      "type": "event"
    },
    {
      "anonymous": false,
      "inputs": [
        {
          "indexed": true,
          "internalType": "address",
          "name": "from",
          "type": "address"
        },
        {
          "indexed": true,
          "internalType": "address",
          "name": "to",
          "type": "address"
        },
        {
          "indexed": false,
          "internalType": "uint256",
          "name": "value",
          "type": "uint256"
        }
      ],
      "name": "Transfer",
      "type": "event"
    },
    {
      "anonymous": false,
      "inputs": [
        {
          "indexed": false,
          "internalType": "address",
          "name": "account",
          "type": "address"
        }
      ],
      "name": "Unpaused",
      "type": "event"
    },
    {
      "inputs": [],
      "name": "VERSION",
      "outputs": [
        {
          "internalType": "string",
          "name": "",
          "type": "string"
        }
      ],
      "stateMutability": "view",
      "type": "function"
    },
    {
      "inputs": [],
      "name": "VERSION_HASH",
      "outputs": [
        {
          "internalType": "bytes32",
          "name": "",
          "type": "bytes32"
        }
      ],
      "stateMutability": "view",
      "type": "function"
    },
    {
      "inputs": [
        {
          "internalType": "address",
          "name": "owner",
          "type": "address"
        },
        {
          "internalType": "address",
          "name": "spender",
          "type": "address"
        }
      ],
      "name": "allowance",
      "outputs": [
        {
          "internalType": "uint256",
          "name": "",
          "type": "uint256"
        }
      ],
      "stateMutability": "view",
      "type": "function"
    },
    {
      "inputs": [
        {
          "internalType": "address",
          "name": "spender",
          "type": "address"
        },
        {
          "internalType": "uint256",
          "name": "value",
          "type": "uint256"
        }
      ],
      "name": "approve",
      "outputs": [
        {
          "internalType": "bool",
          "name": "",
          "type": "bool"
        }
      ],
      "stateMutability": "nonpayable",
      "type": "function"
    },
    {
      "inputs": [
        {
          "internalType": "address",
          "name": "account",
          "type": "address"
        }
      ],
      "name": "balanceOf",
      "outputs": [
        {
          "internalType": "uint256",
          "name": "",
          "type": "uint256"
        }
      ],
      "stateMutability": "view",
      "type": "function"
    },
    {
      "inputs": [],
      "name": "blacklistEnabled",
      "outputs": [
        {
          "internalType": "bool",
          "name": "",
          "type": "bool"
        }
      ],
      "stateMutability": "view",
      "type": "function"
    },
    {
      "inputs": [],
      "name": "decimals",
      "outputs": [
        {
          "internalType": "uint8",
          "name": "",
          "type": "uint8"
        }
      ],
      "stateMutability": "view",
      "type": "function"
    },
    {
      "inputs": [
        {
          "internalType": "address",
          "name": "account",
          "type": "address"
        }
      ],
      "name": "getLockTime",
      "outputs": [
        {
          "internalType": "uint256",
          "name": "",
          "type": "uint256"
        }
      ],
      "stateMutability": "view",
      "type": "function"
    },
    {
      "inputs": [
        {
          "internalType": "string",
          "name": "name",
          "type": "string"
        },
        {
          "internalType": "string",
          "name": "symbol",
          "type": "string"
        },
        {
          "internalType": "uint256",
          "name": "initialSupply",
          "type": "uint256"
        },
        {
          "internalType": "uint256",
          "name": "maxSupply_",
          "type": "uint256"
        },
        {
          "internalType": "address",
          "name": "owner",
          "type": "address"
        },
        {
          "internalType": "bool",
          "name": "enableBlacklist",
          "type": "bool"
        },
        {
          "internalType": "bool",
          "name": "enableTimeLock",
          "type": "bool"
        }
      ],
      "name": "initialize",
      "outputs": [],
      "stateMutability": "nonpayable",
      "type": "function"
    },
    {
      "inputs": [
        {
          "internalType": "address",
          "name": "account",
          "type": "address"
        }
      ],
      "name": "isBlacklisted",
      "outputs": [
        {
          "internalType": "bool",
          "name": "",
          "type": "bool"
        }
      ],
      "stateMutability": "view",
      "type": "function"
    },
    {
      "inputs": [],
      "name": "maxSupply",
      "outputs": [
        {
          "internalType": "uint256",
          "name": "",
          "type": "uint256"
        }
      ],
      "stateMutability": "view",
      "type": "function"
    },
    {
      "inputs": [
        {
          "internalType": "address",
          "name": "to",
          "type": "address"
        },
        {
          "internalType": "uint256",
          "name": "amount",
          "type": "uint256"
        }
      ],
      "name": "mint",
      "outputs": [],
      "stateMutability": "nonpayable",
      "type": "function"
    },
    {
      "inputs": [],
      "name": "name",
      "outputs": [
        {
          "internalType": "string",
          "name": "",
          "type": "string"
        }
      ],
      "stateMutability": "view",
      "type": "function"
    },
    {
      "inputs": [],
      "name": "owner",
      "outputs": [
        {
          "internalType": "address",
          "name": "",
          "type": "address"
        }
      ],
      "stateMutability": "view",
      "type": "function"
    },
    {
      "inputs": [],
      "name": "pause",
      "outputs": [],
      "stateMutability": "nonpayable",
      "type": "function"
    },
    {
      "inputs": [],
      "name": "paused",
      "outputs": [
        {
          "internalType": "bool",
          "name": "",
          "type": "bool"
        }
      ],
      "stateMutability": "view",
      "type": "function"
    },
    {
      "inputs": [],
      "name": "renounceOwnership",
      "outputs": [],
      "stateMutability": "nonpayable",
      "type": "function"
    },
    {
      "inputs": [
        {
          "internalType": "address",
          "name": "account",
          "type": "address"
        },
        {
          "internalType": "bool",
          "name": "status",
          "type": "bool"
        }
      ],
      "name": "setBlacklistStatus",
      "outputs": [],
      "stateMutability": "nonpayable",
      "type": "function"
    },
    {
      "inputs": [
        {
          "internalType": "address",
          "name": "account",
          "type": "address"
        },
        {
          "internalType": "uint256",
          "name": "timestamp",
          "type": "uint256"
        }
      ],
      "name": "setLockTime",
      "outputs": [],
      "stateMutability": "nonpayable",
      "type": "function"
    },
    {
      "inputs": [],
      "name": "symbol",
      "outputs": [
        {
          "internalType": "string",
          "name": "",
          "type": "string"
        }
      ],
      "stateMutability": "view",
      "type": "function"
    },
    {
      "inputs": [],
      "name": "timeLockEnabled",
      "outputs": [
        {
          "internalType": "bool",
          "name": "",
          "type": "bool"
        }
      ],
      "stateMutability": "view",
      "type": "function"
    },
    {
      "inputs": [
        {
          "internalType": "bool",
          "name": "status",
          "type": "bool"
        }
      ],
      "name": "toggleBlacklist",
      "outputs": [],
      "stateMutability": "nonpayable",
      "type": "function"
    },
    {
      "inputs": [
        {
          "internalType": "bool",
          "name": "status",
          "type": "bool"
        }
      ],
      "name": "toggleTimeLock",
      "outputs": [],
      "stateMutability": "nonpayable",
      "type": "function"
    },
    {
      "inputs": [],
      "name": "totalSupply",
      "outputs": [
        {
          "internalType": "uint256",
          "name": "",
          "type": "uint256"
        }
      ],
      "stateMutability": "view",
      "type": "function"
    },
    {
      "inputs": [
        {
          "internalType": "address",
          "name": "to",
          "type": "address"
        },
        {
          "internalType": "uint256",
          "name": "value",
          "type": "uint256"
        }
      ],
      "name": "transfer",
      "outputs": [
        {
          "internalType": "bool",
          "name": "",
          "type": "bool"
        }
      ],
      "stateMutability": "nonpayable",
      "type": "function"
    },
    {
      "inputs": [
        {
          "internalType": "address",
          "name": "from",
          "type": "address"
        },
        {
          "internalType": "address",
          "name": "to",
          "type": "address"
        },
        {
          "internalType": "uint256",
          "name": "value",
          "type": "uint256"
        }
      ],
      "name": "transferFrom",
      "outputs": [
        {
          "internalType": "bool",
          "name": "",
          "type": "bool"
        }
      ],
      "stateMutability": "nonpayable",
      "type": "function"
    },
    {
      "inputs": [
        {
          "internalType": "address",
          "name": "newOwner",
          "type": "address"
        }
      ],
      "name": "transferOwnership",
      "outputs": [],
      "stateMutability": "nonpayable",
      "type": "function"
    },
    {
      "inputs": [],
      "name": "unpause",
      "outputs": [],
      "stateMutability": "nonpayable",
      "type": "function"
    }
  ],
  "bytecode": "0x608080604052346100b8577ff0c57e16840df040f15088dc2f81fe391c3923bec73e23a9662efc9c229c6a009081549060ff8260401c166100a957506001600160401b036002600160401b031982821601610064575b6040516119da90816100be8239f35b6001600160401b031990911681179091556040519081527fc7f505b2f371ae2175ee4913f4499e1f2633a7b5936321eed1cdaeb6115181d290602090a1388080610055565b63f92ee8a960e01b8152600490fd5b600080fdfe608060405260048036101561001357600080fd5b60003560e01c90816303d29d281461116257816306fdde03146110be578163095ea7b31461102457816318160ddd14610fe757816323b872dd14610efb578163313ce56714610edf5781633f4ba83a14610e6857816340c10f1914610dcd5781634a492d5314610d4a5781635c975abb14610d1a57816370a0823114610cc1578163715018a614610c575781637572a9db14610bd95781638456cb5914610b725781638da5cb5b14610b3c57816395d89b4114610a6a5781639e4e731814610a1b578163a9059cbb146109ea578163aa31aee8146109b0578163bffb691d1461098d578163cba4cbd314610967578163d5abeb0114610949578163d6a35ca014610354578163dd62ed3e1461030b578163ebba56441461020257508063f2fde38b146101d7578063fe575a87146101845763ffa1ad741461015357600080fd5b3461017f57600036600319011261017f5761017b61016f6112f3565b6040519182918261128f565b0390f35b600080fd5b3461017f57602036600319011261017f5761019d611231565b60ff60035416806101b6575b6020906040519015158152f35b5060018060a01b03166000526001602052602060ff604060002054166101a9565b3461017f57602036600319011261017f576102006101f3611231565b6101fb611486565b611412565b005b3461017f57604036600319011261017f5761021b611231565b60243591610227611486565b60ff60035460081c16156102c75742831115610283575060207fa9353e70f07f31e7f4e16464f45e189cbd22826780a5abe4da8303652a86960a9160018060a01b031692836000526002825280604060002055604051908152a2005b60649060206040519162461bcd60e51b8352820152601b60248201527f4c6f636b2074696d65206d75737420626520696e2066757475726500000000006044820152fd5b60649060206040519162461bcd60e51b8352820152601d60248201527f54696d65206c6f636b2066656174757265206e6f7420656e61626c65640000006044820152fd5b3461017f57604036600319011261017f57610324611231565b61033561032f611247565b9161137c565b9060018060a01b03166000526020526020604060002054604051908152f35b3461017f5760e036600319011261017f57803567ffffffffffffffff811161017f576103839036908301611325565b60243567ffffffffffffffff811161017f576103a29036908401611325565b6084356001600160a01b038116900361017f5760a43590811515820361017f5760c43590811515820361017f57600080516020611985833981519152549367ffffffffffffffff851680159081610939575b600114908161092f575b159081610926575b5061091557600167ffffffffffffffff198616176000805160206119858339815191525560ff8560401c16156108e8575b61043f611895565b610447611895565b80519067ffffffffffffffff82116108d35781906104736000805160206118e5833981519152546113b5565b601f8111610852575b50602090601f83116001146107c0576000926107b5575b50508160011b916000199060031b1c1916176000805160206118e5833981519152555b80519067ffffffffffffffff82116107a05781906104e2600080516020611905833981519152546113b5565b601f811161071c575b50602090601f831160011461068e57600092610683575b50508160011b916000199060031b1c191617600080516020611905833981519152555b61052d611895565b610535611895565b600080516020611945833981519152805460ff19169055610554611895565b61055c611895565b610567608435611412565b60643515808015610675575b1561061f5760ff945015610617576000195b6000558361ff0060035492151560081b16921515169061ffff191617176003556105b36044356084356116aa565b60401c16156105be57005b68ff0000000000000000196000805160206119858339815191525416600080516020611985833981519152557fc7f505b2f371ae2175ee4913f4499e1f2633a7b5936321eed1cdaeb6115181d2602060405160018152a1005b606435610585565b60405162461bcd60e51b8152602081870152602960248201527f4d617820737570706c79206d7573742062652030206f72203e3d20696e697469604482015268616c20737570706c7960b81b6064820152608490fd5b506044356064351015610573565b015190508680610502565b60008051602061190583398151915260009081526000805160206119658339815191529350601f198516905b81811061070457509084600195949392106106eb575b505050811b0160008051602061190583398151915255610525565b015160001960f88460031b161c191690558680806106d0565b929360206001819287860151815501950193016106ba565b909150600080516020611905833981519152600052601f830160051c60008051602061196583398151915201906020841061078a575b90601f8493920160051c60008051602061196583398151915201905b81811061077b57506104eb565b6000815584935060010161076e565b6000805160206119658339815191529150610752565b604186634e487b7160e01b6000525260246000fd5b015190508780610493565b92506000805160206118e58339815191526000526000805160206118c5833981519152906000935b601f1984168510610837576001945083601f1981161061081e575b505050811b016000805160206118e5833981519152556104b6565b015160001960f88460031b161c19169055878080610803565b818101518355602094850194600190930192909101906107e8565b9091506000805160206118e5833981519152600052601f830160051c6000805160206118c583398151915201602084106108be575b908392915b601f820160051c6000805160206118c58339815191520181106108af575061047c565b6000815584935060010161088c565b506000805160206118c5833981519152610887565b604187634e487b7160e01b6000525260246000fd5b68ffffffffffffffffff198516680100000000000000011760008051602061198583398151915255610437565b60405163f92ee8a960e01b81528690fd5b90501587610406565b303b1591506103fe565b604087901c60ff161591506103f4565b3461017f57600036600319011261017f576020600054604051908152f35b3461017f57600036600319011261017f57602060ff60035460081c166040519015158152f35b3461017f57600036600319011261017f57602060ff600354166040519015158152f35b3461017f57602036600319011261017f576001600160a01b036109d1611231565b1660005260026020526020604060002054604051908152f35b3461017f57604036600319011261017f57610a10610a06611231565b60243590336114bf565b602060405160018152f35b3461017f57600036600319011261017f576020610a366112f3565b604051610a5f838281610a52818301968781519384920161126c565b81010380845201826112bb565b519020604051908152f35b3461017f57600036600319011261017f576040516000600080516020611905833981519152805490610a9b826113b5565b80855291602091600191828116908115610b0f5750600114610ac8575b61017b8661016f818803826112bb565b600090815293506000805160206119658339815191525b838510610afc5750505050810160200161016f8261017b85610ab8565b8054868601840152938201938101610adf565b905086955061017b9693506020925061016f94915060ff191682840152151560051b820101929385610ab8565b3461017f57600036600319011261017f57600080516020611925833981519152546040516001600160a01b039091168152602090f35b3461017f57600036600319011261017f57610b8b611486565b610b9361186a565b600080516020611945833981519152600160ff198254161790557f62e78cea01bee320cd4e420270b5ea74000d11b0c9f74754ebdbfc544b05a2586020604051338152a1005b3461017f57602036600319011261017f577f43a0148be74197659be43bacdac4e492c6e55291225e29fd4f098868ff304fc16080610c1561125d565b610c1d611486565b151560ff196003541660ff82161760035560405190604082526009604083015268189b1858dadb1a5cdd60ba1b60608301526020820152a1005b3461017f57600036600319011261017f57610c70611486565b60008051602061192583398151915280546001600160a01b031981169091556000906001600160a01b03167f8be0079c531659141344cd1fd0a4f28419497f9722a3daafe3b4186f6b6457e08280a3005b3461017f57602036600319011261017f576001600160a01b03610ce2611231565b166000527f52c63247e1f47db19d5ce0460030c497f067ca4cebf71ba98eeadabe20bace006020526020604060002054604051908152f35b3461017f57600036600319011261017f57602060ff60008051602061194583398151915254166040519015158152f35b3461017f57602036600319011261017f577f43a0148be74197659be43bacdac4e492c6e55291225e29fd4f098868ff304fc16080610d8661125d565b610d8e611486565b151560035461ff008260081b169061ff001916176003556040519060408252600860408301526774696d656c6f636b60c01b60608301526020820152a1005b3461017f57604036600319011261017f57610de6611231565b60243590610df2611486565b610e1d827f52c63247e1f47db19d5ce0460030c497f067ca4cebf71ba98eeadabe20bace02546113ef565b60005410610e2f5761020092506116aa565b60405162461bcd60e51b8152602081850152601260248201527145786365656473206d617820737570706c7960701b6044820152606490fd5b3461017f57600036600319011261017f57610e81611486565b6000805160206119458339815191529081549060ff821615610ed0575060ff191690557f5db9ee0a495bf2e6ff9c91a7834c1ba4fdd244a5e8aa4e537bd38aeae4b073aa6020604051338152a1005b604051638dfc202b60e01b8152fd5b3461017f57600036600319011261017f57602060405160128152f35b3461017f57606036600319011261017f57610f14611231565b610f1c611247565b60443591610f298161137c565b33600052602052604060002054936000198503610f4c575b50610a1093506114bf565b838510610fbb576001600160a01b03821615610fa3573315610f8b575082610a1094610f778361137c565b336000526020520360406000205584610f41565b602490600060405191634a1406b160e11b8352820152fd5b60249060006040519163e602df0560e01b8352820152fd5b60408051637dc7a0d960e11b815233928101928352602083018790529082018590529081906060010390fd5b3461017f57600036600319011261017f5760207f52c63247e1f47db19d5ce0460030c497f067ca4cebf71ba98eeadabe20bace0254604051908152f35b3461017f57604036600319011261017f5761103d611231565b6024359033156110a6576001600160a01b0316918215610f8b57506110613361137c565b82600052602052806040600020556040519081527f8c5be1e5ebec7d5bd14f71427d1e84f3dd0314c0f7b2291e5b200ac8c7c3b92560203392a3602060405160018152f35b60405163e602df0560e01b8152600081850152602490fd5b3461017f57600036600319011261017f5760405160006000805160206118e58339815191528054906110ef826113b5565b80855291602091600191828116908115610b0f575060011461111b5761017b8661016f818803826112bb565b600090815293506000805160206118c58339815191525b83851061114f5750505050810160200161016f8261017b85610ab8565b8054868601840152938201938101611132565b3461017f57604036600319011261017f5761117b611231565b6024359182151580930361017f57611191611486565b60ff60035416156111ed575060207f6a12b3df6cba4203bd7fd06b816789f87de8c594299aed5717ae070fac781bac9160018060a01b0316928360005260018252604060002060ff1981541660ff8316179055604051908152a2005b60649060206040519162461bcd60e51b8352820152601d60248201527f426c61636b6c6973742066656174757265206e6f7420656e61626c65640000006044820152fd5b600435906001600160a01b038216820361017f57565b602435906001600160a01b038216820361017f57565b60043590811515820361017f57565b60005b83811061127f5750506000910152565b818101518382015260200161126f565b604091602082526112af815180928160208601526020868601910161126c565b601f01601f1916010190565b90601f8019910116810190811067ffffffffffffffff8211176112dd57604052565b634e487b7160e01b600052604160045260246000fd5b604051906040820182811067ffffffffffffffff8211176112dd5760405260058252640312e302e360dc1b6020830152565b81601f8201121561017f5780359067ffffffffffffffff82116112dd576040519261135a601f8401601f1916602001856112bb565b8284526020838301011161017f57816000926020809301838601378301015290565b6001600160a01b031660009081527f52c63247e1f47db19d5ce0460030c497f067ca4cebf71ba98eeadabe20bace016020526040902090565b90600182811c921680156113e5575b60208310146113cf57565b634e487b7160e01b600052602260045260246000fd5b91607f16916113c4565b919082018092116113fc57565b634e487b7160e01b600052601160045260246000fd5b6001600160a01b0390811690811561146d5760008051602061192583398151915280546001600160a01b031981168417909155167f8be0079c531659141344cd1fd0a4f28419497f9722a3daafe3b4186f6b6457e0600080a3565b604051631e4fbdf760e01b815260006004820152602490fd5b600080516020611925833981519152546001600160a01b031633036114a757565b60405163118cdaa760e01b8152336004820152602490fd5b916001600160a01b0380841692831561169157169283156116785760035460ff8116611609575b60081c60ff1680611601575b6115b2575b6114ff61186a565b6000908382527f52c63247e1f47db19d5ce0460030c497f067ca4cebf71ba98eeadabe20bace008060205260408320549184831061157f575082847fddf252ad1be2c89b69c2b068fc378daa952ba7f163c4a11628f55a4df523b3ef959360409388602097528652038282205586815220818154019055604051908152a3565b60405163391434e360e21b81526001600160a01b0391909116600482015260248101929092525060448101839052606490fd5b8260005260026020526040600020544210156114f75760405162461bcd60e51b8152602060048201526011602482015270151bdad95b9cc8185c99481b1bd8dad959607a1b6044820152606490fd5b5060016114f2565b83600052600160205260ff604060002054161580611664575b6114e65760405162461bcd60e51b81526020600482015260166024820152751059191c995cdcc81a5cc8189b1858dadb1a5cdd195960521b6044820152606490fd5b508460005260ff6040600020541615611622565b60405163ec442f0560e01b815260006004820152602490fd5b604051634b637e8f60e11b815260006004820152602490fd5b6001600160a01b03169081156116785760035460ff81166117df575b60081c60ff16806117d7575b61176c575b7fddf252ad1be2c89b69c2b068fc378daa952ba7f163c4a11628f55a4df523b3ef602060009261170561186a565b7f52c63247e1f47db19d5ce0460030c497f067ca4cebf71ba98eeadabe20bace026117318282546113ef565b90558484527f52c63247e1f47db19d5ce0460030c497f067ca4cebf71ba98eeadabe20bace00825260408420818154019055604051908152a3565b6000805260026020527fac33ff75c19e70fe83507db0d683fd3465c996598dc972688b7ace676c89077b544210156116d75760405162461bcd60e51b8152602060048201526011602482015270151bdad95b9cc8185c99481b1bd8dad959607a1b6044820152606490fd5b5060006116d2565b6000805260016020527fa6eef7e35abe7026729641147f7915573c7e97b47efa546f5f6e3230263bcb495460ff161580611856575b6116c65760405162461bcd60e51b81526020600482015260166024820152751059191c995cdcc81a5cc8189b1858dadb1a5cdd195960521b6044820152606490fd5b508260005260ff6040600020541615611814565b60ff600080516020611945833981519152541661188357565b60405163d93c066560e01b8152600490fd5b60ff6000805160206119858339815191525460401c16156118b257565b604051631afcd79f60e31b8152600490fdfe2ae08a8e29253f69ac5d979a101956ab8f8d9d7ded63fa7a83b16fc47648eab052c63247e1f47db19d5ce0460030c497f067ca4cebf71ba98eeadabe20bace0352c63247e1f47db19d5ce0460030c497f067ca4cebf71ba98eeadabe20bace049016d09d72d40fdae2fd8ceac6b6234c7706214fd39c1cd1e609a0528c199300cd5ed15c6e187e77e9aee88184c21f4f2182ab5827cb3b7e07fbedcd63f0330046a2803e59a4de4e7a4c574b1243f25977ac4c77d5a1a4a609b5394cebb4a2aaf0c57e16840df040f15088dc2f81fe391c3923bec73e23a9662efc9c229c6a00a264697066735822122056d4ef87f26743d84673cb68c8190ec2846409e71d7a5cd272fe2094fc8fb77b64736f6c63430008160033",
  "linkReferences": {},
  "deployedLinkReferences": {}
}