{
  "_format": "hh-sol-artifact-1",
  "contractName": "TokenTemplate_v2_clone",
  "sourceName": "src/contracts/TokenTemplate_v2_clone.sol",
  "abi": [
    {
      "inputs": [],
      "stateMutability": "nonpayable",
      "type": "constructor"
    },
    {
      "anonymous": false,
      "inputs": [
        {
          "indexed": false,
          "internalType": "address",
          "name": "previousAdmin",
          "type": "address"
        },
        {
          "indexed": false,
          "internalType": "address",
          "name": "newAdmin",
          "type": "address"
        }
      ],
      "name": "AdminChanged",
      "type": "event"
    },
    {
      "anonymous": false,
      "inputs": [
        {
          "indexed": true,
          "internalType": "address",
          "name": "owner",
          "type": "address"
        },
        {
          "indexed": true,
          "internalType": "address",
          "name": "spender",
          "type": "address"
        },
        {
          "indexed": false,
          "internalType": "uint256",
          "name": "value",
          "type": "uint256"
        }
      ],
      "name": "Approval",
      "type": "event"
    },
    {
      "anonymous": false,
      "inputs": [
        {
          "indexed": true,
          "internalType": "address",
          "name": "beacon",
          "type": "address"
        }
      ],
      "name": "BeaconUpgraded",
      "type": "event"
    },
    {
      "anonymous": false,
      "inputs": [
        {
          "indexed": false,
          "internalType": "address[]",
          "name": "addresses",
          "type": "address[]"
        },
        {
          "indexed": false,
          "internalType": "bool",
          "name": "status",
          "type": "bool"
        }
      ],
      "name": "BlacklistUpdated",
      "type": "event"
    },
    {
      "anonymous": false,
      "inputs": [
        {
          "indexed": false,
          "internalType": "address",
          "name": "contributor",
          "type": "address"
        },
        {
          "indexed": false,
          "internalType": "uint256",
          "name": "amount",
          "type": "uint256"
        }
      ],
      "name": "ContributionReceived",
      "type": "event"
    },
    {
      "anonymous": false,
      "inputs": [
        {
          "indexed": false,
          "internalType": "address",
          "name": "contributor",
          "type": "address"
        },
        {
          "indexed": false,
          "internalType": "uint256",
          "name": "amount",
          "type": "uint256"
        }
      ],
      "name": "ContributionRefunded",
      "type": "event"
    },
    {
      "anonymous": false,
      "inputs": [
        {
          "indexed": false,
          "internalType": "uint8",
          "name": "version",
          "type": "uint8"
        }
      ],
      "name": "Initialized",
      "type": "event"
    },
    {
      "anonymous": false,
      "inputs": [
        {
          "indexed": true,
          "internalType": "address",
          "name": "previousOwner",
          "type": "address"
        },
        {
          "indexed": true,
          "internalType": "address",
          "name": "newOwner",
          "type": "address"
        }
      ],
      "name": "OwnershipTransferred",
      "type": "event"
    },
    {
      "anonymous": false,
      "inputs": [
        {
          "indexed": false,
          "internalType": "address",
          "name": "account",
          "type": "address"
        }
      ],
      "name": "Paused",
      "type": "event"
    },
    {
      "anonymous": false,
      "inputs": [
        {
          "indexed": false,
          "internalType": "uint256",
          "name": "amount",
          "type": "uint256"
        }
      ],
      "name": "PlatformFeeClaimed",
      "type": "event"
    },
    {
      "anonymous": false,
      "inputs": [
        {
          "indexed": false,
          "internalType": "uint256",
          "name": "totalContributed",
          "type": "uint256"
        },
        {
          "indexed": false,
          "internalType": "uint256",
          "name": "tokensDistributed",
          "type": "uint256"
        }
      ],
      "name": "PresaleFinalized",
      "type": "event"
    },
    {
      "anonymous": false,
      "inputs": [
        {
          "indexed": false,
          "internalType": "uint256",
          "name": "softCap",
          "type": "uint256"
        },
        {
          "indexed": false,
          "internalType": "uint256",
          "name": "hardCap",
          "type": "uint256"
        },
        {
          "indexed": false,
          "internalType": "uint256",
          "name": "startTime",
          "type": "uint256"
        },
        {
          "indexed": false,
          "internalType": "uint256",
          "name": "endTime",
          "type": "uint256"
        },
        {
          "indexed": false,
          "internalType": "uint256",
          "name": "presaleRate",
          "type": "uint256"
        }
      ],
      "name": "PresaleStarted",
      "type": "event"
    },
    {
      "anonymous": false,
      "inputs": [
        {
          "indexed": false,
          "internalType": "address",
          "name": "account",
          "type": "address"
        },
        {
          "indexed": false,
          "internalType": "uint256",
          "name": "unlockTime",
          "type": "uint256"
        }
      ],
      "name": "TimeLockSet",
      "type": "event"
    },
    {
      "anonymous": false,
      "inputs": [
        {
          "indexed": true,
          "internalType": "address",
          "name": "from",
          "type": "address"
        },
        {
          "indexed": true,
          "internalType": "address",
          "name": "to",
          "type": "address"
        },
        {
          "indexed": false,
          "internalType": "uint256",
          "name": "value",
          "type": "uint256"
        }
      ],
      "name": "Transfer",
      "type": "event"
    },
    {
      "anonymous": false,
      "inputs": [
        {
          "indexed": false,
          "internalType": "address",
          "name": "account",
          "type": "address"
        }
      ],
      "name": "Unpaused",
      "type": "event"
    },
    {
      "anonymous": false,
      "inputs": [
        {
          "indexed": true,
          "internalType": "address",
          "name": "implementation",
          "type": "address"
        }
      ],
      "name": "Upgraded",
      "type": "event"
    },
    {
      "anonymous": false,
      "inputs": [
        {
          "indexed": false,
          "internalType": "address[]",
          "name": "addresses",
          "type": "address[]"
        },
        {
          "indexed": false,
          "internalType": "bool",
          "name": "status",
          "type": "bool"
        }
      ],
      "name": "WhitelistUpdated",
      "type": "event"
    },
    {
      "inputs": [],
      "name": "VERSION",
      "outputs": [
        {
          "internalType": "string",
          "name": "",
          "type": "string"
        }
      ],
      "stateMutability": "view",
      "type": "function"
    },
    {
      "inputs": [
        {
          "internalType": "address",
          "name": "owner",
          "type": "address"
        },
        {
          "internalType": "address",
          "name": "spender",
          "type": "address"
        }
      ],
      "name": "allowance",
      "outputs": [
        {
          "internalType": "uint256",
          "name": "",
          "type": "uint256"
        }
      ],
      "stateMutability": "view",
      "type": "function"
    },
    {
      "inputs": [
        {
          "internalType": "address",
          "name": "spender",
          "type": "address"
        },
        {
          "internalType": "uint256",
          "name": "amount",
          "type": "uint256"
        }
      ],
      "name": "approve",
      "outputs": [
        {
          "internalType": "bool",
          "name": "",
          "type": "bool"
        }
      ],
      "stateMutability": "nonpayable",
      "type": "function"
    },
    {
      "inputs": [
        {
          "internalType": "address",
          "name": "account",
          "type": "address"
        }
      ],
      "name": "balanceOf",
      "outputs": [
        {
          "internalType": "uint256",
          "name": "",
          "type": "uint256"
        }
      ],
      "stateMutability": "view",
      "type": "function"
    },
    {
      "inputs": [
        {
          "internalType": "address",
          "name": "",
          "type": "address"
        }
      ],
      "name": "blacklist",
      "outputs": [
        {
          "internalType": "bool",
          "name": "",
          "type": "bool"
        }
      ],
      "stateMutability": "view",
      "type": "function"
    },
    {
      "inputs": [],
      "name": "blacklistEnabled",
      "outputs": [
        {
          "internalType": "bool",
          "name": "",
          "type": "bool"
        }
      ],
      "stateMutability": "view",
      "type": "function"
    },
    {
      "inputs": [
        {
          "internalType": "uint256",
          "name": "amount",
          "type": "uint256"
        }
      ],
      "name": "burn",
      "outputs": [],
      "stateMutability": "nonpayable",
      "type": "function"
    },
    {
      "inputs": [
        {
          "internalType": "address",
          "name": "account",
          "type": "address"
        },
        {
          "internalType": "uint256",
          "name": "amount",
          "type": "uint256"
        }
      ],
      "name": "burnFrom",
      "outputs": [],
      "stateMutability": "nonpayable",
      "type": "function"
    },
    {
      "inputs": [],
      "name": "contribute",
      "outputs": [],
      "stateMutability": "payable",
      "type": "function"
    },
    {
      "inputs": [
        {
          "internalType": "address",
          "name": "",
          "type": "address"
        }
      ],
      "name": "contributions",
      "outputs": [
        {
          "internalType": "uint256",
          "name": "",
          "type": "uint256"
        }
      ],
      "stateMutability": "view",
      "type": "function"
    },
    {
      "inputs": [],
      "name": "decimals",
      "outputs": [
        {
          "internalType": "uint8",
          "name": "",
          "type": "uint8"
        }
      ],
      "stateMutability": "view",
      "type": "function"
    },
    {
      "inputs": [
        {
          "internalType": "address",
          "name": "spender",
          "type": "address"
        },
        {
          "internalType": "uint256",
          "name": "subtractedValue",
          "type": "uint256"
        }
      ],
      "name": "decreaseAllowance",
      "outputs": [
        {
          "internalType": "bool",
          "name": "",
          "type": "bool"
        }
      ],
      "stateMutability": "nonpayable",
      "type": "function"
    },
    {
      "inputs": [],
      "name": "finalize",
      "outputs": [],
      "stateMutability": "nonpayable",
      "type": "function"
    },
    {
      "inputs": [
        {
          "internalType": "address",
          "name": "spender",
          "type": "address"
        },
        {
          "internalType": "uint256",
          "name": "addedValue",
          "type": "uint256"
        }
      ],
      "name": "increaseAllowance",
      "outputs": [
        {
          "internalType": "bool",
          "name": "",
          "type": "bool"
        }
      ],
      "stateMutability": "nonpayable",
      "type": "function"
    },
    {
      "inputs": [
        {
          "components": [
            {
              "internalType": "string",
              "name": "name",
              "type": "string"
            },
            {
              "internalType": "string",
              "name": "symbol",
              "type": "string"
            },
            {
              "internalType": "uint256",
              "name": "initialSupply",
              "type": "uint256"
            },
            {
              "internalType": "uint256",
              "name": "maxSupply",
              "type": "uint256"
            },
            {
              "internalType": "address",
              "name": "owner",
              "type": "address"
            },
            {
              "internalType": "bool",
              "name": "enableBlacklist",
              "type": "bool"
            },
            {
              "internalType": "bool",
              "name": "enableTimeLock",
              "type": "bool"
            },
            {
              "internalType": "uint256",
              "name": "presaleRate",
              "type": "uint256"
            },
            {
              "internalType": "uint256",
              "name": "minContribution",
              "type": "uint256"
            },
            {
              "internalType": "uint256",
              "name": "maxContribution",
              "type": "uint256"
            },
            {
              "internalType": "uint256",
              "name": "presaleCap",
              "type": "uint256"
            },
            {
              "internalType": "uint256",
              "name": "startTime",
              "type": "uint256"
            },
            {
              "internalType": "uint256",
              "name": "endTime",
              "type": "uint256"
            },
            {
              "internalType": "uint256",
              "name": "presalePercentage",
              "type": "uint256"
            },
            {
              "internalType": "uint256",
              "name": "liquidityPercentage",
              "type": "uint256"
            },
            {
              "internalType": "uint256",
              "name": "liquidityLockDuration",
              "type": "uint256"
            }
          ],
          "internalType": "struct TokenTemplate_v2_clone.InitParams",
          "name": "params",
          "type": "tuple"
        }
      ],
      "name": "initialize",
      "outputs": [],
      "stateMutability": "nonpayable",
      "type": "function"
    },
    {
      "inputs": [],
      "name": "maxSupply",
      "outputs": [
        {
          "internalType": "uint256",
          "name": "",
          "type": "uint256"
        }
      ],
      "stateMutability": "view",
      "type": "function"
    },
    {
      "inputs": [],
      "name": "name",
      "outputs": [
        {
          "internalType": "string",
          "name": "",
          "type": "string"
        }
      ],
      "stateMutability": "view",
      "type": "function"
    },
    {
      "inputs": [],
      "name": "owner",
      "outputs": [
        {
          "internalType": "address",
          "name": "",
          "type": "address"
        }
      ],
      "stateMutability": "view",
      "type": "function"
    },
    {
      "inputs": [],
      "name": "paused",
      "outputs": [
        {
          "internalType": "bool",
          "name": "",
          "type": "bool"
        }
      ],
      "stateMutability": "view",
      "type": "function"
    },
    {
      "inputs": [],
      "name": "platformFeeCliffDuration",
      "outputs": [
        {
          "internalType": "uint256",
          "name": "",
          "type": "uint256"
        }
      ],
      "stateMutability": "view",
      "type": "function"
    },
    {
      "inputs": [],
      "name": "platformFeeRecipient",
      "outputs": [
        {
          "internalType": "address",
          "name": "",
          "type": "address"
        }
      ],
      "stateMutability": "view",
      "type": "function"
    },
    {
      "inputs": [],
      "name": "platformFeeTokens",
      "outputs": [
        {
          "internalType": "uint256",
          "name": "",
          "type": "uint256"
        }
      ],
      "stateMutability": "view",
      "type": "function"
    },
    {
      "inputs": [],
      "name": "platformFeeTokensClaimed",
      "outputs": [
        {
          "internalType": "uint256",
          "name": "",
          "type": "uint256"
        }
      ],
      "stateMutability": "view",
      "type": "function"
    },
    {
      "inputs": [],
      "name": "platformFeeVestingDuration",
      "outputs": [
        {
          "internalType": "uint256",
          "name": "",
          "type": "uint256"
        }
      ],
      "stateMutability": "view",
      "type": "function"
    },
    {
      "inputs": [],
      "name": "platformFeeVestingEnabled",
      "outputs": [
        {
          "internalType": "bool",
          "name": "",
          "type": "bool"
        }
      ],
      "stateMutability": "view",
      "type": "function"
    },
    {
      "inputs": [],
      "name": "platformFeeVestingStart",
      "outputs": [
        {
          "internalType": "uint256",
          "name": "",
          "type": "uint256"
        }
      ],
      "stateMutability": "view",
      "type": "function"
    },
    {
      "inputs": [],
      "name": "presaleInfo",
      "outputs": [
        {
          "internalType": "uint256",
          "name": "softCap",
          "type": "uint256"
        },
        {
          "internalType": "uint256",
          "name": "hardCap",
          "type": "uint256"
        },
        {
          "internalType": "uint256",
          "name": "minContribution",
          "type": "uint256"
        },
        {
          "internalType": "uint256",
          "name": "maxContribution",
          "type": "uint256"
        },
        {
          "internalType": "uint256",
          "name": "startTime",
          "type": "uint256"
        },
        {
          "internalType": "uint256",
          "name": "endTime",
          "type": "uint256"
        },
        {
          "internalType": "uint256",
          "name": "presaleRate",
          "type": "uint256"
        },
        {
          "internalType": "bool",
          "name": "whitelistEnabled",
          "type": "bool"
        },
        {
          "internalType": "bool",
          "name": "finalized",
          "type": "bool"
        },
        {
          "internalType": "uint256",
          "name": "totalContributed",
          "type": "uint256"
        }
      ],
      "stateMutability": "view",
      "type": "function"
    },
    {
      "inputs": [],
      "name": "proxiableUUID",
      "outputs": [
        {
          "internalType": "bytes32",
          "name": "",
          "type": "bytes32"
        }
      ],
      "stateMutability": "view",
      "type": "function"
    },
    {
      "inputs": [],
      "name": "renounceOwnership",
      "outputs": [],
      "stateMutability": "nonpayable",
      "type": "function"
    },
    {
      "inputs": [
        {
          "internalType": "address",
          "name": "account",
          "type": "address"
        },
        {
          "internalType": "uint256",
          "name": "unlockTime",
          "type": "uint256"
        }
      ],
      "name": "setTimeLock",
      "outputs": [],
      "stateMutability": "nonpayable",
      "type": "function"
    },
    {
      "inputs": [],
      "name": "symbol",
      "outputs": [
        {
          "internalType": "string",
          "name": "",
          "type": "string"
        }
      ],
      "stateMutability": "view",
      "type": "function"
    },
    {
      "inputs": [],
      "name": "timeLockEnabled",
      "outputs": [
        {
          "internalType": "bool",
          "name": "",
          "type": "bool"
        }
      ],
      "stateMutability": "view",
      "type": "function"
    },
    {
      "inputs": [
        {
          "internalType": "address",
          "name": "",
          "type": "address"
        }
      ],
      "name": "timeLocks",
      "outputs": [
        {
          "internalType": "uint256",
          "name": "",
          "type": "uint256"
        }
      ],
      "stateMutability": "view",
      "type": "function"
    },
    {
      "inputs": [],
      "name": "totalSupply",
      "outputs": [
        {
          "internalType": "uint256",
          "name": "",
          "type": "uint256"
        }
      ],
      "stateMutability": "view",
      "type": "function"
    },
    {
      "inputs": [
        {
          "internalType": "address",
          "name": "to",
          "type": "address"
        },
        {
          "internalType": "uint256",
          "name": "amount",
          "type": "uint256"
        }
      ],
      "name": "transfer",
      "outputs": [
        {
          "internalType": "bool",
          "name": "",
          "type": "bool"
        }
      ],
      "stateMutability": "nonpayable",
      "type": "function"
    },
    {
      "inputs": [
        {
          "internalType": "address",
          "name": "from",
          "type": "address"
        },
        {
          "internalType": "address",
          "name": "to",
          "type": "address"
        },
        {
          "internalType": "uint256",
          "name": "amount",
          "type": "uint256"
        }
      ],
      "name": "transferFrom",
      "outputs": [
        {
          "internalType": "bool",
          "name": "",
          "type": "bool"
        }
      ],
      "stateMutability": "nonpayable",
      "type": "function"
    },
    {
      "inputs": [
        {
          "internalType": "address",
          "name": "newOwner",
          "type": "address"
        }
      ],
      "name": "transferOwnership",
      "outputs": [],
      "stateMutability": "nonpayable",
      "type": "function"
    },
    {
      "inputs": [
        {
          "internalType": "address[]",
          "name": "addresses",
          "type": "address[]"
        },
        {
          "internalType": "bool",
          "name": "status",
          "type": "bool"
        }
      ],
      "name": "updateBlacklist",
      "outputs": [],
      "stateMutability": "nonpayable",
      "type": "function"
    },
    {
      "inputs": [
        {
          "internalType": "address[]",
          "name": "addresses",
          "type": "address[]"
        },
        {
          "internalType": "bool",
          "name": "status",
          "type": "bool"
        }
      ],
      "name": "updateWhitelist",
      "outputs": [],
      "stateMutability": "nonpayable",
      "type": "function"
    },
    {
      "inputs": [
        {
          "internalType": "address",
          "name": "newImplementation",
          "type": "address"
        }
      ],
      "name": "upgradeTo",
      "outputs": [],
      "stateMutability": "nonpayable",
      "type": "function"
    },
    {
      "inputs": [
        {
          "internalType": "address",
          "name": "newImplementation",
          "type": "address"
        },
        {
          "internalType": "bytes",
          "name": "data",
          "type": "bytes"
        }
      ],
      "name": "upgradeToAndCall",
      "outputs": [],
      "stateMutability": "payable",
      "type": "function"
    },
    {
      "inputs": [
        {
          "internalType": "address",
          "name": "",
          "type": "address"
        }
      ],
      "name": "whitelist",
      "outputs": [
        {
          "internalType": "bool",
          "name": "",
          "type": "bool"
        }
      ],
      "stateMutability": "view",
      "type": "function"
    }
  ],
  "bytecode": "0x60a0604052346200003657620000146200003b565b604051613508620001fc8239608051818181610f3801526113a7015261350890f35b600080fd5b6200004562000051565b6200004f62000181565b565b6200004f62000096565b620000719062000074906001600160a01b031682565b90565b6001600160a01b031690565b62000071906200005b565b620000719062000080565b620000a1306200008b565b608052565b620000719060081c5b60ff1690565b620000719054620000a6565b60208082526027908201527f496e697469616c697a61626c653a20636f6e747261637420697320696e697469604082015266616c697a696e6760c81b606082015260800190565b156200011057565b60405162461bcd60e51b8152806200012b60048201620000c1565b0390fd5b6200007190620000af565b6200007190546200012f565b620000af62000071620000719260ff1690565b906200016d620000716200017d9262000146565b825460ff191660ff919091161790565b9055565b6200019f62000199620001956000620000b5565b1590565b62000108565b620001ab60006200013a565b60ff90811603620001b857565b620001c660ff600062000159565b7f7f26b83ff96e1f2b6a682f133852f6798a09c465da95921460cefb3847402498620001f160405190565b60ff8152602090a156fe6080604052600436101561001257600080fd5b60003560e01c806306fdde03146102b2578063095ea7b3146102ad578063113d478b146102a857806318160ddd146102a357806323b872dd1461029e5780632791770a146102995780632edf086914610294578063313ce5671461028f5780633659cfe61461028a5780633950935114610285578063420fc2101461028057806342966c681461027b57806342e94c90146102765780634bb278f3146102715780634f1ef2861461026c57806352d1902d146102675780635c975abb1461026257806363280c511461025d578063644fab74146102585780636b7f3d1a1461025357806370a082311461024e578063715018a61461024957806379cc6790146102445780637f76b2231461023f5780638da5cb5b1461023a57806395d89b41146102355780639b19251a14610230578063a457c2d71461022b578063a9059cbb14610226578063a9ec241014610221578063aff177ca1461021c578063bb0e69e814610217578063bffb691d14610212578063cba4cbd31461020d578063d5abeb0114610208578063d7bb99ba14610203578063dd62ed3e146101fe578063eb13554f146101f9578063f2fde38b146101f4578063f9f92be4146101ef578063fadcac27146101ea5763ffa1ad74036102b757610d1c565b610cbc565b610c94565b610c6b565b610c50565b610c0f565b610bd9565b610bbe565b610b96565b610b6e565b610b48565b610b2f565b610a9d565b610a4d565b610a31565b610a16565b6109cd565b6109a6565b610972565b610948565b610930565b610915565b6108fa565b6108d4565b6108b9565b610891565b610876565b610862565b610753565b610738565b6106cc565b61069d565b610674565b610657565b610614565b6105da565b6104b0565b610487565b610443565b610417565b6103c6565b610336565b600080fd5b60009103126102b757565b60005b8381106102da5750506000910152565b81810151838201526020016102ca565b61030b61031460209361031e936102ff815190565b80835293849260200190565b958691016102c7565b601f01601f191690565b0190565b6020808252610333929101906102ea565b90565b346102b7576103463660046102bc565b61035d610351610e2f565b60405191829182610322565b0390f35b6001600160a01b031690565b61037681610361565b036102b757565b9050359061038a8261036d565b565b80610376565b9050359061038a8261038c565b91906040838203126102b7576103339060206103bb828661037d565b9401610392565b9052565b346102b75761035d6103e26103dc36600461039f565b90610e39565b60405191829182901515815260200190565b610333916008021c81565b9061033391546103f4565b61033360006101d66103ff565b346102b7576104273660046102bc565b61035d61043261040a565b6040515b9182918290815260200190565b346102b7576104533660046102bc565b61035d610432610e49565b90916060828403126102b757610333610477848461037d565b9360406103bb826020870161037d565b346102b75761035d6103e261049d36600461045e565b91610e53565b61033360006101d76103ff565b346102b7576104c03660046102bc565b61035d6104326104a3565b6103339081565b61033390546104cb565b610333905b60ff1690565b61033390546104dc565b6103339060081c6104e1565b61033390546104f1565b6101c390610514826104d2565b91610521600182016104d2565b9161052e600283016104d2565b9161053b600382016104d2565b91610548600483016104d2565b91610555600582016104d2565b91610562600683016104d2565b9161056f600782016104e7565b916103336008610581600785016104fd565b93016104d2565b979593919a9998969492909a61014089019b60008a016105a6919052565b602089015260408801526060870152608086015260a085015260c0840152151560e083015215156101008201526101200152565b346102b7576105ea3660046102bc565b61035d6105f5610507565b9661060b9a989a96919695929594939460405190565b9a8b9a8b610588565b346102b7576106243660046102bc565b61035d61062f610e77565b6040519182918260ff909116815260200190565b906020828203126102b7576103339161037d565b346102b75761066f61066a366004610643565b610feb565b604051005b346102b75761035d6103e261068a36600461039f565b9061101c565b61033360006101d56103ff565b346102b7576106ad3660046102bc565b61035d610432610690565b906020828203126102b75761033391610392565b346102b75761066f6106df3660046106b8565b61103b565b61033390610361906001600160a01b031682565b610333906106e4565b610333906106f8565b9061071490610701565b600052602052604060002090565b6000610733610333926101cd61070a565b6103ff565b346102b75761035d61043261074e366004610643565b610722565b346102b7576107633660046102bc565b61066f6112ea565b634e487b7160e01b600052604160045260246000fd5b90601f01601f191681019081106001600160401b038211176107a257604052565b61076b565b9061038a6107b460405190565b9283610781565b6001600160401b0381116107a257602090601f01601f19160190565b90826000939282370152565b909291926107f86107f3826107bb565b6107a7565b93818552818301116102b75761038a9160208501906107d7565b9080601f830112156102b757816020610333933591016107e3565b9190916040818403126102b757610844838261037d565b9260208201356001600160401b0381116102b7576103339201610812565b61066f61087036600461082d565b90611318565b346102b7576108863660046102bc565b61035d610432611408565b346102b7576108a13660046102bc565b61035d6103e2611412565b61033360006101d86103ff565b346102b7576108c93660046102bc565b61035d6104326108ac565b346102b75761066f6108e736600461039f565b90611565565b61033360006101d36103ff565b346102b75761090a3660046102bc565b61035d6104326108ed565b346102b75761035d61043261092b366004610643565b61156f565b346102b7576109403660046102bc565b61066f6115be565b346102b75761066f61095b36600461039f565b906115c6565b6000610733610333926101d161070a565b346102b75761035d610432610988366004610643565b610961565b6103c290610361565b60208101929161038a919061098d565b346102b7576109b63660046102bc565b61035d6109c16115e8565b60405191829182610996565b346102b7576109dd3660046102bc565b61035d6103516115f2565b610333916008021c6104e1565b9061033391546109e8565b6000610a11610333926101cc61070a565b6109f5565b346102b75761035d6103e2610a2c366004610643565b610a00565b346102b75761035d6103e2610a4736600461039f565b90611656565b346102b75761035d6103e2610a6336600461039f565b9061167a565b90816102009103126102b75790565b906020828203126102b75781356001600160401b0381116102b7576103339201610a69565b346102b75761066f610ab0366004610a78565b611dd5565b909182601f830112156102b7578135916001600160401b0383116102b75760200192602083028401116102b757565b801515610376565b9050359061038a82610ae4565b916040838303126102b75782356001600160401b0381116102b75782610b26602094610333938701610ab5565b94909501610aec565b346102b75761066f610b42366004610af9565b91611f82565b346102b75761066f610b5b366004610af9565b9161205b565b61033360006101cf6109f5565b346102b757610b7e3660046102bc565b61035d6103e2610b61565b61033360016101cf6109f5565b346102b757610ba63660046102bc565b61035d6103e2610b89565b61033360006101ce6103ff565b346102b757610bce3660046102bc565b61035d610432610bb1565b610be43660046102bc565b61066f6123ea565b91906040838203126102b757610333906020610c08828661037d565b940161037d565b346102b75761035d610432610c25366004610bec565b906123f2565b610333916008021c610361565b906103339154610c2b565b61033360006101d2610c38565b346102b757610c603660046102bc565b61035d6109c1610c43565b346102b75761066f610c7e366004610643565b6124a7565b6000610a11610333926101d061070a565b346102b75761035d6103e2610caa366004610643565b610c83565b61033360006101d46109f5565b346102b757610ccc3660046102bc565b61035d6103e2610caf565b90610ce46107f3836107bb565b918252565b610cf36005610cd7565b640322e302e360dc1b602082015290565b610333610ce9565b610333610d04565b610333610d0c565b346102b757610d2c3660046102bc565b61035d610351610d14565b634e487b7160e01b600052602260045260246000fd5b9060016002830492168015610d6d575b6020831014610d6857565b610d37565b91607f1691610d5d565b80546000939291610d94610d8a83610d4d565b8085529360200190565b9160018116908115610de65750600114610dad57505050565b610dc09192939450600052602060002090565b916000925b818410610dd25750500190565b805484840152602090930192600101610dc5565b92949550505060ff1916825215156020020190565b9061033391610d77565b9061038a610e1f92610e1660405190565b93848092610dfb565b0383610781565b61033390610e05565b6103336036610e26565b610e4491903361255f565b600190565b61033360356104d2565b610e44929190610e6583335b8361263f565b612784565b6104e16103336103339290565b6103336012610e6a565b15610e8857565b60405162461bcd60e51b815260206004820152602c602482015260008051602061349383398151915260448201526b19195b1959d85d1958d85b1b60a21b6064820152608490fd5b0390fd5b15610edb57565b60405162461bcd60e51b815260206004820152602c602482015260008051602061349383398151915260448201526b6163746976652070726f787960a01b6064820152608490fd5b61038a90610f8b610f3330610701565b610f717f000000000000000000000000000000000000000000000000000000000000000091610f6a610f6484610361565b91610361565b1415610e81565b610f85610f64610f7f612824565b92610361565b14610ed4565b610fc5565b6103336103336103339290565b369037565b9061038a610fb8610fb284610cd7565b936107bb565b601f190160208401610f9d565b600061038a91610fd481612843565b610fe5610fe083610f90565b610fa2565b906128f4565b61038a90610f23565b634e487b7160e01b600052601160045260246000fd5b9190820180921161101757565b610ff4565b610e449190611035339261103083856123f2565b61100a565b9161255f565b61038a9033612ab0565b612ab0565b611052612b8e565b61038a61105d612c01565b6110656111e5565b61038a612c35565b1561107457565b60405162461bcd60e51b8152602060048201526011602482015270141c995cd85b19481b9bdd08195b991959607a1b6044820152606490fd5b156110b457565b60405162461bcd60e51b8152602060048201526011602482015270105b1c9958591e48199a5b985b1a5e9959607a1b6044820152606490fd5b156110f457565b60405162461bcd60e51b815260206004820152601460248201527314dbd99d0818d85c081b9bdd081c995858da195960621b6044820152606490fd5b9061ff009060081b5b9181191691161790565b9061115361033361115a92151590565b8254611130565b9055565b8181029291811591840414171561101757565b3d1561118b576111803d610cd7565b903d6000602084013e565b606090565b1561119757565b60405162461bcd60e51b815260206004820152600f60248201526e151c985b9cd9995c8819985a5b1959608a1b6044820152606490fd5b90815260408101929161038a9160200152565b0152565b7fedfde254cb8ed39d650c9a34251c59d6817fae4cc876cc2ce76669976cf102ee6101c361122161121a6103336101c86104d2565b421161106d565b6112d0611294600783019261124461123f61123b866104fd565b1590565b6110ad565b6112796001600883019561127461125a886104d2565b61126d611269610333886104d2565b9190565b10156110ed565b611143565b61128e6006611287866104d2565b92016104d2565b9061115e565b916112cb6000806112a36115e8565b6112ac30610701565b316112b660405190565b90818003925af16112c5611171565b50611190565b6104d2565b6112e56112dc60405190565b928392836111ce565b0390a1565b61038a61104a565b9061038a91611303610f3330610701565b61038a9160019161131381612843565b6128f4565b9061038a916112f2565b1561132957565b60405162461bcd60e51b815260206004820152603860248201527f555550535570677261646561626c653a206d757374206e6f742062652063616c6044820152771b1959081d1a1c9bdd59da0819195b1959d85d1958d85b1b60421b6064820152608490fd5b610333906113d161139f30610701565b6113cb610f647f0000000000000000000000000000000000000000000000000000000000000000610361565b14611322565b6113ff565b6103337f360894a13ba1a3210667c828492db98dca3e2076cc3735a920a3ca505d382bbc610f90565b506103336113d6565b610333600061138f565b61033360976104e7565b9061038a91611429612b8e565b6114fa565b1561143557565b60405162461bcd60e51b8152602060048201526015602482015274151a5b59481b1bd8dac81b9bdd08195b98589b1959605a1b6044820152606490fd5b1561147957565b60405162461bcd60e51b815260206004820152601d60248201527f556e6c6f636b2074696d65206d75737420626520696e206675747572650000006044820152606490fd5b9060001990611139565b906114d861033361115a92610f90565b82546114be565b91602061038a9294936111e16040820196600083019061098d565b907fa9353e70f07f31e7f4e16464f45e189cbd22826780a5abe4da8303652a86960a9161153061152b6101cf6104fd565b61142e565b61153b428311611472565b6115508261154b836101d161070a565b6114c8565b6112e561155c60405190565b928392836114df565b9061038a9161141c565b6112cb6103339161157e600090565b50603361070a565b61158e612b8e565b61038a6115ac565b6103616103336103339290565b61033390611596565b61038a6115b960006115a3565b612c66565b61038a611586565b61038a91906110458233610e5f565b61033390610361565b61033390546115d5565b61033360fb6115de565b6103336037610e26565b1561160357565b60405162461bcd60e51b815260206004820152602560248201527f45524332303a2064656372656173656420616c6c6f77616e63652062656c6f77604482015264207a65726f60d81b6064820152608490fd5b610e449190611035339261166a83856123f2565b611676828210156115fc565b0390565b610e44919033612784565b1561168c57565b60405162461bcd60e51b815260206004820152602e60248201527f496e697469616c697a61626c653a20636f6e747261637420697320616c72656160448201526d191e481a5b9a5d1a585b1a5e995960921b6064820152608490fd5b9060ff90611139565b6104e16103336103339260ff1690565b9061171161033361115a926116f1565b82546116e8565b6103c290610e6a565b60208101929161038a9190611718565b61177761174161123b60006104fd565b918280611814575b80156117cf575b61175990611685565b8261176e6117676001610e6a565b6000611701565b6117be57611b37565b61177d57565b611788600080611143565b7f7f26b83ff96e1f2b6a682f133852f6798a09c465da95921460cefb38474024986117b260405190565b806112e5600182611721565b6117ca60016000611143565b611b37565b506117e461123b6117df30610701565b612cb9565b801561175057506117596117f860006104e7565b61180c6118056001610e6a565b9160ff1690565b149050611750565b5061181f60006104e7565b61182c6118056001610e6a565b10611749565b903590601e1936829003018212156102b757018035906001600160401b0382116102b757602001913682900383136102b757565b6103339136916107e3565b356103338161038c565b1561188257565b60405162461bcd60e51b8152602060048201526024808201527f4d617820737570706c79206d757374206265203e3d20696e697469616c20737560448201526370706c7960e01b6064820152608490fd5b156118da57565b60405162461bcd60e51b815260206004820152601c60248201527b53746172742074696d65206d75737420626520696e2066757475726560201b6044820152606490fd5b1561192557565b60405162461bcd60e51b815260206004820152602160248201527f456e642074696d65206d7573742062652061667465722073746172742074696d6044820152606560f81b6064820152608490fd5b1561197b57565b60405162461bcd60e51b815260206004820152601c60248201527b546f74616c2070657263656e74616765206d7573742062652039352560201b6044820152606490fd5b3561033381610ae4565b9061171161033361115a92151590565b634e487b7160e01b600052601260045260246000fd5b81156119f9570490565b6119d9565b6103336101406107a7565b6008611ae361012061038a94611a29611a23600083015190565b866114c8565b611a40611a37602083015190565b600187016114c8565b611a57611a4e604083015190565b600287016114c8565b611a6e611a65606083015190565b600387016114c8565b611a85611a7c608083015190565b600487016114c8565b611a9c611a9360a083015190565b600587016114c8565b611ab3611aaa60c083015190565b600687016114c8565b611ade60078601611ad0611aca60e0850151151590565b826119c9565b610100830151151590611143565b015190565b91016114c8565b9061038a91611a09565b356103338161036d565b9095949261038a94611b306111e192611b29608096611b2260a088019c6000890152565b6020870152565b6040850152565b6060830152565b611b418180611832565b90611b4f6020840184611832565b92611b5a9192611866565b91611b6491611866565b611b6d91612d4c565b611b75612d63565b611b7d612d83565b611b85612da3565b611b8d612dc3565b611b95612d63565b6060810190611ba382611871565b906040810191611bb283611871565b1115611bbd9061187b565b610160810191611bcc83611871565b4210611bd7906118d3565b610180820193611be685611871565b611bef85611871565b10611bf99061191e565b611c066101a08401611871565b611c136101c08501611871565b611c1c9161100a565b611c26605f610f90565b14611c3090611974565b611c3990611871565b611c45906101ce6114c8565b611c5160a083016119bf565b611c5d906101cf6119c9565b611c6960c083016119bf565b611c75906101cf611143565b610140820190611c8482611871565b611c8e6002610f90565b611c97916119ef565b91611ca190611871565b92611caf6101008201611871565b92611cbd6101208301611871565b93611cc787611871565b611cd089611871565b9060e0850196611cdf88611871565b93600099611ceb6119fe565b96611cf6908c890152565b602087015260408601526060850152608084015260a083015260c082015284151560e08201819052610100820152611d2d85610f90565b610120820152611d3f906101c3611aea565b608001611d4b90611af4565b90611d5590611871565b611d5e91612e17565b6101c3918201611d6d906104d2565b91600101611d7a906104d2565b92611d8490611871565b93611d8e90611871565b90611d9890611871565b90611da260405190565b948594611daf9486611afe565b037f363312020dbba28eb1464ec7d5f963ebe389e1b00dab8dd54d46e2e2f2e6326191a1565b61038a90611731565b9061038a9291611dec612b8e565b611eec565b15611df857565b60405162461bcd60e51b815260206004820152601560248201527415da1a5d195b1a5cdd081b9bdd08195b98589b1959605a1b6044820152606490fd5b634e487b7160e01b600052603260045260246000fd5b9190811015611e5b576020020190565b611e35565b9061031e8160209361098d565b5061033390602081019061037d565b818352602090920191906000825b828210611e98575050505090565b90919293611ebb611eb4600192611eaf8886611e6d565b611e60565b9560200190565b93920190611e8a565b939290611ee360209161038a94604088019188830360008a0152611e7c565b94019015159052565b90611f00611efb6101ca6104e7565b611df1565b611f0a6000610f90565b81811015611f4957611f4490611f3e85611f396101cc611f33611f2e86898b611e4b565b611af4565b9061070a565b6119c9565b60010190565b611f0a565b50906112e57fa091d95aa3f4b3529e12c57e1e9e10580edde8a7ac6fd51dd3c8e824c332dbe093611f7960405190565b93849384611ec4565b9061038a9291611dde565b9061038a9291611f9b612b8e565b611fe4565b15611fa757565b60405162461bcd60e51b8152602060048201526015602482015274109b1858dadb1a5cdd081b9bdd08195b98589b1959605a1b6044820152606490fd5b90611ff8611ff36101cf6104e7565b611fa0565b6120026000610f90565b8181101561202b5761202690611f3e85611f396101d0611f33611f2e86898b611e4b565b612002565b50906112e57f11d4d128e8f89ae2e8815168b9eba079dd6668b75f1e3a9dd96ac6192a7c4dcb93611f7960405190565b9061038a9291611f8d565b61206e612c01565b611065612287565b1561207d57565b60405162461bcd60e51b8152602060048201526013602482015272141c995cd85b19481b9bdd081cdd185c9d1959606a1b6044820152606490fd5b156120bf57565b60405162461bcd60e51b815260206004820152600d60248201526c141c995cd85b1948195b991959609a1b6044820152606490fd5b156120fb57565b60405162461bcd60e51b8152602060048201526011602482015270141c995cd85b1948199a5b985b1a5e9959607a1b6044820152606490fd5b1561213b57565b60405162461bcd60e51b81526020600482015260166024820152752132b637bb9036b4b71031b7b73a3934b13aba34b7b760511b6044820152606490fd5b1561218057565b60405162461bcd60e51b815260206004820152601660248201527520b137bb329036b0bc1031b7b73a3934b13aba34b7b760511b6044820152606490fd5b156121c557565b60405162461bcd60e51b815260206004820152601060248201526f12185c990818d85c081c995858da195960821b6044820152606490fd5b1561220457565b60405162461bcd60e51b815260206004820152600f60248201526e139bdd081dda1a5d195b1a5cdd1959608a1b6044820152606490fd5b1561224257565b60405162461bcd60e51b815260206004820152601d60248201527f576f756c6420657863656564206d617820636f6e747269627574696f6e0000006044820152606490fd5b6123986101c36122a661229e6103336101c76104d2565b421015612076565b6122c06122b8610333600584016104d2565b4211156120b8565b612386600782016122db6122d661123b836104fd565b6120f4565b6122f56122ed610333600286016104d2565b341015612134565b61234d600384019161231461230c610333856104d2565b341115612179565b6123486008860195612341611269610333600161233a6123338c6104d2565b349061100a565b94016104d2565b11156121be565b6104e7565b6123ce575b61154b6101cd61237f6123776103336123716123336112cb338761070a565b956104d2565b84111561223b565b339061070a565b612392612333826104d2565b906114c8565b7f1bb460ccaaf70fbacfec17a376f8acbd278c1405590ffcc8ebe4b88daf4f64ad6123c260405190565b806112e53433836114df565b6123e56123e0612348336101cc61070a565b6121fd565b612352565b61038a612066565b6103339161240d6112cb92612405600090565b50603461070a565b61070a565b61038a9061241e612b8e565b61247e565b1561242a57565b60405162461bcd60e51b815260206004820152602660248201527f4f776e61626c653a206e6577206f776e657220697320746865207a65726f206160448201526564647265737360d01b6064820152608490fd5b61038a906115b961249761249260006115a3565b610361565b6124a083610361565b1415612423565b61038a90612412565b156124b757565b60405162461bcd60e51b8152602060048201526024808201527f45524332303a20617070726f76652066726f6d20746865207a65726f206164646044820152637265737360e01b6064820152608490fd5b1561250f57565b60405162461bcd60e51b815260206004820152602260248201527f45524332303a20617070726f766520746f20746865207a65726f206164647265604482015261737360f01b6064820152608490fd5b6125ee6125e46125de7f8c5be1e5ebec7d5bd14f71427d1e84f3dd0314c0f7b2291e5b200ac8c7c3b925936125c66125b661259a60006115a3565b6124926125a682610361565b6125af86610361565b14156124b0565b6125bf88610361565b1415612508565b6125d98761154b8861240d85603461070a565b610701565b93610701565b9361043660405190565b0390a3565b156125fa57565b60405162461bcd60e51b815260206004820152601d60248201527f45524332303a20696e73756666696369656e7420616c6c6f77616e63650000006044820152606490fd5b9061264a81836123f2565b600019810361265a575b50505050565b61266e9361103591611676828210156125f3565b38808080612654565b1561267e57565b60405162461bcd60e51b815260206004820152602560248201527f45524332303a207472616e736665722066726f6d20746865207a65726f206164604482015264647265737360d81b6064820152608490fd5b156126d857565b60405162461bcd60e51b815260206004820152602360248201527f45524332303a207472616e7366657220746f20746865207a65726f206164647260448201526265737360e81b6064820152608490fd5b1561273057565b60405162461bcd60e51b815260206004820152602660248201527f45524332303a207472616e7366657220616d6f756e7420657863656564732062604482015265616c616e636560d01b6064820152608490fd5b6125ee6125e46125de6000805160206134b3833981519152936127d96127c96127ad60006115a3565b6124926127b982610361565b6127c286610361565b1415612677565b6127d288610361565b14156126d1565b6127e4878783612efd565b6125d961281787603361240d61280d8c6128016112cb898661070a565b61167682821015612729565b61154b878461070a565b6123928961031e836104d2565b61033360006128346103336113d6565b016115de565b5061038a612b8e565b61038a9061283a565b6103337f4910fdfa16fed3260ed0e7147f7cc6da11a60208b5b9406d12a635614ffd9143610f90565b9050519061038a8261038c565b906020828203126102b75761033391612875565b1561289d57565b60405162461bcd60e51b815260206004820152602960248201527f45524331393637557067726164653a20756e737570706f727465642070726f786044820152681a58589b195555525160ba1b6064820152608490fd5b919061290c600061290661033361284c565b016104e7565b1561291c57505061038a9061304d565b6129286125d984610701565b92602061293460405190565b6352d1902d60e01b815294859060049082905afa600094816129d2575b506129b25760405162461bcd60e51b815260206004820152602e60248201527f45524331393637557067726164653a206e657720696d706c656d656e7461746960448201526d6f6e206973206e6f74205555505360901b6064820152608490fd5b6129cd61038a946129c76112696103336113d6565b14612896565b612fac565b6129f591955060203d6020116129fc575b6129ed8183610781565b810190612882565b9338612951565b503d6129e3565b15612a0a57565b60405162461bcd60e51b815260206004820152602160248201527f45524332303a206275726e2066726f6d20746865207a65726f206164647265736044820152607360f81b6064820152608490fd5b15612a6057565b60405162461bcd60e51b815260206004820152602260248201527f45524332303a206275726e20616d6f756e7420657863656564732062616c616e604482015261636560f01b6064820152608490fd5b6000805160206134b38339815191526125ee6125e46125de612ad260006115a3565b94612aef612adf87610361565b612ae883610361565b1415612a03565b612afa878783612efd565b612b26612b1b88612b0f6112cb85603361070a565b61167682821015612a59565b61154b83603361070a565b6125d9612b378861167660356104d2565b60356114c8565b15612b4557565b60405162461bcd60e51b815280610ed0600482016020808252818101527f4f776e61626c653a2063616c6c6572206973206e6f7420746865206f776e6572604082015260600190565b61038a612b996115e8565b612ba5610f6433610361565b14612b3e565b6103336002610f90565b15612bbc57565b60405162461bcd60e51b815260206004820152601f60248201527f5265656e7472616e637947756172643a207265656e7472616e742063616c6c006044820152606490fd5b61038a612c0f6101916104d2565b612c23612c1a612bab565b91821415612bb5565b6101916114c8565b6103336001610f90565b61038a612c23612c2b565b906001600160a01b0390611139565b90612c5f61033361115a92610701565b8254612c40565b612c87612c81612c7660fb6115de565b6125d98460fb612c4f565b91610701565b907f8be0079c531659141344cd1fd0a4f28419497f9722a3daafe3b4186f6b6457e0612cb260405190565b80806125ee565b3b612cc76112696000610f90565b1190565b15612cd257565b60405162461bcd60e51b815260206004820152602b60248201527f496e697469616c697a61626c653a20636f6e7472616374206973206e6f74206960448201526a6e697469616c697a696e6760a81b6064820152608490fd5b9061038a91612d42612d3d60006104fd565b612ccb565b9061038a91613238565b9061038a91612d2b565b61038a612d3d60006104fd565b61038a612d56565b612d78612d3d60006104fd565b61038a61038a61325e565b61038a612d6b565b612d98612d3d60006104fd565b61038a61038a61327d565b61038a612d8b565b612db8612d3d60006104fd565b61038a61038a613292565b61038a612dab565b15612dd257565b60405162461bcd60e51b815260206004820152601f60248201527f45524332303a206d696e7420746f20746865207a65726f2061646472657373006044820152606490fd5b6000805160206134b38339815191526125ee6125e46125de612e3960006115a3565b612e55612e4582610361565b612e4e88610361565b1415612dcb565b612e60878783612efd565b612e71612b378861103060356104d2565b6125d961281787603361070a565b15612e8657565b60405162461bcd60e51b81526020600482015260136024820152721059191c995cdcc8189b1858dadb1a5cdd1959606a1b6044820152606490fd5b15612ec857565b60405162461bcd60e51b815260206004820152600d60248201526c151bdad95b9cc81b1bd8dad959609a1b6044820152606490fd5b9061038a9291612f0e6101cf6104e7565b612f69575b612f1e6101cf6104fd565b80612f4b575b156132f957612f46612f3e6103336112cb846101d161070a565b421015612ec1565b6132f9565b50612f5961249260006115a3565b612f6282610361565b1415612f24565b612f8e6101d083612f8061123b612348868561070a565b9182612f93575b5050612e7f565b612f13565b612fa5925061123b916123489161070a565b8338612f87565b91612fb68361330f565b8151612fc56112696000610f90565b11908115612fe3575b50612fd7575050565b612fe091613397565b50565b905038612fce565b15612ff257565b60405162461bcd60e51b815260206004820152602d60248201527f455243313936373a206e657720696d706c656d656e746174696f6e206973206e60448201526c1bdd08184818dbdb9d1c9858dd609a1b6064820152608490fd5b61038a9061306261305d82612cb9565b612feb565b600061306f6103336113d6565b01612c4f565b9061038a91613087612d3d60006104fd565b613222565b9160001960089290920291821b911b611139565b91906130b161033361115a93610f90565b90835461308c565b61038a916000916130a0565b8181106130d0575050565b806130de60006001936130b9565b016130c5565b9190601f81116130f357505050565b61310561038a93600052602060002090565b906020601f840181900483019310613127575b6020601f9091010401906130c5565b9091508190613118565b9060001960089091021c191690565b8161314a91613131565b906002021790565b9061315b815190565b906001600160401b0382116107a25761317e826131788554610d4d565b856130e4565b602090601f83116001146131ac5761115a9291600091836131a1575b5050613140565b01519050388061319a565b601f198316916131c185600052602060002090565b9260005b818110613200575091600293918560019694106131e6575b50505002019055565b6131f6910151601f841690613131565b90553880806131dd565b919360206001819287870151815501950192016131c5565b9061038a91613152565b9061323161038a926036613218565b6037613218565b9061038a91613075565b61324f612d3d60006104fd565b61038a61038a600060976119c9565b61038a613242565b613273612d3d60006104fd565b61038a8033612c66565b61038a613266565b611065612d3d60006104fd565b61038a613285565b156132a157565b60405162461bcd60e51b815260206004820152602a60248201527f45524332305061757361626c653a20746f6b656e207472616e736665722077686044820152691a5b19481c185d5cd95960b21b6064820152608490fd5b50505061038a61330a61123b611412565b61329a565b61331c906125d98161304d565b7fbc7cd75a20ee27fd9adebab32041f755214dbc6bffa90cc0225b39da2e5c2d3b61334660405190565b600090a2565b6133566027610cd7565b7f416464726573733a206c6f772d6c6576656c2064656c65676174652063616c6c6020820152660819985a5b195960ca1b604082015290565b61033361334c565b610333916133a361338f565b9160008061033394936133b4606090565b50602081519101845af46133c6611171565b91613418565b156133d357565b60405162461bcd60e51b815260206004820152601d60248201527f416464726573733a2063616c6c20746f206e6f6e2d636f6e74726163740000006044820152606490fd5b9192901561344a575081516134306112696000610f90565b14613439575090565b61344561033391612cb9565b6133cc565b8290613454825190565b6134616112696000610f90565b11156134705750805190602001fd5b610ed09061347d60405190565b62461bcd60e51b81529182916004830161032256fe46756e6374696f6e206d7573742062652063616c6c6564207468726f75676820ddf252ad1be2c89b69c2b068fc378daa952ba7f163c4a11628f55a4df523b3efa264697066735822122081f859e410b825dcf332ea97fbb3a7e75030dd39e1bbf99946bec1fa20a73bf064736f6c63430008160033",
  "linkReferences": {},
  "deployedLinkReferences": {}
}