{
  "_format": "hh-sol-artifact-1",
  "contractName": "V4SecurityModule",
  "sourceName": "src/contracts/V4SecurityModule.sol",
  "abi": [
    {
      "anonymous": false,
      "inputs": [
        {
          "indexed": false,
          "internalType": "uint8",
          "name": "version",
          "type": "uint8"
        }
      ],
      "name": "Initialized",
      "type": "event"
    },
    {
      "anonymous": false,
      "inputs": [
        {
          "indexed": true,
          "internalType": "address",
          "name": "previousOwner",
          "type": "address"
        },
        {
          "indexed": true,
          "internalType": "address",
          "name": "newOwner",
          "type": "address"
        }
      ],
      "name": "OwnershipTransferred",
      "type": "event"
    },
    {
      "inputs": [
        {
          "internalType": "address",
          "name": "signer",
          "type": "address"
        }
      ],
      "name": "addSigner",
      "outputs": [
        {
          "internalType": "bool",
          "name": "",
          "type": "bool"
        }
      ],
      "stateMutability": "nonpayable",
      "type": "function"
    },
    {
      "inputs": [
        {
          "internalType": "bytes32",
          "name": "",
          "type": "bytes32"
        }
      ],
      "name": "confirmOwnershipTransfer",
      "outputs": [
        {
          "internalType": "bool",
          "name": "",
          "type": "bool"
        }
      ],
      "stateMutability": "pure",
      "type": "function"
    },
    {
      "inputs": [],
      "name": "emergencyPause",
      "outputs": [
        {
          "internalType": "bool",
          "name": "",
          "type": "bool"
        }
      ],
      "stateMutability": "nonpayable",
      "type": "function"
    },
    {
      "inputs": [],
      "name": "emergencyUnpause",
      "outputs": [
        {
          "internalType": "bool",
          "name": "",
          "type": "bool"
        }
      ],
      "stateMutability": "nonpayable",
      "type": "function"
    },
    {
      "inputs": [],
      "name": "getModuleType",
      "outputs": [
        {
          "internalType": "bytes32",
          "name": "",
          "type": "bytes32"
        }
      ],
      "stateMutability": "pure",
      "type": "function"
    },
    {
      "inputs": [],
      "name": "getSigners",
      "outputs": [
        {
          "internalType": "address[]",
          "name": "",
          "type": "address[]"
        }
      ],
      "stateMutability": "view",
      "type": "function"
    },
    {
      "inputs": [],
      "name": "getThreshold",
      "outputs": [
        {
          "internalType": "uint256",
          "name": "",
          "type": "uint256"
        }
      ],
      "stateMutability": "view",
      "type": "function"
    },
    {
      "inputs": [],
      "name": "getToken",
      "outputs": [
        {
          "internalType": "address",
          "name": "",
          "type": "address"
        }
      ],
      "stateMutability": "view",
      "type": "function"
    },
    {
      "inputs": [
        {
          "internalType": "address",
          "name": "tokenAddress",
          "type": "address"
        },
        {
          "internalType": "bytes",
          "name": "data",
          "type": "bytes"
        }
      ],
      "name": "initialize",
      "outputs": [],
      "stateMutability": "nonpayable",
      "type": "function"
    },
    {
      "inputs": [
        {
          "internalType": "address",
          "name": "account",
          "type": "address"
        }
      ],
      "name": "isSigner",
      "outputs": [
        {
          "internalType": "bool",
          "name": "",
          "type": "bool"
        }
      ],
      "stateMutability": "view",
      "type": "function"
    },
    {
      "inputs": [],
      "name": "owner",
      "outputs": [
        {
          "internalType": "address",
          "name": "",
          "type": "address"
        }
      ],
      "stateMutability": "view",
      "type": "function"
    },
    {
      "inputs": [
        {
          "internalType": "address",
          "name": "newOwner",
          "type": "address"
        }
      ],
      "name": "proposeOwnershipTransfer",
      "outputs": [
        {
          "internalType": "bytes32",
          "name": "",
          "type": "bytes32"
        }
      ],
      "stateMutability": "nonpayable",
      "type": "function"
    },
    {
      "inputs": [
        {
          "internalType": "address",
          "name": "signer",
          "type": "address"
        }
      ],
      "name": "removeSigner",
      "outputs": [
        {
          "internalType": "bool",
          "name": "",
          "type": "bool"
        }
      ],
      "stateMutability": "nonpayable",
      "type": "function"
    },
    {
      "inputs": [],
      "name": "renounceOwnership",
      "outputs": [],
      "stateMutability": "nonpayable",
      "type": "function"
    },
    {
      "inputs": [
        {
          "internalType": "uint256",
          "name": "threshold",
          "type": "uint256"
        }
      ],
      "name": "setThreshold",
      "outputs": [
        {
          "internalType": "bool",
          "name": "",
          "type": "bool"
        }
      ],
      "stateMutability": "nonpayable",
      "type": "function"
    },
    {
      "inputs": [
        {
          "internalType": "bytes4",
          "name": "functionSig",
          "type": "bytes4"
        }
      ],
      "name": "supportsFunction",
      "outputs": [
        {
          "internalType": "bool",
          "name": "",
          "type": "bool"
        }
      ],
      "stateMutability": "pure",
      "type": "function"
    },
    {
      "inputs": [
        {
          "internalType": "address",
          "name": "newOwner",
          "type": "address"
        }
      ],
      "name": "transferOwnership",
      "outputs": [],
      "stateMutability": "nonpayable",
      "type": "function"
    }
  ],
  "bytecode": "0x608080604052346100165761121f908161001c8239f35b600080fdfe6080604081815260048036101561001557600080fd5b600092833560e01c9081630b9349b914610cde575080630e316ab714610b7457806321040fc314610a1657806321df0da7146109ed5780634a4e3bd51461099e57806351858e27146108db578063715018a61461087e5780637df73e27146108385780638da5cb5b1461080f57806394cf795e14610709578063960bfe041461061c578063be46446414610507578063d1f578941461026f578063e500680114610252578063e75235b81461022f578063eb12d61e146101725763f2fde38b146100de57600080fd5b3461016e57602036600319011261016e576100f7610d18565b91610100610f78565b6001600160a01b0383161561011c578361011984610f2f565b80f35b906020608492519162461bcd60e51b8352820152602660248201527f4f776e61626c653a206e6577206f776e657220697320746865207a65726f206160448201526564647265737360d01b6064820152fd5b8280fd5b50823461022c57602036600319011261022c575061018e610d18565b6033546001600160a01b0391906101a89083163314610d33565b16906101c1826000526067602052604060002054151590565b6101d9576020836101d18461117e565b505160018152f35b608490602084519162461bcd60e51b8352820152602760248201527f563453656375726974794d6f64756c653a207369676e657220616c72656164796044820152662065786973747360c81b6064820152fd5b80fd5b50503461024e578160031936011261024e576020906068549051908152f35b5080fd5b50503461024e57602036600319011261024e576020905160018152f35b503461016e578160031936011261016e57610288610d18565b9060249182359267ffffffffffffffff928385116105035736602386011215610503578481013593841161050357368285870101116105035786549360ff8560081c1615948580966104f6575b80156104df575b156104865760ff198116600117895585610475575b5060209586820361041d578301359086811061040c575b5087546001600160a01b0391821694906103309060081c60ff1661032b81610fd0565b610fd0565b61033933610f2f565b61034285610f2f565b169182156103b35750509061036e916bffffffffffffffffffffffff60a01b606554161760655561117e565b50600160685561037c578280f35b7f7f26b83ff96e1f2b6a682f133852f6798a09c465da95921460cefb38474024989161ff001984541684555160018152a138808280f35b865162461bcd60e51b8152918201869052602e908201527f563453656375726974794d6f64756c653a20746f6b656e20616464726573732060448201526d63616e6e6f74206265207a65726f60901b6064820152608490fd5b60001990870360031b1b1638610308565b875162461bcd60e51b8152808401889052602d818601527f563453656375726974794d6f64756c653a20696e76616c696420696e6974696160448201526c6c697a6174696f6e206461746160981b6064820152608490fd5b61ffff1916610101178855386102f1565b875162461bcd60e51b8152602081850152602e818601527f496e697469616c697a61626c653a20636f6e747261637420697320616c72656160448201526d191e481a5b9a5d1a585b1a5e995960921b6064820152608490fd5b50303b1580156102dc5750600160ff8216146102dc565b50600160ff8216106102d5565b8680fd5b503461016e57602036600319011261016e57359063ffffffff60e01b821680920361016e57602092506321040fc360e01b821491821561060b575b82156105fa575b82156105e9575b82156105d8575b82156105c7575b82156105b6575b82156105a5575b8215610594575b8215610583575b50519015158152f35b634a4e3bd560e01b1491503861057a565b6351858e2760e01b81149250610573565b634a67bcaf60e11b8114925061056c565b631cea46b760e31b81149250610565565b637df73e2760e01b8114925061055e565b632582ff8160e21b81149250610557565b630e316ab760e01b81149250610550565b6375896b0f60e11b81149250610549565b63e500680160e01b81149250610542565b50913461022c57602036600319011261022c5750813561064760018060a01b03603354163314610d33565b80156106b357606654811161066457602092506068555160018152f35b815162461bcd60e51b81526020818501526024808201527f563453656375726974794d6f64756c653a207468726573686f6c6420746f6f206044820152630d0d2ced60e31b6064820152608490fd5b815162461bcd60e51b8152602081850152602a60248201527f563453656375726974794d6f64756c653a207468726573686f6c642063616e6e6044820152696f74206265207a65726f60b01b6064820152608490fd5b5082903461024e578160031936011261024e5782906066926066549161072e83610f17565b9061073b85519283610dbf565b83825261074784610f17565b6020968388019591601f1901368737845b8281106107a7575050505083519485948186019282875251809352850193925b82811061078757505050500390f35b83516001600160a01b031685528695509381019392810192600101610778565b818695979899965260018060a01b03817f46501879b8ca8525e8c2fd519e2fbfcfa2ebea26501294aa02cbfcfb12e9435401541687518210156107fc57600582901b8801870152949796959394600101610758565b634e487b7160e01b865260328552602486fd5b50503461024e578160031936011261024e5760335490516001600160a01b039091168152602090f35b50503461024e57602036600319011261024e576020906108756001600160a01b03610861610d18565b166000526067602052604060002054151590565b90519015158152f35b833461022c578060031936011261022c57610897610f78565b603380546001600160a01b0319811690915581906001600160a01b03167f8be0079c531659141344cd1fd0a4f28419497f9722a3daafe3b4186f6b6457e08280a380f35b503461016e578260031936011261016e5791806109569361091161090c336000526067602052604060002054151590565b610ebc565b8351638456cb5960e01b602082015281815290829061092f83610d8d565b60018060a01b036065541691829187519889958694859362ac0f6f60e71b85528401610e81565b03925af192831561099257602093610972575b50505160018152f35b61098d913d8091833e6109858183610dbf565b810190610e04565b610969565b509051903d90823e3d90fd5b503461016e578260031936011261016e579180610956936109cf61090c336000526067602052604060002054151590565b8351631fa5d41d60e11b602082015281815290829061092f83610d8d565b50503461024e578160031936011261024e5760655490516001600160a01b039091168152602090f35b5091903461024e57602036600319011261024e57610a32610d18565b6033546001600160a01b0390610a4b9082163314610d33565b808216918215610b1657610a5e90610f2f565b82519163f2fde38b60e01b6020840152602483015260248252606082019482861067ffffffffffffffff871117610b03575084835260655462ac0f6f60e71b865284918691168183605f1986610ab8818660648201610e81565b0301925af1938415610af757602094610ad4575b505051908152f35b6060610af2923d908187853e610aea8285610dbf565b010190610e04565b610acc565b505051903d90823e3d90fd5b634e487b7160e01b855260419052602484fd5b835162461bcd60e51b8152602081880152603260248201527f563453656375726974794d6f64756c653a206e6577206f776e65722063616e6e6044820152716f74206265207a65726f206164647265737360701b6064820152608490fd5b50823461022c57602036600319011261022c5750610b90610d18565b6033546001600160a01b039081169291610bab338514610d33565b1691610bc4836000526067602052604060002054151590565b15610c8b576066546068541015610c38578214610be7576020836101d18461107d565b608490602084519162461bcd60e51b8352820152602560248201527f563453656375726974794d6f64756c653a2063616e6e6f742072656d6f76652060448201526437bbb732b960d91b6064820152fd5b835162461bcd60e51b8152602081840152602760248201527f563453656375726974794d6f64756c653a20776f756c6420627265616b2074686044820152661c995cda1bdb1960ca1b6064820152608490fd5b835162461bcd60e51b8152602081840152602760248201527f563453656375726974794d6f64756c653a207369676e657220646f6573206e6f6044820152661d08195e1a5cdd60ca1b6064820152608490fd5b84903461024e578160031936011261024e57807fe8dfd5edbafe3b1a04db54003f904cfc4610e36b1414906e3f2255bd826e13cf60209252f35b600435906001600160a01b0382168203610d2e57565b600080fd5b15610d3a57565b60405162461bcd60e51b815260206004820152602560248201527f563453656375726974794d6f64756c653a2063616c6c6572206973206e6f742060448201526437bbb732b960d91b6064820152608490fd5b6040810190811067ffffffffffffffff821117610da957604052565b634e487b7160e01b600052604160045260246000fd5b90601f8019910116810190811067ffffffffffffffff821117610da957604052565b60005b838110610df45750506000910152565b8181015183820152602001610de4565b9190604083820312610d2e5782518015158103610d2e5792602081015167ffffffffffffffff91828211610d2e57019082601f83011215610d2e578151908111610da95760405192610e60601f8301601f191660200185610dbf565b81845260208284010111610d2e57610e7e9160208085019101610de1565b90565b909160609260018060a01b0316825260406020830152610eb08151809281604086015260208686019101610de1565b601f01601f1916010190565b15610ec357565b60405162461bcd60e51b815260206004820152602660248201527f563453656375726974794d6f64756c653a2063616c6c6572206973206e6f742060448201526539b4b3b732b960d11b6064820152608490fd5b67ffffffffffffffff8111610da95760051b60200190565b603380546001600160a01b039283166001600160a01b0319821681179092559091167f8be0079c531659141344cd1fd0a4f28419497f9722a3daafe3b4186f6b6457e0600080a3565b6033546001600160a01b03163303610f8c57565b606460405162461bcd60e51b815260206004820152602060248201527f4f776e61626c653a2063616c6c6572206973206e6f7420746865206f776e65726044820152fd5b15610fd757565b60405162461bcd60e51b815260206004820152602b60248201527f496e697469616c697a61626c653a20636f6e7472616374206973206e6f74206960448201526a6e697469616c697a696e6760a81b6064820152608490fd5b6066548110156110675760666000527f46501879b8ca8525e8c2fd519e2fbfcfa2ebea26501294aa02cbfcfb12e943540190600090565b634e487b7160e01b600052603260045260246000fd5b60008181526067602052604081205490919080156111795760001990808201818111611165576066549083820191821161115157808203611106575b50505060665480156110f2578101906110d182611030565b909182549160031b1b19169055606655815260676020526040812055600190565b634e487b7160e01b84526031600452602484fd5b61113b61111561112493611030565b90549060031b1c928392611030565b819391549060031b91821b91600019901b19161790565b90558452606760205260408420553880806110b9565b634e487b7160e01b86526011600452602486fd5b634e487b7160e01b85526011600452602485fd5b505090565b6000818152606760205260408120546111e457606654680100000000000000008110156111d05790826111bc61112484600160409601606655611030565b905560665492815260676020522055600190565b634e487b7160e01b82526041600452602482fd5b90509056fea26469706673582212204bd81ed9ce4e5a70988ba4b423b3078ef511c0cc284fa2c15dd6bede12bf688864736f6c63430008160033",
  "linkReferences": {},
  "deployedLinkReferences": {}
}