{
  "_format": "hh-sol-artifact-1",
  "contractName": "V4SecurityModule",
  "sourceName": "src/contracts/V4SecurityModule.sol",
  "abi": [
    {
      "inputs": [],
      "stateMutability": "nonpayable",
      "type": "constructor"
    },
    {
      "anonymous": false,
      "inputs": [
        {
          "indexed": false,
          "internalType": "address",
          "name": "trigger",
          "type": "address"
        }
      ],
      "name": "EmergencyPaused",
      "type": "event"
    },
    {
      "anonymous": false,
      "inputs": [
        {
          "indexed": false,
          "internalType": "address",
          "name": "trigger",
          "type": "address"
        }
      ],
      "name": "EmergencyUnpaused",
      "type": "event"
    },
    {
      "anonymous": false,
      "inputs": [
        {
          "indexed": false,
          "internalType": "uint8",
          "name": "version",
          "type": "uint8"
        }
      ],
      "name": "Initialized",
      "type": "event"
    },
    {
      "anonymous": false,
      "inputs": [
        {
          "indexed": true,
          "internalType": "bytes32",
          "name": "proposalId",
          "type": "bytes32"
        },
        {
          "indexed": true,
          "internalType": "address",
          "name": "signer",
          "type": "address"
        }
      ],
      "name": "OwnershipTransferConfirmed",
      "type": "event"
    },
    {
      "anonymous": false,
      "inputs": [
        {
          "indexed": true,
          "internalType": "bytes32",
          "name": "proposalId",
          "type": "bytes32"
        },
        {
          "indexed": true,
          "internalType": "address",
          "name": "proposedOwner",
          "type": "address"
        }
      ],
      "name": "OwnershipTransferProposed",
      "type": "event"
    },
    {
      "anonymous": false,
      "inputs": [
        {
          "indexed": true,
          "internalType": "address",
          "name": "previousOwner",
          "type": "address"
        },
        {
          "indexed": true,
          "internalType": "address",
          "name": "newOwner",
          "type": "address"
        }
      ],
      "name": "OwnershipTransferred",
      "type": "event"
    },
    {
      "anonymous": false,
      "inputs": [
        {
          "indexed": true,
          "internalType": "address",
          "name": "signer",
          "type": "address"
        }
      ],
      "name": "SignerAdded",
      "type": "event"
    },
    {
      "anonymous": false,
      "inputs": [
        {
          "indexed": true,
          "internalType": "address",
          "name": "signer",
          "type": "address"
        }
      ],
      "name": "SignerRemoved",
      "type": "event"
    },
    {
      "anonymous": false,
      "inputs": [
        {
          "indexed": false,
          "internalType": "uint256",
          "name": "oldThreshold",
          "type": "uint256"
        },
        {
          "indexed": false,
          "internalType": "uint256",
          "name": "newThreshold",
          "type": "uint256"
        }
      ],
      "name": "ThresholdChanged",
      "type": "event"
    },
    {
      "inputs": [],
      "name": "VERSION",
      "outputs": [
        {
          "internalType": "string",
          "name": "",
          "type": "string"
        }
      ],
      "stateMutability": "view",
      "type": "function"
    },
    {
      "inputs": [
        {
          "internalType": "address",
          "name": "signer",
          "type": "address"
        }
      ],
      "name": "addSigner",
      "outputs": [
        {
          "internalType": "bool",
          "name": "success",
          "type": "bool"
        }
      ],
      "stateMutability": "nonpayable",
      "type": "function"
    },
    {
      "inputs": [
        {
          "internalType": "bytes32",
          "name": "proposalId",
          "type": "bytes32"
        }
      ],
      "name": "confirmOwnershipTransfer",
      "outputs": [
        {
          "internalType": "bool",
          "name": "success",
          "type": "bool"
        }
      ],
      "stateMutability": "nonpayable",
      "type": "function"
    },
    {
      "inputs": [],
      "name": "emergencyPause",
      "outputs": [
        {
          "internalType": "bool",
          "name": "success",
          "type": "bool"
        }
      ],
      "stateMutability": "nonpayable",
      "type": "function"
    },
    {
      "inputs": [],
      "name": "emergencyUnpause",
      "outputs": [
        {
          "internalType": "bool",
          "name": "success",
          "type": "bool"
        }
      ],
      "stateMutability": "nonpayable",
      "type": "function"
    },
    {
      "inputs": [],
      "name": "getModuleType",
      "outputs": [
        {
          "internalType": "bytes32",
          "name": "moduleType",
          "type": "bytes32"
        }
      ],
      "stateMutability": "pure",
      "type": "function"
    },
    {
      "inputs": [],
      "name": "getSigners",
      "outputs": [
        {
          "internalType": "address[]",
          "name": "signers",
          "type": "address[]"
        }
      ],
      "stateMutability": "view",
      "type": "function"
    },
    {
      "inputs": [],
      "name": "getThreshold",
      "outputs": [
        {
          "internalType": "uint256",
          "name": "threshold",
          "type": "uint256"
        }
      ],
      "stateMutability": "view",
      "type": "function"
    },
    {
      "inputs": [],
      "name": "getToken",
      "outputs": [
        {
          "internalType": "address",
          "name": "tokenAddress",
          "type": "address"
        }
      ],
      "stateMutability": "view",
      "type": "function"
    },
    {
      "inputs": [
        {
          "internalType": "address",
          "name": "tokenAddress",
          "type": "address"
        },
        {
          "internalType": "address",
          "name": "owner",
          "type": "address"
        }
      ],
      "name": "initialize",
      "outputs": [],
      "stateMutability": "nonpayable",
      "type": "function"
    },
    {
      "inputs": [
        {
          "internalType": "address",
          "name": "tokenAddress",
          "type": "address"
        },
        {
          "internalType": "bytes",
          "name": "data",
          "type": "bytes"
        }
      ],
      "name": "initialize",
      "outputs": [],
      "stateMutability": "nonpayable",
      "type": "function"
    },
    {
      "inputs": [
        {
          "internalType": "address",
          "name": "account",
          "type": "address"
        }
      ],
      "name": "isSigner",
      "outputs": [
        {
          "internalType": "bool",
          "name": "",
          "type": "bool"
        }
      ],
      "stateMutability": "view",
      "type": "function"
    },
    {
      "inputs": [],
      "name": "owner",
      "outputs": [
        {
          "internalType": "address",
          "name": "",
          "type": "address"
        }
      ],
      "stateMutability": "view",
      "type": "function"
    },
    {
      "inputs": [
        {
          "internalType": "address",
          "name": "newOwner",
          "type": "address"
        }
      ],
      "name": "proposeOwnershipTransfer",
      "outputs": [
        {
          "internalType": "bytes32",
          "name": "proposalId",
          "type": "bytes32"
        }
      ],
      "stateMutability": "nonpayable",
      "type": "function"
    },
    {
      "inputs": [
        {
          "internalType": "address",
          "name": "signer",
          "type": "address"
        }
      ],
      "name": "removeSigner",
      "outputs": [
        {
          "internalType": "bool",
          "name": "success",
          "type": "bool"
        }
      ],
      "stateMutability": "nonpayable",
      "type": "function"
    },
    {
      "inputs": [],
      "name": "renounceOwnership",
      "outputs": [],
      "stateMutability": "nonpayable",
      "type": "function"
    },
    {
      "inputs": [
        {
          "internalType": "uint256",
          "name": "threshold",
          "type": "uint256"
        }
      ],
      "name": "setThreshold",
      "outputs": [
        {
          "internalType": "bool",
          "name": "success",
          "type": "bool"
        }
      ],
      "stateMutability": "nonpayable",
      "type": "function"
    },
    {
      "inputs": [
        {
          "internalType": "bytes4",
          "name": "functionSig",
          "type": "bytes4"
        }
      ],
      "name": "supportsFunction",
      "outputs": [
        {
          "internalType": "bool",
          "name": "hasFunction",
          "type": "bool"
        }
      ],
      "stateMutability": "pure",
      "type": "function"
    },
    {
      "inputs": [
        {
          "internalType": "address",
          "name": "newOwner",
          "type": "address"
        }
      ],
      "name": "transferOwnership",
      "outputs": [],
      "stateMutability": "nonpayable",
      "type": "function"
    }
  ],
  "bytecode": "0x608080604052346100c1576000549060ff8260081c1661006f575060ff80821603610034575b6040516118ad90816100c78239f35b60ff90811916176000557f7f26b83ff96e1f2b6a682f133852f6798a09c465da95921460cefb3847402498602060405160ff8152a138610025565b62461bcd60e51b815260206004820152602760248201527f496e697469616c697a61626c653a20636f6e747261637420697320696e697469604482015266616c697a696e6760c81b6064820152608490fd5b600080fdfe608060408181526004918236101561001657600080fd5b600092833560e01c9182630b9349b914611235575081630e316ab7146110b357816321040fc314610f0457816321df0da714610edb578163485cc95514610d535781634a4e3bd514610ca757816351858e2714610bc0578163715018a614610b635781637df73e2714610b1d5781638da5cb5b14610af457816394cf795e146109ee578163960bfe04146108db578163be464464146107c5578163d1f57894146104d9578163e50068011461032c578163e75235b81461030d578163eb12d61e146101d7578163f2fde38b14610141575063ffa1ad74146100f657600080fd5b3461013d578160031936011261013d578051610139916101158261128a565b60058252640342e302e360dc1b602083015251918291602083526020830190611301565b0390f35b5080fd5b9050346101d35760203660031901126101d35761015c61126f565b9161016561149d565b6001600160a01b03831615610181578361017e84611675565b80f35b906020608492519162461bcd60e51b8352820152602660248201527f4f776e61626c653a206e6577206f776e657220697320746865207a65726f206160448201526564647265737360d01b6064820152fd5b8280fd5b8391503461013d57602036600319011261013d576101f361126f565b6101fb61149d565b6001600160a01b03169081156102b257610222826000526067602052604060002054151590565b61025f57507f47d1c22a25bb3a5d4e481b9b1e6944c2eade3181a0a20b495ed61d35b5323f246020936102548361180c565b50519280a260018152f35b608490602085519162461bcd60e51b8352820152602760248201527f563453656375726974794d6f64756c653a207369676e657220616c72656164796044820152662065786973747360c81b6064820152fd5b608490602085519162461bcd60e51b8352820152602f60248201527f563453656375726974794d6f64756c653a207369676e65722063616e6e6f742060448201526e6265207a65726f206164647265737360881b6064820152fd5b50503461013d578160031936011261013d576020906068549051908152f35b9050346101d357602092836003193601126104d65781359161036361035e336000526067602052604060002054151590565b611326565b82825260698552838220546001600160a01b03161561048157828252606a8552838220338352855260ff848320541661043257828252606a85528382203383528552838220600160ff19825416179055828252606b85528382208054916001830180931161041f575055829033837fdf80324d9a2671f608ad6f7256bf79df613191679b5509c808735b25fbc378968380a3828152606b855220546068541115610410575b505160018152f35b610419906114f5565b38610408565b634e487b7160e01b845260119052602483fd5b835162461bcd60e51b8152908101859052602360248201527f563453656375726974794d6f64756c653a20616c726561647920636f6e6669726044820152621b595960ea1b6064820152608490fd5b835162461bcd60e51b8152908101859052602960248201527f563453656375726974794d6f64756c653a2070726f706f73616c20646f6573206044820152681b9bdd08195e1a5cdd60ba1b6064820152608490fd5b80fd5b9050346101d357816003193601126101d3576104f361126f565b906024359167ffffffffffffffff918284116107c157366023850112156107c157838101359283116107c15736602484860101116107c15785549060ff93848360081c1615938480956107b5575b801561079f575b61055190611383565b60019560ff19948688878316178c5561078e575b506020978884036107355790602488969594939201359289811061071f575b508a54600881901c821615966001600160a01b03948516966105dd93929189918f91908380610714575b80156106ff575b6105be90611383565b84161790556106ee575b508b5460081c166105d881611615565b611615565b6105e633611675565b6105ef84611675565b16908115610694575090610615916001600160601b0360a01b606554161760655561180c565b508260685561065e575b610627578380f35b7f7f26b83ff96e1f2b6a682f133852f6798a09c465da95921460cefb38474024989261ff0019855416855551908152a13880808380f35b61ff001985541685557f7f26b83ff96e1f2b6a682f133852f6798a09c465da95921460cefb3847402498838551848152a161061f565b875162461bcd60e51b8152908101879052602e60248201527f563453656375726974794d6f64756c653a20746f6b656e20616464726573732060448201526d63616e6e6f74206265207a65726f60901b6064820152608490fd5b61ffff1916610101178c55386105c8565b50303b1580156105b5575084861682146105b5565b5081868616106105ae565b600019908a0360031b1b909216916105dd610584565b895162461bcd60e51b81528086018a9052602d60248201527f563453656375726974794d6f64756c653a20696e76616c696420696e6974696160448201526c6c697a6174696f6e206461746160981b6064820152608490fd5b61ffff1916610101178a5538610565565b50303b1580156105485750838616600114610548565b50600186851610610541565b8580fd5b9050346101d35760203660031901126101d357359063ffffffff60e01b82168092036101d357602092506321040fc360e01b82149182156108ca575b82156108b9575b82156108a8575b8215610897575b8215610886575b8215610875575b8215610864575b8215610853575b8215610842575b50519015158152f35b634a4e3bd560e01b14915038610839565b6351858e2760e01b81149250610832565b634a67bcaf60e11b8114925061082b565b631cea46b760e31b81149250610824565b637df73e2760e01b8114925061081d565b632582ff8160e21b81149250610816565b630e316ab760e01b8114925061080f565b6375896b0f60e11b81149250610808565b63e500680160e01b81149250610801565b905082346104d65760203660031901126104d657508035906108fb61149d565b8115610998576066548211610949576020837f3164947cf0f49f08dd0cd80e671535b1e11590d347c55dcaa97ba3c24a96b33a81856068549080606855825191825285820152a15160018152f35b608490602084519162461bcd60e51b83528201526024808201527f563453656375726974794d6f64756c653a207468726573686f6c6420746f6f206044820152630d0d2ced60e31b6064820152fd5b608490602084519162461bcd60e51b8352820152602a60248201527f563453656375726974794d6f64756c653a207468726573686f6c642063616e6e6044820152696f74206265207a65726f60b01b6064820152fd5b8391503461013d578160031936011261013d57829060669260665491610a1383611485565b90610a20855192836112bc565b838252610a2c84611485565b6020968388019591601f1901368737845b828110610a8c575050505083519485948186019282875251809352850193925b828110610a6c57505050500390f35b83516001600160a01b031685528695509381019392810192600101610a5d565b818695979899965260018060a01b03817f46501879b8ca8525e8c2fd519e2fbfcfa2ebea26501294aa02cbfcfb12e943540154168751821015610ae157600582901b8801870152949796959394600101610a3d565b634e487b7160e01b865260328552602486fd5b50503461013d578160031936011261013d5760335490516001600160a01b039091168152602090f35b50503461013d57602036600319011261013d57602090610b5a6001600160a01b03610b4661126f565b166000526067602052604060002054151590565b90519015158152f35b83346104d657806003193601126104d657610b7c61149d565b603380546001600160a01b0319811690915581906001600160a01b03167f8be0079c531659141344cd1fd0a4f28419497f9722a3daafe3b4186f6b6457e08280a380f35b9050346101d357826003193601126101d3579180610c3793610bf261035e336000526067602052604060002054151590565b8351638456cb5960e01b6020820152818152908290610c108361128a565b60018060a01b036065541691829187519889958694859362ac0f6f60e71b85528401611463565b03925af1928315610c9b57602093610c7b575b50507fb8fad2fa0ed7a383e747c309ef2c4391d7b65592a48893e57ccc1fab70791456828251338152a15160018152f35b610c96913d8091833e610c8e81836112bc565b8101906113e6565b610c4a565b509051903d90823e3d90fd5b9050346101d357826003193601126101d3579180610cf793610cd961035e336000526067602052604060002054151590565b8351631fa5d41d60e11b6020820152818152908290610c108361128a565b03925af1928315610c9b57602093610d3b575b50507ff5cbf596165cc457b2cd92e8d8450827ee314968160a5696402d75766fc52caf828251338152a15160018152f35b610d4e913d8091833e610c8e81836112bc565b610d0a565b9050346101d357816003193601126101d357610d6d61126f565b602435916001600160a01b0380841692838503610ed757610dde87549560ff8760081c161596878098610eca575b8015610eb3575b610dab90611383565b60ff1981166001178a5587610ea2575b50610dd060ff8a5460081c166105d881611615565b610dd933611675565b611675565b16908115610e48575090610e04916001600160601b0360a01b606554161760655561180c565b506001606855610e12575080f35b60207f7f26b83ff96e1f2b6a682f133852f6798a09c465da95921460cefb38474024989161ff001984541684555160018152a180f35b608490602086519162461bcd60e51b8352820152602e60248201527f563453656375726974794d6f64756c653a20746f6b656e20616464726573732060448201526d63616e6e6f74206265207a65726f60901b6064820152fd5b61ffff191661010117895538610dbb565b50303b158015610da2575060ff8116600114610da2565b50600160ff821610610d9b565b8680fd5b50503461013d578160031936011261013d5760655490516001600160a01b039091168152602090f35b919050346101d357602092836003193601126104d657610f2261126f565b610f3c61035e336000526067602052604060002054151590565b6001600160a01b03811693841561105557835190868201926001600160601b03199060601b1683524260348301523360601b605483015260488252608082019082821067ffffffffffffffff831117611042575084525190208082526069855282822080546001600160a01b03191685179055606a85528282203383528552828220805460ff19166001908117909155818352606b86528383205592837fe5a786f1012d2dba581f6365afd7fc150ac07bff2dfac303ecdd70f090d79cda8380a3827fdf80324d9a2671f608ad6f7256bf79df613191679b5509c808735b25fbc37896339280a3600160685414611034575b51908152f35b61103d826114f5565b61102e565b634e487b7160e01b855260419052602484fd5b835162461bcd60e51b8152908101869052603260248201527f563453656375726974794d6f64756c653a206e6577206f776e65722063616e6e6044820152716f74206265207a65726f206164647265737360701b6064820152608490fd5b8391503461013d57602036600319011261013d576110cf61126f565b906110d861149d565b6001600160a01b03918216600081815260676020526040902054909290156111e257606654606854101561118f5760335416821461113e57507f3525e22824a8a7df2c9a6029941c824cf95b6447f1e13d5128fd3826d35afe8b6020936102548361170b565b608490602085519162461bcd60e51b8352820152602560248201527f563453656375726974794d6f64756c653a2063616e6e6f742072656d6f76652060448201526437bbb732b960d91b6064820152fd5b845162461bcd60e51b8152602081840152602760248201527f563453656375726974794d6f64756c653a20776f756c6420627265616b2074686044820152661c995cda1bdb1960ca1b6064820152608490fd5b845162461bcd60e51b8152602081840152602760248201527f563453656375726974794d6f64756c653a207369676e657220646f6573206e6f6044820152661d08195e1a5cdd60ca1b6064820152608490fd5b84903461013d578160031936011261013d57807fe8dfd5edbafe3b1a04db54003f904cfc4610e36b1414906e3f2255bd826e13cf60209252f35b600435906001600160a01b038216820361128557565b600080fd5b6040810190811067ffffffffffffffff8211176112a657604052565b634e487b7160e01b600052604160045260246000fd5b90601f8019910116810190811067ffffffffffffffff8211176112a657604052565b60005b8381106112f15750506000910152565b81810151838201526020016112e1565b9060209161131a815180928185528580860191016112de565b601f01601f1916010190565b1561132d57565b60405162461bcd60e51b815260206004820152602860248201527f563453656375726974794d6f64756c653a2063616c6c6572206973206e6f7420604482015267309039b4b3b732b960c11b6064820152608490fd5b1561138a57565b60405162461bcd60e51b815260206004820152602e60248201527f496e697469616c697a61626c653a20636f6e747261637420697320616c72656160448201526d191e481a5b9a5d1a585b1a5e995960921b6064820152608490fd5b919060408382031261128557825180151581036112855792602081015167ffffffffffffffff9182821161128557019082601f830112156112855781519081116112a65760405192611442601f8301601f1916602001856112bc565b818452602082840101116112855761146091602080850191016112de565b90565b6001600160a01b03909116815260406020820181905261146092910190611301565b67ffffffffffffffff81116112a65760051b60200190565b6033546001600160a01b031633036114b157565b606460405162461bcd60e51b815260206004820152602060248201527f4f776e61626c653a2063616c6c6572206973206e6f7420746865206f776e65726044820152fd5b6000818152606960205260408120546033546001600160a01b039493918516929085169161152284611675565b60405163f2fde38b60e01b602082015260248082018690528152606081019667ffffffffffffffff88118289101761160157604088905260655462ac0f6f60e71b895284918991168183605f198661157e818660648201611463565b0301925af19687156115f6577f8be0079c531659141344cd1fd0a4f28419497f9722a3daafe3b4186f6b6457e0949596976115d3575b5050815260696020526040812080546001600160a01b031916905580a3565b60606115f1923d908187853e6115e982856112bc565b0101906113e6565b6115b4565b6040513d85823e3d90fd5b634e487b7160e01b84526041600452602484fd5b1561161c57565b60405162461bcd60e51b815260206004820152602b60248201527f496e697469616c697a61626c653a20636f6e7472616374206973206e6f74206960448201526a6e697469616c697a696e6760a81b6064820152608490fd5b603380546001600160a01b039283166001600160a01b0319821681179092559091167f8be0079c531659141344cd1fd0a4f28419497f9722a3daafe3b4186f6b6457e0600080a3565b6066548110156116f55760666000527f46501879b8ca8525e8c2fd519e2fbfcfa2ebea26501294aa02cbfcfb12e943540190600090565b634e487b7160e01b600052603260045260246000fd5b600081815260676020526040812054909190801561180757600019908082018181116117f357606654908382019182116117df57808203611794575b50505060665480156117805781019061175f826116be565b909182549160031b1b19169055606655815260676020526040812055600190565b634e487b7160e01b84526031600452602484fd5b6117c96117a36117b2936116be565b90549060031b1c9283926116be565b819391549060031b91821b91600019901b19161790565b9055845260676020526040842055388080611747565b634e487b7160e01b86526011600452602486fd5b634e487b7160e01b85526011600452602485fd5b505090565b600081815260676020526040812054611872576066546801000000000000000081101561185e57908261184a6117b2846001604096016066556116be565b905560665492815260676020522055600190565b634e487b7160e01b82526041600452602482fd5b90509056fea26469706673582212209165beb61e0a4f2fa43adc31dfd200f3fea2239368e9a4468ee185d72eaf8e3d64736f6c63430008160033",
  "linkReferences": {},
  "deployedLinkReferences": {}
}