{
  "_format": "hh-sol-artifact-1",
  "contractName": "FeeMonitor",
  "sourceName": "contracts/FeeMonitor.sol",
  "abi": [
    {
      "anonymous": false,
      "inputs": [
        {
          "indexed": true,
          "internalType": "address",
          "name": "deployer",
          "type": "address"
        },
        {
          "indexed": false,
          "internalType": "uint256",
          "name": "amount",
          "type": "uint256"
        },
        {
          "indexed": false,
          "internalType": "uint256",
          "name": "timestamp",
          "type": "uint256"
        }
      ],
      "name": "FeeCollected",
      "type": "event"
    },
    {
      "inputs": [
        {
          "internalType": "address",
          "name": "",
          "type": "address"
        }
      ],
      "name": "deployerFees",
      "outputs": [
        {
          "internalType": "uint256",
          "name": "",
          "type": "uint256"
        }
      ],
      "stateMutability": "view",
      "type": "function"
    },
    {
      "inputs": [],
      "name": "getAnalytics",
      "outputs": [
        {
          "internalType": "uint256",
          "name": "_totalFees",
          "type": "uint256"
        },
        {
          "internalType": "uint256",
          "name": "_totalDeployments",
          "type": "uint256"
        },
        {
          "components": [
            {
              "internalType": "uint256",
              "name": "timestamp",
              "type": "uint256"
            },
            {
              "internalType": "uint256",
              "name": "amount",
              "type": "uint256"
            },
            {
              "internalType": "address",
              "name": "deployer",
              "type": "address"
            }
          ],
          "internalType": "struct FeeMonitor.FeeTransaction[]",
          "name": "_recentTransactions",
          "type": "tuple[]"
        }
      ],
      "stateMutability": "view",
      "type": "function"
    },
    {
      "inputs": [
        {
          "internalType": "address",
          "name": "deployer",
          "type": "address"
        },
        {
          "internalType": "uint256",
          "name": "amount",
          "type": "uint256"
        }
      ],
      "name": "recordFee",
      "outputs": [],
      "stateMutability": "nonpayable",
      "type": "function"
    },
    {
      "inputs": [],
      "name": "totalDeployments",
      "outputs": [
        {
          "internalType": "uint256",
          "name": "",
          "type": "uint256"
        }
      ],
      "stateMutability": "view",
      "type": "function"
    },
    {
      "inputs": [],
      "name": "totalFees",
      "outputs": [
        {
          "internalType": "uint256",
          "name": "",
          "type": "uint256"
        }
      ],
      "stateMutability": "view",
      "type": "function"
    },
    {
      "inputs": [
        {
          "internalType": "uint256",
          "name": "",
          "type": "uint256"
        }
      ],
      "name": "transactions",
      "outputs": [
        {
          "internalType": "uint256",
          "name": "timestamp",
          "type": "uint256"
        },
        {
          "internalType": "uint256",
          "name": "amount",
          "type": "uint256"
        },
        {
          "internalType": "address",
          "name": "deployer",
          "type": "address"
        }
      ],
      "stateMutability": "view",
      "type": "function"
    }
  ],
  "bytecode": "0x608060405234801561001057600080fd5b506105ae806100206000396000f3fe608060405234801561001057600080fd5b50600436106100625760003560e01c80630a6e0fd4146100675780630ccb2ec81461007c57806313114a9d1461009c57806366b9d100146100b35780639ace38c2146100d3578063fb35b4e41461010a575b600080fd5b61007a61007536600461041a565b610113565b005b61008461026d565b60405161009393929190610444565b60405180910390f35b6100a560025481565b604051908152602001610093565b6100a56100c13660046104b6565b60016020526000908152604090205481565b6100e66100e13660046104d8565b6103c2565b6040805193845260208401929092526001600160a01b031690820152606001610093565b6100a560035481565b6040805160608101825242815260208082018481526001600160a01b03868116848601818152600080546001808201835582805297517f290decd9548b62a8d60345a988386fc84ba6bc95484008f6362f93160ef3e56360039092029182015594517f290decd9548b62a8d60345a988386fc84ba6bc95484008f6362f93160ef3e56486015590517f290decd9548b62a8d60345a988386fc84ba6bc95484008f6362f93160ef3e56590940180546001600160a01b0319169490931693909317909155815291905290812080548392906101ee908490610507565b9250508190555080600260008282546102079190610507565b925050819055506001600360008282546102219190610507565b9091555050604080518281524260208201526001600160a01b038416917f108516ddcf5ba43cea6bb2cd5ff6d59ac196c1c86ccb9178332b9dd72d1ca561910160405180910390a25050565b60008054819060609082600a82116102855781610288565b600a5b905060008167ffffffffffffffff8111156102a5576102a5610520565b60405190808252806020026020018201604052801561030357816020015b6102f06040518060600160405280600081526020016000815260200160006001600160a01b031681525090565b8152602001906001900390816102c35790505b50905060005b828110156103ad5760008161031e8587610536565b6103289190610507565b8154811061033857610338610549565b6000918252602091829020604080516060810182526003909302909101805483526001810154938301939093526002909201546001600160a01b031691810191909152825183908390811061038f5761038f610549565b602002602001018190525080806103a59061055f565b915050610309565b50600254600354909790965090945092505050565b600081815481106103d257600080fd5b60009182526020909120600390910201805460018201546002909201549092506001600160a01b031683565b80356001600160a01b038116811461041557600080fd5b919050565b6000806040838503121561042d57600080fd5b610436836103fe565b946020939093013593505050565b600060608083018684526020868186015260408381870152828751808552608088019150838901945060005b818110156104a65785518051845285810151868501528401516001600160a01b0316848401529484019491860191600101610470565b50909a9950505050505050505050565b6000602082840312156104c857600080fd5b6104d1826103fe565b9392505050565b6000602082840312156104ea57600080fd5b5035919050565b634e487b7160e01b600052601160045260246000fd5b8082018082111561051a5761051a6104f1565b92915050565b634e487b7160e01b600052604160045260246000fd5b8181038181111561051a5761051a6104f1565b634e487b7160e01b600052603260045260246000fd5b600060018201610571576105716104f1565b506001019056fea264697066735822122030c2ace5d62e3145d8ab5e2d2e026d1677fbe0bc31a29ed0e43223b89b99a4bd64736f6c63430008140033",
  "linkReferences": {},
  "deployedLinkReferences": {}
}