{
  "_format": "hh-sol-artifact-1",
  "contractName": "V4LiquidityModule",
  "sourceName": "contracts/V4LiquidityModule.sol",
  "abi": [
    {
      "inputs": [],
      "stateMutability": "nonpayable",
      "type": "constructor"
    },
    {
      "anonymous": false,
      "inputs": [
        {
          "indexed": false,
          "internalType": "uint8",
          "name": "version",
          "type": "uint8"
        }
      ],
      "name": "Initialized",
      "type": "event"
    },
    {
      "anonymous": false,
      "inputs": [
        {
          "indexed": true,
          "internalType": "address",
          "name": "pair",
          "type": "address"
        },
        {
          "indexed": false,
          "internalType": "uint256",
          "name": "tokenAmount",
          "type": "uint256"
        },
        {
          "indexed": false,
          "internalType": "uint256",
          "name": "ethAmount",
          "type": "uint256"
        },
        {
          "indexed": false,
          "internalType": "uint256",
          "name": "liquidity",
          "type": "uint256"
        }
      ],
      "name": "LiquidityAdded",
      "type": "event"
    },
    {
      "anonymous": false,
      "inputs": [
        {
          "indexed": false,
          "internalType": "uint256",
          "name": "unlockTime",
          "type": "uint256"
        }
      ],
      "name": "LiquidityLocked",
      "type": "event"
    },
    {
      "anonymous": false,
      "inputs": [
        {
          "indexed": true,
          "internalType": "address",
          "name": "pair",
          "type": "address"
        },
        {
          "indexed": false,
          "internalType": "uint256",
          "name": "tokenAmount",
          "type": "uint256"
        },
        {
          "indexed": false,
          "internalType": "uint256",
          "name": "ethAmount",
          "type": "uint256"
        }
      ],
      "name": "LiquidityRemoved",
      "type": "event"
    },
    {
      "anonymous": false,
      "inputs": [
        {
          "indexed": true,
          "internalType": "address",
          "name": "previousOwner",
          "type": "address"
        },
        {
          "indexed": true,
          "internalType": "address",
          "name": "newOwner",
          "type": "address"
        }
      ],
      "name": "OwnershipTransferred",
      "type": "event"
    },
    {
      "inputs": [],
      "name": "QUICKSWAP_ROUTER",
      "outputs": [
        {
          "internalType": "address",
          "name": "",
          "type": "address"
        }
      ],
      "stateMutability": "view",
      "type": "function"
    },
    {
      "inputs": [],
      "name": "VERSION",
      "outputs": [
        {
          "internalType": "string",
          "name": "",
          "type": "string"
        }
      ],
      "stateMutability": "view",
      "type": "function"
    },
    {
      "inputs": [
        {
          "internalType": "uint256",
          "name": "tokenAmount",
          "type": "uint256"
        }
      ],
      "name": "addLiquidity",
      "outputs": [
        {
          "internalType": "bool",
          "name": "success",
          "type": "bool"
        }
      ],
      "stateMutability": "payable",
      "type": "function"
    },
    {
      "inputs": [
        {
          "internalType": "address",
          "name": "account",
          "type": "address"
        }
      ],
      "name": "getLPTokenBalance",
      "outputs": [
        {
          "internalType": "uint256",
          "name": "balance",
          "type": "uint256"
        }
      ],
      "stateMutability": "view",
      "type": "function"
    },
    {
      "inputs": [],
      "name": "getModuleType",
      "outputs": [
        {
          "internalType": "bytes32",
          "name": "moduleType",
          "type": "bytes32"
        }
      ],
      "stateMutability": "pure",
      "type": "function"
    },
    {
      "inputs": [],
      "name": "getReserves",
      "outputs": [
        {
          "internalType": "uint256",
          "name": "tokenReserve",
          "type": "uint256"
        },
        {
          "internalType": "uint256",
          "name": "ethReserve",
          "type": "uint256"
        }
      ],
      "stateMutability": "view",
      "type": "function"
    },
    {
      "inputs": [],
      "name": "getToken",
      "outputs": [
        {
          "internalType": "address",
          "name": "tokenAddress",
          "type": "address"
        }
      ],
      "stateMutability": "view",
      "type": "function"
    },
    {
      "inputs": [
        {
          "internalType": "address",
          "name": "tokenAddress",
          "type": "address"
        },
        {
          "internalType": "bytes",
          "name": "data",
          "type": "bytes"
        }
      ],
      "name": "initialize",
      "outputs": [],
      "stateMutability": "nonpayable",
      "type": "function"
    },
    {
      "inputs": [],
      "name": "liquidityLockDuration",
      "outputs": [
        {
          "internalType": "uint256",
          "name": "",
          "type": "uint256"
        }
      ],
      "stateMutability": "view",
      "type": "function"
    },
    {
      "inputs": [],
      "name": "liquidityPair",
      "outputs": [
        {
          "internalType": "address",
          "name": "",
          "type": "address"
        }
      ],
      "stateMutability": "view",
      "type": "function"
    },
    {
      "inputs": [
        {
          "internalType": "uint256",
          "name": "duration",
          "type": "uint256"
        }
      ],
      "name": "lockLiquidity",
      "outputs": [
        {
          "internalType": "bool",
          "name": "success",
          "type": "bool"
        }
      ],
      "stateMutability": "nonpayable",
      "type": "function"
    },
    {
      "inputs": [],
      "name": "owner",
      "outputs": [
        {
          "internalType": "address",
          "name": "",
          "type": "address"
        }
      ],
      "stateMutability": "view",
      "type": "function"
    },
    {
      "inputs": [
        {
          "internalType": "uint256",
          "name": "lpTokenAmount",
          "type": "uint256"
        }
      ],
      "name": "removeLiquidity",
      "outputs": [
        {
          "internalType": "bool",
          "name": "success",
          "type": "bool"
        }
      ],
      "stateMutability": "nonpayable",
      "type": "function"
    },
    {
      "inputs": [],
      "name": "renounceOwnership",
      "outputs": [],
      "stateMutability": "nonpayable",
      "type": "function"
    },
    {
      "inputs": [],
      "name": "router",
      "outputs": [
        {
          "internalType": "contract IUniswapV2Router02",
          "name": "",
          "type": "address"
        }
      ],
      "stateMutability": "view",
      "type": "function"
    },
    {
      "inputs": [
        {
          "internalType": "bytes4",
          "name": "functionSig",
          "type": "bytes4"
        }
      ],
      "name": "supportsFunction",
      "outputs": [
        {
          "internalType": "bool",
          "name": "hasFunction",
          "type": "bool"
        }
      ],
      "stateMutability": "pure",
      "type": "function"
    },
    {
      "inputs": [
        {
          "internalType": "address",
          "name": "newOwner",
          "type": "address"
        }
      ],
      "name": "transferOwnership",
      "outputs": [],
      "stateMutability": "nonpayable",
      "type": "function"
    }
  ],
  "bytecode": "0x608080604052346100c1576000549060ff8260081c1661006f575060ff80821603610034575b60405161137390816100c78239f35b60ff90811916176000557f7f26b83ff96e1f2b6a682f133852f6798a09c465da95921460cefb3847402498602060405160ff8152a138610025565b62461bcd60e51b815260206004820152602760248201527f496e697469616c697a61626c653a20636f6e747261637420697320696e697469604482015266616c697a696e6760c81b6064820152608490fd5b600080fdfe6040608081526004908136101561001557600080fd5b600090813560e01c80630902f1ac14610f915780630b9349b914610f5757806321df0da714610f2f5780632bfbd9cf14610e755780634ae01d5214610e5757806351c6590a1461096b578063715018a61461090e578063808a5457146108e65780638873edb8146108ba5780638da5cb5b146108925780639c8f9f231461057c578063be464464146104de578063d0919116146104b0578063d1f578941461020b578063f2fde38b14610175578063f887ea401461014d5763ffa1ad74146100dc57600080fd5b346101495781600319360112610149578051918183019083821067ffffffffffffffff83111761013657506101329350815260058252640342e302e360dc1b60208301525191829160208352602083019061102e565b0390f35b634e487b7160e01b815260418552602490fd5b5080fd5b503461014957816003193601126101495760665490516001600160a01b039091168152602090f35b50823461020757602036600319011261020757610190610fb8565b9161019961123c565b6001600160a01b038316156101b557836101b284611294565b80f35b906020608492519162461bcd60e51b8352820152602660248201527f4f776e61626c653a206e6577206f776e657220697320746865207a65726f206160448201526564647265737360d01b6064820152fd5b8280fd5b508234610207578160031936011261020757610225610fb8565b602480359267ffffffffffffffff928385116104ac57366023860112156104ac57848201359384116104ac57368385870101116104ac5786549360ff8560081c16159485809661049f575b8015610488575b1561042f5760ff19811660011789558561041e575b506020958682036103c557840135908681106103b4575b50906102d960018060a01b0380936102ca60ff8c5460081c166102c5816112dd565b6112dd565b6102d333611294565b16611294565b1691821561035a575050737e0987e5b3a30e3f2828572bb659a548460a3003906bffffffffffffffffffffffff60a01b908160655416176065556066541617606655610323578280f35b7f7f26b83ff96e1f2b6a682f133852f6798a09c465da95921460cefb38474024989161ff001984541684555160018152a181808280f35b855162461bcd60e51b8152918201859052602f908201527f56344c69717569646974794d6f64756c653a20746f6b656e206164647265737360448201526e2063616e6e6f74206265207a65726f60881b6064820152608490fd5b60001990870360031b1b16886102a3565b875162461bcd60e51b8152808501889052602e818701527f56344c69717569646974794d6f64756c653a20696e76616c696420696e69746960448201526d616c697a6174696f6e206461746160901b6064820152608490fd5b61ffff19166101011788558861028c565b875162461bcd60e51b8152602081860152602e818701527f496e697469616c697a61626c653a20636f6e747261637420697320616c72656160448201526d191e481a5b9a5d1a585b1a5e995960921b6064820152608490fd5b50303b1580156102775750600160ff821614610277565b50600160ff821610610270565b8680fd5b503461014957816003193601126101495760209051737e0987e5b3a30e3f2828572bb659a548460a30038152f35b50823461020757602036600319011261020757359063ffffffff60e01b821680920361020757602092506328e32c8560e11b821491821561056b575b821561055a575b8215610549575b8215610538575b50519015158152f35b630240bc6b60e21b1491508361052f565b63110e7db760e31b81149250610528565b632bfbd9cf60e01b81149250610521565b639c8f9f2360e01b8114925061051a565b50903461074057602092836003193601126101495780359161059c61123c565b6067546001600160a01b0393908416801561085b5760685442106108225785516370a0823160e01b815230858201528781602481855afa9081156108185790839185916107e3575b50106107a757606654865163095ea7b360e01b81529086166001600160a01b0316858201908152602081018490529091889183919082908790829060400103925af1801561079d57610769575b508360665416846065541685603354169461012c4201804211610756578851629d473b60e21b81526001600160a01b039384169281019283526020830195909552600060408301819052606083015291909516608086015260a085015290928591849182908590829060c00103925af191821561074a579084918180946106ee575b50507f96cd817c6329656790ef8fba7675405193677d39619571282f5e21f3a98cd05992936067541693825191825286820152a25160018152f35b928194508092503d8311610743575b6107078183610fd3565b8101031261074057508281857f96cd817c6329656790ef8fba7675405193677d39619571282f5e21f3a98cd059935191015192386106b3565b80fd5b503d6106fd565b508351903d90823e3d90fd5b634e487b7160e01b865260118252602486fd5b8681813d8311610796575b61077e8183610fd3565b810103126102075761078f906111b1565b5038610631565b503d610774565b86513d85823e3d90fd5b855162461bcd60e51b81528085018890526016602482015275496e73756666696369656e74204c5020746f6b656e7360501b6044820152606490fd5b809250898092503d8311610811575b6107fc8183610fd3565b8101031261080d57829051386105e4565b8380fd5b503d6107f2565b87513d86823e3d90fd5b855162461bcd60e51b81528085018890526013602482015272131a5c5d5a591a5d1e481a5cc81b1bd8dad959606a1b6044820152606490fd5b855162461bcd60e51b815280850188905260116024820152702737903634b8bab4b234ba3c903830b4b960791b6044820152606490fd5b503461014957816003193601126101495760335490516001600160a01b039091168152602090f35b5034610149576020366003190112610149576020906108df6108da610fb8565b6111be565b9051908152f35b503461014957816003193601126101495760675490516001600160a01b039091168152602090f35b823461074057806003193601126107405761092761123c565b603380546001600160a01b0319811690915581906001600160a01b03167f8be0079c531659141344cd1fd0a4f28419497f9722a3daafe3b4186f6b6457e08280a380f35b50602090833660031901831361080d5780359361098661123c565b8415610e09573415610dbd57606554606654845163095ea7b360e01b878201526001600160a01b0391821660248083019190915260448083018a905282529791928691601f199186918b91871690819084908b906109e5606482610fd3565b88519889968795869462ac0f6f60e71b865285015283015260448201610a0a9161102e565b03925af1918215610db3578592610d0c575b505015610cca578160665416826065541661012c420192834211610cb857875163f305d71960e01b81526001600160a01b03909216878301908152602081019190915260006040820181905260608281019190915230608083015260a0820194909452979896979096929187918290819060c001039134905af1928315610cad57809481968295610c65575b506067549284841615610afa575b50505050916060917f64b83944e79c3ce8d4c297411de637c3e102d064677aac0c163976ebdcd6f50e93606754169486519283528783015285820152a25160018152f35b606654895163c45a015560e01b8152908616918b828581865afa918215610c5b57908492918692610c3c575b508c8860655416948d51968780926315ab88c960e31b82525afa948515610c32578c9594928e94928a928997610c0c575b508260449596979851988997889663e6a4390560e01b88528701521690840152165afa918215610c015793809260609694927f64b83944e79c3ce8d4c297411de637c3e102d064677aac0c163976ebdcd6f50e989691610bd4575b5016906bffffffffffffffffffffffff60a01b16176067559193819389610ab6565b610bf491508b3d8d11610bfa575b610bec8183610fd3565b810190611067565b8b610bb2565b503d610be2565b8851903d90823e3d90fd5b869750610c298491604497983d8b11610bfa57610bec8183610fd3565b97969550610b57565b8c513d88823e3d90fd5b610c549192508d803d10610bfa57610bec8183610fd3565b908d610b26565b8b513d87823e3d90fd5b9550935094506060843d606011610ca5575b81610c8460609383610fd3565b81010312610ca15783519486888601519501519594959389610aa8565b8480fd5b3d9150610c77565b8651903d90823e3d90fd5b634e487b7160e01b8652601187528986fd5b845162461bcd60e51b81528085018790526018818901527f4661696c656420746f20617070726f766520726f7574657200000000000000006044820152606490fd5b9091503d8086833e610d1e8183610fd3565b81018782820312610daf57610d32826111b1565b928983015167ffffffffffffffff93848211610dab57019180601f84011215610da7578251938411610d9557610d718b8b5193601f8701160183610fd3565b8382528a84840101116104ac57908980610d8e949301910161100b565b8880610a1c565b634e487b7160e01b8852604189528b88fd5b8780fd5b8880fd5b8580fd5b87513d87823e3d90fd5b5082608492519162461bcd60e51b8352820152602160248201527f45544820616d6f756e74206d7573742062652067726561746572207468616e206044820152600360fc1b6064820152fd5b5082608492519162461bcd60e51b8352820152602360248201527f546f6b656e20616d6f756e74206d75737420626520677265617465722074686160448201526206e20360ec1b6064820152fd5b50346101495781600319360112610149576020906068549051908152f35b509034610740576020366003190112610740578235610e9261123c565b8015610eec57420192834211610ed9576020837f0b177c6d9c2aafdc1522f87e503e6d37d8a4692c1cf8c2530c187b0033bcfc948287806068558351908152a15160018152f35b634e487b7160e01b825260119052602490fd5b825162461bcd60e51b8152602081860152601f60248201527f4475726174696f6e206d7573742062652067726561746572207468616e2030006044820152606490fd5b503461014957816003193601126101495760655490516001600160a01b039091168152602090f35b5034610149578160031936011261014957602090517f52d22e3ac2ea27e4d6bb7045f396e855cdccc3e007bf437f4413b7cc0e3f6f5a8152f35b50903461074057806003193601126107405750610fac611086565b82519182526020820152f35b600435906001600160a01b0382168203610fce57565b600080fd5b90601f8019910116810190811067ffffffffffffffff821117610ff557604052565b634e487b7160e01b600052604160045260246000fd5b60005b83811061101e5750506000910152565b818101518382015260200161100e565b906020916110478151809281855285808601910161100b565b601f01601f1916010190565b51906001600160701b0382168203610fce57565b90816020910312610fce57516001600160a01b0381168103610fce5790565b6067546001600160a01b03908116919082156111a857604051630240bc6b60e21b815290606082600481875afa93841561113e57600092839561114a575b5090602060049260405193848092630dfe168160e01b82525afa91821561113e5760009261111d575b50806065541691161460001461110d576001600160701b03809116921690565b6001600160701b03928316921690565b61113791925060203d602011610bfa57610bec8183610fd3565b90386110ed565b6040513d6000823e3d90fd5b929094506060833d6060116111a0575b8161116760609383610fd3565b810103126107405761117883611053565b90604061118760208601611053565b94015163ffffffff8116036107405750919360206110c4565b3d915061115a565b50600091508190565b51908115158203610fce57565b6067546001600160a01b039081169190821561123457602460209260405194859384926370a0823160e01b84521660048301525afa90811561113e57600091611205575090565b90506020813d60201161122c575b8161122060209383610fd3565b81010312610fce575190565b3d9150611213565b505050600090565b6033546001600160a01b0316330361125057565b606460405162461bcd60e51b815260206004820152602060248201527f4f776e61626c653a2063616c6c6572206973206e6f7420746865206f776e65726044820152fd5b603380546001600160a01b039283166001600160a01b0319821681179092559091167f8be0079c531659141344cd1fd0a4f28419497f9722a3daafe3b4186f6b6457e0600080a3565b156112e457565b60405162461bcd60e51b815260206004820152602b60248201527f496e697469616c697a61626c653a20636f6e7472616374206973206e6f74206960448201526a6e697469616c697a696e6760a81b6064820152608490fdfea2646970667358221220f4cf4cce609611f528e3b5f9777a602dece43977bf8a0ee6b27d243bb0872f5664736f6c63430008160033",
  "linkReferences": {},
  "deployedLinkReferences": {}
}