{
  "_format": "hh-sol-artifact-1",
  "contractName": "TestToken",
  "sourceName": "src/contracts/test/TestToken.sol",
  "abi": [
    {
      "inputs": [
        {
          "internalType": "string",
          "name": "name",
          "type": "string"
        },
        {
          "internalType": "string",
          "name": "symbol",
          "type": "string"
        },
        {
          "internalType": "uint256",
          "name": "initialSupply",
          "type": "uint256"
        }
      ],
      "stateMutability": "nonpayable",
      "type": "constructor"
    },
    {
      "anonymous": false,
      "inputs": [
        {
          "indexed": true,
          "internalType": "address",
          "name": "owner",
          "type": "address"
        },
        {
          "indexed": true,
          "internalType": "address",
          "name": "spender",
          "type": "address"
        },
        {
          "indexed": false,
          "internalType": "uint256",
          "name": "value",
          "type": "uint256"
        }
      ],
      "name": "Approval",
      "type": "event"
    },
    {
      "anonymous": false,
      "inputs": [
        {
          "indexed": false,
          "internalType": "uint8",
          "name": "version",
          "type": "uint8"
        }
      ],
      "name": "Initialized",
      "type": "event"
    },
    {
      "anonymous": false,
      "inputs": [
        {
          "indexed": true,
          "internalType": "address",
          "name": "previousOwner",
          "type": "address"
        },
        {
          "indexed": true,
          "internalType": "address",
          "name": "newOwner",
          "type": "address"
        }
      ],
      "name": "OwnershipTransferred",
      "type": "event"
    },
    {
      "anonymous": false,
      "inputs": [
        {
          "indexed": true,
          "internalType": "address",
          "name": "from",
          "type": "address"
        },
        {
          "indexed": true,
          "internalType": "address",
          "name": "to",
          "type": "address"
        },
        {
          "indexed": false,
          "internalType": "uint256",
          "name": "value",
          "type": "uint256"
        }
      ],
      "name": "Transfer",
      "type": "event"
    },
    {
      "inputs": [
        {
          "internalType": "address",
          "name": "owner",
          "type": "address"
        },
        {
          "internalType": "address",
          "name": "spender",
          "type": "address"
        }
      ],
      "name": "allowance",
      "outputs": [
        {
          "internalType": "uint256",
          "name": "",
          "type": "uint256"
        }
      ],
      "stateMutability": "view",
      "type": "function"
    },
    {
      "inputs": [
        {
          "internalType": "address",
          "name": "spender",
          "type": "address"
        },
        {
          "internalType": "uint256",
          "name": "amount",
          "type": "uint256"
        }
      ],
      "name": "approve",
      "outputs": [
        {
          "internalType": "bool",
          "name": "",
          "type": "bool"
        }
      ],
      "stateMutability": "nonpayable",
      "type": "function"
    },
    {
      "inputs": [
        {
          "internalType": "address",
          "name": "account",
          "type": "address"
        }
      ],
      "name": "balanceOf",
      "outputs": [
        {
          "internalType": "uint256",
          "name": "",
          "type": "uint256"
        }
      ],
      "stateMutability": "view",
      "type": "function"
    },
    {
      "inputs": [],
      "name": "decimals",
      "outputs": [
        {
          "internalType": "uint8",
          "name": "",
          "type": "uint8"
        }
      ],
      "stateMutability": "view",
      "type": "function"
    },
    {
      "inputs": [
        {
          "internalType": "address",
          "name": "spender",
          "type": "address"
        },
        {
          "internalType": "uint256",
          "name": "subtractedValue",
          "type": "uint256"
        }
      ],
      "name": "decreaseAllowance",
      "outputs": [
        {
          "internalType": "bool",
          "name": "",
          "type": "bool"
        }
      ],
      "stateMutability": "nonpayable",
      "type": "function"
    },
    {
      "inputs": [
        {
          "internalType": "address",
          "name": "spender",
          "type": "address"
        },
        {
          "internalType": "uint256",
          "name": "addedValue",
          "type": "uint256"
        }
      ],
      "name": "increaseAllowance",
      "outputs": [
        {
          "internalType": "bool",
          "name": "",
          "type": "bool"
        }
      ],
      "stateMutability": "nonpayable",
      "type": "function"
    },
    {
      "inputs": [
        {
          "internalType": "string",
          "name": "name",
          "type": "string"
        },
        {
          "internalType": "string",
          "name": "symbol",
          "type": "string"
        },
        {
          "internalType": "uint256",
          "name": "initialSupply",
          "type": "uint256"
        }
      ],
      "name": "initialize",
      "outputs": [],
      "stateMutability": "nonpayable",
      "type": "function"
    },
    {
      "inputs": [
        {
          "internalType": "address",
          "name": "to",
          "type": "address"
        },
        {
          "internalType": "uint256",
          "name": "amount",
          "type": "uint256"
        }
      ],
      "name": "mint",
      "outputs": [],
      "stateMutability": "nonpayable",
      "type": "function"
    },
    {
      "inputs": [],
      "name": "name",
      "outputs": [
        {
          "internalType": "string",
          "name": "",
          "type": "string"
        }
      ],
      "stateMutability": "view",
      "type": "function"
    },
    {
      "inputs": [],
      "name": "owner",
      "outputs": [
        {
          "internalType": "address",
          "name": "",
          "type": "address"
        }
      ],
      "stateMutability": "view",
      "type": "function"
    },
    {
      "inputs": [],
      "name": "renounceOwnership",
      "outputs": [],
      "stateMutability": "nonpayable",
      "type": "function"
    },
    {
      "inputs": [],
      "name": "symbol",
      "outputs": [
        {
          "internalType": "string",
          "name": "",
          "type": "string"
        }
      ],
      "stateMutability": "view",
      "type": "function"
    },
    {
      "inputs": [],
      "name": "totalSupply",
      "outputs": [
        {
          "internalType": "uint256",
          "name": "",
          "type": "uint256"
        }
      ],
      "stateMutability": "view",
      "type": "function"
    },
    {
      "inputs": [
        {
          "internalType": "address",
          "name": "to",
          "type": "address"
        },
        {
          "internalType": "uint256",
          "name": "amount",
          "type": "uint256"
        }
      ],
      "name": "transfer",
      "outputs": [
        {
          "internalType": "bool",
          "name": "",
          "type": "bool"
        }
      ],
      "stateMutability": "nonpayable",
      "type": "function"
    },
    {
      "inputs": [
        {
          "internalType": "address",
          "name": "from",
          "type": "address"
        },
        {
          "internalType": "address",
          "name": "to",
          "type": "address"
        },
        {
          "internalType": "uint256",
          "name": "amount",
          "type": "uint256"
        }
      ],
      "name": "transferFrom",
      "outputs": [
        {
          "internalType": "bool",
          "name": "",
          "type": "bool"
        }
      ],
      "stateMutability": "nonpayable",
      "type": "function"
    },
    {
      "inputs": [
        {
          "internalType": "address",
          "name": "newOwner",
          "type": "address"
        }
      ],
      "name": "transferOwnership",
      "outputs": [],
      "stateMutability": "nonpayable",
      "type": "function"
    }
  ],
  "bytecode": "0x60806040523462000362576200116d803803806200001d8162000367565b928339810190606081830312620003625780516001600160401b03908181116200036257836200004f9184016200038d565b916020938482015183811162000362576200006b92016200038d565b825182811162000262576003918254916001958684811c9416801562000357575b8885101462000341578190601f94858111620002eb575b508890858311600114620002845760009262000278575b505060001982861b1c191690861b1783555b8051938411620002625760049586548681811c9116801562000257575b828210146200024257838111620001f7575b50809285116001146200018957509383949184926000956200017d575b50501b92600019911b1c19161790555b60058054336001600160a01b03198216811790925560405191906001600160a01b03167f8be0079c531659141344cd1fd0a4f28419497f9722a3daafe3b4186f6b6457e0600080a3610d6d9081620004008239f35b01519350388062000118565b92919084601f1981168860005285600020956000905b89838310620001dc5750505010620001c1575b50505050811b01905562000128565b01519060f884600019921b161c1916905538808080620001b2565b8587015189559097019694850194889350908101906200019f565b87600052816000208480880160051c82019284891062000238575b0160051c019087905b8281106200022b575050620000fb565b600081550187906200021b565b9250819262000212565b602288634e487b7160e01b6000525260246000fd5b90607f1690620000e9565b634e487b7160e01b600052604160045260246000fd5b015190503880620000ba565b90889350601f19831691876000528a6000209260005b8c828210620002d45750508411620002bb575b505050811b018355620000cc565b015160001983881b60f8161c19169055388080620002ad565b8385015186558c979095019493840193016200029a565b90915085600052886000208580850160051c8201928b861062000337575b918a91869594930160051c01915b82811062000327575050620000a3565b600081558594508a910162000317565b9250819262000309565b634e487b7160e01b600052602260045260246000fd5b93607f16936200008c565b600080fd5b6040519190601f01601f191682016001600160401b038111838210176200026257604052565b919080601f84011215620003625782516001600160401b0381116200026257602090620003c3601f8201601f1916830162000367565b92818452828287010111620003625760005b818110620003eb57508260009394955001015290565b8581018301518482018401528201620003d556fe6080604081815260048036101561001557600080fd5b600092833560e01c90816306fdde03146107ae57508063095ea7b31461078457806318160ddd1461076557806323b872dd1461069b578063313ce5671461067f578063395093511461062f57806340c10f19146105ff57806370a08231146105c8578063715018a61461056b5780638da5cb5b1461054257806395d89b411461043c578063a457c2d714610395578063a9059cbb14610364578063b119490e146101ee578063dd62ed3e146101a15763f2fde38b146100d357600080fd5b3461019d57602036600319011261019d576100ec6108e9565b906100f5610c3c565b6001600160a01b0391821692831561014b575050600554826bffffffffffffffffffffffff60a01b821617600555167f8be0079c531659141344cd1fd0a4f28419497f9722a3daafe3b4186f6b6457e08380a380f35b906020608492519162461bcd60e51b8352820152602660248201527f4f776e61626c653a206e6577206f776e657220697320746865207a65726f206160448201526564647265737360d01b6064820152fd5b8280fd5b5050346101ea57806003193601126101ea57806020926101bf6108e9565b6101c7610904565b6001600160a01b0391821683526001865283832091168252845220549051908152f35b5080fd5b503461019d57606036600319011261019d5767ffffffffffffffff81358181116103605761021f9036908401610952565b5060243590811161035c576102379036908301610952565b5060055460ff8160a81c16159182809361034c575b8015610332575b156102d8575060ff60a01b198116600160a01b17600555816102c0575b5061027d60443533610c94565b610285575080f35b6005805460ff60a81b1916905551600181527f7f26b83ff96e1f2b6a682f133852f6798a09c465da95921460cefb384740249890602090a180f35b61ffff60a01b191661010160a01b1760055538610270565b608490602085519162461bcd60e51b8352820152602e60248201527f496e697469616c697a61626c653a20636f6e747261637420697320616c72656160448201526d191e481a5b9a5d1a585b1a5e995960921b6064820152fd5b50303b1580156102535750600160ff8360a01c1614610253565b50600160ff8360a01c161061024c565b8380fd5b8480fd5b5050346101ea57806003193601126101ea5760209061038e6103846108e9565b6024359033610ace565b5160018152f35b5082346104395782600319360112610439576103af6108e9565b918360243592338152600160205281812060018060a01b03861682526020522054908282106103e85760208561038e85850387336109cc565b608490602086519162461bcd60e51b8352820152602560248201527f45524332303a2064656372656173656420616c6c6f77616e63652062656c6f77604482015264207a65726f60d81b6064820152fd5b80fd5b509190346101ea57816003193601126101ea5780519180938054916001908360011c9260018516948515610538575b60209586861081146105255785895290811561050157506001146104a9575b6104a5878761049b828c038361091a565b51918291826108a0565b0390f35b81529295507f8a35acfbc15ff81a39ae7d344fd709f28e8600b4aa8c65c6b64bfe7fe36bd19b5b8284106104ee57505050826104a59461049b9282010194388061048a565b80548685018801529286019281016104d0565b60ff19168887015250505050151560051b830101925061049b826104a5388061048a565b634e487b7160e01b845260228352602484fd5b93607f169361046b565b5050346101ea57816003193601126101ea5760055490516001600160a01b039091168152602090f35b8334610439578060031936011261043957610584610c3c565b600580546001600160a01b0319811690915581906001600160a01b03167f8be0079c531659141344cd1fd0a4f28419497f9722a3daafe3b4186f6b6457e08280a380f35b5050346101ea5760203660031901126101ea5760209181906001600160a01b036105f06108e9565b16815280845220549051908152f35b5050346101ea573660031901126104395761062c61061b6108e9565b610623610c3c565b60243590610c94565b80f35b5050346101ea57806003193601126101ea5761038e6020926106786106526108e9565b338352600186528483206001600160a01b038216845286529184902054602435906109a9565b90336109cc565b5050346101ea57816003193601126101ea576020905160128152f35b508290346101ea5760603660031901126101ea576106b76108e9565b6106bf610904565b91846044359460018060a01b0384168152600160205281812033825260205220549060001982036106f9575b60208661038e878787610ace565b84821061072257509183916107176020969561038e950333836109cc565b9193948193506106eb565b606490602087519162461bcd60e51b8352820152601d60248201527f45524332303a20696e73756666696369656e7420616c6c6f77616e63650000006044820152fd5b5050346101ea57816003193601126101ea576020906002549051908152f35b5050346101ea57806003193601126101ea5760209061038e6107a46108e9565b60243590336109cc565b929190503461035c578360031936011261035c57600354600181811c9186908281168015610896575b602095868610821461088357508488529081156108615750600114610808575b6104a5868661049b828b038361091a565b929550600383527fc2575a0e9e593c00f959f8c92f12db2869c3395a3b0502d05e2516446f71f85b5b82841061084e57505050826104a59461049b9282010194386107f7565b8054868501880152928601928101610831565b60ff191687860152505050151560051b830101925061049b826104a5386107f7565b634e487b7160e01b845260229052602483fd5b93607f16936107d7565b6020808252825181830181905290939260005b8281106108d557505060409293506000838284010152601f8019910116010190565b8181018601518482016040015285016108b3565b600435906001600160a01b03821682036108ff57565b600080fd5b602435906001600160a01b03821682036108ff57565b90601f8019910116810190811067ffffffffffffffff82111761093c57604052565b634e487b7160e01b600052604160045260246000fd5b81601f820112156108ff5780359067ffffffffffffffff821161093c5760405192610987601f8401601f19166020018561091a565b828452602083830101116108ff57816000926020809301838601378301015290565b919082018092116109b657565b634e487b7160e01b600052601160045260246000fd5b6001600160a01b03908116918215610a7d5716918215610a2d5760207f8c5be1e5ebec7d5bd14f71427d1e84f3dd0314c0f7b2291e5b200ac8c7c3b925918360005260018252604060002085600052825280604060002055604051908152a3565b60405162461bcd60e51b815260206004820152602260248201527f45524332303a20617070726f766520746f20746865207a65726f206164647265604482015261737360f01b6064820152608490fd5b60405162461bcd60e51b8152602060048201526024808201527f45524332303a20617070726f76652066726f6d20746865207a65726f206164646044820152637265737360e01b6064820152608490fd5b6001600160a01b03908116918215610be95716918215610b9857600082815280602052604081205491808310610b4457604082827fddf252ad1be2c89b69c2b068fc378daa952ba7f163c4a11628f55a4df523b3ef958760209652828652038282205586815220818154019055604051908152a3565b60405162461bcd60e51b815260206004820152602660248201527f45524332303a207472616e7366657220616d6f756e7420657863656564732062604482015265616c616e636560d01b6064820152608490fd5b60405162461bcd60e51b815260206004820152602360248201527f45524332303a207472616e7366657220746f20746865207a65726f206164647260448201526265737360e81b6064820152608490fd5b60405162461bcd60e51b815260206004820152602560248201527f45524332303a207472616e736665722066726f6d20746865207a65726f206164604482015264647265737360d81b6064820152608490fd5b6005546001600160a01b03163303610c5057565b606460405162461bcd60e51b815260206004820152602060248201527f4f776e61626c653a2063616c6c6572206973206e6f7420746865206f776e65726044820152fd5b6001600160a01b0316908115610cf2577fddf252ad1be2c89b69c2b068fc378daa952ba7f163c4a11628f55a4df523b3ef602082610cd66000946002546109a9565b60025584845283825260408420818154019055604051908152a3565b60405162461bcd60e51b815260206004820152601f60248201527f45524332303a206d696e7420746f20746865207a65726f2061646472657373006044820152606490fdfea2646970667358221220dce378a3815ba87016176626f641d356daa9fdf3b00bea366a5c8204bb40850264736f6c63430008160033",
  "linkReferences": {},
  "deployedLinkReferences": {}
}