{
  "_format": "hh-sol-artifact-1",
  "contractName": "TokenFactory_v2_Bake_v2",
  "sourceName": "src/contracts/TokenFactory_v2_Bake_v2.sol",
  "abi": [
    {
      "inputs": [
        {
          "internalType": "uint256",
          "name": "_listingFee",
          "type": "uint256"
        }
      ],
      "stateMutability": "nonpayable",
      "type": "constructor"
    },
    {
      "inputs": [
        {
          "internalType": "string",
          "name": "dexName",
          "type": "string"
        }
      ],
      "name": "DEXNotAvailable",
      "type": "error"
    },
    {
      "inputs": [
        {
          "internalType": "uint256",
          "name": "required",
          "type": "uint256"
        },
        {
          "internalType": "uint256",
          "name": "provided",
          "type": "uint256"
        }
      ],
      "name": "InsufficientETH",
      "type": "error"
    },
    {
      "inputs": [
        {
          "internalType": "uint256",
          "name": "required",
          "type": "uint256"
        },
        {
          "internalType": "uint256",
          "name": "provided",
          "type": "uint256"
        }
      ],
      "name": "InsufficientTokenAllowance",
      "type": "error"
    },
    {
      "inputs": [
        {
          "internalType": "uint256",
          "name": "percentage",
          "type": "uint256"
        }
      ],
      "name": "InvalidLiquidityPercentage",
      "type": "error"
    },
    {
      "inputs": [
        {
          "internalType": "address",
          "name": "token",
          "type": "address"
        },
        {
          "internalType": "uint256",
          "name": "ethAmount",
          "type": "uint256"
        },
        {
          "internalType": "uint256",
          "name": "tokenAmount",
          "type": "uint256"
        }
      ],
      "name": "LiquidityAdditionFailed",
      "type": "error"
    },
    {
      "inputs": [
        {
          "internalType": "address",
          "name": "token",
          "type": "address"
        },
        {
          "internalType": "address",
          "name": "router",
          "type": "address"
        }
      ],
      "name": "PairCreationFailed",
      "type": "error"
    },
    {
      "inputs": [
        {
          "internalType": "address",
          "name": "token",
          "type": "address"
        }
      ],
      "name": "TokenAlreadyListed",
      "type": "error"
    },
    {
      "anonymous": false,
      "inputs": [
        {
          "indexed": false,
          "internalType": "string",
          "name": "name",
          "type": "string"
        },
        {
          "indexed": false,
          "internalType": "address",
          "name": "router",
          "type": "address"
        }
      ],
      "name": "DEXAdded",
      "type": "event"
    },
    {
      "anonymous": false,
      "inputs": [
        {
          "indexed": false,
          "internalType": "string",
          "name": "name",
          "type": "string"
        },
        {
          "indexed": false,
          "internalType": "address",
          "name": "router",
          "type": "address"
        },
        {
          "indexed": false,
          "internalType": "bool",
          "name": "isActive",
          "type": "bool"
        }
      ],
      "name": "DEXUpdated",
      "type": "event"
    },
    {
      "anonymous": false,
      "inputs": [
        {
          "indexed": true,
          "internalType": "address",
          "name": "previousOwner",
          "type": "address"
        },
        {
          "indexed": true,
          "internalType": "address",
          "name": "newOwner",
          "type": "address"
        }
      ],
      "name": "OwnershipTransferred",
      "type": "event"
    },
    {
      "anonymous": false,
      "inputs": [
        {
          "indexed": true,
          "internalType": "address",
          "name": "token",
          "type": "address"
        },
        {
          "indexed": true,
          "internalType": "address",
          "name": "owner",
          "type": "address"
        },
        {
          "indexed": false,
          "internalType": "string",
          "name": "dexName",
          "type": "string"
        },
        {
          "indexed": false,
          "internalType": "uint256",
          "name": "initialLiquidity",
          "type": "uint256"
        },
        {
          "indexed": false,
          "internalType": "uint256",
          "name": "listingPrice",
          "type": "uint256"
        },
        {
          "indexed": false,
          "internalType": "uint256",
          "name": "liquidityPercentage",
          "type": "uint256"
        },
        {
          "indexed": false,
          "internalType": "uint256",
          "name": "listingTime",
          "type": "uint256"
        }
      ],
      "name": "TokenListed",
      "type": "event"
    },
    {
      "inputs": [],
      "name": "VERSION",
      "outputs": [
        {
          "internalType": "string",
          "name": "",
          "type": "string"
        }
      ],
      "stateMutability": "view",
      "type": "function"
    },
    {
      "inputs": [
        {
          "internalType": "string",
          "name": "name",
          "type": "string"
        },
        {
          "internalType": "address",
          "name": "router",
          "type": "address"
        }
      ],
      "name": "addDEX",
      "outputs": [],
      "stateMutability": "nonpayable",
      "type": "function"
    },
    {
      "inputs": [
        {
          "internalType": "string",
          "name": "",
          "type": "string"
        }
      ],
      "name": "dexRouters",
      "outputs": [
        {
          "internalType": "string",
          "name": "name",
          "type": "string"
        },
        {
          "internalType": "address",
          "name": "router",
          "type": "address"
        },
        {
          "internalType": "bool",
          "name": "isActive",
          "type": "bool"
        }
      ],
      "stateMutability": "view",
      "type": "function"
    },
    {
      "inputs": [
        {
          "internalType": "string",
          "name": "dexName",
          "type": "string"
        }
      ],
      "name": "getDEXRouter",
      "outputs": [
        {
          "components": [
            {
              "internalType": "string",
              "name": "name",
              "type": "string"
            },
            {
              "internalType": "address",
              "name": "router",
              "type": "address"
            },
            {
              "internalType": "bool",
              "name": "isActive",
              "type": "bool"
            }
          ],
          "internalType": "struct TokenFactory_v2_Bake_v2.DEXRouter",
          "name": "",
          "type": "tuple"
        }
      ],
      "stateMutability": "view",
      "type": "function"
    },
    {
      "inputs": [],
      "name": "getListedTokens",
      "outputs": [
        {
          "internalType": "address[]",
          "name": "",
          "type": "address[]"
        }
      ],
      "stateMutability": "view",
      "type": "function"
    },
    {
      "inputs": [],
      "name": "getListingFee",
      "outputs": [
        {
          "internalType": "uint256",
          "name": "",
          "type": "uint256"
        }
      ],
      "stateMutability": "view",
      "type": "function"
    },
    {
      "inputs": [],
      "name": "getSupportedDEXes",
      "outputs": [
        {
          "internalType": "string[]",
          "name": "",
          "type": "string[]"
        }
      ],
      "stateMutability": "view",
      "type": "function"
    },
    {
      "inputs": [
        {
          "internalType": "address",
          "name": "token",
          "type": "address"
        }
      ],
      "name": "getTokenInfo",
      "outputs": [
        {
          "components": [
            {
              "internalType": "address",
              "name": "token",
              "type": "address"
            },
            {
              "internalType": "address",
              "name": "owner",
              "type": "address"
            },
            {
              "internalType": "bool",
              "name": "isListed",
              "type": "bool"
            },
            {
              "internalType": "string",
              "name": "dexName",
              "type": "string"
            },
            {
              "internalType": "uint256",
              "name": "listingTime",
              "type": "uint256"
            },
            {
              "internalType": "uint256",
              "name": "liquidityPercentage",
              "type": "uint256"
            }
          ],
          "internalType": "struct TokenFactory_v2_Bake_v2.TokenInfo",
          "name": "",
          "type": "tuple"
        }
      ],
      "stateMutability": "view",
      "type": "function"
    },
    {
      "inputs": [
        {
          "internalType": "address",
          "name": "token",
          "type": "address"
        }
      ],
      "name": "isListed",
      "outputs": [
        {
          "internalType": "bool",
          "name": "",
          "type": "bool"
        }
      ],
      "stateMutability": "view",
      "type": "function"
    },
    {
      "inputs": [
        {
          "internalType": "address",
          "name": "tokenAddress",
          "type": "address"
        },
        {
          "internalType": "uint256",
          "name": "initialLiquidityInETH",
          "type": "uint256"
        },
        {
          "internalType": "uint256",
          "name": "listingPriceInETH",
          "type": "uint256"
        },
        {
          "internalType": "string",
          "name": "dexName",
          "type": "string"
        },
        {
          "internalType": "uint256",
          "name": "liquidityPercentage",
          "type": "uint256"
        }
      ],
      "name": "listTokenOnDEX",
      "outputs": [],
      "stateMutability": "payable",
      "type": "function"
    },
    {
      "inputs": [
        {
          "internalType": "uint256",
          "name": "",
          "type": "uint256"
        }
      ],
      "name": "listedTokens",
      "outputs": [
        {
          "internalType": "address",
          "name": "",
          "type": "address"
        }
      ],
      "stateMutability": "view",
      "type": "function"
    },
    {
      "inputs": [],
      "name": "listingFee",
      "outputs": [
        {
          "internalType": "uint256",
          "name": "",
          "type": "uint256"
        }
      ],
      "stateMutability": "view",
      "type": "function"
    },
    {
      "inputs": [],
      "name": "owner",
      "outputs": [
        {
          "internalType": "address",
          "name": "",
          "type": "address"
        }
      ],
      "stateMutability": "view",
      "type": "function"
    },
    {
      "inputs": [],
      "name": "renounceOwnership",
      "outputs": [],
      "stateMutability": "nonpayable",
      "type": "function"
    },
    {
      "inputs": [
        {
          "internalType": "uint256",
          "name": "_newFee",
          "type": "uint256"
        }
      ],
      "name": "setListingFee",
      "outputs": [],
      "stateMutability": "nonpayable",
      "type": "function"
    },
    {
      "inputs": [
        {
          "internalType": "uint256",
          "name": "",
          "type": "uint256"
        }
      ],
      "name": "supportedDEXes",
      "outputs": [
        {
          "internalType": "string",
          "name": "",
          "type": "string"
        }
      ],
      "stateMutability": "view",
      "type": "function"
    },
    {
      "inputs": [
        {
          "internalType": "address",
          "name": "",
          "type": "address"
        }
      ],
      "name": "tokenInfo",
      "outputs": [
        {
          "internalType": "address",
          "name": "token",
          "type": "address"
        },
        {
          "internalType": "address",
          "name": "owner",
          "type": "address"
        },
        {
          "internalType": "bool",
          "name": "isListed",
          "type": "bool"
        },
        {
          "internalType": "string",
          "name": "dexName",
          "type": "string"
        },
        {
          "internalType": "uint256",
          "name": "listingTime",
          "type": "uint256"
        },
        {
          "internalType": "uint256",
          "name": "liquidityPercentage",
          "type": "uint256"
        }
      ],
      "stateMutability": "view",
      "type": "function"
    },
    {
      "inputs": [
        {
          "internalType": "address",
          "name": "newOwner",
          "type": "address"
        }
      ],
      "name": "transferOwnership",
      "outputs": [],
      "stateMutability": "nonpayable",
      "type": "function"
    },
    {
      "inputs": [
        {
          "internalType": "string",
          "name": "name",
          "type": "string"
        },
        {
          "internalType": "address",
          "name": "router",
          "type": "address"
        },
        {
          "internalType": "bool",
          "name": "isActive",
          "type": "bool"
        }
      ],
      "name": "updateDEX",
      "outputs": [],
      "stateMutability": "nonpayable",
      "type": "function"
    },
    {
      "inputs": [],
      "name": "withdrawFees",
      "outputs": [],
      "stateMutability": "nonpayable",
      "type": "function"
    }
  ],
  "bytecode": "0x60803461009b57601f611d7f38819003918201601f19168301916001600160401b038311848410176100a05780849260209460405283398101031261009b575160008054336001600160a01b0319821681178355604051939290916001600160a01b0316907f8be0079c531659141344cd1fd0a4f28419497f9722a3daafe3b4186f6b6457e09080a360018055600655611cc890816100b78239f35b600080fd5b634e487b7160e01b600052604160045260246000fdfe60a0604052600436101561001257600080fd5b6000803560e01c8063131dbd091461188d5780631f69565f1461178f57806324b2982f1461151f5780632ba996a514611459578063386e07bf14611354578063476343ee146113055780634caf81f5146112a25780635a9d1ac31461125e5780635e7ffa67146111b35780636a1b7ecc14610cca578063715018a61461115957806378e3399d1461108d5780638da5cb5b146110665780639618677014610ce8578063b8fe6abe14610cca578063e60d538c14610309578063f2fde38b14610243578063f5dab711146101b3578063f794062e1461016d5763ffa1ad74146100f957600080fd5b3461016a578060031936011261016a5760405160408101908082106001600160401b03831117610154576101509160405260058152640322e312e360dc1b6020820152604051918291602083526020830190611904565b0390f35b634e487b7160e01b600052604160045260246000fd5b80fd5b503461016a57602036600319011261016a5760209060ff906001906040906001600160a01b0361019b6118b0565b1681526004855220015460a01c166040519015158152f35b503461016a57602036600319011261016a576001600160a01b0390604090826101da6118b0565b168152600460205220818154169060018101546102346101fc60028401611a7e565b60ff600460038601549501549360405197889788528116602088015260a01c161515604086015260c0606086015260c0850190611904565b91608084015260a08301520390f35b503461016a57602036600319011261016a5761025d6118b0565b610265611c3a565b6001600160a01b039081169081156102b557600054826001600160601b0360a01b821617600055167f8be0079c531659141344cd1fd0a4f28419497f9722a3daafe3b4186f6b6457e0600080a380f35b60405162461bcd60e51b815260206004820152602660248201527f4f776e61626c653a206e6577206f776e657220697320746865207a65726f206160448201526564647265737360d01b6064820152608490fd5b5060a036600319011261016a5761031e6118b0565b6001600160401b0391606435838111610cc65761033f903690600401611929565b90600260015414610c8157600260019081556001600160a01b0385168452600460205260408420015460a01c60ff16610c605760065461038181602435611be0565b3410610c38575060ff6001604051848482376020818681016002815203019020015460a01c1615610c13576001608435108015610c07575b610bed57604051638da5cb5b60e01b81526020816004816001600160a01b0389165afa908115610be2578491610bc3575b50336001600160a01b0390911603610b8c576040518282823760028184019081528190036020908101909120600101546040516318160ddd60e01b815296916001600160a01b0391821691889060049082908a165afa968715610b81578597610b4d575b508660843581020460843514871517156109b657604051636eb1769f60e11b81523360048201523060248201526020816044816001600160a01b038b165afa9081156109f9578691610b1b575b5060646084358902048110610af657506040516323b872dd60e01b8152336004820152306024820152606460843589028190046044830152602090829081896001600160a01b038c165af180156109f957610ad7575b5060405163c45a015560e01b8152602081600481855afa9081156109f9578691610ab8575b506040516315ab88c960e31b815290602082600481865afa918215610a2f579160209161057c938992610a99575b506040516364e329cb60e11b81526001600160a01b03808c1660048301529092166024830152909283919082908a9082906044820190565b03926001600160a01b03165af19081156109f9578691610a6a575b506001600160a01b03811615610a3a576001600160a01b0387163b15610a185760405163c0d7865560e01b8152600481018390528681602481836001600160a01b038d165af18015610a2f57610a1c575b506001600160a01b0387163b15610a18576040516340c3fa8b60e11b81526001600160a01b0391821660048201529086908290602490829084908c165af180156109f957908691610a04575b505060405163095ea7b360e01b81526004810182905260646084358902046024820152602081604481896001600160a01b038c165af180156109f9576109ca575b5061012c420142116109b657606060c4916040519283809263f305d71960e01b825260018060a01b038b16600483015260646084358d0204602483015289604483015289606483015230608483015261012c420160a4830152602435905af19081610987575b5061071657604051630baff61160e21b81526001600160a01b0386166004820152602480359082015260646084358802819004604483015290fd5b60409493945161072581611a14565b6001600160a01b0385168152336020820190815260016040830190815292906107c8610752368888611b23565b6060850190815242608086015260843560a0808701919091526001600160a01b038a81168c52600460205260408c20875181546001600160a01b031916908316178155945160018601805499516001600160a81b0319909a16919092161797151590911b60ff60a01b1696909617909555909390565b518051918211610973576107ec826107e360028701546119da565b60028701611b69565b602090601f8311600114610901578260a09360049593610822938c926108f6575b50508160011b916000199060031b1c19161790565b60028501555b608081015160038501550151910155600554600160401b8110156108e2577fb1b1441b44e755d0ff393d98be7e74e1b77d6eed2a4cbcaa5937343b88eae2469161087b8260016108ab94016005556119a3565b81546001600160a01b0388811660039390931b92831b921b191617905560405160a0808252909490850191611bbf565b60243560208401526044356040840152608435606084015242608084015233936001600160a01b0316929081900390a36001805580f35b634e487b7160e01b85526041600452602485fd5b015190508b8061080d565b906002850189526020892091895b601f198516811061095b5750926004949260019260a09583601f19811610610942575b505050811b016002850155610828565b015160001960f88460031b161c191690558a8080610932565b9192602060018192868501518155019401920161090f565b634e487b7160e01b88526041600452602488fd5b606090813d83116109af575b61099d8183611a5d565b810103126109ab57386106db565b8480fd5b503d610993565b634e487b7160e01b85526011600452602485fd5b6109eb9060203d6020116109f2575b6109e38183611a5d565b810190611c22565b5038610675565b503d6109d9565b6040513d88823e3d90fd5b610a0d90611a4a565b6109ab578438610634565b8580fd5b610a2890969196611a4a565b94386105e8565b6040513d89823e3d90fd5b50604051634fe1e92b60e11b81526001600160a01b038781166004830152919091166024820152604490fd5b0390fd5b610a8c915060203d602011610a92575b610a848183611a5d565b810190611c03565b38610597565b503d610a7a565b610ab1919250833d8511610a9257610a848183611a5d565b9038610544565b610ad1915060203d602011610a9257610a848183611a5d565b38610516565b610aef9060203d6020116109f2576109e38183611a5d565b50386104f1565b8760449160646040519263dc98d7bb60e01b8452608435020460048301526024820152fd5b90506020813d602011610b45575b81610b3660209383611a5d565b81010312610a1857513861049b565b3d9150610b29565b9096506020813d602011610b79575b81610b6960209383611a5d565b810103126109ab5751953861044e565b3d9150610b5c565b6040513d87823e3d90fd5b60405162461bcd60e51b815260206004820152600f60248201526e2737ba103a37b5b2b71037bbb732b960891b6044820152606490fd5b610bdc915060203d602011610a9257610a848183611a5d565b386103ea565b6040513d86823e3d90fd5b604051631bd0111360e21b81526084356004820152602490fd5b506064608435116103b9565b6040516379370a7560e01b815260206004820152918291610a66916024840191611bbf565b610c46604491602435611be0565b6040519062fdf57560e51b82526004820152346024820152fd5b604051633fb6e97160e01b81526001600160a01b0385166004820152602490fd5b60405162461bcd60e51b815260206004820152601f60248201527f5265656e7472616e637947756172643a207265656e7472616e742063616c6c006044820152606490fd5b5080fd5b503461016a578060031936011261016a576020600654604051908152f35b503461016a57604036600319011261016a576001600160401b0360043581811161106257610d1a903690600401611929565b9290610d246118cb565b93610d2d611c3a565b6040518183823760028183019081526001608081905290829003602090810190922001546001600160a01b039081166110285760405196610d6d88611a2f565b610d78368587611b23565b8852818389019116918282526040890190608051825260405186888237858188810160028152030190209951998a518a811161101457610dc281610dbc84546119da565b84611b69565b86601f8211600114610fa8579080610df9928c9d9e610e33999a9b9c9d92610f9d5750508160011b916000199060031b1c19161790565b81555b608051019251166001600160601b0360a01b83541617825551151581549060ff60a01b90151560a01b169060ff60a01b1916179055565b600354600160401b811015610f8957610e53906080518101600355611956565b969096610f755783116108e257610e7483610e6e88546119da565b88611b69565b8495601f8411600114610ef357610ec4848088997fdc80caac0fc930b05b1b5c1f27f1b45d60b2fa42a563cfaa28619f76da9efccc9991610ee8575b508160011b916000199060031b1c19161790565b90555b610ede604051948594604086526040860191611bbf565b918301520390a180f35b905087013538610eb0565b808652828620601f19851697875b898110610f5d5750857fdc80caac0fc930b05b1b5c1f27f1b45d60b2fa42a563cfaa28619f76da9efccc989910610f43575b505060805184811b019055610ec7565b860135600019600387901b60f8161c191690553880610f33565b9091858091848a013581556080510193019101610f01565b634e487b7160e01b86526004869052602486fd5b634e487b7160e01b86526041600452602486fd5b01519050388061080d565b828b52878b2090601f1983168c5b818110610ffc57509d83610e33999a9b9c9d9e9f10610fe3575b505050608051906080511b018155610dfc565b015160001960f88460031b161c19169055388080610fd0565b8f830151845560805190930192918a01918a01610fb6565b634e487b7160e01b8a52604160045260248afd5b60405162461bcd60e51b815260048101839052601260248201527144455820616c72656164792065786973747360701b6044820152606490fd5b8280fd5b503461016a578060031936011261016a57546040516001600160a01b039091168152602090f35b503461016a57602080600319360112610cc6576004356001600160401b0381116110625791816110c36060943690600401611929565b92604080516110d181611a2f565b8781528285820152015282604051938492833781016002815203019020906001604051926110fe84611a2f565b61110781611a7e565b8452015460018060a01b0361114583850193828416855260ff604087019460a01c161515845260405196879682885251918701526080860190611904565b925116604084015251151560608301520390f35b503461016a578060031936011261016a57611172611c3a565b80546001600160a01b03198116825581906001600160a01b03167f8be0079c531659141344cd1fd0a4f28419497f9722a3daafe3b4186f6b6457e08280a380f35b503461016a57602036600319011261016a57600435906001600160401b03821161016a573660238301121561016a5761123d61120f60206111fc36600487013560248801611b23565b81604051938285809451938492016118e1565b81016002815203019020600161122482611a7e565b91015460ff604051938493606085526060850190611904565b6001600160a01b038316602085015260a09290921c16151560408301520390f35b503461016a57602036600319011261016a576004359060055482101561016a576020611289836119a3565b905460405160039290921b1c6001600160a01b03168152f35b503461016a57602036600319011261016a57600435600354811015610cc6576112ca90611956565b9190916112f1576101506112dd83611a7e565b604051918291602083526020830190611904565b634e487b7160e01b81526004819052602490fd5b503461016a578060031936011261016a5761131e611c3a565b8080808060018060a01b03815416479082821561134b575bf11561133f5780f35b604051903d90823e3d90fd5b506108fc611336565b503461016a578060031936011261016a576003546001600160401b03811161144557906020916040519161138d848360051b0184611a5d565b8183526003815283830191817fc2575a0e9e593c00f959f8c92f12db2869c3395a3b0502d05e2516446f71f85b845b8383106114215750505050604051928484019085855251809152604084019460408260051b8601019392955b8287106113f55785850386f35b909192938280611411600193603f198a82030186528851611904565b96019201960195929190926113e8565b6001888192611433859b9a989b611a7e565b815201920192019190969395966113bc565b634e487b7160e01b82526041600452602482fd5b503461016a578060031936011261016a5760405180916005549081835260208093018092600583527f036b6384b5eca791c62761152d0c79bb0604c104a5fb6f4eb0703f3154bb3db090835b81811061150257505050846114bb910385611a5d565b60405193838594850191818652518092526040850193925b8281106114e257505050500390f35b83516001600160a01b0316855286955093810193928101926001016114d3565b82546001600160a01b0316845292860192600192830192016114a5565b503461016a57606036600319011261016a576001600160401b0390600435828111610cc657611552903690600401611929565b61155a6118cb565b936044358015158091036109ab57611570611c3a565b6040519183858437838301966002885260018060a01b0380600186819b6020988991030190200154161561175a576040516115aa81611a2f565b6115b536888a611b23565b815281868201931693848452604082019a868c52604051898b823788818b8101600281520301902092518051928311611746576115fc836115f686546119da565b86611b69565b8891601f84116001146116b6575092611659836116909796948e9f96947ffcc670ef83a2ab18fa316fd1535402582ad1c325995f34b0f96faeb21d0ef9eb9f9560019692610f9d5750508160011b916000199060031b1c19161790565b81555b019251166001600160601b0360a01b83541617825551151581549060ff60a01b90151560a01b169060ff60a01b1916179055565b6116a7604051958695606087526060870191611bbf565b9284015260408301520390a180f35b848d52898d20929190601f198516908e905b82821061172f575050936001937ffcc670ef83a2ab18fa316fd1535402582ad1c325995f34b0f96faeb21d0ef9eb9e9f96938593836116909b9a9810611716575b505050811b01815561165c565b015160001960f88460031b161c19169055388080611709565b83850151865594850194938c0193908c01906116c8565b634e487b7160e01b8c52604160045260248cfd5b60405162461bcd60e51b815260048101869052600d60248201526c111156081b9bdd08199bdd5b99609a1b6044820152606490fd5b503461016a57602080600319360112610cc65760406117ac6118b0565b928060a083516117bb81611a14565b8281528581018390528481018390526060808201526080810183905201526001600160a01b0393841681526004835220604051916117f883611a14565b83825416835261187c600183015482850190868116825260ff604087019160a01c16151581528661182b60028701611a7e565b9260608801938452600460038801549760808a0198895201549560a08901968752604051998a99828b525116908901525116604087015251151560608601525160c0608086015260e0850190611904565b915160a08401525160c08301520390f35b503461016a57602036600319011261016a576118a7611c3a565b60043560065580f35b600435906001600160a01b03821682036118c657565b600080fd5b602435906001600160a01b03821682036118c657565b60005b8381106118f45750506000910152565b81810151838201526020016118e4565b9060209161191d815180928185528580860191016118e1565b601f01601f1916010190565b9181601f840112156118c6578235916001600160401b0383116118c657602083818601950101116118c657565b60035481101561198d5760036000527fc2575a0e9e593c00f959f8c92f12db2869c3395a3b0502d05e2516446f71f85b0190600090565b634e487b7160e01b600052603260045260246000fd5b60055481101561198d5760056000527f036b6384b5eca791c62761152d0c79bb0604c104a5fb6f4eb0703f3154bb3db00190600090565b90600182811c92168015611a0a575b60208310146119f457565b634e487b7160e01b600052602260045260246000fd5b91607f16916119e9565b60c081019081106001600160401b0382111761015457604052565b606081019081106001600160401b0382111761015457604052565b6001600160401b03811161015457604052565b90601f801991011681019081106001600160401b0382111761015457604052565b90604051918260008254611a91816119da565b90818452602094600191600181169081600014611b015750600114611ac2575b505050611ac092500383611a5d565b565b600090815285812095935091905b818310611ae9575050611ac09350820101388080611ab1565b85548884018501529485019487945091830191611ad0565b92505050611ac094925060ff191682840152151560051b820101388080611ab1565b9291926001600160401b0382116101545760405191611b4c601f8201601f191660200184611a5d565b8294818452818301116118c6578281602093846000960137010152565b90601f8111611b7757505050565b6000916000526020600020906020601f850160051c83019410611bb5575b601f0160051c01915b828110611baa57505050565b818155600101611b9e565b9092508290611b95565b908060209392818452848401376000828201840152601f01601f1916010190565b91908201809211611bed57565b634e487b7160e01b600052601160045260246000fd5b908160209103126118c657516001600160a01b03811681036118c65790565b908160209103126118c6575180151581036118c65790565b6000546001600160a01b03163303611c4e57565b606460405162461bcd60e51b815260206004820152602060248201527f4f776e61626c653a2063616c6c6572206973206e6f7420746865206f776e65726044820152fdfea2646970667358221220e60945c12a40656dd08be847556199d2ba58ac6a060bd46cb22af7221e5a993464736f6c63430008160033",
  "linkReferences": {},
  "deployedLinkReferences": {}
}