{
  "_format": "hh-sol-artifact-1",
  "contractName": "V4Factory",
  "sourceName": "src/contracts/V4Factory.sol",
  "abi": [
    {
      "inputs": [
        {
          "internalType": "address",
          "name": "owner_",
          "type": "address"
        },
        {
          "internalType": "address",
          "name": "tokenImpl_",
          "type": "address"
        },
        {
          "internalType": "address",
          "name": "securityModuleImpl_",
          "type": "address"
        }
      ],
      "stateMutability": "nonpayable",
      "type": "constructor"
    },
    {
      "anonymous": false,
      "inputs": [
        {
          "indexed": true,
          "internalType": "address",
          "name": "previousOwner",
          "type": "address"
        },
        {
          "indexed": true,
          "internalType": "address",
          "name": "newOwner",
          "type": "address"
        }
      ],
      "name": "OwnershipTransferred",
      "type": "event"
    },
    {
      "anonymous": false,
      "inputs": [
        {
          "indexed": true,
          "internalType": "address",
          "name": "tokenAddress",
          "type": "address"
        },
        {
          "indexed": false,
          "internalType": "string",
          "name": "name",
          "type": "string"
        },
        {
          "indexed": false,
          "internalType": "string",
          "name": "symbol",
          "type": "string"
        },
        {
          "indexed": true,
          "internalType": "address",
          "name": "owner",
          "type": "address"
        }
      ],
      "name": "TokenCreated",
      "type": "event"
    },
    {
      "inputs": [
        {
          "internalType": "string",
          "name": "name",
          "type": "string"
        },
        {
          "internalType": "string",
          "name": "symbol",
          "type": "string"
        },
        {
          "internalType": "uint256",
          "name": "initialSupply",
          "type": "uint256"
        },
        {
          "internalType": "address",
          "name": "owner",
          "type": "address"
        }
      ],
      "name": "createToken",
      "outputs": [
        {
          "internalType": "address",
          "name": "tokenAddress",
          "type": "address"
        }
      ],
      "stateMutability": "nonpayable",
      "type": "function"
    },
    {
      "inputs": [],
      "name": "owner",
      "outputs": [
        {
          "internalType": "address",
          "name": "",
          "type": "address"
        }
      ],
      "stateMutability": "view",
      "type": "function"
    },
    {
      "inputs": [],
      "name": "renounceOwnership",
      "outputs": [],
      "stateMutability": "nonpayable",
      "type": "function"
    },
    {
      "inputs": [],
      "name": "securityModuleBeacon",
      "outputs": [
        {
          "internalType": "contract UpgradeableBeacon",
          "name": "",
          "type": "address"
        }
      ],
      "stateMutability": "view",
      "type": "function"
    },
    {
      "inputs": [],
      "name": "securityModuleImplementation",
      "outputs": [
        {
          "internalType": "address",
          "name": "",
          "type": "address"
        }
      ],
      "stateMutability": "view",
      "type": "function"
    },
    {
      "inputs": [],
      "name": "tokenBeacon",
      "outputs": [
        {
          "internalType": "contract UpgradeableBeacon",
          "name": "",
          "type": "address"
        }
      ],
      "stateMutability": "view",
      "type": "function"
    },
    {
      "inputs": [],
      "name": "tokenImplementation",
      "outputs": [
        {
          "internalType": "address",
          "name": "",
          "type": "address"
        }
      ],
      "stateMutability": "view",
      "type": "function"
    },
    {
      "inputs": [
        {
          "internalType": "address",
          "name": "newOwner",
          "type": "address"
        }
      ],
      "name": "transferOwnership",
      "outputs": [],
      "stateMutability": "nonpayable",
      "type": "function"
    }
  ],
  "bytecode": "0x60803461020b57601f620014e638819003918201601f19168301926000926001600160401b0392838611838710176101f75781606092849260409889528339810103126101f35761004f81610239565b916100678561006060208501610239565b9301610239565b906100713361024d565b61007a8461024d565b60018060a01b03809316908360018060a01b0319938385600154161760015516836002541617600255865161045a90818101818110848211176101d557816020916200108c9685888439815203019088f080156101e957851684600354161760035584600254169088519381850193858510908511176101d557916020939185938439815203019085f080156101cb578216906004541617600455806003541690813b156101aa5784518481602481838663f2fde38b60e01b998a845216978860048401525af180156101c1576101ae575b506004541691823b156101aa5790602484928387519586948593845260048401525af180156101a057610189575b8251610df79081620002958239f35b6101938291610210565b61019d578061017a565b80fd5b83513d84823e3d90fd5b8380fd5b6101ba90949194610210565b923861014c565b86513d87823e3d90fd5b85513d86823e3d90fd5b634e487b7160e01b89526041600452602489fd5b88513d89823e3d90fd5b8280fd5b634e487b7160e01b85526041600452602485fd5b600080fd5b6001600160401b03811161022357604052565b634e487b7160e01b600052604160045260246000fd5b51906001600160a01b038216820361020b57565b600080546001600160a01b039283166001600160a01b03198216811783559216907f8be0079c531659141344cd1fd0a4f28419497f9722a3daafe3b4186f6b6457e09080a356fe60806040818152600490813610156200001757600080fd5b600092833560e01c9081632f3a3d5d14620005af5750806334f359f91462000266578063715018a614620002055780638008334c14620001da5780638da5cb5b14620001b05780639651d0a81462000186578063ccf5a77c14620001575763f2fde38b146200008557600080fd5b346200015357602036600319011262000153576001600160a01b038235818116939192908490036200014f57620000bb620006f6565b8315620000fd57505082546001600160a01b0319811683178455167f8be0079c531659141344cd1fd0a4f28419497f9722a3daafe3b4186f6b6457e08380a380f35b906020608492519162461bcd60e51b8352820152602660248201527f4f776e61626c653a206e6577206f776e657220697320746865207a65726f206160448201526564647265737360d01b6064820152fd5b8480fd5b8280fd5b838234620001825781600319360112620001825760035490516001600160a01b039091168152602090f35b5080fd5b50903462000153578260031936011262000153575490516001600160a01b03909116815260209150f35b8382346200018257816003193601126200018257905490516001600160a01b039091168152602090f35b838234620001825781600319360112620001825760025490516001600160a01b039091168152602090f35b8334620002635780600319360112620002635762000222620006f6565b80546001600160a01b03198116825581906001600160a01b03167f8be0079c531659141344cd1fd0a4f28419497f9722a3daafe3b4186f6b6457e08280a380f35b80fd5b50913462000263576080366003190112620002635767ffffffffffffffff92823584811162000153576200029e90369085016200062c565b9260249384358681116200014f57620002bb90369084016200062c565b6001600160a01b0395606435878116949190859003620005ab57855196602098635e9d09fb60e11b8a8a01526080838a01528a89620003156200030260a483018a6200068d565b828103602319016044840152886200068d565b6044356064830152896084830152039962000339601f199b8c810183528262000609565b8260035416908a5190610672928383019483861090861117620005995782916200036c91620007509686888639620006cf565b039085f080156200058f5790838d92169b8a8c51938401528d83526200039283620005d6565b8d8d8d5194859263347d5e2560e21b9084015289830191620003b492620006cf565b039081018352620003c6908362000609565b8d84885416918c519481860192868410908411176200057d5791620003f193918695938639620006cf565b039083f080156200052f571692818a620004368b8b518b848201528381526200041a81620005d6565b8c51948580948193630b74e9e360e21b83528c8a8401620006cf565b03925af18015620005735762000539575b50883b15620001825787519363f2fde38b60e01b85528185015281848481838d5af19a8b156200052f57899a9b99979899620004d7575b50505050507f6596c1670eb3390048d23721809c3da5d3f531375ac0e2cab0f77a808ed6433191620004ce620004c0928751938493898552898501906200068d565b908382038b8501526200068d565b0390a351908152f35b909192938095969750116200051f57505050845284919081620004ce620004c07f6596c1670eb3390048d23721809c3da5d3f531375ac0e2cab0f77a808ed64331386200047e565b634e487b7160e01b825260419052fd5b88513d84823e3d90fd5b8a81813d83116200056b575b62000551818362000609565b810103126200015357518015150362000182573862000447565b503d62000545565b89513d85823e3d90fd5b634e487b7160e01b885260418a528888fd5b8a513d86823e3d90fd5b634e487b7160e01b8752604189528787fd5b8680fd5b84903462000182578160031936011262000182576001546001600160a01b03168152602090f35b6040810190811067ffffffffffffffff821117620005f357604052565b634e487b7160e01b600052604160045260246000fd5b90601f8019910116810190811067ffffffffffffffff821117620005f357604052565b81601f82011215620006885780359067ffffffffffffffff8211620005f3576040519262000665601f8401601f19166020018562000609565b828452602083830101116200068857816000926020809301838601378301015290565b600080fd5b919082519283825260005b848110620006ba575050826000602080949584010152601f8019910116010190565b60208183018101518483018201520162000698565b6001600160a01b039091168152604060208201819052620006f3929101906200068d565b90565b6000546001600160a01b031633036200070b57565b606460405162461bcd60e51b815260206004820152602060248201527f4f776e61626c653a2063616c6c6572206973206e6f7420746865206f776e65726044820152fdfe60806040908082526106728038038091610019828561034d565b8339810190828183031261023f5761003081610370565b6020828101516001600160401b039391929184821161023f57019084601f8301121561023f5781519161006283610384565b9261006f8851948561034d565b8084528484019685828401011161023f57868561008c930161039f565b803b156102fb578551635c60da1b60e01b80825292916001600160a01b0316908481600481855afa9081156102f0576000916102bb575b503b1561025e577fa3f0ad74e5423aebfd80d3ef4346578335a9a72aeaee59ff6cb3582b35133d5080546001600160a01b03191682179055865192817f1cf3b03a6cf19fa2baba4df148e9dcabedea7f8a5c07840e207e5c089be95d3e600080a2825115801590610256575b610142575b87516101fc90816104768239f35b6004848693819382525afa91821561024b5760009261020f575b5085519360608501908111858210176101f9578652602784527f416464726573733a206c6f772d6c6576656c2064656c65676174652063616c6c83850152660819985a5b195960ca1b84870152516101e3946000918291845af4903d156101f0573d6101c781610384565b906101d48851928361034d565b8152600081943d92013e6103c2565b5038808080808080610134565b606092506103c2565b634e487b7160e01b600052604160045260246000fd5b9091508281813d8311610244575b610227818361034d565b8101031261023f5761023890610370565b903861015c565b600080fd5b503d61021d565b86513d6000823e3d90fd5b50600061012f565b865162461bcd60e51b815260048101859052603060248201527f455243313936373a20626561636f6e20696d706c656d656e746174696f6e206960448201526f1cc81b9bdd08184818dbdb9d1c9858dd60821b6064820152608490fd5b90508481813d83116102e9575b6102d2818361034d565b8101031261023f576102e390610370565b386100c3565b503d6102c8565b88513d6000823e3d90fd5b855162461bcd60e51b815260048101849052602560248201527f455243313936373a206e657720626561636f6e206973206e6f74206120636f6e6044820152641d1c9858dd60da1b6064820152608490fd5b601f909101601f19168101906001600160401b038211908210176101f957604052565b51906001600160a01b038216820361023f57565b6001600160401b0381116101f957601f01601f191660200190565b60005b8381106103b25750506000910152565b81810151838201526020016103a2565b9192901561042457508151156103d6575090565b3b156103df5790565b60405162461bcd60e51b815260206004820152601d60248201527f416464726573733a2063616c6c20746f206e6f6e2d636f6e74726163740000006044820152606490fd5b8251909150156104375750805190602001fd5b6044604051809262461bcd60e51b825260206004830152610467815180928160248601526020868601910161039f565b601f01601f19168101030190fdfe608080604052366100c7577fa3f0ad74e5423aebfd80d3ef4346578335a9a72aeaee59ff6cb3582b35133d5054635c60da1b60e01b8252602090829060049082906001600160a01b03165afa9081156100bb57600091610060575b506101a7565b905060203d6020116100b4575b601f8101601f191682019167ffffffffffffffff83118184101761009e576100989260405201610161565b3861005a565b634e487b7160e01b600052604160045260246000fd5b503d61006d565b6040513d6000823e3d90fd5b7fa3f0ad74e5423aebfd80d3ef4346578335a9a72aeaee59ff6cb3582b35133d5054604051635c60da1b60e01b815290602090829060049082906001600160a01b03165afa9081156100bb5760009161012057506101a7565b602091503d8211610159575b601f8201601f191681019167ffffffffffffffff83118284101761009e5761009892604052810190610188565b3d915061012c565b602090607f190112610183576080516001600160a01b03811681036101835790565b600080fd5b9081602091031261018357516001600160a01b03811681036101835790565b6000808092368280378136915af43d82803e156101c2573d90f35b3d90fdfea264697066735822122054f1b4463bccdc05c56deee162ca6730ff9d30ee0b3fc732b7a0d6a6da3ea58564736f6c63430008160033a2646970667358221220850cc53779db42882ce413ef85b141cbffdab9f9a7775c49e32d8935891a8b0864736f6c6343000816003360803461011a57601f61045a38819003918201601f19168301916001600160401b0383118484101761011f5780849260209460405283398101031261011a57516001600160a01b03808216919082820361011a576000549160018060a01b0319923384821617600055604051923391167f8be0079c531659141344cd1fd0a4f28419497f9722a3daafe3b4186f6b6457e0600080a33b156100b25750600154161760015560405161032490816101368239f35b62461bcd60e51b815260206004820152603360248201527f5570677261646561626c65426561636f6e3a20696d706c656d656e746174696f60448201527f6e206973206e6f74206120636f6e7472616374000000000000000000000000006064820152608490fd5b600080fd5b634e487b7160e01b600052604160045260246000fdfe6080604052600436101561001257600080fd5b6000803560e01c80633659cfe6146101c75780635c60da1b1461019e578063715018a6146101445780638da5cb5b1461011d5763f2fde38b1461005457600080fd5b3461011a57602036600319011261011a576004356001600160a01b038181169182900361011657610083610296565b81156100c25782546001600160a01b0319811683178455167f8be0079c531659141344cd1fd0a4f28419497f9722a3daafe3b4186f6b6457e08380a380f35b60405162461bcd60e51b815260206004820152602660248201527f4f776e61626c653a206e6577206f776e657220697320746865207a65726f206160448201526564647265737360d01b6064820152608490fd5b8280fd5b80fd5b503461011a578060031936011261011a57546040516001600160a01b039091168152602090f35b503461011a578060031936011261011a5761015d610296565b80546001600160a01b03198116825581906001600160a01b03167f8be0079c531659141344cd1fd0a4f28419497f9722a3daafe3b4186f6b6457e08280a380f35b503461011a578060031936011261011a576001546040516001600160a01b039091168152602090f35b503461011a57602036600319011261011a576004356001600160a01b03811690818103610116576101f6610296565b3b1561023557600180546001600160a01b031916821790557fbc7cd75a20ee27fd9adebab32041f755214dbc6bffa90cc0225b39da2e5c2d3b8280a280f35b60405162461bcd60e51b815260206004820152603360248201527f5570677261646561626c65426561636f6e3a20696d706c656d656e746174696f6044820152721b881a5cc81b9bdd08184818dbdb9d1c9858dd606a1b6064820152608490fd5b6000546001600160a01b031633036102aa57565b606460405162461bcd60e51b815260206004820152602060248201527f4f776e61626c653a2063616c6c6572206973206e6f7420746865206f776e65726044820152fdfea2646970667358221220c17a697fa218ab66e1832a9cb889fea738e8787d12399361a9390095dd8fa1f464736f6c63430008160033",
  "linkReferences": {},
  "deployedLinkReferences": {}
}