{
  "_format": "hh-sol-artifact-1",
  "contractName": "TokenTemplate_v3",
  "sourceName": "src/contracts/TokenTemplate_v3.sol",
  "abi": [
    {
      "anonymous": false,
      "inputs": [
        {
          "indexed": false,
          "internalType": "address",
          "name": "previousAdmin",
          "type": "address"
        },
        {
          "indexed": false,
          "internalType": "address",
          "name": "newAdmin",
          "type": "address"
        }
      ],
      "name": "AdminChanged",
      "type": "event"
    },
    {
      "anonymous": false,
      "inputs": [
        {
          "indexed": true,
          "internalType": "address",
          "name": "owner",
          "type": "address"
        },
        {
          "indexed": true,
          "internalType": "address",
          "name": "spender",
          "type": "address"
        },
        {
          "indexed": false,
          "internalType": "uint256",
          "name": "value",
          "type": "uint256"
        }
      ],
      "name": "Approval",
      "type": "event"
    },
    {
      "anonymous": false,
      "inputs": [
        {
          "indexed": true,
          "internalType": "address",
          "name": "beacon",
          "type": "address"
        }
      ],
      "name": "BeaconUpgraded",
      "type": "event"
    },
    {
      "anonymous": false,
      "inputs": [
        {
          "indexed": false,
          "internalType": "address[]",
          "name": "addresses",
          "type": "address[]"
        },
        {
          "indexed": false,
          "internalType": "bool",
          "name": "status",
          "type": "bool"
        }
      ],
      "name": "BlacklistUpdated",
      "type": "event"
    },
    {
      "anonymous": false,
      "inputs": [
        {
          "indexed": false,
          "internalType": "address",
          "name": "contributor",
          "type": "address"
        },
        {
          "indexed": false,
          "internalType": "uint256",
          "name": "amount",
          "type": "uint256"
        }
      ],
      "name": "ContributionReceived",
      "type": "event"
    },
    {
      "anonymous": false,
      "inputs": [
        {
          "indexed": false,
          "internalType": "address",
          "name": "contributor",
          "type": "address"
        },
        {
          "indexed": false,
          "internalType": "uint256",
          "name": "amount",
          "type": "uint256"
        }
      ],
      "name": "ContributionRefunded",
      "type": "event"
    },
    {
      "anonymous": false,
      "inputs": [
        {
          "indexed": false,
          "internalType": "uint8",
          "name": "version",
          "type": "uint8"
        }
      ],
      "name": "Initialized",
      "type": "event"
    },
    {
      "anonymous": false,
      "inputs": [
        {
          "indexed": true,
          "internalType": "address",
          "name": "previousOwner",
          "type": "address"
        },
        {
          "indexed": true,
          "internalType": "address",
          "name": "newOwner",
          "type": "address"
        }
      ],
      "name": "OwnershipTransferred",
      "type": "event"
    },
    {
      "anonymous": false,
      "inputs": [
        {
          "indexed": false,
          "internalType": "address",
          "name": "account",
          "type": "address"
        }
      ],
      "name": "Paused",
      "type": "event"
    },
    {
      "anonymous": false,
      "inputs": [
        {
          "indexed": false,
          "internalType": "uint256",
          "name": "amount",
          "type": "uint256"
        }
      ],
      "name": "PlatformFeeClaimed",
      "type": "event"
    },
    {
      "anonymous": false,
      "inputs": [
        {
          "indexed": false,
          "internalType": "uint256",
          "name": "totalContributed",
          "type": "uint256"
        },
        {
          "indexed": false,
          "internalType": "uint256",
          "name": "tokensDistributed",
          "type": "uint256"
        }
      ],
      "name": "PresaleFinalized",
      "type": "event"
    },
    {
      "anonymous": false,
      "inputs": [
        {
          "indexed": false,
          "internalType": "uint256",
          "name": "softCap",
          "type": "uint256"
        },
        {
          "indexed": false,
          "internalType": "uint256",
          "name": "hardCap",
          "type": "uint256"
        },
        {
          "indexed": false,
          "internalType": "uint256",
          "name": "startTime",
          "type": "uint256"
        },
        {
          "indexed": false,
          "internalType": "uint256",
          "name": "endTime",
          "type": "uint256"
        },
        {
          "indexed": false,
          "internalType": "uint256",
          "name": "presaleRate",
          "type": "uint256"
        }
      ],
      "name": "PresaleStarted",
      "type": "event"
    },
    {
      "anonymous": false,
      "inputs": [
        {
          "indexed": false,
          "internalType": "address",
          "name": "account",
          "type": "address"
        },
        {
          "indexed": false,
          "internalType": "uint256",
          "name": "unlockTime",
          "type": "uint256"
        }
      ],
      "name": "TimeLockSet",
      "type": "event"
    },
    {
      "anonymous": false,
      "inputs": [
        {
          "indexed": true,
          "internalType": "address",
          "name": "from",
          "type": "address"
        },
        {
          "indexed": true,
          "internalType": "address",
          "name": "to",
          "type": "address"
        },
        {
          "indexed": false,
          "internalType": "uint256",
          "name": "value",
          "type": "uint256"
        }
      ],
      "name": "Transfer",
      "type": "event"
    },
    {
      "anonymous": false,
      "inputs": [
        {
          "indexed": false,
          "internalType": "address",
          "name": "account",
          "type": "address"
        }
      ],
      "name": "Unpaused",
      "type": "event"
    },
    {
      "anonymous": false,
      "inputs": [
        {
          "indexed": true,
          "internalType": "address",
          "name": "implementation",
          "type": "address"
        }
      ],
      "name": "Upgraded",
      "type": "event"
    },
    {
      "anonymous": false,
      "inputs": [
        {
          "indexed": false,
          "internalType": "address[]",
          "name": "addresses",
          "type": "address[]"
        },
        {
          "indexed": false,
          "internalType": "bool",
          "name": "status",
          "type": "bool"
        }
      ],
      "name": "WhitelistUpdated",
      "type": "event"
    },
    {
      "inputs": [],
      "name": "VERSION",
      "outputs": [
        {
          "internalType": "string",
          "name": "",
          "type": "string"
        }
      ],
      "stateMutability": "view",
      "type": "function"
    },
    {
      "inputs": [
        {
          "internalType": "address",
          "name": "owner",
          "type": "address"
        },
        {
          "internalType": "address",
          "name": "spender",
          "type": "address"
        }
      ],
      "name": "allowance",
      "outputs": [
        {
          "internalType": "uint256",
          "name": "",
          "type": "uint256"
        }
      ],
      "stateMutability": "view",
      "type": "function"
    },
    {
      "inputs": [
        {
          "internalType": "address",
          "name": "spender",
          "type": "address"
        },
        {
          "internalType": "uint256",
          "name": "amount",
          "type": "uint256"
        }
      ],
      "name": "approve",
      "outputs": [
        {
          "internalType": "bool",
          "name": "",
          "type": "bool"
        }
      ],
      "stateMutability": "nonpayable",
      "type": "function"
    },
    {
      "inputs": [
        {
          "internalType": "address",
          "name": "account",
          "type": "address"
        }
      ],
      "name": "balanceOf",
      "outputs": [
        {
          "internalType": "uint256",
          "name": "",
          "type": "uint256"
        }
      ],
      "stateMutability": "view",
      "type": "function"
    },
    {
      "inputs": [
        {
          "internalType": "address",
          "name": "",
          "type": "address"
        }
      ],
      "name": "blacklist",
      "outputs": [
        {
          "internalType": "bool",
          "name": "",
          "type": "bool"
        }
      ],
      "stateMutability": "view",
      "type": "function"
    },
    {
      "inputs": [],
      "name": "blacklistEnabled",
      "outputs": [
        {
          "internalType": "bool",
          "name": "",
          "type": "bool"
        }
      ],
      "stateMutability": "view",
      "type": "function"
    },
    {
      "inputs": [
        {
          "internalType": "uint256",
          "name": "amount",
          "type": "uint256"
        }
      ],
      "name": "burn",
      "outputs": [],
      "stateMutability": "nonpayable",
      "type": "function"
    },
    {
      "inputs": [
        {
          "internalType": "address",
          "name": "account",
          "type": "address"
        },
        {
          "internalType": "uint256",
          "name": "amount",
          "type": "uint256"
        }
      ],
      "name": "burnFrom",
      "outputs": [],
      "stateMutability": "nonpayable",
      "type": "function"
    },
    {
      "inputs": [],
      "name": "claimPlatformFeeTokens",
      "outputs": [],
      "stateMutability": "nonpayable",
      "type": "function"
    },
    {
      "inputs": [],
      "name": "contribute",
      "outputs": [],
      "stateMutability": "payable",
      "type": "function"
    },
    {
      "inputs": [
        {
          "internalType": "address",
          "name": "",
          "type": "address"
        }
      ],
      "name": "contributions",
      "outputs": [
        {
          "internalType": "uint256",
          "name": "",
          "type": "uint256"
        }
      ],
      "stateMutability": "view",
      "type": "function"
    },
    {
      "inputs": [],
      "name": "decimals",
      "outputs": [
        {
          "internalType": "uint8",
          "name": "",
          "type": "uint8"
        }
      ],
      "stateMutability": "view",
      "type": "function"
    },
    {
      "inputs": [
        {
          "internalType": "address",
          "name": "spender",
          "type": "address"
        },
        {
          "internalType": "uint256",
          "name": "subtractedValue",
          "type": "uint256"
        }
      ],
      "name": "decreaseAllowance",
      "outputs": [
        {
          "internalType": "bool",
          "name": "",
          "type": "bool"
        }
      ],
      "stateMutability": "nonpayable",
      "type": "function"
    },
    {
      "inputs": [],
      "name": "finalize",
      "outputs": [],
      "stateMutability": "nonpayable",
      "type": "function"
    },
    {
      "inputs": [
        {
          "internalType": "address",
          "name": "spender",
          "type": "address"
        },
        {
          "internalType": "uint256",
          "name": "addedValue",
          "type": "uint256"
        }
      ],
      "name": "increaseAllowance",
      "outputs": [
        {
          "internalType": "bool",
          "name": "",
          "type": "bool"
        }
      ],
      "stateMutability": "nonpayable",
      "type": "function"
    },
    {
      "inputs": [
        {
          "components": [
            {
              "internalType": "string",
              "name": "name",
              "type": "string"
            },
            {
              "internalType": "string",
              "name": "symbol",
              "type": "string"
            },
            {
              "internalType": "uint256",
              "name": "initialSupply",
              "type": "uint256"
            },
            {
              "internalType": "uint256",
              "name": "maxSupply",
              "type": "uint256"
            },
            {
              "internalType": "address",
              "name": "owner",
              "type": "address"
            },
            {
              "internalType": "bool",
              "name": "enableBlacklist",
              "type": "bool"
            },
            {
              "internalType": "bool",
              "name": "enableTimeLock",
              "type": "bool"
            },
            {
              "internalType": "uint256",
              "name": "presaleRate",
              "type": "uint256"
            },
            {
              "internalType": "uint256",
              "name": "minContribution",
              "type": "uint256"
            },
            {
              "internalType": "uint256",
              "name": "maxContribution",
              "type": "uint256"
            },
            {
              "internalType": "uint256",
              "name": "presaleCap",
              "type": "uint256"
            },
            {
              "internalType": "uint256",
              "name": "startTime",
              "type": "uint256"
            },
            {
              "internalType": "uint256",
              "name": "endTime",
              "type": "uint256"
            },
            {
              "internalType": "address",
              "name": "platformFeeRecipient",
              "type": "address"
            },
            {
              "internalType": "uint256",
              "name": "platformFeeTokens",
              "type": "uint256"
            },
            {
              "internalType": "bool",
              "name": "platformFeeVestingEnabled",
              "type": "bool"
            },
            {
              "internalType": "uint256",
              "name": "platformFeeVestingDuration",
              "type": "uint256"
            },
            {
              "internalType": "uint256",
              "name": "platformFeeCliffDuration",
              "type": "uint256"
            }
          ],
          "internalType": "struct TokenTemplate_v3.InitParams",
          "name": "params",
          "type": "tuple"
        }
      ],
      "name": "initialize",
      "outputs": [],
      "stateMutability": "nonpayable",
      "type": "function"
    },
    {
      "inputs": [],
      "name": "maxSupply",
      "outputs": [
        {
          "internalType": "uint256",
          "name": "",
          "type": "uint256"
        }
      ],
      "stateMutability": "view",
      "type": "function"
    },
    {
      "inputs": [],
      "name": "name",
      "outputs": [
        {
          "internalType": "string",
          "name": "",
          "type": "string"
        }
      ],
      "stateMutability": "view",
      "type": "function"
    },
    {
      "inputs": [],
      "name": "owner",
      "outputs": [
        {
          "internalType": "address",
          "name": "",
          "type": "address"
        }
      ],
      "stateMutability": "view",
      "type": "function"
    },
    {
      "inputs": [],
      "name": "paused",
      "outputs": [
        {
          "internalType": "bool",
          "name": "",
          "type": "bool"
        }
      ],
      "stateMutability": "view",
      "type": "function"
    },
    {
      "inputs": [],
      "name": "platformFeeCliffDuration",
      "outputs": [
        {
          "internalType": "uint256",
          "name": "",
          "type": "uint256"
        }
      ],
      "stateMutability": "view",
      "type": "function"
    },
    {
      "inputs": [],
      "name": "platformFeeRecipient",
      "outputs": [
        {
          "internalType": "address",
          "name": "",
          "type": "address"
        }
      ],
      "stateMutability": "view",
      "type": "function"
    },
    {
      "inputs": [],
      "name": "platformFeeTokens",
      "outputs": [
        {
          "internalType": "uint256",
          "name": "",
          "type": "uint256"
        }
      ],
      "stateMutability": "view",
      "type": "function"
    },
    {
      "inputs": [],
      "name": "platformFeeTokensClaimed",
      "outputs": [
        {
          "internalType": "uint256",
          "name": "",
          "type": "uint256"
        }
      ],
      "stateMutability": "view",
      "type": "function"
    },
    {
      "inputs": [],
      "name": "platformFeeVestingDuration",
      "outputs": [
        {
          "internalType": "uint256",
          "name": "",
          "type": "uint256"
        }
      ],
      "stateMutability": "view",
      "type": "function"
    },
    {
      "inputs": [],
      "name": "platformFeeVestingEnabled",
      "outputs": [
        {
          "internalType": "bool",
          "name": "",
          "type": "bool"
        }
      ],
      "stateMutability": "view",
      "type": "function"
    },
    {
      "inputs": [],
      "name": "platformFeeVestingStart",
      "outputs": [
        {
          "internalType": "uint256",
          "name": "",
          "type": "uint256"
        }
      ],
      "stateMutability": "view",
      "type": "function"
    },
    {
      "inputs": [],
      "name": "presaleInfo",
      "outputs": [
        {
          "internalType": "uint256",
          "name": "softCap",
          "type": "uint256"
        },
        {
          "internalType": "uint256",
          "name": "hardCap",
          "type": "uint256"
        },
        {
          "internalType": "uint256",
          "name": "minContribution",
          "type": "uint256"
        },
        {
          "internalType": "uint256",
          "name": "maxContribution",
          "type": "uint256"
        },
        {
          "internalType": "uint256",
          "name": "startTime",
          "type": "uint256"
        },
        {
          "internalType": "uint256",
          "name": "endTime",
          "type": "uint256"
        },
        {
          "internalType": "uint256",
          "name": "presaleRate",
          "type": "uint256"
        },
        {
          "internalType": "bool",
          "name": "whitelistEnabled",
          "type": "bool"
        },
        {
          "internalType": "bool",
          "name": "finalized",
          "type": "bool"
        },
        {
          "internalType": "uint256",
          "name": "totalContributed",
          "type": "uint256"
        }
      ],
      "stateMutability": "view",
      "type": "function"
    },
    {
      "inputs": [],
      "name": "proxiableUUID",
      "outputs": [
        {
          "internalType": "bytes32",
          "name": "",
          "type": "bytes32"
        }
      ],
      "stateMutability": "view",
      "type": "function"
    },
    {
      "inputs": [],
      "name": "renounceOwnership",
      "outputs": [],
      "stateMutability": "nonpayable",
      "type": "function"
    },
    {
      "inputs": [
        {
          "internalType": "address",
          "name": "account",
          "type": "address"
        },
        {
          "internalType": "uint256",
          "name": "unlockTime",
          "type": "uint256"
        }
      ],
      "name": "setTimeLock",
      "outputs": [],
      "stateMutability": "nonpayable",
      "type": "function"
    },
    {
      "inputs": [],
      "name": "symbol",
      "outputs": [
        {
          "internalType": "string",
          "name": "",
          "type": "string"
        }
      ],
      "stateMutability": "view",
      "type": "function"
    },
    {
      "inputs": [],
      "name": "timeLockEnabled",
      "outputs": [
        {
          "internalType": "bool",
          "name": "",
          "type": "bool"
        }
      ],
      "stateMutability": "view",
      "type": "function"
    },
    {
      "inputs": [
        {
          "internalType": "address",
          "name": "",
          "type": "address"
        }
      ],
      "name": "timeLocks",
      "outputs": [
        {
          "internalType": "uint256",
          "name": "",
          "type": "uint256"
        }
      ],
      "stateMutability": "view",
      "type": "function"
    },
    {
      "inputs": [],
      "name": "totalSupply",
      "outputs": [
        {
          "internalType": "uint256",
          "name": "",
          "type": "uint256"
        }
      ],
      "stateMutability": "view",
      "type": "function"
    },
    {
      "inputs": [
        {
          "internalType": "address",
          "name": "to",
          "type": "address"
        },
        {
          "internalType": "uint256",
          "name": "amount",
          "type": "uint256"
        }
      ],
      "name": "transfer",
      "outputs": [
        {
          "internalType": "bool",
          "name": "",
          "type": "bool"
        }
      ],
      "stateMutability": "nonpayable",
      "type": "function"
    },
    {
      "inputs": [
        {
          "internalType": "address",
          "name": "from",
          "type": "address"
        },
        {
          "internalType": "address",
          "name": "to",
          "type": "address"
        },
        {
          "internalType": "uint256",
          "name": "amount",
          "type": "uint256"
        }
      ],
      "name": "transferFrom",
      "outputs": [
        {
          "internalType": "bool",
          "name": "",
          "type": "bool"
        }
      ],
      "stateMutability": "nonpayable",
      "type": "function"
    },
    {
      "inputs": [
        {
          "internalType": "address",
          "name": "newOwner",
          "type": "address"
        }
      ],
      "name": "transferOwnership",
      "outputs": [],
      "stateMutability": "nonpayable",
      "type": "function"
    },
    {
      "inputs": [
        {
          "internalType": "address[]",
          "name": "addresses",
          "type": "address[]"
        },
        {
          "internalType": "bool",
          "name": "status",
          "type": "bool"
        }
      ],
      "name": "updateBlacklist",
      "outputs": [],
      "stateMutability": "nonpayable",
      "type": "function"
    },
    {
      "inputs": [
        {
          "internalType": "address[]",
          "name": "addresses",
          "type": "address[]"
        },
        {
          "internalType": "bool",
          "name": "status",
          "type": "bool"
        }
      ],
      "name": "updateWhitelist",
      "outputs": [],
      "stateMutability": "nonpayable",
      "type": "function"
    },
    {
      "inputs": [
        {
          "internalType": "address",
          "name": "newImplementation",
          "type": "address"
        }
      ],
      "name": "upgradeTo",
      "outputs": [],
      "stateMutability": "nonpayable",
      "type": "function"
    },
    {
      "inputs": [
        {
          "internalType": "address",
          "name": "newImplementation",
          "type": "address"
        },
        {
          "internalType": "bytes",
          "name": "data",
          "type": "bytes"
        }
      ],
      "name": "upgradeToAndCall",
      "outputs": [],
      "stateMutability": "payable",
      "type": "function"
    },
    {
      "inputs": [
        {
          "internalType": "address",
          "name": "",
          "type": "address"
        }
      ],
      "name": "whitelist",
      "outputs": [
        {
          "internalType": "bool",
          "name": "",
          "type": "bool"
        }
      ],
      "stateMutability": "view",
      "type": "function"
    }
  ],
  "bytecode": "0x60a0604052346200003657620000146200003b565b60405161384d6200009d8239608051818181610f6001526113cf015261384d90f35b600080fd5b6200004562000047565b565b620000456200008c565b62000067906200006a906001600160a01b031682565b90565b6001600160a01b031690565b620000679062000051565b620000679062000076565b620000973062000081565b60805256fe6080604052600436101561001257600080fd5b60003560e01c806306fdde03146102c2578063095ea7b3146102bd578063113d478b146102b857806318160ddd146102b357806323b872dd146102ae5780632791770a146102a95780632edf0869146102a4578063313ce5671461029f5780633659cfe61461029a5780633950935114610295578063420fc2101461029057806342966c681461028b57806342e94c90146102865780634bb278f3146102815780634f1ef2861461027c57806352d1902d146102775780635c975abb1461027257806363280c511461026d578063644fab74146102685780636b7f3d1a1461026357806370a082311461025e578063715018a61461025957806379cc6790146102545780637f76b2231461024f5780638bdc444d1461024a5780638da5cb5b1461024557806394cf68731461024057806395d89b411461023b5780639b19251a14610236578063a457c2d714610231578063a9059cbb1461022c578063aff177ca14610227578063bb0e69e814610222578063bffb691d1461021d578063cba4cbd314610218578063d5abeb0114610213578063d7bb99ba1461020e578063dd62ed3e14610209578063eb13554f14610204578063f2fde38b146101ff578063f9f92be4146101fa578063fadcac27146101f55763ffa1ad74036102c757610d44565b610ce4565b610cbc565b610c93565b610c78565b610c37565b610c01565b610be6565b610bbe565b610b96565b610b70565b610b57565b610ac1565b610aa5565b610a8a565b610a41565b610a29565b6109ce565b61099d565b610982565b610958565b610940565b610925565b61090a565b6108e4565b6108c9565b6108a1565b610886565b610872565b610763565b610748565b6106dc565b6106ad565b610684565b610667565b610624565b6105ea565b6104c0565b610497565b610453565b610427565b6103d6565b610346565b600080fd5b60009103126102c757565b60005b8381106102ea5750506000910152565b81810151838201526020016102da565b61031b61032460209361032e9361030f815190565b80835293849260200190565b958691016102d7565b601f01601f191690565b0190565b6020808252610343929101906102fa565b90565b346102c7576103563660046102cc565b61036d610361610e57565b60405191829182610332565b0390f35b6001600160a01b031690565b61038681610371565b036102c757565b9050359061039a8261037d565b565b80610386565b9050359061039a8261039c565b91906040838203126102c7576103439060206103cb828661038d565b94016103a2565b9052565b346102c75761036d6103f26103ec3660046103af565b90610e61565b60405191829182901515815260200190565b610343916008021c81565b906103439154610404565b61034360006101d661040f565b346102c7576104373660046102cc565b61036d61044261041a565b6040515b9182918290815260200190565b346102c7576104633660046102cc565b61036d610442610e71565b90916060828403126102c757610343610487848461038d565b9360406103cb826020870161038d565b346102c75761036d6103f26104ad36600461046e565b91610e7b565b61034360006101d761040f565b346102c7576104d03660046102cc565b61036d6104426104b3565b6103439081565b61034390546104db565b610343905b60ff1690565b61034390546104ec565b6103439060081c6104f1565b6103439054610501565b6101c390610524826104e2565b91610531600182016104e2565b9161053e600283016104e2565b9161054b600382016104e2565b91610558600483016104e2565b91610565600582016104e2565b91610572600683016104e2565b9161057f600782016104f7565b9161034360086105916007850161050d565b93016104e2565b979593919a9998969492909a61014089019b60008a016105b6919052565b602089015260408801526060870152608086015260a085015260c0840152151560e083015215156101008201526101200152565b346102c7576105fa3660046102cc565b61036d610605610517565b9661061b9a989a96919695929594939460405190565b9a8b9a8b610598565b346102c7576106343660046102cc565b61036d61063f610e9f565b6040519182918260ff909116815260200190565b906020828203126102c7576103439161038d565b346102c75761067f61067a366004610653565b611013565b604051005b346102c75761036d6103f261069a3660046103af565b90611044565b61034360006101d561040f565b346102c7576106bd3660046102cc565b61036d6104426106a0565b906020828203126102c757610343916103a2565b346102c75761067f6106ef3660046106c8565b611063565b61034390610371906001600160a01b031682565b610343906106f4565b61034390610708565b9061072490610711565b600052602052604060002090565b6000610743610343926101cd61071a565b61040f565b346102c75761036d61044261075e366004610653565b610732565b346102c7576107733660046102cc565b61067f611312565b634e487b7160e01b600052604160045260246000fd5b90601f01601f191681019081106001600160401b038211176107b257604052565b61077b565b9061039a6107c460405190565b9283610791565b6001600160401b0381116107b257602090601f01601f19160190565b90826000939282370152565b90929192610808610803826107cb565b6107b7565b93818552818301116102c75761039a9160208501906107e7565b9080601f830112156102c757816020610343933591016107f3565b9190916040818403126102c757610854838261038d565b9260208201356001600160401b0381116102c7576103439201610822565b61067f61088036600461083d565b90611340565b346102c7576108963660046102cc565b61036d610442611430565b346102c7576108b13660046102cc565b61036d6103f261143a565b61034360006101d861040f565b346102c7576108d93660046102cc565b61036d6104426108bc565b346102c75761067f6108f73660046103af565b9061158d565b61034360006101d361040f565b346102c75761091a3660046102cc565b61036d6104426108fd565b346102c75761036d61044261093b366004610653565b611597565b346102c7576109503660046102cc565b61067f6115e6565b346102c75761067f61096b3660046103af565b906115ee565b6000610743610343926101d161071a565b346102c75761036d610442610998366004610653565b610971565b346102c7576109ad3660046102cc565b61067f61181c565b6103d290610371565b60208101929161039a91906109b5565b346102c7576109de3660046102cc565b61036d6109e9611824565b604051918291826109be565b90816102409103126102c75790565b906020828203126102c75781356001600160401b0381116102c75761034392016109f5565b346102c75761067f610a3c366004610a04565b612017565b346102c757610a513660046102cc565b61036d610361612020565b610343916008021c6104f1565b906103439154610a5c565b6000610a85610343926101cc61071a565b610a69565b346102c75761036d6103f2610aa0366004610653565b610a74565b346102c75761036d6103f2610abb3660046103af565b90612084565b346102c75761036d6103f2610ad73660046103af565b906120a8565b909182601f830112156102c7578135916001600160401b0383116102c75760200192602083028401116102c757565b801515610386565b9050359061039a82610b0c565b916040838303126102c75782356001600160401b0381116102c75782610b4e602094610343938701610add565b94909501610b14565b346102c75761067f610b6a366004610b21565b91612257565b346102c75761067f610b83366004610b21565b91612330565b61034360006101cf610a69565b346102c757610ba63660046102cc565b61036d6103f2610b89565b61034360016101cf610a69565b346102c757610bce3660046102cc565b61036d6103f2610bb1565b61034360006101ce61040f565b346102c757610bf63660046102cc565b61036d610442610bd9565b610c0c3660046102cc565b61067f6126bf565b91906040838203126102c757610343906020610c30828661038d565b940161038d565b346102c75761036d610442610c4d366004610c14565b906126c7565b610343916008021c610371565b906103439154610c53565b61034360006101d2610c60565b346102c757610c883660046102cc565b61036d6109e9610c6b565b346102c75761067f610ca6366004610653565b612777565b6000610a85610343926101d061071a565b346102c75761036d6103f2610cd2366004610653565b610cab565b61034360006101d4610a69565b346102c757610cf43660046102cc565b61036d6103f2610cd7565b90610d0c610803836107cb565b918252565b610d1b6005610cff565b640332e302e360dc1b602082015290565b610343610d11565b610343610d2c565b610343610d34565b346102c757610d543660046102cc565b61036d610361610d3c565b634e487b7160e01b600052602260045260246000fd5b9060016002830492168015610d95575b6020831014610d9057565b610d5f565b91607f1691610d85565b80546000939291610dbc610db283610d75565b8085529360200190565b9160018116908115610e0e5750600114610dd557505050565b610de89192939450600052602060002090565b916000925b818410610dfa5750500190565b805484840152602090930192600101610ded565b92949550505060ff1916825215156020020190565b9061034391610d9f565b9061039a610e4792610e3e60405190565b93848092610e23565b0383610791565b61034390610e2d565b6103436036610e4e565b610e6c91903361282f565b600190565b61034360356104e2565b610e6c929190610e8d83335b8361290f565b612a54565b6104f16103436103439290565b6103436012610e92565b15610eb057565b60405162461bcd60e51b815260206004820152602c60248201526000805160206137d883398151915260448201526b19195b1959d85d1958d85b1b60a21b6064820152608490fd5b0390fd5b15610f0357565b60405162461bcd60e51b815260206004820152602c60248201526000805160206137d883398151915260448201526b6163746976652070726f787960a01b6064820152608490fd5b61039a90610fb3610f5b30610711565b610f997f000000000000000000000000000000000000000000000000000000000000000091610f92610f8c84610371565b91610371565b1415610ea9565b610fad610f8c610fa7612af4565b92610371565b14610efc565b610fed565b6103436103436103439290565b369037565b9061039a610fe0610fda84610cff565b936107cb565b601f190160208401610fc5565b600061039a91610ffc81612b13565b61100d61100883610fb8565b610fca565b90612bc4565b61039a90610f4b565b634e487b7160e01b600052601160045260246000fd5b9190820180921161103f57565b61101c565b610e6c919061105d339261105883856126c7565b611032565b9161282f565b61039a9033612d80565b612d80565b61107a612e5e565b61039a611085612ed1565b61108d61120d565b61039a612f05565b1561109c57565b60405162461bcd60e51b8152602060048201526011602482015270141c995cd85b19481b9bdd08195b991959607a1b6044820152606490fd5b156110dc57565b60405162461bcd60e51b8152602060048201526011602482015270105b1c9958591e48199a5b985b1a5e9959607a1b6044820152606490fd5b1561111c57565b60405162461bcd60e51b815260206004820152601460248201527314dbd99d0818d85c081b9bdd081c995858da195960621b6044820152606490fd5b9061ff009060081b5b9181191691161790565b9061117b61034361118292151590565b8254611158565b9055565b8181029291811591840414171561103f57565b3d156111b3576111a83d610cff565b903d6000602084013e565b606090565b156111bf57565b60405162461bcd60e51b815260206004820152600f60248201526e151c985b9cd9995c8819985a5b1959608a1b6044820152606490fd5b90815260408101929161039a9160200152565b0152565b7fedfde254cb8ed39d650c9a34251c59d6817fae4cc876cc2ce76669976cf102ee6101c36112496112426103436101c86104e2565b4211611095565b6112f86112bc600783019261126c6112676112638661050d565b1590565b6110d5565b6112a16001600883019561129c611282886104e2565b611295611291610343886104e2565b9190565b1015611115565b61116b565b6112b660066112af866104e2565b92016104e2565b90611186565b916112f36000806112cb611824565b6112d430610711565b316112de60405190565b90818003925af16112ed611199565b506111b8565b6104e2565b61130d61130460405190565b928392836111f6565b0390a1565b61039a611072565b9061039a9161132b610f5b30610711565b61039a9160019161133b81612b13565b612bc4565b9061039a9161131a565b1561135157565b60405162461bcd60e51b815260206004820152603860248201527f555550535570677261646561626c653a206d757374206e6f742062652063616c6044820152771b1959081d1a1c9bdd59da0819195b1959d85d1958d85b1b60421b6064820152608490fd5b610343906113f96113c730610711565b6113f3610f8c7f0000000000000000000000000000000000000000000000000000000000000000610371565b1461134a565b611427565b6103437f360894a13ba1a3210667c828492db98dca3e2076cc3735a920a3ca505d382bbc610fb8565b506103436113fe565b61034360006113b7565b61034360976104f7565b9061039a91611451612e5e565b611522565b1561145d57565b60405162461bcd60e51b8152602060048201526015602482015274151a5b59481b1bd8dac81b9bdd08195b98589b1959605a1b6044820152606490fd5b156114a157565b60405162461bcd60e51b815260206004820152601d60248201527f556e6c6f636b2074696d65206d75737420626520696e206675747572650000006044820152606490fd5b9060001990611161565b9061150061034361118292610fb8565b82546114e6565b91602061039a929493611209604082019660008301906109b5565b907fa9353e70f07f31e7f4e16464f45e189cbd22826780a5abe4da8303652a86960a916115586115536101cf61050d565b611456565b61156342831161149a565b61157882611573836101d161071a565b6114f0565b61130d61158460405190565b92839283611507565b9061039a91611444565b6112f3610343916115a6600090565b50603361071a565b6115b6612e5e565b61039a6115d4565b6103716103436103439290565b610343906115be565b61039a6115e160006115cb565b612f10565b61039a6115ae565b61039a919061106d8233610e87565b611605612ed1565b61108d611735565b61034390610371565b610343905461160d565b1561162757565b60405162461bcd60e51b8152602060048201526011602482015270139bdd08199959481c9958da5c1a595b9d607a1b6044820152606490fd5b1561166757565b60405162461bcd60e51b815260206004820152601360248201527215995cdd1a5b99c81b9bdd08195b98589b1959606a1b6044820152606490fd5b156116a957565b60405162461bcd60e51b815260206004820152601660248201527510db1a5999881c195c9a5bd9081b9bdd08195b99195960521b6044820152606490fd5b9190820391821161103f57565b156116fb57565b60405162461bcd60e51b81526020600482015260126024820152714e6f20746f6b656e7320746f20636c61696d60701b6044820152606490fd5b61175a61174b6117466101d2611616565b610371565b61175433610371565b14611620565b61176d6117686101d46104f7565b611660565b61179a6117926103436117816101d76104e2565b61178c6101d66104e2565b90611032565b4210156116a2565b7fbc7ec4f43cc9d06c3fc2804e1bc7fb4c5463c361795d54400ce36256ad1b2ba861130d6117da6117c9612f63565b6117d46101d86104e2565b906116e7565b6117ee6117e76000610fb8565b82116116f4565b611808611800826110586101d86104e2565b6101d86114f0565b610442816118176101d2611616565b61304a565b61039a6115fd565b61034360fb611616565b1561183557565b60405162461bcd60e51b815260206004820152602e60248201527f496e697469616c697a61626c653a20636f6e747261637420697320616c72656160448201526d191e481a5b9a5d1a585b1a5e995960921b6064820152608490fd5b9060ff90611161565b6104f16103436103439260ff1690565b906118ba6103436111829261189a565b8254611891565b6103d290610e92565b60208101929161039a91906118c1565b6119206118ea611263600061050d565b9182806119bd575b8015611978575b6119029061182e565b826119176119106001610e92565b60006118aa565b61196757611cbb565b61192657565b61193160008061116b565b7f7f26b83ff96e1f2b6a682f133852f6798a09c465da95921460cefb384740249861195b60405190565b8061130d6001826118ca565b6119736001600061116b565b611cbb565b5061198d61126361198830610711565b6130b2565b80156118f957506119026119a160006104f7565b6119b56119ae6001610e92565b9160ff1690565b1490506118f9565b506119c860006104f7565b6119d56119ae6001610e92565b106118f2565b903590601e1936829003018212156102c757018035906001600160401b0382116102c757602001913682900383136102c757565b6103439136916107f3565b356103438161039c565b15611a2b57565b60405162461bcd60e51b8152602060048201526024808201527f4d617820737570706c79206d757374206265203e3d20696e697469616c20737560448201526370706c7960e01b6064820152608490fd5b15611a8357565b60405162461bcd60e51b815260206004820152601c60248201527b53746172742074696d65206d75737420626520696e2066757475726560201b6044820152606490fd5b15611ace57565b60405162461bcd60e51b815260206004820152602160248201527f456e642074696d65206d7573742062652061667465722073746172742074696d6044820152606560f81b6064820152608490fd5b3561034381610b0c565b906118ba61034361118292151590565b356103438161037d565b906001600160a01b0390611161565b90611b6061034361118292610711565b8254611b41565b634e487b7160e01b600052601260045260246000fd5b8115611b87570490565b611b67565b6103436101406107b7565b6008611c7161012061039a94611bb7611bb1600083015190565b866114f0565b611bce611bc5602083015190565b600187016114f0565b611be5611bdc604083015190565b600287016114f0565b611bfc611bf3606083015190565b600387016114f0565b611c13611c0a608083015190565b600487016114f0565b611c2a611c2160a083015190565b600587016114f0565b611c41611c3860c083015190565b600687016114f0565b611c6c60078601611c5e611c5860e0850151151590565b82611b27565b61010083015115159061116b565b015190565b91016114f0565b9061039a91611b97565b9095949261039a94611cb461120992611cad608096611ca660a088019c6000890152565b6020870152565b6040850152565b6060830152565b611cc581806119db565b90611cd360208401846119db565b92611cde9192611a0f565b91611ce891611a0f565b611cf191613145565b611cf961315c565b611d0161317c565b611d0961319c565b611d116131bc565b611d1961315c565b6060810190611d2782611a1a565b6040820190611d3582611a1a565b1115611d4090611a24565b610160820191611d4f83611a1a565b4210611d5a90611a7c565b610180810193611d6985611a1a565b611d7285611a1a565b10611d7c90611ac7565b611d8590611a1a565b611d91906101ce6114f0565b611d9d60a08201611b1d565b611da9906101cf611b27565b611db560c08201611b1d565b611dc1906101cf61116b565b6101a0810193611dd085611b37565b611ddc906101d2611b50565b6101c0820191611deb83611a1a565b611df7906101d36114f0565b6101e0810195611e0687611b1d565b611e12906101d4611b27565b611e1f6102008301611a1a565b611e2b906101d56114f0565b611e386102208301611a1a565b611e44906101d66114f0565b6101408201611e5281611a1a565b611e5c6002610fb8565b611e6591611b7d565b90611e6f90611a1a565b95611e7d6101008501611a1a565b93611e8b6101208201611a1a565b94611e958a611a1a565b611e9e88611a1a565b9060e0840197611ead89611a1a565b9360009c8d98611ebb611b8c565b998a0152602089015260408801526060870152608086015260a085015260c084015287151560e08401819052610100840152611ef688610fb8565b92611f0384610120830152565b611f0f906101c3611c78565b608001611f1b90611b37565b90611f2590611a1a565b611f2e9161304a565b611f3785611a1a565b119384977f363312020dbba28eb1464ec7d5f963ebe389e1b00dab8dd54d46e2e2f2e632619861130d96611ff7575b611fb6575b505050611fa3611f9d611f97611f916001611f8a6101c3998a016104e2565b98016104e2565b97611a1a565b93611a1a565b91611a1a565b91611fad60405190565b95869586611c82565b611263611fc291611b1d565b15611fe457611fd6611f9d611fdc93611b37565b9061304a565b388080611f6b565b5050611ff2426101d76114f0565b611fdc565b5061200183611b37565b612010610f8c6117468a6115cb565b1415611f66565b61039a906118da565b6103436037610e4e565b1561203157565b60405162461bcd60e51b815260206004820152602560248201527f45524332303a2064656372656173656420616c6c6f77616e63652062656c6f77604482015264207a65726f60d81b6064820152608490fd5b610e6c919061105d339261209883856126c7565b6120a48282101561202a565b0390565b610e6c919033612a54565b9061039a92916120c1612e5e565b6121c1565b156120cd57565b60405162461bcd60e51b815260206004820152601560248201527415da1a5d195b1a5cdd081b9bdd08195b98589b1959605a1b6044820152606490fd5b634e487b7160e01b600052603260045260246000fd5b9190811015612130576020020190565b61210a565b9061032e816020936109b5565b5061034390602081019061038d565b818352602090920191906000825b82821061216d575050505090565b909192936121906121896001926121848886612142565b612135565b9560200190565b9392019061215f565b9392906121b860209161039a94604088019188830360008a0152612151565b94019015159052565b906121d56121d06101ca6104f7565b6120c6565b6121df6000610fb8565b8181101561221e57612219906122138561220e6101cc61220861220386898b612120565b611b37565b9061071a565b611b27565b60010190565b6121df565b509061130d7fa091d95aa3f4b3529e12c57e1e9e10580edde8a7ac6fd51dd3c8e824c332dbe09361224e60405190565b93849384612199565b9061039a92916120b3565b9061039a9291612270612e5e565b6122b9565b1561227c57565b60405162461bcd60e51b8152602060048201526015602482015274109b1858dadb1a5cdd081b9bdd08195b98589b1959605a1b6044820152606490fd5b906122cd6122c86101cf6104f7565b612275565b6122d76000610fb8565b81811015612300576122fb906122138561220e6101d061220861220386898b612120565b6122d7565b509061130d7f11d4d128e8f89ae2e8815168b9eba079dd6668b75f1e3a9dd96ac6192a7c4dcb9361224e60405190565b9061039a9291612262565b612343612ed1565b61108d61255c565b1561235257565b60405162461bcd60e51b8152602060048201526013602482015272141c995cd85b19481b9bdd081cdd185c9d1959606a1b6044820152606490fd5b1561239457565b60405162461bcd60e51b815260206004820152600d60248201526c141c995cd85b1948195b991959609a1b6044820152606490fd5b156123d057565b60405162461bcd60e51b8152602060048201526011602482015270141c995cd85b1948199a5b985b1a5e9959607a1b6044820152606490fd5b1561241057565b60405162461bcd60e51b81526020600482015260166024820152752132b637bb9036b4b71031b7b73a3934b13aba34b7b760511b6044820152606490fd5b1561245557565b60405162461bcd60e51b815260206004820152601660248201527520b137bb329036b0bc1031b7b73a3934b13aba34b7b760511b6044820152606490fd5b1561249a57565b60405162461bcd60e51b815260206004820152601060248201526f12185c990818d85c081c995858da195960821b6044820152606490fd5b156124d957565b60405162461bcd60e51b815260206004820152600f60248201526e139bdd081dda1a5d195b1a5cdd1959608a1b6044820152606490fd5b1561251757565b60405162461bcd60e51b815260206004820152601d60248201527f576f756c6420657863656564206d617820636f6e747269627574696f6e0000006044820152606490fd5b61266d6101c361257b6125736103436101c76104e2565b42101561234b565b61259561258d610343600584016104e2565b42111561238d565b61265b600782016125b06125ab6112638361050d565b6123c9565b6125ca6125c2610343600286016104e2565b341015612409565b61262260038401916125e96125e1610343856104e2565b34111561244e565b61261d6008860195612616611291610343600161260f6126088c6104e2565b3490611032565b94016104e2565b1115612493565b6104f7565b6126a3575b6115736101cd61265461264c6103436126466126086112f3338761071a565b956104e2565b841115612510565b339061071a565b612667612608826104e2565b906114f0565b7f1bb460ccaaf70fbacfec17a376f8acbd278c1405590ffcc8ebe4b88daf4f64ad61269760405190565b8061130d343383611507565b6126ba6126b561261d336101cc61071a565b6124d2565b612627565b61039a61233b565b610343916126e26112f3926126da600090565b50603461071a565b61071a565b61039a906126f3612e5e565b612753565b156126ff57565b60405162461bcd60e51b815260206004820152602660248201527f4f776e61626c653a206e6577206f776e657220697320746865207a65726f206160448201526564647265737360d01b6064820152608490fd5b61039a906115e161276761174660006115cb565b61277083610371565b14156126f8565b61039a906126e7565b1561278757565b60405162461bcd60e51b8152602060048201526024808201527f45524332303a20617070726f76652066726f6d20746865207a65726f206164646044820152637265737360e01b6064820152608490fd5b156127df57565b60405162461bcd60e51b815260206004820152602260248201527f45524332303a20617070726f766520746f20746865207a65726f206164647265604482015261737360f01b6064820152608490fd5b6128be6128b46128ae7f8c5be1e5ebec7d5bd14f71427d1e84f3dd0314c0f7b2291e5b200ac8c7c3b9259361289661288661286a60006115cb565b61174661287682610371565b61287f86610371565b1415612780565b61288f88610371565b14156127d8565b6128a987611573886126e285603461071a565b610711565b93610711565b9361044660405190565b0390a3565b156128ca57565b60405162461bcd60e51b815260206004820152601d60248201527f45524332303a20696e73756666696369656e7420616c6c6f77616e63650000006044820152606490fd5b9061291a81836126c7565b600019810361292a575b50505050565b61293e9361105d916120a4828210156128c3565b38808080612924565b1561294e57565b60405162461bcd60e51b815260206004820152602560248201527f45524332303a207472616e736665722066726f6d20746865207a65726f206164604482015264647265737360d81b6064820152608490fd5b156129a857565b60405162461bcd60e51b815260206004820152602360248201527f45524332303a207472616e7366657220746f20746865207a65726f206164647260448201526265737360e81b6064820152608490fd5b15612a0057565b60405162461bcd60e51b815260206004820152602660248201527f45524332303a207472616e7366657220616d6f756e7420657863656564732062604482015265616c616e636560d01b6064820152608490fd5b6128be6128b46128ae6000805160206137f883398151915293612aa9612a99612a7d60006115cb565b611746612a8982610371565b612a9286610371565b1415612947565b612aa288610371565b14156129a1565b612ab4878783613242565b6128a9612ae78760336126e2612add8c612ad16112f3898661071a565b6120a4828210156129f9565b611573878461071a565b6126678961032e836104e2565b6103436000612b046103436113fe565b01611616565b5061039a612e5e565b61039a90612b0a565b6103437f4910fdfa16fed3260ed0e7147f7cc6da11a60208b5b9406d12a635614ffd9143610fb8565b9050519061039a8261039c565b906020828203126102c75761034391612b45565b15612b6d57565b60405162461bcd60e51b815260206004820152602960248201527f45524331393637557067726164653a20756e737570706f727465642070726f786044820152681a58589b195555525160ba1b6064820152608490fd5b9190612bdc6000612bd6610343612b1c565b016104f7565b15612bec57505061039a90613392565b612bf86128a984610711565b926020612c0460405190565b6352d1902d60e01b815294859060049082905afa60009481612ca2575b50612c825760405162461bcd60e51b815260206004820152602e60248201527f45524331393637557067726164653a206e657720696d706c656d656e7461746960448201526d6f6e206973206e6f74205555505360901b6064820152608490fd5b612c9d61039a94612c976112916103436113fe565b14612b66565b6132f1565b612cc591955060203d602011612ccc575b612cbd8183610791565b810190612b52565b9338612c21565b503d612cb3565b15612cda57565b60405162461bcd60e51b815260206004820152602160248201527f45524332303a206275726e2066726f6d20746865207a65726f206164647265736044820152607360f81b6064820152608490fd5b15612d3057565b60405162461bcd60e51b815260206004820152602260248201527f45524332303a206275726e20616d6f756e7420657863656564732062616c616e604482015261636560f01b6064820152608490fd5b6000805160206137f88339815191526128be6128b46128ae612da260006115cb565b94612dbf612daf87610371565b612db883610371565b1415612cd3565b612dca878783613242565b612df6612deb88612ddf6112f385603361071a565b6120a482821015612d29565b61157383603361071a565b6128a9612e07886120a460356104e2565b60356114f0565b15612e1557565b60405162461bcd60e51b815280610ef8600482016020808252818101527f4f776e61626c653a2063616c6c6572206973206e6f7420746865206f776e6572604082015260600190565b61039a612e69611824565b612e75610f8c33610371565b14612e0e565b6103436002610fb8565b15612e8c57565b60405162461bcd60e51b815260206004820152601f60248201527f5265656e7472616e637947756172643a207265656e7472616e742063616c6c006044820152606490fd5b61039a612edf6101916104e2565b612ef3612eea612e7b565b91821415612e85565b6101916114f0565b6103436001610fb8565b61039a612ef3612efb565b612f31612f2b612f2060fb611616565b6128a98460fb611b50565b91610711565b907f8be0079c531659141344cd1fd0a4f28419497f9722a3daafe3b4186f6b6457e0612f5c60405190565b80806128be565b612f746103436117816101d76104e2565b4210612ff457612f96610343612f8b6101d76104e2565b61178c6101d56104e2565b421015612fe957610343612fb7612fb16117816101d76104e2565b426116e7565b612fe4612fd3612fc86101d56104e2565b6117d46101d66104e2565b91612fdf6101d36104e2565b611186565b611b7d565b6103436101d36104e2565b6103436000610fb8565b1561300557565b60405162461bcd60e51b815260206004820152601f60248201527f45524332303a206d696e7420746f20746865207a65726f2061646472657373006044820152606490fd5b6000805160206137f88339815191526128be6128b46128ae61306c60006115cb565b61308861307882610371565b61308188610371565b1415612ffe565b613093878783613242565b6130a4612e078861105860356104e2565b6128a9612ae787603361071a565b3b6130c06112916000610fb8565b1190565b156130cb57565b60405162461bcd60e51b815260206004820152602b60248201527f496e697469616c697a61626c653a20636f6e7472616374206973206e6f74206960448201526a6e697469616c697a696e6760a81b6064820152608490fd5b9061039a9161313b613136600061050d565b6130c4565b9061039a9161357d565b9061039a91613124565b61039a613136600061050d565b61039a61314f565b613171613136600061050d565b61039a61039a6135a3565b61039a613164565b613191613136600061050d565b61039a61039a6135c2565b61039a613184565b6131b1613136600061050d565b61039a61039a6135d7565b61039a6131a4565b156131cb57565b60405162461bcd60e51b81526020600482015260136024820152721059191c995cdcc8189b1858dadb1a5cdd1959606a1b6044820152606490fd5b1561320d57565b60405162461bcd60e51b815260206004820152600d60248201526c151bdad95b9cc81b1bd8dad959609a1b6044820152606490fd5b9061039a92916132536101cf6104f7565b6132ae575b6132636101cf61050d565b80613290575b1561363e5761328b6132836103436112f3846101d161071a565b421015613206565b61363e565b5061329e61174660006115cb565b6132a782610371565b1415613269565b6132d36101d0836132c561126361261d868561071a565b91826132d8575b50506131c4565b613258565b6132ea92506112639161261d9161071a565b83386132cc565b916132fb83613654565b815161330a6112916000610fb8565b11908115613328575b5061331c575050565b613325916136dc565b50565b905038613313565b1561333757565b60405162461bcd60e51b815260206004820152602d60248201527f455243313936373a206e657720696d706c656d656e746174696f6e206973206e60448201526c1bdd08184818dbdb9d1c9858dd609a1b6064820152608490fd5b61039a906133a76133a2826130b2565b613330565b60006133b46103436113fe565b01611b50565b9061039a916133cc613136600061050d565b613567565b9160001960089290920291821b911b611161565b91906133f661034361118293610fb8565b9083546133d1565b61039a916000916133e5565b818110613415575050565b8061342360006001936133fe565b0161340a565b9190601f811161343857505050565b61344a61039a93600052602060002090565b906020601f84018190048301931061346c575b6020601f90910104019061340a565b909150819061345d565b9060001960089091021c191690565b8161348f91613476565b906002021790565b906134a0815190565b906001600160401b0382116107b2576134c3826134bd8554610d75565b85613429565b602090601f83116001146134f1576111829291600091836134e6575b5050613485565b0151905038806134df565b601f1983169161350685600052602060002090565b9260005b8181106135455750916002939185600196941061352b575b50505002019055565b61353b910151601f841690613476565b9055388080613522565b9193602060018192878701518155019501920161350a565b9061039a91613497565b9061357661039a92603661355d565b603761355d565b9061039a916133ba565b613594613136600061050d565b61039a61039a60006097611b27565b61039a613587565b6135b8613136600061050d565b61039a8033612f10565b61039a6135ab565b61108d613136600061050d565b61039a6135ca565b156135e657565b60405162461bcd60e51b815260206004820152602a60248201527f45524332305061757361626c653a20746f6b656e207472616e736665722077686044820152691a5b19481c185d5cd95960b21b6064820152608490fd5b50505061039a61364f61126361143a565b6135df565b613661906128a981613392565b7fbc7cd75a20ee27fd9adebab32041f755214dbc6bffa90cc0225b39da2e5c2d3b61368b60405190565b600090a2565b61369b6027610cff565b7f416464726573733a206c6f772d6c6576656c2064656c65676174652063616c6c6020820152660819985a5b195960ca1b604082015290565b610343613691565b610343916136e86136d4565b9160008061034394936136f9606090565b50602081519101845af461370b611199565b9161375d565b1561371857565b60405162461bcd60e51b815260206004820152601d60248201527f416464726573733a2063616c6c20746f206e6f6e2d636f6e74726163740000006044820152606490fd5b9192901561378f575081516137756112916000610fb8565b1461377e575090565b61378a610343916130b2565b613711565b8290613799825190565b6137a66112916000610fb8565b11156137b55750805190602001fd5b610ef8906137c260405190565b62461bcd60e51b81529182916004830161033256fe46756e6374696f6e206d7573742062652063616c6c6564207468726f75676820ddf252ad1be2c89b69c2b068fc378daa952ba7f163c4a11628f55a4df523b3efa26469706673582212207a03cb33b9596a5628484257d0537acc954a08b4052bcd0c5bbac50983018f9764736f6c63430008160033",
  "linkReferences": {},
  "deployedLinkReferences": {}
}