{
  "_format": "hh-sol-artifact-1",
  "contractName": "TokenTemplate_v3",
  "sourceName": "src/contracts/TokenTemplate_v3.sol",
  "abi": [
    {
      "inputs": [],
      "stateMutability": "nonpayable",
      "type": "constructor"
    },
    {
      "anonymous": false,
      "inputs": [
        {
          "indexed": false,
          "internalType": "address",
          "name": "previousAdmin",
          "type": "address"
        },
        {
          "indexed": false,
          "internalType": "address",
          "name": "newAdmin",
          "type": "address"
        }
      ],
      "name": "AdminChanged",
      "type": "event"
    },
    {
      "anonymous": false,
      "inputs": [
        {
          "indexed": true,
          "internalType": "address",
          "name": "owner",
          "type": "address"
        },
        {
          "indexed": true,
          "internalType": "address",
          "name": "spender",
          "type": "address"
        },
        {
          "indexed": false,
          "internalType": "uint256",
          "name": "value",
          "type": "uint256"
        }
      ],
      "name": "Approval",
      "type": "event"
    },
    {
      "anonymous": false,
      "inputs": [
        {
          "indexed": true,
          "internalType": "address",
          "name": "beacon",
          "type": "address"
        }
      ],
      "name": "BeaconUpgraded",
      "type": "event"
    },
    {
      "anonymous": false,
      "inputs": [
        {
          "indexed": false,
          "internalType": "address[]",
          "name": "addresses",
          "type": "address[]"
        },
        {
          "indexed": false,
          "internalType": "bool",
          "name": "status",
          "type": "bool"
        }
      ],
      "name": "BlacklistUpdated",
      "type": "event"
    },
    {
      "anonymous": false,
      "inputs": [
        {
          "indexed": false,
          "internalType": "address",
          "name": "contributor",
          "type": "address"
        },
        {
          "indexed": false,
          "internalType": "uint256",
          "name": "amount",
          "type": "uint256"
        },
        {
          "indexed": false,
          "internalType": "uint256",
          "name": "tokenAmount",
          "type": "uint256"
        }
      ],
      "name": "ContributionReceived",
      "type": "event"
    },
    {
      "anonymous": false,
      "inputs": [
        {
          "indexed": false,
          "internalType": "address",
          "name": "contributor",
          "type": "address"
        },
        {
          "indexed": false,
          "internalType": "uint256",
          "name": "amount",
          "type": "uint256"
        }
      ],
      "name": "ContributionRefunded",
      "type": "event"
    },
    {
      "anonymous": false,
      "inputs": [
        {
          "indexed": false,
          "internalType": "uint8",
          "name": "version",
          "type": "uint8"
        }
      ],
      "name": "Initialized",
      "type": "event"
    },
    {
      "anonymous": false,
      "inputs": [
        {
          "indexed": true,
          "internalType": "address",
          "name": "pair",
          "type": "address"
        },
        {
          "indexed": false,
          "internalType": "uint256",
          "name": "tokensAdded",
          "type": "uint256"
        },
        {
          "indexed": false,
          "internalType": "uint256",
          "name": "ethAdded",
          "type": "uint256"
        }
      ],
      "name": "LiquidityPoolCreated",
      "type": "event"
    },
    {
      "anonymous": false,
      "inputs": [
        {
          "indexed": true,
          "internalType": "address",
          "name": "previousOwner",
          "type": "address"
        },
        {
          "indexed": true,
          "internalType": "address",
          "name": "newOwner",
          "type": "address"
        }
      ],
      "name": "OwnershipTransferred",
      "type": "event"
    },
    {
      "anonymous": false,
      "inputs": [
        {
          "indexed": false,
          "internalType": "address",
          "name": "account",
          "type": "address"
        }
      ],
      "name": "Paused",
      "type": "event"
    },
    {
      "anonymous": false,
      "inputs": [
        {
          "indexed": false,
          "internalType": "uint256",
          "name": "totalContributed",
          "type": "uint256"
        },
        {
          "indexed": false,
          "internalType": "uint256",
          "name": "totalTokensDistributed",
          "type": "uint256"
        }
      ],
      "name": "PresaleFinalized",
      "type": "event"
    },
    {
      "anonymous": false,
      "inputs": [
        {
          "indexed": true,
          "internalType": "address",
          "name": "contributor",
          "type": "address"
        },
        {
          "indexed": false,
          "internalType": "uint256",
          "name": "amount",
          "type": "uint256"
        },
        {
          "indexed": false,
          "internalType": "uint256",
          "name": "tokensReceived",
          "type": "uint256"
        }
      ],
      "name": "PresaleParticipation",
      "type": "event"
    },
    {
      "anonymous": false,
      "inputs": [
        {
          "indexed": false,
          "internalType": "uint256",
          "name": "softCap",
          "type": "uint256"
        },
        {
          "indexed": false,
          "internalType": "uint256",
          "name": "hardCap",
          "type": "uint256"
        },
        {
          "indexed": false,
          "internalType": "uint256",
          "name": "startTime",
          "type": "uint256"
        },
        {
          "indexed": false,
          "internalType": "uint256",
          "name": "endTime",
          "type": "uint256"
        },
        {
          "indexed": false,
          "internalType": "uint256",
          "name": "presaleRate",
          "type": "uint256"
        }
      ],
      "name": "PresaleStarted",
      "type": "event"
    },
    {
      "anonymous": false,
      "inputs": [
        {
          "indexed": true,
          "internalType": "address",
          "name": "contributor",
          "type": "address"
        },
        {
          "indexed": false,
          "internalType": "uint256",
          "name": "amount",
          "type": "uint256"
        }
      ],
      "name": "RefundClaimed",
      "type": "event"
    },
    {
      "anonymous": false,
      "inputs": [
        {
          "indexed": false,
          "internalType": "address",
          "name": "account",
          "type": "address"
        },
        {
          "indexed": false,
          "internalType": "uint256",
          "name": "unlockTime",
          "type": "uint256"
        }
      ],
      "name": "TimeLockSet",
      "type": "event"
    },
    {
      "anonymous": false,
      "inputs": [
        {
          "indexed": true,
          "internalType": "address",
          "name": "recipient",
          "type": "address"
        },
        {
          "indexed": false,
          "internalType": "uint256",
          "name": "amount",
          "type": "uint256"
        }
      ],
      "name": "TokensDistributed",
      "type": "event"
    },
    {
      "anonymous": false,
      "inputs": [
        {
          "indexed": true,
          "internalType": "address",
          "name": "from",
          "type": "address"
        },
        {
          "indexed": true,
          "internalType": "address",
          "name": "to",
          "type": "address"
        },
        {
          "indexed": false,
          "internalType": "uint256",
          "name": "value",
          "type": "uint256"
        }
      ],
      "name": "Transfer",
      "type": "event"
    },
    {
      "anonymous": false,
      "inputs": [
        {
          "indexed": false,
          "internalType": "address",
          "name": "account",
          "type": "address"
        }
      ],
      "name": "Unpaused",
      "type": "event"
    },
    {
      "anonymous": false,
      "inputs": [
        {
          "indexed": true,
          "internalType": "address",
          "name": "implementation",
          "type": "address"
        }
      ],
      "name": "Upgraded",
      "type": "event"
    },
    {
      "anonymous": false,
      "inputs": [
        {
          "indexed": false,
          "internalType": "address[]",
          "name": "addresses",
          "type": "address[]"
        },
        {
          "indexed": false,
          "internalType": "bool",
          "name": "status",
          "type": "bool"
        }
      ],
      "name": "WhitelistUpdated",
      "type": "event"
    },
    {
      "inputs": [],
      "name": "VERSION",
      "outputs": [
        {
          "internalType": "string",
          "name": "",
          "type": "string"
        }
      ],
      "stateMutability": "view",
      "type": "function"
    },
    {
      "inputs": [
        {
          "internalType": "address",
          "name": "owner",
          "type": "address"
        },
        {
          "internalType": "address",
          "name": "spender",
          "type": "address"
        }
      ],
      "name": "allowance",
      "outputs": [
        {
          "internalType": "uint256",
          "name": "",
          "type": "uint256"
        }
      ],
      "stateMutability": "view",
      "type": "function"
    },
    {
      "inputs": [
        {
          "internalType": "address",
          "name": "spender",
          "type": "address"
        },
        {
          "internalType": "uint256",
          "name": "amount",
          "type": "uint256"
        }
      ],
      "name": "approve",
      "outputs": [
        {
          "internalType": "bool",
          "name": "",
          "type": "bool"
        }
      ],
      "stateMutability": "nonpayable",
      "type": "function"
    },
    {
      "inputs": [
        {
          "internalType": "address",
          "name": "account",
          "type": "address"
        }
      ],
      "name": "balanceOf",
      "outputs": [
        {
          "internalType": "uint256",
          "name": "",
          "type": "uint256"
        }
      ],
      "stateMutability": "view",
      "type": "function"
    },
    {
      "inputs": [
        {
          "internalType": "address",
          "name": "",
          "type": "address"
        }
      ],
      "name": "blacklist",
      "outputs": [
        {
          "internalType": "bool",
          "name": "",
          "type": "bool"
        }
      ],
      "stateMutability": "view",
      "type": "function"
    },
    {
      "inputs": [],
      "name": "blacklistEnabled",
      "outputs": [
        {
          "internalType": "bool",
          "name": "",
          "type": "bool"
        }
      ],
      "stateMutability": "view",
      "type": "function"
    },
    {
      "inputs": [
        {
          "internalType": "uint256",
          "name": "amount",
          "type": "uint256"
        }
      ],
      "name": "burn",
      "outputs": [],
      "stateMutability": "nonpayable",
      "type": "function"
    },
    {
      "inputs": [
        {
          "internalType": "address",
          "name": "account",
          "type": "address"
        },
        {
          "internalType": "uint256",
          "name": "amount",
          "type": "uint256"
        }
      ],
      "name": "burnFrom",
      "outputs": [],
      "stateMutability": "nonpayable",
      "type": "function"
    },
    {
      "inputs": [],
      "name": "claimRefund",
      "outputs": [],
      "stateMutability": "nonpayable",
      "type": "function"
    },
    {
      "inputs": [],
      "name": "contribute",
      "outputs": [],
      "stateMutability": "payable",
      "type": "function"
    },
    {
      "inputs": [
        {
          "internalType": "address",
          "name": "",
          "type": "address"
        }
      ],
      "name": "contributions",
      "outputs": [
        {
          "internalType": "uint256",
          "name": "",
          "type": "uint256"
        }
      ],
      "stateMutability": "view",
      "type": "function"
    },
    {
      "inputs": [
        {
          "internalType": "uint256",
          "name": "",
          "type": "uint256"
        }
      ],
      "name": "contributors",
      "outputs": [
        {
          "internalType": "address",
          "name": "",
          "type": "address"
        }
      ],
      "stateMutability": "view",
      "type": "function"
    },
    {
      "inputs": [],
      "name": "decimals",
      "outputs": [
        {
          "internalType": "uint8",
          "name": "",
          "type": "uint8"
        }
      ],
      "stateMutability": "view",
      "type": "function"
    },
    {
      "inputs": [
        {
          "internalType": "address",
          "name": "spender",
          "type": "address"
        },
        {
          "internalType": "uint256",
          "name": "subtractedValue",
          "type": "uint256"
        }
      ],
      "name": "decreaseAllowance",
      "outputs": [
        {
          "internalType": "bool",
          "name": "",
          "type": "bool"
        }
      ],
      "stateMutability": "nonpayable",
      "type": "function"
    },
    {
      "inputs": [],
      "name": "finalize",
      "outputs": [],
      "stateMutability": "nonpayable",
      "type": "function"
    },
    {
      "inputs": [],
      "name": "finalizePresale",
      "outputs": [],
      "stateMutability": "nonpayable",
      "type": "function"
    },
    {
      "inputs": [],
      "name": "getContributorCount",
      "outputs": [
        {
          "internalType": "uint256",
          "name": "",
          "type": "uint256"
        }
      ],
      "stateMutability": "view",
      "type": "function"
    },
    {
      "inputs": [
        {
          "internalType": "address",
          "name": "contributor",
          "type": "address"
        }
      ],
      "name": "getContributorInfo",
      "outputs": [
        {
          "internalType": "uint256",
          "name": "contribution",
          "type": "uint256"
        },
        {
          "internalType": "uint256",
          "name": "tokenAllocation",
          "type": "uint256"
        },
        {
          "internalType": "bool",
          "name": "isWhitelisted",
          "type": "bool"
        }
      ],
      "stateMutability": "view",
      "type": "function"
    },
    {
      "inputs": [],
      "name": "getContributors",
      "outputs": [
        {
          "internalType": "address[]",
          "name": "",
          "type": "address[]"
        }
      ],
      "stateMutability": "view",
      "type": "function"
    },
    {
      "inputs": [],
      "name": "getUserCount",
      "outputs": [
        {
          "internalType": "uint256",
          "name": "",
          "type": "uint256"
        }
      ],
      "stateMutability": "view",
      "type": "function"
    },
    {
      "inputs": [],
      "name": "getUsers",
      "outputs": [
        {
          "internalType": "address[]",
          "name": "",
          "type": "address[]"
        }
      ],
      "stateMutability": "view",
      "type": "function"
    },
    {
      "inputs": [
        {
          "internalType": "address",
          "name": "spender",
          "type": "address"
        },
        {
          "internalType": "uint256",
          "name": "addedValue",
          "type": "uint256"
        }
      ],
      "name": "increaseAllowance",
      "outputs": [
        {
          "internalType": "bool",
          "name": "",
          "type": "bool"
        }
      ],
      "stateMutability": "nonpayable",
      "type": "function"
    },
    {
      "inputs": [
        {
          "components": [
            {
              "internalType": "string",
              "name": "name",
              "type": "string"
            },
            {
              "internalType": "string",
              "name": "symbol",
              "type": "string"
            },
            {
              "internalType": "uint256",
              "name": "initialSupply",
              "type": "uint256"
            },
            {
              "internalType": "uint256",
              "name": "maxSupply",
              "type": "uint256"
            },
            {
              "internalType": "address",
              "name": "owner",
              "type": "address"
            },
            {
              "internalType": "bool",
              "name": "enableBlacklist",
              "type": "bool"
            },
            {
              "internalType": "bool",
              "name": "enableTimeLock",
              "type": "bool"
            },
            {
              "internalType": "uint256",
              "name": "presaleRate",
              "type": "uint256"
            },
            {
              "internalType": "uint256",
              "name": "minContribution",
              "type": "uint256"
            },
            {
              "internalType": "uint256",
              "name": "maxContribution",
              "type": "uint256"
            },
            {
              "internalType": "uint256",
              "name": "presaleCap",
              "type": "uint256"
            },
            {
              "internalType": "uint256",
              "name": "startTime",
              "type": "uint256"
            },
            {
              "internalType": "uint256",
              "name": "endTime",
              "type": "uint256"
            },
            {
              "internalType": "uint256",
              "name": "presalePercentage",
              "type": "uint256"
            },
            {
              "internalType": "uint256",
              "name": "liquidityPercentage",
              "type": "uint256"
            },
            {
              "internalType": "uint256",
              "name": "liquidityLockDuration",
              "type": "uint256"
            },
            {
              "components": [
                {
                  "internalType": "address",
                  "name": "wallet",
                  "type": "address"
                },
                {
                  "internalType": "uint256",
                  "name": "percentage",
                  "type": "uint256"
                }
              ],
              "internalType": "struct TokenTemplate_v3.WalletAllocation[]",
              "name": "walletAllocations",
              "type": "tuple[]"
            }
          ],
          "internalType": "struct TokenTemplate_v3.InitParams",
          "name": "params",
          "type": "tuple"
        }
      ],
      "name": "initialize",
      "outputs": [],
      "stateMutability": "nonpayable",
      "type": "function"
    },
    {
      "inputs": [
        {
          "internalType": "address",
          "name": "",
          "type": "address"
        }
      ],
      "name": "isContributor",
      "outputs": [
        {
          "internalType": "bool",
          "name": "",
          "type": "bool"
        }
      ],
      "stateMutability": "view",
      "type": "function"
    },
    {
      "inputs": [
        {
          "internalType": "address",
          "name": "",
          "type": "address"
        }
      ],
      "name": "isUser",
      "outputs": [
        {
          "internalType": "bool",
          "name": "",
          "type": "bool"
        }
      ],
      "stateMutability": "view",
      "type": "function"
    },
    {
      "inputs": [],
      "name": "maxSupply",
      "outputs": [
        {
          "internalType": "uint256",
          "name": "",
          "type": "uint256"
        }
      ],
      "stateMutability": "view",
      "type": "function"
    },
    {
      "inputs": [],
      "name": "name",
      "outputs": [
        {
          "internalType": "string",
          "name": "",
          "type": "string"
        }
      ],
      "stateMutability": "view",
      "type": "function"
    },
    {
      "inputs": [],
      "name": "owner",
      "outputs": [
        {
          "internalType": "address",
          "name": "",
          "type": "address"
        }
      ],
      "stateMutability": "view",
      "type": "function"
    },
    {
      "inputs": [],
      "name": "participateInPresale",
      "outputs": [],
      "stateMutability": "payable",
      "type": "function"
    },
    {
      "inputs": [],
      "name": "paused",
      "outputs": [
        {
          "internalType": "bool",
          "name": "",
          "type": "bool"
        }
      ],
      "stateMutability": "view",
      "type": "function"
    },
    {
      "inputs": [
        {
          "internalType": "address",
          "name": "",
          "type": "address"
        }
      ],
      "name": "presaleContributorTokens",
      "outputs": [
        {
          "internalType": "uint256",
          "name": "",
          "type": "uint256"
        }
      ],
      "stateMutability": "view",
      "type": "function"
    },
    {
      "inputs": [],
      "name": "presaleInfo",
      "outputs": [
        {
          "internalType": "uint256",
          "name": "softCap",
          "type": "uint256"
        },
        {
          "internalType": "uint256",
          "name": "hardCap",
          "type": "uint256"
        },
        {
          "internalType": "uint256",
          "name": "minContribution",
          "type": "uint256"
        },
        {
          "internalType": "uint256",
          "name": "maxContribution",
          "type": "uint256"
        },
        {
          "internalType": "uint256",
          "name": "startTime",
          "type": "uint256"
        },
        {
          "internalType": "uint256",
          "name": "endTime",
          "type": "uint256"
        },
        {
          "internalType": "uint256",
          "name": "presaleRate",
          "type": "uint256"
        },
        {
          "internalType": "bool",
          "name": "whitelistEnabled",
          "type": "bool"
        },
        {
          "internalType": "bool",
          "name": "finalized",
          "type": "bool"
        },
        {
          "internalType": "uint256",
          "name": "totalContributed",
          "type": "uint256"
        }
      ],
      "stateMutability": "view",
      "type": "function"
    },
    {
      "inputs": [],
      "name": "proxiableUUID",
      "outputs": [
        {
          "internalType": "bytes32",
          "name": "",
          "type": "bytes32"
        }
      ],
      "stateMutability": "view",
      "type": "function"
    },
    {
      "inputs": [],
      "name": "renounceOwnership",
      "outputs": [],
      "stateMutability": "nonpayable",
      "type": "function"
    },
    {
      "inputs": [
        {
          "internalType": "address",
          "name": "account",
          "type": "address"
        },
        {
          "internalType": "uint256",
          "name": "unlockTime",
          "type": "uint256"
        }
      ],
      "name": "setTimeLock",
      "outputs": [],
      "stateMutability": "nonpayable",
      "type": "function"
    },
    {
      "inputs": [],
      "name": "symbol",
      "outputs": [
        {
          "internalType": "string",
          "name": "",
          "type": "string"
        }
      ],
      "stateMutability": "view",
      "type": "function"
    },
    {
      "inputs": [],
      "name": "timeLockEnabled",
      "outputs": [
        {
          "internalType": "bool",
          "name": "",
          "type": "bool"
        }
      ],
      "stateMutability": "view",
      "type": "function"
    },
    {
      "inputs": [
        {
          "internalType": "address",
          "name": "",
          "type": "address"
        }
      ],
      "name": "timeLocks",
      "outputs": [
        {
          "internalType": "uint256",
          "name": "",
          "type": "uint256"
        }
      ],
      "stateMutability": "view",
      "type": "function"
    },
    {
      "inputs": [],
      "name": "totalPresaleTokensDistributed",
      "outputs": [
        {
          "internalType": "uint256",
          "name": "",
          "type": "uint256"
        }
      ],
      "stateMutability": "view",
      "type": "function"
    },
    {
      "inputs": [],
      "name": "totalSupply",
      "outputs": [
        {
          "internalType": "uint256",
          "name": "",
          "type": "uint256"
        }
      ],
      "stateMutability": "view",
      "type": "function"
    },
    {
      "inputs": [
        {
          "internalType": "address",
          "name": "to",
          "type": "address"
        },
        {
          "internalType": "uint256",
          "name": "amount",
          "type": "uint256"
        }
      ],
      "name": "transfer",
      "outputs": [
        {
          "internalType": "bool",
          "name": "",
          "type": "bool"
        }
      ],
      "stateMutability": "nonpayable",
      "type": "function"
    },
    {
      "inputs": [
        {
          "internalType": "address",
          "name": "from",
          "type": "address"
        },
        {
          "internalType": "address",
          "name": "to",
          "type": "address"
        },
        {
          "internalType": "uint256",
          "name": "amount",
          "type": "uint256"
        }
      ],
      "name": "transferFrom",
      "outputs": [
        {
          "internalType": "bool",
          "name": "",
          "type": "bool"
        }
      ],
      "stateMutability": "nonpayable",
      "type": "function"
    },
    {
      "inputs": [
        {
          "internalType": "address",
          "name": "newOwner",
          "type": "address"
        }
      ],
      "name": "transferOwnership",
      "outputs": [],
      "stateMutability": "nonpayable",
      "type": "function"
    },
    {
      "inputs": [
        {
          "internalType": "address[]",
          "name": "addresses",
          "type": "address[]"
        },
        {
          "internalType": "bool",
          "name": "status",
          "type": "bool"
        }
      ],
      "name": "updateBlacklist",
      "outputs": [],
      "stateMutability": "nonpayable",
      "type": "function"
    },
    {
      "inputs": [
        {
          "internalType": "address[]",
          "name": "addresses",
          "type": "address[]"
        },
        {
          "internalType": "bool",
          "name": "status",
          "type": "bool"
        }
      ],
      "name": "updateWhitelist",
      "outputs": [],
      "stateMutability": "nonpayable",
      "type": "function"
    },
    {
      "inputs": [
        {
          "internalType": "address",
          "name": "newImplementation",
          "type": "address"
        }
      ],
      "name": "upgradeTo",
      "outputs": [],
      "stateMutability": "nonpayable",
      "type": "function"
    },
    {
      "inputs": [
        {
          "internalType": "address",
          "name": "newImplementation",
          "type": "address"
        },
        {
          "internalType": "bytes",
          "name": "data",
          "type": "bytes"
        }
      ],
      "name": "upgradeToAndCall",
      "outputs": [],
      "stateMutability": "payable",
      "type": "function"
    },
    {
      "inputs": [],
      "name": "userCount",
      "outputs": [
        {
          "internalType": "uint256",
          "name": "",
          "type": "uint256"
        }
      ],
      "stateMutability": "view",
      "type": "function"
    },
    {
      "inputs": [
        {
          "internalType": "uint256",
          "name": "",
          "type": "uint256"
        }
      ],
      "name": "users",
      "outputs": [
        {
          "internalType": "address",
          "name": "",
          "type": "address"
        }
      ],
      "stateMutability": "view",
      "type": "function"
    },
    {
      "inputs": [
        {
          "internalType": "address",
          "name": "",
          "type": "address"
        }
      ],
      "name": "whitelist",
      "outputs": [
        {
          "internalType": "bool",
          "name": "",
          "type": "bool"
        }
      ],
      "stateMutability": "view",
      "type": "function"
    }
  ],
  "bytecode": "0x60a08060405234620000e157306080526000549060ff8260081c166200008f575060ff8082160362000053575b604051613a979081620000e78239608051818181611c1401528181611d1401526123000152f35b60ff90811916176000557f7f26b83ff96e1f2b6a682f133852f6798a09c465da95921460cefb3847402498602060405160ff8152a1386200002c565b62461bcd60e51b815260206004820152602760248201527f496e697469616c697a61626c653a20636f6e747261637420697320696e697469604482015266616c697a696e6760c81b6064820152608490fd5b600080fdfe608080604052600436101561001357600080fd5b60003560e01c908162ce8e3e146127d05750806306fdde031461273a57806307973ccf14611464578063095ea7b3146127145780630bce8cdf146126b157806318160ddd146126935780631d0d35f51461265357806323b872dd1461261b578063253da8bd146125fc5780632edf08691461257c578063313ce567146125605780633659cfe6146122dc578063365b98b21461228157806339509351146122305780633cb5d100146121ed5780634209fff1146121ad57806342966c681461219057806342e94c9014612155578063488dc57d1461211a5780634afa0042146120fb5780634bb278f314611f595780634f1ef28614611cc557806352d1902d14611c015780635c975abb14611bde578063644fab7414611ad557806370a0823114611a9b578063715018a614611a3e57806379cc679014611a0e5780637f76b223146119d35780638da5cb5b146119aa57806395d89b41146118dd5780639b19251a1461189d578063a0a6e940146117f5578063a457c2d71461174e578063a9059cbb1461171d578063af157c191461168d578063aff177ca146115ae578063b5545a3c14611483578063b5cb15f714611464578063bb0e69e814611380578063bffb691d1461135c578063caa07a0c14611165578063cba4cbd31461113e578063d5abeb011461111f578063d7bb99ba14610e5a578063dd62ed3e14610e09578063f2fde38b14610d7a578063f3d9c901146102f3578063f9f92be4146102b35763ffa1ad741461024457600080fd5b346102ae5760003660031901126102ae5760405160408101908082106001600160401b03831117610298576102949160405260058152640332e302e360dc1b602082015260405191829182612897565b0390f35b634e487b7160e01b600052604160045260246000fd5b600080fd5b346102ae5760203660031901126102ae576001600160a01b036102d46128e0565b166000526101d3602052602060ff604060002054166040519015158152f35b346102ae576003196020368201126102ae576001600160401b03600435116102ae5761022090600435360301126102ae5760005460ff8160081c1615808091610d6d575b8015610d56575b15610cfa5760ff1982166001176000556103939181610ce8575b50610367600480350180612ded565b61038b610381602460049694963501600435600401612ded565b95909236916129b0565b9336916129b0565b906103ae60ff60005460081c166103a981613697565b613697565b82516001600160401b038111610298576103c9603654612a40565b601f8111610c7f575b506020601f8211600114610c0b5781929394600092610c00575b50508160011b916000199060031b1c1916176036555b81516001600160401b0381116102985761041d603754612a40565b601f8111610b97575b50602092601f8211600114610b275792819293600092610b1c575b50508160011b916000199060031b1c1916176037555b61049160ff60005460081c1661046c81613697565b61047581613697565b61047e81613697565b60ff19609754166097556103a981613697565b61049a33613569565b6104c360ff60005460081c166104af81613697565b6104b881613697565b600161019155613697565b6104d96104d4608460043501612c62565b613569565b604460043501356064600435013510610acb5761050161020460043501600435600401612e1f565b159050610a42576105206101c460043501356101a46004350135612b3c565b906000915b61053a61020460043501600435600401612e1f565b9050831015610655578261057361056e61055f61020460043501600435600401612e1f565b6001600160a01b039491612e54565b612c62565b161561061057602061059a8461059461020460043501600435600401612e1f565b90612e54565b0135156105d2576105ca60019160206105c28661059461020460043501600435600401612e1f565b013590612b3c565b920191610525565b60405162461bcd60e51b8152602060048201526016602482015275050657263656e74616765206d757374206265203e20360541b6044820152606490fd5b60405162461bcd60e51b815260206004820152601d60248201527f57616c6c657420616464726573732063616e6e6f74206265207a65726f0000006044820152606490fd5b6064919250036109fd575b606460043501356101d15561067960a460043501612e64565b15156101d290815460ff61ff0061069460c460043501612e64565b151560081b1692169061ffff19161717905560646106bf6101a4600435013560446004350135612dda565b0460646106d96101c4600435013560446004350135612dda565b049080156109b8578115610973576106f181306136f7565b604051908152600080516020613a4283398151915260203092a261071581306136f7565b604051908152600080516020613a4283398151915260203092a2604051806101408101106001600160401b03610140830111176102985761014081016040908152600435610144810135600181901c80855260208501829052610104830135938501849052610124830135606086018190526101648401356080870181905261018485013560a0880181905260e49095013560c08801819052600060e089018190526101008901819052610120989098018890526101c6939093556101c7939093556101c8949094556101c9939093556101ca556101cb556101cc556101cd805461ffff191690556101ce8190555b61081961020460043501600435600401612e1f565b905081101561093457606461085060206108428461059461020460043501600435600401612e1f565b013560446004350135612dda565b049081156108ef578161088060019361087b61056e8561059461020460043501600435600401612e1f565b6136f7565b600080516020613a428339815191526020836108bc61056e6108ad61020460043501600435600401612e1f565b898060a09693961b0394612e54565b1692604051908152a26108e96108e461056e8361059461020460043501600435600401612e1f565b6135b2565b01610804565b60405162461bcd60e51b815260206004820152601960248201527f57616c6c657420746f6b656e73206d757374206265203e2030000000000000006044820152606490fd5b5061093b57005b61ff0019600054166000557f7f26b83ff96e1f2b6a682f133852f6798a09c465da95921460cefb3847402498602060405160018152a1005b60405162461bcd60e51b815260206004820152601c60248201527f4c697175696469747920746f6b656e73206d757374206265203e2030000000006044820152606490fd5b60405162461bcd60e51b815260206004820152601a60248201527f50726573616c6520746f6b656e73206d757374206265203e20300000000000006044820152606490fd5b60405162461bcd60e51b815260206004820152601c60248201527f546f74616c2070657263656e74616765206d75737420626520313030000000006044820152606490fd5b6064610a5c6101c460043501356101a46004350135612b3c565b1461066057608460405162461bcd60e51b815260206004820152604060248201527f50726573616c6520616e64206c6971756964697479206d75737420746f74616c60448201527f2031303025207768656e206e6f206164646974696f6e616c2077616c6c6574736064820152fd5b60405162461bcd60e51b8152602060048201526024808201527f4d617820737570706c79206d757374206265203e3d20696e697469616c20737560448201526370706c7960e01b6064820152608490fd5b015190508380610441565b601f198216936037600052600080516020613a228339815191529160005b868110610b7f5750836001959610610b66575b505050811b01603755610457565b015160001960f88460031b161c19169055838080610b58565b91926020600181928685015181550194019201610b45565b6037600052601f820160051c600080516020613a228339815191520160208310610beb575b601f820160051c600080516020613a22833981519152018110610bdf5750610426565b60008155600101610bbc565b50600080516020613a22833981519152610bbc565b0151905084806103ec565b60366000526000805160206139e28339815191529060005b601f1984168110610c675750600193949583601f19811610610c4e575b505050811b01603655610402565b015160001960f88460031b161c19169055848080610c40565b9091602060018192858a015181550193019101610c23565b6036600052601f820160051c6000805160206139e28339815191520160208310610cd3575b601f820160051c6000805160206139e2833981519152018110610cc757506103d2565b60008155600101610ca4565b506000805160206139e2833981519152610ca4565b61ffff19166101011760005582610358565b60405162461bcd60e51b815260206004820152602e60248201527f496e697469616c697a61626c653a20636f6e747261637420697320616c72656160448201526d191e481a5b9a5d1a585b1a5e995960921b6064820152608490fd5b50303b15801561033e5750600160ff83161461033e565b50600160ff831610610337565b346102ae5760203660031901126102ae57610d936128e0565b610d9b6134ba565b6001600160a01b03811615610db557610db390613569565b005b60405162461bcd60e51b815260206004820152602660248201527f4f776e61626c653a206e6577206f776e657220697320746865207a65726f206160448201526564647265737360d01b6064820152608490fd5b346102ae5760403660031901126102ae57610e226128e0565b610e2a6128f6565b9060018060a01b038091166000526034602052604060002091166000526020526020604060002054604051908152f35b60003660031901126102ae57610e6e613512565b6101ca5442106110e4576101cb5442116110af576101cd54610e9660ff8260081c1615612cd1565b610ea56101c854341015612d11565b6101c95490610eb682341115612d56565b60ff6101ce91610ed5610eca348554612b3c565b6101c7541015612d9b565b16611061575b336000526101d0602091818352610ef734604060002054612b3c565b93841161101c57336000526101d680845260ff6040600020541615610f9a575b7fd2dff949d20e874cc6ba1dcefb840fb8cf6000a4197bfb69accfea5a32443ff5606085858589610f4b6101cc5434612dda565b92336000526101d785526040600020610f65858254612b3c565b9055336000528452604060002055610f7e348254612b3c565b90556040519133835234908301526040820152a1600161019155005b9291906101d594855494600160401b86101561029857610fe3867fd2dff949d20e874cc6ba1dcefb840fb8cf6000a4197bfb69accfea5a32443ff598600160609901905561290c565b81549060031b9033821b9160018060a01b03901b19161790553360005284526040600020600160ff198254161790559450909192610f17565b60405162461bcd60e51b815260048101849052601d60248201527f576f756c6420657863656564206d617820636f6e747269627574696f6e0000006044820152606490fd5b336000526101cf60205260ff60406000205416610edb5760405162461bcd60e51b815260206004820152600f60248201526e139bdd081dda1a5d195b1a5cdd1959608a1b6044820152606490fd5b60405162461bcd60e51b815260206004820152600d60248201526c141c995cd85b1948195b991959609a1b6044820152606490fd5b60405162461bcd60e51b8152602060048201526013602482015272141c995cd85b19481b9bdd081cdd185c9d1959606a1b6044820152606490fd5b346102ae5760003660031901126102ae5760206101d154604051908152f35b346102ae5760003660031901126102ae57602060ff6101d25460081c166040519015158152f35b60003660031901126102ae57611179613512565b6101ca544210611317576101cb5442116112de5760ff6101cd5460081c166112a2576111aa6101c854341015612d11565b6111b96101c954341115612d56565b6101ce8054906111cc610eca3484612b3c565b6111d96101cc5434612dda565b918215611267576111eb903490612b3c565b9055336000526101d06020526040600020611207348254612b3c565b90556101d8611217828254612b3c565b905561122481333061300b565b61122d336135b2565b6040519034825260208201527f7328344177fc6d840574aa1d342887bb3cc0db401813cdf2ee680609a603871160403392a2600161019155005b60405162461bcd60e51b81526020600482015260136024820152724d757374207265636569766520746f6b656e7360681b6044820152606490fd5b60405162461bcd60e51b8152602060048201526014602482015273141c995cd85b19481a5cc8199a5b985b1a5e995960621b6044820152606490fd5b60405162461bcd60e51b8152602060048201526011602482015270141c995cd85b19481a185cc8195b991959607a1b6044820152606490fd5b60405162461bcd60e51b815260206004820152601760248201527f50726573616c6520686173206e6f7420737461727465640000000000000000006044820152606490fd5b346102ae5760003660031901126102ae57602060ff6101d254166040519015158152f35b346102ae5761138e366129e7565b916113976134ba565b60ff6101d25416156114275760005b8281106113e457506113df7f11d4d128e8f89ae2e8815168b9eba079dd6668b75f1e3a9dd96ac6192a7c4dcb9360405193849384612c76565b0390a1005b6001906001600160a01b036113fd61056e838787612c52565b166000526101d36020526114218560406000209060ff801983541691151516179055565b016113a6565b60405162461bcd60e51b8152602060048201526015602482015274109b1858dadb1a5cdd081b9bdd08195b98589b1959605a1b6044820152606490fd5b346102ae5760003660031901126102ae5760206101c554604051908152f35b346102ae5760003660031901126102ae5761149c613512565b6114aa6101cb544211612b5f565b6114bd60ff6101cd5460081c1615612cd1565b6101ce546101c654111561157657336000526101d08060205260406000205490811561153f5733600052602052600060408120556000808080843382f115611533576040519081527f358fe4192934d3bf28ae181feda1f4bd08ca67f5e2fad55582cce5eb67304ae960203392a2600161019155005b6040513d6000823e3d90fd5b60405162461bcd60e51b815260206004820152600f60248201526e27379031b7b73a3934b13aba34b7b760891b6044820152606490fd5b60405162461bcd60e51b815260206004820152601060248201526f14dbd99d0818d85c081c995858da195960821b6044820152606490fd5b346102ae576115bc366129e7565b916115c56134ba565b60ff6101cd5416156116505760005b82811061160d57506113df7fa091d95aa3f4b3529e12c57e1e9e10580edde8a7ac6fd51dd3c8e824c332dbe09360405193849384612c76565b6001906001600160a01b0361162661056e838787612c52565b166000526101cf60205261164a8560406000209060ff801983541691151516179055565b016115d4565b60405162461bcd60e51b815260206004820152601560248201527415da1a5d195b1a5cdd081b9bdd08195b98589b1959605a1b6044820152606490fd5b346102ae5760003660031901126102ae57604051806101d59182548082526020809201936000527f9f31c6e1fd7dfe4437c2313157aba3c74244a3ed366f8f45280769d409a8eb0a916000905b8282106116fd57610294856116f181890382612974565b60405191829182612852565b83546001600160a01b0316865294850194600193840193909101906116da565b346102ae5760403660031901126102ae576117436117396128e0565b602435903361300b565b602060405160018152f35b346102ae5760403660031901126102ae576117676128e0565b60243590336000526034602052604060002060018060a01b038216600052602052604060002054918083106117a25761174392039033612e71565b60405162461bcd60e51b815260206004820152602560248201527f45524332303a2064656372656173656420616c6c6f77616e63652062656c6f77604482015264207a65726f60d81b6064820152608490fd5b346102ae5760003660031901126102ae5761180e6134ba565b6101cb544211801561188d575b61182490612b5f565b7fedfde254cb8ed39d650c9a34251c59d6817fae4cc876cc2ce76669976cf102ee60406101cd80549061185d60ff8360081c1615612b9f565b6101006101ce54926118746101c654851015612bdf565b61ff0019161790556101d85482519182526020820152a1005b506101ce546101c754111561181b565b346102ae5760203660031901126102ae576001600160a01b036118be6128e0565b166000526101cf602052602060ff604060002054166040519015158152f35b346102ae5760003660031901126102ae5760405160006037546118ff81612a40565b808452906020906001908181169081156119805750600114611938575b6102948561192c81870382612974565b60405191829182612897565b603760009081529350600080516020613a228339815191525b83851061196d5750505050810160200161192c8261029461191c565b8054868601840152938201938101611951565b8695506102949693506020925061192c94915060ff191682840152151560051b820101929361191c565b346102ae5760003660031901126102ae5760fb546040516001600160a01b039091168152602090f35b346102ae5760203660031901126102ae576001600160a01b036119f46128e0565b166000526101d46020526020604060002054604051908152f35b346102ae5760403660031901126102ae57610db3611a2a6128e0565b60243590611a39823383612f73565b6132c6565b346102ae5760003660031901126102ae57611a576134ba565b60fb80546001600160a01b031981169091556000906001600160a01b03167f8be0079c531659141344cd1fd0a4f28419497f9722a3daafe3b4186f6b6457e08280a3005b346102ae5760203660031901126102ae576001600160a01b03611abc6128e0565b1660005260336020526020604060002054604051908152f35b346102ae5760403660031901126102ae57611aee6128e0565b60243590611afa6134ba565b60ff6101d25460081c1615611ba15742821115611b5c577fa9353e70f07f31e7f4e16464f45e189cbd22826780a5abe4da8303652a86960a9160409160018060a01b031690816000526101d460205280836000205582519182526020820152a1005b60405162461bcd60e51b815260206004820152601d60248201527f556e6c6f636b2074696d65206d75737420626520696e206675747572650000006044820152606490fd5b60405162461bcd60e51b8152602060048201526015602482015274151a5b59481b1bd8dac81b9bdd08195b98589b1959605a1b6044820152606490fd5b346102ae5760003660031901126102ae57602060ff609754166040519015158152f35b346102ae5760003660031901126102ae577f00000000000000000000000000000000000000000000000000000000000000006001600160a01b03163003611c5a576020604051600080516020613a028339815191528152f35b60405162461bcd60e51b815260206004820152603860248201527f555550535570677261646561626c653a206d757374206e6f742062652063616c60448201527f6c6564207468726f7567682064656c656761746563616c6c00000000000000006064820152608490fd5b60403660031901126102ae57611cd96128e0565b6024356001600160401b0381116102ae57366023820112156102ae57611d099036906024816004013591016129b0565b906001600160a01b037f0000000000000000000000000000000000000000000000000000000000000000811690611d4230831415612a7a565b611d5f600080516020613a02833981519152928284541614612adb565b611d676134ba565b7f4910fdfa16fed3260ed0e7147f7cc6da11a60208b5b9406d12a635614ffd91435460ff1615611d9d575050610db391506138bc565b6040516352d1902d60e01b81526020939291831691908481600481865afa60009181611f2a575b50611e255760405162461bcd60e51b815260048101869052602e60248201527f45524331393637557067726164653a206e657720696d706c656d656e7461746960448201526d6f6e206973206e6f74205555505360901b6064820152608490fd5b03611ed357611e33826138bc565b7fbc7cd75a20ee27fd9adebab32041f755214dbc6bffa90cc0225b39da2e5c2d3b600080a2825115801590611ecb575b611e6957005b600080610db39460405194611e7d86612959565b602786527f416464726573733a206c6f772d6c6576656c2064656c65676174652063616c6c81870152660819985a5b195960ca1b604087015281519101845af4611ec5612c22565b9161394c565b506001611e63565b60405162461bcd60e51b815260048101849052602960248201527f45524331393637557067726164653a20756e737570706f727465642070726f786044820152681a58589b195555525160ba1b6064820152608490fd5b9091508581813d8311611f52575b611f428183612974565b810103126102ae57519087611dc4565b503d611f38565b346102ae5760003660031901126102ae57611f726134ba565b611f7a613512565b611f886101cb544211612b5f565b6101cd805490611f9e60ff8360081c1615612b9f565b6101006101ce92611fb584546101c6541115612bdf565b61ff00191617905560005b6101d5548110156120515780611fd760019261290c565b838060a01b0391549060031b1c16806000526101d79060209082825260406000205480612009575b5050505001611fc0565b600080516020613a4283398151915283826120268594853361300b565b6101d8612034828254612b3c565b9055604051908152a2600052526000604081205583808080611fff565b504780612095575b7fedfde254cb8ed39d650c9a34251c59d6817fae4cc876cc2ce76669976cf102ee604083546101d85482519182526020820152a1600161019155005b60fb546000918291829182916001600160a01b03165af16120b4612c22565b50156120c05781612059565b60405162461bcd60e51b8152602060048201526013602482015272115512081d1c985b9cd9995c8819985a5b1959606a1b6044820152606490fd5b346102ae5760003660031901126102ae5760206101d854604051908152f35b346102ae5760203660031901126102ae576001600160a01b0361213b6128e0565b166000526101d76020526020604060002054604051908152f35b346102ae5760203660031901126102ae576001600160a01b036121766128e0565b166000526101d06020526020604060002054604051908152f35b346102ae5760203660031901126102ae57610db3600435336132c6565b346102ae5760203660031901126102ae576001600160a01b036121ce6128e0565b166000526101c3602052602060ff604060002054166040519015158152f35b346102ae5760203660031901126102ae576004356101d5548110156102ae5761221760209161290c565b905460405160039290921b1c6001600160a01b03168152f35b346102ae5760403660031901126102ae5761174361224c6128e0565b336000526034602052604060002060018060a01b03821660005260205261227a602435604060002054612b3c565b9033612e71565b346102ae5760203660031901126102ae576004356101c49081548110156102ae5760209160005260018060a01b03907f5ac35dca7c3a7d5ae9d0add1efdc4aa02e10dd5cac0b90d2122cf0f0cc68317f015416604051908152f35b346102ae576020806003193601126102ae576122f66128e0565b6001600160a01b037f00000000000000000000000000000000000000000000000000000000000000008116929061232f30851415612a7a565b61234c600080516020613a02833981519152948286541614612adb565b6123546134ba565b60405193828501918583106001600160401b0384111761029857826040526000865260ff7f4910fdfa16fed3260ed0e7147f7cc6da11a60208b5b9406d12a635614ffd914354166000146123b05750505050610db391506138bc565b84939416906040516352d1902d60e01b81528581600481865afa60009181612531575b506124345760405162461bcd60e51b815260048101879052602e60248201527f45524331393637557067726164653a206e657720696d706c656d656e7461746960448201526d6f6e206973206e6f74205555505360901b6064820152608490fd5b036124da57612442836138bc565b7fbc7cd75a20ee27fd9adebab32041f755214dbc6bffa90cc0225b39da2e5c2d3b600080a28351158015906124d2575b61247857005b60008091610db3957f416464726573733a206c6f772d6c6576656c2064656c65676174652063616c6c604051966124ae88612959565b60278852870152660819985a5b195960ca1b60408701525190845af4611ec5612c22565b506000612472565b60405162461bcd60e51b815260048101859052602960248201527f45524331393637557067726164653a20756e737570706f727465642070726f786044820152681a58589b195555525160ba1b6064820152608490fd5b9091508681813d8311612559575b6125498183612974565b810103126102ae575190886123d3565b503d61253f565b346102ae5760003660031901126102ae57602060405160128152f35b346102ae5760003660031901126102ae576101406101c6546101c75460ff6101c8546101c9546101ca546101cb54906101cc54926101cd54946101ce5497604051998a5260208a015260408901526060880152608087015260a086015260c0850152818116151560e085015260081c161515610100830152610120820152f35b346102ae5760003660031901126102ae5760206101d554604051908152f35b346102ae5760603660031901126102ae576117436126376128e0565b61263f6128f6565b6044359161264e833383612f73565b61300b565b346102ae5760203660031901126102ae576001600160a01b036126746128e0565b166000526101d6602052602060ff604060002054166040519015158152f35b346102ae5760003660031901126102ae576020603554604051908152f35b346102ae5760203660031901126102ae576001600160a01b036126d26128e0565b166000526101d060205260606040600020546101d76020526040600020546101cf60205260ff6040600020541690604051928352602083015215156040820152f35b346102ae5760403660031901126102ae576117436127306128e0565b6024359033612e71565b346102ae5760003660031901126102ae57604051600060365461275c81612a40565b808452906020906001908181169081156119805750600114612788576102948561192c81870382612974565b6036600090815293506000805160206139e28339815191525b8385106127bd5750505050810160200161192c8261029461191c565b80548686018401529382019381016127a1565b346102ae5760003660031901126102ae576101c490815480825260209060208301936000527f5ac35dca7c3a7d5ae9d0add1efdc4aa02e10dd5cac0b90d2122cf0f0cc68317f916000905b82821061283257610294856116f181890382612974565b83546001600160a01b03168652948501946001938401939091019061281b565b602090602060408183019282815285518094520193019160005b82811061287a575050505090565b83516001600160a01b03168552938101939281019260010161286c565b6020808252825181830181905290939260005b8281106128cc57505060409293506000838284010152601f8019910116010190565b8181018601518482016040015285016128aa565b600435906001600160a01b03821682036102ae57565b602435906001600160a01b03821682036102ae57565b6101d58054821015612943576000527f9f31c6e1fd7dfe4437c2313157aba3c74244a3ed366f8f45280769d409a8eb0a0190600090565b634e487b7160e01b600052603260045260246000fd5b606081019081106001600160401b0382111761029857604052565b90601f801991011681019081106001600160401b0382111761029857604052565b6001600160401b03811161029857601f01601f191660200190565b9291926129bc82612995565b916129ca6040519384612974565b8294818452818301116102ae578281602093846000960137010152565b9060406003198301126102ae576004356001600160401b03928382116102ae57806023830112156102ae5781600401359384116102ae5760248460051b830101116102ae57602401919060243580151581036102ae5790565b90600182811c92168015612a70575b6020831014612a5a57565b634e487b7160e01b600052602260045260246000fd5b91607f1691612a4f565b15612a8157565b60405162461bcd60e51b815260206004820152602c60248201527f46756e6374696f6e206d7573742062652063616c6c6564207468726f7567682060448201526b19195b1959d85d1958d85b1b60a21b6064820152608490fd5b15612ae257565b60405162461bcd60e51b815260206004820152602c60248201527f46756e6374696f6e206d7573742062652063616c6c6564207468726f7567682060448201526b6163746976652070726f787960a01b6064820152608490fd5b91908201809211612b4957565b634e487b7160e01b600052601160045260246000fd5b15612b6657565b60405162461bcd60e51b8152602060048201526011602482015270141c995cd85b19481b9bdd08195b991959607a1b6044820152606490fd5b15612ba657565b60405162461bcd60e51b8152602060048201526011602482015270105b1c9958591e48199a5b985b1a5e9959607a1b6044820152606490fd5b15612be657565b60405162461bcd60e51b815260206004820152601460248201527314dbd99d0818d85c081b9bdd081c995858da195960621b6044820152606490fd5b3d15612c4d573d90612c3382612995565b91612c416040519384612974565b82523d6000602084013e565b606090565b91908110156129435760051b0190565b356001600160a01b03811681036102ae5790565b60408082528101839052929392916060830190600090815b818110612ca45750505060209150931515910152565b909192843560018060a01b038116809103612ccd57815260209485019401929190600101612c8e565b8480fd5b15612cd857565b60405162461bcd60e51b8152602060048201526011602482015270141c995cd85b1948199a5b985b1a5e9959607a1b6044820152606490fd5b15612d1857565b60405162461bcd60e51b81526020600482015260166024820152752132b637bb9036b4b71031b7b73a3934b13aba34b7b760511b6044820152606490fd5b15612d5d57565b60405162461bcd60e51b815260206004820152601660248201527520b137bb329036b0bc1031b7b73a3934b13aba34b7b760511b6044820152606490fd5b15612da257565b60405162461bcd60e51b815260206004820152601060248201526f12185c990818d85c081c995858da195960821b6044820152606490fd5b81810292918115918404141715612b4957565b903590601e19813603018212156102ae57018035906001600160401b0382116102ae576020019181360383136102ae57565b903590601e19813603018212156102ae57018035906001600160401b0382116102ae57602001918160061b360383136102ae57565b91908110156129435760061b0190565b3580151581036102ae5790565b6001600160a01b03908116918215612f225716918215612ed25760207f8c5be1e5ebec7d5bd14f71427d1e84f3dd0314c0f7b2291e5b200ac8c7c3b925918360005260348252604060002085600052825280604060002055604051908152a3565b60405162461bcd60e51b815260206004820152602260248201527f45524332303a20617070726f766520746f20746865207a65726f206164647265604482015261737360f01b6064820152608490fd5b60405162461bcd60e51b8152602060048201526024808201527f45524332303a20617070726f76652066726f6d20746865207a65726f206164646044820152637265737360e01b6064820152608490fd5b9060018060a01b0380831660005260346020526040600020908216600052602052604060002054926000198403612fab575b50505050565b808410612fc657612fbd930391612e71565b38808080612fa5565b60405162461bcd60e51b815260206004820152601d60248201527f45524332303a20696e73756666696369656e7420616c6c6f77616e63650000006044820152606490fd5b6001600160a01b03908116908115613273578216908115613222576101d25460ff81166131b5575b60081c60ff16806131ad575b613161575b60ff6097541661310957600081815260336020526040812054908582106130b557856040826130b3987fddf252ad1be2c89b69c2b068fc378daa952ba7f163c4a11628f55a4df523b3ef95876020965260338652038282205586815220818154019055604051908152a36135b2565b565b60405162461bcd60e51b815260206004820152602660248201527f45524332303a207472616e7366657220616d6f756e7420657863656564732062604482015265616c616e636560d01b6064820152608490fd5b60405162461bcd60e51b815260206004820152602a60248201527f45524332305061757361626c653a20746f6b656e207472616e736665722077686044820152691a5b19481c185d5cd95960b21b6064820152608490fd5b806000526101d46020526040600020544210156130445760405162461bcd60e51b815260206004820152600d60248201526c151bdad95b9cc81b1bd8dad959609a1b6044820152606490fd5b50600161303f565b816000526101d360205260ff60406000205416158061320e575b6130335760405162461bcd60e51b81526020600482015260136024820152721059191c995cdcc8189b1858dadb1a5cdd1959606a1b6044820152606490fd5b508260005260ff60406000205416156131cf565b60405162461bcd60e51b815260206004820152602360248201527f45524332303a207472616e7366657220746f20746865207a65726f206164647260448201526265737360e81b6064820152608490fd5b60405162461bcd60e51b815260206004820152602560248201527f45524332303a207472616e736665722066726f6d20746865207a65726f206164604482015264647265737360d81b6064820152608490fd5b6001600160a01b0316801561346b576101d25460ff81166133fe575b60081c60ff16806133f6575b6133aa575b60ff60975416613109578060005260336020526040600020549180831061335a576020817fddf252ad1be2c89b69c2b068fc378daa952ba7f163c4a11628f55a4df523b3ef92600095858752603384520360408620558060355403603555604051908152a3565b60405162461bcd60e51b815260206004820152602260248201527f45524332303a206275726e20616d6f756e7420657863656564732062616c616e604482015261636560f01b6064820152608490fd5b806000526101d46020526040600020544210156132f35760405162461bcd60e51b815260206004820152600d60248201526c151bdad95b9cc81b1bd8dad959609a1b6044820152606490fd5b5060016132ee565b816000526101d360205260ff604060002054161580613457575b6132e25760405162461bcd60e51b81526020600482015260136024820152721059191c995cdcc8189b1858dadb1a5cdd1959606a1b6044820152606490fd5b506000805260ff6040600020541615613418565b60405162461bcd60e51b815260206004820152602160248201527f45524332303a206275726e2066726f6d20746865207a65726f206164647265736044820152607360f81b6064820152608490fd5b60fb546001600160a01b031633036134ce57565b606460405162461bcd60e51b815260206004820152602060248201527f4f776e61626c653a2063616c6c6572206973206e6f7420746865206f776e65726044820152fd5b61019160028154146135245760029055565b60405162461bcd60e51b815260206004820152601f60248201527f5265656e7472616e637947756172643a207265656e7472616e742063616c6c006044820152606490fd5b60fb80546001600160a01b039283166001600160a01b0319821681179092559091167f8be0079c531659141344cd1fd0a4f28419497f9722a3daafe3b4186f6b6457e0600080a3565b6001600160a01b031660008181526101c360205260408120805491929160ff8116156135de5750505050565b60ff191660011790556101c4805490600160401b821015613683576001820180825582101561366f5783527f5ac35dca7c3a7d5ae9d0add1efdc4aa02e10dd5cac0b90d2122cf0f0cc68317f0180546001600160a01b03191690911790556101c580549091600019821461365b5750600101905538808080612fa5565b634e487b7160e01b81526011600452602490fd5b634e487b7160e01b84526032600452602484fd5b634e487b7160e01b84526041600452602484fd5b1561369e57565b60405162461bcd60e51b815260206004820152602b60248201527f496e697469616c697a61626c653a20636f6e7472616374206973206e6f74206960448201526a6e697469616c697a696e6760a81b6064820152608490fd5b6001600160a01b0316908115613877576101d25460ff81166137ee575b60081c60ff16806137e6575b61377e575b60ff60975416613109577fddf252ad1be2c89b69c2b068fc378daa952ba7f163c4a11628f55a4df523b3ef602082613761600094603554612b3c565b6035558484526033825260408420818154019055604051908152a3565b600080526101d46020527f410fcf528d521d85c0b03b4ed80308a532d4b2e9fb9978a3f903402e42241352544210156137255760405162461bcd60e51b815260206004820152600d60248201526c151bdad95b9cc81b1bd8dad959609a1b6044820152606490fd5b506000613720565b600080526101d36020527fe33998ff62f234a925b803b2d837cb316cde2dfcbc8c8f1f21fa7ed385b74c305460ff161580613863575b6137145760405162461bcd60e51b81526020600482015260136024820152721059191c995cdcc8189b1858dadb1a5cdd1959606a1b6044820152606490fd5b508260005260ff6040600020541615613824565b60405162461bcd60e51b815260206004820152601f60248201527f45524332303a206d696e7420746f20746865207a65726f2061646472657373006044820152606490fd5b803b156138f157600080516020613a0283398151915280546001600160a01b0319166001600160a01b03909216919091179055565b60405162461bcd60e51b815260206004820152602d60248201527f455243313936373a206e657720696d706c656d656e746174696f6e206973206e60448201526c1bdd08184818dbdb9d1c9858dd609a1b6064820152608490fd5b919290156139ae5750815115613960575090565b3b156139695790565b60405162461bcd60e51b815260206004820152601d60248201527f416464726573733a2063616c6c20746f206e6f6e2d636f6e74726163740000006044820152606490fd5b8251909150156139c15750805190602001fd5b60405162461bcd60e51b81529081906139dd9060048301612897565b0390fdfe4a11f94e20a93c79f6ec743a1954ec4fc2c08429ae2122118bf234b2185c81b8360894a13ba1a3210667c828492db98dca3e2076cc3735a920a3ca505d382bbc42a7b7dd785cd69714a189dffb3fd7d7174edc9ece837694ce50f7078f7c31ae16b0da2ffcb90c6723317bd637d9aad7f04711f42bbe0ac0918ebe10f1f9001ca264697066735822122082e4180b568fc6942384ddfd9b750b026a43fde5ff0bc36f7bd1d067d8dc241f64736f6c63430008160033",
  "linkReferences": {},
  "deployedLinkReferences": {}
}