{
  "_format": "hh-sol-artifact-1",
  "contractName": "TokenTemplate_v3",
  "sourceName": "src/contracts/TokenTemplate_v3.sol",
  "abi": [
    {
      "inputs": [],
      "stateMutability": "nonpayable",
      "type": "constructor"
    },
    {
      "anonymous": false,
      "inputs": [
        {
          "indexed": false,
          "internalType": "address",
          "name": "previousAdmin",
          "type": "address"
        },
        {
          "indexed": false,
          "internalType": "address",
          "name": "newAdmin",
          "type": "address"
        }
      ],
      "name": "AdminChanged",
      "type": "event"
    },
    {
      "anonymous": false,
      "inputs": [
        {
          "indexed": true,
          "internalType": "address",
          "name": "owner",
          "type": "address"
        },
        {
          "indexed": true,
          "internalType": "address",
          "name": "spender",
          "type": "address"
        },
        {
          "indexed": false,
          "internalType": "uint256",
          "name": "value",
          "type": "uint256"
        }
      ],
      "name": "Approval",
      "type": "event"
    },
    {
      "anonymous": false,
      "inputs": [
        {
          "indexed": true,
          "internalType": "address",
          "name": "beacon",
          "type": "address"
        }
      ],
      "name": "BeaconUpgraded",
      "type": "event"
    },
    {
      "anonymous": false,
      "inputs": [
        {
          "indexed": false,
          "internalType": "address[]",
          "name": "addresses",
          "type": "address[]"
        },
        {
          "indexed": false,
          "internalType": "bool",
          "name": "status",
          "type": "bool"
        }
      ],
      "name": "BlacklistUpdated",
      "type": "event"
    },
    {
      "anonymous": false,
      "inputs": [
        {
          "indexed": false,
          "internalType": "address",
          "name": "contributor",
          "type": "address"
        },
        {
          "indexed": false,
          "internalType": "uint256",
          "name": "amount",
          "type": "uint256"
        },
        {
          "indexed": false,
          "internalType": "uint256",
          "name": "tokenAmount",
          "type": "uint256"
        }
      ],
      "name": "ContributionReceived",
      "type": "event"
    },
    {
      "anonymous": false,
      "inputs": [
        {
          "indexed": false,
          "internalType": "address",
          "name": "contributor",
          "type": "address"
        },
        {
          "indexed": false,
          "internalType": "uint256",
          "name": "amount",
          "type": "uint256"
        }
      ],
      "name": "ContributionRefunded",
      "type": "event"
    },
    {
      "anonymous": false,
      "inputs": [
        {
          "indexed": false,
          "internalType": "uint8",
          "name": "version",
          "type": "uint8"
        }
      ],
      "name": "Initialized",
      "type": "event"
    },
    {
      "anonymous": false,
      "inputs": [
        {
          "indexed": true,
          "internalType": "address",
          "name": "pair",
          "type": "address"
        },
        {
          "indexed": false,
          "internalType": "uint256",
          "name": "tokensAdded",
          "type": "uint256"
        },
        {
          "indexed": false,
          "internalType": "uint256",
          "name": "ethAdded",
          "type": "uint256"
        }
      ],
      "name": "LiquidityPoolCreated",
      "type": "event"
    },
    {
      "anonymous": false,
      "inputs": [
        {
          "indexed": true,
          "internalType": "address",
          "name": "previousOwner",
          "type": "address"
        },
        {
          "indexed": true,
          "internalType": "address",
          "name": "newOwner",
          "type": "address"
        }
      ],
      "name": "OwnershipTransferred",
      "type": "event"
    },
    {
      "anonymous": false,
      "inputs": [
        {
          "indexed": false,
          "internalType": "address",
          "name": "account",
          "type": "address"
        }
      ],
      "name": "Paused",
      "type": "event"
    },
    {
      "anonymous": false,
      "inputs": [
        {
          "indexed": false,
          "internalType": "uint256",
          "name": "totalContributed",
          "type": "uint256"
        },
        {
          "indexed": false,
          "internalType": "uint256",
          "name": "totalTokensDistributed",
          "type": "uint256"
        }
      ],
      "name": "PresaleFinalized",
      "type": "event"
    },
    {
      "anonymous": false,
      "inputs": [
        {
          "indexed": true,
          "internalType": "address",
          "name": "contributor",
          "type": "address"
        },
        {
          "indexed": false,
          "internalType": "uint256",
          "name": "amount",
          "type": "uint256"
        },
        {
          "indexed": false,
          "internalType": "uint256",
          "name": "tokensReceived",
          "type": "uint256"
        }
      ],
      "name": "PresaleParticipation",
      "type": "event"
    },
    {
      "anonymous": false,
      "inputs": [
        {
          "indexed": false,
          "internalType": "uint256",
          "name": "softCap",
          "type": "uint256"
        },
        {
          "indexed": false,
          "internalType": "uint256",
          "name": "hardCap",
          "type": "uint256"
        },
        {
          "indexed": false,
          "internalType": "uint256",
          "name": "startTime",
          "type": "uint256"
        },
        {
          "indexed": false,
          "internalType": "uint256",
          "name": "endTime",
          "type": "uint256"
        },
        {
          "indexed": false,
          "internalType": "uint256",
          "name": "presaleRate",
          "type": "uint256"
        }
      ],
      "name": "PresaleStarted",
      "type": "event"
    },
    {
      "anonymous": false,
      "inputs": [
        {
          "indexed": true,
          "internalType": "address",
          "name": "contributor",
          "type": "address"
        },
        {
          "indexed": false,
          "internalType": "uint256",
          "name": "amount",
          "type": "uint256"
        }
      ],
      "name": "RefundClaimed",
      "type": "event"
    },
    {
      "anonymous": false,
      "inputs": [
        {
          "indexed": false,
          "internalType": "address",
          "name": "account",
          "type": "address"
        },
        {
          "indexed": false,
          "internalType": "uint256",
          "name": "unlockTime",
          "type": "uint256"
        }
      ],
      "name": "TimeLockSet",
      "type": "event"
    },
    {
      "anonymous": false,
      "inputs": [
        {
          "indexed": true,
          "internalType": "address",
          "name": "recipient",
          "type": "address"
        },
        {
          "indexed": false,
          "internalType": "uint256",
          "name": "amount",
          "type": "uint256"
        }
      ],
      "name": "TokensDistributed",
      "type": "event"
    },
    {
      "anonymous": false,
      "inputs": [
        {
          "indexed": true,
          "internalType": "address",
          "name": "from",
          "type": "address"
        },
        {
          "indexed": true,
          "internalType": "address",
          "name": "to",
          "type": "address"
        },
        {
          "indexed": false,
          "internalType": "uint256",
          "name": "value",
          "type": "uint256"
        }
      ],
      "name": "Transfer",
      "type": "event"
    },
    {
      "anonymous": false,
      "inputs": [
        {
          "indexed": false,
          "internalType": "address",
          "name": "account",
          "type": "address"
        }
      ],
      "name": "Unpaused",
      "type": "event"
    },
    {
      "anonymous": false,
      "inputs": [
        {
          "indexed": true,
          "internalType": "address",
          "name": "implementation",
          "type": "address"
        }
      ],
      "name": "Upgraded",
      "type": "event"
    },
    {
      "anonymous": false,
      "inputs": [
        {
          "indexed": false,
          "internalType": "address[]",
          "name": "addresses",
          "type": "address[]"
        },
        {
          "indexed": false,
          "internalType": "bool",
          "name": "status",
          "type": "bool"
        }
      ],
      "name": "WhitelistUpdated",
      "type": "event"
    },
    {
      "inputs": [],
      "name": "VERSION",
      "outputs": [
        {
          "internalType": "string",
          "name": "",
          "type": "string"
        }
      ],
      "stateMutability": "view",
      "type": "function"
    },
    {
      "inputs": [
        {
          "internalType": "address",
          "name": "owner",
          "type": "address"
        },
        {
          "internalType": "address",
          "name": "spender",
          "type": "address"
        }
      ],
      "name": "allowance",
      "outputs": [
        {
          "internalType": "uint256",
          "name": "",
          "type": "uint256"
        }
      ],
      "stateMutability": "view",
      "type": "function"
    },
    {
      "inputs": [
        {
          "internalType": "address",
          "name": "spender",
          "type": "address"
        },
        {
          "internalType": "uint256",
          "name": "amount",
          "type": "uint256"
        }
      ],
      "name": "approve",
      "outputs": [
        {
          "internalType": "bool",
          "name": "",
          "type": "bool"
        }
      ],
      "stateMutability": "nonpayable",
      "type": "function"
    },
    {
      "inputs": [
        {
          "internalType": "address",
          "name": "account",
          "type": "address"
        }
      ],
      "name": "balanceOf",
      "outputs": [
        {
          "internalType": "uint256",
          "name": "",
          "type": "uint256"
        }
      ],
      "stateMutability": "view",
      "type": "function"
    },
    {
      "inputs": [
        {
          "internalType": "address",
          "name": "",
          "type": "address"
        }
      ],
      "name": "blacklist",
      "outputs": [
        {
          "internalType": "bool",
          "name": "",
          "type": "bool"
        }
      ],
      "stateMutability": "view",
      "type": "function"
    },
    {
      "inputs": [],
      "name": "blacklistEnabled",
      "outputs": [
        {
          "internalType": "bool",
          "name": "",
          "type": "bool"
        }
      ],
      "stateMutability": "view",
      "type": "function"
    },
    {
      "inputs": [
        {
          "internalType": "uint256",
          "name": "amount",
          "type": "uint256"
        }
      ],
      "name": "burn",
      "outputs": [],
      "stateMutability": "nonpayable",
      "type": "function"
    },
    {
      "inputs": [
        {
          "internalType": "address",
          "name": "account",
          "type": "address"
        },
        {
          "internalType": "uint256",
          "name": "amount",
          "type": "uint256"
        }
      ],
      "name": "burnFrom",
      "outputs": [],
      "stateMutability": "nonpayable",
      "type": "function"
    },
    {
      "inputs": [],
      "name": "claimRefund",
      "outputs": [],
      "stateMutability": "nonpayable",
      "type": "function"
    },
    {
      "inputs": [],
      "name": "contribute",
      "outputs": [],
      "stateMutability": "payable",
      "type": "function"
    },
    {
      "inputs": [
        {
          "internalType": "address",
          "name": "",
          "type": "address"
        }
      ],
      "name": "contributions",
      "outputs": [
        {
          "internalType": "uint256",
          "name": "",
          "type": "uint256"
        }
      ],
      "stateMutability": "view",
      "type": "function"
    },
    {
      "inputs": [
        {
          "internalType": "uint256",
          "name": "",
          "type": "uint256"
        }
      ],
      "name": "contributors",
      "outputs": [
        {
          "internalType": "address",
          "name": "",
          "type": "address"
        }
      ],
      "stateMutability": "view",
      "type": "function"
    },
    {
      "inputs": [],
      "name": "decimals",
      "outputs": [
        {
          "internalType": "uint8",
          "name": "",
          "type": "uint8"
        }
      ],
      "stateMutability": "view",
      "type": "function"
    },
    {
      "inputs": [
        {
          "internalType": "address",
          "name": "spender",
          "type": "address"
        },
        {
          "internalType": "uint256",
          "name": "subtractedValue",
          "type": "uint256"
        }
      ],
      "name": "decreaseAllowance",
      "outputs": [
        {
          "internalType": "bool",
          "name": "",
          "type": "bool"
        }
      ],
      "stateMutability": "nonpayable",
      "type": "function"
    },
    {
      "inputs": [],
      "name": "finalize",
      "outputs": [],
      "stateMutability": "nonpayable",
      "type": "function"
    },
    {
      "inputs": [],
      "name": "finalizePresale",
      "outputs": [],
      "stateMutability": "nonpayable",
      "type": "function"
    },
    {
      "inputs": [],
      "name": "getContributorCount",
      "outputs": [
        {
          "internalType": "uint256",
          "name": "",
          "type": "uint256"
        }
      ],
      "stateMutability": "view",
      "type": "function"
    },
    {
      "inputs": [
        {
          "internalType": "address",
          "name": "contributor",
          "type": "address"
        }
      ],
      "name": "getContributorInfo",
      "outputs": [
        {
          "internalType": "uint256",
          "name": "contribution",
          "type": "uint256"
        },
        {
          "internalType": "uint256",
          "name": "tokenAllocation",
          "type": "uint256"
        },
        {
          "internalType": "bool",
          "name": "isWhitelisted",
          "type": "bool"
        }
      ],
      "stateMutability": "view",
      "type": "function"
    },
    {
      "inputs": [],
      "name": "getContributors",
      "outputs": [
        {
          "internalType": "address[]",
          "name": "",
          "type": "address[]"
        }
      ],
      "stateMutability": "view",
      "type": "function"
    },
    {
      "inputs": [],
      "name": "getUserCount",
      "outputs": [
        {
          "internalType": "uint256",
          "name": "",
          "type": "uint256"
        }
      ],
      "stateMutability": "view",
      "type": "function"
    },
    {
      "inputs": [],
      "name": "getUsers",
      "outputs": [
        {
          "internalType": "address[]",
          "name": "",
          "type": "address[]"
        }
      ],
      "stateMutability": "view",
      "type": "function"
    },
    {
      "inputs": [
        {
          "internalType": "address",
          "name": "spender",
          "type": "address"
        },
        {
          "internalType": "uint256",
          "name": "addedValue",
          "type": "uint256"
        }
      ],
      "name": "increaseAllowance",
      "outputs": [
        {
          "internalType": "bool",
          "name": "",
          "type": "bool"
        }
      ],
      "stateMutability": "nonpayable",
      "type": "function"
    },
    {
      "inputs": [
        {
          "components": [
            {
              "internalType": "string",
              "name": "name",
              "type": "string"
            },
            {
              "internalType": "string",
              "name": "symbol",
              "type": "string"
            },
            {
              "internalType": "uint256",
              "name": "initialSupply",
              "type": "uint256"
            },
            {
              "internalType": "uint256",
              "name": "maxSupply",
              "type": "uint256"
            },
            {
              "internalType": "address",
              "name": "owner",
              "type": "address"
            },
            {
              "internalType": "bool",
              "name": "enableBlacklist",
              "type": "bool"
            },
            {
              "internalType": "bool",
              "name": "enableTimeLock",
              "type": "bool"
            },
            {
              "internalType": "uint256",
              "name": "presaleRate",
              "type": "uint256"
            },
            {
              "internalType": "uint256",
              "name": "softCap",
              "type": "uint256"
            },
            {
              "internalType": "uint256",
              "name": "hardCap",
              "type": "uint256"
            },
            {
              "internalType": "uint256",
              "name": "minContribution",
              "type": "uint256"
            },
            {
              "internalType": "uint256",
              "name": "maxContribution",
              "type": "uint256"
            },
            {
              "internalType": "uint256",
              "name": "startTime",
              "type": "uint256"
            },
            {
              "internalType": "uint256",
              "name": "endTime",
              "type": "uint256"
            },
            {
              "internalType": "uint256",
              "name": "presalePercentage",
              "type": "uint256"
            },
            {
              "internalType": "uint256",
              "name": "liquidityPercentage",
              "type": "uint256"
            },
            {
              "internalType": "uint256",
              "name": "liquidityLockDuration",
              "type": "uint256"
            },
            {
              "components": [
                {
                  "internalType": "address",
                  "name": "wallet",
                  "type": "address"
                },
                {
                  "internalType": "uint256",
                  "name": "percentage",
                  "type": "uint256"
                }
              ],
              "internalType": "struct TokenTemplate_v3.WalletAllocation[]",
              "name": "walletAllocations",
              "type": "tuple[]"
            }
          ],
          "internalType": "struct TokenTemplate_v3.InitParams",
          "name": "params",
          "type": "tuple"
        }
      ],
      "name": "initialize",
      "outputs": [],
      "stateMutability": "nonpayable",
      "type": "function"
    },
    {
      "inputs": [
        {
          "internalType": "address",
          "name": "",
          "type": "address"
        }
      ],
      "name": "isContributor",
      "outputs": [
        {
          "internalType": "bool",
          "name": "",
          "type": "bool"
        }
      ],
      "stateMutability": "view",
      "type": "function"
    },
    {
      "inputs": [
        {
          "internalType": "address",
          "name": "",
          "type": "address"
        }
      ],
      "name": "isUser",
      "outputs": [
        {
          "internalType": "bool",
          "name": "",
          "type": "bool"
        }
      ],
      "stateMutability": "view",
      "type": "function"
    },
    {
      "inputs": [],
      "name": "maxSupply",
      "outputs": [
        {
          "internalType": "uint256",
          "name": "",
          "type": "uint256"
        }
      ],
      "stateMutability": "view",
      "type": "function"
    },
    {
      "inputs": [],
      "name": "name",
      "outputs": [
        {
          "internalType": "string",
          "name": "",
          "type": "string"
        }
      ],
      "stateMutability": "view",
      "type": "function"
    },
    {
      "inputs": [],
      "name": "owner",
      "outputs": [
        {
          "internalType": "address",
          "name": "",
          "type": "address"
        }
      ],
      "stateMutability": "view",
      "type": "function"
    },
    {
      "inputs": [],
      "name": "participateInPresale",
      "outputs": [],
      "stateMutability": "payable",
      "type": "function"
    },
    {
      "inputs": [],
      "name": "paused",
      "outputs": [
        {
          "internalType": "bool",
          "name": "",
          "type": "bool"
        }
      ],
      "stateMutability": "view",
      "type": "function"
    },
    {
      "inputs": [
        {
          "internalType": "address",
          "name": "",
          "type": "address"
        }
      ],
      "name": "presaleContributorTokens",
      "outputs": [
        {
          "internalType": "uint256",
          "name": "",
          "type": "uint256"
        }
      ],
      "stateMutability": "view",
      "type": "function"
    },
    {
      "inputs": [],
      "name": "presaleInfo",
      "outputs": [
        {
          "internalType": "uint256",
          "name": "softCap",
          "type": "uint256"
        },
        {
          "internalType": "uint256",
          "name": "hardCap",
          "type": "uint256"
        },
        {
          "internalType": "uint256",
          "name": "minContribution",
          "type": "uint256"
        },
        {
          "internalType": "uint256",
          "name": "maxContribution",
          "type": "uint256"
        },
        {
          "internalType": "uint256",
          "name": "startTime",
          "type": "uint256"
        },
        {
          "internalType": "uint256",
          "name": "endTime",
          "type": "uint256"
        },
        {
          "internalType": "uint256",
          "name": "presaleRate",
          "type": "uint256"
        },
        {
          "internalType": "bool",
          "name": "whitelistEnabled",
          "type": "bool"
        },
        {
          "internalType": "bool",
          "name": "finalized",
          "type": "bool"
        },
        {
          "internalType": "uint256",
          "name": "totalContributed",
          "type": "uint256"
        }
      ],
      "stateMutability": "view",
      "type": "function"
    },
    {
      "inputs": [],
      "name": "proxiableUUID",
      "outputs": [
        {
          "internalType": "bytes32",
          "name": "",
          "type": "bytes32"
        }
      ],
      "stateMutability": "view",
      "type": "function"
    },
    {
      "inputs": [],
      "name": "renounceOwnership",
      "outputs": [],
      "stateMutability": "nonpayable",
      "type": "function"
    },
    {
      "inputs": [
        {
          "internalType": "address",
          "name": "account",
          "type": "address"
        },
        {
          "internalType": "uint256",
          "name": "unlockTime",
          "type": "uint256"
        }
      ],
      "name": "setTimeLock",
      "outputs": [],
      "stateMutability": "nonpayable",
      "type": "function"
    },
    {
      "inputs": [],
      "name": "symbol",
      "outputs": [
        {
          "internalType": "string",
          "name": "",
          "type": "string"
        }
      ],
      "stateMutability": "view",
      "type": "function"
    },
    {
      "inputs": [],
      "name": "timeLockEnabled",
      "outputs": [
        {
          "internalType": "bool",
          "name": "",
          "type": "bool"
        }
      ],
      "stateMutability": "view",
      "type": "function"
    },
    {
      "inputs": [
        {
          "internalType": "address",
          "name": "",
          "type": "address"
        }
      ],
      "name": "timeLocks",
      "outputs": [
        {
          "internalType": "uint256",
          "name": "",
          "type": "uint256"
        }
      ],
      "stateMutability": "view",
      "type": "function"
    },
    {
      "inputs": [],
      "name": "totalPresaleTokensDistributed",
      "outputs": [
        {
          "internalType": "uint256",
          "name": "",
          "type": "uint256"
        }
      ],
      "stateMutability": "view",
      "type": "function"
    },
    {
      "inputs": [],
      "name": "totalSupply",
      "outputs": [
        {
          "internalType": "uint256",
          "name": "",
          "type": "uint256"
        }
      ],
      "stateMutability": "view",
      "type": "function"
    },
    {
      "inputs": [
        {
          "internalType": "address",
          "name": "to",
          "type": "address"
        },
        {
          "internalType": "uint256",
          "name": "amount",
          "type": "uint256"
        }
      ],
      "name": "transfer",
      "outputs": [
        {
          "internalType": "bool",
          "name": "",
          "type": "bool"
        }
      ],
      "stateMutability": "nonpayable",
      "type": "function"
    },
    {
      "inputs": [
        {
          "internalType": "address",
          "name": "from",
          "type": "address"
        },
        {
          "internalType": "address",
          "name": "to",
          "type": "address"
        },
        {
          "internalType": "uint256",
          "name": "amount",
          "type": "uint256"
        }
      ],
      "name": "transferFrom",
      "outputs": [
        {
          "internalType": "bool",
          "name": "",
          "type": "bool"
        }
      ],
      "stateMutability": "nonpayable",
      "type": "function"
    },
    {
      "inputs": [
        {
          "internalType": "address",
          "name": "newOwner",
          "type": "address"
        }
      ],
      "name": "transferOwnership",
      "outputs": [],
      "stateMutability": "nonpayable",
      "type": "function"
    },
    {
      "inputs": [
        {
          "internalType": "address[]",
          "name": "addresses",
          "type": "address[]"
        },
        {
          "internalType": "bool",
          "name": "status",
          "type": "bool"
        }
      ],
      "name": "updateBlacklist",
      "outputs": [],
      "stateMutability": "nonpayable",
      "type": "function"
    },
    {
      "inputs": [
        {
          "internalType": "address[]",
          "name": "addresses",
          "type": "address[]"
        },
        {
          "internalType": "bool",
          "name": "status",
          "type": "bool"
        }
      ],
      "name": "updateWhitelist",
      "outputs": [],
      "stateMutability": "nonpayable",
      "type": "function"
    },
    {
      "inputs": [
        {
          "internalType": "address",
          "name": "newImplementation",
          "type": "address"
        }
      ],
      "name": "upgradeTo",
      "outputs": [],
      "stateMutability": "nonpayable",
      "type": "function"
    },
    {
      "inputs": [
        {
          "internalType": "address",
          "name": "newImplementation",
          "type": "address"
        },
        {
          "internalType": "bytes",
          "name": "data",
          "type": "bytes"
        }
      ],
      "name": "upgradeToAndCall",
      "outputs": [],
      "stateMutability": "payable",
      "type": "function"
    },
    {
      "inputs": [],
      "name": "userCount",
      "outputs": [
        {
          "internalType": "uint256",
          "name": "",
          "type": "uint256"
        }
      ],
      "stateMutability": "view",
      "type": "function"
    },
    {
      "inputs": [
        {
          "internalType": "uint256",
          "name": "",
          "type": "uint256"
        }
      ],
      "name": "users",
      "outputs": [
        {
          "internalType": "address",
          "name": "",
          "type": "address"
        }
      ],
      "stateMutability": "view",
      "type": "function"
    },
    {
      "inputs": [
        {
          "internalType": "address",
          "name": "",
          "type": "address"
        }
      ],
      "name": "whitelist",
      "outputs": [
        {
          "internalType": "bool",
          "name": "",
          "type": "bool"
        }
      ],
      "stateMutability": "view",
      "type": "function"
    }
  ],
  "bytecode": "0x60a08060405234620000e157306080526000549060ff8260081c166200008f575060ff8082160362000053575b604051613a9b9081620000e78239608051818181611c1801528181611d1801526123040152f35b60ff90811916176000557f7f26b83ff96e1f2b6a682f133852f6798a09c465da95921460cefb3847402498602060405160ff8152a1386200002c565b62461bcd60e51b815260206004820152602760248201527f496e697469616c697a61626c653a20636f6e747261637420697320696e697469604482015266616c697a696e6760c81b6064820152608490fd5b600080fdfe608080604052600436101561001357600080fd5b60003560e01c908162ce8e3e146127d45750806306fdde031461273e57806307973ccf14611468578063095ea7b3146127185780630bce8cdf146126b557806318160ddd146126975780631d0d35f51461265757806323b872dd1461261f578063253da8bd146126005780632edf086914612580578063313ce567146125645780633659cfe6146122e0578063365b98b21461228557806339509351146122345780633cb5d100146121f15780634209fff1146121b157806342966c681461219457806342e94c9014612159578063488dc57d1461211e5780634afa0042146120ff5780634bb278f314611f5d5780634f1ef28614611cc957806352d1902d14611c055780635c975abb14611be2578063644fab7414611ad957806370a0823114611a9f578063715018a614611a4257806379cc679014611a125780637f76b223146119d75780638da5cb5b146119ae57806395d89b41146118e15780639b19251a146118a1578063a0a6e940146117f9578063a457c2d714611752578063a9059cbb14611721578063af157c1914611691578063aff177ca146115b2578063b5545a3c14611487578063b5cb15f714611468578063bb0e69e814611384578063bffb691d14611360578063caa07a0c14611169578063cba4cbd314611142578063d5abeb0114611123578063d7bb99ba14610e5e578063dd62ed3e14610e0d578063f2fde38b14610d7e578063f6649132146102f3578063f9f92be4146102b35763ffa1ad741461024457600080fd5b346102ae5760003660031901126102ae5760405160408101908082106001600160401b03831117610298576102949160405260058152640332e302e360dc1b60208201526040519182918261289b565b0390f35b634e487b7160e01b600052604160045260246000fd5b600080fd5b346102ae5760203660031901126102ae576001600160a01b036102d46128e4565b166000526101d3602052602060ff604060002054166040519015158152f35b346102ae576003196020368201126102ae576001600160401b03600435116102ae5761024090600435360301126102ae5760005460ff8160081c1615808091610d71575b8015610d5a575b15610cfe5760ff1982166001176000556103939181610cec575b50610367600480350180612df1565b61038b610381602460049694963501600435600401612df1565b95909236916129b4565b9336916129b4565b906103ae60ff60005460081c166103a98161369b565b61369b565b82516001600160401b038111610298576103c9603654612a44565b601f8111610c83575b506020601f8211600114610c0f5781929394600092610c04575b50508160011b916000199060031b1c1916176036555b81516001600160401b0381116102985761041d603754612a44565b601f8111610b9b575b50602092601f8211600114610b2b5792819293600092610b20575b50508160011b916000199060031b1c1916176037555b61049160ff60005460081c1661046c8161369b565b6104758161369b565b61047e8161369b565b60ff19609754166097556103a98161369b565b61049a3361356d565b6104c360ff60005460081c166104af8161369b565b6104b88161369b565b60016101915561369b565b6104d96104d4608460043501612c66565b61356d565b604460043501356064600435013510610acf5761050161022460043501600435600401612e23565b159050610a46576105206101e460043501356101c46004350135612b40565b906000915b61053a61022460043501600435600401612e23565b9050831015610655578261057361056e61055f61022460043501600435600401612e23565b6001600160a01b039491612e58565b612c66565b161561061057602061059a8461059461022460043501600435600401612e23565b90612e58565b0135156105d2576105ca60019160206105c28661059461022460043501600435600401612e23565b013590612b40565b920191610525565b60405162461bcd60e51b8152602060048201526016602482015275050657263656e74616765206d757374206265203e20360541b6044820152606490fd5b60405162461bcd60e51b815260206004820152601d60248201527f57616c6c657420616464726573732063616e6e6f74206265207a65726f0000006044820152606490fd5b606491925003610a01575b606460043501356101d15561067960a460043501612e68565b15156101d290815460ff61ff0061069460c460043501612e68565b151560081b1692169061ffff19161717905560646106bf6101c4600435013560446004350135612dde565b0460646106d96101e4600435013560446004350135612dde565b049080156109bc578115610977576106f181306136fb565b604051908152600080516020613a4683398151915260203092a261071581306136fb565b604051908152600080516020613a4683398151915260203092a2604051806101408101106001600160401b036101408301111761029857610140810160409081526004356101048101358084526101248201356020850181905261014483013593850184905261016483013560608601819052610184840135608087018190526101a485013560a0880181905260e49095013560c08801819052600060e089018190526101008901819052610120989098018890526101c6949094556101c7929092556101c8949094556101c9939093556101ca929092556101cb556101cc556101cd805461ffff191690556101ce8190555b61081d61022460043501600435600401612e23565b905081101561093857606461085460206108468461059461022460043501600435600401612e23565b013560446004350135612dde565b049081156108f3578161088460019361087f61056e8561059461022460043501600435600401612e23565b6136fb565b600080516020613a468339815191526020836108c061056e6108b161022460043501600435600401612e23565b898060a09693961b0394612e58565b1692604051908152a26108ed6108e861056e8361059461022460043501600435600401612e23565b6135b6565b01610808565b60405162461bcd60e51b815260206004820152601960248201527f57616c6c657420746f6b656e73206d757374206265203e2030000000000000006044820152606490fd5b5061093f57005b61ff0019600054166000557f7f26b83ff96e1f2b6a682f133852f6798a09c465da95921460cefb3847402498602060405160018152a1005b60405162461bcd60e51b815260206004820152601c60248201527f4c697175696469747920746f6b656e73206d757374206265203e2030000000006044820152606490fd5b60405162461bcd60e51b815260206004820152601a60248201527f50726573616c6520746f6b656e73206d757374206265203e20300000000000006044820152606490fd5b60405162461bcd60e51b815260206004820152601c60248201527f546f74616c2070657263656e74616765206d75737420626520313030000000006044820152606490fd5b6064610a606101e460043501356101c46004350135612b40565b1461066057608460405162461bcd60e51b815260206004820152604060248201527f50726573616c6520616e64206c6971756964697479206d75737420746f74616c60448201527f2031303025207768656e206e6f206164646974696f6e616c2077616c6c6574736064820152fd5b60405162461bcd60e51b8152602060048201526024808201527f4d617820737570706c79206d757374206265203e3d20696e697469616c20737560448201526370706c7960e01b6064820152608490fd5b015190508380610441565b601f198216936037600052600080516020613a268339815191529160005b868110610b835750836001959610610b6a575b505050811b01603755610457565b015160001960f88460031b161c19169055838080610b5c565b91926020600181928685015181550194019201610b49565b6037600052601f820160051c600080516020613a268339815191520160208310610bef575b601f820160051c600080516020613a26833981519152018110610be35750610426565b60008155600101610bc0565b50600080516020613a26833981519152610bc0565b0151905084806103ec565b60366000526000805160206139e68339815191529060005b601f1984168110610c6b5750600193949583601f19811610610c52575b505050811b01603655610402565b015160001960f88460031b161c19169055848080610c44565b9091602060018192858a015181550193019101610c27565b6036600052601f820160051c6000805160206139e68339815191520160208310610cd7575b601f820160051c6000805160206139e6833981519152018110610ccb57506103d2565b60008155600101610ca8565b506000805160206139e6833981519152610ca8565b61ffff19166101011760005582610358565b60405162461bcd60e51b815260206004820152602e60248201527f496e697469616c697a61626c653a20636f6e747261637420697320616c72656160448201526d191e481a5b9a5d1a585b1a5e995960921b6064820152608490fd5b50303b15801561033e5750600160ff83161461033e565b50600160ff831610610337565b346102ae5760203660031901126102ae57610d976128e4565b610d9f6134be565b6001600160a01b03811615610db957610db79061356d565b005b60405162461bcd60e51b815260206004820152602660248201527f4f776e61626c653a206e6577206f776e657220697320746865207a65726f206160448201526564647265737360d01b6064820152608490fd5b346102ae5760403660031901126102ae57610e266128e4565b610e2e6128fa565b9060018060a01b038091166000526034602052604060002091166000526020526020604060002054604051908152f35b60003660031901126102ae57610e72613516565b6101ca5442106110e8576101cb5442116110b3576101cd54610e9a60ff8260081c1615612cd5565b610ea96101c854341015612d15565b6101c95490610eba82341115612d5a565b60ff6101ce91610ed9610ece348554612b40565b6101c7541015612d9f565b16611065575b336000526101d0602091818352610efb34604060002054612b40565b93841161102057336000526101d680845260ff6040600020541615610f9e575b7fd2dff949d20e874cc6ba1dcefb840fb8cf6000a4197bfb69accfea5a32443ff5606085858589610f4f6101cc5434612dde565b92336000526101d785526040600020610f69858254612b40565b9055336000528452604060002055610f82348254612b40565b90556040519133835234908301526040820152a1600161019155005b9291906101d594855494600160401b86101561029857610fe7867fd2dff949d20e874cc6ba1dcefb840fb8cf6000a4197bfb69accfea5a32443ff5986001606099019055612910565b81549060031b9033821b9160018060a01b03901b19161790553360005284526040600020600160ff198254161790559450909192610f1b565b60405162461bcd60e51b815260048101849052601d60248201527f576f756c6420657863656564206d617820636f6e747269627574696f6e0000006044820152606490fd5b336000526101cf60205260ff60406000205416610edf5760405162461bcd60e51b815260206004820152600f60248201526e139bdd081dda1a5d195b1a5cdd1959608a1b6044820152606490fd5b60405162461bcd60e51b815260206004820152600d60248201526c141c995cd85b1948195b991959609a1b6044820152606490fd5b60405162461bcd60e51b8152602060048201526013602482015272141c995cd85b19481b9bdd081cdd185c9d1959606a1b6044820152606490fd5b346102ae5760003660031901126102ae5760206101d154604051908152f35b346102ae5760003660031901126102ae57602060ff6101d25460081c166040519015158152f35b60003660031901126102ae5761117d613516565b6101ca54421061131b576101cb5442116112e25760ff6101cd5460081c166112a6576111ae6101c854341015612d15565b6111bd6101c954341115612d5a565b6101ce8054906111d0610ece3484612b40565b6111dd6101cc5434612dde565b91821561126b576111ef903490612b40565b9055336000526101d0602052604060002061120b348254612b40565b90556101d861121b828254612b40565b905561122881333061300f565b611231336135b6565b6040519034825260208201527f7328344177fc6d840574aa1d342887bb3cc0db401813cdf2ee680609a603871160403392a2600161019155005b60405162461bcd60e51b81526020600482015260136024820152724d757374207265636569766520746f6b656e7360681b6044820152606490fd5b60405162461bcd60e51b8152602060048201526014602482015273141c995cd85b19481a5cc8199a5b985b1a5e995960621b6044820152606490fd5b60405162461bcd60e51b8152602060048201526011602482015270141c995cd85b19481a185cc8195b991959607a1b6044820152606490fd5b60405162461bcd60e51b815260206004820152601760248201527f50726573616c6520686173206e6f7420737461727465640000000000000000006044820152606490fd5b346102ae5760003660031901126102ae57602060ff6101d254166040519015158152f35b346102ae57611392366129eb565b9161139b6134be565b60ff6101d254161561142b5760005b8281106113e857506113e37f11d4d128e8f89ae2e8815168b9eba079dd6668b75f1e3a9dd96ac6192a7c4dcb9360405193849384612c7a565b0390a1005b6001906001600160a01b0361140161056e838787612c56565b166000526101d36020526114258560406000209060ff801983541691151516179055565b016113aa565b60405162461bcd60e51b8152602060048201526015602482015274109b1858dadb1a5cdd081b9bdd08195b98589b1959605a1b6044820152606490fd5b346102ae5760003660031901126102ae5760206101c554604051908152f35b346102ae5760003660031901126102ae576114a0613516565b6114ae6101cb544211612b63565b6114c160ff6101cd5460081c1615612cd5565b6101ce546101c654111561157a57336000526101d0806020526040600020549081156115435733600052602052600060408120556000808080843382f115611537576040519081527f358fe4192934d3bf28ae181feda1f4bd08ca67f5e2fad55582cce5eb67304ae960203392a2600161019155005b6040513d6000823e3d90fd5b60405162461bcd60e51b815260206004820152600f60248201526e27379031b7b73a3934b13aba34b7b760891b6044820152606490fd5b60405162461bcd60e51b815260206004820152601060248201526f14dbd99d0818d85c081c995858da195960821b6044820152606490fd5b346102ae576115c0366129eb565b916115c96134be565b60ff6101cd5416156116545760005b82811061161157506113e37fa091d95aa3f4b3529e12c57e1e9e10580edde8a7ac6fd51dd3c8e824c332dbe09360405193849384612c7a565b6001906001600160a01b0361162a61056e838787612c56565b166000526101cf60205261164e8560406000209060ff801983541691151516179055565b016115d8565b60405162461bcd60e51b815260206004820152601560248201527415da1a5d195b1a5cdd081b9bdd08195b98589b1959605a1b6044820152606490fd5b346102ae5760003660031901126102ae57604051806101d59182548082526020809201936000527f9f31c6e1fd7dfe4437c2313157aba3c74244a3ed366f8f45280769d409a8eb0a916000905b82821061170157610294856116f581890382612978565b60405191829182612856565b83546001600160a01b0316865294850194600193840193909101906116de565b346102ae5760403660031901126102ae5761174761173d6128e4565b602435903361300f565b602060405160018152f35b346102ae5760403660031901126102ae5761176b6128e4565b60243590336000526034602052604060002060018060a01b038216600052602052604060002054918083106117a65761174792039033612e75565b60405162461bcd60e51b815260206004820152602560248201527f45524332303a2064656372656173656420616c6c6f77616e63652062656c6f77604482015264207a65726f60d81b6064820152608490fd5b346102ae5760003660031901126102ae576118126134be565b6101cb5442118015611891575b61182890612b63565b7fedfde254cb8ed39d650c9a34251c59d6817fae4cc876cc2ce76669976cf102ee60406101cd80549061186160ff8360081c1615612ba3565b6101006101ce54926118786101c654851015612be3565b61ff0019161790556101d85482519182526020820152a1005b506101ce546101c754111561181f565b346102ae5760203660031901126102ae576001600160a01b036118c26128e4565b166000526101cf602052602060ff604060002054166040519015158152f35b346102ae5760003660031901126102ae57604051600060375461190381612a44565b80845290602090600190818116908115611984575060011461193c575b6102948561193081870382612978565b6040519182918261289b565b603760009081529350600080516020613a268339815191525b8385106119715750505050810160200161193082610294611920565b8054868601840152938201938101611955565b8695506102949693506020925061193094915060ff191682840152151560051b8201019293611920565b346102ae5760003660031901126102ae5760fb546040516001600160a01b039091168152602090f35b346102ae5760203660031901126102ae576001600160a01b036119f86128e4565b166000526101d46020526020604060002054604051908152f35b346102ae5760403660031901126102ae57610db7611a2e6128e4565b60243590611a3d823383612f77565b6132ca565b346102ae5760003660031901126102ae57611a5b6134be565b60fb80546001600160a01b031981169091556000906001600160a01b03167f8be0079c531659141344cd1fd0a4f28419497f9722a3daafe3b4186f6b6457e08280a3005b346102ae5760203660031901126102ae576001600160a01b03611ac06128e4565b1660005260336020526020604060002054604051908152f35b346102ae5760403660031901126102ae57611af26128e4565b60243590611afe6134be565b60ff6101d25460081c1615611ba55742821115611b60577fa9353e70f07f31e7f4e16464f45e189cbd22826780a5abe4da8303652a86960a9160409160018060a01b031690816000526101d460205280836000205582519182526020820152a1005b60405162461bcd60e51b815260206004820152601d60248201527f556e6c6f636b2074696d65206d75737420626520696e206675747572650000006044820152606490fd5b60405162461bcd60e51b8152602060048201526015602482015274151a5b59481b1bd8dac81b9bdd08195b98589b1959605a1b6044820152606490fd5b346102ae5760003660031901126102ae57602060ff609754166040519015158152f35b346102ae5760003660031901126102ae577f00000000000000000000000000000000000000000000000000000000000000006001600160a01b03163003611c5e576020604051600080516020613a068339815191528152f35b60405162461bcd60e51b815260206004820152603860248201527f555550535570677261646561626c653a206d757374206e6f742062652063616c60448201527f6c6564207468726f7567682064656c656761746563616c6c00000000000000006064820152608490fd5b60403660031901126102ae57611cdd6128e4565b6024356001600160401b0381116102ae57366023820112156102ae57611d0d9036906024816004013591016129b4565b906001600160a01b037f0000000000000000000000000000000000000000000000000000000000000000811690611d4630831415612a7e565b611d63600080516020613a06833981519152928284541614612adf565b611d6b6134be565b7f4910fdfa16fed3260ed0e7147f7cc6da11a60208b5b9406d12a635614ffd91435460ff1615611da1575050610db791506138c0565b6040516352d1902d60e01b81526020939291831691908481600481865afa60009181611f2e575b50611e295760405162461bcd60e51b815260048101869052602e60248201527f45524331393637557067726164653a206e657720696d706c656d656e7461746960448201526d6f6e206973206e6f74205555505360901b6064820152608490fd5b03611ed757611e37826138c0565b7fbc7cd75a20ee27fd9adebab32041f755214dbc6bffa90cc0225b39da2e5c2d3b600080a2825115801590611ecf575b611e6d57005b600080610db79460405194611e818661295d565b602786527f416464726573733a206c6f772d6c6576656c2064656c65676174652063616c6c81870152660819985a5b195960ca1b604087015281519101845af4611ec9612c26565b91613950565b506001611e67565b60405162461bcd60e51b815260048101849052602960248201527f45524331393637557067726164653a20756e737570706f727465642070726f786044820152681a58589b195555525160ba1b6064820152608490fd5b9091508581813d8311611f56575b611f468183612978565b810103126102ae57519087611dc8565b503d611f3c565b346102ae5760003660031901126102ae57611f766134be565b611f7e613516565b611f8c6101cb544211612b63565b6101cd805490611fa260ff8360081c1615612ba3565b6101006101ce92611fb984546101c6541115612be3565b61ff00191617905560005b6101d5548110156120555780611fdb600192612910565b838060a01b0391549060031b1c16806000526101d7906020908282526040600020548061200d575b5050505001611fc4565b600080516020613a46833981519152838261202a8594853361300f565b6101d8612038828254612b40565b9055604051908152a2600052526000604081205583808080612003565b504780612099575b7fedfde254cb8ed39d650c9a34251c59d6817fae4cc876cc2ce76669976cf102ee604083546101d85482519182526020820152a1600161019155005b60fb546000918291829182916001600160a01b03165af16120b8612c26565b50156120c4578161205d565b60405162461bcd60e51b8152602060048201526013602482015272115512081d1c985b9cd9995c8819985a5b1959606a1b6044820152606490fd5b346102ae5760003660031901126102ae5760206101d854604051908152f35b346102ae5760203660031901126102ae576001600160a01b0361213f6128e4565b166000526101d76020526020604060002054604051908152f35b346102ae5760203660031901126102ae576001600160a01b0361217a6128e4565b166000526101d06020526020604060002054604051908152f35b346102ae5760203660031901126102ae57610db7600435336132ca565b346102ae5760203660031901126102ae576001600160a01b036121d26128e4565b166000526101c3602052602060ff604060002054166040519015158152f35b346102ae5760203660031901126102ae576004356101d5548110156102ae5761221b602091612910565b905460405160039290921b1c6001600160a01b03168152f35b346102ae5760403660031901126102ae576117476122506128e4565b336000526034602052604060002060018060a01b03821660005260205261227e602435604060002054612b40565b9033612e75565b346102ae5760203660031901126102ae576004356101c49081548110156102ae5760209160005260018060a01b03907f5ac35dca7c3a7d5ae9d0add1efdc4aa02e10dd5cac0b90d2122cf0f0cc68317f015416604051908152f35b346102ae576020806003193601126102ae576122fa6128e4565b6001600160a01b037f00000000000000000000000000000000000000000000000000000000000000008116929061233330851415612a7e565b612350600080516020613a06833981519152948286541614612adf565b6123586134be565b60405193828501918583106001600160401b0384111761029857826040526000865260ff7f4910fdfa16fed3260ed0e7147f7cc6da11a60208b5b9406d12a635614ffd914354166000146123b45750505050610db791506138c0565b84939416906040516352d1902d60e01b81528581600481865afa60009181612535575b506124385760405162461bcd60e51b815260048101879052602e60248201527f45524331393637557067726164653a206e657720696d706c656d656e7461746960448201526d6f6e206973206e6f74205555505360901b6064820152608490fd5b036124de57612446836138c0565b7fbc7cd75a20ee27fd9adebab32041f755214dbc6bffa90cc0225b39da2e5c2d3b600080a28351158015906124d6575b61247c57005b60008091610db7957f416464726573733a206c6f772d6c6576656c2064656c65676174652063616c6c604051966124b28861295d565b60278852870152660819985a5b195960ca1b60408701525190845af4611ec9612c26565b506000612476565b60405162461bcd60e51b815260048101859052602960248201527f45524331393637557067726164653a20756e737570706f727465642070726f786044820152681a58589b195555525160ba1b6064820152608490fd5b9091508681813d831161255d575b61254d8183612978565b810103126102ae575190886123d7565b503d612543565b346102ae5760003660031901126102ae57602060405160128152f35b346102ae5760003660031901126102ae576101406101c6546101c75460ff6101c8546101c9546101ca546101cb54906101cc54926101cd54946101ce5497604051998a5260208a015260408901526060880152608087015260a086015260c0850152818116151560e085015260081c161515610100830152610120820152f35b346102ae5760003660031901126102ae5760206101d554604051908152f35b346102ae5760603660031901126102ae5761174761263b6128e4565b6126436128fa565b60443591612652833383612f77565b61300f565b346102ae5760203660031901126102ae576001600160a01b036126786128e4565b166000526101d6602052602060ff604060002054166040519015158152f35b346102ae5760003660031901126102ae576020603554604051908152f35b346102ae5760203660031901126102ae576001600160a01b036126d66128e4565b166000526101d060205260606040600020546101d76020526040600020546101cf60205260ff6040600020541690604051928352602083015215156040820152f35b346102ae5760403660031901126102ae576117476127346128e4565b6024359033612e75565b346102ae5760003660031901126102ae57604051600060365461276081612a44565b80845290602090600190818116908115611984575060011461278c576102948561193081870382612978565b6036600090815293506000805160206139e68339815191525b8385106127c15750505050810160200161193082610294611920565b80548686018401529382019381016127a5565b346102ae5760003660031901126102ae576101c490815480825260209060208301936000527f5ac35dca7c3a7d5ae9d0add1efdc4aa02e10dd5cac0b90d2122cf0f0cc68317f916000905b82821061283657610294856116f581890382612978565b83546001600160a01b03168652948501946001938401939091019061281f565b602090602060408183019282815285518094520193019160005b82811061287e575050505090565b83516001600160a01b031685529381019392810192600101612870565b6020808252825181830181905290939260005b8281106128d057505060409293506000838284010152601f8019910116010190565b8181018601518482016040015285016128ae565b600435906001600160a01b03821682036102ae57565b602435906001600160a01b03821682036102ae57565b6101d58054821015612947576000527f9f31c6e1fd7dfe4437c2313157aba3c74244a3ed366f8f45280769d409a8eb0a0190600090565b634e487b7160e01b600052603260045260246000fd5b606081019081106001600160401b0382111761029857604052565b90601f801991011681019081106001600160401b0382111761029857604052565b6001600160401b03811161029857601f01601f191660200190565b9291926129c082612999565b916129ce6040519384612978565b8294818452818301116102ae578281602093846000960137010152565b9060406003198301126102ae576004356001600160401b03928382116102ae57806023830112156102ae5781600401359384116102ae5760248460051b830101116102ae57602401919060243580151581036102ae5790565b90600182811c92168015612a74575b6020831014612a5e57565b634e487b7160e01b600052602260045260246000fd5b91607f1691612a53565b15612a8557565b60405162461bcd60e51b815260206004820152602c60248201527f46756e6374696f6e206d7573742062652063616c6c6564207468726f7567682060448201526b19195b1959d85d1958d85b1b60a21b6064820152608490fd5b15612ae657565b60405162461bcd60e51b815260206004820152602c60248201527f46756e6374696f6e206d7573742062652063616c6c6564207468726f7567682060448201526b6163746976652070726f787960a01b6064820152608490fd5b91908201809211612b4d57565b634e487b7160e01b600052601160045260246000fd5b15612b6a57565b60405162461bcd60e51b8152602060048201526011602482015270141c995cd85b19481b9bdd08195b991959607a1b6044820152606490fd5b15612baa57565b60405162461bcd60e51b8152602060048201526011602482015270105b1c9958591e48199a5b985b1a5e9959607a1b6044820152606490fd5b15612bea57565b60405162461bcd60e51b815260206004820152601460248201527314dbd99d0818d85c081b9bdd081c995858da195960621b6044820152606490fd5b3d15612c51573d90612c3782612999565b91612c456040519384612978565b82523d6000602084013e565b606090565b91908110156129475760051b0190565b356001600160a01b03811681036102ae5790565b60408082528101839052929392916060830190600090815b818110612ca85750505060209150931515910152565b909192843560018060a01b038116809103612cd157815260209485019401929190600101612c92565b8480fd5b15612cdc57565b60405162461bcd60e51b8152602060048201526011602482015270141c995cd85b1948199a5b985b1a5e9959607a1b6044820152606490fd5b15612d1c57565b60405162461bcd60e51b81526020600482015260166024820152752132b637bb9036b4b71031b7b73a3934b13aba34b7b760511b6044820152606490fd5b15612d6157565b60405162461bcd60e51b815260206004820152601660248201527520b137bb329036b0bc1031b7b73a3934b13aba34b7b760511b6044820152606490fd5b15612da657565b60405162461bcd60e51b815260206004820152601060248201526f12185c990818d85c081c995858da195960821b6044820152606490fd5b81810292918115918404141715612b4d57565b903590601e19813603018212156102ae57018035906001600160401b0382116102ae576020019181360383136102ae57565b903590601e19813603018212156102ae57018035906001600160401b0382116102ae57602001918160061b360383136102ae57565b91908110156129475760061b0190565b3580151581036102ae5790565b6001600160a01b03908116918215612f265716918215612ed65760207f8c5be1e5ebec7d5bd14f71427d1e84f3dd0314c0f7b2291e5b200ac8c7c3b925918360005260348252604060002085600052825280604060002055604051908152a3565b60405162461bcd60e51b815260206004820152602260248201527f45524332303a20617070726f766520746f20746865207a65726f206164647265604482015261737360f01b6064820152608490fd5b60405162461bcd60e51b8152602060048201526024808201527f45524332303a20617070726f76652066726f6d20746865207a65726f206164646044820152637265737360e01b6064820152608490fd5b9060018060a01b0380831660005260346020526040600020908216600052602052604060002054926000198403612faf575b50505050565b808410612fca57612fc1930391612e75565b38808080612fa9565b60405162461bcd60e51b815260206004820152601d60248201527f45524332303a20696e73756666696369656e7420616c6c6f77616e63650000006044820152606490fd5b6001600160a01b03908116908115613277578216908115613226576101d25460ff81166131b9575b60081c60ff16806131b1575b613165575b60ff6097541661310d57600081815260336020526040812054908582106130b957856040826130b7987fddf252ad1be2c89b69c2b068fc378daa952ba7f163c4a11628f55a4df523b3ef95876020965260338652038282205586815220818154019055604051908152a36135b6565b565b60405162461bcd60e51b815260206004820152602660248201527f45524332303a207472616e7366657220616d6f756e7420657863656564732062604482015265616c616e636560d01b6064820152608490fd5b60405162461bcd60e51b815260206004820152602a60248201527f45524332305061757361626c653a20746f6b656e207472616e736665722077686044820152691a5b19481c185d5cd95960b21b6064820152608490fd5b806000526101d46020526040600020544210156130485760405162461bcd60e51b815260206004820152600d60248201526c151bdad95b9cc81b1bd8dad959609a1b6044820152606490fd5b506001613043565b816000526101d360205260ff604060002054161580613212575b6130375760405162461bcd60e51b81526020600482015260136024820152721059191c995cdcc8189b1858dadb1a5cdd1959606a1b6044820152606490fd5b508260005260ff60406000205416156131d3565b60405162461bcd60e51b815260206004820152602360248201527f45524332303a207472616e7366657220746f20746865207a65726f206164647260448201526265737360e81b6064820152608490fd5b60405162461bcd60e51b815260206004820152602560248201527f45524332303a207472616e736665722066726f6d20746865207a65726f206164604482015264647265737360d81b6064820152608490fd5b6001600160a01b0316801561346f576101d25460ff8116613402575b60081c60ff16806133fa575b6133ae575b60ff6097541661310d578060005260336020526040600020549180831061335e576020817fddf252ad1be2c89b69c2b068fc378daa952ba7f163c4a11628f55a4df523b3ef92600095858752603384520360408620558060355403603555604051908152a3565b60405162461bcd60e51b815260206004820152602260248201527f45524332303a206275726e20616d6f756e7420657863656564732062616c616e604482015261636560f01b6064820152608490fd5b806000526101d46020526040600020544210156132f75760405162461bcd60e51b815260206004820152600d60248201526c151bdad95b9cc81b1bd8dad959609a1b6044820152606490fd5b5060016132f2565b816000526101d360205260ff60406000205416158061345b575b6132e65760405162461bcd60e51b81526020600482015260136024820152721059191c995cdcc8189b1858dadb1a5cdd1959606a1b6044820152606490fd5b506000805260ff604060002054161561341c565b60405162461bcd60e51b815260206004820152602160248201527f45524332303a206275726e2066726f6d20746865207a65726f206164647265736044820152607360f81b6064820152608490fd5b60fb546001600160a01b031633036134d257565b606460405162461bcd60e51b815260206004820152602060248201527f4f776e61626c653a2063616c6c6572206973206e6f7420746865206f776e65726044820152fd5b61019160028154146135285760029055565b60405162461bcd60e51b815260206004820152601f60248201527f5265656e7472616e637947756172643a207265656e7472616e742063616c6c006044820152606490fd5b60fb80546001600160a01b039283166001600160a01b0319821681179092559091167f8be0079c531659141344cd1fd0a4f28419497f9722a3daafe3b4186f6b6457e0600080a3565b6001600160a01b031660008181526101c360205260408120805491929160ff8116156135e25750505050565b60ff191660011790556101c4805490600160401b82101561368757600182018082558210156136735783527f5ac35dca7c3a7d5ae9d0add1efdc4aa02e10dd5cac0b90d2122cf0f0cc68317f0180546001600160a01b03191690911790556101c580549091600019821461365f5750600101905538808080612fa9565b634e487b7160e01b81526011600452602490fd5b634e487b7160e01b84526032600452602484fd5b634e487b7160e01b84526041600452602484fd5b156136a257565b60405162461bcd60e51b815260206004820152602b60248201527f496e697469616c697a61626c653a20636f6e7472616374206973206e6f74206960448201526a6e697469616c697a696e6760a81b6064820152608490fd5b6001600160a01b031690811561387b576101d25460ff81166137f2575b60081c60ff16806137ea575b613782575b60ff6097541661310d577fddf252ad1be2c89b69c2b068fc378daa952ba7f163c4a11628f55a4df523b3ef602082613765600094603554612b40565b6035558484526033825260408420818154019055604051908152a3565b600080526101d46020527f410fcf528d521d85c0b03b4ed80308a532d4b2e9fb9978a3f903402e42241352544210156137295760405162461bcd60e51b815260206004820152600d60248201526c151bdad95b9cc81b1bd8dad959609a1b6044820152606490fd5b506000613724565b600080526101d36020527fe33998ff62f234a925b803b2d837cb316cde2dfcbc8c8f1f21fa7ed385b74c305460ff161580613867575b6137185760405162461bcd60e51b81526020600482015260136024820152721059191c995cdcc8189b1858dadb1a5cdd1959606a1b6044820152606490fd5b508260005260ff6040600020541615613828565b60405162461bcd60e51b815260206004820152601f60248201527f45524332303a206d696e7420746f20746865207a65726f2061646472657373006044820152606490fd5b803b156138f557600080516020613a0683398151915280546001600160a01b0319166001600160a01b03909216919091179055565b60405162461bcd60e51b815260206004820152602d60248201527f455243313936373a206e657720696d706c656d656e746174696f6e206973206e60448201526c1bdd08184818dbdb9d1c9858dd609a1b6064820152608490fd5b919290156139b25750815115613964575090565b3b1561396d5790565b60405162461bcd60e51b815260206004820152601d60248201527f416464726573733a2063616c6c20746f206e6f6e2d636f6e74726163740000006044820152606490fd5b8251909150156139c55750805190602001fd5b60405162461bcd60e51b81529081906139e1906004830161289b565b0390fdfe4a11f94e20a93c79f6ec743a1954ec4fc2c08429ae2122118bf234b2185c81b8360894a13ba1a3210667c828492db98dca3e2076cc3735a920a3ca505d382bbc42a7b7dd785cd69714a189dffb3fd7d7174edc9ece837694ce50f7078f7c31ae16b0da2ffcb90c6723317bd637d9aad7f04711f42bbe0ac0918ebe10f1f9001ca264697066735822122093bc99b469752590b16828d644a3ccb2d74fc24e2f40c3e0702cf1267ed9a57864736f6c63430008160033",
  "linkReferences": {},
  "deployedLinkReferences": {}
}