{
  "_format": "hh-sol-artifact-1",
  "contractName": "TokenTemplate_v3",
  "sourceName": "src/contracts/TokenTemplate_v3.sol",
  "abi": [
    {
      "inputs": [
        {
          "internalType": "address",
          "name": "_router",
          "type": "address"
        }
      ],
      "stateMutability": "nonpayable",
      "type": "constructor"
    },
    {
      "anonymous": false,
      "inputs": [
        {
          "indexed": true,
          "internalType": "address",
          "name": "owner",
          "type": "address"
        },
        {
          "indexed": true,
          "internalType": "address",
          "name": "spender",
          "type": "address"
        },
        {
          "indexed": false,
          "internalType": "uint256",
          "name": "value",
          "type": "uint256"
        }
      ],
      "name": "Approval",
      "type": "event"
    },
    {
      "anonymous": false,
      "inputs": [
        {
          "indexed": true,
          "internalType": "address",
          "name": "account",
          "type": "address"
        },
        {
          "indexed": false,
          "internalType": "bool",
          "name": "status",
          "type": "bool"
        }
      ],
      "name": "BlacklistUpdated",
      "type": "event"
    },
    {
      "anonymous": false,
      "inputs": [
        {
          "indexed": true,
          "internalType": "address",
          "name": "pair",
          "type": "address"
        },
        {
          "indexed": false,
          "internalType": "uint256",
          "name": "tokensAdded",
          "type": "uint256"
        },
        {
          "indexed": false,
          "internalType": "uint256",
          "name": "ethAdded",
          "type": "uint256"
        }
      ],
      "name": "LiquidityAdded",
      "type": "event"
    },
    {
      "anonymous": false,
      "inputs": [
        {
          "indexed": true,
          "internalType": "address",
          "name": "previousOwner",
          "type": "address"
        },
        {
          "indexed": true,
          "internalType": "address",
          "name": "newOwner",
          "type": "address"
        }
      ],
      "name": "OwnershipTransferred",
      "type": "event"
    },
    {
      "anonymous": false,
      "inputs": [
        {
          "indexed": false,
          "internalType": "address",
          "name": "account",
          "type": "address"
        }
      ],
      "name": "Paused",
      "type": "event"
    },
    {
      "anonymous": false,
      "inputs": [],
      "name": "Paused",
      "type": "event"
    },
    {
      "anonymous": false,
      "inputs": [
        {
          "indexed": false,
          "internalType": "uint256",
          "name": "totalRaised",
          "type": "uint256"
        }
      ],
      "name": "PresaleEnded",
      "type": "event"
    },
    {
      "anonymous": false,
      "inputs": [
        {
          "indexed": false,
          "internalType": "uint256",
          "name": "startTime",
          "type": "uint256"
        },
        {
          "indexed": false,
          "internalType": "uint256",
          "name": "endTime",
          "type": "uint256"
        }
      ],
      "name": "PresaleStarted",
      "type": "event"
    },
    {
      "anonymous": false,
      "inputs": [
        {
          "indexed": true,
          "internalType": "address",
          "name": "account",
          "type": "address"
        },
        {
          "indexed": false,
          "internalType": "uint256",
          "name": "timestamp",
          "type": "uint256"
        }
      ],
      "name": "TimeLockSet",
      "type": "event"
    },
    {
      "anonymous": false,
      "inputs": [
        {
          "indexed": true,
          "internalType": "address",
          "name": "wallet",
          "type": "address"
        },
        {
          "indexed": false,
          "internalType": "uint256",
          "name": "amount",
          "type": "uint256"
        }
      ],
      "name": "TokensClaimed",
      "type": "event"
    },
    {
      "anonymous": false,
      "inputs": [
        {
          "indexed": true,
          "internalType": "address",
          "name": "from",
          "type": "address"
        },
        {
          "indexed": true,
          "internalType": "address",
          "name": "to",
          "type": "address"
        },
        {
          "indexed": false,
          "internalType": "uint256",
          "name": "value",
          "type": "uint256"
        }
      ],
      "name": "Transfer",
      "type": "event"
    },
    {
      "anonymous": false,
      "inputs": [
        {
          "indexed": false,
          "internalType": "address",
          "name": "account",
          "type": "address"
        }
      ],
      "name": "Unpaused",
      "type": "event"
    },
    {
      "anonymous": false,
      "inputs": [],
      "name": "Unpaused",
      "type": "event"
    },
    {
      "anonymous": false,
      "inputs": [
        {
          "indexed": true,
          "internalType": "address",
          "name": "beneficiary",
          "type": "address"
        },
        {
          "indexed": false,
          "internalType": "uint256",
          "name": "totalAmount",
          "type": "uint256"
        },
        {
          "indexed": false,
          "internalType": "uint256",
          "name": "startTime",
          "type": "uint256"
        },
        {
          "indexed": false,
          "internalType": "uint256",
          "name": "duration",
          "type": "uint256"
        },
        {
          "indexed": false,
          "internalType": "uint256",
          "name": "cliff",
          "type": "uint256"
        }
      ],
      "name": "VestingScheduleCreated",
      "type": "event"
    },
    {
      "inputs": [
        {
          "internalType": "uint256",
          "name": "tokenAmount",
          "type": "uint256"
        }
      ],
      "name": "addLiquidity",
      "outputs": [],
      "stateMutability": "payable",
      "type": "function"
    },
    {
      "inputs": [
        {
          "internalType": "uint256",
          "name": "tokenAmount",
          "type": "uint256"
        }
      ],
      "name": "addLiquidityFromContract",
      "outputs": [],
      "stateMutability": "payable",
      "type": "function"
    },
    {
      "inputs": [
        {
          "internalType": "address",
          "name": "owner",
          "type": "address"
        },
        {
          "internalType": "address",
          "name": "spender",
          "type": "address"
        }
      ],
      "name": "allowance",
      "outputs": [
        {
          "internalType": "uint256",
          "name": "",
          "type": "uint256"
        }
      ],
      "stateMutability": "view",
      "type": "function"
    },
    {
      "inputs": [
        {
          "internalType": "address",
          "name": "spender",
          "type": "address"
        },
        {
          "internalType": "uint256",
          "name": "amount",
          "type": "uint256"
        }
      ],
      "name": "approve",
      "outputs": [
        {
          "internalType": "bool",
          "name": "",
          "type": "bool"
        }
      ],
      "stateMutability": "nonpayable",
      "type": "function"
    },
    {
      "inputs": [
        {
          "internalType": "address",
          "name": "account",
          "type": "address"
        }
      ],
      "name": "balanceOf",
      "outputs": [
        {
          "internalType": "uint256",
          "name": "",
          "type": "uint256"
        }
      ],
      "stateMutability": "view",
      "type": "function"
    },
    {
      "inputs": [],
      "name": "blacklistEnabled",
      "outputs": [
        {
          "internalType": "bool",
          "name": "",
          "type": "bool"
        }
      ],
      "stateMutability": "view",
      "type": "function"
    },
    {
      "inputs": [
        {
          "internalType": "uint256",
          "name": "amount",
          "type": "uint256"
        }
      ],
      "name": "burn",
      "outputs": [],
      "stateMutability": "nonpayable",
      "type": "function"
    },
    {
      "inputs": [
        {
          "internalType": "address",
          "name": "account",
          "type": "address"
        },
        {
          "internalType": "uint256",
          "name": "amount",
          "type": "uint256"
        }
      ],
      "name": "burnFrom",
      "outputs": [],
      "stateMutability": "nonpayable",
      "type": "function"
    },
    {
      "inputs": [],
      "name": "claimVestedTokens",
      "outputs": [],
      "stateMutability": "nonpayable",
      "type": "function"
    },
    {
      "inputs": [],
      "name": "decimals",
      "outputs": [
        {
          "internalType": "uint8",
          "name": "",
          "type": "uint8"
        }
      ],
      "stateMutability": "view",
      "type": "function"
    },
    {
      "inputs": [
        {
          "internalType": "address",
          "name": "spender",
          "type": "address"
        },
        {
          "internalType": "uint256",
          "name": "subtractedValue",
          "type": "uint256"
        }
      ],
      "name": "decreaseAllowance",
      "outputs": [
        {
          "internalType": "bool",
          "name": "",
          "type": "bool"
        }
      ],
      "stateMutability": "nonpayable",
      "type": "function"
    },
    {
      "inputs": [],
      "name": "endTime",
      "outputs": [
        {
          "internalType": "uint256",
          "name": "",
          "type": "uint256"
        }
      ],
      "stateMutability": "view",
      "type": "function"
    },
    {
      "inputs": [
        {
          "internalType": "address",
          "name": "wallet",
          "type": "address"
        }
      ],
      "name": "getClaimableAmount",
      "outputs": [
        {
          "internalType": "uint256",
          "name": "",
          "type": "uint256"
        }
      ],
      "stateMutability": "view",
      "type": "function"
    },
    {
      "inputs": [],
      "name": "getRemainingLiquidityAllocation",
      "outputs": [
        {
          "internalType": "uint256",
          "name": "",
          "type": "uint256"
        }
      ],
      "stateMutability": "view",
      "type": "function"
    },
    {
      "inputs": [
        {
          "internalType": "address",
          "name": "account",
          "type": "address"
        }
      ],
      "name": "getUnlockTime",
      "outputs": [
        {
          "internalType": "uint256",
          "name": "",
          "type": "uint256"
        }
      ],
      "stateMutability": "view",
      "type": "function"
    },
    {
      "inputs": [
        {
          "internalType": "address",
          "name": "wallet",
          "type": "address"
        }
      ],
      "name": "getVestingInfo",
      "outputs": [
        {
          "internalType": "uint256",
          "name": "totalAmount",
          "type": "uint256"
        },
        {
          "internalType": "uint256",
          "name": "claimedAmount",
          "type": "uint256"
        },
        {
          "internalType": "uint256",
          "name": "startTime",
          "type": "uint256"
        },
        {
          "internalType": "uint256",
          "name": "duration",
          "type": "uint256"
        },
        {
          "internalType": "uint256",
          "name": "cliff",
          "type": "uint256"
        }
      ],
      "stateMutability": "view",
      "type": "function"
    },
    {
      "inputs": [],
      "name": "hardCap",
      "outputs": [
        {
          "internalType": "uint256",
          "name": "",
          "type": "uint256"
        }
      ],
      "stateMutability": "view",
      "type": "function"
    },
    {
      "inputs": [
        {
          "internalType": "address",
          "name": "spender",
          "type": "address"
        },
        {
          "internalType": "uint256",
          "name": "addedValue",
          "type": "uint256"
        }
      ],
      "name": "increaseAllowance",
      "outputs": [
        {
          "internalType": "bool",
          "name": "",
          "type": "bool"
        }
      ],
      "stateMutability": "nonpayable",
      "type": "function"
    },
    {
      "inputs": [
        {
          "components": [
            {
              "internalType": "string",
              "name": "name",
              "type": "string"
            },
            {
              "internalType": "string",
              "name": "symbol",
              "type": "string"
            },
            {
              "internalType": "uint256",
              "name": "initialSupply",
              "type": "uint256"
            },
            {
              "internalType": "uint256",
              "name": "maxSupply",
              "type": "uint256"
            },
            {
              "internalType": "address",
              "name": "owner",
              "type": "address"
            },
            {
              "internalType": "bool",
              "name": "enableBlacklist",
              "type": "bool"
            },
            {
              "internalType": "bool",
              "name": "enableTimeLock",
              "type": "bool"
            },
            {
              "internalType": "uint256",
              "name": "presaleRate",
              "type": "uint256"
            },
            {
              "internalType": "uint256",
              "name": "softCap",
              "type": "uint256"
            },
            {
              "internalType": "uint256",
              "name": "hardCap",
              "type": "uint256"
            },
            {
              "internalType": "uint256",
              "name": "minContribution",
              "type": "uint256"
            },
            {
              "internalType": "uint256",
              "name": "maxContribution",
              "type": "uint256"
            },
            {
              "internalType": "uint256",
              "name": "startTime",
              "type": "uint256"
            },
            {
              "internalType": "uint256",
              "name": "endTime",
              "type": "uint256"
            },
            {
              "internalType": "uint256",
              "name": "presalePercentage",
              "type": "uint256"
            },
            {
              "internalType": "uint256",
              "name": "liquidityPercentage",
              "type": "uint256"
            },
            {
              "internalType": "uint256",
              "name": "liquidityLockDuration",
              "type": "uint256"
            },
            {
              "components": [
                {
                  "internalType": "address",
                  "name": "wallet",
                  "type": "address"
                },
                {
                  "internalType": "uint256",
                  "name": "percentage",
                  "type": "uint256"
                },
                {
                  "internalType": "bool",
                  "name": "vestingEnabled",
                  "type": "bool"
                },
                {
                  "internalType": "uint256",
                  "name": "vestingDuration",
                  "type": "uint256"
                },
                {
                  "internalType": "uint256",
                  "name": "cliffDuration",
                  "type": "uint256"
                },
                {
                  "internalType": "uint256",
                  "name": "vestingStartTime",
                  "type": "uint256"
                }
              ],
              "internalType": "struct TokenTemplate_v3.WalletAllocation[]",
              "name": "walletAllocations",
              "type": "tuple[]"
            },
            {
              "internalType": "uint256",
              "name": "maxActivePresales",
              "type": "uint256"
            },
            {
              "internalType": "bool",
              "name": "presaleEnabled",
              "type": "bool"
            }
          ],
          "internalType": "struct TokenTemplate_v3.InitParams",
          "name": "params",
          "type": "tuple"
        }
      ],
      "name": "initialize",
      "outputs": [],
      "stateMutability": "payable",
      "type": "function"
    },
    {
      "inputs": [
        {
          "internalType": "address",
          "name": "account",
          "type": "address"
        }
      ],
      "name": "isBlacklisted",
      "outputs": [
        {
          "internalType": "bool",
          "name": "",
          "type": "bool"
        }
      ],
      "stateMutability": "view",
      "type": "function"
    },
    {
      "inputs": [],
      "name": "liquidityAllocation",
      "outputs": [
        {
          "internalType": "uint256",
          "name": "",
          "type": "uint256"
        }
      ],
      "stateMutability": "view",
      "type": "function"
    },
    {
      "inputs": [],
      "name": "liquidityLockDuration",
      "outputs": [
        {
          "internalType": "uint256",
          "name": "",
          "type": "uint256"
        }
      ],
      "stateMutability": "view",
      "type": "function"
    },
    {
      "inputs": [],
      "name": "liquidityPercentage",
      "outputs": [
        {
          "internalType": "uint256",
          "name": "",
          "type": "uint256"
        }
      ],
      "stateMutability": "view",
      "type": "function"
    },
    {
      "inputs": [],
      "name": "maxActivePresales",
      "outputs": [
        {
          "internalType": "uint256",
          "name": "",
          "type": "uint256"
        }
      ],
      "stateMutability": "view",
      "type": "function"
    },
    {
      "inputs": [],
      "name": "maxContribution",
      "outputs": [
        {
          "internalType": "uint256",
          "name": "",
          "type": "uint256"
        }
      ],
      "stateMutability": "view",
      "type": "function"
    },
    {
      "inputs": [],
      "name": "maxSupply",
      "outputs": [
        {
          "internalType": "uint256",
          "name": "",
          "type": "uint256"
        }
      ],
      "stateMutability": "view",
      "type": "function"
    },
    {
      "inputs": [],
      "name": "minContribution",
      "outputs": [
        {
          "internalType": "uint256",
          "name": "",
          "type": "uint256"
        }
      ],
      "stateMutability": "view",
      "type": "function"
    },
    {
      "inputs": [],
      "name": "name",
      "outputs": [
        {
          "internalType": "string",
          "name": "",
          "type": "string"
        }
      ],
      "stateMutability": "view",
      "type": "function"
    },
    {
      "inputs": [],
      "name": "owner",
      "outputs": [
        {
          "internalType": "address",
          "name": "",
          "type": "address"
        }
      ],
      "stateMutability": "view",
      "type": "function"
    },
    {
      "inputs": [],
      "name": "pause",
      "outputs": [],
      "stateMutability": "nonpayable",
      "type": "function"
    },
    {
      "inputs": [],
      "name": "paused",
      "outputs": [
        {
          "internalType": "bool",
          "name": "",
          "type": "bool"
        }
      ],
      "stateMutability": "view",
      "type": "function"
    },
    {
      "inputs": [],
      "name": "presaleEnabled",
      "outputs": [
        {
          "internalType": "bool",
          "name": "",
          "type": "bool"
        }
      ],
      "stateMutability": "view",
      "type": "function"
    },
    {
      "inputs": [],
      "name": "presalePercentage",
      "outputs": [
        {
          "internalType": "uint256",
          "name": "",
          "type": "uint256"
        }
      ],
      "stateMutability": "view",
      "type": "function"
    },
    {
      "inputs": [],
      "name": "presaleRate",
      "outputs": [
        {
          "internalType": "uint256",
          "name": "",
          "type": "uint256"
        }
      ],
      "stateMutability": "view",
      "type": "function"
    },
    {
      "inputs": [],
      "name": "remainingLiquidityAllocation",
      "outputs": [
        {
          "internalType": "uint256",
          "name": "",
          "type": "uint256"
        }
      ],
      "stateMutability": "view",
      "type": "function"
    },
    {
      "inputs": [],
      "name": "renounceOwnership",
      "outputs": [],
      "stateMutability": "nonpayable",
      "type": "function"
    },
    {
      "inputs": [
        {
          "internalType": "address",
          "name": "account",
          "type": "address"
        },
        {
          "internalType": "bool",
          "name": "status",
          "type": "bool"
        }
      ],
      "name": "setBlacklist",
      "outputs": [],
      "stateMutability": "nonpayable",
      "type": "function"
    },
    {
      "inputs": [
        {
          "internalType": "address",
          "name": "account",
          "type": "address"
        },
        {
          "internalType": "uint256",
          "name": "unlockTime",
          "type": "uint256"
        }
      ],
      "name": "setTimeLock",
      "outputs": [],
      "stateMutability": "nonpayable",
      "type": "function"
    },
    {
      "inputs": [],
      "name": "softCap",
      "outputs": [
        {
          "internalType": "uint256",
          "name": "",
          "type": "uint256"
        }
      ],
      "stateMutability": "view",
      "type": "function"
    },
    {
      "inputs": [],
      "name": "startTime",
      "outputs": [
        {
          "internalType": "uint256",
          "name": "",
          "type": "uint256"
        }
      ],
      "stateMutability": "view",
      "type": "function"
    },
    {
      "inputs": [],
      "name": "symbol",
      "outputs": [
        {
          "internalType": "string",
          "name": "",
          "type": "string"
        }
      ],
      "stateMutability": "view",
      "type": "function"
    },
    {
      "inputs": [],
      "name": "timeLockEnabled",
      "outputs": [
        {
          "internalType": "bool",
          "name": "",
          "type": "bool"
        }
      ],
      "stateMutability": "view",
      "type": "function"
    },
    {
      "inputs": [],
      "name": "totalSupply",
      "outputs": [
        {
          "internalType": "uint256",
          "name": "",
          "type": "uint256"
        }
      ],
      "stateMutability": "view",
      "type": "function"
    },
    {
      "inputs": [
        {
          "internalType": "address",
          "name": "to",
          "type": "address"
        },
        {
          "internalType": "uint256",
          "name": "amount",
          "type": "uint256"
        }
      ],
      "name": "transfer",
      "outputs": [
        {
          "internalType": "bool",
          "name": "",
          "type": "bool"
        }
      ],
      "stateMutability": "nonpayable",
      "type": "function"
    },
    {
      "inputs": [
        {
          "internalType": "address",
          "name": "from",
          "type": "address"
        },
        {
          "internalType": "address",
          "name": "to",
          "type": "address"
        },
        {
          "internalType": "uint256",
          "name": "amount",
          "type": "uint256"
        }
      ],
      "name": "transferFrom",
      "outputs": [
        {
          "internalType": "bool",
          "name": "",
          "type": "bool"
        }
      ],
      "stateMutability": "nonpayable",
      "type": "function"
    },
    {
      "inputs": [
        {
          "internalType": "address",
          "name": "newOwner",
          "type": "address"
        }
      ],
      "name": "transferOwnership",
      "outputs": [],
      "stateMutability": "nonpayable",
      "type": "function"
    },
    {
      "inputs": [],
      "name": "uniswapV2Pair",
      "outputs": [
        {
          "internalType": "address",
          "name": "",
          "type": "address"
        }
      ],
      "stateMutability": "view",
      "type": "function"
    },
    {
      "inputs": [],
      "name": "uniswapV2Router",
      "outputs": [
        {
          "internalType": "contract IUniswapV2Router02",
          "name": "",
          "type": "address"
        }
      ],
      "stateMutability": "view",
      "type": "function"
    },
    {
      "inputs": [],
      "name": "unpause",
      "outputs": [],
      "stateMutability": "nonpayable",
      "type": "function"
    }
  ],
  "bytecode": "0x60a034620003e0576001600160401b0390601f90601f1962002da7388190038481018316840186811185821017620003e557849282916040528339602093849181010312620003e057516001600160a01b038082169590949091869003620003e0576200006b620003fb565b916000918284526200007c620003fb565b90838252845191838311620002ec576003928354966001978881811c91168015620003d5575b8b821014620003c1579081858493116200036e575b508a908583116001146200030c57889262000300575b505060001982861b1c191690871b1783555b8051938411620002ec5760049687548781811c91168015620002e1575b8a821014620002ce5790818487969594931162000275575b5089928511600114620002115750859362000205575b505082851b92600019911b1c19161783555b60055490610100600160a81b033360081b1660018060a81b03198316176005557f8be0079c531659141344cd1fd0a4f28419497f9722a3daafe3b4186f6b6457e060405196339360081c169180a36006558315620001c6578360805260405161298b90816200041c82396080518181816116ea0152818161199b01528181611a8a0152611cf60152f35b62461bcd60e51b8352820152601660248201527f496e76616c696420726f75746572206164647265737300000000000000000000604482015260649150fd5b0151915038806200012a565b8887528987208896909493929116875b8b8282106200025e575050851162000243575b50505050811b0183556200013c565b01519060f884600019921b161c191690553880808062000234565b8385015187558a9890960195938401930162000221565b9091929394508887528987208480880160051c8201928c8910620002c4575b918a91899897969594930160051c01915b828110620002b557505062000114565b8981558897508a9101620002a5565b9250819262000294565b634e487b7160e01b875260228952602487fd5b90607f1690620000fc565b634e487b7160e01b85526041600452602485fd5b015190503880620000cd565b908a8a941691878a528c8a20928d8b905b8282106200035657505084116200033d575b505050811b018355620000df565b015160001983881b60f8161c191690553880806200032f565b8385015186558d979095019493840193018e6200031d565b9091508588528a88208580850160051c8201928d8610620003b7575b918b91869594930160051c01915b828110620003a8575050620000b7565b8a81558594508b910162000398565b925081926200038a565b634e487b7160e01b88526022600452602488fd5b90607f1690620000a2565b600080fd5b634e487b7160e01b600052604160045260246000fd5b60405190602082016001600160401b03811183821017620003e55760405256fe608080604052600436101561001357600080fd5b60003560e01c908163048b87ba14611ee55750806306fdde0314611e3d578063095ea7b314611e17578063143b237f14611df4578063153b0d1e14611d255780631694505e14611ce057806318160ddd14611cc257806323b872dd14611c8a578063313ce56714611c6e5780633197cbb614611c5057806337ed2be61461192a57806339509351146118d95780633f4ba83a1461184557806342966c681461182857806342f393811461180a57806349bd5a5e146117e15780634ae01d52146117c357806351c6590a146116b85780635c975abb14611695578063644fab741461158b5780636e1d1e57146113f157806370a0823114611551578063715018a6146114f057806378e97925146114d257806379cc6790146114a25780638456cb591461140f5780638bb1cde9146113f15780638d3d6576146113d35780638da5cb5b146113a6578063906a26e01461138857806395d89b41146112a5578063a457c2d7146111fe578063a9059cbb146111cd578063aaffadf3146111af578063abd653d714611191578063b8caa4aa14611173578063bffb691d14611150578063c64b2f8c146106f6578063cba4cbd3146106d0578063d5abeb01146106b2578063dbed1e881461065f578063dd62ed3e1461060e578063de8af791146105f0578063e12f3a61146105c5578063e74f3fbb146103cd578063f2fde38b1461033e578063fb86a40414610320578063fb897ce4146102925763fe575a871461023a57600080fd5b3461028d57602036600319011261028d57610253611f49565b60ff600854168061026c575b6020906040519015158152f35b5060018060a01b03166000526016602052602060ff6040600020541661025f565b600080fd5b3461028d57602036600319011261028d576001600160a01b036102b3611f49565b16600052601560205260a060406000206080604051916102d283611faf565b80549283815260018201548060208301526002830154918260408201526004600385015494856060840152015494859101526040519485526020850152604084015260608301526080820152f35b3461028d57600036600319011261028d576020600b54604051908152f35b3461028d57602036600319011261028d57610357611f49565b61035f612371565b6001600160a01b0381161561037957610377906128f9565b005b60405162461bcd60e51b815260206004820152602660248201527f4f776e61626c653a206e6577206f776e657220697320746865207a65726f206160448201526564647265737360d01b6064820152608490fd5b3461028d57600036600319011261028d57600260065414610580576002600655336000526015602052604060002080548015610545576002820154610416600484015482612097565b421061050757610426904261208a565b60038301549091908083106104e15750610446915060018301549061208a565b905b811561049c5760010161045c828254612097565b9055610469813330612464565b6040519081527f896e034966eaaf1adc54acc0f257056febbd300c9e47182cf761982cf1f5e43060203392a26001600655005b60405162461bcd60e51b815260206004820152601c60248201527f4e6f20746f6b656e7320617661696c61626c6520746f20636c61696d000000006044820152606490fd5b6104f1610501936104f6936120ff565b612112565b60018301549061208a565b90610448565b60405162461bcd60e51b815260206004820152601660248201527510db1a5999881c195c9a5bd9081b9bdd08195b99195960521b6044820152606490fd5b60405162461bcd60e51b81526020600482015260136024820152724e6f2076657374696e67207363686564756c6560681b6044820152606490fd5b60405162461bcd60e51b815260206004820152601f60248201527f5265656e7472616e637947756172643a207265656e7472616e742063616c6c006044820152606490fd5b3461028d57602036600319011261028d5760206105e86105e3611f49565b6121a2565b604051908152f35b3461028d57600036600319011261028d576020601054604051908152f35b3461028d57604036600319011261028d57610627611f49565b61062f611f5f565b9060018060a01b038091166000526001602052604060002091166000526020526020604060002054604051908152f35b3461028d57602036600319011261028d57610678611f49565b60ff60085460081c166000146106a85760018060a01b031660005260176020526020604060002054604051908152f35b50602060006105e8565b3461028d57600036600319011261028d576020600754604051908152f35b3461028d57600036600319011261028d57602060ff60085460081c166040519015158152f35b60031960203682011261028d576004359067ffffffffffffffff9081831161028d5761028090833603011261028d576002546111155761073960048301806120bf565b8281949294116110ff5761074e601954611f75565b90601f9182811161109d575b50600082821160011461101857819293949560009261100d575b50508160011b916000199060031b1c1916176019555b60249061079c828401846004016120bf565b90948111610ff8576107af601a54611f75565b828111610f96575b506000828211600114610f11578192939495600092610f06575b50508160011b916000199060031b1c191617601a555b606490818401356007556107fd60a485016120f2565b1515906008549160ff809116928361ff0061081a60c48a016120f2565b151560081b169161ffff19161717908160085560e4870135600955610104870135600a55610124870135600b55610144870135600c55610164870135600d55610184870135600e556101a4870135600f556101c487013591826010556101e488013590816011556102048901356012556102448901356013556108a06102648a016120f2565b15158360ff1960145416911617601455604495868a0135953015610ec557508360055416610e70578792918491610df8575b60081c16610d82575b6108e785600254612097565b600255306000526000602052604060002085815401905560405185815260007fddf252ad1be2c89b69c2b068fc378daa952ba7f163c4a11628f55a4df523b3ef60203093a3849360009360145416610d54575b50610963929161094d61095d92876120ff565b04809281601b5581601c55612097565b9261208a565b50610975610224870187600401612132565b90506109ea575b03610995576103776109906084860161218e565b6128f9565b608492917f546f74616c20616c6c6f636174696f6e206d75737420657175616c20696e69746969616c20737570706c7960b01b92602a6040519562461bcd60e51b875260206004880152860152840152820152fd5b949260009491945b610a03610224860186600401612132565b9050811015610d4957610a4082610a386020610a3085610a2a6102248c018c600401612132565b90612168565b0135896120ff565b048098612097565b96868811610cf75781610a74610a6f610a606102248a018a600401612132565b6001600160a01b039491612168565b61218e565b1615610cbc57610a9a6040610a9484610a2a6102248b018b600401612132565b016120f2565b15610c18579060019160a0610aba83610a2a6102248b018b600401612132565b013560046060610ad485610a2a6102248d018d8601612132565b01356080610aec86610a2a6102248e01868f01612132565b01359060405193610afc85611faf565b8585528b87610b44610a6f610b3560208a01946000865260408b0196875260608b0197885260808b019889526102248101908a01612132565b8d8060a09693961b0394612168565b1660005260156020526040600020955186555188860155516002850155516003840155519101557f47d46f58c7d60d60571092cff5715b8c8c5bc1347db2bb9890e639bf3680ba7b6080610ba6610a6f85610a2a6102248d018d600401612132565b60a0610bbd86610a2a6102248e0160048f01612132565b01358a83610bf088610a2a6060610bdf83610a2a610224890189600401612132565b013594610224810190600401612132565b013591604051968752602087015260408601526060850152858060a01b031692a25b016109f2565b610c30610a6f83610a2a6102248a018a600401612132565b6001600160a01b03811691908215610c8157602082610c7560019695947f896e034966eaaf1adc54acc0f257056febbd300c9e47182cf761982cf1f5e4309430612464565b604051908152a2610c12565b60405162461bcd60e51b8152602060048201526016818801527516995c9bc81859191c995cdcc81c9958da5c1a595b9d60521b818901528590fd5b60405162461bcd60e51b81526020600482015260168186015275496e76616c69642077616c6c6574206164647265737360501b818701528390fd5b60405162461bcd60e51b8152602060048201526027818601527f546f74616c20616c6c6f636174696f6e206578636565647320696e697469616c818701526620737570706c7960c81b81850152608490fd5b50929493909361097c565b610d659194506109639350856120ff565b0461095d8661094d610d77848861208a565b95925050919261093a565b6000805260176020527fd840e16649f6b9a295d95876f4633d3a6b10b55e8162971cf78afd886d5ec89b549091504210610dbd5785906108db565b60405162461bcd60e51b81526020600482015260168189015275151bdad95b9cc8185c99481d1a5b594b5b1bd8dad95960521b818701528690fd5b9192505060008052601660205282604060002054161580610e5d575b15610e2257908287926108d2565b60405162461bcd60e51b8152602060048201526016818a0152751059191c995cdcc81a5cc8189b1858dadb1a5cdd195960521b818801528790fd5b5030600052826040600020541615610e14565b60405162461bcd60e51b815260206004820152602a818b01527f45524332305061757361626c653a20746f6b656e207472616e7366657220776881890152691a5b19481c185d5cd95960b21b818a0152608490fd5b897f45524332303a206d696e7420746f20746865207a65726f206164647265737300898b936040519362461bcd60e51b855260206004860152840152820152fd5b0135905085806107d1565b601f19821695601a6000527f057c384a7d1c54f3a1b2e5e67b2617b8224fdfd1ea7234eea573a6ff665ff63e9160005b888110610f7e57508360019596979810610f64575b505050811b01601a556107e7565b0135600019600384901b60f8161c19169055858080610f56565b90926020600181928686013581550194019101610f41565b601a6000527f057c384a7d1c54f3a1b2e5e67b2617b8224fdfd1ea7234eea573a6ff665ff63e8380840160051c82019260208510610fef575b0160051c01905b818110610fe357506107b7565b60008155600101610fd6565b92508192610fcf565b82634e487b7160e01b60005260416004526000fd5b013590508580610774565b601f1982169560196000527f944998273e477b495144fb8794c914197f3ccb46be2900f4698fd0ef743c96959160005b8881106110855750836001959697981061106b575b505050811b0160195561078a565b0135600019600384901b60f8161c1916905585808061105d565b90926020600181928686013581550194019101611048565b60196000527f944998273e477b495144fb8794c914197f3ccb46be2900f4698fd0ef743c96958380840160051c820192602085106110f6575b0160051c01905b8181106110ea575061075a565b600081556001016110dd565b925081926110d6565b634e487b7160e01b600052604160045260246000fd5b60405162461bcd60e51b8152602060048201526013602482015272105b1c9958591e481a5b9a5d1a585b1a5e9959606a1b6044820152606490fd5b3461028d57600036600319011261028d57602060ff600854166040519015158152f35b3461028d57600036600319011261028d576020601354604051908152f35b3461028d57600036600319011261028d576020601b54604051908152f35b3461028d57600036600319011261028d576020600c54604051908152f35b3461028d57604036600319011261028d576111f36111e9611f49565b6024359033612464565b602060405160018152f35b3461028d57604036600319011261028d57611217611f49565b60243590336000526001602052604060002060018060a01b03821660005260205260406000205491808310611252576111f39203903361226f565b60405162461bcd60e51b815260206004820152602560248201527f45524332303a2064656372656173656420616c6c6f77616e63652062656c6f77604482015264207a65726f60d81b6064820152608490fd5b3461028d57600036600319011261028d576040516000601a546112c781611f75565b8084529060209060019081811690811561135e5750600114611304575b611300856112f481870382611fcb565b60405191829182611f00565b0390f35b601a600090815293507f057c384a7d1c54f3a1b2e5e67b2617b8224fdfd1ea7234eea573a6ff665ff63e5b83851061134b575050505081016020016112f4826113006112e4565b805486860184015293820193810161132f565b869550611300969350602092506112f494915060ff191682840152151560051b82010192936112e4565b3461028d57600036600319011261028d576020600a54604051908152f35b3461028d57600036600319011261028d5760055460405160089190911c6001600160a01b03168152602090f35b3461028d57600036600319011261028d576020600d54604051908152f35b3461028d57600036600319011261028d576020601c54604051908152f35b3461028d57600036600319011261028d57611428612371565b60055460ff811661146a5760019060ff1916176005557f62e78cea01bee320cd4e420270b5ea74000d11b0c9f74754ebdbfc544b05a2586020604051338152a1005b60405162461bcd60e51b815260206004820152601060248201526f14185d5cd8589b194e881c185d5cd95960821b6044820152606490fd5b3461028d57604036600319011261028d576103776114be611f49565b602435906114cd8233836123cc565b61270e565b3461028d57600036600319011261028d576020600e54604051908152f35b3461028d57600036600319011261028d57611509612371565b60058054610100600160a81b0319811690915560009060081c6001600160a01b03167f8be0079c531659141344cd1fd0a4f28419497f9722a3daafe3b4186f6b6457e08280a3005b3461028d57602036600319011261028d576001600160a01b03611572611f49565b1660005260006020526020604060002054604051908152f35b3461028d57604036600319011261028d576115a4611f49565b602435906115b0612371565b60ff60085460081c1615611650574282111561160b5760207fa9353e70f07f31e7f4e16464f45e189cbd22826780a5abe4da8303652a86960a9160018060a01b031692836000526017825280604060002055604051908152a2005b60405162461bcd60e51b815260206004820152601d60248201527f556e6c6f636b2074696d65206d75737420626520696e206675747572650000006044820152606490fd5b60405162461bcd60e51b815260206004820152601860248201527f54696d65206c6f636b206973206e6f7420656e61626c656400000000000000006044820152606490fd5b3461028d57600036600319011261028d57602060ff600554166040519015158152f35b602036600319011261028d576004356116d2341515611fed565b6116dd811515612029565b6116e8813033612464565b7f00000000000000000000000000000000000000000000000000000000000000006001600160a01b03169061171e81833061226f565b61012c42018042116117ad5760405163f305d71960e01b81523060048201526024810192909252600060448301819052606483015233608483015260a482015290606090829060c490829034905af180156117a15761177957005b6103779060603d60601161179a575b6117928183611fcb565b8101906120a4565b503d611788565b6040513d6000823e3d90fd5b634e487b7160e01b600052601160045260246000fd5b3461028d57600036600319011261028d576020601254604051908152f35b3461028d57600036600319011261028d576018546040516001600160a01b039091168152602090f35b3461028d57600036600319011261028d576020600954604051908152f35b3461028d57602036600319011261028d576103776004353361270e565b3461028d57600036600319011261028d5761185e612371565b60055460ff81161561189d5760ff19166005557f5db9ee0a495bf2e6ff9c91a7834c1ba4fdd244a5e8aa4e537bd38aeae4b073aa6020604051338152a1005b60405162461bcd60e51b815260206004820152601460248201527314185d5cd8589b194e881b9bdd081c185d5cd95960621b6044820152606490fd5b3461028d57604036600319011261028d576111f36118f5611f49565b336000526001602052604060002060018060a01b038216600052602052611923602435604060002054612097565b903361226f565b60208060031936011261028d57600435611942612371565b61194d341515611fed565b611958811515612029565b601c548111611bf55730600052600082528060406000205410611bb0576018546001600160a01b0390811615611a7b575b61199582601c5461208a565b601c55807f000000000000000000000000000000000000000000000000000000000000000016916119c781843061226f565b61012c4201928342116117ad5760405163f305d71960e01b815230600482015260248101839052600060448201819052606482015233608482015260a4810194909452606090849060c490829034905af19182156117a1577fac1d76749e5447b7b16f5ab61447e1bd502f3bb4807af3b28e620d1700a6ee4593604093611a5c575b50601854169382519182523490820152a2005b611a749060603d60601161179a576117928183611fcb565b5050611a49565b60405163c45a015560e01b81527f00000000000000000000000000000000000000000000000000000000000000008216908481600481855afa9081156117a1578590600092611b90575b506040516315ab88c960e31b81529192829060049082905afa80156117a157604484918793600091611b73575b5060008360405196879586946364e329cb60e11b8652306004870152166024850152165af180156117a1578291600091611b46575b50166bffffffffffffffffffffffff60a01b6018541617601855611989565b611b669150853d8711611b6c575b611b5e8183611fcb565b81019061206b565b85611b27565b503d611b54565b611b8a9150843d8611611b6c57611b5e8183611fcb565b88611af2565b60049250611baa90823d8411611b6c57611b5e8183611fcb565b91611ac5565b60405162461bcd60e51b815260048101839052601d60248201527f496e73756666696369656e7420636f6e74726163742062616c616e63650000006044820152606490fd5b60405162461bcd60e51b815260048101839052602d60248201527f416d6f756e7420657863656564732072656d61696e696e67206c69717569646960448201526c3a3c9030b63637b1b0ba34b7b760991b6064820152608490fd5b3461028d57600036600319011261028d576020600f54604051908152f35b3461028d57600036600319011261028d57602060405160128152f35b3461028d57606036600319011261028d576111f3611ca6611f49565b611cae611f5f565b60443591611cbd8333836123cc565b612464565b3461028d57600036600319011261028d576020600254604051908152f35b3461028d57600036600319011261028d576040517f00000000000000000000000000000000000000000000000000000000000000006001600160a01b03168152602090f35b3461028d57604036600319011261028d57611d3e611f49565b6024359081151580920361028d57611d54612371565b60ff6008541615611daf5760207f6a12b3df6cba4203bd7fd06b816789f87de8c594299aed5717ae070fac781bac9160018060a01b0316928360005260168252604060002060ff1981541660ff8316179055604051908152a2005b60405162461bcd60e51b815260206004820152601860248201527f426c61636b6c697374206973206e6f7420656e61626c656400000000000000006044820152606490fd5b3461028d57600036600319011261028d57602060ff601454166040519015158152f35b3461028d57604036600319011261028d576111f3611e33611f49565b602435903361226f565b3461028d57600036600319011261028d576040516000601954611e5f81611f75565b8084529060209060019081811690811561135e5750600114611e8b57611300856112f481870382611fcb565b6019600090815293507f944998273e477b495144fb8794c914197f3ccb46be2900f4698fd0ef743c96955b838510611ed2575050505081016020016112f4826113006112e4565b8054868601840152938201938101611eb6565b3461028d57600036600319011261028d576020906011548152f35b6020808252825181830181905290939260005b828110611f3557505060409293506000838284010152601f8019910116010190565b818101860151848201604001528501611f13565b600435906001600160a01b038216820361028d57565b602435906001600160a01b038216820361028d57565b90600182811c92168015611fa5575b6020831014611f8f57565b634e487b7160e01b600052602260045260246000fd5b91607f1691611f84565b60a0810190811067ffffffffffffffff8211176110ff57604052565b90601f8019910116810190811067ffffffffffffffff8211176110ff57604052565b15611ff457565b60405162461bcd60e51b815260206004820152600d60248201526c09aeae6e840e6cadcc8408aa89609b1b6044820152606490fd5b1561203057565b60405162461bcd60e51b81526020600482015260136024820152724d7573742070726f7669646520746f6b656e7360681b6044820152606490fd5b9081602091031261028d57516001600160a01b038116810361028d5790565b919082039182116117ad57565b919082018092116117ad57565b9081606091031261028d578051916040602083015192015190565b903590601e198136030182121561028d570180359067ffffffffffffffff821161028d5760200191813603831361028d57565b35801515810361028d5790565b818102929181159184041417156117ad57565b811561211c570490565b634e487b7160e01b600052601260045260246000fd5b903590601e198136030182121561028d570180359067ffffffffffffffff821161028d576020019160c082023603831361028d57565b91908110156121785760c0020190565b634e487b7160e01b600052603260045260246000fd5b356001600160a01b038116810361028d5790565b60018060a01b031660005260156020526040600020604051906121c482611faf565b80549081835260018101549160208401928352600282015460408501918183526004600385015494606088019586520154908160808801521591821561225c575b50506122535761221690514261208a565b815181101561224457906122316122399261224195516120ff565b905190612112565b90519061208a565b90565b5050612241915190519061208a565b50505050600090565b6122669250612097565b42103880612205565b6001600160a01b0390811691821561232057169182156122d05760207f8c5be1e5ebec7d5bd14f71427d1e84f3dd0314c0f7b2291e5b200ac8c7c3b925918360005260018252604060002085600052825280604060002055604051908152a3565b60405162461bcd60e51b815260206004820152602260248201527f45524332303a20617070726f766520746f20746865207a65726f206164647265604482015261737360f01b6064820152608490fd5b60405162461bcd60e51b8152602060048201526024808201527f45524332303a20617070726f76652066726f6d20746865207a65726f206164646044820152637265737360e01b6064820152608490fd5b60055460081c6001600160a01b0316330361238857565b606460405162461bcd60e51b815260206004820152602060248201527f4f776e61626c653a2063616c6c6572206973206e6f7420746865206f776e65726044820152fd5b9060018060a01b0380831660005260016020526040600020908216600052602052604060002054926000198403612404575b50505050565b80841061241f5761241693039161226f565b388080806123fe565b60405162461bcd60e51b815260206004820152601d60248201527f45524332303a20696e73756666696369656e7420616c6c6f77616e63650000006044820152606490fd5b6001600160a01b039081169182156126bb571691821561266a5760ff600554166126125760085460ff81166125a3575b60081c60ff1661254f575b6000828152806020526040812054918083106124fb57604082827fddf252ad1be2c89b69c2b068fc378daa952ba7f163c4a11628f55a4df523b3ef958760209652828652038282205586815220818154019055604051908152a3565b60405162461bcd60e51b815260206004820152602660248201527f45524332303a207472616e7366657220616d6f756e7420657863656564732062604482015265616c616e636560d01b6064820152608490fd5b81600052601760205260406000205442101561249f5760405162461bcd60e51b8152602060048201526016602482015275151bdad95b9cc8185c99481d1a5b594b5b1bd8dad95960521b6044820152606490fd5b82600052601660205260ff6040600020541615806125fe575b6124945760405162461bcd60e51b81526020600482015260166024820152751059191c995cdcc81a5cc8189b1858dadb1a5cdd195960521b6044820152606490fd5b508360005260ff60406000205416156125bc565b60405162461bcd60e51b815260206004820152602a60248201527f45524332305061757361626c653a20746f6b656e207472616e736665722077686044820152691a5b19481c185d5cd95960b21b6064820152608490fd5b60405162461bcd60e51b815260206004820152602360248201527f45524332303a207472616e7366657220746f20746865207a65726f206164647260448201526265737360e81b6064820152608490fd5b60405162461bcd60e51b815260206004820152602560248201527f45524332303a207472616e736665722066726f6d20746865207a65726f206164604482015264647265737360d81b6064820152608490fd5b6001600160a01b031680156128aa5760ff600554166126125760085460ff811661283b575b60081c60ff166127e7575b60009181835282602052604083205481811061279757817fddf252ad1be2c89b69c2b068fc378daa952ba7f163c4a11628f55a4df523b3ef926020928587528684520360408620558060025403600255604051908152a3565b60405162461bcd60e51b815260206004820152602260248201527f45524332303a206275726e20616d6f756e7420657863656564732062616c616e604482015261636560f01b6064820152608490fd5b80600052601760205260406000205442101561273e5760405162461bcd60e51b8152602060048201526016602482015275151bdad95b9cc8185c99481d1a5b594b5b1bd8dad95960521b6044820152606490fd5b81600052601660205260ff604060002054161580612896575b6127335760405162461bcd60e51b81526020600482015260166024820152751059191c995cdcc81a5cc8189b1858dadb1a5cdd195960521b6044820152606490fd5b506000805260ff6040600020541615612854565b60405162461bcd60e51b815260206004820152602160248201527f45524332303a206275726e2066726f6d20746865207a65726f206164647265736044820152607360f81b6064820152608490fd5b60058054610100600160a81b03198116600884811b610100600160a81b0316919091179092556001600160a01b0392831692911c167f8be0079c531659141344cd1fd0a4f28419497f9722a3daafe3b4186f6b6457e0600080a356fea26469706673582212206e03eccee1d62134ba9285be48d96d9e9fef03b2734f68b4c4f84fd2b5ff06cf64736f6c63430008160033",
  "linkReferences": {},
  "deployedLinkReferences": {}
}