{
  "_format": "hh-sol-artifact-1",
  "contractName": "TokenTemplate_v3",
  "sourceName": "src/contracts/TokenTemplate_v3.sol",
  "abi": [
    {
      "anonymous": false,
      "inputs": [
        {
          "indexed": false,
          "internalType": "address",
          "name": "previousAdmin",
          "type": "address"
        },
        {
          "indexed": false,
          "internalType": "address",
          "name": "newAdmin",
          "type": "address"
        }
      ],
      "name": "AdminChanged",
      "type": "event"
    },
    {
      "anonymous": false,
      "inputs": [
        {
          "indexed": true,
          "internalType": "address",
          "name": "owner",
          "type": "address"
        },
        {
          "indexed": true,
          "internalType": "address",
          "name": "spender",
          "type": "address"
        },
        {
          "indexed": false,
          "internalType": "uint256",
          "name": "value",
          "type": "uint256"
        }
      ],
      "name": "Approval",
      "type": "event"
    },
    {
      "anonymous": false,
      "inputs": [
        {
          "indexed": true,
          "internalType": "address",
          "name": "beacon",
          "type": "address"
        }
      ],
      "name": "BeaconUpgraded",
      "type": "event"
    },
    {
      "anonymous": false,
      "inputs": [
        {
          "indexed": true,
          "internalType": "address",
          "name": "account",
          "type": "address"
        },
        {
          "indexed": false,
          "internalType": "bool",
          "name": "blacklisted",
          "type": "bool"
        }
      ],
      "name": "BlacklistUpdated",
      "type": "event"
    },
    {
      "anonymous": false,
      "inputs": [
        {
          "indexed": false,
          "internalType": "string",
          "name": "message",
          "type": "string"
        },
        {
          "indexed": false,
          "internalType": "uint256",
          "name": "value",
          "type": "uint256"
        }
      ],
      "name": "DebugAllocation",
      "type": "event"
    },
    {
      "anonymous": false,
      "inputs": [
        {
          "indexed": false,
          "internalType": "string",
          "name": "message",
          "type": "string"
        },
        {
          "indexed": false,
          "internalType": "uint256",
          "name": "value",
          "type": "uint256"
        }
      ],
      "name": "DebugInit",
      "type": "event"
    },
    {
      "anonymous": false,
      "inputs": [
        {
          "indexed": false,
          "internalType": "string",
          "name": "step",
          "type": "string"
        },
        {
          "indexed": false,
          "internalType": "address",
          "name": "value",
          "type": "address"
        }
      ],
      "name": "DebugInitAddress",
      "type": "event"
    },
    {
      "anonymous": false,
      "inputs": [
        {
          "indexed": false,
          "internalType": "string",
          "name": "step",
          "type": "string"
        },
        {
          "indexed": false,
          "internalType": "string",
          "name": "message",
          "type": "string"
        }
      ],
      "name": "DebugInitStep",
      "type": "event"
    },
    {
      "anonymous": false,
      "inputs": [
        {
          "indexed": false,
          "internalType": "string",
          "name": "message",
          "type": "string"
        },
        {
          "indexed": false,
          "internalType": "string",
          "name": "value",
          "type": "string"
        }
      ],
      "name": "DebugInitString",
      "type": "event"
    },
    {
      "anonymous": false,
      "inputs": [
        {
          "indexed": false,
          "internalType": "string",
          "name": "step",
          "type": "string"
        },
        {
          "indexed": false,
          "internalType": "uint256",
          "name": "value",
          "type": "uint256"
        }
      ],
      "name": "DebugInitValue",
      "type": "event"
    },
    {
      "anonymous": false,
      "inputs": [
        {
          "indexed": false,
          "internalType": "string",
          "name": "message",
          "type": "string"
        },
        {
          "indexed": false,
          "internalType": "uint256",
          "name": "presaleTokens",
          "type": "uint256"
        },
        {
          "indexed": false,
          "internalType": "uint256",
          "name": "presaleRate",
          "type": "uint256"
        },
        {
          "indexed": false,
          "internalType": "uint256",
          "name": "requiredCap",
          "type": "uint256"
        },
        {
          "indexed": false,
          "internalType": "uint256",
          "name": "providedCap",
          "type": "uint256"
        }
      ],
      "name": "DebugPresale",
      "type": "event"
    },
    {
      "anonymous": false,
      "inputs": [
        {
          "indexed": false,
          "internalType": "uint8",
          "name": "version",
          "type": "uint8"
        }
      ],
      "name": "Initialized",
      "type": "event"
    },
    {
      "anonymous": false,
      "inputs": [
        {
          "indexed": false,
          "internalType": "uint256",
          "name": "amount",
          "type": "uint256"
        },
        {
          "indexed": false,
          "internalType": "uint256",
          "name": "unlockTime",
          "type": "uint256"
        }
      ],
      "name": "LiquidityLocked",
      "type": "event"
    },
    {
      "anonymous": false,
      "inputs": [
        {
          "indexed": false,
          "internalType": "uint256",
          "name": "amount",
          "type": "uint256"
        }
      ],
      "name": "LiquidityUnlocked",
      "type": "event"
    },
    {
      "anonymous": false,
      "inputs": [
        {
          "indexed": true,
          "internalType": "address",
          "name": "previousOwner",
          "type": "address"
        },
        {
          "indexed": true,
          "internalType": "address",
          "name": "newOwner",
          "type": "address"
        }
      ],
      "name": "OwnershipTransferred",
      "type": "event"
    },
    {
      "anonymous": false,
      "inputs": [
        {
          "indexed": true,
          "internalType": "address",
          "name": "contributor",
          "type": "address"
        },
        {
          "indexed": false,
          "internalType": "uint256",
          "name": "amount",
          "type": "uint256"
        }
      ],
      "name": "PresaleContribution",
      "type": "event"
    },
    {
      "anonymous": false,
      "inputs": [
        {
          "indexed": false,
          "internalType": "uint256",
          "name": "totalRaised",
          "type": "uint256"
        },
        {
          "indexed": false,
          "internalType": "uint256",
          "name": "totalTokensSold",
          "type": "uint256"
        }
      ],
      "name": "PresaleFinalized",
      "type": "event"
    },
    {
      "anonymous": false,
      "inputs": [
        {
          "indexed": true,
          "internalType": "address",
          "name": "account",
          "type": "address"
        },
        {
          "indexed": false,
          "internalType": "uint256",
          "name": "duration",
          "type": "uint256"
        }
      ],
      "name": "TimeLockSet",
      "type": "event"
    },
    {
      "anonymous": false,
      "inputs": [
        {
          "indexed": true,
          "internalType": "address",
          "name": "beneficiary",
          "type": "address"
        },
        {
          "indexed": false,
          "internalType": "uint256",
          "name": "amount",
          "type": "uint256"
        }
      ],
      "name": "TokensVested",
      "type": "event"
    },
    {
      "anonymous": false,
      "inputs": [
        {
          "indexed": true,
          "internalType": "address",
          "name": "from",
          "type": "address"
        },
        {
          "indexed": true,
          "internalType": "address",
          "name": "to",
          "type": "address"
        },
        {
          "indexed": false,
          "internalType": "uint256",
          "name": "value",
          "type": "uint256"
        }
      ],
      "name": "Transfer",
      "type": "event"
    },
    {
      "anonymous": false,
      "inputs": [
        {
          "indexed": true,
          "internalType": "address",
          "name": "implementation",
          "type": "address"
        }
      ],
      "name": "Upgraded",
      "type": "event"
    },
    {
      "anonymous": false,
      "inputs": [
        {
          "indexed": false,
          "internalType": "string",
          "name": "walletName",
          "type": "string"
        },
        {
          "indexed": true,
          "internalType": "address",
          "name": "beneficiary",
          "type": "address"
        },
        {
          "indexed": false,
          "internalType": "uint256",
          "name": "amount",
          "type": "uint256"
        },
        {
          "indexed": false,
          "internalType": "uint256",
          "name": "period",
          "type": "uint256"
        }
      ],
      "name": "VestingScheduleAdded",
      "type": "event"
    },
    {
      "anonymous": false,
      "inputs": [
        {
          "indexed": true,
          "internalType": "address",
          "name": "beneficiary",
          "type": "address"
        },
        {
          "indexed": false,
          "internalType": "uint256",
          "name": "scheduleIndex",
          "type": "uint256"
        },
        {
          "indexed": false,
          "internalType": "uint256",
          "name": "amount",
          "type": "uint256"
        }
      ],
      "name": "VestingTokensClaimed",
      "type": "event"
    },
    {
      "inputs": [
        {
          "internalType": "string",
          "name": "walletName",
          "type": "string"
        },
        {
          "internalType": "uint256",
          "name": "amount",
          "type": "uint256"
        },
        {
          "internalType": "uint256",
          "name": "period",
          "type": "uint256"
        },
        {
          "internalType": "address",
          "name": "beneficiary",
          "type": "address"
        }
      ],
      "name": "addVestingSchedule",
      "outputs": [],
      "stateMutability": "nonpayable",
      "type": "function"
    },
    {
      "inputs": [
        {
          "internalType": "address",
          "name": "owner",
          "type": "address"
        },
        {
          "internalType": "address",
          "name": "spender",
          "type": "address"
        }
      ],
      "name": "allowance",
      "outputs": [
        {
          "internalType": "uint256",
          "name": "",
          "type": "uint256"
        }
      ],
      "stateMutability": "view",
      "type": "function"
    },
    {
      "inputs": [
        {
          "internalType": "address",
          "name": "spender",
          "type": "address"
        },
        {
          "internalType": "uint256",
          "name": "amount",
          "type": "uint256"
        }
      ],
      "name": "approve",
      "outputs": [
        {
          "internalType": "bool",
          "name": "",
          "type": "bool"
        }
      ],
      "stateMutability": "nonpayable",
      "type": "function"
    },
    {
      "inputs": [
        {
          "internalType": "address",
          "name": "account",
          "type": "address"
        }
      ],
      "name": "balanceOf",
      "outputs": [
        {
          "internalType": "uint256",
          "name": "",
          "type": "uint256"
        }
      ],
      "stateMutability": "view",
      "type": "function"
    },
    {
      "inputs": [],
      "name": "blacklistEnabled",
      "outputs": [
        {
          "internalType": "bool",
          "name": "",
          "type": "bool"
        }
      ],
      "stateMutability": "view",
      "type": "function"
    },
    {
      "inputs": [
        {
          "internalType": "address",
          "name": "",
          "type": "address"
        }
      ],
      "name": "blacklisted",
      "outputs": [
        {
          "internalType": "bool",
          "name": "",
          "type": "bool"
        }
      ],
      "stateMutability": "view",
      "type": "function"
    },
    {
      "inputs": [],
      "name": "claimPlatformFeeTokens",
      "outputs": [],
      "stateMutability": "nonpayable",
      "type": "function"
    },
    {
      "inputs": [
        {
          "internalType": "uint256",
          "name": "scheduleIndex",
          "type": "uint256"
        }
      ],
      "name": "claimVestedTokens",
      "outputs": [],
      "stateMutability": "nonpayable",
      "type": "function"
    },
    {
      "inputs": [],
      "name": "contribute",
      "outputs": [],
      "stateMutability": "payable",
      "type": "function"
    },
    {
      "inputs": [
        {
          "internalType": "address",
          "name": "",
          "type": "address"
        }
      ],
      "name": "contributions",
      "outputs": [
        {
          "internalType": "uint256",
          "name": "",
          "type": "uint256"
        }
      ],
      "stateMutability": "view",
      "type": "function"
    },
    {
      "inputs": [],
      "name": "decimals",
      "outputs": [
        {
          "internalType": "uint8",
          "name": "",
          "type": "uint8"
        }
      ],
      "stateMutability": "view",
      "type": "function"
    },
    {
      "inputs": [
        {
          "internalType": "address",
          "name": "spender",
          "type": "address"
        },
        {
          "internalType": "uint256",
          "name": "subtractedValue",
          "type": "uint256"
        }
      ],
      "name": "decreaseAllowance",
      "outputs": [
        {
          "internalType": "bool",
          "name": "",
          "type": "bool"
        }
      ],
      "stateMutability": "nonpayable",
      "type": "function"
    },
    {
      "inputs": [],
      "name": "developmentAllocation",
      "outputs": [
        {
          "internalType": "uint256",
          "name": "",
          "type": "uint256"
        }
      ],
      "stateMutability": "view",
      "type": "function"
    },
    {
      "inputs": [],
      "name": "finalizePresale",
      "outputs": [],
      "stateMutability": "nonpayable",
      "type": "function"
    },
    {
      "inputs": [
        {
          "internalType": "uint256",
          "name": "scheduleIndex",
          "type": "uint256"
        }
      ],
      "name": "getClaimableAmount",
      "outputs": [
        {
          "internalType": "uint256",
          "name": "",
          "type": "uint256"
        }
      ],
      "stateMutability": "view",
      "type": "function"
    },
    {
      "inputs": [
        {
          "internalType": "uint256",
          "name": "index",
          "type": "uint256"
        }
      ],
      "name": "getVestingSchedule",
      "outputs": [
        {
          "internalType": "string",
          "name": "walletName",
          "type": "string"
        },
        {
          "internalType": "uint256",
          "name": "amount",
          "type": "uint256"
        },
        {
          "internalType": "uint256",
          "name": "period",
          "type": "uint256"
        },
        {
          "internalType": "address",
          "name": "beneficiary",
          "type": "address"
        },
        {
          "internalType": "uint256",
          "name": "claimed",
          "type": "uint256"
        },
        {
          "internalType": "uint256",
          "name": "startTime",
          "type": "uint256"
        }
      ],
      "stateMutability": "view",
      "type": "function"
    },
    {
      "inputs": [],
      "name": "getVestingSchedulesCount",
      "outputs": [
        {
          "internalType": "uint256",
          "name": "",
          "type": "uint256"
        }
      ],
      "stateMutability": "view",
      "type": "function"
    },
    {
      "inputs": [
        {
          "internalType": "address",
          "name": "spender",
          "type": "address"
        },
        {
          "internalType": "uint256",
          "name": "addedValue",
          "type": "uint256"
        }
      ],
      "name": "increaseAllowance",
      "outputs": [
        {
          "internalType": "bool",
          "name": "",
          "type": "bool"
        }
      ],
      "stateMutability": "nonpayable",
      "type": "function"
    },
    {
      "inputs": [
        {
          "components": [
            {
              "internalType": "string",
              "name": "name",
              "type": "string"
            },
            {
              "internalType": "string",
              "name": "symbol",
              "type": "string"
            },
            {
              "internalType": "uint256",
              "name": "initialSupply",
              "type": "uint256"
            },
            {
              "internalType": "uint256",
              "name": "maxSupply",
              "type": "uint256"
            },
            {
              "internalType": "address",
              "name": "owner",
              "type": "address"
            },
            {
              "internalType": "bool",
              "name": "enableBlacklist",
              "type": "bool"
            },
            {
              "internalType": "bool",
              "name": "enableTimeLock",
              "type": "bool"
            },
            {
              "internalType": "uint256",
              "name": "tokensPerEth",
              "type": "uint256"
            },
            {
              "internalType": "uint256",
              "name": "minContribution",
              "type": "uint256"
            },
            {
              "internalType": "uint256",
              "name": "maxContribution",
              "type": "uint256"
            },
            {
              "internalType": "uint256",
              "name": "presaleCap",
              "type": "uint256"
            },
            {
              "internalType": "uint256",
              "name": "startTime",
              "type": "uint256"
            },
            {
              "internalType": "uint256",
              "name": "endTime",
              "type": "uint256"
            },
            {
              "internalType": "uint256",
              "name": "liquidityPercentage",
              "type": "uint256"
            },
            {
              "internalType": "uint256",
              "name": "liquidityLockDuration",
              "type": "uint256"
            },
            {
              "internalType": "address",
              "name": "platformFeeRecipient",
              "type": "address"
            },
            {
              "internalType": "uint256",
              "name": "platformFeeTokens",
              "type": "uint256"
            },
            {
              "internalType": "bool",
              "name": "platformFeeVestingEnabled",
              "type": "bool"
            },
            {
              "internalType": "uint256",
              "name": "platformFeeVestingDuration",
              "type": "uint256"
            },
            {
              "internalType": "uint256",
              "name": "platformFeeCliffDuration",
              "type": "uint256"
            },
            {
              "internalType": "uint256",
              "name": "teamPercentage",
              "type": "uint256"
            },
            {
              "internalType": "uint256",
              "name": "marketingPercentage",
              "type": "uint256"
            },
            {
              "internalType": "uint256",
              "name": "developmentPercentage",
              "type": "uint256"
            },
            {
              "internalType": "uint256",
              "name": "presalePercentage",
              "type": "uint256"
            }
          ],
          "internalType": "struct TokenTemplate_v3.InitParams",
          "name": "params",
          "type": "tuple"
        }
      ],
      "name": "initialize",
      "outputs": [],
      "stateMutability": "nonpayable",
      "type": "function"
    },
    {
      "inputs": [],
      "name": "liquidityInfo",
      "outputs": [
        {
          "internalType": "uint256",
          "name": "percentage",
          "type": "uint256"
        },
        {
          "internalType": "uint256",
          "name": "lockDuration",
          "type": "uint256"
        },
        {
          "internalType": "uint256",
          "name": "unlockTime",
          "type": "uint256"
        },
        {
          "internalType": "bool",
          "name": "locked",
          "type": "bool"
        }
      ],
      "stateMutability": "view",
      "type": "function"
    },
    {
      "inputs": [],
      "name": "marketingAllocation",
      "outputs": [
        {
          "internalType": "uint256",
          "name": "",
          "type": "uint256"
        }
      ],
      "stateMutability": "view",
      "type": "function"
    },
    {
      "inputs": [],
      "name": "maxSupply",
      "outputs": [
        {
          "internalType": "uint256",
          "name": "",
          "type": "uint256"
        }
      ],
      "stateMutability": "view",
      "type": "function"
    },
    {
      "inputs": [],
      "name": "name",
      "outputs": [
        {
          "internalType": "string",
          "name": "",
          "type": "string"
        }
      ],
      "stateMutability": "view",
      "type": "function"
    },
    {
      "inputs": [],
      "name": "owner",
      "outputs": [
        {
          "internalType": "address",
          "name": "",
          "type": "address"
        }
      ],
      "stateMutability": "view",
      "type": "function"
    },
    {
      "inputs": [],
      "name": "platformFee",
      "outputs": [
        {
          "internalType": "address",
          "name": "recipient",
          "type": "address"
        },
        {
          "internalType": "uint256",
          "name": "totalTokens",
          "type": "uint256"
        },
        {
          "internalType": "bool",
          "name": "vestingEnabled",
          "type": "bool"
        },
        {
          "internalType": "uint256",
          "name": "vestingDuration",
          "type": "uint256"
        },
        {
          "internalType": "uint256",
          "name": "cliffDuration",
          "type": "uint256"
        },
        {
          "internalType": "uint256",
          "name": "vestingStart",
          "type": "uint256"
        },
        {
          "internalType": "uint256",
          "name": "tokensClaimed",
          "type": "uint256"
        }
      ],
      "stateMutability": "view",
      "type": "function"
    },
    {
      "inputs": [],
      "name": "presaleInfo",
      "outputs": [
        {
          "internalType": "uint256",
          "name": "softCap",
          "type": "uint256"
        },
        {
          "internalType": "uint256",
          "name": "hardCap",
          "type": "uint256"
        },
        {
          "internalType": "uint256",
          "name": "minContribution",
          "type": "uint256"
        },
        {
          "internalType": "uint256",
          "name": "maxContribution",
          "type": "uint256"
        },
        {
          "internalType": "uint256",
          "name": "tokensPerEth",
          "type": "uint256"
        },
        {
          "internalType": "uint256",
          "name": "startTime",
          "type": "uint256"
        },
        {
          "internalType": "uint256",
          "name": "endTime",
          "type": "uint256"
        },
        {
          "internalType": "bool",
          "name": "whitelistEnabled",
          "type": "bool"
        },
        {
          "internalType": "bool",
          "name": "finalized",
          "type": "bool"
        },
        {
          "internalType": "uint256",
          "name": "totalContributed",
          "type": "uint256"
        },
        {
          "internalType": "uint256",
          "name": "totalTokensSold",
          "type": "uint256"
        }
      ],
      "stateMutability": "view",
      "type": "function"
    },
    {
      "inputs": [],
      "name": "proxiableUUID",
      "outputs": [
        {
          "internalType": "bytes32",
          "name": "",
          "type": "bytes32"
        }
      ],
      "stateMutability": "view",
      "type": "function"
    },
    {
      "inputs": [],
      "name": "renounceOwnership",
      "outputs": [],
      "stateMutability": "nonpayable",
      "type": "function"
    },
    {
      "inputs": [
        {
          "internalType": "address",
          "name": "account",
          "type": "address"
        },
        {
          "internalType": "bool",
          "name": "isBlacklisted",
          "type": "bool"
        }
      ],
      "name": "setBlacklist",
      "outputs": [],
      "stateMutability": "nonpayable",
      "type": "function"
    },
    {
      "inputs": [
        {
          "internalType": "address",
          "name": "account",
          "type": "address"
        },
        {
          "internalType": "uint256",
          "name": "duration",
          "type": "uint256"
        }
      ],
      "name": "setTimeLock",
      "outputs": [],
      "stateMutability": "nonpayable",
      "type": "function"
    },
    {
      "inputs": [
        {
          "internalType": "address",
          "name": "account",
          "type": "address"
        },
        {
          "internalType": "bool",
          "name": "status",
          "type": "bool"
        }
      ],
      "name": "setWhitelistStatus",
      "outputs": [],
      "stateMutability": "nonpayable",
      "type": "function"
    },
    {
      "inputs": [],
      "name": "symbol",
      "outputs": [
        {
          "internalType": "string",
          "name": "",
          "type": "string"
        }
      ],
      "stateMutability": "view",
      "type": "function"
    },
    {
      "inputs": [],
      "name": "teamAllocation",
      "outputs": [
        {
          "internalType": "uint256",
          "name": "",
          "type": "uint256"
        }
      ],
      "stateMutability": "view",
      "type": "function"
    },
    {
      "inputs": [],
      "name": "timeLockEnabled",
      "outputs": [
        {
          "internalType": "bool",
          "name": "",
          "type": "bool"
        }
      ],
      "stateMutability": "view",
      "type": "function"
    },
    {
      "inputs": [
        {
          "internalType": "address",
          "name": "",
          "type": "address"
        }
      ],
      "name": "timeLocks",
      "outputs": [
        {
          "internalType": "uint256",
          "name": "",
          "type": "uint256"
        }
      ],
      "stateMutability": "view",
      "type": "function"
    },
    {
      "inputs": [],
      "name": "totalSupply",
      "outputs": [
        {
          "internalType": "uint256",
          "name": "",
          "type": "uint256"
        }
      ],
      "stateMutability": "view",
      "type": "function"
    },
    {
      "inputs": [
        {
          "internalType": "address",
          "name": "to",
          "type": "address"
        },
        {
          "internalType": "uint256",
          "name": "amount",
          "type": "uint256"
        }
      ],
      "name": "transfer",
      "outputs": [
        {
          "internalType": "bool",
          "name": "",
          "type": "bool"
        }
      ],
      "stateMutability": "nonpayable",
      "type": "function"
    },
    {
      "inputs": [
        {
          "internalType": "address",
          "name": "from",
          "type": "address"
        },
        {
          "internalType": "address",
          "name": "to",
          "type": "address"
        },
        {
          "internalType": "uint256",
          "name": "amount",
          "type": "uint256"
        }
      ],
      "name": "transferFrom",
      "outputs": [
        {
          "internalType": "bool",
          "name": "",
          "type": "bool"
        }
      ],
      "stateMutability": "nonpayable",
      "type": "function"
    },
    {
      "inputs": [
        {
          "internalType": "address",
          "name": "newOwner",
          "type": "address"
        }
      ],
      "name": "transferOwnership",
      "outputs": [],
      "stateMutability": "nonpayable",
      "type": "function"
    },
    {
      "inputs": [
        {
          "internalType": "address",
          "name": "newImplementation",
          "type": "address"
        }
      ],
      "name": "upgradeTo",
      "outputs": [],
      "stateMutability": "nonpayable",
      "type": "function"
    },
    {
      "inputs": [
        {
          "internalType": "address",
          "name": "newImplementation",
          "type": "address"
        },
        {
          "internalType": "bytes",
          "name": "data",
          "type": "bytes"
        }
      ],
      "name": "upgradeToAndCall",
      "outputs": [],
      "stateMutability": "payable",
      "type": "function"
    },
    {
      "inputs": [
        {
          "internalType": "uint256",
          "name": "",
          "type": "uint256"
        },
        {
          "internalType": "address",
          "name": "",
          "type": "address"
        }
      ],
      "name": "vestingClaims",
      "outputs": [
        {
          "internalType": "uint256",
          "name": "",
          "type": "uint256"
        }
      ],
      "stateMutability": "view",
      "type": "function"
    },
    {
      "inputs": [
        {
          "internalType": "uint256",
          "name": "",
          "type": "uint256"
        }
      ],
      "name": "vestingSchedules",
      "outputs": [
        {
          "internalType": "string",
          "name": "walletName",
          "type": "string"
        },
        {
          "internalType": "uint256",
          "name": "amount",
          "type": "uint256"
        },
        {
          "internalType": "uint256",
          "name": "period",
          "type": "uint256"
        },
        {
          "internalType": "address",
          "name": "beneficiary",
          "type": "address"
        },
        {
          "internalType": "uint256",
          "name": "claimed",
          "type": "uint256"
        },
        {
          "internalType": "uint256",
          "name": "startTime",
          "type": "uint256"
        }
      ],
      "stateMutability": "view",
      "type": "function"
    },
    {
      "inputs": [
        {
          "internalType": "address",
          "name": "",
          "type": "address"
        }
      ],
      "name": "whitelist",
      "outputs": [
        {
          "internalType": "bool",
          "name": "",
          "type": "bool"
        }
      ],
      "stateMutability": "view",
      "type": "function"
    },
    {
      "inputs": [],
      "name": "withdrawPresaleFunds",
      "outputs": [],
      "stateMutability": "nonpayable",
      "type": "function"
    }
  ],
  "bytecode": "0x60a0604052346200003657620000146200003b565b604051614e916200009382396080518181816113d301526115900152614e9190f35b600080fd5b6200004562000082565b565b6200005d9062000060906001600160a01b031682565b90565b6001600160a01b031690565b6200005d9062000047565b6200005d906200006c565b6200008d3062000077565b60805256fe6080604052600436101561001257600080fd5b60003560e01c806306fdde03146102e2578063095ea7b3146102dd5780630c424284146102d857806313083617146102d3578063153b0d1e146102ce57806315f0c220146102c957806318160ddd146102c457806323b872dd146102bf57806326232a2e146102ba5780632c80a89c146102b55780632edf0869146102b0578063313ce567146102ab5780633659cfe6146102a657806339509351146102a157806342e94c901461029c5780634f1ef2861461029757806352d1902d1461029257806356f3e2371461028d578063644fab741461028857806364a88d68146102835780636816521a1461027e5780636d3cbe211461027957806370a0823114610274578063715018a61461026f5780637935510b1461026a5780637d8ca242146102655780637f76b223146102605780638bacf0141461025b5780638bdc444d146102565780638da5cb5b1461025157806391ed25961461024c57806395d89b41146102475780639b19251a14610242578063a0a6e9401461023d578063a457c2d714610238578063a9059cbb14610233578063beb8f8831461022e578063bffb691d14610229578063cba4cbd314610224578063d4ef85cc1461021f578063d5abeb011461021a578063d7bb99ba14610215578063dbac26e914610210578063dd62ed3e1461020b5763f2fde38b036102e75761109a565b61107e565b611047565b611023565b611008565b610fca565b610f47565b610f1f565b610ef7565b610edb565b610ebf565b610ea7565b610e8c565b610e43565b610e27565b610db3565b610d8b565b610d6f565b610d06565b610cda565b610cc2565b610caa565b610c8f565b610c5b565b610a4d565b610a28565b610a0f565b6109f7565b6109a8565b610994565b610882565b610812565b6107fa565b6107b7565b61077d565b61066e565b61062d565b610544565b610500565b6104e5565b6104a9565b61047b565b61045d565b6103f6565b610366565b600080fd5b60009103126102e757565b60005b83811061030a5750506000910152565b81810151838201526020016102fa565b61033b61034460209361034e9361032f815190565b80835293849260200190565b958691016102f7565b601f01601f191690565b0190565b60208082526103639291019061031a565b90565b346102e7576103763660046102ec565b61038d6103816110bb565b60405191829182610352565b0390f35b6001600160a01b031690565b6103a681610391565b036102e757565b905035906103ba8261039d565b565b806103a6565b905035906103ba826103bc565b91906040838203126102e7576103639060206103eb82866103ad565b94016103c2565b9052565b346102e75761038d61041261040c3660046103cf565b906110c5565b6040515b91829182901515815260200190565b8015156103a6565b905035906103ba82610425565b91906040838203126102e75761036390602061045682866103ad565b940161042d565b346102e75761047661047036600461043a565b90611126565b604051005b346102e75761048b3660046102ec565b61038d6104986101345490565b6040515b9182918290815260200190565b346102e7576104766104bc36600461043a565b906111e9565b610363916008021c81565b9061036391546104c2565b61036360006101306104cd565b346102e7576104f53660046102ec565b61038d6104986104d8565b346102e7576105103660046102ec565b61038d6104986111f3565b90916060828403126102e75761036361053484846103ad565b9360406103eb82602087016103ad565b346102e75761038d61041261055a36600461051b565b916112fc565b6103639054610391565b6103639081565b610363905461056a565b610363905b60ff1690565b610363905461057b565b61014261059c81610560565b916105a960018301610571565b916105b660028201610586565b916105c360038301610571565b916105d060048201610571565b9161036360066105e260058501610571565b9301610571565b6103f290610391565b949290979695939160e08601986000870161060c916105e9565b6020860152151560408501526060840152608083015260a082015260c00152565b346102e75761063d3660046102ec565b61038d610648610590565b9361065897959793919360405190565b978897886105f2565b61036360006101316104cd565b346102e75761067e3660046102ec565b61038d610498610661565b6103639060081c610580565b6103639054610689565b6101366106ab81610571565b916106b860018301610571565b916106c560028201610571565b916106d260038301610571565b916106df60048201610571565b916106ec60058301610571565b916106f960068201610571565b9161070660078301610586565b9161071360078201610695565b9161036360096105e260088501610571565b98969492909b9a99979593916101608a019c60008b01610743919052565b60208a015260408901526060880152608087015260a086015260c0850152151560e084015215156101008301526101208201526101400152565b346102e75761078d3660046102ec565b61038d61079861069f565b976107ae9b999b97919796929695939560405190565b9b8c9b8c610725565b346102e7576107c73660046102ec565b61038d6107d2611316565b6040519182918260ff909116815260200190565b906020828203126102e757610363916103ad565b346102e75761047661080d3660046107e6565b61148b565b346102e75761038d6104126108283660046103cf565b906114bc565b61036390610391906001600160a01b031682565b6103639061082e565b61036390610842565b9061085e9061084b565b600052602052604060002090565b600061087d61036392610140610854565b6104cd565b346102e75761038d6104986108983660046107e6565b61086c565b634e487b7160e01b600052604160045260246000fd5b90601f01601f191681019081106001600160401b038211176108d457604052565b61089d565b906103ba6108e660405190565b92836108b3565b6001600160401b0381116108d457602090601f01601f19160190565b90826000939282370152565b9092919261092a610925826108ed565b6108d9565b93818552818301116102e7576103ba916020850190610909565b9080601f830112156102e75781602061036393359101610915565b9190916040818403126102e75761097683826103ad565b9260208201356001600160401b0381116102e7576103639201610944565b6104766109a236600461095f565b90611501565b346102e7576109b83660046102ec565b61038d6104986115f1565b90816103009103126102e75790565b906020828203126102e75781356001600160401b0381116102e75761036392016109c3565b346102e757610476610a0a3660046109d2565b612f8b565b346102e757610476610a223660046103cf565b9061304d565b346102e757610a383660046102ec565b6104766131b2565b610363600061012f6104cd565b346102e757610a5d3660046102ec565b61038d610498610a40565b906020828203126102e757610363916103c2565b634e487b7160e01b600052603260045260246000fd5b8054821015610ab557610aac600691600052602060002090565b91020190600090565b610a7c565b634e487b7160e01b600052602260045260246000fd5b9060016002830492168015610af0575b6020831014610aeb57565b610aba565b91607f1691610ae0565b80546000939291610b17610b0d83610ad0565b8085529360200190565b9160018116908115610b695750600114610b3057505050565b610b439192939450600052602060002090565b916000925b818410610b555750500190565b805484840152602090930192600101610b48565b92949550505060ff1916825215156020020190565b9061036391610afa565b906103ba610ba292610b9960405190565b93848092610b7e565b03836108b3565b61013490610bb5825490565b8110156102e757610bc591610a92565b5090610bd082610b88565b91610bdd60018201610571565b91610bea60028301610571565b91610bf760038201610560565b9161036360056105e260048501610571565b9196959394610c506103ba96610c4660a096610c3f610c37610c579760c08a01908a820360008c015261031a565b9c6020890152565b6040870152565b60608501906105e9565b6080830152565b0152565b346102e75761038d610c76610c71366004610a68565b610ba9565b92610c8696949692919260405190565b96879687610c09565b346102e75761038d610498610ca53660046107e6565b6131ba565b346102e757610cba3660046102ec565b610476613204565b346102e757610476610cd5366004610a68565b6133d7565b346102e75761038d610498610cf0366004610a68565b613461565b600061087d61036392610133610854565b346102e75761038d610498610d1c3660046107e6565b610cf5565b6080818303126102e75780356001600160401b0381116102e75782610d47918301610944565b92610363610d5884602085016103c2565b936060610d6882604087016103c2565b94016103ad565b346102e757610476610d82366004610d21565b929190916136fb565b346102e757610d9b3660046102ec565b610476613906565b6020810192916103ba91906105e9565b346102e757610dc33660046102ec565b61038d610dce61390e565b60405191829182610da3565b91906040838203126102e757610363906020610d6882866103c2565b6103636103636103639290565b9061085e90610df6565b61087d61036392610e22600093610135610e03565b610854565b346102e75761038d610498610e3d366004610dda565b90610e0d565b346102e757610e533660046102ec565b61038d610381613918565b610363916008021c610580565b906103639154610e5e565b6000610e8761036392610141610854565b610e6b565b346102e75761038d610412610ea23660046107e6565b610e76565b346102e757610eb73660046102ec565b610476613b83565b346102e75761038d610412610ed53660046103cf565b90613be5565b346102e75761038d610412610ef13660046103cf565b90613c5a565b346102e75761038d610c76610f0d366004610a68565b613ca2565b610363600061012e610e6b565b346102e757610f2f3660046102ec565b61038d610412610f12565b610363600161012e610e6b565b346102e757610f573660046102ec565b61038d610412610f3a565b61014990610f6f82610571565b91610f7c60018201610571565b916103636003610f8e60028501610571565b9301610586565b610fc26103ba94610fbb606094989795610fb4608086019a6000870152565b6020850152565b6040830152565b019015159052565b346102e757610fda3660046102ec565b61038d610fe5610f62565b90610ff294929460405190565b94859485610f95565b610363600061012d6104cd565b346102e7576110183660046102ec565b61038d610498610ffb565b61102e3660046102ec565b610476614253565b6000610e8761036392610132610854565b346102e75761038d61041261105d3660046107e6565b611036565b91906040838203126102e757610363906020610d6882866103ad565b346102e75761038d610498611094366004611062565b9061425b565b346102e7576104766110ad3660046107e6565b614306565b61036390610b88565b61036360366110b2565b6110d09190336143be565b600190565b906103ba916110e261449d565b611111565b9060ff905b9181191691161790565b9061110661036361110d92151590565b82546110e7565b9055565b906111216103ba92610141610854565b6110f6565b906103ba916110d5565b906103ba9161113d61449d565b61118a565b1561114957565b60405162461bcd60e51b8152602060048201526015602482015274109b1858dadb1a5cdd081b9bdd08195b98589b1959605a1b6044820152606490fd5b0390fd5b6111e46111da7f6a12b3df6cba4203bd7fd06b816789f87de8c594299aed5717ae070fac781bac926111c56111c061012e610586565b611142565b6111d58561112183610132610854565b61084b565b9261041660405190565b0390a2565b906103ba91611130565b6103636035610571565b1561120457565b60405162461bcd60e51b81526020600482015260166024820152751059191c995cdcc81a5cc8189b1858dadb1a5cdd195960521b6044820152606490fd5b6103639392919061126c61126761126361125e33610132610854565b610586565b1590565b6111fd565b6112b7565b1561127857565b60405162461bcd60e51b8152602060048201526017602482015276151c985b9cd9995c881a5cc81d1a5b594b5b1bd8dad959604a1b6044820152606490fd5b906103639392916112c961012e610695565b156112f0576112f06112e86103636112e333610133610854565b610571565b421015611271565b506103639291906144ba565b6103639291906000611242565b6105806103636103639290565b6103636012611309565b1561132757565b60405162461bcd60e51b815260206004820152602c6024820152600080516020614e1c83398151915260448201526b19195b1959d85d1958d85b1b60a21b6064820152608490fd5b1561137657565b60405162461bcd60e51b815260206004820152602c6024820152600080516020614e1c83398151915260448201526b6163746976652070726f787960a01b6064820152608490fd5b6103ba906114266113ce3061084b565b61140c7f0000000000000000000000000000000000000000000000000000000000000000916114056113ff84610391565b91610391565b1415611320565b6114206113ff61141a6144d0565b92610391565b1461136f565b611465565b90611438610925836108ed565b918252565b369037565b906103ba6114586114528461142b565b936108ed565b601f19016020840161143d565b60006103ba91611474816144ef565b61148561148083610df6565b611442565b906145a0565b6103ba906113be565b634e487b7160e01b600052601160045260246000fd5b919082018092116114b757565b611494565b6110d091906114d533926114d0838561425b565b6114aa565b916143be565b906103ba916114ec6113ce3061084b565b6103ba916001916114fc816144ef565b6145a0565b906103ba916114db565b1561151257565b60405162461bcd60e51b815260206004820152603860248201527f555550535570677261646561626c653a206d757374206e6f742062652063616c6044820152771b1959081d1a1c9bdd59da0819195b1959d85d1958d85b1b60421b6064820152608490fd5b610363906115ba6115883061084b565b6115b46113ff7f0000000000000000000000000000000000000000000000000000000000000000610391565b1461150b565b6115e8565b6103637f360894a13ba1a3210667c828492db98dca3e2076cc3735a920a3ca505d382bbc610df6565b506103636115bf565b6103636000611578565b1561160257565b60405162461bcd60e51b815260206004820152602e60248201527f496e697469616c697a61626c653a20636f6e747261637420697320616c72656160448201526d191e481a5b9a5d1a585b1a5e995960921b6064820152608490fd5b6105806103636103639260ff1690565b9061110661036361110d9261165e565b9061ff009060081b6110ec565b9061169b61036361110d92151590565b825461167e565b6103f290611309565b6020810192916103ba91906116a2565b6117016116cb6112636000610695565b9182806117a3575b801561175e575b6116e3906115fb565b826116f86116f16001611309565b600061166e565b61174d57612547565b61170757565b61171260008061168b565b7f7f26b83ff96e1f2b6a682f133852f6798a09c465da95921460cefb384740249861173c60405190565b806117486001826116ab565b0390a1565b6117596001600061168b565b612547565b5061177361126361176e3061084b565b6146af565b80156116da57506116e36117876000610586565b61179b6117946001611309565b9160ff1690565b1490506116da565b506117ae6000610586565b6117bb6117946001611309565b106116d3565b903590601e1936829003018212156102e757018035906001600160401b0382116102e757602001913682900383136102e757565b610363913691610915565b9190610344816118178161034e9560209181520190565b8095610909565b6040808252600490820152634e616d6560e01b6060820152610363929091608083015b926020818503910152611800565b60408082526006908201526514de5b589bdb60d21b606082015261036392909160808301611841565b35610363816103bc565b6040808252600e908201526d496e697469616c20537570706c7960901b606082015291906103ba90602060808501940152565b6040808252600a90820152694d617820537570706c7960b01b606082015291906103ba90602060808501940152565b6040808252600c908201526b50726573616c65205261746560a01b606082015291906103ba90602060808501940152565b356103638161039d565b60408082526005908201526427bbb732b960d91b606082015291906103ba906020608085015b9401906105e9565b604080825260169082015275141b185d199bdc9b4811995948149958da5c1a595b9d60521b606082015291906103ba90602060808501611945565b600a8152692b30b634b230ba34b7b760b11b602082015260400190565b604080825261036391906119ba908201611988565b9060208183039101526011815270436865636b696e6720737570706c69657360781b602082015260400190565b156119ee57565b60405162461bcd60e51b8152602060048201526024808201527f4d617820737570706c79206d757374206265203e3d20696e697469616c20737560448201526370706c7960e01b6064820152608490fd5b60408082526103639190611a54908201611988565b9060208183039101526015815274436865636b696e672070726573616c65207261746560581b602082015260400190565b15611a8c57565b60405162461bcd60e51b8152602060048201526014602482015273496e76616c69642070726573616c65207261746560601b6044820152606490fd5b60408082526103639190611add908201611988565b906020818303910152600e81526d436865636b696e672074696d657360901b602082015260400190565b15611b0e57565b60405162461bcd60e51b815260206004820152601c60248201527b53746172742074696d65206d75737420626520696e2066757475726560201b6044820152606490fd5b15611b5957565b60405162461bcd60e51b815260206004820152602160248201527f456e642074696d65206d7573742062652061667465722073746172742074696d6044820152606560f81b6064820152608490fd5b600b81526a21b0b631bab630ba34b7b760a91b602082015260400190565b60408082526103639190611bdb908201611ba8565b9060208183039101526018815277436f6d707574696e672070726573616c6520746f6b656e7360401b602082015260400190565b818102929181159184041417156114b757565b634e487b7160e01b600052601260045260246000fd5b90611c42565b9190565b908115611c4d570490565b611c22565b6040808252600e908201526d50726573616c6520546f6b656e7360901b606082015291906103ba90602060808501940152565b60408082526103639190611c9a908201611ba8565b906020818303910152601e81527f436f6d707574696e672072657175697265642070726573616c65206361700000602082015260400190565b604080825260149082015273052657175697265642050726573616c65204361760641b606082015291906103ba90602060808501940152565b604080825260149082015273050726f76696465642050726573616c65204361760641b606082015291906103ba90602060808501940152565b15611d4c57565b60405162461bcd60e51b815260206004820152602860248201527f50726573616c652063617020746f6f206c6f7720666f7220746f6b656e20616c6044820152673637b1b0ba34b7b760c11b6064820152608490fd5b600d81526c21b7b73334b3bab930ba34b7b760991b602082015260400190565b60408082526103639190611dd7908201611da2565b906020818303910152601881527753657474696e6720746f6b656e20706172616d657465727360401b602082015260400190565b90600019906110ec565b90611e2561036361110d92610df6565b8254611e0b565b3561036381610425565b60408082526103639190611e4b908201611da2565b906020818303910152601a81527953657474696e672070726573616c6520706172616d657465727360301b602082015260400190565b6103636101606108d9565b634e487b7160e01b600052600060045260246000fd5b6009611f946101406103ba94611ec2611ebc600083015190565b86611e15565b611ed9611ed0602083015190565b60018701611e15565b611ef0611ee7604083015190565b60028701611e15565b611f07611efe606083015190565b60038701611e15565b611f1e611f15608083015190565b60048701611e15565b611f35611f2c60a083015190565b60058701611e15565b611f4c611f4360c083015190565b60068701611e15565b611f7760078601611f69611f6360e0850151151590565b826110f6565b61010083015115159061168b565b611f8f611f8661012083015190565b60088701611e15565b015190565b9101611e15565b906103ba91611ea2565b60408082526103639190611fba908201611da2565b906020818303910152601c81527b53657474696e67206c697175696469747920706172616d657465727360201b602082015260400190565b61036360806108d9565b600361203860606103ba94612015611ebc600083015190565b612023611ed0602083015190565b612031611ee7604083015190565b0151151590565b91016110f6565b906103ba91611ffc565b6040808252610363919061205e908201611da2565b906020818303910152601f81527f53657474696e6720706c6174666f726d2066656520706172616d657465727300602082015260400190565b61036360e06108d9565b906103f290610391565b6103639051610391565b906001600160a01b03906110ec565b906120d461036361110d9261084b565b82546120b5565b6006611f9460c06103ba946120fb6120f5600083016120ab565b866120c4565b612109611ed0602083015190565b6121226121196040830151151590565b600287016110f6565b612130611efe606083015190565b61213e611f15608083015190565b611f8f611f2c60a083015190565b906103ba916120db565b6040808252610363919061216b908201611ba8565b906020818303910152601b81527a436f6d707574696e6720746f6b656e20616c6c6f636174696f6e7360281b602082015260400190565b6040808252600f908201526e2a32b0b69020b63637b1b0ba34b7b760891b606082015291906103ba90602060808501940152565b60408082526014908201527326b0b935b2ba34b7339020b63637b1b0ba34b7b760611b606082015291906103ba90602060808501940152565b6040808252601690820152752232bb32b637b836b2b73a1020b63637b1b0ba34b7b760511b606082015291906103ba90602060808501940152565b6040808252610363919061225f908201611da2565b906020818303910152601c81527b53657474696e672075702076657374696e67207363686564756c657360201b602082015260400190565b61036360c06108d9565b6122ab600461142b565b635465616d60e01b602082015290565b6103636122a1565b9160001960089290920291821b911b6110ec565b91906122e861036361110d93610df6565b9083546122c3565b6103ba916000916122d7565b818110612307575050565b8061231560006001936122f0565b016122fc565b9190601f811161232a57505050565b61233c6103ba93600052602060002090565b906020601f84018190048301931061235e575b6020601f9091010401906122fc565b909150819061234f565b9060001960089091021c191690565b8161238191612368565b906002021790565b90612392815190565b906001600160401b0382116108d4576123b5826123af8554610ad0565b8561231b565b602090601f83116001146123e35761110d9291600091836123d8575b5050612377565b0151905038806123d1565b601f198316916123f885600052602060002090565b9260005b8181106124375750916002939185600196941061241d575b50505002019055565b61242d910151601f841690612368565b9055388080612414565b919360206001819287870151815501950192016123fc565b906103ba91612389565b6005611f9460a06103ba94612478612472600083015190565b8661244f565b612486611ed0602083015190565b612494611ee7604083015190565b6124ac6124a3606083016120ab565b600387016120c4565b611f8f611f15608083015190565b91906124c9576103ba91612459565b611e8c565b80549190600160401b8310156108d457826124f19160016103ba95018155610a92565b906124ba565b612501600961142b565b684d61726b6574696e6760b81b602082015290565b6103636124f7565b612528600b61142b565b6a11195d995b1bdc1b595b9d60aa1b602082015290565b61036361251e565b7ff506dd1f37a395cd46449e11ae828cb6812f8b31ad36afbeb191da78d153a574908161257360405190565b60408082526005908201526414dd185c9d60da1b6060820152608060208201819052601890820152772132b3b4b73734b7339034b734ba34b0b634bd30ba34b7b760411b60a082015260c090a1806125cb81806117c1565b6020840192916125db84866117c1565b926125e691926117f5565b916125f0916117f5565b6125f991614742565b612601614764565b612609614784565b612611614799565b61261b90836117c1565b7ff0cbeeb2353f6efdd2e429c8d7d2f4de6d1e80fcb80e2b25087503a13d9af33a9291839161264960405190565b918291612656918361181e565b0390a161266390836117c1565b604051918291612673918361184f565b0390a1604081019061268482611878565b907f74cd6951a31b2a871b7ae11be2f888702548cfa1d9cc6a9fdb5eddc4e340e06080926126b160405190565b6126bc819282611882565b0390a16060810190826126ce83611878565b6040516126dc8192826118b5565b0390a160e0810192806126ee85611878565b6040516126fc8192826118e4565b0390a1608082019261270d84611915565b927f09bf9b59d553e3363dcba6c1a6a6b896c7b93040e0f4cb5dcb97c43f37ad5e53809461273a60405190565b61274581928261191f565b0390a16101e081019361275785611915565b60405161276581928261194d565b0390a18761277260405190565b8061277c816119a5565b0390a161278882611878565b61279188611878565b111561279c906119e7565b876127a660405190565b806127b081611a3f565b0390a16127bc86611878565b966000976127c989610df6565b106127d390611a85565b886127dd60405190565b806127e781611ac8565b0390a1876101608301956127fa87611878565b421061280590611b07565b61018084019461281486611878565b61281d89611878565b1061282790611b52565b8b61283160405190565b8061283b81611bc6565b0390a161284784611878565b6128546102e08701611878565b61285d91611c0f565b956127109661286b88610df6565b61287491611c38565b8861287e60405190565b806128898482611c52565b0390a18d61289660405190565b806128a081611c85565b0390a16128b4670de0b6b3a7640000610df6565b6128bd91611c0f565b6128c68c611878565b6128cf91611c38565b91886128da60405190565b806128e58682611cd3565b0390a1610140870192896128f885611878565b604051612906819282611d0c565b0390a161291284611878565b101561291d90611d45565b8d61292760405190565b8061293181611dc2565b0390a161293d90611878565b6129499061012d611e15565b61295560a08701611e2c565b6129619061012e6110f6565b61296d60c08701611e2c565b6129799061012e61168b565b8c61298360405190565b8061298d81611e36565b0390a161299982611878565b6129a36002610df6565b6129ac91611c38565b916129b690611878565b9a6129c46101008801611878565b906129d26101208901611878565b906129dc90611878565b916129e68c611878565b936129f090611878565b946129f9611e81565b9e8f91612a06908a840152565b60208201526040015260608d015260808c015260a08b015260c08a015281151560e08a018190526101008a0152612a3c82610df6565b98612a498a610120830152565b612a558a610140830152565b612a6190610136611f9b565b8a612a6b60405190565b80612a7581611fa5565b0390a1612a856101a08501611878565b612a926101c08601611878565b612a9a611ff2565b91612aa59085840152565b6020820152612ab58a6040830152565b8215156060820152612ac99061014961203f565b8a612ad360405190565b80612add81612049565b0390a1612ae990611915565b612af66102008501611878565b612b036102208601611e2c565b612b106102408701611878565b90612b1e6102608801611878565b92612b288b611878565b94612b31612097565b96870190612b3e916120a1565b6020860152151560408501526060840152608083015260a0820152612b648860c0830152565b612b709061014261214c565b88612b7a60405190565b6040808252600790820152664d696e74696e6760c81b6060820152608060208201819052601790820152764372656174696e6720696e697469616c20737570706c7960481b60a082015260c090a1612bd13061084b565b612bda82611878565b612be3916147ed565b88612bed60405190565b80612bf781612156565b0390a1612c0381611878565b612c106102808401611878565b612c1991611c0f565b612c2284610df6565b612c2b91611c38565b612c379061012f611e15565b612c4081611878565b612c4d6102a08401611878565b612c5691611c0f565b612c5f84610df6565b612c6891611c38565b612c7490610130611e15565b612c7d90611878565b906102c001612c8b90611878565b612c9491611c0f565b90612c9e90610df6565b612ca791611c38565b612cb390610131611e15565b80612cbf61012f610571565b604051612ccd8192826121a2565b0390a180612cdc610130610571565b604051612cea8192826121d6565b0390a1612cf8610131610571565b604051612d0681928261220f565b0390a184612d1360405190565b80612d1d8161224a565b0390a182612d2c61012f610571565b1193612dc993612dce95612f36575b80612d4a610363610130610571565b11612eba575b80612d5f610363610131610571565b11612e27575b50505083612d7260405190565b6040808252600c908201526b2334b730b634bd30ba34b7b760a11b60608201526080602082018190526016908201527505472616e7366657272696e67206f776e6572736869760541b60a082015260c090a1611915565b61485e565b6040518061174881604080825260089082015267436f6d706c65746560c01b606082015260806020820181905260179082015276125b9a5d1a585b1a5e985d1a5bdb88199a5b9a5cda1959604a1b60a082015260c00190565b612ead612eb293612ea6612e3a61013490565b93612e9f612e49610131610571565b93612e81612e5f612e598c611915565b92611878565b95612e7a612e6b612297565b9a612e7461253f565b908c0152565b60208a0152565b612e96612e8f61016d610df6565b60408a0152565b606088016120a1565b6080860152565b60a0840152565b6124ce565b388080612d65565b612f31610134612ecb610130610571565b90612ead612ed888611915565b612f26612ee489611878565b91612f09612ef0612297565b96612f02612efc612516565b8c8a0152565b6020880152565b612f1d612f1660b4610df6565b6040880152565b606086016120a1565b612ea6866080860152565b612d50565b612f86610134612f4761012f610571565b90612ead612f5488611915565b612f26612f6089611878565b91612f78612f6c612297565b96612f02612efc6122bb565b612f1d612f1661016d610df6565b612d3b565b6103ba906116bb565b906103ba91612fa161449d565b612fea565b15612fad57565b60405162461bcd60e51b8152602060048201526015602482015274151a5b59481b1bd8dac81b9bdd08195b98589b1959605a1b6044820152606490fd5b6111e46130437fa9353e70f07f31e7f4e16464f45e189cbd22826780a5abe4da8303652a86960a9261302561302061012e610695565b612fa6565b6111d561303286426114aa565b61303e83610133610854565b611e15565b9261049c60405190565b906103ba91612f94565b61305f61449d565b6103ba61314b565b1561306e57565b60405162461bcd60e51b8152602060048201526015602482015274141c995cd85b19481b9bdd08199a5b985b1a5e9959605a1b6044820152606490fd5b156130b257565b60405162461bcd60e51b81526020600482015260146024820152734e6f2066756e647320746f20776974686472617760601b6044820152606490fd5b3d15613108576130fd3d61142b565b903d6000602084013e565b606090565b1561311457565b60405162461bcd60e51b815260206004820152600f60248201526e151c985b9cd9995c8819985a5b1959608a1b6044820152606490fd5b61315e61315961013d610695565b613067565b6103ba60008061316d3061084b565b613184813161317e611c3e85610df6565b116130ab565b6131926111d56111d561390e565b903161319d60405190565b90818003925af16131ac6130ee565b5061310d565b6103ba613057565b6112e3610363916131c9600090565b506033610854565b6131d961449d565b6103ba6131f7565b6103916103636103639290565b610363906131e1565b6103ba612dc960006131ee565b6103ba6131d1565b61321d90613218614907565b6132fd565b6103ba614939565b1561322c57565b60405162461bcd60e51b8152602060048201526016602482015275092dcecc2d8d2c840e6c6d0cac8ead8ca40d2dcc8caf60531b6044820152606490fd5b1561327157565b60405162461bcd60e51b815260206004820152600f60248201526e4e6f742062656e656669636961727960881b6044820152606490fd5b156132af57565b60405162461bcd60e51b81526020600482015260136024820152724e6f20746f6b656e7320636c61696d61626c6560681b6044820152606490fd5b9081526040810192916103ba9160200152565b7f42106f9c7b551eea618b396312146946940a732a68f7b8f3c80514e30cc81cc16133466133428361013461333d613336610363835490565b8310613225565b610a92565b5090565b61336c61335d61335860038401610560565b610391565b61336633610391565b1461326a565b6133a4600461337a85613461565b926133906133886000610df6565b855b116132a8565b0161339e836114d083610571565b90611e15565b6133b8816133b13061084b565b3390614a51565b6133c13361084b565b926111e46133ce60405190565b928392836132ea565b6103ba9061320c565b906103ba612ea660056133f1612297565b946134026133fe82610b88565b8752565b613411612f0260018301610571565b613420612f1660028301610571565b61342f612e9660038301610560565b61344561343e60048301610571565b6080880152565b01610571565b610363906133e0565b919082039182116114b757565b61347961347f91613470600090565b50610134610a92565b5061344b565b60a0810161348e610363825190565b421061351157516134a0905b42613454565b906134c16134af604083015190565b6134bb62015180610df6565b90611c0f565b91828110156134fb5760806134ef610363946134ea6134f5946134e5602088015190565b611c0f565b611c38565b92015190565b90613454565b5061036391506134f560806134ef602084015190565b50506103636000610df6565b906103ba93929161352c61449d565b61361f565b1561353857565b60405162461bcd60e51b8152602060048201526013602482015272496e76616c69642062656e656669636961727960681b6044820152606490fd5b1561357a57565b60405162461bcd60e51b81526020600482015260126024820152710416d6f756e74206d757374206265203e20360741b6044820152606490fd5b156135bb57565b60405162461bcd60e51b81526020600482015260126024820152710506572696f64206d757374206265203e20360741b6044820152606490fd5b604090610c576136176103ba959796946060840190848203600086015261031a565b966020830152565b6111e46136e87f586635f20887672497479579f6f76516cd0f238e8d01245d26e6b971cec9184794956111d5600061366c61365c613358836131ee565b61366585610391565b1415613531565b61367f61367882610df6565b8811613573565b61369261368b82610df6565b8a116135b4565b6101346136dd6136d66136a3612297565b936136ae8a82870152565b6136b98b6020870152565b6136c48d6040870152565b6136d187606087016120a1565b610df6565b6080840152565b612ead4260a0840152565b946136f260405190565b938493846135f5565b906103ba93929161351d565b61370f614907565b61321d6137dd565b1561371e57565b60405162461bcd60e51b8152602060048201526011602482015270139bdd08199959481c9958da5c1a595b9d607a1b6044820152606490fd5b1561375e57565b60405162461bcd60e51b8152602060048201526012602482015271105b1b081d1bdad95b9cc818db185a5b595960721b6044820152606490fd5b1561379f57565b60405162461bcd60e51b815260206004820152601660248201527510db1a5999881c195c9a5bd9081b9bdd08195b99195960521b6044820152606490fd5b6103ba6101426138016137f261335883610560565b6137fb33610391565b14613717565b6138c7600682019161381283610571565b90613830600182019261382a611c3e61036386610571565b10613757565b61383c60028201610586565b156138f957600361387961349a600584016112e361387161036361385f84610571565b61386b60048a01610571565b906114aa565b421015613798565b91019061388861036383610571565b81106138d057505061389c6138a591610571565b6134f584610571565b915b6138ba6138b46000610df6565b8461338a565b61339e836114d083610571565b6133b13061084b565b906138ed6138e761389c936134e56138f396610571565b91610571565b90611c38565b916138a7565b5061389c6138f391610571565b6103ba613707565b6103636065610560565b61036360376110b2565b61392a61449d565b6103ba6139f7565b1561393957565b60405162461bcd60e51b815260206004820152601360248201527210d85b9b9bdd08199a5b985b1a5e99481e595d606a1b6044820152606490fd5b1561397b57565b60405162461bcd60e51b8152602060048201526011602482015270105b1c9958591e48199a5b985b1a5e9959607a1b6044820152606490fd5b156139bb57565b60405162461bcd60e51b815260206004820152601460248201527314dbd99d0818d85c081b9bdd081c995858da195960621b6044820152606490fd5b7fedfde254cb8ed39d650c9a34251c59d6817fae4cc876cc2ce76669976cf102ee610136613a2961036361013c610571565b42118015613b58575b613a3b90613932565b613ab86009613ab160078401613a5b613a5661126383610695565b613974565b613a8c60016008870192613a87613a7185610571565b613a80611c3e6103638c610571565b10156139b4565b61168b565b610149613a9881610571565b613aa5611c3e6000610df6565b11613ac5575b50610571565b9201610571565b906117486133ce60405190565b7fcb75aa8347c098d414422e8cafbbe4e2c1a229f5b27bf425984b2b9792aa787a90613b42613b0e613b04613afb888b01610571565b6134bb85610571565b6138ed6064610df6565b916112e360016003613b2d613b276134af848701610571565b426114aa565b93613b3c600282019586611e15565b016110f6565b90613b4f6133ce60405190565b0390a138613aab565b50613a3b613b6860088301610571565b613b7a611c3e61036360018601610571565b10159050613a32565b6103ba613922565b15613b9257565b60405162461bcd60e51b815260206004820152602560248201527f45524332303a2064656372656173656420616c6c6f77616e63652062656c6f77604482015264207a65726f60d81b6064820152608490fd5b6110d091906114d53392613bf9838561425b565b613c0582821015613b8b565b0390565b610363929190613c2461126761126361125e33610132610854565b906103639291613c3561012e610695565b15613c4f57613c4f6112e86103636112e333610133610854565b506103639190614ad9565b61036391906000613c09565b15613c6d57565b60405162461bcd60e51b815260206004820152600d60248201526c092dcecc2d8d2c840d2dcc8caf609b1b6044820152606490fd5b613479613cca91613cb1606090565b5061013461333d613cc3610363835490565b8310613c66565b80519091613cd9602084015190565b92613ce5604082015190565b92613cf2606083016120ab565b92613d0960a0613d03608086015190565b94015190565b91959493929190565b15613d1957565b60405162461bcd60e51b8152602060048201526013602482015272141c995cd85b19481b9bdd081cdd185c9d1959606a1b6044820152606490fd5b15613d5b57565b60405162461bcd60e51b815260206004820152600d60248201526c141c995cd85b1948195b991959609a1b6044820152606490fd5b15613d9757565b60405162461bcd60e51b8152602060048201526011602482015270141c995cd85b1948199a5b985b1a5e9959607a1b6044820152606490fd5b613e1c613e176112636007610136613df7613def61036361013b610571565b421015613d12565b613e11613e0961036360068401610571565b421115613d54565b01610695565b613d90565b6103ba613e3461126761126361125e33610132610854565b6103ba613e3f614907565b61321d614083565b15613e4e57565b60405162461bcd60e51b81526020600482015260166024820152752132b637bb9036b4b71031b7b73a3934b13aba34b7b760511b6044820152606490fd5b15613e9357565b60405162461bcd60e51b815260206004820152601660248201527520b137bb329036b0bc1031b7b73a3934b13aba34b7b760511b6044820152606490fd5b15613ed857565b60405162461bcd60e51b815260206004820152601060248201526f12185c990818d85c081c995858da195960821b6044820152606490fd5b15613f1757565b60405162461bcd60e51b815260206004820152600f60248201526e139bdd081dda1a5d195b1a5cdd1959608a1b6044820152606490fd5b610c576103ba94613faf608094989795613fa8613fa060a087018781036000890152601f81527f43616c63756c6174696e6720636f6e747269627574696f6e20746f6b656e7300602082015260400190565b9a6020870152565b6040850152565b6060830152565b15613fbd57565b60405162461bcd60e51b8152602060048201526014602482015273125b9d985b1a59081d1bdad95b88185b5bdd5b9d60621b6044820152606490fd5b1561400057565b60405162461bcd60e51b8152602060048201526013602482015272496e73756666696369656e7420746f6b656e7360681b6044820152606490fd5b1561404257565b60405162461bcd60e51b815260206004820152601960248201527813585e0818dbdb9d1c9a589d5d1a5bdb88195e18d959591959603a1b6044820152606490fd5b6141f76101366140a261409a610363610138610571565b341015613e47565b61339e60038201916140c16140b961036385610571565b341115613e8c565b6141ee600882016141ce60096140e06140d984610571565b34906114aa565b946140ff60018201966140f8611c3e6103638a610571565b1115613ed1565b61410b60078201610586565b614237575b7fd76bfb75ff00c93b613b0c6bba32b0deadca4aa295ce325fdba1312379a7682760048201966141546138e761414e6141488b610571565b34611c0f565b99610571565b9061416d61416160405190565b92839234908c85613f4e565b0390a161418461417d6000610df6565b8711613fb6565b01956141af614196866114d08a610571565b6141a8611c3e610363610ca53061084b565b1115613ff9565b6141e7611c3e6103636141e16112e36101406141da6141ce3383610854565b61339e6140d982610571565b3390610854565b93610571565b111561403b565b6114d083610571565b6142003361084b565b7f3d0ab7e8209f975ae8d4c319005ac3a64cf3b4ee6503d416abb001d442eb1abc61422a60405190565b34815280602081016111e4565b61424e61424961125e33610141610854565b613f10565b614110565b6103ba613dd0565b61036391610e226112e39261426e600090565b506034610854565b6103ba9061428261449d565b6142e2565b1561428e57565b60405162461bcd60e51b815260206004820152602660248201527f4f776e61626c653a206e6577206f776e657220697320746865207a65726f206160448201526564647265737360d01b6064820152608490fd5b6103ba90612dc96142f661335860006131ee565b6142ff83610391565b1415614287565b6103ba90614276565b1561431657565b60405162461bcd60e51b8152602060048201526024808201527f45524332303a20617070726f76652066726f6d20746865207a65726f206164646044820152637265737360e01b6064820152608490fd5b1561436e57565b60405162461bcd60e51b815260206004820152602260248201527f45524332303a20617070726f766520746f20746865207a65726f206164647265604482015261737360f01b6064820152608490fd5b61444861443e6144387f8c5be1e5ebec7d5bd14f71427d1e84f3dd0314c0f7b2291e5b200ac8c7c3b925936144256144156143f960006131ee565b61335861440582610391565b61440e86610391565b141561430f565b61441e88610391565b1415614367565b6111d58761303e88610e22856034610854565b9361084b565b9361049c60405190565b0390a3565b1561445457565b60405162461bcd60e51b815280611186600482016020808252818101527f4f776e61626c653a2063616c6c6572206973206e6f7420746865206f776e6572604082015260600190565b6103ba6144a861390e565b6144b46113ff33610391565b1461444d565b6110d09291906144cb833383614b30565b614a51565b61036360006144e06103636115bf565b01610560565b506103ba61449d565b6103ba906144e6565b6103637f4910fdfa16fed3260ed0e7147f7cc6da11a60208b5b9406d12a635614ffd9143610df6565b905051906103ba826103bc565b906020828203126102e75761036391614521565b1561454957565b60405162461bcd60e51b815260206004820152602960248201527f45524331393637557067726164653a20756e737570706f727465642070726f786044820152681a58589b195555525160ba1b6064820152608490fd5b91906145b860006145b26103636144f8565b01610586565b156145c85750506103ba90614c09565b6145d46111d58461084b565b9260206145e060405190565b6352d1902d60e01b815294859060049082905afa6000948161467e575b5061465e5760405162461bcd60e51b815260206004820152602e60248201527f45524331393637557067726164653a206e657720696d706c656d656e7461746960448201526d6f6e206973206e6f74205555505360901b6064820152608490fd5b6146796103ba94614673611c3e6103636115bf565b14614542565b614b68565b6146a191955060203d6020116146a8575b61469981836108b3565b81019061452e565b93386145fd565b503d61468f565b3b6146bd611c3e6000610df6565b1190565b156146c857565b60405162461bcd60e51b815260206004820152602b60248201527f496e697469616c697a61626c653a20636f6e7472616374206973206e6f74206960448201526a6e697469616c697a696e6760a81b6064820152608490fd5b906103ba916147386147336000610695565b6146c1565b906103ba91614c59565b906103ba91614721565b6147596147336000610695565b6103ba6103ba614c7a565b6103ba61474c565b6147796147336000610695565b6103ba6103ba614c8f565b6103ba61476c565b6103ba6147336000610695565b6103ba61478c565b156147a857565b60405162461bcd60e51b815260206004820152601f60248201527f45524332303a206d696e7420746f20746865207a65726f2061646472657373006044820152606490fd5b600080516020614e3c83398151915261444861443e61443861480f60006131ee565b61482b61481b82610391565b61482488610391565b14156147a1565b61484361483c886114d06035610571565b6035611e15565b6111d5614851876033610854565b61339e8961034e83610571565b61487f61487961486e6065610560565b6111d58460656120c4565b9161084b565b907f8be0079c531659141344cd1fd0a4f28419497f9722a3daafe3b4186f6b6457e06148aa60405190565b8080614448565b6103636002610df6565b156148c257565b60405162461bcd60e51b815260206004820152601f60248201527f5265656e7472616e637947756172643a207265656e7472616e742063616c6c006044820152606490fd5b6103ba6149146097610571565b61492861491f6148b1565b918214156148bb565b6097611e15565b6103636001610df6565b6103ba61492861492f565b1561494b57565b60405162461bcd60e51b815260206004820152602560248201527f45524332303a207472616e736665722066726f6d20746865207a65726f206164604482015264647265737360d81b6064820152608490fd5b156149a557565b60405162461bcd60e51b815260206004820152602360248201527f45524332303a207472616e7366657220746f20746865207a65726f206164647260448201526265737360e81b6064820152608490fd5b156149fd57565b60405162461bcd60e51b815260206004820152602660248201527f45524332303a207472616e7366657220616d6f756e7420657863656564732062604482015265616c616e636560d01b6064820152608490fd5b61444861443e614438600080516020614e3c83398151915293614aa6614a96614a7a60006131ee565b613358614a8682610391565b614a8f86610391565b1415614944565b614a9f88610391565b141561499e565b6111d5614851876033610e22614acf8c614ac36112e38986610854565b613c05828210156149f6565b61303e8784610854565b6110d0919033614a51565b15614aeb57565b60405162461bcd60e51b815260206004820152601d60248201527f45524332303a20696e73756666696369656e7420616c6c6f77616e63650000006044820152606490fd5b90614b3b818361425b565b6000198103614b4b575b50505050565b614b5f936114d591613c0582821015614ae4565b38808080614b45565b91614b7283614c97565b8151614b81611c3e6000610df6565b11908115614b9f575b50614b93575050565b614b9c91614d20565b50565b905038614b8a565b15614bae57565b60405162461bcd60e51b815260206004820152602d60248201527f455243313936373a206e657720696d706c656d656e746174696f6e206973206e60448201526c1bdd08184818dbdb9d1c9858dd609a1b6064820152608490fd5b6103ba90614c1e614c19826146af565b614ba7565b6000614c2b6103636115bf565b016120c4565b906103ba91614c436147336000610695565b90614c526103ba92603661244f565b603761244f565b906103ba91614c31565b614c706147336000610695565b6103ba803361485e565b6103ba614c63565b61321d6147336000610695565b6103ba614c82565b614ca4906111d581614c09565b7fbc7cd75a20ee27fd9adebab32041f755214dbc6bffa90cc0225b39da2e5c2d3b614cce60405190565b80806111e4565b614cdf602761142b565b7f416464726573733a206c6f772d6c6576656c2064656c65676174652063616c6c6020820152660819985a5b195960ca1b604082015290565b610363614cd5565b61036391614d2c614d18565b916000806103639493614d3d606090565b50602081519101845af4614d4f6130ee565b91614da1565b15614d5c57565b60405162461bcd60e51b815260206004820152601d60248201527f416464726573733a2063616c6c20746f206e6f6e2d636f6e74726163740000006044820152606490fd5b91929015614dd357508151614db9611c3e6000610df6565b14614dc2575090565b614dce610363916146af565b614d55565b8290614ddd825190565b614dea611c3e6000610df6565b1115614df95750805190602001fd5b61118690614e0660405190565b62461bcd60e51b81529182916004830161035256fe46756e6374696f6e206d7573742062652063616c6c6564207468726f75676820ddf252ad1be2c89b69c2b068fc378daa952ba7f163c4a11628f55a4df523b3efa2646970667358221220143813a470fb3a1be41c05b42b4dce577edf2f9111fefb163cdab0852a4292dc64736f6c63430008160033",
  "linkReferences": {},
  "deployedLinkReferences": {}
}