{
  "_format": "hh-sol-artifact-1",
  "contractName": "TokenTemplate_v3",
  "sourceName": "src/contracts/TokenTemplate_v3.sol",
  "abi": [
    {
      "inputs": [],
      "stateMutability": "nonpayable",
      "type": "constructor"
    },
    {
      "anonymous": false,
      "inputs": [
        {
          "indexed": false,
          "internalType": "address",
          "name": "previousAdmin",
          "type": "address"
        },
        {
          "indexed": false,
          "internalType": "address",
          "name": "newAdmin",
          "type": "address"
        }
      ],
      "name": "AdminChanged",
      "type": "event"
    },
    {
      "anonymous": false,
      "inputs": [
        {
          "indexed": true,
          "internalType": "address",
          "name": "owner",
          "type": "address"
        },
        {
          "indexed": true,
          "internalType": "address",
          "name": "spender",
          "type": "address"
        },
        {
          "indexed": false,
          "internalType": "uint256",
          "name": "value",
          "type": "uint256"
        }
      ],
      "name": "Approval",
      "type": "event"
    },
    {
      "anonymous": false,
      "inputs": [
        {
          "indexed": true,
          "internalType": "address",
          "name": "beacon",
          "type": "address"
        }
      ],
      "name": "BeaconUpgraded",
      "type": "event"
    },
    {
      "anonymous": false,
      "inputs": [
        {
          "indexed": false,
          "internalType": "address[]",
          "name": "addresses",
          "type": "address[]"
        },
        {
          "indexed": false,
          "internalType": "bool",
          "name": "status",
          "type": "bool"
        }
      ],
      "name": "BlacklistUpdated",
      "type": "event"
    },
    {
      "anonymous": false,
      "inputs": [
        {
          "indexed": false,
          "internalType": "address",
          "name": "contributor",
          "type": "address"
        },
        {
          "indexed": false,
          "internalType": "uint256",
          "name": "amount",
          "type": "uint256"
        }
      ],
      "name": "ContributionReceived",
      "type": "event"
    },
    {
      "anonymous": false,
      "inputs": [
        {
          "indexed": false,
          "internalType": "address",
          "name": "contributor",
          "type": "address"
        },
        {
          "indexed": false,
          "internalType": "uint256",
          "name": "amount",
          "type": "uint256"
        }
      ],
      "name": "ContributionRefunded",
      "type": "event"
    },
    {
      "anonymous": false,
      "inputs": [
        {
          "indexed": false,
          "internalType": "uint8",
          "name": "version",
          "type": "uint8"
        }
      ],
      "name": "Initialized",
      "type": "event"
    },
    {
      "anonymous": false,
      "inputs": [
        {
          "indexed": true,
          "internalType": "address",
          "name": "previousOwner",
          "type": "address"
        },
        {
          "indexed": true,
          "internalType": "address",
          "name": "newOwner",
          "type": "address"
        }
      ],
      "name": "OwnershipTransferred",
      "type": "event"
    },
    {
      "anonymous": false,
      "inputs": [
        {
          "indexed": false,
          "internalType": "address",
          "name": "account",
          "type": "address"
        }
      ],
      "name": "Paused",
      "type": "event"
    },
    {
      "anonymous": false,
      "inputs": [
        {
          "indexed": false,
          "internalType": "uint256",
          "name": "amount",
          "type": "uint256"
        }
      ],
      "name": "PlatformFeeClaimed",
      "type": "event"
    },
    {
      "anonymous": false,
      "inputs": [
        {
          "indexed": false,
          "internalType": "uint256",
          "name": "totalContributed",
          "type": "uint256"
        },
        {
          "indexed": false,
          "internalType": "uint256",
          "name": "tokensDistributed",
          "type": "uint256"
        }
      ],
      "name": "PresaleFinalized",
      "type": "event"
    },
    {
      "anonymous": false,
      "inputs": [
        {
          "indexed": false,
          "internalType": "uint256",
          "name": "softCap",
          "type": "uint256"
        },
        {
          "indexed": false,
          "internalType": "uint256",
          "name": "hardCap",
          "type": "uint256"
        },
        {
          "indexed": false,
          "internalType": "uint256",
          "name": "startTime",
          "type": "uint256"
        },
        {
          "indexed": false,
          "internalType": "uint256",
          "name": "endTime",
          "type": "uint256"
        },
        {
          "indexed": false,
          "internalType": "uint256",
          "name": "presaleRate",
          "type": "uint256"
        }
      ],
      "name": "PresaleStarted",
      "type": "event"
    },
    {
      "anonymous": false,
      "inputs": [
        {
          "indexed": false,
          "internalType": "address",
          "name": "account",
          "type": "address"
        },
        {
          "indexed": false,
          "internalType": "uint256",
          "name": "unlockTime",
          "type": "uint256"
        }
      ],
      "name": "TimeLockSet",
      "type": "event"
    },
    {
      "anonymous": false,
      "inputs": [
        {
          "indexed": true,
          "internalType": "address",
          "name": "from",
          "type": "address"
        },
        {
          "indexed": true,
          "internalType": "address",
          "name": "to",
          "type": "address"
        },
        {
          "indexed": false,
          "internalType": "uint256",
          "name": "value",
          "type": "uint256"
        }
      ],
      "name": "Transfer",
      "type": "event"
    },
    {
      "anonymous": false,
      "inputs": [
        {
          "indexed": false,
          "internalType": "address",
          "name": "account",
          "type": "address"
        }
      ],
      "name": "Unpaused",
      "type": "event"
    },
    {
      "anonymous": false,
      "inputs": [
        {
          "indexed": true,
          "internalType": "address",
          "name": "implementation",
          "type": "address"
        }
      ],
      "name": "Upgraded",
      "type": "event"
    },
    {
      "anonymous": false,
      "inputs": [
        {
          "indexed": false,
          "internalType": "address[]",
          "name": "addresses",
          "type": "address[]"
        },
        {
          "indexed": false,
          "internalType": "bool",
          "name": "status",
          "type": "bool"
        }
      ],
      "name": "WhitelistUpdated",
      "type": "event"
    },
    {
      "inputs": [],
      "name": "VERSION",
      "outputs": [
        {
          "internalType": "string",
          "name": "",
          "type": "string"
        }
      ],
      "stateMutability": "view",
      "type": "function"
    },
    {
      "inputs": [
        {
          "internalType": "address",
          "name": "owner",
          "type": "address"
        },
        {
          "internalType": "address",
          "name": "spender",
          "type": "address"
        }
      ],
      "name": "allowance",
      "outputs": [
        {
          "internalType": "uint256",
          "name": "",
          "type": "uint256"
        }
      ],
      "stateMutability": "view",
      "type": "function"
    },
    {
      "inputs": [
        {
          "internalType": "address",
          "name": "spender",
          "type": "address"
        },
        {
          "internalType": "uint256",
          "name": "amount",
          "type": "uint256"
        }
      ],
      "name": "approve",
      "outputs": [
        {
          "internalType": "bool",
          "name": "",
          "type": "bool"
        }
      ],
      "stateMutability": "nonpayable",
      "type": "function"
    },
    {
      "inputs": [
        {
          "internalType": "address",
          "name": "account",
          "type": "address"
        }
      ],
      "name": "balanceOf",
      "outputs": [
        {
          "internalType": "uint256",
          "name": "",
          "type": "uint256"
        }
      ],
      "stateMutability": "view",
      "type": "function"
    },
    {
      "inputs": [
        {
          "internalType": "address",
          "name": "",
          "type": "address"
        }
      ],
      "name": "blacklist",
      "outputs": [
        {
          "internalType": "bool",
          "name": "",
          "type": "bool"
        }
      ],
      "stateMutability": "view",
      "type": "function"
    },
    {
      "inputs": [],
      "name": "blacklistEnabled",
      "outputs": [
        {
          "internalType": "bool",
          "name": "",
          "type": "bool"
        }
      ],
      "stateMutability": "view",
      "type": "function"
    },
    {
      "inputs": [
        {
          "internalType": "uint256",
          "name": "amount",
          "type": "uint256"
        }
      ],
      "name": "burn",
      "outputs": [],
      "stateMutability": "nonpayable",
      "type": "function"
    },
    {
      "inputs": [
        {
          "internalType": "address",
          "name": "account",
          "type": "address"
        },
        {
          "internalType": "uint256",
          "name": "amount",
          "type": "uint256"
        }
      ],
      "name": "burnFrom",
      "outputs": [],
      "stateMutability": "nonpayable",
      "type": "function"
    },
    {
      "inputs": [],
      "name": "contribute",
      "outputs": [],
      "stateMutability": "payable",
      "type": "function"
    },
    {
      "inputs": [
        {
          "internalType": "address",
          "name": "",
          "type": "address"
        }
      ],
      "name": "contributions",
      "outputs": [
        {
          "internalType": "uint256",
          "name": "",
          "type": "uint256"
        }
      ],
      "stateMutability": "view",
      "type": "function"
    },
    {
      "inputs": [],
      "name": "decimals",
      "outputs": [
        {
          "internalType": "uint8",
          "name": "",
          "type": "uint8"
        }
      ],
      "stateMutability": "view",
      "type": "function"
    },
    {
      "inputs": [
        {
          "internalType": "address",
          "name": "spender",
          "type": "address"
        },
        {
          "internalType": "uint256",
          "name": "subtractedValue",
          "type": "uint256"
        }
      ],
      "name": "decreaseAllowance",
      "outputs": [
        {
          "internalType": "bool",
          "name": "",
          "type": "bool"
        }
      ],
      "stateMutability": "nonpayable",
      "type": "function"
    },
    {
      "inputs": [],
      "name": "finalize",
      "outputs": [],
      "stateMutability": "nonpayable",
      "type": "function"
    },
    {
      "inputs": [
        {
          "internalType": "address",
          "name": "spender",
          "type": "address"
        },
        {
          "internalType": "uint256",
          "name": "addedValue",
          "type": "uint256"
        }
      ],
      "name": "increaseAllowance",
      "outputs": [
        {
          "internalType": "bool",
          "name": "",
          "type": "bool"
        }
      ],
      "stateMutability": "nonpayable",
      "type": "function"
    },
    {
      "inputs": [
        {
          "components": [
            {
              "internalType": "string",
              "name": "name",
              "type": "string"
            },
            {
              "internalType": "string",
              "name": "symbol",
              "type": "string"
            },
            {
              "internalType": "uint256",
              "name": "initialSupply",
              "type": "uint256"
            },
            {
              "internalType": "uint256",
              "name": "maxSupply",
              "type": "uint256"
            },
            {
              "internalType": "address",
              "name": "owner",
              "type": "address"
            },
            {
              "internalType": "bool",
              "name": "enableBlacklist",
              "type": "bool"
            },
            {
              "internalType": "bool",
              "name": "enableTimeLock",
              "type": "bool"
            },
            {
              "internalType": "uint256",
              "name": "presaleRate",
              "type": "uint256"
            },
            {
              "internalType": "uint256",
              "name": "minContribution",
              "type": "uint256"
            },
            {
              "internalType": "uint256",
              "name": "maxContribution",
              "type": "uint256"
            },
            {
              "internalType": "uint256",
              "name": "presaleCap",
              "type": "uint256"
            },
            {
              "internalType": "uint256",
              "name": "startTime",
              "type": "uint256"
            },
            {
              "internalType": "uint256",
              "name": "endTime",
              "type": "uint256"
            },
            {
              "internalType": "uint256",
              "name": "presalePercentage",
              "type": "uint256"
            },
            {
              "internalType": "uint256",
              "name": "liquidityPercentage",
              "type": "uint256"
            },
            {
              "internalType": "uint256",
              "name": "liquidityLockDuration",
              "type": "uint256"
            },
            {
              "internalType": "address",
              "name": "marketingWallet",
              "type": "address"
            },
            {
              "internalType": "uint256",
              "name": "marketingPercentage",
              "type": "uint256"
            },
            {
              "internalType": "address",
              "name": "teamWallet",
              "type": "address"
            },
            {
              "internalType": "uint256",
              "name": "teamPercentage",
              "type": "uint256"
            }
          ],
          "internalType": "struct TokenTemplate_v3.InitParams",
          "name": "params",
          "type": "tuple"
        }
      ],
      "name": "initialize",
      "outputs": [],
      "stateMutability": "nonpayable",
      "type": "function"
    },
    {
      "inputs": [],
      "name": "maxSupply",
      "outputs": [
        {
          "internalType": "uint256",
          "name": "",
          "type": "uint256"
        }
      ],
      "stateMutability": "view",
      "type": "function"
    },
    {
      "inputs": [],
      "name": "name",
      "outputs": [
        {
          "internalType": "string",
          "name": "",
          "type": "string"
        }
      ],
      "stateMutability": "view",
      "type": "function"
    },
    {
      "inputs": [],
      "name": "owner",
      "outputs": [
        {
          "internalType": "address",
          "name": "",
          "type": "address"
        }
      ],
      "stateMutability": "view",
      "type": "function"
    },
    {
      "inputs": [],
      "name": "paused",
      "outputs": [
        {
          "internalType": "bool",
          "name": "",
          "type": "bool"
        }
      ],
      "stateMutability": "view",
      "type": "function"
    },
    {
      "inputs": [],
      "name": "platformFeeCliffDuration",
      "outputs": [
        {
          "internalType": "uint256",
          "name": "",
          "type": "uint256"
        }
      ],
      "stateMutability": "view",
      "type": "function"
    },
    {
      "inputs": [],
      "name": "platformFeeRecipient",
      "outputs": [
        {
          "internalType": "address",
          "name": "",
          "type": "address"
        }
      ],
      "stateMutability": "view",
      "type": "function"
    },
    {
      "inputs": [],
      "name": "platformFeeTokens",
      "outputs": [
        {
          "internalType": "uint256",
          "name": "",
          "type": "uint256"
        }
      ],
      "stateMutability": "view",
      "type": "function"
    },
    {
      "inputs": [],
      "name": "platformFeeTokensClaimed",
      "outputs": [
        {
          "internalType": "uint256",
          "name": "",
          "type": "uint256"
        }
      ],
      "stateMutability": "view",
      "type": "function"
    },
    {
      "inputs": [],
      "name": "platformFeeVestingDuration",
      "outputs": [
        {
          "internalType": "uint256",
          "name": "",
          "type": "uint256"
        }
      ],
      "stateMutability": "view",
      "type": "function"
    },
    {
      "inputs": [],
      "name": "platformFeeVestingEnabled",
      "outputs": [
        {
          "internalType": "bool",
          "name": "",
          "type": "bool"
        }
      ],
      "stateMutability": "view",
      "type": "function"
    },
    {
      "inputs": [],
      "name": "platformFeeVestingStart",
      "outputs": [
        {
          "internalType": "uint256",
          "name": "",
          "type": "uint256"
        }
      ],
      "stateMutability": "view",
      "type": "function"
    },
    {
      "inputs": [],
      "name": "presaleInfo",
      "outputs": [
        {
          "internalType": "uint256",
          "name": "softCap",
          "type": "uint256"
        },
        {
          "internalType": "uint256",
          "name": "hardCap",
          "type": "uint256"
        },
        {
          "internalType": "uint256",
          "name": "minContribution",
          "type": "uint256"
        },
        {
          "internalType": "uint256",
          "name": "maxContribution",
          "type": "uint256"
        },
        {
          "internalType": "uint256",
          "name": "startTime",
          "type": "uint256"
        },
        {
          "internalType": "uint256",
          "name": "endTime",
          "type": "uint256"
        },
        {
          "internalType": "uint256",
          "name": "presaleRate",
          "type": "uint256"
        },
        {
          "internalType": "bool",
          "name": "whitelistEnabled",
          "type": "bool"
        },
        {
          "internalType": "bool",
          "name": "finalized",
          "type": "bool"
        },
        {
          "internalType": "uint256",
          "name": "totalContributed",
          "type": "uint256"
        }
      ],
      "stateMutability": "view",
      "type": "function"
    },
    {
      "inputs": [],
      "name": "proxiableUUID",
      "outputs": [
        {
          "internalType": "bytes32",
          "name": "",
          "type": "bytes32"
        }
      ],
      "stateMutability": "view",
      "type": "function"
    },
    {
      "inputs": [],
      "name": "renounceOwnership",
      "outputs": [],
      "stateMutability": "nonpayable",
      "type": "function"
    },
    {
      "inputs": [
        {
          "internalType": "address",
          "name": "account",
          "type": "address"
        },
        {
          "internalType": "uint256",
          "name": "unlockTime",
          "type": "uint256"
        }
      ],
      "name": "setTimeLock",
      "outputs": [],
      "stateMutability": "nonpayable",
      "type": "function"
    },
    {
      "inputs": [],
      "name": "symbol",
      "outputs": [
        {
          "internalType": "string",
          "name": "",
          "type": "string"
        }
      ],
      "stateMutability": "view",
      "type": "function"
    },
    {
      "inputs": [],
      "name": "timeLockEnabled",
      "outputs": [
        {
          "internalType": "bool",
          "name": "",
          "type": "bool"
        }
      ],
      "stateMutability": "view",
      "type": "function"
    },
    {
      "inputs": [
        {
          "internalType": "address",
          "name": "",
          "type": "address"
        }
      ],
      "name": "timeLocks",
      "outputs": [
        {
          "internalType": "uint256",
          "name": "",
          "type": "uint256"
        }
      ],
      "stateMutability": "view",
      "type": "function"
    },
    {
      "inputs": [],
      "name": "totalSupply",
      "outputs": [
        {
          "internalType": "uint256",
          "name": "",
          "type": "uint256"
        }
      ],
      "stateMutability": "view",
      "type": "function"
    },
    {
      "inputs": [
        {
          "internalType": "address",
          "name": "to",
          "type": "address"
        },
        {
          "internalType": "uint256",
          "name": "amount",
          "type": "uint256"
        }
      ],
      "name": "transfer",
      "outputs": [
        {
          "internalType": "bool",
          "name": "",
          "type": "bool"
        }
      ],
      "stateMutability": "nonpayable",
      "type": "function"
    },
    {
      "inputs": [
        {
          "internalType": "address",
          "name": "from",
          "type": "address"
        },
        {
          "internalType": "address",
          "name": "to",
          "type": "address"
        },
        {
          "internalType": "uint256",
          "name": "amount",
          "type": "uint256"
        }
      ],
      "name": "transferFrom",
      "outputs": [
        {
          "internalType": "bool",
          "name": "",
          "type": "bool"
        }
      ],
      "stateMutability": "nonpayable",
      "type": "function"
    },
    {
      "inputs": [
        {
          "internalType": "address",
          "name": "newOwner",
          "type": "address"
        }
      ],
      "name": "transferOwnership",
      "outputs": [],
      "stateMutability": "nonpayable",
      "type": "function"
    },
    {
      "inputs": [
        {
          "internalType": "address[]",
          "name": "addresses",
          "type": "address[]"
        },
        {
          "internalType": "bool",
          "name": "status",
          "type": "bool"
        }
      ],
      "name": "updateBlacklist",
      "outputs": [],
      "stateMutability": "nonpayable",
      "type": "function"
    },
    {
      "inputs": [
        {
          "internalType": "address[]",
          "name": "addresses",
          "type": "address[]"
        },
        {
          "internalType": "bool",
          "name": "status",
          "type": "bool"
        }
      ],
      "name": "updateWhitelist",
      "outputs": [],
      "stateMutability": "nonpayable",
      "type": "function"
    },
    {
      "inputs": [
        {
          "internalType": "address",
          "name": "newImplementation",
          "type": "address"
        }
      ],
      "name": "upgradeTo",
      "outputs": [],
      "stateMutability": "nonpayable",
      "type": "function"
    },
    {
      "inputs": [
        {
          "internalType": "address",
          "name": "newImplementation",
          "type": "address"
        },
        {
          "internalType": "bytes",
          "name": "data",
          "type": "bytes"
        }
      ],
      "name": "upgradeToAndCall",
      "outputs": [],
      "stateMutability": "payable",
      "type": "function"
    },
    {
      "inputs": [
        {
          "internalType": "address",
          "name": "",
          "type": "address"
        }
      ],
      "name": "whitelist",
      "outputs": [
        {
          "internalType": "bool",
          "name": "",
          "type": "bool"
        }
      ],
      "stateMutability": "view",
      "type": "function"
    }
  ],
  "bytecode": "0x60a080604052346100dd57306080526000549060ff8260081c1661008b575060ff80821603610050575b6040516130349081620000e38239608051818181610d6401528181610e64015261133d0152f35b60ff90811916176000557f7f26b83ff96e1f2b6a682f133852f6798a09c465da95921460cefb3847402498602060405160ff8152a138610029565b62461bcd60e51b815260206004820152602760248201527f496e697469616c697a61626c653a20636f6e747261637420697320696e697469604482015266616c697a696e6760c81b6064820152608490fd5b600080fdfe608080604052600436101561001357600080fd5b60003560e01c90816306fdde03146120d557508063095ea7b3146120af578063113d478b1461209057806318160ddd14612072578063229f92a11461169057806323b872dd146116585780632791770a146116395780632edf0869146115b9578063313ce5671461159d5780633659cfe61461131957806339509351146112c8578063420fc210146112a957806342966c681461128c57806342e94c90146112515780634bb278f3146110a95780634f1ef28614610e1557806352d1902d14610d515780635c975abb14610d2e57806363280c5114610d0f578063644fab7414610bfb5780636b7f3d1a14610bdc57806370a0823114610ba2578063715018a614610b4557806379cc679014610b155780637f76b22314610ada5780638da5cb5b14610ab157806395d89b41146109e45780639b19251a146109a4578063a457c2d7146108fd578063a9059cbb146108cc578063aff177ca146107ed578063bb0e69e814610704578063bffb691d146106e0578063cba4cbd3146106b9578063d5abeb011461069a578063d7bb99ba146103ca578063dd62ed3e14610379578063eb13554f1461034f578063f2fde38b146102c0578063f9f92be414610280578063fadcac271461025c5763ffa1ad74146101ed57600080fd5b346102575760003660031901126102575760405160408101908082106001600160401b038311176102415761023d9160405260058152640332e302e360dc1b602082015260405191829182612168565b0390f35b634e487b7160e01b600052604160045260246000fd5b600080fd5b3461025757600036600319011261025757602060ff6101d454166040519015158152f35b34610257576020366003190112610257576001600160a01b036102a16121b1565b166000526101d0602052602060ff604060002054166040519015158152f35b34610257576020366003190112610257576102d96121b1565b6102e1612da1565b6001600160a01b038116156102fb576102f990612e50565b005b60405162461bcd60e51b815260206004820152602660248201527f4f776e61626c653a206e6577206f776e657220697320746865207a65726f206160448201526564647265737360d01b6064820152608490fd5b34610257576000366003190112610257576101d2546040516001600160a01b039091168152602090f35b34610257576040366003190112610257576103926121b1565b61039a6121c7565b9060018060a01b038091166000526034602052604060002091166000526020526020604060002054604051908152f35b6000366003190112610257576103de612df9565b6101c754421061065f576101c854421161062a576101ca5460ff8160081c166105f1576101c55434106105b3576101c654803411610575576101cb91610425348454612373565b6101c4541061053d5760ff166104ef575b336000526101cd8060205261045034604060002054612373565b9182116104aa573360005260205260406000205561046f348254612373565b9055604080513381523460208201527f1bb460ccaaf70fbacfec17a376f8acbd278c1405590ffcc8ebe4b88daf4f64ad9190a1600161019155005b60405162461bcd60e51b815260206004820152601d60248201527f576f756c6420657863656564206d617820636f6e747269627574696f6e0000006044820152606490fd5b336000526101cc60205260ff604060002054166104365760405162461bcd60e51b815260206004820152600f60248201526e139bdd081dda1a5d195b1a5cdd1959608a1b6044820152606490fd5b60405162461bcd60e51b815260206004820152601060248201526f12185c990818d85c081c995858da195960821b6044820152606490fd5b60405162461bcd60e51b815260206004820152601660248201527520b137bb329036b0bc1031b7b73a3934b13aba34b7b760511b6044820152606490fd5b60405162461bcd60e51b81526020600482015260166024820152752132b637bb9036b4b71031b7b73a3934b13aba34b7b760511b6044820152606490fd5b60405162461bcd60e51b8152602060048201526011602482015270141c995cd85b1948199a5b985b1a5e9959607a1b6044820152606490fd5b60405162461bcd60e51b815260206004820152600d60248201526c141c995cd85b1948195b991959609a1b6044820152606490fd5b60405162461bcd60e51b8152602060048201526013602482015272141c995cd85b19481b9bdd081cdd185c9d1959606a1b6044820152606490fd5b346102575760003660031901126102575760206101ce54604051908152f35b3461025757600036600319011261025757602060ff6101cf5460081c166040519015158152f35b3461025757600036600319011261025757602060ff6101cf54166040519015158152f35b346102575761071236612286565b9161071b612da1565b60ff6101cf5416156107b05760005b82811061076857506107637f11d4d128e8f89ae2e8815168b9eba079dd6668b75f1e3a9dd96ac6192a7c4dcb93604051938493846124e2565b0390a1005b6001906001600160a01b036107866107818387876124bc565b612396565b166000526101d06020526107aa8560406000209060ff801983541691151516179055565b0161072a565b60405162461bcd60e51b8152602060048201526015602482015274109b1858dadb1a5cdd081b9bdd08195b98589b1959605a1b6044820152606490fd5b34610257576107fb36612286565b91610804612da1565b60ff6101ca54161561088f5760005b82811061084c57506107637fa091d95aa3f4b3529e12c57e1e9e10580edde8a7ac6fd51dd3c8e824c332dbe093604051938493846124e2565b6001906001600160a01b036108656107818387876124bc565b166000526101cc6020526108898560406000209060ff801983541691151516179055565b01610813565b60405162461bcd60e51b815260206004820152601560248201527415da1a5d195b1a5cdd081b9bdd08195b98589b1959605a1b6044820152606490fd5b34610257576040366003190112610257576108f26108e86121b1565b6024359033612954565b602060405160018152f35b34610257576040366003190112610257576109166121b1565b60243590336000526034602052604060002060018060a01b03821660005260205260406000205491808310610951576108f29203903361253d565b60405162461bcd60e51b815260206004820152602560248201527f45524332303a2064656372656173656420616c6c6f77616e63652062656c6f77604482015264207a65726f60d81b6064820152608490fd5b34610257576020366003190112610257576001600160a01b036109c56121b1565b166000526101cc602052602060ff604060002054166040519015158152f35b34610257576000366003190112610257576040516000603754610a06816122df565b80845290602090600190818116908115610a875750600114610a3f575b61023d85610a3381870382612213565b60405191829182612168565b603760009081529350600080516020612fdf8339815191525b838510610a7457505050508101602001610a338261023d610a23565b8054868601840152938201938101610a58565b86955061023d96935060209250610a3394915060ff191682840152151560051b8201019293610a23565b346102575760003660031901126102575760fb546040516001600160a01b039091168152602090f35b34610257576020366003190112610257576001600160a01b03610afb6121b1565b166000526101d16020526020604060002054604051908152f35b34610257576040366003190112610257576102f9610b316121b1565b60243590610b408233836128bc565b612bad565b3461025757600036600319011261025757610b5e612da1565b60fb80546001600160a01b031981169091556000906001600160a01b03167f8be0079c531659141344cd1fd0a4f28419497f9722a3daafe3b4186f6b6457e08280a3005b34610257576020366003190112610257576001600160a01b03610bc36121b1565b1660005260336020526020604060002054604051908152f35b346102575760003660031901126102575760206101d354604051908152f35b3461025757604036600319011261025757610c146121b1565b602435610c1f612da1565b60ff6101cf5460081c1615610cd25742811115610c8d576001600160a01b0390911660008181526101d1602090815260409182902084905581519283528201929092527fa9353e70f07f31e7f4e16464f45e189cbd22826780a5abe4da8303652a86960a9181908101610763565b60405162461bcd60e51b815260206004820152601d60248201527f556e6c6f636b2074696d65206d75737420626520696e206675747572650000006044820152606490fd5b60405162461bcd60e51b8152602060048201526015602482015274151a5b59481b1bd8dac81b9bdd08195b98589b1959605a1b6044820152606490fd5b346102575760003660031901126102575760206101d854604051908152f35b3461025757600036600319011261025757602060ff609754166040519015158152f35b34610257576000366003190112610257577f00000000000000000000000000000000000000000000000000000000000000006001600160a01b03163003610daa576020604051600080516020612fbf8339815191528152f35b60405162461bcd60e51b815260206004820152603860248201527f555550535570677261646561626c653a206d757374206e6f742062652063616c60448201527f6c6564207468726f7567682064656c656761746563616c6c00000000000000006064820152608490fd5b604036600319011261025757610e296121b1565b6024356001600160401b038111610257573660238201121561025757610e5990369060248160040135910161224f565b906001600160a01b037f0000000000000000000000000000000000000000000000000000000000000000811690610e92308314156123ca565b610eaf600080516020612fbf83398151915292828454161461242b565b610eb7612da1565b7f4910fdfa16fed3260ed0e7147f7cc6da11a60208b5b9406d12a635614ffd91435460ff1615610eed5750506102f99150612e99565b6040516352d1902d60e01b81526020939291831691908481600481865afa6000918161107a575b50610f755760405162461bcd60e51b815260048101869052602e60248201527f45524331393637557067726164653a206e657720696d706c656d656e7461746960448201526d6f6e206973206e6f74205555505360901b6064820152608490fd5b0361102357610f8382612e99565b7fbc7cd75a20ee27fd9adebab32041f755214dbc6bffa90cc0225b39da2e5c2d3b600080a282511580159061101b575b610fb957005b6000806102f99460405194610fcd866121f8565b602786527f416464726573733a206c6f772d6c6576656c2064656c65676174652063616c6c81870152660819985a5b195960ca1b604087015281519101845af461101561248c565b91612f29565b506001610fb3565b60405162461bcd60e51b815260048101849052602960248201527f45524331393637557067726164653a20756e737570706f727465642070726f786044820152681a58589b195555525160ba1b6064820152608490fd5b9091508581813d83116110a2575b6110928183612213565b8101031261025757519087610f14565b503d611088565b34610257576000366003190112610257576110c2612da1565b6110ca612df9565b6101c854421115611218576101ca805460ff8160081c166111df576101cb918254906101c35482106111a35761010061110f9361ff0019161790556101c954906123b7565b90600080808060018060a01b0360fb541647905af161112c61248c565b501561116c577fedfde254cb8ed39d650c9a34251c59d6817fae4cc876cc2ce76669976cf102ee91604091549082519182526020820152a1600161019155005b60405162461bcd60e51b815260206004820152600f60248201526e151c985b9cd9995c8819985a5b1959608a1b6044820152606490fd5b60405162461bcd60e51b815260206004820152601460248201527314dbd99d0818d85c081b9bdd081c995858da195960621b6044820152606490fd5b60405162461bcd60e51b8152602060048201526011602482015270105b1c9958591e48199a5b985b1a5e9959607a1b6044820152606490fd5b60405162461bcd60e51b8152602060048201526011602482015270141c995cd85b19481b9bdd08195b991959607a1b6044820152606490fd5b34610257576020366003190112610257576001600160a01b036112726121b1565b166000526101cd6020526020604060002054604051908152f35b34610257576020366003190112610257576102f960043533612bad565b346102575760003660031901126102575760206101d554604051908152f35b34610257576040366003190112610257576108f26112e46121b1565b336000526034602052604060002060018060a01b038216600052602052611312602435604060002054612373565b903361253d565b3461025757602080600319360112610257576113336121b1565b6001600160a01b037f00000000000000000000000000000000000000000000000000000000000000008116929061136c308514156123ca565b611389600080516020612fbf83398151915294828654161461242b565b611391612da1565b60405193828501918583106001600160401b0384111761024157826040526000865260ff7f4910fdfa16fed3260ed0e7147f7cc6da11a60208b5b9406d12a635614ffd914354166000146113ed57505050506102f99150612e99565b84939416906040516352d1902d60e01b81528581600481865afa6000918161156e575b506114715760405162461bcd60e51b815260048101879052602e60248201527f45524331393637557067726164653a206e657720696d706c656d656e7461746960448201526d6f6e206973206e6f74205555505360901b6064820152608490fd5b036115175761147f83612e99565b7fbc7cd75a20ee27fd9adebab32041f755214dbc6bffa90cc0225b39da2e5c2d3b600080a283511580159061150f575b6114b557005b600080916102f9957f416464726573733a206c6f772d6c6576656c2064656c65676174652063616c6c604051966114eb886121f8565b60278852870152660819985a5b195960ca1b60408701525190845af461101561248c565b5060006114af565b60405162461bcd60e51b815260048101859052602960248201527f45524331393637557067726164653a20756e737570706f727465642070726f786044820152681a58589b195555525160ba1b6064820152608490fd5b9091508681813d8311611596575b6115868183612213565b8101031261025757519088611410565b503d61157c565b3461025757600036600319011261025757602060405160128152f35b34610257576000366003190112610257576101406101c3546101c45460ff6101c5546101c6546101c7546101c854906101c954926101ca54946101cb5497604051998a5260208a015260408901526060880152608087015260a086015260c0850152818116151560e085015260081c161515610100830152610120820152f35b346102575760003660031901126102575760206101d754604051908152f35b34610257576060366003190112610257576108f26116746121b1565b61167c6121c7565b6044359161168b8333836128bc565b612954565b3461025757600319602036820112610257576001600160401b03600435116102575761028060043560040191600435360301126102575760005460ff8160081c161590818092612065575b801561204e575b15611ff25760ff19811660011760005581611fe0575b5061172d61171b61172561170c8580612319565b92909560246004350190612319565b959092369161224f565b93369161224f565b9061174860ff60005460081c166117438161263f565b61263f565b82516001600160401b038111610241576117636036546122df565b601f8111611f77575b506020601f8211600114611f035781929394600092611ef8575b50508160011b916000199060031b1c1916176036555b81516001600160401b038111610241576117b76037546122df565b601f8111611e8b575b50602092601f8211600114611e1b5792819293600092611e10575b50508160011b916000199060031b1c1916176037555b61182b60ff60005460081c166118068161263f565b61180f8161263f565b6118188161263f565b60ff19609754166097556117438161263f565b61183433612e50565b61185d60ff60005460081c166118498161263f565b6118528161263f565b60016101915561263f565b604460043501356064600435013510611dbf576118ed6040517f53746172742074696d65206d75737420626520696e206675747572652e2043756020820152660393932b73a1d160cd1b6040820152426047820152680161029ba30b93a1d160bd1b606782015261016460043501356070820152607081526118de816121dd565b4261016460043501351161234b565b6119796040517f456e642074696d65206d7573742062652061667465722073746172742074696d602082015269032971029ba30b93a1d160b51b60408201526101646004350135604a820152660161022b7321d160cd1b606a8201526101846004350135607182015260718152611963816121dd565b610164600435013561018460043501351161234b565b6119b36119a56119976101c460043501356101a46004350135612373565b610224600435013590612373565b610264600435013590612373565b6040517f546f74616c2070657263656e74616765206d757374206265203935252e20476f60208201526203a1d160ed1b60408201528160438201526a01014283932b9b0b6329d160ad1b60638201526101a46004350135606e8201526c016102634b8bab4b234ba3c9d1609d1b608e8201526101c46004350135609b8201526c0161026b0b935b2ba34b7339d1609d1b60bb820152610224600435013560c882015267016102a32b0b69d160c51b60e8820152610264600435013560f0820152602960f81b61011082015260f18152806101208101106001600160401b036101208301111761024157605f611ab09261012083016040521461234b565b6001600160a01b0380611ac860043561020401612396565b1615611d7a57611add61024460043501612396565b1615611d3f57606460043501356101ce55611afc60a4600435016123aa565b15156101cf90815460ff61ff00611b1760c4600435016123aa565b151560081b1692169061ffff191617179055604051806101408101106001600160401b03610140830111176102415761014081016040908152600435610144810135600181901c80855260208501829052610104830135938501849052610124830135606086018190526101648401356080870181905261018485013560a0880181905260e486013560c08901819052600060e08a018190526101008a01819052610120999099018990526101c3949094556101c4949094556101c5959095556101c6556101c7939093556101c8556101c9919091556101ca805461ffff191690556101cb91909155611ca490606490611c1b906101a481013590604401356123b7565b04611c956064611c386101c46004350135604460043501356123b7565b04611c816064611c556102246004350135604460043501356123b7565b0491611c7b6064611c736102646004350135604460043501356123b7565b04953061269f565b3061269f565b611c9061020460043501612396565b61269f565b611c9061024460043501612396565b7f363312020dbba28eb1464ec7d5f963ebe389e1b00dab8dd54d46e2e2f2e6326160a06101c3546101c4546040519182526020820152610164600435013560408201526101846004350135606082015260e460043501356080820152a1611d0757005b61ff0019600054166000557f7f26b83ff96e1f2b6a682f133852f6798a09c465da95921460cefb3847402498602060405160018152a1005b60405162461bcd60e51b8152602060048201526013602482015272125b9d985b1a59081d19585b481dd85b1b195d606a1b6044820152606490fd5b60405162461bcd60e51b815260206004820152601860248201527f496e76616c6964206d61726b6574696e672077616c6c657400000000000000006044820152606490fd5b60405162461bcd60e51b8152602060048201526024808201527f4d617820737570706c79206d757374206265203e3d20696e697469616c20737560448201526370706c7960e01b6064820152608490fd5b0151905083806117db565b601f198216936037600052600080516020612fdf8339815191529160005b868110611e735750836001959610611e5a575b505050811b016037556117f1565b015160001960f88460031b161c19169055838080611e4c565b91926020600181928685015181550194019201611e39565b6037600052601f820160051c600080516020612fdf833981519152019060208310611ee2575b601f0160051c600080516020612fdf83398151915201905b818110611ed657506117c0565b60008155600101611ec9565b600080516020612fdf8339815191529150611eb1565b015190508480611786565b6036600052600080516020612f9f8339815191529060005b601f1984168110611f5f5750600193949583601f19811610611f46575b505050811b0160365561179c565b015160001960f88460031b161c19169055848080611f38565b9091602060018192858a015181550193019101611f1b565b6036600052601f820160051c600080516020612f9f8339815191520160208310611fcb575b601f820160051c600080516020612f9f833981519152018110611fbf575061176c565b60008155600101611f9c565b50600080516020612f9f833981519152611f9c565b61ffff191661010117600055826116f8565b60405162461bcd60e51b815260206004820152602e60248201527f496e697469616c697a61626c653a20636f6e747261637420697320616c72656160448201526d191e481a5b9a5d1a585b1a5e995960921b6064820152608490fd5b50303b1580156116e25750600160ff8216146116e2565b50600160ff8216106116db565b34610257576000366003190112610257576020603554604051908152f35b346102575760003660031901126102575760206101d654604051908152f35b34610257576040366003190112610257576108f26120cb6121b1565b602435903361253d565b346102575760003660031901126102575760006036546120f4816122df565b80845290602090600190818116908115610a8757506001146121205761023d85610a3381870382612213565b603660009081529350600080516020612f9f8339815191525b83851061215557505050508101602001610a338261023d610a23565b8054868601840152938201938101612139565b6020808252825181830181905290939260005b82811061219d57505060409293506000838284010152601f8019910116010190565b81810186015184820160400152850161217b565b600435906001600160a01b038216820361025757565b602435906001600160a01b038216820361025757565b60a081019081106001600160401b0382111761024157604052565b606081019081106001600160401b0382111761024157604052565b90601f801991011681019081106001600160401b0382111761024157604052565b6001600160401b03811161024157601f01601f191660200190565b92919261225b82612234565b916122696040519384612213565b829481845281830111610257578281602093846000960137010152565b906040600319830112610257576004356001600160401b039283821161025757806023830112156102575781600401359384116102575760248460051b8301011161025757602401919060243580151581036102575790565b90600182811c9216801561230f575b60208310146122f957565b634e487b7160e01b600052602260045260246000fd5b91607f16916122ee565b903590601e198136030182121561025757018035906001600160401b0382116102575760200191813603831361025757565b156123535750565b60405162461bcd60e51b815290819061236f9060048301612168565b0390fd5b9190820180921161238057565b634e487b7160e01b600052601160045260246000fd5b356001600160a01b03811681036102575790565b3580151581036102575790565b8181029291811591840414171561238057565b156123d157565b60405162461bcd60e51b815260206004820152602c60248201527f46756e6374696f6e206d7573742062652063616c6c6564207468726f7567682060448201526b19195b1959d85d1958d85b1b60a21b6064820152608490fd5b1561243257565b60405162461bcd60e51b815260206004820152602c60248201527f46756e6374696f6e206d7573742062652063616c6c6564207468726f7567682060448201526b6163746976652070726f787960a01b6064820152608490fd5b3d156124b7573d9061249d82612234565b916124ab6040519384612213565b82523d6000602084013e565b606090565b91908110156124cc5760051b0190565b634e487b7160e01b600052603260045260246000fd5b60408082528101839052929392916060830190600090815b8181106125105750505060209150931515910152565b909192843560018060a01b038116809103612539578152602094850194019291906001016124fa565b8480fd5b6001600160a01b039081169182156125ee571691821561259e5760207f8c5be1e5ebec7d5bd14f71427d1e84f3dd0314c0f7b2291e5b200ac8c7c3b925918360005260348252604060002085600052825280604060002055604051908152a3565b60405162461bcd60e51b815260206004820152602260248201527f45524332303a20617070726f766520746f20746865207a65726f206164647265604482015261737360f01b6064820152608490fd5b60405162461bcd60e51b8152602060048201526024808201527f45524332303a20617070726f76652066726f6d20746865207a65726f206164646044820152637265737360e01b6064820152608490fd5b1561264657565b60405162461bcd60e51b815260206004820152602b60248201527f496e697469616c697a61626c653a20636f6e7472616374206973206e6f74206960448201526a6e697469616c697a696e6760a81b6064820152608490fd5b6001600160a01b0316908115612877576101cf5460ff81166127ee575b60081c60ff16806127e6575b61277e575b60ff60975416612726577fddf252ad1be2c89b69c2b068fc378daa952ba7f163c4a11628f55a4df523b3ef602082612709600094603554612373565b6035558484526033825260408420818154019055604051908152a3565b60405162461bcd60e51b815260206004820152602a60248201527f45524332305061757361626c653a20746f6b656e207472616e736665722077686044820152691a5b19481c185d5cd95960b21b6064820152608490fd5b600080526101d16020527f317b84ddac75f0ea69bf5811368b149bf7c81698247b92d5d9a5a9dff0e528d0544210156126cd5760405162461bcd60e51b815260206004820152600d60248201526c151bdad95b9cc81b1bd8dad959609a1b6044820152606490fd5b5060006126c8565b600080526101d06020527f829b3c0c06e324cb54d5f90a76dfb1a140c4382b9f5b15e8e23751ea3306f24d5460ff161580612863575b6126bc5760405162461bcd60e51b81526020600482015260136024820152721059191c995cdcc8189b1858dadb1a5cdd1959606a1b6044820152606490fd5b508260005260ff6040600020541615612824565b60405162461bcd60e51b815260206004820152601f60248201527f45524332303a206d696e7420746f20746865207a65726f2061646472657373006044820152606490fd5b9060018060a01b03808316600052603460205260406000209082166000526020526040600020549260001984036128f4575b50505050565b80841061290f5761290693039161253d565b388080806128ee565b60405162461bcd60e51b815260206004820152601d60248201527f45524332303a20696e73756666696369656e7420616c6c6f77616e63650000006044820152606490fd5b6001600160a01b03908116918215612b5a5716918215612b09576101cf5460ff8116612a9c575b60081c60ff1680612a94575b612a48575b60ff6097541661272657600082815260336020526040812054918083106129f457604082827fddf252ad1be2c89b69c2b068fc378daa952ba7f163c4a11628f55a4df523b3ef95876020965260338652038282205586815220818154019055604051908152a3565b60405162461bcd60e51b815260206004820152602660248201527f45524332303a207472616e7366657220616d6f756e7420657863656564732062604482015265616c616e636560d01b6064820152608490fd5b816000526101d160205260406000205442101561298c5760405162461bcd60e51b815260206004820152600d60248201526c151bdad95b9cc81b1bd8dad959609a1b6044820152606490fd5b506001612987565b826000526101d060205260ff604060002054161580612af5575b61297b5760405162461bcd60e51b81526020600482015260136024820152721059191c995cdcc8189b1858dadb1a5cdd1959606a1b6044820152606490fd5b508360005260ff6040600020541615612ab6565b60405162461bcd60e51b815260206004820152602360248201527f45524332303a207472616e7366657220746f20746865207a65726f206164647260448201526265737360e81b6064820152608490fd5b60405162461bcd60e51b815260206004820152602560248201527f45524332303a207472616e736665722066726f6d20746865207a65726f206164604482015264647265737360d81b6064820152608490fd5b6001600160a01b03168015612d52576101cf5460ff8116612ce5575b60081c60ff1680612cdd575b612c91575b60ff609754166127265780600052603360205260406000205491808310612c41576020817fddf252ad1be2c89b69c2b068fc378daa952ba7f163c4a11628f55a4df523b3ef92600095858752603384520360408620558060355403603555604051908152a3565b60405162461bcd60e51b815260206004820152602260248201527f45524332303a206275726e20616d6f756e7420657863656564732062616c616e604482015261636560f01b6064820152608490fd5b806000526101d1602052604060002054421015612bda5760405162461bcd60e51b815260206004820152600d60248201526c151bdad95b9cc81b1bd8dad959609a1b6044820152606490fd5b506001612bd5565b816000526101d060205260ff604060002054161580612d3e575b612bc95760405162461bcd60e51b81526020600482015260136024820152721059191c995cdcc8189b1858dadb1a5cdd1959606a1b6044820152606490fd5b506000805260ff6040600020541615612cff565b60405162461bcd60e51b815260206004820152602160248201527f45524332303a206275726e2066726f6d20746865207a65726f206164647265736044820152607360f81b6064820152608490fd5b60fb546001600160a01b03163303612db557565b606460405162461bcd60e51b815260206004820152602060248201527f4f776e61626c653a2063616c6c6572206973206e6f7420746865206f776e65726044820152fd5b6101916002815414612e0b5760029055565b60405162461bcd60e51b815260206004820152601f60248201527f5265656e7472616e637947756172643a207265656e7472616e742063616c6c006044820152606490fd5b60fb80546001600160a01b039283166001600160a01b0319821681179092559091167f8be0079c531659141344cd1fd0a4f28419497f9722a3daafe3b4186f6b6457e0600080a3565b803b15612ece57600080516020612fbf83398151915280546001600160a01b0319166001600160a01b03909216919091179055565b60405162461bcd60e51b815260206004820152602d60248201527f455243313936373a206e657720696d706c656d656e746174696f6e206973206e60448201526c1bdd08184818dbdb9d1c9858dd609a1b6064820152608490fd5b91929015612f8b5750815115612f3d575090565b3b15612f465790565b60405162461bcd60e51b815260206004820152601d60248201527f416464726573733a2063616c6c20746f206e6f6e2d636f6e74726163740000006044820152606490fd5b8251909150156123535750805190602001fdfe4a11f94e20a93c79f6ec743a1954ec4fc2c08429ae2122118bf234b2185c81b8360894a13ba1a3210667c828492db98dca3e2076cc3735a920a3ca505d382bbc42a7b7dd785cd69714a189dffb3fd7d7174edc9ece837694ce50f7078f7c31aea26469706673582212207b4533120b80b20ee8e060654d3b520190809a783cc28fb80c58549084a2c70d64736f6c63430008160033",
  "linkReferences": {},
  "deployedLinkReferences": {}
}