{
  "_format": "hh-sol-artifact-1",
  "contractName": "TokenTemplate_v3",
  "sourceName": "src/contracts/TokenTemplate_v3.sol",
  "abi": [
    {
      "inputs": [],
      "stateMutability": "nonpayable",
      "type": "constructor"
    },
    {
      "anonymous": false,
      "inputs": [
        {
          "indexed": true,
          "internalType": "address",
          "name": "owner",
          "type": "address"
        },
        {
          "indexed": true,
          "internalType": "address",
          "name": "spender",
          "type": "address"
        },
        {
          "indexed": false,
          "internalType": "uint256",
          "name": "value",
          "type": "uint256"
        }
      ],
      "name": "Approval",
      "type": "event"
    },
    {
      "anonymous": false,
      "inputs": [
        {
          "indexed": true,
          "internalType": "address",
          "name": "account",
          "type": "address"
        },
        {
          "indexed": false,
          "internalType": "bool",
          "name": "status",
          "type": "bool"
        }
      ],
      "name": "BlacklistUpdated",
      "type": "event"
    },
    {
      "anonymous": false,
      "inputs": [
        {
          "indexed": true,
          "internalType": "address",
          "name": "pair",
          "type": "address"
        },
        {
          "indexed": false,
          "internalType": "uint256",
          "name": "tokensAdded",
          "type": "uint256"
        },
        {
          "indexed": false,
          "internalType": "uint256",
          "name": "ethAdded",
          "type": "uint256"
        }
      ],
      "name": "LiquidityAdded",
      "type": "event"
    },
    {
      "anonymous": false,
      "inputs": [
        {
          "indexed": true,
          "internalType": "address",
          "name": "previousOwner",
          "type": "address"
        },
        {
          "indexed": true,
          "internalType": "address",
          "name": "newOwner",
          "type": "address"
        }
      ],
      "name": "OwnershipTransferred",
      "type": "event"
    },
    {
      "anonymous": false,
      "inputs": [
        {
          "indexed": false,
          "internalType": "address",
          "name": "account",
          "type": "address"
        }
      ],
      "name": "Paused",
      "type": "event"
    },
    {
      "anonymous": false,
      "inputs": [],
      "name": "Paused",
      "type": "event"
    },
    {
      "anonymous": false,
      "inputs": [
        {
          "indexed": false,
          "internalType": "uint256",
          "name": "totalRaised",
          "type": "uint256"
        }
      ],
      "name": "PresaleEnded",
      "type": "event"
    },
    {
      "anonymous": false,
      "inputs": [
        {
          "indexed": false,
          "internalType": "uint256",
          "name": "startTime",
          "type": "uint256"
        },
        {
          "indexed": false,
          "internalType": "uint256",
          "name": "endTime",
          "type": "uint256"
        }
      ],
      "name": "PresaleStarted",
      "type": "event"
    },
    {
      "anonymous": false,
      "inputs": [
        {
          "indexed": true,
          "internalType": "address",
          "name": "account",
          "type": "address"
        },
        {
          "indexed": false,
          "internalType": "uint256",
          "name": "timestamp",
          "type": "uint256"
        }
      ],
      "name": "TimeLockSet",
      "type": "event"
    },
    {
      "anonymous": false,
      "inputs": [
        {
          "indexed": true,
          "internalType": "address",
          "name": "wallet",
          "type": "address"
        },
        {
          "indexed": false,
          "internalType": "uint256",
          "name": "amount",
          "type": "uint256"
        }
      ],
      "name": "TokensClaimed",
      "type": "event"
    },
    {
      "anonymous": false,
      "inputs": [
        {
          "indexed": true,
          "internalType": "address",
          "name": "from",
          "type": "address"
        },
        {
          "indexed": true,
          "internalType": "address",
          "name": "to",
          "type": "address"
        },
        {
          "indexed": false,
          "internalType": "uint256",
          "name": "value",
          "type": "uint256"
        }
      ],
      "name": "Transfer",
      "type": "event"
    },
    {
      "anonymous": false,
      "inputs": [
        {
          "indexed": false,
          "internalType": "address",
          "name": "account",
          "type": "address"
        }
      ],
      "name": "Unpaused",
      "type": "event"
    },
    {
      "anonymous": false,
      "inputs": [],
      "name": "Unpaused",
      "type": "event"
    },
    {
      "inputs": [
        {
          "internalType": "address",
          "name": "owner",
          "type": "address"
        },
        {
          "internalType": "address",
          "name": "spender",
          "type": "address"
        }
      ],
      "name": "allowance",
      "outputs": [
        {
          "internalType": "uint256",
          "name": "",
          "type": "uint256"
        }
      ],
      "stateMutability": "view",
      "type": "function"
    },
    {
      "inputs": [
        {
          "internalType": "address",
          "name": "spender",
          "type": "address"
        },
        {
          "internalType": "uint256",
          "name": "amount",
          "type": "uint256"
        }
      ],
      "name": "approve",
      "outputs": [
        {
          "internalType": "bool",
          "name": "",
          "type": "bool"
        }
      ],
      "stateMutability": "nonpayable",
      "type": "function"
    },
    {
      "inputs": [
        {
          "internalType": "address",
          "name": "account",
          "type": "address"
        }
      ],
      "name": "balanceOf",
      "outputs": [
        {
          "internalType": "uint256",
          "name": "",
          "type": "uint256"
        }
      ],
      "stateMutability": "view",
      "type": "function"
    },
    {
      "inputs": [],
      "name": "blacklistEnabled",
      "outputs": [
        {
          "internalType": "bool",
          "name": "",
          "type": "bool"
        }
      ],
      "stateMutability": "view",
      "type": "function"
    },
    {
      "inputs": [
        {
          "internalType": "uint256",
          "name": "amount",
          "type": "uint256"
        }
      ],
      "name": "burn",
      "outputs": [],
      "stateMutability": "nonpayable",
      "type": "function"
    },
    {
      "inputs": [
        {
          "internalType": "address",
          "name": "account",
          "type": "address"
        },
        {
          "internalType": "uint256",
          "name": "amount",
          "type": "uint256"
        }
      ],
      "name": "burnFrom",
      "outputs": [],
      "stateMutability": "nonpayable",
      "type": "function"
    },
    {
      "inputs": [],
      "name": "claimVestedTokens",
      "outputs": [],
      "stateMutability": "nonpayable",
      "type": "function"
    },
    {
      "inputs": [
        {
          "internalType": "address",
          "name": "",
          "type": "address"
        }
      ],
      "name": "claimedAmount",
      "outputs": [
        {
          "internalType": "uint256",
          "name": "",
          "type": "uint256"
        }
      ],
      "stateMutability": "view",
      "type": "function"
    },
    {
      "inputs": [],
      "name": "decimals",
      "outputs": [
        {
          "internalType": "uint8",
          "name": "",
          "type": "uint8"
        }
      ],
      "stateMutability": "view",
      "type": "function"
    },
    {
      "inputs": [
        {
          "internalType": "address",
          "name": "spender",
          "type": "address"
        },
        {
          "internalType": "uint256",
          "name": "subtractedValue",
          "type": "uint256"
        }
      ],
      "name": "decreaseAllowance",
      "outputs": [
        {
          "internalType": "bool",
          "name": "",
          "type": "bool"
        }
      ],
      "stateMutability": "nonpayable",
      "type": "function"
    },
    {
      "inputs": [],
      "name": "endTime",
      "outputs": [
        {
          "internalType": "uint256",
          "name": "",
          "type": "uint256"
        }
      ],
      "stateMutability": "view",
      "type": "function"
    },
    {
      "inputs": [
        {
          "internalType": "address",
          "name": "wallet",
          "type": "address"
        }
      ],
      "name": "getClaimedAmount",
      "outputs": [
        {
          "internalType": "uint256",
          "name": "",
          "type": "uint256"
        }
      ],
      "stateMutability": "view",
      "type": "function"
    },
    {
      "inputs": [
        {
          "internalType": "address",
          "name": "account",
          "type": "address"
        }
      ],
      "name": "getUnlockTime",
      "outputs": [
        {
          "internalType": "uint256",
          "name": "",
          "type": "uint256"
        }
      ],
      "stateMutability": "view",
      "type": "function"
    },
    {
      "inputs": [
        {
          "internalType": "address",
          "name": "wallet",
          "type": "address"
        }
      ],
      "name": "getVestedAmount",
      "outputs": [
        {
          "internalType": "uint256",
          "name": "",
          "type": "uint256"
        }
      ],
      "stateMutability": "view",
      "type": "function"
    },
    {
      "inputs": [],
      "name": "getWalletAllocations",
      "outputs": [
        {
          "components": [
            {
              "internalType": "address",
              "name": "wallet",
              "type": "address"
            },
            {
              "internalType": "uint256",
              "name": "percentage",
              "type": "uint256"
            },
            {
              "internalType": "bool",
              "name": "vestingEnabled",
              "type": "bool"
            },
            {
              "internalType": "uint256",
              "name": "vestingDuration",
              "type": "uint256"
            },
            {
              "internalType": "uint256",
              "name": "cliffDuration",
              "type": "uint256"
            },
            {
              "internalType": "uint256",
              "name": "vestingStartTime",
              "type": "uint256"
            }
          ],
          "internalType": "struct TokenTemplate_v3.WalletAllocation[]",
          "name": "",
          "type": "tuple[]"
        }
      ],
      "stateMutability": "view",
      "type": "function"
    },
    {
      "inputs": [],
      "name": "hardCap",
      "outputs": [
        {
          "internalType": "uint256",
          "name": "",
          "type": "uint256"
        }
      ],
      "stateMutability": "view",
      "type": "function"
    },
    {
      "inputs": [
        {
          "internalType": "address",
          "name": "spender",
          "type": "address"
        },
        {
          "internalType": "uint256",
          "name": "addedValue",
          "type": "uint256"
        }
      ],
      "name": "increaseAllowance",
      "outputs": [
        {
          "internalType": "bool",
          "name": "",
          "type": "bool"
        }
      ],
      "stateMutability": "nonpayable",
      "type": "function"
    },
    {
      "inputs": [
        {
          "components": [
            {
              "internalType": "string",
              "name": "name",
              "type": "string"
            },
            {
              "internalType": "string",
              "name": "symbol",
              "type": "string"
            },
            {
              "internalType": "uint256",
              "name": "initialSupply",
              "type": "uint256"
            },
            {
              "internalType": "uint256",
              "name": "maxSupply",
              "type": "uint256"
            },
            {
              "internalType": "address",
              "name": "owner",
              "type": "address"
            },
            {
              "internalType": "bool",
              "name": "enableBlacklist",
              "type": "bool"
            },
            {
              "internalType": "bool",
              "name": "enableTimeLock",
              "type": "bool"
            },
            {
              "internalType": "uint256",
              "name": "presaleRate",
              "type": "uint256"
            },
            {
              "internalType": "uint256",
              "name": "softCap",
              "type": "uint256"
            },
            {
              "internalType": "uint256",
              "name": "hardCap",
              "type": "uint256"
            },
            {
              "internalType": "uint256",
              "name": "minContribution",
              "type": "uint256"
            },
            {
              "internalType": "uint256",
              "name": "maxContribution",
              "type": "uint256"
            },
            {
              "internalType": "uint256",
              "name": "startTime",
              "type": "uint256"
            },
            {
              "internalType": "uint256",
              "name": "endTime",
              "type": "uint256"
            },
            {
              "internalType": "uint256",
              "name": "presalePercentage",
              "type": "uint256"
            },
            {
              "internalType": "uint256",
              "name": "liquidityPercentage",
              "type": "uint256"
            },
            {
              "internalType": "uint256",
              "name": "liquidityLockDuration",
              "type": "uint256"
            },
            {
              "components": [
                {
                  "internalType": "address",
                  "name": "wallet",
                  "type": "address"
                },
                {
                  "internalType": "uint256",
                  "name": "percentage",
                  "type": "uint256"
                },
                {
                  "internalType": "bool",
                  "name": "vestingEnabled",
                  "type": "bool"
                },
                {
                  "internalType": "uint256",
                  "name": "vestingDuration",
                  "type": "uint256"
                },
                {
                  "internalType": "uint256",
                  "name": "cliffDuration",
                  "type": "uint256"
                },
                {
                  "internalType": "uint256",
                  "name": "vestingStartTime",
                  "type": "uint256"
                }
              ],
              "internalType": "struct TokenTemplate_v3.WalletAllocation[]",
              "name": "walletAllocations",
              "type": "tuple[]"
            },
            {
              "internalType": "uint256",
              "name": "maxActivePresales",
              "type": "uint256"
            },
            {
              "internalType": "bool",
              "name": "presaleEnabled",
              "type": "bool"
            }
          ],
          "internalType": "struct TokenTemplate_v3.InitParams",
          "name": "params",
          "type": "tuple"
        }
      ],
      "name": "initialize",
      "outputs": [],
      "stateMutability": "payable",
      "type": "function"
    },
    {
      "inputs": [
        {
          "internalType": "address",
          "name": "account",
          "type": "address"
        }
      ],
      "name": "isBlacklisted",
      "outputs": [
        {
          "internalType": "bool",
          "name": "",
          "type": "bool"
        }
      ],
      "stateMutability": "view",
      "type": "function"
    },
    {
      "inputs": [],
      "name": "liquidityLockDuration",
      "outputs": [
        {
          "internalType": "uint256",
          "name": "",
          "type": "uint256"
        }
      ],
      "stateMutability": "view",
      "type": "function"
    },
    {
      "inputs": [],
      "name": "liquidityPercentage",
      "outputs": [
        {
          "internalType": "uint256",
          "name": "",
          "type": "uint256"
        }
      ],
      "stateMutability": "view",
      "type": "function"
    },
    {
      "inputs": [],
      "name": "maxActivePresales",
      "outputs": [
        {
          "internalType": "uint256",
          "name": "",
          "type": "uint256"
        }
      ],
      "stateMutability": "view",
      "type": "function"
    },
    {
      "inputs": [],
      "name": "maxContribution",
      "outputs": [
        {
          "internalType": "uint256",
          "name": "",
          "type": "uint256"
        }
      ],
      "stateMutability": "view",
      "type": "function"
    },
    {
      "inputs": [],
      "name": "maxSupply",
      "outputs": [
        {
          "internalType": "uint256",
          "name": "",
          "type": "uint256"
        }
      ],
      "stateMutability": "view",
      "type": "function"
    },
    {
      "inputs": [],
      "name": "minContribution",
      "outputs": [
        {
          "internalType": "uint256",
          "name": "",
          "type": "uint256"
        }
      ],
      "stateMutability": "view",
      "type": "function"
    },
    {
      "inputs": [],
      "name": "name",
      "outputs": [
        {
          "internalType": "string",
          "name": "",
          "type": "string"
        }
      ],
      "stateMutability": "view",
      "type": "function"
    },
    {
      "inputs": [],
      "name": "owner",
      "outputs": [
        {
          "internalType": "address",
          "name": "",
          "type": "address"
        }
      ],
      "stateMutability": "view",
      "type": "function"
    },
    {
      "inputs": [],
      "name": "pause",
      "outputs": [],
      "stateMutability": "nonpayable",
      "type": "function"
    },
    {
      "inputs": [],
      "name": "paused",
      "outputs": [
        {
          "internalType": "bool",
          "name": "",
          "type": "bool"
        }
      ],
      "stateMutability": "view",
      "type": "function"
    },
    {
      "inputs": [],
      "name": "presaleEnabled",
      "outputs": [
        {
          "internalType": "bool",
          "name": "",
          "type": "bool"
        }
      ],
      "stateMutability": "view",
      "type": "function"
    },
    {
      "inputs": [],
      "name": "presalePercentage",
      "outputs": [
        {
          "internalType": "uint256",
          "name": "",
          "type": "uint256"
        }
      ],
      "stateMutability": "view",
      "type": "function"
    },
    {
      "inputs": [],
      "name": "presaleRate",
      "outputs": [
        {
          "internalType": "uint256",
          "name": "",
          "type": "uint256"
        }
      ],
      "stateMutability": "view",
      "type": "function"
    },
    {
      "inputs": [],
      "name": "renounceOwnership",
      "outputs": [],
      "stateMutability": "nonpayable",
      "type": "function"
    },
    {
      "inputs": [
        {
          "internalType": "address",
          "name": "account",
          "type": "address"
        },
        {
          "internalType": "bool",
          "name": "status",
          "type": "bool"
        }
      ],
      "name": "setBlacklist",
      "outputs": [],
      "stateMutability": "nonpayable",
      "type": "function"
    },
    {
      "inputs": [
        {
          "internalType": "address",
          "name": "account",
          "type": "address"
        },
        {
          "internalType": "uint256",
          "name": "unlockTime",
          "type": "uint256"
        }
      ],
      "name": "setTimeLock",
      "outputs": [],
      "stateMutability": "nonpayable",
      "type": "function"
    },
    {
      "inputs": [],
      "name": "softCap",
      "outputs": [
        {
          "internalType": "uint256",
          "name": "",
          "type": "uint256"
        }
      ],
      "stateMutability": "view",
      "type": "function"
    },
    {
      "inputs": [],
      "name": "startTime",
      "outputs": [
        {
          "internalType": "uint256",
          "name": "",
          "type": "uint256"
        }
      ],
      "stateMutability": "view",
      "type": "function"
    },
    {
      "inputs": [],
      "name": "symbol",
      "outputs": [
        {
          "internalType": "string",
          "name": "",
          "type": "string"
        }
      ],
      "stateMutability": "view",
      "type": "function"
    },
    {
      "inputs": [],
      "name": "timeLockEnabled",
      "outputs": [
        {
          "internalType": "bool",
          "name": "",
          "type": "bool"
        }
      ],
      "stateMutability": "view",
      "type": "function"
    },
    {
      "inputs": [],
      "name": "totalSupply",
      "outputs": [
        {
          "internalType": "uint256",
          "name": "",
          "type": "uint256"
        }
      ],
      "stateMutability": "view",
      "type": "function"
    },
    {
      "inputs": [
        {
          "internalType": "address",
          "name": "to",
          "type": "address"
        },
        {
          "internalType": "uint256",
          "name": "amount",
          "type": "uint256"
        }
      ],
      "name": "transfer",
      "outputs": [
        {
          "internalType": "bool",
          "name": "",
          "type": "bool"
        }
      ],
      "stateMutability": "nonpayable",
      "type": "function"
    },
    {
      "inputs": [
        {
          "internalType": "address",
          "name": "from",
          "type": "address"
        },
        {
          "internalType": "address",
          "name": "to",
          "type": "address"
        },
        {
          "internalType": "uint256",
          "name": "amount",
          "type": "uint256"
        }
      ],
      "name": "transferFrom",
      "outputs": [
        {
          "internalType": "bool",
          "name": "",
          "type": "bool"
        }
      ],
      "stateMutability": "nonpayable",
      "type": "function"
    },
    {
      "inputs": [
        {
          "internalType": "address",
          "name": "newOwner",
          "type": "address"
        }
      ],
      "name": "transferOwnership",
      "outputs": [],
      "stateMutability": "nonpayable",
      "type": "function"
    },
    {
      "inputs": [],
      "name": "uniswapV2Pair",
      "outputs": [
        {
          "internalType": "address",
          "name": "",
          "type": "address"
        }
      ],
      "stateMutability": "view",
      "type": "function"
    },
    {
      "inputs": [],
      "name": "uniswapV2Router",
      "outputs": [
        {
          "internalType": "contract IUniswapV2Router02",
          "name": "",
          "type": "address"
        }
      ],
      "stateMutability": "view",
      "type": "function"
    },
    {
      "inputs": [],
      "name": "unpause",
      "outputs": [],
      "stateMutability": "nonpayable",
      "type": "function"
    },
    {
      "inputs": [
        {
          "internalType": "address",
          "name": "",
          "type": "address"
        }
      ],
      "name": "vestedAmount",
      "outputs": [
        {
          "internalType": "uint256",
          "name": "",
          "type": "uint256"
        }
      ],
      "stateMutability": "view",
      "type": "function"
    },
    {
      "inputs": [
        {
          "internalType": "address",
          "name": "",
          "type": "address"
        }
      ],
      "name": "vestingStartTime",
      "outputs": [
        {
          "internalType": "uint256",
          "name": "",
          "type": "uint256"
        }
      ],
      "stateMutability": "view",
      "type": "function"
    },
    {
      "inputs": [
        {
          "internalType": "uint256",
          "name": "",
          "type": "uint256"
        }
      ],
      "name": "walletAllocations",
      "outputs": [
        {
          "internalType": "address",
          "name": "wallet",
          "type": "address"
        },
        {
          "internalType": "uint256",
          "name": "percentage",
          "type": "uint256"
        },
        {
          "internalType": "bool",
          "name": "vestingEnabled",
          "type": "bool"
        },
        {
          "internalType": "uint256",
          "name": "vestingDuration",
          "type": "uint256"
        },
        {
          "internalType": "uint256",
          "name": "cliffDuration",
          "type": "uint256"
        },
        {
          "internalType": "uint256",
          "name": "vestingStartTime",
          "type": "uint256"
        }
      ],
      "stateMutability": "view",
      "type": "function"
    }
  ],
  "bytecode": "0x60c060409080825234620004ab576200001881620004b0565b6000908181528251906200002c82620004b0565b8282528051916001600160401b038084116200049757600380546001958682811c92169586156200048c575b6020968784101462000478578190601f9384811162000425575b508790848311600114620003c2578a92620003b6575b505060001982851b1c191690871b1782555b8351928311620003a25760049384548781811c9116801562000397575b87821014620003845790818386959493116200032d575b5086918411600114620002c6578893620002ba575b505082861b92600019911b1c19161781555b600580546001600160a81b0319811633600881811b610100600160a81b03169290921790935587516001600160a01b03969093909290911c86167f8be0079c531659141344cd1fd0a4f28419497f9722a3daafe3b4186f6b6457e08880a360065573d99d1c33f9fc3444f8101754abc46c52416550d1608081905263c45a015560e01b82529183828281865afa9182156200028c578490879362000296575b5087516315ab88c960e31b815292938390839082905afa9182156200028c5790868686959493829462000267575b50604493948a5198899687956364e329cb60e11b87523090870152166024850152165af19283156200025c579262000228575b505060a0525161268e9081620005288239608051818181610d8201528181610dff0152611bce015260a0518161180a0152f35b6200024c9250803d1062000254575b620002438183620004e2565b81019062000506565b3880620001f5565b503d62000237565b8451903d90823e3d90fd5b604494506200028590873d89116200025457620002438183620004e2565b93620001c2565b87513d88823e3d90fd5b829350620002b390823d84116200025457620002438183620004e2565b9262000194565b015191503880620000e3565b858952868920889550929190601f1985168a5b89828210620003165750508511620002fb575b50505050811b018155620000f5565b01519060f884600019921b161c1916905538808080620002ec565b8385015187558b98909601959384019301620002d9565b90919293508589528689208380870160051c8201928988106200037a575b918a918897969594930160051c01915b8281106200036b575050620000ce565b8b81558796508a91016200035b565b925081926200034b565b634e487b7160e01b895260228652602489fd5b90607f1690620000b7565b634e487b7160e01b87526041600452602487fd5b01519050388062000088565b858b52888b208a94509190601f1984168c5b8b8282106200040e5750508411620003f5575b505050811b0182556200009a565b015160001983871b60f8161c19169055388080620003e7565b8385015186558d97909501949384019301620003d4565b909150848a52878a208480850160051c8201928a86106200046e575b918b91869594930160051c01915b8281106200045f57505062000072565b8c81558594508b91016200044f565b9250819262000441565b634e487b7160e01b89526022600452602489fd5b91607f169162000058565b634e487b7160e01b85526041600452602485fd5b600080fd5b602081019081106001600160401b03821117620004cc57604052565b634e487b7160e01b600052604160045260246000fd5b601f909101601f19168101906001600160401b03821190821017620004cc57604052565b90816020910312620004ab57516001600160a01b0381168103620004ab579056fe608080604052600436101561001357600080fd5b60003560e01c908163048b87ba14611dc65750806304e86903146114a857806306fdde0314611d1e578063095ea7b314611cf8578063143b237f14611cd5578063153b0d1e14611bfd5780631694505e14611bb857806318160ddd14611b9a57806323b872dd14611b62578063313ce56714611b465780633197cbb614611b2857806332b47fac146119d0578063384711cc14610732578063395093511461197f5780633f4ba83a146118eb5780633fd50eb81461187457806342966c681461185757806342f393811461183957806349bd5a5e146117f45780634ae01d52146117d65780635c975abb146117b3578063644fab74146116a957806370a082311461166f578063715018a61461160e57806378e97925146115f057806379cc6790146115c05780638456cb591461152d5780638d3d65761461150f5780638da5cb5b146114e25780638df40be8146114a8578063906a26e01461148a57806395d89b41146113a7578063a457c2d714611300578063a9059cbb146112cf578063aaffadf3146112b1578063b8caa4aa14611293578063bffb691d14611270578063c64b2f8c14610792578063cba4cbd31461076c578063d5a73fdd14610732578063d5abeb0114610714578063dbed1e88146106c0578063dd62ed3e1461066f578063de8af79114610651578063e74f3fbb14610379578063ea63fb261461033f578063f2fde38b146102b0578063fb86a404146102925763fe575a871461023a57600080fd5b3461028d57602036600319011261028d57610253611de1565b60ff600854168061026c575b6020906040519015158152f35b5060018060a01b03166000526019602052602060ff6040600020541661025f565b600080fd5b3461028d57600036600319011261028d576020600b54604051908152f35b3461028d57602036600319011261028d576102c9611de1565b6102d16120cc565b6001600160a01b038116156102eb576102e9906125fc565b005b60405162461bcd60e51b815260206004820152602660248201527f4f776e61626c653a206e6577206f776e657220697320746865207a65726f206160448201526564647265737360d01b6064820152608490fd5b3461028d57602036600319011261028d576001600160a01b03610360611de1565b1660005260186020526020604060002054604051908152f35b3461028d57600036600319011261028d576002806006541461060c5760026006553360005260169060209060168252604060002054156105d257600092600091601554925b83811061046b575b505050508115610427577f896e034966eaaf1adc54acc0f257056febbd300c9e47182cf761982cf1f5e430903360005260178152604060002061040a848254611f03565b90556104178333306121bf565b6040519283523392a26001600655005b6064906040519062461bcd60e51b82526004820152601c60248201527f4e6f20746f6b656e7320617661696c61626c6520746f20636c61696d000000006044820152fd5b61047481611e56565b50546001600160a01b03163314806105bc575b610493576001016103be565b9250509192503360005260188084526104bf60406000205460046104b685611e56565b50015490611f03565b4210610580573360005283526104da60406000205442611f63565b6104e382611e56565b506003908101549091908110610520575050503360005281526105156040600020546017835260406000205490611f63565b905b828080806103c6565b61053b90610541929394336000528652604060002054611f50565b92611e56565b50015490811561056a576105649133600052601784526040600020549104611f63565b90610517565b634e487b7160e01b600052601260045260246000fd5b606484846040519162461bcd60e51b8352600483015260248201527510db1a5999881c195c9a5bd9081b9bdd08195b99195960521b6044820152fd5b5060ff826105c983611e56565b50015416610487565b60405162461bcd60e51b81526004810183905260126024820152714e6f20746f6b656e7320746f20636c61696d60701b6044820152606490fd5b60405162461bcd60e51b815260206004820152601f60248201527f5265656e7472616e637947756172643a207265656e7472616e742063616c6c006044820152606490fd5b3461028d57600036600319011261028d576020601054604051908152f35b3461028d57604036600319011261028d57610688611de1565b610690611df7565b9060018060a01b038091166000526001602052604060002091166000526020526020604060002054604051908152f35b3461028d57602036600319011261028d576106d9611de1565b60ff60085460081c1660001461070a5760018060a01b0316600052601a60205260206040600020545b604051908152f35b5060206000610702565b3461028d57600036600319011261028d576020600754604051908152f35b3461028d57602036600319011261028d576001600160a01b03610753611de1565b1660005260166020526020604060002054604051908152f35b3461028d57600036600319011261028d57602060ff60085460081c166040519015158152f35b60031960203682011261028d5767ffffffffffffffff90816004351161028d57610280906004353603011261028d57600254611235576107d6600480350180611f10565b828193929311610d56576107eb601b54611ea7565b90601f918281116111d3575b50600082821160011461114f5781929394600092611144575b50508160011b916000199060031b1c191617601b555b61083a602460043501600435600401611f10565b90928111610d565761084d601c54611ea7565b8281116110e2575b50600082821160011461105f57819293600092611054575b50508160011b916000199060031b1c191617601c555b6064600435013560075561089b60a460043501611f43565b151560ff6008549116908161ff006108b760c460043501611f43565b151560081b169161ffff19161717918260085560e460043501356009556101046004350135600a556101246004350135600b556101446004350135600c556101646004350135600d556101846004350135600e556101a46004350135600f556101c460043501356010556101e460043501356011556102046004350135601255610244600435013560135561095161026460043501611f43565b151560ff8019601454169116176014553015611010575060ff60055416610fb857610f2d575b60081c60ff16610ebd575b61099460446004350135600254611f03565b600255306000526000602052604060002060446004350135815401905560405160446004350135815260007fddf252ad1be2c89b69c2b068fc378daa952ba7f163c4a11628f55a4df523b3ef60203093a360446004350135600060ff60145416610e82575b610a29610a23916064610a196101e4600435013560446004350135611f50565b0492838092611f03565b93611f63565b5034151580610e79575b610d73575b50610a4e61022460043501600435600401611f70565b9050610acf575b6044600435013503610a77576102e9610a72608460043501611fb6565b6125fc565b60405162461bcd60e51b815260206004820152602a60248201527f546f74616c20616c6c6f636174696f6e206d75737420657175616c20696e697460448201526969616c20737570706c7960b01b6064820152608490fd5b6000905b610ae861022460043501600435600401611f70565b9050821015610d6c57610b1082610b0a61022460043501600435600401611f70565b90611fa6565b6015805468010000000000000000811015610d5657610b3491600182019055611e56565b919091610d405760059060a0906001600160a01b03610b5282611fb6565b166bffffffffffffffffffffffff831b85541617845560208101356001850155610b96610b8160408301611f43565b600286019060ff801983541691151516179055565b60608101356003850155608081013560048501550135910155610be86064610be06020610bd286610b0a61022460043501600435600401611f70565b013560446004350135611f50565b048092611f03565b91604460043501358311610ceb57600191610c1d6040610c1784610b0a61022460043501600435600401611f70565b01611f43565b15610cc05760a0610c3d83610b0a61022460043501600435600401611f70565b013582610c6f610c6a610c5b61022460043501600435600401611f70565b888060a09693961b0394611fa6565b611fb6565b16600052601860205260406000205581610ca9610c6a610c9a61022460043501600435600401611f70565b878060a09693961b0394611fa6565b1660005260166020526040600020555b0190610ad3565b610ce690610ce0610c6a84610b0a61022460043501600435600401611f70565b306121bf565b610cb9565b60405162461bcd60e51b815260206004820152602760248201527f546f74616c20616c6c6f636174696f6e206578636565647320696e697469616c60448201526620737570706c7960c81b6064820152608490fd5b634e487b7160e01b600052600060045260246000fd5b634e487b7160e01b600052604160045260246000fd5b9050610a55565b6001600160a01b0390610da9817f0000000000000000000000000000000000000000000000000000000000000000841630611fca565b8160055460081c1661012c42014211610e635760c4606092604051948593849263f305d71960e01b845230600485015260248401526000604484015260006064840152608483015261012c420160a483015234907f0000000000000000000000000000000000000000000000000000000000000000165af18015610e575715610a3857606090813d8311610e50575b610e428183611ee1565b8101031261028d5781610a38565b503d610e38565b6040513d6000823e3d90fd5b634e487b7160e01b600052601160045260246000fd5b50801515610a33565b50506064610e9d6101c4600435013560446004350135611f50565b04610a23610a29610eb48360446004350135611f63565b929150506109f9565b60008052601a6020527fb75ecc04ed35f89790e98640e901bda41eceff0cb896cf2765fb697680253750544210156109825760405162461bcd60e51b8152602060048201526016602482015275151bdad95b9cc8185c99481d1a5b594b5b1bd8dad95960521b6044820152606490fd5b6000805260196020527fd2ac945fcc0096878c763e37d6929b78378c1a2defabde8ba7ee5ed1d6e7a5b25460ff161580610fa4575b6109775760405162461bcd60e51b81526020600482015260166024820152751059191c995cdcc81a5cc8189b1858dadb1a5cdd195960521b6044820152606490fd5b503060005260ff6040600020541615610f62565b60405162461bcd60e51b815260206004820152602a60248201527f45524332305061757361626c653a20746f6b656e207472616e736665722077686044820152691a5b19481c185d5cd95960b21b6064820152608490fd5b6064906040519062461bcd60e51b82526020600483015260248201527f45524332303a206d696e7420746f20746865207a65726f2061646472657373006044820152fd5b01359050838061086d565b601f19821693601c6000527f0e4562a10381dec21b205ed72637e6b1b523bdd0e4d4d50af5cd23dd4500a2119160005b8681106110ca57508360019596106110b0575b505050811b01601c55610883565b0135600019600384901b60f8161c191690558380806110a2565b9092602060018192868601358155019401910161108f565b601c6000527f0e4562a10381dec21b205ed72637e6b1b523bdd0e4d4d50af5cd23dd4500a2118380840160051c8201926020851061113b575b0160051c01905b81811061112f5750610855565b60008155600101611122565b9250819261111b565b013590508480610810565b601f19821694601b6000527f3ad8aa4f87544323a9d1e5dd902f40c356527a7955687113db5f9a85ad579dc19160005b8781106111bb5750836001959697106111a1575b505050811b01601b55610826565b0135600019600384901b60f8161c19169055848080611193565b9092602060018192868601358155019401910161117f565b601b6000527f3ad8aa4f87544323a9d1e5dd902f40c356527a7955687113db5f9a85ad579dc18380840160051c8201926020851061122c575b0160051c01905b81811061122057506107f7565b60008155600101611213565b9250819261120c565b60405162461bcd60e51b8152602060048201526013602482015272105b1c9958591e481a5b9a5d1a585b1a5e9959606a1b6044820152606490fd5b3461028d57600036600319011261028d57602060ff600854166040519015158152f35b3461028d57600036600319011261028d576020601354604051908152f35b3461028d57600036600319011261028d576020600c54604051908152f35b3461028d57604036600319011261028d576112f56112eb611de1565b60243590336121bf565b602060405160018152f35b3461028d57604036600319011261028d57611319611de1565b60243590336000526001602052604060002060018060a01b03821660005260205260406000205491808310611354576112f592039033611fca565b60405162461bcd60e51b815260206004820152602560248201527f45524332303a2064656372656173656420616c6c6f77616e63652062656c6f77604482015264207a65726f60d81b6064820152608490fd5b3461028d57600036600319011261028d576040516000601c546113c981611ea7565b808452906020906001908181169081156114605750600114611406575b611402856113f681870382611ee1565b60405191829182611e0d565b0390f35b601c600090815293507f0e4562a10381dec21b205ed72637e6b1b523bdd0e4d4d50af5cd23dd4500a2115b83851061144d575050505081016020016113f6826114026113e6565b8054868601840152938201938101611431565b869550611402969350602092506113f694915060ff191682840152151560051b82010192936113e6565b3461028d57600036600319011261028d576020600a54604051908152f35b3461028d57602036600319011261028d576001600160a01b036114c9611de1565b1660005260176020526020604060002054604051908152f35b3461028d57600036600319011261028d5760055460405160089190911c6001600160a01b03168152602090f35b3461028d57600036600319011261028d576020600d54604051908152f35b3461028d57600036600319011261028d576115466120cc565b60055460ff81166115885760019060ff1916176005557f62e78cea01bee320cd4e420270b5ea74000d11b0c9f74754ebdbfc544b05a2586020604051338152a1005b60405162461bcd60e51b815260206004820152601060248201526f14185d5cd8589b194e881c185d5cd95960821b6044820152606490fd5b3461028d57604036600319011261028d576102e96115dc611de1565b602435906115eb823383612127565b612411565b3461028d57600036600319011261028d576020600e54604051908152f35b3461028d57600036600319011261028d576116276120cc565b60058054610100600160a81b0319811690915560009060081c6001600160a01b03167f8be0079c531659141344cd1fd0a4f28419497f9722a3daafe3b4186f6b6457e08280a3005b3461028d57602036600319011261028d576001600160a01b03611690611de1565b1660005260006020526020604060002054604051908152f35b3461028d57604036600319011261028d576116c2611de1565b602435906116ce6120cc565b60ff60085460081c161561176e57428211156117295760207fa9353e70f07f31e7f4e16464f45e189cbd22826780a5abe4da8303652a86960a9160018060a01b03169283600052601a825280604060002055604051908152a2005b60405162461bcd60e51b815260206004820152601d60248201527f556e6c6f636b2074696d65206d75737420626520696e206675747572650000006044820152606490fd5b60405162461bcd60e51b815260206004820152601860248201527f54696d65206c6f636b206973206e6f7420656e61626c656400000000000000006044820152606490fd5b3461028d57600036600319011261028d57602060ff600554166040519015158152f35b3461028d57600036600319011261028d576020601254604051908152f35b3461028d57600036600319011261028d576040517f00000000000000000000000000000000000000000000000000000000000000006001600160a01b03168152602090f35b3461028d57600036600319011261028d576020600954604051908152f35b3461028d57602036600319011261028d576102e960043533612411565b3461028d57602036600319011261028d5760043560155481101561028d5761189d60c091611e56565b5060018060a01b038154169060018101549060ff60028201541660038201549060056004840154930154936040519586526020860152151560408501526060840152608083015260a0820152f35b3461028d57600036600319011261028d576119046120cc565b60055460ff8116156119435760ff19166005557f5db9ee0a495bf2e6ff9c91a7834c1ba4fdd244a5e8aa4e537bd38aeae4b073aa6020604051338152a1005b60405162461bcd60e51b815260206004820152601460248201527314185d5cd8589b194e881b9bdd081c185d5cd95960621b6044820152606490fd5b3461028d57604036600319011261028d576112f561199b611de1565b336000526001602052604060002060018060a01b0382166000526020526119c9602435604060002054611f03565b9033611fca565b3461028d57600036600319011261028d5760155467ffffffffffffffff90818111610d5657602090600560405191611a0d848260051b0184611ee1565b808352838301948560156000527f55f448fdea98c4d29eb340757ef0a66cd03dbb9538908a6a81d96026b71ec4756000915b848310611abe57604080518981528851818b018190528b928201908b60005b828110611a6b5784840385f35b855180516001600160a01b031685528083015185840152604080820151151590860152606080820151908601526080808201519086015260a090810151908501529481019460c090930192600101611a5e565b60405160c0810181811086821117610d56576001926006928b92604052848060a01b038654168152848601548382015260ff6002870154161515604082015260038601546060820152600486015460808201528986015460a0820152815201920192019190611a3f565b3461028d57600036600319011261028d576020600f54604051908152f35b3461028d57600036600319011261028d57602060405160128152f35b3461028d57606036600319011261028d576112f5611b7e611de1565b611b86611df7565b60443591611b95833383612127565b6121bf565b3461028d57600036600319011261028d576020600254604051908152f35b3461028d57600036600319011261028d576040517f00000000000000000000000000000000000000000000000000000000000000006001600160a01b03168152602090f35b3461028d57604036600319011261028d57611c16611de1565b602435908115159081830361028d57611c2d6120cc565b60ff6008541615611c90577f6a12b3df6cba4203bd7fd06b816789f87de8c594299aed5717ae070fac781bac91611c8760209260018060a01b031694856000526019845260406000209060ff801983541691151516179055565b604051908152a2005b60405162461bcd60e51b815260206004820152601860248201527f426c61636b6c697374206973206e6f7420656e61626c656400000000000000006044820152606490fd5b3461028d57600036600319011261028d57602060ff601454166040519015158152f35b3461028d57604036600319011261028d576112f5611d14611de1565b6024359033611fca565b3461028d57600036600319011261028d576040516000601b54611d4081611ea7565b808452906020906001908181169081156114605750600114611d6c57611402856113f681870382611ee1565b601b600090815293507f3ad8aa4f87544323a9d1e5dd902f40c356527a7955687113db5f9a85ad579dc15b838510611db3575050505081016020016113f6826114026113e6565b8054868601840152938201938101611d97565b3461028d57600036600319011261028d576020906011548152f35b600435906001600160a01b038216820361028d57565b602435906001600160a01b038216820361028d57565b6020808252825181830181905290939260005b828110611e4257505060409293506000838284010152601f8019910116010190565b818101860151848201604001528501611e20565b601554811015611e91576006906015600052027f55f448fdea98c4d29eb340757ef0a66cd03dbb9538908a6a81d96026b71ec4750190600090565b634e487b7160e01b600052603260045260246000fd5b90600182811c92168015611ed7575b6020831014611ec157565b634e487b7160e01b600052602260045260246000fd5b91607f1691611eb6565b90601f8019910116810190811067ffffffffffffffff821117610d5657604052565b91908201809211610e6357565b903590601e198136030182121561028d570180359067ffffffffffffffff821161028d5760200191813603831361028d57565b35801515810361028d5790565b81810292918115918404141715610e6357565b91908203918211610e6357565b903590601e198136030182121561028d570180359067ffffffffffffffff821161028d576020019160c082023603831361028d57565b9190811015611e915760c0020190565b356001600160a01b038116810361028d5790565b6001600160a01b0390811691821561207b571691821561202b5760207f8c5be1e5ebec7d5bd14f71427d1e84f3dd0314c0f7b2291e5b200ac8c7c3b925918360005260018252604060002085600052825280604060002055604051908152a3565b60405162461bcd60e51b815260206004820152602260248201527f45524332303a20617070726f766520746f20746865207a65726f206164647265604482015261737360f01b6064820152608490fd5b60405162461bcd60e51b8152602060048201526024808201527f45524332303a20617070726f76652066726f6d20746865207a65726f206164646044820152637265737360e01b6064820152608490fd5b60055460081c6001600160a01b031633036120e357565b606460405162461bcd60e51b815260206004820152602060248201527f4f776e61626c653a2063616c6c6572206973206e6f7420746865206f776e65726044820152fd5b9060018060a01b038083166000526001602052604060002090821660005260205260406000205492600019840361215f575b50505050565b80841061217a57612171930391611fca565b38808080612159565b60405162461bcd60e51b815260206004820152601d60248201527f45524332303a20696e73756666696369656e7420616c6c6f77616e63650000006044820152606490fd5b6001600160a01b039081169182156123be571691821561236d5760ff60055416610fb85760085460ff81166122fe575b60081c60ff166122aa575b60008281528060205260408120549180831061225657604082827fddf252ad1be2c89b69c2b068fc378daa952ba7f163c4a11628f55a4df523b3ef958760209652828652038282205586815220818154019055604051908152a3565b60405162461bcd60e51b815260206004820152602660248201527f45524332303a207472616e7366657220616d6f756e7420657863656564732062604482015265616c616e636560d01b6064820152608490fd5b81600052601a6020526040600020544210156121fa5760405162461bcd60e51b8152602060048201526016602482015275151bdad95b9cc8185c99481d1a5b594b5b1bd8dad95960521b6044820152606490fd5b82600052601960205260ff604060002054161580612359575b6121ef5760405162461bcd60e51b81526020600482015260166024820152751059191c995cdcc81a5cc8189b1858dadb1a5cdd195960521b6044820152606490fd5b508360005260ff6040600020541615612317565b60405162461bcd60e51b815260206004820152602360248201527f45524332303a207472616e7366657220746f20746865207a65726f206164647260448201526265737360e81b6064820152608490fd5b60405162461bcd60e51b815260206004820152602560248201527f45524332303a207472616e736665722066726f6d20746865207a65726f206164604482015264647265737360d81b6064820152608490fd5b6001600160a01b031680156125ad5760ff60055416610fb85760085460ff811661253e575b60081c60ff166124ea575b60009181835282602052604083205481811061249a57817fddf252ad1be2c89b69c2b068fc378daa952ba7f163c4a11628f55a4df523b3ef926020928587528684520360408620558060025403600255604051908152a3565b60405162461bcd60e51b815260206004820152602260248201527f45524332303a206275726e20616d6f756e7420657863656564732062616c616e604482015261636560f01b6064820152608490fd5b80600052601a6020526040600020544210156124415760405162461bcd60e51b8152602060048201526016602482015275151bdad95b9cc8185c99481d1a5b594b5b1bd8dad95960521b6044820152606490fd5b81600052601960205260ff604060002054161580612599575b6124365760405162461bcd60e51b81526020600482015260166024820152751059191c995cdcc81a5cc8189b1858dadb1a5cdd195960521b6044820152606490fd5b506000805260ff6040600020541615612557565b60405162461bcd60e51b815260206004820152602160248201527f45524332303a206275726e2066726f6d20746865207a65726f206164647265736044820152607360f81b6064820152608490fd5b60058054610100600160a81b03198116600884811b610100600160a81b0316919091179092556001600160a01b0392831692911c167f8be0079c531659141344cd1fd0a4f28419497f9722a3daafe3b4186f6b6457e0600080a356fea264697066735822122035e114bf4d2332f008fa3d99794ba9d3769c062c733aaeb73aa67386617d87d064736f6c63430008160033",
  "linkReferences": {},
  "deployedLinkReferences": {}
}