{
  "_format": "hh-sol-artifact-1",
  "contractName": "TokenTemplate_v3",
  "sourceName": "src/contracts/TokenTemplate_v3.sol",
  "abi": [
    {
      "inputs": [],
      "stateMutability": "nonpayable",
      "type": "constructor"
    },
    {
      "anonymous": false,
      "inputs": [
        {
          "indexed": false,
          "internalType": "address",
          "name": "previousAdmin",
          "type": "address"
        },
        {
          "indexed": false,
          "internalType": "address",
          "name": "newAdmin",
          "type": "address"
        }
      ],
      "name": "AdminChanged",
      "type": "event"
    },
    {
      "anonymous": false,
      "inputs": [
        {
          "indexed": true,
          "internalType": "address",
          "name": "owner",
          "type": "address"
        },
        {
          "indexed": true,
          "internalType": "address",
          "name": "spender",
          "type": "address"
        },
        {
          "indexed": false,
          "internalType": "uint256",
          "name": "value",
          "type": "uint256"
        }
      ],
      "name": "Approval",
      "type": "event"
    },
    {
      "anonymous": false,
      "inputs": [
        {
          "indexed": true,
          "internalType": "address",
          "name": "beacon",
          "type": "address"
        }
      ],
      "name": "BeaconUpgraded",
      "type": "event"
    },
    {
      "anonymous": false,
      "inputs": [
        {
          "indexed": false,
          "internalType": "address[]",
          "name": "addresses",
          "type": "address[]"
        },
        {
          "indexed": false,
          "internalType": "bool",
          "name": "status",
          "type": "bool"
        }
      ],
      "name": "BlacklistUpdated",
      "type": "event"
    },
    {
      "anonymous": false,
      "inputs": [
        {
          "indexed": false,
          "internalType": "address",
          "name": "contributor",
          "type": "address"
        },
        {
          "indexed": false,
          "internalType": "uint256",
          "name": "amount",
          "type": "uint256"
        },
        {
          "indexed": false,
          "internalType": "uint256",
          "name": "tokenAmount",
          "type": "uint256"
        }
      ],
      "name": "ContributionReceived",
      "type": "event"
    },
    {
      "anonymous": false,
      "inputs": [
        {
          "indexed": false,
          "internalType": "address",
          "name": "contributor",
          "type": "address"
        },
        {
          "indexed": false,
          "internalType": "uint256",
          "name": "amount",
          "type": "uint256"
        }
      ],
      "name": "ContributionRefunded",
      "type": "event"
    },
    {
      "anonymous": false,
      "inputs": [
        {
          "indexed": false,
          "internalType": "uint8",
          "name": "version",
          "type": "uint8"
        }
      ],
      "name": "Initialized",
      "type": "event"
    },
    {
      "anonymous": false,
      "inputs": [
        {
          "indexed": true,
          "internalType": "address",
          "name": "pair",
          "type": "address"
        },
        {
          "indexed": false,
          "internalType": "uint256",
          "name": "tokensAdded",
          "type": "uint256"
        },
        {
          "indexed": false,
          "internalType": "uint256",
          "name": "ethAdded",
          "type": "uint256"
        }
      ],
      "name": "LiquidityPoolCreated",
      "type": "event"
    },
    {
      "anonymous": false,
      "inputs": [
        {
          "indexed": true,
          "internalType": "address",
          "name": "previousOwner",
          "type": "address"
        },
        {
          "indexed": true,
          "internalType": "address",
          "name": "newOwner",
          "type": "address"
        }
      ],
      "name": "OwnershipTransferred",
      "type": "event"
    },
    {
      "anonymous": false,
      "inputs": [
        {
          "indexed": false,
          "internalType": "address",
          "name": "account",
          "type": "address"
        }
      ],
      "name": "Paused",
      "type": "event"
    },
    {
      "anonymous": false,
      "inputs": [
        {
          "indexed": false,
          "internalType": "uint256",
          "name": "totalContributed",
          "type": "uint256"
        },
        {
          "indexed": false,
          "internalType": "uint256",
          "name": "totalTokensDistributed",
          "type": "uint256"
        }
      ],
      "name": "PresaleFinalized",
      "type": "event"
    },
    {
      "anonymous": false,
      "inputs": [
        {
          "indexed": true,
          "internalType": "address",
          "name": "contributor",
          "type": "address"
        },
        {
          "indexed": false,
          "internalType": "uint256",
          "name": "amount",
          "type": "uint256"
        },
        {
          "indexed": false,
          "internalType": "uint256",
          "name": "tokensReceived",
          "type": "uint256"
        }
      ],
      "name": "PresaleParticipation",
      "type": "event"
    },
    {
      "anonymous": false,
      "inputs": [
        {
          "indexed": false,
          "internalType": "uint256",
          "name": "softCap",
          "type": "uint256"
        },
        {
          "indexed": false,
          "internalType": "uint256",
          "name": "hardCap",
          "type": "uint256"
        },
        {
          "indexed": false,
          "internalType": "uint256",
          "name": "startTime",
          "type": "uint256"
        },
        {
          "indexed": false,
          "internalType": "uint256",
          "name": "endTime",
          "type": "uint256"
        },
        {
          "indexed": false,
          "internalType": "uint256",
          "name": "presaleRate",
          "type": "uint256"
        }
      ],
      "name": "PresaleStarted",
      "type": "event"
    },
    {
      "anonymous": false,
      "inputs": [
        {
          "indexed": true,
          "internalType": "address",
          "name": "contributor",
          "type": "address"
        },
        {
          "indexed": false,
          "internalType": "uint256",
          "name": "amount",
          "type": "uint256"
        }
      ],
      "name": "RefundClaimed",
      "type": "event"
    },
    {
      "anonymous": false,
      "inputs": [
        {
          "indexed": false,
          "internalType": "address",
          "name": "account",
          "type": "address"
        },
        {
          "indexed": false,
          "internalType": "uint256",
          "name": "unlockTime",
          "type": "uint256"
        }
      ],
      "name": "TimeLockSet",
      "type": "event"
    },
    {
      "anonymous": false,
      "inputs": [
        {
          "indexed": true,
          "internalType": "address",
          "name": "recipient",
          "type": "address"
        },
        {
          "indexed": false,
          "internalType": "uint256",
          "name": "amount",
          "type": "uint256"
        }
      ],
      "name": "TokensDistributed",
      "type": "event"
    },
    {
      "anonymous": false,
      "inputs": [
        {
          "indexed": true,
          "internalType": "address",
          "name": "from",
          "type": "address"
        },
        {
          "indexed": true,
          "internalType": "address",
          "name": "to",
          "type": "address"
        },
        {
          "indexed": false,
          "internalType": "uint256",
          "name": "value",
          "type": "uint256"
        }
      ],
      "name": "Transfer",
      "type": "event"
    },
    {
      "anonymous": false,
      "inputs": [
        {
          "indexed": false,
          "internalType": "address",
          "name": "account",
          "type": "address"
        }
      ],
      "name": "Unpaused",
      "type": "event"
    },
    {
      "anonymous": false,
      "inputs": [
        {
          "indexed": true,
          "internalType": "address",
          "name": "implementation",
          "type": "address"
        }
      ],
      "name": "Upgraded",
      "type": "event"
    },
    {
      "anonymous": false,
      "inputs": [
        {
          "indexed": true,
          "internalType": "address",
          "name": "beneficiary",
          "type": "address"
        },
        {
          "indexed": false,
          "internalType": "uint256",
          "name": "totalAmount",
          "type": "uint256"
        },
        {
          "indexed": false,
          "internalType": "uint256",
          "name": "startTime",
          "type": "uint256"
        },
        {
          "indexed": false,
          "internalType": "uint256",
          "name": "cliffDuration",
          "type": "uint256"
        },
        {
          "indexed": false,
          "internalType": "uint256",
          "name": "vestingDuration",
          "type": "uint256"
        }
      ],
      "name": "VestingScheduleCreated",
      "type": "event"
    },
    {
      "anonymous": false,
      "inputs": [
        {
          "indexed": true,
          "internalType": "address",
          "name": "beneficiary",
          "type": "address"
        },
        {
          "indexed": false,
          "internalType": "uint256",
          "name": "returnedAmount",
          "type": "uint256"
        }
      ],
      "name": "VestingScheduleRevoked",
      "type": "event"
    },
    {
      "anonymous": false,
      "inputs": [
        {
          "indexed": true,
          "internalType": "address",
          "name": "beneficiary",
          "type": "address"
        },
        {
          "indexed": false,
          "internalType": "uint256",
          "name": "amount",
          "type": "uint256"
        }
      ],
      "name": "VestingTokensReleased",
      "type": "event"
    },
    {
      "anonymous": false,
      "inputs": [
        {
          "indexed": false,
          "internalType": "address[]",
          "name": "addresses",
          "type": "address[]"
        },
        {
          "indexed": false,
          "internalType": "bool",
          "name": "status",
          "type": "bool"
        }
      ],
      "name": "WhitelistUpdated",
      "type": "event"
    },
    {
      "inputs": [],
      "name": "VERSION",
      "outputs": [
        {
          "internalType": "string",
          "name": "",
          "type": "string"
        }
      ],
      "stateMutability": "view",
      "type": "function"
    },
    {
      "inputs": [
        {
          "internalType": "address",
          "name": "owner",
          "type": "address"
        },
        {
          "internalType": "address",
          "name": "spender",
          "type": "address"
        }
      ],
      "name": "allowance",
      "outputs": [
        {
          "internalType": "uint256",
          "name": "",
          "type": "uint256"
        }
      ],
      "stateMutability": "view",
      "type": "function"
    },
    {
      "inputs": [
        {
          "internalType": "address",
          "name": "spender",
          "type": "address"
        },
        {
          "internalType": "uint256",
          "name": "amount",
          "type": "uint256"
        }
      ],
      "name": "approve",
      "outputs": [
        {
          "internalType": "bool",
          "name": "",
          "type": "bool"
        }
      ],
      "stateMutability": "nonpayable",
      "type": "function"
    },
    {
      "inputs": [
        {
          "internalType": "address",
          "name": "account",
          "type": "address"
        }
      ],
      "name": "balanceOf",
      "outputs": [
        {
          "internalType": "uint256",
          "name": "",
          "type": "uint256"
        }
      ],
      "stateMutability": "view",
      "type": "function"
    },
    {
      "inputs": [
        {
          "internalType": "address",
          "name": "",
          "type": "address"
        }
      ],
      "name": "blacklist",
      "outputs": [
        {
          "internalType": "bool",
          "name": "",
          "type": "bool"
        }
      ],
      "stateMutability": "view",
      "type": "function"
    },
    {
      "inputs": [],
      "name": "blacklistEnabled",
      "outputs": [
        {
          "internalType": "bool",
          "name": "",
          "type": "bool"
        }
      ],
      "stateMutability": "view",
      "type": "function"
    },
    {
      "inputs": [
        {
          "internalType": "uint256",
          "name": "amount",
          "type": "uint256"
        }
      ],
      "name": "burn",
      "outputs": [],
      "stateMutability": "nonpayable",
      "type": "function"
    },
    {
      "inputs": [
        {
          "internalType": "address",
          "name": "account",
          "type": "address"
        },
        {
          "internalType": "uint256",
          "name": "amount",
          "type": "uint256"
        }
      ],
      "name": "burnFrom",
      "outputs": [],
      "stateMutability": "nonpayable",
      "type": "function"
    },
    {
      "inputs": [],
      "name": "claimRefund",
      "outputs": [],
      "stateMutability": "nonpayable",
      "type": "function"
    },
    {
      "inputs": [],
      "name": "contribute",
      "outputs": [],
      "stateMutability": "payable",
      "type": "function"
    },
    {
      "inputs": [
        {
          "internalType": "address",
          "name": "",
          "type": "address"
        }
      ],
      "name": "contributions",
      "outputs": [
        {
          "internalType": "uint256",
          "name": "",
          "type": "uint256"
        }
      ],
      "stateMutability": "view",
      "type": "function"
    },
    {
      "inputs": [
        {
          "internalType": "uint256",
          "name": "",
          "type": "uint256"
        }
      ],
      "name": "contributors",
      "outputs": [
        {
          "internalType": "address",
          "name": "",
          "type": "address"
        }
      ],
      "stateMutability": "view",
      "type": "function"
    },
    {
      "inputs": [
        {
          "internalType": "address",
          "name": "beneficiary",
          "type": "address"
        },
        {
          "internalType": "uint256",
          "name": "totalAmount",
          "type": "uint256"
        },
        {
          "internalType": "uint256",
          "name": "startTime",
          "type": "uint256"
        },
        {
          "internalType": "uint256",
          "name": "cliffDuration",
          "type": "uint256"
        },
        {
          "internalType": "uint256",
          "name": "vestingDuration",
          "type": "uint256"
        },
        {
          "internalType": "bool",
          "name": "revocable",
          "type": "bool"
        }
      ],
      "name": "createVestingSchedule",
      "outputs": [],
      "stateMutability": "nonpayable",
      "type": "function"
    },
    {
      "inputs": [],
      "name": "decimals",
      "outputs": [
        {
          "internalType": "uint8",
          "name": "",
          "type": "uint8"
        }
      ],
      "stateMutability": "view",
      "type": "function"
    },
    {
      "inputs": [
        {
          "internalType": "address",
          "name": "spender",
          "type": "address"
        },
        {
          "internalType": "uint256",
          "name": "subtractedValue",
          "type": "uint256"
        }
      ],
      "name": "decreaseAllowance",
      "outputs": [
        {
          "internalType": "bool",
          "name": "",
          "type": "bool"
        }
      ],
      "stateMutability": "nonpayable",
      "type": "function"
    },
    {
      "inputs": [],
      "name": "finalize",
      "outputs": [],
      "stateMutability": "nonpayable",
      "type": "function"
    },
    {
      "inputs": [],
      "name": "finalizePresale",
      "outputs": [],
      "stateMutability": "nonpayable",
      "type": "function"
    },
    {
      "inputs": [],
      "name": "getContributorCount",
      "outputs": [
        {
          "internalType": "uint256",
          "name": "",
          "type": "uint256"
        }
      ],
      "stateMutability": "view",
      "type": "function"
    },
    {
      "inputs": [
        {
          "internalType": "address",
          "name": "contributor",
          "type": "address"
        }
      ],
      "name": "getContributorInfo",
      "outputs": [
        {
          "internalType": "uint256",
          "name": "contribution",
          "type": "uint256"
        },
        {
          "internalType": "uint256",
          "name": "tokenAllocation",
          "type": "uint256"
        },
        {
          "internalType": "bool",
          "name": "isWhitelisted",
          "type": "bool"
        }
      ],
      "stateMutability": "view",
      "type": "function"
    },
    {
      "inputs": [],
      "name": "getContributors",
      "outputs": [
        {
          "internalType": "address[]",
          "name": "",
          "type": "address[]"
        }
      ],
      "stateMutability": "view",
      "type": "function"
    },
    {
      "inputs": [],
      "name": "getUserCount",
      "outputs": [
        {
          "internalType": "uint256",
          "name": "",
          "type": "uint256"
        }
      ],
      "stateMutability": "view",
      "type": "function"
    },
    {
      "inputs": [],
      "name": "getUsers",
      "outputs": [
        {
          "internalType": "address[]",
          "name": "",
          "type": "address[]"
        }
      ],
      "stateMutability": "view",
      "type": "function"
    },
    {
      "inputs": [
        {
          "internalType": "address",
          "name": "beneficiary",
          "type": "address"
        }
      ],
      "name": "getVestingSchedule",
      "outputs": [
        {
          "internalType": "uint256",
          "name": "totalAmount",
          "type": "uint256"
        },
        {
          "internalType": "uint256",
          "name": "startTime",
          "type": "uint256"
        },
        {
          "internalType": "uint256",
          "name": "cliffDuration",
          "type": "uint256"
        },
        {
          "internalType": "uint256",
          "name": "vestingDuration",
          "type": "uint256"
        },
        {
          "internalType": "uint256",
          "name": "releasedAmount",
          "type": "uint256"
        },
        {
          "internalType": "bool",
          "name": "revocable",
          "type": "bool"
        },
        {
          "internalType": "bool",
          "name": "revoked",
          "type": "bool"
        },
        {
          "internalType": "uint256",
          "name": "releasableAmount",
          "type": "uint256"
        }
      ],
      "stateMutability": "view",
      "type": "function"
    },
    {
      "inputs": [
        {
          "internalType": "address",
          "name": "beneficiary",
          "type": "address"
        }
      ],
      "name": "getVestingStatus",
      "outputs": [
        {
          "internalType": "bool",
          "name": "hasSchedule",
          "type": "bool"
        },
        {
          "internalType": "uint256",
          "name": "totalAmount",
          "type": "uint256"
        },
        {
          "internalType": "uint256",
          "name": "releasedAmount",
          "type": "uint256"
        },
        {
          "internalType": "uint256",
          "name": "releasableAmount",
          "type": "uint256"
        },
        {
          "internalType": "uint256",
          "name": "remainingAmount",
          "type": "uint256"
        },
        {
          "internalType": "uint256",
          "name": "vestingEndTime",
          "type": "uint256"
        },
        {
          "internalType": "bool",
          "name": "isCliffPeriod",
          "type": "bool"
        },
        {
          "internalType": "bool",
          "name": "isFullyVested",
          "type": "bool"
        }
      ],
      "stateMutability": "view",
      "type": "function"
    },
    {
      "inputs": [
        {
          "internalType": "address",
          "name": "",
          "type": "address"
        }
      ],
      "name": "hasVestingSchedule",
      "outputs": [
        {
          "internalType": "bool",
          "name": "",
          "type": "bool"
        }
      ],
      "stateMutability": "view",
      "type": "function"
    },
    {
      "inputs": [
        {
          "internalType": "address",
          "name": "spender",
          "type": "address"
        },
        {
          "internalType": "uint256",
          "name": "addedValue",
          "type": "uint256"
        }
      ],
      "name": "increaseAllowance",
      "outputs": [
        {
          "internalType": "bool",
          "name": "",
          "type": "bool"
        }
      ],
      "stateMutability": "nonpayable",
      "type": "function"
    },
    {
      "inputs": [
        {
          "components": [
            {
              "internalType": "string",
              "name": "name",
              "type": "string"
            },
            {
              "internalType": "string",
              "name": "symbol",
              "type": "string"
            },
            {
              "internalType": "uint256",
              "name": "initialSupply",
              "type": "uint256"
            },
            {
              "internalType": "uint256",
              "name": "maxSupply",
              "type": "uint256"
            },
            {
              "internalType": "address",
              "name": "owner",
              "type": "address"
            },
            {
              "internalType": "bool",
              "name": "enableBlacklist",
              "type": "bool"
            },
            {
              "internalType": "bool",
              "name": "enableTimeLock",
              "type": "bool"
            },
            {
              "internalType": "uint256",
              "name": "presaleRate",
              "type": "uint256"
            },
            {
              "internalType": "uint256",
              "name": "softCap",
              "type": "uint256"
            },
            {
              "internalType": "uint256",
              "name": "hardCap",
              "type": "uint256"
            },
            {
              "internalType": "uint256",
              "name": "minContribution",
              "type": "uint256"
            },
            {
              "internalType": "uint256",
              "name": "maxContribution",
              "type": "uint256"
            },
            {
              "internalType": "uint256",
              "name": "startTime",
              "type": "uint256"
            },
            {
              "internalType": "uint256",
              "name": "endTime",
              "type": "uint256"
            },
            {
              "internalType": "uint256",
              "name": "presalePercentage",
              "type": "uint256"
            },
            {
              "internalType": "uint256",
              "name": "liquidityPercentage",
              "type": "uint256"
            },
            {
              "internalType": "uint256",
              "name": "liquidityLockDuration",
              "type": "uint256"
            },
            {
              "components": [
                {
                  "internalType": "address",
                  "name": "wallet",
                  "type": "address"
                },
                {
                  "internalType": "uint256",
                  "name": "percentage",
                  "type": "uint256"
                },
                {
                  "internalType": "bool",
                  "name": "vestingEnabled",
                  "type": "bool"
                },
                {
                  "internalType": "uint256",
                  "name": "vestingDuration",
                  "type": "uint256"
                },
                {
                  "internalType": "uint256",
                  "name": "cliffDuration",
                  "type": "uint256"
                },
                {
                  "internalType": "uint256",
                  "name": "vestingStartTime",
                  "type": "uint256"
                }
              ],
              "internalType": "struct TokenTemplate_v3.WalletAllocation[]",
              "name": "walletAllocations",
              "type": "tuple[]"
            }
          ],
          "internalType": "struct TokenTemplate_v3.InitParams",
          "name": "params",
          "type": "tuple"
        }
      ],
      "name": "initialize",
      "outputs": [],
      "stateMutability": "nonpayable",
      "type": "function"
    },
    {
      "inputs": [
        {
          "internalType": "address",
          "name": "",
          "type": "address"
        }
      ],
      "name": "isContributor",
      "outputs": [
        {
          "internalType": "bool",
          "name": "",
          "type": "bool"
        }
      ],
      "stateMutability": "view",
      "type": "function"
    },
    {
      "inputs": [
        {
          "internalType": "address",
          "name": "",
          "type": "address"
        }
      ],
      "name": "isUser",
      "outputs": [
        {
          "internalType": "bool",
          "name": "",
          "type": "bool"
        }
      ],
      "stateMutability": "view",
      "type": "function"
    },
    {
      "inputs": [],
      "name": "maxSupply",
      "outputs": [
        {
          "internalType": "uint256",
          "name": "",
          "type": "uint256"
        }
      ],
      "stateMutability": "view",
      "type": "function"
    },
    {
      "inputs": [],
      "name": "name",
      "outputs": [
        {
          "internalType": "string",
          "name": "",
          "type": "string"
        }
      ],
      "stateMutability": "view",
      "type": "function"
    },
    {
      "inputs": [],
      "name": "owner",
      "outputs": [
        {
          "internalType": "address",
          "name": "",
          "type": "address"
        }
      ],
      "stateMutability": "view",
      "type": "function"
    },
    {
      "inputs": [],
      "name": "participateInPresale",
      "outputs": [],
      "stateMutability": "payable",
      "type": "function"
    },
    {
      "inputs": [],
      "name": "paused",
      "outputs": [
        {
          "internalType": "bool",
          "name": "",
          "type": "bool"
        }
      ],
      "stateMutability": "view",
      "type": "function"
    },
    {
      "inputs": [
        {
          "internalType": "address",
          "name": "",
          "type": "address"
        }
      ],
      "name": "presaleContributorTokens",
      "outputs": [
        {
          "internalType": "uint256",
          "name": "",
          "type": "uint256"
        }
      ],
      "stateMutability": "view",
      "type": "function"
    },
    {
      "inputs": [],
      "name": "presaleInfo",
      "outputs": [
        {
          "internalType": "uint256",
          "name": "softCap",
          "type": "uint256"
        },
        {
          "internalType": "uint256",
          "name": "hardCap",
          "type": "uint256"
        },
        {
          "internalType": "uint256",
          "name": "minContribution",
          "type": "uint256"
        },
        {
          "internalType": "uint256",
          "name": "maxContribution",
          "type": "uint256"
        },
        {
          "internalType": "uint256",
          "name": "startTime",
          "type": "uint256"
        },
        {
          "internalType": "uint256",
          "name": "endTime",
          "type": "uint256"
        },
        {
          "internalType": "uint256",
          "name": "presaleRate",
          "type": "uint256"
        },
        {
          "internalType": "bool",
          "name": "whitelistEnabled",
          "type": "bool"
        },
        {
          "internalType": "bool",
          "name": "finalized",
          "type": "bool"
        },
        {
          "internalType": "uint256",
          "name": "totalContributed",
          "type": "uint256"
        }
      ],
      "stateMutability": "view",
      "type": "function"
    },
    {
      "inputs": [],
      "name": "proxiableUUID",
      "outputs": [
        {
          "internalType": "bytes32",
          "name": "",
          "type": "bytes32"
        }
      ],
      "stateMutability": "view",
      "type": "function"
    },
    {
      "inputs": [],
      "name": "releaseVestedTokens",
      "outputs": [],
      "stateMutability": "nonpayable",
      "type": "function"
    },
    {
      "inputs": [],
      "name": "renounceOwnership",
      "outputs": [],
      "stateMutability": "nonpayable",
      "type": "function"
    },
    {
      "inputs": [
        {
          "internalType": "address",
          "name": "beneficiary",
          "type": "address"
        }
      ],
      "name": "revokeVesting",
      "outputs": [],
      "stateMutability": "nonpayable",
      "type": "function"
    },
    {
      "inputs": [
        {
          "internalType": "address",
          "name": "account",
          "type": "address"
        },
        {
          "internalType": "uint256",
          "name": "unlockTime",
          "type": "uint256"
        }
      ],
      "name": "setTimeLock",
      "outputs": [],
      "stateMutability": "nonpayable",
      "type": "function"
    },
    {
      "inputs": [],
      "name": "symbol",
      "outputs": [
        {
          "internalType": "string",
          "name": "",
          "type": "string"
        }
      ],
      "stateMutability": "view",
      "type": "function"
    },
    {
      "inputs": [],
      "name": "timeLockEnabled",
      "outputs": [
        {
          "internalType": "bool",
          "name": "",
          "type": "bool"
        }
      ],
      "stateMutability": "view",
      "type": "function"
    },
    {
      "inputs": [
        {
          "internalType": "address",
          "name": "",
          "type": "address"
        }
      ],
      "name": "timeLocks",
      "outputs": [
        {
          "internalType": "uint256",
          "name": "",
          "type": "uint256"
        }
      ],
      "stateMutability": "view",
      "type": "function"
    },
    {
      "inputs": [],
      "name": "totalPresaleTokensDistributed",
      "outputs": [
        {
          "internalType": "uint256",
          "name": "",
          "type": "uint256"
        }
      ],
      "stateMutability": "view",
      "type": "function"
    },
    {
      "inputs": [],
      "name": "totalSupply",
      "outputs": [
        {
          "internalType": "uint256",
          "name": "",
          "type": "uint256"
        }
      ],
      "stateMutability": "view",
      "type": "function"
    },
    {
      "inputs": [
        {
          "internalType": "address",
          "name": "to",
          "type": "address"
        },
        {
          "internalType": "uint256",
          "name": "amount",
          "type": "uint256"
        }
      ],
      "name": "transfer",
      "outputs": [
        {
          "internalType": "bool",
          "name": "",
          "type": "bool"
        }
      ],
      "stateMutability": "nonpayable",
      "type": "function"
    },
    {
      "inputs": [
        {
          "internalType": "address",
          "name": "from",
          "type": "address"
        },
        {
          "internalType": "address",
          "name": "to",
          "type": "address"
        },
        {
          "internalType": "uint256",
          "name": "amount",
          "type": "uint256"
        }
      ],
      "name": "transferFrom",
      "outputs": [
        {
          "internalType": "bool",
          "name": "",
          "type": "bool"
        }
      ],
      "stateMutability": "nonpayable",
      "type": "function"
    },
    {
      "inputs": [
        {
          "internalType": "address",
          "name": "newOwner",
          "type": "address"
        }
      ],
      "name": "transferOwnership",
      "outputs": [],
      "stateMutability": "nonpayable",
      "type": "function"
    },
    {
      "inputs": [
        {
          "internalType": "address[]",
          "name": "addresses",
          "type": "address[]"
        },
        {
          "internalType": "bool",
          "name": "status",
          "type": "bool"
        }
      ],
      "name": "updateBlacklist",
      "outputs": [],
      "stateMutability": "nonpayable",
      "type": "function"
    },
    {
      "inputs": [
        {
          "internalType": "address[]",
          "name": "addresses",
          "type": "address[]"
        },
        {
          "internalType": "bool",
          "name": "status",
          "type": "bool"
        }
      ],
      "name": "updateWhitelist",
      "outputs": [],
      "stateMutability": "nonpayable",
      "type": "function"
    },
    {
      "inputs": [
        {
          "internalType": "address",
          "name": "newImplementation",
          "type": "address"
        }
      ],
      "name": "upgradeTo",
      "outputs": [],
      "stateMutability": "nonpayable",
      "type": "function"
    },
    {
      "inputs": [
        {
          "internalType": "address",
          "name": "newImplementation",
          "type": "address"
        },
        {
          "internalType": "bytes",
          "name": "data",
          "type": "bytes"
        }
      ],
      "name": "upgradeToAndCall",
      "outputs": [],
      "stateMutability": "payable",
      "type": "function"
    },
    {
      "inputs": [],
      "name": "userCount",
      "outputs": [
        {
          "internalType": "uint256",
          "name": "",
          "type": "uint256"
        }
      ],
      "stateMutability": "view",
      "type": "function"
    },
    {
      "inputs": [
        {
          "internalType": "uint256",
          "name": "",
          "type": "uint256"
        }
      ],
      "name": "users",
      "outputs": [
        {
          "internalType": "address",
          "name": "",
          "type": "address"
        }
      ],
      "stateMutability": "view",
      "type": "function"
    },
    {
      "inputs": [
        {
          "internalType": "address",
          "name": "",
          "type": "address"
        }
      ],
      "name": "vestingSchedules",
      "outputs": [
        {
          "internalType": "uint256",
          "name": "totalAmount",
          "type": "uint256"
        },
        {
          "internalType": "uint256",
          "name": "startTime",
          "type": "uint256"
        },
        {
          "internalType": "uint256",
          "name": "cliffDuration",
          "type": "uint256"
        },
        {
          "internalType": "uint256",
          "name": "vestingDuration",
          "type": "uint256"
        },
        {
          "internalType": "uint256",
          "name": "releasedAmount",
          "type": "uint256"
        },
        {
          "internalType": "bool",
          "name": "revocable",
          "type": "bool"
        },
        {
          "internalType": "bool",
          "name": "revoked",
          "type": "bool"
        }
      ],
      "stateMutability": "view",
      "type": "function"
    },
    {
      "inputs": [
        {
          "internalType": "address",
          "name": "",
          "type": "address"
        }
      ],
      "name": "whitelist",
      "outputs": [
        {
          "internalType": "bool",
          "name": "",
          "type": "bool"
        }
      ],
      "stateMutability": "view",
      "type": "function"
    }
  ],
  "bytecode": "0x60a08060405234620000e157306080526000549060ff8260081c166200008f575060ff8082160362000053575b6040516148619081620000e78239608051818181612622015281816127220152612eba0152f35b60ff90811916176000557f7f26b83ff96e1f2b6a682f133852f6798a09c465da95921460cefb3847402498602060405160ff8152a1386200002c565b62461bcd60e51b815260206004820152602760248201527f496e697469616c697a61626c653a20636f6e747261637420697320696e697469604482015266616c697a696e6760c81b6064820152608490fd5b600080fdfe608080604052600436101561001357600080fd5b60003560e01c908162ce8e3e1461338a5750806306fdde03146132f457806307973ccf14610ab3578063095ea7b3146132ce5780630bce8cdf1461326b57806318160ddd1461324d5780631d0d35f51461320d57806323b872dd146131d5578063253da8bd146131b65780632edf086914613136578063313ce5671461311a5780633659cfe614612e96578063365b98b214612e3b5780633950935114612dea5780633b0da26014612c3e5780633cb5d10014612bfb5780634209fff114612bbb57806342966c6814612b9e57806342e94c9014612b63578063488dc57d14612b285780634afa004214612b095780634bb278f3146129675780634f1ef286146126d357806352d1902d1461260f57806354dd1da4146124e15780635c975abb146124be578063644fab74146123b557806370a082311461237b578063715018a61461231e57806379cc6790146122ee5780637f76b223146122b35780638da5cb5b1461228a57806395d89b41146121bd5780639b19251a1461217d5780639f829063146120ca578063a0a6e94014612022578063a18ef3211461121f578063a457c2d714611178578063a52e4e8c1461111c578063a9059cbb146110eb578063aaad932114610dac578063af157c1914610d1c578063aff177ca14610c3d578063b4a3889314610bfd578063b5545a3c14610ad2578063b5cb15f714610ab3578063bb0e69e8146109ca578063bffb691d146109a6578063caa07a0c146107af578063cba4cbd314610788578063d5abeb0114610769578063d7bb99ba146104a4578063dd62ed3e14610453578063f2fde38b146103c4578063f9f92be414610384578063fdb20ccb146103005763ffa1ad741461029157600080fd5b346102fb5760003660031901126102fb5760405160408101908082106001600160401b038311176102e5576102e19160405260058152640332e302e360dc1b602082015260405191829182613451565b0390f35b634e487b7160e01b600052604160045260246000fd5b600080fd5b346102fb5760203660031901126102fb576001600160a01b0361032161349a565b166000526101d960205260e0604060002060ff815491600181015490600281015460038201549060056004840154930154936040519687526020870152604086015260608501526080840152818116151560a084015260081c16151560c0820152f35b346102fb5760203660031901126102fb576001600160a01b036103a561349a565b166000526101d3602052602060ff604060002054166040519015158152f35b346102fb5760203660031901126102fb576103dd61349a565b6103e5613fee565b6001600160a01b038116156103ff576103fd90614333565b005b60405162461bcd60e51b815260206004820152602660248201527f4f776e61626c653a206e6577206f776e657220697320746865207a65726f206160448201526564647265737360d01b6064820152608490fd5b346102fb5760403660031901126102fb5761046c61349a565b6104746134b0565b9060018060a01b038091166000526034602052604060002091166000526020526020604060002054604051908152f35b60003660031901126102fb576104b86142dc565b6101ca54421061072e576101cb5442116106f9576101cd546104e060ff8260081c1615613a90565b6104ef6101c854341015613ad0565b6101c9549061050082341115613b15565b60ff6101ce9161051f610514348554613711565b6101c7541015613b5a565b166106ab575b336000526101d060209181835261054134604060002054613711565b93841161066657336000526101d680845260ff60406000205416156105e4575b7fd2dff949d20e874cc6ba1dcefb840fb8cf6000a4197bfb69accfea5a32443ff56060858585896105956101cc5434613950565b92336000526101d7855260406000206105af858254613711565b90553360005284526040600020556105c8348254613711565b90556040519133835234908301526040820152a1600161019155005b9291906101d594855494600160401b8610156102e55761062d867fd2dff949d20e874cc6ba1dcefb840fb8cf6000a4197bfb69accfea5a32443ff59860016060990190556134c6565b81549060031b9033821b9160018060a01b03901b19161790553360005284526040600020600160ff198254161790559450909192610561565b60405162461bcd60e51b815260048101849052601d60248201527f576f756c6420657863656564206d617820636f6e747269627574696f6e0000006044820152606490fd5b336000526101cf60205260ff604060002054166105255760405162461bcd60e51b815260206004820152600f60248201526e139bdd081dda1a5d195b1a5cdd1959608a1b6044820152606490fd5b60405162461bcd60e51b815260206004820152600d60248201526c141c995cd85b1948195b991959609a1b6044820152606490fd5b60405162461bcd60e51b8152602060048201526013602482015272141c995cd85b19481b9bdd081cdd185c9d1959606a1b6044820152606490fd5b346102fb5760003660031901126102fb5760206101d154604051908152f35b346102fb5760003660031901126102fb57602060ff6101d25460081c166040519015158152f35b60003660031901126102fb576107c36142dc565b6101ca544210610961576101cb5442116109285760ff6101cd5460081c166108ec576107f46101c854341015613ad0565b6108036101c954341115613b15565b6101ce8054906108166105143484613711565b6108236101cc5434613950565b9182156108b157610835903490613711565b9055336000526101d06020526040600020610851348254613711565b90556101d8610861828254613711565b905561086e813330613d33565b610877336145a1565b6040519034825260208201527f7328344177fc6d840574aa1d342887bb3cc0db401813cdf2ee680609a603871160403392a2600161019155005b60405162461bcd60e51b81526020600482015260136024820152724d757374207265636569766520746f6b656e7360681b6044820152606490fd5b60405162461bcd60e51b8152602060048201526014602482015273141c995cd85b19481a5cc8199a5b985b1a5e995960621b6044820152606490fd5b60405162461bcd60e51b8152602060048201526011602482015270141c995cd85b19481a185cc8195b991959607a1b6044820152606490fd5b60405162461bcd60e51b815260206004820152601760248201527f50726573616c6520686173206e6f7420737461727465640000000000000000006044820152606490fd5b346102fb5760003660031901126102fb57602060ff6101d254166040519015158152f35b346102fb576109d8366135bc565b916109e1613fee565b60ff6101d2541615610a765760005b828110610a2e5750610a297f11d4d128e8f89ae2e8815168b9eba079dd6668b75f1e3a9dd96ac6192a7c4dcb9360405193849384613a35565b0390a1005b6001906001600160a01b03610a4c610a47838787613a25565b6138ea565b166000526101d3602052610a708560406000209060ff801983541691151516179055565b016109f0565b60405162461bcd60e51b8152602060048201526015602482015274109b1858dadb1a5cdd081b9bdd08195b98589b1959605a1b6044820152606490fd5b346102fb5760003660031901126102fb5760206101c554604051908152f35b346102fb5760003660031901126102fb57610aeb6142dc565b610af96101cb5442116137c5565b610b0c60ff6101cd5460081c1615613a90565b6101ce546101c6541115610bc557336000526101d080602052604060002054908115610b8e5733600052602052600060408120556000808080843382f115610b82576040519081527f358fe4192934d3bf28ae181feda1f4bd08ca67f5e2fad55582cce5eb67304ae960203392a2600161019155005b6040513d6000823e3d90fd5b60405162461bcd60e51b815260206004820152600f60248201526e27379031b7b73a3934b13aba34b7b760891b6044820152606490fd5b60405162461bcd60e51b815260206004820152601060248201526f14dbd99d0818d85c081c995858da195960821b6044820152606490fd5b346102fb5760203660031901126102fb576001600160a01b03610c1e61349a565b166000526101da602052602060ff604060002054166040519015158152f35b346102fb57610c4b366135bc565b91610c54613fee565b60ff6101cd541615610cdf5760005b828110610c9c5750610a297fa091d95aa3f4b3529e12c57e1e9e10580edde8a7ac6fd51dd3c8e824c332dbe09360405193849384613a35565b6001906001600160a01b03610cb5610a47838787613a25565b166000526101cf602052610cd98560406000209060ff801983541691151516179055565b01610c63565b60405162461bcd60e51b815260206004820152601560248201527415da1a5d195b1a5cdd081b9bdd08195b98589b1959605a1b6044820152606490fd5b346102fb5760003660031901126102fb57604051806101d59182548082526020809201936000527f9f31c6e1fd7dfe4437c2313157aba3c74244a3ed366f8f45280769d409a8eb0a916000905b828210610d8c576102e185610d8081890382613549565b6040519182918261340c565b83546001600160a01b031686529485019460019384019390910190610d69565b346102fb5760c03660031901126102fb57610dc561349a565b60248035906044918235916064938435916084359660a435908115158092036102fb57610df0613fee565b6001600160a01b03169687156110b557851561108057881561104957876000526101da9360209385855260ff604060002054166110135730600052603385528760406000205410610fdc57428910610f9c578a8711610f5c5750505091610f579391610f138899947f47d46f58c7d60d60571092cff5715b8c8c5bc1347db2bb9890e639bf3680ba7b99610efc6005604051610e8b81613513565b8b81528681018d8152604082018a815260608301908c825260808401926000845260a0850198895260c0850197600089526000526101d98b526040600020945185555160018501555160028401555160038301555160048201550192511515839060ff801983541691151516179055565b51815461ff00191690151560081b61ff0016179055565b526040600020600160ff198254161790556101db610f32858254613711565b9055604051948594859094939260609260808301968352602083015260408201520152565b0390a2005b849160197f436c696666206c6f6e676572207468616e2076657374696e6700000000000000926040519462461bcd60e51b86526004860152840152820152fd5b849160197f53746172742074696d65206d7573742062652066757475726500000000000000926040519462461bcd60e51b86526004860152840152820152fd5b8491601473496e73756666696369656e742062616c616e636560601b926040519462461bcd60e51b86526004860152840152820152fd5b8491601372416c7265616479206861732076657374696e6760681b926040519462461bcd60e51b86526004860152840152820152fd5b60405162461bcd60e51b8152602060048201526014818501527304475726174696f6e206d757374206265203e20360641b81860152fd5b60405162461bcd60e51b815260206004820152601281850152710416d6f756e74206d757374206265203e20360741b81860152fd5b60405162461bcd60e51b81526020600482015260138185015272496e76616c69642062656e656669636961727960681b81860152fd5b346102fb5760403660031901126102fb5761111161110761349a565b6024359033613d33565b602060405160018152f35b346102fb5760203660031901126102fb5761010061114061113b61349a565b613963565b956040959195949294519715158852602088015260408701526060860152608085015260a0840152151560c0830152151560e0820152f35b346102fb5760403660031901126102fb5761119161349a565b60243590336000526034602052604060002060018060a01b038216600052602052604060002054918083106111cc5761111192039033613b99565b60405162461bcd60e51b815260206004820152602560248201527f45524332303a2064656372656173656420616c6c6f77616e63652062656c6f77604482015264207a65726f60d81b6064820152608490fd5b346102fb576003196020368201126102fb576001600160401b03600435116102fb5761024090600435360301126102fb5760005460ff8160081c1615808091612015575b8015611ffe575b15611fa25760ff1982166001176000556112bf9181611f90575b506112936004803501806138b8565b6112b76112ad6024600496949635016004356004016138b8565b9590923691613585565b933691613585565b6112d960ff60005460081c166112d48161437c565b61437c565b82516001600160401b0381116102e5576112f4603654613615565b601f8111611f27575b506020601f8211600114611eb35781929394600092611ea8575b50508160011b916000199060031b1c1916176036555b8051906001600160401b0382116102e557819061134b603754613615565b601f8111611e34575b50602090601f8311600114611dbc57600092611db1575b50508160011b916000199060031b1c1916176037555b6113bb60ff60005460081c166113968161437c565b61139f8161437c565b6113a88161437c565b60ff19609754166097556112d48161437c565b6113c433614333565b6113ed60ff60005460081c166113d98161437c565b6113e28161437c565b60016101915561437c565b6114036113fe6084600435016138ea565b614333565b604460043501356064600435013510611d605761142b610224600435016004356004016138fe565b159050611cd75761144a6101e460043501356101c46004350135613711565b906000915b611464610224600435016004356004016138fe565b905083101561157a5782611498610a47611489610224600435016004356004016138fe565b6001600160a01b039491613933565b16156115355760206114bf846114b9610224600435016004356004016138fe565b90613933565b0135156114f7576114ef60019160206114e7866114b9610224600435016004356004016138fe565b013590613711565b92019161144f565b60405162461bcd60e51b8152602060048201526016602482015275050657263656e74616765206d757374206265203e20360541b6044820152606490fd5b60405162461bcd60e51b815260206004820152601d60248201527f57616c6c657420616464726573732063616e6e6f74206265207a65726f0000006044820152606490fd5b606491925003611c92575b606460043501356101d15561159e60a460043501613943565b15156101d290815460ff61ff006115b960c460043501613943565b151560081b1692169061ffff19161717905560646115e46101c4600435013560446004350135613950565b0460646115fe6101e4600435013560446004350135613950565b04908015611c4d578115611c085761161681306143dc565b60405190815260008051602061480c83398151915260203092a261163a81306143dc565b60405190815260008051602061480c83398151915260203092a2604051806101408101106001600160401b03610140830111176102e557610140810160409081526004356101048101358084526101248201356020850181905261014483013593850184905261016483013560608601819052610184840135608087018190526101a485013560a0880181905260e49095013560c08801819052600060e089018190526101008901819052610120989098018890526101c6949094556101c7929092556101c8949094556101c9939093556101ca929092556101cb556101cc556101cd805461ffff191690556101ce8190555b611742610224600435016004356004016138fe565b9050811015611bc9576064611779602061176b846114b9610224600435016004356004016138fe565b013560446004350135613950565b04908115611b84576117a5604061179f836114b9610224600435016004356004016138fe565b01613943565b15611b57576117b482306143dc565b60a06117cf826114b9610224600435016004356004016138fe565b0135421015611b01576201518060606117f7836114b9610224600435016004356004016138fe565b013510611aac5760a0611819826114b9610224600435016004356004016138fe565b0135916080611837836114b9610224600435016004356004016138fe565b0135928362015180810204620151801484151715611a9657606061186a846114b9610224600435016004356004016138fe565b01358062015180810204620151801481151715611a9657620151807f47d46f58c7d60d60571092cff5715b8c8c5bc1347db2bb9890e639bf3680ba7b91611a236001976119886040516118bc81613513565b88815287602082015285830260408201528585026060820152600060808201528a60a0820152600060c082015289611914610a47611905610224600435016004356004016138fe565b8f8060a09693961b0394613933565b166000526101d960205260c0600560406000208351815560208401518e820155604084015160028201556060840151600382015560808401516004820155019161197060a08201511515849060ff801983541691151516179055565b0151815461ff00191690151560081b61ff0016179055565b876119b3610a476119a4610224600435016004356004016138fe565b8d8060a09693961b0394613933565b166000526101da60205260406000208960ff198254161790556101db6119da888254613711565b9055876119f8610a476119a4610224600435016004356004016138fe565b1695846040519586950292029088859094939260609260808301968352602083015260408201520152565b0390a25b60008051602061480c833981519152602083611a63610a47611a54610224600435016004356004016138fe565b898060a09693961b0394613933565b1692604051908152a2611a90611a8b610a47836114b9610224600435016004356004016138fe565b6145a1565b0161172d565b634e487b7160e01b600052601160045260246000fd5b60405162461bcd60e51b815260206004820152602760248201527f56657374696e67206475726174696f6e206d757374206265206174206c6561736044820152667420312064617960c81b6064820152608490fd5b60405162461bcd60e51b815260206004820152602860248201527f56657374696e672073746172742074696d65206d75737420626520696e207468604482015267652066757475726560c01b6064820152608490fd5b81611b7f600193611b7a610a47856114b9610224600435016004356004016138fe565b6143dc565b611a27565b60405162461bcd60e51b815260206004820152601960248201527f57616c6c657420746f6b656e73206d757374206265203e2030000000000000006044820152606490fd5b50611bd057005b61ff0019600054166000557f7f26b83ff96e1f2b6a682f133852f6798a09c465da95921460cefb3847402498602060405160018152a1005b60405162461bcd60e51b815260206004820152601c60248201527f4c697175696469747920746f6b656e73206d757374206265203e2030000000006044820152606490fd5b60405162461bcd60e51b815260206004820152601a60248201527f50726573616c6520746f6b656e73206d757374206265203e20300000000000006044820152606490fd5b60405162461bcd60e51b815260206004820152601c60248201527f546f74616c2070657263656e74616765206d75737420626520313030000000006044820152606490fd5b6064611cf16101e460043501356101c46004350135613711565b1461158557608460405162461bcd60e51b815260206004820152604060248201527f50726573616c6520616e64206c6971756964697479206d75737420746f74616c60448201527f2031303025207768656e206e6f206164646974696f6e616c2077616c6c6574736064820152fd5b60405162461bcd60e51b8152602060048201526024808201527f4d617820737570706c79206d757374206265203e3d20696e697469616c20737560448201526370706c7960e01b6064820152608490fd5b01519050838061136b565b925060376000526000805160206147ec833981519152906000935b601f1984168510611e19576001945083601f19811610611e00575b505050811b01603755611381565b015160001960f88460031b161c19169055838080611df2565b81810151835560209485019460019093019290910190611dd7565b9091506037600052601f830160051c6000805160206147ec8339815191520160208410611e93575b908392915b601f820160051c6000805160206147ec833981519152018110611e845750611354565b60008155849350600101611e61565b506000805160206147ec833981519152611e5c565b015190508480611317565b60366000526000805160206147ac8339815191529060005b601f1984168110611f0f5750600193949583601f19811610611ef6575b505050811b0160365561132d565b015160001960f88460031b161c19169055848080611ee8565b9091602060018192858a015181550193019101611ecb565b6036600052601f820160051c6000805160206147ac8339815191520160208310611f7b575b601f820160051c6000805160206147ac833981519152018110611f6f57506112fd565b60008155600101611f4c565b506000805160206147ac833981519152611f4c565b61ffff19166101011760005582611284565b60405162461bcd60e51b815260206004820152602e60248201527f496e697469616c697a61626c653a20636f6e747261637420697320616c72656160448201526d191e481a5b9a5d1a585b1a5e995960921b6064820152608490fd5b50303b15801561126a5750600160ff83161461126a565b50600160ff831610611263565b346102fb5760003660031901126102fb5761203b613fee565b6101cb54421180156120ba575b612051906137c5565b7fedfde254cb8ed39d650c9a34251c59d6817fae4cc876cc2ce76669976cf102ee60406101cd80549061208a60ff8360081c1615613805565b6101006101ce54926120a16101c654851015613845565b61ff0019161790556101d85482519182526020820152a1005b506101ce546101c7541115612048565b346102fb5760203660031901126102fb576001600160a01b036120eb61349a565b16806000526101da60205261210760ff6040600020541661371e565b6000526101d96020526101006121206040600020613760565b8051906020810151906040810151606082015160808301519060a084015115159261215160c0860151151595614046565b95604051978852602088015260408701526060860152608085015260a084015260c083015260e0820152f35b346102fb5760203660031901126102fb576001600160a01b0361219e61349a565b166000526101cf602052602060ff604060002054166040519015158152f35b346102fb5760003660031901126102fb5760405160006037546121df81613615565b808452906020906001908181169081156122605750600114612218575b6102e18561220c81870382613549565b60405191829182613451565b6037600090815293506000805160206147ec8339815191525b83851061224d5750505050810160200161220c826102e16121fc565b8054868601840152938201938101612231565b8695506102e19693506020925061220c94915060ff191682840152151560051b82010192936121fc565b346102fb5760003660031901126102fb5760fb546040516001600160a01b039091168152602090f35b346102fb5760203660031901126102fb576001600160a01b036122d461349a565b166000526101d46020526020604060002054604051908152f35b346102fb5760403660031901126102fb576103fd61230a61349a565b60243590612319823383613c9b565b6140e8565b346102fb5760003660031901126102fb57612337613fee565b60fb80546001600160a01b031981169091556000906001600160a01b03167f8be0079c531659141344cd1fd0a4f28419497f9722a3daafe3b4186f6b6457e08280a3005b346102fb5760203660031901126102fb576001600160a01b0361239c61349a565b1660005260336020526020604060002054604051908152f35b346102fb5760403660031901126102fb576123ce61349a565b602435906123da613fee565b60ff6101d25460081c1615612481574282111561243c577fa9353e70f07f31e7f4e16464f45e189cbd22826780a5abe4da8303652a86960a9160409160018060a01b031690816000526101d460205280836000205582519182526020820152a1005b60405162461bcd60e51b815260206004820152601d60248201527f556e6c6f636b2074696d65206d75737420626520696e206675747572650000006044820152606490fd5b60405162461bcd60e51b8152602060048201526015602482015274151a5b59481b1bd8dac81b9bdd08195b98589b1959605a1b6044820152606490fd5b346102fb5760003660031901126102fb57602060ff609754166040519015158152f35b346102fb5760003660031901126102fb57336000526101da60205261250d60ff6040600020541661371e565b336000526101d9602052604060002060ff600582015460081c166125d85761253c61253782613760565b614046565b90811561259c57600401612551828254613711565b90556101db6125618282546137b8565b905561256e813330613d33565b6040519081527f6ac6b97c2deded5d08888a74d95299cd1defd6e602974a1cedb874b1c0cc2e4a60203392a2005b60405162461bcd60e51b81526020600482015260146024820152734e6f20746f6b656e7320746f2072656c6561736560601b6044820152606490fd5b60405162461bcd60e51b815260206004820152600f60248201526e15995cdd1a5b99c81c995d9bdad959608a1b6044820152606490fd5b346102fb5760003660031901126102fb577f00000000000000000000000000000000000000000000000000000000000000006001600160a01b031630036126685760206040516000805160206147cc8339815191528152f35b60405162461bcd60e51b815260206004820152603860248201527f555550535570677261646561626c653a206d757374206e6f742062652063616c60448201527f6c6564207468726f7567682064656c656761746563616c6c00000000000000006064820152608490fd5b60403660031901126102fb576126e761349a565b6024356001600160401b0381116102fb57366023820112156102fb57612717903690602481600401359101613585565b906001600160a01b037f00000000000000000000000000000000000000000000000000000000000000008116906127503083141561364f565b61276d6000805160206147cc8339815191529282845416146136b0565b612775613fee565b7f4910fdfa16fed3260ed0e7147f7cc6da11a60208b5b9406d12a635614ffd91435460ff16156127ab5750506103fd9150614686565b6040516352d1902d60e01b81526020939291831691908481600481865afa60009181612938575b506128335760405162461bcd60e51b815260048101869052602e60248201527f45524331393637557067726164653a206e657720696d706c656d656e7461746960448201526d6f6e206973206e6f74205555505360901b6064820152608490fd5b036128e15761284182614686565b7fbc7cd75a20ee27fd9adebab32041f755214dbc6bffa90cc0225b39da2e5c2d3b600080a28251158015906128d9575b61287757005b6000806103fd946040519461288b8661352e565b602786527f416464726573733a206c6f772d6c6576656c2064656c65676174652063616c6c81870152660819985a5b195960ca1b604087015281519101845af46128d3613888565b91614716565b506001612871565b60405162461bcd60e51b815260048101849052602960248201527f45524331393637557067726164653a20756e737570706f727465642070726f786044820152681a58589b195555525160ba1b6064820152608490fd5b9091508581813d8311612960575b6129508183613549565b810103126102fb575190876127d2565b503d612946565b346102fb5760003660031901126102fb57612980613fee565b6129886142dc565b6129966101cb5442116137c5565b6101cd8054906129ac60ff8360081c1615613805565b6101006101ce926129c384546101c6541115613845565b61ff00191617905560005b6101d554811015612a5f57806129e56001926134c6565b838060a01b0391549060031b1c16806000526101d79060209082825260406000205480612a17575b50505050016129ce565b60008051602061480c8339815191528382612a3485948533613d33565b6101d8612a42828254613711565b9055604051908152a2600052526000604081205583808080612a0d565b504780612aa3575b7fedfde254cb8ed39d650c9a34251c59d6817fae4cc876cc2ce76669976cf102ee604083546101d85482519182526020820152a1600161019155005b60fb546000918291829182916001600160a01b03165af1612ac2613888565b5015612ace5781612a67565b60405162461bcd60e51b8152602060048201526013602482015272115512081d1c985b9cd9995c8819985a5b1959606a1b6044820152606490fd5b346102fb5760003660031901126102fb5760206101d854604051908152f35b346102fb5760203660031901126102fb576001600160a01b03612b4961349a565b166000526101d76020526020604060002054604051908152f35b346102fb5760203660031901126102fb576001600160a01b03612b8461349a565b166000526101d06020526020604060002054604051908152f35b346102fb5760203660031901126102fb576103fd600435336140e8565b346102fb5760203660031901126102fb576001600160a01b03612bdc61349a565b166000526101c3602052602060ff604060002054166040519015158152f35b346102fb5760203660031901126102fb576004356101d5548110156102fb57612c256020916134c6565b905460405160039290921b1c6001600160a01b03168152f35b346102fb576020806003193601126102fb57612c5861349a565b90612c61613fee565b60018060a01b03821691826000526101da8252612c8560ff6040600020541661371e565b826000526101d982526040600020600581019081549160ff831615612db55760ff8360081c16612d7e5790612cf3939291612cc261253783613760565b93849160048454940190610100612cdb835480976137b8565b9661ff00191617905582612d36575b505050506137b8565b9081612cfb57005b7fb71d84e80ebac87b433939f1a1191d542623a94ff5b940314af5589461f35275916101db612d2b8282546137b8565b9055604051908152a2005b612d4383612d4b95613711565b905530613d33565b847f6ac6b97c2deded5d08888a74d95299cd1defd6e602974a1cedb874b1c0cc2e4a85604051858152a285828180612cea565b60405162461bcd60e51b815260048101869052600f60248201526e105b1c9958591e481c995d9bdad959608a1b6044820152606490fd5b60405162461bcd60e51b815260048101869052600d60248201526c4e6f74207265766f6361626c6560981b6044820152606490fd5b346102fb5760403660031901126102fb57611111612e0661349a565b336000526034602052604060002060018060a01b038216600052602052612e34602435604060002054613711565b9033613b99565b346102fb5760203660031901126102fb576004356101c49081548110156102fb5760209160005260018060a01b03907f5ac35dca7c3a7d5ae9d0add1efdc4aa02e10dd5cac0b90d2122cf0f0cc68317f015416604051908152f35b346102fb576020806003193601126102fb57612eb061349a565b6001600160a01b037f000000000000000000000000000000000000000000000000000000000000000081169290612ee93085141561364f565b612f066000805160206147cc8339815191529482865416146136b0565b612f0e613fee565b60405193828501918583106001600160401b038411176102e557826040526000865260ff7f4910fdfa16fed3260ed0e7147f7cc6da11a60208b5b9406d12a635614ffd91435416600014612f6a57505050506103fd9150614686565b84939416906040516352d1902d60e01b81528581600481865afa600091816130eb575b50612fee5760405162461bcd60e51b815260048101879052602e60248201527f45524331393637557067726164653a206e657720696d706c656d656e7461746960448201526d6f6e206973206e6f74205555505360901b6064820152608490fd5b0361309457612ffc83614686565b7fbc7cd75a20ee27fd9adebab32041f755214dbc6bffa90cc0225b39da2e5c2d3b600080a283511580159061308c575b61303257005b600080916103fd957f416464726573733a206c6f772d6c6576656c2064656c65676174652063616c6c604051966130688861352e565b60278852870152660819985a5b195960ca1b60408701525190845af46128d3613888565b50600061302c565b60405162461bcd60e51b815260048101859052602960248201527f45524331393637557067726164653a20756e737570706f727465642070726f786044820152681a58589b195555525160ba1b6064820152608490fd5b9091508681813d8311613113575b6131038183613549565b810103126102fb57519088612f8d565b503d6130f9565b346102fb5760003660031901126102fb57602060405160128152f35b346102fb5760003660031901126102fb576101406101c6546101c75460ff6101c8546101c9546101ca546101cb54906101cc54926101cd54946101ce5497604051998a5260208a015260408901526060880152608087015260a086015260c0850152818116151560e085015260081c161515610100830152610120820152f35b346102fb5760003660031901126102fb5760206101d554604051908152f35b346102fb5760603660031901126102fb576111116131f161349a565b6131f96134b0565b60443591613208833383613c9b565b613d33565b346102fb5760203660031901126102fb576001600160a01b0361322e61349a565b166000526101d6602052602060ff604060002054166040519015158152f35b346102fb5760003660031901126102fb576020603554604051908152f35b346102fb5760203660031901126102fb576001600160a01b0361328c61349a565b166000526101d060205260606040600020546101d76020526040600020546101cf60205260ff6040600020541690604051928352602083015215156040820152f35b346102fb5760403660031901126102fb576111116132ea61349a565b6024359033613b99565b346102fb5760003660031901126102fb57604051600060365461331681613615565b808452906020906001908181169081156122605750600114613342576102e18561220c81870382613549565b6036600090815293506000805160206147ac8339815191525b8385106133775750505050810160200161220c826102e16121fc565b805486860184015293820193810161335b565b346102fb5760003660031901126102fb576101c490815480825260209060208301936000527f5ac35dca7c3a7d5ae9d0add1efdc4aa02e10dd5cac0b90d2122cf0f0cc68317f916000905b8282106133ec576102e185610d8081890382613549565b83546001600160a01b0316865294850194600193840193909101906133d5565b602090602060408183019282815285518094520193019160005b828110613434575050505090565b83516001600160a01b031685529381019392810192600101613426565b6020808252825181830181905290939260005b82811061348657505060409293506000838284010152601f8019910116010190565b818101860151848201604001528501613464565b600435906001600160a01b03821682036102fb57565b602435906001600160a01b03821682036102fb57565b6101d580548210156134fd576000527f9f31c6e1fd7dfe4437c2313157aba3c74244a3ed366f8f45280769d409a8eb0a0190600090565b634e487b7160e01b600052603260045260246000fd5b60e081019081106001600160401b038211176102e557604052565b606081019081106001600160401b038211176102e557604052565b90601f801991011681019081106001600160401b038211176102e557604052565b6001600160401b0381116102e557601f01601f191660200190565b9291926135918261356a565b9161359f6040519384613549565b8294818452818301116102fb578281602093846000960137010152565b9060406003198301126102fb576004356001600160401b03928382116102fb57806023830112156102fb5781600401359384116102fb5760248460051b830101116102fb57602401919060243580151581036102fb5790565b90600182811c92168015613645575b602083101461362f57565b634e487b7160e01b600052602260045260246000fd5b91607f1691613624565b1561365657565b60405162461bcd60e51b815260206004820152602c60248201527f46756e6374696f6e206d7573742062652063616c6c6564207468726f7567682060448201526b19195b1959d85d1958d85b1b60a21b6064820152608490fd5b156136b757565b60405162461bcd60e51b815260206004820152602c60248201527f46756e6374696f6e206d7573742062652063616c6c6564207468726f7567682060448201526b6163746976652070726f787960a01b6064820152608490fd5b91908201809211611a9657565b1561372557565b60405162461bcd60e51b81526020600482015260136024820152724e6f2076657374696e67207363686564756c6560681b6044820152606490fd5b9060405161376d81613513565b60c060ff6005839580548552600181015460208601526002810154604086015260038101546060860152600481015460808601520154818116151560a085015260081c161515910152565b91908203918211611a9657565b156137cc57565b60405162461bcd60e51b8152602060048201526011602482015270141c995cd85b19481b9bdd08195b991959607a1b6044820152606490fd5b1561380c57565b60405162461bcd60e51b8152602060048201526011602482015270105b1c9958591e48199a5b985b1a5e9959607a1b6044820152606490fd5b1561384c57565b60405162461bcd60e51b815260206004820152601460248201527314dbd99d0818d85c081b9bdd081c995858da195960621b6044820152606490fd5b3d156138b3573d906138998261356a565b916138a76040519384613549565b82523d6000602084013e565b606090565b903590601e19813603018212156102fb57018035906001600160401b0382116102fb576020019181360383136102fb57565b356001600160a01b03811681036102fb5790565b903590601e19813603018212156102fb57018035906001600160401b0382116102fb576020019160c08202360383136102fb57565b91908110156134fd5760c0020190565b3580151581036102fb5790565b81810292918115918404141715611a9657565b6001600160a01b031660009081526101da602052604081205460ff168015613a16576101d960205261399760408320613760565b9160c08301516139fe575060208201906139c76139ba8351606086015190613711565b9251604085015190613711565b4210938351946139db608086015195614046565b936139ef856139ea888a6137b8565b6137b8565b93969594939281929142101590565b82516080909301516001949092508190819081908790565b50908180918180918180918190565b91908110156134fd5760051b0190565b60408082528101839052929392916060830190600090815b818110613a635750505060209150931515910152565b909192843560018060a01b038116809103613a8c57815260209485019401929190600101613a4d565b8480fd5b15613a9757565b60405162461bcd60e51b8152602060048201526011602482015270141c995cd85b1948199a5b985b1a5e9959607a1b6044820152606490fd5b15613ad757565b60405162461bcd60e51b81526020600482015260166024820152752132b637bb9036b4b71031b7b73a3934b13aba34b7b760511b6044820152606490fd5b15613b1c57565b60405162461bcd60e51b815260206004820152601660248201527520b137bb329036b0bc1031b7b73a3934b13aba34b7b760511b6044820152606490fd5b15613b6157565b60405162461bcd60e51b815260206004820152601060248201526f12185c990818d85c081c995858da195960821b6044820152606490fd5b6001600160a01b03908116918215613c4a5716918215613bfa5760207f8c5be1e5ebec7d5bd14f71427d1e84f3dd0314c0f7b2291e5b200ac8c7c3b925918360005260348252604060002085600052825280604060002055604051908152a3565b60405162461bcd60e51b815260206004820152602260248201527f45524332303a20617070726f766520746f20746865207a65726f206164647265604482015261737360f01b6064820152608490fd5b60405162461bcd60e51b8152602060048201526024808201527f45524332303a20617070726f76652066726f6d20746865207a65726f206164646044820152637265737360e01b6064820152608490fd5b9060018060a01b0380831660005260346020526040600020908216600052602052604060002054926000198403613cd3575b50505050565b808410613cee57613ce5930391613b99565b38808080613ccd565b60405162461bcd60e51b815260206004820152601d60248201527f45524332303a20696e73756666696369656e7420616c6c6f77616e63650000006044820152606490fd5b6001600160a01b03908116908115613f9b578216908115613f4a576101d25460ff8116613edd575b60081c60ff1680613ed5575b613e89575b60ff60975416613e315760008181526033602052604081205490858210613ddd5785604082613ddb987fddf252ad1be2c89b69c2b068fc378daa952ba7f163c4a11628f55a4df523b3ef95876020965260338652038282205586815220818154019055604051908152a36145a1565b565b60405162461bcd60e51b815260206004820152602660248201527f45524332303a207472616e7366657220616d6f756e7420657863656564732062604482015265616c616e636560d01b6064820152608490fd5b60405162461bcd60e51b815260206004820152602a60248201527f45524332305061757361626c653a20746f6b656e207472616e736665722077686044820152691a5b19481c185d5cd95960b21b6064820152608490fd5b806000526101d4602052604060002054421015613d6c5760405162461bcd60e51b815260206004820152600d60248201526c151bdad95b9cc81b1bd8dad959609a1b6044820152606490fd5b506001613d67565b816000526101d360205260ff604060002054161580613f36575b613d5b5760405162461bcd60e51b81526020600482015260136024820152721059191c995cdcc8189b1858dadb1a5cdd1959606a1b6044820152606490fd5b508260005260ff6040600020541615613ef7565b60405162461bcd60e51b815260206004820152602360248201527f45524332303a207472616e7366657220746f20746865207a65726f206164647260448201526265737360e81b6064820152608490fd5b60405162461bcd60e51b815260206004820152602560248201527f45524332303a207472616e736665722066726f6d20746865207a65726f206164604482015264647265737360d81b6064820152608490fd5b60fb546001600160a01b0316330361400257565b606460405162461bcd60e51b815260206004820152602060248201527f4f776e61626c653a2063616c6c6572206973206e6f7420746865206f776e65726044820152fd5b60c08101516140e257602081016140638151604084015190613711565b42106140db5780519061407c6060840192835190613711565b4210156140c8576140916140989151426137b8565b8351613950565b905180156140b25760806140af93015191046137b8565b90565b634e487b7160e01b600052601260045260246000fd5b50508060806140af9251910151906137b8565b5050600090565b50600090565b6001600160a01b0316801561428d576101d25460ff8116614220575b60081c60ff1680614218575b6141cc575b60ff60975416613e31578060005260336020526040600020549180831061417c576020817fddf252ad1be2c89b69c2b068fc378daa952ba7f163c4a11628f55a4df523b3ef92600095858752603384520360408620558060355403603555604051908152a3565b60405162461bcd60e51b815260206004820152602260248201527f45524332303a206275726e20616d6f756e7420657863656564732062616c616e604482015261636560f01b6064820152608490fd5b806000526101d46020526040600020544210156141155760405162461bcd60e51b815260206004820152600d60248201526c151bdad95b9cc81b1bd8dad959609a1b6044820152606490fd5b506001614110565b816000526101d360205260ff604060002054161580614279575b6141045760405162461bcd60e51b81526020600482015260136024820152721059191c995cdcc8189b1858dadb1a5cdd1959606a1b6044820152606490fd5b506000805260ff604060002054161561423a565b60405162461bcd60e51b815260206004820152602160248201527f45524332303a206275726e2066726f6d20746865207a65726f206164647265736044820152607360f81b6064820152608490fd5b61019160028154146142ee5760029055565b60405162461bcd60e51b815260206004820152601f60248201527f5265656e7472616e637947756172643a207265656e7472616e742063616c6c006044820152606490fd5b60fb80546001600160a01b039283166001600160a01b0319821681179092559091167f8be0079c531659141344cd1fd0a4f28419497f9722a3daafe3b4186f6b6457e0600080a3565b1561438357565b60405162461bcd60e51b815260206004820152602b60248201527f496e697469616c697a61626c653a20636f6e7472616374206973206e6f74206960448201526a6e697469616c697a696e6760a81b6064820152608490fd5b6001600160a01b031690811561455c576101d25460ff81166144d3575b60081c60ff16806144cb575b614463575b60ff60975416613e31577fddf252ad1be2c89b69c2b068fc378daa952ba7f163c4a11628f55a4df523b3ef602082614446600094603554613711565b6035558484526033825260408420818154019055604051908152a3565b600080526101d46020527f410fcf528d521d85c0b03b4ed80308a532d4b2e9fb9978a3f903402e422413525442101561440a5760405162461bcd60e51b815260206004820152600d60248201526c151bdad95b9cc81b1bd8dad959609a1b6044820152606490fd5b506000614405565b600080526101d36020527fe33998ff62f234a925b803b2d837cb316cde2dfcbc8c8f1f21fa7ed385b74c305460ff161580614548575b6143f95760405162461bcd60e51b81526020600482015260136024820152721059191c995cdcc8189b1858dadb1a5cdd1959606a1b6044820152606490fd5b508260005260ff6040600020541615614509565b60405162461bcd60e51b815260206004820152601f60248201527f45524332303a206d696e7420746f20746865207a65726f2061646472657373006044820152606490fd5b6001600160a01b031660008181526101c360205260408120805491929160ff8116156145cd5750505050565b60ff191660011790556101c4805490600160401b821015614672576001820180825582101561465e5783527f5ac35dca7c3a7d5ae9d0add1efdc4aa02e10dd5cac0b90d2122cf0f0cc68317f0180546001600160a01b03191690911790556101c580549091600019821461464a5750600101905538808080613ccd565b634e487b7160e01b81526011600452602490fd5b634e487b7160e01b84526032600452602484fd5b634e487b7160e01b84526041600452602484fd5b803b156146bb576000805160206147cc83398151915280546001600160a01b0319166001600160a01b03909216919091179055565b60405162461bcd60e51b815260206004820152602d60248201527f455243313936373a206e657720696d706c656d656e746174696f6e206973206e60448201526c1bdd08184818dbdb9d1c9858dd609a1b6064820152608490fd5b91929015614778575081511561472a575090565b3b156147335790565b60405162461bcd60e51b815260206004820152601d60248201527f416464726573733a2063616c6c20746f206e6f6e2d636f6e74726163740000006044820152606490fd5b82519091501561478b5750805190602001fd5b60405162461bcd60e51b81529081906147a79060048301613451565b0390fdfe4a11f94e20a93c79f6ec743a1954ec4fc2c08429ae2122118bf234b2185c81b8360894a13ba1a3210667c828492db98dca3e2076cc3735a920a3ca505d382bbc42a7b7dd785cd69714a189dffb3fd7d7174edc9ece837694ce50f7078f7c31ae16b0da2ffcb90c6723317bd637d9aad7f04711f42bbe0ac0918ebe10f1f9001ca264697066735822122087b5fc9dcdea066ca75aae77afdad1deb9485ab059e661a95edb14686ef968c964736f6c63430008160033",
  "linkReferences": {},
  "deployedLinkReferences": {}
}