{
  "_format": "hh-sol-artifact-1",
  "contractName": "TokenTemplate_v2",
  "sourceName": "src/contracts/TokenTemplate_v2.sol",
  "abi": [
    {
      "inputs": [],
      "stateMutability": "nonpayable",
      "type": "constructor"
    },
    {
      "anonymous": false,
      "inputs": [
        {
          "indexed": false,
          "internalType": "address",
          "name": "previousAdmin",
          "type": "address"
        },
        {
          "indexed": false,
          "internalType": "address",
          "name": "newAdmin",
          "type": "address"
        }
      ],
      "name": "AdminChanged",
      "type": "event"
    },
    {
      "anonymous": false,
      "inputs": [
        {
          "indexed": true,
          "internalType": "address",
          "name": "owner",
          "type": "address"
        },
        {
          "indexed": true,
          "internalType": "address",
          "name": "spender",
          "type": "address"
        },
        {
          "indexed": false,
          "internalType": "uint256",
          "name": "value",
          "type": "uint256"
        }
      ],
      "name": "Approval",
      "type": "event"
    },
    {
      "anonymous": false,
      "inputs": [
        {
          "indexed": true,
          "internalType": "address",
          "name": "beacon",
          "type": "address"
        }
      ],
      "name": "BeaconUpgraded",
      "type": "event"
    },
    {
      "anonymous": false,
      "inputs": [
        {
          "indexed": false,
          "internalType": "address[]",
          "name": "addresses",
          "type": "address[]"
        },
        {
          "indexed": false,
          "internalType": "bool",
          "name": "status",
          "type": "bool"
        }
      ],
      "name": "BlacklistUpdated",
      "type": "event"
    },
    {
      "anonymous": false,
      "inputs": [
        {
          "indexed": false,
          "internalType": "address",
          "name": "contributor",
          "type": "address"
        },
        {
          "indexed": false,
          "internalType": "uint256",
          "name": "amount",
          "type": "uint256"
        }
      ],
      "name": "ContributionReceived",
      "type": "event"
    },
    {
      "anonymous": false,
      "inputs": [
        {
          "indexed": false,
          "internalType": "address",
          "name": "contributor",
          "type": "address"
        },
        {
          "indexed": false,
          "internalType": "uint256",
          "name": "amount",
          "type": "uint256"
        }
      ],
      "name": "ContributionRefunded",
      "type": "event"
    },
    {
      "anonymous": false,
      "inputs": [
        {
          "indexed": false,
          "internalType": "uint8",
          "name": "version",
          "type": "uint8"
        }
      ],
      "name": "Initialized",
      "type": "event"
    },
    {
      "anonymous": false,
      "inputs": [
        {
          "indexed": true,
          "internalType": "address",
          "name": "previousOwner",
          "type": "address"
        },
        {
          "indexed": true,
          "internalType": "address",
          "name": "newOwner",
          "type": "address"
        }
      ],
      "name": "OwnershipTransferred",
      "type": "event"
    },
    {
      "anonymous": false,
      "inputs": [
        {
          "indexed": false,
          "internalType": "address",
          "name": "account",
          "type": "address"
        }
      ],
      "name": "Paused",
      "type": "event"
    },
    {
      "anonymous": false,
      "inputs": [
        {
          "indexed": false,
          "internalType": "uint256",
          "name": "amount",
          "type": "uint256"
        }
      ],
      "name": "PlatformFeeClaimed",
      "type": "event"
    },
    {
      "anonymous": false,
      "inputs": [
        {
          "indexed": false,
          "internalType": "uint256",
          "name": "totalContributed",
          "type": "uint256"
        },
        {
          "indexed": false,
          "internalType": "uint256",
          "name": "tokensDistributed",
          "type": "uint256"
        }
      ],
      "name": "PresaleFinalized",
      "type": "event"
    },
    {
      "anonymous": false,
      "inputs": [
        {
          "indexed": false,
          "internalType": "uint256",
          "name": "softCap",
          "type": "uint256"
        },
        {
          "indexed": false,
          "internalType": "uint256",
          "name": "hardCap",
          "type": "uint256"
        },
        {
          "indexed": false,
          "internalType": "uint256",
          "name": "startTime",
          "type": "uint256"
        },
        {
          "indexed": false,
          "internalType": "uint256",
          "name": "endTime",
          "type": "uint256"
        },
        {
          "indexed": false,
          "internalType": "uint256",
          "name": "presaleRate",
          "type": "uint256"
        }
      ],
      "name": "PresaleStarted",
      "type": "event"
    },
    {
      "anonymous": false,
      "inputs": [
        {
          "indexed": false,
          "internalType": "address",
          "name": "account",
          "type": "address"
        },
        {
          "indexed": false,
          "internalType": "uint256",
          "name": "unlockTime",
          "type": "uint256"
        }
      ],
      "name": "TimeLockSet",
      "type": "event"
    },
    {
      "anonymous": false,
      "inputs": [
        {
          "indexed": true,
          "internalType": "address",
          "name": "from",
          "type": "address"
        },
        {
          "indexed": true,
          "internalType": "address",
          "name": "to",
          "type": "address"
        },
        {
          "indexed": false,
          "internalType": "uint256",
          "name": "value",
          "type": "uint256"
        }
      ],
      "name": "Transfer",
      "type": "event"
    },
    {
      "anonymous": false,
      "inputs": [
        {
          "indexed": false,
          "internalType": "address",
          "name": "account",
          "type": "address"
        }
      ],
      "name": "Unpaused",
      "type": "event"
    },
    {
      "anonymous": false,
      "inputs": [
        {
          "indexed": true,
          "internalType": "address",
          "name": "implementation",
          "type": "address"
        }
      ],
      "name": "Upgraded",
      "type": "event"
    },
    {
      "anonymous": false,
      "inputs": [
        {
          "indexed": false,
          "internalType": "address[]",
          "name": "addresses",
          "type": "address[]"
        },
        {
          "indexed": false,
          "internalType": "bool",
          "name": "status",
          "type": "bool"
        }
      ],
      "name": "WhitelistUpdated",
      "type": "event"
    },
    {
      "inputs": [],
      "name": "VERSION",
      "outputs": [
        {
          "internalType": "string",
          "name": "",
          "type": "string"
        }
      ],
      "stateMutability": "view",
      "type": "function"
    },
    {
      "inputs": [
        {
          "internalType": "address",
          "name": "owner",
          "type": "address"
        },
        {
          "internalType": "address",
          "name": "spender",
          "type": "address"
        }
      ],
      "name": "allowance",
      "outputs": [
        {
          "internalType": "uint256",
          "name": "",
          "type": "uint256"
        }
      ],
      "stateMutability": "view",
      "type": "function"
    },
    {
      "inputs": [
        {
          "internalType": "address",
          "name": "spender",
          "type": "address"
        },
        {
          "internalType": "uint256",
          "name": "amount",
          "type": "uint256"
        }
      ],
      "name": "approve",
      "outputs": [
        {
          "internalType": "bool",
          "name": "",
          "type": "bool"
        }
      ],
      "stateMutability": "nonpayable",
      "type": "function"
    },
    {
      "inputs": [
        {
          "internalType": "address",
          "name": "account",
          "type": "address"
        }
      ],
      "name": "balanceOf",
      "outputs": [
        {
          "internalType": "uint256",
          "name": "",
          "type": "uint256"
        }
      ],
      "stateMutability": "view",
      "type": "function"
    },
    {
      "inputs": [
        {
          "internalType": "address",
          "name": "",
          "type": "address"
        }
      ],
      "name": "blacklist",
      "outputs": [
        {
          "internalType": "bool",
          "name": "",
          "type": "bool"
        }
      ],
      "stateMutability": "view",
      "type": "function"
    },
    {
      "inputs": [],
      "name": "blacklistEnabled",
      "outputs": [
        {
          "internalType": "bool",
          "name": "",
          "type": "bool"
        }
      ],
      "stateMutability": "view",
      "type": "function"
    },
    {
      "inputs": [
        {
          "internalType": "uint256",
          "name": "amount",
          "type": "uint256"
        }
      ],
      "name": "burn",
      "outputs": [],
      "stateMutability": "nonpayable",
      "type": "function"
    },
    {
      "inputs": [
        {
          "internalType": "address",
          "name": "account",
          "type": "address"
        },
        {
          "internalType": "uint256",
          "name": "amount",
          "type": "uint256"
        }
      ],
      "name": "burnFrom",
      "outputs": [],
      "stateMutability": "nonpayable",
      "type": "function"
    },
    {
      "inputs": [],
      "name": "claimPlatformFeeTokens",
      "outputs": [],
      "stateMutability": "nonpayable",
      "type": "function"
    },
    {
      "inputs": [],
      "name": "contribute",
      "outputs": [],
      "stateMutability": "payable",
      "type": "function"
    },
    {
      "inputs": [
        {
          "internalType": "address",
          "name": "",
          "type": "address"
        }
      ],
      "name": "contributions",
      "outputs": [
        {
          "internalType": "uint256",
          "name": "",
          "type": "uint256"
        }
      ],
      "stateMutability": "view",
      "type": "function"
    },
    {
      "inputs": [],
      "name": "decimals",
      "outputs": [
        {
          "internalType": "uint8",
          "name": "",
          "type": "uint8"
        }
      ],
      "stateMutability": "view",
      "type": "function"
    },
    {
      "inputs": [
        {
          "internalType": "address",
          "name": "spender",
          "type": "address"
        },
        {
          "internalType": "uint256",
          "name": "subtractedValue",
          "type": "uint256"
        }
      ],
      "name": "decreaseAllowance",
      "outputs": [
        {
          "internalType": "bool",
          "name": "",
          "type": "bool"
        }
      ],
      "stateMutability": "nonpayable",
      "type": "function"
    },
    {
      "inputs": [],
      "name": "finalize",
      "outputs": [],
      "stateMutability": "nonpayable",
      "type": "function"
    },
    {
      "inputs": [],
      "name": "getVestingInfo",
      "outputs": [
        {
          "internalType": "uint256",
          "name": "totalTokens",
          "type": "uint256"
        },
        {
          "internalType": "uint256",
          "name": "claimed",
          "type": "uint256"
        },
        {
          "internalType": "uint256",
          "name": "claimable",
          "type": "uint256"
        },
        {
          "internalType": "uint256",
          "name": "vestingEnd",
          "type": "uint256"
        }
      ],
      "stateMutability": "view",
      "type": "function"
    },
    {
      "inputs": [
        {
          "internalType": "address",
          "name": "spender",
          "type": "address"
        },
        {
          "internalType": "uint256",
          "name": "addedValue",
          "type": "uint256"
        }
      ],
      "name": "increaseAllowance",
      "outputs": [
        {
          "internalType": "bool",
          "name": "",
          "type": "bool"
        }
      ],
      "stateMutability": "nonpayable",
      "type": "function"
    },
    {
      "inputs": [
        {
          "components": [
            {
              "internalType": "string",
              "name": "name",
              "type": "string"
            },
            {
              "internalType": "string",
              "name": "symbol",
              "type": "string"
            },
            {
              "internalType": "uint256",
              "name": "initialSupply",
              "type": "uint256"
            },
            {
              "internalType": "uint256",
              "name": "maxSupply",
              "type": "uint256"
            },
            {
              "internalType": "address",
              "name": "owner",
              "type": "address"
            },
            {
              "internalType": "bool",
              "name": "enableBlacklist",
              "type": "bool"
            },
            {
              "internalType": "bool",
              "name": "enableTimeLock",
              "type": "bool"
            },
            {
              "internalType": "uint256",
              "name": "presaleRate",
              "type": "uint256"
            },
            {
              "internalType": "uint256",
              "name": "minContribution",
              "type": "uint256"
            },
            {
              "internalType": "uint256",
              "name": "maxContribution",
              "type": "uint256"
            },
            {
              "internalType": "uint256",
              "name": "presaleCap",
              "type": "uint256"
            },
            {
              "internalType": "uint256",
              "name": "startTime",
              "type": "uint256"
            },
            {
              "internalType": "uint256",
              "name": "endTime",
              "type": "uint256"
            },
            {
              "internalType": "address",
              "name": "platformFeeRecipient",
              "type": "address"
            },
            {
              "internalType": "uint256",
              "name": "platformFeeTokens",
              "type": "uint256"
            },
            {
              "internalType": "bool",
              "name": "platformFeeVestingEnabled",
              "type": "bool"
            },
            {
              "internalType": "uint256",
              "name": "platformFeeVestingDuration",
              "type": "uint256"
            },
            {
              "internalType": "uint256",
              "name": "platformFeeCliffDuration",
              "type": "uint256"
            }
          ],
          "internalType": "struct TokenTemplate_v2.InitParams",
          "name": "params",
          "type": "tuple"
        }
      ],
      "name": "initialize",
      "outputs": [],
      "stateMutability": "nonpayable",
      "type": "function"
    },
    {
      "inputs": [],
      "name": "maxSupply",
      "outputs": [
        {
          "internalType": "uint256",
          "name": "",
          "type": "uint256"
        }
      ],
      "stateMutability": "view",
      "type": "function"
    },
    {
      "inputs": [],
      "name": "name",
      "outputs": [
        {
          "internalType": "string",
          "name": "",
          "type": "string"
        }
      ],
      "stateMutability": "view",
      "type": "function"
    },
    {
      "inputs": [],
      "name": "owner",
      "outputs": [
        {
          "internalType": "address",
          "name": "",
          "type": "address"
        }
      ],
      "stateMutability": "view",
      "type": "function"
    },
    {
      "inputs": [],
      "name": "pause",
      "outputs": [],
      "stateMutability": "nonpayable",
      "type": "function"
    },
    {
      "inputs": [],
      "name": "paused",
      "outputs": [
        {
          "internalType": "bool",
          "name": "",
          "type": "bool"
        }
      ],
      "stateMutability": "view",
      "type": "function"
    },
    {
      "inputs": [],
      "name": "platformFeeCliffDuration",
      "outputs": [
        {
          "internalType": "uint256",
          "name": "",
          "type": "uint256"
        }
      ],
      "stateMutability": "view",
      "type": "function"
    },
    {
      "inputs": [],
      "name": "platformFeeRecipient",
      "outputs": [
        {
          "internalType": "address",
          "name": "",
          "type": "address"
        }
      ],
      "stateMutability": "view",
      "type": "function"
    },
    {
      "inputs": [],
      "name": "platformFeeTokens",
      "outputs": [
        {
          "internalType": "uint256",
          "name": "",
          "type": "uint256"
        }
      ],
      "stateMutability": "view",
      "type": "function"
    },
    {
      "inputs": [],
      "name": "platformFeeTokensClaimed",
      "outputs": [
        {
          "internalType": "uint256",
          "name": "",
          "type": "uint256"
        }
      ],
      "stateMutability": "view",
      "type": "function"
    },
    {
      "inputs": [],
      "name": "platformFeeVestingDuration",
      "outputs": [
        {
          "internalType": "uint256",
          "name": "",
          "type": "uint256"
        }
      ],
      "stateMutability": "view",
      "type": "function"
    },
    {
      "inputs": [],
      "name": "platformFeeVestingEnabled",
      "outputs": [
        {
          "internalType": "bool",
          "name": "",
          "type": "bool"
        }
      ],
      "stateMutability": "view",
      "type": "function"
    },
    {
      "inputs": [],
      "name": "platformFeeVestingStart",
      "outputs": [
        {
          "internalType": "uint256",
          "name": "",
          "type": "uint256"
        }
      ],
      "stateMutability": "view",
      "type": "function"
    },
    {
      "inputs": [],
      "name": "presaleInfo",
      "outputs": [
        {
          "internalType": "uint256",
          "name": "softCap",
          "type": "uint256"
        },
        {
          "internalType": "uint256",
          "name": "hardCap",
          "type": "uint256"
        },
        {
          "internalType": "uint256",
          "name": "minContribution",
          "type": "uint256"
        },
        {
          "internalType": "uint256",
          "name": "maxContribution",
          "type": "uint256"
        },
        {
          "internalType": "uint256",
          "name": "startTime",
          "type": "uint256"
        },
        {
          "internalType": "uint256",
          "name": "endTime",
          "type": "uint256"
        },
        {
          "internalType": "uint256",
          "name": "presaleRate",
          "type": "uint256"
        },
        {
          "internalType": "bool",
          "name": "whitelistEnabled",
          "type": "bool"
        },
        {
          "internalType": "bool",
          "name": "finalized",
          "type": "bool"
        },
        {
          "internalType": "uint256",
          "name": "totalContributed",
          "type": "uint256"
        }
      ],
      "stateMutability": "view",
      "type": "function"
    },
    {
      "inputs": [],
      "name": "proxiableUUID",
      "outputs": [
        {
          "internalType": "bytes32",
          "name": "",
          "type": "bytes32"
        }
      ],
      "stateMutability": "view",
      "type": "function"
    },
    {
      "inputs": [],
      "name": "renounceOwnership",
      "outputs": [],
      "stateMutability": "nonpayable",
      "type": "function"
    },
    {
      "inputs": [
        {
          "internalType": "address",
          "name": "account",
          "type": "address"
        },
        {
          "internalType": "uint256",
          "name": "unlockTime",
          "type": "uint256"
        }
      ],
      "name": "setTimeLock",
      "outputs": [],
      "stateMutability": "nonpayable",
      "type": "function"
    },
    {
      "inputs": [],
      "name": "symbol",
      "outputs": [
        {
          "internalType": "string",
          "name": "",
          "type": "string"
        }
      ],
      "stateMutability": "view",
      "type": "function"
    },
    {
      "inputs": [],
      "name": "timeLockEnabled",
      "outputs": [
        {
          "internalType": "bool",
          "name": "",
          "type": "bool"
        }
      ],
      "stateMutability": "view",
      "type": "function"
    },
    {
      "inputs": [
        {
          "internalType": "address",
          "name": "",
          "type": "address"
        }
      ],
      "name": "timeLocks",
      "outputs": [
        {
          "internalType": "uint256",
          "name": "",
          "type": "uint256"
        }
      ],
      "stateMutability": "view",
      "type": "function"
    },
    {
      "inputs": [],
      "name": "totalSupply",
      "outputs": [
        {
          "internalType": "uint256",
          "name": "",
          "type": "uint256"
        }
      ],
      "stateMutability": "view",
      "type": "function"
    },
    {
      "inputs": [
        {
          "internalType": "address",
          "name": "to",
          "type": "address"
        },
        {
          "internalType": "uint256",
          "name": "amount",
          "type": "uint256"
        }
      ],
      "name": "transfer",
      "outputs": [
        {
          "internalType": "bool",
          "name": "",
          "type": "bool"
        }
      ],
      "stateMutability": "nonpayable",
      "type": "function"
    },
    {
      "inputs": [
        {
          "internalType": "address",
          "name": "from",
          "type": "address"
        },
        {
          "internalType": "address",
          "name": "to",
          "type": "address"
        },
        {
          "internalType": "uint256",
          "name": "amount",
          "type": "uint256"
        }
      ],
      "name": "transferFrom",
      "outputs": [
        {
          "internalType": "bool",
          "name": "",
          "type": "bool"
        }
      ],
      "stateMutability": "nonpayable",
      "type": "function"
    },
    {
      "inputs": [
        {
          "internalType": "address",
          "name": "newOwner",
          "type": "address"
        }
      ],
      "name": "transferOwnership",
      "outputs": [],
      "stateMutability": "nonpayable",
      "type": "function"
    },
    {
      "inputs": [],
      "name": "unpause",
      "outputs": [],
      "stateMutability": "nonpayable",
      "type": "function"
    },
    {
      "inputs": [
        {
          "internalType": "address[]",
          "name": "addresses",
          "type": "address[]"
        },
        {
          "internalType": "bool",
          "name": "status",
          "type": "bool"
        }
      ],
      "name": "updateBlacklist",
      "outputs": [],
      "stateMutability": "nonpayable",
      "type": "function"
    },
    {
      "inputs": [
        {
          "internalType": "address[]",
          "name": "addresses",
          "type": "address[]"
        },
        {
          "internalType": "bool",
          "name": "status",
          "type": "bool"
        }
      ],
      "name": "updateWhitelist",
      "outputs": [],
      "stateMutability": "nonpayable",
      "type": "function"
    },
    {
      "inputs": [
        {
          "internalType": "address",
          "name": "newImplementation",
          "type": "address"
        }
      ],
      "name": "upgradeTo",
      "outputs": [],
      "stateMutability": "nonpayable",
      "type": "function"
    },
    {
      "inputs": [
        {
          "internalType": "address",
          "name": "newImplementation",
          "type": "address"
        },
        {
          "internalType": "bytes",
          "name": "data",
          "type": "bytes"
        }
      ],
      "name": "upgradeToAndCall",
      "outputs": [],
      "stateMutability": "payable",
      "type": "function"
    },
    {
      "inputs": [
        {
          "internalType": "address",
          "name": "",
          "type": "address"
        }
      ],
      "name": "whitelist",
      "outputs": [
        {
          "internalType": "bool",
          "name": "",
          "type": "bool"
        }
      ],
      "stateMutability": "view",
      "type": "function"
    }
  ],
  "bytecode": "0x60a080604052346100dd57306080526000549060ff8260081c1661008b575060ff80821603610050575b60405161325a9081620000e3823960805181818161183a0152818161193b0152611ea80152f35b60ff90811916176000557f7f26b83ff96e1f2b6a682f133852f6798a09c465da95921460cefb3847402498602060405160ff8152a138610029565b62461bcd60e51b815260206004820152602760248201527f496e697469616c697a61626c653a20636f6e747261637420697320696e697469604482015266616c697a696e6760c81b6064820152608490fd5b600080fdfe608080604052600436101561001357600080fd5b60003560e01c90816306fdde031461225f57508063095ea7b314612239578063113d478b1461221a57806318160ddd146121fc57806323b872dd146121c45780632791770a146121a55780632edf086914612125578063313ce567146121095780633659cfe614611e845780633950935114611e335780633f4ba83a14611d9f578063420fc21014611d8057806342966c6814611d6357806342e94c9014611d285780634bb278f314611b805780634f1ef286146118eb57806352d1902d146118275780635c975abb1461180457806363280c51146117e5578063644fab74146116d15780636b7f3d1a146116b257806370a0823114611678578063715018a61461161b57806379cc6790146115eb5780637f76b223146115b05780638456cb591461151d5780638bdc444d146113785780638da5cb5b1461134f57806394cf687314610b5057806395d89b4114610a835780639b19251a14610a43578063a457c2d71461099c578063a9059cbb1461096b578063aff177ca1461088c578063bb0e69e8146107a3578063bffb691d1461077f578063cba4cbd314610758578063d5abeb0114610739578063d7bb99ba14610469578063dc25a300146103f7578063dd62ed3e146103a6578063eb13554f1461037c578063f2fde38b146102ed578063f9f92be4146102ad578063fadcac27146102895763ffa1ad741461021957600080fd5b3461028457600036600319011261028457604051604081019080821067ffffffffffffffff83111761026e5761026a9160405260058152640322e302e360dc1b6020820152604051918291826122f2565b0390f35b634e487b7160e01b600052604160045260246000fd5b600080fd5b3461028457600036600319011261028457602060ff6101d454166040519015158152f35b34610284576020366003190112610284576001600160a01b036102ce61233b565b166000526101d0602052602060ff604060002054166040519015158152f35b346102845760203660031901126102845761030661233b565b61030e612aed565b6001600160a01b038116156103285761032690612d9c565b005b60405162461bcd60e51b815260206004820152602660248201527f4f776e61626c653a206e6577206f776e657220697320746865207a65726f206160448201526564647265737360d01b6064820152608490fd5b34610284576000366003190112610284576101d2546040516001600160a01b039091168152602090f35b34610284576040366003190112610284576103bf61233b565b6103c7612351565b9060018060a01b038091166000526034602052604060002091166000526020526020604060002054604051908152f35b346102845760003660031901126102845760806101d3546101d85460ff6101d4541660001461045a576104318161042c612de5565b6125b4565b6104426101d7546101d5549061254e565b91604051938452602084015260408301526060820152f35b61046481836125b4565b610431565b60003660031901126102845761047d612d45565b6101c75442106106fe576101c85442116106c9576101ca5460ff8160081c16610690576101c5543410610652576101c654803411610614576101cb916104c434845461254e565b6101c454106105dc5760ff1661058e575b336000526101cd806020526104ef3460406000205461254e565b918211610549573360005260205260406000205561050e34825461254e565b9055604080513381523460208201527f1bb460ccaaf70fbacfec17a376f8acbd278c1405590ffcc8ebe4b88daf4f64ad9190a1600161019155005b60405162461bcd60e51b815260206004820152601d60248201527f576f756c6420657863656564206d617820636f6e747269627574696f6e0000006044820152606490fd5b336000526101cc60205260ff604060002054166104d55760405162461bcd60e51b815260206004820152600f60248201526e139bdd081dda1a5d195b1a5cdd1959608a1b6044820152606490fd5b60405162461bcd60e51b815260206004820152601060248201526f12185c990818d85c081c995858da195960821b6044820152606490fd5b60405162461bcd60e51b815260206004820152601660248201527520b137bb329036b0bc1031b7b73a3934b13aba34b7b760511b6044820152606490fd5b60405162461bcd60e51b81526020600482015260166024820152752132b637bb9036b4b71031b7b73a3934b13aba34b7b760511b6044820152606490fd5b60405162461bcd60e51b8152602060048201526011602482015270141c995cd85b1948199a5b985b1a5e9959607a1b6044820152606490fd5b60405162461bcd60e51b815260206004820152600d60248201526c141c995cd85b1948195b991959609a1b6044820152606490fd5b60405162461bcd60e51b8152602060048201526013602482015272141c995cd85b19481b9bdd081cdd185c9d1959606a1b6044820152606490fd5b346102845760003660031901126102845760206101ce54604051908152f35b3461028457600036600319011261028457602060ff6101cf5460081c166040519015158152f35b3461028457600036600319011261028457602060ff6101cf54166040519015158152f35b34610284576107b1366123f8565b916107ba612aed565b60ff6101cf54161561084f5760005b82811061080757506108027f11d4d128e8f89ae2e8815168b9eba079dd6668b75f1e3a9dd96ac6192a7c4dcb936040519384938461263b565b0390a1005b6001906001600160a01b03610825610820838787612615565b612601565b166000526101d06020526108498560406000209060ff801983541691151516179055565b016107c9565b60405162461bcd60e51b8152602060048201526015602482015274109b1858dadb1a5cdd081b9bdd08195b98589b1959605a1b6044820152606490fd5b346102845761089a366123f8565b916108a3612aed565b60ff6101ca54161561092e5760005b8281106108eb57506108027fa091d95aa3f4b3529e12c57e1e9e10580edde8a7ac6fd51dd3c8e824c332dbe0936040519384938461263b565b6001906001600160a01b03610904610820838787612615565b166000526101cc6020526109288560406000209060ff801983541691151516179055565b016108b2565b60405162461bcd60e51b815260206004820152601560248201527415da1a5d195b1a5cdd081b9bdd08195b98589b1959605a1b6044820152606490fd5b346102845760403660031901126102845761099161098761233b565b6024359033612830565b602060405160018152f35b34610284576040366003190112610284576109b561233b565b60243590336000526034602052604060002060018060a01b038216600052602052604060002054918083106109f05761099192039033612696565b60405162461bcd60e51b815260206004820152602560248201527f45524332303a2064656372656173656420616c6c6f77616e63652062656c6f77604482015264207a65726f60d81b6064820152608490fd5b34610284576020366003190112610284576001600160a01b03610a6461233b565b166000526101cc602052602060ff604060002054166040519015158152f35b34610284576000366003190112610284576040516000603754610aa581612452565b80845290602090600190818116908115610b265750600114610ade575b61026a85610ad281870382612383565b604051918291826122f2565b6037600090815293506000805160206132058339815191525b838510610b1357505050508101602001610ad28261026a610ac2565b8054868601840152938201938101610af7565b86955061026a96935060209250610ad294915060ff191682840152151560051b8201019293610ac2565b34610284576003196020368201126102845767ffffffffffffffff600435116102845761024060043560040191600435360301126102845760005460ff8160081c161590818092611342575b801561132b575b156112cf5760ff198116600117600055816112bd575b50610bee610bdc610be6610bcd85806125c1565b929095602460043501906125c1565b95909236916123c1565b9336916123c1565b90610c0960ff60005460081c16610c048161303f565b61303f565b825167ffffffffffffffff811161026e57610c25603654612452565b601f8111611254575b506020601f82116001146111e057819293946000926111d5575b50508160011b916000199060031b1c1916176036555b815167ffffffffffffffff811161026e57610c7a603754612452565b601f8111611168575b50602092601f82116001146110f857928192936000926110ed575b50508160011b916000199060031b1c1916176037555b610cee60ff60005460081c16610cc98161303f565b610cd28161303f565b610cdb8161303f565b60ff1960975416609755610c048161303f565b610cf733612d9c565b610d2060ff60005460081c16610d0c8161303f565b610d158161303f565b60016101915561303f565b6064600435013560446004350135811061109c57426101646004350135111561105757610164600435013561018460043501351115611008576101ce55610d6b60a4600435016125f4565b15156101cf90815460ff61ff00610d8660c4600435016125f4565b151560081b1692169061ffff19161717905560018060a01b03610dae6101a460043501612601565b166101d2906bffffffffffffffffffffffff60a01b8254161790556101c460043501356101d355610de46101e4600435016125f4565b15156101d49060ff8019835416911617905561020460043501356101d55561022460043501356101d6556040518061014081011067ffffffffffffffff6101408301111761026e5761014081016040908152600435610144810135600181901c80855260208501829052610104830135938501849052610124830135606086018190526101648401356080870181905261018485013560a080890182905260e487013560c08a01819052600060e08b018190526101008b018190526101209a909a018a90526101c39586556101c4969096556101c5979097556101c6929092556101c7556101c8556101c9919091556101ca805461ffff191690556101cb939093557f363312020dbba28eb1464ec7d5f963ebe389e1b00dab8dd54d46e2e2f2e632619290610f2490604481013590610f1f90608401612601565b612e6e565b6101c46004350135151580610fea575b610fae575b546101c4546040519182526020820152610164600435013560408201526101846004350135606082015260e460043501356080820152a1610f7657005b61ff0019600054166000557f7f26b83ff96e1f2b6a682f133852f6798a09c465da95921460cefb3847402498602060405160018152a1005b610fbd6101e4600435016125f4565b610fe057610fdb6101c46004350135610f1f6101a460043501612601565b610f39565b426101d755610f39565b50600180831b036110006101a460043501612601565b161515610f34565b60405162461bcd60e51b815260206004820152602160248201527f456e642074696d65206d7573742062652061667465722073746172742074696d6044820152606560f81b6064820152608490fd5b60405162461bcd60e51b815260206004820152601c60248201527f53746172742074696d65206d75737420626520696e20667574757265000000006044820152606490fd5b60405162461bcd60e51b8152602060048201526024808201527f4d617820737570706c79206d757374206265203e3d20696e697469616c20737560448201526370706c7960e01b6064820152608490fd5b015190508380610c9e565b601f1982169360376000526000805160206132058339815191529160005b8681106111505750836001959610611137575b505050811b01603755610cb4565b015160001960f88460031b161c19169055838080611129565b91926020600181928685015181550194019201611116565b6037600052601f820160051c6000805160206132058339815191520190602083106111bf575b601f0160051c60008051602061320583398151915201905b8181106111b35750610c83565b600081556001016111a6565b600080516020613205833981519152915061118e565b015190508480610c48565b60366000526000805160206131c58339815191529060005b601f198416811061123c5750600193949583601f19811610611223575b505050811b01603655610c5e565b015160001960f88460031b161c19169055848080611215565b9091602060018192858a0151815501930191016111f8565b6036600052601f820160051c6000805160206131c583398151915201602083106112a8575b601f820160051c6000805160206131c583398151915201811061129c5750610c2e565b60008155600101611279565b506000805160206131c5833981519152611279565b61ffff19166101011760005582610bb9565b60405162461bcd60e51b815260206004820152602e60248201527f496e697469616c697a61626c653a20636f6e747261637420697320616c72656160448201526d191e481a5b9a5d1a585b1a5e995960921b6064820152608490fd5b50303b158015610ba35750600160ff821614610ba3565b50600160ff821610610b9c565b346102845760003660031901126102845760fb546040516001600160a01b039091168152602090f35b3461028457600036600319011261028457611391612d45565b6101d2546001600160a01b0316338190036114e45760ff6101d45416156114a9576113c36101d7546101d6549061254e565b421061146b576113d1612de5565b906101d86113e1815480946125b4565b90811561143157816020936114229261141b837fbc7ec4f43cc9d06c3fc2804e1bc7fb4c5463c361795d54400ce36256ad1b2ba89861254e565b9055612e6e565b604051908152a1600161019155005b60405162461bcd60e51b81526020600482015260126024820152714e6f20746f6b656e7320746f20636c61696d60701b6044820152606490fd5b60405162461bcd60e51b815260206004820152601660248201527510db1a5999881c195c9a5bd9081b9bdd08195b99195960521b6044820152606490fd5b60405162461bcd60e51b815260206004820152601360248201527215995cdd1a5b99c81b9bdd08195b98589b1959606a1b6044820152606490fd5b60405162461bcd60e51b8152602060048201526011602482015270139bdd08199959481c9958da5c1a595b9d607a1b6044820152606490fd5b3461028457600036600319011261028457611536612aed565b60975460ff81166115785760019060ff1916176097557f62e78cea01bee320cd4e420270b5ea74000d11b0c9f74754ebdbfc544b05a2586020604051338152a1005b60405162461bcd60e51b815260206004820152601060248201526f14185d5cd8589b194e881c185d5cd95960821b6044820152606490fd5b34610284576020366003190112610284576001600160a01b036115d161233b565b166000526101d16020526020604060002054604051908152f35b346102845760403660031901126102845761032661160761233b565b60243590611616823383612798565b612b45565b3461028457600036600319011261028457611634612aed565b60fb80546001600160a01b031981169091556000906001600160a01b03167f8be0079c531659141344cd1fd0a4f28419497f9722a3daafe3b4186f6b6457e08280a3005b34610284576020366003190112610284576001600160a01b0361169961233b565b1660005260336020526020604060002054604051908152f35b346102845760003660031901126102845760206101d354604051908152f35b34610284576040366003190112610284576116ea61233b565b6024356116f5612aed565b60ff6101cf5460081c16156117a85742811115611763576001600160a01b0390911660008181526101d1602090815260409182902084905581519283528201929092527fa9353e70f07f31e7f4e16464f45e189cbd22826780a5abe4da8303652a86960a9181908101610802565b60405162461bcd60e51b815260206004820152601d60248201527f556e6c6f636b2074696d65206d75737420626520696e206675747572650000006044820152606490fd5b60405162461bcd60e51b8152602060048201526015602482015274151a5b59481b1bd8dac81b9bdd08195b98589b1959605a1b6044820152606490fd5b346102845760003660031901126102845760206101d854604051908152f35b3461028457600036600319011261028457602060ff609754166040519015158152f35b34610284576000366003190112610284577f00000000000000000000000000000000000000000000000000000000000000006001600160a01b031630036118805760206040516000805160206131e58339815191528152f35b60405162461bcd60e51b815260206004820152603860248201527f555550535570677261646561626c653a206d757374206e6f742062652063616c60448201527f6c6564207468726f7567682064656c656761746563616c6c00000000000000006064820152608490fd5b6040366003190112610284576118ff61233b565b60243567ffffffffffffffff81116102845736602382011215610284576119309036906024816004013591016123c1565b906001600160a01b037f00000000000000000000000000000000000000000000000000000000000000008116906119693083141561248c565b6119866000805160206131e58339815191529282845416146124ed565b61198e612aed565b7f4910fdfa16fed3260ed0e7147f7cc6da11a60208b5b9406d12a635614ffd91435460ff16156119c4575050610326915061309f565b6040516352d1902d60e01b81526020939291831691908481600481865afa60009181611b51575b50611a4c5760405162461bcd60e51b815260048101869052602e60248201527f45524331393637557067726164653a206e657720696d706c656d656e7461746960448201526d6f6e206973206e6f74205555505360901b6064820152608490fd5b03611afa57611a5a8261309f565b7fbc7cd75a20ee27fd9adebab32041f755214dbc6bffa90cc0225b39da2e5c2d3b600080a2825115801590611af2575b611a9057005b6000806103269460405194611aa486612367565b602786527f416464726573733a206c6f772d6c6576656c2064656c65676174652063616c6c81870152660819985a5b195960ca1b604087015281519101845af4611aec612584565b9161312f565b506001611a8a565b60405162461bcd60e51b815260048101849052602960248201527f45524331393637557067726164653a20756e737570706f727465642070726f786044820152681a58589b195555525160ba1b6064820152608490fd5b9091508581813d8311611b79575b611b698183612383565b81010312610284575190876119eb565b503d611b5f565b3461028457600036600319011261028457611b99612aed565b611ba1612d45565b6101c854421115611cef576101ca805460ff8160081c16611cb6576101cb918254906101c3548210611c7a57610100611be69361ff0019161790556101c95490612571565b90600080808060018060a01b0360fb541647905af1611c03612584565b5015611c43577fedfde254cb8ed39d650c9a34251c59d6817fae4cc876cc2ce76669976cf102ee91604091549082519182526020820152a1600161019155005b60405162461bcd60e51b815260206004820152600f60248201526e151c985b9cd9995c8819985a5b1959608a1b6044820152606490fd5b60405162461bcd60e51b815260206004820152601460248201527314dbd99d0818d85c081b9bdd081c995858da195960621b6044820152606490fd5b60405162461bcd60e51b8152602060048201526011602482015270105b1c9958591e48199a5b985b1a5e9959607a1b6044820152606490fd5b60405162461bcd60e51b8152602060048201526011602482015270141c995cd85b19481b9bdd08195b991959607a1b6044820152606490fd5b34610284576020366003190112610284576001600160a01b03611d4961233b565b166000526101cd6020526020604060002054604051908152f35b346102845760203660031901126102845761032660043533612b45565b346102845760003660031901126102845760206101d554604051908152f35b3461028457600036600319011261028457611db8612aed565b60975460ff811615611df75760ff19166097557f5db9ee0a495bf2e6ff9c91a7834c1ba4fdd244a5e8aa4e537bd38aeae4b073aa6020604051338152a1005b60405162461bcd60e51b815260206004820152601460248201527314185d5cd8589b194e881b9bdd081c185d5cd95960621b6044820152606490fd5b3461028457604036600319011261028457610991611e4f61233b565b336000526034602052604060002060018060a01b038216600052602052611e7d60243560406000205461254e565b9033612696565b346102845760208060031936011261028457611e9e61233b565b6001600160a01b037f000000000000000000000000000000000000000000000000000000000000000081169290611ed73085141561248c565b611ef46000805160206131e58339815191529482865416146124ed565b611efc612aed565b604051938285019185831067ffffffffffffffff84111761026e57826040526000865260ff7f4910fdfa16fed3260ed0e7147f7cc6da11a60208b5b9406d12a635614ffd91435416600014611f595750505050610326915061309f565b84939416906040516352d1902d60e01b81528581600481865afa600091816120da575b50611fdd5760405162461bcd60e51b815260048101879052602e60248201527f45524331393637557067726164653a206e657720696d706c656d656e7461746960448201526d6f6e206973206e6f74205555505360901b6064820152608490fd5b0361208357611feb8361309f565b7fbc7cd75a20ee27fd9adebab32041f755214dbc6bffa90cc0225b39da2e5c2d3b600080a283511580159061207b575b61202157005b60008091610326957f416464726573733a206c6f772d6c6576656c2064656c65676174652063616c6c6040519661205788612367565b60278852870152660819985a5b195960ca1b60408701525190845af4611aec612584565b50600061201b565b60405162461bcd60e51b815260048101859052602960248201527f45524331393637557067726164653a20756e737570706f727465642070726f786044820152681a58589b195555525160ba1b6064820152608490fd5b9091508681813d8311612102575b6120f28183612383565b8101031261028457519088611f7c565b503d6120e8565b3461028457600036600319011261028457602060405160128152f35b34610284576000366003190112610284576101406101c3546101c45460ff6101c5546101c6546101c7546101c854906101c954926101ca54946101cb5497604051998a5260208a015260408901526060880152608087015260a086015260c0850152818116151560e085015260081c161515610100830152610120820152f35b346102845760003660031901126102845760206101d754604051908152f35b34610284576060366003190112610284576109916121e061233b565b6121e8612351565b604435916121f7833383612798565b612830565b34610284576000366003190112610284576020603554604051908152f35b346102845760003660031901126102845760206101d654604051908152f35b346102845760403660031901126102845761099161225561233b565b6024359033612696565b3461028457600036600319011261028457600060365461227e81612452565b80845290602090600190818116908115610b2657506001146122aa5761026a85610ad281870382612383565b6036600090815293506000805160206131c58339815191525b8385106122df57505050508101602001610ad28261026a610ac2565b80548686018401529382019381016122c3565b6020808252825181830181905290939260005b82811061232757505060409293506000838284010152601f8019910116010190565b818101860151848201604001528501612305565b600435906001600160a01b038216820361028457565b602435906001600160a01b038216820361028457565b6060810190811067ffffffffffffffff82111761026e57604052565b90601f8019910116810190811067ffffffffffffffff82111761026e57604052565b67ffffffffffffffff811161026e57601f01601f191660200190565b9291926123cd826123a5565b916123db6040519384612383565b829481845281830111610284578281602093846000960137010152565b9060406003198301126102845760043567ffffffffffffffff9283821161028457806023830112156102845781600401359384116102845760248460051b8301011161028457602401919060243580151581036102845790565b90600182811c92168015612482575b602083101461246c57565b634e487b7160e01b600052602260045260246000fd5b91607f1691612461565b1561249357565b60405162461bcd60e51b815260206004820152602c60248201527f46756e6374696f6e206d7573742062652063616c6c6564207468726f7567682060448201526b19195b1959d85d1958d85b1b60a21b6064820152608490fd5b156124f457565b60405162461bcd60e51b815260206004820152602c60248201527f46756e6374696f6e206d7573742062652063616c6c6564207468726f7567682060448201526b6163746976652070726f787960a01b6064820152608490fd5b9190820180921161255b57565b634e487b7160e01b600052601160045260246000fd5b8181029291811591840414171561255b57565b3d156125af573d90612595826123a5565b916125a36040519384612383565b82523d6000602084013e565b606090565b9190820391821161255b57565b903590601e1981360301821215610284570180359067ffffffffffffffff82116102845760200191813603831361028457565b3580151581036102845790565b356001600160a01b03811681036102845790565b91908110156126255760051b0190565b634e487b7160e01b600052603260045260246000fd5b60408082528101839052929392916060830190600090815b8181106126695750505060209150931515910152565b909192843560018060a01b03811680910361269257815260209485019401929190600101612653565b8480fd5b6001600160a01b0390811691821561274757169182156126f75760207f8c5be1e5ebec7d5bd14f71427d1e84f3dd0314c0f7b2291e5b200ac8c7c3b925918360005260348252604060002085600052825280604060002055604051908152a3565b60405162461bcd60e51b815260206004820152602260248201527f45524332303a20617070726f766520746f20746865207a65726f206164647265604482015261737360f01b6064820152608490fd5b60405162461bcd60e51b8152602060048201526024808201527f45524332303a20617070726f76652066726f6d20746865207a65726f206164646044820152637265737360e01b6064820152608490fd5b9060018060a01b03808316600052603460205260406000209082166000526020526040600020549260001984036127d0575b50505050565b8084106127eb576127e2930391612696565b388080806127ca565b60405162461bcd60e51b815260206004820152601d60248201527f45524332303a20696e73756666696369656e7420616c6c6f77616e63650000006044820152606490fd5b6001600160a01b03908116918215612a9a5716918215612a495760ff609754166129f1576101cf5460ff8116612981575b60081c60ff1680612979575b612924575b600082815260336020526040812054918083106128d057604082827fddf252ad1be2c89b69c2b068fc378daa952ba7f163c4a11628f55a4df523b3ef95876020965260338652038282205586815220818154019055604051908152a3565b60405162461bcd60e51b815260206004820152602660248201527f45524332303a207472616e7366657220616d6f756e7420657863656564732062604482015265616c616e636560d01b6064820152608490fd5b816000526101d16020526040600020544210156128725760405162461bcd60e51b8152602060048201526016602482015275151bdad95b9cc8185c99481d1a5b594b5b1bd8dad95960521b6044820152606490fd5b50600161286d565b826000526101d060205260ff6040600020541615806129dd575b6128615760405162461bcd60e51b81526020600482015260166024820152751059191c995cdcc81a5cc8189b1858dadb1a5cdd195960521b6044820152606490fd5b508360005260ff604060002054161561299b565b60405162461bcd60e51b815260206004820152602a60248201527f45524332305061757361626c653a20746f6b656e207472616e736665722077686044820152691a5b19481c185d5cd95960b21b6064820152608490fd5b60405162461bcd60e51b815260206004820152602360248201527f45524332303a207472616e7366657220746f20746865207a65726f206164647260448201526265737360e81b6064820152608490fd5b60405162461bcd60e51b815260206004820152602560248201527f45524332303a207472616e736665722066726f6d20746865207a65726f206164604482015264647265737360d81b6064820152608490fd5b60fb546001600160a01b03163303612b0157565b606460405162461bcd60e51b815260206004820152602060248201527f4f776e61626c653a2063616c6c6572206973206e6f7420746865206f776e65726044820152fd5b6001600160a01b03168015612cf65760ff609754166129f1576101cf5460ff8116612c86575b60081c60ff1680612c7e575b612c29575b80600052603360205260406000205491808310612bd9576020817fddf252ad1be2c89b69c2b068fc378daa952ba7f163c4a11628f55a4df523b3ef92600095858752603384520360408620558060355403603555604051908152a3565b60405162461bcd60e51b815260206004820152602260248201527f45524332303a206275726e20616d6f756e7420657863656564732062616c616e604482015261636560f01b6064820152608490fd5b806000526101d1602052604060002054421015612b7c5760405162461bcd60e51b8152602060048201526016602482015275151bdad95b9cc8185c99481d1a5b594b5b1bd8dad95960521b6044820152606490fd5b506001612b77565b816000526101d060205260ff604060002054161580612ce2575b612b6b5760405162461bcd60e51b81526020600482015260166024820152751059191c995cdcc81a5cc8189b1858dadb1a5cdd195960521b6044820152606490fd5b506000805260ff6040600020541615612ca0565b60405162461bcd60e51b815260206004820152602160248201527f45524332303a206275726e2066726f6d20746865207a65726f206164647265736044820152607360f81b6064820152608490fd5b6101916002815414612d575760029055565b60405162461bcd60e51b815260206004820152601f60248201527f5265656e7472616e637947756172643a207265656e7472616e742063616c6c006044820152606490fd5b60fb80546001600160a01b039283166001600160a01b0319821681179092559091167f8be0079c531659141344cd1fd0a4f28419497f9722a3daafe3b4186f6b6457e0600080a3565b6101d7546101d654612df7818361254e565b4210612e67576101d55491612e0c838261254e565b421015612e5d5781612e2d612e27612e3d94612e339461254e565b426125b4565b936125b4565b916101d354612571565b8115612e47570490565b634e487b7160e01b600052601260045260246000fd5b5050506101d35490565b5050600090565b6001600160a01b0316908115612ffa5760ff609754166129f1576101cf5460ff8116612f6e575b60081c60ff1680612f66575b612ef5575b7fddf252ad1be2c89b69c2b068fc378daa952ba7f163c4a11628f55a4df523b3ef602082612ed860009460355461254e565b6035558484526033825260408420818154019055604051908152a3565b600080526101d16020527f317b84ddac75f0ea69bf5811368b149bf7c81698247b92d5d9a5a9dff0e528d054421015612ea65760405162461bcd60e51b8152602060048201526016602482015275151bdad95b9cc8185c99481d1a5b594b5b1bd8dad95960521b6044820152606490fd5b506000612ea1565b600080526101d06020527f829b3c0c06e324cb54d5f90a76dfb1a140c4382b9f5b15e8e23751ea3306f24d5460ff161580612fe6575b612e955760405162461bcd60e51b81526020600482015260166024820152751059191c995cdcc81a5cc8189b1858dadb1a5cdd195960521b6044820152606490fd5b508260005260ff6040600020541615612fa4565b60405162461bcd60e51b815260206004820152601f60248201527f45524332303a206d696e7420746f20746865207a65726f2061646472657373006044820152606490fd5b1561304657565b60405162461bcd60e51b815260206004820152602b60248201527f496e697469616c697a61626c653a20636f6e7472616374206973206e6f74206960448201526a6e697469616c697a696e6760a81b6064820152608490fd5b803b156130d4576000805160206131e583398151915280546001600160a01b0319166001600160a01b03909216919091179055565b60405162461bcd60e51b815260206004820152602d60248201527f455243313936373a206e657720696d706c656d656e746174696f6e206973206e60448201526c1bdd08184818dbdb9d1c9858dd609a1b6064820152608490fd5b919290156131915750815115613143575090565b3b1561314c5790565b60405162461bcd60e51b815260206004820152601d60248201527f416464726573733a2063616c6c20746f206e6f6e2d636f6e74726163740000006044820152606490fd5b8251909150156131a45750805190602001fd5b60405162461bcd60e51b81529081906131c090600483016122f2565b0390fdfe4a11f94e20a93c79f6ec743a1954ec4fc2c08429ae2122118bf234b2185c81b8360894a13ba1a3210667c828492db98dca3e2076cc3735a920a3ca505d382bbc42a7b7dd785cd69714a189dffb3fd7d7174edc9ece837694ce50f7078f7c31aea26469706673582212208283409583ad47770971409782c784ccbea5ec20fcd9d61041d42a60da459c1964736f6c63430008160033",
  "linkReferences": {},
  "deployedLinkReferences": {}
}