{
  "_format": "hh-sol-artifact-1",
  "contractName": "MockERC20",
  "sourceName": "contracts/mocks/MockERC20.sol",
  "abi": [
    {
      "inputs": [
        {
          "internalType": "string",
          "name": "name",
          "type": "string"
        },
        {
          "internalType": "string",
          "name": "symbol",
          "type": "string"
        },
        {
          "internalType": "uint8",
          "name": "decimals_",
          "type": "uint8"
        }
      ],
      "stateMutability": "nonpayable",
      "type": "constructor"
    },
    {
      "anonymous": false,
      "inputs": [
        {
          "indexed": true,
          "internalType": "address",
          "name": "owner",
          "type": "address"
        },
        {
          "indexed": true,
          "internalType": "address",
          "name": "spender",
          "type": "address"
        },
        {
          "indexed": false,
          "internalType": "uint256",
          "name": "value",
          "type": "uint256"
        }
      ],
      "name": "Approval",
      "type": "event"
    },
    {
      "anonymous": false,
      "inputs": [
        {
          "indexed": true,
          "internalType": "address",
          "name": "previousOwner",
          "type": "address"
        },
        {
          "indexed": true,
          "internalType": "address",
          "name": "newOwner",
          "type": "address"
        }
      ],
      "name": "OwnershipTransferred",
      "type": "event"
    },
    {
      "anonymous": false,
      "inputs": [
        {
          "indexed": true,
          "internalType": "address",
          "name": "from",
          "type": "address"
        },
        {
          "indexed": true,
          "internalType": "address",
          "name": "to",
          "type": "address"
        },
        {
          "indexed": false,
          "internalType": "uint256",
          "name": "value",
          "type": "uint256"
        }
      ],
      "name": "Transfer",
      "type": "event"
    },
    {
      "inputs": [
        {
          "internalType": "address",
          "name": "owner",
          "type": "address"
        },
        {
          "internalType": "address",
          "name": "spender",
          "type": "address"
        }
      ],
      "name": "allowance",
      "outputs": [
        {
          "internalType": "uint256",
          "name": "",
          "type": "uint256"
        }
      ],
      "stateMutability": "view",
      "type": "function"
    },
    {
      "inputs": [
        {
          "internalType": "address",
          "name": "spender",
          "type": "address"
        },
        {
          "internalType": "uint256",
          "name": "amount",
          "type": "uint256"
        }
      ],
      "name": "approve",
      "outputs": [
        {
          "internalType": "bool",
          "name": "",
          "type": "bool"
        }
      ],
      "stateMutability": "nonpayable",
      "type": "function"
    },
    {
      "inputs": [
        {
          "internalType": "address",
          "name": "account",
          "type": "address"
        }
      ],
      "name": "balanceOf",
      "outputs": [
        {
          "internalType": "uint256",
          "name": "",
          "type": "uint256"
        }
      ],
      "stateMutability": "view",
      "type": "function"
    },
    {
      "inputs": [
        {
          "internalType": "uint256",
          "name": "amount",
          "type": "uint256"
        }
      ],
      "name": "burn",
      "outputs": [],
      "stateMutability": "nonpayable",
      "type": "function"
    },
    {
      "inputs": [],
      "name": "decimals",
      "outputs": [
        {
          "internalType": "uint8",
          "name": "",
          "type": "uint8"
        }
      ],
      "stateMutability": "view",
      "type": "function"
    },
    {
      "inputs": [
        {
          "internalType": "address",
          "name": "spender",
          "type": "address"
        },
        {
          "internalType": "uint256",
          "name": "subtractedValue",
          "type": "uint256"
        }
      ],
      "name": "decreaseAllowance",
      "outputs": [
        {
          "internalType": "bool",
          "name": "",
          "type": "bool"
        }
      ],
      "stateMutability": "nonpayable",
      "type": "function"
    },
    {
      "inputs": [
        {
          "internalType": "address",
          "name": "spender",
          "type": "address"
        },
        {
          "internalType": "uint256",
          "name": "addedValue",
          "type": "uint256"
        }
      ],
      "name": "increaseAllowance",
      "outputs": [
        {
          "internalType": "bool",
          "name": "",
          "type": "bool"
        }
      ],
      "stateMutability": "nonpayable",
      "type": "function"
    },
    {
      "inputs": [
        {
          "internalType": "address",
          "name": "to",
          "type": "address"
        },
        {
          "internalType": "uint256",
          "name": "amount",
          "type": "uint256"
        }
      ],
      "name": "mint",
      "outputs": [],
      "stateMutability": "nonpayable",
      "type": "function"
    },
    {
      "inputs": [
        {
          "internalType": "address[]",
          "name": "recipients",
          "type": "address[]"
        },
        {
          "internalType": "uint256[]",
          "name": "amounts",
          "type": "uint256[]"
        }
      ],
      "name": "multiMint",
      "outputs": [],
      "stateMutability": "nonpayable",
      "type": "function"
    },
    {
      "inputs": [],
      "name": "name",
      "outputs": [
        {
          "internalType": "string",
          "name": "",
          "type": "string"
        }
      ],
      "stateMutability": "view",
      "type": "function"
    },
    {
      "inputs": [],
      "name": "owner",
      "outputs": [
        {
          "internalType": "address",
          "name": "",
          "type": "address"
        }
      ],
      "stateMutability": "view",
      "type": "function"
    },
    {
      "inputs": [],
      "name": "renounceOwnership",
      "outputs": [],
      "stateMutability": "nonpayable",
      "type": "function"
    },
    {
      "inputs": [],
      "name": "symbol",
      "outputs": [
        {
          "internalType": "string",
          "name": "",
          "type": "string"
        }
      ],
      "stateMutability": "view",
      "type": "function"
    },
    {
      "inputs": [],
      "name": "totalSupply",
      "outputs": [
        {
          "internalType": "uint256",
          "name": "",
          "type": "uint256"
        }
      ],
      "stateMutability": "view",
      "type": "function"
    },
    {
      "inputs": [
        {
          "internalType": "address",
          "name": "to",
          "type": "address"
        },
        {
          "internalType": "uint256",
          "name": "amount",
          "type": "uint256"
        }
      ],
      "name": "transfer",
      "outputs": [
        {
          "internalType": "bool",
          "name": "",
          "type": "bool"
        }
      ],
      "stateMutability": "nonpayable",
      "type": "function"
    },
    {
      "inputs": [
        {
          "internalType": "address",
          "name": "from",
          "type": "address"
        },
        {
          "internalType": "address",
          "name": "to",
          "type": "address"
        },
        {
          "internalType": "uint256",
          "name": "amount",
          "type": "uint256"
        }
      ],
      "name": "transferFrom",
      "outputs": [
        {
          "internalType": "bool",
          "name": "",
          "type": "bool"
        }
      ],
      "stateMutability": "nonpayable",
      "type": "function"
    },
    {
      "inputs": [
        {
          "internalType": "address",
          "name": "newOwner",
          "type": "address"
        }
      ],
      "name": "transferOwnership",
      "outputs": [],
      "stateMutability": "nonpayable",
      "type": "function"
    }
  ],
  "bytecode": "0x60806040523462000362576200123d803803806200001d8162000367565b9283398101606082820312620003625781516001600160401b03908181116200036257826200004e9185016200038d565b906020928385015182811162000362576040916200006e9187016200038d565b9401519360ff851685036200036257825182811162000262576003918254916001958684811c9416801562000357575b8885101462000341578190601f94858111620002eb575b508890858311600114620002845760009262000278575b505060001982861b1c191690861b1783555b8051938411620002625760049586548681811c9116801562000257575b828210146200024257838111620001f7575b50809285116001146200018957509383949184926000956200017d575b50501b92600019911b1c19161790555b6200014533620003ff565b6005805460ff60a01b191660a09290921b60ff60a01b169190911790556200016d33620003ff565b604051610df49081620004498239f35b0151935038806200012a565b92919084601f1981168860005285600020956000905b89838310620001dc5750505010620001c1575b50505050811b0190556200013a565b01519060f884600019921b161c1916905538808080620001b2565b8587015189559097019694850194889350908101906200019f565b87600052816000208480880160051c82019284891062000238575b0160051c019087905b8281106200022b5750506200010d565b600081550187906200021b565b9250819262000212565b602288634e487b7160e01b6000525260246000fd5b90607f1690620000fb565b634e487b7160e01b600052604160045260246000fd5b015190503880620000cc565b90889350601f19831691876000528a6000209260005b8c828210620002d45750508411620002bb575b505050811b018355620000de565b015160001983881b60f8161c19169055388080620002ad565b8385015186558c979095019493840193016200029a565b90915085600052886000208580850160051c8201928b861062000337575b918a91869594930160051c01915b82811062000327575050620000b5565b600081558594508a910162000317565b9250819262000309565b634e487b7160e01b600052602260045260246000fd5b93607f16936200009e565b600080fd5b6040519190601f01601f191682016001600160401b038111838210176200026257604052565b919080601f84011215620003625782516001600160401b0381116200026257602090620003c3601f8201601f1916830162000367565b92818452828287010111620003625760005b818110620003eb57508260009394955001015290565b8581018301518482018401528201620003d5565b600580546001600160a01b039283166001600160a01b0319821681179092559091167f8be0079c531659141344cd1fd0a4f28419497f9722a3daafe3b4186f6b6457e0600080a356fe6080604081815260048036101561001557600080fd5b600092833560e01c90816306fdde031461086857508063095ea7b31461083e57806318160ddd1461081f57806323b872dd146107555780632f81bc7114610667578063313ce5671461064257806339509351146105f257806340c10f19146105c257806342966c68146104b057806370a0823114610479578063715018a61461041c5780638da5cb5b146103f357806395d89b41146102d1578063a457c2d71461022a578063a9059cbb146101f9578063dd62ed3e146101ac5763f2fde38b146100de57600080fd5b346101a85760203660031901126101a8576100f76109a8565b90610100610cc3565b6001600160a01b03918216928315610156575050600554826bffffffffffffffffffffffff60a01b821617600555167f8be0079c531659141344cd1fd0a4f28419497f9722a3daafe3b4186f6b6457e08380a380f35b906020608492519162461bcd60e51b8352820152602660248201527f4f776e61626c653a206e6577206f776e657220697320746865207a65726f206160448201526564647265737360d01b6064820152fd5b8280fd5b5050346101f557806003193601126101f557806020926101ca6109a8565b6101d26109c3565b6001600160a01b0391821683526001865283832091168252845220549051908152f35b5080fd5b5050346101f557806003193601126101f5576020906102236102196109a8565b6024359033610b55565b5160018152f35b5082346102ce57826003193601126102ce576102446109a8565b918360243592338152600160205281812060018060a01b038616825260205220549082821061027d576020856102238585038733610a53565b608490602086519162461bcd60e51b8352820152602560248201527f45524332303a2064656372656173656420616c6c6f77616e63652062656c6f77604482015264207a65726f60d81b6064820152fd5b80fd5b509190346101f557816003193601126101f55780519082845460018160011c90600183169283156103e9575b60209384841081146103d6578388529081156103ba5750600114610365575b505050829003601f01601f191682019267ffffffffffffffff841183851017610352575082918261034e92528261095f565b0390f35b634e487b7160e01b815260418552602490fd5b8787529192508591837f8a35acfbc15ff81a39ae7d344fd709f28e8600b4aa8c65c6b64bfe7fe36bd19b5b8385106103a6575050505083010138808061031c565b805488860183015293019284908201610390565b60ff1916878501525050151560051b840101905038808061031c565b634e487b7160e01b895260228a52602489fd5b91607f16916102fd565b5050346101f557816003193601126101f55760055490516001600160a01b039091168152602090f35b83346102ce57806003193601126102ce57610435610cc3565b600580546001600160a01b0319811690915581906001600160a01b03167f8be0079c531659141344cd1fd0a4f28419497f9722a3daafe3b4186f6b6457e08280a380f35b5050346101f55760203660031901126101f55760209181906001600160a01b036104a16109a8565b16815280845220549051908152f35b5090346101a857602090816003193601126105be5782359233156105735733855284835281852054908482106105255750917fddf252ad1be2c89b69c2b068fc378daa952ba7f163c4a11628f55a4df523b3ef918486959433875286845203818620558360025403600255519283523392a380f35b825162461bcd60e51b8152908101849052602260248201527f45524332303a206275726e20616d6f756e7420657863656564732062616c616e604482015261636560f01b6064820152608490fd5b82608492519162461bcd60e51b8352820152602160248201527f45524332303a206275726e2066726f6d20746865207a65726f206164647265736044820152607360f81b6064820152fd5b8380fd5b5050346101f5573660031901126102ce576105ef6105de6109a8565b6105e6610cc3565b60243590610d1b565b80f35b5050346101f557806003193601126101f55761022360209261063b6106156109a8565b338352600186528483206001600160a01b03821684528652918490205460243590610a30565b9033610a53565b5050346101f557816003193601126101f55760209060ff60055460a01c169051908152f35b50346101a857816003193601126101a85767ffffffffffffffff9181358381116107515761069890369084016109d9565b909360243590811161074d576106b190369085016109d9565b9390926106bc610cc3565b848303610711575050845b8181106106d2578580f35b6106dd818387610a0a565b35906001600160a01b038216820361070d57610707600192610700838888610a0a565b3590610d1b565b016106c7565b8680fd5b906020606492519162461bcd60e51b83528201526016602482015275082e4e4c2f2e640d8cadccee8d040dad2e6dac2e8c6d60531b6044820152fd5b8580fd5b8480fd5b508290346101f55760603660031901126101f5576107716109a8565b6107796109c3565b91846044359460018060a01b0384168152600160205281812033825260205220549060001982036107b3575b602086610223878787610b55565b8482106107dc57509183916107d16020969561022395033383610a53565b9193948193506107a5565b606490602087519162461bcd60e51b8352820152601d60248201527f45524332303a20696e73756666696369656e7420616c6c6f77616e63650000006044820152fd5b5050346101f557816003193601126101f5576020906002549051908152f35b5050346101f557806003193601126101f55760209061022361085e6109a8565b6024359033610a53565b84915083346101a857826003193601126101a8578260035460018160011c9060018316928315610955575b60209384841081146103d65783885290811561093957506001146108e357505050829003601f01601f191682019267ffffffffffffffff841183851017610352575082918261034e92528261095f565b600387529192508591837fc2575a0e9e593c00f959f8c92f12db2869c3395a3b0502d05e2516446f71f85b5b838510610925575050505083010185808061031c565b80548886018301529301928490820161090f565b60ff1916878501525050151560051b840101905085808061031c565b91607f1691610893565b6020808252825181830181905290939260005b82811061099457505060409293506000838284010152601f8019910116010190565b818101860151848201604001528501610972565b600435906001600160a01b03821682036109be57565b600080fd5b602435906001600160a01b03821682036109be57565b9181601f840112156109be5782359167ffffffffffffffff83116109be576020808501948460051b0101116109be57565b9190811015610a1a5760051b0190565b634e487b7160e01b600052603260045260246000fd5b91908201809211610a3d57565b634e487b7160e01b600052601160045260246000fd5b6001600160a01b03908116918215610b045716918215610ab45760207f8c5be1e5ebec7d5bd14f71427d1e84f3dd0314c0f7b2291e5b200ac8c7c3b925918360005260018252604060002085600052825280604060002055604051908152a3565b60405162461bcd60e51b815260206004820152602260248201527f45524332303a20617070726f766520746f20746865207a65726f206164647265604482015261737360f01b6064820152608490fd5b60405162461bcd60e51b8152602060048201526024808201527f45524332303a20617070726f76652066726f6d20746865207a65726f206164646044820152637265737360e01b6064820152608490fd5b6001600160a01b03908116918215610c705716918215610c1f57600082815280602052604081205491808310610bcb57604082827fddf252ad1be2c89b69c2b068fc378daa952ba7f163c4a11628f55a4df523b3ef958760209652828652038282205586815220818154019055604051908152a3565b60405162461bcd60e51b815260206004820152602660248201527f45524332303a207472616e7366657220616d6f756e7420657863656564732062604482015265616c616e636560d01b6064820152608490fd5b60405162461bcd60e51b815260206004820152602360248201527f45524332303a207472616e7366657220746f20746865207a65726f206164647260448201526265737360e81b6064820152608490fd5b60405162461bcd60e51b815260206004820152602560248201527f45524332303a207472616e736665722066726f6d20746865207a65726f206164604482015264647265737360d81b6064820152608490fd5b6005546001600160a01b03163303610cd757565b606460405162461bcd60e51b815260206004820152602060248201527f4f776e61626c653a2063616c6c6572206973206e6f7420746865206f776e65726044820152fd5b6001600160a01b0316908115610d79577fddf252ad1be2c89b69c2b068fc378daa952ba7f163c4a11628f55a4df523b3ef602082610d5d600094600254610a30565b60025584845283825260408420818154019055604051908152a3565b60405162461bcd60e51b815260206004820152601f60248201527f45524332303a206d696e7420746f20746865207a65726f2061646472657373006044820152606490fdfea2646970667358221220f6f888d7fdc575fb41492d6f443ca646e5a35d3dbacc928c47e5b24a5f60615164736f6c63430008160033",
  "linkReferences": {},
  "deployedLinkReferences": {}
}