{
  "_format": "hh-sol-artifact-1",
  "contractName": "LendingPool",
  "sourceName": "contracts/defi/LendingPool.sol",
  "abi": [
    {
      "inputs": [],
      "stateMutability": "nonpayable",
      "type": "constructor"
    },
    {
      "anonymous": false,
      "inputs": [
        {
          "indexed": true,
          "internalType": "address",
          "name": "owner",
          "type": "address"
        },
        {
          "indexed": true,
          "internalType": "address",
          "name": "spender",
          "type": "address"
        },
        {
          "indexed": false,
          "internalType": "uint256",
          "name": "value",
          "type": "uint256"
        }
      ],
      "name": "Approval",
      "type": "event"
    },
    {
      "anonymous": false,
      "inputs": [
        {
          "indexed": true,
          "internalType": "address",
          "name": "user",
          "type": "address"
        },
        {
          "indexed": false,
          "internalType": "uint256",
          "name": "amount",
          "type": "uint256"
        }
      ],
      "name": "Borrow",
      "type": "event"
    },
    {
      "anonymous": false,
      "inputs": [
        {
          "indexed": true,
          "internalType": "address",
          "name": "user",
          "type": "address"
        },
        {
          "indexed": false,
          "internalType": "uint256",
          "name": "amount",
          "type": "uint256"
        }
      ],
      "name": "Deposit",
      "type": "event"
    },
    {
      "anonymous": false,
      "inputs": [
        {
          "indexed": false,
          "internalType": "uint256",
          "name": "interestAmount",
          "type": "uint256"
        }
      ],
      "name": "InterestAccrued",
      "type": "event"
    },
    {
      "anonymous": false,
      "inputs": [
        {
          "indexed": true,
          "internalType": "address",
          "name": "previousOwner",
          "type": "address"
        },
        {
          "indexed": true,
          "internalType": "address",
          "name": "newOwner",
          "type": "address"
        }
      ],
      "name": "OwnershipTransferred",
      "type": "event"
    },
    {
      "anonymous": false,
      "inputs": [
        {
          "indexed": false,
          "internalType": "uint256",
          "name": "feeAmount",
          "type": "uint256"
        }
      ],
      "name": "ProtocolFeePaid",
      "type": "event"
    },
    {
      "anonymous": false,
      "inputs": [
        {
          "indexed": true,
          "internalType": "address",
          "name": "user",
          "type": "address"
        },
        {
          "indexed": false,
          "internalType": "uint256",
          "name": "amount",
          "type": "uint256"
        }
      ],
      "name": "Repay",
      "type": "event"
    },
    {
      "anonymous": false,
      "inputs": [
        {
          "indexed": false,
          "internalType": "uint256",
          "name": "balance",
          "type": "uint256"
        }
      ],
      "name": "ReservesUpdated",
      "type": "event"
    },
    {
      "anonymous": false,
      "inputs": [
        {
          "indexed": true,
          "internalType": "address",
          "name": "from",
          "type": "address"
        },
        {
          "indexed": true,
          "internalType": "address",
          "name": "to",
          "type": "address"
        },
        {
          "indexed": false,
          "internalType": "uint256",
          "name": "value",
          "type": "uint256"
        }
      ],
      "name": "Transfer",
      "type": "event"
    },
    {
      "anonymous": false,
      "inputs": [
        {
          "indexed": true,
          "internalType": "address",
          "name": "user",
          "type": "address"
        },
        {
          "indexed": false,
          "internalType": "uint256",
          "name": "amount",
          "type": "uint256"
        }
      ],
      "name": "Withdraw",
      "type": "event"
    },
    {
      "inputs": [],
      "name": "BIPS",
      "outputs": [
        {
          "internalType": "uint256",
          "name": "",
          "type": "uint256"
        }
      ],
      "stateMutability": "view",
      "type": "function"
    },
    {
      "inputs": [],
      "name": "accrueInterest",
      "outputs": [],
      "stateMutability": "nonpayable",
      "type": "function"
    },
    {
      "inputs": [
        {
          "internalType": "address",
          "name": "owner",
          "type": "address"
        },
        {
          "internalType": "address",
          "name": "spender",
          "type": "address"
        }
      ],
      "name": "allowance",
      "outputs": [
        {
          "internalType": "uint256",
          "name": "",
          "type": "uint256"
        }
      ],
      "stateMutability": "view",
      "type": "function"
    },
    {
      "inputs": [
        {
          "internalType": "address",
          "name": "spender",
          "type": "address"
        },
        {
          "internalType": "uint256",
          "name": "amount",
          "type": "uint256"
        }
      ],
      "name": "approve",
      "outputs": [
        {
          "internalType": "bool",
          "name": "",
          "type": "bool"
        }
      ],
      "stateMutability": "nonpayable",
      "type": "function"
    },
    {
      "inputs": [],
      "name": "asset",
      "outputs": [
        {
          "internalType": "contract IERC20",
          "name": "",
          "type": "address"
        }
      ],
      "stateMutability": "view",
      "type": "function"
    },
    {
      "inputs": [
        {
          "internalType": "address",
          "name": "account",
          "type": "address"
        }
      ],
      "name": "balanceOf",
      "outputs": [
        {
          "internalType": "uint256",
          "name": "",
          "type": "uint256"
        }
      ],
      "stateMutability": "view",
      "type": "function"
    },
    {
      "inputs": [
        {
          "internalType": "uint256",
          "name": "amount",
          "type": "uint256"
        }
      ],
      "name": "borrow",
      "outputs": [],
      "stateMutability": "nonpayable",
      "type": "function"
    },
    {
      "inputs": [
        {
          "internalType": "address",
          "name": "",
          "type": "address"
        }
      ],
      "name": "borrowed",
      "outputs": [
        {
          "internalType": "uint256",
          "name": "",
          "type": "uint256"
        }
      ],
      "stateMutability": "view",
      "type": "function"
    },
    {
      "inputs": [],
      "name": "collateralFactorBps",
      "outputs": [
        {
          "internalType": "uint256",
          "name": "",
          "type": "uint256"
        }
      ],
      "stateMutability": "view",
      "type": "function"
    },
    {
      "inputs": [],
      "name": "decimals",
      "outputs": [
        {
          "internalType": "uint8",
          "name": "",
          "type": "uint8"
        }
      ],
      "stateMutability": "view",
      "type": "function"
    },
    {
      "inputs": [
        {
          "internalType": "address",
          "name": "spender",
          "type": "address"
        },
        {
          "internalType": "uint256",
          "name": "subtractedValue",
          "type": "uint256"
        }
      ],
      "name": "decreaseAllowance",
      "outputs": [
        {
          "internalType": "bool",
          "name": "",
          "type": "bool"
        }
      ],
      "stateMutability": "nonpayable",
      "type": "function"
    },
    {
      "inputs": [
        {
          "internalType": "uint256",
          "name": "amount",
          "type": "uint256"
        }
      ],
      "name": "deposit",
      "outputs": [],
      "stateMutability": "nonpayable",
      "type": "function"
    },
    {
      "inputs": [],
      "name": "factory",
      "outputs": [
        {
          "internalType": "address",
          "name": "",
          "type": "address"
        }
      ],
      "stateMutability": "view",
      "type": "function"
    },
    {
      "inputs": [],
      "name": "feeCollector",
      "outputs": [
        {
          "internalType": "address",
          "name": "",
          "type": "address"
        }
      ],
      "stateMutability": "view",
      "type": "function"
    },
    {
      "inputs": [
        {
          "internalType": "address",
          "name": "user",
          "type": "address"
        }
      ],
      "name": "getUserCollateralValue",
      "outputs": [
        {
          "internalType": "uint256",
          "name": "",
          "type": "uint256"
        }
      ],
      "stateMutability": "view",
      "type": "function"
    },
    {
      "inputs": [
        {
          "internalType": "address",
          "name": "user",
          "type": "address"
        }
      ],
      "name": "healthFactor",
      "outputs": [
        {
          "internalType": "uint256",
          "name": "",
          "type": "uint256"
        }
      ],
      "stateMutability": "view",
      "type": "function"
    },
    {
      "inputs": [
        {
          "internalType": "address",
          "name": "spender",
          "type": "address"
        },
        {
          "internalType": "uint256",
          "name": "addedValue",
          "type": "uint256"
        }
      ],
      "name": "increaseAllowance",
      "outputs": [
        {
          "internalType": "bool",
          "name": "",
          "type": "bool"
        }
      ],
      "stateMutability": "nonpayable",
      "type": "function"
    },
    {
      "inputs": [
        {
          "internalType": "address",
          "name": "_asset",
          "type": "address"
        },
        {
          "internalType": "string",
          "name": "_name",
          "type": "string"
        },
        {
          "internalType": "string",
          "name": "_symbol",
          "type": "string"
        },
        {
          "internalType": "uint256",
          "name": "_collateralFactorBps",
          "type": "uint256"
        },
        {
          "internalType": "uint256",
          "name": "_reserveFactorBps",
          "type": "uint256"
        },
        {
          "internalType": "address",
          "name": "_priceOracle",
          "type": "address"
        },
        {
          "internalType": "address",
          "name": "_interestRateModel",
          "type": "address"
        },
        {
          "internalType": "address",
          "name": "_feeCollector",
          "type": "address"
        }
      ],
      "name": "initialize",
      "outputs": [],
      "stateMutability": "nonpayable",
      "type": "function"
    },
    {
      "inputs": [],
      "name": "initialized",
      "outputs": [
        {
          "internalType": "bool",
          "name": "",
          "type": "bool"
        }
      ],
      "stateMutability": "view",
      "type": "function"
    },
    {
      "inputs": [],
      "name": "interestRateModel",
      "outputs": [
        {
          "internalType": "address",
          "name": "",
          "type": "address"
        }
      ],
      "stateMutability": "view",
      "type": "function"
    },
    {
      "inputs": [],
      "name": "lastAccrualTimestamp",
      "outputs": [
        {
          "internalType": "uint256",
          "name": "",
          "type": "uint256"
        }
      ],
      "stateMutability": "view",
      "type": "function"
    },
    {
      "inputs": [],
      "name": "name",
      "outputs": [
        {
          "internalType": "string",
          "name": "",
          "type": "string"
        }
      ],
      "stateMutability": "view",
      "type": "function"
    },
    {
      "inputs": [],
      "name": "owner",
      "outputs": [
        {
          "internalType": "address",
          "name": "",
          "type": "address"
        }
      ],
      "stateMutability": "view",
      "type": "function"
    },
    {
      "inputs": [],
      "name": "priceOracle",
      "outputs": [
        {
          "internalType": "address",
          "name": "",
          "type": "address"
        }
      ],
      "stateMutability": "view",
      "type": "function"
    },
    {
      "inputs": [],
      "name": "renounceOwnership",
      "outputs": [],
      "stateMutability": "nonpayable",
      "type": "function"
    },
    {
      "inputs": [
        {
          "internalType": "uint256",
          "name": "amount",
          "type": "uint256"
        }
      ],
      "name": "repay",
      "outputs": [],
      "stateMutability": "nonpayable",
      "type": "function"
    },
    {
      "inputs": [],
      "name": "reserveBalance",
      "outputs": [
        {
          "internalType": "uint256",
          "name": "",
          "type": "uint256"
        }
      ],
      "stateMutability": "view",
      "type": "function"
    },
    {
      "inputs": [],
      "name": "reserveFactorBps",
      "outputs": [
        {
          "internalType": "uint256",
          "name": "",
          "type": "uint256"
        }
      ],
      "stateMutability": "view",
      "type": "function"
    },
    {
      "inputs": [
        {
          "internalType": "address",
          "name": "",
          "type": "address"
        }
      ],
      "name": "supportedCollateralAssets",
      "outputs": [
        {
          "internalType": "bool",
          "name": "",
          "type": "bool"
        }
      ],
      "stateMutability": "view",
      "type": "function"
    },
    {
      "inputs": [],
      "name": "symbol",
      "outputs": [
        {
          "internalType": "string",
          "name": "",
          "type": "string"
        }
      ],
      "stateMutability": "view",
      "type": "function"
    },
    {
      "inputs": [],
      "name": "totalAssets",
      "outputs": [
        {
          "internalType": "uint256",
          "name": "",
          "type": "uint256"
        }
      ],
      "stateMutability": "view",
      "type": "function"
    },
    {
      "inputs": [],
      "name": "totalBorrowed",
      "outputs": [
        {
          "internalType": "uint256",
          "name": "",
          "type": "uint256"
        }
      ],
      "stateMutability": "view",
      "type": "function"
    },
    {
      "inputs": [],
      "name": "totalSupply",
      "outputs": [
        {
          "internalType": "uint256",
          "name": "",
          "type": "uint256"
        }
      ],
      "stateMutability": "view",
      "type": "function"
    },
    {
      "inputs": [
        {
          "internalType": "address",
          "name": "to",
          "type": "address"
        },
        {
          "internalType": "uint256",
          "name": "amount",
          "type": "uint256"
        }
      ],
      "name": "transfer",
      "outputs": [
        {
          "internalType": "bool",
          "name": "",
          "type": "bool"
        }
      ],
      "stateMutability": "nonpayable",
      "type": "function"
    },
    {
      "inputs": [
        {
          "internalType": "address",
          "name": "from",
          "type": "address"
        },
        {
          "internalType": "address",
          "name": "to",
          "type": "address"
        },
        {
          "internalType": "uint256",
          "name": "amount",
          "type": "uint256"
        }
      ],
      "name": "transferFrom",
      "outputs": [
        {
          "internalType": "bool",
          "name": "",
          "type": "bool"
        }
      ],
      "stateMutability": "nonpayable",
      "type": "function"
    },
    {
      "inputs": [
        {
          "internalType": "address",
          "name": "newOwner",
          "type": "address"
        }
      ],
      "name": "transferOwnership",
      "outputs": [],
      "stateMutability": "nonpayable",
      "type": "function"
    },
    {
      "inputs": [
        {
          "internalType": "address",
          "name": "",
          "type": "address"
        },
        {
          "internalType": "address",
          "name": "",
          "type": "address"
        }
      ],
      "name": "userCollateralAssets",
      "outputs": [
        {
          "internalType": "bool",
          "name": "",
          "type": "bool"
        }
      ],
      "stateMutability": "view",
      "type": "function"
    },
    {
      "inputs": [
        {
          "internalType": "uint256",
          "name": "amount",
          "type": "uint256"
        }
      ],
      "name": "withdraw",
      "outputs": [],
      "stateMutability": "nonpayable",
      "type": "function"
    }
  ],
  "bytecode": "0x6080604052346200032557620000146200032a565b6200001e6200032a565b815190916001600160401b038083116200022557600380546001948582811c92169485156200031a575b6020958684101462000304578190601f93848111620002ae575b50869084831160011462000247576000926200023b575b505060001982851b1c191690861b1782555b8551928311620002255760049384548681811c911680156200021a575b828210146200020557828111620001ba575b50809184116001146200014c57508293949560009362000140575b505082851b92600019911b1c19161790555b60058054336001600160a01b0319821681179092556040519291906001600160a01b03167f8be0079c531659141344cd1fd0a4f28419497f9722a3daafe3b4186f6b6457e0600080a3600655611bc790816200034f8239f35b015191503880620000d5565b9190601f198416968560005283600020936000905b898210620001a25750508487989796971062000187575b50505050811b019055620000e7565b01519060f884600019921b161c191690553880808062000178565b80898597829496860151815501960193019062000161565b85600052816000208380870160051c820192848810620001fb575b0160051c019087905b828110620001ee575050620000ba565b60008155018790620001de565b92508192620001d5565b602286634e487b7160e01b6000525260246000fd5b90607f1690620000a8565b634e487b7160e01b600052604160045260246000fd5b01519050388062000079565b90889350601f1983169186600052886000209260005b8a8282106200029757505084116200027e575b505050811b0182556200008b565b015160001983871b60f8161c1916905538808062000270565b8385015186558c979095019493840193016200025d565b90915084600052866000208480850160051c820192898610620002fa575b918a91869594930160051c01915b828110620002ea57505062000062565b600081558594508a9101620002da565b92508192620002cc565b634e487b7160e01b600052602260045260246000fd5b91607f169162000048565b600080fd5b60405190602082016001600160401b0381118382101762000225576040526000825256fe608060408181526004918236101561001657600080fd5b600092833560e01c91826301e1d1141461138c5750816306fdde03146112955781630941cb3d1461125d578163095ea7b314611233578163158ef93e1461120c57816318160ddd146111ed57816323b872dd146111235781632630c12f146110fa5781632e1a7d4d14610ec3578163313ce56714610ea757816336f9323914610b7a578163371fd8e614610a9357816338d52e0f14610a6a5781633950935114610a1a5781634c19386c146109ff5781636ad9f9df146109d957816370a0823114610939578163715018a61461097c57816375417da6146109395781637f5007ed1461091a5781638da5cb5b146108f157816395d89b41146107ec578163a10954fe146107cd578163a457c2d714610728578163a6872fb4146106da578163a6afed95146106bb578163a9059cbb1461068a578163a9fae35c1461064c578163b6b55f2514610544578163c0789dcb14610525578163c415b95c146104fc578163c45a0155146104d3578163c5ebeaec14610346578163c87bed7014610327578163dd62ed3e146102de578163f2fde38b1461020e57508063f3fdb15a146101e65763f7050031146101c757600080fd5b346101e257816003193601126101e257602090516127108152f35b5080fd5b50346101e257816003193601126101e257600d5490516001600160a01b039091168152602090f35b9050346102da5760203660031901126102da5761022961147a565b9061023261197a565b6001600160a01b03918216928315610288575050600554826bffffffffffffffffffffffff60a01b821617600555167f8be0079c531659141344cd1fd0a4f28419497f9722a3daafe3b4186f6b6457e08380a380f35b906020608492519162461bcd60e51b8352820152602660248201527f4f776e61626c653a206e6577206f776e657220697320746865207a65726f206160448201526564647265737360d01b6064820152fd5b8280fd5b5050346101e257806003193601126101e257806020926102fc61147a565b610304611495565b6001600160a01b0391821683526001865283832091168252845220549051908152f35b5050346101e257816003193601126101e257602090600b549051908152f35b919050346102da57602090816003193601126104cf5782359261036761187b565b61036f6115fa565b60075482516370a0823160e01b815230818401526001600160a01b03929185908290602490829087165afa9081156104c5579086918891610490575b501061045457338652600f84528286206103c6868254611546565b90556127106103d433611589565b1061041c57509061040d847fcbc04eca7e9da35cb1393a6135a199ca52e450d5e9251cbd99f7847d33a3675094933390600754166118d1565b519283523392a2600160065580f35b825162461bcd60e51b815290810184905260126024820152712ab73432b0b63a343c903837b9b4ba34b7b760711b6044820152606490fd5b825162461bcd60e51b81529081018490526016602482015275496e73756666696369656e74206c697175696469747960501b6044820152606490fd5b809250868092503d83116104be575b6104a981836114ab565b810103126104ba57859051386103ab565b8680fd5b503d61049f565b84513d89823e3d90fd5b8380fd5b5050346101e257816003193601126101e25760125490516001600160a01b039091168152602090f35b5050346101e257816003193601126101e257600e5490516001600160a01b039091168152602090f35b5050346101e257816003193601126101e2576020906008549051908152f35b919050346102da5760203660031901126102da5781359161056361187b565b61056b6115fa565b600754610586908490309033906001600160a01b0316611921565b331561060a575061059982600254611546565b600255338352826020528083208281540190558051828152837fddf252ad1be2c89b69c2b068fc378daa952ba7f163c4a11628f55a4df523b3ef60203393a3519081527fe1fffcc4923d04b559f4d29a8bfc6cda04eb5b0d3c460751c2402c5c5cc9109c60203392a2600160065580f35b6020606492519162461bcd60e51b8352820152601f60248201527f45524332303a206d696e7420746f20746865207a65726f2061646472657373006044820152fd5b5050346101e25760203660031901126101e25760209160ff9082906001600160a01b0361067761147a565b1681526011855220541690519015158152f35b5050346101e257806003193601126101e2576020906106b46106aa61147a565b602435903361170d565b5160018152f35b83346106d757806003193601126106d7576106d46115fa565b80f35b80fd5b5050346101e257806003193601126101e25760ff816020936106fa61147a565b610702611495565b6001600160a01b0391821683526010875283832091168252855220549151911615158152f35b905082346106d757826003193601126106d75761074361147a565b918360243592338152600160205281812060018060a01b038616825260205220549082821061077c576020856106b4858503873361160b565b608490602086519162461bcd60e51b8352820152602560248201527f45524332303a2064656372656173656420616c6c6f77616e63652062656c6f77604482015264207a65726f60d81b6064820152fd5b5050346101e257816003193601126101e2576020906009549051908152f35b8383346101e257816003193601126101e25780519180938054916001908360011c92600185169485156108e7575b60209586861081146108d4578589529081156108b05750600114610858575b610854878761084a828c03836114ab565b519182918261144e565b0390f35b81529295507f8a35acfbc15ff81a39ae7d344fd709f28e8600b4aa8c65c6b64bfe7fe36bd19b5b82841061089d57505050826108549461084a92820101948680610839565b805486850188015292860192810161087f565b60ff19168887015250505050151560051b830101925061084a826108548680610839565b634e487b7160e01b845260228352602484fd5b93607f169361081a565b5050346101e257816003193601126101e25760055490516001600160a01b039091168152602090f35b5050346101e257816003193601126101e257602090600a549051908152f35b5050346101e25760203660031901126101e25760209061097561095a61147a565b6001600160a01b031660009081526020819052604090205490565b9051908152f35b83346106d757806003193601126106d75761099561197a565b600580546001600160a01b0319811690915581906001600160a01b03167f8be0079c531659141344cd1fd0a4f28419497f9722a3daafe3b4186f6b6457e08280a380f35b5050346101e25760203660031901126101e2576020906109756109fa61147a565b611589565b5050346101e257816003193601126101e25751908152602090f35b5050346101e257806003193601126101e2576106b4602092610a63610a3d61147a565b338352600186528483206001600160a01b03821684528652918490205460243590611546565b903361160b565b5050346101e257816003193601126101e25760075490516001600160a01b039091168152602090f35b9050346102da5760203660031901126102da578035610ab061187b565b610ab86115fa565b338452600f60205282842054918215610b44575081811115610b3c5750905b338352600f602052808320610aed838254611569565b9055600754610b0a908390309033906001600160a01b0316611921565b519081527f5c16de4f8b59bd9caf0f49a545f25819a895ed223294290b408242e72a59423160203392a2600160065580f35b905090610ad7565b606490602085519162461bcd60e51b8352820152601060248201526f4e6f206465627420746f20726570617960801b6044820152fd5b9050346102da576101003660031901126102da57610b9661147a565b91602480359167ffffffffffffffff928381116104ba57610bba90369086016114ff565b6044938435908111610ea357610bd390369087016114ff565b916064928335916084359360a4359560018060a01b03998a8816809803610e9f5760c435998b8b16809b03610e9b5760e4359b808d16809d03610e975760ff9d600e549e8f60a01c16610e615716998a15610e33578915610e04578b15610dd1578c15610d9b57612710808911610d5c578911610d255750505050610cec9291610cbc6021926bffffffffffffffffffffffff60a01b99338b60125416176012558a6007541617600755602d835182610c9682945180926020808601910161142b565b81016c0813195b991a5b99c8141bdbdb609a1b602082015203600d8101835201906114ab565b518092601b60fa1b6020830152610cdc815180926020868601910161142b565b81010360018101835201906114ab565b600a55600b5581600c541617600c55600d541617600d5542600855600160a01b916affffffffffffffffffffff60a81b161717600e5580f35b9060167524b73b30b634b2103932b9b2b93b32903330b1ba37b960511b92602088519562461bcd60e51b8752860152840152820152fd5b509060197f496e76616c696420636f6c6c61746572616c20666163746f720000000000000092602088519562461bcd60e51b8752860152840152820152fd5b9060157424b73b30b634b2103332b29031b7b63632b1ba37b960591b92602088519562461bcd60e51b8752860152840152820152fd5b90601271125b9d985b1a59081c985d19481b5bd9195b60721b92602088519562461bcd60e51b8752860152840152820152fd5b90600e6d496e76616c6964206f7261636c6560901b92602088519562461bcd60e51b8752860152840152820152fd5b90600d6c125b9d985b1a5908185cdcd95d609a1b92602088519562461bcd60e51b8752860152840152820152fd5b505072105b1c9958591e481a5b9a5d1a585b1a5e9959606a1b9060138b602088519562461bcd60e51b8752860152840152820152fd5b8e80fd5b8d80fd5b8c80fd5b8780fd5b5050346101e257816003193601126101e2576020905160128152f35b919050346102da57602090816003193601126104cf57823592610ee461187b565b610eec6115fa565b3385528483528382862054106110c257338552600f83528185205461103a575b3315610fef573385528483528185205490848210610fa1575090837f884edad9ce6fa2440d8a54cc123490eb96d2768479d49ff9c7366125a94243649392338752868452038186205583600254036002558481518581527fddf252ad1be2c89b69c2b068fc378daa952ba7f163c4a11628f55a4df523b3ef843392a360075461040d90859033906001600160a01b03166118d1565b825162461bcd60e51b8152908101849052602260248201527f45524332303a206275726e20616d6f756e7420657863656564732062616c616e604482015261636560f01b6064820152608490fd5b82608492519162461bcd60e51b8352820152602160248201527f45524332303a206275726e2066726f6d20746865207a65726f206164647265736044820152607360f81b6064820152fd5b8483526127106110596110508685892054611569565b600a5490611576565b04338652600f8452828620541115610f0c5782608492519162461bcd60e51b8352820152602d60248201527f5769746864726177616c20776f756c6420636175736520756e646572636f6c6c60448201526c30ba32b930b634bd30ba34b7b760991b6064820152fd5b82606492519162461bcd60e51b83528201526014602482015273496e73756666696369656e742062616c616e636560601b6044820152fd5b5050346101e257816003193601126101e257600c5490516001600160a01b039091168152602090f35b839150346101e25760603660031901126101e25761113f61147a565b611147611495565b91846044359460018060a01b038416815260016020528181203382526020522054906000198203611181575b6020866106b487878761170d565b8482106111aa575091839161119f602096956106b49503338361160b565b919394819350611173565b606490602087519162461bcd60e51b8352820152601d60248201527f45524332303a20696e73756666696369656e7420616c6c6f77616e63650000006044820152fd5b5050346101e257816003193601126101e2576020906002549051908152f35b5050346101e257816003193601126101e25760209060ff600e5460a01c1690519015158152f35b5050346101e257806003193601126101e2576020906106b461125361147a565b602435903361160b565b5050346101e25760203660031901126101e25760209181906001600160a01b0361128561147a565b168152600f845220549051908152f35b919050346102da57826003193601126102da5780519183600354906001908260011c92600181168015611382575b602095868610821461136f575084885290811561134d57506001146112f4575b610854868661084a828b03836114ab565b929550600383527fc2575a0e9e593c00f959f8c92f12db2869c3395a3b0502d05e2516446f71f85b5b82841061133a57505050826108549461084a9282010194386112e3565b805486850188015292860192810161131d565b60ff191687860152505050151560051b830101925061084a82610854386112e3565b634e487b7160e01b845260229052602483fd5b93607f16936112c3565b9150346104cf57836003193601126104cf576007546370a0823160e01b83523091830191909152602090829060249082906001600160a01b03165afa9283156114205780936113e6575b6020836109758660095490611569565b9092506020833d602011611418575b81611402602093836114ab565b810103126106d7575061097560209251926113d6565b3d91506113f5565b8251903d90823e3d90fd5b60005b83811061143e5750506000910152565b818101518382015260200161142e565b6040916020825261146e815180928160208601526020868601910161142b565b601f01601f1916010190565b600435906001600160a01b038216820361149057565b600080fd5b602435906001600160a01b038216820361149057565b90601f8019910116810190811067ffffffffffffffff8211176114cd57604052565b634e487b7160e01b600052604160045260246000fd5b67ffffffffffffffff81116114cd57601f01601f191660200190565b81601f8201121561149057803590611516826114e3565b9261152460405194856114ab565b8284526020838301011161149057816000926020809301838601378301015290565b9190820180921161155357565b634e487b7160e01b600052601160045260246000fd5b9190820391821161155357565b8181029291811591840414171561155357565b6001600160a01b0381166000908152600f60205260409020549081156115f2576001600160a01b0316600090815260208190526040902054600a546127109182916115d391611576565b049081156115ea5780820291820403611553570490565b505050600090565b505060001990565b60085442146116095742600855565b565b6001600160a01b039081169182156116bc571691821561166c5760207f8c5be1e5ebec7d5bd14f71427d1e84f3dd0314c0f7b2291e5b200ac8c7c3b925918360005260018252604060002085600052825280604060002055604051908152a3565b60405162461bcd60e51b815260206004820152602260248201527f45524332303a20617070726f766520746f20746865207a65726f206164647265604482015261737360f01b6064820152608490fd5b60405162461bcd60e51b8152602060048201526024808201527f45524332303a20617070726f76652066726f6d20746865207a65726f206164646044820152637265737360e01b6064820152608490fd5b6001600160a01b0390811691821561182857169182156117d75760008281528060205260408120549180831061178357604082827fddf252ad1be2c89b69c2b068fc378daa952ba7f163c4a11628f55a4df523b3ef958760209652828652038282205586815220818154019055604051908152a3565b60405162461bcd60e51b815260206004820152602660248201527f45524332303a207472616e7366657220616d6f756e7420657863656564732062604482015265616c616e636560d01b6064820152608490fd5b60405162461bcd60e51b815260206004820152602360248201527f45524332303a207472616e7366657220746f20746865207a65726f206164647260448201526265737360e81b6064820152608490fd5b60405162461bcd60e51b815260206004820152602560248201527f45524332303a207472616e736665722066726f6d20746865207a65726f206164604482015264647265737360d81b6064820152608490fd5b60026006541461188c576002600655565b60405162461bcd60e51b815260206004820152601f60248201527f5265656e7472616e637947756172643a207265656e7472616e742063616c6c006044820152606490fd5b60405163a9059cbb60e01b60208201526001600160a01b039092166024830152604480830193909352918152608081019167ffffffffffffffff8311828410176114cd57611609926040526119d2565b6040516323b872dd60e01b60208201526001600160a01b03928316602482015292909116604483015260648083019390935291815260a081019181831067ffffffffffffffff8411176114cd57611609926040526119d2565b6005546001600160a01b0316330361198e57565b606460405162461bcd60e51b815260206004820152602060248201527f4f776e61626c653a2063616c6c6572206973206e6f7420746865206f776e65726044820152fd5b60018060a01b031690604051604081019080821067ffffffffffffffff8311176114cd57611a62916040526020938482527f5361666545524332303a206c6f772d6c6576656c2063616c6c206661696c6564858301526000808587829751910182855af13d15611af8573d91611a47836114e3565b92611a5560405194856114ab565b83523d868885013e611afc565b805191821591848315611ad4575b505050905015611a7d5750565b6084906040519062461bcd60e51b82526004820152602a60248201527f5361666545524332303a204552433230206f7065726174696f6e20646964206e6044820152691bdd081cdd58d8d9595960b21b6064820152fd5b9193818094500103126101e2578201519081151582036106d7575080388084611a70565b6060915b91929015611b5e5750815115611b10575090565b3b15611b195790565b60405162461bcd60e51b815260206004820152601d60248201527f416464726573733a2063616c6c20746f206e6f6e2d636f6e74726163740000006044820152606490fd5b825190915015611b715750805190602001fd5b60405162461bcd60e51b8152908190611b8d906004830161144e565b0390fdfea2646970667358221220e9c309186c5a9ac16c41424e6ddd8eb84b28a86ba769707984d69444be35b9e164736f6c63430008160033",
  "linkReferences": {},
  "deployedLinkReferences": {}
}