{
  "_format": "hh-sol-artifact-1",
  "contractName": "TokenFactory_v2_DirectDEX",
  "sourceName": "src/contracts/TokenFactory_v2_DirectDEX.sol",
  "abi": [
    {
      "inputs": [
        {
          "internalType": "uint256",
          "name": "_listingFee",
          "type": "uint256"
        }
      ],
      "stateMutability": "nonpayable",
      "type": "constructor"
    },
    {
      "anonymous": false,
      "inputs": [
        {
          "indexed": true,
          "internalType": "address",
          "name": "token",
          "type": "address"
        },
        {
          "indexed": false,
          "internalType": "uint256",
          "name": "ethAmount",
          "type": "uint256"
        },
        {
          "indexed": false,
          "internalType": "uint256",
          "name": "tokenAmount",
          "type": "uint256"
        }
      ],
      "name": "AutoLiquidityAdded",
      "type": "event"
    },
    {
      "anonymous": false,
      "inputs": [
        {
          "indexed": false,
          "internalType": "bool",
          "name": "isPaused",
          "type": "bool"
        }
      ],
      "name": "AutoLiquidityPaused",
      "type": "event"
    },
    {
      "anonymous": false,
      "inputs": [
        {
          "indexed": false,
          "internalType": "string",
          "name": "name",
          "type": "string"
        },
        {
          "indexed": false,
          "internalType": "address",
          "name": "router",
          "type": "address"
        }
      ],
      "name": "DEXAdded",
      "type": "event"
    },
    {
      "anonymous": false,
      "inputs": [
        {
          "indexed": false,
          "internalType": "string",
          "name": "name",
          "type": "string"
        },
        {
          "indexed": false,
          "internalType": "address",
          "name": "router",
          "type": "address"
        },
        {
          "indexed": false,
          "internalType": "bool",
          "name": "isActive",
          "type": "bool"
        }
      ],
      "name": "DEXUpdated",
      "type": "event"
    },
    {
      "anonymous": false,
      "inputs": [
        {
          "indexed": true,
          "internalType": "address",
          "name": "token",
          "type": "address"
        },
        {
          "indexed": false,
          "internalType": "uint256",
          "name": "amount",
          "type": "uint256"
        }
      ],
      "name": "EmergencyAutoLiquidityWithdrawn",
      "type": "event"
    },
    {
      "anonymous": false,
      "inputs": [
        {
          "indexed": true,
          "internalType": "address",
          "name": "previousOwner",
          "type": "address"
        },
        {
          "indexed": true,
          "internalType": "address",
          "name": "newOwner",
          "type": "address"
        }
      ],
      "name": "OwnershipTransferred",
      "type": "event"
    },
    {
      "anonymous": false,
      "inputs": [
        {
          "indexed": true,
          "internalType": "address",
          "name": "token",
          "type": "address"
        },
        {
          "indexed": true,
          "internalType": "address",
          "name": "owner",
          "type": "address"
        },
        {
          "indexed": false,
          "internalType": "string",
          "name": "dexName",
          "type": "string"
        },
        {
          "indexed": false,
          "internalType": "uint256",
          "name": "initialLiquidity",
          "type": "uint256"
        },
        {
          "indexed": false,
          "internalType": "uint256",
          "name": "listingPrice",
          "type": "uint256"
        },
        {
          "indexed": false,
          "internalType": "uint256",
          "name": "tradingStartTime",
          "type": "uint256"
        }
      ],
      "name": "TokenListed",
      "type": "event"
    },
    {
      "inputs": [],
      "name": "AUTO_LIQUIDITY_COOLDOWN",
      "outputs": [
        {
          "internalType": "uint256",
          "name": "",
          "type": "uint256"
        }
      ],
      "stateMutability": "view",
      "type": "function"
    },
    {
      "inputs": [],
      "name": "MIN_AUTO_LIQUIDITY_THRESHOLD",
      "outputs": [
        {
          "internalType": "uint256",
          "name": "",
          "type": "uint256"
        }
      ],
      "stateMutability": "view",
      "type": "function"
    },
    {
      "inputs": [],
      "name": "VERSION",
      "outputs": [
        {
          "internalType": "string",
          "name": "",
          "type": "string"
        }
      ],
      "stateMutability": "view",
      "type": "function"
    },
    {
      "inputs": [],
      "name": "VERSION_HASH",
      "outputs": [
        {
          "internalType": "bytes32",
          "name": "",
          "type": "bytes32"
        }
      ],
      "stateMutability": "view",
      "type": "function"
    },
    {
      "inputs": [
        {
          "internalType": "address",
          "name": "token",
          "type": "address"
        }
      ],
      "name": "addAutoLiquidity",
      "outputs": [],
      "stateMutability": "nonpayable",
      "type": "function"
    },
    {
      "inputs": [
        {
          "internalType": "string",
          "name": "name",
          "type": "string"
        },
        {
          "internalType": "address",
          "name": "router",
          "type": "address"
        }
      ],
      "name": "addDEX",
      "outputs": [],
      "stateMutability": "nonpayable",
      "type": "function"
    },
    {
      "inputs": [],
      "name": "autoLiquidityPaused",
      "outputs": [
        {
          "internalType": "bool",
          "name": "",
          "type": "bool"
        }
      ],
      "stateMutability": "view",
      "type": "function"
    },
    {
      "inputs": [
        {
          "components": [
            {
              "internalType": "string",
              "name": "name",
              "type": "string"
            },
            {
              "internalType": "string",
              "name": "symbol",
              "type": "string"
            },
            {
              "internalType": "uint256",
              "name": "totalSupply",
              "type": "uint256"
            },
            {
              "internalType": "uint256",
              "name": "initialLiquidityInETH",
              "type": "uint256"
            },
            {
              "internalType": "uint256",
              "name": "listingPriceInETH",
              "type": "uint256"
            },
            {
              "internalType": "uint256",
              "name": "maxTxAmount",
              "type": "uint256"
            },
            {
              "internalType": "uint256",
              "name": "maxWalletAmount",
              "type": "uint256"
            },
            {
              "internalType": "bool",
              "name": "enableTrading",
              "type": "bool"
            },
            {
              "internalType": "uint256",
              "name": "tradingStartTime",
              "type": "uint256"
            },
            {
              "internalType": "string",
              "name": "dexName",
              "type": "string"
            },
            {
              "internalType": "uint256",
              "name": "marketingFeePercentage",
              "type": "uint256"
            },
            {
              "internalType": "address",
              "name": "marketingWallet",
              "type": "address"
            },
            {
              "internalType": "uint256",
              "name": "developmentFeePercentage",
              "type": "uint256"
            },
            {
              "internalType": "address",
              "name": "developmentWallet",
              "type": "address"
            },
            {
              "internalType": "uint256",
              "name": "autoLiquidityFeePercentage",
              "type": "uint256"
            }
          ],
          "internalType": "struct TokenFactory_v2_DirectDEX.ListingParams",
          "name": "params",
          "type": "tuple"
        }
      ],
      "name": "createAndListToken",
      "outputs": [],
      "stateMutability": "payable",
      "type": "function"
    },
    {
      "inputs": [
        {
          "internalType": "string",
          "name": "",
          "type": "string"
        }
      ],
      "name": "dexRouters",
      "outputs": [
        {
          "internalType": "string",
          "name": "name",
          "type": "string"
        },
        {
          "internalType": "address",
          "name": "router",
          "type": "address"
        },
        {
          "internalType": "bool",
          "name": "isActive",
          "type": "bool"
        }
      ],
      "stateMutability": "view",
      "type": "function"
    },
    {
      "inputs": [
        {
          "internalType": "address",
          "name": "token",
          "type": "address"
        }
      ],
      "name": "emergencyWithdrawAutoLiquidity",
      "outputs": [],
      "stateMutability": "nonpayable",
      "type": "function"
    },
    {
      "inputs": [
        {
          "internalType": "string",
          "name": "dexName",
          "type": "string"
        }
      ],
      "name": "getDEXRouter",
      "outputs": [
        {
          "components": [
            {
              "internalType": "string",
              "name": "name",
              "type": "string"
            },
            {
              "internalType": "address",
              "name": "router",
              "type": "address"
            },
            {
              "internalType": "bool",
              "name": "isActive",
              "type": "bool"
            }
          ],
          "internalType": "struct TokenFactory_v2_DirectDEX.DEXRouter",
          "name": "",
          "type": "tuple"
        }
      ],
      "stateMutability": "view",
      "type": "function"
    },
    {
      "inputs": [],
      "name": "getListingFee",
      "outputs": [
        {
          "internalType": "uint256",
          "name": "",
          "type": "uint256"
        }
      ],
      "stateMutability": "view",
      "type": "function"
    },
    {
      "inputs": [],
      "name": "getSupportedDEXes",
      "outputs": [
        {
          "internalType": "string[]",
          "name": "",
          "type": "string[]"
        }
      ],
      "stateMutability": "view",
      "type": "function"
    },
    {
      "inputs": [
        {
          "internalType": "address",
          "name": "token",
          "type": "address"
        }
      ],
      "name": "isListed",
      "outputs": [
        {
          "internalType": "bool",
          "name": "",
          "type": "bool"
        }
      ],
      "stateMutability": "view",
      "type": "function"
    },
    {
      "inputs": [
        {
          "internalType": "address",
          "name": "",
          "type": "address"
        }
      ],
      "name": "lastAutoLiquidityTime",
      "outputs": [
        {
          "internalType": "uint256",
          "name": "",
          "type": "uint256"
        }
      ],
      "stateMutability": "view",
      "type": "function"
    },
    {
      "inputs": [
        {
          "internalType": "address",
          "name": "",
          "type": "address"
        }
      ],
      "name": "listedTokens",
      "outputs": [
        {
          "internalType": "bool",
          "name": "",
          "type": "bool"
        }
      ],
      "stateMutability": "view",
      "type": "function"
    },
    {
      "inputs": [],
      "name": "listingFee",
      "outputs": [
        {
          "internalType": "uint256",
          "name": "",
          "type": "uint256"
        }
      ],
      "stateMutability": "view",
      "type": "function"
    },
    {
      "inputs": [],
      "name": "owner",
      "outputs": [
        {
          "internalType": "address",
          "name": "",
          "type": "address"
        }
      ],
      "stateMutability": "view",
      "type": "function"
    },
    {
      "inputs": [
        {
          "internalType": "address",
          "name": "",
          "type": "address"
        }
      ],
      "name": "pendingAutoLiquidity",
      "outputs": [
        {
          "internalType": "uint256",
          "name": "",
          "type": "uint256"
        }
      ],
      "stateMutability": "view",
      "type": "function"
    },
    {
      "inputs": [],
      "name": "renounceOwnership",
      "outputs": [],
      "stateMutability": "nonpayable",
      "type": "function"
    },
    {
      "inputs": [
        {
          "internalType": "bool",
          "name": "pause",
          "type": "bool"
        }
      ],
      "name": "setAutoLiquidityPause",
      "outputs": [],
      "stateMutability": "nonpayable",
      "type": "function"
    },
    {
      "inputs": [
        {
          "internalType": "uint256",
          "name": "_newFee",
          "type": "uint256"
        }
      ],
      "name": "setListingFee",
      "outputs": [],
      "stateMutability": "nonpayable",
      "type": "function"
    },
    {
      "inputs": [
        {
          "internalType": "uint256",
          "name": "",
          "type": "uint256"
        }
      ],
      "name": "supportedDEXes",
      "outputs": [
        {
          "internalType": "string",
          "name": "",
          "type": "string"
        }
      ],
      "stateMutability": "view",
      "type": "function"
    },
    {
      "inputs": [
        {
          "internalType": "address",
          "name": "",
          "type": "address"
        }
      ],
      "name": "tokenDEX",
      "outputs": [
        {
          "internalType": "string",
          "name": "",
          "type": "string"
        }
      ],
      "stateMutability": "view",
      "type": "function"
    },
    {
      "inputs": [
        {
          "internalType": "address",
          "name": "newOwner",
          "type": "address"
        }
      ],
      "name": "transferOwnership",
      "outputs": [],
      "stateMutability": "nonpayable",
      "type": "function"
    },
    {
      "inputs": [
        {
          "internalType": "string",
          "name": "name",
          "type": "string"
        },
        {
          "internalType": "address",
          "name": "router",
          "type": "address"
        },
        {
          "internalType": "bool",
          "name": "isActive",
          "type": "bool"
        }
      ],
      "name": "updateDEX",
      "outputs": [],
      "stateMutability": "nonpayable",
      "type": "function"
    },
    {
      "inputs": [],
      "name": "withdrawFees",
      "outputs": [],
      "stateMutability": "nonpayable",
      "type": "function"
    }
  ],
  "bytecode": "0x60803461009b57601f61414b38819003918201601f19168301916001600160401b038311848410176100a05780849260209460405283398101031261009b575160008054336001600160a01b0319821681178355604051939290916001600160a01b0316907f8be0079c531659141344cd1fd0a4f28419497f9722a3daafe3b4186f6b6457e09080a36001805560065561409490816100b78239f35b600080fd5b634e487b7160e01b600052604160045260246000fdfe608060405260043610156200001357600080fd5b6000803560e01c8063131dbd09146200196357806324b2982f14620016cc57806329df0db314620016ac57806334e62a91146200166f578063386e07bf1462001571578063476343ee146200151b578063497626bc14620014f65780634caf81f5146200149e5780635e7ffa6714620013fb57806361b9d4e314620013055780636a1b7ecc1462000a9f5780637093f47f146200019e578063715018a614620012a757806378e3399d14620011ca5780638da5cb5b14620011a157806394395b971462000e08578063961867701462000b5857806398a7d76e1462000b165780639e4e73181462000abf578063b8fe6abe1462000a9f578063c18f24d61462000382578063c7760305146200035e578063f2fde38b146200028c578063f53819e7146200021e578063f62aa78514620001e1578063f794062e146200019e5763ffa1ad74146200016257600080fd5b346200019b57806003193601126200019b57620001976200018262001c0e565b60405191829160208352602083019062001a0d565b0390f35b80fd5b50346200019b5760203660031901126200019b5760209060ff906040906001600160a01b03620001cd620019d1565b168152600484522054166040519015158152f35b50346200019b5760203660031901126200019b576020906040906001600160a01b036200020d620019d1565b168152600883522054604051908152f35b50346200019b5760203660031901126200019b57600435801515809103620002875760207fdeecdb5b2836e913f447ec910ca64a5a740262b60dfc4c04d1449cb2a5d76586916200026e62001e70565b60ff196009541660ff821617600955604051908152a180f35b600080fd5b50346200019b5760203660031901126200019b57620002aa620019d1565b620002b462001e70565b6001600160a01b039081169081156200030a57600054826bffffffffffffffffffffffff60a01b821617600055167f8be0079c531659141344cd1fd0a4f28419497f9722a3daafe3b4186f6b6457e0600080a380f35b60405162461bcd60e51b815260206004820152602660248201527f4f776e61626c653a206e6577206f776e657220697320746865207a65726f206160448201526564647265737360d01b6064820152608490fd5b50346200019b57806003193601126200019b576020604051662386f26fc100008152f35b5060031960203682011262000a9b576001600160401b036004351162000a9b576101e0600435600401916004353603011262000a9b57620003c262001ec9565b606490620003d860065483600435013562001cfc565b341062000a655760ff60016020620003f7610124600435018562001e26565b919082604051938492833781016002815203019020015460a01c161562000a2e57610144600435013515158062000a0b575b15620009c8576101846004350135151580620009a5575b1562000957576101c460043501351562000907576019620004826101c460043501356200047c6101846004350135610144600435013562001cfc565b62001cfc565b11620008ce5760016200049c610124600435018362001e26565b60405192918190843782019160028352602081838060a01b03940301902001541690620004ca818062001e26565b90620004dc6024600435018462001e26565b60043560e4013592918315158403620008ca57620005006101646004350162001e5b565b91620005126101a46004350162001e5b565b93604051968761213e8101106001600160401b0361213e8a011117620008b657916200055e889796959492620005759461213e62001f218b396101c061213e8b01818152019162001c9b565b9161213e88018303602061213e8a01015262001c9b565b600435604481013561213e8701604081019190915260a4820135606082015260c4820135608082015294151560a086015261010481013560c086015260e085018990526101448101356101008601526101848101356101208601526101c401356101408501526001600160a01b039182166101608501529116610180830152306101a090920191909152039085f08015620008ab57601460446004350135818102918183041490151715620008975760405163095ea7b360e01b81526001600160a01b03858116600483015291869004602482018190529290911693906020816044818a895af180156200088c5762000856575b5061012c420191824211620008425760405163f305d71960e01b81526001600160a01b03861660048201526024810191909152600060448201819052606482015230608482015260a48101929092526060908290818060c481010391886004350135905af18015620007fd576200080c575b50813b15620008085760405163f2fde38b60e01b8152336004820152848160248183875af18015620007fd57620007c9575b5062000798620007837f52b537b7efd09a072d62379791a3f242c784095aa9e11dbba910b624ecec68b892848752600460205260408720600160ff198254161790556200077562000765610124600435018362001e26565b90600560205260408a2062001d56565b610124600435019062001e26565b91906040519260808452608084019162001c9b565b9360043501356020820152608460043501356040820152610104600435013560608201528033940390a36001805580f35b6001600160401b038195929511620007e95760405292620007986200070d565b634e487b7160e01b82526041600452602482fd5b6040513d87823e3d90fd5b8380fd5b620008329060603d6060116200083a575b62000829818362001af1565b81019062001d3a565b5050620006db565b503d6200081d565b634e487b7160e01b87526011600452602487fd5b6200087c9060203d60201162000884575b62000873818362001af1565b81019062001d20565b503862000669565b503d62000867565b6040513d89823e3d90fd5b634e487b7160e01b86526011600452602486fd5b6040513d86823e3d90fd5b634e487b7160e01b8c52604160045260248cfd5b8880fd5b5060405162461bcd60e51b81526020600482015260136024820152720a8dee8c2d840cccacae640e8dede40d0d2ced606b1b6044820152fd5b60405162461bcd60e51b8152602060048201526024808201527f496e76616c6964206175746f2d6c697175696469747920636f6e6669677572616044820152633a34b7b760e11b81840152608490fd5b60405162461bcd60e51b815260206004820152602160248201527f496e76616c696420646576656c6f706d656e7420636f6e66696775726174696f6044820152603760f91b81840152608490fd5b506001600160a01b03620009bf6004356101a40162001e5b565b16151562000440565b5060405162461bcd60e51b815260206004820152601f60248201527f496e76616c6964206d61726b6574696e6720636f6e66696775726174696f6e006044820152fd5b506001600160a01b0362000a256004356101640162001e5b565b16151562000429565b5060405162461bcd60e51b8152602060048201526011602482015270444558206e6f7420617661696c61626c6560781b6044820152fd5b5060405162461bcd60e51b815260206004820152601060248201526f092dce6eaccccd2c6d2cadce8408aa8960831b6044820152fd5b5080fd5b50346200019b57806003193601126200019b576020600654604051908152f35b50346200019b57806003193601126200019b57602062000ade62001c0e565b60405162000b0b83828162000afd8183019687815193849201620019e8565b810103808452018262001af1565b519020604051908152f35b50346200019b5760203660031901126200019b57620001979062000182906040906001600160a01b0362000b49620019d1565b16815260056020522062001b13565b50346200019b5760403660031901126200019b576001600160401b039060043582811162000a9b5762000b909036906004016200198a565b62000b9a620019ba565b62000ba462001e70565b604051809183858337838201966002885260018060a01b038098600194859160209788910301902001541662000dce576040519762000be38962001abf565b62000bf036878962001bc4565b895280858a019316988984526040810192858452604051888a823787818a810160028152030190209151805191821162000dba5790829162000c408262000c398a965462001a82565b8562001c40565b88908c601f841160011462000d53579183929162000c739462000d47575b50508160011b916000199060031b1c19161790565b81555b0192511682549160ff60a01b9051151560a01b16916affffffffffffffffffffff60a81b1617179055600354906801000000000000000082101562000d3357810160035562000cc59062001a34565b95909562000d1f5762000cfc83857fdc80caac0fc930b05b1b5c1f27f1b45d60b2fa42a563cfaa28619f76da9efccc979862001d56565b62000d1560405194859460408652604086019162001c9b565b918301520390a180f35b634e487b7160e01b85526004859052602485fd5b634e487b7160e01b86526041600452602486fd5b01519050388062000c5e565b9190601f1984168584528b8420935b8c82821062000da3575050908487959493921062000d89575b505050811b01815562000c76565b015160001960f88460031b161c1916905538808062000d7b565b8385015186558c9890950194938401930162000d62565b634e487b7160e01b8b52604160045260248bfd5b60405162461bcd60e51b815260048101859052601260248201527144455820616c72656164792065786973747360701b6044820152606490fd5b50346200019b57602090816003193601126200019b5762000e28620019d1565b9162000e3362001ec9565b60ff600954166200115d576001600160a01b038381168084526004835260408420549092919062000e679060ff1662001cbc565b82845260078252604084205462015180810180911162001149574210620011125782845260088252662386f26fc10000604085205410620010db57828452600882526040842090848254925560058352600162000ee08462000ecc6040892062001b13565b8160405193828580945193849201620019e8565b81016002815203019020015416604051906370a0823160e01b82523060048301528382602481885afa91821562001030578692620010a2575b5081156200105d5760405163095ea7b360e01b81526001600160a01b03821660048201526024810183905284816044818a8a5af180156200088c576200103b575b5061012c420196874211620008425760405163f305d71960e01b81526001600160a01b0391909116600482015260248101839052600060448201819052606482015230608482015260a481019790975294959394606090859060c490829086905af192831562001030577fa3dc3c61726a3dcbfbf5e604e78601d94669869d8c674de770969de80d7aff12946040946200100c575b508587526007815242848820558351928352820152a26001805580f35b620010289060603d6060116200083a5762000829818362001af1565b505062000fef565b6040513d88823e3d90fd5b6200105590853d8711620008845762000873818362001af1565b503862000f5a565b60405162461bcd60e51b815260048101859052601760248201527f4e6f20746f6b656e7320666f72206c69717569646974790000000000000000006044820152606490fd5b9091508381813d8311620010d3575b620010bd818362001af1565b81010312620010cf5751903862000f19565b8580fd5b503d620010b1565b60405162461bcd60e51b815260048101839052600f60248201526e10995b1bddc81d1a1c995cda1bdb19608a1b6044820152606490fd5b60405162461bcd60e51b815260048101839052600f60248201526e436f6f6c646f776e2061637469766560881b6044820152606490fd5b634e487b7160e01b85526011600452602485fd5b6064906040519062461bcd60e51b82526004820152601860248201527f4175746f2d6c69717569646974792069732070617573656400000000000000006044820152fd5b50346200019b57806003193601126200019b57546040516001600160a01b039091168152602090f35b50346200019b5760208060031936011262000a9b576004356001600160401b038111620012a35791816200120560609436906004016200198a565b9260408051620012158162001abf565b878152828582015201528260405193849283378101600281520301902090600160405192620012448462001abf565b6200124f8162001b13565b8452015460018060a01b036200128f83850193828416855260ff604087019460a01c16151584526040519687968288525191870152608086019062001a0d565b925116604084015251151560608301520390f35b8280fd5b50346200019b57806003193601126200019b57620012c462001e70565b80546001600160a01b03198116825581906001600160a01b03167f8be0079c531659141344cd1fd0a4f28419497f9722a3daafe3b4186f6b6457e08280a380f35b50346200019b5760208060031936011262000a9b5762001324620019d1565b6200132e62001e70565b6001600160a01b03908116808452600483526040842054909290620013569060ff1662001cbc565b828452600881526040842054918215620013bf578480808581948883526008875282604081205582541682f115620013b4577f5e611ef8160e562940cc0953aa9ce7048ae3395a4aa42242b7f7751e7f9be12c91604051908152a280f35b6040513d85823e3d90fd5b60405162461bcd60e51b81526004810183905260146024820152734e6f2070656e64696e67206c697175696469747960601b6044820152606490fd5b50346200019b5760203660031901126200019b57600435906001600160401b0382116200019b57366023830112156200019b576200147d6200144c602062000ecc3660048701356024880162001bc4565b810160028152030190206001620014638262001b13565b91015460ff60405193849360608552606085019062001a0d565b6001600160a01b038316602085015260a09290921c16151560408301520390f35b50346200019b5760203660031901126200019b5760043560035481101562000a9b57620014cb9062001a34565b919091620014e25762000197620001828362001b13565b634e487b7160e01b81526004819052602490fd5b50346200019b57806003193601126200019b57602060ff600954166040519015158152f35b50346200019b57806003193601126200019b576200153862001e70565b8080808060018060a01b03815416479082821562001567575bf1156200155b5780f35b604051903d90823e3d90fd5b506108fc62001551565b50346200019b57806003193601126200019b576003546001600160401b038111620007e9579060209160405191620015af848360051b018462001af1565b8183526003815283830191817fc2575a0e9e593c00f959f8c92f12db2869c3395a3b0502d05e2516446f71f85b845b838310620016485750505050604051928484019085855251809152604084019460408260051b8601019392955b828710620016195785850386f35b90919293828062001637600193603f198a8203018652885162001a0d565b96019201960195929190926200160b565b60018881926200165c859b9a989b62001b13565b81520192019201919096939596620015de565b50346200019b5760203660031901126200019b576020906040906001600160a01b036200169b620019d1565b168152600783522054604051908152f35b50346200019b57806003193601126200019b576020604051620151808152f35b50346200019b5760603660031901126200019b576001600160401b039060043582811162000a9b57620017049036906004016200198a565b6200170e620019ba565b60443580151581036200195f576200172562001e70565b6040518385823760028185019081528190036020019020600101546001600160a01b0316156200192a576040516200175d8162001abf565b6200176a36858762001bc4565b81526001600160a01b038316602082015281151560408083019190915251848682376020818681016002815203019020815180519889116200191657620017be89620017b7845462001a82565b8462001c40565b602090601f8a11600114620018865789899a6001949362001816937ffcc670ef83a2ab18fa316fd1535402582ad1c325995f34b0f96faeb21d0ef9eb9c9262000d475750508160011b916000199060031b1c19161790565b81555b019060018060a01b03602082015116825491604060ff60a01b910151151560a01b16916affffffffffffffffffffff60a81b16171790556200186960405194859460608652606086019162001c9b565b6001600160a01b039092166020840152151560408301520390a180f35b908289526020892091895b601f198c168110620018fd5750996001939284927ffcc670ef83a2ab18fa316fd1535402582ad1c325995f34b0f96faeb21d0ef9eb9b9c83601f19811610620018e3575b505050811b01815562001819565b015160001960f88460031b161c19169055388080620018d5565b9192602060018192868501518155019401920162001891565b634e487b7160e01b88526041600452602488fd5b60405162461bcd60e51b815260206004820152600d60248201526c111156081b9bdd08199bdd5b99609a1b6044820152606490fd5b8480fd5b50346200019b5760203660031901126200019b576200198162001e70565b60043560065580f35b9181601f8401121562000287578235916001600160401b0383116200028757602083818601950101116200028757565b602435906001600160a01b03821682036200028757565b600435906001600160a01b03821682036200028757565b60005b838110620019fc5750506000910152565b8181015183820152602001620019eb565b9060209162001a2881518092818552858086019101620019e8565b601f01601f1916010190565b60035481101562001a6c5760036000527fc2575a0e9e593c00f959f8c92f12db2869c3395a3b0502d05e2516446f71f85b0190600090565b634e487b7160e01b600052603260045260246000fd5b90600182811c9216801562001ab4575b602083101462001a9e57565b634e487b7160e01b600052602260045260246000fd5b91607f169162001a92565b606081019081106001600160401b0382111762001adb57604052565b634e487b7160e01b600052604160045260246000fd5b90601f801991011681019081106001600160401b0382111762001adb57604052565b9060405191826000825462001b288162001a82565b9081845260209460019160018116908160001462001ba0575060011462001b5d575b50505062001b5b9250038362001af1565b565b600090815285812095935091905b81831062001b8757505062001b5b935082010138808062001b4a565b8554888401850152948501948794509183019162001b6b565b9250505062001b5b94925060ff191682840152151560051b82010138808062001b4a565b9291926001600160401b03821162001adb576040519162001bf0601f8201601f19166020018462001af1565b82948184528183011162000287578281602093846000960137010152565b60405190604082018281106001600160401b0382111762001adb5760405260058252640322e302e360dc1b6020830152565b90601f811162001c4f57505050565b6000916000526020600020906020601f850160051c8301941062001c90575b601f0160051c01915b82811062001c8457505050565b81815560010162001c77565b909250829062001c6e565b908060209392818452848401376000828201840152601f01601f1916010190565b1562001cc457565b60405162461bcd60e51b815260206004820152601060248201526f151bdad95b881b9bdd081b1a5cdd195960821b6044820152606490fd5b9190820180921162001d0a57565b634e487b7160e01b600052601160045260246000fd5b908160209103126200028757518015158103620002875790565b9081606091031262000287578051916040602083015192015190565b9092916001600160401b03811162001adb5762001d7981620017b7845462001a82565b6000601f821160011462001dbd57819062001dad93949560009262001db15750508160011b916000199060031b1c19161790565b9055565b01359050388062000c5e565b601f19821694838252602091602081209281905b88821062001e0d5750508360019596971062001df2575b505050811b019055565b0135600019600384901b60f8161c1916905538808062001de8565b8060018496829495870135815501950192019062001dd1565b903590601e19813603018212156200028757018035906001600160401b03821162000287576020019181360383136200028757565b356001600160a01b0381168103620002875790565b6000546001600160a01b0316330362001e8557565b606460405162461bcd60e51b815260206004820152602060248201527f4f776e61626c653a2063616c6c6572206973206e6f7420746865206f776e65726044820152fd5b60026001541462001edb576002600155565b60405162461bcd60e51b815260206004820152601f60248201527f5265656e7472616e637947756172643a207265656e7472616e742063616c6c006044820152606490fdfe6080604052346200084d576200213e803803806200001d8162000852565b9283398101906101c0818303126200084d5780516001600160401b0381116200084d57826200004e91830162000878565b602082015190926001600160401b0382116200084d576200007191830162000878565b9160408201519160608101519260808201519460a08301519586151587036200084d5760c0840151620000a760e08601620008ea565b92610100860151906101208701519261014088015194620000cc6101608a01620008ea565b92620000eb6101a0620000e36101808d01620008ea565b9b01620008ea565b8b51909b6001600160401b0382116200071c5760035490600182811c9216801562000842575b6020831014620006fb5781601f849311620007cd575b50602090601f83116001146200073e5760009262000732575b50508160011b916000199060031b1c1916176003555b8051906001600160401b0382116200071c5760045490600182811c9216801562000711575b6020831014620006fb5781601f84931162000689575b50602090601f8311600114620005fa57600092620005ee575b50508160011b916000199060031b1c1916176004555b620001cb3362000923565b600160065587156200059d57878b116200053e57878111620004e45760196200020087620001fa8888620008ff565b620008ff565b116200049f576001600160a01b039283169889156200044a578316998a15620003f35783169a8b1562000399573315620003545788620002448d9a600254620008ff565b600255336000526000602052604060002081815401905560405190815260007fddf252ad1be2c89b69c2b068fc378daa952ba7f163c4a11628f55a4df523b3ef60203393a3600955600a5560ff199a60ff8c60075416911515161760075560085560018060a01b0319941684600b541617600b55600d55600e55600f55828160105416176010558381601154161760115560125416176012553360005260136020526040600020600185825416179055306000526040600020600185825416179055600052604060002060018482541617905560005260406000206001838254161790556000526001604060002091825416179055620003443362000923565b6040516117d190816200096d8239f35b60405162461bcd60e51b815260206004820152601f60248201527f45524332303a206d696e7420746f20746865207a65726f2061646472657373006044820152606490fd5b60405162461bcd60e51b815260206004820152602c60248201527f4175746f2d6c69717569646974792077616c6c65742063616e6e6f742062652060448201526b7a65726f206164647265737360a01b6064820152608490fd5b60405162461bcd60e51b815260206004820152602960248201527f446576656c6f706d656e742077616c6c65742063616e6e6f74206265207a65726044820152686f206164647265737360b81b6064820152608490fd5b60405162461bcd60e51b815260206004820152602760248201527f4d61726b6574696e672077616c6c65742063616e6e6f74206265207a65726f206044820152666164647265737360c81b6064820152608490fd5b60405162461bcd60e51b815260206004820152601c60248201527f546f74616c20666565732063616e6e6f742065786365656420323525000000006044820152606490fd5b60405162461bcd60e51b815260206004820152602c60248201527f4d61782077616c6c657420616d6f756e742063616e6e6f74206578636565642060448201526b746f74616c20737570706c7960a01b6064820152608490fd5b60405162461bcd60e51b815260206004820152603160248201527f4d6178207472616e73616374696f6e20616d6f756e742063616e6e6f742065786044820152706365656420746f74616c20737570706c7960781b6064820152608490fd5b60405162461bcd60e51b815260206004820152602360248201527f546f74616c20737570706c79206d75737420626520677265617465722074686160448201526206e20360ec1b6064820152608490fd5b015190503880620001aa565b6004600090815293507f8a35acfbc15ff81a39ae7d344fd709f28e8600b4aa8c65c6b64bfe7fe36bd19b91905b601f19841685106200066d576001945083601f1981161062000653575b505050811b01600455620001c0565b015160001960f88460031b161c1916905538808062000644565b8181015183556020948501946001909301929091019062000627565b60046000529091507f8a35acfbc15ff81a39ae7d344fd709f28e8600b4aa8c65c6b64bfe7fe36bd19b601f840160051c810160208510620006f3575b90849392915b601f830160051c82018110620006e357505062000191565b60008155859450600101620006cb565b5080620006c5565b634e487b7160e01b600052602260045260246000fd5b91607f16916200017b565b634e487b7160e01b600052604160045260246000fd5b01519050388062000140565b6003600090815293507fc2575a0e9e593c00f959f8c92f12db2869c3395a3b0502d05e2516446f71f85b91905b601f1984168510620007b1576001945083601f1981161062000797575b505050811b0160035562000156565b015160001960f88460031b161c1916905538808062000788565b818101518355602094850194600190930192909101906200076b565b60036000529091507fc2575a0e9e593c00f959f8c92f12db2869c3395a3b0502d05e2516446f71f85b601f840160051c8101916020851062000837575b90601f859493920160051c01905b81811062000827575062000127565b6000815584935060010162000818565b90915081906200080a565b91607f169162000111565b600080fd5b6040519190601f01601f191682016001600160401b038111838210176200071c57604052565b919080601f840112156200084d5782516001600160401b0381116200071c57602090620008ae601f8201601f1916830162000852565b928184528282870101116200084d5760005b818110620008d657508260009394955001015290565b8581018301518482018401528201620008c0565b51906001600160a01b03821682036200084d57565b919082018092116200090d57565b634e487b7160e01b600052601160045260246000fd5b600580546001600160a01b039283166001600160a01b0319821681179092559091167f8be0079c531659141344cd1fd0a4f28419497f9722a3daafe3b4186f6b6457e0600080a356fe608060408181526004918236101561001657600080fd5b600092833560e01c91826306fdde0314610d92575081630758d92414610d69578163095ea7b314610d3f5781630c439f9314610d16578163153b0d1e14610c9657816318160ddd14610c7757816323b872dd14610bad57816327a14fc214610b46578163313ce56714610b2a5781633950935114610ada5781634ada218b14610ab65781635e29879014610a97578163606e1b8114610a7a57816370a0823114610a3757816370b7b80c14610a18578163715018a6146109bb57816375cb1bd1146108de57816375f0a874146108b557816380ada68a146108965781638a8c523c146107df5781638c0b5e22146107c05781638da5cb5b1461079757816395d89b41146106925781639e4e7318146106575781639f7b0ed514610614578163a457c2d71461056c578163a9059cbb1461053b578163aa4bde281461051c578163c04a5414146104f3578163c1a68121146104b5578163dd62ed3e1461046c578163de37610e1461044d578163e9dae5ed14610382578163ec28438a1461031b578163f242ab41146102f2578163f2fde38b1461022257508063fe575a87146101e55763ffa1ad74146101c757600080fd5b346101e157816003193601126101e1576020905160028152f35b5080fd5b50346101e15760203660031901126101e15760209160ff9082906001600160a01b0361020f610ed0565b1681526014855220541690519015158152f35b9050346102ee5760203660031901126102ee5761023d610ed0565b9061024661116d565b6001600160a01b0391821692831561029c575050600554826bffffffffffffffffffffffff60a01b821617600555167f8be0079c531659141344cd1fd0a4f28419497f9722a3daafe3b4186f6b6457e08380a380f35b906020608492519162461bcd60e51b8352820152602660248201527f4f776e61626c653a206e6577206f776e657220697320746865207a65726f206160448201526564647265737360d01b6064820152fd5b8280fd5b5050346101e157816003193601126101e157600c5490516001600160a01b039091168152602090f35b9050346102ee5760203660031901126102ee577f947f344d56e1e8c70dc492fb94c4ddddd490c016aab685f5e7e47b2e85cb44cf91602091359061035d61116d565b610368821515610fa6565b610376600254831115610ff2565b8160095551908152a180f35b839150346101e15760603660031901126101e157803560243590604435926103a861116d565b60196103bd856103b88686611048565b611048565b1161040a57506104017f08a9cbb7bd5bab504d3fc44931790235ee0c3011feecaa62967a37e3f934146b936103b8602094848995600d5581600e5583600f55611048565b9051908152a180f35b606490602087519162461bcd60e51b8352820152601c60248201527f546f74616c20666565732063616e6e6f742065786365656420323525000000006044820152fd5b5050346101e157816003193601126101e157602090600f549051908152f35b5050346101e157806003193601126101e1578060209261048a610ed0565b610492610eeb565b6001600160a01b0391821683526001865283832091168252845220549051908152f35b5050346101e15760203660031901126101e15760209160ff9082906001600160a01b036104e0610ed0565b1681526013855220541690519015158152f35b5050346101e157816003193601126101e15760115490516001600160a01b039091168152602090f35b5050346101e157816003193601126101e157602090600a549051908152f35b5050346101e157806003193601126101e15760209061056561055b610ed0565b60243590336111d8565b5160018152f35b90508234610611578260031936011261061157610587610ed0565b918360243592338152600160205281812060018060a01b03861682526020522054908282106105c057602085610565858503873361106b565b608490602086519162461bcd60e51b8352820152602560248201527f45524332303a2064656372656173656420616c6c6f77616e63652062656c6f77604482015264207a65726f60d81b6064820152fd5b80fd5b5050346101e1576106549061062836610f01565b919061063261116d565b60018060a01b03168452601360205283209060ff801983541691151516179055565b80f35b5050346101e157816003193601126101e157602090517f97831d354a6f8b80f2034ecb74ded90addda670141f845b47bcbb8c109be18a28152f35b8383346101e157816003193601126101e15780519180938054916001908360011c926001851694851561078d575b602095868610811461077a5785895290811561075657506001146106fe575b6106fa87876106f0828c0383610f30565b5191829182610e87565b0390f35b81529295507f8a35acfbc15ff81a39ae7d344fd709f28e8600b4aa8c65c6b64bfe7fe36bd19b5b82841061074357505050826106fa946106f0928201019486806106df565b8054868501880152928601928101610725565b60ff19168887015250505050151560051b83010192506106f0826106fa86806106df565b634e487b7160e01b845260228352602484fd5b93607f16936106c0565b5050346101e157816003193601126101e15760055490516001600160a01b039091168152602090f35b5050346101e157816003193601126101e1576020906009549051908152f35b9050346102ee57826003193601126102ee576107f961116d565b6007549060ff8216610853575060ff19166001176007556008547fb3da2db3dfc3778f99852546c6e9ab39ec253f9de7b0847afec61bd27878e923916020911561084a575b6008549051908152a180f35b4260085561083e565b606490602084519162461bcd60e51b8352820152601760248201527f54726164696e6720616c726561647920656e61626c65640000000000000000006044820152fd5b5050346101e157816003193601126101e157602090600d549051908152f35b5050346101e157816003193601126101e15760105490516001600160a01b039091168152602090f35b5050346101e15760603660031901126101e1576108f9610ed0565b610901610eeb565b916001600160a01b039060443582811691908290036109b7577f2d4c6aa48812a0ea09474a961613c1a3ae652d39a1580cb1ac46ff277e6d385d94828460609661094961116d565b1694851515806109ac575b806109a3575b61096390610f68565b6bffffffffffffffffffffffff60a01b9286846010541617601055169182816011541617601155601254161760125581519384526020840152820152a180f35b5081151561095a565b508083161515610954565b8580fd5b83346106115780600319360112610611576109d461116d565b600580546001600160a01b0319811690915581906001600160a01b03167f8be0079c531659141344cd1fd0a4f28419497f9722a3daafe3b4186f6b6457e08280a380f35b5050346101e157816003193601126101e1576020906008549051908152f35b5050346101e15760203660031901126101e157602090610a73610a58610ed0565b6001600160a01b031660009081526020819052604090205490565b9051908152f35b5050346101e157816003193601126101e157602090516103e88152f35b5050346101e157816003193601126101e157602090600e549051908152f35b5050346101e157816003193601126101e15760209060ff6007541690519015158152f35b5050346101e157806003193601126101e157610565602092610b23610afd610ed0565b338352600186528483206001600160a01b03821684528652918490205460243590611048565b903361106b565b5050346101e157816003193601126101e1576020905160128152f35b9050346102ee5760203660031901126102ee577f4b39c36d20c57d220f61fd25c4349d4435cc03ef6c2a680942f15333c3c3e001916020913590610b8861116d565b610b93821515610fa6565b610ba1600254831115610ff2565b81600a5551908152a180f35b839150346101e15760603660031901126101e157610bc9610ed0565b610bd1610eeb565b91846044359460018060a01b038416815260016020528181203382526020522054906000198203610c0b575b6020866105658787876111d8565b848210610c345750918391610c29602096956105659503338361106b565b919394819350610bfd565b606490602087519162461bcd60e51b8352820152601d60248201527f45524332303a20696e73756666696369656e7420616c6c6f77616e63650000006044820152fd5b5050346101e157816003193601126101e1576020906002549051908152f35b5050346101e1577f6a12b3df6cba4203bd7fd06b816789f87de8c594299aed5717ae070fac781bac90610cc836610f01565b90610cd161116d565b6001600160a01b031690610ce6821515610f68565b8185526014602052610d06818487209060ff801983541691151516179055565b825191825215156020820152a180f35b5050346101e157816003193601126101e15760125490516001600160a01b039091168152602090f35b5050346101e157806003193601126101e157602090610565610d5f610ed0565b602435903361106b565b5050346101e157816003193601126101e157600b5490516001600160a01b039091168152602090f35b92915034610e835783600319360112610e8357600354600181811c9186908281168015610e79575b6020958686108214610e665750848852908115610e445750600114610deb575b6106fa86866106f0828b0383610f30565b929550600383527fc2575a0e9e593c00f959f8c92f12db2869c3395a3b0502d05e2516446f71f85b5b828410610e3157505050826106fa946106f0928201019438610dda565b8054868501880152928601928101610e14565b60ff191687860152505050151560051b83010192506106f0826106fa38610dda565b634e487b7160e01b845260229052602483fd5b93607f1693610dba565b8380fd5b6020808252825181830181905290939260005b828110610ebc57505060409293506000838284010152601f8019910116010190565b818101860151848201604001528501610e9a565b600435906001600160a01b0382168203610ee657565b600080fd5b602435906001600160a01b0382168203610ee657565b6040906003190112610ee6576004356001600160a01b0381168103610ee657906024358015158103610ee65790565b90601f8019910116810190811067ffffffffffffffff821117610f5257604052565b634e487b7160e01b600052604160045260246000fd5b15610f6f57565b60405162461bcd60e51b815260206004820152600f60248201526e496e76616c6964206164647265737360881b6044820152606490fd5b15610fad57565b60405162461bcd60e51b815260206004820152601d60248201527f416d6f756e74206d7573742062652067726561746572207468616e20300000006044820152606490fd5b15610ff957565b60405162461bcd60e51b815260206004820152602160248201527f416d6f756e742063616e6e6f742065786365656420746f74616c20737570706c6044820152607960f81b6064820152608490fd5b9190820180921161105557565b634e487b7160e01b600052601160045260246000fd5b6001600160a01b0390811691821561111c57169182156110cc5760207f8c5be1e5ebec7d5bd14f71427d1e84f3dd0314c0f7b2291e5b200ac8c7c3b925918360005260018252604060002085600052825280604060002055604051908152a3565b60405162461bcd60e51b815260206004820152602260248201527f45524332303a20617070726f766520746f20746865207a65726f206164647265604482015261737360f01b6064820152608490fd5b60405162461bcd60e51b8152602060048201526024808201527f45524332303a20617070726f76652066726f6d20746865207a65726f206164646044820152637265737360e01b6064820152608490fd5b6005546001600160a01b0316330361118157565b606460405162461bcd60e51b815260206004820152602060248201527f4f776e61626c653a2063616c6c6572206973206e6f7420746865206f776e65726044820152fd5b8181029291811591840414171561105557565b92919060009360018060a01b0394858216958682526020906014825260ff604091818386205416158061161b575b156115e157816007541680156115d4575b80156115c5575b1561158b5760085480611545575b5060095480151580611531575b8061151b575b6114cb575b50600a54801515806114b5575b611451575b5080600c541681881690808214908115611447575b50611284575b50505050505061128293945061162d565b565b859a606461129a600d9b999b989798548a6111c5565b049360646112aa600e548b6111c5565b049760646112ba600f548c6111c5565b04956112ca876103b88c84611048565b998d8b61130d575b505050505050505050505081039081116112f9576112829394509184933880808080611271565b634e487b7160e01b85526011600452602485fd5b61132b926113209189601054169061162d565b60115487168e61162d565b8515159283611432575b508261141c575b505061134e575b80808080808d6112d2565b61135d8383601254168b61162d565b81600c541614806113f0575b611374575b80611343565b60125416803b15610e8357604484928451958693849263d3f2036b60e01b845230600485015260011c60248401525af180156113e6576113b7575b80889261136e565b67ffffffffffffffff82989398116113d257529438806113af565b634e487b7160e01b83526041600452602483fd5b81513d8a823e3d90fd5b506103e8611415826012541660018060a01b0316600052600060205260406000205490565b1015611369565b601391925083885252848620541615388061133c565b88526013815286882054821615925038611335565b90508b143861126b565b81881686528585526114668985882054611048565b116114715738611256565b825162461bcd60e51b815260048101859052601960248201527f45786365656473206d61782077616c6c657420616d6f756e74000000000000006044820152606490fd5b5081881686526013855282848720541615611251565b88116114d75738611244565b825162461bcd60e51b815260048101859052601e60248201527f45786365656473206d6178207472616e73616374696f6e20616d6f756e7400006044820152606490fd5b508188168652601385528284872054161561123f565b508a86526013855282848720541615611239565b4210611551573861122c565b825162461bcd60e51b8152600481018590526013602482015272151c98591a5b99c81b9bdd081cdd185c9d1959606a1b6044820152606490fd5b825162461bcd60e51b8152600481018590526013602482015272151c98591a5b99c81b9bdd08195b98589b1959606a1b6044820152606490fd5b5080600554168188161461121e565b5080600554168a14611217565b825162461bcd60e51b8152600481018590526013602482015272426c61636b6c6973746564206164647265737360681b6044820152606490fd5b50808716855281838620541615611206565b6001600160a01b0390811691821561174857169182156116f7576000828152806020526040812054918083106116a357604082827fddf252ad1be2c89b69c2b068fc378daa952ba7f163c4a11628f55a4df523b3ef958760209652828652038282205586815220818154019055604051908152a3565b60405162461bcd60e51b815260206004820152602660248201527f45524332303a207472616e7366657220616d6f756e7420657863656564732062604482015265616c616e636560d01b6064820152608490fd5b60405162461bcd60e51b815260206004820152602360248201527f45524332303a207472616e7366657220746f20746865207a65726f206164647260448201526265737360e81b6064820152608490fd5b60405162461bcd60e51b815260206004820152602560248201527f45524332303a207472616e736665722066726f6d20746865207a65726f206164604482015264647265737360d81b6064820152608490fdfea2646970667358221220d3a65f5d02620f4bb67abbd0652ba30192260479c7a42773ff99503ab18997e164736f6c63430008160033a2646970667358221220e8f7b78ad9192fd9945dcba4cf262b823caec0a2356145f04d824b19b5dddda764736f6c63430008160033",
  "linkReferences": {},
  "deployedLinkReferences": {}
}