{
  "_format": "hh-sol-artifact-1",
  "contractName": "TokenFactory_v2_DirectDEX",
  "sourceName": "src/contracts/TokenFactory_v2_DirectDEX.sol",
  "abi": [
    {
      "inputs": [
        {
          "internalType": "uint256",
          "name": "_listingFee",
          "type": "uint256"
        }
      ],
      "stateMutability": "nonpayable",
      "type": "constructor"
    },
    {
      "anonymous": false,
      "inputs": [
        {
          "indexed": false,
          "internalType": "string",
          "name": "name",
          "type": "string"
        },
        {
          "indexed": false,
          "internalType": "address",
          "name": "router",
          "type": "address"
        }
      ],
      "name": "DEXAdded",
      "type": "event"
    },
    {
      "anonymous": false,
      "inputs": [
        {
          "indexed": false,
          "internalType": "string",
          "name": "name",
          "type": "string"
        },
        {
          "indexed": false,
          "internalType": "address",
          "name": "router",
          "type": "address"
        },
        {
          "indexed": false,
          "internalType": "bool",
          "name": "isActive",
          "type": "bool"
        }
      ],
      "name": "DEXUpdated",
      "type": "event"
    },
    {
      "anonymous": false,
      "inputs": [
        {
          "indexed": true,
          "internalType": "address",
          "name": "previousOwner",
          "type": "address"
        },
        {
          "indexed": true,
          "internalType": "address",
          "name": "newOwner",
          "type": "address"
        }
      ],
      "name": "OwnershipTransferred",
      "type": "event"
    },
    {
      "anonymous": false,
      "inputs": [
        {
          "indexed": true,
          "internalType": "address",
          "name": "token",
          "type": "address"
        },
        {
          "indexed": true,
          "internalType": "address",
          "name": "owner",
          "type": "address"
        },
        {
          "indexed": false,
          "internalType": "string",
          "name": "dexName",
          "type": "string"
        },
        {
          "indexed": false,
          "internalType": "uint256",
          "name": "initialLiquidity",
          "type": "uint256"
        },
        {
          "indexed": false,
          "internalType": "uint256",
          "name": "listingPrice",
          "type": "uint256"
        },
        {
          "indexed": false,
          "internalType": "uint256",
          "name": "tradingStartTime",
          "type": "uint256"
        }
      ],
      "name": "TokenListed",
      "type": "event"
    },
    {
      "inputs": [],
      "name": "VERSION",
      "outputs": [
        {
          "internalType": "string",
          "name": "",
          "type": "string"
        }
      ],
      "stateMutability": "view",
      "type": "function"
    },
    {
      "inputs": [],
      "name": "VERSION_HASH",
      "outputs": [
        {
          "internalType": "bytes32",
          "name": "",
          "type": "bytes32"
        }
      ],
      "stateMutability": "view",
      "type": "function"
    },
    {
      "inputs": [
        {
          "internalType": "string",
          "name": "name",
          "type": "string"
        },
        {
          "internalType": "address",
          "name": "router",
          "type": "address"
        }
      ],
      "name": "addDEX",
      "outputs": [],
      "stateMutability": "nonpayable",
      "type": "function"
    },
    {
      "inputs": [
        {
          "components": [
            {
              "internalType": "string",
              "name": "name",
              "type": "string"
            },
            {
              "internalType": "string",
              "name": "symbol",
              "type": "string"
            },
            {
              "internalType": "uint256",
              "name": "totalSupply",
              "type": "uint256"
            },
            {
              "internalType": "uint256",
              "name": "initialLiquidityInETH",
              "type": "uint256"
            },
            {
              "internalType": "uint256",
              "name": "listingPriceInETH",
              "type": "uint256"
            },
            {
              "internalType": "uint256",
              "name": "maxTxAmount",
              "type": "uint256"
            },
            {
              "internalType": "uint256",
              "name": "maxWalletAmount",
              "type": "uint256"
            },
            {
              "internalType": "bool",
              "name": "enableTrading",
              "type": "bool"
            },
            {
              "internalType": "uint256",
              "name": "tradingStartTime",
              "type": "uint256"
            },
            {
              "internalType": "string",
              "name": "dexName",
              "type": "string"
            },
            {
              "internalType": "bool",
              "name": "enableBuyTax",
              "type": "bool"
            },
            {
              "internalType": "bool",
              "name": "enableSellTax",
              "type": "bool"
            },
            {
              "internalType": "uint256",
              "name": "buyTaxPercentage",
              "type": "uint256"
            },
            {
              "internalType": "uint256",
              "name": "sellTaxPercentage",
              "type": "uint256"
            }
          ],
          "internalType": "struct TokenFactory_v2_DirectDEX.ListingParams",
          "name": "params",
          "type": "tuple"
        }
      ],
      "name": "createAndListToken",
      "outputs": [],
      "stateMutability": "payable",
      "type": "function"
    },
    {
      "inputs": [
        {
          "internalType": "string",
          "name": "",
          "type": "string"
        }
      ],
      "name": "dexRouters",
      "outputs": [
        {
          "internalType": "string",
          "name": "name",
          "type": "string"
        },
        {
          "internalType": "address",
          "name": "router",
          "type": "address"
        },
        {
          "internalType": "bool",
          "name": "isActive",
          "type": "bool"
        }
      ],
      "stateMutability": "view",
      "type": "function"
    },
    {
      "inputs": [
        {
          "internalType": "string",
          "name": "dexName",
          "type": "string"
        }
      ],
      "name": "getDEXRouter",
      "outputs": [
        {
          "components": [
            {
              "internalType": "string",
              "name": "name",
              "type": "string"
            },
            {
              "internalType": "address",
              "name": "router",
              "type": "address"
            },
            {
              "internalType": "bool",
              "name": "isActive",
              "type": "bool"
            }
          ],
          "internalType": "struct TokenFactory_v2_DirectDEX.DEXRouter",
          "name": "",
          "type": "tuple"
        }
      ],
      "stateMutability": "view",
      "type": "function"
    },
    {
      "inputs": [],
      "name": "getListingFee",
      "outputs": [
        {
          "internalType": "uint256",
          "name": "",
          "type": "uint256"
        }
      ],
      "stateMutability": "view",
      "type": "function"
    },
    {
      "inputs": [],
      "name": "getSupportedDEXes",
      "outputs": [
        {
          "internalType": "string[]",
          "name": "",
          "type": "string[]"
        }
      ],
      "stateMutability": "view",
      "type": "function"
    },
    {
      "inputs": [
        {
          "internalType": "address",
          "name": "token",
          "type": "address"
        }
      ],
      "name": "isListed",
      "outputs": [
        {
          "internalType": "bool",
          "name": "",
          "type": "bool"
        }
      ],
      "stateMutability": "view",
      "type": "function"
    },
    {
      "inputs": [
        {
          "internalType": "address",
          "name": "",
          "type": "address"
        }
      ],
      "name": "listedTokens",
      "outputs": [
        {
          "internalType": "bool",
          "name": "",
          "type": "bool"
        }
      ],
      "stateMutability": "view",
      "type": "function"
    },
    {
      "inputs": [],
      "name": "listingFee",
      "outputs": [
        {
          "internalType": "uint256",
          "name": "",
          "type": "uint256"
        }
      ],
      "stateMutability": "view",
      "type": "function"
    },
    {
      "inputs": [],
      "name": "owner",
      "outputs": [
        {
          "internalType": "address",
          "name": "",
          "type": "address"
        }
      ],
      "stateMutability": "view",
      "type": "function"
    },
    {
      "inputs": [],
      "name": "renounceOwnership",
      "outputs": [],
      "stateMutability": "nonpayable",
      "type": "function"
    },
    {
      "inputs": [
        {
          "internalType": "uint256",
          "name": "_newFee",
          "type": "uint256"
        }
      ],
      "name": "setListingFee",
      "outputs": [],
      "stateMutability": "nonpayable",
      "type": "function"
    },
    {
      "inputs": [
        {
          "internalType": "uint256",
          "name": "",
          "type": "uint256"
        }
      ],
      "name": "supportedDEXes",
      "outputs": [
        {
          "internalType": "string",
          "name": "",
          "type": "string"
        }
      ],
      "stateMutability": "view",
      "type": "function"
    },
    {
      "inputs": [
        {
          "internalType": "address",
          "name": "",
          "type": "address"
        }
      ],
      "name": "tokenDEX",
      "outputs": [
        {
          "internalType": "string",
          "name": "",
          "type": "string"
        }
      ],
      "stateMutability": "view",
      "type": "function"
    },
    {
      "inputs": [
        {
          "internalType": "address",
          "name": "newOwner",
          "type": "address"
        }
      ],
      "name": "transferOwnership",
      "outputs": [],
      "stateMutability": "nonpayable",
      "type": "function"
    },
    {
      "inputs": [
        {
          "internalType": "string",
          "name": "name",
          "type": "string"
        },
        {
          "internalType": "address",
          "name": "router",
          "type": "address"
        },
        {
          "internalType": "bool",
          "name": "isActive",
          "type": "bool"
        }
      ],
      "name": "updateDEX",
      "outputs": [],
      "stateMutability": "nonpayable",
      "type": "function"
    },
    {
      "inputs": [],
      "name": "withdrawFees",
      "outputs": [],
      "stateMutability": "nonpayable",
      "type": "function"
    }
  ],
  "bytecode": "0x60803461009b57601f615b9138819003918201601f19168301916001600160401b038311848410176100a05780849260209460405283398101031261009b575160008054336001600160a01b0319821681178355604051939290916001600160a01b0316907f8be0079c531659141344cd1fd0a4f28419497f9722a3daafe3b4186f6b6457e09080a360018055600655615ada90816100b78239f35b600080fd5b634e487b7160e01b600052604160045260246000fdfe608060405260043610156200001357600080fd5b6000803560e01c8063131dbd09146200165d57806324b2982f14620013ca578063386e07bf14620012cc578063476343ee14620012825780634caf81f5146200122a5780635c04c08814620007db5780635e7ffa6714620007245780636a1b7ecc14620002535780637093f47f146200013e578063715018a614620006c657806378e3399d14620005e95780638da5cb5b14620005c057806396186770146200030c57806398a7d76e14620002ca5780639e4e73181462000273578063b8fe6abe1462000253578063f2fde38b1462000181578063f794062e146200013e5763ffa1ad74146200010257600080fd5b346200013b57806003193601126200013b57620001376200012262001921565b6040519182916020835260208301906200170c565b0390f35b80fd5b50346200013b5760203660031901126200013b5760209060ff906040906001600160a01b036200016d620016d0565b168152600484522054166040519015158152f35b50346200013b5760203660031901126200013b576200019f620016d0565b620001a962001ae2565b6001600160a01b03908116908115620001ff57600054826bffffffffffffffffffffffff60a01b821617600055167f8be0079c531659141344cd1fd0a4f28419497f9722a3daafe3b4186f6b6457e0600080a380f35b60405162461bcd60e51b815260206004820152602660248201527f4f776e61626c653a206e6577206f776e657220697320746865207a65726f206160448201526564647265737360d01b6064820152608490fd5b50346200013b57806003193601126200013b576020600654604051908152f35b50346200013b57806003193601126200013b5760206200029262001921565b604051620002bf838281620002b18183019687815193849201620016e7565b810103808452018262001804565b519020604051908152f35b50346200013b5760203660031901126200013b57620001379062000122906040906001600160a01b03620002fd620016d0565b16815260056020522062001826565b50346200013b5760403660031901126200013b576001600160401b0390600435828111620005bc576200034490369060040162001684565b6200034e620016b9565b6200035862001ae2565b604051809183858337838201966002885260018060a01b03809860019485916020978891030190200154166200058257604051976200039789620017be565b620003a4368789620018d7565b895280858a019316988984526040810192858452604051888a823787818a81016002815203019020915180519182116200056e57908291620003f482620003ed8a965462001781565b8562001953565b88908c601f84116001146200050757918392916200042794620004fb575b50508160011b916000199060031b1c19161790565b81555b0192511682549160ff60a01b9051151560a01b16916affffffffffffffffffffff60a81b16171790556003549068010000000000000000821015620004e7578101600355620004799062001733565b959095620004d357620004b083857fdc80caac0fc930b05b1b5c1f27f1b45d60b2fa42a563cfaa28619f76da9efccc979862001a12565b620004c9604051948594604086526040860191620019ae565b918301520390a180f35b634e487b7160e01b85526004859052602485fd5b634e487b7160e01b86526041600452602486fd5b01519050388062000412565b9190601f1984168584528b8420935b8c8282106200055757505090848795949392106200053d575b505050811b0181556200042a565b015160001960f88460031b161c191690553880806200052f565b8385015186558c9890950194938401930162000516565b634e487b7160e01b8b52604160045260248bfd5b60405162461bcd60e51b815260048101859052601260248201527144455820616c72656164792065786973747360701b6044820152606490fd5b5080fd5b50346200013b57806003193601126200013b57546040516001600160a01b039091168152602090f35b50346200013b57602080600319360112620005bc576004356001600160401b038111620006c257918162000624606094369060040162001684565b92604080516200063481620017be565b8781528285820152015282604051938492833781016002815203019020906001604051926200066384620017be565b6200066e8162001826565b8452015460018060a01b03620006ae83850193828416855260ff604087019460a01c1615158452604051968796828852519187015260808601906200170c565b925116604084015251151560608301520390f35b8280fd5b50346200013b57806003193601126200013b57620006e362001ae2565b600080546001600160a01b0319811682556001600160a01b03167f8be0079c531659141344cd1fd0a4f28419497f9722a3daafe3b4186f6b6457e08280a380f35b50346200013b5760203660031901126200013b57600435906001600160401b0382116200013b57366023830112156200013b57620007ba6200078960206200077536600487013560248801620018d7565b8160405193828580945193849201620016e7565b810160028152030190206001620007a08262001826565b91015460ff6040519384936060855260608501906200170c565b6001600160a01b038316602085015260a09290921c16151560408301520390f35b50600319602036820112620005bc576001600160401b0360043511620005bc576101c090600435360301126200013b57600260015414620011e557600260015560065460043560640135908101908110620011d1573410620011995760ff600160206200085461012460043501600435600401620019cf565b919082604051938492833781016002815203019020015460a01c161562001160576014610184600435013511620011285760146101a4600435013511620010ef5760405180613f698101106001600160401b03613f6983011117620010db57613f6962001b3c823980613f698101039082f0908115620010cf57620008de600480350180620019cf565b90620008f5602460043501600435600401620019cf565b909160405193846102408101106001600160401b0361024087011117620004e7576200093c939291620009329161024087016040523691620018d7565b84523691620018d7565b6020820152604460043501356040820152604460043501356060820152336080820152600160a0820152600160c08201528160e08201528161010082015281610120820152816101408201528161016082015281610180820152816101a0820152816101c0820152816101e0820152816102008201528161022082015260018060a01b0383163b15620005bc57816040518080936394cf687360e01b82526020600483015261022062000a1962000a02835161024060248701526102648601906200170c565b60208401518582036023190160448701526200170c565b604083015160648501526060830151608485015260808301516001600160a01b0390811660a486015260a0840151151560c486015260c0840151151560e486015260e08401516101048601526101008401516101248601526101208401516101448601526101408401516101648601526101608401516101848601526101808401516101a48601526101a084015181166101c48601526101c08401516101e48601526101e084015115156102048601526102008401516102248601529190920151610244840152919003908290849088165af1801562000d9e57620010bd575b50908160a460043501358062001060575b5060c460043501358062001003575b505062000b2c6101446004350162001a04565b62000f97575b62000b436101646004350162001a04565b62000f2b575b60146044600435013581810291818304149015171562000f1757600162000b7c61012460043501600435600401620019cf565b60405192918190843782019160028352602081838060a01b0394030190200154169060405163095ea7b360e01b81528260048201526064820460248201526020816044818860018060a01b0389165af1801562000f0c5762000ec5575b5061012c4201421162000eb157606460c4606092604051948593849263f305d71960e01b845260018060a01b038916600485015204602483015287604483015287606483015230608483015261012c420160a483015260646004350135905af1801562000ea65762000e75575b5062000c5760e46004350162001a04565b1562000e0f575b61010460043501358062000da9575b6001600160a01b0382163b15620006c25760405163f2fde38b60e01b815233600482015283908181602481836001600160a01b0389165af1801562000d9e5762000d86575b50506001600160a01b03821683526004602081905260408420805460ff1916600117905562000cff9062000cef90803561012481019101620019cf565b9060056020526040862062001a12565b7f52b537b7efd09a072d62379791a3f242c784095aa9e11dbba910b624ecec68b862000d5062000d3b61012460043501600435600401620019cf565b919060405192608084526080840191620019ae565b60043560648101356020840152608401356040830152606082019390935233936001600160a01b03169281900390a36001805580f35b62000d9190620017f0565b620006c257823862000cb2565b6040513d84823e3d90fd5b6001600160a01b0382163b15620006c2576040516313be407760e21b81526004810182905283908181602481836001600160a01b0389165af1801562000d9e5762000df7575b505062000c6d565b62000e0290620017f0565b620006c257823862000def565b6001600160a01b0381163b15620005bc576040516330b97b0160e21b81526004810183905282908181602481836001600160a01b0388165af1801562000d9e5762000e5d575b505062000c5e565b62000e6890620017f0565b620005bc57813862000e55565b606090813d831162000e9e575b62000e8e818362001804565b81010312620005bc573862000c46565b503d62000e82565b6040513d85823e3d90fd5b634e487b7160e01b84526011600452602484fd5b6020813d60201162000f03575b8162000ee16020938362001804565b8101031262000eff57518015150362000efb573862000bd9565b8380fd5b8480fd5b3d915062000ed2565b6040513d87823e3d90fd5b634e487b7160e01b83526011600452602483fd5b6001600160a01b0381163b15620005bc57604051639ec4be4160e01b8152600480356101a401359082015282908181602481836001600160a01b0388165af1801562000d9e5762000f7f575b505062000b49565b62000f8a90620017f0565b620005bc57813862000f77565b6001600160a01b0381163b15620005bc5760405163a56d37f960e01b81526004803561018401359082015282908181602481836001600160a01b0388165af1801562000d9e5762000feb575b505062000b32565b62000ff690620017f0565b620005bc57813862000fe3565b6001600160a01b0383163b15620005bc576040516313d0a7e160e11b815260048101919091528181602481836001600160a01b0388165af1801562000d9e571562000b19576200105390620017f0565b620005bc57813862000b19565b6001600160a01b0383163b15620005bc5760405163761421c560e11b815260048101919091528181602481836001600160a01b0388165af1801562000d9e571562000b0a57620010b090620017f0565b620005bc57813862000b0a565b620010c890620017f0565b3862000af9565b604051903d90823e3d90fd5b634e487b7160e01b82526041600452602482fd5b60405162461bcd60e51b81526020600482015260116024820152700a6cad8d840e8c2f040e8dede40d0d2ced607b1b6044820152606490fd5b60405162461bcd60e51b815260206004820152601060248201526f084eaf240e8c2f040e8dede40d0d2ced60831b6044820152606490fd5b60405162461bcd60e51b8152602060048201526011602482015270444558206e6f7420617661696c61626c6560781b6044820152606490fd5b60405162461bcd60e51b815260206004820152601060248201526f092dce6eaccccd2c6d2cadce8408aa8960831b6044820152606490fd5b634e487b7160e01b82526011600452602482fd5b60405162461bcd60e51b815260206004820152601f60248201527f5265656e7472616e637947756172643a207265656e7472616e742063616c6c006044820152606490fd5b50346200013b5760203660031901126200013b57600435600354811015620005bc57620012579062001733565b9190916200126e5762000137620001228362001826565b634e487b7160e01b81526004819052602490fd5b50346200013b57806003193601126200013b576200129f62001ae2565b8080808060018060a01b038154164790828215620012c2575bf115620010cf5780f35b506108fc620012b8565b50346200013b57806003193601126200013b576003546001600160401b038111620010db5790602091604051916200130a848360051b018462001804565b8183526003815283830191817fc2575a0e9e593c00f959f8c92f12db2869c3395a3b0502d05e2516446f71f85b845b838310620013a35750505050604051928484019085855251809152604084019460408260051b8601019392955b828710620013745785850386f35b90919293828062001392600193603f198a820301865288516200170c565b960192019601959291909262001366565b6001888192620013b7859b9a989b62001826565b8152019201920191909693959662001339565b50346200013b5760603660031901126200013b576001600160401b0390600435828111620005bc576200140290369060040162001684565b6200140c620016b9565b604435801515810362000eff576200142362001ae2565b6040518385823760028185019081528190036020019020600101546001600160a01b03161562001628576040516200145b81620017be565b62001468368587620018d7565b81526001600160a01b038316602082015281151560408083019190915251848682376020818681016002815203019020815180519889116200161457620014bc89620014b5845462001781565b8462001953565b602090601f8a11600114620015845789899a6001949362001514937ffcc670ef83a2ab18fa316fd1535402582ad1c325995f34b0f96faeb21d0ef9eb9c92620004fb5750508160011b916000199060031b1c19161790565b81555b019060018060a01b03602082015116825491604060ff60a01b910151151560a01b16916affffffffffffffffffffff60a81b161717905562001567604051948594606086526060860191620019ae565b6001600160a01b039092166020840152151560408301520390a180f35b908289526020892091895b601f198c168110620015fb5750996001939284927ffcc670ef83a2ab18fa316fd1535402582ad1c325995f34b0f96faeb21d0ef9eb9b9c83601f19811610620015e1575b505050811b01815562001517565b015160001960f88460031b161c19169055388080620015d3565b919260206001819286850151815501940192016200158f565b634e487b7160e01b88526041600452602488fd5b60405162461bcd60e51b815260206004820152600d60248201526c111156081b9bdd08199bdd5b99609a1b6044820152606490fd5b50346200013b5760203660031901126200013b576200167b62001ae2565b60043560065580f35b9181601f84011215620016b4578235916001600160401b038311620016b45760208381860195010111620016b457565b600080fd5b602435906001600160a01b0382168203620016b457565b600435906001600160a01b0382168203620016b457565b60005b838110620016fb5750506000910152565b8181015183820152602001620016ea565b906020916200172781518092818552858086019101620016e7565b601f01601f1916010190565b6003548110156200176b5760036000527fc2575a0e9e593c00f959f8c92f12db2869c3395a3b0502d05e2516446f71f85b0190600090565b634e487b7160e01b600052603260045260246000fd5b90600182811c92168015620017b3575b60208310146200179d57565b634e487b7160e01b600052602260045260246000fd5b91607f169162001791565b606081019081106001600160401b03821117620017da57604052565b634e487b7160e01b600052604160045260246000fd5b6001600160401b038111620017da57604052565b90601f801991011681019081106001600160401b03821117620017da57604052565b906040519182600082546200183b8162001781565b90818452602094600191600181169081600014620018b3575060011462001870575b5050506200186e9250038362001804565b565b600090815285812095935091905b8183106200189a5750506200186e93508201013880806200185d565b855488840185015294850194879450918301916200187e565b925050506200186e94925060ff191682840152151560051b8201013880806200185d565b9291926001600160401b038211620017da576040519162001903601f8201601f19166020018462001804565b829481845281830111620016b4578281602093846000960137010152565b60405190604082018281106001600160401b03821117620017da5760405260058252640322e302e360dc1b6020830152565b90601f81116200196257505050565b6000916000526020600020906020601f850160051c83019410620019a3575b601f0160051c01915b8281106200199757505050565b8181556001016200198a565b909250829062001981565b908060209392818452848401376000828201840152601f01601f1916010190565b903590601e1981360301821215620016b457018035906001600160401b038211620016b457602001918136038313620016b457565b358015158103620016b45790565b9092916001600160401b038111620017da5762001a3581620014b5845462001781565b6000601f821160011462001a7957819062001a6993949560009262001a6d5750508160011b916000199060031b1c19161790565b9055565b01359050388062000412565b601f19821694838252602091602081209281905b88821062001ac95750508360019596971062001aae575b505050811b019055565b0135600019600384901b60f8161c1916905538808062001aa4565b8060018496829495870135815501950192019062001a8d565b6000546001600160a01b0316330362001af757565b606460405162461bcd60e51b815260206004820152602060248201527f4f776e61626c653a2063616c6c6572206973206e6f7420746865206f776e65726044820152fdfe60a08060405234620000e157306080526000549060ff8260081c166200008f575060ff8082160362000053575b604051613e829081620000e78239608051818181611e5e01528181611f5f01526125ba0152f35b60ff90811916176000557f7f26b83ff96e1f2b6a682f133852f6798a09c465da95921460cefb3847402498602060405160ff8152a1386200002c565b62461bcd60e51b815260206004820152602760248201527f496e697469616c697a61626c653a20636f6e747261637420697320696e697469604482015266616c697a696e6760c81b6064820152608490fd5b600080fdfe608080604052600436101561001357600080fd5b60003560e01c90816306fdde0314612a3557508063095ea7b314612a0f578063113d478b146129f057806318160ddd146129d25780631e68fae11461298557806323b872dd1461294d5780632791770a1461292e57806327a14fc2146128e15780632dc0562d146128b75780632edf086914612837578063313ce5671461281b5780633659cfe61461259657806339509351146125455780633f4ba83a146124b15780634000992714612471578063420fc2101461245257806342966c681461243557806342e94c90146123fa5780634ada218b146123d65780634bb278f31461222e5780634ef901dc146121a45780634f1ef28614611f0f57806352d1902d14611e4b5780635c975abb14611e2857806363280c5114611e09578063644fab7414611cf55780636b7f3d1a14611cd65780636ff7320114611c8957806370a0823114611c4f57806370b7b80c14611c30578063715018a614611bd3578063760bf18614611bb4578063790ca41314611b9557806379cc679014611b655780637f76b22314611b2a5780638456cb5914611a975780638bdc444d146118f25780638c0b5e22146118d35780638da5cb5b146118aa57806394cf68731461109557806395d89b4114610fd45780639b19251a14610f945780639e4e731814610f455780639e7d8d1d14610f265780639ec4be4114610eb1578063a457c2d714610e0a578063a56d37f914610d96578063a9059cbb14610d65578063aa4bde2814610d46578063aff177ca14610c67578063b319c6b714610c48578063bb0e69e814610b5f578063bffb691d14610b3b578063c26d7be014610b00578063c2e5ec0414610a7c578063c6a3064714610a28578063cb4ca631146109e8578063cba4cbd3146109c1578063d17338db146109a2578063d5abeb0114610983578063d7bb99ba146106b3578063dc25a30014610641578063dd62ed3e146105f0578063e55648f41461056f578063ea414b28146104c7578063eb13554f1461049d578063ec28438a14610450578063f2fde38b146103c1578063f9f92be414610381578063fadcac271461035d5763ffa1ad741461032c57600080fd5b3461035857600036600319011261035857610354610348612bd4565b60405191829182612aeb565b0390f35b600080fd5b3461035857600036600319011261035857602060ff6101d454166040519015158152f35b34610358576020366003190112610358576001600160a01b036103a2612b17565b166000526101d0602052602060ff604060002054166040519015158152f35b34610358576020366003190112610358576103da612b17565b6103e2612feb565b6001600160a01b038116156103fc576103fa9061375f565b005b60405162461bcd60e51b815260206004820152602660248201527f4f776e61626c653a206e6577206f776e657220697320746865207a65726f206160448201526564647265737360d01b6064820152608490fd5b34610358576020366003190112610358577fd6a912222a539eff01eb7e23cd954e57c4ae962622948839fefbc46b0ffe914a602060043561048f612feb565b806101db55604051908152a1005b34610358576000366003190112610358576101d2546040516001600160a01b039091168152602090f35b34610358576020366003190112610358576104e0612b17565b6104e8612feb565b6001600160a01b03168015610538576101df80546001600160a01b031916821790556040519081527f1797049ec5d8ec17fdce2660fb55e33695fd7ebbdb65726cc6d171c0e1c312c790602090a1005b60405162461bcd60e51b815260206004820152600f60248201526e496e76616c6964206164647265737360881b6044820152606490fd5b34610358576040366003190112610358577f0d887d6750d996ace85ff35e7af4ff7f229bd111350121e552876ac01011ad0960206105ab612b17565b6105e76105b6612c06565b916105bf612feb565b60018060a01b031691826000526101e5845260406000209060ff801983541691151516179055565b604051908152a1005b3461035857604036600319011261035857610609612b17565b610611612b2d565b9060018060a01b038091166000526034602052604060002091166000526020526020604060002054604051908152f35b346103585760003660031901126103585760806101d3546101d85460ff6101d454166000146106a45761067b816106766137a8565b612dd1565b61068c6101d7546101d55490612d6b565b91604051938452602084015260408301526060820152f35b6106ae8183612dd1565b61067b565b6000366003190112610358576106c7613708565b6101c7544210610948576101c8544211610913576101ca5460ff8160081c166108da576101c554341061089c576101c65480341161085e576101cb9161070e348454612d6b565b6101c454106108265760ff166107d8575b336000526101cd8060205261073934604060002054612d6b565b9182116107935733600052602052604060002055610758348254612d6b565b9055604080513381523460208201527f1bb460ccaaf70fbacfec17a376f8acbd278c1405590ffcc8ebe4b88daf4f64ad9190a1600161019155005b60405162461bcd60e51b815260206004820152601d60248201527f576f756c6420657863656564206d617820636f6e747269627574696f6e0000006044820152606490fd5b336000526101cc60205260ff6040600020541661071f5760405162461bcd60e51b815260206004820152600f60248201526e139bdd081dda1a5d195b1a5cdd1959608a1b6044820152606490fd5b60405162461bcd60e51b815260206004820152601060248201526f12185c990818d85c081c995858da195960821b6044820152606490fd5b60405162461bcd60e51b815260206004820152601660248201527520b137bb329036b0bc1031b7b73a3934b13aba34b7b760511b6044820152606490fd5b60405162461bcd60e51b81526020600482015260166024820152752132b637bb9036b4b71031b7b73a3934b13aba34b7b760511b6044820152606490fd5b60405162461bcd60e51b8152602060048201526011602482015270141c995cd85b1948199a5b985b1a5e9959607a1b6044820152606490fd5b60405162461bcd60e51b815260206004820152600d60248201526c141c995cd85b1948195b991959609a1b6044820152606490fd5b60405162461bcd60e51b8152602060048201526013602482015272141c995cd85b19481b9bdd081cdd185c9d1959606a1b6044820152606490fd5b346103585760003660031901126103585760206101ce54604051908152f35b346103585760003660031901126103585760206101e354604051908152f35b3461035857600036600319011261035857602060ff6101cf5460081c166040519015158152f35b34610358576020366003190112610358576001600160a01b03610a09612b17565b166000526101e0602052602060ff604060002054166040519015158152f35b34610358576040366003190112610358576103fa610a44612b17565b610a4c612c06565b90610a55612feb565b60018060a01b03166000526101e060205260406000209060ff801983541691151516179055565b346103585760203660031901126103585760043580151590818103610358577fbeda7dca7bc1b3e80b871f4818129ec73b771581f803d553aeb3484098e5f65a91602091610ac8612feb565b6101d960ff1981541660ff841617905580610af5575b610aeb57604051908152a1005b426101e4556105e7565b506101e45415610ade565b34610358576020366003190112610358576001600160a01b03610b21612b17565b166000526101e16020526020604060002054604051908152f35b3461035857600036600319011261035857602060ff6101cf54166040519015158152f35b3461035857610b6d36612c15565b91610b76612feb565b60ff6101cf541615610c0b5760005b828110610bc35750610bbe7f11d4d128e8f89ae2e8815168b9eba079dd6668b75f1e3a9dd96ac6192a7c4dcb9360405193849384612e8e565b0390a1005b6001906001600160a01b03610be1610bdc838787612e68565b612e1e565b166000526101d0602052610c058560406000209060ff801983541691151516179055565b01610b85565b60405162461bcd60e51b8152602060048201526015602482015274109b1858dadb1a5cdd081b9bdd08195b98589b1959605a1b6044820152606490fd5b346103585760003660031901126103585760206101e254604051908152f35b3461035857610c7536612c15565b91610c7e612feb565b60ff6101ca541615610d095760005b828110610cc65750610bbe7fa091d95aa3f4b3529e12c57e1e9e10580edde8a7ac6fd51dd3c8e824c332dbe09360405193849384612e8e565b6001906001600160a01b03610cdf610bdc838787612e68565b166000526101cc602052610d038560406000209060ff801983541691151516179055565b01610c8d565b60405162461bcd60e51b815260206004820152601560248201527415da1a5d195b1a5cdd081b9bdd08195b98589b1959605a1b6044820152606490fd5b346103585760003660031901126103585760206101dc54604051908152f35b3461035857604036600319011261035857610d8b610d81612b17565b60243590336130db565b602060405160018152f35b34610358576020366003190112610358577f152025149960395a45119ccb22f7198ae8472a2bf6d8f534661c7f3f5674b76c6080600435610dd5612feb565b610de26014821115612e32565b806101dd556040519060408252600360408301526262757960e81b60608301526020820152a1005b3461035857604036600319011261035857610e23612b17565b60243590336000526034602052604060002060018060a01b03821660005260205260406000205491808310610e5e57610d8b92039033612ee9565b60405162461bcd60e51b815260206004820152602560248201527f45524332303a2064656372656173656420616c6c6f77616e63652062656c6f77604482015264207a65726f60d81b6064820152608490fd5b34610358576020366003190112610358577f152025149960395a45119ccb22f7198ae8472a2bf6d8f534661c7f3f5674b76c6080600435610ef0612feb565b610efd6014821115612e32565b806101de55604051906040825260046040830152631cd95b1b60e21b60608301526020820152a1005b346103585760003660031901126103585760206101de54604051908152f35b34610358576000366003190112610358576020610f60612bd4565b604051610f89838281610f7c8183019687815193849201612ac8565b8101038084520182612b5f565b519020604051908152f35b34610358576020366003190112610358576001600160a01b03610fb5612b17565b166000526101cc602052602060ff604060002054166040519015158152f35b34610358576000366003190112610358576040516000603754610ff681612c6f565b8084529060209060019081811690811561106b5750600114611023575b6103548561034881870382612b5f565b603760009081529350600080516020613e2d8339815191525b8385106110585750505050810160200161034882610354611013565b805486860184015293820193810161103c565b8695506103549693506020925061034894915060ff191682840152151560051b8201019293611013565b34610358576003196020368201126103585767ffffffffffffffff600435116103585761024060043560040191600435360301126103585760005460ff8160081c16159081809261189d575b8015611886575b1561182a5760ff19811660011760005581611818575b5061113361112161112b6111128580612dde565b92909560246004350190612dde565b9590923691612b9d565b933691612b9d565b9061114e60ff60005460081c1661114981613a02565b613a02565b825167ffffffffffffffff811161154d5761116a603654612c6f565b601f81116117af575b506020601f821160011461173b5781929394600092611730575b50508160011b916000199060031b1c1916176036555b815167ffffffffffffffff811161154d576111bf603754612c6f565b601f81116116c3575b50602092601f82116001146116535792819293600092611648575b50508160011b916000199060031b1c1916176037555b61123360ff60005460081c1661120e81613a02565b61121781613a02565b61122081613a02565b60ff196097541660975561114981613a02565b61123c3361375f565b61126560ff60005460081c1661125181613a02565b61125a81613a02565b600161019155613a02565b606460043501356044600435013581106115f75742610164600435013511156115b257610164600435013561018460043501351115611563576101ce556112b060a460043501612e11565b15156101cf90815460ff61ff006112cb60c460043501612e11565b151560081b1692169061ffff19161717905560018060a01b036112f36101a460043501612e1e565b166101d2906bffffffffffffffffffffffff60a01b8254161790556101c460043501356101d3556113296101e460043501612e11565b15156101d49060ff8019835416911617905561020460043501356101d55561022460043501356101d6556040518061014081011067ffffffffffffffff6101408301111761154d5761014081016040908152600435610144810135600181901c80855260208501829052610104830135938501849052610124830135606086018190526101648401356080870181905261018485013560a080890182905260e487013560c08a01819052600060e08b018190526101008b018190526101209a909a018a90526101c39586556101c4969096556101c5979097556101c6929092556101c7556101c8556101c9919091556101ca805461ffff191690556101cb939093557f363312020dbba28eb1464ec7d5f963ebe389e1b00dab8dd54d46e2e2f2e6326192906114699060448101359061146490608401612e1e565b613831565b6101c4600435013515158061152f575b6114f3575b546101c4546040519182526020820152610164600435013560408201526101846004350135606082015260e460043501356080820152a16114bb57005b61ff0019600054166000557f7f26b83ff96e1f2b6a682f133852f6798a09c465da95921460cefb3847402498602060405160018152a1005b6115026101e460043501612e11565b611525576115206101c460043501356114646101a460043501612e1e565b61147e565b426101d75561147e565b50600180831b036115456101a460043501612e1e565b161515611479565b634e487b7160e01b600052604160045260246000fd5b60405162461bcd60e51b815260206004820152602160248201527f456e642074696d65206d7573742062652061667465722073746172742074696d6044820152606560f81b6064820152608490fd5b60405162461bcd60e51b815260206004820152601c60248201527f53746172742074696d65206d75737420626520696e20667574757265000000006044820152606490fd5b60405162461bcd60e51b8152602060048201526024808201527f4d617820737570706c79206d757374206265203e3d20696e697469616c20737560448201526370706c7960e01b6064820152608490fd5b0151905083806111e3565b601f198216936037600052600080516020613e2d8339815191529160005b8681106116ab5750836001959610611692575b505050811b016037556111f9565b015160001960f88460031b161c19169055838080611684565b91926020600181928685015181550194019201611671565b6037600052601f820160051c600080516020613e2d83398151915201906020831061171a575b601f0160051c600080516020613e2d83398151915201905b81811061170e57506111c8565b60008155600101611701565b600080516020613e2d83398151915291506116e9565b01519050848061118d565b6036600052600080516020613ded8339815191529060005b601f19841681106117975750600193949583601f1981161061177e575b505050811b016036556111a3565b015160001960f88460031b161c19169055848080611770565b9091602060018192858a015181550193019101611753565b6036600052601f820160051c600080516020613ded8339815191520160208310611803575b601f820160051c600080516020613ded8339815191520181106117f75750611173565b600081556001016117d4565b50600080516020613ded8339815191526117d4565b61ffff191661010117600055826110fe565b60405162461bcd60e51b815260206004820152602e60248201527f496e697469616c697a61626c653a20636f6e747261637420697320616c72656160448201526d191e481a5b9a5d1a585b1a5e995960921b6064820152608490fd5b50303b1580156110e85750600160ff8216146110e8565b50600160ff8216106110e1565b346103585760003660031901126103585760fb546040516001600160a01b039091168152602090f35b346103585760003660031901126103585760206101db54604051908152f35b346103585760003660031901126103585761190b613708565b6101d2546001600160a01b031633819003611a5e5760ff6101d4541615611a235761193d6101d7546101d65490612d6b565b42106119e55761194b6137a8565b906101d861195b81548094612dd1565b9081156119ab578160209361199c92611995837fbc7ec4f43cc9d06c3fc2804e1bc7fb4c5463c361795d54400ce36256ad1b2ba898612d6b565b9055613831565b604051908152a1600161019155005b60405162461bcd60e51b81526020600482015260126024820152714e6f20746f6b656e7320746f20636c61696d60701b6044820152606490fd5b60405162461bcd60e51b815260206004820152601660248201527510db1a5999881c195c9a5bd9081b9bdd08195b99195960521b6044820152606490fd5b60405162461bcd60e51b815260206004820152601360248201527215995cdd1a5b99c81b9bdd08195b98589b1959606a1b6044820152606490fd5b60405162461bcd60e51b8152602060048201526011602482015270139bdd08199959481c9958da5c1a595b9d607a1b6044820152606490fd5b3461035857600036600319011261035857611ab0612feb565b60975460ff8116611af25760019060ff1916176097557f62e78cea01bee320cd4e420270b5ea74000d11b0c9f74754ebdbfc544b05a2586020604051338152a1005b60405162461bcd60e51b815260206004820152601060248201526f14185d5cd8589b194e881c185d5cd95960821b6044820152606490fd5b34610358576020366003190112610358576001600160a01b03611b4b612b17565b166000526101d16020526020604060002054604051908152f35b34610358576040366003190112610358576103fa611b81612b17565b60243590611b90823383613043565b6134b0565b346103585760003660031901126103585760206101e454604051908152f35b346103585760003660031901126103585760206101dd54604051908152f35b3461035857600036600319011261035857611bec612feb565b60fb80546001600160a01b031981169091556000906001600160a01b03167f8be0079c531659141344cd1fd0a4f28419497f9722a3daafe3b4186f6b6457e08280a3005b346103585760003660031901126103585760206101da54604051908152f35b34610358576020366003190112610358576001600160a01b03611c70612b17565b1660005260336020526020604060002054604051908152f35b34610358576020366003190112610358577f583d8b24c5439ab7d810e51e37e8db41ba66f1168fd7b752ceae0c7681c5272c6020600435611cc8612feb565b806101e255604051908152a1005b346103585760003660031901126103585760206101d354604051908152f35b3461035857604036600319011261035857611d0e612b17565b602435611d19612feb565b60ff6101cf5460081c1615611dcc5742811115611d87576001600160a01b0390911660008181526101d1602090815260409182902084905581519283528201929092527fa9353e70f07f31e7f4e16464f45e189cbd22826780a5abe4da8303652a86960a9181908101610bbe565b60405162461bcd60e51b815260206004820152601d60248201527f556e6c6f636b2074696d65206d75737420626520696e206675747572650000006044820152606490fd5b60405162461bcd60e51b8152602060048201526015602482015274151a5b59481b1bd8dac81b9bdd08195b98589b1959605a1b6044820152606490fd5b346103585760003660031901126103585760206101d854604051908152f35b3461035857600036600319011261035857602060ff609754166040519015158152f35b34610358576000366003190112610358577f00000000000000000000000000000000000000000000000000000000000000006001600160a01b03163003611ea4576020604051600080516020613e0d8339815191528152f35b60405162461bcd60e51b815260206004820152603860248201527f555550535570677261646561626c653a206d757374206e6f742062652063616c60448201527f6c6564207468726f7567682064656c656761746563616c6c00000000000000006064820152608490fd5b604036600319011261035857611f23612b17565b60243567ffffffffffffffff8111610358573660238201121561035857611f54903690602481600401359101612b9d565b906001600160a01b037f0000000000000000000000000000000000000000000000000000000000000000811690611f8d30831415612ca9565b611faa600080516020613e0d833981519152928284541614612d0a565b611fb2612feb565b7f4910fdfa16fed3260ed0e7147f7cc6da11a60208b5b9406d12a635614ffd91435460ff1615611fe85750506103fa9150613cc7565b6040516352d1902d60e01b81526020939291831691908481600481865afa60009181612175575b506120705760405162461bcd60e51b815260048101869052602e60248201527f45524331393637557067726164653a206e657720696d706c656d656e7461746960448201526d6f6e206973206e6f74205555505360901b6064820152608490fd5b0361211e5761207e82613cc7565b7fbc7cd75a20ee27fd9adebab32041f755214dbc6bffa90cc0225b39da2e5c2d3b600080a2825115801590612116575b6120b457005b6000806103fa94604051946120c886612b43565b602786527f416464726573733a206c6f772d6c6576656c2064656c65676174652063616c6c81870152660819985a5b195960ca1b604087015281519101845af4612110612da1565b91613d57565b5060016120ae565b60405162461bcd60e51b815260048101849052602960248201527f45524331393637557067726164653a20756e737570706f727465642070726f786044820152681a58589b195555525160ba1b6064820152608490fd5b9091508581813d831161219d575b61218d8183612b5f565b810103126103585751908761200f565b503d612183565b34610358576020366003190112610358576004356121c0612feb565b428111156121fa576020817fe49a4b405039474898d31c89de6941be5a232cf8ebb6e2de9750fcad419fd45a926101da55604051908152a1005b60405162461bcd60e51b815260206004820152600c60248201526b496e76616c69642074696d6560a01b6044820152606490fd5b3461035857600036600319011261035857612247612feb565b61224f613708565b6101c85442111561239d576101ca805460ff8160081c16612364576101cb918254906101c3548210612328576101006122949361ff0019161790556101c95490612d8e565b90600080808060018060a01b0360fb541647905af16122b1612da1565b50156122f1577fedfde254cb8ed39d650c9a34251c59d6817fae4cc876cc2ce76669976cf102ee91604091549082519182526020820152a1600161019155005b60405162461bcd60e51b815260206004820152600f60248201526e151c985b9cd9995c8819985a5b1959608a1b6044820152606490fd5b60405162461bcd60e51b815260206004820152601460248201527314dbd99d0818d85c081b9bdd081c995858da195960621b6044820152606490fd5b60405162461bcd60e51b8152602060048201526011602482015270105b1c9958591e48199a5b985b1a5e9959607a1b6044820152606490fd5b60405162461bcd60e51b8152602060048201526011602482015270141c995cd85b19481b9bdd08195b991959607a1b6044820152606490fd5b3461035857600036600319011261035857602060ff6101d954166040519015158152f35b34610358576020366003190112610358576001600160a01b0361241b612b17565b166000526101cd6020526020604060002054604051908152f35b34610358576020366003190112610358576103fa600435336134b0565b346103585760003660031901126103585760206101d554604051908152f35b34610358576020366003190112610358576001600160a01b03612492612b17565b166000526101e5602052602060ff604060002054166040519015158152f35b34610358576000366003190112610358576124ca612feb565b60975460ff8116156125095760ff19166097557f5db9ee0a495bf2e6ff9c91a7834c1ba4fdd244a5e8aa4e537bd38aeae4b073aa6020604051338152a1005b60405162461bcd60e51b815260206004820152601460248201527314185d5cd8589b194e881b9bdd081c185d5cd95960621b6044820152606490fd5b3461035857604036600319011261035857610d8b612561612b17565b336000526034602052604060002060018060a01b03821660005260205261258f602435604060002054612d6b565b9033612ee9565b3461035857602080600319360112610358576125b0612b17565b6001600160a01b037f0000000000000000000000000000000000000000000000000000000000000000811692906125e930851415612ca9565b612606600080516020613e0d833981519152948286541614612d0a565b61260e612feb565b604051938285019185831067ffffffffffffffff84111761154d57826040526000865260ff7f4910fdfa16fed3260ed0e7147f7cc6da11a60208b5b9406d12a635614ffd9143541660001461266b57505050506103fa9150613cc7565b84939416906040516352d1902d60e01b81528581600481865afa600091816127ec575b506126ef5760405162461bcd60e51b815260048101879052602e60248201527f45524331393637557067726164653a206e657720696d706c656d656e7461746960448201526d6f6e206973206e6f74205555505360901b6064820152608490fd5b03612795576126fd83613cc7565b7fbc7cd75a20ee27fd9adebab32041f755214dbc6bffa90cc0225b39da2e5c2d3b600080a283511580159061278d575b61273357005b600080916103fa957f416464726573733a206c6f772d6c6576656c2064656c65676174652063616c6c6040519661276988612b43565b60278852870152660819985a5b195960ca1b60408701525190845af4612110612da1565b50600061272d565b60405162461bcd60e51b815260048101859052602960248201527f45524331393637557067726164653a20756e737570706f727465642070726f786044820152681a58589b195555525160ba1b6064820152608490fd5b9091508681813d8311612814575b6128048183612b5f565b810103126103585751908861268e565b503d6127fa565b3461035857600036600319011261035857602060405160128152f35b34610358576000366003190112610358576101406101c3546101c45460ff6101c5546101c6546101c7546101c854906101c954926101ca54946101cb5497604051998a5260208a015260408901526060880152608087015260a086015260c0850152818116151560e085015260081c161515610100830152610120820152f35b34610358576000366003190112610358576101df546040516001600160a01b039091168152602090f35b34610358576020366003190112610358577ff48b2351b7ae1d135f49a7c2c7529e514a0b74ac8d1e79f010767fb6212a212c6020600435612920612feb565b806101dc55604051908152a1005b346103585760003660031901126103585760206101d754604051908152f35b3461035857606036600319011261035857610d8b612969612b17565b612971612b2d565b60443591612980833383613043565b6130db565b34610358576020366003190112610358577fbdc94a90a4363e8d83dc498e58c9beed7a067e02042ab92f6263b68fd5b21f6360206004356129c4612feb565b806101e355604051908152a1005b34610358576000366003190112610358576020603554604051908152f35b346103585760003660031901126103585760206101d654604051908152f35b3461035857604036600319011261035857610d8b612a2b612b17565b6024359033612ee9565b34610358576000366003190112610358576000603654612a5481612c6f565b8084529060209060019081811690811561106b5750600114612a80576103548561034881870382612b5f565b603660009081529350600080516020613ded8339815191525b838510612ab55750505050810160200161034882610354611013565b8054868601840152938201938101612a99565b60005b838110612adb5750506000910152565b8181015183820152602001612acb565b60409160208252612b0b8151809281602086015260208686019101612ac8565b601f01601f1916010190565b600435906001600160a01b038216820361035857565b602435906001600160a01b038216820361035857565b6060810190811067ffffffffffffffff82111761154d57604052565b90601f8019910116810190811067ffffffffffffffff82111761154d57604052565b67ffffffffffffffff811161154d57601f01601f191660200190565b929192612ba982612b81565b91612bb76040519384612b5f565b829481845281830111610358578281602093846000960137010152565b604051906040820182811067ffffffffffffffff82111761154d5760405260058252640322e302e360dc1b6020830152565b60243590811515820361035857565b9060406003198301126103585760043567ffffffffffffffff9283821161035857806023830112156103585781600401359384116103585760248460051b8301011161035857602401919060243580151581036103585790565b90600182811c92168015612c9f575b6020831014612c8957565b634e487b7160e01b600052602260045260246000fd5b91607f1691612c7e565b15612cb057565b60405162461bcd60e51b815260206004820152602c60248201527f46756e6374696f6e206d7573742062652063616c6c6564207468726f7567682060448201526b19195b1959d85d1958d85b1b60a21b6064820152608490fd5b15612d1157565b60405162461bcd60e51b815260206004820152602c60248201527f46756e6374696f6e206d7573742062652063616c6c6564207468726f7567682060448201526b6163746976652070726f787960a01b6064820152608490fd5b91908201809211612d7857565b634e487b7160e01b600052601160045260246000fd5b81810292918115918404141715612d7857565b3d15612dcc573d90612db282612b81565b91612dc06040519384612b5f565b82523d6000602084013e565b606090565b91908203918211612d7857565b903590601e1981360301821215610358570180359067ffffffffffffffff82116103585760200191813603831361035857565b3580151581036103585790565b356001600160a01b03811681036103585790565b15612e3957565b60405162461bcd60e51b81526020600482015260076024820152664d61782032302560c81b6044820152606490fd5b9190811015612e785760051b0190565b634e487b7160e01b600052603260045260246000fd5b60408082528101839052929392916060830190600090815b818110612ebc5750505060209150931515910152565b909192843560018060a01b038116809103612ee557815260209485019401929190600101612ea6565b8480fd5b6001600160a01b03908116918215612f9a5716918215612f4a5760207f8c5be1e5ebec7d5bd14f71427d1e84f3dd0314c0f7b2291e5b200ac8c7c3b925918360005260348252604060002085600052825280604060002055604051908152a3565b60405162461bcd60e51b815260206004820152602260248201527f45524332303a20617070726f766520746f20746865207a65726f206164647265604482015261737360f01b6064820152608490fd5b60405162461bcd60e51b8152602060048201526024808201527f45524332303a20617070726f76652066726f6d20746865207a65726f206164646044820152637265737360e01b6064820152608490fd5b60fb546001600160a01b03163303612fff57565b606460405162461bcd60e51b815260206004820152602060248201527f4f776e61626c653a2063616c6c6572206973206e6f7420746865206f776e65726044820152fd5b9060018060a01b038083166000526034602052604060002090821660005260205260406000205492600019840361307b575b50505050565b8084106130965761308d930391612ee9565b38808080613075565b60405162461bcd60e51b815260206004820152601d60248201527f45524332303a20696e73756666696369656e7420616c6c6f77616e63650000006044820152606490fd5b6001600160a01b0392919083811680156134765784831694851561343e578060fb5416808314159081613433575b506131cb575b613142956000928084526101e060205260ff60408520541615806131b9575b613161575b505081613144575b5050613a62565b565b936106768261315994966101df541687613a62565b91388061313b565b83526101e5602052604083205460ff16156131925750905060646131886101dd5486612d8e565b04905b3880613133565b825260ff6040832054161561318b57905060646131b26101de5486612d8e565b049061318b565b5081845260ff6040852054161561312e565b60ff6101d95416156133f8576101da54806133b1575b506101e454801515908161339a575b50613348575b6101e254806132dd575b506101db548061329b575b506101dc5480151580613281575b613224575b5061310f565b86600052603360205261323c86604060002054612d6b565b11613247573861321e565b60405162461bcd60e51b815260206004820152601260248201527108af0c6cacac8e640eec2d8d8cae840dac2f60731b6044820152606490fd5b50866000526101e560205260ff6040600020541615613219565b85116132a7573861320b565b60405162461bcd60e51b815260206004820152600e60248201526d08af0c6cacac8e640dac2f040e8f60931b6044820152606490fd5b826000526132f76101e19182602052604060002054612d6b565b421061331157826000526020524260406000205538613200565b60405162461bcd60e51b815260206004820152600f60248201526e436f6f6c646f776e2061637469766560881b6044820152606490fd5b816000526101e560205260ff60406000205416156131f65760405162461bcd60e51b815260206004820152601260248201527129b734b834b73390383937ba32b1ba34b7b760711b6044820152606490fd5b6133a5915042612dd1565b6101e3541015386131f0565b42106133bd57386131e1565b60405162461bcd60e51b8152602060048201526013602482015272151c98591a5b99c81b9bdd081cdd185c9d1959606a1b6044820152606490fd5b60405162461bcd60e51b8152602060048201526013602482015272151c98591a5b99c81b9bdd08195b98589b1959606a1b6044820152606490fd5b905086141538613109565b60405162461bcd60e51b815260206004820152601060248201526f5472616e7366657220746f207a65726f60801b6044820152606490fd5b60405162461bcd60e51b81526020600482015260126024820152715472616e736665722066726f6d207a65726f60701b6044820152606490fd5b6001600160a01b031680156136b95760ff60975416613661576101cf5460ff81166135f1575b60081c60ff16806135e9575b613594575b80600052603360205260406000205491808310613544576020817fddf252ad1be2c89b69c2b068fc378daa952ba7f163c4a11628f55a4df523b3ef92600095858752603384520360408620558060355403603555604051908152a3565b60405162461bcd60e51b815260206004820152602260248201527f45524332303a206275726e20616d6f756e7420657863656564732062616c616e604482015261636560f01b6064820152608490fd5b806000526101d16020526040600020544210156134e75760405162461bcd60e51b8152602060048201526016602482015275151bdad95b9cc8185c99481d1a5b594b5b1bd8dad95960521b6044820152606490fd5b5060016134e2565b816000526101d060205260ff60406000205416158061364d575b6134d65760405162461bcd60e51b81526020600482015260166024820152751059191c995cdcc81a5cc8189b1858dadb1a5cdd195960521b6044820152606490fd5b506000805260ff604060002054161561360b565b60405162461bcd60e51b815260206004820152602a60248201527f45524332305061757361626c653a20746f6b656e207472616e736665722077686044820152691a5b19481c185d5cd95960b21b6064820152608490fd5b60405162461bcd60e51b815260206004820152602160248201527f45524332303a206275726e2066726f6d20746865207a65726f206164647265736044820152607360f81b6064820152608490fd5b610191600281541461371a5760029055565b60405162461bcd60e51b815260206004820152601f60248201527f5265656e7472616e637947756172643a207265656e7472616e742063616c6c006044820152606490fd5b60fb80546001600160a01b039283166001600160a01b0319821681179092559091167f8be0079c531659141344cd1fd0a4f28419497f9722a3daafe3b4186f6b6457e0600080a3565b6101d7546101d6546137ba8183612d6b565b421061382a576101d554916137cf8382612d6b565b42101561382057816137f06137ea613800946137f694612d6b565b42612dd1565b93612dd1565b916101d354612d8e565b811561380a570490565b634e487b7160e01b600052601260045260246000fd5b5050506101d35490565b5050600090565b6001600160a01b03169081156139bd5760ff60975416613661576101cf5460ff8116613931575b60081c60ff1680613929575b6138b8575b7fddf252ad1be2c89b69c2b068fc378daa952ba7f163c4a11628f55a4df523b3ef60208261389b600094603554612d6b565b6035558484526033825260408420818154019055604051908152a3565b600080526101d16020527f317b84ddac75f0ea69bf5811368b149bf7c81698247b92d5d9a5a9dff0e528d0544210156138695760405162461bcd60e51b8152602060048201526016602482015275151bdad95b9cc8185c99481d1a5b594b5b1bd8dad95960521b6044820152606490fd5b506000613864565b600080526101d06020527f829b3c0c06e324cb54d5f90a76dfb1a140c4382b9f5b15e8e23751ea3306f24d5460ff1615806139a9575b6138585760405162461bcd60e51b81526020600482015260166024820152751059191c995cdcc81a5cc8189b1858dadb1a5cdd195960521b6044820152606490fd5b508260005260ff6040600020541615613967565b60405162461bcd60e51b815260206004820152601f60248201527f45524332303a206d696e7420746f20746865207a65726f2061646472657373006044820152606490fd5b15613a0957565b60405162461bcd60e51b815260206004820152602b60248201527f496e697469616c697a61626c653a20636f6e7472616374206973206e6f74206960448201526a6e697469616c697a696e6760a81b6064820152608490fd5b6001600160a01b03908116918215613c745716918215613c235760ff60975416613661576101cf5460ff8116613bb3575b60081c60ff1680613bab575b613b56575b60008281526033602052604081205491808310613b0257604082827fddf252ad1be2c89b69c2b068fc378daa952ba7f163c4a11628f55a4df523b3ef95876020965260338652038282205586815220818154019055604051908152a3565b60405162461bcd60e51b815260206004820152602660248201527f45524332303a207472616e7366657220616d6f756e7420657863656564732062604482015265616c616e636560d01b6064820152608490fd5b816000526101d1602052604060002054421015613aa45760405162461bcd60e51b8152602060048201526016602482015275151bdad95b9cc8185c99481d1a5b594b5b1bd8dad95960521b6044820152606490fd5b506001613a9f565b826000526101d060205260ff604060002054161580613c0f575b613a935760405162461bcd60e51b81526020600482015260166024820152751059191c995cdcc81a5cc8189b1858dadb1a5cdd195960521b6044820152606490fd5b508360005260ff6040600020541615613bcd565b60405162461bcd60e51b815260206004820152602360248201527f45524332303a207472616e7366657220746f20746865207a65726f206164647260448201526265737360e81b6064820152608490fd5b60405162461bcd60e51b815260206004820152602560248201527f45524332303a207472616e736665722066726f6d20746865207a65726f206164604482015264647265737360d81b6064820152608490fd5b803b15613cfc57600080516020613e0d83398151915280546001600160a01b0319166001600160a01b03909216919091179055565b60405162461bcd60e51b815260206004820152602d60248201527f455243313936373a206e657720696d706c656d656e746174696f6e206973206e60448201526c1bdd08184818dbdb9d1c9858dd609a1b6064820152608490fd5b91929015613db95750815115613d6b575090565b3b15613d745790565b60405162461bcd60e51b815260206004820152601d60248201527f416464726573733a2063616c6c20746f206e6f6e2d636f6e74726163740000006044820152606490fd5b825190915015613dcc5750805190602001fd5b60405162461bcd60e51b8152908190613de89060048301612aeb565b0390fdfe4a11f94e20a93c79f6ec743a1954ec4fc2c08429ae2122118bf234b2185c81b8360894a13ba1a3210667c828492db98dca3e2076cc3735a920a3ca505d382bbc42a7b7dd785cd69714a189dffb3fd7d7174edc9ece837694ce50f7078f7c31aea2646970667358221220b73d1fd9e3d210499889c635d46add3676aa20d7f3cdf1d55a4ab18fdd79a64464736f6c63430008160033a2646970667358221220eee6cee6695b690ac3c8421a9930adf06e03209c940843c618d7ee5db608b3ab64736f6c63430008160033",
  "linkReferences": {},
  "deployedLinkReferences": {}
}