{
  "_format": "hh-sol-artifact-1",
  "contractName": "TokenFactory_v2_Bake",
  "sourceName": "src/contracts/TokenFactory_v2_Bake.sol",
  "abi": [
    {
      "inputs": [
        {
          "internalType": "uint256",
          "name": "_listingFee",
          "type": "uint256"
        }
      ],
      "stateMutability": "nonpayable",
      "type": "constructor"
    },
    {
      "inputs": [
        {
          "internalType": "string",
          "name": "dexName",
          "type": "string"
        }
      ],
      "name": "DEXNotAvailable",
      "type": "error"
    },
    {
      "inputs": [
        {
          "internalType": "uint256",
          "name": "required",
          "type": "uint256"
        },
        {
          "internalType": "uint256",
          "name": "provided",
          "type": "uint256"
        }
      ],
      "name": "InsufficientETH",
      "type": "error"
    },
    {
      "inputs": [
        {
          "internalType": "uint256",
          "name": "required",
          "type": "uint256"
        },
        {
          "internalType": "uint256",
          "name": "provided",
          "type": "uint256"
        }
      ],
      "name": "InsufficientTokenAllowance",
      "type": "error"
    },
    {
      "inputs": [
        {
          "internalType": "address",
          "name": "token",
          "type": "address"
        },
        {
          "internalType": "uint256",
          "name": "ethAmount",
          "type": "uint256"
        },
        {
          "internalType": "uint256",
          "name": "tokenAmount",
          "type": "uint256"
        }
      ],
      "name": "LiquidityAdditionFailed",
      "type": "error"
    },
    {
      "inputs": [
        {
          "internalType": "address",
          "name": "token",
          "type": "address"
        },
        {
          "internalType": "address",
          "name": "router",
          "type": "address"
        }
      ],
      "name": "PairCreationFailed",
      "type": "error"
    },
    {
      "inputs": [
        {
          "internalType": "address",
          "name": "token",
          "type": "address"
        }
      ],
      "name": "TokenAlreadyListed",
      "type": "error"
    },
    {
      "anonymous": false,
      "inputs": [
        {
          "indexed": false,
          "internalType": "string",
          "name": "name",
          "type": "string"
        },
        {
          "indexed": false,
          "internalType": "address",
          "name": "router",
          "type": "address"
        }
      ],
      "name": "DEXAdded",
      "type": "event"
    },
    {
      "anonymous": false,
      "inputs": [
        {
          "indexed": false,
          "internalType": "string",
          "name": "name",
          "type": "string"
        },
        {
          "indexed": false,
          "internalType": "address",
          "name": "router",
          "type": "address"
        },
        {
          "indexed": false,
          "internalType": "bool",
          "name": "isActive",
          "type": "bool"
        }
      ],
      "name": "DEXUpdated",
      "type": "event"
    },
    {
      "anonymous": false,
      "inputs": [
        {
          "indexed": true,
          "internalType": "address",
          "name": "previousOwner",
          "type": "address"
        },
        {
          "indexed": true,
          "internalType": "address",
          "name": "newOwner",
          "type": "address"
        }
      ],
      "name": "OwnershipTransferred",
      "type": "event"
    },
    {
      "anonymous": false,
      "inputs": [
        {
          "indexed": true,
          "internalType": "address",
          "name": "token",
          "type": "address"
        },
        {
          "indexed": true,
          "internalType": "address",
          "name": "owner",
          "type": "address"
        },
        {
          "indexed": false,
          "internalType": "string",
          "name": "dexName",
          "type": "string"
        },
        {
          "indexed": false,
          "internalType": "uint256",
          "name": "initialLiquidity",
          "type": "uint256"
        },
        {
          "indexed": false,
          "internalType": "uint256",
          "name": "listingPrice",
          "type": "uint256"
        },
        {
          "indexed": false,
          "internalType": "uint256",
          "name": "listingTime",
          "type": "uint256"
        }
      ],
      "name": "TokenListed",
      "type": "event"
    },
    {
      "inputs": [],
      "name": "VERSION",
      "outputs": [
        {
          "internalType": "string",
          "name": "",
          "type": "string"
        }
      ],
      "stateMutability": "view",
      "type": "function"
    },
    {
      "inputs": [
        {
          "internalType": "string",
          "name": "name",
          "type": "string"
        },
        {
          "internalType": "address",
          "name": "router",
          "type": "address"
        }
      ],
      "name": "addDEX",
      "outputs": [],
      "stateMutability": "nonpayable",
      "type": "function"
    },
    {
      "inputs": [
        {
          "internalType": "string",
          "name": "",
          "type": "string"
        }
      ],
      "name": "dexRouters",
      "outputs": [
        {
          "internalType": "string",
          "name": "name",
          "type": "string"
        },
        {
          "internalType": "address",
          "name": "router",
          "type": "address"
        },
        {
          "internalType": "bool",
          "name": "isActive",
          "type": "bool"
        }
      ],
      "stateMutability": "view",
      "type": "function"
    },
    {
      "inputs": [
        {
          "internalType": "string",
          "name": "dexName",
          "type": "string"
        }
      ],
      "name": "getDEXRouter",
      "outputs": [
        {
          "components": [
            {
              "internalType": "string",
              "name": "name",
              "type": "string"
            },
            {
              "internalType": "address",
              "name": "router",
              "type": "address"
            },
            {
              "internalType": "bool",
              "name": "isActive",
              "type": "bool"
            }
          ],
          "internalType": "struct TokenFactory_v2_Bake.DEXRouter",
          "name": "",
          "type": "tuple"
        }
      ],
      "stateMutability": "view",
      "type": "function"
    },
    {
      "inputs": [],
      "name": "getListedTokens",
      "outputs": [
        {
          "internalType": "address[]",
          "name": "",
          "type": "address[]"
        }
      ],
      "stateMutability": "view",
      "type": "function"
    },
    {
      "inputs": [],
      "name": "getListingFee",
      "outputs": [
        {
          "internalType": "uint256",
          "name": "",
          "type": "uint256"
        }
      ],
      "stateMutability": "view",
      "type": "function"
    },
    {
      "inputs": [],
      "name": "getSupportedDEXes",
      "outputs": [
        {
          "internalType": "string[]",
          "name": "",
          "type": "string[]"
        }
      ],
      "stateMutability": "view",
      "type": "function"
    },
    {
      "inputs": [
        {
          "internalType": "address",
          "name": "token",
          "type": "address"
        }
      ],
      "name": "getTokenInfo",
      "outputs": [
        {
          "components": [
            {
              "internalType": "address",
              "name": "token",
              "type": "address"
            },
            {
              "internalType": "address",
              "name": "owner",
              "type": "address"
            },
            {
              "internalType": "bool",
              "name": "isListed",
              "type": "bool"
            },
            {
              "internalType": "string",
              "name": "dexName",
              "type": "string"
            },
            {
              "internalType": "uint256",
              "name": "listingTime",
              "type": "uint256"
            }
          ],
          "internalType": "struct TokenFactory_v2_Bake.TokenInfo",
          "name": "",
          "type": "tuple"
        }
      ],
      "stateMutability": "view",
      "type": "function"
    },
    {
      "inputs": [
        {
          "internalType": "address",
          "name": "token",
          "type": "address"
        }
      ],
      "name": "isListed",
      "outputs": [
        {
          "internalType": "bool",
          "name": "",
          "type": "bool"
        }
      ],
      "stateMutability": "view",
      "type": "function"
    },
    {
      "inputs": [
        {
          "internalType": "address",
          "name": "tokenAddress",
          "type": "address"
        },
        {
          "internalType": "uint256",
          "name": "initialLiquidityInETH",
          "type": "uint256"
        },
        {
          "internalType": "uint256",
          "name": "listingPriceInETH",
          "type": "uint256"
        },
        {
          "internalType": "string",
          "name": "dexName",
          "type": "string"
        }
      ],
      "name": "listTokenOnDEX",
      "outputs": [],
      "stateMutability": "payable",
      "type": "function"
    },
    {
      "inputs": [
        {
          "internalType": "uint256",
          "name": "",
          "type": "uint256"
        }
      ],
      "name": "listedTokens",
      "outputs": [
        {
          "internalType": "address",
          "name": "",
          "type": "address"
        }
      ],
      "stateMutability": "view",
      "type": "function"
    },
    {
      "inputs": [],
      "name": "listingFee",
      "outputs": [
        {
          "internalType": "uint256",
          "name": "",
          "type": "uint256"
        }
      ],
      "stateMutability": "view",
      "type": "function"
    },
    {
      "inputs": [],
      "name": "owner",
      "outputs": [
        {
          "internalType": "address",
          "name": "",
          "type": "address"
        }
      ],
      "stateMutability": "view",
      "type": "function"
    },
    {
      "inputs": [],
      "name": "renounceOwnership",
      "outputs": [],
      "stateMutability": "nonpayable",
      "type": "function"
    },
    {
      "inputs": [
        {
          "internalType": "uint256",
          "name": "_newFee",
          "type": "uint256"
        }
      ],
      "name": "setListingFee",
      "outputs": [],
      "stateMutability": "nonpayable",
      "type": "function"
    },
    {
      "inputs": [
        {
          "internalType": "uint256",
          "name": "",
          "type": "uint256"
        }
      ],
      "name": "supportedDEXes",
      "outputs": [
        {
          "internalType": "string",
          "name": "",
          "type": "string"
        }
      ],
      "stateMutability": "view",
      "type": "function"
    },
    {
      "inputs": [
        {
          "internalType": "address",
          "name": "",
          "type": "address"
        }
      ],
      "name": "tokenInfo",
      "outputs": [
        {
          "internalType": "address",
          "name": "token",
          "type": "address"
        },
        {
          "internalType": "address",
          "name": "owner",
          "type": "address"
        },
        {
          "internalType": "bool",
          "name": "isListed",
          "type": "bool"
        },
        {
          "internalType": "string",
          "name": "dexName",
          "type": "string"
        },
        {
          "internalType": "uint256",
          "name": "listingTime",
          "type": "uint256"
        }
      ],
      "stateMutability": "view",
      "type": "function"
    },
    {
      "inputs": [
        {
          "internalType": "address",
          "name": "newOwner",
          "type": "address"
        }
      ],
      "name": "transferOwnership",
      "outputs": [],
      "stateMutability": "nonpayable",
      "type": "function"
    },
    {
      "inputs": [
        {
          "internalType": "string",
          "name": "name",
          "type": "string"
        },
        {
          "internalType": "address",
          "name": "router",
          "type": "address"
        },
        {
          "internalType": "bool",
          "name": "isActive",
          "type": "bool"
        }
      ],
      "name": "updateDEX",
      "outputs": [],
      "stateMutability": "nonpayable",
      "type": "function"
    },
    {
      "inputs": [],
      "name": "withdrawFees",
      "outputs": [],
      "stateMutability": "nonpayable",
      "type": "function"
    }
  ],
  "bytecode": "0x60803461009b57601f611cfd38819003918201601f19168301916001600160401b038311848410176100a05780849260209460405283398101031261009b575160008054336001600160a01b0319821681178355604051939290916001600160a01b0316907f8be0079c531659141344cd1fd0a4f28419497f9722a3daafe3b4186f6b6457e09080a360018055600655611c4690816100b78239f35b600080fd5b634e487b7160e01b600052604160045260246000fdfe60a0604052600436101561001257600080fd5b6000803560e01c8063131dbd091461180b5780631f69565f1461172657806324b2982f146114b65780632ba996a5146113f0578063386e07bf146112eb578063476343ee1461129c5780634caf81f5146112395780635a9d1ac3146111f55780635e7ffa671461114a5780636a1b7ecc14610300578063715018a6146110f057806378e3399d1461102057806381e090df146106d85780638da5cb5b146106b1578063961867701461031e578063b8fe6abe14610300578063f2fde38b1461023a578063f5dab711146101b3578063f794062e1461016d5763ffa1ad74146100f957600080fd5b3461016a578060031936011261016a5760405160408101908082106001600160401b03831117610154576101509160405260058152640322e302e360dc1b6020820152604051918291602083526020830190611882565b0390f35b634e487b7160e01b600052604160045260246000fd5b80fd5b503461016a57602036600319011261016a5760209060ff906001906040906001600160a01b0361019b61182e565b1681526004855220015460a01c166040519015158152f35b503461016a57602036600319011261016a576001600160a01b0390604090826101da61182e565b168152600460205220818154169061023060018201549160ff6003610201600284016119fc565b9201549360405196879687528116602087015260a01c161515604085015260a0606085015260a0840190611882565b9060808301520390f35b503461016a57602036600319011261016a5761025461182e565b61025c611bb8565b6001600160a01b039081169081156102ac57600054826001600160601b0360a01b821617600055167f8be0079c531659141344cd1fd0a4f28419497f9722a3daafe3b4186f6b6457e0600080a380f35b60405162461bcd60e51b815260206004820152602660248201527f4f776e61626c653a206e6577206f776e657220697320746865207a65726f206160448201526564647265737360d01b6064820152608490fd5b503461016a578060031936011261016a576020600654604051908152f35b503461016a57604036600319011261016a576001600160401b036004358181116106ad576103509036906004016118a7565b929061035a611849565b93610363611bb8565b6040518183823760028183019081526001608081905290829003602090810190922001546001600160a01b0390811661067357604051966103a3886119ad565b6103ae368587611aa1565b8852818389019116918282526040890190608051825260405186888237858188810160028152030190209951998a518a811161065f576103f8816103f28454611958565b84611ae7565b86601f82116001146105f3579080610430928c9d9e61046a999a9b9c9d926105e8575b50508160011b916000199060031b1c19161790565b81555b608051019251166001600160601b0360a01b83541617825551151581549060ff60a01b90151560a01b169060ff60a01b1916179055565b600354600160401b8110156105d45761048a9060805181016003556118d4565b9690966105c05783116105ac576104ab836104a58854611958565b88611ae7565b8495601f841160011461052a576104fb848088997fdc80caac0fc930b05b1b5c1f27f1b45d60b2fa42a563cfaa28619f76da9efccc999161051f575b508160011b916000199060031b1c19161790565b90555b610515604051948594604086526040860191611b3d565b918301520390a180f35b9050870135386104e7565b808652828620601f19851697875b8981106105945750857fdc80caac0fc930b05b1b5c1f27f1b45d60b2fa42a563cfaa28619f76da9efccc98991061057a575b505060805184811b0190556104fe565b860135600019600387901b60f8161c19169055388061056a565b9091858091848a013581556080510193019101610538565b634e487b7160e01b85526041600452602485fd5b634e487b7160e01b86526004869052602486fd5b634e487b7160e01b86526041600452602486fd5b01519050388061041b565b828b52878b2090601f1983168c5b81811061064757509d8361046a999a9b9c9d9e9f1061062e575b505050608051906080511b018155610433565b015160001960f88460031b161c1916905538808061061b565b8f830151845560805190930192918a01918a01610601565b634e487b7160e01b8a52604160045260248afd5b60405162461bcd60e51b815260048101839052601260248201527144455820616c72656164792065786973747360701b6044820152606490fd5b8280fd5b503461016a578060031936011261016a57546040516001600160a01b039091168152602090f35b50608036600319011261016a576106ed61182e565b6064356001600160401b0381116106ad5761070c9036906004016118a7565b600260019492945414610fdb57600260019081556001600160a01b0384168352600460205260408320015460a01c60ff16610fba5760065461075081602435611b5e565b3410610f92575060ff6001604051838782376020818581016002815203019020015460a01c1615610f6c57604051638da5cb5b60e01b81526020816004816001600160a01b0388165afa908115610f61578391610f42575b50336001600160a01b0390911603610f0b576040518185823760028183019081528190036020908101909120600101546040516318160ddd60e01b815295916001600160a01b03918216918790600490829089165afa958615610f00578496610ecc575b5085601481020460141486151715610d3857604051636eb1769f60e11b81523360048201523060248201526020816044816001600160a01b038a165afa908115610d7b578591610e9a575b50606460148802048110610e7657506040516323b872dd60e01b81523360048201523060248201526064601488028190046044830152602090829081886001600160a01b038b165af18015610d7b57610e57575b5060405163c45a015560e01b8152602081600481855afa908115610d7b578591610e38575b506040516315ab88c960e31b8152602081600481865afa908115610db1578692602092610933928591610e1b575b506040516364e329cb60e11b81526001600160a01b03808c166004830152909116602482015293849283919082906044820190565b03926001600160a01b03165af1908115610d7b578591610dec575b506001600160a01b03168015610dbc576001600160a01b0386163b15610d9a5760405163c0d7865560e01b8152600481018390528581602481836001600160a01b038c165af18015610db157610d9e575b506001600160a01b0386163b15610d9a576040516340c3fa8b60e11b815260048101919091528481602481836001600160a01b038b165af18015610d7b57908591610d86575b505060405163095ea7b360e01b815260048101829052606460148802046024820152602081604481886001600160a01b038b165af18015610d7b57610d4c575b5061012c42014211610d3857606060c4916040519283809263f305d71960e01b825260018060a01b038a166004830152606460148c0204602483015288604483015288606483015230608483015261012c420160a4830152602435905af19081610d09575b50610ac457604051630baff61160e21b81526001600160a01b03851660048201526024803590820152606460148702819004604483015290fd5b604093929351610ad381611992565b6001600160a01b038416815233602082019081526001604083019081529190610b6a610b00368787611aa1565b606084019081524260808501526001600160a01b038881168a52600460205260408a20855181546001600160a01b031916908316178155935160018501805497516001600160a81b0319909816919092161795151560a01b60ff60a01b1695909517909455909290565b518051906001600160401b038211610cf557610b9682610b8d6002870154611958565b60028701611ae7565b602090601f8311600114610c84578260809360039593610bcb938c92610c795750508160011b916000199060031b1c19161790565b60028501555b0151910155600554600160401b8110156105ac577f52b537b7efd09a072d62379791a3f242c784095aa9e11dbba910b624ecec68b891610c1a826001610c4a9401600555611921565b81546001600160a01b0388811660039390931b92831b921b19161790556040516080808252909490850191611b3d565b6024356020840152604435604084015242606084015233936001600160a01b0316929081900390a36001805580f35b015190508b8061041b565b906002850189526020892091895b601f1985168110610cdd5750926003949260019260809583601f19811610610cc5575b505050811b016002850155610bd1565b015160001983881b60f8161c191690558a8080610cb5565b91926020600181928685015181550194019201610c92565b634e487b7160e01b88526041600452602488fd5b606090813d8311610d31575b610d1f81836119db565b81010312610d2d5738610a8a565b8380fd5b503d610d15565b634e487b7160e01b84526011600452602484fd5b610d6d9060203d602011610d74575b610d6581836119db565b810190611ba0565b5038610a25565b503d610d5b565b6040513d87823e3d90fd5b610d8f906119c8565b610d2d5783386109e5565b8480fd5b610daa909591956119c8565b933861099f565b6040513d88823e3d90fd5b50604051634fe1e92b60e11b81526001600160a01b038681166004830152919091166024820152604490fd5b0390fd5b610e0e915060203d602011610e14575b610e0681836119db565b810190611b81565b3861094e565b503d610dfc565b610e329150843d8611610e1457610e0681836119db565b386108fe565b610e51915060203d602011610e1457610e0681836119db565b386108d0565b610e6f9060203d602011610d7457610d6581836119db565b50386108ab565b86604491606460146040519363dc98d7bb60e01b8552020460048301526024820152fd5b90506020813d602011610ec4575b81610eb5602093836119db565b81010312610d9a575138610857565b3d9150610ea8565b9095506020813d602011610ef8575b81610ee8602093836119db565b81010312610d2d5751943861080c565b3d9150610edb565b6040513d86823e3d90fd5b60405162461bcd60e51b815260206004820152600f60248201526e2737ba103a37b5b2b71037bbb732b960891b6044820152606490fd5b610f5b915060203d602011610e1457610e0681836119db565b386107a8565b6040513d85823e3d90fd5b6040516379370a7560e01b815260206004820152908190610de890602483019087611b3d565b610fa0604491602435611b5e565b6040519062fdf57560e51b82526004820152346024820152fd5b604051633fb6e97160e01b81526001600160a01b0384166004820152602490fd5b60405162461bcd60e51b815260206004820152601f60248201527f5265656e7472616e637947756172643a207265656e7472616e742063616c6c006044820152606490fd5b503461016a576020806003193601126110ec576004356001600160401b0381116106ad57918161105660609436906004016118a7565b9260408051611064816119ad565b878152828582015201528260405193849283378101600281520301902090600160405192611091846119ad565b61109a816119fc565b8452015460018060a01b036110d883850193828416855260ff604087019460a01c161515845260405196879682885251918701526080860190611882565b925116604084015251151560608301520390f35b5080fd5b503461016a578060031936011261016a57611109611bb8565b80546001600160a01b03198116825581906001600160a01b03167f8be0079c531659141344cd1fd0a4f28419497f9722a3daafe3b4186f6b6457e08280a380f35b503461016a57602036600319011261016a57600435906001600160401b03821161016a573660238301121561016a576111d46111a6602061119336600487013560248801611aa1565b816040519382858094519384920161185f565b8101600281520301902060016111bb826119fc565b91015460ff604051938493606085526060850190611882565b6001600160a01b038316602085015260a09290921c16151560408301520390f35b503461016a57602036600319011261016a576004359060055482101561016a57602061122083611921565b905460405160039290921b1c6001600160a01b03168152f35b503461016a57602036600319011261016a576004356003548110156110ec57611261906118d4565b91909161128857610150611274836119fc565b604051918291602083526020830190611882565b634e487b7160e01b81526004819052602490fd5b503461016a578060031936011261016a576112b5611bb8565b8080808060018060a01b0381541647908282156112e2575bf1156112d65780f35b604051903d90823e3d90fd5b506108fc6112cd565b503461016a578060031936011261016a576003546001600160401b0381116113dc579060209160405191611324848360051b01846119db565b8183526003815283830191817fc2575a0e9e593c00f959f8c92f12db2869c3395a3b0502d05e2516446f71f85b845b8383106113b85750505050604051928484019085855251809152604084019460408260051b8601019392955b82871061138c5785850386f35b9091929382806113a8600193603f198a82030186528851611882565b960192019601959291909261137f565b60018881926113ca859b9a989b6119fc565b81520192019201919096939596611353565b634e487b7160e01b82526041600452602482fd5b503461016a578060031936011261016a5760405180916005549081835260208093018092600583527f036b6384b5eca791c62761152d0c79bb0604c104a5fb6f4eb0703f3154bb3db090835b81811061149957505050846114529103856119db565b60405193838594850191818652518092526040850193925b82811061147957505050500390f35b83516001600160a01b03168552869550938101939281019260010161146a565b82546001600160a01b03168452928601926001928301920161143c565b503461016a57606036600319011261016a576001600160401b03906004358281116110ec576114e99036906004016118a7565b6114f1611849565b93604435801515809103610d9a57611507611bb8565b6040519183858437838301966002885260018060a01b0380600186819b602098899103019020015416156116f157604051611541816119ad565b61154c36888a611aa1565b815281868201931693848452604082019a868c52604051898b823788818b81016002815203019020925180519283116116dd576115938361158d8654611958565b86611ae7565b8891601f841160011461164d5750926115f0836116279796948e9f96947ffcc670ef83a2ab18fa316fd1535402582ad1c325995f34b0f96faeb21d0ef9eb9f95600196926105e85750508160011b916000199060031b1c19161790565b81555b019251166001600160601b0360a01b83541617825551151581549060ff60a01b90151560a01b169060ff60a01b1916179055565b61163e604051958695606087526060870191611b3d565b9284015260408301520390a180f35b848d52898d20929190601f198516908e905b8282106116c6575050936001937ffcc670ef83a2ab18fa316fd1535402582ad1c325995f34b0f96faeb21d0ef9eb9e9f96938593836116279b9a98106116ad575b505050811b0181556115f3565b015160001960f88460031b161c191690553880806116a0565b83850151865594850194938c0193908c019061165f565b634e487b7160e01b8c52604160045260248cfd5b60405162461bcd60e51b815260048101869052600d60248201526c111156081b9bdd08199bdd5b99609a1b6044820152606490fd5b503461016a576020806003193601126110ec57604061174361182e565b92806080835161175281611992565b82815285810183905284810183905260608082015201526001600160a01b039384168152600483522060405191906118009061178d84611992565b848154168452600181015485848601818316815260ff604088019360a01c161515835260036117be600286016119fc565b946060890195865201549560808801968752604051988998828a525116908801525116604086015251151560608501525160a0608085015260c0840190611882565b905160a08301520390f35b503461016a57602036600319011261016a57611825611bb8565b60043560065580f35b600435906001600160a01b038216820361184457565b600080fd5b602435906001600160a01b038216820361184457565b60005b8381106118725750506000910152565b8181015183820152602001611862565b9060209161189b8151809281855285808601910161185f565b601f01601f1916010190565b9181601f84011215611844578235916001600160401b038311611844576020838186019501011161184457565b60035481101561190b5760036000527fc2575a0e9e593c00f959f8c92f12db2869c3395a3b0502d05e2516446f71f85b0190600090565b634e487b7160e01b600052603260045260246000fd5b60055481101561190b5760056000527f036b6384b5eca791c62761152d0c79bb0604c104a5fb6f4eb0703f3154bb3db00190600090565b90600182811c92168015611988575b602083101461197257565b634e487b7160e01b600052602260045260246000fd5b91607f1691611967565b60a081019081106001600160401b0382111761015457604052565b606081019081106001600160401b0382111761015457604052565b6001600160401b03811161015457604052565b90601f801991011681019081106001600160401b0382111761015457604052565b90604051918260008254611a0f81611958565b90818452602094600191600181169081600014611a7f5750600114611a40575b505050611a3e925003836119db565b565b600090815285812095935091905b818310611a67575050611a3e9350820101388080611a2f565b85548884018501529485019487945091830191611a4e565b92505050611a3e94925060ff191682840152151560051b820101388080611a2f565b9291926001600160401b0382116101545760405191611aca601f8201601f1916602001846119db565b829481845281830111611844578281602093846000960137010152565b90601f8111611af557505050565b6000916000526020600020906020601f850160051c83019410611b33575b601f0160051c01915b828110611b2857505050565b818155600101611b1c565b9092508290611b13565b908060209392818452848401376000828201840152601f01601f1916010190565b91908201809211611b6b57565b634e487b7160e01b600052601160045260246000fd5b9081602091031261184457516001600160a01b03811681036118445790565b90816020910312611844575180151581036118445790565b6000546001600160a01b03163303611bcc57565b606460405162461bcd60e51b815260206004820152602060248201527f4f776e61626c653a2063616c6c6572206973206e6f7420746865206f776e65726044820152fdfea2646970667358221220b901624017c381bc8a0431c08bcd2fc7c1e5efccb1df37f53e925ebf0eaa4c8264736f6c63430008160033",
  "linkReferences": {},
  "deployedLinkReferences": {}
}