{
  "_format": "hh-sol-artifact-1",
  "contractName": "TokenFactory_v3_clone",
  "sourceName": "src/contracts/TokenFactory_v3_clone.sol",
  "abi": [
    {
      "anonymous": false,
      "inputs": [
        {
          "indexed": false,
          "internalType": "address",
          "name": "previousAdmin",
          "type": "address"
        },
        {
          "indexed": false,
          "internalType": "address",
          "name": "newAdmin",
          "type": "address"
        }
      ],
      "name": "AdminChanged",
      "type": "event"
    },
    {
      "anonymous": false,
      "inputs": [
        {
          "indexed": true,
          "internalType": "address",
          "name": "beacon",
          "type": "address"
        }
      ],
      "name": "BeaconUpgraded",
      "type": "event"
    },
    {
      "anonymous": false,
      "inputs": [
        {
          "indexed": false,
          "internalType": "uint256",
          "name": "newFee",
          "type": "uint256"
        }
      ],
      "name": "DeploymentFeeUpdated",
      "type": "event"
    },
    {
      "anonymous": false,
      "inputs": [
        {
          "indexed": false,
          "internalType": "uint8",
          "name": "version",
          "type": "uint8"
        }
      ],
      "name": "Initialized",
      "type": "event"
    },
    {
      "anonymous": false,
      "inputs": [
        {
          "indexed": true,
          "internalType": "address",
          "name": "previousOwner",
          "type": "address"
        },
        {
          "indexed": true,
          "internalType": "address",
          "name": "newOwner",
          "type": "address"
        }
      ],
      "name": "OwnershipTransferred",
      "type": "event"
    },
    {
      "anonymous": false,
      "inputs": [
        {
          "indexed": true,
          "internalType": "address",
          "name": "tokenAddress",
          "type": "address"
        },
        {
          "indexed": false,
          "internalType": "string",
          "name": "name",
          "type": "string"
        },
        {
          "indexed": false,
          "internalType": "string",
          "name": "symbol",
          "type": "string"
        }
      ],
      "name": "TokenCreated",
      "type": "event"
    },
    {
      "anonymous": false,
      "inputs": [
        {
          "indexed": true,
          "internalType": "address",
          "name": "implementation",
          "type": "address"
        }
      ],
      "name": "Upgraded",
      "type": "event"
    },
    {
      "inputs": [
        {
          "components": [
            {
              "internalType": "string",
              "name": "name",
              "type": "string"
            },
            {
              "internalType": "string",
              "name": "symbol",
              "type": "string"
            },
            {
              "internalType": "uint256",
              "name": "initialSupply",
              "type": "uint256"
            },
            {
              "internalType": "uint256",
              "name": "maxSupply",
              "type": "uint256"
            },
            {
              "internalType": "address",
              "name": "owner",
              "type": "address"
            },
            {
              "internalType": "bool",
              "name": "enableBlacklist",
              "type": "bool"
            },
            {
              "internalType": "bool",
              "name": "enableTimeLock",
              "type": "bool"
            },
            {
              "internalType": "uint256",
              "name": "presaleRate",
              "type": "uint256"
            },
            {
              "internalType": "uint256",
              "name": "minContribution",
              "type": "uint256"
            },
            {
              "internalType": "uint256",
              "name": "maxContribution",
              "type": "uint256"
            },
            {
              "internalType": "uint256",
              "name": "presaleCap",
              "type": "uint256"
            },
            {
              "internalType": "uint256",
              "name": "startTime",
              "type": "uint256"
            },
            {
              "internalType": "uint256",
              "name": "endTime",
              "type": "uint256"
            },
            {
              "internalType": "uint256",
              "name": "presalePercentage",
              "type": "uint256"
            },
            {
              "internalType": "uint256",
              "name": "liquidityPercentage",
              "type": "uint256"
            },
            {
              "internalType": "uint256",
              "name": "liquidityLockDuration",
              "type": "uint256"
            },
            {
              "internalType": "address",
              "name": "marketingWallet",
              "type": "address"
            },
            {
              "internalType": "uint256",
              "name": "marketingPercentage",
              "type": "uint256"
            },
            {
              "internalType": "address",
              "name": "teamWallet",
              "type": "address"
            },
            {
              "internalType": "uint256",
              "name": "teamPercentage",
              "type": "uint256"
            }
          ],
          "internalType": "struct TokenTemplate_v3_clone.InitParams",
          "name": "params",
          "type": "tuple"
        }
      ],
      "name": "createToken",
      "outputs": [
        {
          "internalType": "address",
          "name": "",
          "type": "address"
        }
      ],
      "stateMutability": "payable",
      "type": "function"
    },
    {
      "inputs": [
        {
          "internalType": "uint256",
          "name": "",
          "type": "uint256"
        }
      ],
      "name": "deployedTokens",
      "outputs": [
        {
          "internalType": "address",
          "name": "",
          "type": "address"
        }
      ],
      "stateMutability": "view",
      "type": "function"
    },
    {
      "inputs": [],
      "name": "deploymentFee",
      "outputs": [
        {
          "internalType": "uint256",
          "name": "",
          "type": "uint256"
        }
      ],
      "stateMutability": "view",
      "type": "function"
    },
    {
      "inputs": [],
      "name": "getDeployedTokens",
      "outputs": [
        {
          "internalType": "address[]",
          "name": "",
          "type": "address[]"
        }
      ],
      "stateMutability": "view",
      "type": "function"
    },
    {
      "inputs": [],
      "name": "implementation",
      "outputs": [
        {
          "internalType": "address",
          "name": "",
          "type": "address"
        }
      ],
      "stateMutability": "view",
      "type": "function"
    },
    {
      "inputs": [
        {
          "internalType": "address",
          "name": "_implementation",
          "type": "address"
        }
      ],
      "name": "initialize",
      "outputs": [],
      "stateMutability": "nonpayable",
      "type": "function"
    },
    {
      "inputs": [],
      "name": "owner",
      "outputs": [
        {
          "internalType": "address",
          "name": "",
          "type": "address"
        }
      ],
      "stateMutability": "view",
      "type": "function"
    },
    {
      "inputs": [],
      "name": "proxiableUUID",
      "outputs": [
        {
          "internalType": "bytes32",
          "name": "",
          "type": "bytes32"
        }
      ],
      "stateMutability": "view",
      "type": "function"
    },
    {
      "inputs": [],
      "name": "renounceOwnership",
      "outputs": [],
      "stateMutability": "nonpayable",
      "type": "function"
    },
    {
      "inputs": [
        {
          "internalType": "uint256",
          "name": "_fee",
          "type": "uint256"
        }
      ],
      "name": "setDeploymentFee",
      "outputs": [],
      "stateMutability": "nonpayable",
      "type": "function"
    },
    {
      "inputs": [
        {
          "internalType": "address",
          "name": "newOwner",
          "type": "address"
        }
      ],
      "name": "transferOwnership",
      "outputs": [],
      "stateMutability": "nonpayable",
      "type": "function"
    },
    {
      "inputs": [
        {
          "internalType": "address",
          "name": "newImplementation",
          "type": "address"
        }
      ],
      "name": "upgradeTo",
      "outputs": [],
      "stateMutability": "nonpayable",
      "type": "function"
    },
    {
      "inputs": [
        {
          "internalType": "address",
          "name": "newImplementation",
          "type": "address"
        },
        {
          "internalType": "bytes",
          "name": "data",
          "type": "bytes"
        }
      ],
      "name": "upgradeToAndCall",
      "outputs": [],
      "stateMutability": "payable",
      "type": "function"
    },
    {
      "inputs": [],
      "name": "withdrawFees",
      "outputs": [],
      "stateMutability": "nonpayable",
      "type": "function"
    }
  ],
  "bytecode": "0x60a0604052346200003657620000146200003b565b60405161218a620000a182396080518181816107050152610987015261218a90f35b600080fd5b6200004562000047565b565b620000456200004562000090565b6200006b906200006e906001600160a01b031682565b90565b6001600160a01b031690565b6200006b9062000055565b6200006b906200007a565b6200009b3062000085565b60805256fe608060405260043610156200001357600080fd5b60003560e01c80633659cfe6146200010e578063476343ee14620001085780634f1ef286146200010257806352d1902d14620000fc5780635c60da1b14620000f6578063622ae7aa14620000f0578063715018a614620000ea5780638da5cb5b14620000e4578063b978f21414620000de578063c4d66de814620000d8578063d002462b14620000d2578063ec81aadb14620000cc578063f2cff57f14620000c65763f2fde38b036200011457620005fc565b620005db565b62000593565b62000512565b620004c8565b620004ad565b62000453565b62000436565b62000408565b6200035d565b620002df565b620002c3565b62000195565b62000163565b600080fd5b6001600160a01b031690565b90565b620001338162000119565b036200011457565b905035906200014a8262000128565b565b90602082820312620001145762000125916200013b565b346200011457620001806200017a3660046200014c565b620007ea565b604051005b0390f35b60009103126200011457565b346200011457620001a836600462000189565b62000180620008b7565b634e487b7160e01b600052604160045260246000fd5b90601f01601f191681019081106001600160401b03821117620001ea57604052565b620001b2565b906200014a620001ff60405190565b9283620001c8565b6001600160401b038111620001ea57602090601f01601f19160190565b0190565b90826000939282370152565b909291926200024d620002478262000207565b620001f0565b938185528183011162000114576200014a91602085019062000228565b9080601f830112156200011457816020620001259335910162000234565b9190916040818403126200011457620002a283826200013b565b9260208201356001600160401b03811162000114576200012592016200026a565b62000180620002d436600462000288565b90620008ef565b9052565b346200011457620002f236600462000189565b6200018562000300620009ef565b6040519182918290815260200190565b62000125916008021c6001600160a01b031690565b9062000125915462000310565b62000125600060c962000325565b620002db9062000119565b6020810192916200014a919062000340565b3462000114576200037036600462000189565b620001856200037e62000332565b604051918291826200034b565b90620002248160209362000340565b90620003bd620003b6620003ac845190565b8084529260200190565b9260200190565b9060005b818110620003cf5750505090565b909192620003ec620003e560019286516200038b565b9460200190565b929101620003c1565b602080825262000125929101906200039a565b3462000114576200041b36600462000189565b620001856200042962000aae565b60405191829182620003f5565b3462000114576200044936600462000189565b6200018062000aff565b3462000114576200046636600462000189565b620001856200037e62000b09565b9081610280910312620001145790565b90602082820312620001145781356001600160401b038111620001145762000125920162000474565b620001856200037e620004c236600462000484565b62000fd2565b34620001145762000180620004df3660046200014c565b620013e5565b8062000133565b905035906200014a82620004e5565b9060208282031262000114576200012591620004ec565b3462000114576200018062000529366004620004fb565b62001432565b634e487b7160e01b600052603260045260246000fd5b80548210156200056a5762000561600191600052602060002090565b91020190600090565b6200052f565b60cb5481101562000114576200058c620001259160cb62000545565b9062000325565b346200011457620001856200037e620005ae366004620004fb565b62000570565b62000125916008021c81565b90620001259154620005b4565b62000125600060ca620005c0565b346200011457620005ee36600462000189565b6200018562000300620005cd565b34620001145762000180620006133660046200014c565b620014e0565b620001259062000119906001600160a01b031682565b620001259062000619565b62000125906200062f565b156200064d57565b60405162461bcd60e51b815260206004820152602c60248201526000805160206200213583398151915260448201526b19195b1959d85d1958d85b1b60a21b6064820152608490fd5b0390fd5b15620006a257565b60405162461bcd60e51b815260206004820152602c60248201526000805160206200213583398151915260448201526b6163746976652070726f787960a01b6064820152608490fd5b6200014a9062000763620006ff306200063a565b620007437f0000000000000000000000000000000000000000000000000000000000000000916200073b620007348462000119565b9162000119565b141562000645565b6200075c6200073462000755620014eb565b9262000119565b146200069a565b620007bc565b6200012562000125620001259290565b9062000789620002478362000207565b918252565b369037565b906200014a620007ae620007a78462000779565b9362000207565b601f1901602084016200078e565b60006200014a91620007ce8162001511565b620007e3620007dd8362000769565b62000793565b90620015cc565b6200014a90620006eb565b620007ff6200174e565b6200014a6200086a565b3d1562000826576200081b3d62000779565b903d6000602084013e565b606090565b156200083357565b60405162461bcd60e51b815260206004820152600f60248201526e151c985b9cd9995c8819985a5b1959608a1b6044820152606490fd5b6200014a60008062000889620008836200088362000b09565b6200063a565b62000894306200063a565b316200089f60405190565b90818003925af1620008b062000809565b506200082b565b6200014a620007f5565b906200014a91620008d6620006ff306200063a565b6200014a91600191620008e98162001511565b620015cc565b906200014a91620008c1565b156200090357565b60405162461bcd60e51b815260206004820152603860248201527f555550535570677261646561626c653a206d757374206e6f742062652063616c6044820152771b1959081d1a1c9bdd59da0819195b1959d85d1958d85b1b60421b6064820152608490fd5b6200012590620009b36200097d306200063a565b620009ac620007347f000000000000000000000000000000000000000000000000000000000000000062000119565b14620008fb565b620009e4565b620001257f360894a13ba1a3210667c828492db98dca3e2076cc3735a920a3ca505d382bbc62000769565b5062000125620009b9565b62000125600062000969565b620001259062000119565b620001259054620009fb565b9062000a3062000a24620003ac845490565b92600052602060002090565b9060005b81811062000a425750505090565b90919262000a6862000a6160019262000a5b8762000a06565b6200038b565b9460010190565b92910162000a34565b90620001259162000a12565b906200014a62000a9b9262000a9160405190565b9384809262000a71565b0383620001c8565b620001259062000a7d565b6200012560cb62000aa3565b62000ac46200174e565b6200014a62000ae9565b6200011962000125620001259290565b620001259062000ace565b6200014a62000af9600062000ade565b62001772565b6200014a62000aba565b62000125609762000a06565b620001259081565b62000125905462000b15565b1562000b3157565b60405162461bcd60e51b815260206004820152601b60248201527a496e73756666696369656e74206465706c6f796d656e742066656560281b6044820152606490fd5b9035601e19368390030181121562000114570160208101919035906001600160401b03821162000114573682900383136200011457565b919062000bcd8162000bc581620002249560209181520190565b809562000228565b601f01601f191690565b5062000125906020810190620004ec565b50620001259060208101906200013b565b80151562000133565b905035906200014a8262000bf9565b506200012590602081019062000c02565b90620001259061026062000e5d62000c7262000c54610280850162000c48888062000b74565b87830388529062000bab565b62000c63602088018862000b74565b90868303602088015262000bab565b9462000c8d62000c86604083018362000bd7565b6040860152565b62000ca762000ca0606083018362000bd7565b6060860152565b62000cc562000cba608083018362000be8565b608086019062000340565b62000ce162000cd860a083018362000c11565b151560a0860152565b62000cfd62000cf460c083018362000c11565b151560c0860152565b62000d1762000d1060e083018362000bd7565b60e0860152565b62000d3362000d2b61010083018362000bd7565b610100860152565b62000d4f62000d4761012083018362000bd7565b610120860152565b62000d6b62000d6361014083018362000bd7565b610140860152565b62000d8762000d7f61016083018362000bd7565b610160860152565b62000da362000d9b61018083018362000bd7565b610180860152565b62000dbf62000db76101a083018362000bd7565b6101a0860152565b62000ddb62000dd36101c083018362000bd7565b6101c0860152565b62000df762000def6101e083018362000bd7565b6101e0860152565b62000e1762000e0b61020083018362000be8565b61020086019062000340565b62000e3362000e2b61022083018362000bd7565b610220860152565b62000e5362000e4761024083018362000be8565b61024086019062000340565b8281019062000bd7565b910152565b6020808252620001259291019062000c22565b60005b83811062000e895750506000910152565b818101518382015260200162000e78565b62000ebf62000bcd602093620002249362000eb3815190565b80835293849260200190565b9586910162000e75565b91620001259262000ee36040820193600083019062000340565b602081840391015262000e9a565b6040513d6000823e3d90fd5b916001600160a01b0360089290920291821b911b5b9181191691161790565b919062000f316200012562000f3a936200063a565b90835462000efd565b9055565b80549190600160401b831015620001ea578262000f659160016200014a9501815562000545565b9062000f1c565b903590601e1936829003018212156200011457018035906001600160401b0382116200011457602001913682900383136200011457565b929062000fc3906200012595936040860191868303600088015262000bab565b92602081850391015262000bab565b62000fef62000fe66200012560ca62000b1d565b34101562000b29565b60405163229f92a160e01b6020820152620010238162001013846024830162000e62565b60208201810382520382620001c8565b6200102f60c962000a06565b604051916105e98301906001600160401b03821184831017620001ea57839262001062926105e962001b4c863962000ec9565b03906000f08015620010f3577fffc04f682c7b287e4b552dacd4b833d7c33dc0549cd6da84388408e4830c0562620010ca620010a2620010ed936200063a565b93620010b08560cb62000f3e565b620010bc818062000f6c565b929091602081019062000f6c565b620010d8879692966200063a565b95620010e360405190565b9485948562000fa3565b0390a290565b62000ef1565b620001259060081c5b60ff1690565b620001259054620010f9565b620001259062001102565b62000125905462001114565b6200110262000125620001259290565b156200114357565b60405162461bcd60e51b815260206004820152602e60248201527f496e697469616c697a61626c653a20636f6e747261637420697320616c72656160448201526d191e481a5b9a5d1a585b1a5e995960921b6064820152608490fd5b9060ff9062000f12565b6200110262000125620001259260ff1690565b90620011d06200012562000f3a92620011a9565b82546200119f565b9061ff009060081b62000f12565b90620011f96200012562000f3a92151590565b8254620011d8565b620002db906200112b565b6020810192916200014a919062001201565b620012766200123662001232600062001108565b1590565b9182806200132e575b8015620012dc575b62001252906200113b565b826200126b6200126360016200112b565b6000620011bc565b620012c857620013a5565b6200127d57565b6200128a600080620011e6565b7f7f26b83ff96e1f2b6a682f133852f6798a09c465da95921460cefb3847402498620012b560405190565b80620012c36001826200120c565b0390a1565b620012d660016000620011e6565b620013a5565b50620012f662001232620012f0306200063a565b620017cc565b8015620012475750620012526200130e60006200111f565b620013256200131e60016200112b565b9160ff1690565b14905062001247565b506200133b60006200111f565b6200134b6200131e60016200112b565b106200123f565b906001600160a01b039062000f12565b90620013766200012562000f3a926200063a565b825462001352565b906000199062000f12565b906200139d6200012562000f3a9262000769565b82546200137e565b620013c690620013b462001866565b620013be62001880565b60c962001362565b6200014a620013dd67016345785d8a000062000769565b60ca62001389565b6200014a906200121e565b6200014a90620013ff6200174e565b620012c37f40bd824d588484917db8fa4fc894c1e0feae5a75885290ba7b97521cebf82a8091620003008160ca62001389565b6200014a90620013f0565b6200014a906200144c6200174e565b620014ae565b156200145a57565b60405162461bcd60e51b815260206004820152602660248201527f4f776e61626c653a206e6577206f776e657220697320746865207a65726f206160448201526564647265737360d01b6064820152608490fd5b6200014a9062000af9620014cd620014c7600062000ade565b62000119565b620014d88362000119565b141562001452565b6200014a906200143d565b620001256000620014ff62000125620009b9565b0162000a06565b506200014a6200174e565b6200014a9062001506565b620001257f4910fdfa16fed3260ed0e7147f7cc6da11a60208b5b9406d12a635614ffd914362000769565b905051906200014a82620004e5565b906020828203126200011457620001259162001547565b156200157557565b60405162461bcd60e51b815260206004820152602960248201527f45524331393637557067726164653a20756e737570706f727465642070726f786044820152681a58589b195555525160ba1b6064820152608490fd5b9190620015e96000620015e2620001256200151c565b016200111f565b15620015fc5750506200014a9062001936565b6200160b62000883846200063a565b9260206200161860405190565b6352d1902d60e01b815294859060049082905afa60009481620016c4575b50620016985760405162461bcd60e51b815260206004820152602e60248201527f45524331393637557067726164653a206e657720696d706c656d656e7461746960448201526d6f6e206973206e6f74205555505360901b6064820152608490fd5b620016be6200014a94620016b7620016b362000125620009b9565b9190565b146200156d565b6200188a565b620016ec91955060203d602011620016f4575b620016e38183620001c8565b81019062001556565b933862001636565b503d620016d7565b156200170457565b60405162461bcd60e51b81528062000696600482016020808252818101527f4f776e61626c653a2063616c6c6572206973206e6f7420746865206f776e6572604082015260600190565b6200014a6200175c62000b09565b6200176b620007343362000119565b14620016fc565b6200179a6200179362001786609762000a06565b6200088384609762001362565b916200063a565b907f8be0079c531659141344cd1fd0a4f28419497f9722a3daafe3b4186f6b6457e0620017c660405190565b600090a3565b3b620017dd620016b3600062000769565b1190565b15620017e957565b60405162461bcd60e51b815260206004820152602b60248201527f496e697469616c697a61626c653a20636f6e7472616374206973206e6f74206960448201526a6e697469616c697a696e6760a81b6064820152608490fd5b6200185862001852600062001108565b620017e1565b6200014a6200014a62001983565b6200014a62001842565b6200014a62001852600062001108565b6200014a62001870565b9162001896836200198d565b8151620018a8620016b3600062000769565b11908115620018ca575b50620018bc575050565b620018c79162001a1d565b50565b905038620018b2565b15620018db57565b60405162461bcd60e51b815260206004820152602d60248201527f455243313936373a206e657720696d706c656d656e746174696f6e206973206e60448201526c1bdd08184818dbdb9d1c9858dd609a1b6064820152608490fd5b6200014a90620019506200194a82620017cc565b620018d3565b60006200196062000125620009b9565b0162001362565b6200197762001852600062001108565b6200014a803362001772565b6200014a62001967565b6200199d90620008838162001936565b7fbc7cd75a20ee27fd9adebab32041f755214dbc6bffa90cc0225b39da2e5c2d3b620019c860405190565b600090a2565b620019da602762000779565b7f416464726573733a206c6f772d6c6576656c2064656c65676174652063616c6c6020820152660819985a5b195960ca1b604082015290565b62000125620019ce565b620001259162001a2c62001a13565b9160008062000125949362001a3f606090565b50602081519101845af462001a5362000809565b9162001aa7565b1562001a6257565b60405162461bcd60e51b815260206004820152601d60248201527f416464726573733a2063616c6c20746f206e6f6e2d636f6e74726163740000006044820152606490fd5b9192901562001ae25750815162001ac3620016b3600062000769565b1462001acd575090565b62001adc6200012591620017cc565b62001a5a565b8262001afc565b6020808252620001259291019062000e9a565b9062001b06825190565b62001b16620016b3600062000769565b111562001b265750805190602001fd5b620006969062001b3560405190565b62461bcd60e51b81529182916004830162001ae956fe608060405261001561000f61016a565b9061018c565b60405160c3610526823960c390f35b634e487b7160e01b600052604160045260246000fd5b90601f01601f191681019081106001600160401b0382111761005b57604052565b610024565b9061007461006d60405190565b928361003a565b565b6001600160a01b031690565b90565b61008e81610076565b0361009557565b600080fd5b9050519061007482610085565b6001600160401b03811161005b57602090601f01601f19160190565b0190565b60005b8381106100da5750506000910152565b81810151838201526020016100ca565b909291926100ff6100fa826100a7565b610060565b9381855281830111610095576100749160208501906100c7565b9080601f83011215610095578151610082926020016100ea565b9190916040818403126100955761014a838261009a565b60208201519093906001600160401b038111610095576100829201610119565b6101886105e98038038061017d81610060565b928339810190610133565b9091565b610074916000916101a5565b6100826100826100829290565b916101af8361020e565b81516101c26101be6000610198565b9190565b119081156101e0575b506101d4575050565b6101dd916102ad565b50565b9050386101cb565b61008290610076906001600160a01b031682565b610082906101e8565b610082906101fc565b6102209061021b81610389565b610205565b7fbc7cd75a20ee27fd9adebab32041f755214dbc6bffa90cc0225b39da2e5c2d3b61024a60405190565b600090a2565b9061025d6100fa836100a7565b918252565b61026c6027610250565b7f416464726573733a206c6f772d6c6576656c2064656c65676174652063616c6c6020820152660819985a5b195960ca1b604082015290565b610082610262565b610082916102b96102a5565b916103d0565b6020808252602d908201527f455243313936373a206e657720696d706c656d656e746174696f6e206973206e60408201526c1bdd08184818dbdb9d1c9858dd609a1b606082015260800190565b1561031357565b60405162461bcd60e51b81528061032c600482016102bf565b0390fd5b6100827f360894a13ba1a3210667c828492db98dca3e2076cc3735a920a3ca505d382bbc610198565b9061036961008261038592610205565b82546001600160a01b0319166001600160a01b03919091161790565b9055565b6100749061039e610399826103f8565b61030c565b60006103ab610082610330565b01610359565b3d156103cb576103c03d610250565b903d6000602084013e565b606090565b60008061008294936103e0606090565b50602081519101845af46103f26103b1565b91610461565b3b6104066101be6000610198565b1190565b6020808252601d908201527f416464726573733a2063616c6c20746f206e6f6e2d636f6e7472616374000000604082015260600190565b1561044857565b60405162461bcd60e51b81528061032c6004820161040a565b91929015610493575081516104796101be6000610198565b14610482575090565b61048e610082916103f8565b610441565b826104de565b6104ba6104c36020936100c3936104ae815190565b80835293849260200190565b958691016100c7565b601f01601f191690565b602080825261008292910190610499565b906104e7825190565b6104f46101be6000610198565b11156105035750805190602001fd5b61032c9061051060405190565b62461bcd60e51b8152918291600483016104cd56fe6080604052600a600e565b6017565b6014607c565b90565b60008091368280378136915af43d6000803e156032573d6000f35b3d6000fd5b6014601460149290565b60147f360894a13ba1a3210667c828492db98dca3e2076cc3735a920a3ca505d382bbc6037565b6001600160a01b031690565b601490546068565b60146000608860146041565b01607456fea26469706673582212200ad4ac51629ce32ff36896c3191fd47fcb9b0a0892e6281467f168c50548841064736f6c6343000816003346756e6374696f6e206d7573742062652063616c6c6564207468726f75676820a26469706673582212204844b1e8ce92e3f536183f14a46503f08880982b78929be7f3ffc3b7a0df44f364736f6c63430008160033",
  "linkReferences": {},
  "deployedLinkReferences": {}
}