{
  "_format": "hh-sol-artifact-1",
  "contractName": "TokenVesting",
  "sourceName": "contracts/core/TokenVesting.sol",
  "abi": [
    {
      "inputs": [
        {
          "internalType": "address",
          "name": "_token",
          "type": "address"
        },
        {
          "internalType": "address",
          "name": "_beneficiary",
          "type": "address"
        },
        {
          "internalType": "uint256",
          "name": "_startTime",
          "type": "uint256"
        },
        {
          "internalType": "uint256",
          "name": "_cliffDuration",
          "type": "uint256"
        },
        {
          "internalType": "uint256",
          "name": "_duration",
          "type": "uint256"
        },
        {
          "internalType": "bool",
          "name": "_revocable",
          "type": "bool"
        }
      ],
      "stateMutability": "nonpayable",
      "type": "constructor"
    },
    {
      "anonymous": false,
      "inputs": [
        {
          "indexed": true,
          "internalType": "address",
          "name": "previousOwner",
          "type": "address"
        },
        {
          "indexed": true,
          "internalType": "address",
          "name": "newOwner",
          "type": "address"
        }
      ],
      "name": "OwnershipTransferred",
      "type": "event"
    },
    {
      "anonymous": false,
      "inputs": [
        {
          "indexed": false,
          "internalType": "uint256",
          "name": "amount",
          "type": "uint256"
        }
      ],
      "name": "TokensReleased",
      "type": "event"
    },
    {
      "anonymous": false,
      "inputs": [],
      "name": "VestingRevoked",
      "type": "event"
    },
    {
      "inputs": [],
      "name": "beneficiary",
      "outputs": [
        {
          "internalType": "address",
          "name": "",
          "type": "address"
        }
      ],
      "stateMutability": "view",
      "type": "function"
    },
    {
      "inputs": [],
      "name": "getVestingSchedule",
      "outputs": [
        {
          "internalType": "uint256",
          "name": "total",
          "type": "uint256"
        },
        {
          "internalType": "uint256",
          "name": "released",
          "type": "uint256"
        },
        {
          "internalType": "uint256",
          "name": "start",
          "type": "uint256"
        },
        {
          "internalType": "uint256",
          "name": "cliff",
          "type": "uint256"
        },
        {
          "internalType": "uint256",
          "name": "end",
          "type": "uint256"
        },
        {
          "internalType": "bool",
          "name": "isRevocable",
          "type": "bool"
        },
        {
          "internalType": "bool",
          "name": "isRevoked",
          "type": "bool"
        }
      ],
      "stateMutability": "view",
      "type": "function"
    },
    {
      "inputs": [],
      "name": "owner",
      "outputs": [
        {
          "internalType": "address",
          "name": "",
          "type": "address"
        }
      ],
      "stateMutability": "view",
      "type": "function"
    },
    {
      "inputs": [],
      "name": "releasableAmount",
      "outputs": [
        {
          "internalType": "uint256",
          "name": "",
          "type": "uint256"
        }
      ],
      "stateMutability": "view",
      "type": "function"
    },
    {
      "inputs": [],
      "name": "release",
      "outputs": [],
      "stateMutability": "nonpayable",
      "type": "function"
    },
    {
      "inputs": [],
      "name": "renounceOwnership",
      "outputs": [],
      "stateMutability": "nonpayable",
      "type": "function"
    },
    {
      "inputs": [],
      "name": "revoke",
      "outputs": [],
      "stateMutability": "nonpayable",
      "type": "function"
    },
    {
      "inputs": [
        {
          "internalType": "uint256",
          "name": "_amount",
          "type": "uint256"
        }
      ],
      "name": "setTotalAmount",
      "outputs": [],
      "stateMutability": "nonpayable",
      "type": "function"
    },
    {
      "inputs": [],
      "name": "token",
      "outputs": [
        {
          "internalType": "contract IERC20",
          "name": "",
          "type": "address"
        }
      ],
      "stateMutability": "view",
      "type": "function"
    },
    {
      "inputs": [
        {
          "internalType": "address",
          "name": "newOwner",
          "type": "address"
        }
      ],
      "name": "transferOwnership",
      "outputs": [],
      "stateMutability": "nonpayable",
      "type": "function"
    },
    {
      "inputs": [],
      "name": "vestedAmount",
      "outputs": [
        {
          "internalType": "uint256",
          "name": "",
          "type": "uint256"
        }
      ],
      "stateMutability": "view",
      "type": "function"
    },
    {
      "inputs": [],
      "name": "vestingSchedule",
      "outputs": [
        {
          "internalType": "uint256",
          "name": "totalAmount",
          "type": "uint256"
        },
        {
          "internalType": "uint256",
          "name": "startTime",
          "type": "uint256"
        },
        {
          "internalType": "uint256",
          "name": "cliffDuration",
          "type": "uint256"
        },
        {
          "internalType": "uint256",
          "name": "duration",
          "type": "uint256"
        },
        {
          "internalType": "uint256",
          "name": "releasedAmount",
          "type": "uint256"
        },
        {
          "internalType": "bool",
          "name": "revocable",
          "type": "bool"
        },
        {
          "internalType": "bool",
          "name": "revoked",
          "type": "bool"
        }
      ],
      "stateMutability": "view",
      "type": "function"
    }
  ],
  "bytecode": "0x608060405234801561001057600080fd5b50604051610c3c380380610c3c83398101604081905261002f91610257565b610038336101eb565b600180556001600160a01b0385166100a95760405162461bcd60e51b815260206004820152602960248201527f546f6b656e56657374696e673a2062656e6566696369617279206973207a65726044820152686f206164647265737360b81b60648201526084015b60405180910390fd5b600082116100f95760405162461bcd60e51b815260206004820152601b60248201527f546f6b656e56657374696e673a206475726174696f6e2069732030000000000060448201526064016100a0565b828210156101495760405162461bcd60e51b815260206004820152601e60248201527f546f6b656e56657374696e673a206475726174696f6e203c20636c696666000060448201526064016100a0565b600280546001600160a01b03199081166001600160a01b03988916179091556003805490911695909616949094179094556040805160e081018252600080825260208201859052918101839052606081018690526080810182905293151560a0850181905260c090940181905260048190556005929092556006556007929092556008919091556009805461ffff191661ff00199092169190911790556102bf565b600080546001600160a01b038381166001600160a01b0319831681178455604051919092169283917f8be0079c531659141344cd1fd0a4f28419497f9722a3daafe3b4186f6b6457e09190a35050565b80516001600160a01b038116811461025257600080fd5b919050565b60008060008060008060c0878903121561027057600080fd5b6102798761023b565b95506102876020880161023b565b945060408701519350606087015192506080870151915060a087015180151581146102b157600080fd5b809150509295509295509295565b61096e806102ce6000396000f3fe608060405234801561001057600080fd5b50600436106100b45760003560e01c8063715018a611610071578063715018a61461018757806386d1a69f1461018f5780638da5cb5b14610197578063b6549f75146101a8578063f2fde38b146101b0578063fc0c546a146101c357600080fd5b806338af3eed146100b95780633a05f0d8146100e957806344b1231f1461012a5780634b680444146101405780635b9400811461016a57806360df8a1f14610172575b600080fd5b6003546100cc906001600160a01b031681565b6040516001600160a01b0390911681526020015b60405180910390f35b6100f16101d6565b6040805197885260208801969096529486019390935260608501919091526080840152151560a0830152151560c082015260e0016100e0565b61013261022a565b6040519081526020016100e0565b6004546005546006546007546008546009546100f195949392919060ff8082169161010090041687565b6101326102a8565b61018561018036600461083f565b6102c0565b005b610185610331565b610185610345565b6000546001600160a01b03166100cc565b610185610470565b6101856101be366004610858565b61068a565b6002546100cc906001600160a01b031681565b600454600854600554600654600754600094859485948594859485948594909390929091610205908390610703565b600954949c939b509199509750955060ff808316955061010090920490911692509050565b60065460055460009161023d9190610703565b42101561024a5750600090565b60075460055461025991610703565b4210158061026e5750600954610100900460ff165b1561027a575060045490565b6007546005546102a3919061029d90610294904290610718565b60045490610724565b90610730565b905090565b60006102a360048001546102ba61022a565b90610718565b6102c861073c565b6004541561032c5760405162461bcd60e51b815260206004820152602660248201527f546f6b656e56657374696e673a20746f74616c20616d6f756e7420616c726561604482015265191e481cd95d60d21b60648201526084015b60405180910390fd5b600455565b61033961073c565b6103436000610796565b565b61034d6107e6565b60006103576102a8565b9050600081116103a95760405162461bcd60e51b815260206004820152601f60248201527f546f6b656e56657374696e673a206e6f20746f6b656e732061726520647565006044820152606401610323565b6008546103b69082610703565b60085560025460035460405163a9059cbb60e01b81526001600160a01b0391821660048201526024810184905291169063a9059cbb906044016020604051808303816000875af115801561040e573d6000803e3d6000fd5b505050506040513d601f19601f820116820180604052508101906104329190610888565b506040518181527fa1598fb976f7dd9df63fd18699c54a5744a6a95364166bbd0d77a2f6c8438b1f9060200160405180910390a15061034360018055565b61047861073c565b60095460ff166104ca5760405162461bcd60e51b815260206004820152601b60248201527f546f6b656e56657374696e673a2063616e6e6f74207265766f6b6500000000006044820152606401610323565b600954610100900460ff161561052e5760405162461bcd60e51b815260206004820152602360248201527f546f6b656e56657374696e673a20746f6b656e20616c7265616479207265766f6044820152621ad95960ea1b6064820152608401610323565b6002546040516370a0823160e01b81523060048201526000916001600160a01b0316906370a0823190602401602060405180830381865afa158015610577573d6000803e3d6000fd5b505050506040513d601f19601f8201168201806040525081019061059b91906108aa565b905060006105a76102a8565b905060006105b58383610718565b6009805461ff0019166101001790556002549091506001600160a01b031663a9059cbb6105ea6000546001600160a01b031690565b6040516001600160e01b031960e084901b1681526001600160a01b039091166004820152602481018490526044016020604051808303816000875af1158015610637573d6000803e3d6000fd5b505050506040513d601f19601f8201168201806040525081019061065b9190610888565b506040517fab9bb9a2dbce8eb1c5199596521d57563c7289fb1ac680030c44e9a0d16e6ed090600090a1505050565b61069261073c565b6001600160a01b0381166106f75760405162461bcd60e51b815260206004820152602660248201527f4f776e61626c653a206e6577206f776e657220697320746865207a65726f206160448201526564647265737360d01b6064820152608401610323565b61070081610796565b50565b600061070f82846108d9565b90505b92915050565b600061070f82846108ec565b600061070f82846108ff565b600061070f8284610916565b6000546001600160a01b031633146103435760405162461bcd60e51b815260206004820181905260248201527f4f776e61626c653a2063616c6c6572206973206e6f7420746865206f776e65726044820152606401610323565b600080546001600160a01b038381166001600160a01b0319831681178455604051919092169283917f8be0079c531659141344cd1fd0a4f28419497f9722a3daafe3b4186f6b6457e09190a35050565b6002600154036108385760405162461bcd60e51b815260206004820152601f60248201527f5265656e7472616e637947756172643a207265656e7472616e742063616c6c006044820152606401610323565b6002600155565b60006020828403121561085157600080fd5b5035919050565b60006020828403121561086a57600080fd5b81356001600160a01b038116811461088157600080fd5b9392505050565b60006020828403121561089a57600080fd5b8151801515811461088157600080fd5b6000602082840312156108bc57600080fd5b5051919050565b634e487b7160e01b600052601160045260246000fd5b80820180821115610712576107126108c3565b81810381811115610712576107126108c3565b8082028115828204841417610712576107126108c3565b60008261093357634e487b7160e01b600052601260045260246000fd5b50049056fea2646970667358221220eef3f6a8cd9653b3f3250b97bdefbc273a27f8473b1119d53fb562fa5694570964736f6c63430008140033",
  "linkReferences": {},
  "deployedLinkReferences": {}
}