{
  "_format": "hh-sol-artifact-1",
  "contractName": "TokenFactory_v1",
  "sourceName": "src/contracts/TokenFactory_v1.sol",
  "abi": [
    {
      "inputs": [
        {
          "internalType": "uint256",
          "name": "initialFee",
          "type": "uint256"
        }
      ],
      "stateMutability": "nonpayable",
      "type": "constructor"
    },
    {
      "anonymous": false,
      "inputs": [
        {
          "indexed": false,
          "internalType": "uint256",
          "name": "newFee",
          "type": "uint256"
        }
      ],
      "name": "DeploymentFeeUpdated",
      "type": "event"
    },
    {
      "anonymous": false,
      "inputs": [
        {
          "indexed": true,
          "internalType": "address",
          "name": "previousOwner",
          "type": "address"
        },
        {
          "indexed": true,
          "internalType": "address",
          "name": "newOwner",
          "type": "address"
        }
      ],
      "name": "OwnershipTransferred",
      "type": "event"
    },
    {
      "anonymous": false,
      "inputs": [
        {
          "indexed": true,
          "internalType": "address",
          "name": "token",
          "type": "address"
        },
        {
          "indexed": false,
          "internalType": "string",
          "name": "name",
          "type": "string"
        },
        {
          "indexed": false,
          "internalType": "string",
          "name": "symbol",
          "type": "string"
        },
        {
          "indexed": true,
          "internalType": "address",
          "name": "owner",
          "type": "address"
        },
        {
          "indexed": false,
          "internalType": "uint256",
          "name": "initialSupply",
          "type": "uint256"
        },
        {
          "indexed": false,
          "internalType": "uint256",
          "name": "maxSupply",
          "type": "uint256"
        },
        {
          "indexed": false,
          "internalType": "bool",
          "name": "blacklistEnabled",
          "type": "bool"
        },
        {
          "indexed": false,
          "internalType": "bool",
          "name": "timeLockEnabled",
          "type": "bool"
        },
        {
          "indexed": false,
          "internalType": "uint256",
          "name": "deploymentTime",
          "type": "uint256"
        }
      ],
      "name": "TokenCreated",
      "type": "event"
    },
    {
      "inputs": [],
      "name": "VERSION",
      "outputs": [
        {
          "internalType": "string",
          "name": "",
          "type": "string"
        }
      ],
      "stateMutability": "view",
      "type": "function"
    },
    {
      "inputs": [],
      "name": "VERSION_HASH",
      "outputs": [
        {
          "internalType": "bytes32",
          "name": "",
          "type": "bytes32"
        }
      ],
      "stateMutability": "view",
      "type": "function"
    },
    {
      "inputs": [
        {
          "internalType": "string",
          "name": "name",
          "type": "string"
        },
        {
          "internalType": "string",
          "name": "symbol",
          "type": "string"
        },
        {
          "internalType": "uint256",
          "name": "initialSupply",
          "type": "uint256"
        },
        {
          "internalType": "uint256",
          "name": "maxSupply",
          "type": "uint256"
        },
        {
          "internalType": "bool",
          "name": "enableBlacklist",
          "type": "bool"
        },
        {
          "internalType": "bool",
          "name": "enableTimeLock",
          "type": "bool"
        }
      ],
      "name": "createToken",
      "outputs": [],
      "stateMutability": "payable",
      "type": "function"
    },
    {
      "inputs": [],
      "name": "deploymentFee",
      "outputs": [
        {
          "internalType": "uint256",
          "name": "",
          "type": "uint256"
        }
      ],
      "stateMutability": "view",
      "type": "function"
    },
    {
      "inputs": [],
      "name": "getDeployedTokens",
      "outputs": [
        {
          "internalType": "address[]",
          "name": "",
          "type": "address[]"
        }
      ],
      "stateMutability": "view",
      "type": "function"
    },
    {
      "inputs": [
        {
          "internalType": "address",
          "name": "token",
          "type": "address"
        }
      ],
      "name": "getTokenDeployer",
      "outputs": [
        {
          "internalType": "address",
          "name": "",
          "type": "address"
        }
      ],
      "stateMutability": "view",
      "type": "function"
    },
    {
      "inputs": [
        {
          "internalType": "address",
          "name": "user",
          "type": "address"
        }
      ],
      "name": "getTokensByUser",
      "outputs": [
        {
          "internalType": "address[]",
          "name": "",
          "type": "address[]"
        }
      ],
      "stateMutability": "view",
      "type": "function"
    },
    {
      "inputs": [],
      "name": "owner",
      "outputs": [
        {
          "internalType": "address",
          "name": "",
          "type": "address"
        }
      ],
      "stateMutability": "view",
      "type": "function"
    },
    {
      "inputs": [],
      "name": "renounceOwnership",
      "outputs": [],
      "stateMutability": "nonpayable",
      "type": "function"
    },
    {
      "inputs": [
        {
          "internalType": "uint256",
          "name": "newFee",
          "type": "uint256"
        }
      ],
      "name": "setDeploymentFee",
      "outputs": [],
      "stateMutability": "nonpayable",
      "type": "function"
    },
    {
      "inputs": [],
      "name": "tokenImplementation",
      "outputs": [
        {
          "internalType": "contract TokenTemplate_v1",
          "name": "",
          "type": "address"
        }
      ],
      "stateMutability": "view",
      "type": "function"
    },
    {
      "inputs": [
        {
          "internalType": "address",
          "name": "newOwner",
          "type": "address"
        }
      ],
      "name": "transferOwnership",
      "outputs": [],
      "stateMutability": "nonpayable",
      "type": "function"
    },
    {
      "inputs": [],
      "name": "withdrawFees",
      "outputs": [],
      "stateMutability": "nonpayable",
      "type": "function"
    }
  ],
  "bytecode": "0x60a06040523462000040576200001e62000018620000b0565b6200011f565b60405161166e620002c1823960805181818161018e0152610c08015261166e90f35b600080fd5b634e487b7160e01b600052604160045260246000fd5b90601f01601f191681019081106001600160401b038211176200007d57604052565b62000045565b906200009a6200009260405190565b92836200005b565b565b906020828203126200004057505190565b90565b620000ad6200428480380380620000c78162000083565b9283398101906200009c565b90600019905b9181191691161790565b620000ad620000ad620000ad9290565b9062000107620000ad6200010f92620000e3565b8254620000d3565b9055565b6040513d6000823e3d90fd5b6200016c7f40bd824d588484917db8fa4fc894c1e0feae5a75885290ba7b97521cebf82a80916200014f620001bf565b6200015c816002620000f3565b6040519182918290815260200190565b0390a160405161295581016001600160401b038111828210176200007d576200019c82916129556200192f843990565b03906000f08015620001ad57608052565b62000113565b620000ad6001620000e3565b620001c9620001df565b6200009a620001d7620001b3565b6001620000f3565b6200009a3362000260565b620000ad905b6001600160a01b031690565b620000ad9054620001ea565b906001600160a01b0390620000d9565b620000ad90620001f0906001600160a01b031682565b620000ad9062000218565b620000ad906200022e565b9062000258620000ad6200010f9262000239565b825462000208565b6200028e62000287620002746000620001fc565b6200028184600062000244565b62000239565b9162000239565b907f8be0079c531659141344cd1fd0a4f28419497f9722a3daafe3b4186f6b6457e0620002ba60405190565b600090a356fe608060405260043610156200001357600080fd5b60003560e01c80632f3a3d5d14620000fc578063476343ee14620000f6578063622ae7aa14620000f0578063715018a614620000ea5780637c9b544514620000e45780638037007514620000de5780638da5cb5b14620000d85780639e4e731814620000d2578063b14e7ee614620000cc578063d002462b14620000c6578063f2cff57f14620000c0578063f2fde38b14620000ba5763ffa1ad7403620001025762000726565b620006b3565b62000692565b6200064e565b62000616565b620005e5565b620004c3565b62000490565b62000441565b62000294565b62000266565b620001b8565b62000171565b600080fd5b60009103126200010257565b62000129906200012c906001600160a01b031682565b90565b6001600160a01b031690565b620001299062000113565b620001299062000138565b620001599062000143565b9052565b6020810192916200016f91906200014e565b565b3462000102576200018436600462000107565b60405180620001b47f0000000000000000000000000000000000000000000000000000000000000000826200015d565b0390f35b346200010257620001cb36600462000107565b620001d562000819565b604051005b62000159906200012c565b90620001f481602093620001da565b0190565b906200021b620002146200020a845190565b8084529260200190565b9260200190565b9060005b8181106200022d5750505090565b9091926200024a620002436001928651620001e5565b9460200190565b9291016200021f565b60208082526200012992910190620001f8565b3462000102576200027936600462000107565b620001b462000287620008d6565b6040519182918262000253565b346200010257620002a736600462000107565b620001d562000927565b634e487b7160e01b600052604160045260246000fd5b90601f01601f191681019081106001600160401b03821117620002e957604052565b620002b1565b906200016f620002fe60405190565b9283620002c7565b6001600160401b038111620002e957602090601f01601f19160190565b90826000939282370152565b9092919262000348620003428262000306565b620002ef565b938185528183011162000102576200016f91602085019062000323565b9080601f83011215620001025781602062000129933591016200032f565b805b036200010257565b905035906200016f8262000383565b80151562000385565b905035906200016f826200039c565b909160c082840312620001025781356001600160401b038111620001025783620003e091840162000365565b9260208301356001600160401b0381116200010257816200040391850162000365565b926200041382604083016200038d565b92620001296200042784606085016200038d565b9360a0620004398260808701620003a5565b9401620003a5565b620001d562000452366004620003b4565b9493909392919262000d18565b62000385816200012c565b905035906200016f826200045f565b90602082820312620001025762000129916200046a565b346200010257620001b462000287620004ab36600462000479565b62000d28565b6020810192916200016f9190620001da565b346200010257620004d636600462000107565b620001b4620004e462000d49565b60405191829182620004b1565b9062000501620003428362000306565b918252565b620005126005620004f1565b640312e302e360dc1b602082015290565b6200012962000506565b6200012962000523565b60005b8381106200054b5750506000910152565b81810151838201526020016200053a565b620001f4620005779260209262000571815190565b94859290565b9384910162000537565b62000129916200055c565b620005966200052d565b620005c3620005a460405190565b8092620005b660208301918262000581565b90810382520382620002c7565b620005d7620005d0825190565b9160200190565b2090565b620001296200058c565b346200010257620005f836600462000107565b620001b462000606620005db565b6040519182918290815260200190565b346200010257620001b4620004e46200063136600462000479565b62000d55565b90602082820312620001025762000129916200038d565b346200010257620001d56200066536600462000637565b62000dfa565b62000129916008021c81565b906200012991546200066b565b620001296000600262000677565b346200010257620006a536600462000107565b620001b46200060662000684565b346200010257620001d5620006ca36600462000479565b62000eb5565b620001296200052d565b620006ff62000709602093620001f493620006f3815190565b80835293849260200190565b9586910162000537565b601f01601f191690565b60208082526200012992910190620006da565b3462000102576200073936600462000107565b620001b462000747620006d0565b6040519182918262000713565b6200075e62000f18565b6200016f620007da565b3d1562000785576200077a3d620004f1565b903d6000602084013e565b606090565b6020808252600f908201526e151c985b9cd9995c8819985a5b1959608a1b604082015260600190565b15620007bb57565b60405162461bcd60e51b815280620007d6600482016200078a565b0390fd5b6200016f600080620007ec3062000143565b31620007f760405190565b80620008038162000129565b0391335af16200081262000768565b50620007b3565b6200016f62000754565b62000129906200012c565b62000129905462000823565b90620008586200084c6200020a845490565b92600052602060002090565b9060005b8181106200086a5750505090565b909192620008906200088960019262000883876200082e565b620001e5565b9460010190565b9291016200085c565b9062000129916200083a565b906200016f620008c392620008b960405190565b9384809262000899565b0383620002c7565b6200012990620008a5565b620001296003620008cb565b620008ec62000f18565b6200016f62000911565b6200012c62000129620001299290565b6200012990620008f6565b6200016f62000921600062000906565b62000f43565b6200016f620008e2565b906200094b95949392916200094562001005565b62000ba8565b6200016f62001041565b620001299081565b62000129905462000955565b6020808252601b908201527a496e73756666696369656e74206465706c6f796d656e742066656560281b604082015260600190565b15620009a657565b60405162461bcd60e51b815280620007d66004820162000969565b9297969462000a259062000a1a60c09662000a1362000a0b62000a2e97620009fc6200016f9d9860e08c01908c6000818403910152620006da565b908a820360208c0152620006da565b9c6040890152565b6060870152565b6080850190620001da565b151560a0830152565b019015159052565b91620001299262000a5060408201936000830190620001da565b6020818403910152620006da565b6040513d6000823e3d90fd5b634e487b7160e01b600052603260045260246000fd5b805482101562000aa55762000a9c600191600052602060002090565b91020190600090565b62000a6a565b916001600160a01b0360089290920291821b911b5b9181191691161790565b919062000adf6200012962000ae89362000143565b90835462000aab565b9055565b80549190600160401b831015620002e9578262000b139160016200016f9501815562000a80565b9062000aca565b9062000b269062000143565b600052602052604060002090565b906001600160a01b039062000ac0565b9062000b586200012962000ae89262000143565b825462000b34565b9297969462000a259062000b9b60c09662000a1362000a0b62000ba497620009fc6200016f9d9860e08c01908c6000818403910152620006da565b15156080850152565b0152565b94929462000bc862000bbf6200012960026200095d565b3410156200099e565b6040516306b51ae560e51b602082015262000c028162000bf28789338c8a8a8a60248901620009c1565b60208201810382520382620002c7565b62000c2d7f000000000000000000000000000000000000000000000000000000000000000062000143565b604051916105e98301906001600160401b03821184831017620002e957839262000c60926105e962001050863962000a36565b03906000f090811562000d12577f89ecfc33d2a43016e717c18dee2db6a3f8b15851f7f5b885254663ed9fa9ab369462000cea62000ca262000d0d9462000143565b62000cb581600362000aec565b62000aec565b62000ccb8162000caf6200012933600462000b1a565b62000ce462000cdc82600562000b1a565b339062000b44565b62000143565b9662000cf63362000143565b9862000d0160405190565b96879642958862000b60565b0390a3565b62000a5e565b906200016f959493929162000931565b62000d43620001299162000d3a606090565b50600462000b1a565b620008cb565b6200012960006200082e565b62000d70620001299162000d67600090565b50600562000b1a565b6200082e565b6200016f9062000d8562000f18565b62000dc2565b906000199062000ac0565b6200012962000129620001299290565b9062000dba6200012962000ae89262000d96565b825462000d8b565b62000df57f40bd824d588484917db8fa4fc894c1e0feae5a75885290ba7b97521cebf82a80916200060681600262000da6565b0390a1565b6200016f9062000d76565b6200016f9062000e1462000f18565b62000e83565b60208082526026908201527f4f776e61626c653a206e6577206f776e657220697320746865207a65726f206160408201526564647265737360d01b606082015260800190565b1562000e6857565b60405162461bcd60e51b815280620007d66004820162000e1a565b6200016f906200092162000ea262000e9c600062000906565b6200012c565b62000ead836200012c565b141562000e60565b6200016f9062000e05565b6020808252818101527f4f776e61626c653a2063616c6c6572206973206e6f7420746865206f776e6572604082015260600190565b1562000efd57565b60405162461bcd60e51b815280620007d66004820162000ec0565b6200016f62000f2662000d49565b62000f3c62000f35336200012c565b916200012c565b1462000ef5565b62000f6b62000f6462000f5760006200082e565b62000ce484600062000b44565b9162000143565b907f8be0079c531659141344cd1fd0a4f28419497f9722a3daafe3b4186f6b6457e062000f9760405190565b808062000d0d565b62000129600262000d96565b6020808252601f908201527f5265656e7472616e637947756172643a207265656e7472616e742063616c6c00604082015260600190565b1562000fea57565b60405162461bcd60e51b815280620007d66004820162000fab565b6200016f6200101560016200095d565b6200102d6200102362000f9f565b9182141562000fe2565b600162000da6565b62000129600162000d96565b6200016f6200102d6200103556fe608060405261001561000f61016a565b9061018c565b60405160c3610526823960c390f35b634e487b7160e01b600052604160045260246000fd5b90601f01601f191681019081106001600160401b0382111761005b57604052565b610024565b9061007461006d60405190565b928361003a565b565b6001600160a01b031690565b90565b61008e81610076565b0361009557565b600080fd5b9050519061007482610085565b6001600160401b03811161005b57602090601f01601f19160190565b0190565b60005b8381106100da5750506000910152565b81810151838201526020016100ca565b909291926100ff6100fa826100a7565b610060565b9381855281830111610095576100749160208501906100c7565b9080601f83011215610095578151610082926020016100ea565b9190916040818403126100955761014a838261009a565b60208201519093906001600160401b038111610095576100829201610119565b6101886105e98038038061017d81610060565b928339810190610133565b9091565b610074916000916101a5565b6100826100826100829290565b916101af8361020e565b81516101c26101be6000610198565b9190565b119081156101e0575b506101d4575050565b6101dd916102ad565b50565b9050386101cb565b61008290610076906001600160a01b031682565b610082906101e8565b610082906101fc565b6102209061021b81610389565b610205565b7fbc7cd75a20ee27fd9adebab32041f755214dbc6bffa90cc0225b39da2e5c2d3b61024a60405190565b600090a2565b9061025d6100fa836100a7565b918252565b61026c6027610250565b7f416464726573733a206c6f772d6c6576656c2064656c65676174652063616c6c6020820152660819985a5b195960ca1b604082015290565b610082610262565b610082916102b96102a5565b916103d0565b6020808252602d908201527f455243313936373a206e657720696d706c656d656e746174696f6e206973206e60408201526c1bdd08184818dbdb9d1c9858dd609a1b606082015260800190565b1561031357565b60405162461bcd60e51b81528061032c600482016102bf565b0390fd5b6100827f360894a13ba1a3210667c828492db98dca3e2076cc3735a920a3ca505d382bbc610198565b9061036961008261038592610205565b82546001600160a01b0319166001600160a01b03919091161790565b9055565b6100749061039e610399826103f8565b61030c565b60006103ab610082610330565b01610359565b3d156103cb576103c03d610250565b903d6000602084013e565b606090565b60008061008294936103e0606090565b50602081519101845af46103f26103b1565b91610461565b3b6104066101be6000610198565b1190565b6020808252601d908201527f416464726573733a2063616c6c20746f206e6f6e2d636f6e7472616374000000604082015260600190565b1561044857565b60405162461bcd60e51b81528061032c6004820161040a565b91929015610493575081516104796101be6000610198565b14610482575090565b61048e610082916103f8565b610441565b826104de565b6104ba6104c36020936100c3936104ae815190565b80835293849260200190565b958691016100c7565b601f01601f191690565b602080825261008292910190610499565b906104e7825190565b6104f46101be6000610198565b11156105035750805190602001fd5b61032c9061051060405190565b62461bcd60e51b8152918291600483016104cd56fe6080604052600a600e565b6017565b6014607c565b90565b60008091368280378136915af43d6000803e156032573d6000f35b3d6000fd5b6014601460149290565b60147f360894a13ba1a3210667c828492db98dca3e2076cc3735a920a3ca505d382bbc6037565b6001600160a01b031690565b601490546068565b60146000608860146041565b01607456fea26469706673582212200ad4ac51629ce32ff36896c3191fd47fcb9b0a0892e6281467f168c50548841064736f6c63430008160033a2646970667358221220ce435e2a951b13b132216342ce97d18e78b1f2a5640f42126b46747cdc12c74e64736f6c6343000816003360a0604052346200003657620000146200003b565b604051612763620001f28239608051818181610d4f0152611054015261276390f35b600080fd5b620000456200008c565b6200004f62000177565b565b62000067906200006a906001600160a01b031682565b90565b6001600160a01b031690565b620000679062000051565b620000679062000076565b620000973062000081565b608052565b620000679060081c5b60ff1690565b6200006790546200009c565b60208082526027908201527f496e697469616c697a61626c653a20636f6e747261637420697320696e697469604082015266616c697a696e6760c81b606082015260800190565b156200010657565b60405162461bcd60e51b8152806200012160048201620000b7565b0390fd5b6200006790620000a5565b62000067905462000125565b620000a562000067620000679260ff1690565b90620001636200006762000173926200013c565b825460ff191660ff919091161790565b9055565b620001956200018f6200018b6000620000ab565b1590565b620000fe565b620001a1600062000130565b60ff90811603620001ae57565b620001bc60ff60006200014f565b7f7f26b83ff96e1f2b6a682f133852f6798a09c465da95921460cefb3847402498620001e760405190565b60ff8152602090a156fe6080604052600436101561001257600080fd5b60003560e01c806303d29d281461022257806306fdde031461021d578063095ea7b31461021857806318160ddd1461021357806323b872dd1461020e578063313ce567146102095780633659cfe61461020457806339509351146101ff5780633f4ba83a146101fa57806340c10f19146101f55780634a492d53146101f05780634f1ef286146101eb57806352d1902d146101e65780635c975abb146101e157806370a08231146101dc578063715018a6146101d75780637572a9db146101d25780638456cb59146101cd5780638da5cb5b146101c857806395d89b41146101c35780639e4e7318146101be578063a457c2d7146101b9578063a9059cbb146101b4578063aa31aee8146101af578063bffb691d146101aa578063cba4cbd3146101a5578063d5abeb01146101a0578063d6a35ca01461019b578063dd62ed3e14610196578063ebba564414610191578063f2fde38b1461018c578063fe575a87146101875763ffa1ad7403610227576109dc565b6109b9565b6109a1565b610988565b61096c565b61092a565b61088c565b610871565b610849565b610807565b6107eb565b6107cf565b6107b4565b6106e4565b6106bd565b61068c565b610674565b61065c565b610641565b610626565b61060b565b6105f7565b6104e8565b6104bb565b6104a3565b610487565b61046f565b61042c565b610410565b6103bb565b61038c565b61032b565b610292565b600080fd5b6001600160a01b031690565b90565b6102448161022c565b0361022757565b905035906102588261023b565b565b801515610244565b905035906102588261025a565b91906040838203126102275761023890602061028b828661024b565b9401610262565b34610227576102ab6102a536600461026f565b90610b38565b604051005b0390f35b600091031261022757565b60005b8381106102d25750506000910152565b81810151838201526020016102c2565b61030361030c602093610316936102f7815190565b80835293849260200190565b958691016102bf565b601f01601f191690565b0190565b6020808252610238929101906102e2565b346102275761033b3660046102b4565b6102b0610346610c3a565b6040519182918261031a565b80610244565b9050359061025882610352565b919060408382031261022757610238906020610381828661024b565b9401610358565b9052565b34610227576102b06103a86103a2366004610365565b90610c44565b6040515b91829182901515815260200190565b34610227576103cb3660046102b4565b6102b06103d6610c65565b6040515b9182918290815260200190565b909160608284031261022757610238610400848461024b565b936040610381826020870161024b565b34610227576102b06103a86104263660046103e7565b91610c6f565b346102275761043c3660046102b4565b6102b0610447610c92565b6040519182918260ff909116815260200190565b90602082820312610227576102389161024b565b34610227576102ab61048236600461045b565b610e02565b34610227576102b06103a861049d366004610365565b90610e33565b34610227576104b33660046102b4565b6102ab610e65565b34610227576102ab6104ce366004610365565b90610ef5565b906020828203126102275761023891610262565b34610227576102ab6104fb3660046104d4565b610f96565b634e487b7160e01b600052604160045260246000fd5b90601f01601f191681019081106001600160401b0382111761053757604052565b610500565b9061025861054960405190565b9283610516565b6001600160401b03811161053757602090601f01601f19160190565b90826000939282370152565b9092919261058d61058882610550565b61053c565b93818552818301116102275761025891602085019061056c565b9080601f830112156102275781602061023893359101610578565b919091604081840312610227576105d9838261024b565b9260208201356001600160401b0381116102275761023892016105a7565b6102ab6106053660046105c2565b90610fc5565b346102275761061b3660046102b4565b6102b06103d66110b5565b34610227576106363660046102b4565b6102b06103a86110bf565b34610227576102b06103d661065736600461045b565b6110c9565b346102275761066c3660046102b4565b6102ab61111d565b34610227576102ab6106873660046104d4565b61118f565b346102275761069c3660046102b4565b6102ab6111ab565b6103889061022c565b60208101929161025891906106a4565b34610227576106cd3660046102b4565b6102b06106d86111c6565b604051918291826106ad565b34610227576106f43660046102b4565b6102b06103466111d0565b9061070c61058883610550565b918252565b61071b60056106ff565b640312e302e360dc1b602082015290565b610238610711565b61023861072c565b6103166107549260209261074e815190565b94859290565b938491016102bf565b6102389161073c565b61076e610734565b61079661077a60405190565b809261078a60208301918261075d565b90810382520382610516565b6107a86107a1825190565b9160200190565b2090565b610238610766565b34610227576107c43660046102b4565b6102b06103d66107ac565b34610227576102b06103a86107e5366004610365565b90611234565b34610227576102b06103a8610801366004610365565b90611258565b34610227576102b06103d661081d36600461045b565b611263565b610238916008021c5b60ff1690565b906102389154610822565b6102386000610162610831565b34610227576108593660046102b4565b6102b06103a861083c565b6102386001610162610831565b34610227576108813660046102b4565b6102b06103a8610864565b346102275761089c3660046102b4565b6102b06103d661127b565b60e0818303126102275780356001600160401b03811161022757826108cd9183016105a7565b9260208201356001600160401b03811161022757836108ed9184016105a7565b926108fb8160408501610358565b926109098260608301610358565b9261023861091a846080850161024b565b9360c061028b8260a08701610262565b34610227576102ab61093d3660046108a7565b95949094939193611575565b919060408382031261022757610238906020610965828661024b565b940161024b565b34610227576102b06103d6610982366004610949565b90611584565b34610227576102ab61099b366004610365565b906116b1565b34610227576102ab6109b436600461045b565b61174b565b34610227576102b06103a86109cf36600461045b565b611754565b610238610734565b34610227576109ec3660046102b4565b6102b06103466109d4565b9061025891610a046117cf565b610ad4565b6102389061082b565b6102389054610a09565b15610a2357565b60405162461bcd60e51b815260206004820152601d60248201527f426c61636b6c6973742066656174757265206e6f7420656e61626c65640000006044820152606490fd5b0390fd5b6102389061022c906001600160a01b031682565b61023890610a6c565b61023890610a80565b90610a9c90610a89565b600052602052604060002090565b9060ff905b9181191691161790565b90610ac9610238610ad092151590565b8254610aaa565b9055565b610b33610b297f6a12b3df6cba4203bd7fd06b816789f87de8c594299aed5717ae070fac781bac92610b0f610b0a610162610a12565b610a1c565b610b2485610b1f83610160610a92565b610ab9565b610a89565b926103ac60405190565b0390a2565b90610258916109f7565b634e487b7160e01b600052602260045260246000fd5b9060016002830492168015610b78575b6020831014610b7357565b610b42565b91607f1691610b68565b80546000939291610b9f610b9583610b58565b8085529360200190565b9160018116908115610bf15750600114610bb857505050565b610bcb9192939450600052602060002090565b916000925b818410610bdd5750500190565b805484840152602090930192600101610bd0565b92949550505060ff1916825215156020020190565b9061023891610b82565b90610258610c2a92610c2160405190565b93848092610c06565b0383610516565b61023890610c10565b6102386036610c31565b610c4f91903361189b565b600190565b6102389081565b6102389054610c54565b6102386035610c5b565b610c4f929190610c80833383611976565b611abb565b61082b6102386102389290565b6102386012610c85565b15610ca357565b60405162461bcd60e51b815260206004820152602c60248201526000805160206126ce83398151915260448201526b19195b1959d85d1958d85b1b60a21b6064820152608490fd5b15610cf257565b60405162461bcd60e51b815260206004820152602c60248201526000805160206126ce83398151915260448201526b6163746976652070726f787960a01b6064820152608490fd5b61025890610da2610d4a30610a89565b610d887f000000000000000000000000000000000000000000000000000000000000000091610d81610d7b8461022c565b9161022c565b1415610c9c565b610d9c610d7b610d96611b61565b9261022c565b14610ceb565b610ddc565b6102386102386102389290565b369037565b90610258610dcf610dc9846106ff565b93610550565b601f190160208401610db4565b600061025891610deb81611b80565b610dfc610df783610da7565b610db9565b90611c31565b61025890610d3a565b634e487b7160e01b600052601160045260246000fd5b91908201809211610e2e57565b610e0b565b610c4f9190610e4c3392610e478385611584565b610e21565b9161189b565b610e5a6117cf565b610258610258611d81565b610258610e52565b9061025891610e7a6117cf565b610ec0565b15610e8657565b60405162461bcd60e51b815260206004820152601260248201527145786365656473206d617820737570706c7960701b6044820152606490fd5b9061025891610ef0610ed483610e47610c65565b610ee9610ee561023861015f610c5b565b9190565b1115610e7f565b611dd5565b9061025891610e6d565b61025890610f0b6117cf565b610f66565b9061ff009060081b610aaf565b90610f2d610238610ad092151590565b8254610f10565b60408082526008908201526774696d656c6f636b60c01b60608201529190610258906020608085015b94019015159052565b610f916000805160206126ee83398151915291610f8581610162610f1d565b60405191829182610f34565b0390a1565b61025890610eff565b9061025891610fb0610d4a30610a89565b61025891600191610fc081611b80565b611c31565b9061025891610f9f565b15610fd657565b60405162461bcd60e51b815260206004820152603860248201527f555550535570677261646561626c653a206d757374206e6f742062652063616c6044820152771b1959081d1a1c9bdd59da0819195b1959d85d1958d85b1b60421b6064820152608490fd5b6102389061107e61104c30610a89565b611078610d7b7f000000000000000000000000000000000000000000000000000000000000000061022c565b14610fcf565b6110ac565b6102387f360894a13ba1a3210667c828492db98dca3e2076cc3735a920a3ca505d382bbc610da7565b50610238611083565b610238600061103c565b6102386065610a12565b6110e0610238916110d8600090565b506033610a92565b610c5b565b6110ed6117cf565b61025861110b565b61022c6102386102389290565b610238906110f5565b6102586111186000611102565b611e6a565b6102586110e5565b610258906111316117cf565b611164565b604080825260099082015268189b1858dadb1a5cdd60ba1b6060820152919061025890602060808501610f5d565b610f916000805160206126ee8339815191529161118381610162610ab9565b60405191829182611136565b61025890611125565b6111a06117cf565b610258610258611efe565b610258611198565b6102389061022c565b61023890546111b3565b61023860c96111bc565b6102386037610c31565b156111e157565b60405162461bcd60e51b815260206004820152602560248201527f45524332303a2064656372656173656420616c6c6f77616e63652062656c6f77604482015264207a65726f60d81b6064820152608490fd5b610c4f9190610e4c33926112488385611584565b611254828210156111da565b0390565b610c4f919033611abb565b6110e061023891611272600090565b50610161610a92565b61023861015f610c5b565b6102389060081c61082b565b6102389054611286565b156112a357565b60405162461bcd60e51b815260206004820152602e60248201527f496e697469616c697a61626c653a20636f6e747261637420697320616c72656160448201526d191e481a5b9a5d1a585b1a5e995960921b6064820152608490fd5b61082b6102386102389260ff1690565b90610ac9610238610ad0926112ff565b61038890610c85565b602081019291610258919061131f565b95939161138895939161135261134e6000611292565b1590565b978880611425575b80156113e0575b61136a9061129c565b8861137f6113786001610c85565b600061130f565b6113cf576114c2565b61138e57565b611399600080610f1d565b7f7f26b83ff96e1f2b6a682f133852f6798a09c465da95921460cefb38474024986113c360405190565b80610f91600182611328565b6113db60016000610f1d565b6114c2565b506113f561134e6113f030610a89565b611f06565b8015611361575061136a6114096000610a12565b61141d6114166001610c85565b9160ff1690565b149050611361565b506114306000610a12565b61143d6114166001610c85565b1061135a565b1561144a57565b60405162461bcd60e51b815260206004820152602960248201527f4d617820737570706c79206d7573742062652030206f72203e3d20696e697469604482015268616c20737570706c7960b81b6064820152608490fd5b9060001990610aaf565b906114bb610238610ad092610da7565b82546114a1565b94610ef0936114d961154c93610258999598611f99565b6114e1611fbb565b6114e9611fdb565b6114f1611ff0565b6115036114fe6000611102565b61022c565b61150c8761022c565b03611567575b61151c6000610da7565b811480811561155d575b61152f90611443565b1561155457506115446000195b61015f6114ab565b610162610ab9565b610162610f1d565b6115449061153c565b5087821015611526565b61157086611e6a565b611512565b90610258969594939291611338565b6102389161159f6110e092611597600090565b506034610a92565b610a92565b90610258916115b16117cf565b61164c565b156115bd57565b60405162461bcd60e51b815260206004820152601d60248201527f54696d65206c6f636b2066656174757265206e6f7420656e61626c65640000006044820152606490fd5b1561160957565b60405162461bcd60e51b815260206004820152601b60248201527a4c6f636b2074696d65206d75737420626520696e2066757475726560281b6044820152606490fd5b610b336116a77fa9353e70f07f31e7f4e16464f45e189cbd22826780a5abe4da8303652a86960a92611687611682610162611292565b6115b6565b611692428611611602565b610b24856116a283610161610a92565b6114ab565b926103da60405190565b90610258916115a4565b610258906116c76117cf565b611727565b156116d357565b60405162461bcd60e51b815260206004820152602660248201527f4f776e61626c653a206e6577206f776e657220697320746865207a65726f206160448201526564647265737360d01b6064820152608490fd5b6102589061111861173b6114fe6000611102565b6117448361022c565b14156116cc565b610258906116bb565b61175f610162610a12565b9081611769575090565b610238915061177a90610160610a92565b610a12565b1561178657565b60405162461bcd60e51b815280610a68600482016020808252818101527f4f776e61626c653a2063616c6c6572206973206e6f7420746865206f776e6572604082015260600190565b6102586117da6111c6565b6117e6610d7b3361022c565b1461177f565b156117f357565b60405162461bcd60e51b8152602060048201526024808201527f45524332303a20617070726f76652066726f6d20746865207a65726f206164646044820152637265737360e01b6064820152608490fd5b1561184b57565b60405162461bcd60e51b815260206004820152602260248201527f45524332303a20617070726f766520746f20746865207a65726f206164647265604482015261737360f01b6064820152608490fd5b61192561191b6119157f8c5be1e5ebec7d5bd14f71427d1e84f3dd0314c0f7b2291e5b200ac8c7c3b925936119026118f26118d66000611102565b6114fe6118e28261022c565b6118eb8661022c565b14156117ec565b6118fb8861022c565b1415611844565b610b24876116a28861159f856034610a92565b93610a89565b936103da60405190565b0390a3565b1561193157565b60405162461bcd60e51b815260206004820152601d60248201527f45524332303a20696e73756666696369656e7420616c6c6f77616e63650000006044820152606490fd5b906119818183611584565b6000198103611991575b50505050565b6119a593610e4c916112548282101561192a565b3880808061198b565b156119b557565b60405162461bcd60e51b815260206004820152602560248201527f45524332303a207472616e736665722066726f6d20746865207a65726f206164604482015264647265737360d81b6064820152608490fd5b15611a0f57565b60405162461bcd60e51b815260206004820152602360248201527f45524332303a207472616e7366657220746f20746865207a65726f206164647260448201526265737360e81b6064820152608490fd5b15611a6757565b60405162461bcd60e51b815260206004820152602660248201527f45524332303a207472616e7366657220616d6f756e7420657863656564732062604482015265616c616e636560d01b6064820152608490fd5b61192561191b61191560008051602061270e83398151915293611b10611b00611ae46000611102565b6114fe611af08261022c565b611af98661022c565b14156119ae565b611b098861022c565b1415611a08565b611b1b87878361207d565b610b24611b4e87603361159f611b448c611b386110e08986610a92565b61125482821015611a60565b6116a28784610a92565b611b5b8961031683610c5b565b906114ab565b6102386000611b71610238611083565b016111bc565b506102586117cf565b61025890611b77565b6102387f4910fdfa16fed3260ed0e7147f7cc6da11a60208b5b9406d12a635614ffd9143610da7565b9050519061025882610352565b906020828203126102275761023891611bb2565b15611bda57565b60405162461bcd60e51b815260206004820152602960248201527f45524331393637557067726164653a20756e737570706f727465642070726f786044820152681a58589b195555525160ba1b6064820152608490fd5b9190611c496000611c43610238611b89565b01610a12565b15611c59575050610258906121d3565b611c65610b2484610a89565b926020611c7160405190565b6352d1902d60e01b815294859060049082905afa60009481611d0f575b50611cef5760405162461bcd60e51b815260206004820152602e60248201527f45524331393637557067726164653a206e657720696d706c656d656e7461746960448201526d6f6e206973206e6f74205555505360901b6064820152608490fd5b611d0a61025894611d04610ee5610238611083565b14611bd3565b612132565b611d3291955060203d602011611d39575b611d2a8183610516565b810190611bbf565b9338611c8e565b503d611d20565b611d4861223e565b610258611d5760006065610ab9565b7f5db9ee0a495bf2e6ff9c91a7834c1ba4fdd244a5e8aa4e537bd38aeae4b073aa610f91336106d8565b610258611d40565b15611d9057565b60405162461bcd60e51b815260206004820152601f60248201527f45524332303a206d696e7420746f20746865207a65726f2061646472657373006044820152606490fd5b60008051602061270e83398151915261192561191b611915611df76000611102565b611e13611e038261022c565b611e0c8861022c565b1415611d89565b611e1e87878361207d565b611e36611e2f88610e476035610c5b565b60356114ab565b610b24611b4e876033610a92565b906001600160a01b0390610aaf565b90611e63610238610ad092610a89565b8254611e44565b611e8b611e85611e7a60c96111bc565b610b248460c9611e53565b91610a89565b907f8be0079c531659141344cd1fd0a4f28419497f9722a3daafe3b4186f6b6457e0611eb660405190565b8080611925565b611ec561228d565b610258611ed460016065610ab9565b7f62e78cea01bee320cd4e420270b5ea74000d11b0c9f74754ebdbfc544b05a258610f91336106d8565b610258611ebd565b3b611f14610ee56000610da7565b1190565b15611f1f57565b60405162461bcd60e51b815260206004820152602b60248201527f496e697469616c697a61626c653a20636f6e7472616374206973206e6f74206960448201526a6e697469616c697a696e6760a81b6064820152608490fd5b9061025891611f8f611f8a6000611292565b611f18565b9061025891612463565b9061025891611f78565b611fb0611f8a6000611292565b610258610258612489565b610258611fa3565b611fd0611f8a6000611292565b6102586102586124a8565b610258611fc3565b610258611f8a6000611292565b610258611fe3565b15611fff57565b60405162461bcd60e51b81526020600482015260166024820152751059191c995cdcc81a5cc8189b1858dadb1a5cdd195960521b6044820152606490fd5b1561204457565b60405162461bcd60e51b8152602060048201526011602482015270151bdad95b9cc8185c99481b1bd8dad959607a1b6044820152606490fd5b9161208990828461250f565b612094610162610a12565b6120ed575b506120a5610162611292565b806120cf575b6120b25750565b6120c76102386110e061025893610161610a92565b42101561203d565b506120dd6114fe6000611102565b6120e68261022c565b14156120ab565b612113906101609061210561134e61177a8685610a92565b9182612119575b5050611ff8565b38612099565b61212b925061134e9161177a91610a92565b388061210c565b9161213c83612525565b815161214b610ee56000610da7565b11908115612169575b5061215d575050565b612166916125ae565b50565b905038612154565b1561217857565b60405162461bcd60e51b815260206004820152602d60248201527f455243313936373a206e657720696d706c656d656e746174696f6e206973206e60448201526c1bdd08184818dbdb9d1c9858dd609a1b6064820152608490fd5b610258906121e86121e382611f06565b612171565b60006121f5610238611083565b01611e53565b1561220257565b60405162461bcd60e51b815260206004820152601460248201527314185d5cd8589b194e881b9bdd081c185d5cd95960621b6044820152606490fd5b6102586122496110bf565b6121fb565b1561225557565b60405162461bcd60e51b815260206004820152601060248201526f14185d5cd8589b194e881c185d5cd95960821b6044820152606490fd5b61025861229b61134e6110bf565b61224e565b90610258916122b2611f8a6000611292565b61244d565b9160001960089290920291821b911b610aaf565b91906122dc610238610ad093610da7565b9083546122b7565b610258916000916122cb565b8181106122fb575050565b8061230960006001936122e4565b016122f0565b9190601f811161231e57505050565b61233061025893600052602060002090565b906020601f840181900483019310612352575b6020601f9091010401906122f0565b9091508190612343565b9060001960089091021c191690565b816123759161235c565b906002021790565b90612386815190565b906001600160401b038211610537576123a9826123a38554610b58565b8561230f565b602090601f83116001146123d757610ad09291600091836123cc575b505061236b565b0151905038806123c5565b601f198316916123ec85600052602060002090565b9260005b81811061242b57509160029391856001969410612411575b50505002019055565b612421910151601f84169061235c565b9055388080612408565b919360206001819287870151815501950192016123f0565b906102589161237d565b9061245c610258926036612443565b6037612443565b90610258916122a0565b61247a611f8a6000611292565b61025861025860006065610ab9565b61025861246d565b61249e611f8a6000611292565b6102588033611e6a565b610258612491565b156124b757565b60405162461bcd60e51b815260206004820152602a60248201527f45524332305061757361626c653a20746f6b656e207472616e736665722077686044820152691a5b19481c185d5cd95960b21b6064820152608490fd5b50505061025861252061134e6110bf565b6124b0565b61253290610b24816121d3565b7fbc7cd75a20ee27fd9adebab32041f755214dbc6bffa90cc0225b39da2e5c2d3b61255c60405190565b8080610b33565b61256d60276106ff565b7f416464726573733a206c6f772d6c6576656c2064656c65676174652063616c6c6020820152660819985a5b195960ca1b604082015290565b610238612563565b610238916125ba6125a6565b916125df565b3d156125da576125cf3d6106ff565b903d6000602084013e565b606090565b60008061023894936125ef606090565b50602081519101845af46126016125c0565b91612653565b1561260e57565b60405162461bcd60e51b815260206004820152601d60248201527f416464726573733a2063616c6c20746f206e6f6e2d636f6e74726163740000006044820152606490fd5b919290156126855750815161266b610ee56000610da7565b14612674575090565b61268061023891611f06565b612607565b829061268f825190565b61269c610ee56000610da7565b11156126ab5750805190602001fd5b610a68906126b860405190565b62461bcd60e51b81529182916004830161031a56fe46756e6374696f6e206d7573742062652063616c6c6564207468726f7567682043a0148be74197659be43bacdac4e492c6e55291225e29fd4f098868ff304fc1ddf252ad1be2c89b69c2b068fc378daa952ba7f163c4a11628f55a4df523b3efa2646970667358221220ef2b6f86dc305f0c2ddaecdd8037ddd937e4fe16e6b90c2c526dbb3d5d698dfd64736f6c63430008160033",
  "linkReferences": {},
  "deployedLinkReferences": {}
}