{
  "_format": "hh-sol-artifact-1",
  "contractName": "TokenFactory_v1",
  "sourceName": "src/contracts/TokenFactory_v1.sol",
  "abi": [
    {
      "inputs": [
        {
          "internalType": "uint256",
          "name": "initialFee",
          "type": "uint256"
        }
      ],
      "stateMutability": "nonpayable",
      "type": "constructor"
    },
    {
      "anonymous": false,
      "inputs": [
        {
          "indexed": false,
          "internalType": "uint256",
          "name": "newFee",
          "type": "uint256"
        }
      ],
      "name": "DeploymentFeeUpdated",
      "type": "event"
    },
    {
      "anonymous": false,
      "inputs": [
        {
          "indexed": true,
          "internalType": "address",
          "name": "previousOwner",
          "type": "address"
        },
        {
          "indexed": true,
          "internalType": "address",
          "name": "newOwner",
          "type": "address"
        }
      ],
      "name": "OwnershipTransferred",
      "type": "event"
    },
    {
      "anonymous": false,
      "inputs": [
        {
          "indexed": true,
          "internalType": "address",
          "name": "token",
          "type": "address"
        },
        {
          "indexed": false,
          "internalType": "string",
          "name": "name",
          "type": "string"
        },
        {
          "indexed": false,
          "internalType": "string",
          "name": "symbol",
          "type": "string"
        },
        {
          "indexed": true,
          "internalType": "address",
          "name": "owner",
          "type": "address"
        },
        {
          "indexed": false,
          "internalType": "uint256",
          "name": "initialSupply",
          "type": "uint256"
        },
        {
          "indexed": false,
          "internalType": "uint256",
          "name": "maxSupply",
          "type": "uint256"
        },
        {
          "indexed": false,
          "internalType": "bool",
          "name": "blacklistEnabled",
          "type": "bool"
        },
        {
          "indexed": false,
          "internalType": "bool",
          "name": "timeLockEnabled",
          "type": "bool"
        },
        {
          "indexed": false,
          "internalType": "uint256",
          "name": "deploymentTime",
          "type": "uint256"
        }
      ],
      "name": "TokenCreated",
      "type": "event"
    },
    {
      "inputs": [],
      "name": "VERSION",
      "outputs": [
        {
          "internalType": "string",
          "name": "",
          "type": "string"
        }
      ],
      "stateMutability": "view",
      "type": "function"
    },
    {
      "inputs": [],
      "name": "VERSION_HASH",
      "outputs": [
        {
          "internalType": "bytes32",
          "name": "",
          "type": "bytes32"
        }
      ],
      "stateMutability": "view",
      "type": "function"
    },
    {
      "inputs": [
        {
          "internalType": "string",
          "name": "name",
          "type": "string"
        },
        {
          "internalType": "string",
          "name": "symbol",
          "type": "string"
        },
        {
          "internalType": "uint256",
          "name": "initialSupply",
          "type": "uint256"
        },
        {
          "internalType": "uint256",
          "name": "maxSupply",
          "type": "uint256"
        },
        {
          "internalType": "bool",
          "name": "enableBlacklist",
          "type": "bool"
        },
        {
          "internalType": "bool",
          "name": "enableTimeLock",
          "type": "bool"
        }
      ],
      "name": "createToken",
      "outputs": [],
      "stateMutability": "payable",
      "type": "function"
    },
    {
      "inputs": [],
      "name": "deploymentFee",
      "outputs": [
        {
          "internalType": "uint256",
          "name": "",
          "type": "uint256"
        }
      ],
      "stateMutability": "view",
      "type": "function"
    },
    {
      "inputs": [],
      "name": "getDeployedTokens",
      "outputs": [
        {
          "internalType": "address[]",
          "name": "",
          "type": "address[]"
        }
      ],
      "stateMutability": "view",
      "type": "function"
    },
    {
      "inputs": [
        {
          "internalType": "address",
          "name": "token",
          "type": "address"
        }
      ],
      "name": "getTokenDeployer",
      "outputs": [
        {
          "internalType": "address",
          "name": "",
          "type": "address"
        }
      ],
      "stateMutability": "view",
      "type": "function"
    },
    {
      "inputs": [
        {
          "internalType": "address",
          "name": "user",
          "type": "address"
        }
      ],
      "name": "getTokensByUser",
      "outputs": [
        {
          "internalType": "address[]",
          "name": "",
          "type": "address[]"
        }
      ],
      "stateMutability": "view",
      "type": "function"
    },
    {
      "inputs": [],
      "name": "owner",
      "outputs": [
        {
          "internalType": "address",
          "name": "",
          "type": "address"
        }
      ],
      "stateMutability": "view",
      "type": "function"
    },
    {
      "inputs": [],
      "name": "renounceOwnership",
      "outputs": [],
      "stateMutability": "nonpayable",
      "type": "function"
    },
    {
      "inputs": [
        {
          "internalType": "uint256",
          "name": "newFee",
          "type": "uint256"
        }
      ],
      "name": "setDeploymentFee",
      "outputs": [],
      "stateMutability": "nonpayable",
      "type": "function"
    },
    {
      "inputs": [],
      "name": "tokenImplementation",
      "outputs": [
        {
          "internalType": "contract TokenTemplate_v1",
          "name": "",
          "type": "address"
        }
      ],
      "stateMutability": "view",
      "type": "function"
    },
    {
      "inputs": [
        {
          "internalType": "address",
          "name": "newOwner",
          "type": "address"
        }
      ],
      "name": "transferOwnership",
      "outputs": [],
      "stateMutability": "nonpayable",
      "type": "function"
    },
    {
      "inputs": [],
      "name": "withdrawFees",
      "outputs": [],
      "stateMutability": "nonpayable",
      "type": "function"
    }
  ],
  "bytecode": "0x60a034610126576001600160401b0390601f61349e38819003918201601f19168301918483118484101761012b57808492602094604052833981010312610126575160008054336001600160a01b03198216811783556040519294937f40bd824d588484917db8fa4fc894c1e0feae5a75885290ba7b97521cebf82a80936020939092906001600160a01b03167f8be0079c531659141344cd1fd0a4f28419497f9722a3daafe3b4186f6b6457e08880a360018055806002558152a16040519061245c80830191821183831017610112579082916110428339039082f09081156101065750608052604051610f00908161014282396080518181816104d601526108be0152f35b604051903d90823e3d90fd5b634e487b7160e01b84526041600452602484fd5b600080fd5b634e487b7160e01b600052604160045260246000fdfe60806040818152600491823610156200001757600080fd5b600092833560e01c9182632f3a3d5d14620008a857508163476343ee1462000810578163622ae7aa1462000786578163715018a614620007255781637c9b544514620003a357816380370075146200030c5781638da5cb5b14620002e25781639e4e7318146200028b578163b14e7ee61462000247578163d002462b14620001f5578163f2cff57f14620001d4578163f2fde38b14620000ff575063ffa1ad7414620000c257600080fd5b34620000fb5781600319360112620000fb57620000f790620000e3620009dc565b905191829160208352602083019062000a34565b0390f35b5080fd5b91905034620001d0576020366003190112620001d0576001600160a01b03823581811693919290849003620001cc576200013862000a5b565b83156200017a57505082546001600160a01b0319811683178455167f8be0079c531659141344cd1fd0a4f28419497f9722a3daafe3b4186f6b6457e08380a380f35b906020608492519162461bcd60e51b8352820152602660248201527f4f776e61626c653a206e6577206f776e657220697320746865207a65726f206160448201526564647265737360d01b6064820152fd5b8480fd5b8280fd5b505034620000fb5781600319360112620000fb576020906002549051908152f35b905034620001d0576020366003190112620001d0577f40bd824d588484917db8fa4fc894c1e0feae5a75885290ba7b97521cebf82a809160209135906200023b62000a5b565b8160025551908152a180f35b905034620001d0576020366003190112620001d0576001600160a01b03903581811690819003620002875783839160209552600585522054169051908152f35b8380fd5b505034620000fb5781600319360112620000fb57602090620002ac620009dc565b8151620002d8848281620002ca818301968781519384920162000a0f565b810103808452018262000934565b5190209051908152f35b505034620000fb5781600319360112620000fb57905490516001600160a01b039091168152602090f35b91905034620001d05760208060031936011262000287576001600160a01b03928035848116908190036200039f5785929495526020528181209382519081946020875493848152019684526020842093915b8383106200038557620000f787876200037a828c038362000934565b5191829182620008ed565b84548116885296810196600194850194909201916200035e565b8580fd5b838360c0366003190112620000fb5767ffffffffffffffff9083358281116200028757620003d590369086016200098a565b9360249485358481116200039f57620003f290369084016200098a565b60443560643560843591821515809303620007215760a435938415158095036200071d5760019860028a5414620006db5760028a556002543410620006995788516306b51ae560e51b60208083019190915260e0828f01529291620004a582620004786200046561010483018d62000a34565b8281036023190160448401528662000a34565b8760648301528860848301523360a48301528960c48301528a60e483015203601f19810184528362000934565b8a516001600160a01b03929091610416808401918211848310176200068657918d6200050592859462000ab58639867f00000000000000000000000000000000000000000000000000000000000000001681528189820152019062000a34565b03908df080156200067c57908c911698600354906801000000000000000091828110156200066a578d81018060035581101562000658578c907fc2575a0e9e593c00f959f8c92f12db2869c3395a3b0502d05e2516446f71f85b01936bffffffffffffffffffffffff60a01b948d86825416179055338152828752209081549283101562000646578d8301808355831015620006345750918b8e6200061095937f89ecfc33d2a43016e717c18dee2db6a3f8b15851f7f5b885254663ed9fa9ab369c9b9a999897958252858220018d848254161790558c81526005855220903390825416179055620006028b519860e08a5260e08a019062000a34565b918883039089015262000a34565b978501526060840152608083015260a08201524260c08201528033940390a3805580f35b634e487b7160e01b8f52603281528f8ffd5b634e487b7160e01b8f52604181528f8ffd5b634e487b7160e01b8452603282528f84fd5b634e487b7160e01b8452604182528f84fd5b8a513d8e823e3d90fd5b50634e487b7160e01b8f5260418c528f8ffd5b885162461bcd60e51b81526020818a0152601b818e01527f496e73756666696369656e74206465706c6f796d656e742066656500000000006044820152606490fd5b885162461bcd60e51b81526020818a0152601f818e01527f5265656e7472616e637947756172643a207265656e7472616e742063616c6c006044820152606490fd5b8980fd5b8880fd5b833462000783578060031936011262000783576200074262000a5b565b80546001600160a01b03198116825581906001600160a01b03167f8be0079c531659141344cd1fd0a4f28419497f9722a3daafe3b4186f6b6457e08280a380f35b80fd5b82843462000783578060031936011262000783578151918291600354808552602080950194600383527fc2575a0e9e593c00f959f8c92f12db2869c3395a3b0502d05e2516446f71f85b92905b828210620007ef57620000f786866200037a828b038362000934565b83546001600160a01b031687529586019560019384019390910190620007d3565b91905034620001d05782600319360112620001d0576200082f62000a5b565b8280808047335af13d15620008a2573d6200084a816200096d565b90620008598451928362000934565b81528460203d92013e5b156200086d578280f35b906020606492519162461bcd60e51b8352820152600f60248201526e151c985b9cd9995c8819985a5b1959608a1b6044820152fd5b62000863565b849034620000fb5781600319360112620000fb577f00000000000000000000000000000000000000000000000000000000000000006001600160a01b03168152602090f35b602090602060408183019282815285518094520193019160005b82811062000916575050505090565b83516001600160a01b03168552938101939281019260010162000907565b90601f8019910116810190811067ffffffffffffffff8211176200095757604052565b634e487b7160e01b600052604160045260246000fd5b67ffffffffffffffff81116200095757601f01601f191660200190565b81601f82011215620009d757803590620009a4826200096d565b92620009b4604051948562000934565b82845260208383010111620009d757816000926020809301838601378301015290565b600080fd5b604051906040820182811067ffffffffffffffff821117620009575760405260058252640312e302e360dc1b6020830152565b60005b83811062000a235750506000910152565b818101518382015260200162000a12565b9060209162000a4f8151809281855285808601910162000a0f565b601f01601f1916010190565b6000546001600160a01b0316330362000a7057565b606460405162461bcd60e51b815260206004820152602060248201527f4f776e61626c653a2063616c6c6572206973206e6f7420746865206f776e65726044820152fdfe604060808152610416908138038061001681610218565b93843982019181818403126102135780516001600160a01b038116808203610213576020838101516001600160401b0394919391858211610213570186601f820112156102135780519061007161006c83610253565b610218565b918083528583019886828401011161021357888661008f930161026e565b813b156101b9577f360894a13ba1a3210667c828492db98dca3e2076cc3735a920a3ca505d382bbc80546001600160a01b031916841790556000927fbc7cd75a20ee27fd9adebab32041f755214dbc6bffa90cc0225b39da2e5c2d3b8480a28051158015906101b2575b61010b575b855160d190816103458239f35b855194606086019081118682101761019e578697849283926101889952602788527f416464726573733a206c6f772d6c6576656c2064656c65676174652063616c6c87890152660819985a5b195960ca1b8a8901525190845af4913d15610194573d9061017a61006c83610253565b91825281943d92013e610291565b508038808080806100fe565b5060609250610291565b634e487b7160e01b84526041600452602484fd5b50826100f9565b855162461bcd60e51b815260048101859052602d60248201527f455243313936373a206e657720696d706c656d656e746174696f6e206973206e60448201526c1bdd08184818dbdb9d1c9858dd609a1b6064820152608490fd5b600080fd5b6040519190601f01601f191682016001600160401b0381118382101761023d57604052565b634e487b7160e01b600052604160045260246000fd5b6001600160401b03811161023d57601f01601f191660200190565b60005b8381106102815750506000910152565b8181015183820152602001610271565b919290156102f357508151156102a5575090565b3b156102ae5790565b60405162461bcd60e51b815260206004820152601d60248201527f416464726573733a2063616c6c20746f206e6f6e2d636f6e74726163740000006044820152606490fd5b8251909150156103065750805190602001fd5b6044604051809262461bcd60e51b825260206004830152610336815180928160248601526020868601910161026e565b601f01601f19168101030190fdfe608060405236156054577f360894a13ba1a3210667c828492db98dca3e2076cc3735a920a3ca505d382bbc54600090819081906001600160a01b0316368280378136915af43d82803e156050573d90f35b3d90fd5b7f360894a13ba1a3210667c828492db98dca3e2076cc3735a920a3ca505d382bbc54600090819081906001600160a01b0316368280378136915af43d82803e156050573d90f3fea264697066735822122030ade24792416a57d4529afbb56817b4411c22cc00ef8c3e8e9dd6ea015f4e2564736f6c63430008160033a2646970667358221220e0b9b390d234665fa992a1af1474b576dd333a3551db9793ba7b4da67f1ae67664736f6c6343000816003360a080604052346100dc57306080526000549060ff8260081c1661008a575060ff8082160361004f575b60405161237a90816100e28239608051818181610e0f01528181610f0e015261138e0152f35b60ff90811916176000557f7f26b83ff96e1f2b6a682f133852f6798a09c465da95921460cefb3847402498602060405160ff8152a138610029565b62461bcd60e51b815260206004820152602760248201527f496e697469616c697a61626c653a20636f6e747261637420697320696e697469604482015266616c697a696e6760c81b6064820152608490fd5b600080fdfe608060405260048036101561001357600080fd5b60003560e01c90816303d29d28146117c757816306fdde0314611731578163095ea7b31461170b57816318160ddd146116ed57816323b872dd1461162d578163313ce567146116115781633659cfe61461136557816339509351146113145781633f4ba83a1461127f57816340c10f19146112025781634a492d531461117e5781634f1ef28614610ebf57816352d1902d14610dfc5781635c975abb14610dd957816370a0823114610d9f578163715018a614610d425781637572a9db14610cc35781638456cb5914610c305781638da5cb5b14610c0757816395d89b4114610b465781639e4e731814610af7578163a457c2d714610a52578163a9059cbb14610a21578163aa31aee8146109e6578163bffb691d146109c2578163cba4cbd31461099b578163d5abeb011461097c578163d6a35ca0146103fb578163dd62ed3e146103aa578163ebba56441461029f578163f2fde38b1461021057508063fe575a87146101bb5763ffa1ad741461018a57600080fd5b346101b65760003660031901126101b6576101b26101a66119c9565b604051918291826118f6565b0390f35b600080fd5b346101b65760203660031901126101b6576101d4611898565b60ff6101625416806101ee575b6020906040519015158152f35b5060018060a01b0316600052610160602052602060ff604060002054166101e1565b346101b65760203660031901126101b657610229611898565b90610232611b38565b6001600160a01b0382161561024c5761024a82612116565b005b60849060206040519162461bcd60e51b8352820152602660248201527f4f776e61626c653a206e6577206f776e657220697320746865207a65726f206160448201526564647265737360d01b6064820152fd5b346101b65760403660031901126101b6576102b8611898565b602435916102c4611b38565b60ff6101625460081c16156103665742831115610322575060207fa9353e70f07f31e7f4e16464f45e189cbd22826780a5abe4da8303652a86960a9160018060a01b03169283600052610161825280604060002055604051908152a2005b60649060206040519162461bcd60e51b8352820152601b60248201527f4c6f636b2074696d65206d75737420626520696e2066757475726500000000006044820152fd5b60649060206040519162461bcd60e51b8352820152601d60248201527f54696d65206c6f636b2066656174757265206e6f7420656e61626c65640000006044820152fd5b346101b65760403660031901126101b6576103c3611898565b6103cb6118ae565b9060018060a01b038091166000526034602052604060002091166000526020526020604060002054604051908152f35b346101b65760e03660031901126101b657803567ffffffffffffffff81116101b65761042a90369083016119fb565b9060243567ffffffffffffffff81116101b65761044a90369083016119fb565b906084356001600160a01b03811690036101b65760a4359081151582036101b65760c4359283151584036101b6576000549460ff8660081c16159586809761096f575b8015610958575b156108fd5760ff198116600117600055866108eb575b506104c560ff60005460081c166104c08161215f565b61215f565b80519067ffffffffffffffff82116108d65781906104e4603654611a19565b601f8111610862575b50602090601f83116001146107ea576000926107df575b50508160011b916000199060031b1c1916176036555b80519067ffffffffffffffff82116107ca578190610539603754611a19565b601f8111610756575b50602090601f83116001146106de576000926106d3575b50508160011b916000199060031b1c1916176037555b6105a060ff60005460081c166105848161215f565b61058d8161215f565b60ff19606554166065556104c08161215f565b6105a933612116565b6105ba60ff60005460081c1661215f565b6084356001600160a01b03166106c3575b60643515908180156106b5575b1561065f575015610657576000195b61015f556101629160ff61ff00845492151560081b16921515169061ffff191617179055610619604435608435611f4a565b61061f57005b61ff0019600054166000557f7f26b83ff96e1f2b6a682f133852f6798a09c465da95921460cefb3847402498602060405160018152a1005b6064356105e7565b60849060206040519162461bcd60e51b8352820152602960248201527f4d617820737570706c79206d7573742062652030206f72203e3d20696e697469604482015268616c20737570706c7960b81b6064820152fd5b5060443560643510156105d8565b6106ce608435612116565b6105cb565b015190508680610559565b92506037600052600080516020612325833981519152906000935b601f198416851061073b576001945083601f19811610610722575b505050811b0160375561056f565b015160001960f88460031b161c19169055868080610714565b818101518355602094850194600190930192909101906106f9565b9091506037600052601f830160051c60008051602061232583398151915201602084106107b5575b908392915b601f820160051c6000805160206123258339815191520181106107a65750610542565b60008155849350600101610783565b5060008051602061232583398151915261077e565b604183634e487b7160e01b6000525260246000fd5b015190508780610504565b925060366000526000805160206122e5833981519152906000935b601f1984168510610847576001945083601f1981161061082e575b505050811b0160365561051a565b015160001960f88460031b161c19169055878080610820565b81810151835560209485019460019093019290910190610805565b9091506036600052601f830160051c6000805160206122e583398151915201602084106108c1575b908392915b601f820160051c6000805160206122e58339815191520181106108b257506104ed565b6000815584935060010161088f565b506000805160206122e583398151915261088a565b604184634e487b7160e01b6000525260246000fd5b61ffff191661010117600055866104aa565b60405162461bcd60e51b8152602081860152602e60248201527f496e697469616c697a61626c653a20636f6e747261637420697320616c72656160448201526d191e481a5b9a5d1a585b1a5e995960921b6064820152608490fd5b50303b1580156104945750600160ff821614610494565b50600160ff82161061048d565b346101b65760003660031901126101b657602061015f54604051908152f35b346101b65760003660031901126101b657602060ff6101625460081c166040519015158152f35b346101b65760003660031901126101b657602060ff61016254166040519015158152f35b346101b65760203660031901126101b6576001600160a01b03610a07611898565b166000526101616020526020604060002054604051908152f35b346101b65760403660031901126101b657610a47610a3d611898565b6024359033611c92565b602060405160018152f35b346101b65760403660031901126101b657610a6b611898565b602435336000526034602052604060002060018060a01b038316600052602052604060002054818110610aa557610a479350039033611b90565b60405162461bcd60e51b8152602081860152602560248201527f45524332303a2064656372656173656420616c6c6f77616e63652062656c6f77604482015264207a65726f60d81b6064820152608490fd5b346101b65760003660031901126101b6576020610b126119c9565b604051610b3b838281610b2e81830196878151938492016118d3565b8101038084520182611954565b519020604051908152f35b346101b65760003660031901126101b6576040516000603754610b6881611a19565b80845290602090600190818116908115610bdd5750600114610b95575b6101b2856101a681870382611954565b6037600090815293506000805160206123258339815191525b838510610bca575050505081016020016101a6826101b2610b85565b8054868601840152938201938101610bae565b8695506101b2969350602092506101a694915060ff191682840152151560051b8201019293610b85565b346101b65760003660031901126101b65760c9546040516001600160a01b039091168152602090f35b346101b65760003660031901126101b657610c49611b38565b6065549060ff8216610c8c5760018260ff1916176065557f62e78cea01bee320cd4e420270b5ea74000d11b0c9f74754ebdbfc544b05a2586020604051338152a1005b60649060206040519162461bcd60e51b8352820152601060248201526f14185d5cd8589b194e881c185d5cd95960821b6044820152fd5b346101b65760203660031901126101b6577f43a0148be74197659be43bacdac4e492c6e55291225e29fd4f098868ff304fc16080610cff6118c4565b610d07611b38565b151561016260ff1981541660ff831617905560405190604082526009604083015268189b1858dadb1a5cdd60ba1b60608301526020820152a1005b346101b65760003660031901126101b657610d5b611b38565b60c980546001600160a01b031981169091556000906001600160a01b03167f8be0079c531659141344cd1fd0a4f28419497f9722a3daafe3b4186f6b6457e08280a3005b346101b65760203660031901126101b6576001600160a01b03610dc0611898565b1660005260336020526020604060002054604051908152f35b346101b65760003660031901126101b657602060ff606554166040519015158152f35b346101b65760003660031901126101b6577f00000000000000000000000000000000000000000000000000000000000000006001600160a01b03163003610e555760206040516000805160206123058339815191528152f35b60849060206040519162461bcd60e51b8352820152603860248201527f555550535570677261646561626c653a206d757374206e6f742062652063616c60448201527f6c6564207468726f7567682064656c656761746563616c6c00000000000000006064820152fd5b60403660031901126101b657610ed3611898565b9060243567ffffffffffffffff81116101b657366023820112156101b657610f049036906024818501359101611992565b6001600160a01b037f000000000000000000000000000000000000000000000000000000000000000081169190610f3d30841415611a53565b610f5a600080516020612305833981519152938285541614611ab4565b610f62611b38565b7f4910fdfa16fed3260ed0e7147f7cc6da11a60208b5b9406d12a635614ffd91435460ff1615610f99575050505061024a906121bf565b8416604051926352d1902d60e01b845260209384818781865afa6000918161114f575b5061101c5760405162461bcd60e51b8152808701869052602e60248201527f45524331393637557067726164653a206e657720696d706c656d656e7461746960448201526d6f6e206973206e6f74205555505360901b6064820152608490fd5b94919294036110f9575061102f846121bf565b7fbc7cd75a20ee27fd9adebab32041f755214dbc6bffa90cc0225b39da2e5c2d3b600080a28151158015906110f1575b61106557005b61024a926000806040519461107986611922565b602786527f416464726573733a206c6f772d6c6576656c2064656c65676174652063616c6c85870152660819985a5b195960ca1b60408701528481519101845af4903d156110e8573d6110cb81611976565b906110d96040519283611954565b8152600081943d92013e61224f565b6060925061224f565b50600161105f565b60405162461bcd60e51b8152908101839052602960248201527f45524331393637557067726164653a20756e737570706f727465642070726f786044820152681a58589b195555525160ba1b6064820152608490fd5b9091508581813d8311611177575b6111678183611954565b810103126101b657519088610fbc565b503d61115d565b346101b65760203660031901126101b6577f43a0148be74197659be43bacdac4e492c6e55291225e29fd4f098868ff304fc160806111ba6118c4565b6111c2611b38565b1515610162805461ff008360081b169061ff0019161790556040519060408252600860408301526774696d656c6f636b60c01b60608301526020820152a1005b346101b65760403660031901126101b65761121b611898565b60243590611227611b38565b61123382603554611b15565b61015f54106112465761024a9250611f4a565b60405162461bcd60e51b8152602081850152601260248201527145786365656473206d617820737570706c7960701b6044820152606490fd5b346101b65760003660031901126101b657611298611b38565b6065549060ff8216156112d9575060ff19166065557f5db9ee0a495bf2e6ff9c91a7834c1ba4fdd244a5e8aa4e537bd38aeae4b073aa6020604051338152a1005b60649060206040519162461bcd60e51b8352820152601460248201527314185d5cd8589b194e881b9bdd081c185d5cd95960621b6044820152fd5b346101b65760403660031901126101b657610a47611330611898565b336000526034602052604060002060018060a01b03821660005260205261135e602435604060002054611b15565b9033611b90565b346101b657602090816003193601126101b657611380611898565b6001600160a01b03929091907f000000000000000000000000000000000000000000000000000000000000000084166113bb30821415611a53565b6113d8600080516020612305833981519152918683541614611ab4565b6113e0611b38565b604051908282019582871067ffffffffffffffff8811176115fc57866040526000835260ff7f4910fdfa16fed3260ed0e7147f7cc6da11a60208b5b9406d12a635614ffd9143541660001461143e57505050505061024a91506121bf565b859293949516906040516352d1902d60e01b815285818881865afa600091816115cd575b506114c25760405162461bcd60e51b8152808801879052602e60248201527f45524331393637557067726164653a206e657720696d706c656d656e7461746960448201526d6f6e206973206e6f74205555505360901b6064820152608490fd5b95919293950361157757506114d6826121bf565b7fbc7cd75a20ee27fd9adebab32041f755214dbc6bffa90cc0225b39da2e5c2d3b600080a282511580159061156f575b61150c57005b60008061024a956040519561152087611922565b602787527f416464726573733a206c6f772d6c6576656c2064656c65676174652063616c6c86880152660819985a5b195960ca1b60408801525190845af4903d156110e8573d6110cb81611976565b506000611506565b60405162461bcd60e51b8152908101849052602960248201527f45524331393637557067726164653a20756e737570706f727465642070726f786044820152681a58589b195555525160ba1b6064820152608490fd5b9091508681813d83116115f5575b6115e58183611954565b810103126101b657519089611462565b503d6115db565b604185634e487b7160e01b6000525260246000fd5b346101b65760003660031901126101b657602060405160128152f35b346101b65760603660031901126101b657611646611898565b61164e6118ae565b6044359160018060a01b038116600052603460205260406000203360005260205260406000205493600019850361168b575b50610a479350611c92565b8385106116a957506116a383610a4795033383611b90565b84611680565b60649060206040519162461bcd60e51b8352820152601d60248201527f45524332303a20696e73756666696369656e7420616c6c6f77616e63650000006044820152fd5b346101b65760003660031901126101b6576020603554604051908152f35b346101b65760403660031901126101b657610a47611727611898565b6024359033611b90565b346101b65760003660031901126101b657604051600060365461175381611a19565b80845290602090600190818116908115610bdd575060011461177f576101b2856101a681870382611954565b6036600090815293506000805160206122e58339815191525b8385106117b4575050505081016020016101a6826101b2610b85565b8054868601840152938201938101611798565b346101b65760403660031901126101b6576117e0611898565b602435918215158093036101b6576117f6611b38565b60ff610162541615611854575060207f6a12b3df6cba4203bd7fd06b816789f87de8c594299aed5717ae070fac781bac9160018060a01b031692836000526101608252604060002060ff1981541660ff8316179055604051908152a2005b60649060206040519162461bcd60e51b8352820152601d60248201527f426c61636b6c6973742066656174757265206e6f7420656e61626c65640000006044820152fd5b600435906001600160a01b03821682036101b657565b602435906001600160a01b03821682036101b657565b6004359081151582036101b657565b60005b8381106118e65750506000910152565b81810151838201526020016118d6565b6040916020825261191681518092816020860152602086860191016118d3565b601f01601f1916010190565b6060810190811067ffffffffffffffff82111761193e57604052565b634e487b7160e01b600052604160045260246000fd5b90601f8019910116810190811067ffffffffffffffff82111761193e57604052565b67ffffffffffffffff811161193e57601f01601f191660200190565b92919261199e82611976565b916119ac6040519384611954565b8294818452818301116101b6578281602093846000960137010152565b604051906040820182811067ffffffffffffffff82111761193e5760405260058252640312e302e360dc1b6020830152565b9080601f830112156101b657816020611a1693359101611992565b90565b90600182811c92168015611a49575b6020831014611a3357565b634e487b7160e01b600052602260045260246000fd5b91607f1691611a28565b15611a5a57565b60405162461bcd60e51b815260206004820152602c60248201527f46756e6374696f6e206d7573742062652063616c6c6564207468726f7567682060448201526b19195b1959d85d1958d85b1b60a21b6064820152608490fd5b15611abb57565b60405162461bcd60e51b815260206004820152602c60248201527f46756e6374696f6e206d7573742062652063616c6c6564207468726f7567682060448201526b6163746976652070726f787960a01b6064820152608490fd5b91908201809211611b2257565b634e487b7160e01b600052601160045260246000fd5b60c9546001600160a01b03163303611b4c57565b606460405162461bcd60e51b815260206004820152602060248201527f4f776e61626c653a2063616c6c6572206973206e6f7420746865206f776e65726044820152fd5b6001600160a01b03908116918215611c415716918215611bf15760207f8c5be1e5ebec7d5bd14f71427d1e84f3dd0314c0f7b2291e5b200ac8c7c3b925918360005260348252604060002085600052825280604060002055604051908152a3565b60405162461bcd60e51b815260206004820152602260248201527f45524332303a20617070726f766520746f20746865207a65726f206164647265604482015261737360f01b6064820152608490fd5b60405162461bcd60e51b8152602060048201526024808201527f45524332303a20617070726f76652066726f6d20746865207a65726f206164646044820152637265737360e01b6064820152608490fd5b6001600160a01b03908116918215611ef75716918215611ea65760ff60655416611e4e576101625460ff8116611dde575b60081c60ff1680611dd6575b611d86575b60008281526033602052604081205491808310611d3257604082827fddf252ad1be2c89b69c2b068fc378daa952ba7f163c4a11628f55a4df523b3ef95876020965260338652038282205586815220818154019055604051908152a3565b60405162461bcd60e51b815260206004820152602660248201527f45524332303a207472616e7366657220616d6f756e7420657863656564732062604482015265616c616e636560d01b6064820152608490fd5b81600052610161602052604060002054421015611cd45760405162461bcd60e51b8152602060048201526011602482015270151bdad95b9cc8185c99481b1bd8dad959607a1b6044820152606490fd5b506001611ccf565b8260005261016060205260ff604060002054161580611e3a575b611cc35760405162461bcd60e51b81526020600482015260166024820152751059191c995cdcc81a5cc8189b1858dadb1a5cdd195960521b6044820152606490fd5b508360005260ff6040600020541615611df8565b60405162461bcd60e51b815260206004820152602a60248201527f45524332305061757361626c653a20746f6b656e207472616e736665722077686044820152691a5b19481c185d5cd95960b21b6064820152608490fd5b60405162461bcd60e51b815260206004820152602360248201527f45524332303a207472616e7366657220746f20746865207a65726f206164647260448201526265737360e81b6064820152608490fd5b60405162461bcd60e51b815260206004820152602560248201527f45524332303a207472616e736665722066726f6d20746865207a65726f206164604482015264647265737360d81b6064820152608490fd5b6001600160a01b03169081156120d15760ff60655416611e4e576101625460ff8116612045575b60081c60ff168061203d575b611fd1575b7fddf252ad1be2c89b69c2b068fc378daa952ba7f163c4a11628f55a4df523b3ef602082611fb4600094603554611b15565b6035558484526033825260408420818154019055604051908152a3565b600080526101616020527f4cdf2c841e4d152d74c60f76cc8ce4b29682e276e316ac9d2d73654088739d6e54421015611f825760405162461bcd60e51b8152602060048201526011602482015270151bdad95b9cc8185c99481b1bd8dad959607a1b6044820152606490fd5b506000611f7d565b600080526101606020527fe202c269d77798732efec7617aed439009af6a5bc60648e5771bc32ef6e071df5460ff1615806120bd575b611f715760405162461bcd60e51b81526020600482015260166024820152751059191c995cdcc81a5cc8189b1858dadb1a5cdd195960521b6044820152606490fd5b508260005260ff604060002054161561207b565b60405162461bcd60e51b815260206004820152601f60248201527f45524332303a206d696e7420746f20746865207a65726f2061646472657373006044820152606490fd5b60c980546001600160a01b039283166001600160a01b0319821681179092559091167f8be0079c531659141344cd1fd0a4f28419497f9722a3daafe3b4186f6b6457e0600080a3565b1561216657565b60405162461bcd60e51b815260206004820152602b60248201527f496e697469616c697a61626c653a20636f6e7472616374206973206e6f74206960448201526a6e697469616c697a696e6760a81b6064820152608490fd5b803b156121f45760008051602061230583398151915280546001600160a01b0319166001600160a01b03909216919091179055565b60405162461bcd60e51b815260206004820152602d60248201527f455243313936373a206e657720696d706c656d656e746174696f6e206973206e60448201526c1bdd08184818dbdb9d1c9858dd609a1b6064820152608490fd5b919290156122b15750815115612263575090565b3b1561226c5790565b60405162461bcd60e51b815260206004820152601d60248201527f416464726573733a2063616c6c20746f206e6f6e2d636f6e74726163740000006044820152606490fd5b8251909150156122c45750805190602001fd5b60405162461bcd60e51b81529081906122e090600483016118f6565b0390fdfe4a11f94e20a93c79f6ec743a1954ec4fc2c08429ae2122118bf234b2185c81b8360894a13ba1a3210667c828492db98dca3e2076cc3735a920a3ca505d382bbc42a7b7dd785cd69714a189dffb3fd7d7174edc9ece837694ce50f7078f7c31aea2646970667358221220eb127cf04fcafd1ef6b701fa01a31d9cb50b967e6af5eb7568ecafe6525c4fad64736f6c63430008160033",
  "linkReferences": {},
  "deployedLinkReferences": {}
}