{
  "_format": "hh-sol-artifact-1",
  "contractName": "TokenFactory_v1",
  "sourceName": "src/contracts/TokenFactory_v1.sol",
  "abi": [
    {
      "inputs": [
        {
          "internalType": "uint256",
          "name": "initialFee",
          "type": "uint256"
        },
        {
          "internalType": "address",
          "name": "_liquidityLocker",
          "type": "address"
        }
      ],
      "stateMutability": "nonpayable",
      "type": "constructor"
    },
    {
      "anonymous": false,
      "inputs": [
        {
          "indexed": false,
          "internalType": "uint256",
          "name": "newFee",
          "type": "uint256"
        }
      ],
      "name": "DeploymentFeeUpdated",
      "type": "event"
    },
    {
      "anonymous": false,
      "inputs": [
        {
          "indexed": true,
          "internalType": "address",
          "name": "token",
          "type": "address"
        },
        {
          "indexed": true,
          "internalType": "address",
          "name": "fairLaunch",
          "type": "address"
        },
        {
          "indexed": false,
          "internalType": "uint256",
          "name": "totalSellingAmount",
          "type": "uint256"
        },
        {
          "indexed": false,
          "internalType": "uint256",
          "name": "softCap",
          "type": "uint256"
        },
        {
          "indexed": false,
          "internalType": "uint256",
          "name": "startTime",
          "type": "uint256"
        },
        {
          "indexed": false,
          "internalType": "uint256",
          "name": "endTime",
          "type": "uint256"
        }
      ],
      "name": "FairLaunchCreated",
      "type": "event"
    },
    {
      "anonymous": false,
      "inputs": [
        {
          "indexed": true,
          "internalType": "address",
          "name": "previousOwner",
          "type": "address"
        },
        {
          "indexed": true,
          "internalType": "address",
          "name": "newOwner",
          "type": "address"
        }
      ],
      "name": "OwnershipTransferred",
      "type": "event"
    },
    {
      "anonymous": false,
      "inputs": [
        {
          "indexed": true,
          "internalType": "address",
          "name": "token",
          "type": "address"
        },
        {
          "indexed": false,
          "internalType": "string",
          "name": "name",
          "type": "string"
        },
        {
          "indexed": false,
          "internalType": "string",
          "name": "symbol",
          "type": "string"
        },
        {
          "indexed": true,
          "internalType": "address",
          "name": "owner",
          "type": "address"
        },
        {
          "indexed": false,
          "internalType": "uint256",
          "name": "initialSupply",
          "type": "uint256"
        },
        {
          "indexed": false,
          "internalType": "uint256",
          "name": "maxSupply",
          "type": "uint256"
        },
        {
          "indexed": false,
          "internalType": "bool",
          "name": "blacklistEnabled",
          "type": "bool"
        },
        {
          "indexed": false,
          "internalType": "bool",
          "name": "timeLockEnabled",
          "type": "bool"
        },
        {
          "indexed": false,
          "internalType": "uint256",
          "name": "deploymentTime",
          "type": "uint256"
        }
      ],
      "name": "TokenCreated",
      "type": "event"
    },
    {
      "inputs": [],
      "name": "VERSION",
      "outputs": [
        {
          "internalType": "string",
          "name": "",
          "type": "string"
        }
      ],
      "stateMutability": "view",
      "type": "function"
    },
    {
      "inputs": [],
      "name": "VERSION_HASH",
      "outputs": [
        {
          "internalType": "bytes32",
          "name": "",
          "type": "bytes32"
        }
      ],
      "stateMutability": "view",
      "type": "function"
    },
    {
      "inputs": [
        {
          "internalType": "address",
          "name": "token",
          "type": "address"
        },
        {
          "internalType": "uint256",
          "name": "totalSellingAmount",
          "type": "uint256"
        },
        {
          "internalType": "uint256",
          "name": "softCap",
          "type": "uint256"
        },
        {
          "internalType": "uint256",
          "name": "maxContributionPerUser",
          "type": "uint256"
        },
        {
          "internalType": "uint256",
          "name": "liquidityPercent",
          "type": "uint256"
        },
        {
          "internalType": "uint256",
          "name": "startTime",
          "type": "uint256"
        },
        {
          "internalType": "uint256",
          "name": "endTime",
          "type": "uint256"
        },
        {
          "internalType": "uint256",
          "name": "liquidityLockTime",
          "type": "uint256"
        },
        {
          "internalType": "address",
          "name": "router",
          "type": "address"
        }
      ],
      "name": "createFairLaunch",
      "outputs": [],
      "stateMutability": "payable",
      "type": "function"
    },
    {
      "inputs": [
        {
          "internalType": "string",
          "name": "name",
          "type": "string"
        },
        {
          "internalType": "string",
          "name": "symbol",
          "type": "string"
        },
        {
          "internalType": "uint256",
          "name": "initialSupply",
          "type": "uint256"
        },
        {
          "internalType": "uint256",
          "name": "maxSupply",
          "type": "uint256"
        },
        {
          "internalType": "bool",
          "name": "enableBlacklist",
          "type": "bool"
        },
        {
          "internalType": "bool",
          "name": "enableTimeLock",
          "type": "bool"
        }
      ],
      "name": "createToken",
      "outputs": [],
      "stateMutability": "payable",
      "type": "function"
    },
    {
      "inputs": [],
      "name": "deploymentFee",
      "outputs": [
        {
          "internalType": "uint256",
          "name": "",
          "type": "uint256"
        }
      ],
      "stateMutability": "view",
      "type": "function"
    },
    {
      "inputs": [],
      "name": "getAllFairLaunches",
      "outputs": [
        {
          "internalType": "address[]",
          "name": "",
          "type": "address[]"
        }
      ],
      "stateMutability": "view",
      "type": "function"
    },
    {
      "inputs": [],
      "name": "getDeployedTokens",
      "outputs": [
        {
          "internalType": "address[]",
          "name": "",
          "type": "address[]"
        }
      ],
      "stateMutability": "view",
      "type": "function"
    },
    {
      "inputs": [
        {
          "internalType": "address",
          "name": "token",
          "type": "address"
        }
      ],
      "name": "getFairLaunchByToken",
      "outputs": [
        {
          "internalType": "address",
          "name": "",
          "type": "address"
        }
      ],
      "stateMutability": "view",
      "type": "function"
    },
    {
      "inputs": [
        {
          "internalType": "address",
          "name": "fairLaunch",
          "type": "address"
        }
      ],
      "name": "getTokenByFairLaunch",
      "outputs": [
        {
          "internalType": "address",
          "name": "",
          "type": "address"
        }
      ],
      "stateMutability": "view",
      "type": "function"
    },
    {
      "inputs": [
        {
          "internalType": "address",
          "name": "token",
          "type": "address"
        }
      ],
      "name": "getTokenDeployer",
      "outputs": [
        {
          "internalType": "address",
          "name": "",
          "type": "address"
        }
      ],
      "stateMutability": "view",
      "type": "function"
    },
    {
      "inputs": [
        {
          "internalType": "address",
          "name": "user",
          "type": "address"
        }
      ],
      "name": "getTokensByUser",
      "outputs": [
        {
          "internalType": "address[]",
          "name": "",
          "type": "address[]"
        }
      ],
      "stateMutability": "view",
      "type": "function"
    },
    {
      "inputs": [],
      "name": "liquidityLocker",
      "outputs": [
        {
          "internalType": "contract LiquidityLocker_v1",
          "name": "",
          "type": "address"
        }
      ],
      "stateMutability": "view",
      "type": "function"
    },
    {
      "inputs": [],
      "name": "owner",
      "outputs": [
        {
          "internalType": "address",
          "name": "",
          "type": "address"
        }
      ],
      "stateMutability": "view",
      "type": "function"
    },
    {
      "inputs": [],
      "name": "renounceOwnership",
      "outputs": [],
      "stateMutability": "nonpayable",
      "type": "function"
    },
    {
      "inputs": [
        {
          "internalType": "uint256",
          "name": "newFee",
          "type": "uint256"
        }
      ],
      "name": "setDeploymentFee",
      "outputs": [],
      "stateMutability": "nonpayable",
      "type": "function"
    },
    {
      "inputs": [],
      "name": "tokenImplementation",
      "outputs": [
        {
          "internalType": "contract TokenTemplate_v1",
          "name": "",
          "type": "address"
        }
      ],
      "stateMutability": "view",
      "type": "function"
    },
    {
      "inputs": [
        {
          "internalType": "address",
          "name": "newOwner",
          "type": "address"
        }
      ],
      "name": "transferOwnership",
      "outputs": [],
      "stateMutability": "nonpayable",
      "type": "function"
    },
    {
      "inputs": [],
      "name": "withdrawFees",
      "outputs": [],
      "stateMutability": "nonpayable",
      "type": "function"
    }
  ],
  "bytecode": "0x60c03461013d57614cf9906001600160401b0390601f38849003908101601f191682019083821183831017610142578083916040968794855283398101031261013d5780516020909101516001600160a01b03808216939184900361013d5760207f40bd824d588484917db8fa4fc894c1e0feae5a75885290ba7b97521cebf82a809160009485543360018060a01b031982161787558851923391167f8be0079c531659141344cd1fd0a4f28419497f9722a3daafe3b4186f6b6457e08880a360018055806002558152a183519061281880830191821183831017610129579082916124e18339039082f090811561011e575060805260a05251612388908161015982396080518181816108670152610c52015260a051816106460152f35b8351903d90823e3d90fd5b634e487b7160e01b84526041600452602484fd5b600080fd5b634e487b7160e01b600052604160045260246000fdfe60806040818152600491823610156200001757600080fd5b600092833560e01c9182631f132c711462000c81575081632f3a3d5d1462000c3b578163303eddb61462000bb1578163476343ee1462000b19578163622ae7aa1462000a8f578163715018a61462000a2e5781637c9b5445146200073357816380370075146200069f5781638da5cb5b14620006755781639759164a146200062f5781639e4e731814620005d8578163b14e7ee61462000599578163c9d81a2e14620002c5578163d002462b1462000273578163ed878b681462000234578163f2cff57f1462000213578163f2fde38b146200013b575063ffa1ad7414620000fe57600080fd5b34620001375781600319360112620001375762000133906200011f62000dc3565b905191829160208352602083019062000e1b565b0390f35b5080fd5b9050346200020f5760203660031901126200020f576200015a62000cbd565b906200016562000e8f565b6001600160a01b03918216928315620001bd575050600054826bffffffffffffffffffffffff60a01b821617600055167f8be0079c531659141344cd1fd0a4f28419497f9722a3daafe3b4186f6b6457e0600080a380f35b906020608492519162461bcd60e51b8352820152602660248201527f4f776e61626c653a206e6577206f776e657220697320746865207a65726f206160448201526564647265737360d01b6064820152fd5b8280fd5b50503462000137578160031936011262000137576020906002549051908152f35b5050346200013757602036600319011262000137576020916001600160a01b03908290826200026262000cbd565b168152600885522054169051908152f35b9050346200020f5760203660031901126200020f577f40bd824d588484917db8fa4fc894c1e0feae5a75885290ba7b97521cebf82a80916020913590620002b962000e8f565b8160025551908152a180f35b9190506101203660031901126200020f57620002e062000cbd565b906024918235916044359060a4359160c43593610104359760018060a01b0391828a16809a03620005955782906200031762000ee8565b6200032760025434101562000e42565b1697888b526020926005845280868d20541633036200056257898c526007845280868d2054166200052d57855167ffffffffffffffff9b610ffd80830191908e8311848410176200051a57928f949392610120928f8f90849662001356863983528a8301528a8c830152606435606083015260843560808301528c60a08301528d60c083015260e43560e083015261010082015203019083f080156200051057169a8b3b156200013757818c8489518095819363f2fde38b60e01b8352338a8401525af180156200050657620004df575b505060065491600160401b831015620004cc576001830180600655831015620004b957505060066000527ff652222313e28459528d920b65115c16c04f3efc82aaedc97be59f3f377c0d3f0180546001600160a01b03199081168a17909155878a5260078252838a20805482168a179055888a5260088252838a20805490911688179055825195865285015283015260608201527fd2ee6d1d2dae9efb47da05723dedec8edbd32e9a27696fde4f129cb253e6b60190608090a36001805580f35b603290634e487b7160e01b600052526000fd5b604190634e487b7160e01b600052526000fd5b819c929c11620004f4578552993880620003f8565b5060418b92634e487b7160e01b835252fd5b87513d8f823e3d90fd5b87513d84823e3d90fd5b50634e487b7160e01b8f5260418652848ffd5b5060119060649386519362461bcd60e51b855284015282015270466169726c61756e63682065786973747360781b6044820152fd5b50600f9060649386519362461bcd60e51b85528401528201526e2737ba103a37b5b2b71037bbb732b960891b6044820152fd5b8a80fd5b5050346200013757602036600319011262000137576020916001600160a01b0390829082620005c762000cbd565b168152600585522054169051908152f35b5050346200013757816003193601126200013757602090620005f962000dc3565b81516200062584828162000617818301968781519384920162000df6565b810103808452018262000d20565b5190209051908152f35b5050346200013757816003193601126200013757517f00000000000000000000000000000000000000000000000000000000000000006001600160a01b03168152602090f35b5050346200013757816003193601126200013757905490516001600160a01b039091168152602090f35b919050346200020f576020806003193601126200072f576001600160a01b0393909284620006cc62000cbd565b1682526020528181209382519081946020875493848152019684526020842093915b83831062000715576200013387876200070a828c038362000d20565b519182918262000cd9565b8454811688529681019660019485019490920191620006ee565b8380fd5b838360c0366003190112620001375767ffffffffffffffff9280358481116200072f5762000765903690830162000d76565b602494853581811162000a2a5762000781903690850162000d76565b95604435606435906084359283151580940362000a265760a4359485151580960362000a2257908a91620007b462000ee8565b620007c460025434101562000e42565b8951906200083682620008096020966306b51ae560e51b8884015260e087840152620007f68d61010485019062000e1b565b8381036023190160448501529062000e1b565b8760648301528860848301523360a48301528960c48301528a60e483015203601f19810184528362000d20565b8a516001600160a01b039290916104168084019182118483101762000a1057918d6200089692859462000f408639867f00000000000000000000000000000000000000000000000000000000000000001681528189820152019062000e1b565b03908cf0801562000a0657169760035490600160401b9182811015620009f4576001810180600355811015620009e2577fc2575a0e9e593c00f959f8c92f12db2869c3395a3b0502d05e2516446f71f85b01926bffffffffffffffffffffffff60a01b938b85825416179055338d528185528b8d2091825493841015620009d15760018401808455841015620009c0575050918b9c91848d6200099a96957f89ecfc33d2a43016e717c18dee2db6a3f8b15851f7f5b885254663ed9fa9ab369d9e9f5220018b828254161790558a8d52600583528b8d209033908254161790556200098c8b519860e08a5260e08a019062000e1b565b918883039089015262000e1b565b978501526060840152608083015260a08201524260c08201528033940390a36001805580f35b634e487b7160e01b8e52603290528cfd5b634e487b7160e01b8e52604190528cfd5b634e487b7160e01b8d5260328252838dfd5b634e487b7160e01b8d5260418252838dfd5b8a513d8d823e3d90fd5b634e487b7160e01b8f5260418d52858ffd5b8980fd5b8880fd5b8580fd5b833462000a8c578060031936011262000a8c5762000a4b62000e8f565b80546001600160a01b03198116825581906001600160a01b03167f8be0079c531659141344cd1fd0a4f28419497f9722a3daafe3b4186f6b6457e08280a380f35b80fd5b82843462000a8c578060031936011262000a8c578151918291600354808552602080950194600383527fc2575a0e9e593c00f959f8c92f12db2869c3395a3b0502d05e2516446f71f85b92905b82821062000af8576200013386866200070a828b038362000d20565b83546001600160a01b03168752958601956001938401939091019062000adc565b919050346200020f57826003193601126200020f5762000b3862000e8f565b8280808047335af13d1562000bab573d62000b538162000d59565b9062000b628451928362000d20565b81528460203d92013e5b1562000b76578280f35b906020606492519162461bcd60e51b8352820152600f60248201526e151c985b9cd9995c8819985a5b1959608a1b6044820152fd5b62000b6c565b82843462000a8c578060031936011262000a8c578151918291600654808552602080950194600683527ff652222313e28459528d920b65115c16c04f3efc82aaedc97be59f3f377c0d3f92905b82821062000c1a576200013386866200070a828b038362000d20565b83546001600160a01b03168752958601956001938401939091019062000bfe565b5050346200013757816003193601126200013757517f00000000000000000000000000000000000000000000000000000000000000006001600160a01b03168152602090f35b849084346200020f5760203660031901126200020f576020926001600160a01b0391908262000caf62000cbd565b168152600785522054168152f35b600435906001600160a01b038216820362000cd457565b600080fd5b602090602060408183019282815285518094520193019160005b82811062000d02575050505090565b83516001600160a01b03168552938101939281019260010162000cf3565b90601f8019910116810190811067ffffffffffffffff82111762000d4357604052565b634e487b7160e01b600052604160045260246000fd5b67ffffffffffffffff811162000d4357601f01601f191660200190565b81601f8201121562000cd45780359062000d908262000d59565b9262000da0604051948562000d20565b8284526020838301011162000cd457816000926020809301838601378301015290565b604051906040820182811067ffffffffffffffff82111762000d435760405260058252640312e302e360dc1b6020830152565b60005b83811062000e0a5750506000910152565b818101518382015260200162000df9565b9060209162000e368151809281855285808601910162000df6565b601f01601f1916010190565b1562000e4a57565b60405162461bcd60e51b815260206004820152601b60248201527f496e73756666696369656e74206465706c6f796d656e742066656500000000006044820152606490fd5b6000546001600160a01b0316330362000ea457565b606460405162461bcd60e51b815260206004820152602060248201527f4f776e61626c653a2063616c6c6572206973206e6f7420746865206f776e65726044820152fd5b60026001541462000efa576002600155565b60405162461bcd60e51b815260206004820152601f60248201527f5265656e7472616e637947756172643a207265656e7472616e742063616c6c006044820152606490fdfe604060808152610416908138038061001681610218565b93843982019181818403126102135780516001600160a01b038116808203610213576020838101516001600160401b0394919391858211610213570186601f820112156102135780519061007161006c83610253565b610218565b918083528583019886828401011161021357888661008f930161026e565b813b156101b9577f360894a13ba1a3210667c828492db98dca3e2076cc3735a920a3ca505d382bbc80546001600160a01b031916841790556000927fbc7cd75a20ee27fd9adebab32041f755214dbc6bffa90cc0225b39da2e5c2d3b8480a28051158015906101b2575b61010b575b855160d190816103458239f35b855194606086019081118682101761019e578697849283926101889952602788527f416464726573733a206c6f772d6c6576656c2064656c65676174652063616c6c87890152660819985a5b195960ca1b8a8901525190845af4913d15610194573d9061017a61006c83610253565b91825281943d92013e610291565b508038808080806100fe565b5060609250610291565b634e487b7160e01b84526041600452602484fd5b50826100f9565b855162461bcd60e51b815260048101859052602d60248201527f455243313936373a206e657720696d706c656d656e746174696f6e206973206e60448201526c1bdd08184818dbdb9d1c9858dd609a1b6064820152608490fd5b600080fd5b6040519190601f01601f191682016001600160401b0381118382101761023d57604052565b634e487b7160e01b600052604160045260246000fd5b6001600160401b03811161023d57601f01601f191660200190565b60005b8381106102815750506000910152565b8181015183820152602001610271565b919290156102f357508151156102a5575090565b3b156102ae5790565b60405162461bcd60e51b815260206004820152601d60248201527f416464726573733a2063616c6c20746f206e6f6e2d636f6e74726163740000006044820152606490fd5b8251909150156103065750805190602001fd5b6044604051809262461bcd60e51b825260206004830152610336815180928160248601526020868601910161026e565b601f01601f19168101030190fdfe608060405236156054577f360894a13ba1a3210667c828492db98dca3e2076cc3735a920a3ca505d382bbc54600090819081906001600160a01b0316368280378136915af43d82803e156050573d90f35b3d90fd5b7f360894a13ba1a3210667c828492db98dca3e2076cc3735a920a3ca505d382bbc54600090819081906001600160a01b0316368280378136915af43d82803e156050573d90f3fea264697066735822122030ade24792416a57d4529afbb56817b4411c22cc00ef8c3e8e9dd6ea015f4e2564736f6c6343000816003360803461031a576001600160401b0390601f610ffd38819003918201601f19168301918483118484101761020c578084926101209460405283398101031261031a5761004a8161031f565b9160208201519260408301519260608101519060808101519460a08201519160c08101519361008161010060e0840151930161031f565b916001600055600154604051903360018060a01b0382167f8be0079c531659141344cd1fd0a4f28419497f9722a3daafe3b4186f6b6457e0600080a36001600160a81b0319163360ff60a01b19161760015560198a10158061030f575b156102cd575042851115610293578486111561025b578015610222576040519788610160810110906101608a01111761020c577f998e2f8323861e03bd815862a29c32494f89196f6be3b60e5b146892590b318d98886101409461016060809b0160405260018060a01b038a1682528c6020830152866040830152846060830152828b8301528760a08301528860c08301528360e08301526000610100830152600061012083015260018060a01b0316948591015260018060a01b03199260018060a01b0389168460025416176002558b60035585600455600555600655846007558560085560095560ff19600a5416600a556000600b55600c541617600c5560405196875260208701526040860152606085015260018060a01b031692a2604051610cc990816103348239f35b634e487b7160e01b600052604160045260246000fd5b60405162461bcd60e51b8152602060048201526011602482015270496e76616c6964206c6f636b2074696d6560781b6044820152606490fd5b60405162461bcd60e51b815260206004820152601060248201526f496e76616c696420656e642074696d6560801b6044820152606490fd5b60405162461bcd60e51b8152602060048201526012602482015271496e76616c69642073746172742074696d6560701b6044820152606490fd5b62461bcd60e51b815260206004820152601960248201527f496e76616c6964206c69717569646974792070657263656e74000000000000006044820152606490fd5b5060648a11156100de565b600080fd5b51906001600160a01b038216820361031a5756fe60406080815260048036101561001457600080fd5b600091823560e01c8381631af0320314610978575080632f7ad55f146108f15780633f4ba83a1461085557806342e94c901461081b5780634bb278f3146105be5780635c975abb14610597578063715018a6146105375780638456cb59146104d65780638da5cb5b146104ad578063b5545a3c1461036c578063d7bb99ba146101e9578063db2e21bc146101865763f2fde38b146100b157600080fd5b34610182576020366003190112610182576001600160a01b0382358181169391929084900361017e576100e2610b9e565b831561012c575050600154826bffffffffffffffffffffffff60a01b821617600155167f8be0079c531659141344cd1fd0a4f28419497f9722a3daafe3b4186f6b6457e08380a380f35b906020608492519162461bcd60e51b8352820152602660248201527f4f776e61626c653a206e6577206f776e657220697320746865207a65726f206160448201526564647265737360d01b6064820152fd5b8480fd5b8280fd5b8382346101e557816003193601126101e5576101a0610b9e565b6101af60ff600a541615610a9b565b8180808060018060a01b036001541647908282156101dc575bf1156101d2575080f35b51903d90823e3d90fd5b506108fc6101c8565b5080fd5b509082600319360112610182576101fe610bf6565b610206610c4c565b600754421061033c5760085442116103125761022760ff600a541615610b66565b34156102dc57338352600d6020526102423483852054610b59565b9060055482116102995750338352600d6020528183205561026534600b54610b59565b600b55513481527f62722348256371b5147820d6cad90c40fd2da1ccee18c3ed52c0bca5a61dbbab60203392a26001815580f35b606490602084519162461bcd60e51b8352820152601860248201527f45786365656473206d617820636f6e747269627574696f6e00000000000000006044820152fd5b6020606492519162461bcd60e51b835282015260116024820152702d32b9379031b7b73a3934b13aba34b7b760791b6044820152fd5b6020606492519162461bcd60e51b83528201526005602482015264115b99195960da1b6044820152fd5b6020606492519162461bcd60e51b8352820152600b60248201526a139bdd081cdd185c9d195960aa1b6044820152fd5b5034610182578260031936011261018257610385610bf6565b60085442111561047e5761039e60ff600a541615610b66565b600b548254111561044957338352600d602052808320549182156104135750338352600d602052828181205582808080853382f11561040857519081527fd7dee2702d63ad89917b6a4da9981c90c4d24f8c2bdfd64c604ecae57d8d065160203392a26001815580f35b51913d9150823e3d90fd5b6020606492519162461bcd60e51b83528201526011602482015270139bdd1a1a5b99c81d1bc81c99599d5b99607a1b6044820152fd5b906020606492519162461bcd60e51b8352820152600f60248201526e14dbd99d18d85c081c995858da1959608a1b6044820152fd5b906020606492519162461bcd60e51b83528201526009602482015268139bdd08195b99195960ba1b6044820152fd5b8382346101e557816003193601126101e55760015490516001600160a01b039091168152602090f35b8382346101e557816003193601126101e55760207f62e78cea01bee320cd4e420270b5ea74000d11b0c9f74754ebdbfc544b05a25891610514610b9e565b61051c610c4c565b6001805460ff60a01b1916600160a01b17905551338152a180f35b8334610594578060031936011261059457610550610b9e565b600180546001600160a01b0319811690915581906001600160a01b03167f8be0079c531659141344cd1fd0a4f28419497f9722a3daafe3b4186f6b6457e08280a380f35b80fd5b8382346101e557816003193601126101e55760209060ff60015460a01c1690519015158152f35b50346101825782600319360112610182576105d7610bf6565b6105df610b9e565b6008544211801561080d575b156107d457600a549161060160ff841615610a9b565b600b54928154841061079b5760019060ff191617600a5560646106358161062b6006548097610b30565b0494600354610b30565b600c54600254855163095ea7b360e01b81526001600160a01b039283168187018181529590940460208681018290529096949591929091839185169082908c90829060400103925af1801561079157610762575b50600254169161012c420180421161074f57918660c492606095948851978896879563f305d71960e01b875286015260248501528a60448501528a606485015230608485015260a48401525af180156107455761071a575b507fb968440accd1ce5fa60b00de8bb8d8487eb2fda3c3701fb30fea3f69aa910a4891600b549082519182526020820152a16001815580f35b606090813d831161073e575b6107308183610adb565b8101031261018257386106e1565b503d610726565b82513d86823e3d90fd5b634e487b7160e01b885260118352602488fd5b6107839060203d60201161078a575b61077b8183610adb565b810190610b13565b5038610689565b503d610771565b86513d8a823e3d90fd5b506020606492519162461bcd60e51b8352820152601360248201527214dbd99d18d85c081b9bdd081c995858da1959606a1b6044820152fd5b906020606492519162461bcd60e51b8352820152601360248201527210d85b9b9bdd08199a5b985b1a5e99481e595d606a1b6044820152fd5b50600b5460035411156105eb565b50903461018257602036600319011261018257356001600160a01b038116908190036101825782829160209452600d845220549051908152f35b50903461018257826003193601126101825761086f610b9e565b6001549060ff8260a01c16156108b7575060ff60a01b1916600155513381527f5db9ee0a495bf2e6ff9c91a7834c1ba4fdd244a5e8aa4e537bd38aeae4b073aa90602090a180f35b606490602084519162461bcd60e51b8352820152601460248201527314185d5cd8589b194e881b9bdd081c185d5cd95960621b6044820152fd5b509034610182578260031936011261018257610160925060018060a01b03806002541692600354925460055460065460075490600854926009549460ff600a541696600b5498600c54169981519b8c5260208c01528a01526060890152608088015260a087015260c086015260e08501521515610100840152610120830152610140820152f35b919050346101e557602092836003193601126101825780356001600160a01b038181169182900361017e576109ab610b9e565b6109ba60ff600a541615610a9b565b600154168351926370a0823160e01b845230818501528684602481865afa938415610a91579087949392918794610a58575b50855163a9059cbb60e01b81526001600160a01b03909216908201908152602081019390935294859283919082906040015b03925af1908115610a4f5750610a32578280f35b81610a4892903d1061078a5761077b8183610adb565b5038808280f35b513d85823e3d90fd5b8581969295503d8311610a8a575b610a708183610adb565b81010312610a8657925186939092610a1e6109ec565b8580fd5b503d610a66565b85513d88823e3d90fd5b15610aa257565b60405162461bcd60e51b8152602060048201526011602482015270105b1c9958591e48199a5b985b1a5e9959607a1b6044820152606490fd5b90601f8019910116810190811067ffffffffffffffff821117610afd57604052565b634e487b7160e01b600052604160045260246000fd5b90816020910312610b2b57518015158103610b2b5790565b600080fd5b81810292918115918404141715610b4357565b634e487b7160e01b600052601160045260246000fd5b91908201809211610b4357565b15610b6d57565b60405162461bcd60e51b8152602060048201526009602482015268119a5b985b1a5e995960ba1b6044820152606490fd5b6001546001600160a01b03163303610bb257565b606460405162461bcd60e51b815260206004820152602060248201527f4f776e61626c653a2063616c6c6572206973206e6f7420746865206f776e65726044820152fd5b600260005414610c07576002600055565b60405162461bcd60e51b815260206004820152601f60248201527f5265656e7472616e637947756172643a207265656e7472616e742063616c6c006044820152606490fd5b60ff60015460a01c16610c5b57565b60405162461bcd60e51b815260206004820152601060248201526f14185d5cd8589b194e881c185d5cd95960821b6044820152606490fdfea26469706673582212208204ae794c44ef53e0eb75529fc58bab7554f7f87f973f519d52aff1a6e3d27e64736f6c63430008160033a2646970667358221220da8998fbb50723b1a80a6f377b71c65dda302a27a226caeaca57cde74e5b1baf64736f6c6343000816003360a080604052346100dc57306080526000549060ff8260081c1661008a575060ff8082160361004f575b60405161273690816100e28239608051818181610f820152818161108101526115b60152f35b60ff90811916176000557f7f26b83ff96e1f2b6a682f133852f6798a09c465da95921460cefb3847402498602060405160ff8152a138610029565b62461bcd60e51b815260206004820152602760248201527f496e697469616c697a61626c653a20636f6e747261637420697320696e697469604482015266616c697a696e6760c81b6064820152608490fd5b600080fdfe608060405260048036101561001357600080fd5b60003560e01c90816303d29d2814611a4657816306fdde03146119b0578163095ea7b31461198a57816318160ddd1461196c57816323b872dd146118ac57816327a14fc214611855578163313ce567146118395781633659cfe61461158d578163395093511461153c5781633f4ba83a146114a757816340c10f191461142a5781634a492d53146113a65781634ada218b1461137f5781634ef901dc146112f15781634f1ef2861461103257816352d1902d14610f6f5781635c975abb14610f4c57816370a0823114610f1257816370b7b80c14610ef3578163715018a614610e965781637572a9db14610e175781638456cb5914610d845781638c0b5e2214610d655781638da5cb5b14610d3c57816395d89b4114610c7b5781639e4e731814610c2c578163a457c2d714610b87578163a9059cbb14610b56578163aa31aee814610b1b578163aa4bde2814610afc578163bffb691d14610ad8578163c2e5ec0414610a71578163cba4cbd314610a4a578163d5abeb0114610a2b578163d6a35ca0146104aa578163dd62ed3e14610459578163ebba56441461034e578163ec28438a146102f7578163f2fde38b1461026857508063fe575a87146102135763ffa1ad74146101e257600080fd5b3461020e57600036600319011261020e5761020a6101fe611c48565b60405191829182611b75565b0390f35b600080fd5b3461020e57602036600319011261020e5761022c611b17565b60ff610162541680610246575b6020906040519015158152f35b5060018060a01b0316600052610160602052602060ff60406000205416610239565b3461020e57602036600319011261020e57610281611b17565b9061028a611df4565b6001600160a01b038216156102a4576102a2826121d2565b005b60849060206040519162461bcd60e51b8352820152602660248201527f4f776e61626c653a206e6577206f776e657220697320746865207a65726f206160448201526564647265737360d01b6064820152fd5b3461020e57602036600319011261020e5760207fd6a912222a539eff01eb7e23cd954e57c4ae962622948839fefbc46b0ffe914a9135610335611df4565b610340811515611cd2565b8061016455604051908152a1005b3461020e57604036600319011261020e57610367611b17565b60243591610373611df4565b60ff6101625460081c161561041557428311156103d1575060207fa9353e70f07f31e7f4e16464f45e189cbd22826780a5abe4da8303652a86960a9160018060a01b03169283600052610161825280604060002055604051908152a2005b60649060206040519162461bcd60e51b8352820152601b60248201527f4c6f636b2074696d65206d75737420626520696e2066757475726500000000006044820152fd5b60649060206040519162461bcd60e51b8352820152601d60248201527f54696d65206c6f636b2066656174757265206e6f7420656e61626c65640000006044820152fd5b3461020e57604036600319011261020e57610472611b17565b61047a611b2d565b9060018060a01b038091166000526034602052604060002091166000526020526020604060002054604051908152f35b3461020e5760e036600319011261020e57803567ffffffffffffffff811161020e576104d99036908301611c7a565b9060243567ffffffffffffffff811161020e576104f99036908301611c7a565b906084356001600160a01b038116900361020e5760a43590811515820361020e5760c43592831515840361020e576000549460ff8660081c161595868097610a1e575b8015610a07575b156109ac5760ff1981166001176000558661099a575b5061057460ff60005460081c1661056f8161221b565b61221b565b80519067ffffffffffffffff8211610985578190610593603654611c98565b601f8111610911575b50602090601f83116001146108995760009261088e575b50508160011b916000199060031b1c1916176036555b80519067ffffffffffffffff82116108795781906105e8603754611c98565b601f8111610805575b50602090601f831160011461078d57600092610782575b50508160011b916000199060031b1c1916176037555b61064f60ff60005460081c166106338161221b565b61063c8161221b565b60ff196065541660655561056f8161221b565b610658336121d2565b61066960ff60005460081c1661221b565b6084356001600160a01b0316610772575b6064351590818015610764575b1561070e575015610706576000195b61015f556101629160ff61ff00845492151560081b16921515169061ffff1916171790556106c86044356084356120cc565b6106ce57005b61ff0019600054166000557f7f26b83ff96e1f2b6a682f133852f6798a09c465da95921460cefb3847402498602060405160018152a1005b606435610696565b60849060206040519162461bcd60e51b8352820152602960248201527f4d617820737570706c79206d7573742062652030206f72203e3d20696e697469604482015268616c20737570706c7960b81b6064820152fd5b506044356064351015610687565b61077d6084356121d2565b61067a565b015190508680610608565b925060376000526000805160206126e1833981519152906000935b601f19841685106107ea576001945083601f198116106107d1575b505050811b0160375561061e565b015160001960f88460031b161c191690558680806107c3565b818101518355602094850194600190930192909101906107a8565b9091506037600052601f830160051c6000805160206126e18339815191520160208410610864575b908392915b601f820160051c6000805160206126e183398151915201811061085557506105f1565b60008155849350600101610832565b506000805160206126e183398151915261082d565b604183634e487b7160e01b6000525260246000fd5b0151905087806105b3565b925060366000526000805160206126a1833981519152906000935b601f19841685106108f6576001945083601f198116106108dd575b505050811b016036556105c9565b015160001960f88460031b161c191690558780806108cf565b818101518355602094850194600190930192909101906108b4565b9091506036600052601f830160051c6000805160206126a18339815191520160208410610970575b908392915b601f820160051c6000805160206126a1833981519152018110610961575061059c565b6000815584935060010161093e565b506000805160206126a1833981519152610939565b604184634e487b7160e01b6000525260246000fd5b61ffff19166101011760005586610559565b60405162461bcd60e51b8152602081860152602e60248201527f496e697469616c697a61626c653a20636f6e747261637420697320616c72656160448201526d191e481a5b9a5d1a585b1a5e995960921b6064820152608490fd5b50303b1580156105435750600160ff821614610543565b50600160ff82161061053c565b3461020e57600036600319011261020e57602061015f54604051908152f35b3461020e57600036600319011261020e57602060ff6101625460081c166040519015158152f35b3461020e57602036600319011261020e577fbeda7dca7bc1b3e80b871f4818129ec73b771581f803d553aeb3484098e5f65a6020610aad611b43565b610ab5611df4565b1515610162805462ff00008360101b169062ff00001916179055604051908152a1005b3461020e57600036600319011261020e57602060ff61016254166040519015158152f35b3461020e57600036600319011261020e57602061016554604051908152f35b3461020e57602036600319011261020e576001600160a01b03610b3c611b17565b166000526101616020526020604060002054604051908152f35b3461020e57604036600319011261020e57610b7c610b72611b17565b6024359033611f4e565b602060405160018152f35b3461020e57604036600319011261020e57610ba0611b17565b602435336000526034602052604060002060018060a01b038316600052602052604060002054818110610bda57610b7c9350039033611e4c565b60405162461bcd60e51b8152602081860152602560248201527f45524332303a2064656372656173656420616c6c6f77616e63652062656c6f77604482015264207a65726f60d81b6064820152608490fd5b3461020e57600036600319011261020e576020610c47611c48565b604051610c70838281610c638183019687815193849201611b52565b8101038084520182611bd3565b519020604051908152f35b3461020e57600036600319011261020e576040516000603754610c9d81611c98565b80845290602090600190818116908115610d125750600114610cca575b61020a856101fe81870382611bd3565b6037600090815293506000805160206126e18339815191525b838510610cff575050505081016020016101fe8261020a610cba565b8054868601840152938201938101610ce3565b86955061020a969350602092506101fe94915060ff191682840152151560051b8201019293610cba565b3461020e57600036600319011261020e5760c9546040516001600160a01b039091168152602090f35b3461020e57600036600319011261020e57602061016454604051908152f35b3461020e57600036600319011261020e57610d9d611df4565b6065549060ff8216610de05760018260ff1916176065557f62e78cea01bee320cd4e420270b5ea74000d11b0c9f74754ebdbfc544b05a2586020604051338152a1005b60649060206040519162461bcd60e51b8352820152601060248201526f14185d5cd8589b194e881c185d5cd95960821b6044820152fd5b3461020e57602036600319011261020e577f43a0148be74197659be43bacdac4e492c6e55291225e29fd4f098868ff304fc16080610e53611b43565b610e5b611df4565b151561016260ff1981541660ff831617905560405190604082526009604083015268189b1858dadb1a5cdd60ba1b60608301526020820152a1005b3461020e57600036600319011261020e57610eaf611df4565b60c980546001600160a01b031981169091556000906001600160a01b03167f8be0079c531659141344cd1fd0a4f28419497f9722a3daafe3b4186f6b6457e08280a3005b3461020e57600036600319011261020e57602061016354604051908152f35b3461020e57602036600319011261020e576001600160a01b03610f33611b17565b1660005260336020526020604060002054604051908152f35b3461020e57600036600319011261020e57602060ff606554166040519015158152f35b3461020e57600036600319011261020e577f00000000000000000000000000000000000000000000000000000000000000006001600160a01b03163003610fc85760206040516000805160206126c18339815191528152f35b60849060206040519162461bcd60e51b8352820152603860248201527f555550535570677261646561626c653a206d757374206e6f742062652063616c60448201527f6c6564207468726f7567682064656c656761746563616c6c00000000000000006064820152fd5b604036600319011261020e57611046611b17565b9060243567ffffffffffffffff811161020e573660238201121561020e576110779036906024818501359101611c11565b6001600160a01b037f0000000000000000000000000000000000000000000000000000000000000000811691906110b030841415611d0f565b6110cd6000805160206126c1833981519152938285541614611d70565b6110d5611df4565b7f4910fdfa16fed3260ed0e7147f7cc6da11a60208b5b9406d12a635614ffd91435460ff161561110c57505050506102a29061257b565b8416604051926352d1902d60e01b845260209384818781865afa600091816112c2575b5061118f5760405162461bcd60e51b8152808701869052602e60248201527f45524331393637557067726164653a206e657720696d706c656d656e7461746960448201526d6f6e206973206e6f74205555505360901b6064820152608490fd5b949192940361126c57506111a28461257b565b7fbc7cd75a20ee27fd9adebab32041f755214dbc6bffa90cc0225b39da2e5c2d3b600080a2815115801590611264575b6111d857005b6102a292600080604051946111ec86611ba1565b602786527f416464726573733a206c6f772d6c6576656c2064656c65676174652063616c6c85870152660819985a5b195960ca1b60408701528481519101845af4903d1561125b573d61123e81611bf5565b9061124c6040519283611bd3565b8152600081943d92013e61260b565b6060925061260b565b5060016111d2565b60405162461bcd60e51b8152908101839052602960248201527f45524331393637557067726164653a20756e737570706f727465642070726f786044820152681a58589b195555525160ba1b6064820152608490fd5b9091508581813d83116112ea575b6112da8183611bd3565b8101031261020e5751908861112f565b503d6112d0565b3461020e57602036600319011261020e5780359061130d611df4565b42821115611347577fe49a4b405039474898d31c89de6941be5a232cf8ebb6e2de9750fcad419fd45a6020838061016355604051908152a1005b60649060206040519162461bcd60e51b835282015260116024820152700496e76616c69642074696d657374616d7607c1b6044820152fd5b3461020e57600036600319011261020e57602060ff6101625460101c166040519015158152f35b3461020e57602036600319011261020e577f43a0148be74197659be43bacdac4e492c6e55291225e29fd4f098868ff304fc160806113e2611b43565b6113ea611df4565b1515610162805461ff008360081b169061ff0019161790556040519060408252600860408301526774696d656c6f636b60c01b60608301526020820152a1005b3461020e57604036600319011261020e57611443611b17565b6024359061144f611df4565b61145b82603554611dd1565b61015f541061146e576102a292506120cc565b60405162461bcd60e51b8152602081850152601260248201527145786365656473206d617820737570706c7960701b6044820152606490fd5b3461020e57600036600319011261020e576114c0611df4565b6065549060ff821615611501575060ff19166065557f5db9ee0a495bf2e6ff9c91a7834c1ba4fdd244a5e8aa4e537bd38aeae4b073aa6020604051338152a1005b60649060206040519162461bcd60e51b8352820152601460248201527314185d5cd8589b194e881b9bdd081c185d5cd95960621b6044820152fd5b3461020e57604036600319011261020e57610b7c611558611b17565b336000526034602052604060002060018060a01b038216600052602052611586602435604060002054611dd1565b9033611e4c565b3461020e576020908160031936011261020e576115a8611b17565b6001600160a01b03929091907f000000000000000000000000000000000000000000000000000000000000000084166115e330821415611d0f565b6116006000805160206126c1833981519152918683541614611d70565b611608611df4565b604051908282019582871067ffffffffffffffff88111761182457866040526000835260ff7f4910fdfa16fed3260ed0e7147f7cc6da11a60208b5b9406d12a635614ffd914354166000146116665750505050506102a2915061257b565b859293949516906040516352d1902d60e01b815285818881865afa600091816117f5575b506116ea5760405162461bcd60e51b8152808801879052602e60248201527f45524331393637557067726164653a206e657720696d706c656d656e7461746960448201526d6f6e206973206e6f74205555505360901b6064820152608490fd5b95919293950361179f57506116fe8261257b565b7fbc7cd75a20ee27fd9adebab32041f755214dbc6bffa90cc0225b39da2e5c2d3b600080a2825115801590611797575b61173457005b6000806102a2956040519561174887611ba1565b602787527f416464726573733a206c6f772d6c6576656c2064656c65676174652063616c6c86880152660819985a5b195960ca1b60408801525190845af4903d1561125b573d61123e81611bf5565b50600061172e565b60405162461bcd60e51b8152908101849052602960248201527f45524331393637557067726164653a20756e737570706f727465642070726f786044820152681a58589b195555525160ba1b6064820152608490fd5b9091508681813d831161181d575b61180d8183611bd3565b8101031261020e5751908961168a565b503d611803565b604185634e487b7160e01b6000525260246000fd5b3461020e57600036600319011261020e57602060405160128152f35b3461020e57602036600319011261020e5760207ff48b2351b7ae1d135f49a7c2c7529e514a0b74ac8d1e79f010767fb6212a212c9135611893611df4565b61189e811515611cd2565b8061016555604051908152a1005b3461020e57606036600319011261020e576118c5611b17565b6118cd611b2d565b6044359160018060a01b038116600052603460205260406000203360005260205260406000205493600019850361190a575b50610b7c9350611f4e565b838510611928575061192283610b7c95033383611e4c565b846118ff565b60649060206040519162461bcd60e51b8352820152601d60248201527f45524332303a20696e73756666696369656e7420616c6c6f77616e63650000006044820152fd5b3461020e57600036600319011261020e576020603554604051908152f35b3461020e57604036600319011261020e57610b7c6119a6611b17565b6024359033611e4c565b3461020e57600036600319011261020e5760405160006036546119d281611c98565b80845290602090600190818116908115610d1257506001146119fe5761020a856101fe81870382611bd3565b6036600090815293506000805160206126a18339815191525b838510611a33575050505081016020016101fe8261020a610cba565b8054868601840152938201938101611a17565b3461020e57604036600319011261020e57611a5f611b17565b6024359182151580930361020e57611a75611df4565b60ff610162541615611ad3575060207f6a12b3df6cba4203bd7fd06b816789f87de8c594299aed5717ae070fac781bac9160018060a01b031692836000526101608252604060002060ff1981541660ff8316179055604051908152a2005b60649060206040519162461bcd60e51b8352820152601d60248201527f426c61636b6c6973742066656174757265206e6f7420656e61626c65640000006044820152fd5b600435906001600160a01b038216820361020e57565b602435906001600160a01b038216820361020e57565b60043590811515820361020e57565b60005b838110611b655750506000910152565b8181015183820152602001611b55565b60409160208252611b958151809281602086015260208686019101611b52565b601f01601f1916010190565b6060810190811067ffffffffffffffff821117611bbd57604052565b634e487b7160e01b600052604160045260246000fd5b90601f8019910116810190811067ffffffffffffffff821117611bbd57604052565b67ffffffffffffffff8111611bbd57601f01601f191660200190565b929192611c1d82611bf5565b91611c2b6040519384611bd3565b82948184528183011161020e578281602093846000960137010152565b604051906040820182811067ffffffffffffffff821117611bbd5760405260058252640312e302e360dc1b6020830152565b9080601f8301121561020e57816020611c9593359101611c11565b90565b90600182811c92168015611cc8575b6020831014611cb257565b634e487b7160e01b600052602260045260246000fd5b91607f1691611ca7565b15611cd957565b60405162461bcd60e51b815260206004820152600e60248201526d125b9d985b1a5908185b5bdd5b9d60921b6044820152606490fd5b15611d1657565b60405162461bcd60e51b815260206004820152602c60248201527f46756e6374696f6e206d7573742062652063616c6c6564207468726f7567682060448201526b19195b1959d85d1958d85b1b60a21b6064820152608490fd5b15611d7757565b60405162461bcd60e51b815260206004820152602c60248201527f46756e6374696f6e206d7573742062652063616c6c6564207468726f7567682060448201526b6163746976652070726f787960a01b6064820152608490fd5b91908201809211611dde57565b634e487b7160e01b600052601160045260246000fd5b60c9546001600160a01b03163303611e0857565b606460405162461bcd60e51b815260206004820152602060248201527f4f776e61626c653a2063616c6c6572206973206e6f7420746865206f776e65726044820152fd5b6001600160a01b03908116918215611efd5716918215611ead5760207f8c5be1e5ebec7d5bd14f71427d1e84f3dd0314c0f7b2291e5b200ac8c7c3b925918360005260348252604060002085600052825280604060002055604051908152a3565b60405162461bcd60e51b815260206004820152602260248201527f45524332303a20617070726f766520746f20746865207a65726f206164647265604482015261737360f01b6064820152608490fd5b60405162461bcd60e51b8152602060048201526024808201527f45524332303a20617070726f76652066726f6d20746865207a65726f206164646044820152637265737360e01b6064820152608490fd5b916001600160a01b038084169290831561207957811693841561202857611f7691839161227b565b60008281526033602052604081205491808310611fd457604082827fddf252ad1be2c89b69c2b068fc378daa952ba7f163c4a11628f55a4df523b3ef95876020965260338652038282205586815220818154019055604051908152a3565b60405162461bcd60e51b815260206004820152602660248201527f45524332303a207472616e7366657220616d6f756e7420657863656564732062604482015265616c616e636560d01b6064820152608490fd5b60405162461bcd60e51b815260206004820152602360248201527f45524332303a207472616e7366657220746f20746865207a65726f206164647260448201526265737360e81b6064820152608490fd5b60405162461bcd60e51b815260206004820152602560248201527f45524332303a207472616e736665722066726f6d20746865207a65726f206164604482015264647265737360d81b6064820152608490fd5b6001600160a01b031690811561218d5760ff60655416612135577fddf252ad1be2c89b69c2b068fc378daa952ba7f163c4a11628f55a4df523b3ef602082612118600094603554611dd1565b6035558484526033825260408420818154019055604051908152a3565b60405162461bcd60e51b815260206004820152602a60248201527f45524332305061757361626c653a20746f6b656e207472616e736665722077686044820152691a5b19481c185d5cd95960b21b6064820152608490fd5b60405162461bcd60e51b815260206004820152601f60248201527f45524332303a206d696e7420746f20746865207a65726f2061646472657373006044820152606490fd5b60c980546001600160a01b039283166001600160a01b0319821681179092559091167f8be0079c531659141344cd1fd0a4f28419497f9722a3daafe3b4186f6b6457e0600080a3565b1561222257565b60405162461bcd60e51b815260206004820152602b60248201527f496e697469616c697a61626c653a20636f6e7472616374206973206e6f74206960448201526a6e697469616c697a696e6760a81b6064820152608490fd5b909160ff8060655416612135576001600160a01b039283169182158015612571575b61256a576101625490828260101c16801561255d575b801561254e575b156125135761016354806124cc575b506101645480612483575b50610165549081151580612478575b61240d575b50508181166123a0575b60081c166122ff57505050565b600052610161918260205260406000205442106123675716600052602052604060002054421061232b57565b60405162461bcd60e51b8152602060048201526014602482015273149958da5c1a595b9d081d1a5b595b1bd8dad95960621b6044820152606490fd5b60405162461bcd60e51b815260206004820152601160248201527014d95b99195c881d1a5b595b1bd8dad959607a1b6044820152606490fd5b82600052610160602052816040600020541615806123f8575b6122f25760405162461bcd60e51b81526020600482015260136024820152721059191c995cdcc8189b1858dadb1a5cdd1959606a1b6044820152606490fd5b508385166000528160406000205416156123b9565b612427908688166000526033602052604060002054611dd1565b116124335738806122e8565b60405162461bcd60e51b815260206004820152601960248201527f45786365656473206d61782077616c6c657420616d6f756e74000000000000006044820152606490fd5b5085871615156122e3565b811161248f57386122d4565b60405162461bcd60e51b8152602060048201526015602482015274115e18d959591cc81b585e081d1e08185b5bdd5b9d605a1b6044820152606490fd5b42106124d857386122c9565b60405162461bcd60e51b8152602060048201526013602482015272151c98591a5b99c81b9bdd081cdd185c9d1959606a1b6044820152606490fd5b60405162461bcd60e51b8152602060048201526013602482015272151c98591a5b99c81b9bdd08195b98589b1959606a1b6044820152606490fd5b508460c95416858716146122ba565b508460c9541684146122b3565b5050505050565b508385161561229d565b803b156125b0576000805160206126c183398151915280546001600160a01b0319166001600160a01b03909216919091179055565b60405162461bcd60e51b815260206004820152602d60248201527f455243313936373a206e657720696d706c656d656e746174696f6e206973206e60448201526c1bdd08184818dbdb9d1c9858dd609a1b6064820152608490fd5b9192901561266d575081511561261f575090565b3b156126285790565b60405162461bcd60e51b815260206004820152601d60248201527f416464726573733a2063616c6c20746f206e6f6e2d636f6e74726163740000006044820152606490fd5b8251909150156126805750805190602001fd5b60405162461bcd60e51b815290819061269c9060048301611b75565b0390fdfe4a11f94e20a93c79f6ec743a1954ec4fc2c08429ae2122118bf234b2185c81b8360894a13ba1a3210667c828492db98dca3e2076cc3735a920a3ca505d382bbc42a7b7dd785cd69714a189dffb3fd7d7174edc9ece837694ce50f7078f7c31aea2646970667358221220ea50fd70844891570f42090a4814aa48d0ac9c0e5ad7e445d63443e1d967c99864736f6c63430008160033",
  "linkReferences": {},
  "deployedLinkReferences": {}
}