{
  "_format": "hh-sol-artifact-1",
  "contractName": "TokenTemplate_v2DirectDEX",
  "sourceName": "src/contracts/TokenTemplate_v2DirectDEX.sol",
  "abi": [
    {
      "inputs": [
        {
          "internalType": "string",
          "name": "name_",
          "type": "string"
        },
        {
          "internalType": "string",
          "name": "symbol_",
          "type": "string"
        },
        {
          "internalType": "uint256",
          "name": "totalSupply_",
          "type": "uint256"
        },
        {
          "internalType": "uint256",
          "name": "maxTxAmount_",
          "type": "uint256"
        },
        {
          "internalType": "uint256",
          "name": "maxWalletAmount_",
          "type": "uint256"
        },
        {
          "internalType": "bool",
          "name": "enableTrading_",
          "type": "bool"
        },
        {
          "internalType": "uint256",
          "name": "tradingStartTime_",
          "type": "uint256"
        },
        {
          "internalType": "address",
          "name": "dexRouter_",
          "type": "address"
        },
        {
          "internalType": "uint256",
          "name": "marketingFeePercentage_",
          "type": "uint256"
        },
        {
          "internalType": "uint256",
          "name": "developmentFeePercentage_",
          "type": "uint256"
        },
        {
          "internalType": "uint256",
          "name": "autoLiquidityFeePercentage_",
          "type": "uint256"
        },
        {
          "internalType": "address",
          "name": "marketingWallet_",
          "type": "address"
        },
        {
          "internalType": "address",
          "name": "developmentWallet_",
          "type": "address"
        },
        {
          "internalType": "address",
          "name": "autoLiquidityWallet_",
          "type": "address"
        }
      ],
      "stateMutability": "nonpayable",
      "type": "constructor"
    },
    {
      "anonymous": false,
      "inputs": [
        {
          "indexed": true,
          "internalType": "address",
          "name": "owner",
          "type": "address"
        },
        {
          "indexed": true,
          "internalType": "address",
          "name": "spender",
          "type": "address"
        },
        {
          "indexed": false,
          "internalType": "uint256",
          "name": "value",
          "type": "uint256"
        }
      ],
      "name": "Approval",
      "type": "event"
    },
    {
      "anonymous": false,
      "inputs": [
        {
          "indexed": false,
          "internalType": "address",
          "name": "account",
          "type": "address"
        },
        {
          "indexed": false,
          "internalType": "bool",
          "name": "isBlacklisted",
          "type": "bool"
        }
      ],
      "name": "BlacklistUpdated",
      "type": "event"
    },
    {
      "anonymous": false,
      "inputs": [
        {
          "indexed": false,
          "internalType": "uint256",
          "name": "amount",
          "type": "uint256"
        }
      ],
      "name": "MaxTxAmountUpdated",
      "type": "event"
    },
    {
      "anonymous": false,
      "inputs": [
        {
          "indexed": false,
          "internalType": "uint256",
          "name": "amount",
          "type": "uint256"
        }
      ],
      "name": "MaxWalletAmountUpdated",
      "type": "event"
    },
    {
      "anonymous": false,
      "inputs": [
        {
          "indexed": true,
          "internalType": "address",
          "name": "previousOwner",
          "type": "address"
        },
        {
          "indexed": true,
          "internalType": "address",
          "name": "newOwner",
          "type": "address"
        }
      ],
      "name": "OwnershipTransferred",
      "type": "event"
    },
    {
      "anonymous": false,
      "inputs": [
        {
          "indexed": false,
          "internalType": "uint256",
          "name": "totalFees",
          "type": "uint256"
        }
      ],
      "name": "TaxesUpdated",
      "type": "event"
    },
    {
      "anonymous": false,
      "inputs": [
        {
          "indexed": false,
          "internalType": "uint256",
          "name": "timestamp",
          "type": "uint256"
        }
      ],
      "name": "TradingEnabled",
      "type": "event"
    },
    {
      "anonymous": false,
      "inputs": [
        {
          "indexed": true,
          "internalType": "address",
          "name": "from",
          "type": "address"
        },
        {
          "indexed": true,
          "internalType": "address",
          "name": "to",
          "type": "address"
        },
        {
          "indexed": false,
          "internalType": "uint256",
          "name": "value",
          "type": "uint256"
        }
      ],
      "name": "Transfer",
      "type": "event"
    },
    {
      "anonymous": false,
      "inputs": [
        {
          "indexed": false,
          "internalType": "address",
          "name": "marketing",
          "type": "address"
        },
        {
          "indexed": false,
          "internalType": "address",
          "name": "development",
          "type": "address"
        },
        {
          "indexed": false,
          "internalType": "address",
          "name": "autoLiquidity",
          "type": "address"
        }
      ],
      "name": "WalletsUpdated",
      "type": "event"
    },
    {
      "inputs": [],
      "name": "MIN_TOKENS_FOR_LIQUIDITY",
      "outputs": [
        {
          "internalType": "uint256",
          "name": "",
          "type": "uint256"
        }
      ],
      "stateMutability": "view",
      "type": "function"
    },
    {
      "inputs": [],
      "name": "VERSION",
      "outputs": [
        {
          "internalType": "uint256",
          "name": "",
          "type": "uint256"
        }
      ],
      "stateMutability": "view",
      "type": "function"
    },
    {
      "inputs": [],
      "name": "VERSION_HASH",
      "outputs": [
        {
          "internalType": "bytes32",
          "name": "",
          "type": "bytes32"
        }
      ],
      "stateMutability": "view",
      "type": "function"
    },
    {
      "inputs": [
        {
          "internalType": "address",
          "name": "owner",
          "type": "address"
        },
        {
          "internalType": "address",
          "name": "spender",
          "type": "address"
        }
      ],
      "name": "allowance",
      "outputs": [
        {
          "internalType": "uint256",
          "name": "",
          "type": "uint256"
        }
      ],
      "stateMutability": "view",
      "type": "function"
    },
    {
      "inputs": [
        {
          "internalType": "address",
          "name": "spender",
          "type": "address"
        },
        {
          "internalType": "uint256",
          "name": "amount",
          "type": "uint256"
        }
      ],
      "name": "approve",
      "outputs": [
        {
          "internalType": "bool",
          "name": "",
          "type": "bool"
        }
      ],
      "stateMutability": "nonpayable",
      "type": "function"
    },
    {
      "inputs": [],
      "name": "autoLiquidityFeePercentage",
      "outputs": [
        {
          "internalType": "uint256",
          "name": "",
          "type": "uint256"
        }
      ],
      "stateMutability": "view",
      "type": "function"
    },
    {
      "inputs": [],
      "name": "autoLiquidityWallet",
      "outputs": [
        {
          "internalType": "address",
          "name": "",
          "type": "address"
        }
      ],
      "stateMutability": "view",
      "type": "function"
    },
    {
      "inputs": [
        {
          "internalType": "address",
          "name": "account",
          "type": "address"
        }
      ],
      "name": "balanceOf",
      "outputs": [
        {
          "internalType": "uint256",
          "name": "",
          "type": "uint256"
        }
      ],
      "stateMutability": "view",
      "type": "function"
    },
    {
      "inputs": [],
      "name": "decimals",
      "outputs": [
        {
          "internalType": "uint8",
          "name": "",
          "type": "uint8"
        }
      ],
      "stateMutability": "view",
      "type": "function"
    },
    {
      "inputs": [
        {
          "internalType": "address",
          "name": "spender",
          "type": "address"
        },
        {
          "internalType": "uint256",
          "name": "subtractedValue",
          "type": "uint256"
        }
      ],
      "name": "decreaseAllowance",
      "outputs": [
        {
          "internalType": "bool",
          "name": "",
          "type": "bool"
        }
      ],
      "stateMutability": "nonpayable",
      "type": "function"
    },
    {
      "inputs": [],
      "name": "developmentFeePercentage",
      "outputs": [
        {
          "internalType": "uint256",
          "name": "",
          "type": "uint256"
        }
      ],
      "stateMutability": "view",
      "type": "function"
    },
    {
      "inputs": [],
      "name": "developmentWallet",
      "outputs": [
        {
          "internalType": "address",
          "name": "",
          "type": "address"
        }
      ],
      "stateMutability": "view",
      "type": "function"
    },
    {
      "inputs": [],
      "name": "dexPair",
      "outputs": [
        {
          "internalType": "address",
          "name": "",
          "type": "address"
        }
      ],
      "stateMutability": "view",
      "type": "function"
    },
    {
      "inputs": [],
      "name": "dexRouter",
      "outputs": [
        {
          "internalType": "address",
          "name": "",
          "type": "address"
        }
      ],
      "stateMutability": "view",
      "type": "function"
    },
    {
      "inputs": [],
      "name": "enableTrading",
      "outputs": [],
      "stateMutability": "nonpayable",
      "type": "function"
    },
    {
      "inputs": [
        {
          "internalType": "address",
          "name": "account",
          "type": "address"
        },
        {
          "internalType": "bool",
          "name": "excluded",
          "type": "bool"
        }
      ],
      "name": "excludeFromAutoLiquidity",
      "outputs": [],
      "stateMutability": "nonpayable",
      "type": "function"
    },
    {
      "inputs": [
        {
          "internalType": "address",
          "name": "spender",
          "type": "address"
        },
        {
          "internalType": "uint256",
          "name": "addedValue",
          "type": "uint256"
        }
      ],
      "name": "increaseAllowance",
      "outputs": [
        {
          "internalType": "bool",
          "name": "",
          "type": "bool"
        }
      ],
      "stateMutability": "nonpayable",
      "type": "function"
    },
    {
      "inputs": [
        {
          "internalType": "address",
          "name": "",
          "type": "address"
        }
      ],
      "name": "isBlacklisted",
      "outputs": [
        {
          "internalType": "bool",
          "name": "",
          "type": "bool"
        }
      ],
      "stateMutability": "view",
      "type": "function"
    },
    {
      "inputs": [
        {
          "internalType": "address",
          "name": "",
          "type": "address"
        }
      ],
      "name": "isExcludedFromAutoLiquidity",
      "outputs": [
        {
          "internalType": "bool",
          "name": "",
          "type": "bool"
        }
      ],
      "stateMutability": "view",
      "type": "function"
    },
    {
      "inputs": [],
      "name": "marketingFeePercentage",
      "outputs": [
        {
          "internalType": "uint256",
          "name": "",
          "type": "uint256"
        }
      ],
      "stateMutability": "view",
      "type": "function"
    },
    {
      "inputs": [],
      "name": "marketingWallet",
      "outputs": [
        {
          "internalType": "address",
          "name": "",
          "type": "address"
        }
      ],
      "stateMutability": "view",
      "type": "function"
    },
    {
      "inputs": [],
      "name": "maxTxAmount",
      "outputs": [
        {
          "internalType": "uint256",
          "name": "",
          "type": "uint256"
        }
      ],
      "stateMutability": "view",
      "type": "function"
    },
    {
      "inputs": [],
      "name": "maxWalletAmount",
      "outputs": [
        {
          "internalType": "uint256",
          "name": "",
          "type": "uint256"
        }
      ],
      "stateMutability": "view",
      "type": "function"
    },
    {
      "inputs": [],
      "name": "name",
      "outputs": [
        {
          "internalType": "string",
          "name": "",
          "type": "string"
        }
      ],
      "stateMutability": "view",
      "type": "function"
    },
    {
      "inputs": [],
      "name": "owner",
      "outputs": [
        {
          "internalType": "address",
          "name": "",
          "type": "address"
        }
      ],
      "stateMutability": "view",
      "type": "function"
    },
    {
      "inputs": [],
      "name": "renounceOwnership",
      "outputs": [],
      "stateMutability": "nonpayable",
      "type": "function"
    },
    {
      "inputs": [
        {
          "internalType": "address",
          "name": "account",
          "type": "address"
        },
        {
          "internalType": "bool",
          "name": "blacklisted",
          "type": "bool"
        }
      ],
      "name": "setBlacklist",
      "outputs": [],
      "stateMutability": "nonpayable",
      "type": "function"
    },
    {
      "inputs": [
        {
          "internalType": "uint256",
          "name": "amount",
          "type": "uint256"
        }
      ],
      "name": "setMaxTxAmount",
      "outputs": [],
      "stateMutability": "nonpayable",
      "type": "function"
    },
    {
      "inputs": [
        {
          "internalType": "uint256",
          "name": "amount",
          "type": "uint256"
        }
      ],
      "name": "setMaxWalletAmount",
      "outputs": [],
      "stateMutability": "nonpayable",
      "type": "function"
    },
    {
      "inputs": [
        {
          "internalType": "uint256",
          "name": "marketingFee",
          "type": "uint256"
        },
        {
          "internalType": "uint256",
          "name": "developmentFee",
          "type": "uint256"
        },
        {
          "internalType": "uint256",
          "name": "autoLiquidityFee",
          "type": "uint256"
        }
      ],
      "name": "setTaxes",
      "outputs": [],
      "stateMutability": "nonpayable",
      "type": "function"
    },
    {
      "inputs": [
        {
          "internalType": "address",
          "name": "marketing",
          "type": "address"
        },
        {
          "internalType": "address",
          "name": "development",
          "type": "address"
        },
        {
          "internalType": "address",
          "name": "autoLiquidity",
          "type": "address"
        }
      ],
      "name": "setWallets",
      "outputs": [],
      "stateMutability": "nonpayable",
      "type": "function"
    },
    {
      "inputs": [],
      "name": "symbol",
      "outputs": [
        {
          "internalType": "string",
          "name": "",
          "type": "string"
        }
      ],
      "stateMutability": "view",
      "type": "function"
    },
    {
      "inputs": [],
      "name": "totalSupply",
      "outputs": [
        {
          "internalType": "uint256",
          "name": "",
          "type": "uint256"
        }
      ],
      "stateMutability": "view",
      "type": "function"
    },
    {
      "inputs": [],
      "name": "tradingEnabled",
      "outputs": [
        {
          "internalType": "bool",
          "name": "",
          "type": "bool"
        }
      ],
      "stateMutability": "view",
      "type": "function"
    },
    {
      "inputs": [],
      "name": "tradingStartTime",
      "outputs": [
        {
          "internalType": "uint256",
          "name": "",
          "type": "uint256"
        }
      ],
      "stateMutability": "view",
      "type": "function"
    },
    {
      "inputs": [
        {
          "internalType": "address",
          "name": "to",
          "type": "address"
        },
        {
          "internalType": "uint256",
          "name": "amount",
          "type": "uint256"
        }
      ],
      "name": "transfer",
      "outputs": [
        {
          "internalType": "bool",
          "name": "",
          "type": "bool"
        }
      ],
      "stateMutability": "nonpayable",
      "type": "function"
    },
    {
      "inputs": [
        {
          "internalType": "address",
          "name": "from",
          "type": "address"
        },
        {
          "internalType": "address",
          "name": "to",
          "type": "address"
        },
        {
          "internalType": "uint256",
          "name": "amount",
          "type": "uint256"
        }
      ],
      "name": "transferFrom",
      "outputs": [
        {
          "internalType": "bool",
          "name": "",
          "type": "bool"
        }
      ],
      "stateMutability": "nonpayable",
      "type": "function"
    },
    {
      "inputs": [
        {
          "internalType": "address",
          "name": "newOwner",
          "type": "address"
        }
      ],
      "name": "transferOwnership",
      "outputs": [],
      "stateMutability": "nonpayable",
      "type": "function"
    }
  ],
  "bytecode": "0x6080604052346200084d576200213e803803806200001d8162000852565b9283398101906101c0818303126200084d5780516001600160401b0381116200084d57826200004e91830162000878565b602082015190926001600160401b0382116200084d576200007191830162000878565b9160408201519160608101519260808201519460a08301519586151587036200084d5760c0840151620000a760e08601620008ea565b92610100860151906101208701519261014088015194620000cc6101608a01620008ea565b92620000eb6101a0620000e36101808d01620008ea565b9b01620008ea565b8b51909b6001600160401b0382116200071c5760035490600182811c9216801562000842575b6020831014620006fb5781601f849311620007cd575b50602090601f83116001146200073e5760009262000732575b50508160011b916000199060031b1c1916176003555b8051906001600160401b0382116200071c5760045490600182811c9216801562000711575b6020831014620006fb5781601f84931162000689575b50602090601f8311600114620005fa57600092620005ee575b50508160011b916000199060031b1c1916176004555b620001cb3362000923565b600160065587156200059d57878b116200053e57878111620004e45760196200020087620001fa8888620008ff565b620008ff565b116200049f576001600160a01b039283169889156200044a578316998a15620003f35783169a8b1562000399573315620003545788620002448d9a600254620008ff565b600255336000526000602052604060002081815401905560405190815260007fddf252ad1be2c89b69c2b068fc378daa952ba7f163c4a11628f55a4df523b3ef60203393a3600955600a5560ff199a60ff8c60075416911515161760075560085560018060a01b0319941684600b541617600b55600d55600e55600f55828160105416176010558381601154161760115560125416176012553360005260136020526040600020600185825416179055306000526040600020600185825416179055600052604060002060018482541617905560005260406000206001838254161790556000526001604060002091825416179055620003443362000923565b6040516117d190816200096d8239f35b60405162461bcd60e51b815260206004820152601f60248201527f45524332303a206d696e7420746f20746865207a65726f2061646472657373006044820152606490fd5b60405162461bcd60e51b815260206004820152602c60248201527f4175746f2d6c69717569646974792077616c6c65742063616e6e6f742062652060448201526b7a65726f206164647265737360a01b6064820152608490fd5b60405162461bcd60e51b815260206004820152602960248201527f446576656c6f706d656e742077616c6c65742063616e6e6f74206265207a65726044820152686f206164647265737360b81b6064820152608490fd5b60405162461bcd60e51b815260206004820152602760248201527f4d61726b6574696e672077616c6c65742063616e6e6f74206265207a65726f206044820152666164647265737360c81b6064820152608490fd5b60405162461bcd60e51b815260206004820152601c60248201527f546f74616c20666565732063616e6e6f742065786365656420323525000000006044820152606490fd5b60405162461bcd60e51b815260206004820152602c60248201527f4d61782077616c6c657420616d6f756e742063616e6e6f74206578636565642060448201526b746f74616c20737570706c7960a01b6064820152608490fd5b60405162461bcd60e51b815260206004820152603160248201527f4d6178207472616e73616374696f6e20616d6f756e742063616e6e6f742065786044820152706365656420746f74616c20737570706c7960781b6064820152608490fd5b60405162461bcd60e51b815260206004820152602360248201527f546f74616c20737570706c79206d75737420626520677265617465722074686160448201526206e20360ec1b6064820152608490fd5b015190503880620001aa565b6004600090815293507f8a35acfbc15ff81a39ae7d344fd709f28e8600b4aa8c65c6b64bfe7fe36bd19b91905b601f19841685106200066d576001945083601f1981161062000653575b505050811b01600455620001c0565b015160001960f88460031b161c1916905538808062000644565b8181015183556020948501946001909301929091019062000627565b60046000529091507f8a35acfbc15ff81a39ae7d344fd709f28e8600b4aa8c65c6b64bfe7fe36bd19b601f840160051c810160208510620006f3575b90849392915b601f830160051c82018110620006e357505062000191565b60008155859450600101620006cb565b5080620006c5565b634e487b7160e01b600052602260045260246000fd5b91607f16916200017b565b634e487b7160e01b600052604160045260246000fd5b01519050388062000140565b6003600090815293507fc2575a0e9e593c00f959f8c92f12db2869c3395a3b0502d05e2516446f71f85b91905b601f1984168510620007b1576001945083601f1981161062000797575b505050811b0160035562000156565b015160001960f88460031b161c1916905538808062000788565b818101518355602094850194600190930192909101906200076b565b60036000529091507fc2575a0e9e593c00f959f8c92f12db2869c3395a3b0502d05e2516446f71f85b601f840160051c8101916020851062000837575b90601f859493920160051c01905b81811062000827575062000127565b6000815584935060010162000818565b90915081906200080a565b91607f169162000111565b600080fd5b6040519190601f01601f191682016001600160401b038111838210176200071c57604052565b919080601f840112156200084d5782516001600160401b0381116200071c57602090620008ae601f8201601f1916830162000852565b928184528282870101116200084d5760005b818110620008d657508260009394955001015290565b8581018301518482018401528201620008c0565b51906001600160a01b03821682036200084d57565b919082018092116200090d57565b634e487b7160e01b600052601160045260246000fd5b600580546001600160a01b039283166001600160a01b0319821681179092559091167f8be0079c531659141344cd1fd0a4f28419497f9722a3daafe3b4186f6b6457e0600080a356fe608060408181526004918236101561001657600080fd5b600092833560e01c91826306fdde0314610d92575081630758d92414610d69578163095ea7b314610d3f5781630c439f9314610d16578163153b0d1e14610c9657816318160ddd14610c7757816323b872dd14610bad57816327a14fc214610b46578163313ce56714610b2a5781633950935114610ada5781634ada218b14610ab65781635e29879014610a97578163606e1b8114610a7a57816370a0823114610a3757816370b7b80c14610a18578163715018a6146109bb57816375cb1bd1146108de57816375f0a874146108b557816380ada68a146108965781638a8c523c146107df5781638c0b5e22146107c05781638da5cb5b1461079757816395d89b41146106925781639e4e7318146106575781639f7b0ed514610614578163a457c2d71461056c578163a9059cbb1461053b578163aa4bde281461051c578163c04a5414146104f3578163c1a68121146104b5578163dd62ed3e1461046c578163de37610e1461044d578163e9dae5ed14610382578163ec28438a1461031b578163f242ab41146102f2578163f2fde38b1461022257508063fe575a87146101e55763ffa1ad74146101c757600080fd5b346101e157816003193601126101e1576020905160028152f35b5080fd5b50346101e15760203660031901126101e15760209160ff9082906001600160a01b0361020f610ed0565b1681526014855220541690519015158152f35b9050346102ee5760203660031901126102ee5761023d610ed0565b9061024661116d565b6001600160a01b0391821692831561029c575050600554826bffffffffffffffffffffffff60a01b821617600555167f8be0079c531659141344cd1fd0a4f28419497f9722a3daafe3b4186f6b6457e08380a380f35b906020608492519162461bcd60e51b8352820152602660248201527f4f776e61626c653a206e6577206f776e657220697320746865207a65726f206160448201526564647265737360d01b6064820152fd5b8280fd5b5050346101e157816003193601126101e157600c5490516001600160a01b039091168152602090f35b9050346102ee5760203660031901126102ee577f947f344d56e1e8c70dc492fb94c4ddddd490c016aab685f5e7e47b2e85cb44cf91602091359061035d61116d565b610368821515610fa6565b610376600254831115610ff2565b8160095551908152a180f35b839150346101e15760603660031901126101e157803560243590604435926103a861116d565b60196103bd856103b88686611048565b611048565b1161040a57506104017f08a9cbb7bd5bab504d3fc44931790235ee0c3011feecaa62967a37e3f934146b936103b8602094848995600d5581600e5583600f55611048565b9051908152a180f35b606490602087519162461bcd60e51b8352820152601c60248201527f546f74616c20666565732063616e6e6f742065786365656420323525000000006044820152fd5b5050346101e157816003193601126101e157602090600f549051908152f35b5050346101e157806003193601126101e1578060209261048a610ed0565b610492610eeb565b6001600160a01b0391821683526001865283832091168252845220549051908152f35b5050346101e15760203660031901126101e15760209160ff9082906001600160a01b036104e0610ed0565b1681526013855220541690519015158152f35b5050346101e157816003193601126101e15760115490516001600160a01b039091168152602090f35b5050346101e157816003193601126101e157602090600a549051908152f35b5050346101e157806003193601126101e15760209061056561055b610ed0565b60243590336111d8565b5160018152f35b90508234610611578260031936011261061157610587610ed0565b918360243592338152600160205281812060018060a01b03861682526020522054908282106105c057602085610565858503873361106b565b608490602086519162461bcd60e51b8352820152602560248201527f45524332303a2064656372656173656420616c6c6f77616e63652062656c6f77604482015264207a65726f60d81b6064820152fd5b80fd5b5050346101e1576106549061062836610f01565b919061063261116d565b60018060a01b03168452601360205283209060ff801983541691151516179055565b80f35b5050346101e157816003193601126101e157602090517f97831d354a6f8b80f2034ecb74ded90addda670141f845b47bcbb8c109be18a28152f35b8383346101e157816003193601126101e15780519180938054916001908360011c926001851694851561078d575b602095868610811461077a5785895290811561075657506001146106fe575b6106fa87876106f0828c0383610f30565b5191829182610e87565b0390f35b81529295507f8a35acfbc15ff81a39ae7d344fd709f28e8600b4aa8c65c6b64bfe7fe36bd19b5b82841061074357505050826106fa946106f0928201019486806106df565b8054868501880152928601928101610725565b60ff19168887015250505050151560051b83010192506106f0826106fa86806106df565b634e487b7160e01b845260228352602484fd5b93607f16936106c0565b5050346101e157816003193601126101e15760055490516001600160a01b039091168152602090f35b5050346101e157816003193601126101e1576020906009549051908152f35b9050346102ee57826003193601126102ee576107f961116d565b6007549060ff8216610853575060ff19166001176007556008547fb3da2db3dfc3778f99852546c6e9ab39ec253f9de7b0847afec61bd27878e923916020911561084a575b6008549051908152a180f35b4260085561083e565b606490602084519162461bcd60e51b8352820152601760248201527f54726164696e6720616c726561647920656e61626c65640000000000000000006044820152fd5b5050346101e157816003193601126101e157602090600d549051908152f35b5050346101e157816003193601126101e15760105490516001600160a01b039091168152602090f35b5050346101e15760603660031901126101e1576108f9610ed0565b610901610eeb565b916001600160a01b039060443582811691908290036109b7577f2d4c6aa48812a0ea09474a961613c1a3ae652d39a1580cb1ac46ff277e6d385d94828460609661094961116d565b1694851515806109ac575b806109a3575b61096390610f68565b6bffffffffffffffffffffffff60a01b9286846010541617601055169182816011541617601155601254161760125581519384526020840152820152a180f35b5081151561095a565b508083161515610954565b8580fd5b83346106115780600319360112610611576109d461116d565b600580546001600160a01b0319811690915581906001600160a01b03167f8be0079c531659141344cd1fd0a4f28419497f9722a3daafe3b4186f6b6457e08280a380f35b5050346101e157816003193601126101e1576020906008549051908152f35b5050346101e15760203660031901126101e157602090610a73610a58610ed0565b6001600160a01b031660009081526020819052604090205490565b9051908152f35b5050346101e157816003193601126101e157602090516103e88152f35b5050346101e157816003193601126101e157602090600e549051908152f35b5050346101e157816003193601126101e15760209060ff6007541690519015158152f35b5050346101e157806003193601126101e157610565602092610b23610afd610ed0565b338352600186528483206001600160a01b03821684528652918490205460243590611048565b903361106b565b5050346101e157816003193601126101e1576020905160128152f35b9050346102ee5760203660031901126102ee577f4b39c36d20c57d220f61fd25c4349d4435cc03ef6c2a680942f15333c3c3e001916020913590610b8861116d565b610b93821515610fa6565b610ba1600254831115610ff2565b81600a5551908152a180f35b839150346101e15760603660031901126101e157610bc9610ed0565b610bd1610eeb565b91846044359460018060a01b038416815260016020528181203382526020522054906000198203610c0b575b6020866105658787876111d8565b848210610c345750918391610c29602096956105659503338361106b565b919394819350610bfd565b606490602087519162461bcd60e51b8352820152601d60248201527f45524332303a20696e73756666696369656e7420616c6c6f77616e63650000006044820152fd5b5050346101e157816003193601126101e1576020906002549051908152f35b5050346101e1577f6a12b3df6cba4203bd7fd06b816789f87de8c594299aed5717ae070fac781bac90610cc836610f01565b90610cd161116d565b6001600160a01b031690610ce6821515610f68565b8185526014602052610d06818487209060ff801983541691151516179055565b825191825215156020820152a180f35b5050346101e157816003193601126101e15760125490516001600160a01b039091168152602090f35b5050346101e157806003193601126101e157602090610565610d5f610ed0565b602435903361106b565b5050346101e157816003193601126101e157600b5490516001600160a01b039091168152602090f35b92915034610e835783600319360112610e8357600354600181811c9186908281168015610e79575b6020958686108214610e665750848852908115610e445750600114610deb575b6106fa86866106f0828b0383610f30565b929550600383527fc2575a0e9e593c00f959f8c92f12db2869c3395a3b0502d05e2516446f71f85b5b828410610e3157505050826106fa946106f0928201019438610dda565b8054868501880152928601928101610e14565b60ff191687860152505050151560051b83010192506106f0826106fa38610dda565b634e487b7160e01b845260229052602483fd5b93607f1693610dba565b8380fd5b6020808252825181830181905290939260005b828110610ebc57505060409293506000838284010152601f8019910116010190565b818101860151848201604001528501610e9a565b600435906001600160a01b0382168203610ee657565b600080fd5b602435906001600160a01b0382168203610ee657565b6040906003190112610ee6576004356001600160a01b0381168103610ee657906024358015158103610ee65790565b90601f8019910116810190811067ffffffffffffffff821117610f5257604052565b634e487b7160e01b600052604160045260246000fd5b15610f6f57565b60405162461bcd60e51b815260206004820152600f60248201526e496e76616c6964206164647265737360881b6044820152606490fd5b15610fad57565b60405162461bcd60e51b815260206004820152601d60248201527f416d6f756e74206d7573742062652067726561746572207468616e20300000006044820152606490fd5b15610ff957565b60405162461bcd60e51b815260206004820152602160248201527f416d6f756e742063616e6e6f742065786365656420746f74616c20737570706c6044820152607960f81b6064820152608490fd5b9190820180921161105557565b634e487b7160e01b600052601160045260246000fd5b6001600160a01b0390811691821561111c57169182156110cc5760207f8c5be1e5ebec7d5bd14f71427d1e84f3dd0314c0f7b2291e5b200ac8c7c3b925918360005260018252604060002085600052825280604060002055604051908152a3565b60405162461bcd60e51b815260206004820152602260248201527f45524332303a20617070726f766520746f20746865207a65726f206164647265604482015261737360f01b6064820152608490fd5b60405162461bcd60e51b8152602060048201526024808201527f45524332303a20617070726f76652066726f6d20746865207a65726f206164646044820152637265737360e01b6064820152608490fd5b6005546001600160a01b0316330361118157565b606460405162461bcd60e51b815260206004820152602060248201527f4f776e61626c653a2063616c6c6572206973206e6f7420746865206f776e65726044820152fd5b8181029291811591840414171561105557565b92919060009360018060a01b0394858216958682526020906014825260ff604091818386205416158061161b575b156115e157816007541680156115d4575b80156115c5575b1561158b5760085480611545575b5060095480151580611531575b8061151b575b6114cb575b50600a54801515806114b5575b611451575b5080600c541681881690808214908115611447575b50611284575b50505050505061128293945061162d565b565b859a606461129a600d9b999b989798548a6111c5565b049360646112aa600e548b6111c5565b049760646112ba600f548c6111c5565b04956112ca876103b88c84611048565b998d8b61130d575b505050505050505050505081039081116112f9576112829394509184933880808080611271565b634e487b7160e01b85526011600452602485fd5b61132b926113209189601054169061162d565b60115487168e61162d565b8515159283611432575b508261141c575b505061134e575b80808080808d6112d2565b61135d8383601254168b61162d565b81600c541614806113f0575b611374575b80611343565b60125416803b15610e8357604484928451958693849263d3f2036b60e01b845230600485015260011c60248401525af180156113e6576113b7575b80889261136e565b67ffffffffffffffff82989398116113d257529438806113af565b634e487b7160e01b83526041600452602483fd5b81513d8a823e3d90fd5b506103e8611415826012541660018060a01b0316600052600060205260406000205490565b1015611369565b601391925083885252848620541615388061133c565b88526013815286882054821615925038611335565b90508b143861126b565b81881686528585526114668985882054611048565b116114715738611256565b825162461bcd60e51b815260048101859052601960248201527f45786365656473206d61782077616c6c657420616d6f756e74000000000000006044820152606490fd5b5081881686526013855282848720541615611251565b88116114d75738611244565b825162461bcd60e51b815260048101859052601e60248201527f45786365656473206d6178207472616e73616374696f6e20616d6f756e7400006044820152606490fd5b508188168652601385528284872054161561123f565b508a86526013855282848720541615611239565b4210611551573861122c565b825162461bcd60e51b8152600481018590526013602482015272151c98591a5b99c81b9bdd081cdd185c9d1959606a1b6044820152606490fd5b825162461bcd60e51b8152600481018590526013602482015272151c98591a5b99c81b9bdd08195b98589b1959606a1b6044820152606490fd5b5080600554168188161461121e565b5080600554168a14611217565b825162461bcd60e51b8152600481018590526013602482015272426c61636b6c6973746564206164647265737360681b6044820152606490fd5b50808716855281838620541615611206565b6001600160a01b0390811691821561174857169182156116f7576000828152806020526040812054918083106116a357604082827fddf252ad1be2c89b69c2b068fc378daa952ba7f163c4a11628f55a4df523b3ef958760209652828652038282205586815220818154019055604051908152a3565b60405162461bcd60e51b815260206004820152602660248201527f45524332303a207472616e7366657220616d6f756e7420657863656564732062604482015265616c616e636560d01b6064820152608490fd5b60405162461bcd60e51b815260206004820152602360248201527f45524332303a207472616e7366657220746f20746865207a65726f206164647260448201526265737360e81b6064820152608490fd5b60405162461bcd60e51b815260206004820152602560248201527f45524332303a207472616e736665722066726f6d20746865207a65726f206164604482015264647265737360d81b6064820152608490fdfea2646970667358221220d3a65f5d02620f4bb67abbd0652ba30192260479c7a42773ff99503ab18997e164736f6c63430008160033",
  "linkReferences": {},
  "deployedLinkReferences": {}
}