{
  "_format": "hh-sol-artifact-1",
  "contractName": "TokenTemplate_v2DirectDEX",
  "sourceName": "src/contracts/TokenTemplate_v2DirectDEX.sol",
  "abi": [
    {
      "inputs": [
        {
          "internalType": "string",
          "name": "name_",
          "type": "string"
        },
        {
          "internalType": "string",
          "name": "symbol_",
          "type": "string"
        },
        {
          "internalType": "uint256",
          "name": "totalSupply_",
          "type": "uint256"
        },
        {
          "internalType": "uint256",
          "name": "maxTxAmount_",
          "type": "uint256"
        },
        {
          "internalType": "uint256",
          "name": "maxWalletAmount_",
          "type": "uint256"
        },
        {
          "internalType": "bool",
          "name": "enableTrading_",
          "type": "bool"
        },
        {
          "internalType": "uint256",
          "name": "tradingStartTime_",
          "type": "uint256"
        },
        {
          "internalType": "address",
          "name": "dexRouter_",
          "type": "address"
        },
        {
          "internalType": "uint256",
          "name": "buyTaxPercentage_",
          "type": "uint256"
        },
        {
          "internalType": "uint256",
          "name": "sellTaxPercentage_",
          "type": "uint256"
        }
      ],
      "stateMutability": "nonpayable",
      "type": "constructor"
    },
    {
      "anonymous": false,
      "inputs": [
        {
          "indexed": true,
          "internalType": "address",
          "name": "owner",
          "type": "address"
        },
        {
          "indexed": true,
          "internalType": "address",
          "name": "spender",
          "type": "address"
        },
        {
          "indexed": false,
          "internalType": "uint256",
          "name": "value",
          "type": "uint256"
        }
      ],
      "name": "Approval",
      "type": "event"
    },
    {
      "anonymous": false,
      "inputs": [
        {
          "indexed": false,
          "internalType": "address",
          "name": "account",
          "type": "address"
        },
        {
          "indexed": false,
          "internalType": "bool",
          "name": "isBlacklisted",
          "type": "bool"
        }
      ],
      "name": "BlacklistUpdated",
      "type": "event"
    },
    {
      "anonymous": false,
      "inputs": [
        {
          "indexed": false,
          "internalType": "uint256",
          "name": "amount",
          "type": "uint256"
        }
      ],
      "name": "MaxTxAmountUpdated",
      "type": "event"
    },
    {
      "anonymous": false,
      "inputs": [
        {
          "indexed": false,
          "internalType": "uint256",
          "name": "amount",
          "type": "uint256"
        }
      ],
      "name": "MaxWalletAmountUpdated",
      "type": "event"
    },
    {
      "anonymous": false,
      "inputs": [
        {
          "indexed": true,
          "internalType": "address",
          "name": "previousOwner",
          "type": "address"
        },
        {
          "indexed": true,
          "internalType": "address",
          "name": "newOwner",
          "type": "address"
        }
      ],
      "name": "OwnershipTransferred",
      "type": "event"
    },
    {
      "anonymous": false,
      "inputs": [
        {
          "indexed": false,
          "internalType": "uint256",
          "name": "buyTax",
          "type": "uint256"
        },
        {
          "indexed": false,
          "internalType": "uint256",
          "name": "sellTax",
          "type": "uint256"
        }
      ],
      "name": "TaxesUpdated",
      "type": "event"
    },
    {
      "anonymous": false,
      "inputs": [
        {
          "indexed": false,
          "internalType": "uint256",
          "name": "timestamp",
          "type": "uint256"
        }
      ],
      "name": "TradingEnabled",
      "type": "event"
    },
    {
      "anonymous": false,
      "inputs": [
        {
          "indexed": true,
          "internalType": "address",
          "name": "from",
          "type": "address"
        },
        {
          "indexed": true,
          "internalType": "address",
          "name": "to",
          "type": "address"
        },
        {
          "indexed": false,
          "internalType": "uint256",
          "name": "value",
          "type": "uint256"
        }
      ],
      "name": "Transfer",
      "type": "event"
    },
    {
      "anonymous": false,
      "inputs": [
        {
          "indexed": false,
          "internalType": "address",
          "name": "marketing",
          "type": "address"
        },
        {
          "indexed": false,
          "internalType": "address",
          "name": "development",
          "type": "address"
        },
        {
          "indexed": false,
          "internalType": "address",
          "name": "autoLiquidity",
          "type": "address"
        }
      ],
      "name": "WalletsUpdated",
      "type": "event"
    },
    {
      "inputs": [],
      "name": "VERSION",
      "outputs": [
        {
          "internalType": "uint256",
          "name": "",
          "type": "uint256"
        }
      ],
      "stateMutability": "view",
      "type": "function"
    },
    {
      "inputs": [],
      "name": "VERSION_HASH",
      "outputs": [
        {
          "internalType": "bytes32",
          "name": "",
          "type": "bytes32"
        }
      ],
      "stateMutability": "view",
      "type": "function"
    },
    {
      "inputs": [
        {
          "internalType": "address",
          "name": "owner",
          "type": "address"
        },
        {
          "internalType": "address",
          "name": "spender",
          "type": "address"
        }
      ],
      "name": "allowance",
      "outputs": [
        {
          "internalType": "uint256",
          "name": "",
          "type": "uint256"
        }
      ],
      "stateMutability": "view",
      "type": "function"
    },
    {
      "inputs": [
        {
          "internalType": "address",
          "name": "spender",
          "type": "address"
        },
        {
          "internalType": "uint256",
          "name": "amount",
          "type": "uint256"
        }
      ],
      "name": "approve",
      "outputs": [
        {
          "internalType": "bool",
          "name": "",
          "type": "bool"
        }
      ],
      "stateMutability": "nonpayable",
      "type": "function"
    },
    {
      "inputs": [],
      "name": "autoLiquidityWallet",
      "outputs": [
        {
          "internalType": "address",
          "name": "",
          "type": "address"
        }
      ],
      "stateMutability": "view",
      "type": "function"
    },
    {
      "inputs": [
        {
          "internalType": "address",
          "name": "account",
          "type": "address"
        }
      ],
      "name": "balanceOf",
      "outputs": [
        {
          "internalType": "uint256",
          "name": "",
          "type": "uint256"
        }
      ],
      "stateMutability": "view",
      "type": "function"
    },
    {
      "inputs": [],
      "name": "buyTaxPercentage",
      "outputs": [
        {
          "internalType": "uint256",
          "name": "",
          "type": "uint256"
        }
      ],
      "stateMutability": "view",
      "type": "function"
    },
    {
      "inputs": [],
      "name": "decimals",
      "outputs": [
        {
          "internalType": "uint8",
          "name": "",
          "type": "uint8"
        }
      ],
      "stateMutability": "view",
      "type": "function"
    },
    {
      "inputs": [
        {
          "internalType": "address",
          "name": "spender",
          "type": "address"
        },
        {
          "internalType": "uint256",
          "name": "subtractedValue",
          "type": "uint256"
        }
      ],
      "name": "decreaseAllowance",
      "outputs": [
        {
          "internalType": "bool",
          "name": "",
          "type": "bool"
        }
      ],
      "stateMutability": "nonpayable",
      "type": "function"
    },
    {
      "inputs": [],
      "name": "developmentWallet",
      "outputs": [
        {
          "internalType": "address",
          "name": "",
          "type": "address"
        }
      ],
      "stateMutability": "view",
      "type": "function"
    },
    {
      "inputs": [],
      "name": "dexPair",
      "outputs": [
        {
          "internalType": "address",
          "name": "",
          "type": "address"
        }
      ],
      "stateMutability": "view",
      "type": "function"
    },
    {
      "inputs": [],
      "name": "dexRouter",
      "outputs": [
        {
          "internalType": "address",
          "name": "",
          "type": "address"
        }
      ],
      "stateMutability": "view",
      "type": "function"
    },
    {
      "inputs": [],
      "name": "enableTrading",
      "outputs": [],
      "stateMutability": "nonpayable",
      "type": "function"
    },
    {
      "inputs": [
        {
          "internalType": "address",
          "name": "spender",
          "type": "address"
        },
        {
          "internalType": "uint256",
          "name": "addedValue",
          "type": "uint256"
        }
      ],
      "name": "increaseAllowance",
      "outputs": [
        {
          "internalType": "bool",
          "name": "",
          "type": "bool"
        }
      ],
      "stateMutability": "nonpayable",
      "type": "function"
    },
    {
      "inputs": [
        {
          "internalType": "address",
          "name": "",
          "type": "address"
        }
      ],
      "name": "isBlacklisted",
      "outputs": [
        {
          "internalType": "bool",
          "name": "",
          "type": "bool"
        }
      ],
      "stateMutability": "view",
      "type": "function"
    },
    {
      "inputs": [],
      "name": "marketingWallet",
      "outputs": [
        {
          "internalType": "address",
          "name": "",
          "type": "address"
        }
      ],
      "stateMutability": "view",
      "type": "function"
    },
    {
      "inputs": [],
      "name": "maxTxAmount",
      "outputs": [
        {
          "internalType": "uint256",
          "name": "",
          "type": "uint256"
        }
      ],
      "stateMutability": "view",
      "type": "function"
    },
    {
      "inputs": [],
      "name": "maxWalletAmount",
      "outputs": [
        {
          "internalType": "uint256",
          "name": "",
          "type": "uint256"
        }
      ],
      "stateMutability": "view",
      "type": "function"
    },
    {
      "inputs": [],
      "name": "name",
      "outputs": [
        {
          "internalType": "string",
          "name": "",
          "type": "string"
        }
      ],
      "stateMutability": "view",
      "type": "function"
    },
    {
      "inputs": [],
      "name": "owner",
      "outputs": [
        {
          "internalType": "address",
          "name": "",
          "type": "address"
        }
      ],
      "stateMutability": "view",
      "type": "function"
    },
    {
      "inputs": [],
      "name": "renounceOwnership",
      "outputs": [],
      "stateMutability": "nonpayable",
      "type": "function"
    },
    {
      "inputs": [],
      "name": "sellTaxPercentage",
      "outputs": [
        {
          "internalType": "uint256",
          "name": "",
          "type": "uint256"
        }
      ],
      "stateMutability": "view",
      "type": "function"
    },
    {
      "inputs": [
        {
          "internalType": "address",
          "name": "account",
          "type": "address"
        },
        {
          "internalType": "bool",
          "name": "blacklisted",
          "type": "bool"
        }
      ],
      "name": "setBlacklist",
      "outputs": [],
      "stateMutability": "nonpayable",
      "type": "function"
    },
    {
      "inputs": [
        {
          "internalType": "uint256",
          "name": "amount",
          "type": "uint256"
        }
      ],
      "name": "setMaxTxAmount",
      "outputs": [],
      "stateMutability": "nonpayable",
      "type": "function"
    },
    {
      "inputs": [
        {
          "internalType": "uint256",
          "name": "amount",
          "type": "uint256"
        }
      ],
      "name": "setMaxWalletAmount",
      "outputs": [],
      "stateMutability": "nonpayable",
      "type": "function"
    },
    {
      "inputs": [
        {
          "internalType": "uint256",
          "name": "buyTax",
          "type": "uint256"
        },
        {
          "internalType": "uint256",
          "name": "sellTax",
          "type": "uint256"
        }
      ],
      "name": "setTaxes",
      "outputs": [],
      "stateMutability": "nonpayable",
      "type": "function"
    },
    {
      "inputs": [
        {
          "internalType": "address",
          "name": "marketing",
          "type": "address"
        },
        {
          "internalType": "address",
          "name": "development",
          "type": "address"
        },
        {
          "internalType": "address",
          "name": "autoLiquidity",
          "type": "address"
        }
      ],
      "name": "setWallets",
      "outputs": [],
      "stateMutability": "nonpayable",
      "type": "function"
    },
    {
      "inputs": [],
      "name": "symbol",
      "outputs": [
        {
          "internalType": "string",
          "name": "",
          "type": "string"
        }
      ],
      "stateMutability": "view",
      "type": "function"
    },
    {
      "inputs": [],
      "name": "totalSupply",
      "outputs": [
        {
          "internalType": "uint256",
          "name": "",
          "type": "uint256"
        }
      ],
      "stateMutability": "view",
      "type": "function"
    },
    {
      "inputs": [],
      "name": "tradingEnabled",
      "outputs": [
        {
          "internalType": "bool",
          "name": "",
          "type": "bool"
        }
      ],
      "stateMutability": "view",
      "type": "function"
    },
    {
      "inputs": [],
      "name": "tradingStartTime",
      "outputs": [
        {
          "internalType": "uint256",
          "name": "",
          "type": "uint256"
        }
      ],
      "stateMutability": "view",
      "type": "function"
    },
    {
      "inputs": [
        {
          "internalType": "address",
          "name": "to",
          "type": "address"
        },
        {
          "internalType": "uint256",
          "name": "amount",
          "type": "uint256"
        }
      ],
      "name": "transfer",
      "outputs": [
        {
          "internalType": "bool",
          "name": "",
          "type": "bool"
        }
      ],
      "stateMutability": "nonpayable",
      "type": "function"
    },
    {
      "inputs": [
        {
          "internalType": "address",
          "name": "from",
          "type": "address"
        },
        {
          "internalType": "address",
          "name": "to",
          "type": "address"
        },
        {
          "internalType": "uint256",
          "name": "amount",
          "type": "uint256"
        }
      ],
      "name": "transferFrom",
      "outputs": [
        {
          "internalType": "bool",
          "name": "",
          "type": "bool"
        }
      ],
      "stateMutability": "nonpayable",
      "type": "function"
    },
    {
      "inputs": [
        {
          "internalType": "address",
          "name": "newOwner",
          "type": "address"
        }
      ],
      "name": "transferOwnership",
      "outputs": [],
      "stateMutability": "nonpayable",
      "type": "function"
    }
  ],
  "bytecode": "0x6080604052346200070b5762001ccc803803806200001d8162000710565b9283398101610140828203126200070b5781516001600160401b0381116200070b57816200004d91840162000736565b602083015190916001600160401b0382116200070b576200007091840162000736565b916040810151926060820151608083015160a08401519081151582036200070b5760c085015160e0860151949093906001600160a01b03861686036200070b5761010087015161012090970151885190986001600160401b038211620005e15760035490600182811c9216801562000700575b6020831014620005c05781601f8493116200068e575b50602090601f83116001146200060357600092620005f7575b50508160011b916000199060031b1c1916176003555b8051906001600160401b038211620005e15760045490600182811c92168015620005d6575b6020831014620005c05781601f8493116200054b575b50602090601f8311600114620004bc57600092620004b0575b50508160011b916000199060031b1c1916176004555b60058054336001600160a01b03198083168217909355604051929a92916001600160a01b03167f8be0079c531659141344cd1fd0a4f28419497f9722a3daafe3b4186f6b6457e0600080a3600160065581156200046257508082116200040357808311620003a957600a87116200036457600a88116200031f573315620002da57600254818101809111620002c457600255336000526000602052604060002081815401905560405190815260007fddf252ad1be2c89b69c2b068fc378daa952ba7f163c4a11628f55a4df523b3ef60203393a3600955600a5560ff801960075416911515161760075560085560018060a01b031683600b541617600b55600d55600e553381600f541617600f5533816010541617601055339060115416176011556040516115239081620007a98239f35b634e487b7160e01b600052601160045260246000fd5b60405162461bcd60e51b815260206004820152601f60248201527f45524332303a206d696e7420746f20746865207a65726f2061646472657373006044820152606490fd5b60405162461bcd60e51b815260206004820152601a60248201527f53656c6c207461782063616e6e6f7420657863656564203130250000000000006044820152606490fd5b60405162461bcd60e51b815260206004820152601960248201527f427579207461782063616e6e6f742065786365656420313025000000000000006044820152606490fd5b60405162461bcd60e51b815260206004820152602c60248201527f4d61782077616c6c657420616d6f756e742063616e6e6f74206578636565642060448201526b746f74616c20737570706c7960a01b6064820152608490fd5b60405162461bcd60e51b815260206004820152603160248201527f4d6178207472616e73616374696f6e20616d6f756e742063616e6e6f742065786044820152706365656420746f74616c20737570706c7960781b6064820152608490fd5b62461bcd60e51b815260206004820152602360248201527f546f74616c20737570706c79206d75737420626520677265617465722074686160448201526206e20360ec1b6064820152608490fd5b0151905038806200017c565b6004600090815293507f8a35acfbc15ff81a39ae7d344fd709f28e8600b4aa8c65c6b64bfe7fe36bd19b91905b601f19841685106200052f576001945083601f1981161062000515575b505050811b0160045562000192565b015160001960f88460031b161c1916905538808062000506565b81810151835560209485019460019093019290910190620004e9565b60046000529091507f8a35acfbc15ff81a39ae7d344fd709f28e8600b4aa8c65c6b64bfe7fe36bd19b601f840160051c81019160208510620005b5575b90601f859493920160051c01905b818110620005a5575062000163565b6000815584935060010162000596565b909150819062000588565b634e487b7160e01b600052602260045260246000fd5b91607f16916200014d565b634e487b7160e01b600052604160045260246000fd5b01519050388062000112565b600360009081527fc2575a0e9e593c00f959f8c92f12db2869c3395a3b0502d05e2516446f71f85b9350601f198516905b8181106200067557509084600195949392106200065b575b505050811b0160035562000128565b015160001960f88460031b161c191690553880806200064c565b9293602060018192878601518155019501930162000634565b60036000529091507fc2575a0e9e593c00f959f8c92f12db2869c3395a3b0502d05e2516446f71f85b601f840160051c810160208510620006f8575b90849392915b601f830160051c82018110620006e8575050620000f9565b60008155859450600101620006d0565b5080620006ca565b91607f1691620000e3565b600080fd5b6040519190601f01601f191682016001600160401b03811183821017620005e157604052565b919080601f840112156200070b5782516001600160401b038111620005e1576020906200076c601f8201601f1916830162000710565b928184528282870101116200070b5760005b8181106200079457508260009394955001015290565b85810183015184820184015282016200077e56fe608060408181526004918236101561001657600080fd5b600092833560e01c91826306fdde0314610cb7575081630758d92414610c8e578163095ea7b314610c645781630c439f9314610c3b578163153b0d1e14610baa57816318160ddd14610b8b57816323b872dd14610ac157816327a14fc214610a5a578163313ce56714610a3e57816339509351146109ee5781634ada218b146109ca57816370a082311461099357816370b7b80c14610974578163715018a61461091757816375cb1bd11461083a57816375f0a87414610811578163760bf186146107f25781638a8c523c1461073b5781638c0b5e221461071c5781638da5cb5b146106f357816395d89b41146105d25781639e4e7318146105975781639e7d8d1d14610578578163a457c2d7146104d0578163a9059cbb1461049f578163aa4bde2814610480578163c04a541414610457578163c647b20e1461039f578163dd62ed3e14610356578163ec28438a146102ef578163f242ab41146102c6578163f2fde38b146101f657508063fe575a87146101b95763ffa1ad741461019b57600080fd5b346101b557816003193601126101b5576020905160028152f35b5080fd5b50346101b55760203660031901126101b55760209160ff9082906001600160a01b036101e3610dda565b1681526012855220541690519015158152f35b9050346102c25760203660031901126102c257610211610dda565b9061021a611010565b6001600160a01b03918216928315610270575050600554826bffffffffffffffffffffffff60a01b821617600555167f8be0079c531659141344cd1fd0a4f28419497f9722a3daafe3b4186f6b6457e08380a380f35b906020608492519162461bcd60e51b8352820152602660248201527f4f776e61626c653a206e6577206f776e657220697320746865207a65726f206160448201526564647265737360d01b6064820152fd5b8280fd5b5050346101b557816003193601126101b557600c5490516001600160a01b039091168152602090f35b9050346102c25760203660031901126102c2577f947f344d56e1e8c70dc492fb94c4ddddd490c016aab685f5e7e47b2e85cb44cf916020913590610331611010565b61033c821515610e49565b61034a600254831115610e95565b8160095551908152a180f35b5050346101b557806003193601126101b55780602092610374610dda565b61037c610df5565b6001600160a01b0391821683526001865283832091168252845220549051908152f35b8383346101b557806003193601126101b5578235602435936103bf611010565b600a8211158061044c575b1561040957507f35d461df023e70886ad5e68610133ecb7d637c2263453f6ea50daf699cb31ed4929381600d5580600e5582519182526020820152a180f35b606490602084519162461bcd60e51b8352820152601760248201527f54617865732063616e6e6f7420657863656564203130250000000000000000006044820152fd5b50600a8511156103ca565b5050346101b557816003193601126101b55760105490516001600160a01b039091168152602090f35b5050346101b557816003193601126101b557602090600a549051908152f35b5050346101b557806003193601126101b5576020906104c96104bf610dda565b602435903361113a565b5160018152f35b905082346105755782600319360112610575576104eb610dda565b918360243592338152600160205281812060018060a01b0386168252602052205490828210610524576020856104c98585038733610f0e565b608490602086519162461bcd60e51b8352820152602560248201527f45524332303a2064656372656173656420616c6c6f77616e63652062656c6f77604482015264207a65726f60d81b6064820152fd5b80fd5b5050346101b557816003193601126101b557602090600e549051908152f35b5050346101b557816003193601126101b557602090517f97831d354a6f8b80f2034ecb74ded90addda670141f845b47bcbb8c109be18a28152f35b8383346101b557816003193601126101b55780519082845460018160011c90600183169283156106e9575b60209384841081146106d6578388529081156106ba5750600114610665575b505050829003601f01601f191682019267ffffffffffffffff841183851017610652575082918261064e925282610d91565b0390f35b634e487b7160e01b815260418552602490fd5b8787529192508591837f8a35acfbc15ff81a39ae7d344fd709f28e8600b4aa8c65c6b64bfe7fe36bd19b5b8385106106a6575050505083010185808061061c565b805488860183015293019284908201610690565b60ff1916878501525050151560051b840101905085808061061c565b634e487b7160e01b895260228a52602489fd5b91607f16916105fd565b5050346101b557816003193601126101b55760055490516001600160a01b039091168152602090f35b5050346101b557816003193601126101b5576020906009549051908152f35b9050346102c257826003193601126102c257610755611010565b6007549060ff82166107af575060ff19166001176007556008547fb3da2db3dfc3778f99852546c6e9ab39ec253f9de7b0847afec61bd27878e92391602091156107a6575b6008549051908152a180f35b4260085561079a565b606490602084519162461bcd60e51b8352820152601760248201527f54726164696e6720616c726561647920656e61626c65640000000000000000006044820152fd5b5050346101b557816003193601126101b557602090600d549051908152f35b5050346101b557816003193601126101b557600f5490516001600160a01b039091168152602090f35b5050346101b55760603660031901126101b557610855610dda565b61085d610df5565b916001600160a01b03906044358281169190829003610913577f2d4c6aa48812a0ea09474a961613c1a3ae652d39a1580cb1ac46ff277e6d385d9482846060966108a5611010565b169485151580610908575b806108ff575b6108bf90610e0b565b6bffffffffffffffffffffffff60a01b928684600f541617600f55169182816010541617601055601154161760115581519384526020840152820152a180f35b508115156108b6565b5080831615156108b0565b8580fd5b8334610575578060031936011261057557610930611010565b600580546001600160a01b0319811690915581906001600160a01b03167f8be0079c531659141344cd1fd0a4f28419497f9722a3daafe3b4186f6b6457e08280a380f35b5050346101b557816003193601126101b5576020906008549051908152f35b5050346101b55760203660031901126101b55760209181906001600160a01b036109bb610dda565b16815280845220549051908152f35b5050346101b557816003193601126101b55760209060ff6007541690519015158152f35b5050346101b557806003193601126101b5576104c9602092610a37610a11610dda565b338352600186528483206001600160a01b03821684528652918490205460243590610eeb565b9033610f0e565b5050346101b557816003193601126101b5576020905160128152f35b9050346102c25760203660031901126102c2577f4b39c36d20c57d220f61fd25c4349d4435cc03ef6c2a680942f15333c3c3e001916020913590610a9c611010565b610aa7821515610e49565b610ab5600254831115610e95565b81600a5551908152a180f35b839150346101b55760603660031901126101b557610add610dda565b610ae5610df5565b91846044359460018060a01b038416815260016020528181203382526020522054906000198203610b1f575b6020866104c987878761113a565b848210610b485750918391610b3d602096956104c995033383610f0e565b919394819350610b11565b606490602087519162461bcd60e51b8352820152601d60248201527f45524332303a20696e73756666696369656e7420616c6c6f77616e63650000006044820152fd5b5050346101b557816003193601126101b5576020906002549051908152f35b5050346101b557806003193601126101b557610bc4610dda565b90602435801515809103610c37577f6a12b3df6cba4203bd7fd06b816789f87de8c594299aed5717ae070fac781bac92610bfc611010565b6001600160a01b031690610c11821515610e0b565b818552601260205282852060ff1981541660ff831617905582519182526020820152a180f35b8380fd5b5050346101b557816003193601126101b55760115490516001600160a01b039091168152602090f35b5050346101b557806003193601126101b5576020906104c9610c84610dda565b6024359033610f0e565b5050346101b557816003193601126101b557600b5490516001600160a01b039091168152602090f35b849084346102c257826003193601126102c2578260035460018160011c9060018316928315610d87575b60209384841081146106d6578388529081156106ba5750600114610d3157505050829003601f01601f191682019267ffffffffffffffff841183851017610652575082918261064e925282610d91565b600387529192508591837fc2575a0e9e593c00f959f8c92f12db2869c3395a3b0502d05e2516446f71f85b5b838510610d73575050505083010185808061061c565b805488860183015293019284908201610d5d565b91607f1691610ce1565b6020808252825181830181905290939260005b828110610dc657505060409293506000838284010152601f8019910116010190565b818101860151848201604001528501610da4565b600435906001600160a01b0382168203610df057565b600080fd5b602435906001600160a01b0382168203610df057565b15610e1257565b60405162461bcd60e51b815260206004820152600f60248201526e496e76616c6964206164647265737360881b6044820152606490fd5b15610e5057565b60405162461bcd60e51b815260206004820152601d60248201527f416d6f756e74206d7573742062652067726561746572207468616e20300000006044820152606490fd5b15610e9c57565b60405162461bcd60e51b815260206004820152602160248201527f416d6f756e742063616e6e6f742065786365656420746f74616c20737570706c6044820152607960f81b6064820152608490fd5b91908201809211610ef857565b634e487b7160e01b600052601160045260246000fd5b6001600160a01b03908116918215610fbf5716918215610f6f5760207f8c5be1e5ebec7d5bd14f71427d1e84f3dd0314c0f7b2291e5b200ac8c7c3b925918360005260018252604060002085600052825280604060002055604051908152a3565b60405162461bcd60e51b815260206004820152602260248201527f45524332303a20617070726f766520746f20746865207a65726f206164647265604482015261737360f01b6064820152608490fd5b60405162461bcd60e51b8152602060048201526024808201527f45524332303a20617070726f76652066726f6d20746865207a65726f206164646044820152637265737360e01b6064820152608490fd5b6005546001600160a01b0316330361102457565b606460405162461bcd60e51b815260206004820152602060248201527f4f776e61626c653a2063616c6c6572206973206e6f7420746865206f776e65726044820152fd5b1561106f57565b60405162461bcd60e51b815260206004820152602560248201527f45524332303a207472616e736665722066726f6d20746865207a65726f206164604482015264647265737360d81b6064820152608490fd5b156110c957565b60405162461bcd60e51b815260206004820152602360248201527f45524332303a207472616e7366657220746f20746865207a65726f206164647260448201526265737360e81b6064820152608490fd5b81810292918115918404141715610ef857565b91908203918211610ef857565b6001600160a01b0393929190848116611154811515611068565b8583169586151596611165886110c2565b600083815260206012815260409960ff8b842054161580611408575b156113cb576005548516868114159081806113c1575b611327575b8161131c575b50611251575b50506111e29798509282600c5416809214600014611235575050905060646111d2600e548661111a565b04905b816111e4575b5050611419565b565b9361120361122d9395600384049061122361120883611203818961112d565b61112d565b926112188184600f54168c611419565b82601054168a611419565b6011541687611419565b9138806111db565b036111d5579050606461124a600d548661111a565b04906111d5565b60095489116112d857806112ca575b61126b575b806111a8565b82825281815261127e888b842054610eeb565b600a541015611265576064908a519062461bcd60e51b82526004820152601a60248201527f4d61782077616c6c657420616d6f756e742065786365656465640000000000006044820152fd5b5083600c5416831415611260565b8a5162461bcd60e51b815260048101839052601f60248201527f5472616e7366657220616d6f756e742065786365656473206d6178696d756d006044820152606490fd5b9050841415386111a2565b60ff60075416156113875760085480611341575b5061119c565b421061134d573861133b565b8c5162461bcd60e51b8152600481018590526013602482015272151c98591a5b99c81b9bdd081cdd185c9d1959606a1b6044820152606490fd5b8c5162461bcd60e51b8152600481018590526013602482015272151c98591a5b99c81b9bdd08195b98589b1959606a1b6044820152606490fd5b5080861415611197565b8a5162461bcd60e51b81526004810183905260166024820152751059191c995cdcc81a5cc8189b1858dadb1a5cdd195960521b6044820152606490fd5b5083835260ff8b8420541615611181565b6001600160a01b0390811691611430831515611068565b169161143d8315156110c2565b60008281528060205260408120549180831061149957604082827fddf252ad1be2c89b69c2b068fc378daa952ba7f163c4a11628f55a4df523b3ef958760209652828652038282205586815220818154019055604051908152a3565b60405162461bcd60e51b815260206004820152602660248201527f45524332303a207472616e7366657220616d6f756e7420657863656564732062604482015265616c616e636560d01b6064820152608490fdfea2646970667358221220a28b5743fea78911b0b0f0b6ef516e38911d44912821e2369d8bcb9d2205823264736f6c63430008160033",
  "linkReferences": {},
  "deployedLinkReferences": {}
}