{
  "_format": "hh-sol-artifact-1",
  "contractName": "V4FactoryWithLiquidityFixedV5",
  "sourceName": "contracts/V4FactoryWithLiquidityFixedV5.sol",
  "abi": [
    {
      "inputs": [
        {
          "internalType": "address",
          "name": "owner_",
          "type": "address"
        },
        {
          "internalType": "address",
          "name": "tokenImpl_",
          "type": "address"
        },
        {
          "internalType": "address",
          "name": "securityModuleImpl_",
          "type": "address"
        },
        {
          "internalType": "address",
          "name": "distributionModuleImpl_",
          "type": "address"
        },
        {
          "internalType": "address",
          "name": "liquidityModuleImpl_",
          "type": "address"
        }
      ],
      "stateMutability": "nonpayable",
      "type": "constructor"
    },
    {
      "anonymous": false,
      "inputs": [
        {
          "indexed": false,
          "internalType": "string",
          "name": "error",
          "type": "string"
        },
        {
          "indexed": false,
          "internalType": "address",
          "name": "sender",
          "type": "address"
        }
      ],
      "name": "DeploymentError",
      "type": "event"
    },
    {
      "anonymous": false,
      "inputs": [
        {
          "indexed": true,
          "internalType": "address",
          "name": "previousOwner",
          "type": "address"
        },
        {
          "indexed": true,
          "internalType": "address",
          "name": "newOwner",
          "type": "address"
        }
      ],
      "name": "OwnershipTransferred",
      "type": "event"
    },
    {
      "anonymous": false,
      "inputs": [
        {
          "indexed": true,
          "internalType": "address",
          "name": "tokenAddress",
          "type": "address"
        },
        {
          "indexed": false,
          "internalType": "string",
          "name": "name",
          "type": "string"
        },
        {
          "indexed": false,
          "internalType": "string",
          "name": "symbol",
          "type": "string"
        },
        {
          "indexed": true,
          "internalType": "address",
          "name": "owner",
          "type": "address"
        }
      ],
      "name": "TokenCreated",
      "type": "event"
    },
    {
      "inputs": [
        {
          "internalType": "string",
          "name": "name",
          "type": "string"
        },
        {
          "internalType": "string",
          "name": "symbol",
          "type": "string"
        },
        {
          "internalType": "uint256",
          "name": "initialSupply",
          "type": "uint256"
        },
        {
          "internalType": "address",
          "name": "owner",
          "type": "address"
        }
      ],
      "name": "createToken",
      "outputs": [
        {
          "internalType": "address",
          "name": "tokenAddress",
          "type": "address"
        }
      ],
      "stateMutability": "nonpayable",
      "type": "function"
    },
    {
      "inputs": [
        {
          "internalType": "string",
          "name": "name",
          "type": "string"
        },
        {
          "internalType": "string",
          "name": "symbol",
          "type": "string"
        },
        {
          "internalType": "uint256",
          "name": "initialSupply",
          "type": "uint256"
        },
        {
          "internalType": "address",
          "name": "owner",
          "type": "address"
        }
      ],
      "name": "createTokenBasic",
      "outputs": [
        {
          "internalType": "address",
          "name": "tokenAddress",
          "type": "address"
        }
      ],
      "stateMutability": "nonpayable",
      "type": "function"
    },
    {
      "inputs": [
        {
          "internalType": "string",
          "name": "name",
          "type": "string"
        },
        {
          "internalType": "string",
          "name": "symbol",
          "type": "string"
        },
        {
          "internalType": "uint256",
          "name": "initialSupply",
          "type": "uint256"
        },
        {
          "internalType": "address",
          "name": "owner",
          "type": "address"
        },
        {
          "internalType": "bool",
          "name": "includeDistribution",
          "type": "bool"
        }
      ],
      "name": "createTokenForWeb",
      "outputs": [
        {
          "internalType": "address",
          "name": "tokenAddress",
          "type": "address"
        }
      ],
      "stateMutability": "nonpayable",
      "type": "function"
    },
    {
      "inputs": [
        {
          "internalType": "string",
          "name": "name",
          "type": "string"
        },
        {
          "internalType": "string",
          "name": "symbol",
          "type": "string"
        },
        {
          "internalType": "uint256",
          "name": "initialSupply",
          "type": "uint256"
        },
        {
          "internalType": "address",
          "name": "owner",
          "type": "address"
        },
        {
          "internalType": "bool",
          "name": "includeDistribution",
          "type": "bool"
        },
        {
          "components": [
            {
              "internalType": "address",
              "name": "wallet",
              "type": "address"
            },
            {
              "internalType": "uint256",
              "name": "percentage",
              "type": "uint256"
            },
            {
              "internalType": "string",
              "name": "label",
              "type": "string"
            },
            {
              "internalType": "bool",
              "name": "vesting",
              "type": "bool"
            },
            {
              "internalType": "uint256",
              "name": "vestingDuration",
              "type": "uint256"
            },
            {
              "internalType": "uint256",
              "name": "cliffDuration",
              "type": "uint256"
            }
          ],
          "internalType": "struct V4FactoryWithLiquidityFixedV5.WalletAllocation[]",
          "name": "walletAllocations",
          "type": "tuple[]"
        }
      ],
      "name": "createTokenWithDistribution",
      "outputs": [
        {
          "internalType": "address",
          "name": "tokenAddress",
          "type": "address"
        }
      ],
      "stateMutability": "nonpayable",
      "type": "function"
    },
    {
      "inputs": [],
      "name": "distributionModuleBeacon",
      "outputs": [
        {
          "internalType": "contract UpgradeableBeacon",
          "name": "",
          "type": "address"
        }
      ],
      "stateMutability": "view",
      "type": "function"
    },
    {
      "inputs": [],
      "name": "distributionModuleImplementation",
      "outputs": [
        {
          "internalType": "address",
          "name": "",
          "type": "address"
        }
      ],
      "stateMutability": "view",
      "type": "function"
    },
    {
      "inputs": [],
      "name": "getAddresses",
      "outputs": [
        {
          "internalType": "address",
          "name": "_tokenImpl",
          "type": "address"
        },
        {
          "internalType": "address",
          "name": "_securityModuleImpl",
          "type": "address"
        },
        {
          "internalType": "address",
          "name": "_distributionModuleImpl",
          "type": "address"
        },
        {
          "internalType": "address",
          "name": "_liquidityModuleImpl",
          "type": "address"
        },
        {
          "internalType": "address",
          "name": "_tokenBeacon",
          "type": "address"
        },
        {
          "internalType": "address",
          "name": "_securityModuleBeacon",
          "type": "address"
        },
        {
          "internalType": "address",
          "name": "_distributionModuleBeacon",
          "type": "address"
        },
        {
          "internalType": "address",
          "name": "_liquidityModuleBeacon",
          "type": "address"
        }
      ],
      "stateMutability": "view",
      "type": "function"
    },
    {
      "inputs": [],
      "name": "lastError",
      "outputs": [
        {
          "internalType": "string",
          "name": "",
          "type": "string"
        }
      ],
      "stateMutability": "view",
      "type": "function"
    },
    {
      "inputs": [],
      "name": "liquidityModuleBeacon",
      "outputs": [
        {
          "internalType": "contract UpgradeableBeacon",
          "name": "",
          "type": "address"
        }
      ],
      "stateMutability": "view",
      "type": "function"
    },
    {
      "inputs": [],
      "name": "liquidityModuleImplementation",
      "outputs": [
        {
          "internalType": "address",
          "name": "",
          "type": "address"
        }
      ],
      "stateMutability": "view",
      "type": "function"
    },
    {
      "inputs": [],
      "name": "owner",
      "outputs": [
        {
          "internalType": "address",
          "name": "",
          "type": "address"
        }
      ],
      "stateMutability": "view",
      "type": "function"
    },
    {
      "inputs": [],
      "name": "renounceOwnership",
      "outputs": [],
      "stateMutability": "nonpayable",
      "type": "function"
    },
    {
      "inputs": [],
      "name": "securityModuleBeacon",
      "outputs": [
        {
          "internalType": "contract UpgradeableBeacon",
          "name": "",
          "type": "address"
        }
      ],
      "stateMutability": "view",
      "type": "function"
    },
    {
      "inputs": [],
      "name": "securityModuleImplementation",
      "outputs": [
        {
          "internalType": "address",
          "name": "",
          "type": "address"
        }
      ],
      "stateMutability": "view",
      "type": "function"
    },
    {
      "inputs": [
        {
          "internalType": "address",
          "name": "newDistributionModuleImpl",
          "type": "address"
        }
      ],
      "name": "setDistributionModuleImplementation",
      "outputs": [],
      "stateMutability": "nonpayable",
      "type": "function"
    },
    {
      "inputs": [
        {
          "internalType": "address",
          "name": "newLiquidityModuleImpl",
          "type": "address"
        }
      ],
      "name": "setLiquidityModuleImplementation",
      "outputs": [],
      "stateMutability": "nonpayable",
      "type": "function"
    },
    {
      "inputs": [
        {
          "internalType": "address",
          "name": "newSecurityModuleImpl",
          "type": "address"
        }
      ],
      "name": "setSecurityModuleImplementation",
      "outputs": [],
      "stateMutability": "nonpayable",
      "type": "function"
    },
    {
      "inputs": [
        {
          "internalType": "address",
          "name": "newTokenImpl",
          "type": "address"
        }
      ],
      "name": "setTokenImplementation",
      "outputs": [],
      "stateMutability": "nonpayable",
      "type": "function"
    },
    {
      "inputs": [],
      "name": "tokenBeacon",
      "outputs": [
        {
          "internalType": "contract UpgradeableBeacon",
          "name": "",
          "type": "address"
        }
      ],
      "stateMutability": "view",
      "type": "function"
    },
    {
      "inputs": [],
      "name": "tokenImplementation",
      "outputs": [
        {
          "internalType": "address",
          "name": "",
          "type": "address"
        }
      ],
      "stateMutability": "view",
      "type": "function"
    },
    {
      "inputs": [
        {
          "internalType": "address",
          "name": "newOwner",
          "type": "address"
        }
      ],
      "name": "transferOwnership",
      "outputs": [],
      "stateMutability": "nonpayable",
      "type": "function"
    }
  ],
  "bytecode": "0x6080346200053157601f6200495a38819003918201601f191683019260009290916001600160401b039190828611848710176200051d578160a092859260409889528339810103126200051957620000578262000560565b6020926200006784820162000560565b936200007587830162000560565b906200009260806200008a6060860162000560565b940162000560565b946200009e3362000575565b6001600160a01b03968716928315620004c157871693841562000457578716958615620003ed5787169586156200038357620000da8662000575565b60018060a01b0319948486600154161760015585600254161760025584600354161760035560049584875416178655885161045a9081810181811084821117620003535781859162004500978589843981520301908af080156200036657881685600554161760055587600254168a519082820190828210858311176200037057859183918589843981520301908af080156200036657881685600654161760065587600354168a519082820190828210858311176200037057859183918589843981520301908af080156200036657881685600754161760075587875416908a51948186019386851090851117620003535790859392918439815203019086f0801562000349578416906008541617600855826005541692833b15620002f15785518581602481838663f2fde38b60e01b9889845216998a8a8401525af180156200030d5762000333575b508060065416803b15620003175785809160248951809481938883528a8a8401525af180156200030d579086916200031b575b50508060075416803b15620003175785809160248951809481938883528a8a8401525af180156200030d57908691620002f5575b505060085416803b15620002f157849291836024928851968795869485528401525af18015620002e757620002cc575b8251613f439081620005bd8239f35b620002d8829162000536565b620002e45780620002bd565b80fd5b83513d84823e3d90fd5b8480fd5b620003009062000536565b620002f15784386200028d565b87513d88823e3d90fd5b8580fd5b620003269062000536565b620002f157843862000259565b620003419095919562000536565b933862000226565b86513d87823e3d90fd5b634e487b7160e01b8b526041895260248bfd5b8a513d8b823e3d90fd5b634e487b7160e01b8c5260418a5260248cfd5b895162461bcd60e51b815260048101849052603660248201527f4c6971756964697479206d6f64756c6520696d706c656d656e746174696f6e2060448201527f63616e6e6f74206265207a65726f2061646472657373000000000000000000006064820152608490fd5b895162461bcd60e51b815260048101849052603960248201527f446973747269627574696f6e206d6f64756c6520696d706c656d656e7461746960448201527f6f6e2063616e6e6f74206265207a65726f2061646472657373000000000000006064820152608490fd5b895162461bcd60e51b815260048101849052603560248201527f5365637572697479206d6f64756c6520696d706c656d656e746174696f6e206360448201527f616e6e6f74206265207a65726f206164647265737300000000000000000000006064820152608490fd5b895162461bcd60e51b815260048101849052602b60248201527f546f6b656e20696d706c656d656e746174696f6e2063616e6e6f74206265207a60448201526a65726f206164647265737360a81b6064820152608490fd5b8280fd5b634e487b7160e01b85526041600452602485fd5b600080fd5b6001600160401b0381116200054a57604052565b634e487b7160e01b600052604160045260246000fd5b51906001600160a01b03821682036200053157565b600080546001600160a01b039283166001600160a01b03198216811783559216907f8be0079c531659141344cd1fd0a4f28419497f9722a3daafe3b4186f6b6457e09080a356fe6080806040526004803610156200001557600080fd5b600091823560e01c9081630edf632a1462000cd3575080631c480db31462000ca8578063203c61cf1462000ba057806329f0de3f1462000ab95780632f3a3d5d1462000a8e57806333aeb63c146200093957806334f359f914620009175780635fdb2a0e1462000713578063715018a614620006b55780638008334c146200068a57806388282e2a146200058c5780638da5cb5b14620005635780639651d0a814620005385780639ab10b79146200050d5780639f59163514620004e2578063a39fac12146200046a578063bf2fb7c91462000362578063c39874711462000251578063ccf5a77c1462000226578063f2f68e3a14620001ef5763f2fde38b146200011f57600080fd5b34620001eb576020366003190112620001eb576200013c62000cfa565b6200014662001ffe565b6001600160a01b03908116918215620001985750600054826001600160601b0360a01b821617600055167f8be0079c531659141344cd1fd0a4f28419497f9722a3daafe3b4186f6b6457e0600080a380f35b60849060206040519162461bcd60e51b8352820152602660248201527f4f776e61626c653a206e6577206f776e657220697320746865207a65726f206160448201526564647265737360d01b6064820152fd5b5080fd5b82346200022357602062000211620002073662000eae565b9291909162001d1d565b6040516001600160a01b039091168152f35b80fd5b823462000223578060031936011262000223576005546040516001600160a01b039091168152602090f35b5034620001eb576020366003190112620001eb576200026f62000cfa565b6200027962001ffe565b6001600160a01b03908116908115620002ff57839060085416803b15620001eb57818091602460405180948193631b2ce7f360e11b8352888a8401525af18015620002f457620002d8575b505081546001600160a01b03191617905580f35b620002e39062000d65565b620002f0578238620002c4565b8280fd5b6040513d84823e3d90fd5b60405162461bcd60e51b8152602081850152603660248201527f4c6971756964697479206d6f64756c6520696d706c656d656e746174696f6e2060448201527563616e6e6f74206265207a65726f206164647265737360501b6064820152608490fd5b5034620001eb576020366003190112620001eb576200038062000cfa565b906200038b62001ffe565b6001600160a01b0391821691821562000408579083916006541690813b15620002f0578360248492836040519586948593631b2ce7f360e11b85528401525af18015620002f457620003f0575b50506001600160601b0360a01b600254161760025580f35b620003fb9062000d65565b620001eb578138620003d8565b60405162461bcd60e51b8152602081840152603560248201527f5365637572697479206d6f64756c6520696d706c656d656e746174696f6e2063604482015274616e6e6f74206265207a65726f206164647265737360581b6064820152608490fd5b5034620001eb5781600319360112620001eb576001546002546003549254600554600654600754600854604080516001600160a01b03988916815296881660208801529787169786019790975292851660608501529084166080840152831660a0830152821660c0820152911660e082015261010090f35b823462000223578060031936011262000223576003546040516001600160a01b039091168152602090f35b823462000223578060031936011262000223576007546040516001600160a01b039091168152602090f35b823462000223578060031936011262000223576006546040516001600160a01b039091168152602090f35b82346200022357806003193601126200022357546040516001600160a01b039091168152602090f35b5034620001eb576020366003190112620001eb57620005aa62000cfa565b90620005b562001ffe565b6001600160a01b0391821691821562000632579083916005541690813b15620002f0578360248492836040519586948593631b2ce7f360e11b85528401525af18015620002f4576200061a575b50506001600160601b0360a01b600154161760015580f35b620006259062000d65565b620001eb57813862000602565b60405162461bcd60e51b8152602081840152602b60248201527f546f6b656e20696d706c656d656e746174696f6e2063616e6e6f74206265207a60448201526a65726f206164647265737360a81b6064820152608490fd5b823462000223578060031936011262000223576002546040516001600160a01b039091168152602090f35b82346200022357806003193601126200022357620006d262001ffe565b600080546001600160a01b0319811682556001600160a01b03167f8be0079c531659141344cd1fd0a4f28419497f9722a3daafe3b4186f6b6457e08280a380f35b509034620002235760c0366003190112620002235781356001600160401b038111620001eb5762000748903690840162000e51565b6024356001600160401b038111620002f05762000769903690850162000e51565b906200077462000d11565b916200077f62000e9e565b936001600160401b0360a43511620002235736602360a43501121562000223576001600160401b0360a43587013511620009025760405195620007ce602060a43583013560051b018862000dc7565b60a4358181013580895260208901913660059290921b0160240111620002f057602460a43501905b60a4358381013560051b0160240182106200081f576020620002118a8a8a6044358a8c62002081565b8135906001600160401b038211620008fe5760c060a435830136036023190112620008fe5760405191620008538362000d8f565b60a4358101602401356001600160a01b0381168103620008f557835260a4358101604481013560208501526001600160401b0360649091013511620008fa57620008ab3660a435830160648101350160240162000e51565b604084015260848160a435010135918215158303620008f557606084019290925260a4803590910190810135608084015260c4013560a083015290815260209182019101620007f6565b600080fd5b8580fd5b8480fd5b604186634e487b7160e01b6000525260246000fd5b823462000223576020620002116200092f3662000eae565b9291909162001306565b5034620001eb5760a080600319360112620002f0576001600160401b03918035838111620008fe5762000970903690830162000e51565b92602435908111620008fe57602094916200098e9136910162000e51565b906200099962000d11565b90620009a462000e9e565b60405192620009b38462000dab565b60018452825b8880821015620009ff576040518a9291620009d48262000d8f565b8682528681830152866060806040850152830152866080830152868a830152828801015201620009b9565b898562000a858887878e8d60405162000a188162000d8f565b6001600160a01b03848116825260648a83015260405190989062000a3c8162000dab565b600581526427bbb732b960d91b8b820152604083015280606083015280608083015260a082015262000a6e8662000f14565b5262000a7a8562000f14565b506044359162002081565b60405191168152f35b823462000223578060031936011262000223576001546040516001600160a01b039091168152602090f35b823462000223578060031936011262000223576040519080826009549162000ae18362000d28565b928383526020946001918660018216918260001462000b7c57505060011462000b2f575b505062000b159250038362000dc7565b62000b2b60405192828493845283019062000e0e565b0390f35b908592506009825260008051602062003eee8339815191525b85831062000b6357505062000b159350820101858062000b05565b8054838901850152879450869390920191810162000b48565b925093505062000b1594915060ff191682840152151560051b820101858062000b05565b50903462000223576020366003190112620002235762000bbf62000cfa565b9162000bca62001ffe565b6001600160a01b0392831692831562000c3e576007541690813b15620002f0578360248492836040519586948593631b2ce7f360e11b85528401525af18015620002f45762000c2c575b50906001600160601b0360a01b600354161760035580f35b62000c379062000d65565b3862000c14565b60405162461bcd60e51b8152602081840152603960248201527f446973747269627574696f6e206d6f64756c6520696d706c656d656e7461746960448201527f6f6e2063616e6e6f74206265207a65726f2061646472657373000000000000006064820152608490fd5b823462000223578060031936011262000223576008546040516001600160a01b039091168152602090f35b91905034620002f05782600319360112620002f057546001600160a01b0316815260209150f35b600435906001600160a01b0382168203620008f557565b606435906001600160a01b0382168203620008f557565b90600182811c9216801562000d5a575b602083101462000d4457565b634e487b7160e01b600052602260045260246000fd5b91607f169162000d38565b6001600160401b03811162000d7957604052565b634e487b7160e01b600052604160045260246000fd5b60c081019081106001600160401b0382111762000d7957604052565b604081019081106001600160401b0382111762000d7957604052565b90601f801991011681019081106001600160401b0382111762000d7957604052565b60005b83811062000dfd5750506000910152565b818101518382015260200162000dec565b9060209162000e298151809281855285808601910162000de9565b601f01601f1916010190565b6001600160401b03811162000d7957601f01601f191660200190565b81601f82011215620008f55780359062000e6b8262000e35565b9262000e7b604051948562000dc7565b82845260208383010111620008f557816000926020809301838601378301015290565b608435908115158203620008f557565b906080600319830112620008f5576001600160401b03600435818111620008f5578362000ede9160040162000e51565b92602435918211620008f55762000ef89160040162000e51565b90604435906064356001600160a01b0381168103620008f55790565b80511562000f225760200190565b634e487b7160e01b600052603260045260246000fd5b805182101562000f225760209160051b010190565b9294939060609262000f6c62000f7b9260808752608087019062000e0e565b90858203602087015262000e0e565b60408401959095526001600160a01b0316910152565b6001600160a01b03909116815260406020820181905262000fb59291019062000e0e565b90565b90816020910312620008f557518015158103620008f55790565b909162000fec62000fb59360408452604084019062000e0e565b91602081840391015262000e0e565b601f8111620010075750565b60006009600052601f60008051602062003eee833981519152920160051c8201915b8281106200103657505050565b81815560010162001029565b601f81116200104f575050565b600090600960005260008051602062003eee833981519152906020601f850160051c830194106200109d575b601f0160051c01915b8281106200109157505050565b81815560010162001084565b90925082906200107b565b601f8111620010b45750565b601f60009160096000520160051c60008051602062003eee83398151915201907f6e1540171b6c0c960b71a7020d9f60077f6af931a8bbf590da0223dacf75c7b15b8281106200110357505050565b818155600101620010f6565b60009060033d116200111d57565b905060046000803e60005160e01c90565b600060443d1062000fb557604051600319913d83016004833e81516001600160401b03918282113d602484011117620011915781840194855193841162001199573d8501016020848701011162001191575062000fb59291016020019062000dc7565b949350505050565b50949350505050565b60095460009291620011b48262000d28565b80825291602090600190818116908115620012275750600114620011d9575b50505050565b92939450600960005260008051602062003eee833981519152926000935b85851062001213575050506020925001019038808080620011d3565b8054858501840152938201938101620011f7565b92505050602093945060ff929192191683830152151560051b01019038808080620011d3565b600954600092916200125f8262000d28565b80825291602090600190818116908115620012275750600114620012835750505050565b92939450600960005260008051602062003eee833981519152926000935b858510620012bd575050506020925001019038808080620011d3565b8054858501840152938201938101620012a1565b3d1562001301573d90620012e58262000e35565b91620012f5604051938462000dc7565b82523d6000602084013e565b606090565b9390929192604091825190602094635e9d09fb60e11b86840152826200133482602499878c8c860162000f4d565b03936200134a601f199586810186528562000dc7565b600554865160009a6001600160401b039690926001600160a01b0392610672928382018a81118382101762001d09578f90928f936200139d8f9a99989796948392896200385c978a898739169062000f91565b0391f08d816200163e575050505050505050505050620013bc6200110f565b6308c379a0146200149b575b50506200149790600985620013dc620012d1565b50620013f3620013ed835462000d28565b620010a8565b60458255527f556e6b6e6f776e206572726f72206372656174696e6720746f6b656e2070726f60008051602062003eee8339815191525561787960f01b7f6e1540171b6c0c960b71a7020d9f60077f6af931a8bbf590da0223dacf75c7b05560008051602062003ece833981519152815182815280620014758482016200124d565b33878301520390a15192839262461bcd60e51b8452600484015282016200124d565b0390fd5b620014a56200112e565b9182620014b35750620013c8565b9091956200150a603c855180997f4572726f72206372656174696e6720746f6b656e2070726f78793a200000000089830152620014f9815180928b868601910162000de9565b810103601c81018a52018862000dc7565b86519283116200162b576200152c836200152660095462000d28565b62001042565b8491601f8411600114620015b15750906200149794959683620015a5575b50508160011b916000199060031b1c1916176009555b60008051602062003ece83398151915281518281528062001583848201620011a2565b33878301520390a15192839262461bcd60e51b845260048401528201620011a2565b0151905038806200154a565b83979197166009885260008051602062003eee833981519152975b818110620016135750916200149795969791846001959410620015f9575b505050811b0160095562001560565b015160001960f88460031b161c19169055388080620015ea565b838301518955600190980197928601928601620015cc565b634e487b7160e01b815260416004528590fd5b6200167c86806200168994169b16998b8151918c85840152848352620016648362000dab565b5196879463347d5e2560e21b90860152840162000f91565b038c810184528362000dc7565b8360065416908c5193808501918583108d84111762001cf35791620016b49391869593863962000f91565b03908df0908c82620018ff578c8c8c8c8c620016cf6200110f565b6308c379a0146200178c575b50506200149790600985620016ef620012d1565b5062001700620013ed835462000d28565b60598255527f556e6b6e6f776e206572726f72206372656174696e672073656375726974792060008051602062003eee833981519152556b6d6f64756c652070726f787960a01b7f6e1540171b6c0c960b71a7020d9f60077f6af931a8bbf590da0223dacf75c7b05560008051602062003ece83398151915281518281528062001583848201620011a2565b620017966200112e565b9182620017a45750620016db565b909195620018096046855180997f4572726f72206372656174696e67207365637572697479206d6f64756c652070898301526503937bc3c9d160d51b88830152620017f8815180928b868601910162000de9565b810103602681018a52018862000dc7565b86519283116200162b5762001825836200152660095462000d28565b8491601f84116001146200188657509062001497949596836200187a5750508160011b916000199060031b1c19161760095560008051602062003ece83398151915281518281528062001583848201620011a2565b0151905086806200154a565b83979197166009885260008051602062003eee833981519152975b818110620018e75750916200149795969791846001959410620018cd57505050811b0160095562001560565b015160001960f88460031b161c19169055868080620015ea565b838301518955600190980197928601928601620018a1565b8b8b6200193e92819f9d9e9c9e51918984840152838352620019218362000dab565b518080958194630b74e9e360e21b8352888a166004840162000f91565b03918b5af1908162001cbf575b5062001ab05750505050505050620019626200110f565b6308c379a01462001978575b84513d87823e3d90fd5b620019826200112e565b93846200199057506200196e565b90859187620019e060358551809974022b93937b91030b23234b7339036b7b23ab6329d1605d1b89830152620019cf815180928b868601910162000de9565b810103601581018a52018862000dc7565b86519283116200162b57620019fc836200152660095462000d28565b8491601f841160011462001a5157509062001497949596836200187a5750508160011b916000199060031b1c19161760095560008051602062003ece83398151915281518281528062001583848201620011a2565b83979197166009885260008051602062003eee833981519152975b81811062001a985750916200149795969791846001959410620018cd57505050811b0160095562001560565b83830151895560019098019792860192860162001a6c565b853b1562001cbb578b5163f2fde38b60e01b8152911660048201528b818a8183895af1908162001ca5575b5062001c4557505050505062001af06200110f565b6308c379a01462001b055784513d87823e3d90fd5b62001b0f6200112e565b938462001b1d57506200196e565b9085918762001b75603e855180997f4572726f72207472616e7366657272696e67206f776e6572736869703a2000008983015262001b64815180928b868601910162000de9565b810103601e81018a52018862000dc7565b86519283116200162b5762001b91836200152660095462000d28565b8491601f841160011462001be657509062001497949596836200187a5750508160011b916000199060031b1c19161760095560008051602062003ece83398151915281518281528062001583848201620011a2565b83979197166009885260008051602062003eee833981519152975b81811062001c2d5750916200149795969791846001959410620018cd57505050811b0160095562001560565b83830151895560019098019792860192860162001c01565b93995093509550958694507f6596c1670eb3390048d23721809c3da5d3f531375ac0e2cab0f77a808ed64331935062001c8390519283928362000fd2565b0390a362001c9d62001c9760095462000d28565b62000ffb565b600060095590565b62001cb3909c919c62000d65565b9a3862001adb565b8c80fd5b62001ce3908b3d8d1162001ceb575b62001cda818362000dc7565b81019062000fb8565b50386200194b565b503d62001cce565b5050508d8f634e487b7160e01b81526041600452fd5b50634e487b7160e01b8f5260416004528d8ffd5b92909391936040928351918262001d4985602099635e9d09fb60e11b8b850152848a6024860162000f4d565b039562001d5f601f199788810186528562000dc7565b60055486516001600160401b039690956001600160a01b039261067280890192909185168a84118a85101762000d7957899362001da2936200385c863962000f91565b0360009687f08062001fbc5750505050505062001dbe6200110f565b6308c379a01462001e57575b848362001dd6620012d1565b5062001de862001c9760095462000d28565b7f556e6b6e6f776e206572726f72206372656174696e6720746f6b656e00000038600955805181815260008051602062003ece833981519152908062001e308185016200124d565b33868301520390a1519062461bcd60e51b825260048201528062001497602482016200124d565b62001e616200112e565b8062001e6e575062001dca565b62001ebb60368551809375022b93937b91031b932b0ba34b733903a37b5b2b71d160551b8a83015262001eaa815180928c868601910162000de9565b810103601681018452018262000dc7565b805192831162001fa85762001ed7836200152660095462000d28565b8591601f841160011462001f3557839495509262001f29575b50508160011b916000199060031b1c1916176009555b60008051602062003ece83398151915281518281528062001e308482016200124d565b01519050388062001ef0565b9190948316946009835260008051602062003eee833981519152925b8787821062001f9157505083600195961062001f77575b505050811b0160095562001f06565b015160001960f88460031b161c1916905538808062001f68565b600184958293958501518155019401920162001f51565b634e487b7160e01b82526041600452602482fd5b97519499509681169750909516948694507f6596c1670eb3390048d23721809c3da5d3f531375ac0e2cab0f77a808ed643319350829162001c83918362000fd2565b6000546001600160a01b031633036200201357565b606460405162461bcd60e51b815260206004820152602060248201527f4f776e61626c653a2063616c6c6572206973206e6f7420746865206f776e65726044820152fd5b818102929181159184041417156200206b57565b634e487b7160e01b600052601160045260246000fd5b604051635e9d09fb60e11b602082015260009796939591949190620020c181620020b2308a888b6024860162000f4d565b03601f19810183528262000dc7565b60055460405191906001600160a01b03166001600160401b03610672840190811190841117620030b357829162002106916106726200385c8539610672840162000f91565b039089f08062002306575050505050505090620021226200110f565b6308c379a014620021a3575b62002138620012d1565b506200214a62001c9760095462000d28565b60387f556e6b6e6f776e206572726f72206372656174696e6720746f6b656e000000000160095560008051602062003ece833981519152604051604081528062002197604082016200124d565b3360208301520390a190565b620021ad6200112e565b80620021ba57506200212e565b91906200220c6036604051809575022b93937b91031b932b0ba34b733903a37b5b2b71d160551b6020830152620021fb815180926020868601910162000de9565b810103601681018652018462000dc7565b82516001600160401b03811162001fa8576200222f816200152660095462000d28565b6020601f8211600114620022915782939482939262002285575b50508160011b916000199060031b1c1916176009555b60008051602062003ece833981519152604051604081528062002197604082016200124d565b01519050388062002249565b6009835260008051602062003eee83398151915290601f198316845b818110620022ed57509583600195969710620022d3575b505050811b016009556200225f565b015160001960f88460031b161c19169055388080620022c4565b9192602060018192868b015181550194019201620022ad565b6006546040516001600160a01b03928316988b9390926200235c9291166200232e8262000dab565b600f82526e7365637572697479206d6f64756c6560881b60208301526001600160a01b038716908b6200349b565b956001600160a01b038716156200349057836200342a575b600854604051620023c2916001600160a01b0316620023938262000dab565b601082526f6c6971756964697479206d6f64756c6560801b60208301526001600160a01b038816908c6200349b565b936001600160a01b038516156200341e576200241860208d8c8b6040519260018060a01b038c1685850152848452620023fb8462000dab565b604051809681958294630b74e9e360e21b84526004840162000f91565b03926001600160a01b03165af19081620033fa575b50620025a25750505050505050505050620024476200110f565b6308c379a01462002460575b50604051903d90823e3d90fd5b6200246a6200112e565b908162002478575062002453565b9091620024d1603e60405180957f4572726f7220616464696e67207365637572697479206d6f64756c653a2000006020830152620024c0815180926020868601910162000de9565b810103601e81018652018462000dc7565b82516001600160401b03811162001fa857620024f4816200152660095462000d28565b6020601f82116001146200254857829394829392620022855750508160011b916000199060031b1c19161760095560008051602062003ece833981519152604051604081528062002197604082016200124d565b6009835260008051602062003eee83398151915290601f198316845b8181106200258957509583600195969710620022d357505050811b016009556200225f565b9192602060018192868b01518155019401920162002564565b80620033e7575b62002998575b5050506020620025f4916040519060018060a01b03851683830152828252620025d88262000dab565b604051630b74e9e360e21b815293849283926004840162000f91565b03818b6001600160a01b038b165af1908162002974575b506200277a575050505050620026206200110f565b6308c379a014620026385750604051903d90823e3d90fd5b620026426200112e565b908162002650575062002453565b9091620026a9603f60405180957f4572726f7220616464696e67206c6971756964697479206d6f64756c653a2000602083015262002698815180926020868601910162000de9565b810103601f81018652018462000dc7565b82516001600160401b03811162001fa857620026cc816200152660095462000d28565b6020601f82116001146200272057829394829392620022855750508160011b916000199060031b1c19161760095560008051602062003ece833981519152604051604081528062002197604082016200124d565b6009835260008051602062003eee83398151915290601f198316845b8181106200276157509583600195969710620022d357505050811b016009556200225f565b9192602060018192868b0151815501940192016200273c565b6001600160a01b03851692833b15620029705760405163f2fde38b60e01b81526001600160a01b039091166004820152878160248183885af190816200295a575b5062002919575050505050620027d06200110f565b6308c379a014620027e85750604051903d90823e3d90fd5b620027f26200112e565b908162002800575062002453565b909162002848603e60405180957f4572726f72207472616e7366657272696e67206f776e6572736869703a2000006020830152620024c0815180926020868601910162000de9565b82516001600160401b03811162001fa8576200286b816200152660095462000d28565b6020601f8211600114620028bf57829394829392620022855750508160011b916000199060031b1c19161760095560008051602062003ece833981519152604051604081528062002197604082016200124d565b6009835260008051602062003eee83398151915290601f198316845b8181106200290057509583600195969710620022d357505050811b016009556200225f565b9192602060018192868b015181550194019201620028db565b7f6596c1670eb3390048d23721809c3da5d3f531375ac0e2cab0f77a808ed6433192939495965062001c8360405192839260018060a01b0316968362000fd2565b620029689098919862000d65565b9638620027bb565b8780fd5b620029909060203d60201162001ceb5762001cda818362000dc7565b50386200260b565b9490959196929793620029e3602060405160018060a01b03841682820152818152620029c48162000dab565b8d8b604051809581948293630b74e9e360e21b84526004840162000f91565b03916001600160a01b038b165af19081620033c3575b5062002b775750505050505050505062002a126200110f565b6308c379a01462002a2a5750604051903d90823e3d90fd5b62002a346200112e565b908162002a42575062002453565b909162002aa6604260405180957f4572726f7220616464696e6720646973747269627574696f6e206d6f64756c6560208301526101d160f51b604083015262002a95815180926020868601910162000de9565b810103602281018652018462000dc7565b82516001600160401b03811162001fa85762002ac9816200152660095462000d28565b6020601f821160011462002b1d57829394829392620022855750508160011b916000199060031b1c19161760095560008051602062003ece833981519152604051604081528062002197604082016200124d565b6009835260008051602062003eee83398151915290601f198316845b81811062002b5e57509583600195969710620022d357505050811b016009556200225f565b9192602060018192868b01518155019401920162002b39565b8a9995969798995b8b885182101562002eb35762002b96828a62000f38565b518b606462002bab8d60208501519062002057565b04801562002ea65783606084015162002e5b575b9162002c12939160209360018060a01b03845116604085019760608951960151151590604051988997889687956310c5833960e31b87526004870152602486015260a0604486015260a485019062000e0e565b6064840192909252608483015203926001600160a01b03165af1908162002e37575b5062002e2d5760019062002c476200110f565b6308c379a01462002c6f575b5062002c64576001905b0162002b7f565b6040513d8d823e3d90fd5b8d62002c7a6200112e565b908162002c8a575b505062002c53565b62002d0b91929350925160405180937f4572726f7220616464696e6720616c6c6f636174696f6e20666f72200000000060208301526101d160f51b603c9362002cdd815180926020888801910162000de9565b830193840152603e9262002cfb825180936020878501910162000de9565b0103601e81018452018262000dc7565b8051906001600160401b03821162002e19578e829162002d32836200152660095462000d28565b602091601f841160011462002da2579262002d96575b50508160011b916000199060031b1c1916176009555b60008051602062003ece833981519152604051604081528062002d84604082016200124d565b3360208301520390a138808e62002c82565b01519050388062002d48565b6009815260008051602062003eee8339815191529350601f198516905b81811062002e00575090846001959493921062002de6575b505050811b0160095562002d5e565b015160001960f88460031b161c1916905538808062002dd7565b9293602060018192878601518155019501930162002dbf565b634e487b7160e01b8f52604160045260248ffd5b5060019062002c5d565b62002e539060203d60201162001ceb5762001cda818362000dc7565b503862002c34565b50608083015192935091620151808082029250811591830414171562002e9257804201421162002e9257420191908c908f62002bbf565b634e487b7160e01b8f52601160045260248ffd5b5050505060019062002c5d565b6040516001623c4bbb60e21b03198152979b969a9599949893979296956020925083916004918391906001600160a01b03165af190816200339f575b50620030c7575050600162002f036200110f565b6308c379a01462002f2f575b62002f24576020620025f4915b9138620025af565b6040513d89823e3d90fd5b62002f396200112e565b8062002f47575b5062002f0f565b9050889062002fa2603e60405180937f4572726f7220657865637574696e6720646973747269627574696f6e3a200000602083015262002f91815180926020868601910162000de9565b810103601e81018452018262000dc7565b8051906001600160401b038211620030b357819062002fc8826200152660095462000d28565b602090601f831160011462003037578c926200302b575b50508160011b916000199060031b1c1916176009555b60008051602062003ece83398151915260405160408152806200301b604082016200124d565b3360208301520390a13862002f40565b01519050388062002fdf565b925060098c5260008051602062003eee833981519152908c935b601f198416851062003097576001945083601f198116106200307d575b505050811b0160095562002ff5565b015160001960f88460031b161c191690553880806200306e565b8181015183556020948501946001909301929091019062003051565b634e487b7160e01b8b52604160045260248bfd5b9491979390969592895b86518110156200338857620030e7818862000f38565b5160608101516200334d578860646200310560208401518d62002057565b048d81156200337b57835160405163a9059cbb60e01b81526001600160a01b0391821660048201526024810193909352919260209284926044928492165af1908162003357575b506200334d576001906200315f6200110f565b6308c379a01462003187575b506200317c576001905b01620030d1565b6040513d8c823e3d90fd5b8c620031926200112e565b9081620031a2575b50506200316b565b620032279192935060409093015160405180937f4572726f72207472616e7366657272696e6720746f6b656e7320746f2000000060208301526101d160f51b603d93620031f9815180926020888801910162000de9565b830193840152603f9262003217825180936020878501910162000de9565b0103601f81018452018262000dc7565b8051906001600160401b03821162003339578d82916200324e836200152660095462000d28565b602091601f8411600114620032be5792620032b2575b50508160011b916000199060031b1c1916176009555b60008051602062003ece8339815191526040516040815280620032a0604082016200124d565b3360208301520390a138808d6200319a565b01519050388062003264565b60098152935060008051602062003eee83398151915291905b601f19841685106200331d576001945083601f1981161062003303575b505050811b016009556200327a565b015160001960f88460031b161c19169055388080620032f4565b81810151835560209485019460019093019290910190620032d7565b634e487b7160e01b8e52604160045260248efd5b5060019062003175565b620033739060203d60201162001ceb5762001cda818362000dc7565b50386200314c565b5050505060019062003175565b50929596509296620025f491945060209062002f1c565b620033bb9060203d60201162001ceb5762001cda818362000dc7565b503862002eef565b620033df9060203d60201162001ceb5762001cda818362000dc7565b5038620029f9565b506001600160a01b0383161515620025a9565b620034169060203d60201162001ceb5762001cda818362000dc7565b50386200242d565b50505050505050505050565b6007546040519193506200347f91906001600160a01b03166200344d8262000dab565b6013825272646973747269627574696f6e206d6f64756c6560681b60208301526001600160a01b038716908b6200349b565b916001600160a01b03831662002374575b505050505050505050565b9291909260409283519160209384840152838352620034ba8362000dab565b620034d9855193849263347d5e2560e21b878501526024840162000f91565b0390620034ef601f199283810185528462000dc7565b8451956001600160401b03936001600160a01b039161067291828a018781118b82101762000d7957846200352d938c956200385c8739169062000f91565b0360009788f08062003850575050620035456200110f565b6308c379a014620036e9575b6200355b620012d1565b50620035c0603d865180937f556e6b6e6f776e206572726f72206372656174696e672000000000000000000088830152620035a0815180928a60378601910162000de9565b8101652070726f787960d01b603782015203601d81018452018262000dc7565b8051928311620036d557620035dc836200152660095462000d28565b8391601f84116001146200364b5750918062003633949260008051602062003ece833981519152969488926200363f575b50508160011b916000199060031b1c1916176009555b815192828493845283016200124d565b9033908301520390a190565b0151905038806200360d565b6009875260008051602062003eee8339815191529291908416875b818110620036bd575092600192859260008051602062003ece833981519152989662003633989610620036a3575b505050811b0160095562003623565b015160001960f88460031b161c1916905538808062003694565b92938660018192878601518155019501930162003666565b634e487b7160e01b86526041600452602486fd5b620036f36200112e565b8062003700575062003551565b906037620037709187519384916e022b93937b91031b932b0ba34b7339608d1b8984015262003739815180928b602f8701910162000de9565b820167010383937bc3c9d160c51b602f82015262003760825180938b878501910162000de9565b0103601781018452018262000dc7565b8051928311620036d5576200378c836200152660095462000d28565b8391601f8411600114620037e15750918062003633949260008051602062003ece833981519152969488926200363f5750508160011b916000199060031b1c191617600955815192828493845283016200124d565b6009875260008051602062003eee8339815191529291908416875b81811062003838575092600192859260008051602062003ece833981519152989662003633989610620036a357505050811b0160095562003623565b929386600181928786015181550195019301620037fc565b16969550505050505056fe60806040908082526106728038038091610019828561034d565b8339810190828183031261023f5761003081610370565b6020828101516001600160401b039391929184821161023f57019084601f8301121561023f5781519161006283610384565b9261006f8851948561034d565b8084528484019685828401011161023f57868561008c930161039f565b803b156102fb578551635c60da1b60e01b80825292916001600160a01b0316908481600481855afa9081156102f0576000916102bb575b503b1561025e577fa3f0ad74e5423aebfd80d3ef4346578335a9a72aeaee59ff6cb3582b35133d5080546001600160a01b03191682179055865192817f1cf3b03a6cf19fa2baba4df148e9dcabedea7f8a5c07840e207e5c089be95d3e600080a2825115801590610256575b610142575b87516101fc90816104768239f35b6004848693819382525afa91821561024b5760009261020f575b5085519360608501908111858210176101f9578652602784527f416464726573733a206c6f772d6c6576656c2064656c65676174652063616c6c83850152660819985a5b195960ca1b84870152516101e3946000918291845af4903d156101f0573d6101c781610384565b906101d48851928361034d565b8152600081943d92013e6103c2565b5038808080808080610134565b606092506103c2565b634e487b7160e01b600052604160045260246000fd5b9091508281813d8311610244575b610227818361034d565b8101031261023f5761023890610370565b903861015c565b600080fd5b503d61021d565b86513d6000823e3d90fd5b50600061012f565b865162461bcd60e51b815260048101859052603060248201527f455243313936373a20626561636f6e20696d706c656d656e746174696f6e206960448201526f1cc81b9bdd08184818dbdb9d1c9858dd60821b6064820152608490fd5b90508481813d83116102e9575b6102d2818361034d565b8101031261023f576102e390610370565b386100c3565b503d6102c8565b88513d6000823e3d90fd5b855162461bcd60e51b815260048101849052602560248201527f455243313936373a206e657720626561636f6e206973206e6f74206120636f6e6044820152641d1c9858dd60da1b6064820152608490fd5b601f909101601f19168101906001600160401b038211908210176101f957604052565b51906001600160a01b038216820361023f57565b6001600160401b0381116101f957601f01601f191660200190565b60005b8381106103b25750506000910152565b81810151838201526020016103a2565b9192901561042457508151156103d6575090565b3b156103df5790565b60405162461bcd60e51b815260206004820152601d60248201527f416464726573733a2063616c6c20746f206e6f6e2d636f6e74726163740000006044820152606490fd5b8251909150156104375750805190602001fd5b6044604051809262461bcd60e51b825260206004830152610467815180928160248601526020868601910161039f565b601f01601f19168101030190fdfe608080604052366100c7577fa3f0ad74e5423aebfd80d3ef4346578335a9a72aeaee59ff6cb3582b35133d5054635c60da1b60e01b8252602090829060049082906001600160a01b03165afa9081156100bb57600091610060575b506101a7565b905060203d6020116100b4575b601f8101601f191682019167ffffffffffffffff83118184101761009e576100989260405201610161565b3861005a565b634e487b7160e01b600052604160045260246000fd5b503d61006d565b6040513d6000823e3d90fd5b7fa3f0ad74e5423aebfd80d3ef4346578335a9a72aeaee59ff6cb3582b35133d5054604051635c60da1b60e01b815290602090829060049082906001600160a01b03165afa9081156100bb5760009161012057506101a7565b602091503d8211610159575b601f8201601f191681019167ffffffffffffffff83118284101761009e5761009892604052810190610188565b3d915061012c565b602090607f190112610183576080516001600160a01b03811681036101835790565b600080fd5b9081602091031261018357516001600160a01b03811681036101835790565b6000808092368280378136915af43d82803e156101c2573d90f35b3d90fdfea264697066735822122055fbd96e33b80d64199b9943c5791120941f50472e3a8ea3832c0c2bbc01d04c64736f6c63430008160033609b6c5a1c9a8a0155f177b91e093957168ca7de93871803b59597d7d54de3fa6e1540171b6c0c960b71a7020d9f60077f6af931a8bbf590da0223dacf75c7afa2646970667358221220bbef7733d8b00ea7f70023497fc1c9bf0a78fdf0f484d1c305c4e96dc0a23c3564736f6c6343000816003360803461011a57601f61045a38819003918201601f19168301916001600160401b0383118484101761011f5780849260209460405283398101031261011a57516001600160a01b03808216919082820361011a576000549160018060a01b0319923384821617600055604051923391167f8be0079c531659141344cd1fd0a4f28419497f9722a3daafe3b4186f6b6457e0600080a33b156100b25750600154161760015560405161032490816101368239f35b62461bcd60e51b815260206004820152603360248201527f5570677261646561626c65426561636f6e3a20696d706c656d656e746174696f60448201527f6e206973206e6f74206120636f6e7472616374000000000000000000000000006064820152608490fd5b600080fd5b634e487b7160e01b600052604160045260246000fdfe6080604052600436101561001257600080fd5b6000803560e01c80633659cfe6146101c75780635c60da1b1461019e578063715018a6146101445780638da5cb5b1461011d5763f2fde38b1461005457600080fd5b3461011a57602036600319011261011a576004356001600160a01b038181169182900361011657610083610296565b81156100c25782546001600160a01b0319811683178455167f8be0079c531659141344cd1fd0a4f28419497f9722a3daafe3b4186f6b6457e08380a380f35b60405162461bcd60e51b815260206004820152602660248201527f4f776e61626c653a206e6577206f776e657220697320746865207a65726f206160448201526564647265737360d01b6064820152608490fd5b8280fd5b80fd5b503461011a578060031936011261011a57546040516001600160a01b039091168152602090f35b503461011a578060031936011261011a5761015d610296565b80546001600160a01b03198116825581906001600160a01b03167f8be0079c531659141344cd1fd0a4f28419497f9722a3daafe3b4186f6b6457e08280a380f35b503461011a578060031936011261011a576001546040516001600160a01b039091168152602090f35b503461011a57602036600319011261011a576004356001600160a01b03811690818103610116576101f6610296565b3b1561023557600180546001600160a01b031916821790557fbc7cd75a20ee27fd9adebab32041f755214dbc6bffa90cc0225b39da2e5c2d3b8280a280f35b60405162461bcd60e51b815260206004820152603360248201527f5570677261646561626c65426561636f6e3a20696d706c656d656e746174696f6044820152721b881a5cc81b9bdd08184818dbdb9d1c9858dd606a1b6064820152608490fd5b6000546001600160a01b031633036102aa57565b606460405162461bcd60e51b815260206004820152602060248201527f4f776e61626c653a2063616c6c6572206973206e6f7420746865206f776e65726044820152fdfea2646970667358221220df6ab73b1dff0a8ef9b5ef6df200574135fbb4c8346dced2b18f2800c3bc189564736f6c63430008160033",
  "linkReferences": {},
  "deployedLinkReferences": {}
}